{
	"daostack/controller/Reputation.sol": {
		"Reputation": {
			"abi": [
				{
					"anonymous": false,
					"inputs": [
						{
							"indexed": true,
							"internalType": "address",
							"name": "_from",
							"type": "address"
						},
						{
							"indexed": false,
							"internalType": "uint256",
							"name": "_amount",
							"type": "uint256"
						}
					],
					"name": "Burn",
					"type": "event"
				},
				{
					"anonymous": false,
					"inputs": [
						{
							"indexed": true,
							"internalType": "address",
							"name": "_to",
							"type": "address"
						},
						{
							"indexed": false,
							"internalType": "uint256",
							"name": "_amount",
							"type": "uint256"
						}
					],
					"name": "Mint",
					"type": "event"
				},
				{
					"anonymous": false,
					"inputs": [
						{
							"indexed": true,
							"internalType": "address",
							"name": "previousOwner",
							"type": "address"
						},
						{
							"indexed": true,
							"internalType": "address",
							"name": "newOwner",
							"type": "address"
						}
					],
					"name": "OwnershipTransferred",
					"type": "event"
				},
				{
					"inputs": [
						{
							"internalType": "address",
							"name": "_owner",
							"type": "address"
						}
					],
					"name": "balanceOf",
					"outputs": [
						{
							"internalType": "uint256",
							"name": "balance",
							"type": "uint256"
						}
					],
					"stateMutability": "view",
					"type": "function"
				},
				{
					"inputs": [
						{
							"internalType": "address",
							"name": "_owner",
							"type": "address"
						},
						{
							"internalType": "uint256",
							"name": "_blockNumber",
							"type": "uint256"
						}
					],
					"name": "balanceOfAt",
					"outputs": [
						{
							"internalType": "uint256",
							"name": "",
							"type": "uint256"
						}
					],
					"stateMutability": "view",
					"type": "function"
				},
				{
					"inputs": [
						{
							"internalType": "address",
							"name": "_user",
							"type": "address"
						},
						{
							"internalType": "uint256",
							"name": "_amount",
							"type": "uint256"
						}
					],
					"name": "burn",
					"outputs": [
						{
							"internalType": "bool",
							"name": "",
							"type": "bool"
						}
					],
					"stateMutability": "nonpayable",
					"type": "function"
				},
				{
					"inputs": [],
					"name": "checkpoint_interval",
					"outputs": [
						{
							"internalType": "uint256",
							"name": "",
							"type": "uint256"
						}
					],
					"stateMutability": "view",
					"type": "function"
				},
				{
					"inputs": [],
					"name": "decimals",
					"outputs": [
						{
							"internalType": "uint8",
							"name": "",
							"type": "uint8"
						}
					],
					"stateMutability": "view",
					"type": "function"
				},
				{
					"inputs": [
						{
							"internalType": "address",
							"name": "_user",
							"type": "address"
						},
						{
							"internalType": "uint256",
							"name": "_amount",
							"type": "uint256"
						}
					],
					"name": "mint",
					"outputs": [
						{
							"internalType": "bool",
							"name": "",
							"type": "bool"
						}
					],
					"stateMutability": "nonpayable",
					"type": "function"
				},
				{
					"inputs": [
						{
							"internalType": "address[]",
							"name": "_user",
							"type": "address[]"
						},
						{
							"internalType": "uint256[]",
							"name": "_amount",
							"type": "uint256[]"
						}
					],
					"name": "mintMultiple",
					"outputs": [
						{
							"internalType": "bool",
							"name": "",
							"type": "bool"
						}
					],
					"stateMutability": "nonpayable",
					"type": "function"
				},
				{
					"inputs": [],
					"name": "owner",
					"outputs": [
						{
							"internalType": "address",
							"name": "",
							"type": "address"
						}
					],
					"stateMutability": "view",
					"type": "function"
				},
				{
					"inputs": [],
					"name": "renounceOwnership",
					"outputs": [],
					"stateMutability": "nonpayable",
					"type": "function"
				},
				{
					"inputs": [],
					"name": "totalSupply",
					"outputs": [
						{
							"internalType": "uint256",
							"name": "",
							"type": "uint256"
						}
					],
					"stateMutability": "view",
					"type": "function"
				},
				{
					"inputs": [
						{
							"internalType": "uint256",
							"name": "_blockNumber",
							"type": "uint256"
						}
					],
					"name": "totalSupplyAt",
					"outputs": [
						{
							"internalType": "uint256",
							"name": "",
							"type": "uint256"
						}
					],
					"stateMutability": "view",
					"type": "function"
				},
				{
					"inputs": [
						{
							"internalType": "address",
							"name": "newOwner",
							"type": "address"
						}
					],
					"name": "transferOwnership",
					"outputs": [],
					"stateMutability": "nonpayable",
					"type": "function"
				},
				{
					"inputs": [
						{
							"internalType": "uint256",
							"name": "new_interval_",
							"type": "uint256"
						}
					],
					"name": "updateCheckpointInterval",
					"outputs": [],
					"stateMutability": "nonpayable",
					"type": "function"
				}
			],
			"devdoc": {
				"details": "A DAO has Reputation System which allows peers to rate other peers in order to build trust . A reputation is use to assign influence measure to a DAO'S peers. Reputation is similar to regular tokens but with one crucial difference: It is non-transferable. The Reputation contract maintain a map of address to reputation value. It provides an onlyOwner functions to mint and burn reputation _to (or _from) a specific address.",
				"kind": "dev",
				"methods": {
					"balanceOf(address)": {
						"details": "return the reputation amount of a given owner",
						"params": {
							"_owner": "an address of the owner which we want to get his reputation"
						}
					},
					"owner()": {
						"details": "Returns the address of the current owner."
					},
					"renounceOwnership()": {
						"details": "Leaves the contract without owner. It will not be possible to call `onlyOwner` functions anymore. Can only be called by the current owner. NOTE: Renouncing ownership will leave the contract without an owner, thereby removing any functionality that is only available to the owner."
					},
					"transferOwnership(address)": {
						"details": "Transfers ownership of the contract to a new account (`newOwner`). Can only be called by the current owner."
					}
				},
				"title": "Reputation system",
				"version": 1
			},
			"evm": {
				"assembly": "    /* \"daostack/controller/Reputation.sol\":703:9323  contract Reputation is Ownable {... */\n  mstore(0x40, 0x80)\n    /* \"daostack/controller/Reputation.sol\":741:767  uint8 public decimals = 18 */\n  0x00\n  dup1\n  sload\n  not(shl(0xa0, 0xff))\n  and\n  shl(0xa1, 0x09)\n  or\n  swap1\n  sstore\n    /* \"daostack/controller/Reputation.sol\":1967:1972  10000 */\n  0x2710\n    /* \"daostack/controller/Reputation.sol\":1930:1972  uint256 public checkpoint_interval = 10000 */\n  0x03\n  sstore\n    /* \"daostack/controller/Reputation.sol\":703:9323  contract Reputation is Ownable {... */\n  callvalue\n  dup1\n  iszero\n  tag_1\n  jumpi\n  0x00\n  dup1\n  revert\ntag_1:\n  pop\n    /* \"@openzeppelin/contracts/access/Ownable.sol\":936:968  _transferOwnership(_msgSender()) */\n  tag_4\n    /* \"@openzeppelin/contracts/utils/Context.sol\":719:729  msg.sender */\n  caller\n    /* \"@openzeppelin/contracts/access/Ownable.sol\":936:954  _transferOwnership */\n  tag_7\n    /* \"@openzeppelin/contracts/access/Ownable.sol\":936:968  _transferOwnership(_msgSender()) */\n  jump\t// in\ntag_4:\n    /* \"daostack/controller/Reputation.sol\":703:9323  contract Reputation is Ownable {... */\n  jump(tag_8)\n    /* \"@openzeppelin/contracts/access/Ownable.sol\":2433:2620  function _transferOwnership(address newOwner) internal virtual {... */\ntag_7:\n    /* \"@openzeppelin/contracts/access/Ownable.sol\":2506:2522  address oldOwner */\n  0x00\n    /* \"@openzeppelin/contracts/access/Ownable.sol\":2525:2531  _owner */\n  dup1\n  sload\n  sub(shl(0xa0, 0x01), 0x01)\n    /* \"@openzeppelin/contracts/access/Ownable.sol\":2541:2558  _owner = newOwner */\n  dup4\n  dup2\n  and\n  not(sub(shl(0xa0, 0x01), 0x01))\n  dup4\n  and\n  dup2\n  or\n  dup5\n  sstore\n    /* \"@openzeppelin/contracts/access/Ownable.sol\":2573:2613  OwnershipTransferred(oldOwner, newOwner) */\n  mload(0x40)\n    /* \"@openzeppelin/contracts/access/Ownable.sol\":2525:2531  _owner */\n  swap2\n  swap1\n  swap3\n  and\n  swap3\n  dup4\n  swap2\n    /* \"@openzeppelin/contracts/access/Ownable.sol\":2573:2613  OwnershipTransferred(oldOwner, newOwner) */\n  0x8be0079c531659141344cd1fd0a4f28419497f9722a3daafe3b4186f6b6457e0\n  swap2\n    /* \"@openzeppelin/contracts/access/Ownable.sol\":2506:2522  address oldOwner */\n  swap1\n    /* \"@openzeppelin/contracts/access/Ownable.sol\":2573:2613  OwnershipTransferred(oldOwner, newOwner) */\n  log3\n    /* \"@openzeppelin/contracts/access/Ownable.sol\":2496:2620  {... */\n  pop\n    /* \"@openzeppelin/contracts/access/Ownable.sol\":2433:2620  function _transferOwnership(address newOwner) internal virtual {... */\n  pop\n  jump\t// out\n    /* \"daostack/controller/Reputation.sol\":703:9323  contract Reputation is Ownable {... */\ntag_8:\n  dataSize(sub_0)\n  dup1\n  dataOffset(sub_0)\n  0x00\n  codecopy\n  0x00\n  return\nstop\n\nsub_0: assembly {\n        /* \"daostack/controller/Reputation.sol\":703:9323  contract Reputation is Ownable {... */\n      mstore(0x40, 0x80)\n      callvalue\n      dup1\n      iszero\n      tag_1\n      jumpi\n      0x00\n      dup1\n      revert\n    tag_1:\n      pop\n      jumpi(tag_2, lt(calldatasize, 0x04))\n      shr(0xe0, calldataload(0x00))\n      dup1\n      0x70a08231\n      gt\n      tag_16\n      jumpi\n      dup1\n      0x981b24d0\n      gt\n      tag_17\n      jumpi\n      dup1\n      0x981b24d0\n      eq\n      tag_12\n      jumpi\n      dup1\n      0x9dc29fac\n      eq\n      tag_13\n      jumpi\n      dup1\n      0xade4dcfb\n      eq\n      tag_14\n      jumpi\n      dup1\n      0xf2fde38b\n      eq\n      tag_15\n      jumpi\n      0x00\n      dup1\n      revert\n    tag_17:\n      dup1\n      0x70a08231\n      eq\n      tag_9\n      jumpi\n      dup1\n      0x715018a6\n      eq\n      tag_10\n      jumpi\n      dup1\n      0x8da5cb5b\n      eq\n      tag_11\n      jumpi\n      0x00\n      dup1\n      revert\n    tag_16:\n      dup1\n      0x07ea5477\n      eq\n      tag_3\n      jumpi\n      dup1\n      0x18160ddd\n      eq\n      tag_4\n      jumpi\n      dup1\n      0x313ce567\n      eq\n      tag_5\n      jumpi\n      dup1\n      0x40c10f19\n      eq\n      tag_6\n      jumpi\n      dup1\n      0x4104f64f\n      eq\n      tag_7\n      jumpi\n      dup1\n      0x4ee2cd7e\n      eq\n      tag_8\n      jumpi\n    tag_2:\n      0x00\n      dup1\n      revert\n        /* \"daostack/controller/Reputation.sol\":3432:4143  function mintMultiple(address[] memory _user, uint256[] memory _amount) public onlyOwner returns (bool) {... */\n    tag_3:\n      tag_18\n      tag_19\n      calldatasize\n      0x04\n      tag_20\n      jump\t// in\n    tag_19:\n      tag_21\n      jump\t// in\n    tag_18:\n      mload(0x40)\n        /* \"#utility.yul\":2775:2789   */\n      swap1\n      iszero\n        /* \"#utility.yul\":2768:2790   */\n      iszero\n        /* \"#utility.yul\":2750:2791   */\n      dup2\n      mstore\n        /* \"#utility.yul\":2738:2740   */\n      0x20\n        /* \"#utility.yul\":2723:2741   */\n      add\n        /* \"daostack/controller/Reputation.sol\":3432:4143  function mintMultiple(address[] memory _user, uint256[] memory _amount) public onlyOwner returns (bool) {... */\n    tag_22:\n      mload(0x40)\n      dup1\n      swap2\n      sub\n      swap1\n      return\n        /* \"daostack/controller/Reputation.sol\":5088:5194  function totalSupply() public view returns (uint256) {... */\n    tag_4:\n      tag_24\n      tag_25\n      jump\t// in\n    tag_24:\n      mload(0x40)\n        /* \"#utility.yul\":2948:2973   */\n      swap1\n      dup2\n      mstore\n        /* \"#utility.yul\":2936:2938   */\n      0x20\n        /* \"#utility.yul\":2921:2939   */\n      add\n        /* \"daostack/controller/Reputation.sol\":5088:5194  function totalSupply() public view returns (uint256) {... */\n      tag_22\n        /* \"#utility.yul\":2802:2979   */\n      jump\n        /* \"daostack/controller/Reputation.sol\":741:767  uint8 public decimals = 18 */\n    tag_5:\n      sload(0x00)\n      tag_28\n      swap1\n      shl(0xa0, 0x01)\n      swap1\n      div\n      0xff\n      and\n      dup2\n      jump\n    tag_28:\n      mload(0x40)\n        /* \"#utility.yul\":3156:3160   */\n      0xff\n        /* \"#utility.yul\":3144:3161   */\n      swap1\n      swap2\n      and\n        /* \"#utility.yul\":3126:3162   */\n      dup2\n      mstore\n        /* \"#utility.yul\":3114:3116   */\n      0x20\n        /* \"#utility.yul\":3099:3117   */\n      add\n        /* \"daostack/controller/Reputation.sol\":741:767  uint8 public decimals = 18 */\n      tag_22\n        /* \"#utility.yul\":2984:3168   */\n      jump\n        /* \"daostack/controller/Reputation.sol\":2582:3150  function mint(address _user, uint256 _amount) public onlyOwner returns (bool) {... */\n    tag_6:\n      tag_18\n      tag_33\n      calldatasize\n      0x04\n      tag_34\n      jump\t// in\n    tag_33:\n      tag_35\n      jump\t// in\n        /* \"daostack/controller/Reputation.sol\":1930:1972  uint256 public checkpoint_interval = 10000 */\n    tag_7:\n      tag_24\n      sload(0x03)\n      dup2\n      jump\n        /* \"daostack/controller/Reputation.sol\":6470:6859  function balanceOfAt(address _owner, uint256 _blockNumber) public view returns (uint256) {... */\n    tag_8:\n      tag_24\n      tag_41\n      calldatasize\n      0x04\n      tag_34\n      jump\t// in\n    tag_41:\n      tag_42\n      jump\t// in\n        /* \"daostack/controller/Reputation.sol\":5454:5586  function balanceOf(address _owner) public view returns (uint256 balance) {... */\n    tag_9:\n      tag_24\n      tag_45\n      calldatasize\n      0x04\n      tag_46\n      jump\t// in\n    tag_45:\n      tag_47\n      jump\t// in\n        /* \"@openzeppelin/contracts/access/Ownable.sol\":1831:1932  function renounceOwnership() public virtual onlyOwner {... */\n    tag_10:\n      tag_49\n      tag_50\n      jump\t// in\n    tag_49:\n      stop\n        /* \"@openzeppelin/contracts/access/Ownable.sol\":1201:1286  function owner() public view virtual returns (address) {... */\n    tag_11:\n        /* \"@openzeppelin/contracts/access/Ownable.sol\":1247:1254  address */\n      0x00\n        /* \"@openzeppelin/contracts/access/Ownable.sol\":1273:1279  _owner */\n      sload\n        /* \"@openzeppelin/contracts/access/Ownable.sol\":1201:1286  function owner() public view virtual returns (address) {... */\n      mload(0x40)\n      sub(shl(0xa0, 0x01), 0x01)\n        /* \"@openzeppelin/contracts/access/Ownable.sol\":1273:1279  _owner */\n      swap1\n      swap2\n      and\n        /* \"#utility.yul\":3769:3820   */\n      dup2\n      mstore\n        /* \"#utility.yul\":3757:3759   */\n      0x20\n        /* \"#utility.yul\":3742:3760   */\n      add\n        /* \"@openzeppelin/contracts/access/Ownable.sol\":1201:1286  function owner() public view virtual returns (address) {... */\n      tag_22\n        /* \"#utility.yul\":3623:3826   */\n      jump\n        /* \"daostack/controller/Reputation.sol\":5809:6194  function totalSupplyAt(uint256 _blockNumber) public view returns (uint256) {... */\n    tag_12:\n      tag_24\n      tag_56\n      calldatasize\n      0x04\n      tag_57\n      jump\t// in\n    tag_56:\n      tag_58\n      jump\t// in\n        /* \"daostack/controller/Reputation.sol\":4389:4954  function burn(address _user, uint256 _amount) public onlyOwner returns (bool) {... */\n    tag_13:\n      tag_18\n      tag_61\n      calldatasize\n      0x04\n      tag_34\n      jump\t// in\n    tag_61:\n      tag_62\n      jump\t// in\n        /* \"daostack/controller/Reputation.sol\":2105:2300  function updateCheckpointInterval(uint256 new_interval_) public onlyOwner {... */\n    tag_14:\n      tag_49\n      tag_65\n      calldatasize\n      0x04\n      tag_57\n      jump\t// in\n    tag_65:\n      tag_66\n      jump\t// in\n        /* \"@openzeppelin/contracts/access/Ownable.sol\":2081:2279  function transferOwnership(address newOwner) public virtual onlyOwner {... */\n    tag_15:\n      tag_49\n      tag_68\n      calldatasize\n      0x04\n      tag_46\n      jump\t// in\n    tag_68:\n      tag_69\n      jump\t// in\n        /* \"daostack/controller/Reputation.sol\":3432:4143  function mintMultiple(address[] memory _user, uint256[] memory _amount) public onlyOwner returns (bool) {... */\n    tag_21:\n        /* \"daostack/controller/Reputation.sol\":3530:3534  bool */\n      0x00\n        /* \"@openzeppelin/contracts/access/Ownable.sol\":1094:1107  _checkOwner() */\n      tag_71\n        /* \"@openzeppelin/contracts/access/Ownable.sol\":1094:1105  _checkOwner */\n      tag_72\n        /* \"@openzeppelin/contracts/access/Ownable.sol\":1094:1107  _checkOwner() */\n      jump\t// in\n    tag_71:\n        /* \"daostack/controller/Reputation.sol\":3552:3561  uint256 i */\n      0x00\n        /* \"daostack/controller/Reputation.sol\":3547:4114  for (uint256 i = 0; i < _user.length; i++) {... */\n    tag_74:\n        /* \"daostack/controller/Reputation.sol\":3571:3576  _user */\n      dup4\n        /* \"daostack/controller/Reputation.sol\":3571:3583  _user.length */\n      mload\n        /* \"daostack/controller/Reputation.sol\":3567:3568  i */\n      dup2\n        /* \"daostack/controller/Reputation.sol\":3567:3583  i < _user.length */\n      lt\n        /* \"daostack/controller/Reputation.sol\":3547:4114  for (uint256 i = 0; i < _user.length; i++) {... */\n      iszero\n      tag_75\n      jumpi\n        /* \"daostack/controller/Reputation.sol\":3605:3627  uint256 curTotalSupply */\n      0x00\n        /* \"daostack/controller/Reputation.sol\":3630:3643  totalSupply() */\n      tag_77\n        /* \"daostack/controller/Reputation.sol\":3630:3641  totalSupply */\n      tag_25\n        /* \"daostack/controller/Reputation.sol\":3630:3643  totalSupply() */\n      jump\t// in\n    tag_77:\n        /* \"daostack/controller/Reputation.sol\":3605:3643  uint256 curTotalSupply = totalSupply() */\n      swap1\n      pop\n        /* \"daostack/controller/Reputation.sol\":3697:3711  curTotalSupply */\n      dup1\n        /* \"daostack/controller/Reputation.sol\":3683:3690  _amount */\n      dup5\n        /* \"daostack/controller/Reputation.sol\":3691:3692  i */\n      dup4\n        /* \"daostack/controller/Reputation.sol\":3683:3693  _amount[i] */\n      dup2\n      mload\n      dup2\n      lt\n      tag_79\n      jumpi\n      tag_79\n      tag_80\n      jump\t// in\n    tag_79:\n      0x20\n      mul\n      0x20\n      add\n      add\n      mload\n        /* \"daostack/controller/Reputation.sol\":3666:3680  curTotalSupply */\n      dup3\n        /* \"daostack/controller/Reputation.sol\":3666:3693  curTotalSupply + _amount[i] */\n      tag_81\n      swap2\n      swap1\n      tag_82\n      jump\t// in\n    tag_81:\n        /* \"daostack/controller/Reputation.sol\":3666:3711  curTotalSupply + _amount[i] >= curTotalSupply */\n      lt\n      iszero\n        /* \"daostack/controller/Reputation.sol\":3658:3712  require(curTotalSupply + _amount[i] >= curTotalSupply) */\n      tag_83\n      jumpi\n      0x00\n      dup1\n      revert\n    tag_83:\n        /* \"daostack/controller/Reputation.sol\":3749:3774  uint256 previousBalanceTo */\n      0x00\n        /* \"daostack/controller/Reputation.sol\":3777:3796  balanceOf(_user[i]) */\n      tag_84\n        /* \"daostack/controller/Reputation.sol\":3787:3792  _user */\n      dup7\n        /* \"daostack/controller/Reputation.sol\":3793:3794  i */\n      dup5\n        /* \"daostack/controller/Reputation.sol\":3787:3795  _user[i] */\n      dup2\n      mload\n      dup2\n      lt\n      tag_86\n      jumpi\n      tag_86\n      tag_80\n      jump\t// in\n    tag_86:\n      0x20\n      mul\n      0x20\n      add\n      add\n      mload\n        /* \"daostack/controller/Reputation.sol\":3777:3786  balanceOf */\n      tag_47\n        /* \"daostack/controller/Reputation.sol\":3777:3796  balanceOf(_user[i]) */\n      jump\t// in\n    tag_84:\n        /* \"daostack/controller/Reputation.sol\":3749:3796  uint256 previousBalanceTo = balanceOf(_user[i]) */\n      swap1\n      pop\n        /* \"daostack/controller/Reputation.sol\":3853:3870  previousBalanceTo */\n      dup1\n        /* \"daostack/controller/Reputation.sol\":3839:3846  _amount */\n      dup6\n        /* \"daostack/controller/Reputation.sol\":3847:3848  i */\n      dup5\n        /* \"daostack/controller/Reputation.sol\":3839:3849  _amount[i] */\n      dup2\n      mload\n      dup2\n      lt\n      tag_88\n      jumpi\n      tag_88\n      tag_80\n      jump\t// in\n    tag_88:\n      0x20\n      mul\n      0x20\n      add\n      add\n      mload\n        /* \"daostack/controller/Reputation.sol\":3819:3836  previousBalanceTo */\n      dup3\n        /* \"daostack/controller/Reputation.sol\":3819:3849  previousBalanceTo + _amount[i] */\n      tag_89\n      swap2\n      swap1\n      tag_82\n      jump\t// in\n    tag_89:\n        /* \"daostack/controller/Reputation.sol\":3819:3870  previousBalanceTo + _amount[i] >= previousBalanceTo */\n      lt\n      iszero\n        /* \"daostack/controller/Reputation.sol\":3811:3871  require(previousBalanceTo + _amount[i] >= previousBalanceTo) */\n      tag_90\n      jumpi\n      0x00\n      dup1\n      revert\n    tag_90:\n        /* \"daostack/controller/Reputation.sol\":3908:3973  updateValueAtNow(totalSupplyHistory, curTotalSupply + _amount[i]) */\n      tag_91\n        /* \"daostack/controller/Reputation.sol\":3925:3943  totalSupplyHistory */\n      0x02\n        /* \"daostack/controller/Reputation.sol\":3962:3969  _amount */\n      dup7\n        /* \"daostack/controller/Reputation.sol\":3970:3971  i */\n      dup6\n        /* \"daostack/controller/Reputation.sol\":3962:3972  _amount[i] */\n      dup2\n      mload\n      dup2\n      lt\n      tag_93\n      jumpi\n      tag_93\n      tag_80\n      jump\t// in\n    tag_93:\n      0x20\n      mul\n      0x20\n      add\n      add\n      mload\n        /* \"daostack/controller/Reputation.sol\":3945:3959  curTotalSupply */\n      dup5\n        /* \"daostack/controller/Reputation.sol\":3945:3972  curTotalSupply + _amount[i] */\n      tag_94\n      swap2\n      swap1\n      tag_82\n      jump\t// in\n    tag_94:\n        /* \"daostack/controller/Reputation.sol\":3908:3924  updateValueAtNow */\n      tag_95\n        /* \"daostack/controller/Reputation.sol\":3908:3973  updateValueAtNow(totalSupplyHistory, curTotalSupply + _amount[i]) */\n      jump\t// in\n    tag_91:\n        /* \"daostack/controller/Reputation.sol\":3988:4056  updateValueAtNow(balances[_user[i]], previousBalanceTo + _amount[i]) */\n      tag_96\n        /* \"daostack/controller/Reputation.sol\":4005:4013  balances */\n      0x01\n        /* \"daostack/controller/Reputation.sol\":4005:4023  balances[_user[i]] */\n      0x00\n        /* \"daostack/controller/Reputation.sol\":4014:4019  _user */\n      dup9\n        /* \"daostack/controller/Reputation.sol\":4020:4021  i */\n      dup7\n        /* \"daostack/controller/Reputation.sol\":4014:4022  _user[i] */\n      dup2\n      mload\n      dup2\n      lt\n      tag_98\n      jumpi\n      tag_98\n      tag_80\n      jump\t// in\n    tag_98:\n      0x20\n      mul\n      0x20\n      add\n      add\n      mload\n      sub(shl(0xa0, 0x01), 0x01)\n        /* \"daostack/controller/Reputation.sol\":4005:4023  balances[_user[i]] */\n      and\n      sub(shl(0xa0, 0x01), 0x01)\n      and\n      dup2\n      mstore\n      0x20\n      add\n      swap1\n      dup2\n      mstore\n      0x20\n      add\n      0x00\n      keccak256\n        /* \"daostack/controller/Reputation.sol\":4045:4052  _amount */\n      dup7\n        /* \"daostack/controller/Reputation.sol\":4053:4054  i */\n      dup6\n        /* \"daostack/controller/Reputation.sol\":4045:4055  _amount[i] */\n      dup2\n      mload\n      dup2\n      lt\n      tag_100\n      jumpi\n      tag_100\n      tag_80\n      jump\t// in\n    tag_100:\n      0x20\n      mul\n      0x20\n      add\n      add\n      mload\n        /* \"daostack/controller/Reputation.sol\":4025:4042  previousBalanceTo */\n      dup4\n        /* \"daostack/controller/Reputation.sol\":4025:4055  previousBalanceTo + _amount[i] */\n      tag_94\n      swap2\n      swap1\n      tag_82\n      jump\t// in\n        /* \"daostack/controller/Reputation.sol\":3988:4056  updateValueAtNow(balances[_user[i]], previousBalanceTo + _amount[i]) */\n    tag_96:\n        /* \"daostack/controller/Reputation.sol\":4081:4086  _user */\n      dup6\n        /* \"daostack/controller/Reputation.sol\":4087:4088  i */\n      dup4\n        /* \"daostack/controller/Reputation.sol\":4081:4089  _user[i] */\n      dup2\n      mload\n      dup2\n      lt\n      tag_103\n      jumpi\n      tag_103\n      tag_80\n      jump\t// in\n    tag_103:\n      0x20\n      mul\n      0x20\n      add\n      add\n      mload\n      sub(shl(0xa0, 0x01), 0x01)\n        /* \"daostack/controller/Reputation.sol\":4076:4102  Mint(_user[i], _amount[i]) */\n      and\n      0x0f6798a560793a54c3bcfe86a93cde1e73087d944c0ea20544137d4121396885\n        /* \"daostack/controller/Reputation.sol\":4091:4098  _amount */\n      dup7\n        /* \"daostack/controller/Reputation.sol\":4099:4100  i */\n      dup6\n        /* \"daostack/controller/Reputation.sol\":4091:4101  _amount[i] */\n      dup2\n      mload\n      dup2\n      lt\n      tag_105\n      jumpi\n      tag_105\n      tag_80\n      jump\t// in\n    tag_105:\n      0x20\n      mul\n      0x20\n      add\n      add\n      mload\n        /* \"daostack/controller/Reputation.sol\":4076:4102  Mint(_user[i], _amount[i]) */\n      mload(0x40)\n      tag_106\n      swap2\n        /* \"#utility.yul\":2948:2973   */\n      dup2\n      mstore\n        /* \"#utility.yul\":2936:2938   */\n      0x20\n        /* \"#utility.yul\":2921:2939   */\n      add\n      swap1\n        /* \"#utility.yul\":2802:2979   */\n      jump\n        /* \"daostack/controller/Reputation.sol\":4076:4102  Mint(_user[i], _amount[i]) */\n    tag_106:\n      mload(0x40)\n      dup1\n      swap2\n      sub\n      swap1\n      log2\n        /* \"daostack/controller/Reputation.sol\":3590:4114  {... */\n      pop\n      pop\n        /* \"daostack/controller/Reputation.sol\":3585:3588  i++ */\n      dup1\n      dup1\n      tag_107\n      swap1\n      tag_108\n      jump\t// in\n    tag_107:\n      swap2\n      pop\n      pop\n        /* \"daostack/controller/Reputation.sol\":3547:4114  for (uint256 i = 0; i < _user.length; i++) {... */\n      jump(tag_74)\n    tag_75:\n      pop\n        /* \"daostack/controller/Reputation.sol\":4131:4135  true */\n      0x01\n        /* \"daostack/controller/Reputation.sol\":4124:4135  return true */\n      swap1\n      pop\n        /* \"@openzeppelin/contracts/access/Ownable.sol\":1117:1118  _ */\n    tag_73:\n        /* \"daostack/controller/Reputation.sol\":3432:4143  function mintMultiple(address[] memory _user, uint256[] memory _amount) public onlyOwner returns (bool) {... */\n      swap3\n      swap2\n      pop\n      pop\n      jump\t// out\n        /* \"daostack/controller/Reputation.sol\":5088:5194  function totalSupply() public view returns (uint256) {... */\n    tag_25:\n        /* \"daostack/controller/Reputation.sol\":5132:5139  uint256 */\n      0x00\n        /* \"daostack/controller/Reputation.sol\":5159:5186  totalSupplyAt(block.number) */\n      tag_110\n        /* \"daostack/controller/Reputation.sol\":5173:5185  block.number */\n      number\n        /* \"daostack/controller/Reputation.sol\":5159:5172  totalSupplyAt */\n      tag_58\n        /* \"daostack/controller/Reputation.sol\":5159:5186  totalSupplyAt(block.number) */\n      jump\t// in\n    tag_110:\n        /* \"daostack/controller/Reputation.sol\":5152:5186  return totalSupplyAt(block.number) */\n      swap1\n      pop\n        /* \"daostack/controller/Reputation.sol\":5088:5194  function totalSupply() public view returns (uint256) {... */\n      swap1\n      jump\t// out\n        /* \"daostack/controller/Reputation.sol\":2582:3150  function mint(address _user, uint256 _amount) public onlyOwner returns (bool) {... */\n    tag_35:\n        /* \"daostack/controller/Reputation.sol\":2654:2658  bool */\n      0x00\n        /* \"@openzeppelin/contracts/access/Ownable.sol\":1094:1107  _checkOwner() */\n      tag_112\n        /* \"@openzeppelin/contracts/access/Ownable.sol\":1094:1105  _checkOwner */\n      tag_72\n        /* \"@openzeppelin/contracts/access/Ownable.sol\":1094:1107  _checkOwner() */\n      jump\t// in\n    tag_112:\n        /* \"daostack/controller/Reputation.sol\":2671:2693  uint256 curTotalSupply */\n      0x00\n        /* \"daostack/controller/Reputation.sol\":2696:2709  totalSupply() */\n      tag_114\n        /* \"daostack/controller/Reputation.sol\":2696:2707  totalSupply */\n      tag_25\n        /* \"daostack/controller/Reputation.sol\":2696:2709  totalSupply() */\n      jump\t// in\n    tag_114:\n        /* \"daostack/controller/Reputation.sol\":2671:2709  uint256 curTotalSupply = totalSupply() */\n      swap1\n      pop\n      dup1\n        /* \"daostack/controller/Reputation.sol\":2728:2752  curTotalSupply + _amount */\n      tag_115\n        /* \"daostack/controller/Reputation.sol\":2745:2752  _amount */\n      dup5\n        /* \"daostack/controller/Reputation.sol\":2671:2709  uint256 curTotalSupply = totalSupply() */\n      dup3\n        /* \"daostack/controller/Reputation.sol\":2728:2752  curTotalSupply + _amount */\n      tag_82\n      jump\t// in\n    tag_115:\n        /* \"daostack/controller/Reputation.sol\":2728:2770  curTotalSupply + _amount >= curTotalSupply */\n      lt\n      iszero\n        /* \"daostack/controller/Reputation.sol\":2720:2771  require(curTotalSupply + _amount >= curTotalSupply) */\n      tag_116\n      jumpi\n      0x00\n      dup1\n      revert\n    tag_116:\n        /* \"daostack/controller/Reputation.sol\":2804:2829  uint256 previousBalanceTo */\n      0x00\n        /* \"daostack/controller/Reputation.sol\":2832:2848  balanceOf(_user) */\n      tag_117\n        /* \"daostack/controller/Reputation.sol\":2842:2847  _user */\n      dup6\n        /* \"daostack/controller/Reputation.sol\":2832:2841  balanceOf */\n      tag_47\n        /* \"daostack/controller/Reputation.sol\":2832:2848  balanceOf(_user) */\n      jump\t// in\n    tag_117:\n        /* \"daostack/controller/Reputation.sol\":2804:2848  uint256 previousBalanceTo = balanceOf(_user) */\n      swap1\n      pop\n      dup1\n        /* \"daostack/controller/Reputation.sol\":2867:2894  previousBalanceTo + _amount */\n      tag_118\n        /* \"daostack/controller/Reputation.sol\":2887:2894  _amount */\n      dup6\n        /* \"daostack/controller/Reputation.sol\":2804:2848  uint256 previousBalanceTo = balanceOf(_user) */\n      dup3\n        /* \"daostack/controller/Reputation.sol\":2867:2894  previousBalanceTo + _amount */\n      tag_82\n      jump\t// in\n    tag_118:\n        /* \"daostack/controller/Reputation.sol\":2867:2915  previousBalanceTo + _amount >= previousBalanceTo */\n      lt\n      iszero\n        /* \"daostack/controller/Reputation.sol\":2859:2916  require(previousBalanceTo + _amount >= previousBalanceTo) */\n      tag_119\n      jumpi\n      0x00\n      dup1\n      revert\n    tag_119:\n        /* \"daostack/controller/Reputation.sol\":2949:3011  updateValueAtNow(totalSupplyHistory, curTotalSupply + _amount) */\n      tag_120\n        /* \"daostack/controller/Reputation.sol\":2966:2984  totalSupplyHistory */\n      0x02\n        /* \"daostack/controller/Reputation.sol\":2986:3010  curTotalSupply + _amount */\n      tag_94\n        /* \"daostack/controller/Reputation.sol\":3003:3010  _amount */\n      dup7\n        /* \"daostack/controller/Reputation.sol\":2986:3000  curTotalSupply */\n      dup6\n        /* \"daostack/controller/Reputation.sol\":2986:3010  curTotalSupply + _amount */\n      tag_82\n      jump\t// in\n        /* \"daostack/controller/Reputation.sol\":2949:3011  updateValueAtNow(totalSupplyHistory, curTotalSupply + _amount) */\n    tag_120:\n      sub(shl(0xa0, 0x01), 0x01)\n        /* \"daostack/controller/Reputation.sol\":3039:3054  balances[_user] */\n      dup6\n      and\n      0x00\n      swap1\n      dup2\n      mstore\n        /* \"daostack/controller/Reputation.sol\":3039:3047  balances */\n      0x01\n        /* \"daostack/controller/Reputation.sol\":3039:3054  balances[_user] */\n      0x20\n      mstore\n      0x40\n      swap1\n      keccak256\n        /* \"daostack/controller/Reputation.sol\":3022:3084  updateValueAtNow(balances[_user], previousBalanceTo + _amount) */\n      tag_122\n      swap1\n        /* \"daostack/controller/Reputation.sol\":3056:3083  previousBalanceTo + _amount */\n      tag_94\n        /* \"daostack/controller/Reputation.sol\":3076:3083  _amount */\n      dup7\n        /* \"daostack/controller/Reputation.sol\":3056:3073  previousBalanceTo */\n      dup5\n        /* \"daostack/controller/Reputation.sol\":3056:3083  previousBalanceTo + _amount */\n      tag_82\n      jump\t// in\n        /* \"daostack/controller/Reputation.sol\":3022:3084  updateValueAtNow(balances[_user], previousBalanceTo + _amount) */\n    tag_122:\n        /* \"daostack/controller/Reputation.sol\":3105:3110  _user */\n      dup5\n      sub(shl(0xa0, 0x01), 0x01)\n        /* \"daostack/controller/Reputation.sol\":3100:3120  Mint(_user, _amount) */\n      and\n      0x0f6798a560793a54c3bcfe86a93cde1e73087d944c0ea20544137d4121396885\n        /* \"daostack/controller/Reputation.sol\":3112:3119  _amount */\n      dup6\n        /* \"daostack/controller/Reputation.sol\":3100:3120  Mint(_user, _amount) */\n      mload(0x40)\n      tag_124\n      swap2\n        /* \"#utility.yul\":2948:2973   */\n      dup2\n      mstore\n        /* \"#utility.yul\":2936:2938   */\n      0x20\n        /* \"#utility.yul\":2921:2939   */\n      add\n      swap1\n        /* \"#utility.yul\":2802:2979   */\n      jump\n        /* \"daostack/controller/Reputation.sol\":3100:3120  Mint(_user, _amount) */\n    tag_124:\n      mload(0x40)\n      dup1\n      swap2\n      sub\n      swap1\n      log2\n      pop\n        /* \"daostack/controller/Reputation.sol\":3138:3142  true */\n      0x01\n      swap5\n        /* \"daostack/controller/Reputation.sol\":2582:3150  function mint(address _user, uint256 _amount) public onlyOwner returns (bool) {... */\n      swap4\n      pop\n      pop\n      pop\n      pop\n      jump\t// out\n        /* \"daostack/controller/Reputation.sol\":6470:6859  function balanceOfAt(address _owner, uint256 _blockNumber) public view returns (uint256) {... */\n    tag_42:\n      sub(shl(0xa0, 0x01), 0x01)\n        /* \"daostack/controller/Reputation.sol\":6575:6591  balances[_owner] */\n      dup3\n      and\n        /* \"daostack/controller/Reputation.sol\":6550:6557  uint256 */\n      0x00\n        /* \"daostack/controller/Reputation.sol\":6575:6591  balances[_owner] */\n      swap1\n      dup2\n      mstore\n        /* \"daostack/controller/Reputation.sol\":6575:6583  balances */\n      0x01\n        /* \"daostack/controller/Reputation.sol\":6575:6591  balances[_owner] */\n      0x20\n      mstore\n      0x40\n      dup2\n      keccak256\n        /* \"daostack/controller/Reputation.sol\":6575:6598  balances[_owner].length */\n      sload\n        /* \"daostack/controller/Reputation.sol\":6575:6603  balances[_owner].length == 0 */\n      iszero\n      dup1\n        /* \"daostack/controller/Reputation.sol\":6574:6654  (balances[_owner].length == 0) || (balances[_owner][0].fromBlock > _blockNumber) */\n      tag_126\n      jumpi\n      pop\n      sub(shl(0xa0, 0x01), 0x01)\n        /* \"daostack/controller/Reputation.sol\":6609:6625  balances[_owner] */\n      dup4\n      and\n      0x00\n      swap1\n      dup2\n      mstore\n        /* \"daostack/controller/Reputation.sol\":6609:6617  balances */\n      0x01\n        /* \"daostack/controller/Reputation.sol\":6609:6625  balances[_owner] */\n      0x20\n      mstore\n      0x40\n      dup2\n      keccak256\n        /* \"daostack/controller/Reputation.sol\":6609:6628  balances[_owner][0] */\n      dup1\n      sload\n        /* \"daostack/controller/Reputation.sol\":6641:6653  _blockNumber */\n      dup5\n      swap3\n        /* \"daostack/controller/Reputation.sol\":6609:6625  balances[_owner] */\n      swap1\n        /* \"daostack/controller/Reputation.sol\":6609:6628  balances[_owner][0] */\n      tag_128\n      jumpi\n      tag_128\n      tag_80\n      jump\t// in\n    tag_128:\n      0x00\n      swap2\n      dup3\n      mstore\n      0x20\n      swap1\n      swap2\n      keccak256\n      add\n        /* \"daostack/controller/Reputation.sol\":6609:6638  balances[_owner][0].fromBlock */\n      sload\n      sub(shl(0x80, 0x01), 0x01)\n      and\n        /* \"daostack/controller/Reputation.sol\":6609:6653  balances[_owner][0].fromBlock > _blockNumber */\n      gt\n        /* \"daostack/controller/Reputation.sol\":6574:6654  (balances[_owner].length == 0) || (balances[_owner][0].fromBlock > _blockNumber) */\n    tag_126:\n        /* \"daostack/controller/Reputation.sol\":6570:6852  if ((balances[_owner].length == 0) || (balances[_owner][0].fromBlock > _blockNumber)) {... */\n      iszero\n      tag_130\n      jumpi\n      pop\n        /* \"daostack/controller/Reputation.sol\":6678:6679  0 */\n      0x00\n        /* \"daostack/controller/Reputation.sol\":6671:6679  return 0 */\n      jump(tag_73)\n        /* \"daostack/controller/Reputation.sol\":6570:6852  if ((balances[_owner].length == 0) || (balances[_owner][0].fromBlock > _blockNumber)) {... */\n    tag_130:\n      sub(shl(0xa0, 0x01), 0x01)\n        /* \"daostack/controller/Reputation.sol\":6809:6825  balances[_owner] */\n      dup4\n      and\n      0x00\n      swap1\n      dup2\n      mstore\n        /* \"daostack/controller/Reputation.sol\":6809:6817  balances */\n      0x01\n        /* \"daostack/controller/Reputation.sol\":6809:6825  balances[_owner] */\n      0x20\n      mstore\n      0x40\n      swap1\n      keccak256\n        /* \"daostack/controller/Reputation.sol\":6798:6840  getValueAt(balances[_owner], _blockNumber) */\n      tag_132\n      swap1\n        /* \"daostack/controller/Reputation.sol\":6827:6839  _blockNumber */\n      dup4\n        /* \"daostack/controller/Reputation.sol\":6798:6808  getValueAt */\n      tag_133\n        /* \"daostack/controller/Reputation.sol\":6798:6840  getValueAt(balances[_owner], _blockNumber) */\n      jump\t// in\n    tag_132:\n        /* \"daostack/controller/Reputation.sol\":6791:6840  return getValueAt(balances[_owner], _blockNumber) */\n      swap1\n      pop\n      jump(tag_73)\n        /* \"daostack/controller/Reputation.sol\":5454:5586  function balanceOf(address _owner) public view returns (uint256 balance) {... */\n    tag_47:\n        /* \"daostack/controller/Reputation.sol\":5510:5525  uint256 balance */\n      0x00\n        /* \"daostack/controller/Reputation.sol\":5545:5578  balanceOfAt(_owner, block.number) */\n      tag_73\n        /* \"daostack/controller/Reputation.sol\":5557:5563  _owner */\n      dup3\n        /* \"daostack/controller/Reputation.sol\":5565:5577  block.number */\n      number\n        /* \"daostack/controller/Reputation.sol\":5545:5556  balanceOfAt */\n      tag_42\n        /* \"daostack/controller/Reputation.sol\":5545:5578  balanceOfAt(_owner, block.number) */\n      jump\t// in\n        /* \"@openzeppelin/contracts/access/Ownable.sol\":1831:1932  function renounceOwnership() public virtual onlyOwner {... */\n    tag_50:\n        /* \"@openzeppelin/contracts/access/Ownable.sol\":1094:1107  _checkOwner() */\n      tag_137\n        /* \"@openzeppelin/contracts/access/Ownable.sol\":1094:1105  _checkOwner */\n      tag_72\n        /* \"@openzeppelin/contracts/access/Ownable.sol\":1094:1107  _checkOwner() */\n      jump\t// in\n    tag_137:\n        /* \"@openzeppelin/contracts/access/Ownable.sol\":1895:1925  _transferOwnership(address(0)) */\n      tag_139\n        /* \"@openzeppelin/contracts/access/Ownable.sol\":1922:1923  0 */\n      0x00\n        /* \"@openzeppelin/contracts/access/Ownable.sol\":1895:1913  _transferOwnership */\n      tag_140\n        /* \"@openzeppelin/contracts/access/Ownable.sol\":1895:1925  _transferOwnership(address(0)) */\n      jump\t// in\n    tag_139:\n        /* \"@openzeppelin/contracts/access/Ownable.sol\":1831:1932  function renounceOwnership() public virtual onlyOwner {... */\n      jump\t// out\n        /* \"daostack/controller/Reputation.sol\":5809:6194  function totalSupplyAt(uint256 _blockNumber) public view returns (uint256) {... */\n    tag_58:\n        /* \"daostack/controller/Reputation.sol\":5900:5918  totalSupplyHistory */\n      0x02\n        /* \"daostack/controller/Reputation.sol\":5900:5925  totalSupplyHistory.length */\n      sload\n        /* \"daostack/controller/Reputation.sol\":5875:5882  uint256 */\n      0x00\n      swap1\n        /* \"daostack/controller/Reputation.sol\":5900:5930  totalSupplyHistory.length == 0 */\n      iszero\n      dup1\n        /* \"daostack/controller/Reputation.sol\":5899:5983  (totalSupplyHistory.length == 0) || (totalSupplyHistory[0].fromBlock > _blockNumber) */\n      tag_143\n      jumpi\n      pop\n        /* \"daostack/controller/Reputation.sol\":5970:5982  _blockNumber */\n      dup2\n        /* \"daostack/controller/Reputation.sol\":5936:5954  totalSupplyHistory */\n      0x02\n        /* \"daostack/controller/Reputation.sol\":5955:5956  0 */\n      0x00\n        /* \"daostack/controller/Reputation.sol\":5936:5957  totalSupplyHistory[0] */\n      dup2\n      sload\n      dup2\n      lt\n      tag_145\n      jumpi\n      tag_145\n      tag_80\n      jump\t// in\n    tag_145:\n      0x00\n      swap2\n      dup3\n      mstore\n      0x20\n      swap1\n      swap2\n      keccak256\n      add\n        /* \"daostack/controller/Reputation.sol\":5936:5967  totalSupplyHistory[0].fromBlock */\n      sload\n      sub(shl(0x80, 0x01), 0x01)\n      and\n        /* \"daostack/controller/Reputation.sol\":5936:5982  totalSupplyHistory[0].fromBlock > _blockNumber */\n      gt\n        /* \"daostack/controller/Reputation.sol\":5899:5983  (totalSupplyHistory.length == 0) || (totalSupplyHistory[0].fromBlock > _blockNumber) */\n    tag_143:\n        /* \"daostack/controller/Reputation.sol\":5895:6187  if ((totalSupplyHistory.length == 0) || (totalSupplyHistory[0].fromBlock > _blockNumber)) {... */\n      iszero\n      tag_147\n      jumpi\n      pop\n        /* \"daostack/controller/Reputation.sol\":6007:6008  0 */\n      0x00\n      swap2\n        /* \"daostack/controller/Reputation.sol\":5809:6194  function totalSupplyAt(uint256 _blockNumber) public view returns (uint256) {... */\n      swap1\n      pop\n      jump\t// out\n        /* \"daostack/controller/Reputation.sol\":5895:6187  if ((totalSupplyHistory.length == 0) || (totalSupplyHistory[0].fromBlock > _blockNumber)) {... */\n    tag_147:\n        /* \"daostack/controller/Reputation.sol\":6131:6175  getValueAt(totalSupplyHistory, _blockNumber) */\n      tag_73\n        /* \"daostack/controller/Reputation.sol\":6142:6160  totalSupplyHistory */\n      0x02\n        /* \"daostack/controller/Reputation.sol\":6162:6174  _blockNumber */\n      dup4\n        /* \"daostack/controller/Reputation.sol\":6131:6141  getValueAt */\n      tag_133\n        /* \"daostack/controller/Reputation.sol\":6131:6175  getValueAt(totalSupplyHistory, _blockNumber) */\n      jump\t// in\n        /* \"daostack/controller/Reputation.sol\":5895:6187  if ((totalSupplyHistory.length == 0) || (totalSupplyHistory[0].fromBlock > _blockNumber)) {... */\n    tag_148:\n        /* \"daostack/controller/Reputation.sol\":5809:6194  function totalSupplyAt(uint256 _blockNumber) public view returns (uint256) {... */\n      swap2\n      swap1\n      pop\n      jump\t// out\n        /* \"daostack/controller/Reputation.sol\":4389:4954  function burn(address _user, uint256 _amount) public onlyOwner returns (bool) {... */\n    tag_62:\n        /* \"daostack/controller/Reputation.sol\":4461:4465  bool */\n      0x00\n        /* \"@openzeppelin/contracts/access/Ownable.sol\":1094:1107  _checkOwner() */\n      tag_151\n        /* \"@openzeppelin/contracts/access/Ownable.sol\":1094:1105  _checkOwner */\n      tag_72\n        /* \"@openzeppelin/contracts/access/Ownable.sol\":1094:1107  _checkOwner() */\n      jump\t// in\n    tag_151:\n        /* \"daostack/controller/Reputation.sol\":4478:4500  uint256 curTotalSupply */\n      0x00\n        /* \"daostack/controller/Reputation.sol\":4503:4516  totalSupply() */\n      tag_153\n        /* \"daostack/controller/Reputation.sol\":4503:4514  totalSupply */\n      tag_25\n        /* \"daostack/controller/Reputation.sol\":4503:4516  totalSupply() */\n      jump\t// in\n    tag_153:\n        /* \"daostack/controller/Reputation.sol\":4478:4516  uint256 curTotalSupply = totalSupply() */\n      swap1\n      pop\n        /* \"daostack/controller/Reputation.sol\":4550:4557  _amount */\n      dup3\n        /* \"daostack/controller/Reputation.sol\":4527:4547  uint256 amountBurned */\n      0x00\n        /* \"daostack/controller/Reputation.sol\":4598:4614  balanceOf(_user) */\n      tag_154\n        /* \"daostack/controller/Reputation.sol\":4608:4613  _user */\n      dup7\n        /* \"daostack/controller/Reputation.sol\":4598:4607  balanceOf */\n      tag_47\n        /* \"daostack/controller/Reputation.sol\":4598:4614  balanceOf(_user) */\n      jump\t// in\n    tag_154:\n        /* \"daostack/controller/Reputation.sol\":4568:4614  uint256 previousBalanceFrom = balanceOf(_user) */\n      swap1\n      pop\n        /* \"daostack/controller/Reputation.sol\":4651:4663  amountBurned */\n      dup2\n        /* \"daostack/controller/Reputation.sol\":4629:4648  previousBalanceFrom */\n      dup2\n        /* \"daostack/controller/Reputation.sol\":4629:4663  previousBalanceFrom < amountBurned */\n      lt\n        /* \"daostack/controller/Reputation.sol\":4625:4726  if (previousBalanceFrom < amountBurned) {... */\n      iszero\n      tag_155\n      jumpi\n        /* \"daostack/controller/Reputation.sol\":4695:4714  previousBalanceFrom */\n      dup1\n        /* \"daostack/controller/Reputation.sol\":4680:4714  amountBurned = previousBalanceFrom */\n      swap2\n      pop\n        /* \"daostack/controller/Reputation.sol\":4625:4726  if (previousBalanceFrom < amountBurned) {... */\n    tag_155:\n        /* \"daostack/controller/Reputation.sol\":4736:4803  updateValueAtNow(totalSupplyHistory, curTotalSupply - amountBurned) */\n      tag_156\n        /* \"daostack/controller/Reputation.sol\":4753:4771  totalSupplyHistory */\n      0x02\n        /* \"daostack/controller/Reputation.sol\":4773:4802  curTotalSupply - amountBurned */\n      tag_94\n        /* \"daostack/controller/Reputation.sol\":4790:4802  amountBurned */\n      dup5\n        /* \"daostack/controller/Reputation.sol\":4773:4787  curTotalSupply */\n      dup7\n        /* \"daostack/controller/Reputation.sol\":4773:4802  curTotalSupply - amountBurned */\n      tag_158\n      jump\t// in\n        /* \"daostack/controller/Reputation.sol\":4736:4803  updateValueAtNow(totalSupplyHistory, curTotalSupply - amountBurned) */\n    tag_156:\n      sub(shl(0xa0, 0x01), 0x01)\n        /* \"daostack/controller/Reputation.sol\":4831:4846  balances[_user] */\n      dup7\n      and\n      0x00\n      swap1\n      dup2\n      mstore\n        /* \"daostack/controller/Reputation.sol\":4831:4839  balances */\n      0x01\n        /* \"daostack/controller/Reputation.sol\":4831:4846  balances[_user] */\n      0x20\n      mstore\n      0x40\n      swap1\n      keccak256\n        /* \"daostack/controller/Reputation.sol\":4814:4883  updateValueAtNow(balances[_user], previousBalanceFrom - amountBurned) */\n      tag_159\n      swap1\n        /* \"daostack/controller/Reputation.sol\":4848:4882  previousBalanceFrom - amountBurned */\n      tag_94\n        /* \"daostack/controller/Reputation.sol\":4870:4882  amountBurned */\n      dup5\n        /* \"daostack/controller/Reputation.sol\":4848:4867  previousBalanceFrom */\n      dup5\n        /* \"daostack/controller/Reputation.sol\":4848:4882  previousBalanceFrom - amountBurned */\n      tag_158\n      jump\t// in\n        /* \"daostack/controller/Reputation.sol\":4814:4883  updateValueAtNow(balances[_user], previousBalanceFrom - amountBurned) */\n    tag_159:\n        /* \"daostack/controller/Reputation.sol\":4904:4909  _user */\n      dup6\n      sub(shl(0xa0, 0x01), 0x01)\n        /* \"daostack/controller/Reputation.sol\":4899:4924  Burn(_user, amountBurned) */\n      and\n      0xcc16f5dbb4873280815c1ee09dbd06736cffcc184412cf7a71a0fdb75d397ca5\n        /* \"daostack/controller/Reputation.sol\":4911:4923  amountBurned */\n      dup4\n        /* \"daostack/controller/Reputation.sol\":4899:4924  Burn(_user, amountBurned) */\n      mload(0x40)\n      tag_161\n      swap2\n        /* \"#utility.yul\":2948:2973   */\n      dup2\n      mstore\n        /* \"#utility.yul\":2936:2938   */\n      0x20\n        /* \"#utility.yul\":2921:2939   */\n      add\n      swap1\n        /* \"#utility.yul\":2802:2979   */\n      jump\n        /* \"daostack/controller/Reputation.sol\":4899:4924  Burn(_user, amountBurned) */\n    tag_161:\n      mload(0x40)\n      dup1\n      swap2\n      sub\n      swap1\n      log2\n      pop\n        /* \"daostack/controller/Reputation.sol\":4942:4946  true */\n      0x01\n      swap6\n        /* \"daostack/controller/Reputation.sol\":4389:4954  function burn(address _user, uint256 _amount) public onlyOwner returns (bool) {... */\n      swap5\n      pop\n      pop\n      pop\n      pop\n      pop\n      jump\t// out\n        /* \"daostack/controller/Reputation.sol\":2105:2300  function updateCheckpointInterval(uint256 new_interval_) public onlyOwner {... */\n    tag_66:\n        /* \"@openzeppelin/contracts/access/Ownable.sol\":1094:1107  _checkOwner() */\n      tag_163\n        /* \"@openzeppelin/contracts/access/Ownable.sol\":1094:1105  _checkOwner */\n      tag_72\n        /* \"@openzeppelin/contracts/access/Ownable.sol\":1094:1107  _checkOwner() */\n      jump\t// in\n    tag_163:\n        /* \"daostack/controller/Reputation.sol\":2214:2216  10 */\n      0x0a\n        /* \"daostack/controller/Reputation.sol\":2198:2211  new_interval_ */\n      dup2\n        /* \"daostack/controller/Reputation.sol\":2198:2216  new_interval_ > 10 */\n      gt\n        /* \"daostack/controller/Reputation.sol\":2190:2246  require(new_interval_ > 10, \"new interval must be > 10\") */\n      tag_165\n      jumpi\n      mload(0x40)\n      shl(0xe5, 0x461bcd)\n      dup2\n      mstore\n        /* \"#utility.yul\":4885:4887   */\n      0x20\n        /* \"daostack/controller/Reputation.sol\":2190:2246  require(new_interval_ > 10, \"new interval must be > 10\") */\n      0x04\n      dup3\n      add\n        /* \"#utility.yul\":4867:4888   */\n      mstore\n        /* \"#utility.yul\":4924:4926   */\n      0x19\n        /* \"#utility.yul\":4904:4922   */\n      0x24\n      dup3\n      add\n        /* \"#utility.yul\":4897:4927   */\n      mstore\n        /* \"#utility.yul\":4963:4990   */\n      0x6e657720696e74657276616c206d757374206265203e20313000000000000000\n        /* \"#utility.yul\":4943:4961   */\n      0x44\n      dup3\n      add\n        /* \"#utility.yul\":4936:4991   */\n      mstore\n        /* \"#utility.yul\":5008:5026   */\n      0x64\n      add\n        /* \"daostack/controller/Reputation.sol\":2190:2246  require(new_interval_ > 10, \"new interval must be > 10\") */\n    tag_166:\n      mload(0x40)\n      dup1\n      swap2\n      sub\n      swap1\n      revert\n    tag_165:\n        /* \"daostack/controller/Reputation.sol\":2257:2276  checkpoint_interval */\n      0x03\n        /* \"daostack/controller/Reputation.sol\":2257:2292  checkpoint_interval = new_interval_ */\n      sstore\n        /* \"daostack/controller/Reputation.sol\":2105:2300  function updateCheckpointInterval(uint256 new_interval_) public onlyOwner {... */\n      jump\t// out\n        /* \"@openzeppelin/contracts/access/Ownable.sol\":2081:2279  function transferOwnership(address newOwner) public virtual onlyOwner {... */\n    tag_69:\n        /* \"@openzeppelin/contracts/access/Ownable.sol\":1094:1107  _checkOwner() */\n      tag_169\n        /* \"@openzeppelin/contracts/access/Ownable.sol\":1094:1105  _checkOwner */\n      tag_72\n        /* \"@openzeppelin/contracts/access/Ownable.sol\":1094:1107  _checkOwner() */\n      jump\t// in\n    tag_169:\n      sub(shl(0xa0, 0x01), 0x01)\n        /* \"@openzeppelin/contracts/access/Ownable.sol\":2169:2191  newOwner != address(0) */\n      dup2\n      and\n        /* \"@openzeppelin/contracts/access/Ownable.sol\":2161:2234  require(newOwner != address(0), \"Ownable: new owner is the zero address\") */\n      tag_171\n      jumpi\n      mload(0x40)\n      shl(0xe5, 0x461bcd)\n      dup2\n      mstore\n        /* \"#utility.yul\":5239:5241   */\n      0x20\n        /* \"@openzeppelin/contracts/access/Ownable.sol\":2161:2234  require(newOwner != address(0), \"Ownable: new owner is the zero address\") */\n      0x04\n      dup3\n      add\n        /* \"#utility.yul\":5221:5242   */\n      mstore\n        /* \"#utility.yul\":5278:5280   */\n      0x26\n        /* \"#utility.yul\":5258:5276   */\n      0x24\n      dup3\n      add\n        /* \"#utility.yul\":5251:5281   */\n      mstore\n        /* \"#utility.yul\":5317:5351   */\n      0x4f776e61626c653a206e6577206f776e657220697320746865207a65726f2061\n        /* \"#utility.yul\":5297:5315   */\n      0x44\n      dup3\n      add\n        /* \"#utility.yul\":5290:5352   */\n      mstore\n      shl(0xd0, 0x646472657373)\n        /* \"#utility.yul\":5368:5386   */\n      0x64\n      dup3\n      add\n        /* \"#utility.yul\":5361:5397   */\n      mstore\n        /* \"#utility.yul\":5414:5433   */\n      0x84\n      add\n        /* \"@openzeppelin/contracts/access/Ownable.sol\":2161:2234  require(newOwner != address(0), \"Ownable: new owner is the zero address\") */\n      tag_166\n        /* \"#utility.yul\":5037:5439   */\n      jump\n        /* \"@openzeppelin/contracts/access/Ownable.sol\":2161:2234  require(newOwner != address(0), \"Ownable: new owner is the zero address\") */\n    tag_171:\n        /* \"@openzeppelin/contracts/access/Ownable.sol\":2244:2272  _transferOwnership(newOwner) */\n      tag_174\n        /* \"@openzeppelin/contracts/access/Ownable.sol\":2263:2271  newOwner */\n      dup2\n        /* \"@openzeppelin/contracts/access/Ownable.sol\":2244:2262  _transferOwnership */\n      tag_140\n        /* \"@openzeppelin/contracts/access/Ownable.sol\":2244:2272  _transferOwnership(newOwner) */\n      jump\t// in\n    tag_174:\n        /* \"@openzeppelin/contracts/access/Ownable.sol\":2081:2279  function transferOwnership(address newOwner) public virtual onlyOwner {... */\n      pop\n      jump\t// out\n        /* \"@openzeppelin/contracts/access/Ownable.sol\":1359:1489  function _checkOwner() internal view virtual {... */\n    tag_72:\n        /* \"@openzeppelin/contracts/access/Ownable.sol\":1247:1254  address */\n      0x00\n        /* \"@openzeppelin/contracts/access/Ownable.sol\":1273:1279  _owner */\n      sload\n      sub(shl(0xa0, 0x01), 0x01)\n      and\n        /* \"@openzeppelin/contracts/utils/Context.sol\":719:729  msg.sender */\n      caller\n        /* \"@openzeppelin/contracts/access/Ownable.sol\":1422:1445  owner() == _msgSender() */\n      eq\n        /* \"@openzeppelin/contracts/access/Ownable.sol\":1414:1482  require(owner() == _msgSender(), \"Ownable: caller is not the owner\") */\n      tag_139\n      jumpi\n      mload(0x40)\n      shl(0xe5, 0x461bcd)\n      dup2\n      mstore\n        /* \"#utility.yul\":5646:5648   */\n      0x20\n        /* \"@openzeppelin/contracts/access/Ownable.sol\":1414:1482  require(owner() == _msgSender(), \"Ownable: caller is not the owner\") */\n      0x04\n      dup3\n      add\n        /* \"#utility.yul\":5628:5649   */\n      dup2\n      swap1\n      mstore\n        /* \"#utility.yul\":5665:5683   */\n      0x24\n      dup3\n      add\n        /* \"#utility.yul\":5658:5688   */\n      mstore\n        /* \"#utility.yul\":5724:5758   */\n      0x4f776e61626c653a2063616c6c6572206973206e6f7420746865206f776e6572\n        /* \"#utility.yul\":5704:5722   */\n      0x44\n      dup3\n      add\n        /* \"#utility.yul\":5697:5759   */\n      mstore\n        /* \"#utility.yul\":5776:5794   */\n      0x64\n      add\n        /* \"@openzeppelin/contracts/access/Ownable.sol\":1414:1482  require(owner() == _msgSender(), \"Ownable: caller is not the owner\") */\n      tag_166\n        /* \"#utility.yul\":5444:5800   */\n      jump\n        /* \"daostack/controller/Reputation.sol\":8354:9318  function updateValueAtNow(Checkpoint[] storage checkpoints, uint256 _value) internal {... */\n    tag_95:\n        /* \"daostack/controller/Reputation.sol\":8477:8483  _value */\n      dup1\n        /* \"daostack/controller/Reputation.sol\":8466:8472  _value */\n      dup2\n      sub(shl(0x80, 0x01), 0x01)\n        /* \"daostack/controller/Reputation.sol\":8458:8483  uint128(_value) == _value */\n      and\n      eq\n        /* \"daostack/controller/Reputation.sol\":8450:8484  require(uint128(_value) == _value) */\n      tag_183\n      jumpi\n      0x00\n      dup1\n      revert\n    tag_183:\n        /* \"daostack/controller/Reputation.sol\":8711:8729  checkpoints.length */\n      dup2\n      sload\n        /* \"daostack/controller/Reputation.sol\":8711:8734  checkpoints.length == 0 */\n      iszero\n      dup1\n        /* \"daostack/controller/Reputation.sol\":8710:8896  (checkpoints.length == 0) ... */\n      tag_185\n      jumpi\n      pop\n        /* \"daostack/controller/Reputation.sol\":8770:8789  checkpoint_interval */\n      sload(0x03)\n        /* \"daostack/controller/Reputation.sol\":8755:8767  block.number */\n      number\n        /* \"daostack/controller/Reputation.sol\":8755:8789  block.number > checkpoint_interval */\n      gt\n        /* \"daostack/controller/Reputation.sol\":8753:8896  ( block.number > checkpoint_interval )... */\n      dup1\n      iszero\n      tag_185\n      jumpi\n      pop\n        /* \"daostack/controller/Reputation.sol\":8874:8893  checkpoint_interval */\n      sload(0x03)\n        /* \"daostack/controller/Reputation.sol\":8859:8893  block.number - checkpoint_interval */\n      tag_186\n      swap1\n        /* \"daostack/controller/Reputation.sol\":8859:8871  block.number */\n      number\n        /* \"daostack/controller/Reputation.sol\":8859:8893  block.number - checkpoint_interval */\n      tag_158\n      jump\t// in\n    tag_186:\n        /* \"daostack/controller/Reputation.sol\":8822:8840  checkpoints.length */\n      dup3\n      sload\n        /* \"daostack/controller/Reputation.sol\":8810:8821  checkpoints */\n      dup4\n      swap1\n        /* \"daostack/controller/Reputation.sol\":8822:8844  checkpoints.length - 1 */\n      tag_187\n      swap1\n        /* \"daostack/controller/Reputation.sol\":8843:8844  1 */\n      0x01\n      swap1\n        /* \"daostack/controller/Reputation.sol\":8822:8844  checkpoints.length - 1 */\n      tag_158\n      jump\t// in\n    tag_187:\n        /* \"daostack/controller/Reputation.sol\":8810:8845  checkpoints[checkpoints.length - 1] */\n      dup2\n      sload\n      dup2\n      lt\n      tag_189\n      jumpi\n      tag_189\n      tag_80\n      jump\t// in\n    tag_189:\n      0x00\n      swap2\n      dup3\n      mstore\n      0x20\n      swap1\n      swap2\n      keccak256\n      add\n        /* \"daostack/controller/Reputation.sol\":8810:8855  checkpoints[checkpoints.length - 1].fromBlock */\n      sload\n      sub(shl(0x80, 0x01), 0x01)\n      and\n        /* \"daostack/controller/Reputation.sol\":8810:8894  checkpoints[checkpoints.length - 1].fromBlock < (block.number - checkpoint_interval) */\n      lt\n        /* \"daostack/controller/Reputation.sol\":8753:8896  ( block.number > checkpoint_interval )... */\n    tag_185:\n        /* \"daostack/controller/Reputation.sol\":8705:9311  if ( (checkpoints.length == 0) ... */\n      iszero\n      tag_191\n      jumpi\n      0x40\n      dup1\n      mload\n      dup1\n      dup3\n      add\n      swap1\n      swap2\n      mstore\n      sub(shl(0x80, 0x01), 0x01)\n        /* \"daostack/controller/Reputation.sol\":9033:9045  block.number */\n      number\n        /* \"daostack/controller/Reputation.sol\":8999:9046  newCheckPoint.fromBlock = uint128(block.number) */\n      dup2\n      and\n      dup3\n      mstore\n        /* \"daostack/controller/Reputation.sol\":9061:9098  newCheckPoint.value = uint128(_value) */\n      swap2\n      dup3\n      and\n      0x20\n      dup1\n      dup4\n      add\n      swap2\n      dup3\n      mstore\n        /* \"daostack/controller/Reputation.sol\":9113:9144  checkpoints.push(newCheckPoint) */\n      dup5\n      sload\n      0x01\n      dup2\n      add\n      dup7\n      sstore\n      0x00\n      swap6\n      dup7\n      mstore\n      swap5\n      keccak256\n      swap2\n      mload\n      swap1\n      mload\n      dup4\n      and\n      shl(0x80, 0x01)\n      mul\n      swap3\n      and\n      swap2\n      swap1\n      swap2\n      or\n      swap2\n      add\n      sstore\n        /* \"daostack/controller/Reputation.sol\":8354:9318  function updateValueAtNow(Checkpoint[] storage checkpoints, uint256 _value) internal {... */\n      jump\t// out\n        /* \"daostack/controller/Reputation.sol\":8705:9311  if ( (checkpoints.length == 0) ... */\n    tag_191:\n        /* \"daostack/controller/Reputation.sol\":9224:9242  checkpoints.length */\n      dup2\n      sload\n        /* \"daostack/controller/Reputation.sol\":9177:9209  Checkpoint storage oldCheckPoint */\n      0x00\n      swap1\n        /* \"daostack/controller/Reputation.sol\":9212:9223  checkpoints */\n      dup4\n      swap1\n        /* \"daostack/controller/Reputation.sol\":9224:9246  checkpoints.length - 1 */\n      tag_196\n      swap1\n        /* \"daostack/controller/Reputation.sol\":9245:9246  1 */\n      0x01\n      swap1\n        /* \"daostack/controller/Reputation.sol\":9224:9246  checkpoints.length - 1 */\n      tag_158\n      jump\t// in\n    tag_196:\n        /* \"daostack/controller/Reputation.sol\":9212:9247  checkpoints[checkpoints.length - 1] */\n      dup2\n      sload\n      dup2\n      lt\n      tag_198\n      jumpi\n      tag_198\n      tag_80\n      jump\t// in\n    tag_198:\n      0x00\n      swap2\n      dup3\n      mstore\n      0x20\n      swap1\n      swap2\n      keccak256\n      add\n        /* \"daostack/controller/Reputation.sol\":9262:9299  oldCheckPoint.value = uint128(_value) */\n      dup1\n      sload\n      sub(shl(0x80, 0x01), 0x01)\n      dup1\n      dup6\n      and\n      shl(0x80, 0x01)\n      mul\n      swap2\n      and\n      or\n      swap1\n      sstore\n      pop\n        /* \"daostack/controller/Reputation.sol\":8354:9318  function updateValueAtNow(Checkpoint[] storage checkpoints, uint256 _value) internal {... */\n      pop\n      pop\n      jump\t// out\n        /* \"daostack/controller/Reputation.sol\":7259:8126  function getValueAt(Checkpoint[] storage checkpoints, uint256 _block) internal view returns (uint256) {... */\n    tag_133:\n        /* \"daostack/controller/Reputation.sol\":7376:7394  checkpoints.length */\n      dup2\n      sload\n        /* \"daostack/controller/Reputation.sol\":7352:7359  uint256 */\n      0x00\n      swap1\n        /* \"daostack/controller/Reputation.sol\":7372:7436  if (checkpoints.length == 0) {... */\n      tag_201\n      jumpi\n      pop\n        /* \"daostack/controller/Reputation.sol\":7423:7424  0 */\n      0x00\n        /* \"daostack/controller/Reputation.sol\":7416:7424  return 0 */\n      jump(tag_73)\n        /* \"daostack/controller/Reputation.sol\":7372:7436  if (checkpoints.length == 0) {... */\n    tag_201:\n        /* \"daostack/controller/Reputation.sol\":7516:7534  checkpoints.length */\n      dup3\n      sload\n        /* \"daostack/controller/Reputation.sol\":7504:7515  checkpoints */\n      dup4\n      swap1\n        /* \"daostack/controller/Reputation.sol\":7516:7538  checkpoints.length - 1 */\n      tag_202\n      swap1\n        /* \"daostack/controller/Reputation.sol\":7537:7538  1 */\n      0x01\n      swap1\n        /* \"daostack/controller/Reputation.sol\":7516:7538  checkpoints.length - 1 */\n      tag_158\n      jump\t// in\n    tag_202:\n        /* \"daostack/controller/Reputation.sol\":7504:7539  checkpoints[checkpoints.length - 1] */\n      dup2\n      sload\n      dup2\n      lt\n      tag_204\n      jumpi\n      tag_204\n      tag_80\n      jump\t// in\n    tag_204:\n      0x00\n      swap2\n      dup3\n      mstore\n      0x20\n      swap1\n      swap2\n      keccak256\n      add\n        /* \"daostack/controller/Reputation.sol\":7504:7549  checkpoints[checkpoints.length - 1].fromBlock */\n      sload\n      sub(shl(0x80, 0x01), 0x01)\n      and\n        /* \"daostack/controller/Reputation.sol\":7494:7549  _block >= checkpoints[checkpoints.length - 1].fromBlock */\n      dup3\n      lt\n        /* \"daostack/controller/Reputation.sol\":7490:7626  if (_block >= checkpoints[checkpoints.length - 1].fromBlock) {... */\n      tag_206\n      jumpi\n        /* \"daostack/controller/Reputation.sol\":7585:7603  checkpoints.length */\n      dup3\n      sload\n        /* \"daostack/controller/Reputation.sol\":7573:7584  checkpoints */\n      dup4\n      swap1\n        /* \"daostack/controller/Reputation.sol\":7585:7607  checkpoints.length - 1 */\n      tag_207\n      swap1\n        /* \"daostack/controller/Reputation.sol\":7606:7607  1 */\n      0x01\n      swap1\n        /* \"daostack/controller/Reputation.sol\":7585:7607  checkpoints.length - 1 */\n      tag_158\n      jump\t// in\n    tag_207:\n        /* \"daostack/controller/Reputation.sol\":7573:7608  checkpoints[checkpoints.length - 1] */\n      dup2\n      sload\n      dup2\n      lt\n      tag_209\n      jumpi\n      tag_209\n      tag_80\n      jump\t// in\n    tag_209:\n      0x00\n      swap2\n      dup3\n      mstore\n      0x20\n      swap1\n      swap2\n      keccak256\n      add\n        /* \"daostack/controller/Reputation.sol\":7573:7614  checkpoints[checkpoints.length - 1].value */\n      sload\n      shl(0x80, 0x01)\n      swap1\n      div\n      sub(shl(0x80, 0x01), 0x01)\n      and\n      swap1\n      pop\n        /* \"daostack/controller/Reputation.sol\":7566:7614  return checkpoints[checkpoints.length - 1].value */\n      jump(tag_73)\n        /* \"daostack/controller/Reputation.sol\":7490:7626  if (_block >= checkpoints[checkpoints.length - 1].fromBlock) {... */\n    tag_206:\n        /* \"daostack/controller/Reputation.sol\":7649:7660  checkpoints */\n      dup3\n        /* \"daostack/controller/Reputation.sol\":7661:7662  0 */\n      0x00\n        /* \"daostack/controller/Reputation.sol\":7649:7663  checkpoints[0] */\n      dup2\n      sload\n      dup2\n      lt\n      tag_212\n      jumpi\n      tag_212\n      tag_80\n      jump\t// in\n    tag_212:\n      0x00\n      swap2\n      dup3\n      mstore\n      0x20\n      swap1\n      swap2\n      keccak256\n      add\n        /* \"daostack/controller/Reputation.sol\":7649:7673  checkpoints[0].fromBlock */\n      sload\n      sub(shl(0x80, 0x01), 0x01)\n      and\n        /* \"daostack/controller/Reputation.sol\":7640:7673  _block < checkpoints[0].fromBlock */\n      dup3\n      lt\n        /* \"daostack/controller/Reputation.sol\":7636:7710  if (_block < checkpoints[0].fromBlock) {... */\n      iszero\n      tag_214\n      jumpi\n      pop\n        /* \"daostack/controller/Reputation.sol\":7697:7698  0 */\n      0x00\n        /* \"daostack/controller/Reputation.sol\":7690:7698  return 0 */\n      jump(tag_73)\n        /* \"daostack/controller/Reputation.sol\":7636:7710  if (_block < checkpoints[0].fromBlock) {... */\n    tag_214:\n        /* \"daostack/controller/Reputation.sol\":7814:7832  checkpoints.length */\n      dup3\n      sload\n        /* \"daostack/controller/Reputation.sol\":7774:7785  uint256 min */\n      0x00\n      swap1\n      dup2\n      swap1\n        /* \"daostack/controller/Reputation.sol\":7814:7836  checkpoints.length - 1 */\n      tag_215\n      swap1\n        /* \"daostack/controller/Reputation.sol\":7835:7836  1 */\n      0x01\n      swap1\n        /* \"daostack/controller/Reputation.sol\":7814:7836  checkpoints.length - 1 */\n      tag_158\n      jump\t// in\n    tag_215:\n        /* \"daostack/controller/Reputation.sol\":7800:7836  uint256 max = checkpoints.length - 1 */\n      swap1\n      pop\n        /* \"daostack/controller/Reputation.sol\":7847:8079  while (max > min) {... */\n    tag_216:\n        /* \"daostack/controller/Reputation.sol\":7860:7863  min */\n      dup2\n        /* \"daostack/controller/Reputation.sol\":7854:7857  max */\n      dup2\n        /* \"daostack/controller/Reputation.sol\":7854:7863  max > min */\n      gt\n        /* \"daostack/controller/Reputation.sol\":7847:8079  while (max > min) {... */\n      iszero\n      tag_217\n      jumpi\n        /* \"daostack/controller/Reputation.sol\":7880:7891  uint256 mid */\n      0x00\n        /* \"daostack/controller/Reputation.sol\":7912:7913  2 */\n      0x02\n        /* \"daostack/controller/Reputation.sol\":7895:7904  max + min */\n      tag_218\n        /* \"daostack/controller/Reputation.sol\":7901:7904  min */\n      dup5\n        /* \"daostack/controller/Reputation.sol\":7895:7898  max */\n      dup5\n        /* \"daostack/controller/Reputation.sol\":7895:7904  max + min */\n      tag_82\n      jump\t// in\n    tag_218:\n        /* \"daostack/controller/Reputation.sol\":7895:7908  max + min + 1 */\n      tag_219\n      swap1\n        /* \"daostack/controller/Reputation.sol\":7907:7908  1 */\n      0x01\n        /* \"daostack/controller/Reputation.sol\":7895:7908  max + min + 1 */\n      tag_82\n      jump\t// in\n    tag_219:\n        /* \"daostack/controller/Reputation.sol\":7894:7913  (max + min + 1) / 2 */\n      tag_220\n      swap2\n      swap1\n      tag_221\n      jump\t// in\n    tag_220:\n        /* \"daostack/controller/Reputation.sol\":7880:7913  uint256 mid = (max + min + 1) / 2 */\n      swap1\n      pop\n        /* \"daostack/controller/Reputation.sol\":7962:7968  _block */\n      dup5\n        /* \"daostack/controller/Reputation.sol\":7932:7943  checkpoints */\n      dup7\n        /* \"daostack/controller/Reputation.sol\":7944:7947  mid */\n      dup3\n        /* \"daostack/controller/Reputation.sol\":7932:7948  checkpoints[mid] */\n      dup2\n      sload\n      dup2\n      lt\n      tag_223\n      jumpi\n      tag_223\n      tag_80\n      jump\t// in\n    tag_223:\n      0x00\n      swap2\n      dup3\n      mstore\n      0x20\n      swap1\n      swap2\n      keccak256\n      add\n        /* \"daostack/controller/Reputation.sol\":7932:7958  checkpoints[mid].fromBlock */\n      sload\n      sub(shl(0x80, 0x01), 0x01)\n      and\n        /* \"daostack/controller/Reputation.sol\":7932:7968  checkpoints[mid].fromBlock <= _block */\n      gt\n        /* \"daostack/controller/Reputation.sol\":7928:8068  if (checkpoints[mid].fromBlock <= _block) {... */\n      tag_225\n      jumpi\n        /* \"daostack/controller/Reputation.sol\":7995:7998  mid */\n      dup1\n        /* \"daostack/controller/Reputation.sol\":7989:7998  min = mid */\n      swap3\n      pop\n        /* \"daostack/controller/Reputation.sol\":7928:8068  if (checkpoints[mid].fromBlock <= _block) {... */\n      jump(tag_226)\n    tag_225:\n        /* \"daostack/controller/Reputation.sol\":8045:8052  mid - 1 */\n      tag_227\n        /* \"daostack/controller/Reputation.sol\":8051:8052  1 */\n      0x01\n        /* \"daostack/controller/Reputation.sol\":8045:8048  mid */\n      dup3\n        /* \"daostack/controller/Reputation.sol\":8045:8052  mid - 1 */\n      tag_158\n      jump\t// in\n    tag_227:\n        /* \"daostack/controller/Reputation.sol\":8039:8052  max = mid - 1 */\n      swap2\n      pop\n        /* \"daostack/controller/Reputation.sol\":7928:8068  if (checkpoints[mid].fromBlock <= _block) {... */\n    tag_226:\n        /* \"daostack/controller/Reputation.sol\":7865:8079  {... */\n      pop\n        /* \"daostack/controller/Reputation.sol\":7847:8079  while (max > min) {... */\n      jump(tag_216)\n    tag_217:\n        /* \"daostack/controller/Reputation.sol\":8096:8107  checkpoints */\n      dup5\n        /* \"daostack/controller/Reputation.sol\":8108:8111  min */\n      dup3\n        /* \"daostack/controller/Reputation.sol\":8096:8112  checkpoints[min] */\n      dup2\n      sload\n      dup2\n      lt\n      tag_229\n      jumpi\n      tag_229\n      tag_80\n      jump\t// in\n    tag_229:\n      0x00\n      swap2\n      dup3\n      mstore\n      0x20\n      swap1\n      swap2\n      keccak256\n      add\n        /* \"daostack/controller/Reputation.sol\":8096:8118  checkpoints[min].value */\n      sload\n      shl(0x80, 0x01)\n      swap1\n      div\n      sub(shl(0x80, 0x01), 0x01)\n      and\n      swap6\n        /* \"daostack/controller/Reputation.sol\":7259:8126  function getValueAt(Checkpoint[] storage checkpoints, uint256 _block) internal view returns (uint256) {... */\n      swap5\n      pop\n      pop\n      pop\n      pop\n      pop\n      jump\t// out\n        /* \"@openzeppelin/contracts/access/Ownable.sol\":2433:2620  function _transferOwnership(address newOwner) internal virtual {... */\n    tag_140:\n        /* \"@openzeppelin/contracts/access/Ownable.sol\":2506:2522  address oldOwner */\n      0x00\n        /* \"@openzeppelin/contracts/access/Ownable.sol\":2525:2531  _owner */\n      dup1\n      sload\n      sub(shl(0xa0, 0x01), 0x01)\n        /* \"@openzeppelin/contracts/access/Ownable.sol\":2541:2558  _owner = newOwner */\n      dup4\n      dup2\n      and\n      not(sub(shl(0xa0, 0x01), 0x01))\n      dup4\n      and\n      dup2\n      or\n      dup5\n      sstore\n        /* \"@openzeppelin/contracts/access/Ownable.sol\":2573:2613  OwnershipTransferred(oldOwner, newOwner) */\n      mload(0x40)\n        /* \"@openzeppelin/contracts/access/Ownable.sol\":2525:2531  _owner */\n      swap2\n      swap1\n      swap3\n      and\n      swap3\n      dup4\n      swap2\n        /* \"@openzeppelin/contracts/access/Ownable.sol\":2573:2613  OwnershipTransferred(oldOwner, newOwner) */\n      0x8be0079c531659141344cd1fd0a4f28419497f9722a3daafe3b4186f6b6457e0\n      swap2\n        /* \"@openzeppelin/contracts/access/Ownable.sol\":2506:2522  address oldOwner */\n      swap1\n        /* \"@openzeppelin/contracts/access/Ownable.sol\":2573:2613  OwnershipTransferred(oldOwner, newOwner) */\n      log3\n        /* \"@openzeppelin/contracts/access/Ownable.sol\":2496:2620  {... */\n      pop\n        /* \"@openzeppelin/contracts/access/Ownable.sol\":2433:2620  function _transferOwnership(address newOwner) internal virtual {... */\n      pop\n      jump\t// out\n        /* \"#utility.yul\":14:141   */\n    tag_233:\n        /* \"#utility.yul\":75:85   */\n      0x4e487b71\n        /* \"#utility.yul\":70:73   */\n      0xe0\n        /* \"#utility.yul\":66:86   */\n      shl\n        /* \"#utility.yul\":63:64   */\n      0x00\n        /* \"#utility.yul\":56:87   */\n      mstore\n        /* \"#utility.yul\":106:110   */\n      0x41\n        /* \"#utility.yul\":103:104   */\n      0x04\n        /* \"#utility.yul\":96:111   */\n      mstore\n        /* \"#utility.yul\":130:134   */\n      0x24\n        /* \"#utility.yul\":127:128   */\n      0x00\n        /* \"#utility.yul\":120:135   */\n      revert\n        /* \"#utility.yul\":146:421   */\n    tag_234:\n        /* \"#utility.yul\":217:219   */\n      0x40\n        /* \"#utility.yul\":211:220   */\n      mload\n        /* \"#utility.yul\":282:284   */\n      0x1f\n        /* \"#utility.yul\":263:276   */\n      dup3\n      add\n      not(0x1f)\n        /* \"#utility.yul\":259:286   */\n      and\n        /* \"#utility.yul\":247:287   */\n      dup2\n      add\n        /* \"#utility.yul\":317:335   */\n      0xffffffffffffffff\n        /* \"#utility.yul\":302:336   */\n      dup2\n      gt\n        /* \"#utility.yul\":338:360   */\n      dup3\n      dup3\n      lt\n        /* \"#utility.yul\":299:361   */\n      or\n        /* \"#utility.yul\":296:384   */\n      iszero\n      tag_243\n      jumpi\n        /* \"#utility.yul\":364:382   */\n      tag_243\n      tag_233\n      jump\t// in\n    tag_243:\n        /* \"#utility.yul\":400:402   */\n      0x40\n        /* \"#utility.yul\":393:415   */\n      mstore\n        /* \"#utility.yul\":146:421   */\n      swap2\n      swap1\n      pop\n      jump\t// out\n        /* \"#utility.yul\":426:609   */\n    tag_235:\n        /* \"#utility.yul\":486:490   */\n      0x00\n        /* \"#utility.yul\":519:537   */\n      0xffffffffffffffff\n        /* \"#utility.yul\":511:517   */\n      dup3\n        /* \"#utility.yul\":508:538   */\n      gt\n        /* \"#utility.yul\":505:561   */\n      iszero\n      tag_246\n      jumpi\n        /* \"#utility.yul\":541:559   */\n      tag_246\n      tag_233\n      jump\t// in\n    tag_246:\n      pop\n        /* \"#utility.yul\":586:587   */\n      0x05\n        /* \"#utility.yul\":582:596   */\n      shl\n        /* \"#utility.yul\":598:602   */\n      0x20\n        /* \"#utility.yul\":578:603   */\n      add\n      swap1\n        /* \"#utility.yul\":426:609   */\n      jump\t// out\n        /* \"#utility.yul\":614:787   */\n    tag_236:\n        /* \"#utility.yul\":682:702   */\n      dup1\n      calldataload\n      sub(shl(0xa0, 0x01), 0x01)\n        /* \"#utility.yul\":731:762   */\n      dup2\n      and\n        /* \"#utility.yul\":721:763   */\n      dup2\n      eq\n        /* \"#utility.yul\":711:781   */\n      tag_148\n      jumpi\n        /* \"#utility.yul\":777:778   */\n      0x00\n        /* \"#utility.yul\":774:775   */\n      dup1\n        /* \"#utility.yul\":767:779   */\n      revert\n        /* \"#utility.yul\":792:1454   */\n    tag_237:\n        /* \"#utility.yul\":846:851   */\n      0x00\n        /* \"#utility.yul\":899:902   */\n      dup3\n        /* \"#utility.yul\":892:896   */\n      0x1f\n        /* \"#utility.yul\":884:890   */\n      dup4\n        /* \"#utility.yul\":880:897   */\n      add\n        /* \"#utility.yul\":876:903   */\n      slt\n        /* \"#utility.yul\":866:921   */\n      tag_250\n      jumpi\n        /* \"#utility.yul\":917:918   */\n      0x00\n        /* \"#utility.yul\":914:915   */\n      dup1\n        /* \"#utility.yul\":907:919   */\n      revert\n        /* \"#utility.yul\":866:921   */\n    tag_250:\n        /* \"#utility.yul\":953:959   */\n      dup2\n        /* \"#utility.yul\":940:960   */\n      calldataload\n        /* \"#utility.yul\":979:983   */\n      0x20\n        /* \"#utility.yul\":1003:1063   */\n      tag_251\n        /* \"#utility.yul\":1019:1062   */\n      tag_252\n        /* \"#utility.yul\":1059:1061   */\n      dup4\n        /* \"#utility.yul\":1019:1062   */\n      tag_235\n      jump\t// in\n    tag_252:\n        /* \"#utility.yul\":1003:1063   */\n      tag_234\n      jump\t// in\n    tag_251:\n        /* \"#utility.yul\":1097:1112   */\n      dup3\n      dup2\n      mstore\n        /* \"#utility.yul\":1183:1184   */\n      0x05\n        /* \"#utility.yul\":1179:1189   */\n      swap3\n      swap1\n      swap3\n      shl\n        /* \"#utility.yul\":1167:1190   */\n      dup5\n      add\n        /* \"#utility.yul\":1163:1195   */\n      dup2\n      add\n      swap2\n        /* \"#utility.yul\":1128:1140   */\n      dup2\n      dup2\n      add\n      swap1\n        /* \"#utility.yul\":1207:1222   */\n      dup7\n      dup5\n      gt\n        /* \"#utility.yul\":1204:1239   */\n      iszero\n      tag_253\n      jumpi\n        /* \"#utility.yul\":1235:1236   */\n      0x00\n        /* \"#utility.yul\":1232:1233   */\n      dup1\n        /* \"#utility.yul\":1225:1237   */\n      revert\n        /* \"#utility.yul\":1204:1239   */\n    tag_253:\n        /* \"#utility.yul\":1271:1273   */\n      dup3\n        /* \"#utility.yul\":1263:1269   */\n      dup7\n        /* \"#utility.yul\":1259:1274   */\n      add\n        /* \"#utility.yul\":1283:1425   */\n    tag_254:\n        /* \"#utility.yul\":1299:1305   */\n      dup5\n        /* \"#utility.yul\":1294:1297   */\n      dup2\n        /* \"#utility.yul\":1291:1306   */\n      lt\n        /* \"#utility.yul\":1283:1425   */\n      iszero\n      tag_256\n      jumpi\n        /* \"#utility.yul\":1365:1382   */\n      dup1\n      calldataload\n        /* \"#utility.yul\":1353:1383   */\n      dup4\n      mstore\n        /* \"#utility.yul\":1403:1415   */\n      swap2\n      dup4\n      add\n      swap2\n        /* \"#utility.yul\":1316:1328   */\n      dup4\n      add\n        /* \"#utility.yul\":1283:1425   */\n      jump(tag_254)\n    tag_256:\n      pop\n        /* \"#utility.yul\":1443:1448   */\n      swap7\n        /* \"#utility.yul\":792:1454   */\n      swap6\n      pop\n      pop\n      pop\n      pop\n      pop\n      pop\n      jump\t// out\n        /* \"#utility.yul\":1459:2605   */\n    tag_20:\n        /* \"#utility.yul\":1577:1583   */\n      0x00\n        /* \"#utility.yul\":1585:1591   */\n      dup1\n        /* \"#utility.yul\":1638:1640   */\n      0x40\n        /* \"#utility.yul\":1626:1635   */\n      dup4\n        /* \"#utility.yul\":1617:1624   */\n      dup6\n        /* \"#utility.yul\":1613:1636   */\n      sub\n        /* \"#utility.yul\":1609:1641   */\n      slt\n        /* \"#utility.yul\":1606:1658   */\n      iszero\n      tag_258\n      jumpi\n        /* \"#utility.yul\":1654:1655   */\n      0x00\n        /* \"#utility.yul\":1651:1652   */\n      dup1\n        /* \"#utility.yul\":1644:1656   */\n      revert\n        /* \"#utility.yul\":1606:1658   */\n    tag_258:\n        /* \"#utility.yul\":1694:1703   */\n      dup3\n        /* \"#utility.yul\":1681:1704   */\n      calldataload\n        /* \"#utility.yul\":1723:1741   */\n      0xffffffffffffffff\n        /* \"#utility.yul\":1764:1766   */\n      dup1\n        /* \"#utility.yul\":1756:1762   */\n      dup3\n        /* \"#utility.yul\":1753:1767   */\n      gt\n        /* \"#utility.yul\":1750:1784   */\n      iszero\n      tag_259\n      jumpi\n        /* \"#utility.yul\":1780:1781   */\n      0x00\n        /* \"#utility.yul\":1777:1778   */\n      dup1\n        /* \"#utility.yul\":1770:1782   */\n      revert\n        /* \"#utility.yul\":1750:1784   */\n    tag_259:\n        /* \"#utility.yul\":1818:1824   */\n      dup2\n        /* \"#utility.yul\":1807:1816   */\n      dup6\n        /* \"#utility.yul\":1803:1825   */\n      add\n        /* \"#utility.yul\":1793:1825   */\n      swap2\n      pop\n        /* \"#utility.yul\":1863:1870   */\n      dup6\n        /* \"#utility.yul\":1856:1860   */\n      0x1f\n        /* \"#utility.yul\":1852:1854   */\n      dup4\n        /* \"#utility.yul\":1848:1861   */\n      add\n        /* \"#utility.yul\":1844:1871   */\n      slt\n        /* \"#utility.yul\":1834:1889   */\n      tag_260\n      jumpi\n        /* \"#utility.yul\":1885:1886   */\n      0x00\n        /* \"#utility.yul\":1882:1883   */\n      dup1\n        /* \"#utility.yul\":1875:1887   */\n      revert\n        /* \"#utility.yul\":1834:1889   */\n    tag_260:\n        /* \"#utility.yul\":1921:1923   */\n      dup2\n        /* \"#utility.yul\":1908:1924   */\n      calldataload\n        /* \"#utility.yul\":1943:1947   */\n      0x20\n        /* \"#utility.yul\":1967:2027   */\n      tag_261\n        /* \"#utility.yul\":1983:2026   */\n      tag_252\n        /* \"#utility.yul\":2023:2025   */\n      dup4\n        /* \"#utility.yul\":1983:2026   */\n      tag_235\n      jump\t// in\n        /* \"#utility.yul\":1967:2027   */\n    tag_261:\n        /* \"#utility.yul\":2061:2076   */\n      dup3\n      dup2\n      mstore\n        /* \"#utility.yul\":2143:2144   */\n      0x05\n        /* \"#utility.yul\":2139:2149   */\n      swap3\n      swap1\n      swap3\n      shl\n        /* \"#utility.yul\":2131:2150   */\n      dup5\n      add\n        /* \"#utility.yul\":2127:2155   */\n      dup2\n      add\n      swap2\n        /* \"#utility.yul\":2092:2104   */\n      dup2\n      dup2\n      add\n      swap1\n        /* \"#utility.yul\":2167:2186   */\n      dup10\n      dup5\n      gt\n        /* \"#utility.yul\":2164:2203   */\n      iszero\n      tag_263\n      jumpi\n        /* \"#utility.yul\":2199:2200   */\n      0x00\n        /* \"#utility.yul\":2196:2197   */\n      dup1\n        /* \"#utility.yul\":2189:2201   */\n      revert\n        /* \"#utility.yul\":2164:2203   */\n    tag_263:\n        /* \"#utility.yul\":2223:2234   */\n      swap5\n      dup3\n      add\n      swap5\n        /* \"#utility.yul\":2243:2391   */\n    tag_264:\n        /* \"#utility.yul\":2259:2265   */\n      dup4\n        /* \"#utility.yul\":2254:2257   */\n      dup7\n        /* \"#utility.yul\":2251:2266   */\n      lt\n        /* \"#utility.yul\":2243:2391   */\n      iszero\n      tag_266\n      jumpi\n        /* \"#utility.yul\":2325:2348   */\n      tag_267\n        /* \"#utility.yul\":2344:2347   */\n      dup7\n        /* \"#utility.yul\":2325:2348   */\n      tag_236\n      jump\t// in\n    tag_267:\n        /* \"#utility.yul\":2313:2349   */\n      dup3\n      mstore\n        /* \"#utility.yul\":2276:2288   */\n      swap5\n      dup3\n      add\n      swap5\n        /* \"#utility.yul\":2369:2381   */\n      swap1\n      dup3\n      add\n      swap1\n        /* \"#utility.yul\":2243:2391   */\n      jump(tag_264)\n    tag_266:\n        /* \"#utility.yul\":2410:2415   */\n      swap7\n      pop\n      pop\n        /* \"#utility.yul\":2453:2471   */\n      dup7\n      add\n        /* \"#utility.yul\":2440:2472   */\n      calldataload\n      swap3\n      pop\n      pop\n        /* \"#utility.yul\":2484:2500   */\n      dup1\n      dup3\n      gt\n        /* \"#utility.yul\":2481:2517   */\n      iszero\n      tag_268\n      jumpi\n        /* \"#utility.yul\":2513:2514   */\n      0x00\n        /* \"#utility.yul\":2510:2511   */\n      dup1\n        /* \"#utility.yul\":2503:2515   */\n      revert\n        /* \"#utility.yul\":2481:2517   */\n    tag_268:\n      pop\n        /* \"#utility.yul\":2536:2599   */\n      tag_269\n        /* \"#utility.yul\":2591:2598   */\n      dup6\n        /* \"#utility.yul\":2580:2588   */\n      dup3\n        /* \"#utility.yul\":2569:2578   */\n      dup7\n        /* \"#utility.yul\":2565:2589   */\n      add\n        /* \"#utility.yul\":2536:2599   */\n      tag_237\n      jump\t// in\n    tag_269:\n        /* \"#utility.yul\":2526:2599   */\n      swap2\n      pop\n      pop\n        /* \"#utility.yul\":1459:2605   */\n      swap3\n      pop\n      swap3\n      swap1\n      pop\n      jump\t// out\n        /* \"#utility.yul\":3173:3427   */\n    tag_34:\n        /* \"#utility.yul\":3241:3247   */\n      0x00\n        /* \"#utility.yul\":3249:3255   */\n      dup1\n        /* \"#utility.yul\":3302:3304   */\n      0x40\n        /* \"#utility.yul\":3290:3299   */\n      dup4\n        /* \"#utility.yul\":3281:3288   */\n      dup6\n        /* \"#utility.yul\":3277:3300   */\n      sub\n        /* \"#utility.yul\":3273:3305   */\n      slt\n        /* \"#utility.yul\":3270:3322   */\n      iszero\n      tag_274\n      jumpi\n        /* \"#utility.yul\":3318:3319   */\n      0x00\n        /* \"#utility.yul\":3315:3316   */\n      dup1\n        /* \"#utility.yul\":3308:3320   */\n      revert\n        /* \"#utility.yul\":3270:3322   */\n    tag_274:\n        /* \"#utility.yul\":3341:3370   */\n      tag_275\n        /* \"#utility.yul\":3360:3369   */\n      dup4\n        /* \"#utility.yul\":3341:3370   */\n      tag_236\n      jump\t// in\n    tag_275:\n        /* \"#utility.yul\":3331:3370   */\n      swap5\n        /* \"#utility.yul\":3417:3419   */\n      0x20\n        /* \"#utility.yul\":3402:3420   */\n      swap4\n      swap1\n      swap4\n      add\n        /* \"#utility.yul\":3389:3421   */\n      calldataload\n      swap4\n      pop\n      pop\n      pop\n        /* \"#utility.yul\":3173:3427   */\n      jump\t// out\n        /* \"#utility.yul\":3432:3618   */\n    tag_46:\n        /* \"#utility.yul\":3491:3497   */\n      0x00\n        /* \"#utility.yul\":3544:3546   */\n      0x20\n        /* \"#utility.yul\":3532:3541   */\n      dup3\n        /* \"#utility.yul\":3523:3530   */\n      dup5\n        /* \"#utility.yul\":3519:3542   */\n      sub\n        /* \"#utility.yul\":3515:3547   */\n      slt\n        /* \"#utility.yul\":3512:3564   */\n      iszero\n      tag_277\n      jumpi\n        /* \"#utility.yul\":3560:3561   */\n      0x00\n        /* \"#utility.yul\":3557:3558   */\n      dup1\n        /* \"#utility.yul\":3550:3562   */\n      revert\n        /* \"#utility.yul\":3512:3564   */\n    tag_277:\n        /* \"#utility.yul\":3583:3612   */\n      tag_278\n        /* \"#utility.yul\":3602:3611   */\n      dup3\n        /* \"#utility.yul\":3583:3612   */\n      tag_236\n      jump\t// in\n    tag_278:\n        /* \"#utility.yul\":3573:3612   */\n      swap4\n        /* \"#utility.yul\":3432:3618   */\n      swap3\n      pop\n      pop\n      pop\n      jump\t// out\n        /* \"#utility.yul\":3831:4011   */\n    tag_57:\n        /* \"#utility.yul\":3890:3896   */\n      0x00\n        /* \"#utility.yul\":3943:3945   */\n      0x20\n        /* \"#utility.yul\":3931:3940   */\n      dup3\n        /* \"#utility.yul\":3922:3929   */\n      dup5\n        /* \"#utility.yul\":3918:3941   */\n      sub\n        /* \"#utility.yul\":3914:3946   */\n      slt\n        /* \"#utility.yul\":3911:3963   */\n      iszero\n      tag_281\n      jumpi\n        /* \"#utility.yul\":3959:3960   */\n      0x00\n        /* \"#utility.yul\":3956:3957   */\n      dup1\n        /* \"#utility.yul\":3949:3961   */\n      revert\n        /* \"#utility.yul\":3911:3963   */\n    tag_281:\n      pop\n        /* \"#utility.yul\":3982:4005   */\n      calldataload\n      swap2\n        /* \"#utility.yul\":3831:4011   */\n      swap1\n      pop\n      jump\t// out\n        /* \"#utility.yul\":4016:4143   */\n    tag_80:\n        /* \"#utility.yul\":4077:4087   */\n      0x4e487b71\n        /* \"#utility.yul\":4072:4075   */\n      0xe0\n        /* \"#utility.yul\":4068:4088   */\n      shl\n        /* \"#utility.yul\":4065:4066   */\n      0x00\n        /* \"#utility.yul\":4058:4089   */\n      mstore\n        /* \"#utility.yul\":4108:4112   */\n      0x32\n        /* \"#utility.yul\":4105:4106   */\n      0x04\n        /* \"#utility.yul\":4098:4113   */\n      mstore\n        /* \"#utility.yul\":4132:4136   */\n      0x24\n        /* \"#utility.yul\":4129:4130   */\n      0x00\n        /* \"#utility.yul\":4122:4137   */\n      revert\n        /* \"#utility.yul\":4148:4275   */\n    tag_238:\n        /* \"#utility.yul\":4209:4219   */\n      0x4e487b71\n        /* \"#utility.yul\":4204:4207   */\n      0xe0\n        /* \"#utility.yul\":4200:4220   */\n      shl\n        /* \"#utility.yul\":4197:4198   */\n      0x00\n        /* \"#utility.yul\":4190:4221   */\n      mstore\n        /* \"#utility.yul\":4240:4244   */\n      0x11\n        /* \"#utility.yul\":4237:4238   */\n      0x04\n        /* \"#utility.yul\":4230:4245   */\n      mstore\n        /* \"#utility.yul\":4264:4268   */\n      0x24\n        /* \"#utility.yul\":4261:4262   */\n      0x00\n        /* \"#utility.yul\":4254:4269   */\n      revert\n        /* \"#utility.yul\":4280:4408   */\n    tag_82:\n        /* \"#utility.yul\":4320:4323   */\n      0x00\n        /* \"#utility.yul\":4351:4352   */\n      dup3\n        /* \"#utility.yul\":4347:4353   */\n      not\n        /* \"#utility.yul\":4344:4345   */\n      dup3\n        /* \"#utility.yul\":4341:4354   */\n      gt\n        /* \"#utility.yul\":4338:4377   */\n      iszero\n      tag_286\n      jumpi\n        /* \"#utility.yul\":4357:4375   */\n      tag_286\n      tag_238\n      jump\t// in\n    tag_286:\n      pop\n        /* \"#utility.yul\":4393:4402   */\n      add\n      swap1\n        /* \"#utility.yul\":4280:4408   */\n      jump\t// out\n        /* \"#utility.yul\":4413:4548   */\n    tag_108:\n        /* \"#utility.yul\":4452:4455   */\n      0x00\n      not(0x00)\n        /* \"#utility.yul\":4473:4490   */\n      dup3\n      eq\n        /* \"#utility.yul\":4470:4513   */\n      iszero\n      tag_289\n      jumpi\n        /* \"#utility.yul\":4493:4511   */\n      tag_289\n      tag_238\n      jump\t// in\n    tag_289:\n      pop\n        /* \"#utility.yul\":4540:4541   */\n      0x01\n        /* \"#utility.yul\":4529:4542   */\n      add\n      swap1\n        /* \"#utility.yul\":4413:4548   */\n      jump\t// out\n        /* \"#utility.yul\":4553:4678   */\n    tag_158:\n        /* \"#utility.yul\":4593:4597   */\n      0x00\n        /* \"#utility.yul\":4621:4622   */\n      dup3\n        /* \"#utility.yul\":4618:4619   */\n      dup3\n        /* \"#utility.yul\":4615:4623   */\n      lt\n        /* \"#utility.yul\":4612:4646   */\n      iszero\n      tag_292\n      jumpi\n        /* \"#utility.yul\":4626:4644   */\n      tag_292\n      tag_238\n      jump\t// in\n    tag_292:\n      pop\n        /* \"#utility.yul\":4663:4672   */\n      sub\n      swap1\n        /* \"#utility.yul\":4553:4678   */\n      jump\t// out\n        /* \"#utility.yul\":5805:6022   */\n    tag_221:\n        /* \"#utility.yul\":5845:5846   */\n      0x00\n        /* \"#utility.yul\":5871:5872   */\n      dup3\n        /* \"#utility.yul\":5861:5993   */\n      tag_297\n      jumpi\n        /* \"#utility.yul\":5915:5925   */\n      0x4e487b71\n        /* \"#utility.yul\":5910:5913   */\n      0xe0\n        /* \"#utility.yul\":5906:5926   */\n      shl\n        /* \"#utility.yul\":5903:5904   */\n      0x00\n        /* \"#utility.yul\":5896:5927   */\n      mstore\n        /* \"#utility.yul\":5950:5954   */\n      0x12\n        /* \"#utility.yul\":5947:5948   */\n      0x04\n        /* \"#utility.yul\":5940:5955   */\n      mstore\n        /* \"#utility.yul\":5978:5982   */\n      0x24\n        /* \"#utility.yul\":5975:5976   */\n      0x00\n        /* \"#utility.yul\":5968:5983   */\n      revert\n        /* \"#utility.yul\":5861:5993   */\n    tag_297:\n      pop\n        /* \"#utility.yul\":6007:6016   */\n      div\n      swap1\n        /* \"#utility.yul\":5805:6022   */\n      jump\t// out\n\n    auxdata: 0xa26469706673582212208726919c2e14279d21edaf713a551deabdfb9ddfb9c7bde4e5ad499607d99d7b64736f6c63430008080033\n}\n",
				"bytecode": {
					"linkReferences": {},
					"object": "60806040526000805460ff60a01b1916600960a11b17905561271060035534801561002957600080fd5b5061003333610038565b610088565b600080546001600160a01b038381166001600160a01b0319831681178455604051919092169283917f8be0079c531659141344cd1fd0a4f28419497f9722a3daafe3b4186f6b6457e09190a35050565b610d56806100976000396000f3fe608060405234801561001057600080fd5b50600436106100cf5760003560e01c806370a082311161008c578063981b24d011610066578063981b24d01461019f5780639dc29fac146101b2578063ade4dcfb146101c5578063f2fde38b146101d857600080fd5b806370a0823114610167578063715018a61461017a5780638da5cb5b1461018457600080fd5b806307ea5477146100d457806318160ddd146100fc578063313ce5671461011257806340c10f19146101385780634104f64f1461014b5780634ee2cd7e14610154575b600080fd5b6100e76100e2366004610b63565b6101eb565b60405190151581526020015b60405180910390f35b6101046103c0565b6040519081526020016100f3565b60005461012690600160a01b900460ff1681565b60405160ff90911681526020016100f3565b6100e7610146366004610c23565b6103d0565b61010460035481565b610104610162366004610c23565b6104a2565b610104610175366004610c4d565b610538565b610182610544565b005b6000546040516001600160a01b0390911681526020016100f3565b6101046101ad366004610c6f565b610558565b6100e76101c0366004610c23565b6105ae565b6101826101d3366004610c6f565b610662565b6101826101e6366004610c4d565b6106c4565b60006101f561073d565b60005b83518110156103b457600061020b6103c0565b90508084838151811061022057610220610c88565b6020026020010151826102339190610cb4565b101561023e57600080fd5b600061026286848151811061025557610255610c88565b6020026020010151610538565b90508085848151811061027757610277610c88565b60200260200101518261028a9190610cb4565b101561029557600080fd5b6102c460028685815181106102ac576102ac610c88565b6020026020010151846102bf9190610cb4565b610797565b61032a600160008886815181106102dd576102dd610c88565b60200260200101516001600160a01b03166001600160a01b0316815260200190815260200160002086858151811061031757610317610c88565b6020026020010151836102bf9190610cb4565b85838151811061033c5761033c610c88565b60200260200101516001600160a01b03167f0f6798a560793a54c3bcfe86a93cde1e73087d944c0ea20544137d412139688586858151811061038057610380610c88565b602002602001015160405161039791815260200190565b60405180910390a2505080806103ac90610ccc565b9150506101f8565b50600190505b92915050565b60006103cb43610558565b905090565b60006103da61073d565b60006103e46103c0565b9050806103f18482610cb4565b10156103fc57600080fd5b600061040785610538565b9050806104148582610cb4565b101561041f57600080fd5b61042e60026102bf8685610cb4565b6001600160a01b0385166000908152600160205260409020610454906102bf8684610cb4565b846001600160a01b03167f0f6798a560793a54c3bcfe86a93cde1e73087d944c0ea20544137d41213968858560405161048f91815260200190565b60405180910390a2506001949350505050565b6001600160a01b038216600090815260016020526040812054158061050257506001600160a01b038316600090815260016020526040812080548492906104eb576104eb610c88565b6000918252602090912001546001600160801b0316115b1561050f575060006103ba565b6001600160a01b0383166000908152600160205260409020610531908361089d565b90506103ba565b60006103ba82436104a2565b61054c61073d565b6105566000610a26565b565b6002546000901580610591575081600260008154811061057a5761057a610c88565b6000918252602090912001546001600160801b0316115b1561059e57506000919050565b6103ba60028361089d565b919050565b60006105b861073d565b60006105c26103c0565b90508260006105d086610538565b9050818110156105de578091505b6105ed60026102bf8486610ce7565b6001600160a01b0386166000908152600160205260409020610613906102bf8484610ce7565b856001600160a01b03167fcc16f5dbb4873280815c1ee09dbd06736cffcc184412cf7a71a0fdb75d397ca58360405161064e91815260200190565b60405180910390a250600195945050505050565b61066a61073d565b600a81116106bf5760405162461bcd60e51b815260206004820152601960248201527f6e657720696e74657276616c206d757374206265203e2031300000000000000060448201526064015b60405180910390fd5b600355565b6106cc61073d565b6001600160a01b0381166107315760405162461bcd60e51b815260206004820152602660248201527f4f776e61626c653a206e6577206f776e657220697320746865207a65726f206160448201526564647265737360d01b60648201526084016106b6565b61073a81610a26565b50565b6000546001600160a01b031633146105565760405162461bcd60e51b815260206004820181905260248201527f4f776e61626c653a2063616c6c6572206973206e6f7420746865206f776e657260448201526064016106b6565b80816001600160801b0316146107ac57600080fd5b8154158061080557506003544311801561080557506003546107ce9043610ce7565b825483906107de90600190610ce7565b815481106107ee576107ee610c88565b6000918252602090912001546001600160801b0316105b1561085257604080518082019091526001600160801b0343811682529182166020808301918252845460018101865560009586529420915190518316600160801b02921691909117910155565b8154600090839061086590600190610ce7565b8154811061087557610875610c88565b600091825260209091200180546001600160801b03808516600160801b029116179055505050565b81546000906108ae575060006103ba565b825483906108be90600190610ce7565b815481106108ce576108ce610c88565b6000918252602090912001546001600160801b0316821061092c57825483906108f990600190610ce7565b8154811061090957610909610c88565b600091825260209091200154600160801b90046001600160801b031690506103ba565b8260008154811061093f5761093f610c88565b6000918252602090912001546001600160801b0316821015610963575060006103ba565b8254600090819061097690600190610ce7565b90505b818111156109ef576000600261098f8484610cb4565b61099a906001610cb4565b6109a49190610cfe565b9050848682815481106109b9576109b9610c88565b6000918252602090912001546001600160801b0316116109db578092506109e9565b6109e6600182610ce7565b91505b50610979565b848281548110610a0157610a01610c88565b600091825260209091200154600160801b90046001600160801b031695945050505050565b600080546001600160a01b038381166001600160a01b0319831681178455604051919092169283917f8be0079c531659141344cd1fd0a4f28419497f9722a3daafe3b4186f6b6457e09190a35050565b634e487b7160e01b600052604160045260246000fd5b604051601f8201601f1916810167ffffffffffffffff81118282101715610ab557610ab5610a76565b604052919050565b600067ffffffffffffffff821115610ad757610ad7610a76565b5060051b60200190565b80356001600160a01b03811681146105a957600080fd5b600082601f830112610b0957600080fd5b81356020610b1e610b1983610abd565b610a8c565b82815260059290921b84018101918181019086841115610b3d57600080fd5b8286015b84811015610b585780358352918301918301610b41565b509695505050505050565b60008060408385031215610b7657600080fd5b823567ffffffffffffffff80821115610b8e57600080fd5b818501915085601f830112610ba257600080fd5b81356020610bb2610b1983610abd565b82815260059290921b84018101918181019089841115610bd157600080fd5b948201945b83861015610bf657610be786610ae1565b82529482019490820190610bd6565b96505086013592505080821115610c0c57600080fd5b50610c1985828601610af8565b9150509250929050565b60008060408385031215610c3657600080fd5b610c3f83610ae1565b946020939093013593505050565b600060208284031215610c5f57600080fd5b610c6882610ae1565b9392505050565b600060208284031215610c8157600080fd5b5035919050565b634e487b7160e01b600052603260045260246000fd5b634e487b7160e01b600052601160045260246000fd5b60008219821115610cc757610cc7610c9e565b500190565b6000600019821415610ce057610ce0610c9e565b5060010190565b600082821015610cf957610cf9610c9e565b500390565b600082610d1b57634e487b7160e01b600052601260045260246000fd5b50049056fea26469706673582212208726919c2e14279d21edaf713a551deabdfb9ddfb9c7bde4e5ad499607d99d7b64736f6c63430008080033",
					"opcodes": "PUSH1 0x80 PUSH1 0x40 MSTORE PUSH1 0x0 DUP1 SLOAD PUSH1 0xFF PUSH1 0xA0 SHL NOT AND PUSH1 0x9 PUSH1 0xA1 SHL OR SWAP1 SSTORE PUSH2 0x2710 PUSH1 0x3 SSTORE CALLVALUE DUP1 ISZERO PUSH2 0x29 JUMPI PUSH1 0x0 DUP1 REVERT JUMPDEST POP PUSH2 0x33 CALLER PUSH2 0x38 JUMP JUMPDEST PUSH2 0x88 JUMP JUMPDEST PUSH1 0x0 DUP1 SLOAD PUSH1 0x1 PUSH1 0x1 PUSH1 0xA0 SHL SUB DUP4 DUP2 AND PUSH1 0x1 PUSH1 0x1 PUSH1 0xA0 SHL SUB NOT DUP4 AND DUP2 OR DUP5 SSTORE PUSH1 0x40 MLOAD SWAP2 SWAP1 SWAP3 AND SWAP3 DUP4 SWAP2 PUSH32 0x8BE0079C531659141344CD1FD0A4F28419497F9722A3DAAFE3B4186F6B6457E0 SWAP2 SWAP1 LOG3 POP POP JUMP JUMPDEST PUSH2 0xD56 DUP1 PUSH2 0x97 PUSH1 0x0 CODECOPY PUSH1 0x0 RETURN INVALID PUSH1 0x80 PUSH1 0x40 MSTORE CALLVALUE DUP1 ISZERO PUSH2 0x10 JUMPI PUSH1 0x0 DUP1 REVERT JUMPDEST POP PUSH1 0x4 CALLDATASIZE LT PUSH2 0xCF JUMPI PUSH1 0x0 CALLDATALOAD PUSH1 0xE0 SHR DUP1 PUSH4 0x70A08231 GT PUSH2 0x8C JUMPI DUP1 PUSH4 0x981B24D0 GT PUSH2 0x66 JUMPI DUP1 PUSH4 0x981B24D0 EQ PUSH2 0x19F JUMPI DUP1 PUSH4 0x9DC29FAC EQ PUSH2 0x1B2 JUMPI DUP1 PUSH4 0xADE4DCFB EQ PUSH2 0x1C5 JUMPI DUP1 PUSH4 0xF2FDE38B EQ PUSH2 0x1D8 JUMPI PUSH1 0x0 DUP1 REVERT JUMPDEST DUP1 PUSH4 0x70A08231 EQ PUSH2 0x167 JUMPI DUP1 PUSH4 0x715018A6 EQ PUSH2 0x17A JUMPI DUP1 PUSH4 0x8DA5CB5B EQ PUSH2 0x184 JUMPI PUSH1 0x0 DUP1 REVERT JUMPDEST DUP1 PUSH4 0x7EA5477 EQ PUSH2 0xD4 JUMPI DUP1 PUSH4 0x18160DDD EQ PUSH2 0xFC JUMPI DUP1 PUSH4 0x313CE567 EQ PUSH2 0x112 JUMPI DUP1 PUSH4 0x40C10F19 EQ PUSH2 0x138 JUMPI DUP1 PUSH4 0x4104F64F EQ PUSH2 0x14B JUMPI DUP1 PUSH4 0x4EE2CD7E EQ PUSH2 0x154 JUMPI JUMPDEST PUSH1 0x0 DUP1 REVERT JUMPDEST PUSH2 0xE7 PUSH2 0xE2 CALLDATASIZE PUSH1 0x4 PUSH2 0xB63 JUMP JUMPDEST PUSH2 0x1EB JUMP JUMPDEST PUSH1 0x40 MLOAD SWAP1 ISZERO ISZERO DUP2 MSTORE PUSH1 0x20 ADD JUMPDEST PUSH1 0x40 MLOAD DUP1 SWAP2 SUB SWAP1 RETURN JUMPDEST PUSH2 0x104 PUSH2 0x3C0 JUMP JUMPDEST PUSH1 0x40 MLOAD SWAP1 DUP2 MSTORE PUSH1 0x20 ADD PUSH2 0xF3 JUMP JUMPDEST PUSH1 0x0 SLOAD PUSH2 0x126 SWAP1 PUSH1 0x1 PUSH1 0xA0 SHL SWAP1 DIV PUSH1 0xFF AND DUP2 JUMP JUMPDEST PUSH1 0x40 MLOAD PUSH1 0xFF SWAP1 SWAP2 AND DUP2 MSTORE PUSH1 0x20 ADD PUSH2 0xF3 JUMP JUMPDEST PUSH2 0xE7 PUSH2 0x146 CALLDATASIZE PUSH1 0x4 PUSH2 0xC23 JUMP JUMPDEST PUSH2 0x3D0 JUMP JUMPDEST PUSH2 0x104 PUSH1 0x3 SLOAD DUP2 JUMP JUMPDEST PUSH2 0x104 PUSH2 0x162 CALLDATASIZE PUSH1 0x4 PUSH2 0xC23 JUMP JUMPDEST PUSH2 0x4A2 JUMP JUMPDEST PUSH2 0x104 PUSH2 0x175 CALLDATASIZE PUSH1 0x4 PUSH2 0xC4D JUMP JUMPDEST PUSH2 0x538 JUMP JUMPDEST PUSH2 0x182 PUSH2 0x544 JUMP JUMPDEST STOP JUMPDEST PUSH1 0x0 SLOAD PUSH1 0x40 MLOAD PUSH1 0x1 PUSH1 0x1 PUSH1 0xA0 SHL SUB SWAP1 SWAP2 AND DUP2 MSTORE PUSH1 0x20 ADD PUSH2 0xF3 JUMP JUMPDEST PUSH2 0x104 PUSH2 0x1AD CALLDATASIZE PUSH1 0x4 PUSH2 0xC6F JUMP JUMPDEST PUSH2 0x558 JUMP JUMPDEST PUSH2 0xE7 PUSH2 0x1C0 CALLDATASIZE PUSH1 0x4 PUSH2 0xC23 JUMP JUMPDEST PUSH2 0x5AE JUMP JUMPDEST PUSH2 0x182 PUSH2 0x1D3 CALLDATASIZE PUSH1 0x4 PUSH2 0xC6F JUMP JUMPDEST PUSH2 0x662 JUMP JUMPDEST PUSH2 0x182 PUSH2 0x1E6 CALLDATASIZE PUSH1 0x4 PUSH2 0xC4D JUMP JUMPDEST PUSH2 0x6C4 JUMP JUMPDEST PUSH1 0x0 PUSH2 0x1F5 PUSH2 0x73D JUMP JUMPDEST PUSH1 0x0 JUMPDEST DUP4 MLOAD DUP2 LT ISZERO PUSH2 0x3B4 JUMPI PUSH1 0x0 PUSH2 0x20B PUSH2 0x3C0 JUMP JUMPDEST SWAP1 POP DUP1 DUP5 DUP4 DUP2 MLOAD DUP2 LT PUSH2 0x220 JUMPI PUSH2 0x220 PUSH2 0xC88 JUMP JUMPDEST PUSH1 0x20 MUL PUSH1 0x20 ADD ADD MLOAD DUP3 PUSH2 0x233 SWAP2 SWAP1 PUSH2 0xCB4 JUMP JUMPDEST LT ISZERO PUSH2 0x23E JUMPI PUSH1 0x0 DUP1 REVERT JUMPDEST PUSH1 0x0 PUSH2 0x262 DUP7 DUP5 DUP2 MLOAD DUP2 LT PUSH2 0x255 JUMPI PUSH2 0x255 PUSH2 0xC88 JUMP JUMPDEST PUSH1 0x20 MUL PUSH1 0x20 ADD ADD MLOAD PUSH2 0x538 JUMP JUMPDEST SWAP1 POP DUP1 DUP6 DUP5 DUP2 MLOAD DUP2 LT PUSH2 0x277 JUMPI PUSH2 0x277 PUSH2 0xC88 JUMP JUMPDEST PUSH1 0x20 MUL PUSH1 0x20 ADD ADD MLOAD DUP3 PUSH2 0x28A SWAP2 SWAP1 PUSH2 0xCB4 JUMP JUMPDEST LT ISZERO PUSH2 0x295 JUMPI PUSH1 0x0 DUP1 REVERT JUMPDEST PUSH2 0x2C4 PUSH1 0x2 DUP7 DUP6 DUP2 MLOAD DUP2 LT PUSH2 0x2AC JUMPI PUSH2 0x2AC PUSH2 0xC88 JUMP JUMPDEST PUSH1 0x20 MUL PUSH1 0x20 ADD ADD MLOAD DUP5 PUSH2 0x2BF SWAP2 SWAP1 PUSH2 0xCB4 JUMP JUMPDEST PUSH2 0x797 JUMP JUMPDEST PUSH2 0x32A PUSH1 0x1 PUSH1 0x0 DUP9 DUP7 DUP2 MLOAD DUP2 LT PUSH2 0x2DD JUMPI PUSH2 0x2DD PUSH2 0xC88 JUMP JUMPDEST PUSH1 0x20 MUL PUSH1 0x20 ADD ADD MLOAD PUSH1 0x1 PUSH1 0x1 PUSH1 0xA0 SHL SUB AND PUSH1 0x1 PUSH1 0x1 PUSH1 0xA0 SHL SUB AND DUP2 MSTORE PUSH1 0x20 ADD SWAP1 DUP2 MSTORE PUSH1 0x20 ADD PUSH1 0x0 KECCAK256 DUP7 DUP6 DUP2 MLOAD DUP2 LT PUSH2 0x317 JUMPI PUSH2 0x317 PUSH2 0xC88 JUMP JUMPDEST PUSH1 0x20 MUL PUSH1 0x20 ADD ADD MLOAD DUP4 PUSH2 0x2BF SWAP2 SWAP1 PUSH2 0xCB4 JUMP JUMPDEST DUP6 DUP4 DUP2 MLOAD DUP2 LT PUSH2 0x33C JUMPI PUSH2 0x33C PUSH2 0xC88 JUMP JUMPDEST PUSH1 0x20 MUL PUSH1 0x20 ADD ADD MLOAD PUSH1 0x1 PUSH1 0x1 PUSH1 0xA0 SHL SUB AND PUSH32 0xF6798A560793A54C3BCFE86A93CDE1E73087D944C0EA20544137D4121396885 DUP7 DUP6 DUP2 MLOAD DUP2 LT PUSH2 0x380 JUMPI PUSH2 0x380 PUSH2 0xC88 JUMP JUMPDEST PUSH1 0x20 MUL PUSH1 0x20 ADD ADD MLOAD PUSH1 0x40 MLOAD PUSH2 0x397 SWAP2 DUP2 MSTORE PUSH1 0x20 ADD SWAP1 JUMP JUMPDEST PUSH1 0x40 MLOAD DUP1 SWAP2 SUB SWAP1 LOG2 POP POP DUP1 DUP1 PUSH2 0x3AC SWAP1 PUSH2 0xCCC JUMP JUMPDEST SWAP2 POP POP PUSH2 0x1F8 JUMP JUMPDEST POP PUSH1 0x1 SWAP1 POP JUMPDEST SWAP3 SWAP2 POP POP JUMP JUMPDEST PUSH1 0x0 PUSH2 0x3CB NUMBER PUSH2 0x558 JUMP JUMPDEST SWAP1 POP SWAP1 JUMP JUMPDEST PUSH1 0x0 PUSH2 0x3DA PUSH2 0x73D JUMP JUMPDEST PUSH1 0x0 PUSH2 0x3E4 PUSH2 0x3C0 JUMP JUMPDEST SWAP1 POP DUP1 PUSH2 0x3F1 DUP5 DUP3 PUSH2 0xCB4 JUMP JUMPDEST LT ISZERO PUSH2 0x3FC JUMPI PUSH1 0x0 DUP1 REVERT JUMPDEST PUSH1 0x0 PUSH2 0x407 DUP6 PUSH2 0x538 JUMP JUMPDEST SWAP1 POP DUP1 PUSH2 0x414 DUP6 DUP3 PUSH2 0xCB4 JUMP JUMPDEST LT ISZERO PUSH2 0x41F JUMPI PUSH1 0x0 DUP1 REVERT JUMPDEST PUSH2 0x42E PUSH1 0x2 PUSH2 0x2BF DUP7 DUP6 PUSH2 0xCB4 JUMP JUMPDEST PUSH1 0x1 PUSH1 0x1 PUSH1 0xA0 SHL SUB DUP6 AND PUSH1 0x0 SWAP1 DUP2 MSTORE PUSH1 0x1 PUSH1 0x20 MSTORE PUSH1 0x40 SWAP1 KECCAK256 PUSH2 0x454 SWAP1 PUSH2 0x2BF DUP7 DUP5 PUSH2 0xCB4 JUMP JUMPDEST DUP5 PUSH1 0x1 PUSH1 0x1 PUSH1 0xA0 SHL SUB AND PUSH32 0xF6798A560793A54C3BCFE86A93CDE1E73087D944C0EA20544137D4121396885 DUP6 PUSH1 0x40 MLOAD PUSH2 0x48F SWAP2 DUP2 MSTORE PUSH1 0x20 ADD SWAP1 JUMP JUMPDEST PUSH1 0x40 MLOAD DUP1 SWAP2 SUB SWAP1 LOG2 POP PUSH1 0x1 SWAP5 SWAP4 POP POP POP POP JUMP JUMPDEST PUSH1 0x1 PUSH1 0x1 PUSH1 0xA0 SHL SUB DUP3 AND PUSH1 0x0 SWAP1 DUP2 MSTORE PUSH1 0x1 PUSH1 0x20 MSTORE PUSH1 0x40 DUP2 KECCAK256 SLOAD ISZERO DUP1 PUSH2 0x502 JUMPI POP PUSH1 0x1 PUSH1 0x1 PUSH1 0xA0 SHL SUB DUP4 AND PUSH1 0x0 SWAP1 DUP2 MSTORE PUSH1 0x1 PUSH1 0x20 MSTORE PUSH1 0x40 DUP2 KECCAK256 DUP1 SLOAD DUP5 SWAP3 SWAP1 PUSH2 0x4EB JUMPI PUSH2 0x4EB PUSH2 0xC88 JUMP JUMPDEST PUSH1 0x0 SWAP2 DUP3 MSTORE PUSH1 0x20 SWAP1 SWAP2 KECCAK256 ADD SLOAD PUSH1 0x1 PUSH1 0x1 PUSH1 0x80 SHL SUB AND GT JUMPDEST ISZERO PUSH2 0x50F JUMPI POP PUSH1 0x0 PUSH2 0x3BA JUMP JUMPDEST PUSH1 0x1 PUSH1 0x1 PUSH1 0xA0 SHL SUB DUP4 AND PUSH1 0x0 SWAP1 DUP2 MSTORE PUSH1 0x1 PUSH1 0x20 MSTORE PUSH1 0x40 SWAP1 KECCAK256 PUSH2 0x531 SWAP1 DUP4 PUSH2 0x89D JUMP JUMPDEST SWAP1 POP PUSH2 0x3BA JUMP JUMPDEST PUSH1 0x0 PUSH2 0x3BA DUP3 NUMBER PUSH2 0x4A2 JUMP JUMPDEST PUSH2 0x54C PUSH2 0x73D JUMP JUMPDEST PUSH2 0x556 PUSH1 0x0 PUSH2 0xA26 JUMP JUMPDEST JUMP JUMPDEST PUSH1 0x2 SLOAD PUSH1 0x0 SWAP1 ISZERO DUP1 PUSH2 0x591 JUMPI POP DUP2 PUSH1 0x2 PUSH1 0x0 DUP2 SLOAD DUP2 LT PUSH2 0x57A JUMPI PUSH2 0x57A PUSH2 0xC88 JUMP JUMPDEST PUSH1 0x0 SWAP2 DUP3 MSTORE PUSH1 0x20 SWAP1 SWAP2 KECCAK256 ADD SLOAD PUSH1 0x1 PUSH1 0x1 PUSH1 0x80 SHL SUB AND GT JUMPDEST ISZERO PUSH2 0x59E JUMPI POP PUSH1 0x0 SWAP2 SWAP1 POP JUMP JUMPDEST PUSH2 0x3BA PUSH1 0x2 DUP4 PUSH2 0x89D JUMP JUMPDEST SWAP2 SWAP1 POP JUMP JUMPDEST PUSH1 0x0 PUSH2 0x5B8 PUSH2 0x73D JUMP JUMPDEST PUSH1 0x0 PUSH2 0x5C2 PUSH2 0x3C0 JUMP JUMPDEST SWAP1 POP DUP3 PUSH1 0x0 PUSH2 0x5D0 DUP7 PUSH2 0x538 JUMP JUMPDEST SWAP1 POP DUP2 DUP2 LT ISZERO PUSH2 0x5DE JUMPI DUP1 SWAP2 POP JUMPDEST PUSH2 0x5ED PUSH1 0x2 PUSH2 0x2BF DUP5 DUP7 PUSH2 0xCE7 JUMP JUMPDEST PUSH1 0x1 PUSH1 0x1 PUSH1 0xA0 SHL SUB DUP7 AND PUSH1 0x0 SWAP1 DUP2 MSTORE PUSH1 0x1 PUSH1 0x20 MSTORE PUSH1 0x40 SWAP1 KECCAK256 PUSH2 0x613 SWAP1 PUSH2 0x2BF DUP5 DUP5 PUSH2 0xCE7 JUMP JUMPDEST DUP6 PUSH1 0x1 PUSH1 0x1 PUSH1 0xA0 SHL SUB AND PUSH32 0xCC16F5DBB4873280815C1EE09DBD06736CFFCC184412CF7A71A0FDB75D397CA5 DUP4 PUSH1 0x40 MLOAD PUSH2 0x64E SWAP2 DUP2 MSTORE PUSH1 0x20 ADD SWAP1 JUMP JUMPDEST PUSH1 0x40 MLOAD DUP1 SWAP2 SUB SWAP1 LOG2 POP PUSH1 0x1 SWAP6 SWAP5 POP POP POP POP POP JUMP JUMPDEST PUSH2 0x66A PUSH2 0x73D JUMP JUMPDEST PUSH1 0xA DUP2 GT PUSH2 0x6BF JUMPI PUSH1 0x40 MLOAD PUSH3 0x461BCD PUSH1 0xE5 SHL DUP2 MSTORE PUSH1 0x20 PUSH1 0x4 DUP3 ADD MSTORE PUSH1 0x19 PUSH1 0x24 DUP3 ADD MSTORE PUSH32 0x6E657720696E74657276616C206D757374206265203E20313000000000000000 PUSH1 0x44 DUP3 ADD MSTORE PUSH1 0x64 ADD JUMPDEST PUSH1 0x40 MLOAD DUP1 SWAP2 SUB SWAP1 REVERT JUMPDEST PUSH1 0x3 SSTORE JUMP JUMPDEST PUSH2 0x6CC PUSH2 0x73D JUMP JUMPDEST PUSH1 0x1 PUSH1 0x1 PUSH1 0xA0 SHL SUB DUP2 AND PUSH2 0x731 JUMPI PUSH1 0x40 MLOAD PUSH3 0x461BCD PUSH1 0xE5 SHL DUP2 MSTORE PUSH1 0x20 PUSH1 0x4 DUP3 ADD MSTORE PUSH1 0x26 PUSH1 0x24 DUP3 ADD MSTORE PUSH32 0x4F776E61626C653A206E6577206F776E657220697320746865207A65726F2061 PUSH1 0x44 DUP3 ADD MSTORE PUSH6 0x646472657373 PUSH1 0xD0 SHL PUSH1 0x64 DUP3 ADD MSTORE PUSH1 0x84 ADD PUSH2 0x6B6 JUMP JUMPDEST PUSH2 0x73A DUP2 PUSH2 0xA26 JUMP JUMPDEST POP JUMP JUMPDEST PUSH1 0x0 SLOAD PUSH1 0x1 PUSH1 0x1 PUSH1 0xA0 SHL SUB AND CALLER EQ PUSH2 0x556 JUMPI PUSH1 0x40 MLOAD PUSH3 0x461BCD PUSH1 0xE5 SHL DUP2 MSTORE PUSH1 0x20 PUSH1 0x4 DUP3 ADD DUP2 SWAP1 MSTORE PUSH1 0x24 DUP3 ADD MSTORE PUSH32 0x4F776E61626C653A2063616C6C6572206973206E6F7420746865206F776E6572 PUSH1 0x44 DUP3 ADD MSTORE PUSH1 0x64 ADD PUSH2 0x6B6 JUMP JUMPDEST DUP1 DUP2 PUSH1 0x1 PUSH1 0x1 PUSH1 0x80 SHL SUB AND EQ PUSH2 0x7AC JUMPI PUSH1 0x0 DUP1 REVERT JUMPDEST DUP2 SLOAD ISZERO DUP1 PUSH2 0x805 JUMPI POP PUSH1 0x3 SLOAD NUMBER GT DUP1 ISZERO PUSH2 0x805 JUMPI POP PUSH1 0x3 SLOAD PUSH2 0x7CE SWAP1 NUMBER PUSH2 0xCE7 JUMP JUMPDEST DUP3 SLOAD DUP4 SWAP1 PUSH2 0x7DE SWAP1 PUSH1 0x1 SWAP1 PUSH2 0xCE7 JUMP JUMPDEST DUP2 SLOAD DUP2 LT PUSH2 0x7EE JUMPI PUSH2 0x7EE PUSH2 0xC88 JUMP JUMPDEST PUSH1 0x0 SWAP2 DUP3 MSTORE PUSH1 0x20 SWAP1 SWAP2 KECCAK256 ADD SLOAD PUSH1 0x1 PUSH1 0x1 PUSH1 0x80 SHL SUB AND LT JUMPDEST ISZERO PUSH2 0x852 JUMPI PUSH1 0x40 DUP1 MLOAD DUP1 DUP3 ADD SWAP1 SWAP2 MSTORE PUSH1 0x1 PUSH1 0x1 PUSH1 0x80 SHL SUB NUMBER DUP2 AND DUP3 MSTORE SWAP2 DUP3 AND PUSH1 0x20 DUP1 DUP4 ADD SWAP2 DUP3 MSTORE DUP5 SLOAD PUSH1 0x1 DUP2 ADD DUP7 SSTORE PUSH1 0x0 SWAP6 DUP7 MSTORE SWAP5 KECCAK256 SWAP2 MLOAD SWAP1 MLOAD DUP4 AND PUSH1 0x1 PUSH1 0x80 SHL MUL SWAP3 AND SWAP2 SWAP1 SWAP2 OR SWAP2 ADD SSTORE JUMP JUMPDEST DUP2 SLOAD PUSH1 0x0 SWAP1 DUP4 SWAP1 PUSH2 0x865 SWAP1 PUSH1 0x1 SWAP1 PUSH2 0xCE7 JUMP JUMPDEST DUP2 SLOAD DUP2 LT PUSH2 0x875 JUMPI PUSH2 0x875 PUSH2 0xC88 JUMP JUMPDEST PUSH1 0x0 SWAP2 DUP3 MSTORE PUSH1 0x20 SWAP1 SWAP2 KECCAK256 ADD DUP1 SLOAD PUSH1 0x1 PUSH1 0x1 PUSH1 0x80 SHL SUB DUP1 DUP6 AND PUSH1 0x1 PUSH1 0x80 SHL MUL SWAP2 AND OR SWAP1 SSTORE POP POP POP JUMP JUMPDEST DUP2 SLOAD PUSH1 0x0 SWAP1 PUSH2 0x8AE JUMPI POP PUSH1 0x0 PUSH2 0x3BA JUMP JUMPDEST DUP3 SLOAD DUP4 SWAP1 PUSH2 0x8BE SWAP1 PUSH1 0x1 SWAP1 PUSH2 0xCE7 JUMP JUMPDEST DUP2 SLOAD DUP2 LT PUSH2 0x8CE JUMPI PUSH2 0x8CE PUSH2 0xC88 JUMP JUMPDEST PUSH1 0x0 SWAP2 DUP3 MSTORE PUSH1 0x20 SWAP1 SWAP2 KECCAK256 ADD SLOAD PUSH1 0x1 PUSH1 0x1 PUSH1 0x80 SHL SUB AND DUP3 LT PUSH2 0x92C JUMPI DUP3 SLOAD DUP4 SWAP1 PUSH2 0x8F9 SWAP1 PUSH1 0x1 SWAP1 PUSH2 0xCE7 JUMP JUMPDEST DUP2 SLOAD DUP2 LT PUSH2 0x909 JUMPI PUSH2 0x909 PUSH2 0xC88 JUMP JUMPDEST PUSH1 0x0 SWAP2 DUP3 MSTORE PUSH1 0x20 SWAP1 SWAP2 KECCAK256 ADD SLOAD PUSH1 0x1 PUSH1 0x80 SHL SWAP1 DIV PUSH1 0x1 PUSH1 0x1 PUSH1 0x80 SHL SUB AND SWAP1 POP PUSH2 0x3BA JUMP JUMPDEST DUP3 PUSH1 0x0 DUP2 SLOAD DUP2 LT PUSH2 0x93F JUMPI PUSH2 0x93F PUSH2 0xC88 JUMP JUMPDEST PUSH1 0x0 SWAP2 DUP3 MSTORE PUSH1 0x20 SWAP1 SWAP2 KECCAK256 ADD SLOAD PUSH1 0x1 PUSH1 0x1 PUSH1 0x80 SHL SUB AND DUP3 LT ISZERO PUSH2 0x963 JUMPI POP PUSH1 0x0 PUSH2 0x3BA JUMP JUMPDEST DUP3 SLOAD PUSH1 0x0 SWAP1 DUP2 SWAP1 PUSH2 0x976 SWAP1 PUSH1 0x1 SWAP1 PUSH2 0xCE7 JUMP JUMPDEST SWAP1 POP JUMPDEST DUP2 DUP2 GT ISZERO PUSH2 0x9EF JUMPI PUSH1 0x0 PUSH1 0x2 PUSH2 0x98F DUP5 DUP5 PUSH2 0xCB4 JUMP JUMPDEST PUSH2 0x99A SWAP1 PUSH1 0x1 PUSH2 0xCB4 JUMP JUMPDEST PUSH2 0x9A4 SWAP2 SWAP1 PUSH2 0xCFE JUMP JUMPDEST SWAP1 POP DUP5 DUP7 DUP3 DUP2 SLOAD DUP2 LT PUSH2 0x9B9 JUMPI PUSH2 0x9B9 PUSH2 0xC88 JUMP JUMPDEST PUSH1 0x0 SWAP2 DUP3 MSTORE PUSH1 0x20 SWAP1 SWAP2 KECCAK256 ADD SLOAD PUSH1 0x1 PUSH1 0x1 PUSH1 0x80 SHL SUB AND GT PUSH2 0x9DB JUMPI DUP1 SWAP3 POP PUSH2 0x9E9 JUMP JUMPDEST PUSH2 0x9E6 PUSH1 0x1 DUP3 PUSH2 0xCE7 JUMP JUMPDEST SWAP2 POP JUMPDEST POP PUSH2 0x979 JUMP JUMPDEST DUP5 DUP3 DUP2 SLOAD DUP2 LT PUSH2 0xA01 JUMPI PUSH2 0xA01 PUSH2 0xC88 JUMP JUMPDEST PUSH1 0x0 SWAP2 DUP3 MSTORE PUSH1 0x20 SWAP1 SWAP2 KECCAK256 ADD SLOAD PUSH1 0x1 PUSH1 0x80 SHL SWAP1 DIV PUSH1 0x1 PUSH1 0x1 PUSH1 0x80 SHL SUB AND SWAP6 SWAP5 POP POP POP POP POP JUMP JUMPDEST PUSH1 0x0 DUP1 SLOAD PUSH1 0x1 PUSH1 0x1 PUSH1 0xA0 SHL SUB DUP4 DUP2 AND PUSH1 0x1 PUSH1 0x1 PUSH1 0xA0 SHL SUB NOT DUP4 AND DUP2 OR DUP5 SSTORE PUSH1 0x40 MLOAD SWAP2 SWAP1 SWAP3 AND SWAP3 DUP4 SWAP2 PUSH32 0x8BE0079C531659141344CD1FD0A4F28419497F9722A3DAAFE3B4186F6B6457E0 SWAP2 SWAP1 LOG3 POP POP JUMP JUMPDEST PUSH4 0x4E487B71 PUSH1 0xE0 SHL PUSH1 0x0 MSTORE PUSH1 0x41 PUSH1 0x4 MSTORE PUSH1 0x24 PUSH1 0x0 REVERT JUMPDEST PUSH1 0x40 MLOAD PUSH1 0x1F DUP3 ADD PUSH1 0x1F NOT AND DUP2 ADD PUSH8 0xFFFFFFFFFFFFFFFF DUP2 GT DUP3 DUP3 LT OR ISZERO PUSH2 0xAB5 JUMPI PUSH2 0xAB5 PUSH2 0xA76 JUMP JUMPDEST PUSH1 0x40 MSTORE SWAP2 SWAP1 POP JUMP JUMPDEST PUSH1 0x0 PUSH8 0xFFFFFFFFFFFFFFFF DUP3 GT ISZERO PUSH2 0xAD7 JUMPI PUSH2 0xAD7 PUSH2 0xA76 JUMP JUMPDEST POP PUSH1 0x5 SHL PUSH1 0x20 ADD SWAP1 JUMP JUMPDEST DUP1 CALLDATALOAD PUSH1 0x1 PUSH1 0x1 PUSH1 0xA0 SHL SUB DUP2 AND DUP2 EQ PUSH2 0x5A9 JUMPI PUSH1 0x0 DUP1 REVERT JUMPDEST PUSH1 0x0 DUP3 PUSH1 0x1F DUP4 ADD SLT PUSH2 0xB09 JUMPI PUSH1 0x0 DUP1 REVERT JUMPDEST DUP2 CALLDATALOAD PUSH1 0x20 PUSH2 0xB1E PUSH2 0xB19 DUP4 PUSH2 0xABD JUMP JUMPDEST PUSH2 0xA8C JUMP JUMPDEST DUP3 DUP2 MSTORE PUSH1 0x5 SWAP3 SWAP1 SWAP3 SHL DUP5 ADD DUP2 ADD SWAP2 DUP2 DUP2 ADD SWAP1 DUP7 DUP5 GT ISZERO PUSH2 0xB3D JUMPI PUSH1 0x0 DUP1 REVERT JUMPDEST DUP3 DUP7 ADD JUMPDEST DUP5 DUP2 LT ISZERO PUSH2 0xB58 JUMPI DUP1 CALLDATALOAD DUP4 MSTORE SWAP2 DUP4 ADD SWAP2 DUP4 ADD PUSH2 0xB41 JUMP JUMPDEST POP SWAP7 SWAP6 POP POP POP POP POP POP JUMP JUMPDEST PUSH1 0x0 DUP1 PUSH1 0x40 DUP4 DUP6 SUB SLT ISZERO PUSH2 0xB76 JUMPI PUSH1 0x0 DUP1 REVERT JUMPDEST DUP3 CALLDATALOAD PUSH8 0xFFFFFFFFFFFFFFFF DUP1 DUP3 GT ISZERO PUSH2 0xB8E JUMPI PUSH1 0x0 DUP1 REVERT JUMPDEST DUP2 DUP6 ADD SWAP2 POP DUP6 PUSH1 0x1F DUP4 ADD SLT PUSH2 0xBA2 JUMPI PUSH1 0x0 DUP1 REVERT JUMPDEST DUP2 CALLDATALOAD PUSH1 0x20 PUSH2 0xBB2 PUSH2 0xB19 DUP4 PUSH2 0xABD JUMP JUMPDEST DUP3 DUP2 MSTORE PUSH1 0x5 SWAP3 SWAP1 SWAP3 SHL DUP5 ADD DUP2 ADD SWAP2 DUP2 DUP2 ADD SWAP1 DUP10 DUP5 GT ISZERO PUSH2 0xBD1 JUMPI PUSH1 0x0 DUP1 REVERT JUMPDEST SWAP5 DUP3 ADD SWAP5 JUMPDEST DUP4 DUP7 LT ISZERO PUSH2 0xBF6 JUMPI PUSH2 0xBE7 DUP7 PUSH2 0xAE1 JUMP JUMPDEST DUP3 MSTORE SWAP5 DUP3 ADD SWAP5 SWAP1 DUP3 ADD SWAP1 PUSH2 0xBD6 JUMP JUMPDEST SWAP7 POP POP DUP7 ADD CALLDATALOAD SWAP3 POP POP DUP1 DUP3 GT ISZERO PUSH2 0xC0C JUMPI PUSH1 0x0 DUP1 REVERT JUMPDEST POP PUSH2 0xC19 DUP6 DUP3 DUP7 ADD PUSH2 0xAF8 JUMP JUMPDEST SWAP2 POP POP SWAP3 POP SWAP3 SWAP1 POP JUMP JUMPDEST PUSH1 0x0 DUP1 PUSH1 0x40 DUP4 DUP6 SUB SLT ISZERO PUSH2 0xC36 JUMPI PUSH1 0x0 DUP1 REVERT JUMPDEST PUSH2 0xC3F DUP4 PUSH2 0xAE1 JUMP JUMPDEST SWAP5 PUSH1 0x20 SWAP4 SWAP1 SWAP4 ADD CALLDATALOAD SWAP4 POP POP POP JUMP JUMPDEST PUSH1 0x0 PUSH1 0x20 DUP3 DUP5 SUB SLT ISZERO PUSH2 0xC5F JUMPI PUSH1 0x0 DUP1 REVERT JUMPDEST PUSH2 0xC68 DUP3 PUSH2 0xAE1 JUMP JUMPDEST SWAP4 SWAP3 POP POP POP JUMP JUMPDEST PUSH1 0x0 PUSH1 0x20 DUP3 DUP5 SUB SLT ISZERO PUSH2 0xC81 JUMPI PUSH1 0x0 DUP1 REVERT JUMPDEST POP CALLDATALOAD SWAP2 SWAP1 POP JUMP JUMPDEST PUSH4 0x4E487B71 PUSH1 0xE0 SHL PUSH1 0x0 MSTORE PUSH1 0x32 PUSH1 0x4 MSTORE PUSH1 0x24 PUSH1 0x0 REVERT JUMPDEST PUSH4 0x4E487B71 PUSH1 0xE0 SHL PUSH1 0x0 MSTORE PUSH1 0x11 PUSH1 0x4 MSTORE PUSH1 0x24 PUSH1 0x0 REVERT JUMPDEST PUSH1 0x0 DUP3 NOT DUP3 GT ISZERO PUSH2 0xCC7 JUMPI PUSH2 0xCC7 PUSH2 0xC9E JUMP JUMPDEST POP ADD SWAP1 JUMP JUMPDEST PUSH1 0x0 PUSH1 0x0 NOT DUP3 EQ ISZERO PUSH2 0xCE0 JUMPI PUSH2 0xCE0 PUSH2 0xC9E JUMP JUMPDEST POP PUSH1 0x1 ADD SWAP1 JUMP JUMPDEST PUSH1 0x0 DUP3 DUP3 LT ISZERO PUSH2 0xCF9 JUMPI PUSH2 0xCF9 PUSH2 0xC9E JUMP JUMPDEST POP SUB SWAP1 JUMP JUMPDEST PUSH1 0x0 DUP3 PUSH2 0xD1B JUMPI PUSH4 0x4E487B71 PUSH1 0xE0 SHL PUSH1 0x0 MSTORE PUSH1 0x12 PUSH1 0x4 MSTORE PUSH1 0x24 PUSH1 0x0 REVERT JUMPDEST POP DIV SWAP1 JUMP INVALID LOG2 PUSH5 0x6970667358 0x22 SLT KECCAK256 DUP8 0x26 SWAP2 SWAP13 0x2E EQ 0x27 SWAP14 0x21 0xED 0xAF PUSH18 0x3A551DEABDFB9DDFB9C7BDE4E5AD499607D9 SWAP14 PUSH28 0x64736F6C634300080800330000000000000000000000000000000000 "
				},
				"gasEstimates": {
					"creation": {
						"codeDepositCost": "682800",
						"executionCost": "72898",
						"totalCost": "755698"
					},
					"external": {
						"balanceOf(address)": "infinite",
						"balanceOfAt(address,uint256)": "infinite",
						"burn(address,uint256)": "infinite",
						"checkpoint_interval()": "2384",
						"decimals()": "2375",
						"mint(address,uint256)": "infinite",
						"mintMultiple(address[],uint256[])": "infinite",
						"owner()": "2368",
						"renounceOwnership()": "infinite",
						"totalSupply()": "infinite",
						"totalSupplyAt(uint256)": "infinite",
						"transferOwnership(address)": "28421",
						"updateCheckpointInterval(uint256)": "24577"
					},
					"internal": {
						"getValueAt(struct Reputation.Checkpoint storage ref[] storage pointer,uint256)": "infinite",
						"updateValueAtNow(struct Reputation.Checkpoint storage ref[] storage pointer,uint256)": "infinite"
					}
				},
				"methodIdentifiers": {
					"balanceOf(address)": "70a08231",
					"balanceOfAt(address,uint256)": "4ee2cd7e",
					"burn(address,uint256)": "9dc29fac",
					"checkpoint_interval()": "4104f64f",
					"decimals()": "313ce567",
					"mint(address,uint256)": "40c10f19",
					"mintMultiple(address[],uint256[])": "07ea5477",
					"owner()": "8da5cb5b",
					"renounceOwnership()": "715018a6",
					"totalSupply()": "18160ddd",
					"totalSupplyAt(uint256)": "981b24d0",
					"transferOwnership(address)": "f2fde38b",
					"updateCheckpointInterval(uint256)": "ade4dcfb"
				}
			},
			"storageLayout": {
				"storage": [
					{
						"astId": 7,
						"contract": "daostack/controller/Reputation.sol:Reputation",
						"label": "_owner",
						"offset": 0,
						"slot": "0",
						"type": "t_address"
					},
					{
						"astId": 143,
						"contract": "daostack/controller/Reputation.sol:Reputation",
						"label": "decimals",
						"offset": 20,
						"slot": "0",
						"type": "t_uint8"
					},
					{
						"astId": 166,
						"contract": "daostack/controller/Reputation.sol:Reputation",
						"label": "balances",
						"offset": 0,
						"slot": "1",
						"type": "t_mapping(t_address,t_array(t_struct(Checkpoint)160_storage)dyn_storage)"
					},
					{
						"astId": 170,
						"contract": "daostack/controller/Reputation.sol:Reputation",
						"label": "totalSupplyHistory",
						"offset": 0,
						"slot": "2",
						"type": "t_array(t_struct(Checkpoint)160_storage)dyn_storage"
					},
					{
						"astId": 173,
						"contract": "daostack/controller/Reputation.sol:Reputation",
						"label": "checkpoint_interval",
						"offset": 0,
						"slot": "3",
						"type": "t_uint256"
					}
				],
				"types": {
					"t_address": {
						"encoding": "inplace",
						"label": "address",
						"numberOfBytes": "20"
					},
					"t_array(t_struct(Checkpoint)160_storage)dyn_storage": {
						"base": "t_struct(Checkpoint)160_storage",
						"encoding": "dynamic_array",
						"label": "struct Reputation.Checkpoint[]",
						"numberOfBytes": "32"
					},
					"t_mapping(t_address,t_array(t_struct(Checkpoint)160_storage)dyn_storage)": {
						"encoding": "mapping",
						"key": "t_address",
						"label": "mapping(address => struct Reputation.Checkpoint[])",
						"numberOfBytes": "32",
						"value": "t_array(t_struct(Checkpoint)160_storage)dyn_storage"
					},
					"t_struct(Checkpoint)160_storage": {
						"encoding": "inplace",
						"label": "struct Reputation.Checkpoint",
						"members": [
							{
								"astId": 157,
								"contract": "daostack/controller/Reputation.sol:Reputation",
								"label": "fromBlock",
								"offset": 0,
								"slot": "0",
								"type": "t_uint128"
							},
							{
								"astId": 159,
								"contract": "daostack/controller/Reputation.sol:Reputation",
								"label": "value",
								"offset": 16,
								"slot": "0",
								"type": "t_uint128"
							}
						],
						"numberOfBytes": "32"
					},
					"t_uint128": {
						"encoding": "inplace",
						"label": "uint128",
						"numberOfBytes": "16"
					},
					"t_uint256": {
						"encoding": "inplace",
						"label": "uint256",
						"numberOfBytes": "32"
					},
					"t_uint8": {
						"encoding": "inplace",
						"label": "uint8",
						"numberOfBytes": "1"
					}
				}
			},
			"userdoc": {
				"kind": "user",
				"methods": {},
				"version": 1
			}
		}
	}
}