{
  "_format": "hh-sol-artifact-1",
  "contractName": "DataFormatting",
  "sourceName": "contracts/worksystems/DataFormatting.sol",
  "abi": [
    {
      "inputs": [
        {
          "internalType": "address",
          "name": "EXDT_token",
          "type": "address"
        }
      ],
      "stateMutability": "nonpayable",
      "type": "constructor"
    },
    {
      "anonymous": false,
      "inputs": [
        {
          "indexed": false,
          "internalType": "bytes",
          "name": "bytesFailure",
          "type": "bytes"
        }
      ],
      "name": "BytesFailure",
      "type": "event"
    },
    {
      "anonymous": false,
      "inputs": [
        {
          "indexed": true,
          "internalType": "address",
          "name": "previousOwner",
          "type": "address"
        },
        {
          "indexed": true,
          "internalType": "address",
          "name": "newOwner",
          "type": "address"
        }
      ],
      "name": "OwnershipTransferred",
      "type": "event"
    },
    {
      "anonymous": false,
      "inputs": [
        {
          "indexed": false,
          "internalType": "string",
          "name": "hash",
          "type": "string"
        },
        {
          "indexed": true,
          "internalType": "address",
          "name": "creator",
          "type": "address"
        }
      ],
      "name": "_FormatAccepted",
      "type": "event"
    },
    {
      "anonymous": false,
      "inputs": [
        {
          "indexed": true,
          "internalType": "uint256",
          "name": "DataID",
          "type": "uint256"
        },
        {
          "indexed": false,
          "internalType": "uint256",
          "name": "numTokens",
          "type": "uint256"
        },
        {
          "indexed": true,
          "internalType": "address",
          "name": "voter",
          "type": "address"
        }
      ],
      "name": "_FormatCheckCommitted",
      "type": "event"
    },
    {
      "anonymous": false,
      "inputs": [
        {
          "indexed": true,
          "internalType": "uint256",
          "name": "DataID",
          "type": "uint256"
        },
        {
          "indexed": false,
          "internalType": "uint256",
          "name": "numTokens",
          "type": "uint256"
        },
        {
          "indexed": false,
          "internalType": "uint256",
          "name": "votesFor",
          "type": "uint256"
        },
        {
          "indexed": false,
          "internalType": "uint256",
          "name": "votesAgainst",
          "type": "uint256"
        },
        {
          "indexed": true,
          "internalType": "uint256",
          "name": "choice",
          "type": "uint256"
        },
        {
          "indexed": true,
          "internalType": "address",
          "name": "voter",
          "type": "address"
        }
      ],
      "name": "_FormatCheckRevealed",
      "type": "event"
    },
    {
      "anonymous": false,
      "inputs": [
        {
          "indexed": true,
          "internalType": "uint256",
          "name": "DataID",
          "type": "uint256"
        },
        {
          "indexed": false,
          "internalType": "string",
          "name": "file_hash",
          "type": "string"
        },
        {
          "indexed": false,
          "internalType": "address",
          "name": "sender",
          "type": "address"
        }
      ],
      "name": "_FormatSubmitted",
      "type": "event"
    },
    {
      "anonymous": false,
      "inputs": [
        {
          "indexed": true,
          "internalType": "uint256",
          "name": "epochNumber",
          "type": "uint256"
        }
      ],
      "name": "_NewEpoch",
      "type": "event"
    },
    {
      "anonymous": false,
      "inputs": [
        {
          "indexed": true,
          "internalType": "uint256",
          "name": "DataID",
          "type": "uint256"
        },
        {
          "indexed": true,
          "internalType": "address",
          "name": "voter",
          "type": "address"
        }
      ],
      "name": "_TokensRescued",
      "type": "event"
    },
    {
      "anonymous": false,
      "inputs": [
        {
          "indexed": false,
          "internalType": "uint256",
          "name": "numTokens",
          "type": "uint256"
        },
        {
          "indexed": true,
          "internalType": "address",
          "name": "voter",
          "type": "address"
        }
      ],
      "name": "_VotingRightsGranted",
      "type": "event"
    },
    {
      "anonymous": false,
      "inputs": [
        {
          "indexed": false,
          "internalType": "uint256",
          "name": "numTokens",
          "type": "uint256"
        },
        {
          "indexed": true,
          "internalType": "address",
          "name": "voter",
          "type": "address"
        }
      ],
      "name": "_VotingRightsWithdrawn",
      "type": "event"
    },
    {
      "anonymous": false,
      "inputs": [
        {
          "indexed": true,
          "internalType": "uint256",
          "name": "batchID",
          "type": "uint256"
        },
        {
          "indexed": false,
          "internalType": "address",
          "name": "worker",
          "type": "address"
        }
      ],
      "name": "_WorkAllocated",
      "type": "event"
    },
    {
      "anonymous": false,
      "inputs": [
        {
          "indexed": true,
          "internalType": "address",
          "name": "worker",
          "type": "address"
        },
        {
          "indexed": false,
          "internalType": "uint256",
          "name": "timestamp",
          "type": "uint256"
        }
      ],
      "name": "_WorkerRegistered",
      "type": "event"
    },
    {
      "anonymous": false,
      "inputs": [
        {
          "indexed": true,
          "internalType": "address",
          "name": "worker",
          "type": "address"
        },
        {
          "indexed": false,
          "internalType": "uint256",
          "name": "timestamp",
          "type": "uint256"
        }
      ],
      "name": "_WorkerUnregistered",
      "type": "event"
    },
    {
      "inputs": [],
      "name": "AddressManager",
      "outputs": [
        {
          "internalType": "contract IAddressManager",
          "name": "",
          "type": "address"
        }
      ],
      "stateMutability": "view",
      "type": "function"
    },
    {
      "inputs": [],
      "name": "AllTxsCounter",
      "outputs": [
        {
          "internalType": "uint256",
          "name": "",
          "type": "uint256"
        }
      ],
      "stateMutability": "view",
      "type": "function"
    },
    {
      "inputs": [],
      "name": "AllocateWork",
      "outputs": [],
      "stateMutability": "nonpayable",
      "type": "function"
    },
    {
      "inputs": [],
      "name": "AllocatedBatchCursor",
      "outputs": [
        {
          "internalType": "uint256",
          "name": "",
          "type": "uint256"
        }
      ],
      "stateMutability": "view",
      "type": "function"
    },
    {
      "inputs": [],
      "name": "AmIRegistered",
      "outputs": [
        {
          "internalType": "bool",
          "name": "passed",
          "type": "bool"
        }
      ],
      "stateMutability": "view",
      "type": "function"
    },
    {
      "inputs": [
        {
          "internalType": "string",
          "name": "_a",
          "type": "string"
        },
        {
          "internalType": "string",
          "name": "_b",
          "type": "string"
        }
      ],
      "name": "AreStringsEqual",
      "outputs": [
        {
          "internalType": "bool",
          "name": "",
          "type": "bool"
        }
      ],
      "stateMutability": "pure",
      "type": "function"
    },
    {
      "inputs": [],
      "name": "BatchCheckingCursor",
      "outputs": [
        {
          "internalType": "uint256",
          "name": "",
          "type": "uint256"
        }
      ],
      "stateMutability": "view",
      "type": "function"
    },
    {
      "inputs": [],
      "name": "COMMIT_ROUND_DURATION",
      "outputs": [
        {
          "internalType": "uint256",
          "name": "",
          "type": "uint256"
        }
      ],
      "stateMutability": "view",
      "type": "function"
    },
    {
      "inputs": [],
      "name": "CONSENSUS_WORKER_SIZE",
      "outputs": [
        {
          "internalType": "uint256",
          "name": "",
          "type": "uint256"
        }
      ],
      "stateMutability": "view",
      "type": "function"
    },
    {
      "inputs": [
        {
          "internalType": "uint256",
          "name": "",
          "type": "uint256"
        }
      ],
      "name": "CollectedSpotBatchs",
      "outputs": [
        {
          "internalType": "bool",
          "name": "",
          "type": "bool"
        }
      ],
      "stateMutability": "view",
      "type": "function"
    },
    {
      "inputs": [],
      "name": "CurrentWorkEpoch",
      "outputs": [
        {
          "internalType": "uint256",
          "name": "",
          "type": "uint256"
        }
      ],
      "stateMutability": "view",
      "type": "function"
    },
    {
      "inputs": [],
      "name": "DATA_BATCH_SIZE",
      "outputs": [
        {
          "internalType": "uint256",
          "name": "",
          "type": "uint256"
        }
      ],
      "stateMutability": "view",
      "type": "function"
    },
    {
      "inputs": [
        {
          "internalType": "uint256",
          "name": "",
          "type": "uint256"
        }
      ],
      "name": "DataBatch",
      "outputs": [
        {
          "internalType": "uint256",
          "name": "start_idx",
          "type": "uint256"
        },
        {
          "internalType": "uint256",
          "name": "end_idx",
          "type": "uint256"
        },
        {
          "internalType": "uint256",
          "name": "counter",
          "type": "uint256"
        },
        {
          "internalType": "uint256",
          "name": "unrevealed_workers",
          "type": "uint256"
        },
        {
          "internalType": "bool",
          "name": "complete",
          "type": "bool"
        },
        {
          "internalType": "bool",
          "name": "checked",
          "type": "bool"
        },
        {
          "internalType": "bool",
          "name": "allocated_to_work",
          "type": "bool"
        },
        {
          "internalType": "uint256",
          "name": "commitEndDate",
          "type": "uint256"
        },
        {
          "internalType": "uint256",
          "name": "revealEndDate",
          "type": "uint256"
        },
        {
          "internalType": "uint256",
          "name": "votesFor",
          "type": "uint256"
        },
        {
          "internalType": "uint256",
          "name": "votesAgainst",
          "type": "uint256"
        },
        {
          "internalType": "string",
          "name": "batchIPFSfile",
          "type": "string"
        },
        {
          "internalType": "enum DataFormatting.DataStatus",
          "name": "status",
          "type": "uint8"
        }
      ],
      "stateMutability": "view",
      "type": "function"
    },
    {
      "inputs": [
        {
          "internalType": "uint256",
          "name": "_DataBatchId",
          "type": "uint256"
        }
      ],
      "name": "DataCommitEndDate",
      "outputs": [
        {
          "internalType": "uint256",
          "name": "commitEndDate",
          "type": "uint256"
        }
      ],
      "stateMutability": "view",
      "type": "function"
    },
    {
      "inputs": [
        {
          "internalType": "uint256",
          "name": "_DataBatchId",
          "type": "uint256"
        }
      ],
      "name": "DataEnded",
      "outputs": [
        {
          "internalType": "bool",
          "name": "ended",
          "type": "bool"
        }
      ],
      "stateMutability": "view",
      "type": "function"
    },
    {
      "inputs": [
        {
          "internalType": "uint256",
          "name": "_DataBatchId",
          "type": "uint256"
        }
      ],
      "name": "DataExists",
      "outputs": [
        {
          "internalType": "bool",
          "name": "exists",
          "type": "bool"
        }
      ],
      "stateMutability": "view",
      "type": "function"
    },
    {
      "inputs": [],
      "name": "DataNonce",
      "outputs": [
        {
          "internalType": "uint256",
          "name": "",
          "type": "uint256"
        }
      ],
      "stateMutability": "view",
      "type": "function"
    },
    {
      "inputs": [
        {
          "internalType": "uint256",
          "name": "_DataBatchId",
          "type": "uint256"
        }
      ],
      "name": "DataRevealEndDate",
      "outputs": [
        {
          "internalType": "uint256",
          "name": "revealEndDate",
          "type": "uint256"
        }
      ],
      "stateMutability": "view",
      "type": "function"
    },
    {
      "inputs": [
        {
          "internalType": "address",
          "name": "",
          "type": "address"
        }
      ],
      "name": "FormatStakedTokenBalance",
      "outputs": [
        {
          "internalType": "uint256",
          "name": "",
          "type": "uint256"
        }
      ],
      "stateMutability": "view",
      "type": "function"
    },
    {
      "inputs": [
        {
          "internalType": "uint256",
          "name": "",
          "type": "uint256"
        }
      ],
      "name": "FormatsMapping",
      "outputs": [
        {
          "internalType": "string",
          "name": "ipfs_hash",
          "type": "string"
        },
        {
          "internalType": "address",
          "name": "author",
          "type": "address"
        },
        {
          "internalType": "uint256",
          "name": "timestamp",
          "type": "uint256"
        },
        {
          "internalType": "enum DataFormatting.DataStatus",
          "name": "status",
          "type": "uint8"
        }
      ],
      "stateMutability": "view",
      "type": "function"
    },
    {
      "inputs": [
        {
          "internalType": "address",
          "name": "user_",
          "type": "address"
        }
      ],
      "name": "GetCurrentWork",
      "outputs": [
        {
          "internalType": "uint256",
          "name": "",
          "type": "uint256"
        }
      ],
      "stateMutability": "view",
      "type": "function"
    },
    {
      "inputs": [
        {
          "internalType": "address",
          "name": "user_",
          "type": "address"
        }
      ],
      "name": "IsNewWorkAvailable",
      "outputs": [
        {
          "internalType": "bool",
          "name": "",
          "type": "bool"
        }
      ],
      "stateMutability": "view",
      "type": "function"
    },
    {
      "inputs": [],
      "name": "LastBatchCounter",
      "outputs": [
        {
          "internalType": "uint256",
          "name": "",
          "type": "uint256"
        }
      ],
      "stateMutability": "view",
      "type": "function"
    },
    {
      "inputs": [],
      "name": "MIN_REP_Data",
      "outputs": [
        {
          "internalType": "uint256",
          "name": "",
          "type": "uint256"
        }
      ],
      "stateMutability": "view",
      "type": "function"
    },
    {
      "inputs": [],
      "name": "MIN_REP_REVEAL",
      "outputs": [
        {
          "internalType": "uint256",
          "name": "",
          "type": "uint256"
        }
      ],
      "stateMutability": "view",
      "type": "function"
    },
    {
      "inputs": [],
      "name": "MIN_REWARD_Data",
      "outputs": [
        {
          "internalType": "uint256",
          "name": "",
          "type": "uint256"
        }
      ],
      "stateMutability": "view",
      "type": "function"
    },
    {
      "inputs": [],
      "name": "MIN_STAKE",
      "outputs": [
        {
          "internalType": "uint256",
          "name": "",
          "type": "uint256"
        }
      ],
      "stateMutability": "view",
      "type": "function"
    },
    {
      "inputs": [
        {
          "internalType": "address",
          "name": "",
          "type": "address"
        },
        {
          "internalType": "uint256",
          "name": "",
          "type": "uint256"
        }
      ],
      "name": "MasterWorkers",
      "outputs": [
        {
          "internalType": "address",
          "name": "",
          "type": "address"
        }
      ],
      "stateMutability": "view",
      "type": "function"
    },
    {
      "inputs": [
        {
          "internalType": "uint256",
          "name": "CheckedBatchId",
          "type": "uint256"
        }
      ],
      "name": "Ping",
      "outputs": [
        {
          "internalType": "bool",
          "name": "",
          "type": "bool"
        }
      ],
      "stateMutability": "nonpayable",
      "type": "function"
    },
    {
      "inputs": [],
      "name": "REVEAL_ROUND_DURATION",
      "outputs": [
        {
          "internalType": "uint256",
          "name": "",
          "type": "uint256"
        }
      ],
      "stateMutability": "view",
      "type": "function"
    },
    {
      "inputs": [],
      "name": "RegisterWorker",
      "outputs": [],
      "stateMutability": "nonpayable",
      "type": "function"
    },
    {
      "inputs": [],
      "name": "RepManager",
      "outputs": [
        {
          "internalType": "contract IRepManager",
          "name": "",
          "type": "address"
        }
      ],
      "stateMutability": "view",
      "type": "function"
    },
    {
      "inputs": [],
      "name": "RewardManager",
      "outputs": [
        {
          "internalType": "contract IRewardManager",
          "name": "",
          "type": "address"
        }
      ],
      "stateMutability": "view",
      "type": "function"
    },
    {
      "inputs": [],
      "name": "SPOT_CHECK_VOTE_QUORUM",
      "outputs": [
        {
          "internalType": "uint256",
          "name": "",
          "type": "uint256"
        }
      ],
      "stateMutability": "view",
      "type": "function"
    },
    {
      "inputs": [],
      "name": "SpottingSystem",
      "outputs": [
        {
          "internalType": "contract ISpottingSystem",
          "name": "",
          "type": "address"
        }
      ],
      "stateMutability": "view",
      "type": "function"
    },
    {
      "inputs": [],
      "name": "StakeManager",
      "outputs": [
        {
          "internalType": "contract IStakeManager",
          "name": "",
          "type": "address"
        }
      ],
      "stateMutability": "view",
      "type": "function"
    },
    {
      "inputs": [],
      "name": "TriggerNextEpoch",
      "outputs": [],
      "stateMutability": "nonpayable",
      "type": "function"
    },
    {
      "inputs": [],
      "name": "UnregisterWorker",
      "outputs": [],
      "stateMutability": "nonpayable",
      "type": "function"
    },
    {
      "inputs": [
        {
          "internalType": "address",
          "name": "",
          "type": "address"
        },
        {
          "internalType": "uint256",
          "name": "",
          "type": "uint256"
        }
      ],
      "name": "UserChecksCommits",
      "outputs": [
        {
          "internalType": "bool",
          "name": "",
          "type": "bool"
        }
      ],
      "stateMutability": "view",
      "type": "function"
    },
    {
      "inputs": [
        {
          "internalType": "address",
          "name": "",
          "type": "address"
        },
        {
          "internalType": "uint256",
          "name": "",
          "type": "uint256"
        }
      ],
      "name": "UserChecksReveals",
      "outputs": [
        {
          "internalType": "bool",
          "name": "",
          "type": "bool"
        }
      ],
      "stateMutability": "view",
      "type": "function"
    },
    {
      "inputs": [
        {
          "internalType": "uint256",
          "name": "",
          "type": "uint256"
        },
        {
          "internalType": "address",
          "name": "",
          "type": "address"
        }
      ],
      "name": "UserNewFiles",
      "outputs": [
        {
          "internalType": "string",
          "name": "",
          "type": "string"
        }
      ],
      "stateMutability": "view",
      "type": "function"
    },
    {
      "inputs": [
        {
          "internalType": "uint256",
          "name": "",
          "type": "uint256"
        },
        {
          "internalType": "address",
          "name": "",
          "type": "address"
        }
      ],
      "name": "UserVotes",
      "outputs": [
        {
          "internalType": "uint256",
          "name": "",
          "type": "uint256"
        }
      ],
      "stateMutability": "view",
      "type": "function"
    },
    {
      "inputs": [
        {
          "internalType": "uint256",
          "name": "_DataBatchId",
          "type": "uint256"
        }
      ],
      "name": "ValidateDataBatch",
      "outputs": [],
      "stateMutability": "nonpayable",
      "type": "function"
    },
    {
      "inputs": [
        {
          "internalType": "uint256",
          "name": "",
          "type": "uint256"
        },
        {
          "internalType": "uint256",
          "name": "",
          "type": "uint256"
        }
      ],
      "name": "WorkersPerBatch",
      "outputs": [
        {
          "internalType": "address",
          "name": "",
          "type": "address"
        }
      ],
      "stateMutability": "view",
      "type": "function"
    },
    {
      "inputs": [
        {
          "internalType": "address",
          "name": "",
          "type": "address"
        }
      ],
      "name": "WorkersState",
      "outputs": [
        {
          "internalType": "address",
          "name": "worker_address",
          "type": "address"
        },
        {
          "internalType": "address",
          "name": "master_address",
          "type": "address"
        },
        {
          "internalType": "uint256",
          "name": "allocated_work_batch",
          "type": "uint256"
        },
        {
          "internalType": "bool",
          "name": "has_completed_work",
          "type": "bool"
        },
        {
          "internalType": "uint256",
          "name": "last_worked_round",
          "type": "uint256"
        },
        {
          "internalType": "uint256",
          "name": "last_interaction_date",
          "type": "uint256"
        },
        {
          "internalType": "string",
          "name": "extra",
          "type": "string"
        },
        {
          "internalType": "bool",
          "name": "registered",
          "type": "bool"
        },
        {
          "internalType": "uint256",
          "name": "registration_date",
          "type": "uint256"
        }
      ],
      "stateMutability": "view",
      "type": "function"
    },
    {
      "inputs": [
        {
          "internalType": "address",
          "name": "_user",
          "type": "address"
        },
        {
          "internalType": "uint256",
          "name": "_DataBatchId",
          "type": "uint256"
        }
      ],
      "name": "attrUUID",
      "outputs": [
        {
          "internalType": "bytes32",
          "name": "UUID",
          "type": "bytes32"
        }
      ],
      "stateMutability": "pure",
      "type": "function"
    },
    {
      "inputs": [
        {
          "internalType": "uint256",
          "name": "",
          "type": "uint256"
        }
      ],
      "name": "availableWorkers",
      "outputs": [
        {
          "internalType": "address",
          "name": "",
          "type": "address"
        }
      ],
      "stateMutability": "view",
      "type": "function"
    },
    {
      "inputs": [
        {
          "internalType": "uint256",
          "name": "",
          "type": "uint256"
        }
      ],
      "name": "busyWorkers",
      "outputs": [
        {
          "internalType": "address",
          "name": "",
          "type": "address"
        }
      ],
      "stateMutability": "view",
      "type": "function"
    },
    {
      "inputs": [
        {
          "internalType": "uint256",
          "name": "_DataBatchId",
          "type": "uint256"
        },
        {
          "internalType": "bytes32",
          "name": "_secretHash",
          "type": "bytes32"
        },
        {
          "internalType": "string",
          "name": "newIPFSHash",
          "type": "string"
        }
      ],
      "name": "commitFormatCheck",
      "outputs": [],
      "stateMutability": "nonpayable",
      "type": "function"
    },
    {
      "inputs": [
        {
          "internalType": "uint256",
          "name": "_DataBatchId",
          "type": "uint256"
        }
      ],
      "name": "commitPeriodActive",
      "outputs": [
        {
          "internalType": "bool",
          "name": "active",
          "type": "bool"
        }
      ],
      "stateMutability": "view",
      "type": "function"
    },
    {
      "inputs": [
        {
          "internalType": "address",
          "name": "_voter",
          "type": "address"
        },
        {
          "internalType": "uint256",
          "name": "_DataBatchId",
          "type": "uint256"
        }
      ],
      "name": "didCommit",
      "outputs": [
        {
          "internalType": "bool",
          "name": "committed",
          "type": "bool"
        }
      ],
      "stateMutability": "view",
      "type": "function"
    },
    {
      "inputs": [
        {
          "internalType": "address",
          "name": "_voter",
          "type": "address"
        },
        {
          "internalType": "uint256",
          "name": "_DataBatchId",
          "type": "uint256"
        }
      ],
      "name": "didReveal",
      "outputs": [
        {
          "internalType": "bool",
          "name": "revealed",
          "type": "bool"
        }
      ],
      "stateMutability": "view",
      "type": "function"
    },
    {
      "inputs": [
        {
          "internalType": "uint256",
          "name": "_k",
          "type": "uint256"
        },
        {
          "internalType": "uint256",
          "name": "N_range",
          "type": "uint256"
        }
      ],
      "name": "generateIntegers",
      "outputs": [
        {
          "internalType": "uint256[]",
          "name": "",
          "type": "uint256[]"
        }
      ],
      "stateMutability": "view",
      "type": "function"
    },
    {
      "inputs": [],
      "name": "getActiveWorkersCount",
      "outputs": [
        {
          "internalType": "uint256",
          "name": "numWorkers",
          "type": "uint256"
        }
      ],
      "stateMutability": "view",
      "type": "function"
    },
    {
      "inputs": [],
      "name": "getBlockTimestamp",
      "outputs": [
        {
          "internalType": "uint256",
          "name": "blocktimestamp",
          "type": "uint256"
        }
      ],
      "stateMutability": "view",
      "type": "function"
    },
    {
      "inputs": [
        {
          "internalType": "address",
          "name": "_voter",
          "type": "address"
        },
        {
          "internalType": "uint256",
          "name": "_DataBatchId",
          "type": "uint256"
        }
      ],
      "name": "getCommitHash",
      "outputs": [
        {
          "internalType": "bytes32",
          "name": "commitHash",
          "type": "bytes32"
        }
      ],
      "stateMutability": "view",
      "type": "function"
    },
    {
      "inputs": [],
      "name": "getCurrentWorkEpoch",
      "outputs": [
        {
          "internalType": "uint256",
          "name": "WorkEpoch",
          "type": "uint256"
        }
      ],
      "stateMutability": "view",
      "type": "function"
    },
    {
      "inputs": [
        {
          "internalType": "string",
          "name": "_hash",
          "type": "string"
        },
        {
          "internalType": "uint256",
          "name": "_salt",
          "type": "uint256"
        }
      ],
      "name": "getEncryptedStringHash",
      "outputs": [
        {
          "internalType": "bytes32",
          "name": "keccak256hash",
          "type": "bytes32"
        }
      ],
      "stateMutability": "pure",
      "type": "function"
    },
    {
      "inputs": [
        {
          "internalType": "uint256",
          "name": "_voteOption",
          "type": "uint256"
        },
        {
          "internalType": "uint256",
          "name": "_salt",
          "type": "uint256"
        }
      ],
      "name": "getEncryptedVoteHash",
      "outputs": [
        {
          "internalType": "bytes32",
          "name": "keccak256hash",
          "type": "bytes32"
        }
      ],
      "stateMutability": "pure",
      "type": "function"
    },
    {
      "inputs": [
        {
          "internalType": "uint256",
          "name": "a",
          "type": "uint256"
        },
        {
          "internalType": "uint256",
          "name": "b",
          "type": "uint256"
        }
      ],
      "name": "getHash",
      "outputs": [
        {
          "internalType": "bytes32",
          "name": "keccak256hash",
          "type": "bytes32"
        }
      ],
      "stateMutability": "pure",
      "type": "function"
    },
    {
      "inputs": [
        {
          "internalType": "uint256",
          "name": "_DataBatchId",
          "type": "uint256"
        }
      ],
      "name": "getIPFShashesForBatch",
      "outputs": [
        {
          "internalType": "string[]",
          "name": "",
          "type": "string[]"
        }
      ],
      "stateMutability": "view",
      "type": "function"
    },
    {
      "inputs": [
        {
          "internalType": "address",
          "name": "_voter",
          "type": "address"
        },
        {
          "internalType": "uint256",
          "name": "_numTokens",
          "type": "uint256"
        },
        {
          "internalType": "uint256",
          "name": "_DataBatchId",
          "type": "uint256"
        }
      ],
      "name": "getInsertPointForNumTokens",
      "outputs": [
        {
          "internalType": "uint256",
          "name": "prevNode",
          "type": "uint256"
        }
      ],
      "stateMutability": "view",
      "type": "function"
    },
    {
      "inputs": [],
      "name": "getLastBatchId",
      "outputs": [
        {
          "internalType": "uint256",
          "name": "LastBatchId",
          "type": "uint256"
        }
      ],
      "stateMutability": "view",
      "type": "function"
    },
    {
      "inputs": [],
      "name": "getLastCheckedBatchId",
      "outputs": [
        {
          "internalType": "uint256",
          "name": "LastCheckedBatchId",
          "type": "uint256"
        }
      ],
      "stateMutability": "view",
      "type": "function"
    },
    {
      "inputs": [],
      "name": "getLastDataId",
      "outputs": [
        {
          "internalType": "uint256",
          "name": "DataId",
          "type": "uint256"
        }
      ],
      "stateMutability": "view",
      "type": "function"
    },
    {
      "inputs": [
        {
          "internalType": "address",
          "name": "_voter",
          "type": "address"
        }
      ],
      "name": "getLastNode",
      "outputs": [
        {
          "internalType": "uint256",
          "name": "DataID",
          "type": "uint256"
        }
      ],
      "stateMutability": "view",
      "type": "function"
    },
    {
      "inputs": [
        {
          "internalType": "address",
          "name": "_voter",
          "type": "address"
        }
      ],
      "name": "getLockedTokens",
      "outputs": [
        {
          "internalType": "uint256",
          "name": "numTokens",
          "type": "uint256"
        }
      ],
      "stateMutability": "view",
      "type": "function"
    },
    {
      "inputs": [
        {
          "internalType": "address",
          "name": "_voter",
          "type": "address"
        },
        {
          "internalType": "uint256",
          "name": "_DataBatchId",
          "type": "uint256"
        },
        {
          "internalType": "uint256",
          "name": "_salt",
          "type": "uint256"
        }
      ],
      "name": "getNumPassingTokens",
      "outputs": [
        {
          "internalType": "uint256",
          "name": "correctFormatChecks",
          "type": "uint256"
        }
      ],
      "stateMutability": "view",
      "type": "function"
    },
    {
      "inputs": [
        {
          "internalType": "address",
          "name": "_voter",
          "type": "address"
        },
        {
          "internalType": "uint256",
          "name": "_DataBatchId",
          "type": "uint256"
        }
      ],
      "name": "getNumTokens",
      "outputs": [
        {
          "internalType": "uint256",
          "name": "numTokens",
          "type": "uint256"
        }
      ],
      "stateMutability": "view",
      "type": "function"
    },
    {
      "inputs": [],
      "name": "getRandom",
      "outputs": [
        {
          "internalType": "uint256",
          "name": "",
          "type": "uint256"
        }
      ],
      "stateMutability": "view",
      "type": "function"
    },
    {
      "inputs": [],
      "name": "getSeed",
      "outputs": [
        {
          "internalType": "bytes32",
          "name": "addr",
          "type": "bytes32"
        }
      ],
      "stateMutability": "view",
      "type": "function"
    },
    {
      "inputs": [
        {
          "internalType": "uint256",
          "name": "_DataBatchId",
          "type": "uint256"
        }
      ],
      "name": "getTotalNumberOfFormatChecks",
      "outputs": [
        {
          "internalType": "uint256",
          "name": "vc",
          "type": "uint256"
        }
      ],
      "stateMutability": "view",
      "type": "function"
    },
    {
      "inputs": [
        {
          "internalType": "uint256",
          "name": "_DataBatchId",
          "type": "uint256"
        }
      ],
      "name": "getTotalNumberOfTokensForWinningOption",
      "outputs": [
        {
          "internalType": "uint256",
          "name": "numTokens",
          "type": "uint256"
        }
      ],
      "stateMutability": "view",
      "type": "function"
    },
    {
      "inputs": [],
      "name": "getTxCounter",
      "outputs": [
        {
          "internalType": "uint256",
          "name": "Counter",
          "type": "uint256"
        }
      ],
      "stateMutability": "view",
      "type": "function"
    },
    {
      "inputs": [
        {
          "internalType": "uint256",
          "name": "_terminationDate",
          "type": "uint256"
        }
      ],
      "name": "isExpired",
      "outputs": [
        {
          "internalType": "bool",
          "name": "expired",
          "type": "bool"
        }
      ],
      "stateMutability": "view",
      "type": "function"
    },
    {
      "inputs": [
        {
          "internalType": "uint256",
          "name": "_DataBatchId",
          "type": "uint256"
        }
      ],
      "name": "isPassed",
      "outputs": [
        {
          "internalType": "bool",
          "name": "passed",
          "type": "bool"
        }
      ],
      "stateMutability": "view",
      "type": "function"
    },
    {
      "inputs": [
        {
          "internalType": "address",
          "name": "_worker",
          "type": "address"
        }
      ],
      "name": "isWorkerRegistered",
      "outputs": [
        {
          "internalType": "bool",
          "name": "passed",
          "type": "bool"
        }
      ],
      "stateMutability": "view",
      "type": "function"
    },
    {
      "inputs": [],
      "name": "owner",
      "outputs": [
        {
          "internalType": "address",
          "name": "",
          "type": "address"
        }
      ],
      "stateMutability": "view",
      "type": "function"
    },
    {
      "inputs": [
        {
          "internalType": "uint256",
          "name": "k",
          "type": "uint256"
        },
        {
          "internalType": "uint256",
          "name": "N",
          "type": "uint256"
        }
      ],
      "name": "random_selection",
      "outputs": [
        {
          "internalType": "uint256[]",
          "name": "",
          "type": "uint256[]"
        }
      ],
      "stateMutability": "view",
      "type": "function"
    },
    {
      "inputs": [],
      "name": "renounceOwnership",
      "outputs": [],
      "stateMutability": "nonpayable",
      "type": "function"
    },
    {
      "inputs": [
        {
          "internalType": "uint256",
          "name": "_numTokens",
          "type": "uint256"
        }
      ],
      "name": "requestVotingRights",
      "outputs": [],
      "stateMutability": "nonpayable",
      "type": "function"
    },
    {
      "inputs": [
        {
          "internalType": "uint256",
          "name": "_DataBatchId",
          "type": "uint256"
        }
      ],
      "name": "rescueTokens",
      "outputs": [],
      "stateMutability": "nonpayable",
      "type": "function"
    },
    {
      "inputs": [
        {
          "internalType": "uint256[]",
          "name": "_DataBatchIDs",
          "type": "uint256[]"
        }
      ],
      "name": "rescueTokensInMultipleDatas",
      "outputs": [],
      "stateMutability": "nonpayable",
      "type": "function"
    },
    {
      "inputs": [
        {
          "internalType": "uint256",
          "name": "_DataBatchId",
          "type": "uint256"
        },
        {
          "internalType": "uint256",
          "name": "_voteOption",
          "type": "uint256"
        },
        {
          "internalType": "uint256",
          "name": "_salt",
          "type": "uint256"
        }
      ],
      "name": "revealFormatCheck",
      "outputs": [],
      "stateMutability": "nonpayable",
      "type": "function"
    },
    {
      "inputs": [
        {
          "internalType": "uint256",
          "name": "_DataBatchId",
          "type": "uint256"
        }
      ],
      "name": "revealPeriodActive",
      "outputs": [
        {
          "internalType": "bool",
          "name": "active",
          "type": "bool"
        }
      ],
      "stateMutability": "view",
      "type": "function"
    },
    {
      "inputs": [],
      "name": "sFuel",
      "outputs": [
        {
          "internalType": "address",
          "name": "",
          "type": "address"
        }
      ],
      "stateMutability": "view",
      "type": "function"
    },
    {
      "inputs": [
        {
          "internalType": "uint256",
          "name": "N",
          "type": "uint256"
        }
      ],
      "name": "shuffle_array",
      "outputs": [
        {
          "internalType": "uint256[]",
          "name": "",
          "type": "uint256[]"
        }
      ],
      "stateMutability": "view",
      "type": "function"
    },
    {
      "inputs": [],
      "name": "token",
      "outputs": [
        {
          "internalType": "contract IERC20",
          "name": "",
          "type": "address"
        }
      ],
      "stateMutability": "view",
      "type": "function"
    },
    {
      "inputs": [
        {
          "internalType": "address",
          "name": "newOwner",
          "type": "address"
        }
      ],
      "name": "transferOwnership",
      "outputs": [],
      "stateMutability": "nonpayable",
      "type": "function"
    },
    {
      "inputs": [
        {
          "internalType": "address",
          "name": "addr",
          "type": "address"
        }
      ],
      "name": "updateAddressManager",
      "outputs": [],
      "stateMutability": "nonpayable",
      "type": "function"
    },
    {
      "inputs": [
        {
          "internalType": "uint256",
          "name": "COMMIT_ROUND_DURATION_",
          "type": "uint256"
        }
      ],
      "name": "updateCommitRoundDuration",
      "outputs": [],
      "stateMutability": "nonpayable",
      "type": "function"
    },
    {
      "inputs": [
        {
          "internalType": "uint256",
          "name": "CONSENSUS_WORKER_SIZE_",
          "type": "uint256"
        }
      ],
      "name": "updateConsensusSize",
      "outputs": [],
      "stateMutability": "nonpayable",
      "type": "function"
    },
    {
      "inputs": [
        {
          "internalType": "uint256",
          "name": "size",
          "type": "uint256"
        }
      ],
      "name": "updateDataBachSize",
      "outputs": [],
      "stateMutability": "nonpayable",
      "type": "function"
    },
    {
      "inputs": [
        {
          "internalType": "address",
          "name": "addr",
          "type": "address"
        }
      ],
      "name": "updateRepManager",
      "outputs": [],
      "stateMutability": "nonpayable",
      "type": "function"
    },
    {
      "inputs": [
        {
          "internalType": "uint256",
          "name": "REVEAL_ROUND_DURATION_",
          "type": "uint256"
        }
      ],
      "name": "updateRevealRoundDuration",
      "outputs": [],
      "stateMutability": "nonpayable",
      "type": "function"
    },
    {
      "inputs": [
        {
          "internalType": "address",
          "name": "addr",
          "type": "address"
        }
      ],
      "name": "updateRewardManager",
      "outputs": [],
      "stateMutability": "nonpayable",
      "type": "function"
    },
    {
      "inputs": [
        {
          "internalType": "address",
          "name": "addr",
          "type": "address"
        }
      ],
      "name": "updateSpotManager",
      "outputs": [],
      "stateMutability": "nonpayable",
      "type": "function"
    },
    {
      "inputs": [
        {
          "internalType": "address",
          "name": "addr",
          "type": "address"
        }
      ],
      "name": "updateStakeManager",
      "outputs": [],
      "stateMutability": "nonpayable",
      "type": "function"
    },
    {
      "inputs": [
        {
          "internalType": "uint256",
          "name": "_prevID",
          "type": "uint256"
        },
        {
          "internalType": "uint256",
          "name": "_nextID",
          "type": "uint256"
        },
        {
          "internalType": "address",
          "name": "_voter",
          "type": "address"
        },
        {
          "internalType": "uint256",
          "name": "_numTokens",
          "type": "uint256"
        }
      ],
      "name": "validPosition",
      "outputs": [
        {
          "internalType": "bool",
          "name": "APPROVED",
          "type": "bool"
        }
      ],
      "stateMutability": "view",
      "type": "function"
    },
    {
      "inputs": [
        {
          "internalType": "uint256",
          "name": "_numTokens",
          "type": "uint256"
        }
      ],
      "name": "withdrawVotingRights",
      "outputs": [],
      "stateMutability": "nonpayable",
      "type": "function"
    }
  ],
  "bytecode": "0x60806040526001808055670de0b6b3a76400006005818155600691909155671bc16d674ec80000600755603c600855600955600060118190556012819055601a80546001600160a01b0319167314f52f3fc010ab6ca81568d4a6794d5eab3c6155179055601b829055601c829055601d91909155601f553480156200008357600080fd5b5060405162006c4d38038062006c4d833981016040819052620000a69162000150565b620000ba620000b4620000fc565b62000100565b602080546001600160a01b0319166001600160a01b0392909216919091179055600060125568015af1d78b58c4000060025560b4600381905560045562000180565b3390565b600080546001600160a01b038381166001600160a01b0319831681178455604051919092169283917f8be0079c531659141344cd1fd0a4f28419497f9722a3daafe3b4186f6b6457e09190a35050565b60006020828403121562000162578081fd5b81516001600160a01b038116811462000179578182fd5b9392505050565b616abd80620001906000396000f3fe608060405234801561001057600080fd5b506004361061059c5760003560e01c80639acb75c1116102e5578063d8645d371161018d578063e8e9b6f9116100f4578063f5ae7c7d116100ad578063f721de4a11610087578063f721de4a14610bb9578063f80a23fd14610bcc578063fc0c546a14610bd4578063fca4956314610bdc5761059c565b8063f5ae7c7d14610b96578063f60e738114610b9e578063f716596d14610bb15761059c565b8063e8e9b6f914610b2d578063ed8becfa14610b40578063ef4fcdad14610b60578063f2d9e74d14610b68578063f2fde38b14610b70578063f4cdfcc414610b835761059c565b8063dd61868211610146578063dd61868214610ac6578063df05368e14610ad9578063e44c974b14610aec578063e7805f9e14610aff578063e798a7da14610b07578063e7b1d43c14610b1a5761059c565b8063d8645d3714610a5f578063d8b7567414610a67578063d901402b14610a7a578063d9548e5314610a8d578063d9966ae814610aa0578063db687c1714610ab35761059c565b8063b1a2e0be1161024c578063c4e4f82a11610205578063d1382092116101df578063d138209214610a1e578063d420ec0b14610a31578063d6b0206c14610a44578063d822ce0114610a4c5761059c565b8063c4e4f82a146109fb578063c9b03a7214610a0e578063cb1c2b5c14610a165761059c565b8063b1a2e0be1461097c578063b1d7ea981461098f578063b43bd069146109af578063b7e4eba9146109c2578063b8f011b3146109d5578063c47c4bc2146109e85761059c565b8063a4439dc51161029e578063a4439dc51461092b578063a511dba01461093e578063a905779014610946578063aa7ca46414610959578063aacc5a171461096c578063ab43e78d146109745761059c565b80639acb75c1146108c45780639b07dbb9146108cc5780639fc9c52f146108df578063a0e71c15146108f2578063a1103f3714610905578063a25236fe146109185761059c565b806351912f29116104485780637a34da67116103af57806383cc6ef2116103685780638da5cb5b116103425780638da5cb5b146108965780638df0296e1461089e57806395f82a36146105f757806397603560146108b15761059c565b806383cc6ef21461085e5780638473850b146108665780638c89d0271461086e5761059c565b80637a34da67146107e95780637f9510a2146107f15780637f97e836146107f95780637fabe35b1461080c578063819b029314610838578063821aa8c01461084b5761059c565b80636b2d95d4116104015780636b2d95d4146107a3578063715018a6146107b657806371880b1b146107be57806376e8ea4f146107d15780637827e549146107d9578063796b89b9146107e15761059c565b806351912f2914610742578063580021581461074a5780635fd879091461075d578063667bf0f8146107655780636a192ff51461076d5780636b1485a3146107905761059c565b8063313066ee11610507578063427fa1d2116104c057806348257dc91161049a57806348257dc91461070157806349403183146107145780634d4b7d9b14610727578063515535e81461073a5761059c565b8063427fa1d2146106d3578063441c77c0146106e657806347fe2d20146106f95761059c565b8063313066ee1461068d5780633538af8214610695578063353f44d0146106a8578063354dae40146106bb57806339e7357c146106c35780633ad2131f146106cb5761059c565b8063226ed30011610559578063226ed3001461060a578063275c25901461062a57806329a47bc7146106325780632c052031146106475780632d917c681461065a5780632f469fd11461066d5761059c565b806304dbcda7146105a1578063050eb2eb146105bf578063053e71a6146105d45780630e6661a7146105e75780630e670feb146105ef5780631b855044146105f7575b600080fd5b6105a9610bef565b6040516105b6919061599e565b60405180910390f35b6105d26105cd366004615487565b610bf5565b005b6105a96105e23660046157cb565b610c5f565b6105a9610cc5565b6105a9610ccb565b6105a961060536600461586c565b610cd1565b61061d6106183660046157cb565b610d05565b6040516105b69190615aed565b6105d2610d47565b61063a610e56565b6040516105b691906159d1565b6105a96106553660046154ca565b610e65565b61061d6106683660046154a1565b611002565b61068061067b3660046157f4565b611022565b6040516105b69190615b30565b6105a96110c7565b61063a6106a33660046157cb565b6110cd565b6105a96106b6366004615487565b6110f7565b6105d2611109565b6105a961122d565b6105a961124a565b6105a96106e1366004615487565b611250565b61061d6106f43660046157cb565b6112f0565b6105a961134a565b61061d61070f3660046157cb565b611350565b61061d6107223660046157cb565b6116a7565b61061d6107353660046157cb565b611998565b6105a96119ad565b61063a6119b3565b6105d26107583660046157cb565b6119c2565b6105a9611a06565b6105d2611a0c565b61078061077b3660046157cb565b611e02565b6040516105b69493929190615b6d565b6105d261079e3660046157cb565b611ec1565b6105a96107b1366004615487565b61275b565b6105d261276a565b6105a96107cc3660046157cb565b6127b5565b6105a96127f2565b6105a96127f8565b6105a96127fe565b61063a612802565b6105a9612811565b61061d6108073660046154a1565b612828565b61081f61081a3660046157cb565b61287b565b6040516105b69d9c9b9a99989796959493929190616847565b61061d61084636600461588d565b612974565b61063a6108593660046157cb565b6129b5565b61063a6129c5565b6105a96129d4565b61088161087c366004615487565b6129da565b6040516105b6999897969594939291906159e5565b61063a612ac2565b61063a6108ac36600461586c565b612ad1565b6105d26108bf3660046157cb565b612b09565b6105a9612cb8565b6105d26108da36600461581f565b612cbe565b6105d26108ed3660046154fc565b61313a565b6105a96109003660046157cb565b61318c565b6105a96109133660046154a1565b6131b0565b6105d26109263660046157cb565b6131c5565b61061d6109393660046157cb565b6132c6565b6105a9613308565b61061d610954366004615617565b61330e565b61061d6109673660046154a1565b613374565b6105a96133c7565b61063a61347c565b61061d61098a366004615487565b61348b565b6109a261099d36600461586c565b6135d9565b6040516105b69190615aa9565b6105a96109bd3660046154ca565b6137e0565b6105d26109d03660046157cb565b6138cc565b6109a26109e336600461586c565b613910565b6105d26109f6366004615487565b613a78565b6105a9610a093660046157cb565b613ad9565b6105a9613b16565b6105a9613b1c565b6105a9610a2c3660046154a1565b613b22565b61061d610a3f3660046154a1565b613bb7565b6105a9613bd7565b61063a610a5a3660046154a1565b613bdd565b61063a613bf9565b6105a9610a753660046157f4565b613c08565b6105a9610a883660046154a1565b613c25565b61061d610a9b3660046157cb565b613c6a565b6105d2610aae3660046157cb565b613c6f565b6105d2610ac1366004615487565b613cb3565b6105d2610ad4366004615487565b613d14565b6105d2610ae7366004615487565b613d75565b6109a2610afa3660046157cb565b613dd6565b6105a9613e4f565b61061d610b15366004615487565b613e55565b6105d2610b283660046157cb565b613e76565b6105d2610b3b3660046157cb565b613fb2565b610b53610b4e3660046157cb565b613ff6565b6040516105b69190615a49565b6105a961443b565b6105a9614441565b6105d2610b7e366004615487565b614447565b6105a9610b913660046155a5565b6144b5565b6105a96144eb565b6105d2610bac3660046158c9565b6144f1565b6105d26147cc565b61061d610bc73660046157cb565b6149a6565b61061d6149ae565b61063a6149c7565b6105a9610bea366004615487565b6149d6565b60055481565b610bfd614afc565b6001600160a01b0316610c0e612ac2565b6001600160a01b031614610c3d5760405162461bcd60e51b8152600401610c34906162c8565b60405180910390fd5b602380546001600160a01b0319166001600160a01b0392909216919091179055565b6000610c6a82610d05565b610c865760405162461bcd60e51b8152600401610c3490616043565b610c8f826116a7565b15610cac57506000818152601e6020526040902060070154610cc0565b506000818152601e60205260409020600801545b919050565b60125481565b60065481565b60008282604051602001610ce69291906159c3565b6040516020818303038152906040528051906020012090505b92915050565b6000610d10826149a6565b610d2c5760405162461bcd60e51b8152600401610c349061670d565b6000828152601e6020526040902060060154610cff90613c6a565b610d4f614b00565b336000908152601360205260409020600781015460ff161515600114610d875760405162461bcd60e51b8152600401610c3490615f4c565b610d9033614c88565b15610dad5760405162461bcd60e51b8152600401610c3490615e81565b6000610db76127fe565b9050610dc233614cf8565b610dcb33614e50565b8154336001600160a01b031991821681178455600180850180549093169091179091556005830182905560078301805460ff19169055601f8054600090610e13908490616949565b909155505060405133907f9dadcedba048e92b943ea1c5861cee1df63a566d7f795869c004780c1c698e2b90610e4a90849061599e565b60405180910390a25050565b6022546001600160a01b031681565b600080610e7185611250565b90506000610e7f8683613b22565b90505b8115610ff757610e928683613b22565b9050848111610f4f5783821415610f47576001600160a01b0386166000908152600f602052604090819020905163215e94cf60e01b815273__$6ffa5bf1f4fa681f07e1987a80577d5f4e$__9163215e94cf91610ef4919086906004016159c3565b60206040518083038186803b158015610f0c57600080fd5b505af4158015610f20573d6000803e3d6000fd5b505050506040513d601f19601f82011682018060405250810190610f4491906157e3565b91505b509050610ffb565b6001600160a01b0386166000908152600f602052604090819020905163215e94cf60e01b815273__$6ffa5bf1f4fa681f07e1987a80577d5f4e$__9163215e94cf91610fa0919086906004016159c3565b60206040518083038186803b158015610fb857600080fd5b505af4158015610fcc573d6000803e3d6000fd5b505050506040513d601f19601f82011682018060405250810190610ff091906157e3565b9150610e82565b5090505b9392505050565b600a60209081526000928352604080842090915290825290205460ff1681565b600d60209081526000928352604080842090915290825290208054611046906169db565b80601f0160208091040260200160405190810160405280929190818152602001828054611072906169db565b80156110bf5780601f10611094576101008083540402835291602001916110bf565b820191906000526020600020905b8154815290600101906020018083116110a257829003601f168201915b505050505081565b60115481565b601781815481106110dd57600080fd5b6000918252602090912001546001600160a01b0316905081565b60156020526000908152604090205481565b601d546000908152601e602052604081206004015462010000900460ff16151560011480159061113a575060175415155b801561115a5750601d546000908152601e602052604090206004015460ff165b1561116f57611167611a0c565b5060016111e6565b601c546000908152601e602052604090206004015462010000900460ff16151560011480156111c157506111a4601c54610d05565b806111c15750601c546000908152601e6020526040902060030154155b156111e6576111d1601c54611ec1565b601c546111df906001614f80565b601c555060015b80156111fe576011546111fa906001614f80565b6011555b6011546040517f94d48a7342690f1233e3f4db70efa37c4f1f25f4d0397c353f3f15aecdeca5f490600090a250565b60405160009080602081848060185afa61124357fe5b5051919050565b60085481565b6001600160a01b0381166000908152600f6020526040808220905163215e94cf60e01b815273__$6ffa5bf1f4fa681f07e1987a80577d5f4e$__9163215e94cf916112a0919085906004016159c3565b60206040518083038186803b1580156112b857600080fd5b505af41580156112cc573d6000803e3d6000fd5b505050506040513d601f19601f82011682018060405250810190610cff91906157e3565b60006112fb826149a6565b6113175760405162461bcd60e51b8152600401610c3490616486565b6000828152601e602052604090206006015461133290613c6a565b158015610cff5750611343826132c6565b1592915050565b601c5490565b6025546000906001600160a01b03161580159061137c57506000828152600e602052604090205460ff16155b1561168757602554604051637b90ef2560e11b81526001600160a01b039091169063f721de4a906113b190859060040161599e565b602060405180830381600087803b1580156113cb57600080fd5b505af11580156113df573d6000803e3d6000fd5b505050506040513d601f19601f82011682018060405250810190611403919061558b565b1561168757602554604051631b308bf760e31b81526000916001600160a01b03169063d9845fb89061143990869060040161599e565b600060405180830381600087803b15801561145357600080fd5b505af1158015611467573d6000803e3d6000fd5b505050506040513d6000823e601f3d908101601f1916820160405261148f9190810190615677565b61018081015190915060018160038111156114ba57634e487b7160e01b600052602160045260246000fd5b141561166b5760408051608081018252610160840151815233602080830191909152428284015260006060830181905260125481526014825292909220815180519293919261150c9284920190615268565b506020820151600182810180546001600160a01b0319166001600160a01b0390931692909217909155604083015160028301556060830151600380840180549293909260ff191691849081111561157357634e487b7160e01b600052602160045260246000fd5b021790555050601b546000908152601e60205260409020600154600282015491925011156115be5760018160020160008282546115b09190616949565b909155505060125460018201555b60015481600201541061161057600481018054600160ff19909116811761ff001916909155601b80546000906115f5908490616949565b9091555050601254601b546000908152601e60205260409020555b611618611109565b601254611626906001616949565b60128190556101608401516040517fe72ee44ad0ed1dfc338f7eec797c944eb218773c1edbb4bb653dd9c1e2a6230491611661913390615b43565b60405180910390a2505b50506000828152600e60205260409020805460ff191660011790555b6001601f600082825461169a9190616949565b9091555060009392505050565b6000818152601e6020908152604080832081516101e0810183528154815260018201549381019390935260028101549183019190915260038101546060830152600481015460ff808216151560808501526101008083048216151560a08601526201000090920416151560c0840152600582015460e08401526006820154908301526007810154610120830152600881015461014083015260098101805484939291610160840191611758906169db565b80601f0160208091040260200160405190810160405280929190818152602001828054611784906169db565b80156117d15780601f106117a6576101008083540402835291602001916117d1565b820191906000526020600020905b8154815290600101906020018083116117b457829003601f168201915b5050509183525050600a82015460209091019060ff16600381111561180657634e487b7160e01b600052602160045260246000fd5b600381111561182557634e487b7160e01b600052602160045260246000fd5b8152602001600b8201805480602002602001604051908101604052809291908181526020016000905b828210156118fa57838290600052602060002001805461186d906169db565b80601f0160208091040260200160405190810160405280929190818152602001828054611899906169db565b80156118e65780601f106118bb576101008083540402835291602001916118e6565b820191906000526020600020905b8154815290600101906020018083116118c957829003601f168201915b50505050508152602001906001019061184e565b505050508152602001600c820180548060200260200160405190810160405280929190818152602001828054801561195157602002820191906000526020600020905b81548152602001906001019080831161193d575b50505050508152505090508061014001518161012001516119729190616949565b60085461197f9190616975565b610120820151611990906064616975565b119392505050565b600e6020526000908152604090205460ff1681565b601b5490565b6023546001600160a01b031681565b6119ca614afc565b6001600160a01b03166119db612ac2565b6001600160a01b031614611a015760405162461bcd60e51b8152600401610c34906162c8565b600455565b60045481565b601d546000908152601e602052604090206004015460ff16611a405760405162461bcd60e51b8152600401610c34906163a3565b601d546000908152601e602052604090206004015462010000900460ff1615611a7b5760405162461bcd60e51b8152600401610c34906161fd565b6000611a98611a91601780549050600954614f8c565b6001614fa2565b601754601d546000908152601e602052604081206003908101849055549293509091611ac5904290614f80565b90506000611ade60045483614f8090919063ffffffff16565b601d80546000908152601e6020526040808220600501869055825482528082206006018490559154815220600401805462ff0000191662010000179055905060018410801590611b2f575060018310155b611b4b5760405162461bcd60e51b8152600401610c3490615e37565b6000611b578585613910565b9050600081516001600160401b03811115611b8257634e487b7160e01b600052604160045260246000fd5b604051908082528060200260200182016040528015611bab578160200160208202803683370190505b50905060005b8251811015611c6a576017838281518110611bdc57634e487b7160e01b600052603260045260246000fd5b602002602001015181548110611c0257634e487b7160e01b600052603260045260246000fd5b9060005260206000200160009054906101000a90046001600160a01b0316828281518110611c4057634e487b7160e01b600052603260045260246000fd5b6001600160a01b039092166020928302919091019091015280611c6281616a16565b915050611bb1565b5060005b8251811015611dcd576000828281518110611c9957634e487b7160e01b600052603260045260246000fd5b60200260200101519050600060136000836001600160a01b03166001600160a01b031681526020019081526020016000209050611cd582614cf8565b611cde82614c88565b611d2e57601880546001810182556000919091527fb13d2d76d1f4b7be834882e410b3e3a8afaf69f83600ae24db354391d2378d2e0180546001600160a01b0319166001600160a01b0384161790555b601d805460009081526019602090815260408083208054600181018255908452919092200180546001600160a01b0319166001600160a01b0386161790558154600284015560038301805460ff19169055905490517fe4ee2dfabe57cee15e3f558890b20455f54c1fa0718e5276faad70a6500e6b8c90611db09085906159d1565b60405180910390a250508080611dc590616a16565b915050611c6e565b50601d54611ddc906001614f80565b601d819055506001601f6000828254611df59190616949565b9091555050505050505050565b601460205260009081526040902080548190611e1d906169db565b80601f0160208091040260200160405190810160405280929190818152602001828054611e49906169db565b8015611e965780601f10611e6b57610100808354040283529160200191611e96565b820191906000526020600020905b815481529060010190602001808311611e7957829003601f168201915b505050506001830154600284015460039094015492936001600160a01b039091169290915060ff1684565b611eca81610d05565b80611ee457506000818152601e6020526040902060030154155b611f005760405162461bcd60e51b8152600401610c34906162fd565b6000818152601e6020526040902060040154610100900460ff1615611f375760405162461bcd60e51b8152600401610c3490616539565b6000818152601e6020526040902060040154610100900460ff16612758576000611f60826116a7565b600083815260196020908152604080832080548251818502810185019093528083529495509293909291830182828015611fc357602002820191906000526020600020905b81546001600160a01b03168152600190910190602001808311611fa5575b50505050509050600081516001600160401b03811115611ff357634e487b7160e01b600052604160045260246000fd5b60405190808252806020026020018201604052801561202657816020015b60608152602001906001900390816120115790505b50905060005b82518110156123bf57600083828151811061205757634e487b7160e01b600052603260045260246000fd5b6020908102919091018101516000888152600c835260408082206001600160a01b03841680845290855281832054600b86528284208c8552865282842054600d875283852092855291909552908220805493955060ff909116926120ba906169db565b80601f01602080910402602001604051908101604052809291908181526020018280546120e6906169db565b80156121335780601f1061210857610100808354040283529160200191612133565b820191906000526020600020905b81548152906001019060200180831161211657829003601f168201915b505050505090508086868151811061215b57634e487b7160e01b600052603260045260246000fd5b602002602001018190525061216f84614e50565b6001600160a01b0384166000908152601360205260409020821561238d576001600160a01b0385166000908152601360205260409020600301805460ff191660019081179091558915151480156121c65750836001145b806121db5750881580156121db575083600114155b1561232257602254600754604051630db6cc8560e11b81526001600160a01b0390921691631b6d990a91612213918990600401616813565b602060405180830381600087803b15801561222d57600080fd5b505af1158015612241573d6000803e3d6000fd5b505050506040513d601f19601f82011682018060405250810190612265919061558b565b6122815760405162461bcd60e51b8152600401610c34906160da565b602354600554604051633832942560e21b81526001600160a01b039092169163e0ca5094916122b49189906004016167fc565b602060405180830381600087803b1580156122ce57600080fd5b505af11580156122e2573d6000803e3d6000fd5b505050506040513d601f19601f82011682018060405250810190612306919061558b565b6123225760405162461bcd60e51b8152600401610c3490615efd565b600781015460ff16156123885761233885614fb2565b61238857601780546001810182556000919091527fc624b66cc0138b8fabc209247f72d758e1cf3343756d543badbf24212bed8c150180546001600160a01b0319166001600160a01b0387161790555b6123a7565b600781015460ff16156123a75760078101805460ff191690555b505050505080806123b790616a16565b91505061202c565b5060006123df6064845160326123d59190616975565b611a919190616961565b905060008260008151811061240457634e487b7160e01b600052603260045260246000fd5b6020026020010151905060005b83518110156124fa576000805b85518110156124af5761247f86848151811061244a57634e487b7160e01b600052603260045260246000fd5b602002602001015187838151811061247257634e487b7160e01b600052603260045260246000fd5b602002602001015161330e565b1561249d5761248f600183616949565b915084821061249d576124af565b806124a781616a16565b91505061241e565b508381106124e7578482815181106124d757634e487b7160e01b600052603260045260246000fd5b60200260200101519250506124fa565b50806124f281616a16565b915050612411565b506000868152601e6020908152604090912060048101805461ff001916610100179055825161253192600990920191840190615268565b5084156126c75760225460075460008881526014602052604090819020600101549051630db6cc8560e11b81526001600160a01b0393841693631b6d990a93612581939092911690600401616813565b602060405180830381600087803b15801561259b57600080fd5b505af11580156125af573d6000803e3d6000fd5b505050506040513d601f19601f820116820180604052508101906125d3919061558b565b6125ef5760405162461bcd60e51b8152600401610c3490616619565b60235460055460008881526014602052604090819020600101549051633832942560e21b81526001600160a01b039384169363e0ca5094936126389390929116906004016167fc565b602060405180830381600087803b15801561265257600080fd5b505af1158015612666573d6000803e3d6000fd5b505050506040513d601f19601f8201168201806040525081019061268a919061558b565b6126a65760405162461bcd60e51b8152600401610c34906164ea565b6000868152601e60205260409020600a01805460ff191660011790556126e4565b6000868152601e60205260409020600a01805460ff191660021790555b6001601f60008282546126f79190616949565b909155505060008681526014602052604090819020600181015491516001600160a01b03909216917fb83f08cf731092d35d6dd4801ac76e3fcc84b1b199915531c9874230d31adeaa9161274a91615bae565b60405180910390a250505050505b50565b6000610cff82610a2c84611250565b612772614afc565b6001600160a01b0316612783612ac2565b6001600160a01b0316146127a95760405162461bcd60e51b8152600401610c34906162c8565b6127b36000615022565b565b60006127c0826149a6565b6127dc5760405162461bcd60e51b8152600401610c3490616486565b506000908152601e602052604090206006015490565b60015481565b60075481565b4290565b6024546001600160a01b031681565b60185460175460009161282391616949565b905090565b6000612833826149a6565b61284f5760405162461bcd60e51b8152600401610c3490616486565b506001600160a01b03919091166000908152600a60209081526040808320938352929052205460ff1690565b601e60205260009081526040902080546001820154600283015460038401546004850154600586015460068701546007880154600889015460098a018054999a98999798969760ff808816986101008904821698620100009004909116969594939290916128e8906169db565b80601f0160208091040260200160405190810160405280929190818152602001828054612914906169db565b80156129615780601f1061293657610100808354040283529160200191612961565b820191906000526020600020905b81548152906001019060200180831161294457829003601f168201915b505050600a909301549192505060ff168d565b6000806129818487613b22565b831015905060006129928587613b22565b8411158061299e575085155b90508180156129aa5750805b979650505050505050565b601881815481106110dd57600080fd5b6021546001600160a01b031681565b601b5481565b60136020526000908152604090208054600182015460028301546003840154600485015460058601546006870180546001600160a01b03978816989690971696949560ff9094169492939192612a2f906169db565b80601f0160208091040260200160405190810160405280929190818152602001828054612a5b906169db565b8015612aa85780601f10612a7d57610100808354040283529160200191612aa8565b820191906000526020600020905b815481529060010190602001808311612a8b57829003601f168201915b505050506007830154600890930154919260ff1691905089565b6000546001600160a01b031690565b60196020528160005260406000208181548110612aed57600080fd5b6000918252602090912001546001600160a01b03169150829050565b60016000828152601e60205260409020600a015460ff166003811115612b3f57634e487b7160e01b600052602160045260246000fd5b14612b5c5760405162461bcd60e51b8152600401610c3490615c8f565b336000908152600f602052604090819020905163162a54af60e31b815273__$6ffa5bf1f4fa681f07e1987a80577d5f4e$__9163b152a57891612ba4919085906004016159c3565b60206040518083038186803b158015612bbc57600080fd5b505af4158015612bd0573d6000803e3d6000fd5b505050506040513d601f19601f82011682018060405250810190612bf4919061558b565b612c105760405162461bcd60e51b8152600401610c3490616127565b336000908152600f6020526040908190209051634dab476560e01b815273__$6ffa5bf1f4fa681f07e1987a80577d5f4e$__91634dab476591612c58919085906004016159c3565b60006040518083038186803b158015612c7057600080fd5b505af4158015612c84573d6000803e3d6000fd5b50506040513392508391507f402507661c8c8cb90e0a796450b8bdd28b6c516f05279c0cd29e84c344e1699a90600090a350565b60115490565b612cc6614b00565b612ccf836132c6565b612ceb5760405162461bcd60e51b8152600401610c3490615ec6565b82612cf5336149d6565b14612d125760405162461bcd60e51b8152600401610c349061625a565b60025433600090815260156020526040902054811115612d545733600090815260156020526040812054612d47908390615072565b9050612d52816131c5565b505b33600090815260156020526040902054811115612d835760405162461bcd60e51b8152600401610c34906165bc565b6000336000908152600f60205260408082209051631b23afef60e21b815273__$6ffa5bf1f4fa681f07e1987a80577d5f4e$__91636c8ebfbc91612dcc919086906004016159c3565b60206040518083038186803b158015612de457600080fd5b505af4158015612df8573d6000803e3d6000fd5b505050506040513d601f19601f82011682018060405250810190612e1c91906157e3565b905085811415612ec157336000908152600f6020526040908190209051631b23afef60e21b815273__$6ffa5bf1f4fa681f07e1987a80577d5f4e$__91636c8ebfbc91612e6e91908a906004016159c3565b60206040518083038186803b158015612e8657600080fd5b505af4158015612e9a573d6000803e3d6000fd5b505050506040513d601f19601f82011682018060405250810190612ebe91906157e3565b90505b612ecd82823386612974565b612ee95760405162461bcd60e51b8152600401610c34906161cf565b336000908152600f602052604090819020905163f3a1998360e01b815273__$6ffa5bf1f4fa681f07e1987a80577d5f4e$__9163f3a1998391612f35919086908b9087906004016167e1565b60006040518083038186803b158015612f4d57600080fd5b505af4158015612f61573d6000803e3d6000fd5b505050506000612f7133886131b0565b60408051808201825260098152686e756d546f6b656e7360b81b60208201529051633416d70d60e21b81529192509073__$d865f21674766f31b0d600e4a95b721b57$__9063d05b5c3490612fd190601090869086908b90600401616736565b60006040518083038186803b158015612fe957600080fd5b505af4158015612ffd573d6000803e3d6000fd5b5050604051633416d70d60e21b815273__$d865f21674766f31b0d600e4a95b721b57$__925063d05b5c34915061303d9060109086908c90600401616784565b60006040518083038186803b15801561305557600080fd5b505af4158015613069573d6000803e3d6000fd5b5050506000898152600d602090815260408083203384528252909120885161309693509091890190615268565b503360009081526013602052604090206130ae6127fe565b6005820155336000908152600a602090815260408083208c84529091528120805460ff19166001908117909155601f8054919290916130ee908490616949565b909155505060405133908a907f1b5c5140592c554fa4c0cdb5b3d3cd50f87aa84e477afd0b6c93d7702ef9c73c90613127908a9061599e565b60405180910390a3505050505050505050565b60005b81518110156131885761317682828151811061316957634e487b7160e01b600052603260045260246000fd5b6020026020010151612b09565b8061318081616a16565b91505061313d565b5050565b6000818152601e6020526040812060088101546007909101548291610ffb91616949565b60008282604051602001610ce692919061597c565b6021546040516304ada21f60e21b81526001600160a01b03909116906312b6887c906131f790849033906004016167fc565b602060405180830381600087803b15801561321157600080fd5b505af1158015613225573d6000803e3d6000fd5b505050506040513d601f19601f82011682018060405250810190613249919061558b565b6132655760405162461bcd60e51b8152600401610c3490615f97565b3360009081526015602052604081208054839290613284908490616949565b909155505060405133907ff7aaf024511d9982df8cd0d437c71c30106e6848cd1ba3d288d7a9c0e276aeda906132bb90849061599e565b60405180910390a250565b60006132d1826149a6565b6132ed5760405162461bcd60e51b8152600401610c3490616486565b6000828152601e602052604090206005015461134390613c6a565b60125490565b60008160405160200161332191906159a7565b604051602081830303815290604052805190602001208360405160200161334891906159a7565b60405160208183030381529060405280519060200120141561336c57506001610cff565b506000610cff565b600061337f826149a6565b61339b5760405162461bcd60e51b8152600401610c3490616486565b506001600160a01b03919091166000908152600b60209081526040808320938352929052205460ff1690565b60008042416040516020016133dc919061595f565b6040516020818303038152906040528051906020012060001c6133ff9190616961565b4461340861122d565b604051602001613418919061599e565b60408051601f19818403018152919052805160209091012061343a9042616949565b6134449190616949565b61344e9190616949565b60405160200161345e919061599e565b60408051601f19818403018152919052805160209091012091505090565b601a546001600160a01b031681565b6001600160a01b038082166000908152601360209081526040808320815161012081018352815486168152600182015490951692850192909252600282015490840152600381015460ff161515606084015260048101546080840152600581015460a0840152600681018054929384938493919260c084019161350d906169db565b80601f0160208091040260200160405190810160405280929190818152602001828054613539906169db565b80156135865780601f1061355b57610100808354040283529160200191613586565b820191906000526020600020905b81548152906001019060200180831161356957829003601f168201915b5050509183525050600782015460ff161515602082015260089091015460409091015260608101519091501580156135c857506135c68160400151610d05565b155b156135d257600191505b5092915050565b6060600082116135e857600080fd5b6000416040516020016135fb919061595f565b6040516020818303038152906040528051906020012060001c61361c61122d565b60405160200161362c919061599e565b60408051601f19818403018152919052805160209091012061364e9042616949565b6136589190616949565b604051602001613668919061599e565b6040516020818303038152906040528051906020012060001c90506000846001600160401b038111156136ab57634e487b7160e01b600052604160045260246000fd5b6040519080825280602002602001820160405280156136d4578160200160208202803683370190505b5090506000805b868210156137d5576000866136f463017efeeb87616994565b836040516020016137069291906159c3565b6040516020818303038152906040528051906020012060001c6137299190616a31565b90506000805b84811015613781578286828151811061375857634e487b7160e01b600052603260045260246000fd5b6020026020010151141561376f5760019150613781565b8061377981616a16565b91505061372f565b50806137c157818585815181106137a857634e487b7160e01b600052603260045260246000fd5b60209081029190910101526137be846001616949565b93505b6137cc836001616949565b925050506136db565b509095945050505050565b60006137eb83610d05565b6138075760405162461bcd60e51b8152600401610c3490616666565b6001600160a01b0384166000908152600b6020908152604080832086845290915290205460ff1661384a5760405162461bcd60e51b8152600401610c3490616184565b6000613855846116a7565b613860576000613863565b60015b60ff1690506000818460405160200161387d9291906159c3565b60405160208183030381529060405280519060200120905060006138a18787613c25565b90508082146138c25760405162461bcd60e51b8152600401610c349061635a565b6129aa8787613b22565b6138d4614afc565b6001600160a01b03166138e5612ac2565b6001600160a01b03161461390b5760405162461bcd60e51b8152600401610c34906162c8565b600155565b60606000821180156139225750818311155b801561392f575060018310155b61394b5760405162461bcd60e51b8152600401610c3490615dee565b6000826001600160401b0381111561397357634e487b7160e01b600052604160045260246000fd5b60405190808252806020026020018201604052801561399c578160200160208202803683370190505b5090506000846001600160401b038111156139c757634e487b7160e01b600052604160045260246000fd5b6040519080825280602002602001820160405280156139f0578160200160208202803683370190505b5090506000613a06613a018461507e565b6150d4565b905060005b868110156137d557818181518110613a3357634e487b7160e01b600052603260045260246000fd5b6020026020010151838281518110613a5b57634e487b7160e01b600052603260045260246000fd5b602090810291909101015280613a7081616a16565b915050613a0b565b613a80614afc565b6001600160a01b0316613a91612ac2565b6001600160a01b031614613ab75760405162461bcd60e51b8152600401610c34906162c8565b602480546001600160a01b0319166001600160a01b0392909216919091179055565b6000613ae4826149a6565b613b005760405162461bcd60e51b8152600401610c3490616486565b506000908152601e602052604090206005015490565b60095481565b60025481565b600073__$d865f21674766f31b0d600e4a95b721b57$__6362e02a2a6010613b4a86866131b0565b6040518363ffffffff1660e01b8152600401613b679291906167b2565b60206040518083038186803b158015613b7f57600080fd5b505af4158015613b93573d6000803e3d6000fd5b505050506040513d601f19601f82011682018060405250810190610ffb91906157e3565b600b60209081526000928352604080842090915290825290205460ff1681565b601d5481565b60166020528160005260406000208181548110612aed57600080fd5b6025546001600160a01b031681565b600c60209081526000928352604080842090915290825290205481565b600073__$d865f21674766f31b0d600e4a95b721b57$__6362e02a2a6010613c4d86866131b0565b6040518363ffffffff1660e01b8152600401613b67929190616766565b421190565b613c77614afc565b6001600160a01b0316613c88612ac2565b6001600160a01b031614613cae5760405162461bcd60e51b8152600401610c34906162c8565b600955565b613cbb614afc565b6001600160a01b0316613ccc612ac2565b6001600160a01b031614613cf25760405162461bcd60e51b8152600401610c34906162c8565b602580546001600160a01b0319166001600160a01b0392909216919091179055565b613d1c614afc565b6001600160a01b0316613d2d612ac2565b6001600160a01b031614613d535760405162461bcd60e51b8152600401610c34906162c8565b602280546001600160a01b0319166001600160a01b0392909216919091179055565b613d7d614afc565b6001600160a01b0316613d8e612ac2565b6001600160a01b031614613db45760405162461bcd60e51b8152600401610c34906162c8565b602180546001600160a01b0319166001600160a01b0392909216919091179055565b606060008211613de557600080fd5b6000826001600160401b03811115613e0d57634e487b7160e01b600052604160045260246000fd5b604051908082528060200260200182016040528015613e36578160200160208202803683370190505b5090506000613e47613a018361507e565b949350505050565b60035481565b6001600160a01b031660009081526013602052604090206007015460ff1690565b6000613e9a613e843361275b565b3360009081526015602052604090205490615072565b905081811015613ebc5760405162461bcd60e51b8152600401610c349061643f565b602154604051630895993360e11b81526001600160a01b039091169063112b326690613eee90859033906004016167fc565b602060405180830381600087803b158015613f0857600080fd5b505af1158015613f1c573d6000803e3d6000fd5b505050506040513d601f19601f82011682018060405250810190613f40919061558b565b613f5c5760405162461bcd60e51b8152600401610c34906166b0565b3360009081526015602052604081208054849290613f7b908490616994565b909155505060405133907ffaeb7dbb9992397d26ea1944efd40c80b40f702faf69b46c67ad10aba68ccb7990610e4a90859061599e565b613fba614afc565b6001600160a01b0316613fcb612ac2565b6001600160a01b031614613ff15760405162461bcd60e51b8152600401610c34906162c8565b600355565b6060614001826149a6565b61401d5760405162461bcd60e51b8152600401610c3490616486565b6000828152601e6020908152604080832081516101e0810183528154815260018201549381019390935260028101549183019190915260038101546060830152600481015460ff808216151560808501526101008083048216151560a08601526201000090920416151560c0840152600582015460e084015260068201549083015260078101546101208301526008810154610140830152600981018054610160840191906140cb906169db565b80601f01602080910402602001604051908101604052809291908181526020018280546140f7906169db565b80156141445780601f1061411957610100808354040283529160200191614144565b820191906000526020600020905b81548152906001019060200180831161412757829003601f168201915b5050509183525050600a82015460209091019060ff16600381111561417957634e487b7160e01b600052602160045260246000fd5b600381111561419857634e487b7160e01b600052602160045260246000fd5b8152602001600b8201805480602002602001604051908101604052809291908181526020016000905b8282101561426d5783829060005260206000200180546141e0906169db565b80601f016020809104026020016040519081016040528092919081815260200182805461420c906169db565b80156142595780601f1061422e57610100808354040283529160200191614259565b820191906000526020600020905b81548152906001019060200180831161423c57829003601f168201915b5050505050815260200190600101906141c1565b505050508152602001600c82018054806020026020016040519081016040528092919081815260200182805480156142c457602002820191906000526020600020905b8154815260200190600101908083116142b0575b505050505081525050905060008160400151905060006001546001600160401b0381111561430257634e487b7160e01b600052604160045260246000fd5b60405190808252806020026020018201604052801561433557816020015b60608152602001906001900390816143205790505b50905060005b82811015614432578351600090614353908390616949565b600081815260146020526040812080549293509091614371906169db565b80601f016020809104026020016040519081016040528092919081815260200182805461439d906169db565b80156143ea5780601f106143bf576101008083540402835291602001916143ea565b820191906000526020600020905b8154815290600101906020018083116143cd57829003601f168201915b505050505090508084848151811061441257634e487b7160e01b600052603260045260246000fd5b60200260200101819052505050808061442a90616a16565b91505061433b565b50949350505050565b601c5481565b601f5481565b61444f614afc565b6001600160a01b0316614460612ac2565b6001600160a01b0316146144865760405162461bcd60e51b8152600401610c34906162c8565b6001600160a01b0381166144ac5760405162461bcd60e51b8152600401610c3490615da8565b61275881615022565b60008383836040516020016144cc93929190615af8565b6040516020818303038152906040528051906020012090509392505050565b601f5490565b6144f9614b00565b614502836112f0565b61451e5760405162461bcd60e51b8152600401610c34906163f9565b336000908152600a6020908152604080832086845290915290205460ff166145585760405162461bcd60e51b8152600401610c3490615ff4565b6145623384613c25565b61456c8383610cd1565b146145895760405162461bcd60e51b8152600401610c3490615d25565b60006145953385613b22565b905082600114156145cc576000848152601e6020526040812060070180548392906145c1908490616949565b909155506145f39050565b6000848152601e6020526040812060080180548392906145ed908490616949565b90915550505b336000908152600f6020526040908190209051634dab476560e01b815273__$6ffa5bf1f4fa681f07e1987a80577d5f4e$__91634dab47659161463b919088906004016159c3565b60006040518083038186803b15801561465357600080fd5b505af4158015614667573d6000803e3d6000fd5b5050336000818152600b602090815260408083208a84528252808320805460ff19166001908117909155600c8352818420948452938252808320899055601382528083208a8452601e909252909120600301549093506146c8925090615072565b6000868152601e602052604090206003908101919091558101805460ff191660011790556146f46127fe565b600582015561470233614e50565b61470b33614fb2565b61475257601780546001810182556000919091527fc624b66cc0138b8fabc209247f72d758e1cf3343756d543badbf24212bed8c150180546001600160a01b031916331790555b6001601f60008282546147659190616949565b90915550506000858152601e602052604090819020600781015460089091015491513392879289927f2e5fbeef18eaa8d8ea3b0122bc64445c4daaa6f454dfb889456791a92287f378926147bd928992909190616831565b60405180910390a45050505050565b6147d4614b00565b3360009081526013602052604090206018546017546103e8916147f691616949565b106148135760405162461bcd60e51b8152600401610c349061657a565b600781015460ff16156148385760405162461bcd60e51b8152600401610c3490615c58565b60006148426127fe565b6002543360009081526015602052604090205491925090811115614888573360009081526015602052604081205461487b908390615072565b9050614886816131c5565b505b336000908152601560205260409020548111156148b75760405162461bcd60e51b8152600401610c3490616071565b6148c033614fb2565b61490757601780546001810182556000919091527fc624b66cc0138b8fabc209247f72d758e1cf3343756d543badbf24212bed8c150180546001600160a01b031916331790555b8254336001600160a01b03199182168117855560018501805490921617905560058301829055600783015460ff1661494f5760078301805460ff191660011790554260088401555b6001601f60008282546149629190616949565b909155505060405133907f439d77b7534ec3108fc6143bd4fbabde0b9f2bb54f7b0730d1f70dd2135b765f9061499990859061599e565b60405180910390a2505050565b601b54101590565b3360009081526013602052604090206007015460ff1690565b6020546001600160a01b031681565b6001600160a01b038082166000908152601360209081526040808320815161012081018352815486168152600182015490951692850192909252600282015490840152600381015460ff161515606084015260048101546080840152600581015460a08401526006810180549293849390929160c0840191614a57906169db565b80601f0160208091040260200160405190810160405280929190818152602001828054614a83906169db565b8015614ad05780601f10614aa557610100808354040283529160200191614ad0565b820191906000526020600020905b815481529060010190602001808311614ab357829003601f168201915b5050509183525050600782015460ff161515602082015260089091015460409182015201519392505050565b3390565b601a546001600160a01b0316614b285760405162461bcd60e51b8152600401610c34906164bd565b601a546040516000916001600160a01b031690614b499033906024016159d1565b60408051601f198184030181529181526020820180516001600160e01b0316631f5ac9c560e11b17905251614b7e91906159a7565b6000604051808303816000865af19150503d8060008114614bbb576040519150601f19603f3d011682016040523d82523d6000602084013e614bc0565b606091505b5050601a546040519192506000916001600160a01b0390911690614be89033906024016159d1565b60408051601f198184030181529181526020820180516001600160e01b03166358563d2160e01b17905251614c1d91906159a7565b6000604051808303816000865af19150503d8060008114614c5a576040519150601f19603f3d011682016040523d82523d6000602084013e614c5f565b606091505b505090508180614c6c5750805b6131885760405162461bcd60e51b8152600401610c3490615ce0565b600080805b6018548110156135d257836001600160a01b031660188281548110614cc257634e487b7160e01b600052603260045260246000fd5b6000918252602090912001546001600160a01b03161415614ce657600191506135d2565b80614cf081616a16565b915050614c8d565b60008060005b601754811015614d6c57836001600160a01b031660178281548110614d3357634e487b7160e01b600052603260045260246000fd5b6000918252602090912001546001600160a01b03161415614d5a5760019150809250614d6c565b80614d6481616a16565b915050614cfe565b508015614e4b5760178054614d8390600190616994565b81548110614da157634e487b7160e01b600052603260045260246000fd5b600091825260209091200154601780546001600160a01b039092169184908110614ddb57634e487b7160e01b600052603260045260246000fd5b9060005260206000200160006101000a8154816001600160a01b0302191690836001600160a01b031602179055506017805480614e2857634e487b7160e01b600052603160045260246000fd5b600082815260209020810160001990810180546001600160a01b03191690550190555b505050565b60008060005b601854811015614ec457836001600160a01b031660188281548110614e8b57634e487b7160e01b600052603260045260246000fd5b6000918252602090912001546001600160a01b03161415614eb25760019150809250614ec4565b80614ebc81616a16565b915050614e56565b508015614e4b5760188054614edb90600190616994565b81548110614ef957634e487b7160e01b600052603260045260246000fd5b600091825260209091200154601880546001600160a01b039092169184908110614f3357634e487b7160e01b600052603260045260246000fd5b9060005260206000200160006101000a8154816001600160a01b0302191690836001600160a01b031602179055506018805480614e2857634e487b7160e01b600052603160045260246000fd5b6000610ffb8284616949565b6000818310614f9b5781610ffb565b5090919050565b600081831015614f9b5781610ffb565b600080805b6017548110156135d257836001600160a01b031660178281548110614fec57634e487b7160e01b600052603260045260246000fd5b6000918252602090912001546001600160a01b0316141561501057600191506135d2565b8061501a81616a16565b915050614fb7565b600080546001600160a01b038381166001600160a01b0319831681178455604051919092169283917f8be0079c531659141344cd1fd0a4f28419497f9722a3daafe3b4186f6b6457e09190a35050565b6000610ffb8284616994565b805160609060005b818110156150cc57808482815181106150af57634e487b7160e01b600052603260045260246000fd5b6020908102919091010152806150c481616a16565b915050615086565b509192915050565b606060008251116150e457600080fd5b81518060005b8181101561525f576000836150fd6133c7565b87848151811061511d57634e487b7160e01b600052603260045260246000fd5b60200260200101516040516020016151369291906159c3565b6040516020818303038152906040528051906020012060001c6151599190616a31565b615164906001616949565b9050600086615174600184616994565b8151811061519257634e487b7160e01b600052603260045260246000fd5b60200260200101519050866001866151aa9190616994565b815181106151c857634e487b7160e01b600052603260045260246000fd5b6020026020010151876001846151de9190616994565b815181106151fc57634e487b7160e01b600052603260045260246000fd5b60209081029190910101528087615214600188616994565b8151811061523257634e487b7160e01b600052603260045260246000fd5b6020908102919091010152615248600186616994565b94505050808061525790616a16565b9150506150ea565b50929392505050565b828054615274906169db565b90600052602060002090601f01602090048101928261529657600085556152dc565b82601f106152af57805160ff19168380011785556152dc565b828001600101855582156152dc579182015b828111156152dc5782518255916020019190600101906152c1565b506152e89291506152ec565b5090565b5b808211156152e857600081556001016152ed565b80356001600160a01b0381168114610cc057600080fd5b600082601f830112615328578081fd5b8151602061533d615338836168f3565b6168ca565b82815281810190858301855b8581101561537257615360898684518b0101615444565b84529284019290840190600101615349565b5090979650505050505050565b600082601f83011261538f578081fd5b8151602061539f615338836168f3565b82815281810190858301838502870184018810156153bb578586fd5b855b85811015615372578151845292840192908401906001016153bd565b80518015158114610cc057600080fd5b805160048110610cc057600080fd5b600082601f830112615408578081fd5b813561541661533882616916565b81815284602083860101111561542a578283fd5b816020850160208301379081016020019190915292915050565b600082601f830112615454578081fd5b815161546261533882616916565b818152846020838601011115615476578283fd5b613e478260208301602087016169ab565b600060208284031215615498578081fd5b610ffb82615301565b600080604083850312156154b3578081fd5b6154bc83615301565b946020939093013593505050565b6000806000606084860312156154de578081fd5b6154e784615301565b95602085013595506040909401359392505050565b6000602080838503121561550e578182fd5b82356001600160401b03811115615523578283fd5b8301601f81018513615533578283fd5b8035615541615338826168f3565b818152838101908385018584028501860189101561555d578687fd5b8694505b8385101561557f578035835260019490940193918501918501615561565b50979650505050505050565b60006020828403121561559c578081fd5b610ffb826153d9565b6000806000604084860312156155b9578081fd5b83356001600160401b03808211156155cf578283fd5b818601915086601f8301126155e2578283fd5b8135818111156155f0578384fd5b876020828501011115615601578384fd5b6020928301989097509590910135949350505050565b60008060408385031215615629578182fd5b82356001600160401b038082111561563f578384fd5b61564b868387016153f8565b93506020850135915080821115615660578283fd5b5061566d858286016153f8565b9150509250929050565b600060208284031215615688578081fd5b81516001600160401b038082111561569e578283fd5b81840191506101e08083870312156156b4578384fd5b6156bd816168ca565b9050825181526020830151602082015260408301516040820152606083015160608201526156ed608084016153d9565b60808201526156fe60a084016153d9565b60a082015261570f60c084016153d9565b60c082015260e083810151908201526101008084015190820152610120808401519082015261014080840151908201526101608084015183811115615752578586fd5b61575e88828701615444565b8284015250506101806157728185016153e9565b908201526101a08381015183811115615789578586fd5b61579588828701615318565b8284015250506101c080840151838111156157ae578586fd5b6157ba8882870161537f565b918301919091525095945050505050565b6000602082840312156157dc578081fd5b5035919050565b600060208284031215611243578081fd5b60008060408385031215615806578182fd5b8235915061581660208401615301565b90509250929050565b600080600060608486031215615833578081fd5b833592506020840135915060408401356001600160401b03811115615856578182fd5b615862868287016153f8565b9150509250925092565b6000806040838503121561587e578182fd5b50508035926020909101359150565b600080600080608085870312156158a2578182fd5b84359350602085013592506158b960408601615301565b9396929550929360600135925050565b6000806000606084860312156158dd578081fd5b505081359360208301359350604090920135919050565b6004811061591257634e487b7160e01b600052602160045260246000fd5b9052565b6000815180845261592e8160208601602086016169ab565b601f01601f19169290920160200192915050565b600a8152690c6dedadad2e890c2e6d60b31b602082015260400190565b60609190911b6bffffffffffffffffffffffff1916815260140190565b60609290921b6bffffffffffffffffffffffff19168252601482015260340190565b90815260200190565b600082516159b98184602087016169ab565b9190910192915050565b918252602082015260400190565b6001600160a01b0391909116815260200190565b6001600160a01b038a81168252891660208201526040810188905286151560608201526080810186905260a0810185905261012060c08201819052600090615a2f83820187615916565b94151560e084015250506101000152979650505050505050565b6000602080830181845280855180835260408601915060408482028701019250838701855b82811015615a9c57603f19888603018452615a8a858351615916565b94509285019290850190600101615a6e565b5092979650505050505050565b6020808252825182820181905260009190848201906040850190845b81811015615ae157835183529284019291840191600101615ac5565b50909695505050505050565b901515815260200190565b6000604082528360408301528385606084013780606085840101526060601f19601f8601168301019050826020830152949350505050565b600060208252610ffb6020830184615916565b600060408252615b566040830185615916565b905060018060a01b03831660208301529392505050565b600060808252615b806080830187615916565b6001600160a01b0386166020840152604083018590529050615ba560608301846158f4565b95945050505050565b6000602080835281845483600282049050600180831680615bd057607f831692505b858310811415615bee57634e487b7160e01b87526022600452602487fd5b615bfa83878a0161599e565b818015615c0e5760018114615c1f57615c49565b60ff19861682528782019650615c49565b615c288b61693d565b895b86811015615c4357815484820152908501908901615c2a565b83019750505b50949998505050505050505050565b6020808252601c908201527f576f726b657220697320616c7265616479207265676973746572656400000000604082015260600190565b60208082526031908201527f676976656e204461746142617463682073686f756c6420626520415050524f5660408201527011510b08185b99081a5d081a5cc81b9bdd607a1b606082015260800190565b60208082526025908201527f72656365697665722072656a6563746564205f7265747269657665534675656c6040820152640818d85b1b60da1b606082015260800190565b6020808252605c908201527f4e6f74207468652073616d6520766f7465207468616e2077686174207761732060408201527f636f6d6d697465642c20696d706f737369626c6520746f206d6174636820776960608201527f746820676976656e205f73616c742026205f766f74654f7074696f6e00000000608082015260a00190565b60208082526026908201527f4f776e61626c653a206e6577206f776e657220697320746865207a65726f206160408201526564647265737360d01b606082015260800190565b60208082526029908201527f6b206f72204e20617265206e6f74204f4b20647572696e672072616e646f6d2060408201526839b2b632b1ba34b7b760b91b606082015260800190565b6020808252602a908201527f4661696c20647572696e6720616c6c6f636174696f6e3a206e6f7420656e6f75604082015269676820776f726b65727360b01b606082015260800190565b60208082526025908201527f576f726b6572206d757374206265204e4f54204275737920746f20756e72656760408201526434b9ba32b960d91b606082015260800190565b6020808252601e908201527f636f6d6d697420706572696f64206e6565647320746f206265206f70656e0000604082015260600190565b6020808252602f908201527f636f756c64206e6f742072657761726420746f6b656e20696e2054726967676560408201526e3921b432b1b5a9b837ba161018973160891b606082015260800190565b6020808252602b908201527f576f726b6572206973206e6f7420617661696c61626c6520736f2063616e277460408201526a103ab73932b3b4b9ba32b960a91b606082015260800190565b6020808252603d908201527f436f756c64206e6f74207265717565737420656e6f75676820616c6c6f63617460408201527f6564207374616b652c2072657175657374566f74696e67526967687473000000606082015260800190565b6020808252602f908201527f5573657220686173206e6f7420636f6d6d69746564206265666f72652c20746860408201526e1d5cc818d85b89dd081c995d99585b608a1b606082015260800190565b60208082526014908201527311185d18481b5d5cdd081a185d9948195b99195960621b604082015260600190565b60208082526043908201527f576f726b657220686173206e6f7420656e6f75676820285f6e756d546f6b656e60408201527f732920696e2068697320466f726d61745374616b6564546f6b656e42616c616e606082015262031b2960ed1b608082015260a00190565b6020808252602d908201527f636f756c64206e6f74207265776172642052455020696e20547269676765724360408201526c6865636b53706f742c20312e6160981b606082015260800190565b60208082526039908201527f646c6c4d61703a20646f6573206e6f7420636f696e7461696e205f446174614260408201527f61746368496420666f7220746865206d73672073656e64657200000000000000606082015260800190565b6020808252602b908201527f75736572206d75737420686176652072657665616c656420696e20746869732060408201526a0ced2eccadc4084c2e8c6d60ab1b606082015260800190565b6020808252601490820152733737ba1030903b30b634b2103837b9b4ba34b7b760611b604082015260600190565b6020808252603b908201527f43616e277420616c6c6f6361746520776f726b2c207468652063757272656e7460408201527f20626174636820697320616c726561647920616c6c6f63617465640000000000606082015260800190565b60208082526048908201527f55736572206e6565647320746f2068617665206265656e20616c6c6f6361746560408201527f64207468652063757272656e74206461746120626174636820746f20636f6d6d6060820152671a5d081bdb881a5d60c21b608082015260a00190565b6020808252818101527f4f776e61626c653a2063616c6c6572206973206e6f7420746865206f776e6572604082015260600190565b6020808252603a908201527f5f446174614261746368496420686173206e6f7420656e6465642c206f72206e60408201527f6f7420657665727920766f74657273206861766520766f746564000000000000606082015260800190565b60208082526029908201527f6765744e756d50617373696e67546f6b656e733a20686173686573206d75737460408201526808189948195c5d585b60ba1b606082015260800190565b60208082526036908201527f43616e277420616c6c6f6361746520776f726b2c207468652063757272656e74604082015275206261746368206973206e6f7420636f6d706c65746560501b606082015260800190565b60208082526026908201527f52657665616c20706572696f64206e6f74206f70656e20666f7220746869732060408201526511185d18525160d21b606082015260800190565b60208082526027908201527f617661696c61626c65546f6b656e732073686f756c64206265203e3d205f6e756040820152666d546f6b656e7360c81b606082015260800190565b60208082526017908201527f5f4461746142617463684964206d757374206578697374000000000000000000604082015260600190565b6020808252601390820152720c081059191c995cdcc8139bdd0815985b1a59606a1b604082015260600190565b6020808252602f908201527f636f756c64206e6f742072657761726420746f6b656e20696e2054726967676560408201526e3921b432b1b5a9b837ba161019173160891b606082015260800190565b60208082526021908201527f5f446174614261746368496420697320616c72656164792076616c69646174656040820152601960fa1b606082015260800190565b60208082526022908201527f4d6178696d756d207265676973746572656420776f726b65727320616c726561604082015261647960f01b606082015260800190565b60208082526037908201527f75736572206d757374206861766520656e6f75676820766f74696e672072696760408201527f68747320616b6120616c6c6f6361746564207374616b65000000000000000000606082015260800190565b6020808252602d908201527f636f756c64206e6f74207265776172642052455020696e20547269676765724360408201526c6865636b53706f742c20322e6160981b606082015260800190565b6020808252602a908201527f5f446174614261746368496420636865636b696e6720766f7465206d757374206040820152691a185d9948195b99195960b21b606082015260800190565b6020808252603b908201527f436f756c64206e6f74207769746864726177566f74696e67526967687473207460408201527f68726f7567682050726f78795374616b654465616c6c6f636174650000000000606082015260800190565b6020808252600f908201526e11185d18481b5d5cdd08195e1a5cdd608a1b604082015260600190565b6000858252846020830152608060408301526167556080830185615916565b905082606083015295945050505050565b600083825282602083015260606040830152613e4760608301615942565b6000848252836020830152608060408301526167a260808301615942565b9050826060830152949350505050565b9182526020820152606060408201819052600990820152686e756d546f6b656e7360b81b608082015260a00190565b93845260208401929092526040830152606082015260800190565b9182526001600160a01b0316602082015260400190565b9182526001600160a01b031660208201526000604082015260600190565b9283526020830191909152604082015260600190565b60006101a08f83528e60208401528d60408401528c60608401528b151560808401528a151560a084015289151560c08401528860e0840152876101008401528661012084015285610140840152806101608401526168a781840186615916565b9150506168b86101808301846158f4565b9e9d5050505050505050505050505050565b6040518181016001600160401b03811182821017156168eb576168eb616a71565b604052919050565b60006001600160401b0382111561690c5761690c616a71565b5060209081020190565b60006001600160401b0382111561692f5761692f616a71565b50601f01601f191660200190565b60009081526020902090565b6000821982111561695c5761695c616a45565b500190565b60008261697057616970616a5b565b500490565b600081600019048311821515161561698f5761698f616a45565b500290565b6000828210156169a6576169a6616a45565b500390565b60005b838110156169c65781810151838201526020016169ae565b838111156169d5576000848401525b50505050565b6002810460018216806169ef57607f821691505b60208210811415616a1057634e487b7160e01b600052602260045260246000fd5b50919050565b6000600019821415616a2a57616a2a616a45565b5060010190565b600082616a4057616a40616a5b565b500690565b634e487b7160e01b600052601160045260246000fd5b634e487b7160e01b600052601260045260246000fd5b634e487b7160e01b600052604160045260246000fdfea264697066735822122058f6237fb32fdb25c32877db8ce941952da34df0ee8557ac6b150f137e07c10564736f6c63430008000033",
  "linkReferences": {
    "contracts/worksystems/DataFormatting.sol": {
      "AttributeStore2": [
        {
          "length": 20,
          "start": 12594
        },
        {
          "length": 20,
          "start": 12702
        },
        {
          "length": 20,
          "start": 15542
        },
        {
          "length": 20,
          "start": 15801
        }
      ],
      "DLL2": [
        {
          "length": 20,
          "start": 4187
        },
        {
          "length": 20,
          "start": 4359
        },
        {
          "length": 20,
          "start": 5127
        },
        {
          "length": 20,
          "start": 11531
        },
        {
          "length": 20,
          "start": 11711
        },
        {
          "length": 20,
          "start": 12083
        },
        {
          "length": 20,
          "start": 12245
        },
        {
          "length": 20,
          "start": 12440
        },
        {
          "length": 20,
          "start": 18338
        }
      ]
    }
  },
  "deployedLinkReferences": {
    "contracts/worksystems/DataFormatting.sol": {
      "AttributeStore2": [
        {
          "length": 20,
          "start": 12194
        },
        {
          "length": 20,
          "start": 12302
        },
        {
          "length": 20,
          "start": 15142
        },
        {
          "length": 20,
          "start": 15401
        }
      ],
      "DLL2": [
        {
          "length": 20,
          "start": 3787
        },
        {
          "length": 20,
          "start": 3959
        },
        {
          "length": 20,
          "start": 4727
        },
        {
          "length": 20,
          "start": 11131
        },
        {
          "length": 20,
          "start": 11311
        },
        {
          "length": 20,
          "start": 11683
        },
        {
          "length": 20,
          "start": 11845
        },
        {
          "length": 20,
          "start": 12040
        },
        {
          "length": 20,
          "start": 17938
        }
      ]
    }
  }
}