{
  "_format": "hh-sol-artifact-1",
  "contractName": "DataFormatting",
  "sourceName": "contracts/worksystems/DataFormatting.sol",
  "abi": [
    {
      "inputs": [
        {
          "internalType": "address",
          "name": "EXDT_token",
          "type": "address"
        }
      ],
      "stateMutability": "nonpayable",
      "type": "constructor"
    },
    {
      "anonymous": false,
      "inputs": [
        {
          "indexed": false,
          "internalType": "bytes",
          "name": "bytesFailure",
          "type": "bytes"
        }
      ],
      "name": "BytesFailure",
      "type": "event"
    },
    {
      "anonymous": false,
      "inputs": [
        {
          "indexed": true,
          "internalType": "address",
          "name": "previousOwner",
          "type": "address"
        },
        {
          "indexed": true,
          "internalType": "address",
          "name": "newOwner",
          "type": "address"
        }
      ],
      "name": "OwnershipTransferred",
      "type": "event"
    },
    {
      "anonymous": false,
      "inputs": [
        {
          "indexed": false,
          "internalType": "string",
          "name": "hash",
          "type": "string"
        },
        {
          "indexed": true,
          "internalType": "address",
          "name": "creator",
          "type": "address"
        }
      ],
      "name": "_FormatAccepted",
      "type": "event"
    },
    {
      "anonymous": false,
      "inputs": [
        {
          "indexed": true,
          "internalType": "uint256",
          "name": "DataID",
          "type": "uint256"
        },
        {
          "indexed": false,
          "internalType": "uint256",
          "name": "numTokens",
          "type": "uint256"
        },
        {
          "indexed": true,
          "internalType": "address",
          "name": "voter",
          "type": "address"
        }
      ],
      "name": "_FormatCheckCommitted",
      "type": "event"
    },
    {
      "anonymous": false,
      "inputs": [
        {
          "indexed": true,
          "internalType": "uint256",
          "name": "DataID",
          "type": "uint256"
        },
        {
          "indexed": false,
          "internalType": "uint256",
          "name": "numTokens",
          "type": "uint256"
        },
        {
          "indexed": false,
          "internalType": "uint256",
          "name": "votesFor",
          "type": "uint256"
        },
        {
          "indexed": false,
          "internalType": "uint256",
          "name": "votesAgainst",
          "type": "uint256"
        },
        {
          "indexed": true,
          "internalType": "uint256",
          "name": "choice",
          "type": "uint256"
        },
        {
          "indexed": true,
          "internalType": "address",
          "name": "voter",
          "type": "address"
        }
      ],
      "name": "_FormatCheckRevealed",
      "type": "event"
    },
    {
      "anonymous": false,
      "inputs": [
        {
          "indexed": true,
          "internalType": "uint256",
          "name": "DataID",
          "type": "uint256"
        },
        {
          "indexed": false,
          "internalType": "string",
          "name": "file_hash",
          "type": "string"
        },
        {
          "indexed": false,
          "internalType": "address",
          "name": "sender",
          "type": "address"
        }
      ],
      "name": "_FormatSubmitted",
      "type": "event"
    },
    {
      "anonymous": false,
      "inputs": [
        {
          "indexed": true,
          "internalType": "uint256",
          "name": "epochNumber",
          "type": "uint256"
        }
      ],
      "name": "_NewEpoch",
      "type": "event"
    },
    {
      "anonymous": false,
      "inputs": [
        {
          "indexed": true,
          "internalType": "uint256",
          "name": "DataID",
          "type": "uint256"
        },
        {
          "indexed": true,
          "internalType": "address",
          "name": "voter",
          "type": "address"
        }
      ],
      "name": "_TokensRescued",
      "type": "event"
    },
    {
      "anonymous": false,
      "inputs": [
        {
          "indexed": false,
          "internalType": "uint256",
          "name": "numTokens",
          "type": "uint256"
        },
        {
          "indexed": true,
          "internalType": "address",
          "name": "voter",
          "type": "address"
        }
      ],
      "name": "_VotingRightsGranted",
      "type": "event"
    },
    {
      "anonymous": false,
      "inputs": [
        {
          "indexed": false,
          "internalType": "uint256",
          "name": "numTokens",
          "type": "uint256"
        },
        {
          "indexed": true,
          "internalType": "address",
          "name": "voter",
          "type": "address"
        }
      ],
      "name": "_VotingRightsWithdrawn",
      "type": "event"
    },
    {
      "anonymous": false,
      "inputs": [
        {
          "indexed": true,
          "internalType": "uint256",
          "name": "batchID",
          "type": "uint256"
        },
        {
          "indexed": false,
          "internalType": "address",
          "name": "worker",
          "type": "address"
        }
      ],
      "name": "_WorkAllocated",
      "type": "event"
    },
    {
      "anonymous": false,
      "inputs": [
        {
          "indexed": true,
          "internalType": "address",
          "name": "worker",
          "type": "address"
        },
        {
          "indexed": false,
          "internalType": "uint256",
          "name": "timestamp",
          "type": "uint256"
        }
      ],
      "name": "_WorkerRegistered",
      "type": "event"
    },
    {
      "anonymous": false,
      "inputs": [
        {
          "indexed": true,
          "internalType": "address",
          "name": "worker",
          "type": "address"
        },
        {
          "indexed": false,
          "internalType": "uint256",
          "name": "timestamp",
          "type": "uint256"
        }
      ],
      "name": "_WorkerUnregistered",
      "type": "event"
    },
    {
      "inputs": [],
      "name": "AcceptedBatchsCounter",
      "outputs": [
        {
          "internalType": "uint256",
          "name": "",
          "type": "uint256"
        }
      ],
      "stateMutability": "view",
      "type": "function"
    },
    {
      "inputs": [],
      "name": "AddressManager",
      "outputs": [
        {
          "internalType": "contract IAddressManager",
          "name": "",
          "type": "address"
        }
      ],
      "stateMutability": "view",
      "type": "function"
    },
    {
      "inputs": [],
      "name": "AllTxsCounter",
      "outputs": [
        {
          "internalType": "uint256",
          "name": "",
          "type": "uint256"
        }
      ],
      "stateMutability": "view",
      "type": "function"
    },
    {
      "inputs": [],
      "name": "AllocateWork",
      "outputs": [],
      "stateMutability": "nonpayable",
      "type": "function"
    },
    {
      "inputs": [],
      "name": "AllocatedBatchCursor",
      "outputs": [
        {
          "internalType": "uint256",
          "name": "",
          "type": "uint256"
        }
      ],
      "stateMutability": "view",
      "type": "function"
    },
    {
      "inputs": [],
      "name": "AmIRegistered",
      "outputs": [
        {
          "internalType": "bool",
          "name": "passed",
          "type": "bool"
        }
      ],
      "stateMutability": "view",
      "type": "function"
    },
    {
      "inputs": [],
      "name": "ArchiveSystem",
      "outputs": [
        {
          "internalType": "contract IArchiveSystem",
          "name": "",
          "type": "address"
        }
      ],
      "stateMutability": "view",
      "type": "function"
    },
    {
      "inputs": [
        {
          "internalType": "string",
          "name": "_a",
          "type": "string"
        },
        {
          "internalType": "string",
          "name": "_b",
          "type": "string"
        }
      ],
      "name": "AreStringsEqual",
      "outputs": [
        {
          "internalType": "bool",
          "name": "",
          "type": "bool"
        }
      ],
      "stateMutability": "pure",
      "type": "function"
    },
    {
      "inputs": [],
      "name": "BatchCheckingCursor",
      "outputs": [
        {
          "internalType": "uint256",
          "name": "",
          "type": "uint256"
        }
      ],
      "stateMutability": "view",
      "type": "function"
    },
    {
      "inputs": [],
      "name": "COMMIT_ROUND_DURATION",
      "outputs": [
        {
          "internalType": "uint256",
          "name": "",
          "type": "uint256"
        }
      ],
      "stateMutability": "view",
      "type": "function"
    },
    {
      "inputs": [],
      "name": "CONSENSUS_WORKER_SIZE",
      "outputs": [
        {
          "internalType": "uint256",
          "name": "",
          "type": "uint256"
        }
      ],
      "stateMutability": "view",
      "type": "function"
    },
    {
      "inputs": [
        {
          "internalType": "uint256",
          "name": "",
          "type": "uint256"
        }
      ],
      "name": "CollectedSpotBatchs",
      "outputs": [
        {
          "internalType": "bool",
          "name": "",
          "type": "bool"
        }
      ],
      "stateMutability": "view",
      "type": "function"
    },
    {
      "inputs": [],
      "name": "CurrentWorkEpoch",
      "outputs": [
        {
          "internalType": "uint256",
          "name": "",
          "type": "uint256"
        }
      ],
      "stateMutability": "view",
      "type": "function"
    },
    {
      "inputs": [],
      "name": "DATA_BATCH_SIZE",
      "outputs": [
        {
          "internalType": "uint256",
          "name": "",
          "type": "uint256"
        }
      ],
      "stateMutability": "view",
      "type": "function"
    },
    {
      "inputs": [
        {
          "internalType": "uint256",
          "name": "",
          "type": "uint256"
        }
      ],
      "name": "DataBatch",
      "outputs": [
        {
          "internalType": "uint256",
          "name": "start_idx",
          "type": "uint256"
        },
        {
          "internalType": "uint256",
          "name": "counter",
          "type": "uint256"
        },
        {
          "internalType": "uint256",
          "name": "unrevealed_workers",
          "type": "uint256"
        },
        {
          "internalType": "uint256",
          "name": "uncommited_workers",
          "type": "uint256"
        },
        {
          "internalType": "uint256",
          "name": "item_count",
          "type": "uint256"
        },
        {
          "internalType": "bool",
          "name": "complete",
          "type": "bool"
        },
        {
          "internalType": "bool",
          "name": "checked",
          "type": "bool"
        },
        {
          "internalType": "bool",
          "name": "allocated_to_work",
          "type": "bool"
        },
        {
          "internalType": "uint256",
          "name": "commitEndDate",
          "type": "uint256"
        },
        {
          "internalType": "uint256",
          "name": "revealEndDate",
          "type": "uint256"
        },
        {
          "internalType": "uint256",
          "name": "votesFor",
          "type": "uint256"
        },
        {
          "internalType": "uint256",
          "name": "votesAgainst",
          "type": "uint256"
        },
        {
          "internalType": "string",
          "name": "batchIPFSfile",
          "type": "string"
        },
        {
          "internalType": "enum DataFormatting.DataStatus",
          "name": "status",
          "type": "uint8"
        }
      ],
      "stateMutability": "view",
      "type": "function"
    },
    {
      "inputs": [
        {
          "internalType": "uint256",
          "name": "_DataBatchId",
          "type": "uint256"
        }
      ],
      "name": "DataCommitEndDate",
      "outputs": [
        {
          "internalType": "uint256",
          "name": "commitEndDate",
          "type": "uint256"
        }
      ],
      "stateMutability": "view",
      "type": "function"
    },
    {
      "inputs": [
        {
          "internalType": "uint256",
          "name": "_DataBatchId",
          "type": "uint256"
        }
      ],
      "name": "DataEnded",
      "outputs": [
        {
          "internalType": "bool",
          "name": "ended",
          "type": "bool"
        }
      ],
      "stateMutability": "view",
      "type": "function"
    },
    {
      "inputs": [
        {
          "internalType": "uint256",
          "name": "_DataBatchId",
          "type": "uint256"
        }
      ],
      "name": "DataExists",
      "outputs": [
        {
          "internalType": "bool",
          "name": "exists",
          "type": "bool"
        }
      ],
      "stateMutability": "view",
      "type": "function"
    },
    {
      "inputs": [],
      "name": "DataNonce",
      "outputs": [
        {
          "internalType": "uint256",
          "name": "",
          "type": "uint256"
        }
      ],
      "stateMutability": "view",
      "type": "function"
    },
    {
      "inputs": [
        {
          "internalType": "uint256",
          "name": "_DataBatchId",
          "type": "uint256"
        }
      ],
      "name": "DataRevealEndDate",
      "outputs": [
        {
          "internalType": "uint256",
          "name": "revealEndDate",
          "type": "uint256"
        }
      ],
      "stateMutability": "view",
      "type": "function"
    },
    {
      "inputs": [
        {
          "internalType": "address",
          "name": "",
          "type": "address"
        }
      ],
      "name": "FormatStakedTokenBalance",
      "outputs": [
        {
          "internalType": "uint256",
          "name": "",
          "type": "uint256"
        }
      ],
      "stateMutability": "view",
      "type": "function"
    },
    {
      "inputs": [
        {
          "internalType": "uint256",
          "name": "",
          "type": "uint256"
        }
      ],
      "name": "FormatsMapping",
      "outputs": [
        {
          "internalType": "string",
          "name": "ipfs_hash",
          "type": "string"
        },
        {
          "internalType": "address",
          "name": "author",
          "type": "address"
        },
        {
          "internalType": "uint256",
          "name": "timestamp",
          "type": "uint256"
        },
        {
          "internalType": "enum DataFormatting.DataStatus",
          "name": "status",
          "type": "uint8"
        }
      ],
      "stateMutability": "view",
      "type": "function"
    },
    {
      "inputs": [
        {
          "internalType": "address",
          "name": "user_",
          "type": "address"
        }
      ],
      "name": "GetCurrentWork",
      "outputs": [
        {
          "internalType": "uint256",
          "name": "",
          "type": "uint256"
        }
      ],
      "stateMutability": "view",
      "type": "function"
    },
    {
      "inputs": [
        {
          "internalType": "address",
          "name": "user_",
          "type": "address"
        }
      ],
      "name": "IsNewWorkAvailable",
      "outputs": [
        {
          "internalType": "bool",
          "name": "",
          "type": "bool"
        }
      ],
      "stateMutability": "view",
      "type": "function"
    },
    {
      "inputs": [],
      "name": "LastBatchCounter",
      "outputs": [
        {
          "internalType": "uint256",
          "name": "",
          "type": "uint256"
        }
      ],
      "stateMutability": "view",
      "type": "function"
    },
    {
      "inputs": [],
      "name": "MIN_CONSENSUS_WORKER_COUNT",
      "outputs": [
        {
          "internalType": "uint256",
          "name": "",
          "type": "uint256"
        }
      ],
      "stateMutability": "view",
      "type": "function"
    },
    {
      "inputs": [],
      "name": "MIN_REP_Data",
      "outputs": [
        {
          "internalType": "uint256",
          "name": "",
          "type": "uint256"
        }
      ],
      "stateMutability": "view",
      "type": "function"
    },
    {
      "inputs": [],
      "name": "MIN_REP_REVEAL",
      "outputs": [
        {
          "internalType": "uint256",
          "name": "",
          "type": "uint256"
        }
      ],
      "stateMutability": "view",
      "type": "function"
    },
    {
      "inputs": [],
      "name": "MIN_REWARD_Data",
      "outputs": [
        {
          "internalType": "uint256",
          "name": "",
          "type": "uint256"
        }
      ],
      "stateMutability": "view",
      "type": "function"
    },
    {
      "inputs": [],
      "name": "MIN_STAKE",
      "outputs": [
        {
          "internalType": "uint256",
          "name": "",
          "type": "uint256"
        }
      ],
      "stateMutability": "view",
      "type": "function"
    },
    {
      "inputs": [
        {
          "internalType": "address",
          "name": "",
          "type": "address"
        },
        {
          "internalType": "uint256",
          "name": "",
          "type": "uint256"
        }
      ],
      "name": "MasterWorkers",
      "outputs": [
        {
          "internalType": "address",
          "name": "",
          "type": "address"
        }
      ],
      "stateMutability": "view",
      "type": "function"
    },
    {
      "inputs": [],
      "name": "NotCommitedCounter",
      "outputs": [
        {
          "internalType": "uint256",
          "name": "",
          "type": "uint256"
        }
      ],
      "stateMutability": "view",
      "type": "function"
    },
    {
      "inputs": [],
      "name": "NotRevealedCounter",
      "outputs": [
        {
          "internalType": "uint256",
          "name": "",
          "type": "uint256"
        }
      ],
      "stateMutability": "view",
      "type": "function"
    },
    {
      "inputs": [
        {
          "internalType": "uint256",
          "name": "CheckedBatchId",
          "type": "uint256"
        }
      ],
      "name": "Ping",
      "outputs": [],
      "stateMutability": "nonpayable",
      "type": "function"
    },
    {
      "inputs": [],
      "name": "REVEAL_ROUND_DURATION",
      "outputs": [
        {
          "internalType": "uint256",
          "name": "",
          "type": "uint256"
        }
      ],
      "stateMutability": "view",
      "type": "function"
    },
    {
      "inputs": [],
      "name": "RegisterWorker",
      "outputs": [],
      "stateMutability": "nonpayable",
      "type": "function"
    },
    {
      "inputs": [],
      "name": "RejectedBatchsCounter",
      "outputs": [
        {
          "internalType": "uint256",
          "name": "",
          "type": "uint256"
        }
      ],
      "stateMutability": "view",
      "type": "function"
    },
    {
      "inputs": [],
      "name": "RepManager",
      "outputs": [
        {
          "internalType": "contract IRepManager",
          "name": "",
          "type": "address"
        }
      ],
      "stateMutability": "view",
      "type": "function"
    },
    {
      "inputs": [],
      "name": "RewardManager",
      "outputs": [
        {
          "internalType": "contract IRewardManager",
          "name": "",
          "type": "address"
        }
      ],
      "stateMutability": "view",
      "type": "function"
    },
    {
      "inputs": [],
      "name": "SpottingSystem",
      "outputs": [
        {
          "internalType": "contract ISpottingSystem",
          "name": "",
          "type": "address"
        }
      ],
      "stateMutability": "view",
      "type": "function"
    },
    {
      "inputs": [],
      "name": "StakeManager",
      "outputs": [
        {
          "internalType": "contract IStakeManager",
          "name": "",
          "type": "address"
        }
      ],
      "stateMutability": "view",
      "type": "function"
    },
    {
      "inputs": [],
      "name": "TriggerNextEpoch",
      "outputs": [],
      "stateMutability": "nonpayable",
      "type": "function"
    },
    {
      "inputs": [],
      "name": "UnregisterWorker",
      "outputs": [],
      "stateMutability": "nonpayable",
      "type": "function"
    },
    {
      "inputs": [
        {
          "internalType": "uint256",
          "name": "",
          "type": "uint256"
        },
        {
          "internalType": "address",
          "name": "",
          "type": "address"
        }
      ],
      "name": "UserBatchCounts",
      "outputs": [
        {
          "internalType": "uint256",
          "name": "",
          "type": "uint256"
        }
      ],
      "stateMutability": "view",
      "type": "function"
    },
    {
      "inputs": [
        {
          "internalType": "uint256",
          "name": "",
          "type": "uint256"
        },
        {
          "internalType": "address",
          "name": "",
          "type": "address"
        }
      ],
      "name": "UserBatchFrom",
      "outputs": [
        {
          "internalType": "string",
          "name": "",
          "type": "string"
        }
      ],
      "stateMutability": "view",
      "type": "function"
    },
    {
      "inputs": [
        {
          "internalType": "address",
          "name": "",
          "type": "address"
        },
        {
          "internalType": "uint256",
          "name": "",
          "type": "uint256"
        }
      ],
      "name": "UserChecksCommits",
      "outputs": [
        {
          "internalType": "bool",
          "name": "",
          "type": "bool"
        }
      ],
      "stateMutability": "view",
      "type": "function"
    },
    {
      "inputs": [
        {
          "internalType": "address",
          "name": "",
          "type": "address"
        },
        {
          "internalType": "uint256",
          "name": "",
          "type": "uint256"
        }
      ],
      "name": "UserChecksReveals",
      "outputs": [
        {
          "internalType": "bool",
          "name": "",
          "type": "bool"
        }
      ],
      "stateMutability": "view",
      "type": "function"
    },
    {
      "inputs": [
        {
          "internalType": "uint256",
          "name": "",
          "type": "uint256"
        },
        {
          "internalType": "address",
          "name": "",
          "type": "address"
        }
      ],
      "name": "UserNewFiles",
      "outputs": [
        {
          "internalType": "string",
          "name": "",
          "type": "string"
        }
      ],
      "stateMutability": "view",
      "type": "function"
    },
    {
      "inputs": [
        {
          "internalType": "uint256",
          "name": "",
          "type": "uint256"
        },
        {
          "internalType": "address",
          "name": "",
          "type": "address"
        }
      ],
      "name": "UserVotes",
      "outputs": [
        {
          "internalType": "uint256",
          "name": "",
          "type": "uint256"
        }
      ],
      "stateMutability": "view",
      "type": "function"
    },
    {
      "inputs": [],
      "name": "VOTE_QUORUM",
      "outputs": [
        {
          "internalType": "uint256",
          "name": "",
          "type": "uint256"
        }
      ],
      "stateMutability": "view",
      "type": "function"
    },
    {
      "inputs": [
        {
          "internalType": "uint256",
          "name": "_DataBatchId",
          "type": "uint256"
        }
      ],
      "name": "ValidateDataBatch",
      "outputs": [],
      "stateMutability": "nonpayable",
      "type": "function"
    },
    {
      "inputs": [
        {
          "internalType": "uint256",
          "name": "",
          "type": "uint256"
        },
        {
          "internalType": "uint256",
          "name": "",
          "type": "uint256"
        }
      ],
      "name": "WorkersPerBatch",
      "outputs": [
        {
          "internalType": "address",
          "name": "",
          "type": "address"
        }
      ],
      "stateMutability": "view",
      "type": "function"
    },
    {
      "inputs": [
        {
          "internalType": "address",
          "name": "",
          "type": "address"
        }
      ],
      "name": "WorkersState",
      "outputs": [
        {
          "internalType": "address",
          "name": "worker_address",
          "type": "address"
        },
        {
          "internalType": "address",
          "name": "master_address",
          "type": "address"
        },
        {
          "internalType": "uint256",
          "name": "allocated_work_batch",
          "type": "uint256"
        },
        {
          "internalType": "bool",
          "name": "has_completed_work",
          "type": "bool"
        },
        {
          "internalType": "uint256",
          "name": "last_worked_round",
          "type": "uint256"
        },
        {
          "internalType": "uint256",
          "name": "last_interaction_date",
          "type": "uint256"
        },
        {
          "internalType": "string",
          "name": "extra",
          "type": "string"
        },
        {
          "internalType": "bool",
          "name": "registered",
          "type": "bool"
        },
        {
          "internalType": "bool",
          "name": "unregistration_request",
          "type": "bool"
        },
        {
          "internalType": "uint256",
          "name": "registration_date",
          "type": "uint256"
        },
        {
          "internalType": "uint256",
          "name": "majority_counter",
          "type": "uint256"
        },
        {
          "internalType": "uint256",
          "name": "minority_counter",
          "type": "uint256"
        }
      ],
      "stateMutability": "view",
      "type": "function"
    },
    {
      "inputs": [
        {
          "internalType": "address",
          "name": "_user",
          "type": "address"
        },
        {
          "internalType": "uint256",
          "name": "_DataBatchId",
          "type": "uint256"
        }
      ],
      "name": "attrUUID",
      "outputs": [
        {
          "internalType": "bytes32",
          "name": "UUID",
          "type": "bytes32"
        }
      ],
      "stateMutability": "pure",
      "type": "function"
    },
    {
      "inputs": [
        {
          "internalType": "uint256",
          "name": "",
          "type": "uint256"
        }
      ],
      "name": "availableWorkers",
      "outputs": [
        {
          "internalType": "address",
          "name": "",
          "type": "address"
        }
      ],
      "stateMutability": "view",
      "type": "function"
    },
    {
      "inputs": [
        {
          "internalType": "uint256",
          "name": "",
          "type": "uint256"
        }
      ],
      "name": "busyWorkers",
      "outputs": [
        {
          "internalType": "address",
          "name": "",
          "type": "address"
        }
      ],
      "stateMutability": "view",
      "type": "function"
    },
    {
      "inputs": [
        {
          "internalType": "uint256",
          "name": "_DataBatchId",
          "type": "uint256"
        },
        {
          "internalType": "bytes32",
          "name": "_secretIPFSHash",
          "type": "bytes32"
        },
        {
          "internalType": "uint256",
          "name": "_BatchCount",
          "type": "uint256"
        },
        {
          "internalType": "string",
          "name": "_From",
          "type": "string"
        }
      ],
      "name": "commitFormatCheck",
      "outputs": [],
      "stateMutability": "nonpayable",
      "type": "function"
    },
    {
      "inputs": [
        {
          "internalType": "uint256",
          "name": "_DataBatchId",
          "type": "uint256"
        }
      ],
      "name": "commitPeriodActive",
      "outputs": [
        {
          "internalType": "bool",
          "name": "active",
          "type": "bool"
        }
      ],
      "stateMutability": "view",
      "type": "function"
    },
    {
      "inputs": [
        {
          "internalType": "uint256",
          "name": "_DataId",
          "type": "uint256"
        }
      ],
      "name": "deleteData",
      "outputs": [],
      "stateMutability": "nonpayable",
      "type": "function"
    },
    {
      "inputs": [
        {
          "internalType": "uint256",
          "name": "_BatchId",
          "type": "uint256"
        }
      ],
      "name": "deleteDataBatch",
      "outputs": [],
      "stateMutability": "nonpayable",
      "type": "function"
    },
    {
      "inputs": [
        {
          "internalType": "uint256",
          "name": "_BatchId",
          "type": "uint256"
        }
      ],
      "name": "deleteMapping",
      "outputs": [],
      "stateMutability": "nonpayable",
      "type": "function"
    },
    {
      "inputs": [
        {
          "internalType": "address",
          "name": "_voter",
          "type": "address"
        },
        {
          "internalType": "uint256",
          "name": "_DataBatchId",
          "type": "uint256"
        }
      ],
      "name": "didCommit",
      "outputs": [
        {
          "internalType": "bool",
          "name": "committed",
          "type": "bool"
        }
      ],
      "stateMutability": "view",
      "type": "function"
    },
    {
      "inputs": [
        {
          "internalType": "address",
          "name": "_voter",
          "type": "address"
        },
        {
          "internalType": "uint256",
          "name": "_DataBatchId",
          "type": "uint256"
        }
      ],
      "name": "didReveal",
      "outputs": [
        {
          "internalType": "bool",
          "name": "revealed",
          "type": "bool"
        }
      ],
      "stateMutability": "view",
      "type": "function"
    },
    {
      "inputs": [
        {
          "internalType": "uint256",
          "name": "_k",
          "type": "uint256"
        },
        {
          "internalType": "uint256",
          "name": "N_range",
          "type": "uint256"
        }
      ],
      "name": "generateIntegers",
      "outputs": [
        {
          "internalType": "uint256[]",
          "name": "",
          "type": "uint256[]"
        }
      ],
      "stateMutability": "view",
      "type": "function"
    },
    {
      "inputs": [],
      "name": "getAcceptedBatchesCount",
      "outputs": [
        {
          "internalType": "uint256",
          "name": "count",
          "type": "uint256"
        }
      ],
      "stateMutability": "view",
      "type": "function"
    },
    {
      "inputs": [],
      "name": "getActiveWorkersCount",
      "outputs": [
        {
          "internalType": "uint256",
          "name": "numWorkers",
          "type": "uint256"
        }
      ],
      "stateMutability": "view",
      "type": "function"
    },
    {
      "inputs": [
        {
          "internalType": "uint256",
          "name": "_DataBatchId",
          "type": "uint256"
        }
      ],
      "name": "getBatchByID",
      "outputs": [
        {
          "components": [
            {
              "internalType": "uint256",
              "name": "start_idx",
              "type": "uint256"
            },
            {
              "internalType": "uint256",
              "name": "counter",
              "type": "uint256"
            },
            {
              "internalType": "uint256",
              "name": "unrevealed_workers",
              "type": "uint256"
            },
            {
              "internalType": "uint256",
              "name": "uncommited_workers",
              "type": "uint256"
            },
            {
              "internalType": "uint256",
              "name": "item_count",
              "type": "uint256"
            },
            {
              "internalType": "bool",
              "name": "complete",
              "type": "bool"
            },
            {
              "internalType": "bool",
              "name": "checked",
              "type": "bool"
            },
            {
              "internalType": "bool",
              "name": "allocated_to_work",
              "type": "bool"
            },
            {
              "internalType": "uint256",
              "name": "commitEndDate",
              "type": "uint256"
            },
            {
              "internalType": "uint256",
              "name": "revealEndDate",
              "type": "uint256"
            },
            {
              "internalType": "uint256",
              "name": "votesFor",
              "type": "uint256"
            },
            {
              "internalType": "uint256",
              "name": "votesAgainst",
              "type": "uint256"
            },
            {
              "internalType": "string",
              "name": "batchIPFSfile",
              "type": "string"
            },
            {
              "internalType": "enum DataFormatting.DataStatus",
              "name": "status",
              "type": "uint8"
            }
          ],
          "internalType": "struct DataFormatting.BatchMetadata",
          "name": "batch",
          "type": "tuple"
        }
      ],
      "stateMutability": "view",
      "type": "function"
    },
    {
      "inputs": [
        {
          "internalType": "uint256",
          "name": "_DataBatchId",
          "type": "uint256"
        }
      ],
      "name": "getBatchIPFSFileByID",
      "outputs": [
        {
          "internalType": "string",
          "name": "batch",
          "type": "string"
        }
      ],
      "stateMutability": "view",
      "type": "function"
    },
    {
      "inputs": [
        {
          "internalType": "address",
          "name": "_voter",
          "type": "address"
        },
        {
          "internalType": "uint256",
          "name": "_DataBatchId",
          "type": "uint256"
        }
      ],
      "name": "getCommitHash",
      "outputs": [
        {
          "internalType": "bytes32",
          "name": "commitHash",
          "type": "bytes32"
        }
      ],
      "stateMutability": "view",
      "type": "function"
    },
    {
      "inputs": [],
      "name": "getCurrentWorkEpoch",
      "outputs": [
        {
          "internalType": "uint256",
          "name": "WorkEpoch",
          "type": "uint256"
        }
      ],
      "stateMutability": "view",
      "type": "function"
    },
    {
      "inputs": [
        {
          "internalType": "uint256",
          "name": "_DataId",
          "type": "uint256"
        }
      ],
      "name": "getDataByID",
      "outputs": [
        {
          "components": [
            {
              "internalType": "string",
              "name": "ipfs_hash",
              "type": "string"
            },
            {
              "internalType": "address",
              "name": "author",
              "type": "address"
            },
            {
              "internalType": "uint256",
              "name": "timestamp",
              "type": "uint256"
            },
            {
              "internalType": "enum DataFormatting.DataStatus",
              "name": "status",
              "type": "uint8"
            }
          ],
          "internalType": "struct DataFormatting.FormattedData",
          "name": "data",
          "type": "tuple"
        }
      ],
      "stateMutability": "view",
      "type": "function"
    },
    {
      "inputs": [
        {
          "internalType": "string",
          "name": "_hash",
          "type": "string"
        },
        {
          "internalType": "uint256",
          "name": "_salt",
          "type": "uint256"
        }
      ],
      "name": "getEncryptedStringHash",
      "outputs": [
        {
          "internalType": "bytes32",
          "name": "keccak256hash",
          "type": "bytes32"
        }
      ],
      "stateMutability": "pure",
      "type": "function"
    },
    {
      "inputs": [
        {
          "internalType": "uint256",
          "name": "_DataBatchId",
          "type": "uint256"
        }
      ],
      "name": "getIPFShashesForBatch",
      "outputs": [
        {
          "internalType": "string[]",
          "name": "",
          "type": "string[]"
        }
      ],
      "stateMutability": "view",
      "type": "function"
    },
    {
      "inputs": [],
      "name": "getLastAllocatedBatchId",
      "outputs": [
        {
          "internalType": "uint256",
          "name": "LastAllocatedBatchId",
          "type": "uint256"
        }
      ],
      "stateMutability": "view",
      "type": "function"
    },
    {
      "inputs": [],
      "name": "getLastBatchId",
      "outputs": [
        {
          "internalType": "uint256",
          "name": "LastBatchId",
          "type": "uint256"
        }
      ],
      "stateMutability": "view",
      "type": "function"
    },
    {
      "inputs": [],
      "name": "getLastCheckedBatchId",
      "outputs": [
        {
          "internalType": "uint256",
          "name": "LastCheckedBatchId",
          "type": "uint256"
        }
      ],
      "stateMutability": "view",
      "type": "function"
    },
    {
      "inputs": [],
      "name": "getLastDataId",
      "outputs": [
        {
          "internalType": "uint256",
          "name": "DataId",
          "type": "uint256"
        }
      ],
      "stateMutability": "view",
      "type": "function"
    },
    {
      "inputs": [
        {
          "internalType": "address",
          "name": "_voter",
          "type": "address"
        }
      ],
      "name": "getLastNode",
      "outputs": [
        {
          "internalType": "uint256",
          "name": "DataID",
          "type": "uint256"
        }
      ],
      "stateMutability": "view",
      "type": "function"
    },
    {
      "inputs": [
        {
          "internalType": "address",
          "name": "_voter",
          "type": "address"
        }
      ],
      "name": "getLockedTokens",
      "outputs": [
        {
          "internalType": "uint256",
          "name": "numTokens",
          "type": "uint256"
        }
      ],
      "stateMutability": "view",
      "type": "function"
    },
    {
      "inputs": [],
      "name": "getMySystemTokenBalance",
      "outputs": [
        {
          "internalType": "uint256",
          "name": "tokens",
          "type": "uint256"
        }
      ],
      "stateMutability": "view",
      "type": "function"
    },
    {
      "inputs": [
        {
          "internalType": "address",
          "name": "_voter",
          "type": "address"
        },
        {
          "internalType": "uint256",
          "name": "_DataBatchId",
          "type": "uint256"
        },
        {
          "internalType": "uint256",
          "name": "_salt",
          "type": "uint256"
        }
      ],
      "name": "getNumPassingTokens",
      "outputs": [
        {
          "internalType": "uint256",
          "name": "correctFormatChecks",
          "type": "uint256"
        }
      ],
      "stateMutability": "view",
      "type": "function"
    },
    {
      "inputs": [
        {
          "internalType": "address",
          "name": "_voter",
          "type": "address"
        },
        {
          "internalType": "uint256",
          "name": "_DataBatchId",
          "type": "uint256"
        }
      ],
      "name": "getNumTokens",
      "outputs": [
        {
          "internalType": "uint256",
          "name": "numTokens",
          "type": "uint256"
        }
      ],
      "stateMutability": "view",
      "type": "function"
    },
    {
      "inputs": [],
      "name": "getRandom",
      "outputs": [
        {
          "internalType": "uint256",
          "name": "",
          "type": "uint256"
        }
      ],
      "stateMutability": "view",
      "type": "function"
    },
    {
      "inputs": [],
      "name": "getRejectedBatchesCount",
      "outputs": [
        {
          "internalType": "uint256",
          "name": "count",
          "type": "uint256"
        }
      ],
      "stateMutability": "view",
      "type": "function"
    },
    {
      "inputs": [],
      "name": "getSeed",
      "outputs": [
        {
          "internalType": "bytes32",
          "name": "addr",
          "type": "bytes32"
        }
      ],
      "stateMutability": "view",
      "type": "function"
    },
    {
      "inputs": [
        {
          "internalType": "address",
          "name": "_user",
          "type": "address"
        }
      ],
      "name": "getSystemTokenBalance",
      "outputs": [
        {
          "internalType": "uint256",
          "name": "tokens",
          "type": "uint256"
        }
      ],
      "stateMutability": "view",
      "type": "function"
    },
    {
      "inputs": [
        {
          "internalType": "uint256",
          "name": "_DataBatchId",
          "type": "uint256"
        }
      ],
      "name": "getTotalNumberOfFormatChecks",
      "outputs": [
        {
          "internalType": "uint256",
          "name": "vc",
          "type": "uint256"
        }
      ],
      "stateMutability": "view",
      "type": "function"
    },
    {
      "inputs": [],
      "name": "getTxCounter",
      "outputs": [
        {
          "internalType": "uint256",
          "name": "Counter",
          "type": "uint256"
        }
      ],
      "stateMutability": "view",
      "type": "function"
    },
    {
      "inputs": [
        {
          "internalType": "uint256",
          "name": "_terminationDate",
          "type": "uint256"
        }
      ],
      "name": "isExpired",
      "outputs": [
        {
          "internalType": "bool",
          "name": "expired",
          "type": "bool"
        }
      ],
      "stateMutability": "view",
      "type": "function"
    },
    {
      "inputs": [
        {
          "internalType": "uint256",
          "name": "_DataBatchId",
          "type": "uint256"
        }
      ],
      "name": "isPassed",
      "outputs": [
        {
          "internalType": "bool",
          "name": "passed",
          "type": "bool"
        }
      ],
      "stateMutability": "view",
      "type": "function"
    },
    {
      "inputs": [
        {
          "internalType": "uint256",
          "name": "_DataBatchId",
          "type": "uint256"
        },
        {
          "internalType": "address",
          "name": "_worker",
          "type": "address"
        }
      ],
      "name": "isWorkerAllocatedToBatch",
      "outputs": [
        {
          "internalType": "bool",
          "name": "",
          "type": "bool"
        }
      ],
      "stateMutability": "view",
      "type": "function"
    },
    {
      "inputs": [
        {
          "internalType": "address",
          "name": "_worker",
          "type": "address"
        }
      ],
      "name": "isWorkerRegistered",
      "outputs": [
        {
          "internalType": "bool",
          "name": "passed",
          "type": "bool"
        }
      ],
      "stateMutability": "view",
      "type": "function"
    },
    {
      "inputs": [],
      "name": "owner",
      "outputs": [
        {
          "internalType": "address",
          "name": "",
          "type": "address"
        }
      ],
      "stateMutability": "view",
      "type": "function"
    },
    {
      "inputs": [
        {
          "internalType": "uint256",
          "name": "k",
          "type": "uint256"
        },
        {
          "internalType": "uint256",
          "name": "N",
          "type": "uint256"
        }
      ],
      "name": "random_selection",
      "outputs": [
        {
          "internalType": "uint256[]",
          "name": "",
          "type": "uint256[]"
        }
      ],
      "stateMutability": "view",
      "type": "function"
    },
    {
      "inputs": [],
      "name": "renounceOwnership",
      "outputs": [],
      "stateMutability": "nonpayable",
      "type": "function"
    },
    {
      "inputs": [
        {
          "internalType": "uint256",
          "name": "_numTokens",
          "type": "uint256"
        }
      ],
      "name": "requestVotingRights",
      "outputs": [],
      "stateMutability": "nonpayable",
      "type": "function"
    },
    {
      "inputs": [
        {
          "internalType": "uint256",
          "name": "_DataBatchId",
          "type": "uint256"
        }
      ],
      "name": "rescueTokens",
      "outputs": [],
      "stateMutability": "nonpayable",
      "type": "function"
    },
    {
      "inputs": [
        {
          "internalType": "uint256[]",
          "name": "_DataBatchIDs",
          "type": "uint256[]"
        }
      ],
      "name": "rescueTokensInMultipleDatas",
      "outputs": [],
      "stateMutability": "nonpayable",
      "type": "function"
    },
    {
      "inputs": [
        {
          "internalType": "uint256",
          "name": "_DataBatchId",
          "type": "uint256"
        },
        {
          "internalType": "uint256",
          "name": "_voteOption",
          "type": "uint256"
        },
        {
          "internalType": "string",
          "name": "_clearIPFSHash",
          "type": "string"
        },
        {
          "internalType": "uint256",
          "name": "_salt",
          "type": "uint256"
        }
      ],
      "name": "revealFormatCheck",
      "outputs": [],
      "stateMutability": "nonpayable",
      "type": "function"
    },
    {
      "inputs": [
        {
          "internalType": "uint256",
          "name": "_DataBatchId",
          "type": "uint256"
        }
      ],
      "name": "revealPeriodActive",
      "outputs": [
        {
          "internalType": "bool",
          "name": "active",
          "type": "bool"
        }
      ],
      "stateMutability": "view",
      "type": "function"
    },
    {
      "inputs": [],
      "name": "sFuel",
      "outputs": [
        {
          "internalType": "address",
          "name": "",
          "type": "address"
        }
      ],
      "stateMutability": "view",
      "type": "function"
    },
    {
      "inputs": [
        {
          "internalType": "uint256",
          "name": "N",
          "type": "uint256"
        }
      ],
      "name": "shuffle_array",
      "outputs": [
        {
          "internalType": "uint256[]",
          "name": "",
          "type": "uint256[]"
        }
      ],
      "stateMutability": "view",
      "type": "function"
    },
    {
      "inputs": [
        {
          "internalType": "uint256",
          "name": "",
          "type": "uint256"
        }
      ],
      "name": "toUnregisterWorkers",
      "outputs": [
        {
          "internalType": "address",
          "name": "",
          "type": "address"
        }
      ],
      "stateMutability": "view",
      "type": "function"
    },
    {
      "inputs": [],
      "name": "token",
      "outputs": [
        {
          "internalType": "contract IERC20",
          "name": "",
          "type": "address"
        }
      ],
      "stateMutability": "view",
      "type": "function"
    },
    {
      "inputs": [
        {
          "internalType": "address",
          "name": "newOwner",
          "type": "address"
        }
      ],
      "name": "transferOwnership",
      "outputs": [],
      "stateMutability": "nonpayable",
      "type": "function"
    },
    {
      "inputs": [
        {
          "internalType": "address",
          "name": "addr",
          "type": "address"
        }
      ],
      "name": "updateAddressManager",
      "outputs": [],
      "stateMutability": "nonpayable",
      "type": "function"
    },
    {
      "inputs": [
        {
          "internalType": "address",
          "name": "addr",
          "type": "address"
        }
      ],
      "name": "updateArchiveManager",
      "outputs": [],
      "stateMutability": "nonpayable",
      "type": "function"
    },
    {
      "inputs": [
        {
          "internalType": "uint256",
          "name": "COMMIT_ROUND_DURATION_",
          "type": "uint256"
        }
      ],
      "name": "updateCommitRoundDuration",
      "outputs": [],
      "stateMutability": "nonpayable",
      "type": "function"
    },
    {
      "inputs": [
        {
          "internalType": "uint256",
          "name": "size",
          "type": "uint256"
        }
      ],
      "name": "updateDataBachSize",
      "outputs": [],
      "stateMutability": "nonpayable",
      "type": "function"
    },
    {
      "inputs": [
        {
          "internalType": "uint256",
          "name": "CONSENSUS_WORKER_SIZE_",
          "type": "uint256"
        }
      ],
      "name": "updateMaxConsensusSize",
      "outputs": [],
      "stateMutability": "nonpayable",
      "type": "function"
    },
    {
      "inputs": [
        {
          "internalType": "uint256",
          "name": "CONSENSUS_WORKER_SIZE_",
          "type": "uint256"
        }
      ],
      "name": "updateMinConsensusSize",
      "outputs": [],
      "stateMutability": "nonpayable",
      "type": "function"
    },
    {
      "inputs": [
        {
          "internalType": "address",
          "name": "addr",
          "type": "address"
        }
      ],
      "name": "updateRepManager",
      "outputs": [],
      "stateMutability": "nonpayable",
      "type": "function"
    },
    {
      "inputs": [
        {
          "internalType": "uint256",
          "name": "REVEAL_ROUND_DURATION_",
          "type": "uint256"
        }
      ],
      "name": "updateRevealRoundDuration",
      "outputs": [],
      "stateMutability": "nonpayable",
      "type": "function"
    },
    {
      "inputs": [
        {
          "internalType": "address",
          "name": "addr",
          "type": "address"
        }
      ],
      "name": "updateRewardManager",
      "outputs": [],
      "stateMutability": "nonpayable",
      "type": "function"
    },
    {
      "inputs": [
        {
          "internalType": "address",
          "name": "addr",
          "type": "address"
        }
      ],
      "name": "updateSpotManager",
      "outputs": [],
      "stateMutability": "nonpayable",
      "type": "function"
    },
    {
      "inputs": [
        {
          "internalType": "address",
          "name": "addr",
          "type": "address"
        }
      ],
      "name": "updateStakeManager",
      "outputs": [],
      "stateMutability": "nonpayable",
      "type": "function"
    },
    {
      "inputs": [
        {
          "internalType": "uint256",
          "name": "VOTE_QUORUM_",
          "type": "uint256"
        }
      ],
      "name": "updateVoteQuoum",
      "outputs": [],
      "stateMutability": "nonpayable",
      "type": "function"
    },
    {
      "inputs": [
        {
          "internalType": "address",
          "name": "_sFuel",
          "type": "address"
        }
      ],
      "name": "updatesFuelFaucet",
      "outputs": [],
      "stateMutability": "nonpayable",
      "type": "function"
    },
    {
      "inputs": [
        {
          "internalType": "uint256",
          "name": "_prevID",
          "type": "uint256"
        },
        {
          "internalType": "uint256",
          "name": "_nextID",
          "type": "uint256"
        },
        {
          "internalType": "address",
          "name": "_voter",
          "type": "address"
        },
        {
          "internalType": "uint256",
          "name": "_numTokens",
          "type": "uint256"
        }
      ],
      "name": "validPosition",
      "outputs": [
        {
          "internalType": "bool",
          "name": "APPROVED",
          "type": "bool"
        }
      ],
      "stateMutability": "view",
      "type": "function"
    },
    {
      "inputs": [
        {
          "internalType": "uint256",
          "name": "_numTokens",
          "type": "uint256"
        }
      ],
      "name": "withdrawVotingRights",
      "outputs": [],
      "stateMutability": "nonpayable",
      "type": "function"
    }
  ],
  "bytecode": "0x608060405260018055600280556001600355670de0b6b3a7640000600755670de0b6b3a7640000600855680410d586a20a4c00006009556032600a55600060145560006015557314f52f3fc010ab6ca81568d4a6794d5eab3c6155601e60006101000a8154816001600160a01b0302191690836001600160a01b031602179055506001601f556001602055600160215560006023556000602455600060255560006026556000602755348015620000b557600080fd5b506040516200791338038062007913833981016040819052620000d89162000183565b620000ec620000e66200012f565b62000133565b602880546001600160a01b0319166001600160a01b0392909216919091179055600060155568015af1d78b58c400006004556101c26005556078600655620001b3565b3390565b600080546001600160a01b038381166001600160a01b0319831681178455604051919092169283917f8be0079c531659141344cd1fd0a4f28419497f9722a3daafe3b4186f6b6457e09190a35050565b60006020828403121562000195578081fd5b81516001600160a01b0381168114620001ac578182fd5b9392505050565b61775080620001c36000396000f3fe608060405234801561001057600080fd5b50600436106107385760003560e01c80639acb75c1116103b3578063d822ce01116101f4578063e7b1d43c1161011a578063f4cdfcc4116100b8578063f80a23fd11610087578063f80a23fd14610eaa578063f96305f014610eb2578063fc0c546a14610eba578063fca4956314610ec257610738565b8063f4cdfcc414610e74578063f5ae7c7d14610e87578063f716596d14610e8f578063f721de4a14610e9757610738565b8063ed8becfa116100f4578063ed8becfa14610e31578063ef4fcdad14610e51578063f2d9e74d14610e59578063f2fde38b14610e6157610738565b8063e7b1d43c14610e03578063e8e9b6f914610e16578063eb1322ff14610e2957610738565b8063dd15f09511610192578063e44c974b11610161578063e44c974b14610dc2578063e604c12714610dd5578063e7805f9e14610de8578063e798a7da14610df057610738565b8063dd15f09514610d8c578063dd61868214610d94578063df05368e14610da7578063e1f7a43014610dba57610738565b8063d901402b116101ce578063d901402b14610d33578063d9548e5314610d46578063d9845fb814610d59578063db687c1714610d7957610738565b8063d822ce0114610d05578063d8645d3714610d18578063d8b7567414610d2057610738565b8063b1a2e0be116102d9578063c7761fab11610277578063d138209211610246578063d138209214610cc4578063d186981d14610cd7578063d420ec0b14610cea578063d6b0206c14610cfd57610738565b8063c7761fab14610c99578063c9b03a7214610ca1578063cb1c2b5c14610ca9578063ced5ca6f14610cb157610738565b8063b7e4eba9116102b3578063b7e4eba914610c4d578063b8f011b314610c60578063c47c4bc214610c73578063c4e4f82a14610c8657610738565b8063b1a2e0be14610c07578063b1d7ea9814610c1a578063b43bd06914610c3a57610738565b8063a4439dc511610351578063aacc5a1711610320578063aacc5a1714610bd1578063ab43e78d14610bd9578063b0ebc1d814610be1578063b10aa58414610bf457610738565b8063a4439dc514610b90578063a511dba014610ba3578063a905779014610bab578063aa7ca46414610bbe57610738565b8063a1103f371161038d578063a1103f3714610b5a578063a1b6b5b714610b6d578063a25236fe14610b75578063a350715a14610b8857610738565b80639acb75c114610b2c5780639fc9c52f14610b34578063a0e71c1514610b4757610738565b806351912f291161057d5780637827e549116104a357806383cc6ef2116104415780638da5cb5b116104105780638da5cb5b14610af65780638df0296e14610afe5780639760356014610b115780639769d84614610b2457610738565b806383cc6ef214610aa85780638473850b14610ab057806388d072eb14610ab85780638c89d02714610acb57610738565b80637f97e8361161047d5780637f97e83614610a425780637fabe35b14610a55578063819b029314610a82578063821aa8c014610a9557610738565b80637827e54914610a2a5780637a34da6714610a325780637f9510a214610a3a57610738565b80636a192ff51161051b578063715018a6116104ea578063715018a6146109ff57806371880b1b14610a07578063726bc8af14610a1a57806376e8ea4f14610a2257610738565b80636a192ff5146109a35780636b1485a3146109c65780636b2d95d4146109d95780637074222b146109ec57610738565b80635b113a55116105575780635b113a551461096d5780635fd87909146109805780636371d81f14610988578063667bf0f81461099b57610738565b806351912f2914610932578063580021581461093a5780635a4529431461094d57610738565b806339e7357c1161066257806347fe2d20116106005780634d4b7d9b116105cf5780634d4b7d9b146108f15780634d884281146109045780634fe8b4c114610917578063515535e81461092a57610738565b806347fe2d20146108bb57806348257dc9146108c35780634852e2f0146108d657806349403183146108de57610738565b8063427fa1d21161063c578063427fa1d21461086f578063441c77c01461088257806344639f7c1461089557806346a7aea6146108a857610738565b806339e7357c146108415780633dda02b11461084957806340fbaae41461085c57610738565b8063275c2590116106da578063313066ee116106a9578063313066ee1461080b5780633538af8214610813578063353f44d014610826578063354dae401461083957610738565b8063275c2590146107bb57806329a47bc7146107c35780632d917c68146107d85780632f469fd1146107eb57610738565b80630e670feb116107165780630e670feb14610778578063154fd39b14610780578063226ed3001461078857806325a89a9c146107a857610738565b806304dbcda71461073d578063050eb2eb1461075b5780630e6661a714610770575b600080fd5b610745610ed5565b6040516107529190616592565b60405180910390f35b61076e610769366004616079565b610edb565b005b610745610f45565b610745610f4b565b610745610f51565b61079b610796366004616369565b610f57565b60405161075291906166f7565b61076e6107b63660046163bd565b610fa1565b61076e611473565b6107cb6115a9565b60405161075291906165c5565b61079b6107e6366004616093565b6115b8565b6107fe6107f9366004616392565b6115d8565b6040516107529190616702565b61074561167d565b6107cb610821366004616369565b611683565b610745610834366004616079565b6116ad565b61076e6116bf565b6107456117fc565b61076e610857366004616369565b611819565b61076e61086a366004616471565b61185d565b61074561087d366004616079565b611ba2565b61079b610890366004616369565b611c42565b61076e6108a3366004616369565b611c9c565b61076e6108b6366004616079565b611cee565b610745611d4f565b61076e6108d1366004616369565b611d55565b610745612093565b61079b6108ec366004616369565b612099565b61079b6108ff366004616369565b612263565b61076e610912366004616079565b612278565b61076e610925366004616369565b6122d9565b610745612359565b6107cb61235f565b61076e610948366004616369565b61236e565b61096061095b366004616369565b6123b2565b6040516107529190617451565b61074561097b366004616392565b6124d5565b6107456124f2565b61076e610996366004616369565b6124f8565b61076e6125ba565b6109b66109b1366004616369565b6129c0565b604051610752949392919061673f565b61076e6109d4366004616369565b612a7f565b6107456109e7366004616079565b613604565b6107456109fa366004616079565b613613565b61076e61362e565b610745610a15366004616369565b613679565b6107456136b6565b6107456136bc565b6107456136c2565b6107cb6136c8565b6107456136d7565b61079b610a50366004616093565b6136ee565b610a68610a63366004616369565b613744565b6040516107529e9d9c9b9a999897969594939291906174f0565b61079b610a90366004616435565b613843565b6107cb610aa3366004616369565b613884565b6107cb613894565b6107456138a3565b6107fe610ac6366004616392565b6138a9565b610ade610ad9366004616079565b6138cd565b6040516107529c9b9a999897969594939291906165d9565b6107cb6139ca565b6107cb610b0c366004616414565b6139d9565b61076e610b1f366004616369565b613a11565b610745613bc0565b610745613bc6565b61076e610b423660046160ee565b613bcc565b610745610b55366004616369565b613c1e565b610745610b68366004616093565b613c49565b610745613c7c565b61076e610b83366004616369565b613c82565b610745613d83565b61079b610b9e366004616369565b613d89565b610745613deb565b61079b610bb93660046161ae565b613df1565b61079b610bcc366004616093565b613e57565b610745613eaa565b6107cb613f5f565b61076e610bef366004616369565b613f6e565b6107cb610c02366004616369565b613fc0565b61079b610c15366004616079565b613fd0565b610c2d610c28366004616414565b614144565b60405161075291906166b3565b610745610c483660046160bc565b61434b565b61076e610c5b366004616369565b614437565b610c2d610c6e366004616414565b61447b565b61076e610c81366004616079565b6145e3565b610745610c94366004616369565b614644565b610745614681565b610745614687565b61074561468d565b61076e610cbf366004616369565b614693565b610745610cd2366004616093565b614701565b61079b610ce5366004616392565b614796565b61079b610cf8366004616093565b614871565b610745614891565b6107cb610d13366004616093565b614897565b6107cb6148b3565b610745610d2e366004616392565b6148c2565b610745610d41366004616093565b6148df565b61079b610d54366004616369565b614924565b610d6c610d67366004616369565b614929565b60405161075291906172d7565b61076e610d87366004616079565b614aae565b6107cb614b0f565b61076e610da2366004616079565b614b1e565b61076e610db5366004616079565b614b7f565b610745614be0565b610c2d610dd0366004616369565b614bf3565b6107fe610de3366004616369565b614c6c565b610745614d21565b61079b610dfe366004616079565b614d27565b61076e610e11366004616369565b614d48565b61076e610e24366004616369565b614e90565b610745614ed4565b610e44610e3f366004616369565b614eda565b6040516107529190616653565b6107456151f7565b6107456151fd565b61076e610e6f366004616079565b615203565b610745610e8236600461620e565b615271565b610745615286565b61076e61528c565b61079b610ea5366004616369565b61545b565b61079b615463565b61074561547c565b6107cb615482565b610745610ed0366004616079565b615491565b60075481565b610ee36155df565b6001600160a01b0316610ef46139ca565b6001600160a01b031614610f235760405162461bcd60e51b8152600401610f1a90616e13565b60405180910390fd5b602b80546001600160a01b0319166001600160a01b0392909216919091179055565b60155481565b60085481565b60215490565b6000610f628261545b565b610f7e5760405162461bcd60e51b8152600401610f1a90617262565b600082815260226020526040902060070154610f9990614924565b90505b919050565b610fa96155e3565b610fb284613d89565b610fce5760405162461bcd60e51b8152600401610f1a906169f2565b336000908152600b6020908152604080832087845290915290205460ff16156110095760405162461bcd60e51b8152600401610f1a906170d3565b6110138433614796565b61102f5760405162461bcd60e51b8152600401610f1a90616a29565b60045433600090815260186020526040902054811115611071573360009081526018602052604081205461106490839061576b565b905061106f81613c82565b505b336000908152601860205260409020548111156110a05760405162461bcd60e51b8152600401610f1a9061715e565b6000336000908152601260205260408082209051631b23afef60e21b815273__$6ffa5bf1f4fa681f07e1987a80577d5f4e$__91636c8ebfbc916110e9919086906004016165b7565b60206040518083038186803b15801561110157600080fd5b505af4158015611115573d6000803e3d6000fd5b505050506040513d601f19601f820116820180604052508101906111399190616381565b9050868114156111de5733600090815260126020526040908190209051631b23afef60e21b815273__$6ffa5bf1f4fa681f07e1987a80577d5f4e$__91636c8ebfbc9161118b91908b906004016165b7565b60206040518083038186803b1580156111a357600080fd5b505af41580156111b7573d6000803e3d6000fd5b505050506040513d601f19601f820116820180604052508101906111db9190616381565b90505b6111ea82823386613843565b6112065760405162461bcd60e51b8152600401610f1a90616cdf565b3360009081526012602052604090819020905163f3a1998360e01b815273__$6ffa5bf1f4fa681f07e1987a80577d5f4e$__9163f3a1998391611252919086908c908790600401617436565b60006040518083038186803b15801561126a57600080fd5b505af415801561127e573d6000803e3d6000fd5b50505050600061128e3389613c49565b604051633416d70d60e21b815290915073__$d865f21674766f31b0d600e4a95b721b57$__9063d05b5c34906112cd9060139085908990600401617418565b60006040518083038186803b1580156112e557600080fd5b505af41580156112f9573d6000803e3d6000fd5b5050604051633416d70d60e21b815273__$d865f21674766f31b0d600e4a95b721b57$__925063d05b5c3491506113399060139085908c906004016173cc565b60006040518083038186803b15801561135157600080fd5b505af4158015611365573d6000803e3d6000fd5b5050506000898152600f60209081526040808320338085529083528184208b90558c845260108352818420908452825290912087516113a993509091880190615de3565b503360009081526016602090815260408083208b84526022909252909120600301546113d690600161576b565b60008a815260226020908152604080832060030193909355426005850155338252600b81528282208c83529052908120805460ff1916600190811790915560238054919290916114279084906175dc565b909155505060405133908a907f1b5c5140592c554fa4c0cdb5b3d3cd50f87aa84e477afd0b6c93d7702ef9c73c90611460908990616592565b60405180910390a3505050505050505050565b61147b6155e3565b336000908152601660205260409020600781015460ff1615156001146114b35760405162461bcd60e51b8152600401610f1a90616dc7565b6002810154158015906114d057506007810154610100900460ff16155b156114eb5760078101805461ff00191661010017905561158e565b60028101541561150d5760405162461bcd60e51b8152600401610f1a90616d0d565b4261151733615777565b611520336158cf565b8154336001600160a01b03199182168117845560018401805490921681179091556005830182905560078301805460ff191690556040517f9dadcedba048e92b943ea1c5861cee1df63a566d7f795869c004780c1c698e2b90611584908490616592565b60405180910390a2505b6001602360008282546115a191906175dc565b909155505050565b602a546001600160a01b031681565b600b60209081526000928352604080842090915290825290205460ff1681565b600e602090815260009283526040808420909152908252902080546115fc9061766e565b80601f01602080910402602001604051908101604052809291908181526020018280546116289061766e565b80156116755780601f1061164a57610100808354040283529160200191611675565b820191906000526020600020905b81548152906001019060200180831161165857829003601f168201915b505050505081565b60145481565b601a818154811061169357600080fd5b6000918252602090912001546001600160a01b0316905081565b60186020526000908152604090205481565b6116c76155e3565b601c54600090156116da576116da6159ff565b6020805460009081526022909152604090206005015462010000900460ff161515600114801561172e5750611710602054610f57565b8061172e575060208054600090815260229091526040902060020154155b156117535761173e602054612a7f565b60205461174c906001615a97565b6020555060015b60215460009081526022602052604090206005015462010000900460ff1615156001148015906117845750601a5415155b80156117a4575060215460009081526022602052604090206005015460ff165b156117b5576117b16125ba565b5060015b80156117cd576014546117c9906001615a97565b6014555b6014546040517f94d48a7342690f1233e3f4db70efa37c4f1f25f4d0397c353f3f15aecdeca5f490600090a250565b60405160009080602081848060185afa61181257fe5b5051919050565b6118216155df565b6001600160a01b03166118326139ca565b6001600160a01b0316146118585760405162461bcd60e51b8152600401610f1a90616e13565b600255565b6118656155e3565b61186e84611c42565b61188a5760405162461bcd60e51b8152600401610f1a90616fa1565b336000908152600b6020908152604080832087845290915290205460ff166118c45760405162461bcd60e51b8152600401610f1a90616b32565b336000908152600c6020908152604080832087845290915290205460ff16156118ff5760405162461bcd60e51b8152600401610f1a9061728b565b61190933856148df565b6119138383615271565b146119305760405162461bcd60e51b8152600401610f1a90616ea5565b600061193c3386614701565b9050836001141561197357600085815260226020526040812060080180548392906119689084906175dc565b9091555061199a9050565b600085815260226020526040812060090180548392906119949084906175dc565b90915550505b33600090815260126020526040908190209051634dab476560e01b815273__$6ffa5bf1f4fa681f07e1987a80577d5f4e$__91634dab4765916119e2919089906004016165b7565b60006040518083038186803b1580156119fa57600080fd5b505af4158015611a0e573d6000803e3d6000fd5b5050336000818152600c602090815260408083208b84528252808320805460ff19166001179055600d825280832084845282528083208a90558a8352600e82528083209383529281529190208651611a6d945090925090860190615de3565b50336000908152601660209081526040808320888452602290925290912060020154611a9a90600161576b565b60008781526022602052604090206002015560038101805460ff19166001179055426005820155611aca336158cf565b600781015460ff1615611b2757611ae033615aa3565b611b2757601a80546001810182556000919091527f057c384a7d1c54f3a1b2e5e67b2617b8224fdfd1ea7234eea573a6ff665ff63e0180546001600160a01b031916331790555b600160236000828254611b3a91906175dc565b90915550506000868152602260205260409081902060088101546009909101549151339288928a927f2e5fbeef18eaa8d8ea3b0122bc64445c4daaa6f454dfb889456791a92287f37892611b929289929091906174da565b60405180910390a4505050505050565b6001600160a01b038116600090815260126020526040808220905163215e94cf60e01b815273__$6ffa5bf1f4fa681f07e1987a80577d5f4e$__9163215e94cf91611bf2919085906004016165b7565b60206040518083038186803b158015611c0a57600080fd5b505af4158015611c1e573d6000803e3d6000fd5b505050506040513d601f19601f82011682018060405250810190610f999190616381565b6000611c4d8261545b565b611c695760405162461bcd60e51b8152600401610f1a9061702e565b600082815260226020526040902060070154611c8490614924565b158015610f995750611c9582613d89565b1592915050565b611ca46155df565b6001600160a01b0316611cb56139ca565b6001600160a01b031614611cdb5760405162461bcd60e51b8152600401610f1a90616e13565b6001811015611ce957600080fd5b600355565b611cf66155df565b6001600160a01b0316611d076139ca565b6001600160a01b031614611d2d5760405162461bcd60e51b8152600401610f1a90616e13565b602e80546001600160a01b0319166001600160a01b0392909216919091179055565b60205490565b602d546001600160a01b031615801590611d7e575060008181526011602052604090205460ff16155b1561158e57602d54604051637b90ef2560e11b81526001600160a01b039091169063f721de4a90611db3908490600401616592565b602060405180830381600087803b158015611dcd57600080fd5b505af1158015611de1573d6000803e3d6000fd5b505050506040513d601f19601f82011682018060405250810190611e059190616194565b1561158e57602d54604051631b308bf760e31b81526000916001600160a01b03169063d9845fb890611e3b908590600401616592565b600060405180830381600087803b158015611e5557600080fd5b505af1158015611e69573d6000803e3d6000fd5b505050506040513d6000823e601f3d908101601f19168201604052611e919190810190616250565b6101a08101519091506001816003811115611ebc57634e487b7160e01b600052602160045260246000fd5b141561206557604080516080810182526101608401518152336020808301919091524282840152600060608301819052601554815260178252929092208151805192939192611f0e9284920190615de3565b506020820151600182810180546001600160a01b0319166001600160a01b0390931692909217909155604083015160028301556060830151600380840180549293909260ff1916918490811115611f7557634e487b7160e01b600052602160045260246000fd5b021790555050601f54600090815260226020526040902060018054908201549192501115611fb8576001816001016000828254611fb291906175dc565b90915550505b60015481600101541061200a57600581018054600160ff19909116811761ff001916909155601f8054600090611fef9084906175dc565b9091555050601554601f546000908152602260205260409020555b6120126116bf565b6015546120209060016175dc565b60158190556101608401516040517fe72ee44ad0ed1dfc338f7eec797c944eb218773c1edbb4bb653dd9c1e2a623049161205b913390616715565b60405180910390a2505b50506000818152601160205260409020805460ff191660011790556001602360008282546115a191906175dc565b60265481565b600081815260226020908152604080832081516101c081018352815481526001820154938101939093526002810154918301919091526003810154606083015260048101546080830152600581015460ff808216151560a08501526101008083048216151560c08601526201000090920416151560e0840152600682015490830152600781015461012083015260088101546101408301526009810154610160830152600a81018054849392916101808401916121559061766e565b80601f01602080910402602001604051908101604052809291908181526020018280546121819061766e565b80156121ce5780601f106121a3576101008083540402835291602001916121ce565b820191906000526020600020905b8154815290600101906020018083116121b157829003601f168201915b5050509183525050600b82015460209091019060ff16600381111561220357634e487b7160e01b600052602160045260246000fd5b600381111561222257634e487b7160e01b600052602160045260246000fd5b90525061016081015161014082015191925061223d916175dc565b600a5461224a9190617608565b61014082015161225b906064617608565b119392505050565b60116020526000908152604090205460ff1681565b6122806155df565b6001600160a01b03166122916139ca565b6001600160a01b0316146122b75760405162461bcd60e51b8152600401610f1a90616e13565b601e80546001600160a01b0319166001600160a01b0392909216919091179055565b6122e16155df565b6001600160a01b03166122f26139ca565b6001600160a01b0316146123185760405162461bcd60e51b8152600401610f1a90616e13565b6000818152601760205260408120906123318282615e67565b506001810180546001600160a01b031916905560006002820155600301805460ff1916905550565b601f5490565b602b546001600160a01b031681565b6123766155df565b6001600160a01b03166123876139ca565b6001600160a01b0316146123ad5760405162461bcd60e51b8152600401610f1a90616e13565b600655565b6123ba615ea3565b600082815260176020526040908190208151608081019092528054829082906123e29061766e565b80601f016020809104026020016040519081016040528092919081815260200182805461240e9061766e565b801561245b5780601f106124305761010080835404028352916020019161245b565b820191906000526020600020905b81548152906001019060200180831161243e57829003601f168201915b505050918352505060018201546001600160a01b031660208201526002820154604082015260038083015460609092019160ff16908111156124ad57634e487b7160e01b600052602160045260246000fd5b60038111156124cc57634e487b7160e01b600052602160045260246000fd5b90525092915050565b600f60209081526000928352604080842090915290825290205481565b60065481565b6125006155df565b6001600160a01b03166125116139ca565b6001600160a01b0316146125375760405162461bcd60e51b8152600401610f1a90616e13565b6125408161545b565b156125b75760008181526022602052604081208181556001810182905560028101829055600381018290556004810182905560058101805462ffffff1916905560068101829055600781018290556008810182905560098101829055906125aa600a830182615e67565b50600b01805460ff191690555b50565b60215460009081526022602052604090206005015460ff166125ee5760405162461bcd60e51b8152600401610f1a90616f4b565b60215460009081526022602052604090206005015462010000900460ff16156126295760405162461bcd60e51b8152600401610f1a90616d6a565b600061264761263f601a80549050600254615b13565b600354615b29565b601a5460218054600090815260226020526040808220600201859055915481529081206003018390556005549293509091612683904290615a97565b9050600061269c60065483615a9790919063ffffffff16565b60218054600090815260226020526040808220600601869055825482528082206007018490559154815220600501805462ff00001916620100001790559050600184108015906126ed575060018310155b6127095760405162461bcd60e51b8152600401610f1a906169a8565b6000612715858561447b565b9050600081516001600160401b0381111561274057634e487b7160e01b600052604160045260246000fd5b604051908082528060200260200182016040528015612769578160200160208202803683370190505b50905060005b825181101561282857601a83828151811061279a57634e487b7160e01b600052603260045260246000fd5b6020026020010151815481106127c057634e487b7160e01b600052603260045260246000fd5b9060005260206000200160009054906101000a90046001600160a01b03168282815181106127fe57634e487b7160e01b600052603260045260246000fd5b6001600160a01b039092166020928302919091019091015280612820816176a9565b91505061276f565b5060005b825181101561298b57600082828151811061285757634e487b7160e01b600052603260045260246000fd5b60200260200101519050600060166000836001600160a01b03166001600160a01b03168152602001908152602001600020905061289382615777565b61289c82615b39565b6128ec57601b80546001810182556000919091527f3ad8aa4f87544323a9d1e5dd902f40c356527a7955687113db5f9a85ad579dc10180546001600160a01b0319166001600160a01b0384161790555b602180546000908152601d602090815260408083208054600181018255908452919092200180546001600160a01b0319166001600160a01b0386161790558154600284015560038301805460ff19169055905490517fe4ee2dfabe57cee15e3f558890b20455f54c1fa0718e5276faad70a6500e6b8c9061296e9085906165c5565b60405180910390a250508080612983906176a9565b91505061282c565b5060215461299a906001615a97565b6021819055506001602360008282546129b391906175dc565b9091555050505050505050565b6017602052600090815260409020805481906129db9061766e565b80601f0160208091040260200160405190810160405280929190818152602001828054612a079061766e565b8015612a545780601f10612a2957610100808354040283529160200191612a54565b820191906000526020600020905b815481529060010190602001808311612a3757829003601f168201915b505050506001830154600284015460039094015492936001600160a01b039091169290915060ff1684565b612a8881610f57565b80612aa25750600081815260226020526040902060020154155b612abe5760405162461bcd60e51b8152600401610f1a90616e48565b600081815260226020526040902060050154610100900460ff1615612af55760405162461bcd60e51b8152600401610f1a90617092565b6000818152601d6020908152604080832080548251818502810185019093528083529192909190830182828015612b5557602002820191906000526020600020905b81546001600160a01b03168152600190910190602001808311612b37575b50505050509050600081516001600160401b03811115612b8557634e487b7160e01b600052604160045260246000fd5b604051908082528060200260200182016040528015612bb857816020015b6060815260200190600190039081612ba35790505b509050600082516001600160401b03811115612be457634e487b7160e01b600052604160045260246000fd5b604051908082528060200260200182016040528015612c0d578160200160208202803683370190505b50905060005b8351811015612d90576000848281518110612c3e57634e487b7160e01b600052603260045260246000fd5b6020908102919091018101516000888152600e835260408082206001600160a01b0384168352909352918220805491935090612c799061766e565b80601f0160208091040260200160405190810160405280929190818152602001828054612ca59061766e565b8015612cf25780601f10612cc757610100808354040283529160200191612cf2565b820191906000526020600020905b815481529060010190602001808311612cd557829003601f168201915b50505060008a8152600f602090815260408083206001600160a01b038916845290915290205488519394509284925088915086908110612d4257634e487b7160e01b600052603260045260246000fd5b602002602001018190525080858581518110612d6e57634e487b7160e01b600052603260045260246000fd5b6020026020010181815250505050508080612d88906176a9565b915050612c13565b506000612db86064600a548651612da79190617608565b612db191906175f4565b6001615b29565b9050600083600081518110612ddd57634e487b7160e01b600052603260045260246000fd5b6020026020010151905060005b8451811015612ed3576000805b8651811015612e8857612e58878481518110612e2357634e487b7160e01b600052603260045260246000fd5b6020026020010151888381518110612e4b57634e487b7160e01b600052603260045260246000fd5b6020026020010151613df1565b15612e7657612e686001836175dc565b9150848210612e7657612e88565b80612e80816176a9565b915050612df7565b50838110612ec057858281518110612eb057634e487b7160e01b600052603260045260246000fd5b6020026020010151925050612ed3565b5080612ecb816176a9565b915050612dea565b50600083600081518110612ef757634e487b7160e01b600052603260045260246000fd5b6020026020010151905060005b8451811015612fe6576000805b8651811015612f9b57868181518110612f3a57634e487b7160e01b600052603260045260246000fd5b6020026020010151878481518110612f6257634e487b7160e01b600052603260045260246000fd5b60200260200101511415612f8957612f7b6001836175dc565b9150858210612f8957612f9b565b80612f93816176a9565b915050612f11565b50848110612fd357858281518110612fc357634e487b7160e01b600052603260045260246000fd5b6020026020010151925050612fe6565b5080612fde816176a9565b915050612f04565b5060005b865181101561336957600087828151811061301557634e487b7160e01b600052603260045260246000fd5b6020908102919091018101516001600160a01b0381166000908152600c835260408082208d8352909352919091205490915060ff16613053826158cf565b6001600160a01b0382166000908152601660205260409020811561330d576001600160a01b0383166000818152601660209081526040808320600301805460ff191660011790558e8352600e825280832093835292905290812080546130b89061766e565b80601f01602080910402602001604051908101604052809291908181526020018280546130e49061766e565b80156131315780601f1061310657610100808354040283529160200191613131565b820191906000526020600020905b81548152906001019060200180831161311457829003601f168201915b505050505090506131428188613df1565b1561328957602a54600954604051630db6cc8560e11b81526001600160a01b0390921691631b6d990a9161317a9188906004016174bc565b602060405180830381600087803b15801561319457600080fd5b505af11580156131a8573d6000803e3d6000fd5b505050506040513d601f19601f820116820180604052508101906131cc9190616194565b6131e85760405162461bcd60e51b8152600401610f1a90616bea565b602b54600754604051633832942560e21b81526001600160a01b039092169163e0ca50949161321b9188906004016174a5565b602060405180830381600087803b15801561323557600080fd5b505af1158015613249573d6000803e3d6000fd5b505050506040513d601f19601f8201168201806040525081019061326d9190616194565b6132895760405162461bcd60e51b8152600401610f1a90616a86565b600782015460ff16156133075761329f84615aa3565b1580156132b657506007820154610100900460ff16155b1561330757601a80546001810182556000919091527f057c384a7d1c54f3a1b2e5e67b2617b8224fdfd1ea7234eea573a6ff665ff63e0180546001600160a01b0319166001600160a01b0386161790555b50613353565b6007810154610100900460ff1680613323575081155b1561335357600781015460ff16156133535760078101805460ff1916905561334a83615777565b613353836158cf565b5050508080613361906176a9565b915050612fea565b50600087815260226020908152604090912060058101805461ff00191661010017905583516133a092600a90920191850190615de3565b5060008781526022602052604090206004018190556133be87612099565b15613504576000878152602260205260408120600b01805460ff1916600190811790915560248054919290916133f59084906175dc565b9091555050602e546040516348257dc960e01b81526001600160a01b03909116906348257dc99061342a908a90600401616592565b602060405180830381600087803b15801561344457600080fd5b505af1925050508015613474575060408051601f3d908101601f1916820190925261347191810190616194565b60015b6134e5573d8080156134a2576040519150601f19603f3d011682016040523d82523d6000602084013e6134a7565b606091505b507f4b87bbd93ba65ede1e2efeca735d9f7a6720bf7d6db0a8355b17dba5b64e5783816040516134d79190616702565b60405180910390a1506134ff565b6001602360008282546134f891906175dc565b9091555050505b613539565b6000878152602260205260408120600b01805460ff1916600217905560258054600192906135339084906175dc565b90915550505b60016023600082825461354c91906175dc565b909155505060008781526022602052604081206003015460268054919290916135769084906175dc565b909155505060008781526022602052604081206002015460278054919290916135a09084906175dc565b909155505060008781526017602052604090819020600181015491516001600160a01b03909216917fb83f08cf731092d35d6dd4801ac76e3fcc84b1b199915531c9874230d31adeaa916135f3916167a2565b60405180910390a250505050505050565b6000610f9982610cd284611ba2565b6001600160a01b031660009081526018602052604090205490565b6136366155df565b6001600160a01b03166136476139ca565b6001600160a01b03161461366d5760405162461bcd60e51b8152600401610f1a90616e13565b6136776000615ba9565b565b60006136848261545b565b6136a05760405162461bcd60e51b8152600401610f1a9061702e565b5060009081526022602052604090206007015490565b60035481565b60015481565b60095481565b602c546001600160a01b031681565b601b54601a546000916136e9916175dc565b905090565b60006136f98261545b565b6137155760405162461bcd60e51b8152600401610f1a9061702e565b506001600160a01b0382166000908152600b6020908152604080832084845290915290205460ff165b92915050565b602260205260009081526040902080546001820154600283015460038401546004850154600586015460068701546007880154600889015460098a0154600a8b0180549a9b999a98999798969760ff8088169861010089048216986201000090049091169695949392906137b79061766e565b80601f01602080910402602001604051908101604052809291908181526020018280546137e39061766e565b80156138305780601f1061380557610100808354040283529160200191613830565b820191906000526020600020905b81548152906001019060200180831161381357829003601f168201915b505050600b909301549192505060ff168e565b6000806138508487614701565b831015905060006138618587614701565b8411158061386d575085155b90508180156138795750805b979650505050505050565b601b818154811061169357600080fd5b6029546001600160a01b031681565b601f5481565b6010602090815260009283526040808420909152908252902080546115fc9061766e565b60166020526000908152604090208054600182015460028301546003840154600485015460058601546006870180546001600160a01b03978816989690971696949560ff90941694929391926139229061766e565b80601f016020809104026020016040519081016040528092919081815260200182805461394e9061766e565b801561399b5780601f106139705761010080835404028352916020019161399b565b820191906000526020600020905b81548152906001019060200180831161397e57829003601f168201915b50505050600783015460088401546009850154600a90950154939460ff8084169561010090940416935090918c565b6000546001600160a01b031690565b601d60205281600052604060002081815481106139f557600080fd5b6000918252602090912001546001600160a01b03169150829050565b60016000828152602260205260409020600b015460ff166003811115613a4757634e487b7160e01b600052602160045260246000fd5b14613a645760405162461bcd60e51b8152600401610f1a90616883565b3360009081526012602052604090819020905163162a54af60e31b815273__$6ffa5bf1f4fa681f07e1987a80577d5f4e$__9163b152a57891613aac919085906004016165b7565b60206040518083038186803b158015613ac457600080fd5b505af4158015613ad8573d6000803e3d6000fd5b505050506040513d601f19601f82011682018060405250810190613afc9190616194565b613b185760405162461bcd60e51b8152600401610f1a90616c37565b33600090815260126020526040908190209051634dab476560e01b815273__$6ffa5bf1f4fa681f07e1987a80577d5f4e$__91634dab476591613b60919085906004016165b7565b60006040518083038186803b158015613b7857600080fd5b505af4158015613b8c573d6000803e3d6000fd5b50506040513392508391507f402507661c8c8cb90e0a796450b8bdd28b6c516f05279c0cd29e84c344e1699a90600090a350565b60245481565b60145490565b60005b8151811015613c1a57613c08828281518110613bfb57634e487b7160e01b600052603260045260246000fd5b6020026020010151613a11565b80613c12816176a9565b915050613bcf565b5050565b600081815260226020526040812060098101546008909101548291613c42916175dc565b9392505050565b60008282604051602001613c5e929190616570565b60405160208183030381529060405280519060200120905092915050565b60245490565b6029546040516304ada21f60e21b81526001600160a01b03909116906312b6887c90613cb490849033906004016174a5565b602060405180830381600087803b158015613cce57600080fd5b505af1158015613ce2573d6000803e3d6000fd5b505050506040513d601f19601f82011682018060405250810190613d069190616194565b613d225760405162461bcd60e51b8152600401610f1a90616ad5565b3360009081526018602052604081208054839290613d419084906175dc565b909155505060405133907ff7aaf024511d9982df8cd0d437c71c30106e6848cd1ba3d288d7a9c0e276aeda90613d78908490616592565b60405180910390a250565b60255481565b6000613d948261545b565b613db05760405162461bcd60e51b8152600401610f1a9061702e565b600082815260226020526040902060060154613dcb90614924565b158015610f99575050600090815260226020526040902060030154151590565b60155490565b600081604051602001613e04919061659b565b6040516020818303038152906040528051906020012083604051602001613e2b919061659b565b604051602081830303815290604052805190602001201415613e4f5750600161373e565b50600061373e565b6000613e628261545b565b613e7e5760405162461bcd60e51b8152600401610f1a9061702e565b506001600160a01b03919091166000908152600c60209081526040808320938352929052205460ff1690565b6000804241604051602001613ebf9190616553565b6040516020818303038152906040528051906020012060001c613ee291906175f4565b44613eeb6117fc565b604051602001613efb9190616592565b60408051601f198184030181529190528051602090910120613f1d90426175dc565b613f2791906175dc565b613f3191906175dc565b604051602001613f419190616592565b60408051601f19818403018152919052805160209091012091505090565b601e546001600160a01b031681565b613f766155df565b6001600160a01b0316613f876139ca565b6001600160a01b031614613fad5760405162461bcd60e51b8152600401610f1a90616e13565b6064811115613fbb57600080fd5b600a55565b601c818154811061169357600080fd5b6001600160a01b038082166000908152601660209081526040808320815161018081018352815486168152600182015490951692850192909252600282015490840152600381015460ff161515606084015260048101546080840152600581015460a0840152600681018054929384938493919260c08401916140529061766e565b80601f016020809104026020016040519081016040528092919081815260200182805461407e9061766e565b80156140cb5780601f106140a0576101008083540402835291602001916140cb565b820191906000526020600020905b8154815290600101906020018083116140ae57829003601f168201915b5050509183525050600782015460ff808216151560208401526101009091041615156040820152600882015460608083019190915260098301546080830152600a9092015460a09091015281015190915015801561413357506141318160400151610f57565b155b1561413d57600191505b5092915050565b60606000821161415357600080fd5b6000416040516020016141669190616553565b6040516020818303038152906040528051906020012060001c6141876117fc565b6040516020016141979190616592565b60408051601f1981840301815291905280516020909101206141b990426175dc565b6141c391906175dc565b6040516020016141d39190616592565b6040516020818303038152906040528051906020012060001c90506000846001600160401b0381111561421657634e487b7160e01b600052604160045260246000fd5b60405190808252806020026020018201604052801561423f578160200160208202803683370190505b5090506000805b868210156143405760008661425f63017efeeb87617627565b836040516020016142719291906165b7565b6040516020818303038152906040528051906020012060001c61429491906176c4565b90506000805b848110156142ec57828682815181106142c357634e487b7160e01b600052603260045260246000fd5b602002602001015114156142da57600191506142ec565b806142e4816176a9565b91505061429a565b508061432c578185858151811061431357634e487b7160e01b600052603260045260246000fd5b60209081029190910101526143298460016175dc565b93505b6143378360016175dc565b92505050614246565b509095945050505050565b600061435683610f57565b6143725760405162461bcd60e51b8152600401610f1a906171bb565b6001600160a01b0384166000908152600c6020908152604080832086845290915290205460ff166143b55760405162461bcd60e51b8152600401610f1a90616c94565b60006143c084612099565b6143cb5760006143ce565b60015b60ff169050600081846040516020016143e89291906165b7565b604051602081830303815290604052805190602001209050600061440c87876148df565b905080821461442d5760405162461bcd60e51b8152600401610f1a90616f02565b6138798787614701565b61443f6155df565b6001600160a01b03166144506139ca565b6001600160a01b0316146144765760405162461bcd60e51b8152600401610f1a90616e13565b600155565b606060008211801561448d5750818311155b801561449a575060018310155b6144b65760405162461bcd60e51b8152600401610f1a9061695f565b6000826001600160401b038111156144de57634e487b7160e01b600052604160045260246000fd5b604051908082528060200260200182016040528015614507578160200160208202803683370190505b5090506000846001600160401b0381111561453257634e487b7160e01b600052604160045260246000fd5b60405190808252806020026020018201604052801561455b578160200160208202803683370190505b509050600061457161456c84615bf9565b615c4f565b905060005b868110156143405781818151811061459e57634e487b7160e01b600052603260045260246000fd5b60200260200101518382815181106145c657634e487b7160e01b600052603260045260246000fd5b6020908102919091010152806145db816176a9565b915050614576565b6145eb6155df565b6001600160a01b03166145fc6139ca565b6001600160a01b0316146146225760405162461bcd60e51b8152600401610f1a90616e13565b602c80546001600160a01b0319166001600160a01b0392909216919091179055565b600061464f8261545b565b61466b5760405162461bcd60e51b8152600401610f1a9061702e565b5060009081526022602052604090206006015490565b600a5481565b60025481565b60045481565b61469b6155df565b6001600160a01b03166146ac6139ca565b6001600160a01b0316146146d25760405162461bcd60e51b8152600401610f1a90616e13565b60008181526011602052604090205460ff16156125b7576000908152601160205260409020805460ff19169055565b600073__$d865f21674766f31b0d600e4a95b721b57$__6362e02a2a60136147298686613c49565b6040518363ffffffff1660e01b81526004016147469291906173fa565b60206040518083038186803b15801561475e57600080fd5b505af4158015614772573d6000803e3d6000fd5b505050506040513d601f19601f82011682018060405250810190613c429190616381565b6000828152601d602090815260408083208054825181850281018501909352808352849384939291908301828280156147f857602002820191906000526020600020905b81546001600160a01b031681526001909101906020018083116147da575b5050505050905060005b815181101561486757846001600160a01b031682828151811061483557634e487b7160e01b600052603260045260246000fd5b60200260200101516001600160a01b031614156148555760019250614867565b8061485f816176a9565b915050614802565b5090949350505050565b600c60209081526000928352604080842090915290825290205460ff1681565b60215481565b601960205281600052604060002081815481106139f557600080fd5b602d546001600160a01b031681565b600d60209081526000928352604080842090915290825290205481565b600073__$d865f21674766f31b0d600e4a95b721b57$__6362e02a2a60136149078686613c49565b6040518363ffffffff1660e01b81526004016147469291906173ae565b421190565b614931615ef2565b61493a8261545b565b61494357600080fd5b60008281526022602090815260409182902082516101c081018452815481526001820154928101929092526002810154928201929092526003820154606082015260048201546080820152600582015460ff808216151560a08401526101008083048216151560c08501526201000090920416151560e0830152600683015490820152600782015461012082015260088201546101408201526009820154610160820152600a8201805491929161018084019190614a009061766e565b80601f0160208091040260200160405190810160405280929190818152602001828054614a2c9061766e565b8015614a795780601f10614a4e57610100808354040283529160200191614a79565b820191906000526020600020905b815481529060010190602001808311614a5c57829003601f168201915b5050509183525050600b82015460209091019060ff1660038111156124ad57634e487b7160e01b600052602160045260246000fd5b614ab66155df565b6001600160a01b0316614ac76139ca565b6001600160a01b031614614aed5760405162461bcd60e51b8152600401610f1a90616e13565b602d80546001600160a01b0319166001600160a01b0392909216919091179055565b602e546001600160a01b031681565b614b266155df565b6001600160a01b0316614b376139ca565b6001600160a01b031614614b5d5760405162461bcd60e51b8152600401610f1a90616e13565b602a80546001600160a01b0319166001600160a01b0392909216919091179055565b614b876155df565b6001600160a01b0316614b986139ca565b6001600160a01b031614614bbe5760405162461bcd60e51b8152600401610f1a90616e13565b602980546001600160a01b0319166001600160a01b0392909216919091179055565b3360009081526018602052604090205490565b606060008211614c0257600080fd5b6000826001600160401b03811115614c2a57634e487b7160e01b600052604160045260246000fd5b604051908082528060200260200182016040528015614c53578160200160208202803683370190505b5090506000614c6461456c83615bf9565b949350505050565b6060614c778261545b565b614c8057600080fd5b6000828152602260205260409020600a018054614c9c9061766e565b80601f0160208091040260200160405190810160405280929190818152602001828054614cc89061766e565b8015614d155780601f10614cea57610100808354040283529160200191614d15565b820191906000526020600020905b815481529060010190602001808311614cf857829003601f168201915b50505050509050919050565b60055481565b6001600160a01b031660009081526016602052604090206007015460ff1690565b6000614d6c614d5633613604565b336000908152601860205260409020549061576b565b905081811015614d8e5760405162461bcd60e51b8152600401610f1a90616fe7565b602954604051630895993360e11b81526001600160a01b039091169063112b326690614dc090859033906004016174a5565b602060405180830381600087803b158015614dda57600080fd5b505af1158015614dee573d6000803e3d6000fd5b505050506040513d601f19601f82011682018060405250810190614e129190616194565b614e2e5760405162461bcd60e51b8152600401610f1a90617205565b3360009081526018602052604081208054849290614e4d908490617627565b909155505060405133907ffaeb7dbb9992397d26ea1944efd40c80b40f702faf69b46c67ad10aba68ccb7990614e84908590616592565b60405180910390a25050565b614e986155df565b6001600160a01b0316614ea96139ca565b6001600160a01b031614614ecf5760405162461bcd60e51b8152600401610f1a90616e13565b600555565b60275481565b6060614ee58261545b565b614f015760405162461bcd60e51b8152600401610f1a9061702e565b600082815260226020908152604080832081516101c081018352815481526001820154938101939093526002810154918301919091526003810154606083015260048101546080830152600581015460ff808216151560a08501526101008083048216151560c08601526201000090920416151560e0840152600682015490830152600781015461012083015260088101546101408301526009810154610160830152600a8101805461018084019190614fba9061766e565b80601f0160208091040260200160405190810160405280929190818152602001828054614fe69061766e565b80156150335780601f1061500857610100808354040283529160200191615033565b820191906000526020600020905b81548152906001019060200180831161501657829003601f168201915b5050509183525050600b82015460209091019060ff16600381111561506857634e487b7160e01b600052602160045260246000fd5b600381111561508757634e487b7160e01b600052602160045260246000fd5b9052506020810151600154919250906000906001600160401b038111156150be57634e487b7160e01b600052604160045260246000fd5b6040519080825280602002602001820160405280156150f157816020015b60608152602001906001900390816150dc5790505b50905060005b828110156151ee57835160009061510f9083906175dc565b60008181526017602052604081208054929350909161512d9061766e565b80601f01602080910402602001604051908101604052809291908181526020018280546151599061766e565b80156151a65780601f1061517b576101008083540402835291602001916151a6565b820191906000526020600020905b81548152906001019060200180831161518957829003601f168201915b50505050509050808484815181106151ce57634e487b7160e01b600052603260045260246000fd5b6020026020010181905250505080806151e6906176a9565b9150506150f7565b50949350505050565b60205481565b60235481565b61520b6155df565b6001600160a01b031661521c6139ca565b6001600160a01b0316146152425760405162461bcd60e51b8152600401610f1a90616e13565b6001600160a01b0381166152685760405162461bcd60e51b8152600401610f1a90616919565b6125b781615ba9565b60008282604051602001613c5e929190616780565b60235490565b6152946155e3565b336000908152601660205260409020601b54601a546103e8916152b6916175dc565b106152d35760405162461bcd60e51b8152600401610f1a9061711c565b600781015460ff16156152f85760405162461bcd60e51b8152600401610f1a9061684c565b6004543360009081526018602052604090205442919081111561533d573360009081526018602052604081205461533090839061576b565b905061533b81613c82565b505b3360009081526018602052604090205481111561536c5760405162461bcd60e51b8152600401610f1a90616b81565b61537533615aa3565b6153bc57601a80546001810182556000919091527f057c384a7d1c54f3a1b2e5e67b2617b8224fdfd1ea7234eea573a6ff665ff63e0180546001600160a01b031916331790555b8254336001600160a01b03199182168117855560018501805490921617905560058301829055600783015460ff166154045760078301805460ff191660011790554260088401555b60016023600082825461541791906175dc565b909155505060405133907f439d77b7534ec3108fc6143bd4fbabde0b9f2bb54f7b0730d1f70dd2135b765f9061544e908590616592565b60405180910390a2505050565b601f54101590565b3360009081526016602052604090206007015460ff1690565b60255490565b6028546001600160a01b031681565b6001600160a01b038082166000908152601660209081526040808320815161018081018352815486168152600182015490951692850192909252600282015490840152600381015460ff161515606084015260048101546080840152600581015460a08401526006810180549293849390929160c08401916155129061766e565b80601f016020809104026020016040519081016040528092919081815260200182805461553e9061766e565b801561558b5780601f106155605761010080835404028352916020019161558b565b820191906000526020600020905b81548152906001019060200180831161556e57829003601f168201915b5050509183525050600782015460ff808216151560208401526101009091041615156040808301919091526008830154606083015260098301546080830152600a9092015460a09091015201519392505050565b3390565b601e546001600160a01b031661560b5760405162461bcd60e51b8152600401610f1a90617065565b601e546040516000916001600160a01b03169061562c9033906024016165c5565b60408051601f198184030181529181526020820180516001600160e01b0316631f5ac9c560e11b17905251615661919061659b565b6000604051808303816000865af19150503d806000811461569e576040519150601f19603f3d011682016040523d82523d6000602084013e6156a3565b606091505b5050601e546040519192506000916001600160a01b03909116906156cb9033906024016165c5565b60408051601f198184030181529181526020820180516001600160e01b03166358563d2160e01b17905251615700919061659b565b6000604051808303816000865af19150503d806000811461573d576040519150601f19603f3d011682016040523d82523d6000602084013e615742565b606091505b50509050818061574f5750805b613c1a5760405162461bcd60e51b8152600401610f1a906168d4565b6000613c428284617627565b60008060005b601a548110156157eb57836001600160a01b0316601a82815481106157b257634e487b7160e01b600052603260045260246000fd5b6000918252602090912001546001600160a01b031614156157d957600191508092506157eb565b806157e3816176a9565b91505061577d565b5080156158ca57601a805461580290600190617627565b8154811061582057634e487b7160e01b600052603260045260246000fd5b600091825260209091200154601a80546001600160a01b03909216918490811061585a57634e487b7160e01b600052603260045260246000fd5b9060005260206000200160006101000a8154816001600160a01b0302191690836001600160a01b03160217905550601a8054806158a757634e487b7160e01b600052603160045260246000fd5b600082815260209020810160001990810180546001600160a01b03191690550190555b505050565b60008060005b601b5481101561594357836001600160a01b0316601b828154811061590a57634e487b7160e01b600052603260045260246000fd5b6000918252602090912001546001600160a01b031614156159315760019150809250615943565b8061593b816176a9565b9150506158d5565b5080156158ca57601b805461595a90600190617627565b8154811061597857634e487b7160e01b600052603260045260246000fd5b600091825260209091200154601b80546001600160a01b0390921691849081106159b257634e487b7160e01b600052603260045260246000fd5b9060005260206000200160006101000a8154816001600160a01b0302191690836001600160a01b03160217905550601b8054806158a757634e487b7160e01b600052603160045260246000fd5b60005b601c54811015615a8a576000601c8281548110615a2f57634e487b7160e01b600052603260045260246000fd5b60009182526020808320909101546001600160a01b03168083526016909152604090912060078101805461ffff19169055909150615a6c82615777565b615a75826158cf565b50508080615a82906176a9565b915050615a02565b50613677601c6000615f80565b6000613c4282846175dc565b600080805b601a5481101561413d57836001600160a01b0316601a8281548110615add57634e487b7160e01b600052603260045260246000fd5b6000918252602090912001546001600160a01b03161415615b01576001915061413d565b80615b0b816176a9565b915050615aa8565b6000818310615b225781613c42565b5090919050565b600081831015615b225781613c42565b600080805b601b5481101561413d57836001600160a01b0316601b8281548110615b7357634e487b7160e01b600052603260045260246000fd5b6000918252602090912001546001600160a01b03161415615b97576001915061413d565b80615ba1816176a9565b915050615b3e565b600080546001600160a01b038381166001600160a01b0319831681178455604051919092169283917f8be0079c531659141344cd1fd0a4f28419497f9722a3daafe3b4186f6b6457e09190a35050565b805160609060005b81811015615c475780848281518110615c2a57634e487b7160e01b600052603260045260246000fd5b602090810291909101015280615c3f816176a9565b915050615c01565b509192915050565b60606000825111615c5f57600080fd5b81518060005b81811015615dda57600083615c78613eaa565b878481518110615c9857634e487b7160e01b600052603260045260246000fd5b6020026020010151604051602001615cb19291906165b7565b6040516020818303038152906040528051906020012060001c615cd491906176c4565b615cdf9060016175dc565b9050600086615cef600184617627565b81518110615d0d57634e487b7160e01b600052603260045260246000fd5b6020026020010151905086600186615d259190617627565b81518110615d4357634e487b7160e01b600052603260045260246000fd5b602002602001015187600184615d599190617627565b81518110615d7757634e487b7160e01b600052603260045260246000fd5b60209081029190910101528087615d8f600188617627565b81518110615dad57634e487b7160e01b600052603260045260246000fd5b6020908102919091010152615dc3600186617627565b945050508080615dd2906176a9565b915050615c65565b50929392505050565b828054615def9061766e565b90600052602060002090601f016020900481019282615e115760008555615e57565b82601f10615e2a57805160ff1916838001178555615e57565b82800160010185558215615e57579182015b82811115615e57578251825591602001919060010190615e3c565b50615e63929150615f9a565b5090565b508054615e739061766e565b6000825580601f10615e8557506125b7565b601f0160209004906000526020600020908101906125b79190615f9a565b60405180608001604052806060815260200160006001600160a01b031681526020016000815260200160006003811115615eed57634e487b7160e01b600052602160045260246000fd5b905290565b604051806101c001604052806000815260200160008152602001600081526020016000815260200160008152602001600015158152602001600015158152602001600015158152602001600081526020016000815260200160008152602001600081526020016060815260200160006003811115615eed57634e487b7160e01b600052602160045260246000fd5b50805460008255906000526020600020908101906125b791905b5b80821115615e635760008155600101615f9b565b80356001600160a01b0381168114610f9c57600080fd5b80518015158114610f9c57600080fd5b805160048110610f9c57600080fd5b600082601f830112615ff5578081fd5b8135616008616003826175a9565b617580565b81815284602083860101111561601c578283fd5b816020850160208301379081016020019190915292915050565b600082601f830112616046578081fd5b8151616054616003826175a9565b818152846020838601011115616068578283fd5b614c6482602083016020870161763e565b60006020828403121561608a578081fd5b613c4282615faf565b600080604083850312156160a5578081fd5b6160ae83615faf565b946020939093013593505050565b6000806000606084860312156160d0578081fd5b6160d984615faf565b95602085013595506040909401359392505050565b60006020808385031215616100578182fd5b82356001600160401b0380821115616116578384fd5b818501915085601f830112616129578384fd5b81358181111561613b5761613b617704565b838102915061614b848301617580565b8181528481019084860184860187018a1015616165578788fd5b8795505b83861015616187578035835260019590950194918601918601616169565b5098975050505050505050565b6000602082840312156161a5578081fd5b613c4282615fc6565b600080604083850312156161c0578182fd5b82356001600160401b03808211156161d6578384fd5b6161e286838701615fe5565b935060208501359150808211156161f7578283fd5b5061620485828601615fe5565b9150509250929050565b60008060408385031215616220578182fd5b82356001600160401b03811115616235578283fd5b61624185828601615fe5565b95602094909401359450505050565b600060208284031215616261578081fd5b81516001600160401b0380821115616277578283fd5b81840191506101c080838703121561628d578384fd5b61629681617580565b9050825181526020830151602082015260408301516040820152606083015160608201526162c660808401615fc6565b60808201526162d760a08401615fc6565b60a08201526162e860c08401615fc6565b60c082015260e08381015190820152610100808401519082015261012080840151908201526101408084015190820152610160808401518381111561632b578586fd5b61633788828701616036565b828401525050610180915081830151828201526101a0915061635a828401615fd6565b91810191909152949350505050565b60006020828403121561637a578081fd5b5035919050565b600060208284031215611812578081fd5b600080604083850312156163a4578182fd5b823591506163b460208401615faf565b90509250929050565b600080600080608085870312156163d2578182fd5b84359350602085013592506040850135915060608501356001600160401b038111156163fc578182fd5b61640887828801615fe5565b91505092959194509250565b60008060408385031215616426578182fd5b50508035926020909101359150565b6000806000806080858703121561644a578182fd5b843593506020850135925061646160408601615faf565b9396929550929360600135925050565b60008060008060808587031215616486578182fd5b843593506020850135925060408501356001600160401b038111156164a9578283fd5b6164b587828801615fe5565b949793965093946060013593505050565b15159052565b600081518084526164e481602086016020860161763e565b601f01601f19169290920160200192915050565b6004811061651657634e487b7160e01b600052602160045260246000fd5b9052565b600a8152690c6dedadad2e890c2e6d60b31b602082015260400190565b60098152686e756d546f6b656e7360b81b602082015260400190565b60609190911b6bffffffffffffffffffffffff1916815260140190565b60609290921b6bffffffffffffffffffffffff19168252601482015260340190565b90815260200190565b600082516165ad81846020870161763e565b9190910192915050565b918252602082015260400190565b6001600160a01b0391909116815260200190565b600060018060a01b03808f168352808e166020840152508b60408301528a151560608301528960808301528860a083015261018060c08301526166206101808301896164cc565b96151560e08301525093151561010085015261012084019290925261014083015261016090910152979650505050505050565b6000602080830181845280855180835260408601915060408482028701019250838701855b828110156166a657603f198886030184526166948583516164cc565b94509285019290850190600101616678565b5092979650505050505050565b6020808252825182820181905260009190848201906040850190845b818110156166eb578351835292840192918401916001016166cf565b50909695505050505050565b901515815260200190565b600060208252613c4260208301846164cc565b60006040825261672860408301856164cc565b905060018060a01b03831660208301529392505050565b60006080825261675260808301876164cc565b6001600160a01b038616602084015260408301859052905061677760608301846164f8565b95945050505050565b60006040825261679360408301856164cc565b90508260208301529392505050565b60006020808352818454836002820490506001808316806167c457607f831692505b8583108114156167e257634e487b7160e01b87526022600452602487fd5b6167ee83878a01616592565b81801561680257600181146168135761683d565b60ff1986168252878201965061683d565b61681c8b6175d0565b895b868110156168375781548482015290850190890161681e565b83019750505b50949998505050505050505050565b6020808252601c908201527f576f726b657220697320616c7265616479207265676973746572656400000000604082015260600190565b60208082526031908201527f676976656e204461746142617463682073686f756c6420626520415050524f5660408201527011510b08185b99081a5d081a5cc81b9bdd607a1b606082015260800190565b60208082526025908201527f72656365697665722072656a6563746564205f7265747269657665534675656c6040820152640818d85b1b60da1b606082015260800190565b60208082526026908201527f4f776e61626c653a206e6577206f776e657220697320746865207a65726f206160408201526564647265737360d01b606082015260800190565b60208082526029908201527f6b206f72204e20617265206e6f74204f4b20647572696e672072616e646f6d2060408201526839b2b632b1ba34b7b760b91b606082015260800190565b6020808252602a908201527f4661696c20647572696e6720616c6c6f636174696f6e3a206e6f7420656e6f75604082015269676820776f726b65727360b01b606082015260800190565b6020808252601e908201527f636f6d6d697420706572696f64206e6565647320746f206265206f70656e0000604082015260600190565b60208082526038908201527f55736572206e6565647320746f20626520616c6c6f636174656420746f20746860408201527f697320626174636820746f20636f6d6d6974206f6e2069740000000000000000606082015260800190565b6020808252602f908201527f636f756c64206e6f742072657761726420746f6b656e20696e2054726967676560408201526e3921b432b1b5a9b837ba161018973160891b606082015260800190565b6020808252603d908201527f436f756c64206e6f74207265717565737420656e6f75676820616c6c6f63617460408201527f6564207374616b652c2072657175657374566f74696e67526967687473000000606082015260800190565b6020808252602f908201527f5573657220686173206e6f7420636f6d6d69746564206265666f72652c20746860408201526e1d5cc818d85b89dd081c995d99585b608a1b606082015260800190565b60208082526043908201527f576f726b657220686173206e6f7420656e6f75676820285f6e756d546f6b656e60408201527f732920696e2068697320466f726d61745374616b6564546f6b656e42616c616e606082015262031b2960ed1b608082015260a00190565b6020808252602d908201527f636f756c64206e6f74207265776172642052455020696e20547269676765724360408201526c6865636b53706f742c20312e6160981b606082015260800190565b60208082526039908201527f646c6c4d61703a20646f6573206e6f7420636f696e7461696e205f446174614260408201527f61746368496420666f7220746865206d73672073656e64657200000000000000606082015260800190565b6020808252602b908201527f75736572206d75737420686176652072657665616c656420696e20746869732060408201526a0ced2eccadc4084c2e8c6d60ab1b606082015260800190565b6020808252601490820152733737ba1030903b30b634b2103837b9b4ba34b7b760611b604082015260600190565b6020808252603a908201527f576f726b65722063757272656e746c792068617320776f726b20616c6c6f636160408201527f7465642c2063616e277420626520756e72656769737465726564000000000000606082015260800190565b6020808252603b908201527f43616e277420616c6c6f6361746520776f726b2c207468652063757272656e7460408201527f20626174636820697320616c726561647920616c6c6f63617465640000000000606082015260800190565b6020808252602c908201527f576f726b6572206973206e6f74207265676973746572656420736f2063616e2760408201526b3a103ab73932b3b4b9ba32b960a11b606082015260800190565b6020808252818101527f4f776e61626c653a2063616c6c6572206973206e6f7420746865206f776e6572604082015260600190565b6020808252603a908201527f5f446174614261746368496420686173206e6f7420656e6465642c206f72206e60408201527f6f7420657665727920766f74657273206861766520766f746564000000000000606082015260800190565b6020808252603e908201527f436f756c64206e6f74206d6174636820656e637279707465642068617368202660408201527f20636c6561722068617368207769746820676976656e20696e707574732e0000606082015260800190565b60208082526029908201527f6765744e756d50617373696e67546f6b656e733a20686173686573206d75737460408201526808189948195c5d585b60ba1b606082015260800190565b60208082526036908201527f43616e277420616c6c6f6361746520776f726b2c207468652063757272656e74604082015275206261746368206973206e6f7420636f6d706c65746560501b606082015260800190565b60208082526026908201527f52657665616c20706572696f64206e6f74206f70656e20666f7220746869732060408201526511185d18525160d21b606082015260800190565b60208082526027908201527f617661696c61626c65546f6b656e732073686f756c64206265203e3d205f6e756040820152666d546f6b656e7360c81b606082015260800190565b60208082526017908201527f5f4461746142617463684964206d757374206578697374000000000000000000604082015260600190565b6020808252601390820152720c081059191c995cdcc8139bdd0815985b1a59606a1b604082015260600190565b60208082526021908201527f5f446174614261746368496420697320616c72656164792076616c69646174656040820152601960fa1b606082015260800190565b60208082526029908201527f557365722068617320616c726561647920636f6d6d6974656420746f207468696040820152681cc818985d18da125960ba1b606082015260800190565b60208082526022908201527f4d6178696d756d207265676973746572656420776f726b65727320616c726561604082015261647960f01b606082015260800190565b60208082526037908201527f75736572206d757374206861766520656e6f75676820766f74696e672072696760408201527f68747320616b6120616c6c6f6361746564207374616b65000000000000000000606082015260800190565b6020808252602a908201527f5f446174614261746368496420636865636b696e6720766f7465206d757374206040820152691a185d9948195b99195960b21b606082015260800190565b6020808252603b908201527f436f756c64206e6f74207769746864726177566f74696e67526967687473207460408201527f68726f7567682050726f78795374616b654465616c6c6f636174650000000000606082015260800190565b6020808252600f908201526e11185d18481b5d5cdd08195e1a5cdd608a1b604082015260600190565b6020808252602c908201527f557365722068617320616c72656164792072657665616c65642c20746875732060408201526b18d85b89dd081c995d99585b60a21b606082015260800190565b60006020825282516020830152602083015160408301526040830151606083015260608301516080830152608083015160a083015260a083015161731e60c08401826164c6565b5060c083015161733160e08401826164c6565b5060e0830151610100617346818501836164c6565b840151610120848101919091528401516101408085019190915284015161016080850191909152840151610180808501919091528401516101c06101a08086018290529192509061739b6101e08601846164cc565b90860151909250614867858301826164f8565b600083825282602083015260606040830152614c646060830161651a565b6000848252836020830152608060408301526173ea6080830161651a565b9050826060830152949350505050565b600083825282602083015260606040830152614c6460608301616537565b6000848252836020830152608060408301526173ea60808301616537565b93845260208401929092526040830152606082015260800190565b60006020825282516080602084015261746d60a08401826164cc565b905060018060a01b03602085015116604084015260408401516060840152606084015161749d60808501826164f8565b509392505050565b9182526001600160a01b0316602082015260400190565b9182526001600160a01b031660208201526000604082015260600190565b9283526020830191909152604082015260600190565b60008f82528e60208301528d60408301528c60608301528b60808301528a151560a083015289151560c083015261752a60e083018a6164c6565b876101008301528661012083015285610140830152846101608301526101c061018083015261755d6101c08301856164cc565b905061756d6101a08301846164f8565b9f9e505050505050505050505050505050565b6040518181016001600160401b03811182821017156175a1576175a1617704565b604052919050565b60006001600160401b038211156175c2576175c2617704565b50601f01601f191660200190565b60009081526020902090565b600082198211156175ef576175ef6176d8565b500190565b600082617603576176036176ee565b500490565b6000816000190483118215151615617622576176226176d8565b500290565b600082821015617639576176396176d8565b500390565b60005b83811015617659578181015183820152602001617641565b83811115617668576000848401525b50505050565b60028104600182168061768257607f821691505b602082108114156176a357634e487b7160e01b600052602260045260246000fd5b50919050565b60006000198214156176bd576176bd6176d8565b5060010190565b6000826176d3576176d36176ee565b500690565b634e487b7160e01b600052601160045260246000fd5b634e487b7160e01b600052601260045260246000fd5b634e487b7160e01b600052604160045260246000fdfea2646970667358221220ef322a4ce7d76fadba26f7aa3b0add1cf1dced0431e6fd57291a9e7bc291d9b264736f6c63430008000033",
  "linkReferences": {
    "contracts/worksystems/DataFormatting.sol": {
      "AttributeStore2": [
        {
          "length": 20,
          "start": 5219
        },
        {
          "length": 20,
          "start": 5325
        },
        {
          "length": 20,
          "start": 18632
        },
        {
          "length": 20,
          "start": 19110
        }
      ],
      "DLL2": [
        {
          "length": 20,
          "start": 4739
        },
        {
          "length": 20,
          "start": 4901
        },
        {
          "length": 20,
          "start": 5096
        },
        {
          "length": 20,
          "start": 7036
        },
        {
          "length": 20,
          "start": 7564
        },
        {
          "length": 20,
          "start": 15430
        },
        {
          "length": 20,
          "start": 15610
        }
      ]
    }
  },
  "deployedLinkReferences": {
    "contracts/worksystems/DataFormatting.sol": {
      "AttributeStore2": [
        {
          "length": 20,
          "start": 4768
        },
        {
          "length": 20,
          "start": 4874
        },
        {
          "length": 20,
          "start": 18181
        },
        {
          "length": 20,
          "start": 18659
        }
      ],
      "DLL2": [
        {
          "length": 20,
          "start": 4288
        },
        {
          "length": 20,
          "start": 4450
        },
        {
          "length": 20,
          "start": 4645
        },
        {
          "length": 20,
          "start": 6585
        },
        {
          "length": 20,
          "start": 7113
        },
        {
          "length": 20,
          "start": 14979
        },
        {
          "length": 20,
          "start": 15159
        }
      ]
    }
  }
}