{
  "_format": "hh-sol-artifact-1",
  "contractName": "DataFormatting",
  "sourceName": "contracts/worksystems/DataFormatting.sol",
  "abi": [
    {
      "inputs": [
        {
          "internalType": "address",
          "name": "EXDT_token",
          "type": "address"
        }
      ],
      "stateMutability": "nonpayable",
      "type": "constructor"
    },
    {
      "anonymous": false,
      "inputs": [
        {
          "indexed": false,
          "internalType": "bytes",
          "name": "bytesFailure",
          "type": "bytes"
        }
      ],
      "name": "BytesFailure",
      "type": "event"
    },
    {
      "anonymous": false,
      "inputs": [
        {
          "indexed": true,
          "internalType": "address",
          "name": "previousOwner",
          "type": "address"
        },
        {
          "indexed": true,
          "internalType": "address",
          "name": "newOwner",
          "type": "address"
        }
      ],
      "name": "OwnershipTransferred",
      "type": "event"
    },
    {
      "anonymous": false,
      "inputs": [
        {
          "indexed": false,
          "internalType": "string",
          "name": "hash",
          "type": "string"
        },
        {
          "indexed": true,
          "internalType": "address",
          "name": "creator",
          "type": "address"
        }
      ],
      "name": "_FormatAccepted",
      "type": "event"
    },
    {
      "anonymous": false,
      "inputs": [
        {
          "indexed": true,
          "internalType": "uint256",
          "name": "DataID",
          "type": "uint256"
        },
        {
          "indexed": false,
          "internalType": "uint256",
          "name": "numTokens",
          "type": "uint256"
        },
        {
          "indexed": true,
          "internalType": "address",
          "name": "voter",
          "type": "address"
        }
      ],
      "name": "_FormatCheckCommitted",
      "type": "event"
    },
    {
      "anonymous": false,
      "inputs": [
        {
          "indexed": true,
          "internalType": "uint256",
          "name": "DataID",
          "type": "uint256"
        },
        {
          "indexed": false,
          "internalType": "uint256",
          "name": "numTokens",
          "type": "uint256"
        },
        {
          "indexed": false,
          "internalType": "uint256",
          "name": "votesFor",
          "type": "uint256"
        },
        {
          "indexed": false,
          "internalType": "uint256",
          "name": "votesAgainst",
          "type": "uint256"
        },
        {
          "indexed": true,
          "internalType": "uint256",
          "name": "choice",
          "type": "uint256"
        },
        {
          "indexed": true,
          "internalType": "address",
          "name": "voter",
          "type": "address"
        }
      ],
      "name": "_FormatCheckRevealed",
      "type": "event"
    },
    {
      "anonymous": false,
      "inputs": [
        {
          "indexed": true,
          "internalType": "uint256",
          "name": "DataID",
          "type": "uint256"
        },
        {
          "indexed": false,
          "internalType": "string",
          "name": "file_hash",
          "type": "string"
        },
        {
          "indexed": false,
          "internalType": "address",
          "name": "sender",
          "type": "address"
        }
      ],
      "name": "_FormatSubmitted",
      "type": "event"
    },
    {
      "anonymous": false,
      "inputs": [
        {
          "indexed": true,
          "internalType": "uint256",
          "name": "epochNumber",
          "type": "uint256"
        }
      ],
      "name": "_NewEpoch",
      "type": "event"
    },
    {
      "anonymous": false,
      "inputs": [
        {
          "indexed": true,
          "internalType": "uint256",
          "name": "DataID",
          "type": "uint256"
        },
        {
          "indexed": true,
          "internalType": "address",
          "name": "voter",
          "type": "address"
        }
      ],
      "name": "_TokensRescued",
      "type": "event"
    },
    {
      "anonymous": false,
      "inputs": [
        {
          "indexed": false,
          "internalType": "uint256",
          "name": "numTokens",
          "type": "uint256"
        },
        {
          "indexed": true,
          "internalType": "address",
          "name": "voter",
          "type": "address"
        }
      ],
      "name": "_VotingRightsGranted",
      "type": "event"
    },
    {
      "anonymous": false,
      "inputs": [
        {
          "indexed": false,
          "internalType": "uint256",
          "name": "numTokens",
          "type": "uint256"
        },
        {
          "indexed": true,
          "internalType": "address",
          "name": "voter",
          "type": "address"
        }
      ],
      "name": "_VotingRightsWithdrawn",
      "type": "event"
    },
    {
      "anonymous": false,
      "inputs": [
        {
          "indexed": true,
          "internalType": "uint256",
          "name": "batchID",
          "type": "uint256"
        },
        {
          "indexed": false,
          "internalType": "address",
          "name": "worker",
          "type": "address"
        }
      ],
      "name": "_WorkAllocated",
      "type": "event"
    },
    {
      "anonymous": false,
      "inputs": [
        {
          "indexed": true,
          "internalType": "address",
          "name": "worker",
          "type": "address"
        },
        {
          "indexed": false,
          "internalType": "uint256",
          "name": "timestamp",
          "type": "uint256"
        }
      ],
      "name": "_WorkerRegistered",
      "type": "event"
    },
    {
      "anonymous": false,
      "inputs": [
        {
          "indexed": true,
          "internalType": "address",
          "name": "worker",
          "type": "address"
        },
        {
          "indexed": false,
          "internalType": "uint256",
          "name": "timestamp",
          "type": "uint256"
        }
      ],
      "name": "_WorkerUnregistered",
      "type": "event"
    },
    {
      "inputs": [],
      "name": "AddressManager",
      "outputs": [
        {
          "internalType": "contract IAddressManager",
          "name": "",
          "type": "address"
        }
      ],
      "stateMutability": "view",
      "type": "function"
    },
    {
      "inputs": [],
      "name": "AllTxsCounter",
      "outputs": [
        {
          "internalType": "uint256",
          "name": "",
          "type": "uint256"
        }
      ],
      "stateMutability": "view",
      "type": "function"
    },
    {
      "inputs": [],
      "name": "AllocateWork",
      "outputs": [],
      "stateMutability": "nonpayable",
      "type": "function"
    },
    {
      "inputs": [],
      "name": "AllocatedBatchCursor",
      "outputs": [
        {
          "internalType": "uint256",
          "name": "",
          "type": "uint256"
        }
      ],
      "stateMutability": "view",
      "type": "function"
    },
    {
      "inputs": [],
      "name": "AmIRegistered",
      "outputs": [
        {
          "internalType": "bool",
          "name": "passed",
          "type": "bool"
        }
      ],
      "stateMutability": "view",
      "type": "function"
    },
    {
      "inputs": [],
      "name": "ArchiveSystem",
      "outputs": [
        {
          "internalType": "contract IArchiveSystem",
          "name": "",
          "type": "address"
        }
      ],
      "stateMutability": "view",
      "type": "function"
    },
    {
      "inputs": [
        {
          "internalType": "string",
          "name": "_a",
          "type": "string"
        },
        {
          "internalType": "string",
          "name": "_b",
          "type": "string"
        }
      ],
      "name": "AreStringsEqual",
      "outputs": [
        {
          "internalType": "bool",
          "name": "",
          "type": "bool"
        }
      ],
      "stateMutability": "pure",
      "type": "function"
    },
    {
      "inputs": [],
      "name": "BatchCheckingCursor",
      "outputs": [
        {
          "internalType": "uint256",
          "name": "",
          "type": "uint256"
        }
      ],
      "stateMutability": "view",
      "type": "function"
    },
    {
      "inputs": [],
      "name": "COMMIT_ROUND_DURATION",
      "outputs": [
        {
          "internalType": "uint256",
          "name": "",
          "type": "uint256"
        }
      ],
      "stateMutability": "view",
      "type": "function"
    },
    {
      "inputs": [],
      "name": "CONSENSUS_WORKER_SIZE",
      "outputs": [
        {
          "internalType": "uint256",
          "name": "",
          "type": "uint256"
        }
      ],
      "stateMutability": "view",
      "type": "function"
    },
    {
      "inputs": [
        {
          "internalType": "uint256",
          "name": "",
          "type": "uint256"
        }
      ],
      "name": "CollectedSpotBatchs",
      "outputs": [
        {
          "internalType": "bool",
          "name": "",
          "type": "bool"
        }
      ],
      "stateMutability": "view",
      "type": "function"
    },
    {
      "inputs": [],
      "name": "CurrentWorkEpoch",
      "outputs": [
        {
          "internalType": "uint256",
          "name": "",
          "type": "uint256"
        }
      ],
      "stateMutability": "view",
      "type": "function"
    },
    {
      "inputs": [],
      "name": "DATA_BATCH_SIZE",
      "outputs": [
        {
          "internalType": "uint256",
          "name": "",
          "type": "uint256"
        }
      ],
      "stateMutability": "view",
      "type": "function"
    },
    {
      "inputs": [
        {
          "internalType": "uint256",
          "name": "",
          "type": "uint256"
        }
      ],
      "name": "DataBatch",
      "outputs": [
        {
          "internalType": "uint256",
          "name": "start_idx",
          "type": "uint256"
        },
        {
          "internalType": "uint256",
          "name": "end_idx",
          "type": "uint256"
        },
        {
          "internalType": "uint256",
          "name": "counter",
          "type": "uint256"
        },
        {
          "internalType": "uint256",
          "name": "unrevealed_workers",
          "type": "uint256"
        },
        {
          "internalType": "bool",
          "name": "complete",
          "type": "bool"
        },
        {
          "internalType": "bool",
          "name": "checked",
          "type": "bool"
        },
        {
          "internalType": "bool",
          "name": "allocated_to_work",
          "type": "bool"
        },
        {
          "internalType": "uint256",
          "name": "commitEndDate",
          "type": "uint256"
        },
        {
          "internalType": "uint256",
          "name": "revealEndDate",
          "type": "uint256"
        },
        {
          "internalType": "uint256",
          "name": "votesFor",
          "type": "uint256"
        },
        {
          "internalType": "uint256",
          "name": "votesAgainst",
          "type": "uint256"
        },
        {
          "internalType": "string",
          "name": "batchIPFSfile",
          "type": "string"
        },
        {
          "internalType": "enum DataFormatting.DataStatus",
          "name": "status",
          "type": "uint8"
        }
      ],
      "stateMutability": "view",
      "type": "function"
    },
    {
      "inputs": [
        {
          "internalType": "uint256",
          "name": "_DataBatchId",
          "type": "uint256"
        }
      ],
      "name": "DataCommitEndDate",
      "outputs": [
        {
          "internalType": "uint256",
          "name": "commitEndDate",
          "type": "uint256"
        }
      ],
      "stateMutability": "view",
      "type": "function"
    },
    {
      "inputs": [
        {
          "internalType": "uint256",
          "name": "_DataBatchId",
          "type": "uint256"
        }
      ],
      "name": "DataEnded",
      "outputs": [
        {
          "internalType": "bool",
          "name": "ended",
          "type": "bool"
        }
      ],
      "stateMutability": "view",
      "type": "function"
    },
    {
      "inputs": [
        {
          "internalType": "uint256",
          "name": "_DataBatchId",
          "type": "uint256"
        }
      ],
      "name": "DataExists",
      "outputs": [
        {
          "internalType": "bool",
          "name": "exists",
          "type": "bool"
        }
      ],
      "stateMutability": "view",
      "type": "function"
    },
    {
      "inputs": [],
      "name": "DataNonce",
      "outputs": [
        {
          "internalType": "uint256",
          "name": "",
          "type": "uint256"
        }
      ],
      "stateMutability": "view",
      "type": "function"
    },
    {
      "inputs": [
        {
          "internalType": "uint256",
          "name": "_DataBatchId",
          "type": "uint256"
        }
      ],
      "name": "DataRevealEndDate",
      "outputs": [
        {
          "internalType": "uint256",
          "name": "revealEndDate",
          "type": "uint256"
        }
      ],
      "stateMutability": "view",
      "type": "function"
    },
    {
      "inputs": [
        {
          "internalType": "address",
          "name": "",
          "type": "address"
        }
      ],
      "name": "FormatStakedTokenBalance",
      "outputs": [
        {
          "internalType": "uint256",
          "name": "",
          "type": "uint256"
        }
      ],
      "stateMutability": "view",
      "type": "function"
    },
    {
      "inputs": [
        {
          "internalType": "uint256",
          "name": "",
          "type": "uint256"
        }
      ],
      "name": "FormatsMapping",
      "outputs": [
        {
          "internalType": "string",
          "name": "ipfs_hash",
          "type": "string"
        },
        {
          "internalType": "address",
          "name": "author",
          "type": "address"
        },
        {
          "internalType": "uint256",
          "name": "timestamp",
          "type": "uint256"
        },
        {
          "internalType": "enum DataFormatting.DataStatus",
          "name": "status",
          "type": "uint8"
        }
      ],
      "stateMutability": "view",
      "type": "function"
    },
    {
      "inputs": [
        {
          "internalType": "address",
          "name": "user_",
          "type": "address"
        }
      ],
      "name": "GetCurrentWork",
      "outputs": [
        {
          "internalType": "uint256",
          "name": "",
          "type": "uint256"
        }
      ],
      "stateMutability": "view",
      "type": "function"
    },
    {
      "inputs": [
        {
          "internalType": "address",
          "name": "user_",
          "type": "address"
        }
      ],
      "name": "IsNewWorkAvailable",
      "outputs": [
        {
          "internalType": "bool",
          "name": "",
          "type": "bool"
        }
      ],
      "stateMutability": "view",
      "type": "function"
    },
    {
      "inputs": [],
      "name": "LastBatchCounter",
      "outputs": [
        {
          "internalType": "uint256",
          "name": "",
          "type": "uint256"
        }
      ],
      "stateMutability": "view",
      "type": "function"
    },
    {
      "inputs": [],
      "name": "MIN_REP_Data",
      "outputs": [
        {
          "internalType": "uint256",
          "name": "",
          "type": "uint256"
        }
      ],
      "stateMutability": "view",
      "type": "function"
    },
    {
      "inputs": [],
      "name": "MIN_REP_REVEAL",
      "outputs": [
        {
          "internalType": "uint256",
          "name": "",
          "type": "uint256"
        }
      ],
      "stateMutability": "view",
      "type": "function"
    },
    {
      "inputs": [],
      "name": "MIN_REWARD_Data",
      "outputs": [
        {
          "internalType": "uint256",
          "name": "",
          "type": "uint256"
        }
      ],
      "stateMutability": "view",
      "type": "function"
    },
    {
      "inputs": [],
      "name": "MIN_STAKE",
      "outputs": [
        {
          "internalType": "uint256",
          "name": "",
          "type": "uint256"
        }
      ],
      "stateMutability": "view",
      "type": "function"
    },
    {
      "inputs": [
        {
          "internalType": "address",
          "name": "",
          "type": "address"
        },
        {
          "internalType": "uint256",
          "name": "",
          "type": "uint256"
        }
      ],
      "name": "MasterWorkers",
      "outputs": [
        {
          "internalType": "address",
          "name": "",
          "type": "address"
        }
      ],
      "stateMutability": "view",
      "type": "function"
    },
    {
      "inputs": [
        {
          "internalType": "uint256",
          "name": "CheckedBatchId",
          "type": "uint256"
        }
      ],
      "name": "Ping",
      "outputs": [
        {
          "internalType": "bool",
          "name": "",
          "type": "bool"
        }
      ],
      "stateMutability": "nonpayable",
      "type": "function"
    },
    {
      "inputs": [],
      "name": "REVEAL_ROUND_DURATION",
      "outputs": [
        {
          "internalType": "uint256",
          "name": "",
          "type": "uint256"
        }
      ],
      "stateMutability": "view",
      "type": "function"
    },
    {
      "inputs": [],
      "name": "RegisterWorker",
      "outputs": [],
      "stateMutability": "nonpayable",
      "type": "function"
    },
    {
      "inputs": [],
      "name": "RepManager",
      "outputs": [
        {
          "internalType": "contract IRepManager",
          "name": "",
          "type": "address"
        }
      ],
      "stateMutability": "view",
      "type": "function"
    },
    {
      "inputs": [],
      "name": "RewardManager",
      "outputs": [
        {
          "internalType": "contract IRewardManager",
          "name": "",
          "type": "address"
        }
      ],
      "stateMutability": "view",
      "type": "function"
    },
    {
      "inputs": [],
      "name": "SPOT_CHECK_VOTE_QUORUM",
      "outputs": [
        {
          "internalType": "uint256",
          "name": "",
          "type": "uint256"
        }
      ],
      "stateMutability": "view",
      "type": "function"
    },
    {
      "inputs": [],
      "name": "SpottingSystem",
      "outputs": [
        {
          "internalType": "contract ISpottingSystem",
          "name": "",
          "type": "address"
        }
      ],
      "stateMutability": "view",
      "type": "function"
    },
    {
      "inputs": [],
      "name": "StakeManager",
      "outputs": [
        {
          "internalType": "contract IStakeManager",
          "name": "",
          "type": "address"
        }
      ],
      "stateMutability": "view",
      "type": "function"
    },
    {
      "inputs": [],
      "name": "TriggerNextEpoch",
      "outputs": [],
      "stateMutability": "nonpayable",
      "type": "function"
    },
    {
      "inputs": [],
      "name": "UnregisterWorker",
      "outputs": [],
      "stateMutability": "nonpayable",
      "type": "function"
    },
    {
      "inputs": [
        {
          "internalType": "address",
          "name": "",
          "type": "address"
        },
        {
          "internalType": "uint256",
          "name": "",
          "type": "uint256"
        }
      ],
      "name": "UserChecksCommits",
      "outputs": [
        {
          "internalType": "bool",
          "name": "",
          "type": "bool"
        }
      ],
      "stateMutability": "view",
      "type": "function"
    },
    {
      "inputs": [
        {
          "internalType": "address",
          "name": "",
          "type": "address"
        },
        {
          "internalType": "uint256",
          "name": "",
          "type": "uint256"
        }
      ],
      "name": "UserChecksReveals",
      "outputs": [
        {
          "internalType": "bool",
          "name": "",
          "type": "bool"
        }
      ],
      "stateMutability": "view",
      "type": "function"
    },
    {
      "inputs": [
        {
          "internalType": "uint256",
          "name": "",
          "type": "uint256"
        },
        {
          "internalType": "address",
          "name": "",
          "type": "address"
        }
      ],
      "name": "UserNewFiles",
      "outputs": [
        {
          "internalType": "string",
          "name": "",
          "type": "string"
        }
      ],
      "stateMutability": "view",
      "type": "function"
    },
    {
      "inputs": [
        {
          "internalType": "uint256",
          "name": "",
          "type": "uint256"
        },
        {
          "internalType": "address",
          "name": "",
          "type": "address"
        }
      ],
      "name": "UserVotes",
      "outputs": [
        {
          "internalType": "uint256",
          "name": "",
          "type": "uint256"
        }
      ],
      "stateMutability": "view",
      "type": "function"
    },
    {
      "inputs": [
        {
          "internalType": "uint256",
          "name": "_DataBatchId",
          "type": "uint256"
        }
      ],
      "name": "ValidateDataBatch",
      "outputs": [],
      "stateMutability": "nonpayable",
      "type": "function"
    },
    {
      "inputs": [
        {
          "internalType": "uint256",
          "name": "",
          "type": "uint256"
        },
        {
          "internalType": "uint256",
          "name": "",
          "type": "uint256"
        }
      ],
      "name": "WorkersPerBatch",
      "outputs": [
        {
          "internalType": "address",
          "name": "",
          "type": "address"
        }
      ],
      "stateMutability": "view",
      "type": "function"
    },
    {
      "inputs": [
        {
          "internalType": "address",
          "name": "",
          "type": "address"
        }
      ],
      "name": "WorkersState",
      "outputs": [
        {
          "internalType": "address",
          "name": "worker_address",
          "type": "address"
        },
        {
          "internalType": "address",
          "name": "master_address",
          "type": "address"
        },
        {
          "internalType": "uint256",
          "name": "allocated_work_batch",
          "type": "uint256"
        },
        {
          "internalType": "bool",
          "name": "has_completed_work",
          "type": "bool"
        },
        {
          "internalType": "uint256",
          "name": "last_worked_round",
          "type": "uint256"
        },
        {
          "internalType": "uint256",
          "name": "last_interaction_date",
          "type": "uint256"
        },
        {
          "internalType": "string",
          "name": "extra",
          "type": "string"
        },
        {
          "internalType": "bool",
          "name": "registered",
          "type": "bool"
        },
        {
          "internalType": "uint256",
          "name": "registration_date",
          "type": "uint256"
        }
      ],
      "stateMutability": "view",
      "type": "function"
    },
    {
      "inputs": [
        {
          "internalType": "address",
          "name": "_user",
          "type": "address"
        },
        {
          "internalType": "uint256",
          "name": "_DataBatchId",
          "type": "uint256"
        }
      ],
      "name": "attrUUID",
      "outputs": [
        {
          "internalType": "bytes32",
          "name": "UUID",
          "type": "bytes32"
        }
      ],
      "stateMutability": "pure",
      "type": "function"
    },
    {
      "inputs": [
        {
          "internalType": "uint256",
          "name": "",
          "type": "uint256"
        }
      ],
      "name": "availableWorkers",
      "outputs": [
        {
          "internalType": "address",
          "name": "",
          "type": "address"
        }
      ],
      "stateMutability": "view",
      "type": "function"
    },
    {
      "inputs": [
        {
          "internalType": "uint256",
          "name": "",
          "type": "uint256"
        }
      ],
      "name": "busyWorkers",
      "outputs": [
        {
          "internalType": "address",
          "name": "",
          "type": "address"
        }
      ],
      "stateMutability": "view",
      "type": "function"
    },
    {
      "inputs": [
        {
          "internalType": "uint256",
          "name": "_DataBatchId",
          "type": "uint256"
        },
        {
          "internalType": "bytes32",
          "name": "_secretHash",
          "type": "bytes32"
        },
        {
          "internalType": "string",
          "name": "newIPFSHash",
          "type": "string"
        }
      ],
      "name": "commitFormatCheck",
      "outputs": [],
      "stateMutability": "nonpayable",
      "type": "function"
    },
    {
      "inputs": [
        {
          "internalType": "uint256",
          "name": "_DataBatchId",
          "type": "uint256"
        }
      ],
      "name": "commitPeriodActive",
      "outputs": [
        {
          "internalType": "bool",
          "name": "active",
          "type": "bool"
        }
      ],
      "stateMutability": "view",
      "type": "function"
    },
    {
      "inputs": [
        {
          "internalType": "uint256",
          "name": "_DataId",
          "type": "uint256"
        }
      ],
      "name": "deleteData",
      "outputs": [],
      "stateMutability": "nonpayable",
      "type": "function"
    },
    {
      "inputs": [
        {
          "internalType": "uint256",
          "name": "_BatchId",
          "type": "uint256"
        }
      ],
      "name": "deleteDataBatch",
      "outputs": [],
      "stateMutability": "nonpayable",
      "type": "function"
    },
    {
      "inputs": [
        {
          "internalType": "uint256",
          "name": "_BatchId",
          "type": "uint256"
        }
      ],
      "name": "deleteMapping",
      "outputs": [],
      "stateMutability": "nonpayable",
      "type": "function"
    },
    {
      "inputs": [
        {
          "internalType": "address",
          "name": "_voter",
          "type": "address"
        },
        {
          "internalType": "uint256",
          "name": "_DataBatchId",
          "type": "uint256"
        }
      ],
      "name": "didCommit",
      "outputs": [
        {
          "internalType": "bool",
          "name": "committed",
          "type": "bool"
        }
      ],
      "stateMutability": "view",
      "type": "function"
    },
    {
      "inputs": [
        {
          "internalType": "address",
          "name": "_voter",
          "type": "address"
        },
        {
          "internalType": "uint256",
          "name": "_DataBatchId",
          "type": "uint256"
        }
      ],
      "name": "didReveal",
      "outputs": [
        {
          "internalType": "bool",
          "name": "revealed",
          "type": "bool"
        }
      ],
      "stateMutability": "view",
      "type": "function"
    },
    {
      "inputs": [
        {
          "internalType": "uint256",
          "name": "_k",
          "type": "uint256"
        },
        {
          "internalType": "uint256",
          "name": "N_range",
          "type": "uint256"
        }
      ],
      "name": "generateIntegers",
      "outputs": [
        {
          "internalType": "uint256[]",
          "name": "",
          "type": "uint256[]"
        }
      ],
      "stateMutability": "view",
      "type": "function"
    },
    {
      "inputs": [],
      "name": "getActiveWorkersCount",
      "outputs": [
        {
          "internalType": "uint256",
          "name": "numWorkers",
          "type": "uint256"
        }
      ],
      "stateMutability": "view",
      "type": "function"
    },
    {
      "inputs": [
        {
          "internalType": "uint256",
          "name": "_DataBatchId",
          "type": "uint256"
        }
      ],
      "name": "getBatchByID",
      "outputs": [
        {
          "components": [
            {
              "internalType": "uint256",
              "name": "start_idx",
              "type": "uint256"
            },
            {
              "internalType": "uint256",
              "name": "end_idx",
              "type": "uint256"
            },
            {
              "internalType": "uint256",
              "name": "counter",
              "type": "uint256"
            },
            {
              "internalType": "uint256",
              "name": "unrevealed_workers",
              "type": "uint256"
            },
            {
              "internalType": "bool",
              "name": "complete",
              "type": "bool"
            },
            {
              "internalType": "bool",
              "name": "checked",
              "type": "bool"
            },
            {
              "internalType": "bool",
              "name": "allocated_to_work",
              "type": "bool"
            },
            {
              "internalType": "uint256",
              "name": "commitEndDate",
              "type": "uint256"
            },
            {
              "internalType": "uint256",
              "name": "revealEndDate",
              "type": "uint256"
            },
            {
              "internalType": "uint256",
              "name": "votesFor",
              "type": "uint256"
            },
            {
              "internalType": "uint256",
              "name": "votesAgainst",
              "type": "uint256"
            },
            {
              "internalType": "string",
              "name": "batchIPFSfile",
              "type": "string"
            },
            {
              "internalType": "enum DataFormatting.DataStatus",
              "name": "status",
              "type": "uint8"
            },
            {
              "internalType": "string[]",
              "name": "flags",
              "type": "string[]"
            },
            {
              "internalType": "uint256[]",
              "name": "flags_id",
              "type": "uint256[]"
            }
          ],
          "internalType": "struct DataFormatting.BatchMetadata",
          "name": "batch",
          "type": "tuple"
        }
      ],
      "stateMutability": "view",
      "type": "function"
    },
    {
      "inputs": [
        {
          "internalType": "uint256",
          "name": "_DataBatchId",
          "type": "uint256"
        }
      ],
      "name": "getBatchIPFSFileByID",
      "outputs": [
        {
          "internalType": "string",
          "name": "batch",
          "type": "string"
        }
      ],
      "stateMutability": "view",
      "type": "function"
    },
    {
      "inputs": [],
      "name": "getBlockTimestamp",
      "outputs": [
        {
          "internalType": "uint256",
          "name": "blocktimestamp",
          "type": "uint256"
        }
      ],
      "stateMutability": "view",
      "type": "function"
    },
    {
      "inputs": [
        {
          "internalType": "address",
          "name": "_voter",
          "type": "address"
        },
        {
          "internalType": "uint256",
          "name": "_DataBatchId",
          "type": "uint256"
        }
      ],
      "name": "getCommitHash",
      "outputs": [
        {
          "internalType": "bytes32",
          "name": "commitHash",
          "type": "bytes32"
        }
      ],
      "stateMutability": "view",
      "type": "function"
    },
    {
      "inputs": [],
      "name": "getCurrentWorkEpoch",
      "outputs": [
        {
          "internalType": "uint256",
          "name": "WorkEpoch",
          "type": "uint256"
        }
      ],
      "stateMutability": "view",
      "type": "function"
    },
    {
      "inputs": [
        {
          "internalType": "uint256",
          "name": "_DataId",
          "type": "uint256"
        }
      ],
      "name": "getDataByID",
      "outputs": [
        {
          "components": [
            {
              "internalType": "string",
              "name": "ipfs_hash",
              "type": "string"
            },
            {
              "internalType": "address",
              "name": "author",
              "type": "address"
            },
            {
              "internalType": "uint256",
              "name": "timestamp",
              "type": "uint256"
            },
            {
              "internalType": "enum DataFormatting.DataStatus",
              "name": "status",
              "type": "uint8"
            }
          ],
          "internalType": "struct DataFormatting.FormattedData",
          "name": "data",
          "type": "tuple"
        }
      ],
      "stateMutability": "view",
      "type": "function"
    },
    {
      "inputs": [
        {
          "internalType": "string",
          "name": "_hash",
          "type": "string"
        },
        {
          "internalType": "uint256",
          "name": "_salt",
          "type": "uint256"
        }
      ],
      "name": "getEncryptedStringHash",
      "outputs": [
        {
          "internalType": "bytes32",
          "name": "keccak256hash",
          "type": "bytes32"
        }
      ],
      "stateMutability": "pure",
      "type": "function"
    },
    {
      "inputs": [
        {
          "internalType": "uint256",
          "name": "_voteOption",
          "type": "uint256"
        },
        {
          "internalType": "uint256",
          "name": "_salt",
          "type": "uint256"
        }
      ],
      "name": "getEncryptedVoteHash",
      "outputs": [
        {
          "internalType": "bytes32",
          "name": "keccak256hash",
          "type": "bytes32"
        }
      ],
      "stateMutability": "pure",
      "type": "function"
    },
    {
      "inputs": [
        {
          "internalType": "uint256",
          "name": "a",
          "type": "uint256"
        },
        {
          "internalType": "uint256",
          "name": "b",
          "type": "uint256"
        }
      ],
      "name": "getHash",
      "outputs": [
        {
          "internalType": "bytes32",
          "name": "keccak256hash",
          "type": "bytes32"
        }
      ],
      "stateMutability": "pure",
      "type": "function"
    },
    {
      "inputs": [
        {
          "internalType": "uint256",
          "name": "_DataBatchId",
          "type": "uint256"
        }
      ],
      "name": "getIPFShashesForBatch",
      "outputs": [
        {
          "internalType": "string[]",
          "name": "",
          "type": "string[]"
        }
      ],
      "stateMutability": "view",
      "type": "function"
    },
    {
      "inputs": [
        {
          "internalType": "address",
          "name": "_voter",
          "type": "address"
        },
        {
          "internalType": "uint256",
          "name": "_numTokens",
          "type": "uint256"
        },
        {
          "internalType": "uint256",
          "name": "_DataBatchId",
          "type": "uint256"
        }
      ],
      "name": "getInsertPointForNumTokens",
      "outputs": [
        {
          "internalType": "uint256",
          "name": "prevNode",
          "type": "uint256"
        }
      ],
      "stateMutability": "view",
      "type": "function"
    },
    {
      "inputs": [],
      "name": "getLastBatchId",
      "outputs": [
        {
          "internalType": "uint256",
          "name": "LastBatchId",
          "type": "uint256"
        }
      ],
      "stateMutability": "view",
      "type": "function"
    },
    {
      "inputs": [],
      "name": "getLastCheckedBatchId",
      "outputs": [
        {
          "internalType": "uint256",
          "name": "LastCheckedBatchId",
          "type": "uint256"
        }
      ],
      "stateMutability": "view",
      "type": "function"
    },
    {
      "inputs": [],
      "name": "getLastDataId",
      "outputs": [
        {
          "internalType": "uint256",
          "name": "DataId",
          "type": "uint256"
        }
      ],
      "stateMutability": "view",
      "type": "function"
    },
    {
      "inputs": [
        {
          "internalType": "address",
          "name": "_voter",
          "type": "address"
        }
      ],
      "name": "getLastNode",
      "outputs": [
        {
          "internalType": "uint256",
          "name": "DataID",
          "type": "uint256"
        }
      ],
      "stateMutability": "view",
      "type": "function"
    },
    {
      "inputs": [
        {
          "internalType": "address",
          "name": "_voter",
          "type": "address"
        }
      ],
      "name": "getLockedTokens",
      "outputs": [
        {
          "internalType": "uint256",
          "name": "numTokens",
          "type": "uint256"
        }
      ],
      "stateMutability": "view",
      "type": "function"
    },
    {
      "inputs": [
        {
          "internalType": "address",
          "name": "_voter",
          "type": "address"
        },
        {
          "internalType": "uint256",
          "name": "_DataBatchId",
          "type": "uint256"
        },
        {
          "internalType": "uint256",
          "name": "_salt",
          "type": "uint256"
        }
      ],
      "name": "getNumPassingTokens",
      "outputs": [
        {
          "internalType": "uint256",
          "name": "correctFormatChecks",
          "type": "uint256"
        }
      ],
      "stateMutability": "view",
      "type": "function"
    },
    {
      "inputs": [
        {
          "internalType": "address",
          "name": "_voter",
          "type": "address"
        },
        {
          "internalType": "uint256",
          "name": "_DataBatchId",
          "type": "uint256"
        }
      ],
      "name": "getNumTokens",
      "outputs": [
        {
          "internalType": "uint256",
          "name": "numTokens",
          "type": "uint256"
        }
      ],
      "stateMutability": "view",
      "type": "function"
    },
    {
      "inputs": [],
      "name": "getRandom",
      "outputs": [
        {
          "internalType": "uint256",
          "name": "",
          "type": "uint256"
        }
      ],
      "stateMutability": "view",
      "type": "function"
    },
    {
      "inputs": [],
      "name": "getSeed",
      "outputs": [
        {
          "internalType": "bytes32",
          "name": "addr",
          "type": "bytes32"
        }
      ],
      "stateMutability": "view",
      "type": "function"
    },
    {
      "inputs": [
        {
          "internalType": "uint256",
          "name": "_DataBatchId",
          "type": "uint256"
        }
      ],
      "name": "getTotalNumberOfFormatChecks",
      "outputs": [
        {
          "internalType": "uint256",
          "name": "vc",
          "type": "uint256"
        }
      ],
      "stateMutability": "view",
      "type": "function"
    },
    {
      "inputs": [
        {
          "internalType": "uint256",
          "name": "_DataBatchId",
          "type": "uint256"
        }
      ],
      "name": "getTotalNumberOfTokensForWinningOption",
      "outputs": [
        {
          "internalType": "uint256",
          "name": "numTokens",
          "type": "uint256"
        }
      ],
      "stateMutability": "view",
      "type": "function"
    },
    {
      "inputs": [],
      "name": "getTxCounter",
      "outputs": [
        {
          "internalType": "uint256",
          "name": "Counter",
          "type": "uint256"
        }
      ],
      "stateMutability": "view",
      "type": "function"
    },
    {
      "inputs": [
        {
          "internalType": "uint256",
          "name": "_terminationDate",
          "type": "uint256"
        }
      ],
      "name": "isExpired",
      "outputs": [
        {
          "internalType": "bool",
          "name": "expired",
          "type": "bool"
        }
      ],
      "stateMutability": "view",
      "type": "function"
    },
    {
      "inputs": [
        {
          "internalType": "uint256",
          "name": "_DataBatchId",
          "type": "uint256"
        }
      ],
      "name": "isPassed",
      "outputs": [
        {
          "internalType": "bool",
          "name": "passed",
          "type": "bool"
        }
      ],
      "stateMutability": "view",
      "type": "function"
    },
    {
      "inputs": [
        {
          "internalType": "address",
          "name": "_worker",
          "type": "address"
        }
      ],
      "name": "isWorkerRegistered",
      "outputs": [
        {
          "internalType": "bool",
          "name": "passed",
          "type": "bool"
        }
      ],
      "stateMutability": "view",
      "type": "function"
    },
    {
      "inputs": [],
      "name": "owner",
      "outputs": [
        {
          "internalType": "address",
          "name": "",
          "type": "address"
        }
      ],
      "stateMutability": "view",
      "type": "function"
    },
    {
      "inputs": [
        {
          "internalType": "uint256",
          "name": "k",
          "type": "uint256"
        },
        {
          "internalType": "uint256",
          "name": "N",
          "type": "uint256"
        }
      ],
      "name": "random_selection",
      "outputs": [
        {
          "internalType": "uint256[]",
          "name": "",
          "type": "uint256[]"
        }
      ],
      "stateMutability": "view",
      "type": "function"
    },
    {
      "inputs": [],
      "name": "renounceOwnership",
      "outputs": [],
      "stateMutability": "nonpayable",
      "type": "function"
    },
    {
      "inputs": [
        {
          "internalType": "uint256",
          "name": "_numTokens",
          "type": "uint256"
        }
      ],
      "name": "requestVotingRights",
      "outputs": [],
      "stateMutability": "nonpayable",
      "type": "function"
    },
    {
      "inputs": [
        {
          "internalType": "uint256",
          "name": "_DataBatchId",
          "type": "uint256"
        }
      ],
      "name": "rescueTokens",
      "outputs": [],
      "stateMutability": "nonpayable",
      "type": "function"
    },
    {
      "inputs": [
        {
          "internalType": "uint256[]",
          "name": "_DataBatchIDs",
          "type": "uint256[]"
        }
      ],
      "name": "rescueTokensInMultipleDatas",
      "outputs": [],
      "stateMutability": "nonpayable",
      "type": "function"
    },
    {
      "inputs": [
        {
          "internalType": "uint256",
          "name": "_DataBatchId",
          "type": "uint256"
        },
        {
          "internalType": "uint256",
          "name": "_voteOption",
          "type": "uint256"
        },
        {
          "internalType": "uint256",
          "name": "_salt",
          "type": "uint256"
        }
      ],
      "name": "revealFormatCheck",
      "outputs": [],
      "stateMutability": "nonpayable",
      "type": "function"
    },
    {
      "inputs": [
        {
          "internalType": "uint256",
          "name": "_DataBatchId",
          "type": "uint256"
        }
      ],
      "name": "revealPeriodActive",
      "outputs": [
        {
          "internalType": "bool",
          "name": "active",
          "type": "bool"
        }
      ],
      "stateMutability": "view",
      "type": "function"
    },
    {
      "inputs": [],
      "name": "sFuel",
      "outputs": [
        {
          "internalType": "address",
          "name": "",
          "type": "address"
        }
      ],
      "stateMutability": "view",
      "type": "function"
    },
    {
      "inputs": [
        {
          "internalType": "uint256",
          "name": "N",
          "type": "uint256"
        }
      ],
      "name": "shuffle_array",
      "outputs": [
        {
          "internalType": "uint256[]",
          "name": "",
          "type": "uint256[]"
        }
      ],
      "stateMutability": "view",
      "type": "function"
    },
    {
      "inputs": [],
      "name": "token",
      "outputs": [
        {
          "internalType": "contract IERC20",
          "name": "",
          "type": "address"
        }
      ],
      "stateMutability": "view",
      "type": "function"
    },
    {
      "inputs": [
        {
          "internalType": "address",
          "name": "newOwner",
          "type": "address"
        }
      ],
      "name": "transferOwnership",
      "outputs": [],
      "stateMutability": "nonpayable",
      "type": "function"
    },
    {
      "inputs": [
        {
          "internalType": "address",
          "name": "addr",
          "type": "address"
        }
      ],
      "name": "updateAddressManager",
      "outputs": [],
      "stateMutability": "nonpayable",
      "type": "function"
    },
    {
      "inputs": [
        {
          "internalType": "address",
          "name": "addr",
          "type": "address"
        }
      ],
      "name": "updateArchiveManager",
      "outputs": [],
      "stateMutability": "nonpayable",
      "type": "function"
    },
    {
      "inputs": [
        {
          "internalType": "uint256",
          "name": "COMMIT_ROUND_DURATION_",
          "type": "uint256"
        }
      ],
      "name": "updateCommitRoundDuration",
      "outputs": [],
      "stateMutability": "nonpayable",
      "type": "function"
    },
    {
      "inputs": [
        {
          "internalType": "uint256",
          "name": "CONSENSUS_WORKER_SIZE_",
          "type": "uint256"
        }
      ],
      "name": "updateConsensusSize",
      "outputs": [],
      "stateMutability": "nonpayable",
      "type": "function"
    },
    {
      "inputs": [
        {
          "internalType": "uint256",
          "name": "size",
          "type": "uint256"
        }
      ],
      "name": "updateDataBachSize",
      "outputs": [],
      "stateMutability": "nonpayable",
      "type": "function"
    },
    {
      "inputs": [
        {
          "internalType": "address",
          "name": "addr",
          "type": "address"
        }
      ],
      "name": "updateRepManager",
      "outputs": [],
      "stateMutability": "nonpayable",
      "type": "function"
    },
    {
      "inputs": [
        {
          "internalType": "uint256",
          "name": "REVEAL_ROUND_DURATION_",
          "type": "uint256"
        }
      ],
      "name": "updateRevealRoundDuration",
      "outputs": [],
      "stateMutability": "nonpayable",
      "type": "function"
    },
    {
      "inputs": [
        {
          "internalType": "address",
          "name": "addr",
          "type": "address"
        }
      ],
      "name": "updateRewardManager",
      "outputs": [],
      "stateMutability": "nonpayable",
      "type": "function"
    },
    {
      "inputs": [
        {
          "internalType": "address",
          "name": "addr",
          "type": "address"
        }
      ],
      "name": "updateSpotManager",
      "outputs": [],
      "stateMutability": "nonpayable",
      "type": "function"
    },
    {
      "inputs": [
        {
          "internalType": "address",
          "name": "addr",
          "type": "address"
        }
      ],
      "name": "updateStakeManager",
      "outputs": [],
      "stateMutability": "nonpayable",
      "type": "function"
    },
    {
      "inputs": [
        {
          "internalType": "uint256",
          "name": "_prevID",
          "type": "uint256"
        },
        {
          "internalType": "uint256",
          "name": "_nextID",
          "type": "uint256"
        },
        {
          "internalType": "address",
          "name": "_voter",
          "type": "address"
        },
        {
          "internalType": "uint256",
          "name": "_numTokens",
          "type": "uint256"
        }
      ],
      "name": "validPosition",
      "outputs": [
        {
          "internalType": "bool",
          "name": "APPROVED",
          "type": "bool"
        }
      ],
      "stateMutability": "view",
      "type": "function"
    },
    {
      "inputs": [
        {
          "internalType": "uint256",
          "name": "_numTokens",
          "type": "uint256"
        }
      ],
      "name": "withdrawVotingRights",
      "outputs": [],
      "stateMutability": "nonpayable",
      "type": "function"
    }
  ],
  "bytecode": "0x608060405260018080556003600255670de0b6b3a7640000600681905560075568056bc75e2d63100000600855603c600955600060118190556012819055601a80546001600160a01b0319167314f52f3fc010ab6ca81568d4a6794d5eab3c6155179055601b829055601c829055601d91909155601f553480156200008357600080fd5b506040516200792a3803806200792a833981016040819052620000a69162000151565b620000ba620000b4620000fd565b62000101565b602080546001600160a01b0319166001600160a01b0392909216919091179055600060125568015af1d78b58c400006003556101c2600455607860055562000181565b3390565b600080546001600160a01b038381166001600160a01b0319831681178455604051919092169283917f8be0079c531659141344cd1fd0a4f28419497f9722a3daafe3b4186f6b6457e09190a35050565b60006020828403121562000163578081fd5b81516001600160a01b03811681146200017a578182fd5b9392505050565b61779980620001916000396000f3fe608060405234801561001057600080fd5b50600436106106745760003560e01c80639acb75c111610351578063d8b75674116101c3578063e7b1d43c1161010f578063f5ae7c7d116100ad578063f721de4a11610087578063f721de4a14610d38578063f80a23fd14610d4b578063fc0c546a14610d53578063fca4956314610d5b57610674565b8063f5ae7c7d14610d15578063f60e738114610d1d578063f716596d14610d3057610674565b8063ef4fcdad116100e9578063ef4fcdad14610cdf578063f2d9e74d14610ce7578063f2fde38b14610cef578063f4cdfcc414610d0257610674565b8063e7b1d43c14610c99578063e8e9b6f914610cac578063ed8becfa14610cbf57610674565b8063dd15f0951161017c578063e44c974b11610156578063e44c974b14610c58578063e604c12714610c6b578063e7805f9e14610c7e578063e798a7da14610c8657610674565b8063dd15f09514610c2a578063dd61868214610c32578063df05368e14610c4557610674565b8063d8b7567414610bab578063d901402b14610bbe578063d9548e5314610bd1578063d9845fb814610be4578063d9966ae814610c04578063db687c1714610c1757610674565b8063b1d7ea981161029d578063cb1c2b5c1161023b578063d420ec0b11610215578063d420ec0b14610b75578063d6b0206c14610b88578063d822ce0114610b90578063d8645d3714610ba357610674565b8063cb1c2b5c14610b47578063ced5ca6f14610b4f578063d138209214610b6257610674565b8063b8f011b311610277578063b8f011b314610b06578063c47c4bc214610b19578063c4e4f82a14610b2c578063c9b03a7214610b3f57610674565b8063b1d7ea9814610ac0578063b43bd06914610ae0578063b7e4eba914610af357610674565b8063a4439dc51161030a578063aa7ca464116102e4578063aa7ca46414610a8a578063aacc5a1714610a9d578063ab43e78d14610aa5578063b1a2e0be14610aad57610674565b8063a4439dc514610a5c578063a511dba014610a6f578063a905779014610a7757610674565b80639acb75c1146109f55780639b07dbb9146109fd5780639fc9c52f14610a10578063a0e71c1514610a23578063a1103f3714610a36578063a25236fe14610a4957610674565b806351912f29116104ea578063796b89b91161043657806383cc6ef2116103d45780638da5cb5b116103ae5780638da5cb5b146109c75780638df0296e146109cf57806395f82a36146106cf57806397603560146109e257610674565b806383cc6ef21461098f5780638473850b146109975780638c89d0271461099f57610674565b80637f97e836116104105780637f97e8361461092a5780637fabe35b1461093d578063819b029314610969578063821aa8c01461097c57610674565b8063796b89b9146109125780637a34da671461091a5780637f9510a21461092257610674565b80636a192ff5116104a3578063715018a61161047d578063715018a6146108e757806371880b1b146108ef57806376e8ea4f146109025780637827e5491461090a57610674565b80636a192ff51461089e5780636b1485a3146108c15780636b2d95d4146108d457610674565b806351912f291461084057806358002158146108485780635a4529431461085b5780635fd879091461087b5780636371d81f14610883578063667bf0f81461089657610674565b80633538af82116105c457806346a7aea611610562578063494031831161053c57806349403183146107ff5780634d4b7d9b146108125780634fe8b4c114610825578063515535e81461083857610674565b806346a7aea6146107d157806347fe2d20146107e457806348257dc9146107ec57610674565b806339e7357c1161059e57806339e7357c1461079b5780633ad2131f146107a3578063427fa1d2146107ab578063441c77c0146107be57610674565b80633538af821461076d578063353f44d014610780578063354dae401461079357610674565b8063226ed300116106315780632c0520311161060b5780632c0520311461071f5780632d917c68146107325780632f469fd114610745578063313066ee1461076557610674565b8063226ed300146106e2578063275c25901461070257806329a47bc71461070a57610674565b806304dbcda714610679578063050eb2eb14610697578063053e71a6146106ac5780630e6661a7146106bf5780630e670feb146106c75780631b855044146106cf575b600080fd5b610681610d6e565b60405161068e9190616544565b60405180910390f35b6106aa6106a5366004615f9a565b610d74565b005b6106816106ba3660046162de565b610dde565b610681610e44565b610681610e4a565b6106816106dd36600461637f565b610e50565b6106f56106f03660046162de565b610e84565b60405161068e9190616662565b6106aa610ec6565b610712610fd5565b60405161068e9190616577565b61068161072d366004615fdd565b610fe4565b6106f5610740366004615fb4565b611181565b610758610753366004616307565b6111a1565b60405161068e919061666d565b610681611246565b61071261077b3660046162de565b61124c565b61068161078e366004615f9a565b611276565b6106aa611288565b6106816113c8565b6106816113e5565b6106816107b9366004615f9a565b6113eb565b6106f56107cc3660046162de565b61148b565b6106aa6107df366004615f9a565b6114e5565b610681611546565b6106f56107fa3660046162de565b61154c565b6106f561080d3660046162de565b6118a3565b6106f56108203660046162de565b611b94565b6106aa6108333660046162de565b611ba9565b610681611c29565b610712611c2f565b6106aa6108563660046162de565b611c3e565b61086e6108693660046162de565b611c82565b60405161068e9190617484565b610681611da5565b6106aa6108913660046162de565b611dab565b6106aa611e84565b6108b16108ac3660046162de565b61227a565b60405161068e94939291906166e2565b6106aa6108cf3660046162de565b612339565b6106816108e2366004615f9a565b612ce9565b6106aa612cf8565b6106816108fd3660046162de565b612d43565b610681612d80565b610681612d86565b610681612d8c565b610712612d90565b610681612d9f565b6106f5610938366004615fb4565b612db6565b61095061094b3660046162de565b612e09565b60405161068e9d9c9b9a99989796959493929190617523565b6106f56109773660046163a0565b612f02565b61071261098a3660046162de565b612f43565b610712612f53565b610681612f62565b6109b26109ad366004615f9a565b612f68565b60405161068e9998979695949392919061658b565b610712613050565b6107126109dd36600461637f565b61305f565b6106aa6109f03660046162de565b613097565b610681613246565b6106aa610a0b366004616332565b61324c565b6106aa610a1e36600461600f565b6136c8565b610681610a313660046162de565b61371a565b610681610a44366004615fb4565b61373e565b6106aa610a573660046162de565b613753565b6106f5610a6a3660046162de565b613854565b610681613896565b6106f5610a8536600461612a565b61389c565b6106f5610a98366004615fb4565b613902565b610681613955565b610712613a0a565b6106f5610abb366004615f9a565b613a19565b610ad3610ace36600461637f565b613b67565b60405161068e919061664f565b610681610aee366004615fdd565b613d6e565b6106aa610b013660046162de565b613e5a565b610ad3610b1436600461637f565b613e9e565b6106aa610b27366004615f9a565b614006565b610681610b3a3660046162de565b614067565b6106816140a4565b6106816140aa565b6106aa610b5d3660046162de565b6140b0565b610681610b70366004615fb4565b61411e565b6106f5610b83366004615fb4565b6141b3565b6106816141d3565b610712610b9e366004615fb4565b6141d9565b6107126141f5565b610681610bb9366004616307565b614204565b610681610bcc366004615fb4565b614221565b6106f5610bdf3660046162de565b614266565b610bf7610bf23660046162de565b61426b565b60405161068e91906172ab565b6106aa610c123660046162de565b614540565b6106aa610c25366004615f9a565b614584565b6107126145e5565b6106aa610c40366004615f9a565b6145f4565b6106aa610c53366004615f9a565b614655565b610ad3610c663660046162de565b6146b6565b610758610c793660046162de565b61472f565b6106816147e4565b6106f5610c94366004615f9a565b6147ea565b6106aa610ca73660046162de565b61480b565b6106aa610cba3660046162de565b614947565b610cd2610ccd3660046162de565b61498b565b60405161068e91906165ef565b610681614dd0565b610681614dd6565b6106aa610cfd366004615f9a565b614ddc565b610681610d103660046160b8565b614e4a565b610681614e80565b6106aa610d2b3660046163dc565b614e86565b6106aa615161565b6106f5610d463660046162de565b61533b565b6106f5615343565b61071261535c565b610681610d69366004615f9a565b61536b565b60065481565b610d7c615491565b6001600160a01b0316610d8d613050565b6001600160a01b031614610dbc5760405162461bcd60e51b8152600401610db390616e3d565b60405180910390fd5b602380546001600160a01b0319166001600160a01b0392909216919091179055565b6000610de982610e84565b610e055760405162461bcd60e51b8152600401610db390616bb8565b610e0e826118a3565b15610e2b57506000818152601e6020526040902060070154610e3f565b506000818152601e60205260409020600801545b919050565b60125481565b60075481565b60008282604051602001610e65929190616569565b6040516020818303038152906040528051906020012090505b92915050565b6000610e8f8261533b565b610eab5760405162461bcd60e51b8152600401610db390617282565b6000828152601e6020526040902060060154610e7e90614266565b610ece615495565b336000908152601360205260409020600781015460ff161515600114610f065760405162461bcd60e51b8152600401610db390616ac1565b610f0f3361561d565b15610f2c5760405162461bcd60e51b8152600401610db3906169f6565b6000610f36612d8c565b9050610f413361568d565b610f4a336157e4565b8154336001600160a01b031991821681178455600180850180549093169091179091556005830182905560078301805460ff19169055601f8054600090610f92908490617625565b909155505060405133907f9dadcedba048e92b943ea1c5861cee1df63a566d7f795869c004780c1c698e2b90610fc9908490616544565b60405180910390a25050565b6022546001600160a01b031681565b600080610ff0856113eb565b90506000610ffe868361411e565b90505b811561117657611011868361411e565b90508481116110ce57838214156110c6576001600160a01b0386166000908152600f602052604090819020905163215e94cf60e01b815273__$6ffa5bf1f4fa681f07e1987a80577d5f4e$__9163215e94cf9161107391908690600401616569565b60206040518083038186803b15801561108b57600080fd5b505af415801561109f573d6000803e3d6000fd5b505050506040513d601f19601f820116820180604052508101906110c391906162f6565b91505b50905061117a565b6001600160a01b0386166000908152600f602052604090819020905163215e94cf60e01b815273__$6ffa5bf1f4fa681f07e1987a80577d5f4e$__9163215e94cf9161111f91908690600401616569565b60206040518083038186803b15801561113757600080fd5b505af415801561114b573d6000803e3d6000fd5b505050506040513d601f19601f8201168201806040525081019061116f91906162f6565b9150611001565b5090505b9392505050565b600a60209081526000928352604080842090915290825290205460ff1681565b600d602090815260009283526040808420909152908252902080546111c5906176b7565b80601f01602080910402602001604051908101604052809291908181526020018280546111f1906176b7565b801561123e5780601f106112135761010080835404028352916020019161123e565b820191906000526020600020905b81548152906001019060200180831161122157829003601f168201915b505050505081565b60115481565b6017818154811061125c57600080fd5b6000918252602090912001546001600160a01b0316905081565b60156020526000908152604090205481565b611290615495565b601c546000908152601e602052604081206004015462010000900460ff16151560011480156112e257506112c5601c54610e84565b806112e25750601c546000908152601e6020526040902060030154155b15611307576112f2601c54612339565b601c54611300906001615914565b601c555060015b601d546000908152601e602052604090206004015462010000900460ff161515600114801590611338575060175415155b80156113585750601d546000908152601e602052604090206004015460ff165b1561136957611365611e84565b5060015b80156113815760115461137d906001615914565b6011555b6001601f60008282546113949190617625565b90915550506011546040517f94d48a7342690f1233e3f4db70efa37c4f1f25f4d0397c353f3f15aecdeca5f490600090a250565b60405160009080602081848060185afa6113de57fe5b5051919050565b60095481565b6001600160a01b0381166000908152600f6020526040808220905163215e94cf60e01b815273__$6ffa5bf1f4fa681f07e1987a80577d5f4e$__9163215e94cf9161143b91908590600401616569565b60206040518083038186803b15801561145357600080fd5b505af4158015611467573d6000803e3d6000fd5b505050506040513d601f19601f82011682018060405250810190610e7e91906162f6565b60006114968261533b565b6114b25760405162461bcd60e51b8152600401610db390616ffb565b6000828152601e60205260409020600601546114cd90614266565b158015610e7e57506114de82613854565b1592915050565b6114ed615491565b6001600160a01b03166114fe613050565b6001600160a01b0316146115245760405162461bcd60e51b8152600401610db390616e3d565b602680546001600160a01b0319166001600160a01b0392909216919091179055565b601c5490565b6025546000906001600160a01b03161580159061157857506000828152600e602052604090205460ff16155b1561188357602554604051637b90ef2560e11b81526001600160a01b039091169063f721de4a906115ad908590600401616544565b602060405180830381600087803b1580156115c757600080fd5b505af11580156115db573d6000803e3d6000fd5b505050506040513d601f19601f820116820180604052508101906115ff919061609e565b1561188357602554604051631b308bf760e31b81526000916001600160a01b03169063d9845fb890611635908690600401616544565b600060405180830381600087803b15801561164f57600080fd5b505af1158015611663573d6000803e3d6000fd5b505050506040513d6000823e601f3d908101601f1916820160405261168b919081019061618a565b61018081015190915060018160038111156116b657634e487b7160e01b600052602160045260246000fd5b1415611867576040805160808101825261016084015181523360208083019190915242828401526000606083018190526012548152601482529290922081518051929391926117089284920190615bfc565b506020820151600182810180546001600160a01b0319166001600160a01b0390931692909217909155604083015160028301556060830151600380840180549293909260ff191691849081111561176f57634e487b7160e01b600052602160045260246000fd5b021790555050601b546000908152601e60205260409020600154600282015491925011156117ba5760018160020160008282546117ac9190617625565b909155505060125460018201555b60015481600201541061180c57600481018054600160ff19909116811761ff001916909155601b80546000906117f1908490617625565b9091555050601254601b546000908152601e60205260409020555b611814611288565b601254611822906001617625565b60128190556101608401516040517fe72ee44ad0ed1dfc338f7eec797c944eb218773c1edbb4bb653dd9c1e2a623049161185d9133906166b8565b60405180910390a2505b50506000828152600e60205260409020805460ff191660011790555b6001601f60008282546118969190617625565b9091555060009392505050565b6000818152601e6020908152604080832081516101e0810183528154815260018201549381019390935260028101549183019190915260038101546060830152600481015460ff808216151560808501526101008083048216151560a08601526201000090920416151560c0840152600582015460e08401526006820154908301526007810154610120830152600881015461014083015260098101805484939291610160840191611954906176b7565b80601f0160208091040260200160405190810160405280929190818152602001828054611980906176b7565b80156119cd5780601f106119a2576101008083540402835291602001916119cd565b820191906000526020600020905b8154815290600101906020018083116119b057829003601f168201915b5050509183525050600a82015460209091019060ff166003811115611a0257634e487b7160e01b600052602160045260246000fd5b6003811115611a2157634e487b7160e01b600052602160045260246000fd5b8152602001600b8201805480602002602001604051908101604052809291908181526020016000905b82821015611af6578382906000526020600020018054611a69906176b7565b80601f0160208091040260200160405190810160405280929190818152602001828054611a95906176b7565b8015611ae25780601f10611ab757610100808354040283529160200191611ae2565b820191906000526020600020905b815481529060010190602001808311611ac557829003601f168201915b505050505081526020019060010190611a4a565b505050508152602001600c8201805480602002602001604051908101604052809291908181526020018280548015611b4d57602002820191906000526020600020905b815481526020019060010190808311611b39575b5050505050815250509050806101400151816101200151611b6e9190617625565b600954611b7b9190617651565b610120820151611b8c906064617651565b119392505050565b600e6020526000908152604090205460ff1681565b611bb1615491565b6001600160a01b0316611bc2613050565b6001600160a01b031614611be85760405162461bcd60e51b8152600401610db390616e3d565b600081815260146020526040812090611c018282615c80565b506001810180546001600160a01b031916905560006002820155600301805460ff1916905550565b601b5490565b6023546001600160a01b031681565b611c46615491565b6001600160a01b0316611c57613050565b6001600160a01b031614611c7d5760405162461bcd60e51b8152600401610db390616e3d565b600555565b611c8a615cbc565b60008281526014602052604090819020815160808101909252805482908290611cb2906176b7565b80601f0160208091040260200160405190810160405280929190818152602001828054611cde906176b7565b8015611d2b5780601f10611d0057610100808354040283529160200191611d2b565b820191906000526020600020905b815481529060010190602001808311611d0e57829003601f168201915b505050918352505060018201546001600160a01b031660208201526002820154604082015260038083015460609092019160ff1690811115611d7d57634e487b7160e01b600052602160045260246000fd5b6003811115611d9c57634e487b7160e01b600052602160045260246000fd5b90525092915050565b60055481565b611db3615491565b6001600160a01b0316611dc4613050565b6001600160a01b031614611dea5760405162461bcd60e51b8152600401610db390616e3d565b611df38161533b565b15611e81576000818152601e6020526040812081815560018101829055600281018290556003810182905560048101805462ffffff191690556005810182905560068101829055600781018290556008810182905590611e566009830182615c80565b600a8201805460ff19169055611e70600b83016000615d0b565b611e7e600c83016000615d29565b50505b50565b601d546000908152601e602052604090206004015460ff16611eb85760405162461bcd60e51b8152600401610db390616f18565b601d546000908152601e602052604090206004015462010000900460ff1615611ef35760405162461bcd60e51b8152600401610db390616d72565b6000611f10611f09601780549050600254615920565b6001615936565b601754601d546000908152601e602052604081206003018390556004549293509091611f3d904290615914565b90506000611f566005548361591490919063ffffffff16565b601d80546000908152601e6020526040808220600501869055825482528082206006018490559154815220600401805462ff0000191662010000179055905060018410801590611fa7575060018310155b611fc35760405162461bcd60e51b8152600401610db3906169ac565b6000611fcf8585613e9e565b9050600081516001600160401b03811115611ffa57634e487b7160e01b600052604160045260246000fd5b604051908082528060200260200182016040528015612023578160200160208202803683370190505b50905060005b82518110156120e257601783828151811061205457634e487b7160e01b600052603260045260246000fd5b60200260200101518154811061207a57634e487b7160e01b600052603260045260246000fd5b9060005260206000200160009054906101000a90046001600160a01b03168282815181106120b857634e487b7160e01b600052603260045260246000fd5b6001600160a01b0390921660209283029190910190910152806120da816176f2565b915050612029565b5060005b825181101561224557600082828151811061211157634e487b7160e01b600052603260045260246000fd5b60200260200101519050600060136000836001600160a01b03166001600160a01b03168152602001908152602001600020905061214d8261568d565b6121568261561d565b6121a657601880546001810182556000919091527fb13d2d76d1f4b7be834882e410b3e3a8afaf69f83600ae24db354391d2378d2e0180546001600160a01b0319166001600160a01b0384161790555b601d805460009081526019602090815260408083208054600181018255908452919092200180546001600160a01b0319166001600160a01b0386161790558154600284015560038301805460ff19169055905490517fe4ee2dfabe57cee15e3f558890b20455f54c1fa0718e5276faad70a6500e6b8c90612228908590616577565b60405180910390a25050808061223d906176f2565b9150506120e6565b50601d54612254906001615914565b601d819055506001601f600082825461226d9190617625565b9091555050505050505050565b601460205260009081526040902080548190612295906176b7565b80601f01602080910402602001604051908101604052809291908181526020018280546122c1906176b7565b801561230e5780601f106122e35761010080835404028352916020019161230e565b820191906000526020600020905b8154815290600101906020018083116122f157829003601f168201915b505050506001830154600284015460039094015492936001600160a01b039091169290915060ff1684565b61234281610e84565b8061235c57506000818152601e6020526040902060030154155b6123785760405162461bcd60e51b8152600401610db390616e72565b6000818152601e6020526040902060040154610100900460ff16156123af5760405162461bcd60e51b8152600401610db3906170ae565b6000818152601e6020526040902060040154610100900460ff16611e815760006123d8826118a3565b60008381526019602090815260408083208054825181850281018501909352808352949550929390929183018282801561243b57602002820191906000526020600020905b81546001600160a01b0316815260019091019060200180831161241d575b50505050509050600081516001600160401b0381111561246b57634e487b7160e01b600052604160045260246000fd5b60405190808252806020026020018201604052801561249e57816020015b60608152602001906001900390816124895790505b50905060005b82518110156128485760008382815181106124cf57634e487b7160e01b600052603260045260246000fd5b6020908102919091018101516000888152600c835260408082206001600160a01b03841680845290855281832054600b86528284208c8552865282842054600d875283852092855291909552908220805493955060ff90911692612532906176b7565b80601f016020809104026020016040519081016040528092919081815260200182805461255e906176b7565b80156125ab5780601f10612580576101008083540402835291602001916125ab565b820191906000526020600020905b81548152906001019060200180831161258e57829003601f168201915b50505050509050808686815181106125d357634e487b7160e01b600052603260045260246000fd5b60200260200101819052506125e7846157e4565b6001600160a01b03841660009081526013602052604090208215612805576001600160a01b0385166000908152601360205260409020600301805460ff1916600190811790915589151514801561263e5750836001145b80612653575088158015612653575083600114155b1561279a57602254600854604051630db6cc8560e11b81526001600160a01b0390921691631b6d990a9161268b9189906004016174ef565b602060405180830381600087803b1580156126a557600080fd5b505af11580156126b9573d6000803e3d6000fd5b505050506040513d601f19601f820116820180604052508101906126dd919061609e565b6126f95760405162461bcd60e51b8152600401610db390616c4f565b602354600654604051633832942560e21b81526001600160a01b039092169163e0ca50949161272c9189906004016174d8565b602060405180830381600087803b15801561274657600080fd5b505af115801561275a573d6000803e3d6000fd5b505050506040513d601f19601f8201168201806040525081019061277e919061609e565b61279a5760405162461bcd60e51b8152600401610db390616a72565b600781015460ff1615612800576127b085615946565b61280057601780546001810182556000919091527fc624b66cc0138b8fabc209247f72d758e1cf3343756d543badbf24212bed8c150180546001600160a01b0319166001600160a01b0387161790555b612830565b600781015460ff16156128305760078101805460ff191690556128278561568d565b612830856157e4565b50505050508080612840906176f2565b9150506124a4565b50600061286860648451603261285e9190617651565b611f09919061763d565b905060008260008151811061288d57634e487b7160e01b600052603260045260246000fd5b6020026020010151905060005b8351811015612983576000805b8551811015612938576129088684815181106128d357634e487b7160e01b600052603260045260246000fd5b60200260200101518783815181106128fb57634e487b7160e01b600052603260045260246000fd5b602002602001015161389c565b1561292657612918600183617625565b915084821061292657612938565b80612930816176f2565b9150506128a7565b508381106129705784828151811061296057634e487b7160e01b600052603260045260246000fd5b6020026020010151925050612983565b508061297b816176f2565b91505061289a565b506000868152601e6020908152604090912060048101805461ff00191661010017905582516129ba92600990920191840190615bfc565b508415612c565760225460085460008881526014602052604090819020600101549051630db6cc8560e11b81526001600160a01b0393841693631b6d990a93612a0a9390929116906004016174ef565b602060405180830381600087803b158015612a2457600080fd5b505af1158015612a38573d6000803e3d6000fd5b505050506040513d601f19601f82011682018060405250810190612a5c919061609e565b612a785760405162461bcd60e51b8152600401610db39061718e565b60235460065460008881526014602052604090819020600101549051633832942560e21b81526001600160a01b039384169363e0ca509493612ac19390929116906004016174d8565b602060405180830381600087803b158015612adb57600080fd5b505af1158015612aef573d6000803e3d6000fd5b505050506040513d601f19601f82011682018060405250810190612b13919061609e565b612b2f5760405162461bcd60e51b8152600401610db39061705f565b6000868152601e602052604090819020600a01805460ff1916600117905560265490516348257dc960e01b81526001600160a01b03909116906348257dc990612b7c908990600401616544565b602060405180830381600087803b158015612b9657600080fd5b505af1925050508015612bc6575060408051601f3d908101601f19168201909252612bc39181019061609e565b60015b612c37573d808015612bf4576040519150601f19603f3d011682016040523d82523d6000602084013e612bf9565b606091505b507f4b87bbd93ba65ede1e2efeca735d9f7a6720bf7d6db0a8355b17dba5b64e578381604051612c29919061666d565b60405180910390a150612c51565b6001601f6000828254612c4a9190617625565b9091555050505b612c73565b6000868152601e60205260409020600a01805460ff191660021790555b6001601f6000828254612c869190617625565b909155505060008681526014602052604090819020600181015491516001600160a01b03909216917fb83f08cf731092d35d6dd4801ac76e3fcc84b1b199915531c9874230d31adeaa91612cd991616723565b60405180910390a2505050505050565b6000610e7e82610b70846113eb565b612d00615491565b6001600160a01b0316612d11613050565b6001600160a01b031614612d375760405162461bcd60e51b8152600401610db390616e3d565b612d4160006159b6565b565b6000612d4e8261533b565b612d6a5760405162461bcd60e51b8152600401610db390616ffb565b506000908152601e602052604090206006015490565b60015481565b60085481565b4290565b6024546001600160a01b031681565b601854601754600091612db191617625565b905090565b6000612dc18261533b565b612ddd5760405162461bcd60e51b8152600401610db390616ffb565b506001600160a01b03919091166000908152600a60209081526040808320938352929052205460ff1690565b601e60205260009081526040902080546001820154600283015460038401546004850154600586015460068701546007880154600889015460098a018054999a98999798969760ff80881698610100890482169862010000900490911696959493929091612e76906176b7565b80601f0160208091040260200160405190810160405280929190818152602001828054612ea2906176b7565b8015612eef5780601f10612ec457610100808354040283529160200191612eef565b820191906000526020600020905b815481529060010190602001808311612ed257829003601f168201915b505050600a909301549192505060ff168d565b600080612f0f848761411e565b83101590506000612f20858761411e565b84111580612f2c575085155b9050818015612f385750805b979650505050505050565b6018818154811061125c57600080fd5b6021546001600160a01b031681565b601b5481565b60136020526000908152604090208054600182015460028301546003840154600485015460058601546006870180546001600160a01b03978816989690971696949560ff9094169492939192612fbd906176b7565b80601f0160208091040260200160405190810160405280929190818152602001828054612fe9906176b7565b80156130365780601f1061300b57610100808354040283529160200191613036565b820191906000526020600020905b81548152906001019060200180831161301957829003601f168201915b505050506007830154600890930154919260ff1691905089565b6000546001600160a01b031690565b6019602052816000526040600020818154811061307b57600080fd5b6000918252602090912001546001600160a01b03169150829050565b60016000828152601e60205260409020600a015460ff1660038111156130cd57634e487b7160e01b600052602160045260246000fd5b146130ea5760405162461bcd60e51b8152600401610db390616804565b336000908152600f602052604090819020905163162a54af60e31b815273__$6ffa5bf1f4fa681f07e1987a80577d5f4e$__9163b152a5789161313291908590600401616569565b60206040518083038186803b15801561314a57600080fd5b505af415801561315e573d6000803e3d6000fd5b505050506040513d601f19601f82011682018060405250810190613182919061609e565b61319e5760405162461bcd60e51b8152600401610db390616c9c565b336000908152600f6020526040908190209051634dab476560e01b815273__$6ffa5bf1f4fa681f07e1987a80577d5f4e$__91634dab4765916131e691908590600401616569565b60006040518083038186803b1580156131fe57600080fd5b505af4158015613212573d6000803e3d6000fd5b50506040513392508391507f402507661c8c8cb90e0a796450b8bdd28b6c516f05279c0cd29e84c344e1699a90600090a350565b60115490565b613254615495565b61325d83613854565b6132795760405162461bcd60e51b8152600401610db390616a3b565b826132833361536b565b146132a05760405162461bcd60e51b8152600401610db390616dcf565b600354336000908152601560205260409020548111156132e257336000908152601560205260408120546132d5908390615a06565b90506132e081613753565b505b336000908152601560205260409020548111156133115760405162461bcd60e51b8152600401610db390617131565b6000336000908152600f60205260408082209051631b23afef60e21b815273__$6ffa5bf1f4fa681f07e1987a80577d5f4e$__91636c8ebfbc9161335a91908690600401616569565b60206040518083038186803b15801561337257600080fd5b505af4158015613386573d6000803e3d6000fd5b505050506040513d601f19601f820116820180604052508101906133aa91906162f6565b90508581141561344f57336000908152600f6020526040908190209051631b23afef60e21b815273__$6ffa5bf1f4fa681f07e1987a80577d5f4e$__91636c8ebfbc916133fc91908a90600401616569565b60206040518083038186803b15801561341457600080fd5b505af4158015613428573d6000803e3d6000fd5b505050506040513d601f19601f8201168201806040525081019061344c91906162f6565b90505b61345b82823386612f02565b6134775760405162461bcd60e51b8152600401610db390616d44565b336000908152600f602052604090819020905163f3a1998360e01b815273__$6ffa5bf1f4fa681f07e1987a80577d5f4e$__9163f3a19983916134c3919086908b908790600401617469565b60006040518083038186803b1580156134db57600080fd5b505af41580156134ef573d6000803e3d6000fd5b5050505060006134ff338861373e565b60408051808201825260098152686e756d546f6b656e7360b81b60208201529051633416d70d60e21b81529192509073__$d865f21674766f31b0d600e4a95b721b57$__9063d05b5c349061355f90601090869086908b906004016173be565b60006040518083038186803b15801561357757600080fd5b505af415801561358b573d6000803e3d6000fd5b5050604051633416d70d60e21b815273__$d865f21674766f31b0d600e4a95b721b57$__925063d05b5c3491506135cb9060109086908c9060040161740c565b60006040518083038186803b1580156135e357600080fd5b505af41580156135f7573d6000803e3d6000fd5b5050506000898152600d602090815260408083203384528252909120885161362493509091890190615bfc565b5033600090815260136020526040902061363c612d8c565b6005820155336000908152600a602090815260408083208c84529091528120805460ff19166001908117909155601f80549192909161367c908490617625565b909155505060405133908a907f1b5c5140592c554fa4c0cdb5b3d3cd50f87aa84e477afd0b6c93d7702ef9c73c906136b5908a90616544565b60405180910390a3505050505050505050565b60005b8151811015613716576137048282815181106136f757634e487b7160e01b600052603260045260246000fd5b6020026020010151613097565b8061370e816176f2565b9150506136cb565b5050565b6000818152601e602052604081206008810154600790910154829161117a91617625565b60008282604051602001610e65929190616522565b6021546040516304ada21f60e21b81526001600160a01b03909116906312b6887c9061378590849033906004016174d8565b602060405180830381600087803b15801561379f57600080fd5b505af11580156137b3573d6000803e3d6000fd5b505050506040513d601f19601f820116820180604052508101906137d7919061609e565b6137f35760405162461bcd60e51b8152600401610db390616b0c565b3360009081526015602052604081208054839290613812908490617625565b909155505060405133907ff7aaf024511d9982df8cd0d437c71c30106e6848cd1ba3d288d7a9c0e276aeda90613849908490616544565b60405180910390a250565b600061385f8261533b565b61387b5760405162461bcd60e51b8152600401610db390616ffb565b6000828152601e60205260409020600501546114de90614266565b60125490565b6000816040516020016138af919061654d565b60405160208183030381529060405280519060200120836040516020016138d6919061654d565b6040516020818303038152906040528051906020012014156138fa57506001610e7e565b506000610e7e565b600061390d8261533b565b6139295760405162461bcd60e51b8152600401610db390616ffb565b506001600160a01b03919091166000908152600b60209081526040808320938352929052205460ff1690565b600080424160405160200161396a9190616505565b6040516020818303038152906040528051906020012060001c61398d919061763d565b446139966113c8565b6040516020016139a69190616544565b60408051601f1981840301815291905280516020909101206139c89042617625565b6139d29190617625565b6139dc9190617625565b6040516020016139ec9190616544565b60408051601f19818403018152919052805160209091012091505090565b601a546001600160a01b031681565b6001600160a01b038082166000908152601360209081526040808320815161012081018352815486168152600182015490951692850192909252600282015490840152600381015460ff161515606084015260048101546080840152600581015460a0840152600681018054929384938493919260c0840191613a9b906176b7565b80601f0160208091040260200160405190810160405280929190818152602001828054613ac7906176b7565b8015613b145780601f10613ae957610100808354040283529160200191613b14565b820191906000526020600020905b815481529060010190602001808311613af757829003601f168201915b5050509183525050600782015460ff16151560208201526008909101546040909101526060810151909150158015613b565750613b548160400151610e84565b155b15613b6057600191505b5092915050565b606060008211613b7657600080fd5b600041604051602001613b899190616505565b6040516020818303038152906040528051906020012060001c613baa6113c8565b604051602001613bba9190616544565b60408051601f198184030181529190528051602090910120613bdc9042617625565b613be69190617625565b604051602001613bf69190616544565b6040516020818303038152906040528051906020012060001c90506000846001600160401b03811115613c3957634e487b7160e01b600052604160045260246000fd5b604051908082528060200260200182016040528015613c62578160200160208202803683370190505b5090506000805b86821015613d6357600086613c8263017efeeb87617670565b83604051602001613c94929190616569565b6040516020818303038152906040528051906020012060001c613cb7919061770d565b90506000805b84811015613d0f5782868281518110613ce657634e487b7160e01b600052603260045260246000fd5b60200260200101511415613cfd5760019150613d0f565b80613d07816176f2565b915050613cbd565b5080613d4f5781858581518110613d3657634e487b7160e01b600052603260045260246000fd5b6020908102919091010152613d4c846001617625565b93505b613d5a836001617625565b92505050613c69565b509095945050505050565b6000613d7983610e84565b613d955760405162461bcd60e51b8152600401610db3906171db565b6001600160a01b0384166000908152600b6020908152604080832086845290915290205460ff16613dd85760405162461bcd60e51b8152600401610db390616cf9565b6000613de3846118a3565b613dee576000613df1565b60015b60ff16905060008184604051602001613e0b929190616569565b6040516020818303038152906040528051906020012090506000613e2f8787614221565b9050808214613e505760405162461bcd60e51b8152600401610db390616ecf565b612f38878761411e565b613e62615491565b6001600160a01b0316613e73613050565b6001600160a01b031614613e995760405162461bcd60e51b8152600401610db390616e3d565b600155565b6060600082118015613eb05750818311155b8015613ebd575060018310155b613ed95760405162461bcd60e51b8152600401610db390616963565b6000826001600160401b03811115613f0157634e487b7160e01b600052604160045260246000fd5b604051908082528060200260200182016040528015613f2a578160200160208202803683370190505b5090506000846001600160401b03811115613f5557634e487b7160e01b600052604160045260246000fd5b604051908082528060200260200182016040528015613f7e578160200160208202803683370190505b5090506000613f94613f8f84615a12565b615a68565b905060005b86811015613d6357818181518110613fc157634e487b7160e01b600052603260045260246000fd5b6020026020010151838281518110613fe957634e487b7160e01b600052603260045260246000fd5b602090810291909101015280613ffe816176f2565b915050613f99565b61400e615491565b6001600160a01b031661401f613050565b6001600160a01b0316146140455760405162461bcd60e51b8152600401610db390616e3d565b602480546001600160a01b0319166001600160a01b0392909216919091179055565b60006140728261533b565b61408e5760405162461bcd60e51b8152600401610db390616ffb565b506000908152601e602052604090206005015490565b60025481565b60035481565b6140b8615491565b6001600160a01b03166140c9613050565b6001600160a01b0316146140ef5760405162461bcd60e51b8152600401610db390616e3d565b6000818152600e602052604090205460ff1615611e81576000908152600e60205260409020805460ff19169055565b600073__$d865f21674766f31b0d600e4a95b721b57$__6362e02a2a6010614146868661373e565b6040518363ffffffff1660e01b815260040161416392919061743a565b60206040518083038186803b15801561417b57600080fd5b505af415801561418f573d6000803e3d6000fd5b505050506040513d601f19601f8201168201806040525081019061117a91906162f6565b600b60209081526000928352604080842090915290825290205460ff1681565b601d5481565b6016602052816000526040600020818154811061307b57600080fd5b6025546001600160a01b031681565b600c60209081526000928352604080842090915290825290205481565b600073__$d865f21674766f31b0d600e4a95b721b57$__6362e02a2a6010614249868661373e565b6040518363ffffffff1660e01b81526004016141639291906173ee565b421190565b614273615d47565b61427c8261533b565b61428557600080fd5b6000828152601e602090815260409182902082516101e0810184528154815260018201549281019290925260028101549282019290925260038201546060820152600482015460ff808216151560808401526101008083048216151560a08501526201000090920416151560c0830152600583015460e08301526006830154908201526007820154610120820152600882015461014082015260098201805491929161016084019190614337906176b7565b80601f0160208091040260200160405190810160405280929190818152602001828054614363906176b7565b80156143b05780601f10614385576101008083540402835291602001916143b0565b820191906000526020600020905b81548152906001019060200180831161439357829003601f168201915b5050509183525050600a82015460209091019060ff1660038111156143e557634e487b7160e01b600052602160045260246000fd5b600381111561440457634e487b7160e01b600052602160045260246000fd5b8152602001600b8201805480602002602001604051908101604052809291908181526020016000905b828210156144d957838290600052602060002001805461444c906176b7565b80601f0160208091040260200160405190810160405280929190818152602001828054614478906176b7565b80156144c55780601f1061449a576101008083540402835291602001916144c5565b820191906000526020600020905b8154815290600101906020018083116144a857829003601f168201915b50505050508152602001906001019061442d565b505050508152602001600c820180548060200260200160405190810160405280929190818152602001828054801561453057602002820191906000526020600020905b81548152602001906001019080831161451c575b5050505050815250509050919050565b614548615491565b6001600160a01b0316614559613050565b6001600160a01b03161461457f5760405162461bcd60e51b8152600401610db390616e3d565b600255565b61458c615491565b6001600160a01b031661459d613050565b6001600160a01b0316146145c35760405162461bcd60e51b8152600401610db390616e3d565b602580546001600160a01b0319166001600160a01b0392909216919091179055565b6026546001600160a01b031681565b6145fc615491565b6001600160a01b031661460d613050565b6001600160a01b0316146146335760405162461bcd60e51b8152600401610db390616e3d565b602280546001600160a01b0319166001600160a01b0392909216919091179055565b61465d615491565b6001600160a01b031661466e613050565b6001600160a01b0316146146945760405162461bcd60e51b8152600401610db390616e3d565b602180546001600160a01b0319166001600160a01b0392909216919091179055565b6060600082116146c557600080fd5b6000826001600160401b038111156146ed57634e487b7160e01b600052604160045260246000fd5b604051908082528060200260200182016040528015614716578160200160208202803683370190505b5090506000614727613f8f83615a12565b949350505050565b606061473a8261533b565b61474357600080fd5b6000828152601e60205260409020600901805461475f906176b7565b80601f016020809104026020016040519081016040528092919081815260200182805461478b906176b7565b80156147d85780601f106147ad576101008083540402835291602001916147d8565b820191906000526020600020905b8154815290600101906020018083116147bb57829003601f168201915b50505050509050919050565b60045481565b6001600160a01b031660009081526013602052604090206007015460ff1690565b600061482f61481933612ce9565b3360009081526015602052604090205490615a06565b9050818110156148515760405162461bcd60e51b8152600401610db390616fb4565b602154604051630895993360e11b81526001600160a01b039091169063112b32669061488390859033906004016174d8565b602060405180830381600087803b15801561489d57600080fd5b505af11580156148b1573d6000803e3d6000fd5b505050506040513d601f19601f820116820180604052508101906148d5919061609e565b6148f15760405162461bcd60e51b8152600401610db390617225565b3360009081526015602052604081208054849290614910908490617670565b909155505060405133907ffaeb7dbb9992397d26ea1944efd40c80b40f702faf69b46c67ad10aba68ccb7990610fc9908590616544565b61494f615491565b6001600160a01b0316614960613050565b6001600160a01b0316146149865760405162461bcd60e51b8152600401610db390616e3d565b600455565b60606149968261533b565b6149b25760405162461bcd60e51b8152600401610db390616ffb565b6000828152601e6020908152604080832081516101e0810183528154815260018201549381019390935260028101549183019190915260038101546060830152600481015460ff808216151560808501526101008083048216151560a08601526201000090920416151560c0840152600582015460e08401526006820154908301526007810154610120830152600881015461014083015260098101805461016084019190614a60906176b7565b80601f0160208091040260200160405190810160405280929190818152602001828054614a8c906176b7565b8015614ad95780601f10614aae57610100808354040283529160200191614ad9565b820191906000526020600020905b815481529060010190602001808311614abc57829003601f168201915b5050509183525050600a82015460209091019060ff166003811115614b0e57634e487b7160e01b600052602160045260246000fd5b6003811115614b2d57634e487b7160e01b600052602160045260246000fd5b8152602001600b8201805480602002602001604051908101604052809291908181526020016000905b82821015614c02578382906000526020600020018054614b75906176b7565b80601f0160208091040260200160405190810160405280929190818152602001828054614ba1906176b7565b8015614bee5780601f10614bc357610100808354040283529160200191614bee565b820191906000526020600020905b815481529060010190602001808311614bd157829003601f168201915b505050505081526020019060010190614b56565b505050508152602001600c8201805480602002602001604051908101604052809291908181526020018280548015614c5957602002820191906000526020600020905b815481526020019060010190808311614c45575b505050505081525050905060008160400151905060006001546001600160401b03811115614c9757634e487b7160e01b600052604160045260246000fd5b604051908082528060200260200182016040528015614cca57816020015b6060815260200190600190039081614cb55790505b50905060005b82811015614dc7578351600090614ce8908390617625565b600081815260146020526040812080549293509091614d06906176b7565b80601f0160208091040260200160405190810160405280929190818152602001828054614d32906176b7565b8015614d7f5780601f10614d5457610100808354040283529160200191614d7f565b820191906000526020600020905b815481529060010190602001808311614d6257829003601f168201915b5050505050905080848481518110614da757634e487b7160e01b600052603260045260246000fd5b602002602001018190525050508080614dbf906176f2565b915050614cd0565b50949350505050565b601c5481565b601f5481565b614de4615491565b6001600160a01b0316614df5613050565b6001600160a01b031614614e1b5760405162461bcd60e51b8152600401610db390616e3d565b6001600160a01b038116614e415760405162461bcd60e51b8152600401610db39061691d565b611e81816159b6565b6000838383604051602001614e6193929190616680565b6040516020818303038152906040528051906020012090509392505050565b601f5490565b614e8e615495565b614e978361148b565b614eb35760405162461bcd60e51b8152600401610db390616f6e565b336000908152600a6020908152604080832086845290915290205460ff16614eed5760405162461bcd60e51b8152600401610db390616b69565b614ef73384614221565b614f018383610e50565b14614f1e5760405162461bcd60e51b8152600401610db39061689a565b6000614f2a338561411e565b90508260011415614f61576000848152601e602052604081206007018054839290614f56908490617625565b90915550614f889050565b6000848152601e602052604081206008018054839290614f82908490617625565b90915550505b336000908152600f6020526040908190209051634dab476560e01b815273__$6ffa5bf1f4fa681f07e1987a80577d5f4e$__91634dab476591614fd091908890600401616569565b60006040518083038186803b158015614fe857600080fd5b505af4158015614ffc573d6000803e3d6000fd5b5050336000818152600b602090815260408083208a84528252808320805460ff19166001908117909155600c8352818420948452938252808320899055601382528083208a8452601e9092529091206003015490935061505d925090615a06565b6000868152601e602052604090206003908101919091558101805460ff19166001179055615089612d8c565b6005820155615097336157e4565b6150a033615946565b6150e757601780546001810182556000919091527fc624b66cc0138b8fabc209247f72d758e1cf3343756d543badbf24212bed8c150180546001600160a01b031916331790555b6001601f60008282546150fa9190617625565b90915550506000858152601e602052604090819020600781015460089091015491513392879289927f2e5fbeef18eaa8d8ea3b0122bc64445c4daaa6f454dfb889456791a92287f3789261515292899290919061750d565b60405180910390a45050505050565b615169615495565b3360009081526013602052604090206018546017546103e89161518b91617625565b106151a85760405162461bcd60e51b8152600401610db3906170ef565b600781015460ff16156151cd5760405162461bcd60e51b8152600401610db3906167cd565b60006151d7612d8c565b600354336000908152601560205260409020549192509081111561521d5733600090815260156020526040812054615210908390615a06565b905061521b81613753565b505b3360009081526015602052604090205481111561524c5760405162461bcd60e51b8152600401610db390616be6565b61525533615946565b61529c57601780546001810182556000919091527fc624b66cc0138b8fabc209247f72d758e1cf3343756d543badbf24212bed8c150180546001600160a01b031916331790555b8254336001600160a01b03199182168117855560018501805490921617905560058301829055600783015460ff166152e45760078301805460ff191660011790554260088401555b6001601f60008282546152f79190617625565b909155505060405133907f439d77b7534ec3108fc6143bd4fbabde0b9f2bb54f7b0730d1f70dd2135b765f9061532e908590616544565b60405180910390a2505050565b601b54101590565b3360009081526013602052604090206007015460ff1690565b6020546001600160a01b031681565b6001600160a01b038082166000908152601360209081526040808320815161012081018352815486168152600182015490951692850192909252600282015490840152600381015460ff161515606084015260048101546080840152600581015460a08401526006810180549293849390929160c08401916153ec906176b7565b80601f0160208091040260200160405190810160405280929190818152602001828054615418906176b7565b80156154655780601f1061543a57610100808354040283529160200191615465565b820191906000526020600020905b81548152906001019060200180831161544857829003601f168201915b5050509183525050600782015460ff161515602082015260089091015460409182015201519392505050565b3390565b601a546001600160a01b03166154bd5760405162461bcd60e51b8152600401610db390617032565b601a546040516000916001600160a01b0316906154de903390602401616577565b60408051601f198184030181529181526020820180516001600160e01b0316631f5ac9c560e11b17905251615513919061654d565b6000604051808303816000865af19150503d8060008114615550576040519150601f19603f3d011682016040523d82523d6000602084013e615555565b606091505b5050601a546040519192506000916001600160a01b039091169061557d903390602401616577565b60408051601f198184030181529181526020820180516001600160e01b03166358563d2160e01b179052516155b2919061654d565b6000604051808303816000865af19150503d80600081146155ef576040519150601f19603f3d011682016040523d82523d6000602084013e6155f4565b606091505b5050905081806156015750805b6137165760405162461bcd60e51b8152600401610db390616855565b600080805b601854811015613b6057836001600160a01b03166018828154811061565757634e487b7160e01b600052603260045260246000fd5b6000918252602090912001546001600160a01b0316141561567b5760019150613b60565b80615685816176f2565b915050615622565b60008060005b60175481101561570157836001600160a01b0316601782815481106156c857634e487b7160e01b600052603260045260246000fd5b6000918252602090912001546001600160a01b031614156156ef5760019150809250615701565b806156f9816176f2565b915050615693565b508015611e7e576017805461571890600190617670565b8154811061573657634e487b7160e01b600052603260045260246000fd5b600091825260209091200154601780546001600160a01b03909216918490811061577057634e487b7160e01b600052603260045260246000fd5b9060005260206000200160006101000a8154816001600160a01b0302191690836001600160a01b0316021790555060178054806157bd57634e487b7160e01b600052603160045260246000fd5b600082815260209020810160001990810180546001600160a01b0319169055019055505050565b60008060005b60185481101561585857836001600160a01b03166018828154811061581f57634e487b7160e01b600052603260045260246000fd5b6000918252602090912001546001600160a01b031614156158465760019150809250615858565b80615850816176f2565b9150506157ea565b508015611e7e576018805461586f90600190617670565b8154811061588d57634e487b7160e01b600052603260045260246000fd5b600091825260209091200154601880546001600160a01b0390921691849081106158c757634e487b7160e01b600052603260045260246000fd5b9060005260206000200160006101000a8154816001600160a01b0302191690836001600160a01b0316021790555060188054806157bd57634e487b7160e01b600052603160045260246000fd5b600061117a8284617625565b600081831061592f578161117a565b5090919050565b60008183101561592f578161117a565b600080805b601754811015613b6057836001600160a01b03166017828154811061598057634e487b7160e01b600052603260045260246000fd5b6000918252602090912001546001600160a01b031614156159a45760019150613b60565b806159ae816176f2565b91505061594b565b600080546001600160a01b038381166001600160a01b0319831681178455604051919092169283917f8be0079c531659141344cd1fd0a4f28419497f9722a3daafe3b4186f6b6457e09190a35050565b600061117a8284617670565b805160609060005b81811015615a605780848281518110615a4357634e487b7160e01b600052603260045260246000fd5b602090810291909101015280615a58816176f2565b915050615a1a565b509192915050565b60606000825111615a7857600080fd5b81518060005b81811015615bf357600083615a91613955565b878481518110615ab157634e487b7160e01b600052603260045260246000fd5b6020026020010151604051602001615aca929190616569565b6040516020818303038152906040528051906020012060001c615aed919061770d565b615af8906001617625565b9050600086615b08600184617670565b81518110615b2657634e487b7160e01b600052603260045260246000fd5b6020026020010151905086600186615b3e9190617670565b81518110615b5c57634e487b7160e01b600052603260045260246000fd5b602002602001015187600184615b729190617670565b81518110615b9057634e487b7160e01b600052603260045260246000fd5b60209081029190910101528087615ba8600188617670565b81518110615bc657634e487b7160e01b600052603260045260246000fd5b6020908102919091010152615bdc600186617670565b945050508080615beb906176f2565b915050615a7e565b50929392505050565b828054615c08906176b7565b90600052602060002090601f016020900481019282615c2a5760008555615c70565b82601f10615c4357805160ff1916838001178555615c70565b82800160010185558215615c70579182015b82811115615c70578251825591602001919060010190615c55565b50615c7c929150615de2565b5090565b508054615c8c906176b7565b6000825580601f10615c9e5750611e81565b601f016020900490600052602060002090810190611e819190615de2565b60405180608001604052806060815260200160006001600160a01b031681526020016000815260200160006003811115615d0657634e487b7160e01b600052602160045260246000fd5b905290565b5080546000825590600052602060002090810190611e819190615df7565b5080546000825590600052602060002090810190611e819190615de2565b604051806101e0016040528060008152602001600081526020016000815260200160008152602001600015158152602001600015158152602001600015158152602001600081526020016000815260200160008152602001600081526020016060815260200160006003811115615dce57634e487b7160e01b600052602160045260246000fd5b815260200160608152602001606081525090565b5b80821115615c7c5760008155600101615de3565b80821115615c7c576000615e0b8282615c80565b50600101615df7565b80356001600160a01b0381168114610e3f57600080fd5b600082601f830112615e3b578081fd5b81516020615e50615e4b836175cf565b6175a6565b82815281810190858301855b85811015615e8557615e73898684518b0101615f57565b84529284019290840190600101615e5c565b5090979650505050505050565b600082601f830112615ea2578081fd5b81516020615eb2615e4b836175cf565b8281528181019085830183850287018401881015615ece578586fd5b855b85811015615e8557815184529284019290840190600101615ed0565b80518015158114610e3f57600080fd5b805160048110610e3f57600080fd5b600082601f830112615f1b578081fd5b8135615f29615e4b826175f2565b818152846020838601011115615f3d578283fd5b816020850160208301379081016020019190915292915050565b600082601f830112615f67578081fd5b8151615f75615e4b826175f2565b818152846020838601011115615f89578283fd5b614727826020830160208701617687565b600060208284031215615fab578081fd5b61117a82615e14565b60008060408385031215615fc6578081fd5b615fcf83615e14565b946020939093013593505050565b600080600060608486031215615ff1578081fd5b615ffa84615e14565b95602085013595506040909401359392505050565b60006020808385031215616021578182fd5b82356001600160401b03811115616036578283fd5b8301601f81018513616046578283fd5b8035616054615e4b826175cf565b8181528381019083850185840285018601891015616070578687fd5b8694505b83851015616092578035835260019490940193918501918501616074565b50979650505050505050565b6000602082840312156160af578081fd5b61117a82615eec565b6000806000604084860312156160cc578081fd5b83356001600160401b03808211156160e2578283fd5b818601915086601f8301126160f5578283fd5b813581811115616103578384fd5b876020828501011115616114578384fd5b6020928301989097509590910135949350505050565b6000806040838503121561613c578182fd5b82356001600160401b0380821115616152578384fd5b61615e86838701615f0b565b93506020850135915080821115616173578283fd5b5061618085828601615f0b565b9150509250929050565b60006020828403121561619b578081fd5b81516001600160401b03808211156161b1578283fd5b81840191506101e08083870312156161c7578384fd5b6161d0816175a6565b90508251815260208301516020820152604083015160408201526060830151606082015261620060808401615eec565b608082015261621160a08401615eec565b60a082015261622260c08401615eec565b60c082015260e083810151908201526101008084015190820152610120808401519082015261014080840151908201526101608084015183811115616265578586fd5b61627188828701615f57565b828401525050610180616285818501615efc565b908201526101a0838101518381111561629c578586fd5b6162a888828701615e2b565b8284015250506101c080840151838111156162c1578586fd5b6162cd88828701615e92565b918301919091525095945050505050565b6000602082840312156162ef578081fd5b5035919050565b6000602082840312156113de578081fd5b60008060408385031215616319578182fd5b8235915061632960208401615e14565b90509250929050565b600080600060608486031215616346578081fd5b833592506020840135915060408401356001600160401b03811115616369578182fd5b61637586828701615f0b565b9150509250925092565b60008060408385031215616391578182fd5b50508035926020909101359150565b600080600080608085870312156163b5578182fd5b84359350602085013592506163cc60408601615e14565b9396929550929360600135925050565b6000806000606084860312156163f0578081fd5b505081359360208301359350604090920135919050565b6000815180845260208085018081965082840281019150828601855b8581101561644d57828403895261643b84835161649a565b98850198935090840190600101616423565b5091979650505050505050565b6000815180845260208085019450808401835b838110156164895781518752958201959082019060010161646d565b509495945050505050565b15159052565b600081518084526164b2816020860160208601617687565b601f01601f19169290920160200192915050565b600481106164e457634e487b7160e01b600052602160045260246000fd5b9052565b600a8152690c6dedadad2e890c2e6d60b31b602082015260400190565b60609190911b6bffffffffffffffffffffffff1916815260140190565b60609290921b6bffffffffffffffffffffffff19168252601482015260340190565b90815260200190565b6000825161655f818460208701617687565b9190910192915050565b918252602082015260400190565b6001600160a01b0391909116815260200190565b6001600160a01b038a81168252891660208201526040810188905286151560608201526080810186905260a0810185905261012060c082018190526000906165d58382018761649a565b94151560e084015250506101000152979650505050505050565b6000602080830181845280855180835260408601915060408482028701019250838701855b8281101561664257603f1988860301845261663085835161649a565b94509285019290850190600101616614565b5092979650505050505050565b60006020825261117a602083018461645a565b901515815260200190565b60006020825261117a602083018461649a565b6000604082528360408301528385606084013780606085840101526060601f19601f8601168301019050826020830152949350505050565b6000604082526166cb604083018561649a565b905060018060a01b03831660208301529392505050565b6000608082526166f5608083018761649a565b6001600160a01b038616602084015260408301859052905061671a60608301846164c6565b95945050505050565b600060208083528184548360028204905060018083168061674557607f831692505b85831081141561676357634e487b7160e01b87526022600452602487fd5b61676f83878a01616544565b8180156167835760018114616794576167be565b60ff198616825287820196506167be565b61679d8b617619565b895b868110156167b85781548482015290850190890161679f565b83019750505b50949998505050505050505050565b6020808252601c908201527f576f726b657220697320616c7265616479207265676973746572656400000000604082015260600190565b60208082526031908201527f676976656e204461746142617463682073686f756c6420626520415050524f5660408201527011510b08185b99081a5d081a5cc81b9bdd607a1b606082015260800190565b60208082526025908201527f72656365697665722072656a6563746564205f7265747269657665534675656c6040820152640818d85b1b60da1b606082015260800190565b6020808252605c908201527f4e6f74207468652073616d6520766f7465207468616e2077686174207761732060408201527f636f6d6d697465642c20696d706f737369626c6520746f206d6174636820776960608201527f746820676976656e205f73616c742026205f766f74654f7074696f6e00000000608082015260a00190565b60208082526026908201527f4f776e61626c653a206e6577206f776e657220697320746865207a65726f206160408201526564647265737360d01b606082015260800190565b60208082526029908201527f6b206f72204e20617265206e6f74204f4b20647572696e672072616e646f6d2060408201526839b2b632b1ba34b7b760b91b606082015260800190565b6020808252602a908201527f4661696c20647572696e6720616c6c6f636174696f6e3a206e6f7420656e6f75604082015269676820776f726b65727360b01b606082015260800190565b60208082526025908201527f576f726b6572206d757374206265204e4f54204275737920746f20756e72656760408201526434b9ba32b960d91b606082015260800190565b6020808252601e908201527f636f6d6d697420706572696f64206e6565647320746f206265206f70656e0000604082015260600190565b6020808252602f908201527f636f756c64206e6f742072657761726420746f6b656e20696e2054726967676560408201526e3921b432b1b5a9b837ba161018973160891b606082015260800190565b6020808252602b908201527f576f726b6572206973206e6f7420617661696c61626c6520736f2063616e277460408201526a103ab73932b3b4b9ba32b960a91b606082015260800190565b6020808252603d908201527f436f756c64206e6f74207265717565737420656e6f75676820616c6c6f63617460408201527f6564207374616b652c2072657175657374566f74696e67526967687473000000606082015260800190565b6020808252602f908201527f5573657220686173206e6f7420636f6d6d69746564206265666f72652c20746860408201526e1d5cc818d85b89dd081c995d99585b608a1b606082015260800190565b60208082526014908201527311185d18481b5d5cdd081a185d9948195b99195960621b604082015260600190565b60208082526043908201527f576f726b657220686173206e6f7420656e6f75676820285f6e756d546f6b656e60408201527f732920696e2068697320466f726d61745374616b6564546f6b656e42616c616e606082015262031b2960ed1b608082015260a00190565b6020808252602d908201527f636f756c64206e6f74207265776172642052455020696e20547269676765724360408201526c6865636b53706f742c20312e6160981b606082015260800190565b60208082526039908201527f646c6c4d61703a20646f6573206e6f7420636f696e7461696e205f446174614260408201527f61746368496420666f7220746865206d73672073656e64657200000000000000606082015260800190565b6020808252602b908201527f75736572206d75737420686176652072657665616c656420696e20746869732060408201526a0ced2eccadc4084c2e8c6d60ab1b606082015260800190565b6020808252601490820152733737ba1030903b30b634b2103837b9b4ba34b7b760611b604082015260600190565b6020808252603b908201527f43616e277420616c6c6f6361746520776f726b2c207468652063757272656e7460408201527f20626174636820697320616c726561647920616c6c6f63617465640000000000606082015260800190565b60208082526048908201527f55736572206e6565647320746f2068617665206265656e20616c6c6f6361746560408201527f64207468652063757272656e74206461746120626174636820746f20636f6d6d6060820152671a5d081bdb881a5d60c21b608082015260a00190565b6020808252818101527f4f776e61626c653a2063616c6c6572206973206e6f7420746865206f776e6572604082015260600190565b6020808252603a908201527f5f446174614261746368496420686173206e6f7420656e6465642c206f72206e60408201527f6f7420657665727920766f74657273206861766520766f746564000000000000606082015260800190565b60208082526029908201527f6765744e756d50617373696e67546f6b656e733a20686173686573206d75737460408201526808189948195c5d585b60ba1b606082015260800190565b60208082526036908201527f43616e277420616c6c6f6361746520776f726b2c207468652063757272656e74604082015275206261746368206973206e6f7420636f6d706c65746560501b606082015260800190565b60208082526026908201527f52657665616c20706572696f64206e6f74206f70656e20666f7220746869732060408201526511185d18525160d21b606082015260800190565b60208082526027908201527f617661696c61626c65546f6b656e732073686f756c64206265203e3d205f6e756040820152666d546f6b656e7360c81b606082015260800190565b60208082526017908201527f5f4461746142617463684964206d757374206578697374000000000000000000604082015260600190565b6020808252601390820152720c081059191c995cdcc8139bdd0815985b1a59606a1b604082015260600190565b6020808252602f908201527f636f756c64206e6f742072657761726420746f6b656e20696e2054726967676560408201526e3921b432b1b5a9b837ba161019173160891b606082015260800190565b60208082526021908201527f5f446174614261746368496420697320616c72656164792076616c69646174656040820152601960fa1b606082015260800190565b60208082526022908201527f4d6178696d756d207265676973746572656420776f726b65727320616c726561604082015261647960f01b606082015260800190565b60208082526037908201527f75736572206d757374206861766520656e6f75676820766f74696e672072696760408201527f68747320616b6120616c6c6f6361746564207374616b65000000000000000000606082015260800190565b6020808252602d908201527f636f756c64206e6f74207265776172642052455020696e20547269676765724360408201526c6865636b53706f742c20322e6160981b606082015260800190565b6020808252602a908201527f5f446174614261746368496420636865636b696e6720766f7465206d757374206040820152691a185d9948195b99195960b21b606082015260800190565b6020808252603b908201527f436f756c64206e6f74207769746864726177566f74696e67526967687473207460408201527f68726f7567682050726f78795374616b654465616c6c6f636174650000000000606082015260800190565b6020808252600f908201526e11185d18481b5d5cdd08195e1a5cdd608a1b604082015260600190565b6000602082528251602083015260208301516040830152604083015160608301526060830151608083015260808301516172e860a0840182616494565b5060a08301516172fb60c0840182616494565b5060c083015161730e60e0840182616494565b5060e0830151610100838101919091528301516101208084019190915283015161014080840191909152830151610160808401919091528301516101e061018080850182905261736261020086018461649a565b908601519092506101a0617378868201836164c6565b80870151915050601f196101c08187860301818801526173988584616407565b9088015187820390920184880152935090506173b4838261645a565b9695505050505050565b6000858252846020830152608060408301526173dd608083018561649a565b905082606083015295945050505050565b600083825282602083015260606040830152614727606083016164e8565b60008482528360208301526080604083015261742a608083016164e8565b9050826060830152949350505050565b9182526020820152606060408201819052600990820152686e756d546f6b656e7360b81b608082015260a00190565b93845260208401929092526040830152606082015260800190565b6000602082528251608060208401526174a060a084018261649a565b905060018060a01b0360208501511660408401526040840151606084015260608401516174d060808501826164c6565b509392505050565b9182526001600160a01b0316602082015260400190565b9182526001600160a01b031660208201526000604082015260600190565b9283526020830191909152604082015260600190565b60006101a08f83528e60208401528d60408401528c60608401528b151560808401528a151560a084015289151560c08401528860e0840152876101008401528661012084015285610140840152806101608401526175838184018661649a565b9150506175946101808301846164c6565b9e9d5050505050505050505050505050565b6040518181016001600160401b03811182821017156175c7576175c761774d565b604052919050565b60006001600160401b038211156175e8576175e861774d565b5060209081020190565b60006001600160401b0382111561760b5761760b61774d565b50601f01601f191660200190565b60009081526020902090565b6000821982111561763857617638617721565b500190565b60008261764c5761764c617737565b500490565b600081600019048311821515161561766b5761766b617721565b500290565b60008282101561768257617682617721565b500390565b60005b838110156176a257818101518382015260200161768a565b838111156176b1576000848401525b50505050565b6002810460018216806176cb57607f821691505b602082108114156176ec57634e487b7160e01b600052602260045260246000fd5b50919050565b600060001982141561770657617706617721565b5060010190565b60008261771c5761771c617737565b500690565b634e487b7160e01b600052601160045260246000fd5b634e487b7160e01b600052601260045260246000fd5b634e487b7160e01b600052604160045260246000fdfea2646970667358221220fecb13954c58a8a75a723b7e0fd6847924acfbff0203cc48fd9c3ddbb10377ba64736f6c63430008000033",
  "linkReferences": {
    "contracts/worksystems/DataFormatting.sol": {
      "AttributeStore2": [
        {
          "length": 20,
          "start": 14017
        },
        {
          "length": 20,
          "start": 14125
        },
        {
          "length": 20,
          "start": 17075
        },
        {
          "length": 20,
          "start": 17334
        }
      ],
      "DLL2": [
        {
          "length": 20,
          "start": 4571
        },
        {
          "length": 20,
          "start": 4743
        },
        {
          "length": 20,
          "start": 5539
        },
        {
          "length": 20,
          "start": 12954
        },
        {
          "length": 20,
          "start": 13134
        },
        {
          "length": 20,
          "start": 13506
        },
        {
          "length": 20,
          "start": 13668
        },
        {
          "length": 20,
          "start": 13863
        },
        {
          "length": 20,
          "start": 20792
        }
      ]
    }
  },
  "deployedLinkReferences": {
    "contracts/worksystems/DataFormatting.sol": {
      "AttributeStore2": [
        {
          "length": 20,
          "start": 13616
        },
        {
          "length": 20,
          "start": 13724
        },
        {
          "length": 20,
          "start": 16674
        },
        {
          "length": 20,
          "start": 16933
        }
      ],
      "DLL2": [
        {
          "length": 20,
          "start": 4170
        },
        {
          "length": 20,
          "start": 4342
        },
        {
          "length": 20,
          "start": 5138
        },
        {
          "length": 20,
          "start": 12553
        },
        {
          "length": 20,
          "start": 12733
        },
        {
          "length": 20,
          "start": 13105
        },
        {
          "length": 20,
          "start": 13267
        },
        {
          "length": 20,
          "start": 13462
        },
        {
          "length": 20,
          "start": 20391
        }
      ]
    }
  }
}