{
  "_format": "hh-sol-artifact-1",
  "contractName": "DataFormatting",
  "sourceName": "contracts/worksystems/DataFormatting.sol",
  "abi": [
    {
      "inputs": [
        {
          "internalType": "address",
          "name": "EXDT_token",
          "type": "address"
        }
      ],
      "stateMutability": "nonpayable",
      "type": "constructor"
    },
    {
      "anonymous": false,
      "inputs": [
        {
          "indexed": false,
          "internalType": "bytes",
          "name": "bytesFailure",
          "type": "bytes"
        }
      ],
      "name": "BytesFailure",
      "type": "event"
    },
    {
      "anonymous": false,
      "inputs": [
        {
          "indexed": true,
          "internalType": "address",
          "name": "previousOwner",
          "type": "address"
        },
        {
          "indexed": true,
          "internalType": "address",
          "name": "newOwner",
          "type": "address"
        }
      ],
      "name": "OwnershipTransferred",
      "type": "event"
    },
    {
      "anonymous": false,
      "inputs": [
        {
          "indexed": false,
          "internalType": "string",
          "name": "hash",
          "type": "string"
        },
        {
          "indexed": true,
          "internalType": "address",
          "name": "creator",
          "type": "address"
        }
      ],
      "name": "_FormatAccepted",
      "type": "event"
    },
    {
      "anonymous": false,
      "inputs": [
        {
          "indexed": true,
          "internalType": "uint256",
          "name": "DataID",
          "type": "uint256"
        },
        {
          "indexed": false,
          "internalType": "uint256",
          "name": "numTokens",
          "type": "uint256"
        },
        {
          "indexed": true,
          "internalType": "address",
          "name": "voter",
          "type": "address"
        }
      ],
      "name": "_FormatCheckCommitted",
      "type": "event"
    },
    {
      "anonymous": false,
      "inputs": [
        {
          "indexed": true,
          "internalType": "uint256",
          "name": "DataID",
          "type": "uint256"
        },
        {
          "indexed": false,
          "internalType": "uint256",
          "name": "numTokens",
          "type": "uint256"
        },
        {
          "indexed": false,
          "internalType": "uint256",
          "name": "votesFor",
          "type": "uint256"
        },
        {
          "indexed": false,
          "internalType": "uint256",
          "name": "votesAgainst",
          "type": "uint256"
        },
        {
          "indexed": true,
          "internalType": "uint256",
          "name": "choice",
          "type": "uint256"
        },
        {
          "indexed": true,
          "internalType": "address",
          "name": "voter",
          "type": "address"
        }
      ],
      "name": "_FormatCheckRevealed",
      "type": "event"
    },
    {
      "anonymous": false,
      "inputs": [
        {
          "indexed": true,
          "internalType": "uint256",
          "name": "DataID",
          "type": "uint256"
        },
        {
          "indexed": false,
          "internalType": "string",
          "name": "file_hash",
          "type": "string"
        },
        {
          "indexed": false,
          "internalType": "address",
          "name": "sender",
          "type": "address"
        }
      ],
      "name": "_FormatSubmitted",
      "type": "event"
    },
    {
      "anonymous": false,
      "inputs": [
        {
          "indexed": true,
          "internalType": "uint256",
          "name": "epochNumber",
          "type": "uint256"
        }
      ],
      "name": "_NewEpoch",
      "type": "event"
    },
    {
      "anonymous": false,
      "inputs": [
        {
          "indexed": true,
          "internalType": "uint256",
          "name": "DataID",
          "type": "uint256"
        },
        {
          "indexed": true,
          "internalType": "address",
          "name": "voter",
          "type": "address"
        }
      ],
      "name": "_TokensRescued",
      "type": "event"
    },
    {
      "anonymous": false,
      "inputs": [
        {
          "indexed": false,
          "internalType": "uint256",
          "name": "numTokens",
          "type": "uint256"
        },
        {
          "indexed": true,
          "internalType": "address",
          "name": "voter",
          "type": "address"
        }
      ],
      "name": "_VotingRightsGranted",
      "type": "event"
    },
    {
      "anonymous": false,
      "inputs": [
        {
          "indexed": false,
          "internalType": "uint256",
          "name": "numTokens",
          "type": "uint256"
        },
        {
          "indexed": true,
          "internalType": "address",
          "name": "voter",
          "type": "address"
        }
      ],
      "name": "_VotingRightsWithdrawn",
      "type": "event"
    },
    {
      "anonymous": false,
      "inputs": [
        {
          "indexed": true,
          "internalType": "uint256",
          "name": "batchID",
          "type": "uint256"
        },
        {
          "indexed": false,
          "internalType": "address",
          "name": "worker",
          "type": "address"
        }
      ],
      "name": "_WorkAllocated",
      "type": "event"
    },
    {
      "anonymous": false,
      "inputs": [
        {
          "indexed": true,
          "internalType": "address",
          "name": "worker",
          "type": "address"
        },
        {
          "indexed": false,
          "internalType": "uint256",
          "name": "timestamp",
          "type": "uint256"
        }
      ],
      "name": "_WorkerRegistered",
      "type": "event"
    },
    {
      "anonymous": false,
      "inputs": [
        {
          "indexed": true,
          "internalType": "address",
          "name": "worker",
          "type": "address"
        },
        {
          "indexed": false,
          "internalType": "uint256",
          "name": "timestamp",
          "type": "uint256"
        }
      ],
      "name": "_WorkerUnregistered",
      "type": "event"
    },
    {
      "inputs": [],
      "name": "AddressManager",
      "outputs": [
        {
          "internalType": "contract IAddressManager",
          "name": "",
          "type": "address"
        }
      ],
      "stateMutability": "view",
      "type": "function"
    },
    {
      "inputs": [],
      "name": "AllTxsCounter",
      "outputs": [
        {
          "internalType": "uint256",
          "name": "",
          "type": "uint256"
        }
      ],
      "stateMutability": "view",
      "type": "function"
    },
    {
      "inputs": [],
      "name": "AllocateWork",
      "outputs": [],
      "stateMutability": "nonpayable",
      "type": "function"
    },
    {
      "inputs": [],
      "name": "AllocatedBatchCursor",
      "outputs": [
        {
          "internalType": "uint256",
          "name": "",
          "type": "uint256"
        }
      ],
      "stateMutability": "view",
      "type": "function"
    },
    {
      "inputs": [],
      "name": "AmIRegistered",
      "outputs": [
        {
          "internalType": "bool",
          "name": "passed",
          "type": "bool"
        }
      ],
      "stateMutability": "view",
      "type": "function"
    },
    {
      "inputs": [],
      "name": "ArchiveSystem",
      "outputs": [
        {
          "internalType": "contract IArchiveSystem",
          "name": "",
          "type": "address"
        }
      ],
      "stateMutability": "view",
      "type": "function"
    },
    {
      "inputs": [
        {
          "internalType": "string",
          "name": "_a",
          "type": "string"
        },
        {
          "internalType": "string",
          "name": "_b",
          "type": "string"
        }
      ],
      "name": "AreStringsEqual",
      "outputs": [
        {
          "internalType": "bool",
          "name": "",
          "type": "bool"
        }
      ],
      "stateMutability": "pure",
      "type": "function"
    },
    {
      "inputs": [],
      "name": "BatchCheckingCursor",
      "outputs": [
        {
          "internalType": "uint256",
          "name": "",
          "type": "uint256"
        }
      ],
      "stateMutability": "view",
      "type": "function"
    },
    {
      "inputs": [],
      "name": "COMMIT_ROUND_DURATION",
      "outputs": [
        {
          "internalType": "uint256",
          "name": "",
          "type": "uint256"
        }
      ],
      "stateMutability": "view",
      "type": "function"
    },
    {
      "inputs": [],
      "name": "CONSENSUS_WORKER_SIZE",
      "outputs": [
        {
          "internalType": "uint256",
          "name": "",
          "type": "uint256"
        }
      ],
      "stateMutability": "view",
      "type": "function"
    },
    {
      "inputs": [
        {
          "internalType": "uint256",
          "name": "",
          "type": "uint256"
        }
      ],
      "name": "CollectedSpotBatchs",
      "outputs": [
        {
          "internalType": "bool",
          "name": "",
          "type": "bool"
        }
      ],
      "stateMutability": "view",
      "type": "function"
    },
    {
      "inputs": [],
      "name": "CurrentWorkEpoch",
      "outputs": [
        {
          "internalType": "uint256",
          "name": "",
          "type": "uint256"
        }
      ],
      "stateMutability": "view",
      "type": "function"
    },
    {
      "inputs": [],
      "name": "DATA_BATCH_SIZE",
      "outputs": [
        {
          "internalType": "uint256",
          "name": "",
          "type": "uint256"
        }
      ],
      "stateMutability": "view",
      "type": "function"
    },
    {
      "inputs": [
        {
          "internalType": "uint256",
          "name": "",
          "type": "uint256"
        }
      ],
      "name": "DataBatch",
      "outputs": [
        {
          "internalType": "uint256",
          "name": "start_idx",
          "type": "uint256"
        },
        {
          "internalType": "uint256",
          "name": "end_idx",
          "type": "uint256"
        },
        {
          "internalType": "uint256",
          "name": "counter",
          "type": "uint256"
        },
        {
          "internalType": "uint256",
          "name": "unrevealed_workers",
          "type": "uint256"
        },
        {
          "internalType": "bool",
          "name": "complete",
          "type": "bool"
        },
        {
          "internalType": "bool",
          "name": "checked",
          "type": "bool"
        },
        {
          "internalType": "bool",
          "name": "allocated_to_work",
          "type": "bool"
        },
        {
          "internalType": "uint256",
          "name": "commitEndDate",
          "type": "uint256"
        },
        {
          "internalType": "uint256",
          "name": "revealEndDate",
          "type": "uint256"
        },
        {
          "internalType": "uint256",
          "name": "votesFor",
          "type": "uint256"
        },
        {
          "internalType": "uint256",
          "name": "votesAgainst",
          "type": "uint256"
        },
        {
          "internalType": "string",
          "name": "batchIPFSfile",
          "type": "string"
        },
        {
          "internalType": "enum DataFormatting.DataStatus",
          "name": "status",
          "type": "uint8"
        }
      ],
      "stateMutability": "view",
      "type": "function"
    },
    {
      "inputs": [
        {
          "internalType": "uint256",
          "name": "_DataBatchId",
          "type": "uint256"
        }
      ],
      "name": "DataCommitEndDate",
      "outputs": [
        {
          "internalType": "uint256",
          "name": "commitEndDate",
          "type": "uint256"
        }
      ],
      "stateMutability": "view",
      "type": "function"
    },
    {
      "inputs": [
        {
          "internalType": "uint256",
          "name": "_DataBatchId",
          "type": "uint256"
        }
      ],
      "name": "DataEnded",
      "outputs": [
        {
          "internalType": "bool",
          "name": "ended",
          "type": "bool"
        }
      ],
      "stateMutability": "view",
      "type": "function"
    },
    {
      "inputs": [
        {
          "internalType": "uint256",
          "name": "_DataBatchId",
          "type": "uint256"
        }
      ],
      "name": "DataExists",
      "outputs": [
        {
          "internalType": "bool",
          "name": "exists",
          "type": "bool"
        }
      ],
      "stateMutability": "view",
      "type": "function"
    },
    {
      "inputs": [],
      "name": "DataNonce",
      "outputs": [
        {
          "internalType": "uint256",
          "name": "",
          "type": "uint256"
        }
      ],
      "stateMutability": "view",
      "type": "function"
    },
    {
      "inputs": [
        {
          "internalType": "uint256",
          "name": "_DataBatchId",
          "type": "uint256"
        }
      ],
      "name": "DataRevealEndDate",
      "outputs": [
        {
          "internalType": "uint256",
          "name": "revealEndDate",
          "type": "uint256"
        }
      ],
      "stateMutability": "view",
      "type": "function"
    },
    {
      "inputs": [
        {
          "internalType": "address",
          "name": "",
          "type": "address"
        }
      ],
      "name": "FormatStakedTokenBalance",
      "outputs": [
        {
          "internalType": "uint256",
          "name": "",
          "type": "uint256"
        }
      ],
      "stateMutability": "view",
      "type": "function"
    },
    {
      "inputs": [
        {
          "internalType": "uint256",
          "name": "",
          "type": "uint256"
        }
      ],
      "name": "FormatsMapping",
      "outputs": [
        {
          "internalType": "string",
          "name": "ipfs_hash",
          "type": "string"
        },
        {
          "internalType": "address",
          "name": "author",
          "type": "address"
        },
        {
          "internalType": "uint256",
          "name": "timestamp",
          "type": "uint256"
        },
        {
          "internalType": "enum DataFormatting.DataStatus",
          "name": "status",
          "type": "uint8"
        }
      ],
      "stateMutability": "view",
      "type": "function"
    },
    {
      "inputs": [
        {
          "internalType": "address",
          "name": "user_",
          "type": "address"
        }
      ],
      "name": "GetCurrentWork",
      "outputs": [
        {
          "internalType": "uint256",
          "name": "",
          "type": "uint256"
        }
      ],
      "stateMutability": "view",
      "type": "function"
    },
    {
      "inputs": [
        {
          "internalType": "address",
          "name": "user_",
          "type": "address"
        }
      ],
      "name": "IsNewWorkAvailable",
      "outputs": [
        {
          "internalType": "bool",
          "name": "",
          "type": "bool"
        }
      ],
      "stateMutability": "view",
      "type": "function"
    },
    {
      "inputs": [],
      "name": "LastBatchCounter",
      "outputs": [
        {
          "internalType": "uint256",
          "name": "",
          "type": "uint256"
        }
      ],
      "stateMutability": "view",
      "type": "function"
    },
    {
      "inputs": [],
      "name": "MIN_REP_Data",
      "outputs": [
        {
          "internalType": "uint256",
          "name": "",
          "type": "uint256"
        }
      ],
      "stateMutability": "view",
      "type": "function"
    },
    {
      "inputs": [],
      "name": "MIN_REP_REVEAL",
      "outputs": [
        {
          "internalType": "uint256",
          "name": "",
          "type": "uint256"
        }
      ],
      "stateMutability": "view",
      "type": "function"
    },
    {
      "inputs": [],
      "name": "MIN_REWARD_Data",
      "outputs": [
        {
          "internalType": "uint256",
          "name": "",
          "type": "uint256"
        }
      ],
      "stateMutability": "view",
      "type": "function"
    },
    {
      "inputs": [],
      "name": "MIN_STAKE",
      "outputs": [
        {
          "internalType": "uint256",
          "name": "",
          "type": "uint256"
        }
      ],
      "stateMutability": "view",
      "type": "function"
    },
    {
      "inputs": [
        {
          "internalType": "address",
          "name": "",
          "type": "address"
        },
        {
          "internalType": "uint256",
          "name": "",
          "type": "uint256"
        }
      ],
      "name": "MasterWorkers",
      "outputs": [
        {
          "internalType": "address",
          "name": "",
          "type": "address"
        }
      ],
      "stateMutability": "view",
      "type": "function"
    },
    {
      "inputs": [
        {
          "internalType": "uint256",
          "name": "CheckedBatchId",
          "type": "uint256"
        }
      ],
      "name": "Ping",
      "outputs": [
        {
          "internalType": "bool",
          "name": "",
          "type": "bool"
        }
      ],
      "stateMutability": "nonpayable",
      "type": "function"
    },
    {
      "inputs": [],
      "name": "REVEAL_ROUND_DURATION",
      "outputs": [
        {
          "internalType": "uint256",
          "name": "",
          "type": "uint256"
        }
      ],
      "stateMutability": "view",
      "type": "function"
    },
    {
      "inputs": [],
      "name": "RegisterWorker",
      "outputs": [],
      "stateMutability": "nonpayable",
      "type": "function"
    },
    {
      "inputs": [],
      "name": "RepManager",
      "outputs": [
        {
          "internalType": "contract IRepManager",
          "name": "",
          "type": "address"
        }
      ],
      "stateMutability": "view",
      "type": "function"
    },
    {
      "inputs": [],
      "name": "RewardManager",
      "outputs": [
        {
          "internalType": "contract IRewardManager",
          "name": "",
          "type": "address"
        }
      ],
      "stateMutability": "view",
      "type": "function"
    },
    {
      "inputs": [],
      "name": "SPOT_CHECK_VOTE_QUORUM",
      "outputs": [
        {
          "internalType": "uint256",
          "name": "",
          "type": "uint256"
        }
      ],
      "stateMutability": "view",
      "type": "function"
    },
    {
      "inputs": [],
      "name": "SpottingSystem",
      "outputs": [
        {
          "internalType": "contract ISpottingSystem",
          "name": "",
          "type": "address"
        }
      ],
      "stateMutability": "view",
      "type": "function"
    },
    {
      "inputs": [],
      "name": "StakeManager",
      "outputs": [
        {
          "internalType": "contract IStakeManager",
          "name": "",
          "type": "address"
        }
      ],
      "stateMutability": "view",
      "type": "function"
    },
    {
      "inputs": [],
      "name": "TriggerNextEpoch",
      "outputs": [],
      "stateMutability": "nonpayable",
      "type": "function"
    },
    {
      "inputs": [],
      "name": "UnregisterWorker",
      "outputs": [],
      "stateMutability": "nonpayable",
      "type": "function"
    },
    {
      "inputs": [
        {
          "internalType": "address",
          "name": "",
          "type": "address"
        },
        {
          "internalType": "uint256",
          "name": "",
          "type": "uint256"
        }
      ],
      "name": "UserChecksCommits",
      "outputs": [
        {
          "internalType": "bool",
          "name": "",
          "type": "bool"
        }
      ],
      "stateMutability": "view",
      "type": "function"
    },
    {
      "inputs": [
        {
          "internalType": "address",
          "name": "",
          "type": "address"
        },
        {
          "internalType": "uint256",
          "name": "",
          "type": "uint256"
        }
      ],
      "name": "UserChecksReveals",
      "outputs": [
        {
          "internalType": "bool",
          "name": "",
          "type": "bool"
        }
      ],
      "stateMutability": "view",
      "type": "function"
    },
    {
      "inputs": [
        {
          "internalType": "uint256",
          "name": "",
          "type": "uint256"
        },
        {
          "internalType": "address",
          "name": "",
          "type": "address"
        }
      ],
      "name": "UserNewFiles",
      "outputs": [
        {
          "internalType": "string",
          "name": "",
          "type": "string"
        }
      ],
      "stateMutability": "view",
      "type": "function"
    },
    {
      "inputs": [
        {
          "internalType": "uint256",
          "name": "",
          "type": "uint256"
        },
        {
          "internalType": "address",
          "name": "",
          "type": "address"
        }
      ],
      "name": "UserVotes",
      "outputs": [
        {
          "internalType": "uint256",
          "name": "",
          "type": "uint256"
        }
      ],
      "stateMutability": "view",
      "type": "function"
    },
    {
      "inputs": [
        {
          "internalType": "uint256",
          "name": "_DataBatchId",
          "type": "uint256"
        }
      ],
      "name": "ValidateDataBatch",
      "outputs": [],
      "stateMutability": "nonpayable",
      "type": "function"
    },
    {
      "inputs": [
        {
          "internalType": "uint256",
          "name": "",
          "type": "uint256"
        },
        {
          "internalType": "uint256",
          "name": "",
          "type": "uint256"
        }
      ],
      "name": "WorkersPerBatch",
      "outputs": [
        {
          "internalType": "address",
          "name": "",
          "type": "address"
        }
      ],
      "stateMutability": "view",
      "type": "function"
    },
    {
      "inputs": [
        {
          "internalType": "address",
          "name": "",
          "type": "address"
        }
      ],
      "name": "WorkersState",
      "outputs": [
        {
          "internalType": "address",
          "name": "worker_address",
          "type": "address"
        },
        {
          "internalType": "address",
          "name": "master_address",
          "type": "address"
        },
        {
          "internalType": "uint256",
          "name": "allocated_work_batch",
          "type": "uint256"
        },
        {
          "internalType": "bool",
          "name": "has_completed_work",
          "type": "bool"
        },
        {
          "internalType": "uint256",
          "name": "last_worked_round",
          "type": "uint256"
        },
        {
          "internalType": "uint256",
          "name": "last_interaction_date",
          "type": "uint256"
        },
        {
          "internalType": "string",
          "name": "extra",
          "type": "string"
        },
        {
          "internalType": "bool",
          "name": "registered",
          "type": "bool"
        },
        {
          "internalType": "uint256",
          "name": "registration_date",
          "type": "uint256"
        }
      ],
      "stateMutability": "view",
      "type": "function"
    },
    {
      "inputs": [
        {
          "internalType": "address",
          "name": "_user",
          "type": "address"
        },
        {
          "internalType": "uint256",
          "name": "_DataBatchId",
          "type": "uint256"
        }
      ],
      "name": "attrUUID",
      "outputs": [
        {
          "internalType": "bytes32",
          "name": "UUID",
          "type": "bytes32"
        }
      ],
      "stateMutability": "pure",
      "type": "function"
    },
    {
      "inputs": [
        {
          "internalType": "uint256",
          "name": "",
          "type": "uint256"
        }
      ],
      "name": "availableWorkers",
      "outputs": [
        {
          "internalType": "address",
          "name": "",
          "type": "address"
        }
      ],
      "stateMutability": "view",
      "type": "function"
    },
    {
      "inputs": [
        {
          "internalType": "uint256",
          "name": "",
          "type": "uint256"
        }
      ],
      "name": "busyWorkers",
      "outputs": [
        {
          "internalType": "address",
          "name": "",
          "type": "address"
        }
      ],
      "stateMutability": "view",
      "type": "function"
    },
    {
      "inputs": [
        {
          "internalType": "uint256",
          "name": "_DataBatchId",
          "type": "uint256"
        },
        {
          "internalType": "bytes32",
          "name": "_secretHash",
          "type": "bytes32"
        },
        {
          "internalType": "string",
          "name": "newIPFSHash",
          "type": "string"
        }
      ],
      "name": "commitFormatCheck",
      "outputs": [],
      "stateMutability": "nonpayable",
      "type": "function"
    },
    {
      "inputs": [
        {
          "internalType": "uint256",
          "name": "_DataBatchId",
          "type": "uint256"
        }
      ],
      "name": "commitPeriodActive",
      "outputs": [
        {
          "internalType": "bool",
          "name": "active",
          "type": "bool"
        }
      ],
      "stateMutability": "view",
      "type": "function"
    },
    {
      "inputs": [
        {
          "internalType": "uint256",
          "name": "_DataId",
          "type": "uint256"
        }
      ],
      "name": "deleteData",
      "outputs": [],
      "stateMutability": "nonpayable",
      "type": "function"
    },
    {
      "inputs": [
        {
          "internalType": "uint256",
          "name": "_BatchId",
          "type": "uint256"
        }
      ],
      "name": "deleteDataBatch",
      "outputs": [],
      "stateMutability": "nonpayable",
      "type": "function"
    },
    {
      "inputs": [
        {
          "internalType": "uint256",
          "name": "_BatchId",
          "type": "uint256"
        }
      ],
      "name": "deleteMapping",
      "outputs": [],
      "stateMutability": "nonpayable",
      "type": "function"
    },
    {
      "inputs": [
        {
          "internalType": "address",
          "name": "_voter",
          "type": "address"
        },
        {
          "internalType": "uint256",
          "name": "_DataBatchId",
          "type": "uint256"
        }
      ],
      "name": "didCommit",
      "outputs": [
        {
          "internalType": "bool",
          "name": "committed",
          "type": "bool"
        }
      ],
      "stateMutability": "view",
      "type": "function"
    },
    {
      "inputs": [
        {
          "internalType": "address",
          "name": "_voter",
          "type": "address"
        },
        {
          "internalType": "uint256",
          "name": "_DataBatchId",
          "type": "uint256"
        }
      ],
      "name": "didReveal",
      "outputs": [
        {
          "internalType": "bool",
          "name": "revealed",
          "type": "bool"
        }
      ],
      "stateMutability": "view",
      "type": "function"
    },
    {
      "inputs": [
        {
          "internalType": "uint256",
          "name": "_k",
          "type": "uint256"
        },
        {
          "internalType": "uint256",
          "name": "N_range",
          "type": "uint256"
        }
      ],
      "name": "generateIntegers",
      "outputs": [
        {
          "internalType": "uint256[]",
          "name": "",
          "type": "uint256[]"
        }
      ],
      "stateMutability": "view",
      "type": "function"
    },
    {
      "inputs": [],
      "name": "getActiveWorkersCount",
      "outputs": [
        {
          "internalType": "uint256",
          "name": "numWorkers",
          "type": "uint256"
        }
      ],
      "stateMutability": "view",
      "type": "function"
    },
    {
      "inputs": [],
      "name": "getBlockTimestamp",
      "outputs": [
        {
          "internalType": "uint256",
          "name": "blocktimestamp",
          "type": "uint256"
        }
      ],
      "stateMutability": "view",
      "type": "function"
    },
    {
      "inputs": [
        {
          "internalType": "address",
          "name": "_voter",
          "type": "address"
        },
        {
          "internalType": "uint256",
          "name": "_DataBatchId",
          "type": "uint256"
        }
      ],
      "name": "getCommitHash",
      "outputs": [
        {
          "internalType": "bytes32",
          "name": "commitHash",
          "type": "bytes32"
        }
      ],
      "stateMutability": "view",
      "type": "function"
    },
    {
      "inputs": [],
      "name": "getCurrentWorkEpoch",
      "outputs": [
        {
          "internalType": "uint256",
          "name": "WorkEpoch",
          "type": "uint256"
        }
      ],
      "stateMutability": "view",
      "type": "function"
    },
    {
      "inputs": [
        {
          "internalType": "string",
          "name": "_hash",
          "type": "string"
        },
        {
          "internalType": "uint256",
          "name": "_salt",
          "type": "uint256"
        }
      ],
      "name": "getEncryptedStringHash",
      "outputs": [
        {
          "internalType": "bytes32",
          "name": "keccak256hash",
          "type": "bytes32"
        }
      ],
      "stateMutability": "pure",
      "type": "function"
    },
    {
      "inputs": [
        {
          "internalType": "uint256",
          "name": "_voteOption",
          "type": "uint256"
        },
        {
          "internalType": "uint256",
          "name": "_salt",
          "type": "uint256"
        }
      ],
      "name": "getEncryptedVoteHash",
      "outputs": [
        {
          "internalType": "bytes32",
          "name": "keccak256hash",
          "type": "bytes32"
        }
      ],
      "stateMutability": "pure",
      "type": "function"
    },
    {
      "inputs": [
        {
          "internalType": "uint256",
          "name": "a",
          "type": "uint256"
        },
        {
          "internalType": "uint256",
          "name": "b",
          "type": "uint256"
        }
      ],
      "name": "getHash",
      "outputs": [
        {
          "internalType": "bytes32",
          "name": "keccak256hash",
          "type": "bytes32"
        }
      ],
      "stateMutability": "pure",
      "type": "function"
    },
    {
      "inputs": [
        {
          "internalType": "uint256",
          "name": "_DataBatchId",
          "type": "uint256"
        }
      ],
      "name": "getIPFShashesForBatch",
      "outputs": [
        {
          "internalType": "string[]",
          "name": "",
          "type": "string[]"
        }
      ],
      "stateMutability": "view",
      "type": "function"
    },
    {
      "inputs": [
        {
          "internalType": "address",
          "name": "_voter",
          "type": "address"
        },
        {
          "internalType": "uint256",
          "name": "_numTokens",
          "type": "uint256"
        },
        {
          "internalType": "uint256",
          "name": "_DataBatchId",
          "type": "uint256"
        }
      ],
      "name": "getInsertPointForNumTokens",
      "outputs": [
        {
          "internalType": "uint256",
          "name": "prevNode",
          "type": "uint256"
        }
      ],
      "stateMutability": "view",
      "type": "function"
    },
    {
      "inputs": [],
      "name": "getLastBatchId",
      "outputs": [
        {
          "internalType": "uint256",
          "name": "LastBatchId",
          "type": "uint256"
        }
      ],
      "stateMutability": "view",
      "type": "function"
    },
    {
      "inputs": [],
      "name": "getLastCheckedBatchId",
      "outputs": [
        {
          "internalType": "uint256",
          "name": "LastCheckedBatchId",
          "type": "uint256"
        }
      ],
      "stateMutability": "view",
      "type": "function"
    },
    {
      "inputs": [],
      "name": "getLastDataId",
      "outputs": [
        {
          "internalType": "uint256",
          "name": "DataId",
          "type": "uint256"
        }
      ],
      "stateMutability": "view",
      "type": "function"
    },
    {
      "inputs": [
        {
          "internalType": "address",
          "name": "_voter",
          "type": "address"
        }
      ],
      "name": "getLastNode",
      "outputs": [
        {
          "internalType": "uint256",
          "name": "DataID",
          "type": "uint256"
        }
      ],
      "stateMutability": "view",
      "type": "function"
    },
    {
      "inputs": [
        {
          "internalType": "address",
          "name": "_voter",
          "type": "address"
        }
      ],
      "name": "getLockedTokens",
      "outputs": [
        {
          "internalType": "uint256",
          "name": "numTokens",
          "type": "uint256"
        }
      ],
      "stateMutability": "view",
      "type": "function"
    },
    {
      "inputs": [
        {
          "internalType": "address",
          "name": "_voter",
          "type": "address"
        },
        {
          "internalType": "uint256",
          "name": "_DataBatchId",
          "type": "uint256"
        },
        {
          "internalType": "uint256",
          "name": "_salt",
          "type": "uint256"
        }
      ],
      "name": "getNumPassingTokens",
      "outputs": [
        {
          "internalType": "uint256",
          "name": "correctFormatChecks",
          "type": "uint256"
        }
      ],
      "stateMutability": "view",
      "type": "function"
    },
    {
      "inputs": [
        {
          "internalType": "address",
          "name": "_voter",
          "type": "address"
        },
        {
          "internalType": "uint256",
          "name": "_DataBatchId",
          "type": "uint256"
        }
      ],
      "name": "getNumTokens",
      "outputs": [
        {
          "internalType": "uint256",
          "name": "numTokens",
          "type": "uint256"
        }
      ],
      "stateMutability": "view",
      "type": "function"
    },
    {
      "inputs": [],
      "name": "getRandom",
      "outputs": [
        {
          "internalType": "uint256",
          "name": "",
          "type": "uint256"
        }
      ],
      "stateMutability": "view",
      "type": "function"
    },
    {
      "inputs": [],
      "name": "getSeed",
      "outputs": [
        {
          "internalType": "bytes32",
          "name": "addr",
          "type": "bytes32"
        }
      ],
      "stateMutability": "view",
      "type": "function"
    },
    {
      "inputs": [
        {
          "internalType": "uint256",
          "name": "_DataBatchId",
          "type": "uint256"
        }
      ],
      "name": "getTotalNumberOfFormatChecks",
      "outputs": [
        {
          "internalType": "uint256",
          "name": "vc",
          "type": "uint256"
        }
      ],
      "stateMutability": "view",
      "type": "function"
    },
    {
      "inputs": [
        {
          "internalType": "uint256",
          "name": "_DataBatchId",
          "type": "uint256"
        }
      ],
      "name": "getTotalNumberOfTokensForWinningOption",
      "outputs": [
        {
          "internalType": "uint256",
          "name": "numTokens",
          "type": "uint256"
        }
      ],
      "stateMutability": "view",
      "type": "function"
    },
    {
      "inputs": [],
      "name": "getTxCounter",
      "outputs": [
        {
          "internalType": "uint256",
          "name": "Counter",
          "type": "uint256"
        }
      ],
      "stateMutability": "view",
      "type": "function"
    },
    {
      "inputs": [
        {
          "internalType": "uint256",
          "name": "_terminationDate",
          "type": "uint256"
        }
      ],
      "name": "isExpired",
      "outputs": [
        {
          "internalType": "bool",
          "name": "expired",
          "type": "bool"
        }
      ],
      "stateMutability": "view",
      "type": "function"
    },
    {
      "inputs": [
        {
          "internalType": "uint256",
          "name": "_DataBatchId",
          "type": "uint256"
        }
      ],
      "name": "isPassed",
      "outputs": [
        {
          "internalType": "bool",
          "name": "passed",
          "type": "bool"
        }
      ],
      "stateMutability": "view",
      "type": "function"
    },
    {
      "inputs": [
        {
          "internalType": "address",
          "name": "_worker",
          "type": "address"
        }
      ],
      "name": "isWorkerRegistered",
      "outputs": [
        {
          "internalType": "bool",
          "name": "passed",
          "type": "bool"
        }
      ],
      "stateMutability": "view",
      "type": "function"
    },
    {
      "inputs": [],
      "name": "owner",
      "outputs": [
        {
          "internalType": "address",
          "name": "",
          "type": "address"
        }
      ],
      "stateMutability": "view",
      "type": "function"
    },
    {
      "inputs": [
        {
          "internalType": "uint256",
          "name": "k",
          "type": "uint256"
        },
        {
          "internalType": "uint256",
          "name": "N",
          "type": "uint256"
        }
      ],
      "name": "random_selection",
      "outputs": [
        {
          "internalType": "uint256[]",
          "name": "",
          "type": "uint256[]"
        }
      ],
      "stateMutability": "view",
      "type": "function"
    },
    {
      "inputs": [],
      "name": "renounceOwnership",
      "outputs": [],
      "stateMutability": "nonpayable",
      "type": "function"
    },
    {
      "inputs": [
        {
          "internalType": "uint256",
          "name": "_numTokens",
          "type": "uint256"
        }
      ],
      "name": "requestVotingRights",
      "outputs": [],
      "stateMutability": "nonpayable",
      "type": "function"
    },
    {
      "inputs": [
        {
          "internalType": "uint256",
          "name": "_DataBatchId",
          "type": "uint256"
        }
      ],
      "name": "rescueTokens",
      "outputs": [],
      "stateMutability": "nonpayable",
      "type": "function"
    },
    {
      "inputs": [
        {
          "internalType": "uint256[]",
          "name": "_DataBatchIDs",
          "type": "uint256[]"
        }
      ],
      "name": "rescueTokensInMultipleDatas",
      "outputs": [],
      "stateMutability": "nonpayable",
      "type": "function"
    },
    {
      "inputs": [
        {
          "internalType": "uint256",
          "name": "_DataBatchId",
          "type": "uint256"
        },
        {
          "internalType": "uint256",
          "name": "_voteOption",
          "type": "uint256"
        },
        {
          "internalType": "uint256",
          "name": "_salt",
          "type": "uint256"
        }
      ],
      "name": "revealFormatCheck",
      "outputs": [],
      "stateMutability": "nonpayable",
      "type": "function"
    },
    {
      "inputs": [
        {
          "internalType": "uint256",
          "name": "_DataBatchId",
          "type": "uint256"
        }
      ],
      "name": "revealPeriodActive",
      "outputs": [
        {
          "internalType": "bool",
          "name": "active",
          "type": "bool"
        }
      ],
      "stateMutability": "view",
      "type": "function"
    },
    {
      "inputs": [],
      "name": "sFuel",
      "outputs": [
        {
          "internalType": "address",
          "name": "",
          "type": "address"
        }
      ],
      "stateMutability": "view",
      "type": "function"
    },
    {
      "inputs": [
        {
          "internalType": "uint256",
          "name": "N",
          "type": "uint256"
        }
      ],
      "name": "shuffle_array",
      "outputs": [
        {
          "internalType": "uint256[]",
          "name": "",
          "type": "uint256[]"
        }
      ],
      "stateMutability": "view",
      "type": "function"
    },
    {
      "inputs": [],
      "name": "token",
      "outputs": [
        {
          "internalType": "contract IERC20",
          "name": "",
          "type": "address"
        }
      ],
      "stateMutability": "view",
      "type": "function"
    },
    {
      "inputs": [
        {
          "internalType": "address",
          "name": "newOwner",
          "type": "address"
        }
      ],
      "name": "transferOwnership",
      "outputs": [],
      "stateMutability": "nonpayable",
      "type": "function"
    },
    {
      "inputs": [
        {
          "internalType": "address",
          "name": "addr",
          "type": "address"
        }
      ],
      "name": "updateAddressManager",
      "outputs": [],
      "stateMutability": "nonpayable",
      "type": "function"
    },
    {
      "inputs": [
        {
          "internalType": "address",
          "name": "addr",
          "type": "address"
        }
      ],
      "name": "updateArchiveManager",
      "outputs": [],
      "stateMutability": "nonpayable",
      "type": "function"
    },
    {
      "inputs": [
        {
          "internalType": "uint256",
          "name": "COMMIT_ROUND_DURATION_",
          "type": "uint256"
        }
      ],
      "name": "updateCommitRoundDuration",
      "outputs": [],
      "stateMutability": "nonpayable",
      "type": "function"
    },
    {
      "inputs": [
        {
          "internalType": "uint256",
          "name": "CONSENSUS_WORKER_SIZE_",
          "type": "uint256"
        }
      ],
      "name": "updateConsensusSize",
      "outputs": [],
      "stateMutability": "nonpayable",
      "type": "function"
    },
    {
      "inputs": [
        {
          "internalType": "uint256",
          "name": "size",
          "type": "uint256"
        }
      ],
      "name": "updateDataBachSize",
      "outputs": [],
      "stateMutability": "nonpayable",
      "type": "function"
    },
    {
      "inputs": [
        {
          "internalType": "address",
          "name": "addr",
          "type": "address"
        }
      ],
      "name": "updateRepManager",
      "outputs": [],
      "stateMutability": "nonpayable",
      "type": "function"
    },
    {
      "inputs": [
        {
          "internalType": "uint256",
          "name": "REVEAL_ROUND_DURATION_",
          "type": "uint256"
        }
      ],
      "name": "updateRevealRoundDuration",
      "outputs": [],
      "stateMutability": "nonpayable",
      "type": "function"
    },
    {
      "inputs": [
        {
          "internalType": "address",
          "name": "addr",
          "type": "address"
        }
      ],
      "name": "updateRewardManager",
      "outputs": [],
      "stateMutability": "nonpayable",
      "type": "function"
    },
    {
      "inputs": [
        {
          "internalType": "address",
          "name": "addr",
          "type": "address"
        }
      ],
      "name": "updateSpotManager",
      "outputs": [],
      "stateMutability": "nonpayable",
      "type": "function"
    },
    {
      "inputs": [
        {
          "internalType": "address",
          "name": "addr",
          "type": "address"
        }
      ],
      "name": "updateStakeManager",
      "outputs": [],
      "stateMutability": "nonpayable",
      "type": "function"
    },
    {
      "inputs": [
        {
          "internalType": "uint256",
          "name": "_prevID",
          "type": "uint256"
        },
        {
          "internalType": "uint256",
          "name": "_nextID",
          "type": "uint256"
        },
        {
          "internalType": "address",
          "name": "_voter",
          "type": "address"
        },
        {
          "internalType": "uint256",
          "name": "_numTokens",
          "type": "uint256"
        }
      ],
      "name": "validPosition",
      "outputs": [
        {
          "internalType": "bool",
          "name": "APPROVED",
          "type": "bool"
        }
      ],
      "stateMutability": "view",
      "type": "function"
    },
    {
      "inputs": [
        {
          "internalType": "uint256",
          "name": "_numTokens",
          "type": "uint256"
        }
      ],
      "name": "withdrawVotingRights",
      "outputs": [],
      "stateMutability": "nonpayable",
      "type": "function"
    }
  ],
  "bytecode": "0x608060405260018080556003600255670de0b6b3a7640000600681905560075568056bc75e2d63100000600855603c600955600060118190556012819055601a80546001600160a01b0319167314f52f3fc010ab6ca81568d4a6794d5eab3c6155179055601b829055601c829055601d91909155601f553480156200008357600080fd5b506040516200710a3803806200710a833981016040819052620000a69162000151565b620000ba620000b4620000fd565b62000101565b602080546001600160a01b0319166001600160a01b0392909216919091179055600060125568015af1d78b58c400006003556101c2600455607860055562000181565b3390565b600080546001600160a01b038381166001600160a01b0319831681178455604051919092169283917f8be0079c531659141344cd1fd0a4f28419497f9722a3daafe3b4186f6b6457e09190a35050565b60006020828403121562000163578081fd5b81516001600160a01b03811681146200017a578182fd5b9392505050565b616f7980620001916000396000f3fe608060405234801561001057600080fd5b50600436106106235760003560e01c80639760356011610336578063d822ce01116101c3578063e7b1d43c1161010f578063f5ae7c7d116100ad578063f721de4a11610087578063f721de4a14610c94578063f80a23fd14610ca7578063fc0c546a14610caf578063fca4956314610cb757610623565b8063f5ae7c7d14610c71578063f60e738114610c79578063f716596d14610c8c57610623565b8063ef4fcdad116100e9578063ef4fcdad14610c3b578063f2d9e74d14610c43578063f2fde38b14610c4b578063f4cdfcc414610c5e57610623565b8063e7b1d43c14610bf5578063e8e9b6f914610c08578063ed8becfa14610c1b57610623565b8063db687c171161017c578063df05368e11610156578063df05368e14610bb4578063e44c974b14610bc7578063e7805f9e14610bda578063e798a7da14610be257610623565b8063db687c1714610b86578063dd15f09514610b99578063dd61868214610ba157610623565b8063d822ce0114610b1f578063d8645d3714610b32578063d8b7567414610b3a578063d901402b14610b4d578063d9548e5314610b60578063d9966ae814610b7357610623565b8063b1a2e0be11610282578063c4e4f82a1161023b578063ced5ca6f11610215578063ced5ca6f14610ade578063d138209214610af1578063d420ec0b14610b04578063d6b0206c14610b1757610623565b8063c4e4f82a14610abb578063c9b03a7214610ace578063cb1c2b5c14610ad657610623565b8063b1a2e0be14610a3c578063b1d7ea9814610a4f578063b43bd06914610a6f578063b7e4eba914610a82578063b8f011b314610a95578063c47c4bc214610aa857610623565b8063a25236fe116102ef578063a9057790116102c9578063a905779014610a06578063aa7ca46414610a19578063aacc5a1714610a2c578063ab43e78d14610a3457610623565b8063a25236fe146109d8578063a4439dc5146109eb578063a511dba0146109fe57610623565b806397603560146109715780639acb75c1146109845780639b07dbb91461098c5780639fc9c52f1461099f578063a0e71c15146109b2578063a1103f37146109c557610623565b8063515535e8116104b4578063796b89b911610400578063821aa8c0116103b95780638c89d027116103935780638c89d0271461092e5780638da5cb5b146109565780638df0296e1461095e57806395f82a361461067e57610623565b8063821aa8c01461090b57806383cc6ef21461091e5780638473850b1461092657610623565b8063796b89b9146108a15780637a34da67146108a95780637f9510a2146108b15780637f97e836146108b95780637fabe35b146108cc578063819b0293146108f857610623565b80636a192ff51161046d578063715018a611610447578063715018a61461087657806371880b1b1461087e57806376e8ea4f146108915780637827e5491461089957610623565b80636a192ff51461082d5780636b1485a3146108505780636b2d95d41461086357610623565b8063515535e8146107e757806351912f29146107ef57806358002158146107f75780635fd879091461080a5780636371d81f14610812578063667bf0f81461082557610623565b80633538af8211610573578063441c77c01161052c57806348257dc91161050657806348257dc91461079b57806349403183146107ae5780634d4b7d9b146107c15780634fe8b4c1146107d457610623565b8063441c77c01461076d57806346a7aea61461078057806347fe2d201461079357610623565b80633538af821461071c578063353f44d01461072f578063354dae401461074257806339e7357c1461074a5780633ad2131f14610752578063427fa1d21461075a57610623565b8063226ed300116105e05780632c052031116105ba5780632c052031146106ce5780632d917c68146106e15780632f469fd1146106f4578063313066ee1461071457610623565b8063226ed30014610691578063275c2590146106b157806329a47bc7146106b957610623565b806304dbcda714610628578063050eb2eb14610646578063053e71a61461065b5780630e6661a71461066e5780630e670feb146106765780631b8550441461067e575b600080fd5b610630610cca565b60405161063d9190615e5a565b60405180910390f35b610659610654366004615943565b610cd0565b005b610630610669366004615c87565b610d3a565b610630610da0565b610630610da6565b61063061068c366004615d28565b610dac565b6106a461069f366004615c87565b610de0565b60405161063d9190615fa9565b610659610e22565b6106c1610f31565b60405161063d9190615e8d565b6106306106dc366004615986565b610f40565b6106a46106ef36600461595d565b6110dd565b610707610702366004615cb0565b6110fd565b60405161063d9190615fb4565b6106306111a2565b6106c161072a366004615c87565b6111a8565b61063061073d366004615943565b6111d2565b6106596111e4565b61063061130c565b610630611329565b610630610768366004615943565b61132f565b6106a461077b366004615c87565b6113cf565b61065961078e366004615943565b611429565b61063061148a565b6106a46107a9366004615c87565b611490565b6106a46107bc366004615c87565b6117e7565b6106a46107cf366004615c87565b611ad8565b6106596107e2366004615c87565b611aed565b610630611b6d565b6106c1611b73565b610659610805366004615c87565b611b82565b610630611bc6565b610659610820366004615c87565b611bcc565b610659611ca5565b61084061083b366004615c87565b61209b565b60405161063d9493929190616029565b61065961085e366004615c87565b61215a565b610630610871366004615943565b612b0a565b610659612b19565b61063061088c366004615c87565b612b64565b610630612ba1565b610630612ba7565b610630612bad565b6106c1612bb1565b610630612bc0565b6106a46108c736600461595d565b612bd7565b6108df6108da366004615c87565b612c2a565b60405161063d9d9c9b9a99989796959493929190616d03565b6106a4610906366004615d49565b612d23565b6106c1610919366004615c87565b612d64565b6106c1612d74565b610630612d83565b61094161093c366004615943565b612d89565b60405161063d99989796959493929190615ea1565b6106c1612e71565b6106c161096c366004615d28565b612e80565b61065961097f366004615c87565b612eb8565b610630613067565b61065961099a366004615cdb565b61306d565b6106596109ad3660046159b8565b6134e9565b6106306109c0366004615c87565b61353b565b6106306109d336600461595d565b61355f565b6106596109e6366004615c87565b613574565b6106a46109f9366004615c87565b613675565b6106306136b7565b6106a4610a14366004615ad3565b6136bd565b6106a4610a2736600461595d565b613723565b610630613776565b6106c161382b565b6106a4610a4a366004615943565b61383a565b610a62610a5d366004615d28565b613988565b60405161063d9190615f65565b610630610a7d366004615986565b613b8f565b610659610a90366004615c87565b613c7b565b610a62610aa3366004615d28565b613cbf565b610659610ab6366004615943565b613e27565b610630610ac9366004615c87565b613e88565b610630613ec5565b610630613ecb565b610659610aec366004615c87565b613ed1565b610630610aff36600461595d565b613f3f565b6106a4610b1236600461595d565b613fd4565b610630613ff4565b6106c1610b2d36600461595d565b613ffa565b6106c1614016565b610630610b48366004615cb0565b614025565b610630610b5b36600461595d565b614042565b6106a4610b6e366004615c87565b614087565b610659610b81366004615c87565b61408c565b610659610b94366004615943565b6140d0565b6106c1614131565b610659610baf366004615943565b614140565b610659610bc2366004615943565b6141a1565b610a62610bd5366004615c87565b614202565b61063061427b565b6106a4610bf0366004615943565b614281565b610659610c03366004615c87565b6142a2565b610659610c16366004615c87565b6143de565b610c2e610c29366004615c87565b614422565b60405161063d9190615f05565b610630614867565b61063061486d565b610659610c59366004615943565b614873565b610630610c6c366004615a61565b6148e1565b610630614917565b610659610c87366004615d85565b61491d565b610659614bf8565b6106a4610ca2366004615c87565b614dd2565b6106a4614dda565b6106c1614df3565b610630610cc5366004615943565b614e02565b60065481565b610cd8614f28565b6001600160a01b0316610ce9612e71565b6001600160a01b031614610d185760405162461bcd60e51b8152600401610d0f90616784565b60405180910390fd5b602380546001600160a01b0319166001600160a01b0392909216919091179055565b6000610d4582610de0565b610d615760405162461bcd60e51b8152600401610d0f906164ff565b610d6a826117e7565b15610d8757506000818152601e6020526040902060070154610d9b565b506000818152601e60205260409020600801545b919050565b60125481565b60075481565b60008282604051602001610dc1929190615e7f565b6040516020818303038152906040528051906020012090505b92915050565b6000610deb82614dd2565b610e075760405162461bcd60e51b8152600401610d0f90616bc9565b6000828152601e6020526040902060060154610dda90614087565b610e2a614f2c565b336000908152601360205260409020600781015460ff161515600114610e625760405162461bcd60e51b8152600401610d0f90616408565b610e6b336150b4565b15610e885760405162461bcd60e51b8152600401610d0f9061633d565b6000610e92612bad565b9050610e9d33615124565b610ea63361527b565b8154336001600160a01b031991821681178455600180850180549093169091179091556005830182905560078301805460ff19169055601f8054600090610eee908490616e05565b909155505060405133907f9dadcedba048e92b943ea1c5861cee1df63a566d7f795869c004780c1c698e2b90610f25908490615e5a565b60405180910390a25050565b6022546001600160a01b031681565b600080610f4c8561132f565b90506000610f5a8683613f3f565b90505b81156110d257610f6d8683613f3f565b905084811161102a5783821415611022576001600160a01b0386166000908152600f602052604090819020905163215e94cf60e01b815273__$6ffa5bf1f4fa681f07e1987a80577d5f4e$__9163215e94cf91610fcf91908690600401615e7f565b60206040518083038186803b158015610fe757600080fd5b505af4158015610ffb573d6000803e3d6000fd5b505050506040513d601f19601f8201168201806040525081019061101f9190615c9f565b91505b5090506110d6565b6001600160a01b0386166000908152600f602052604090819020905163215e94cf60e01b815273__$6ffa5bf1f4fa681f07e1987a80577d5f4e$__9163215e94cf9161107b91908690600401615e7f565b60206040518083038186803b15801561109357600080fd5b505af41580156110a7573d6000803e3d6000fd5b505050506040513d601f19601f820116820180604052508101906110cb9190615c9f565b9150610f5d565b5090505b9392505050565b600a60209081526000928352604080842090915290825290205460ff1681565b600d6020908152600092835260408084209091529082529020805461112190616e97565b80601f016020809104026020016040519081016040528092919081815260200182805461114d90616e97565b801561119a5780601f1061116f5761010080835404028352916020019161119a565b820191906000526020600020905b81548152906001019060200180831161117d57829003601f168201915b505050505081565b60115481565b601781815481106111b857600080fd5b6000918252602090912001546001600160a01b0316905081565b60156020526000908152604090205481565b6111ec614f2c565b601c546000908152601e602052604081206004015462010000900460ff161515600114801561123e5750611221601c54610de0565b8061123e5750601c546000908152601e6020526040902060030154155b156112635761124e601c5461215a565b601c5461125c9060016153ab565b601c555060015b601d546000908152601e602052604090206004015462010000900460ff161515600114801590611294575060175415155b80156112b45750601d546000908152601e602052604090206004015460ff165b156112c5576112c1611ca5565b5060015b80156112dd576011546112d99060016153ab565b6011555b6011546040517f94d48a7342690f1233e3f4db70efa37c4f1f25f4d0397c353f3f15aecdeca5f490600090a250565b60405160009080602081848060185afa61132257fe5b5051919050565b60095481565b6001600160a01b0381166000908152600f6020526040808220905163215e94cf60e01b815273__$6ffa5bf1f4fa681f07e1987a80577d5f4e$__9163215e94cf9161137f91908590600401615e7f565b60206040518083038186803b15801561139757600080fd5b505af41580156113ab573d6000803e3d6000fd5b505050506040513d601f19601f82011682018060405250810190610dda9190615c9f565b60006113da82614dd2565b6113f65760405162461bcd60e51b8152600401610d0f90616942565b6000828152601e602052604090206006015461141190614087565b158015610dda575061142282613675565b1592915050565b611431614f28565b6001600160a01b0316611442612e71565b6001600160a01b0316146114685760405162461bcd60e51b8152600401610d0f90616784565b602680546001600160a01b0319166001600160a01b0392909216919091179055565b601c5490565b6025546000906001600160a01b0316158015906114bc57506000828152600e602052604090205460ff16155b156117c757602554604051637b90ef2560e11b81526001600160a01b039091169063f721de4a906114f1908590600401615e5a565b602060405180830381600087803b15801561150b57600080fd5b505af115801561151f573d6000803e3d6000fd5b505050506040513d601f19601f820116820180604052508101906115439190615a47565b156117c757602554604051631b308bf760e31b81526000916001600160a01b03169063d9845fb890611579908690600401615e5a565b600060405180830381600087803b15801561159357600080fd5b505af11580156115a7573d6000803e3d6000fd5b505050506040513d6000823e601f3d908101601f191682016040526115cf9190810190615b33565b61018081015190915060018160038111156115fa57634e487b7160e01b600052602160045260246000fd5b14156117ab5760408051608081018252610160840151815233602080830191909152428284015260006060830181905260125481526014825292909220815180519293919261164c9284920190615693565b506020820151600182810180546001600160a01b0319166001600160a01b0390931692909217909155604083015160028301556060830151600380840180549293909260ff19169184908111156116b357634e487b7160e01b600052602160045260246000fd5b021790555050601b546000908152601e60205260409020600154600282015491925011156116fe5760018160020160008282546116f09190616e05565b909155505060125460018201555b60015481600201541061175057600481018054600160ff19909116811761ff001916909155601b8054600090611735908490616e05565b9091555050601254601b546000908152601e60205260409020555b6117586111e4565b601254611766906001616e05565b60128190556101608401516040517fe72ee44ad0ed1dfc338f7eec797c944eb218773c1edbb4bb653dd9c1e2a62304916117a1913390615fff565b60405180910390a2505b50506000828152600e60205260409020805460ff191660011790555b6001601f60008282546117da9190616e05565b9091555060009392505050565b6000818152601e6020908152604080832081516101e0810183528154815260018201549381019390935260028101549183019190915260038101546060830152600481015460ff808216151560808501526101008083048216151560a08601526201000090920416151560c0840152600582015460e0840152600682015490830152600781015461012083015260088101546101408301526009810180548493929161016084019161189890616e97565b80601f01602080910402602001604051908101604052809291908181526020018280546118c490616e97565b80156119115780601f106118e657610100808354040283529160200191611911565b820191906000526020600020905b8154815290600101906020018083116118f457829003601f168201915b5050509183525050600a82015460209091019060ff16600381111561194657634e487b7160e01b600052602160045260246000fd5b600381111561196557634e487b7160e01b600052602160045260246000fd5b8152602001600b8201805480602002602001604051908101604052809291908181526020016000905b82821015611a3a5783829060005260206000200180546119ad90616e97565b80601f01602080910402602001604051908101604052809291908181526020018280546119d990616e97565b8015611a265780601f106119fb57610100808354040283529160200191611a26565b820191906000526020600020905b815481529060010190602001808311611a0957829003601f168201915b50505050508152602001906001019061198e565b505050508152602001600c8201805480602002602001604051908101604052809291908181526020018280548015611a9157602002820191906000526020600020905b815481526020019060010190808311611a7d575b5050505050815250509050806101400151816101200151611ab29190616e05565b600954611abf9190616e31565b610120820151611ad0906064616e31565b119392505050565b600e6020526000908152604090205460ff1681565b611af5614f28565b6001600160a01b0316611b06612e71565b6001600160a01b031614611b2c5760405162461bcd60e51b8152600401610d0f90616784565b600081815260146020526040812090611b458282615717565b506001810180546001600160a01b031916905560006002820155600301805460ff1916905550565b601b5490565b6023546001600160a01b031681565b611b8a614f28565b6001600160a01b0316611b9b612e71565b6001600160a01b031614611bc15760405162461bcd60e51b8152600401610d0f90616784565b600555565b60055481565b611bd4614f28565b6001600160a01b0316611be5612e71565b6001600160a01b031614611c0b5760405162461bcd60e51b8152600401610d0f90616784565b611c1481614dd2565b15611ca2576000818152601e6020526040812081815560018101829055600281018290556003810182905560048101805462ffffff191690556005810182905560068101829055600781018290556008810182905590611c776009830182615717565b600a8201805460ff19169055611c91600b83016000615753565b611c9f600c83016000615771565b50505b50565b601d546000908152601e602052604090206004015460ff16611cd95760405162461bcd60e51b8152600401610d0f9061685f565b601d546000908152601e602052604090206004015462010000900460ff1615611d145760405162461bcd60e51b8152600401610d0f906166b9565b6000611d31611d2a6017805490506002546153b7565b60016153cd565b601754601d546000908152601e602052604081206003018390556004549293509091611d5e9042906153ab565b90506000611d77600554836153ab90919063ffffffff16565b601d80546000908152601e6020526040808220600501869055825482528082206006018490559154815220600401805462ff0000191662010000179055905060018410801590611dc8575060018310155b611de45760405162461bcd60e51b8152600401610d0f906162f3565b6000611df08585613cbf565b9050600081516001600160401b03811115611e1b57634e487b7160e01b600052604160045260246000fd5b604051908082528060200260200182016040528015611e44578160200160208202803683370190505b50905060005b8251811015611f03576017838281518110611e7557634e487b7160e01b600052603260045260246000fd5b602002602001015181548110611e9b57634e487b7160e01b600052603260045260246000fd5b9060005260206000200160009054906101000a90046001600160a01b0316828281518110611ed957634e487b7160e01b600052603260045260246000fd5b6001600160a01b039092166020928302919091019091015280611efb81616ed2565b915050611e4a565b5060005b8251811015612066576000828281518110611f3257634e487b7160e01b600052603260045260246000fd5b60200260200101519050600060136000836001600160a01b03166001600160a01b031681526020019081526020016000209050611f6e82615124565b611f77826150b4565b611fc757601880546001810182556000919091527fb13d2d76d1f4b7be834882e410b3e3a8afaf69f83600ae24db354391d2378d2e0180546001600160a01b0319166001600160a01b0384161790555b601d805460009081526019602090815260408083208054600181018255908452919092200180546001600160a01b0319166001600160a01b0386161790558154600284015560038301805460ff19169055905490517fe4ee2dfabe57cee15e3f558890b20455f54c1fa0718e5276faad70a6500e6b8c90612049908590615e8d565b60405180910390a25050808061205e90616ed2565b915050611f07565b50601d546120759060016153ab565b601d819055506001601f600082825461208e9190616e05565b9091555050505050505050565b6014602052600090815260409020805481906120b690616e97565b80601f01602080910402602001604051908101604052809291908181526020018280546120e290616e97565b801561212f5780601f106121045761010080835404028352916020019161212f565b820191906000526020600020905b81548152906001019060200180831161211257829003601f168201915b505050506001830154600284015460039094015492936001600160a01b039091169290915060ff1684565b61216381610de0565b8061217d57506000818152601e6020526040902060030154155b6121995760405162461bcd60e51b8152600401610d0f906167b9565b6000818152601e6020526040902060040154610100900460ff16156121d05760405162461bcd60e51b8152600401610d0f906169f5565b6000818152601e6020526040902060040154610100900460ff16611ca25760006121f9826117e7565b60008381526019602090815260408083208054825181850281018501909352808352949550929390929183018282801561225c57602002820191906000526020600020905b81546001600160a01b0316815260019091019060200180831161223e575b50505050509050600081516001600160401b0381111561228c57634e487b7160e01b600052604160045260246000fd5b6040519080825280602002602001820160405280156122bf57816020015b60608152602001906001900390816122aa5790505b50905060005b82518110156126695760008382815181106122f057634e487b7160e01b600052603260045260246000fd5b6020908102919091018101516000888152600c835260408082206001600160a01b03841680845290855281832054600b86528284208c8552865282842054600d875283852092855291909552908220805493955060ff9091169261235390616e97565b80601f016020809104026020016040519081016040528092919081815260200182805461237f90616e97565b80156123cc5780601f106123a1576101008083540402835291602001916123cc565b820191906000526020600020905b8154815290600101906020018083116123af57829003601f168201915b50505050509050808686815181106123f457634e487b7160e01b600052603260045260246000fd5b60200260200101819052506124088461527b565b6001600160a01b03841660009081526013602052604090208215612626576001600160a01b0385166000908152601360205260409020600301805460ff1916600190811790915589151514801561245f5750836001145b80612474575088158015612474575083600114155b156125bb57602254600854604051630db6cc8560e11b81526001600160a01b0390921691631b6d990a916124ac918990600401616ccf565b602060405180830381600087803b1580156124c657600080fd5b505af11580156124da573d6000803e3d6000fd5b505050506040513d601f19601f820116820180604052508101906124fe9190615a47565b61251a5760405162461bcd60e51b8152600401610d0f90616596565b602354600654604051633832942560e21b81526001600160a01b039092169163e0ca50949161254d918990600401616cb8565b602060405180830381600087803b15801561256757600080fd5b505af115801561257b573d6000803e3d6000fd5b505050506040513d601f19601f8201168201806040525081019061259f9190615a47565b6125bb5760405162461bcd60e51b8152600401610d0f906163b9565b600781015460ff1615612621576125d1856153dd565b61262157601780546001810182556000919091527fc624b66cc0138b8fabc209247f72d758e1cf3343756d543badbf24212bed8c150180546001600160a01b0319166001600160a01b0387161790555b612651565b600781015460ff16156126515760078101805460ff1916905561264885615124565b6126518561527b565b5050505050808061266190616ed2565b9150506122c5565b50600061268960648451603261267f9190616e31565b611d2a9190616e1d565b90506000826000815181106126ae57634e487b7160e01b600052603260045260246000fd5b6020026020010151905060005b83518110156127a4576000805b8551811015612759576127298684815181106126f457634e487b7160e01b600052603260045260246000fd5b602002602001015187838151811061271c57634e487b7160e01b600052603260045260246000fd5b60200260200101516136bd565b1561274757612739600183616e05565b915084821061274757612759565b8061275181616ed2565b9150506126c8565b508381106127915784828151811061278157634e487b7160e01b600052603260045260246000fd5b60200260200101519250506127a4565b508061279c81616ed2565b9150506126bb565b506000868152601e6020908152604090912060048101805461ff00191661010017905582516127db92600990920191840190615693565b508415612a775760225460085460008881526014602052604090819020600101549051630db6cc8560e11b81526001600160a01b0393841693631b6d990a9361282b939092911690600401616ccf565b602060405180830381600087803b15801561284557600080fd5b505af1158015612859573d6000803e3d6000fd5b505050506040513d601f19601f8201168201806040525081019061287d9190615a47565b6128995760405162461bcd60e51b8152600401610d0f90616ad5565b60235460065460008881526014602052604090819020600101549051633832942560e21b81526001600160a01b039384169363e0ca5094936128e2939092911690600401616cb8565b602060405180830381600087803b1580156128fc57600080fd5b505af1158015612910573d6000803e3d6000fd5b505050506040513d601f19601f820116820180604052508101906129349190615a47565b6129505760405162461bcd60e51b8152600401610d0f906169a6565b6000868152601e602052604090819020600a01805460ff1916600117905560265490516348257dc960e01b81526001600160a01b03909116906348257dc99061299d908990600401615e5a565b602060405180830381600087803b1580156129b757600080fd5b505af19250505080156129e7575060408051601f3d908101601f191682019092526129e491810190615a47565b60015b612a58573d808015612a15576040519150601f19603f3d011682016040523d82523d6000602084013e612a1a565b606091505b507f4b87bbd93ba65ede1e2efeca735d9f7a6720bf7d6db0a8355b17dba5b64e578381604051612a4a9190615fb4565b60405180910390a150612a72565b6001601f6000828254612a6b9190616e05565b9091555050505b612a94565b6000868152601e60205260409020600a01805460ff191660021790555b6001601f6000828254612aa79190616e05565b909155505060008681526014602052604090819020600181015491516001600160a01b03909216917fb83f08cf731092d35d6dd4801ac76e3fcc84b1b199915531c9874230d31adeaa91612afa9161606a565b60405180910390a2505050505050565b6000610dda82610aff8461132f565b612b21614f28565b6001600160a01b0316612b32612e71565b6001600160a01b031614612b585760405162461bcd60e51b8152600401610d0f90616784565b612b62600061544d565b565b6000612b6f82614dd2565b612b8b5760405162461bcd60e51b8152600401610d0f90616942565b506000908152601e602052604090206006015490565b60015481565b60085481565b4290565b6024546001600160a01b031681565b601854601754600091612bd291616e05565b905090565b6000612be282614dd2565b612bfe5760405162461bcd60e51b8152600401610d0f90616942565b506001600160a01b03919091166000908152600a60209081526040808320938352929052205460ff1690565b601e60205260009081526040902080546001820154600283015460038401546004850154600586015460068701546007880154600889015460098a018054999a98999798969760ff80881698610100890482169862010000900490911696959493929091612c9790616e97565b80601f0160208091040260200160405190810160405280929190818152602001828054612cc390616e97565b8015612d105780601f10612ce557610100808354040283529160200191612d10565b820191906000526020600020905b815481529060010190602001808311612cf357829003601f168201915b505050600a909301549192505060ff168d565b600080612d308487613f3f565b83101590506000612d418587613f3f565b84111580612d4d575085155b9050818015612d595750805b979650505050505050565b601881815481106111b857600080fd5b6021546001600160a01b031681565b601b5481565b60136020526000908152604090208054600182015460028301546003840154600485015460058601546006870180546001600160a01b03978816989690971696949560ff9094169492939192612dde90616e97565b80601f0160208091040260200160405190810160405280929190818152602001828054612e0a90616e97565b8015612e575780601f10612e2c57610100808354040283529160200191612e57565b820191906000526020600020905b815481529060010190602001808311612e3a57829003601f168201915b505050506007830154600890930154919260ff1691905089565b6000546001600160a01b031690565b60196020528160005260406000208181548110612e9c57600080fd5b6000918252602090912001546001600160a01b03169150829050565b60016000828152601e60205260409020600a015460ff166003811115612eee57634e487b7160e01b600052602160045260246000fd5b14612f0b5760405162461bcd60e51b8152600401610d0f9061614b565b336000908152600f602052604090819020905163162a54af60e31b815273__$6ffa5bf1f4fa681f07e1987a80577d5f4e$__9163b152a57891612f5391908590600401615e7f565b60206040518083038186803b158015612f6b57600080fd5b505af4158015612f7f573d6000803e3d6000fd5b505050506040513d601f19601f82011682018060405250810190612fa39190615a47565b612fbf5760405162461bcd60e51b8152600401610d0f906165e3565b336000908152600f6020526040908190209051634dab476560e01b815273__$6ffa5bf1f4fa681f07e1987a80577d5f4e$__91634dab47659161300791908590600401615e7f565b60006040518083038186803b15801561301f57600080fd5b505af4158015613033573d6000803e3d6000fd5b50506040513392508391507f402507661c8c8cb90e0a796450b8bdd28b6c516f05279c0cd29e84c344e1699a90600090a350565b60115490565b613075614f2c565b61307e83613675565b61309a5760405162461bcd60e51b8152600401610d0f90616382565b826130a433614e02565b146130c15760405162461bcd60e51b8152600401610d0f90616716565b6003543360009081526015602052604090205481111561310357336000908152601560205260408120546130f690839061549d565b905061310181613574565b505b336000908152601560205260409020548111156131325760405162461bcd60e51b8152600401610d0f90616a78565b6000336000908152600f60205260408082209051631b23afef60e21b815273__$6ffa5bf1f4fa681f07e1987a80577d5f4e$__91636c8ebfbc9161317b91908690600401615e7f565b60206040518083038186803b15801561319357600080fd5b505af41580156131a7573d6000803e3d6000fd5b505050506040513d601f19601f820116820180604052508101906131cb9190615c9f565b90508581141561327057336000908152600f6020526040908190209051631b23afef60e21b815273__$6ffa5bf1f4fa681f07e1987a80577d5f4e$__91636c8ebfbc9161321d91908a90600401615e7f565b60206040518083038186803b15801561323557600080fd5b505af4158015613249573d6000803e3d6000fd5b505050506040513d601f19601f8201168201806040525081019061326d9190615c9f565b90505b61327c82823386612d23565b6132985760405162461bcd60e51b8152600401610d0f9061668b565b336000908152600f602052604090819020905163f3a1998360e01b815273__$6ffa5bf1f4fa681f07e1987a80577d5f4e$__9163f3a19983916132e4919086908b908790600401616c9d565b60006040518083038186803b1580156132fc57600080fd5b505af4158015613310573d6000803e3d6000fd5b505050506000613320338861355f565b60408051808201825260098152686e756d546f6b656e7360b81b60208201529051633416d70d60e21b81529192509073__$d865f21674766f31b0d600e4a95b721b57$__9063d05b5c349061338090601090869086908b90600401616bf2565b60006040518083038186803b15801561339857600080fd5b505af41580156133ac573d6000803e3d6000fd5b5050604051633416d70d60e21b815273__$d865f21674766f31b0d600e4a95b721b57$__925063d05b5c3491506133ec9060109086908c90600401616c40565b60006040518083038186803b15801561340457600080fd5b505af4158015613418573d6000803e3d6000fd5b5050506000898152600d602090815260408083203384528252909120885161344593509091890190615693565b5033600090815260136020526040902061345d612bad565b6005820155336000908152600a602090815260408083208c84529091528120805460ff19166001908117909155601f80549192909161349d908490616e05565b909155505060405133908a907f1b5c5140592c554fa4c0cdb5b3d3cd50f87aa84e477afd0b6c93d7702ef9c73c906134d6908a90615e5a565b60405180910390a3505050505050505050565b60005b81518110156135375761352582828151811061351857634e487b7160e01b600052603260045260246000fd5b6020026020010151612eb8565b8061352f81616ed2565b9150506134ec565b5050565b6000818152601e60205260408120600881015460079091015482916110d691616e05565b60008282604051602001610dc1929190615e38565b6021546040516304ada21f60e21b81526001600160a01b03909116906312b6887c906135a69084903390600401616cb8565b602060405180830381600087803b1580156135c057600080fd5b505af11580156135d4573d6000803e3d6000fd5b505050506040513d601f19601f820116820180604052508101906135f89190615a47565b6136145760405162461bcd60e51b8152600401610d0f90616453565b3360009081526015602052604081208054839290613633908490616e05565b909155505060405133907ff7aaf024511d9982df8cd0d437c71c30106e6848cd1ba3d288d7a9c0e276aeda9061366a908490615e5a565b60405180910390a250565b600061368082614dd2565b61369c5760405162461bcd60e51b8152600401610d0f90616942565b6000828152601e602052604090206005015461142290614087565b60125490565b6000816040516020016136d09190615e63565b60405160208183030381529060405280519060200120836040516020016136f79190615e63565b60405160208183030381529060405280519060200120141561371b57506001610dda565b506000610dda565b600061372e82614dd2565b61374a5760405162461bcd60e51b8152600401610d0f90616942565b506001600160a01b03919091166000908152600b60209081526040808320938352929052205460ff1690565b600080424160405160200161378b9190615e1b565b6040516020818303038152906040528051906020012060001c6137ae9190616e1d565b446137b761130c565b6040516020016137c79190615e5a565b60408051601f1981840301815291905280516020909101206137e99042616e05565b6137f39190616e05565b6137fd9190616e05565b60405160200161380d9190615e5a565b60408051601f19818403018152919052805160209091012091505090565b601a546001600160a01b031681565b6001600160a01b038082166000908152601360209081526040808320815161012081018352815486168152600182015490951692850192909252600282015490840152600381015460ff161515606084015260048101546080840152600581015460a0840152600681018054929384938493919260c08401916138bc90616e97565b80601f01602080910402602001604051908101604052809291908181526020018280546138e890616e97565b80156139355780601f1061390a57610100808354040283529160200191613935565b820191906000526020600020905b81548152906001019060200180831161391857829003601f168201915b5050509183525050600782015460ff1615156020820152600890910154604090910152606081015190915015801561397757506139758160400151610de0565b155b1561398157600191505b5092915050565b60606000821161399757600080fd5b6000416040516020016139aa9190615e1b565b6040516020818303038152906040528051906020012060001c6139cb61130c565b6040516020016139db9190615e5a565b60408051601f1981840301815291905280516020909101206139fd9042616e05565b613a079190616e05565b604051602001613a179190615e5a565b6040516020818303038152906040528051906020012060001c90506000846001600160401b03811115613a5a57634e487b7160e01b600052604160045260246000fd5b604051908082528060200260200182016040528015613a83578160200160208202803683370190505b5090506000805b86821015613b8457600086613aa363017efeeb87616e50565b83604051602001613ab5929190615e7f565b6040516020818303038152906040528051906020012060001c613ad89190616eed565b90506000805b84811015613b305782868281518110613b0757634e487b7160e01b600052603260045260246000fd5b60200260200101511415613b1e5760019150613b30565b80613b2881616ed2565b915050613ade565b5080613b705781858581518110613b5757634e487b7160e01b600052603260045260246000fd5b6020908102919091010152613b6d846001616e05565b93505b613b7b836001616e05565b92505050613a8a565b509095945050505050565b6000613b9a83610de0565b613bb65760405162461bcd60e51b8152600401610d0f90616b22565b6001600160a01b0384166000908152600b6020908152604080832086845290915290205460ff16613bf95760405162461bcd60e51b8152600401610d0f90616640565b6000613c04846117e7565b613c0f576000613c12565b60015b60ff16905060008184604051602001613c2c929190615e7f565b6040516020818303038152906040528051906020012090506000613c508787614042565b9050808214613c715760405162461bcd60e51b8152600401610d0f90616816565b612d598787613f3f565b613c83614f28565b6001600160a01b0316613c94612e71565b6001600160a01b031614613cba5760405162461bcd60e51b8152600401610d0f90616784565b600155565b6060600082118015613cd15750818311155b8015613cde575060018310155b613cfa5760405162461bcd60e51b8152600401610d0f906162aa565b6000826001600160401b03811115613d2257634e487b7160e01b600052604160045260246000fd5b604051908082528060200260200182016040528015613d4b578160200160208202803683370190505b5090506000846001600160401b03811115613d7657634e487b7160e01b600052604160045260246000fd5b604051908082528060200260200182016040528015613d9f578160200160208202803683370190505b5090506000613db5613db0846154a9565b6154ff565b905060005b86811015613b8457818181518110613de257634e487b7160e01b600052603260045260246000fd5b6020026020010151838281518110613e0a57634e487b7160e01b600052603260045260246000fd5b602090810291909101015280613e1f81616ed2565b915050613dba565b613e2f614f28565b6001600160a01b0316613e40612e71565b6001600160a01b031614613e665760405162461bcd60e51b8152600401610d0f90616784565b602480546001600160a01b0319166001600160a01b0392909216919091179055565b6000613e9382614dd2565b613eaf5760405162461bcd60e51b8152600401610d0f90616942565b506000908152601e602052604090206005015490565b60025481565b60035481565b613ed9614f28565b6001600160a01b0316613eea612e71565b6001600160a01b031614613f105760405162461bcd60e51b8152600401610d0f90616784565b6000818152600e602052604090205460ff1615611ca2576000908152600e60205260409020805460ff19169055565b600073__$d865f21674766f31b0d600e4a95b721b57$__6362e02a2a6010613f67868661355f565b6040518363ffffffff1660e01b8152600401613f84929190616c6e565b60206040518083038186803b158015613f9c57600080fd5b505af4158015613fb0573d6000803e3d6000fd5b505050506040513d601f19601f820116820180604052508101906110d69190615c9f565b600b60209081526000928352604080842090915290825290205460ff1681565b601d5481565b60166020528160005260406000208181548110612e9c57600080fd5b6025546001600160a01b031681565b600c60209081526000928352604080842090915290825290205481565b600073__$d865f21674766f31b0d600e4a95b721b57$__6362e02a2a601061406a868661355f565b6040518363ffffffff1660e01b8152600401613f84929190616c22565b421190565b614094614f28565b6001600160a01b03166140a5612e71565b6001600160a01b0316146140cb5760405162461bcd60e51b8152600401610d0f90616784565b600255565b6140d8614f28565b6001600160a01b03166140e9612e71565b6001600160a01b03161461410f5760405162461bcd60e51b8152600401610d0f90616784565b602580546001600160a01b0319166001600160a01b0392909216919091179055565b6026546001600160a01b031681565b614148614f28565b6001600160a01b0316614159612e71565b6001600160a01b03161461417f5760405162461bcd60e51b8152600401610d0f90616784565b602280546001600160a01b0319166001600160a01b0392909216919091179055565b6141a9614f28565b6001600160a01b03166141ba612e71565b6001600160a01b0316146141e05760405162461bcd60e51b8152600401610d0f90616784565b602180546001600160a01b0319166001600160a01b0392909216919091179055565b60606000821161421157600080fd5b6000826001600160401b0381111561423957634e487b7160e01b600052604160045260246000fd5b604051908082528060200260200182016040528015614262578160200160208202803683370190505b5090506000614273613db0836154a9565b949350505050565b60045481565b6001600160a01b031660009081526013602052604090206007015460ff1690565b60006142c66142b033612b0a565b336000908152601560205260409020549061549d565b9050818110156142e85760405162461bcd60e51b8152600401610d0f906168fb565b602154604051630895993360e11b81526001600160a01b039091169063112b32669061431a9085903390600401616cb8565b602060405180830381600087803b15801561433457600080fd5b505af1158015614348573d6000803e3d6000fd5b505050506040513d601f19601f8201168201806040525081019061436c9190615a47565b6143885760405162461bcd60e51b8152600401610d0f90616b6c565b33600090815260156020526040812080548492906143a7908490616e50565b909155505060405133907ffaeb7dbb9992397d26ea1944efd40c80b40f702faf69b46c67ad10aba68ccb7990610f25908590615e5a565b6143e6614f28565b6001600160a01b03166143f7612e71565b6001600160a01b03161461441d5760405162461bcd60e51b8152600401610d0f90616784565b600455565b606061442d82614dd2565b6144495760405162461bcd60e51b8152600401610d0f90616942565b6000828152601e6020908152604080832081516101e0810183528154815260018201549381019390935260028101549183019190915260038101546060830152600481015460ff808216151560808501526101008083048216151560a08601526201000090920416151560c0840152600582015460e084015260068201549083015260078101546101208301526008810154610140830152600981018054610160840191906144f790616e97565b80601f016020809104026020016040519081016040528092919081815260200182805461452390616e97565b80156145705780601f1061454557610100808354040283529160200191614570565b820191906000526020600020905b81548152906001019060200180831161455357829003601f168201915b5050509183525050600a82015460209091019060ff1660038111156145a557634e487b7160e01b600052602160045260246000fd5b60038111156145c457634e487b7160e01b600052602160045260246000fd5b8152602001600b8201805480602002602001604051908101604052809291908181526020016000905b8282101561469957838290600052602060002001805461460c90616e97565b80601f016020809104026020016040519081016040528092919081815260200182805461463890616e97565b80156146855780601f1061465a57610100808354040283529160200191614685565b820191906000526020600020905b81548152906001019060200180831161466857829003601f168201915b5050505050815260200190600101906145ed565b505050508152602001600c82018054806020026020016040519081016040528092919081815260200182805480156146f057602002820191906000526020600020905b8154815260200190600101908083116146dc575b505050505081525050905060008160400151905060006001546001600160401b0381111561472e57634e487b7160e01b600052604160045260246000fd5b60405190808252806020026020018201604052801561476157816020015b606081526020019060019003908161474c5790505b50905060005b8281101561485e57835160009061477f908390616e05565b60008181526014602052604081208054929350909161479d90616e97565b80601f01602080910402602001604051908101604052809291908181526020018280546147c990616e97565b80156148165780601f106147eb57610100808354040283529160200191614816565b820191906000526020600020905b8154815290600101906020018083116147f957829003601f168201915b505050505090508084848151811061483e57634e487b7160e01b600052603260045260246000fd5b60200260200101819052505050808061485690616ed2565b915050614767565b50949350505050565b601c5481565b601f5481565b61487b614f28565b6001600160a01b031661488c612e71565b6001600160a01b0316146148b25760405162461bcd60e51b8152600401610d0f90616784565b6001600160a01b0381166148d85760405162461bcd60e51b8152600401610d0f90616264565b611ca28161544d565b60008383836040516020016148f893929190615fc7565b6040516020818303038152906040528051906020012090509392505050565b601f5490565b614925614f2c565b61492e836113cf565b61494a5760405162461bcd60e51b8152600401610d0f906168b5565b336000908152600a6020908152604080832086845290915290205460ff166149845760405162461bcd60e51b8152600401610d0f906164b0565b61498e3384614042565b6149988383610dac565b146149b55760405162461bcd60e51b8152600401610d0f906161e1565b60006149c13385613f3f565b905082600114156149f8576000848152601e6020526040812060070180548392906149ed908490616e05565b90915550614a1f9050565b6000848152601e602052604081206008018054839290614a19908490616e05565b90915550505b336000908152600f6020526040908190209051634dab476560e01b815273__$6ffa5bf1f4fa681f07e1987a80577d5f4e$__91634dab476591614a6791908890600401615e7f565b60006040518083038186803b158015614a7f57600080fd5b505af4158015614a93573d6000803e3d6000fd5b5050336000818152600b602090815260408083208a84528252808320805460ff19166001908117909155600c8352818420948452938252808320899055601382528083208a8452601e90925290912060030154909350614af492509061549d565b6000868152601e602052604090206003908101919091558101805460ff19166001179055614b20612bad565b6005820155614b2e3361527b565b614b37336153dd565b614b7e57601780546001810182556000919091527fc624b66cc0138b8fabc209247f72d758e1cf3343756d543badbf24212bed8c150180546001600160a01b031916331790555b6001601f6000828254614b919190616e05565b90915550506000858152601e602052604090819020600781015460089091015491513392879289927f2e5fbeef18eaa8d8ea3b0122bc64445c4daaa6f454dfb889456791a92287f37892614be9928992909190616ced565b60405180910390a45050505050565b614c00614f2c565b3360009081526013602052604090206018546017546103e891614c2291616e05565b10614c3f5760405162461bcd60e51b8152600401610d0f90616a36565b600781015460ff1615614c645760405162461bcd60e51b8152600401610d0f90616114565b6000614c6e612bad565b6003543360009081526015602052604090205491925090811115614cb45733600090815260156020526040812054614ca790839061549d565b9050614cb281613574565b505b33600090815260156020526040902054811115614ce35760405162461bcd60e51b8152600401610d0f9061652d565b614cec336153dd565b614d3357601780546001810182556000919091527fc624b66cc0138b8fabc209247f72d758e1cf3343756d543badbf24212bed8c150180546001600160a01b031916331790555b8254336001600160a01b03199182168117855560018501805490921617905560058301829055600783015460ff16614d7b5760078301805460ff191660011790554260088401555b6001601f6000828254614d8e9190616e05565b909155505060405133907f439d77b7534ec3108fc6143bd4fbabde0b9f2bb54f7b0730d1f70dd2135b765f90614dc5908590615e5a565b60405180910390a2505050565b601b54101590565b3360009081526013602052604090206007015460ff1690565b6020546001600160a01b031681565b6001600160a01b038082166000908152601360209081526040808320815161012081018352815486168152600182015490951692850192909252600282015490840152600381015460ff161515606084015260048101546080840152600581015460a08401526006810180549293849390929160c0840191614e8390616e97565b80601f0160208091040260200160405190810160405280929190818152602001828054614eaf90616e97565b8015614efc5780601f10614ed157610100808354040283529160200191614efc565b820191906000526020600020905b815481529060010190602001808311614edf57829003601f168201915b5050509183525050600782015460ff161515602082015260089091015460409182015201519392505050565b3390565b601a546001600160a01b0316614f545760405162461bcd60e51b8152600401610d0f90616979565b601a546040516000916001600160a01b031690614f75903390602401615e8d565b60408051601f198184030181529181526020820180516001600160e01b0316631f5ac9c560e11b17905251614faa9190615e63565b6000604051808303816000865af19150503d8060008114614fe7576040519150601f19603f3d011682016040523d82523d6000602084013e614fec565b606091505b5050601a546040519192506000916001600160a01b0390911690615014903390602401615e8d565b60408051601f198184030181529181526020820180516001600160e01b03166358563d2160e01b179052516150499190615e63565b6000604051808303816000865af19150503d8060008114615086576040519150601f19603f3d011682016040523d82523d6000602084013e61508b565b606091505b5050905081806150985750805b6135375760405162461bcd60e51b8152600401610d0f9061619c565b600080805b60185481101561398157836001600160a01b0316601882815481106150ee57634e487b7160e01b600052603260045260246000fd5b6000918252602090912001546001600160a01b031614156151125760019150613981565b8061511c81616ed2565b9150506150b9565b60008060005b60175481101561519857836001600160a01b03166017828154811061515f57634e487b7160e01b600052603260045260246000fd5b6000918252602090912001546001600160a01b031614156151865760019150809250615198565b8061519081616ed2565b91505061512a565b508015611c9f57601780546151af90600190616e50565b815481106151cd57634e487b7160e01b600052603260045260246000fd5b600091825260209091200154601780546001600160a01b03909216918490811061520757634e487b7160e01b600052603260045260246000fd5b9060005260206000200160006101000a8154816001600160a01b0302191690836001600160a01b03160217905550601780548061525457634e487b7160e01b600052603160045260246000fd5b600082815260209020810160001990810180546001600160a01b0319169055019055505050565b60008060005b6018548110156152ef57836001600160a01b0316601882815481106152b657634e487b7160e01b600052603260045260246000fd5b6000918252602090912001546001600160a01b031614156152dd57600191508092506152ef565b806152e781616ed2565b915050615281565b508015611c9f576018805461530690600190616e50565b8154811061532457634e487b7160e01b600052603260045260246000fd5b600091825260209091200154601880546001600160a01b03909216918490811061535e57634e487b7160e01b600052603260045260246000fd5b9060005260206000200160006101000a8154816001600160a01b0302191690836001600160a01b03160217905550601880548061525457634e487b7160e01b600052603160045260246000fd5b60006110d68284616e05565b60008183106153c657816110d6565b5090919050565b6000818310156153c657816110d6565b600080805b60175481101561398157836001600160a01b03166017828154811061541757634e487b7160e01b600052603260045260246000fd5b6000918252602090912001546001600160a01b0316141561543b5760019150613981565b8061544581616ed2565b9150506153e2565b600080546001600160a01b038381166001600160a01b0319831681178455604051919092169283917f8be0079c531659141344cd1fd0a4f28419497f9722a3daafe3b4186f6b6457e09190a35050565b60006110d68284616e50565b805160609060005b818110156154f757808482815181106154da57634e487b7160e01b600052603260045260246000fd5b6020908102919091010152806154ef81616ed2565b9150506154b1565b509192915050565b6060600082511161550f57600080fd5b81518060005b8181101561568a57600083615528613776565b87848151811061554857634e487b7160e01b600052603260045260246000fd5b6020026020010151604051602001615561929190615e7f565b6040516020818303038152906040528051906020012060001c6155849190616eed565b61558f906001616e05565b905060008661559f600184616e50565b815181106155bd57634e487b7160e01b600052603260045260246000fd5b60200260200101519050866001866155d59190616e50565b815181106155f357634e487b7160e01b600052603260045260246000fd5b6020026020010151876001846156099190616e50565b8151811061562757634e487b7160e01b600052603260045260246000fd5b6020908102919091010152808761563f600188616e50565b8151811061565d57634e487b7160e01b600052603260045260246000fd5b6020908102919091010152615673600186616e50565b94505050808061568290616ed2565b915050615515565b50929392505050565b82805461569f90616e97565b90600052602060002090601f0160209004810192826156c15760008555615707565b82601f106156da57805160ff1916838001178555615707565b82800160010185558215615707579182015b828111156157075782518255916020019190600101906156ec565b5061571392915061578b565b5090565b50805461572390616e97565b6000825580601f106157355750611ca2565b601f016020900490600052602060002090810190611ca2919061578b565b5080546000825590600052602060002090810190611ca291906157a0565b5080546000825590600052602060002090810190611ca291905b5b80821115615713576000815560010161578c565b808211156157135760006157b48282615717565b506001016157a0565b80356001600160a01b0381168114610d9b57600080fd5b600082601f8301126157e4578081fd5b815160206157f96157f483616daf565b616d86565b82815281810190858301855b8581101561582e5761581c898684518b0101615900565b84529284019290840190600101615805565b5090979650505050505050565b600082601f83011261584b578081fd5b8151602061585b6157f483616daf565b8281528181019085830183850287018401881015615877578586fd5b855b8581101561582e57815184529284019290840190600101615879565b80518015158114610d9b57600080fd5b805160048110610d9b57600080fd5b600082601f8301126158c4578081fd5b81356158d26157f482616dd2565b8181528460208386010111156158e6578283fd5b816020850160208301379081016020019190915292915050565b600082601f830112615910578081fd5b815161591e6157f482616dd2565b818152846020838601011115615932578283fd5b614273826020830160208701616e67565b600060208284031215615954578081fd5b6110d6826157bd565b6000806040838503121561596f578081fd5b615978836157bd565b946020939093013593505050565b60008060006060848603121561599a578081fd5b6159a3846157bd565b95602085013595506040909401359392505050565b600060208083850312156159ca578182fd5b82356001600160401b038111156159df578283fd5b8301601f810185136159ef578283fd5b80356159fd6157f482616daf565b8181528381019083850185840285018601891015615a19578687fd5b8694505b83851015615a3b578035835260019490940193918501918501615a1d565b50979650505050505050565b600060208284031215615a58578081fd5b6110d682615895565b600080600060408486031215615a75578081fd5b83356001600160401b0380821115615a8b578283fd5b818601915086601f830112615a9e578283fd5b813581811115615aac578384fd5b876020828501011115615abd578384fd5b6020928301989097509590910135949350505050565b60008060408385031215615ae5578182fd5b82356001600160401b0380821115615afb578384fd5b615b07868387016158b4565b93506020850135915080821115615b1c578283fd5b50615b29858286016158b4565b9150509250929050565b600060208284031215615b44578081fd5b81516001600160401b0380821115615b5a578283fd5b81840191506101e0808387031215615b70578384fd5b615b7981616d86565b905082518152602083015160208201526040830151604082015260608301516060820152615ba960808401615895565b6080820152615bba60a08401615895565b60a0820152615bcb60c08401615895565b60c082015260e083810151908201526101008084015190820152610120808401519082015261014080840151908201526101608084015183811115615c0e578586fd5b615c1a88828701615900565b828401525050610180615c2e8185016158a5565b908201526101a08381015183811115615c45578586fd5b615c51888287016157d4565b8284015250506101c08084015183811115615c6a578586fd5b615c768882870161583b565b918301919091525095945050505050565b600060208284031215615c98578081fd5b5035919050565b600060208284031215611322578081fd5b60008060408385031215615cc2578182fd5b82359150615cd2602084016157bd565b90509250929050565b600080600060608486031215615cef578081fd5b833592506020840135915060408401356001600160401b03811115615d12578182fd5b615d1e868287016158b4565b9150509250925092565b60008060408385031215615d3a578182fd5b50508035926020909101359150565b60008060008060808587031215615d5e578182fd5b8435935060208501359250615d75604086016157bd565b9396929550929360600135925050565b600080600060608486031215615d99578081fd5b505081359360208301359350604090920135919050565b60008151808452615dc8816020860160208601616e67565b601f01601f19169290920160200192915050565b60048110615dfa57634e487b7160e01b600052602160045260246000fd5b9052565b600a8152690c6dedadad2e890c2e6d60b31b602082015260400190565b60609190911b6bffffffffffffffffffffffff1916815260140190565b60609290921b6bffffffffffffffffffffffff19168252601482015260340190565b90815260200190565b60008251615e75818460208701616e67565b9190910192915050565b918252602082015260400190565b6001600160a01b0391909116815260200190565b6001600160a01b038a81168252891660208201526040810188905286151560608201526080810186905260a0810185905261012060c08201819052600090615eeb83820187615db0565b94151560e084015250506101000152979650505050505050565b6000602080830181845280855180835260408601915060408482028701019250838701855b82811015615f5857603f19888603018452615f46858351615db0565b94509285019290850190600101615f2a565b5092979650505050505050565b6020808252825182820181905260009190848201906040850190845b81811015615f9d57835183529284019291840191600101615f81565b50909695505050505050565b901515815260200190565b6000602082526110d66020830184615db0565b6000604082528360408301528385606084013780606085840101526060601f19601f8601168301019050826020830152949350505050565b6000604082526160126040830185615db0565b905060018060a01b03831660208301529392505050565b60006080825261603c6080830187615db0565b6001600160a01b03861660208401526040830185905290506160616060830184615ddc565b95945050505050565b600060208083528184548360028204905060018083168061608c57607f831692505b8583108114156160aa57634e487b7160e01b87526022600452602487fd5b6160b683878a01615e5a565b8180156160ca57600181146160db57616105565b60ff19861682528782019650616105565b6160e48b616df9565b895b868110156160ff578154848201529085019089016160e6565b83019750505b50949998505050505050505050565b6020808252601c908201527f576f726b657220697320616c7265616479207265676973746572656400000000604082015260600190565b60208082526031908201527f676976656e204461746142617463682073686f756c6420626520415050524f5660408201527011510b08185b99081a5d081a5cc81b9bdd607a1b606082015260800190565b60208082526025908201527f72656365697665722072656a6563746564205f7265747269657665534675656c6040820152640818d85b1b60da1b606082015260800190565b6020808252605c908201527f4e6f74207468652073616d6520766f7465207468616e2077686174207761732060408201527f636f6d6d697465642c20696d706f737369626c6520746f206d6174636820776960608201527f746820676976656e205f73616c742026205f766f74654f7074696f6e00000000608082015260a00190565b60208082526026908201527f4f776e61626c653a206e6577206f776e657220697320746865207a65726f206160408201526564647265737360d01b606082015260800190565b60208082526029908201527f6b206f72204e20617265206e6f74204f4b20647572696e672072616e646f6d2060408201526839b2b632b1ba34b7b760b91b606082015260800190565b6020808252602a908201527f4661696c20647572696e6720616c6c6f636174696f6e3a206e6f7420656e6f75604082015269676820776f726b65727360b01b606082015260800190565b60208082526025908201527f576f726b6572206d757374206265204e4f54204275737920746f20756e72656760408201526434b9ba32b960d91b606082015260800190565b6020808252601e908201527f636f6d6d697420706572696f64206e6565647320746f206265206f70656e0000604082015260600190565b6020808252602f908201527f636f756c64206e6f742072657761726420746f6b656e20696e2054726967676560408201526e3921b432b1b5a9b837ba161018973160891b606082015260800190565b6020808252602b908201527f576f726b6572206973206e6f7420617661696c61626c6520736f2063616e277460408201526a103ab73932b3b4b9ba32b960a91b606082015260800190565b6020808252603d908201527f436f756c64206e6f74207265717565737420656e6f75676820616c6c6f63617460408201527f6564207374616b652c2072657175657374566f74696e67526967687473000000606082015260800190565b6020808252602f908201527f5573657220686173206e6f7420636f6d6d69746564206265666f72652c20746860408201526e1d5cc818d85b89dd081c995d99585b608a1b606082015260800190565b60208082526014908201527311185d18481b5d5cdd081a185d9948195b99195960621b604082015260600190565b60208082526043908201527f576f726b657220686173206e6f7420656e6f75676820285f6e756d546f6b656e60408201527f732920696e2068697320466f726d61745374616b6564546f6b656e42616c616e606082015262031b2960ed1b608082015260a00190565b6020808252602d908201527f636f756c64206e6f74207265776172642052455020696e20547269676765724360408201526c6865636b53706f742c20312e6160981b606082015260800190565b60208082526039908201527f646c6c4d61703a20646f6573206e6f7420636f696e7461696e205f446174614260408201527f61746368496420666f7220746865206d73672073656e64657200000000000000606082015260800190565b6020808252602b908201527f75736572206d75737420686176652072657665616c656420696e20746869732060408201526a0ced2eccadc4084c2e8c6d60ab1b606082015260800190565b6020808252601490820152733737ba1030903b30b634b2103837b9b4ba34b7b760611b604082015260600190565b6020808252603b908201527f43616e277420616c6c6f6361746520776f726b2c207468652063757272656e7460408201527f20626174636820697320616c726561647920616c6c6f63617465640000000000606082015260800190565b60208082526048908201527f55736572206e6565647320746f2068617665206265656e20616c6c6f6361746560408201527f64207468652063757272656e74206461746120626174636820746f20636f6d6d6060820152671a5d081bdb881a5d60c21b608082015260a00190565b6020808252818101527f4f776e61626c653a2063616c6c6572206973206e6f7420746865206f776e6572604082015260600190565b6020808252603a908201527f5f446174614261746368496420686173206e6f7420656e6465642c206f72206e60408201527f6f7420657665727920766f74657273206861766520766f746564000000000000606082015260800190565b60208082526029908201527f6765744e756d50617373696e67546f6b656e733a20686173686573206d75737460408201526808189948195c5d585b60ba1b606082015260800190565b60208082526036908201527f43616e277420616c6c6f6361746520776f726b2c207468652063757272656e74604082015275206261746368206973206e6f7420636f6d706c65746560501b606082015260800190565b60208082526026908201527f52657665616c20706572696f64206e6f74206f70656e20666f7220746869732060408201526511185d18525160d21b606082015260800190565b60208082526027908201527f617661696c61626c65546f6b656e732073686f756c64206265203e3d205f6e756040820152666d546f6b656e7360c81b606082015260800190565b60208082526017908201527f5f4461746142617463684964206d757374206578697374000000000000000000604082015260600190565b6020808252601390820152720c081059191c995cdcc8139bdd0815985b1a59606a1b604082015260600190565b6020808252602f908201527f636f756c64206e6f742072657761726420746f6b656e20696e2054726967676560408201526e3921b432b1b5a9b837ba161019173160891b606082015260800190565b60208082526021908201527f5f446174614261746368496420697320616c72656164792076616c69646174656040820152601960fa1b606082015260800190565b60208082526022908201527f4d6178696d756d207265676973746572656420776f726b65727320616c726561604082015261647960f01b606082015260800190565b60208082526037908201527f75736572206d757374206861766520656e6f75676820766f74696e672072696760408201527f68747320616b6120616c6c6f6361746564207374616b65000000000000000000606082015260800190565b6020808252602d908201527f636f756c64206e6f74207265776172642052455020696e20547269676765724360408201526c6865636b53706f742c20322e6160981b606082015260800190565b6020808252602a908201527f5f446174614261746368496420636865636b696e6720766f7465206d757374206040820152691a185d9948195b99195960b21b606082015260800190565b6020808252603b908201527f436f756c64206e6f74207769746864726177566f74696e67526967687473207460408201527f68726f7567682050726f78795374616b654465616c6c6f636174650000000000606082015260800190565b6020808252600f908201526e11185d18481b5d5cdd08195e1a5cdd608a1b604082015260600190565b600085825284602083015260806040830152616c116080830185615db0565b905082606083015295945050505050565b60008382528260208301526060604083015261427360608301615dfe565b600084825283602083015260806040830152616c5e60808301615dfe565b9050826060830152949350505050565b9182526020820152606060408201819052600990820152686e756d546f6b656e7360b81b608082015260a00190565b93845260208401929092526040830152606082015260800190565b9182526001600160a01b0316602082015260400190565b9182526001600160a01b031660208201526000604082015260600190565b9283526020830191909152604082015260600190565b60006101a08f83528e60208401528d60408401528c60608401528b151560808401528a151560a084015289151560c08401528860e084015287610100840152866101208401528561014084015280610160840152616d6381840186615db0565b915050616d74610180830184615ddc565b9e9d5050505050505050505050505050565b6040518181016001600160401b0381118282101715616da757616da7616f2d565b604052919050565b60006001600160401b03821115616dc857616dc8616f2d565b5060209081020190565b60006001600160401b03821115616deb57616deb616f2d565b50601f01601f191660200190565b60009081526020902090565b60008219821115616e1857616e18616f01565b500190565b600082616e2c57616e2c616f17565b500490565b6000816000190483118215151615616e4b57616e4b616f01565b500290565b600082821015616e6257616e62616f01565b500390565b60005b83811015616e82578181015183820152602001616e6a565b83811115616e91576000848401525b50505050565b600281046001821680616eab57607f821691505b60208210811415616ecc57634e487b7160e01b600052602260045260246000fd5b50919050565b6000600019821415616ee657616ee6616f01565b5060010190565b600082616efc57616efc616f17565b500690565b634e487b7160e01b600052601160045260246000fd5b634e487b7160e01b600052601260045260246000fd5b634e487b7160e01b600052604160045260246000fdfea26469706673582212209b268600386de88f7f13d2a8957141beffcc8422dc0982ac939c6366f40bb16e64736f6c63430008000033",
  "linkReferences": {
    "contracts/worksystems/DataFormatting.sol": {
      "AttributeStore2": [
        {
          "length": 20,
          "start": 13538
        },
        {
          "length": 20,
          "start": 13646
        },
        {
          "length": 20,
          "start": 16596
        },
        {
          "length": 20,
          "start": 16855
        }
      ],
      "DLL2": [
        {
          "length": 20,
          "start": 4407
        },
        {
          "length": 20,
          "start": 4579
        },
        {
          "length": 20,
          "start": 5351
        },
        {
          "length": 20,
          "start": 12475
        },
        {
          "length": 20,
          "start": 12655
        },
        {
          "length": 20,
          "start": 13027
        },
        {
          "length": 20,
          "start": 13189
        },
        {
          "length": 20,
          "start": 13384
        },
        {
          "length": 20,
          "start": 19407
        }
      ]
    }
  },
  "deployedLinkReferences": {
    "contracts/worksystems/DataFormatting.sol": {
      "AttributeStore2": [
        {
          "length": 20,
          "start": 13137
        },
        {
          "length": 20,
          "start": 13245
        },
        {
          "length": 20,
          "start": 16195
        },
        {
          "length": 20,
          "start": 16454
        }
      ],
      "DLL2": [
        {
          "length": 20,
          "start": 4006
        },
        {
          "length": 20,
          "start": 4178
        },
        {
          "length": 20,
          "start": 4950
        },
        {
          "length": 20,
          "start": 12074
        },
        {
          "length": 20,
          "start": 12254
        },
        {
          "length": 20,
          "start": 12626
        },
        {
          "length": 20,
          "start": 12788
        },
        {
          "length": 20,
          "start": 12983
        },
        {
          "length": 20,
          "start": 19006
        }
      ]
    }
  }
}