{
  "_format": "hh-sol-artifact-1",
  "contractName": "DataFormatting",
  "sourceName": "contracts/worksystems/DataFormatting.sol",
  "abi": [
    {
      "inputs": [
        {
          "internalType": "address",
          "name": "EXDT_token",
          "type": "address"
        }
      ],
      "stateMutability": "nonpayable",
      "type": "constructor"
    },
    {
      "anonymous": false,
      "inputs": [
        {
          "indexed": false,
          "internalType": "bytes",
          "name": "bytesFailure",
          "type": "bytes"
        }
      ],
      "name": "BytesFailure",
      "type": "event"
    },
    {
      "anonymous": false,
      "inputs": [
        {
          "indexed": true,
          "internalType": "address",
          "name": "previousOwner",
          "type": "address"
        },
        {
          "indexed": true,
          "internalType": "address",
          "name": "newOwner",
          "type": "address"
        }
      ],
      "name": "OwnershipTransferred",
      "type": "event"
    },
    {
      "anonymous": false,
      "inputs": [
        {
          "indexed": false,
          "internalType": "string",
          "name": "hash",
          "type": "string"
        },
        {
          "indexed": true,
          "internalType": "address",
          "name": "creator",
          "type": "address"
        }
      ],
      "name": "_FormatAccepted",
      "type": "event"
    },
    {
      "anonymous": false,
      "inputs": [
        {
          "indexed": true,
          "internalType": "uint256",
          "name": "DataID",
          "type": "uint256"
        },
        {
          "indexed": false,
          "internalType": "uint256",
          "name": "numTokens",
          "type": "uint256"
        },
        {
          "indexed": true,
          "internalType": "address",
          "name": "voter",
          "type": "address"
        }
      ],
      "name": "_FormatCheckCommitted",
      "type": "event"
    },
    {
      "anonymous": false,
      "inputs": [
        {
          "indexed": true,
          "internalType": "uint256",
          "name": "DataID",
          "type": "uint256"
        },
        {
          "indexed": false,
          "internalType": "uint256",
          "name": "numTokens",
          "type": "uint256"
        },
        {
          "indexed": false,
          "internalType": "uint256",
          "name": "votesFor",
          "type": "uint256"
        },
        {
          "indexed": false,
          "internalType": "uint256",
          "name": "votesAgainst",
          "type": "uint256"
        },
        {
          "indexed": true,
          "internalType": "uint256",
          "name": "choice",
          "type": "uint256"
        },
        {
          "indexed": true,
          "internalType": "address",
          "name": "voter",
          "type": "address"
        }
      ],
      "name": "_FormatCheckRevealed",
      "type": "event"
    },
    {
      "anonymous": false,
      "inputs": [
        {
          "indexed": true,
          "internalType": "uint256",
          "name": "DataID",
          "type": "uint256"
        },
        {
          "indexed": false,
          "internalType": "string",
          "name": "file_hash",
          "type": "string"
        },
        {
          "indexed": false,
          "internalType": "address",
          "name": "sender",
          "type": "address"
        }
      ],
      "name": "_FormatSubmitted",
      "type": "event"
    },
    {
      "anonymous": false,
      "inputs": [
        {
          "indexed": true,
          "internalType": "uint256",
          "name": "epochNumber",
          "type": "uint256"
        }
      ],
      "name": "_NewEpoch",
      "type": "event"
    },
    {
      "anonymous": false,
      "inputs": [
        {
          "indexed": true,
          "internalType": "uint256",
          "name": "DataID",
          "type": "uint256"
        },
        {
          "indexed": true,
          "internalType": "address",
          "name": "voter",
          "type": "address"
        }
      ],
      "name": "_TokensRescued",
      "type": "event"
    },
    {
      "anonymous": false,
      "inputs": [
        {
          "indexed": false,
          "internalType": "uint256",
          "name": "numTokens",
          "type": "uint256"
        },
        {
          "indexed": true,
          "internalType": "address",
          "name": "voter",
          "type": "address"
        }
      ],
      "name": "_VotingRightsGranted",
      "type": "event"
    },
    {
      "anonymous": false,
      "inputs": [
        {
          "indexed": false,
          "internalType": "uint256",
          "name": "numTokens",
          "type": "uint256"
        },
        {
          "indexed": true,
          "internalType": "address",
          "name": "voter",
          "type": "address"
        }
      ],
      "name": "_VotingRightsWithdrawn",
      "type": "event"
    },
    {
      "anonymous": false,
      "inputs": [
        {
          "indexed": true,
          "internalType": "uint256",
          "name": "batchID",
          "type": "uint256"
        },
        {
          "indexed": false,
          "internalType": "address",
          "name": "worker",
          "type": "address"
        }
      ],
      "name": "_WorkAllocated",
      "type": "event"
    },
    {
      "anonymous": false,
      "inputs": [
        {
          "indexed": true,
          "internalType": "address",
          "name": "worker",
          "type": "address"
        },
        {
          "indexed": false,
          "internalType": "uint256",
          "name": "timestamp",
          "type": "uint256"
        }
      ],
      "name": "_WorkerRegistered",
      "type": "event"
    },
    {
      "anonymous": false,
      "inputs": [
        {
          "indexed": true,
          "internalType": "address",
          "name": "worker",
          "type": "address"
        },
        {
          "indexed": false,
          "internalType": "uint256",
          "name": "timestamp",
          "type": "uint256"
        }
      ],
      "name": "_WorkerUnregistered",
      "type": "event"
    },
    {
      "inputs": [],
      "name": "AddressManager",
      "outputs": [
        {
          "internalType": "contract IAddressManager",
          "name": "",
          "type": "address"
        }
      ],
      "stateMutability": "view",
      "type": "function"
    },
    {
      "inputs": [],
      "name": "AllTxsCounter",
      "outputs": [
        {
          "internalType": "uint256",
          "name": "",
          "type": "uint256"
        }
      ],
      "stateMutability": "view",
      "type": "function"
    },
    {
      "inputs": [],
      "name": "AllocateWork",
      "outputs": [],
      "stateMutability": "nonpayable",
      "type": "function"
    },
    {
      "inputs": [],
      "name": "AllocatedBatchCursor",
      "outputs": [
        {
          "internalType": "uint256",
          "name": "",
          "type": "uint256"
        }
      ],
      "stateMutability": "view",
      "type": "function"
    },
    {
      "inputs": [],
      "name": "AmIRegistered",
      "outputs": [
        {
          "internalType": "bool",
          "name": "passed",
          "type": "bool"
        }
      ],
      "stateMutability": "view",
      "type": "function"
    },
    {
      "inputs": [
        {
          "internalType": "string",
          "name": "_a",
          "type": "string"
        },
        {
          "internalType": "string",
          "name": "_b",
          "type": "string"
        }
      ],
      "name": "AreStringsEqual",
      "outputs": [
        {
          "internalType": "bool",
          "name": "",
          "type": "bool"
        }
      ],
      "stateMutability": "pure",
      "type": "function"
    },
    {
      "inputs": [],
      "name": "BatchCheckingCursor",
      "outputs": [
        {
          "internalType": "uint256",
          "name": "",
          "type": "uint256"
        }
      ],
      "stateMutability": "view",
      "type": "function"
    },
    {
      "inputs": [],
      "name": "COMMIT_ROUND_DURATION",
      "outputs": [
        {
          "internalType": "uint256",
          "name": "",
          "type": "uint256"
        }
      ],
      "stateMutability": "view",
      "type": "function"
    },
    {
      "inputs": [],
      "name": "CONSENSUS_WORKER_SIZE",
      "outputs": [
        {
          "internalType": "uint256",
          "name": "",
          "type": "uint256"
        }
      ],
      "stateMutability": "view",
      "type": "function"
    },
    {
      "inputs": [],
      "name": "CurrentWorkEpoch",
      "outputs": [
        {
          "internalType": "uint256",
          "name": "",
          "type": "uint256"
        }
      ],
      "stateMutability": "view",
      "type": "function"
    },
    {
      "inputs": [],
      "name": "DATA_BATCH_SIZE",
      "outputs": [
        {
          "internalType": "uint256",
          "name": "",
          "type": "uint256"
        }
      ],
      "stateMutability": "view",
      "type": "function"
    },
    {
      "inputs": [
        {
          "internalType": "uint256",
          "name": "",
          "type": "uint256"
        }
      ],
      "name": "DataBatch",
      "outputs": [
        {
          "internalType": "uint256",
          "name": "start_idx",
          "type": "uint256"
        },
        {
          "internalType": "uint256",
          "name": "end_idx",
          "type": "uint256"
        },
        {
          "internalType": "uint256",
          "name": "counter",
          "type": "uint256"
        },
        {
          "internalType": "uint256",
          "name": "unrevealed_workers",
          "type": "uint256"
        },
        {
          "internalType": "bool",
          "name": "complete",
          "type": "bool"
        },
        {
          "internalType": "bool",
          "name": "checked",
          "type": "bool"
        },
        {
          "internalType": "bool",
          "name": "allocated_to_work",
          "type": "bool"
        },
        {
          "internalType": "uint256",
          "name": "commitEndDate",
          "type": "uint256"
        },
        {
          "internalType": "uint256",
          "name": "revealEndDate",
          "type": "uint256"
        },
        {
          "internalType": "uint256",
          "name": "votesFor",
          "type": "uint256"
        },
        {
          "internalType": "uint256",
          "name": "votesAgainst",
          "type": "uint256"
        },
        {
          "internalType": "string",
          "name": "batchIPFSfile",
          "type": "string"
        },
        {
          "internalType": "enum DataFormatting.DataStatus",
          "name": "status",
          "type": "uint8"
        }
      ],
      "stateMutability": "view",
      "type": "function"
    },
    {
      "inputs": [
        {
          "internalType": "uint256",
          "name": "_DataBatchId",
          "type": "uint256"
        }
      ],
      "name": "DataCommitEndDate",
      "outputs": [
        {
          "internalType": "uint256",
          "name": "commitEndDate",
          "type": "uint256"
        }
      ],
      "stateMutability": "view",
      "type": "function"
    },
    {
      "inputs": [
        {
          "internalType": "uint256",
          "name": "_DataBatchId",
          "type": "uint256"
        }
      ],
      "name": "DataEnded",
      "outputs": [
        {
          "internalType": "bool",
          "name": "ended",
          "type": "bool"
        }
      ],
      "stateMutability": "view",
      "type": "function"
    },
    {
      "inputs": [
        {
          "internalType": "uint256",
          "name": "_DataBatchId",
          "type": "uint256"
        }
      ],
      "name": "DataExists",
      "outputs": [
        {
          "internalType": "bool",
          "name": "exists",
          "type": "bool"
        }
      ],
      "stateMutability": "view",
      "type": "function"
    },
    {
      "inputs": [],
      "name": "DataNonce",
      "outputs": [
        {
          "internalType": "uint256",
          "name": "",
          "type": "uint256"
        }
      ],
      "stateMutability": "view",
      "type": "function"
    },
    {
      "inputs": [
        {
          "internalType": "uint256",
          "name": "_DataBatchId",
          "type": "uint256"
        }
      ],
      "name": "DataRevealEndDate",
      "outputs": [
        {
          "internalType": "uint256",
          "name": "revealEndDate",
          "type": "uint256"
        }
      ],
      "stateMutability": "view",
      "type": "function"
    },
    {
      "inputs": [
        {
          "internalType": "address",
          "name": "",
          "type": "address"
        }
      ],
      "name": "FormatStakedTokenBalance",
      "outputs": [
        {
          "internalType": "uint256",
          "name": "",
          "type": "uint256"
        }
      ],
      "stateMutability": "view",
      "type": "function"
    },
    {
      "inputs": [
        {
          "internalType": "uint256",
          "name": "",
          "type": "uint256"
        }
      ],
      "name": "FormatsMapping",
      "outputs": [
        {
          "internalType": "string",
          "name": "ipfs_hash",
          "type": "string"
        },
        {
          "internalType": "address",
          "name": "author",
          "type": "address"
        },
        {
          "internalType": "uint256",
          "name": "timestamp",
          "type": "uint256"
        },
        {
          "internalType": "enum DataFormatting.DataStatus",
          "name": "status",
          "type": "uint8"
        }
      ],
      "stateMutability": "view",
      "type": "function"
    },
    {
      "inputs": [
        {
          "internalType": "address",
          "name": "user_",
          "type": "address"
        }
      ],
      "name": "GetCurrentWork",
      "outputs": [
        {
          "internalType": "uint256",
          "name": "",
          "type": "uint256"
        }
      ],
      "stateMutability": "view",
      "type": "function"
    },
    {
      "inputs": [
        {
          "internalType": "address",
          "name": "user_",
          "type": "address"
        }
      ],
      "name": "IsNewWorkAvailable",
      "outputs": [
        {
          "internalType": "bool",
          "name": "",
          "type": "bool"
        }
      ],
      "stateMutability": "view",
      "type": "function"
    },
    {
      "inputs": [],
      "name": "LastBatchCounter",
      "outputs": [
        {
          "internalType": "uint256",
          "name": "",
          "type": "uint256"
        }
      ],
      "stateMutability": "view",
      "type": "function"
    },
    {
      "inputs": [],
      "name": "LastSpotBatchId",
      "outputs": [
        {
          "internalType": "uint256",
          "name": "",
          "type": "uint256"
        }
      ],
      "stateMutability": "view",
      "type": "function"
    },
    {
      "inputs": [],
      "name": "MIN_REP_Data",
      "outputs": [
        {
          "internalType": "uint256",
          "name": "",
          "type": "uint256"
        }
      ],
      "stateMutability": "view",
      "type": "function"
    },
    {
      "inputs": [],
      "name": "MIN_REP_REVEAL",
      "outputs": [
        {
          "internalType": "uint256",
          "name": "",
          "type": "uint256"
        }
      ],
      "stateMutability": "view",
      "type": "function"
    },
    {
      "inputs": [],
      "name": "MIN_REWARD_Data",
      "outputs": [
        {
          "internalType": "uint256",
          "name": "",
          "type": "uint256"
        }
      ],
      "stateMutability": "view",
      "type": "function"
    },
    {
      "inputs": [],
      "name": "MIN_STAKE",
      "outputs": [
        {
          "internalType": "uint256",
          "name": "",
          "type": "uint256"
        }
      ],
      "stateMutability": "view",
      "type": "function"
    },
    {
      "inputs": [
        {
          "internalType": "address",
          "name": "",
          "type": "address"
        },
        {
          "internalType": "uint256",
          "name": "",
          "type": "uint256"
        }
      ],
      "name": "MasterWorkers",
      "outputs": [
        {
          "internalType": "address",
          "name": "",
          "type": "address"
        }
      ],
      "stateMutability": "view",
      "type": "function"
    },
    {
      "inputs": [
        {
          "internalType": "uint256",
          "name": "CheckedBatchId",
          "type": "uint256"
        }
      ],
      "name": "Ping",
      "outputs": [
        {
          "internalType": "bool",
          "name": "",
          "type": "bool"
        }
      ],
      "stateMutability": "nonpayable",
      "type": "function"
    },
    {
      "inputs": [],
      "name": "REVEAL_ROUND_DURATION",
      "outputs": [
        {
          "internalType": "uint256",
          "name": "",
          "type": "uint256"
        }
      ],
      "stateMutability": "view",
      "type": "function"
    },
    {
      "inputs": [],
      "name": "RegisterWorker",
      "outputs": [],
      "stateMutability": "nonpayable",
      "type": "function"
    },
    {
      "inputs": [],
      "name": "RepManager",
      "outputs": [
        {
          "internalType": "contract IRepManager",
          "name": "",
          "type": "address"
        }
      ],
      "stateMutability": "view",
      "type": "function"
    },
    {
      "inputs": [],
      "name": "RewardManager",
      "outputs": [
        {
          "internalType": "contract IRewardManager",
          "name": "",
          "type": "address"
        }
      ],
      "stateMutability": "view",
      "type": "function"
    },
    {
      "inputs": [],
      "name": "SPOT_CHECK_VOTE_QUORUM",
      "outputs": [
        {
          "internalType": "uint256",
          "name": "",
          "type": "uint256"
        }
      ],
      "stateMutability": "view",
      "type": "function"
    },
    {
      "inputs": [],
      "name": "SpottingSystem",
      "outputs": [
        {
          "internalType": "contract ISpottingSystem",
          "name": "",
          "type": "address"
        }
      ],
      "stateMutability": "view",
      "type": "function"
    },
    {
      "inputs": [],
      "name": "StakeManager",
      "outputs": [
        {
          "internalType": "contract IStakeManager",
          "name": "",
          "type": "address"
        }
      ],
      "stateMutability": "view",
      "type": "function"
    },
    {
      "inputs": [],
      "name": "TriggerNextEpoch",
      "outputs": [],
      "stateMutability": "nonpayable",
      "type": "function"
    },
    {
      "inputs": [],
      "name": "UnregisterWorker",
      "outputs": [],
      "stateMutability": "nonpayable",
      "type": "function"
    },
    {
      "inputs": [
        {
          "internalType": "address",
          "name": "",
          "type": "address"
        },
        {
          "internalType": "uint256",
          "name": "",
          "type": "uint256"
        }
      ],
      "name": "UserChecksCommits",
      "outputs": [
        {
          "internalType": "bool",
          "name": "",
          "type": "bool"
        }
      ],
      "stateMutability": "view",
      "type": "function"
    },
    {
      "inputs": [
        {
          "internalType": "address",
          "name": "",
          "type": "address"
        },
        {
          "internalType": "uint256",
          "name": "",
          "type": "uint256"
        }
      ],
      "name": "UserChecksReveals",
      "outputs": [
        {
          "internalType": "bool",
          "name": "",
          "type": "bool"
        }
      ],
      "stateMutability": "view",
      "type": "function"
    },
    {
      "inputs": [
        {
          "internalType": "uint256",
          "name": "",
          "type": "uint256"
        },
        {
          "internalType": "address",
          "name": "",
          "type": "address"
        }
      ],
      "name": "UserNewFiles",
      "outputs": [
        {
          "internalType": "string",
          "name": "",
          "type": "string"
        }
      ],
      "stateMutability": "view",
      "type": "function"
    },
    {
      "inputs": [
        {
          "internalType": "uint256",
          "name": "",
          "type": "uint256"
        },
        {
          "internalType": "address",
          "name": "",
          "type": "address"
        }
      ],
      "name": "UserVotes",
      "outputs": [
        {
          "internalType": "uint256",
          "name": "",
          "type": "uint256"
        }
      ],
      "stateMutability": "view",
      "type": "function"
    },
    {
      "inputs": [
        {
          "internalType": "uint256",
          "name": "_DataBatchId",
          "type": "uint256"
        }
      ],
      "name": "ValidateDataBatch",
      "outputs": [],
      "stateMutability": "nonpayable",
      "type": "function"
    },
    {
      "inputs": [
        {
          "internalType": "uint256",
          "name": "",
          "type": "uint256"
        },
        {
          "internalType": "uint256",
          "name": "",
          "type": "uint256"
        }
      ],
      "name": "WorkersPerBatch",
      "outputs": [
        {
          "internalType": "address",
          "name": "",
          "type": "address"
        }
      ],
      "stateMutability": "view",
      "type": "function"
    },
    {
      "inputs": [
        {
          "internalType": "address",
          "name": "",
          "type": "address"
        }
      ],
      "name": "WorkersState",
      "outputs": [
        {
          "internalType": "address",
          "name": "worker_address",
          "type": "address"
        },
        {
          "internalType": "address",
          "name": "master_address",
          "type": "address"
        },
        {
          "internalType": "uint256",
          "name": "allocated_work_batch",
          "type": "uint256"
        },
        {
          "internalType": "bool",
          "name": "has_completed_work",
          "type": "bool"
        },
        {
          "internalType": "uint256",
          "name": "last_worked_round",
          "type": "uint256"
        },
        {
          "internalType": "uint256",
          "name": "last_interaction_date",
          "type": "uint256"
        },
        {
          "internalType": "string",
          "name": "extra",
          "type": "string"
        },
        {
          "internalType": "bool",
          "name": "registered",
          "type": "bool"
        },
        {
          "internalType": "uint256",
          "name": "registration_date",
          "type": "uint256"
        }
      ],
      "stateMutability": "view",
      "type": "function"
    },
    {
      "inputs": [
        {
          "internalType": "address",
          "name": "_user",
          "type": "address"
        },
        {
          "internalType": "uint256",
          "name": "_DataBatchId",
          "type": "uint256"
        }
      ],
      "name": "attrUUID",
      "outputs": [
        {
          "internalType": "bytes32",
          "name": "UUID",
          "type": "bytes32"
        }
      ],
      "stateMutability": "pure",
      "type": "function"
    },
    {
      "inputs": [
        {
          "internalType": "uint256",
          "name": "",
          "type": "uint256"
        }
      ],
      "name": "availableWorkers",
      "outputs": [
        {
          "internalType": "address",
          "name": "",
          "type": "address"
        }
      ],
      "stateMutability": "view",
      "type": "function"
    },
    {
      "inputs": [
        {
          "internalType": "uint256",
          "name": "",
          "type": "uint256"
        }
      ],
      "name": "busyWorkers",
      "outputs": [
        {
          "internalType": "address",
          "name": "",
          "type": "address"
        }
      ],
      "stateMutability": "view",
      "type": "function"
    },
    {
      "inputs": [
        {
          "internalType": "uint256",
          "name": "_DataBatchId",
          "type": "uint256"
        },
        {
          "internalType": "bytes32",
          "name": "_secretHash",
          "type": "bytes32"
        },
        {
          "internalType": "string",
          "name": "newIPFSHash",
          "type": "string"
        }
      ],
      "name": "commitFormatCheck",
      "outputs": [],
      "stateMutability": "nonpayable",
      "type": "function"
    },
    {
      "inputs": [
        {
          "internalType": "uint256[]",
          "name": "_DataBatchIDs",
          "type": "uint256[]"
        },
        {
          "internalType": "bytes32[]",
          "name": "_secretHashes",
          "type": "bytes32[]"
        },
        {
          "internalType": "string[]",
          "name": "_newIPFSHash",
          "type": "string[]"
        }
      ],
      "name": "commitFormatChecks",
      "outputs": [],
      "stateMutability": "nonpayable",
      "type": "function"
    },
    {
      "inputs": [
        {
          "internalType": "uint256",
          "name": "_DataBatchId",
          "type": "uint256"
        }
      ],
      "name": "commitPeriodActive",
      "outputs": [
        {
          "internalType": "bool",
          "name": "active",
          "type": "bool"
        }
      ],
      "stateMutability": "view",
      "type": "function"
    },
    {
      "inputs": [
        {
          "internalType": "address",
          "name": "_voter",
          "type": "address"
        },
        {
          "internalType": "uint256",
          "name": "_DataBatchId",
          "type": "uint256"
        }
      ],
      "name": "didCommit",
      "outputs": [
        {
          "internalType": "bool",
          "name": "committed",
          "type": "bool"
        }
      ],
      "stateMutability": "view",
      "type": "function"
    },
    {
      "inputs": [
        {
          "internalType": "address",
          "name": "_voter",
          "type": "address"
        },
        {
          "internalType": "uint256",
          "name": "_DataBatchId",
          "type": "uint256"
        }
      ],
      "name": "didReveal",
      "outputs": [
        {
          "internalType": "bool",
          "name": "revealed",
          "type": "bool"
        }
      ],
      "stateMutability": "view",
      "type": "function"
    },
    {
      "inputs": [
        {
          "internalType": "uint256",
          "name": "_k",
          "type": "uint256"
        },
        {
          "internalType": "uint256",
          "name": "N_range",
          "type": "uint256"
        }
      ],
      "name": "generateIntegers",
      "outputs": [
        {
          "internalType": "uint256[]",
          "name": "",
          "type": "uint256[]"
        }
      ],
      "stateMutability": "view",
      "type": "function"
    },
    {
      "inputs": [],
      "name": "getActiveWorkersCount",
      "outputs": [
        {
          "internalType": "uint256",
          "name": "numWorkers",
          "type": "uint256"
        }
      ],
      "stateMutability": "view",
      "type": "function"
    },
    {
      "inputs": [],
      "name": "getBlockTimestamp",
      "outputs": [
        {
          "internalType": "uint256",
          "name": "blocktimestamp",
          "type": "uint256"
        }
      ],
      "stateMutability": "view",
      "type": "function"
    },
    {
      "inputs": [
        {
          "internalType": "address",
          "name": "_voter",
          "type": "address"
        },
        {
          "internalType": "uint256",
          "name": "_DataBatchId",
          "type": "uint256"
        }
      ],
      "name": "getCommitHash",
      "outputs": [
        {
          "internalType": "bytes32",
          "name": "commitHash",
          "type": "bytes32"
        }
      ],
      "stateMutability": "view",
      "type": "function"
    },
    {
      "inputs": [],
      "name": "getCurrentWorkEpoch",
      "outputs": [
        {
          "internalType": "uint256",
          "name": "WorkEpoch",
          "type": "uint256"
        }
      ],
      "stateMutability": "view",
      "type": "function"
    },
    {
      "inputs": [
        {
          "internalType": "string",
          "name": "_hash",
          "type": "string"
        },
        {
          "internalType": "uint256",
          "name": "_salt",
          "type": "uint256"
        }
      ],
      "name": "getEncryptedStringHash",
      "outputs": [
        {
          "internalType": "bytes32",
          "name": "keccak256hash",
          "type": "bytes32"
        }
      ],
      "stateMutability": "pure",
      "type": "function"
    },
    {
      "inputs": [
        {
          "internalType": "uint256",
          "name": "_voteOption",
          "type": "uint256"
        },
        {
          "internalType": "uint256",
          "name": "_salt",
          "type": "uint256"
        }
      ],
      "name": "getEncryptedVoteHash",
      "outputs": [
        {
          "internalType": "bytes32",
          "name": "keccak256hash",
          "type": "bytes32"
        }
      ],
      "stateMutability": "pure",
      "type": "function"
    },
    {
      "inputs": [
        {
          "internalType": "uint256",
          "name": "a",
          "type": "uint256"
        },
        {
          "internalType": "uint256",
          "name": "b",
          "type": "uint256"
        }
      ],
      "name": "getHash",
      "outputs": [
        {
          "internalType": "bytes32",
          "name": "keccak256hash",
          "type": "bytes32"
        }
      ],
      "stateMutability": "pure",
      "type": "function"
    },
    {
      "inputs": [
        {
          "internalType": "uint256",
          "name": "_DataBatchId",
          "type": "uint256"
        }
      ],
      "name": "getIPFShashesForBatch",
      "outputs": [
        {
          "internalType": "string[]",
          "name": "",
          "type": "string[]"
        }
      ],
      "stateMutability": "view",
      "type": "function"
    },
    {
      "inputs": [
        {
          "internalType": "address",
          "name": "_voter",
          "type": "address"
        },
        {
          "internalType": "uint256",
          "name": "_numTokens",
          "type": "uint256"
        },
        {
          "internalType": "uint256",
          "name": "_DataBatchId",
          "type": "uint256"
        }
      ],
      "name": "getInsertPointForNumTokens",
      "outputs": [
        {
          "internalType": "uint256",
          "name": "prevNode",
          "type": "uint256"
        }
      ],
      "stateMutability": "view",
      "type": "function"
    },
    {
      "inputs": [],
      "name": "getLastBatchId",
      "outputs": [
        {
          "internalType": "uint256",
          "name": "LastBatchId",
          "type": "uint256"
        }
      ],
      "stateMutability": "view",
      "type": "function"
    },
    {
      "inputs": [],
      "name": "getLastCheckedBatchId",
      "outputs": [
        {
          "internalType": "uint256",
          "name": "LastCheckedBatchId",
          "type": "uint256"
        }
      ],
      "stateMutability": "view",
      "type": "function"
    },
    {
      "inputs": [],
      "name": "getLastDataId",
      "outputs": [
        {
          "internalType": "uint256",
          "name": "DataId",
          "type": "uint256"
        }
      ],
      "stateMutability": "view",
      "type": "function"
    },
    {
      "inputs": [
        {
          "internalType": "address",
          "name": "_voter",
          "type": "address"
        }
      ],
      "name": "getLastNode",
      "outputs": [
        {
          "internalType": "uint256",
          "name": "DataID",
          "type": "uint256"
        }
      ],
      "stateMutability": "view",
      "type": "function"
    },
    {
      "inputs": [
        {
          "internalType": "address",
          "name": "_voter",
          "type": "address"
        }
      ],
      "name": "getLockedTokens",
      "outputs": [
        {
          "internalType": "uint256",
          "name": "numTokens",
          "type": "uint256"
        }
      ],
      "stateMutability": "view",
      "type": "function"
    },
    {
      "inputs": [
        {
          "internalType": "address",
          "name": "_voter",
          "type": "address"
        },
        {
          "internalType": "uint256",
          "name": "_DataBatchId",
          "type": "uint256"
        },
        {
          "internalType": "uint256",
          "name": "_salt",
          "type": "uint256"
        }
      ],
      "name": "getNumPassingTokens",
      "outputs": [
        {
          "internalType": "uint256",
          "name": "correctFormatChecks",
          "type": "uint256"
        }
      ],
      "stateMutability": "view",
      "type": "function"
    },
    {
      "inputs": [
        {
          "internalType": "address",
          "name": "_voter",
          "type": "address"
        },
        {
          "internalType": "uint256",
          "name": "_DataBatchId",
          "type": "uint256"
        }
      ],
      "name": "getNumTokens",
      "outputs": [
        {
          "internalType": "uint256",
          "name": "numTokens",
          "type": "uint256"
        }
      ],
      "stateMutability": "view",
      "type": "function"
    },
    {
      "inputs": [],
      "name": "getRandom",
      "outputs": [
        {
          "internalType": "uint256",
          "name": "",
          "type": "uint256"
        }
      ],
      "stateMutability": "view",
      "type": "function"
    },
    {
      "inputs": [],
      "name": "getSeed",
      "outputs": [
        {
          "internalType": "bytes32",
          "name": "addr",
          "type": "bytes32"
        }
      ],
      "stateMutability": "view",
      "type": "function"
    },
    {
      "inputs": [
        {
          "internalType": "uint256",
          "name": "_DataBatchId",
          "type": "uint256"
        }
      ],
      "name": "getTotalNumberOfFormatChecks",
      "outputs": [
        {
          "internalType": "uint256",
          "name": "vc",
          "type": "uint256"
        }
      ],
      "stateMutability": "view",
      "type": "function"
    },
    {
      "inputs": [
        {
          "internalType": "uint256",
          "name": "_DataBatchId",
          "type": "uint256"
        }
      ],
      "name": "getTotalNumberOfTokensForWinningOption",
      "outputs": [
        {
          "internalType": "uint256",
          "name": "numTokens",
          "type": "uint256"
        }
      ],
      "stateMutability": "view",
      "type": "function"
    },
    {
      "inputs": [],
      "name": "getTxCounter",
      "outputs": [
        {
          "internalType": "uint256",
          "name": "Counter",
          "type": "uint256"
        }
      ],
      "stateMutability": "view",
      "type": "function"
    },
    {
      "inputs": [
        {
          "internalType": "uint256",
          "name": "_terminationDate",
          "type": "uint256"
        }
      ],
      "name": "isExpired",
      "outputs": [
        {
          "internalType": "bool",
          "name": "expired",
          "type": "bool"
        }
      ],
      "stateMutability": "view",
      "type": "function"
    },
    {
      "inputs": [
        {
          "internalType": "uint256",
          "name": "_DataBatchId",
          "type": "uint256"
        }
      ],
      "name": "isPassed",
      "outputs": [
        {
          "internalType": "bool",
          "name": "passed",
          "type": "bool"
        }
      ],
      "stateMutability": "view",
      "type": "function"
    },
    {
      "inputs": [
        {
          "internalType": "address",
          "name": "_worker",
          "type": "address"
        }
      ],
      "name": "isWorkerRegistered",
      "outputs": [
        {
          "internalType": "bool",
          "name": "passed",
          "type": "bool"
        }
      ],
      "stateMutability": "view",
      "type": "function"
    },
    {
      "inputs": [],
      "name": "owner",
      "outputs": [
        {
          "internalType": "address",
          "name": "",
          "type": "address"
        }
      ],
      "stateMutability": "view",
      "type": "function"
    },
    {
      "inputs": [
        {
          "internalType": "uint256",
          "name": "k",
          "type": "uint256"
        },
        {
          "internalType": "uint256",
          "name": "N",
          "type": "uint256"
        }
      ],
      "name": "random_selection",
      "outputs": [
        {
          "internalType": "uint256[]",
          "name": "",
          "type": "uint256[]"
        }
      ],
      "stateMutability": "view",
      "type": "function"
    },
    {
      "inputs": [],
      "name": "renounceOwnership",
      "outputs": [],
      "stateMutability": "nonpayable",
      "type": "function"
    },
    {
      "inputs": [
        {
          "internalType": "uint256",
          "name": "_numTokens",
          "type": "uint256"
        }
      ],
      "name": "requestVotingRights",
      "outputs": [],
      "stateMutability": "nonpayable",
      "type": "function"
    },
    {
      "inputs": [
        {
          "internalType": "uint256",
          "name": "_DataBatchId",
          "type": "uint256"
        }
      ],
      "name": "rescueTokens",
      "outputs": [],
      "stateMutability": "nonpayable",
      "type": "function"
    },
    {
      "inputs": [
        {
          "internalType": "uint256[]",
          "name": "_DataBatchIDs",
          "type": "uint256[]"
        }
      ],
      "name": "rescueTokensInMultipleDatas",
      "outputs": [],
      "stateMutability": "nonpayable",
      "type": "function"
    },
    {
      "inputs": [
        {
          "internalType": "uint256",
          "name": "_DataBatchId",
          "type": "uint256"
        },
        {
          "internalType": "uint256",
          "name": "_voteOption",
          "type": "uint256"
        },
        {
          "internalType": "uint256",
          "name": "_salt",
          "type": "uint256"
        }
      ],
      "name": "revealFormatCheck",
      "outputs": [],
      "stateMutability": "nonpayable",
      "type": "function"
    },
    {
      "inputs": [
        {
          "internalType": "uint256[]",
          "name": "_DataBatchIDs",
          "type": "uint256[]"
        },
        {
          "internalType": "uint256[]",
          "name": "_voteOptions",
          "type": "uint256[]"
        },
        {
          "internalType": "uint256[]",
          "name": "_salts",
          "type": "uint256[]"
        }
      ],
      "name": "revealFormatChecks",
      "outputs": [],
      "stateMutability": "nonpayable",
      "type": "function"
    },
    {
      "inputs": [
        {
          "internalType": "uint256",
          "name": "_DataBatchId",
          "type": "uint256"
        }
      ],
      "name": "revealPeriodActive",
      "outputs": [
        {
          "internalType": "bool",
          "name": "active",
          "type": "bool"
        }
      ],
      "stateMutability": "view",
      "type": "function"
    },
    {
      "inputs": [],
      "name": "sFuel",
      "outputs": [
        {
          "internalType": "address",
          "name": "",
          "type": "address"
        }
      ],
      "stateMutability": "view",
      "type": "function"
    },
    {
      "inputs": [
        {
          "internalType": "uint256",
          "name": "N",
          "type": "uint256"
        }
      ],
      "name": "shuffle_array",
      "outputs": [
        {
          "internalType": "uint256[]",
          "name": "",
          "type": "uint256[]"
        }
      ],
      "stateMutability": "view",
      "type": "function"
    },
    {
      "inputs": [],
      "name": "token",
      "outputs": [
        {
          "internalType": "contract IERC20",
          "name": "",
          "type": "address"
        }
      ],
      "stateMutability": "view",
      "type": "function"
    },
    {
      "inputs": [
        {
          "internalType": "address",
          "name": "newOwner",
          "type": "address"
        }
      ],
      "name": "transferOwnership",
      "outputs": [],
      "stateMutability": "nonpayable",
      "type": "function"
    },
    {
      "inputs": [
        {
          "internalType": "address",
          "name": "addr",
          "type": "address"
        }
      ],
      "name": "updateAddressManager",
      "outputs": [],
      "stateMutability": "nonpayable",
      "type": "function"
    },
    {
      "inputs": [
        {
          "internalType": "uint256",
          "name": "COMMIT_ROUND_DURATION_",
          "type": "uint256"
        }
      ],
      "name": "updateCommitRoundDuration",
      "outputs": [],
      "stateMutability": "nonpayable",
      "type": "function"
    },
    {
      "inputs": [
        {
          "internalType": "uint256",
          "name": "CONSENSUS_WORKER_SIZE_",
          "type": "uint256"
        }
      ],
      "name": "updateConsensusSize",
      "outputs": [],
      "stateMutability": "nonpayable",
      "type": "function"
    },
    {
      "inputs": [
        {
          "internalType": "uint256",
          "name": "size",
          "type": "uint256"
        }
      ],
      "name": "updateDataBachSize",
      "outputs": [],
      "stateMutability": "nonpayable",
      "type": "function"
    },
    {
      "inputs": [
        {
          "internalType": "address",
          "name": "addr",
          "type": "address"
        }
      ],
      "name": "updateRepManager",
      "outputs": [],
      "stateMutability": "nonpayable",
      "type": "function"
    },
    {
      "inputs": [
        {
          "internalType": "uint256",
          "name": "REVEAL_ROUND_DURATION_",
          "type": "uint256"
        }
      ],
      "name": "updateRevealRoundDuration",
      "outputs": [],
      "stateMutability": "nonpayable",
      "type": "function"
    },
    {
      "inputs": [
        {
          "internalType": "address",
          "name": "addr",
          "type": "address"
        }
      ],
      "name": "updateRewardManager",
      "outputs": [],
      "stateMutability": "nonpayable",
      "type": "function"
    },
    {
      "inputs": [
        {
          "internalType": "address",
          "name": "addr",
          "type": "address"
        }
      ],
      "name": "updateSpotManager",
      "outputs": [],
      "stateMutability": "nonpayable",
      "type": "function"
    },
    {
      "inputs": [
        {
          "internalType": "address",
          "name": "addr",
          "type": "address"
        }
      ],
      "name": "updateStakeManager",
      "outputs": [],
      "stateMutability": "nonpayable",
      "type": "function"
    },
    {
      "inputs": [
        {
          "internalType": "address",
          "name": "sFuel_",
          "type": "address"
        }
      ],
      "name": "updatesFuelFaucet",
      "outputs": [],
      "stateMutability": "nonpayable",
      "type": "function"
    },
    {
      "inputs": [
        {
          "internalType": "uint256",
          "name": "_prevID",
          "type": "uint256"
        },
        {
          "internalType": "uint256",
          "name": "_nextID",
          "type": "uint256"
        },
        {
          "internalType": "address",
          "name": "_voter",
          "type": "address"
        },
        {
          "internalType": "uint256",
          "name": "_numTokens",
          "type": "uint256"
        }
      ],
      "name": "validPosition",
      "outputs": [
        {
          "internalType": "bool",
          "name": "APPROVED",
          "type": "bool"
        }
      ],
      "stateMutability": "view",
      "type": "function"
    },
    {
      "inputs": [
        {
          "internalType": "uint256",
          "name": "_numTokens",
          "type": "uint256"
        }
      ],
      "name": "withdrawVotingRights",
      "outputs": [],
      "stateMutability": "nonpayable",
      "type": "function"
    }
  ],
  "bytecode": "0x60806040526001808055670de0b6b3a76400006005818155600691909155671bc16d674ec80000600755603c600855600955600060108190556011819055601980546001600160a01b0319167314f52f3fc010ab6ca81568d4a6794d5eab3c6155179055601a829055601b819055601c829055601d91909155601f553480156200008857600080fd5b506040516200707938038062007079833981016040819052620000ab9162000155565b620000bf620000b962000101565b62000105565b602080546001600160a01b0319166001600160a01b0392909216919091179055600060115568015af1d78b58c400006002556028600355601e60045562000185565b3390565b600080546001600160a01b038381166001600160a01b0319831681178455604051919092169283917f8be0079c531659141344cd1fd0a4f28419497f9722a3daafe3b4186f6b6457e09190a35050565b60006020828403121562000167578081fd5b81516001600160a01b03811681146200017e578182fd5b9392505050565b616ee480620001956000396000f3fe608060405234801561001057600080fd5b50600436106105ed5760003560e01c80639b07dbb91161031b578063d901402b116101a8578063ef4fcdad116100f4578063f716596d116100ad578063fc0c546a11610087578063fc0c546a14610c2d578063fca4956314610c35578063fea44eae14610c48578063ff7d787814610c5b576105ed565b8063f716596d14610c0a578063f721de4a14610c12578063f80a23fd14610c25576105ed565b8063ef4fcdad14610bb9578063f2d9e74d14610bc1578063f2fde38b14610bc9578063f4cdfcc414610bdc578063f5ae7c7d14610bef578063f60e738114610bf7576105ed565b8063df05368e11610161578063e798a7da1161013b578063e798a7da14610b60578063e7b1d43c14610b73578063e8e9b6f914610b86578063ed8becfa14610b99576105ed565b8063df05368e14610b32578063e44c974b14610b45578063e7805f9e14610b58576105ed565b8063d901402b14610acb578063d9548e5314610ade578063d9966ae814610af1578063db687c1714610b04578063dd61868214610b17578063deadefa714610b2a576105ed565b8063b43bd06911610267578063cb1c2b5c11610220578063d6b0206c116101fa578063d6b0206c14610a95578063d822ce0114610a9d578063d8645d3714610ab0578063d8b7567414610ab8576105ed565b8063cb1c2b5c14610a67578063d138209214610a6f578063d420ec0b14610a82576105ed565b8063b43bd06914610a00578063b7e4eba914610a13578063b8f011b314610a26578063c47c4bc214610a39578063c4e4f82a14610a4c578063c9b03a7214610a5f576105ed565b8063a511dba0116102d4578063aacc5a17116102ae578063aacc5a17146109bd578063ab43e78d146109c5578063b1a2e0be146109cd578063b1d7ea98146109e0576105ed565b8063a511dba01461098f578063a905779014610997578063aa7ca464146109aa576105ed565b80639b07dbb91461091d5780639fc9c52f14610930578063a0e71c1514610943578063a1103f3714610956578063a25236fe14610969578063a4439dc51461097c576105ed565b806351912f29116104995780637f9510a2116103e55780638473850b1161039e5780638df0296e116103785780638df0296e146108ef57806395f82a361461064857806397603560146109025780639acb75c114610915576105ed565b80638473850b146108b75780638c89d027146108bf5780638da5cb5b146108e7576105ed565b80637f9510a2146108425780637f97e8361461084a5780637fabe35b1461085d578063819b029314610889578063821aa8c01461089c57806383cc6ef2146108af576105ed565b80636b2d95d41161045257806376e8ea4f1161042c57806376e8ea4f146108225780637827e5491461082a578063796b89b9146108325780637a34da671461083a576105ed565b80636b2d95d4146107f4578063715018a61461080757806371880b1b1461080f576105ed565b806351912f2914610793578063580021581461079b5780635fd87909146107ae578063667bf0f8146107b65780636a192ff5146107be5780636b1485a3146107e1576105ed565b8063313066ee11610558578063427fa1d21161051157806348257dc9116104eb57806348257dc91461075257806349403183146107655780634d88428114610778578063515535e81461078b576105ed565b8063427fa1d214610724578063441c77c01461073757806347fe2d201461074a576105ed565b8063313066ee146106de5780633538af82146106e6578063353f44d0146106f9578063354dae401461070c57806339e7357c146107145780633ad2131f1461071c576105ed565b8063226ed300116105aa578063226ed3001461065b578063275c25901461067b57806329a47bc7146106835780632c052031146106985780632d917c68146106ab5780632f469fd1146106be576105ed565b806304dbcda7146105f2578063050eb2eb14610610578063053e71a6146106255780630e6661a7146106385780630e670feb146106405780631b85504414610648575b600080fd5b6105fa610c6e565b6040516106079190615bf1565b60405180910390f35b61062361061e366004615645565b610c74565b005b6105fa610633366004615a1e565b610cde565b6105fa610d44565b6105fa610d4a565b6105fa610656366004615abf565b610d50565b61066e610669366004615a1e565b610d84565b6040516106079190615d40565b610623610dc6565b61068b610eaf565b6040516106079190615c24565b6105fa6106a6366004615688565b610ebe565b61066e6106b936600461565f565b61105b565b6106d16106cc366004615a47565b61107b565b6040516106079190615d83565b6105fa611120565b61068b6106f4366004615a1e565b611126565b6105fa610707366004615645565b611150565b610623611162565b6105fa6112c2565b6105fa6112df565b6105fa610732366004615645565b6112e5565b61066e610745366004615a1e565b611385565b6105fa6113df565b61066e610760366004615a1e565b6113e5565b61066e610773366004615a1e565b61170e565b610623610786366004615645565b6119ff565b6105fa611a60565b61068b611a66565b6106236107a9366004615a1e565b611a75565b6105fa611ab9565b610623611abf565b6107d16107cc366004615a1e565b611ea6565b6040516106079493929190615dc0565b6106236107ef366004615a1e565b611f65565b6105fa610802366004615645565b6127f2565b610623612801565b6105fa61081d366004615a1e565b61284c565b6105fa612889565b6105fa61288f565b6105fa612895565b61068b612899565b6105fa6128a8565b61066e61085836600461565f565b6128bf565b61087061086b366004615a1e565b612912565b6040516106079d9c9b9a99989796959493929190616c2a565b61066e610897366004615ae0565b612a0b565b61068b6108aa366004615a1e565b612a4c565b61068b612a5c565b6105fa612a6b565b6108d26108cd366004615645565b612a71565b60405161060799989796959493929190615c38565b61068b612b59565b61068b6108fd366004615abf565b612b68565b610623610910366004615a1e565b612ba0565b6105fa612d4f565b61062361092b366004615a72565b612d55565b61062361093e36600461574f565b6131d1565b6105fa610951366004615a1e565b613223565b6105fa61096436600461565f565b613247565b610623610977366004615a1e565b61325c565b61066e61098a366004615a1e565b61335d565b6105fa61339f565b61066e6109a536600461586a565b6133a5565b61066e6109b836600461565f565b61340b565b6105fa61345e565b61068b613513565b61066e6109db366004615645565b613522565b6109f36109ee366004615abf565b613670565b6040516106079190615cfc565b6105fa610a0e366004615688565b613877565b610623610a21366004615a1e565b613963565b6109f3610a34366004615abf565b6139a7565b610623610a47366004615645565b613b0f565b6105fa610a5a366004615a1e565b613b70565b6105fa613bad565b6105fa613bb3565b6105fa610a7d36600461565f565b613bb9565b61066e610a9036600461565f565b613c4e565b6105fa613c6e565b61068b610aab36600461565f565b613c74565b61068b613c90565b6105fa610ac6366004615a47565b613c9f565b6105fa610ad936600461565f565b613cbc565b61066e610aec366004615a1e565b613d01565b610623610aff366004615a1e565b613d06565b610623610b12366004615645565b613d4a565b610623610b25366004615645565b613dab565b6105fa613e0c565b610623610b40366004615645565b613e12565b6109f3610b53366004615a1e565b613e73565b6105fa613eec565b61066e610b6e366004615645565b613ef2565b610623610b81366004615a1e565b613f13565b610623610b94366004615a1e565b61404f565b610bac610ba7366004615a1e565b614093565b6040516106079190615c9c565b6105fa6144d8565b6105fa6144de565b610623610bd7366004615645565b6144e4565b6105fa610bea3660046157f8565b614552565b6105fa614588565b610623610c05366004615b1c565b61458e565b61062361485d565b61066e610c20366004615a1e565b614a22565b61066e614a2a565b61068b614a43565b6105fa610c43366004615645565b614a52565b610623610c563660046156ba565b614b78565b610623610c693660046156ba565b614c59565b60055481565b610c7c614d52565b6001600160a01b0316610c8d612b59565b6001600160a01b031614610cbc5760405162461bcd60e51b8152600401610cb390616637565b60405180910390fd5b602380546001600160a01b0319166001600160a01b0392909216919091179055565b6000610ce982610d84565b610d055760405162461bcd60e51b8152600401610cb39061633c565b610d0e8261170e565b15610d2b57506000818152601e6020526040902060070154610d3f565b506000818152601e60205260409020600801545b919050565b60115481565b60065481565b60008282604051602001610d65929190615c16565b6040516020818303038152906040528051906020012090505b92915050565b6000610d8f82614a22565b610dab5760405162461bcd60e51b8152600401610cb390616a7c565b6000828152601e6020526040902060060154610d7e90613d01565b610dce614d56565b336000908152601260205260409020600781015460ff161515600114610e065760405162461bcd60e51b8152600401610cb390616245565b6000610e10612895565b9050610e1b33614ede565b610e2433615036565b8154336001600160a01b031991821681178455600180850180549093169091179091556005830182905560078301805460ff19169055601f8054600090610e6c908490616d70565b909155505060405133907f9dadcedba048e92b943ea1c5861cee1df63a566d7f795869c004780c1c698e2b90610ea3908490615bf1565b60405180910390a25050565b6022546001600160a01b031681565b600080610eca856112e5565b90506000610ed88683613bb9565b90505b811561105057610eeb8683613bb9565b9050848111610fa85783821415610fa0576001600160a01b0386166000908152600e602052604090819020905163215e94cf60e01b815273__$6ffa5bf1f4fa681f07e1987a80577d5f4e$__9163215e94cf91610f4d91908690600401615c16565b60206040518083038186803b158015610f6557600080fd5b505af4158015610f79573d6000803e3d6000fd5b505050506040513d601f19601f82011682018060405250810190610f9d9190615a36565b91505b509050611054565b6001600160a01b0386166000908152600e602052604090819020905163215e94cf60e01b815273__$6ffa5bf1f4fa681f07e1987a80577d5f4e$__9163215e94cf91610ff991908690600401615c16565b60206040518083038186803b15801561101157600080fd5b505af4158015611025573d6000803e3d6000fd5b505050506040513d601f19601f820116820180604052508101906110499190615a36565b9150610edb565b5090505b9392505050565b600a60209081526000928352604080842090915290825290205460ff1681565b600d6020908152600092835260408084209091529082529020805461109f90616e02565b80601f01602080910402602001604051908101604052809291908181526020018280546110cb90616e02565b80156111185780601f106110ed57610100808354040283529160200191611118565b820191906000526020600020905b8154815290600101906020018083116110fb57829003601f168201915b505050505081565b60105481565b6016818154811061113657600080fd5b6000918252602090912001546001600160a01b0316905081565b60146020526000908152604090205481565b601d546000908152601e602052604090206004015460ff1680611186575060165415155b6111a25760405162461bcd60e51b8152600401610cb390616420565b601d546000908152601e602052604081206004015462010000900460ff1615156001148015906111d3575060165415155b80156111f35750601d546000908152601e602052604090206004015460ff165b1561120457611200611abf565b5060015b601c546000908152601e602052604090206004015462010000900460ff16151560011480156112565750611239601c54610d84565b806112565750601c546000908152601e6020526040902060030154155b1561127b57611266601c54611f65565b601c54611274906001615166565b601c555060015b80156112935760105461128f906001615166565b6010555b6010546040517f94d48a7342690f1233e3f4db70efa37c4f1f25f4d0397c353f3f15aecdeca5f490600090a250565b60405160009080602081848060185afa6112d857fe5b5051919050565b60085481565b6001600160a01b0381166000908152600e6020526040808220905163215e94cf60e01b815273__$6ffa5bf1f4fa681f07e1987a80577d5f4e$__9163215e94cf9161133591908590600401615c16565b60206040518083038186803b15801561134d57600080fd5b505af4158015611361573d6000803e3d6000fd5b505050506040513d601f19601f82011682018060405250810190610d7e9190615a36565b600061139082614a22565b6113ac5760405162461bcd60e51b8152600401610cb3906167f5565b6000828152601e60205260409020600601546113c790613d01565b158015610d7e57506113d88261335d565b1592915050565b601c5490565b6025546000906001600160a01b0316156116ee5781601b541080156114875750602554604051637b90ef2560e11b81526001600160a01b039091169063f721de4a90611435908590600401615bf1565b602060405180830381600087803b15801561144f57600080fd5b505af1158015611463573d6000803e3d6000fd5b505050506040513d601f19601f8201168201806040525081019061148791906157de565b156116ee57602554604051631b308bf760e31b81526000916001600160a01b03169063d9845fb8906114bd908690600401615bf1565b600060405180830381600087803b1580156114d757600080fd5b505af11580156114eb573d6000803e3d6000fd5b505050506040513d6000823e601f3d908101601f1916820160405261151391908101906158ca565b610180810151909150600181600381111561153e57634e487b7160e01b600052602160045260246000fd5b14156116e65760408051608081018252610160840151815233602080830191909152428284015260006060830181905260115481526013825292909220815180519293919261159092849201906153de565b506020820151600182810180546001600160a01b0319166001600160a01b0390931692909217909155604083015160028301556060830151600380840180549293909260ff19169184908111156115f757634e487b7160e01b600052602160045260246000fd5b021790555050601a546000908152601e60205260409020600154600282015491925011156116465760018160020160008282546116349190616d70565b9091555050601154600182015561168b565b600481018054600160ff19909116811761ff001916909155601a8054600090611670908490616d70565b9091555050601154601a546000908152601e60205260409020555b611693611162565b6011546116a1906001616d70565b60118190556101608401516040517fe72ee44ad0ed1dfc338f7eec797c944eb218773c1edbb4bb653dd9c1e2a62304916116dc913390615d96565b60405180910390a2505b5050601b8290555b6001601f60008282546117019190616d70565b9091555060009392505050565b6000818152601e6020908152604080832081516101e0810183528154815260018201549381019390935260028101549183019190915260038101546060830152600481015460ff808216151560808501526101008083048216151560a08601526201000090920416151560c0840152600582015460e084015260068201549083015260078101546101208301526008810154610140830152600981018054849392916101608401916117bf90616e02565b80601f01602080910402602001604051908101604052809291908181526020018280546117eb90616e02565b80156118385780601f1061180d57610100808354040283529160200191611838565b820191906000526020600020905b81548152906001019060200180831161181b57829003601f168201915b5050509183525050600a82015460209091019060ff16600381111561186d57634e487b7160e01b600052602160045260246000fd5b600381111561188c57634e487b7160e01b600052602160045260246000fd5b8152602001600b8201805480602002602001604051908101604052809291908181526020016000905b828210156119615783829060005260206000200180546118d490616e02565b80601f016020809104026020016040519081016040528092919081815260200182805461190090616e02565b801561194d5780601f106119225761010080835404028352916020019161194d565b820191906000526020600020905b81548152906001019060200180831161193057829003601f168201915b5050505050815260200190600101906118b5565b505050508152602001600c82018054806020026020016040519081016040528092919081815260200182805480156119b857602002820191906000526020600020905b8154815260200190600101908083116119a4575b50505050508152505090508061014001518161012001516119d99190616d70565b6008546119e69190616d9c565b6101208201516119f7906064616d9c565b119392505050565b611a07614d52565b6001600160a01b0316611a18612b59565b6001600160a01b031614611a3e5760405162461bcd60e51b8152600401610cb390616637565b601980546001600160a01b0319166001600160a01b0392909216919091179055565b601a5490565b6023546001600160a01b031681565b611a7d614d52565b6001600160a01b0316611a8e612b59565b6001600160a01b031614611ab45760405162461bcd60e51b8152600401610cb390616637565b600455565b60045481565b601d546000908152601e602052604090206004015460ff16611af35760405162461bcd60e51b8152600401610cb390616712565b601d546000908152601e602052604090206004015462010000900460ff1615611b2e5760405162461bcd60e51b8152600401610cb39061656c565b6000611b4b611b44601680549050600954615172565b6001615188565b601654601d546000908152601e602052604081206003908101849055549293509091611b78904290615166565b90506000611b916004548361516690919063ffffffff16565b601d80546000908152601e6020526040808220600501869055825482528082206006018490559154815220600401805462ff0000191662010000179055905060018410801590611be2575060018310155b611bfe5760405162461bcd60e51b8152600401610cb3906160fb565b6000611c0a85856139a7565b9050600081516001600160401b03811115611c3557634e487b7160e01b600052604160045260246000fd5b604051908082528060200260200182016040528015611c5e578160200160208202803683370190505b50905060005b8251811015611d1d576016838281518110611c8f57634e487b7160e01b600052603260045260246000fd5b602002602001015181548110611cb557634e487b7160e01b600052603260045260246000fd5b9060005260206000200160009054906101000a90046001600160a01b0316828281518110611cf357634e487b7160e01b600052603260045260246000fd5b6001600160a01b039092166020928302919091019091015280611d1581616e3d565b915050611c64565b5060005b8251811015611e71576000828281518110611d4c57634e487b7160e01b600052603260045260246000fd5b6020908102919091018101516001600160a01b03811660008181526012845260408082206017805460018181019092557fc624b66cc0138b8fabc209247f72d758e1cf3343756d543badbf24212bed8c150180546001600160a01b03199081168717909155601d548552601888529284208054918201815584529590922090940180549094169091179092558451909250611e0e90859085908110611e0157634e487b7160e01b600052603260045260246000fd5b6020026020010151614ede565b601d8054600283015560038201805460ff19169055546040517fe4ee2dfabe57cee15e3f558890b20455f54c1fa0718e5276faad70a6500e6b8c90611e54908590615c24565b60405180910390a250508080611e6990616e3d565b915050611d21565b50601d54611e80906001615166565b601d819055506001601f6000828254611e999190616d70565b9091555050505050505050565b601360205260009081526040902080548190611ec190616e02565b80601f0160208091040260200160405190810160405280929190818152602001828054611eed90616e02565b8015611f3a5780601f10611f0f57610100808354040283529160200191611f3a565b820191906000526020600020905b815481529060010190602001808311611f1d57829003601f168201915b505050506001830154600284015460039094015492936001600160a01b039091169290915060ff1684565b611f6e81610d84565b80611f8857506000818152601e6020526040902060030154155b611fa45760405162461bcd60e51b8152600401610cb39061666c565b6000818152601e6020526040902060040154610100900460ff1615611fdb5760405162461bcd60e51b8152600401610cb3906168a8565b6000818152601e6020526040902060040154610100900460ff166127ef5760006120048261170e565b60008381526018602090815260408083208054825181850281018501909352808352949550929390929183018282801561206757602002820191906000526020600020905b81546001600160a01b03168152600190910190602001808311612049575b50505050509050600081516001600160401b0381111561209757634e487b7160e01b600052604160045260246000fd5b6040519080825280602002602001820160405280156120ca57816020015b60608152602001906001900390816120b55790505b50905060005b82518110156124565760008382815181106120fb57634e487b7160e01b600052603260045260246000fd5b6020908102919091018101516000888152600c835260408082206001600160a01b03841680845290855281832054600b86528284208c8552865282842054600d875283852092855291909552908220805493955060ff9091169261215e90616e02565b80601f016020809104026020016040519081016040528092919081815260200182805461218a90616e02565b80156121d75780601f106121ac576101008083540402835291602001916121d7565b820191906000526020600020905b8154815290600101906020018083116121ba57829003601f168201915b50505050509050808686815181106121ff57634e487b7160e01b600052603260045260246000fd5b602002602001018190525061221384615036565b6001600160a01b03841660009081526012602052604090208215612424576001600160a01b0385166000908152601260205260409020600301805460ff1916600190811790915589151514801561226a5750836001145b8061227f57508815801561227f575083600114155b156123c657602254600754604051630db6cc8560e11b81526001600160a01b0390921691631b6d990a916122b7918990600401616bf6565b602060405180830381600087803b1580156122d157600080fd5b505af11580156122e5573d6000803e3d6000fd5b505050506040513d601f19601f8201168201806040525081019061230991906157de565b6123255760405162461bcd60e51b8152600401610cb3906163d3565b602354600554604051633832942560e21b81526001600160a01b039092169163e0ca509491612358918990600401616bdf565b602060405180830381600087803b15801561237257600080fd5b505af1158015612386573d6000803e3d6000fd5b505050506040513d601f19601f820116820180604052508101906123aa91906157de565b6123c65760405162461bcd60e51b8152600401610cb3906161f6565b600781015460ff161561241f57601680546001810182556000919091527fd833147d7dc355ba459fc788f669e58cfaf9dc25ddcd0702e87d69c7b51242890180546001600160a01b0319166001600160a01b0387161790555b61243e565b600781015460ff161561243e5760078101805460ff191690555b5050505050808061244e90616e3d565b9150506120d0565b50600061247660648451603261246c9190616d9c565b611b449190616d88565b905060008260008151811061249b57634e487b7160e01b600052603260045260246000fd5b6020026020010151905060005b8351811015612591576000805b8551811015612546576125168684815181106124e157634e487b7160e01b600052603260045260246000fd5b602002602001015187838151811061250957634e487b7160e01b600052603260045260246000fd5b60200260200101516133a5565b1561253457612526600183616d70565b915084821061253457612546565b8061253e81616e3d565b9150506124b5565b5083811061257e5784828151811061256e57634e487b7160e01b600052603260045260246000fd5b6020026020010151925050612591565b508061258981616e3d565b9150506124a8565b506000868152601e6020908152604090912060048101805461ff00191661010017905582516125c8926009909201918401906153de565b50841561275e5760225460075460008881526013602052604090819020600101549051630db6cc8560e11b81526001600160a01b0393841693631b6d990a93612618939092911690600401616bf6565b602060405180830381600087803b15801561263257600080fd5b505af1158015612646573d6000803e3d6000fd5b505050506040513d601f19601f8201168201806040525081019061266a91906157de565b6126865760405162461bcd60e51b8152600401610cb390616988565b60235460055460008881526013602052604090819020600101549051633832942560e21b81526001600160a01b039384169363e0ca5094936126cf939092911690600401616bdf565b602060405180830381600087803b1580156126e957600080fd5b505af11580156126fd573d6000803e3d6000fd5b505050506040513d601f19601f8201168201806040525081019061272191906157de565b61273d5760405162461bcd60e51b8152600401610cb390616859565b6000868152601e60205260409020600a01805460ff1916600117905561277b565b6000868152601e60205260409020600a01805460ff191660021790555b6001601f600082825461278e9190616d70565b909155505060008681526013602052604090819020600181015491516001600160a01b03909216917fb83f08cf731092d35d6dd4801ac76e3fcc84b1b199915531c9874230d31adeaa916127e191615e01565b60405180910390a250505050505b50565b6000610d7e82610a7d846112e5565b612809614d52565b6001600160a01b031661281a612b59565b6001600160a01b0316146128405760405162461bcd60e51b8152600401610cb390616637565b61284a6000615198565b565b600061285782614a22565b6128735760405162461bcd60e51b8152600401610cb3906167f5565b506000908152601e602052604090206006015490565b60015481565b60075481565b4290565b6024546001600160a01b031681565b6017546016546000916128ba91616d70565b905090565b60006128ca82614a22565b6128e65760405162461bcd60e51b8152600401610cb3906167f5565b506001600160a01b03919091166000908152600a60209081526040808320938352929052205460ff1690565b601e60205260009081526040902080546001820154600283015460038401546004850154600586015460068701546007880154600889015460098a018054999a98999798969760ff8088169861010089048216986201000090049091169695949392909161297f90616e02565b80601f01602080910402602001604051908101604052809291908181526020018280546129ab90616e02565b80156129f85780601f106129cd576101008083540402835291602001916129f8565b820191906000526020600020905b8154815290600101906020018083116129db57829003601f168201915b505050600a909301549192505060ff168d565b600080612a188487613bb9565b83101590506000612a298587613bb9565b84111580612a35575085155b9050818015612a415750805b979650505050505050565b6017818154811061113657600080fd5b6021546001600160a01b031681565b601a5481565b60126020526000908152604090208054600182015460028301546003840154600485015460058601546006870180546001600160a01b03978816989690971696949560ff9094169492939192612ac690616e02565b80601f0160208091040260200160405190810160405280929190818152602001828054612af290616e02565b8015612b3f5780601f10612b1457610100808354040283529160200191612b3f565b820191906000526020600020905b815481529060010190602001808311612b2257829003601f168201915b505050506007830154600890930154919260ff1691905089565b6000546001600160a01b031690565b60186020528160005260406000208181548110612b8457600080fd5b6000918252602090912001546001600160a01b03169150829050565b60016000828152601e60205260409020600a015460ff166003811115612bd657634e487b7160e01b600052602160045260246000fd5b14612bf35760405162461bcd60e51b8152600401610cb390615ee2565b336000908152600e602052604090819020905163162a54af60e31b815273__$6ffa5bf1f4fa681f07e1987a80577d5f4e$__9163b152a57891612c3b91908590600401615c16565b60206040518083038186803b158015612c5357600080fd5b505af4158015612c67573d6000803e3d6000fd5b505050506040513d601f19601f82011682018060405250810190612c8b91906157de565b612ca75760405162461bcd60e51b8152600401610cb390616496565b336000908152600e6020526040908190209051634dab476560e01b815273__$6ffa5bf1f4fa681f07e1987a80577d5f4e$__91634dab476591612cef91908590600401615c16565b60006040518083038186803b158015612d0757600080fd5b505af4158015612d1b573d6000803e3d6000fd5b50506040513392508391507f402507661c8c8cb90e0a796450b8bdd28b6c516f05279c0cd29e84c344e1699a90600090a350565b60105490565b612d5d614d56565b612d668361335d565b612d825760405162461bcd60e51b8152600401610cb390616145565b82612d8c33614a52565b14612da95760405162461bcd60e51b8152600401610cb3906165c9565b60025433600090815260146020526040902054811115612deb5733600090815260146020526040812054612dde9083906151e8565b9050612de98161325c565b505b33600090815260146020526040902054811115612e1a5760405162461bcd60e51b8152600401610cb39061692b565b6000336000908152600e60205260408082209051631b23afef60e21b815273__$6ffa5bf1f4fa681f07e1987a80577d5f4e$__91636c8ebfbc91612e6391908690600401615c16565b60206040518083038186803b158015612e7b57600080fd5b505af4158015612e8f573d6000803e3d6000fd5b505050506040513d601f19601f82011682018060405250810190612eb39190615a36565b905085811415612f5857336000908152600e6020526040908190209051631b23afef60e21b815273__$6ffa5bf1f4fa681f07e1987a80577d5f4e$__91636c8ebfbc91612f0591908a90600401615c16565b60206040518083038186803b158015612f1d57600080fd5b505af4158015612f31573d6000803e3d6000fd5b505050506040513d601f19601f82011682018060405250810190612f559190615a36565b90505b612f6482823386612a0b565b612f805760405162461bcd60e51b8152600401610cb39061653e565b336000908152600e602052604090819020905163f3a1998360e01b815273__$6ffa5bf1f4fa681f07e1987a80577d5f4e$__9163f3a1998391612fcc919086908b908790600401616bc4565b60006040518083038186803b158015612fe457600080fd5b505af4158015612ff8573d6000803e3d6000fd5b5050505060006130083388613247565b60408051808201825260098152686e756d546f6b656e7360b81b60208201529051633416d70d60e21b81529192509073__$d865f21674766f31b0d600e4a95b721b57$__9063d05b5c349061306890600f90869086908b90600401616b19565b60006040518083038186803b15801561308057600080fd5b505af4158015613094573d6000803e3d6000fd5b5050604051633416d70d60e21b815273__$d865f21674766f31b0d600e4a95b721b57$__925063d05b5c3491506130d490600f9086908c90600401616b67565b60006040518083038186803b1580156130ec57600080fd5b505af4158015613100573d6000803e3d6000fd5b5050506000898152600d602090815260408083203384528252909120885161312d935090918901906153de565b50336000908152601260205260409020613145612895565b6005820155336000908152600a602090815260408083208c84529091528120805460ff19166001908117909155601f805491929091613185908490616d70565b909155505060405133908a907f1b5c5140592c554fa4c0cdb5b3d3cd50f87aa84e477afd0b6c93d7702ef9c73c906131be908a90615bf1565b60405180910390a3505050505050505050565b60005b815181101561321f5761320d82828151811061320057634e487b7160e01b600052603260045260246000fd5b6020026020010151612ba0565b8061321781616e3d565b9150506131d4565b5050565b6000818152601e602052604081206008810154600790910154829161105491616d70565b60008282604051602001610d65929190615bcf565b6021546040516304ada21f60e21b81526001600160a01b03909116906312b6887c9061328e9084903390600401616bdf565b602060405180830381600087803b1580156132a857600080fd5b505af11580156132bc573d6000803e3d6000fd5b505050506040513d601f19601f820116820180604052508101906132e091906157de565b6132fc5760405162461bcd60e51b8152600401610cb390616290565b336000908152601460205260408120805483929061331b908490616d70565b909155505060405133907ff7aaf024511d9982df8cd0d437c71c30106e6848cd1ba3d288d7a9c0e276aeda90613352908490615bf1565b60405180910390a250565b600061336882614a22565b6133845760405162461bcd60e51b8152600401610cb3906167f5565b6000828152601e60205260409020600501546113d890613d01565b60115490565b6000816040516020016133b89190615bfa565b60405160208183030381529060405280519060200120836040516020016133df9190615bfa565b60405160208183030381529060405280519060200120141561340357506001610d7e565b506000610d7e565b600061341682614a22565b6134325760405162461bcd60e51b8152600401610cb3906167f5565b506001600160a01b03919091166000908152600b60209081526040808320938352929052205460ff1690565b60008042416040516020016134739190615bb2565b6040516020818303038152906040528051906020012060001c6134969190616d88565b4461349f6112c2565b6040516020016134af9190615bf1565b60408051601f1981840301815291905280516020909101206134d19042616d70565b6134db9190616d70565b6134e59190616d70565b6040516020016134f59190615bf1565b60408051601f19818403018152919052805160209091012091505090565b6019546001600160a01b031681565b6001600160a01b038082166000908152601260209081526040808320815161012081018352815486168152600182015490951692850192909252600282015490840152600381015460ff161515606084015260048101546080840152600581015460a0840152600681018054929384938493919260c08401916135a490616e02565b80601f01602080910402602001604051908101604052809291908181526020018280546135d090616e02565b801561361d5780601f106135f25761010080835404028352916020019161361d565b820191906000526020600020905b81548152906001019060200180831161360057829003601f168201915b5050509183525050600782015460ff1615156020820152600890910154604090910152606081015190915015801561365f575061365d8160400151610d84565b155b1561366957600191505b5092915050565b60606000821161367f57600080fd5b6000416040516020016136929190615bb2565b6040516020818303038152906040528051906020012060001c6136b36112c2565b6040516020016136c39190615bf1565b60408051601f1981840301815291905280516020909101206136e59042616d70565b6136ef9190616d70565b6040516020016136ff9190615bf1565b6040516020818303038152906040528051906020012060001c90506000846001600160401b0381111561374257634e487b7160e01b600052604160045260246000fd5b60405190808252806020026020018201604052801561376b578160200160208202803683370190505b5090506000805b8682101561386c5760008661378b63017efeeb87616dbb565b8360405160200161379d929190615c16565b6040516020818303038152906040528051906020012060001c6137c09190616e58565b90506000805b8481101561381857828682815181106137ef57634e487b7160e01b600052603260045260246000fd5b602002602001015114156138065760019150613818565b8061381081616e3d565b9150506137c6565b5080613858578185858151811061383f57634e487b7160e01b600052603260045260246000fd5b6020908102919091010152613855846001616d70565b93505b613863836001616d70565b92505050613772565b509095945050505050565b600061388283610d84565b61389e5760405162461bcd60e51b8152600401610cb3906169d5565b6001600160a01b0384166000908152600b6020908152604080832086845290915290205460ff166138e15760405162461bcd60e51b8152600401610cb3906164f3565b60006138ec8461170e565b6138f75760006138fa565b60015b60ff16905060008184604051602001613914929190615c16565b60405160208183030381529060405280519060200120905060006139388787613cbc565b90508082146139595760405162461bcd60e51b8152600401610cb3906166c9565b612a418787613bb9565b61396b614d52565b6001600160a01b031661397c612b59565b6001600160a01b0316146139a25760405162461bcd60e51b8152600401610cb390616637565b600155565b60606000821180156139b95750818311155b80156139c6575060018310155b6139e25760405162461bcd60e51b8152600401610cb3906160b2565b6000826001600160401b03811115613a0a57634e487b7160e01b600052604160045260246000fd5b604051908082528060200260200182016040528015613a33578160200160208202803683370190505b5090506000846001600160401b03811115613a5e57634e487b7160e01b600052604160045260246000fd5b604051908082528060200260200182016040528015613a87578160200160208202803683370190505b5090506000613a9d613a98846151f4565b61524a565b905060005b8681101561386c57818181518110613aca57634e487b7160e01b600052603260045260246000fd5b6020026020010151838281518110613af257634e487b7160e01b600052603260045260246000fd5b602090810291909101015280613b0781616e3d565b915050613aa2565b613b17614d52565b6001600160a01b0316613b28612b59565b6001600160a01b031614613b4e5760405162461bcd60e51b8152600401610cb390616637565b602480546001600160a01b0319166001600160a01b0392909216919091179055565b6000613b7b82614a22565b613b975760405162461bcd60e51b8152600401610cb3906167f5565b506000908152601e602052604090206005015490565b60095481565b60025481565b600073__$d865f21674766f31b0d600e4a95b721b57$__6362e02a2a600f613be18686613247565b6040518363ffffffff1660e01b8152600401613bfe929190616b95565b60206040518083038186803b158015613c1657600080fd5b505af4158015613c2a573d6000803e3d6000fd5b505050506040513d601f19601f820116820180604052508101906110549190615a36565b600b60209081526000928352604080842090915290825290205460ff1681565b601d5481565b60156020528160005260406000208181548110612b8457600080fd5b6025546001600160a01b031681565b600c60209081526000928352604080842090915290825290205481565b600073__$d865f21674766f31b0d600e4a95b721b57$__6362e02a2a600f613ce48686613247565b6040518363ffffffff1660e01b8152600401613bfe929190616b49565b421190565b613d0e614d52565b6001600160a01b0316613d1f612b59565b6001600160a01b031614613d455760405162461bcd60e51b8152600401610cb390616637565b600955565b613d52614d52565b6001600160a01b0316613d63612b59565b6001600160a01b031614613d895760405162461bcd60e51b8152600401610cb390616637565b602580546001600160a01b0319166001600160a01b0392909216919091179055565b613db3614d52565b6001600160a01b0316613dc4612b59565b6001600160a01b031614613dea5760405162461bcd60e51b8152600401610cb390616637565b602280546001600160a01b0319166001600160a01b0392909216919091179055565b601b5481565b613e1a614d52565b6001600160a01b0316613e2b612b59565b6001600160a01b031614613e515760405162461bcd60e51b8152600401610cb390616637565b602180546001600160a01b0319166001600160a01b0392909216919091179055565b606060008211613e8257600080fd5b6000826001600160401b03811115613eaa57634e487b7160e01b600052604160045260246000fd5b604051908082528060200260200182016040528015613ed3578160200160208202803683370190505b5090506000613ee4613a98836151f4565b949350505050565b60035481565b6001600160a01b031660009081526012602052604090206007015460ff1690565b6000613f37613f21336127f2565b33600090815260146020526040902054906151e8565b905081811015613f595760405162461bcd60e51b8152600401610cb3906167ae565b602154604051630895993360e11b81526001600160a01b039091169063112b326690613f8b9085903390600401616bdf565b602060405180830381600087803b158015613fa557600080fd5b505af1158015613fb9573d6000803e3d6000fd5b505050506040513d601f19601f82011682018060405250810190613fdd91906157de565b613ff95760405162461bcd60e51b8152600401610cb390616a1f565b3360009081526014602052604081208054849290614018908490616dbb565b909155505060405133907ffaeb7dbb9992397d26ea1944efd40c80b40f702faf69b46c67ad10aba68ccb7990610ea3908590615bf1565b614057614d52565b6001600160a01b0316614068612b59565b6001600160a01b03161461408e5760405162461bcd60e51b8152600401610cb390616637565b600355565b606061409e82614a22565b6140ba5760405162461bcd60e51b8152600401610cb3906167f5565b6000828152601e6020908152604080832081516101e0810183528154815260018201549381019390935260028101549183019190915260038101546060830152600481015460ff808216151560808501526101008083048216151560a08601526201000090920416151560c0840152600582015460e0840152600682015490830152600781015461012083015260088101546101408301526009810180546101608401919061416890616e02565b80601f016020809104026020016040519081016040528092919081815260200182805461419490616e02565b80156141e15780601f106141b6576101008083540402835291602001916141e1565b820191906000526020600020905b8154815290600101906020018083116141c457829003601f168201915b5050509183525050600a82015460209091019060ff16600381111561421657634e487b7160e01b600052602160045260246000fd5b600381111561423557634e487b7160e01b600052602160045260246000fd5b8152602001600b8201805480602002602001604051908101604052809291908181526020016000905b8282101561430a57838290600052602060002001805461427d90616e02565b80601f01602080910402602001604051908101604052809291908181526020018280546142a990616e02565b80156142f65780601f106142cb576101008083540402835291602001916142f6565b820191906000526020600020905b8154815290600101906020018083116142d957829003601f168201915b50505050508152602001906001019061425e565b505050508152602001600c820180548060200260200160405190810160405280929190818152602001828054801561436157602002820191906000526020600020905b81548152602001906001019080831161434d575b505050505081525050905060008160400151905060006001546001600160401b0381111561439f57634e487b7160e01b600052604160045260246000fd5b6040519080825280602002602001820160405280156143d257816020015b60608152602001906001900390816143bd5790505b50905060005b828110156144cf5783516000906143f0908390616d70565b60008181526013602052604081208054929350909161440e90616e02565b80601f016020809104026020016040519081016040528092919081815260200182805461443a90616e02565b80156144875780601f1061445c57610100808354040283529160200191614487565b820191906000526020600020905b81548152906001019060200180831161446a57829003601f168201915b50505050509050808484815181106144af57634e487b7160e01b600052603260045260246000fd5b6020026020010181905250505080806144c790616e3d565b9150506143d8565b50949350505050565b601c5481565b601f5481565b6144ec614d52565b6001600160a01b03166144fd612b59565b6001600160a01b0316146145235760405162461bcd60e51b8152600401610cb390616637565b6001600160a01b0381166145495760405162461bcd60e51b8152600401610cb39061606c565b6127ef81615198565b600083838360405160200161456993929190615d4b565b6040516020818303038152906040528051906020012090509392505050565b601f5490565b614596614d56565b61459f83611385565b6145bb5760405162461bcd60e51b8152600401610cb390616768565b336000908152600a6020908152604080832086845290915290205460ff166145f55760405162461bcd60e51b8152600401610cb3906162ed565b6145ff3384613cbc565b6146098383610d50565b146146265760405162461bcd60e51b8152600401610cb390615fe9565b60006146323385613bb9565b90508260011415614669576000848152601e60205260408120600701805483929061465e908490616d70565b909155506146909050565b6000848152601e60205260408120600801805483929061468a908490616d70565b90915550505b336000908152600e6020526040908190209051634dab476560e01b815273__$6ffa5bf1f4fa681f07e1987a80577d5f4e$__91634dab4765916146d891908890600401615c16565b60006040518083038186803b1580156146f057600080fd5b505af4158015614704573d6000803e3d6000fd5b5050336000818152600b602090815260408083208a84528252808320805460ff19166001908117909155600c8352818420948452938252808320899055601282528083208a8452601e909252909120600301549093506147659250906151e8565b6000868152601e602052604090206003908101919091558101805460ff19166001179055614791612895565b600582015561479f33615036565b601680546001818101835560009283527fd833147d7dc355ba459fc788f669e58cfaf9dc25ddcd0702e87d69c7b512428990910180546001600160a01b03191633179055601f8054919290916147f6908490616d70565b90915550506000858152601e602052604090819020600781015460089091015491513392879289927f2e5fbeef18eaa8d8ea3b0122bc64445c4daaa6f454dfb889456791a92287f3789261484e928992909190616c14565b60405180910390a45050505050565b614865614d56565b3360009081526012602052604090206017546016546103e89161488791616d70565b106148a45760405162461bcd60e51b8152600401610cb3906168e9565b600781015460ff16156148c95760405162461bcd60e51b8152600401610cb390615eab565b60006148d3612895565b6002543360009081526014602052604090205491925090811115614919573360009081526014602052604081205461490c9083906151e8565b90506149178161325c565b505b336000908152601460205260409020548111156149485760405162461bcd60e51b8152600401610cb39061636a565b60168054600180820183556000929092527fd833147d7dc355ba459fc788f669e58cfaf9dc25ddcd0702e87d69c7b5124289018054336001600160a01b031991821681179092558554811682178655918501805490921617905560058301829055600783015460ff166149cb5760078301805460ff191660011790554260088401555b6001601f60008282546149de9190616d70565b909155505060405133907f439d77b7534ec3108fc6143bd4fbabde0b9f2bb54f7b0730d1f70dd2135b765f90614a15908590615bf1565b60405180910390a2505050565b601a54101590565b3360009081526012602052604090206007015460ff1690565b6020546001600160a01b031681565b6001600160a01b038082166000908152601260209081526040808320815161012081018352815486168152600182015490951692850192909252600282015490840152600381015460ff161515606084015260048101546080840152600581015460a08401526006810180549293849390929160c0840191614ad390616e02565b80601f0160208091040260200160405190810160405280929190818152602001828054614aff90616e02565b8015614b4c5780601f10614b2157610100808354040283529160200191614b4c565b820191906000526020600020905b815481529060010190602001808311614b2f57829003601f168201915b5050509183525050600782015460ff161515602082015260089091015460409182015201519392505050565b848314614b975760405162461bcd60e51b8152600401610cb39061617c565b848114614bb65760405162461bcd60e51b8152600401610cb390616aa5565b60005b85811015614c5057614c3e878783818110614be457634e487b7160e01b600052603260045260246000fd5b90506020020135868684818110614c0b57634e487b7160e01b600052603260045260246000fd5b90506020020135858585818110614c3257634e487b7160e01b600052603260045260246000fd5b9050602002013561458e565b80614c4881616e3d565b915050614bb9565b50505050505050565b848314614c785760405162461bcd60e51b8152600401610cb390615f78565b60005b85811015614c5057614d40878783818110614ca657634e487b7160e01b600052603260045260246000fd5b90506020020135868684818110614ccd57634e487b7160e01b600052603260045260246000fd5b90506020020135858585818110614cf457634e487b7160e01b600052603260045260246000fd5b9050602002810190614d069190616cad565b8080601f016020809104026020016040519081016040528093929190818152602001838380828437600092019190915250612d5592505050565b80614d4a81616e3d565b915050614c7b565b3390565b6019546001600160a01b0316614d7e5760405162461bcd60e51b8152600401610cb39061682c565b6019546040516000916001600160a01b031690614d9f903390602401615c24565b60408051601f198184030181529181526020820180516001600160e01b0316631f5ac9c560e11b17905251614dd49190615bfa565b6000604051808303816000865af19150503d8060008114614e11576040519150601f19603f3d011682016040523d82523d6000602084013e614e16565b606091505b50506019546040519192506000916001600160a01b0390911690614e3e903390602401615c24565b60408051601f198184030181529181526020820180516001600160e01b03166358563d2160e01b17905251614e739190615bfa565b6000604051808303816000865af19150503d8060008114614eb0576040519150601f19603f3d011682016040523d82523d6000602084013e614eb5565b606091505b505090508180614ec25750805b61321f5760405162461bcd60e51b8152600401610cb390615f33565b60008060005b601654811015614f5257836001600160a01b031660168281548110614f1957634e487b7160e01b600052603260045260246000fd5b6000918252602090912001546001600160a01b03161415614f405760019150809250614f52565b80614f4a81616e3d565b915050614ee4565b5080156150315760168054614f6990600190616dbb565b81548110614f8757634e487b7160e01b600052603260045260246000fd5b600091825260209091200154601680546001600160a01b039092169184908110614fc157634e487b7160e01b600052603260045260246000fd5b9060005260206000200160006101000a8154816001600160a01b0302191690836001600160a01b03160217905550601680548061500e57634e487b7160e01b600052603160045260246000fd5b600082815260209020810160001990810180546001600160a01b03191690550190555b505050565b60008060005b6017548110156150aa57836001600160a01b03166017828154811061507157634e487b7160e01b600052603260045260246000fd5b6000918252602090912001546001600160a01b0316141561509857600191508092506150aa565b806150a281616e3d565b91505061503c565b50801561503157601780546150c190600190616dbb565b815481106150df57634e487b7160e01b600052603260045260246000fd5b600091825260209091200154601780546001600160a01b03909216918490811061511957634e487b7160e01b600052603260045260246000fd5b9060005260206000200160006101000a8154816001600160a01b0302191690836001600160a01b03160217905550601780548061500e57634e487b7160e01b600052603160045260246000fd5b60006110548284616d70565b60008183106151815781611054565b5090919050565b6000818310156151815781611054565b600080546001600160a01b038381166001600160a01b0319831681178455604051919092169283917f8be0079c531659141344cd1fd0a4f28419497f9722a3daafe3b4186f6b6457e09190a35050565b60006110548284616dbb565b805160609060005b81811015615242578084828151811061522557634e487b7160e01b600052603260045260246000fd5b60209081029190910101528061523a81616e3d565b9150506151fc565b509192915050565b6060600082511161525a57600080fd5b81518060005b818110156153d55760008361527361345e565b87848151811061529357634e487b7160e01b600052603260045260246000fd5b60200260200101516040516020016152ac929190615c16565b6040516020818303038152906040528051906020012060001c6152cf9190616e58565b6152da906001616d70565b90506000866152ea600184616dbb565b8151811061530857634e487b7160e01b600052603260045260246000fd5b60200260200101519050866001866153209190616dbb565b8151811061533e57634e487b7160e01b600052603260045260246000fd5b6020026020010151876001846153549190616dbb565b8151811061537257634e487b7160e01b600052603260045260246000fd5b6020908102919091010152808761538a600188616dbb565b815181106153a857634e487b7160e01b600052603260045260246000fd5b60209081029190910101526153be600186616dbb565b9450505080806153cd90616e3d565b915050615260565b50929392505050565b8280546153ea90616e02565b90600052602060002090601f01602090048101928261540c5760008555615452565b82601f1061542557805160ff1916838001178555615452565b82800160010185558215615452579182015b82811115615452578251825591602001919060010190615437565b5061545e929150615462565b5090565b5b8082111561545e5760008155600101615463565b80356001600160a01b0381168114610d3f57600080fd5b60008083601f84011261549f578182fd5b5081356001600160401b038111156154b5578182fd5b60208301915083602080830285010111156154cf57600080fd5b9250929050565b600082601f8301126154e6578081fd5b815160206154fb6154f683616d1a565b616cf1565b82815281810190858301855b858110156155305761551e898684518b0101615602565b84529284019290840190600101615507565b5090979650505050505050565b600082601f83011261554d578081fd5b8151602061555d6154f683616d1a565b8281528181019085830183850287018401881015615579578586fd5b855b858110156155305781518452928401929084019060010161557b565b80518015158114610d3f57600080fd5b805160048110610d3f57600080fd5b600082601f8301126155c6578081fd5b81356155d46154f682616d3d565b8181528460208386010111156155e8578283fd5b816020850160208301379081016020019190915292915050565b600082601f830112615612578081fd5b81516156206154f682616d3d565b818152846020838601011115615634578283fd5b613ee4826020830160208701616dd2565b600060208284031215615656578081fd5b61105482615477565b60008060408385031215615671578081fd5b61567a83615477565b946020939093013593505050565b60008060006060848603121561569c578081fd5b6156a584615477565b95602085013595506040909401359392505050565b600080600080600080606087890312156156d2578384fd5b86356001600160401b03808211156156e8578586fd5b6156f48a838b0161548e565b9098509650602089013591508082111561570c578586fd5b6157188a838b0161548e565b90965094506040890135915080821115615730578384fd5b5061573d89828a0161548e565b979a9699509497509295939492505050565b60006020808385031215615761578182fd5b82356001600160401b03811115615776578283fd5b8301601f81018513615786578283fd5b80356157946154f682616d1a565b81815283810190838501858402850186018910156157b0578687fd5b8694505b838510156157d25780358352600194909401939185019185016157b4565b50979650505050505050565b6000602082840312156157ef578081fd5b61105482615597565b60008060006040848603121561580c578081fd5b83356001600160401b0380821115615822578283fd5b818601915086601f830112615835578283fd5b813581811115615843578384fd5b876020828501011115615854578384fd5b6020928301989097509590910135949350505050565b6000806040838503121561587c578182fd5b82356001600160401b0380821115615892578384fd5b61589e868387016155b6565b935060208501359150808211156158b3578283fd5b506158c0858286016155b6565b9150509250929050565b6000602082840312156158db578081fd5b81516001600160401b03808211156158f1578283fd5b81840191506101e0808387031215615907578384fd5b61591081616cf1565b90508251815260208301516020820152604083015160408201526060830151606082015261594060808401615597565b608082015261595160a08401615597565b60a082015261596260c08401615597565b60c082015260e0838101519082015261010080840151908201526101208084015190820152610140808401519082015261016080840151838111156159a5578586fd5b6159b188828701615602565b8284015250506101806159c58185016155a7565b908201526101a083810151838111156159dc578586fd5b6159e8888287016154d6565b8284015250506101c08084015183811115615a01578586fd5b615a0d8882870161553d565b918301919091525095945050505050565b600060208284031215615a2f578081fd5b5035919050565b6000602082840312156112d8578081fd5b60008060408385031215615a59578182fd5b82359150615a6960208401615477565b90509250929050565b600080600060608486031215615a86578081fd5b833592506020840135915060408401356001600160401b03811115615aa9578182fd5b615ab5868287016155b6565b9150509250925092565b60008060408385031215615ad1578182fd5b50508035926020909101359150565b60008060008060808587031215615af5578182fd5b8435935060208501359250615b0c60408601615477565b9396929550929360600135925050565b600080600060608486031215615b30578081fd5b505081359360208301359350604090920135919050565b60048110615b6557634e487b7160e01b600052602160045260246000fd5b9052565b60008151808452615b81816020860160208601616dd2565b601f01601f19169290920160200192915050565b600a8152690c6dedadad2e890c2e6d60b31b602082015260400190565b60609190911b6bffffffffffffffffffffffff1916815260140190565b60609290921b6bffffffffffffffffffffffff19168252601482015260340190565b90815260200190565b60008251615c0c818460208701616dd2565b9190910192915050565b918252602082015260400190565b6001600160a01b0391909116815260200190565b6001600160a01b038a81168252891660208201526040810188905286151560608201526080810186905260a0810185905261012060c08201819052600090615c8283820187615b69565b94151560e084015250506101000152979650505050505050565b6000602080830181845280855180835260408601915060408482028701019250838701855b82811015615cef57603f19888603018452615cdd858351615b69565b94509285019290850190600101615cc1565b5092979650505050505050565b6020808252825182820181905260009190848201906040850190845b81811015615d3457835183529284019291840191600101615d18565b50909695505050505050565b901515815260200190565b6000604082528360408301528385606084013780606085840101526060601f19601f8601168301019050826020830152949350505050565b6000602082526110546020830184615b69565b600060408252615da96040830185615b69565b905060018060a01b03831660208301529392505050565b600060808252615dd36080830187615b69565b6001600160a01b0386166020840152604083018590529050615df86060830184615b47565b95945050505050565b6000602080835281845483600282049050600180831680615e2357607f831692505b858310811415615e4157634e487b7160e01b87526022600452602487fd5b615e4d83878a01615bf1565b818015615e615760018114615e7257615e9c565b60ff19861682528782019650615e9c565b615e7b8b616d64565b895b86811015615e9657815484820152908501908901615e7d565b83019750505b50949998505050505050505050565b6020808252601c908201527f576f726b657220697320616c7265616479207265676973746572656400000000604082015260600190565b60208082526031908201527f676976656e204461746142617463682073686f756c6420626520415050524f5660408201527011510b08185b99081a5d081a5cc81b9bdd607a1b606082015260800190565b60208082526025908201527f72656365697665722072656a6563746564205f7265747269657665534675656c6040820152640818d85b1b60da1b606082015260800190565b6020808252604b908201527f4572726f72207768656e20636f6d6d6974466f726d6174436865636b733a205f60408201527f4461746142617463684944732e6c656e677468203d3d205f736563726574486160608201526a0e6d0cae65cd8cadccee8d60ab1b608082015260a00190565b6020808252605c908201527f4e6f74207468652073616d6520766f7465207468616e2077686174207761732060408201527f636f6d6d697465642c20696d706f737369626c6520746f206d6174636820776960608201527f746820676976656e205f73616c742026205f766f74654f7074696f6e00000000608082015260a00190565b60208082526026908201527f4f776e61626c653a206e6577206f776e657220697320746865207a65726f206160408201526564647265737360d01b606082015260800190565b60208082526029908201527f6b206f72204e20617265206e6f74204f4b20647572696e672072616e646f6d2060408201526839b2b632b1ba34b7b760b91b606082015260800190565b6020808252602a908201527f4661696c20647572696e6720616c6c6f636174696f6e3a206e6f7420656e6f75604082015269676820776f726b65727360b01b606082015260800190565b6020808252601e908201527f636f6d6d697420706572696f64206e6565647320746f206265206f70656e0000604082015260600190565b60208082526054908201527f4572726f722072657665616c466f726d6174436865636b733a205f446174614260408201527f617463684944732e6c656e67746820616e64205f766f74654f7074696f6e732e6060820152731b195b99dd1a081b5d5cdd08189948195c5d585b60621b608082015260a00190565b6020808252602f908201527f636f756c64206e6f742072657761726420746f6b656e20696e2054726967676560408201526e3921b432b1b5a9b837ba161018973160891b606082015260800190565b6020808252602b908201527f576f726b6572206973206e6f7420617661696c61626c6520736f2063616e277460408201526a103ab73932b3b4b9ba32b960a91b606082015260800190565b6020808252603d908201527f436f756c64206e6f74207265717565737420656e6f75676820616c6c6f63617460408201527f6564207374616b652c2072657175657374566f74696e67526967687473000000606082015260800190565b6020808252602f908201527f5573657220686173206e6f7420636f6d6d69746564206265666f72652c20746860408201526e1d5cc818d85b89dd081c995d99585b608a1b606082015260800190565b60208082526014908201527311185d18481b5d5cdd081a185d9948195b99195960621b604082015260600190565b60208082526043908201527f576f726b657220686173206e6f7420656e6f75676820285f6e756d546f6b656e60408201527f732920696e2068697320466f726d61745374616b6564546f6b656e42616c616e606082015262031b2960ed1b608082015260a00190565b6020808252602d908201527f636f756c64206e6f74207265776172642052455020696e20547269676765724360408201526c6865636b53706f742c20312e6160981b606082015260800190565b60208082526050908201527f547269676765724e65787445706f63683a2061206261746368206d757374206260408201527f6520636f6d706c657465642c206f7220656e6f75676820776f726b657273206d60608201526f75737420626520617661696c61626c6560801b608082015260a00190565b60208082526039908201527f646c6c4d61703a20646f6573206e6f7420636f696e7461696e205f446174614260408201527f61746368496420666f7220746865206d73672073656e64657200000000000000606082015260800190565b6020808252602b908201527f75736572206d75737420686176652072657665616c656420696e20746869732060408201526a0ced2eccadc4084c2e8c6d60ab1b606082015260800190565b6020808252601490820152733737ba1030903b30b634b2103837b9b4ba34b7b760611b604082015260600190565b6020808252603b908201527f43616e277420616c6c6f6361746520776f726b2c207468652063757272656e7460408201527f20626174636820697320616c726561647920616c6c6f63617465640000000000606082015260800190565b60208082526048908201527f55736572206e6565647320746f2068617665206265656e20616c6c6f6361746560408201527f64207468652063757272656e74206461746120626174636820746f20636f6d6d6060820152671a5d081bdb881a5d60c21b608082015260a00190565b6020808252818101527f4f776e61626c653a2063616c6c6572206973206e6f7420746865206f776e6572604082015260600190565b6020808252603a908201527f5f446174614261746368496420686173206e6f7420656e6465642c206f72206e60408201527f6f7420657665727920766f74657273206861766520766f746564000000000000606082015260800190565b60208082526029908201527f6765744e756d50617373696e67546f6b656e733a20686173686573206d75737460408201526808189948195c5d585b60ba1b606082015260800190565b60208082526036908201527f43616e277420616c6c6f6361746520776f726b2c207468652063757272656e74604082015275206261746368206973206e6f7420636f6d706c65746560501b606082015260800190565b60208082526026908201527f52657665616c20706572696f64206e6f74206f70656e20666f7220746869732060408201526511185d18525160d21b606082015260800190565b60208082526027908201527f617661696c61626c65546f6b656e732073686f756c64206265203e3d205f6e756040820152666d546f6b656e7360c81b606082015260800190565b60208082526017908201527f5f4461746142617463684964206d757374206578697374000000000000000000604082015260600190565b6020808252601390820152720c081059191c995cdcc8139bdd0815985b1a59606a1b604082015260600190565b6020808252602f908201527f636f756c64206e6f742072657761726420746f6b656e20696e2054726967676560408201526e3921b432b1b5a9b837ba161019173160891b606082015260800190565b60208082526021908201527f5f446174614261746368496420697320616c72656164792076616c69646174656040820152601960fa1b606082015260800190565b60208082526022908201527f4d6178696d756d207265676973746572656420776f726b65727320616c726561604082015261647960f01b606082015260800190565b60208082526037908201527f75736572206d757374206861766520656e6f75676820766f74696e672072696760408201527f68747320616b6120616c6c6f6361746564207374616b65000000000000000000606082015260800190565b6020808252602d908201527f636f756c64206e6f74207265776172642052455020696e20547269676765724360408201526c6865636b53706f742c20322e6160981b606082015260800190565b6020808252602a908201527f5f446174614261746368496420636865636b696e6720766f7465206d757374206040820152691a185d9948195b99195960b21b606082015260800190565b6020808252603b908201527f436f756c64206e6f74207769746864726177566f74696e67526967687473207460408201527f68726f7567682050726f78795374616b654465616c6c6f636174650000000000606082015260800190565b6020808252600f908201526e11185d18481b5d5cdd08195e1a5cdd608a1b604082015260600190565b6020808252604e908201527f4572726f722072657665616c466f726d6174436865636b733a205f446174614260408201527f617463684944732e6c656e67746820616e64205f73616c74732e6c656e67746860608201526d081b5d5cdd08189948195c5d585b60921b608082015260a00190565b600085825284602083015260806040830152616b386080830185615b69565b905082606083015295945050505050565b600083825282602083015260606040830152613ee460608301615b95565b600084825283602083015260806040830152616b8560808301615b95565b9050826060830152949350505050565b9182526020820152606060408201819052600990820152686e756d546f6b656e7360b81b608082015260a00190565b93845260208401929092526040830152606082015260800190565b9182526001600160a01b0316602082015260400190565b9182526001600160a01b031660208201526000604082015260600190565b9283526020830191909152604082015260600190565b60006101a08f83528e60208401528d60408401528c60608401528b151560808401528a151560a084015289151560c08401528860e084015287610100840152866101208401528561014084015280610160840152616c8a81840186615b69565b915050616c9b610180830184615b47565b9e9d5050505050505050505050505050565b6000808335601e19843603018112616cc3578283fd5b8301803591506001600160401b03821115616cdc578283fd5b6020019150368190038213156154cf57600080fd5b6040518181016001600160401b0381118282101715616d1257616d12616e98565b604052919050565b60006001600160401b03821115616d3357616d33616e98565b5060209081020190565b60006001600160401b03821115616d5657616d56616e98565b50601f01601f191660200190565b60009081526020902090565b60008219821115616d8357616d83616e6c565b500190565b600082616d9757616d97616e82565b500490565b6000816000190483118215151615616db657616db6616e6c565b500290565b600082821015616dcd57616dcd616e6c565b500390565b60005b83811015616ded578181015183820152602001616dd5565b83811115616dfc576000848401525b50505050565b600281046001821680616e1657607f821691505b60208210811415616e3757634e487b7160e01b600052602260045260246000fd5b50919050565b6000600019821415616e5157616e51616e6c565b5060010190565b600082616e6757616e67616e82565b500690565b634e487b7160e01b600052601160045260246000fd5b634e487b7160e01b600052601260045260246000fd5b634e487b7160e01b600052604160045260246000fdfea264697066735822122010101bb1fc151ea467eb58e4fd4e07921597b23d4880738a9b18b61a333cf45564736f6c63430008000033",
  "linkReferences": {
    "contracts/worksystems/DataFormatting.sol": {
      "AttributeStore2": [
        {
          "length": 20,
          "start": 12750
        },
        {
          "length": 20,
          "start": 12858
        },
        {
          "length": 20,
          "start": 15698
        },
        {
          "length": 20,
          "start": 15957
        }
      ],
      "DLL2": [
        {
          "length": 20,
          "start": 4281
        },
        {
          "length": 20,
          "start": 4453
        },
        {
          "length": 20,
          "start": 5281
        },
        {
          "length": 20,
          "start": 11687
        },
        {
          "length": 20,
          "start": 11867
        },
        {
          "length": 20,
          "start": 12239
        },
        {
          "length": 20,
          "start": 12401
        },
        {
          "length": 20,
          "start": 12596
        },
        {
          "length": 20,
          "start": 18500
        }
      ]
    }
  },
  "deployedLinkReferences": {
    "contracts/worksystems/DataFormatting.sol": {
      "AttributeStore2": [
        {
          "length": 20,
          "start": 12345
        },
        {
          "length": 20,
          "start": 12453
        },
        {
          "length": 20,
          "start": 15293
        },
        {
          "length": 20,
          "start": 15552
        }
      ],
      "DLL2": [
        {
          "length": 20,
          "start": 3876
        },
        {
          "length": 20,
          "start": 4048
        },
        {
          "length": 20,
          "start": 4876
        },
        {
          "length": 20,
          "start": 11282
        },
        {
          "length": 20,
          "start": 11462
        },
        {
          "length": 20,
          "start": 11834
        },
        {
          "length": 20,
          "start": 11996
        },
        {
          "length": 20,
          "start": 12191
        },
        {
          "length": 20,
          "start": 18095
        }
      ]
    }
  }
}