{
  "_format": "hh-sol-artifact-1",
  "contractName": "DataFormatting",
  "sourceName": "contracts/worksystems/DataFormatting.sol",
  "abi": [
    {
      "inputs": [
        {
          "internalType": "address",
          "name": "EXDT_token",
          "type": "address"
        }
      ],
      "stateMutability": "nonpayable",
      "type": "constructor"
    },
    {
      "anonymous": false,
      "inputs": [
        {
          "indexed": false,
          "internalType": "bytes",
          "name": "bytesFailure",
          "type": "bytes"
        }
      ],
      "name": "BytesFailure",
      "type": "event"
    },
    {
      "anonymous": false,
      "inputs": [
        {
          "indexed": true,
          "internalType": "address",
          "name": "previousOwner",
          "type": "address"
        },
        {
          "indexed": true,
          "internalType": "address",
          "name": "newOwner",
          "type": "address"
        }
      ],
      "name": "OwnershipTransferred",
      "type": "event"
    },
    {
      "anonymous": false,
      "inputs": [
        {
          "indexed": false,
          "internalType": "string",
          "name": "hash",
          "type": "string"
        },
        {
          "indexed": true,
          "internalType": "address",
          "name": "creator",
          "type": "address"
        }
      ],
      "name": "_FormatAccepted",
      "type": "event"
    },
    {
      "anonymous": false,
      "inputs": [
        {
          "indexed": true,
          "internalType": "uint256",
          "name": "DataID",
          "type": "uint256"
        },
        {
          "indexed": false,
          "internalType": "uint256",
          "name": "numTokens",
          "type": "uint256"
        },
        {
          "indexed": true,
          "internalType": "address",
          "name": "voter",
          "type": "address"
        }
      ],
      "name": "_FormatCheckCommitted",
      "type": "event"
    },
    {
      "anonymous": false,
      "inputs": [
        {
          "indexed": true,
          "internalType": "uint256",
          "name": "DataID",
          "type": "uint256"
        },
        {
          "indexed": false,
          "internalType": "uint256",
          "name": "numTokens",
          "type": "uint256"
        },
        {
          "indexed": false,
          "internalType": "uint256",
          "name": "votesFor",
          "type": "uint256"
        },
        {
          "indexed": false,
          "internalType": "uint256",
          "name": "votesAgainst",
          "type": "uint256"
        },
        {
          "indexed": true,
          "internalType": "uint256",
          "name": "choice",
          "type": "uint256"
        },
        {
          "indexed": true,
          "internalType": "address",
          "name": "voter",
          "type": "address"
        }
      ],
      "name": "_FormatCheckRevealed",
      "type": "event"
    },
    {
      "anonymous": false,
      "inputs": [
        {
          "indexed": true,
          "internalType": "uint256",
          "name": "DataID",
          "type": "uint256"
        },
        {
          "indexed": false,
          "internalType": "string",
          "name": "file_hash",
          "type": "string"
        },
        {
          "indexed": false,
          "internalType": "address",
          "name": "sender",
          "type": "address"
        }
      ],
      "name": "_FormatSubmitted",
      "type": "event"
    },
    {
      "anonymous": false,
      "inputs": [
        {
          "indexed": true,
          "internalType": "uint256",
          "name": "epochNumber",
          "type": "uint256"
        }
      ],
      "name": "_NewEpoch",
      "type": "event"
    },
    {
      "anonymous": false,
      "inputs": [
        {
          "indexed": true,
          "internalType": "uint256",
          "name": "DataID",
          "type": "uint256"
        },
        {
          "indexed": true,
          "internalType": "address",
          "name": "voter",
          "type": "address"
        }
      ],
      "name": "_TokensRescued",
      "type": "event"
    },
    {
      "anonymous": false,
      "inputs": [
        {
          "indexed": false,
          "internalType": "uint256",
          "name": "numTokens",
          "type": "uint256"
        },
        {
          "indexed": true,
          "internalType": "address",
          "name": "voter",
          "type": "address"
        }
      ],
      "name": "_VotingRightsGranted",
      "type": "event"
    },
    {
      "anonymous": false,
      "inputs": [
        {
          "indexed": false,
          "internalType": "uint256",
          "name": "numTokens",
          "type": "uint256"
        },
        {
          "indexed": true,
          "internalType": "address",
          "name": "voter",
          "type": "address"
        }
      ],
      "name": "_VotingRightsWithdrawn",
      "type": "event"
    },
    {
      "anonymous": false,
      "inputs": [
        {
          "indexed": true,
          "internalType": "uint256",
          "name": "batchID",
          "type": "uint256"
        },
        {
          "indexed": false,
          "internalType": "address",
          "name": "worker",
          "type": "address"
        }
      ],
      "name": "_WorkAllocated",
      "type": "event"
    },
    {
      "anonymous": false,
      "inputs": [
        {
          "indexed": true,
          "internalType": "address",
          "name": "worker",
          "type": "address"
        },
        {
          "indexed": false,
          "internalType": "uint256",
          "name": "timestamp",
          "type": "uint256"
        }
      ],
      "name": "_WorkerRegistered",
      "type": "event"
    },
    {
      "anonymous": false,
      "inputs": [
        {
          "indexed": true,
          "internalType": "address",
          "name": "worker",
          "type": "address"
        },
        {
          "indexed": false,
          "internalType": "uint256",
          "name": "timestamp",
          "type": "uint256"
        }
      ],
      "name": "_WorkerUnregistered",
      "type": "event"
    },
    {
      "inputs": [],
      "name": "AddressManager",
      "outputs": [
        {
          "internalType": "contract IAddressManager",
          "name": "",
          "type": "address"
        }
      ],
      "stateMutability": "view",
      "type": "function"
    },
    {
      "inputs": [],
      "name": "AllTxsCounter",
      "outputs": [
        {
          "internalType": "uint256",
          "name": "",
          "type": "uint256"
        }
      ],
      "stateMutability": "view",
      "type": "function"
    },
    {
      "inputs": [],
      "name": "AllocateWork",
      "outputs": [],
      "stateMutability": "nonpayable",
      "type": "function"
    },
    {
      "inputs": [],
      "name": "AllocatedBatchCursor",
      "outputs": [
        {
          "internalType": "uint256",
          "name": "",
          "type": "uint256"
        }
      ],
      "stateMutability": "view",
      "type": "function"
    },
    {
      "inputs": [],
      "name": "AmIRegistered",
      "outputs": [
        {
          "internalType": "bool",
          "name": "passed",
          "type": "bool"
        }
      ],
      "stateMutability": "view",
      "type": "function"
    },
    {
      "inputs": [
        {
          "internalType": "string",
          "name": "_a",
          "type": "string"
        },
        {
          "internalType": "string",
          "name": "_b",
          "type": "string"
        }
      ],
      "name": "AreStringsEqual",
      "outputs": [
        {
          "internalType": "bool",
          "name": "",
          "type": "bool"
        }
      ],
      "stateMutability": "pure",
      "type": "function"
    },
    {
      "inputs": [],
      "name": "BatchCheckingCursor",
      "outputs": [
        {
          "internalType": "uint256",
          "name": "",
          "type": "uint256"
        }
      ],
      "stateMutability": "view",
      "type": "function"
    },
    {
      "inputs": [],
      "name": "COMMIT_ROUND_DURATION",
      "outputs": [
        {
          "internalType": "uint256",
          "name": "",
          "type": "uint256"
        }
      ],
      "stateMutability": "view",
      "type": "function"
    },
    {
      "inputs": [],
      "name": "CONSENSUS_WORKER_SIZE",
      "outputs": [
        {
          "internalType": "uint256",
          "name": "",
          "type": "uint256"
        }
      ],
      "stateMutability": "view",
      "type": "function"
    },
    {
      "inputs": [],
      "name": "CurrentWorkEpoch",
      "outputs": [
        {
          "internalType": "uint256",
          "name": "",
          "type": "uint256"
        }
      ],
      "stateMutability": "view",
      "type": "function"
    },
    {
      "inputs": [
        {
          "internalType": "uint256",
          "name": "",
          "type": "uint256"
        }
      ],
      "name": "DataBatch",
      "outputs": [
        {
          "internalType": "uint256",
          "name": "start_idx",
          "type": "uint256"
        },
        {
          "internalType": "uint256",
          "name": "end_idx",
          "type": "uint256"
        },
        {
          "internalType": "uint256",
          "name": "counter",
          "type": "uint256"
        },
        {
          "internalType": "uint256",
          "name": "unrevealed_workers",
          "type": "uint256"
        },
        {
          "internalType": "bool",
          "name": "complete",
          "type": "bool"
        },
        {
          "internalType": "bool",
          "name": "checked",
          "type": "bool"
        },
        {
          "internalType": "bool",
          "name": "allocated_to_work",
          "type": "bool"
        },
        {
          "internalType": "uint256",
          "name": "commitEndDate",
          "type": "uint256"
        },
        {
          "internalType": "uint256",
          "name": "revealEndDate",
          "type": "uint256"
        },
        {
          "internalType": "uint256",
          "name": "votesFor",
          "type": "uint256"
        },
        {
          "internalType": "uint256",
          "name": "votesAgainst",
          "type": "uint256"
        },
        {
          "internalType": "string",
          "name": "batchIPFSfile",
          "type": "string"
        },
        {
          "internalType": "enum DataFormatting.DataStatus",
          "name": "status",
          "type": "uint8"
        }
      ],
      "stateMutability": "view",
      "type": "function"
    },
    {
      "inputs": [
        {
          "internalType": "uint256",
          "name": "_DataBatchId",
          "type": "uint256"
        }
      ],
      "name": "DataCommitEndDate",
      "outputs": [
        {
          "internalType": "uint256",
          "name": "commitEndDate",
          "type": "uint256"
        }
      ],
      "stateMutability": "view",
      "type": "function"
    },
    {
      "inputs": [
        {
          "internalType": "uint256",
          "name": "_DataBatchId",
          "type": "uint256"
        }
      ],
      "name": "DataEnded",
      "outputs": [
        {
          "internalType": "bool",
          "name": "ended",
          "type": "bool"
        }
      ],
      "stateMutability": "view",
      "type": "function"
    },
    {
      "inputs": [
        {
          "internalType": "uint256",
          "name": "_DataBatchId",
          "type": "uint256"
        }
      ],
      "name": "DataExists",
      "outputs": [
        {
          "internalType": "bool",
          "name": "exists",
          "type": "bool"
        }
      ],
      "stateMutability": "view",
      "type": "function"
    },
    {
      "inputs": [],
      "name": "DataNonce",
      "outputs": [
        {
          "internalType": "uint256",
          "name": "",
          "type": "uint256"
        }
      ],
      "stateMutability": "view",
      "type": "function"
    },
    {
      "inputs": [
        {
          "internalType": "uint256",
          "name": "_DataBatchId",
          "type": "uint256"
        }
      ],
      "name": "DataRevealEndDate",
      "outputs": [
        {
          "internalType": "uint256",
          "name": "revealEndDate",
          "type": "uint256"
        }
      ],
      "stateMutability": "view",
      "type": "function"
    },
    {
      "inputs": [
        {
          "internalType": "address",
          "name": "",
          "type": "address"
        }
      ],
      "name": "FormatStakedTokenBalance",
      "outputs": [
        {
          "internalType": "uint256",
          "name": "",
          "type": "uint256"
        }
      ],
      "stateMutability": "view",
      "type": "function"
    },
    {
      "inputs": [
        {
          "internalType": "uint256",
          "name": "",
          "type": "uint256"
        }
      ],
      "name": "FormatsMapping",
      "outputs": [
        {
          "internalType": "string",
          "name": "ipfs_hash",
          "type": "string"
        },
        {
          "internalType": "address",
          "name": "author",
          "type": "address"
        },
        {
          "internalType": "uint256",
          "name": "timestamp",
          "type": "uint256"
        },
        {
          "internalType": "enum DataFormatting.DataStatus",
          "name": "status",
          "type": "uint8"
        }
      ],
      "stateMutability": "view",
      "type": "function"
    },
    {
      "inputs": [
        {
          "internalType": "address",
          "name": "user_",
          "type": "address"
        }
      ],
      "name": "GetCurrentWork",
      "outputs": [
        {
          "internalType": "uint256",
          "name": "",
          "type": "uint256"
        }
      ],
      "stateMutability": "view",
      "type": "function"
    },
    {
      "inputs": [
        {
          "internalType": "address",
          "name": "user_",
          "type": "address"
        }
      ],
      "name": "IsNewWorkAvailable",
      "outputs": [
        {
          "internalType": "bool",
          "name": "",
          "type": "bool"
        }
      ],
      "stateMutability": "view",
      "type": "function"
    },
    {
      "inputs": [],
      "name": "LastBatchCounter",
      "outputs": [
        {
          "internalType": "uint256",
          "name": "",
          "type": "uint256"
        }
      ],
      "stateMutability": "view",
      "type": "function"
    },
    {
      "inputs": [],
      "name": "LastSpotBatchId",
      "outputs": [
        {
          "internalType": "uint256",
          "name": "",
          "type": "uint256"
        }
      ],
      "stateMutability": "view",
      "type": "function"
    },
    {
      "inputs": [],
      "name": "MIN_PARTICIPANTS_FOR_VALIDITY",
      "outputs": [
        {
          "internalType": "uint256",
          "name": "",
          "type": "uint256"
        }
      ],
      "stateMutability": "view",
      "type": "function"
    },
    {
      "inputs": [],
      "name": "MIN_REP_Data",
      "outputs": [
        {
          "internalType": "uint256",
          "name": "",
          "type": "uint256"
        }
      ],
      "stateMutability": "view",
      "type": "function"
    },
    {
      "inputs": [],
      "name": "MIN_REP_REVEAL",
      "outputs": [
        {
          "internalType": "uint256",
          "name": "",
          "type": "uint256"
        }
      ],
      "stateMutability": "view",
      "type": "function"
    },
    {
      "inputs": [],
      "name": "MIN_REWARD_Data",
      "outputs": [
        {
          "internalType": "uint256",
          "name": "",
          "type": "uint256"
        }
      ],
      "stateMutability": "view",
      "type": "function"
    },
    {
      "inputs": [],
      "name": "MIN_STAKE",
      "outputs": [
        {
          "internalType": "uint256",
          "name": "",
          "type": "uint256"
        }
      ],
      "stateMutability": "view",
      "type": "function"
    },
    {
      "inputs": [
        {
          "internalType": "address",
          "name": "",
          "type": "address"
        },
        {
          "internalType": "uint256",
          "name": "",
          "type": "uint256"
        }
      ],
      "name": "MasterWorkers",
      "outputs": [
        {
          "internalType": "address",
          "name": "",
          "type": "address"
        }
      ],
      "stateMutability": "view",
      "type": "function"
    },
    {
      "inputs": [
        {
          "internalType": "uint256",
          "name": "CheckedBatchId",
          "type": "uint256"
        }
      ],
      "name": "Ping",
      "outputs": [
        {
          "internalType": "bool",
          "name": "",
          "type": "bool"
        }
      ],
      "stateMutability": "nonpayable",
      "type": "function"
    },
    {
      "inputs": [],
      "name": "REVEAL_ROUND_DURATION",
      "outputs": [
        {
          "internalType": "uint256",
          "name": "",
          "type": "uint256"
        }
      ],
      "stateMutability": "view",
      "type": "function"
    },
    {
      "inputs": [],
      "name": "RegisterWorker",
      "outputs": [],
      "stateMutability": "nonpayable",
      "type": "function"
    },
    {
      "inputs": [],
      "name": "RepManager",
      "outputs": [
        {
          "internalType": "contract IRepManager",
          "name": "",
          "type": "address"
        }
      ],
      "stateMutability": "view",
      "type": "function"
    },
    {
      "inputs": [],
      "name": "RewardManager",
      "outputs": [
        {
          "internalType": "contract IRewardManager",
          "name": "",
          "type": "address"
        }
      ],
      "stateMutability": "view",
      "type": "function"
    },
    {
      "inputs": [],
      "name": "SPOT_CHECK_VOTE_QUORUM",
      "outputs": [
        {
          "internalType": "uint256",
          "name": "",
          "type": "uint256"
        }
      ],
      "stateMutability": "view",
      "type": "function"
    },
    {
      "inputs": [],
      "name": "SpottingSystem",
      "outputs": [
        {
          "internalType": "contract ISpottingSystem",
          "name": "",
          "type": "address"
        }
      ],
      "stateMutability": "view",
      "type": "function"
    },
    {
      "inputs": [],
      "name": "StakeManager",
      "outputs": [
        {
          "internalType": "contract IStakeManager",
          "name": "",
          "type": "address"
        }
      ],
      "stateMutability": "view",
      "type": "function"
    },
    {
      "inputs": [],
      "name": "TriggerNextEpoch",
      "outputs": [],
      "stateMutability": "nonpayable",
      "type": "function"
    },
    {
      "inputs": [],
      "name": "UnregisterWorker",
      "outputs": [],
      "stateMutability": "nonpayable",
      "type": "function"
    },
    {
      "inputs": [
        {
          "internalType": "address",
          "name": "",
          "type": "address"
        },
        {
          "internalType": "uint256",
          "name": "",
          "type": "uint256"
        }
      ],
      "name": "UserChecksCommits",
      "outputs": [
        {
          "internalType": "bool",
          "name": "",
          "type": "bool"
        }
      ],
      "stateMutability": "view",
      "type": "function"
    },
    {
      "inputs": [
        {
          "internalType": "address",
          "name": "",
          "type": "address"
        },
        {
          "internalType": "uint256",
          "name": "",
          "type": "uint256"
        }
      ],
      "name": "UserChecksReveals",
      "outputs": [
        {
          "internalType": "bool",
          "name": "",
          "type": "bool"
        }
      ],
      "stateMutability": "view",
      "type": "function"
    },
    {
      "inputs": [
        {
          "internalType": "uint256",
          "name": "",
          "type": "uint256"
        },
        {
          "internalType": "address",
          "name": "",
          "type": "address"
        }
      ],
      "name": "UserNewFiles",
      "outputs": [
        {
          "internalType": "string",
          "name": "",
          "type": "string"
        }
      ],
      "stateMutability": "view",
      "type": "function"
    },
    {
      "inputs": [
        {
          "internalType": "uint256",
          "name": "",
          "type": "uint256"
        },
        {
          "internalType": "address",
          "name": "",
          "type": "address"
        }
      ],
      "name": "UserVotes",
      "outputs": [
        {
          "internalType": "uint256",
          "name": "",
          "type": "uint256"
        }
      ],
      "stateMutability": "view",
      "type": "function"
    },
    {
      "inputs": [
        {
          "internalType": "uint256",
          "name": "_DataBatchId",
          "type": "uint256"
        }
      ],
      "name": "ValidateDataBatch",
      "outputs": [],
      "stateMutability": "nonpayable",
      "type": "function"
    },
    {
      "inputs": [
        {
          "internalType": "uint256",
          "name": "",
          "type": "uint256"
        },
        {
          "internalType": "uint256",
          "name": "",
          "type": "uint256"
        }
      ],
      "name": "WorkersPerBatch",
      "outputs": [
        {
          "internalType": "address",
          "name": "",
          "type": "address"
        }
      ],
      "stateMutability": "view",
      "type": "function"
    },
    {
      "inputs": [
        {
          "internalType": "address",
          "name": "",
          "type": "address"
        }
      ],
      "name": "WorkersState",
      "outputs": [
        {
          "internalType": "address",
          "name": "worker_address",
          "type": "address"
        },
        {
          "internalType": "address",
          "name": "master_address",
          "type": "address"
        },
        {
          "internalType": "uint256",
          "name": "allocated_work_batch",
          "type": "uint256"
        },
        {
          "internalType": "bool",
          "name": "has_completed_work",
          "type": "bool"
        },
        {
          "internalType": "uint256",
          "name": "last_worked_round",
          "type": "uint256"
        },
        {
          "internalType": "uint256",
          "name": "last_interaction_date",
          "type": "uint256"
        },
        {
          "internalType": "string",
          "name": "extra",
          "type": "string"
        },
        {
          "internalType": "bool",
          "name": "registered",
          "type": "bool"
        },
        {
          "internalType": "uint256",
          "name": "registration_date",
          "type": "uint256"
        }
      ],
      "stateMutability": "view",
      "type": "function"
    },
    {
      "inputs": [
        {
          "internalType": "address",
          "name": "_user",
          "type": "address"
        },
        {
          "internalType": "uint256",
          "name": "_DataBatchId",
          "type": "uint256"
        }
      ],
      "name": "attrUUID",
      "outputs": [
        {
          "internalType": "bytes32",
          "name": "UUID",
          "type": "bytes32"
        }
      ],
      "stateMutability": "pure",
      "type": "function"
    },
    {
      "inputs": [
        {
          "internalType": "uint256",
          "name": "",
          "type": "uint256"
        }
      ],
      "name": "availableWorkers",
      "outputs": [
        {
          "internalType": "address",
          "name": "",
          "type": "address"
        }
      ],
      "stateMutability": "view",
      "type": "function"
    },
    {
      "inputs": [
        {
          "internalType": "uint256",
          "name": "",
          "type": "uint256"
        }
      ],
      "name": "busyWorkers",
      "outputs": [
        {
          "internalType": "address",
          "name": "",
          "type": "address"
        }
      ],
      "stateMutability": "view",
      "type": "function"
    },
    {
      "inputs": [
        {
          "internalType": "uint256",
          "name": "_DataBatchId",
          "type": "uint256"
        },
        {
          "internalType": "bytes32",
          "name": "_secretHash",
          "type": "bytes32"
        },
        {
          "internalType": "string",
          "name": "newIPFSHash",
          "type": "string"
        }
      ],
      "name": "commitFormatCheck",
      "outputs": [],
      "stateMutability": "nonpayable",
      "type": "function"
    },
    {
      "inputs": [
        {
          "internalType": "uint256[]",
          "name": "_DataBatchIDs",
          "type": "uint256[]"
        },
        {
          "internalType": "bytes32[]",
          "name": "_secretHashes",
          "type": "bytes32[]"
        },
        {
          "internalType": "string[]",
          "name": "_newIPFSHash",
          "type": "string[]"
        }
      ],
      "name": "commitFormatChecks",
      "outputs": [],
      "stateMutability": "nonpayable",
      "type": "function"
    },
    {
      "inputs": [
        {
          "internalType": "uint256",
          "name": "_DataBatchId",
          "type": "uint256"
        }
      ],
      "name": "commitPeriodActive",
      "outputs": [
        {
          "internalType": "bool",
          "name": "active",
          "type": "bool"
        }
      ],
      "stateMutability": "view",
      "type": "function"
    },
    {
      "inputs": [
        {
          "internalType": "address",
          "name": "_voter",
          "type": "address"
        },
        {
          "internalType": "uint256",
          "name": "_DataBatchId",
          "type": "uint256"
        }
      ],
      "name": "didCommit",
      "outputs": [
        {
          "internalType": "bool",
          "name": "committed",
          "type": "bool"
        }
      ],
      "stateMutability": "view",
      "type": "function"
    },
    {
      "inputs": [
        {
          "internalType": "address",
          "name": "_voter",
          "type": "address"
        },
        {
          "internalType": "uint256",
          "name": "_DataBatchId",
          "type": "uint256"
        }
      ],
      "name": "didReveal",
      "outputs": [
        {
          "internalType": "bool",
          "name": "revealed",
          "type": "bool"
        }
      ],
      "stateMutability": "view",
      "type": "function"
    },
    {
      "inputs": [
        {
          "internalType": "uint256",
          "name": "_k",
          "type": "uint256"
        },
        {
          "internalType": "uint256",
          "name": "N_range",
          "type": "uint256"
        }
      ],
      "name": "generateIntegers",
      "outputs": [
        {
          "internalType": "uint256[]",
          "name": "",
          "type": "uint256[]"
        }
      ],
      "stateMutability": "view",
      "type": "function"
    },
    {
      "inputs": [],
      "name": "getActiveWorkersCount",
      "outputs": [
        {
          "internalType": "uint256",
          "name": "numWorkers",
          "type": "uint256"
        }
      ],
      "stateMutability": "view",
      "type": "function"
    },
    {
      "inputs": [],
      "name": "getBlockTimestamp",
      "outputs": [
        {
          "internalType": "uint256",
          "name": "blocktimestamp",
          "type": "uint256"
        }
      ],
      "stateMutability": "view",
      "type": "function"
    },
    {
      "inputs": [
        {
          "internalType": "address",
          "name": "_voter",
          "type": "address"
        },
        {
          "internalType": "uint256",
          "name": "_DataBatchId",
          "type": "uint256"
        }
      ],
      "name": "getCommitHash",
      "outputs": [
        {
          "internalType": "bytes32",
          "name": "commitHash",
          "type": "bytes32"
        }
      ],
      "stateMutability": "view",
      "type": "function"
    },
    {
      "inputs": [],
      "name": "getCurrentWorkEpoch",
      "outputs": [
        {
          "internalType": "uint256",
          "name": "WorkEpoch",
          "type": "uint256"
        }
      ],
      "stateMutability": "view",
      "type": "function"
    },
    {
      "inputs": [
        {
          "internalType": "string",
          "name": "_hash",
          "type": "string"
        },
        {
          "internalType": "uint256",
          "name": "_salt",
          "type": "uint256"
        }
      ],
      "name": "getEncryptedStringHash",
      "outputs": [
        {
          "internalType": "bytes32",
          "name": "keccak256hash",
          "type": "bytes32"
        }
      ],
      "stateMutability": "pure",
      "type": "function"
    },
    {
      "inputs": [
        {
          "internalType": "uint256",
          "name": "_voteOption",
          "type": "uint256"
        },
        {
          "internalType": "uint256",
          "name": "_salt",
          "type": "uint256"
        }
      ],
      "name": "getEncryptedVoteHash",
      "outputs": [
        {
          "internalType": "bytes32",
          "name": "keccak256hash",
          "type": "bytes32"
        }
      ],
      "stateMutability": "pure",
      "type": "function"
    },
    {
      "inputs": [
        {
          "internalType": "uint256",
          "name": "a",
          "type": "uint256"
        },
        {
          "internalType": "uint256",
          "name": "b",
          "type": "uint256"
        }
      ],
      "name": "getHash",
      "outputs": [
        {
          "internalType": "bytes32",
          "name": "keccak256hash",
          "type": "bytes32"
        }
      ],
      "stateMutability": "pure",
      "type": "function"
    },
    {
      "inputs": [
        {
          "internalType": "uint256",
          "name": "_DataBatchId",
          "type": "uint256"
        }
      ],
      "name": "getIPFShashesForBatch",
      "outputs": [
        {
          "internalType": "string[]",
          "name": "",
          "type": "string[]"
        }
      ],
      "stateMutability": "view",
      "type": "function"
    },
    {
      "inputs": [
        {
          "internalType": "address",
          "name": "_voter",
          "type": "address"
        },
        {
          "internalType": "uint256",
          "name": "_numTokens",
          "type": "uint256"
        },
        {
          "internalType": "uint256",
          "name": "_DataBatchId",
          "type": "uint256"
        }
      ],
      "name": "getInsertPointForNumTokens",
      "outputs": [
        {
          "internalType": "uint256",
          "name": "prevNode",
          "type": "uint256"
        }
      ],
      "stateMutability": "view",
      "type": "function"
    },
    {
      "inputs": [],
      "name": "getLastBatchId",
      "outputs": [
        {
          "internalType": "uint256",
          "name": "LastBatchId",
          "type": "uint256"
        }
      ],
      "stateMutability": "view",
      "type": "function"
    },
    {
      "inputs": [],
      "name": "getLastCheckedBatchId",
      "outputs": [
        {
          "internalType": "uint256",
          "name": "LastCheckedBatchId",
          "type": "uint256"
        }
      ],
      "stateMutability": "view",
      "type": "function"
    },
    {
      "inputs": [],
      "name": "getLastDataId",
      "outputs": [
        {
          "internalType": "uint256",
          "name": "DataId",
          "type": "uint256"
        }
      ],
      "stateMutability": "view",
      "type": "function"
    },
    {
      "inputs": [
        {
          "internalType": "address",
          "name": "_voter",
          "type": "address"
        }
      ],
      "name": "getLastNode",
      "outputs": [
        {
          "internalType": "uint256",
          "name": "DataID",
          "type": "uint256"
        }
      ],
      "stateMutability": "view",
      "type": "function"
    },
    {
      "inputs": [
        {
          "internalType": "address",
          "name": "_voter",
          "type": "address"
        }
      ],
      "name": "getLockedTokens",
      "outputs": [
        {
          "internalType": "uint256",
          "name": "numTokens",
          "type": "uint256"
        }
      ],
      "stateMutability": "view",
      "type": "function"
    },
    {
      "inputs": [
        {
          "internalType": "address",
          "name": "_voter",
          "type": "address"
        },
        {
          "internalType": "uint256",
          "name": "_DataBatchId",
          "type": "uint256"
        },
        {
          "internalType": "uint256",
          "name": "_salt",
          "type": "uint256"
        }
      ],
      "name": "getNumPassingTokens",
      "outputs": [
        {
          "internalType": "uint256",
          "name": "correctFormatChecks",
          "type": "uint256"
        }
      ],
      "stateMutability": "view",
      "type": "function"
    },
    {
      "inputs": [
        {
          "internalType": "address",
          "name": "_voter",
          "type": "address"
        },
        {
          "internalType": "uint256",
          "name": "_DataBatchId",
          "type": "uint256"
        }
      ],
      "name": "getNumTokens",
      "outputs": [
        {
          "internalType": "uint256",
          "name": "numTokens",
          "type": "uint256"
        }
      ],
      "stateMutability": "view",
      "type": "function"
    },
    {
      "inputs": [],
      "name": "getRandom",
      "outputs": [
        {
          "internalType": "uint256",
          "name": "",
          "type": "uint256"
        }
      ],
      "stateMutability": "view",
      "type": "function"
    },
    {
      "inputs": [],
      "name": "getSeed",
      "outputs": [
        {
          "internalType": "bytes32",
          "name": "addr",
          "type": "bytes32"
        }
      ],
      "stateMutability": "view",
      "type": "function"
    },
    {
      "inputs": [
        {
          "internalType": "uint256",
          "name": "_DataBatchId",
          "type": "uint256"
        }
      ],
      "name": "getTotalNumberOfFormatChecks",
      "outputs": [
        {
          "internalType": "uint256",
          "name": "vc",
          "type": "uint256"
        }
      ],
      "stateMutability": "view",
      "type": "function"
    },
    {
      "inputs": [
        {
          "internalType": "uint256",
          "name": "_DataBatchId",
          "type": "uint256"
        }
      ],
      "name": "getTotalNumberOfTokensForWinningOption",
      "outputs": [
        {
          "internalType": "uint256",
          "name": "numTokens",
          "type": "uint256"
        }
      ],
      "stateMutability": "view",
      "type": "function"
    },
    {
      "inputs": [],
      "name": "getTxCounter",
      "outputs": [
        {
          "internalType": "uint256",
          "name": "Counter",
          "type": "uint256"
        }
      ],
      "stateMutability": "view",
      "type": "function"
    },
    {
      "inputs": [
        {
          "internalType": "uint256",
          "name": "_terminationDate",
          "type": "uint256"
        }
      ],
      "name": "isExpired",
      "outputs": [
        {
          "internalType": "bool",
          "name": "expired",
          "type": "bool"
        }
      ],
      "stateMutability": "view",
      "type": "function"
    },
    {
      "inputs": [
        {
          "internalType": "uint256",
          "name": "_DataBatchId",
          "type": "uint256"
        }
      ],
      "name": "isPassed",
      "outputs": [
        {
          "internalType": "bool",
          "name": "passed",
          "type": "bool"
        }
      ],
      "stateMutability": "view",
      "type": "function"
    },
    {
      "inputs": [
        {
          "internalType": "address",
          "name": "_worker",
          "type": "address"
        }
      ],
      "name": "isWorkerRegistered",
      "outputs": [
        {
          "internalType": "bool",
          "name": "passed",
          "type": "bool"
        }
      ],
      "stateMutability": "view",
      "type": "function"
    },
    {
      "inputs": [],
      "name": "owner",
      "outputs": [
        {
          "internalType": "address",
          "name": "",
          "type": "address"
        }
      ],
      "stateMutability": "view",
      "type": "function"
    },
    {
      "inputs": [
        {
          "internalType": "uint256",
          "name": "k",
          "type": "uint256"
        },
        {
          "internalType": "uint256",
          "name": "N",
          "type": "uint256"
        }
      ],
      "name": "random_selection",
      "outputs": [
        {
          "internalType": "uint256[]",
          "name": "",
          "type": "uint256[]"
        }
      ],
      "stateMutability": "view",
      "type": "function"
    },
    {
      "inputs": [],
      "name": "renounceOwnership",
      "outputs": [],
      "stateMutability": "nonpayable",
      "type": "function"
    },
    {
      "inputs": [
        {
          "internalType": "uint256",
          "name": "_numTokens",
          "type": "uint256"
        }
      ],
      "name": "requestVotingRights",
      "outputs": [],
      "stateMutability": "nonpayable",
      "type": "function"
    },
    {
      "inputs": [
        {
          "internalType": "uint256",
          "name": "_DataBatchId",
          "type": "uint256"
        }
      ],
      "name": "rescueTokens",
      "outputs": [],
      "stateMutability": "nonpayable",
      "type": "function"
    },
    {
      "inputs": [
        {
          "internalType": "uint256[]",
          "name": "_DataBatchIDs",
          "type": "uint256[]"
        }
      ],
      "name": "rescueTokensInMultipleDatas",
      "outputs": [],
      "stateMutability": "nonpayable",
      "type": "function"
    },
    {
      "inputs": [
        {
          "internalType": "uint256",
          "name": "_DataBatchId",
          "type": "uint256"
        },
        {
          "internalType": "uint256",
          "name": "_voteOption",
          "type": "uint256"
        },
        {
          "internalType": "uint256",
          "name": "_salt",
          "type": "uint256"
        }
      ],
      "name": "revealFormatCheck",
      "outputs": [],
      "stateMutability": "nonpayable",
      "type": "function"
    },
    {
      "inputs": [
        {
          "internalType": "uint256[]",
          "name": "_DataBatchIDs",
          "type": "uint256[]"
        },
        {
          "internalType": "uint256[]",
          "name": "_voteOptions",
          "type": "uint256[]"
        },
        {
          "internalType": "uint256[]",
          "name": "_salts",
          "type": "uint256[]"
        }
      ],
      "name": "revealFormatChecks",
      "outputs": [],
      "stateMutability": "nonpayable",
      "type": "function"
    },
    {
      "inputs": [
        {
          "internalType": "uint256",
          "name": "_DataBatchId",
          "type": "uint256"
        }
      ],
      "name": "revealPeriodActive",
      "outputs": [
        {
          "internalType": "bool",
          "name": "active",
          "type": "bool"
        }
      ],
      "stateMutability": "view",
      "type": "function"
    },
    {
      "inputs": [],
      "name": "sFuel",
      "outputs": [
        {
          "internalType": "address",
          "name": "",
          "type": "address"
        }
      ],
      "stateMutability": "view",
      "type": "function"
    },
    {
      "inputs": [
        {
          "internalType": "uint256",
          "name": "N",
          "type": "uint256"
        }
      ],
      "name": "shuffle_array",
      "outputs": [
        {
          "internalType": "uint256[]",
          "name": "",
          "type": "uint256[]"
        }
      ],
      "stateMutability": "view",
      "type": "function"
    },
    {
      "inputs": [],
      "name": "token",
      "outputs": [
        {
          "internalType": "contract IERC20",
          "name": "",
          "type": "address"
        }
      ],
      "stateMutability": "view",
      "type": "function"
    },
    {
      "inputs": [
        {
          "internalType": "address",
          "name": "newOwner",
          "type": "address"
        }
      ],
      "name": "transferOwnership",
      "outputs": [],
      "stateMutability": "nonpayable",
      "type": "function"
    },
    {
      "inputs": [
        {
          "internalType": "address",
          "name": "addr",
          "type": "address"
        }
      ],
      "name": "updateAddressManager",
      "outputs": [],
      "stateMutability": "nonpayable",
      "type": "function"
    },
    {
      "inputs": [
        {
          "internalType": "uint256",
          "name": "COMMIT_ROUND_DURATION_",
          "type": "uint256"
        }
      ],
      "name": "updateCommitRoundDuration",
      "outputs": [],
      "stateMutability": "nonpayable",
      "type": "function"
    },
    {
      "inputs": [
        {
          "internalType": "uint256",
          "name": "CONSENSUS_WORKER_SIZE_",
          "type": "uint256"
        }
      ],
      "name": "updateConsensusSize",
      "outputs": [],
      "stateMutability": "nonpayable",
      "type": "function"
    },
    {
      "inputs": [
        {
          "internalType": "address",
          "name": "addr",
          "type": "address"
        }
      ],
      "name": "updateRepManager",
      "outputs": [],
      "stateMutability": "nonpayable",
      "type": "function"
    },
    {
      "inputs": [
        {
          "internalType": "uint256",
          "name": "REVEAL_ROUND_DURATION_",
          "type": "uint256"
        }
      ],
      "name": "updateRevealRoundDuration",
      "outputs": [],
      "stateMutability": "nonpayable",
      "type": "function"
    },
    {
      "inputs": [
        {
          "internalType": "address",
          "name": "addr",
          "type": "address"
        }
      ],
      "name": "updateRewardManager",
      "outputs": [],
      "stateMutability": "nonpayable",
      "type": "function"
    },
    {
      "inputs": [
        {
          "internalType": "address",
          "name": "addr",
          "type": "address"
        }
      ],
      "name": "updateSpotManager",
      "outputs": [],
      "stateMutability": "nonpayable",
      "type": "function"
    },
    {
      "inputs": [
        {
          "internalType": "address",
          "name": "addr",
          "type": "address"
        }
      ],
      "name": "updateStakeManager",
      "outputs": [],
      "stateMutability": "nonpayable",
      "type": "function"
    },
    {
      "inputs": [
        {
          "internalType": "address",
          "name": "sFuel_",
          "type": "address"
        }
      ],
      "name": "updatesFuelFaucet",
      "outputs": [],
      "stateMutability": "nonpayable",
      "type": "function"
    },
    {
      "inputs": [
        {
          "internalType": "uint256",
          "name": "_prevID",
          "type": "uint256"
        },
        {
          "internalType": "uint256",
          "name": "_nextID",
          "type": "uint256"
        },
        {
          "internalType": "address",
          "name": "_voter",
          "type": "address"
        },
        {
          "internalType": "uint256",
          "name": "_numTokens",
          "type": "uint256"
        }
      ],
      "name": "validPosition",
      "outputs": [
        {
          "internalType": "bool",
          "name": "APPROVED",
          "type": "bool"
        }
      ],
      "stateMutability": "view",
      "type": "function"
    },
    {
      "inputs": [
        {
          "internalType": "uint256",
          "name": "_numTokens",
          "type": "uint256"
        }
      ],
      "name": "withdrawVotingRights",
      "outputs": [],
      "stateMutability": "nonpayable",
      "type": "function"
    }
  ],
  "bytecode": "0x6080604052670de0b6b3a76400006005818155600691909155671bc16d674ec80000600755603c600855600955600060108190556011819055601980546001600160a01b0319167314f52f3fc010ab6ca81568d4a6794d5eab3c61551790556001601a819055601b819055601c819055601d55601f553480156200008257600080fd5b5060405162006fb138038062006fb1833981016040819052620000a59162000154565b620000b9620000b362000100565b62000104565b602080546001600160a01b0319166001600160a01b0392909216919091179055600060115568015af1d78b58c4000060019081556002556028600355601e60045562000184565b3390565b600080546001600160a01b038381166001600160a01b0319831681178455604051919092169283917f8be0079c531659141344cd1fd0a4f28419497f9722a3daafe3b4186f6b6457e09190a35050565b60006020828403121562000166578081fd5b81516001600160a01b03811681146200017d578182fd5b9392505050565b616e1d80620001946000396000f3fe608060405234801561001057600080fd5b50600436106105d25760003560e01c80639b07dbb911610300578063d901402b116101a8578063ef4fcdad116100f4578063f716596d116100ad578063fc0c546a11610087578063fc0c546a14610bff578063fca4956314610c07578063fea44eae14610c1a578063ff7d787814610c2d576105d2565b8063f716596d14610bdc578063f721de4a14610be4578063f80a23fd14610bf7576105d2565b8063ef4fcdad14610b8b578063f2d9e74d14610b93578063f2fde38b14610b9b578063f4cdfcc414610bae578063f5ae7c7d14610bc1578063f60e738114610bc9576105d2565b8063df05368e11610161578063e798a7da1161013b578063e798a7da14610b32578063e7b1d43c14610b45578063e8e9b6f914610b58578063ed8becfa14610b6b576105d2565b8063df05368e14610b04578063e44c974b14610b17578063e7805f9e14610b2a576105d2565b8063d901402b14610a9d578063d9548e5314610ab0578063d9966ae814610ac3578063db687c1714610ad6578063dd61868214610ae9578063deadefa714610afc576105d2565b8063b1d7ea9811610267578063cb1c2b5c11610220578063d6b0206c116101fa578063d6b0206c14610a67578063d822ce0114610a6f578063d8645d3714610a82578063d8b7567414610a8a576105d2565b8063cb1c2b5c14610a39578063d138209214610a41578063d420ec0b14610a54576105d2565b8063b1d7ea98146109c5578063b43bd069146109e5578063b8f011b3146109f8578063c47c4bc214610a0b578063c4e4f82a14610a1e578063c9b03a7214610a31576105d2565b8063a511dba0116102b9578063a511dba014610974578063a90577901461097c578063aa7ca4641461098f578063aacc5a17146109a2578063ab43e78d146109aa578063b1a2e0be146109b2576105d2565b80639b07dbb9146109025780639fc9c52f14610915578063a0e71c1514610928578063a1103f371461093b578063a25236fe1461094e578063a4439dc514610961576105d2565b806351912f291161047e5780637f9510a2116103ca5780638473850b116103835780638df0296e1161035d5780638df0296e146108d457806395f82a361461062d57806397603560146108e75780639acb75c1146108fa576105d2565b80638473850b1461089c5780638c89d027146108a45780638da5cb5b146108cc576105d2565b80637f9510a2146108275780637f97e8361461082f5780637fabe35b14610842578063819b02931461086e578063821aa8c01461088157806383cc6ef214610894576105d2565b80636b1485a31161043757806371880b1b1161041157806371880b1b146107fc5780637827e5491461080f578063796b89b9146108175780637a34da671461081f576105d2565b80636b1485a3146107ce5780636b2d95d4146107e1578063715018a6146107f4576105d2565b806351912f291461077857806358002158146107805780635fd879091461079357806362b7e9411461079b578063667bf0f8146107a35780636a192ff5146107ab576105d2565b8063313066ee1161053d578063427fa1d2116104f657806348257dc9116104d057806348257dc914610737578063494031831461074a5780634d8842811461075d578063515535e814610770576105d2565b8063427fa1d214610709578063441c77c01461071c57806347fe2d201461072f576105d2565b8063313066ee146106c35780633538af82146106cb578063353f44d0146106de578063354dae40146106f157806339e7357c146106f95780633ad2131f14610701576105d2565b8063226ed3001161058f578063226ed30014610640578063275c25901461066057806329a47bc7146106685780632c0520311461067d5780632d917c68146106905780632f469fd1146106a3576105d2565b806304dbcda7146105d7578063050eb2eb146105f5578063053e71a61461060a5780630e6661a71461061d5780630e670feb146106255780631b8550441461062d575b600080fd5b6105df610c40565b6040516105ec9190615b2a565b60405180910390f35b61060861060336600461557e565b610c46565b005b6105df610618366004615957565b610cb0565b6105df610d16565b6105df610d1c565b6105df61063b3660046159f8565b610d22565b61065361064e366004615957565b610d56565b6040516105ec9190615c79565b610608610d98565b610670610e81565b6040516105ec9190615b5d565b6105df61068b3660046155c1565b610e90565b61065361069e366004615598565b61102d565b6106b66106b1366004615980565b61104d565b6040516105ec9190615cbc565b6105df6110f2565b6106706106d9366004615957565b6110f8565b6105df6106ec36600461557e565b611122565b610608611134565b6105df611274565b6105df611291565b6105df61071736600461557e565b611297565b61065361072a366004615957565b611337565b6105df611391565b610653610745366004615957565b611397565b610653610758366004615957565b6116be565b61060861076b36600461557e565b6119af565b6105df611a10565b610670611a16565b61060861078e366004615957565b611a25565b6105df611a69565b6105df611a6f565b610608611a75565b6107be6107b9366004615957565b611e5c565b6040516105ec9493929190615cf9565b6106086107dc366004615957565b611f1b565b6105df6107ef36600461557e565b6127a8565b6106086127b7565b6105df61080a366004615957565b612802565b6105df61283f565b6105df612845565b610670612849565b6105df612858565b61065361083d366004615598565b61286f565b610855610850366004615957565b6128c2565b6040516105ec9d9c9b9a99989796959493929190616b63565b61065361087c366004615a19565b6129bb565b61067061088f366004615957565b6129fc565b610670612a0c565b6105df612a1b565b6108b76108b236600461557e565b612a21565b6040516105ec99989796959493929190615b71565b610670612b09565b6106706108e23660046159f8565b612b18565b6106086108f5366004615957565b612b50565b6105df612cff565b6106086109103660046159ab565b612d05565b610608610923366004615688565b613181565b6105df610936366004615957565b6131d3565b6105df610949366004615598565b6131f7565b61060861095c366004615957565b61320c565b61065361096f366004615957565b61330d565b6105df61334f565b61065361098a3660046157a3565b613355565b61065361099d366004615598565b6133bb565b6105df61340e565b6106706134c3565b6106536109c036600461557e565b6134d2565b6109d86109d33660046159f8565b613620565b6040516105ec9190615c35565b6105df6109f33660046155c1565b613827565b6109d8610a063660046159f8565b613913565b610608610a1936600461557e565b613a7b565b6105df610a2c366004615957565b613adc565b6105df613b19565b6105df613b1f565b6105df610a4f366004615598565b613b25565b610653610a62366004615598565b613bba565b6105df613bda565b610670610a7d366004615598565b613be0565b610670613bfc565b6105df610a98366004615980565b613c0b565b6105df610aab366004615598565b613c28565b610653610abe366004615957565b613c6d565b610608610ad1366004615957565b613c72565b610608610ae436600461557e565b613cb6565b610608610af736600461557e565b613d17565b6105df613d78565b610608610b1236600461557e565b613d7e565b6109d8610b25366004615957565b613ddf565b6105df613e58565b610653610b4036600461557e565b613e5e565b610608610b53366004615957565b613e7f565b610608610b66366004615957565b613fbb565b610b7e610b79366004615957565b613fff565b6040516105ec9190615bd5565b6105df614411565b6105df614417565b610608610ba936600461557e565b61441d565b6105df610bbc366004615731565b61448b565b6105df6144c1565b610608610bd7366004615a55565b6144c7565b610608614796565b610653610bf2366004615957565b61495b565b610653614963565b61067061497c565b6105df610c1536600461557e565b61498b565b610608610c283660046155f3565b614ab1565b610608610c3b3660046155f3565b614b92565b60055481565b610c4e614c8b565b6001600160a01b0316610c5f612b09565b6001600160a01b031614610c8e5760405162461bcd60e51b8152600401610c8590616570565b60405180910390fd5b602380546001600160a01b0319166001600160a01b0392909216919091179055565b6000610cbb82610d56565b610cd75760405162461bcd60e51b8152600401610c8590616275565b610ce0826116be565b15610cfd57506000818152601e6020526040902060070154610d11565b506000818152601e60205260409020600801545b919050565b60115481565b60065481565b60008282604051602001610d37929190615b4f565b6040516020818303038152906040528051906020012090505b92915050565b6000610d618261495b565b610d7d5760405162461bcd60e51b8152600401610c85906169b5565b6000828152601e6020526040902060060154610d5090613c6d565b610da0614c8f565b336000908152601260205260409020600781015460ff161515600114610dd85760405162461bcd60e51b8152600401610c859061617e565b6000610de2612845565b9050610ded33614e17565b610df633614f6f565b8154336001600160a01b031991821681178455600180850180549093169091179091556005830182905560078301805460ff19169055601f8054600090610e3e908490616ca9565b909155505060405133907f9dadcedba048e92b943ea1c5861cee1df63a566d7f795869c004780c1c698e2b90610e75908490615b2a565b60405180910390a25050565b6022546001600160a01b031681565b600080610e9c85611297565b90506000610eaa8683613b25565b90505b811561102257610ebd8683613b25565b9050848111610f7a5783821415610f72576001600160a01b0386166000908152600e602052604090819020905163215e94cf60e01b815273__$6ffa5bf1f4fa681f07e1987a80577d5f4e$__9163215e94cf91610f1f91908690600401615b4f565b60206040518083038186803b158015610f3757600080fd5b505af4158015610f4b573d6000803e3d6000fd5b505050506040513d601f19601f82011682018060405250810190610f6f919061596f565b91505b509050611026565b6001600160a01b0386166000908152600e602052604090819020905163215e94cf60e01b815273__$6ffa5bf1f4fa681f07e1987a80577d5f4e$__9163215e94cf91610fcb91908690600401615b4f565b60206040518083038186803b158015610fe357600080fd5b505af4158015610ff7573d6000803e3d6000fd5b505050506040513d601f19601f8201168201806040525081019061101b919061596f565b9150610ead565b5090505b9392505050565b600a60209081526000928352604080842090915290825290205460ff1681565b600d6020908152600092835260408084209091529082529020805461107190616d3b565b80601f016020809104026020016040519081016040528092919081815260200182805461109d90616d3b565b80156110ea5780601f106110bf576101008083540402835291602001916110ea565b820191906000526020600020905b8154815290600101906020018083116110cd57829003601f168201915b505050505081565b60105481565b6016818154811061110857600080fd5b6000918252602090912001546001600160a01b0316905081565b60146020526000908152604090205481565b601d546000908152601e602052604090206004015460ff1680611158575060165415155b6111745760405162461bcd60e51b8152600401610c8590616359565b601d546000908152601e602052604081206004015462010000900460ff1615156001148015906111a5575060165415155b156111b6576111b2611a75565b5060015b601c546000908152601e602052604090206004015462010000900460ff161515600114801561120857506111eb601c54610d56565b806112085750601c546000908152601e6020526040902060030154155b1561122d57611218601c54611f1b565b601c5461122690600161509f565b601c555060015b80156112455760105461124190600161509f565b6010555b6010546040517f94d48a7342690f1233e3f4db70efa37c4f1f25f4d0397c353f3f15aecdeca5f490600090a250565b60405160009080602081848060185afa61128a57fe5b5051919050565b60085481565b6001600160a01b0381166000908152600e6020526040808220905163215e94cf60e01b815273__$6ffa5bf1f4fa681f07e1987a80577d5f4e$__9163215e94cf916112e791908590600401615b4f565b60206040518083038186803b1580156112ff57600080fd5b505af4158015611313573d6000803e3d6000fd5b505050506040513d601f19601f82011682018060405250810190610d50919061596f565b60006113428261495b565b61135e5760405162461bcd60e51b8152600401610c859061672e565b6000828152601e602052604090206006015461137990613c6d565b158015610d50575061138a8261330d565b1592915050565b601c5490565b6025546000906001600160a01b03161561169e5781601b541080156114395750602554604051637b90ef2560e11b81526001600160a01b039091169063f721de4a906113e7908590600401615b2a565b602060405180830381600087803b15801561140157600080fd5b505af1158015611415573d6000803e3d6000fd5b505050506040513d601f19601f820116820180604052508101906114399190615717565b1561169e57602554604051631b308bf760e31b81526000916001600160a01b03169063d9845fb89061146f908690600401615b2a565b600060405180830381600087803b15801561148957600080fd5b505af115801561149d573d6000803e3d6000fd5b505050506040513d6000823e601f3d908101601f191682016040526114c59190810190615803565b61018081015190915060018160038111156114f057634e487b7160e01b600052602160045260246000fd5b1415611696576040805160808101825261016084015181523360208083019190915242828401526000606083018190526011548152601382529290922081518051929391926115429284920190615317565b506020820151600182810180546001600160a01b0319166001600160a01b0390931692909217909155604083015160028301556060830151600380840180549293909260ff19169184908111156115a957634e487b7160e01b600052602160045260246000fd5b021790555050601a546000908152601e602052604090206002810154909150600511156115f75760018160020160008282546115e59190616ca9565b90915550506011546001820155611643565b60048101805461ff001960ff19909116600117169055611615611134565b6001601a60008282546116289190616ca9565b9091555050601154601a546000908152601e60205260409020555b601154611651906001616ca9565b60118190556101608401516040517fe72ee44ad0ed1dfc338f7eec797c944eb218773c1edbb4bb653dd9c1e2a623049161168c913390615ccf565b60405180910390a2505b5050601b8290555b6001601f60008282546116b19190616ca9565b9091555060009392505050565b6000818152601e6020908152604080832081516101e0810183528154815260018201549381019390935260028101549183019190915260038101546060830152600481015460ff808216151560808501526101008083048216151560a08601526201000090920416151560c0840152600582015460e0840152600682015490830152600781015461012083015260088101546101408301526009810180548493929161016084019161176f90616d3b565b80601f016020809104026020016040519081016040528092919081815260200182805461179b90616d3b565b80156117e85780601f106117bd576101008083540402835291602001916117e8565b820191906000526020600020905b8154815290600101906020018083116117cb57829003601f168201915b5050509183525050600a82015460209091019060ff16600381111561181d57634e487b7160e01b600052602160045260246000fd5b600381111561183c57634e487b7160e01b600052602160045260246000fd5b8152602001600b8201805480602002602001604051908101604052809291908181526020016000905b8282101561191157838290600052602060002001805461188490616d3b565b80601f01602080910402602001604051908101604052809291908181526020018280546118b090616d3b565b80156118fd5780601f106118d2576101008083540402835291602001916118fd565b820191906000526020600020905b8154815290600101906020018083116118e057829003601f168201915b505050505081526020019060010190611865565b505050508152602001600c820180548060200260200160405190810160405280929190818152602001828054801561196857602002820191906000526020600020905b815481526020019060010190808311611954575b50505050508152505090508061014001518161012001516119899190616ca9565b6008546119969190616cd5565b6101208201516119a7906064616cd5565b119392505050565b6119b7614c8b565b6001600160a01b03166119c8612b09565b6001600160a01b0316146119ee5760405162461bcd60e51b8152600401610c8590616570565b601980546001600160a01b0319166001600160a01b0392909216919091179055565b601a5490565b6023546001600160a01b031681565b611a2d614c8b565b6001600160a01b0316611a3e612b09565b6001600160a01b031614611a645760405162461bcd60e51b8152600401610c8590616570565b600455565b60045481565b60025481565b601d546000908152601e602052604090206004015460ff16611aa95760405162461bcd60e51b8152600401610c859061664b565b601d546000908152601e602052604090206004015462010000900460ff1615611ae45760405162461bcd60e51b8152600401610c85906164a5565b6000611b01611afa6016805490506009546150ab565b60016150c1565b601654601d546000908152601e602052604081206003908101849055549293509091611b2e90429061509f565b90506000611b476004548361509f90919063ffffffff16565b601d80546000908152601e6020526040808220600501869055825482528082206006018490559154815220600401805462ff0000191662010000179055905060018410801590611b98575060018310155b611bb45760405162461bcd60e51b8152600401610c8590616034565b6000611bc08585613913565b9050600081516001600160401b03811115611beb57634e487b7160e01b600052604160045260246000fd5b604051908082528060200260200182016040528015611c14578160200160208202803683370190505b50905060005b8251811015611cd3576016838281518110611c4557634e487b7160e01b600052603260045260246000fd5b602002602001015181548110611c6b57634e487b7160e01b600052603260045260246000fd5b9060005260206000200160009054906101000a90046001600160a01b0316828281518110611ca957634e487b7160e01b600052603260045260246000fd5b6001600160a01b039092166020928302919091019091015280611ccb81616d76565b915050611c1a565b5060005b8251811015611e27576000828281518110611d0257634e487b7160e01b600052603260045260246000fd5b6020908102919091018101516001600160a01b03811660008181526012845260408082206017805460018181019092557fc624b66cc0138b8fabc209247f72d758e1cf3343756d543badbf24212bed8c150180546001600160a01b03199081168717909155601d548552601888529284208054918201815584529590922090940180549094169091179092558451909250611dc490859085908110611db757634e487b7160e01b600052603260045260246000fd5b6020026020010151614e17565b601d8054600283015560038201805460ff19169055546040517fe4ee2dfabe57cee15e3f558890b20455f54c1fa0718e5276faad70a6500e6b8c90611e0a908590615b5d565b60405180910390a250508080611e1f90616d76565b915050611cd7565b50601d54611e3690600161509f565b601d819055506001601f6000828254611e4f9190616ca9565b9091555050505050505050565b601360205260009081526040902080548190611e7790616d3b565b80601f0160208091040260200160405190810160405280929190818152602001828054611ea390616d3b565b8015611ef05780601f10611ec557610100808354040283529160200191611ef0565b820191906000526020600020905b815481529060010190602001808311611ed357829003601f168201915b505050506001830154600284015460039094015492936001600160a01b039091169290915060ff1684565b611f2481610d56565b80611f3e57506000818152601e6020526040902060030154155b611f5a5760405162461bcd60e51b8152600401610c85906165a5565b6000818152601e6020526040902060040154610100900460ff1615611f915760405162461bcd60e51b8152600401610c85906167e1565b6000818152601e6020526040902060040154610100900460ff166127a5576000611fba826116be565b60008381526018602090815260408083208054825181850281018501909352808352949550929390929183018282801561201d57602002820191906000526020600020905b81546001600160a01b03168152600190910190602001808311611fff575b50505050509050600081516001600160401b0381111561204d57634e487b7160e01b600052604160045260246000fd5b60405190808252806020026020018201604052801561208057816020015b606081526020019060019003908161206b5790505b50905060005b825181101561240c5760008382815181106120b157634e487b7160e01b600052603260045260246000fd5b6020908102919091018101516000888152600c835260408082206001600160a01b03841680845290855281832054600b86528284208c8552865282842054600d875283852092855291909552908220805493955060ff9091169261211490616d3b565b80601f016020809104026020016040519081016040528092919081815260200182805461214090616d3b565b801561218d5780601f106121625761010080835404028352916020019161218d565b820191906000526020600020905b81548152906001019060200180831161217057829003601f168201915b50505050509050808686815181106121b557634e487b7160e01b600052603260045260246000fd5b60200260200101819052506121c984614f6f565b6001600160a01b038416600090815260126020526040902082156123da576001600160a01b0385166000908152601260205260409020600301805460ff191660019081179091558915151480156122205750836001145b80612235575088158015612235575083600114155b1561237c57602254600754604051630db6cc8560e11b81526001600160a01b0390921691631b6d990a9161226d918990600401616b2f565b602060405180830381600087803b15801561228757600080fd5b505af115801561229b573d6000803e3d6000fd5b505050506040513d601f19601f820116820180604052508101906122bf9190615717565b6122db5760405162461bcd60e51b8152600401610c859061630c565b602354600554604051633832942560e21b81526001600160a01b039092169163e0ca50949161230e918990600401616b18565b602060405180830381600087803b15801561232857600080fd5b505af115801561233c573d6000803e3d6000fd5b505050506040513d601f19601f820116820180604052508101906123609190615717565b61237c5760405162461bcd60e51b8152600401610c859061612f565b600781015460ff16156123d557601680546001810182556000919091527fd833147d7dc355ba459fc788f669e58cfaf9dc25ddcd0702e87d69c7b51242890180546001600160a01b0319166001600160a01b0387161790555b6123f4565b600781015460ff16156123f45760078101805460ff191690555b5050505050808061240490616d76565b915050612086565b50600061242c6064845160326124229190616cd5565b611afa9190616cc1565b905060008260008151811061245157634e487b7160e01b600052603260045260246000fd5b6020026020010151905060005b8351811015612547576000805b85518110156124fc576124cc86848151811061249757634e487b7160e01b600052603260045260246000fd5b60200260200101518783815181106124bf57634e487b7160e01b600052603260045260246000fd5b6020026020010151613355565b156124ea576124dc600183616ca9565b91508482106124ea576124fc565b806124f481616d76565b91505061246b565b508381106125345784828151811061252457634e487b7160e01b600052603260045260246000fd5b6020026020010151925050612547565b508061253f81616d76565b91505061245e565b506000868152601e6020908152604090912060048101805461ff001916610100179055825161257e92600990920191840190615317565b5084156127145760225460075460008881526013602052604090819020600101549051630db6cc8560e11b81526001600160a01b0393841693631b6d990a936125ce939092911690600401616b2f565b602060405180830381600087803b1580156125e857600080fd5b505af11580156125fc573d6000803e3d6000fd5b505050506040513d601f19601f820116820180604052508101906126209190615717565b61263c5760405162461bcd60e51b8152600401610c85906168c1565b60235460055460008881526013602052604090819020600101549051633832942560e21b81526001600160a01b039384169363e0ca509493612685939092911690600401616b18565b602060405180830381600087803b15801561269f57600080fd5b505af11580156126b3573d6000803e3d6000fd5b505050506040513d601f19601f820116820180604052508101906126d79190615717565b6126f35760405162461bcd60e51b8152600401610c8590616792565b6000868152601e60205260409020600a01805460ff19166001179055612731565b6000868152601e60205260409020600a01805460ff191660021790555b6001601f60008282546127449190616ca9565b909155505060008681526013602052604090819020600181015491516001600160a01b03909216917fb83f08cf731092d35d6dd4801ac76e3fcc84b1b199915531c9874230d31adeaa9161279791615d3a565b60405180910390a250505050505b50565b6000610d5082610a4f84611297565b6127bf614c8b565b6001600160a01b03166127d0612b09565b6001600160a01b0316146127f65760405162461bcd60e51b8152600401610c8590616570565b61280060006150d1565b565b600061280d8261495b565b6128295760405162461bcd60e51b8152600401610c859061672e565b506000908152601e602052604090206006015490565b60075481565b4290565b6024546001600160a01b031681565b60175460165460009161286a91616ca9565b905090565b600061287a8261495b565b6128965760405162461bcd60e51b8152600401610c859061672e565b506001600160a01b03919091166000908152600a60209081526040808320938352929052205460ff1690565b601e60205260009081526040902080546001820154600283015460038401546004850154600586015460068701546007880154600889015460098a018054999a98999798969760ff8088169861010089048216986201000090049091169695949392909161292f90616d3b565b80601f016020809104026020016040519081016040528092919081815260200182805461295b90616d3b565b80156129a85780601f1061297d576101008083540402835291602001916129a8565b820191906000526020600020905b81548152906001019060200180831161298b57829003601f168201915b505050600a909301549192505060ff168d565b6000806129c88487613b25565b831015905060006129d98587613b25565b841115806129e5575085155b90508180156129f15750805b979650505050505050565b6017818154811061110857600080fd5b6021546001600160a01b031681565b601a5481565b60126020526000908152604090208054600182015460028301546003840154600485015460058601546006870180546001600160a01b03978816989690971696949560ff9094169492939192612a7690616d3b565b80601f0160208091040260200160405190810160405280929190818152602001828054612aa290616d3b565b8015612aef5780601f10612ac457610100808354040283529160200191612aef565b820191906000526020600020905b815481529060010190602001808311612ad257829003601f168201915b505050506007830154600890930154919260ff1691905089565b6000546001600160a01b031690565b60186020528160005260406000208181548110612b3457600080fd5b6000918252602090912001546001600160a01b03169150829050565b60016000828152601e60205260409020600a015460ff166003811115612b8657634e487b7160e01b600052602160045260246000fd5b14612ba35760405162461bcd60e51b8152600401610c8590615e1b565b336000908152600e602052604090819020905163162a54af60e31b815273__$6ffa5bf1f4fa681f07e1987a80577d5f4e$__9163b152a57891612beb91908590600401615b4f565b60206040518083038186803b158015612c0357600080fd5b505af4158015612c17573d6000803e3d6000fd5b505050506040513d601f19601f82011682018060405250810190612c3b9190615717565b612c575760405162461bcd60e51b8152600401610c85906163cf565b336000908152600e6020526040908190209051634dab476560e01b815273__$6ffa5bf1f4fa681f07e1987a80577d5f4e$__91634dab476591612c9f91908590600401615b4f565b60006040518083038186803b158015612cb757600080fd5b505af4158015612ccb573d6000803e3d6000fd5b50506040513392508391507f402507661c8c8cb90e0a796450b8bdd28b6c516f05279c0cd29e84c344e1699a90600090a350565b60105490565b612d0d614c8f565b612d168361330d565b612d325760405162461bcd60e51b8152600401610c859061607e565b82612d3c3361498b565b14612d595760405162461bcd60e51b8152600401610c8590616502565b60015433600090815260146020526040902054811115612d9b5733600090815260146020526040812054612d8e908390615121565b9050612d998161320c565b505b33600090815260146020526040902054811115612dca5760405162461bcd60e51b8152600401610c8590616864565b6000336000908152600e60205260408082209051631b23afef60e21b815273__$6ffa5bf1f4fa681f07e1987a80577d5f4e$__91636c8ebfbc91612e1391908690600401615b4f565b60206040518083038186803b158015612e2b57600080fd5b505af4158015612e3f573d6000803e3d6000fd5b505050506040513d601f19601f82011682018060405250810190612e63919061596f565b905085811415612f0857336000908152600e6020526040908190209051631b23afef60e21b815273__$6ffa5bf1f4fa681f07e1987a80577d5f4e$__91636c8ebfbc91612eb591908a90600401615b4f565b60206040518083038186803b158015612ecd57600080fd5b505af4158015612ee1573d6000803e3d6000fd5b505050506040513d601f19601f82011682018060405250810190612f05919061596f565b90505b612f14828233866129bb565b612f305760405162461bcd60e51b8152600401610c8590616477565b336000908152600e602052604090819020905163f3a1998360e01b815273__$6ffa5bf1f4fa681f07e1987a80577d5f4e$__9163f3a1998391612f7c919086908b908790600401616afd565b60006040518083038186803b158015612f9457600080fd5b505af4158015612fa8573d6000803e3d6000fd5b505050506000612fb833886131f7565b60408051808201825260098152686e756d546f6b656e7360b81b60208201529051633416d70d60e21b81529192509073__$d865f21674766f31b0d600e4a95b721b57$__9063d05b5c349061301890600f90869086908b90600401616a52565b60006040518083038186803b15801561303057600080fd5b505af4158015613044573d6000803e3d6000fd5b5050604051633416d70d60e21b815273__$d865f21674766f31b0d600e4a95b721b57$__925063d05b5c34915061308490600f9086908c90600401616aa0565b60006040518083038186803b15801561309c57600080fd5b505af41580156130b0573d6000803e3d6000fd5b5050506000898152600d60209081526040808320338452825290912088516130dd93509091890190615317565b503360009081526012602052604090206130f5612845565b6005820155336000908152600a602090815260408083208c84529091528120805460ff19166001908117909155601f805491929091613135908490616ca9565b909155505060405133908a907f1b5c5140592c554fa4c0cdb5b3d3cd50f87aa84e477afd0b6c93d7702ef9c73c9061316e908a90615b2a565b60405180910390a3505050505050505050565b60005b81518110156131cf576131bd8282815181106131b057634e487b7160e01b600052603260045260246000fd5b6020026020010151612b50565b806131c781616d76565b915050613184565b5050565b6000818152601e602052604081206008810154600790910154829161102691616ca9565b60008282604051602001610d37929190615b08565b6021546040516304ada21f60e21b81526001600160a01b03909116906312b6887c9061323e9084903390600401616b18565b602060405180830381600087803b15801561325857600080fd5b505af115801561326c573d6000803e3d6000fd5b505050506040513d601f19601f820116820180604052508101906132909190615717565b6132ac5760405162461bcd60e51b8152600401610c85906161c9565b33600090815260146020526040812080548392906132cb908490616ca9565b909155505060405133907ff7aaf024511d9982df8cd0d437c71c30106e6848cd1ba3d288d7a9c0e276aeda90613302908490615b2a565b60405180910390a250565b60006133188261495b565b6133345760405162461bcd60e51b8152600401610c859061672e565b6000828152601e602052604090206005015461138a90613c6d565b60115490565b6000816040516020016133689190615b33565b604051602081830303815290604052805190602001208360405160200161338f9190615b33565b6040516020818303038152906040528051906020012014156133b357506001610d50565b506000610d50565b60006133c68261495b565b6133e25760405162461bcd60e51b8152600401610c859061672e565b506001600160a01b03919091166000908152600b60209081526040808320938352929052205460ff1690565b60008042416040516020016134239190615aeb565b6040516020818303038152906040528051906020012060001c6134469190616cc1565b4461344f611274565b60405160200161345f9190615b2a565b60408051601f1981840301815291905280516020909101206134819042616ca9565b61348b9190616ca9565b6134959190616ca9565b6040516020016134a59190615b2a565b60408051601f19818403018152919052805160209091012091505090565b6019546001600160a01b031681565b6001600160a01b038082166000908152601260209081526040808320815161012081018352815486168152600182015490951692850192909252600282015490840152600381015460ff161515606084015260048101546080840152600581015460a0840152600681018054929384938493919260c084019161355490616d3b565b80601f016020809104026020016040519081016040528092919081815260200182805461358090616d3b565b80156135cd5780601f106135a2576101008083540402835291602001916135cd565b820191906000526020600020905b8154815290600101906020018083116135b057829003601f168201915b5050509183525050600782015460ff1615156020820152600890910154604090910152606081015190915015801561360f575061360d8160400151610d56565b155b1561361957600191505b5092915050565b60606000821161362f57600080fd5b6000416040516020016136429190615aeb565b6040516020818303038152906040528051906020012060001c613663611274565b6040516020016136739190615b2a565b60408051601f1981840301815291905280516020909101206136959042616ca9565b61369f9190616ca9565b6040516020016136af9190615b2a565b6040516020818303038152906040528051906020012060001c90506000846001600160401b038111156136f257634e487b7160e01b600052604160045260246000fd5b60405190808252806020026020018201604052801561371b578160200160208202803683370190505b5090506000805b8682101561381c5760008661373b63017efeeb87616cf4565b8360405160200161374d929190615b4f565b6040516020818303038152906040528051906020012060001c6137709190616d91565b90506000805b848110156137c8578286828151811061379f57634e487b7160e01b600052603260045260246000fd5b602002602001015114156137b657600191506137c8565b806137c081616d76565b915050613776565b508061380857818585815181106137ef57634e487b7160e01b600052603260045260246000fd5b6020908102919091010152613805846001616ca9565b93505b613813836001616ca9565b92505050613722565b509095945050505050565b600061383283610d56565b61384e5760405162461bcd60e51b8152600401610c859061690e565b6001600160a01b0384166000908152600b6020908152604080832086845290915290205460ff166138915760405162461bcd60e51b8152600401610c859061642c565b600061389c846116be565b6138a75760006138aa565b60015b60ff169050600081846040516020016138c4929190615b4f565b60405160208183030381529060405280519060200120905060006138e88787613c28565b90508082146139095760405162461bcd60e51b8152600401610c8590616602565b6129f18787613b25565b60606000821180156139255750818311155b8015613932575060018310155b61394e5760405162461bcd60e51b8152600401610c8590615feb565b6000826001600160401b0381111561397657634e487b7160e01b600052604160045260246000fd5b60405190808252806020026020018201604052801561399f578160200160208202803683370190505b5090506000846001600160401b038111156139ca57634e487b7160e01b600052604160045260246000fd5b6040519080825280602002602001820160405280156139f3578160200160208202803683370190505b5090506000613a09613a048461512d565b615183565b905060005b8681101561381c57818181518110613a3657634e487b7160e01b600052603260045260246000fd5b6020026020010151838281518110613a5e57634e487b7160e01b600052603260045260246000fd5b602090810291909101015280613a7381616d76565b915050613a0e565b613a83614c8b565b6001600160a01b0316613a94612b09565b6001600160a01b031614613aba5760405162461bcd60e51b8152600401610c8590616570565b602480546001600160a01b0319166001600160a01b0392909216919091179055565b6000613ae78261495b565b613b035760405162461bcd60e51b8152600401610c859061672e565b506000908152601e602052604090206005015490565b60095481565b60015481565b600073__$d865f21674766f31b0d600e4a95b721b57$__6362e02a2a600f613b4d86866131f7565b6040518363ffffffff1660e01b8152600401613b6a929190616ace565b60206040518083038186803b158015613b8257600080fd5b505af4158015613b96573d6000803e3d6000fd5b505050506040513d601f19601f82011682018060405250810190611026919061596f565b600b60209081526000928352604080842090915290825290205460ff1681565b601d5481565b60156020528160005260406000208181548110612b3457600080fd5b6025546001600160a01b031681565b600c60209081526000928352604080842090915290825290205481565b600073__$d865f21674766f31b0d600e4a95b721b57$__6362e02a2a600f613c5086866131f7565b6040518363ffffffff1660e01b8152600401613b6a929190616a82565b421190565b613c7a614c8b565b6001600160a01b0316613c8b612b09565b6001600160a01b031614613cb15760405162461bcd60e51b8152600401610c8590616570565b600955565b613cbe614c8b565b6001600160a01b0316613ccf612b09565b6001600160a01b031614613cf55760405162461bcd60e51b8152600401610c8590616570565b602580546001600160a01b0319166001600160a01b0392909216919091179055565b613d1f614c8b565b6001600160a01b0316613d30612b09565b6001600160a01b031614613d565760405162461bcd60e51b8152600401610c8590616570565b602280546001600160a01b0319166001600160a01b0392909216919091179055565b601b5481565b613d86614c8b565b6001600160a01b0316613d97612b09565b6001600160a01b031614613dbd5760405162461bcd60e51b8152600401610c8590616570565b602180546001600160a01b0319166001600160a01b0392909216919091179055565b606060008211613dee57600080fd5b6000826001600160401b03811115613e1657634e487b7160e01b600052604160045260246000fd5b604051908082528060200260200182016040528015613e3f578160200160208202803683370190505b5090506000613e50613a048361512d565b949350505050565b60035481565b6001600160a01b031660009081526012602052604090206007015460ff1690565b6000613ea3613e8d336127a8565b3360009081526014602052604090205490615121565b905081811015613ec55760405162461bcd60e51b8152600401610c85906166e7565b602154604051630895993360e11b81526001600160a01b039091169063112b326690613ef79085903390600401616b18565b602060405180830381600087803b158015613f1157600080fd5b505af1158015613f25573d6000803e3d6000fd5b505050506040513d601f19601f82011682018060405250810190613f499190615717565b613f655760405162461bcd60e51b8152600401610c8590616958565b3360009081526014602052604081208054849290613f84908490616cf4565b909155505060405133907ffaeb7dbb9992397d26ea1944efd40c80b40f702faf69b46c67ad10aba68ccb7990610e75908590615b2a565b613fc3614c8b565b6001600160a01b0316613fd4612b09565b6001600160a01b031614613ffa5760405162461bcd60e51b8152600401610c8590616570565b600355565b606061400a8261495b565b6140265760405162461bcd60e51b8152600401610c859061672e565b6000828152601e6020908152604080832081516101e0810183528154815260018201549381019390935260028101549183019190915260038101546060830152600481015460ff808216151560808501526101008083048216151560a08601526201000090920416151560c0840152600582015460e084015260068201549083015260078101546101208301526008810154610140830152600981018054610160840191906140d490616d3b565b80601f016020809104026020016040519081016040528092919081815260200182805461410090616d3b565b801561414d5780601f106141225761010080835404028352916020019161414d565b820191906000526020600020905b81548152906001019060200180831161413057829003601f168201915b5050509183525050600a82015460209091019060ff16600381111561418257634e487b7160e01b600052602160045260246000fd5b60038111156141a157634e487b7160e01b600052602160045260246000fd5b8152602001600b8201805480602002602001604051908101604052809291908181526020016000905b828210156142765783829060005260206000200180546141e990616d3b565b80601f016020809104026020016040519081016040528092919081815260200182805461421590616d3b565b80156142625780601f1061423757610100808354040283529160200191614262565b820191906000526020600020905b81548152906001019060200180831161424557829003601f168201915b5050505050815260200190600101906141ca565b505050508152602001600c82018054806020026020016040519081016040528092919081815260200182805480156142cd57602002820191906000526020600020905b8154815260200190600101908083116142b9575b505050919092525050506040818101518151600580825260c0820190935292935091600091816020015b60608152602001906001900390816142f757905050905060005b82811015614408578351600090614329908390616ca9565b60008181526013602052604081208054929350909161434790616d3b565b80601f016020809104026020016040519081016040528092919081815260200182805461437390616d3b565b80156143c05780601f10614395576101008083540402835291602001916143c0565b820191906000526020600020905b8154815290600101906020018083116143a357829003601f168201915b50505050509050808484815181106143e857634e487b7160e01b600052603260045260246000fd5b60200260200101819052505050808061440090616d76565b915050614311565b50949350505050565b601c5481565b601f5481565b614425614c8b565b6001600160a01b0316614436612b09565b6001600160a01b03161461445c5760405162461bcd60e51b8152600401610c8590616570565b6001600160a01b0381166144825760405162461bcd60e51b8152600401610c8590615fa5565b6127a5816150d1565b60008383836040516020016144a293929190615c84565b6040516020818303038152906040528051906020012090509392505050565b601f5490565b6144cf614c8f565b6144d883611337565b6144f45760405162461bcd60e51b8152600401610c85906166a1565b336000908152600a6020908152604080832086845290915290205460ff1661452e5760405162461bcd60e51b8152600401610c8590616226565b6145383384613c28565b6145428383610d22565b1461455f5760405162461bcd60e51b8152600401610c8590615f22565b600061456b3385613b25565b905082600114156145a2576000848152601e602052604081206007018054839290614597908490616ca9565b909155506145c99050565b6000848152601e6020526040812060080180548392906145c3908490616ca9565b90915550505b336000908152600e6020526040908190209051634dab476560e01b815273__$6ffa5bf1f4fa681f07e1987a80577d5f4e$__91634dab47659161461191908890600401615b4f565b60006040518083038186803b15801561462957600080fd5b505af415801561463d573d6000803e3d6000fd5b5050336000818152600b602090815260408083208a84528252808320805460ff19166001908117909155600c8352818420948452938252808320899055601282528083208a8452601e9092529091206003015490935061469e925090615121565b6000868152601e602052604090206003908101919091558101805460ff191660011790556146ca612845565b60058201556146d833614f6f565b601680546001818101835560009283527fd833147d7dc355ba459fc788f669e58cfaf9dc25ddcd0702e87d69c7b512428990910180546001600160a01b03191633179055601f80549192909161472f908490616ca9565b90915550506000858152601e602052604090819020600781015460089091015491513392879289927f2e5fbeef18eaa8d8ea3b0122bc64445c4daaa6f454dfb889456791a92287f37892614787928992909190616b4d565b60405180910390a45050505050565b61479e614c8f565b3360009081526012602052604090206017546016546103e8916147c091616ca9565b106147dd5760405162461bcd60e51b8152600401610c8590616822565b600781015460ff16156148025760405162461bcd60e51b8152600401610c8590615de4565b600061480c612845565b60015433600090815260146020526040902054919250908111156148525733600090815260146020526040812054614845908390615121565b90506148508161320c565b505b336000908152601460205260409020548111156148815760405162461bcd60e51b8152600401610c85906162a3565b60168054600180820183556000929092527fd833147d7dc355ba459fc788f669e58cfaf9dc25ddcd0702e87d69c7b5124289018054336001600160a01b031991821681179092558554811682178655918501805490921617905560058301829055600783015460ff166149045760078301805460ff191660011790554260088401555b6001601f60008282546149179190616ca9565b909155505060405133907f439d77b7534ec3108fc6143bd4fbabde0b9f2bb54f7b0730d1f70dd2135b765f9061494e908590615b2a565b60405180910390a2505050565b601a54101590565b3360009081526012602052604090206007015460ff1690565b6020546001600160a01b031681565b6001600160a01b038082166000908152601260209081526040808320815161012081018352815486168152600182015490951692850192909252600282015490840152600381015460ff161515606084015260048101546080840152600581015460a08401526006810180549293849390929160c0840191614a0c90616d3b565b80601f0160208091040260200160405190810160405280929190818152602001828054614a3890616d3b565b8015614a855780601f10614a5a57610100808354040283529160200191614a85565b820191906000526020600020905b815481529060010190602001808311614a6857829003601f168201915b5050509183525050600782015460ff161515602082015260089091015460409182015201519392505050565b848314614ad05760405162461bcd60e51b8152600401610c85906160b5565b848114614aef5760405162461bcd60e51b8152600401610c85906169de565b60005b85811015614b8957614b77878783818110614b1d57634e487b7160e01b600052603260045260246000fd5b90506020020135868684818110614b4457634e487b7160e01b600052603260045260246000fd5b90506020020135858585818110614b6b57634e487b7160e01b600052603260045260246000fd5b905060200201356144c7565b80614b8181616d76565b915050614af2565b50505050505050565b848314614bb15760405162461bcd60e51b8152600401610c8590615eb1565b60005b85811015614b8957614c79878783818110614bdf57634e487b7160e01b600052603260045260246000fd5b90506020020135868684818110614c0657634e487b7160e01b600052603260045260246000fd5b90506020020135858585818110614c2d57634e487b7160e01b600052603260045260246000fd5b9050602002810190614c3f9190616be6565b8080601f016020809104026020016040519081016040528093929190818152602001838380828437600092019190915250612d0592505050565b80614c8381616d76565b915050614bb4565b3390565b6019546001600160a01b0316614cb75760405162461bcd60e51b8152600401610c8590616765565b6019546040516000916001600160a01b031690614cd8903390602401615b5d565b60408051601f198184030181529181526020820180516001600160e01b0316631f5ac9c560e11b17905251614d0d9190615b33565b6000604051808303816000865af19150503d8060008114614d4a576040519150601f19603f3d011682016040523d82523d6000602084013e614d4f565b606091505b50506019546040519192506000916001600160a01b0390911690614d77903390602401615b5d565b60408051601f198184030181529181526020820180516001600160e01b03166358563d2160e01b17905251614dac9190615b33565b6000604051808303816000865af19150503d8060008114614de9576040519150601f19603f3d011682016040523d82523d6000602084013e614dee565b606091505b505090508180614dfb5750805b6131cf5760405162461bcd60e51b8152600401610c8590615e6c565b60008060005b601654811015614e8b57836001600160a01b031660168281548110614e5257634e487b7160e01b600052603260045260246000fd5b6000918252602090912001546001600160a01b03161415614e795760019150809250614e8b565b80614e8381616d76565b915050614e1d565b508015614f6a5760168054614ea290600190616cf4565b81548110614ec057634e487b7160e01b600052603260045260246000fd5b600091825260209091200154601680546001600160a01b039092169184908110614efa57634e487b7160e01b600052603260045260246000fd5b9060005260206000200160006101000a8154816001600160a01b0302191690836001600160a01b031602179055506016805480614f4757634e487b7160e01b600052603160045260246000fd5b600082815260209020810160001990810180546001600160a01b03191690550190555b505050565b60008060005b601754811015614fe357836001600160a01b031660178281548110614faa57634e487b7160e01b600052603260045260246000fd5b6000918252602090912001546001600160a01b03161415614fd15760019150809250614fe3565b80614fdb81616d76565b915050614f75565b508015614f6a5760178054614ffa90600190616cf4565b8154811061501857634e487b7160e01b600052603260045260246000fd5b600091825260209091200154601780546001600160a01b03909216918490811061505257634e487b7160e01b600052603260045260246000fd5b9060005260206000200160006101000a8154816001600160a01b0302191690836001600160a01b031602179055506017805480614f4757634e487b7160e01b600052603160045260246000fd5b60006110268284616ca9565b60008183106150ba5781611026565b5090919050565b6000818310156150ba5781611026565b600080546001600160a01b038381166001600160a01b0319831681178455604051919092169283917f8be0079c531659141344cd1fd0a4f28419497f9722a3daafe3b4186f6b6457e09190a35050565b60006110268284616cf4565b805160609060005b8181101561517b578084828151811061515e57634e487b7160e01b600052603260045260246000fd5b60209081029190910101528061517381616d76565b915050615135565b509192915050565b6060600082511161519357600080fd5b81518060005b8181101561530e576000836151ac61340e565b8784815181106151cc57634e487b7160e01b600052603260045260246000fd5b60200260200101516040516020016151e5929190615b4f565b6040516020818303038152906040528051906020012060001c6152089190616d91565b615213906001616ca9565b9050600086615223600184616cf4565b8151811061524157634e487b7160e01b600052603260045260246000fd5b60200260200101519050866001866152599190616cf4565b8151811061527757634e487b7160e01b600052603260045260246000fd5b60200260200101518760018461528d9190616cf4565b815181106152ab57634e487b7160e01b600052603260045260246000fd5b602090810291909101015280876152c3600188616cf4565b815181106152e157634e487b7160e01b600052603260045260246000fd5b60209081029190910101526152f7600186616cf4565b94505050808061530690616d76565b915050615199565b50929392505050565b82805461532390616d3b565b90600052602060002090601f016020900481019282615345576000855561538b565b82601f1061535e57805160ff191683800117855561538b565b8280016001018555821561538b579182015b8281111561538b578251825591602001919060010190615370565b5061539792915061539b565b5090565b5b80821115615397576000815560010161539c565b80356001600160a01b0381168114610d1157600080fd5b60008083601f8401126153d8578182fd5b5081356001600160401b038111156153ee578182fd5b602083019150836020808302850101111561540857600080fd5b9250929050565b600082601f83011261541f578081fd5b8151602061543461542f83616c53565b616c2a565b82815281810190858301855b8581101561546957615457898684518b010161553b565b84529284019290840190600101615440565b5090979650505050505050565b600082601f830112615486578081fd5b8151602061549661542f83616c53565b82815281810190858301838502870184018810156154b2578586fd5b855b85811015615469578151845292840192908401906001016154b4565b80518015158114610d1157600080fd5b805160048110610d1157600080fd5b600082601f8301126154ff578081fd5b813561550d61542f82616c76565b818152846020838601011115615521578283fd5b816020850160208301379081016020019190915292915050565b600082601f83011261554b578081fd5b815161555961542f82616c76565b81815284602083860101111561556d578283fd5b613e50826020830160208701616d0b565b60006020828403121561558f578081fd5b611026826153b0565b600080604083850312156155aa578081fd5b6155b3836153b0565b946020939093013593505050565b6000806000606084860312156155d5578081fd5b6155de846153b0565b95602085013595506040909401359392505050565b6000806000806000806060878903121561560b578384fd5b86356001600160401b0380821115615621578586fd5b61562d8a838b016153c7565b90985096506020890135915080821115615645578586fd5b6156518a838b016153c7565b90965094506040890135915080821115615669578384fd5b5061567689828a016153c7565b979a9699509497509295939492505050565b6000602080838503121561569a578182fd5b82356001600160401b038111156156af578283fd5b8301601f810185136156bf578283fd5b80356156cd61542f82616c53565b81815283810190838501858402850186018910156156e9578687fd5b8694505b8385101561570b5780358352600194909401939185019185016156ed565b50979650505050505050565b600060208284031215615728578081fd5b611026826154d0565b600080600060408486031215615745578081fd5b83356001600160401b038082111561575b578283fd5b818601915086601f83011261576e578283fd5b81358181111561577c578384fd5b87602082850101111561578d578384fd5b6020928301989097509590910135949350505050565b600080604083850312156157b5578182fd5b82356001600160401b03808211156157cb578384fd5b6157d7868387016154ef565b935060208501359150808211156157ec578283fd5b506157f9858286016154ef565b9150509250929050565b600060208284031215615814578081fd5b81516001600160401b038082111561582a578283fd5b81840191506101e0808387031215615840578384fd5b61584981616c2a565b905082518152602083015160208201526040830151604082015260608301516060820152615879608084016154d0565b608082015261588a60a084016154d0565b60a082015261589b60c084016154d0565b60c082015260e0838101519082015261010080840151908201526101208084015190820152610140808401519082015261016080840151838111156158de578586fd5b6158ea8882870161553b565b8284015250506101806158fe8185016154e0565b908201526101a08381015183811115615915578586fd5b6159218882870161540f565b8284015250506101c0808401518381111561593a578586fd5b61594688828701615476565b918301919091525095945050505050565b600060208284031215615968578081fd5b5035919050565b60006020828403121561128a578081fd5b60008060408385031215615992578182fd5b823591506159a2602084016153b0565b90509250929050565b6000806000606084860312156159bf578081fd5b833592506020840135915060408401356001600160401b038111156159e2578182fd5b6159ee868287016154ef565b9150509250925092565b60008060408385031215615a0a578182fd5b50508035926020909101359150565b60008060008060808587031215615a2e578182fd5b8435935060208501359250615a45604086016153b0565b9396929550929360600135925050565b600080600060608486031215615a69578081fd5b505081359360208301359350604090920135919050565b60048110615a9e57634e487b7160e01b600052602160045260246000fd5b9052565b60008151808452615aba816020860160208601616d0b565b601f01601f19169290920160200192915050565b600a8152690c6dedadad2e890c2e6d60b31b602082015260400190565b60609190911b6bffffffffffffffffffffffff1916815260140190565b60609290921b6bffffffffffffffffffffffff19168252601482015260340190565b90815260200190565b60008251615b45818460208701616d0b565b9190910192915050565b918252602082015260400190565b6001600160a01b0391909116815260200190565b6001600160a01b038a81168252891660208201526040810188905286151560608201526080810186905260a0810185905261012060c08201819052600090615bbb83820187615aa2565b94151560e084015250506101000152979650505050505050565b6000602080830181845280855180835260408601915060408482028701019250838701855b82811015615c2857603f19888603018452615c16858351615aa2565b94509285019290850190600101615bfa565b5092979650505050505050565b6020808252825182820181905260009190848201906040850190845b81811015615c6d57835183529284019291840191600101615c51565b50909695505050505050565b901515815260200190565b6000604082528360408301528385606084013780606085840101526060601f19601f8601168301019050826020830152949350505050565b6000602082526110266020830184615aa2565b600060408252615ce26040830185615aa2565b905060018060a01b03831660208301529392505050565b600060808252615d0c6080830187615aa2565b6001600160a01b0386166020840152604083018590529050615d316060830184615a80565b95945050505050565b6000602080835281845483600282049050600180831680615d5c57607f831692505b858310811415615d7a57634e487b7160e01b87526022600452602487fd5b615d8683878a01615b2a565b818015615d9a5760018114615dab57615dd5565b60ff19861682528782019650615dd5565b615db48b616c9d565b895b86811015615dcf57815484820152908501908901615db6565b83019750505b50949998505050505050505050565b6020808252601c908201527f576f726b657220697320616c7265616479207265676973746572656400000000604082015260600190565b60208082526031908201527f676976656e204461746142617463682073686f756c6420626520415050524f5660408201527011510b08185b99081a5d081a5cc81b9bdd607a1b606082015260800190565b60208082526025908201527f72656365697665722072656a6563746564205f7265747269657665534675656c6040820152640818d85b1b60da1b606082015260800190565b6020808252604b908201527f4572726f72207768656e20636f6d6d6974466f726d6174436865636b733a205f60408201527f4461746142617463684944732e6c656e677468203d3d205f736563726574486160608201526a0e6d0cae65cd8cadccee8d60ab1b608082015260a00190565b6020808252605c908201527f4e6f74207468652073616d6520766f7465207468616e2077686174207761732060408201527f636f6d6d697465642c20696d706f737369626c6520746f206d6174636820776960608201527f746820676976656e205f73616c742026205f766f74654f7074696f6e00000000608082015260a00190565b60208082526026908201527f4f776e61626c653a206e6577206f776e657220697320746865207a65726f206160408201526564647265737360d01b606082015260800190565b60208082526029908201527f6b206f72204e20617265206e6f74204f4b20647572696e672072616e646f6d2060408201526839b2b632b1ba34b7b760b91b606082015260800190565b6020808252602a908201527f4661696c20647572696e6720616c6c6f636174696f6e3a206e6f7420656e6f75604082015269676820776f726b65727360b01b606082015260800190565b6020808252601e908201527f636f6d6d697420706572696f64206e6565647320746f206265206f70656e0000604082015260600190565b60208082526054908201527f4572726f722072657665616c466f726d6174436865636b733a205f446174614260408201527f617463684944732e6c656e67746820616e64205f766f74654f7074696f6e732e6060820152731b195b99dd1a081b5d5cdd08189948195c5d585b60621b608082015260a00190565b6020808252602f908201527f636f756c64206e6f742072657761726420746f6b656e20696e2054726967676560408201526e3921b432b1b5a9b837ba161018973160891b606082015260800190565b6020808252602b908201527f576f726b6572206973206e6f7420617661696c61626c6520736f2063616e277460408201526a103ab73932b3b4b9ba32b960a91b606082015260800190565b6020808252603d908201527f436f756c64206e6f74207265717565737420656e6f75676820616c6c6f63617460408201527f6564207374616b652c2072657175657374566f74696e67526967687473000000606082015260800190565b6020808252602f908201527f5573657220686173206e6f7420636f6d6d69746564206265666f72652c20746860408201526e1d5cc818d85b89dd081c995d99585b608a1b606082015260800190565b60208082526014908201527311185d18481b5d5cdd081a185d9948195b99195960621b604082015260600190565b60208082526043908201527f576f726b657220686173206e6f7420656e6f75676820285f6e756d546f6b656e60408201527f732920696e2068697320466f726d61745374616b6564546f6b656e42616c616e606082015262031b2960ed1b608082015260a00190565b6020808252602d908201527f636f756c64206e6f74207265776172642052455020696e20547269676765724360408201526c6865636b53706f742c20312e6160981b606082015260800190565b60208082526050908201527f547269676765724e65787445706f63683a2061206261746368206d757374206260408201527f6520636f6d706c657465642c206f7220656e6f75676820776f726b657273206d60608201526f75737420626520617661696c61626c6560801b608082015260a00190565b60208082526039908201527f646c6c4d61703a20646f6573206e6f7420636f696e7461696e205f446174614260408201527f61746368496420666f7220746865206d73672073656e64657200000000000000606082015260800190565b6020808252602b908201527f75736572206d75737420686176652072657665616c656420696e20746869732060408201526a0ced2eccadc4084c2e8c6d60ab1b606082015260800190565b6020808252601490820152733737ba1030903b30b634b2103837b9b4ba34b7b760611b604082015260600190565b6020808252603b908201527f43616e277420616c6c6f6361746520776f726b2c207468652063757272656e7460408201527f20626174636820697320616c726561647920616c6c6f63617465640000000000606082015260800190565b60208082526048908201527f55736572206e6565647320746f2068617665206265656e20616c6c6f6361746560408201527f64207468652063757272656e74206461746120626174636820746f20636f6d6d6060820152671a5d081bdb881a5d60c21b608082015260a00190565b6020808252818101527f4f776e61626c653a2063616c6c6572206973206e6f7420746865206f776e6572604082015260600190565b6020808252603a908201527f5f446174614261746368496420686173206e6f7420656e6465642c206f72206e60408201527f6f7420657665727920766f74657273206861766520766f746564000000000000606082015260800190565b60208082526029908201527f6765744e756d50617373696e67546f6b656e733a20686173686573206d75737460408201526808189948195c5d585b60ba1b606082015260800190565b60208082526036908201527f43616e277420616c6c6f6361746520776f726b2c207468652063757272656e74604082015275206261746368206973206e6f7420636f6d706c65746560501b606082015260800190565b60208082526026908201527f52657665616c20706572696f64206e6f74206f70656e20666f7220746869732060408201526511185d18525160d21b606082015260800190565b60208082526027908201527f617661696c61626c65546f6b656e732073686f756c64206265203e3d205f6e756040820152666d546f6b656e7360c81b606082015260800190565b60208082526017908201527f5f4461746142617463684964206d757374206578697374000000000000000000604082015260600190565b6020808252601390820152720c081059191c995cdcc8139bdd0815985b1a59606a1b604082015260600190565b6020808252602f908201527f636f756c64206e6f742072657761726420746f6b656e20696e2054726967676560408201526e3921b432b1b5a9b837ba161019173160891b606082015260800190565b60208082526021908201527f5f446174614261746368496420697320616c72656164792076616c69646174656040820152601960fa1b606082015260800190565b60208082526022908201527f4d6178696d756d207265676973746572656420776f726b65727320616c726561604082015261647960f01b606082015260800190565b60208082526037908201527f75736572206d757374206861766520656e6f75676820766f74696e672072696760408201527f68747320616b6120616c6c6f6361746564207374616b65000000000000000000606082015260800190565b6020808252602d908201527f636f756c64206e6f74207265776172642052455020696e20547269676765724360408201526c6865636b53706f742c20322e6160981b606082015260800190565b6020808252602a908201527f5f446174614261746368496420636865636b696e6720766f7465206d757374206040820152691a185d9948195b99195960b21b606082015260800190565b6020808252603b908201527f436f756c64206e6f74207769746864726177566f74696e67526967687473207460408201527f68726f7567682050726f78795374616b654465616c6c6f636174650000000000606082015260800190565b6020808252600f908201526e11185d18481b5d5cdd08195e1a5cdd608a1b604082015260600190565b6020808252604e908201527f4572726f722072657665616c466f726d6174436865636b733a205f446174614260408201527f617463684944732e6c656e67746820616e64205f73616c74732e6c656e67746860608201526d081b5d5cdd08189948195c5d585b60921b608082015260a00190565b600085825284602083015260806040830152616a716080830185615aa2565b905082606083015295945050505050565b600083825282602083015260606040830152613e5060608301615ace565b600084825283602083015260806040830152616abe60808301615ace565b9050826060830152949350505050565b9182526020820152606060408201819052600990820152686e756d546f6b656e7360b81b608082015260a00190565b93845260208401929092526040830152606082015260800190565b9182526001600160a01b0316602082015260400190565b9182526001600160a01b031660208201526000604082015260600190565b9283526020830191909152604082015260600190565b60006101a08f83528e60208401528d60408401528c60608401528b151560808401528a151560a084015289151560c08401528860e084015287610100840152866101208401528561014084015280610160840152616bc381840186615aa2565b915050616bd4610180830184615a80565b9e9d5050505050505050505050505050565b6000808335601e19843603018112616bfc578283fd5b8301803591506001600160401b03821115616c15578283fd5b60200191503681900382131561540857600080fd5b6040518181016001600160401b0381118282101715616c4b57616c4b616dd1565b604052919050565b60006001600160401b03821115616c6c57616c6c616dd1565b5060209081020190565b60006001600160401b03821115616c8f57616c8f616dd1565b50601f01601f191660200190565b60009081526020902090565b60008219821115616cbc57616cbc616da5565b500190565b600082616cd057616cd0616dbb565b500490565b6000816000190483118215151615616cef57616cef616da5565b500290565b600082821015616d0657616d06616da5565b500390565b60005b83811015616d26578181015183820152602001616d0e565b83811115616d35576000848401525b50505050565b600281046001821680616d4f57607f821691505b60208210811415616d7057634e487b7160e01b600052602260045260246000fd5b50919050565b6000600019821415616d8a57616d8a616da5565b5060010190565b600082616da057616da0616dbb565b500690565b634e487b7160e01b600052601160045260246000fd5b634e487b7160e01b600052601260045260246000fd5b634e487b7160e01b600052604160045260246000fdfea2646970667358221220b8648049865417242e13f49f0781f44c0f68be482e68193a8bb1207ce861cb7d64736f6c63430008000033",
  "linkReferences": {
    "contracts/worksystems/DataFormatting.sol": {
      "AttributeStore2": [
        {
          "length": 20,
          "start": 12669
        },
        {
          "length": 20,
          "start": 12777
        },
        {
          "length": 20,
          "start": 15549
        },
        {
          "length": 20,
          "start": 15808
        }
      ],
      "DLL2": [
        {
          "length": 20,
          "start": 4234
        },
        {
          "length": 20,
          "start": 4406
        },
        {
          "length": 20,
          "start": 5202
        },
        {
          "length": 20,
          "start": 11606
        },
        {
          "length": 20,
          "start": 11786
        },
        {
          "length": 20,
          "start": 12158
        },
        {
          "length": 20,
          "start": 12320
        },
        {
          "length": 20,
          "start": 12515
        },
        {
          "length": 20,
          "start": 18300
        }
      ]
    }
  },
  "deployedLinkReferences": {
    "contracts/worksystems/DataFormatting.sol": {
      "AttributeStore2": [
        {
          "length": 20,
          "start": 12265
        },
        {
          "length": 20,
          "start": 12373
        },
        {
          "length": 20,
          "start": 15145
        },
        {
          "length": 20,
          "start": 15404
        }
      ],
      "DLL2": [
        {
          "length": 20,
          "start": 3830
        },
        {
          "length": 20,
          "start": 4002
        },
        {
          "length": 20,
          "start": 4798
        },
        {
          "length": 20,
          "start": 11202
        },
        {
          "length": 20,
          "start": 11382
        },
        {
          "length": 20,
          "start": 11754
        },
        {
          "length": 20,
          "start": 11916
        },
        {
          "length": 20,
          "start": 12111
        },
        {
          "length": 20,
          "start": 17896
        }
      ]
    }
  }
}