{
  "_format": "hh-sol-artifact-1",
  "contractName": "DataFormatting",
  "sourceName": "contracts/worksystems/DataFormatting.sol",
  "abi": [
    {
      "inputs": [
        {
          "internalType": "address",
          "name": "EXDT_token",
          "type": "address"
        }
      ],
      "stateMutability": "nonpayable",
      "type": "constructor"
    },
    {
      "anonymous": false,
      "inputs": [
        {
          "indexed": false,
          "internalType": "bytes",
          "name": "bytesFailure",
          "type": "bytes"
        }
      ],
      "name": "BytesFailure",
      "type": "event"
    },
    {
      "anonymous": false,
      "inputs": [
        {
          "indexed": true,
          "internalType": "address",
          "name": "previousOwner",
          "type": "address"
        },
        {
          "indexed": true,
          "internalType": "address",
          "name": "newOwner",
          "type": "address"
        }
      ],
      "name": "OwnershipTransferred",
      "type": "event"
    },
    {
      "anonymous": false,
      "inputs": [
        {
          "indexed": false,
          "internalType": "string",
          "name": "hash",
          "type": "string"
        },
        {
          "indexed": true,
          "internalType": "address",
          "name": "creator",
          "type": "address"
        }
      ],
      "name": "_FormatAccepted",
      "type": "event"
    },
    {
      "anonymous": false,
      "inputs": [
        {
          "indexed": true,
          "internalType": "uint256",
          "name": "DataID",
          "type": "uint256"
        },
        {
          "indexed": false,
          "internalType": "uint256",
          "name": "numTokens",
          "type": "uint256"
        },
        {
          "indexed": true,
          "internalType": "address",
          "name": "voter",
          "type": "address"
        }
      ],
      "name": "_FormatCheckCommitted",
      "type": "event"
    },
    {
      "anonymous": false,
      "inputs": [
        {
          "indexed": true,
          "internalType": "uint256",
          "name": "DataID",
          "type": "uint256"
        },
        {
          "indexed": false,
          "internalType": "uint256",
          "name": "numTokens",
          "type": "uint256"
        },
        {
          "indexed": false,
          "internalType": "uint256",
          "name": "votesFor",
          "type": "uint256"
        },
        {
          "indexed": false,
          "internalType": "uint256",
          "name": "votesAgainst",
          "type": "uint256"
        },
        {
          "indexed": true,
          "internalType": "uint256",
          "name": "choice",
          "type": "uint256"
        },
        {
          "indexed": true,
          "internalType": "address",
          "name": "voter",
          "type": "address"
        }
      ],
      "name": "_FormatCheckRevealed",
      "type": "event"
    },
    {
      "anonymous": false,
      "inputs": [
        {
          "indexed": true,
          "internalType": "uint256",
          "name": "DataID",
          "type": "uint256"
        },
        {
          "indexed": false,
          "internalType": "string",
          "name": "file_hash",
          "type": "string"
        },
        {
          "indexed": false,
          "internalType": "address",
          "name": "sender",
          "type": "address"
        }
      ],
      "name": "_FormatSubmitted",
      "type": "event"
    },
    {
      "anonymous": false,
      "inputs": [
        {
          "indexed": true,
          "internalType": "uint256",
          "name": "epochNumber",
          "type": "uint256"
        }
      ],
      "name": "_NewEpoch",
      "type": "event"
    },
    {
      "anonymous": false,
      "inputs": [
        {
          "indexed": true,
          "internalType": "uint256",
          "name": "DataID",
          "type": "uint256"
        },
        {
          "indexed": true,
          "internalType": "address",
          "name": "voter",
          "type": "address"
        }
      ],
      "name": "_TokensRescued",
      "type": "event"
    },
    {
      "anonymous": false,
      "inputs": [
        {
          "indexed": false,
          "internalType": "uint256",
          "name": "numTokens",
          "type": "uint256"
        },
        {
          "indexed": true,
          "internalType": "address",
          "name": "voter",
          "type": "address"
        }
      ],
      "name": "_VotingRightsGranted",
      "type": "event"
    },
    {
      "anonymous": false,
      "inputs": [
        {
          "indexed": false,
          "internalType": "uint256",
          "name": "numTokens",
          "type": "uint256"
        },
        {
          "indexed": true,
          "internalType": "address",
          "name": "voter",
          "type": "address"
        }
      ],
      "name": "_VotingRightsWithdrawn",
      "type": "event"
    },
    {
      "anonymous": false,
      "inputs": [
        {
          "indexed": true,
          "internalType": "uint256",
          "name": "batchID",
          "type": "uint256"
        },
        {
          "indexed": false,
          "internalType": "address",
          "name": "worker",
          "type": "address"
        }
      ],
      "name": "_WorkAllocated",
      "type": "event"
    },
    {
      "anonymous": false,
      "inputs": [
        {
          "indexed": true,
          "internalType": "address",
          "name": "worker",
          "type": "address"
        },
        {
          "indexed": false,
          "internalType": "uint256",
          "name": "timestamp",
          "type": "uint256"
        }
      ],
      "name": "_WorkerRegistered",
      "type": "event"
    },
    {
      "anonymous": false,
      "inputs": [
        {
          "indexed": true,
          "internalType": "address",
          "name": "worker",
          "type": "address"
        },
        {
          "indexed": false,
          "internalType": "uint256",
          "name": "timestamp",
          "type": "uint256"
        }
      ],
      "name": "_WorkerUnregistered",
      "type": "event"
    },
    {
      "inputs": [],
      "name": "AddressManager",
      "outputs": [
        {
          "internalType": "contract IAddressManager",
          "name": "",
          "type": "address"
        }
      ],
      "stateMutability": "view",
      "type": "function"
    },
    {
      "inputs": [],
      "name": "AllTxsCounter",
      "outputs": [
        {
          "internalType": "uint256",
          "name": "",
          "type": "uint256"
        }
      ],
      "stateMutability": "view",
      "type": "function"
    },
    {
      "inputs": [],
      "name": "AllocateWork",
      "outputs": [],
      "stateMutability": "nonpayable",
      "type": "function"
    },
    {
      "inputs": [],
      "name": "AllocatedBatchCursor",
      "outputs": [
        {
          "internalType": "uint256",
          "name": "",
          "type": "uint256"
        }
      ],
      "stateMutability": "view",
      "type": "function"
    },
    {
      "inputs": [],
      "name": "AmIRegistered",
      "outputs": [
        {
          "internalType": "bool",
          "name": "passed",
          "type": "bool"
        }
      ],
      "stateMutability": "view",
      "type": "function"
    },
    {
      "inputs": [],
      "name": "ArchiveSystem",
      "outputs": [
        {
          "internalType": "contract IArchiveSystem",
          "name": "",
          "type": "address"
        }
      ],
      "stateMutability": "view",
      "type": "function"
    },
    {
      "inputs": [
        {
          "internalType": "string",
          "name": "_a",
          "type": "string"
        },
        {
          "internalType": "string",
          "name": "_b",
          "type": "string"
        }
      ],
      "name": "AreStringsEqual",
      "outputs": [
        {
          "internalType": "bool",
          "name": "",
          "type": "bool"
        }
      ],
      "stateMutability": "pure",
      "type": "function"
    },
    {
      "inputs": [],
      "name": "BatchCheckingCursor",
      "outputs": [
        {
          "internalType": "uint256",
          "name": "",
          "type": "uint256"
        }
      ],
      "stateMutability": "view",
      "type": "function"
    },
    {
      "inputs": [],
      "name": "COMMIT_ROUND_DURATION",
      "outputs": [
        {
          "internalType": "uint256",
          "name": "",
          "type": "uint256"
        }
      ],
      "stateMutability": "view",
      "type": "function"
    },
    {
      "inputs": [],
      "name": "CONSENSUS_WORKER_SIZE",
      "outputs": [
        {
          "internalType": "uint256",
          "name": "",
          "type": "uint256"
        }
      ],
      "stateMutability": "view",
      "type": "function"
    },
    {
      "inputs": [
        {
          "internalType": "uint256",
          "name": "",
          "type": "uint256"
        }
      ],
      "name": "CollectedSpotBatchs",
      "outputs": [
        {
          "internalType": "bool",
          "name": "",
          "type": "bool"
        }
      ],
      "stateMutability": "view",
      "type": "function"
    },
    {
      "inputs": [],
      "name": "CurrentWorkEpoch",
      "outputs": [
        {
          "internalType": "uint256",
          "name": "",
          "type": "uint256"
        }
      ],
      "stateMutability": "view",
      "type": "function"
    },
    {
      "inputs": [],
      "name": "DATA_BATCH_SIZE",
      "outputs": [
        {
          "internalType": "uint256",
          "name": "",
          "type": "uint256"
        }
      ],
      "stateMutability": "view",
      "type": "function"
    },
    {
      "inputs": [
        {
          "internalType": "uint256",
          "name": "",
          "type": "uint256"
        }
      ],
      "name": "DataBatch",
      "outputs": [
        {
          "internalType": "uint256",
          "name": "start_idx",
          "type": "uint256"
        },
        {
          "internalType": "uint256",
          "name": "end_idx",
          "type": "uint256"
        },
        {
          "internalType": "uint256",
          "name": "counter",
          "type": "uint256"
        },
        {
          "internalType": "uint256",
          "name": "unrevealed_workers",
          "type": "uint256"
        },
        {
          "internalType": "bool",
          "name": "complete",
          "type": "bool"
        },
        {
          "internalType": "bool",
          "name": "checked",
          "type": "bool"
        },
        {
          "internalType": "bool",
          "name": "allocated_to_work",
          "type": "bool"
        },
        {
          "internalType": "uint256",
          "name": "commitEndDate",
          "type": "uint256"
        },
        {
          "internalType": "uint256",
          "name": "revealEndDate",
          "type": "uint256"
        },
        {
          "internalType": "uint256",
          "name": "votesFor",
          "type": "uint256"
        },
        {
          "internalType": "uint256",
          "name": "votesAgainst",
          "type": "uint256"
        },
        {
          "internalType": "string",
          "name": "batchIPFSfile",
          "type": "string"
        },
        {
          "internalType": "enum DataFormatting.DataStatus",
          "name": "status",
          "type": "uint8"
        }
      ],
      "stateMutability": "view",
      "type": "function"
    },
    {
      "inputs": [
        {
          "internalType": "uint256",
          "name": "_DataBatchId",
          "type": "uint256"
        }
      ],
      "name": "DataCommitEndDate",
      "outputs": [
        {
          "internalType": "uint256",
          "name": "commitEndDate",
          "type": "uint256"
        }
      ],
      "stateMutability": "view",
      "type": "function"
    },
    {
      "inputs": [
        {
          "internalType": "uint256",
          "name": "_DataBatchId",
          "type": "uint256"
        }
      ],
      "name": "DataEnded",
      "outputs": [
        {
          "internalType": "bool",
          "name": "ended",
          "type": "bool"
        }
      ],
      "stateMutability": "view",
      "type": "function"
    },
    {
      "inputs": [
        {
          "internalType": "uint256",
          "name": "_DataBatchId",
          "type": "uint256"
        }
      ],
      "name": "DataExists",
      "outputs": [
        {
          "internalType": "bool",
          "name": "exists",
          "type": "bool"
        }
      ],
      "stateMutability": "view",
      "type": "function"
    },
    {
      "inputs": [],
      "name": "DataNonce",
      "outputs": [
        {
          "internalType": "uint256",
          "name": "",
          "type": "uint256"
        }
      ],
      "stateMutability": "view",
      "type": "function"
    },
    {
      "inputs": [
        {
          "internalType": "uint256",
          "name": "_DataBatchId",
          "type": "uint256"
        }
      ],
      "name": "DataRevealEndDate",
      "outputs": [
        {
          "internalType": "uint256",
          "name": "revealEndDate",
          "type": "uint256"
        }
      ],
      "stateMutability": "view",
      "type": "function"
    },
    {
      "inputs": [
        {
          "internalType": "address",
          "name": "",
          "type": "address"
        }
      ],
      "name": "FormatStakedTokenBalance",
      "outputs": [
        {
          "internalType": "uint256",
          "name": "",
          "type": "uint256"
        }
      ],
      "stateMutability": "view",
      "type": "function"
    },
    {
      "inputs": [
        {
          "internalType": "uint256",
          "name": "",
          "type": "uint256"
        }
      ],
      "name": "FormatsMapping",
      "outputs": [
        {
          "internalType": "string",
          "name": "ipfs_hash",
          "type": "string"
        },
        {
          "internalType": "address",
          "name": "author",
          "type": "address"
        },
        {
          "internalType": "uint256",
          "name": "timestamp",
          "type": "uint256"
        },
        {
          "internalType": "enum DataFormatting.DataStatus",
          "name": "status",
          "type": "uint8"
        }
      ],
      "stateMutability": "view",
      "type": "function"
    },
    {
      "inputs": [
        {
          "internalType": "address",
          "name": "user_",
          "type": "address"
        }
      ],
      "name": "GetCurrentWork",
      "outputs": [
        {
          "internalType": "uint256",
          "name": "",
          "type": "uint256"
        }
      ],
      "stateMutability": "view",
      "type": "function"
    },
    {
      "inputs": [
        {
          "internalType": "address",
          "name": "user_",
          "type": "address"
        }
      ],
      "name": "IsNewWorkAvailable",
      "outputs": [
        {
          "internalType": "bool",
          "name": "",
          "type": "bool"
        }
      ],
      "stateMutability": "view",
      "type": "function"
    },
    {
      "inputs": [],
      "name": "LastBatchCounter",
      "outputs": [
        {
          "internalType": "uint256",
          "name": "",
          "type": "uint256"
        }
      ],
      "stateMutability": "view",
      "type": "function"
    },
    {
      "inputs": [],
      "name": "MIN_CONSENSUS_WORKER_COUNT",
      "outputs": [
        {
          "internalType": "uint256",
          "name": "",
          "type": "uint256"
        }
      ],
      "stateMutability": "view",
      "type": "function"
    },
    {
      "inputs": [],
      "name": "MIN_REP_Data",
      "outputs": [
        {
          "internalType": "uint256",
          "name": "",
          "type": "uint256"
        }
      ],
      "stateMutability": "view",
      "type": "function"
    },
    {
      "inputs": [],
      "name": "MIN_REP_REVEAL",
      "outputs": [
        {
          "internalType": "uint256",
          "name": "",
          "type": "uint256"
        }
      ],
      "stateMutability": "view",
      "type": "function"
    },
    {
      "inputs": [],
      "name": "MIN_REWARD_Data",
      "outputs": [
        {
          "internalType": "uint256",
          "name": "",
          "type": "uint256"
        }
      ],
      "stateMutability": "view",
      "type": "function"
    },
    {
      "inputs": [],
      "name": "MIN_STAKE",
      "outputs": [
        {
          "internalType": "uint256",
          "name": "",
          "type": "uint256"
        }
      ],
      "stateMutability": "view",
      "type": "function"
    },
    {
      "inputs": [
        {
          "internalType": "address",
          "name": "",
          "type": "address"
        },
        {
          "internalType": "uint256",
          "name": "",
          "type": "uint256"
        }
      ],
      "name": "MasterWorkers",
      "outputs": [
        {
          "internalType": "address",
          "name": "",
          "type": "address"
        }
      ],
      "stateMutability": "view",
      "type": "function"
    },
    {
      "inputs": [
        {
          "internalType": "uint256",
          "name": "CheckedBatchId",
          "type": "uint256"
        }
      ],
      "name": "Ping",
      "outputs": [
        {
          "internalType": "bool",
          "name": "",
          "type": "bool"
        }
      ],
      "stateMutability": "nonpayable",
      "type": "function"
    },
    {
      "inputs": [],
      "name": "REVEAL_ROUND_DURATION",
      "outputs": [
        {
          "internalType": "uint256",
          "name": "",
          "type": "uint256"
        }
      ],
      "stateMutability": "view",
      "type": "function"
    },
    {
      "inputs": [],
      "name": "RegisterWorker",
      "outputs": [],
      "stateMutability": "nonpayable",
      "type": "function"
    },
    {
      "inputs": [],
      "name": "RepManager",
      "outputs": [
        {
          "internalType": "contract IRepManager",
          "name": "",
          "type": "address"
        }
      ],
      "stateMutability": "view",
      "type": "function"
    },
    {
      "inputs": [],
      "name": "RewardManager",
      "outputs": [
        {
          "internalType": "contract IRewardManager",
          "name": "",
          "type": "address"
        }
      ],
      "stateMutability": "view",
      "type": "function"
    },
    {
      "inputs": [],
      "name": "SPOT_CHECK_VOTE_QUORUM",
      "outputs": [
        {
          "internalType": "uint256",
          "name": "",
          "type": "uint256"
        }
      ],
      "stateMutability": "view",
      "type": "function"
    },
    {
      "inputs": [],
      "name": "SpottingSystem",
      "outputs": [
        {
          "internalType": "contract ISpottingSystem",
          "name": "",
          "type": "address"
        }
      ],
      "stateMutability": "view",
      "type": "function"
    },
    {
      "inputs": [],
      "name": "StakeManager",
      "outputs": [
        {
          "internalType": "contract IStakeManager",
          "name": "",
          "type": "address"
        }
      ],
      "stateMutability": "view",
      "type": "function"
    },
    {
      "inputs": [],
      "name": "TriggerNextEpoch",
      "outputs": [],
      "stateMutability": "nonpayable",
      "type": "function"
    },
    {
      "inputs": [],
      "name": "UnregisterWorker",
      "outputs": [],
      "stateMutability": "nonpayable",
      "type": "function"
    },
    {
      "inputs": [
        {
          "internalType": "address",
          "name": "",
          "type": "address"
        },
        {
          "internalType": "uint256",
          "name": "",
          "type": "uint256"
        }
      ],
      "name": "UserChecksCommits",
      "outputs": [
        {
          "internalType": "bool",
          "name": "",
          "type": "bool"
        }
      ],
      "stateMutability": "view",
      "type": "function"
    },
    {
      "inputs": [
        {
          "internalType": "address",
          "name": "",
          "type": "address"
        },
        {
          "internalType": "uint256",
          "name": "",
          "type": "uint256"
        }
      ],
      "name": "UserChecksReveals",
      "outputs": [
        {
          "internalType": "bool",
          "name": "",
          "type": "bool"
        }
      ],
      "stateMutability": "view",
      "type": "function"
    },
    {
      "inputs": [
        {
          "internalType": "uint256",
          "name": "",
          "type": "uint256"
        },
        {
          "internalType": "address",
          "name": "",
          "type": "address"
        }
      ],
      "name": "UserNewFiles",
      "outputs": [
        {
          "internalType": "string",
          "name": "",
          "type": "string"
        }
      ],
      "stateMutability": "view",
      "type": "function"
    },
    {
      "inputs": [
        {
          "internalType": "uint256",
          "name": "",
          "type": "uint256"
        },
        {
          "internalType": "address",
          "name": "",
          "type": "address"
        }
      ],
      "name": "UserVotes",
      "outputs": [
        {
          "internalType": "uint256",
          "name": "",
          "type": "uint256"
        }
      ],
      "stateMutability": "view",
      "type": "function"
    },
    {
      "inputs": [
        {
          "internalType": "uint256",
          "name": "_DataBatchId",
          "type": "uint256"
        }
      ],
      "name": "ValidateDataBatch",
      "outputs": [],
      "stateMutability": "nonpayable",
      "type": "function"
    },
    {
      "inputs": [
        {
          "internalType": "uint256",
          "name": "",
          "type": "uint256"
        },
        {
          "internalType": "uint256",
          "name": "",
          "type": "uint256"
        }
      ],
      "name": "WorkersPerBatch",
      "outputs": [
        {
          "internalType": "address",
          "name": "",
          "type": "address"
        }
      ],
      "stateMutability": "view",
      "type": "function"
    },
    {
      "inputs": [
        {
          "internalType": "address",
          "name": "",
          "type": "address"
        }
      ],
      "name": "WorkersState",
      "outputs": [
        {
          "internalType": "address",
          "name": "worker_address",
          "type": "address"
        },
        {
          "internalType": "address",
          "name": "master_address",
          "type": "address"
        },
        {
          "internalType": "uint256",
          "name": "allocated_work_batch",
          "type": "uint256"
        },
        {
          "internalType": "bool",
          "name": "has_completed_work",
          "type": "bool"
        },
        {
          "internalType": "uint256",
          "name": "last_worked_round",
          "type": "uint256"
        },
        {
          "internalType": "uint256",
          "name": "last_interaction_date",
          "type": "uint256"
        },
        {
          "internalType": "string",
          "name": "extra",
          "type": "string"
        },
        {
          "internalType": "bool",
          "name": "registered",
          "type": "bool"
        },
        {
          "internalType": "uint256",
          "name": "registration_date",
          "type": "uint256"
        }
      ],
      "stateMutability": "view",
      "type": "function"
    },
    {
      "inputs": [
        {
          "internalType": "address",
          "name": "_user",
          "type": "address"
        },
        {
          "internalType": "uint256",
          "name": "_DataBatchId",
          "type": "uint256"
        }
      ],
      "name": "attrUUID",
      "outputs": [
        {
          "internalType": "bytes32",
          "name": "UUID",
          "type": "bytes32"
        }
      ],
      "stateMutability": "pure",
      "type": "function"
    },
    {
      "inputs": [
        {
          "internalType": "uint256",
          "name": "",
          "type": "uint256"
        }
      ],
      "name": "availableWorkers",
      "outputs": [
        {
          "internalType": "address",
          "name": "",
          "type": "address"
        }
      ],
      "stateMutability": "view",
      "type": "function"
    },
    {
      "inputs": [
        {
          "internalType": "uint256",
          "name": "",
          "type": "uint256"
        }
      ],
      "name": "busyWorkers",
      "outputs": [
        {
          "internalType": "address",
          "name": "",
          "type": "address"
        }
      ],
      "stateMutability": "view",
      "type": "function"
    },
    {
      "inputs": [
        {
          "internalType": "uint256",
          "name": "_DataBatchId",
          "type": "uint256"
        },
        {
          "internalType": "bytes32",
          "name": "_secretHash",
          "type": "bytes32"
        },
        {
          "internalType": "string",
          "name": "newIPFSHash",
          "type": "string"
        }
      ],
      "name": "commitFormatCheck",
      "outputs": [],
      "stateMutability": "nonpayable",
      "type": "function"
    },
    {
      "inputs": [
        {
          "internalType": "uint256",
          "name": "_DataBatchId",
          "type": "uint256"
        }
      ],
      "name": "commitPeriodActive",
      "outputs": [
        {
          "internalType": "bool",
          "name": "active",
          "type": "bool"
        }
      ],
      "stateMutability": "view",
      "type": "function"
    },
    {
      "inputs": [
        {
          "internalType": "uint256",
          "name": "_DataId",
          "type": "uint256"
        }
      ],
      "name": "deleteData",
      "outputs": [],
      "stateMutability": "nonpayable",
      "type": "function"
    },
    {
      "inputs": [
        {
          "internalType": "uint256",
          "name": "_BatchId",
          "type": "uint256"
        }
      ],
      "name": "deleteDataBatch",
      "outputs": [],
      "stateMutability": "nonpayable",
      "type": "function"
    },
    {
      "inputs": [
        {
          "internalType": "uint256",
          "name": "_BatchId",
          "type": "uint256"
        }
      ],
      "name": "deleteMapping",
      "outputs": [],
      "stateMutability": "nonpayable",
      "type": "function"
    },
    {
      "inputs": [
        {
          "internalType": "address",
          "name": "_voter",
          "type": "address"
        },
        {
          "internalType": "uint256",
          "name": "_DataBatchId",
          "type": "uint256"
        }
      ],
      "name": "didCommit",
      "outputs": [
        {
          "internalType": "bool",
          "name": "committed",
          "type": "bool"
        }
      ],
      "stateMutability": "view",
      "type": "function"
    },
    {
      "inputs": [
        {
          "internalType": "address",
          "name": "_voter",
          "type": "address"
        },
        {
          "internalType": "uint256",
          "name": "_DataBatchId",
          "type": "uint256"
        }
      ],
      "name": "didReveal",
      "outputs": [
        {
          "internalType": "bool",
          "name": "revealed",
          "type": "bool"
        }
      ],
      "stateMutability": "view",
      "type": "function"
    },
    {
      "inputs": [
        {
          "internalType": "uint256",
          "name": "_k",
          "type": "uint256"
        },
        {
          "internalType": "uint256",
          "name": "N_range",
          "type": "uint256"
        }
      ],
      "name": "generateIntegers",
      "outputs": [
        {
          "internalType": "uint256[]",
          "name": "",
          "type": "uint256[]"
        }
      ],
      "stateMutability": "view",
      "type": "function"
    },
    {
      "inputs": [],
      "name": "getActiveWorkersCount",
      "outputs": [
        {
          "internalType": "uint256",
          "name": "numWorkers",
          "type": "uint256"
        }
      ],
      "stateMutability": "view",
      "type": "function"
    },
    {
      "inputs": [
        {
          "internalType": "uint256",
          "name": "_DataBatchId",
          "type": "uint256"
        }
      ],
      "name": "getBatchByID",
      "outputs": [
        {
          "components": [
            {
              "internalType": "uint256",
              "name": "start_idx",
              "type": "uint256"
            },
            {
              "internalType": "uint256",
              "name": "end_idx",
              "type": "uint256"
            },
            {
              "internalType": "uint256",
              "name": "counter",
              "type": "uint256"
            },
            {
              "internalType": "uint256",
              "name": "unrevealed_workers",
              "type": "uint256"
            },
            {
              "internalType": "bool",
              "name": "complete",
              "type": "bool"
            },
            {
              "internalType": "bool",
              "name": "checked",
              "type": "bool"
            },
            {
              "internalType": "bool",
              "name": "allocated_to_work",
              "type": "bool"
            },
            {
              "internalType": "uint256",
              "name": "commitEndDate",
              "type": "uint256"
            },
            {
              "internalType": "uint256",
              "name": "revealEndDate",
              "type": "uint256"
            },
            {
              "internalType": "uint256",
              "name": "votesFor",
              "type": "uint256"
            },
            {
              "internalType": "uint256",
              "name": "votesAgainst",
              "type": "uint256"
            },
            {
              "internalType": "string",
              "name": "batchIPFSfile",
              "type": "string"
            },
            {
              "internalType": "enum DataFormatting.DataStatus",
              "name": "status",
              "type": "uint8"
            },
            {
              "internalType": "string[]",
              "name": "flags",
              "type": "string[]"
            },
            {
              "internalType": "uint256[]",
              "name": "flags_id",
              "type": "uint256[]"
            }
          ],
          "internalType": "struct DataFormatting.BatchMetadata",
          "name": "batch",
          "type": "tuple"
        }
      ],
      "stateMutability": "view",
      "type": "function"
    },
    {
      "inputs": [
        {
          "internalType": "uint256",
          "name": "_DataBatchId",
          "type": "uint256"
        }
      ],
      "name": "getBatchIPFSFileByID",
      "outputs": [
        {
          "internalType": "string",
          "name": "batch",
          "type": "string"
        }
      ],
      "stateMutability": "view",
      "type": "function"
    },
    {
      "inputs": [],
      "name": "getBlockTimestamp",
      "outputs": [
        {
          "internalType": "uint256",
          "name": "blocktimestamp",
          "type": "uint256"
        }
      ],
      "stateMutability": "view",
      "type": "function"
    },
    {
      "inputs": [
        {
          "internalType": "address",
          "name": "_voter",
          "type": "address"
        },
        {
          "internalType": "uint256",
          "name": "_DataBatchId",
          "type": "uint256"
        }
      ],
      "name": "getCommitHash",
      "outputs": [
        {
          "internalType": "bytes32",
          "name": "commitHash",
          "type": "bytes32"
        }
      ],
      "stateMutability": "view",
      "type": "function"
    },
    {
      "inputs": [],
      "name": "getCurrentWorkEpoch",
      "outputs": [
        {
          "internalType": "uint256",
          "name": "WorkEpoch",
          "type": "uint256"
        }
      ],
      "stateMutability": "view",
      "type": "function"
    },
    {
      "inputs": [
        {
          "internalType": "uint256",
          "name": "_DataId",
          "type": "uint256"
        }
      ],
      "name": "getDataByID",
      "outputs": [
        {
          "components": [
            {
              "internalType": "string",
              "name": "ipfs_hash",
              "type": "string"
            },
            {
              "internalType": "address",
              "name": "author",
              "type": "address"
            },
            {
              "internalType": "uint256",
              "name": "timestamp",
              "type": "uint256"
            },
            {
              "internalType": "enum DataFormatting.DataStatus",
              "name": "status",
              "type": "uint8"
            }
          ],
          "internalType": "struct DataFormatting.FormattedData",
          "name": "data",
          "type": "tuple"
        }
      ],
      "stateMutability": "view",
      "type": "function"
    },
    {
      "inputs": [
        {
          "internalType": "string",
          "name": "_hash",
          "type": "string"
        },
        {
          "internalType": "uint256",
          "name": "_salt",
          "type": "uint256"
        }
      ],
      "name": "getEncryptedStringHash",
      "outputs": [
        {
          "internalType": "bytes32",
          "name": "keccak256hash",
          "type": "bytes32"
        }
      ],
      "stateMutability": "pure",
      "type": "function"
    },
    {
      "inputs": [
        {
          "internalType": "uint256",
          "name": "_voteOption",
          "type": "uint256"
        },
        {
          "internalType": "uint256",
          "name": "_salt",
          "type": "uint256"
        }
      ],
      "name": "getEncryptedVoteHash",
      "outputs": [
        {
          "internalType": "bytes32",
          "name": "keccak256hash",
          "type": "bytes32"
        }
      ],
      "stateMutability": "pure",
      "type": "function"
    },
    {
      "inputs": [
        {
          "internalType": "uint256",
          "name": "a",
          "type": "uint256"
        },
        {
          "internalType": "uint256",
          "name": "b",
          "type": "uint256"
        }
      ],
      "name": "getHash",
      "outputs": [
        {
          "internalType": "bytes32",
          "name": "keccak256hash",
          "type": "bytes32"
        }
      ],
      "stateMutability": "pure",
      "type": "function"
    },
    {
      "inputs": [
        {
          "internalType": "uint256",
          "name": "_DataBatchId",
          "type": "uint256"
        }
      ],
      "name": "getIPFShashesForBatch",
      "outputs": [
        {
          "internalType": "string[]",
          "name": "",
          "type": "string[]"
        }
      ],
      "stateMutability": "view",
      "type": "function"
    },
    {
      "inputs": [
        {
          "internalType": "address",
          "name": "_voter",
          "type": "address"
        },
        {
          "internalType": "uint256",
          "name": "_numTokens",
          "type": "uint256"
        },
        {
          "internalType": "uint256",
          "name": "_DataBatchId",
          "type": "uint256"
        }
      ],
      "name": "getInsertPointForNumTokens",
      "outputs": [
        {
          "internalType": "uint256",
          "name": "prevNode",
          "type": "uint256"
        }
      ],
      "stateMutability": "view",
      "type": "function"
    },
    {
      "inputs": [],
      "name": "getLastBatchId",
      "outputs": [
        {
          "internalType": "uint256",
          "name": "LastBatchId",
          "type": "uint256"
        }
      ],
      "stateMutability": "view",
      "type": "function"
    },
    {
      "inputs": [],
      "name": "getLastCheckedBatchId",
      "outputs": [
        {
          "internalType": "uint256",
          "name": "LastCheckedBatchId",
          "type": "uint256"
        }
      ],
      "stateMutability": "view",
      "type": "function"
    },
    {
      "inputs": [],
      "name": "getLastDataId",
      "outputs": [
        {
          "internalType": "uint256",
          "name": "DataId",
          "type": "uint256"
        }
      ],
      "stateMutability": "view",
      "type": "function"
    },
    {
      "inputs": [
        {
          "internalType": "address",
          "name": "_voter",
          "type": "address"
        }
      ],
      "name": "getLastNode",
      "outputs": [
        {
          "internalType": "uint256",
          "name": "DataID",
          "type": "uint256"
        }
      ],
      "stateMutability": "view",
      "type": "function"
    },
    {
      "inputs": [
        {
          "internalType": "address",
          "name": "_voter",
          "type": "address"
        }
      ],
      "name": "getLockedTokens",
      "outputs": [
        {
          "internalType": "uint256",
          "name": "numTokens",
          "type": "uint256"
        }
      ],
      "stateMutability": "view",
      "type": "function"
    },
    {
      "inputs": [
        {
          "internalType": "address",
          "name": "_voter",
          "type": "address"
        },
        {
          "internalType": "uint256",
          "name": "_DataBatchId",
          "type": "uint256"
        },
        {
          "internalType": "uint256",
          "name": "_salt",
          "type": "uint256"
        }
      ],
      "name": "getNumPassingTokens",
      "outputs": [
        {
          "internalType": "uint256",
          "name": "correctFormatChecks",
          "type": "uint256"
        }
      ],
      "stateMutability": "view",
      "type": "function"
    },
    {
      "inputs": [
        {
          "internalType": "address",
          "name": "_voter",
          "type": "address"
        },
        {
          "internalType": "uint256",
          "name": "_DataBatchId",
          "type": "uint256"
        }
      ],
      "name": "getNumTokens",
      "outputs": [
        {
          "internalType": "uint256",
          "name": "numTokens",
          "type": "uint256"
        }
      ],
      "stateMutability": "view",
      "type": "function"
    },
    {
      "inputs": [],
      "name": "getRandom",
      "outputs": [
        {
          "internalType": "uint256",
          "name": "",
          "type": "uint256"
        }
      ],
      "stateMutability": "view",
      "type": "function"
    },
    {
      "inputs": [],
      "name": "getSeed",
      "outputs": [
        {
          "internalType": "bytes32",
          "name": "addr",
          "type": "bytes32"
        }
      ],
      "stateMutability": "view",
      "type": "function"
    },
    {
      "inputs": [
        {
          "internalType": "uint256",
          "name": "_DataBatchId",
          "type": "uint256"
        }
      ],
      "name": "getTotalNumberOfFormatChecks",
      "outputs": [
        {
          "internalType": "uint256",
          "name": "vc",
          "type": "uint256"
        }
      ],
      "stateMutability": "view",
      "type": "function"
    },
    {
      "inputs": [
        {
          "internalType": "uint256",
          "name": "_DataBatchId",
          "type": "uint256"
        }
      ],
      "name": "getTotalNumberOfTokensForWinningOption",
      "outputs": [
        {
          "internalType": "uint256",
          "name": "numTokens",
          "type": "uint256"
        }
      ],
      "stateMutability": "view",
      "type": "function"
    },
    {
      "inputs": [],
      "name": "getTxCounter",
      "outputs": [
        {
          "internalType": "uint256",
          "name": "Counter",
          "type": "uint256"
        }
      ],
      "stateMutability": "view",
      "type": "function"
    },
    {
      "inputs": [
        {
          "internalType": "uint256",
          "name": "_terminationDate",
          "type": "uint256"
        }
      ],
      "name": "isExpired",
      "outputs": [
        {
          "internalType": "bool",
          "name": "expired",
          "type": "bool"
        }
      ],
      "stateMutability": "view",
      "type": "function"
    },
    {
      "inputs": [
        {
          "internalType": "uint256",
          "name": "_DataBatchId",
          "type": "uint256"
        }
      ],
      "name": "isPassed",
      "outputs": [
        {
          "internalType": "bool",
          "name": "passed",
          "type": "bool"
        }
      ],
      "stateMutability": "view",
      "type": "function"
    },
    {
      "inputs": [
        {
          "internalType": "address",
          "name": "_worker",
          "type": "address"
        }
      ],
      "name": "isWorkerRegistered",
      "outputs": [
        {
          "internalType": "bool",
          "name": "passed",
          "type": "bool"
        }
      ],
      "stateMutability": "view",
      "type": "function"
    },
    {
      "inputs": [],
      "name": "owner",
      "outputs": [
        {
          "internalType": "address",
          "name": "",
          "type": "address"
        }
      ],
      "stateMutability": "view",
      "type": "function"
    },
    {
      "inputs": [
        {
          "internalType": "uint256",
          "name": "k",
          "type": "uint256"
        },
        {
          "internalType": "uint256",
          "name": "N",
          "type": "uint256"
        }
      ],
      "name": "random_selection",
      "outputs": [
        {
          "internalType": "uint256[]",
          "name": "",
          "type": "uint256[]"
        }
      ],
      "stateMutability": "view",
      "type": "function"
    },
    {
      "inputs": [],
      "name": "renounceOwnership",
      "outputs": [],
      "stateMutability": "nonpayable",
      "type": "function"
    },
    {
      "inputs": [
        {
          "internalType": "uint256",
          "name": "_numTokens",
          "type": "uint256"
        }
      ],
      "name": "requestVotingRights",
      "outputs": [],
      "stateMutability": "nonpayable",
      "type": "function"
    },
    {
      "inputs": [
        {
          "internalType": "uint256",
          "name": "_DataBatchId",
          "type": "uint256"
        }
      ],
      "name": "rescueTokens",
      "outputs": [],
      "stateMutability": "nonpayable",
      "type": "function"
    },
    {
      "inputs": [
        {
          "internalType": "uint256[]",
          "name": "_DataBatchIDs",
          "type": "uint256[]"
        }
      ],
      "name": "rescueTokensInMultipleDatas",
      "outputs": [],
      "stateMutability": "nonpayable",
      "type": "function"
    },
    {
      "inputs": [
        {
          "internalType": "uint256",
          "name": "_DataBatchId",
          "type": "uint256"
        },
        {
          "internalType": "uint256",
          "name": "_voteOption",
          "type": "uint256"
        },
        {
          "internalType": "uint256",
          "name": "_salt",
          "type": "uint256"
        }
      ],
      "name": "revealFormatCheck",
      "outputs": [],
      "stateMutability": "nonpayable",
      "type": "function"
    },
    {
      "inputs": [
        {
          "internalType": "uint256",
          "name": "_DataBatchId",
          "type": "uint256"
        }
      ],
      "name": "revealPeriodActive",
      "outputs": [
        {
          "internalType": "bool",
          "name": "active",
          "type": "bool"
        }
      ],
      "stateMutability": "view",
      "type": "function"
    },
    {
      "inputs": [],
      "name": "sFuel",
      "outputs": [
        {
          "internalType": "address",
          "name": "",
          "type": "address"
        }
      ],
      "stateMutability": "view",
      "type": "function"
    },
    {
      "inputs": [
        {
          "internalType": "uint256",
          "name": "N",
          "type": "uint256"
        }
      ],
      "name": "shuffle_array",
      "outputs": [
        {
          "internalType": "uint256[]",
          "name": "",
          "type": "uint256[]"
        }
      ],
      "stateMutability": "view",
      "type": "function"
    },
    {
      "inputs": [],
      "name": "token",
      "outputs": [
        {
          "internalType": "contract IERC20",
          "name": "",
          "type": "address"
        }
      ],
      "stateMutability": "view",
      "type": "function"
    },
    {
      "inputs": [
        {
          "internalType": "address",
          "name": "newOwner",
          "type": "address"
        }
      ],
      "name": "transferOwnership",
      "outputs": [],
      "stateMutability": "nonpayable",
      "type": "function"
    },
    {
      "inputs": [
        {
          "internalType": "address",
          "name": "addr",
          "type": "address"
        }
      ],
      "name": "updateAddressManager",
      "outputs": [],
      "stateMutability": "nonpayable",
      "type": "function"
    },
    {
      "inputs": [
        {
          "internalType": "address",
          "name": "addr",
          "type": "address"
        }
      ],
      "name": "updateArchiveManager",
      "outputs": [],
      "stateMutability": "nonpayable",
      "type": "function"
    },
    {
      "inputs": [
        {
          "internalType": "uint256",
          "name": "COMMIT_ROUND_DURATION_",
          "type": "uint256"
        }
      ],
      "name": "updateCommitRoundDuration",
      "outputs": [],
      "stateMutability": "nonpayable",
      "type": "function"
    },
    {
      "inputs": [
        {
          "internalType": "uint256",
          "name": "size",
          "type": "uint256"
        }
      ],
      "name": "updateDataBachSize",
      "outputs": [],
      "stateMutability": "nonpayable",
      "type": "function"
    },
    {
      "inputs": [
        {
          "internalType": "uint256",
          "name": "CONSENSUS_WORKER_SIZE_",
          "type": "uint256"
        }
      ],
      "name": "updateMaxConsensusSize",
      "outputs": [],
      "stateMutability": "nonpayable",
      "type": "function"
    },
    {
      "inputs": [
        {
          "internalType": "uint256",
          "name": "CONSENSUS_WORKER_SIZE_",
          "type": "uint256"
        }
      ],
      "name": "updateMinConsensusSize",
      "outputs": [],
      "stateMutability": "nonpayable",
      "type": "function"
    },
    {
      "inputs": [
        {
          "internalType": "address",
          "name": "addr",
          "type": "address"
        }
      ],
      "name": "updateRepManager",
      "outputs": [],
      "stateMutability": "nonpayable",
      "type": "function"
    },
    {
      "inputs": [
        {
          "internalType": "uint256",
          "name": "REVEAL_ROUND_DURATION_",
          "type": "uint256"
        }
      ],
      "name": "updateRevealRoundDuration",
      "outputs": [],
      "stateMutability": "nonpayable",
      "type": "function"
    },
    {
      "inputs": [
        {
          "internalType": "address",
          "name": "addr",
          "type": "address"
        }
      ],
      "name": "updateRewardManager",
      "outputs": [],
      "stateMutability": "nonpayable",
      "type": "function"
    },
    {
      "inputs": [
        {
          "internalType": "address",
          "name": "addr",
          "type": "address"
        }
      ],
      "name": "updateSpotManager",
      "outputs": [],
      "stateMutability": "nonpayable",
      "type": "function"
    },
    {
      "inputs": [
        {
          "internalType": "address",
          "name": "addr",
          "type": "address"
        }
      ],
      "name": "updateStakeManager",
      "outputs": [],
      "stateMutability": "nonpayable",
      "type": "function"
    },
    {
      "inputs": [
        {
          "internalType": "uint256",
          "name": "_prevID",
          "type": "uint256"
        },
        {
          "internalType": "uint256",
          "name": "_nextID",
          "type": "uint256"
        },
        {
          "internalType": "address",
          "name": "_voter",
          "type": "address"
        },
        {
          "internalType": "uint256",
          "name": "_numTokens",
          "type": "uint256"
        }
      ],
      "name": "validPosition",
      "outputs": [
        {
          "internalType": "bool",
          "name": "APPROVED",
          "type": "bool"
        }
      ],
      "stateMutability": "view",
      "type": "function"
    },
    {
      "inputs": [
        {
          "internalType": "uint256",
          "name": "_numTokens",
          "type": "uint256"
        }
      ],
      "name": "withdrawVotingRights",
      "outputs": [],
      "stateMutability": "nonpayable",
      "type": "function"
    }
  ],
  "bytecode": "0x6080604052600180805560036002819055819055670de0b6b3a7640000600781905560085568056bc75e2d63100000600955603c600a55600060128190556013819055601b80546001600160a01b0319167314f52f3fc010ab6ca81568d4a6794d5eab3c6155179055601c829055601d829055601e919091556020553480156200008857600080fd5b50604051620079ed380380620079ed833981016040819052620000ab9162000156565b620000bf620000b962000102565b62000106565b602180546001600160a01b0319166001600160a01b0392909216919091179055600060135568015af1d78b58c400006004556101c2600555607860065562000186565b3390565b600080546001600160a01b038381166001600160a01b0319831681178455604051919092169283917f8be0079c531659141344cd1fd0a4f28419497f9722a3daafe3b4186f6b6457e09190a35050565b60006020828403121562000168578081fd5b81516001600160a01b03811681146200017f578182fd5b9392505050565b61785780620001966000396000f3fe608060405234801561001057600080fd5b50600436106106aa5760003560e01c806395f82a361161036c578063d822ce01116101de578063e7b1d43c1161010f578063f5ae7c7d116100ad578063f721de4a11610087578063f721de4a14610d89578063f80a23fd14610d9c578063fc0c546a14610da4578063fca4956314610dac576106aa565b8063f5ae7c7d14610d66578063f60e738114610d6e578063f716596d14610d81576106aa565b8063ef4fcdad116100e9578063ef4fcdad14610d30578063f2d9e74d14610d38578063f2fde38b14610d40578063f4cdfcc414610d53576106aa565b8063e7b1d43c14610cea578063e8e9b6f914610cfd578063ed8becfa14610d10576106aa565b8063dd15f0951161017c578063e44c974b11610156578063e44c974b14610ca9578063e604c12714610cbc578063e7805f9e14610ccf578063e798a7da14610cd7576106aa565b8063dd15f09514610c7b578063dd61868214610c83578063df05368e14610c96576106aa565b8063d901402b116101b8578063d901402b14610c22578063d9548e5314610c35578063d9845fb814610c48578063db687c1714610c68576106aa565b8063d822ce0114610bf4578063d8645d3714610c07578063d8b7567414610c0f576106aa565b8063ab43e78d116102b8578063c4e4f82a11610256578063ced5ca6f11610230578063ced5ca6f14610bb3578063d138209214610bc6578063d420ec0b14610bd9578063d6b0206c14610bec576106aa565b8063c4e4f82a14610b90578063c9b03a7214610ba3578063cb1c2b5c14610bab576106aa565b8063b43bd06911610292578063b43bd06914610b44578063b7e4eba914610b57578063b8f011b314610b6a578063c47c4bc214610b7d576106aa565b8063ab43e78d14610b09578063b1a2e0be14610b11578063b1d7ea9814610b24576106aa565b8063a1103f3711610325578063a511dba0116102ff578063a511dba014610ad3578063a905779014610adb578063aa7ca46414610aee578063aacc5a1714610b01576106aa565b8063a1103f3714610a9a578063a25236fe14610aad578063a4439dc514610ac0576106aa565b806395f82a36146107055780639760356014610a465780639acb75c114610a595780639b07dbb914610a615780639fc9c52f14610a74578063a0e71c1514610a87576106aa565b80634fe8b4c11161052057806376e8ea4f11610451578063819b0293116103ef5780638473850b116103c95780638473850b146109fb5780638c89d02714610a035780638da5cb5b14610a2b5780638df0296e14610a33576106aa565b8063819b0293146109cd578063821aa8c0146109e057806383cc6ef2146109f3576106aa565b80637a34da671161042b5780637a34da671461097e5780637f9510a2146109865780637f97e8361461098e5780637fabe35b146109a1576106aa565b806376e8ea4f146109665780637827e5491461096e578063796b89b914610976576106aa565b8063667bf0f8116104be5780636b2d95d4116104985780636b2d95d414610930578063715018a61461094357806371880b1b1461094b578063726bc8af1461095e576106aa565b8063667bf0f8146108f25780636a192ff5146108fa5780636b1485a31461091d576106aa565b806358002158116104fa57806358002158146108a45780635a452943146108b75780635fd87909146108d75780636371d81f146108df576106aa565b80634fe8b4c114610881578063515535e81461089457806351912f291461089c576106aa565b80633538af82116105fa578063441c77c01161059857806347fe2d201161057257806347fe2d201461084057806348257dc914610848578063494031831461085b5780634d4b7d9b1461086e576106aa565b8063441c77c01461080757806344639f7c1461081a57806346a7aea61461082d576106aa565b806339e7357c116105d457806339e7357c146107d15780633ad2131f146107d95780633dda02b1146107e1578063427fa1d2146107f4576106aa565b80633538af82146107a3578063353f44d0146107b6578063354dae40146107c9576106aa565b8063226ed300116106675780632c052031116106415780632c052031146107555780632d917c68146107685780632f469fd11461077b578063313066ee1461079b576106aa565b8063226ed30014610718578063275c25901461073857806329a47bc714610740576106aa565b806304dbcda7146106af578063050eb2eb146106cd578063053e71a6146106e25780630e6661a7146106f55780630e670feb146106fd5780631b85504414610705575b600080fd5b6106b7610dbf565b6040516106c491906165fb565b60405180910390f35b6106e06106db366004616051565b610dc5565b005b6106b76106f0366004616395565b610e2f565b6106b7610e95565b6106b7610e9b565b6106b7610713366004616436565b610ea1565b61072b610726366004616395565b610ed5565b6040516106c49190616719565b6106e0610f17565b610748611000565b6040516106c4919061662e565b6106b7610763366004616094565b61100f565b61072b61077636600461606b565b6111ac565b61078e6107893660046163be565b6111cc565b6040516106c49190616724565b6106b7611271565b6107486107b1366004616395565b611277565b6106b76107c4366004616051565b6112a1565b6106e06112b3565b6106b76113db565b6106b76113f8565b6106e06107ef366004616395565b6113fe565b6106b7610802366004616051565b611442565b61072b610815366004616395565b6114e2565b6106e0610828366004616395565b61153c565b6106e061083b366004616051565b61158e565b6106b76115ef565b61072b610856366004616395565b6115f5565b61072b610869366004616395565b61194c565b61072b61087c366004616395565b611c3d565b6106e061088f366004616395565b611c52565b6106b7611cd2565b610748611cd8565b6106e06108b2366004616395565b611ce7565b6108ca6108c5366004616395565b611d2b565b6040516106c49190617542565b6106b7611e4e565b6106e06108ed366004616395565b611e54565b6106e0611f2d565b61090d610908366004616395565b612324565b6040516106c49493929190616799565b6106e061092b366004616395565b6123e3565b6106b761093e366004616051565b612d9a565b6106e0612da9565b6106b7610959366004616395565b612df4565b6106b7612e31565b6106b7612e37565b6106b7612e3d565b6106b7612e43565b610748612e47565b6106b7612e56565b61072b61099c36600461606b565b612e6d565b6109b46109af366004616395565b612ec0565b6040516106c49d9c9b9a999897969594939291906175e1565b61072b6109db366004616457565b612fb9565b6107486109ee366004616395565b612ffa565b61074861300a565b6106b7613019565b610a16610a11366004616051565b61301f565b6040516106c499989796959493929190616642565b610748613107565b610748610a41366004616436565b613116565b6106e0610a54366004616395565b61314e565b6106b76132fd565b6106e0610a6f3660046163e9565b613303565b6106e0610a823660046160c6565b61377b565b6106b7610a95366004616395565b6137cd565b6106b7610aa836600461606b565b6137f1565b6106e0610abb366004616395565b613806565b61072b610ace366004616395565b613907565b6106b7613949565b61072b610ae93660046161e1565b61394f565b61072b610afc36600461606b565b6139b5565b6106b7613a08565b610748613abd565b61072b610b1f366004616051565b613acc565b610b37610b32366004616436565b613c1a565b6040516106c49190616706565b6106b7610b52366004616094565b613e21565b6106e0610b65366004616395565b613f0d565b610b37610b78366004616436565b613f51565b6106e0610b8b366004616051565b6140b9565b6106b7610b9e366004616395565b61411a565b6106b7614157565b6106b761415d565b6106e0610bc1366004616395565b614163565b6106b7610bd436600461606b565b6141d1565b61072b610be736600461606b565b614266565b6106b7614286565b610748610c0236600461606b565b61428c565b6107486142a8565b6106b7610c1d3660046163be565b6142b7565b6106b7610c3036600461606b565b6142d4565b61072b610c43366004616395565b614319565b610c5b610c56366004616395565b61431e565b6040516106c49190617369565b6106e0610c76366004616051565b6145f3565b610748614654565b6106e0610c91366004616051565b614663565b6106e0610ca4366004616051565b6146c4565b610b37610cb7366004616395565b614725565b61078e610cca366004616395565b61479e565b6106b7614853565b61072b610ce5366004616051565b614859565b6106e0610cf8366004616395565b61487a565b6106e0610d0b366004616395565b6149b6565b610d23610d1e366004616395565b6149fa565b6040516106c491906166a6565b6106b7614e3f565b6106b7614e45565b6106e0610d4e366004616051565b614e4b565b6106b7610d6136600461616f565b614eb9565b6106b7614eef565b6106e0610d7c366004616493565b614ef5565b6106e0615218565b61072b610d97366004616395565b6153f2565b61072b6153fa565b610748615413565b6106b7610dba366004616051565b615422565b60075481565b610dcd615548565b6001600160a01b0316610dde613107565b6001600160a01b031614610e0d5760405162461bcd60e51b8152600401610e0490616eaf565b60405180910390fd5b602480546001600160a01b0319166001600160a01b0392909216919091179055565b6000610e3a82610ed5565b610e565760405162461bcd60e51b8152600401610e0490616c2a565b610e5f8261194c565b15610e7c57506000818152601f6020526040902060070154610e90565b506000818152601f60205260409020600801545b919050565b60135481565b60085481565b60008282604051602001610eb6929190616620565b6040516020818303038152906040528051906020012090505b92915050565b6000610ee0826153f2565b610efc5760405162461bcd60e51b8152600401610e04906172f4565b6000828152601f6020526040902060060154610ecf90614319565b610f1f61554c565b336000908152601460205260409020600781015460ff161515600114610f575760405162461bcd60e51b8152600401610e0490616b33565b6000610f61612e43565b9050610f6c336156d4565b610f753361582b565b8154336001600160a01b031991821681178455600180850180549093169091179091556005830182905560078301805460ff1916905560208054600090610fbd9084906176e3565b909155505060405133907f9dadcedba048e92b943ea1c5861cee1df63a566d7f795869c004780c1c698e2b90610ff49084906165fb565b60405180910390a25050565b6023546001600160a01b031681565b60008061101b85611442565b9050600061102986836141d1565b90505b81156111a15761103c86836141d1565b90508481116110f957838214156110f1576001600160a01b03861660009081526010602052604090819020905163215e94cf60e01b815273__$6ffa5bf1f4fa681f07e1987a80577d5f4e$__9163215e94cf9161109e91908690600401616620565b60206040518083038186803b1580156110b657600080fd5b505af41580156110ca573d6000803e3d6000fd5b505050506040513d601f19601f820116820180604052508101906110ee91906163ad565b91505b5090506111a5565b6001600160a01b03861660009081526010602052604090819020905163215e94cf60e01b815273__$6ffa5bf1f4fa681f07e1987a80577d5f4e$__9163215e94cf9161114a91908690600401616620565b60206040518083038186803b15801561116257600080fd5b505af4158015611176573d6000803e3d6000fd5b505050506040513d601f19601f8201168201806040525081019061119a91906163ad565b915061102c565b5090505b9392505050565b600b60209081526000928352604080842090915290825290205460ff1681565b600e602090815260009283526040808420909152908252902080546111f090617775565b80601f016020809104026020016040519081016040528092919081815260200182805461121c90617775565b80156112695780601f1061123e57610100808354040283529160200191611269565b820191906000526020600020905b81548152906001019060200180831161124c57829003601f168201915b505050505081565b60125481565b6018818154811061128757600080fd5b6000918252602090912001546001600160a01b0316905081565b60166020526000908152604090205481565b6112bb61554c565b601d546000908152601f602052604081206004015462010000900460ff161515600114801561130d57506112f0601d54610ed5565b8061130d5750601d546000908152601f6020526040902060030154155b156113325761131d601d546123e3565b601d5461132b90600161595b565b601d555060015b601e546000908152601f602052604090206004015462010000900460ff161515600114801590611363575060185415155b80156113835750601e546000908152601f602052604090206004015460ff165b1561139457611390611f2d565b5060015b80156113ac576012546113a890600161595b565b6012555b6012546040517f94d48a7342690f1233e3f4db70efa37c4f1f25f4d0397c353f3f15aecdeca5f490600090a250565b60405160009080602081848060185afa6113f157fe5b5051919050565b600a5481565b611406615548565b6001600160a01b0316611417613107565b6001600160a01b03161461143d5760405162461bcd60e51b8152600401610e0490616eaf565b600255565b6001600160a01b038116600090815260106020526040808220905163215e94cf60e01b815273__$6ffa5bf1f4fa681f07e1987a80577d5f4e$__9163215e94cf9161149291908590600401616620565b60206040518083038186803b1580156114aa57600080fd5b505af41580156114be573d6000803e3d6000fd5b505050506040513d601f19601f82011682018060405250810190610ecf91906163ad565b60006114ed826153f2565b6115095760405162461bcd60e51b8152600401610e049061706d565b6000828152601f602052604090206006015461152490614319565b158015610ecf575061153582613907565b1592915050565b611544615548565b6001600160a01b0316611555613107565b6001600160a01b03161461157b5760405162461bcd60e51b8152600401610e0490616eaf565b600181101561158957600080fd5b600355565b611596615548565b6001600160a01b03166115a7613107565b6001600160a01b0316146115cd5760405162461bcd60e51b8152600401610e0490616eaf565b602780546001600160a01b0319166001600160a01b0392909216919091179055565b601d5490565b6026546000906001600160a01b03161580159061162157506000828152600f602052604090205460ff16155b1561192c57602654604051637b90ef2560e11b81526001600160a01b039091169063f721de4a906116569085906004016165fb565b602060405180830381600087803b15801561167057600080fd5b505af1158015611684573d6000803e3d6000fd5b505050506040513d601f19601f820116820180604052508101906116a89190616155565b1561192c57602654604051631b308bf760e31b81526000916001600160a01b03169063d9845fb8906116de9086906004016165fb565b600060405180830381600087803b1580156116f857600080fd5b505af115801561170c573d6000803e3d6000fd5b505050506040513d6000823e601f3d908101601f191682016040526117349190810190616241565b610180810151909150600181600381111561175f57634e487b7160e01b600052602160045260246000fd5b1415611910576040805160808101825261016084015181523360208083019190915242828401526000606083018190526013548152601582529290922081518051929391926117b19284920190615cb3565b506020820151600182810180546001600160a01b0319166001600160a01b0390931692909217909155604083015160028301556060830151600380840180549293909260ff191691849081111561181857634e487b7160e01b600052602160045260246000fd5b021790555050601c546000908152601f602052604090206001546002820154919250111561186357600181600201600082825461185591906176e3565b909155505060135460018201555b6001548160020154106118b557600481018054600160ff19909116811761ff001916909155601c805460009061189a9084906176e3565b9091555050601354601c546000908152601f60205260409020555b6118bd6112b3565b6013546118cb9060016176e3565b60138190556101608401516040517fe72ee44ad0ed1dfc338f7eec797c944eb218773c1edbb4bb653dd9c1e2a623049161190691339061676f565b60405180910390a2505b50506000828152600f60205260409020805460ff191660011790555b60016020600082825461193f91906176e3565b9091555060009392505050565b6000818152601f6020908152604080832081516101e0810183528154815260018201549381019390935260028101549183019190915260038101546060830152600481015460ff808216151560808501526101008083048216151560a08601526201000090920416151560c0840152600582015460e084015260068201549083015260078101546101208301526008810154610140830152600981018054849392916101608401916119fd90617775565b80601f0160208091040260200160405190810160405280929190818152602001828054611a2990617775565b8015611a765780601f10611a4b57610100808354040283529160200191611a76565b820191906000526020600020905b815481529060010190602001808311611a5957829003601f168201915b5050509183525050600a82015460209091019060ff166003811115611aab57634e487b7160e01b600052602160045260246000fd5b6003811115611aca57634e487b7160e01b600052602160045260246000fd5b8152602001600b8201805480602002602001604051908101604052809291908181526020016000905b82821015611b9f578382906000526020600020018054611b1290617775565b80601f0160208091040260200160405190810160405280929190818152602001828054611b3e90617775565b8015611b8b5780601f10611b6057610100808354040283529160200191611b8b565b820191906000526020600020905b815481529060010190602001808311611b6e57829003601f168201915b505050505081526020019060010190611af3565b505050508152602001600c8201805480602002602001604051908101604052809291908181526020018280548015611bf657602002820191906000526020600020905b815481526020019060010190808311611be2575b5050505050815250509050806101400151816101200151611c1791906176e3565b600a54611c24919061770f565b610120820151611c3590606461770f565b119392505050565b600f6020526000908152604090205460ff1681565b611c5a615548565b6001600160a01b0316611c6b613107565b6001600160a01b031614611c915760405162461bcd60e51b8152600401610e0490616eaf565b600081815260156020526040812090611caa8282615d37565b506001810180546001600160a01b031916905560006002820155600301805460ff1916905550565b601c5490565b6024546001600160a01b031681565b611cef615548565b6001600160a01b0316611d00613107565b6001600160a01b031614611d265760405162461bcd60e51b8152600401610e0490616eaf565b600655565b611d33615d73565b60008281526015602052604090819020815160808101909252805482908290611d5b90617775565b80601f0160208091040260200160405190810160405280929190818152602001828054611d8790617775565b8015611dd45780601f10611da957610100808354040283529160200191611dd4565b820191906000526020600020905b815481529060010190602001808311611db757829003601f168201915b505050918352505060018201546001600160a01b031660208201526002820154604082015260038083015460609092019160ff1690811115611e2657634e487b7160e01b600052602160045260246000fd5b6003811115611e4557634e487b7160e01b600052602160045260246000fd5b90525092915050565b60065481565b611e5c615548565b6001600160a01b0316611e6d613107565b6001600160a01b031614611e935760405162461bcd60e51b8152600401610e0490616eaf565b611e9c816153f2565b15611f2a576000818152601f6020526040812081815560018101829055600281018290556003810182905560048101805462ffffff191690556005810182905560068101829055600781018290556008810182905590611eff6009830182615d37565b600a8201805460ff19169055611f19600b83016000615dc2565b611f27600c83016000615de0565b50505b50565b601e546000908152601f602052604090206004015460ff16611f615760405162461bcd60e51b8152600401610e0490616f8a565b601e546000908152601f602052604090206004015462010000900460ff1615611f9c5760405162461bcd60e51b8152600401610e0490616de4565b6000611fba611fb2601880549050600254615967565b60035461597d565b601854601e546000908152601f602052604081206003018390556005549293509091611fe790429061595b565b905060006120006006548361595b90919063ffffffff16565b601e80546000908152601f6020526040808220600501869055825482528082206006018490559154815220600401805462ff0000191662010000179055905060018410801590612051575060018310155b61206d5760405162461bcd60e51b8152600401610e0490616a63565b60006120798585613f51565b9050600081516001600160401b038111156120a457634e487b7160e01b600052604160045260246000fd5b6040519080825280602002602001820160405280156120cd578160200160208202803683370190505b50905060005b825181101561218c5760188382815181106120fe57634e487b7160e01b600052603260045260246000fd5b60200260200101518154811061212457634e487b7160e01b600052603260045260246000fd5b9060005260206000200160009054906101000a90046001600160a01b031682828151811061216257634e487b7160e01b600052603260045260246000fd5b6001600160a01b039092166020928302919091019091015280612184816177b0565b9150506120d3565b5060005b82518110156122ef5760008282815181106121bb57634e487b7160e01b600052603260045260246000fd5b60200260200101519050600060146000836001600160a01b03166001600160a01b0316815260200190815260200160002090506121f7826156d4565b6122008261598d565b61225057601980546001810182556000919091527f944998273e477b495144fb8794c914197f3ccb46be2900f4698fd0ef743c96950180546001600160a01b0319166001600160a01b0384161790555b601e80546000908152601a602090815260408083208054600181018255908452919092200180546001600160a01b0319166001600160a01b0386161790558154600284015560038301805460ff19169055905490517fe4ee2dfabe57cee15e3f558890b20455f54c1fa0718e5276faad70a6500e6b8c906122d290859061662e565b60405180910390a2505080806122e7906177b0565b915050612190565b50601e546122fe90600161595b565b601e8190555060016020600082825461231791906176e3565b9091555050505050505050565b60156020526000908152604090208054819061233f90617775565b80601f016020809104026020016040519081016040528092919081815260200182805461236b90617775565b80156123b85780601f1061238d576101008083540402835291602001916123b8565b820191906000526020600020905b81548152906001019060200180831161239b57829003601f168201915b505050506001830154600284015460039094015492936001600160a01b039091169290915060ff1684565b6123ec81610ed5565b8061240657506000818152601f6020526040902060030154155b6124225760405162461bcd60e51b8152600401610e0490616ee4565b6000818152601f6020526040902060040154610100900460ff16156124595760405162461bcd60e51b8152600401610e0490617120565b6000818152601f6020526040902060040154610100900460ff16611f2a5760006124828261194c565b6000838152601a60209081526040808320805482518185028101850190935280835294955092939092918301828280156124e557602002820191906000526020600020905b81546001600160a01b031681526001909101906020018083116124c7575b50505050509050600081516001600160401b0381111561251557634e487b7160e01b600052604160045260246000fd5b60405190808252806020026020018201604052801561254857816020015b60608152602001906001900390816125335790505b50905060005b82518110156128f257600083828151811061257957634e487b7160e01b600052603260045260246000fd5b6020908102919091018101516000888152600d835260408082206001600160a01b03841680845290855281832054600c86528284208c8552865282842054600e875283852092855291909552908220805493955060ff909116926125dc90617775565b80601f016020809104026020016040519081016040528092919081815260200182805461260890617775565b80156126555780601f1061262a57610100808354040283529160200191612655565b820191906000526020600020905b81548152906001019060200180831161263857829003601f168201915b505050505090508086868151811061267d57634e487b7160e01b600052603260045260246000fd5b60200260200101819052506126918461582b565b6001600160a01b038416600090815260146020526040902082156128af576001600160a01b0385166000908152601460205260409020600301805460ff191660019081179091558915151480156126e85750836001145b806126fd5750881580156126fd575083600114155b1561284457602354600954604051630db6cc8560e11b81526001600160a01b0390921691631b6d990a916127359189906004016175ad565b602060405180830381600087803b15801561274f57600080fd5b505af1158015612763573d6000803e3d6000fd5b505050506040513d601f19601f820116820180604052508101906127879190616155565b6127a35760405162461bcd60e51b8152600401610e0490616cc1565b602454600754604051633832942560e21b81526001600160a01b039092169163e0ca5094916127d6918990600401617596565b602060405180830381600087803b1580156127f057600080fd5b505af1158015612804573d6000803e3d6000fd5b505050506040513d601f19601f820116820180604052508101906128289190616155565b6128445760405162461bcd60e51b8152600401610e0490616ae4565b600781015460ff16156128aa5761285a856159fd565b6128aa57601880546001810182556000919091527fb13d2d76d1f4b7be834882e410b3e3a8afaf69f83600ae24db354391d2378d2e0180546001600160a01b0319166001600160a01b0387161790555b6128da565b600781015460ff16156128da5760078101805460ff191690556128d1856156d4565b6128da8561582b565b505050505080806128ea906177b0565b91505061254e565b506000612919606484516032612908919061770f565b61291291906176fb565b600161597d565b905060008260008151811061293e57634e487b7160e01b600052603260045260246000fd5b6020026020010151905060005b8351811015612a34576000805b85518110156129e9576129b986848151811061298457634e487b7160e01b600052603260045260246000fd5b60200260200101518783815181106129ac57634e487b7160e01b600052603260045260246000fd5b602002602001015161394f565b156129d7576129c96001836176e3565b91508482106129d7576129e9565b806129e1816177b0565b915050612958565b50838110612a2157848281518110612a1157634e487b7160e01b600052603260045260246000fd5b6020026020010151925050612a34565b5080612a2c816177b0565b91505061294b565b506000868152601f6020908152604090912060048101805461ff0019166101001790558251612a6b92600990920191840190615cb3565b508415612d075760235460095460008881526015602052604090819020600101549051630db6cc8560e11b81526001600160a01b0393841693631b6d990a93612abb9390929116906004016175ad565b602060405180830381600087803b158015612ad557600080fd5b505af1158015612ae9573d6000803e3d6000fd5b505050506040513d601f19601f82011682018060405250810190612b0d9190616155565b612b295760405162461bcd60e51b8152600401610e0490617200565b60245460075460008881526015602052604090819020600101549051633832942560e21b81526001600160a01b039384169363e0ca509493612b72939092911690600401617596565b602060405180830381600087803b158015612b8c57600080fd5b505af1158015612ba0573d6000803e3d6000fd5b505050506040513d601f19601f82011682018060405250810190612bc49190616155565b612be05760405162461bcd60e51b8152600401610e04906170d1565b6000868152601f602052604090819020600a01805460ff1916600117905560275490516348257dc960e01b81526001600160a01b03909116906348257dc990612c2d9089906004016165fb565b602060405180830381600087803b158015612c4757600080fd5b505af1925050508015612c77575060408051601f3d908101601f19168201909252612c7491810190616155565b60015b612ce8573d808015612ca5576040519150601f19603f3d011682016040523d82523d6000602084013e612caa565b606091505b507f4b87bbd93ba65ede1e2efeca735d9f7a6720bf7d6db0a8355b17dba5b64e578381604051612cda9190616724565b60405180910390a150612d02565b600160206000828254612cfb91906176e3565b9091555050505b612d24565b6000868152601f60205260409020600a01805460ff191660021790555b600160206000828254612d3791906176e3565b909155505060008681526015602052604090819020600181015491516001600160a01b03909216917fb83f08cf731092d35d6dd4801ac76e3fcc84b1b199915531c9874230d31adeaa91612d8a916167da565b60405180910390a2505050505050565b6000610ecf82610bd484611442565b612db1615548565b6001600160a01b0316612dc2613107565b6001600160a01b031614612de85760405162461bcd60e51b8152600401610e0490616eaf565b612df26000615a6d565b565b6000612dff826153f2565b612e1b5760405162461bcd60e51b8152600401610e049061706d565b506000908152601f602052604090206006015490565b60035481565b60015481565b60095481565b4290565b6025546001600160a01b031681565b601954601854600091612e68916176e3565b905090565b6000612e78826153f2565b612e945760405162461bcd60e51b8152600401610e049061706d565b506001600160a01b03919091166000908152600b60209081526040808320938352929052205460ff1690565b601f60205260009081526040902080546001820154600283015460038401546004850154600586015460068701546007880154600889015460098a018054999a98999798969760ff80881698610100890482169862010000900490911696959493929091612f2d90617775565b80601f0160208091040260200160405190810160405280929190818152602001828054612f5990617775565b8015612fa65780601f10612f7b57610100808354040283529160200191612fa6565b820191906000526020600020905b815481529060010190602001808311612f8957829003601f168201915b505050600a909301549192505060ff168d565b600080612fc684876141d1565b83101590506000612fd785876141d1565b84111580612fe3575085155b9050818015612fef5750805b979650505050505050565b6019818154811061128757600080fd5b6022546001600160a01b031681565b601c5481565b60146020526000908152604090208054600182015460028301546003840154600485015460058601546006870180546001600160a01b03978816989690971696949560ff909416949293919261307490617775565b80601f01602080910402602001604051908101604052809291908181526020018280546130a090617775565b80156130ed5780601f106130c2576101008083540402835291602001916130ed565b820191906000526020600020905b8154815290600101906020018083116130d057829003601f168201915b505050506007830154600890930154919260ff1691905089565b6000546001600160a01b031690565b601a602052816000526040600020818154811061313257600080fd5b6000918252602090912001546001600160a01b03169150829050565b60016000828152601f60205260409020600a015460ff16600381111561318457634e487b7160e01b600052602160045260246000fd5b146131a15760405162461bcd60e51b8152600401610e04906168bb565b3360009081526010602052604090819020905163162a54af60e31b815273__$6ffa5bf1f4fa681f07e1987a80577d5f4e$__9163b152a578916131e991908590600401616620565b60206040518083038186803b15801561320157600080fd5b505af4158015613215573d6000803e3d6000fd5b505050506040513d601f19601f820116820180604052508101906132399190616155565b6132555760405162461bcd60e51b8152600401610e0490616d0e565b33600090815260106020526040908190209051634dab476560e01b815273__$6ffa5bf1f4fa681f07e1987a80577d5f4e$__91634dab47659161329d91908590600401616620565b60006040518083038186803b1580156132b557600080fd5b505af41580156132c9573d6000803e3d6000fd5b50506040513392508391507f402507661c8c8cb90e0a796450b8bdd28b6c516f05279c0cd29e84c344e1699a90600090a350565b60125490565b61330b61554c565b61331483613907565b6133305760405162461bcd60e51b8152600401610e0490616aad565b8261333a33615422565b146133575760405162461bcd60e51b8152600401610e0490616e41565b60045433600090815260166020526040902054811115613399573360009081526016602052604081205461338c908390615abd565b905061339781613806565b505b336000908152601660205260409020548111156133c85760405162461bcd60e51b8152600401610e04906171a3565b6000336000908152601060205260408082209051631b23afef60e21b815273__$6ffa5bf1f4fa681f07e1987a80577d5f4e$__91636c8ebfbc9161341191908690600401616620565b60206040518083038186803b15801561342957600080fd5b505af415801561343d573d6000803e3d6000fd5b505050506040513d601f19601f8201168201806040525081019061346191906163ad565b9050858114156135065733600090815260106020526040908190209051631b23afef60e21b815273__$6ffa5bf1f4fa681f07e1987a80577d5f4e$__91636c8ebfbc916134b391908a90600401616620565b60206040518083038186803b1580156134cb57600080fd5b505af41580156134df573d6000803e3d6000fd5b505050506040513d601f19601f8201168201806040525081019061350391906163ad565b90505b61351282823386612fb9565b61352e5760405162461bcd60e51b8152600401610e0490616db6565b3360009081526010602052604090819020905163f3a1998360e01b815273__$6ffa5bf1f4fa681f07e1987a80577d5f4e$__9163f3a199839161357a919086908b908790600401617527565b60006040518083038186803b15801561359257600080fd5b505af41580156135a6573d6000803e3d6000fd5b5050505060006135b633886137f1565b60408051808201825260098152686e756d546f6b656e7360b81b60208201529051633416d70d60e21b81529192509073__$d865f21674766f31b0d600e4a95b721b57$__9063d05b5c349061361690601190869086908b9060040161747c565b60006040518083038186803b15801561362e57600080fd5b505af4158015613642573d6000803e3d6000fd5b5050604051633416d70d60e21b815273__$d865f21674766f31b0d600e4a95b721b57$__925063d05b5c3491506136829060119086908c906004016174ca565b60006040518083038186803b15801561369a57600080fd5b505af41580156136ae573d6000803e3d6000fd5b5050506000898152600e60209081526040808320338452825290912088516136db93509091890190615cb3565b503360009081526014602052604090206136f3612e43565b6005820155336000908152600b602090815260408083208c845282528220805460ff19166001908117909155815490929061372f9084906176e3565b909155505060405133908a907f1b5c5140592c554fa4c0cdb5b3d3cd50f87aa84e477afd0b6c93d7702ef9c73c90613768908a906165fb565b60405180910390a3505050505050505050565b60005b81518110156137c9576137b78282815181106137aa57634e487b7160e01b600052603260045260246000fd5b602002602001015161314e565b806137c1816177b0565b91505061377e565b5050565b6000818152601f60205260408120600881015460079091015482916111a5916176e3565b60008282604051602001610eb69291906165d9565b6022546040516304ada21f60e21b81526001600160a01b03909116906312b6887c906138389084903390600401617596565b602060405180830381600087803b15801561385257600080fd5b505af1158015613866573d6000803e3d6000fd5b505050506040513d601f19601f8201168201806040525081019061388a9190616155565b6138a65760405162461bcd60e51b8152600401610e0490616b7e565b33600090815260166020526040812080548392906138c59084906176e3565b909155505060405133907ff7aaf024511d9982df8cd0d437c71c30106e6848cd1ba3d288d7a9c0e276aeda906138fc9084906165fb565b60405180910390a250565b6000613912826153f2565b61392e5760405162461bcd60e51b8152600401610e049061706d565b6000828152601f602052604090206005015461153590614319565b60135490565b6000816040516020016139629190616604565b60405160208183030381529060405280519060200120836040516020016139899190616604565b6040516020818303038152906040528051906020012014156139ad57506001610ecf565b506000610ecf565b60006139c0826153f2565b6139dc5760405162461bcd60e51b8152600401610e049061706d565b506001600160a01b03919091166000908152600c60209081526040808320938352929052205460ff1690565b6000804241604051602001613a1d91906165bc565b6040516020818303038152906040528051906020012060001c613a4091906176fb565b44613a496113db565b604051602001613a5991906165fb565b60408051601f198184030181529190528051602090910120613a7b90426176e3565b613a8591906176e3565b613a8f91906176e3565b604051602001613a9f91906165fb565b60408051601f19818403018152919052805160209091012091505090565b601b546001600160a01b031681565b6001600160a01b038082166000908152601460209081526040808320815161012081018352815486168152600182015490951692850192909252600282015490840152600381015460ff161515606084015260048101546080840152600581015460a0840152600681018054929384938493919260c0840191613b4e90617775565b80601f0160208091040260200160405190810160405280929190818152602001828054613b7a90617775565b8015613bc75780601f10613b9c57610100808354040283529160200191613bc7565b820191906000526020600020905b815481529060010190602001808311613baa57829003601f168201915b5050509183525050600782015460ff16151560208201526008909101546040909101526060810151909150158015613c095750613c078160400151610ed5565b155b15613c1357600191505b5092915050565b606060008211613c2957600080fd5b600041604051602001613c3c91906165bc565b6040516020818303038152906040528051906020012060001c613c5d6113db565b604051602001613c6d91906165fb565b60408051601f198184030181529190528051602090910120613c8f90426176e3565b613c9991906176e3565b604051602001613ca991906165fb565b6040516020818303038152906040528051906020012060001c90506000846001600160401b03811115613cec57634e487b7160e01b600052604160045260246000fd5b604051908082528060200260200182016040528015613d15578160200160208202803683370190505b5090506000805b86821015613e1657600086613d3563017efeeb8761772e565b83604051602001613d47929190616620565b6040516020818303038152906040528051906020012060001c613d6a91906177cb565b90506000805b84811015613dc25782868281518110613d9957634e487b7160e01b600052603260045260246000fd5b60200260200101511415613db05760019150613dc2565b80613dba816177b0565b915050613d70565b5080613e025781858581518110613de957634e487b7160e01b600052603260045260246000fd5b6020908102919091010152613dff8460016176e3565b93505b613e0d8360016176e3565b92505050613d1c565b509095945050505050565b6000613e2c83610ed5565b613e485760405162461bcd60e51b8152600401610e049061724d565b6001600160a01b0384166000908152600c6020908152604080832086845290915290205460ff16613e8b5760405162461bcd60e51b8152600401610e0490616d6b565b6000613e968461194c565b613ea1576000613ea4565b60015b60ff16905060008184604051602001613ebe929190616620565b6040516020818303038152906040528051906020012090506000613ee287876142d4565b9050808214613f035760405162461bcd60e51b8152600401610e0490616f41565b612fef87876141d1565b613f15615548565b6001600160a01b0316613f26613107565b6001600160a01b031614613f4c5760405162461bcd60e51b8152600401610e0490616eaf565b600155565b6060600082118015613f635750818311155b8015613f70575060018310155b613f8c5760405162461bcd60e51b8152600401610e0490616a1a565b6000826001600160401b03811115613fb457634e487b7160e01b600052604160045260246000fd5b604051908082528060200260200182016040528015613fdd578160200160208202803683370190505b5090506000846001600160401b0381111561400857634e487b7160e01b600052604160045260246000fd5b604051908082528060200260200182016040528015614031578160200160208202803683370190505b509050600061404761404284615ac9565b615b1f565b905060005b86811015613e165781818151811061407457634e487b7160e01b600052603260045260246000fd5b602002602001015183828151811061409c57634e487b7160e01b600052603260045260246000fd5b6020908102919091010152806140b1816177b0565b91505061404c565b6140c1615548565b6001600160a01b03166140d2613107565b6001600160a01b0316146140f85760405162461bcd60e51b8152600401610e0490616eaf565b602580546001600160a01b0319166001600160a01b0392909216919091179055565b6000614125826153f2565b6141415760405162461bcd60e51b8152600401610e049061706d565b506000908152601f602052604090206005015490565b60025481565b60045481565b61416b615548565b6001600160a01b031661417c613107565b6001600160a01b0316146141a25760405162461bcd60e51b8152600401610e0490616eaf565b6000818152600f602052604090205460ff1615611f2a576000908152600f60205260409020805460ff19169055565b600073__$d865f21674766f31b0d600e4a95b721b57$__6362e02a2a60116141f986866137f1565b6040518363ffffffff1660e01b81526004016142169291906174f8565b60206040518083038186803b15801561422e57600080fd5b505af4158015614242573d6000803e3d6000fd5b505050506040513d601f19601f820116820180604052508101906111a591906163ad565b600c60209081526000928352604080842090915290825290205460ff1681565b601e5481565b6017602052816000526040600020818154811061313257600080fd5b6026546001600160a01b031681565b600d60209081526000928352604080842090915290825290205481565b600073__$d865f21674766f31b0d600e4a95b721b57$__6362e02a2a60116142fc86866137f1565b6040518363ffffffff1660e01b81526004016142169291906174ac565b421190565b614326615dfe565b61432f826153f2565b61433857600080fd5b6000828152601f602090815260409182902082516101e0810184528154815260018201549281019290925260028101549282019290925260038201546060820152600482015460ff808216151560808401526101008083048216151560a08501526201000090920416151560c0830152600583015460e083015260068301549082015260078201546101208201526008820154610140820152600982018054919291610160840191906143ea90617775565b80601f016020809104026020016040519081016040528092919081815260200182805461441690617775565b80156144635780601f1061443857610100808354040283529160200191614463565b820191906000526020600020905b81548152906001019060200180831161444657829003601f168201915b5050509183525050600a82015460209091019060ff16600381111561449857634e487b7160e01b600052602160045260246000fd5b60038111156144b757634e487b7160e01b600052602160045260246000fd5b8152602001600b8201805480602002602001604051908101604052809291908181526020016000905b8282101561458c5783829060005260206000200180546144ff90617775565b80601f016020809104026020016040519081016040528092919081815260200182805461452b90617775565b80156145785780601f1061454d57610100808354040283529160200191614578565b820191906000526020600020905b81548152906001019060200180831161455b57829003601f168201915b5050505050815260200190600101906144e0565b505050508152602001600c82018054806020026020016040519081016040528092919081815260200182805480156145e357602002820191906000526020600020905b8154815260200190600101908083116145cf575b5050505050815250509050919050565b6145fb615548565b6001600160a01b031661460c613107565b6001600160a01b0316146146325760405162461bcd60e51b8152600401610e0490616eaf565b602680546001600160a01b0319166001600160a01b0392909216919091179055565b6027546001600160a01b031681565b61466b615548565b6001600160a01b031661467c613107565b6001600160a01b0316146146a25760405162461bcd60e51b8152600401610e0490616eaf565b602380546001600160a01b0319166001600160a01b0392909216919091179055565b6146cc615548565b6001600160a01b03166146dd613107565b6001600160a01b0316146147035760405162461bcd60e51b8152600401610e0490616eaf565b602280546001600160a01b0319166001600160a01b0392909216919091179055565b60606000821161473457600080fd5b6000826001600160401b0381111561475c57634e487b7160e01b600052604160045260246000fd5b604051908082528060200260200182016040528015614785578160200160208202803683370190505b509050600061479661404283615ac9565b949350505050565b60606147a9826153f2565b6147b257600080fd5b6000828152601f6020526040902060090180546147ce90617775565b80601f01602080910402602001604051908101604052809291908181526020018280546147fa90617775565b80156148475780601f1061481c57610100808354040283529160200191614847565b820191906000526020600020905b81548152906001019060200180831161482a57829003601f168201915b50505050509050919050565b60055481565b6001600160a01b031660009081526014602052604090206007015460ff1690565b600061489e61488833612d9a565b3360009081526016602052604090205490615abd565b9050818110156148c05760405162461bcd60e51b8152600401610e0490617026565b602254604051630895993360e11b81526001600160a01b039091169063112b3266906148f29085903390600401617596565b602060405180830381600087803b15801561490c57600080fd5b505af1158015614920573d6000803e3d6000fd5b505050506040513d601f19601f820116820180604052508101906149449190616155565b6149605760405162461bcd60e51b8152600401610e0490617297565b336000908152601660205260408120805484929061497f90849061772e565b909155505060405133907ffaeb7dbb9992397d26ea1944efd40c80b40f702faf69b46c67ad10aba68ccb7990610ff49085906165fb565b6149be615548565b6001600160a01b03166149cf613107565b6001600160a01b0316146149f55760405162461bcd60e51b8152600401610e0490616eaf565b600555565b6060614a05826153f2565b614a215760405162461bcd60e51b8152600401610e049061706d565b6000828152601f6020908152604080832081516101e0810183528154815260018201549381019390935260028101549183019190915260038101546060830152600481015460ff808216151560808501526101008083048216151560a08601526201000090920416151560c0840152600582015460e08401526006820154908301526007810154610120830152600881015461014083015260098101805461016084019190614acf90617775565b80601f0160208091040260200160405190810160405280929190818152602001828054614afb90617775565b8015614b485780601f10614b1d57610100808354040283529160200191614b48565b820191906000526020600020905b815481529060010190602001808311614b2b57829003601f168201915b5050509183525050600a82015460209091019060ff166003811115614b7d57634e487b7160e01b600052602160045260246000fd5b6003811115614b9c57634e487b7160e01b600052602160045260246000fd5b8152602001600b8201805480602002602001604051908101604052809291908181526020016000905b82821015614c71578382906000526020600020018054614be490617775565b80601f0160208091040260200160405190810160405280929190818152602001828054614c1090617775565b8015614c5d5780601f10614c3257610100808354040283529160200191614c5d565b820191906000526020600020905b815481529060010190602001808311614c4057829003601f168201915b505050505081526020019060010190614bc5565b505050508152602001600c8201805480602002602001604051908101604052809291908181526020018280548015614cc857602002820191906000526020600020905b815481526020019060010190808311614cb4575b505050505081525050905060008160400151905060006001546001600160401b03811115614d0657634e487b7160e01b600052604160045260246000fd5b604051908082528060200260200182016040528015614d3957816020015b6060815260200190600190039081614d245790505b50905060005b82811015614e36578351600090614d579083906176e3565b600081815260156020526040812080549293509091614d7590617775565b80601f0160208091040260200160405190810160405280929190818152602001828054614da190617775565b8015614dee5780601f10614dc357610100808354040283529160200191614dee565b820191906000526020600020905b815481529060010190602001808311614dd157829003601f168201915b5050505050905080848481518110614e1657634e487b7160e01b600052603260045260246000fd5b602002602001018190525050508080614e2e906177b0565b915050614d3f565b50949350505050565b601d5481565b60205481565b614e53615548565b6001600160a01b0316614e64613107565b6001600160a01b031614614e8a5760405162461bcd60e51b8152600401610e0490616eaf565b6001600160a01b038116614eb05760405162461bcd60e51b8152600401610e04906169d4565b611f2a81615a6d565b6000838383604051602001614ed093929190616737565b6040516020818303038152906040528051906020012090509392505050565b60205490565b614efd61554c565b614f06836114e2565b614f225760405162461bcd60e51b8152600401610e0490616fe0565b336000908152600b6020908152604080832086845290915290205460ff16614f5c5760405162461bcd60e51b8152600401610e0490616bdb565b336000908152600c6020908152604080832086845290915290205460ff1615614f975760405162461bcd60e51b8152600401610e049061731d565b614fa133846142d4565b614fab8383610ea1565b14614fc85760405162461bcd60e51b8152600401610e0490616951565b6000614fd433856141d1565b9050826001141561500b576000848152601f6020526040812060070180548392906150009084906176e3565b909155506150329050565b6000848152601f60205260408120600801805483929061502c9084906176e3565b90915550505b33600090815260106020526040908190209051634dab476560e01b815273__$6ffa5bf1f4fa681f07e1987a80577d5f4e$__91634dab47659161507a91908890600401616620565b60006040518083038186803b15801561509257600080fd5b505af41580156150a6573d6000803e3d6000fd5b5050336000818152600c602090815260408083208a84528252808320805460ff19166001908117909155600d8352818420948452938252808320899055601482528083208a8452601f90925290912060030154909350615107925090615abd565b6000868152601f602052604090206003908101919091558101805460ff19166001179055615133612e43565b60058201556151413361582b565b600781015460ff161561519e57615157336159fd565b61519e57601880546001810182556000919091527fb13d2d76d1f4b7be834882e410b3e3a8afaf69f83600ae24db354391d2378d2e0180546001600160a01b031916331790555b6001602060008282546151b191906176e3565b90915550506000858152601f602052604090819020600781015460089091015491513392879289927f2e5fbeef18eaa8d8ea3b0122bc64445c4daaa6f454dfb889456791a92287f378926152099289929091906175cb565b60405180910390a45050505050565b61522061554c565b3360009081526014602052604090206019546018546103e891615242916176e3565b1061525f5760405162461bcd60e51b8152600401610e0490617161565b600781015460ff16156152845760405162461bcd60e51b8152600401610e0490616884565b600061528e612e43565b60045433600090815260166020526040902054919250908111156152d457336000908152601660205260408120546152c7908390615abd565b90506152d281613806565b505b336000908152601660205260409020548111156153035760405162461bcd60e51b8152600401610e0490616c58565b61530c336159fd565b61535357601880546001810182556000919091527fb13d2d76d1f4b7be834882e410b3e3a8afaf69f83600ae24db354391d2378d2e0180546001600160a01b031916331790555b8254336001600160a01b03199182168117855560018501805490921617905560058301829055600783015460ff1661539b5760078301805460ff191660011790554260088401555b6001602060008282546153ae91906176e3565b909155505060405133907f439d77b7534ec3108fc6143bd4fbabde0b9f2bb54f7b0730d1f70dd2135b765f906153e59085906165fb565b60405180910390a2505050565b601c54101590565b3360009081526014602052604090206007015460ff1690565b6021546001600160a01b031681565b6001600160a01b038082166000908152601460209081526040808320815161012081018352815486168152600182015490951692850192909252600282015490840152600381015460ff161515606084015260048101546080840152600581015460a08401526006810180549293849390929160c08401916154a390617775565b80601f01602080910402602001604051908101604052809291908181526020018280546154cf90617775565b801561551c5780601f106154f15761010080835404028352916020019161551c565b820191906000526020600020905b8154815290600101906020018083116154ff57829003601f168201915b5050509183525050600782015460ff161515602082015260089091015460409182015201519392505050565b3390565b601b546001600160a01b03166155745760405162461bcd60e51b8152600401610e04906170a4565b601b546040516000916001600160a01b03169061559590339060240161662e565b60408051601f198184030181529181526020820180516001600160e01b0316631f5ac9c560e11b179052516155ca9190616604565b6000604051808303816000865af19150503d8060008114615607576040519150601f19603f3d011682016040523d82523d6000602084013e61560c565b606091505b5050601b546040519192506000916001600160a01b039091169061563490339060240161662e565b60408051601f198184030181529181526020820180516001600160e01b03166358563d2160e01b179052516156699190616604565b6000604051808303816000865af19150503d80600081146156a6576040519150601f19603f3d011682016040523d82523d6000602084013e6156ab565b606091505b5050905081806156b85750805b6137c95760405162461bcd60e51b8152600401610e049061690c565b60008060005b60185481101561574857836001600160a01b03166018828154811061570f57634e487b7160e01b600052603260045260246000fd5b6000918252602090912001546001600160a01b031614156157365760019150809250615748565b80615740816177b0565b9150506156da565b508015611f27576018805461575f9060019061772e565b8154811061577d57634e487b7160e01b600052603260045260246000fd5b600091825260209091200154601880546001600160a01b0390921691849081106157b757634e487b7160e01b600052603260045260246000fd5b9060005260206000200160006101000a8154816001600160a01b0302191690836001600160a01b03160217905550601880548061580457634e487b7160e01b600052603160045260246000fd5b600082815260209020810160001990810180546001600160a01b0319169055019055505050565b60008060005b60195481101561589f57836001600160a01b03166019828154811061586657634e487b7160e01b600052603260045260246000fd5b6000918252602090912001546001600160a01b0316141561588d576001915080925061589f565b80615897816177b0565b915050615831565b508015611f2757601980546158b69060019061772e565b815481106158d457634e487b7160e01b600052603260045260246000fd5b600091825260209091200154601980546001600160a01b03909216918490811061590e57634e487b7160e01b600052603260045260246000fd5b9060005260206000200160006101000a8154816001600160a01b0302191690836001600160a01b03160217905550601980548061580457634e487b7160e01b600052603160045260246000fd5b60006111a582846176e3565b600081831061597657816111a5565b5090919050565b60008183101561597657816111a5565b600080805b601954811015613c1357836001600160a01b0316601982815481106159c757634e487b7160e01b600052603260045260246000fd5b6000918252602090912001546001600160a01b031614156159eb5760019150613c13565b806159f5816177b0565b915050615992565b600080805b601854811015613c1357836001600160a01b031660188281548110615a3757634e487b7160e01b600052603260045260246000fd5b6000918252602090912001546001600160a01b03161415615a5b5760019150613c13565b80615a65816177b0565b915050615a02565b600080546001600160a01b038381166001600160a01b0319831681178455604051919092169283917f8be0079c531659141344cd1fd0a4f28419497f9722a3daafe3b4186f6b6457e09190a35050565b60006111a5828461772e565b805160609060005b81811015615b175780848281518110615afa57634e487b7160e01b600052603260045260246000fd5b602090810291909101015280615b0f816177b0565b915050615ad1565b509192915050565b60606000825111615b2f57600080fd5b81518060005b81811015615caa57600083615b48613a08565b878481518110615b6857634e487b7160e01b600052603260045260246000fd5b6020026020010151604051602001615b81929190616620565b6040516020818303038152906040528051906020012060001c615ba491906177cb565b615baf9060016176e3565b9050600086615bbf60018461772e565b81518110615bdd57634e487b7160e01b600052603260045260246000fd5b6020026020010151905086600186615bf5919061772e565b81518110615c1357634e487b7160e01b600052603260045260246000fd5b602002602001015187600184615c29919061772e565b81518110615c4757634e487b7160e01b600052603260045260246000fd5b60209081029190910101528087615c5f60018861772e565b81518110615c7d57634e487b7160e01b600052603260045260246000fd5b6020908102919091010152615c9360018661772e565b945050508080615ca2906177b0565b915050615b35565b50929392505050565b828054615cbf90617775565b90600052602060002090601f016020900481019282615ce15760008555615d27565b82601f10615cfa57805160ff1916838001178555615d27565b82800160010185558215615d27579182015b82811115615d27578251825591602001919060010190615d0c565b50615d33929150615e99565b5090565b508054615d4390617775565b6000825580601f10615d555750611f2a565b601f016020900490600052602060002090810190611f2a9190615e99565b60405180608001604052806060815260200160006001600160a01b031681526020016000815260200160006003811115615dbd57634e487b7160e01b600052602160045260246000fd5b905290565b5080546000825590600052602060002090810190611f2a9190615eae565b5080546000825590600052602060002090810190611f2a9190615e99565b604051806101e0016040528060008152602001600081526020016000815260200160008152602001600015158152602001600015158152602001600015158152602001600081526020016000815260200160008152602001600081526020016060815260200160006003811115615e8557634e487b7160e01b600052602160045260246000fd5b815260200160608152602001606081525090565b5b80821115615d335760008155600101615e9a565b80821115615d33576000615ec28282615d37565b50600101615eae565b80356001600160a01b0381168114610e9057600080fd5b600082601f830112615ef2578081fd5b81516020615f07615f028361768d565b617664565b82815281810190858301855b85811015615f3c57615f2a898684518b010161600e565b84529284019290840190600101615f13565b5090979650505050505050565b600082601f830112615f59578081fd5b81516020615f69615f028361768d565b8281528181019085830183850287018401881015615f85578586fd5b855b85811015615f3c57815184529284019290840190600101615f87565b80518015158114610e9057600080fd5b805160048110610e9057600080fd5b600082601f830112615fd2578081fd5b8135615fe0615f02826176b0565b818152846020838601011115615ff4578283fd5b816020850160208301379081016020019190915292915050565b600082601f83011261601e578081fd5b815161602c615f02826176b0565b818152846020838601011115616040578283fd5b614796826020830160208701617745565b600060208284031215616062578081fd5b6111a582615ecb565b6000806040838503121561607d578081fd5b61608683615ecb565b946020939093013593505050565b6000806000606084860312156160a8578081fd5b6160b184615ecb565b95602085013595506040909401359392505050565b600060208083850312156160d8578182fd5b82356001600160401b038111156160ed578283fd5b8301601f810185136160fd578283fd5b803561610b615f028261768d565b8181528381019083850185840285018601891015616127578687fd5b8694505b8385101561614957803583526001949094019391850191850161612b565b50979650505050505050565b600060208284031215616166578081fd5b6111a582615fa3565b600080600060408486031215616183578081fd5b83356001600160401b0380821115616199578283fd5b818601915086601f8301126161ac578283fd5b8135818111156161ba578384fd5b8760208285010111156161cb578384fd5b6020928301989097509590910135949350505050565b600080604083850312156161f3578182fd5b82356001600160401b0380821115616209578384fd5b61621586838701615fc2565b9350602085013591508082111561622a578283fd5b5061623785828601615fc2565b9150509250929050565b600060208284031215616252578081fd5b81516001600160401b0380821115616268578283fd5b81840191506101e080838703121561627e578384fd5b61628781617664565b9050825181526020830151602082015260408301516040820152606083015160608201526162b760808401615fa3565b60808201526162c860a08401615fa3565b60a08201526162d960c08401615fa3565b60c082015260e08381015190820152610100808401519082015261012080840151908201526101408084015190820152610160808401518381111561631c578586fd5b6163288882870161600e565b82840152505061018061633c818501615fb3565b908201526101a08381015183811115616353578586fd5b61635f88828701615ee2565b8284015250506101c08084015183811115616378578586fd5b61638488828701615f49565b918301919091525095945050505050565b6000602082840312156163a6578081fd5b5035919050565b6000602082840312156113f1578081fd5b600080604083850312156163d0578182fd5b823591506163e060208401615ecb565b90509250929050565b6000806000606084860312156163fd578081fd5b833592506020840135915060408401356001600160401b03811115616420578182fd5b61642c86828701615fc2565b9150509250925092565b60008060408385031215616448578182fd5b50508035926020909101359150565b6000806000806080858703121561646c578182fd5b843593506020850135925061648360408601615ecb565b9396929550929360600135925050565b6000806000606084860312156164a7578081fd5b505081359360208301359350604090920135919050565b6000815180845260208085018081965082840281019150828601855b858110156165045782840389526164f2848351616551565b988501989350908401906001016164da565b5091979650505050505050565b6000815180845260208085019450808401835b8381101561654057815187529582019590820190600101616524565b509495945050505050565b15159052565b60008151808452616569816020860160208601617745565b601f01601f19169290920160200192915050565b6004811061659b57634e487b7160e01b600052602160045260246000fd5b9052565b600a8152690c6dedadad2e890c2e6d60b31b602082015260400190565b60609190911b6bffffffffffffffffffffffff1916815260140190565b60609290921b6bffffffffffffffffffffffff19168252601482015260340190565b90815260200190565b60008251616616818460208701617745565b9190910192915050565b918252602082015260400190565b6001600160a01b0391909116815260200190565b6001600160a01b038a81168252891660208201526040810188905286151560608201526080810186905260a0810185905261012060c0820181905260009061668c83820187616551565b94151560e084015250506101000152979650505050505050565b6000602080830181845280855180835260408601915060408482028701019250838701855b828110156166f957603f198886030184526166e7858351616551565b945092850192908501906001016166cb565b5092979650505050505050565b6000602082526111a56020830184616511565b901515815260200190565b6000602082526111a56020830184616551565b6000604082528360408301528385606084013780606085840101526060601f19601f8601168301019050826020830152949350505050565b6000604082526167826040830185616551565b905060018060a01b03831660208301529392505050565b6000608082526167ac6080830187616551565b6001600160a01b03861660208401526040830185905290506167d1606083018461657d565b95945050505050565b60006020808352818454836002820490506001808316806167fc57607f831692505b85831081141561681a57634e487b7160e01b87526022600452602487fd5b61682683878a016165fb565b81801561683a576001811461684b57616875565b60ff19861682528782019650616875565b6168548b6176d7565b895b8681101561686f57815484820152908501908901616856565b83019750505b50949998505050505050505050565b6020808252601c908201527f576f726b657220697320616c7265616479207265676973746572656400000000604082015260600190565b60208082526031908201527f676976656e204461746142617463682073686f756c6420626520415050524f5660408201527011510b08185b99081a5d081a5cc81b9bdd607a1b606082015260800190565b60208082526025908201527f72656365697665722072656a6563746564205f7265747269657665534675656c6040820152640818d85b1b60da1b606082015260800190565b6020808252605c908201527f4e6f74207468652073616d6520766f7465207468616e2077686174207761732060408201527f636f6d6d697465642c20696d706f737369626c6520746f206d6174636820776960608201527f746820676976656e205f73616c742026205f766f74654f7074696f6e00000000608082015260a00190565b60208082526026908201527f4f776e61626c653a206e6577206f776e657220697320746865207a65726f206160408201526564647265737360d01b606082015260800190565b60208082526029908201527f6b206f72204e20617265206e6f74204f4b20647572696e672072616e646f6d2060408201526839b2b632b1ba34b7b760b91b606082015260800190565b6020808252602a908201527f4661696c20647572696e6720616c6c6f636174696f6e3a206e6f7420656e6f75604082015269676820776f726b65727360b01b606082015260800190565b6020808252601e908201527f636f6d6d697420706572696f64206e6565647320746f206265206f70656e0000604082015260600190565b6020808252602f908201527f636f756c64206e6f742072657761726420746f6b656e20696e2054726967676560408201526e3921b432b1b5a9b837ba161018973160891b606082015260800190565b6020808252602b908201527f576f726b6572206973206e6f7420617661696c61626c6520736f2063616e277460408201526a103ab73932b3b4b9ba32b960a91b606082015260800190565b6020808252603d908201527f436f756c64206e6f74207265717565737420656e6f75676820616c6c6f63617460408201527f6564207374616b652c2072657175657374566f74696e67526967687473000000606082015260800190565b6020808252602f908201527f5573657220686173206e6f7420636f6d6d69746564206265666f72652c20746860408201526e1d5cc818d85b89dd081c995d99585b608a1b606082015260800190565b60208082526014908201527311185d18481b5d5cdd081a185d9948195b99195960621b604082015260600190565b60208082526043908201527f576f726b657220686173206e6f7420656e6f75676820285f6e756d546f6b656e60408201527f732920696e2068697320466f726d61745374616b6564546f6b656e42616c616e606082015262031b2960ed1b608082015260a00190565b6020808252602d908201527f636f756c64206e6f74207265776172642052455020696e20547269676765724360408201526c6865636b53706f742c20312e6160981b606082015260800190565b60208082526039908201527f646c6c4d61703a20646f6573206e6f7420636f696e7461696e205f446174614260408201527f61746368496420666f7220746865206d73672073656e64657200000000000000606082015260800190565b6020808252602b908201527f75736572206d75737420686176652072657665616c656420696e20746869732060408201526a0ced2eccadc4084c2e8c6d60ab1b606082015260800190565b6020808252601490820152733737ba1030903b30b634b2103837b9b4ba34b7b760611b604082015260600190565b6020808252603b908201527f43616e277420616c6c6f6361746520776f726b2c207468652063757272656e7460408201527f20626174636820697320616c726561647920616c6c6f63617465640000000000606082015260800190565b60208082526048908201527f55736572206e6565647320746f2068617665206265656e20616c6c6f6361746560408201527f64207468652063757272656e74206461746120626174636820746f20636f6d6d6060820152671a5d081bdb881a5d60c21b608082015260a00190565b6020808252818101527f4f776e61626c653a2063616c6c6572206973206e6f7420746865206f776e6572604082015260600190565b6020808252603a908201527f5f446174614261746368496420686173206e6f7420656e6465642c206f72206e60408201527f6f7420657665727920766f74657273206861766520766f746564000000000000606082015260800190565b60208082526029908201527f6765744e756d50617373696e67546f6b656e733a20686173686573206d75737460408201526808189948195c5d585b60ba1b606082015260800190565b60208082526036908201527f43616e277420616c6c6f6361746520776f726b2c207468652063757272656e74604082015275206261746368206973206e6f7420636f6d706c65746560501b606082015260800190565b60208082526026908201527f52657665616c20706572696f64206e6f74206f70656e20666f7220746869732060408201526511185d18525160d21b606082015260800190565b60208082526027908201527f617661696c61626c65546f6b656e732073686f756c64206265203e3d205f6e756040820152666d546f6b656e7360c81b606082015260800190565b60208082526017908201527f5f4461746142617463684964206d757374206578697374000000000000000000604082015260600190565b6020808252601390820152720c081059191c995cdcc8139bdd0815985b1a59606a1b604082015260600190565b6020808252602f908201527f636f756c64206e6f742072657761726420746f6b656e20696e2054726967676560408201526e3921b432b1b5a9b837ba161019173160891b606082015260800190565b60208082526021908201527f5f446174614261746368496420697320616c72656164792076616c69646174656040820152601960fa1b606082015260800190565b60208082526022908201527f4d6178696d756d207265676973746572656420776f726b65727320616c726561604082015261647960f01b606082015260800190565b60208082526037908201527f75736572206d757374206861766520656e6f75676820766f74696e672072696760408201527f68747320616b6120616c6c6f6361746564207374616b65000000000000000000606082015260800190565b6020808252602d908201527f636f756c64206e6f74207265776172642052455020696e20547269676765724360408201526c6865636b53706f742c20322e6160981b606082015260800190565b6020808252602a908201527f5f446174614261746368496420636865636b696e6720766f7465206d757374206040820152691a185d9948195b99195960b21b606082015260800190565b6020808252603b908201527f436f756c64206e6f74207769746864726177566f74696e67526967687473207460408201527f68726f7567682050726f78795374616b654465616c6c6f636174650000000000606082015260800190565b6020808252600f908201526e11185d18481b5d5cdd08195e1a5cdd608a1b604082015260600190565b6020808252602c908201527f557365722068617320616c72656164792072657665616c65642c20746875732060408201526b18d85b89dd081c995d99585b60a21b606082015260800190565b6000602082528251602083015260208301516040830152604083015160608301526060830151608083015260808301516173a660a084018261654b565b5060a08301516173b960c084018261654b565b5060c08301516173cc60e084018261654b565b5060e0830151610100838101919091528301516101208084019190915283015161014080840191909152830151610160808401919091528301516101e0610180808501829052617420610200860184616551565b908601519092506101a06174368682018361657d565b80870151915050601f196101c081878603018188015261745685846164be565b9088015187820390920184880152935090506174728382616511565b9695505050505050565b60008582528460208301526080604083015261749b6080830185616551565b905082606083015295945050505050565b6000838252826020830152606060408301526147966060830161659f565b6000848252836020830152608060408301526174e86080830161659f565b9050826060830152949350505050565b9182526020820152606060408201819052600990820152686e756d546f6b656e7360b81b608082015260a00190565b93845260208401929092526040830152606082015260800190565b60006020825282516080602084015261755e60a0840182616551565b905060018060a01b03602085015116604084015260408401516060840152606084015161758e608085018261657d565b509392505050565b9182526001600160a01b0316602082015260400190565b9182526001600160a01b031660208201526000604082015260600190565b9283526020830191909152604082015260600190565b60006101a08f83528e60208401528d60408401528c60608401528b151560808401528a151560a084015289151560c08401528860e08401528761010084015286610120840152856101408401528061016084015261764181840186616551565b91505061765261018083018461657d565b9e9d5050505050505050505050505050565b6040518181016001600160401b03811182821017156176855761768561780b565b604052919050565b60006001600160401b038211156176a6576176a661780b565b5060209081020190565b60006001600160401b038211156176c9576176c961780b565b50601f01601f191660200190565b60009081526020902090565b600082198211156176f6576176f66177df565b500190565b60008261770a5761770a6177f5565b500490565b6000816000190483118215151615617729576177296177df565b500290565b600082821015617740576177406177df565b500390565b60005b83811015617760578181015183820152602001617748565b8381111561776f576000848401525b50505050565b60028104600182168061778957607f821691505b602082108114156177aa57634e487b7160e01b600052602260045260246000fd5b50919050565b60006000198214156177c4576177c46177df565b5060010190565b6000826177da576177da6177f5565b500690565b634e487b7160e01b600052601160045260246000fd5b634e487b7160e01b600052601260045260246000fd5b634e487b7160e01b600052604160045260246000fdfea2646970667358221220f79a0c189b249adb7e741436187d28968c31f92af091420f32f1e8c18eb42dbd64736f6c63430008000033",
  "linkReferences": {
    "contracts/worksystems/DataFormatting.sol": {
      "AttributeStore2": [
        {
          "length": 20,
          "start": 14205
        },
        {
          "length": 20,
          "start": 14313
        },
        {
          "length": 20,
          "start": 17259
        },
        {
          "length": 20,
          "start": 17518
        }
      ],
      "DLL2": [
        {
          "length": 20,
          "start": 4619
        },
        {
          "length": 20,
          "start": 4791
        },
        {
          "length": 20,
          "start": 5631
        },
        {
          "length": 20,
          "start": 13142
        },
        {
          "length": 20,
          "start": 13322
        },
        {
          "length": 20,
          "start": 13694
        },
        {
          "length": 20,
          "start": 13856
        },
        {
          "length": 20,
          "start": 14051
        },
        {
          "length": 20,
          "start": 20967
        }
      ]
    }
  },
  "deployedLinkReferences": {
    "contracts/worksystems/DataFormatting.sol": {
      "AttributeStore2": [
        {
          "length": 20,
          "start": 13799
        },
        {
          "length": 20,
          "start": 13907
        },
        {
          "length": 20,
          "start": 16853
        },
        {
          "length": 20,
          "start": 17112
        }
      ],
      "DLL2": [
        {
          "length": 20,
          "start": 4213
        },
        {
          "length": 20,
          "start": 4385
        },
        {
          "length": 20,
          "start": 5225
        },
        {
          "length": 20,
          "start": 12736
        },
        {
          "length": 20,
          "start": 12916
        },
        {
          "length": 20,
          "start": 13288
        },
        {
          "length": 20,
          "start": 13450
        },
        {
          "length": 20,
          "start": 13645
        },
        {
          "length": 20,
          "start": 20561
        }
      ]
    }
  }
}