{
	"data": {
		"bytecode": {
			"linkReferences": {},
			"object": "60806040523480156200001157600080fd5b50620000266200002062000484565b62000488565b60408051808201825260078152660c8c4bed0c2e6d60cb1b602080830191909152825160608101909352602e80845291927f2b5d58428bfac46b18194c473ec2b1d41db6dc98e3aad716519f594222ef836092909162000e5b9083013960008281526001602090815260409091208251620000a89391929190910190620004d8565b50604051806040016040528060128152602001710d8c2dccebec8cae8cac6e8dee4bed0c2e6d60731b8152509150818051906020012090506040518060600160405280602e815260200162000f9d602e9139600082815260016020908152604090912082516200011f9391929190910190620004d8565b506040518060400160405280601781526020017f63656e736f72696e675f6465746563746f725f686173680000000000000000008152509150818051906020012090506040518060600160405280602e815260200162000ee5602e913960008281526001602090815260409091208251620001a19391929190910190620004d8565b506040518060400160405280601381526020017f746f7869635f6465746563746f725f68617368000000000000000000000000008152509150818051906020012090506040518060600160405280602e815260200162000e89602e913960008281526001602090815260409091208251620002239391929190910190620004d8565b50604051806040016040528060128152602001710ccc2d6cabec8cae8cac6e8dee4bed0c2e6d60731b8152509150818051906020012090506040518060600160405280602e815260200162000f6f602e9139600082815260016020908152604090912082516200029a9391929190910190620004d8565b506040518060400160405280601381526020017f63617465675f6465746563746f725f68617368000000000000000000000000008152509150818051906020012090506040518060600160405280602e815260200162000e2d602e9139600082815260016020908152604090912082516200031c9391929190910190620004d8565b50604051806040016040528060118152602001700d8c2dcceeac2cecae698d2e6e890c2e6d607b1b8152509150818051906020012090506040518060600160405280602e815260200162000f13602e913960008281526001602090815260409091208251620003929391929190910190620004d8565b506040518060400160405280600f81526020016e0c6d0d2dccae6ca88d2c6e890c2e6d608b1b8152509150818051906020012090506040518060600160405280602e815260200162000f41602e913960008281526001602090815260409091208251620004069391929190910190620004d8565b506040518060400160405280601081526020016f0d4c2e0c2dccae6ca88d2c6e890c2e6d60831b8152509150818051906020012090506040518060600160405280602e815260200162000eb7602e9139600082815260016020908152604090912082516200047b9391929190910190620004d8565b505050620005bb565b3390565b600080546001600160a01b038381166001600160a01b0319831681178455604051919092169283917f8be0079c531659141344cd1fd0a4f28419497f9722a3daafe3b4186f6b6457e09190a35050565b828054620004e6906200057e565b90600052602060002090601f0160209004810192826200050a576000855562000555565b82601f106200052557805160ff191683800117855562000555565b8280016001018555821562000555579182015b828111156200055557825182559160200191906001019062000538565b506200056392915062000567565b5090565b5b8082111562000563576000815560010162000568565b6002810460018216806200059357607f821691505b60208210811415620005b557634e487b7160e01b600052602260045260246000fd5b50919050565b61086280620005cb6000396000f3fe608060405234801561001057600080fd5b506004361061006d5760003560e01c80635b6beeb914610072578063693ec85e1461009b578063715018a6146100bb578063773f44b9146100c55780638da5cb5b146100e5578063e7ef321c146100fa578063f2fde38b1461010d575b600080fd5b61008561008036600461062f565b610120565b604051610092919061071a565b60405180910390f35b6100ae6100a936600461062f565b610153565b6040516100929190610723565b6100c3610227565b005b6100d86100d336600461066e565b61027b565b604051610092919061070f565b6100ed610345565b60405161009291906106fb565b6100d86101083660046105d4565b610354565b6100c361011b3660046105a6565b6103ed565b600082826040516020016101359291906106eb565b60405160208183030381529060405280519060200120905092915050565b60606000838360405160200161016a9291906106eb565b6040516020818303038152906040528051906020012090506001600082815260200190815260200160002080546101a0906107f1565b80601f01602080910402602001604051908101604052809291908181526020018280546101cc906107f1565b80156102195780601f106101ee57610100808354040283529160200191610219565b820191906000526020600020905b8154815290600101906020018083116101fc57829003601f168201915b505050505091505092915050565b61022f61045e565b6001600160a01b0316610240610345565b6001600160a01b03161461026f5760405162461bcd60e51b8152600401610266906107bc565b60405180910390fd5b6102796000610462565b565b600061028561045e565b6001600160a01b0316610296610345565b6001600160a01b0316146102bc5760405162461bcd60e51b8152600401610266906107bc565b600086866040516020016102d19291906106eb565b604051602081830303815290604052805190602001209050828061030d575060008181526001602052604090208054610309906107f1565b1590505b1561033657600081815260016020526040902061032b9086866104b2565b50600191505061033c565b60009150505b95945050505050565b6000546001600160a01b031690565b600061035e61045e565b6001600160a01b031661036f610345565b6001600160a01b0316146103955760405162461bcd60e51b8152600401610266906107bc565b81806103b95750600085815260016020526040902080546103b5906107f1565b1590505b156103e15760008581526001602052604090206103d79085856104b2565b50600190506103e5565b5060005b949350505050565b6103f561045e565b6001600160a01b0316610406610345565b6001600160a01b03161461042c5760405162461bcd60e51b8152600401610266906107bc565b6001600160a01b0381166104525760405162461bcd60e51b815260040161026690610776565b61045b81610462565b50565b3390565b600080546001600160a01b038381166001600160a01b0319831681178455604051919092169283917f8be0079c531659141344cd1fd0a4f28419497f9722a3daafe3b4186f6b6457e09190a35050565b8280546104be906107f1565b90600052602060002090601f0160209004810192826104e05760008555610526565b82601f106104f95782800160ff19823516178555610526565b82800160010185558215610526579182015b8281111561052657823582559160200191906001019061050b565b50610532929150610536565b5090565b5b808211156105325760008155600101610537565b8035801515811461055b57600080fd5b919050565b60008083601f840112610571578182fd5b5081356001600160401b03811115610587578182fd5b60208301915083602082850101111561059f57600080fd5b9250929050565b6000602082840312156105b7578081fd5b81356001600160a01b03811681146105cd578182fd5b9392505050565b600080600080606085870312156105e9578283fd5b8435935060208501356001600160401b03811115610605578384fd5b61061187828801610560565b909450925061062490506040860161054b565b905092959194509250565b60008060208385031215610641578182fd5b82356001600160401b03811115610656578283fd5b61066285828601610560565b90969095509350505050565b600080600080600060608688031215610685578081fd5b85356001600160401b038082111561069b578283fd5b6106a789838a01610560565b909750955060208801359150808211156106bf578283fd5b506106cc88828901610560565b90945092506106df90506040870161054b565b90509295509295909350565b6000828483379101908152919050565b6001600160a01b0391909116815260200190565b901515815260200190565b90815260200190565b6000602080835283518082850152825b8181101561074f57858101830151858201604001528201610733565b818111156107605783604083870101525b50601f01601f1916929092016040019392505050565b60208082526026908201527f4f776e61626c653a206e6577206f776e657220697320746865207a65726f206160408201526564647265737360d01b606082015260800190565b6020808252818101527f4f776e61626c653a2063616c6c6572206973206e6f7420746865206f776e6572604082015260600190565b60028104600182168061080557607f821691505b6020821081141561082657634e487b7160e01b600052602260045260246000fd5b5091905056fea264697066735822122026823ae2f609c7f5da2cc4ae8ebc85aa645a1b0fde0f18547c196a17c3520ee364736f6c63430008000033516d4e5534613473793531504839576e7452517356766d64564671376a6877416e4773594c32774b705346434354516d63327477385a7745524d526d794755316379775044734d4c6b51766b4e45775275454355486e5575634c6e68516d5964564c656e4a4563343861743659377a59627738634c4c4c5064646a477074657a7a62446b636374645876516d66557a527471564c3974714731314470624a56424e6f4b6a78514d79567571763275763270696e7a75635436516d625a7a5663437766684b346a5971555752377959466954325963525136377958486f5874376a65665a6a7246516d514b364d3770756d3657325a524c6468677a45773776483847594d6d7677523361583368466b4d5857727573516d5059387a5536787a77766a6f6d7a4e35416b56665461357a5a7032526b586732654d333476504543716f7459516d51346f634836504e67354157696f4462574a5179766f5a576838567364436a4b314b437975466a4d54556463516d62787936594d6431484e446f4b44644754414b59645642755547556b413137615156596474484a7636667a64",
			"opcodes": "PUSH1 0x80 PUSH1 0x40 MSTORE CALLVALUE DUP1 ISZERO PUSH3 0x11 JUMPI PUSH1 0x0 DUP1 REVERT JUMPDEST POP PUSH3 0x26 PUSH3 0x20 PUSH3 0x484 JUMP JUMPDEST PUSH3 0x488 JUMP JUMPDEST PUSH1 0x40 DUP1 MLOAD DUP1 DUP3 ADD DUP3 MSTORE PUSH1 0x7 DUP2 MSTORE PUSH7 0xC8C4BED0C2E6D PUSH1 0xCB SHL PUSH1 0x20 DUP1 DUP4 ADD SWAP2 SWAP1 SWAP2 MSTORE DUP3 MLOAD PUSH1 0x60 DUP2 ADD SWAP1 SWAP4 MSTORE PUSH1 0x2E DUP1 DUP5 MSTORE SWAP2 SWAP3 PUSH32 0x2B5D58428BFAC46B18194C473EC2B1D41DB6DC98E3AAD716519F594222EF8360 SWAP3 SWAP1 SWAP2 PUSH3 0xE5B SWAP1 DUP4 ADD CODECOPY PUSH1 0x0 DUP3 DUP2 MSTORE PUSH1 0x1 PUSH1 0x20 SWAP1 DUP2 MSTORE PUSH1 0x40 SWAP1 SWAP2 KECCAK256 DUP3 MLOAD PUSH3 0xA8 SWAP4 SWAP2 SWAP3 SWAP2 SWAP1 SWAP2 ADD SWAP1 PUSH3 0x4D8 JUMP JUMPDEST POP PUSH1 0x40 MLOAD DUP1 PUSH1 0x40 ADD PUSH1 0x40 MSTORE DUP1 PUSH1 0x12 DUP2 MSTORE PUSH1 0x20 ADD PUSH18 0xD8C2DCCEBEC8CAE8CAC6E8DEE4BED0C2E6D PUSH1 0x73 SHL DUP2 MSTORE POP SWAP2 POP DUP2 DUP1 MLOAD SWAP1 PUSH1 0x20 ADD KECCAK256 SWAP1 POP PUSH1 0x40 MLOAD DUP1 PUSH1 0x60 ADD PUSH1 0x40 MSTORE DUP1 PUSH1 0x2E DUP2 MSTORE PUSH1 0x20 ADD PUSH3 0xF9D PUSH1 0x2E SWAP2 CODECOPY PUSH1 0x0 DUP3 DUP2 MSTORE PUSH1 0x1 PUSH1 0x20 SWAP1 DUP2 MSTORE PUSH1 0x40 SWAP1 SWAP2 KECCAK256 DUP3 MLOAD PUSH3 0x11F SWAP4 SWAP2 SWAP3 SWAP2 SWAP1 SWAP2 ADD SWAP1 PUSH3 0x4D8 JUMP JUMPDEST POP PUSH1 0x40 MLOAD DUP1 PUSH1 0x40 ADD PUSH1 0x40 MSTORE DUP1 PUSH1 0x17 DUP2 MSTORE PUSH1 0x20 ADD PUSH32 0x63656E736F72696E675F6465746563746F725F68617368000000000000000000 DUP2 MSTORE POP SWAP2 POP DUP2 DUP1 MLOAD SWAP1 PUSH1 0x20 ADD KECCAK256 SWAP1 POP PUSH1 0x40 MLOAD DUP1 PUSH1 0x60 ADD PUSH1 0x40 MSTORE DUP1 PUSH1 0x2E DUP2 MSTORE PUSH1 0x20 ADD PUSH3 0xEE5 PUSH1 0x2E SWAP2 CODECOPY PUSH1 0x0 DUP3 DUP2 MSTORE PUSH1 0x1 PUSH1 0x20 SWAP1 DUP2 MSTORE PUSH1 0x40 SWAP1 SWAP2 KECCAK256 DUP3 MLOAD PUSH3 0x1A1 SWAP4 SWAP2 SWAP3 SWAP2 SWAP1 SWAP2 ADD SWAP1 PUSH3 0x4D8 JUMP JUMPDEST POP PUSH1 0x40 MLOAD DUP1 PUSH1 0x40 ADD PUSH1 0x40 MSTORE DUP1 PUSH1 0x13 DUP2 MSTORE PUSH1 0x20 ADD PUSH32 0x746F7869635F6465746563746F725F6861736800000000000000000000000000 DUP2 MSTORE POP SWAP2 POP DUP2 DUP1 MLOAD SWAP1 PUSH1 0x20 ADD KECCAK256 SWAP1 POP PUSH1 0x40 MLOAD DUP1 PUSH1 0x60 ADD PUSH1 0x40 MSTORE DUP1 PUSH1 0x2E DUP2 MSTORE PUSH1 0x20 ADD PUSH3 0xE89 PUSH1 0x2E SWAP2 CODECOPY PUSH1 0x0 DUP3 DUP2 MSTORE PUSH1 0x1 PUSH1 0x20 SWAP1 DUP2 MSTORE PUSH1 0x40 SWAP1 SWAP2 KECCAK256 DUP3 MLOAD PUSH3 0x223 SWAP4 SWAP2 SWAP3 SWAP2 SWAP1 SWAP2 ADD SWAP1 PUSH3 0x4D8 JUMP JUMPDEST POP PUSH1 0x40 MLOAD DUP1 PUSH1 0x40 ADD PUSH1 0x40 MSTORE DUP1 PUSH1 0x12 DUP2 MSTORE PUSH1 0x20 ADD PUSH18 0xCCC2D6CABEC8CAE8CAC6E8DEE4BED0C2E6D PUSH1 0x73 SHL DUP2 MSTORE POP SWAP2 POP DUP2 DUP1 MLOAD SWAP1 PUSH1 0x20 ADD KECCAK256 SWAP1 POP PUSH1 0x40 MLOAD DUP1 PUSH1 0x60 ADD PUSH1 0x40 MSTORE DUP1 PUSH1 0x2E DUP2 MSTORE PUSH1 0x20 ADD PUSH3 0xF6F PUSH1 0x2E SWAP2 CODECOPY PUSH1 0x0 DUP3 DUP2 MSTORE PUSH1 0x1 PUSH1 0x20 SWAP1 DUP2 MSTORE PUSH1 0x40 SWAP1 SWAP2 KECCAK256 DUP3 MLOAD PUSH3 0x29A SWAP4 SWAP2 SWAP3 SWAP2 SWAP1 SWAP2 ADD SWAP1 PUSH3 0x4D8 JUMP JUMPDEST POP PUSH1 0x40 MLOAD DUP1 PUSH1 0x40 ADD PUSH1 0x40 MSTORE DUP1 PUSH1 0x13 DUP2 MSTORE PUSH1 0x20 ADD PUSH32 0x63617465675F6465746563746F725F6861736800000000000000000000000000 DUP2 MSTORE POP SWAP2 POP DUP2 DUP1 MLOAD SWAP1 PUSH1 0x20 ADD KECCAK256 SWAP1 POP PUSH1 0x40 MLOAD DUP1 PUSH1 0x60 ADD PUSH1 0x40 MSTORE DUP1 PUSH1 0x2E DUP2 MSTORE PUSH1 0x20 ADD PUSH3 0xE2D PUSH1 0x2E SWAP2 CODECOPY PUSH1 0x0 DUP3 DUP2 MSTORE PUSH1 0x1 PUSH1 0x20 SWAP1 DUP2 MSTORE PUSH1 0x40 SWAP1 SWAP2 KECCAK256 DUP3 MLOAD PUSH3 0x31C SWAP4 SWAP2 SWAP3 SWAP2 SWAP1 SWAP2 ADD SWAP1 PUSH3 0x4D8 JUMP JUMPDEST POP PUSH1 0x40 MLOAD DUP1 PUSH1 0x40 ADD PUSH1 0x40 MSTORE DUP1 PUSH1 0x11 DUP2 MSTORE PUSH1 0x20 ADD PUSH17 0xD8C2DCCEEAC2CECAE698D2E6E890C2E6D PUSH1 0x7B SHL DUP2 MSTORE POP SWAP2 POP DUP2 DUP1 MLOAD SWAP1 PUSH1 0x20 ADD KECCAK256 SWAP1 POP PUSH1 0x40 MLOAD DUP1 PUSH1 0x60 ADD PUSH1 0x40 MSTORE DUP1 PUSH1 0x2E DUP2 MSTORE PUSH1 0x20 ADD PUSH3 0xF13 PUSH1 0x2E SWAP2 CODECOPY PUSH1 0x0 DUP3 DUP2 MSTORE PUSH1 0x1 PUSH1 0x20 SWAP1 DUP2 MSTORE PUSH1 0x40 SWAP1 SWAP2 KECCAK256 DUP3 MLOAD PUSH3 0x392 SWAP4 SWAP2 SWAP3 SWAP2 SWAP1 SWAP2 ADD SWAP1 PUSH3 0x4D8 JUMP JUMPDEST POP PUSH1 0x40 MLOAD DUP1 PUSH1 0x40 ADD PUSH1 0x40 MSTORE DUP1 PUSH1 0xF DUP2 MSTORE PUSH1 0x20 ADD PUSH15 0xC6D0D2DCCAE6CA88D2C6E890C2E6D PUSH1 0x8B SHL DUP2 MSTORE POP SWAP2 POP DUP2 DUP1 MLOAD SWAP1 PUSH1 0x20 ADD KECCAK256 SWAP1 POP PUSH1 0x40 MLOAD DUP1 PUSH1 0x60 ADD PUSH1 0x40 MSTORE DUP1 PUSH1 0x2E DUP2 MSTORE PUSH1 0x20 ADD PUSH3 0xF41 PUSH1 0x2E SWAP2 CODECOPY PUSH1 0x0 DUP3 DUP2 MSTORE PUSH1 0x1 PUSH1 0x20 SWAP1 DUP2 MSTORE PUSH1 0x40 SWAP1 SWAP2 KECCAK256 DUP3 MLOAD PUSH3 0x406 SWAP4 SWAP2 SWAP3 SWAP2 SWAP1 SWAP2 ADD SWAP1 PUSH3 0x4D8 JUMP JUMPDEST POP PUSH1 0x40 MLOAD DUP1 PUSH1 0x40 ADD PUSH1 0x40 MSTORE DUP1 PUSH1 0x10 DUP2 MSTORE PUSH1 0x20 ADD PUSH16 0xD4C2E0C2DCCAE6CA88D2C6E890C2E6D PUSH1 0x83 SHL DUP2 MSTORE POP SWAP2 POP DUP2 DUP1 MLOAD SWAP1 PUSH1 0x20 ADD KECCAK256 SWAP1 POP PUSH1 0x40 MLOAD DUP1 PUSH1 0x60 ADD PUSH1 0x40 MSTORE DUP1 PUSH1 0x2E DUP2 MSTORE PUSH1 0x20 ADD PUSH3 0xEB7 PUSH1 0x2E SWAP2 CODECOPY PUSH1 0x0 DUP3 DUP2 MSTORE PUSH1 0x1 PUSH1 0x20 SWAP1 DUP2 MSTORE PUSH1 0x40 SWAP1 SWAP2 KECCAK256 DUP3 MLOAD PUSH3 0x47B SWAP4 SWAP2 SWAP3 SWAP2 SWAP1 SWAP2 ADD SWAP1 PUSH3 0x4D8 JUMP JUMPDEST POP POP POP PUSH3 0x5BB JUMP JUMPDEST CALLER SWAP1 JUMP JUMPDEST PUSH1 0x0 DUP1 SLOAD PUSH1 0x1 PUSH1 0x1 PUSH1 0xA0 SHL SUB DUP4 DUP2 AND PUSH1 0x1 PUSH1 0x1 PUSH1 0xA0 SHL SUB NOT DUP4 AND DUP2 OR DUP5 SSTORE PUSH1 0x40 MLOAD SWAP2 SWAP1 SWAP3 AND SWAP3 DUP4 SWAP2 PUSH32 0x8BE0079C531659141344CD1FD0A4F28419497F9722A3DAAFE3B4186F6B6457E0 SWAP2 SWAP1 LOG3 POP POP JUMP JUMPDEST DUP3 DUP1 SLOAD PUSH3 0x4E6 SWAP1 PUSH3 0x57E JUMP JUMPDEST SWAP1 PUSH1 0x0 MSTORE PUSH1 0x20 PUSH1 0x0 KECCAK256 SWAP1 PUSH1 0x1F ADD PUSH1 0x20 SWAP1 DIV DUP2 ADD SWAP3 DUP3 PUSH3 0x50A JUMPI PUSH1 0x0 DUP6 SSTORE PUSH3 0x555 JUMP JUMPDEST DUP3 PUSH1 0x1F LT PUSH3 0x525 JUMPI DUP1 MLOAD PUSH1 0xFF NOT AND DUP4 DUP1 ADD OR DUP6 SSTORE PUSH3 0x555 JUMP JUMPDEST DUP3 DUP1 ADD PUSH1 0x1 ADD DUP6 SSTORE DUP3 ISZERO PUSH3 0x555 JUMPI SWAP2 DUP3 ADD JUMPDEST DUP3 DUP2 GT ISZERO PUSH3 0x555 JUMPI DUP3 MLOAD DUP3 SSTORE SWAP2 PUSH1 0x20 ADD SWAP2 SWAP1 PUSH1 0x1 ADD SWAP1 PUSH3 0x538 JUMP JUMPDEST POP PUSH3 0x563 SWAP3 SWAP2 POP PUSH3 0x567 JUMP JUMPDEST POP SWAP1 JUMP JUMPDEST JUMPDEST DUP1 DUP3 GT ISZERO PUSH3 0x563 JUMPI PUSH1 0x0 DUP2 SSTORE PUSH1 0x1 ADD PUSH3 0x568 JUMP JUMPDEST PUSH1 0x2 DUP2 DIV PUSH1 0x1 DUP3 AND DUP1 PUSH3 0x593 JUMPI PUSH1 0x7F DUP3 AND SWAP2 POP JUMPDEST PUSH1 0x20 DUP3 LT DUP2 EQ ISZERO PUSH3 0x5B5 JUMPI PUSH4 0x4E487B71 PUSH1 0xE0 SHL PUSH1 0x0 MSTORE PUSH1 0x22 PUSH1 0x4 MSTORE PUSH1 0x24 PUSH1 0x0 REVERT JUMPDEST POP SWAP2 SWAP1 POP JUMP JUMPDEST PUSH2 0x862 DUP1 PUSH3 0x5CB PUSH1 0x0 CODECOPY PUSH1 0x0 RETURN INVALID PUSH1 0x80 PUSH1 0x40 MSTORE CALLVALUE DUP1 ISZERO PUSH2 0x10 JUMPI PUSH1 0x0 DUP1 REVERT JUMPDEST POP PUSH1 0x4 CALLDATASIZE LT PUSH2 0x6D JUMPI PUSH1 0x0 CALLDATALOAD PUSH1 0xE0 SHR DUP1 PUSH4 0x5B6BEEB9 EQ PUSH2 0x72 JUMPI DUP1 PUSH4 0x693EC85E EQ PUSH2 0x9B JUMPI DUP1 PUSH4 0x715018A6 EQ PUSH2 0xBB JUMPI DUP1 PUSH4 0x773F44B9 EQ PUSH2 0xC5 JUMPI DUP1 PUSH4 0x8DA5CB5B EQ PUSH2 0xE5 JUMPI DUP1 PUSH4 0xE7EF321C EQ PUSH2 0xFA JUMPI DUP1 PUSH4 0xF2FDE38B EQ PUSH2 0x10D JUMPI JUMPDEST PUSH1 0x0 DUP1 REVERT JUMPDEST PUSH2 0x85 PUSH2 0x80 CALLDATASIZE PUSH1 0x4 PUSH2 0x62F JUMP JUMPDEST PUSH2 0x120 JUMP JUMPDEST PUSH1 0x40 MLOAD PUSH2 0x92 SWAP2 SWAP1 PUSH2 0x71A JUMP JUMPDEST PUSH1 0x40 MLOAD DUP1 SWAP2 SUB SWAP1 RETURN JUMPDEST PUSH2 0xAE PUSH2 0xA9 CALLDATASIZE PUSH1 0x4 PUSH2 0x62F JUMP JUMPDEST PUSH2 0x153 JUMP JUMPDEST PUSH1 0x40 MLOAD PUSH2 0x92 SWAP2 SWAP1 PUSH2 0x723 JUMP JUMPDEST PUSH2 0xC3 PUSH2 0x227 JUMP JUMPDEST STOP JUMPDEST PUSH2 0xD8 PUSH2 0xD3 CALLDATASIZE PUSH1 0x4 PUSH2 0x66E JUMP JUMPDEST PUSH2 0x27B JUMP JUMPDEST PUSH1 0x40 MLOAD PUSH2 0x92 SWAP2 SWAP1 PUSH2 0x70F JUMP JUMPDEST PUSH2 0xED PUSH2 0x345 JUMP JUMPDEST PUSH1 0x40 MLOAD PUSH2 0x92 SWAP2 SWAP1 PUSH2 0x6FB JUMP JUMPDEST PUSH2 0xD8 PUSH2 0x108 CALLDATASIZE PUSH1 0x4 PUSH2 0x5D4 JUMP JUMPDEST PUSH2 0x354 JUMP JUMPDEST PUSH2 0xC3 PUSH2 0x11B CALLDATASIZE PUSH1 0x4 PUSH2 0x5A6 JUMP JUMPDEST PUSH2 0x3ED JUMP JUMPDEST PUSH1 0x0 DUP3 DUP3 PUSH1 0x40 MLOAD PUSH1 0x20 ADD PUSH2 0x135 SWAP3 SWAP2 SWAP1 PUSH2 0x6EB JUMP JUMPDEST PUSH1 0x40 MLOAD PUSH1 0x20 DUP2 DUP4 SUB SUB DUP2 MSTORE SWAP1 PUSH1 0x40 MSTORE DUP1 MLOAD SWAP1 PUSH1 0x20 ADD KECCAK256 SWAP1 POP SWAP3 SWAP2 POP POP JUMP JUMPDEST PUSH1 0x60 PUSH1 0x0 DUP4 DUP4 PUSH1 0x40 MLOAD PUSH1 0x20 ADD PUSH2 0x16A SWAP3 SWAP2 SWAP1 PUSH2 0x6EB JUMP JUMPDEST PUSH1 0x40 MLOAD PUSH1 0x20 DUP2 DUP4 SUB SUB DUP2 MSTORE SWAP1 PUSH1 0x40 MSTORE DUP1 MLOAD SWAP1 PUSH1 0x20 ADD KECCAK256 SWAP1 POP PUSH1 0x1 PUSH1 0x0 DUP3 DUP2 MSTORE PUSH1 0x20 ADD SWAP1 DUP2 MSTORE PUSH1 0x20 ADD PUSH1 0x0 KECCAK256 DUP1 SLOAD PUSH2 0x1A0 SWAP1 PUSH2 0x7F1 JUMP JUMPDEST DUP1 PUSH1 0x1F ADD PUSH1 0x20 DUP1 SWAP2 DIV MUL PUSH1 0x20 ADD PUSH1 0x40 MLOAD SWAP1 DUP2 ADD PUSH1 0x40 MSTORE DUP1 SWAP3 SWAP2 SWAP1 DUP2 DUP2 MSTORE PUSH1 0x20 ADD DUP3 DUP1 SLOAD PUSH2 0x1CC SWAP1 PUSH2 0x7F1 JUMP JUMPDEST DUP1 ISZERO PUSH2 0x219 JUMPI DUP1 PUSH1 0x1F LT PUSH2 0x1EE JUMPI PUSH2 0x100 DUP1 DUP4 SLOAD DIV MUL DUP4 MSTORE SWAP2 PUSH1 0x20 ADD SWAP2 PUSH2 0x219 JUMP JUMPDEST DUP3 ADD SWAP2 SWAP1 PUSH1 0x0 MSTORE PUSH1 0x20 PUSH1 0x0 KECCAK256 SWAP1 JUMPDEST DUP2 SLOAD DUP2 MSTORE SWAP1 PUSH1 0x1 ADD SWAP1 PUSH1 0x20 ADD DUP1 DUP4 GT PUSH2 0x1FC JUMPI DUP3 SWAP1 SUB PUSH1 0x1F AND DUP3 ADD SWAP2 JUMPDEST POP POP POP POP POP SWAP2 POP POP SWAP3 SWAP2 POP POP JUMP JUMPDEST PUSH2 0x22F PUSH2 0x45E JUMP JUMPDEST PUSH1 0x1 PUSH1 0x1 PUSH1 0xA0 SHL SUB AND PUSH2 0x240 PUSH2 0x345 JUMP JUMPDEST PUSH1 0x1 PUSH1 0x1 PUSH1 0xA0 SHL SUB AND EQ PUSH2 0x26F JUMPI PUSH1 0x40 MLOAD PUSH3 0x461BCD PUSH1 0xE5 SHL DUP2 MSTORE PUSH1 0x4 ADD PUSH2 0x266 SWAP1 PUSH2 0x7BC JUMP JUMPDEST PUSH1 0x40 MLOAD DUP1 SWAP2 SUB SWAP1 REVERT JUMPDEST PUSH2 0x279 PUSH1 0x0 PUSH2 0x462 JUMP JUMPDEST JUMP JUMPDEST PUSH1 0x0 PUSH2 0x285 PUSH2 0x45E JUMP JUMPDEST PUSH1 0x1 PUSH1 0x1 PUSH1 0xA0 SHL SUB AND PUSH2 0x296 PUSH2 0x345 JUMP JUMPDEST PUSH1 0x1 PUSH1 0x1 PUSH1 0xA0 SHL SUB AND EQ PUSH2 0x2BC JUMPI PUSH1 0x40 MLOAD PUSH3 0x461BCD PUSH1 0xE5 SHL DUP2 MSTORE PUSH1 0x4 ADD PUSH2 0x266 SWAP1 PUSH2 0x7BC JUMP JUMPDEST PUSH1 0x0 DUP7 DUP7 PUSH1 0x40 MLOAD PUSH1 0x20 ADD PUSH2 0x2D1 SWAP3 SWAP2 SWAP1 PUSH2 0x6EB JUMP JUMPDEST PUSH1 0x40 MLOAD PUSH1 0x20 DUP2 DUP4 SUB SUB DUP2 MSTORE SWAP1 PUSH1 0x40 MSTORE DUP1 MLOAD SWAP1 PUSH1 0x20 ADD KECCAK256 SWAP1 POP DUP3 DUP1 PUSH2 0x30D JUMPI POP PUSH1 0x0 DUP2 DUP2 MSTORE PUSH1 0x1 PUSH1 0x20 MSTORE PUSH1 0x40 SWAP1 KECCAK256 DUP1 SLOAD PUSH2 0x309 SWAP1 PUSH2 0x7F1 JUMP JUMPDEST ISZERO SWAP1 POP JUMPDEST ISZERO PUSH2 0x336 JUMPI PUSH1 0x0 DUP2 DUP2 MSTORE PUSH1 0x1 PUSH1 0x20 MSTORE PUSH1 0x40 SWAP1 KECCAK256 PUSH2 0x32B SWAP1 DUP7 DUP7 PUSH2 0x4B2 JUMP JUMPDEST POP PUSH1 0x1 SWAP2 POP POP PUSH2 0x33C JUMP JUMPDEST PUSH1 0x0 SWAP2 POP POP JUMPDEST SWAP6 SWAP5 POP POP POP POP POP JUMP JUMPDEST PUSH1 0x0 SLOAD PUSH1 0x1 PUSH1 0x1 PUSH1 0xA0 SHL SUB AND SWAP1 JUMP JUMPDEST PUSH1 0x0 PUSH2 0x35E PUSH2 0x45E JUMP JUMPDEST PUSH1 0x1 PUSH1 0x1 PUSH1 0xA0 SHL SUB AND PUSH2 0x36F PUSH2 0x345 JUMP JUMPDEST PUSH1 0x1 PUSH1 0x1 PUSH1 0xA0 SHL SUB AND EQ PUSH2 0x395 JUMPI PUSH1 0x40 MLOAD PUSH3 0x461BCD PUSH1 0xE5 SHL DUP2 MSTORE PUSH1 0x4 ADD PUSH2 0x266 SWAP1 PUSH2 0x7BC JUMP JUMPDEST DUP2 DUP1 PUSH2 0x3B9 JUMPI POP PUSH1 0x0 DUP6 DUP2 MSTORE PUSH1 0x1 PUSH1 0x20 MSTORE PUSH1 0x40 SWAP1 KECCAK256 DUP1 SLOAD PUSH2 0x3B5 SWAP1 PUSH2 0x7F1 JUMP JUMPDEST ISZERO SWAP1 POP JUMPDEST ISZERO PUSH2 0x3E1 JUMPI PUSH1 0x0 DUP6 DUP2 MSTORE PUSH1 0x1 PUSH1 0x20 MSTORE PUSH1 0x40 SWAP1 KECCAK256 PUSH2 0x3D7 SWAP1 DUP6 DUP6 PUSH2 0x4B2 JUMP JUMPDEST POP PUSH1 0x1 SWAP1 POP PUSH2 0x3E5 JUMP JUMPDEST POP PUSH1 0x0 JUMPDEST SWAP5 SWAP4 POP POP POP POP JUMP JUMPDEST PUSH2 0x3F5 PUSH2 0x45E JUMP JUMPDEST PUSH1 0x1 PUSH1 0x1 PUSH1 0xA0 SHL SUB AND PUSH2 0x406 PUSH2 0x345 JUMP JUMPDEST PUSH1 0x1 PUSH1 0x1 PUSH1 0xA0 SHL SUB AND EQ PUSH2 0x42C JUMPI PUSH1 0x40 MLOAD PUSH3 0x461BCD PUSH1 0xE5 SHL DUP2 MSTORE PUSH1 0x4 ADD PUSH2 0x266 SWAP1 PUSH2 0x7BC JUMP JUMPDEST PUSH1 0x1 PUSH1 0x1 PUSH1 0xA0 SHL SUB DUP2 AND PUSH2 0x452 JUMPI PUSH1 0x40 MLOAD PUSH3 0x461BCD PUSH1 0xE5 SHL DUP2 MSTORE PUSH1 0x4 ADD PUSH2 0x266 SWAP1 PUSH2 0x776 JUMP JUMPDEST PUSH2 0x45B DUP2 PUSH2 0x462 JUMP JUMPDEST POP JUMP JUMPDEST CALLER SWAP1 JUMP JUMPDEST PUSH1 0x0 DUP1 SLOAD PUSH1 0x1 PUSH1 0x1 PUSH1 0xA0 SHL SUB DUP4 DUP2 AND PUSH1 0x1 PUSH1 0x1 PUSH1 0xA0 SHL SUB NOT DUP4 AND DUP2 OR DUP5 SSTORE PUSH1 0x40 MLOAD SWAP2 SWAP1 SWAP3 AND SWAP3 DUP4 SWAP2 PUSH32 0x8BE0079C531659141344CD1FD0A4F28419497F9722A3DAAFE3B4186F6B6457E0 SWAP2 SWAP1 LOG3 POP POP JUMP JUMPDEST DUP3 DUP1 SLOAD PUSH2 0x4BE SWAP1 PUSH2 0x7F1 JUMP JUMPDEST SWAP1 PUSH1 0x0 MSTORE PUSH1 0x20 PUSH1 0x0 KECCAK256 SWAP1 PUSH1 0x1F ADD PUSH1 0x20 SWAP1 DIV DUP2 ADD SWAP3 DUP3 PUSH2 0x4E0 JUMPI PUSH1 0x0 DUP6 SSTORE PUSH2 0x526 JUMP JUMPDEST DUP3 PUSH1 0x1F LT PUSH2 0x4F9 JUMPI DUP3 DUP1 ADD PUSH1 0xFF NOT DUP3 CALLDATALOAD AND OR DUP6 SSTORE PUSH2 0x526 JUMP JUMPDEST DUP3 DUP1 ADD PUSH1 0x1 ADD DUP6 SSTORE DUP3 ISZERO PUSH2 0x526 JUMPI SWAP2 DUP3 ADD JUMPDEST DUP3 DUP2 GT ISZERO PUSH2 0x526 JUMPI DUP3 CALLDATALOAD DUP3 SSTORE SWAP2 PUSH1 0x20 ADD SWAP2 SWAP1 PUSH1 0x1 ADD SWAP1 PUSH2 0x50B JUMP JUMPDEST POP PUSH2 0x532 SWAP3 SWAP2 POP PUSH2 0x536 JUMP JUMPDEST POP SWAP1 JUMP JUMPDEST JUMPDEST DUP1 DUP3 GT ISZERO PUSH2 0x532 JUMPI PUSH1 0x0 DUP2 SSTORE PUSH1 0x1 ADD PUSH2 0x537 JUMP JUMPDEST DUP1 CALLDATALOAD DUP1 ISZERO ISZERO DUP2 EQ PUSH2 0x55B JUMPI PUSH1 0x0 DUP1 REVERT JUMPDEST SWAP2 SWAP1 POP JUMP JUMPDEST PUSH1 0x0 DUP1 DUP4 PUSH1 0x1F DUP5 ADD SLT PUSH2 0x571 JUMPI DUP2 DUP3 REVERT JUMPDEST POP DUP2 CALLDATALOAD PUSH1 0x1 PUSH1 0x1 PUSH1 0x40 SHL SUB DUP2 GT ISZERO PUSH2 0x587 JUMPI DUP2 DUP3 REVERT JUMPDEST PUSH1 0x20 DUP4 ADD SWAP2 POP DUP4 PUSH1 0x20 DUP3 DUP6 ADD ADD GT ISZERO PUSH2 0x59F JUMPI PUSH1 0x0 DUP1 REVERT JUMPDEST SWAP3 POP SWAP3 SWAP1 POP JUMP JUMPDEST PUSH1 0x0 PUSH1 0x20 DUP3 DUP5 SUB SLT ISZERO PUSH2 0x5B7 JUMPI DUP1 DUP2 REVERT JUMPDEST DUP2 CALLDATALOAD PUSH1 0x1 PUSH1 0x1 PUSH1 0xA0 SHL SUB DUP2 AND DUP2 EQ PUSH2 0x5CD JUMPI DUP2 DUP3 REVERT JUMPDEST SWAP4 SWAP3 POP POP POP JUMP JUMPDEST PUSH1 0x0 DUP1 PUSH1 0x0 DUP1 PUSH1 0x60 DUP6 DUP8 SUB SLT ISZERO PUSH2 0x5E9 JUMPI DUP3 DUP4 REVERT JUMPDEST DUP5 CALLDATALOAD SWAP4 POP PUSH1 0x20 DUP6 ADD CALLDATALOAD PUSH1 0x1 PUSH1 0x1 PUSH1 0x40 SHL SUB DUP2 GT ISZERO PUSH2 0x605 JUMPI DUP4 DUP5 REVERT JUMPDEST PUSH2 0x611 DUP8 DUP3 DUP9 ADD PUSH2 0x560 JUMP JUMPDEST SWAP1 SWAP5 POP SWAP3 POP PUSH2 0x624 SWAP1 POP PUSH1 0x40 DUP7 ADD PUSH2 0x54B JUMP JUMPDEST SWAP1 POP SWAP3 SWAP6 SWAP2 SWAP5 POP SWAP3 POP JUMP JUMPDEST PUSH1 0x0 DUP1 PUSH1 0x20 DUP4 DUP6 SUB SLT ISZERO PUSH2 0x641 JUMPI DUP2 DUP3 REVERT JUMPDEST DUP3 CALLDATALOAD PUSH1 0x1 PUSH1 0x1 PUSH1 0x40 SHL SUB DUP2 GT ISZERO PUSH2 0x656 JUMPI DUP3 DUP4 REVERT JUMPDEST PUSH2 0x662 DUP6 DUP3 DUP7 ADD PUSH2 0x560 JUMP JUMPDEST SWAP1 SWAP7 SWAP1 SWAP6 POP SWAP4 POP POP POP POP JUMP JUMPDEST PUSH1 0x0 DUP1 PUSH1 0x0 DUP1 PUSH1 0x0 PUSH1 0x60 DUP7 DUP9 SUB SLT ISZERO PUSH2 0x685 JUMPI DUP1 DUP2 REVERT JUMPDEST DUP6 CALLDATALOAD PUSH1 0x1 PUSH1 0x1 PUSH1 0x40 SHL SUB DUP1 DUP3 GT ISZERO PUSH2 0x69B JUMPI DUP3 DUP4 REVERT JUMPDEST PUSH2 0x6A7 DUP10 DUP4 DUP11 ADD PUSH2 0x560 JUMP JUMPDEST SWAP1 SWAP8 POP SWAP6 POP PUSH1 0x20 DUP9 ADD CALLDATALOAD SWAP2 POP DUP1 DUP3 GT ISZERO PUSH2 0x6BF JUMPI DUP3 DUP4 REVERT JUMPDEST POP PUSH2 0x6CC DUP9 DUP3 DUP10 ADD PUSH2 0x560 JUMP JUMPDEST SWAP1 SWAP5 POP SWAP3 POP PUSH2 0x6DF SWAP1 POP PUSH1 0x40 DUP8 ADD PUSH2 0x54B JUMP JUMPDEST SWAP1 POP SWAP3 SWAP6 POP SWAP3 SWAP6 SWAP1 SWAP4 POP JUMP JUMPDEST PUSH1 0x0 DUP3 DUP5 DUP4 CALLDATACOPY SWAP2 ADD SWAP1 DUP2 MSTORE SWAP2 SWAP1 POP JUMP JUMPDEST PUSH1 0x1 PUSH1 0x1 PUSH1 0xA0 SHL SUB SWAP2 SWAP1 SWAP2 AND DUP2 MSTORE PUSH1 0x20 ADD SWAP1 JUMP JUMPDEST SWAP1 ISZERO ISZERO DUP2 MSTORE PUSH1 0x20 ADD SWAP1 JUMP JUMPDEST SWAP1 DUP2 MSTORE PUSH1 0x20 ADD SWAP1 JUMP JUMPDEST PUSH1 0x0 PUSH1 0x20 DUP1 DUP4 MSTORE DUP4 MLOAD DUP1 DUP3 DUP6 ADD MSTORE DUP3 JUMPDEST DUP2 DUP2 LT ISZERO PUSH2 0x74F JUMPI DUP6 DUP2 ADD DUP4 ADD MLOAD DUP6 DUP3 ADD PUSH1 0x40 ADD MSTORE DUP3 ADD PUSH2 0x733 JUMP JUMPDEST DUP2 DUP2 GT ISZERO PUSH2 0x760 JUMPI DUP4 PUSH1 0x40 DUP4 DUP8 ADD ADD MSTORE JUMPDEST POP PUSH1 0x1F ADD PUSH1 0x1F NOT AND SWAP3 SWAP1 SWAP3 ADD PUSH1 0x40 ADD SWAP4 SWAP3 POP POP POP JUMP JUMPDEST PUSH1 0x20 DUP1 DUP3 MSTORE PUSH1 0x26 SWAP1 DUP3 ADD MSTORE PUSH32 0x4F776E61626C653A206E6577206F776E657220697320746865207A65726F2061 PUSH1 0x40 DUP3 ADD MSTORE PUSH6 0x646472657373 PUSH1 0xD0 SHL PUSH1 0x60 DUP3 ADD MSTORE PUSH1 0x80 ADD SWAP1 JUMP JUMPDEST PUSH1 0x20 DUP1 DUP3 MSTORE DUP2 DUP2 ADD MSTORE PUSH32 0x4F776E61626C653A2063616C6C6572206973206E6F7420746865206F776E6572 PUSH1 0x40 DUP3 ADD MSTORE PUSH1 0x60 ADD SWAP1 JUMP JUMPDEST PUSH1 0x2 DUP2 DIV PUSH1 0x1 DUP3 AND DUP1 PUSH2 0x805 JUMPI PUSH1 0x7F DUP3 AND SWAP2 POP JUMPDEST PUSH1 0x20 DUP3 LT DUP2 EQ ISZERO PUSH2 0x826 JUMPI PUSH4 0x4E487B71 PUSH1 0xE0 SHL PUSH1 0x0 MSTORE PUSH1 0x22 PUSH1 0x4 MSTORE PUSH1 0x24 PUSH1 0x0 REVERT JUMPDEST POP SWAP2 SWAP1 POP JUMP INVALID LOG2 PUSH5 0x6970667358 0x22 SLT KECCAK256 0x26 DUP3 GASPRICE 0xE2 0xF6 MULMOD 0xC7 CREATE2 0xDA 0x2C 0xC4 0xAE DUP15 0xBC DUP6 0xAA PUSH5 0x5A1B0FDE0F XOR SLOAD PUSH29 0x196A17C3520EE364736F6C63430008000033516D4E5534613473793531 POP 0x48 CODECOPY JUMPI PUSH15 0x7452517356766D64564671376A6877 COINBASE PUSH15 0x4773594C32774B705346434354516D PUSH4 0x32747738 GAS PUSH24 0x45524D526D794755316379775044734D4C6B51766B4E4577 MSTORE PUSH22 0x454355486E5575634C6E68516D5964564C656E4A4563 CALLVALUE CODESIZE PUSH2 0x7436 MSIZE CALLDATACOPY PUSH27 0x59627738634C4C4C5064646A477074657A7A62446B636374645876 MLOAD PUSH14 0x66557A527471564C397471473131 DIFFICULTY PUSH17 0x624A56424E6F4B6A78514D795675717632 PUSH22 0x763270696E7A75635436516D625A7A5663437766684B CALLVALUE PUSH11 0x5971555752377959466954 ORIGIN MSIZE PUSH4 0x52513637 PUSH26 0x58486F5874376A65665A6A7246516D514B364D3770756D365732 GAS MSTORE 0x4C PUSH5 0x68677A4577 CALLDATACOPY PUSH23 0x483847594D6D7677523361583368466B4D585772757351 PUSH14 0x5059387A5536787A77766A6F6D7A 0x4E CALLDATALOAD COINBASE PUSH12 0x56665461357A5A7032526B58 PUSH8 0x32654D3334765045 NUMBER PUSH18 0x6F7459516D51346F634836504E6735415769 PUSH16 0x4462574A5179766F5A57683856736443 PUSH11 0x4B314B437975466A4D5455 PUSH5 0x63516D6278 PUSH26 0x36594D6431484E446F4B44644754414B59645642755547556B41 BALANCE CALLDATACOPY PUSH2 0x5156 MSIZE PUSH5 0x74484A7636 PUSH7 0x7A640000000000 "
		},
		"gasEstimates": {
			"creation": {
				"codeDepositCost": "429200",
				"executionCost": "infinite",
				"totalCost": "infinite"
			},
			"external": {
				"add(string,string,bool)": "infinite",
				"addByHash(bytes32,string,bool)": "infinite",
				"get(string)": "infinite",
				"getHash(string)": "infinite",
				"owner()": "1136",
				"renounceOwnership()": "23526",
				"transferOwnership(address)": "23774"
			}
		},
		"methodIdentifiers": {
			"add(string,string,bool)": "773f44b9",
			"addByHash(bytes32,string,bool)": "e7ef321c",
			"get(string)": "693ec85e",
			"getHash(string)": "5b6beeb9",
			"owner()": "8da5cb5b",
			"renounceOwnership()": "715018a6",
			"transferOwnership(address)": "f2fde38b"
		}
	},
	"abi": [
		{
			"inputs": [],
			"stateMutability": "nonpayable",
			"type": "constructor"
		},
		{
			"anonymous": false,
			"inputs": [
				{
					"indexed": true,
					"internalType": "string",
					"name": "account",
					"type": "string"
				}
			],
			"name": "ConfigUpdated",
			"type": "event"
		},
		{
			"anonymous": false,
			"inputs": [
				{
					"indexed": true,
					"internalType": "address",
					"name": "previousOwner",
					"type": "address"
				},
				{
					"indexed": true,
					"internalType": "address",
					"name": "newOwner",
					"type": "address"
				}
			],
			"name": "OwnershipTransferred",
			"type": "event"
		},
		{
			"inputs": [
				{
					"internalType": "string",
					"name": "key",
					"type": "string"
				},
				{
					"internalType": "string",
					"name": "value",
					"type": "string"
				},
				{
					"internalType": "bool",
					"name": "overwrite",
					"type": "bool"
				}
			],
			"name": "add",
			"outputs": [
				{
					"internalType": "bool",
					"name": "",
					"type": "bool"
				}
			],
			"stateMutability": "nonpayable",
			"type": "function"
		},
		{
			"inputs": [
				{
					"internalType": "bytes32",
					"name": "hash",
					"type": "bytes32"
				},
				{
					"internalType": "string",
					"name": "value",
					"type": "string"
				},
				{
					"internalType": "bool",
					"name": "overwrite",
					"type": "bool"
				}
			],
			"name": "addByHash",
			"outputs": [
				{
					"internalType": "bool",
					"name": "",
					"type": "bool"
				}
			],
			"stateMutability": "nonpayable",
			"type": "function"
		},
		{
			"inputs": [
				{
					"internalType": "string",
					"name": "key",
					"type": "string"
				}
			],
			"name": "get",
			"outputs": [
				{
					"internalType": "string",
					"name": "",
					"type": "string"
				}
			],
			"stateMutability": "view",
			"type": "function"
		},
		{
			"inputs": [
				{
					"internalType": "string",
					"name": "key",
					"type": "string"
				}
			],
			"name": "getHash",
			"outputs": [
				{
					"internalType": "bytes32",
					"name": "",
					"type": "bytes32"
				}
			],
			"stateMutability": "pure",
			"type": "function"
		},
		{
			"inputs": [],
			"name": "owner",
			"outputs": [
				{
					"internalType": "address",
					"name": "",
					"type": "address"
				}
			],
			"stateMutability": "view",
			"type": "function"
		},
		{
			"inputs": [],
			"name": "renounceOwnership",
			"outputs": [],
			"stateMutability": "nonpayable",
			"type": "function"
		},
		{
			"inputs": [
				{
					"internalType": "address",
					"name": "newOwner",
					"type": "address"
				}
			],
			"name": "transferOwnership",
			"outputs": [],
			"stateMutability": "nonpayable",
			"type": "function"
		}
	]
}