{
	"data": {
		"bytecode": {
			"linkReferences": {
				"worksystems/DataSpotting.sol": {
					"AttributeStore": [
						{
							"length": 20,
							"start": 10843
						},
						{
							"length": 20,
							"start": 12560
						},
						{
							"length": 20,
							"start": 12666
						},
						{
							"length": 20,
							"start": 12774
						},
						{
							"length": 20,
							"start": 16564
						},
						{
							"length": 20,
							"start": 20980
						}
					],
					"DLL": [
						{
							"length": 20,
							"start": 6454
						},
						{
							"length": 20,
							"start": 6626
						},
						{
							"length": 20,
							"start": 7188
						},
						{
							"length": 20,
							"start": 12080
						},
						{
							"length": 20,
							"start": 12242
						},
						{
							"length": 20,
							"start": 12437
						},
						{
							"length": 20,
							"start": 14594
						},
						{
							"length": 20,
							"start": 14774
						},
						{
							"length": 20,
							"start": 15760
						}
					]
				}
			},
			"object": "608060405260006001818155601d829055601e829055601f8190556020819055602181905560225560238190556024819055602581905560268190556027556029805460ff60a01b1916600160a01b1790553480156200005e57600080fd5b506040516200b7263803806200b726833981016040819052620000819162000123565b620000956200008f620000cf565b620000d3565b6001600160a01b038116620000a957600080fd5b602880546001600160a01b0319166001600160a01b039290921691909117905562000153565b3390565b600080546001600160a01b038381166001600160a01b0319831681178455604051919092169283917f8be0079c531659141344cd1fd0a4f28419497f9722a3daafe3b4186f6b6457e09190a35050565b60006020828403121562000135578081fd5b81516001600160a01b03811681146200014c578182fd5b9392505050565b61b5c380620001636000396000f3fe608060405234801561001057600080fd5b50600436106106e05760003560e01c80638c89d02711610387578063d420ec0b116101de578063ed8becfa1161010f578063f721de4a116100ad578063fc0c546a11610087578063fc0c546a14610e42578063fca4956314610e4a578063fd41488114610e5d578063ff43de9d14610e70576106e0565b8063f721de4a14610e1f578063f80a23fd14610e32578063f96305f014610e3a576106e0565b8063f2fde38b116100e9578063f2fde38b14610de9578063f4cdfcc414610dfc578063f5ae7c7d14610e0f578063f716596d14610e17576106e0565b8063ed8becfa14610dc6578063ef4fcdad14610dd9578063f2d9e74d14610de1576106e0565b8063d9845fb81161017c578063e604c12711610156578063e604c12714610d85578063e798a7da14610d98578063e7b1d43c14610dab578063eb1322ff14610dbe576106e0565b8063d9845fb814610d4a578063da14563a14610d6a578063e44c974b14610d72576106e0565b8063d817587e116101b8578063d817587e14610cfe578063d822ce0114610d11578063d8b7567414610d24578063d9548e5314610d37576106e0565b8063d420ec0b14610cdb578063d58f575c14610cee578063d6b0206c14610cf6576106e0565b8063aa7ca464116102b8578063b43bd06911610256578063c4e4f82a11610230578063c4e4f82a14610c9a578063d0d41def14610cad578063d138209214610cb5578063d186981d14610cc8576106e0565b8063b43bd06914610c61578063b8f011b314610c74578063bc3002e614610c87576106e0565b8063b10aa58411610292578063b10aa58414610c15578063b1a2e0be14610c28578063b1cf4a7e14610c3b578063b1d7ea9814610c4e576106e0565b8063aa7ca46414610be7578063aacc5a1714610bfa578063b0bc471e14610c02576106e0565b8063a1103f3711610325578063a4439dc5116102ff578063a4439dc514610ba6578063a511dba014610bb9578063a905779014610bc1578063a98eb31e14610bd4576106e0565b8063a1103f3714610b83578063a1b6b5b714610b96578063a350715a14610b9e576106e0565b806397603560116103615780639760356014610b425780639769d84614610b555780639d6e3f9614610b5d5780639fc9c52f14610b70576106e0565b80638c89d02714610afe5780638da5cb5b14610b275780638df0296e14610b2f576106e0565b8063576a55431161053b578063763a39f21161046c578063815ce7471161040a57806383e5a8f6116103e457806383e5a8f614610abd5780638473850b14610ad05780638746ff8a14610ad857806388d072eb14610aeb576106e0565b8063815ce74714610a8f578063819b029314610a97578063821aa8c014610aaa576106e0565b80637ad3be11116104465780637ad3be1114610a345780637f9510a214610a475780637f97e83614610a4f5780637fabe35b14610a62576106e0565b8063763a39f214610a0657806377124dec14610a0e5780637860dd4114610a21576106e0565b80636371d81f116104d95780637018e9c6116104b35780637018e9c6146109c55780637074222b146109d8578063715018a6146109eb57806371880b1b146109f3576106e0565b80636371d81f1461098c57806363b563a81461099f5780636b2d95d4146109b2576106e0565b80635b113a55116105155780635b113a551461094b5780635dc44cf11461095e5780635df6055d14610971578063607d5efa14610984576106e0565b8063576a554314610905578063579db71c146109185780635a4529431461092b576106e0565b806331e2f28511610615578063441c77c0116105b3578063494031831161058d57806349403183146108cf5780634fe8b4c1146108e2578063515535e8146108f557806353bf27f1146108fd576106e0565b8063441c77c0146108ac57806347fe2d20146108bf5780634852e2f0146108c7576106e0565b806339e7357c116105ef57806339e7357c1461085d5780633c062cc814610865578063413b90f714610886578063427fa1d214610899576106e0565b806331e2f285146108225780633538af821461083557806336fc43fc14610855576106e0565b8063154fd39b11610682578063275c25901161065c578063275c2590146107d45780632c052031146107dc5780632d917c68146107ef5780632f469fd114610802576106e0565b8063154fd39b1461078c57806319d9034614610794578063226ed300146107b4576106e0565b8063092a5cce116106be578063092a5cce146107435780630b96c5b01461074b5780630e6661a714610771578063100372f514610779576106e0565b806301a48b98146106e557806301aa5f731461070e578063059576231461072e575b600080fd5b6106f86106f3366004619c6d565b610e78565b6040516107059190619fb0565b60405180910390f35b61072161071c366004619c6d565b611015565b6040516107059190619eb5565b61074161073c36600461999e565b611072565b005b61074161109c565b61075e610759366004619c6d565b6110b7565b604051610705979695949392919061a006565b61072161129b565b610741610787366004619c6d565b6112a1565b6107216112ae565b6107a76107a2366004619c6d565b6112b4565b6040516107059190619f50565b6107c76107c2366004619c6d565b6115cf565b6040516107059190619fe8565b610741611611565b6107216107ea366004619a01565b61176d565b6107c76107fd3660046199d6565b61190a565b610815610810366004619c96565b61192a565b6040516107059190619ff3565b61072161083036600461999e565b6119cf565b610848610843366004619c6d565b6119e1565b6040516107059190619ee8565b6107c7611a0b565b610721611a1b565b610878610873366004619c6d565b611a38565b604051610705929190619eda565b6108786108943660046199d6565b611a5a565b6107216108a736600461999e565b611a8a565b6107c76108ba366004619c6d565b611b2a565b610721611b84565b610721611b8a565b6107c76108dd366004619c6d565b611b90565b6107416108f0366004619c6d565b611ddc565b610721611e4a565b610721611e50565b61074161091336600461999e565b611e56565b6106f861092636600461999e565b61201d565b61093e610939366004619c6d565b612089565b604051610705919061b20b565b610721610959366004619c96565b6122de565b61072161096c3660046199d6565b6122fb565b6107a761097f366004619c6d565b61232c565b610741612549565b61074161099a366004619c6d565b612702565b6107c76109ad366004619c6d565b61277e565b6107216109c036600461999e565b6127d1565b6107c76109d3366004619c6d565b6127e0565b6107216109e636600461999e565b612821565b61074161283c565b610721610a01366004619c6d565b612850565b61072161288d565b610741610a1c366004619c6d565b612893565b610721610a2f366004619c6d565b6128a0565b610721610a423660046199d6565b6128f4565b610721612989565b6107c7610a5d3660046199d6565b6129a0565b610a75610a70366004619c6d565b6129f3565b6040516107059e9d9c9b9a9998979695949392919061b2f2565b610721612af3565b6107c7610aa5366004619d8e565b612b4f565b610848610ab8366004619c6d565b612b90565b610741610acb366004619cc5565b612ba0565b6107216131fd565b610848610ae63660046199d6565b613203565b610815610af9366004619c96565b61365f565b610b11610b0c36600461999e565b613683565b6040516107059a99989796959493929190619efc565b6108486136e6565b610848610b3d366004619d6d565b6136f5565b610741610b50366004619c6d565b61372d565b6107216138dc565b610721610b6b36600461999e565b6138e2565b610741610b7e366004619b1c565b61394d565b610721610b913660046199d6565b61399b565b6107216139ce565b6107216139d4565b6107c7610bb4366004619c6d565b6139da565b610721613a3c565b6107c7610bcf366004619bcb565b613a42565b610741610be2366004619d19565b613aa8565b6107c7610bf53660046199d6565b613e45565b610721613e98565b610721610c103660046199d6565b613f4d565b610848610c23366004619c6d565b613f92565b6107c7610c3636600461999e565b613fa2565b610721610c49366004619d6d565b614091565b6106f8610c5c366004619d6d565b6140a6565b610721610c6f366004619a01565b6142c0565b6106f8610c82366004619d6d565b6143ac565b610721610c95366004619a35565b614514565b610721610ca8366004619c6d565b61504a565b610721615087565b610721610cc33660046199d6565b61508d565b6107c7610cd6366004619c96565b6150d2565b6107c7610ce93660046199d6565b6151ad565b6107216151cd565b6107216151d3565b6107a7610d0c366004619c6d565b6151d9565b610848610d1f3660046199d6565b6153f6565b610721610d32366004619c96565b615412565b6107c7610d45366004619c6d565b61542f565b610d5d610d58366004619c6d565b615434565b604051610705919061b055565b6107416155b8565b6106f8610d80366004619c6d565b6158bb565b610815610d93366004619c6d565b615947565b6107c7610da636600461999e565b6159f2565b610741610db9366004619c6d565b615a13565b610721615bd8565b6107a7610dd4366004619c6d565b615bde565b610721615eed565b610721615ef3565b610741610df736600461999e565b615ef9565b610721610e0a366004619c2b565b615f30565b610721615f45565b610741615f4b565b6107c7610e2d366004619c6d565b616362565b6107c761636a565b610721616383565b610848616389565b610721610e5836600461999e565b616398565b6107a7610e6b366004619d6d565b616463565b610848616966565b6060610e8382616362565b610ea85760405162461bcd60e51b8152600401610e9f9061acb9565b60405180910390fd5b600082815260196020908152604080832080548251818502810185019093528083529192909190830182828015610f0857602002820191906000526020600020905b81546001600160a01b03168152600190910190602001808311610eea575b50505050509050600081516001600160401b03811115610f3857634e487b7160e01b600052604160045260246000fd5b604051908082528060200260200182016040528015610f61578160200160208202803683370190505b50905060005b825181101561100b57600c60008681526020019081526020016000206000848381518110610fa557634e487b7160e01b600052603260045260246000fd5b60200260200101516001600160a01b03166001600160a01b0316815260200190815260200160002054828281518110610fee57634e487b7160e01b600052603260045260246000fd5b6020908102919091010152806110038161b4e7565b915050610f67565b509150505b919050565b600061102082616362565b61103c5760405162461bcd60e51b8152600401610e9f9061acb9565b600061104783611b2a565b1561106c5760008381526014602052604090206006015461106990429061b469565b90505b92915050565b61107a616975565b602980546001600160a01b0319166001600160a01b0392909216919091179055565b6110a4616975565b6110ac6136e6565b6001600160a01b0316ff5b6013602052600090815260409020805481906110d29061b4ac565b80601f01602080910402602001604051908101604052809291908181526020018280546110fe9061b4ac565b801561114b5780601f106111205761010080835404028352916020019161114b565b820191906000526020600020905b81548152906001019060200180831161112e57829003601f168201915b50505060018401546002850154600386015460048701805496976001600160a01b0390941696929550909350906111819061b4ac565b80601f01602080910402602001604051908101604052809291908181526020018280546111ad9061b4ac565b80156111fa5780601f106111cf576101008083540402835291602001916111fa565b820191906000526020600020905b8154815290600101906020018083116111dd57829003601f168201915b50505050509080600501805461120f9061b4ac565b80601f016020809104026020016040519081016040528092919081815260200182805461123b9061b4ac565b80156112885780601f1061125d57610100808354040283529160200191611288565b820191906000526020600020905b81548152906001019060200180831161126b57829003601f168201915b5050506006909301549192505060ff1687565b601e5481565b6112a9616975565b602155565b60225490565b60606112bf82616362565b6112db5760405162461bcd60e51b8152600401610e9f9061acb9565b600082815260146020908152604080832081516101c0810183528154815260018201549381019390935260028101549183019190915260038101546060830152600481015460ff808216151560808501526101008083048216151560a08601526201000090920416151560c0840152600582015460e084015260068201549083015260078101546101208301526008810154610140830152600981018054610160840191906113899061b4ac565b80601f01602080910402602001604051908101604052809291908181526020018280546113b59061b4ac565b80156114025780601f106113d757610100808354040283529160200191611402565b820191906000526020600020905b8154815290600101906020018083116113e557829003601f168201915b5050509183525050600a8201546020820152600b82015460409091019060ff16600381111561144157634e487b7160e01b600052602160045260246000fd5b600381111561146057634e487b7160e01b600052602160045260246000fd5b90525060208101519091506000816001600160401b0381111561149357634e487b7160e01b600052604160045260246000fd5b6040519080825280602002602001820160405280156114c657816020015b60608152602001906001900390816114b15790505b50905060005b828110156115c65783516000906114e490839061b41e565b6000818152601360205260408120600401805492935090916115059061b4ac565b80601f01602080910402602001604051908101604052809291908181526020018280546115319061b4ac565b801561157e5780601f106115535761010080835404028352916020019161157e565b820191906000526020600020905b81548152906001019060200180831161156157829003601f168201915b50505050509050808484815181106115a657634e487b7160e01b600052603260045260246000fd5b6020026020010181905250505080806115be9061b4e7565b9150506114cc565b50949350505050565b60006115da82616362565b6115f65760405162461bcd60e51b8152600401610e9f9061afe0565b60008281526014602052604090206006015461106c9061542f565b336000908152601560205260409020600581015460ff1615156001146116495760405162461bcd60e51b8152600401610e9f9061a97c565b60018101541580159061166657506005810154610100900460ff16155b80156116785750611676336169b4565b155b156116d15760058101805461ff001916610100179055601c80546001810182556000919091527f0e4562a10381dec21b205ed72637e6b1b523bdd0e4d4d50af5cd23dd4500a2110180546001600160a01b031916331790555b6001810154611749576116e333616a2b565b6116ec33616b83565b80546001600160a01b031916339081178255426004830181905560058301805460ff191690556040517f9dadcedba048e92b943ea1c5861cee1df63a566d7f795869c004780c1c698e2b9161174091619eb5565b60405180910390a25b60016023600082825461175c919061b41e565b9091555061176a9050616cb3565b50565b60008061177985611a8a565b90506000611787868361508d565b90505b81156118ff5761179a868361508d565b9050848111611857578382141561184f576001600160a01b0386166000908152601160205260409081902090516301c39b2b60e11b815273__$585bbdabc43b7e01304f74ebf75304a376$__916303873656916117fc91908690600401619eda565b60206040518083038186803b15801561181457600080fd5b505af4158015611828573d6000803e3d6000fd5b505050506040513d601f19601f8201168201806040525081019061184c9190619c85565b91505b509050611903565b6001600160a01b0386166000908152601160205260409081902090516301c39b2b60e11b815273__$585bbdabc43b7e01304f74ebf75304a376$__916303873656916118a891908690600401619eda565b60206040518083038186803b1580156118c057600080fd5b505af41580156118d4573d6000803e3d6000fd5b505050506040513d601f19601f820116820180604052508101906118f89190619c85565b915061178a565b5090505b9392505050565b600a60209081526000928352604080842090915290825290205460ff1681565b600d6020908152600092835260408084209091529082529020805461194e9061b4ac565b80601f016020809104026020016040519081016040528092919081815260200182805461197a9061b4ac565b80156119c75780601f1061199c576101008083540402835291602001916119c7565b820191906000526020600020905b8154815290600101906020018083116119aa57829003601f168201915b505050505081565b60176020526000908152604090205481565b601a81815481106119f157600080fd5b6000918252602090912001546001600160a01b0316905081565b602954600160a01b900460ff1681565b60405160009080602081848060185afa611a3157fe5b5051919050565b60028160048110611a4857600080fd5b60020201805460019091015490915082565b60166020528160005260406000208160048110611a7657600080fd5b600202018054600190910154909250905082565b6001600160a01b03811660009081526011602052604080822090516301c39b2b60e11b815273__$585bbdabc43b7e01304f74ebf75304a376$__91630387365691611ada91908590600401619eda565b60206040518083038186803b158015611af257600080fd5b505af4158015611b06573d6000803e3d6000fd5b505050506040513d601f19601f8201168201806040525081019061106c9190619c85565b6000611b3582616362565b611b515760405162461bcd60e51b8152600401610e9f9061acb9565b600082815260146020526040902060060154611b6c9061542f565b15801561106c5750611b7d826139da565b1592915050565b60215490565b60265481565b600081815260146020908152604080832081516101c0810183528154815260018201549381019390935260028101549183019190915260038101546060830152600481015460ff808216151560808501526101008083048216151560a08601526201000090920416151560c0840152600582015460e08401526006820154908301526007810154610120830152600881015461014083015260098101805484939291610160840191611c419061b4ac565b80601f0160208091040260200160405190810160405280929190818152602001828054611c6d9061b4ac565b8015611cba5780601f10611c8f57610100808354040283529160200191611cba565b820191906000526020600020905b815481529060010190602001808311611c9d57829003601f168201915b5050509183525050600a8201546020820152600b82015460409091019060ff166003811115611cf957634e487b7160e01b600052602160045260246000fd5b6003811115611d1857634e487b7160e01b600052602160045260246000fd5b905250610140810151610120820151919250611d339161b41e565b602960009054906101000a90046001600160a01b03166001600160a01b031663ea19733c6040518163ffffffff1660e01b815260040160206040518083038186803b158015611d8157600080fd5b505afa158015611d95573d6000803e3d6000fd5b505050506040513d601f19601f82011682018060405250810190611db99190619c85565b611dc3919061b44a565b610120820151611dd490606461b44a565b119392505050565b611de4616975565b600081815260136020526040812090611dfd8282619725565b6001820180546001600160a01b031916905560006002830181905560038301819055611e2d906004840190619725565b611e3b600583016000619725565b50600601805460ff1916905550565b60205490565b601a5490565b6001600160a01b038116600090815260166020526040812090611e7b6001600461b469565b90506000828260048110611e9f57634e487b7160e01b600052603260045260246000fd5b6002020154602954604080516307bc663b60e11b815290519293506001600160a01b0390911691630f78cc7691600480820192602092909190829003018186803b158015611eec57600080fd5b505afa158015611f00573d6000803e3d6000fd5b505050506040513d601f19601f82011682018060405250810190611f249190619c85565b611f2e824261b469565b11156120175760005b611f436001600461b469565b811015611fc25783611f5682600161b41e565b60048110611f7457634e487b7160e01b600052603260045260246000fd5b60020201848260048110611f9857634e487b7160e01b600052603260045260246000fd5b82546002919091029190910190815560019182015491015580611fba8161b4e7565b915050611f37565b5042838360048110611fe457634e487b7160e01b600052603260045260246000fd5b6002020155600083836004811061200b57634e487b7160e01b600052603260045260246000fd5b60020201600101819055505b50505050565b6001600160a01b03811660009081526010602090815260409182902080548351818402810184019094528084526060939283018282801561207d57602002820191906000526020600020905b815481526020019060010190808311612069575b50505050509050919050565b612091619761565b60008281526013602052604090819020815160e081019092528054829082906120b99061b4ac565b80601f01602080910402602001604051908101604052809291908181526020018280546120e59061b4ac565b80156121325780601f1061210757610100808354040283529160200191612132565b820191906000526020600020905b81548152906001019060200180831161211557829003601f168201915b505050918352505060018201546001600160a01b0316602082015260028201546040820152600382015460608201526004820180546080909201916121769061b4ac565b80601f01602080910402602001604051908101604052809291908181526020018280546121a29061b4ac565b80156121ef5780601f106121c4576101008083540402835291602001916121ef565b820191906000526020600020905b8154815290600101906020018083116121d257829003601f168201915b505050505081526020016005820180546122089061b4ac565b80601f01602080910402602001604051908101604052809291908181526020018280546122349061b4ac565b80156122815780601f1061225657610100808354040283529160200191612281565b820191906000526020600020905b81548152906001019060200180831161226457829003601f168201915b5050509183525050600682015460209091019060ff1660038111156122b657634e487b7160e01b600052602160045260246000fd5b60038111156122d557634e487b7160e01b600052602160045260246000fd5b90525092915050565b600e60209081526000928352604080842090915290825290205481565b6010602052816000526040600020818154811061231757600080fd5b90600052602060002001600091509150505481565b606061233782616362565b6123535760405162461bcd60e51b8152600401610e9f9061acb9565b6000828152601960209081526040808320805482518185028101850190935280835291929091908301828280156123b357602002820191906000526020600020905b81546001600160a01b03168152600190910190602001808311612395575b50505050509050600081516001600160401b038111156123e357634e487b7160e01b600052604160045260246000fd5b60405190808252806020026020018201604052801561241657816020015b60608152602001906001900390816124015790505b50905060005b825181101561100b57600f6000868152602001908152602001600020600084838151811061245a57634e487b7160e01b600052603260045260246000fd5b60200260200101516001600160a01b03166001600160a01b03168152602001908152602001600020805461248d9061b4ac565b80601f01602080910402602001604051908101604052809291908181526020018280546124b99061b4ac565b80156125065780601f106124db57610100808354040283529160200191612506565b820191906000526020600020905b8154815290600101906020018083116124e957829003601f168201915b505050505082828151811061252b57634e487b7160e01b600052603260045260246000fd5b602002602001018190525080806125419061b4e7565b91505061241c565b60006125576001600461b469565b905060006002826004811061257c57634e487b7160e01b600052603260045260246000fd5b6002020154602954604080516307bc663b60e11b815290519293506001600160a01b0390911691630f78cc7691600480820192602092909190829003018186803b1580156125c957600080fd5b505afa1580156125dd573d6000803e3d6000fd5b505050506040513d601f19601f820116820180604052508101906126019190619c85565b61260b824261b469565b11156126fe5760005b6126206001600461b469565b8110156126a157600261263482600161b41e565b6004811061265257634e487b7160e01b600052603260045260246000fd5b600202016002826004811061267757634e487b7160e01b600052603260045260246000fd5b825460029190910291909101908155600191820154910155806126998161b4e7565b915050612614565b5042600283600481106126c457634e487b7160e01b600052603260045260246000fd5b60020201600001819055506000600283600481106126f257634e487b7160e01b600052603260045260246000fd5b60020201600101819055505b5050565b61270a616975565b600081815260146020526040812081815560018101829055600281018290556003810182905560048101805462ffffff1916905560058101829055600681018290556007810182905560088101829055906127686009830182619725565b506000600a820155600b01805460ff1916905550565b600061278982616362565b61279557506000611010565b6000828152601460205260409020600601546127b09061542f565b806127ca5750600082815260146020526040902060030154155b9050611010565b600061106c82610cc384611a8a565b60006127eb82616362565b6127f757506000611010565b6000828152601460205260409020600501546128129061542f565b806127ca57506127ca82611b2a565b6001600160a01b031660009081526017602052604090205490565b612844616975565b61284e6000616f8c565b565b600061285b82616362565b6128775760405162461bcd60e51b8152600401610e9f9061acb9565b5060009081526014602052604090206006015490565b601b5490565b61289b616975565b602255565b60006128ab82616362565b6128c75760405162461bcd60e51b8152600401610e9f9061acb9565b60006128d2836139da565b1561106c5760008381526014602052604090206005015461106990429061b469565b600073__$0fc5f1e8200da631f267a98956016c2b9e$__6369810158601261291c868661399b565b6040518363ffffffff1660e01b815260040161293992919061b178565b60206040518083038186803b15801561295157600080fd5b505af4158015612965573d6000803e3d6000fd5b505050506040513d601f19601f820116820180604052508101906110699190619c85565b601b54601a5460009161299b9161b41e565b905090565b60006129ab82616362565b6129c75760405162461bcd60e51b8152600401610e9f9061acb9565b506001600160a01b03919091166000908152600a60209081526040808320938352929052205460ff1690565b601460205260009081526040902080546001820154600283015460038401546004850154600586015460068701546007880154600889015460098a018054999a98999798969760ff80881698610100890482169862010000900490911696959493929091612a609061b4ac565b80601f0160208091040260200160405190810160405280929190818152602001828054612a8c9061b4ac565b8015612ad95780601f10612aae57610100808354040283529160200191612ad9565b820191906000526020600020905b815481529060010190602001808311612abc57829003601f168201915b50505050600a830154600b9093015491929160ff1690508e565b600080805b6004811015612b495760028160048110612b2257634e487b7160e01b600052603260045260246000fd5b600202016001015482612b35919061b41e565b915080612b418161b4e7565b915050612af8565b50905090565b600080612b5c848761508d565b83101590506000612b6d858761508d565b84111580612b79575085155b9050818015612b855750805b979650505050505050565b601b81815481106119f157600080fd5b612ba9856139da565b612bc55760405162461bcd60e51b8152600401610e9f9061a23f565b336000908152600a6020908152604080832088845290915290205460ff1615612c005760405162461bcd60e51b8152600401610e9f9061ad7e565b612c0a85336150d2565b612c265760405162461bcd60e51b8152600401610e9f9061a517565b60295460408051632a49798160e11b815290516000926001600160a01b031691635492f302916004808301926020929190829003018186803b158015612c6b57600080fd5b505afa158015612c7f573d6000803e3d6000fd5b505050506040513d601f19601f82011682018060405250810190612ca391906199ba565b6001600160a01b03161415612cca5760405162461bcd60e51b8152600401610e9f9061af48565b602954604080516001624ee91360e11b0319815290516000926001600160a01b03169163ff622dda916004808301926020929190829003018186803b158015612d1257600080fd5b505afa158015612d26573d6000803e3d6000fd5b505050506040513d601f19601f82011682018060405250810190612d4a9190619c85565b90506000612d583383613203565b6001600160a01b038116600090815260176020526040902054909150821115612dad576001600160a01b038116600090815260176020526040812054612d9f908490616fdc565b9050612dab8183616fe8565b505b6000336000908152601160205260408082209051631e0f232560e31b815273__$585bbdabc43b7e01304f74ebf75304a376$__9163f079192891612df691908690600401619eda565b60206040518083038186803b158015612e0e57600080fd5b505af4158015612e22573d6000803e3d6000fd5b505050506040513d601f19601f82011682018060405250810190612e469190619c85565b905088811415612eeb5733600090815260116020526040908190209051631e0f232560e31b815273__$585bbdabc43b7e01304f74ebf75304a376$__9163f079192891612e9891908d90600401619eda565b60206040518083038186803b158015612eb057600080fd5b505af4158015612ec4573d6000803e3d6000fd5b505050506040513d601f19601f82011682018060405250810190612ee89190619c85565b90505b612ef782823387612b4f565b612f135760405162461bcd60e51b8152600401610e9f9061a8f1565b3360009081526011602052604090819020905163524cfe5360e11b815273__$585bbdabc43b7e01304f74ebf75304a376$__9163a499fca691612f5f919086908e90879060040161b1f0565b60006040518083038186803b158015612f7757600080fd5b505af4158015612f8b573d6000803e3d6000fd5b505050506000612f9b338b61399b565b60405163099b040f60e31b815290915073__$0fc5f1e8200da631f267a98956016c2b9e$__90634cd8207890612fda9060129085908a9060040161b1d2565b60006040518083038186803b158015612ff257600080fd5b505af4158015613006573d6000803e3d6000fd5b505060405163099b040f60e31b815273__$0fc5f1e8200da631f267a98956016c2b9e$__9250634cd8207891506130469060129085908e9060040161b196565b60006040518083038186803b15801561305e57600080fd5b505af4158015613072573d6000803e3d6000fd5b505060405163099b040f60e31b815273__$0fc5f1e8200da631f267a98956016c2b9e$__9250634cd8207891506130b29060129085908d9060040161b14a565b60006040518083038186803b1580156130ca57600080fd5b505af41580156130de573d6000803e3d6000fd5b50505060008b8152600e60209081526040808320338085529083528184208c90558e8452600f835281842090845282529091208851613122935090918901906197c5565b503360009081526015602090815260408083208d845260149092529091206002015461314f906001616fdc565b60008c815260146020908152604080832060020193909355426004850155338252600a81528282208e83529052908120805460ff1916600190811790915560238054919290916131a090849061b41e565b909155506131ae9050616cb3565b336001600160a01b03168b7f42864d9683ff5b12c3b2cc65d705af5aab104b03bc700b802f79e5c971ef08a1886040516131e89190619eb5565b60405180910390a35050505050505050505050565b60205481565b6000806001600160a01b0316602960009054906101000a90046001600160a01b03166001600160a01b0316635492f3026040518163ffffffff1660e01b815260040160206040518083038186803b15801561325d57600080fd5b505afa158015613271573d6000803e3d6000fd5b505050506040513d601f19601f8201168201806040525081019061329591906199ba565b6001600160a01b031614156132bc5760405162461bcd60e51b8152600401610e9f9061af48565b6029546040805163ca64f9e760e01b815290516000926001600160a01b03169163ca64f9e7916004808301926020929190829003018186803b15801561330157600080fd5b505afa158015613315573d6000803e3d6000fd5b505050506040513d601f19601f8201168201806040525081019061333991906199ba565b6001600160a01b031614156133605760405162461bcd60e51b8152600401610e9f9061ab16565b6029546040805163ca64f9e760e01b815290516000926001600160a01b03169163ca64f9e7916004808301926020929190829003018186803b1580156133a557600080fd5b505afa1580156133b9573d6000803e3d6000fd5b505050506040513d601f19601f820116820180604052508101906133dd91906199ba565b90506000602960009054906101000a90046001600160a01b03166001600160a01b0316635492f3026040518163ffffffff1660e01b815260040160206040518083038186803b15801561342f57600080fd5b505afa158015613443573d6000803e3d6000fd5b505050506040513d601f19601f8201168201806040525081019061346791906199ba565b9050848060055b6001600160a01b038216158015906134865750600081115b156136535760405163065ee72760e51b81526000906001600160a01b0387169063cbdce4e0906134ba908690600401619ee8565b60206040518083038186803b1580156134d257600080fd5b505afa1580156134e6573d6000803e3d6000fd5b505050506040513d601f19601f8201168201806040525081019061350a9190619c85565b6001600160a01b03841660009081526017602052604090205490915088116135355782935050613653565b6001600160a01b038316600090815260176020526040902054881080159061357457506001600160a01b03831660009081526017602052604090205415155b156135b2576001600160a01b03831660009081526017602052604081205461359d908a90616fdc565b90508082106135b0578394505050613653565b505b8781106135c25782935050613653565b60405163792f4f6960e11b81526001600160a01b0386169063f25e9ed2906135ee908690600401619ee8565b60206040518083038186803b15801561360657600080fd5b505afa15801561361a573d6000803e3d6000fd5b505050506040513d601f19601f8201168201806040525081019061363e91906199ba565b925061364b60018361b469565b91505061346e565b50909695505050505050565b600f6020908152600092835260408084209091529082529020805461194e9061b4ac565b6015602052600090815260409020805460018201546002830154600384015460048501546005860154600687015460078801546008909801546001600160a01b0390971697959660ff95861696949593948385169461010090940490931692908a565b6000546001600160a01b031690565b6019602052816000526040600020818154811061371157600080fd5b6000918252602090912001546001600160a01b03169150829050565b60016000828152601460205260409020600b015460ff16600381111561376357634e487b7160e01b600052602160045260246000fd5b146137805760405162461bcd60e51b8152600401610e9f9061a1a9565b336000908152601160205260409081902090516306120d1f60e31b815273__$585bbdabc43b7e01304f74ebf75304a376$__9163309068f8916137c891908590600401619eda565b60206040518083038186803b1580156137e057600080fd5b505af41580156137f4573d6000803e3d6000fd5b505050506040513d601f19601f820116820180604052508101906138189190619bab565b6138345760405162461bcd60e51b8152600401610e9f9061a7dc565b336000908152601160205260409081902090516301039dfd60e11b815273__$585bbdabc43b7e01304f74ebf75304a376$__916302073bfa9161387c91908590600401619eda565b60006040518083038186803b15801561389457600080fd5b505af41580156138a8573d6000803e3d6000fd5b50506040513392508391507f402507661c8c8cb90e0a796450b8bdd28b6c516f05279c0cd29e84c344e1699a90600090a350565b60245481565b6001600160a01b038116600090815260166020526040812081805b600481101561100b5782816004811061392657634e487b7160e01b600052603260045260246000fd5b600202016001015482613939919061b41e565b9150806139458161b4e7565b9150506138fd565b60005b81518110156126fe5761398982828151811061397c57634e487b7160e01b600052603260045260246000fd5b602002602001015161372d565b806139938161b4e7565b915050613950565b600082826040516020016139b0929190619e93565b60405160208183030381529060405280519060200120905092915050565b60245490565b60255481565b60006139e582616362565b613a015760405162461bcd60e51b8152600401610e9f9061acb9565b600082815260146020526040902060050154613a1c9061542f565b15801561106c575050600090815260146020526040902060020154151590565b601e5490565b600081604051602001613a559190619ebe565b6040516020818303038152906040528051906020012083604051602001613a7c9190619ebe565b604051602081830303815290604052805190602001201415613aa05750600161106c565b50600061106c565b613ab184611b2a565b613acd5760405162461bcd60e51b8152600401610e9f9061abf7565b336000908152600a6020908152604080832087845290915290205460ff16613b075760405162461bcd60e51b8152600401610e9f9061a64d565b336000908152600b6020908152604080832087845290915290205460ff1615613b425760405162461bcd60e51b8152600401610e9f9061b009565b613b4c33856128f4565b613b568483615f30565b14613b735760405162461bcd60e51b8152600401610e9f9061a306565b613b7d3385613f4d565b613b878383614091565b14613ba45760405162461bcd60e51b8152600401610e9f9061a28e565b6000613bb0338661508d565b90508260011415613be75760008581526014602052604081206007018054839290613bdc90849061b41e565b90915550613c0e9050565b60008581526014602052604081206008018054839290613c0890849061b41e565b90915550505b336000908152601160205260409081902090516301039dfd60e11b815273__$585bbdabc43b7e01304f74ebf75304a376$__916302073bfa91613c5691908990600401619eda565b60006040518083038186803b158015613c6e57600080fd5b505af4158015613c82573d6000803e3d6000fd5b5050336000818152600b602090815260408083208b84528252808320805460ff19166001179055600c825280832084845282528083208990558a8352600d82528083209383529281529190208751613ce19450909250908701906197c5565b50336000908152601560209081526040808320888452601490925290912060030154613d0e906001616fdc565b60008781526014602052604090206003015560028101805460ff19166001179055426004820155600581015460ff1615613da25760006001820155613d5233616b83565b613d5b33617210565b613da257601a80546001810182556000919091527f057c384a7d1c54f3a1b2e5e67b2617b8224fdfd1ea7234eea573a6ff665ff63e0180546001600160a01b031916331790555b600086815260146020526040902060030154613dc157613dc186617280565b600160236000828254613dd4919061b41e565b90915550613de29050616cb3565b6000868152601460205260409081902060078101546008909101549151339287928a927f0867b5027231dcbf37614eaad07d667b9febaf9fdf483f488229b1f140bb074892613e3592899290919061b2dc565b60405180910390a4505050505050565b6000613e5082616362565b613e6c5760405162461bcd60e51b8152600401610e9f9061acb9565b506001600160a01b03919091166000908152600b60209081526040808320938352929052205460ff1690565b6000804241604051602001613ead9190619e76565b6040516020818303038152906040528051906020012060001c613ed0919061b436565b44613ed9611a1b565b604051602001613ee99190619eb5565b60408051601f198184030181529190528051602090910120613f0b904261b41e565b613f15919061b41e565b613f1f919061b41e565b604051602001613f2f9190619eb5565b60408051601f19818403018152919052805160209091012091505090565b600073__$0fc5f1e8200da631f267a98956016c2b9e$__63698101586012613f75868661399b565b6040518363ffffffff1660e01b815260040161293992919061b12c565b601c81815481106119f157600080fd5b6001600160a01b038082166000908152601560209081526040808320815161014081018352815490951685526001810154928501839052600281015460ff90811615801593870184905260038301546060880152600483015460808801526005830154808316151560a089015261010090819004909216151560c0880152600683015460e0880152600783015491870191909152600890910154610120860152929384939092916140595750614057816115cf565b155b801561406c575061406a85826129a0565b155b801561407e575061407c816127e0565b155b1561408857600192505b50909392505050565b600082826040516020016139b0929190619eda565b6060600082116140c85760405162461bcd60e51b8152600401610e9f9061a9c8565b6000416040516020016140db9190619e76565b6040516020818303038152906040528051906020012060001c6140fc611a1b565b60405160200161410c9190619eb5565b60408051601f19818403018152919052805160209091012061412e904261b41e565b614138919061b41e565b6040516020016141489190619eb5565b6040516020818303038152906040528051906020012060001c90506000846001600160401b0381111561418b57634e487b7160e01b600052604160045260246000fd5b6040519080825280602002602001820160405280156141b4578160200160208202803683370190505b5090506000805b868210156142b5576000866141d463017efeeb8761b469565b836040516020016141e6929190619eda565b6040516020818303038152906040528051906020012060001c614209919061b502565b90506000805b84811015614261578286828151811061423857634e487b7160e01b600052603260045260246000fd5b6020026020010151141561424f5760019150614261565b806142598161b4e7565b91505061420f565b50806142a1578185858151811061428857634e487b7160e01b600052603260045260246000fd5b602090810291909101015261429e84600161b41e565b93505b6142ac83600161b41e565b925050506141bb565b509095945050505050565b60006142cb836115cf565b6142e75760405162461bcd60e51b8152600401610e9f9061aea1565b6001600160a01b0384166000908152600b6020908152604080832086845290915290205460ff1661432a5760405162461bcd60e51b8152600401610e9f9061a839565b600061433584611b90565b614340576000614343565b60015b60ff1690506000818460405160200161435d929190619eda565b60405160208183030381529060405280519060200120905060006143818787613f4d565b90508082146143a25760405162461bcd60e51b8152600401610e9f9061ab58565b612b85878761508d565b60606000821180156143be5750818311155b80156143cb575060018310155b6143e75760405162461bcd60e51b8152600401610e9f9061a3c8565b6000826001600160401b0381111561440f57634e487b7160e01b600052604160045260246000fd5b604051908082528060200260200182016040528015614438578160200160208202803683370190505b5090506000846001600160401b0381111561446357634e487b7160e01b600052604160045260246000fd5b60405190808252806020026020018201604052801561448c578160200160208202803683370190505b50905060006144a261449d84618a0a565b618a60565b905060005b868110156142b5578181815181106144cf57634e487b7160e01b600052603260045260246000fd5b60200260200101518382815181106144f757634e487b7160e01b600052603260045260246000fd5b60209081029190910101528061450c8161b4e7565b9150506144a7565b602954604080516309d0f8b560e31b815290516000926001600160a01b031691634e87c5a8916004808301926020929190829003018186803b15801561455957600080fd5b505afa15801561456d573d6000803e3d6000fd5b505050506040513d601f19601f820116820180604052508101906145919190619bab565b6145ad5760405162461bcd60e51b8152600401610e9f9061a69c565b855184146145cd5760405162461bcd60e51b8152600401610e9f9061ad31565b6145d5612549565b602960009054906101000a90046001600160a01b03166001600160a01b031663b38e885e6040518163ffffffff1660e01b815260040160206040518083038186803b15801561462357600080fd5b505afa158015614637573d6000803e3d6000fd5b505050506040513d601f19601f8201168201806040525081019061465b9190619c85565b614663612af3565b106146805760405162461bcd60e51b8152600401610e9f9061a71d565b602954604080516001624ee91360e11b0319815290516000926001600160a01b03169163ff622dda916004808301926020929190829003018186803b1580156146c857600080fd5b505afa1580156146dc573d6000803e3d6000fd5b505050506040513d601f19601f820116820180604052508101906147009190619c85565b9050600061470e3383613203565b905061471981611e56565b602960009054906101000a90046001600160a01b03166001600160a01b031663be2509886040518163ffffffff1660e01b815260040160206040518083038186803b15801561476757600080fd5b505afa15801561477b573d6000803e3d6000fd5b505050506040513d601f19601f8201168201806040525081019061479f9190619c85565b6147a8826138e2565b106147c55760405162461bcd60e51b8152600401610e9f9061af8c565b6001600160a01b038116600090815260176020526040902054821115614817576001600160a01b038116600090815260176020526040812054614809908490616fdc565b90506148158183616fe8565b505b60005b885181101561500457600089828151811061484557634e487b7160e01b600052603260045260246000fd5b60200260200101519050600089898481811061487157634e487b7160e01b600052603260045260246000fd5b9050602002810190614883919061b382565b8080601f016020809104026020016040519081016040528093929190818152602001838380828437600092018290525033808252601060209081526040808420601e54815460018101835591865283862090910155805160e0810182528a8152918201929092524291810191909152606081018e90526080810186905260a081018d905294955060c08501935091506149199050565b9052601e546000908152601360209081526040909120825180519192614944928492909101906197c5565b506020828101516001830180546001600160a01b0319166001600160a01b0390921691909117905560408301516002830155606083015160038301556080830151805161499792600485019201906197c5565b5060a082015180516149b39160058401916020909101906197c5565b5060c082015160068201805460ff191660018360038111156149e557634e487b7160e01b600052602160045260246000fd5b021790555050602080546000908152601482526040908190206029548251634e8f956d60e11b815292519194506001600160a01b031692639d1f2ada9260048082019391829003018186803b158015614a3d57600080fd5b505afa158015614a51573d6000803e3d6000fd5b505050506040513d601f19601f82011682018060405250810190614a759190619c85565b81600101541015614a9b576001816001016000828254614a95919061b41e565b90915550505b602960009054906101000a90046001600160a01b03166001600160a01b0316639d1f2ada6040518163ffffffff1660e01b815260040160206040518083038186803b158015614ae957600080fd5b505afa158015614afd573d6000803e3d6000fd5b505050506040513d601f19601f82011682018060405250810190614b219190619c85565b816001015410614b7157600481018054600160ff19909116811761ff00191690915560208054600090614b5590849061b41e565b9091555050601e54602080546000908152601490915260409020555b601e54614b7f90600161b41e565b601e5560016002614b9182600461b469565b60048110614baf57634e487b7160e01b600052603260045260246000fd5b600202016001016000828254614bc5919061b41e565b90915550506001600160a01b0385166000908152601660205260409020600181614bf082600461b469565b60048110614c0e57634e487b7160e01b600052603260045260246000fd5b600202016001016000828254614c24919061b41e565b90915550614c3290506155b8565b60295460408051637b39b17f60e11b815290516000926001600160a01b03169163f67362fe916004808301926020929190829003018186803b158015614c7757600080fd5b505afa158015614c8b573d6000803e3d6000fd5b505050506040513d601f19601f82011682018060405250810190614caf91906199ba565b9050806001600160a01b031663da14563a6040518163ffffffff1660e01b8152600401600060405180830381600087803b158015614cec57600080fd5b505af1925050508015614cfd575060015b614d58573d808015614d2b576040519150601f19603f3d011682016040523d82523d6000602084013e614d30565b606091505b5060008051602061b56e83398151915281604051614d4e9190619ff3565b60405180910390a1505b60295460408051637a0ec25b60e01b815290516000926001600160a01b031691637a0ec25b916004808301926020929190829003018186803b158015614d9d57600080fd5b505afa158015614db1573d6000803e3d6000fd5b505050506040513d601f19601f82011682018060405250810190614dd591906199ba565b9050806001600160a01b031663da14563a6040518163ffffffff1660e01b8152600401600060405180830381600087803b158015614e1257600080fd5b505af1925050508015614e23575060015b614e7e573d808015614e51576040519150601f19603f3d011682016040523d82523d6000602084013e614e56565b606091505b5060008051602061b56e83398151915281604051614e749190619ff3565b60405180910390a1505b6029546040805163463444b760e01b815290516000926001600160a01b03169163463444b7916004808301926020929190829003018186803b158015614ec357600080fd5b505afa158015614ed7573d6000803e3d6000fd5b505050506040513d601f19601f82011682018060405250810190614efb91906199ba565b9050806001600160a01b031663da14563a6040518163ffffffff1660e01b8152600401600060405180830381600087803b158015614f3857600080fd5b505af1925050508015614f49575060015b614fa4573d808015614f77576040519150601f19603f3d011682016040523d82523d6000602084013e614f7c565b606091505b5060008051602061b56e83398151915281604051614f9a9190619ff3565b60405180910390a1505b886001600160a01b0316601e547fb819ca9ac369919119f75ec7363dd954f75bcfa75f9245647e03da413be0d5828989604051614fe292919061a078565b60405180910390a3505050505050508080614ffc9061b4e7565b91505061481a565b50336000908152601560205260409020426004820155615022616cb3565b600160236000828254615035919061b41e565b9091555050601e549998505050505050505050565b600061505582616362565b6150715760405162461bcd60e51b8152600401610e9f9061acb9565b5060009081526014602052604090206005015490565b60015481565b600073__$0fc5f1e8200da631f267a98956016c2b9e$__636981015860126150b5868661399b565b6040518363ffffffff1660e01b815260040161293992919061b1b4565b600082815260196020908152604080832080548251818502810185019093528083528493849392919083018282801561513457602002820191906000526020600020905b81546001600160a01b03168152600190910190602001808311615116575b5050505050905060005b81518110156151a357846001600160a01b031682828151811061517157634e487b7160e01b600052603260045260246000fd5b60200260200101516001600160a01b0316141561519157600192506151a3565b8061519b8161b4e7565b91505061513e565b5090949350505050565b600b60209081526000928352604080842090915290825290205460ff1681565b601f5481565b60225481565b60606151e482616362565b6152005760405162461bcd60e51b8152600401610e9f9061acb9565b60008281526019602090815260408083208054825181850281018501909352808352919290919083018282801561526057602002820191906000526020600020905b81546001600160a01b03168152600190910190602001808311615242575b50505050509050600081516001600160401b0381111561529057634e487b7160e01b600052604160045260246000fd5b6040519080825280602002602001820160405280156152c357816020015b60608152602001906001900390816152ae5790505b50905060005b825181101561100b57600d6000868152602001908152602001600020600084838151811061530757634e487b7160e01b600052603260045260246000fd5b60200260200101516001600160a01b03166001600160a01b03168152602001908152602001600020805461533a9061b4ac565b80601f01602080910402602001604051908101604052809291908181526020018280546153669061b4ac565b80156153b35780601f10615388576101008083540402835291602001916153b3565b820191906000526020600020905b81548152906001019060200180831161539657829003601f168201915b50505050508282815181106153d857634e487b7160e01b600052603260045260246000fd5b602002602001018190525080806153ee9061b4e7565b9150506152c9565b6018602052816000526040600020818154811061371157600080fd5b600c60209081526000928352604080842090915290825290205481565b421190565b61543c619849565b61544582616362565b61544e57600080fd5b60008281526014602090815260409182902082516101c0810184528154815260018201549281019290925260028101549282019290925260038201546060820152600482015460ff808216151560808401526101008083048216151560a08501526201000090920416151560c0830152600583015460e083015260068301549082015260078201546101208201526008820154610140820152600982018054919291610160840191906155009061b4ac565b80601f016020809104026020016040519081016040528092919081815260200182805461552c9061b4ac565b80156155795780601f1061554e57610100808354040283529160200191615579565b820191906000526020600020905b81548152906001019060200180831161555c57829003601f168201915b5050509183525050600a8201546020820152600b82015460409091019060ff1660038111156122b657634e487b7160e01b600052602160045260246000fd5b6155c0612549565b6155c8618c07565b60005b602960009054906101000a90046001600160a01b03166001600160a01b0316637d630cb06040518163ffffffff1660e01b815260040160206040518083038186803b15801561561957600080fd5b505afa15801561562d573d6000803e3d6000fd5b505050506040513d601f19601f820116820180604052508101906156519190619c85565b8110156158b2576000615662618dd0565b60215460009081526014602052604090206004015462010000900460ff16151560011480156156b457506156976021546115cf565b806156b45750602154600090815260146020526040902060030154155b156156fa57602154600090815260146020526040902060040154610100900460ff166156e5576156e5602154617280565b6021546156f3906001618eb0565b6021555060015b60225460009081526014602052604090206004015462010000900460ff1615156001148015906157b15750602960009054906101000a90046001600160a01b03166001600160a01b031663bd40ef4c6040518163ffffffff1660e01b815260040160206040518083038186803b15801561577357600080fd5b505afa158015615787573d6000803e3d6000fd5b505050506040513d601f19601f820116820180604052508101906157ab9190619c85565b601a5410155b80156157d1575060225460009081526014602052604090206004015460ff165b80156157e657506157e0613e98565b601d5414155b80156158835750602960009054906101000a90046001600160a01b03166001600160a01b031663c4a306f86040518163ffffffff1660e01b815260040160206040518083038186803b15801561583b57600080fd5b505afa15801561584f573d6000803e3d6000fd5b505050506040513d601f19601f820116820180604052508101906158739190619c85565b600154615880904261b469565b10155b1561589457615890618ebc565b5060015b8061589f57506158b2565b50806158aa8161b4e7565b9150506155cb565b5061284e616cb3565b6060600082116158dd5760405162461bcd60e51b8152600401610e9f9061a8d2565b6000826001600160401b0381111561590557634e487b7160e01b600052604160045260246000fd5b60405190808252806020026020018201604052801561592e578160200160208202803683370190505b509050600061593f61449d83618a0a565b949350505050565b606061595282616362565b61595b57600080fd5b600082815260146020526040902060090180546159779061b4ac565b80601f01602080910402602001604051908101604052809291908181526020018280546159a39061b4ac565b801561207d5780601f106159c55761010080835404028352916020019161207d565b820191906000526020600020905b8154815290600101906020018083116159d35750939695505050505050565b6001600160a01b031660009081526015602052604090206005015460ff1690565b6000615a37615a21336127d1565b3360009081526017602052604090205490616fdc565b905081811015615a595760405162461bcd60e51b8152600401610e9f9061ac3d565b6029546040805163ca64f9e760e01b815290516000926001600160a01b03169163ca64f9e7916004808301926020929190829003018186803b158015615a9e57600080fd5b505afa158015615ab2573d6000803e3d6000fd5b505050506040513d601f19601f82011682018060405250810190615ad691906199ba565b604051630895993360e11b81529091506001600160a01b0382169063112b326690615b07908690339060040161b2a7565b602060405180830381600087803b158015615b2157600080fd5b505af1158015615b35573d6000803e3d6000fd5b505050506040513d601f19601f82011682018060405250810190615b599190619bab565b615b755760405162461bcd60e51b8152600401610e9f9061aeeb565b3360009081526017602052604081208054859290615b9490849061b469565b909155505060405133907ffaeb7dbb9992397d26ea1944efd40c80b40f702faf69b46c67ad10aba68ccb7990615bcb908690619eb5565b60405180910390a2505050565b60275481565b6060615be982616362565b615c055760405162461bcd60e51b8152600401610e9f9061acb9565b600082815260146020908152604080832081516101c0810183528154815260018201549381019390935260028101549183019190915260038101546060830152600481015460ff808216151560808501526101008083048216151560a08601526201000090920416151560c0840152600582015460e08401526006820154908301526007810154610120830152600881015461014083015260098101805461016084019190615cb39061b4ac565b80601f0160208091040260200160405190810160405280929190818152602001828054615cdf9061b4ac565b8015615d2c5780601f10615d0157610100808354040283529160200191615d2c565b820191906000526020600020905b815481529060010190602001808311615d0f57829003601f168201915b5050509183525050600a8201546020820152600b82015460409091019060ff166003811115615d6b57634e487b7160e01b600052602160045260246000fd5b6003811115615d8a57634e487b7160e01b600052602160045260246000fd5b90525060208101519091506000816001600160401b03811115615dbd57634e487b7160e01b600052604160045260246000fd5b604051908082528060200260200182016040528015615df057816020015b6060815260200190600190039081615ddb5790505b50905060005b828110156115c6578351600090615e0e90839061b41e565b600081815260136020526040812080549293509091615e2c9061b4ac565b80601f0160208091040260200160405190810160405280929190818152602001828054615e589061b4ac565b8015615ea55780601f10615e7a57610100808354040283529160200191615ea5565b820191906000526020600020905b815481529060010190602001808311615e8857829003601f168201915b5050505050905080848481518110615ecd57634e487b7160e01b600052603260045260246000fd5b602002602001018190525050508080615ee59061b4e7565b915050615df6565b60215481565b60235481565b615f01616975565b6001600160a01b038116615f275760405162461bcd60e51b8152600401610e9f9061a382565b61176a81616f8c565b600082826040516020016139b092919061a0a6565b60235490565b3360009081526015602090815260409182902060295483516398a54e2b60e01b8152935191936001600160a01b03909116926398a54e2b92600480840193829003018186803b158015615f9d57600080fd5b505afa158015615fb1573d6000803e3d6000fd5b505050506040513d601f19601f82011682018060405250810190615fd59190619c85565b601b54601a54615fe5919061b41e565b106160025760405162461bcd60e51b8152600401610e9f9061adc7565b600581015460ff16156160275760405162461bcd60e51b8152600401610e9f9061a172565b602960009054906101000a90046001600160a01b03166001600160a01b0316639fb491f66040518163ffffffff1660e01b815260040160206040518083038186803b15801561607557600080fd5b505afa158015616089573d6000803e3d6000fd5b505050506040513d601f19601f820116820180604052508101906160ad9190619c85565b8160030154101580156161525750602960009054906101000a90046001600160a01b03166001600160a01b0316630f1f0ffe6040518163ffffffff1660e01b815260040160206040518083038186803b15801561610957600080fd5b505afa15801561611d573d6000803e3d6000fd5b505050506040513d601f19601f820116820180604052508101906161419190619c85565b6006820154616150904261b469565b105b1561616f5760405162461bcd60e51b8152600401610e9f9061ae09565b602954604080516001624ee91360e11b0319815290516000926001600160a01b03169163ff622dda916004808301926020929190829003018186803b1580156161b757600080fd5b505afa1580156161cb573d6000803e3d6000fd5b505050506040513d601f19601f820116820180604052508101906161ef9190619c85565b905060006161fd3383613203565b6001600160a01b038116600090815260176020526040902054909150821115616252576001600160a01b038116600090815260176020526040812054616244908490616fdc565b90506162508183616fe8565b505b336000908152601760205260409020548211156162815760405162461bcd60e51b8152600401610e9f9061a773565b61628a33617210565b6162d157601a80546001810182556000919091527f057c384a7d1c54f3a1b2e5e67b2617b8224fdfd1ea7234eea573a6ff665ff63e0180546001600160a01b031916331790555b8254336001600160a01b031990911617835560058301805460ff1916600190811761ff0019169091554260068501556000600385018190556023805490919061631b90849061b41e565b909155506163299050616cb3565b336001600160a01b03167f439d77b7534ec3108fc6143bd4fbabde0b9f2bb54f7b0730d1f70dd2135b765f42604051615bcb9190619eb5565b602054101590565b3360009081526015602052604090206005015460ff1690565b60255490565b6028546001600160a01b031681565b6001600160a01b038082166000908152601560209081526040808320815161014081018352815490951685526001810154928501839052600281015460ff90811615159286019290925260038101546060860152600481015460808601526005810154808316151560a087015261010090819004909216151560c0860152600681015460e08601526007810154918501919091526008015461012084015290919061644384826129a0565b1580156164545750616454816127e0565b15611903575060009392505050565b606060008311801561647457508183105b6164905760405162461bcd60e51b8152600401610e9f9061a6e6565b6000835b61649f84600161b41e565b81101561665657600081815260146020908152604080832081516101c0810183528154815260018201549381019390935260028101549183019190915260038101546060830152600481015460ff808216151560808501526101008083048216151560a08601526201000090920416151560c0840152600582015460e084015260068201549083015260078101546101208301526008810154610140830152600981018054610160840191906165549061b4ac565b80601f01602080910402602001604051908101604052809291908181526020018280546165809061b4ac565b80156165cd5780601f106165a2576101008083540402835291602001916165cd565b820191906000526020600020905b8154815290600101906020018083116165b057829003601f168201915b5050509183525050600a8201546020820152600b82015460409091019060ff16600381111561660c57634e487b7160e01b600052602160045260246000fd5b600381111561662b57634e487b7160e01b600052602160045260246000fd5b9052506020810151909150616640908461b41e565b925050808061664e9061b4e7565b915050616494565b506000816001600160401b0381111561667f57634e487b7160e01b600052604160045260246000fd5b6040519080825280602002602001820160405280156166b257816020015b606081526020019060019003908161669d5790505b509050845b6166c285600161b41e565b8110156115c657600081815260146020908152604080832081516101c0810183528154815260018201549381019390935260028101549183019190915260038101546060830152600481015460ff808216151560808501526101008083048216151560a08601526201000090920416151560c0840152600582015460e084015260068201549083015260078101546101208301526008810154610140830152600981018054610160840191906167779061b4ac565b80601f01602080910402602001604051908101604052809291908181526020018280546167a39061b4ac565b80156167f05780601f106167c5576101008083540402835291602001916167f0565b820191906000526020600020905b8154815290600101906020018083116167d357829003601f168201915b5050509183525050600a8201546020820152600b82015460409091019060ff16600381111561682f57634e487b7160e01b600052602160045260246000fd5b600381111561684e57634e487b7160e01b600052602160045260246000fd5b905250905060005b816020015181101561695157815160009061687290839061b41e565b6000818152601360205260408120805492935090916168909061b4ac565b80601f01602080910402602001604051908101604052809291908181526020018280546168bc9061b4ac565b80156169095780601f106168de57610100808354040283529160200191616909565b820191906000526020600020905b8154815290600101906020018083116168ec57829003601f168201915b505050505090508086848151811061693157634e487b7160e01b600052603260045260246000fd5b6020026020010181905250505080806169499061b4e7565b915050616856565b5050808061695e9061b4e7565b9150506166b7565b6029546001600160a01b031681565b61697d61955b565b6001600160a01b031661698e6136e6565b6001600160a01b03161461284e5760405162461bcd60e51b8152600401610e9f9061a9ed565b600080805b601c54811015616a2457836001600160a01b0316601c82815481106169ee57634e487b7160e01b600052603260045260246000fd5b6000918252602090912001546001600160a01b03161415616a125760019150616a24565b80616a1c8161b4e7565b9150506169b9565b5092915050565b60008060005b601a54811015616a9f57836001600160a01b0316601a8281548110616a6657634e487b7160e01b600052603260045260246000fd5b6000918252602090912001546001600160a01b03161415616a8d5760019150809250616a9f565b80616a978161b4e7565b915050616a31565b508015616b7e57601a8054616ab69060019061b469565b81548110616ad457634e487b7160e01b600052603260045260246000fd5b600091825260209091200154601a80546001600160a01b039092169184908110616b0e57634e487b7160e01b600052603260045260246000fd5b9060005260206000200160006101000a8154816001600160a01b0302191690836001600160a01b03160217905550601a805480616b5b57634e487b7160e01b600052603160045260246000fd5b600082815260209020810160001990810180546001600160a01b03191690550190555b505050565b60008060005b601b54811015616bf757836001600160a01b0316601b8281548110616bbe57634e487b7160e01b600052603260045260246000fd5b6000918252602090912001546001600160a01b03161415616be55760019150809250616bf7565b80616bef8161b4e7565b915050616b89565b508015616b7e57601b8054616c0e9060019061b469565b81548110616c2c57634e487b7160e01b600052603260045260246000fd5b600091825260209091200154601b80546001600160a01b039092169184908110616c6657634e487b7160e01b600052603260045260246000fd5b9060005260206000200160006101000a8154816001600160a01b0302191690836001600160a01b03160217905550601b805480616b5b57634e487b7160e01b600052603160045260246000fd5b60295460408051632abe0d5f60e11b815290516000926001600160a01b03169163557c1abe916004808301926020929190829003018186803b158015616cf857600080fd5b505afa925050508015616d28575060408051601f3d908101601f19168201909252616d25918101906199ba565b60015b616d87573d808015616d56576040519150601f19603f3d011682016040523d82523d6000602084013e616d5b565b606091505b5060008051602061b56e83398151915281604051616d799190619ff3565b60405180910390a150616d89565b505b602960009054906101000a90046001600160a01b03166001600160a01b031663557c1abe6040518163ffffffff1660e01b815260040160206040518083038186803b158015616dd757600080fd5b505afa158015616deb573d6000803e3d6000fd5b505050506040513d601f19601f82011682018060405250810190616e0f91906199ba565b90506001600160a01b038116616e375760405162461bcd60e51b8152600401610e9f9061a574565b6000816001600160a01b031633604051602401616e549190619ee8565b60408051601f198184030181529181526020820180516001600160e01b0316631f5ac9c560e11b17905251616e899190619ebe565b6000604051808303816000865af19150503d8060008114616ec6576040519150601f19603f3d011682016040523d82523d6000602084013e616ecb565b606091505b505090506000826001600160a01b031633604051602401616eec9190619ee8565b60408051601f198184030181529181526020820180516001600160e01b03166358563d2160e01b17905251616f219190619ebe565b6000604051808303816000865af19150503d8060008114616f5e576040519150601f19603f3d011682016040523d82523d6000602084013e616f63565b606091505b505090508180616f705750805b616b7e5760405162461bcd60e51b8152600401610e9f9061a1fa565b600080546001600160a01b038381166001600160a01b0319831681178455604051919092169283917f8be0079c531659141344cd1fd0a4f28419497f9722a3daafe3b4186f6b6457e09190a35050565b6000611069828461b469565b6029546040805163ca64f9e760e01b815290516000926001600160a01b03169163ca64f9e7916004808301926020929190829003018186803b15801561702d57600080fd5b505afa158015617041573d6000803e3d6000fd5b505050506040513d601f19601f8201168201806040525081019061706591906199ba565b6001600160a01b0316141561708c5760405162461bcd60e51b8152600401610e9f9061ab16565b6029546040805163ca64f9e760e01b815290516000926001600160a01b03169163ca64f9e7916004808301926020929190829003018186803b1580156170d157600080fd5b505afa1580156170e5573d6000803e3d6000fd5b505050506040513d601f19601f8201168201806040525081019061710991906199ba565b6040516304ada21f60e21b81529091506001600160a01b038216906312b6887c9061713a908690869060040161b2a7565b602060405180830381600087803b15801561715457600080fd5b505af1158015617168573d6000803e3d6000fd5b505050506040513d601f19601f8201168201806040525081019061718c9190619bab565b6171a85760405162461bcd60e51b8152600401610e9f9061a5f0565b6001600160a01b038216600090815260176020526040812080548592906171d090849061b41e565b92505081905550816001600160a01b03167f5aa5d56140767016c877a5333ac3e1ad31a09051098a8fdf7297c4b64530a94284604051615bcb9190619eb5565b600080805b601a54811015616a2457836001600160a01b0316601a828154811061724a57634e487b7160e01b600052603260045260246000fd5b6000918252602090912001546001600160a01b0316141561726e5760019150616a24565b806172788161b4e7565b915050617215565b60295460408051632a49798160e11b815290516000926001600160a01b031691635492f302916004808301926020929190829003018186803b1580156172c557600080fd5b505afa1580156172d9573d6000803e3d6000fd5b505050506040513d601f19601f820116820180604052508101906172fd91906199ba565b6001600160a01b031614156173245760405162461bcd60e51b8152600401610e9f9061af48565b60295460408051630855d15160e01b815290516000926001600160a01b031691630855d151916004808301926020929190829003018186803b15801561736957600080fd5b505afa15801561737d573d6000803e3d6000fd5b505050506040513d601f19601f820116820180604052508101906173a191906199ba565b6001600160a01b031614156173c85760405162461bcd60e51b8152600401610e9f9061ac84565b602954604080516304e76c8f60e01b815290516000926001600160a01b0316916304e76c8f916004808301926020929190829003018186803b15801561740d57600080fd5b505afa158015617421573d6000803e3d6000fd5b505050506040513d601f19601f8201168201806040525081019061744591906199ba565b6001600160a01b0316141561746c5760405162461bcd60e51b8152600401610e9f9061a45b565b617475816115cf565b8061748f5750600081815260146020526040902060030154155b6174ab5760405162461bcd60e51b8152600401610e9f9061aa72565b600081815260146020526040902060040154610100900460ff16156174e25760405162461bcd60e51b8152600401610e9f9061acf0565b60008181526019602090815260408083208054825181850281018501909352808352919290919083018282801561754257602002820191906000526020600020905b81546001600160a01b03168152600190910190602001808311617524575b50505050509050600081516001600160401b0381111561757257634e487b7160e01b600052604160045260246000fd5b6040519080825280602002602001820160405280156175a557816020015b60608152602001906001900390816175905790505b509050600082516001600160401b038111156175d157634e487b7160e01b600052604160045260246000fd5b6040519080825280602002602001820160405280156175fa578160200160208202803683370190505b50905060005b835181101561777d57600084828151811061762b57634e487b7160e01b600052603260045260246000fd5b6020908102919091018101516000888152600d835260408082206001600160a01b03841683529093529182208054919350906176669061b4ac565b80601f01602080910402602001604051908101604052809291908181526020018280546176929061b4ac565b80156176df5780601f106176b4576101008083540402835291602001916176df565b820191906000526020600020905b8154815290600101906020018083116176c257829003601f168201915b50505060008a8152600e602090815260408083206001600160a01b03891684529091529020548851939450928492508891508690811061772f57634e487b7160e01b600052603260045260246000fd5b60200260200101819052508085858151811061775b57634e487b7160e01b600052603260045260246000fd5b60200260200101818152505050505080806177759061b4e7565b915050617600565b5060006178286064602960009054906101000a90046001600160a01b03166001600160a01b031663ea19733c6040518163ffffffff1660e01b815260040160206040518083038186803b1580156177d357600080fd5b505afa1580156177e7573d6000803e3d6000fd5b505050506040513d601f19601f8201168201806040525081019061780b9190619c85565b8651617817919061b44a565b617821919061b436565b600161955f565b60408051602081019091526000808252919250905b8451811015617926576000805b86518110156178db576178ab87848151811061787657634e487b7160e01b600052603260045260246000fd5b602002602001015188838151811061789e57634e487b7160e01b600052603260045260246000fd5b6020026020010151613a42565b156178c9576178bb60018361b41e565b91508482106178c9576178db565b806178d38161b4e7565b91505061784a565b508381106179135785828151811061790357634e487b7160e01b600052603260045260246000fd5b6020026020010151925050617926565b508061791e8161b4e7565b91505061783d565b506000805b8451811015617a0d576000805b86518110156179c25786818151811061796157634e487b7160e01b600052603260045260246000fd5b602002602001015187848151811061798957634e487b7160e01b600052603260045260246000fd5b602002602001015114156179b0576179a260018361b41e565b91508582106179b0576179c2565b806179ba8161b4e7565b915050617938565b508481106179fa578582815181106179ea57634e487b7160e01b600052603260045260246000fd5b6020026020010151925050617a0d565b5080617a058161b4e7565b91505061792b565b506000617a1988611b90565b8015617a3b5750617a398360405180602001604052806000815250613a42565b155b8015617a4657508115155b905060005b87518110156181be576000888281518110617a7657634e487b7160e01b600052603260045260246000fd5b602002602001015190506000600c60008c81526020019081526020016000206000836001600160a01b03166001600160a01b031681526020019081526020016000205490506000600b6000846001600160a01b03166001600160a01b0316815260200190815260200160002060008d815260200190815260200160002060009054906101000a900460ff169050600060156000856001600160a01b03166001600160a01b031681526020019081526020016000209050811561803e576001600160a01b038416600090815260156020526040812060028101805460ff19166001908117909155600390910191909155861515148015617b755750826001145b80617b8a575085158015617b8a575082600114155b1561801e5760295460408051632a49798160e11b815290516000926001600160a01b031691635492f302916004808301926020929190829003018186803b158015617bd457600080fd5b505afa158015617be8573d6000803e3d6000fd5b505050506040513d601f19601f82011682018060405250810190617c0c91906199ba565b90506000602960009054906101000a90046001600160a01b03166001600160a01b0316630855d1516040518163ffffffff1660e01b815260040160206040518083038186803b158015617c5e57600080fd5b505afa158015617c72573d6000803e3d6000fd5b505050506040513d601f19601f82011682018060405250810190617c9691906199ba565b90506000602960009054906101000a90046001600160a01b03166001600160a01b03166304e76c8f6040518163ffffffff1660e01b815260040160206040518083038186803b158015617ce857600080fd5b505afa158015617cfc573d6000803e3d6000fd5b505050506040513d601f19601f82011682018060405250810190617d2091906199ba565b90506000836001600160a01b03166311815086896040518263ffffffff1660e01b8152600401617d509190619ee8565b60206040518083038186803b158015617d6857600080fd5b505afa158015617d7c573d6000803e3d6000fd5b505050506040513d601f19601f82011682018060405250810190617da091906199ba565b9050826001600160a01b0316631b6d990a8c602960009054906101000a90046001600160a01b03166001600160a01b0316630b08bfd96040518163ffffffff1660e01b815260040160206040518083038186803b158015617e0057600080fd5b505afa158015617e14573d6000803e3d6000fd5b505050506040513d601f19601f82011682018060405250810190617e389190619c85565b617e42919061b44a565b836040518363ffffffff1660e01b8152600401617e6092919061b2be565b602060405180830381600087803b158015617e7a57600080fd5b505af1158015617e8e573d6000803e3d6000fd5b505050506040513d601f19601f82011682018060405250810190617eb29190619bab565b617ece5760405162461bcd60e51b8152600401610e9f9061a5ab565b816001600160a01b031663e0ca50948c602960009054906101000a90046001600160a01b03166001600160a01b031663f80de0a06040518163ffffffff1660e01b815260040160206040518083038186803b158015617f2c57600080fd5b505afa158015617f40573d6000803e3d6000fd5b505050506040513d601f19601f82011682018060405250810190617f649190619c85565b617f6e919061b44a565b836040518363ffffffff1660e01b8152600401617f8c92919061b2a7565b602060405180830381600087803b158015617fa657600080fd5b505af1158015617fba573d6000803e3d6000fd5b505050506040513d601f19601f82011682018060405250810190617fde9190619bab565b617ffa5760405162461bcd60e51b8152600401610e9f9061aacf565b600185600701600082825461800f919061b41e565b90915550618039945050505050565b6001816008016000828254618033919061b41e565b90915550505b61812c565b6001600160a01b038416600090815260156020526040812060030180546001929061806a90849061b41e565b909155505060295460408051634fda48fb60e11b815290516001600160a01b0390921691639fb491f691600480820192602092909190829003018186803b1580156180b457600080fd5b505afa1580156180c8573d6000803e3d6000fd5b505050506040513d601f19601f820116820180604052508101906180ec9190619c85565b6001600160a01b038516600090815260156020526040902060030154141561812c5760058101805460ff1916905561812384616a2b565b61812c84616b83565b60006001820155600581015460ff16801561814d575061814b84617210565b155b156181a75761815b84616b83565b601a80546001810182556000919091527f057c384a7d1c54f3a1b2e5e67b2617b8224fdfd1ea7234eea573a6ff665ff63e0180546001600160a01b0319166001600160a01b0386161790555b5050505080806181b69061b4e7565b915050617a4b565b50600088815260146020908152604090912060048101805461ff00191661010017905584516181f5926009909201918601906197c5565b506000888152601460205260409020600a0182905580156189095760008881526014602052604081208054600190910154909190618233908361b41e565b9050815b818110156186d6576000818152601360209081526040808320600101546029548251632a49798160e11b815292516001600160a01b0392831695949190921692635492f3029260048083019392829003018186803b15801561829857600080fd5b505afa1580156182ac573d6000803e3d6000fd5b505050506040513d601f19601f820116820180604052508101906182d091906199ba565b90506000602960009054906101000a90046001600160a01b03166001600160a01b0316630855d1516040518163ffffffff1660e01b815260040160206040518083038186803b15801561832257600080fd5b505afa158015618336573d6000803e3d6000fd5b505050506040513d601f19601f8201168201806040525081019061835a91906199ba565b90506000602960009054906101000a90046001600160a01b03166001600160a01b03166304e76c8f6040518163ffffffff1660e01b815260040160206040518083038186803b1580156183ac57600080fd5b505afa1580156183c0573d6000803e3d6000fd5b505050506040513d601f19601f820116820180604052508101906183e491906199ba565b90506000836001600160a01b03166311815086866040518263ffffffff1660e01b81526004016184149190619ee8565b60206040518083038186803b15801561842c57600080fd5b505afa158015618440573d6000803e3d6000fd5b505050506040513d601f19601f8201168201806040525081019061846491906199ba565b9050826001600160a01b0316631b6d990a8b602960009054906101000a90046001600160a01b03166001600160a01b031663abb10b9b6040518163ffffffff1660e01b815260040160206040518083038186803b1580156184c457600080fd5b505afa1580156184d8573d6000803e3d6000fd5b505050506040513d601f19601f820116820180604052508101906184fc9190619c85565b618506919061b44a565b836040518363ffffffff1660e01b815260040161852492919061b2be565b602060405180830381600087803b15801561853e57600080fd5b505af1158015618552573d6000803e3d6000fd5b505050506040513d601f19601f820116820180604052508101906185769190619bab565b6185925760405162461bcd60e51b8152600401610e9f9061a884565b816001600160a01b031663e0ca50948b602960009054906101000a90046001600160a01b03166001600160a01b03166330c0bb796040518163ffffffff1660e01b815260040160206040518083038186803b1580156185f057600080fd5b505afa158015618604573d6000803e3d6000fd5b505050506040513d601f19601f820116820180604052508101906186289190619c85565b618632919061b44a565b836040518363ffffffff1660e01b815260040161865092919061b2a7565b602060405180830381600087803b15801561866a57600080fd5b505af115801561867e573d6000803e3d6000fd5b505050506040513d601f19601f820116820180604052508101906186a29190619bab565b6186be5760405162461bcd60e51b8152600401610e9f9061aa22565b505050505080806186ce9061b4e7565b915050618237565b5060008a8152601460205260408120600b01805460ff19166001908117909155602480549192909161870990849061b41e565b909155505060295460408051637b39b17f60e11b815290516000926001600160a01b03169163f67362fe916004808301926020929190829003018186803b15801561875357600080fd5b505afa158015618767573d6000803e3d6000fd5b505050506040513d601f19601f8201168201806040525081019061878b91906199ba565b6001600160a01b031614156187b25760405162461bcd60e51b8152600401610e9f9061a49e565b60295460408051637b39b17f60e11b815290516000926001600160a01b03169163f67362fe916004808301926020929190829003018186803b1580156187f757600080fd5b505afa15801561880b573d6000803e3d6000fd5b505050506040513d601f19601f8201168201806040525081019061882f91906199ba565b6040516348257dc960e01b81529091506001600160a01b038216906348257dc99061885e908e90600401619eb5565b600060405180830381600087803b15801561887857600080fd5b505af1925050508015618889575060015b6188e8573d8080156188b7576040519150601f19603f3d011682016040523d82523d6000602084013e6188bc565b606091505b5060008051602061b56e833981519152816040516188da9190619ff3565b60405180910390a150618901565b6001602360008282546188fb919061b41e565b90915550505b50505061893e565b6000888152601460205260408120600b01805460ff19166002179055602580546001929061893890849061b41e565b90915550505b600160236000828254618951919061b41e565b9091555050600088815260146020526040812060020154602680549192909161897b90849061b41e565b909155505060008881526014602052604081206003015460278054919290916189a590849061b41e565b909155505060008881526013602052604090819020600181015491516001600160a01b03909216917f43916c3ae75995d24cc89b466ed08e6dba74d325f7957f9b37b05f150e12918e916189f89161a0c8565b60405180910390a25050505050505050565b805160609060005b81811015618a585780848281518110618a3b57634e487b7160e01b600052603260045260246000fd5b602090810291909101015280618a508161b4e7565b915050618a12565b509192915050565b60606000825111618a835760405162461bcd60e51b8152600401610e9f9061a4ea565b81518060005b81811015618bfe57600083618a9c613e98565b878481518110618abc57634e487b7160e01b600052603260045260246000fd5b6020026020010151604051602001618ad5929190619eda565b6040516020818303038152906040528051906020012060001c618af8919061b502565b618b0390600161b41e565b9050600086618b1360018461b469565b81518110618b3157634e487b7160e01b600052603260045260246000fd5b6020026020010151905086600186618b49919061b469565b81518110618b6757634e487b7160e01b600052603260045260246000fd5b602002602001015187600184618b7d919061b469565b81518110618b9b57634e487b7160e01b600052603260045260246000fd5b60209081029190910101528087618bb360018861b469565b81518110618bd157634e487b7160e01b600052603260045260246000fd5b6020908102919091010152618be760018661b469565b945050508080618bf69061b4e7565b915050618a89565b50929392505050565b6000601f54602154618c19919061b469565b9050602960009054906101000a90046001600160a01b03166001600160a01b031663e3115d3c6040518163ffffffff1660e01b815260040160206040518083038186803b158015618c6957600080fd5b505afa158015618c7d573d6000803e3d6000fd5b505050506040513d601f19601f82011682018060405250810190618ca19190619c85565b81111561176a5760005b602954604080516307d630cb60e41b81529051618d2f926001600160a01b031691637d630cb0916004808301926020929190829003018186803b158015618cf157600080fd5b505afa158015618d05573d6000803e3d6000fd5b505050506040513d601f19601f82011682018060405250810190618d299190619c85565b83619576565b8110156126fe57601f5460009081526014602052604081208054600190910154909190618d5c908361b41e565b9050815b81811015618d8357618d7181611ddc565b80618d7b8161b4e7565b915050618d60565b50618d8f601f54612702565b601f546040517f72c2fcc891fe835b86fc8bb9abdc52adf52499c52289b3c49e1461eabea2717590600090a250508080618dc89061b4e7565b915050618cab565b60005b601c5481101561176a576000601c8281548110618e0057634e487b7160e01b600052603260045260246000fd5b60009182526020808320909101546001600160a01b031680835260159091526040909120600181015491925090618e9b5760058101805461ffff19169055618e4782619585565b618e5082616a2b565b618e5982616b83565b816001600160a01b03167f9dadcedba048e92b943ea1c5861cee1df63a566d7f795869c004780c1c698e2b42604051618e929190619eb5565b60405180910390a25b50508080618ea89061b4e7565b915050618dd3565b6000611069828461b41e565b60225460009081526014602052604090206004015460ff16618ef05760405162461bcd60e51b8152600401610e9f9061aba1565b60225460009081526014602052604090206004015462010000900460ff1615618f2b5760405162461bcd60e51b8152600401610e9f9061a91f565b600061904f618fc4601a80549050602960009054906101000a90046001600160a01b03166001600160a01b031663dfeceed76040518163ffffffff1660e01b815260040160206040518083038186803b158015618f8757600080fd5b505afa158015618f9b573d6000803e3d6000fd5b505050506040513d601f19601f82011682018060405250810190618fbf9190619c85565b619576565b602960009054906101000a90046001600160a01b03166001600160a01b031663bd40ef4c6040518163ffffffff1660e01b815260040160206040518083038186803b15801561901257600080fd5b505afa158015619026573d6000803e3d6000fd5b505050506040513d601f19601f8201168201806040525081019061904a9190619c85565b61955f565b601a546029546040805163189460df60e31b8152905193945091926001600160a01b039091169163c4a306f8916004808301926020929190829003018186803b15801561909b57600080fd5b505afa1580156190af573d6000803e3d6000fd5b505050506040513d601f19601f820116820180604052508101906190d39190619c85565b6001546190e0904261b469565b106126fe57602280546000908152601460209081526040808320600301869055925482528282206002018590556029548351631b4930b560e11b81529351929361918f936001600160a01b0390921692633692616a92600480840193829003018186803b15801561915057600080fd5b505afa158015619164573d6000803e3d6000fd5b505050506040513d601f19601f820116820180604052508101906191889190619c85565b4290618eb0565b90506000619223602960009054906101000a90046001600160a01b03166001600160a01b03166372e540306040518163ffffffff1660e01b815260040160206040518083038186803b1580156191e457600080fd5b505afa1580156191f8573d6000803e3d6000fd5b505050506040513d601f19601f8201168201806040525081019061921c9190619c85565b8390618eb0565b60228054600090815260146020526040808220600501869055825482528082206006018490559154815220600401805462ff0000191662010000179055905060018410801590619274575060018310155b6192905760405162461bcd60e51b8152600401610e9f9061a411565b600061929c85856143ac565b9050600081516001600160401b038111156192c757634e487b7160e01b600052604160045260246000fd5b6040519080825280602002602001820160405280156192f0578160200160208202803683370190505b50905060005b82518110156193af57601a83828151811061932157634e487b7160e01b600052603260045260246000fd5b60200260200101518154811061934757634e487b7160e01b600052603260045260246000fd5b9060005260206000200160009054906101000a90046001600160a01b031682828151811061938557634e487b7160e01b600052603260045260246000fd5b6001600160a01b0390921660209283029190910190910152806193a78161b4e7565b9150506192f6565b5060005b82518110156195175760008282815181106193de57634e487b7160e01b600052603260045260246000fd5b60200260200101519050600060156000836001600160a01b03166001600160a01b03168152602001908152602001600020905061941a82616a2b565b619423826196b5565b61947357601b80546001810182556000919091527f3ad8aa4f87544323a9d1e5dd902f40c356527a7955687113db5f9a85ad579dc10180546001600160a01b0319166001600160a01b0384161790555b6022805460009081526019602090815260408083208054600180820183559185529290932090910180546001600160a01b0319166001600160a01b03871617905582549184019190915560028301805460ff19169055905490517fe4ee2dfabe57cee15e3f558890b20455f54c1fa0718e5276faad70a6500e6b8c906194fa908590619ee8565b60405180910390a25050808061950f9061b4e7565b9150506193b3565b5042600190815560225461952a91618eb0565b602255619535613e98565b601d8190555060016023600082825461954e919061b41e565b9091555050505050505050565b3390565b60008183101561956f5781611069565b5090919050565b600081831061956f5781611069565b60008060005b601c548110156195f957836001600160a01b0316601c82815481106195c057634e487b7160e01b600052603260045260246000fd5b6000918252602090912001546001600160a01b031614156195e757600191508092506195f9565b806195f18161b4e7565b91505061958b565b508015616b7e57601c80546196109060019061b469565b8154811061962e57634e487b7160e01b600052603260045260246000fd5b600091825260209091200154601c80546001600160a01b03909216918490811061966857634e487b7160e01b600052603260045260246000fd5b9060005260206000200160006101000a8154816001600160a01b0302191690836001600160a01b03160217905550601c805480616b5b57634e487b7160e01b600052603160045260246000fd5b600080805b601b54811015616a2457836001600160a01b0316601b82815481106196ef57634e487b7160e01b600052603260045260246000fd5b6000918252602090912001546001600160a01b031614156197135760019150616a24565b8061971d8161b4e7565b9150506196ba565b5080546197319061b4ac565b6000825580601f10619743575061176a565b601f01602090049060005260206000209081019061176a91906198d7565b6040518060e001604052806060815260200160006001600160a01b0316815260200160008152602001600081526020016060815260200160608152602001600060038111156197c057634e487b7160e01b600052602160045260246000fd5b905290565b8280546197d19061b4ac565b90600052602060002090601f0160209004810192826197f35760008555619839565b82601f1061980c57805160ff1916838001178555619839565b82800160010185558215619839579182015b8281111561983957825182559160200191906001019061981e565b506198459291506198d7565b5090565b604051806101c0016040528060008152602001600081526020016000815260200160008152602001600015158152602001600015158152602001600015158152602001600081526020016000815260200160008152602001600081526020016060815260200160008152602001600060038111156197c057634e487b7160e01b600052602160045260246000fd5b5b8082111561984557600081556001016198d8565b60008083601f8401126198fd578182fd5b5081356001600160401b03811115619913578182fd5b602083019150836020808302850101111561992d57600080fd5b9250929050565b600082601f830112619944578081fd5b81356001600160401b0381111561995d5761995d61b542565b619970601f8201601f191660200161b3c6565b818152846020838601011115619984578283fd5b816020850160208301379081016020019190915292915050565b6000602082840312156199af578081fd5b81356119038161b558565b6000602082840312156199cb578081fd5b81516119038161b558565b600080604083850312156199e8578081fd5b82356199f38161b558565b946020939093013593505050565b600080600060608486031215619a15578081fd5b8335619a208161b558565b95602085013595506040909401359392505050565b600080600080600060808688031215619a4c578081fd5b85356001600160401b0380821115619a62578283fd5b818801915088601f830112619a75578283fd5b81356020619a8a619a858361b3ef565b61b3c6565b82815281810190858301875b85811015619abf57619aad8f8684358b0101619934565b84529284019290840190600101619a96565b50909a50505089013592505080821115619ad7578283fd5b619ae389838a016198ec565b9096509450604088013593506060880135915080821115619b02578283fd5b50619b0f88828901619934565b9150509295509295909350565b60006020808385031215619b2e578182fd5b82356001600160401b03811115619b43578283fd5b8301601f81018513619b53578283fd5b8035619b61619a858261b3ef565b8181528381019083850185840285018601891015619b7d578687fd5b8694505b83851015619b9f578035835260019490940193918501918501619b81565b50979650505050505050565b600060208284031215619bbc578081fd5b81518015158114611903578182fd5b60008060408385031215619bdd578182fd5b82356001600160401b0380821115619bf3578384fd5b619bff86838701619934565b93506020850135915080821115619c14578283fd5b50619c2185828601619934565b9150509250929050565b60008060408385031215619c3d578182fd5b82356001600160401b03811115619c52578283fd5b619c5e85828601619934565b95602094909401359450505050565b600060208284031215619c7e578081fd5b5035919050565b600060208284031215611a31578081fd5b60008060408385031215619ca8578182fd5b823591506020830135619cba8161b558565b809150509250929050565b600080600080600060a08688031215619cdc578283fd5b8535945060208601359350604086013592506060860135915060808601356001600160401b03811115619d0d578182fd5b619b0f88828901619934565b60008060008060808587031215619d2e578182fd5b8435935060208501356001600160401b03811115619d4a578283fd5b619d5687828801619934565b949794965050505060408301359260600135919050565b60008060408385031215619d7f578182fd5b50508035926020909101359150565b60008060008060808587031215619da3578182fd5b84359350602085013592506040850135619dbc8161b558565b9396929550929360600135925050565b15159052565b60008151808452619dea81602086016020860161b480565b601f01601f19169290920160200192915050565b60048110619e1c57634e487b7160e01b600052602160045260246000fd5b9052565b600a815269636f6d6d6974566f746560b01b602082015260400190565b600a8152690c6dedadad2e890c2e6d60b31b602082015260400190565b60098152686e756d546f6b656e7360b81b602082015260400190565b60609190911b6bffffffffffffffffffffffff1916815260140190565b60609290921b6bffffffffffffffffffffffff19168252601482015260340190565b90815260200190565b60008251619ed081846020870161b480565b9190910192915050565b918252602082015260400190565b6001600160a01b0391909116815260200190565b6001600160a01b039a909a168a5260208a0198909852951515604089015260608801949094526080870192909252151560a0860152151560c085015260e08401526101008301526101208201526101400190565b6000602080830181845280855180835260408601915060408482028701019250838701855b82811015619fa357603f19888603018452619f91858351619dd2565b94509285019290850190600101619f75565b5092979650505050505050565b6020808252825182820181905260009190848201906040850190845b8181101561365357835183529284019291840191600101619fcc565b901515815260200190565b6000602082526110696020830184619dd2565b600060e0825261a01960e083018a619dd2565b6001600160a01b03891660208401526040830188905260608301879052828103608084015261a0488187619dd2565b905082810360a084015261a05c8186619dd2565b91505061a06c60c0830184619dfe565b98975050505050505050565b60006040825261a08b6040830185619dd2565b828103602084015261a09d8185619dd2565b95945050505050565b60006040825261a0b96040830185619dd2565b90508260208301529392505050565b600060208083528184548360028204905060018083168061a0ea57607f831692505b85831081141561a10857634e487b7160e01b87526022600452602487fd5b61a11483878a01619eb5565b81801561a128576001811461a1395761a163565b60ff1986168252878201965061a163565b61a1428b61b412565b895b8681101561a15d5781548482015290850190890161a144565b83019750505b50949998505050505050505050565b6020808252601c908201527f576f726b657220697320616c7265616479207265676973746572656400000000604082015260600190565b60208082526031908201527f676976656e204461746142617463682073686f756c6420626520415050524f5660408201527011510b08185b99081a5d081a5cc81b9bdd607a1b606082015260800190565b60208082526025908201527f72656365697665722072656a6563746564205f7265747269657665534675656c6040820152640818d85b1b60da1b606082015260800190565b6020808252602f908201527f636f6d6d697420706572696f64206e6565647320746f206265206f70656e206660408201526e1bdc881d1a1a5cc818985d18da1259608a1b606082015260800190565b60208082526052908201527f4e6f74207468652073616d6520766f7465207468616e20636f6d6d697465642c60408201527f20696d706f737369626c6520746f206d61746368207769746820676976656e206060820152715f73616c742026205f636c656172566f746560701b608082015260a00190565b60208082526056908201527f4e6f74207468652073616d652068617368207468616e20636f6d6d697465642c60408201527f20696d706f737369626c6520746f206d61746368207769746820676976656e206060820152750bee6c2d8e8404c40bec6d8cac2e492a08ca690c2e6d60531b608082015260a00190565b60208082526026908201527f4f776e61626c653a206e6577206f776e657220697320746865207a65726f206160408201526564647265737360d01b606082015260800190565b60208082526029908201527f6b206f72204e20617265206e6f74204f4b20647572696e672072616e646f6d2060408201526839b2b632b1ba34b7b760b91b606082015260800190565b6020808252602a908201527f4661696c20647572696e6720616c6c6f636174696f6e3a206e6f7420656e6f75604082015269676820776f726b65727360b01b606082015260800190565b60208082526023908201527f5265776172644d616e61676572206973206e756c6c20696e20506172616d657460408201526265727360e81b606082015260800190565b6020808252602c908201527f436f6d706c69616e636553797374656d206e756c6c20696e20506172616d657460408201526b195c9cc810dbdb9d1c9858dd60a21b606082015260800190565b60208082526013908201527205f6d7941727261792e6c656e677468203e203606c1b604082015260600190565b60208082526038908201527f55736572206e6565647320746f20626520616c6c6f636174656420746f20746860408201527f697320626174636820746f20636f6d6d6974206f6e2069740000000000000000606082015260800190565b6020808252601d908201527f734675656c3a206e756c6c2041646472657373204e6f742056616c6964000000604082015260600190565b60208082526025908201527f636f756c64206e6f74207265776172642052455020696e2056616c69646174656040820152642c20312e6160d81b606082015260800190565b6020808252603f908201527f436f756c64206e6f74207265717565737420656e6f75676820616c6c6f63617460408201527f6564207374616b652c2072657175657374416c6c6f63617465645374616b6500606082015260800190565b6020808252602f908201527f5573657220686173206e6f7420636f6d6d69746564206265666f72652c20746860408201526e1d5cc818d85b89dd081c995d99585b608a1b606082015260800190565b6020808252602a908201527f53706f7474696e67206973206e6f742063757272656e746c7920656e61626c656040820152693210313c9027bbb732b960b11b606082015260800190565b6020808252601c908201527f496e70757420626f756e6461726965732061726520696e76616c696400000000604082015260600190565b60208082526036908201527f476c6f62616c206c696d69743a206578636565646564206d61782064617461206040820152753832b9103437bab916103932ba393c903630ba32b91760511b606082015260800190565b60208082526043908201527f576f726b657220686173206e6f7420656e6f75676820285f6e756d546f6b656e60408201527f732920696e206869732053797374656d5374616b6564546f6b656e42616c616e606082015262031b2960ed1b608082015260a00190565b60208082526039908201527f646c6c4d61703a20646f6573206e6f7420636f696e7461696e205f446174614260408201527f61746368496420666f7220746865206d73672073656e64657200000000000000606082015260800190565b6020808252602b908201527f75736572206d75737420686176652072657665616c656420696e20746869732060408201526a0ced2eccadc4084c2e8c6d60ab1b606082015260800190565b6020808252602e908201527f636f756c64206e6f74207265776172642052455020696e2056616c696461746560408201526d4461746142617463682c20322e6160901b606082015260800190565b60208082526005908201526404e203e20360dc1b604082015260600190565b6020808252601490820152733737ba1030903b30b634b2103837b9b4ba34b7b760611b604082015260600190565b6020808252603b908201527f43616e277420616c6c6f6361746520776f726b2c207468652063757272656e7460408201527f20626174636820697320616c726561647920616c6c6f63617465640000000000606082015260800190565b6020808252602c908201527f576f726b6572206973206e6f74207265676973746572656420736f2063616e2760408201526b3a103ab73932b3b4b9ba32b960a11b606082015260800190565b6020808252600b908201526a04e5f72616e6765203e20360ac1b604082015260600190565b6020808252818101527f4f776e61626c653a2063616c6c6572206973206e6f7420746865206f776e6572604082015260600190565b60208082526030908201527f636f756c64206e6f742072657761726420746f6b656e20696e2056616c69646160408201526f3a32a230ba30a130ba31b4161019173160811b606082015260800190565b6020808252603a908201527f5f446174614261746368496420686173206e6f7420656e6465642c206f72206e60408201527f6f7420657665727920766f74657273206861766520766f746564000000000000606082015260800190565b60208082526027908201527f636f756c64206e6f742072657761726420746f6b656e20696e2056616c6964616040820152663a32961018973160c91b606082015260800190565b60208082526022908201527f5374616b654d616e61676572206973206e756c6c20696e20506172616d657465604082015261727360f01b606082015260800190565b60208082526029908201527f6765744e756d50617373696e67546f6b656e733a20686173686573206d75737460408201526808189948195c5d585b60ba1b606082015260800190565b60208082526036908201527f43616e277420616c6c6f6361746520776f726b2c207468652063757272656e74604082015275206261746368206973206e6f7420636f6d706c65746560501b606082015260800190565b60208082526026908201527f52657665616c20706572696f64206e6f74206f70656e20666f7220746869732060408201526511185d18525160d21b606082015260800190565b60208082526027908201527f617661696c61626c65546f6b656e732073686f756c64206265203e3d205f6e756040820152666d546f6b656e7360c81b606082015260800190565b6020808252818101527f5265704d616e61676572206973206e756c6c20696e20506172616d6574657273604082015260600190565b60208082526017908201527f5f4461746142617463684964206d757374206578697374000000000000000000604082015260600190565b60208082526021908201527f5f446174614261746368496420697320616c72656164792076616c69646174656040820152601960fa1b606082015260800190565b6020808252602d908201527f53706f7474696e673a20696e70757420617272617973206d757374206265206f60408201526c0cc40e6c2daca40d8cadccee8d609b1b606082015260800190565b60208082526029908201527f557365722068617320616c726561647920636f6d6d6974656420746f207468696040820152681cc818985d18da125960ba1b606082015260800190565b60208082526022908201527f4d6178696d756d207265676973746572656420776f726b65727320616c726561604082015261647960f01b606082015260800190565b6020808252606c908201527f5573657220686173206e6f7420766f746564206d616e792074696d657320696e60408201527f206120726f7720616e64206e6565647320746f2077616974204e4f564f54455f60608201527f524547495354524154494f4e5f574149545f4455524154494f4e20746f20726560808201526b33b4b9ba32b91030b3b0b4b760a11b60a082015260c00190565b6020808252602a908201527f5f446174614261746368496420636865636b696e6720766f7465206d757374206040820152691a185d9948195b99195960b21b606082015260800190565b6020808252603b908201527f436f756c64206e6f74207769746864726177566f74696e67526967687473207460408201527f68726f7567682050726f78795374616b654465616c6c6f636174650000000000606082015260800190565b60208082526024908201527f416464726573734d616e61676572206973206e756c6c20696e20506172616d656040820152637465727360e01b606082015260800190565b60208082526034908201527f55736572206c696d69743a206578636565646564206d6178206461746120706560408201527339103437bab916103932ba393c903630ba32b91760611b606082015260800190565b6020808252600f908201526e11185d18481b5d5cdd08195e1a5cdd608a1b604082015260600190565b6020808252602c908201527f557365722068617320616c72656164792072657665616c65642c20746875732060408201526b18d85b89dd081c995d99585b60a21b606082015260800190565b60006020825282516020830152602083015160408301526040830151606083015260608301516080830152608083015161b09260a0840182619dcc565b5060a083015161b0a560c0840182619dcc565b5060c083015161b0b860e0840182619dcc565b5060e0830151610100838101919091528301516101208084019190915283015161014080840191909152830151610160808401919091528301516101c061018080850182905261b10c6101e0860184619dd2565b908601516101a0868101919091528601519092506151a382860182619dfe565b60008382528260208301526060604083015261593f60608301619e20565b60008482528360208301526080604083015261b16860808301619e20565b9050826060830152949350505050565b60008382528260208301526060604083015261593f60608301619e3d565b60008482528360208301526080604083015261b16860808301619e3d565b60008382528260208301526060604083015261593f60608301619e5a565b60008482528360208301526080604083015261b16860808301619e5a565b93845260208401929092526040830152606082015260800190565b600060208252825160e0602084015261b228610100840182619dd2565b905060018060a01b03602085015116604084015260408401516060840152606084015160808401526080840151601f19808584030160a086015261b26c8383619dd2565b925060a08601519150808584030160c08601525061b28a8282619dd2565b91505060c084015161b29f60e0850182619dfe565b509392505050565b9182526001600160a01b0316602082015260400190565b9182526001600160a01b031660208201526000604082015260600190565b9283526020830191909152604082015260600190565b60008f82528e60208301528d60408301528c60608301528b151560808301528a151560a083015261b32660c083018b619dcc565b8860e08301528761010083015286610120830152856101408301526101c061016083015261b3586101c0830186619dd2565b90508361018083015261b36f6101a0830184619dfe565b9f9e505050505050505050505050505050565b6000808335601e1984360301811261b398578283fd5b8301803591506001600160401b0382111561b3b1578283fd5b60200191503681900382131561992d57600080fd5b6040518181016001600160401b038111828210171561b3e75761b3e761b542565b604052919050565b60006001600160401b0382111561b4085761b40861b542565b5060209081020190565b60009081526020902090565b6000821982111561b4315761b43161b516565b500190565b60008261b4455761b44561b52c565b500490565b600081600019048311821515161561b4645761b46461b516565b500290565b60008282101561b47b5761b47b61b516565b500390565b60005b8381101561b49b57818101518382015260200161b483565b838111156120175750506000910152565b60028104600182168061b4c057607f821691505b6020821081141561b4e157634e487b7160e01b600052602260045260246000fd5b50919050565b600060001982141561b4fb5761b4fb61b516565b5060010190565b60008261b5115761b51161b52c565b500690565b634e487b7160e01b600052601160045260246000fd5b634e487b7160e01b600052601260045260246000fd5b634e487b7160e01b600052604160045260246000fd5b6001600160a01b038116811461176a57600080fdfe4b87bbd93ba65ede1e2efeca735d9f7a6720bf7d6db0a8355b17dba5b64e5783a2646970667358221220ee8b7fd94036c73427101691db777a917dc6a20e68677198bb3f381aa16672db64736f6c63430008000033",
			"opcodes": "PUSH1 0x80 PUSH1 0x40 MSTORE PUSH1 0x0 PUSH1 0x1 DUP2 DUP2 SSTORE PUSH1 0x1D DUP3 SWAP1 SSTORE PUSH1 0x1E DUP3 SWAP1 SSTORE PUSH1 0x1F DUP2 SWAP1 SSTORE PUSH1 0x20 DUP2 SWAP1 SSTORE PUSH1 0x21 DUP2 SWAP1 SSTORE PUSH1 0x22 SSTORE PUSH1 0x23 DUP2 SWAP1 SSTORE PUSH1 0x24 DUP2 SWAP1 SSTORE PUSH1 0x25 DUP2 SWAP1 SSTORE PUSH1 0x26 DUP2 SWAP1 SSTORE PUSH1 0x27 SSTORE PUSH1 0x29 DUP1 SLOAD PUSH1 0xFF PUSH1 0xA0 SHL NOT AND PUSH1 0x1 PUSH1 0xA0 SHL OR SWAP1 SSTORE CALLVALUE DUP1 ISZERO PUSH3 0x5E JUMPI PUSH1 0x0 DUP1 REVERT JUMPDEST POP PUSH1 0x40 MLOAD PUSH3 0xB726 CODESIZE SUB DUP1 PUSH3 0xB726 DUP4 CODECOPY DUP2 ADD PUSH1 0x40 DUP2 SWAP1 MSTORE PUSH3 0x81 SWAP2 PUSH3 0x123 JUMP JUMPDEST PUSH3 0x95 PUSH3 0x8F PUSH3 0xCF JUMP JUMPDEST PUSH3 0xD3 JUMP JUMPDEST PUSH1 0x1 PUSH1 0x1 PUSH1 0xA0 SHL SUB DUP2 AND PUSH3 0xA9 JUMPI PUSH1 0x0 DUP1 REVERT JUMPDEST PUSH1 0x28 DUP1 SLOAD PUSH1 0x1 PUSH1 0x1 PUSH1 0xA0 SHL SUB NOT AND PUSH1 0x1 PUSH1 0x1 PUSH1 0xA0 SHL SUB SWAP3 SWAP1 SWAP3 AND SWAP2 SWAP1 SWAP2 OR SWAP1 SSTORE PUSH3 0x153 JUMP JUMPDEST CALLER SWAP1 JUMP JUMPDEST PUSH1 0x0 DUP1 SLOAD PUSH1 0x1 PUSH1 0x1 PUSH1 0xA0 SHL SUB DUP4 DUP2 AND PUSH1 0x1 PUSH1 0x1 PUSH1 0xA0 SHL SUB NOT DUP4 AND DUP2 OR DUP5 SSTORE PUSH1 0x40 MLOAD SWAP2 SWAP1 SWAP3 AND SWAP3 DUP4 SWAP2 PUSH32 0x8BE0079C531659141344CD1FD0A4F28419497F9722A3DAAFE3B4186F6B6457E0 SWAP2 SWAP1 LOG3 POP POP JUMP JUMPDEST PUSH1 0x0 PUSH1 0x20 DUP3 DUP5 SUB SLT ISZERO PUSH3 0x135 JUMPI DUP1 DUP2 REVERT JUMPDEST DUP2 MLOAD PUSH1 0x1 PUSH1 0x1 PUSH1 0xA0 SHL SUB DUP2 AND DUP2 EQ PUSH3 0x14C JUMPI DUP2 DUP3 REVERT JUMPDEST SWAP4 SWAP3 POP POP POP JUMP JUMPDEST PUSH2 0xB5C3 DUP1 PUSH3 0x163 PUSH1 0x0 CODECOPY PUSH1 0x0 RETURN INVALID PUSH1 0x80 PUSH1 0x40 MSTORE CALLVALUE DUP1 ISZERO PUSH2 0x10 JUMPI PUSH1 0x0 DUP1 REVERT JUMPDEST POP PUSH1 0x4 CALLDATASIZE LT PUSH2 0x6E0 JUMPI PUSH1 0x0 CALLDATALOAD PUSH1 0xE0 SHR DUP1 PUSH4 0x8C89D027 GT PUSH2 0x387 JUMPI DUP1 PUSH4 0xD420EC0B GT PUSH2 0x1DE JUMPI DUP1 PUSH4 0xED8BECFA GT PUSH2 0x10F JUMPI DUP1 PUSH4 0xF721DE4A GT PUSH2 0xAD JUMPI DUP1 PUSH4 0xFC0C546A GT PUSH2 0x87 JUMPI DUP1 PUSH4 0xFC0C546A EQ PUSH2 0xE42 JUMPI DUP1 PUSH4 0xFCA49563 EQ PUSH2 0xE4A JUMPI DUP1 PUSH4 0xFD414881 EQ PUSH2 0xE5D JUMPI DUP1 PUSH4 0xFF43DE9D EQ PUSH2 0xE70 JUMPI PUSH2 0x6E0 JUMP JUMPDEST DUP1 PUSH4 0xF721DE4A EQ PUSH2 0xE1F JUMPI DUP1 PUSH4 0xF80A23FD EQ PUSH2 0xE32 JUMPI DUP1 PUSH4 0xF96305F0 EQ PUSH2 0xE3A JUMPI PUSH2 0x6E0 JUMP JUMPDEST DUP1 PUSH4 0xF2FDE38B GT PUSH2 0xE9 JUMPI DUP1 PUSH4 0xF2FDE38B EQ PUSH2 0xDE9 JUMPI DUP1 PUSH4 0xF4CDFCC4 EQ PUSH2 0xDFC JUMPI DUP1 PUSH4 0xF5AE7C7D EQ PUSH2 0xE0F JUMPI DUP1 PUSH4 0xF716596D EQ PUSH2 0xE17 JUMPI PUSH2 0x6E0 JUMP JUMPDEST DUP1 PUSH4 0xED8BECFA EQ PUSH2 0xDC6 JUMPI DUP1 PUSH4 0xEF4FCDAD EQ PUSH2 0xDD9 JUMPI DUP1 PUSH4 0xF2D9E74D EQ PUSH2 0xDE1 JUMPI PUSH2 0x6E0 JUMP JUMPDEST DUP1 PUSH4 0xD9845FB8 GT PUSH2 0x17C JUMPI DUP1 PUSH4 0xE604C127 GT PUSH2 0x156 JUMPI DUP1 PUSH4 0xE604C127 EQ PUSH2 0xD85 JUMPI DUP1 PUSH4 0xE798A7DA EQ PUSH2 0xD98 JUMPI DUP1 PUSH4 0xE7B1D43C EQ PUSH2 0xDAB JUMPI DUP1 PUSH4 0xEB1322FF EQ PUSH2 0xDBE JUMPI PUSH2 0x6E0 JUMP JUMPDEST DUP1 PUSH4 0xD9845FB8 EQ PUSH2 0xD4A JUMPI DUP1 PUSH4 0xDA14563A EQ PUSH2 0xD6A JUMPI DUP1 PUSH4 0xE44C974B EQ PUSH2 0xD72 JUMPI PUSH2 0x6E0 JUMP JUMPDEST DUP1 PUSH4 0xD817587E GT PUSH2 0x1B8 JUMPI DUP1 PUSH4 0xD817587E EQ PUSH2 0xCFE JUMPI DUP1 PUSH4 0xD822CE01 EQ PUSH2 0xD11 JUMPI DUP1 PUSH4 0xD8B75674 EQ PUSH2 0xD24 JUMPI DUP1 PUSH4 0xD9548E53 EQ PUSH2 0xD37 JUMPI PUSH2 0x6E0 JUMP JUMPDEST DUP1 PUSH4 0xD420EC0B EQ PUSH2 0xCDB JUMPI DUP1 PUSH4 0xD58F575C EQ PUSH2 0xCEE JUMPI DUP1 PUSH4 0xD6B0206C EQ PUSH2 0xCF6 JUMPI PUSH2 0x6E0 JUMP JUMPDEST DUP1 PUSH4 0xAA7CA464 GT PUSH2 0x2B8 JUMPI DUP1 PUSH4 0xB43BD069 GT PUSH2 0x256 JUMPI DUP1 PUSH4 0xC4E4F82A GT PUSH2 0x230 JUMPI DUP1 PUSH4 0xC4E4F82A EQ PUSH2 0xC9A JUMPI DUP1 PUSH4 0xD0D41DEF EQ PUSH2 0xCAD JUMPI DUP1 PUSH4 0xD1382092 EQ PUSH2 0xCB5 JUMPI DUP1 PUSH4 0xD186981D EQ PUSH2 0xCC8 JUMPI PUSH2 0x6E0 JUMP JUMPDEST DUP1 PUSH4 0xB43BD069 EQ PUSH2 0xC61 JUMPI DUP1 PUSH4 0xB8F011B3 EQ PUSH2 0xC74 JUMPI DUP1 PUSH4 0xBC3002E6 EQ PUSH2 0xC87 JUMPI PUSH2 0x6E0 JUMP JUMPDEST DUP1 PUSH4 0xB10AA584 GT PUSH2 0x292 JUMPI DUP1 PUSH4 0xB10AA584 EQ PUSH2 0xC15 JUMPI DUP1 PUSH4 0xB1A2E0BE EQ PUSH2 0xC28 JUMPI DUP1 PUSH4 0xB1CF4A7E EQ PUSH2 0xC3B JUMPI DUP1 PUSH4 0xB1D7EA98 EQ PUSH2 0xC4E JUMPI PUSH2 0x6E0 JUMP JUMPDEST DUP1 PUSH4 0xAA7CA464 EQ PUSH2 0xBE7 JUMPI DUP1 PUSH4 0xAACC5A17 EQ PUSH2 0xBFA JUMPI DUP1 PUSH4 0xB0BC471E EQ PUSH2 0xC02 JUMPI PUSH2 0x6E0 JUMP JUMPDEST DUP1 PUSH4 0xA1103F37 GT PUSH2 0x325 JUMPI DUP1 PUSH4 0xA4439DC5 GT PUSH2 0x2FF JUMPI DUP1 PUSH4 0xA4439DC5 EQ PUSH2 0xBA6 JUMPI DUP1 PUSH4 0xA511DBA0 EQ PUSH2 0xBB9 JUMPI DUP1 PUSH4 0xA9057790 EQ PUSH2 0xBC1 JUMPI DUP1 PUSH4 0xA98EB31E EQ PUSH2 0xBD4 JUMPI PUSH2 0x6E0 JUMP JUMPDEST DUP1 PUSH4 0xA1103F37 EQ PUSH2 0xB83 JUMPI DUP1 PUSH4 0xA1B6B5B7 EQ PUSH2 0xB96 JUMPI DUP1 PUSH4 0xA350715A EQ PUSH2 0xB9E JUMPI PUSH2 0x6E0 JUMP JUMPDEST DUP1 PUSH4 0x97603560 GT PUSH2 0x361 JUMPI DUP1 PUSH4 0x97603560 EQ PUSH2 0xB42 JUMPI DUP1 PUSH4 0x9769D846 EQ PUSH2 0xB55 JUMPI DUP1 PUSH4 0x9D6E3F96 EQ PUSH2 0xB5D JUMPI DUP1 PUSH4 0x9FC9C52F EQ PUSH2 0xB70 JUMPI PUSH2 0x6E0 JUMP JUMPDEST DUP1 PUSH4 0x8C89D027 EQ PUSH2 0xAFE JUMPI DUP1 PUSH4 0x8DA5CB5B EQ PUSH2 0xB27 JUMPI DUP1 PUSH4 0x8DF0296E EQ PUSH2 0xB2F JUMPI PUSH2 0x6E0 JUMP JUMPDEST DUP1 PUSH4 0x576A5543 GT PUSH2 0x53B JUMPI DUP1 PUSH4 0x763A39F2 GT PUSH2 0x46C JUMPI DUP1 PUSH4 0x815CE747 GT PUSH2 0x40A JUMPI DUP1 PUSH4 0x83E5A8F6 GT PUSH2 0x3E4 JUMPI DUP1 PUSH4 0x83E5A8F6 EQ PUSH2 0xABD JUMPI DUP1 PUSH4 0x8473850B EQ PUSH2 0xAD0 JUMPI DUP1 PUSH4 0x8746FF8A EQ PUSH2 0xAD8 JUMPI DUP1 PUSH4 0x88D072EB EQ PUSH2 0xAEB JUMPI PUSH2 0x6E0 JUMP JUMPDEST DUP1 PUSH4 0x815CE747 EQ PUSH2 0xA8F JUMPI DUP1 PUSH4 0x819B0293 EQ PUSH2 0xA97 JUMPI DUP1 PUSH4 0x821AA8C0 EQ PUSH2 0xAAA JUMPI PUSH2 0x6E0 JUMP JUMPDEST DUP1 PUSH4 0x7AD3BE11 GT PUSH2 0x446 JUMPI DUP1 PUSH4 0x7AD3BE11 EQ PUSH2 0xA34 JUMPI DUP1 PUSH4 0x7F9510A2 EQ PUSH2 0xA47 JUMPI DUP1 PUSH4 0x7F97E836 EQ PUSH2 0xA4F JUMPI DUP1 PUSH4 0x7FABE35B EQ PUSH2 0xA62 JUMPI PUSH2 0x6E0 JUMP JUMPDEST DUP1 PUSH4 0x763A39F2 EQ PUSH2 0xA06 JUMPI DUP1 PUSH4 0x77124DEC EQ PUSH2 0xA0E JUMPI DUP1 PUSH4 0x7860DD41 EQ PUSH2 0xA21 JUMPI PUSH2 0x6E0 JUMP JUMPDEST DUP1 PUSH4 0x6371D81F GT PUSH2 0x4D9 JUMPI DUP1 PUSH4 0x7018E9C6 GT PUSH2 0x4B3 JUMPI DUP1 PUSH4 0x7018E9C6 EQ PUSH2 0x9C5 JUMPI DUP1 PUSH4 0x7074222B EQ PUSH2 0x9D8 JUMPI DUP1 PUSH4 0x715018A6 EQ PUSH2 0x9EB JUMPI DUP1 PUSH4 0x71880B1B EQ PUSH2 0x9F3 JUMPI PUSH2 0x6E0 JUMP JUMPDEST DUP1 PUSH4 0x6371D81F EQ PUSH2 0x98C JUMPI DUP1 PUSH4 0x63B563A8 EQ PUSH2 0x99F JUMPI DUP1 PUSH4 0x6B2D95D4 EQ PUSH2 0x9B2 JUMPI PUSH2 0x6E0 JUMP JUMPDEST DUP1 PUSH4 0x5B113A55 GT PUSH2 0x515 JUMPI DUP1 PUSH4 0x5B113A55 EQ PUSH2 0x94B JUMPI DUP1 PUSH4 0x5DC44CF1 EQ PUSH2 0x95E JUMPI DUP1 PUSH4 0x5DF6055D EQ PUSH2 0x971 JUMPI DUP1 PUSH4 0x607D5EFA EQ PUSH2 0x984 JUMPI PUSH2 0x6E0 JUMP JUMPDEST DUP1 PUSH4 0x576A5543 EQ PUSH2 0x905 JUMPI DUP1 PUSH4 0x579DB71C EQ PUSH2 0x918 JUMPI DUP1 PUSH4 0x5A452943 EQ PUSH2 0x92B JUMPI PUSH2 0x6E0 JUMP JUMPDEST DUP1 PUSH4 0x31E2F285 GT PUSH2 0x615 JUMPI DUP1 PUSH4 0x441C77C0 GT PUSH2 0x5B3 JUMPI DUP1 PUSH4 0x49403183 GT PUSH2 0x58D JUMPI DUP1 PUSH4 0x49403183 EQ PUSH2 0x8CF JUMPI DUP1 PUSH4 0x4FE8B4C1 EQ PUSH2 0x8E2 JUMPI DUP1 PUSH4 0x515535E8 EQ PUSH2 0x8F5 JUMPI DUP1 PUSH4 0x53BF27F1 EQ PUSH2 0x8FD JUMPI PUSH2 0x6E0 JUMP JUMPDEST DUP1 PUSH4 0x441C77C0 EQ PUSH2 0x8AC JUMPI DUP1 PUSH4 0x47FE2D20 EQ PUSH2 0x8BF JUMPI DUP1 PUSH4 0x4852E2F0 EQ PUSH2 0x8C7 JUMPI PUSH2 0x6E0 JUMP JUMPDEST DUP1 PUSH4 0x39E7357C GT PUSH2 0x5EF JUMPI DUP1 PUSH4 0x39E7357C EQ PUSH2 0x85D JUMPI DUP1 PUSH4 0x3C062CC8 EQ PUSH2 0x865 JUMPI DUP1 PUSH4 0x413B90F7 EQ PUSH2 0x886 JUMPI DUP1 PUSH4 0x427FA1D2 EQ PUSH2 0x899 JUMPI PUSH2 0x6E0 JUMP JUMPDEST DUP1 PUSH4 0x31E2F285 EQ PUSH2 0x822 JUMPI DUP1 PUSH4 0x3538AF82 EQ PUSH2 0x835 JUMPI DUP1 PUSH4 0x36FC43FC EQ PUSH2 0x855 JUMPI PUSH2 0x6E0 JUMP JUMPDEST DUP1 PUSH4 0x154FD39B GT PUSH2 0x682 JUMPI DUP1 PUSH4 0x275C2590 GT PUSH2 0x65C JUMPI DUP1 PUSH4 0x275C2590 EQ PUSH2 0x7D4 JUMPI DUP1 PUSH4 0x2C052031 EQ PUSH2 0x7DC JUMPI DUP1 PUSH4 0x2D917C68 EQ PUSH2 0x7EF JUMPI DUP1 PUSH4 0x2F469FD1 EQ PUSH2 0x802 JUMPI PUSH2 0x6E0 JUMP JUMPDEST DUP1 PUSH4 0x154FD39B EQ PUSH2 0x78C JUMPI DUP1 PUSH4 0x19D90346 EQ PUSH2 0x794 JUMPI DUP1 PUSH4 0x226ED300 EQ PUSH2 0x7B4 JUMPI PUSH2 0x6E0 JUMP JUMPDEST DUP1 PUSH4 0x92A5CCE GT PUSH2 0x6BE JUMPI DUP1 PUSH4 0x92A5CCE EQ PUSH2 0x743 JUMPI DUP1 PUSH4 0xB96C5B0 EQ PUSH2 0x74B JUMPI DUP1 PUSH4 0xE6661A7 EQ PUSH2 0x771 JUMPI DUP1 PUSH4 0x100372F5 EQ PUSH2 0x779 JUMPI PUSH2 0x6E0 JUMP JUMPDEST DUP1 PUSH4 0x1A48B98 EQ PUSH2 0x6E5 JUMPI DUP1 PUSH4 0x1AA5F73 EQ PUSH2 0x70E JUMPI DUP1 PUSH4 0x5957623 EQ PUSH2 0x72E JUMPI JUMPDEST PUSH1 0x0 DUP1 REVERT JUMPDEST PUSH2 0x6F8 PUSH2 0x6F3 CALLDATASIZE PUSH1 0x4 PUSH2 0x9C6D JUMP JUMPDEST PUSH2 0xE78 JUMP JUMPDEST PUSH1 0x40 MLOAD PUSH2 0x705 SWAP2 SWAP1 PUSH2 0x9FB0 JUMP JUMPDEST PUSH1 0x40 MLOAD DUP1 SWAP2 SUB SWAP1 RETURN JUMPDEST PUSH2 0x721 PUSH2 0x71C CALLDATASIZE PUSH1 0x4 PUSH2 0x9C6D JUMP JUMPDEST PUSH2 0x1015 JUMP JUMPDEST PUSH1 0x40 MLOAD PUSH2 0x705 SWAP2 SWAP1 PUSH2 0x9EB5 JUMP JUMPDEST PUSH2 0x741 PUSH2 0x73C CALLDATASIZE PUSH1 0x4 PUSH2 0x999E JUMP JUMPDEST PUSH2 0x1072 JUMP JUMPDEST STOP JUMPDEST PUSH2 0x741 PUSH2 0x109C JUMP JUMPDEST PUSH2 0x75E PUSH2 0x759 CALLDATASIZE PUSH1 0x4 PUSH2 0x9C6D JUMP JUMPDEST PUSH2 0x10B7 JUMP JUMPDEST PUSH1 0x40 MLOAD PUSH2 0x705 SWAP8 SWAP7 SWAP6 SWAP5 SWAP4 SWAP3 SWAP2 SWAP1 PUSH2 0xA006 JUMP JUMPDEST PUSH2 0x721 PUSH2 0x129B JUMP JUMPDEST PUSH2 0x741 PUSH2 0x787 CALLDATASIZE PUSH1 0x4 PUSH2 0x9C6D JUMP JUMPDEST PUSH2 0x12A1 JUMP JUMPDEST PUSH2 0x721 PUSH2 0x12AE JUMP JUMPDEST PUSH2 0x7A7 PUSH2 0x7A2 CALLDATASIZE PUSH1 0x4 PUSH2 0x9C6D JUMP JUMPDEST PUSH2 0x12B4 JUMP JUMPDEST PUSH1 0x40 MLOAD PUSH2 0x705 SWAP2 SWAP1 PUSH2 0x9F50 JUMP JUMPDEST PUSH2 0x7C7 PUSH2 0x7C2 CALLDATASIZE PUSH1 0x4 PUSH2 0x9C6D JUMP JUMPDEST PUSH2 0x15CF JUMP JUMPDEST PUSH1 0x40 MLOAD PUSH2 0x705 SWAP2 SWAP1 PUSH2 0x9FE8 JUMP JUMPDEST PUSH2 0x741 PUSH2 0x1611 JUMP JUMPDEST PUSH2 0x721 PUSH2 0x7EA CALLDATASIZE PUSH1 0x4 PUSH2 0x9A01 JUMP JUMPDEST PUSH2 0x176D JUMP JUMPDEST PUSH2 0x7C7 PUSH2 0x7FD CALLDATASIZE PUSH1 0x4 PUSH2 0x99D6 JUMP JUMPDEST PUSH2 0x190A JUMP JUMPDEST PUSH2 0x815 PUSH2 0x810 CALLDATASIZE PUSH1 0x4 PUSH2 0x9C96 JUMP JUMPDEST PUSH2 0x192A JUMP JUMPDEST PUSH1 0x40 MLOAD PUSH2 0x705 SWAP2 SWAP1 PUSH2 0x9FF3 JUMP JUMPDEST PUSH2 0x721 PUSH2 0x830 CALLDATASIZE PUSH1 0x4 PUSH2 0x999E JUMP JUMPDEST PUSH2 0x19CF JUMP JUMPDEST PUSH2 0x848 PUSH2 0x843 CALLDATASIZE PUSH1 0x4 PUSH2 0x9C6D JUMP JUMPDEST PUSH2 0x19E1 JUMP JUMPDEST PUSH1 0x40 MLOAD PUSH2 0x705 SWAP2 SWAP1 PUSH2 0x9EE8 JUMP JUMPDEST PUSH2 0x7C7 PUSH2 0x1A0B JUMP JUMPDEST PUSH2 0x721 PUSH2 0x1A1B JUMP JUMPDEST PUSH2 0x878 PUSH2 0x873 CALLDATASIZE PUSH1 0x4 PUSH2 0x9C6D JUMP JUMPDEST PUSH2 0x1A38 JUMP JUMPDEST PUSH1 0x40 MLOAD PUSH2 0x705 SWAP3 SWAP2 SWAP1 PUSH2 0x9EDA JUMP JUMPDEST PUSH2 0x878 PUSH2 0x894 CALLDATASIZE PUSH1 0x4 PUSH2 0x99D6 JUMP JUMPDEST PUSH2 0x1A5A JUMP JUMPDEST PUSH2 0x721 PUSH2 0x8A7 CALLDATASIZE PUSH1 0x4 PUSH2 0x999E JUMP JUMPDEST PUSH2 0x1A8A JUMP JUMPDEST PUSH2 0x7C7 PUSH2 0x8BA CALLDATASIZE PUSH1 0x4 PUSH2 0x9C6D JUMP JUMPDEST PUSH2 0x1B2A JUMP JUMPDEST PUSH2 0x721 PUSH2 0x1B84 JUMP JUMPDEST PUSH2 0x721 PUSH2 0x1B8A JUMP JUMPDEST PUSH2 0x7C7 PUSH2 0x8DD CALLDATASIZE PUSH1 0x4 PUSH2 0x9C6D JUMP JUMPDEST PUSH2 0x1B90 JUMP JUMPDEST PUSH2 0x741 PUSH2 0x8F0 CALLDATASIZE PUSH1 0x4 PUSH2 0x9C6D JUMP JUMPDEST PUSH2 0x1DDC JUMP JUMPDEST PUSH2 0x721 PUSH2 0x1E4A JUMP JUMPDEST PUSH2 0x721 PUSH2 0x1E50 JUMP JUMPDEST PUSH2 0x741 PUSH2 0x913 CALLDATASIZE PUSH1 0x4 PUSH2 0x999E JUMP JUMPDEST PUSH2 0x1E56 JUMP JUMPDEST PUSH2 0x6F8 PUSH2 0x926 CALLDATASIZE PUSH1 0x4 PUSH2 0x999E JUMP JUMPDEST PUSH2 0x201D JUMP JUMPDEST PUSH2 0x93E PUSH2 0x939 CALLDATASIZE PUSH1 0x4 PUSH2 0x9C6D JUMP JUMPDEST PUSH2 0x2089 JUMP JUMPDEST PUSH1 0x40 MLOAD PUSH2 0x705 SWAP2 SWAP1 PUSH2 0xB20B JUMP JUMPDEST PUSH2 0x721 PUSH2 0x959 CALLDATASIZE PUSH1 0x4 PUSH2 0x9C96 JUMP JUMPDEST PUSH2 0x22DE JUMP JUMPDEST PUSH2 0x721 PUSH2 0x96C CALLDATASIZE PUSH1 0x4 PUSH2 0x99D6 JUMP JUMPDEST PUSH2 0x22FB JUMP JUMPDEST PUSH2 0x7A7 PUSH2 0x97F CALLDATASIZE PUSH1 0x4 PUSH2 0x9C6D JUMP JUMPDEST PUSH2 0x232C JUMP JUMPDEST PUSH2 0x741 PUSH2 0x2549 JUMP JUMPDEST PUSH2 0x741 PUSH2 0x99A CALLDATASIZE PUSH1 0x4 PUSH2 0x9C6D JUMP JUMPDEST PUSH2 0x2702 JUMP JUMPDEST PUSH2 0x7C7 PUSH2 0x9AD CALLDATASIZE PUSH1 0x4 PUSH2 0x9C6D JUMP JUMPDEST PUSH2 0x277E JUMP JUMPDEST PUSH2 0x721 PUSH2 0x9C0 CALLDATASIZE PUSH1 0x4 PUSH2 0x999E JUMP JUMPDEST PUSH2 0x27D1 JUMP JUMPDEST PUSH2 0x7C7 PUSH2 0x9D3 CALLDATASIZE PUSH1 0x4 PUSH2 0x9C6D JUMP JUMPDEST PUSH2 0x27E0 JUMP JUMPDEST PUSH2 0x721 PUSH2 0x9E6 CALLDATASIZE PUSH1 0x4 PUSH2 0x999E JUMP JUMPDEST PUSH2 0x2821 JUMP JUMPDEST PUSH2 0x741 PUSH2 0x283C JUMP JUMPDEST PUSH2 0x721 PUSH2 0xA01 CALLDATASIZE PUSH1 0x4 PUSH2 0x9C6D JUMP JUMPDEST PUSH2 0x2850 JUMP JUMPDEST PUSH2 0x721 PUSH2 0x288D JUMP JUMPDEST PUSH2 0x741 PUSH2 0xA1C CALLDATASIZE PUSH1 0x4 PUSH2 0x9C6D JUMP JUMPDEST PUSH2 0x2893 JUMP JUMPDEST PUSH2 0x721 PUSH2 0xA2F CALLDATASIZE PUSH1 0x4 PUSH2 0x9C6D JUMP JUMPDEST PUSH2 0x28A0 JUMP JUMPDEST PUSH2 0x721 PUSH2 0xA42 CALLDATASIZE PUSH1 0x4 PUSH2 0x99D6 JUMP JUMPDEST PUSH2 0x28F4 JUMP JUMPDEST PUSH2 0x721 PUSH2 0x2989 JUMP JUMPDEST PUSH2 0x7C7 PUSH2 0xA5D CALLDATASIZE PUSH1 0x4 PUSH2 0x99D6 JUMP JUMPDEST PUSH2 0x29A0 JUMP JUMPDEST PUSH2 0xA75 PUSH2 0xA70 CALLDATASIZE PUSH1 0x4 PUSH2 0x9C6D JUMP JUMPDEST PUSH2 0x29F3 JUMP JUMPDEST PUSH1 0x40 MLOAD PUSH2 0x705 SWAP15 SWAP14 SWAP13 SWAP12 SWAP11 SWAP10 SWAP9 SWAP8 SWAP7 SWAP6 SWAP5 SWAP4 SWAP3 SWAP2 SWAP1 PUSH2 0xB2F2 JUMP JUMPDEST PUSH2 0x721 PUSH2 0x2AF3 JUMP JUMPDEST PUSH2 0x7C7 PUSH2 0xAA5 CALLDATASIZE PUSH1 0x4 PUSH2 0x9D8E JUMP JUMPDEST PUSH2 0x2B4F JUMP JUMPDEST PUSH2 0x848 PUSH2 0xAB8 CALLDATASIZE PUSH1 0x4 PUSH2 0x9C6D JUMP JUMPDEST PUSH2 0x2B90 JUMP JUMPDEST PUSH2 0x741 PUSH2 0xACB CALLDATASIZE PUSH1 0x4 PUSH2 0x9CC5 JUMP JUMPDEST PUSH2 0x2BA0 JUMP JUMPDEST PUSH2 0x721 PUSH2 0x31FD JUMP JUMPDEST PUSH2 0x848 PUSH2 0xAE6 CALLDATASIZE PUSH1 0x4 PUSH2 0x99D6 JUMP JUMPDEST PUSH2 0x3203 JUMP JUMPDEST PUSH2 0x815 PUSH2 0xAF9 CALLDATASIZE PUSH1 0x4 PUSH2 0x9C96 JUMP JUMPDEST PUSH2 0x365F JUMP JUMPDEST PUSH2 0xB11 PUSH2 0xB0C CALLDATASIZE PUSH1 0x4 PUSH2 0x999E JUMP JUMPDEST PUSH2 0x3683 JUMP JUMPDEST PUSH1 0x40 MLOAD PUSH2 0x705 SWAP11 SWAP10 SWAP9 SWAP8 SWAP7 SWAP6 SWAP5 SWAP4 SWAP3 SWAP2 SWAP1 PUSH2 0x9EFC JUMP JUMPDEST PUSH2 0x848 PUSH2 0x36E6 JUMP JUMPDEST PUSH2 0x848 PUSH2 0xB3D CALLDATASIZE PUSH1 0x4 PUSH2 0x9D6D JUMP JUMPDEST PUSH2 0x36F5 JUMP JUMPDEST PUSH2 0x741 PUSH2 0xB50 CALLDATASIZE PUSH1 0x4 PUSH2 0x9C6D JUMP JUMPDEST PUSH2 0x372D JUMP JUMPDEST PUSH2 0x721 PUSH2 0x38DC JUMP JUMPDEST PUSH2 0x721 PUSH2 0xB6B CALLDATASIZE PUSH1 0x4 PUSH2 0x999E JUMP JUMPDEST PUSH2 0x38E2 JUMP JUMPDEST PUSH2 0x741 PUSH2 0xB7E CALLDATASIZE PUSH1 0x4 PUSH2 0x9B1C JUMP JUMPDEST PUSH2 0x394D JUMP JUMPDEST PUSH2 0x721 PUSH2 0xB91 CALLDATASIZE PUSH1 0x4 PUSH2 0x99D6 JUMP JUMPDEST PUSH2 0x399B JUMP JUMPDEST PUSH2 0x721 PUSH2 0x39CE JUMP JUMPDEST PUSH2 0x721 PUSH2 0x39D4 JUMP JUMPDEST PUSH2 0x7C7 PUSH2 0xBB4 CALLDATASIZE PUSH1 0x4 PUSH2 0x9C6D JUMP JUMPDEST PUSH2 0x39DA JUMP JUMPDEST PUSH2 0x721 PUSH2 0x3A3C JUMP JUMPDEST PUSH2 0x7C7 PUSH2 0xBCF CALLDATASIZE PUSH1 0x4 PUSH2 0x9BCB JUMP JUMPDEST PUSH2 0x3A42 JUMP JUMPDEST PUSH2 0x741 PUSH2 0xBE2 CALLDATASIZE PUSH1 0x4 PUSH2 0x9D19 JUMP JUMPDEST PUSH2 0x3AA8 JUMP JUMPDEST PUSH2 0x7C7 PUSH2 0xBF5 CALLDATASIZE PUSH1 0x4 PUSH2 0x99D6 JUMP JUMPDEST PUSH2 0x3E45 JUMP JUMPDEST PUSH2 0x721 PUSH2 0x3E98 JUMP JUMPDEST PUSH2 0x721 PUSH2 0xC10 CALLDATASIZE PUSH1 0x4 PUSH2 0x99D6 JUMP JUMPDEST PUSH2 0x3F4D JUMP JUMPDEST PUSH2 0x848 PUSH2 0xC23 CALLDATASIZE PUSH1 0x4 PUSH2 0x9C6D JUMP JUMPDEST PUSH2 0x3F92 JUMP JUMPDEST PUSH2 0x7C7 PUSH2 0xC36 CALLDATASIZE PUSH1 0x4 PUSH2 0x999E JUMP JUMPDEST PUSH2 0x3FA2 JUMP JUMPDEST PUSH2 0x721 PUSH2 0xC49 CALLDATASIZE PUSH1 0x4 PUSH2 0x9D6D JUMP JUMPDEST PUSH2 0x4091 JUMP JUMPDEST PUSH2 0x6F8 PUSH2 0xC5C CALLDATASIZE PUSH1 0x4 PUSH2 0x9D6D JUMP JUMPDEST PUSH2 0x40A6 JUMP JUMPDEST PUSH2 0x721 PUSH2 0xC6F CALLDATASIZE PUSH1 0x4 PUSH2 0x9A01 JUMP JUMPDEST PUSH2 0x42C0 JUMP JUMPDEST PUSH2 0x6F8 PUSH2 0xC82 CALLDATASIZE PUSH1 0x4 PUSH2 0x9D6D JUMP JUMPDEST PUSH2 0x43AC JUMP JUMPDEST PUSH2 0x721 PUSH2 0xC95 CALLDATASIZE PUSH1 0x4 PUSH2 0x9A35 JUMP JUMPDEST PUSH2 0x4514 JUMP JUMPDEST PUSH2 0x721 PUSH2 0xCA8 CALLDATASIZE PUSH1 0x4 PUSH2 0x9C6D JUMP JUMPDEST PUSH2 0x504A JUMP JUMPDEST PUSH2 0x721 PUSH2 0x5087 JUMP JUMPDEST PUSH2 0x721 PUSH2 0xCC3 CALLDATASIZE PUSH1 0x4 PUSH2 0x99D6 JUMP JUMPDEST PUSH2 0x508D JUMP JUMPDEST PUSH2 0x7C7 PUSH2 0xCD6 CALLDATASIZE PUSH1 0x4 PUSH2 0x9C96 JUMP JUMPDEST PUSH2 0x50D2 JUMP JUMPDEST PUSH2 0x7C7 PUSH2 0xCE9 CALLDATASIZE PUSH1 0x4 PUSH2 0x99D6 JUMP JUMPDEST PUSH2 0x51AD JUMP JUMPDEST PUSH2 0x721 PUSH2 0x51CD JUMP JUMPDEST PUSH2 0x721 PUSH2 0x51D3 JUMP JUMPDEST PUSH2 0x7A7 PUSH2 0xD0C CALLDATASIZE PUSH1 0x4 PUSH2 0x9C6D JUMP JUMPDEST PUSH2 0x51D9 JUMP JUMPDEST PUSH2 0x848 PUSH2 0xD1F CALLDATASIZE PUSH1 0x4 PUSH2 0x99D6 JUMP JUMPDEST PUSH2 0x53F6 JUMP JUMPDEST PUSH2 0x721 PUSH2 0xD32 CALLDATASIZE PUSH1 0x4 PUSH2 0x9C96 JUMP JUMPDEST PUSH2 0x5412 JUMP JUMPDEST PUSH2 0x7C7 PUSH2 0xD45 CALLDATASIZE PUSH1 0x4 PUSH2 0x9C6D JUMP JUMPDEST PUSH2 0x542F JUMP JUMPDEST PUSH2 0xD5D PUSH2 0xD58 CALLDATASIZE PUSH1 0x4 PUSH2 0x9C6D JUMP JUMPDEST PUSH2 0x5434 JUMP JUMPDEST PUSH1 0x40 MLOAD PUSH2 0x705 SWAP2 SWAP1 PUSH2 0xB055 JUMP JUMPDEST PUSH2 0x741 PUSH2 0x55B8 JUMP JUMPDEST PUSH2 0x6F8 PUSH2 0xD80 CALLDATASIZE PUSH1 0x4 PUSH2 0x9C6D JUMP JUMPDEST PUSH2 0x58BB JUMP JUMPDEST PUSH2 0x815 PUSH2 0xD93 CALLDATASIZE PUSH1 0x4 PUSH2 0x9C6D JUMP JUMPDEST PUSH2 0x5947 JUMP JUMPDEST PUSH2 0x7C7 PUSH2 0xDA6 CALLDATASIZE PUSH1 0x4 PUSH2 0x999E JUMP JUMPDEST PUSH2 0x59F2 JUMP JUMPDEST PUSH2 0x741 PUSH2 0xDB9 CALLDATASIZE PUSH1 0x4 PUSH2 0x9C6D JUMP JUMPDEST PUSH2 0x5A13 JUMP JUMPDEST PUSH2 0x721 PUSH2 0x5BD8 JUMP JUMPDEST PUSH2 0x7A7 PUSH2 0xDD4 CALLDATASIZE PUSH1 0x4 PUSH2 0x9C6D JUMP JUMPDEST PUSH2 0x5BDE JUMP JUMPDEST PUSH2 0x721 PUSH2 0x5EED JUMP JUMPDEST PUSH2 0x721 PUSH2 0x5EF3 JUMP JUMPDEST PUSH2 0x741 PUSH2 0xDF7 CALLDATASIZE PUSH1 0x4 PUSH2 0x999E JUMP JUMPDEST PUSH2 0x5EF9 JUMP JUMPDEST PUSH2 0x721 PUSH2 0xE0A CALLDATASIZE PUSH1 0x4 PUSH2 0x9C2B JUMP JUMPDEST PUSH2 0x5F30 JUMP JUMPDEST PUSH2 0x721 PUSH2 0x5F45 JUMP JUMPDEST PUSH2 0x741 PUSH2 0x5F4B JUMP JUMPDEST PUSH2 0x7C7 PUSH2 0xE2D CALLDATASIZE PUSH1 0x4 PUSH2 0x9C6D JUMP JUMPDEST PUSH2 0x6362 JUMP JUMPDEST PUSH2 0x7C7 PUSH2 0x636A JUMP JUMPDEST PUSH2 0x721 PUSH2 0x6383 JUMP JUMPDEST PUSH2 0x848 PUSH2 0x6389 JUMP JUMPDEST PUSH2 0x721 PUSH2 0xE58 CALLDATASIZE PUSH1 0x4 PUSH2 0x999E JUMP JUMPDEST PUSH2 0x6398 JUMP JUMPDEST PUSH2 0x7A7 PUSH2 0xE6B CALLDATASIZE PUSH1 0x4 PUSH2 0x9D6D JUMP JUMPDEST PUSH2 0x6463 JUMP JUMPDEST PUSH2 0x848 PUSH2 0x6966 JUMP JUMPDEST PUSH1 0x60 PUSH2 0xE83 DUP3 PUSH2 0x6362 JUMP JUMPDEST PUSH2 0xEA8 JUMPI PUSH1 0x40 MLOAD PUSH3 0x461BCD PUSH1 0xE5 SHL DUP2 MSTORE PUSH1 0x4 ADD PUSH2 0xE9F SWAP1 PUSH2 0xACB9 JUMP JUMPDEST PUSH1 0x40 MLOAD DUP1 SWAP2 SUB SWAP1 REVERT JUMPDEST PUSH1 0x0 DUP3 DUP2 MSTORE PUSH1 0x19 PUSH1 0x20 SWAP1 DUP2 MSTORE PUSH1 0x40 DUP1 DUP4 KECCAK256 DUP1 SLOAD DUP3 MLOAD DUP2 DUP6 MUL DUP2 ADD DUP6 ADD SWAP1 SWAP4 MSTORE DUP1 DUP4 MSTORE SWAP2 SWAP3 SWAP1 SWAP2 SWAP1 DUP4 ADD DUP3 DUP3 DUP1 ISZERO PUSH2 0xF08 JUMPI PUSH1 0x20 MUL DUP3 ADD SWAP2 SWAP1 PUSH1 0x0 MSTORE PUSH1 0x20 PUSH1 0x0 KECCAK256 SWAP1 JUMPDEST DUP2 SLOAD PUSH1 0x1 PUSH1 0x1 PUSH1 0xA0 SHL SUB AND DUP2 MSTORE PUSH1 0x1 SWAP1 SWAP2 ADD SWAP1 PUSH1 0x20 ADD DUP1 DUP4 GT PUSH2 0xEEA JUMPI JUMPDEST POP POP POP POP POP SWAP1 POP PUSH1 0x0 DUP2 MLOAD PUSH1 0x1 PUSH1 0x1 PUSH1 0x40 SHL SUB DUP2 GT ISZERO PUSH2 0xF38 JUMPI PUSH4 0x4E487B71 PUSH1 0xE0 SHL PUSH1 0x0 MSTORE PUSH1 0x41 PUSH1 0x4 MSTORE PUSH1 0x24 PUSH1 0x0 REVERT JUMPDEST PUSH1 0x40 MLOAD SWAP1 DUP1 DUP3 MSTORE DUP1 PUSH1 0x20 MUL PUSH1 0x20 ADD DUP3 ADD PUSH1 0x40 MSTORE DUP1 ISZERO PUSH2 0xF61 JUMPI DUP2 PUSH1 0x20 ADD PUSH1 0x20 DUP3 MUL DUP1 CALLDATASIZE DUP4 CALLDATACOPY ADD SWAP1 POP JUMPDEST POP SWAP1 POP PUSH1 0x0 JUMPDEST DUP3 MLOAD DUP2 LT ISZERO PUSH2 0x100B JUMPI PUSH1 0xC PUSH1 0x0 DUP7 DUP2 MSTORE PUSH1 0x20 ADD SWAP1 DUP2 MSTORE PUSH1 0x20 ADD PUSH1 0x0 KECCAK256 PUSH1 0x0 DUP5 DUP4 DUP2 MLOAD DUP2 LT PUSH2 0xFA5 JUMPI PUSH4 0x4E487B71 PUSH1 0xE0 SHL PUSH1 0x0 MSTORE PUSH1 0x32 PUSH1 0x4 MSTORE PUSH1 0x24 PUSH1 0x0 REVERT JUMPDEST PUSH1 0x20 MUL PUSH1 0x20 ADD ADD MLOAD PUSH1 0x1 PUSH1 0x1 PUSH1 0xA0 SHL SUB AND PUSH1 0x1 PUSH1 0x1 PUSH1 0xA0 SHL SUB AND DUP2 MSTORE PUSH1 0x20 ADD SWAP1 DUP2 MSTORE PUSH1 0x20 ADD PUSH1 0x0 KECCAK256 SLOAD DUP3 DUP3 DUP2 MLOAD DUP2 LT PUSH2 0xFEE JUMPI PUSH4 0x4E487B71 PUSH1 0xE0 SHL PUSH1 0x0 MSTORE PUSH1 0x32 PUSH1 0x4 MSTORE PUSH1 0x24 PUSH1 0x0 REVERT JUMPDEST PUSH1 0x20 SWAP1 DUP2 MUL SWAP2 SWAP1 SWAP2 ADD ADD MSTORE DUP1 PUSH2 0x1003 DUP2 PUSH2 0xB4E7 JUMP JUMPDEST SWAP2 POP POP PUSH2 0xF67 JUMP JUMPDEST POP SWAP2 POP POP JUMPDEST SWAP2 SWAP1 POP JUMP JUMPDEST PUSH1 0x0 PUSH2 0x1020 DUP3 PUSH2 0x6362 JUMP JUMPDEST PUSH2 0x103C JUMPI PUSH1 0x40 MLOAD PUSH3 0x461BCD PUSH1 0xE5 SHL DUP2 MSTORE PUSH1 0x4 ADD PUSH2 0xE9F SWAP1 PUSH2 0xACB9 JUMP JUMPDEST PUSH1 0x0 PUSH2 0x1047 DUP4 PUSH2 0x1B2A JUMP JUMPDEST ISZERO PUSH2 0x106C JUMPI PUSH1 0x0 DUP4 DUP2 MSTORE PUSH1 0x14 PUSH1 0x20 MSTORE PUSH1 0x40 SWAP1 KECCAK256 PUSH1 0x6 ADD SLOAD PUSH2 0x1069 SWAP1 TIMESTAMP SWAP1 PUSH2 0xB469 JUMP JUMPDEST SWAP1 POP JUMPDEST SWAP3 SWAP2 POP POP JUMP JUMPDEST PUSH2 0x107A PUSH2 0x6975 JUMP JUMPDEST PUSH1 0x29 DUP1 SLOAD PUSH1 0x1 PUSH1 0x1 PUSH1 0xA0 SHL SUB NOT AND PUSH1 0x1 PUSH1 0x1 PUSH1 0xA0 SHL SUB SWAP3 SWAP1 SWAP3 AND SWAP2 SWAP1 SWAP2 OR SWAP1 SSTORE JUMP JUMPDEST PUSH2 0x10A4 PUSH2 0x6975 JUMP JUMPDEST PUSH2 0x10AC PUSH2 0x36E6 JUMP JUMPDEST PUSH1 0x1 PUSH1 0x1 PUSH1 0xA0 SHL SUB AND SELFDESTRUCT JUMPDEST PUSH1 0x13 PUSH1 0x20 MSTORE PUSH1 0x0 SWAP1 DUP2 MSTORE PUSH1 0x40 SWAP1 KECCAK256 DUP1 SLOAD DUP2 SWAP1 PUSH2 0x10D2 SWAP1 PUSH2 0xB4AC JUMP JUMPDEST DUP1 PUSH1 0x1F ADD PUSH1 0x20 DUP1 SWAP2 DIV MUL PUSH1 0x20 ADD PUSH1 0x40 MLOAD SWAP1 DUP2 ADD PUSH1 0x40 MSTORE DUP1 SWAP3 SWAP2 SWAP1 DUP2 DUP2 MSTORE PUSH1 0x20 ADD DUP3 DUP1 SLOAD PUSH2 0x10FE SWAP1 PUSH2 0xB4AC JUMP JUMPDEST DUP1 ISZERO PUSH2 0x114B JUMPI DUP1 PUSH1 0x1F LT PUSH2 0x1120 JUMPI PUSH2 0x100 DUP1 DUP4 SLOAD DIV MUL DUP4 MSTORE SWAP2 PUSH1 0x20 ADD SWAP2 PUSH2 0x114B JUMP JUMPDEST DUP3 ADD SWAP2 SWAP1 PUSH1 0x0 MSTORE PUSH1 0x20 PUSH1 0x0 KECCAK256 SWAP1 JUMPDEST DUP2 SLOAD DUP2 MSTORE SWAP1 PUSH1 0x1 ADD SWAP1 PUSH1 0x20 ADD DUP1 DUP4 GT PUSH2 0x112E JUMPI DUP3 SWAP1 SUB PUSH1 0x1F AND DUP3 ADD SWAP2 JUMPDEST POP POP POP PUSH1 0x1 DUP5 ADD SLOAD PUSH1 0x2 DUP6 ADD SLOAD PUSH1 0x3 DUP7 ADD SLOAD PUSH1 0x4 DUP8 ADD DUP1 SLOAD SWAP7 SWAP8 PUSH1 0x1 PUSH1 0x1 PUSH1 0xA0 SHL SUB SWAP1 SWAP5 AND SWAP7 SWAP3 SWAP6 POP SWAP1 SWAP4 POP SWAP1 PUSH2 0x1181 SWAP1 PUSH2 0xB4AC JUMP JUMPDEST DUP1 PUSH1 0x1F ADD PUSH1 0x20 DUP1 SWAP2 DIV MUL PUSH1 0x20 ADD PUSH1 0x40 MLOAD SWAP1 DUP2 ADD PUSH1 0x40 MSTORE DUP1 SWAP3 SWAP2 SWAP1 DUP2 DUP2 MSTORE PUSH1 0x20 ADD DUP3 DUP1 SLOAD PUSH2 0x11AD SWAP1 PUSH2 0xB4AC JUMP JUMPDEST DUP1 ISZERO PUSH2 0x11FA JUMPI DUP1 PUSH1 0x1F LT PUSH2 0x11CF JUMPI PUSH2 0x100 DUP1 DUP4 SLOAD DIV MUL DUP4 MSTORE SWAP2 PUSH1 0x20 ADD SWAP2 PUSH2 0x11FA JUMP JUMPDEST DUP3 ADD SWAP2 SWAP1 PUSH1 0x0 MSTORE PUSH1 0x20 PUSH1 0x0 KECCAK256 SWAP1 JUMPDEST DUP2 SLOAD DUP2 MSTORE SWAP1 PUSH1 0x1 ADD SWAP1 PUSH1 0x20 ADD DUP1 DUP4 GT PUSH2 0x11DD JUMPI DUP3 SWAP1 SUB PUSH1 0x1F AND DUP3 ADD SWAP2 JUMPDEST POP POP POP POP POP SWAP1 DUP1 PUSH1 0x5 ADD DUP1 SLOAD PUSH2 0x120F SWAP1 PUSH2 0xB4AC JUMP JUMPDEST DUP1 PUSH1 0x1F ADD PUSH1 0x20 DUP1 SWAP2 DIV MUL PUSH1 0x20 ADD PUSH1 0x40 MLOAD SWAP1 DUP2 ADD PUSH1 0x40 MSTORE DUP1 SWAP3 SWAP2 SWAP1 DUP2 DUP2 MSTORE PUSH1 0x20 ADD DUP3 DUP1 SLOAD PUSH2 0x123B SWAP1 PUSH2 0xB4AC JUMP JUMPDEST DUP1 ISZERO PUSH2 0x1288 JUMPI DUP1 PUSH1 0x1F LT PUSH2 0x125D JUMPI PUSH2 0x100 DUP1 DUP4 SLOAD DIV MUL DUP4 MSTORE SWAP2 PUSH1 0x20 ADD SWAP2 PUSH2 0x1288 JUMP JUMPDEST DUP3 ADD SWAP2 SWAP1 PUSH1 0x0 MSTORE PUSH1 0x20 PUSH1 0x0 KECCAK256 SWAP1 JUMPDEST DUP2 SLOAD DUP2 MSTORE SWAP1 PUSH1 0x1 ADD SWAP1 PUSH1 0x20 ADD DUP1 DUP4 GT PUSH2 0x126B JUMPI DUP3 SWAP1 SUB PUSH1 0x1F AND DUP3 ADD SWAP2 JUMPDEST POP POP POP PUSH1 0x6 SWAP1 SWAP4 ADD SLOAD SWAP2 SWAP3 POP POP PUSH1 0xFF AND DUP8 JUMP JUMPDEST PUSH1 0x1E SLOAD DUP2 JUMP JUMPDEST PUSH2 0x12A9 PUSH2 0x6975 JUMP JUMPDEST PUSH1 0x21 SSTORE JUMP JUMPDEST PUSH1 0x22 SLOAD SWAP1 JUMP JUMPDEST PUSH1 0x60 PUSH2 0x12BF DUP3 PUSH2 0x6362 JUMP JUMPDEST PUSH2 0x12DB JUMPI PUSH1 0x40 MLOAD PUSH3 0x461BCD PUSH1 0xE5 SHL DUP2 MSTORE PUSH1 0x4 ADD PUSH2 0xE9F SWAP1 PUSH2 0xACB9 JUMP JUMPDEST PUSH1 0x0 DUP3 DUP2 MSTORE PUSH1 0x14 PUSH1 0x20 SWAP1 DUP2 MSTORE PUSH1 0x40 DUP1 DUP4 KECCAK256 DUP2 MLOAD PUSH2 0x1C0 DUP2 ADD DUP4 MSTORE DUP2 SLOAD DUP2 MSTORE PUSH1 0x1 DUP3 ADD SLOAD SWAP4 DUP2 ADD SWAP4 SWAP1 SWAP4 MSTORE PUSH1 0x2 DUP2 ADD SLOAD SWAP2 DUP4 ADD SWAP2 SWAP1 SWAP2 MSTORE PUSH1 0x3 DUP2 ADD SLOAD PUSH1 0x60 DUP4 ADD MSTORE PUSH1 0x4 DUP2 ADD SLOAD PUSH1 0xFF DUP1 DUP3 AND ISZERO ISZERO PUSH1 0x80 DUP6 ADD MSTORE PUSH2 0x100 DUP1 DUP4 DIV DUP3 AND ISZERO ISZERO PUSH1 0xA0 DUP7 ADD MSTORE PUSH3 0x10000 SWAP1 SWAP3 DIV AND ISZERO ISZERO PUSH1 0xC0 DUP5 ADD MSTORE PUSH1 0x5 DUP3 ADD SLOAD PUSH1 0xE0 DUP5 ADD MSTORE PUSH1 0x6 DUP3 ADD SLOAD SWAP1 DUP4 ADD MSTORE PUSH1 0x7 DUP2 ADD SLOAD PUSH2 0x120 DUP4 ADD MSTORE PUSH1 0x8 DUP2 ADD SLOAD PUSH2 0x140 DUP4 ADD MSTORE PUSH1 0x9 DUP2 ADD DUP1 SLOAD PUSH2 0x160 DUP5 ADD SWAP2 SWAP1 PUSH2 0x1389 SWAP1 PUSH2 0xB4AC JUMP JUMPDEST DUP1 PUSH1 0x1F ADD PUSH1 0x20 DUP1 SWAP2 DIV MUL PUSH1 0x20 ADD PUSH1 0x40 MLOAD SWAP1 DUP2 ADD PUSH1 0x40 MSTORE DUP1 SWAP3 SWAP2 SWAP1 DUP2 DUP2 MSTORE PUSH1 0x20 ADD DUP3 DUP1 SLOAD PUSH2 0x13B5 SWAP1 PUSH2 0xB4AC JUMP JUMPDEST DUP1 ISZERO PUSH2 0x1402 JUMPI DUP1 PUSH1 0x1F LT PUSH2 0x13D7 JUMPI PUSH2 0x100 DUP1 DUP4 SLOAD DIV MUL DUP4 MSTORE SWAP2 PUSH1 0x20 ADD SWAP2 PUSH2 0x1402 JUMP JUMPDEST DUP3 ADD SWAP2 SWAP1 PUSH1 0x0 MSTORE PUSH1 0x20 PUSH1 0x0 KECCAK256 SWAP1 JUMPDEST DUP2 SLOAD DUP2 MSTORE SWAP1 PUSH1 0x1 ADD SWAP1 PUSH1 0x20 ADD DUP1 DUP4 GT PUSH2 0x13E5 JUMPI DUP3 SWAP1 SUB PUSH1 0x1F AND DUP3 ADD SWAP2 JUMPDEST POP POP POP SWAP2 DUP4 MSTORE POP POP PUSH1 0xA DUP3 ADD SLOAD PUSH1 0x20 DUP3 ADD MSTORE PUSH1 0xB DUP3 ADD SLOAD PUSH1 0x40 SWAP1 SWAP2 ADD SWAP1 PUSH1 0xFF AND PUSH1 0x3 DUP2 GT ISZERO PUSH2 0x1441 JUMPI PUSH4 0x4E487B71 PUSH1 0xE0 SHL PUSH1 0x0 MSTORE PUSH1 0x21 PUSH1 0x4 MSTORE PUSH1 0x24 PUSH1 0x0 REVERT JUMPDEST PUSH1 0x3 DUP2 GT ISZERO PUSH2 0x1460 JUMPI PUSH4 0x4E487B71 PUSH1 0xE0 SHL PUSH1 0x0 MSTORE PUSH1 0x21 PUSH1 0x4 MSTORE PUSH1 0x24 PUSH1 0x0 REVERT JUMPDEST SWAP1 MSTORE POP PUSH1 0x20 DUP2 ADD MLOAD SWAP1 SWAP2 POP PUSH1 0x0 DUP2 PUSH1 0x1 PUSH1 0x1 PUSH1 0x40 SHL SUB DUP2 GT ISZERO PUSH2 0x1493 JUMPI PUSH4 0x4E487B71 PUSH1 0xE0 SHL PUSH1 0x0 MSTORE PUSH1 0x41 PUSH1 0x4 MSTORE PUSH1 0x24 PUSH1 0x0 REVERT JUMPDEST PUSH1 0x40 MLOAD SWAP1 DUP1 DUP3 MSTORE DUP1 PUSH1 0x20 MUL PUSH1 0x20 ADD DUP3 ADD PUSH1 0x40 MSTORE DUP1 ISZERO PUSH2 0x14C6 JUMPI DUP2 PUSH1 0x20 ADD JUMPDEST PUSH1 0x60 DUP2 MSTORE PUSH1 0x20 ADD SWAP1 PUSH1 0x1 SWAP1 SUB SWAP1 DUP2 PUSH2 0x14B1 JUMPI SWAP1 POP JUMPDEST POP SWAP1 POP PUSH1 0x0 JUMPDEST DUP3 DUP2 LT ISZERO PUSH2 0x15C6 JUMPI DUP4 MLOAD PUSH1 0x0 SWAP1 PUSH2 0x14E4 SWAP1 DUP4 SWAP1 PUSH2 0xB41E JUMP JUMPDEST PUSH1 0x0 DUP2 DUP2 MSTORE PUSH1 0x13 PUSH1 0x20 MSTORE PUSH1 0x40 DUP2 KECCAK256 PUSH1 0x4 ADD DUP1 SLOAD SWAP3 SWAP4 POP SWAP1 SWAP2 PUSH2 0x1505 SWAP1 PUSH2 0xB4AC JUMP JUMPDEST DUP1 PUSH1 0x1F ADD PUSH1 0x20 DUP1 SWAP2 DIV MUL PUSH1 0x20 ADD PUSH1 0x40 MLOAD SWAP1 DUP2 ADD PUSH1 0x40 MSTORE DUP1 SWAP3 SWAP2 SWAP1 DUP2 DUP2 MSTORE PUSH1 0x20 ADD DUP3 DUP1 SLOAD PUSH2 0x1531 SWAP1 PUSH2 0xB4AC JUMP JUMPDEST DUP1 ISZERO PUSH2 0x157E JUMPI DUP1 PUSH1 0x1F LT PUSH2 0x1553 JUMPI PUSH2 0x100 DUP1 DUP4 SLOAD DIV MUL DUP4 MSTORE SWAP2 PUSH1 0x20 ADD SWAP2 PUSH2 0x157E JUMP JUMPDEST DUP3 ADD SWAP2 SWAP1 PUSH1 0x0 MSTORE PUSH1 0x20 PUSH1 0x0 KECCAK256 SWAP1 JUMPDEST DUP2 SLOAD DUP2 MSTORE SWAP1 PUSH1 0x1 ADD SWAP1 PUSH1 0x20 ADD DUP1 DUP4 GT PUSH2 0x1561 JUMPI DUP3 SWAP1 SUB PUSH1 0x1F AND DUP3 ADD SWAP2 JUMPDEST POP POP POP POP POP SWAP1 POP DUP1 DUP5 DUP5 DUP2 MLOAD DUP2 LT PUSH2 0x15A6 JUMPI PUSH4 0x4E487B71 PUSH1 0xE0 SHL PUSH1 0x0 MSTORE PUSH1 0x32 PUSH1 0x4 MSTORE PUSH1 0x24 PUSH1 0x0 REVERT JUMPDEST PUSH1 0x20 MUL PUSH1 0x20 ADD ADD DUP2 SWAP1 MSTORE POP POP POP DUP1 DUP1 PUSH2 0x15BE SWAP1 PUSH2 0xB4E7 JUMP JUMPDEST SWAP2 POP POP PUSH2 0x14CC JUMP JUMPDEST POP SWAP5 SWAP4 POP POP POP POP JUMP JUMPDEST PUSH1 0x0 PUSH2 0x15DA DUP3 PUSH2 0x6362 JUMP JUMPDEST PUSH2 0x15F6 JUMPI PUSH1 0x40 MLOAD PUSH3 0x461BCD PUSH1 0xE5 SHL DUP2 MSTORE PUSH1 0x4 ADD PUSH2 0xE9F SWAP1 PUSH2 0xAFE0 JUMP JUMPDEST PUSH1 0x0 DUP3 DUP2 MSTORE PUSH1 0x14 PUSH1 0x20 MSTORE PUSH1 0x40 SWAP1 KECCAK256 PUSH1 0x6 ADD SLOAD PUSH2 0x106C SWAP1 PUSH2 0x542F JUMP JUMPDEST CALLER PUSH1 0x0 SWAP1 DUP2 MSTORE PUSH1 0x15 PUSH1 0x20 MSTORE PUSH1 0x40 SWAP1 KECCAK256 PUSH1 0x5 DUP2 ADD SLOAD PUSH1 0xFF AND ISZERO ISZERO PUSH1 0x1 EQ PUSH2 0x1649 JUMPI PUSH1 0x40 MLOAD PUSH3 0x461BCD PUSH1 0xE5 SHL DUP2 MSTORE PUSH1 0x4 ADD PUSH2 0xE9F SWAP1 PUSH2 0xA97C JUMP JUMPDEST PUSH1 0x1 DUP2 ADD SLOAD ISZERO DUP1 ISZERO SWAP1 PUSH2 0x1666 JUMPI POP PUSH1 0x5 DUP2 ADD SLOAD PUSH2 0x100 SWAP1 DIV PUSH1 0xFF AND ISZERO JUMPDEST DUP1 ISZERO PUSH2 0x1678 JUMPI POP PUSH2 0x1676 CALLER PUSH2 0x69B4 JUMP JUMPDEST ISZERO JUMPDEST ISZERO PUSH2 0x16D1 JUMPI PUSH1 0x5 DUP2 ADD DUP1 SLOAD PUSH2 0xFF00 NOT AND PUSH2 0x100 OR SWAP1 SSTORE PUSH1 0x1C DUP1 SLOAD PUSH1 0x1 DUP2 ADD DUP3 SSTORE PUSH1 0x0 SWAP2 SWAP1 SWAP2 MSTORE PUSH32 0xE4562A10381DEC21B205ED72637E6B1B523BDD0E4D4D50AF5CD23DD4500A211 ADD DUP1 SLOAD PUSH1 0x1 PUSH1 0x1 PUSH1 0xA0 SHL SUB NOT AND CALLER OR SWAP1 SSTORE JUMPDEST PUSH1 0x1 DUP2 ADD SLOAD PUSH2 0x1749 JUMPI PUSH2 0x16E3 CALLER PUSH2 0x6A2B JUMP JUMPDEST PUSH2 0x16EC CALLER PUSH2 0x6B83 JUMP JUMPDEST DUP1 SLOAD PUSH1 0x1 PUSH1 0x1 PUSH1 0xA0 SHL SUB NOT AND CALLER SWAP1 DUP2 OR DUP3 SSTORE TIMESTAMP PUSH1 0x4 DUP4 ADD DUP2 SWAP1 SSTORE PUSH1 0x5 DUP4 ADD DUP1 SLOAD PUSH1 0xFF NOT AND SWAP1 SSTORE PUSH1 0x40 MLOAD PUSH32 0x9DADCEDBA048E92B943EA1C5861CEE1DF63A566D7F795869C004780C1C698E2B SWAP2 PUSH2 0x1740 SWAP2 PUSH2 0x9EB5 JUMP JUMPDEST PUSH1 0x40 MLOAD DUP1 SWAP2 SUB SWAP1 LOG2 JUMPDEST PUSH1 0x1 PUSH1 0x23 PUSH1 0x0 DUP3 DUP3 SLOAD PUSH2 0x175C SWAP2 SWAP1 PUSH2 0xB41E JUMP JUMPDEST SWAP1 SWAP2 SSTORE POP PUSH2 0x176A SWAP1 POP PUSH2 0x6CB3 JUMP JUMPDEST POP JUMP JUMPDEST PUSH1 0x0 DUP1 PUSH2 0x1779 DUP6 PUSH2 0x1A8A JUMP JUMPDEST SWAP1 POP PUSH1 0x0 PUSH2 0x1787 DUP7 DUP4 PUSH2 0x508D JUMP JUMPDEST SWAP1 POP JUMPDEST DUP2 ISZERO PUSH2 0x18FF JUMPI PUSH2 0x179A DUP7 DUP4 PUSH2 0x508D JUMP JUMPDEST SWAP1 POP DUP5 DUP2 GT PUSH2 0x1857 JUMPI DUP4 DUP3 EQ ISZERO PUSH2 0x184F JUMPI PUSH1 0x1 PUSH1 0x1 PUSH1 0xA0 SHL SUB DUP7 AND PUSH1 0x0 SWAP1 DUP2 MSTORE PUSH1 0x11 PUSH1 0x20 MSTORE PUSH1 0x40 SWAP1 DUP2 SWAP1 KECCAK256 SWAP1 MLOAD PUSH4 0x1C39B2B PUSH1 0xE1 SHL DUP2 MSTORE PUSH20 0x0 SWAP2 PUSH4 0x3873656 SWAP2 PUSH2 0x17FC SWAP2 SWAP1 DUP7 SWAP1 PUSH1 0x4 ADD PUSH2 0x9EDA JUMP JUMPDEST PUSH1 0x20 PUSH1 0x40 MLOAD DUP1 DUP4 SUB DUP2 DUP7 DUP1 EXTCODESIZE ISZERO DUP1 ISZERO PUSH2 0x1814 JUMPI PUSH1 0x0 DUP1 REVERT JUMPDEST POP GAS DELEGATECALL ISZERO DUP1 ISZERO PUSH2 0x1828 JUMPI RETURNDATASIZE PUSH1 0x0 DUP1 RETURNDATACOPY RETURNDATASIZE PUSH1 0x0 REVERT JUMPDEST POP POP POP POP PUSH1 0x40 MLOAD RETURNDATASIZE PUSH1 0x1F NOT PUSH1 0x1F DUP3 ADD AND DUP3 ADD DUP1 PUSH1 0x40 MSTORE POP DUP2 ADD SWAP1 PUSH2 0x184C SWAP2 SWAP1 PUSH2 0x9C85 JUMP JUMPDEST SWAP2 POP JUMPDEST POP SWAP1 POP PUSH2 0x1903 JUMP JUMPDEST PUSH1 0x1 PUSH1 0x1 PUSH1 0xA0 SHL SUB DUP7 AND PUSH1 0x0 SWAP1 DUP2 MSTORE PUSH1 0x11 PUSH1 0x20 MSTORE PUSH1 0x40 SWAP1 DUP2 SWAP1 KECCAK256 SWAP1 MLOAD PUSH4 0x1C39B2B PUSH1 0xE1 SHL DUP2 MSTORE PUSH20 0x0 SWAP2 PUSH4 0x3873656 SWAP2 PUSH2 0x18A8 SWAP2 SWAP1 DUP7 SWAP1 PUSH1 0x4 ADD PUSH2 0x9EDA JUMP JUMPDEST PUSH1 0x20 PUSH1 0x40 MLOAD DUP1 DUP4 SUB DUP2 DUP7 DUP1 EXTCODESIZE ISZERO DUP1 ISZERO PUSH2 0x18C0 JUMPI PUSH1 0x0 DUP1 REVERT JUMPDEST POP GAS DELEGATECALL ISZERO DUP1 ISZERO PUSH2 0x18D4 JUMPI RETURNDATASIZE PUSH1 0x0 DUP1 RETURNDATACOPY RETURNDATASIZE PUSH1 0x0 REVERT JUMPDEST POP POP POP POP PUSH1 0x40 MLOAD RETURNDATASIZE PUSH1 0x1F NOT PUSH1 0x1F DUP3 ADD AND DUP3 ADD DUP1 PUSH1 0x40 MSTORE POP DUP2 ADD SWAP1 PUSH2 0x18F8 SWAP2 SWAP1 PUSH2 0x9C85 JUMP JUMPDEST SWAP2 POP PUSH2 0x178A JUMP JUMPDEST POP SWAP1 POP JUMPDEST SWAP4 SWAP3 POP POP POP JUMP JUMPDEST PUSH1 0xA PUSH1 0x20 SWAP1 DUP2 MSTORE PUSH1 0x0 SWAP3 DUP4 MSTORE PUSH1 0x40 DUP1 DUP5 KECCAK256 SWAP1 SWAP2 MSTORE SWAP1 DUP3 MSTORE SWAP1 KECCAK256 SLOAD PUSH1 0xFF AND DUP2 JUMP JUMPDEST PUSH1 0xD PUSH1 0x20 SWAP1 DUP2 MSTORE PUSH1 0x0 SWAP3 DUP4 MSTORE PUSH1 0x40 DUP1 DUP5 KECCAK256 SWAP1 SWAP2 MSTORE SWAP1 DUP3 MSTORE SWAP1 KECCAK256 DUP1 SLOAD PUSH2 0x194E SWAP1 PUSH2 0xB4AC JUMP JUMPDEST DUP1 PUSH1 0x1F ADD PUSH1 0x20 DUP1 SWAP2 DIV MUL PUSH1 0x20 ADD PUSH1 0x40 MLOAD SWAP1 DUP2 ADD PUSH1 0x40 MSTORE DUP1 SWAP3 SWAP2 SWAP1 DUP2 DUP2 MSTORE PUSH1 0x20 ADD DUP3 DUP1 SLOAD PUSH2 0x197A SWAP1 PUSH2 0xB4AC JUMP JUMPDEST DUP1 ISZERO PUSH2 0x19C7 JUMPI DUP1 PUSH1 0x1F LT PUSH2 0x199C JUMPI PUSH2 0x100 DUP1 DUP4 SLOAD DIV MUL DUP4 MSTORE SWAP2 PUSH1 0x20 ADD SWAP2 PUSH2 0x19C7 JUMP JUMPDEST DUP3 ADD SWAP2 SWAP1 PUSH1 0x0 MSTORE PUSH1 0x20 PUSH1 0x0 KECCAK256 SWAP1 JUMPDEST DUP2 SLOAD DUP2 MSTORE SWAP1 PUSH1 0x1 ADD SWAP1 PUSH1 0x20 ADD DUP1 DUP4 GT PUSH2 0x19AA JUMPI DUP3 SWAP1 SUB PUSH1 0x1F AND DUP3 ADD SWAP2 JUMPDEST POP POP POP POP POP DUP2 JUMP JUMPDEST PUSH1 0x17 PUSH1 0x20 MSTORE PUSH1 0x0 SWAP1 DUP2 MSTORE PUSH1 0x40 SWAP1 KECCAK256 SLOAD DUP2 JUMP JUMPDEST PUSH1 0x1A DUP2 DUP2 SLOAD DUP2 LT PUSH2 0x19F1 JUMPI PUSH1 0x0 DUP1 REVERT JUMPDEST PUSH1 0x0 SWAP2 DUP3 MSTORE PUSH1 0x20 SWAP1 SWAP2 KECCAK256 ADD SLOAD PUSH1 0x1 PUSH1 0x1 PUSH1 0xA0 SHL SUB AND SWAP1 POP DUP2 JUMP JUMPDEST PUSH1 0x29 SLOAD PUSH1 0x1 PUSH1 0xA0 SHL SWAP1 DIV PUSH1 0xFF AND DUP2 JUMP JUMPDEST PUSH1 0x40 MLOAD PUSH1 0x0 SWAP1 DUP1 PUSH1 0x20 DUP2 DUP5 DUP1 PUSH1 0x18 GAS STATICCALL PUSH2 0x1A31 JUMPI INVALID JUMPDEST POP MLOAD SWAP2 SWAP1 POP JUMP JUMPDEST PUSH1 0x2 DUP2 PUSH1 0x4 DUP2 LT PUSH2 0x1A48 JUMPI PUSH1 0x0 DUP1 REVERT JUMPDEST PUSH1 0x2 MUL ADD DUP1 SLOAD PUSH1 0x1 SWAP1 SWAP2 ADD SLOAD SWAP1 SWAP2 POP DUP3 JUMP JUMPDEST PUSH1 0x16 PUSH1 0x20 MSTORE DUP2 PUSH1 0x0 MSTORE PUSH1 0x40 PUSH1 0x0 KECCAK256 DUP2 PUSH1 0x4 DUP2 LT PUSH2 0x1A76 JUMPI PUSH1 0x0 DUP1 REVERT JUMPDEST PUSH1 0x2 MUL ADD DUP1 SLOAD PUSH1 0x1 SWAP1 SWAP2 ADD SLOAD SWAP1 SWAP3 POP SWAP1 POP DUP3 JUMP JUMPDEST PUSH1 0x1 PUSH1 0x1 PUSH1 0xA0 SHL SUB DUP2 AND PUSH1 0x0 SWAP1 DUP2 MSTORE PUSH1 0x11 PUSH1 0x20 MSTORE PUSH1 0x40 DUP1 DUP3 KECCAK256 SWAP1 MLOAD PUSH4 0x1C39B2B PUSH1 0xE1 SHL DUP2 MSTORE PUSH20 0x0 SWAP2 PUSH4 0x3873656 SWAP2 PUSH2 0x1ADA SWAP2 SWAP1 DUP6 SWAP1 PUSH1 0x4 ADD PUSH2 0x9EDA JUMP JUMPDEST PUSH1 0x20 PUSH1 0x40 MLOAD DUP1 DUP4 SUB DUP2 DUP7 DUP1 EXTCODESIZE ISZERO DUP1 ISZERO PUSH2 0x1AF2 JUMPI PUSH1 0x0 DUP1 REVERT JUMPDEST POP GAS DELEGATECALL ISZERO DUP1 ISZERO PUSH2 0x1B06 JUMPI RETURNDATASIZE PUSH1 0x0 DUP1 RETURNDATACOPY RETURNDATASIZE PUSH1 0x0 REVERT JUMPDEST POP POP POP POP PUSH1 0x40 MLOAD RETURNDATASIZE PUSH1 0x1F NOT PUSH1 0x1F DUP3 ADD AND DUP3 ADD DUP1 PUSH1 0x40 MSTORE POP DUP2 ADD SWAP1 PUSH2 0x106C SWAP2 SWAP1 PUSH2 0x9C85 JUMP JUMPDEST PUSH1 0x0 PUSH2 0x1B35 DUP3 PUSH2 0x6362 JUMP JUMPDEST PUSH2 0x1B51 JUMPI PUSH1 0x40 MLOAD PUSH3 0x461BCD PUSH1 0xE5 SHL DUP2 MSTORE PUSH1 0x4 ADD PUSH2 0xE9F SWAP1 PUSH2 0xACB9 JUMP JUMPDEST PUSH1 0x0 DUP3 DUP2 MSTORE PUSH1 0x14 PUSH1 0x20 MSTORE PUSH1 0x40 SWAP1 KECCAK256 PUSH1 0x6 ADD SLOAD PUSH2 0x1B6C SWAP1 PUSH2 0x542F JUMP JUMPDEST ISZERO DUP1 ISZERO PUSH2 0x106C JUMPI POP PUSH2 0x1B7D DUP3 PUSH2 0x39DA JUMP JUMPDEST ISZERO SWAP3 SWAP2 POP POP JUMP JUMPDEST PUSH1 0x21 SLOAD SWAP1 JUMP JUMPDEST PUSH1 0x26 SLOAD DUP2 JUMP JUMPDEST PUSH1 0x0 DUP2 DUP2 MSTORE PUSH1 0x14 PUSH1 0x20 SWAP1 DUP2 MSTORE PUSH1 0x40 DUP1 DUP4 KECCAK256 DUP2 MLOAD PUSH2 0x1C0 DUP2 ADD DUP4 MSTORE DUP2 SLOAD DUP2 MSTORE PUSH1 0x1 DUP3 ADD SLOAD SWAP4 DUP2 ADD SWAP4 SWAP1 SWAP4 MSTORE PUSH1 0x2 DUP2 ADD SLOAD SWAP2 DUP4 ADD SWAP2 SWAP1 SWAP2 MSTORE PUSH1 0x3 DUP2 ADD SLOAD PUSH1 0x60 DUP4 ADD MSTORE PUSH1 0x4 DUP2 ADD SLOAD PUSH1 0xFF DUP1 DUP3 AND ISZERO ISZERO PUSH1 0x80 DUP6 ADD MSTORE PUSH2 0x100 DUP1 DUP4 DIV DUP3 AND ISZERO ISZERO PUSH1 0xA0 DUP7 ADD MSTORE PUSH3 0x10000 SWAP1 SWAP3 DIV AND ISZERO ISZERO PUSH1 0xC0 DUP5 ADD MSTORE PUSH1 0x5 DUP3 ADD SLOAD PUSH1 0xE0 DUP5 ADD MSTORE PUSH1 0x6 DUP3 ADD SLOAD SWAP1 DUP4 ADD MSTORE PUSH1 0x7 DUP2 ADD SLOAD PUSH2 0x120 DUP4 ADD MSTORE PUSH1 0x8 DUP2 ADD SLOAD PUSH2 0x140 DUP4 ADD MSTORE PUSH1 0x9 DUP2 ADD DUP1 SLOAD DUP5 SWAP4 SWAP3 SWAP2 PUSH2 0x160 DUP5 ADD SWAP2 PUSH2 0x1C41 SWAP1 PUSH2 0xB4AC JUMP JUMPDEST DUP1 PUSH1 0x1F ADD PUSH1 0x20 DUP1 SWAP2 DIV MUL PUSH1 0x20 ADD PUSH1 0x40 MLOAD SWAP1 DUP2 ADD PUSH1 0x40 MSTORE DUP1 SWAP3 SWAP2 SWAP1 DUP2 DUP2 MSTORE PUSH1 0x20 ADD DUP3 DUP1 SLOAD PUSH2 0x1C6D SWAP1 PUSH2 0xB4AC JUMP JUMPDEST DUP1 ISZERO PUSH2 0x1CBA JUMPI DUP1 PUSH1 0x1F LT PUSH2 0x1C8F JUMPI PUSH2 0x100 DUP1 DUP4 SLOAD DIV MUL DUP4 MSTORE SWAP2 PUSH1 0x20 ADD SWAP2 PUSH2 0x1CBA JUMP JUMPDEST DUP3 ADD SWAP2 SWAP1 PUSH1 0x0 MSTORE PUSH1 0x20 PUSH1 0x0 KECCAK256 SWAP1 JUMPDEST DUP2 SLOAD DUP2 MSTORE SWAP1 PUSH1 0x1 ADD SWAP1 PUSH1 0x20 ADD DUP1 DUP4 GT PUSH2 0x1C9D JUMPI DUP3 SWAP1 SUB PUSH1 0x1F AND DUP3 ADD SWAP2 JUMPDEST POP POP POP SWAP2 DUP4 MSTORE POP POP PUSH1 0xA DUP3 ADD SLOAD PUSH1 0x20 DUP3 ADD MSTORE PUSH1 0xB DUP3 ADD SLOAD PUSH1 0x40 SWAP1 SWAP2 ADD SWAP1 PUSH1 0xFF AND PUSH1 0x3 DUP2 GT ISZERO PUSH2 0x1CF9 JUMPI PUSH4 0x4E487B71 PUSH1 0xE0 SHL PUSH1 0x0 MSTORE PUSH1 0x21 PUSH1 0x4 MSTORE PUSH1 0x24 PUSH1 0x0 REVERT JUMPDEST PUSH1 0x3 DUP2 GT ISZERO PUSH2 0x1D18 JUMPI PUSH4 0x4E487B71 PUSH1 0xE0 SHL PUSH1 0x0 MSTORE PUSH1 0x21 PUSH1 0x4 MSTORE PUSH1 0x24 PUSH1 0x0 REVERT JUMPDEST SWAP1 MSTORE POP PUSH2 0x140 DUP2 ADD MLOAD PUSH2 0x120 DUP3 ADD MLOAD SWAP2 SWAP3 POP PUSH2 0x1D33 SWAP2 PUSH2 0xB41E JUMP JUMPDEST PUSH1 0x29 PUSH1 0x0 SWAP1 SLOAD SWAP1 PUSH2 0x100 EXP SWAP1 DIV PUSH1 0x1 PUSH1 0x1 PUSH1 0xA0 SHL SUB AND PUSH1 0x1 PUSH1 0x1 PUSH1 0xA0 SHL SUB AND PUSH4 0xEA19733C PUSH1 0x40 MLOAD DUP2 PUSH4 0xFFFFFFFF AND PUSH1 0xE0 SHL DUP2 MSTORE PUSH1 0x4 ADD PUSH1 0x20 PUSH1 0x40 MLOAD DUP1 DUP4 SUB DUP2 DUP7 DUP1 EXTCODESIZE ISZERO DUP1 ISZERO PUSH2 0x1D81 JUMPI PUSH1 0x0 DUP1 REVERT JUMPDEST POP GAS STATICCALL ISZERO DUP1 ISZERO PUSH2 0x1D95 JUMPI RETURNDATASIZE PUSH1 0x0 DUP1 RETURNDATACOPY RETURNDATASIZE PUSH1 0x0 REVERT JUMPDEST POP POP POP POP PUSH1 0x40 MLOAD RETURNDATASIZE PUSH1 0x1F NOT PUSH1 0x1F DUP3 ADD AND DUP3 ADD DUP1 PUSH1 0x40 MSTORE POP DUP2 ADD SWAP1 PUSH2 0x1DB9 SWAP2 SWAP1 PUSH2 0x9C85 JUMP JUMPDEST PUSH2 0x1DC3 SWAP2 SWAP1 PUSH2 0xB44A JUMP JUMPDEST PUSH2 0x120 DUP3 ADD MLOAD PUSH2 0x1DD4 SWAP1 PUSH1 0x64 PUSH2 0xB44A JUMP JUMPDEST GT SWAP4 SWAP3 POP POP POP JUMP JUMPDEST PUSH2 0x1DE4 PUSH2 0x6975 JUMP JUMPDEST PUSH1 0x0 DUP2 DUP2 MSTORE PUSH1 0x13 PUSH1 0x20 MSTORE PUSH1 0x40 DUP2 KECCAK256 SWAP1 PUSH2 0x1DFD DUP3 DUP3 PUSH2 0x9725 JUMP JUMPDEST PUSH1 0x1 DUP3 ADD DUP1 SLOAD PUSH1 0x1 PUSH1 0x1 PUSH1 0xA0 SHL SUB NOT AND SWAP1 SSTORE PUSH1 0x0 PUSH1 0x2 DUP4 ADD DUP2 SWAP1 SSTORE PUSH1 0x3 DUP4 ADD DUP2 SWAP1 SSTORE PUSH2 0x1E2D SWAP1 PUSH1 0x4 DUP5 ADD SWAP1 PUSH2 0x9725 JUMP JUMPDEST PUSH2 0x1E3B PUSH1 0x5 DUP4 ADD PUSH1 0x0 PUSH2 0x9725 JUMP JUMPDEST POP PUSH1 0x6 ADD DUP1 SLOAD PUSH1 0xFF NOT AND SWAP1 SSTORE POP JUMP JUMPDEST PUSH1 0x20 SLOAD SWAP1 JUMP JUMPDEST PUSH1 0x1A SLOAD SWAP1 JUMP JUMPDEST PUSH1 0x1 PUSH1 0x1 PUSH1 0xA0 SHL SUB DUP2 AND PUSH1 0x0 SWAP1 DUP2 MSTORE PUSH1 0x16 PUSH1 0x20 MSTORE PUSH1 0x40 DUP2 KECCAK256 SWAP1 PUSH2 0x1E7B PUSH1 0x1 PUSH1 0x4 PUSH2 0xB469 JUMP JUMPDEST SWAP1 POP PUSH1 0x0 DUP3 DUP3 PUSH1 0x4 DUP2 LT PUSH2 0x1E9F JUMPI PUSH4 0x4E487B71 PUSH1 0xE0 SHL PUSH1 0x0 MSTORE PUSH1 0x32 PUSH1 0x4 MSTORE PUSH1 0x24 PUSH1 0x0 REVERT JUMPDEST PUSH1 0x2 MUL ADD SLOAD PUSH1 0x29 SLOAD PUSH1 0x40 DUP1 MLOAD PUSH4 0x7BC663B PUSH1 0xE1 SHL DUP2 MSTORE SWAP1 MLOAD SWAP3 SWAP4 POP PUSH1 0x1 PUSH1 0x1 PUSH1 0xA0 SHL SUB SWAP1 SWAP2 AND SWAP2 PUSH4 0xF78CC76 SWAP2 PUSH1 0x4 DUP1 DUP3 ADD SWAP3 PUSH1 0x20 SWAP3 SWAP1 SWAP2 SWAP1 DUP3 SWAP1 SUB ADD DUP2 DUP7 DUP1 EXTCODESIZE ISZERO DUP1 ISZERO PUSH2 0x1EEC JUMPI PUSH1 0x0 DUP1 REVERT JUMPDEST POP GAS STATICCALL ISZERO DUP1 ISZERO PUSH2 0x1F00 JUMPI RETURNDATASIZE PUSH1 0x0 DUP1 RETURNDATACOPY RETURNDATASIZE PUSH1 0x0 REVERT JUMPDEST POP POP POP POP PUSH1 0x40 MLOAD RETURNDATASIZE PUSH1 0x1F NOT PUSH1 0x1F DUP3 ADD AND DUP3 ADD DUP1 PUSH1 0x40 MSTORE POP DUP2 ADD SWAP1 PUSH2 0x1F24 SWAP2 SWAP1 PUSH2 0x9C85 JUMP JUMPDEST PUSH2 0x1F2E DUP3 TIMESTAMP PUSH2 0xB469 JUMP JUMPDEST GT ISZERO PUSH2 0x2017 JUMPI PUSH1 0x0 JUMPDEST PUSH2 0x1F43 PUSH1 0x1 PUSH1 0x4 PUSH2 0xB469 JUMP JUMPDEST DUP2 LT ISZERO PUSH2 0x1FC2 JUMPI DUP4 PUSH2 0x1F56 DUP3 PUSH1 0x1 PUSH2 0xB41E JUMP JUMPDEST PUSH1 0x4 DUP2 LT PUSH2 0x1F74 JUMPI PUSH4 0x4E487B71 PUSH1 0xE0 SHL PUSH1 0x0 MSTORE PUSH1 0x32 PUSH1 0x4 MSTORE PUSH1 0x24 PUSH1 0x0 REVERT JUMPDEST PUSH1 0x2 MUL ADD DUP5 DUP3 PUSH1 0x4 DUP2 LT PUSH2 0x1F98 JUMPI PUSH4 0x4E487B71 PUSH1 0xE0 SHL PUSH1 0x0 MSTORE PUSH1 0x32 PUSH1 0x4 MSTORE PUSH1 0x24 PUSH1 0x0 REVERT JUMPDEST DUP3 SLOAD PUSH1 0x2 SWAP2 SWAP1 SWAP2 MUL SWAP2 SWAP1 SWAP2 ADD SWAP1 DUP2 SSTORE PUSH1 0x1 SWAP2 DUP3 ADD SLOAD SWAP2 ADD SSTORE DUP1 PUSH2 0x1FBA DUP2 PUSH2 0xB4E7 JUMP JUMPDEST SWAP2 POP POP PUSH2 0x1F37 JUMP JUMPDEST POP TIMESTAMP DUP4 DUP4 PUSH1 0x4 DUP2 LT PUSH2 0x1FE4 JUMPI PUSH4 0x4E487B71 PUSH1 0xE0 SHL PUSH1 0x0 MSTORE PUSH1 0x32 PUSH1 0x4 MSTORE PUSH1 0x24 PUSH1 0x0 REVERT JUMPDEST PUSH1 0x2 MUL ADD SSTORE PUSH1 0x0 DUP4 DUP4 PUSH1 0x4 DUP2 LT PUSH2 0x200B JUMPI PUSH4 0x4E487B71 PUSH1 0xE0 SHL PUSH1 0x0 MSTORE PUSH1 0x32 PUSH1 0x4 MSTORE PUSH1 0x24 PUSH1 0x0 REVERT JUMPDEST PUSH1 0x2 MUL ADD PUSH1 0x1 ADD DUP2 SWAP1 SSTORE POP JUMPDEST POP POP POP POP JUMP JUMPDEST PUSH1 0x1 PUSH1 0x1 PUSH1 0xA0 SHL SUB DUP2 AND PUSH1 0x0 SWAP1 DUP2 MSTORE PUSH1 0x10 PUSH1 0x20 SWAP1 DUP2 MSTORE PUSH1 0x40 SWAP2 DUP3 SWAP1 KECCAK256 DUP1 SLOAD DUP4 MLOAD DUP2 DUP5 MUL DUP2 ADD DUP5 ADD SWAP1 SWAP5 MSTORE DUP1 DUP5 MSTORE PUSH1 0x60 SWAP4 SWAP3 DUP4 ADD DUP3 DUP3 DUP1 ISZERO PUSH2 0x207D JUMPI PUSH1 0x20 MUL DUP3 ADD SWAP2 SWAP1 PUSH1 0x0 MSTORE PUSH1 0x20 PUSH1 0x0 KECCAK256 SWAP1 JUMPDEST DUP2 SLOAD DUP2 MSTORE PUSH1 0x20 ADD SWAP1 PUSH1 0x1 ADD SWAP1 DUP1 DUP4 GT PUSH2 0x2069 JUMPI JUMPDEST POP POP POP POP POP SWAP1 POP SWAP2 SWAP1 POP JUMP JUMPDEST PUSH2 0x2091 PUSH2 0x9761 JUMP JUMPDEST PUSH1 0x0 DUP3 DUP2 MSTORE PUSH1 0x13 PUSH1 0x20 MSTORE PUSH1 0x40 SWAP1 DUP2 SWAP1 KECCAK256 DUP2 MLOAD PUSH1 0xE0 DUP2 ADD SWAP1 SWAP3 MSTORE DUP1 SLOAD DUP3 SWAP1 DUP3 SWAP1 PUSH2 0x20B9 SWAP1 PUSH2 0xB4AC JUMP JUMPDEST DUP1 PUSH1 0x1F ADD PUSH1 0x20 DUP1 SWAP2 DIV MUL PUSH1 0x20 ADD PUSH1 0x40 MLOAD SWAP1 DUP2 ADD PUSH1 0x40 MSTORE DUP1 SWAP3 SWAP2 SWAP1 DUP2 DUP2 MSTORE PUSH1 0x20 ADD DUP3 DUP1 SLOAD PUSH2 0x20E5 SWAP1 PUSH2 0xB4AC JUMP JUMPDEST DUP1 ISZERO PUSH2 0x2132 JUMPI DUP1 PUSH1 0x1F LT PUSH2 0x2107 JUMPI PUSH2 0x100 DUP1 DUP4 SLOAD DIV MUL DUP4 MSTORE SWAP2 PUSH1 0x20 ADD SWAP2 PUSH2 0x2132 JUMP JUMPDEST DUP3 ADD SWAP2 SWAP1 PUSH1 0x0 MSTORE PUSH1 0x20 PUSH1 0x0 KECCAK256 SWAP1 JUMPDEST DUP2 SLOAD DUP2 MSTORE SWAP1 PUSH1 0x1 ADD SWAP1 PUSH1 0x20 ADD DUP1 DUP4 GT PUSH2 0x2115 JUMPI DUP3 SWAP1 SUB PUSH1 0x1F AND DUP3 ADD SWAP2 JUMPDEST POP POP POP SWAP2 DUP4 MSTORE POP POP PUSH1 0x1 DUP3 ADD SLOAD PUSH1 0x1 PUSH1 0x1 PUSH1 0xA0 SHL SUB AND PUSH1 0x20 DUP3 ADD MSTORE PUSH1 0x2 DUP3 ADD SLOAD PUSH1 0x40 DUP3 ADD MSTORE PUSH1 0x3 DUP3 ADD SLOAD PUSH1 0x60 DUP3 ADD MSTORE PUSH1 0x4 DUP3 ADD DUP1 SLOAD PUSH1 0x80 SWAP1 SWAP3 ADD SWAP2 PUSH2 0x2176 SWAP1 PUSH2 0xB4AC JUMP JUMPDEST DUP1 PUSH1 0x1F ADD PUSH1 0x20 DUP1 SWAP2 DIV MUL PUSH1 0x20 ADD PUSH1 0x40 MLOAD SWAP1 DUP2 ADD PUSH1 0x40 MSTORE DUP1 SWAP3 SWAP2 SWAP1 DUP2 DUP2 MSTORE PUSH1 0x20 ADD DUP3 DUP1 SLOAD PUSH2 0x21A2 SWAP1 PUSH2 0xB4AC JUMP JUMPDEST DUP1 ISZERO PUSH2 0x21EF JUMPI DUP1 PUSH1 0x1F LT PUSH2 0x21C4 JUMPI PUSH2 0x100 DUP1 DUP4 SLOAD DIV MUL DUP4 MSTORE SWAP2 PUSH1 0x20 ADD SWAP2 PUSH2 0x21EF JUMP JUMPDEST DUP3 ADD SWAP2 SWAP1 PUSH1 0x0 MSTORE PUSH1 0x20 PUSH1 0x0 KECCAK256 SWAP1 JUMPDEST DUP2 SLOAD DUP2 MSTORE SWAP1 PUSH1 0x1 ADD SWAP1 PUSH1 0x20 ADD DUP1 DUP4 GT PUSH2 0x21D2 JUMPI DUP3 SWAP1 SUB PUSH1 0x1F AND DUP3 ADD SWAP2 JUMPDEST POP POP POP POP POP DUP2 MSTORE PUSH1 0x20 ADD PUSH1 0x5 DUP3 ADD DUP1 SLOAD PUSH2 0x2208 SWAP1 PUSH2 0xB4AC JUMP JUMPDEST DUP1 PUSH1 0x1F ADD PUSH1 0x20 DUP1 SWAP2 DIV MUL PUSH1 0x20 ADD PUSH1 0x40 MLOAD SWAP1 DUP2 ADD PUSH1 0x40 MSTORE DUP1 SWAP3 SWAP2 SWAP1 DUP2 DUP2 MSTORE PUSH1 0x20 ADD DUP3 DUP1 SLOAD PUSH2 0x2234 SWAP1 PUSH2 0xB4AC JUMP JUMPDEST DUP1 ISZERO PUSH2 0x2281 JUMPI DUP1 PUSH1 0x1F LT PUSH2 0x2256 JUMPI PUSH2 0x100 DUP1 DUP4 SLOAD DIV MUL DUP4 MSTORE SWAP2 PUSH1 0x20 ADD SWAP2 PUSH2 0x2281 JUMP JUMPDEST DUP3 ADD SWAP2 SWAP1 PUSH1 0x0 MSTORE PUSH1 0x20 PUSH1 0x0 KECCAK256 SWAP1 JUMPDEST DUP2 SLOAD DUP2 MSTORE SWAP1 PUSH1 0x1 ADD SWAP1 PUSH1 0x20 ADD DUP1 DUP4 GT PUSH2 0x2264 JUMPI DUP3 SWAP1 SUB PUSH1 0x1F AND DUP3 ADD SWAP2 JUMPDEST POP POP POP SWAP2 DUP4 MSTORE POP POP PUSH1 0x6 DUP3 ADD SLOAD PUSH1 0x20 SWAP1 SWAP2 ADD SWAP1 PUSH1 0xFF AND PUSH1 0x3 DUP2 GT ISZERO PUSH2 0x22B6 JUMPI PUSH4 0x4E487B71 PUSH1 0xE0 SHL PUSH1 0x0 MSTORE PUSH1 0x21 PUSH1 0x4 MSTORE PUSH1 0x24 PUSH1 0x0 REVERT JUMPDEST PUSH1 0x3 DUP2 GT ISZERO PUSH2 0x22D5 JUMPI PUSH4 0x4E487B71 PUSH1 0xE0 SHL PUSH1 0x0 MSTORE PUSH1 0x21 PUSH1 0x4 MSTORE PUSH1 0x24 PUSH1 0x0 REVERT JUMPDEST SWAP1 MSTORE POP SWAP3 SWAP2 POP POP JUMP JUMPDEST PUSH1 0xE PUSH1 0x20 SWAP1 DUP2 MSTORE PUSH1 0x0 SWAP3 DUP4 MSTORE PUSH1 0x40 DUP1 DUP5 KECCAK256 SWAP1 SWAP2 MSTORE SWAP1 DUP3 MSTORE SWAP1 KECCAK256 SLOAD DUP2 JUMP JUMPDEST PUSH1 0x10 PUSH1 0x20 MSTORE DUP2 PUSH1 0x0 MSTORE PUSH1 0x40 PUSH1 0x0 KECCAK256 DUP2 DUP2 SLOAD DUP2 LT PUSH2 0x2317 JUMPI PUSH1 0x0 DUP1 REVERT JUMPDEST SWAP1 PUSH1 0x0 MSTORE PUSH1 0x20 PUSH1 0x0 KECCAK256 ADD PUSH1 0x0 SWAP2 POP SWAP2 POP POP SLOAD DUP2 JUMP JUMPDEST PUSH1 0x60 PUSH2 0x2337 DUP3 PUSH2 0x6362 JUMP JUMPDEST PUSH2 0x2353 JUMPI PUSH1 0x40 MLOAD PUSH3 0x461BCD PUSH1 0xE5 SHL DUP2 MSTORE PUSH1 0x4 ADD PUSH2 0xE9F SWAP1 PUSH2 0xACB9 JUMP JUMPDEST PUSH1 0x0 DUP3 DUP2 MSTORE PUSH1 0x19 PUSH1 0x20 SWAP1 DUP2 MSTORE PUSH1 0x40 DUP1 DUP4 KECCAK256 DUP1 SLOAD DUP3 MLOAD DUP2 DUP6 MUL DUP2 ADD DUP6 ADD SWAP1 SWAP4 MSTORE DUP1 DUP4 MSTORE SWAP2 SWAP3 SWAP1 SWAP2 SWAP1 DUP4 ADD DUP3 DUP3 DUP1 ISZERO PUSH2 0x23B3 JUMPI PUSH1 0x20 MUL DUP3 ADD SWAP2 SWAP1 PUSH1 0x0 MSTORE PUSH1 0x20 PUSH1 0x0 KECCAK256 SWAP1 JUMPDEST DUP2 SLOAD PUSH1 0x1 PUSH1 0x1 PUSH1 0xA0 SHL SUB AND DUP2 MSTORE PUSH1 0x1 SWAP1 SWAP2 ADD SWAP1 PUSH1 0x20 ADD DUP1 DUP4 GT PUSH2 0x2395 JUMPI JUMPDEST POP POP POP POP POP SWAP1 POP PUSH1 0x0 DUP2 MLOAD PUSH1 0x1 PUSH1 0x1 PUSH1 0x40 SHL SUB DUP2 GT ISZERO PUSH2 0x23E3 JUMPI PUSH4 0x4E487B71 PUSH1 0xE0 SHL PUSH1 0x0 MSTORE PUSH1 0x41 PUSH1 0x4 MSTORE PUSH1 0x24 PUSH1 0x0 REVERT JUMPDEST PUSH1 0x40 MLOAD SWAP1 DUP1 DUP3 MSTORE DUP1 PUSH1 0x20 MUL PUSH1 0x20 ADD DUP3 ADD PUSH1 0x40 MSTORE DUP1 ISZERO PUSH2 0x2416 JUMPI DUP2 PUSH1 0x20 ADD JUMPDEST PUSH1 0x60 DUP2 MSTORE PUSH1 0x20 ADD SWAP1 PUSH1 0x1 SWAP1 SUB SWAP1 DUP2 PUSH2 0x2401 JUMPI SWAP1 POP JUMPDEST POP SWAP1 POP PUSH1 0x0 JUMPDEST DUP3 MLOAD DUP2 LT ISZERO PUSH2 0x100B JUMPI PUSH1 0xF PUSH1 0x0 DUP7 DUP2 MSTORE PUSH1 0x20 ADD SWAP1 DUP2 MSTORE PUSH1 0x20 ADD PUSH1 0x0 KECCAK256 PUSH1 0x0 DUP5 DUP4 DUP2 MLOAD DUP2 LT PUSH2 0x245A JUMPI PUSH4 0x4E487B71 PUSH1 0xE0 SHL PUSH1 0x0 MSTORE PUSH1 0x32 PUSH1 0x4 MSTORE PUSH1 0x24 PUSH1 0x0 REVERT JUMPDEST PUSH1 0x20 MUL PUSH1 0x20 ADD ADD MLOAD PUSH1 0x1 PUSH1 0x1 PUSH1 0xA0 SHL SUB AND PUSH1 0x1 PUSH1 0x1 PUSH1 0xA0 SHL SUB AND DUP2 MSTORE PUSH1 0x20 ADD SWAP1 DUP2 MSTORE PUSH1 0x20 ADD PUSH1 0x0 KECCAK256 DUP1 SLOAD PUSH2 0x248D SWAP1 PUSH2 0xB4AC JUMP JUMPDEST DUP1 PUSH1 0x1F ADD PUSH1 0x20 DUP1 SWAP2 DIV MUL PUSH1 0x20 ADD PUSH1 0x40 MLOAD SWAP1 DUP2 ADD PUSH1 0x40 MSTORE DUP1 SWAP3 SWAP2 SWAP1 DUP2 DUP2 MSTORE PUSH1 0x20 ADD DUP3 DUP1 SLOAD PUSH2 0x24B9 SWAP1 PUSH2 0xB4AC JUMP JUMPDEST DUP1 ISZERO PUSH2 0x2506 JUMPI DUP1 PUSH1 0x1F LT PUSH2 0x24DB JUMPI PUSH2 0x100 DUP1 DUP4 SLOAD DIV MUL DUP4 MSTORE SWAP2 PUSH1 0x20 ADD SWAP2 PUSH2 0x2506 JUMP JUMPDEST DUP3 ADD SWAP2 SWAP1 PUSH1 0x0 MSTORE PUSH1 0x20 PUSH1 0x0 KECCAK256 SWAP1 JUMPDEST DUP2 SLOAD DUP2 MSTORE SWAP1 PUSH1 0x1 ADD SWAP1 PUSH1 0x20 ADD DUP1 DUP4 GT PUSH2 0x24E9 JUMPI DUP3 SWAP1 SUB PUSH1 0x1F AND DUP3 ADD SWAP2 JUMPDEST POP POP POP POP POP DUP3 DUP3 DUP2 MLOAD DUP2 LT PUSH2 0x252B JUMPI PUSH4 0x4E487B71 PUSH1 0xE0 SHL PUSH1 0x0 MSTORE PUSH1 0x32 PUSH1 0x4 MSTORE PUSH1 0x24 PUSH1 0x0 REVERT JUMPDEST PUSH1 0x20 MUL PUSH1 0x20 ADD ADD DUP2 SWAP1 MSTORE POP DUP1 DUP1 PUSH2 0x2541 SWAP1 PUSH2 0xB4E7 JUMP JUMPDEST SWAP2 POP POP PUSH2 0x241C JUMP JUMPDEST PUSH1 0x0 PUSH2 0x2557 PUSH1 0x1 PUSH1 0x4 PUSH2 0xB469 JUMP JUMPDEST SWAP1 POP PUSH1 0x0 PUSH1 0x2 DUP3 PUSH1 0x4 DUP2 LT PUSH2 0x257C JUMPI PUSH4 0x4E487B71 PUSH1 0xE0 SHL PUSH1 0x0 MSTORE PUSH1 0x32 PUSH1 0x4 MSTORE PUSH1 0x24 PUSH1 0x0 REVERT JUMPDEST PUSH1 0x2 MUL ADD SLOAD PUSH1 0x29 SLOAD PUSH1 0x40 DUP1 MLOAD PUSH4 0x7BC663B PUSH1 0xE1 SHL DUP2 MSTORE SWAP1 MLOAD SWAP3 SWAP4 POP PUSH1 0x1 PUSH1 0x1 PUSH1 0xA0 SHL SUB SWAP1 SWAP2 AND SWAP2 PUSH4 0xF78CC76 SWAP2 PUSH1 0x4 DUP1 DUP3 ADD SWAP3 PUSH1 0x20 SWAP3 SWAP1 SWAP2 SWAP1 DUP3 SWAP1 SUB ADD DUP2 DUP7 DUP1 EXTCODESIZE ISZERO DUP1 ISZERO PUSH2 0x25C9 JUMPI PUSH1 0x0 DUP1 REVERT JUMPDEST POP GAS STATICCALL ISZERO DUP1 ISZERO PUSH2 0x25DD JUMPI RETURNDATASIZE PUSH1 0x0 DUP1 RETURNDATACOPY RETURNDATASIZE PUSH1 0x0 REVERT JUMPDEST POP POP POP POP PUSH1 0x40 MLOAD RETURNDATASIZE PUSH1 0x1F NOT PUSH1 0x1F DUP3 ADD AND DUP3 ADD DUP1 PUSH1 0x40 MSTORE POP DUP2 ADD SWAP1 PUSH2 0x2601 SWAP2 SWAP1 PUSH2 0x9C85 JUMP JUMPDEST PUSH2 0x260B DUP3 TIMESTAMP PUSH2 0xB469 JUMP JUMPDEST GT ISZERO PUSH2 0x26FE JUMPI PUSH1 0x0 JUMPDEST PUSH2 0x2620 PUSH1 0x1 PUSH1 0x4 PUSH2 0xB469 JUMP JUMPDEST DUP2 LT ISZERO PUSH2 0x26A1 JUMPI PUSH1 0x2 PUSH2 0x2634 DUP3 PUSH1 0x1 PUSH2 0xB41E JUMP JUMPDEST PUSH1 0x4 DUP2 LT PUSH2 0x2652 JUMPI PUSH4 0x4E487B71 PUSH1 0xE0 SHL PUSH1 0x0 MSTORE PUSH1 0x32 PUSH1 0x4 MSTORE PUSH1 0x24 PUSH1 0x0 REVERT JUMPDEST PUSH1 0x2 MUL ADD PUSH1 0x2 DUP3 PUSH1 0x4 DUP2 LT PUSH2 0x2677 JUMPI PUSH4 0x4E487B71 PUSH1 0xE0 SHL PUSH1 0x0 MSTORE PUSH1 0x32 PUSH1 0x4 MSTORE PUSH1 0x24 PUSH1 0x0 REVERT JUMPDEST DUP3 SLOAD PUSH1 0x2 SWAP2 SWAP1 SWAP2 MUL SWAP2 SWAP1 SWAP2 ADD SWAP1 DUP2 SSTORE PUSH1 0x1 SWAP2 DUP3 ADD SLOAD SWAP2 ADD SSTORE DUP1 PUSH2 0x2699 DUP2 PUSH2 0xB4E7 JUMP JUMPDEST SWAP2 POP POP PUSH2 0x2614 JUMP JUMPDEST POP TIMESTAMP PUSH1 0x2 DUP4 PUSH1 0x4 DUP2 LT PUSH2 0x26C4 JUMPI PUSH4 0x4E487B71 PUSH1 0xE0 SHL PUSH1 0x0 MSTORE PUSH1 0x32 PUSH1 0x4 MSTORE PUSH1 0x24 PUSH1 0x0 REVERT JUMPDEST PUSH1 0x2 MUL ADD PUSH1 0x0 ADD DUP2 SWAP1 SSTORE POP PUSH1 0x0 PUSH1 0x2 DUP4 PUSH1 0x4 DUP2 LT PUSH2 0x26F2 JUMPI PUSH4 0x4E487B71 PUSH1 0xE0 SHL PUSH1 0x0 MSTORE PUSH1 0x32 PUSH1 0x4 MSTORE PUSH1 0x24 PUSH1 0x0 REVERT JUMPDEST PUSH1 0x2 MUL ADD PUSH1 0x1 ADD DUP2 SWAP1 SSTORE POP JUMPDEST POP POP JUMP JUMPDEST PUSH2 0x270A PUSH2 0x6975 JUMP JUMPDEST PUSH1 0x0 DUP2 DUP2 MSTORE PUSH1 0x14 PUSH1 0x20 MSTORE PUSH1 0x40 DUP2 KECCAK256 DUP2 DUP2 SSTORE PUSH1 0x1 DUP2 ADD DUP3 SWAP1 SSTORE PUSH1 0x2 DUP2 ADD DUP3 SWAP1 SSTORE PUSH1 0x3 DUP2 ADD DUP3 SWAP1 SSTORE PUSH1 0x4 DUP2 ADD DUP1 SLOAD PUSH3 0xFFFFFF NOT AND SWAP1 SSTORE PUSH1 0x5 DUP2 ADD DUP3 SWAP1 SSTORE PUSH1 0x6 DUP2 ADD DUP3 SWAP1 SSTORE PUSH1 0x7 DUP2 ADD DUP3 SWAP1 SSTORE PUSH1 0x8 DUP2 ADD DUP3 SWAP1 SSTORE SWAP1 PUSH2 0x2768 PUSH1 0x9 DUP4 ADD DUP3 PUSH2 0x9725 JUMP JUMPDEST POP PUSH1 0x0 PUSH1 0xA DUP3 ADD SSTORE PUSH1 0xB ADD DUP1 SLOAD PUSH1 0xFF NOT AND SWAP1 SSTORE POP JUMP JUMPDEST PUSH1 0x0 PUSH2 0x2789 DUP3 PUSH2 0x6362 JUMP JUMPDEST PUSH2 0x2795 JUMPI POP PUSH1 0x0 PUSH2 0x1010 JUMP JUMPDEST PUSH1 0x0 DUP3 DUP2 MSTORE PUSH1 0x14 PUSH1 0x20 MSTORE PUSH1 0x40 SWAP1 KECCAK256 PUSH1 0x6 ADD SLOAD PUSH2 0x27B0 SWAP1 PUSH2 0x542F JUMP JUMPDEST DUP1 PUSH2 0x27CA JUMPI POP PUSH1 0x0 DUP3 DUP2 MSTORE PUSH1 0x14 PUSH1 0x20 MSTORE PUSH1 0x40 SWAP1 KECCAK256 PUSH1 0x3 ADD SLOAD ISZERO JUMPDEST SWAP1 POP PUSH2 0x1010 JUMP JUMPDEST PUSH1 0x0 PUSH2 0x106C DUP3 PUSH2 0xCC3 DUP5 PUSH2 0x1A8A JUMP JUMPDEST PUSH1 0x0 PUSH2 0x27EB DUP3 PUSH2 0x6362 JUMP JUMPDEST PUSH2 0x27F7 JUMPI POP PUSH1 0x0 PUSH2 0x1010 JUMP JUMPDEST PUSH1 0x0 DUP3 DUP2 MSTORE PUSH1 0x14 PUSH1 0x20 MSTORE PUSH1 0x40 SWAP1 KECCAK256 PUSH1 0x5 ADD SLOAD PUSH2 0x2812 SWAP1 PUSH2 0x542F JUMP JUMPDEST DUP1 PUSH2 0x27CA JUMPI POP PUSH2 0x27CA DUP3 PUSH2 0x1B2A JUMP JUMPDEST PUSH1 0x1 PUSH1 0x1 PUSH1 0xA0 SHL SUB AND PUSH1 0x0 SWAP1 DUP2 MSTORE PUSH1 0x17 PUSH1 0x20 MSTORE PUSH1 0x40 SWAP1 KECCAK256 SLOAD SWAP1 JUMP JUMPDEST PUSH2 0x2844 PUSH2 0x6975 JUMP JUMPDEST PUSH2 0x284E PUSH1 0x0 PUSH2 0x6F8C JUMP JUMPDEST JUMP JUMPDEST PUSH1 0x0 PUSH2 0x285B DUP3 PUSH2 0x6362 JUMP JUMPDEST PUSH2 0x2877 JUMPI PUSH1 0x40 MLOAD PUSH3 0x461BCD PUSH1 0xE5 SHL DUP2 MSTORE PUSH1 0x4 ADD PUSH2 0xE9F SWAP1 PUSH2 0xACB9 JUMP JUMPDEST POP PUSH1 0x0 SWAP1 DUP2 MSTORE PUSH1 0x14 PUSH1 0x20 MSTORE PUSH1 0x40 SWAP1 KECCAK256 PUSH1 0x6 ADD SLOAD SWAP1 JUMP JUMPDEST PUSH1 0x1B SLOAD SWAP1 JUMP JUMPDEST PUSH2 0x289B PUSH2 0x6975 JUMP JUMPDEST PUSH1 0x22 SSTORE JUMP JUMPDEST PUSH1 0x0 PUSH2 0x28AB DUP3 PUSH2 0x6362 JUMP JUMPDEST PUSH2 0x28C7 JUMPI PUSH1 0x40 MLOAD PUSH3 0x461BCD PUSH1 0xE5 SHL DUP2 MSTORE PUSH1 0x4 ADD PUSH2 0xE9F SWAP1 PUSH2 0xACB9 JUMP JUMPDEST PUSH1 0x0 PUSH2 0x28D2 DUP4 PUSH2 0x39DA JUMP JUMPDEST ISZERO PUSH2 0x106C JUMPI PUSH1 0x0 DUP4 DUP2 MSTORE PUSH1 0x14 PUSH1 0x20 MSTORE PUSH1 0x40 SWAP1 KECCAK256 PUSH1 0x5 ADD SLOAD PUSH2 0x1069 SWAP1 TIMESTAMP SWAP1 PUSH2 0xB469 JUMP JUMPDEST PUSH1 0x0 PUSH20 0x0 PUSH4 0x69810158 PUSH1 0x12 PUSH2 0x291C DUP7 DUP7 PUSH2 0x399B JUMP JUMPDEST PUSH1 0x40 MLOAD DUP4 PUSH4 0xFFFFFFFF AND PUSH1 0xE0 SHL DUP2 MSTORE PUSH1 0x4 ADD PUSH2 0x2939 SWAP3 SWAP2 SWAP1 PUSH2 0xB178 JUMP JUMPDEST PUSH1 0x20 PUSH1 0x40 MLOAD DUP1 DUP4 SUB DUP2 DUP7 DUP1 EXTCODESIZE ISZERO DUP1 ISZERO PUSH2 0x2951 JUMPI PUSH1 0x0 DUP1 REVERT JUMPDEST POP GAS DELEGATECALL ISZERO DUP1 ISZERO PUSH2 0x2965 JUMPI RETURNDATASIZE PUSH1 0x0 DUP1 RETURNDATACOPY RETURNDATASIZE PUSH1 0x0 REVERT JUMPDEST POP POP POP POP PUSH1 0x40 MLOAD RETURNDATASIZE PUSH1 0x1F NOT PUSH1 0x1F DUP3 ADD AND DUP3 ADD DUP1 PUSH1 0x40 MSTORE POP DUP2 ADD SWAP1 PUSH2 0x1069 SWAP2 SWAP1 PUSH2 0x9C85 JUMP JUMPDEST PUSH1 0x1B SLOAD PUSH1 0x1A SLOAD PUSH1 0x0 SWAP2 PUSH2 0x299B SWAP2 PUSH2 0xB41E JUMP JUMPDEST SWAP1 POP SWAP1 JUMP JUMPDEST PUSH1 0x0 PUSH2 0x29AB DUP3 PUSH2 0x6362 JUMP JUMPDEST PUSH2 0x29C7 JUMPI PUSH1 0x40 MLOAD PUSH3 0x461BCD PUSH1 0xE5 SHL DUP2 MSTORE PUSH1 0x4 ADD PUSH2 0xE9F SWAP1 PUSH2 0xACB9 JUMP JUMPDEST POP PUSH1 0x1 PUSH1 0x1 PUSH1 0xA0 SHL SUB SWAP2 SWAP1 SWAP2 AND PUSH1 0x0 SWAP1 DUP2 MSTORE PUSH1 0xA PUSH1 0x20 SWAP1 DUP2 MSTORE PUSH1 0x40 DUP1 DUP4 KECCAK256 SWAP4 DUP4 MSTORE SWAP3 SWAP1 MSTORE KECCAK256 SLOAD PUSH1 0xFF AND SWAP1 JUMP JUMPDEST PUSH1 0x14 PUSH1 0x20 MSTORE PUSH1 0x0 SWAP1 DUP2 MSTORE PUSH1 0x40 SWAP1 KECCAK256 DUP1 SLOAD PUSH1 0x1 DUP3 ADD SLOAD PUSH1 0x2 DUP4 ADD SLOAD PUSH1 0x3 DUP5 ADD SLOAD PUSH1 0x4 DUP6 ADD SLOAD PUSH1 0x5 DUP7 ADD SLOAD PUSH1 0x6 DUP8 ADD SLOAD PUSH1 0x7 DUP9 ADD SLOAD PUSH1 0x8 DUP10 ADD SLOAD PUSH1 0x9 DUP11 ADD DUP1 SLOAD SWAP10 SWAP11 SWAP9 SWAP10 SWAP8 SWAP9 SWAP7 SWAP8 PUSH1 0xFF DUP1 DUP9 AND SWAP9 PUSH2 0x100 DUP10 DIV DUP3 AND SWAP9 PUSH3 0x10000 SWAP1 DIV SWAP1 SWAP2 AND SWAP7 SWAP6 SWAP5 SWAP4 SWAP3 SWAP1 SWAP2 PUSH2 0x2A60 SWAP1 PUSH2 0xB4AC JUMP JUMPDEST DUP1 PUSH1 0x1F ADD PUSH1 0x20 DUP1 SWAP2 DIV MUL PUSH1 0x20 ADD PUSH1 0x40 MLOAD SWAP1 DUP2 ADD PUSH1 0x40 MSTORE DUP1 SWAP3 SWAP2 SWAP1 DUP2 DUP2 MSTORE PUSH1 0x20 ADD DUP3 DUP1 SLOAD PUSH2 0x2A8C SWAP1 PUSH2 0xB4AC JUMP JUMPDEST DUP1 ISZERO PUSH2 0x2AD9 JUMPI DUP1 PUSH1 0x1F LT PUSH2 0x2AAE JUMPI PUSH2 0x100 DUP1 DUP4 SLOAD DIV MUL DUP4 MSTORE SWAP2 PUSH1 0x20 ADD SWAP2 PUSH2 0x2AD9 JUMP JUMPDEST DUP3 ADD SWAP2 SWAP1 PUSH1 0x0 MSTORE PUSH1 0x20 PUSH1 0x0 KECCAK256 SWAP1 JUMPDEST DUP2 SLOAD DUP2 MSTORE SWAP1 PUSH1 0x1 ADD SWAP1 PUSH1 0x20 ADD DUP1 DUP4 GT PUSH2 0x2ABC JUMPI DUP3 SWAP1 SUB PUSH1 0x1F AND DUP3 ADD SWAP2 JUMPDEST POP POP POP POP PUSH1 0xA DUP4 ADD SLOAD PUSH1 0xB SWAP1 SWAP4 ADD SLOAD SWAP2 SWAP3 SWAP2 PUSH1 0xFF AND SWAP1 POP DUP15 JUMP JUMPDEST PUSH1 0x0 DUP1 DUP1 JUMPDEST PUSH1 0x4 DUP2 LT ISZERO PUSH2 0x2B49 JUMPI PUSH1 0x2 DUP2 PUSH1 0x4 DUP2 LT PUSH2 0x2B22 JUMPI PUSH4 0x4E487B71 PUSH1 0xE0 SHL PUSH1 0x0 MSTORE PUSH1 0x32 PUSH1 0x4 MSTORE PUSH1 0x24 PUSH1 0x0 REVERT JUMPDEST PUSH1 0x2 MUL ADD PUSH1 0x1 ADD SLOAD DUP3 PUSH2 0x2B35 SWAP2 SWAP1 PUSH2 0xB41E JUMP JUMPDEST SWAP2 POP DUP1 PUSH2 0x2B41 DUP2 PUSH2 0xB4E7 JUMP JUMPDEST SWAP2 POP POP PUSH2 0x2AF8 JUMP JUMPDEST POP SWAP1 POP SWAP1 JUMP JUMPDEST PUSH1 0x0 DUP1 PUSH2 0x2B5C DUP5 DUP8 PUSH2 0x508D JUMP JUMPDEST DUP4 LT ISZERO SWAP1 POP PUSH1 0x0 PUSH2 0x2B6D DUP6 DUP8 PUSH2 0x508D JUMP JUMPDEST DUP5 GT ISZERO DUP1 PUSH2 0x2B79 JUMPI POP DUP6 ISZERO JUMPDEST SWAP1 POP DUP2 DUP1 ISZERO PUSH2 0x2B85 JUMPI POP DUP1 JUMPDEST SWAP8 SWAP7 POP POP POP POP POP POP POP JUMP JUMPDEST PUSH1 0x1B DUP2 DUP2 SLOAD DUP2 LT PUSH2 0x19F1 JUMPI PUSH1 0x0 DUP1 REVERT JUMPDEST PUSH2 0x2BA9 DUP6 PUSH2 0x39DA JUMP JUMPDEST PUSH2 0x2BC5 JUMPI PUSH1 0x40 MLOAD PUSH3 0x461BCD PUSH1 0xE5 SHL DUP2 MSTORE PUSH1 0x4 ADD PUSH2 0xE9F SWAP1 PUSH2 0xA23F JUMP JUMPDEST CALLER PUSH1 0x0 SWAP1 DUP2 MSTORE PUSH1 0xA PUSH1 0x20 SWAP1 DUP2 MSTORE PUSH1 0x40 DUP1 DUP4 KECCAK256 DUP9 DUP5 MSTORE SWAP1 SWAP2 MSTORE SWAP1 KECCAK256 SLOAD PUSH1 0xFF AND ISZERO PUSH2 0x2C00 JUMPI PUSH1 0x40 MLOAD PUSH3 0x461BCD PUSH1 0xE5 SHL DUP2 MSTORE PUSH1 0x4 ADD PUSH2 0xE9F SWAP1 PUSH2 0xAD7E JUMP JUMPDEST PUSH2 0x2C0A DUP6 CALLER PUSH2 0x50D2 JUMP JUMPDEST PUSH2 0x2C26 JUMPI PUSH1 0x40 MLOAD PUSH3 0x461BCD PUSH1 0xE5 SHL DUP2 MSTORE PUSH1 0x4 ADD PUSH2 0xE9F SWAP1 PUSH2 0xA517 JUMP JUMPDEST PUSH1 0x29 SLOAD PUSH1 0x40 DUP1 MLOAD PUSH4 0x2A497981 PUSH1 0xE1 SHL DUP2 MSTORE SWAP1 MLOAD PUSH1 0x0 SWAP3 PUSH1 0x1 PUSH1 0x1 PUSH1 0xA0 SHL SUB AND SWAP2 PUSH4 0x5492F302 SWAP2 PUSH1 0x4 DUP1 DUP4 ADD SWAP3 PUSH1 0x20 SWAP3 SWAP2 SWAP1 DUP3 SWAP1 SUB ADD DUP2 DUP7 DUP1 EXTCODESIZE ISZERO DUP1 ISZERO PUSH2 0x2C6B JUMPI PUSH1 0x0 DUP1 REVERT JUMPDEST POP GAS STATICCALL ISZERO DUP1 ISZERO PUSH2 0x2C7F JUMPI RETURNDATASIZE PUSH1 0x0 DUP1 RETURNDATACOPY RETURNDATASIZE PUSH1 0x0 REVERT JUMPDEST POP POP POP POP PUSH1 0x40 MLOAD RETURNDATASIZE PUSH1 0x1F NOT PUSH1 0x1F DUP3 ADD AND DUP3 ADD DUP1 PUSH1 0x40 MSTORE POP DUP2 ADD SWAP1 PUSH2 0x2CA3 SWAP2 SWAP1 PUSH2 0x99BA JUMP JUMPDEST PUSH1 0x1 PUSH1 0x1 PUSH1 0xA0 SHL SUB AND EQ ISZERO PUSH2 0x2CCA JUMPI PUSH1 0x40 MLOAD PUSH3 0x461BCD PUSH1 0xE5 SHL DUP2 MSTORE PUSH1 0x4 ADD PUSH2 0xE9F SWAP1 PUSH2 0xAF48 JUMP JUMPDEST PUSH1 0x29 SLOAD PUSH1 0x40 DUP1 MLOAD PUSH1 0x1 PUSH3 0x4EE913 PUSH1 0xE1 SHL SUB NOT DUP2 MSTORE SWAP1 MLOAD PUSH1 0x0 SWAP3 PUSH1 0x1 PUSH1 0x1 PUSH1 0xA0 SHL SUB AND SWAP2 PUSH4 0xFF622DDA SWAP2 PUSH1 0x4 DUP1 DUP4 ADD SWAP3 PUSH1 0x20 SWAP3 SWAP2 SWAP1 DUP3 SWAP1 SUB ADD DUP2 DUP7 DUP1 EXTCODESIZE ISZERO DUP1 ISZERO PUSH2 0x2D12 JUMPI PUSH1 0x0 DUP1 REVERT JUMPDEST POP GAS STATICCALL ISZERO DUP1 ISZERO PUSH2 0x2D26 JUMPI RETURNDATASIZE PUSH1 0x0 DUP1 RETURNDATACOPY RETURNDATASIZE PUSH1 0x0 REVERT JUMPDEST POP POP POP POP PUSH1 0x40 MLOAD RETURNDATASIZE PUSH1 0x1F NOT PUSH1 0x1F DUP3 ADD AND DUP3 ADD DUP1 PUSH1 0x40 MSTORE POP DUP2 ADD SWAP1 PUSH2 0x2D4A SWAP2 SWAP1 PUSH2 0x9C85 JUMP JUMPDEST SWAP1 POP PUSH1 0x0 PUSH2 0x2D58 CALLER DUP4 PUSH2 0x3203 JUMP JUMPDEST PUSH1 0x1 PUSH1 0x1 PUSH1 0xA0 SHL SUB DUP2 AND PUSH1 0x0 SWAP1 DUP2 MSTORE PUSH1 0x17 PUSH1 0x20 MSTORE PUSH1 0x40 SWAP1 KECCAK256 SLOAD SWAP1 SWAP2 POP DUP3 GT ISZERO PUSH2 0x2DAD JUMPI PUSH1 0x1 PUSH1 0x1 PUSH1 0xA0 SHL SUB DUP2 AND PUSH1 0x0 SWAP1 DUP2 MSTORE PUSH1 0x17 PUSH1 0x20 MSTORE PUSH1 0x40 DUP2 KECCAK256 SLOAD PUSH2 0x2D9F SWAP1 DUP5 SWAP1 PUSH2 0x6FDC JUMP JUMPDEST SWAP1 POP PUSH2 0x2DAB DUP2 DUP4 PUSH2 0x6FE8 JUMP JUMPDEST POP JUMPDEST PUSH1 0x0 CALLER PUSH1 0x0 SWAP1 DUP2 MSTORE PUSH1 0x11 PUSH1 0x20 MSTORE PUSH1 0x40 DUP1 DUP3 KECCAK256 SWAP1 MLOAD PUSH4 0x1E0F2325 PUSH1 0xE3 SHL DUP2 MSTORE PUSH20 0x0 SWAP2 PUSH4 0xF0791928 SWAP2 PUSH2 0x2DF6 SWAP2 SWAP1 DUP7 SWAP1 PUSH1 0x4 ADD PUSH2 0x9EDA JUMP JUMPDEST PUSH1 0x20 PUSH1 0x40 MLOAD DUP1 DUP4 SUB DUP2 DUP7 DUP1 EXTCODESIZE ISZERO DUP1 ISZERO PUSH2 0x2E0E JUMPI PUSH1 0x0 DUP1 REVERT JUMPDEST POP GAS DELEGATECALL ISZERO DUP1 ISZERO PUSH2 0x2E22 JUMPI RETURNDATASIZE PUSH1 0x0 DUP1 RETURNDATACOPY RETURNDATASIZE PUSH1 0x0 REVERT JUMPDEST POP POP POP POP PUSH1 0x40 MLOAD RETURNDATASIZE PUSH1 0x1F NOT PUSH1 0x1F DUP3 ADD AND DUP3 ADD DUP1 PUSH1 0x40 MSTORE POP DUP2 ADD SWAP1 PUSH2 0x2E46 SWAP2 SWAP1 PUSH2 0x9C85 JUMP JUMPDEST SWAP1 POP DUP9 DUP2 EQ ISZERO PUSH2 0x2EEB JUMPI CALLER PUSH1 0x0 SWAP1 DUP2 MSTORE PUSH1 0x11 PUSH1 0x20 MSTORE PUSH1 0x40 SWAP1 DUP2 SWAP1 KECCAK256 SWAP1 MLOAD PUSH4 0x1E0F2325 PUSH1 0xE3 SHL DUP2 MSTORE PUSH20 0x0 SWAP2 PUSH4 0xF0791928 SWAP2 PUSH2 0x2E98 SWAP2 SWAP1 DUP14 SWAP1 PUSH1 0x4 ADD PUSH2 0x9EDA JUMP JUMPDEST PUSH1 0x20 PUSH1 0x40 MLOAD DUP1 DUP4 SUB DUP2 DUP7 DUP1 EXTCODESIZE ISZERO DUP1 ISZERO PUSH2 0x2EB0 JUMPI PUSH1 0x0 DUP1 REVERT JUMPDEST POP GAS DELEGATECALL ISZERO DUP1 ISZERO PUSH2 0x2EC4 JUMPI RETURNDATASIZE PUSH1 0x0 DUP1 RETURNDATACOPY RETURNDATASIZE PUSH1 0x0 REVERT JUMPDEST POP POP POP POP PUSH1 0x40 MLOAD RETURNDATASIZE PUSH1 0x1F NOT PUSH1 0x1F DUP3 ADD AND DUP3 ADD DUP1 PUSH1 0x40 MSTORE POP DUP2 ADD SWAP1 PUSH2 0x2EE8 SWAP2 SWAP1 PUSH2 0x9C85 JUMP JUMPDEST SWAP1 POP JUMPDEST PUSH2 0x2EF7 DUP3 DUP3 CALLER DUP8 PUSH2 0x2B4F JUMP JUMPDEST PUSH2 0x2F13 JUMPI PUSH1 0x40 MLOAD PUSH3 0x461BCD PUSH1 0xE5 SHL DUP2 MSTORE PUSH1 0x4 ADD PUSH2 0xE9F SWAP1 PUSH2 0xA8F1 JUMP JUMPDEST CALLER PUSH1 0x0 SWAP1 DUP2 MSTORE PUSH1 0x11 PUSH1 0x20 MSTORE PUSH1 0x40 SWAP1 DUP2 SWAP1 KECCAK256 SWAP1 MLOAD PUSH4 0x524CFE53 PUSH1 0xE1 SHL DUP2 MSTORE PUSH20 0x0 SWAP2 PUSH4 0xA499FCA6 SWAP2 PUSH2 0x2F5F SWAP2 SWAP1 DUP7 SWAP1 DUP15 SWAP1 DUP8 SWAP1 PUSH1 0x4 ADD PUSH2 0xB1F0 JUMP JUMPDEST PUSH1 0x0 PUSH1 0x40 MLOAD DUP1 DUP4 SUB DUP2 DUP7 DUP1 EXTCODESIZE ISZERO DUP1 ISZERO PUSH2 0x2F77 JUMPI PUSH1 0x0 DUP1 REVERT JUMPDEST POP GAS DELEGATECALL ISZERO DUP1 ISZERO PUSH2 0x2F8B JUMPI RETURNDATASIZE PUSH1 0x0 DUP1 RETURNDATACOPY RETURNDATASIZE PUSH1 0x0 REVERT JUMPDEST POP POP POP POP PUSH1 0x0 PUSH2 0x2F9B CALLER DUP12 PUSH2 0x399B JUMP JUMPDEST PUSH1 0x40 MLOAD PUSH4 0x99B040F PUSH1 0xE3 SHL DUP2 MSTORE SWAP1 SWAP2 POP PUSH20 0x0 SWAP1 PUSH4 0x4CD82078 SWAP1 PUSH2 0x2FDA SWAP1 PUSH1 0x12 SWAP1 DUP6 SWAP1 DUP11 SWAP1 PUSH1 0x4 ADD PUSH2 0xB1D2 JUMP JUMPDEST PUSH1 0x0 PUSH1 0x40 MLOAD DUP1 DUP4 SUB DUP2 DUP7 DUP1 EXTCODESIZE ISZERO DUP1 ISZERO PUSH2 0x2FF2 JUMPI PUSH1 0x0 DUP1 REVERT JUMPDEST POP GAS DELEGATECALL ISZERO DUP1 ISZERO PUSH2 0x3006 JUMPI RETURNDATASIZE PUSH1 0x0 DUP1 RETURNDATACOPY RETURNDATASIZE PUSH1 0x0 REVERT JUMPDEST POP POP PUSH1 0x40 MLOAD PUSH4 0x99B040F PUSH1 0xE3 SHL DUP2 MSTORE PUSH20 0x0 SWAP3 POP PUSH4 0x4CD82078 SWAP2 POP PUSH2 0x3046 SWAP1 PUSH1 0x12 SWAP1 DUP6 SWAP1 DUP15 SWAP1 PUSH1 0x4 ADD PUSH2 0xB196 JUMP JUMPDEST PUSH1 0x0 PUSH1 0x40 MLOAD DUP1 DUP4 SUB DUP2 DUP7 DUP1 EXTCODESIZE ISZERO DUP1 ISZERO PUSH2 0x305E JUMPI PUSH1 0x0 DUP1 REVERT JUMPDEST POP GAS DELEGATECALL ISZERO DUP1 ISZERO PUSH2 0x3072 JUMPI RETURNDATASIZE PUSH1 0x0 DUP1 RETURNDATACOPY RETURNDATASIZE PUSH1 0x0 REVERT JUMPDEST POP POP PUSH1 0x40 MLOAD PUSH4 0x99B040F PUSH1 0xE3 SHL DUP2 MSTORE PUSH20 0x0 SWAP3 POP PUSH4 0x4CD82078 SWAP2 POP PUSH2 0x30B2 SWAP1 PUSH1 0x12 SWAP1 DUP6 SWAP1 DUP14 SWAP1 PUSH1 0x4 ADD PUSH2 0xB14A JUMP JUMPDEST PUSH1 0x0 PUSH1 0x40 MLOAD DUP1 DUP4 SUB DUP2 DUP7 DUP1 EXTCODESIZE ISZERO DUP1 ISZERO PUSH2 0x30CA JUMPI PUSH1 0x0 DUP1 REVERT JUMPDEST POP GAS DELEGATECALL ISZERO DUP1 ISZERO PUSH2 0x30DE JUMPI RETURNDATASIZE PUSH1 0x0 DUP1 RETURNDATACOPY RETURNDATASIZE PUSH1 0x0 REVERT JUMPDEST POP POP POP PUSH1 0x0 DUP12 DUP2 MSTORE PUSH1 0xE PUSH1 0x20 SWAP1 DUP2 MSTORE PUSH1 0x40 DUP1 DUP4 KECCAK256 CALLER DUP1 DUP6 MSTORE SWAP1 DUP4 MSTORE DUP2 DUP5 KECCAK256 DUP13 SWAP1 SSTORE DUP15 DUP5 MSTORE PUSH1 0xF DUP4 MSTORE DUP2 DUP5 KECCAK256 SWAP1 DUP5 MSTORE DUP3 MSTORE SWAP1 SWAP2 KECCAK256 DUP9 MLOAD PUSH2 0x3122 SWAP4 POP SWAP1 SWAP2 DUP10 ADD SWAP1 PUSH2 0x97C5 JUMP JUMPDEST POP CALLER PUSH1 0x0 SWAP1 DUP2 MSTORE PUSH1 0x15 PUSH1 0x20 SWAP1 DUP2 MSTORE PUSH1 0x40 DUP1 DUP4 KECCAK256 DUP14 DUP5 MSTORE PUSH1 0x14 SWAP1 SWAP3 MSTORE SWAP1 SWAP2 KECCAK256 PUSH1 0x2 ADD SLOAD PUSH2 0x314F SWAP1 PUSH1 0x1 PUSH2 0x6FDC JUMP JUMPDEST PUSH1 0x0 DUP13 DUP2 MSTORE PUSH1 0x14 PUSH1 0x20 SWAP1 DUP2 MSTORE PUSH1 0x40 DUP1 DUP4 KECCAK256 PUSH1 0x2 ADD SWAP4 SWAP1 SWAP4 SSTORE TIMESTAMP PUSH1 0x4 DUP6 ADD SSTORE CALLER DUP3 MSTORE PUSH1 0xA DUP2 MSTORE DUP3 DUP3 KECCAK256 DUP15 DUP4 MSTORE SWAP1 MSTORE SWAP1 DUP2 KECCAK256 DUP1 SLOAD PUSH1 0xFF NOT AND PUSH1 0x1 SWAP1 DUP2 OR SWAP1 SWAP2 SSTORE PUSH1 0x23 DUP1 SLOAD SWAP2 SWAP3 SWAP1 SWAP2 PUSH2 0x31A0 SWAP1 DUP5 SWAP1 PUSH2 0xB41E JUMP JUMPDEST SWAP1 SWAP2 SSTORE POP PUSH2 0x31AE SWAP1 POP PUSH2 0x6CB3 JUMP JUMPDEST CALLER PUSH1 0x1 PUSH1 0x1 PUSH1 0xA0 SHL SUB AND DUP12 PUSH32 0x42864D9683FF5B12C3B2CC65D705AF5AAB104B03BC700B802F79E5C971EF08A1 DUP9 PUSH1 0x40 MLOAD PUSH2 0x31E8 SWAP2 SWAP1 PUSH2 0x9EB5 JUMP JUMPDEST PUSH1 0x40 MLOAD DUP1 SWAP2 SUB SWAP1 LOG3 POP POP POP POP POP POP POP POP POP POP POP JUMP JUMPDEST PUSH1 0x20 SLOAD DUP2 JUMP JUMPDEST PUSH1 0x0 DUP1 PUSH1 0x1 PUSH1 0x1 PUSH1 0xA0 SHL SUB AND PUSH1 0x29 PUSH1 0x0 SWAP1 SLOAD SWAP1 PUSH2 0x100 EXP SWAP1 DIV PUSH1 0x1 PUSH1 0x1 PUSH1 0xA0 SHL SUB AND PUSH1 0x1 PUSH1 0x1 PUSH1 0xA0 SHL SUB AND PUSH4 0x5492F302 PUSH1 0x40 MLOAD DUP2 PUSH4 0xFFFFFFFF AND PUSH1 0xE0 SHL DUP2 MSTORE PUSH1 0x4 ADD PUSH1 0x20 PUSH1 0x40 MLOAD DUP1 DUP4 SUB DUP2 DUP7 DUP1 EXTCODESIZE ISZERO DUP1 ISZERO PUSH2 0x325D JUMPI PUSH1 0x0 DUP1 REVERT JUMPDEST POP GAS STATICCALL ISZERO DUP1 ISZERO PUSH2 0x3271 JUMPI RETURNDATASIZE PUSH1 0x0 DUP1 RETURNDATACOPY RETURNDATASIZE PUSH1 0x0 REVERT JUMPDEST POP POP POP POP PUSH1 0x40 MLOAD RETURNDATASIZE PUSH1 0x1F NOT PUSH1 0x1F DUP3 ADD AND DUP3 ADD DUP1 PUSH1 0x40 MSTORE POP DUP2 ADD SWAP1 PUSH2 0x3295 SWAP2 SWAP1 PUSH2 0x99BA JUMP JUMPDEST PUSH1 0x1 PUSH1 0x1 PUSH1 0xA0 SHL SUB AND EQ ISZERO PUSH2 0x32BC JUMPI PUSH1 0x40 MLOAD PUSH3 0x461BCD PUSH1 0xE5 SHL DUP2 MSTORE PUSH1 0x4 ADD PUSH2 0xE9F SWAP1 PUSH2 0xAF48 JUMP JUMPDEST PUSH1 0x29 SLOAD PUSH1 0x40 DUP1 MLOAD PUSH4 0xCA64F9E7 PUSH1 0xE0 SHL DUP2 MSTORE SWAP1 MLOAD PUSH1 0x0 SWAP3 PUSH1 0x1 PUSH1 0x1 PUSH1 0xA0 SHL SUB AND SWAP2 PUSH4 0xCA64F9E7 SWAP2 PUSH1 0x4 DUP1 DUP4 ADD SWAP3 PUSH1 0x20 SWAP3 SWAP2 SWAP1 DUP3 SWAP1 SUB ADD DUP2 DUP7 DUP1 EXTCODESIZE ISZERO DUP1 ISZERO PUSH2 0x3301 JUMPI PUSH1 0x0 DUP1 REVERT JUMPDEST POP GAS STATICCALL ISZERO DUP1 ISZERO PUSH2 0x3315 JUMPI RETURNDATASIZE PUSH1 0x0 DUP1 RETURNDATACOPY RETURNDATASIZE PUSH1 0x0 REVERT JUMPDEST POP POP POP POP PUSH1 0x40 MLOAD RETURNDATASIZE PUSH1 0x1F NOT PUSH1 0x1F DUP3 ADD AND DUP3 ADD DUP1 PUSH1 0x40 MSTORE POP DUP2 ADD SWAP1 PUSH2 0x3339 SWAP2 SWAP1 PUSH2 0x99BA JUMP JUMPDEST PUSH1 0x1 PUSH1 0x1 PUSH1 0xA0 SHL SUB AND EQ ISZERO PUSH2 0x3360 JUMPI PUSH1 0x40 MLOAD PUSH3 0x461BCD PUSH1 0xE5 SHL DUP2 MSTORE PUSH1 0x4 ADD PUSH2 0xE9F SWAP1 PUSH2 0xAB16 JUMP JUMPDEST PUSH1 0x29 SLOAD PUSH1 0x40 DUP1 MLOAD PUSH4 0xCA64F9E7 PUSH1 0xE0 SHL DUP2 MSTORE SWAP1 MLOAD PUSH1 0x0 SWAP3 PUSH1 0x1 PUSH1 0x1 PUSH1 0xA0 SHL SUB AND SWAP2 PUSH4 0xCA64F9E7 SWAP2 PUSH1 0x4 DUP1 DUP4 ADD SWAP3 PUSH1 0x20 SWAP3 SWAP2 SWAP1 DUP3 SWAP1 SUB ADD DUP2 DUP7 DUP1 EXTCODESIZE ISZERO DUP1 ISZERO PUSH2 0x33A5 JUMPI PUSH1 0x0 DUP1 REVERT JUMPDEST POP GAS STATICCALL ISZERO DUP1 ISZERO PUSH2 0x33B9 JUMPI RETURNDATASIZE PUSH1 0x0 DUP1 RETURNDATACOPY RETURNDATASIZE PUSH1 0x0 REVERT JUMPDEST POP POP POP POP PUSH1 0x40 MLOAD RETURNDATASIZE PUSH1 0x1F NOT PUSH1 0x1F DUP3 ADD AND DUP3 ADD DUP1 PUSH1 0x40 MSTORE POP DUP2 ADD SWAP1 PUSH2 0x33DD SWAP2 SWAP1 PUSH2 0x99BA JUMP JUMPDEST SWAP1 POP PUSH1 0x0 PUSH1 0x29 PUSH1 0x0 SWAP1 SLOAD SWAP1 PUSH2 0x100 EXP SWAP1 DIV PUSH1 0x1 PUSH1 0x1 PUSH1 0xA0 SHL SUB AND PUSH1 0x1 PUSH1 0x1 PUSH1 0xA0 SHL SUB AND PUSH4 0x5492F302 PUSH1 0x40 MLOAD DUP2 PUSH4 0xFFFFFFFF AND PUSH1 0xE0 SHL DUP2 MSTORE PUSH1 0x4 ADD PUSH1 0x20 PUSH1 0x40 MLOAD DUP1 DUP4 SUB DUP2 DUP7 DUP1 EXTCODESIZE ISZERO DUP1 ISZERO PUSH2 0x342F JUMPI PUSH1 0x0 DUP1 REVERT JUMPDEST POP GAS STATICCALL ISZERO DUP1 ISZERO PUSH2 0x3443 JUMPI RETURNDATASIZE PUSH1 0x0 DUP1 RETURNDATACOPY RETURNDATASIZE PUSH1 0x0 REVERT JUMPDEST POP POP POP POP PUSH1 0x40 MLOAD RETURNDATASIZE PUSH1 0x1F NOT PUSH1 0x1F DUP3 ADD AND DUP3 ADD DUP1 PUSH1 0x40 MSTORE POP DUP2 ADD SWAP1 PUSH2 0x3467 SWAP2 SWAP1 PUSH2 0x99BA JUMP JUMPDEST SWAP1 POP DUP5 DUP1 PUSH1 0x5 JUMPDEST PUSH1 0x1 PUSH1 0x1 PUSH1 0xA0 SHL SUB DUP3 AND ISZERO DUP1 ISZERO SWAP1 PUSH2 0x3486 JUMPI POP PUSH1 0x0 DUP2 GT JUMPDEST ISZERO PUSH2 0x3653 JUMPI PUSH1 0x40 MLOAD PUSH4 0x65EE727 PUSH1 0xE5 SHL DUP2 MSTORE PUSH1 0x0 SWAP1 PUSH1 0x1 PUSH1 0x1 PUSH1 0xA0 SHL SUB DUP8 AND SWAP1 PUSH4 0xCBDCE4E0 SWAP1 PUSH2 0x34BA SWAP1 DUP7 SWAP1 PUSH1 0x4 ADD PUSH2 0x9EE8 JUMP JUMPDEST PUSH1 0x20 PUSH1 0x40 MLOAD DUP1 DUP4 SUB DUP2 DUP7 DUP1 EXTCODESIZE ISZERO DUP1 ISZERO PUSH2 0x34D2 JUMPI PUSH1 0x0 DUP1 REVERT JUMPDEST POP GAS STATICCALL ISZERO DUP1 ISZERO PUSH2 0x34E6 JUMPI RETURNDATASIZE PUSH1 0x0 DUP1 RETURNDATACOPY RETURNDATASIZE PUSH1 0x0 REVERT JUMPDEST POP POP POP POP PUSH1 0x40 MLOAD RETURNDATASIZE PUSH1 0x1F NOT PUSH1 0x1F DUP3 ADD AND DUP3 ADD DUP1 PUSH1 0x40 MSTORE POP DUP2 ADD SWAP1 PUSH2 0x350A SWAP2 SWAP1 PUSH2 0x9C85 JUMP JUMPDEST PUSH1 0x1 PUSH1 0x1 PUSH1 0xA0 SHL SUB DUP5 AND PUSH1 0x0 SWAP1 DUP2 MSTORE PUSH1 0x17 PUSH1 0x20 MSTORE PUSH1 0x40 SWAP1 KECCAK256 SLOAD SWAP1 SWAP2 POP DUP9 GT PUSH2 0x3535 JUMPI DUP3 SWAP4 POP POP PUSH2 0x3653 JUMP JUMPDEST PUSH1 0x1 PUSH1 0x1 PUSH1 0xA0 SHL SUB DUP4 AND PUSH1 0x0 SWAP1 DUP2 MSTORE PUSH1 0x17 PUSH1 0x20 MSTORE PUSH1 0x40 SWAP1 KECCAK256 SLOAD DUP9 LT DUP1 ISZERO SWAP1 PUSH2 0x3574 JUMPI POP PUSH1 0x1 PUSH1 0x1 PUSH1 0xA0 SHL SUB DUP4 AND PUSH1 0x0 SWAP1 DUP2 MSTORE PUSH1 0x17 PUSH1 0x20 MSTORE PUSH1 0x40 SWAP1 KECCAK256 SLOAD ISZERO ISZERO JUMPDEST ISZERO PUSH2 0x35B2 JUMPI PUSH1 0x1 PUSH1 0x1 PUSH1 0xA0 SHL SUB DUP4 AND PUSH1 0x0 SWAP1 DUP2 MSTORE PUSH1 0x17 PUSH1 0x20 MSTORE PUSH1 0x40 DUP2 KECCAK256 SLOAD PUSH2 0x359D SWAP1 DUP11 SWAP1 PUSH2 0x6FDC JUMP JUMPDEST SWAP1 POP DUP1 DUP3 LT PUSH2 0x35B0 JUMPI DUP4 SWAP5 POP POP POP PUSH2 0x3653 JUMP JUMPDEST POP JUMPDEST DUP8 DUP2 LT PUSH2 0x35C2 JUMPI DUP3 SWAP4 POP POP PUSH2 0x3653 JUMP JUMPDEST PUSH1 0x40 MLOAD PUSH4 0x792F4F69 PUSH1 0xE1 SHL DUP2 MSTORE PUSH1 0x1 PUSH1 0x1 PUSH1 0xA0 SHL SUB DUP7 AND SWAP1 PUSH4 0xF25E9ED2 SWAP1 PUSH2 0x35EE SWAP1 DUP7 SWAP1 PUSH1 0x4 ADD PUSH2 0x9EE8 JUMP JUMPDEST PUSH1 0x20 PUSH1 0x40 MLOAD DUP1 DUP4 SUB DUP2 DUP7 DUP1 EXTCODESIZE ISZERO DUP1 ISZERO PUSH2 0x3606 JUMPI PUSH1 0x0 DUP1 REVERT JUMPDEST POP GAS STATICCALL ISZERO DUP1 ISZERO PUSH2 0x361A JUMPI RETURNDATASIZE PUSH1 0x0 DUP1 RETURNDATACOPY RETURNDATASIZE PUSH1 0x0 REVERT JUMPDEST POP POP POP POP PUSH1 0x40 MLOAD RETURNDATASIZE PUSH1 0x1F NOT PUSH1 0x1F DUP3 ADD AND DUP3 ADD DUP1 PUSH1 0x40 MSTORE POP DUP2 ADD SWAP1 PUSH2 0x363E SWAP2 SWAP1 PUSH2 0x99BA JUMP JUMPDEST SWAP3 POP PUSH2 0x364B PUSH1 0x1 DUP4 PUSH2 0xB469 JUMP JUMPDEST SWAP2 POP POP PUSH2 0x346E JUMP JUMPDEST POP SWAP1 SWAP7 SWAP6 POP POP POP POP POP POP JUMP JUMPDEST PUSH1 0xF PUSH1 0x20 SWAP1 DUP2 MSTORE PUSH1 0x0 SWAP3 DUP4 MSTORE PUSH1 0x40 DUP1 DUP5 KECCAK256 SWAP1 SWAP2 MSTORE SWAP1 DUP3 MSTORE SWAP1 KECCAK256 DUP1 SLOAD PUSH2 0x194E SWAP1 PUSH2 0xB4AC JUMP JUMPDEST PUSH1 0x15 PUSH1 0x20 MSTORE PUSH1 0x0 SWAP1 DUP2 MSTORE PUSH1 0x40 SWAP1 KECCAK256 DUP1 SLOAD PUSH1 0x1 DUP3 ADD SLOAD PUSH1 0x2 DUP4 ADD SLOAD PUSH1 0x3 DUP5 ADD SLOAD PUSH1 0x4 DUP6 ADD SLOAD PUSH1 0x5 DUP7 ADD SLOAD PUSH1 0x6 DUP8 ADD SLOAD PUSH1 0x7 DUP9 ADD SLOAD PUSH1 0x8 SWAP1 SWAP9 ADD SLOAD PUSH1 0x1 PUSH1 0x1 PUSH1 0xA0 SHL SUB SWAP1 SWAP8 AND SWAP8 SWAP6 SWAP7 PUSH1 0xFF SWAP6 DUP7 AND SWAP7 SWAP5 SWAP6 SWAP4 SWAP5 DUP4 DUP6 AND SWAP5 PUSH2 0x100 SWAP1 SWAP5 DIV SWAP1 SWAP4 AND SWAP3 SWAP1 DUP11 JUMP JUMPDEST PUSH1 0x0 SLOAD PUSH1 0x1 PUSH1 0x1 PUSH1 0xA0 SHL SUB AND SWAP1 JUMP JUMPDEST PUSH1 0x19 PUSH1 0x20 MSTORE DUP2 PUSH1 0x0 MSTORE PUSH1 0x40 PUSH1 0x0 KECCAK256 DUP2 DUP2 SLOAD DUP2 LT PUSH2 0x3711 JUMPI PUSH1 0x0 DUP1 REVERT JUMPDEST PUSH1 0x0 SWAP2 DUP3 MSTORE PUSH1 0x20 SWAP1 SWAP2 KECCAK256 ADD SLOAD PUSH1 0x1 PUSH1 0x1 PUSH1 0xA0 SHL SUB AND SWAP2 POP DUP3 SWAP1 POP JUMP JUMPDEST PUSH1 0x1 PUSH1 0x0 DUP3 DUP2 MSTORE PUSH1 0x14 PUSH1 0x20 MSTORE PUSH1 0x40 SWAP1 KECCAK256 PUSH1 0xB ADD SLOAD PUSH1 0xFF AND PUSH1 0x3 DUP2 GT ISZERO PUSH2 0x3763 JUMPI PUSH4 0x4E487B71 PUSH1 0xE0 SHL PUSH1 0x0 MSTORE PUSH1 0x21 PUSH1 0x4 MSTORE PUSH1 0x24 PUSH1 0x0 REVERT JUMPDEST EQ PUSH2 0x3780 JUMPI PUSH1 0x40 MLOAD PUSH3 0x461BCD PUSH1 0xE5 SHL DUP2 MSTORE PUSH1 0x4 ADD PUSH2 0xE9F SWAP1 PUSH2 0xA1A9 JUMP JUMPDEST CALLER PUSH1 0x0 SWAP1 DUP2 MSTORE PUSH1 0x11 PUSH1 0x20 MSTORE PUSH1 0x40 SWAP1 DUP2 SWAP1 KECCAK256 SWAP1 MLOAD PUSH4 0x6120D1F PUSH1 0xE3 SHL DUP2 MSTORE PUSH20 0x0 SWAP2 PUSH4 0x309068F8 SWAP2 PUSH2 0x37C8 SWAP2 SWAP1 DUP6 SWAP1 PUSH1 0x4 ADD PUSH2 0x9EDA JUMP JUMPDEST PUSH1 0x20 PUSH1 0x40 MLOAD DUP1 DUP4 SUB DUP2 DUP7 DUP1 EXTCODESIZE ISZERO DUP1 ISZERO PUSH2 0x37E0 JUMPI PUSH1 0x0 DUP1 REVERT JUMPDEST POP GAS DELEGATECALL ISZERO DUP1 ISZERO PUSH2 0x37F4 JUMPI RETURNDATASIZE PUSH1 0x0 DUP1 RETURNDATACOPY RETURNDATASIZE PUSH1 0x0 REVERT JUMPDEST POP POP POP POP PUSH1 0x40 MLOAD RETURNDATASIZE PUSH1 0x1F NOT PUSH1 0x1F DUP3 ADD AND DUP3 ADD DUP1 PUSH1 0x40 MSTORE POP DUP2 ADD SWAP1 PUSH2 0x3818 SWAP2 SWAP1 PUSH2 0x9BAB JUMP JUMPDEST PUSH2 0x3834 JUMPI PUSH1 0x40 MLOAD PUSH3 0x461BCD PUSH1 0xE5 SHL DUP2 MSTORE PUSH1 0x4 ADD PUSH2 0xE9F SWAP1 PUSH2 0xA7DC JUMP JUMPDEST CALLER PUSH1 0x0 SWAP1 DUP2 MSTORE PUSH1 0x11 PUSH1 0x20 MSTORE PUSH1 0x40 SWAP1 DUP2 SWAP1 KECCAK256 SWAP1 MLOAD PUSH4 0x1039DFD PUSH1 0xE1 SHL DUP2 MSTORE PUSH20 0x0 SWAP2 PUSH4 0x2073BFA SWAP2 PUSH2 0x387C SWAP2 SWAP1 DUP6 SWAP1 PUSH1 0x4 ADD PUSH2 0x9EDA JUMP JUMPDEST PUSH1 0x0 PUSH1 0x40 MLOAD DUP1 DUP4 SUB DUP2 DUP7 DUP1 EXTCODESIZE ISZERO DUP1 ISZERO PUSH2 0x3894 JUMPI PUSH1 0x0 DUP1 REVERT JUMPDEST POP GAS DELEGATECALL ISZERO DUP1 ISZERO PUSH2 0x38A8 JUMPI RETURNDATASIZE PUSH1 0x0 DUP1 RETURNDATACOPY RETURNDATASIZE PUSH1 0x0 REVERT JUMPDEST POP POP PUSH1 0x40 MLOAD CALLER SWAP3 POP DUP4 SWAP2 POP PUSH32 0x402507661C8C8CB90E0A796450B8BDD28B6C516F05279C0CD29E84C344E1699A SWAP1 PUSH1 0x0 SWAP1 LOG3 POP JUMP JUMPDEST PUSH1 0x24 SLOAD DUP2 JUMP JUMPDEST PUSH1 0x1 PUSH1 0x1 PUSH1 0xA0 SHL SUB DUP2 AND PUSH1 0x0 SWAP1 DUP2 MSTORE PUSH1 0x16 PUSH1 0x20 MSTORE PUSH1 0x40 DUP2 KECCAK256 DUP2 DUP1 JUMPDEST PUSH1 0x4 DUP2 LT ISZERO PUSH2 0x100B JUMPI DUP3 DUP2 PUSH1 0x4 DUP2 LT PUSH2 0x3926 JUMPI PUSH4 0x4E487B71 PUSH1 0xE0 SHL PUSH1 0x0 MSTORE PUSH1 0x32 PUSH1 0x4 MSTORE PUSH1 0x24 PUSH1 0x0 REVERT JUMPDEST PUSH1 0x2 MUL ADD PUSH1 0x1 ADD SLOAD DUP3 PUSH2 0x3939 SWAP2 SWAP1 PUSH2 0xB41E JUMP JUMPDEST SWAP2 POP DUP1 PUSH2 0x3945 DUP2 PUSH2 0xB4E7 JUMP JUMPDEST SWAP2 POP POP PUSH2 0x38FD JUMP JUMPDEST PUSH1 0x0 JUMPDEST DUP2 MLOAD DUP2 LT ISZERO PUSH2 0x26FE JUMPI PUSH2 0x3989 DUP3 DUP3 DUP2 MLOAD DUP2 LT PUSH2 0x397C JUMPI PUSH4 0x4E487B71 PUSH1 0xE0 SHL PUSH1 0x0 MSTORE PUSH1 0x32 PUSH1 0x4 MSTORE PUSH1 0x24 PUSH1 0x0 REVERT JUMPDEST PUSH1 0x20 MUL PUSH1 0x20 ADD ADD MLOAD PUSH2 0x372D JUMP JUMPDEST DUP1 PUSH2 0x3993 DUP2 PUSH2 0xB4E7 JUMP JUMPDEST SWAP2 POP POP PUSH2 0x3950 JUMP JUMPDEST PUSH1 0x0 DUP3 DUP3 PUSH1 0x40 MLOAD PUSH1 0x20 ADD PUSH2 0x39B0 SWAP3 SWAP2 SWAP1 PUSH2 0x9E93 JUMP JUMPDEST PUSH1 0x40 MLOAD PUSH1 0x20 DUP2 DUP4 SUB SUB DUP2 MSTORE SWAP1 PUSH1 0x40 MSTORE DUP1 MLOAD SWAP1 PUSH1 0x20 ADD KECCAK256 SWAP1 POP SWAP3 SWAP2 POP POP JUMP JUMPDEST PUSH1 0x24 SLOAD SWAP1 JUMP JUMPDEST PUSH1 0x25 SLOAD DUP2 JUMP JUMPDEST PUSH1 0x0 PUSH2 0x39E5 DUP3 PUSH2 0x6362 JUMP JUMPDEST PUSH2 0x3A01 JUMPI PUSH1 0x40 MLOAD PUSH3 0x461BCD PUSH1 0xE5 SHL DUP2 MSTORE PUSH1 0x4 ADD PUSH2 0xE9F SWAP1 PUSH2 0xACB9 JUMP JUMPDEST PUSH1 0x0 DUP3 DUP2 MSTORE PUSH1 0x14 PUSH1 0x20 MSTORE PUSH1 0x40 SWAP1 KECCAK256 PUSH1 0x5 ADD SLOAD PUSH2 0x3A1C SWAP1 PUSH2 0x542F JUMP JUMPDEST ISZERO DUP1 ISZERO PUSH2 0x106C JUMPI POP POP PUSH1 0x0 SWAP1 DUP2 MSTORE PUSH1 0x14 PUSH1 0x20 MSTORE PUSH1 0x40 SWAP1 KECCAK256 PUSH1 0x2 ADD SLOAD ISZERO ISZERO SWAP1 JUMP JUMPDEST PUSH1 0x1E SLOAD SWAP1 JUMP JUMPDEST PUSH1 0x0 DUP2 PUSH1 0x40 MLOAD PUSH1 0x20 ADD PUSH2 0x3A55 SWAP2 SWAP1 PUSH2 0x9EBE JUMP JUMPDEST PUSH1 0x40 MLOAD PUSH1 0x20 DUP2 DUP4 SUB SUB DUP2 MSTORE SWAP1 PUSH1 0x40 MSTORE DUP1 MLOAD SWAP1 PUSH1 0x20 ADD KECCAK256 DUP4 PUSH1 0x40 MLOAD PUSH1 0x20 ADD PUSH2 0x3A7C SWAP2 SWAP1 PUSH2 0x9EBE JUMP JUMPDEST PUSH1 0x40 MLOAD PUSH1 0x20 DUP2 DUP4 SUB SUB DUP2 MSTORE SWAP1 PUSH1 0x40 MSTORE DUP1 MLOAD SWAP1 PUSH1 0x20 ADD KECCAK256 EQ ISZERO PUSH2 0x3AA0 JUMPI POP PUSH1 0x1 PUSH2 0x106C JUMP JUMPDEST POP PUSH1 0x0 PUSH2 0x106C JUMP JUMPDEST PUSH2 0x3AB1 DUP5 PUSH2 0x1B2A JUMP JUMPDEST PUSH2 0x3ACD JUMPI PUSH1 0x40 MLOAD PUSH3 0x461BCD PUSH1 0xE5 SHL DUP2 MSTORE PUSH1 0x4 ADD PUSH2 0xE9F SWAP1 PUSH2 0xABF7 JUMP JUMPDEST CALLER PUSH1 0x0 SWAP1 DUP2 MSTORE PUSH1 0xA PUSH1 0x20 SWAP1 DUP2 MSTORE PUSH1 0x40 DUP1 DUP4 KECCAK256 DUP8 DUP5 MSTORE SWAP1 SWAP2 MSTORE SWAP1 KECCAK256 SLOAD PUSH1 0xFF AND PUSH2 0x3B07 JUMPI PUSH1 0x40 MLOAD PUSH3 0x461BCD PUSH1 0xE5 SHL DUP2 MSTORE PUSH1 0x4 ADD PUSH2 0xE9F SWAP1 PUSH2 0xA64D JUMP JUMPDEST CALLER PUSH1 0x0 SWAP1 DUP2 MSTORE PUSH1 0xB PUSH1 0x20 SWAP1 DUP2 MSTORE PUSH1 0x40 DUP1 DUP4 KECCAK256 DUP8 DUP5 MSTORE SWAP1 SWAP2 MSTORE SWAP1 KECCAK256 SLOAD PUSH1 0xFF AND ISZERO PUSH2 0x3B42 JUMPI PUSH1 0x40 MLOAD PUSH3 0x461BCD PUSH1 0xE5 SHL DUP2 MSTORE PUSH1 0x4 ADD PUSH2 0xE9F SWAP1 PUSH2 0xB009 JUMP JUMPDEST PUSH2 0x3B4C CALLER DUP6 PUSH2 0x28F4 JUMP JUMPDEST PUSH2 0x3B56 DUP5 DUP4 PUSH2 0x5F30 JUMP JUMPDEST EQ PUSH2 0x3B73 JUMPI PUSH1 0x40 MLOAD PUSH3 0x461BCD PUSH1 0xE5 SHL DUP2 MSTORE PUSH1 0x4 ADD PUSH2 0xE9F SWAP1 PUSH2 0xA306 JUMP JUMPDEST PUSH2 0x3B7D CALLER DUP6 PUSH2 0x3F4D JUMP JUMPDEST PUSH2 0x3B87 DUP4 DUP4 PUSH2 0x4091 JUMP JUMPDEST EQ PUSH2 0x3BA4 JUMPI PUSH1 0x40 MLOAD PUSH3 0x461BCD PUSH1 0xE5 SHL DUP2 MSTORE PUSH1 0x4 ADD PUSH2 0xE9F SWAP1 PUSH2 0xA28E JUMP JUMPDEST PUSH1 0x0 PUSH2 0x3BB0 CALLER DUP7 PUSH2 0x508D JUMP JUMPDEST SWAP1 POP DUP3 PUSH1 0x1 EQ ISZERO PUSH2 0x3BE7 JUMPI PUSH1 0x0 DUP6 DUP2 MSTORE PUSH1 0x14 PUSH1 0x20 MSTORE PUSH1 0x40 DUP2 KECCAK256 PUSH1 0x7 ADD DUP1 SLOAD DUP4 SWAP3 SWAP1 PUSH2 0x3BDC SWAP1 DUP5 SWAP1 PUSH2 0xB41E JUMP JUMPDEST SWAP1 SWAP2 SSTORE POP PUSH2 0x3C0E SWAP1 POP JUMP JUMPDEST PUSH1 0x0 DUP6 DUP2 MSTORE PUSH1 0x14 PUSH1 0x20 MSTORE PUSH1 0x40 DUP2 KECCAK256 PUSH1 0x8 ADD DUP1 SLOAD DUP4 SWAP3 SWAP1 PUSH2 0x3C08 SWAP1 DUP5 SWAP1 PUSH2 0xB41E JUMP JUMPDEST SWAP1 SWAP2 SSTORE POP POP JUMPDEST CALLER PUSH1 0x0 SWAP1 DUP2 MSTORE PUSH1 0x11 PUSH1 0x20 MSTORE PUSH1 0x40 SWAP1 DUP2 SWAP1 KECCAK256 SWAP1 MLOAD PUSH4 0x1039DFD PUSH1 0xE1 SHL DUP2 MSTORE PUSH20 0x0 SWAP2 PUSH4 0x2073BFA SWAP2 PUSH2 0x3C56 SWAP2 SWAP1 DUP10 SWAP1 PUSH1 0x4 ADD PUSH2 0x9EDA JUMP JUMPDEST PUSH1 0x0 PUSH1 0x40 MLOAD DUP1 DUP4 SUB DUP2 DUP7 DUP1 EXTCODESIZE ISZERO DUP1 ISZERO PUSH2 0x3C6E JUMPI PUSH1 0x0 DUP1 REVERT JUMPDEST POP GAS DELEGATECALL ISZERO DUP1 ISZERO PUSH2 0x3C82 JUMPI RETURNDATASIZE PUSH1 0x0 DUP1 RETURNDATACOPY RETURNDATASIZE PUSH1 0x0 REVERT JUMPDEST POP POP CALLER PUSH1 0x0 DUP2 DUP2 MSTORE PUSH1 0xB PUSH1 0x20 SWAP1 DUP2 MSTORE PUSH1 0x40 DUP1 DUP4 KECCAK256 DUP12 DUP5 MSTORE DUP3 MSTORE DUP1 DUP4 KECCAK256 DUP1 SLOAD PUSH1 0xFF NOT AND PUSH1 0x1 OR SWAP1 SSTORE PUSH1 0xC DUP3 MSTORE DUP1 DUP4 KECCAK256 DUP5 DUP5 MSTORE DUP3 MSTORE DUP1 DUP4 KECCAK256 DUP10 SWAP1 SSTORE DUP11 DUP4 MSTORE PUSH1 0xD DUP3 MSTORE DUP1 DUP4 KECCAK256 SWAP4 DUP4 MSTORE SWAP3 DUP2 MSTORE SWAP2 SWAP1 KECCAK256 DUP8 MLOAD PUSH2 0x3CE1 SWAP5 POP SWAP1 SWAP3 POP SWAP1 DUP8 ADD SWAP1 PUSH2 0x97C5 JUMP JUMPDEST POP CALLER PUSH1 0x0 SWAP1 DUP2 MSTORE PUSH1 0x15 PUSH1 0x20 SWAP1 DUP2 MSTORE PUSH1 0x40 DUP1 DUP4 KECCAK256 DUP9 DUP5 MSTORE PUSH1 0x14 SWAP1 SWAP3 MSTORE SWAP1 SWAP2 KECCAK256 PUSH1 0x3 ADD SLOAD PUSH2 0x3D0E SWAP1 PUSH1 0x1 PUSH2 0x6FDC JUMP JUMPDEST PUSH1 0x0 DUP8 DUP2 MSTORE PUSH1 0x14 PUSH1 0x20 MSTORE PUSH1 0x40 SWAP1 KECCAK256 PUSH1 0x3 ADD SSTORE PUSH1 0x2 DUP2 ADD DUP1 SLOAD PUSH1 0xFF NOT AND PUSH1 0x1 OR SWAP1 SSTORE TIMESTAMP PUSH1 0x4 DUP3 ADD SSTORE PUSH1 0x5 DUP2 ADD SLOAD PUSH1 0xFF AND ISZERO PUSH2 0x3DA2 JUMPI PUSH1 0x0 PUSH1 0x1 DUP3 ADD SSTORE PUSH2 0x3D52 CALLER PUSH2 0x6B83 JUMP JUMPDEST PUSH2 0x3D5B CALLER PUSH2 0x7210 JUMP JUMPDEST PUSH2 0x3DA2 JUMPI PUSH1 0x1A DUP1 SLOAD PUSH1 0x1 DUP2 ADD DUP3 SSTORE PUSH1 0x0 SWAP2 SWAP1 SWAP2 MSTORE PUSH32 0x57C384A7D1C54F3A1B2E5E67B2617B8224FDFD1EA7234EEA573A6FF665FF63E ADD DUP1 SLOAD PUSH1 0x1 PUSH1 0x1 PUSH1 0xA0 SHL SUB NOT AND CALLER OR SWAP1 SSTORE JUMPDEST PUSH1 0x0 DUP7 DUP2 MSTORE PUSH1 0x14 PUSH1 0x20 MSTORE PUSH1 0x40 SWAP1 KECCAK256 PUSH1 0x3 ADD SLOAD PUSH2 0x3DC1 JUMPI PUSH2 0x3DC1 DUP7 PUSH2 0x7280 JUMP JUMPDEST PUSH1 0x1 PUSH1 0x23 PUSH1 0x0 DUP3 DUP3 SLOAD PUSH2 0x3DD4 SWAP2 SWAP1 PUSH2 0xB41E JUMP JUMPDEST SWAP1 SWAP2 SSTORE POP PUSH2 0x3DE2 SWAP1 POP PUSH2 0x6CB3 JUMP JUMPDEST PUSH1 0x0 DUP7 DUP2 MSTORE PUSH1 0x14 PUSH1 0x20 MSTORE PUSH1 0x40 SWAP1 DUP2 SWAP1 KECCAK256 PUSH1 0x7 DUP2 ADD SLOAD PUSH1 0x8 SWAP1 SWAP2 ADD SLOAD SWAP2 MLOAD CALLER SWAP3 DUP8 SWAP3 DUP11 SWAP3 PUSH32 0x867B5027231DCBF37614EAAD07D667B9FEBAF9FDF483F488229B1F140BB0748 SWAP3 PUSH2 0x3E35 SWAP3 DUP10 SWAP3 SWAP1 SWAP2 SWAP1 PUSH2 0xB2DC JUMP JUMPDEST PUSH1 0x40 MLOAD DUP1 SWAP2 SUB SWAP1 LOG4 POP POP POP POP POP POP JUMP JUMPDEST PUSH1 0x0 PUSH2 0x3E50 DUP3 PUSH2 0x6362 JUMP JUMPDEST PUSH2 0x3E6C JUMPI PUSH1 0x40 MLOAD PUSH3 0x461BCD PUSH1 0xE5 SHL DUP2 MSTORE PUSH1 0x4 ADD PUSH2 0xE9F SWAP1 PUSH2 0xACB9 JUMP JUMPDEST POP PUSH1 0x1 PUSH1 0x1 PUSH1 0xA0 SHL SUB SWAP2 SWAP1 SWAP2 AND PUSH1 0x0 SWAP1 DUP2 MSTORE PUSH1 0xB PUSH1 0x20 SWAP1 DUP2 MSTORE PUSH1 0x40 DUP1 DUP4 KECCAK256 SWAP4 DUP4 MSTORE SWAP3 SWAP1 MSTORE KECCAK256 SLOAD PUSH1 0xFF AND SWAP1 JUMP JUMPDEST PUSH1 0x0 DUP1 TIMESTAMP COINBASE PUSH1 0x40 MLOAD PUSH1 0x20 ADD PUSH2 0x3EAD SWAP2 SWAP1 PUSH2 0x9E76 JUMP JUMPDEST PUSH1 0x40 MLOAD PUSH1 0x20 DUP2 DUP4 SUB SUB DUP2 MSTORE SWAP1 PUSH1 0x40 MSTORE DUP1 MLOAD SWAP1 PUSH1 0x20 ADD KECCAK256 PUSH1 0x0 SHR PUSH2 0x3ED0 SWAP2 SWAP1 PUSH2 0xB436 JUMP JUMPDEST DIFFICULTY PUSH2 0x3ED9 PUSH2 0x1A1B JUMP JUMPDEST PUSH1 0x40 MLOAD PUSH1 0x20 ADD PUSH2 0x3EE9 SWAP2 SWAP1 PUSH2 0x9EB5 JUMP JUMPDEST PUSH1 0x40 DUP1 MLOAD PUSH1 0x1F NOT DUP2 DUP5 SUB ADD DUP2 MSTORE SWAP2 SWAP1 MSTORE DUP1 MLOAD PUSH1 0x20 SWAP1 SWAP2 ADD KECCAK256 PUSH2 0x3F0B SWAP1 TIMESTAMP PUSH2 0xB41E JUMP JUMPDEST PUSH2 0x3F15 SWAP2 SWAP1 PUSH2 0xB41E JUMP JUMPDEST PUSH2 0x3F1F SWAP2 SWAP1 PUSH2 0xB41E JUMP JUMPDEST PUSH1 0x40 MLOAD PUSH1 0x20 ADD PUSH2 0x3F2F SWAP2 SWAP1 PUSH2 0x9EB5 JUMP JUMPDEST PUSH1 0x40 DUP1 MLOAD PUSH1 0x1F NOT DUP2 DUP5 SUB ADD DUP2 MSTORE SWAP2 SWAP1 MSTORE DUP1 MLOAD PUSH1 0x20 SWAP1 SWAP2 ADD KECCAK256 SWAP2 POP POP SWAP1 JUMP JUMPDEST PUSH1 0x0 PUSH20 0x0 PUSH4 0x69810158 PUSH1 0x12 PUSH2 0x3F75 DUP7 DUP7 PUSH2 0x399B JUMP JUMPDEST PUSH1 0x40 MLOAD DUP4 PUSH4 0xFFFFFFFF AND PUSH1 0xE0 SHL DUP2 MSTORE PUSH1 0x4 ADD PUSH2 0x2939 SWAP3 SWAP2 SWAP1 PUSH2 0xB12C JUMP JUMPDEST PUSH1 0x1C DUP2 DUP2 SLOAD DUP2 LT PUSH2 0x19F1 JUMPI PUSH1 0x0 DUP1 REVERT JUMPDEST PUSH1 0x1 PUSH1 0x1 PUSH1 0xA0 SHL SUB DUP1 DUP3 AND PUSH1 0x0 SWAP1 DUP2 MSTORE PUSH1 0x15 PUSH1 0x20 SWAP1 DUP2 MSTORE PUSH1 0x40 DUP1 DUP4 KECCAK256 DUP2 MLOAD PUSH2 0x140 DUP2 ADD DUP4 MSTORE DUP2 SLOAD SWAP1 SWAP6 AND DUP6 MSTORE PUSH1 0x1 DUP2 ADD SLOAD SWAP3 DUP6 ADD DUP4 SWAP1 MSTORE PUSH1 0x2 DUP2 ADD SLOAD PUSH1 0xFF SWAP1 DUP2 AND ISZERO DUP1 ISZERO SWAP4 DUP8 ADD DUP5 SWAP1 MSTORE PUSH1 0x3 DUP4 ADD SLOAD PUSH1 0x60 DUP9 ADD MSTORE PUSH1 0x4 DUP4 ADD SLOAD PUSH1 0x80 DUP9 ADD MSTORE PUSH1 0x5 DUP4 ADD SLOAD DUP1 DUP4 AND ISZERO ISZERO PUSH1 0xA0 DUP10 ADD MSTORE PUSH2 0x100 SWAP1 DUP2 SWAP1 DIV SWAP1 SWAP3 AND ISZERO ISZERO PUSH1 0xC0 DUP9 ADD MSTORE PUSH1 0x6 DUP4 ADD SLOAD PUSH1 0xE0 DUP9 ADD MSTORE PUSH1 0x7 DUP4 ADD SLOAD SWAP2 DUP8 ADD SWAP2 SWAP1 SWAP2 MSTORE PUSH1 0x8 SWAP1 SWAP2 ADD SLOAD PUSH2 0x120 DUP7 ADD MSTORE SWAP3 SWAP4 DUP5 SWAP4 SWAP1 SWAP3 SWAP2 PUSH2 0x4059 JUMPI POP PUSH2 0x4057 DUP2 PUSH2 0x15CF JUMP JUMPDEST ISZERO JUMPDEST DUP1 ISZERO PUSH2 0x406C JUMPI POP PUSH2 0x406A DUP6 DUP3 PUSH2 0x29A0 JUMP JUMPDEST ISZERO JUMPDEST DUP1 ISZERO PUSH2 0x407E JUMPI POP PUSH2 0x407C DUP2 PUSH2 0x27E0 JUMP JUMPDEST ISZERO JUMPDEST ISZERO PUSH2 0x4088 JUMPI PUSH1 0x1 SWAP3 POP JUMPDEST POP SWAP1 SWAP4 SWAP3 POP POP POP JUMP JUMPDEST PUSH1 0x0 DUP3 DUP3 PUSH1 0x40 MLOAD PUSH1 0x20 ADD PUSH2 0x39B0 SWAP3 SWAP2 SWAP1 PUSH2 0x9EDA JUMP JUMPDEST PUSH1 0x60 PUSH1 0x0 DUP3 GT PUSH2 0x40C8 JUMPI PUSH1 0x40 MLOAD PUSH3 0x461BCD PUSH1 0xE5 SHL DUP2 MSTORE PUSH1 0x4 ADD PUSH2 0xE9F SWAP1 PUSH2 0xA9C8 JUMP JUMPDEST PUSH1 0x0 COINBASE PUSH1 0x40 MLOAD PUSH1 0x20 ADD PUSH2 0x40DB SWAP2 SWAP1 PUSH2 0x9E76 JUMP JUMPDEST PUSH1 0x40 MLOAD PUSH1 0x20 DUP2 DUP4 SUB SUB DUP2 MSTORE SWAP1 PUSH1 0x40 MSTORE DUP1 MLOAD SWAP1 PUSH1 0x20 ADD KECCAK256 PUSH1 0x0 SHR PUSH2 0x40FC PUSH2 0x1A1B JUMP JUMPDEST PUSH1 0x40 MLOAD PUSH1 0x20 ADD PUSH2 0x410C SWAP2 SWAP1 PUSH2 0x9EB5 JUMP JUMPDEST PUSH1 0x40 DUP1 MLOAD PUSH1 0x1F NOT DUP2 DUP5 SUB ADD DUP2 MSTORE SWAP2 SWAP1 MSTORE DUP1 MLOAD PUSH1 0x20 SWAP1 SWAP2 ADD KECCAK256 PUSH2 0x412E SWAP1 TIMESTAMP PUSH2 0xB41E JUMP JUMPDEST PUSH2 0x4138 SWAP2 SWAP1 PUSH2 0xB41E JUMP JUMPDEST PUSH1 0x40 MLOAD PUSH1 0x20 ADD PUSH2 0x4148 SWAP2 SWAP1 PUSH2 0x9EB5 JUMP JUMPDEST PUSH1 0x40 MLOAD PUSH1 0x20 DUP2 DUP4 SUB SUB DUP2 MSTORE SWAP1 PUSH1 0x40 MSTORE DUP1 MLOAD SWAP1 PUSH1 0x20 ADD KECCAK256 PUSH1 0x0 SHR SWAP1 POP PUSH1 0x0 DUP5 PUSH1 0x1 PUSH1 0x1 PUSH1 0x40 SHL SUB DUP2 GT ISZERO PUSH2 0x418B JUMPI PUSH4 0x4E487B71 PUSH1 0xE0 SHL PUSH1 0x0 MSTORE PUSH1 0x41 PUSH1 0x4 MSTORE PUSH1 0x24 PUSH1 0x0 REVERT JUMPDEST PUSH1 0x40 MLOAD SWAP1 DUP1 DUP3 MSTORE DUP1 PUSH1 0x20 MUL PUSH1 0x20 ADD DUP3 ADD PUSH1 0x40 MSTORE DUP1 ISZERO PUSH2 0x41B4 JUMPI DUP2 PUSH1 0x20 ADD PUSH1 0x20 DUP3 MUL DUP1 CALLDATASIZE DUP4 CALLDATACOPY ADD SWAP1 POP JUMPDEST POP SWAP1 POP PUSH1 0x0 DUP1 JUMPDEST DUP7 DUP3 LT ISZERO PUSH2 0x42B5 JUMPI PUSH1 0x0 DUP7 PUSH2 0x41D4 PUSH4 0x17EFEEB DUP8 PUSH2 0xB469 JUMP JUMPDEST DUP4 PUSH1 0x40 MLOAD PUSH1 0x20 ADD PUSH2 0x41E6 SWAP3 SWAP2 SWAP1 PUSH2 0x9EDA JUMP JUMPDEST PUSH1 0x40 MLOAD PUSH1 0x20 DUP2 DUP4 SUB SUB DUP2 MSTORE SWAP1 PUSH1 0x40 MSTORE DUP1 MLOAD SWAP1 PUSH1 0x20 ADD KECCAK256 PUSH1 0x0 SHR PUSH2 0x4209 SWAP2 SWAP1 PUSH2 0xB502 JUMP JUMPDEST SWAP1 POP PUSH1 0x0 DUP1 JUMPDEST DUP5 DUP2 LT ISZERO PUSH2 0x4261 JUMPI DUP3 DUP7 DUP3 DUP2 MLOAD DUP2 LT PUSH2 0x4238 JUMPI PUSH4 0x4E487B71 PUSH1 0xE0 SHL PUSH1 0x0 MSTORE PUSH1 0x32 PUSH1 0x4 MSTORE PUSH1 0x24 PUSH1 0x0 REVERT JUMPDEST PUSH1 0x20 MUL PUSH1 0x20 ADD ADD MLOAD EQ ISZERO PUSH2 0x424F JUMPI PUSH1 0x1 SWAP2 POP PUSH2 0x4261 JUMP JUMPDEST DUP1 PUSH2 0x4259 DUP2 PUSH2 0xB4E7 JUMP JUMPDEST SWAP2 POP POP PUSH2 0x420F JUMP JUMPDEST POP DUP1 PUSH2 0x42A1 JUMPI DUP2 DUP6 DUP6 DUP2 MLOAD DUP2 LT PUSH2 0x4288 JUMPI PUSH4 0x4E487B71 PUSH1 0xE0 SHL PUSH1 0x0 MSTORE PUSH1 0x32 PUSH1 0x4 MSTORE PUSH1 0x24 PUSH1 0x0 REVERT JUMPDEST PUSH1 0x20 SWAP1 DUP2 MUL SWAP2 SWAP1 SWAP2 ADD ADD MSTORE PUSH2 0x429E DUP5 PUSH1 0x1 PUSH2 0xB41E JUMP JUMPDEST SWAP4 POP JUMPDEST PUSH2 0x42AC DUP4 PUSH1 0x1 PUSH2 0xB41E JUMP JUMPDEST SWAP3 POP POP POP PUSH2 0x41BB JUMP JUMPDEST POP SWAP1 SWAP6 SWAP5 POP POP POP POP POP JUMP JUMPDEST PUSH1 0x0 PUSH2 0x42CB DUP4 PUSH2 0x15CF JUMP JUMPDEST PUSH2 0x42E7 JUMPI PUSH1 0x40 MLOAD PUSH3 0x461BCD PUSH1 0xE5 SHL DUP2 MSTORE PUSH1 0x4 ADD PUSH2 0xE9F SWAP1 PUSH2 0xAEA1 JUMP JUMPDEST PUSH1 0x1 PUSH1 0x1 PUSH1 0xA0 SHL SUB DUP5 AND PUSH1 0x0 SWAP1 DUP2 MSTORE PUSH1 0xB PUSH1 0x20 SWAP1 DUP2 MSTORE PUSH1 0x40 DUP1 DUP4 KECCAK256 DUP7 DUP5 MSTORE SWAP1 SWAP2 MSTORE SWAP1 KECCAK256 SLOAD PUSH1 0xFF AND PUSH2 0x432A JUMPI PUSH1 0x40 MLOAD PUSH3 0x461BCD PUSH1 0xE5 SHL DUP2 MSTORE PUSH1 0x4 ADD PUSH2 0xE9F SWAP1 PUSH2 0xA839 JUMP JUMPDEST PUSH1 0x0 PUSH2 0x4335 DUP5 PUSH2 0x1B90 JUMP JUMPDEST PUSH2 0x4340 JUMPI PUSH1 0x0 PUSH2 0x4343 JUMP JUMPDEST PUSH1 0x1 JUMPDEST PUSH1 0xFF AND SWAP1 POP PUSH1 0x0 DUP2 DUP5 PUSH1 0x40 MLOAD PUSH1 0x20 ADD PUSH2 0x435D SWAP3 SWAP2 SWAP1 PUSH2 0x9EDA JUMP JUMPDEST PUSH1 0x40 MLOAD PUSH1 0x20 DUP2 DUP4 SUB SUB DUP2 MSTORE SWAP1 PUSH1 0x40 MSTORE DUP1 MLOAD SWAP1 PUSH1 0x20 ADD KECCAK256 SWAP1 POP PUSH1 0x0 PUSH2 0x4381 DUP8 DUP8 PUSH2 0x3F4D JUMP JUMPDEST SWAP1 POP DUP1 DUP3 EQ PUSH2 0x43A2 JUMPI PUSH1 0x40 MLOAD PUSH3 0x461BCD PUSH1 0xE5 SHL DUP2 MSTORE PUSH1 0x4 ADD PUSH2 0xE9F SWAP1 PUSH2 0xAB58 JUMP JUMPDEST PUSH2 0x2B85 DUP8 DUP8 PUSH2 0x508D JUMP JUMPDEST PUSH1 0x60 PUSH1 0x0 DUP3 GT DUP1 ISZERO PUSH2 0x43BE JUMPI POP DUP2 DUP4 GT ISZERO JUMPDEST DUP1 ISZERO PUSH2 0x43CB JUMPI POP PUSH1 0x1 DUP4 LT ISZERO JUMPDEST PUSH2 0x43E7 JUMPI PUSH1 0x40 MLOAD PUSH3 0x461BCD PUSH1 0xE5 SHL DUP2 MSTORE PUSH1 0x4 ADD PUSH2 0xE9F SWAP1 PUSH2 0xA3C8 JUMP JUMPDEST PUSH1 0x0 DUP3 PUSH1 0x1 PUSH1 0x1 PUSH1 0x40 SHL SUB DUP2 GT ISZERO PUSH2 0x440F JUMPI PUSH4 0x4E487B71 PUSH1 0xE0 SHL PUSH1 0x0 MSTORE PUSH1 0x41 PUSH1 0x4 MSTORE PUSH1 0x24 PUSH1 0x0 REVERT JUMPDEST PUSH1 0x40 MLOAD SWAP1 DUP1 DUP3 MSTORE DUP1 PUSH1 0x20 MUL PUSH1 0x20 ADD DUP3 ADD PUSH1 0x40 MSTORE DUP1 ISZERO PUSH2 0x4438 JUMPI DUP2 PUSH1 0x20 ADD PUSH1 0x20 DUP3 MUL DUP1 CALLDATASIZE DUP4 CALLDATACOPY ADD SWAP1 POP JUMPDEST POP SWAP1 POP PUSH1 0x0 DUP5 PUSH1 0x1 PUSH1 0x1 PUSH1 0x40 SHL SUB DUP2 GT ISZERO PUSH2 0x4463 JUMPI PUSH4 0x4E487B71 PUSH1 0xE0 SHL PUSH1 0x0 MSTORE PUSH1 0x41 PUSH1 0x4 MSTORE PUSH1 0x24 PUSH1 0x0 REVERT JUMPDEST PUSH1 0x40 MLOAD SWAP1 DUP1 DUP3 MSTORE DUP1 PUSH1 0x20 MUL PUSH1 0x20 ADD DUP3 ADD PUSH1 0x40 MSTORE DUP1 ISZERO PUSH2 0x448C JUMPI DUP2 PUSH1 0x20 ADD PUSH1 0x20 DUP3 MUL DUP1 CALLDATASIZE DUP4 CALLDATACOPY ADD SWAP1 POP JUMPDEST POP SWAP1 POP PUSH1 0x0 PUSH2 0x44A2 PUSH2 0x449D DUP5 PUSH2 0x8A0A JUMP JUMPDEST PUSH2 0x8A60 JUMP JUMPDEST SWAP1 POP PUSH1 0x0 JUMPDEST DUP7 DUP2 LT ISZERO PUSH2 0x42B5 JUMPI DUP2 DUP2 DUP2 MLOAD DUP2 LT PUSH2 0x44CF JUMPI PUSH4 0x4E487B71 PUSH1 0xE0 SHL PUSH1 0x0 MSTORE PUSH1 0x32 PUSH1 0x4 MSTORE PUSH1 0x24 PUSH1 0x0 REVERT JUMPDEST PUSH1 0x20 MUL PUSH1 0x20 ADD ADD MLOAD DUP4 DUP3 DUP2 MLOAD DUP2 LT PUSH2 0x44F7 JUMPI PUSH4 0x4E487B71 PUSH1 0xE0 SHL PUSH1 0x0 MSTORE PUSH1 0x32 PUSH1 0x4 MSTORE PUSH1 0x24 PUSH1 0x0 REVERT JUMPDEST PUSH1 0x20 SWAP1 DUP2 MUL SWAP2 SWAP1 SWAP2 ADD ADD MSTORE DUP1 PUSH2 0x450C DUP2 PUSH2 0xB4E7 JUMP JUMPDEST SWAP2 POP POP PUSH2 0x44A7 JUMP JUMPDEST PUSH1 0x29 SLOAD PUSH1 0x40 DUP1 MLOAD PUSH4 0x9D0F8B5 PUSH1 0xE3 SHL DUP2 MSTORE SWAP1 MLOAD PUSH1 0x0 SWAP3 PUSH1 0x1 PUSH1 0x1 PUSH1 0xA0 SHL SUB AND SWAP2 PUSH4 0x4E87C5A8 SWAP2 PUSH1 0x4 DUP1 DUP4 ADD SWAP3 PUSH1 0x20 SWAP3 SWAP2 SWAP1 DUP3 SWAP1 SUB ADD DUP2 DUP7 DUP1 EXTCODESIZE ISZERO DUP1 ISZERO PUSH2 0x4559 JUMPI PUSH1 0x0 DUP1 REVERT JUMPDEST POP GAS STATICCALL ISZERO DUP1 ISZERO PUSH2 0x456D JUMPI RETURNDATASIZE PUSH1 0x0 DUP1 RETURNDATACOPY RETURNDATASIZE PUSH1 0x0 REVERT JUMPDEST POP POP POP POP PUSH1 0x40 MLOAD RETURNDATASIZE PUSH1 0x1F NOT PUSH1 0x1F DUP3 ADD AND DUP3 ADD DUP1 PUSH1 0x40 MSTORE POP DUP2 ADD SWAP1 PUSH2 0x4591 SWAP2 SWAP1 PUSH2 0x9BAB JUMP JUMPDEST PUSH2 0x45AD JUMPI PUSH1 0x40 MLOAD PUSH3 0x461BCD PUSH1 0xE5 SHL DUP2 MSTORE PUSH1 0x4 ADD PUSH2 0xE9F SWAP1 PUSH2 0xA69C JUMP JUMPDEST DUP6 MLOAD DUP5 EQ PUSH2 0x45CD JUMPI PUSH1 0x40 MLOAD PUSH3 0x461BCD PUSH1 0xE5 SHL DUP2 MSTORE PUSH1 0x4 ADD PUSH2 0xE9F SWAP1 PUSH2 0xAD31 JUMP JUMPDEST PUSH2 0x45D5 PUSH2 0x2549 JUMP JUMPDEST PUSH1 0x29 PUSH1 0x0 SWAP1 SLOAD SWAP1 PUSH2 0x100 EXP SWAP1 DIV PUSH1 0x1 PUSH1 0x1 PUSH1 0xA0 SHL SUB AND PUSH1 0x1 PUSH1 0x1 PUSH1 0xA0 SHL SUB AND PUSH4 0xB38E885E PUSH1 0x40 MLOAD DUP2 PUSH4 0xFFFFFFFF AND PUSH1 0xE0 SHL DUP2 MSTORE PUSH1 0x4 ADD PUSH1 0x20 PUSH1 0x40 MLOAD DUP1 DUP4 SUB DUP2 DUP7 DUP1 EXTCODESIZE ISZERO DUP1 ISZERO PUSH2 0x4623 JUMPI PUSH1 0x0 DUP1 REVERT JUMPDEST POP GAS STATICCALL ISZERO DUP1 ISZERO PUSH2 0x4637 JUMPI RETURNDATASIZE PUSH1 0x0 DUP1 RETURNDATACOPY RETURNDATASIZE PUSH1 0x0 REVERT JUMPDEST POP POP POP POP PUSH1 0x40 MLOAD RETURNDATASIZE PUSH1 0x1F NOT PUSH1 0x1F DUP3 ADD AND DUP3 ADD DUP1 PUSH1 0x40 MSTORE POP DUP2 ADD SWAP1 PUSH2 0x465B SWAP2 SWAP1 PUSH2 0x9C85 JUMP JUMPDEST PUSH2 0x4663 PUSH2 0x2AF3 JUMP JUMPDEST LT PUSH2 0x4680 JUMPI PUSH1 0x40 MLOAD PUSH3 0x461BCD PUSH1 0xE5 SHL DUP2 MSTORE PUSH1 0x4 ADD PUSH2 0xE9F SWAP1 PUSH2 0xA71D JUMP JUMPDEST PUSH1 0x29 SLOAD PUSH1 0x40 DUP1 MLOAD PUSH1 0x1 PUSH3 0x4EE913 PUSH1 0xE1 SHL SUB NOT DUP2 MSTORE SWAP1 MLOAD PUSH1 0x0 SWAP3 PUSH1 0x1 PUSH1 0x1 PUSH1 0xA0 SHL SUB AND SWAP2 PUSH4 0xFF622DDA SWAP2 PUSH1 0x4 DUP1 DUP4 ADD SWAP3 PUSH1 0x20 SWAP3 SWAP2 SWAP1 DUP3 SWAP1 SUB ADD DUP2 DUP7 DUP1 EXTCODESIZE ISZERO DUP1 ISZERO PUSH2 0x46C8 JUMPI PUSH1 0x0 DUP1 REVERT JUMPDEST POP GAS STATICCALL ISZERO DUP1 ISZERO PUSH2 0x46DC JUMPI RETURNDATASIZE PUSH1 0x0 DUP1 RETURNDATACOPY RETURNDATASIZE PUSH1 0x0 REVERT JUMPDEST POP POP POP POP PUSH1 0x40 MLOAD RETURNDATASIZE PUSH1 0x1F NOT PUSH1 0x1F DUP3 ADD AND DUP3 ADD DUP1 PUSH1 0x40 MSTORE POP DUP2 ADD SWAP1 PUSH2 0x4700 SWAP2 SWAP1 PUSH2 0x9C85 JUMP JUMPDEST SWAP1 POP PUSH1 0x0 PUSH2 0x470E CALLER DUP4 PUSH2 0x3203 JUMP JUMPDEST SWAP1 POP PUSH2 0x4719 DUP2 PUSH2 0x1E56 JUMP JUMPDEST PUSH1 0x29 PUSH1 0x0 SWAP1 SLOAD SWAP1 PUSH2 0x100 EXP SWAP1 DIV PUSH1 0x1 PUSH1 0x1 PUSH1 0xA0 SHL SUB AND PUSH1 0x1 PUSH1 0x1 PUSH1 0xA0 SHL SUB AND PUSH4 0xBE250988 PUSH1 0x40 MLOAD DUP2 PUSH4 0xFFFFFFFF AND PUSH1 0xE0 SHL DUP2 MSTORE PUSH1 0x4 ADD PUSH1 0x20 PUSH1 0x40 MLOAD DUP1 DUP4 SUB DUP2 DUP7 DUP1 EXTCODESIZE ISZERO DUP1 ISZERO PUSH2 0x4767 JUMPI PUSH1 0x0 DUP1 REVERT JUMPDEST POP GAS STATICCALL ISZERO DUP1 ISZERO PUSH2 0x477B JUMPI RETURNDATASIZE PUSH1 0x0 DUP1 RETURNDATACOPY RETURNDATASIZE PUSH1 0x0 REVERT JUMPDEST POP POP POP POP PUSH1 0x40 MLOAD RETURNDATASIZE PUSH1 0x1F NOT PUSH1 0x1F DUP3 ADD AND DUP3 ADD DUP1 PUSH1 0x40 MSTORE POP DUP2 ADD SWAP1 PUSH2 0x479F SWAP2 SWAP1 PUSH2 0x9C85 JUMP JUMPDEST PUSH2 0x47A8 DUP3 PUSH2 0x38E2 JUMP JUMPDEST LT PUSH2 0x47C5 JUMPI PUSH1 0x40 MLOAD PUSH3 0x461BCD PUSH1 0xE5 SHL DUP2 MSTORE PUSH1 0x4 ADD PUSH2 0xE9F SWAP1 PUSH2 0xAF8C JUMP JUMPDEST PUSH1 0x1 PUSH1 0x1 PUSH1 0xA0 SHL SUB DUP2 AND PUSH1 0x0 SWAP1 DUP2 MSTORE PUSH1 0x17 PUSH1 0x20 MSTORE PUSH1 0x40 SWAP1 KECCAK256 SLOAD DUP3 GT ISZERO PUSH2 0x4817 JUMPI PUSH1 0x1 PUSH1 0x1 PUSH1 0xA0 SHL SUB DUP2 AND PUSH1 0x0 SWAP1 DUP2 MSTORE PUSH1 0x17 PUSH1 0x20 MSTORE PUSH1 0x40 DUP2 KECCAK256 SLOAD PUSH2 0x4809 SWAP1 DUP5 SWAP1 PUSH2 0x6FDC JUMP JUMPDEST SWAP1 POP PUSH2 0x4815 DUP2 DUP4 PUSH2 0x6FE8 JUMP JUMPDEST POP JUMPDEST PUSH1 0x0 JUMPDEST DUP9 MLOAD DUP2 LT ISZERO PUSH2 0x5004 JUMPI PUSH1 0x0 DUP10 DUP3 DUP2 MLOAD DUP2 LT PUSH2 0x4845 JUMPI PUSH4 0x4E487B71 PUSH1 0xE0 SHL PUSH1 0x0 MSTORE PUSH1 0x32 PUSH1 0x4 MSTORE PUSH1 0x24 PUSH1 0x0 REVERT JUMPDEST PUSH1 0x20 MUL PUSH1 0x20 ADD ADD MLOAD SWAP1 POP PUSH1 0x0 DUP10 DUP10 DUP5 DUP2 DUP2 LT PUSH2 0x4871 JUMPI PUSH4 0x4E487B71 PUSH1 0xE0 SHL PUSH1 0x0 MSTORE PUSH1 0x32 PUSH1 0x4 MSTORE PUSH1 0x24 PUSH1 0x0 REVERT JUMPDEST SWAP1 POP PUSH1 0x20 MUL DUP2 ADD SWAP1 PUSH2 0x4883 SWAP2 SWAP1 PUSH2 0xB382 JUMP JUMPDEST DUP1 DUP1 PUSH1 0x1F ADD PUSH1 0x20 DUP1 SWAP2 DIV MUL PUSH1 0x20 ADD PUSH1 0x40 MLOAD SWAP1 DUP2 ADD PUSH1 0x40 MSTORE DUP1 SWAP4 SWAP3 SWAP2 SWAP1 DUP2 DUP2 MSTORE PUSH1 0x20 ADD DUP4 DUP4 DUP1 DUP3 DUP5 CALLDATACOPY PUSH1 0x0 SWAP3 ADD DUP3 SWAP1 MSTORE POP CALLER DUP1 DUP3 MSTORE PUSH1 0x10 PUSH1 0x20 SWAP1 DUP2 MSTORE PUSH1 0x40 DUP1 DUP5 KECCAK256 PUSH1 0x1E SLOAD DUP2 SLOAD PUSH1 0x1 DUP2 ADD DUP4 SSTORE SWAP2 DUP7 MSTORE DUP4 DUP7 KECCAK256 SWAP1 SWAP2 ADD SSTORE DUP1 MLOAD PUSH1 0xE0 DUP2 ADD DUP3 MSTORE DUP11 DUP2 MSTORE SWAP2 DUP3 ADD SWAP3 SWAP1 SWAP3 MSTORE TIMESTAMP SWAP2 DUP2 ADD SWAP2 SWAP1 SWAP2 MSTORE PUSH1 0x60 DUP2 ADD DUP15 SWAP1 MSTORE PUSH1 0x80 DUP2 ADD DUP7 SWAP1 MSTORE PUSH1 0xA0 DUP2 ADD DUP14 SWAP1 MSTORE SWAP5 SWAP6 POP PUSH1 0xC0 DUP6 ADD SWAP4 POP SWAP2 POP PUSH2 0x4919 SWAP1 POP JUMP JUMPDEST SWAP1 MSTORE PUSH1 0x1E SLOAD PUSH1 0x0 SWAP1 DUP2 MSTORE PUSH1 0x13 PUSH1 0x20 SWAP1 DUP2 MSTORE PUSH1 0x40 SWAP1 SWAP2 KECCAK256 DUP3 MLOAD DUP1 MLOAD SWAP2 SWAP3 PUSH2 0x4944 SWAP3 DUP5 SWAP3 SWAP1 SWAP2 ADD SWAP1 PUSH2 0x97C5 JUMP JUMPDEST POP PUSH1 0x20 DUP3 DUP2 ADD MLOAD PUSH1 0x1 DUP4 ADD DUP1 SLOAD PUSH1 0x1 PUSH1 0x1 PUSH1 0xA0 SHL SUB NOT AND PUSH1 0x1 PUSH1 0x1 PUSH1 0xA0 SHL SUB SWAP1 SWAP3 AND SWAP2 SWAP1 SWAP2 OR SWAP1 SSTORE PUSH1 0x40 DUP4 ADD MLOAD PUSH1 0x2 DUP4 ADD SSTORE PUSH1 0x60 DUP4 ADD MLOAD PUSH1 0x3 DUP4 ADD SSTORE PUSH1 0x80 DUP4 ADD MLOAD DUP1 MLOAD PUSH2 0x4997 SWAP3 PUSH1 0x4 DUP6 ADD SWAP3 ADD SWAP1 PUSH2 0x97C5 JUMP JUMPDEST POP PUSH1 0xA0 DUP3 ADD MLOAD DUP1 MLOAD PUSH2 0x49B3 SWAP2 PUSH1 0x5 DUP5 ADD SWAP2 PUSH1 0x20 SWAP1 SWAP2 ADD SWAP1 PUSH2 0x97C5 JUMP JUMPDEST POP PUSH1 0xC0 DUP3 ADD MLOAD PUSH1 0x6 DUP3 ADD DUP1 SLOAD PUSH1 0xFF NOT AND PUSH1 0x1 DUP4 PUSH1 0x3 DUP2 GT ISZERO PUSH2 0x49E5 JUMPI PUSH4 0x4E487B71 PUSH1 0xE0 SHL PUSH1 0x0 MSTORE PUSH1 0x21 PUSH1 0x4 MSTORE PUSH1 0x24 PUSH1 0x0 REVERT JUMPDEST MUL OR SWAP1 SSTORE POP POP PUSH1 0x20 DUP1 SLOAD PUSH1 0x0 SWAP1 DUP2 MSTORE PUSH1 0x14 DUP3 MSTORE PUSH1 0x40 SWAP1 DUP2 SWAP1 KECCAK256 PUSH1 0x29 SLOAD DUP3 MLOAD PUSH4 0x4E8F956D PUSH1 0xE1 SHL DUP2 MSTORE SWAP3 MLOAD SWAP2 SWAP5 POP PUSH1 0x1 PUSH1 0x1 PUSH1 0xA0 SHL SUB AND SWAP3 PUSH4 0x9D1F2ADA SWAP3 PUSH1 0x4 DUP1 DUP3 ADD SWAP4 SWAP2 DUP3 SWAP1 SUB ADD DUP2 DUP7 DUP1 EXTCODESIZE ISZERO DUP1 ISZERO PUSH2 0x4A3D JUMPI PUSH1 0x0 DUP1 REVERT JUMPDEST POP GAS STATICCALL ISZERO DUP1 ISZERO PUSH2 0x4A51 JUMPI RETURNDATASIZE PUSH1 0x0 DUP1 RETURNDATACOPY RETURNDATASIZE PUSH1 0x0 REVERT JUMPDEST POP POP POP POP PUSH1 0x40 MLOAD RETURNDATASIZE PUSH1 0x1F NOT PUSH1 0x1F DUP3 ADD AND DUP3 ADD DUP1 PUSH1 0x40 MSTORE POP DUP2 ADD SWAP1 PUSH2 0x4A75 SWAP2 SWAP1 PUSH2 0x9C85 JUMP JUMPDEST DUP2 PUSH1 0x1 ADD SLOAD LT ISZERO PUSH2 0x4A9B JUMPI PUSH1 0x1 DUP2 PUSH1 0x1 ADD PUSH1 0x0 DUP3 DUP3 SLOAD PUSH2 0x4A95 SWAP2 SWAP1 PUSH2 0xB41E JUMP JUMPDEST SWAP1 SWAP2 SSTORE POP POP JUMPDEST PUSH1 0x29 PUSH1 0x0 SWAP1 SLOAD SWAP1 PUSH2 0x100 EXP SWAP1 DIV PUSH1 0x1 PUSH1 0x1 PUSH1 0xA0 SHL SUB AND PUSH1 0x1 PUSH1 0x1 PUSH1 0xA0 SHL SUB AND PUSH4 0x9D1F2ADA PUSH1 0x40 MLOAD DUP2 PUSH4 0xFFFFFFFF AND PUSH1 0xE0 SHL DUP2 MSTORE PUSH1 0x4 ADD PUSH1 0x20 PUSH1 0x40 MLOAD DUP1 DUP4 SUB DUP2 DUP7 DUP1 EXTCODESIZE ISZERO DUP1 ISZERO PUSH2 0x4AE9 JUMPI PUSH1 0x0 DUP1 REVERT JUMPDEST POP GAS STATICCALL ISZERO DUP1 ISZERO PUSH2 0x4AFD JUMPI RETURNDATASIZE PUSH1 0x0 DUP1 RETURNDATACOPY RETURNDATASIZE PUSH1 0x0 REVERT JUMPDEST POP POP POP POP PUSH1 0x40 MLOAD RETURNDATASIZE PUSH1 0x1F NOT PUSH1 0x1F DUP3 ADD AND DUP3 ADD DUP1 PUSH1 0x40 MSTORE POP DUP2 ADD SWAP1 PUSH2 0x4B21 SWAP2 SWAP1 PUSH2 0x9C85 JUMP JUMPDEST DUP2 PUSH1 0x1 ADD SLOAD LT PUSH2 0x4B71 JUMPI PUSH1 0x4 DUP2 ADD DUP1 SLOAD PUSH1 0x1 PUSH1 0xFF NOT SWAP1 SWAP2 AND DUP2 OR PUSH2 0xFF00 NOT AND SWAP1 SWAP2 SSTORE PUSH1 0x20 DUP1 SLOAD PUSH1 0x0 SWAP1 PUSH2 0x4B55 SWAP1 DUP5 SWAP1 PUSH2 0xB41E JUMP JUMPDEST SWAP1 SWAP2 SSTORE POP POP PUSH1 0x1E SLOAD PUSH1 0x20 DUP1 SLOAD PUSH1 0x0 SWAP1 DUP2 MSTORE PUSH1 0x14 SWAP1 SWAP2 MSTORE PUSH1 0x40 SWAP1 KECCAK256 SSTORE JUMPDEST PUSH1 0x1E SLOAD PUSH2 0x4B7F SWAP1 PUSH1 0x1 PUSH2 0xB41E JUMP JUMPDEST PUSH1 0x1E SSTORE PUSH1 0x1 PUSH1 0x2 PUSH2 0x4B91 DUP3 PUSH1 0x4 PUSH2 0xB469 JUMP JUMPDEST PUSH1 0x4 DUP2 LT PUSH2 0x4BAF JUMPI PUSH4 0x4E487B71 PUSH1 0xE0 SHL PUSH1 0x0 MSTORE PUSH1 0x32 PUSH1 0x4 MSTORE PUSH1 0x24 PUSH1 0x0 REVERT JUMPDEST PUSH1 0x2 MUL ADD PUSH1 0x1 ADD PUSH1 0x0 DUP3 DUP3 SLOAD PUSH2 0x4BC5 SWAP2 SWAP1 PUSH2 0xB41E JUMP JUMPDEST SWAP1 SWAP2 SSTORE POP POP PUSH1 0x1 PUSH1 0x1 PUSH1 0xA0 SHL SUB DUP6 AND PUSH1 0x0 SWAP1 DUP2 MSTORE PUSH1 0x16 PUSH1 0x20 MSTORE PUSH1 0x40 SWAP1 KECCAK256 PUSH1 0x1 DUP2 PUSH2 0x4BF0 DUP3 PUSH1 0x4 PUSH2 0xB469 JUMP JUMPDEST PUSH1 0x4 DUP2 LT PUSH2 0x4C0E JUMPI PUSH4 0x4E487B71 PUSH1 0xE0 SHL PUSH1 0x0 MSTORE PUSH1 0x32 PUSH1 0x4 MSTORE PUSH1 0x24 PUSH1 0x0 REVERT JUMPDEST PUSH1 0x2 MUL ADD PUSH1 0x1 ADD PUSH1 0x0 DUP3 DUP3 SLOAD PUSH2 0x4C24 SWAP2 SWAP1 PUSH2 0xB41E JUMP JUMPDEST SWAP1 SWAP2 SSTORE POP PUSH2 0x4C32 SWAP1 POP PUSH2 0x55B8 JUMP JUMPDEST PUSH1 0x29 SLOAD PUSH1 0x40 DUP1 MLOAD PUSH4 0x7B39B17F PUSH1 0xE1 SHL DUP2 MSTORE SWAP1 MLOAD PUSH1 0x0 SWAP3 PUSH1 0x1 PUSH1 0x1 PUSH1 0xA0 SHL SUB AND SWAP2 PUSH4 0xF67362FE SWAP2 PUSH1 0x4 DUP1 DUP4 ADD SWAP3 PUSH1 0x20 SWAP3 SWAP2 SWAP1 DUP3 SWAP1 SUB ADD DUP2 DUP7 DUP1 EXTCODESIZE ISZERO DUP1 ISZERO PUSH2 0x4C77 JUMPI PUSH1 0x0 DUP1 REVERT JUMPDEST POP GAS STATICCALL ISZERO DUP1 ISZERO PUSH2 0x4C8B JUMPI RETURNDATASIZE PUSH1 0x0 DUP1 RETURNDATACOPY RETURNDATASIZE PUSH1 0x0 REVERT JUMPDEST POP POP POP POP PUSH1 0x40 MLOAD RETURNDATASIZE PUSH1 0x1F NOT PUSH1 0x1F DUP3 ADD AND DUP3 ADD DUP1 PUSH1 0x40 MSTORE POP DUP2 ADD SWAP1 PUSH2 0x4CAF SWAP2 SWAP1 PUSH2 0x99BA JUMP JUMPDEST SWAP1 POP DUP1 PUSH1 0x1 PUSH1 0x1 PUSH1 0xA0 SHL SUB AND PUSH4 0xDA14563A PUSH1 0x40 MLOAD DUP2 PUSH4 0xFFFFFFFF AND PUSH1 0xE0 SHL DUP2 MSTORE PUSH1 0x4 ADD PUSH1 0x0 PUSH1 0x40 MLOAD DUP1 DUP4 SUB DUP2 PUSH1 0x0 DUP8 DUP1 EXTCODESIZE ISZERO DUP1 ISZERO PUSH2 0x4CEC JUMPI PUSH1 0x0 DUP1 REVERT JUMPDEST POP GAS CALL SWAP3 POP POP POP DUP1 ISZERO PUSH2 0x4CFD JUMPI POP PUSH1 0x1 JUMPDEST PUSH2 0x4D58 JUMPI RETURNDATASIZE DUP1 DUP1 ISZERO PUSH2 0x4D2B JUMPI PUSH1 0x40 MLOAD SWAP2 POP PUSH1 0x1F NOT PUSH1 0x3F RETURNDATASIZE ADD AND DUP3 ADD PUSH1 0x40 MSTORE RETURNDATASIZE DUP3 MSTORE RETURNDATASIZE PUSH1 0x0 PUSH1 0x20 DUP5 ADD RETURNDATACOPY PUSH2 0x4D30 JUMP JUMPDEST PUSH1 0x60 SWAP2 POP JUMPDEST POP PUSH1 0x0 DUP1 MLOAD PUSH1 0x20 PUSH2 0xB56E DUP4 CODECOPY DUP2 MLOAD SWAP2 MSTORE DUP2 PUSH1 0x40 MLOAD PUSH2 0x4D4E SWAP2 SWAP1 PUSH2 0x9FF3 JUMP JUMPDEST PUSH1 0x40 MLOAD DUP1 SWAP2 SUB SWAP1 LOG1 POP JUMPDEST PUSH1 0x29 SLOAD PUSH1 0x40 DUP1 MLOAD PUSH4 0x7A0EC25B PUSH1 0xE0 SHL DUP2 MSTORE SWAP1 MLOAD PUSH1 0x0 SWAP3 PUSH1 0x1 PUSH1 0x1 PUSH1 0xA0 SHL SUB AND SWAP2 PUSH4 0x7A0EC25B SWAP2 PUSH1 0x4 DUP1 DUP4 ADD SWAP3 PUSH1 0x20 SWAP3 SWAP2 SWAP1 DUP3 SWAP1 SUB ADD DUP2 DUP7 DUP1 EXTCODESIZE ISZERO DUP1 ISZERO PUSH2 0x4D9D JUMPI PUSH1 0x0 DUP1 REVERT JUMPDEST POP GAS STATICCALL ISZERO DUP1 ISZERO PUSH2 0x4DB1 JUMPI RETURNDATASIZE PUSH1 0x0 DUP1 RETURNDATACOPY RETURNDATASIZE PUSH1 0x0 REVERT JUMPDEST POP POP POP POP PUSH1 0x40 MLOAD RETURNDATASIZE PUSH1 0x1F NOT PUSH1 0x1F DUP3 ADD AND DUP3 ADD DUP1 PUSH1 0x40 MSTORE POP DUP2 ADD SWAP1 PUSH2 0x4DD5 SWAP2 SWAP1 PUSH2 0x99BA JUMP JUMPDEST SWAP1 POP DUP1 PUSH1 0x1 PUSH1 0x1 PUSH1 0xA0 SHL SUB AND PUSH4 0xDA14563A PUSH1 0x40 MLOAD DUP2 PUSH4 0xFFFFFFFF AND PUSH1 0xE0 SHL DUP2 MSTORE PUSH1 0x4 ADD PUSH1 0x0 PUSH1 0x40 MLOAD DUP1 DUP4 SUB DUP2 PUSH1 0x0 DUP8 DUP1 EXTCODESIZE ISZERO DUP1 ISZERO PUSH2 0x4E12 JUMPI PUSH1 0x0 DUP1 REVERT JUMPDEST POP GAS CALL SWAP3 POP POP POP DUP1 ISZERO PUSH2 0x4E23 JUMPI POP PUSH1 0x1 JUMPDEST PUSH2 0x4E7E JUMPI RETURNDATASIZE DUP1 DUP1 ISZERO PUSH2 0x4E51 JUMPI PUSH1 0x40 MLOAD SWAP2 POP PUSH1 0x1F NOT PUSH1 0x3F RETURNDATASIZE ADD AND DUP3 ADD PUSH1 0x40 MSTORE RETURNDATASIZE DUP3 MSTORE RETURNDATASIZE PUSH1 0x0 PUSH1 0x20 DUP5 ADD RETURNDATACOPY PUSH2 0x4E56 JUMP JUMPDEST PUSH1 0x60 SWAP2 POP JUMPDEST POP PUSH1 0x0 DUP1 MLOAD PUSH1 0x20 PUSH2 0xB56E DUP4 CODECOPY DUP2 MLOAD SWAP2 MSTORE DUP2 PUSH1 0x40 MLOAD PUSH2 0x4E74 SWAP2 SWAP1 PUSH2 0x9FF3 JUMP JUMPDEST PUSH1 0x40 MLOAD DUP1 SWAP2 SUB SWAP1 LOG1 POP JUMPDEST PUSH1 0x29 SLOAD PUSH1 0x40 DUP1 MLOAD PUSH4 0x463444B7 PUSH1 0xE0 SHL DUP2 MSTORE SWAP1 MLOAD PUSH1 0x0 SWAP3 PUSH1 0x1 PUSH1 0x1 PUSH1 0xA0 SHL SUB AND SWAP2 PUSH4 0x463444B7 SWAP2 PUSH1 0x4 DUP1 DUP4 ADD SWAP3 PUSH1 0x20 SWAP3 SWAP2 SWAP1 DUP3 SWAP1 SUB ADD DUP2 DUP7 DUP1 EXTCODESIZE ISZERO DUP1 ISZERO PUSH2 0x4EC3 JUMPI PUSH1 0x0 DUP1 REVERT JUMPDEST POP GAS STATICCALL ISZERO DUP1 ISZERO PUSH2 0x4ED7 JUMPI RETURNDATASIZE PUSH1 0x0 DUP1 RETURNDATACOPY RETURNDATASIZE PUSH1 0x0 REVERT JUMPDEST POP POP POP POP PUSH1 0x40 MLOAD RETURNDATASIZE PUSH1 0x1F NOT PUSH1 0x1F DUP3 ADD AND DUP3 ADD DUP1 PUSH1 0x40 MSTORE POP DUP2 ADD SWAP1 PUSH2 0x4EFB SWAP2 SWAP1 PUSH2 0x99BA JUMP JUMPDEST SWAP1 POP DUP1 PUSH1 0x1 PUSH1 0x1 PUSH1 0xA0 SHL SUB AND PUSH4 0xDA14563A PUSH1 0x40 MLOAD DUP2 PUSH4 0xFFFFFFFF AND PUSH1 0xE0 SHL DUP2 MSTORE PUSH1 0x4 ADD PUSH1 0x0 PUSH1 0x40 MLOAD DUP1 DUP4 SUB DUP2 PUSH1 0x0 DUP8 DUP1 EXTCODESIZE ISZERO DUP1 ISZERO PUSH2 0x4F38 JUMPI PUSH1 0x0 DUP1 REVERT JUMPDEST POP GAS CALL SWAP3 POP POP POP DUP1 ISZERO PUSH2 0x4F49 JUMPI POP PUSH1 0x1 JUMPDEST PUSH2 0x4FA4 JUMPI RETURNDATASIZE DUP1 DUP1 ISZERO PUSH2 0x4F77 JUMPI PUSH1 0x40 MLOAD SWAP2 POP PUSH1 0x1F NOT PUSH1 0x3F RETURNDATASIZE ADD AND DUP3 ADD PUSH1 0x40 MSTORE RETURNDATASIZE DUP3 MSTORE RETURNDATASIZE PUSH1 0x0 PUSH1 0x20 DUP5 ADD RETURNDATACOPY PUSH2 0x4F7C JUMP JUMPDEST PUSH1 0x60 SWAP2 POP JUMPDEST POP PUSH1 0x0 DUP1 MLOAD PUSH1 0x20 PUSH2 0xB56E DUP4 CODECOPY DUP2 MLOAD SWAP2 MSTORE DUP2 PUSH1 0x40 MLOAD PUSH2 0x4F9A SWAP2 SWAP1 PUSH2 0x9FF3 JUMP JUMPDEST PUSH1 0x40 MLOAD DUP1 SWAP2 SUB SWAP1 LOG1 POP JUMPDEST DUP9 PUSH1 0x1 PUSH1 0x1 PUSH1 0xA0 SHL SUB AND PUSH1 0x1E SLOAD PUSH32 0xB819CA9AC369919119F75EC7363DD954F75BCFA75F9245647E03DA413BE0D582 DUP10 DUP10 PUSH1 0x40 MLOAD PUSH2 0x4FE2 SWAP3 SWAP2 SWAP1 PUSH2 0xA078 JUMP JUMPDEST PUSH1 0x40 MLOAD DUP1 SWAP2 SUB SWAP1 LOG3 POP POP POP POP POP POP POP DUP1 DUP1 PUSH2 0x4FFC SWAP1 PUSH2 0xB4E7 JUMP JUMPDEST SWAP2 POP POP PUSH2 0x481A JUMP JUMPDEST POP CALLER PUSH1 0x0 SWAP1 DUP2 MSTORE PUSH1 0x15 PUSH1 0x20 MSTORE PUSH1 0x40 SWAP1 KECCAK256 TIMESTAMP PUSH1 0x4 DUP3 ADD SSTORE PUSH2 0x5022 PUSH2 0x6CB3 JUMP JUMPDEST PUSH1 0x1 PUSH1 0x23 PUSH1 0x0 DUP3 DUP3 SLOAD PUSH2 0x5035 SWAP2 SWAP1 PUSH2 0xB41E JUMP JUMPDEST SWAP1 SWAP2 SSTORE POP POP PUSH1 0x1E SLOAD SWAP10 SWAP9 POP POP POP POP POP POP POP POP POP JUMP JUMPDEST PUSH1 0x0 PUSH2 0x5055 DUP3 PUSH2 0x6362 JUMP JUMPDEST PUSH2 0x5071 JUMPI PUSH1 0x40 MLOAD PUSH3 0x461BCD PUSH1 0xE5 SHL DUP2 MSTORE PUSH1 0x4 ADD PUSH2 0xE9F SWAP1 PUSH2 0xACB9 JUMP JUMPDEST POP PUSH1 0x0 SWAP1 DUP2 MSTORE PUSH1 0x14 PUSH1 0x20 MSTORE PUSH1 0x40 SWAP1 KECCAK256 PUSH1 0x5 ADD SLOAD SWAP1 JUMP JUMPDEST PUSH1 0x1 SLOAD DUP2 JUMP JUMPDEST PUSH1 0x0 PUSH20 0x0 PUSH4 0x69810158 PUSH1 0x12 PUSH2 0x50B5 DUP7 DUP7 PUSH2 0x399B JUMP JUMPDEST PUSH1 0x40 MLOAD DUP4 PUSH4 0xFFFFFFFF AND PUSH1 0xE0 SHL DUP2 MSTORE PUSH1 0x4 ADD PUSH2 0x2939 SWAP3 SWAP2 SWAP1 PUSH2 0xB1B4 JUMP JUMPDEST PUSH1 0x0 DUP3 DUP2 MSTORE PUSH1 0x19 PUSH1 0x20 SWAP1 DUP2 MSTORE PUSH1 0x40 DUP1 DUP4 KECCAK256 DUP1 SLOAD DUP3 MLOAD DUP2 DUP6 MUL DUP2 ADD DUP6 ADD SWAP1 SWAP4 MSTORE DUP1 DUP4 MSTORE DUP5 SWAP4 DUP5 SWAP4 SWAP3 SWAP2 SWAP1 DUP4 ADD DUP3 DUP3 DUP1 ISZERO PUSH2 0x5134 JUMPI PUSH1 0x20 MUL DUP3 ADD SWAP2 SWAP1 PUSH1 0x0 MSTORE PUSH1 0x20 PUSH1 0x0 KECCAK256 SWAP1 JUMPDEST DUP2 SLOAD PUSH1 0x1 PUSH1 0x1 PUSH1 0xA0 SHL SUB AND DUP2 MSTORE PUSH1 0x1 SWAP1 SWAP2 ADD SWAP1 PUSH1 0x20 ADD DUP1 DUP4 GT PUSH2 0x5116 JUMPI JUMPDEST POP POP POP POP POP SWAP1 POP PUSH1 0x0 JUMPDEST DUP2 MLOAD DUP2 LT ISZERO PUSH2 0x51A3 JUMPI DUP5 PUSH1 0x1 PUSH1 0x1 PUSH1 0xA0 SHL SUB AND DUP3 DUP3 DUP2 MLOAD DUP2 LT PUSH2 0x5171 JUMPI PUSH4 0x4E487B71 PUSH1 0xE0 SHL PUSH1 0x0 MSTORE PUSH1 0x32 PUSH1 0x4 MSTORE PUSH1 0x24 PUSH1 0x0 REVERT JUMPDEST PUSH1 0x20 MUL PUSH1 0x20 ADD ADD MLOAD PUSH1 0x1 PUSH1 0x1 PUSH1 0xA0 SHL SUB AND EQ ISZERO PUSH2 0x5191 JUMPI PUSH1 0x1 SWAP3 POP PUSH2 0x51A3 JUMP JUMPDEST DUP1 PUSH2 0x519B DUP2 PUSH2 0xB4E7 JUMP JUMPDEST SWAP2 POP POP PUSH2 0x513E JUMP JUMPDEST POP SWAP1 SWAP5 SWAP4 POP POP POP POP JUMP JUMPDEST PUSH1 0xB PUSH1 0x20 SWAP1 DUP2 MSTORE PUSH1 0x0 SWAP3 DUP4 MSTORE PUSH1 0x40 DUP1 DUP5 KECCAK256 SWAP1 SWAP2 MSTORE SWAP1 DUP3 MSTORE SWAP1 KECCAK256 SLOAD PUSH1 0xFF AND DUP2 JUMP JUMPDEST PUSH1 0x1F SLOAD DUP2 JUMP JUMPDEST PUSH1 0x22 SLOAD DUP2 JUMP JUMPDEST PUSH1 0x60 PUSH2 0x51E4 DUP3 PUSH2 0x6362 JUMP JUMPDEST PUSH2 0x5200 JUMPI PUSH1 0x40 MLOAD PUSH3 0x461BCD PUSH1 0xE5 SHL DUP2 MSTORE PUSH1 0x4 ADD PUSH2 0xE9F SWAP1 PUSH2 0xACB9 JUMP JUMPDEST PUSH1 0x0 DUP3 DUP2 MSTORE PUSH1 0x19 PUSH1 0x20 SWAP1 DUP2 MSTORE PUSH1 0x40 DUP1 DUP4 KECCAK256 DUP1 SLOAD DUP3 MLOAD DUP2 DUP6 MUL DUP2 ADD DUP6 ADD SWAP1 SWAP4 MSTORE DUP1 DUP4 MSTORE SWAP2 SWAP3 SWAP1 SWAP2 SWAP1 DUP4 ADD DUP3 DUP3 DUP1 ISZERO PUSH2 0x5260 JUMPI PUSH1 0x20 MUL DUP3 ADD SWAP2 SWAP1 PUSH1 0x0 MSTORE PUSH1 0x20 PUSH1 0x0 KECCAK256 SWAP1 JUMPDEST DUP2 SLOAD PUSH1 0x1 PUSH1 0x1 PUSH1 0xA0 SHL SUB AND DUP2 MSTORE PUSH1 0x1 SWAP1 SWAP2 ADD SWAP1 PUSH1 0x20 ADD DUP1 DUP4 GT PUSH2 0x5242 JUMPI JUMPDEST POP POP POP POP POP SWAP1 POP PUSH1 0x0 DUP2 MLOAD PUSH1 0x1 PUSH1 0x1 PUSH1 0x40 SHL SUB DUP2 GT ISZERO PUSH2 0x5290 JUMPI PUSH4 0x4E487B71 PUSH1 0xE0 SHL PUSH1 0x0 MSTORE PUSH1 0x41 PUSH1 0x4 MSTORE PUSH1 0x24 PUSH1 0x0 REVERT JUMPDEST PUSH1 0x40 MLOAD SWAP1 DUP1 DUP3 MSTORE DUP1 PUSH1 0x20 MUL PUSH1 0x20 ADD DUP3 ADD PUSH1 0x40 MSTORE DUP1 ISZERO PUSH2 0x52C3 JUMPI DUP2 PUSH1 0x20 ADD JUMPDEST PUSH1 0x60 DUP2 MSTORE PUSH1 0x20 ADD SWAP1 PUSH1 0x1 SWAP1 SUB SWAP1 DUP2 PUSH2 0x52AE JUMPI SWAP1 POP JUMPDEST POP SWAP1 POP PUSH1 0x0 JUMPDEST DUP3 MLOAD DUP2 LT ISZERO PUSH2 0x100B JUMPI PUSH1 0xD PUSH1 0x0 DUP7 DUP2 MSTORE PUSH1 0x20 ADD SWAP1 DUP2 MSTORE PUSH1 0x20 ADD PUSH1 0x0 KECCAK256 PUSH1 0x0 DUP5 DUP4 DUP2 MLOAD DUP2 LT PUSH2 0x5307 JUMPI PUSH4 0x4E487B71 PUSH1 0xE0 SHL PUSH1 0x0 MSTORE PUSH1 0x32 PUSH1 0x4 MSTORE PUSH1 0x24 PUSH1 0x0 REVERT JUMPDEST PUSH1 0x20 MUL PUSH1 0x20 ADD ADD MLOAD PUSH1 0x1 PUSH1 0x1 PUSH1 0xA0 SHL SUB AND PUSH1 0x1 PUSH1 0x1 PUSH1 0xA0 SHL SUB AND DUP2 MSTORE PUSH1 0x20 ADD SWAP1 DUP2 MSTORE PUSH1 0x20 ADD PUSH1 0x0 KECCAK256 DUP1 SLOAD PUSH2 0x533A SWAP1 PUSH2 0xB4AC JUMP JUMPDEST DUP1 PUSH1 0x1F ADD PUSH1 0x20 DUP1 SWAP2 DIV MUL PUSH1 0x20 ADD PUSH1 0x40 MLOAD SWAP1 DUP2 ADD PUSH1 0x40 MSTORE DUP1 SWAP3 SWAP2 SWAP1 DUP2 DUP2 MSTORE PUSH1 0x20 ADD DUP3 DUP1 SLOAD PUSH2 0x5366 SWAP1 PUSH2 0xB4AC JUMP JUMPDEST DUP1 ISZERO PUSH2 0x53B3 JUMPI DUP1 PUSH1 0x1F LT PUSH2 0x5388 JUMPI PUSH2 0x100 DUP1 DUP4 SLOAD DIV MUL DUP4 MSTORE SWAP2 PUSH1 0x20 ADD SWAP2 PUSH2 0x53B3 JUMP JUMPDEST DUP3 ADD SWAP2 SWAP1 PUSH1 0x0 MSTORE PUSH1 0x20 PUSH1 0x0 KECCAK256 SWAP1 JUMPDEST DUP2 SLOAD DUP2 MSTORE SWAP1 PUSH1 0x1 ADD SWAP1 PUSH1 0x20 ADD DUP1 DUP4 GT PUSH2 0x5396 JUMPI DUP3 SWAP1 SUB PUSH1 0x1F AND DUP3 ADD SWAP2 JUMPDEST POP POP POP POP POP DUP3 DUP3 DUP2 MLOAD DUP2 LT PUSH2 0x53D8 JUMPI PUSH4 0x4E487B71 PUSH1 0xE0 SHL PUSH1 0x0 MSTORE PUSH1 0x32 PUSH1 0x4 MSTORE PUSH1 0x24 PUSH1 0x0 REVERT JUMPDEST PUSH1 0x20 MUL PUSH1 0x20 ADD ADD DUP2 SWAP1 MSTORE POP DUP1 DUP1 PUSH2 0x53EE SWAP1 PUSH2 0xB4E7 JUMP JUMPDEST SWAP2 POP POP PUSH2 0x52C9 JUMP JUMPDEST PUSH1 0x18 PUSH1 0x20 MSTORE DUP2 PUSH1 0x0 MSTORE PUSH1 0x40 PUSH1 0x0 KECCAK256 DUP2 DUP2 SLOAD DUP2 LT PUSH2 0x3711 JUMPI PUSH1 0x0 DUP1 REVERT JUMPDEST PUSH1 0xC PUSH1 0x20 SWAP1 DUP2 MSTORE PUSH1 0x0 SWAP3 DUP4 MSTORE PUSH1 0x40 DUP1 DUP5 KECCAK256 SWAP1 SWAP2 MSTORE SWAP1 DUP3 MSTORE SWAP1 KECCAK256 SLOAD DUP2 JUMP JUMPDEST TIMESTAMP GT SWAP1 JUMP JUMPDEST PUSH2 0x543C PUSH2 0x9849 JUMP JUMPDEST PUSH2 0x5445 DUP3 PUSH2 0x6362 JUMP JUMPDEST PUSH2 0x544E JUMPI PUSH1 0x0 DUP1 REVERT JUMPDEST PUSH1 0x0 DUP3 DUP2 MSTORE PUSH1 0x14 PUSH1 0x20 SWAP1 DUP2 MSTORE PUSH1 0x40 SWAP2 DUP3 SWAP1 KECCAK256 DUP3 MLOAD PUSH2 0x1C0 DUP2 ADD DUP5 MSTORE DUP2 SLOAD DUP2 MSTORE PUSH1 0x1 DUP3 ADD SLOAD SWAP3 DUP2 ADD SWAP3 SWAP1 SWAP3 MSTORE PUSH1 0x2 DUP2 ADD SLOAD SWAP3 DUP3 ADD SWAP3 SWAP1 SWAP3 MSTORE PUSH1 0x3 DUP3 ADD SLOAD PUSH1 0x60 DUP3 ADD MSTORE PUSH1 0x4 DUP3 ADD SLOAD PUSH1 0xFF DUP1 DUP3 AND ISZERO ISZERO PUSH1 0x80 DUP5 ADD MSTORE PUSH2 0x100 DUP1 DUP4 DIV DUP3 AND ISZERO ISZERO PUSH1 0xA0 DUP6 ADD MSTORE PUSH3 0x10000 SWAP1 SWAP3 DIV AND ISZERO ISZERO PUSH1 0xC0 DUP4 ADD MSTORE PUSH1 0x5 DUP4 ADD SLOAD PUSH1 0xE0 DUP4 ADD MSTORE PUSH1 0x6 DUP4 ADD SLOAD SWAP1 DUP3 ADD MSTORE PUSH1 0x7 DUP3 ADD SLOAD PUSH2 0x120 DUP3 ADD MSTORE PUSH1 0x8 DUP3 ADD SLOAD PUSH2 0x140 DUP3 ADD MSTORE PUSH1 0x9 DUP3 ADD DUP1 SLOAD SWAP2 SWAP3 SWAP2 PUSH2 0x160 DUP5 ADD SWAP2 SWAP1 PUSH2 0x5500 SWAP1 PUSH2 0xB4AC JUMP JUMPDEST DUP1 PUSH1 0x1F ADD PUSH1 0x20 DUP1 SWAP2 DIV MUL PUSH1 0x20 ADD PUSH1 0x40 MLOAD SWAP1 DUP2 ADD PUSH1 0x40 MSTORE DUP1 SWAP3 SWAP2 SWAP1 DUP2 DUP2 MSTORE PUSH1 0x20 ADD DUP3 DUP1 SLOAD PUSH2 0x552C SWAP1 PUSH2 0xB4AC JUMP JUMPDEST DUP1 ISZERO PUSH2 0x5579 JUMPI DUP1 PUSH1 0x1F LT PUSH2 0x554E JUMPI PUSH2 0x100 DUP1 DUP4 SLOAD DIV MUL DUP4 MSTORE SWAP2 PUSH1 0x20 ADD SWAP2 PUSH2 0x5579 JUMP JUMPDEST DUP3 ADD SWAP2 SWAP1 PUSH1 0x0 MSTORE PUSH1 0x20 PUSH1 0x0 KECCAK256 SWAP1 JUMPDEST DUP2 SLOAD DUP2 MSTORE SWAP1 PUSH1 0x1 ADD SWAP1 PUSH1 0x20 ADD DUP1 DUP4 GT PUSH2 0x555C JUMPI DUP3 SWAP1 SUB PUSH1 0x1F AND DUP3 ADD SWAP2 JUMPDEST POP POP POP SWAP2 DUP4 MSTORE POP POP PUSH1 0xA DUP3 ADD SLOAD PUSH1 0x20 DUP3 ADD MSTORE PUSH1 0xB DUP3 ADD SLOAD PUSH1 0x40 SWAP1 SWAP2 ADD SWAP1 PUSH1 0xFF AND PUSH1 0x3 DUP2 GT ISZERO PUSH2 0x22B6 JUMPI PUSH4 0x4E487B71 PUSH1 0xE0 SHL PUSH1 0x0 MSTORE PUSH1 0x21 PUSH1 0x4 MSTORE PUSH1 0x24 PUSH1 0x0 REVERT JUMPDEST PUSH2 0x55C0 PUSH2 0x2549 JUMP JUMPDEST PUSH2 0x55C8 PUSH2 0x8C07 JUMP JUMPDEST PUSH1 0x0 JUMPDEST PUSH1 0x29 PUSH1 0x0 SWAP1 SLOAD SWAP1 PUSH2 0x100 EXP SWAP1 DIV PUSH1 0x1 PUSH1 0x1 PUSH1 0xA0 SHL SUB AND PUSH1 0x1 PUSH1 0x1 PUSH1 0xA0 SHL SUB AND PUSH4 0x7D630CB0 PUSH1 0x40 MLOAD DUP2 PUSH4 0xFFFFFFFF AND PUSH1 0xE0 SHL DUP2 MSTORE PUSH1 0x4 ADD PUSH1 0x20 PUSH1 0x40 MLOAD DUP1 DUP4 SUB DUP2 DUP7 DUP1 EXTCODESIZE ISZERO DUP1 ISZERO PUSH2 0x5619 JUMPI PUSH1 0x0 DUP1 REVERT JUMPDEST POP GAS STATICCALL ISZERO DUP1 ISZERO PUSH2 0x562D JUMPI RETURNDATASIZE PUSH1 0x0 DUP1 RETURNDATACOPY RETURNDATASIZE PUSH1 0x0 REVERT JUMPDEST POP POP POP POP PUSH1 0x40 MLOAD RETURNDATASIZE PUSH1 0x1F NOT PUSH1 0x1F DUP3 ADD AND DUP3 ADD DUP1 PUSH1 0x40 MSTORE POP DUP2 ADD SWAP1 PUSH2 0x5651 SWAP2 SWAP1 PUSH2 0x9C85 JUMP JUMPDEST DUP2 LT ISZERO PUSH2 0x58B2 JUMPI PUSH1 0x0 PUSH2 0x5662 PUSH2 0x8DD0 JUMP JUMPDEST PUSH1 0x21 SLOAD PUSH1 0x0 SWAP1 DUP2 MSTORE PUSH1 0x14 PUSH1 0x20 MSTORE PUSH1 0x40 SWAP1 KECCAK256 PUSH1 0x4 ADD SLOAD PUSH3 0x10000 SWAP1 DIV PUSH1 0xFF AND ISZERO ISZERO PUSH1 0x1 EQ DUP1 ISZERO PUSH2 0x56B4 JUMPI POP PUSH2 0x5697 PUSH1 0x21 SLOAD PUSH2 0x15CF JUMP JUMPDEST DUP1 PUSH2 0x56B4 JUMPI POP PUSH1 0x21 SLOAD PUSH1 0x0 SWAP1 DUP2 MSTORE PUSH1 0x14 PUSH1 0x20 MSTORE PUSH1 0x40 SWAP1 KECCAK256 PUSH1 0x3 ADD SLOAD ISZERO JUMPDEST ISZERO PUSH2 0x56FA JUMPI PUSH1 0x21 SLOAD PUSH1 0x0 SWAP1 DUP2 MSTORE PUSH1 0x14 PUSH1 0x20 MSTORE PUSH1 0x40 SWAP1 KECCAK256 PUSH1 0x4 ADD SLOAD PUSH2 0x100 SWAP1 DIV PUSH1 0xFF AND PUSH2 0x56E5 JUMPI PUSH2 0x56E5 PUSH1 0x21 SLOAD PUSH2 0x7280 JUMP JUMPDEST PUSH1 0x21 SLOAD PUSH2 0x56F3 SWAP1 PUSH1 0x1 PUSH2 0x8EB0 JUMP JUMPDEST PUSH1 0x21 SSTORE POP PUSH1 0x1 JUMPDEST PUSH1 0x22 SLOAD PUSH1 0x0 SWAP1 DUP2 MSTORE PUSH1 0x14 PUSH1 0x20 MSTORE PUSH1 0x40 SWAP1 KECCAK256 PUSH1 0x4 ADD SLOAD PUSH3 0x10000 SWAP1 DIV PUSH1 0xFF AND ISZERO ISZERO PUSH1 0x1 EQ DUP1 ISZERO SWAP1 PUSH2 0x57B1 JUMPI POP PUSH1 0x29 PUSH1 0x0 SWAP1 SLOAD SWAP1 PUSH2 0x100 EXP SWAP1 DIV PUSH1 0x1 PUSH1 0x1 PUSH1 0xA0 SHL SUB AND PUSH1 0x1 PUSH1 0x1 PUSH1 0xA0 SHL SUB AND PUSH4 0xBD40EF4C PUSH1 0x40 MLOAD DUP2 PUSH4 0xFFFFFFFF AND PUSH1 0xE0 SHL DUP2 MSTORE PUSH1 0x4 ADD PUSH1 0x20 PUSH1 0x40 MLOAD DUP1 DUP4 SUB DUP2 DUP7 DUP1 EXTCODESIZE ISZERO DUP1 ISZERO PUSH2 0x5773 JUMPI PUSH1 0x0 DUP1 REVERT JUMPDEST POP GAS STATICCALL ISZERO DUP1 ISZERO PUSH2 0x5787 JUMPI RETURNDATASIZE PUSH1 0x0 DUP1 RETURNDATACOPY RETURNDATASIZE PUSH1 0x0 REVERT JUMPDEST POP POP POP POP PUSH1 0x40 MLOAD RETURNDATASIZE PUSH1 0x1F NOT PUSH1 0x1F DUP3 ADD AND DUP3 ADD DUP1 PUSH1 0x40 MSTORE POP DUP2 ADD SWAP1 PUSH2 0x57AB SWAP2 SWAP1 PUSH2 0x9C85 JUMP JUMPDEST PUSH1 0x1A SLOAD LT ISZERO JUMPDEST DUP1 ISZERO PUSH2 0x57D1 JUMPI POP PUSH1 0x22 SLOAD PUSH1 0x0 SWAP1 DUP2 MSTORE PUSH1 0x14 PUSH1 0x20 MSTORE PUSH1 0x40 SWAP1 KECCAK256 PUSH1 0x4 ADD SLOAD PUSH1 0xFF AND JUMPDEST DUP1 ISZERO PUSH2 0x57E6 JUMPI POP PUSH2 0x57E0 PUSH2 0x3E98 JUMP JUMPDEST PUSH1 0x1D SLOAD EQ ISZERO JUMPDEST DUP1 ISZERO PUSH2 0x5883 JUMPI POP PUSH1 0x29 PUSH1 0x0 SWAP1 SLOAD SWAP1 PUSH2 0x100 EXP SWAP1 DIV PUSH1 0x1 PUSH1 0x1 PUSH1 0xA0 SHL SUB AND PUSH1 0x1 PUSH1 0x1 PUSH1 0xA0 SHL SUB AND PUSH4 0xC4A306F8 PUSH1 0x40 MLOAD DUP2 PUSH4 0xFFFFFFFF AND PUSH1 0xE0 SHL DUP2 MSTORE PUSH1 0x4 ADD PUSH1 0x20 PUSH1 0x40 MLOAD DUP1 DUP4 SUB DUP2 DUP7 DUP1 EXTCODESIZE ISZERO DUP1 ISZERO PUSH2 0x583B JUMPI PUSH1 0x0 DUP1 REVERT JUMPDEST POP GAS STATICCALL ISZERO DUP1 ISZERO PUSH2 0x584F JUMPI RETURNDATASIZE PUSH1 0x0 DUP1 RETURNDATACOPY RETURNDATASIZE PUSH1 0x0 REVERT JUMPDEST POP POP POP POP PUSH1 0x40 MLOAD RETURNDATASIZE PUSH1 0x1F NOT PUSH1 0x1F DUP3 ADD AND DUP3 ADD DUP1 PUSH1 0x40 MSTORE POP DUP2 ADD SWAP1 PUSH2 0x5873 SWAP2 SWAP1 PUSH2 0x9C85 JUMP JUMPDEST PUSH1 0x1 SLOAD PUSH2 0x5880 SWAP1 TIMESTAMP PUSH2 0xB469 JUMP JUMPDEST LT ISZERO JUMPDEST ISZERO PUSH2 0x5894 JUMPI PUSH2 0x5890 PUSH2 0x8EBC JUMP JUMPDEST POP PUSH1 0x1 JUMPDEST DUP1 PUSH2 0x589F JUMPI POP PUSH2 0x58B2 JUMP JUMPDEST POP DUP1 PUSH2 0x58AA DUP2 PUSH2 0xB4E7 JUMP JUMPDEST SWAP2 POP POP PUSH2 0x55CB JUMP JUMPDEST POP PUSH2 0x284E PUSH2 0x6CB3 JUMP JUMPDEST PUSH1 0x60 PUSH1 0x0 DUP3 GT PUSH2 0x58DD JUMPI PUSH1 0x40 MLOAD PUSH3 0x461BCD PUSH1 0xE5 SHL DUP2 MSTORE PUSH1 0x4 ADD PUSH2 0xE9F SWAP1 PUSH2 0xA8D2 JUMP JUMPDEST PUSH1 0x0 DUP3 PUSH1 0x1 PUSH1 0x1 PUSH1 0x40 SHL SUB DUP2 GT ISZERO PUSH2 0x5905 JUMPI PUSH4 0x4E487B71 PUSH1 0xE0 SHL PUSH1 0x0 MSTORE PUSH1 0x41 PUSH1 0x4 MSTORE PUSH1 0x24 PUSH1 0x0 REVERT JUMPDEST PUSH1 0x40 MLOAD SWAP1 DUP1 DUP3 MSTORE DUP1 PUSH1 0x20 MUL PUSH1 0x20 ADD DUP3 ADD PUSH1 0x40 MSTORE DUP1 ISZERO PUSH2 0x592E JUMPI DUP2 PUSH1 0x20 ADD PUSH1 0x20 DUP3 MUL DUP1 CALLDATASIZE DUP4 CALLDATACOPY ADD SWAP1 POP JUMPDEST POP SWAP1 POP PUSH1 0x0 PUSH2 0x593F PUSH2 0x449D DUP4 PUSH2 0x8A0A JUMP JUMPDEST SWAP5 SWAP4 POP POP POP POP JUMP JUMPDEST PUSH1 0x60 PUSH2 0x5952 DUP3 PUSH2 0x6362 JUMP JUMPDEST PUSH2 0x595B JUMPI PUSH1 0x0 DUP1 REVERT JUMPDEST PUSH1 0x0 DUP3 DUP2 MSTORE PUSH1 0x14 PUSH1 0x20 MSTORE PUSH1 0x40 SWAP1 KECCAK256 PUSH1 0x9 ADD DUP1 SLOAD PUSH2 0x5977 SWAP1 PUSH2 0xB4AC JUMP JUMPDEST DUP1 PUSH1 0x1F ADD PUSH1 0x20 DUP1 SWAP2 DIV MUL PUSH1 0x20 ADD PUSH1 0x40 MLOAD SWAP1 DUP2 ADD PUSH1 0x40 MSTORE DUP1 SWAP3 SWAP2 SWAP1 DUP2 DUP2 MSTORE PUSH1 0x20 ADD DUP3 DUP1 SLOAD PUSH2 0x59A3 SWAP1 PUSH2 0xB4AC JUMP JUMPDEST DUP1 ISZERO PUSH2 0x207D JUMPI DUP1 PUSH1 0x1F LT PUSH2 0x59C5 JUMPI PUSH2 0x100 DUP1 DUP4 SLOAD DIV MUL DUP4 MSTORE SWAP2 PUSH1 0x20 ADD SWAP2 PUSH2 0x207D JUMP JUMPDEST DUP3 ADD SWAP2 SWAP1 PUSH1 0x0 MSTORE PUSH1 0x20 PUSH1 0x0 KECCAK256 SWAP1 JUMPDEST DUP2 SLOAD DUP2 MSTORE SWAP1 PUSH1 0x1 ADD SWAP1 PUSH1 0x20 ADD DUP1 DUP4 GT PUSH2 0x59D3 JUMPI POP SWAP4 SWAP7 SWAP6 POP POP POP POP POP POP JUMP JUMPDEST PUSH1 0x1 PUSH1 0x1 PUSH1 0xA0 SHL SUB AND PUSH1 0x0 SWAP1 DUP2 MSTORE PUSH1 0x15 PUSH1 0x20 MSTORE PUSH1 0x40 SWAP1 KECCAK256 PUSH1 0x5 ADD SLOAD PUSH1 0xFF AND SWAP1 JUMP JUMPDEST PUSH1 0x0 PUSH2 0x5A37 PUSH2 0x5A21 CALLER PUSH2 0x27D1 JUMP JUMPDEST CALLER PUSH1 0x0 SWAP1 DUP2 MSTORE PUSH1 0x17 PUSH1 0x20 MSTORE PUSH1 0x40 SWAP1 KECCAK256 SLOAD SWAP1 PUSH2 0x6FDC JUMP JUMPDEST SWAP1 POP DUP2 DUP2 LT ISZERO PUSH2 0x5A59 JUMPI PUSH1 0x40 MLOAD PUSH3 0x461BCD PUSH1 0xE5 SHL DUP2 MSTORE PUSH1 0x4 ADD PUSH2 0xE9F SWAP1 PUSH2 0xAC3D JUMP JUMPDEST PUSH1 0x29 SLOAD PUSH1 0x40 DUP1 MLOAD PUSH4 0xCA64F9E7 PUSH1 0xE0 SHL DUP2 MSTORE SWAP1 MLOAD PUSH1 0x0 SWAP3 PUSH1 0x1 PUSH1 0x1 PUSH1 0xA0 SHL SUB AND SWAP2 PUSH4 0xCA64F9E7 SWAP2 PUSH1 0x4 DUP1 DUP4 ADD SWAP3 PUSH1 0x20 SWAP3 SWAP2 SWAP1 DUP3 SWAP1 SUB ADD DUP2 DUP7 DUP1 EXTCODESIZE ISZERO DUP1 ISZERO PUSH2 0x5A9E JUMPI PUSH1 0x0 DUP1 REVERT JUMPDEST POP GAS STATICCALL ISZERO DUP1 ISZERO PUSH2 0x5AB2 JUMPI RETURNDATASIZE PUSH1 0x0 DUP1 RETURNDATACOPY RETURNDATASIZE PUSH1 0x0 REVERT JUMPDEST POP POP POP POP PUSH1 0x40 MLOAD RETURNDATASIZE PUSH1 0x1F NOT PUSH1 0x1F DUP3 ADD AND DUP3 ADD DUP1 PUSH1 0x40 MSTORE POP DUP2 ADD SWAP1 PUSH2 0x5AD6 SWAP2 SWAP1 PUSH2 0x99BA JUMP JUMPDEST PUSH1 0x40 MLOAD PUSH4 0x8959933 PUSH1 0xE1 SHL DUP2 MSTORE SWAP1 SWAP2 POP PUSH1 0x1 PUSH1 0x1 PUSH1 0xA0 SHL SUB DUP3 AND SWAP1 PUSH4 0x112B3266 SWAP1 PUSH2 0x5B07 SWAP1 DUP7 SWAP1 CALLER SWAP1 PUSH1 0x4 ADD PUSH2 0xB2A7 JUMP JUMPDEST PUSH1 0x20 PUSH1 0x40 MLOAD DUP1 DUP4 SUB DUP2 PUSH1 0x0 DUP8 DUP1 EXTCODESIZE ISZERO DUP1 ISZERO PUSH2 0x5B21 JUMPI PUSH1 0x0 DUP1 REVERT JUMPDEST POP GAS CALL ISZERO DUP1 ISZERO PUSH2 0x5B35 JUMPI RETURNDATASIZE PUSH1 0x0 DUP1 RETURNDATACOPY RETURNDATASIZE PUSH1 0x0 REVERT JUMPDEST POP POP POP POP PUSH1 0x40 MLOAD RETURNDATASIZE PUSH1 0x1F NOT PUSH1 0x1F DUP3 ADD AND DUP3 ADD DUP1 PUSH1 0x40 MSTORE POP DUP2 ADD SWAP1 PUSH2 0x5B59 SWAP2 SWAP1 PUSH2 0x9BAB JUMP JUMPDEST PUSH2 0x5B75 JUMPI PUSH1 0x40 MLOAD PUSH3 0x461BCD PUSH1 0xE5 SHL DUP2 MSTORE PUSH1 0x4 ADD PUSH2 0xE9F SWAP1 PUSH2 0xAEEB JUMP JUMPDEST CALLER PUSH1 0x0 SWAP1 DUP2 MSTORE PUSH1 0x17 PUSH1 0x20 MSTORE PUSH1 0x40 DUP2 KECCAK256 DUP1 SLOAD DUP6 SWAP3 SWAP1 PUSH2 0x5B94 SWAP1 DUP5 SWAP1 PUSH2 0xB469 JUMP JUMPDEST SWAP1 SWAP2 SSTORE POP POP PUSH1 0x40 MLOAD CALLER SWAP1 PUSH32 0xFAEB7DBB9992397D26EA1944EFD40C80B40F702FAF69B46C67AD10ABA68CCB79 SWAP1 PUSH2 0x5BCB SWAP1 DUP7 SWAP1 PUSH2 0x9EB5 JUMP JUMPDEST PUSH1 0x40 MLOAD DUP1 SWAP2 SUB SWAP1 LOG2 POP POP POP JUMP JUMPDEST PUSH1 0x27 SLOAD DUP2 JUMP JUMPDEST PUSH1 0x60 PUSH2 0x5BE9 DUP3 PUSH2 0x6362 JUMP JUMPDEST PUSH2 0x5C05 JUMPI PUSH1 0x40 MLOAD PUSH3 0x461BCD PUSH1 0xE5 SHL DUP2 MSTORE PUSH1 0x4 ADD PUSH2 0xE9F SWAP1 PUSH2 0xACB9 JUMP JUMPDEST PUSH1 0x0 DUP3 DUP2 MSTORE PUSH1 0x14 PUSH1 0x20 SWAP1 DUP2 MSTORE PUSH1 0x40 DUP1 DUP4 KECCAK256 DUP2 MLOAD PUSH2 0x1C0 DUP2 ADD DUP4 MSTORE DUP2 SLOAD DUP2 MSTORE PUSH1 0x1 DUP3 ADD SLOAD SWAP4 DUP2 ADD SWAP4 SWAP1 SWAP4 MSTORE PUSH1 0x2 DUP2 ADD SLOAD SWAP2 DUP4 ADD SWAP2 SWAP1 SWAP2 MSTORE PUSH1 0x3 DUP2 ADD SLOAD PUSH1 0x60 DUP4 ADD MSTORE PUSH1 0x4 DUP2 ADD SLOAD PUSH1 0xFF DUP1 DUP3 AND ISZERO ISZERO PUSH1 0x80 DUP6 ADD MSTORE PUSH2 0x100 DUP1 DUP4 DIV DUP3 AND ISZERO ISZERO PUSH1 0xA0 DUP7 ADD MSTORE PUSH3 0x10000 SWAP1 SWAP3 DIV AND ISZERO ISZERO PUSH1 0xC0 DUP5 ADD MSTORE PUSH1 0x5 DUP3 ADD SLOAD PUSH1 0xE0 DUP5 ADD MSTORE PUSH1 0x6 DUP3 ADD SLOAD SWAP1 DUP4 ADD MSTORE PUSH1 0x7 DUP2 ADD SLOAD PUSH2 0x120 DUP4 ADD MSTORE PUSH1 0x8 DUP2 ADD SLOAD PUSH2 0x140 DUP4 ADD MSTORE PUSH1 0x9 DUP2 ADD DUP1 SLOAD PUSH2 0x160 DUP5 ADD SWAP2 SWAP1 PUSH2 0x5CB3 SWAP1 PUSH2 0xB4AC JUMP JUMPDEST DUP1 PUSH1 0x1F ADD PUSH1 0x20 DUP1 SWAP2 DIV MUL PUSH1 0x20 ADD PUSH1 0x40 MLOAD SWAP1 DUP2 ADD PUSH1 0x40 MSTORE DUP1 SWAP3 SWAP2 SWAP1 DUP2 DUP2 MSTORE PUSH1 0x20 ADD DUP3 DUP1 SLOAD PUSH2 0x5CDF SWAP1 PUSH2 0xB4AC JUMP JUMPDEST DUP1 ISZERO PUSH2 0x5D2C JUMPI DUP1 PUSH1 0x1F LT PUSH2 0x5D01 JUMPI PUSH2 0x100 DUP1 DUP4 SLOAD DIV MUL DUP4 MSTORE SWAP2 PUSH1 0x20 ADD SWAP2 PUSH2 0x5D2C JUMP JUMPDEST DUP3 ADD SWAP2 SWAP1 PUSH1 0x0 MSTORE PUSH1 0x20 PUSH1 0x0 KECCAK256 SWAP1 JUMPDEST DUP2 SLOAD DUP2 MSTORE SWAP1 PUSH1 0x1 ADD SWAP1 PUSH1 0x20 ADD DUP1 DUP4 GT PUSH2 0x5D0F JUMPI DUP3 SWAP1 SUB PUSH1 0x1F AND DUP3 ADD SWAP2 JUMPDEST POP POP POP SWAP2 DUP4 MSTORE POP POP PUSH1 0xA DUP3 ADD SLOAD PUSH1 0x20 DUP3 ADD MSTORE PUSH1 0xB DUP3 ADD SLOAD PUSH1 0x40 SWAP1 SWAP2 ADD SWAP1 PUSH1 0xFF AND PUSH1 0x3 DUP2 GT ISZERO PUSH2 0x5D6B JUMPI PUSH4 0x4E487B71 PUSH1 0xE0 SHL PUSH1 0x0 MSTORE PUSH1 0x21 PUSH1 0x4 MSTORE PUSH1 0x24 PUSH1 0x0 REVERT JUMPDEST PUSH1 0x3 DUP2 GT ISZERO PUSH2 0x5D8A JUMPI PUSH4 0x4E487B71 PUSH1 0xE0 SHL PUSH1 0x0 MSTORE PUSH1 0x21 PUSH1 0x4 MSTORE PUSH1 0x24 PUSH1 0x0 REVERT JUMPDEST SWAP1 MSTORE POP PUSH1 0x20 DUP2 ADD MLOAD SWAP1 SWAP2 POP PUSH1 0x0 DUP2 PUSH1 0x1 PUSH1 0x1 PUSH1 0x40 SHL SUB DUP2 GT ISZERO PUSH2 0x5DBD JUMPI PUSH4 0x4E487B71 PUSH1 0xE0 SHL PUSH1 0x0 MSTORE PUSH1 0x41 PUSH1 0x4 MSTORE PUSH1 0x24 PUSH1 0x0 REVERT JUMPDEST PUSH1 0x40 MLOAD SWAP1 DUP1 DUP3 MSTORE DUP1 PUSH1 0x20 MUL PUSH1 0x20 ADD DUP3 ADD PUSH1 0x40 MSTORE DUP1 ISZERO PUSH2 0x5DF0 JUMPI DUP2 PUSH1 0x20 ADD JUMPDEST PUSH1 0x60 DUP2 MSTORE PUSH1 0x20 ADD SWAP1 PUSH1 0x1 SWAP1 SUB SWAP1 DUP2 PUSH2 0x5DDB JUMPI SWAP1 POP JUMPDEST POP SWAP1 POP PUSH1 0x0 JUMPDEST DUP3 DUP2 LT ISZERO PUSH2 0x15C6 JUMPI DUP4 MLOAD PUSH1 0x0 SWAP1 PUSH2 0x5E0E SWAP1 DUP4 SWAP1 PUSH2 0xB41E JUMP JUMPDEST PUSH1 0x0 DUP2 DUP2 MSTORE PUSH1 0x13 PUSH1 0x20 MSTORE PUSH1 0x40 DUP2 KECCAK256 DUP1 SLOAD SWAP3 SWAP4 POP SWAP1 SWAP2 PUSH2 0x5E2C SWAP1 PUSH2 0xB4AC JUMP JUMPDEST DUP1 PUSH1 0x1F ADD PUSH1 0x20 DUP1 SWAP2 DIV MUL PUSH1 0x20 ADD PUSH1 0x40 MLOAD SWAP1 DUP2 ADD PUSH1 0x40 MSTORE DUP1 SWAP3 SWAP2 SWAP1 DUP2 DUP2 MSTORE PUSH1 0x20 ADD DUP3 DUP1 SLOAD PUSH2 0x5E58 SWAP1 PUSH2 0xB4AC JUMP JUMPDEST DUP1 ISZERO PUSH2 0x5EA5 JUMPI DUP1 PUSH1 0x1F LT PUSH2 0x5E7A JUMPI PUSH2 0x100 DUP1 DUP4 SLOAD DIV MUL DUP4 MSTORE SWAP2 PUSH1 0x20 ADD SWAP2 PUSH2 0x5EA5 JUMP JUMPDEST DUP3 ADD SWAP2 SWAP1 PUSH1 0x0 MSTORE PUSH1 0x20 PUSH1 0x0 KECCAK256 SWAP1 JUMPDEST DUP2 SLOAD DUP2 MSTORE SWAP1 PUSH1 0x1 ADD SWAP1 PUSH1 0x20 ADD DUP1 DUP4 GT PUSH2 0x5E88 JUMPI DUP3 SWAP1 SUB PUSH1 0x1F AND DUP3 ADD SWAP2 JUMPDEST POP POP POP POP POP SWAP1 POP DUP1 DUP5 DUP5 DUP2 MLOAD DUP2 LT PUSH2 0x5ECD JUMPI PUSH4 0x4E487B71 PUSH1 0xE0 SHL PUSH1 0x0 MSTORE PUSH1 0x32 PUSH1 0x4 MSTORE PUSH1 0x24 PUSH1 0x0 REVERT JUMPDEST PUSH1 0x20 MUL PUSH1 0x20 ADD ADD DUP2 SWAP1 MSTORE POP POP POP DUP1 DUP1 PUSH2 0x5EE5 SWAP1 PUSH2 0xB4E7 JUMP JUMPDEST SWAP2 POP POP PUSH2 0x5DF6 JUMP JUMPDEST PUSH1 0x21 SLOAD DUP2 JUMP JUMPDEST PUSH1 0x23 SLOAD DUP2 JUMP JUMPDEST PUSH2 0x5F01 PUSH2 0x6975 JUMP JUMPDEST PUSH1 0x1 PUSH1 0x1 PUSH1 0xA0 SHL SUB DUP2 AND PUSH2 0x5F27 JUMPI PUSH1 0x40 MLOAD PUSH3 0x461BCD PUSH1 0xE5 SHL DUP2 MSTORE PUSH1 0x4 ADD PUSH2 0xE9F SWAP1 PUSH2 0xA382 JUMP JUMPDEST PUSH2 0x176A DUP2 PUSH2 0x6F8C JUMP JUMPDEST PUSH1 0x0 DUP3 DUP3 PUSH1 0x40 MLOAD PUSH1 0x20 ADD PUSH2 0x39B0 SWAP3 SWAP2 SWAP1 PUSH2 0xA0A6 JUMP JUMPDEST PUSH1 0x23 SLOAD SWAP1 JUMP JUMPDEST CALLER PUSH1 0x0 SWAP1 DUP2 MSTORE PUSH1 0x15 PUSH1 0x20 SWAP1 DUP2 MSTORE PUSH1 0x40 SWAP2 DUP3 SWAP1 KECCAK256 PUSH1 0x29 SLOAD DUP4 MLOAD PUSH4 0x98A54E2B PUSH1 0xE0 SHL DUP2 MSTORE SWAP4 MLOAD SWAP2 SWAP4 PUSH1 0x1 PUSH1 0x1 PUSH1 0xA0 SHL SUB SWAP1 SWAP2 AND SWAP3 PUSH4 0x98A54E2B SWAP3 PUSH1 0x4 DUP1 DUP5 ADD SWAP4 DUP3 SWAP1 SUB ADD DUP2 DUP7 DUP1 EXTCODESIZE ISZERO DUP1 ISZERO PUSH2 0x5F9D JUMPI PUSH1 0x0 DUP1 REVERT JUMPDEST POP GAS STATICCALL ISZERO DUP1 ISZERO PUSH2 0x5FB1 JUMPI RETURNDATASIZE PUSH1 0x0 DUP1 RETURNDATACOPY RETURNDATASIZE PUSH1 0x0 REVERT JUMPDEST POP POP POP POP PUSH1 0x40 MLOAD RETURNDATASIZE PUSH1 0x1F NOT PUSH1 0x1F DUP3 ADD AND DUP3 ADD DUP1 PUSH1 0x40 MSTORE POP DUP2 ADD SWAP1 PUSH2 0x5FD5 SWAP2 SWAP1 PUSH2 0x9C85 JUMP JUMPDEST PUSH1 0x1B SLOAD PUSH1 0x1A SLOAD PUSH2 0x5FE5 SWAP2 SWAP1 PUSH2 0xB41E JUMP JUMPDEST LT PUSH2 0x6002 JUMPI PUSH1 0x40 MLOAD PUSH3 0x461BCD PUSH1 0xE5 SHL DUP2 MSTORE PUSH1 0x4 ADD PUSH2 0xE9F SWAP1 PUSH2 0xADC7 JUMP JUMPDEST PUSH1 0x5 DUP2 ADD SLOAD PUSH1 0xFF AND ISZERO PUSH2 0x6027 JUMPI PUSH1 0x40 MLOAD PUSH3 0x461BCD PUSH1 0xE5 SHL DUP2 MSTORE PUSH1 0x4 ADD PUSH2 0xE9F SWAP1 PUSH2 0xA172 JUMP JUMPDEST PUSH1 0x29 PUSH1 0x0 SWAP1 SLOAD SWAP1 PUSH2 0x100 EXP SWAP1 DIV PUSH1 0x1 PUSH1 0x1 PUSH1 0xA0 SHL SUB AND PUSH1 0x1 PUSH1 0x1 PUSH1 0xA0 SHL SUB AND PUSH4 0x9FB491F6 PUSH1 0x40 MLOAD DUP2 PUSH4 0xFFFFFFFF AND PUSH1 0xE0 SHL DUP2 MSTORE PUSH1 0x4 ADD PUSH1 0x20 PUSH1 0x40 MLOAD DUP1 DUP4 SUB DUP2 DUP7 DUP1 EXTCODESIZE ISZERO DUP1 ISZERO PUSH2 0x6075 JUMPI PUSH1 0x0 DUP1 REVERT JUMPDEST POP GAS STATICCALL ISZERO DUP1 ISZERO PUSH2 0x6089 JUMPI RETURNDATASIZE PUSH1 0x0 DUP1 RETURNDATACOPY RETURNDATASIZE PUSH1 0x0 REVERT JUMPDEST POP POP POP POP PUSH1 0x40 MLOAD RETURNDATASIZE PUSH1 0x1F NOT PUSH1 0x1F DUP3 ADD AND DUP3 ADD DUP1 PUSH1 0x40 MSTORE POP DUP2 ADD SWAP1 PUSH2 0x60AD SWAP2 SWAP1 PUSH2 0x9C85 JUMP JUMPDEST DUP2 PUSH1 0x3 ADD SLOAD LT ISZERO DUP1 ISZERO PUSH2 0x6152 JUMPI POP PUSH1 0x29 PUSH1 0x0 SWAP1 SLOAD SWAP1 PUSH2 0x100 EXP SWAP1 DIV PUSH1 0x1 PUSH1 0x1 PUSH1 0xA0 SHL SUB AND PUSH1 0x1 PUSH1 0x1 PUSH1 0xA0 SHL SUB AND PUSH4 0xF1F0FFE PUSH1 0x40 MLOAD DUP2 PUSH4 0xFFFFFFFF AND PUSH1 0xE0 SHL DUP2 MSTORE PUSH1 0x4 ADD PUSH1 0x20 PUSH1 0x40 MLOAD DUP1 DUP4 SUB DUP2 DUP7 DUP1 EXTCODESIZE ISZERO DUP1 ISZERO PUSH2 0x6109 JUMPI PUSH1 0x0 DUP1 REVERT JUMPDEST POP GAS STATICCALL ISZERO DUP1 ISZERO PUSH2 0x611D JUMPI RETURNDATASIZE PUSH1 0x0 DUP1 RETURNDATACOPY RETURNDATASIZE PUSH1 0x0 REVERT JUMPDEST POP POP POP POP PUSH1 0x40 MLOAD RETURNDATASIZE PUSH1 0x1F NOT PUSH1 0x1F DUP3 ADD AND DUP3 ADD DUP1 PUSH1 0x40 MSTORE POP DUP2 ADD SWAP1 PUSH2 0x6141 SWAP2 SWAP1 PUSH2 0x9C85 JUMP JUMPDEST PUSH1 0x6 DUP3 ADD SLOAD PUSH2 0x6150 SWAP1 TIMESTAMP PUSH2 0xB469 JUMP JUMPDEST LT JUMPDEST ISZERO PUSH2 0x616F JUMPI PUSH1 0x40 MLOAD PUSH3 0x461BCD PUSH1 0xE5 SHL DUP2 MSTORE PUSH1 0x4 ADD PUSH2 0xE9F SWAP1 PUSH2 0xAE09 JUMP JUMPDEST PUSH1 0x29 SLOAD PUSH1 0x40 DUP1 MLOAD PUSH1 0x1 PUSH3 0x4EE913 PUSH1 0xE1 SHL SUB NOT DUP2 MSTORE SWAP1 MLOAD PUSH1 0x0 SWAP3 PUSH1 0x1 PUSH1 0x1 PUSH1 0xA0 SHL SUB AND SWAP2 PUSH4 0xFF622DDA SWAP2 PUSH1 0x4 DUP1 DUP4 ADD SWAP3 PUSH1 0x20 SWAP3 SWAP2 SWAP1 DUP3 SWAP1 SUB ADD DUP2 DUP7 DUP1 EXTCODESIZE ISZERO DUP1 ISZERO PUSH2 0x61B7 JUMPI PUSH1 0x0 DUP1 REVERT JUMPDEST POP GAS STATICCALL ISZERO DUP1 ISZERO PUSH2 0x61CB JUMPI RETURNDATASIZE PUSH1 0x0 DUP1 RETURNDATACOPY RETURNDATASIZE PUSH1 0x0 REVERT JUMPDEST POP POP POP POP PUSH1 0x40 MLOAD RETURNDATASIZE PUSH1 0x1F NOT PUSH1 0x1F DUP3 ADD AND DUP3 ADD DUP1 PUSH1 0x40 MSTORE POP DUP2 ADD SWAP1 PUSH2 0x61EF SWAP2 SWAP1 PUSH2 0x9C85 JUMP JUMPDEST SWAP1 POP PUSH1 0x0 PUSH2 0x61FD CALLER DUP4 PUSH2 0x3203 JUMP JUMPDEST PUSH1 0x1 PUSH1 0x1 PUSH1 0xA0 SHL SUB DUP2 AND PUSH1 0x0 SWAP1 DUP2 MSTORE PUSH1 0x17 PUSH1 0x20 MSTORE PUSH1 0x40 SWAP1 KECCAK256 SLOAD SWAP1 SWAP2 POP DUP3 GT ISZERO PUSH2 0x6252 JUMPI PUSH1 0x1 PUSH1 0x1 PUSH1 0xA0 SHL SUB DUP2 AND PUSH1 0x0 SWAP1 DUP2 MSTORE PUSH1 0x17 PUSH1 0x20 MSTORE PUSH1 0x40 DUP2 KECCAK256 SLOAD PUSH2 0x6244 SWAP1 DUP5 SWAP1 PUSH2 0x6FDC JUMP JUMPDEST SWAP1 POP PUSH2 0x6250 DUP2 DUP4 PUSH2 0x6FE8 JUMP JUMPDEST POP JUMPDEST CALLER PUSH1 0x0 SWAP1 DUP2 MSTORE PUSH1 0x17 PUSH1 0x20 MSTORE PUSH1 0x40 SWAP1 KECCAK256 SLOAD DUP3 GT ISZERO PUSH2 0x6281 JUMPI PUSH1 0x40 MLOAD PUSH3 0x461BCD PUSH1 0xE5 SHL DUP2 MSTORE PUSH1 0x4 ADD PUSH2 0xE9F SWAP1 PUSH2 0xA773 JUMP JUMPDEST PUSH2 0x628A CALLER PUSH2 0x7210 JUMP JUMPDEST PUSH2 0x62D1 JUMPI PUSH1 0x1A DUP1 SLOAD PUSH1 0x1 DUP2 ADD DUP3 SSTORE PUSH1 0x0 SWAP2 SWAP1 SWAP2 MSTORE PUSH32 0x57C384A7D1C54F3A1B2E5E67B2617B8224FDFD1EA7234EEA573A6FF665FF63E ADD DUP1 SLOAD PUSH1 0x1 PUSH1 0x1 PUSH1 0xA0 SHL SUB NOT AND CALLER OR SWAP1 SSTORE JUMPDEST DUP3 SLOAD CALLER PUSH1 0x1 PUSH1 0x1 PUSH1 0xA0 SHL SUB NOT SWAP1 SWAP2 AND OR DUP4 SSTORE PUSH1 0x5 DUP4 ADD DUP1 SLOAD PUSH1 0xFF NOT AND PUSH1 0x1 SWAP1 DUP2 OR PUSH2 0xFF00 NOT AND SWAP1 SWAP2 SSTORE TIMESTAMP PUSH1 0x6 DUP6 ADD SSTORE PUSH1 0x0 PUSH1 0x3 DUP6 ADD DUP2 SWAP1 SSTORE PUSH1 0x23 DUP1 SLOAD SWAP1 SWAP2 SWAP1 PUSH2 0x631B SWAP1 DUP5 SWAP1 PUSH2 0xB41E JUMP JUMPDEST SWAP1 SWAP2 SSTORE POP PUSH2 0x6329 SWAP1 POP PUSH2 0x6CB3 JUMP JUMPDEST CALLER PUSH1 0x1 PUSH1 0x1 PUSH1 0xA0 SHL SUB AND PUSH32 0x439D77B7534EC3108FC6143BD4FBABDE0B9F2BB54F7B0730D1F70DD2135B765F TIMESTAMP PUSH1 0x40 MLOAD PUSH2 0x5BCB SWAP2 SWAP1 PUSH2 0x9EB5 JUMP JUMPDEST PUSH1 0x20 SLOAD LT ISZERO SWAP1 JUMP JUMPDEST CALLER PUSH1 0x0 SWAP1 DUP2 MSTORE PUSH1 0x15 PUSH1 0x20 MSTORE PUSH1 0x40 SWAP1 KECCAK256 PUSH1 0x5 ADD SLOAD PUSH1 0xFF AND SWAP1 JUMP JUMPDEST PUSH1 0x25 SLOAD SWAP1 JUMP JUMPDEST PUSH1 0x28 SLOAD PUSH1 0x1 PUSH1 0x1 PUSH1 0xA0 SHL SUB AND DUP2 JUMP JUMPDEST PUSH1 0x1 PUSH1 0x1 PUSH1 0xA0 SHL SUB DUP1 DUP3 AND PUSH1 0x0 SWAP1 DUP2 MSTORE PUSH1 0x15 PUSH1 0x20 SWAP1 DUP2 MSTORE PUSH1 0x40 DUP1 DUP4 KECCAK256 DUP2 MLOAD PUSH2 0x140 DUP2 ADD DUP4 MSTORE DUP2 SLOAD SWAP1 SWAP6 AND DUP6 MSTORE PUSH1 0x1 DUP2 ADD SLOAD SWAP3 DUP6 ADD DUP4 SWAP1 MSTORE PUSH1 0x2 DUP2 ADD SLOAD PUSH1 0xFF SWAP1 DUP2 AND ISZERO ISZERO SWAP3 DUP7 ADD SWAP3 SWAP1 SWAP3 MSTORE PUSH1 0x3 DUP2 ADD SLOAD PUSH1 0x60 DUP7 ADD MSTORE PUSH1 0x4 DUP2 ADD SLOAD PUSH1 0x80 DUP7 ADD MSTORE PUSH1 0x5 DUP2 ADD SLOAD DUP1 DUP4 AND ISZERO ISZERO PUSH1 0xA0 DUP8 ADD MSTORE PUSH2 0x100 SWAP1 DUP2 SWAP1 DIV SWAP1 SWAP3 AND ISZERO ISZERO PUSH1 0xC0 DUP7 ADD MSTORE PUSH1 0x6 DUP2 ADD SLOAD PUSH1 0xE0 DUP7 ADD MSTORE PUSH1 0x7 DUP2 ADD SLOAD SWAP2 DUP6 ADD SWAP2 SWAP1 SWAP2 MSTORE PUSH1 0x8 ADD SLOAD PUSH2 0x120 DUP5 ADD MSTORE SWAP1 SWAP2 SWAP1 PUSH2 0x6443 DUP5 DUP3 PUSH2 0x29A0 JUMP JUMPDEST ISZERO DUP1 ISZERO PUSH2 0x6454 JUMPI POP PUSH2 0x6454 DUP2 PUSH2 0x27E0 JUMP JUMPDEST ISZERO PUSH2 0x1903 JUMPI POP PUSH1 0x0 SWAP4 SWAP3 POP POP POP JUMP JUMPDEST PUSH1 0x60 PUSH1 0x0 DUP4 GT DUP1 ISZERO PUSH2 0x6474 JUMPI POP DUP2 DUP4 LT JUMPDEST PUSH2 0x6490 JUMPI PUSH1 0x40 MLOAD PUSH3 0x461BCD PUSH1 0xE5 SHL DUP2 MSTORE PUSH1 0x4 ADD PUSH2 0xE9F SWAP1 PUSH2 0xA6E6 JUMP JUMPDEST PUSH1 0x0 DUP4 JUMPDEST PUSH2 0x649F DUP5 PUSH1 0x1 PUSH2 0xB41E JUMP JUMPDEST DUP2 LT ISZERO PUSH2 0x6656 JUMPI PUSH1 0x0 DUP2 DUP2 MSTORE PUSH1 0x14 PUSH1 0x20 SWAP1 DUP2 MSTORE PUSH1 0x40 DUP1 DUP4 KECCAK256 DUP2 MLOAD PUSH2 0x1C0 DUP2 ADD DUP4 MSTORE DUP2 SLOAD DUP2 MSTORE PUSH1 0x1 DUP3 ADD SLOAD SWAP4 DUP2 ADD SWAP4 SWAP1 SWAP4 MSTORE PUSH1 0x2 DUP2 ADD SLOAD SWAP2 DUP4 ADD SWAP2 SWAP1 SWAP2 MSTORE PUSH1 0x3 DUP2 ADD SLOAD PUSH1 0x60 DUP4 ADD MSTORE PUSH1 0x4 DUP2 ADD SLOAD PUSH1 0xFF DUP1 DUP3 AND ISZERO ISZERO PUSH1 0x80 DUP6 ADD MSTORE PUSH2 0x100 DUP1 DUP4 DIV DUP3 AND ISZERO ISZERO PUSH1 0xA0 DUP7 ADD MSTORE PUSH3 0x10000 SWAP1 SWAP3 DIV AND ISZERO ISZERO PUSH1 0xC0 DUP5 ADD MSTORE PUSH1 0x5 DUP3 ADD SLOAD PUSH1 0xE0 DUP5 ADD MSTORE PUSH1 0x6 DUP3 ADD SLOAD SWAP1 DUP4 ADD MSTORE PUSH1 0x7 DUP2 ADD SLOAD PUSH2 0x120 DUP4 ADD MSTORE PUSH1 0x8 DUP2 ADD SLOAD PUSH2 0x140 DUP4 ADD MSTORE PUSH1 0x9 DUP2 ADD DUP1 SLOAD PUSH2 0x160 DUP5 ADD SWAP2 SWAP1 PUSH2 0x6554 SWAP1 PUSH2 0xB4AC JUMP JUMPDEST DUP1 PUSH1 0x1F ADD PUSH1 0x20 DUP1 SWAP2 DIV MUL PUSH1 0x20 ADD PUSH1 0x40 MLOAD SWAP1 DUP2 ADD PUSH1 0x40 MSTORE DUP1 SWAP3 SWAP2 SWAP1 DUP2 DUP2 MSTORE PUSH1 0x20 ADD DUP3 DUP1 SLOAD PUSH2 0x6580 SWAP1 PUSH2 0xB4AC JUMP JUMPDEST DUP1 ISZERO PUSH2 0x65CD JUMPI DUP1 PUSH1 0x1F LT PUSH2 0x65A2 JUMPI PUSH2 0x100 DUP1 DUP4 SLOAD DIV MUL DUP4 MSTORE SWAP2 PUSH1 0x20 ADD SWAP2 PUSH2 0x65CD JUMP JUMPDEST DUP3 ADD SWAP2 SWAP1 PUSH1 0x0 MSTORE PUSH1 0x20 PUSH1 0x0 KECCAK256 SWAP1 JUMPDEST DUP2 SLOAD DUP2 MSTORE SWAP1 PUSH1 0x1 ADD SWAP1 PUSH1 0x20 ADD DUP1 DUP4 GT PUSH2 0x65B0 JUMPI DUP3 SWAP1 SUB PUSH1 0x1F AND DUP3 ADD SWAP2 JUMPDEST POP POP POP SWAP2 DUP4 MSTORE POP POP PUSH1 0xA DUP3 ADD SLOAD PUSH1 0x20 DUP3 ADD MSTORE PUSH1 0xB DUP3 ADD SLOAD PUSH1 0x40 SWAP1 SWAP2 ADD SWAP1 PUSH1 0xFF AND PUSH1 0x3 DUP2 GT ISZERO PUSH2 0x660C JUMPI PUSH4 0x4E487B71 PUSH1 0xE0 SHL PUSH1 0x0 MSTORE PUSH1 0x21 PUSH1 0x4 MSTORE PUSH1 0x24 PUSH1 0x0 REVERT JUMPDEST PUSH1 0x3 DUP2 GT ISZERO PUSH2 0x662B JUMPI PUSH4 0x4E487B71 PUSH1 0xE0 SHL PUSH1 0x0 MSTORE PUSH1 0x21 PUSH1 0x4 MSTORE PUSH1 0x24 PUSH1 0x0 REVERT JUMPDEST SWAP1 MSTORE POP PUSH1 0x20 DUP2 ADD MLOAD SWAP1 SWAP2 POP PUSH2 0x6640 SWAP1 DUP5 PUSH2 0xB41E JUMP JUMPDEST SWAP3 POP POP DUP1 DUP1 PUSH2 0x664E SWAP1 PUSH2 0xB4E7 JUMP JUMPDEST SWAP2 POP POP PUSH2 0x6494 JUMP JUMPDEST POP PUSH1 0x0 DUP2 PUSH1 0x1 PUSH1 0x1 PUSH1 0x40 SHL SUB DUP2 GT ISZERO PUSH2 0x667F JUMPI PUSH4 0x4E487B71 PUSH1 0xE0 SHL PUSH1 0x0 MSTORE PUSH1 0x41 PUSH1 0x4 MSTORE PUSH1 0x24 PUSH1 0x0 REVERT JUMPDEST PUSH1 0x40 MLOAD SWAP1 DUP1 DUP3 MSTORE DUP1 PUSH1 0x20 MUL PUSH1 0x20 ADD DUP3 ADD PUSH1 0x40 MSTORE DUP1 ISZERO PUSH2 0x66B2 JUMPI DUP2 PUSH1 0x20 ADD JUMPDEST PUSH1 0x60 DUP2 MSTORE PUSH1 0x20 ADD SWAP1 PUSH1 0x1 SWAP1 SUB SWAP1 DUP2 PUSH2 0x669D JUMPI SWAP1 POP JUMPDEST POP SWAP1 POP DUP5 JUMPDEST PUSH2 0x66C2 DUP6 PUSH1 0x1 PUSH2 0xB41E JUMP JUMPDEST DUP2 LT ISZERO PUSH2 0x15C6 JUMPI PUSH1 0x0 DUP2 DUP2 MSTORE PUSH1 0x14 PUSH1 0x20 SWAP1 DUP2 MSTORE PUSH1 0x40 DUP1 DUP4 KECCAK256 DUP2 MLOAD PUSH2 0x1C0 DUP2 ADD DUP4 MSTORE DUP2 SLOAD DUP2 MSTORE PUSH1 0x1 DUP3 ADD SLOAD SWAP4 DUP2 ADD SWAP4 SWAP1 SWAP4 MSTORE PUSH1 0x2 DUP2 ADD SLOAD SWAP2 DUP4 ADD SWAP2 SWAP1 SWAP2 MSTORE PUSH1 0x3 DUP2 ADD SLOAD PUSH1 0x60 DUP4 ADD MSTORE PUSH1 0x4 DUP2 ADD SLOAD PUSH1 0xFF DUP1 DUP3 AND ISZERO ISZERO PUSH1 0x80 DUP6 ADD MSTORE PUSH2 0x100 DUP1 DUP4 DIV DUP3 AND ISZERO ISZERO PUSH1 0xA0 DUP7 ADD MSTORE PUSH3 0x10000 SWAP1 SWAP3 DIV AND ISZERO ISZERO PUSH1 0xC0 DUP5 ADD MSTORE PUSH1 0x5 DUP3 ADD SLOAD PUSH1 0xE0 DUP5 ADD MSTORE PUSH1 0x6 DUP3 ADD SLOAD SWAP1 DUP4 ADD MSTORE PUSH1 0x7 DUP2 ADD SLOAD PUSH2 0x120 DUP4 ADD MSTORE PUSH1 0x8 DUP2 ADD SLOAD PUSH2 0x140 DUP4 ADD MSTORE PUSH1 0x9 DUP2 ADD DUP1 SLOAD PUSH2 0x160 DUP5 ADD SWAP2 SWAP1 PUSH2 0x6777 SWAP1 PUSH2 0xB4AC JUMP JUMPDEST DUP1 PUSH1 0x1F ADD PUSH1 0x20 DUP1 SWAP2 DIV MUL PUSH1 0x20 ADD PUSH1 0x40 MLOAD SWAP1 DUP2 ADD PUSH1 0x40 MSTORE DUP1 SWAP3 SWAP2 SWAP1 DUP2 DUP2 MSTORE PUSH1 0x20 ADD DUP3 DUP1 SLOAD PUSH2 0x67A3 SWAP1 PUSH2 0xB4AC JUMP JUMPDEST DUP1 ISZERO PUSH2 0x67F0 JUMPI DUP1 PUSH1 0x1F LT PUSH2 0x67C5 JUMPI PUSH2 0x100 DUP1 DUP4 SLOAD DIV MUL DUP4 MSTORE SWAP2 PUSH1 0x20 ADD SWAP2 PUSH2 0x67F0 JUMP JUMPDEST DUP3 ADD SWAP2 SWAP1 PUSH1 0x0 MSTORE PUSH1 0x20 PUSH1 0x0 KECCAK256 SWAP1 JUMPDEST DUP2 SLOAD DUP2 MSTORE SWAP1 PUSH1 0x1 ADD SWAP1 PUSH1 0x20 ADD DUP1 DUP4 GT PUSH2 0x67D3 JUMPI DUP3 SWAP1 SUB PUSH1 0x1F AND DUP3 ADD SWAP2 JUMPDEST POP POP POP SWAP2 DUP4 MSTORE POP POP PUSH1 0xA DUP3 ADD SLOAD PUSH1 0x20 DUP3 ADD MSTORE PUSH1 0xB DUP3 ADD SLOAD PUSH1 0x40 SWAP1 SWAP2 ADD SWAP1 PUSH1 0xFF AND PUSH1 0x3 DUP2 GT ISZERO PUSH2 0x682F JUMPI PUSH4 0x4E487B71 PUSH1 0xE0 SHL PUSH1 0x0 MSTORE PUSH1 0x21 PUSH1 0x4 MSTORE PUSH1 0x24 PUSH1 0x0 REVERT JUMPDEST PUSH1 0x3 DUP2 GT ISZERO PUSH2 0x684E JUMPI PUSH4 0x4E487B71 PUSH1 0xE0 SHL PUSH1 0x0 MSTORE PUSH1 0x21 PUSH1 0x4 MSTORE PUSH1 0x24 PUSH1 0x0 REVERT JUMPDEST SWAP1 MSTORE POP SWAP1 POP PUSH1 0x0 JUMPDEST DUP2 PUSH1 0x20 ADD MLOAD DUP2 LT ISZERO PUSH2 0x6951 JUMPI DUP2 MLOAD PUSH1 0x0 SWAP1 PUSH2 0x6872 SWAP1 DUP4 SWAP1 PUSH2 0xB41E JUMP JUMPDEST PUSH1 0x0 DUP2 DUP2 MSTORE PUSH1 0x13 PUSH1 0x20 MSTORE PUSH1 0x40 DUP2 KECCAK256 DUP1 SLOAD SWAP3 SWAP4 POP SWAP1 SWAP2 PUSH2 0x6890 SWAP1 PUSH2 0xB4AC JUMP JUMPDEST DUP1 PUSH1 0x1F ADD PUSH1 0x20 DUP1 SWAP2 DIV MUL PUSH1 0x20 ADD PUSH1 0x40 MLOAD SWAP1 DUP2 ADD PUSH1 0x40 MSTORE DUP1 SWAP3 SWAP2 SWAP1 DUP2 DUP2 MSTORE PUSH1 0x20 ADD DUP3 DUP1 SLOAD PUSH2 0x68BC SWAP1 PUSH2 0xB4AC JUMP JUMPDEST DUP1 ISZERO PUSH2 0x6909 JUMPI DUP1 PUSH1 0x1F LT PUSH2 0x68DE JUMPI PUSH2 0x100 DUP1 DUP4 SLOAD DIV MUL DUP4 MSTORE SWAP2 PUSH1 0x20 ADD SWAP2 PUSH2 0x6909 JUMP JUMPDEST DUP3 ADD SWAP2 SWAP1 PUSH1 0x0 MSTORE PUSH1 0x20 PUSH1 0x0 KECCAK256 SWAP1 JUMPDEST DUP2 SLOAD DUP2 MSTORE SWAP1 PUSH1 0x1 ADD SWAP1 PUSH1 0x20 ADD DUP1 DUP4 GT PUSH2 0x68EC JUMPI DUP3 SWAP1 SUB PUSH1 0x1F AND DUP3 ADD SWAP2 JUMPDEST POP POP POP POP POP SWAP1 POP DUP1 DUP7 DUP5 DUP2 MLOAD DUP2 LT PUSH2 0x6931 JUMPI PUSH4 0x4E487B71 PUSH1 0xE0 SHL PUSH1 0x0 MSTORE PUSH1 0x32 PUSH1 0x4 MSTORE PUSH1 0x24 PUSH1 0x0 REVERT JUMPDEST PUSH1 0x20 MUL PUSH1 0x20 ADD ADD DUP2 SWAP1 MSTORE POP POP POP DUP1 DUP1 PUSH2 0x6949 SWAP1 PUSH2 0xB4E7 JUMP JUMPDEST SWAP2 POP POP PUSH2 0x6856 JUMP JUMPDEST POP POP DUP1 DUP1 PUSH2 0x695E SWAP1 PUSH2 0xB4E7 JUMP JUMPDEST SWAP2 POP POP PUSH2 0x66B7 JUMP JUMPDEST PUSH1 0x29 SLOAD PUSH1 0x1 PUSH1 0x1 PUSH1 0xA0 SHL SUB AND DUP2 JUMP JUMPDEST PUSH2 0x697D PUSH2 0x955B JUMP JUMPDEST PUSH1 0x1 PUSH1 0x1 PUSH1 0xA0 SHL SUB AND PUSH2 0x698E PUSH2 0x36E6 JUMP JUMPDEST PUSH1 0x1 PUSH1 0x1 PUSH1 0xA0 SHL SUB AND EQ PUSH2 0x284E JUMPI PUSH1 0x40 MLOAD PUSH3 0x461BCD PUSH1 0xE5 SHL DUP2 MSTORE PUSH1 0x4 ADD PUSH2 0xE9F SWAP1 PUSH2 0xA9ED JUMP JUMPDEST PUSH1 0x0 DUP1 DUP1 JUMPDEST PUSH1 0x1C SLOAD DUP2 LT ISZERO PUSH2 0x6A24 JUMPI DUP4 PUSH1 0x1 PUSH1 0x1 PUSH1 0xA0 SHL SUB AND PUSH1 0x1C DUP3 DUP2 SLOAD DUP2 LT PUSH2 0x69EE JUMPI PUSH4 0x4E487B71 PUSH1 0xE0 SHL PUSH1 0x0 MSTORE PUSH1 0x32 PUSH1 0x4 MSTORE PUSH1 0x24 PUSH1 0x0 REVERT JUMPDEST PUSH1 0x0 SWAP2 DUP3 MSTORE PUSH1 0x20 SWAP1 SWAP2 KECCAK256 ADD SLOAD PUSH1 0x1 PUSH1 0x1 PUSH1 0xA0 SHL SUB AND EQ ISZERO PUSH2 0x6A12 JUMPI PUSH1 0x1 SWAP2 POP PUSH2 0x6A24 JUMP JUMPDEST DUP1 PUSH2 0x6A1C DUP2 PUSH2 0xB4E7 JUMP JUMPDEST SWAP2 POP POP PUSH2 0x69B9 JUMP JUMPDEST POP SWAP3 SWAP2 POP POP JUMP JUMPDEST PUSH1 0x0 DUP1 PUSH1 0x0 JUMPDEST PUSH1 0x1A SLOAD DUP2 LT ISZERO PUSH2 0x6A9F JUMPI DUP4 PUSH1 0x1 PUSH1 0x1 PUSH1 0xA0 SHL SUB AND PUSH1 0x1A DUP3 DUP2 SLOAD DUP2 LT PUSH2 0x6A66 JUMPI PUSH4 0x4E487B71 PUSH1 0xE0 SHL PUSH1 0x0 MSTORE PUSH1 0x32 PUSH1 0x4 MSTORE PUSH1 0x24 PUSH1 0x0 REVERT JUMPDEST PUSH1 0x0 SWAP2 DUP3 MSTORE PUSH1 0x20 SWAP1 SWAP2 KECCAK256 ADD SLOAD PUSH1 0x1 PUSH1 0x1 PUSH1 0xA0 SHL SUB AND EQ ISZERO PUSH2 0x6A8D JUMPI PUSH1 0x1 SWAP2 POP DUP1 SWAP3 POP PUSH2 0x6A9F JUMP JUMPDEST DUP1 PUSH2 0x6A97 DUP2 PUSH2 0xB4E7 JUMP JUMPDEST SWAP2 POP POP PUSH2 0x6A31 JUMP JUMPDEST POP DUP1 ISZERO PUSH2 0x6B7E JUMPI PUSH1 0x1A DUP1 SLOAD PUSH2 0x6AB6 SWAP1 PUSH1 0x1 SWAP1 PUSH2 0xB469 JUMP JUMPDEST DUP2 SLOAD DUP2 LT PUSH2 0x6AD4 JUMPI PUSH4 0x4E487B71 PUSH1 0xE0 SHL PUSH1 0x0 MSTORE PUSH1 0x32 PUSH1 0x4 MSTORE PUSH1 0x24 PUSH1 0x0 REVERT JUMPDEST PUSH1 0x0 SWAP2 DUP3 MSTORE PUSH1 0x20 SWAP1 SWAP2 KECCAK256 ADD SLOAD PUSH1 0x1A DUP1 SLOAD PUSH1 0x1 PUSH1 0x1 PUSH1 0xA0 SHL SUB SWAP1 SWAP3 AND SWAP2 DUP5 SWAP1 DUP2 LT PUSH2 0x6B0E JUMPI PUSH4 0x4E487B71 PUSH1 0xE0 SHL PUSH1 0x0 MSTORE PUSH1 0x32 PUSH1 0x4 MSTORE PUSH1 0x24 PUSH1 0x0 REVERT JUMPDEST SWAP1 PUSH1 0x0 MSTORE PUSH1 0x20 PUSH1 0x0 KECCAK256 ADD PUSH1 0x0 PUSH2 0x100 EXP DUP2 SLOAD DUP2 PUSH1 0x1 PUSH1 0x1 PUSH1 0xA0 SHL SUB MUL NOT AND SWAP1 DUP4 PUSH1 0x1 PUSH1 0x1 PUSH1 0xA0 SHL SUB AND MUL OR SWAP1 SSTORE POP PUSH1 0x1A DUP1 SLOAD DUP1 PUSH2 0x6B5B JUMPI PUSH4 0x4E487B71 PUSH1 0xE0 SHL PUSH1 0x0 MSTORE PUSH1 0x31 PUSH1 0x4 MSTORE PUSH1 0x24 PUSH1 0x0 REVERT JUMPDEST PUSH1 0x0 DUP3 DUP2 MSTORE PUSH1 0x20 SWAP1 KECCAK256 DUP2 ADD PUSH1 0x0 NOT SWAP1 DUP2 ADD DUP1 SLOAD PUSH1 0x1 PUSH1 0x1 PUSH1 0xA0 SHL SUB NOT AND SWAP1 SSTORE ADD SWAP1 SSTORE JUMPDEST POP POP POP JUMP JUMPDEST PUSH1 0x0 DUP1 PUSH1 0x0 JUMPDEST PUSH1 0x1B SLOAD DUP2 LT ISZERO PUSH2 0x6BF7 JUMPI DUP4 PUSH1 0x1 PUSH1 0x1 PUSH1 0xA0 SHL SUB AND PUSH1 0x1B DUP3 DUP2 SLOAD DUP2 LT PUSH2 0x6BBE JUMPI PUSH4 0x4E487B71 PUSH1 0xE0 SHL PUSH1 0x0 MSTORE PUSH1 0x32 PUSH1 0x4 MSTORE PUSH1 0x24 PUSH1 0x0 REVERT JUMPDEST PUSH1 0x0 SWAP2 DUP3 MSTORE PUSH1 0x20 SWAP1 SWAP2 KECCAK256 ADD SLOAD PUSH1 0x1 PUSH1 0x1 PUSH1 0xA0 SHL SUB AND EQ ISZERO PUSH2 0x6BE5 JUMPI PUSH1 0x1 SWAP2 POP DUP1 SWAP3 POP PUSH2 0x6BF7 JUMP JUMPDEST DUP1 PUSH2 0x6BEF DUP2 PUSH2 0xB4E7 JUMP JUMPDEST SWAP2 POP POP PUSH2 0x6B89 JUMP JUMPDEST POP DUP1 ISZERO PUSH2 0x6B7E JUMPI PUSH1 0x1B DUP1 SLOAD PUSH2 0x6C0E SWAP1 PUSH1 0x1 SWAP1 PUSH2 0xB469 JUMP JUMPDEST DUP2 SLOAD DUP2 LT PUSH2 0x6C2C JUMPI PUSH4 0x4E487B71 PUSH1 0xE0 SHL PUSH1 0x0 MSTORE PUSH1 0x32 PUSH1 0x4 MSTORE PUSH1 0x24 PUSH1 0x0 REVERT JUMPDEST PUSH1 0x0 SWAP2 DUP3 MSTORE PUSH1 0x20 SWAP1 SWAP2 KECCAK256 ADD SLOAD PUSH1 0x1B DUP1 SLOAD PUSH1 0x1 PUSH1 0x1 PUSH1 0xA0 SHL SUB SWAP1 SWAP3 AND SWAP2 DUP5 SWAP1 DUP2 LT PUSH2 0x6C66 JUMPI PUSH4 0x4E487B71 PUSH1 0xE0 SHL PUSH1 0x0 MSTORE PUSH1 0x32 PUSH1 0x4 MSTORE PUSH1 0x24 PUSH1 0x0 REVERT JUMPDEST SWAP1 PUSH1 0x0 MSTORE PUSH1 0x20 PUSH1 0x0 KECCAK256 ADD PUSH1 0x0 PUSH2 0x100 EXP DUP2 SLOAD DUP2 PUSH1 0x1 PUSH1 0x1 PUSH1 0xA0 SHL SUB MUL NOT AND SWAP1 DUP4 PUSH1 0x1 PUSH1 0x1 PUSH1 0xA0 SHL SUB AND MUL OR SWAP1 SSTORE POP PUSH1 0x1B DUP1 SLOAD DUP1 PUSH2 0x6B5B JUMPI PUSH4 0x4E487B71 PUSH1 0xE0 SHL PUSH1 0x0 MSTORE PUSH1 0x31 PUSH1 0x4 MSTORE PUSH1 0x24 PUSH1 0x0 REVERT JUMPDEST PUSH1 0x29 SLOAD PUSH1 0x40 DUP1 MLOAD PUSH4 0x2ABE0D5F PUSH1 0xE1 SHL DUP2 MSTORE SWAP1 MLOAD PUSH1 0x0 SWAP3 PUSH1 0x1 PUSH1 0x1 PUSH1 0xA0 SHL SUB AND SWAP2 PUSH4 0x557C1ABE SWAP2 PUSH1 0x4 DUP1 DUP4 ADD SWAP3 PUSH1 0x20 SWAP3 SWAP2 SWAP1 DUP3 SWAP1 SUB ADD DUP2 DUP7 DUP1 EXTCODESIZE ISZERO DUP1 ISZERO PUSH2 0x6CF8 JUMPI PUSH1 0x0 DUP1 REVERT JUMPDEST POP GAS STATICCALL SWAP3 POP POP POP DUP1 ISZERO PUSH2 0x6D28 JUMPI POP PUSH1 0x40 DUP1 MLOAD PUSH1 0x1F RETURNDATASIZE SWAP1 DUP2 ADD PUSH1 0x1F NOT AND DUP3 ADD SWAP1 SWAP3 MSTORE PUSH2 0x6D25 SWAP2 DUP2 ADD SWAP1 PUSH2 0x99BA JUMP JUMPDEST PUSH1 0x1 JUMPDEST PUSH2 0x6D87 JUMPI RETURNDATASIZE DUP1 DUP1 ISZERO PUSH2 0x6D56 JUMPI PUSH1 0x40 MLOAD SWAP2 POP PUSH1 0x1F NOT PUSH1 0x3F RETURNDATASIZE ADD AND DUP3 ADD PUSH1 0x40 MSTORE RETURNDATASIZE DUP3 MSTORE RETURNDATASIZE PUSH1 0x0 PUSH1 0x20 DUP5 ADD RETURNDATACOPY PUSH2 0x6D5B JUMP JUMPDEST PUSH1 0x60 SWAP2 POP JUMPDEST POP PUSH1 0x0 DUP1 MLOAD PUSH1 0x20 PUSH2 0xB56E DUP4 CODECOPY DUP2 MLOAD SWAP2 MSTORE DUP2 PUSH1 0x40 MLOAD PUSH2 0x6D79 SWAP2 SWAP1 PUSH2 0x9FF3 JUMP JUMPDEST PUSH1 0x40 MLOAD DUP1 SWAP2 SUB SWAP1 LOG1 POP PUSH2 0x6D89 JUMP JUMPDEST POP JUMPDEST PUSH1 0x29 PUSH1 0x0 SWAP1 SLOAD SWAP1 PUSH2 0x100 EXP SWAP1 DIV PUSH1 0x1 PUSH1 0x1 PUSH1 0xA0 SHL SUB AND PUSH1 0x1 PUSH1 0x1 PUSH1 0xA0 SHL SUB AND PUSH4 0x557C1ABE PUSH1 0x40 MLOAD DUP2 PUSH4 0xFFFFFFFF AND PUSH1 0xE0 SHL DUP2 MSTORE PUSH1 0x4 ADD PUSH1 0x20 PUSH1 0x40 MLOAD DUP1 DUP4 SUB DUP2 DUP7 DUP1 EXTCODESIZE ISZERO DUP1 ISZERO PUSH2 0x6DD7 JUMPI PUSH1 0x0 DUP1 REVERT JUMPDEST POP GAS STATICCALL ISZERO DUP1 ISZERO PUSH2 0x6DEB JUMPI RETURNDATASIZE PUSH1 0x0 DUP1 RETURNDATACOPY RETURNDATASIZE PUSH1 0x0 REVERT JUMPDEST POP POP POP POP PUSH1 0x40 MLOAD RETURNDATASIZE PUSH1 0x1F NOT PUSH1 0x1F DUP3 ADD AND DUP3 ADD DUP1 PUSH1 0x40 MSTORE POP DUP2 ADD SWAP1 PUSH2 0x6E0F SWAP2 SWAP1 PUSH2 0x99BA JUMP JUMPDEST SWAP1 POP PUSH1 0x1 PUSH1 0x1 PUSH1 0xA0 SHL SUB DUP2 AND PUSH2 0x6E37 JUMPI PUSH1 0x40 MLOAD PUSH3 0x461BCD PUSH1 0xE5 SHL DUP2 MSTORE PUSH1 0x4 ADD PUSH2 0xE9F SWAP1 PUSH2 0xA574 JUMP JUMPDEST PUSH1 0x0 DUP2 PUSH1 0x1 PUSH1 0x1 PUSH1 0xA0 SHL SUB AND CALLER PUSH1 0x40 MLOAD PUSH1 0x24 ADD PUSH2 0x6E54 SWAP2 SWAP1 PUSH2 0x9EE8 JUMP JUMPDEST PUSH1 0x40 DUP1 MLOAD PUSH1 0x1F NOT DUP2 DUP5 SUB ADD DUP2 MSTORE SWAP2 DUP2 MSTORE PUSH1 0x20 DUP3 ADD DUP1 MLOAD PUSH1 0x1 PUSH1 0x1 PUSH1 0xE0 SHL SUB AND PUSH4 0x1F5AC9C5 PUSH1 0xE1 SHL OR SWAP1 MSTORE MLOAD PUSH2 0x6E89 SWAP2 SWAP1 PUSH2 0x9EBE JUMP JUMPDEST PUSH1 0x0 PUSH1 0x40 MLOAD DUP1 DUP4 SUB DUP2 PUSH1 0x0 DUP7 GAS CALL SWAP2 POP POP RETURNDATASIZE DUP1 PUSH1 0x0 DUP2 EQ PUSH2 0x6EC6 JUMPI PUSH1 0x40 MLOAD SWAP2 POP PUSH1 0x1F NOT PUSH1 0x3F RETURNDATASIZE ADD AND DUP3 ADD PUSH1 0x40 MSTORE RETURNDATASIZE DUP3 MSTORE RETURNDATASIZE PUSH1 0x0 PUSH1 0x20 DUP5 ADD RETURNDATACOPY PUSH2 0x6ECB JUMP JUMPDEST PUSH1 0x60 SWAP2 POP JUMPDEST POP POP SWAP1 POP PUSH1 0x0 DUP3 PUSH1 0x1 PUSH1 0x1 PUSH1 0xA0 SHL SUB AND CALLER PUSH1 0x40 MLOAD PUSH1 0x24 ADD PUSH2 0x6EEC SWAP2 SWAP1 PUSH2 0x9EE8 JUMP JUMPDEST PUSH1 0x40 DUP1 MLOAD PUSH1 0x1F NOT DUP2 DUP5 SUB ADD DUP2 MSTORE SWAP2 DUP2 MSTORE PUSH1 0x20 DUP3 ADD DUP1 MLOAD PUSH1 0x1 PUSH1 0x1 PUSH1 0xE0 SHL SUB AND PUSH4 0x58563D21 PUSH1 0xE0 SHL OR SWAP1 MSTORE MLOAD PUSH2 0x6F21 SWAP2 SWAP1 PUSH2 0x9EBE JUMP JUMPDEST PUSH1 0x0 PUSH1 0x40 MLOAD DUP1 DUP4 SUB DUP2 PUSH1 0x0 DUP7 GAS CALL SWAP2 POP POP RETURNDATASIZE DUP1 PUSH1 0x0 DUP2 EQ PUSH2 0x6F5E JUMPI PUSH1 0x40 MLOAD SWAP2 POP PUSH1 0x1F NOT PUSH1 0x3F RETURNDATASIZE ADD AND DUP3 ADD PUSH1 0x40 MSTORE RETURNDATASIZE DUP3 MSTORE RETURNDATASIZE PUSH1 0x0 PUSH1 0x20 DUP5 ADD RETURNDATACOPY PUSH2 0x6F63 JUMP JUMPDEST PUSH1 0x60 SWAP2 POP JUMPDEST POP POP SWAP1 POP DUP2 DUP1 PUSH2 0x6F70 JUMPI POP DUP1 JUMPDEST PUSH2 0x6B7E JUMPI PUSH1 0x40 MLOAD PUSH3 0x461BCD PUSH1 0xE5 SHL DUP2 MSTORE PUSH1 0x4 ADD PUSH2 0xE9F SWAP1 PUSH2 0xA1FA JUMP JUMPDEST PUSH1 0x0 DUP1 SLOAD PUSH1 0x1 PUSH1 0x1 PUSH1 0xA0 SHL SUB DUP4 DUP2 AND PUSH1 0x1 PUSH1 0x1 PUSH1 0xA0 SHL SUB NOT DUP4 AND DUP2 OR DUP5 SSTORE PUSH1 0x40 MLOAD SWAP2 SWAP1 SWAP3 AND SWAP3 DUP4 SWAP2 PUSH32 0x8BE0079C531659141344CD1FD0A4F28419497F9722A3DAAFE3B4186F6B6457E0 SWAP2 SWAP1 LOG3 POP POP JUMP JUMPDEST PUSH1 0x0 PUSH2 0x1069 DUP3 DUP5 PUSH2 0xB469 JUMP JUMPDEST PUSH1 0x29 SLOAD PUSH1 0x40 DUP1 MLOAD PUSH4 0xCA64F9E7 PUSH1 0xE0 SHL DUP2 MSTORE SWAP1 MLOAD PUSH1 0x0 SWAP3 PUSH1 0x1 PUSH1 0x1 PUSH1 0xA0 SHL SUB AND SWAP2 PUSH4 0xCA64F9E7 SWAP2 PUSH1 0x4 DUP1 DUP4 ADD SWAP3 PUSH1 0x20 SWAP3 SWAP2 SWAP1 DUP3 SWAP1 SUB ADD DUP2 DUP7 DUP1 EXTCODESIZE ISZERO DUP1 ISZERO PUSH2 0x702D JUMPI PUSH1 0x0 DUP1 REVERT JUMPDEST POP GAS STATICCALL ISZERO DUP1 ISZERO PUSH2 0x7041 JUMPI RETURNDATASIZE PUSH1 0x0 DUP1 RETURNDATACOPY RETURNDATASIZE PUSH1 0x0 REVERT JUMPDEST POP POP POP POP PUSH1 0x40 MLOAD RETURNDATASIZE PUSH1 0x1F NOT PUSH1 0x1F DUP3 ADD AND DUP3 ADD DUP1 PUSH1 0x40 MSTORE POP DUP2 ADD SWAP1 PUSH2 0x7065 SWAP2 SWAP1 PUSH2 0x99BA JUMP JUMPDEST PUSH1 0x1 PUSH1 0x1 PUSH1 0xA0 SHL SUB AND EQ ISZERO PUSH2 0x708C JUMPI PUSH1 0x40 MLOAD PUSH3 0x461BCD PUSH1 0xE5 SHL DUP2 MSTORE PUSH1 0x4 ADD PUSH2 0xE9F SWAP1 PUSH2 0xAB16 JUMP JUMPDEST PUSH1 0x29 SLOAD PUSH1 0x40 DUP1 MLOAD PUSH4 0xCA64F9E7 PUSH1 0xE0 SHL DUP2 MSTORE SWAP1 MLOAD PUSH1 0x0 SWAP3 PUSH1 0x1 PUSH1 0x1 PUSH1 0xA0 SHL SUB AND SWAP2 PUSH4 0xCA64F9E7 SWAP2 PUSH1 0x4 DUP1 DUP4 ADD SWAP3 PUSH1 0x20 SWAP3 SWAP2 SWAP1 DUP3 SWAP1 SUB ADD DUP2 DUP7 DUP1 EXTCODESIZE ISZERO DUP1 ISZERO PUSH2 0x70D1 JUMPI PUSH1 0x0 DUP1 REVERT JUMPDEST POP GAS STATICCALL ISZERO DUP1 ISZERO PUSH2 0x70E5 JUMPI RETURNDATASIZE PUSH1 0x0 DUP1 RETURNDATACOPY RETURNDATASIZE PUSH1 0x0 REVERT JUMPDEST POP POP POP POP PUSH1 0x40 MLOAD RETURNDATASIZE PUSH1 0x1F NOT PUSH1 0x1F DUP3 ADD AND DUP3 ADD DUP1 PUSH1 0x40 MSTORE POP DUP2 ADD SWAP1 PUSH2 0x7109 SWAP2 SWAP1 PUSH2 0x99BA JUMP JUMPDEST PUSH1 0x40 MLOAD PUSH4 0x4ADA21F PUSH1 0xE2 SHL DUP2 MSTORE SWAP1 SWAP2 POP PUSH1 0x1 PUSH1 0x1 PUSH1 0xA0 SHL SUB DUP3 AND SWAP1 PUSH4 0x12B6887C SWAP1 PUSH2 0x713A SWAP1 DUP7 SWAP1 DUP7 SWAP1 PUSH1 0x4 ADD PUSH2 0xB2A7 JUMP JUMPDEST PUSH1 0x20 PUSH1 0x40 MLOAD DUP1 DUP4 SUB DUP2 PUSH1 0x0 DUP8 DUP1 EXTCODESIZE ISZERO DUP1 ISZERO PUSH2 0x7154 JUMPI PUSH1 0x0 DUP1 REVERT JUMPDEST POP GAS CALL ISZERO DUP1 ISZERO PUSH2 0x7168 JUMPI RETURNDATASIZE PUSH1 0x0 DUP1 RETURNDATACOPY RETURNDATASIZE PUSH1 0x0 REVERT JUMPDEST POP POP POP POP PUSH1 0x40 MLOAD RETURNDATASIZE PUSH1 0x1F NOT PUSH1 0x1F DUP3 ADD AND DUP3 ADD DUP1 PUSH1 0x40 MSTORE POP DUP2 ADD SWAP1 PUSH2 0x718C SWAP2 SWAP1 PUSH2 0x9BAB JUMP JUMPDEST PUSH2 0x71A8 JUMPI PUSH1 0x40 MLOAD PUSH3 0x461BCD PUSH1 0xE5 SHL DUP2 MSTORE PUSH1 0x4 ADD PUSH2 0xE9F SWAP1 PUSH2 0xA5F0 JUMP JUMPDEST PUSH1 0x1 PUSH1 0x1 PUSH1 0xA0 SHL SUB DUP3 AND PUSH1 0x0 SWAP1 DUP2 MSTORE PUSH1 0x17 PUSH1 0x20 MSTORE PUSH1 0x40 DUP2 KECCAK256 DUP1 SLOAD DUP6 SWAP3 SWAP1 PUSH2 0x71D0 SWAP1 DUP5 SWAP1 PUSH2 0xB41E JUMP JUMPDEST SWAP3 POP POP DUP2 SWAP1 SSTORE POP DUP2 PUSH1 0x1 PUSH1 0x1 PUSH1 0xA0 SHL SUB AND PUSH32 0x5AA5D56140767016C877A5333AC3E1AD31A09051098A8FDF7297C4B64530A942 DUP5 PUSH1 0x40 MLOAD PUSH2 0x5BCB SWAP2 SWAP1 PUSH2 0x9EB5 JUMP JUMPDEST PUSH1 0x0 DUP1 DUP1 JUMPDEST PUSH1 0x1A SLOAD DUP2 LT ISZERO PUSH2 0x6A24 JUMPI DUP4 PUSH1 0x1 PUSH1 0x1 PUSH1 0xA0 SHL SUB AND PUSH1 0x1A DUP3 DUP2 SLOAD DUP2 LT PUSH2 0x724A JUMPI PUSH4 0x4E487B71 PUSH1 0xE0 SHL PUSH1 0x0 MSTORE PUSH1 0x32 PUSH1 0x4 MSTORE PUSH1 0x24 PUSH1 0x0 REVERT JUMPDEST PUSH1 0x0 SWAP2 DUP3 MSTORE PUSH1 0x20 SWAP1 SWAP2 KECCAK256 ADD SLOAD PUSH1 0x1 PUSH1 0x1 PUSH1 0xA0 SHL SUB AND EQ ISZERO PUSH2 0x726E JUMPI PUSH1 0x1 SWAP2 POP PUSH2 0x6A24 JUMP JUMPDEST DUP1 PUSH2 0x7278 DUP2 PUSH2 0xB4E7 JUMP JUMPDEST SWAP2 POP POP PUSH2 0x7215 JUMP JUMPDEST PUSH1 0x29 SLOAD PUSH1 0x40 DUP1 MLOAD PUSH4 0x2A497981 PUSH1 0xE1 SHL DUP2 MSTORE SWAP1 MLOAD PUSH1 0x0 SWAP3 PUSH1 0x1 PUSH1 0x1 PUSH1 0xA0 SHL SUB AND SWAP2 PUSH4 0x5492F302 SWAP2 PUSH1 0x4 DUP1 DUP4 ADD SWAP3 PUSH1 0x20 SWAP3 SWAP2 SWAP1 DUP3 SWAP1 SUB ADD DUP2 DUP7 DUP1 EXTCODESIZE ISZERO DUP1 ISZERO PUSH2 0x72C5 JUMPI PUSH1 0x0 DUP1 REVERT JUMPDEST POP GAS STATICCALL ISZERO DUP1 ISZERO PUSH2 0x72D9 JUMPI RETURNDATASIZE PUSH1 0x0 DUP1 RETURNDATACOPY RETURNDATASIZE PUSH1 0x0 REVERT JUMPDEST POP POP POP POP PUSH1 0x40 MLOAD RETURNDATASIZE PUSH1 0x1F NOT PUSH1 0x1F DUP3 ADD AND DUP3 ADD DUP1 PUSH1 0x40 MSTORE POP DUP2 ADD SWAP1 PUSH2 0x72FD SWAP2 SWAP1 PUSH2 0x99BA JUMP JUMPDEST PUSH1 0x1 PUSH1 0x1 PUSH1 0xA0 SHL SUB AND EQ ISZERO PUSH2 0x7324 JUMPI PUSH1 0x40 MLOAD PUSH3 0x461BCD PUSH1 0xE5 SHL DUP2 MSTORE PUSH1 0x4 ADD PUSH2 0xE9F SWAP1 PUSH2 0xAF48 JUMP JUMPDEST PUSH1 0x29 SLOAD PUSH1 0x40 DUP1 MLOAD PUSH4 0x855D151 PUSH1 0xE0 SHL DUP2 MSTORE SWAP1 MLOAD PUSH1 0x0 SWAP3 PUSH1 0x1 PUSH1 0x1 PUSH1 0xA0 SHL SUB AND SWAP2 PUSH4 0x855D151 SWAP2 PUSH1 0x4 DUP1 DUP4 ADD SWAP3 PUSH1 0x20 SWAP3 SWAP2 SWAP1 DUP3 SWAP1 SUB ADD DUP2 DUP7 DUP1 EXTCODESIZE ISZERO DUP1 ISZERO PUSH2 0x7369 JUMPI PUSH1 0x0 DUP1 REVERT JUMPDEST POP GAS STATICCALL ISZERO DUP1 ISZERO PUSH2 0x737D JUMPI RETURNDATASIZE PUSH1 0x0 DUP1 RETURNDATACOPY RETURNDATASIZE PUSH1 0x0 REVERT JUMPDEST POP POP POP POP PUSH1 0x40 MLOAD RETURNDATASIZE PUSH1 0x1F NOT PUSH1 0x1F DUP3 ADD AND DUP3 ADD DUP1 PUSH1 0x40 MSTORE POP DUP2 ADD SWAP1 PUSH2 0x73A1 SWAP2 SWAP1 PUSH2 0x99BA JUMP JUMPDEST PUSH1 0x1 PUSH1 0x1 PUSH1 0xA0 SHL SUB AND EQ ISZERO PUSH2 0x73C8 JUMPI PUSH1 0x40 MLOAD PUSH3 0x461BCD PUSH1 0xE5 SHL DUP2 MSTORE PUSH1 0x4 ADD PUSH2 0xE9F SWAP1 PUSH2 0xAC84 JUMP JUMPDEST PUSH1 0x29 SLOAD PUSH1 0x40 DUP1 MLOAD PUSH4 0x4E76C8F PUSH1 0xE0 SHL DUP2 MSTORE SWAP1 MLOAD PUSH1 0x0 SWAP3 PUSH1 0x1 PUSH1 0x1 PUSH1 0xA0 SHL SUB AND SWAP2 PUSH4 0x4E76C8F SWAP2 PUSH1 0x4 DUP1 DUP4 ADD SWAP3 PUSH1 0x20 SWAP3 SWAP2 SWAP1 DUP3 SWAP1 SUB ADD DUP2 DUP7 DUP1 EXTCODESIZE ISZERO DUP1 ISZERO PUSH2 0x740D JUMPI PUSH1 0x0 DUP1 REVERT JUMPDEST POP GAS STATICCALL ISZERO DUP1 ISZERO PUSH2 0x7421 JUMPI RETURNDATASIZE PUSH1 0x0 DUP1 RETURNDATACOPY RETURNDATASIZE PUSH1 0x0 REVERT JUMPDEST POP POP POP POP PUSH1 0x40 MLOAD RETURNDATASIZE PUSH1 0x1F NOT PUSH1 0x1F DUP3 ADD AND DUP3 ADD DUP1 PUSH1 0x40 MSTORE POP DUP2 ADD SWAP1 PUSH2 0x7445 SWAP2 SWAP1 PUSH2 0x99BA JUMP JUMPDEST PUSH1 0x1 PUSH1 0x1 PUSH1 0xA0 SHL SUB AND EQ ISZERO PUSH2 0x746C JUMPI PUSH1 0x40 MLOAD PUSH3 0x461BCD PUSH1 0xE5 SHL DUP2 MSTORE PUSH1 0x4 ADD PUSH2 0xE9F SWAP1 PUSH2 0xA45B JUMP JUMPDEST PUSH2 0x7475 DUP2 PUSH2 0x15CF JUMP JUMPDEST DUP1 PUSH2 0x748F JUMPI POP PUSH1 0x0 DUP2 DUP2 MSTORE PUSH1 0x14 PUSH1 0x20 MSTORE PUSH1 0x40 SWAP1 KECCAK256 PUSH1 0x3 ADD SLOAD ISZERO JUMPDEST PUSH2 0x74AB JUMPI PUSH1 0x40 MLOAD PUSH3 0x461BCD PUSH1 0xE5 SHL DUP2 MSTORE PUSH1 0x4 ADD PUSH2 0xE9F SWAP1 PUSH2 0xAA72 JUMP JUMPDEST PUSH1 0x0 DUP2 DUP2 MSTORE PUSH1 0x14 PUSH1 0x20 MSTORE PUSH1 0x40 SWAP1 KECCAK256 PUSH1 0x4 ADD SLOAD PUSH2 0x100 SWAP1 DIV PUSH1 0xFF AND ISZERO PUSH2 0x74E2 JUMPI PUSH1 0x40 MLOAD PUSH3 0x461BCD PUSH1 0xE5 SHL DUP2 MSTORE PUSH1 0x4 ADD PUSH2 0xE9F SWAP1 PUSH2 0xACF0 JUMP JUMPDEST PUSH1 0x0 DUP2 DUP2 MSTORE PUSH1 0x19 PUSH1 0x20 SWAP1 DUP2 MSTORE PUSH1 0x40 DUP1 DUP4 KECCAK256 DUP1 SLOAD DUP3 MLOAD DUP2 DUP6 MUL DUP2 ADD DUP6 ADD SWAP1 SWAP4 MSTORE DUP1 DUP4 MSTORE SWAP2 SWAP3 SWAP1 SWAP2 SWAP1 DUP4 ADD DUP3 DUP3 DUP1 ISZERO PUSH2 0x7542 JUMPI PUSH1 0x20 MUL DUP3 ADD SWAP2 SWAP1 PUSH1 0x0 MSTORE PUSH1 0x20 PUSH1 0x0 KECCAK256 SWAP1 JUMPDEST DUP2 SLOAD PUSH1 0x1 PUSH1 0x1 PUSH1 0xA0 SHL SUB AND DUP2 MSTORE PUSH1 0x1 SWAP1 SWAP2 ADD SWAP1 PUSH1 0x20 ADD DUP1 DUP4 GT PUSH2 0x7524 JUMPI JUMPDEST POP POP POP POP POP SWAP1 POP PUSH1 0x0 DUP2 MLOAD PUSH1 0x1 PUSH1 0x1 PUSH1 0x40 SHL SUB DUP2 GT ISZERO PUSH2 0x7572 JUMPI PUSH4 0x4E487B71 PUSH1 0xE0 SHL PUSH1 0x0 MSTORE PUSH1 0x41 PUSH1 0x4 MSTORE PUSH1 0x24 PUSH1 0x0 REVERT JUMPDEST PUSH1 0x40 MLOAD SWAP1 DUP1 DUP3 MSTORE DUP1 PUSH1 0x20 MUL PUSH1 0x20 ADD DUP3 ADD PUSH1 0x40 MSTORE DUP1 ISZERO PUSH2 0x75A5 JUMPI DUP2 PUSH1 0x20 ADD JUMPDEST PUSH1 0x60 DUP2 MSTORE PUSH1 0x20 ADD SWAP1 PUSH1 0x1 SWAP1 SUB SWAP1 DUP2 PUSH2 0x7590 JUMPI SWAP1 POP JUMPDEST POP SWAP1 POP PUSH1 0x0 DUP3 MLOAD PUSH1 0x1 PUSH1 0x1 PUSH1 0x40 SHL SUB DUP2 GT ISZERO PUSH2 0x75D1 JUMPI PUSH4 0x4E487B71 PUSH1 0xE0 SHL PUSH1 0x0 MSTORE PUSH1 0x41 PUSH1 0x4 MSTORE PUSH1 0x24 PUSH1 0x0 REVERT JUMPDEST PUSH1 0x40 MLOAD SWAP1 DUP1 DUP3 MSTORE DUP1 PUSH1 0x20 MUL PUSH1 0x20 ADD DUP3 ADD PUSH1 0x40 MSTORE DUP1 ISZERO PUSH2 0x75FA JUMPI DUP2 PUSH1 0x20 ADD PUSH1 0x20 DUP3 MUL DUP1 CALLDATASIZE DUP4 CALLDATACOPY ADD SWAP1 POP JUMPDEST POP SWAP1 POP PUSH1 0x0 JUMPDEST DUP4 MLOAD DUP2 LT ISZERO PUSH2 0x777D JUMPI PUSH1 0x0 DUP5 DUP3 DUP2 MLOAD DUP2 LT PUSH2 0x762B JUMPI PUSH4 0x4E487B71 PUSH1 0xE0 SHL PUSH1 0x0 MSTORE PUSH1 0x32 PUSH1 0x4 MSTORE PUSH1 0x24 PUSH1 0x0 REVERT JUMPDEST PUSH1 0x20 SWAP1 DUP2 MUL SWAP2 SWAP1 SWAP2 ADD DUP2 ADD MLOAD PUSH1 0x0 DUP9 DUP2 MSTORE PUSH1 0xD DUP4 MSTORE PUSH1 0x40 DUP1 DUP3 KECCAK256 PUSH1 0x1 PUSH1 0x1 PUSH1 0xA0 SHL SUB DUP5 AND DUP4 MSTORE SWAP1 SWAP4 MSTORE SWAP2 DUP3 KECCAK256 DUP1 SLOAD SWAP2 SWAP4 POP SWAP1 PUSH2 0x7666 SWAP1 PUSH2 0xB4AC JUMP JUMPDEST DUP1 PUSH1 0x1F ADD PUSH1 0x20 DUP1 SWAP2 DIV MUL PUSH1 0x20 ADD PUSH1 0x40 MLOAD SWAP1 DUP2 ADD PUSH1 0x40 MSTORE DUP1 SWAP3 SWAP2 SWAP1 DUP2 DUP2 MSTORE PUSH1 0x20 ADD DUP3 DUP1 SLOAD PUSH2 0x7692 SWAP1 PUSH2 0xB4AC JUMP JUMPDEST DUP1 ISZERO PUSH2 0x76DF JUMPI DUP1 PUSH1 0x1F LT PUSH2 0x76B4 JUMPI PUSH2 0x100 DUP1 DUP4 SLOAD DIV MUL DUP4 MSTORE SWAP2 PUSH1 0x20 ADD SWAP2 PUSH2 0x76DF JUMP JUMPDEST DUP3 ADD SWAP2 SWAP1 PUSH1 0x0 MSTORE PUSH1 0x20 PUSH1 0x0 KECCAK256 SWAP1 JUMPDEST DUP2 SLOAD DUP2 MSTORE SWAP1 PUSH1 0x1 ADD SWAP1 PUSH1 0x20 ADD DUP1 DUP4 GT PUSH2 0x76C2 JUMPI DUP3 SWAP1 SUB PUSH1 0x1F AND DUP3 ADD SWAP2 JUMPDEST POP POP POP PUSH1 0x0 DUP11 DUP2 MSTORE PUSH1 0xE PUSH1 0x20 SWAP1 DUP2 MSTORE PUSH1 0x40 DUP1 DUP4 KECCAK256 PUSH1 0x1 PUSH1 0x1 PUSH1 0xA0 SHL SUB DUP10 AND DUP5 MSTORE SWAP1 SWAP2 MSTORE SWAP1 KECCAK256 SLOAD DUP9 MLOAD SWAP4 SWAP5 POP SWAP3 DUP5 SWAP3 POP DUP9 SWAP2 POP DUP7 SWAP1 DUP2 LT PUSH2 0x772F JUMPI PUSH4 0x4E487B71 PUSH1 0xE0 SHL PUSH1 0x0 MSTORE PUSH1 0x32 PUSH1 0x4 MSTORE PUSH1 0x24 PUSH1 0x0 REVERT JUMPDEST PUSH1 0x20 MUL PUSH1 0x20 ADD ADD DUP2 SWAP1 MSTORE POP DUP1 DUP6 DUP6 DUP2 MLOAD DUP2 LT PUSH2 0x775B JUMPI PUSH4 0x4E487B71 PUSH1 0xE0 SHL PUSH1 0x0 MSTORE PUSH1 0x32 PUSH1 0x4 MSTORE PUSH1 0x24 PUSH1 0x0 REVERT JUMPDEST PUSH1 0x20 MUL PUSH1 0x20 ADD ADD DUP2 DUP2 MSTORE POP POP POP POP POP DUP1 DUP1 PUSH2 0x7775 SWAP1 PUSH2 0xB4E7 JUMP JUMPDEST SWAP2 POP POP PUSH2 0x7600 JUMP JUMPDEST POP PUSH1 0x0 PUSH2 0x7828 PUSH1 0x64 PUSH1 0x29 PUSH1 0x0 SWAP1 SLOAD SWAP1 PUSH2 0x100 EXP SWAP1 DIV PUSH1 0x1 PUSH1 0x1 PUSH1 0xA0 SHL SUB AND PUSH1 0x1 PUSH1 0x1 PUSH1 0xA0 SHL SUB AND PUSH4 0xEA19733C PUSH1 0x40 MLOAD DUP2 PUSH4 0xFFFFFFFF AND PUSH1 0xE0 SHL DUP2 MSTORE PUSH1 0x4 ADD PUSH1 0x20 PUSH1 0x40 MLOAD DUP1 DUP4 SUB DUP2 DUP7 DUP1 EXTCODESIZE ISZERO DUP1 ISZERO PUSH2 0x77D3 JUMPI PUSH1 0x0 DUP1 REVERT JUMPDEST POP GAS STATICCALL ISZERO DUP1 ISZERO PUSH2 0x77E7 JUMPI RETURNDATASIZE PUSH1 0x0 DUP1 RETURNDATACOPY RETURNDATASIZE PUSH1 0x0 REVERT JUMPDEST POP POP POP POP PUSH1 0x40 MLOAD RETURNDATASIZE PUSH1 0x1F NOT PUSH1 0x1F DUP3 ADD AND DUP3 ADD DUP1 PUSH1 0x40 MSTORE POP DUP2 ADD SWAP1 PUSH2 0x780B SWAP2 SWAP1 PUSH2 0x9C85 JUMP JUMPDEST DUP7 MLOAD PUSH2 0x7817 SWAP2 SWAP1 PUSH2 0xB44A JUMP JUMPDEST PUSH2 0x7821 SWAP2 SWAP1 PUSH2 0xB436 JUMP JUMPDEST PUSH1 0x1 PUSH2 0x955F JUMP JUMPDEST PUSH1 0x40 DUP1 MLOAD PUSH1 0x20 DUP2 ADD SWAP1 SWAP2 MSTORE PUSH1 0x0 DUP1 DUP3 MSTORE SWAP2 SWAP3 POP SWAP1 JUMPDEST DUP5 MLOAD DUP2 LT ISZERO PUSH2 0x7926 JUMPI PUSH1 0x0 DUP1 JUMPDEST DUP7 MLOAD DUP2 LT ISZERO PUSH2 0x78DB JUMPI PUSH2 0x78AB DUP8 DUP5 DUP2 MLOAD DUP2 LT PUSH2 0x7876 JUMPI PUSH4 0x4E487B71 PUSH1 0xE0 SHL PUSH1 0x0 MSTORE PUSH1 0x32 PUSH1 0x4 MSTORE PUSH1 0x24 PUSH1 0x0 REVERT JUMPDEST PUSH1 0x20 MUL PUSH1 0x20 ADD ADD MLOAD DUP9 DUP4 DUP2 MLOAD DUP2 LT PUSH2 0x789E JUMPI PUSH4 0x4E487B71 PUSH1 0xE0 SHL PUSH1 0x0 MSTORE PUSH1 0x32 PUSH1 0x4 MSTORE PUSH1 0x24 PUSH1 0x0 REVERT JUMPDEST PUSH1 0x20 MUL PUSH1 0x20 ADD ADD MLOAD PUSH2 0x3A42 JUMP JUMPDEST ISZERO PUSH2 0x78C9 JUMPI PUSH2 0x78BB PUSH1 0x1 DUP4 PUSH2 0xB41E JUMP JUMPDEST SWAP2 POP DUP5 DUP3 LT PUSH2 0x78C9 JUMPI PUSH2 0x78DB JUMP JUMPDEST DUP1 PUSH2 0x78D3 DUP2 PUSH2 0xB4E7 JUMP JUMPDEST SWAP2 POP POP PUSH2 0x784A JUMP JUMPDEST POP DUP4 DUP2 LT PUSH2 0x7913 JUMPI DUP6 DUP3 DUP2 MLOAD DUP2 LT PUSH2 0x7903 JUMPI PUSH4 0x4E487B71 PUSH1 0xE0 SHL PUSH1 0x0 MSTORE PUSH1 0x32 PUSH1 0x4 MSTORE PUSH1 0x24 PUSH1 0x0 REVERT JUMPDEST PUSH1 0x20 MUL PUSH1 0x20 ADD ADD MLOAD SWAP3 POP POP PUSH2 0x7926 JUMP JUMPDEST POP DUP1 PUSH2 0x791E DUP2 PUSH2 0xB4E7 JUMP JUMPDEST SWAP2 POP POP PUSH2 0x783D JUMP JUMPDEST POP PUSH1 0x0 DUP1 JUMPDEST DUP5 MLOAD DUP2 LT ISZERO PUSH2 0x7A0D JUMPI PUSH1 0x0 DUP1 JUMPDEST DUP7 MLOAD DUP2 LT ISZERO PUSH2 0x79C2 JUMPI DUP7 DUP2 DUP2 MLOAD DUP2 LT PUSH2 0x7961 JUMPI PUSH4 0x4E487B71 PUSH1 0xE0 SHL PUSH1 0x0 MSTORE PUSH1 0x32 PUSH1 0x4 MSTORE PUSH1 0x24 PUSH1 0x0 REVERT JUMPDEST PUSH1 0x20 MUL PUSH1 0x20 ADD ADD MLOAD DUP8 DUP5 DUP2 MLOAD DUP2 LT PUSH2 0x7989 JUMPI PUSH4 0x4E487B71 PUSH1 0xE0 SHL PUSH1 0x0 MSTORE PUSH1 0x32 PUSH1 0x4 MSTORE PUSH1 0x24 PUSH1 0x0 REVERT JUMPDEST PUSH1 0x20 MUL PUSH1 0x20 ADD ADD MLOAD EQ ISZERO PUSH2 0x79B0 JUMPI PUSH2 0x79A2 PUSH1 0x1 DUP4 PUSH2 0xB41E JUMP JUMPDEST SWAP2 POP DUP6 DUP3 LT PUSH2 0x79B0 JUMPI PUSH2 0x79C2 JUMP JUMPDEST DUP1 PUSH2 0x79BA DUP2 PUSH2 0xB4E7 JUMP JUMPDEST SWAP2 POP POP PUSH2 0x7938 JUMP JUMPDEST POP DUP5 DUP2 LT PUSH2 0x79FA JUMPI DUP6 DUP3 DUP2 MLOAD DUP2 LT PUSH2 0x79EA JUMPI PUSH4 0x4E487B71 PUSH1 0xE0 SHL PUSH1 0x0 MSTORE PUSH1 0x32 PUSH1 0x4 MSTORE PUSH1 0x24 PUSH1 0x0 REVERT JUMPDEST PUSH1 0x20 MUL PUSH1 0x20 ADD ADD MLOAD SWAP3 POP POP PUSH2 0x7A0D JUMP JUMPDEST POP DUP1 PUSH2 0x7A05 DUP2 PUSH2 0xB4E7 JUMP JUMPDEST SWAP2 POP POP PUSH2 0x792B JUMP JUMPDEST POP PUSH1 0x0 PUSH2 0x7A19 DUP9 PUSH2 0x1B90 JUMP JUMPDEST DUP1 ISZERO PUSH2 0x7A3B JUMPI POP PUSH2 0x7A39 DUP4 PUSH1 0x40 MLOAD DUP1 PUSH1 0x20 ADD PUSH1 0x40 MSTORE DUP1 PUSH1 0x0 DUP2 MSTORE POP PUSH2 0x3A42 JUMP JUMPDEST ISZERO JUMPDEST DUP1 ISZERO PUSH2 0x7A46 JUMPI POP DUP2 ISZERO ISZERO JUMPDEST SWAP1 POP PUSH1 0x0 JUMPDEST DUP8 MLOAD DUP2 LT ISZERO PUSH2 0x81BE JUMPI PUSH1 0x0 DUP9 DUP3 DUP2 MLOAD DUP2 LT PUSH2 0x7A76 JUMPI PUSH4 0x4E487B71 PUSH1 0xE0 SHL PUSH1 0x0 MSTORE PUSH1 0x32 PUSH1 0x4 MSTORE PUSH1 0x24 PUSH1 0x0 REVERT JUMPDEST PUSH1 0x20 MUL PUSH1 0x20 ADD ADD MLOAD SWAP1 POP PUSH1 0x0 PUSH1 0xC PUSH1 0x0 DUP13 DUP2 MSTORE PUSH1 0x20 ADD SWAP1 DUP2 MSTORE PUSH1 0x20 ADD PUSH1 0x0 KECCAK256 PUSH1 0x0 DUP4 PUSH1 0x1 PUSH1 0x1 PUSH1 0xA0 SHL SUB AND PUSH1 0x1 PUSH1 0x1 PUSH1 0xA0 SHL SUB AND DUP2 MSTORE PUSH1 0x20 ADD SWAP1 DUP2 MSTORE PUSH1 0x20 ADD PUSH1 0x0 KECCAK256 SLOAD SWAP1 POP PUSH1 0x0 PUSH1 0xB PUSH1 0x0 DUP5 PUSH1 0x1 PUSH1 0x1 PUSH1 0xA0 SHL SUB AND PUSH1 0x1 PUSH1 0x1 PUSH1 0xA0 SHL SUB AND DUP2 MSTORE PUSH1 0x20 ADD SWAP1 DUP2 MSTORE PUSH1 0x20 ADD PUSH1 0x0 KECCAK256 PUSH1 0x0 DUP14 DUP2 MSTORE PUSH1 0x20 ADD SWAP1 DUP2 MSTORE PUSH1 0x20 ADD PUSH1 0x0 KECCAK256 PUSH1 0x0 SWAP1 SLOAD SWAP1 PUSH2 0x100 EXP SWAP1 DIV PUSH1 0xFF AND SWAP1 POP PUSH1 0x0 PUSH1 0x15 PUSH1 0x0 DUP6 PUSH1 0x1 PUSH1 0x1 PUSH1 0xA0 SHL SUB AND PUSH1 0x1 PUSH1 0x1 PUSH1 0xA0 SHL SUB AND DUP2 MSTORE PUSH1 0x20 ADD SWAP1 DUP2 MSTORE PUSH1 0x20 ADD PUSH1 0x0 KECCAK256 SWAP1 POP DUP2 ISZERO PUSH2 0x803E JUMPI PUSH1 0x1 PUSH1 0x1 PUSH1 0xA0 SHL SUB DUP5 AND PUSH1 0x0 SWAP1 DUP2 MSTORE PUSH1 0x15 PUSH1 0x20 MSTORE PUSH1 0x40 DUP2 KECCAK256 PUSH1 0x2 DUP2 ADD DUP1 SLOAD PUSH1 0xFF NOT AND PUSH1 0x1 SWAP1 DUP2 OR SWAP1 SWAP2 SSTORE PUSH1 0x3 SWAP1 SWAP2 ADD SWAP2 SWAP1 SWAP2 SSTORE DUP7 ISZERO ISZERO EQ DUP1 ISZERO PUSH2 0x7B75 JUMPI POP DUP3 PUSH1 0x1 EQ JUMPDEST DUP1 PUSH2 0x7B8A JUMPI POP DUP6 ISZERO DUP1 ISZERO PUSH2 0x7B8A JUMPI POP DUP3 PUSH1 0x1 EQ ISZERO JUMPDEST ISZERO PUSH2 0x801E JUMPI PUSH1 0x29 SLOAD PUSH1 0x40 DUP1 MLOAD PUSH4 0x2A497981 PUSH1 0xE1 SHL DUP2 MSTORE SWAP1 MLOAD PUSH1 0x0 SWAP3 PUSH1 0x1 PUSH1 0x1 PUSH1 0xA0 SHL SUB AND SWAP2 PUSH4 0x5492F302 SWAP2 PUSH1 0x4 DUP1 DUP4 ADD SWAP3 PUSH1 0x20 SWAP3 SWAP2 SWAP1 DUP3 SWAP1 SUB ADD DUP2 DUP7 DUP1 EXTCODESIZE ISZERO DUP1 ISZERO PUSH2 0x7BD4 JUMPI PUSH1 0x0 DUP1 REVERT JUMPDEST POP GAS STATICCALL ISZERO DUP1 ISZERO PUSH2 0x7BE8 JUMPI RETURNDATASIZE PUSH1 0x0 DUP1 RETURNDATACOPY RETURNDATASIZE PUSH1 0x0 REVERT JUMPDEST POP POP POP POP PUSH1 0x40 MLOAD RETURNDATASIZE PUSH1 0x1F NOT PUSH1 0x1F DUP3 ADD AND DUP3 ADD DUP1 PUSH1 0x40 MSTORE POP DUP2 ADD SWAP1 PUSH2 0x7C0C SWAP2 SWAP1 PUSH2 0x99BA JUMP JUMPDEST SWAP1 POP PUSH1 0x0 PUSH1 0x29 PUSH1 0x0 SWAP1 SLOAD SWAP1 PUSH2 0x100 EXP SWAP1 DIV PUSH1 0x1 PUSH1 0x1 PUSH1 0xA0 SHL SUB AND PUSH1 0x1 PUSH1 0x1 PUSH1 0xA0 SHL SUB AND PUSH4 0x855D151 PUSH1 0x40 MLOAD DUP2 PUSH4 0xFFFFFFFF AND PUSH1 0xE0 SHL DUP2 MSTORE PUSH1 0x4 ADD PUSH1 0x20 PUSH1 0x40 MLOAD DUP1 DUP4 SUB DUP2 DUP7 DUP1 EXTCODESIZE ISZERO DUP1 ISZERO PUSH2 0x7C5E JUMPI PUSH1 0x0 DUP1 REVERT JUMPDEST POP GAS STATICCALL ISZERO DUP1 ISZERO PUSH2 0x7C72 JUMPI RETURNDATASIZE PUSH1 0x0 DUP1 RETURNDATACOPY RETURNDATASIZE PUSH1 0x0 REVERT JUMPDEST POP POP POP POP PUSH1 0x40 MLOAD RETURNDATASIZE PUSH1 0x1F NOT PUSH1 0x1F DUP3 ADD AND DUP3 ADD DUP1 PUSH1 0x40 MSTORE POP DUP2 ADD SWAP1 PUSH2 0x7C96 SWAP2 SWAP1 PUSH2 0x99BA JUMP JUMPDEST SWAP1 POP PUSH1 0x0 PUSH1 0x29 PUSH1 0x0 SWAP1 SLOAD SWAP1 PUSH2 0x100 EXP SWAP1 DIV PUSH1 0x1 PUSH1 0x1 PUSH1 0xA0 SHL SUB AND PUSH1 0x1 PUSH1 0x1 PUSH1 0xA0 SHL SUB AND PUSH4 0x4E76C8F PUSH1 0x40 MLOAD DUP2 PUSH4 0xFFFFFFFF AND PUSH1 0xE0 SHL DUP2 MSTORE PUSH1 0x4 ADD PUSH1 0x20 PUSH1 0x40 MLOAD DUP1 DUP4 SUB DUP2 DUP7 DUP1 EXTCODESIZE ISZERO DUP1 ISZERO PUSH2 0x7CE8 JUMPI PUSH1 0x0 DUP1 REVERT JUMPDEST POP GAS STATICCALL ISZERO DUP1 ISZERO PUSH2 0x7CFC JUMPI RETURNDATASIZE PUSH1 0x0 DUP1 RETURNDATACOPY RETURNDATASIZE PUSH1 0x0 REVERT JUMPDEST POP POP POP POP PUSH1 0x40 MLOAD RETURNDATASIZE PUSH1 0x1F NOT PUSH1 0x1F DUP3 ADD AND DUP3 ADD DUP1 PUSH1 0x40 MSTORE POP DUP2 ADD SWAP1 PUSH2 0x7D20 SWAP2 SWAP1 PUSH2 0x99BA JUMP JUMPDEST SWAP1 POP PUSH1 0x0 DUP4 PUSH1 0x1 PUSH1 0x1 PUSH1 0xA0 SHL SUB AND PUSH4 0x11815086 DUP10 PUSH1 0x40 MLOAD DUP3 PUSH4 0xFFFFFFFF AND PUSH1 0xE0 SHL DUP2 MSTORE PUSH1 0x4 ADD PUSH2 0x7D50 SWAP2 SWAP1 PUSH2 0x9EE8 JUMP JUMPDEST PUSH1 0x20 PUSH1 0x40 MLOAD DUP1 DUP4 SUB DUP2 DUP7 DUP1 EXTCODESIZE ISZERO DUP1 ISZERO PUSH2 0x7D68 JUMPI PUSH1 0x0 DUP1 REVERT JUMPDEST POP GAS STATICCALL ISZERO DUP1 ISZERO PUSH2 0x7D7C JUMPI RETURNDATASIZE PUSH1 0x0 DUP1 RETURNDATACOPY RETURNDATASIZE PUSH1 0x0 REVERT JUMPDEST POP POP POP POP PUSH1 0x40 MLOAD RETURNDATASIZE PUSH1 0x1F NOT PUSH1 0x1F DUP3 ADD AND DUP3 ADD DUP1 PUSH1 0x40 MSTORE POP DUP2 ADD SWAP1 PUSH2 0x7DA0 SWAP2 SWAP1 PUSH2 0x99BA JUMP JUMPDEST SWAP1 POP DUP3 PUSH1 0x1 PUSH1 0x1 PUSH1 0xA0 SHL SUB AND PUSH4 0x1B6D990A DUP13 PUSH1 0x29 PUSH1 0x0 SWAP1 SLOAD SWAP1 PUSH2 0x100 EXP SWAP1 DIV PUSH1 0x1 PUSH1 0x1 PUSH1 0xA0 SHL SUB AND PUSH1 0x1 PUSH1 0x1 PUSH1 0xA0 SHL SUB AND PUSH4 0xB08BFD9 PUSH1 0x40 MLOAD DUP2 PUSH4 0xFFFFFFFF AND PUSH1 0xE0 SHL DUP2 MSTORE PUSH1 0x4 ADD PUSH1 0x20 PUSH1 0x40 MLOAD DUP1 DUP4 SUB DUP2 DUP7 DUP1 EXTCODESIZE ISZERO DUP1 ISZERO PUSH2 0x7E00 JUMPI PUSH1 0x0 DUP1 REVERT JUMPDEST POP GAS STATICCALL ISZERO DUP1 ISZERO PUSH2 0x7E14 JUMPI RETURNDATASIZE PUSH1 0x0 DUP1 RETURNDATACOPY RETURNDATASIZE PUSH1 0x0 REVERT JUMPDEST POP POP POP POP PUSH1 0x40 MLOAD RETURNDATASIZE PUSH1 0x1F NOT PUSH1 0x1F DUP3 ADD AND DUP3 ADD DUP1 PUSH1 0x40 MSTORE POP DUP2 ADD SWAP1 PUSH2 0x7E38 SWAP2 SWAP1 PUSH2 0x9C85 JUMP JUMPDEST PUSH2 0x7E42 SWAP2 SWAP1 PUSH2 0xB44A JUMP JUMPDEST DUP4 PUSH1 0x40 MLOAD DUP4 PUSH4 0xFFFFFFFF AND PUSH1 0xE0 SHL DUP2 MSTORE PUSH1 0x4 ADD PUSH2 0x7E60 SWAP3 SWAP2 SWAP1 PUSH2 0xB2BE JUMP JUMPDEST PUSH1 0x20 PUSH1 0x40 MLOAD DUP1 DUP4 SUB DUP2 PUSH1 0x0 DUP8 DUP1 EXTCODESIZE ISZERO DUP1 ISZERO PUSH2 0x7E7A JUMPI PUSH1 0x0 DUP1 REVERT JUMPDEST POP GAS CALL ISZERO DUP1 ISZERO PUSH2 0x7E8E JUMPI RETURNDATASIZE PUSH1 0x0 DUP1 RETURNDATACOPY RETURNDATASIZE PUSH1 0x0 REVERT JUMPDEST POP POP POP POP PUSH1 0x40 MLOAD RETURNDATASIZE PUSH1 0x1F NOT PUSH1 0x1F DUP3 ADD AND DUP3 ADD DUP1 PUSH1 0x40 MSTORE POP DUP2 ADD SWAP1 PUSH2 0x7EB2 SWAP2 SWAP1 PUSH2 0x9BAB JUMP JUMPDEST PUSH2 0x7ECE JUMPI PUSH1 0x40 MLOAD PUSH3 0x461BCD PUSH1 0xE5 SHL DUP2 MSTORE PUSH1 0x4 ADD PUSH2 0xE9F SWAP1 PUSH2 0xA5AB JUMP JUMPDEST DUP2 PUSH1 0x1 PUSH1 0x1 PUSH1 0xA0 SHL SUB AND PUSH4 0xE0CA5094 DUP13 PUSH1 0x29 PUSH1 0x0 SWAP1 SLOAD SWAP1 PUSH2 0x100 EXP SWAP1 DIV PUSH1 0x1 PUSH1 0x1 PUSH1 0xA0 SHL SUB AND PUSH1 0x1 PUSH1 0x1 PUSH1 0xA0 SHL SUB AND PUSH4 0xF80DE0A0 PUSH1 0x40 MLOAD DUP2 PUSH4 0xFFFFFFFF AND PUSH1 0xE0 SHL DUP2 MSTORE PUSH1 0x4 ADD PUSH1 0x20 PUSH1 0x40 MLOAD DUP1 DUP4 SUB DUP2 DUP7 DUP1 EXTCODESIZE ISZERO DUP1 ISZERO PUSH2 0x7F2C JUMPI PUSH1 0x0 DUP1 REVERT JUMPDEST POP GAS STATICCALL ISZERO DUP1 ISZERO PUSH2 0x7F40 JUMPI RETURNDATASIZE PUSH1 0x0 DUP1 RETURNDATACOPY RETURNDATASIZE PUSH1 0x0 REVERT JUMPDEST POP POP POP POP PUSH1 0x40 MLOAD RETURNDATASIZE PUSH1 0x1F NOT PUSH1 0x1F DUP3 ADD AND DUP3 ADD DUP1 PUSH1 0x40 MSTORE POP DUP2 ADD SWAP1 PUSH2 0x7F64 SWAP2 SWAP1 PUSH2 0x9C85 JUMP JUMPDEST PUSH2 0x7F6E SWAP2 SWAP1 PUSH2 0xB44A JUMP JUMPDEST DUP4 PUSH1 0x40 MLOAD DUP4 PUSH4 0xFFFFFFFF AND PUSH1 0xE0 SHL DUP2 MSTORE PUSH1 0x4 ADD PUSH2 0x7F8C SWAP3 SWAP2 SWAP1 PUSH2 0xB2A7 JUMP JUMPDEST PUSH1 0x20 PUSH1 0x40 MLOAD DUP1 DUP4 SUB DUP2 PUSH1 0x0 DUP8 DUP1 EXTCODESIZE ISZERO DUP1 ISZERO PUSH2 0x7FA6 JUMPI PUSH1 0x0 DUP1 REVERT JUMPDEST POP GAS CALL ISZERO DUP1 ISZERO PUSH2 0x7FBA JUMPI RETURNDATASIZE PUSH1 0x0 DUP1 RETURNDATACOPY RETURNDATASIZE PUSH1 0x0 REVERT JUMPDEST POP POP POP POP PUSH1 0x40 MLOAD RETURNDATASIZE PUSH1 0x1F NOT PUSH1 0x1F DUP3 ADD AND DUP3 ADD DUP1 PUSH1 0x40 MSTORE POP DUP2 ADD SWAP1 PUSH2 0x7FDE SWAP2 SWAP1 PUSH2 0x9BAB JUMP JUMPDEST PUSH2 0x7FFA JUMPI PUSH1 0x40 MLOAD PUSH3 0x461BCD PUSH1 0xE5 SHL DUP2 MSTORE PUSH1 0x4 ADD PUSH2 0xE9F SWAP1 PUSH2 0xAACF JUMP JUMPDEST PUSH1 0x1 DUP6 PUSH1 0x7 ADD PUSH1 0x0 DUP3 DUP3 SLOAD PUSH2 0x800F SWAP2 SWAP1 PUSH2 0xB41E JUMP JUMPDEST SWAP1 SWAP2 SSTORE POP PUSH2 0x8039 SWAP5 POP POP POP POP POP JUMP JUMPDEST PUSH1 0x1 DUP2 PUSH1 0x8 ADD PUSH1 0x0 DUP3 DUP3 SLOAD PUSH2 0x8033 SWAP2 SWAP1 PUSH2 0xB41E JUMP JUMPDEST SWAP1 SWAP2 SSTORE POP POP JUMPDEST PUSH2 0x812C JUMP JUMPDEST PUSH1 0x1 PUSH1 0x1 PUSH1 0xA0 SHL SUB DUP5 AND PUSH1 0x0 SWAP1 DUP2 MSTORE PUSH1 0x15 PUSH1 0x20 MSTORE PUSH1 0x40 DUP2 KECCAK256 PUSH1 0x3 ADD DUP1 SLOAD PUSH1 0x1 SWAP3 SWAP1 PUSH2 0x806A SWAP1 DUP5 SWAP1 PUSH2 0xB41E JUMP JUMPDEST SWAP1 SWAP2 SSTORE POP POP PUSH1 0x29 SLOAD PUSH1 0x40 DUP1 MLOAD PUSH4 0x4FDA48FB PUSH1 0xE1 SHL DUP2 MSTORE SWAP1 MLOAD PUSH1 0x1 PUSH1 0x1 PUSH1 0xA0 SHL SUB SWAP1 SWAP3 AND SWAP2 PUSH4 0x9FB491F6 SWAP2 PUSH1 0x4 DUP1 DUP3 ADD SWAP3 PUSH1 0x20 SWAP3 SWAP1 SWAP2 SWAP1 DUP3 SWAP1 SUB ADD DUP2 DUP7 DUP1 EXTCODESIZE ISZERO DUP1 ISZERO PUSH2 0x80B4 JUMPI PUSH1 0x0 DUP1 REVERT JUMPDEST POP GAS STATICCALL ISZERO DUP1 ISZERO PUSH2 0x80C8 JUMPI RETURNDATASIZE PUSH1 0x0 DUP1 RETURNDATACOPY RETURNDATASIZE PUSH1 0x0 REVERT JUMPDEST POP POP POP POP PUSH1 0x40 MLOAD RETURNDATASIZE PUSH1 0x1F NOT PUSH1 0x1F DUP3 ADD AND DUP3 ADD DUP1 PUSH1 0x40 MSTORE POP DUP2 ADD SWAP1 PUSH2 0x80EC SWAP2 SWAP1 PUSH2 0x9C85 JUMP JUMPDEST PUSH1 0x1 PUSH1 0x1 PUSH1 0xA0 SHL SUB DUP6 AND PUSH1 0x0 SWAP1 DUP2 MSTORE PUSH1 0x15 PUSH1 0x20 MSTORE PUSH1 0x40 SWAP1 KECCAK256 PUSH1 0x3 ADD SLOAD EQ ISZERO PUSH2 0x812C JUMPI PUSH1 0x5 DUP2 ADD DUP1 SLOAD PUSH1 0xFF NOT AND SWAP1 SSTORE PUSH2 0x8123 DUP5 PUSH2 0x6A2B JUMP JUMPDEST PUSH2 0x812C DUP5 PUSH2 0x6B83 JUMP JUMPDEST PUSH1 0x0 PUSH1 0x1 DUP3 ADD SSTORE PUSH1 0x5 DUP2 ADD SLOAD PUSH1 0xFF AND DUP1 ISZERO PUSH2 0x814D JUMPI POP PUSH2 0x814B DUP5 PUSH2 0x7210 JUMP JUMPDEST ISZERO JUMPDEST ISZERO PUSH2 0x81A7 JUMPI PUSH2 0x815B DUP5 PUSH2 0x6B83 JUMP JUMPDEST PUSH1 0x1A DUP1 SLOAD PUSH1 0x1 DUP2 ADD DUP3 SSTORE PUSH1 0x0 SWAP2 SWAP1 SWAP2 MSTORE PUSH32 0x57C384A7D1C54F3A1B2E5E67B2617B8224FDFD1EA7234EEA573A6FF665FF63E ADD DUP1 SLOAD PUSH1 0x1 PUSH1 0x1 PUSH1 0xA0 SHL SUB NOT AND PUSH1 0x1 PUSH1 0x1 PUSH1 0xA0 SHL SUB DUP7 AND OR SWAP1 SSTORE JUMPDEST POP POP POP POP DUP1 DUP1 PUSH2 0x81B6 SWAP1 PUSH2 0xB4E7 JUMP JUMPDEST SWAP2 POP POP PUSH2 0x7A4B JUMP JUMPDEST POP PUSH1 0x0 DUP9 DUP2 MSTORE PUSH1 0x14 PUSH1 0x20 SWAP1 DUP2 MSTORE PUSH1 0x40 SWAP1 SWAP2 KECCAK256 PUSH1 0x4 DUP2 ADD DUP1 SLOAD PUSH2 0xFF00 NOT AND PUSH2 0x100 OR SWAP1 SSTORE DUP5 MLOAD PUSH2 0x81F5 SWAP3 PUSH1 0x9 SWAP1 SWAP3 ADD SWAP2 DUP7 ADD SWAP1 PUSH2 0x97C5 JUMP JUMPDEST POP PUSH1 0x0 DUP9 DUP2 MSTORE PUSH1 0x14 PUSH1 0x20 MSTORE PUSH1 0x40 SWAP1 KECCAK256 PUSH1 0xA ADD DUP3 SWAP1 SSTORE DUP1 ISZERO PUSH2 0x8909 JUMPI PUSH1 0x0 DUP9 DUP2 MSTORE PUSH1 0x14 PUSH1 0x20 MSTORE PUSH1 0x40 DUP2 KECCAK256 DUP1 SLOAD PUSH1 0x1 SWAP1 SWAP2 ADD SLOAD SWAP1 SWAP2 SWAP1 PUSH2 0x8233 SWAP1 DUP4 PUSH2 0xB41E JUMP JUMPDEST SWAP1 POP DUP2 JUMPDEST DUP2 DUP2 LT ISZERO PUSH2 0x86D6 JUMPI PUSH1 0x0 DUP2 DUP2 MSTORE PUSH1 0x13 PUSH1 0x20 SWAP1 DUP2 MSTORE PUSH1 0x40 DUP1 DUP4 KECCAK256 PUSH1 0x1 ADD SLOAD PUSH1 0x29 SLOAD DUP3 MLOAD PUSH4 0x2A497981 PUSH1 0xE1 SHL DUP2 MSTORE SWAP3 MLOAD PUSH1 0x1 PUSH1 0x1 PUSH1 0xA0 SHL SUB SWAP3 DUP4 AND SWAP6 SWAP5 SWAP2 SWAP1 SWAP3 AND SWAP3 PUSH4 0x5492F302 SWAP3 PUSH1 0x4 DUP1 DUP4 ADD SWAP4 SWAP3 DUP3 SWAP1 SUB ADD DUP2 DUP7 DUP1 EXTCODESIZE ISZERO DUP1 ISZERO PUSH2 0x8298 JUMPI PUSH1 0x0 DUP1 REVERT JUMPDEST POP GAS STATICCALL ISZERO DUP1 ISZERO PUSH2 0x82AC JUMPI RETURNDATASIZE PUSH1 0x0 DUP1 RETURNDATACOPY RETURNDATASIZE PUSH1 0x0 REVERT JUMPDEST POP POP POP POP PUSH1 0x40 MLOAD RETURNDATASIZE PUSH1 0x1F NOT PUSH1 0x1F DUP3 ADD AND DUP3 ADD DUP1 PUSH1 0x40 MSTORE POP DUP2 ADD SWAP1 PUSH2 0x82D0 SWAP2 SWAP1 PUSH2 0x99BA JUMP JUMPDEST SWAP1 POP PUSH1 0x0 PUSH1 0x29 PUSH1 0x0 SWAP1 SLOAD SWAP1 PUSH2 0x100 EXP SWAP1 DIV PUSH1 0x1 PUSH1 0x1 PUSH1 0xA0 SHL SUB AND PUSH1 0x1 PUSH1 0x1 PUSH1 0xA0 SHL SUB AND PUSH4 0x855D151 PUSH1 0x40 MLOAD DUP2 PUSH4 0xFFFFFFFF AND PUSH1 0xE0 SHL DUP2 MSTORE PUSH1 0x4 ADD PUSH1 0x20 PUSH1 0x40 MLOAD DUP1 DUP4 SUB DUP2 DUP7 DUP1 EXTCODESIZE ISZERO DUP1 ISZERO PUSH2 0x8322 JUMPI PUSH1 0x0 DUP1 REVERT JUMPDEST POP GAS STATICCALL ISZERO DUP1 ISZERO PUSH2 0x8336 JUMPI RETURNDATASIZE PUSH1 0x0 DUP1 RETURNDATACOPY RETURNDATASIZE PUSH1 0x0 REVERT JUMPDEST POP POP POP POP PUSH1 0x40 MLOAD RETURNDATASIZE PUSH1 0x1F NOT PUSH1 0x1F DUP3 ADD AND DUP3 ADD DUP1 PUSH1 0x40 MSTORE POP DUP2 ADD SWAP1 PUSH2 0x835A SWAP2 SWAP1 PUSH2 0x99BA JUMP JUMPDEST SWAP1 POP PUSH1 0x0 PUSH1 0x29 PUSH1 0x0 SWAP1 SLOAD SWAP1 PUSH2 0x100 EXP SWAP1 DIV PUSH1 0x1 PUSH1 0x1 PUSH1 0xA0 SHL SUB AND PUSH1 0x1 PUSH1 0x1 PUSH1 0xA0 SHL SUB AND PUSH4 0x4E76C8F PUSH1 0x40 MLOAD DUP2 PUSH4 0xFFFFFFFF AND PUSH1 0xE0 SHL DUP2 MSTORE PUSH1 0x4 ADD PUSH1 0x20 PUSH1 0x40 MLOAD DUP1 DUP4 SUB DUP2 DUP7 DUP1 EXTCODESIZE ISZERO DUP1 ISZERO PUSH2 0x83AC JUMPI PUSH1 0x0 DUP1 REVERT JUMPDEST POP GAS STATICCALL ISZERO DUP1 ISZERO PUSH2 0x83C0 JUMPI RETURNDATASIZE PUSH1 0x0 DUP1 RETURNDATACOPY RETURNDATASIZE PUSH1 0x0 REVERT JUMPDEST POP POP POP POP PUSH1 0x40 MLOAD RETURNDATASIZE PUSH1 0x1F NOT PUSH1 0x1F DUP3 ADD AND DUP3 ADD DUP1 PUSH1 0x40 MSTORE POP DUP2 ADD SWAP1 PUSH2 0x83E4 SWAP2 SWAP1 PUSH2 0x99BA JUMP JUMPDEST SWAP1 POP PUSH1 0x0 DUP4 PUSH1 0x1 PUSH1 0x1 PUSH1 0xA0 SHL SUB AND PUSH4 0x11815086 DUP7 PUSH1 0x40 MLOAD DUP3 PUSH4 0xFFFFFFFF AND PUSH1 0xE0 SHL DUP2 MSTORE PUSH1 0x4 ADD PUSH2 0x8414 SWAP2 SWAP1 PUSH2 0x9EE8 JUMP JUMPDEST PUSH1 0x20 PUSH1 0x40 MLOAD DUP1 DUP4 SUB DUP2 DUP7 DUP1 EXTCODESIZE ISZERO DUP1 ISZERO PUSH2 0x842C JUMPI PUSH1 0x0 DUP1 REVERT JUMPDEST POP GAS STATICCALL ISZERO DUP1 ISZERO PUSH2 0x8440 JUMPI RETURNDATASIZE PUSH1 0x0 DUP1 RETURNDATACOPY RETURNDATASIZE PUSH1 0x0 REVERT JUMPDEST POP POP POP POP PUSH1 0x40 MLOAD RETURNDATASIZE PUSH1 0x1F NOT PUSH1 0x1F DUP3 ADD AND DUP3 ADD DUP1 PUSH1 0x40 MSTORE POP DUP2 ADD SWAP1 PUSH2 0x8464 SWAP2 SWAP1 PUSH2 0x99BA JUMP JUMPDEST SWAP1 POP DUP3 PUSH1 0x1 PUSH1 0x1 PUSH1 0xA0 SHL SUB AND PUSH4 0x1B6D990A DUP12 PUSH1 0x29 PUSH1 0x0 SWAP1 SLOAD SWAP1 PUSH2 0x100 EXP SWAP1 DIV PUSH1 0x1 PUSH1 0x1 PUSH1 0xA0 SHL SUB AND PUSH1 0x1 PUSH1 0x1 PUSH1 0xA0 SHL SUB AND PUSH4 0xABB10B9B PUSH1 0x40 MLOAD DUP2 PUSH4 0xFFFFFFFF AND PUSH1 0xE0 SHL DUP2 MSTORE PUSH1 0x4 ADD PUSH1 0x20 PUSH1 0x40 MLOAD DUP1 DUP4 SUB DUP2 DUP7 DUP1 EXTCODESIZE ISZERO DUP1 ISZERO PUSH2 0x84C4 JUMPI PUSH1 0x0 DUP1 REVERT JUMPDEST POP GAS STATICCALL ISZERO DUP1 ISZERO PUSH2 0x84D8 JUMPI RETURNDATASIZE PUSH1 0x0 DUP1 RETURNDATACOPY RETURNDATASIZE PUSH1 0x0 REVERT JUMPDEST POP POP POP POP PUSH1 0x40 MLOAD RETURNDATASIZE PUSH1 0x1F NOT PUSH1 0x1F DUP3 ADD AND DUP3 ADD DUP1 PUSH1 0x40 MSTORE POP DUP2 ADD SWAP1 PUSH2 0x84FC SWAP2 SWAP1 PUSH2 0x9C85 JUMP JUMPDEST PUSH2 0x8506 SWAP2 SWAP1 PUSH2 0xB44A JUMP JUMPDEST DUP4 PUSH1 0x40 MLOAD DUP4 PUSH4 0xFFFFFFFF AND PUSH1 0xE0 SHL DUP2 MSTORE PUSH1 0x4 ADD PUSH2 0x8524 SWAP3 SWAP2 SWAP1 PUSH2 0xB2BE JUMP JUMPDEST PUSH1 0x20 PUSH1 0x40 MLOAD DUP1 DUP4 SUB DUP2 PUSH1 0x0 DUP8 DUP1 EXTCODESIZE ISZERO DUP1 ISZERO PUSH2 0x853E JUMPI PUSH1 0x0 DUP1 REVERT JUMPDEST POP GAS CALL ISZERO DUP1 ISZERO PUSH2 0x8552 JUMPI RETURNDATASIZE PUSH1 0x0 DUP1 RETURNDATACOPY RETURNDATASIZE PUSH1 0x0 REVERT JUMPDEST POP POP POP POP PUSH1 0x40 MLOAD RETURNDATASIZE PUSH1 0x1F NOT PUSH1 0x1F DUP3 ADD AND DUP3 ADD DUP1 PUSH1 0x40 MSTORE POP DUP2 ADD SWAP1 PUSH2 0x8576 SWAP2 SWAP1 PUSH2 0x9BAB JUMP JUMPDEST PUSH2 0x8592 JUMPI PUSH1 0x40 MLOAD PUSH3 0x461BCD PUSH1 0xE5 SHL DUP2 MSTORE PUSH1 0x4 ADD PUSH2 0xE9F SWAP1 PUSH2 0xA884 JUMP JUMPDEST DUP2 PUSH1 0x1 PUSH1 0x1 PUSH1 0xA0 SHL SUB AND PUSH4 0xE0CA5094 DUP12 PUSH1 0x29 PUSH1 0x0 SWAP1 SLOAD SWAP1 PUSH2 0x100 EXP SWAP1 DIV PUSH1 0x1 PUSH1 0x1 PUSH1 0xA0 SHL SUB AND PUSH1 0x1 PUSH1 0x1 PUSH1 0xA0 SHL SUB AND PUSH4 0x30C0BB79 PUSH1 0x40 MLOAD DUP2 PUSH4 0xFFFFFFFF AND PUSH1 0xE0 SHL DUP2 MSTORE PUSH1 0x4 ADD PUSH1 0x20 PUSH1 0x40 MLOAD DUP1 DUP4 SUB DUP2 DUP7 DUP1 EXTCODESIZE ISZERO DUP1 ISZERO PUSH2 0x85F0 JUMPI PUSH1 0x0 DUP1 REVERT JUMPDEST POP GAS STATICCALL ISZERO DUP1 ISZERO PUSH2 0x8604 JUMPI RETURNDATASIZE PUSH1 0x0 DUP1 RETURNDATACOPY RETURNDATASIZE PUSH1 0x0 REVERT JUMPDEST POP POP POP POP PUSH1 0x40 MLOAD RETURNDATASIZE PUSH1 0x1F NOT PUSH1 0x1F DUP3 ADD AND DUP3 ADD DUP1 PUSH1 0x40 MSTORE POP DUP2 ADD SWAP1 PUSH2 0x8628 SWAP2 SWAP1 PUSH2 0x9C85 JUMP JUMPDEST PUSH2 0x8632 SWAP2 SWAP1 PUSH2 0xB44A JUMP JUMPDEST DUP4 PUSH1 0x40 MLOAD DUP4 PUSH4 0xFFFFFFFF AND PUSH1 0xE0 SHL DUP2 MSTORE PUSH1 0x4 ADD PUSH2 0x8650 SWAP3 SWAP2 SWAP1 PUSH2 0xB2A7 JUMP JUMPDEST PUSH1 0x20 PUSH1 0x40 MLOAD DUP1 DUP4 SUB DUP2 PUSH1 0x0 DUP8 DUP1 EXTCODESIZE ISZERO DUP1 ISZERO PUSH2 0x866A JUMPI PUSH1 0x0 DUP1 REVERT JUMPDEST POP GAS CALL ISZERO DUP1 ISZERO PUSH2 0x867E JUMPI RETURNDATASIZE PUSH1 0x0 DUP1 RETURNDATACOPY RETURNDATASIZE PUSH1 0x0 REVERT JUMPDEST POP POP POP POP PUSH1 0x40 MLOAD RETURNDATASIZE PUSH1 0x1F NOT PUSH1 0x1F DUP3 ADD AND DUP3 ADD DUP1 PUSH1 0x40 MSTORE POP DUP2 ADD SWAP1 PUSH2 0x86A2 SWAP2 SWAP1 PUSH2 0x9BAB JUMP JUMPDEST PUSH2 0x86BE JUMPI PUSH1 0x40 MLOAD PUSH3 0x461BCD PUSH1 0xE5 SHL DUP2 MSTORE PUSH1 0x4 ADD PUSH2 0xE9F SWAP1 PUSH2 0xAA22 JUMP JUMPDEST POP POP POP POP POP DUP1 DUP1 PUSH2 0x86CE SWAP1 PUSH2 0xB4E7 JUMP JUMPDEST SWAP2 POP POP PUSH2 0x8237 JUMP JUMPDEST POP PUSH1 0x0 DUP11 DUP2 MSTORE PUSH1 0x14 PUSH1 0x20 MSTORE PUSH1 0x40 DUP2 KECCAK256 PUSH1 0xB ADD DUP1 SLOAD PUSH1 0xFF NOT AND PUSH1 0x1 SWAP1 DUP2 OR SWAP1 SWAP2 SSTORE PUSH1 0x24 DUP1 SLOAD SWAP2 SWAP3 SWAP1 SWAP2 PUSH2 0x8709 SWAP1 DUP5 SWAP1 PUSH2 0xB41E JUMP JUMPDEST SWAP1 SWAP2 SSTORE POP POP PUSH1 0x29 SLOAD PUSH1 0x40 DUP1 MLOAD PUSH4 0x7B39B17F PUSH1 0xE1 SHL DUP2 MSTORE SWAP1 MLOAD PUSH1 0x0 SWAP3 PUSH1 0x1 PUSH1 0x1 PUSH1 0xA0 SHL SUB AND SWAP2 PUSH4 0xF67362FE SWAP2 PUSH1 0x4 DUP1 DUP4 ADD SWAP3 PUSH1 0x20 SWAP3 SWAP2 SWAP1 DUP3 SWAP1 SUB ADD DUP2 DUP7 DUP1 EXTCODESIZE ISZERO DUP1 ISZERO PUSH2 0x8753 JUMPI PUSH1 0x0 DUP1 REVERT JUMPDEST POP GAS STATICCALL ISZERO DUP1 ISZERO PUSH2 0x8767 JUMPI RETURNDATASIZE PUSH1 0x0 DUP1 RETURNDATACOPY RETURNDATASIZE PUSH1 0x0 REVERT JUMPDEST POP POP POP POP PUSH1 0x40 MLOAD RETURNDATASIZE PUSH1 0x1F NOT PUSH1 0x1F DUP3 ADD AND DUP3 ADD DUP1 PUSH1 0x40 MSTORE POP DUP2 ADD SWAP1 PUSH2 0x878B SWAP2 SWAP1 PUSH2 0x99BA JUMP JUMPDEST PUSH1 0x1 PUSH1 0x1 PUSH1 0xA0 SHL SUB AND EQ ISZERO PUSH2 0x87B2 JUMPI PUSH1 0x40 MLOAD PUSH3 0x461BCD PUSH1 0xE5 SHL DUP2 MSTORE PUSH1 0x4 ADD PUSH2 0xE9F SWAP1 PUSH2 0xA49E JUMP JUMPDEST PUSH1 0x29 SLOAD PUSH1 0x40 DUP1 MLOAD PUSH4 0x7B39B17F PUSH1 0xE1 SHL DUP2 MSTORE SWAP1 MLOAD PUSH1 0x0 SWAP3 PUSH1 0x1 PUSH1 0x1 PUSH1 0xA0 SHL SUB AND SWAP2 PUSH4 0xF67362FE SWAP2 PUSH1 0x4 DUP1 DUP4 ADD SWAP3 PUSH1 0x20 SWAP3 SWAP2 SWAP1 DUP3 SWAP1 SUB ADD DUP2 DUP7 DUP1 EXTCODESIZE ISZERO DUP1 ISZERO PUSH2 0x87F7 JUMPI PUSH1 0x0 DUP1 REVERT JUMPDEST POP GAS STATICCALL ISZERO DUP1 ISZERO PUSH2 0x880B JUMPI RETURNDATASIZE PUSH1 0x0 DUP1 RETURNDATACOPY RETURNDATASIZE PUSH1 0x0 REVERT JUMPDEST POP POP POP POP PUSH1 0x40 MLOAD RETURNDATASIZE PUSH1 0x1F NOT PUSH1 0x1F DUP3 ADD AND DUP3 ADD DUP1 PUSH1 0x40 MSTORE POP DUP2 ADD SWAP1 PUSH2 0x882F SWAP2 SWAP1 PUSH2 0x99BA JUMP JUMPDEST PUSH1 0x40 MLOAD PUSH4 0x48257DC9 PUSH1 0xE0 SHL DUP2 MSTORE SWAP1 SWAP2 POP PUSH1 0x1 PUSH1 0x1 PUSH1 0xA0 SHL SUB DUP3 AND SWAP1 PUSH4 0x48257DC9 SWAP1 PUSH2 0x885E SWAP1 DUP15 SWAP1 PUSH1 0x4 ADD PUSH2 0x9EB5 JUMP JUMPDEST PUSH1 0x0 PUSH1 0x40 MLOAD DUP1 DUP4 SUB DUP2 PUSH1 0x0 DUP8 DUP1 EXTCODESIZE ISZERO DUP1 ISZERO PUSH2 0x8878 JUMPI PUSH1 0x0 DUP1 REVERT JUMPDEST POP GAS CALL SWAP3 POP POP POP DUP1 ISZERO PUSH2 0x8889 JUMPI POP PUSH1 0x1 JUMPDEST PUSH2 0x88E8 JUMPI RETURNDATASIZE DUP1 DUP1 ISZERO PUSH2 0x88B7 JUMPI PUSH1 0x40 MLOAD SWAP2 POP PUSH1 0x1F NOT PUSH1 0x3F RETURNDATASIZE ADD AND DUP3 ADD PUSH1 0x40 MSTORE RETURNDATASIZE DUP3 MSTORE RETURNDATASIZE PUSH1 0x0 PUSH1 0x20 DUP5 ADD RETURNDATACOPY PUSH2 0x88BC JUMP JUMPDEST PUSH1 0x60 SWAP2 POP JUMPDEST POP PUSH1 0x0 DUP1 MLOAD PUSH1 0x20 PUSH2 0xB56E DUP4 CODECOPY DUP2 MLOAD SWAP2 MSTORE DUP2 PUSH1 0x40 MLOAD PUSH2 0x88DA SWAP2 SWAP1 PUSH2 0x9FF3 JUMP JUMPDEST PUSH1 0x40 MLOAD DUP1 SWAP2 SUB SWAP1 LOG1 POP PUSH2 0x8901 JUMP JUMPDEST PUSH1 0x1 PUSH1 0x23 PUSH1 0x0 DUP3 DUP3 SLOAD PUSH2 0x88FB SWAP2 SWAP1 PUSH2 0xB41E JUMP JUMPDEST SWAP1 SWAP2 SSTORE POP POP JUMPDEST POP POP POP PUSH2 0x893E JUMP JUMPDEST PUSH1 0x0 DUP9 DUP2 MSTORE PUSH1 0x14 PUSH1 0x20 MSTORE PUSH1 0x40 DUP2 KECCAK256 PUSH1 0xB ADD DUP1 SLOAD PUSH1 0xFF NOT AND PUSH1 0x2 OR SWAP1 SSTORE PUSH1 0x25 DUP1 SLOAD PUSH1 0x1 SWAP3 SWAP1 PUSH2 0x8938 SWAP1 DUP5 SWAP1 PUSH2 0xB41E JUMP JUMPDEST SWAP1 SWAP2 SSTORE POP POP JUMPDEST PUSH1 0x1 PUSH1 0x23 PUSH1 0x0 DUP3 DUP3 SLOAD PUSH2 0x8951 SWAP2 SWAP1 PUSH2 0xB41E JUMP JUMPDEST SWAP1 SWAP2 SSTORE POP POP PUSH1 0x0 DUP9 DUP2 MSTORE PUSH1 0x14 PUSH1 0x20 MSTORE PUSH1 0x40 DUP2 KECCAK256 PUSH1 0x2 ADD SLOAD PUSH1 0x26 DUP1 SLOAD SWAP2 SWAP3 SWAP1 SWAP2 PUSH2 0x897B SWAP1 DUP5 SWAP1 PUSH2 0xB41E JUMP JUMPDEST SWAP1 SWAP2 SSTORE POP POP PUSH1 0x0 DUP9 DUP2 MSTORE PUSH1 0x14 PUSH1 0x20 MSTORE PUSH1 0x40 DUP2 KECCAK256 PUSH1 0x3 ADD SLOAD PUSH1 0x27 DUP1 SLOAD SWAP2 SWAP3 SWAP1 SWAP2 PUSH2 0x89A5 SWAP1 DUP5 SWAP1 PUSH2 0xB41E JUMP JUMPDEST SWAP1 SWAP2 SSTORE POP POP PUSH1 0x0 DUP9 DUP2 MSTORE PUSH1 0x13 PUSH1 0x20 MSTORE PUSH1 0x40 SWAP1 DUP2 SWAP1 KECCAK256 PUSH1 0x1 DUP2 ADD SLOAD SWAP2 MLOAD PUSH1 0x1 PUSH1 0x1 PUSH1 0xA0 SHL SUB SWAP1 SWAP3 AND SWAP2 PUSH32 0x43916C3AE75995D24CC89B466ED08E6DBA74D325F7957F9B37B05F150E12918E SWAP2 PUSH2 0x89F8 SWAP2 PUSH2 0xA0C8 JUMP JUMPDEST PUSH1 0x40 MLOAD DUP1 SWAP2 SUB SWAP1 LOG2 POP POP POP POP POP POP POP POP JUMP JUMPDEST DUP1 MLOAD PUSH1 0x60 SWAP1 PUSH1 0x0 JUMPDEST DUP2 DUP2 LT ISZERO PUSH2 0x8A58 JUMPI DUP1 DUP5 DUP3 DUP2 MLOAD DUP2 LT PUSH2 0x8A3B JUMPI PUSH4 0x4E487B71 PUSH1 0xE0 SHL PUSH1 0x0 MSTORE PUSH1 0x32 PUSH1 0x4 MSTORE PUSH1 0x24 PUSH1 0x0 REVERT JUMPDEST PUSH1 0x20 SWAP1 DUP2 MUL SWAP2 SWAP1 SWAP2 ADD ADD MSTORE DUP1 PUSH2 0x8A50 DUP2 PUSH2 0xB4E7 JUMP JUMPDEST SWAP2 POP POP PUSH2 0x8A12 JUMP JUMPDEST POP SWAP2 SWAP3 SWAP2 POP POP JUMP JUMPDEST PUSH1 0x60 PUSH1 0x0 DUP3 MLOAD GT PUSH2 0x8A83 JUMPI PUSH1 0x40 MLOAD PUSH3 0x461BCD PUSH1 0xE5 SHL DUP2 MSTORE PUSH1 0x4 ADD PUSH2 0xE9F SWAP1 PUSH2 0xA4EA JUMP JUMPDEST DUP2 MLOAD DUP1 PUSH1 0x0 JUMPDEST DUP2 DUP2 LT ISZERO PUSH2 0x8BFE JUMPI PUSH1 0x0 DUP4 PUSH2 0x8A9C PUSH2 0x3E98 JUMP JUMPDEST DUP8 DUP5 DUP2 MLOAD DUP2 LT PUSH2 0x8ABC JUMPI PUSH4 0x4E487B71 PUSH1 0xE0 SHL PUSH1 0x0 MSTORE PUSH1 0x32 PUSH1 0x4 MSTORE PUSH1 0x24 PUSH1 0x0 REVERT JUMPDEST PUSH1 0x20 MUL PUSH1 0x20 ADD ADD MLOAD PUSH1 0x40 MLOAD PUSH1 0x20 ADD PUSH2 0x8AD5 SWAP3 SWAP2 SWAP1 PUSH2 0x9EDA JUMP JUMPDEST PUSH1 0x40 MLOAD PUSH1 0x20 DUP2 DUP4 SUB SUB DUP2 MSTORE SWAP1 PUSH1 0x40 MSTORE DUP1 MLOAD SWAP1 PUSH1 0x20 ADD KECCAK256 PUSH1 0x0 SHR PUSH2 0x8AF8 SWAP2 SWAP1 PUSH2 0xB502 JUMP JUMPDEST PUSH2 0x8B03 SWAP1 PUSH1 0x1 PUSH2 0xB41E JUMP JUMPDEST SWAP1 POP PUSH1 0x0 DUP7 PUSH2 0x8B13 PUSH1 0x1 DUP5 PUSH2 0xB469 JUMP JUMPDEST DUP2 MLOAD DUP2 LT PUSH2 0x8B31 JUMPI PUSH4 0x4E487B71 PUSH1 0xE0 SHL PUSH1 0x0 MSTORE PUSH1 0x32 PUSH1 0x4 MSTORE PUSH1 0x24 PUSH1 0x0 REVERT JUMPDEST PUSH1 0x20 MUL PUSH1 0x20 ADD ADD MLOAD SWAP1 POP DUP7 PUSH1 0x1 DUP7 PUSH2 0x8B49 SWAP2 SWAP1 PUSH2 0xB469 JUMP JUMPDEST DUP2 MLOAD DUP2 LT PUSH2 0x8B67 JUMPI PUSH4 0x4E487B71 PUSH1 0xE0 SHL PUSH1 0x0 MSTORE PUSH1 0x32 PUSH1 0x4 MSTORE PUSH1 0x24 PUSH1 0x0 REVERT JUMPDEST PUSH1 0x20 MUL PUSH1 0x20 ADD ADD MLOAD DUP8 PUSH1 0x1 DUP5 PUSH2 0x8B7D SWAP2 SWAP1 PUSH2 0xB469 JUMP JUMPDEST DUP2 MLOAD DUP2 LT PUSH2 0x8B9B JUMPI PUSH4 0x4E487B71 PUSH1 0xE0 SHL PUSH1 0x0 MSTORE PUSH1 0x32 PUSH1 0x4 MSTORE PUSH1 0x24 PUSH1 0x0 REVERT JUMPDEST PUSH1 0x20 SWAP1 DUP2 MUL SWAP2 SWAP1 SWAP2 ADD ADD MSTORE DUP1 DUP8 PUSH2 0x8BB3 PUSH1 0x1 DUP9 PUSH2 0xB469 JUMP JUMPDEST DUP2 MLOAD DUP2 LT PUSH2 0x8BD1 JUMPI PUSH4 0x4E487B71 PUSH1 0xE0 SHL PUSH1 0x0 MSTORE PUSH1 0x32 PUSH1 0x4 MSTORE PUSH1 0x24 PUSH1 0x0 REVERT JUMPDEST PUSH1 0x20 SWAP1 DUP2 MUL SWAP2 SWAP1 SWAP2 ADD ADD MSTORE PUSH2 0x8BE7 PUSH1 0x1 DUP7 PUSH2 0xB469 JUMP JUMPDEST SWAP5 POP POP POP DUP1 DUP1 PUSH2 0x8BF6 SWAP1 PUSH2 0xB4E7 JUMP JUMPDEST SWAP2 POP POP PUSH2 0x8A89 JUMP JUMPDEST POP SWAP3 SWAP4 SWAP3 POP POP POP JUMP JUMPDEST PUSH1 0x0 PUSH1 0x1F SLOAD PUSH1 0x21 SLOAD PUSH2 0x8C19 SWAP2 SWAP1 PUSH2 0xB469 JUMP JUMPDEST SWAP1 POP PUSH1 0x29 PUSH1 0x0 SWAP1 SLOAD SWAP1 PUSH2 0x100 EXP SWAP1 DIV PUSH1 0x1 PUSH1 0x1 PUSH1 0xA0 SHL SUB AND PUSH1 0x1 PUSH1 0x1 PUSH1 0xA0 SHL SUB AND PUSH4 0xE3115D3C PUSH1 0x40 MLOAD DUP2 PUSH4 0xFFFFFFFF AND PUSH1 0xE0 SHL DUP2 MSTORE PUSH1 0x4 ADD PUSH1 0x20 PUSH1 0x40 MLOAD DUP1 DUP4 SUB DUP2 DUP7 DUP1 EXTCODESIZE ISZERO DUP1 ISZERO PUSH2 0x8C69 JUMPI PUSH1 0x0 DUP1 REVERT JUMPDEST POP GAS STATICCALL ISZERO DUP1 ISZERO PUSH2 0x8C7D JUMPI RETURNDATASIZE PUSH1 0x0 DUP1 RETURNDATACOPY RETURNDATASIZE PUSH1 0x0 REVERT JUMPDEST POP POP POP POP PUSH1 0x40 MLOAD RETURNDATASIZE PUSH1 0x1F NOT PUSH1 0x1F DUP3 ADD AND DUP3 ADD DUP1 PUSH1 0x40 MSTORE POP DUP2 ADD SWAP1 PUSH2 0x8CA1 SWAP2 SWAP1 PUSH2 0x9C85 JUMP JUMPDEST DUP2 GT ISZERO PUSH2 0x176A JUMPI PUSH1 0x0 JUMPDEST PUSH1 0x29 SLOAD PUSH1 0x40 DUP1 MLOAD PUSH4 0x7D630CB PUSH1 0xE4 SHL DUP2 MSTORE SWAP1 MLOAD PUSH2 0x8D2F SWAP3 PUSH1 0x1 PUSH1 0x1 PUSH1 0xA0 SHL SUB AND SWAP2 PUSH4 0x7D630CB0 SWAP2 PUSH1 0x4 DUP1 DUP4 ADD SWAP3 PUSH1 0x20 SWAP3 SWAP2 SWAP1 DUP3 SWAP1 SUB ADD DUP2 DUP7 DUP1 EXTCODESIZE ISZERO DUP1 ISZERO PUSH2 0x8CF1 JUMPI PUSH1 0x0 DUP1 REVERT JUMPDEST POP GAS STATICCALL ISZERO DUP1 ISZERO PUSH2 0x8D05 JUMPI RETURNDATASIZE PUSH1 0x0 DUP1 RETURNDATACOPY RETURNDATASIZE PUSH1 0x0 REVERT JUMPDEST POP POP POP POP PUSH1 0x40 MLOAD RETURNDATASIZE PUSH1 0x1F NOT PUSH1 0x1F DUP3 ADD AND DUP3 ADD DUP1 PUSH1 0x40 MSTORE POP DUP2 ADD SWAP1 PUSH2 0x8D29 SWAP2 SWAP1 PUSH2 0x9C85 JUMP JUMPDEST DUP4 PUSH2 0x9576 JUMP JUMPDEST DUP2 LT ISZERO PUSH2 0x26FE JUMPI PUSH1 0x1F SLOAD PUSH1 0x0 SWAP1 DUP2 MSTORE PUSH1 0x14 PUSH1 0x20 MSTORE PUSH1 0x40 DUP2 KECCAK256 DUP1 SLOAD PUSH1 0x1 SWAP1 SWAP2 ADD SLOAD SWAP1 SWAP2 SWAP1 PUSH2 0x8D5C SWAP1 DUP4 PUSH2 0xB41E JUMP JUMPDEST SWAP1 POP DUP2 JUMPDEST DUP2 DUP2 LT ISZERO PUSH2 0x8D83 JUMPI PUSH2 0x8D71 DUP2 PUSH2 0x1DDC JUMP JUMPDEST DUP1 PUSH2 0x8D7B DUP2 PUSH2 0xB4E7 JUMP JUMPDEST SWAP2 POP POP PUSH2 0x8D60 JUMP JUMPDEST POP PUSH2 0x8D8F PUSH1 0x1F SLOAD PUSH2 0x2702 JUMP JUMPDEST PUSH1 0x1F SLOAD PUSH1 0x40 MLOAD PUSH32 0x72C2FCC891FE835B86FC8BB9ABDC52ADF52499C52289B3C49E1461EABEA27175 SWAP1 PUSH1 0x0 SWAP1 LOG2 POP POP DUP1 DUP1 PUSH2 0x8DC8 SWAP1 PUSH2 0xB4E7 JUMP JUMPDEST SWAP2 POP POP PUSH2 0x8CAB JUMP JUMPDEST PUSH1 0x0 JUMPDEST PUSH1 0x1C SLOAD DUP2 LT ISZERO PUSH2 0x176A JUMPI PUSH1 0x0 PUSH1 0x1C DUP3 DUP2 SLOAD DUP2 LT PUSH2 0x8E00 JUMPI PUSH4 0x4E487B71 PUSH1 0xE0 SHL PUSH1 0x0 MSTORE PUSH1 0x32 PUSH1 0x4 MSTORE PUSH1 0x24 PUSH1 0x0 REVERT JUMPDEST PUSH1 0x0 SWAP2 DUP3 MSTORE PUSH1 0x20 DUP1 DUP4 KECCAK256 SWAP1 SWAP2 ADD SLOAD PUSH1 0x1 PUSH1 0x1 PUSH1 0xA0 SHL SUB AND DUP1 DUP4 MSTORE PUSH1 0x15 SWAP1 SWAP2 MSTORE PUSH1 0x40 SWAP1 SWAP2 KECCAK256 PUSH1 0x1 DUP2 ADD SLOAD SWAP2 SWAP3 POP SWAP1 PUSH2 0x8E9B JUMPI PUSH1 0x5 DUP2 ADD DUP1 SLOAD PUSH2 0xFFFF NOT AND SWAP1 SSTORE PUSH2 0x8E47 DUP3 PUSH2 0x9585 JUMP JUMPDEST PUSH2 0x8E50 DUP3 PUSH2 0x6A2B JUMP JUMPDEST PUSH2 0x8E59 DUP3 PUSH2 0x6B83 JUMP JUMPDEST DUP2 PUSH1 0x1 PUSH1 0x1 PUSH1 0xA0 SHL SUB AND PUSH32 0x9DADCEDBA048E92B943EA1C5861CEE1DF63A566D7F795869C004780C1C698E2B TIMESTAMP PUSH1 0x40 MLOAD PUSH2 0x8E92 SWAP2 SWAP1 PUSH2 0x9EB5 JUMP JUMPDEST PUSH1 0x40 MLOAD DUP1 SWAP2 SUB SWAP1 LOG2 JUMPDEST POP POP DUP1 DUP1 PUSH2 0x8EA8 SWAP1 PUSH2 0xB4E7 JUMP JUMPDEST SWAP2 POP POP PUSH2 0x8DD3 JUMP JUMPDEST PUSH1 0x0 PUSH2 0x1069 DUP3 DUP5 PUSH2 0xB41E JUMP JUMPDEST PUSH1 0x22 SLOAD PUSH1 0x0 SWAP1 DUP2 MSTORE PUSH1 0x14 PUSH1 0x20 MSTORE PUSH1 0x40 SWAP1 KECCAK256 PUSH1 0x4 ADD SLOAD PUSH1 0xFF AND PUSH2 0x8EF0 JUMPI PUSH1 0x40 MLOAD PUSH3 0x461BCD PUSH1 0xE5 SHL DUP2 MSTORE PUSH1 0x4 ADD PUSH2 0xE9F SWAP1 PUSH2 0xABA1 JUMP JUMPDEST PUSH1 0x22 SLOAD PUSH1 0x0 SWAP1 DUP2 MSTORE PUSH1 0x14 PUSH1 0x20 MSTORE PUSH1 0x40 SWAP1 KECCAK256 PUSH1 0x4 ADD SLOAD PUSH3 0x10000 SWAP1 DIV PUSH1 0xFF AND ISZERO PUSH2 0x8F2B JUMPI PUSH1 0x40 MLOAD PUSH3 0x461BCD PUSH1 0xE5 SHL DUP2 MSTORE PUSH1 0x4 ADD PUSH2 0xE9F SWAP1 PUSH2 0xA91F JUMP JUMPDEST PUSH1 0x0 PUSH2 0x904F PUSH2 0x8FC4 PUSH1 0x1A DUP1 SLOAD SWAP1 POP PUSH1 0x29 PUSH1 0x0 SWAP1 SLOAD SWAP1 PUSH2 0x100 EXP SWAP1 DIV PUSH1 0x1 PUSH1 0x1 PUSH1 0xA0 SHL SUB AND PUSH1 0x1 PUSH1 0x1 PUSH1 0xA0 SHL SUB AND PUSH4 0xDFECEED7 PUSH1 0x40 MLOAD DUP2 PUSH4 0xFFFFFFFF AND PUSH1 0xE0 SHL DUP2 MSTORE PUSH1 0x4 ADD PUSH1 0x20 PUSH1 0x40 MLOAD DUP1 DUP4 SUB DUP2 DUP7 DUP1 EXTCODESIZE ISZERO DUP1 ISZERO PUSH2 0x8F87 JUMPI PUSH1 0x0 DUP1 REVERT JUMPDEST POP GAS STATICCALL ISZERO DUP1 ISZERO PUSH2 0x8F9B JUMPI RETURNDATASIZE PUSH1 0x0 DUP1 RETURNDATACOPY RETURNDATASIZE PUSH1 0x0 REVERT JUMPDEST POP POP POP POP PUSH1 0x40 MLOAD RETURNDATASIZE PUSH1 0x1F NOT PUSH1 0x1F DUP3 ADD AND DUP3 ADD DUP1 PUSH1 0x40 MSTORE POP DUP2 ADD SWAP1 PUSH2 0x8FBF SWAP2 SWAP1 PUSH2 0x9C85 JUMP JUMPDEST PUSH2 0x9576 JUMP JUMPDEST PUSH1 0x29 PUSH1 0x0 SWAP1 SLOAD SWAP1 PUSH2 0x100 EXP SWAP1 DIV PUSH1 0x1 PUSH1 0x1 PUSH1 0xA0 SHL SUB AND PUSH1 0x1 PUSH1 0x1 PUSH1 0xA0 SHL SUB AND PUSH4 0xBD40EF4C PUSH1 0x40 MLOAD DUP2 PUSH4 0xFFFFFFFF AND PUSH1 0xE0 SHL DUP2 MSTORE PUSH1 0x4 ADD PUSH1 0x20 PUSH1 0x40 MLOAD DUP1 DUP4 SUB DUP2 DUP7 DUP1 EXTCODESIZE ISZERO DUP1 ISZERO PUSH2 0x9012 JUMPI PUSH1 0x0 DUP1 REVERT JUMPDEST POP GAS STATICCALL ISZERO DUP1 ISZERO PUSH2 0x9026 JUMPI RETURNDATASIZE PUSH1 0x0 DUP1 RETURNDATACOPY RETURNDATASIZE PUSH1 0x0 REVERT JUMPDEST POP POP POP POP PUSH1 0x40 MLOAD RETURNDATASIZE PUSH1 0x1F NOT PUSH1 0x1F DUP3 ADD AND DUP3 ADD DUP1 PUSH1 0x40 MSTORE POP DUP2 ADD SWAP1 PUSH2 0x904A SWAP2 SWAP1 PUSH2 0x9C85 JUMP JUMPDEST PUSH2 0x955F JUMP JUMPDEST PUSH1 0x1A SLOAD PUSH1 0x29 SLOAD PUSH1 0x40 DUP1 MLOAD PUSH4 0x189460DF PUSH1 0xE3 SHL DUP2 MSTORE SWAP1 MLOAD SWAP4 SWAP5 POP SWAP2 SWAP3 PUSH1 0x1 PUSH1 0x1 PUSH1 0xA0 SHL SUB SWAP1 SWAP2 AND SWAP2 PUSH4 0xC4A306F8 SWAP2 PUSH1 0x4 DUP1 DUP4 ADD SWAP3 PUSH1 0x20 SWAP3 SWAP2 SWAP1 DUP3 SWAP1 SUB ADD DUP2 DUP7 DUP1 EXTCODESIZE ISZERO DUP1 ISZERO PUSH2 0x909B JUMPI PUSH1 0x0 DUP1 REVERT JUMPDEST POP GAS STATICCALL ISZERO DUP1 ISZERO PUSH2 0x90AF JUMPI RETURNDATASIZE PUSH1 0x0 DUP1 RETURNDATACOPY RETURNDATASIZE PUSH1 0x0 REVERT JUMPDEST POP POP POP POP PUSH1 0x40 MLOAD RETURNDATASIZE PUSH1 0x1F NOT PUSH1 0x1F DUP3 ADD AND DUP3 ADD DUP1 PUSH1 0x40 MSTORE POP DUP2 ADD SWAP1 PUSH2 0x90D3 SWAP2 SWAP1 PUSH2 0x9C85 JUMP JUMPDEST PUSH1 0x1 SLOAD PUSH2 0x90E0 SWAP1 TIMESTAMP PUSH2 0xB469 JUMP JUMPDEST LT PUSH2 0x26FE JUMPI PUSH1 0x22 DUP1 SLOAD PUSH1 0x0 SWAP1 DUP2 MSTORE PUSH1 0x14 PUSH1 0x20 SWAP1 DUP2 MSTORE PUSH1 0x40 DUP1 DUP4 KECCAK256 PUSH1 0x3 ADD DUP7 SWAP1 SSTORE SWAP3 SLOAD DUP3 MSTORE DUP3 DUP3 KECCAK256 PUSH1 0x2 ADD DUP6 SWAP1 SSTORE PUSH1 0x29 SLOAD DUP4 MLOAD PUSH4 0x1B4930B5 PUSH1 0xE1 SHL DUP2 MSTORE SWAP4 MLOAD SWAP3 SWAP4 PUSH2 0x918F SWAP4 PUSH1 0x1 PUSH1 0x1 PUSH1 0xA0 SHL SUB SWAP1 SWAP3 AND SWAP3 PUSH4 0x3692616A SWAP3 PUSH1 0x4 DUP1 DUP5 ADD SWAP4 DUP3 SWAP1 SUB ADD DUP2 DUP7 DUP1 EXTCODESIZE ISZERO DUP1 ISZERO PUSH2 0x9150 JUMPI PUSH1 0x0 DUP1 REVERT JUMPDEST POP GAS STATICCALL ISZERO DUP1 ISZERO PUSH2 0x9164 JUMPI RETURNDATASIZE PUSH1 0x0 DUP1 RETURNDATACOPY RETURNDATASIZE PUSH1 0x0 REVERT JUMPDEST POP POP POP POP PUSH1 0x40 MLOAD RETURNDATASIZE PUSH1 0x1F NOT PUSH1 0x1F DUP3 ADD AND DUP3 ADD DUP1 PUSH1 0x40 MSTORE POP DUP2 ADD SWAP1 PUSH2 0x9188 SWAP2 SWAP1 PUSH2 0x9C85 JUMP JUMPDEST TIMESTAMP SWAP1 PUSH2 0x8EB0 JUMP JUMPDEST SWAP1 POP PUSH1 0x0 PUSH2 0x9223 PUSH1 0x29 PUSH1 0x0 SWAP1 SLOAD SWAP1 PUSH2 0x100 EXP SWAP1 DIV PUSH1 0x1 PUSH1 0x1 PUSH1 0xA0 SHL SUB AND PUSH1 0x1 PUSH1 0x1 PUSH1 0xA0 SHL SUB AND PUSH4 0x72E54030 PUSH1 0x40 MLOAD DUP2 PUSH4 0xFFFFFFFF AND PUSH1 0xE0 SHL DUP2 MSTORE PUSH1 0x4 ADD PUSH1 0x20 PUSH1 0x40 MLOAD DUP1 DUP4 SUB DUP2 DUP7 DUP1 EXTCODESIZE ISZERO DUP1 ISZERO PUSH2 0x91E4 JUMPI PUSH1 0x0 DUP1 REVERT JUMPDEST POP GAS STATICCALL ISZERO DUP1 ISZERO PUSH2 0x91F8 JUMPI RETURNDATASIZE PUSH1 0x0 DUP1 RETURNDATACOPY RETURNDATASIZE PUSH1 0x0 REVERT JUMPDEST POP POP POP POP PUSH1 0x40 MLOAD RETURNDATASIZE PUSH1 0x1F NOT PUSH1 0x1F DUP3 ADD AND DUP3 ADD DUP1 PUSH1 0x40 MSTORE POP DUP2 ADD SWAP1 PUSH2 0x921C SWAP2 SWAP1 PUSH2 0x9C85 JUMP JUMPDEST DUP4 SWAP1 PUSH2 0x8EB0 JUMP JUMPDEST PUSH1 0x22 DUP1 SLOAD PUSH1 0x0 SWAP1 DUP2 MSTORE PUSH1 0x14 PUSH1 0x20 MSTORE PUSH1 0x40 DUP1 DUP3 KECCAK256 PUSH1 0x5 ADD DUP7 SWAP1 SSTORE DUP3 SLOAD DUP3 MSTORE DUP1 DUP3 KECCAK256 PUSH1 0x6 ADD DUP5 SWAP1 SSTORE SWAP2 SLOAD DUP2 MSTORE KECCAK256 PUSH1 0x4 ADD DUP1 SLOAD PUSH3 0xFF0000 NOT AND PUSH3 0x10000 OR SWAP1 SSTORE SWAP1 POP PUSH1 0x1 DUP5 LT DUP1 ISZERO SWAP1 PUSH2 0x9274 JUMPI POP PUSH1 0x1 DUP4 LT ISZERO JUMPDEST PUSH2 0x9290 JUMPI PUSH1 0x40 MLOAD PUSH3 0x461BCD PUSH1 0xE5 SHL DUP2 MSTORE PUSH1 0x4 ADD PUSH2 0xE9F SWAP1 PUSH2 0xA411 JUMP JUMPDEST PUSH1 0x0 PUSH2 0x929C DUP6 DUP6 PUSH2 0x43AC JUMP JUMPDEST SWAP1 POP PUSH1 0x0 DUP2 MLOAD PUSH1 0x1 PUSH1 0x1 PUSH1 0x40 SHL SUB DUP2 GT ISZERO PUSH2 0x92C7 JUMPI PUSH4 0x4E487B71 PUSH1 0xE0 SHL PUSH1 0x0 MSTORE PUSH1 0x41 PUSH1 0x4 MSTORE PUSH1 0x24 PUSH1 0x0 REVERT JUMPDEST PUSH1 0x40 MLOAD SWAP1 DUP1 DUP3 MSTORE DUP1 PUSH1 0x20 MUL PUSH1 0x20 ADD DUP3 ADD PUSH1 0x40 MSTORE DUP1 ISZERO PUSH2 0x92F0 JUMPI DUP2 PUSH1 0x20 ADD PUSH1 0x20 DUP3 MUL DUP1 CALLDATASIZE DUP4 CALLDATACOPY ADD SWAP1 POP JUMPDEST POP SWAP1 POP PUSH1 0x0 JUMPDEST DUP3 MLOAD DUP2 LT ISZERO PUSH2 0x93AF JUMPI PUSH1 0x1A DUP4 DUP3 DUP2 MLOAD DUP2 LT PUSH2 0x9321 JUMPI PUSH4 0x4E487B71 PUSH1 0xE0 SHL PUSH1 0x0 MSTORE PUSH1 0x32 PUSH1 0x4 MSTORE PUSH1 0x24 PUSH1 0x0 REVERT JUMPDEST PUSH1 0x20 MUL PUSH1 0x20 ADD ADD MLOAD DUP2 SLOAD DUP2 LT PUSH2 0x9347 JUMPI PUSH4 0x4E487B71 PUSH1 0xE0 SHL PUSH1 0x0 MSTORE PUSH1 0x32 PUSH1 0x4 MSTORE PUSH1 0x24 PUSH1 0x0 REVERT JUMPDEST SWAP1 PUSH1 0x0 MSTORE PUSH1 0x20 PUSH1 0x0 KECCAK256 ADD PUSH1 0x0 SWAP1 SLOAD SWAP1 PUSH2 0x100 EXP SWAP1 DIV PUSH1 0x1 PUSH1 0x1 PUSH1 0xA0 SHL SUB AND DUP3 DUP3 DUP2 MLOAD DUP2 LT PUSH2 0x9385 JUMPI PUSH4 0x4E487B71 PUSH1 0xE0 SHL PUSH1 0x0 MSTORE PUSH1 0x32 PUSH1 0x4 MSTORE PUSH1 0x24 PUSH1 0x0 REVERT JUMPDEST PUSH1 0x1 PUSH1 0x1 PUSH1 0xA0 SHL SUB SWAP1 SWAP3 AND PUSH1 0x20 SWAP3 DUP4 MUL SWAP2 SWAP1 SWAP2 ADD SWAP1 SWAP2 ADD MSTORE DUP1 PUSH2 0x93A7 DUP2 PUSH2 0xB4E7 JUMP JUMPDEST SWAP2 POP POP PUSH2 0x92F6 JUMP JUMPDEST POP PUSH1 0x0 JUMPDEST DUP3 MLOAD DUP2 LT ISZERO PUSH2 0x9517 JUMPI PUSH1 0x0 DUP3 DUP3 DUP2 MLOAD DUP2 LT PUSH2 0x93DE JUMPI PUSH4 0x4E487B71 PUSH1 0xE0 SHL PUSH1 0x0 MSTORE PUSH1 0x32 PUSH1 0x4 MSTORE PUSH1 0x24 PUSH1 0x0 REVERT JUMPDEST PUSH1 0x20 MUL PUSH1 0x20 ADD ADD MLOAD SWAP1 POP PUSH1 0x0 PUSH1 0x15 PUSH1 0x0 DUP4 PUSH1 0x1 PUSH1 0x1 PUSH1 0xA0 SHL SUB AND PUSH1 0x1 PUSH1 0x1 PUSH1 0xA0 SHL SUB AND DUP2 MSTORE PUSH1 0x20 ADD SWAP1 DUP2 MSTORE PUSH1 0x20 ADD PUSH1 0x0 KECCAK256 SWAP1 POP PUSH2 0x941A DUP3 PUSH2 0x6A2B JUMP JUMPDEST PUSH2 0x9423 DUP3 PUSH2 0x96B5 JUMP JUMPDEST PUSH2 0x9473 JUMPI PUSH1 0x1B DUP1 SLOAD PUSH1 0x1 DUP2 ADD DUP3 SSTORE PUSH1 0x0 SWAP2 SWAP1 SWAP2 MSTORE PUSH32 0x3AD8AA4F87544323A9D1E5DD902F40C356527A7955687113DB5F9A85AD579DC1 ADD DUP1 SLOAD PUSH1 0x1 PUSH1 0x1 PUSH1 0xA0 SHL SUB NOT AND PUSH1 0x1 PUSH1 0x1 PUSH1 0xA0 SHL SUB DUP5 AND OR SWAP1 SSTORE JUMPDEST PUSH1 0x22 DUP1 SLOAD PUSH1 0x0 SWAP1 DUP2 MSTORE PUSH1 0x19 PUSH1 0x20 SWAP1 DUP2 MSTORE PUSH1 0x40 DUP1 DUP4 KECCAK256 DUP1 SLOAD PUSH1 0x1 DUP1 DUP3 ADD DUP4 SSTORE SWAP2 DUP6 MSTORE SWAP3 SWAP1 SWAP4 KECCAK256 SWAP1 SWAP2 ADD DUP1 SLOAD PUSH1 0x1 PUSH1 0x1 PUSH1 0xA0 SHL SUB NOT AND PUSH1 0x1 PUSH1 0x1 PUSH1 0xA0 SHL SUB DUP8 AND OR SWAP1 SSTORE DUP3 SLOAD SWAP2 DUP5 ADD SWAP2 SWAP1 SWAP2 SSTORE PUSH1 0x2 DUP4 ADD DUP1 SLOAD PUSH1 0xFF NOT AND SWAP1 SSTORE SWAP1 SLOAD SWAP1 MLOAD PUSH32 0xE4EE2DFABE57CEE15E3F558890B20455F54C1FA0718E5276FAAD70A6500E6B8C SWAP1 PUSH2 0x94FA SWAP1 DUP6 SWAP1 PUSH2 0x9EE8 JUMP JUMPDEST PUSH1 0x40 MLOAD DUP1 SWAP2 SUB SWAP1 LOG2 POP POP DUP1 DUP1 PUSH2 0x950F SWAP1 PUSH2 0xB4E7 JUMP JUMPDEST SWAP2 POP POP PUSH2 0x93B3 JUMP JUMPDEST POP TIMESTAMP PUSH1 0x1 SWAP1 DUP2 SSTORE PUSH1 0x22 SLOAD PUSH2 0x952A SWAP2 PUSH2 0x8EB0 JUMP JUMPDEST PUSH1 0x22 SSTORE PUSH2 0x9535 PUSH2 0x3E98 JUMP JUMPDEST PUSH1 0x1D DUP2 SWAP1 SSTORE POP PUSH1 0x1 PUSH1 0x23 PUSH1 0x0 DUP3 DUP3 SLOAD PUSH2 0x954E SWAP2 SWAP1 PUSH2 0xB41E JUMP JUMPDEST SWAP1 SWAP2 SSTORE POP POP POP POP POP POP POP POP JUMP JUMPDEST CALLER SWAP1 JUMP JUMPDEST PUSH1 0x0 DUP2 DUP4 LT ISZERO PUSH2 0x956F JUMPI DUP2 PUSH2 0x1069 JUMP JUMPDEST POP SWAP1 SWAP2 SWAP1 POP JUMP JUMPDEST PUSH1 0x0 DUP2 DUP4 LT PUSH2 0x956F JUMPI DUP2 PUSH2 0x1069 JUMP JUMPDEST PUSH1 0x0 DUP1 PUSH1 0x0 JUMPDEST PUSH1 0x1C SLOAD DUP2 LT ISZERO PUSH2 0x95F9 JUMPI DUP4 PUSH1 0x1 PUSH1 0x1 PUSH1 0xA0 SHL SUB AND PUSH1 0x1C DUP3 DUP2 SLOAD DUP2 LT PUSH2 0x95C0 JUMPI PUSH4 0x4E487B71 PUSH1 0xE0 SHL PUSH1 0x0 MSTORE PUSH1 0x32 PUSH1 0x4 MSTORE PUSH1 0x24 PUSH1 0x0 REVERT JUMPDEST PUSH1 0x0 SWAP2 DUP3 MSTORE PUSH1 0x20 SWAP1 SWAP2 KECCAK256 ADD SLOAD PUSH1 0x1 PUSH1 0x1 PUSH1 0xA0 SHL SUB AND EQ ISZERO PUSH2 0x95E7 JUMPI PUSH1 0x1 SWAP2 POP DUP1 SWAP3 POP PUSH2 0x95F9 JUMP JUMPDEST DUP1 PUSH2 0x95F1 DUP2 PUSH2 0xB4E7 JUMP JUMPDEST SWAP2 POP POP PUSH2 0x958B JUMP JUMPDEST POP DUP1 ISZERO PUSH2 0x6B7E JUMPI PUSH1 0x1C DUP1 SLOAD PUSH2 0x9610 SWAP1 PUSH1 0x1 SWAP1 PUSH2 0xB469 JUMP JUMPDEST DUP2 SLOAD DUP2 LT PUSH2 0x962E JUMPI PUSH4 0x4E487B71 PUSH1 0xE0 SHL PUSH1 0x0 MSTORE PUSH1 0x32 PUSH1 0x4 MSTORE PUSH1 0x24 PUSH1 0x0 REVERT JUMPDEST PUSH1 0x0 SWAP2 DUP3 MSTORE PUSH1 0x20 SWAP1 SWAP2 KECCAK256 ADD SLOAD PUSH1 0x1C DUP1 SLOAD PUSH1 0x1 PUSH1 0x1 PUSH1 0xA0 SHL SUB SWAP1 SWAP3 AND SWAP2 DUP5 SWAP1 DUP2 LT PUSH2 0x9668 JUMPI PUSH4 0x4E487B71 PUSH1 0xE0 SHL PUSH1 0x0 MSTORE PUSH1 0x32 PUSH1 0x4 MSTORE PUSH1 0x24 PUSH1 0x0 REVERT JUMPDEST SWAP1 PUSH1 0x0 MSTORE PUSH1 0x20 PUSH1 0x0 KECCAK256 ADD PUSH1 0x0 PUSH2 0x100 EXP DUP2 SLOAD DUP2 PUSH1 0x1 PUSH1 0x1 PUSH1 0xA0 SHL SUB MUL NOT AND SWAP1 DUP4 PUSH1 0x1 PUSH1 0x1 PUSH1 0xA0 SHL SUB AND MUL OR SWAP1 SSTORE POP PUSH1 0x1C DUP1 SLOAD DUP1 PUSH2 0x6B5B JUMPI PUSH4 0x4E487B71 PUSH1 0xE0 SHL PUSH1 0x0 MSTORE PUSH1 0x31 PUSH1 0x4 MSTORE PUSH1 0x24 PUSH1 0x0 REVERT JUMPDEST PUSH1 0x0 DUP1 DUP1 JUMPDEST PUSH1 0x1B SLOAD DUP2 LT ISZERO PUSH2 0x6A24 JUMPI DUP4 PUSH1 0x1 PUSH1 0x1 PUSH1 0xA0 SHL SUB AND PUSH1 0x1B DUP3 DUP2 SLOAD DUP2 LT PUSH2 0x96EF JUMPI PUSH4 0x4E487B71 PUSH1 0xE0 SHL PUSH1 0x0 MSTORE PUSH1 0x32 PUSH1 0x4 MSTORE PUSH1 0x24 PUSH1 0x0 REVERT JUMPDEST PUSH1 0x0 SWAP2 DUP3 MSTORE PUSH1 0x20 SWAP1 SWAP2 KECCAK256 ADD SLOAD PUSH1 0x1 PUSH1 0x1 PUSH1 0xA0 SHL SUB AND EQ ISZERO PUSH2 0x9713 JUMPI PUSH1 0x1 SWAP2 POP PUSH2 0x6A24 JUMP JUMPDEST DUP1 PUSH2 0x971D DUP2 PUSH2 0xB4E7 JUMP JUMPDEST SWAP2 POP POP PUSH2 0x96BA JUMP JUMPDEST POP DUP1 SLOAD PUSH2 0x9731 SWAP1 PUSH2 0xB4AC JUMP JUMPDEST PUSH1 0x0 DUP3 SSTORE DUP1 PUSH1 0x1F LT PUSH2 0x9743 JUMPI POP PUSH2 0x176A JUMP JUMPDEST PUSH1 0x1F ADD PUSH1 0x20 SWAP1 DIV SWAP1 PUSH1 0x0 MSTORE PUSH1 0x20 PUSH1 0x0 KECCAK256 SWAP1 DUP2 ADD SWAP1 PUSH2 0x176A SWAP2 SWAP1 PUSH2 0x98D7 JUMP JUMPDEST PUSH1 0x40 MLOAD DUP1 PUSH1 0xE0 ADD PUSH1 0x40 MSTORE DUP1 PUSH1 0x60 DUP2 MSTORE PUSH1 0x20 ADD PUSH1 0x0 PUSH1 0x1 PUSH1 0x1 PUSH1 0xA0 SHL SUB AND DUP2 MSTORE PUSH1 0x20 ADD PUSH1 0x0 DUP2 MSTORE PUSH1 0x20 ADD PUSH1 0x0 DUP2 MSTORE PUSH1 0x20 ADD PUSH1 0x60 DUP2 MSTORE PUSH1 0x20 ADD PUSH1 0x60 DUP2 MSTORE PUSH1 0x20 ADD PUSH1 0x0 PUSH1 0x3 DUP2 GT ISZERO PUSH2 0x97C0 JUMPI PUSH4 0x4E487B71 PUSH1 0xE0 SHL PUSH1 0x0 MSTORE PUSH1 0x21 PUSH1 0x4 MSTORE PUSH1 0x24 PUSH1 0x0 REVERT JUMPDEST SWAP1 MSTORE SWAP1 JUMP JUMPDEST DUP3 DUP1 SLOAD PUSH2 0x97D1 SWAP1 PUSH2 0xB4AC JUMP JUMPDEST SWAP1 PUSH1 0x0 MSTORE PUSH1 0x20 PUSH1 0x0 KECCAK256 SWAP1 PUSH1 0x1F ADD PUSH1 0x20 SWAP1 DIV DUP2 ADD SWAP3 DUP3 PUSH2 0x97F3 JUMPI PUSH1 0x0 DUP6 SSTORE PUSH2 0x9839 JUMP JUMPDEST DUP3 PUSH1 0x1F LT PUSH2 0x980C JUMPI DUP1 MLOAD PUSH1 0xFF NOT AND DUP4 DUP1 ADD OR DUP6 SSTORE PUSH2 0x9839 JUMP JUMPDEST DUP3 DUP1 ADD PUSH1 0x1 ADD DUP6 SSTORE DUP3 ISZERO PUSH2 0x9839 JUMPI SWAP2 DUP3 ADD JUMPDEST DUP3 DUP2 GT ISZERO PUSH2 0x9839 JUMPI DUP3 MLOAD DUP3 SSTORE SWAP2 PUSH1 0x20 ADD SWAP2 SWAP1 PUSH1 0x1 ADD SWAP1 PUSH2 0x981E JUMP JUMPDEST POP PUSH2 0x9845 SWAP3 SWAP2 POP PUSH2 0x98D7 JUMP JUMPDEST POP SWAP1 JUMP JUMPDEST PUSH1 0x40 MLOAD DUP1 PUSH2 0x1C0 ADD PUSH1 0x40 MSTORE DUP1 PUSH1 0x0 DUP2 MSTORE PUSH1 0x20 ADD PUSH1 0x0 DUP2 MSTORE PUSH1 0x20 ADD PUSH1 0x0 DUP2 MSTORE PUSH1 0x20 ADD PUSH1 0x0 DUP2 MSTORE PUSH1 0x20 ADD PUSH1 0x0 ISZERO ISZERO DUP2 MSTORE PUSH1 0x20 ADD PUSH1 0x0 ISZERO ISZERO DUP2 MSTORE PUSH1 0x20 ADD PUSH1 0x0 ISZERO ISZERO DUP2 MSTORE PUSH1 0x20 ADD PUSH1 0x0 DUP2 MSTORE PUSH1 0x20 ADD PUSH1 0x0 DUP2 MSTORE PUSH1 0x20 ADD PUSH1 0x0 DUP2 MSTORE PUSH1 0x20 ADD PUSH1 0x0 DUP2 MSTORE PUSH1 0x20 ADD PUSH1 0x60 DUP2 MSTORE PUSH1 0x20 ADD PUSH1 0x0 DUP2 MSTORE PUSH1 0x20 ADD PUSH1 0x0 PUSH1 0x3 DUP2 GT ISZERO PUSH2 0x97C0 JUMPI PUSH4 0x4E487B71 PUSH1 0xE0 SHL PUSH1 0x0 MSTORE PUSH1 0x21 PUSH1 0x4 MSTORE PUSH1 0x24 PUSH1 0x0 REVERT JUMPDEST JUMPDEST DUP1 DUP3 GT ISZERO PUSH2 0x9845 JUMPI PUSH1 0x0 DUP2 SSTORE PUSH1 0x1 ADD PUSH2 0x98D8 JUMP JUMPDEST PUSH1 0x0 DUP1 DUP4 PUSH1 0x1F DUP5 ADD SLT PUSH2 0x98FD JUMPI DUP2 DUP3 REVERT JUMPDEST POP DUP2 CALLDATALOAD PUSH1 0x1 PUSH1 0x1 PUSH1 0x40 SHL SUB DUP2 GT ISZERO PUSH2 0x9913 JUMPI DUP2 DUP3 REVERT JUMPDEST PUSH1 0x20 DUP4 ADD SWAP2 POP DUP4 PUSH1 0x20 DUP1 DUP4 MUL DUP6 ADD ADD GT ISZERO PUSH2 0x992D JUMPI PUSH1 0x0 DUP1 REVERT JUMPDEST SWAP3 POP SWAP3 SWAP1 POP JUMP JUMPDEST PUSH1 0x0 DUP3 PUSH1 0x1F DUP4 ADD SLT PUSH2 0x9944 JUMPI DUP1 DUP2 REVERT JUMPDEST DUP2 CALLDATALOAD PUSH1 0x1 PUSH1 0x1 PUSH1 0x40 SHL SUB DUP2 GT ISZERO PUSH2 0x995D JUMPI PUSH2 0x995D PUSH2 0xB542 JUMP JUMPDEST PUSH2 0x9970 PUSH1 0x1F DUP3 ADD PUSH1 0x1F NOT AND PUSH1 0x20 ADD PUSH2 0xB3C6 JUMP JUMPDEST DUP2 DUP2 MSTORE DUP5 PUSH1 0x20 DUP4 DUP7 ADD ADD GT ISZERO PUSH2 0x9984 JUMPI DUP3 DUP4 REVERT JUMPDEST DUP2 PUSH1 0x20 DUP6 ADD PUSH1 0x20 DUP4 ADD CALLDATACOPY SWAP1 DUP2 ADD PUSH1 0x20 ADD SWAP2 SWAP1 SWAP2 MSTORE SWAP3 SWAP2 POP POP JUMP JUMPDEST PUSH1 0x0 PUSH1 0x20 DUP3 DUP5 SUB SLT ISZERO PUSH2 0x99AF JUMPI DUP1 DUP2 REVERT JUMPDEST DUP2 CALLDATALOAD PUSH2 0x1903 DUP2 PUSH2 0xB558 JUMP JUMPDEST PUSH1 0x0 PUSH1 0x20 DUP3 DUP5 SUB SLT ISZERO PUSH2 0x99CB JUMPI DUP1 DUP2 REVERT JUMPDEST DUP2 MLOAD PUSH2 0x1903 DUP2 PUSH2 0xB558 JUMP JUMPDEST PUSH1 0x0 DUP1 PUSH1 0x40 DUP4 DUP6 SUB SLT ISZERO PUSH2 0x99E8 JUMPI DUP1 DUP2 REVERT JUMPDEST DUP3 CALLDATALOAD PUSH2 0x99F3 DUP2 PUSH2 0xB558 JUMP JUMPDEST SWAP5 PUSH1 0x20 SWAP4 SWAP1 SWAP4 ADD CALLDATALOAD SWAP4 POP POP POP JUMP JUMPDEST PUSH1 0x0 DUP1 PUSH1 0x0 PUSH1 0x60 DUP5 DUP7 SUB SLT ISZERO PUSH2 0x9A15 JUMPI DUP1 DUP2 REVERT JUMPDEST DUP4 CALLDATALOAD PUSH2 0x9A20 DUP2 PUSH2 0xB558 JUMP JUMPDEST SWAP6 PUSH1 0x20 DUP6 ADD CALLDATALOAD SWAP6 POP PUSH1 0x40 SWAP1 SWAP5 ADD CALLDATALOAD SWAP4 SWAP3 POP POP POP JUMP JUMPDEST PUSH1 0x0 DUP1 PUSH1 0x0 DUP1 PUSH1 0x0 PUSH1 0x80 DUP7 DUP9 SUB SLT ISZERO PUSH2 0x9A4C JUMPI DUP1 DUP2 REVERT JUMPDEST DUP6 CALLDATALOAD PUSH1 0x1 PUSH1 0x1 PUSH1 0x40 SHL SUB DUP1 DUP3 GT ISZERO PUSH2 0x9A62 JUMPI DUP3 DUP4 REVERT JUMPDEST DUP2 DUP9 ADD SWAP2 POP DUP9 PUSH1 0x1F DUP4 ADD SLT PUSH2 0x9A75 JUMPI DUP3 DUP4 REVERT JUMPDEST DUP2 CALLDATALOAD PUSH1 0x20 PUSH2 0x9A8A PUSH2 0x9A85 DUP4 PUSH2 0xB3EF JUMP JUMPDEST PUSH2 0xB3C6 JUMP JUMPDEST DUP3 DUP2 MSTORE DUP2 DUP2 ADD SWAP1 DUP6 DUP4 ADD DUP8 JUMPDEST DUP6 DUP2 LT ISZERO PUSH2 0x9ABF JUMPI PUSH2 0x9AAD DUP16 DUP7 DUP5 CALLDATALOAD DUP12 ADD ADD PUSH2 0x9934 JUMP JUMPDEST DUP5 MSTORE SWAP3 DUP5 ADD SWAP3 SWAP1 DUP5 ADD SWAP1 PUSH1 0x1 ADD PUSH2 0x9A96 JUMP JUMPDEST POP SWAP1 SWAP11 POP POP POP DUP10 ADD CALLDATALOAD SWAP3 POP POP DUP1 DUP3 GT ISZERO PUSH2 0x9AD7 JUMPI DUP3 DUP4 REVERT JUMPDEST PUSH2 0x9AE3 DUP10 DUP4 DUP11 ADD PUSH2 0x98EC JUMP JUMPDEST SWAP1 SWAP7 POP SWAP5 POP PUSH1 0x40 DUP9 ADD CALLDATALOAD SWAP4 POP PUSH1 0x60 DUP9 ADD CALLDATALOAD SWAP2 POP DUP1 DUP3 GT ISZERO PUSH2 0x9B02 JUMPI DUP3 DUP4 REVERT JUMPDEST POP PUSH2 0x9B0F DUP9 DUP3 DUP10 ADD PUSH2 0x9934 JUMP JUMPDEST SWAP2 POP POP SWAP3 SWAP6 POP SWAP3 SWAP6 SWAP1 SWAP4 POP JUMP JUMPDEST PUSH1 0x0 PUSH1 0x20 DUP1 DUP4 DUP6 SUB SLT ISZERO PUSH2 0x9B2E JUMPI DUP2 DUP3 REVERT JUMPDEST DUP3 CALLDATALOAD PUSH1 0x1 PUSH1 0x1 PUSH1 0x40 SHL SUB DUP2 GT ISZERO PUSH2 0x9B43 JUMPI DUP3 DUP4 REVERT JUMPDEST DUP4 ADD PUSH1 0x1F DUP2 ADD DUP6 SGT PUSH2 0x9B53 JUMPI DUP3 DUP4 REVERT JUMPDEST DUP1 CALLDATALOAD PUSH2 0x9B61 PUSH2 0x9A85 DUP3 PUSH2 0xB3EF JUMP JUMPDEST DUP2 DUP2 MSTORE DUP4 DUP2 ADD SWAP1 DUP4 DUP6 ADD DUP6 DUP5 MUL DUP6 ADD DUP7 ADD DUP10 LT ISZERO PUSH2 0x9B7D JUMPI DUP7 DUP8 REVERT JUMPDEST DUP7 SWAP5 POP JUMPDEST DUP4 DUP6 LT ISZERO PUSH2 0x9B9F JUMPI DUP1 CALLDATALOAD DUP4 MSTORE PUSH1 0x1 SWAP5 SWAP1 SWAP5 ADD SWAP4 SWAP2 DUP6 ADD SWAP2 DUP6 ADD PUSH2 0x9B81 JUMP JUMPDEST POP SWAP8 SWAP7 POP POP POP POP POP POP POP JUMP JUMPDEST PUSH1 0x0 PUSH1 0x20 DUP3 DUP5 SUB SLT ISZERO PUSH2 0x9BBC JUMPI DUP1 DUP2 REVERT JUMPDEST DUP2 MLOAD DUP1 ISZERO ISZERO DUP2 EQ PUSH2 0x1903 JUMPI DUP2 DUP3 REVERT JUMPDEST PUSH1 0x0 DUP1 PUSH1 0x40 DUP4 DUP6 SUB SLT ISZERO PUSH2 0x9BDD JUMPI DUP2 DUP3 REVERT JUMPDEST DUP3 CALLDATALOAD PUSH1 0x1 PUSH1 0x1 PUSH1 0x40 SHL SUB DUP1 DUP3 GT ISZERO PUSH2 0x9BF3 JUMPI DUP4 DUP5 REVERT JUMPDEST PUSH2 0x9BFF DUP7 DUP4 DUP8 ADD PUSH2 0x9934 JUMP JUMPDEST SWAP4 POP PUSH1 0x20 DUP6 ADD CALLDATALOAD SWAP2 POP DUP1 DUP3 GT ISZERO PUSH2 0x9C14 JUMPI DUP3 DUP4 REVERT JUMPDEST POP PUSH2 0x9C21 DUP6 DUP3 DUP7 ADD PUSH2 0x9934 JUMP JUMPDEST SWAP2 POP POP SWAP3 POP SWAP3 SWAP1 POP JUMP JUMPDEST PUSH1 0x0 DUP1 PUSH1 0x40 DUP4 DUP6 SUB SLT ISZERO PUSH2 0x9C3D JUMPI DUP2 DUP3 REVERT JUMPDEST DUP3 CALLDATALOAD PUSH1 0x1 PUSH1 0x1 PUSH1 0x40 SHL SUB DUP2 GT ISZERO PUSH2 0x9C52 JUMPI DUP3 DUP4 REVERT JUMPDEST PUSH2 0x9C5E DUP6 DUP3 DUP7 ADD PUSH2 0x9934 JUMP JUMPDEST SWAP6 PUSH1 0x20 SWAP5 SWAP1 SWAP5 ADD CALLDATALOAD SWAP5 POP POP POP POP JUMP JUMPDEST PUSH1 0x0 PUSH1 0x20 DUP3 DUP5 SUB SLT ISZERO PUSH2 0x9C7E JUMPI DUP1 DUP2 REVERT JUMPDEST POP CALLDATALOAD SWAP2 SWAP1 POP JUMP JUMPDEST PUSH1 0x0 PUSH1 0x20 DUP3 DUP5 SUB SLT ISZERO PUSH2 0x1A31 JUMPI DUP1 DUP2 REVERT JUMPDEST PUSH1 0x0 DUP1 PUSH1 0x40 DUP4 DUP6 SUB SLT ISZERO PUSH2 0x9CA8 JUMPI DUP2 DUP3 REVERT JUMPDEST DUP3 CALLDATALOAD SWAP2 POP PUSH1 0x20 DUP4 ADD CALLDATALOAD PUSH2 0x9CBA DUP2 PUSH2 0xB558 JUMP JUMPDEST DUP1 SWAP2 POP POP SWAP3 POP SWAP3 SWAP1 POP JUMP JUMPDEST PUSH1 0x0 DUP1 PUSH1 0x0 DUP1 PUSH1 0x0 PUSH1 0xA0 DUP7 DUP9 SUB SLT ISZERO PUSH2 0x9CDC JUMPI DUP3 DUP4 REVERT JUMPDEST DUP6 CALLDATALOAD SWAP5 POP PUSH1 0x20 DUP7 ADD CALLDATALOAD SWAP4 POP PUSH1 0x40 DUP7 ADD CALLDATALOAD SWAP3 POP PUSH1 0x60 DUP7 ADD CALLDATALOAD SWAP2 POP PUSH1 0x80 DUP7 ADD CALLDATALOAD PUSH1 0x1 PUSH1 0x1 PUSH1 0x40 SHL SUB DUP2 GT ISZERO PUSH2 0x9D0D JUMPI DUP2 DUP3 REVERT JUMPDEST PUSH2 0x9B0F DUP9 DUP3 DUP10 ADD PUSH2 0x9934 JUMP JUMPDEST PUSH1 0x0 DUP1 PUSH1 0x0 DUP1 PUSH1 0x80 DUP6 DUP8 SUB SLT ISZERO PUSH2 0x9D2E JUMPI DUP2 DUP3 REVERT JUMPDEST DUP5 CALLDATALOAD SWAP4 POP PUSH1 0x20 DUP6 ADD CALLDATALOAD PUSH1 0x1 PUSH1 0x1 PUSH1 0x40 SHL SUB DUP2 GT ISZERO PUSH2 0x9D4A JUMPI DUP3 DUP4 REVERT JUMPDEST PUSH2 0x9D56 DUP8 DUP3 DUP9 ADD PUSH2 0x9934 JUMP JUMPDEST SWAP5 SWAP8 SWAP5 SWAP7 POP POP POP POP PUSH1 0x40 DUP4 ADD CALLDATALOAD SWAP3 PUSH1 0x60 ADD CALLDATALOAD SWAP2 SWAP1 POP JUMP JUMPDEST PUSH1 0x0 DUP1 PUSH1 0x40 DUP4 DUP6 SUB SLT ISZERO PUSH2 0x9D7F JUMPI DUP2 DUP3 REVERT JUMPDEST POP POP DUP1 CALLDATALOAD SWAP3 PUSH1 0x20 SWAP1 SWAP2 ADD CALLDATALOAD SWAP2 POP JUMP JUMPDEST PUSH1 0x0 DUP1 PUSH1 0x0 DUP1 PUSH1 0x80 DUP6 DUP8 SUB SLT ISZERO PUSH2 0x9DA3 JUMPI DUP2 DUP3 REVERT JUMPDEST DUP5 CALLDATALOAD SWAP4 POP PUSH1 0x20 DUP6 ADD CALLDATALOAD SWAP3 POP PUSH1 0x40 DUP6 ADD CALLDATALOAD PUSH2 0x9DBC DUP2 PUSH2 0xB558 JUMP JUMPDEST SWAP4 SWAP7 SWAP3 SWAP6 POP SWAP3 SWAP4 PUSH1 0x60 ADD CALLDATALOAD SWAP3 POP POP JUMP JUMPDEST ISZERO ISZERO SWAP1 MSTORE JUMP JUMPDEST PUSH1 0x0 DUP2 MLOAD DUP1 DUP5 MSTORE PUSH2 0x9DEA DUP2 PUSH1 0x20 DUP7 ADD PUSH1 0x20 DUP7 ADD PUSH2 0xB480 JUMP JUMPDEST PUSH1 0x1F ADD PUSH1 0x1F NOT AND SWAP3 SWAP1 SWAP3 ADD PUSH1 0x20 ADD SWAP3 SWAP2 POP POP JUMP JUMPDEST PUSH1 0x4 DUP2 LT PUSH2 0x9E1C JUMPI PUSH4 0x4E487B71 PUSH1 0xE0 SHL PUSH1 0x0 MSTORE PUSH1 0x21 PUSH1 0x4 MSTORE PUSH1 0x24 PUSH1 0x0 REVERT JUMPDEST SWAP1 MSTORE JUMP JUMPDEST PUSH1 0xA DUP2 MSTORE PUSH10 0x636F6D6D6974566F7465 PUSH1 0xB0 SHL PUSH1 0x20 DUP3 ADD MSTORE PUSH1 0x40 ADD SWAP1 JUMP JUMPDEST PUSH1 0xA DUP2 MSTORE PUSH10 0xC6DEDADAD2E890C2E6D PUSH1 0xB3 SHL PUSH1 0x20 DUP3 ADD MSTORE PUSH1 0x40 ADD SWAP1 JUMP JUMPDEST PUSH1 0x9 DUP2 MSTORE PUSH9 0x6E756D546F6B656E73 PUSH1 0xB8 SHL PUSH1 0x20 DUP3 ADD MSTORE PUSH1 0x40 ADD SWAP1 JUMP JUMPDEST PUSH1 0x60 SWAP2 SWAP1 SWAP2 SHL PUSH12 0xFFFFFFFFFFFFFFFFFFFFFFFF NOT AND DUP2 MSTORE PUSH1 0x14 ADD SWAP1 JUMP JUMPDEST PUSH1 0x60 SWAP3 SWAP1 SWAP3 SHL PUSH12 0xFFFFFFFFFFFFFFFFFFFFFFFF NOT AND DUP3 MSTORE PUSH1 0x14 DUP3 ADD MSTORE PUSH1 0x34 ADD SWAP1 JUMP JUMPDEST SWAP1 DUP2 MSTORE PUSH1 0x20 ADD SWAP1 JUMP JUMPDEST PUSH1 0x0 DUP3 MLOAD PUSH2 0x9ED0 DUP2 DUP5 PUSH1 0x20 DUP8 ADD PUSH2 0xB480 JUMP JUMPDEST SWAP2 SWAP1 SWAP2 ADD SWAP3 SWAP2 POP POP JUMP JUMPDEST SWAP2 DUP3 MSTORE PUSH1 0x20 DUP3 ADD MSTORE PUSH1 0x40 ADD SWAP1 JUMP JUMPDEST PUSH1 0x1 PUSH1 0x1 PUSH1 0xA0 SHL SUB SWAP2 SWAP1 SWAP2 AND DUP2 MSTORE PUSH1 0x20 ADD SWAP1 JUMP JUMPDEST PUSH1 0x1 PUSH1 0x1 PUSH1 0xA0 SHL SUB SWAP11 SWAP1 SWAP11 AND DUP11 MSTORE PUSH1 0x20 DUP11 ADD SWAP9 SWAP1 SWAP9 MSTORE SWAP6 ISZERO ISZERO PUSH1 0x40 DUP10 ADD MSTORE PUSH1 0x60 DUP9 ADD SWAP5 SWAP1 SWAP5 MSTORE PUSH1 0x80 DUP8 ADD SWAP3 SWAP1 SWAP3 MSTORE ISZERO ISZERO PUSH1 0xA0 DUP7 ADD MSTORE ISZERO ISZERO PUSH1 0xC0 DUP6 ADD MSTORE PUSH1 0xE0 DUP5 ADD MSTORE PUSH2 0x100 DUP4 ADD MSTORE PUSH2 0x120 DUP3 ADD MSTORE PUSH2 0x140 ADD SWAP1 JUMP JUMPDEST PUSH1 0x0 PUSH1 0x20 DUP1 DUP4 ADD DUP2 DUP5 MSTORE DUP1 DUP6 MLOAD DUP1 DUP4 MSTORE PUSH1 0x40 DUP7 ADD SWAP2 POP PUSH1 0x40 DUP5 DUP3 MUL DUP8 ADD ADD SWAP3 POP DUP4 DUP8 ADD DUP6 JUMPDEST DUP3 DUP2 LT ISZERO PUSH2 0x9FA3 JUMPI PUSH1 0x3F NOT DUP9 DUP7 SUB ADD DUP5 MSTORE PUSH2 0x9F91 DUP6 DUP4 MLOAD PUSH2 0x9DD2 JUMP JUMPDEST SWAP5 POP SWAP3 DUP6 ADD SWAP3 SWAP1 DUP6 ADD SWAP1 PUSH1 0x1 ADD PUSH2 0x9F75 JUMP JUMPDEST POP SWAP3 SWAP8 SWAP7 POP POP POP POP POP POP POP JUMP JUMPDEST PUSH1 0x20 DUP1 DUP3 MSTORE DUP3 MLOAD DUP3 DUP3 ADD DUP2 SWAP1 MSTORE PUSH1 0x0 SWAP2 SWAP1 DUP5 DUP3 ADD SWAP1 PUSH1 0x40 DUP6 ADD SWAP1 DUP5 JUMPDEST DUP2 DUP2 LT ISZERO PUSH2 0x3653 JUMPI DUP4 MLOAD DUP4 MSTORE SWAP3 DUP5 ADD SWAP3 SWAP2 DUP5 ADD SWAP2 PUSH1 0x1 ADD PUSH2 0x9FCC JUMP JUMPDEST SWAP1 ISZERO ISZERO DUP2 MSTORE PUSH1 0x20 ADD SWAP1 JUMP JUMPDEST PUSH1 0x0 PUSH1 0x20 DUP3 MSTORE PUSH2 0x1069 PUSH1 0x20 DUP4 ADD DUP5 PUSH2 0x9DD2 JUMP JUMPDEST PUSH1 0x0 PUSH1 0xE0 DUP3 MSTORE PUSH2 0xA019 PUSH1 0xE0 DUP4 ADD DUP11 PUSH2 0x9DD2 JUMP JUMPDEST PUSH1 0x1 PUSH1 0x1 PUSH1 0xA0 SHL SUB DUP10 AND PUSH1 0x20 DUP5 ADD MSTORE PUSH1 0x40 DUP4 ADD DUP9 SWAP1 MSTORE PUSH1 0x60 DUP4 ADD DUP8 SWAP1 MSTORE DUP3 DUP2 SUB PUSH1 0x80 DUP5 ADD MSTORE PUSH2 0xA048 DUP2 DUP8 PUSH2 0x9DD2 JUMP JUMPDEST SWAP1 POP DUP3 DUP2 SUB PUSH1 0xA0 DUP5 ADD MSTORE PUSH2 0xA05C DUP2 DUP7 PUSH2 0x9DD2 JUMP JUMPDEST SWAP2 POP POP PUSH2 0xA06C PUSH1 0xC0 DUP4 ADD DUP5 PUSH2 0x9DFE JUMP JUMPDEST SWAP9 SWAP8 POP POP POP POP POP POP POP POP JUMP JUMPDEST PUSH1 0x0 PUSH1 0x40 DUP3 MSTORE PUSH2 0xA08B PUSH1 0x40 DUP4 ADD DUP6 PUSH2 0x9DD2 JUMP JUMPDEST DUP3 DUP2 SUB PUSH1 0x20 DUP5 ADD MSTORE PUSH2 0xA09D DUP2 DUP6 PUSH2 0x9DD2 JUMP JUMPDEST SWAP6 SWAP5 POP POP POP POP POP JUMP JUMPDEST PUSH1 0x0 PUSH1 0x40 DUP3 MSTORE PUSH2 0xA0B9 PUSH1 0x40 DUP4 ADD DUP6 PUSH2 0x9DD2 JUMP JUMPDEST SWAP1 POP DUP3 PUSH1 0x20 DUP4 ADD MSTORE SWAP4 SWAP3 POP POP POP JUMP JUMPDEST PUSH1 0x0 PUSH1 0x20 DUP1 DUP4 MSTORE DUP2 DUP5 SLOAD DUP4 PUSH1 0x2 DUP3 DIV SWAP1 POP PUSH1 0x1 DUP1 DUP4 AND DUP1 PUSH2 0xA0EA JUMPI PUSH1 0x7F DUP4 AND SWAP3 POP JUMPDEST DUP6 DUP4 LT DUP2 EQ ISZERO PUSH2 0xA108 JUMPI PUSH4 0x4E487B71 PUSH1 0xE0 SHL DUP8 MSTORE PUSH1 0x22 PUSH1 0x4 MSTORE PUSH1 0x24 DUP8 REVERT JUMPDEST PUSH2 0xA114 DUP4 DUP8 DUP11 ADD PUSH2 0x9EB5 JUMP JUMPDEST DUP2 DUP1 ISZERO PUSH2 0xA128 JUMPI PUSH1 0x1 DUP2 EQ PUSH2 0xA139 JUMPI PUSH2 0xA163 JUMP JUMPDEST PUSH1 0xFF NOT DUP7 AND DUP3 MSTORE DUP8 DUP3 ADD SWAP7 POP PUSH2 0xA163 JUMP JUMPDEST PUSH2 0xA142 DUP12 PUSH2 0xB412 JUMP JUMPDEST DUP10 JUMPDEST DUP7 DUP2 LT ISZERO PUSH2 0xA15D JUMPI DUP2 SLOAD DUP5 DUP3 ADD MSTORE SWAP1 DUP6 ADD SWAP1 DUP10 ADD PUSH2 0xA144 JUMP JUMPDEST DUP4 ADD SWAP8 POP POP JUMPDEST POP SWAP5 SWAP10 SWAP9 POP POP POP POP POP POP POP POP POP JUMP JUMPDEST PUSH1 0x20 DUP1 DUP3 MSTORE PUSH1 0x1C SWAP1 DUP3 ADD MSTORE PUSH32 0x576F726B657220697320616C7265616479207265676973746572656400000000 PUSH1 0x40 DUP3 ADD MSTORE PUSH1 0x60 ADD SWAP1 JUMP JUMPDEST PUSH1 0x20 DUP1 DUP3 MSTORE PUSH1 0x31 SWAP1 DUP3 ADD MSTORE PUSH32 0x676976656E204461746142617463682073686F756C6420626520415050524F56 PUSH1 0x40 DUP3 ADD MSTORE PUSH17 0x11510B08185B99081A5D081A5CC81B9BDD PUSH1 0x7A SHL PUSH1 0x60 DUP3 ADD MSTORE PUSH1 0x80 ADD SWAP1 JUMP JUMPDEST PUSH1 0x20 DUP1 DUP3 MSTORE PUSH1 0x25 SWAP1 DUP3 ADD MSTORE PUSH32 0x72656365697665722072656A6563746564205F7265747269657665534675656C PUSH1 0x40 DUP3 ADD MSTORE PUSH5 0x818D85B1B PUSH1 0xDA SHL PUSH1 0x60 DUP3 ADD MSTORE PUSH1 0x80 ADD SWAP1 JUMP JUMPDEST PUSH1 0x20 DUP1 DUP3 MSTORE PUSH1 0x2F SWAP1 DUP3 ADD MSTORE PUSH32 0x636F6D6D697420706572696F64206E6565647320746F206265206F70656E2066 PUSH1 0x40 DUP3 ADD MSTORE PUSH15 0x1BDC881D1A1A5CC818985D18DA1259 PUSH1 0x8A SHL PUSH1 0x60 DUP3 ADD MSTORE PUSH1 0x80 ADD SWAP1 JUMP JUMPDEST PUSH1 0x20 DUP1 DUP3 MSTORE PUSH1 0x52 SWAP1 DUP3 ADD MSTORE PUSH32 0x4E6F74207468652073616D6520766F7465207468616E20636F6D6D697465642C PUSH1 0x40 DUP3 ADD MSTORE PUSH32 0x20696D706F737369626C6520746F206D61746368207769746820676976656E20 PUSH1 0x60 DUP3 ADD MSTORE PUSH18 0x5F73616C742026205F636C656172566F7465 PUSH1 0x70 SHL PUSH1 0x80 DUP3 ADD MSTORE PUSH1 0xA0 ADD SWAP1 JUMP JUMPDEST PUSH1 0x20 DUP1 DUP3 MSTORE PUSH1 0x56 SWAP1 DUP3 ADD MSTORE PUSH32 0x4E6F74207468652073616D652068617368207468616E20636F6D6D697465642C PUSH1 0x40 DUP3 ADD MSTORE PUSH32 0x20696D706F737369626C6520746F206D61746368207769746820676976656E20 PUSH1 0x60 DUP3 ADD MSTORE PUSH22 0xBEE6C2D8E8404C40BEC6D8CAC2E492A08CA690C2E6D PUSH1 0x53 SHL PUSH1 0x80 DUP3 ADD MSTORE PUSH1 0xA0 ADD SWAP1 JUMP JUMPDEST PUSH1 0x20 DUP1 DUP3 MSTORE PUSH1 0x26 SWAP1 DUP3 ADD MSTORE PUSH32 0x4F776E61626C653A206E6577206F776E657220697320746865207A65726F2061 PUSH1 0x40 DUP3 ADD MSTORE PUSH6 0x646472657373 PUSH1 0xD0 SHL PUSH1 0x60 DUP3 ADD MSTORE PUSH1 0x80 ADD SWAP1 JUMP JUMPDEST PUSH1 0x20 DUP1 DUP3 MSTORE PUSH1 0x29 SWAP1 DUP3 ADD MSTORE PUSH32 0x6B206F72204E20617265206E6F74204F4B20647572696E672072616E646F6D20 PUSH1 0x40 DUP3 ADD MSTORE PUSH9 0x39B2B632B1BA34B7B7 PUSH1 0xB9 SHL PUSH1 0x60 DUP3 ADD MSTORE PUSH1 0x80 ADD SWAP1 JUMP JUMPDEST PUSH1 0x20 DUP1 DUP3 MSTORE PUSH1 0x2A SWAP1 DUP3 ADD MSTORE PUSH32 0x4661696C20647572696E6720616C6C6F636174696F6E3A206E6F7420656E6F75 PUSH1 0x40 DUP3 ADD MSTORE PUSH10 0x676820776F726B657273 PUSH1 0xB0 SHL PUSH1 0x60 DUP3 ADD MSTORE PUSH1 0x80 ADD SWAP1 JUMP JUMPDEST PUSH1 0x20 DUP1 DUP3 MSTORE PUSH1 0x23 SWAP1 DUP3 ADD MSTORE PUSH32 0x5265776172644D616E61676572206973206E756C6C20696E20506172616D6574 PUSH1 0x40 DUP3 ADD MSTORE PUSH3 0x657273 PUSH1 0xE8 SHL PUSH1 0x60 DUP3 ADD MSTORE PUSH1 0x80 ADD SWAP1 JUMP JUMPDEST PUSH1 0x20 DUP1 DUP3 MSTORE PUSH1 0x2C SWAP1 DUP3 ADD MSTORE PUSH32 0x436F6D706C69616E636553797374656D206E756C6C20696E20506172616D6574 PUSH1 0x40 DUP3 ADD MSTORE PUSH12 0x195C9CC810DBDB9D1C9858DD PUSH1 0xA2 SHL PUSH1 0x60 DUP3 ADD MSTORE PUSH1 0x80 ADD SWAP1 JUMP JUMPDEST PUSH1 0x20 DUP1 DUP3 MSTORE PUSH1 0x13 SWAP1 DUP3 ADD MSTORE PUSH19 0x5F6D7941727261792E6C656E677468203E203 PUSH1 0x6C SHL PUSH1 0x40 DUP3 ADD MSTORE PUSH1 0x60 ADD SWAP1 JUMP JUMPDEST PUSH1 0x20 DUP1 DUP3 MSTORE PUSH1 0x38 SWAP1 DUP3 ADD MSTORE PUSH32 0x55736572206E6565647320746F20626520616C6C6F636174656420746F207468 PUSH1 0x40 DUP3 ADD MSTORE PUSH32 0x697320626174636820746F20636F6D6D6974206F6E2069740000000000000000 PUSH1 0x60 DUP3 ADD MSTORE PUSH1 0x80 ADD SWAP1 JUMP JUMPDEST PUSH1 0x20 DUP1 DUP3 MSTORE PUSH1 0x1D SWAP1 DUP3 ADD MSTORE PUSH32 0x734675656C3A206E756C6C2041646472657373204E6F742056616C6964000000 PUSH1 0x40 DUP3 ADD MSTORE PUSH1 0x60 ADD SWAP1 JUMP JUMPDEST PUSH1 0x20 DUP1 DUP3 MSTORE PUSH1 0x25 SWAP1 DUP3 ADD MSTORE PUSH32 0x636F756C64206E6F74207265776172642052455020696E2056616C6964617465 PUSH1 0x40 DUP3 ADD MSTORE PUSH5 0x2C20312E61 PUSH1 0xD8 SHL PUSH1 0x60 DUP3 ADD MSTORE PUSH1 0x80 ADD SWAP1 JUMP JUMPDEST PUSH1 0x20 DUP1 DUP3 MSTORE PUSH1 0x3F SWAP1 DUP3 ADD MSTORE PUSH32 0x436F756C64206E6F74207265717565737420656E6F75676820616C6C6F636174 PUSH1 0x40 DUP3 ADD MSTORE PUSH32 0x6564207374616B652C2072657175657374416C6C6F63617465645374616B6500 PUSH1 0x60 DUP3 ADD MSTORE PUSH1 0x80 ADD SWAP1 JUMP JUMPDEST PUSH1 0x20 DUP1 DUP3 MSTORE PUSH1 0x2F SWAP1 DUP3 ADD MSTORE PUSH32 0x5573657220686173206E6F7420636F6D6D69746564206265666F72652C207468 PUSH1 0x40 DUP3 ADD MSTORE PUSH15 0x1D5CC818D85B89DD081C995D99585B PUSH1 0x8A SHL PUSH1 0x60 DUP3 ADD MSTORE PUSH1 0x80 ADD SWAP1 JUMP JUMPDEST PUSH1 0x20 DUP1 DUP3 MSTORE PUSH1 0x2A SWAP1 DUP3 ADD MSTORE PUSH32 0x53706F7474696E67206973206E6F742063757272656E746C7920656E61626C65 PUSH1 0x40 DUP3 ADD MSTORE PUSH10 0x3210313C9027BBB732B9 PUSH1 0xB1 SHL PUSH1 0x60 DUP3 ADD MSTORE PUSH1 0x80 ADD SWAP1 JUMP JUMPDEST PUSH1 0x20 DUP1 DUP3 MSTORE PUSH1 0x1C SWAP1 DUP3 ADD MSTORE PUSH32 0x496E70757420626F756E6461726965732061726520696E76616C696400000000 PUSH1 0x40 DUP3 ADD MSTORE PUSH1 0x60 ADD SWAP1 JUMP JUMPDEST PUSH1 0x20 DUP1 DUP3 MSTORE PUSH1 0x36 SWAP1 DUP3 ADD MSTORE PUSH32 0x476C6F62616C206C696D69743A206578636565646564206D6178206461746120 PUSH1 0x40 DUP3 ADD MSTORE PUSH22 0x3832B9103437BAB916103932BA393C903630BA32B917 PUSH1 0x51 SHL PUSH1 0x60 DUP3 ADD MSTORE PUSH1 0x80 ADD SWAP1 JUMP JUMPDEST PUSH1 0x20 DUP1 DUP3 MSTORE PUSH1 0x43 SWAP1 DUP3 ADD MSTORE PUSH32 0x576F726B657220686173206E6F7420656E6F75676820285F6E756D546F6B656E PUSH1 0x40 DUP3 ADD MSTORE PUSH32 0x732920696E206869732053797374656D5374616B6564546F6B656E42616C616E PUSH1 0x60 DUP3 ADD MSTORE PUSH3 0x31B29 PUSH1 0xED SHL PUSH1 0x80 DUP3 ADD MSTORE PUSH1 0xA0 ADD SWAP1 JUMP JUMPDEST PUSH1 0x20 DUP1 DUP3 MSTORE PUSH1 0x39 SWAP1 DUP3 ADD MSTORE PUSH32 0x646C6C4D61703A20646F6573206E6F7420636F696E7461696E205F4461746142 PUSH1 0x40 DUP3 ADD MSTORE PUSH32 0x61746368496420666F7220746865206D73672073656E64657200000000000000 PUSH1 0x60 DUP3 ADD MSTORE PUSH1 0x80 ADD SWAP1 JUMP JUMPDEST PUSH1 0x20 DUP1 DUP3 MSTORE PUSH1 0x2B SWAP1 DUP3 ADD MSTORE PUSH32 0x75736572206D75737420686176652072657665616C656420696E207468697320 PUSH1 0x40 DUP3 ADD MSTORE PUSH11 0xCED2ECCADC4084C2E8C6D PUSH1 0xAB SHL PUSH1 0x60 DUP3 ADD MSTORE PUSH1 0x80 ADD SWAP1 JUMP JUMPDEST PUSH1 0x20 DUP1 DUP3 MSTORE PUSH1 0x2E SWAP1 DUP3 ADD MSTORE PUSH32 0x636F756C64206E6F74207265776172642052455020696E2056616C6964617465 PUSH1 0x40 DUP3 ADD MSTORE PUSH14 0x4461746142617463682C20322E61 PUSH1 0x90 SHL PUSH1 0x60 DUP3 ADD MSTORE PUSH1 0x80 ADD SWAP1 JUMP JUMPDEST PUSH1 0x20 DUP1 DUP3 MSTORE PUSH1 0x5 SWAP1 DUP3 ADD MSTORE PUSH5 0x4E203E203 PUSH1 0xDC SHL PUSH1 0x40 DUP3 ADD MSTORE PUSH1 0x60 ADD SWAP1 JUMP JUMPDEST PUSH1 0x20 DUP1 DUP3 MSTORE PUSH1 0x14 SWAP1 DUP3 ADD MSTORE PUSH20 0x3737BA1030903B30B634B2103837B9B4BA34B7B7 PUSH1 0x61 SHL PUSH1 0x40 DUP3 ADD MSTORE PUSH1 0x60 ADD SWAP1 JUMP JUMPDEST PUSH1 0x20 DUP1 DUP3 MSTORE PUSH1 0x3B SWAP1 DUP3 ADD MSTORE PUSH32 0x43616E277420616C6C6F6361746520776F726B2C207468652063757272656E74 PUSH1 0x40 DUP3 ADD MSTORE PUSH32 0x20626174636820697320616C726561647920616C6C6F63617465640000000000 PUSH1 0x60 DUP3 ADD MSTORE PUSH1 0x80 ADD SWAP1 JUMP JUMPDEST PUSH1 0x20 DUP1 DUP3 MSTORE PUSH1 0x2C SWAP1 DUP3 ADD MSTORE PUSH32 0x576F726B6572206973206E6F74207265676973746572656420736F2063616E27 PUSH1 0x40 DUP3 ADD MSTORE PUSH12 0x3A103AB73932B3B4B9BA32B9 PUSH1 0xA1 SHL PUSH1 0x60 DUP3 ADD MSTORE PUSH1 0x80 ADD SWAP1 JUMP JUMPDEST PUSH1 0x20 DUP1 DUP3 MSTORE PUSH1 0xB SWAP1 DUP3 ADD MSTORE PUSH11 0x4E5F72616E6765203E203 PUSH1 0xAC SHL PUSH1 0x40 DUP3 ADD MSTORE PUSH1 0x60 ADD SWAP1 JUMP JUMPDEST PUSH1 0x20 DUP1 DUP3 MSTORE DUP2 DUP2 ADD MSTORE PUSH32 0x4F776E61626C653A2063616C6C6572206973206E6F7420746865206F776E6572 PUSH1 0x40 DUP3 ADD MSTORE PUSH1 0x60 ADD SWAP1 JUMP JUMPDEST PUSH1 0x20 DUP1 DUP3 MSTORE PUSH1 0x30 SWAP1 DUP3 ADD MSTORE PUSH32 0x636F756C64206E6F742072657761726420746F6B656E20696E2056616C696461 PUSH1 0x40 DUP3 ADD MSTORE PUSH16 0x3A32A230BA30A130BA31B41610191731 PUSH1 0x81 SHL PUSH1 0x60 DUP3 ADD MSTORE PUSH1 0x80 ADD SWAP1 JUMP JUMPDEST PUSH1 0x20 DUP1 DUP3 MSTORE PUSH1 0x3A SWAP1 DUP3 ADD MSTORE PUSH32 0x5F446174614261746368496420686173206E6F7420656E6465642C206F72206E PUSH1 0x40 DUP3 ADD MSTORE PUSH32 0x6F7420657665727920766F74657273206861766520766F746564000000000000 PUSH1 0x60 DUP3 ADD MSTORE PUSH1 0x80 ADD SWAP1 JUMP JUMPDEST PUSH1 0x20 DUP1 DUP3 MSTORE PUSH1 0x27 SWAP1 DUP3 ADD MSTORE PUSH32 0x636F756C64206E6F742072657761726420746F6B656E20696E2056616C696461 PUSH1 0x40 DUP3 ADD MSTORE PUSH7 0x3A329610189731 PUSH1 0xC9 SHL PUSH1 0x60 DUP3 ADD MSTORE PUSH1 0x80 ADD SWAP1 JUMP JUMPDEST PUSH1 0x20 DUP1 DUP3 MSTORE PUSH1 0x22 SWAP1 DUP3 ADD MSTORE PUSH32 0x5374616B654D616E61676572206973206E756C6C20696E20506172616D657465 PUSH1 0x40 DUP3 ADD MSTORE PUSH2 0x7273 PUSH1 0xF0 SHL PUSH1 0x60 DUP3 ADD MSTORE PUSH1 0x80 ADD SWAP1 JUMP JUMPDEST PUSH1 0x20 DUP1 DUP3 MSTORE PUSH1 0x29 SWAP1 DUP3 ADD MSTORE PUSH32 0x6765744E756D50617373696E67546F6B656E733A20686173686573206D757374 PUSH1 0x40 DUP3 ADD MSTORE PUSH9 0x8189948195C5D585B PUSH1 0xBA SHL PUSH1 0x60 DUP3 ADD MSTORE PUSH1 0x80 ADD SWAP1 JUMP JUMPDEST PUSH1 0x20 DUP1 DUP3 MSTORE PUSH1 0x36 SWAP1 DUP3 ADD MSTORE PUSH32 0x43616E277420616C6C6F6361746520776F726B2C207468652063757272656E74 PUSH1 0x40 DUP3 ADD MSTORE PUSH22 0x206261746368206973206E6F7420636F6D706C657465 PUSH1 0x50 SHL PUSH1 0x60 DUP3 ADD MSTORE PUSH1 0x80 ADD SWAP1 JUMP JUMPDEST PUSH1 0x20 DUP1 DUP3 MSTORE PUSH1 0x26 SWAP1 DUP3 ADD MSTORE PUSH32 0x52657665616C20706572696F64206E6F74206F70656E20666F72207468697320 PUSH1 0x40 DUP3 ADD MSTORE PUSH6 0x11185D185251 PUSH1 0xD2 SHL PUSH1 0x60 DUP3 ADD MSTORE PUSH1 0x80 ADD SWAP1 JUMP JUMPDEST PUSH1 0x20 DUP1 DUP3 MSTORE PUSH1 0x27 SWAP1 DUP3 ADD MSTORE PUSH32 0x617661696C61626C65546F6B656E732073686F756C64206265203E3D205F6E75 PUSH1 0x40 DUP3 ADD MSTORE PUSH7 0x6D546F6B656E73 PUSH1 0xC8 SHL PUSH1 0x60 DUP3 ADD MSTORE PUSH1 0x80 ADD SWAP1 JUMP JUMPDEST PUSH1 0x20 DUP1 DUP3 MSTORE DUP2 DUP2 ADD MSTORE PUSH32 0x5265704D616E61676572206973206E756C6C20696E20506172616D6574657273 PUSH1 0x40 DUP3 ADD MSTORE PUSH1 0x60 ADD SWAP1 JUMP JUMPDEST PUSH1 0x20 DUP1 DUP3 MSTORE PUSH1 0x17 SWAP1 DUP3 ADD MSTORE PUSH32 0x5F4461746142617463684964206D757374206578697374000000000000000000 PUSH1 0x40 DUP3 ADD MSTORE PUSH1 0x60 ADD SWAP1 JUMP JUMPDEST PUSH1 0x20 DUP1 DUP3 MSTORE PUSH1 0x21 SWAP1 DUP3 ADD MSTORE PUSH32 0x5F446174614261746368496420697320616C72656164792076616C6964617465 PUSH1 0x40 DUP3 ADD MSTORE PUSH1 0x19 PUSH1 0xFA SHL PUSH1 0x60 DUP3 ADD MSTORE PUSH1 0x80 ADD SWAP1 JUMP JUMPDEST PUSH1 0x20 DUP1 DUP3 MSTORE PUSH1 0x2D SWAP1 DUP3 ADD MSTORE PUSH32 0x53706F7474696E673A20696E70757420617272617973206D757374206265206F PUSH1 0x40 DUP3 ADD MSTORE PUSH13 0xCC40E6C2DACA40D8CADCCEE8D PUSH1 0x9B SHL PUSH1 0x60 DUP3 ADD MSTORE PUSH1 0x80 ADD SWAP1 JUMP JUMPDEST PUSH1 0x20 DUP1 DUP3 MSTORE PUSH1 0x29 SWAP1 DUP3 ADD MSTORE PUSH32 0x557365722068617320616C726561647920636F6D6D6974656420746F20746869 PUSH1 0x40 DUP3 ADD MSTORE PUSH9 0x1CC818985D18DA1259 PUSH1 0xBA SHL PUSH1 0x60 DUP3 ADD MSTORE PUSH1 0x80 ADD SWAP1 JUMP JUMPDEST PUSH1 0x20 DUP1 DUP3 MSTORE PUSH1 0x22 SWAP1 DUP3 ADD MSTORE PUSH32 0x4D6178696D756D207265676973746572656420776F726B65727320616C726561 PUSH1 0x40 DUP3 ADD MSTORE PUSH2 0x6479 PUSH1 0xF0 SHL PUSH1 0x60 DUP3 ADD MSTORE PUSH1 0x80 ADD SWAP1 JUMP JUMPDEST PUSH1 0x20 DUP1 DUP3 MSTORE PUSH1 0x6C SWAP1 DUP3 ADD MSTORE PUSH32 0x5573657220686173206E6F7420766F746564206D616E792074696D657320696E PUSH1 0x40 DUP3 ADD MSTORE PUSH32 0x206120726F7720616E64206E6565647320746F2077616974204E4F564F54455F PUSH1 0x60 DUP3 ADD MSTORE PUSH32 0x524547495354524154494F4E5F574149545F4455524154494F4E20746F207265 PUSH1 0x80 DUP3 ADD MSTORE PUSH12 0x33B4B9BA32B91030B3B0B4B7 PUSH1 0xA1 SHL PUSH1 0xA0 DUP3 ADD MSTORE PUSH1 0xC0 ADD SWAP1 JUMP JUMPDEST PUSH1 0x20 DUP1 DUP3 MSTORE PUSH1 0x2A SWAP1 DUP3 ADD MSTORE PUSH32 0x5F446174614261746368496420636865636B696E6720766F7465206D75737420 PUSH1 0x40 DUP3 ADD MSTORE PUSH10 0x1A185D9948195B991959 PUSH1 0xB2 SHL PUSH1 0x60 DUP3 ADD MSTORE PUSH1 0x80 ADD SWAP1 JUMP JUMPDEST PUSH1 0x20 DUP1 DUP3 MSTORE PUSH1 0x3B SWAP1 DUP3 ADD MSTORE PUSH32 0x436F756C64206E6F74207769746864726177566F74696E675269676874732074 PUSH1 0x40 DUP3 ADD MSTORE PUSH32 0x68726F7567682050726F78795374616B654465616C6C6F636174650000000000 PUSH1 0x60 DUP3 ADD MSTORE PUSH1 0x80 ADD SWAP1 JUMP JUMPDEST PUSH1 0x20 DUP1 DUP3 MSTORE PUSH1 0x24 SWAP1 DUP3 ADD MSTORE PUSH32 0x416464726573734D616E61676572206973206E756C6C20696E20506172616D65 PUSH1 0x40 DUP3 ADD MSTORE PUSH4 0x74657273 PUSH1 0xE0 SHL PUSH1 0x60 DUP3 ADD MSTORE PUSH1 0x80 ADD SWAP1 JUMP JUMPDEST PUSH1 0x20 DUP1 DUP3 MSTORE PUSH1 0x34 SWAP1 DUP3 ADD MSTORE PUSH32 0x55736572206C696D69743A206578636565646564206D61782064617461207065 PUSH1 0x40 DUP3 ADD MSTORE PUSH20 0x39103437BAB916103932BA393C903630BA32B917 PUSH1 0x61 SHL PUSH1 0x60 DUP3 ADD MSTORE PUSH1 0x80 ADD SWAP1 JUMP JUMPDEST PUSH1 0x20 DUP1 DUP3 MSTORE PUSH1 0xF SWAP1 DUP3 ADD MSTORE PUSH15 0x11185D18481B5D5CDD08195E1A5CDD PUSH1 0x8A SHL PUSH1 0x40 DUP3 ADD MSTORE PUSH1 0x60 ADD SWAP1 JUMP JUMPDEST PUSH1 0x20 DUP1 DUP3 MSTORE PUSH1 0x2C SWAP1 DUP3 ADD MSTORE PUSH32 0x557365722068617320616C72656164792072657665616C65642C207468757320 PUSH1 0x40 DUP3 ADD MSTORE PUSH12 0x18D85B89DD081C995D99585B PUSH1 0xA2 SHL PUSH1 0x60 DUP3 ADD MSTORE PUSH1 0x80 ADD SWAP1 JUMP JUMPDEST PUSH1 0x0 PUSH1 0x20 DUP3 MSTORE DUP3 MLOAD PUSH1 0x20 DUP4 ADD MSTORE PUSH1 0x20 DUP4 ADD MLOAD PUSH1 0x40 DUP4 ADD MSTORE PUSH1 0x40 DUP4 ADD MLOAD PUSH1 0x60 DUP4 ADD MSTORE PUSH1 0x60 DUP4 ADD MLOAD PUSH1 0x80 DUP4 ADD MSTORE PUSH1 0x80 DUP4 ADD MLOAD PUSH2 0xB092 PUSH1 0xA0 DUP5 ADD DUP3 PUSH2 0x9DCC JUMP JUMPDEST POP PUSH1 0xA0 DUP4 ADD MLOAD PUSH2 0xB0A5 PUSH1 0xC0 DUP5 ADD DUP3 PUSH2 0x9DCC JUMP JUMPDEST POP PUSH1 0xC0 DUP4 ADD MLOAD PUSH2 0xB0B8 PUSH1 0xE0 DUP5 ADD DUP3 PUSH2 0x9DCC JUMP JUMPDEST POP PUSH1 0xE0 DUP4 ADD MLOAD PUSH2 0x100 DUP4 DUP2 ADD SWAP2 SWAP1 SWAP2 MSTORE DUP4 ADD MLOAD PUSH2 0x120 DUP1 DUP5 ADD SWAP2 SWAP1 SWAP2 MSTORE DUP4 ADD MLOAD PUSH2 0x140 DUP1 DUP5 ADD SWAP2 SWAP1 SWAP2 MSTORE DUP4 ADD MLOAD PUSH2 0x160 DUP1 DUP5 ADD SWAP2 SWAP1 SWAP2 MSTORE DUP4 ADD MLOAD PUSH2 0x1C0 PUSH2 0x180 DUP1 DUP6 ADD DUP3 SWAP1 MSTORE PUSH2 0xB10C PUSH2 0x1E0 DUP7 ADD DUP5 PUSH2 0x9DD2 JUMP JUMPDEST SWAP1 DUP7 ADD MLOAD PUSH2 0x1A0 DUP7 DUP2 ADD SWAP2 SWAP1 SWAP2 MSTORE DUP7 ADD MLOAD SWAP1 SWAP3 POP PUSH2 0x51A3 DUP3 DUP7 ADD DUP3 PUSH2 0x9DFE JUMP JUMPDEST PUSH1 0x0 DUP4 DUP3 MSTORE DUP3 PUSH1 0x20 DUP4 ADD MSTORE PUSH1 0x60 PUSH1 0x40 DUP4 ADD MSTORE PUSH2 0x593F PUSH1 0x60 DUP4 ADD PUSH2 0x9E20 JUMP JUMPDEST PUSH1 0x0 DUP5 DUP3 MSTORE DUP4 PUSH1 0x20 DUP4 ADD MSTORE PUSH1 0x80 PUSH1 0x40 DUP4 ADD MSTORE PUSH2 0xB168 PUSH1 0x80 DUP4 ADD PUSH2 0x9E20 JUMP JUMPDEST SWAP1 POP DUP3 PUSH1 0x60 DUP4 ADD MSTORE SWAP5 SWAP4 POP POP POP POP JUMP JUMPDEST PUSH1 0x0 DUP4 DUP3 MSTORE DUP3 PUSH1 0x20 DUP4 ADD MSTORE PUSH1 0x60 PUSH1 0x40 DUP4 ADD MSTORE PUSH2 0x593F PUSH1 0x60 DUP4 ADD PUSH2 0x9E3D JUMP JUMPDEST PUSH1 0x0 DUP5 DUP3 MSTORE DUP4 PUSH1 0x20 DUP4 ADD MSTORE PUSH1 0x80 PUSH1 0x40 DUP4 ADD MSTORE PUSH2 0xB168 PUSH1 0x80 DUP4 ADD PUSH2 0x9E3D JUMP JUMPDEST PUSH1 0x0 DUP4 DUP3 MSTORE DUP3 PUSH1 0x20 DUP4 ADD MSTORE PUSH1 0x60 PUSH1 0x40 DUP4 ADD MSTORE PUSH2 0x593F PUSH1 0x60 DUP4 ADD PUSH2 0x9E5A JUMP JUMPDEST PUSH1 0x0 DUP5 DUP3 MSTORE DUP4 PUSH1 0x20 DUP4 ADD MSTORE PUSH1 0x80 PUSH1 0x40 DUP4 ADD MSTORE PUSH2 0xB168 PUSH1 0x80 DUP4 ADD PUSH2 0x9E5A JUMP JUMPDEST SWAP4 DUP5 MSTORE PUSH1 0x20 DUP5 ADD SWAP3 SWAP1 SWAP3 MSTORE PUSH1 0x40 DUP4 ADD MSTORE PUSH1 0x60 DUP3 ADD MSTORE PUSH1 0x80 ADD SWAP1 JUMP JUMPDEST PUSH1 0x0 PUSH1 0x20 DUP3 MSTORE DUP3 MLOAD PUSH1 0xE0 PUSH1 0x20 DUP5 ADD MSTORE PUSH2 0xB228 PUSH2 0x100 DUP5 ADD DUP3 PUSH2 0x9DD2 JUMP JUMPDEST SWAP1 POP PUSH1 0x1 DUP1 PUSH1 0xA0 SHL SUB PUSH1 0x20 DUP6 ADD MLOAD AND PUSH1 0x40 DUP5 ADD MSTORE PUSH1 0x40 DUP5 ADD MLOAD PUSH1 0x60 DUP5 ADD MSTORE PUSH1 0x60 DUP5 ADD MLOAD PUSH1 0x80 DUP5 ADD MSTORE PUSH1 0x80 DUP5 ADD MLOAD PUSH1 0x1F NOT DUP1 DUP6 DUP5 SUB ADD PUSH1 0xA0 DUP7 ADD MSTORE PUSH2 0xB26C DUP4 DUP4 PUSH2 0x9DD2 JUMP JUMPDEST SWAP3 POP PUSH1 0xA0 DUP7 ADD MLOAD SWAP2 POP DUP1 DUP6 DUP5 SUB ADD PUSH1 0xC0 DUP7 ADD MSTORE POP PUSH2 0xB28A DUP3 DUP3 PUSH2 0x9DD2 JUMP JUMPDEST SWAP2 POP POP PUSH1 0xC0 DUP5 ADD MLOAD PUSH2 0xB29F PUSH1 0xE0 DUP6 ADD DUP3 PUSH2 0x9DFE JUMP JUMPDEST POP SWAP4 SWAP3 POP POP POP JUMP JUMPDEST SWAP2 DUP3 MSTORE PUSH1 0x1 PUSH1 0x1 PUSH1 0xA0 SHL SUB AND PUSH1 0x20 DUP3 ADD MSTORE PUSH1 0x40 ADD SWAP1 JUMP JUMPDEST SWAP2 DUP3 MSTORE PUSH1 0x1 PUSH1 0x1 PUSH1 0xA0 SHL SUB AND PUSH1 0x20 DUP3 ADD MSTORE PUSH1 0x0 PUSH1 0x40 DUP3 ADD MSTORE PUSH1 0x60 ADD SWAP1 JUMP JUMPDEST SWAP3 DUP4 MSTORE PUSH1 0x20 DUP4 ADD SWAP2 SWAP1 SWAP2 MSTORE PUSH1 0x40 DUP3 ADD MSTORE PUSH1 0x60 ADD SWAP1 JUMP JUMPDEST PUSH1 0x0 DUP16 DUP3 MSTORE DUP15 PUSH1 0x20 DUP4 ADD MSTORE DUP14 PUSH1 0x40 DUP4 ADD MSTORE DUP13 PUSH1 0x60 DUP4 ADD MSTORE DUP12 ISZERO ISZERO PUSH1 0x80 DUP4 ADD MSTORE DUP11 ISZERO ISZERO PUSH1 0xA0 DUP4 ADD MSTORE PUSH2 0xB326 PUSH1 0xC0 DUP4 ADD DUP12 PUSH2 0x9DCC JUMP JUMPDEST DUP9 PUSH1 0xE0 DUP4 ADD MSTORE DUP8 PUSH2 0x100 DUP4 ADD MSTORE DUP7 PUSH2 0x120 DUP4 ADD MSTORE DUP6 PUSH2 0x140 DUP4 ADD MSTORE PUSH2 0x1C0 PUSH2 0x160 DUP4 ADD MSTORE PUSH2 0xB358 PUSH2 0x1C0 DUP4 ADD DUP7 PUSH2 0x9DD2 JUMP JUMPDEST SWAP1 POP DUP4 PUSH2 0x180 DUP4 ADD MSTORE PUSH2 0xB36F PUSH2 0x1A0 DUP4 ADD DUP5 PUSH2 0x9DFE JUMP JUMPDEST SWAP16 SWAP15 POP POP POP POP POP POP POP POP POP POP POP POP POP POP POP JUMP JUMPDEST PUSH1 0x0 DUP1 DUP4 CALLDATALOAD PUSH1 0x1E NOT DUP5 CALLDATASIZE SUB ADD DUP2 SLT PUSH2 0xB398 JUMPI DUP3 DUP4 REVERT JUMPDEST DUP4 ADD DUP1 CALLDATALOAD SWAP2 POP PUSH1 0x1 PUSH1 0x1 PUSH1 0x40 SHL SUB DUP3 GT ISZERO PUSH2 0xB3B1 JUMPI DUP3 DUP4 REVERT JUMPDEST PUSH1 0x20 ADD SWAP2 POP CALLDATASIZE DUP2 SWAP1 SUB DUP3 SGT ISZERO PUSH2 0x992D JUMPI PUSH1 0x0 DUP1 REVERT JUMPDEST PUSH1 0x40 MLOAD DUP2 DUP2 ADD PUSH1 0x1 PUSH1 0x1 PUSH1 0x40 SHL SUB DUP2 GT DUP3 DUP3 LT OR ISZERO PUSH2 0xB3E7 JUMPI PUSH2 0xB3E7 PUSH2 0xB542 JUMP JUMPDEST PUSH1 0x40 MSTORE SWAP2 SWAP1 POP JUMP JUMPDEST PUSH1 0x0 PUSH1 0x1 PUSH1 0x1 PUSH1 0x40 SHL SUB DUP3 GT ISZERO PUSH2 0xB408 JUMPI PUSH2 0xB408 PUSH2 0xB542 JUMP JUMPDEST POP PUSH1 0x20 SWAP1 DUP2 MUL ADD SWAP1 JUMP JUMPDEST PUSH1 0x0 SWAP1 DUP2 MSTORE PUSH1 0x20 SWAP1 KECCAK256 SWAP1 JUMP JUMPDEST PUSH1 0x0 DUP3 NOT DUP3 GT ISZERO PUSH2 0xB431 JUMPI PUSH2 0xB431 PUSH2 0xB516 JUMP JUMPDEST POP ADD SWAP1 JUMP JUMPDEST PUSH1 0x0 DUP3 PUSH2 0xB445 JUMPI PUSH2 0xB445 PUSH2 0xB52C JUMP JUMPDEST POP DIV SWAP1 JUMP JUMPDEST PUSH1 0x0 DUP2 PUSH1 0x0 NOT DIV DUP4 GT DUP3 ISZERO ISZERO AND ISZERO PUSH2 0xB464 JUMPI PUSH2 0xB464 PUSH2 0xB516 JUMP JUMPDEST POP MUL SWAP1 JUMP JUMPDEST PUSH1 0x0 DUP3 DUP3 LT ISZERO PUSH2 0xB47B JUMPI PUSH2 0xB47B PUSH2 0xB516 JUMP JUMPDEST POP SUB SWAP1 JUMP JUMPDEST PUSH1 0x0 JUMPDEST DUP4 DUP2 LT ISZERO PUSH2 0xB49B JUMPI DUP2 DUP2 ADD MLOAD DUP4 DUP3 ADD MSTORE PUSH1 0x20 ADD PUSH2 0xB483 JUMP JUMPDEST DUP4 DUP2 GT ISZERO PUSH2 0x2017 JUMPI POP POP PUSH1 0x0 SWAP2 ADD MSTORE JUMP JUMPDEST PUSH1 0x2 DUP2 DIV PUSH1 0x1 DUP3 AND DUP1 PUSH2 0xB4C0 JUMPI PUSH1 0x7F DUP3 AND SWAP2 POP JUMPDEST PUSH1 0x20 DUP3 LT DUP2 EQ ISZERO PUSH2 0xB4E1 JUMPI PUSH4 0x4E487B71 PUSH1 0xE0 SHL PUSH1 0x0 MSTORE PUSH1 0x22 PUSH1 0x4 MSTORE PUSH1 0x24 PUSH1 0x0 REVERT JUMPDEST POP SWAP2 SWAP1 POP JUMP JUMPDEST PUSH1 0x0 PUSH1 0x0 NOT DUP3 EQ ISZERO PUSH2 0xB4FB JUMPI PUSH2 0xB4FB PUSH2 0xB516 JUMP JUMPDEST POP PUSH1 0x1 ADD SWAP1 JUMP JUMPDEST PUSH1 0x0 DUP3 PUSH2 0xB511 JUMPI PUSH2 0xB511 PUSH2 0xB52C JUMP JUMPDEST POP MOD SWAP1 JUMP JUMPDEST PUSH4 0x4E487B71 PUSH1 0xE0 SHL PUSH1 0x0 MSTORE PUSH1 0x11 PUSH1 0x4 MSTORE PUSH1 0x24 PUSH1 0x0 REVERT JUMPDEST PUSH4 0x4E487B71 PUSH1 0xE0 SHL PUSH1 0x0 MSTORE PUSH1 0x12 PUSH1 0x4 MSTORE PUSH1 0x24 PUSH1 0x0 REVERT JUMPDEST PUSH4 0x4E487B71 PUSH1 0xE0 SHL PUSH1 0x0 MSTORE PUSH1 0x41 PUSH1 0x4 MSTORE PUSH1 0x24 PUSH1 0x0 REVERT JUMPDEST PUSH1 0x1 PUSH1 0x1 PUSH1 0xA0 SHL SUB DUP2 AND DUP2 EQ PUSH2 0x176A JUMPI PUSH1 0x0 DUP1 REVERT INVALID 0x4B DUP8 0xBB 0xD9 EXTCODESIZE 0xA6 0x5E 0xDE 0x1E 0x2E INVALID 0xCA PUSH20 0x5D9F7A6720BF7D6DB0A8355B17DBA5B64E5783A2 PUSH5 0x6970667358 0x22 SLT KECCAK256 0xEE DUP12 PUSH32 0xD94036C73427101691DB777A917DC6A20E68677198BB3F381AA16672DB64736F PUSH13 0x63430008000033000000000000 "
		},
		"gasEstimates": {
			"creation": {
				"codeDepositCost": "9306200",
				"executionCost": "infinite",
				"totalCost": "infinite"
			},
			"external": {
				"AcceptedBatchsCounter()": "1141",
				"AllTxsCounter()": "1162",
				"AllocatedBatchCursor()": "1163",
				"AmIRegistered()": "1225",
				"AreStringsEqual(string,string)": "infinite",
				"BatchCheckingCursor()": "1140",
				"BatchDeletionCursor()": "1141",
				"DataBatch(uint256)": "infinite",
				"DataCommitEndDate(uint256)": "2124",
				"DataEnded(uint256)": "2217",
				"DataExists(uint256)": "1206",
				"DataNonce()": "1164",
				"DataRevealEndDate(uint256)": "2191",
				"GetCurrentWork(address)": "infinite",
				"GlobalSpotFlowManager(uint256)": "2096",
				"IsNewWorkAvailable(address)": "infinite",
				"LastAllocationTime()": "1139",
				"LastBatchCounter()": "1139",
				"MasterWorkers(address,uint256)": "2314",
				"NotCommitedCounter()": "1163",
				"NotRevealedCounter()": "1183",
				"Parameters()": "1224",
				"RegisterWorker()": "infinite",
				"RejectedBatchsCounter()": "1163",
				"SPOT_TOGGLE_ENABLED()": "1193",
				"SelectAddressForUser(address,uint256)": "infinite",
				"SpotData(string[],string[],uint256,string)": "infinite",
				"SpotsMapping(uint256)": "infinite",
				"SystemStakedTokenBalance(address)": "1338",
				"TriggerUpdate()": "infinite",
				"UnregisterWorker()": "infinite",
				"UserBatchCounts(uint256,address)": "1440",
				"UserBatchFrom(uint256,address)": "infinite",
				"UserChecksCommits(address,uint256)": "1486",
				"UserChecksReveals(address,uint256)": "1442",
				"UserNewFiles(uint256,address)": "infinite",
				"UserSubmissions(address,uint256)": "2272",
				"UserVotes(uint256,address)": "1483",
				"WorkersPerBatch(uint256,uint256)": "2265",
				"WorkersSpotFlowManager(address,uint256)": "2282",
				"WorkersState(address)": "8151",
				"attrUUID(address,uint256)": "708",
				"availableWorkers(uint256)": "2152",
				"busyWorkers(uint256)": "2172",
				"commitPeriodActive(uint256)": "3071",
				"commitPeriodOver(uint256)": "infinite",
				"commitSpotCheck(uint256,bytes32,bytes32,uint256,string)": "infinite",
				"deleteData(uint256)": "infinite",
				"deleteDataBatch(uint256)": "infinite",
				"destroyContract()": "infinite",
				"didCommit(address,uint256)": "2367",
				"didReveal(address,uint256)": "2324",
				"generateIntegers(uint256,uint256)": "infinite",
				"getAcceptedBatchesCount()": "1141",
				"getActiveWorkersCount()": "2021",
				"getAvailableWorkersCount()": "1184",
				"getBatchByID(uint256)": "infinite",
				"getBatchIPFSFileByID(uint256)": "infinite",
				"getBusyWorkersCount()": "1119",
				"getCommitIPFSHash(address,uint256)": "infinite",
				"getCommitVoteHash(address,uint256)": "infinite",
				"getDataByID(uint256)": "infinite",
				"getDomainsForBatch(uint256)": "infinite",
				"getEncryptedHash(uint256,uint256)": "657",
				"getEncryptedStringHash(string,uint256)": "infinite",
				"getFromsForBatch(uint256)": "infinite",
				"getGlobalPeriodSpotCount()": "infinite",
				"getIPFShashesForBatch(uint256)": "infinite",
				"getInsertPointForNumTokens(address,uint256,uint256)": "infinite",
				"getLastAllocatedBatchId()": "1120",
				"getLastBatchId()": "1162",
				"getLastCheckedBatchId()": "1141",
				"getLastDataId()": "1140",
				"getLastNode(address)": "infinite",
				"getLockedTokens(address)": "infinite",
				"getMultiBatchIPFShashes(uint256,uint256)": "infinite",
				"getNumPassingTokens(address,uint256,uint256)": "infinite",
				"getNumTokens(address,uint256)": "infinite",
				"getRandom()": "infinite",
				"getRejectedBatchesCount()": "1161",
				"getSeed()": "infinite",
				"getSubmittedFilesForBatch(uint256)": "infinite",
				"getSystemTokenBalance(address)": "1376",
				"getTxCounter()": "1161",
				"getUserDatas(address)": "infinite",
				"getUserPeriodSpotCount(address)": "infinite",
				"getVotesForBatch(uint256)": "infinite",
				"isExpired(uint256)": "469",
				"isPassed(uint256)": "infinite",
				"isWorkerAllocatedToBatch(uint256,address)": "infinite",
				"isWorkerRegistered(address)": "1393",
				"owner()": "1184",
				"random_selection(uint256,uint256)": "infinite",
				"remainingCommitDuration(uint256)": "infinite",
				"remainingRevealDuration(uint256)": "infinite",
				"renounceOwnership()": "infinite",
				"rescueTokens(uint256)": "infinite",
				"rescueTokensInMultipleDatas(uint256[])": "infinite",
				"revealPeriodActive(uint256)": "infinite",
				"revealPeriodOver(uint256)": "3106",
				"revealSpotCheck(uint256,string,uint256,uint256)": "infinite",
				"shuffle_array(uint256)": "infinite",
				"toUnregisterWorkers(uint256)": "2128",
				"token()": "1158",
				"transferOwnership(address)": "infinite",
				"updateAllocatedBatchCursor(uint256)": "21291",
				"updateBatchCheckingCursor(uint256)": "21336",
				"updateGlobalSpotFlow()": "infinite",
				"updateParametersManager(address)": "22256",
				"updateUserSpotFlow(address)": "infinite",
				"validPosition(uint256,uint256,address,uint256)": "infinite",
				"withdrawVotingRights(uint256)": "infinite"
			},
			"internal": {
				"AllocateWork()": "infinite",
				"IsInLogoffList(address)": "infinite",
				"PopFromAvailableWorkers(address)": "infinite",
				"PopFromBusyWorkers(address)": "infinite",
				"PopFromLogoffList(address)": "infinite",
				"ValidateDataBatch(uint256)": "infinite",
				"_retrieveSFuel()": "infinite",
				"deleteOldData()": "infinite",
				"isInAvailableWorkers(address)": "infinite",
				"isInBusyWorkers(address)": "infinite",
				"processLogoffRequests()": "infinite",
				"requestAllocatedStake(uint256,address)": "infinite"
			}
		},
		"methodIdentifiers": {
			"AcceptedBatchsCounter()": "9769d846",
			"AllTxsCounter()": "f2d9e74d",
			"AllocatedBatchCursor()": "d6b0206c",
			"AmIRegistered()": "f80a23fd",
			"AreStringsEqual(string,string)": "a9057790",
			"BatchCheckingCursor()": "ef4fcdad",
			"BatchDeletionCursor()": "d58f575c",
			"DataBatch(uint256)": "7fabe35b",
			"DataCommitEndDate(uint256)": "c4e4f82a",
			"DataEnded(uint256)": "226ed300",
			"DataExists(uint256)": "f721de4a",
			"DataNonce()": "0e6661a7",
			"DataRevealEndDate(uint256)": "71880b1b",
			"GetCurrentWork(address)": "fca49563",
			"GlobalSpotFlowManager(uint256)": "3c062cc8",
			"IsNewWorkAvailable(address)": "b1a2e0be",
			"LastAllocationTime()": "d0d41def",
			"LastBatchCounter()": "8473850b",
			"MasterWorkers(address,uint256)": "d822ce01",
			"NotCommitedCounter()": "4852e2f0",
			"NotRevealedCounter()": "eb1322ff",
			"Parameters()": "ff43de9d",
			"RegisterWorker()": "f716596d",
			"RejectedBatchsCounter()": "a350715a",
			"SPOT_TOGGLE_ENABLED()": "36fc43fc",
			"SelectAddressForUser(address,uint256)": "8746ff8a",
			"SpotData(string[],string[],uint256,string)": "bc3002e6",
			"SpotsMapping(uint256)": "0b96c5b0",
			"SystemStakedTokenBalance(address)": "31e2f285",
			"TriggerUpdate()": "da14563a",
			"UnregisterWorker()": "275c2590",
			"UserBatchCounts(uint256,address)": "5b113a55",
			"UserBatchFrom(uint256,address)": "88d072eb",
			"UserChecksCommits(address,uint256)": "2d917c68",
			"UserChecksReveals(address,uint256)": "d420ec0b",
			"UserNewFiles(uint256,address)": "2f469fd1",
			"UserSubmissions(address,uint256)": "5dc44cf1",
			"UserVotes(uint256,address)": "d8b75674",
			"WorkersPerBatch(uint256,uint256)": "8df0296e",
			"WorkersSpotFlowManager(address,uint256)": "413b90f7",
			"WorkersState(address)": "8c89d027",
			"attrUUID(address,uint256)": "a1103f37",
			"availableWorkers(uint256)": "3538af82",
			"busyWorkers(uint256)": "821aa8c0",
			"commitPeriodActive(uint256)": "a4439dc5",
			"commitPeriodOver(uint256)": "7018e9c6",
			"commitSpotCheck(uint256,bytes32,bytes32,uint256,string)": "83e5a8f6",
			"deleteData(uint256)": "4fe8b4c1",
			"deleteDataBatch(uint256)": "6371d81f",
			"destroyContract()": "092a5cce",
			"didCommit(address,uint256)": "7f97e836",
			"didReveal(address,uint256)": "aa7ca464",
			"generateIntegers(uint256,uint256)": "b1d7ea98",
			"getAcceptedBatchesCount()": "a1b6b5b7",
			"getActiveWorkersCount()": "7f9510a2",
			"getAvailableWorkersCount()": "53bf27f1",
			"getBatchByID(uint256)": "d9845fb8",
			"getBatchIPFSFileByID(uint256)": "e604c127",
			"getBusyWorkersCount()": "763a39f2",
			"getCommitIPFSHash(address,uint256)": "7ad3be11",
			"getCommitVoteHash(address,uint256)": "b0bc471e",
			"getDataByID(uint256)": "5a452943",
			"getDomainsForBatch(uint256)": "19d90346",
			"getEncryptedHash(uint256,uint256)": "b1cf4a7e",
			"getEncryptedStringHash(string,uint256)": "f4cdfcc4",
			"getFromsForBatch(uint256)": "5df6055d",
			"getGlobalPeriodSpotCount()": "815ce747",
			"getIPFShashesForBatch(uint256)": "ed8becfa",
			"getInsertPointForNumTokens(address,uint256,uint256)": "2c052031",
			"getLastAllocatedBatchId()": "154fd39b",
			"getLastBatchId()": "515535e8",
			"getLastCheckedBatchId()": "47fe2d20",
			"getLastDataId()": "a511dba0",
			"getLastNode(address)": "427fa1d2",
			"getLockedTokens(address)": "6b2d95d4",
			"getMultiBatchIPFShashes(uint256,uint256)": "fd414881",
			"getNumPassingTokens(address,uint256,uint256)": "b43bd069",
			"getNumTokens(address,uint256)": "d1382092",
			"getRandom()": "aacc5a17",
			"getRejectedBatchesCount()": "f96305f0",
			"getSeed()": "39e7357c",
			"getSubmittedFilesForBatch(uint256)": "d817587e",
			"getSystemTokenBalance(address)": "7074222b",
			"getTxCounter()": "f5ae7c7d",
			"getUserDatas(address)": "579db71c",
			"getUserPeriodSpotCount(address)": "9d6e3f96",
			"getVotesForBatch(uint256)": "01a48b98",
			"isExpired(uint256)": "d9548e53",
			"isPassed(uint256)": "49403183",
			"isWorkerAllocatedToBatch(uint256,address)": "d186981d",
			"isWorkerRegistered(address)": "e798a7da",
			"owner()": "8da5cb5b",
			"random_selection(uint256,uint256)": "b8f011b3",
			"remainingCommitDuration(uint256)": "7860dd41",
			"remainingRevealDuration(uint256)": "01aa5f73",
			"renounceOwnership()": "715018a6",
			"rescueTokens(uint256)": "97603560",
			"rescueTokensInMultipleDatas(uint256[])": "9fc9c52f",
			"revealPeriodActive(uint256)": "441c77c0",
			"revealPeriodOver(uint256)": "63b563a8",
			"revealSpotCheck(uint256,string,uint256,uint256)": "a98eb31e",
			"shuffle_array(uint256)": "e44c974b",
			"toUnregisterWorkers(uint256)": "b10aa584",
			"token()": "fc0c546a",
			"transferOwnership(address)": "f2fde38b",
			"updateAllocatedBatchCursor(uint256)": "77124dec",
			"updateBatchCheckingCursor(uint256)": "100372f5",
			"updateGlobalSpotFlow()": "607d5efa",
			"updateParametersManager(address)": "05957623",
			"updateUserSpotFlow(address)": "576a5543",
			"validPosition(uint256,uint256,address,uint256)": "819b0293",
			"withdrawVotingRights(uint256)": "e7b1d43c"
		}
	},
	"abi": [
		{
			"inputs": [
				{
					"internalType": "address",
					"name": "EXDT_token_",
					"type": "address"
				}
			],
			"stateMutability": "nonpayable",
			"type": "constructor"
		},
		{
			"anonymous": false,
			"inputs": [
				{
					"indexed": false,
					"internalType": "bytes",
					"name": "bytesFailure",
					"type": "bytes"
				}
			],
			"name": "BytesFailure",
			"type": "event"
		},
		{
			"anonymous": false,
			"inputs": [
				{
					"indexed": true,
					"internalType": "address",
					"name": "previousOwner",
					"type": "address"
				},
				{
					"indexed": true,
					"internalType": "address",
					"name": "newOwner",
					"type": "address"
				}
			],
			"name": "OwnershipTransferred",
			"type": "event"
		},
		{
			"anonymous": false,
			"inputs": [
				{
					"indexed": true,
					"internalType": "uint256",
					"name": "batchID",
					"type": "uint256"
				}
			],
			"name": "_DataBatchDeleted",
			"type": "event"
		},
		{
			"anonymous": false,
			"inputs": [
				{
					"indexed": false,
					"internalType": "string",
					"name": "hash",
					"type": "string"
				},
				{
					"indexed": true,
					"internalType": "address",
					"name": "creator",
					"type": "address"
				}
			],
			"name": "_SpotAccepted",
			"type": "event"
		},
		{
			"anonymous": false,
			"inputs": [
				{
					"indexed": true,
					"internalType": "uint256",
					"name": "DataID",
					"type": "uint256"
				},
				{
					"indexed": false,
					"internalType": "uint256",
					"name": "numTokens",
					"type": "uint256"
				},
				{
					"indexed": true,
					"internalType": "address",
					"name": "voter",
					"type": "address"
				}
			],
			"name": "_SpotCheckCommitted",
			"type": "event"
		},
		{
			"anonymous": false,
			"inputs": [
				{
					"indexed": true,
					"internalType": "uint256",
					"name": "DataID",
					"type": "uint256"
				},
				{
					"indexed": false,
					"internalType": "uint256",
					"name": "numTokens",
					"type": "uint256"
				},
				{
					"indexed": false,
					"internalType": "uint256",
					"name": "votesFor",
					"type": "uint256"
				},
				{
					"indexed": false,
					"internalType": "uint256",
					"name": "votesAgainst",
					"type": "uint256"
				},
				{
					"indexed": true,
					"internalType": "uint256",
					"name": "choice",
					"type": "uint256"
				},
				{
					"indexed": true,
					"internalType": "address",
					"name": "voter",
					"type": "address"
				}
			],
			"name": "_SpotCheckRevealed",
			"type": "event"
		},
		{
			"anonymous": false,
			"inputs": [
				{
					"indexed": true,
					"internalType": "uint256",
					"name": "DataID",
					"type": "uint256"
				},
				{
					"indexed": false,
					"internalType": "string",
					"name": "file_hash",
					"type": "string"
				},
				{
					"indexed": false,
					"internalType": "string",
					"name": "URL_domain",
					"type": "string"
				},
				{
					"indexed": true,
					"internalType": "address",
					"name": "sender",
					"type": "address"
				}
			],
			"name": "_SpotSubmitted",
			"type": "event"
		},
		{
			"anonymous": false,
			"inputs": [
				{
					"indexed": false,
					"internalType": "uint256",
					"name": "numTokens",
					"type": "uint256"
				},
				{
					"indexed": true,
					"internalType": "address",
					"name": "voter",
					"type": "address"
				}
			],
			"name": "_StakeAllocated",
			"type": "event"
		},
		{
			"anonymous": false,
			"inputs": [
				{
					"indexed": true,
					"internalType": "uint256",
					"name": "DataID",
					"type": "uint256"
				},
				{
					"indexed": true,
					"internalType": "address",
					"name": "voter",
					"type": "address"
				}
			],
			"name": "_TokensRescued",
			"type": "event"
		},
		{
			"anonymous": false,
			"inputs": [
				{
					"indexed": false,
					"internalType": "uint256",
					"name": "numTokens",
					"type": "uint256"
				},
				{
					"indexed": true,
					"internalType": "address",
					"name": "voter",
					"type": "address"
				}
			],
			"name": "_VotingRightsWithdrawn",
			"type": "event"
		},
		{
			"anonymous": false,
			"inputs": [
				{
					"indexed": true,
					"internalType": "uint256",
					"name": "batchID",
					"type": "uint256"
				},
				{
					"indexed": false,
					"internalType": "address",
					"name": "worker",
					"type": "address"
				}
			],
			"name": "_WorkAllocated",
			"type": "event"
		},
		{
			"anonymous": false,
			"inputs": [
				{
					"indexed": true,
					"internalType": "address",
					"name": "worker",
					"type": "address"
				},
				{
					"indexed": false,
					"internalType": "uint256",
					"name": "timestamp",
					"type": "uint256"
				}
			],
			"name": "_WorkerRegistered",
			"type": "event"
		},
		{
			"anonymous": false,
			"inputs": [
				{
					"indexed": true,
					"internalType": "address",
					"name": "worker",
					"type": "address"
				},
				{
					"indexed": false,
					"internalType": "uint256",
					"name": "timestamp",
					"type": "uint256"
				}
			],
			"name": "_WorkerUnregistered",
			"type": "event"
		},
		{
			"inputs": [],
			"name": "AcceptedBatchsCounter",
			"outputs": [
				{
					"internalType": "uint256",
					"name": "",
					"type": "uint256"
				}
			],
			"stateMutability": "view",
			"type": "function"
		},
		{
			"inputs": [],
			"name": "AllTxsCounter",
			"outputs": [
				{
					"internalType": "uint256",
					"name": "",
					"type": "uint256"
				}
			],
			"stateMutability": "view",
			"type": "function"
		},
		{
			"inputs": [],
			"name": "AllocatedBatchCursor",
			"outputs": [
				{
					"internalType": "uint256",
					"name": "",
					"type": "uint256"
				}
			],
			"stateMutability": "view",
			"type": "function"
		},
		{
			"inputs": [],
			"name": "AmIRegistered",
			"outputs": [
				{
					"internalType": "bool",
					"name": "passed",
					"type": "bool"
				}
			],
			"stateMutability": "view",
			"type": "function"
		},
		{
			"inputs": [
				{
					"internalType": "string",
					"name": "_a",
					"type": "string"
				},
				{
					"internalType": "string",
					"name": "_b",
					"type": "string"
				}
			],
			"name": "AreStringsEqual",
			"outputs": [
				{
					"internalType": "bool",
					"name": "",
					"type": "bool"
				}
			],
			"stateMutability": "pure",
			"type": "function"
		},
		{
			"inputs": [],
			"name": "BatchCheckingCursor",
			"outputs": [
				{
					"internalType": "uint256",
					"name": "",
					"type": "uint256"
				}
			],
			"stateMutability": "view",
			"type": "function"
		},
		{
			"inputs": [],
			"name": "BatchDeletionCursor",
			"outputs": [
				{
					"internalType": "uint256",
					"name": "",
					"type": "uint256"
				}
			],
			"stateMutability": "view",
			"type": "function"
		},
		{
			"inputs": [
				{
					"internalType": "uint256",
					"name": "",
					"type": "uint256"
				}
			],
			"name": "DataBatch",
			"outputs": [
				{
					"internalType": "uint256",
					"name": "start_idx",
					"type": "uint256"
				},
				{
					"internalType": "uint256",
					"name": "counter",
					"type": "uint256"
				},
				{
					"internalType": "uint256",
					"name": "uncommited_workers",
					"type": "uint256"
				},
				{
					"internalType": "uint256",
					"name": "unrevealed_workers",
					"type": "uint256"
				},
				{
					"internalType": "bool",
					"name": "complete",
					"type": "bool"
				},
				{
					"internalType": "bool",
					"name": "checked",
					"type": "bool"
				},
				{
					"internalType": "bool",
					"name": "allocated_to_work",
					"type": "bool"
				},
				{
					"internalType": "uint256",
					"name": "commitEndDate",
					"type": "uint256"
				},
				{
					"internalType": "uint256",
					"name": "revealEndDate",
					"type": "uint256"
				},
				{
					"internalType": "uint256",
					"name": "votesFor",
					"type": "uint256"
				},
				{
					"internalType": "uint256",
					"name": "votesAgainst",
					"type": "uint256"
				},
				{
					"internalType": "string",
					"name": "batchIPFSfile",
					"type": "string"
				},
				{
					"internalType": "uint256",
					"name": "item_count",
					"type": "uint256"
				},
				{
					"internalType": "enum DataSpotting.DataStatus",
					"name": "status",
					"type": "uint8"
				}
			],
			"stateMutability": "view",
			"type": "function"
		},
		{
			"inputs": [
				{
					"internalType": "uint256",
					"name": "_DataBatchId",
					"type": "uint256"
				}
			],
			"name": "DataCommitEndDate",
			"outputs": [
				{
					"internalType": "uint256",
					"name": "commitEndDate",
					"type": "uint256"
				}
			],
			"stateMutability": "view",
			"type": "function"
		},
		{
			"inputs": [
				{
					"internalType": "uint256",
					"name": "_DataBatchId",
					"type": "uint256"
				}
			],
			"name": "DataEnded",
			"outputs": [
				{
					"internalType": "bool",
					"name": "ended",
					"type": "bool"
				}
			],
			"stateMutability": "view",
			"type": "function"
		},
		{
			"inputs": [
				{
					"internalType": "uint256",
					"name": "_DataBatchId",
					"type": "uint256"
				}
			],
			"name": "DataExists",
			"outputs": [
				{
					"internalType": "bool",
					"name": "exists",
					"type": "bool"
				}
			],
			"stateMutability": "view",
			"type": "function"
		},
		{
			"inputs": [],
			"name": "DataNonce",
			"outputs": [
				{
					"internalType": "uint256",
					"name": "",
					"type": "uint256"
				}
			],
			"stateMutability": "view",
			"type": "function"
		},
		{
			"inputs": [
				{
					"internalType": "uint256",
					"name": "_DataBatchId",
					"type": "uint256"
				}
			],
			"name": "DataRevealEndDate",
			"outputs": [
				{
					"internalType": "uint256",
					"name": "revealEndDate",
					"type": "uint256"
				}
			],
			"stateMutability": "view",
			"type": "function"
		},
		{
			"inputs": [
				{
					"internalType": "address",
					"name": "user_",
					"type": "address"
				}
			],
			"name": "GetCurrentWork",
			"outputs": [
				{
					"internalType": "uint256",
					"name": "",
					"type": "uint256"
				}
			],
			"stateMutability": "view",
			"type": "function"
		},
		{
			"inputs": [
				{
					"internalType": "uint256",
					"name": "",
					"type": "uint256"
				}
			],
			"name": "GlobalSpotFlowManager",
			"outputs": [
				{
					"internalType": "uint256",
					"name": "timestamp",
					"type": "uint256"
				},
				{
					"internalType": "uint256",
					"name": "counter",
					"type": "uint256"
				}
			],
			"stateMutability": "view",
			"type": "function"
		},
		{
			"inputs": [
				{
					"internalType": "address",
					"name": "user_",
					"type": "address"
				}
			],
			"name": "IsNewWorkAvailable",
			"outputs": [
				{
					"internalType": "bool",
					"name": "",
					"type": "bool"
				}
			],
			"stateMutability": "view",
			"type": "function"
		},
		{
			"inputs": [],
			"name": "LastAllocationTime",
			"outputs": [
				{
					"internalType": "uint256",
					"name": "",
					"type": "uint256"
				}
			],
			"stateMutability": "view",
			"type": "function"
		},
		{
			"inputs": [],
			"name": "LastBatchCounter",
			"outputs": [
				{
					"internalType": "uint256",
					"name": "",
					"type": "uint256"
				}
			],
			"stateMutability": "view",
			"type": "function"
		},
		{
			"inputs": [
				{
					"internalType": "address",
					"name": "",
					"type": "address"
				},
				{
					"internalType": "uint256",
					"name": "",
					"type": "uint256"
				}
			],
			"name": "MasterWorkers",
			"outputs": [
				{
					"internalType": "address",
					"name": "",
					"type": "address"
				}
			],
			"stateMutability": "view",
			"type": "function"
		},
		{
			"inputs": [],
			"name": "NotCommitedCounter",
			"outputs": [
				{
					"internalType": "uint256",
					"name": "",
					"type": "uint256"
				}
			],
			"stateMutability": "view",
			"type": "function"
		},
		{
			"inputs": [],
			"name": "NotRevealedCounter",
			"outputs": [
				{
					"internalType": "uint256",
					"name": "",
					"type": "uint256"
				}
			],
			"stateMutability": "view",
			"type": "function"
		},
		{
			"inputs": [],
			"name": "Parameters",
			"outputs": [
				{
					"internalType": "contract IParametersManager",
					"name": "",
					"type": "address"
				}
			],
			"stateMutability": "view",
			"type": "function"
		},
		{
			"inputs": [],
			"name": "RegisterWorker",
			"outputs": [],
			"stateMutability": "nonpayable",
			"type": "function"
		},
		{
			"inputs": [],
			"name": "RejectedBatchsCounter",
			"outputs": [
				{
					"internalType": "uint256",
					"name": "",
					"type": "uint256"
				}
			],
			"stateMutability": "view",
			"type": "function"
		},
		{
			"inputs": [],
			"name": "SPOT_TOGGLE_ENABLED",
			"outputs": [
				{
					"internalType": "bool",
					"name": "",
					"type": "bool"
				}
			],
			"stateMutability": "view",
			"type": "function"
		},
		{
			"inputs": [
				{
					"internalType": "address",
					"name": "_worker",
					"type": "address"
				},
				{
					"internalType": "uint256",
					"name": "_TokensAmountToAllocate",
					"type": "uint256"
				}
			],
			"name": "SelectAddressForUser",
			"outputs": [
				{
					"internalType": "address",
					"name": "",
					"type": "address"
				}
			],
			"stateMutability": "view",
			"type": "function"
		},
		{
			"inputs": [
				{
					"internalType": "string[]",
					"name": "file_hashs",
					"type": "string[]"
				},
				{
					"internalType": "string[]",
					"name": "URL_domains",
					"type": "string[]"
				},
				{
					"internalType": "uint256",
					"name": "item_count_",
					"type": "uint256"
				},
				{
					"internalType": "string",
					"name": "extra_",
					"type": "string"
				}
			],
			"name": "SpotData",
			"outputs": [
				{
					"internalType": "uint256",
					"name": "Dataid_",
					"type": "uint256"
				}
			],
			"stateMutability": "nonpayable",
			"type": "function"
		},
		{
			"inputs": [
				{
					"internalType": "uint256",
					"name": "",
					"type": "uint256"
				}
			],
			"name": "SpotsMapping",
			"outputs": [
				{
					"internalType": "string",
					"name": "ipfs_hash",
					"type": "string"
				},
				{
					"internalType": "address",
					"name": "author",
					"type": "address"
				},
				{
					"internalType": "uint256",
					"name": "timestamp",
					"type": "uint256"
				},
				{
					"internalType": "uint256",
					"name": "item_count",
					"type": "uint256"
				},
				{
					"internalType": "string",
					"name": "URL_domain",
					"type": "string"
				},
				{
					"internalType": "string",
					"name": "extra",
					"type": "string"
				},
				{
					"internalType": "enum DataSpotting.DataStatus",
					"name": "status",
					"type": "uint8"
				}
			],
			"stateMutability": "view",
			"type": "function"
		},
		{
			"inputs": [
				{
					"internalType": "address",
					"name": "",
					"type": "address"
				}
			],
			"name": "SystemStakedTokenBalance",
			"outputs": [
				{
					"internalType": "uint256",
					"name": "",
					"type": "uint256"
				}
			],
			"stateMutability": "view",
			"type": "function"
		},
		{
			"inputs": [],
			"name": "TriggerUpdate",
			"outputs": [],
			"stateMutability": "nonpayable",
			"type": "function"
		},
		{
			"inputs": [],
			"name": "UnregisterWorker",
			"outputs": [],
			"stateMutability": "nonpayable",
			"type": "function"
		},
		{
			"inputs": [
				{
					"internalType": "uint256",
					"name": "",
					"type": "uint256"
				},
				{
					"internalType": "address",
					"name": "",
					"type": "address"
				}
			],
			"name": "UserBatchCounts",
			"outputs": [
				{
					"internalType": "uint256",
					"name": "",
					"type": "uint256"
				}
			],
			"stateMutability": "view",
			"type": "function"
		},
		{
			"inputs": [
				{
					"internalType": "uint256",
					"name": "",
					"type": "uint256"
				},
				{
					"internalType": "address",
					"name": "",
					"type": "address"
				}
			],
			"name": "UserBatchFrom",
			"outputs": [
				{
					"internalType": "string",
					"name": "",
					"type": "string"
				}
			],
			"stateMutability": "view",
			"type": "function"
		},
		{
			"inputs": [
				{
					"internalType": "address",
					"name": "",
					"type": "address"
				},
				{
					"internalType": "uint256",
					"name": "",
					"type": "uint256"
				}
			],
			"name": "UserChecksCommits",
			"outputs": [
				{
					"internalType": "bool",
					"name": "",
					"type": "bool"
				}
			],
			"stateMutability": "view",
			"type": "function"
		},
		{
			"inputs": [
				{
					"internalType": "address",
					"name": "",
					"type": "address"
				},
				{
					"internalType": "uint256",
					"name": "",
					"type": "uint256"
				}
			],
			"name": "UserChecksReveals",
			"outputs": [
				{
					"internalType": "bool",
					"name": "",
					"type": "bool"
				}
			],
			"stateMutability": "view",
			"type": "function"
		},
		{
			"inputs": [
				{
					"internalType": "uint256",
					"name": "",
					"type": "uint256"
				},
				{
					"internalType": "address",
					"name": "",
					"type": "address"
				}
			],
			"name": "UserNewFiles",
			"outputs": [
				{
					"internalType": "string",
					"name": "",
					"type": "string"
				}
			],
			"stateMutability": "view",
			"type": "function"
		},
		{
			"inputs": [
				{
					"internalType": "address",
					"name": "",
					"type": "address"
				},
				{
					"internalType": "uint256",
					"name": "",
					"type": "uint256"
				}
			],
			"name": "UserSubmissions",
			"outputs": [
				{
					"internalType": "uint256",
					"name": "",
					"type": "uint256"
				}
			],
			"stateMutability": "view",
			"type": "function"
		},
		{
			"inputs": [
				{
					"internalType": "uint256",
					"name": "",
					"type": "uint256"
				},
				{
					"internalType": "address",
					"name": "",
					"type": "address"
				}
			],
			"name": "UserVotes",
			"outputs": [
				{
					"internalType": "uint256",
					"name": "",
					"type": "uint256"
				}
			],
			"stateMutability": "view",
			"type": "function"
		},
		{
			"inputs": [
				{
					"internalType": "uint256",
					"name": "",
					"type": "uint256"
				},
				{
					"internalType": "uint256",
					"name": "",
					"type": "uint256"
				}
			],
			"name": "WorkersPerBatch",
			"outputs": [
				{
					"internalType": "address",
					"name": "",
					"type": "address"
				}
			],
			"stateMutability": "view",
			"type": "function"
		},
		{
			"inputs": [
				{
					"internalType": "address",
					"name": "",
					"type": "address"
				},
				{
					"internalType": "uint256",
					"name": "",
					"type": "uint256"
				}
			],
			"name": "WorkersSpotFlowManager",
			"outputs": [
				{
					"internalType": "uint256",
					"name": "timestamp",
					"type": "uint256"
				},
				{
					"internalType": "uint256",
					"name": "counter",
					"type": "uint256"
				}
			],
			"stateMutability": "view",
			"type": "function"
		},
		{
			"inputs": [
				{
					"internalType": "address",
					"name": "",
					"type": "address"
				}
			],
			"name": "WorkersState",
			"outputs": [
				{
					"internalType": "address",
					"name": "worker_address",
					"type": "address"
				},
				{
					"internalType": "uint256",
					"name": "allocated_work_batch",
					"type": "uint256"
				},
				{
					"internalType": "bool",
					"name": "has_completed_work",
					"type": "bool"
				},
				{
					"internalType": "uint256",
					"name": "succeeding_novote_count",
					"type": "uint256"
				},
				{
					"internalType": "uint256",
					"name": "last_interaction_date",
					"type": "uint256"
				},
				{
					"internalType": "bool",
					"name": "registered",
					"type": "bool"
				},
				{
					"internalType": "bool",
					"name": "unregistration_request",
					"type": "bool"
				},
				{
					"internalType": "uint256",
					"name": "registration_date",
					"type": "uint256"
				},
				{
					"internalType": "uint256",
					"name": "majority_counter",
					"type": "uint256"
				},
				{
					"internalType": "uint256",
					"name": "minority_counter",
					"type": "uint256"
				}
			],
			"stateMutability": "view",
			"type": "function"
		},
		{
			"inputs": [
				{
					"internalType": "address",
					"name": "_user",
					"type": "address"
				},
				{
					"internalType": "uint256",
					"name": "_DataBatchId",
					"type": "uint256"
				}
			],
			"name": "attrUUID",
			"outputs": [
				{
					"internalType": "bytes32",
					"name": "UUID",
					"type": "bytes32"
				}
			],
			"stateMutability": "pure",
			"type": "function"
		},
		{
			"inputs": [
				{
					"internalType": "uint256",
					"name": "",
					"type": "uint256"
				}
			],
			"name": "availableWorkers",
			"outputs": [
				{
					"internalType": "address",
					"name": "",
					"type": "address"
				}
			],
			"stateMutability": "view",
			"type": "function"
		},
		{
			"inputs": [
				{
					"internalType": "uint256",
					"name": "",
					"type": "uint256"
				}
			],
			"name": "busyWorkers",
			"outputs": [
				{
					"internalType": "address",
					"name": "",
					"type": "address"
				}
			],
			"stateMutability": "view",
			"type": "function"
		},
		{
			"inputs": [
				{
					"internalType": "uint256",
					"name": "_DataBatchId",
					"type": "uint256"
				}
			],
			"name": "commitPeriodActive",
			"outputs": [
				{
					"internalType": "bool",
					"name": "active",
					"type": "bool"
				}
			],
			"stateMutability": "view",
			"type": "function"
		},
		{
			"inputs": [
				{
					"internalType": "uint256",
					"name": "_DataBatchId",
					"type": "uint256"
				}
			],
			"name": "commitPeriodOver",
			"outputs": [
				{
					"internalType": "bool",
					"name": "active",
					"type": "bool"
				}
			],
			"stateMutability": "view",
			"type": "function"
		},
		{
			"inputs": [
				{
					"internalType": "uint256",
					"name": "_DataBatchId",
					"type": "uint256"
				},
				{
					"internalType": "bytes32",
					"name": "_encryptedHash",
					"type": "bytes32"
				},
				{
					"internalType": "bytes32",
					"name": "_encryptedVote",
					"type": "bytes32"
				},
				{
					"internalType": "uint256",
					"name": "_BatchCount",
					"type": "uint256"
				},
				{
					"internalType": "string",
					"name": "_From",
					"type": "string"
				}
			],
			"name": "commitSpotCheck",
			"outputs": [],
			"stateMutability": "nonpayable",
			"type": "function"
		},
		{
			"inputs": [
				{
					"internalType": "uint256",
					"name": "_DataId",
					"type": "uint256"
				}
			],
			"name": "deleteData",
			"outputs": [],
			"stateMutability": "nonpayable",
			"type": "function"
		},
		{
			"inputs": [
				{
					"internalType": "uint256",
					"name": "_BatchId",
					"type": "uint256"
				}
			],
			"name": "deleteDataBatch",
			"outputs": [],
			"stateMutability": "nonpayable",
			"type": "function"
		},
		{
			"inputs": [],
			"name": "destroyContract",
			"outputs": [],
			"stateMutability": "nonpayable",
			"type": "function"
		},
		{
			"inputs": [
				{
					"internalType": "address",
					"name": "_voter",
					"type": "address"
				},
				{
					"internalType": "uint256",
					"name": "_DataBatchId",
					"type": "uint256"
				}
			],
			"name": "didCommit",
			"outputs": [
				{
					"internalType": "bool",
					"name": "committed",
					"type": "bool"
				}
			],
			"stateMutability": "view",
			"type": "function"
		},
		{
			"inputs": [
				{
					"internalType": "address",
					"name": "_voter",
					"type": "address"
				},
				{
					"internalType": "uint256",
					"name": "_DataBatchId",
					"type": "uint256"
				}
			],
			"name": "didReveal",
			"outputs": [
				{
					"internalType": "bool",
					"name": "revealed",
					"type": "bool"
				}
			],
			"stateMutability": "view",
			"type": "function"
		},
		{
			"inputs": [
				{
					"internalType": "uint256",
					"name": "_k",
					"type": "uint256"
				},
				{
					"internalType": "uint256",
					"name": "N_range",
					"type": "uint256"
				}
			],
			"name": "generateIntegers",
			"outputs": [
				{
					"internalType": "uint256[]",
					"name": "",
					"type": "uint256[]"
				}
			],
			"stateMutability": "view",
			"type": "function"
		},
		{
			"inputs": [],
			"name": "getAcceptedBatchesCount",
			"outputs": [
				{
					"internalType": "uint256",
					"name": "count",
					"type": "uint256"
				}
			],
			"stateMutability": "view",
			"type": "function"
		},
		{
			"inputs": [],
			"name": "getActiveWorkersCount",
			"outputs": [
				{
					"internalType": "uint256",
					"name": "numWorkers",
					"type": "uint256"
				}
			],
			"stateMutability": "view",
			"type": "function"
		},
		{
			"inputs": [],
			"name": "getAvailableWorkersCount",
			"outputs": [
				{
					"internalType": "uint256",
					"name": "numWorkers",
					"type": "uint256"
				}
			],
			"stateMutability": "view",
			"type": "function"
		},
		{
			"inputs": [
				{
					"internalType": "uint256",
					"name": "_DataBatchId",
					"type": "uint256"
				}
			],
			"name": "getBatchByID",
			"outputs": [
				{
					"components": [
						{
							"internalType": "uint256",
							"name": "start_idx",
							"type": "uint256"
						},
						{
							"internalType": "uint256",
							"name": "counter",
							"type": "uint256"
						},
						{
							"internalType": "uint256",
							"name": "uncommited_workers",
							"type": "uint256"
						},
						{
							"internalType": "uint256",
							"name": "unrevealed_workers",
							"type": "uint256"
						},
						{
							"internalType": "bool",
							"name": "complete",
							"type": "bool"
						},
						{
							"internalType": "bool",
							"name": "checked",
							"type": "bool"
						},
						{
							"internalType": "bool",
							"name": "allocated_to_work",
							"type": "bool"
						},
						{
							"internalType": "uint256",
							"name": "commitEndDate",
							"type": "uint256"
						},
						{
							"internalType": "uint256",
							"name": "revealEndDate",
							"type": "uint256"
						},
						{
							"internalType": "uint256",
							"name": "votesFor",
							"type": "uint256"
						},
						{
							"internalType": "uint256",
							"name": "votesAgainst",
							"type": "uint256"
						},
						{
							"internalType": "string",
							"name": "batchIPFSfile",
							"type": "string"
						},
						{
							"internalType": "uint256",
							"name": "item_count",
							"type": "uint256"
						},
						{
							"internalType": "enum DataSpotting.DataStatus",
							"name": "status",
							"type": "uint8"
						}
					],
					"internalType": "struct DataSpotting.BatchMetadata",
					"name": "batch",
					"type": "tuple"
				}
			],
			"stateMutability": "view",
			"type": "function"
		},
		{
			"inputs": [
				{
					"internalType": "uint256",
					"name": "_DataBatchId",
					"type": "uint256"
				}
			],
			"name": "getBatchIPFSFileByID",
			"outputs": [
				{
					"internalType": "string",
					"name": "batch",
					"type": "string"
				}
			],
			"stateMutability": "view",
			"type": "function"
		},
		{
			"inputs": [],
			"name": "getBusyWorkersCount",
			"outputs": [
				{
					"internalType": "uint256",
					"name": "numWorkers",
					"type": "uint256"
				}
			],
			"stateMutability": "view",
			"type": "function"
		},
		{
			"inputs": [
				{
					"internalType": "address",
					"name": "_voter",
					"type": "address"
				},
				{
					"internalType": "uint256",
					"name": "_DataBatchId",
					"type": "uint256"
				}
			],
			"name": "getCommitIPFSHash",
			"outputs": [
				{
					"internalType": "bytes32",
					"name": "commitHash",
					"type": "bytes32"
				}
			],
			"stateMutability": "view",
			"type": "function"
		},
		{
			"inputs": [
				{
					"internalType": "address",
					"name": "_voter",
					"type": "address"
				},
				{
					"internalType": "uint256",
					"name": "_DataBatchId",
					"type": "uint256"
				}
			],
			"name": "getCommitVoteHash",
			"outputs": [
				{
					"internalType": "bytes32",
					"name": "commitHash",
					"type": "bytes32"
				}
			],
			"stateMutability": "view",
			"type": "function"
		},
		{
			"inputs": [
				{
					"internalType": "uint256",
					"name": "_DataId",
					"type": "uint256"
				}
			],
			"name": "getDataByID",
			"outputs": [
				{
					"components": [
						{
							"internalType": "string",
							"name": "ipfs_hash",
							"type": "string"
						},
						{
							"internalType": "address",
							"name": "author",
							"type": "address"
						},
						{
							"internalType": "uint256",
							"name": "timestamp",
							"type": "uint256"
						},
						{
							"internalType": "uint256",
							"name": "item_count",
							"type": "uint256"
						},
						{
							"internalType": "string",
							"name": "URL_domain",
							"type": "string"
						},
						{
							"internalType": "string",
							"name": "extra",
							"type": "string"
						},
						{
							"internalType": "enum DataSpotting.DataStatus",
							"name": "status",
							"type": "uint8"
						}
					],
					"internalType": "struct DataSpotting.SpottedData",
					"name": "data",
					"type": "tuple"
				}
			],
			"stateMutability": "view",
			"type": "function"
		},
		{
			"inputs": [
				{
					"internalType": "uint256",
					"name": "_DataBatchId",
					"type": "uint256"
				}
			],
			"name": "getDomainsForBatch",
			"outputs": [
				{
					"internalType": "string[]",
					"name": "",
					"type": "string[]"
				}
			],
			"stateMutability": "view",
			"type": "function"
		},
		{
			"inputs": [
				{
					"internalType": "uint256",
					"name": "_clearVote",
					"type": "uint256"
				},
				{
					"internalType": "uint256",
					"name": "_salt",
					"type": "uint256"
				}
			],
			"name": "getEncryptedHash",
			"outputs": [
				{
					"internalType": "bytes32",
					"name": "keccak256hash",
					"type": "bytes32"
				}
			],
			"stateMutability": "pure",
			"type": "function"
		},
		{
			"inputs": [
				{
					"internalType": "string",
					"name": "_hash",
					"type": "string"
				},
				{
					"internalType": "uint256",
					"name": "_salt",
					"type": "uint256"
				}
			],
			"name": "getEncryptedStringHash",
			"outputs": [
				{
					"internalType": "bytes32",
					"name": "keccak256hash",
					"type": "bytes32"
				}
			],
			"stateMutability": "pure",
			"type": "function"
		},
		{
			"inputs": [
				{
					"internalType": "uint256",
					"name": "_DataBatchId",
					"type": "uint256"
				}
			],
			"name": "getFromsForBatch",
			"outputs": [
				{
					"internalType": "string[]",
					"name": "",
					"type": "string[]"
				}
			],
			"stateMutability": "view",
			"type": "function"
		},
		{
			"inputs": [],
			"name": "getGlobalPeriodSpotCount",
			"outputs": [
				{
					"internalType": "uint256",
					"name": "",
					"type": "uint256"
				}
			],
			"stateMutability": "view",
			"type": "function"
		},
		{
			"inputs": [
				{
					"internalType": "uint256",
					"name": "_DataBatchId",
					"type": "uint256"
				}
			],
			"name": "getIPFShashesForBatch",
			"outputs": [
				{
					"internalType": "string[]",
					"name": "",
					"type": "string[]"
				}
			],
			"stateMutability": "view",
			"type": "function"
		},
		{
			"inputs": [
				{
					"internalType": "address",
					"name": "_voter",
					"type": "address"
				},
				{
					"internalType": "uint256",
					"name": "_numTokens",
					"type": "uint256"
				},
				{
					"internalType": "uint256",
					"name": "_DataBatchId",
					"type": "uint256"
				}
			],
			"name": "getInsertPointForNumTokens",
			"outputs": [
				{
					"internalType": "uint256",
					"name": "prevNode",
					"type": "uint256"
				}
			],
			"stateMutability": "view",
			"type": "function"
		},
		{
			"inputs": [],
			"name": "getLastAllocatedBatchId",
			"outputs": [
				{
					"internalType": "uint256",
					"name": "LastAllocatedBatchId",
					"type": "uint256"
				}
			],
			"stateMutability": "view",
			"type": "function"
		},
		{
			"inputs": [],
			"name": "getLastBatchId",
			"outputs": [
				{
					"internalType": "uint256",
					"name": "LastBatchId",
					"type": "uint256"
				}
			],
			"stateMutability": "view",
			"type": "function"
		},
		{
			"inputs": [],
			"name": "getLastCheckedBatchId",
			"outputs": [
				{
					"internalType": "uint256",
					"name": "LastCheckedBatchId",
					"type": "uint256"
				}
			],
			"stateMutability": "view",
			"type": "function"
		},
		{
			"inputs": [],
			"name": "getLastDataId",
			"outputs": [
				{
					"internalType": "uint256",
					"name": "DataId",
					"type": "uint256"
				}
			],
			"stateMutability": "view",
			"type": "function"
		},
		{
			"inputs": [
				{
					"internalType": "address",
					"name": "_voter",
					"type": "address"
				}
			],
			"name": "getLastNode",
			"outputs": [
				{
					"internalType": "uint256",
					"name": "DataID",
					"type": "uint256"
				}
			],
			"stateMutability": "view",
			"type": "function"
		},
		{
			"inputs": [
				{
					"internalType": "address",
					"name": "_voter",
					"type": "address"
				}
			],
			"name": "getLockedTokens",
			"outputs": [
				{
					"internalType": "uint256",
					"name": "numTokens",
					"type": "uint256"
				}
			],
			"stateMutability": "view",
			"type": "function"
		},
		{
			"inputs": [
				{
					"internalType": "uint256",
					"name": "_DataBatchId_a",
					"type": "uint256"
				},
				{
					"internalType": "uint256",
					"name": "_DataBatchId_b",
					"type": "uint256"
				}
			],
			"name": "getMultiBatchIPFShashes",
			"outputs": [
				{
					"internalType": "string[]",
					"name": "",
					"type": "string[]"
				}
			],
			"stateMutability": "view",
			"type": "function"
		},
		{
			"inputs": [
				{
					"internalType": "address",
					"name": "_voter",
					"type": "address"
				},
				{
					"internalType": "uint256",
					"name": "_DataBatchId",
					"type": "uint256"
				},
				{
					"internalType": "uint256",
					"name": "_salt",
					"type": "uint256"
				}
			],
			"name": "getNumPassingTokens",
			"outputs": [
				{
					"internalType": "uint256",
					"name": "correctSpotChecks",
					"type": "uint256"
				}
			],
			"stateMutability": "view",
			"type": "function"
		},
		{
			"inputs": [
				{
					"internalType": "address",
					"name": "_voter",
					"type": "address"
				},
				{
					"internalType": "uint256",
					"name": "_DataBatchId",
					"type": "uint256"
				}
			],
			"name": "getNumTokens",
			"outputs": [
				{
					"internalType": "uint256",
					"name": "numTokens",
					"type": "uint256"
				}
			],
			"stateMutability": "view",
			"type": "function"
		},
		{
			"inputs": [],
			"name": "getRandom",
			"outputs": [
				{
					"internalType": "uint256",
					"name": "",
					"type": "uint256"
				}
			],
			"stateMutability": "view",
			"type": "function"
		},
		{
			"inputs": [],
			"name": "getRejectedBatchesCount",
			"outputs": [
				{
					"internalType": "uint256",
					"name": "count",
					"type": "uint256"
				}
			],
			"stateMutability": "view",
			"type": "function"
		},
		{
			"inputs": [],
			"name": "getSeed",
			"outputs": [
				{
					"internalType": "bytes32",
					"name": "addr",
					"type": "bytes32"
				}
			],
			"stateMutability": "view",
			"type": "function"
		},
		{
			"inputs": [
				{
					"internalType": "uint256",
					"name": "_DataBatchId",
					"type": "uint256"
				}
			],
			"name": "getSubmittedFilesForBatch",
			"outputs": [
				{
					"internalType": "string[]",
					"name": "",
					"type": "string[]"
				}
			],
			"stateMutability": "view",
			"type": "function"
		},
		{
			"inputs": [
				{
					"internalType": "address",
					"name": "_user",
					"type": "address"
				}
			],
			"name": "getSystemTokenBalance",
			"outputs": [
				{
					"internalType": "uint256",
					"name": "tokens",
					"type": "uint256"
				}
			],
			"stateMutability": "view",
			"type": "function"
		},
		{
			"inputs": [],
			"name": "getTxCounter",
			"outputs": [
				{
					"internalType": "uint256",
					"name": "Counter",
					"type": "uint256"
				}
			],
			"stateMutability": "view",
			"type": "function"
		},
		{
			"inputs": [
				{
					"internalType": "address",
					"name": "user",
					"type": "address"
				}
			],
			"name": "getUserDatas",
			"outputs": [
				{
					"internalType": "uint256[]",
					"name": "user_Datas",
					"type": "uint256[]"
				}
			],
			"stateMutability": "view",
			"type": "function"
		},
		{
			"inputs": [
				{
					"internalType": "address",
					"name": "user_",
					"type": "address"
				}
			],
			"name": "getUserPeriodSpotCount",
			"outputs": [
				{
					"internalType": "uint256",
					"name": "",
					"type": "uint256"
				}
			],
			"stateMutability": "view",
			"type": "function"
		},
		{
			"inputs": [
				{
					"internalType": "uint256",
					"name": "_DataBatchId",
					"type": "uint256"
				}
			],
			"name": "getVotesForBatch",
			"outputs": [
				{
					"internalType": "uint256[]",
					"name": "",
					"type": "uint256[]"
				}
			],
			"stateMutability": "view",
			"type": "function"
		},
		{
			"inputs": [
				{
					"internalType": "uint256",
					"name": "_terminationDate",
					"type": "uint256"
				}
			],
			"name": "isExpired",
			"outputs": [
				{
					"internalType": "bool",
					"name": "expired",
					"type": "bool"
				}
			],
			"stateMutability": "view",
			"type": "function"
		},
		{
			"inputs": [
				{
					"internalType": "uint256",
					"name": "_DataBatchId",
					"type": "uint256"
				}
			],
			"name": "isPassed",
			"outputs": [
				{
					"internalType": "bool",
					"name": "passed",
					"type": "bool"
				}
			],
			"stateMutability": "view",
			"type": "function"
		},
		{
			"inputs": [
				{
					"internalType": "uint256",
					"name": "_DataBatchId",
					"type": "uint256"
				},
				{
					"internalType": "address",
					"name": "_worker",
					"type": "address"
				}
			],
			"name": "isWorkerAllocatedToBatch",
			"outputs": [
				{
					"internalType": "bool",
					"name": "",
					"type": "bool"
				}
			],
			"stateMutability": "view",
			"type": "function"
		},
		{
			"inputs": [
				{
					"internalType": "address",
					"name": "_worker",
					"type": "address"
				}
			],
			"name": "isWorkerRegistered",
			"outputs": [
				{
					"internalType": "bool",
					"name": "passed",
					"type": "bool"
				}
			],
			"stateMutability": "view",
			"type": "function"
		},
		{
			"inputs": [],
			"name": "owner",
			"outputs": [
				{
					"internalType": "address",
					"name": "",
					"type": "address"
				}
			],
			"stateMutability": "view",
			"type": "function"
		},
		{
			"inputs": [
				{
					"internalType": "uint256",
					"name": "k",
					"type": "uint256"
				},
				{
					"internalType": "uint256",
					"name": "N",
					"type": "uint256"
				}
			],
			"name": "random_selection",
			"outputs": [
				{
					"internalType": "uint256[]",
					"name": "",
					"type": "uint256[]"
				}
			],
			"stateMutability": "view",
			"type": "function"
		},
		{
			"inputs": [
				{
					"internalType": "uint256",
					"name": "_DataBatchId",
					"type": "uint256"
				}
			],
			"name": "remainingCommitDuration",
			"outputs": [
				{
					"internalType": "uint256",
					"name": "remainingTime",
					"type": "uint256"
				}
			],
			"stateMutability": "view",
			"type": "function"
		},
		{
			"inputs": [
				{
					"internalType": "uint256",
					"name": "_DataBatchId",
					"type": "uint256"
				}
			],
			"name": "remainingRevealDuration",
			"outputs": [
				{
					"internalType": "uint256",
					"name": "remainingTime",
					"type": "uint256"
				}
			],
			"stateMutability": "view",
			"type": "function"
		},
		{
			"inputs": [],
			"name": "renounceOwnership",
			"outputs": [],
			"stateMutability": "nonpayable",
			"type": "function"
		},
		{
			"inputs": [
				{
					"internalType": "uint256",
					"name": "_DataBatchId",
					"type": "uint256"
				}
			],
			"name": "rescueTokens",
			"outputs": [],
			"stateMutability": "nonpayable",
			"type": "function"
		},
		{
			"inputs": [
				{
					"internalType": "uint256[]",
					"name": "_DataBatchIDs",
					"type": "uint256[]"
				}
			],
			"name": "rescueTokensInMultipleDatas",
			"outputs": [],
			"stateMutability": "nonpayable",
			"type": "function"
		},
		{
			"inputs": [
				{
					"internalType": "uint256",
					"name": "_DataBatchId",
					"type": "uint256"
				}
			],
			"name": "revealPeriodActive",
			"outputs": [
				{
					"internalType": "bool",
					"name": "active",
					"type": "bool"
				}
			],
			"stateMutability": "view",
			"type": "function"
		},
		{
			"inputs": [
				{
					"internalType": "uint256",
					"name": "_DataBatchId",
					"type": "uint256"
				}
			],
			"name": "revealPeriodOver",
			"outputs": [
				{
					"internalType": "bool",
					"name": "active",
					"type": "bool"
				}
			],
			"stateMutability": "view",
			"type": "function"
		},
		{
			"inputs": [
				{
					"internalType": "uint256",
					"name": "_DataBatchId",
					"type": "uint256"
				},
				{
					"internalType": "string",
					"name": "_clearIPFSHash",
					"type": "string"
				},
				{
					"internalType": "uint256",
					"name": "_clearVote",
					"type": "uint256"
				},
				{
					"internalType": "uint256",
					"name": "_salt",
					"type": "uint256"
				}
			],
			"name": "revealSpotCheck",
			"outputs": [],
			"stateMutability": "nonpayable",
			"type": "function"
		},
		{
			"inputs": [
				{
					"internalType": "uint256",
					"name": "N",
					"type": "uint256"
				}
			],
			"name": "shuffle_array",
			"outputs": [
				{
					"internalType": "uint256[]",
					"name": "",
					"type": "uint256[]"
				}
			],
			"stateMutability": "view",
			"type": "function"
		},
		{
			"inputs": [
				{
					"internalType": "uint256",
					"name": "",
					"type": "uint256"
				}
			],
			"name": "toUnregisterWorkers",
			"outputs": [
				{
					"internalType": "address",
					"name": "",
					"type": "address"
				}
			],
			"stateMutability": "view",
			"type": "function"
		},
		{
			"inputs": [],
			"name": "token",
			"outputs": [
				{
					"internalType": "contract IERC20",
					"name": "",
					"type": "address"
				}
			],
			"stateMutability": "view",
			"type": "function"
		},
		{
			"inputs": [
				{
					"internalType": "address",
					"name": "newOwner",
					"type": "address"
				}
			],
			"name": "transferOwnership",
			"outputs": [],
			"stateMutability": "nonpayable",
			"type": "function"
		},
		{
			"inputs": [
				{
					"internalType": "uint256",
					"name": "AllocatedBatchCursor_",
					"type": "uint256"
				}
			],
			"name": "updateAllocatedBatchCursor",
			"outputs": [],
			"stateMutability": "nonpayable",
			"type": "function"
		},
		{
			"inputs": [
				{
					"internalType": "uint256",
					"name": "BatchCheckingCursor_",
					"type": "uint256"
				}
			],
			"name": "updateBatchCheckingCursor",
			"outputs": [],
			"stateMutability": "nonpayable",
			"type": "function"
		},
		{
			"inputs": [],
			"name": "updateGlobalSpotFlow",
			"outputs": [],
			"stateMutability": "nonpayable",
			"type": "function"
		},
		{
			"inputs": [
				{
					"internalType": "address",
					"name": "addr",
					"type": "address"
				}
			],
			"name": "updateParametersManager",
			"outputs": [],
			"stateMutability": "nonpayable",
			"type": "function"
		},
		{
			"inputs": [
				{
					"internalType": "address",
					"name": "user_",
					"type": "address"
				}
			],
			"name": "updateUserSpotFlow",
			"outputs": [],
			"stateMutability": "nonpayable",
			"type": "function"
		},
		{
			"inputs": [
				{
					"internalType": "uint256",
					"name": "_prevID",
					"type": "uint256"
				},
				{
					"internalType": "uint256",
					"name": "_nextID",
					"type": "uint256"
				},
				{
					"internalType": "address",
					"name": "_voter",
					"type": "address"
				},
				{
					"internalType": "uint256",
					"name": "_numTokens",
					"type": "uint256"
				}
			],
			"name": "validPosition",
			"outputs": [
				{
					"internalType": "bool",
					"name": "APPROVED",
					"type": "bool"
				}
			],
			"stateMutability": "view",
			"type": "function"
		},
		{
			"inputs": [
				{
					"internalType": "uint256",
					"name": "_numTokens",
					"type": "uint256"
				}
			],
			"name": "withdrawVotingRights",
			"outputs": [],
			"stateMutability": "nonpayable",
			"type": "function"
		}
	]
}