{
	"data": {
		"bytecode": {
			"linkReferences": {
				"contracts/worksystems/DataFormatting.sol": {
					"AttributeStore2": [
						{
							"length": 20,
							"start": 18682
						},
						{
							"length": 20,
							"start": 18788
						},
						{
							"length": 20,
							"start": 21073
						},
						{
							"length": 20,
							"start": 22098
						}
					],
					"DLL2": [
						{
							"length": 20,
							"start": 5214
						},
						{
							"length": 20,
							"start": 5386
						},
						{
							"length": 20,
							"start": 6030
						},
						{
							"length": 20,
							"start": 6589
						},
						{
							"length": 20,
							"start": 16951
						},
						{
							"length": 20,
							"start": 17131
						},
						{
							"length": 20,
							"start": 18202
						},
						{
							"length": 20,
							"start": 18364
						},
						{
							"length": 20,
							"start": 18559
						}
					]
				}
			},
			"object": "6080604052600060155560016016556001601755600160185560016019556000601a556000601b556000601c556000601d556000601e553480156200004357600080fd5b5060405162008d5f38038062008d5f833981016040819052620000669162000108565b6200007a62000074620000b4565b620000b8565b6001600160a01b0381166200008e57600080fd5b601f80546001600160a01b0319166001600160a01b039290921691909117905562000138565b3390565b600080546001600160a01b038381166001600160a01b0319831681178455604051919092169283917f8be0079c531659141344cd1fd0a4f28419497f9722a3daafe3b4186f6b6457e09190a35050565b6000602082840312156200011a578081fd5b81516001600160a01b038116811462000131578182fd5b9392505050565b618c1780620001486000396000f3fe608060405234801561001057600080fd5b50600436106106aa5760003560e01c80639fc9c52f1161036c578063d8b75674116101de578063eb1322ff1161010f578063f716596d116100ad578063f96305f011610087578063f96305f014610dca578063fc0c546a14610dd2578063fca4956314610dda578063ff43de9d14610ded576106aa565b8063f716596d14610da7578063f721de4a14610daf578063f80a23fd14610dc2576106aa565b8063f2d9e74d116100e9578063f2d9e74d14610d71578063f2fde38b14610d79578063f4cdfcc414610d8c578063f5ae7c7d14610d9f576106aa565b8063eb1322ff14610d4e578063ed8becfa14610d56578063ef4fcdad14610d69576106aa565b8063dd6186821161017c578063e44c974b11610156578063e44c974b14610d02578063e604c12714610d15578063e798a7da14610d28578063e7b1d43c14610d3b576106aa565b8063dd61868214610cd4578063df05368e14610ce7578063e1f7a43014610cfa576106aa565b8063d9845fb8116101b8578063d9845fb814610c91578063da14563a14610cb1578063db687c1714610cb9578063dd15f09514610ccc576106aa565b8063d8b7567414610c58578063d901402b14610c6b578063d9548e5314610c7e576106aa565b8063b1a2e0be116102b8578063d186981d11610256578063d6b0206c11610230578063d6b0206c14610c22578063d817587e14610c2a578063d822ce0114610c3d578063d8645d3714610c50576106aa565b8063d186981d14610bf4578063d420ec0b14610c07578063d58f575c14610c1a576106aa565b8063b8f011b311610292578063b8f011b314610ba8578063c47c4bc214610bbb578063c4e4f82a14610bce578063d138209214610be1576106aa565b8063b1a2e0be14610b6f578063b1d7ea9814610b82578063b43bd06914610b95576106aa565b8063a4b7e23311610325578063aa7ca464116102ff578063aa7ca46414610b39578063aacc5a1714610b4c578063ab43e78d14610b54578063b10aa58414610b5c576106aa565b8063a4b7e23314610b0b578063a511dba014610b1e578063a905779014610b26576106aa565b80639fc9c52f14610aaf578063a0e71c1514610ac2578063a1103f3714610ad5578063a1b6b5b714610ae8578063a350715a14610af0578063a4439dc514610af8576106aa565b8063515535e8116105205780637a34da67116104515780638473850b116103ef5780638da5cb5b116103c95780638da5cb5b14610a795780638df0296e14610a815780639760356014610a945780639769d84614610aa7576106aa565b80638473850b14610a3557806388d072eb14610a3d5780638c89d02714610a50576106aa565b80637fabe35b1161042b5780637fabe35b146109da578063819b029314610a07578063821aa8c014610a1a57806383cc6ef214610a2d576106aa565b80637a34da67146109b75780637f9510a2146109bf5780637f97e836146109c7576106aa565b80636a192ff5116104be5780637074222b116104985780637074222b14610976578063715018a61461098957806371880b1b1461099157806376c1fef4146109a4576106aa565b80636a192ff51461092d5780636b1485a3146109505780636b2d95d414610963576106aa565b80635b113a55116104fa5780635b113a55146108df5780635df6055d146108f25780636371d81f14610912578063667bf0f814610925576106aa565b8063515535e8146108af57806351912f29146108b75780635a452943146108bf576106aa565b8063353f44d0116105fa57806347fe2d2011610598578063494031831161057257806349403183146108635780634d4b7d9b146108765780634d884281146108895780634fe8b4c11461089c576106aa565b806347fe2d201461084057806348257dc9146108485780634852e2f01461085b576106aa565b8063427fa1d2116105d4578063427fa1d2146107f4578063441c77c0146108075780634671ace51461081a57806346a7aea61461082d576106aa565b8063353f44d0146107c657806339e7357c146107d957806340fbaae4146107e1576106aa565b8063226ed300116106675780632c052031116106415780632c0520311461077a5780632d917c681461078d5780632f469fd1146107a05780633538af82146107b3576106aa565b8063226ed3001461073d578063275c25901461075d57806329a47bc714610765576106aa565b806301a48b98146106af578063050eb2eb146106d857806305957623146106ed5780630e6661a7146107005780631067981014610715578063154fd39b14610735575b600080fd5b6106c26106bd366004617746565b610df5565b6040516106cf9190617a96565b60405180910390f35b6106eb6106e6366004617434565b610f92565b005b6106eb6106fb366004617434565b610ff3565b610708611054565b6040516106cf919061799b565b61072861072336600461776f565b61105a565b6040516106cf9190617ae5565b6107086110ff565b61075061074b366004617746565b611105565b6040516106cf9190617ada565b6106eb61114d565b61076d6112a1565b6040516106cf91906179ce565b610708610788366004617497565b6112b0565b61075061079b36600461746c565b61144d565b6107286107ae36600461776f565b61146d565b61076d6107c1366004617746565b611491565b6107086107d4366004617434565b6114bb565b6107086114cd565b6106eb6107ef36600461787a565b6114ea565b610708610802366004617434565b61184e565b610750610815366004617746565b6118ee565b6106eb610828366004617746565b611948565b6106eb61083b366004617434565b6119b8565b610708611a19565b6106eb610856366004617746565b611a1f565b610708611e56565b610750610871366004617746565b611e5c565b610750610884366004617746565b6120a9565b6106eb610897366004617434565b6120be565b6106eb6108aa366004617746565b61211f565b61070861219f565b61076d6121a5565b6108d26108cd366004617746565b6121b4565b6040516106cf9190618860565b6107086108ed36600461776f565b6122d7565b610905610900366004617746565b6122f4565b6040516106cf9190617a36565b6106eb610920366004617746565b612511565b6106eb6125c4565b61094061093b366004617746565b612bc9565b6040516106cf9493929190617b22565b6106eb61095e366004617746565b612c88565b610708610971366004617434565b613b01565b610708610984366004617434565b613b10565b6106eb613b2b565b61070861099f366004617746565b613b76565b6109056109b2366004617746565b613bb3565b61076d613dd0565b610708613ddf565b6107506109d536600461746c565b613df6565b6109ed6109e8366004617746565b613e49565b6040516106cf9e9d9c9b9a999897969594939291906189a2565b610750610a1536600461783c565b613f48565b61076d610a28366004617746565b613f89565b61076d613f99565b610708613fa8565b610728610a4b36600461776f565b613fae565b610a63610a5e366004617434565b613fd2565b6040516106cf9a999897969594939291906179e2565b61076d614035565b61076d610a8f36600461781b565b614044565b6106eb610aa2366004617746565b61407c565b61070861422c565b6106eb610abd3660046174cb565b614232565b610708610ad0366004617746565b614284565b610708610ae336600461746c565b6142a8565b6107086142db565b6107086142e1565b610750610b06366004617746565b6142e7565b6106eb610b1936600461779e565b614349565b6107086149ac565b610750610b3436600461758b565b6149b2565b610750610b4736600461746c565b614a18565b610708614a6b565b61076d614b20565b61076d610b6a366004617746565b614b2f565b610750610b7d366004617434565b614b3f565b6106c2610b9036600461781b565b614c0c565b610708610ba3366004617497565b614e13565b6106c2610bb636600461781b565b614eff565b6106eb610bc9366004617434565b615067565b610708610bdc366004617746565b6150c8565b610708610bef36600461746c565b615105565b610750610c0236600461776f565b61519a565b610750610c1536600461746c565b615275565b610708615295565b61070861529b565b610905610c38366004617746565b6152a1565b61076d610c4b36600461746c565b6154be565b61076d6154da565b610708610c6636600461776f565b6154e9565b610708610c7936600461746c565b615506565b610750610c8c366004617746565b61554b565b610ca4610c9f366004617746565b615550565b6040516106cf9190618789565b6106eb6156d5565b6106eb610cc7366004617434565b615902565b61076d615963565b6106eb610ce2366004617434565b615972565b6106eb610cf5366004617434565b6159d3565b610708615a34565b6106c2610d10366004617746565b615a47565b610728610d23366004617746565b615ac0565b610750610d36366004617434565b615b75565b6106eb610d49366004617746565b615b96565b610708615cde565b610905610d64366004617746565b615ce4565b610708616079565b61070861607f565b6106eb610d87366004617434565b616085565b610708610d9a3660046175eb565b6160f3565b610708616108565b6106eb61610e565b610750610dbd366004617746565b6165f3565b6107506165fb565b610708616614565b61076d61661a565b610708610de8366004617434565b616629565b61076d6166d1565b6060610e00826165f3565b610e255760405162461bcd60e51b8152600401610e1c90618448565b60405180910390fd5b6000828152600f6020908152604080832080548251818502810185019093528083529192909190830182828015610e8557602002820191906000526020600020905b81546001600160a01b03168152600190910190602001808311610e67575b50505050509050600081516001600160401b03811115610eb557634e487b7160e01b600052604160045260246000fd5b604051908082528060200260200182016040528015610ede578160200160208202803683370190505b50905060005b8251811015610f8857600360008681526020019081526020016000206000848381518110610f2257634e487b7160e01b600052603260045260246000fd5b60200260200101516001600160a01b03166001600160a01b0316815260200190815260200160002054828281518110610f6b57634e487b7160e01b600052603260045260246000fd5b602090810291909101015280610f8081618b5b565b915050610ee4565b509150505b919050565b610f9a6166e0565b6001600160a01b0316610fab614035565b6001600160a01b031614610fd15760405162461bcd60e51b8152600401610e1c9061822d565b602280546001600160a01b0319166001600160a01b0392909216919091179055565b610ffb6166e0565b6001600160a01b031661100c614035565b6001600160a01b0316146110325760405162461bcd60e51b8152600401610e1c9061822d565b602680546001600160a01b0319166001600160a01b0392909216919091179055565b60155481565b60076020908152600092835260408084209091529082529020805461107e90618b20565b80601f01602080910402602001604051908101604052809291908181526020018280546110aa90618b20565b80156110f75780601f106110cc576101008083540402835291602001916110f7565b820191906000526020600020905b8154815290600101906020018083116110da57829003601f168201915b505050505081565b60195490565b6000611110826165f3565b61112c5760405162461bcd60e51b8152600401610e1c90618714565b6000828152600b60205260409020600701546111479061554b565b92915050565b6111556166e4565b336000908152600c60205260409020600581015460ff16151560011461118d5760405162461bcd60e51b8152600401610e1c906181e1565b61012c8160060154426111a09190618ad9565b106111bd5760405162461bcd60e51b8152600401610e1c90617e5c565b6001810154158015906111da57506005810154610100900460ff16155b156111f55760058101805461ff001916610100179055611286565b6001810154156112175760405162461bcd60e51b8152600401610e1c90618127565b6112203361686c565b611229336169c4565b80546001600160a01b031916339081178255426004830181905560058301805460ff191690556040517f9dadcedba048e92b943ea1c5861cee1df63a566d7f795869c004780c1c698e2b9161127d9161799b565b60405180910390a25b6001601a60008282546112999190618a8e565b909155505050565b6021546001600160a01b031681565b6000806112bc8561184e565b905060006112ca8683615105565b90505b8115611442576112dd8683615105565b905084811161139a5783821415611392576001600160a01b03861660009081526008602052604090819020905163215e94cf60e01b815273__$6ffa5bf1f4fa681f07e1987a80577d5f4e$__9163215e94cf9161133f919086906004016179c0565b60206040518083038186803b15801561135757600080fd5b505af415801561136b573d6000803e3d6000fd5b505050506040513d601f19601f8201168201806040525081019061138f919061775e565b91505b509050611446565b6001600160a01b03861660009081526008602052604090819020905163215e94cf60e01b815273__$6ffa5bf1f4fa681f07e1987a80577d5f4e$__9163215e94cf916113eb919086906004016179c0565b60206040518083038186803b15801561140357600080fd5b505af4158015611417573d6000803e3d6000fd5b505050506040513d601f19601f8201168201806040525081019061143b919061775e565b91506112cd565b5090505b9392505050565b600160209081526000928352604080842090915290825290205460ff1681565b60046020908152600092835260408084209091529082529020805461107e90618b20565b601181815481106114a157600080fd5b6000918252602090912001546001600160a01b0316905081565b600d6020526000908152604090205481565b60405160009080602081848060185afa6114e357fe5b5051919050565b6114f26166e4565b6114fb846118ee565b6115175760405162461bcd60e51b8152600401610e1c906183bb565b33600090815260016020908152604080832087845290915290205460ff166115515760405162461bcd60e51b8152600401610e1c90617f99565b33600090815260026020908152604080832087845290915290205460ff161561158c5760405162461bcd60e51b8152600401610e1c9061873d565b6115963385615506565b6115a083836160f3565b146115bd5760405162461bcd60e51b8152600401610e1c906182bf565b60006115c93386615105565b90508360011415611600576000858152600b6020526040812060080180548392906115f5908490618a8e565b909155506116279050565b6000858152600b602052604081206009018054839290611621908490618a8e565b90915550505b33600090815260086020526040908190209051634dab476560e01b815273__$6ffa5bf1f4fa681f07e1987a80577d5f4e$__91634dab47659161166f919089906004016179c0565b60006040518083038186803b15801561168757600080fd5b505af415801561169b573d6000803e3d6000fd5b50503360008181526002602090815260408083208b84528252808320805460ff191660011790556003825280832084845282528083208a90558a83526004825280832093835292815291902086516116fa9450909250908601906171b5565b50336000908152600c60209081526040808320888452600b90925290912060030154611727906001616af4565b6000878152600b602052604090206003015560028101805460ff19166001179055426004820155611757336169c4565b600581015460ff16156117b45761176d33616b00565b6117b457601180546001810182556000919091527f31ecc21a745e3968a04e9570e4425bc18fa8019c68028196b546d1669c200c680180546001600160a01b031916331790555b6000868152600b60205260409020600301546117d3576117d386612c88565b6001601a60008282546117e69190618a8e565b90915550506000868152600b60205260409081902060088101546009909101549151339288928a927f2e5fbeef18eaa8d8ea3b0122bc64445c4daaa6f454dfb889456791a92287f3789261183e92899290919061898c565b60405180910390a4505050505050565b6001600160a01b038116600090815260086020526040808220905163215e94cf60e01b815273__$6ffa5bf1f4fa681f07e1987a80577d5f4e$__9163215e94cf9161189e919085906004016179c0565b60206040518083038186803b1580156118b657600080fd5b505af41580156118ca573d6000803e3d6000fd5b505050506040513d601f19601f82011682018060405250810190611147919061775e565b60006118f9826165f3565b6119155760405162461bcd60e51b8152600401610e1c90618448565b6000828152600b60205260409020600701546119309061554b565b1580156111475750611941826142e7565b1592915050565b6119506166e0565b6001600160a01b0316611961614035565b6001600160a01b0316146119875760405162461bcd60e51b8152600401610e1c9061822d565b60008181526010602052604090205460ff16156119b5576000818152601060205260409020805460ff191690555b50565b6119c06166e0565b6001600160a01b03166119d1614035565b6001600160a01b0316146119f75760405162461bcd60e51b8152600401610e1c9061822d565b602580546001600160a01b0319166001600160a01b0392909216919091179055565b60185490565b6024546001600160a01b031615801590611a48575060008181526010602052604090205460ff16155b1561128657602454604051637b90ef2560e11b81526001600160a01b039091169063f721de4a90611a7d90849060040161799b565b602060405180830381600087803b158015611a9757600080fd5b505af1158015611aab573d6000803e3d6000fd5b505050506040513d601f19601f82011682018060405250810190611acf9190617571565b1561128657602454604051631b308bf760e31b81526000916001600160a01b03169063d9845fb890611b0590859060040161799b565b600060405180830381600087803b158015611b1f57600080fd5b505af1158015611b33573d6000803e3d6000fd5b505050506040513d6000823e601f3d908101601f19168201604052611b5b919081019061762d565b6101a08101519091506001816003811115611b8657634e487b7160e01b600052602160045260246000fd5b1415611e28576040805160808101825261016084015181523360208083019190915242828401526000606083018190526015548152600a8252929092208151805192939192611bd892849201906171b5565b506020820151600182810180546001600160a01b0319166001600160a01b0390931692909217909155604083015160028301556060830151600380840180549293909260ff1916918490811115611c3f57634e487b7160e01b600052602160045260246000fd5b0217905550506017546000908152600b602090815260409182902060265483516357716b7f60e01b815293519194506001600160a01b0316926357716b7f926004808301939192829003018186803b158015611c9a57600080fd5b505afa158015611cae573d6000803e3d6000fd5b505050506040513d601f19601f82011682018060405250810190611cd2919061775e565b81600101541015611cf8576001816001016000828254611cf29190618a8e565b90915550505b602660009054906101000a90046001600160a01b03166001600160a01b03166357716b7f6040518163ffffffff1660e01b815260040160206040518083038186803b158015611d4657600080fd5b505afa158015611d5a573d6000803e3d6000fd5b505050506040513d601f19601f82011682018060405250810190611d7e919061775e565b816001015410611dcd57600581018054600160ff19909116811761ff00191690915560178054600090611db2908490618a8e565b90915550506015546017546000908152600b60205260409020555b611dd56156d5565b601554611de3906001618a8e565b60158190556101608401516040517fe72ee44ad0ed1dfc338f7eec797c944eb218773c1edbb4bb653dd9c1e2a6230491611e1e913390617af8565b60405180910390a2505b50506000818152601060205260409020805460ff191660011790556001601a60008282546112999190618a8e565b601d5481565b6000818152600b6020908152604080832081516101c081018352815481526001820154938101939093526002810154918301919091526003810154606083015260048101546080830152600581015460ff808216151560a08501526101008083048216151560c08601526201000090920416151560e0840152600682015490830152600781015461012083015260088101546101408301526009810154610160830152600a8101805484939291610180840191611f1890618b20565b80601f0160208091040260200160405190810160405280929190818152602001828054611f4490618b20565b8015611f915780601f10611f6657610100808354040283529160200191611f91565b820191906000526020600020905b815481529060010190602001808311611f7457829003601f168201915b5050509183525050600b82015460209091019060ff166003811115611fc657634e487b7160e01b600052602160045260246000fd5b6003811115611fe557634e487b7160e01b600052602160045260246000fd5b90525061016081015161014082015191925061200091618a8e565b602660009054906101000a90046001600160a01b03166001600160a01b031663ea19733c6040518163ffffffff1660e01b815260040160206040518083038186803b15801561204e57600080fd5b505afa158015612062573d6000803e3d6000fd5b505050506040513d601f19601f82011682018060405250810190612086919061775e565b6120909190618aba565b6101408201516120a1906064618aba565b119392505050565b60106020526000908152604090205460ff1681565b6120c66166e0565b6001600160a01b03166120d7614035565b6001600160a01b0316146120fd5760405162461bcd60e51b8152600401610e1c9061822d565b601480546001600160a01b0319166001600160a01b0392909216919091179055565b6121276166e0565b6001600160a01b0316612138614035565b6001600160a01b03161461215e5760405162461bcd60e51b8152600401610e1c9061822d565b6000818152600a60205260408120906121778282617239565b506001810180546001600160a01b031916905560006002820155600301805460ff1916905550565b60175490565b6022546001600160a01b031681565b6121bc617275565b6000828152600a6020526040908190208151608081019092528054829082906121e490618b20565b80601f016020809104026020016040519081016040528092919081815260200182805461221090618b20565b801561225d5780601f106122325761010080835404028352916020019161225d565b820191906000526020600020905b81548152906001019060200180831161224057829003601f168201915b505050918352505060018201546001600160a01b031660208201526002820154604082015260038083015460609092019160ff16908111156122af57634e487b7160e01b600052602160045260246000fd5b60038111156122ce57634e487b7160e01b600052602160045260246000fd5b90525092915050565b600560209081526000928352604080842090915290825290205481565b60606122ff826165f3565b61231b5760405162461bcd60e51b8152600401610e1c90618448565b6000828152600f602090815260408083208054825181850281018501909352808352919290919083018282801561237b57602002820191906000526020600020905b81546001600160a01b0316815260019091019060200180831161235d575b50505050509050600081516001600160401b038111156123ab57634e487b7160e01b600052604160045260246000fd5b6040519080825280602002602001820160405280156123de57816020015b60608152602001906001900390816123c95790505b50905060005b8251811015610f885760066000868152602001908152602001600020600084838151811061242257634e487b7160e01b600052603260045260246000fd5b60200260200101516001600160a01b03166001600160a01b03168152602001908152602001600020805461245590618b20565b80601f016020809104026020016040519081016040528092919081815260200182805461248190618b20565b80156124ce5780601f106124a3576101008083540402835291602001916124ce565b820191906000526020600020905b8154815290600101906020018083116124b157829003601f168201915b50505050508282815181106124f357634e487b7160e01b600052603260045260246000fd5b6020026020010181905250808061250990618b5b565b9150506123e4565b6125196166e0565b6001600160a01b031661252a614035565b6001600160a01b0316146125505760405162461bcd60e51b8152600401610e1c9061822d565b6000818152600b602052604081208181556001810182905560028101829055600381018290556004810182905560058101805462ffffff1916905560068101829055600781018290556008810182905560098101829055906125b5600a830182617239565b50600b01805460ff1916905550565b6019546000908152600b602052604090206005015460ff166125f85760405162461bcd60e51b8152600401610e1c90618365565b6019546000908152600b602052604090206005015462010000900460ff16156126335760405162461bcd60e51b8152600401610e1c90618184565b60006127576126cc601180549050602660009054906101000a90046001600160a01b03166001600160a01b03166370d29bdf6040518163ffffffff1660e01b815260040160206040518083038186803b15801561268f57600080fd5b505afa1580156126a3573d6000803e3d6000fd5b505050506040513d601f19601f820116820180604052508101906126c7919061775e565b616b70565b602660009054906101000a90046001600160a01b03166001600160a01b031663166ff4c76040518163ffffffff1660e01b815260040160206040518083038186803b15801561271a57600080fd5b505afa15801561272e573d6000803e3d6000fd5b505050506040513d601f19601f82011682018060405250810190612752919061775e565b616b86565b601154601980546000908152600b6020908152604080832060030186905592548252828220600201859055602654835163280be64560e21b815293519596509394919361280c936001600160a01b039091169263a02f991492600480840193919291829003018186803b1580156127cd57600080fd5b505afa1580156127e1573d6000803e3d6000fd5b505050506040513d601f19601f82011682018060405250810190612805919061775e565b4290616b96565b905060006128a0602660009054906101000a90046001600160a01b03166001600160a01b03166302c5a49f6040518163ffffffff1660e01b815260040160206040518083038186803b15801561286157600080fd5b505afa158015612875573d6000803e3d6000fd5b505050506040513d601f19601f82011682018060405250810190612899919061775e565b8390616b96565b601980546000908152600b6020526040808220600601869055825482528082206007018490559154815220600501805462ff00001916620100001790559050600184108015906128f1575060018310155b61290d5760405162461bcd60e51b8152600401610e1c90617ddb565b60006129198585614eff565b9050600081516001600160401b0381111561294457634e487b7160e01b600052604160045260246000fd5b60405190808252806020026020018201604052801561296d578160200160208202803683370190505b50905060005b8251811015612a2c57601183828151811061299e57634e487b7160e01b600052603260045260246000fd5b6020026020010151815481106129c457634e487b7160e01b600052603260045260246000fd5b9060005260206000200160009054906101000a90046001600160a01b0316828281518110612a0257634e487b7160e01b600052603260045260246000fd5b6001600160a01b039092166020928302919091019091015280612a2481618b5b565b915050612973565b5060005b8251811015612b94576000828281518110612a5b57634e487b7160e01b600052603260045260246000fd5b602002602001015190506000600c6000836001600160a01b03166001600160a01b031681526020019081526020016000209050612a978261686c565b612aa082616ba2565b612af057601280546001810182556000919091527fbb8a6a4669ba250d26cd7a459eca9d215f8307e33aebe50379bc5a3617ec34440180546001600160a01b0319166001600160a01b0384161790555b601980546000908152600f602090815260408083208054600180820183559185529290932090910180546001600160a01b0319166001600160a01b03871617905582549184019190915560028301805460ff19169055905490517fe4ee2dfabe57cee15e3f558890b20455f54c1fa0718e5276faad70a6500e6b8c90612b779085906179ce565b60405180910390a250508080612b8c90618b5b565b915050612a30565b50601954612ba3906001616b96565b6019819055506001601a6000828254612bbc9190618a8e565b9091555050505050505050565b600a60205260009081526040902080548190612be490618b20565b80601f0160208091040260200160405190810160405280929190818152602001828054612c1090618b20565b8015612c5d5780601f10612c3257610100808354040283529160200191612c5d565b820191906000526020600020905b815481529060010190602001808311612c4057829003601f168201915b505050506001830154600284015460039094015492936001600160a01b039091169290915060ff1684565b612c9181611105565b80612cab57506000818152600b6020526040902060030154155b612cc75760405162461bcd60e51b8152600401610e1c90618262565b6000818152600b6020526040902060050154610100900460ff1615612cfe5760405162461bcd60e51b8152600401610e1c906184ac565b6000818152600f6020908152604080832080548251818502810185019093528083529192909190830182828015612d5e57602002820191906000526020600020905b81546001600160a01b03168152600190910190602001808311612d40575b50505050509050600081516001600160401b03811115612d8e57634e487b7160e01b600052604160045260246000fd5b604051908082528060200260200182016040528015612dc157816020015b6060815260200190600190039081612dac5790505b509050600082516001600160401b03811115612ded57634e487b7160e01b600052604160045260246000fd5b604051908082528060200260200182016040528015612e16578160200160208202803683370190505b50905060005b8351811015612f99576000848281518110612e4757634e487b7160e01b600052603260045260246000fd5b60209081029190910181015160008881526004835260408082206001600160a01b0384168352909352918220805491935090612e8290618b20565b80601f0160208091040260200160405190810160405280929190818152602001828054612eae90618b20565b8015612efb5780601f10612ed057610100808354040283529160200191612efb565b820191906000526020600020905b815481529060010190602001808311612ede57829003601f168201915b50505060008a81526005602090815260408083206001600160a01b038916845290915290205488519394509284925088915086908110612f4b57634e487b7160e01b600052603260045260246000fd5b602002602001018190525080858581518110612f7757634e487b7160e01b600052603260045260246000fd5b6020026020010181815250505050508080612f9190618b5b565b915050612e1c565b5060006130446064602660009054906101000a90046001600160a01b03166001600160a01b031663ea19733c6040518163ffffffff1660e01b815260040160206040518083038186803b158015612fef57600080fd5b505afa158015613003573d6000803e3d6000fd5b505050506040513d601f19601f82011682018060405250810190613027919061775e565b86516130339190618aba565b61303d9190618aa6565b6001616b86565b905060008360008151811061306957634e487b7160e01b600052603260045260246000fd5b6020026020010151905060005b845181101561315f576000805b8651811015613114576130e48784815181106130af57634e487b7160e01b600052603260045260246000fd5b60200260200101518883815181106130d757634e487b7160e01b600052603260045260246000fd5b60200260200101516149b2565b15613102576130f4600183618a8e565b915084821061310257613114565b8061310c81618b5b565b915050613083565b5083811061314c5785828151811061313c57634e487b7160e01b600052603260045260246000fd5b602002602001015192505061315f565b508061315781618b5b565b915050613076565b5060008360008151811061318357634e487b7160e01b600052603260045260246000fd5b6020026020010151905060005b8451811015613272576000805b8651811015613227578681815181106131c657634e487b7160e01b600052603260045260246000fd5b60200260200101518784815181106131ee57634e487b7160e01b600052603260045260246000fd5b6020026020010151141561321557613207600183618a8e565b915085821061321557613227565b8061321f81618b5b565b91505061319d565b5084811061325f5785828151811061324f57634e487b7160e01b600052603260045260246000fd5b6020026020010151925050613272565b508061326a81618b5b565b915050613190565b5060005b86518110156138665760008782815181106132a157634e487b7160e01b600052603260045260246000fd5b6020908102919091018101516001600160a01b03811660009081526002835260408082208d8352909352919091205490915060ff166132df826169c4565b6001600160a01b0382166000908152600c602052604090208115613747576001600160a01b0383166000818152600c6020908152604080832060028101805460ff191660011790556003018390558e835260048252808320938352929052908120805461334b90618b20565b80601f016020809104026020016040519081016040528092919081815260200182805461337790618b20565b80156133c45780601f10613399576101008083540402835291602001916133c4565b820191906000526020600020905b8154815290600101906020018083116133a757829003601f168201915b505050505090506133d581886149b2565b156136a8576023546040516308c0a84360e11b81526000916001600160a01b03169063118150869061340b9088906004016179ce565b60206040518083038186803b15801561342357600080fd5b505afa158015613437573d6000803e3d6000fd5b505050506040513d601f19601f8201168201806040525081019061345b9190617450565b6021546026546040805163f250ae2d60e01b815290519394506001600160a01b0392831693631b6d990a939092169163f250ae2d91600480820192602092909190829003018186803b1580156134b057600080fd5b505afa1580156134c4573d6000803e3d6000fd5b505050506040513d601f19601f820116820180604052508101906134e8919061775e565b836040518363ffffffff1660e01b815260040161350692919061896e565b602060405180830381600087803b15801561352057600080fd5b505af1158015613534573d6000803e3d6000fd5b505050506040513d601f19601f820116820180604052508101906135589190617571565b6135745760405162461bcd60e51b8152600401610e1c90617f4b565b60225460265460408051631deb540360e21b815290516001600160a01b039384169363e0ca50949316916377ad500c916004808301926020929190829003018186803b1580156135c357600080fd5b505afa1580156135d7573d6000803e3d6000fd5b505050506040513d601f19601f820116820180604052508101906135fb919061775e565b836040518363ffffffff1660e01b8152600401613619929190618957565b602060405180830381600087803b15801561363357600080fd5b505af1158015613647573d6000803e3d6000fd5b505050506040513d601f19601f8201168201806040525081019061366b9190617571565b6136875760405162461bcd60e51b8152600401610e1c90617cfc565b600183600701600082825461369c9190618a8e565b909155506136c3915050565b60018260080160008282546136bd9190618a8e565b90915550505b600582015460ff1615613741576136d984616b00565b1580156136f057506005820154610100900460ff16155b1561374157601180546001810182556000919091527f31ecc21a745e3968a04e9570e4425bc18fa8019c68028196b546d1669c200c680180546001600160a01b0319166001600160a01b0386161790555b50613850565b6005810154610100900460ff168061375d575081155b15613850576001600160a01b0383166000908152600c6020526040812060030180546001929061378e908490618a8e565b909155505060265460408051634fda48fb60e11b815290516001600160a01b0390921691639fb491f691600480820192602092909190829003018186803b1580156137d857600080fd5b505afa1580156137ec573d6000803e3d6000fd5b505050506040513d601f19601f82011682018060405250810190613810919061775e565b6001600160a01b0384166000908152600c602052604090206003015414156138505760058101805460ff191690556138478361686c565b613850836169c4565b505050808061385e90618b5b565b915050613276565b506000878152600b6020908152604090912060058101805461ff001916610100179055835161389d92600a909201918501906171b5565b506000878152600b602052604090206004018190556138bb87611e5c565b15613a01576000878152600b60208190526040822001805460ff19166001908117909155601b8054919290916138f2908490618a8e565b90915550506025546040516348257dc960e01b81526001600160a01b03909116906348257dc990613927908a9060040161799b565b602060405180830381600087803b15801561394157600080fd5b505af1925050508015613971575060408051601f3d908101601f1916820190925261396e91810190617571565b60015b6139e2573d80801561399f576040519150601f19603f3d011682016040523d82523d6000602084013e6139a4565b606091505b507f4b87bbd93ba65ede1e2efeca735d9f7a6720bf7d6db0a8355b17dba5b64e5783816040516139d49190617ae5565b60405180910390a1506139fc565b6001601a60008282546139f59190618a8e565b9091555050505b613a36565b6000878152600b60208190526040822001805460ff19166002179055601c805460019290613a30908490618a8e565b90915550505b6001601a6000828254613a499190618a8e565b90915550506000878152600b6020526040812060020154601d805491929091613a73908490618a8e565b90915550506000878152600b6020526040812060030154601e805491929091613a9d908490618a8e565b90915550506000878152600a602052604090819020600181015491516001600160a01b03909216917fb83f08cf731092d35d6dd4801ac76e3fcc84b1b199915531c9874230d31adeaa91613af091617b85565b60405180910390a250505050505050565b600061114782610bef8461184e565b6001600160a01b03166000908152600d602052604090205490565b613b336166e0565b6001600160a01b0316613b44614035565b6001600160a01b031614613b6a5760405162461bcd60e51b8152600401610e1c9061822d565b613b746000616c12565b565b6000613b81826165f3565b613b9d5760405162461bcd60e51b8152600401610e1c90618448565b506000908152600b602052604090206007015490565b6060613bbe826165f3565b613bda5760405162461bcd60e51b8152600401610e1c90618448565b6000828152600f6020908152604080832080548251818502810185019093528083529192909190830182828015613c3a57602002820191906000526020600020905b81546001600160a01b03168152600190910190602001808311613c1c575b50505050509050600081516001600160401b03811115613c6a57634e487b7160e01b600052604160045260246000fd5b604051908082528060200260200182016040528015613c9d57816020015b6060815260200190600190039081613c885790505b50905060005b8251811015610f8857600760008681526020019081526020016000206000848381518110613ce157634e487b7160e01b600052603260045260246000fd5b60200260200101516001600160a01b03166001600160a01b031681526020019081526020016000208054613d1490618b20565b80601f0160208091040260200160405190810160405280929190818152602001828054613d4090618b20565b8015613d8d5780601f10613d6257610100808354040283529160200191613d8d565b820191906000526020600020905b815481529060010190602001808311613d7057829003601f168201915b5050505050828281518110613db257634e487b7160e01b600052603260045260246000fd5b60200260200101819052508080613dc890618b5b565b915050613ca3565b6023546001600160a01b031681565b601254601154600091613df191618a8e565b905090565b6000613e01826165f3565b613e1d5760405162461bcd60e51b8152600401610e1c90618448565b506001600160a01b03919091166000908152600160209081526040808320938352929052205460ff1690565b600b60205260009081526040902080546001820154600283015460038401546004850154600586015460068701546007880154600889015460098a0154600a8b0180549a9b999a98999798969760ff808816986101008904821698620100009004909116969594939290613ebc90618b20565b80601f0160208091040260200160405190810160405280929190818152602001828054613ee890618b20565b8015613f355780601f10613f0a57610100808354040283529160200191613f35565b820191906000526020600020905b815481529060010190602001808311613f1857829003601f168201915b505050600b909301549192505060ff168e565b600080613f558487615105565b83101590506000613f668587615105565b84111580613f72575085155b9050818015613f7e5750805b979650505050505050565b601281815481106114a157600080fd5b6020546001600160a01b031681565b60175481565b60066020908152600092835260408084209091529082529020805461107e90618b20565b600c602052600090815260409020805460018201546002830154600384015460048501546005860154600687015460078801546008909801546001600160a01b0390971697959660ff95861696949593948385169461010090940490931692908a565b6000546001600160a01b031690565b600f602052816000526040600020818154811061406057600080fd5b6000918252602090912001546001600160a01b03169150829050565b60016000828152600b60208190526040909120015460ff1660038111156140b357634e487b7160e01b600052602160045260246000fd5b146140d05760405162461bcd60e51b8152600401610e1c90617c66565b3360009081526008602052604090819020905163162a54af60e31b815273__$6ffa5bf1f4fa681f07e1987a80577d5f4e$__9163b152a57891614118919085906004016179c0565b60206040518083038186803b15801561413057600080fd5b505af4158015614144573d6000803e3d6000fd5b505050506040513d601f19601f820116820180604052508101906141689190617571565b6141845760405162461bcd60e51b8152600401610e1c90618051565b33600090815260086020526040908190209051634dab476560e01b815273__$6ffa5bf1f4fa681f07e1987a80577d5f4e$__91634dab4765916141cc919085906004016179c0565b60006040518083038186803b1580156141e457600080fd5b505af41580156141f8573d6000803e3d6000fd5b50506040513392508391507f402507661c8c8cb90e0a796450b8bdd28b6c516f05279c0cd29e84c344e1699a90600090a350565b601b5481565b60005b81518110156142805761426e82828151811061426157634e487b7160e01b600052603260045260246000fd5b602002602001015161407c565b8061427881618b5b565b915050614235565b5050565b6000818152600b602052604081206009810154600890910154829161144691618a8e565b600082826040516020016142bd929190617979565b60405160208183030381529060405280519060200120905092915050565b601b5490565b601c5481565b60006142f2826165f3565b61430e5760405162461bcd60e51b8152600401610e1c90618448565b6000828152600b60205260409020600601546143299061554b565b1580156111475750506000908152600b6020526040902060020154151590565b6143516166e4565b61435a856142e7565b6143765760405162461bcd60e51b8152600401610e1c90617e25565b33600090815260016020908152604080832088845290915290205460ff16156143b15760405162461bcd60e51b8152600401610e1c906184ed565b6143bb853361519a565b6143d75760405162461bcd60e51b8152600401610e1c90617e91565b602654604080516323aea69160e01b815290516000926001600160a01b0316916323aea691916004808301926020929190829003018186803b15801561441c57600080fd5b505afa158015614430573d6000803e3d6000fd5b505050506040513d601f19601f82011682018060405250810190614454919061775e565b60235460405163792f4f6960e11b81529192506000916001600160a01b039091169063f25e9ed29061448a9033906004016179ce565b60206040518083038186803b1580156144a257600080fd5b505afa1580156144b6573d6000803e3d6000fd5b505050506040513d601f19601f820116820180604052508101906144da9190617450565b336000908152600d6020526040902054909150821115614583576001600160a01b0381161561455a576001600160a01b0381166000908152600d6020526040902054821115614555576001600160a01b0381166000908152600d6020526040812054614547908490616af4565b90506145538183616c62565b505b614583565b336000908152600d6020526040812054614575908490616af4565b90506145818133616c62565b505b336000908152600d60205260409020548211156145b25760405162461bcd60e51b8152600401610e1c90618578565b6000336000908152600860205260408082209051631b23afef60e21b815273__$6ffa5bf1f4fa681f07e1987a80577d5f4e$__91636c8ebfbc916145fb919086906004016179c0565b60206040518083038186803b15801561461357600080fd5b505af4158015614627573d6000803e3d6000fd5b505050506040513d601f19601f8201168201806040525081019061464b919061775e565b9050888114156146f05733600090815260086020526040908190209051631b23afef60e21b815273__$6ffa5bf1f4fa681f07e1987a80577d5f4e$__91636c8ebfbc9161469d91908d906004016179c0565b60206040518083038186803b1580156146b557600080fd5b505af41580156146c9573d6000803e3d6000fd5b505050506040513d601f19601f820116820180604052508101906146ed919061775e565b90505b6146fc82823387613f48565b6147185760405162461bcd60e51b8152600401610e1c906180f9565b3360009081526008602052604090819020905163f3a1998360e01b815273__$6ffa5bf1f4fa681f07e1987a80577d5f4e$__9163f3a1998391614764919086908e90879060040161893c565b60006040518083038186803b15801561477c57600080fd5b505af4158015614790573d6000803e3d6000fd5b5050505060006147a0338b6142a8565b604051633416d70d60e21b815290915073__$d865f21674766f31b0d600e4a95b721b57$__9063d05b5c34906147df9060099085908a9060040161891e565b60006040518083038186803b1580156147f757600080fd5b505af415801561480b573d6000803e3d6000fd5b5050604051633416d70d60e21b815273__$d865f21674766f31b0d600e4a95b721b57$__925063d05b5c34915061484b9060099085908e906004016188d2565b60006040518083038186803b15801561486357600080fd5b505af4158015614877573d6000803e3d6000fd5b50505060008b8152600560209081526040808320338085529083528184208d90558e845260068352818420908452825290912089516148bb935090918a01906171b5565b5060008a8152600760209081526040808320338452825290912087516148e3928901906171b5565b50336000908152600c602090815260408083208d8452600b90925290912060020154614910906001616af4565b60008c8152600b602090815260408083206002019390935542600485015533825260018082528383208f8452909152918120805460ff191683179055601a805490919061495e908490618a8e565b909155505060405133908c907f1b5c5140592c554fa4c0cdb5b3d3cd50f87aa84e477afd0b6c93d7702ef9c73c90614997908a9061799b565b60405180910390a35050505050505050505050565b60155490565b6000816040516020016149c591906179a4565b60405160208183030381529060405280519060200120836040516020016149ec91906179a4565b604051602081830303815290604052805190602001201415614a1057506001611147565b506000611147565b6000614a23826165f3565b614a3f5760405162461bcd60e51b8152600401610e1c90618448565b506001600160a01b03919091166000908152600260209081526040808320938352929052205460ff1690565b6000804241604051602001614a80919061795c565b6040516020818303038152906040528051906020012060001c614aa39190618aa6565b44614aac6114cd565b604051602001614abc919061799b565b60408051601f198184030181529190528051602090910120614ade9042618a8e565b614ae89190618a8e565b614af29190618a8e565b604051602001614b02919061799b565b60408051601f19818403018152919052805160209091012091505090565b6014546001600160a01b031681565b601381815481106114a157600080fd5b6001600160a01b038082166000908152600c6020908152604080832081516101408101835281549095168552600181015492850192909252600282015460ff90811615801592860183905260038401546060870152600484015460808701526005840154808316151560a088015261010090819004909216151560c0870152600684015460e087015260078401549186019190915260089092015461012085015291928392909190614bfb5750614bf98160200151611105565b155b15614c0557600191505b5092915050565b606060008211614c1b57600080fd5b600041604051602001614c2e919061795c565b6040516020818303038152906040528051906020012060001c614c4f6114cd565b604051602001614c5f919061799b565b60408051601f198184030181529190528051602090910120614c819042618a8e565b614c8b9190618a8e565b604051602001614c9b919061799b565b6040516020818303038152906040528051906020012060001c90506000846001600160401b03811115614cde57634e487b7160e01b600052604160045260246000fd5b604051908082528060200260200182016040528015614d07578160200160208202803683370190505b5090506000805b86821015614e0857600086614d2763017efeeb87618ad9565b83604051602001614d399291906179c0565b6040516020818303038152906040528051906020012060001c614d5c9190618b76565b90506000805b84811015614db45782868281518110614d8b57634e487b7160e01b600052603260045260246000fd5b60200260200101511415614da25760019150614db4565b80614dac81618b5b565b915050614d62565b5080614df45781858581518110614ddb57634e487b7160e01b600052603260045260246000fd5b6020908102919091010152614df1846001618a8e565b93505b614dff836001618a8e565b92505050614d0e565b509095945050505050565b6000614e1e83611105565b614e3a5760405162461bcd60e51b8152600401610e1c9061866d565b6001600160a01b038416600090815260026020908152604080832086845290915290205460ff16614e7d5760405162461bcd60e51b8152600401610e1c906180ae565b6000614e8884611e5c565b614e93576000614e96565b60015b60ff16905060008184604051602001614eb09291906179c0565b6040516020818303038152906040528051906020012090506000614ed48787615506565b9050808214614ef55760405162461bcd60e51b8152600401610e1c9061831c565b613f7e8787615105565b6060600082118015614f115750818311155b8015614f1e575060018310155b614f3a5760405162461bcd60e51b8152600401610e1c90617d92565b6000826001600160401b03811115614f6257634e487b7160e01b600052604160045260246000fd5b604051908082528060200260200182016040528015614f8b578160200160208202803683370190505b5090506000846001600160401b03811115614fb657634e487b7160e01b600052604160045260246000fd5b604051908082528060200260200182016040528015614fdf578160200160208202803683370190505b5090506000614ff5614ff084616d6a565b616dc0565b905060005b86811015614e085781818151811061502257634e487b7160e01b600052603260045260246000fd5b602002602001015183828151811061504a57634e487b7160e01b600052603260045260246000fd5b60209081029190910101528061505f81618b5b565b915050614ffa565b61506f6166e0565b6001600160a01b0316615080614035565b6001600160a01b0316146150a65760405162461bcd60e51b8152600401610e1c9061822d565b602380546001600160a01b0319166001600160a01b0392909216919091179055565b60006150d3826165f3565b6150ef5760405162461bcd60e51b8152600401610e1c90618448565b506000908152600b602052604090206006015490565b600073__$d865f21674766f31b0d600e4a95b721b57$__6362e02a2a600961512d86866142a8565b6040518363ffffffff1660e01b815260040161514a929190618900565b60206040518083038186803b15801561516257600080fd5b505af4158015615176573d6000803e3d6000fd5b505050506040513d601f19601f82011682018060405250810190611446919061775e565b6000828152600f602090815260408083208054825181850281018501909352808352849384939291908301828280156151fc57602002820191906000526020600020905b81546001600160a01b031681526001909101906020018083116151de575b5050505050905060005b815181101561526b57846001600160a01b031682828151811061523957634e487b7160e01b600052603260045260246000fd5b60200260200101516001600160a01b03161415615259576001925061526b565b8061526381618b5b565b915050615206565b5090949350505050565b600260209081526000928352604080842090915290825290205460ff1681565b60165481565b60195481565b60606152ac826165f3565b6152c85760405162461bcd60e51b8152600401610e1c90618448565b6000828152600f602090815260408083208054825181850281018501909352808352919290919083018282801561532857602002820191906000526020600020905b81546001600160a01b0316815260019091019060200180831161530a575b50505050509050600081516001600160401b0381111561535857634e487b7160e01b600052604160045260246000fd5b60405190808252806020026020018201604052801561538b57816020015b60608152602001906001900390816153765790505b50905060005b8251811015610f88576004600086815260200190815260200160002060008483815181106153cf57634e487b7160e01b600052603260045260246000fd5b60200260200101516001600160a01b03166001600160a01b03168152602001908152602001600020805461540290618b20565b80601f016020809104026020016040519081016040528092919081815260200182805461542e90618b20565b801561547b5780601f106154505761010080835404028352916020019161547b565b820191906000526020600020905b81548152906001019060200180831161545e57829003601f168201915b50505050508282815181106154a057634e487b7160e01b600052603260045260246000fd5b602002602001018190525080806154b690618b5b565b915050615391565b600e602052816000526040600020818154811061406057600080fd5b6024546001600160a01b031681565b600360209081526000928352604080842090915290825290205481565b600073__$d865f21674766f31b0d600e4a95b721b57$__6362e02a2a600961552e86866142a8565b6040518363ffffffff1660e01b815260040161514a9291906188b4565b421190565b6155586172c4565b615561826165f3565b61556a57600080fd5b6000828152600b602090815260409182902082516101c081018452815481526001820154928101929092526002810154928201929092526003820154606082015260048201546080820152600582015460ff808216151560a08401526101008083048216151560c08501526201000090920416151560e0830152600683015490820152600782015461012082015260088201546101408201526009820154610160820152600a820180549192916101808401919061562790618b20565b80601f016020809104026020016040519081016040528092919081815260200182805461565390618b20565b80156156a05780601f10615675576101008083540402835291602001916156a0565b820191906000526020600020905b81548152906001019060200180831161568357829003601f168201915b5050509183525050600b82015460209091019060ff1660038111156122af57634e487b7160e01b600052602160045260246000fd5b6156dd6166e4565b601354156156ed576156ed616f54565b6156f5616fec565b60005b602660009054906101000a90046001600160a01b03166001600160a01b0316637d630cb06040518163ffffffff1660e01b815260040160206040518083038186803b15801561574657600080fd5b505afa15801561575a573d6000803e3d6000fd5b505050506040513d601f19601f8201168201806040525081019061577e919061775e565b8110156119b5576018546000908152600b602052604081206005015462010000900460ff16151560011480156157d757506157ba601854611105565b806157d757506018546000908152600b6020526040902060030154155b156157fc576157e7601854612c88565b6018546157f5906001616b96565b6018555060015b6019546000908152600b602052604090206005015462010000900460ff1615156001148015906158b35750602660009054906101000a90046001600160a01b03166001600160a01b031663166ff4c76040518163ffffffff1660e01b815260040160206040518083038186803b15801561587557600080fd5b505afa158015615889573d6000803e3d6000fd5b505050506040513d601f19601f820116820180604052508101906158ad919061775e565b60115410155b80156158d357506019546000908152600b602052604090206005015460ff165b156158e4576158e06125c4565b5060015b806158ef57506119b5565b50806158fa81618b5b565b9150506156f8565b61590a6166e0565b6001600160a01b031661591b614035565b6001600160a01b0316146159415760405162461bcd60e51b8152600401610e1c9061822d565b602480546001600160a01b0319166001600160a01b0392909216919091179055565b6025546001600160a01b031681565b61597a6166e0565b6001600160a01b031661598b614035565b6001600160a01b0316146159b15760405162461bcd60e51b8152600401610e1c9061822d565b602180546001600160a01b0319166001600160a01b0392909216919091179055565b6159db6166e0565b6001600160a01b03166159ec614035565b6001600160a01b031614615a125760405162461bcd60e51b8152600401610e1c9061822d565b602080546001600160a01b0319166001600160a01b0392909216919091179055565b336000908152600d602052604090205490565b606060008211615a5657600080fd5b6000826001600160401b03811115615a7e57634e487b7160e01b600052604160045260246000fd5b604051908082528060200260200182016040528015615aa7578160200160208202803683370190505b5090506000615ab8614ff083616d6a565b949350505050565b6060615acb826165f3565b615ad457600080fd5b6000828152600b60205260409020600a018054615af090618b20565b80601f0160208091040260200160405190810160405280929190818152602001828054615b1c90618b20565b8015615b695780601f10615b3e57610100808354040283529160200191615b69565b820191906000526020600020905b815481529060010190602001808311615b4c57829003601f168201915b50505050509050919050565b6001600160a01b03166000908152600c602052604090206005015460ff1690565b6000615bba615ba433613b01565b336000908152600d602052604090205490616af4565b905081811015615bdc5760405162461bcd60e51b8152600401610e1c90618401565b602054604051630895993360e11b81526001600160a01b039091169063112b326690615c0e9085903390600401618957565b602060405180830381600087803b158015615c2857600080fd5b505af1158015615c3c573d6000803e3d6000fd5b505050506040513d601f19601f82011682018060405250810190615c609190617571565b615c7c5760405162461bcd60e51b8152600401610e1c906186b7565b336000908152600d602052604081208054849290615c9b908490618ad9565b909155505060405133907ffaeb7dbb9992397d26ea1944efd40c80b40f702faf69b46c67ad10aba68ccb7990615cd290859061799b565b60405180910390a25050565b601e5481565b6060615cef826165f3565b615d0b5760405162461bcd60e51b8152600401610e1c90618448565b6000828152600b6020908152604080832081516101c081018352815481526001820154938101939093526002810154918301919091526003810154606083015260048101546080830152600581015460ff808216151560a08501526101008083048216151560c08601526201000090920416151560e0840152600682015490830152600781015461012083015260088101546101408301526009810154610160830152600a8101805461018084019190615dc490618b20565b80601f0160208091040260200160405190810160405280929190818152602001828054615df090618b20565b8015615e3d5780601f10615e1257610100808354040283529160200191615e3d565b820191906000526020600020905b815481529060010190602001808311615e2057829003601f168201915b5050509183525050600b82015460209091019060ff166003811115615e7257634e487b7160e01b600052602160045260246000fd5b6003811115615e9157634e487b7160e01b600052602160045260246000fd5b905250602080820151602654604080516357716b7f60e01b8152905194955091936000936001600160a01b03909216926357716b7f926004808301939192829003018186803b158015615ee357600080fd5b505afa158015615ef7573d6000803e3d6000fd5b505050506040513d601f19601f82011682018060405250810190615f1b919061775e565b6001600160401b03811115615f4057634e487b7160e01b600052604160045260246000fd5b604051908082528060200260200182016040528015615f7357816020015b6060815260200190600190039081615f5e5790505b50905060005b82811015616070578351600090615f91908390618a8e565b6000818152600a6020526040812080549293509091615faf90618b20565b80601f0160208091040260200160405190810160405280929190818152602001828054615fdb90618b20565b80156160285780601f10615ffd57610100808354040283529160200191616028565b820191906000526020600020905b81548152906001019060200180831161600b57829003601f168201915b505050505090508084848151811061605057634e487b7160e01b600052603260045260246000fd5b60200260200101819052505050808061606890618b5b565b915050615f79565b50949350505050565b60185481565b601a5481565b61608d6166e0565b6001600160a01b031661609e614035565b6001600160a01b0316146160c45760405162461bcd60e51b8152600401610e1c9061822d565b6001600160a01b0381166160ea5760405162461bcd60e51b8152600401610e1c90617d4c565b6119b581616c12565b600082826040516020016142bd929190617b63565b601a5490565b6161166166e4565b336000908152600c602090815260409182902060265483516398a54e2b60e01b8152935191936001600160a01b03909116926398a54e2b92600480840193829003018186803b15801561616857600080fd5b505afa15801561617c573d6000803e3d6000fd5b505050506040513d601f19601f820116820180604052508101906161a0919061775e565b6012546011546161b09190618a8e565b106161cd5760405162461bcd60e51b8152600401610e1c90618536565b600581015460ff16156161f25760405162461bcd60e51b8152600401610e1c90617c2f565b602660009054906101000a90046001600160a01b03166001600160a01b0316639fb491f66040518163ffffffff1660e01b815260040160206040518083038186803b15801561624057600080fd5b505afa158015616254573d6000803e3d6000fd5b505050506040513d601f19601f82011682018060405250810190616278919061775e565b81600301541015801561631d5750602660009054906101000a90046001600160a01b03166001600160a01b0316630f1f0ffe6040518163ffffffff1660e01b815260040160206040518083038186803b1580156162d457600080fd5b505afa1580156162e8573d6000803e3d6000fd5b505050506040513d601f19601f8201168201806040525081019061630c919061775e565b600682015461631b9042618ad9565b105b1561633a5760405162461bcd60e51b8152600401610e1c906185d5565b602654604080516323aea69160e01b815290516000926001600160a01b0316916323aea691916004808301926020929190829003018186803b15801561637f57600080fd5b505afa158015616393573d6000803e3d6000fd5b505050506040513d601f19601f820116820180604052508101906163b7919061775e565b60235460405163792f4f6960e11b81529192506000916001600160a01b039091169063f25e9ed2906163ed9033906004016179ce565b60206040518083038186803b15801561640557600080fd5b505afa158015616419573d6000803e3d6000fd5b505050506040513d601f19601f8201168201806040525081019061643d9190617450565b336000908152600d60205260409020549091508211156164e6576001600160a01b038116156164bd576001600160a01b0381166000908152600d60205260409020548211156164b8576001600160a01b0381166000908152600d60205260408120546164aa908490616af4565b90506164b68183616c62565b505b6164e6565b336000908152600d60205260408120546164d8908490616af4565b90506164e48133616c62565b505b336000908152600d60205260409020548211156165155760405162461bcd60e51b8152600401610e1c90617fe8565b61651e33616b00565b61656557601180546001810182556000919091527f31ecc21a745e3968a04e9570e4425bc18fa8019c68028196b546d1669c200c680180546001600160a01b031916331790555b8254336001600160a01b031990911617835560058301805460ff1916600190811761ff001916909155426006850155600060038501819055601a80549091906165af908490618a8e565b909155505060405133907f439d77b7534ec3108fc6143bd4fbabde0b9f2bb54f7b0730d1f70dd2135b765f906165e690429061799b565b60405180910390a2505050565b601754101590565b336000908152600c602052604090206005015460ff1690565b601c5490565b601f546001600160a01b031681565b6001600160a01b039081166000908152600c6020908152604091829020825161014081018452815490941684526001810154918401829052600281015460ff90811615159385019390935260038101546060850152600481015460808501526005810154808416151560a086015261010090819004909316151560c0850152600681015460e08501526007810154928401929092526008909101546101209092019190915290565b6026546001600160a01b031681565b3390565b6014546001600160a01b031661670c5760405162461bcd60e51b8152600401610e1c9061847f565b6014546040516000916001600160a01b03169061672d9033906024016179ce565b60408051601f198184030181529181526020820180516001600160e01b0316631f5ac9c560e11b1790525161676291906179a4565b6000604051808303816000865af19150503d806000811461679f576040519150601f19603f3d011682016040523d82523d6000602084013e6167a4565b606091505b50506014546040519192506000916001600160a01b03909116906167cc9033906024016179ce565b60408051601f198184030181529181526020820180516001600160e01b03166358563d2160e01b1790525161680191906179a4565b6000604051808303816000865af19150503d806000811461683e576040519150601f19603f3d011682016040523d82523d6000602084013e616843565b606091505b5050905081806168505750805b6142805760405162461bcd60e51b8152600401610e1c90617cb7565b60008060005b6011548110156168e057836001600160a01b0316601182815481106168a757634e487b7160e01b600052603260045260246000fd5b6000918252602090912001546001600160a01b031614156168ce57600191508092506168e0565b806168d881618b5b565b915050616872565b5080156169bf57601180546168f790600190618ad9565b8154811061691557634e487b7160e01b600052603260045260246000fd5b600091825260209091200154601180546001600160a01b03909216918490811061694f57634e487b7160e01b600052603260045260246000fd5b9060005260206000200160006101000a8154816001600160a01b0302191690836001600160a01b03160217905550601180548061699c57634e487b7160e01b600052603160045260246000fd5b600082815260209020810160001990810180546001600160a01b03191690550190555b505050565b60008060005b601254811015616a3857836001600160a01b0316601282815481106169ff57634e487b7160e01b600052603260045260246000fd5b6000918252602090912001546001600160a01b03161415616a265760019150809250616a38565b80616a3081618b5b565b9150506169ca565b5080156169bf5760128054616a4f90600190618ad9565b81548110616a6d57634e487b7160e01b600052603260045260246000fd5b600091825260209091200154601280546001600160a01b039092169184908110616aa757634e487b7160e01b600052603260045260246000fd5b9060005260206000200160006101000a8154816001600160a01b0302191690836001600160a01b03160217905550601280548061699c57634e487b7160e01b600052603160045260246000fd5b60006114468284618ad9565b600080805b601154811015614c0557836001600160a01b031660118281548110616b3a57634e487b7160e01b600052603260045260246000fd5b6000918252602090912001546001600160a01b03161415616b5e5760019150614c05565b80616b6881618b5b565b915050616b05565b6000818310616b7f5781611446565b5090919050565b600081831015616b7f5781611446565b60006114468284618a8e565b600080805b601254811015614c0557836001600160a01b031660128281548110616bdc57634e487b7160e01b600052603260045260246000fd5b6000918252602090912001546001600160a01b03161415616c005760019150614c05565b80616c0a81618b5b565b915050616ba7565b600080546001600160a01b038381166001600160a01b0319831681178455604051919092169283917f8be0079c531659141344cd1fd0a4f28419497f9722a3daafe3b4186f6b6457e09190a35050565b6020546040516304ada21f60e21b81526001600160a01b03909116906312b6887c90616c949085908590600401618957565b602060405180830381600087803b158015616cae57600080fd5b505af1158015616cc2573d6000803e3d6000fd5b505050506040513d601f19601f82011682018060405250810190616ce69190617571565b616d025760405162461bcd60e51b8152600401610e1c90617eee565b6001600160a01b0381166000908152600d602052604081208054849290616d2a908490618a8e565b92505081905550806001600160a01b03167f5aa5d56140767016c877a5333ac3e1ad31a09051098a8fdf7297c4b64530a94283604051615cd2919061799b565b805160609060005b81811015616db85780848281518110616d9b57634e487b7160e01b600052603260045260246000fd5b602090810291909101015280616db081618b5b565b915050616d72565b509192915050565b60606000825111616dd057600080fd5b81518060005b81811015616f4b57600083616de9614a6b565b878481518110616e0957634e487b7160e01b600052603260045260246000fd5b6020026020010151604051602001616e229291906179c0565b6040516020818303038152906040528051906020012060001c616e459190618b76565b616e50906001618a8e565b9050600086616e60600184618ad9565b81518110616e7e57634e487b7160e01b600052603260045260246000fd5b6020026020010151905086600186616e969190618ad9565b81518110616eb457634e487b7160e01b600052603260045260246000fd5b602002602001015187600184616eca9190618ad9565b81518110616ee857634e487b7160e01b600052603260045260246000fd5b60209081029190910101528087616f00600188618ad9565b81518110616f1e57634e487b7160e01b600052603260045260246000fd5b6020908102919091010152616f34600186618ad9565b945050508080616f4390618b5b565b915050616dd6565b50929392505050565b60005b601354811015616fdf57600060138281548110616f8457634e487b7160e01b600052603260045260246000fd5b60009182526020808320909101546001600160a01b0316808352600c909152604090912060058101805461ffff19169055909150616fc18261686c565b616fca826169c4565b50508080616fd790618b5b565b915050616f57565b50613b7460136000617352565b6000601654601854616ffe9190618ad9565b9050602660009054906101000a90046001600160a01b03166001600160a01b031663e3115d3c6040518163ffffffff1660e01b815260040160206040518083038186803b15801561704e57600080fd5b505afa158015617062573d6000803e3d6000fd5b505050506040513d601f19601f82011682018060405250810190617086919061775e565b8111156119b55760005b602654604080516307d630cb60e41b81529051617114926001600160a01b031691637d630cb0916004808301926020929190829003018186803b1580156170d657600080fd5b505afa1580156170ea573d6000803e3d6000fd5b505050506040513d601f19601f8201168201806040525081019061710e919061775e565b83616b70565b811015614280576016546000908152600b6020526040812080546001909101549091906171419083618a8e565b9050815b81811015617168576171568161211f565b8061716081618b5b565b915050617145565b50617174601654612511565b6016546040517f72c2fcc891fe835b86fc8bb9abdc52adf52499c52289b3c49e1461eabea2717590600090a2505080806171ad90618b5b565b915050617090565b8280546171c190618b20565b90600052602060002090601f0160209004810192826171e35760008555617229565b82601f106171fc57805160ff1916838001178555617229565b82800160010185558215617229579182015b8281111561722957825182559160200191906001019061720e565b5061723592915061736c565b5090565b50805461724590618b20565b6000825580601f1061725757506119b5565b601f0160209004906000526020600020908101906119b5919061736c565b60405180608001604052806060815260200160006001600160a01b0316815260200160008152602001600060038111156172bf57634e487b7160e01b600052602160045260246000fd5b905290565b604051806101c0016040528060008152602001600081526020016000815260200160008152602001600081526020016000151581526020016000151581526020016000151581526020016000815260200160008152602001600081526020016000815260200160608152602001600060038111156172bf57634e487b7160e01b600052602160045260246000fd5b50805460008255906000526020600020908101906119b591905b5b80821115617235576000815560010161736d565b80518015158114610f8d57600080fd5b805160048110610f8d57600080fd5b600082601f8301126173b0578081fd5b81356173c36173be82618a5b565b618a32565b8181528460208386010111156173d7578283fd5b816020850160208301379081016020019190915292915050565b600082601f830112617401578081fd5b815161740f6173be82618a5b565b818152846020838601011115617423578283fd5b615ab8826020830160208701618af0565b600060208284031215617445578081fd5b813561144681618bcc565b600060208284031215617461578081fd5b815161144681618bcc565b6000806040838503121561747e578081fd5b823561748981618bcc565b946020939093013593505050565b6000806000606084860312156174ab578081fd5b83356174b681618bcc565b95602085013595506040909401359392505050565b600060208083850312156174dd578182fd5b82356001600160401b03808211156174f3578384fd5b818501915085601f830112617506578384fd5b81358181111561751857617518618bb6565b8381029150617528848301618a32565b8181528481019084860184860187018a1015617542578788fd5b8795505b83861015617564578035835260019590950194918601918601617546565b5098975050505050505050565b600060208284031215617582578081fd5b61144682617381565b6000806040838503121561759d578182fd5b82356001600160401b03808211156175b3578384fd5b6175bf868387016173a0565b935060208501359150808211156175d4578283fd5b506175e1858286016173a0565b9150509250929050565b600080604083850312156175fd578182fd5b82356001600160401b03811115617612578283fd5b61761e858286016173a0565b95602094909401359450505050565b60006020828403121561763e578081fd5b81516001600160401b0380821115617654578283fd5b81840191506101c080838703121561766a578384fd5b61767381618a32565b9050825181526020830151602082015260408301516040820152606083015160608201526176a360808401617381565b60808201526176b460a08401617381565b60a08201526176c560c08401617381565b60c082015260e083810151908201526101008084015190820152610120808401519082015261014080840151908201526101608084015183811115617708578586fd5b617714888287016173f1565b828401525050610180915081830151828201526101a09150617737828401617391565b91810191909152949350505050565b600060208284031215617757578081fd5b5035919050565b6000602082840312156114e3578081fd5b60008060408385031215617781578182fd5b82359150602083013561779381618bcc565b809150509250929050565b600080600080600060a086880312156177b5578283fd5b85359450602086013593506040860135925060608601356001600160401b03808211156177e0578283fd5b6177ec89838a016173a0565b93506080880135915080821115617801578283fd5b5061780e888289016173a0565b9150509295509295909350565b6000806040838503121561782d578182fd5b50508035926020909101359150565b60008060008060808587031215617851578182fd5b8435935060208501359250604085013561786a81618bcc565b9396929550929360600135925050565b6000806000806080858703121561788f578182fd5b843593506020850135925060408501356001600160401b038111156178b2578283fd5b6178be878288016173a0565b949793965093946060013593505050565b15159052565b600081518084526178ed816020860160208601618af0565b601f01601f19169290920160200192915050565b6004811061791f57634e487b7160e01b600052602160045260246000fd5b9052565b600a8152690c6dedadad2e890c2e6d60b31b602082015260400190565b60098152686e756d546f6b656e7360b81b602082015260400190565b60609190911b6bffffffffffffffffffffffff1916815260140190565b60609290921b6bffffffffffffffffffffffff19168252601482015260340190565b90815260200190565b600082516179b6818460208701618af0565b9190910192915050565b918252602082015260400190565b6001600160a01b0391909116815260200190565b6001600160a01b039a909a168a5260208a0198909852951515604089015260608801949094526080870192909252151560a0860152151560c085015260e08401526101008301526101208201526101400190565b6000602080830181845280855180835260408601915060408482028701019250838701855b82811015617a8957603f19888603018452617a778583516178d5565b94509285019290850190600101617a5b565b5092979650505050505050565b6020808252825182820181905260009190848201906040850190845b81811015617ace57835183529284019291840191600101617ab2565b50909695505050505050565b901515815260200190565b60006020825261144660208301846178d5565b600060408252617b0b60408301856178d5565b905060018060a01b03831660208301529392505050565b600060808252617b3560808301876178d5565b6001600160a01b0386166020840152604083018590529050617b5a6060830184617901565b95945050505050565b600060408252617b7660408301856178d5565b90508260208301529392505050565b6000602080835281845483600282049050600180831680617ba757607f831692505b858310811415617bc557634e487b7160e01b87526022600452602487fd5b617bd183878a0161799b565b818015617be55760018114617bf657617c20565b60ff19861682528782019650617c20565b617bff8b618a82565b895b86811015617c1a57815484820152908501908901617c01565b83019750505b50949998505050505050505050565b6020808252601c908201527f576f726b657220697320616c7265616479207265676973746572656400000000604082015260600190565b60208082526031908201527f676976656e204461746142617463682073686f756c6420626520415050524f5660408201527011510b08185b99081a5d081a5cc81b9bdd607a1b606082015260800190565b60208082526025908201527f72656365697665722072656a6563746564205f7265747269657665534675656c6040820152640818d85b1b60da1b606082015260800190565b60208082526030908201527f636f756c64206e6f742072657761726420746f6b656e20696e2056616c69646160408201526f3a32a230ba30a130ba31b4161018973160811b606082015260800190565b60208082526026908201527f4f776e61626c653a206e6577206f776e657220697320746865207a65726f206160408201526564647265737360d01b606082015260800190565b60208082526029908201527f6b206f72204e20617265206e6f74204f4b20647572696e672072616e646f6d2060408201526839b2b632b1ba34b7b760b91b606082015260800190565b6020808252602a908201527f4661696c20647572696e6720616c6c6f636174696f6e3a206e6f7420656e6f75604082015269676820776f726b65727360b01b606082015260800190565b6020808252601e908201527f636f6d6d697420706572696f64206e6565647320746f206265206f70656e0000604082015260600190565b6020808252818101527f576f726b65722063616e277420756e726567697374657220736f206561726c79604082015260600190565b60208082526038908201527f55736572206e6565647320746f20626520616c6c6f636174656420746f20746860408201527f697320626174636820746f20636f6d6d6974206f6e2069740000000000000000606082015260800190565b6020808252603f908201527f436f756c64206e6f74207265717565737420656e6f75676820616c6c6f63617460408201527f6564207374616b652c2072657175657374416c6c6f63617465645374616b6500606082015260800190565b6020808252602e908201527f636f756c64206e6f74207265776172642052455020696e2056616c696461746560408201526d4461746142617463682c20312e6160901b606082015260800190565b6020808252602f908201527f5573657220686173206e6f7420636f6d6d69746564206265666f72652c20746860408201526e1d5cc818d85b89dd081c995d99585b608a1b606082015260800190565b60208082526043908201527f576f726b657220686173206e6f7420656e6f75676820285f6e756d546f6b656e60408201527f732920696e2068697320466f726d61745374616b6564546f6b656e42616c616e606082015262031b2960ed1b608082015260a00190565b60208082526039908201527f646c6c4d61703a20646f6573206e6f7420636f696e7461696e205f446174614260408201527f61746368496420666f7220746865206d73672073656e64657200000000000000606082015260800190565b6020808252602b908201527f75736572206d75737420686176652072657665616c656420696e20746869732060408201526a0ced2eccadc4084c2e8c6d60ab1b606082015260800190565b6020808252601490820152733737ba1030903b30b634b2103837b9b4ba34b7b760611b604082015260600190565b6020808252603a908201527f576f726b65722063757272656e746c792068617320776f726b20616c6c6f636160408201527f7465642c2063616e277420626520756e72656769737465726564000000000000606082015260800190565b6020808252603b908201527f43616e277420616c6c6f6361746520776f726b2c207468652063757272656e7460408201527f20626174636820697320616c726561647920616c6c6f63617465640000000000606082015260800190565b6020808252602c908201527f576f726b6572206973206e6f74207265676973746572656420736f2063616e2760408201526b3a103ab73932b3b4b9ba32b960a11b606082015260800190565b6020808252818101527f4f776e61626c653a2063616c6c6572206973206e6f7420746865206f776e6572604082015260600190565b6020808252603a908201527f5f446174614261746368496420686173206e6f7420656e6465642c206f72206e60408201527f6f7420657665727920766f74657273206861766520766f746564000000000000606082015260800190565b6020808252603e908201527f436f756c64206e6f74206d6174636820656e637279707465642068617368202660408201527f20636c6561722068617368207769746820676976656e20696e707574732e0000606082015260800190565b60208082526029908201527f6765744e756d50617373696e67546f6b656e733a20686173686573206d75737460408201526808189948195c5d585b60ba1b606082015260800190565b60208082526036908201527f43616e277420616c6c6f6361746520776f726b2c207468652063757272656e74604082015275206261746368206973206e6f7420636f6d706c65746560501b606082015260800190565b60208082526026908201527f52657665616c20706572696f64206e6f74206f70656e20666f7220746869732060408201526511185d18525160d21b606082015260800190565b60208082526027908201527f617661696c61626c65546f6b656e732073686f756c64206265203e3d205f6e756040820152666d546f6b656e7360c81b606082015260800190565b60208082526017908201527f5f4461746142617463684964206d757374206578697374000000000000000000604082015260600190565b6020808252601390820152720c081059191c995cdcc8139bdd0815985b1a59606a1b604082015260600190565b60208082526021908201527f5f446174614261746368496420697320616c72656164792076616c69646174656040820152601960fa1b606082015260800190565b60208082526029908201527f557365722068617320616c726561647920636f6d6d6974656420746f207468696040820152681cc818985d18da125960ba1b606082015260800190565b60208082526022908201527f4d6178696d756d207265676973746572656420776f726b65727320616c726561604082015261647960f01b606082015260800190565b60208082526037908201527f75736572206d757374206861766520656e6f75676820766f74696e672072696760408201527f68747320616b6120616c6c6f6361746564207374616b65000000000000000000606082015260800190565b6020808252606c908201527f5573657220686173206e6f7420766f746564206d616e792074696d657320696e60408201527f206120726f7720616e64206e6565647320746f2077616974204e4f564f54455f60608201527f524547495354524154494f4e5f574149545f4455524154494f4e20746f20726560808201526b33b4b9ba32b91030b3b0b4b760a11b60a082015260c00190565b6020808252602a908201527f5f446174614261746368496420636865636b696e6720766f7465206d757374206040820152691a185d9948195b99195960b21b606082015260800190565b6020808252603b908201527f436f756c64206e6f74207769746864726177566f74696e67526967687473207460408201527f68726f7567682050726f78795374616b654465616c6c6f636174650000000000606082015260800190565b6020808252600f908201526e11185d18481b5d5cdd08195e1a5cdd608a1b604082015260600190565b6020808252602c908201527f557365722068617320616c72656164792072657665616c65642c20746875732060408201526b18d85b89dd081c995d99585b60a21b606082015260800190565b60006020825282516020830152602083015160408301526040830151606083015260608301516080830152608083015160a083015260a08301516187d060c08401826178cf565b5060c08301516187e360e08401826178cf565b5060e08301516101006187f8818501836178cf565b840151610120848101919091528401516101408085019190915284015161016080850191909152840151610180808501919091528401516101c06101a08086018290529192509061884d6101e08601846178d5565b9086015190925061526b85830182617901565b60006020825282516080602084015261887c60a08401826178d5565b905060018060a01b0360208501511660408401526040840151606084015260608401516188ac6080850182617901565b509392505050565b600083825282602083015260606040830152615ab860608301617923565b6000848252836020830152608060408301526188f060808301617923565b9050826060830152949350505050565b600083825282602083015260606040830152615ab860608301617940565b6000848252836020830152608060408301526188f060808301617940565b93845260208401929092526040830152606082015260800190565b9182526001600160a01b0316602082015260400190565b9182526001600160a01b031660208201526000604082015260600190565b9283526020830191909152604082015260600190565b60008f82528e60208301528d60408301528c60608301528b60808301528a151560a083015289151560c08301526189dc60e083018a6178cf565b876101008301528661012083015285610140830152846101608301526101c0610180830152618a0f6101c08301856178d5565b9050618a1f6101a0830184617901565b9f9e505050505050505050505050505050565b6040518181016001600160401b0381118282101715618a5357618a53618bb6565b604052919050565b60006001600160401b03821115618a7457618a74618bb6565b50601f01601f191660200190565b60009081526020902090565b60008219821115618aa157618aa1618b8a565b500190565b600082618ab557618ab5618ba0565b500490565b6000816000190483118215151615618ad457618ad4618b8a565b500290565b600082821015618aeb57618aeb618b8a565b500390565b60005b83811015618b0b578181015183820152602001618af3565b83811115618b1a576000848401525b50505050565b600281046001821680618b3457607f821691505b60208210811415618b5557634e487b7160e01b600052602260045260246000fd5b50919050565b6000600019821415618b6f57618b6f618b8a565b5060010190565b600082618b8557618b85618ba0565b500690565b634e487b7160e01b600052601160045260246000fd5b634e487b7160e01b600052601260045260246000fd5b634e487b7160e01b600052604160045260246000fd5b6001600160a01b03811681146119b557600080fdfea264697066735822122080b84183b2ca4fac92c69a8de6fc3990b0a20f0098d4d3ecb25fb0cfae19a0fa64736f6c63430008000033",
			"opcodes": "PUSH1 0x80 PUSH1 0x40 MSTORE PUSH1 0x0 PUSH1 0x15 SSTORE PUSH1 0x1 PUSH1 0x16 SSTORE PUSH1 0x1 PUSH1 0x17 SSTORE PUSH1 0x1 PUSH1 0x18 SSTORE PUSH1 0x1 PUSH1 0x19 SSTORE PUSH1 0x0 PUSH1 0x1A SSTORE PUSH1 0x0 PUSH1 0x1B SSTORE PUSH1 0x0 PUSH1 0x1C SSTORE PUSH1 0x0 PUSH1 0x1D SSTORE PUSH1 0x0 PUSH1 0x1E SSTORE CALLVALUE DUP1 ISZERO PUSH3 0x43 JUMPI PUSH1 0x0 DUP1 REVERT JUMPDEST POP PUSH1 0x40 MLOAD PUSH3 0x8D5F CODESIZE SUB DUP1 PUSH3 0x8D5F DUP4 CODECOPY DUP2 ADD PUSH1 0x40 DUP2 SWAP1 MSTORE PUSH3 0x66 SWAP2 PUSH3 0x108 JUMP JUMPDEST PUSH3 0x7A PUSH3 0x74 PUSH3 0xB4 JUMP JUMPDEST PUSH3 0xB8 JUMP JUMPDEST PUSH1 0x1 PUSH1 0x1 PUSH1 0xA0 SHL SUB DUP2 AND PUSH3 0x8E JUMPI PUSH1 0x0 DUP1 REVERT JUMPDEST PUSH1 0x1F DUP1 SLOAD PUSH1 0x1 PUSH1 0x1 PUSH1 0xA0 SHL SUB NOT AND PUSH1 0x1 PUSH1 0x1 PUSH1 0xA0 SHL SUB SWAP3 SWAP1 SWAP3 AND SWAP2 SWAP1 SWAP2 OR SWAP1 SSTORE PUSH3 0x138 JUMP JUMPDEST CALLER SWAP1 JUMP JUMPDEST PUSH1 0x0 DUP1 SLOAD PUSH1 0x1 PUSH1 0x1 PUSH1 0xA0 SHL SUB DUP4 DUP2 AND PUSH1 0x1 PUSH1 0x1 PUSH1 0xA0 SHL SUB NOT DUP4 AND DUP2 OR DUP5 SSTORE PUSH1 0x40 MLOAD SWAP2 SWAP1 SWAP3 AND SWAP3 DUP4 SWAP2 PUSH32 0x8BE0079C531659141344CD1FD0A4F28419497F9722A3DAAFE3B4186F6B6457E0 SWAP2 SWAP1 LOG3 POP POP JUMP JUMPDEST PUSH1 0x0 PUSH1 0x20 DUP3 DUP5 SUB SLT ISZERO PUSH3 0x11A JUMPI DUP1 DUP2 REVERT JUMPDEST DUP2 MLOAD PUSH1 0x1 PUSH1 0x1 PUSH1 0xA0 SHL SUB DUP2 AND DUP2 EQ PUSH3 0x131 JUMPI DUP2 DUP3 REVERT JUMPDEST SWAP4 SWAP3 POP POP POP JUMP JUMPDEST PUSH2 0x8C17 DUP1 PUSH3 0x148 PUSH1 0x0 CODECOPY PUSH1 0x0 RETURN INVALID PUSH1 0x80 PUSH1 0x40 MSTORE CALLVALUE DUP1 ISZERO PUSH2 0x10 JUMPI PUSH1 0x0 DUP1 REVERT JUMPDEST POP PUSH1 0x4 CALLDATASIZE LT PUSH2 0x6AA JUMPI PUSH1 0x0 CALLDATALOAD PUSH1 0xE0 SHR DUP1 PUSH4 0x9FC9C52F GT PUSH2 0x36C JUMPI DUP1 PUSH4 0xD8B75674 GT PUSH2 0x1DE JUMPI DUP1 PUSH4 0xEB1322FF GT PUSH2 0x10F JUMPI DUP1 PUSH4 0xF716596D GT PUSH2 0xAD JUMPI DUP1 PUSH4 0xF96305F0 GT PUSH2 0x87 JUMPI DUP1 PUSH4 0xF96305F0 EQ PUSH2 0xDCA JUMPI DUP1 PUSH4 0xFC0C546A EQ PUSH2 0xDD2 JUMPI DUP1 PUSH4 0xFCA49563 EQ PUSH2 0xDDA JUMPI DUP1 PUSH4 0xFF43DE9D EQ PUSH2 0xDED JUMPI PUSH2 0x6AA JUMP JUMPDEST DUP1 PUSH4 0xF716596D EQ PUSH2 0xDA7 JUMPI DUP1 PUSH4 0xF721DE4A EQ PUSH2 0xDAF JUMPI DUP1 PUSH4 0xF80A23FD EQ PUSH2 0xDC2 JUMPI PUSH2 0x6AA JUMP JUMPDEST DUP1 PUSH4 0xF2D9E74D GT PUSH2 0xE9 JUMPI DUP1 PUSH4 0xF2D9E74D EQ PUSH2 0xD71 JUMPI DUP1 PUSH4 0xF2FDE38B EQ PUSH2 0xD79 JUMPI DUP1 PUSH4 0xF4CDFCC4 EQ PUSH2 0xD8C JUMPI DUP1 PUSH4 0xF5AE7C7D EQ PUSH2 0xD9F JUMPI PUSH2 0x6AA JUMP JUMPDEST DUP1 PUSH4 0xEB1322FF EQ PUSH2 0xD4E JUMPI DUP1 PUSH4 0xED8BECFA EQ PUSH2 0xD56 JUMPI DUP1 PUSH4 0xEF4FCDAD EQ PUSH2 0xD69 JUMPI PUSH2 0x6AA JUMP JUMPDEST DUP1 PUSH4 0xDD618682 GT PUSH2 0x17C JUMPI DUP1 PUSH4 0xE44C974B GT PUSH2 0x156 JUMPI DUP1 PUSH4 0xE44C974B EQ PUSH2 0xD02 JUMPI DUP1 PUSH4 0xE604C127 EQ PUSH2 0xD15 JUMPI DUP1 PUSH4 0xE798A7DA EQ PUSH2 0xD28 JUMPI DUP1 PUSH4 0xE7B1D43C EQ PUSH2 0xD3B JUMPI PUSH2 0x6AA JUMP JUMPDEST DUP1 PUSH4 0xDD618682 EQ PUSH2 0xCD4 JUMPI DUP1 PUSH4 0xDF05368E EQ PUSH2 0xCE7 JUMPI DUP1 PUSH4 0xE1F7A430 EQ PUSH2 0xCFA JUMPI PUSH2 0x6AA JUMP JUMPDEST DUP1 PUSH4 0xD9845FB8 GT PUSH2 0x1B8 JUMPI DUP1 PUSH4 0xD9845FB8 EQ PUSH2 0xC91 JUMPI DUP1 PUSH4 0xDA14563A EQ PUSH2 0xCB1 JUMPI DUP1 PUSH4 0xDB687C17 EQ PUSH2 0xCB9 JUMPI DUP1 PUSH4 0xDD15F095 EQ PUSH2 0xCCC JUMPI PUSH2 0x6AA JUMP JUMPDEST DUP1 PUSH4 0xD8B75674 EQ PUSH2 0xC58 JUMPI DUP1 PUSH4 0xD901402B EQ PUSH2 0xC6B JUMPI DUP1 PUSH4 0xD9548E53 EQ PUSH2 0xC7E JUMPI PUSH2 0x6AA JUMP JUMPDEST DUP1 PUSH4 0xB1A2E0BE GT PUSH2 0x2B8 JUMPI DUP1 PUSH4 0xD186981D GT PUSH2 0x256 JUMPI DUP1 PUSH4 0xD6B0206C GT PUSH2 0x230 JUMPI DUP1 PUSH4 0xD6B0206C EQ PUSH2 0xC22 JUMPI DUP1 PUSH4 0xD817587E EQ PUSH2 0xC2A JUMPI DUP1 PUSH4 0xD822CE01 EQ PUSH2 0xC3D JUMPI DUP1 PUSH4 0xD8645D37 EQ PUSH2 0xC50 JUMPI PUSH2 0x6AA JUMP JUMPDEST DUP1 PUSH4 0xD186981D EQ PUSH2 0xBF4 JUMPI DUP1 PUSH4 0xD420EC0B EQ PUSH2 0xC07 JUMPI DUP1 PUSH4 0xD58F575C EQ PUSH2 0xC1A JUMPI PUSH2 0x6AA JUMP JUMPDEST DUP1 PUSH4 0xB8F011B3 GT PUSH2 0x292 JUMPI DUP1 PUSH4 0xB8F011B3 EQ PUSH2 0xBA8 JUMPI DUP1 PUSH4 0xC47C4BC2 EQ PUSH2 0xBBB JUMPI DUP1 PUSH4 0xC4E4F82A EQ PUSH2 0xBCE JUMPI DUP1 PUSH4 0xD1382092 EQ PUSH2 0xBE1 JUMPI PUSH2 0x6AA JUMP JUMPDEST DUP1 PUSH4 0xB1A2E0BE EQ PUSH2 0xB6F JUMPI DUP1 PUSH4 0xB1D7EA98 EQ PUSH2 0xB82 JUMPI DUP1 PUSH4 0xB43BD069 EQ PUSH2 0xB95 JUMPI PUSH2 0x6AA JUMP JUMPDEST DUP1 PUSH4 0xA4B7E233 GT PUSH2 0x325 JUMPI DUP1 PUSH4 0xAA7CA464 GT PUSH2 0x2FF JUMPI DUP1 PUSH4 0xAA7CA464 EQ PUSH2 0xB39 JUMPI DUP1 PUSH4 0xAACC5A17 EQ PUSH2 0xB4C JUMPI DUP1 PUSH4 0xAB43E78D EQ PUSH2 0xB54 JUMPI DUP1 PUSH4 0xB10AA584 EQ PUSH2 0xB5C JUMPI PUSH2 0x6AA JUMP JUMPDEST DUP1 PUSH4 0xA4B7E233 EQ PUSH2 0xB0B JUMPI DUP1 PUSH4 0xA511DBA0 EQ PUSH2 0xB1E JUMPI DUP1 PUSH4 0xA9057790 EQ PUSH2 0xB26 JUMPI PUSH2 0x6AA JUMP JUMPDEST DUP1 PUSH4 0x9FC9C52F EQ PUSH2 0xAAF JUMPI DUP1 PUSH4 0xA0E71C15 EQ PUSH2 0xAC2 JUMPI DUP1 PUSH4 0xA1103F37 EQ PUSH2 0xAD5 JUMPI DUP1 PUSH4 0xA1B6B5B7 EQ PUSH2 0xAE8 JUMPI DUP1 PUSH4 0xA350715A EQ PUSH2 0xAF0 JUMPI DUP1 PUSH4 0xA4439DC5 EQ PUSH2 0xAF8 JUMPI PUSH2 0x6AA JUMP JUMPDEST DUP1 PUSH4 0x515535E8 GT PUSH2 0x520 JUMPI DUP1 PUSH4 0x7A34DA67 GT PUSH2 0x451 JUMPI DUP1 PUSH4 0x8473850B GT PUSH2 0x3EF JUMPI DUP1 PUSH4 0x8DA5CB5B GT PUSH2 0x3C9 JUMPI DUP1 PUSH4 0x8DA5CB5B EQ PUSH2 0xA79 JUMPI DUP1 PUSH4 0x8DF0296E EQ PUSH2 0xA81 JUMPI DUP1 PUSH4 0x97603560 EQ PUSH2 0xA94 JUMPI DUP1 PUSH4 0x9769D846 EQ PUSH2 0xAA7 JUMPI PUSH2 0x6AA JUMP JUMPDEST DUP1 PUSH4 0x8473850B EQ PUSH2 0xA35 JUMPI DUP1 PUSH4 0x88D072EB EQ PUSH2 0xA3D JUMPI DUP1 PUSH4 0x8C89D027 EQ PUSH2 0xA50 JUMPI PUSH2 0x6AA JUMP JUMPDEST DUP1 PUSH4 0x7FABE35B GT PUSH2 0x42B JUMPI DUP1 PUSH4 0x7FABE35B EQ PUSH2 0x9DA JUMPI DUP1 PUSH4 0x819B0293 EQ PUSH2 0xA07 JUMPI DUP1 PUSH4 0x821AA8C0 EQ PUSH2 0xA1A JUMPI DUP1 PUSH4 0x83CC6EF2 EQ PUSH2 0xA2D JUMPI PUSH2 0x6AA JUMP JUMPDEST DUP1 PUSH4 0x7A34DA67 EQ PUSH2 0x9B7 JUMPI DUP1 PUSH4 0x7F9510A2 EQ PUSH2 0x9BF JUMPI DUP1 PUSH4 0x7F97E836 EQ PUSH2 0x9C7 JUMPI PUSH2 0x6AA JUMP JUMPDEST DUP1 PUSH4 0x6A192FF5 GT PUSH2 0x4BE JUMPI DUP1 PUSH4 0x7074222B GT PUSH2 0x498 JUMPI DUP1 PUSH4 0x7074222B EQ PUSH2 0x976 JUMPI DUP1 PUSH4 0x715018A6 EQ PUSH2 0x989 JUMPI DUP1 PUSH4 0x71880B1B EQ PUSH2 0x991 JUMPI DUP1 PUSH4 0x76C1FEF4 EQ PUSH2 0x9A4 JUMPI PUSH2 0x6AA JUMP JUMPDEST DUP1 PUSH4 0x6A192FF5 EQ PUSH2 0x92D JUMPI DUP1 PUSH4 0x6B1485A3 EQ PUSH2 0x950 JUMPI DUP1 PUSH4 0x6B2D95D4 EQ PUSH2 0x963 JUMPI PUSH2 0x6AA JUMP JUMPDEST DUP1 PUSH4 0x5B113A55 GT PUSH2 0x4FA JUMPI DUP1 PUSH4 0x5B113A55 EQ PUSH2 0x8DF JUMPI DUP1 PUSH4 0x5DF6055D EQ PUSH2 0x8F2 JUMPI DUP1 PUSH4 0x6371D81F EQ PUSH2 0x912 JUMPI DUP1 PUSH4 0x667BF0F8 EQ PUSH2 0x925 JUMPI PUSH2 0x6AA JUMP JUMPDEST DUP1 PUSH4 0x515535E8 EQ PUSH2 0x8AF JUMPI DUP1 PUSH4 0x51912F29 EQ PUSH2 0x8B7 JUMPI DUP1 PUSH4 0x5A452943 EQ PUSH2 0x8BF JUMPI PUSH2 0x6AA JUMP JUMPDEST DUP1 PUSH4 0x353F44D0 GT PUSH2 0x5FA JUMPI DUP1 PUSH4 0x47FE2D20 GT PUSH2 0x598 JUMPI DUP1 PUSH4 0x49403183 GT PUSH2 0x572 JUMPI DUP1 PUSH4 0x49403183 EQ PUSH2 0x863 JUMPI DUP1 PUSH4 0x4D4B7D9B EQ PUSH2 0x876 JUMPI DUP1 PUSH4 0x4D884281 EQ PUSH2 0x889 JUMPI DUP1 PUSH4 0x4FE8B4C1 EQ PUSH2 0x89C JUMPI PUSH2 0x6AA JUMP JUMPDEST DUP1 PUSH4 0x47FE2D20 EQ PUSH2 0x840 JUMPI DUP1 PUSH4 0x48257DC9 EQ PUSH2 0x848 JUMPI DUP1 PUSH4 0x4852E2F0 EQ PUSH2 0x85B JUMPI PUSH2 0x6AA JUMP JUMPDEST DUP1 PUSH4 0x427FA1D2 GT PUSH2 0x5D4 JUMPI DUP1 PUSH4 0x427FA1D2 EQ PUSH2 0x7F4 JUMPI DUP1 PUSH4 0x441C77C0 EQ PUSH2 0x807 JUMPI DUP1 PUSH4 0x4671ACE5 EQ PUSH2 0x81A JUMPI DUP1 PUSH4 0x46A7AEA6 EQ PUSH2 0x82D JUMPI PUSH2 0x6AA JUMP JUMPDEST DUP1 PUSH4 0x353F44D0 EQ PUSH2 0x7C6 JUMPI DUP1 PUSH4 0x39E7357C EQ PUSH2 0x7D9 JUMPI DUP1 PUSH4 0x40FBAAE4 EQ PUSH2 0x7E1 JUMPI PUSH2 0x6AA JUMP JUMPDEST DUP1 PUSH4 0x226ED300 GT PUSH2 0x667 JUMPI DUP1 PUSH4 0x2C052031 GT PUSH2 0x641 JUMPI DUP1 PUSH4 0x2C052031 EQ PUSH2 0x77A JUMPI DUP1 PUSH4 0x2D917C68 EQ PUSH2 0x78D JUMPI DUP1 PUSH4 0x2F469FD1 EQ PUSH2 0x7A0 JUMPI DUP1 PUSH4 0x3538AF82 EQ PUSH2 0x7B3 JUMPI PUSH2 0x6AA JUMP JUMPDEST DUP1 PUSH4 0x226ED300 EQ PUSH2 0x73D JUMPI DUP1 PUSH4 0x275C2590 EQ PUSH2 0x75D JUMPI DUP1 PUSH4 0x29A47BC7 EQ PUSH2 0x765 JUMPI PUSH2 0x6AA JUMP JUMPDEST DUP1 PUSH4 0x1A48B98 EQ PUSH2 0x6AF JUMPI DUP1 PUSH4 0x50EB2EB EQ PUSH2 0x6D8 JUMPI DUP1 PUSH4 0x5957623 EQ PUSH2 0x6ED JUMPI DUP1 PUSH4 0xE6661A7 EQ PUSH2 0x700 JUMPI DUP1 PUSH4 0x10679810 EQ PUSH2 0x715 JUMPI DUP1 PUSH4 0x154FD39B EQ PUSH2 0x735 JUMPI JUMPDEST PUSH1 0x0 DUP1 REVERT JUMPDEST PUSH2 0x6C2 PUSH2 0x6BD CALLDATASIZE PUSH1 0x4 PUSH2 0x7746 JUMP JUMPDEST PUSH2 0xDF5 JUMP JUMPDEST PUSH1 0x40 MLOAD PUSH2 0x6CF SWAP2 SWAP1 PUSH2 0x7A96 JUMP JUMPDEST PUSH1 0x40 MLOAD DUP1 SWAP2 SUB SWAP1 RETURN JUMPDEST PUSH2 0x6EB PUSH2 0x6E6 CALLDATASIZE PUSH1 0x4 PUSH2 0x7434 JUMP JUMPDEST PUSH2 0xF92 JUMP JUMPDEST STOP JUMPDEST PUSH2 0x6EB PUSH2 0x6FB CALLDATASIZE PUSH1 0x4 PUSH2 0x7434 JUMP JUMPDEST PUSH2 0xFF3 JUMP JUMPDEST PUSH2 0x708 PUSH2 0x1054 JUMP JUMPDEST PUSH1 0x40 MLOAD PUSH2 0x6CF SWAP2 SWAP1 PUSH2 0x799B JUMP JUMPDEST PUSH2 0x728 PUSH2 0x723 CALLDATASIZE PUSH1 0x4 PUSH2 0x776F JUMP JUMPDEST PUSH2 0x105A JUMP JUMPDEST PUSH1 0x40 MLOAD PUSH2 0x6CF SWAP2 SWAP1 PUSH2 0x7AE5 JUMP JUMPDEST PUSH2 0x708 PUSH2 0x10FF JUMP JUMPDEST PUSH2 0x750 PUSH2 0x74B CALLDATASIZE PUSH1 0x4 PUSH2 0x7746 JUMP JUMPDEST PUSH2 0x1105 JUMP JUMPDEST PUSH1 0x40 MLOAD PUSH2 0x6CF SWAP2 SWAP1 PUSH2 0x7ADA JUMP JUMPDEST PUSH2 0x6EB PUSH2 0x114D JUMP JUMPDEST PUSH2 0x76D PUSH2 0x12A1 JUMP JUMPDEST PUSH1 0x40 MLOAD PUSH2 0x6CF SWAP2 SWAP1 PUSH2 0x79CE JUMP JUMPDEST PUSH2 0x708 PUSH2 0x788 CALLDATASIZE PUSH1 0x4 PUSH2 0x7497 JUMP JUMPDEST PUSH2 0x12B0 JUMP JUMPDEST PUSH2 0x750 PUSH2 0x79B CALLDATASIZE PUSH1 0x4 PUSH2 0x746C JUMP JUMPDEST PUSH2 0x144D JUMP JUMPDEST PUSH2 0x728 PUSH2 0x7AE CALLDATASIZE PUSH1 0x4 PUSH2 0x776F JUMP JUMPDEST PUSH2 0x146D JUMP JUMPDEST PUSH2 0x76D PUSH2 0x7C1 CALLDATASIZE PUSH1 0x4 PUSH2 0x7746 JUMP JUMPDEST PUSH2 0x1491 JUMP JUMPDEST PUSH2 0x708 PUSH2 0x7D4 CALLDATASIZE PUSH1 0x4 PUSH2 0x7434 JUMP JUMPDEST PUSH2 0x14BB JUMP JUMPDEST PUSH2 0x708 PUSH2 0x14CD JUMP JUMPDEST PUSH2 0x6EB PUSH2 0x7EF CALLDATASIZE PUSH1 0x4 PUSH2 0x787A JUMP JUMPDEST PUSH2 0x14EA JUMP JUMPDEST PUSH2 0x708 PUSH2 0x802 CALLDATASIZE PUSH1 0x4 PUSH2 0x7434 JUMP JUMPDEST PUSH2 0x184E JUMP JUMPDEST PUSH2 0x750 PUSH2 0x815 CALLDATASIZE PUSH1 0x4 PUSH2 0x7746 JUMP JUMPDEST PUSH2 0x18EE JUMP JUMPDEST PUSH2 0x6EB PUSH2 0x828 CALLDATASIZE PUSH1 0x4 PUSH2 0x7746 JUMP JUMPDEST PUSH2 0x1948 JUMP JUMPDEST PUSH2 0x6EB PUSH2 0x83B CALLDATASIZE PUSH1 0x4 PUSH2 0x7434 JUMP JUMPDEST PUSH2 0x19B8 JUMP JUMPDEST PUSH2 0x708 PUSH2 0x1A19 JUMP JUMPDEST PUSH2 0x6EB PUSH2 0x856 CALLDATASIZE PUSH1 0x4 PUSH2 0x7746 JUMP JUMPDEST PUSH2 0x1A1F JUMP JUMPDEST PUSH2 0x708 PUSH2 0x1E56 JUMP JUMPDEST PUSH2 0x750 PUSH2 0x871 CALLDATASIZE PUSH1 0x4 PUSH2 0x7746 JUMP JUMPDEST PUSH2 0x1E5C JUMP JUMPDEST PUSH2 0x750 PUSH2 0x884 CALLDATASIZE PUSH1 0x4 PUSH2 0x7746 JUMP JUMPDEST PUSH2 0x20A9 JUMP JUMPDEST PUSH2 0x6EB PUSH2 0x897 CALLDATASIZE PUSH1 0x4 PUSH2 0x7434 JUMP JUMPDEST PUSH2 0x20BE JUMP JUMPDEST PUSH2 0x6EB PUSH2 0x8AA CALLDATASIZE PUSH1 0x4 PUSH2 0x7746 JUMP JUMPDEST PUSH2 0x211F JUMP JUMPDEST PUSH2 0x708 PUSH2 0x219F JUMP JUMPDEST PUSH2 0x76D PUSH2 0x21A5 JUMP JUMPDEST PUSH2 0x8D2 PUSH2 0x8CD CALLDATASIZE PUSH1 0x4 PUSH2 0x7746 JUMP JUMPDEST PUSH2 0x21B4 JUMP JUMPDEST PUSH1 0x40 MLOAD PUSH2 0x6CF SWAP2 SWAP1 PUSH2 0x8860 JUMP JUMPDEST PUSH2 0x708 PUSH2 0x8ED CALLDATASIZE PUSH1 0x4 PUSH2 0x776F JUMP JUMPDEST PUSH2 0x22D7 JUMP JUMPDEST PUSH2 0x905 PUSH2 0x900 CALLDATASIZE PUSH1 0x4 PUSH2 0x7746 JUMP JUMPDEST PUSH2 0x22F4 JUMP JUMPDEST PUSH1 0x40 MLOAD PUSH2 0x6CF SWAP2 SWAP1 PUSH2 0x7A36 JUMP JUMPDEST PUSH2 0x6EB PUSH2 0x920 CALLDATASIZE PUSH1 0x4 PUSH2 0x7746 JUMP JUMPDEST PUSH2 0x2511 JUMP JUMPDEST PUSH2 0x6EB PUSH2 0x25C4 JUMP JUMPDEST PUSH2 0x940 PUSH2 0x93B CALLDATASIZE PUSH1 0x4 PUSH2 0x7746 JUMP JUMPDEST PUSH2 0x2BC9 JUMP JUMPDEST PUSH1 0x40 MLOAD PUSH2 0x6CF SWAP5 SWAP4 SWAP3 SWAP2 SWAP1 PUSH2 0x7B22 JUMP JUMPDEST PUSH2 0x6EB PUSH2 0x95E CALLDATASIZE PUSH1 0x4 PUSH2 0x7746 JUMP JUMPDEST PUSH2 0x2C88 JUMP JUMPDEST PUSH2 0x708 PUSH2 0x971 CALLDATASIZE PUSH1 0x4 PUSH2 0x7434 JUMP JUMPDEST PUSH2 0x3B01 JUMP JUMPDEST PUSH2 0x708 PUSH2 0x984 CALLDATASIZE PUSH1 0x4 PUSH2 0x7434 JUMP JUMPDEST PUSH2 0x3B10 JUMP JUMPDEST PUSH2 0x6EB PUSH2 0x3B2B JUMP JUMPDEST PUSH2 0x708 PUSH2 0x99F CALLDATASIZE PUSH1 0x4 PUSH2 0x7746 JUMP JUMPDEST PUSH2 0x3B76 JUMP JUMPDEST PUSH2 0x905 PUSH2 0x9B2 CALLDATASIZE PUSH1 0x4 PUSH2 0x7746 JUMP JUMPDEST PUSH2 0x3BB3 JUMP JUMPDEST PUSH2 0x76D PUSH2 0x3DD0 JUMP JUMPDEST PUSH2 0x708 PUSH2 0x3DDF JUMP JUMPDEST PUSH2 0x750 PUSH2 0x9D5 CALLDATASIZE PUSH1 0x4 PUSH2 0x746C JUMP JUMPDEST PUSH2 0x3DF6 JUMP JUMPDEST PUSH2 0x9ED PUSH2 0x9E8 CALLDATASIZE PUSH1 0x4 PUSH2 0x7746 JUMP JUMPDEST PUSH2 0x3E49 JUMP JUMPDEST PUSH1 0x40 MLOAD PUSH2 0x6CF SWAP15 SWAP14 SWAP13 SWAP12 SWAP11 SWAP10 SWAP9 SWAP8 SWAP7 SWAP6 SWAP5 SWAP4 SWAP3 SWAP2 SWAP1 PUSH2 0x89A2 JUMP JUMPDEST PUSH2 0x750 PUSH2 0xA15 CALLDATASIZE PUSH1 0x4 PUSH2 0x783C JUMP JUMPDEST PUSH2 0x3F48 JUMP JUMPDEST PUSH2 0x76D PUSH2 0xA28 CALLDATASIZE PUSH1 0x4 PUSH2 0x7746 JUMP JUMPDEST PUSH2 0x3F89 JUMP JUMPDEST PUSH2 0x76D PUSH2 0x3F99 JUMP JUMPDEST PUSH2 0x708 PUSH2 0x3FA8 JUMP JUMPDEST PUSH2 0x728 PUSH2 0xA4B CALLDATASIZE PUSH1 0x4 PUSH2 0x776F JUMP JUMPDEST PUSH2 0x3FAE JUMP JUMPDEST PUSH2 0xA63 PUSH2 0xA5E CALLDATASIZE PUSH1 0x4 PUSH2 0x7434 JUMP JUMPDEST PUSH2 0x3FD2 JUMP JUMPDEST PUSH1 0x40 MLOAD PUSH2 0x6CF SWAP11 SWAP10 SWAP9 SWAP8 SWAP7 SWAP6 SWAP5 SWAP4 SWAP3 SWAP2 SWAP1 PUSH2 0x79E2 JUMP JUMPDEST PUSH2 0x76D PUSH2 0x4035 JUMP JUMPDEST PUSH2 0x76D PUSH2 0xA8F CALLDATASIZE PUSH1 0x4 PUSH2 0x781B JUMP JUMPDEST PUSH2 0x4044 JUMP JUMPDEST PUSH2 0x6EB PUSH2 0xAA2 CALLDATASIZE PUSH1 0x4 PUSH2 0x7746 JUMP JUMPDEST PUSH2 0x407C JUMP JUMPDEST PUSH2 0x708 PUSH2 0x422C JUMP JUMPDEST PUSH2 0x6EB PUSH2 0xABD CALLDATASIZE PUSH1 0x4 PUSH2 0x74CB JUMP JUMPDEST PUSH2 0x4232 JUMP JUMPDEST PUSH2 0x708 PUSH2 0xAD0 CALLDATASIZE PUSH1 0x4 PUSH2 0x7746 JUMP JUMPDEST PUSH2 0x4284 JUMP JUMPDEST PUSH2 0x708 PUSH2 0xAE3 CALLDATASIZE PUSH1 0x4 PUSH2 0x746C JUMP JUMPDEST PUSH2 0x42A8 JUMP JUMPDEST PUSH2 0x708 PUSH2 0x42DB JUMP JUMPDEST PUSH2 0x708 PUSH2 0x42E1 JUMP JUMPDEST PUSH2 0x750 PUSH2 0xB06 CALLDATASIZE PUSH1 0x4 PUSH2 0x7746 JUMP JUMPDEST PUSH2 0x42E7 JUMP JUMPDEST PUSH2 0x6EB PUSH2 0xB19 CALLDATASIZE PUSH1 0x4 PUSH2 0x779E JUMP JUMPDEST PUSH2 0x4349 JUMP JUMPDEST PUSH2 0x708 PUSH2 0x49AC JUMP JUMPDEST PUSH2 0x750 PUSH2 0xB34 CALLDATASIZE PUSH1 0x4 PUSH2 0x758B JUMP JUMPDEST PUSH2 0x49B2 JUMP JUMPDEST PUSH2 0x750 PUSH2 0xB47 CALLDATASIZE PUSH1 0x4 PUSH2 0x746C JUMP JUMPDEST PUSH2 0x4A18 JUMP JUMPDEST PUSH2 0x708 PUSH2 0x4A6B JUMP JUMPDEST PUSH2 0x76D PUSH2 0x4B20 JUMP JUMPDEST PUSH2 0x76D PUSH2 0xB6A CALLDATASIZE PUSH1 0x4 PUSH2 0x7746 JUMP JUMPDEST PUSH2 0x4B2F JUMP JUMPDEST PUSH2 0x750 PUSH2 0xB7D CALLDATASIZE PUSH1 0x4 PUSH2 0x7434 JUMP JUMPDEST PUSH2 0x4B3F JUMP JUMPDEST PUSH2 0x6C2 PUSH2 0xB90 CALLDATASIZE PUSH1 0x4 PUSH2 0x781B JUMP JUMPDEST PUSH2 0x4C0C JUMP JUMPDEST PUSH2 0x708 PUSH2 0xBA3 CALLDATASIZE PUSH1 0x4 PUSH2 0x7497 JUMP JUMPDEST PUSH2 0x4E13 JUMP JUMPDEST PUSH2 0x6C2 PUSH2 0xBB6 CALLDATASIZE PUSH1 0x4 PUSH2 0x781B JUMP JUMPDEST PUSH2 0x4EFF JUMP JUMPDEST PUSH2 0x6EB PUSH2 0xBC9 CALLDATASIZE PUSH1 0x4 PUSH2 0x7434 JUMP JUMPDEST PUSH2 0x5067 JUMP JUMPDEST PUSH2 0x708 PUSH2 0xBDC CALLDATASIZE PUSH1 0x4 PUSH2 0x7746 JUMP JUMPDEST PUSH2 0x50C8 JUMP JUMPDEST PUSH2 0x708 PUSH2 0xBEF CALLDATASIZE PUSH1 0x4 PUSH2 0x746C JUMP JUMPDEST PUSH2 0x5105 JUMP JUMPDEST PUSH2 0x750 PUSH2 0xC02 CALLDATASIZE PUSH1 0x4 PUSH2 0x776F JUMP JUMPDEST PUSH2 0x519A JUMP JUMPDEST PUSH2 0x750 PUSH2 0xC15 CALLDATASIZE PUSH1 0x4 PUSH2 0x746C JUMP JUMPDEST PUSH2 0x5275 JUMP JUMPDEST PUSH2 0x708 PUSH2 0x5295 JUMP JUMPDEST PUSH2 0x708 PUSH2 0x529B JUMP JUMPDEST PUSH2 0x905 PUSH2 0xC38 CALLDATASIZE PUSH1 0x4 PUSH2 0x7746 JUMP JUMPDEST PUSH2 0x52A1 JUMP JUMPDEST PUSH2 0x76D PUSH2 0xC4B CALLDATASIZE PUSH1 0x4 PUSH2 0x746C JUMP JUMPDEST PUSH2 0x54BE JUMP JUMPDEST PUSH2 0x76D PUSH2 0x54DA JUMP JUMPDEST PUSH2 0x708 PUSH2 0xC66 CALLDATASIZE PUSH1 0x4 PUSH2 0x776F JUMP JUMPDEST PUSH2 0x54E9 JUMP JUMPDEST PUSH2 0x708 PUSH2 0xC79 CALLDATASIZE PUSH1 0x4 PUSH2 0x746C JUMP JUMPDEST PUSH2 0x5506 JUMP JUMPDEST PUSH2 0x750 PUSH2 0xC8C CALLDATASIZE PUSH1 0x4 PUSH2 0x7746 JUMP JUMPDEST PUSH2 0x554B JUMP JUMPDEST PUSH2 0xCA4 PUSH2 0xC9F CALLDATASIZE PUSH1 0x4 PUSH2 0x7746 JUMP JUMPDEST PUSH2 0x5550 JUMP JUMPDEST PUSH1 0x40 MLOAD PUSH2 0x6CF SWAP2 SWAP1 PUSH2 0x8789 JUMP JUMPDEST PUSH2 0x6EB PUSH2 0x56D5 JUMP JUMPDEST PUSH2 0x6EB PUSH2 0xCC7 CALLDATASIZE PUSH1 0x4 PUSH2 0x7434 JUMP JUMPDEST PUSH2 0x5902 JUMP JUMPDEST PUSH2 0x76D PUSH2 0x5963 JUMP JUMPDEST PUSH2 0x6EB PUSH2 0xCE2 CALLDATASIZE PUSH1 0x4 PUSH2 0x7434 JUMP JUMPDEST PUSH2 0x5972 JUMP JUMPDEST PUSH2 0x6EB PUSH2 0xCF5 CALLDATASIZE PUSH1 0x4 PUSH2 0x7434 JUMP JUMPDEST PUSH2 0x59D3 JUMP JUMPDEST PUSH2 0x708 PUSH2 0x5A34 JUMP JUMPDEST PUSH2 0x6C2 PUSH2 0xD10 CALLDATASIZE PUSH1 0x4 PUSH2 0x7746 JUMP JUMPDEST PUSH2 0x5A47 JUMP JUMPDEST PUSH2 0x728 PUSH2 0xD23 CALLDATASIZE PUSH1 0x4 PUSH2 0x7746 JUMP JUMPDEST PUSH2 0x5AC0 JUMP JUMPDEST PUSH2 0x750 PUSH2 0xD36 CALLDATASIZE PUSH1 0x4 PUSH2 0x7434 JUMP JUMPDEST PUSH2 0x5B75 JUMP JUMPDEST PUSH2 0x6EB PUSH2 0xD49 CALLDATASIZE PUSH1 0x4 PUSH2 0x7746 JUMP JUMPDEST PUSH2 0x5B96 JUMP JUMPDEST PUSH2 0x708 PUSH2 0x5CDE JUMP JUMPDEST PUSH2 0x905 PUSH2 0xD64 CALLDATASIZE PUSH1 0x4 PUSH2 0x7746 JUMP JUMPDEST PUSH2 0x5CE4 JUMP JUMPDEST PUSH2 0x708 PUSH2 0x6079 JUMP JUMPDEST PUSH2 0x708 PUSH2 0x607F JUMP JUMPDEST PUSH2 0x6EB PUSH2 0xD87 CALLDATASIZE PUSH1 0x4 PUSH2 0x7434 JUMP JUMPDEST PUSH2 0x6085 JUMP JUMPDEST PUSH2 0x708 PUSH2 0xD9A CALLDATASIZE PUSH1 0x4 PUSH2 0x75EB JUMP JUMPDEST PUSH2 0x60F3 JUMP JUMPDEST PUSH2 0x708 PUSH2 0x6108 JUMP JUMPDEST PUSH2 0x6EB PUSH2 0x610E JUMP JUMPDEST PUSH2 0x750 PUSH2 0xDBD CALLDATASIZE PUSH1 0x4 PUSH2 0x7746 JUMP JUMPDEST PUSH2 0x65F3 JUMP JUMPDEST PUSH2 0x750 PUSH2 0x65FB JUMP JUMPDEST PUSH2 0x708 PUSH2 0x6614 JUMP JUMPDEST PUSH2 0x76D PUSH2 0x661A JUMP JUMPDEST PUSH2 0x708 PUSH2 0xDE8 CALLDATASIZE PUSH1 0x4 PUSH2 0x7434 JUMP JUMPDEST PUSH2 0x6629 JUMP JUMPDEST PUSH2 0x76D PUSH2 0x66D1 JUMP JUMPDEST PUSH1 0x60 PUSH2 0xE00 DUP3 PUSH2 0x65F3 JUMP JUMPDEST PUSH2 0xE25 JUMPI PUSH1 0x40 MLOAD PUSH3 0x461BCD PUSH1 0xE5 SHL DUP2 MSTORE PUSH1 0x4 ADD PUSH2 0xE1C SWAP1 PUSH2 0x8448 JUMP JUMPDEST PUSH1 0x40 MLOAD DUP1 SWAP2 SUB SWAP1 REVERT JUMPDEST PUSH1 0x0 DUP3 DUP2 MSTORE PUSH1 0xF PUSH1 0x20 SWAP1 DUP2 MSTORE PUSH1 0x40 DUP1 DUP4 KECCAK256 DUP1 SLOAD DUP3 MLOAD DUP2 DUP6 MUL DUP2 ADD DUP6 ADD SWAP1 SWAP4 MSTORE DUP1 DUP4 MSTORE SWAP2 SWAP3 SWAP1 SWAP2 SWAP1 DUP4 ADD DUP3 DUP3 DUP1 ISZERO PUSH2 0xE85 JUMPI PUSH1 0x20 MUL DUP3 ADD SWAP2 SWAP1 PUSH1 0x0 MSTORE PUSH1 0x20 PUSH1 0x0 KECCAK256 SWAP1 JUMPDEST DUP2 SLOAD PUSH1 0x1 PUSH1 0x1 PUSH1 0xA0 SHL SUB AND DUP2 MSTORE PUSH1 0x1 SWAP1 SWAP2 ADD SWAP1 PUSH1 0x20 ADD DUP1 DUP4 GT PUSH2 0xE67 JUMPI JUMPDEST POP POP POP POP POP SWAP1 POP PUSH1 0x0 DUP2 MLOAD PUSH1 0x1 PUSH1 0x1 PUSH1 0x40 SHL SUB DUP2 GT ISZERO PUSH2 0xEB5 JUMPI PUSH4 0x4E487B71 PUSH1 0xE0 SHL PUSH1 0x0 MSTORE PUSH1 0x41 PUSH1 0x4 MSTORE PUSH1 0x24 PUSH1 0x0 REVERT JUMPDEST PUSH1 0x40 MLOAD SWAP1 DUP1 DUP3 MSTORE DUP1 PUSH1 0x20 MUL PUSH1 0x20 ADD DUP3 ADD PUSH1 0x40 MSTORE DUP1 ISZERO PUSH2 0xEDE JUMPI DUP2 PUSH1 0x20 ADD PUSH1 0x20 DUP3 MUL DUP1 CALLDATASIZE DUP4 CALLDATACOPY ADD SWAP1 POP JUMPDEST POP SWAP1 POP PUSH1 0x0 JUMPDEST DUP3 MLOAD DUP2 LT ISZERO PUSH2 0xF88 JUMPI PUSH1 0x3 PUSH1 0x0 DUP7 DUP2 MSTORE PUSH1 0x20 ADD SWAP1 DUP2 MSTORE PUSH1 0x20 ADD PUSH1 0x0 KECCAK256 PUSH1 0x0 DUP5 DUP4 DUP2 MLOAD DUP2 LT PUSH2 0xF22 JUMPI PUSH4 0x4E487B71 PUSH1 0xE0 SHL PUSH1 0x0 MSTORE PUSH1 0x32 PUSH1 0x4 MSTORE PUSH1 0x24 PUSH1 0x0 REVERT JUMPDEST PUSH1 0x20 MUL PUSH1 0x20 ADD ADD MLOAD PUSH1 0x1 PUSH1 0x1 PUSH1 0xA0 SHL SUB AND PUSH1 0x1 PUSH1 0x1 PUSH1 0xA0 SHL SUB AND DUP2 MSTORE PUSH1 0x20 ADD SWAP1 DUP2 MSTORE PUSH1 0x20 ADD PUSH1 0x0 KECCAK256 SLOAD DUP3 DUP3 DUP2 MLOAD DUP2 LT PUSH2 0xF6B JUMPI PUSH4 0x4E487B71 PUSH1 0xE0 SHL PUSH1 0x0 MSTORE PUSH1 0x32 PUSH1 0x4 MSTORE PUSH1 0x24 PUSH1 0x0 REVERT JUMPDEST PUSH1 0x20 SWAP1 DUP2 MUL SWAP2 SWAP1 SWAP2 ADD ADD MSTORE DUP1 PUSH2 0xF80 DUP2 PUSH2 0x8B5B JUMP JUMPDEST SWAP2 POP POP PUSH2 0xEE4 JUMP JUMPDEST POP SWAP2 POP POP JUMPDEST SWAP2 SWAP1 POP JUMP JUMPDEST PUSH2 0xF9A PUSH2 0x66E0 JUMP JUMPDEST PUSH1 0x1 PUSH1 0x1 PUSH1 0xA0 SHL SUB AND PUSH2 0xFAB PUSH2 0x4035 JUMP JUMPDEST PUSH1 0x1 PUSH1 0x1 PUSH1 0xA0 SHL SUB AND EQ PUSH2 0xFD1 JUMPI PUSH1 0x40 MLOAD PUSH3 0x461BCD PUSH1 0xE5 SHL DUP2 MSTORE PUSH1 0x4 ADD PUSH2 0xE1C SWAP1 PUSH2 0x822D JUMP JUMPDEST PUSH1 0x22 DUP1 SLOAD PUSH1 0x1 PUSH1 0x1 PUSH1 0xA0 SHL SUB NOT AND PUSH1 0x1 PUSH1 0x1 PUSH1 0xA0 SHL SUB SWAP3 SWAP1 SWAP3 AND SWAP2 SWAP1 SWAP2 OR SWAP1 SSTORE JUMP JUMPDEST PUSH2 0xFFB PUSH2 0x66E0 JUMP JUMPDEST PUSH1 0x1 PUSH1 0x1 PUSH1 0xA0 SHL SUB AND PUSH2 0x100C PUSH2 0x4035 JUMP JUMPDEST PUSH1 0x1 PUSH1 0x1 PUSH1 0xA0 SHL SUB AND EQ PUSH2 0x1032 JUMPI PUSH1 0x40 MLOAD PUSH3 0x461BCD PUSH1 0xE5 SHL DUP2 MSTORE PUSH1 0x4 ADD PUSH2 0xE1C SWAP1 PUSH2 0x822D JUMP JUMPDEST PUSH1 0x26 DUP1 SLOAD PUSH1 0x1 PUSH1 0x1 PUSH1 0xA0 SHL SUB NOT AND PUSH1 0x1 PUSH1 0x1 PUSH1 0xA0 SHL SUB SWAP3 SWAP1 SWAP3 AND SWAP2 SWAP1 SWAP2 OR SWAP1 SSTORE JUMP JUMPDEST PUSH1 0x15 SLOAD DUP2 JUMP JUMPDEST PUSH1 0x7 PUSH1 0x20 SWAP1 DUP2 MSTORE PUSH1 0x0 SWAP3 DUP4 MSTORE PUSH1 0x40 DUP1 DUP5 KECCAK256 SWAP1 SWAP2 MSTORE SWAP1 DUP3 MSTORE SWAP1 KECCAK256 DUP1 SLOAD PUSH2 0x107E SWAP1 PUSH2 0x8B20 JUMP JUMPDEST DUP1 PUSH1 0x1F ADD PUSH1 0x20 DUP1 SWAP2 DIV MUL PUSH1 0x20 ADD PUSH1 0x40 MLOAD SWAP1 DUP2 ADD PUSH1 0x40 MSTORE DUP1 SWAP3 SWAP2 SWAP1 DUP2 DUP2 MSTORE PUSH1 0x20 ADD DUP3 DUP1 SLOAD PUSH2 0x10AA SWAP1 PUSH2 0x8B20 JUMP JUMPDEST DUP1 ISZERO PUSH2 0x10F7 JUMPI DUP1 PUSH1 0x1F LT PUSH2 0x10CC JUMPI PUSH2 0x100 DUP1 DUP4 SLOAD DIV MUL DUP4 MSTORE SWAP2 PUSH1 0x20 ADD SWAP2 PUSH2 0x10F7 JUMP JUMPDEST DUP3 ADD SWAP2 SWAP1 PUSH1 0x0 MSTORE PUSH1 0x20 PUSH1 0x0 KECCAK256 SWAP1 JUMPDEST DUP2 SLOAD DUP2 MSTORE SWAP1 PUSH1 0x1 ADD SWAP1 PUSH1 0x20 ADD DUP1 DUP4 GT PUSH2 0x10DA JUMPI DUP3 SWAP1 SUB PUSH1 0x1F AND DUP3 ADD SWAP2 JUMPDEST POP POP POP POP POP DUP2 JUMP JUMPDEST PUSH1 0x19 SLOAD SWAP1 JUMP JUMPDEST PUSH1 0x0 PUSH2 0x1110 DUP3 PUSH2 0x65F3 JUMP JUMPDEST PUSH2 0x112C JUMPI PUSH1 0x40 MLOAD PUSH3 0x461BCD PUSH1 0xE5 SHL DUP2 MSTORE PUSH1 0x4 ADD PUSH2 0xE1C SWAP1 PUSH2 0x8714 JUMP JUMPDEST PUSH1 0x0 DUP3 DUP2 MSTORE PUSH1 0xB PUSH1 0x20 MSTORE PUSH1 0x40 SWAP1 KECCAK256 PUSH1 0x7 ADD SLOAD PUSH2 0x1147 SWAP1 PUSH2 0x554B JUMP JUMPDEST SWAP3 SWAP2 POP POP JUMP JUMPDEST PUSH2 0x1155 PUSH2 0x66E4 JUMP JUMPDEST CALLER PUSH1 0x0 SWAP1 DUP2 MSTORE PUSH1 0xC PUSH1 0x20 MSTORE PUSH1 0x40 SWAP1 KECCAK256 PUSH1 0x5 DUP2 ADD SLOAD PUSH1 0xFF AND ISZERO ISZERO PUSH1 0x1 EQ PUSH2 0x118D JUMPI PUSH1 0x40 MLOAD PUSH3 0x461BCD PUSH1 0xE5 SHL DUP2 MSTORE PUSH1 0x4 ADD PUSH2 0xE1C SWAP1 PUSH2 0x81E1 JUMP JUMPDEST PUSH2 0x12C DUP2 PUSH1 0x6 ADD SLOAD TIMESTAMP PUSH2 0x11A0 SWAP2 SWAP1 PUSH2 0x8AD9 JUMP JUMPDEST LT PUSH2 0x11BD JUMPI PUSH1 0x40 MLOAD PUSH3 0x461BCD PUSH1 0xE5 SHL DUP2 MSTORE PUSH1 0x4 ADD PUSH2 0xE1C SWAP1 PUSH2 0x7E5C JUMP JUMPDEST PUSH1 0x1 DUP2 ADD SLOAD ISZERO DUP1 ISZERO SWAP1 PUSH2 0x11DA JUMPI POP PUSH1 0x5 DUP2 ADD SLOAD PUSH2 0x100 SWAP1 DIV PUSH1 0xFF AND ISZERO JUMPDEST ISZERO PUSH2 0x11F5 JUMPI PUSH1 0x5 DUP2 ADD DUP1 SLOAD PUSH2 0xFF00 NOT AND PUSH2 0x100 OR SWAP1 SSTORE PUSH2 0x1286 JUMP JUMPDEST PUSH1 0x1 DUP2 ADD SLOAD ISZERO PUSH2 0x1217 JUMPI PUSH1 0x40 MLOAD PUSH3 0x461BCD PUSH1 0xE5 SHL DUP2 MSTORE PUSH1 0x4 ADD PUSH2 0xE1C SWAP1 PUSH2 0x8127 JUMP JUMPDEST PUSH2 0x1220 CALLER PUSH2 0x686C JUMP JUMPDEST PUSH2 0x1229 CALLER PUSH2 0x69C4 JUMP JUMPDEST DUP1 SLOAD PUSH1 0x1 PUSH1 0x1 PUSH1 0xA0 SHL SUB NOT AND CALLER SWAP1 DUP2 OR DUP3 SSTORE TIMESTAMP PUSH1 0x4 DUP4 ADD DUP2 SWAP1 SSTORE PUSH1 0x5 DUP4 ADD DUP1 SLOAD PUSH1 0xFF NOT AND SWAP1 SSTORE PUSH1 0x40 MLOAD PUSH32 0x9DADCEDBA048E92B943EA1C5861CEE1DF63A566D7F795869C004780C1C698E2B SWAP2 PUSH2 0x127D SWAP2 PUSH2 0x799B JUMP JUMPDEST PUSH1 0x40 MLOAD DUP1 SWAP2 SUB SWAP1 LOG2 JUMPDEST PUSH1 0x1 PUSH1 0x1A PUSH1 0x0 DUP3 DUP3 SLOAD PUSH2 0x1299 SWAP2 SWAP1 PUSH2 0x8A8E JUMP JUMPDEST SWAP1 SWAP2 SSTORE POP POP POP JUMP JUMPDEST PUSH1 0x21 SLOAD PUSH1 0x1 PUSH1 0x1 PUSH1 0xA0 SHL SUB AND DUP2 JUMP JUMPDEST PUSH1 0x0 DUP1 PUSH2 0x12BC DUP6 PUSH2 0x184E JUMP JUMPDEST SWAP1 POP PUSH1 0x0 PUSH2 0x12CA DUP7 DUP4 PUSH2 0x5105 JUMP JUMPDEST SWAP1 POP JUMPDEST DUP2 ISZERO PUSH2 0x1442 JUMPI PUSH2 0x12DD DUP7 DUP4 PUSH2 0x5105 JUMP JUMPDEST SWAP1 POP DUP5 DUP2 GT PUSH2 0x139A JUMPI DUP4 DUP3 EQ ISZERO PUSH2 0x1392 JUMPI PUSH1 0x1 PUSH1 0x1 PUSH1 0xA0 SHL SUB DUP7 AND PUSH1 0x0 SWAP1 DUP2 MSTORE PUSH1 0x8 PUSH1 0x20 MSTORE PUSH1 0x40 SWAP1 DUP2 SWAP1 KECCAK256 SWAP1 MLOAD PUSH4 0x215E94CF PUSH1 0xE0 SHL DUP2 MSTORE PUSH20 0x0 SWAP2 PUSH4 0x215E94CF SWAP2 PUSH2 0x133F SWAP2 SWAP1 DUP7 SWAP1 PUSH1 0x4 ADD PUSH2 0x79C0 JUMP JUMPDEST PUSH1 0x20 PUSH1 0x40 MLOAD DUP1 DUP4 SUB DUP2 DUP7 DUP1 EXTCODESIZE ISZERO DUP1 ISZERO PUSH2 0x1357 JUMPI PUSH1 0x0 DUP1 REVERT JUMPDEST POP GAS DELEGATECALL ISZERO DUP1 ISZERO PUSH2 0x136B JUMPI RETURNDATASIZE PUSH1 0x0 DUP1 RETURNDATACOPY RETURNDATASIZE PUSH1 0x0 REVERT JUMPDEST POP POP POP POP PUSH1 0x40 MLOAD RETURNDATASIZE PUSH1 0x1F NOT PUSH1 0x1F DUP3 ADD AND DUP3 ADD DUP1 PUSH1 0x40 MSTORE POP DUP2 ADD SWAP1 PUSH2 0x138F SWAP2 SWAP1 PUSH2 0x775E JUMP JUMPDEST SWAP2 POP JUMPDEST POP SWAP1 POP PUSH2 0x1446 JUMP JUMPDEST PUSH1 0x1 PUSH1 0x1 PUSH1 0xA0 SHL SUB DUP7 AND PUSH1 0x0 SWAP1 DUP2 MSTORE PUSH1 0x8 PUSH1 0x20 MSTORE PUSH1 0x40 SWAP1 DUP2 SWAP1 KECCAK256 SWAP1 MLOAD PUSH4 0x215E94CF PUSH1 0xE0 SHL DUP2 MSTORE PUSH20 0x0 SWAP2 PUSH4 0x215E94CF SWAP2 PUSH2 0x13EB SWAP2 SWAP1 DUP7 SWAP1 PUSH1 0x4 ADD PUSH2 0x79C0 JUMP JUMPDEST PUSH1 0x20 PUSH1 0x40 MLOAD DUP1 DUP4 SUB DUP2 DUP7 DUP1 EXTCODESIZE ISZERO DUP1 ISZERO PUSH2 0x1403 JUMPI PUSH1 0x0 DUP1 REVERT JUMPDEST POP GAS DELEGATECALL ISZERO DUP1 ISZERO PUSH2 0x1417 JUMPI RETURNDATASIZE PUSH1 0x0 DUP1 RETURNDATACOPY RETURNDATASIZE PUSH1 0x0 REVERT JUMPDEST POP POP POP POP PUSH1 0x40 MLOAD RETURNDATASIZE PUSH1 0x1F NOT PUSH1 0x1F DUP3 ADD AND DUP3 ADD DUP1 PUSH1 0x40 MSTORE POP DUP2 ADD SWAP1 PUSH2 0x143B SWAP2 SWAP1 PUSH2 0x775E JUMP JUMPDEST SWAP2 POP PUSH2 0x12CD JUMP JUMPDEST POP SWAP1 POP JUMPDEST SWAP4 SWAP3 POP POP POP JUMP JUMPDEST PUSH1 0x1 PUSH1 0x20 SWAP1 DUP2 MSTORE PUSH1 0x0 SWAP3 DUP4 MSTORE PUSH1 0x40 DUP1 DUP5 KECCAK256 SWAP1 SWAP2 MSTORE SWAP1 DUP3 MSTORE SWAP1 KECCAK256 SLOAD PUSH1 0xFF AND DUP2 JUMP JUMPDEST PUSH1 0x4 PUSH1 0x20 SWAP1 DUP2 MSTORE PUSH1 0x0 SWAP3 DUP4 MSTORE PUSH1 0x40 DUP1 DUP5 KECCAK256 SWAP1 SWAP2 MSTORE SWAP1 DUP3 MSTORE SWAP1 KECCAK256 DUP1 SLOAD PUSH2 0x107E SWAP1 PUSH2 0x8B20 JUMP JUMPDEST PUSH1 0x11 DUP2 DUP2 SLOAD DUP2 LT PUSH2 0x14A1 JUMPI PUSH1 0x0 DUP1 REVERT JUMPDEST PUSH1 0x0 SWAP2 DUP3 MSTORE PUSH1 0x20 SWAP1 SWAP2 KECCAK256 ADD SLOAD PUSH1 0x1 PUSH1 0x1 PUSH1 0xA0 SHL SUB AND SWAP1 POP DUP2 JUMP JUMPDEST PUSH1 0xD PUSH1 0x20 MSTORE PUSH1 0x0 SWAP1 DUP2 MSTORE PUSH1 0x40 SWAP1 KECCAK256 SLOAD DUP2 JUMP JUMPDEST PUSH1 0x40 MLOAD PUSH1 0x0 SWAP1 DUP1 PUSH1 0x20 DUP2 DUP5 DUP1 PUSH1 0x18 GAS STATICCALL PUSH2 0x14E3 JUMPI INVALID JUMPDEST POP MLOAD SWAP2 SWAP1 POP JUMP JUMPDEST PUSH2 0x14F2 PUSH2 0x66E4 JUMP JUMPDEST PUSH2 0x14FB DUP5 PUSH2 0x18EE JUMP JUMPDEST PUSH2 0x1517 JUMPI PUSH1 0x40 MLOAD PUSH3 0x461BCD PUSH1 0xE5 SHL DUP2 MSTORE PUSH1 0x4 ADD PUSH2 0xE1C SWAP1 PUSH2 0x83BB JUMP JUMPDEST CALLER PUSH1 0x0 SWAP1 DUP2 MSTORE PUSH1 0x1 PUSH1 0x20 SWAP1 DUP2 MSTORE PUSH1 0x40 DUP1 DUP4 KECCAK256 DUP8 DUP5 MSTORE SWAP1 SWAP2 MSTORE SWAP1 KECCAK256 SLOAD PUSH1 0xFF AND PUSH2 0x1551 JUMPI PUSH1 0x40 MLOAD PUSH3 0x461BCD PUSH1 0xE5 SHL DUP2 MSTORE PUSH1 0x4 ADD PUSH2 0xE1C SWAP1 PUSH2 0x7F99 JUMP JUMPDEST CALLER PUSH1 0x0 SWAP1 DUP2 MSTORE PUSH1 0x2 PUSH1 0x20 SWAP1 DUP2 MSTORE PUSH1 0x40 DUP1 DUP4 KECCAK256 DUP8 DUP5 MSTORE SWAP1 SWAP2 MSTORE SWAP1 KECCAK256 SLOAD PUSH1 0xFF AND ISZERO PUSH2 0x158C JUMPI PUSH1 0x40 MLOAD PUSH3 0x461BCD PUSH1 0xE5 SHL DUP2 MSTORE PUSH1 0x4 ADD PUSH2 0xE1C SWAP1 PUSH2 0x873D JUMP JUMPDEST PUSH2 0x1596 CALLER DUP6 PUSH2 0x5506 JUMP JUMPDEST PUSH2 0x15A0 DUP4 DUP4 PUSH2 0x60F3 JUMP JUMPDEST EQ PUSH2 0x15BD JUMPI PUSH1 0x40 MLOAD PUSH3 0x461BCD PUSH1 0xE5 SHL DUP2 MSTORE PUSH1 0x4 ADD PUSH2 0xE1C SWAP1 PUSH2 0x82BF JUMP JUMPDEST PUSH1 0x0 PUSH2 0x15C9 CALLER DUP7 PUSH2 0x5105 JUMP JUMPDEST SWAP1 POP DUP4 PUSH1 0x1 EQ ISZERO PUSH2 0x1600 JUMPI PUSH1 0x0 DUP6 DUP2 MSTORE PUSH1 0xB PUSH1 0x20 MSTORE PUSH1 0x40 DUP2 KECCAK256 PUSH1 0x8 ADD DUP1 SLOAD DUP4 SWAP3 SWAP1 PUSH2 0x15F5 SWAP1 DUP5 SWAP1 PUSH2 0x8A8E JUMP JUMPDEST SWAP1 SWAP2 SSTORE POP PUSH2 0x1627 SWAP1 POP JUMP JUMPDEST PUSH1 0x0 DUP6 DUP2 MSTORE PUSH1 0xB PUSH1 0x20 MSTORE PUSH1 0x40 DUP2 KECCAK256 PUSH1 0x9 ADD DUP1 SLOAD DUP4 SWAP3 SWAP1 PUSH2 0x1621 SWAP1 DUP5 SWAP1 PUSH2 0x8A8E JUMP JUMPDEST SWAP1 SWAP2 SSTORE POP POP JUMPDEST CALLER PUSH1 0x0 SWAP1 DUP2 MSTORE PUSH1 0x8 PUSH1 0x20 MSTORE PUSH1 0x40 SWAP1 DUP2 SWAP1 KECCAK256 SWAP1 MLOAD PUSH4 0x4DAB4765 PUSH1 0xE0 SHL DUP2 MSTORE PUSH20 0x0 SWAP2 PUSH4 0x4DAB4765 SWAP2 PUSH2 0x166F SWAP2 SWAP1 DUP10 SWAP1 PUSH1 0x4 ADD PUSH2 0x79C0 JUMP JUMPDEST PUSH1 0x0 PUSH1 0x40 MLOAD DUP1 DUP4 SUB DUP2 DUP7 DUP1 EXTCODESIZE ISZERO DUP1 ISZERO PUSH2 0x1687 JUMPI PUSH1 0x0 DUP1 REVERT JUMPDEST POP GAS DELEGATECALL ISZERO DUP1 ISZERO PUSH2 0x169B JUMPI RETURNDATASIZE PUSH1 0x0 DUP1 RETURNDATACOPY RETURNDATASIZE PUSH1 0x0 REVERT JUMPDEST POP POP CALLER PUSH1 0x0 DUP2 DUP2 MSTORE PUSH1 0x2 PUSH1 0x20 SWAP1 DUP2 MSTORE PUSH1 0x40 DUP1 DUP4 KECCAK256 DUP12 DUP5 MSTORE DUP3 MSTORE DUP1 DUP4 KECCAK256 DUP1 SLOAD PUSH1 0xFF NOT AND PUSH1 0x1 OR SWAP1 SSTORE PUSH1 0x3 DUP3 MSTORE DUP1 DUP4 KECCAK256 DUP5 DUP5 MSTORE DUP3 MSTORE DUP1 DUP4 KECCAK256 DUP11 SWAP1 SSTORE DUP11 DUP4 MSTORE PUSH1 0x4 DUP3 MSTORE DUP1 DUP4 KECCAK256 SWAP4 DUP4 MSTORE SWAP3 DUP2 MSTORE SWAP2 SWAP1 KECCAK256 DUP7 MLOAD PUSH2 0x16FA SWAP5 POP SWAP1 SWAP3 POP SWAP1 DUP7 ADD SWAP1 PUSH2 0x71B5 JUMP JUMPDEST POP CALLER PUSH1 0x0 SWAP1 DUP2 MSTORE PUSH1 0xC PUSH1 0x20 SWAP1 DUP2 MSTORE PUSH1 0x40 DUP1 DUP4 KECCAK256 DUP9 DUP5 MSTORE PUSH1 0xB SWAP1 SWAP3 MSTORE SWAP1 SWAP2 KECCAK256 PUSH1 0x3 ADD SLOAD PUSH2 0x1727 SWAP1 PUSH1 0x1 PUSH2 0x6AF4 JUMP JUMPDEST PUSH1 0x0 DUP8 DUP2 MSTORE PUSH1 0xB PUSH1 0x20 MSTORE PUSH1 0x40 SWAP1 KECCAK256 PUSH1 0x3 ADD SSTORE PUSH1 0x2 DUP2 ADD DUP1 SLOAD PUSH1 0xFF NOT AND PUSH1 0x1 OR SWAP1 SSTORE TIMESTAMP PUSH1 0x4 DUP3 ADD SSTORE PUSH2 0x1757 CALLER PUSH2 0x69C4 JUMP JUMPDEST PUSH1 0x5 DUP2 ADD SLOAD PUSH1 0xFF AND ISZERO PUSH2 0x17B4 JUMPI PUSH2 0x176D CALLER PUSH2 0x6B00 JUMP JUMPDEST PUSH2 0x17B4 JUMPI PUSH1 0x11 DUP1 SLOAD PUSH1 0x1 DUP2 ADD DUP3 SSTORE PUSH1 0x0 SWAP2 SWAP1 SWAP2 MSTORE PUSH32 0x31ECC21A745E3968A04E9570E4425BC18FA8019C68028196B546D1669C200C68 ADD DUP1 SLOAD PUSH1 0x1 PUSH1 0x1 PUSH1 0xA0 SHL SUB NOT AND CALLER OR SWAP1 SSTORE JUMPDEST PUSH1 0x0 DUP7 DUP2 MSTORE PUSH1 0xB PUSH1 0x20 MSTORE PUSH1 0x40 SWAP1 KECCAK256 PUSH1 0x3 ADD SLOAD PUSH2 0x17D3 JUMPI PUSH2 0x17D3 DUP7 PUSH2 0x2C88 JUMP JUMPDEST PUSH1 0x1 PUSH1 0x1A PUSH1 0x0 DUP3 DUP3 SLOAD PUSH2 0x17E6 SWAP2 SWAP1 PUSH2 0x8A8E JUMP JUMPDEST SWAP1 SWAP2 SSTORE POP POP PUSH1 0x0 DUP7 DUP2 MSTORE PUSH1 0xB PUSH1 0x20 MSTORE PUSH1 0x40 SWAP1 DUP2 SWAP1 KECCAK256 PUSH1 0x8 DUP2 ADD SLOAD PUSH1 0x9 SWAP1 SWAP2 ADD SLOAD SWAP2 MLOAD CALLER SWAP3 DUP9 SWAP3 DUP11 SWAP3 PUSH32 0x2E5FBEEF18EAA8D8EA3B0122BC64445C4DAAA6F454DFB889456791A92287F378 SWAP3 PUSH2 0x183E SWAP3 DUP10 SWAP3 SWAP1 SWAP2 SWAP1 PUSH2 0x898C JUMP JUMPDEST PUSH1 0x40 MLOAD DUP1 SWAP2 SUB SWAP1 LOG4 POP POP POP POP POP POP JUMP JUMPDEST PUSH1 0x1 PUSH1 0x1 PUSH1 0xA0 SHL SUB DUP2 AND PUSH1 0x0 SWAP1 DUP2 MSTORE PUSH1 0x8 PUSH1 0x20 MSTORE PUSH1 0x40 DUP1 DUP3 KECCAK256 SWAP1 MLOAD PUSH4 0x215E94CF PUSH1 0xE0 SHL DUP2 MSTORE PUSH20 0x0 SWAP2 PUSH4 0x215E94CF SWAP2 PUSH2 0x189E SWAP2 SWAP1 DUP6 SWAP1 PUSH1 0x4 ADD PUSH2 0x79C0 JUMP JUMPDEST PUSH1 0x20 PUSH1 0x40 MLOAD DUP1 DUP4 SUB DUP2 DUP7 DUP1 EXTCODESIZE ISZERO DUP1 ISZERO PUSH2 0x18B6 JUMPI PUSH1 0x0 DUP1 REVERT JUMPDEST POP GAS DELEGATECALL ISZERO DUP1 ISZERO PUSH2 0x18CA JUMPI RETURNDATASIZE PUSH1 0x0 DUP1 RETURNDATACOPY RETURNDATASIZE PUSH1 0x0 REVERT JUMPDEST POP POP POP POP PUSH1 0x40 MLOAD RETURNDATASIZE PUSH1 0x1F NOT PUSH1 0x1F DUP3 ADD AND DUP3 ADD DUP1 PUSH1 0x40 MSTORE POP DUP2 ADD SWAP1 PUSH2 0x1147 SWAP2 SWAP1 PUSH2 0x775E JUMP JUMPDEST PUSH1 0x0 PUSH2 0x18F9 DUP3 PUSH2 0x65F3 JUMP JUMPDEST PUSH2 0x1915 JUMPI PUSH1 0x40 MLOAD PUSH3 0x461BCD PUSH1 0xE5 SHL DUP2 MSTORE PUSH1 0x4 ADD PUSH2 0xE1C SWAP1 PUSH2 0x8448 JUMP JUMPDEST PUSH1 0x0 DUP3 DUP2 MSTORE PUSH1 0xB PUSH1 0x20 MSTORE PUSH1 0x40 SWAP1 KECCAK256 PUSH1 0x7 ADD SLOAD PUSH2 0x1930 SWAP1 PUSH2 0x554B JUMP JUMPDEST ISZERO DUP1 ISZERO PUSH2 0x1147 JUMPI POP PUSH2 0x1941 DUP3 PUSH2 0x42E7 JUMP JUMPDEST ISZERO SWAP3 SWAP2 POP POP JUMP JUMPDEST PUSH2 0x1950 PUSH2 0x66E0 JUMP JUMPDEST PUSH1 0x1 PUSH1 0x1 PUSH1 0xA0 SHL SUB AND PUSH2 0x1961 PUSH2 0x4035 JUMP JUMPDEST PUSH1 0x1 PUSH1 0x1 PUSH1 0xA0 SHL SUB AND EQ PUSH2 0x1987 JUMPI PUSH1 0x40 MLOAD PUSH3 0x461BCD PUSH1 0xE5 SHL DUP2 MSTORE PUSH1 0x4 ADD PUSH2 0xE1C SWAP1 PUSH2 0x822D JUMP JUMPDEST PUSH1 0x0 DUP2 DUP2 MSTORE PUSH1 0x10 PUSH1 0x20 MSTORE PUSH1 0x40 SWAP1 KECCAK256 SLOAD PUSH1 0xFF AND ISZERO PUSH2 0x19B5 JUMPI PUSH1 0x0 DUP2 DUP2 MSTORE PUSH1 0x10 PUSH1 0x20 MSTORE PUSH1 0x40 SWAP1 KECCAK256 DUP1 SLOAD PUSH1 0xFF NOT AND SWAP1 SSTORE JUMPDEST POP JUMP JUMPDEST PUSH2 0x19C0 PUSH2 0x66E0 JUMP JUMPDEST PUSH1 0x1 PUSH1 0x1 PUSH1 0xA0 SHL SUB AND PUSH2 0x19D1 PUSH2 0x4035 JUMP JUMPDEST PUSH1 0x1 PUSH1 0x1 PUSH1 0xA0 SHL SUB AND EQ PUSH2 0x19F7 JUMPI PUSH1 0x40 MLOAD PUSH3 0x461BCD PUSH1 0xE5 SHL DUP2 MSTORE PUSH1 0x4 ADD PUSH2 0xE1C SWAP1 PUSH2 0x822D JUMP JUMPDEST PUSH1 0x25 DUP1 SLOAD PUSH1 0x1 PUSH1 0x1 PUSH1 0xA0 SHL SUB NOT AND PUSH1 0x1 PUSH1 0x1 PUSH1 0xA0 SHL SUB SWAP3 SWAP1 SWAP3 AND SWAP2 SWAP1 SWAP2 OR SWAP1 SSTORE JUMP JUMPDEST PUSH1 0x18 SLOAD SWAP1 JUMP JUMPDEST PUSH1 0x24 SLOAD PUSH1 0x1 PUSH1 0x1 PUSH1 0xA0 SHL SUB AND ISZERO DUP1 ISZERO SWAP1 PUSH2 0x1A48 JUMPI POP PUSH1 0x0 DUP2 DUP2 MSTORE PUSH1 0x10 PUSH1 0x20 MSTORE PUSH1 0x40 SWAP1 KECCAK256 SLOAD PUSH1 0xFF AND ISZERO JUMPDEST ISZERO PUSH2 0x1286 JUMPI PUSH1 0x24 SLOAD PUSH1 0x40 MLOAD PUSH4 0x7B90EF25 PUSH1 0xE1 SHL DUP2 MSTORE PUSH1 0x1 PUSH1 0x1 PUSH1 0xA0 SHL SUB SWAP1 SWAP2 AND SWAP1 PUSH4 0xF721DE4A SWAP1 PUSH2 0x1A7D SWAP1 DUP5 SWAP1 PUSH1 0x4 ADD PUSH2 0x799B JUMP JUMPDEST PUSH1 0x20 PUSH1 0x40 MLOAD DUP1 DUP4 SUB DUP2 PUSH1 0x0 DUP8 DUP1 EXTCODESIZE ISZERO DUP1 ISZERO PUSH2 0x1A97 JUMPI PUSH1 0x0 DUP1 REVERT JUMPDEST POP GAS CALL ISZERO DUP1 ISZERO PUSH2 0x1AAB JUMPI RETURNDATASIZE PUSH1 0x0 DUP1 RETURNDATACOPY RETURNDATASIZE PUSH1 0x0 REVERT JUMPDEST POP POP POP POP PUSH1 0x40 MLOAD RETURNDATASIZE PUSH1 0x1F NOT PUSH1 0x1F DUP3 ADD AND DUP3 ADD DUP1 PUSH1 0x40 MSTORE POP DUP2 ADD SWAP1 PUSH2 0x1ACF SWAP2 SWAP1 PUSH2 0x7571 JUMP JUMPDEST ISZERO PUSH2 0x1286 JUMPI PUSH1 0x24 SLOAD PUSH1 0x40 MLOAD PUSH4 0x1B308BF7 PUSH1 0xE3 SHL DUP2 MSTORE PUSH1 0x0 SWAP2 PUSH1 0x1 PUSH1 0x1 PUSH1 0xA0 SHL SUB AND SWAP1 PUSH4 0xD9845FB8 SWAP1 PUSH2 0x1B05 SWAP1 DUP6 SWAP1 PUSH1 0x4 ADD PUSH2 0x799B JUMP JUMPDEST PUSH1 0x0 PUSH1 0x40 MLOAD DUP1 DUP4 SUB DUP2 PUSH1 0x0 DUP8 DUP1 EXTCODESIZE ISZERO DUP1 ISZERO PUSH2 0x1B1F JUMPI PUSH1 0x0 DUP1 REVERT JUMPDEST POP GAS CALL ISZERO DUP1 ISZERO PUSH2 0x1B33 JUMPI RETURNDATASIZE PUSH1 0x0 DUP1 RETURNDATACOPY RETURNDATASIZE PUSH1 0x0 REVERT JUMPDEST POP POP POP POP PUSH1 0x40 MLOAD RETURNDATASIZE PUSH1 0x0 DUP3 RETURNDATACOPY PUSH1 0x1F RETURNDATASIZE SWAP1 DUP2 ADD PUSH1 0x1F NOT AND DUP3 ADD PUSH1 0x40 MSTORE PUSH2 0x1B5B SWAP2 SWAP1 DUP2 ADD SWAP1 PUSH2 0x762D JUMP JUMPDEST PUSH2 0x1A0 DUP2 ADD MLOAD SWAP1 SWAP2 POP PUSH1 0x1 DUP2 PUSH1 0x3 DUP2 GT ISZERO PUSH2 0x1B86 JUMPI PUSH4 0x4E487B71 PUSH1 0xE0 SHL PUSH1 0x0 MSTORE PUSH1 0x21 PUSH1 0x4 MSTORE PUSH1 0x24 PUSH1 0x0 REVERT JUMPDEST EQ ISZERO PUSH2 0x1E28 JUMPI PUSH1 0x40 DUP1 MLOAD PUSH1 0x80 DUP2 ADD DUP3 MSTORE PUSH2 0x160 DUP5 ADD MLOAD DUP2 MSTORE CALLER PUSH1 0x20 DUP1 DUP4 ADD SWAP2 SWAP1 SWAP2 MSTORE TIMESTAMP DUP3 DUP5 ADD MSTORE PUSH1 0x0 PUSH1 0x60 DUP4 ADD DUP2 SWAP1 MSTORE PUSH1 0x15 SLOAD DUP2 MSTORE PUSH1 0xA DUP3 MSTORE SWAP3 SWAP1 SWAP3 KECCAK256 DUP2 MLOAD DUP1 MLOAD SWAP3 SWAP4 SWAP2 SWAP3 PUSH2 0x1BD8 SWAP3 DUP5 SWAP3 ADD SWAP1 PUSH2 0x71B5 JUMP JUMPDEST POP PUSH1 0x20 DUP3 ADD MLOAD PUSH1 0x1 DUP3 DUP2 ADD DUP1 SLOAD PUSH1 0x1 PUSH1 0x1 PUSH1 0xA0 SHL SUB NOT AND PUSH1 0x1 PUSH1 0x1 PUSH1 0xA0 SHL SUB SWAP1 SWAP4 AND SWAP3 SWAP1 SWAP3 OR SWAP1 SWAP2 SSTORE PUSH1 0x40 DUP4 ADD MLOAD PUSH1 0x2 DUP4 ADD SSTORE PUSH1 0x60 DUP4 ADD MLOAD PUSH1 0x3 DUP1 DUP5 ADD DUP1 SLOAD SWAP3 SWAP4 SWAP1 SWAP3 PUSH1 0xFF NOT AND SWAP2 DUP5 SWAP1 DUP2 GT ISZERO PUSH2 0x1C3F JUMPI PUSH4 0x4E487B71 PUSH1 0xE0 SHL PUSH1 0x0 MSTORE PUSH1 0x21 PUSH1 0x4 MSTORE PUSH1 0x24 PUSH1 0x0 REVERT JUMPDEST MUL OR SWAP1 SSTORE POP POP PUSH1 0x17 SLOAD PUSH1 0x0 SWAP1 DUP2 MSTORE PUSH1 0xB PUSH1 0x20 SWAP1 DUP2 MSTORE PUSH1 0x40 SWAP2 DUP3 SWAP1 KECCAK256 PUSH1 0x26 SLOAD DUP4 MLOAD PUSH4 0x57716B7F PUSH1 0xE0 SHL DUP2 MSTORE SWAP4 MLOAD SWAP2 SWAP5 POP PUSH1 0x1 PUSH1 0x1 PUSH1 0xA0 SHL SUB AND SWAP3 PUSH4 0x57716B7F SWAP3 PUSH1 0x4 DUP1 DUP4 ADD SWAP4 SWAP2 SWAP3 DUP3 SWAP1 SUB ADD DUP2 DUP7 DUP1 EXTCODESIZE ISZERO DUP1 ISZERO PUSH2 0x1C9A JUMPI PUSH1 0x0 DUP1 REVERT JUMPDEST POP GAS STATICCALL ISZERO DUP1 ISZERO PUSH2 0x1CAE JUMPI RETURNDATASIZE PUSH1 0x0 DUP1 RETURNDATACOPY RETURNDATASIZE PUSH1 0x0 REVERT JUMPDEST POP POP POP POP PUSH1 0x40 MLOAD RETURNDATASIZE PUSH1 0x1F NOT PUSH1 0x1F DUP3 ADD AND DUP3 ADD DUP1 PUSH1 0x40 MSTORE POP DUP2 ADD SWAP1 PUSH2 0x1CD2 SWAP2 SWAP1 PUSH2 0x775E JUMP JUMPDEST DUP2 PUSH1 0x1 ADD SLOAD LT ISZERO PUSH2 0x1CF8 JUMPI PUSH1 0x1 DUP2 PUSH1 0x1 ADD PUSH1 0x0 DUP3 DUP3 SLOAD PUSH2 0x1CF2 SWAP2 SWAP1 PUSH2 0x8A8E JUMP JUMPDEST SWAP1 SWAP2 SSTORE POP POP JUMPDEST PUSH1 0x26 PUSH1 0x0 SWAP1 SLOAD SWAP1 PUSH2 0x100 EXP SWAP1 DIV PUSH1 0x1 PUSH1 0x1 PUSH1 0xA0 SHL SUB AND PUSH1 0x1 PUSH1 0x1 PUSH1 0xA0 SHL SUB AND PUSH4 0x57716B7F PUSH1 0x40 MLOAD DUP2 PUSH4 0xFFFFFFFF AND PUSH1 0xE0 SHL DUP2 MSTORE PUSH1 0x4 ADD PUSH1 0x20 PUSH1 0x40 MLOAD DUP1 DUP4 SUB DUP2 DUP7 DUP1 EXTCODESIZE ISZERO DUP1 ISZERO PUSH2 0x1D46 JUMPI PUSH1 0x0 DUP1 REVERT JUMPDEST POP GAS STATICCALL ISZERO DUP1 ISZERO PUSH2 0x1D5A JUMPI RETURNDATASIZE PUSH1 0x0 DUP1 RETURNDATACOPY RETURNDATASIZE PUSH1 0x0 REVERT JUMPDEST POP POP POP POP PUSH1 0x40 MLOAD RETURNDATASIZE PUSH1 0x1F NOT PUSH1 0x1F DUP3 ADD AND DUP3 ADD DUP1 PUSH1 0x40 MSTORE POP DUP2 ADD SWAP1 PUSH2 0x1D7E SWAP2 SWAP1 PUSH2 0x775E JUMP JUMPDEST DUP2 PUSH1 0x1 ADD SLOAD LT PUSH2 0x1DCD JUMPI PUSH1 0x5 DUP2 ADD DUP1 SLOAD PUSH1 0x1 PUSH1 0xFF NOT SWAP1 SWAP2 AND DUP2 OR PUSH2 0xFF00 NOT AND SWAP1 SWAP2 SSTORE PUSH1 0x17 DUP1 SLOAD PUSH1 0x0 SWAP1 PUSH2 0x1DB2 SWAP1 DUP5 SWAP1 PUSH2 0x8A8E JUMP JUMPDEST SWAP1 SWAP2 SSTORE POP POP PUSH1 0x15 SLOAD PUSH1 0x17 SLOAD PUSH1 0x0 SWAP1 DUP2 MSTORE PUSH1 0xB PUSH1 0x20 MSTORE PUSH1 0x40 SWAP1 KECCAK256 SSTORE JUMPDEST PUSH2 0x1DD5 PUSH2 0x56D5 JUMP JUMPDEST PUSH1 0x15 SLOAD PUSH2 0x1DE3 SWAP1 PUSH1 0x1 PUSH2 0x8A8E JUMP JUMPDEST PUSH1 0x15 DUP2 SWAP1 SSTORE PUSH2 0x160 DUP5 ADD MLOAD PUSH1 0x40 MLOAD PUSH32 0xE72EE44AD0ED1DFC338F7EEC797C944EB218773C1EDBB4BB653DD9C1E2A62304 SWAP2 PUSH2 0x1E1E SWAP2 CALLER SWAP1 PUSH2 0x7AF8 JUMP JUMPDEST PUSH1 0x40 MLOAD DUP1 SWAP2 SUB SWAP1 LOG2 POP JUMPDEST POP POP PUSH1 0x0 DUP2 DUP2 MSTORE PUSH1 0x10 PUSH1 0x20 MSTORE PUSH1 0x40 SWAP1 KECCAK256 DUP1 SLOAD PUSH1 0xFF NOT AND PUSH1 0x1 OR SWAP1 SSTORE PUSH1 0x1 PUSH1 0x1A PUSH1 0x0 DUP3 DUP3 SLOAD PUSH2 0x1299 SWAP2 SWAP1 PUSH2 0x8A8E JUMP JUMPDEST PUSH1 0x1D SLOAD DUP2 JUMP JUMPDEST PUSH1 0x0 DUP2 DUP2 MSTORE PUSH1 0xB PUSH1 0x20 SWAP1 DUP2 MSTORE PUSH1 0x40 DUP1 DUP4 KECCAK256 DUP2 MLOAD PUSH2 0x1C0 DUP2 ADD DUP4 MSTORE DUP2 SLOAD DUP2 MSTORE PUSH1 0x1 DUP3 ADD SLOAD SWAP4 DUP2 ADD SWAP4 SWAP1 SWAP4 MSTORE PUSH1 0x2 DUP2 ADD SLOAD SWAP2 DUP4 ADD SWAP2 SWAP1 SWAP2 MSTORE PUSH1 0x3 DUP2 ADD SLOAD PUSH1 0x60 DUP4 ADD MSTORE PUSH1 0x4 DUP2 ADD SLOAD PUSH1 0x80 DUP4 ADD MSTORE PUSH1 0x5 DUP2 ADD SLOAD PUSH1 0xFF DUP1 DUP3 AND ISZERO ISZERO PUSH1 0xA0 DUP6 ADD MSTORE PUSH2 0x100 DUP1 DUP4 DIV DUP3 AND ISZERO ISZERO PUSH1 0xC0 DUP7 ADD MSTORE PUSH3 0x10000 SWAP1 SWAP3 DIV AND ISZERO ISZERO PUSH1 0xE0 DUP5 ADD MSTORE PUSH1 0x6 DUP3 ADD SLOAD SWAP1 DUP4 ADD MSTORE PUSH1 0x7 DUP2 ADD SLOAD PUSH2 0x120 DUP4 ADD MSTORE PUSH1 0x8 DUP2 ADD SLOAD PUSH2 0x140 DUP4 ADD MSTORE PUSH1 0x9 DUP2 ADD SLOAD PUSH2 0x160 DUP4 ADD MSTORE PUSH1 0xA DUP2 ADD DUP1 SLOAD DUP5 SWAP4 SWAP3 SWAP2 PUSH2 0x180 DUP5 ADD SWAP2 PUSH2 0x1F18 SWAP1 PUSH2 0x8B20 JUMP JUMPDEST DUP1 PUSH1 0x1F ADD PUSH1 0x20 DUP1 SWAP2 DIV MUL PUSH1 0x20 ADD PUSH1 0x40 MLOAD SWAP1 DUP2 ADD PUSH1 0x40 MSTORE DUP1 SWAP3 SWAP2 SWAP1 DUP2 DUP2 MSTORE PUSH1 0x20 ADD DUP3 DUP1 SLOAD PUSH2 0x1F44 SWAP1 PUSH2 0x8B20 JUMP JUMPDEST DUP1 ISZERO PUSH2 0x1F91 JUMPI DUP1 PUSH1 0x1F LT PUSH2 0x1F66 JUMPI PUSH2 0x100 DUP1 DUP4 SLOAD DIV MUL DUP4 MSTORE SWAP2 PUSH1 0x20 ADD SWAP2 PUSH2 0x1F91 JUMP JUMPDEST DUP3 ADD SWAP2 SWAP1 PUSH1 0x0 MSTORE PUSH1 0x20 PUSH1 0x0 KECCAK256 SWAP1 JUMPDEST DUP2 SLOAD DUP2 MSTORE SWAP1 PUSH1 0x1 ADD SWAP1 PUSH1 0x20 ADD DUP1 DUP4 GT PUSH2 0x1F74 JUMPI DUP3 SWAP1 SUB PUSH1 0x1F AND DUP3 ADD SWAP2 JUMPDEST POP POP POP SWAP2 DUP4 MSTORE POP POP PUSH1 0xB DUP3 ADD SLOAD PUSH1 0x20 SWAP1 SWAP2 ADD SWAP1 PUSH1 0xFF AND PUSH1 0x3 DUP2 GT ISZERO PUSH2 0x1FC6 JUMPI PUSH4 0x4E487B71 PUSH1 0xE0 SHL PUSH1 0x0 MSTORE PUSH1 0x21 PUSH1 0x4 MSTORE PUSH1 0x24 PUSH1 0x0 REVERT JUMPDEST PUSH1 0x3 DUP2 GT ISZERO PUSH2 0x1FE5 JUMPI PUSH4 0x4E487B71 PUSH1 0xE0 SHL PUSH1 0x0 MSTORE PUSH1 0x21 PUSH1 0x4 MSTORE PUSH1 0x24 PUSH1 0x0 REVERT JUMPDEST SWAP1 MSTORE POP PUSH2 0x160 DUP2 ADD MLOAD PUSH2 0x140 DUP3 ADD MLOAD SWAP2 SWAP3 POP PUSH2 0x2000 SWAP2 PUSH2 0x8A8E JUMP JUMPDEST PUSH1 0x26 PUSH1 0x0 SWAP1 SLOAD SWAP1 PUSH2 0x100 EXP SWAP1 DIV PUSH1 0x1 PUSH1 0x1 PUSH1 0xA0 SHL SUB AND PUSH1 0x1 PUSH1 0x1 PUSH1 0xA0 SHL SUB AND PUSH4 0xEA19733C PUSH1 0x40 MLOAD DUP2 PUSH4 0xFFFFFFFF AND PUSH1 0xE0 SHL DUP2 MSTORE PUSH1 0x4 ADD PUSH1 0x20 PUSH1 0x40 MLOAD DUP1 DUP4 SUB DUP2 DUP7 DUP1 EXTCODESIZE ISZERO DUP1 ISZERO PUSH2 0x204E JUMPI PUSH1 0x0 DUP1 REVERT JUMPDEST POP GAS STATICCALL ISZERO DUP1 ISZERO PUSH2 0x2062 JUMPI RETURNDATASIZE PUSH1 0x0 DUP1 RETURNDATACOPY RETURNDATASIZE PUSH1 0x0 REVERT JUMPDEST POP POP POP POP PUSH1 0x40 MLOAD RETURNDATASIZE PUSH1 0x1F NOT PUSH1 0x1F DUP3 ADD AND DUP3 ADD DUP1 PUSH1 0x40 MSTORE POP DUP2 ADD SWAP1 PUSH2 0x2086 SWAP2 SWAP1 PUSH2 0x775E JUMP JUMPDEST PUSH2 0x2090 SWAP2 SWAP1 PUSH2 0x8ABA JUMP JUMPDEST PUSH2 0x140 DUP3 ADD MLOAD PUSH2 0x20A1 SWAP1 PUSH1 0x64 PUSH2 0x8ABA JUMP JUMPDEST GT SWAP4 SWAP3 POP POP POP JUMP JUMPDEST PUSH1 0x10 PUSH1 0x20 MSTORE PUSH1 0x0 SWAP1 DUP2 MSTORE PUSH1 0x40 SWAP1 KECCAK256 SLOAD PUSH1 0xFF AND DUP2 JUMP JUMPDEST PUSH2 0x20C6 PUSH2 0x66E0 JUMP JUMPDEST PUSH1 0x1 PUSH1 0x1 PUSH1 0xA0 SHL SUB AND PUSH2 0x20D7 PUSH2 0x4035 JUMP JUMPDEST PUSH1 0x1 PUSH1 0x1 PUSH1 0xA0 SHL SUB AND EQ PUSH2 0x20FD JUMPI PUSH1 0x40 MLOAD PUSH3 0x461BCD PUSH1 0xE5 SHL DUP2 MSTORE PUSH1 0x4 ADD PUSH2 0xE1C SWAP1 PUSH2 0x822D JUMP JUMPDEST PUSH1 0x14 DUP1 SLOAD PUSH1 0x1 PUSH1 0x1 PUSH1 0xA0 SHL SUB NOT AND PUSH1 0x1 PUSH1 0x1 PUSH1 0xA0 SHL SUB SWAP3 SWAP1 SWAP3 AND SWAP2 SWAP1 SWAP2 OR SWAP1 SSTORE JUMP JUMPDEST PUSH2 0x2127 PUSH2 0x66E0 JUMP JUMPDEST PUSH1 0x1 PUSH1 0x1 PUSH1 0xA0 SHL SUB AND PUSH2 0x2138 PUSH2 0x4035 JUMP JUMPDEST PUSH1 0x1 PUSH1 0x1 PUSH1 0xA0 SHL SUB AND EQ PUSH2 0x215E JUMPI PUSH1 0x40 MLOAD PUSH3 0x461BCD PUSH1 0xE5 SHL DUP2 MSTORE PUSH1 0x4 ADD PUSH2 0xE1C SWAP1 PUSH2 0x822D JUMP JUMPDEST PUSH1 0x0 DUP2 DUP2 MSTORE PUSH1 0xA PUSH1 0x20 MSTORE PUSH1 0x40 DUP2 KECCAK256 SWAP1 PUSH2 0x2177 DUP3 DUP3 PUSH2 0x7239 JUMP JUMPDEST POP PUSH1 0x1 DUP2 ADD DUP1 SLOAD PUSH1 0x1 PUSH1 0x1 PUSH1 0xA0 SHL SUB NOT AND SWAP1 SSTORE PUSH1 0x0 PUSH1 0x2 DUP3 ADD SSTORE PUSH1 0x3 ADD DUP1 SLOAD PUSH1 0xFF NOT AND SWAP1 SSTORE POP JUMP JUMPDEST PUSH1 0x17 SLOAD SWAP1 JUMP JUMPDEST PUSH1 0x22 SLOAD PUSH1 0x1 PUSH1 0x1 PUSH1 0xA0 SHL SUB AND DUP2 JUMP JUMPDEST PUSH2 0x21BC PUSH2 0x7275 JUMP JUMPDEST PUSH1 0x0 DUP3 DUP2 MSTORE PUSH1 0xA PUSH1 0x20 MSTORE PUSH1 0x40 SWAP1 DUP2 SWAP1 KECCAK256 DUP2 MLOAD PUSH1 0x80 DUP2 ADD SWAP1 SWAP3 MSTORE DUP1 SLOAD DUP3 SWAP1 DUP3 SWAP1 PUSH2 0x21E4 SWAP1 PUSH2 0x8B20 JUMP JUMPDEST DUP1 PUSH1 0x1F ADD PUSH1 0x20 DUP1 SWAP2 DIV MUL PUSH1 0x20 ADD PUSH1 0x40 MLOAD SWAP1 DUP2 ADD PUSH1 0x40 MSTORE DUP1 SWAP3 SWAP2 SWAP1 DUP2 DUP2 MSTORE PUSH1 0x20 ADD DUP3 DUP1 SLOAD PUSH2 0x2210 SWAP1 PUSH2 0x8B20 JUMP JUMPDEST DUP1 ISZERO PUSH2 0x225D JUMPI DUP1 PUSH1 0x1F LT PUSH2 0x2232 JUMPI PUSH2 0x100 DUP1 DUP4 SLOAD DIV MUL DUP4 MSTORE SWAP2 PUSH1 0x20 ADD SWAP2 PUSH2 0x225D JUMP JUMPDEST DUP3 ADD SWAP2 SWAP1 PUSH1 0x0 MSTORE PUSH1 0x20 PUSH1 0x0 KECCAK256 SWAP1 JUMPDEST DUP2 SLOAD DUP2 MSTORE SWAP1 PUSH1 0x1 ADD SWAP1 PUSH1 0x20 ADD DUP1 DUP4 GT PUSH2 0x2240 JUMPI DUP3 SWAP1 SUB PUSH1 0x1F AND DUP3 ADD SWAP2 JUMPDEST POP POP POP SWAP2 DUP4 MSTORE POP POP PUSH1 0x1 DUP3 ADD SLOAD PUSH1 0x1 PUSH1 0x1 PUSH1 0xA0 SHL SUB AND PUSH1 0x20 DUP3 ADD MSTORE PUSH1 0x2 DUP3 ADD SLOAD PUSH1 0x40 DUP3 ADD MSTORE PUSH1 0x3 DUP1 DUP4 ADD SLOAD PUSH1 0x60 SWAP1 SWAP3 ADD SWAP2 PUSH1 0xFF AND SWAP1 DUP2 GT ISZERO PUSH2 0x22AF JUMPI PUSH4 0x4E487B71 PUSH1 0xE0 SHL PUSH1 0x0 MSTORE PUSH1 0x21 PUSH1 0x4 MSTORE PUSH1 0x24 PUSH1 0x0 REVERT JUMPDEST PUSH1 0x3 DUP2 GT ISZERO PUSH2 0x22CE JUMPI PUSH4 0x4E487B71 PUSH1 0xE0 SHL PUSH1 0x0 MSTORE PUSH1 0x21 PUSH1 0x4 MSTORE PUSH1 0x24 PUSH1 0x0 REVERT JUMPDEST SWAP1 MSTORE POP SWAP3 SWAP2 POP POP JUMP JUMPDEST PUSH1 0x5 PUSH1 0x20 SWAP1 DUP2 MSTORE PUSH1 0x0 SWAP3 DUP4 MSTORE PUSH1 0x40 DUP1 DUP5 KECCAK256 SWAP1 SWAP2 MSTORE SWAP1 DUP3 MSTORE SWAP1 KECCAK256 SLOAD DUP2 JUMP JUMPDEST PUSH1 0x60 PUSH2 0x22FF DUP3 PUSH2 0x65F3 JUMP JUMPDEST PUSH2 0x231B JUMPI PUSH1 0x40 MLOAD PUSH3 0x461BCD PUSH1 0xE5 SHL DUP2 MSTORE PUSH1 0x4 ADD PUSH2 0xE1C SWAP1 PUSH2 0x8448 JUMP JUMPDEST PUSH1 0x0 DUP3 DUP2 MSTORE PUSH1 0xF PUSH1 0x20 SWAP1 DUP2 MSTORE PUSH1 0x40 DUP1 DUP4 KECCAK256 DUP1 SLOAD DUP3 MLOAD DUP2 DUP6 MUL DUP2 ADD DUP6 ADD SWAP1 SWAP4 MSTORE DUP1 DUP4 MSTORE SWAP2 SWAP3 SWAP1 SWAP2 SWAP1 DUP4 ADD DUP3 DUP3 DUP1 ISZERO PUSH2 0x237B JUMPI PUSH1 0x20 MUL DUP3 ADD SWAP2 SWAP1 PUSH1 0x0 MSTORE PUSH1 0x20 PUSH1 0x0 KECCAK256 SWAP1 JUMPDEST DUP2 SLOAD PUSH1 0x1 PUSH1 0x1 PUSH1 0xA0 SHL SUB AND DUP2 MSTORE PUSH1 0x1 SWAP1 SWAP2 ADD SWAP1 PUSH1 0x20 ADD DUP1 DUP4 GT PUSH2 0x235D JUMPI JUMPDEST POP POP POP POP POP SWAP1 POP PUSH1 0x0 DUP2 MLOAD PUSH1 0x1 PUSH1 0x1 PUSH1 0x40 SHL SUB DUP2 GT ISZERO PUSH2 0x23AB JUMPI PUSH4 0x4E487B71 PUSH1 0xE0 SHL PUSH1 0x0 MSTORE PUSH1 0x41 PUSH1 0x4 MSTORE PUSH1 0x24 PUSH1 0x0 REVERT JUMPDEST PUSH1 0x40 MLOAD SWAP1 DUP1 DUP3 MSTORE DUP1 PUSH1 0x20 MUL PUSH1 0x20 ADD DUP3 ADD PUSH1 0x40 MSTORE DUP1 ISZERO PUSH2 0x23DE JUMPI DUP2 PUSH1 0x20 ADD JUMPDEST PUSH1 0x60 DUP2 MSTORE PUSH1 0x20 ADD SWAP1 PUSH1 0x1 SWAP1 SUB SWAP1 DUP2 PUSH2 0x23C9 JUMPI SWAP1 POP JUMPDEST POP SWAP1 POP PUSH1 0x0 JUMPDEST DUP3 MLOAD DUP2 LT ISZERO PUSH2 0xF88 JUMPI PUSH1 0x6 PUSH1 0x0 DUP7 DUP2 MSTORE PUSH1 0x20 ADD SWAP1 DUP2 MSTORE PUSH1 0x20 ADD PUSH1 0x0 KECCAK256 PUSH1 0x0 DUP5 DUP4 DUP2 MLOAD DUP2 LT PUSH2 0x2422 JUMPI PUSH4 0x4E487B71 PUSH1 0xE0 SHL PUSH1 0x0 MSTORE PUSH1 0x32 PUSH1 0x4 MSTORE PUSH1 0x24 PUSH1 0x0 REVERT JUMPDEST PUSH1 0x20 MUL PUSH1 0x20 ADD ADD MLOAD PUSH1 0x1 PUSH1 0x1 PUSH1 0xA0 SHL SUB AND PUSH1 0x1 PUSH1 0x1 PUSH1 0xA0 SHL SUB AND DUP2 MSTORE PUSH1 0x20 ADD SWAP1 DUP2 MSTORE PUSH1 0x20 ADD PUSH1 0x0 KECCAK256 DUP1 SLOAD PUSH2 0x2455 SWAP1 PUSH2 0x8B20 JUMP JUMPDEST DUP1 PUSH1 0x1F ADD PUSH1 0x20 DUP1 SWAP2 DIV MUL PUSH1 0x20 ADD PUSH1 0x40 MLOAD SWAP1 DUP2 ADD PUSH1 0x40 MSTORE DUP1 SWAP3 SWAP2 SWAP1 DUP2 DUP2 MSTORE PUSH1 0x20 ADD DUP3 DUP1 SLOAD PUSH2 0x2481 SWAP1 PUSH2 0x8B20 JUMP JUMPDEST DUP1 ISZERO PUSH2 0x24CE JUMPI DUP1 PUSH1 0x1F LT PUSH2 0x24A3 JUMPI PUSH2 0x100 DUP1 DUP4 SLOAD DIV MUL DUP4 MSTORE SWAP2 PUSH1 0x20 ADD SWAP2 PUSH2 0x24CE JUMP JUMPDEST DUP3 ADD SWAP2 SWAP1 PUSH1 0x0 MSTORE PUSH1 0x20 PUSH1 0x0 KECCAK256 SWAP1 JUMPDEST DUP2 SLOAD DUP2 MSTORE SWAP1 PUSH1 0x1 ADD SWAP1 PUSH1 0x20 ADD DUP1 DUP4 GT PUSH2 0x24B1 JUMPI DUP3 SWAP1 SUB PUSH1 0x1F AND DUP3 ADD SWAP2 JUMPDEST POP POP POP POP POP DUP3 DUP3 DUP2 MLOAD DUP2 LT PUSH2 0x24F3 JUMPI PUSH4 0x4E487B71 PUSH1 0xE0 SHL PUSH1 0x0 MSTORE PUSH1 0x32 PUSH1 0x4 MSTORE PUSH1 0x24 PUSH1 0x0 REVERT JUMPDEST PUSH1 0x20 MUL PUSH1 0x20 ADD ADD DUP2 SWAP1 MSTORE POP DUP1 DUP1 PUSH2 0x2509 SWAP1 PUSH2 0x8B5B JUMP JUMPDEST SWAP2 POP POP PUSH2 0x23E4 JUMP JUMPDEST PUSH2 0x2519 PUSH2 0x66E0 JUMP JUMPDEST PUSH1 0x1 PUSH1 0x1 PUSH1 0xA0 SHL SUB AND PUSH2 0x252A PUSH2 0x4035 JUMP JUMPDEST PUSH1 0x1 PUSH1 0x1 PUSH1 0xA0 SHL SUB AND EQ PUSH2 0x2550 JUMPI PUSH1 0x40 MLOAD PUSH3 0x461BCD PUSH1 0xE5 SHL DUP2 MSTORE PUSH1 0x4 ADD PUSH2 0xE1C SWAP1 PUSH2 0x822D JUMP JUMPDEST PUSH1 0x0 DUP2 DUP2 MSTORE PUSH1 0xB PUSH1 0x20 MSTORE PUSH1 0x40 DUP2 KECCAK256 DUP2 DUP2 SSTORE PUSH1 0x1 DUP2 ADD DUP3 SWAP1 SSTORE PUSH1 0x2 DUP2 ADD DUP3 SWAP1 SSTORE PUSH1 0x3 DUP2 ADD DUP3 SWAP1 SSTORE PUSH1 0x4 DUP2 ADD DUP3 SWAP1 SSTORE PUSH1 0x5 DUP2 ADD DUP1 SLOAD PUSH3 0xFFFFFF NOT AND SWAP1 SSTORE PUSH1 0x6 DUP2 ADD DUP3 SWAP1 SSTORE PUSH1 0x7 DUP2 ADD DUP3 SWAP1 SSTORE PUSH1 0x8 DUP2 ADD DUP3 SWAP1 SSTORE PUSH1 0x9 DUP2 ADD DUP3 SWAP1 SSTORE SWAP1 PUSH2 0x25B5 PUSH1 0xA DUP4 ADD DUP3 PUSH2 0x7239 JUMP JUMPDEST POP PUSH1 0xB ADD DUP1 SLOAD PUSH1 0xFF NOT AND SWAP1 SSTORE POP JUMP JUMPDEST PUSH1 0x19 SLOAD PUSH1 0x0 SWAP1 DUP2 MSTORE PUSH1 0xB PUSH1 0x20 MSTORE PUSH1 0x40 SWAP1 KECCAK256 PUSH1 0x5 ADD SLOAD PUSH1 0xFF AND PUSH2 0x25F8 JUMPI PUSH1 0x40 MLOAD PUSH3 0x461BCD PUSH1 0xE5 SHL DUP2 MSTORE PUSH1 0x4 ADD PUSH2 0xE1C SWAP1 PUSH2 0x8365 JUMP JUMPDEST PUSH1 0x19 SLOAD PUSH1 0x0 SWAP1 DUP2 MSTORE PUSH1 0xB PUSH1 0x20 MSTORE PUSH1 0x40 SWAP1 KECCAK256 PUSH1 0x5 ADD SLOAD PUSH3 0x10000 SWAP1 DIV PUSH1 0xFF AND ISZERO PUSH2 0x2633 JUMPI PUSH1 0x40 MLOAD PUSH3 0x461BCD PUSH1 0xE5 SHL DUP2 MSTORE PUSH1 0x4 ADD PUSH2 0xE1C SWAP1 PUSH2 0x8184 JUMP JUMPDEST PUSH1 0x0 PUSH2 0x2757 PUSH2 0x26CC PUSH1 0x11 DUP1 SLOAD SWAP1 POP PUSH1 0x26 PUSH1 0x0 SWAP1 SLOAD SWAP1 PUSH2 0x100 EXP SWAP1 DIV PUSH1 0x1 PUSH1 0x1 PUSH1 0xA0 SHL SUB AND PUSH1 0x1 PUSH1 0x1 PUSH1 0xA0 SHL SUB AND PUSH4 0x70D29BDF PUSH1 0x40 MLOAD DUP2 PUSH4 0xFFFFFFFF AND PUSH1 0xE0 SHL DUP2 MSTORE PUSH1 0x4 ADD PUSH1 0x20 PUSH1 0x40 MLOAD DUP1 DUP4 SUB DUP2 DUP7 DUP1 EXTCODESIZE ISZERO DUP1 ISZERO PUSH2 0x268F JUMPI PUSH1 0x0 DUP1 REVERT JUMPDEST POP GAS STATICCALL ISZERO DUP1 ISZERO PUSH2 0x26A3 JUMPI RETURNDATASIZE PUSH1 0x0 DUP1 RETURNDATACOPY RETURNDATASIZE PUSH1 0x0 REVERT JUMPDEST POP POP POP POP PUSH1 0x40 MLOAD RETURNDATASIZE PUSH1 0x1F NOT PUSH1 0x1F DUP3 ADD AND DUP3 ADD DUP1 PUSH1 0x40 MSTORE POP DUP2 ADD SWAP1 PUSH2 0x26C7 SWAP2 SWAP1 PUSH2 0x775E JUMP JUMPDEST PUSH2 0x6B70 JUMP JUMPDEST PUSH1 0x26 PUSH1 0x0 SWAP1 SLOAD SWAP1 PUSH2 0x100 EXP SWAP1 DIV PUSH1 0x1 PUSH1 0x1 PUSH1 0xA0 SHL SUB AND PUSH1 0x1 PUSH1 0x1 PUSH1 0xA0 SHL SUB AND PUSH4 0x166FF4C7 PUSH1 0x40 MLOAD DUP2 PUSH4 0xFFFFFFFF AND PUSH1 0xE0 SHL DUP2 MSTORE PUSH1 0x4 ADD PUSH1 0x20 PUSH1 0x40 MLOAD DUP1 DUP4 SUB DUP2 DUP7 DUP1 EXTCODESIZE ISZERO DUP1 ISZERO PUSH2 0x271A JUMPI PUSH1 0x0 DUP1 REVERT JUMPDEST POP GAS STATICCALL ISZERO DUP1 ISZERO PUSH2 0x272E JUMPI RETURNDATASIZE PUSH1 0x0 DUP1 RETURNDATACOPY RETURNDATASIZE PUSH1 0x0 REVERT JUMPDEST POP POP POP POP PUSH1 0x40 MLOAD RETURNDATASIZE PUSH1 0x1F NOT PUSH1 0x1F DUP3 ADD AND DUP3 ADD DUP1 PUSH1 0x40 MSTORE POP DUP2 ADD SWAP1 PUSH2 0x2752 SWAP2 SWAP1 PUSH2 0x775E JUMP JUMPDEST PUSH2 0x6B86 JUMP JUMPDEST PUSH1 0x11 SLOAD PUSH1 0x19 DUP1 SLOAD PUSH1 0x0 SWAP1 DUP2 MSTORE PUSH1 0xB PUSH1 0x20 SWAP1 DUP2 MSTORE PUSH1 0x40 DUP1 DUP4 KECCAK256 PUSH1 0x3 ADD DUP7 SWAP1 SSTORE SWAP3 SLOAD DUP3 MSTORE DUP3 DUP3 KECCAK256 PUSH1 0x2 ADD DUP6 SWAP1 SSTORE PUSH1 0x26 SLOAD DUP4 MLOAD PUSH4 0x280BE645 PUSH1 0xE2 SHL DUP2 MSTORE SWAP4 MLOAD SWAP6 SWAP7 POP SWAP4 SWAP5 SWAP2 SWAP4 PUSH2 0x280C SWAP4 PUSH1 0x1 PUSH1 0x1 PUSH1 0xA0 SHL SUB SWAP1 SWAP2 AND SWAP3 PUSH4 0xA02F9914 SWAP3 PUSH1 0x4 DUP1 DUP5 ADD SWAP4 SWAP2 SWAP3 SWAP2 DUP3 SWAP1 SUB ADD DUP2 DUP7 DUP1 EXTCODESIZE ISZERO DUP1 ISZERO PUSH2 0x27CD JUMPI PUSH1 0x0 DUP1 REVERT JUMPDEST POP GAS STATICCALL ISZERO DUP1 ISZERO PUSH2 0x27E1 JUMPI RETURNDATASIZE PUSH1 0x0 DUP1 RETURNDATACOPY RETURNDATASIZE PUSH1 0x0 REVERT JUMPDEST POP POP POP POP PUSH1 0x40 MLOAD RETURNDATASIZE PUSH1 0x1F NOT PUSH1 0x1F DUP3 ADD AND DUP3 ADD DUP1 PUSH1 0x40 MSTORE POP DUP2 ADD SWAP1 PUSH2 0x2805 SWAP2 SWAP1 PUSH2 0x775E JUMP JUMPDEST TIMESTAMP SWAP1 PUSH2 0x6B96 JUMP JUMPDEST SWAP1 POP PUSH1 0x0 PUSH2 0x28A0 PUSH1 0x26 PUSH1 0x0 SWAP1 SLOAD SWAP1 PUSH2 0x100 EXP SWAP1 DIV PUSH1 0x1 PUSH1 0x1 PUSH1 0xA0 SHL SUB AND PUSH1 0x1 PUSH1 0x1 PUSH1 0xA0 SHL SUB AND PUSH4 0x2C5A49F PUSH1 0x40 MLOAD DUP2 PUSH4 0xFFFFFFFF AND PUSH1 0xE0 SHL DUP2 MSTORE PUSH1 0x4 ADD PUSH1 0x20 PUSH1 0x40 MLOAD DUP1 DUP4 SUB DUP2 DUP7 DUP1 EXTCODESIZE ISZERO DUP1 ISZERO PUSH2 0x2861 JUMPI PUSH1 0x0 DUP1 REVERT JUMPDEST POP GAS STATICCALL ISZERO DUP1 ISZERO PUSH2 0x2875 JUMPI RETURNDATASIZE PUSH1 0x0 DUP1 RETURNDATACOPY RETURNDATASIZE PUSH1 0x0 REVERT JUMPDEST POP POP POP POP PUSH1 0x40 MLOAD RETURNDATASIZE PUSH1 0x1F NOT PUSH1 0x1F DUP3 ADD AND DUP3 ADD DUP1 PUSH1 0x40 MSTORE POP DUP2 ADD SWAP1 PUSH2 0x2899 SWAP2 SWAP1 PUSH2 0x775E JUMP JUMPDEST DUP4 SWAP1 PUSH2 0x6B96 JUMP JUMPDEST PUSH1 0x19 DUP1 SLOAD PUSH1 0x0 SWAP1 DUP2 MSTORE PUSH1 0xB PUSH1 0x20 MSTORE PUSH1 0x40 DUP1 DUP3 KECCAK256 PUSH1 0x6 ADD DUP7 SWAP1 SSTORE DUP3 SLOAD DUP3 MSTORE DUP1 DUP3 KECCAK256 PUSH1 0x7 ADD DUP5 SWAP1 SSTORE SWAP2 SLOAD DUP2 MSTORE KECCAK256 PUSH1 0x5 ADD DUP1 SLOAD PUSH3 0xFF0000 NOT AND PUSH3 0x10000 OR SWAP1 SSTORE SWAP1 POP PUSH1 0x1 DUP5 LT DUP1 ISZERO SWAP1 PUSH2 0x28F1 JUMPI POP PUSH1 0x1 DUP4 LT ISZERO JUMPDEST PUSH2 0x290D JUMPI PUSH1 0x40 MLOAD PUSH3 0x461BCD PUSH1 0xE5 SHL DUP2 MSTORE PUSH1 0x4 ADD PUSH2 0xE1C SWAP1 PUSH2 0x7DDB JUMP JUMPDEST PUSH1 0x0 PUSH2 0x2919 DUP6 DUP6 PUSH2 0x4EFF JUMP JUMPDEST SWAP1 POP PUSH1 0x0 DUP2 MLOAD PUSH1 0x1 PUSH1 0x1 PUSH1 0x40 SHL SUB DUP2 GT ISZERO PUSH2 0x2944 JUMPI PUSH4 0x4E487B71 PUSH1 0xE0 SHL PUSH1 0x0 MSTORE PUSH1 0x41 PUSH1 0x4 MSTORE PUSH1 0x24 PUSH1 0x0 REVERT JUMPDEST PUSH1 0x40 MLOAD SWAP1 DUP1 DUP3 MSTORE DUP1 PUSH1 0x20 MUL PUSH1 0x20 ADD DUP3 ADD PUSH1 0x40 MSTORE DUP1 ISZERO PUSH2 0x296D JUMPI DUP2 PUSH1 0x20 ADD PUSH1 0x20 DUP3 MUL DUP1 CALLDATASIZE DUP4 CALLDATACOPY ADD SWAP1 POP JUMPDEST POP SWAP1 POP PUSH1 0x0 JUMPDEST DUP3 MLOAD DUP2 LT ISZERO PUSH2 0x2A2C JUMPI PUSH1 0x11 DUP4 DUP3 DUP2 MLOAD DUP2 LT PUSH2 0x299E JUMPI PUSH4 0x4E487B71 PUSH1 0xE0 SHL PUSH1 0x0 MSTORE PUSH1 0x32 PUSH1 0x4 MSTORE PUSH1 0x24 PUSH1 0x0 REVERT JUMPDEST PUSH1 0x20 MUL PUSH1 0x20 ADD ADD MLOAD DUP2 SLOAD DUP2 LT PUSH2 0x29C4 JUMPI PUSH4 0x4E487B71 PUSH1 0xE0 SHL PUSH1 0x0 MSTORE PUSH1 0x32 PUSH1 0x4 MSTORE PUSH1 0x24 PUSH1 0x0 REVERT JUMPDEST SWAP1 PUSH1 0x0 MSTORE PUSH1 0x20 PUSH1 0x0 KECCAK256 ADD PUSH1 0x0 SWAP1 SLOAD SWAP1 PUSH2 0x100 EXP SWAP1 DIV PUSH1 0x1 PUSH1 0x1 PUSH1 0xA0 SHL SUB AND DUP3 DUP3 DUP2 MLOAD DUP2 LT PUSH2 0x2A02 JUMPI PUSH4 0x4E487B71 PUSH1 0xE0 SHL PUSH1 0x0 MSTORE PUSH1 0x32 PUSH1 0x4 MSTORE PUSH1 0x24 PUSH1 0x0 REVERT JUMPDEST PUSH1 0x1 PUSH1 0x1 PUSH1 0xA0 SHL SUB SWAP1 SWAP3 AND PUSH1 0x20 SWAP3 DUP4 MUL SWAP2 SWAP1 SWAP2 ADD SWAP1 SWAP2 ADD MSTORE DUP1 PUSH2 0x2A24 DUP2 PUSH2 0x8B5B JUMP JUMPDEST SWAP2 POP POP PUSH2 0x2973 JUMP JUMPDEST POP PUSH1 0x0 JUMPDEST DUP3 MLOAD DUP2 LT ISZERO PUSH2 0x2B94 JUMPI PUSH1 0x0 DUP3 DUP3 DUP2 MLOAD DUP2 LT PUSH2 0x2A5B JUMPI PUSH4 0x4E487B71 PUSH1 0xE0 SHL PUSH1 0x0 MSTORE PUSH1 0x32 PUSH1 0x4 MSTORE PUSH1 0x24 PUSH1 0x0 REVERT JUMPDEST PUSH1 0x20 MUL PUSH1 0x20 ADD ADD MLOAD SWAP1 POP PUSH1 0x0 PUSH1 0xC PUSH1 0x0 DUP4 PUSH1 0x1 PUSH1 0x1 PUSH1 0xA0 SHL SUB AND PUSH1 0x1 PUSH1 0x1 PUSH1 0xA0 SHL SUB AND DUP2 MSTORE PUSH1 0x20 ADD SWAP1 DUP2 MSTORE PUSH1 0x20 ADD PUSH1 0x0 KECCAK256 SWAP1 POP PUSH2 0x2A97 DUP3 PUSH2 0x686C JUMP JUMPDEST PUSH2 0x2AA0 DUP3 PUSH2 0x6BA2 JUMP JUMPDEST PUSH2 0x2AF0 JUMPI PUSH1 0x12 DUP1 SLOAD PUSH1 0x1 DUP2 ADD DUP3 SSTORE PUSH1 0x0 SWAP2 SWAP1 SWAP2 MSTORE PUSH32 0xBB8A6A4669BA250D26CD7A459ECA9D215F8307E33AEBE50379BC5A3617EC3444 ADD DUP1 SLOAD PUSH1 0x1 PUSH1 0x1 PUSH1 0xA0 SHL SUB NOT AND PUSH1 0x1 PUSH1 0x1 PUSH1 0xA0 SHL SUB DUP5 AND OR SWAP1 SSTORE JUMPDEST PUSH1 0x19 DUP1 SLOAD PUSH1 0x0 SWAP1 DUP2 MSTORE PUSH1 0xF PUSH1 0x20 SWAP1 DUP2 MSTORE PUSH1 0x40 DUP1 DUP4 KECCAK256 DUP1 SLOAD PUSH1 0x1 DUP1 DUP3 ADD DUP4 SSTORE SWAP2 DUP6 MSTORE SWAP3 SWAP1 SWAP4 KECCAK256 SWAP1 SWAP2 ADD DUP1 SLOAD PUSH1 0x1 PUSH1 0x1 PUSH1 0xA0 SHL SUB NOT AND PUSH1 0x1 PUSH1 0x1 PUSH1 0xA0 SHL SUB DUP8 AND OR SWAP1 SSTORE DUP3 SLOAD SWAP2 DUP5 ADD SWAP2 SWAP1 SWAP2 SSTORE PUSH1 0x2 DUP4 ADD DUP1 SLOAD PUSH1 0xFF NOT AND SWAP1 SSTORE SWAP1 SLOAD SWAP1 MLOAD PUSH32 0xE4EE2DFABE57CEE15E3F558890B20455F54C1FA0718E5276FAAD70A6500E6B8C SWAP1 PUSH2 0x2B77 SWAP1 DUP6 SWAP1 PUSH2 0x79CE JUMP JUMPDEST PUSH1 0x40 MLOAD DUP1 SWAP2 SUB SWAP1 LOG2 POP POP DUP1 DUP1 PUSH2 0x2B8C SWAP1 PUSH2 0x8B5B JUMP JUMPDEST SWAP2 POP POP PUSH2 0x2A30 JUMP JUMPDEST POP PUSH1 0x19 SLOAD PUSH2 0x2BA3 SWAP1 PUSH1 0x1 PUSH2 0x6B96 JUMP JUMPDEST PUSH1 0x19 DUP2 SWAP1 SSTORE POP PUSH1 0x1 PUSH1 0x1A PUSH1 0x0 DUP3 DUP3 SLOAD PUSH2 0x2BBC SWAP2 SWAP1 PUSH2 0x8A8E JUMP JUMPDEST SWAP1 SWAP2 SSTORE POP POP POP POP POP POP POP POP JUMP JUMPDEST PUSH1 0xA PUSH1 0x20 MSTORE PUSH1 0x0 SWAP1 DUP2 MSTORE PUSH1 0x40 SWAP1 KECCAK256 DUP1 SLOAD DUP2 SWAP1 PUSH2 0x2BE4 SWAP1 PUSH2 0x8B20 JUMP JUMPDEST DUP1 PUSH1 0x1F ADD PUSH1 0x20 DUP1 SWAP2 DIV MUL PUSH1 0x20 ADD PUSH1 0x40 MLOAD SWAP1 DUP2 ADD PUSH1 0x40 MSTORE DUP1 SWAP3 SWAP2 SWAP1 DUP2 DUP2 MSTORE PUSH1 0x20 ADD DUP3 DUP1 SLOAD PUSH2 0x2C10 SWAP1 PUSH2 0x8B20 JUMP JUMPDEST DUP1 ISZERO PUSH2 0x2C5D JUMPI DUP1 PUSH1 0x1F LT PUSH2 0x2C32 JUMPI PUSH2 0x100 DUP1 DUP4 SLOAD DIV MUL DUP4 MSTORE SWAP2 PUSH1 0x20 ADD SWAP2 PUSH2 0x2C5D JUMP JUMPDEST DUP3 ADD SWAP2 SWAP1 PUSH1 0x0 MSTORE PUSH1 0x20 PUSH1 0x0 KECCAK256 SWAP1 JUMPDEST DUP2 SLOAD DUP2 MSTORE SWAP1 PUSH1 0x1 ADD SWAP1 PUSH1 0x20 ADD DUP1 DUP4 GT PUSH2 0x2C40 JUMPI DUP3 SWAP1 SUB PUSH1 0x1F AND DUP3 ADD SWAP2 JUMPDEST POP POP POP POP PUSH1 0x1 DUP4 ADD SLOAD PUSH1 0x2 DUP5 ADD SLOAD PUSH1 0x3 SWAP1 SWAP5 ADD SLOAD SWAP3 SWAP4 PUSH1 0x1 PUSH1 0x1 PUSH1 0xA0 SHL SUB SWAP1 SWAP2 AND SWAP3 SWAP1 SWAP2 POP PUSH1 0xFF AND DUP5 JUMP JUMPDEST PUSH2 0x2C91 DUP2 PUSH2 0x1105 JUMP JUMPDEST DUP1 PUSH2 0x2CAB JUMPI POP PUSH1 0x0 DUP2 DUP2 MSTORE PUSH1 0xB PUSH1 0x20 MSTORE PUSH1 0x40 SWAP1 KECCAK256 PUSH1 0x3 ADD SLOAD ISZERO JUMPDEST PUSH2 0x2CC7 JUMPI PUSH1 0x40 MLOAD PUSH3 0x461BCD PUSH1 0xE5 SHL DUP2 MSTORE PUSH1 0x4 ADD PUSH2 0xE1C SWAP1 PUSH2 0x8262 JUMP JUMPDEST PUSH1 0x0 DUP2 DUP2 MSTORE PUSH1 0xB PUSH1 0x20 MSTORE PUSH1 0x40 SWAP1 KECCAK256 PUSH1 0x5 ADD SLOAD PUSH2 0x100 SWAP1 DIV PUSH1 0xFF AND ISZERO PUSH2 0x2CFE JUMPI PUSH1 0x40 MLOAD PUSH3 0x461BCD PUSH1 0xE5 SHL DUP2 MSTORE PUSH1 0x4 ADD PUSH2 0xE1C SWAP1 PUSH2 0x84AC JUMP JUMPDEST PUSH1 0x0 DUP2 DUP2 MSTORE PUSH1 0xF PUSH1 0x20 SWAP1 DUP2 MSTORE PUSH1 0x40 DUP1 DUP4 KECCAK256 DUP1 SLOAD DUP3 MLOAD DUP2 DUP6 MUL DUP2 ADD DUP6 ADD SWAP1 SWAP4 MSTORE DUP1 DUP4 MSTORE SWAP2 SWAP3 SWAP1 SWAP2 SWAP1 DUP4 ADD DUP3 DUP3 DUP1 ISZERO PUSH2 0x2D5E JUMPI PUSH1 0x20 MUL DUP3 ADD SWAP2 SWAP1 PUSH1 0x0 MSTORE PUSH1 0x20 PUSH1 0x0 KECCAK256 SWAP1 JUMPDEST DUP2 SLOAD PUSH1 0x1 PUSH1 0x1 PUSH1 0xA0 SHL SUB AND DUP2 MSTORE PUSH1 0x1 SWAP1 SWAP2 ADD SWAP1 PUSH1 0x20 ADD DUP1 DUP4 GT PUSH2 0x2D40 JUMPI JUMPDEST POP POP POP POP POP SWAP1 POP PUSH1 0x0 DUP2 MLOAD PUSH1 0x1 PUSH1 0x1 PUSH1 0x40 SHL SUB DUP2 GT ISZERO PUSH2 0x2D8E JUMPI PUSH4 0x4E487B71 PUSH1 0xE0 SHL PUSH1 0x0 MSTORE PUSH1 0x41 PUSH1 0x4 MSTORE PUSH1 0x24 PUSH1 0x0 REVERT JUMPDEST PUSH1 0x40 MLOAD SWAP1 DUP1 DUP3 MSTORE DUP1 PUSH1 0x20 MUL PUSH1 0x20 ADD DUP3 ADD PUSH1 0x40 MSTORE DUP1 ISZERO PUSH2 0x2DC1 JUMPI DUP2 PUSH1 0x20 ADD JUMPDEST PUSH1 0x60 DUP2 MSTORE PUSH1 0x20 ADD SWAP1 PUSH1 0x1 SWAP1 SUB SWAP1 DUP2 PUSH2 0x2DAC JUMPI SWAP1 POP JUMPDEST POP SWAP1 POP PUSH1 0x0 DUP3 MLOAD PUSH1 0x1 PUSH1 0x1 PUSH1 0x40 SHL SUB DUP2 GT ISZERO PUSH2 0x2DED JUMPI PUSH4 0x4E487B71 PUSH1 0xE0 SHL PUSH1 0x0 MSTORE PUSH1 0x41 PUSH1 0x4 MSTORE PUSH1 0x24 PUSH1 0x0 REVERT JUMPDEST PUSH1 0x40 MLOAD SWAP1 DUP1 DUP3 MSTORE DUP1 PUSH1 0x20 MUL PUSH1 0x20 ADD DUP3 ADD PUSH1 0x40 MSTORE DUP1 ISZERO PUSH2 0x2E16 JUMPI DUP2 PUSH1 0x20 ADD PUSH1 0x20 DUP3 MUL DUP1 CALLDATASIZE DUP4 CALLDATACOPY ADD SWAP1 POP JUMPDEST POP SWAP1 POP PUSH1 0x0 JUMPDEST DUP4 MLOAD DUP2 LT ISZERO PUSH2 0x2F99 JUMPI PUSH1 0x0 DUP5 DUP3 DUP2 MLOAD DUP2 LT PUSH2 0x2E47 JUMPI PUSH4 0x4E487B71 PUSH1 0xE0 SHL PUSH1 0x0 MSTORE PUSH1 0x32 PUSH1 0x4 MSTORE PUSH1 0x24 PUSH1 0x0 REVERT JUMPDEST PUSH1 0x20 SWAP1 DUP2 MUL SWAP2 SWAP1 SWAP2 ADD DUP2 ADD MLOAD PUSH1 0x0 DUP9 DUP2 MSTORE PUSH1 0x4 DUP4 MSTORE PUSH1 0x40 DUP1 DUP3 KECCAK256 PUSH1 0x1 PUSH1 0x1 PUSH1 0xA0 SHL SUB DUP5 AND DUP4 MSTORE SWAP1 SWAP4 MSTORE SWAP2 DUP3 KECCAK256 DUP1 SLOAD SWAP2 SWAP4 POP SWAP1 PUSH2 0x2E82 SWAP1 PUSH2 0x8B20 JUMP JUMPDEST DUP1 PUSH1 0x1F ADD PUSH1 0x20 DUP1 SWAP2 DIV MUL PUSH1 0x20 ADD PUSH1 0x40 MLOAD SWAP1 DUP2 ADD PUSH1 0x40 MSTORE DUP1 SWAP3 SWAP2 SWAP1 DUP2 DUP2 MSTORE PUSH1 0x20 ADD DUP3 DUP1 SLOAD PUSH2 0x2EAE SWAP1 PUSH2 0x8B20 JUMP JUMPDEST DUP1 ISZERO PUSH2 0x2EFB JUMPI DUP1 PUSH1 0x1F LT PUSH2 0x2ED0 JUMPI PUSH2 0x100 DUP1 DUP4 SLOAD DIV MUL DUP4 MSTORE SWAP2 PUSH1 0x20 ADD SWAP2 PUSH2 0x2EFB JUMP JUMPDEST DUP3 ADD SWAP2 SWAP1 PUSH1 0x0 MSTORE PUSH1 0x20 PUSH1 0x0 KECCAK256 SWAP1 JUMPDEST DUP2 SLOAD DUP2 MSTORE SWAP1 PUSH1 0x1 ADD SWAP1 PUSH1 0x20 ADD DUP1 DUP4 GT PUSH2 0x2EDE JUMPI DUP3 SWAP1 SUB PUSH1 0x1F AND DUP3 ADD SWAP2 JUMPDEST POP POP POP PUSH1 0x0 DUP11 DUP2 MSTORE PUSH1 0x5 PUSH1 0x20 SWAP1 DUP2 MSTORE PUSH1 0x40 DUP1 DUP4 KECCAK256 PUSH1 0x1 PUSH1 0x1 PUSH1 0xA0 SHL SUB DUP10 AND DUP5 MSTORE SWAP1 SWAP2 MSTORE SWAP1 KECCAK256 SLOAD DUP9 MLOAD SWAP4 SWAP5 POP SWAP3 DUP5 SWAP3 POP DUP9 SWAP2 POP DUP7 SWAP1 DUP2 LT PUSH2 0x2F4B JUMPI PUSH4 0x4E487B71 PUSH1 0xE0 SHL PUSH1 0x0 MSTORE PUSH1 0x32 PUSH1 0x4 MSTORE PUSH1 0x24 PUSH1 0x0 REVERT JUMPDEST PUSH1 0x20 MUL PUSH1 0x20 ADD ADD DUP2 SWAP1 MSTORE POP DUP1 DUP6 DUP6 DUP2 MLOAD DUP2 LT PUSH2 0x2F77 JUMPI PUSH4 0x4E487B71 PUSH1 0xE0 SHL PUSH1 0x0 MSTORE PUSH1 0x32 PUSH1 0x4 MSTORE PUSH1 0x24 PUSH1 0x0 REVERT JUMPDEST PUSH1 0x20 MUL PUSH1 0x20 ADD ADD DUP2 DUP2 MSTORE POP POP POP POP POP DUP1 DUP1 PUSH2 0x2F91 SWAP1 PUSH2 0x8B5B JUMP JUMPDEST SWAP2 POP POP PUSH2 0x2E1C JUMP JUMPDEST POP PUSH1 0x0 PUSH2 0x3044 PUSH1 0x64 PUSH1 0x26 PUSH1 0x0 SWAP1 SLOAD SWAP1 PUSH2 0x100 EXP SWAP1 DIV PUSH1 0x1 PUSH1 0x1 PUSH1 0xA0 SHL SUB AND PUSH1 0x1 PUSH1 0x1 PUSH1 0xA0 SHL SUB AND PUSH4 0xEA19733C PUSH1 0x40 MLOAD DUP2 PUSH4 0xFFFFFFFF AND PUSH1 0xE0 SHL DUP2 MSTORE PUSH1 0x4 ADD PUSH1 0x20 PUSH1 0x40 MLOAD DUP1 DUP4 SUB DUP2 DUP7 DUP1 EXTCODESIZE ISZERO DUP1 ISZERO PUSH2 0x2FEF JUMPI PUSH1 0x0 DUP1 REVERT JUMPDEST POP GAS STATICCALL ISZERO DUP1 ISZERO PUSH2 0x3003 JUMPI RETURNDATASIZE PUSH1 0x0 DUP1 RETURNDATACOPY RETURNDATASIZE PUSH1 0x0 REVERT JUMPDEST POP POP POP POP PUSH1 0x40 MLOAD RETURNDATASIZE PUSH1 0x1F NOT PUSH1 0x1F DUP3 ADD AND DUP3 ADD DUP1 PUSH1 0x40 MSTORE POP DUP2 ADD SWAP1 PUSH2 0x3027 SWAP2 SWAP1 PUSH2 0x775E JUMP JUMPDEST DUP7 MLOAD PUSH2 0x3033 SWAP2 SWAP1 PUSH2 0x8ABA JUMP JUMPDEST PUSH2 0x303D SWAP2 SWAP1 PUSH2 0x8AA6 JUMP JUMPDEST PUSH1 0x1 PUSH2 0x6B86 JUMP JUMPDEST SWAP1 POP PUSH1 0x0 DUP4 PUSH1 0x0 DUP2 MLOAD DUP2 LT PUSH2 0x3069 JUMPI PUSH4 0x4E487B71 PUSH1 0xE0 SHL PUSH1 0x0 MSTORE PUSH1 0x32 PUSH1 0x4 MSTORE PUSH1 0x24 PUSH1 0x0 REVERT JUMPDEST PUSH1 0x20 MUL PUSH1 0x20 ADD ADD MLOAD SWAP1 POP PUSH1 0x0 JUMPDEST DUP5 MLOAD DUP2 LT ISZERO PUSH2 0x315F JUMPI PUSH1 0x0 DUP1 JUMPDEST DUP7 MLOAD DUP2 LT ISZERO PUSH2 0x3114 JUMPI PUSH2 0x30E4 DUP8 DUP5 DUP2 MLOAD DUP2 LT PUSH2 0x30AF JUMPI PUSH4 0x4E487B71 PUSH1 0xE0 SHL PUSH1 0x0 MSTORE PUSH1 0x32 PUSH1 0x4 MSTORE PUSH1 0x24 PUSH1 0x0 REVERT JUMPDEST PUSH1 0x20 MUL PUSH1 0x20 ADD ADD MLOAD DUP9 DUP4 DUP2 MLOAD DUP2 LT PUSH2 0x30D7 JUMPI PUSH4 0x4E487B71 PUSH1 0xE0 SHL PUSH1 0x0 MSTORE PUSH1 0x32 PUSH1 0x4 MSTORE PUSH1 0x24 PUSH1 0x0 REVERT JUMPDEST PUSH1 0x20 MUL PUSH1 0x20 ADD ADD MLOAD PUSH2 0x49B2 JUMP JUMPDEST ISZERO PUSH2 0x3102 JUMPI PUSH2 0x30F4 PUSH1 0x1 DUP4 PUSH2 0x8A8E JUMP JUMPDEST SWAP2 POP DUP5 DUP3 LT PUSH2 0x3102 JUMPI PUSH2 0x3114 JUMP JUMPDEST DUP1 PUSH2 0x310C DUP2 PUSH2 0x8B5B JUMP JUMPDEST SWAP2 POP POP PUSH2 0x3083 JUMP JUMPDEST POP DUP4 DUP2 LT PUSH2 0x314C JUMPI DUP6 DUP3 DUP2 MLOAD DUP2 LT PUSH2 0x313C JUMPI PUSH4 0x4E487B71 PUSH1 0xE0 SHL PUSH1 0x0 MSTORE PUSH1 0x32 PUSH1 0x4 MSTORE PUSH1 0x24 PUSH1 0x0 REVERT JUMPDEST PUSH1 0x20 MUL PUSH1 0x20 ADD ADD MLOAD SWAP3 POP POP PUSH2 0x315F JUMP JUMPDEST POP DUP1 PUSH2 0x3157 DUP2 PUSH2 0x8B5B JUMP JUMPDEST SWAP2 POP POP PUSH2 0x3076 JUMP JUMPDEST POP PUSH1 0x0 DUP4 PUSH1 0x0 DUP2 MLOAD DUP2 LT PUSH2 0x3183 JUMPI PUSH4 0x4E487B71 PUSH1 0xE0 SHL PUSH1 0x0 MSTORE PUSH1 0x32 PUSH1 0x4 MSTORE PUSH1 0x24 PUSH1 0x0 REVERT JUMPDEST PUSH1 0x20 MUL PUSH1 0x20 ADD ADD MLOAD SWAP1 POP PUSH1 0x0 JUMPDEST DUP5 MLOAD DUP2 LT ISZERO PUSH2 0x3272 JUMPI PUSH1 0x0 DUP1 JUMPDEST DUP7 MLOAD DUP2 LT ISZERO PUSH2 0x3227 JUMPI DUP7 DUP2 DUP2 MLOAD DUP2 LT PUSH2 0x31C6 JUMPI PUSH4 0x4E487B71 PUSH1 0xE0 SHL PUSH1 0x0 MSTORE PUSH1 0x32 PUSH1 0x4 MSTORE PUSH1 0x24 PUSH1 0x0 REVERT JUMPDEST PUSH1 0x20 MUL PUSH1 0x20 ADD ADD MLOAD DUP8 DUP5 DUP2 MLOAD DUP2 LT PUSH2 0x31EE JUMPI PUSH4 0x4E487B71 PUSH1 0xE0 SHL PUSH1 0x0 MSTORE PUSH1 0x32 PUSH1 0x4 MSTORE PUSH1 0x24 PUSH1 0x0 REVERT JUMPDEST PUSH1 0x20 MUL PUSH1 0x20 ADD ADD MLOAD EQ ISZERO PUSH2 0x3215 JUMPI PUSH2 0x3207 PUSH1 0x1 DUP4 PUSH2 0x8A8E JUMP JUMPDEST SWAP2 POP DUP6 DUP3 LT PUSH2 0x3215 JUMPI PUSH2 0x3227 JUMP JUMPDEST DUP1 PUSH2 0x321F DUP2 PUSH2 0x8B5B JUMP JUMPDEST SWAP2 POP POP PUSH2 0x319D JUMP JUMPDEST POP DUP5 DUP2 LT PUSH2 0x325F JUMPI DUP6 DUP3 DUP2 MLOAD DUP2 LT PUSH2 0x324F JUMPI PUSH4 0x4E487B71 PUSH1 0xE0 SHL PUSH1 0x0 MSTORE PUSH1 0x32 PUSH1 0x4 MSTORE PUSH1 0x24 PUSH1 0x0 REVERT JUMPDEST PUSH1 0x20 MUL PUSH1 0x20 ADD ADD MLOAD SWAP3 POP POP PUSH2 0x3272 JUMP JUMPDEST POP DUP1 PUSH2 0x326A DUP2 PUSH2 0x8B5B JUMP JUMPDEST SWAP2 POP POP PUSH2 0x3190 JUMP JUMPDEST POP PUSH1 0x0 JUMPDEST DUP7 MLOAD DUP2 LT ISZERO PUSH2 0x3866 JUMPI PUSH1 0x0 DUP8 DUP3 DUP2 MLOAD DUP2 LT PUSH2 0x32A1 JUMPI PUSH4 0x4E487B71 PUSH1 0xE0 SHL PUSH1 0x0 MSTORE PUSH1 0x32 PUSH1 0x4 MSTORE PUSH1 0x24 PUSH1 0x0 REVERT JUMPDEST PUSH1 0x20 SWAP1 DUP2 MUL SWAP2 SWAP1 SWAP2 ADD DUP2 ADD MLOAD PUSH1 0x1 PUSH1 0x1 PUSH1 0xA0 SHL SUB DUP2 AND PUSH1 0x0 SWAP1 DUP2 MSTORE PUSH1 0x2 DUP4 MSTORE PUSH1 0x40 DUP1 DUP3 KECCAK256 DUP14 DUP4 MSTORE SWAP1 SWAP4 MSTORE SWAP2 SWAP1 SWAP2 KECCAK256 SLOAD SWAP1 SWAP2 POP PUSH1 0xFF AND PUSH2 0x32DF DUP3 PUSH2 0x69C4 JUMP JUMPDEST PUSH1 0x1 PUSH1 0x1 PUSH1 0xA0 SHL SUB DUP3 AND PUSH1 0x0 SWAP1 DUP2 MSTORE PUSH1 0xC PUSH1 0x20 MSTORE PUSH1 0x40 SWAP1 KECCAK256 DUP2 ISZERO PUSH2 0x3747 JUMPI PUSH1 0x1 PUSH1 0x1 PUSH1 0xA0 SHL SUB DUP4 AND PUSH1 0x0 DUP2 DUP2 MSTORE PUSH1 0xC PUSH1 0x20 SWAP1 DUP2 MSTORE PUSH1 0x40 DUP1 DUP4 KECCAK256 PUSH1 0x2 DUP2 ADD DUP1 SLOAD PUSH1 0xFF NOT AND PUSH1 0x1 OR SWAP1 SSTORE PUSH1 0x3 ADD DUP4 SWAP1 SSTORE DUP15 DUP4 MSTORE PUSH1 0x4 DUP3 MSTORE DUP1 DUP4 KECCAK256 SWAP4 DUP4 MSTORE SWAP3 SWAP1 MSTORE SWAP1 DUP2 KECCAK256 DUP1 SLOAD PUSH2 0x334B SWAP1 PUSH2 0x8B20 JUMP JUMPDEST DUP1 PUSH1 0x1F ADD PUSH1 0x20 DUP1 SWAP2 DIV MUL PUSH1 0x20 ADD PUSH1 0x40 MLOAD SWAP1 DUP2 ADD PUSH1 0x40 MSTORE DUP1 SWAP3 SWAP2 SWAP1 DUP2 DUP2 MSTORE PUSH1 0x20 ADD DUP3 DUP1 SLOAD PUSH2 0x3377 SWAP1 PUSH2 0x8B20 JUMP JUMPDEST DUP1 ISZERO PUSH2 0x33C4 JUMPI DUP1 PUSH1 0x1F LT PUSH2 0x3399 JUMPI PUSH2 0x100 DUP1 DUP4 SLOAD DIV MUL DUP4 MSTORE SWAP2 PUSH1 0x20 ADD SWAP2 PUSH2 0x33C4 JUMP JUMPDEST DUP3 ADD SWAP2 SWAP1 PUSH1 0x0 MSTORE PUSH1 0x20 PUSH1 0x0 KECCAK256 SWAP1 JUMPDEST DUP2 SLOAD DUP2 MSTORE SWAP1 PUSH1 0x1 ADD SWAP1 PUSH1 0x20 ADD DUP1 DUP4 GT PUSH2 0x33A7 JUMPI DUP3 SWAP1 SUB PUSH1 0x1F AND DUP3 ADD SWAP2 JUMPDEST POP POP POP POP POP SWAP1 POP PUSH2 0x33D5 DUP2 DUP9 PUSH2 0x49B2 JUMP JUMPDEST ISZERO PUSH2 0x36A8 JUMPI PUSH1 0x23 SLOAD PUSH1 0x40 MLOAD PUSH4 0x8C0A843 PUSH1 0xE1 SHL DUP2 MSTORE PUSH1 0x0 SWAP2 PUSH1 0x1 PUSH1 0x1 PUSH1 0xA0 SHL SUB AND SWAP1 PUSH4 0x11815086 SWAP1 PUSH2 0x340B SWAP1 DUP9 SWAP1 PUSH1 0x4 ADD PUSH2 0x79CE JUMP JUMPDEST PUSH1 0x20 PUSH1 0x40 MLOAD DUP1 DUP4 SUB DUP2 DUP7 DUP1 EXTCODESIZE ISZERO DUP1 ISZERO PUSH2 0x3423 JUMPI PUSH1 0x0 DUP1 REVERT JUMPDEST POP GAS STATICCALL ISZERO DUP1 ISZERO PUSH2 0x3437 JUMPI RETURNDATASIZE PUSH1 0x0 DUP1 RETURNDATACOPY RETURNDATASIZE PUSH1 0x0 REVERT JUMPDEST POP POP POP POP PUSH1 0x40 MLOAD RETURNDATASIZE PUSH1 0x1F NOT PUSH1 0x1F DUP3 ADD AND DUP3 ADD DUP1 PUSH1 0x40 MSTORE POP DUP2 ADD SWAP1 PUSH2 0x345B SWAP2 SWAP1 PUSH2 0x7450 JUMP JUMPDEST PUSH1 0x21 SLOAD PUSH1 0x26 SLOAD PUSH1 0x40 DUP1 MLOAD PUSH4 0xF250AE2D PUSH1 0xE0 SHL DUP2 MSTORE SWAP1 MLOAD SWAP4 SWAP5 POP PUSH1 0x1 PUSH1 0x1 PUSH1 0xA0 SHL SUB SWAP3 DUP4 AND SWAP4 PUSH4 0x1B6D990A SWAP4 SWAP1 SWAP3 AND SWAP2 PUSH4 0xF250AE2D SWAP2 PUSH1 0x4 DUP1 DUP3 ADD SWAP3 PUSH1 0x20 SWAP3 SWAP1 SWAP2 SWAP1 DUP3 SWAP1 SUB ADD DUP2 DUP7 DUP1 EXTCODESIZE ISZERO DUP1 ISZERO PUSH2 0x34B0 JUMPI PUSH1 0x0 DUP1 REVERT JUMPDEST POP GAS STATICCALL ISZERO DUP1 ISZERO PUSH2 0x34C4 JUMPI RETURNDATASIZE PUSH1 0x0 DUP1 RETURNDATACOPY RETURNDATASIZE PUSH1 0x0 REVERT JUMPDEST POP POP POP POP PUSH1 0x40 MLOAD RETURNDATASIZE PUSH1 0x1F NOT PUSH1 0x1F DUP3 ADD AND DUP3 ADD DUP1 PUSH1 0x40 MSTORE POP DUP2 ADD SWAP1 PUSH2 0x34E8 SWAP2 SWAP1 PUSH2 0x775E JUMP JUMPDEST DUP4 PUSH1 0x40 MLOAD DUP4 PUSH4 0xFFFFFFFF AND PUSH1 0xE0 SHL DUP2 MSTORE PUSH1 0x4 ADD PUSH2 0x3506 SWAP3 SWAP2 SWAP1 PUSH2 0x896E JUMP JUMPDEST PUSH1 0x20 PUSH1 0x40 MLOAD DUP1 DUP4 SUB DUP2 PUSH1 0x0 DUP8 DUP1 EXTCODESIZE ISZERO DUP1 ISZERO PUSH2 0x3520 JUMPI PUSH1 0x0 DUP1 REVERT JUMPDEST POP GAS CALL ISZERO DUP1 ISZERO PUSH2 0x3534 JUMPI RETURNDATASIZE PUSH1 0x0 DUP1 RETURNDATACOPY RETURNDATASIZE PUSH1 0x0 REVERT JUMPDEST POP POP POP POP PUSH1 0x40 MLOAD RETURNDATASIZE PUSH1 0x1F NOT PUSH1 0x1F DUP3 ADD AND DUP3 ADD DUP1 PUSH1 0x40 MSTORE POP DUP2 ADD SWAP1 PUSH2 0x3558 SWAP2 SWAP1 PUSH2 0x7571 JUMP JUMPDEST PUSH2 0x3574 JUMPI PUSH1 0x40 MLOAD PUSH3 0x461BCD PUSH1 0xE5 SHL DUP2 MSTORE PUSH1 0x4 ADD PUSH2 0xE1C SWAP1 PUSH2 0x7F4B JUMP JUMPDEST PUSH1 0x22 SLOAD PUSH1 0x26 SLOAD PUSH1 0x40 DUP1 MLOAD PUSH4 0x1DEB5403 PUSH1 0xE2 SHL DUP2 MSTORE SWAP1 MLOAD PUSH1 0x1 PUSH1 0x1 PUSH1 0xA0 SHL SUB SWAP4 DUP5 AND SWAP4 PUSH4 0xE0CA5094 SWAP4 AND SWAP2 PUSH4 0x77AD500C SWAP2 PUSH1 0x4 DUP1 DUP4 ADD SWAP3 PUSH1 0x20 SWAP3 SWAP2 SWAP1 DUP3 SWAP1 SUB ADD DUP2 DUP7 DUP1 EXTCODESIZE ISZERO DUP1 ISZERO PUSH2 0x35C3 JUMPI PUSH1 0x0 DUP1 REVERT JUMPDEST POP GAS STATICCALL ISZERO DUP1 ISZERO PUSH2 0x35D7 JUMPI RETURNDATASIZE PUSH1 0x0 DUP1 RETURNDATACOPY RETURNDATASIZE PUSH1 0x0 REVERT JUMPDEST POP POP POP POP PUSH1 0x40 MLOAD RETURNDATASIZE PUSH1 0x1F NOT PUSH1 0x1F DUP3 ADD AND DUP3 ADD DUP1 PUSH1 0x40 MSTORE POP DUP2 ADD SWAP1 PUSH2 0x35FB SWAP2 SWAP1 PUSH2 0x775E JUMP JUMPDEST DUP4 PUSH1 0x40 MLOAD DUP4 PUSH4 0xFFFFFFFF AND PUSH1 0xE0 SHL DUP2 MSTORE PUSH1 0x4 ADD PUSH2 0x3619 SWAP3 SWAP2 SWAP1 PUSH2 0x8957 JUMP JUMPDEST PUSH1 0x20 PUSH1 0x40 MLOAD DUP1 DUP4 SUB DUP2 PUSH1 0x0 DUP8 DUP1 EXTCODESIZE ISZERO DUP1 ISZERO PUSH2 0x3633 JUMPI PUSH1 0x0 DUP1 REVERT JUMPDEST POP GAS CALL ISZERO DUP1 ISZERO PUSH2 0x3647 JUMPI RETURNDATASIZE PUSH1 0x0 DUP1 RETURNDATACOPY RETURNDATASIZE PUSH1 0x0 REVERT JUMPDEST POP POP POP POP PUSH1 0x40 MLOAD RETURNDATASIZE PUSH1 0x1F NOT PUSH1 0x1F DUP3 ADD AND DUP3 ADD DUP1 PUSH1 0x40 MSTORE POP DUP2 ADD SWAP1 PUSH2 0x366B SWAP2 SWAP1 PUSH2 0x7571 JUMP JUMPDEST PUSH2 0x3687 JUMPI PUSH1 0x40 MLOAD PUSH3 0x461BCD PUSH1 0xE5 SHL DUP2 MSTORE PUSH1 0x4 ADD PUSH2 0xE1C SWAP1 PUSH2 0x7CFC JUMP JUMPDEST PUSH1 0x1 DUP4 PUSH1 0x7 ADD PUSH1 0x0 DUP3 DUP3 SLOAD PUSH2 0x369C SWAP2 SWAP1 PUSH2 0x8A8E JUMP JUMPDEST SWAP1 SWAP2 SSTORE POP PUSH2 0x36C3 SWAP2 POP POP JUMP JUMPDEST PUSH1 0x1 DUP3 PUSH1 0x8 ADD PUSH1 0x0 DUP3 DUP3 SLOAD PUSH2 0x36BD SWAP2 SWAP1 PUSH2 0x8A8E JUMP JUMPDEST SWAP1 SWAP2 SSTORE POP POP JUMPDEST PUSH1 0x5 DUP3 ADD SLOAD PUSH1 0xFF AND ISZERO PUSH2 0x3741 JUMPI PUSH2 0x36D9 DUP5 PUSH2 0x6B00 JUMP JUMPDEST ISZERO DUP1 ISZERO PUSH2 0x36F0 JUMPI POP PUSH1 0x5 DUP3 ADD SLOAD PUSH2 0x100 SWAP1 DIV PUSH1 0xFF AND ISZERO JUMPDEST ISZERO PUSH2 0x3741 JUMPI PUSH1 0x11 DUP1 SLOAD PUSH1 0x1 DUP2 ADD DUP3 SSTORE PUSH1 0x0 SWAP2 SWAP1 SWAP2 MSTORE PUSH32 0x31ECC21A745E3968A04E9570E4425BC18FA8019C68028196B546D1669C200C68 ADD DUP1 SLOAD PUSH1 0x1 PUSH1 0x1 PUSH1 0xA0 SHL SUB NOT AND PUSH1 0x1 PUSH1 0x1 PUSH1 0xA0 SHL SUB DUP7 AND OR SWAP1 SSTORE JUMPDEST POP PUSH2 0x3850 JUMP JUMPDEST PUSH1 0x5 DUP2 ADD SLOAD PUSH2 0x100 SWAP1 DIV PUSH1 0xFF AND DUP1 PUSH2 0x375D JUMPI POP DUP2 ISZERO JUMPDEST ISZERO PUSH2 0x3850 JUMPI PUSH1 0x1 PUSH1 0x1 PUSH1 0xA0 SHL SUB DUP4 AND PUSH1 0x0 SWAP1 DUP2 MSTORE PUSH1 0xC PUSH1 0x20 MSTORE PUSH1 0x40 DUP2 KECCAK256 PUSH1 0x3 ADD DUP1 SLOAD PUSH1 0x1 SWAP3 SWAP1 PUSH2 0x378E SWAP1 DUP5 SWAP1 PUSH2 0x8A8E JUMP JUMPDEST SWAP1 SWAP2 SSTORE POP POP PUSH1 0x26 SLOAD PUSH1 0x40 DUP1 MLOAD PUSH4 0x4FDA48FB PUSH1 0xE1 SHL DUP2 MSTORE SWAP1 MLOAD PUSH1 0x1 PUSH1 0x1 PUSH1 0xA0 SHL SUB SWAP1 SWAP3 AND SWAP2 PUSH4 0x9FB491F6 SWAP2 PUSH1 0x4 DUP1 DUP3 ADD SWAP3 PUSH1 0x20 SWAP3 SWAP1 SWAP2 SWAP1 DUP3 SWAP1 SUB ADD DUP2 DUP7 DUP1 EXTCODESIZE ISZERO DUP1 ISZERO PUSH2 0x37D8 JUMPI PUSH1 0x0 DUP1 REVERT JUMPDEST POP GAS STATICCALL ISZERO DUP1 ISZERO PUSH2 0x37EC JUMPI RETURNDATASIZE PUSH1 0x0 DUP1 RETURNDATACOPY RETURNDATASIZE PUSH1 0x0 REVERT JUMPDEST POP POP POP POP PUSH1 0x40 MLOAD RETURNDATASIZE PUSH1 0x1F NOT PUSH1 0x1F DUP3 ADD AND DUP3 ADD DUP1 PUSH1 0x40 MSTORE POP DUP2 ADD SWAP1 PUSH2 0x3810 SWAP2 SWAP1 PUSH2 0x775E JUMP JUMPDEST PUSH1 0x1 PUSH1 0x1 PUSH1 0xA0 SHL SUB DUP5 AND PUSH1 0x0 SWAP1 DUP2 MSTORE PUSH1 0xC PUSH1 0x20 MSTORE PUSH1 0x40 SWAP1 KECCAK256 PUSH1 0x3 ADD SLOAD EQ ISZERO PUSH2 0x3850 JUMPI PUSH1 0x5 DUP2 ADD DUP1 SLOAD PUSH1 0xFF NOT AND SWAP1 SSTORE PUSH2 0x3847 DUP4 PUSH2 0x686C JUMP JUMPDEST PUSH2 0x3850 DUP4 PUSH2 0x69C4 JUMP JUMPDEST POP POP POP DUP1 DUP1 PUSH2 0x385E SWAP1 PUSH2 0x8B5B JUMP JUMPDEST SWAP2 POP POP PUSH2 0x3276 JUMP JUMPDEST POP PUSH1 0x0 DUP8 DUP2 MSTORE PUSH1 0xB PUSH1 0x20 SWAP1 DUP2 MSTORE PUSH1 0x40 SWAP1 SWAP2 KECCAK256 PUSH1 0x5 DUP2 ADD DUP1 SLOAD PUSH2 0xFF00 NOT AND PUSH2 0x100 OR SWAP1 SSTORE DUP4 MLOAD PUSH2 0x389D SWAP3 PUSH1 0xA SWAP1 SWAP3 ADD SWAP2 DUP6 ADD SWAP1 PUSH2 0x71B5 JUMP JUMPDEST POP PUSH1 0x0 DUP8 DUP2 MSTORE PUSH1 0xB PUSH1 0x20 MSTORE PUSH1 0x40 SWAP1 KECCAK256 PUSH1 0x4 ADD DUP2 SWAP1 SSTORE PUSH2 0x38BB DUP8 PUSH2 0x1E5C JUMP JUMPDEST ISZERO PUSH2 0x3A01 JUMPI PUSH1 0x0 DUP8 DUP2 MSTORE PUSH1 0xB PUSH1 0x20 DUP2 SWAP1 MSTORE PUSH1 0x40 DUP3 KECCAK256 ADD DUP1 SLOAD PUSH1 0xFF NOT AND PUSH1 0x1 SWAP1 DUP2 OR SWAP1 SWAP2 SSTORE PUSH1 0x1B DUP1 SLOAD SWAP2 SWAP3 SWAP1 SWAP2 PUSH2 0x38F2 SWAP1 DUP5 SWAP1 PUSH2 0x8A8E JUMP JUMPDEST SWAP1 SWAP2 SSTORE POP POP PUSH1 0x25 SLOAD PUSH1 0x40 MLOAD PUSH4 0x48257DC9 PUSH1 0xE0 SHL DUP2 MSTORE PUSH1 0x1 PUSH1 0x1 PUSH1 0xA0 SHL SUB SWAP1 SWAP2 AND SWAP1 PUSH4 0x48257DC9 SWAP1 PUSH2 0x3927 SWAP1 DUP11 SWAP1 PUSH1 0x4 ADD PUSH2 0x799B JUMP JUMPDEST PUSH1 0x20 PUSH1 0x40 MLOAD DUP1 DUP4 SUB DUP2 PUSH1 0x0 DUP8 DUP1 EXTCODESIZE ISZERO DUP1 ISZERO PUSH2 0x3941 JUMPI PUSH1 0x0 DUP1 REVERT JUMPDEST POP GAS CALL SWAP3 POP POP POP DUP1 ISZERO PUSH2 0x3971 JUMPI POP PUSH1 0x40 DUP1 MLOAD PUSH1 0x1F RETURNDATASIZE SWAP1 DUP2 ADD PUSH1 0x1F NOT AND DUP3 ADD SWAP1 SWAP3 MSTORE PUSH2 0x396E SWAP2 DUP2 ADD SWAP1 PUSH2 0x7571 JUMP JUMPDEST PUSH1 0x1 JUMPDEST PUSH2 0x39E2 JUMPI RETURNDATASIZE DUP1 DUP1 ISZERO PUSH2 0x399F JUMPI PUSH1 0x40 MLOAD SWAP2 POP PUSH1 0x1F NOT PUSH1 0x3F RETURNDATASIZE ADD AND DUP3 ADD PUSH1 0x40 MSTORE RETURNDATASIZE DUP3 MSTORE RETURNDATASIZE PUSH1 0x0 PUSH1 0x20 DUP5 ADD RETURNDATACOPY PUSH2 0x39A4 JUMP JUMPDEST PUSH1 0x60 SWAP2 POP JUMPDEST POP PUSH32 0x4B87BBD93BA65EDE1E2EFECA735D9F7A6720BF7D6DB0A8355B17DBA5B64E5783 DUP2 PUSH1 0x40 MLOAD PUSH2 0x39D4 SWAP2 SWAP1 PUSH2 0x7AE5 JUMP JUMPDEST PUSH1 0x40 MLOAD DUP1 SWAP2 SUB SWAP1 LOG1 POP PUSH2 0x39FC JUMP JUMPDEST PUSH1 0x1 PUSH1 0x1A PUSH1 0x0 DUP3 DUP3 SLOAD PUSH2 0x39F5 SWAP2 SWAP1 PUSH2 0x8A8E JUMP JUMPDEST SWAP1 SWAP2 SSTORE POP POP POP JUMPDEST PUSH2 0x3A36 JUMP JUMPDEST PUSH1 0x0 DUP8 DUP2 MSTORE PUSH1 0xB PUSH1 0x20 DUP2 SWAP1 MSTORE PUSH1 0x40 DUP3 KECCAK256 ADD DUP1 SLOAD PUSH1 0xFF NOT AND PUSH1 0x2 OR SWAP1 SSTORE PUSH1 0x1C DUP1 SLOAD PUSH1 0x1 SWAP3 SWAP1 PUSH2 0x3A30 SWAP1 DUP5 SWAP1 PUSH2 0x8A8E JUMP JUMPDEST SWAP1 SWAP2 SSTORE POP POP JUMPDEST PUSH1 0x1 PUSH1 0x1A PUSH1 0x0 DUP3 DUP3 SLOAD PUSH2 0x3A49 SWAP2 SWAP1 PUSH2 0x8A8E JUMP JUMPDEST SWAP1 SWAP2 SSTORE POP POP PUSH1 0x0 DUP8 DUP2 MSTORE PUSH1 0xB PUSH1 0x20 MSTORE PUSH1 0x40 DUP2 KECCAK256 PUSH1 0x2 ADD SLOAD PUSH1 0x1D DUP1 SLOAD SWAP2 SWAP3 SWAP1 SWAP2 PUSH2 0x3A73 SWAP1 DUP5 SWAP1 PUSH2 0x8A8E JUMP JUMPDEST SWAP1 SWAP2 SSTORE POP POP PUSH1 0x0 DUP8 DUP2 MSTORE PUSH1 0xB PUSH1 0x20 MSTORE PUSH1 0x40 DUP2 KECCAK256 PUSH1 0x3 ADD SLOAD PUSH1 0x1E DUP1 SLOAD SWAP2 SWAP3 SWAP1 SWAP2 PUSH2 0x3A9D SWAP1 DUP5 SWAP1 PUSH2 0x8A8E JUMP JUMPDEST SWAP1 SWAP2 SSTORE POP POP PUSH1 0x0 DUP8 DUP2 MSTORE PUSH1 0xA PUSH1 0x20 MSTORE PUSH1 0x40 SWAP1 DUP2 SWAP1 KECCAK256 PUSH1 0x1 DUP2 ADD SLOAD SWAP2 MLOAD PUSH1 0x1 PUSH1 0x1 PUSH1 0xA0 SHL SUB SWAP1 SWAP3 AND SWAP2 PUSH32 0xB83F08CF731092D35D6DD4801AC76E3FCC84B1B199915531C9874230D31ADEAA SWAP2 PUSH2 0x3AF0 SWAP2 PUSH2 0x7B85 JUMP JUMPDEST PUSH1 0x40 MLOAD DUP1 SWAP2 SUB SWAP1 LOG2 POP POP POP POP POP POP POP JUMP JUMPDEST PUSH1 0x0 PUSH2 0x1147 DUP3 PUSH2 0xBEF DUP5 PUSH2 0x184E JUMP JUMPDEST PUSH1 0x1 PUSH1 0x1 PUSH1 0xA0 SHL SUB AND PUSH1 0x0 SWAP1 DUP2 MSTORE PUSH1 0xD PUSH1 0x20 MSTORE PUSH1 0x40 SWAP1 KECCAK256 SLOAD SWAP1 JUMP JUMPDEST PUSH2 0x3B33 PUSH2 0x66E0 JUMP JUMPDEST PUSH1 0x1 PUSH1 0x1 PUSH1 0xA0 SHL SUB AND PUSH2 0x3B44 PUSH2 0x4035 JUMP JUMPDEST PUSH1 0x1 PUSH1 0x1 PUSH1 0xA0 SHL SUB AND EQ PUSH2 0x3B6A JUMPI PUSH1 0x40 MLOAD PUSH3 0x461BCD PUSH1 0xE5 SHL DUP2 MSTORE PUSH1 0x4 ADD PUSH2 0xE1C SWAP1 PUSH2 0x822D JUMP JUMPDEST PUSH2 0x3B74 PUSH1 0x0 PUSH2 0x6C12 JUMP JUMPDEST JUMP JUMPDEST PUSH1 0x0 PUSH2 0x3B81 DUP3 PUSH2 0x65F3 JUMP JUMPDEST PUSH2 0x3B9D JUMPI PUSH1 0x40 MLOAD PUSH3 0x461BCD PUSH1 0xE5 SHL DUP2 MSTORE PUSH1 0x4 ADD PUSH2 0xE1C SWAP1 PUSH2 0x8448 JUMP JUMPDEST POP PUSH1 0x0 SWAP1 DUP2 MSTORE PUSH1 0xB PUSH1 0x20 MSTORE PUSH1 0x40 SWAP1 KECCAK256 PUSH1 0x7 ADD SLOAD SWAP1 JUMP JUMPDEST PUSH1 0x60 PUSH2 0x3BBE DUP3 PUSH2 0x65F3 JUMP JUMPDEST PUSH2 0x3BDA JUMPI PUSH1 0x40 MLOAD PUSH3 0x461BCD PUSH1 0xE5 SHL DUP2 MSTORE PUSH1 0x4 ADD PUSH2 0xE1C SWAP1 PUSH2 0x8448 JUMP JUMPDEST PUSH1 0x0 DUP3 DUP2 MSTORE PUSH1 0xF PUSH1 0x20 SWAP1 DUP2 MSTORE PUSH1 0x40 DUP1 DUP4 KECCAK256 DUP1 SLOAD DUP3 MLOAD DUP2 DUP6 MUL DUP2 ADD DUP6 ADD SWAP1 SWAP4 MSTORE DUP1 DUP4 MSTORE SWAP2 SWAP3 SWAP1 SWAP2 SWAP1 DUP4 ADD DUP3 DUP3 DUP1 ISZERO PUSH2 0x3C3A JUMPI PUSH1 0x20 MUL DUP3 ADD SWAP2 SWAP1 PUSH1 0x0 MSTORE PUSH1 0x20 PUSH1 0x0 KECCAK256 SWAP1 JUMPDEST DUP2 SLOAD PUSH1 0x1 PUSH1 0x1 PUSH1 0xA0 SHL SUB AND DUP2 MSTORE PUSH1 0x1 SWAP1 SWAP2 ADD SWAP1 PUSH1 0x20 ADD DUP1 DUP4 GT PUSH2 0x3C1C JUMPI JUMPDEST POP POP POP POP POP SWAP1 POP PUSH1 0x0 DUP2 MLOAD PUSH1 0x1 PUSH1 0x1 PUSH1 0x40 SHL SUB DUP2 GT ISZERO PUSH2 0x3C6A JUMPI PUSH4 0x4E487B71 PUSH1 0xE0 SHL PUSH1 0x0 MSTORE PUSH1 0x41 PUSH1 0x4 MSTORE PUSH1 0x24 PUSH1 0x0 REVERT JUMPDEST PUSH1 0x40 MLOAD SWAP1 DUP1 DUP3 MSTORE DUP1 PUSH1 0x20 MUL PUSH1 0x20 ADD DUP3 ADD PUSH1 0x40 MSTORE DUP1 ISZERO PUSH2 0x3C9D JUMPI DUP2 PUSH1 0x20 ADD JUMPDEST PUSH1 0x60 DUP2 MSTORE PUSH1 0x20 ADD SWAP1 PUSH1 0x1 SWAP1 SUB SWAP1 DUP2 PUSH2 0x3C88 JUMPI SWAP1 POP JUMPDEST POP SWAP1 POP PUSH1 0x0 JUMPDEST DUP3 MLOAD DUP2 LT ISZERO PUSH2 0xF88 JUMPI PUSH1 0x7 PUSH1 0x0 DUP7 DUP2 MSTORE PUSH1 0x20 ADD SWAP1 DUP2 MSTORE PUSH1 0x20 ADD PUSH1 0x0 KECCAK256 PUSH1 0x0 DUP5 DUP4 DUP2 MLOAD DUP2 LT PUSH2 0x3CE1 JUMPI PUSH4 0x4E487B71 PUSH1 0xE0 SHL PUSH1 0x0 MSTORE PUSH1 0x32 PUSH1 0x4 MSTORE PUSH1 0x24 PUSH1 0x0 REVERT JUMPDEST PUSH1 0x20 MUL PUSH1 0x20 ADD ADD MLOAD PUSH1 0x1 PUSH1 0x1 PUSH1 0xA0 SHL SUB AND PUSH1 0x1 PUSH1 0x1 PUSH1 0xA0 SHL SUB AND DUP2 MSTORE PUSH1 0x20 ADD SWAP1 DUP2 MSTORE PUSH1 0x20 ADD PUSH1 0x0 KECCAK256 DUP1 SLOAD PUSH2 0x3D14 SWAP1 PUSH2 0x8B20 JUMP JUMPDEST DUP1 PUSH1 0x1F ADD PUSH1 0x20 DUP1 SWAP2 DIV MUL PUSH1 0x20 ADD PUSH1 0x40 MLOAD SWAP1 DUP2 ADD PUSH1 0x40 MSTORE DUP1 SWAP3 SWAP2 SWAP1 DUP2 DUP2 MSTORE PUSH1 0x20 ADD DUP3 DUP1 SLOAD PUSH2 0x3D40 SWAP1 PUSH2 0x8B20 JUMP JUMPDEST DUP1 ISZERO PUSH2 0x3D8D JUMPI DUP1 PUSH1 0x1F LT PUSH2 0x3D62 JUMPI PUSH2 0x100 DUP1 DUP4 SLOAD DIV MUL DUP4 MSTORE SWAP2 PUSH1 0x20 ADD SWAP2 PUSH2 0x3D8D JUMP JUMPDEST DUP3 ADD SWAP2 SWAP1 PUSH1 0x0 MSTORE PUSH1 0x20 PUSH1 0x0 KECCAK256 SWAP1 JUMPDEST DUP2 SLOAD DUP2 MSTORE SWAP1 PUSH1 0x1 ADD SWAP1 PUSH1 0x20 ADD DUP1 DUP4 GT PUSH2 0x3D70 JUMPI DUP3 SWAP1 SUB PUSH1 0x1F AND DUP3 ADD SWAP2 JUMPDEST POP POP POP POP POP DUP3 DUP3 DUP2 MLOAD DUP2 LT PUSH2 0x3DB2 JUMPI PUSH4 0x4E487B71 PUSH1 0xE0 SHL PUSH1 0x0 MSTORE PUSH1 0x32 PUSH1 0x4 MSTORE PUSH1 0x24 PUSH1 0x0 REVERT JUMPDEST PUSH1 0x20 MUL PUSH1 0x20 ADD ADD DUP2 SWAP1 MSTORE POP DUP1 DUP1 PUSH2 0x3DC8 SWAP1 PUSH2 0x8B5B JUMP JUMPDEST SWAP2 POP POP PUSH2 0x3CA3 JUMP JUMPDEST PUSH1 0x23 SLOAD PUSH1 0x1 PUSH1 0x1 PUSH1 0xA0 SHL SUB AND DUP2 JUMP JUMPDEST PUSH1 0x12 SLOAD PUSH1 0x11 SLOAD PUSH1 0x0 SWAP2 PUSH2 0x3DF1 SWAP2 PUSH2 0x8A8E JUMP JUMPDEST SWAP1 POP SWAP1 JUMP JUMPDEST PUSH1 0x0 PUSH2 0x3E01 DUP3 PUSH2 0x65F3 JUMP JUMPDEST PUSH2 0x3E1D JUMPI PUSH1 0x40 MLOAD PUSH3 0x461BCD PUSH1 0xE5 SHL DUP2 MSTORE PUSH1 0x4 ADD PUSH2 0xE1C SWAP1 PUSH2 0x8448 JUMP JUMPDEST POP PUSH1 0x1 PUSH1 0x1 PUSH1 0xA0 SHL SUB SWAP2 SWAP1 SWAP2 AND PUSH1 0x0 SWAP1 DUP2 MSTORE PUSH1 0x1 PUSH1 0x20 SWAP1 DUP2 MSTORE PUSH1 0x40 DUP1 DUP4 KECCAK256 SWAP4 DUP4 MSTORE SWAP3 SWAP1 MSTORE KECCAK256 SLOAD PUSH1 0xFF AND SWAP1 JUMP JUMPDEST PUSH1 0xB PUSH1 0x20 MSTORE PUSH1 0x0 SWAP1 DUP2 MSTORE PUSH1 0x40 SWAP1 KECCAK256 DUP1 SLOAD PUSH1 0x1 DUP3 ADD SLOAD PUSH1 0x2 DUP4 ADD SLOAD PUSH1 0x3 DUP5 ADD SLOAD PUSH1 0x4 DUP6 ADD SLOAD PUSH1 0x5 DUP7 ADD SLOAD PUSH1 0x6 DUP8 ADD SLOAD PUSH1 0x7 DUP9 ADD SLOAD PUSH1 0x8 DUP10 ADD SLOAD PUSH1 0x9 DUP11 ADD SLOAD PUSH1 0xA DUP12 ADD DUP1 SLOAD SWAP11 SWAP12 SWAP10 SWAP11 SWAP9 SWAP10 SWAP8 SWAP9 SWAP7 SWAP8 PUSH1 0xFF DUP1 DUP9 AND SWAP9 PUSH2 0x100 DUP10 DIV DUP3 AND SWAP9 PUSH3 0x10000 SWAP1 DIV SWAP1 SWAP2 AND SWAP7 SWAP6 SWAP5 SWAP4 SWAP3 SWAP1 PUSH2 0x3EBC SWAP1 PUSH2 0x8B20 JUMP JUMPDEST DUP1 PUSH1 0x1F ADD PUSH1 0x20 DUP1 SWAP2 DIV MUL PUSH1 0x20 ADD PUSH1 0x40 MLOAD SWAP1 DUP2 ADD PUSH1 0x40 MSTORE DUP1 SWAP3 SWAP2 SWAP1 DUP2 DUP2 MSTORE PUSH1 0x20 ADD DUP3 DUP1 SLOAD PUSH2 0x3EE8 SWAP1 PUSH2 0x8B20 JUMP JUMPDEST DUP1 ISZERO PUSH2 0x3F35 JUMPI DUP1 PUSH1 0x1F LT PUSH2 0x3F0A JUMPI PUSH2 0x100 DUP1 DUP4 SLOAD DIV MUL DUP4 MSTORE SWAP2 PUSH1 0x20 ADD SWAP2 PUSH2 0x3F35 JUMP JUMPDEST DUP3 ADD SWAP2 SWAP1 PUSH1 0x0 MSTORE PUSH1 0x20 PUSH1 0x0 KECCAK256 SWAP1 JUMPDEST DUP2 SLOAD DUP2 MSTORE SWAP1 PUSH1 0x1 ADD SWAP1 PUSH1 0x20 ADD DUP1 DUP4 GT PUSH2 0x3F18 JUMPI DUP3 SWAP1 SUB PUSH1 0x1F AND DUP3 ADD SWAP2 JUMPDEST POP POP POP PUSH1 0xB SWAP1 SWAP4 ADD SLOAD SWAP2 SWAP3 POP POP PUSH1 0xFF AND DUP15 JUMP JUMPDEST PUSH1 0x0 DUP1 PUSH2 0x3F55 DUP5 DUP8 PUSH2 0x5105 JUMP JUMPDEST DUP4 LT ISZERO SWAP1 POP PUSH1 0x0 PUSH2 0x3F66 DUP6 DUP8 PUSH2 0x5105 JUMP JUMPDEST DUP5 GT ISZERO DUP1 PUSH2 0x3F72 JUMPI POP DUP6 ISZERO JUMPDEST SWAP1 POP DUP2 DUP1 ISZERO PUSH2 0x3F7E JUMPI POP DUP1 JUMPDEST SWAP8 SWAP7 POP POP POP POP POP POP POP JUMP JUMPDEST PUSH1 0x12 DUP2 DUP2 SLOAD DUP2 LT PUSH2 0x14A1 JUMPI PUSH1 0x0 DUP1 REVERT JUMPDEST PUSH1 0x20 SLOAD PUSH1 0x1 PUSH1 0x1 PUSH1 0xA0 SHL SUB AND DUP2 JUMP JUMPDEST PUSH1 0x17 SLOAD DUP2 JUMP JUMPDEST PUSH1 0x6 PUSH1 0x20 SWAP1 DUP2 MSTORE PUSH1 0x0 SWAP3 DUP4 MSTORE PUSH1 0x40 DUP1 DUP5 KECCAK256 SWAP1 SWAP2 MSTORE SWAP1 DUP3 MSTORE SWAP1 KECCAK256 DUP1 SLOAD PUSH2 0x107E SWAP1 PUSH2 0x8B20 JUMP JUMPDEST PUSH1 0xC PUSH1 0x20 MSTORE PUSH1 0x0 SWAP1 DUP2 MSTORE PUSH1 0x40 SWAP1 KECCAK256 DUP1 SLOAD PUSH1 0x1 DUP3 ADD SLOAD PUSH1 0x2 DUP4 ADD SLOAD PUSH1 0x3 DUP5 ADD SLOAD PUSH1 0x4 DUP6 ADD SLOAD PUSH1 0x5 DUP7 ADD SLOAD PUSH1 0x6 DUP8 ADD SLOAD PUSH1 0x7 DUP9 ADD SLOAD PUSH1 0x8 SWAP1 SWAP9 ADD SLOAD PUSH1 0x1 PUSH1 0x1 PUSH1 0xA0 SHL SUB SWAP1 SWAP8 AND SWAP8 SWAP6 SWAP7 PUSH1 0xFF SWAP6 DUP7 AND SWAP7 SWAP5 SWAP6 SWAP4 SWAP5 DUP4 DUP6 AND SWAP5 PUSH2 0x100 SWAP1 SWAP5 DIV SWAP1 SWAP4 AND SWAP3 SWAP1 DUP11 JUMP JUMPDEST PUSH1 0x0 SLOAD PUSH1 0x1 PUSH1 0x1 PUSH1 0xA0 SHL SUB AND SWAP1 JUMP JUMPDEST PUSH1 0xF PUSH1 0x20 MSTORE DUP2 PUSH1 0x0 MSTORE PUSH1 0x40 PUSH1 0x0 KECCAK256 DUP2 DUP2 SLOAD DUP2 LT PUSH2 0x4060 JUMPI PUSH1 0x0 DUP1 REVERT JUMPDEST PUSH1 0x0 SWAP2 DUP3 MSTORE PUSH1 0x20 SWAP1 SWAP2 KECCAK256 ADD SLOAD PUSH1 0x1 PUSH1 0x1 PUSH1 0xA0 SHL SUB AND SWAP2 POP DUP3 SWAP1 POP JUMP JUMPDEST PUSH1 0x1 PUSH1 0x0 DUP3 DUP2 MSTORE PUSH1 0xB PUSH1 0x20 DUP2 SWAP1 MSTORE PUSH1 0x40 SWAP1 SWAP2 KECCAK256 ADD SLOAD PUSH1 0xFF AND PUSH1 0x3 DUP2 GT ISZERO PUSH2 0x40B3 JUMPI PUSH4 0x4E487B71 PUSH1 0xE0 SHL PUSH1 0x0 MSTORE PUSH1 0x21 PUSH1 0x4 MSTORE PUSH1 0x24 PUSH1 0x0 REVERT JUMPDEST EQ PUSH2 0x40D0 JUMPI PUSH1 0x40 MLOAD PUSH3 0x461BCD PUSH1 0xE5 SHL DUP2 MSTORE PUSH1 0x4 ADD PUSH2 0xE1C SWAP1 PUSH2 0x7C66 JUMP JUMPDEST CALLER PUSH1 0x0 SWAP1 DUP2 MSTORE PUSH1 0x8 PUSH1 0x20 MSTORE PUSH1 0x40 SWAP1 DUP2 SWAP1 KECCAK256 SWAP1 MLOAD PUSH4 0x162A54AF PUSH1 0xE3 SHL DUP2 MSTORE PUSH20 0x0 SWAP2 PUSH4 0xB152A578 SWAP2 PUSH2 0x4118 SWAP2 SWAP1 DUP6 SWAP1 PUSH1 0x4 ADD PUSH2 0x79C0 JUMP JUMPDEST PUSH1 0x20 PUSH1 0x40 MLOAD DUP1 DUP4 SUB DUP2 DUP7 DUP1 EXTCODESIZE ISZERO DUP1 ISZERO PUSH2 0x4130 JUMPI PUSH1 0x0 DUP1 REVERT JUMPDEST POP GAS DELEGATECALL ISZERO DUP1 ISZERO PUSH2 0x4144 JUMPI RETURNDATASIZE PUSH1 0x0 DUP1 RETURNDATACOPY RETURNDATASIZE PUSH1 0x0 REVERT JUMPDEST POP POP POP POP PUSH1 0x40 MLOAD RETURNDATASIZE PUSH1 0x1F NOT PUSH1 0x1F DUP3 ADD AND DUP3 ADD DUP1 PUSH1 0x40 MSTORE POP DUP2 ADD SWAP1 PUSH2 0x4168 SWAP2 SWAP1 PUSH2 0x7571 JUMP JUMPDEST PUSH2 0x4184 JUMPI PUSH1 0x40 MLOAD PUSH3 0x461BCD PUSH1 0xE5 SHL DUP2 MSTORE PUSH1 0x4 ADD PUSH2 0xE1C SWAP1 PUSH2 0x8051 JUMP JUMPDEST CALLER PUSH1 0x0 SWAP1 DUP2 MSTORE PUSH1 0x8 PUSH1 0x20 MSTORE PUSH1 0x40 SWAP1 DUP2 SWAP1 KECCAK256 SWAP1 MLOAD PUSH4 0x4DAB4765 PUSH1 0xE0 SHL DUP2 MSTORE PUSH20 0x0 SWAP2 PUSH4 0x4DAB4765 SWAP2 PUSH2 0x41CC SWAP2 SWAP1 DUP6 SWAP1 PUSH1 0x4 ADD PUSH2 0x79C0 JUMP JUMPDEST PUSH1 0x0 PUSH1 0x40 MLOAD DUP1 DUP4 SUB DUP2 DUP7 DUP1 EXTCODESIZE ISZERO DUP1 ISZERO PUSH2 0x41E4 JUMPI PUSH1 0x0 DUP1 REVERT JUMPDEST POP GAS DELEGATECALL ISZERO DUP1 ISZERO PUSH2 0x41F8 JUMPI RETURNDATASIZE PUSH1 0x0 DUP1 RETURNDATACOPY RETURNDATASIZE PUSH1 0x0 REVERT JUMPDEST POP POP PUSH1 0x40 MLOAD CALLER SWAP3 POP DUP4 SWAP2 POP PUSH32 0x402507661C8C8CB90E0A796450B8BDD28B6C516F05279C0CD29E84C344E1699A SWAP1 PUSH1 0x0 SWAP1 LOG3 POP JUMP JUMPDEST PUSH1 0x1B SLOAD DUP2 JUMP JUMPDEST PUSH1 0x0 JUMPDEST DUP2 MLOAD DUP2 LT ISZERO PUSH2 0x4280 JUMPI PUSH2 0x426E DUP3 DUP3 DUP2 MLOAD DUP2 LT PUSH2 0x4261 JUMPI PUSH4 0x4E487B71 PUSH1 0xE0 SHL PUSH1 0x0 MSTORE PUSH1 0x32 PUSH1 0x4 MSTORE PUSH1 0x24 PUSH1 0x0 REVERT JUMPDEST PUSH1 0x20 MUL PUSH1 0x20 ADD ADD MLOAD PUSH2 0x407C JUMP JUMPDEST DUP1 PUSH2 0x4278 DUP2 PUSH2 0x8B5B JUMP JUMPDEST SWAP2 POP POP PUSH2 0x4235 JUMP JUMPDEST POP POP JUMP JUMPDEST PUSH1 0x0 DUP2 DUP2 MSTORE PUSH1 0xB PUSH1 0x20 MSTORE PUSH1 0x40 DUP2 KECCAK256 PUSH1 0x9 DUP2 ADD SLOAD PUSH1 0x8 SWAP1 SWAP2 ADD SLOAD DUP3 SWAP2 PUSH2 0x1446 SWAP2 PUSH2 0x8A8E JUMP JUMPDEST PUSH1 0x0 DUP3 DUP3 PUSH1 0x40 MLOAD PUSH1 0x20 ADD PUSH2 0x42BD SWAP3 SWAP2 SWAP1 PUSH2 0x7979 JUMP JUMPDEST PUSH1 0x40 MLOAD PUSH1 0x20 DUP2 DUP4 SUB SUB DUP2 MSTORE SWAP1 PUSH1 0x40 MSTORE DUP1 MLOAD SWAP1 PUSH1 0x20 ADD KECCAK256 SWAP1 POP SWAP3 SWAP2 POP POP JUMP JUMPDEST PUSH1 0x1B SLOAD SWAP1 JUMP JUMPDEST PUSH1 0x1C SLOAD DUP2 JUMP JUMPDEST PUSH1 0x0 PUSH2 0x42F2 DUP3 PUSH2 0x65F3 JUMP JUMPDEST PUSH2 0x430E JUMPI PUSH1 0x40 MLOAD PUSH3 0x461BCD PUSH1 0xE5 SHL DUP2 MSTORE PUSH1 0x4 ADD PUSH2 0xE1C SWAP1 PUSH2 0x8448 JUMP JUMPDEST PUSH1 0x0 DUP3 DUP2 MSTORE PUSH1 0xB PUSH1 0x20 MSTORE PUSH1 0x40 SWAP1 KECCAK256 PUSH1 0x6 ADD SLOAD PUSH2 0x4329 SWAP1 PUSH2 0x554B JUMP JUMPDEST ISZERO DUP1 ISZERO PUSH2 0x1147 JUMPI POP POP PUSH1 0x0 SWAP1 DUP2 MSTORE PUSH1 0xB PUSH1 0x20 MSTORE PUSH1 0x40 SWAP1 KECCAK256 PUSH1 0x2 ADD SLOAD ISZERO ISZERO SWAP1 JUMP JUMPDEST PUSH2 0x4351 PUSH2 0x66E4 JUMP JUMPDEST PUSH2 0x435A DUP6 PUSH2 0x42E7 JUMP JUMPDEST PUSH2 0x4376 JUMPI PUSH1 0x40 MLOAD PUSH3 0x461BCD PUSH1 0xE5 SHL DUP2 MSTORE PUSH1 0x4 ADD PUSH2 0xE1C SWAP1 PUSH2 0x7E25 JUMP JUMPDEST CALLER PUSH1 0x0 SWAP1 DUP2 MSTORE PUSH1 0x1 PUSH1 0x20 SWAP1 DUP2 MSTORE PUSH1 0x40 DUP1 DUP4 KECCAK256 DUP9 DUP5 MSTORE SWAP1 SWAP2 MSTORE SWAP1 KECCAK256 SLOAD PUSH1 0xFF AND ISZERO PUSH2 0x43B1 JUMPI PUSH1 0x40 MLOAD PUSH3 0x461BCD PUSH1 0xE5 SHL DUP2 MSTORE PUSH1 0x4 ADD PUSH2 0xE1C SWAP1 PUSH2 0x84ED JUMP JUMPDEST PUSH2 0x43BB DUP6 CALLER PUSH2 0x519A JUMP JUMPDEST PUSH2 0x43D7 JUMPI PUSH1 0x40 MLOAD PUSH3 0x461BCD PUSH1 0xE5 SHL DUP2 MSTORE PUSH1 0x4 ADD PUSH2 0xE1C SWAP1 PUSH2 0x7E91 JUMP JUMPDEST PUSH1 0x26 SLOAD PUSH1 0x40 DUP1 MLOAD PUSH4 0x23AEA691 PUSH1 0xE0 SHL DUP2 MSTORE SWAP1 MLOAD PUSH1 0x0 SWAP3 PUSH1 0x1 PUSH1 0x1 PUSH1 0xA0 SHL SUB AND SWAP2 PUSH4 0x23AEA691 SWAP2 PUSH1 0x4 DUP1 DUP4 ADD SWAP3 PUSH1 0x20 SWAP3 SWAP2 SWAP1 DUP3 SWAP1 SUB ADD DUP2 DUP7 DUP1 EXTCODESIZE ISZERO DUP1 ISZERO PUSH2 0x441C JUMPI PUSH1 0x0 DUP1 REVERT JUMPDEST POP GAS STATICCALL ISZERO DUP1 ISZERO PUSH2 0x4430 JUMPI RETURNDATASIZE PUSH1 0x0 DUP1 RETURNDATACOPY RETURNDATASIZE PUSH1 0x0 REVERT JUMPDEST POP POP POP POP PUSH1 0x40 MLOAD RETURNDATASIZE PUSH1 0x1F NOT PUSH1 0x1F DUP3 ADD AND DUP3 ADD DUP1 PUSH1 0x40 MSTORE POP DUP2 ADD SWAP1 PUSH2 0x4454 SWAP2 SWAP1 PUSH2 0x775E JUMP JUMPDEST PUSH1 0x23 SLOAD PUSH1 0x40 MLOAD PUSH4 0x792F4F69 PUSH1 0xE1 SHL DUP2 MSTORE SWAP2 SWAP3 POP PUSH1 0x0 SWAP2 PUSH1 0x1 PUSH1 0x1 PUSH1 0xA0 SHL SUB SWAP1 SWAP2 AND SWAP1 PUSH4 0xF25E9ED2 SWAP1 PUSH2 0x448A SWAP1 CALLER SWAP1 PUSH1 0x4 ADD PUSH2 0x79CE JUMP JUMPDEST PUSH1 0x20 PUSH1 0x40 MLOAD DUP1 DUP4 SUB DUP2 DUP7 DUP1 EXTCODESIZE ISZERO DUP1 ISZERO PUSH2 0x44A2 JUMPI PUSH1 0x0 DUP1 REVERT JUMPDEST POP GAS STATICCALL ISZERO DUP1 ISZERO PUSH2 0x44B6 JUMPI RETURNDATASIZE PUSH1 0x0 DUP1 RETURNDATACOPY RETURNDATASIZE PUSH1 0x0 REVERT JUMPDEST POP POP POP POP PUSH1 0x40 MLOAD RETURNDATASIZE PUSH1 0x1F NOT PUSH1 0x1F DUP3 ADD AND DUP3 ADD DUP1 PUSH1 0x40 MSTORE POP DUP2 ADD SWAP1 PUSH2 0x44DA SWAP2 SWAP1 PUSH2 0x7450 JUMP JUMPDEST CALLER PUSH1 0x0 SWAP1 DUP2 MSTORE PUSH1 0xD PUSH1 0x20 MSTORE PUSH1 0x40 SWAP1 KECCAK256 SLOAD SWAP1 SWAP2 POP DUP3 GT ISZERO PUSH2 0x4583 JUMPI PUSH1 0x1 PUSH1 0x1 PUSH1 0xA0 SHL SUB DUP2 AND ISZERO PUSH2 0x455A JUMPI PUSH1 0x1 PUSH1 0x1 PUSH1 0xA0 SHL SUB DUP2 AND PUSH1 0x0 SWAP1 DUP2 MSTORE PUSH1 0xD PUSH1 0x20 MSTORE PUSH1 0x40 SWAP1 KECCAK256 SLOAD DUP3 GT ISZERO PUSH2 0x4555 JUMPI PUSH1 0x1 PUSH1 0x1 PUSH1 0xA0 SHL SUB DUP2 AND PUSH1 0x0 SWAP1 DUP2 MSTORE PUSH1 0xD PUSH1 0x20 MSTORE PUSH1 0x40 DUP2 KECCAK256 SLOAD PUSH2 0x4547 SWAP1 DUP5 SWAP1 PUSH2 0x6AF4 JUMP JUMPDEST SWAP1 POP PUSH2 0x4553 DUP2 DUP4 PUSH2 0x6C62 JUMP JUMPDEST POP JUMPDEST PUSH2 0x4583 JUMP JUMPDEST CALLER PUSH1 0x0 SWAP1 DUP2 MSTORE PUSH1 0xD PUSH1 0x20 MSTORE PUSH1 0x40 DUP2 KECCAK256 SLOAD PUSH2 0x4575 SWAP1 DUP5 SWAP1 PUSH2 0x6AF4 JUMP JUMPDEST SWAP1 POP PUSH2 0x4581 DUP2 CALLER PUSH2 0x6C62 JUMP JUMPDEST POP JUMPDEST CALLER PUSH1 0x0 SWAP1 DUP2 MSTORE PUSH1 0xD PUSH1 0x20 MSTORE PUSH1 0x40 SWAP1 KECCAK256 SLOAD DUP3 GT ISZERO PUSH2 0x45B2 JUMPI PUSH1 0x40 MLOAD PUSH3 0x461BCD PUSH1 0xE5 SHL DUP2 MSTORE PUSH1 0x4 ADD PUSH2 0xE1C SWAP1 PUSH2 0x8578 JUMP JUMPDEST PUSH1 0x0 CALLER PUSH1 0x0 SWAP1 DUP2 MSTORE PUSH1 0x8 PUSH1 0x20 MSTORE PUSH1 0x40 DUP1 DUP3 KECCAK256 SWAP1 MLOAD PUSH4 0x1B23AFEF PUSH1 0xE2 SHL DUP2 MSTORE PUSH20 0x0 SWAP2 PUSH4 0x6C8EBFBC SWAP2 PUSH2 0x45FB SWAP2 SWAP1 DUP7 SWAP1 PUSH1 0x4 ADD PUSH2 0x79C0 JUMP JUMPDEST PUSH1 0x20 PUSH1 0x40 MLOAD DUP1 DUP4 SUB DUP2 DUP7 DUP1 EXTCODESIZE ISZERO DUP1 ISZERO PUSH2 0x4613 JUMPI PUSH1 0x0 DUP1 REVERT JUMPDEST POP GAS DELEGATECALL ISZERO DUP1 ISZERO PUSH2 0x4627 JUMPI RETURNDATASIZE PUSH1 0x0 DUP1 RETURNDATACOPY RETURNDATASIZE PUSH1 0x0 REVERT JUMPDEST POP POP POP POP PUSH1 0x40 MLOAD RETURNDATASIZE PUSH1 0x1F NOT PUSH1 0x1F DUP3 ADD AND DUP3 ADD DUP1 PUSH1 0x40 MSTORE POP DUP2 ADD SWAP1 PUSH2 0x464B SWAP2 SWAP1 PUSH2 0x775E JUMP JUMPDEST SWAP1 POP DUP9 DUP2 EQ ISZERO PUSH2 0x46F0 JUMPI CALLER PUSH1 0x0 SWAP1 DUP2 MSTORE PUSH1 0x8 PUSH1 0x20 MSTORE PUSH1 0x40 SWAP1 DUP2 SWAP1 KECCAK256 SWAP1 MLOAD PUSH4 0x1B23AFEF PUSH1 0xE2 SHL DUP2 MSTORE PUSH20 0x0 SWAP2 PUSH4 0x6C8EBFBC SWAP2 PUSH2 0x469D SWAP2 SWAP1 DUP14 SWAP1 PUSH1 0x4 ADD PUSH2 0x79C0 JUMP JUMPDEST PUSH1 0x20 PUSH1 0x40 MLOAD DUP1 DUP4 SUB DUP2 DUP7 DUP1 EXTCODESIZE ISZERO DUP1 ISZERO PUSH2 0x46B5 JUMPI PUSH1 0x0 DUP1 REVERT JUMPDEST POP GAS DELEGATECALL ISZERO DUP1 ISZERO PUSH2 0x46C9 JUMPI RETURNDATASIZE PUSH1 0x0 DUP1 RETURNDATACOPY RETURNDATASIZE PUSH1 0x0 REVERT JUMPDEST POP POP POP POP PUSH1 0x40 MLOAD RETURNDATASIZE PUSH1 0x1F NOT PUSH1 0x1F DUP3 ADD AND DUP3 ADD DUP1 PUSH1 0x40 MSTORE POP DUP2 ADD SWAP1 PUSH2 0x46ED SWAP2 SWAP1 PUSH2 0x775E JUMP JUMPDEST SWAP1 POP JUMPDEST PUSH2 0x46FC DUP3 DUP3 CALLER DUP8 PUSH2 0x3F48 JUMP JUMPDEST PUSH2 0x4718 JUMPI PUSH1 0x40 MLOAD PUSH3 0x461BCD PUSH1 0xE5 SHL DUP2 MSTORE PUSH1 0x4 ADD PUSH2 0xE1C SWAP1 PUSH2 0x80F9 JUMP JUMPDEST CALLER PUSH1 0x0 SWAP1 DUP2 MSTORE PUSH1 0x8 PUSH1 0x20 MSTORE PUSH1 0x40 SWAP1 DUP2 SWAP1 KECCAK256 SWAP1 MLOAD PUSH4 0xF3A19983 PUSH1 0xE0 SHL DUP2 MSTORE PUSH20 0x0 SWAP2 PUSH4 0xF3A19983 SWAP2 PUSH2 0x4764 SWAP2 SWAP1 DUP7 SWAP1 DUP15 SWAP1 DUP8 SWAP1 PUSH1 0x4 ADD PUSH2 0x893C JUMP JUMPDEST PUSH1 0x0 PUSH1 0x40 MLOAD DUP1 DUP4 SUB DUP2 DUP7 DUP1 EXTCODESIZE ISZERO DUP1 ISZERO PUSH2 0x477C JUMPI PUSH1 0x0 DUP1 REVERT JUMPDEST POP GAS DELEGATECALL ISZERO DUP1 ISZERO PUSH2 0x4790 JUMPI RETURNDATASIZE PUSH1 0x0 DUP1 RETURNDATACOPY RETURNDATASIZE PUSH1 0x0 REVERT JUMPDEST POP POP POP POP PUSH1 0x0 PUSH2 0x47A0 CALLER DUP12 PUSH2 0x42A8 JUMP JUMPDEST PUSH1 0x40 MLOAD PUSH4 0x3416D70D PUSH1 0xE2 SHL DUP2 MSTORE SWAP1 SWAP2 POP PUSH20 0x0 SWAP1 PUSH4 0xD05B5C34 SWAP1 PUSH2 0x47DF SWAP1 PUSH1 0x9 SWAP1 DUP6 SWAP1 DUP11 SWAP1 PUSH1 0x4 ADD PUSH2 0x891E JUMP JUMPDEST PUSH1 0x0 PUSH1 0x40 MLOAD DUP1 DUP4 SUB DUP2 DUP7 DUP1 EXTCODESIZE ISZERO DUP1 ISZERO PUSH2 0x47F7 JUMPI PUSH1 0x0 DUP1 REVERT JUMPDEST POP GAS DELEGATECALL ISZERO DUP1 ISZERO PUSH2 0x480B JUMPI RETURNDATASIZE PUSH1 0x0 DUP1 RETURNDATACOPY RETURNDATASIZE PUSH1 0x0 REVERT JUMPDEST POP POP PUSH1 0x40 MLOAD PUSH4 0x3416D70D PUSH1 0xE2 SHL DUP2 MSTORE PUSH20 0x0 SWAP3 POP PUSH4 0xD05B5C34 SWAP2 POP PUSH2 0x484B SWAP1 PUSH1 0x9 SWAP1 DUP6 SWAP1 DUP15 SWAP1 PUSH1 0x4 ADD PUSH2 0x88D2 JUMP JUMPDEST PUSH1 0x0 PUSH1 0x40 MLOAD DUP1 DUP4 SUB DUP2 DUP7 DUP1 EXTCODESIZE ISZERO DUP1 ISZERO PUSH2 0x4863 JUMPI PUSH1 0x0 DUP1 REVERT JUMPDEST POP GAS DELEGATECALL ISZERO DUP1 ISZERO PUSH2 0x4877 JUMPI RETURNDATASIZE PUSH1 0x0 DUP1 RETURNDATACOPY RETURNDATASIZE PUSH1 0x0 REVERT JUMPDEST POP POP POP PUSH1 0x0 DUP12 DUP2 MSTORE PUSH1 0x5 PUSH1 0x20 SWAP1 DUP2 MSTORE PUSH1 0x40 DUP1 DUP4 KECCAK256 CALLER DUP1 DUP6 MSTORE SWAP1 DUP4 MSTORE DUP2 DUP5 KECCAK256 DUP14 SWAP1 SSTORE DUP15 DUP5 MSTORE PUSH1 0x6 DUP4 MSTORE DUP2 DUP5 KECCAK256 SWAP1 DUP5 MSTORE DUP3 MSTORE SWAP1 SWAP2 KECCAK256 DUP10 MLOAD PUSH2 0x48BB SWAP4 POP SWAP1 SWAP2 DUP11 ADD SWAP1 PUSH2 0x71B5 JUMP JUMPDEST POP PUSH1 0x0 DUP11 DUP2 MSTORE PUSH1 0x7 PUSH1 0x20 SWAP1 DUP2 MSTORE PUSH1 0x40 DUP1 DUP4 KECCAK256 CALLER DUP5 MSTORE DUP3 MSTORE SWAP1 SWAP2 KECCAK256 DUP8 MLOAD PUSH2 0x48E3 SWAP3 DUP10 ADD SWAP1 PUSH2 0x71B5 JUMP JUMPDEST POP CALLER PUSH1 0x0 SWAP1 DUP2 MSTORE PUSH1 0xC PUSH1 0x20 SWAP1 DUP2 MSTORE PUSH1 0x40 DUP1 DUP4 KECCAK256 DUP14 DUP5 MSTORE PUSH1 0xB SWAP1 SWAP3 MSTORE SWAP1 SWAP2 KECCAK256 PUSH1 0x2 ADD SLOAD PUSH2 0x4910 SWAP1 PUSH1 0x1 PUSH2 0x6AF4 JUMP JUMPDEST PUSH1 0x0 DUP13 DUP2 MSTORE PUSH1 0xB PUSH1 0x20 SWAP1 DUP2 MSTORE PUSH1 0x40 DUP1 DUP4 KECCAK256 PUSH1 0x2 ADD SWAP4 SWAP1 SWAP4 SSTORE TIMESTAMP PUSH1 0x4 DUP6 ADD SSTORE CALLER DUP3 MSTORE PUSH1 0x1 DUP1 DUP3 MSTORE DUP4 DUP4 KECCAK256 DUP16 DUP5 MSTORE SWAP1 SWAP2 MSTORE SWAP2 DUP2 KECCAK256 DUP1 SLOAD PUSH1 0xFF NOT AND DUP4 OR SWAP1 SSTORE PUSH1 0x1A DUP1 SLOAD SWAP1 SWAP2 SWAP1 PUSH2 0x495E SWAP1 DUP5 SWAP1 PUSH2 0x8A8E JUMP JUMPDEST SWAP1 SWAP2 SSTORE POP POP PUSH1 0x40 MLOAD CALLER SWAP1 DUP13 SWAP1 PUSH32 0x1B5C5140592C554FA4C0CDB5B3D3CD50F87AA84E477AFD0B6C93D7702EF9C73C SWAP1 PUSH2 0x4997 SWAP1 DUP11 SWAP1 PUSH2 0x799B JUMP JUMPDEST PUSH1 0x40 MLOAD DUP1 SWAP2 SUB SWAP1 LOG3 POP POP POP POP POP POP POP POP POP POP POP JUMP JUMPDEST PUSH1 0x15 SLOAD SWAP1 JUMP JUMPDEST PUSH1 0x0 DUP2 PUSH1 0x40 MLOAD PUSH1 0x20 ADD PUSH2 0x49C5 SWAP2 SWAP1 PUSH2 0x79A4 JUMP JUMPDEST PUSH1 0x40 MLOAD PUSH1 0x20 DUP2 DUP4 SUB SUB DUP2 MSTORE SWAP1 PUSH1 0x40 MSTORE DUP1 MLOAD SWAP1 PUSH1 0x20 ADD KECCAK256 DUP4 PUSH1 0x40 MLOAD PUSH1 0x20 ADD PUSH2 0x49EC SWAP2 SWAP1 PUSH2 0x79A4 JUMP JUMPDEST PUSH1 0x40 MLOAD PUSH1 0x20 DUP2 DUP4 SUB SUB DUP2 MSTORE SWAP1 PUSH1 0x40 MSTORE DUP1 MLOAD SWAP1 PUSH1 0x20 ADD KECCAK256 EQ ISZERO PUSH2 0x4A10 JUMPI POP PUSH1 0x1 PUSH2 0x1147 JUMP JUMPDEST POP PUSH1 0x0 PUSH2 0x1147 JUMP JUMPDEST PUSH1 0x0 PUSH2 0x4A23 DUP3 PUSH2 0x65F3 JUMP JUMPDEST PUSH2 0x4A3F JUMPI PUSH1 0x40 MLOAD PUSH3 0x461BCD PUSH1 0xE5 SHL DUP2 MSTORE PUSH1 0x4 ADD PUSH2 0xE1C SWAP1 PUSH2 0x8448 JUMP JUMPDEST POP PUSH1 0x1 PUSH1 0x1 PUSH1 0xA0 SHL SUB SWAP2 SWAP1 SWAP2 AND PUSH1 0x0 SWAP1 DUP2 MSTORE PUSH1 0x2 PUSH1 0x20 SWAP1 DUP2 MSTORE PUSH1 0x40 DUP1 DUP4 KECCAK256 SWAP4 DUP4 MSTORE SWAP3 SWAP1 MSTORE KECCAK256 SLOAD PUSH1 0xFF AND SWAP1 JUMP JUMPDEST PUSH1 0x0 DUP1 TIMESTAMP COINBASE PUSH1 0x40 MLOAD PUSH1 0x20 ADD PUSH2 0x4A80 SWAP2 SWAP1 PUSH2 0x795C JUMP JUMPDEST PUSH1 0x40 MLOAD PUSH1 0x20 DUP2 DUP4 SUB SUB DUP2 MSTORE SWAP1 PUSH1 0x40 MSTORE DUP1 MLOAD SWAP1 PUSH1 0x20 ADD KECCAK256 PUSH1 0x0 SHR PUSH2 0x4AA3 SWAP2 SWAP1 PUSH2 0x8AA6 JUMP JUMPDEST DIFFICULTY PUSH2 0x4AAC PUSH2 0x14CD JUMP JUMPDEST PUSH1 0x40 MLOAD PUSH1 0x20 ADD PUSH2 0x4ABC SWAP2 SWAP1 PUSH2 0x799B JUMP JUMPDEST PUSH1 0x40 DUP1 MLOAD PUSH1 0x1F NOT DUP2 DUP5 SUB ADD DUP2 MSTORE SWAP2 SWAP1 MSTORE DUP1 MLOAD PUSH1 0x20 SWAP1 SWAP2 ADD KECCAK256 PUSH2 0x4ADE SWAP1 TIMESTAMP PUSH2 0x8A8E JUMP JUMPDEST PUSH2 0x4AE8 SWAP2 SWAP1 PUSH2 0x8A8E JUMP JUMPDEST PUSH2 0x4AF2 SWAP2 SWAP1 PUSH2 0x8A8E JUMP JUMPDEST PUSH1 0x40 MLOAD PUSH1 0x20 ADD PUSH2 0x4B02 SWAP2 SWAP1 PUSH2 0x799B JUMP JUMPDEST PUSH1 0x40 DUP1 MLOAD PUSH1 0x1F NOT DUP2 DUP5 SUB ADD DUP2 MSTORE SWAP2 SWAP1 MSTORE DUP1 MLOAD PUSH1 0x20 SWAP1 SWAP2 ADD KECCAK256 SWAP2 POP POP SWAP1 JUMP JUMPDEST PUSH1 0x14 SLOAD PUSH1 0x1 PUSH1 0x1 PUSH1 0xA0 SHL SUB AND DUP2 JUMP JUMPDEST PUSH1 0x13 DUP2 DUP2 SLOAD DUP2 LT PUSH2 0x14A1 JUMPI PUSH1 0x0 DUP1 REVERT JUMPDEST PUSH1 0x1 PUSH1 0x1 PUSH1 0xA0 SHL SUB DUP1 DUP3 AND PUSH1 0x0 SWAP1 DUP2 MSTORE PUSH1 0xC PUSH1 0x20 SWAP1 DUP2 MSTORE PUSH1 0x40 DUP1 DUP4 KECCAK256 DUP2 MLOAD PUSH2 0x140 DUP2 ADD DUP4 MSTORE DUP2 SLOAD SWAP1 SWAP6 AND DUP6 MSTORE PUSH1 0x1 DUP2 ADD SLOAD SWAP3 DUP6 ADD SWAP3 SWAP1 SWAP3 MSTORE PUSH1 0x2 DUP3 ADD SLOAD PUSH1 0xFF SWAP1 DUP2 AND ISZERO DUP1 ISZERO SWAP3 DUP7 ADD DUP4 SWAP1 MSTORE PUSH1 0x3 DUP5 ADD SLOAD PUSH1 0x60 DUP8 ADD MSTORE PUSH1 0x4 DUP5 ADD SLOAD PUSH1 0x80 DUP8 ADD MSTORE PUSH1 0x5 DUP5 ADD SLOAD DUP1 DUP4 AND ISZERO ISZERO PUSH1 0xA0 DUP9 ADD MSTORE PUSH2 0x100 SWAP1 DUP2 SWAP1 DIV SWAP1 SWAP3 AND ISZERO ISZERO PUSH1 0xC0 DUP8 ADD MSTORE PUSH1 0x6 DUP5 ADD SLOAD PUSH1 0xE0 DUP8 ADD MSTORE PUSH1 0x7 DUP5 ADD SLOAD SWAP2 DUP7 ADD SWAP2 SWAP1 SWAP2 MSTORE PUSH1 0x8 SWAP1 SWAP3 ADD SLOAD PUSH2 0x120 DUP6 ADD MSTORE SWAP2 SWAP3 DUP4 SWAP3 SWAP1 SWAP2 SWAP1 PUSH2 0x4BFB JUMPI POP PUSH2 0x4BF9 DUP2 PUSH1 0x20 ADD MLOAD PUSH2 0x1105 JUMP JUMPDEST ISZERO JUMPDEST ISZERO PUSH2 0x4C05 JUMPI PUSH1 0x1 SWAP2 POP JUMPDEST POP SWAP3 SWAP2 POP POP JUMP JUMPDEST PUSH1 0x60 PUSH1 0x0 DUP3 GT PUSH2 0x4C1B JUMPI PUSH1 0x0 DUP1 REVERT JUMPDEST PUSH1 0x0 COINBASE PUSH1 0x40 MLOAD PUSH1 0x20 ADD PUSH2 0x4C2E SWAP2 SWAP1 PUSH2 0x795C JUMP JUMPDEST PUSH1 0x40 MLOAD PUSH1 0x20 DUP2 DUP4 SUB SUB DUP2 MSTORE SWAP1 PUSH1 0x40 MSTORE DUP1 MLOAD SWAP1 PUSH1 0x20 ADD KECCAK256 PUSH1 0x0 SHR PUSH2 0x4C4F PUSH2 0x14CD JUMP JUMPDEST PUSH1 0x40 MLOAD PUSH1 0x20 ADD PUSH2 0x4C5F SWAP2 SWAP1 PUSH2 0x799B JUMP JUMPDEST PUSH1 0x40 DUP1 MLOAD PUSH1 0x1F NOT DUP2 DUP5 SUB ADD DUP2 MSTORE SWAP2 SWAP1 MSTORE DUP1 MLOAD PUSH1 0x20 SWAP1 SWAP2 ADD KECCAK256 PUSH2 0x4C81 SWAP1 TIMESTAMP PUSH2 0x8A8E JUMP JUMPDEST PUSH2 0x4C8B SWAP2 SWAP1 PUSH2 0x8A8E JUMP JUMPDEST PUSH1 0x40 MLOAD PUSH1 0x20 ADD PUSH2 0x4C9B SWAP2 SWAP1 PUSH2 0x799B JUMP JUMPDEST PUSH1 0x40 MLOAD PUSH1 0x20 DUP2 DUP4 SUB SUB DUP2 MSTORE SWAP1 PUSH1 0x40 MSTORE DUP1 MLOAD SWAP1 PUSH1 0x20 ADD KECCAK256 PUSH1 0x0 SHR SWAP1 POP PUSH1 0x0 DUP5 PUSH1 0x1 PUSH1 0x1 PUSH1 0x40 SHL SUB DUP2 GT ISZERO PUSH2 0x4CDE JUMPI PUSH4 0x4E487B71 PUSH1 0xE0 SHL PUSH1 0x0 MSTORE PUSH1 0x41 PUSH1 0x4 MSTORE PUSH1 0x24 PUSH1 0x0 REVERT JUMPDEST PUSH1 0x40 MLOAD SWAP1 DUP1 DUP3 MSTORE DUP1 PUSH1 0x20 MUL PUSH1 0x20 ADD DUP3 ADD PUSH1 0x40 MSTORE DUP1 ISZERO PUSH2 0x4D07 JUMPI DUP2 PUSH1 0x20 ADD PUSH1 0x20 DUP3 MUL DUP1 CALLDATASIZE DUP4 CALLDATACOPY ADD SWAP1 POP JUMPDEST POP SWAP1 POP PUSH1 0x0 DUP1 JUMPDEST DUP7 DUP3 LT ISZERO PUSH2 0x4E08 JUMPI PUSH1 0x0 DUP7 PUSH2 0x4D27 PUSH4 0x17EFEEB DUP8 PUSH2 0x8AD9 JUMP JUMPDEST DUP4 PUSH1 0x40 MLOAD PUSH1 0x20 ADD PUSH2 0x4D39 SWAP3 SWAP2 SWAP1 PUSH2 0x79C0 JUMP JUMPDEST PUSH1 0x40 MLOAD PUSH1 0x20 DUP2 DUP4 SUB SUB DUP2 MSTORE SWAP1 PUSH1 0x40 MSTORE DUP1 MLOAD SWAP1 PUSH1 0x20 ADD KECCAK256 PUSH1 0x0 SHR PUSH2 0x4D5C SWAP2 SWAP1 PUSH2 0x8B76 JUMP JUMPDEST SWAP1 POP PUSH1 0x0 DUP1 JUMPDEST DUP5 DUP2 LT ISZERO PUSH2 0x4DB4 JUMPI DUP3 DUP7 DUP3 DUP2 MLOAD DUP2 LT PUSH2 0x4D8B JUMPI PUSH4 0x4E487B71 PUSH1 0xE0 SHL PUSH1 0x0 MSTORE PUSH1 0x32 PUSH1 0x4 MSTORE PUSH1 0x24 PUSH1 0x0 REVERT JUMPDEST PUSH1 0x20 MUL PUSH1 0x20 ADD ADD MLOAD EQ ISZERO PUSH2 0x4DA2 JUMPI PUSH1 0x1 SWAP2 POP PUSH2 0x4DB4 JUMP JUMPDEST DUP1 PUSH2 0x4DAC DUP2 PUSH2 0x8B5B JUMP JUMPDEST SWAP2 POP POP PUSH2 0x4D62 JUMP JUMPDEST POP DUP1 PUSH2 0x4DF4 JUMPI DUP2 DUP6 DUP6 DUP2 MLOAD DUP2 LT PUSH2 0x4DDB JUMPI PUSH4 0x4E487B71 PUSH1 0xE0 SHL PUSH1 0x0 MSTORE PUSH1 0x32 PUSH1 0x4 MSTORE PUSH1 0x24 PUSH1 0x0 REVERT JUMPDEST PUSH1 0x20 SWAP1 DUP2 MUL SWAP2 SWAP1 SWAP2 ADD ADD MSTORE PUSH2 0x4DF1 DUP5 PUSH1 0x1 PUSH2 0x8A8E JUMP JUMPDEST SWAP4 POP JUMPDEST PUSH2 0x4DFF DUP4 PUSH1 0x1 PUSH2 0x8A8E JUMP JUMPDEST SWAP3 POP POP POP PUSH2 0x4D0E JUMP JUMPDEST POP SWAP1 SWAP6 SWAP5 POP POP POP POP POP JUMP JUMPDEST PUSH1 0x0 PUSH2 0x4E1E DUP4 PUSH2 0x1105 JUMP JUMPDEST PUSH2 0x4E3A JUMPI PUSH1 0x40 MLOAD PUSH3 0x461BCD PUSH1 0xE5 SHL DUP2 MSTORE PUSH1 0x4 ADD PUSH2 0xE1C SWAP1 PUSH2 0x866D JUMP JUMPDEST PUSH1 0x1 PUSH1 0x1 PUSH1 0xA0 SHL SUB DUP5 AND PUSH1 0x0 SWAP1 DUP2 MSTORE PUSH1 0x2 PUSH1 0x20 SWAP1 DUP2 MSTORE PUSH1 0x40 DUP1 DUP4 KECCAK256 DUP7 DUP5 MSTORE SWAP1 SWAP2 MSTORE SWAP1 KECCAK256 SLOAD PUSH1 0xFF AND PUSH2 0x4E7D JUMPI PUSH1 0x40 MLOAD PUSH3 0x461BCD PUSH1 0xE5 SHL DUP2 MSTORE PUSH1 0x4 ADD PUSH2 0xE1C SWAP1 PUSH2 0x80AE JUMP JUMPDEST PUSH1 0x0 PUSH2 0x4E88 DUP5 PUSH2 0x1E5C JUMP JUMPDEST PUSH2 0x4E93 JUMPI PUSH1 0x0 PUSH2 0x4E96 JUMP JUMPDEST PUSH1 0x1 JUMPDEST PUSH1 0xFF AND SWAP1 POP PUSH1 0x0 DUP2 DUP5 PUSH1 0x40 MLOAD PUSH1 0x20 ADD PUSH2 0x4EB0 SWAP3 SWAP2 SWAP1 PUSH2 0x79C0 JUMP JUMPDEST PUSH1 0x40 MLOAD PUSH1 0x20 DUP2 DUP4 SUB SUB DUP2 MSTORE SWAP1 PUSH1 0x40 MSTORE DUP1 MLOAD SWAP1 PUSH1 0x20 ADD KECCAK256 SWAP1 POP PUSH1 0x0 PUSH2 0x4ED4 DUP8 DUP8 PUSH2 0x5506 JUMP JUMPDEST SWAP1 POP DUP1 DUP3 EQ PUSH2 0x4EF5 JUMPI PUSH1 0x40 MLOAD PUSH3 0x461BCD PUSH1 0xE5 SHL DUP2 MSTORE PUSH1 0x4 ADD PUSH2 0xE1C SWAP1 PUSH2 0x831C JUMP JUMPDEST PUSH2 0x3F7E DUP8 DUP8 PUSH2 0x5105 JUMP JUMPDEST PUSH1 0x60 PUSH1 0x0 DUP3 GT DUP1 ISZERO PUSH2 0x4F11 JUMPI POP DUP2 DUP4 GT ISZERO JUMPDEST DUP1 ISZERO PUSH2 0x4F1E JUMPI POP PUSH1 0x1 DUP4 LT ISZERO JUMPDEST PUSH2 0x4F3A JUMPI PUSH1 0x40 MLOAD PUSH3 0x461BCD PUSH1 0xE5 SHL DUP2 MSTORE PUSH1 0x4 ADD PUSH2 0xE1C SWAP1 PUSH2 0x7D92 JUMP JUMPDEST PUSH1 0x0 DUP3 PUSH1 0x1 PUSH1 0x1 PUSH1 0x40 SHL SUB DUP2 GT ISZERO PUSH2 0x4F62 JUMPI PUSH4 0x4E487B71 PUSH1 0xE0 SHL PUSH1 0x0 MSTORE PUSH1 0x41 PUSH1 0x4 MSTORE PUSH1 0x24 PUSH1 0x0 REVERT JUMPDEST PUSH1 0x40 MLOAD SWAP1 DUP1 DUP3 MSTORE DUP1 PUSH1 0x20 MUL PUSH1 0x20 ADD DUP3 ADD PUSH1 0x40 MSTORE DUP1 ISZERO PUSH2 0x4F8B JUMPI DUP2 PUSH1 0x20 ADD PUSH1 0x20 DUP3 MUL DUP1 CALLDATASIZE DUP4 CALLDATACOPY ADD SWAP1 POP JUMPDEST POP SWAP1 POP PUSH1 0x0 DUP5 PUSH1 0x1 PUSH1 0x1 PUSH1 0x40 SHL SUB DUP2 GT ISZERO PUSH2 0x4FB6 JUMPI PUSH4 0x4E487B71 PUSH1 0xE0 SHL PUSH1 0x0 MSTORE PUSH1 0x41 PUSH1 0x4 MSTORE PUSH1 0x24 PUSH1 0x0 REVERT JUMPDEST PUSH1 0x40 MLOAD SWAP1 DUP1 DUP3 MSTORE DUP1 PUSH1 0x20 MUL PUSH1 0x20 ADD DUP3 ADD PUSH1 0x40 MSTORE DUP1 ISZERO PUSH2 0x4FDF JUMPI DUP2 PUSH1 0x20 ADD PUSH1 0x20 DUP3 MUL DUP1 CALLDATASIZE DUP4 CALLDATACOPY ADD SWAP1 POP JUMPDEST POP SWAP1 POP PUSH1 0x0 PUSH2 0x4FF5 PUSH2 0x4FF0 DUP5 PUSH2 0x6D6A JUMP JUMPDEST PUSH2 0x6DC0 JUMP JUMPDEST SWAP1 POP PUSH1 0x0 JUMPDEST DUP7 DUP2 LT ISZERO PUSH2 0x4E08 JUMPI DUP2 DUP2 DUP2 MLOAD DUP2 LT PUSH2 0x5022 JUMPI PUSH4 0x4E487B71 PUSH1 0xE0 SHL PUSH1 0x0 MSTORE PUSH1 0x32 PUSH1 0x4 MSTORE PUSH1 0x24 PUSH1 0x0 REVERT JUMPDEST PUSH1 0x20 MUL PUSH1 0x20 ADD ADD MLOAD DUP4 DUP3 DUP2 MLOAD DUP2 LT PUSH2 0x504A JUMPI PUSH4 0x4E487B71 PUSH1 0xE0 SHL PUSH1 0x0 MSTORE PUSH1 0x32 PUSH1 0x4 MSTORE PUSH1 0x24 PUSH1 0x0 REVERT JUMPDEST PUSH1 0x20 SWAP1 DUP2 MUL SWAP2 SWAP1 SWAP2 ADD ADD MSTORE DUP1 PUSH2 0x505F DUP2 PUSH2 0x8B5B JUMP JUMPDEST SWAP2 POP POP PUSH2 0x4FFA JUMP JUMPDEST PUSH2 0x506F PUSH2 0x66E0 JUMP JUMPDEST PUSH1 0x1 PUSH1 0x1 PUSH1 0xA0 SHL SUB AND PUSH2 0x5080 PUSH2 0x4035 JUMP JUMPDEST PUSH1 0x1 PUSH1 0x1 PUSH1 0xA0 SHL SUB AND EQ PUSH2 0x50A6 JUMPI PUSH1 0x40 MLOAD PUSH3 0x461BCD PUSH1 0xE5 SHL DUP2 MSTORE PUSH1 0x4 ADD PUSH2 0xE1C SWAP1 PUSH2 0x822D JUMP JUMPDEST PUSH1 0x23 DUP1 SLOAD PUSH1 0x1 PUSH1 0x1 PUSH1 0xA0 SHL SUB NOT AND PUSH1 0x1 PUSH1 0x1 PUSH1 0xA0 SHL SUB SWAP3 SWAP1 SWAP3 AND SWAP2 SWAP1 SWAP2 OR SWAP1 SSTORE JUMP JUMPDEST PUSH1 0x0 PUSH2 0x50D3 DUP3 PUSH2 0x65F3 JUMP JUMPDEST PUSH2 0x50EF JUMPI PUSH1 0x40 MLOAD PUSH3 0x461BCD PUSH1 0xE5 SHL DUP2 MSTORE PUSH1 0x4 ADD PUSH2 0xE1C SWAP1 PUSH2 0x8448 JUMP JUMPDEST POP PUSH1 0x0 SWAP1 DUP2 MSTORE PUSH1 0xB PUSH1 0x20 MSTORE PUSH1 0x40 SWAP1 KECCAK256 PUSH1 0x6 ADD SLOAD SWAP1 JUMP JUMPDEST PUSH1 0x0 PUSH20 0x0 PUSH4 0x62E02A2A PUSH1 0x9 PUSH2 0x512D DUP7 DUP7 PUSH2 0x42A8 JUMP JUMPDEST PUSH1 0x40 MLOAD DUP4 PUSH4 0xFFFFFFFF AND PUSH1 0xE0 SHL DUP2 MSTORE PUSH1 0x4 ADD PUSH2 0x514A SWAP3 SWAP2 SWAP1 PUSH2 0x8900 JUMP JUMPDEST PUSH1 0x20 PUSH1 0x40 MLOAD DUP1 DUP4 SUB DUP2 DUP7 DUP1 EXTCODESIZE ISZERO DUP1 ISZERO PUSH2 0x5162 JUMPI PUSH1 0x0 DUP1 REVERT JUMPDEST POP GAS DELEGATECALL ISZERO DUP1 ISZERO PUSH2 0x5176 JUMPI RETURNDATASIZE PUSH1 0x0 DUP1 RETURNDATACOPY RETURNDATASIZE PUSH1 0x0 REVERT JUMPDEST POP POP POP POP PUSH1 0x40 MLOAD RETURNDATASIZE PUSH1 0x1F NOT PUSH1 0x1F DUP3 ADD AND DUP3 ADD DUP1 PUSH1 0x40 MSTORE POP DUP2 ADD SWAP1 PUSH2 0x1446 SWAP2 SWAP1 PUSH2 0x775E JUMP JUMPDEST PUSH1 0x0 DUP3 DUP2 MSTORE PUSH1 0xF PUSH1 0x20 SWAP1 DUP2 MSTORE PUSH1 0x40 DUP1 DUP4 KECCAK256 DUP1 SLOAD DUP3 MLOAD DUP2 DUP6 MUL DUP2 ADD DUP6 ADD SWAP1 SWAP4 MSTORE DUP1 DUP4 MSTORE DUP5 SWAP4 DUP5 SWAP4 SWAP3 SWAP2 SWAP1 DUP4 ADD DUP3 DUP3 DUP1 ISZERO PUSH2 0x51FC JUMPI PUSH1 0x20 MUL DUP3 ADD SWAP2 SWAP1 PUSH1 0x0 MSTORE PUSH1 0x20 PUSH1 0x0 KECCAK256 SWAP1 JUMPDEST DUP2 SLOAD PUSH1 0x1 PUSH1 0x1 PUSH1 0xA0 SHL SUB AND DUP2 MSTORE PUSH1 0x1 SWAP1 SWAP2 ADD SWAP1 PUSH1 0x20 ADD DUP1 DUP4 GT PUSH2 0x51DE JUMPI JUMPDEST POP POP POP POP POP SWAP1 POP PUSH1 0x0 JUMPDEST DUP2 MLOAD DUP2 LT ISZERO PUSH2 0x526B JUMPI DUP5 PUSH1 0x1 PUSH1 0x1 PUSH1 0xA0 SHL SUB AND DUP3 DUP3 DUP2 MLOAD DUP2 LT PUSH2 0x5239 JUMPI PUSH4 0x4E487B71 PUSH1 0xE0 SHL PUSH1 0x0 MSTORE PUSH1 0x32 PUSH1 0x4 MSTORE PUSH1 0x24 PUSH1 0x0 REVERT JUMPDEST PUSH1 0x20 MUL PUSH1 0x20 ADD ADD MLOAD PUSH1 0x1 PUSH1 0x1 PUSH1 0xA0 SHL SUB AND EQ ISZERO PUSH2 0x5259 JUMPI PUSH1 0x1 SWAP3 POP PUSH2 0x526B JUMP JUMPDEST DUP1 PUSH2 0x5263 DUP2 PUSH2 0x8B5B JUMP JUMPDEST SWAP2 POP POP PUSH2 0x5206 JUMP JUMPDEST POP SWAP1 SWAP5 SWAP4 POP POP POP POP JUMP JUMPDEST PUSH1 0x2 PUSH1 0x20 SWAP1 DUP2 MSTORE PUSH1 0x0 SWAP3 DUP4 MSTORE PUSH1 0x40 DUP1 DUP5 KECCAK256 SWAP1 SWAP2 MSTORE SWAP1 DUP3 MSTORE SWAP1 KECCAK256 SLOAD PUSH1 0xFF AND DUP2 JUMP JUMPDEST PUSH1 0x16 SLOAD DUP2 JUMP JUMPDEST PUSH1 0x19 SLOAD DUP2 JUMP JUMPDEST PUSH1 0x60 PUSH2 0x52AC DUP3 PUSH2 0x65F3 JUMP JUMPDEST PUSH2 0x52C8 JUMPI PUSH1 0x40 MLOAD PUSH3 0x461BCD PUSH1 0xE5 SHL DUP2 MSTORE PUSH1 0x4 ADD PUSH2 0xE1C SWAP1 PUSH2 0x8448 JUMP JUMPDEST PUSH1 0x0 DUP3 DUP2 MSTORE PUSH1 0xF PUSH1 0x20 SWAP1 DUP2 MSTORE PUSH1 0x40 DUP1 DUP4 KECCAK256 DUP1 SLOAD DUP3 MLOAD DUP2 DUP6 MUL DUP2 ADD DUP6 ADD SWAP1 SWAP4 MSTORE DUP1 DUP4 MSTORE SWAP2 SWAP3 SWAP1 SWAP2 SWAP1 DUP4 ADD DUP3 DUP3 DUP1 ISZERO PUSH2 0x5328 JUMPI PUSH1 0x20 MUL DUP3 ADD SWAP2 SWAP1 PUSH1 0x0 MSTORE PUSH1 0x20 PUSH1 0x0 KECCAK256 SWAP1 JUMPDEST DUP2 SLOAD PUSH1 0x1 PUSH1 0x1 PUSH1 0xA0 SHL SUB AND DUP2 MSTORE PUSH1 0x1 SWAP1 SWAP2 ADD SWAP1 PUSH1 0x20 ADD DUP1 DUP4 GT PUSH2 0x530A JUMPI JUMPDEST POP POP POP POP POP SWAP1 POP PUSH1 0x0 DUP2 MLOAD PUSH1 0x1 PUSH1 0x1 PUSH1 0x40 SHL SUB DUP2 GT ISZERO PUSH2 0x5358 JUMPI PUSH4 0x4E487B71 PUSH1 0xE0 SHL PUSH1 0x0 MSTORE PUSH1 0x41 PUSH1 0x4 MSTORE PUSH1 0x24 PUSH1 0x0 REVERT JUMPDEST PUSH1 0x40 MLOAD SWAP1 DUP1 DUP3 MSTORE DUP1 PUSH1 0x20 MUL PUSH1 0x20 ADD DUP3 ADD PUSH1 0x40 MSTORE DUP1 ISZERO PUSH2 0x538B JUMPI DUP2 PUSH1 0x20 ADD JUMPDEST PUSH1 0x60 DUP2 MSTORE PUSH1 0x20 ADD SWAP1 PUSH1 0x1 SWAP1 SUB SWAP1 DUP2 PUSH2 0x5376 JUMPI SWAP1 POP JUMPDEST POP SWAP1 POP PUSH1 0x0 JUMPDEST DUP3 MLOAD DUP2 LT ISZERO PUSH2 0xF88 JUMPI PUSH1 0x4 PUSH1 0x0 DUP7 DUP2 MSTORE PUSH1 0x20 ADD SWAP1 DUP2 MSTORE PUSH1 0x20 ADD PUSH1 0x0 KECCAK256 PUSH1 0x0 DUP5 DUP4 DUP2 MLOAD DUP2 LT PUSH2 0x53CF JUMPI PUSH4 0x4E487B71 PUSH1 0xE0 SHL PUSH1 0x0 MSTORE PUSH1 0x32 PUSH1 0x4 MSTORE PUSH1 0x24 PUSH1 0x0 REVERT JUMPDEST PUSH1 0x20 MUL PUSH1 0x20 ADD ADD MLOAD PUSH1 0x1 PUSH1 0x1 PUSH1 0xA0 SHL SUB AND PUSH1 0x1 PUSH1 0x1 PUSH1 0xA0 SHL SUB AND DUP2 MSTORE PUSH1 0x20 ADD SWAP1 DUP2 MSTORE PUSH1 0x20 ADD PUSH1 0x0 KECCAK256 DUP1 SLOAD PUSH2 0x5402 SWAP1 PUSH2 0x8B20 JUMP JUMPDEST DUP1 PUSH1 0x1F ADD PUSH1 0x20 DUP1 SWAP2 DIV MUL PUSH1 0x20 ADD PUSH1 0x40 MLOAD SWAP1 DUP2 ADD PUSH1 0x40 MSTORE DUP1 SWAP3 SWAP2 SWAP1 DUP2 DUP2 MSTORE PUSH1 0x20 ADD DUP3 DUP1 SLOAD PUSH2 0x542E SWAP1 PUSH2 0x8B20 JUMP JUMPDEST DUP1 ISZERO PUSH2 0x547B JUMPI DUP1 PUSH1 0x1F LT PUSH2 0x5450 JUMPI PUSH2 0x100 DUP1 DUP4 SLOAD DIV MUL DUP4 MSTORE SWAP2 PUSH1 0x20 ADD SWAP2 PUSH2 0x547B JUMP JUMPDEST DUP3 ADD SWAP2 SWAP1 PUSH1 0x0 MSTORE PUSH1 0x20 PUSH1 0x0 KECCAK256 SWAP1 JUMPDEST DUP2 SLOAD DUP2 MSTORE SWAP1 PUSH1 0x1 ADD SWAP1 PUSH1 0x20 ADD DUP1 DUP4 GT PUSH2 0x545E JUMPI DUP3 SWAP1 SUB PUSH1 0x1F AND DUP3 ADD SWAP2 JUMPDEST POP POP POP POP POP DUP3 DUP3 DUP2 MLOAD DUP2 LT PUSH2 0x54A0 JUMPI PUSH4 0x4E487B71 PUSH1 0xE0 SHL PUSH1 0x0 MSTORE PUSH1 0x32 PUSH1 0x4 MSTORE PUSH1 0x24 PUSH1 0x0 REVERT JUMPDEST PUSH1 0x20 MUL PUSH1 0x20 ADD ADD DUP2 SWAP1 MSTORE POP DUP1 DUP1 PUSH2 0x54B6 SWAP1 PUSH2 0x8B5B JUMP JUMPDEST SWAP2 POP POP PUSH2 0x5391 JUMP JUMPDEST PUSH1 0xE PUSH1 0x20 MSTORE DUP2 PUSH1 0x0 MSTORE PUSH1 0x40 PUSH1 0x0 KECCAK256 DUP2 DUP2 SLOAD DUP2 LT PUSH2 0x4060 JUMPI PUSH1 0x0 DUP1 REVERT JUMPDEST PUSH1 0x24 SLOAD PUSH1 0x1 PUSH1 0x1 PUSH1 0xA0 SHL SUB AND DUP2 JUMP JUMPDEST PUSH1 0x3 PUSH1 0x20 SWAP1 DUP2 MSTORE PUSH1 0x0 SWAP3 DUP4 MSTORE PUSH1 0x40 DUP1 DUP5 KECCAK256 SWAP1 SWAP2 MSTORE SWAP1 DUP3 MSTORE SWAP1 KECCAK256 SLOAD DUP2 JUMP JUMPDEST PUSH1 0x0 PUSH20 0x0 PUSH4 0x62E02A2A PUSH1 0x9 PUSH2 0x552E DUP7 DUP7 PUSH2 0x42A8 JUMP JUMPDEST PUSH1 0x40 MLOAD DUP4 PUSH4 0xFFFFFFFF AND PUSH1 0xE0 SHL DUP2 MSTORE PUSH1 0x4 ADD PUSH2 0x514A SWAP3 SWAP2 SWAP1 PUSH2 0x88B4 JUMP JUMPDEST TIMESTAMP GT SWAP1 JUMP JUMPDEST PUSH2 0x5558 PUSH2 0x72C4 JUMP JUMPDEST PUSH2 0x5561 DUP3 PUSH2 0x65F3 JUMP JUMPDEST PUSH2 0x556A JUMPI PUSH1 0x0 DUP1 REVERT JUMPDEST PUSH1 0x0 DUP3 DUP2 MSTORE PUSH1 0xB PUSH1 0x20 SWAP1 DUP2 MSTORE PUSH1 0x40 SWAP2 DUP3 SWAP1 KECCAK256 DUP3 MLOAD PUSH2 0x1C0 DUP2 ADD DUP5 MSTORE DUP2 SLOAD DUP2 MSTORE PUSH1 0x1 DUP3 ADD SLOAD SWAP3 DUP2 ADD SWAP3 SWAP1 SWAP3 MSTORE PUSH1 0x2 DUP2 ADD SLOAD SWAP3 DUP3 ADD SWAP3 SWAP1 SWAP3 MSTORE PUSH1 0x3 DUP3 ADD SLOAD PUSH1 0x60 DUP3 ADD MSTORE PUSH1 0x4 DUP3 ADD SLOAD PUSH1 0x80 DUP3 ADD MSTORE PUSH1 0x5 DUP3 ADD SLOAD PUSH1 0xFF DUP1 DUP3 AND ISZERO ISZERO PUSH1 0xA0 DUP5 ADD MSTORE PUSH2 0x100 DUP1 DUP4 DIV DUP3 AND ISZERO ISZERO PUSH1 0xC0 DUP6 ADD MSTORE PUSH3 0x10000 SWAP1 SWAP3 DIV AND ISZERO ISZERO PUSH1 0xE0 DUP4 ADD MSTORE PUSH1 0x6 DUP4 ADD SLOAD SWAP1 DUP3 ADD MSTORE PUSH1 0x7 DUP3 ADD SLOAD PUSH2 0x120 DUP3 ADD MSTORE PUSH1 0x8 DUP3 ADD SLOAD PUSH2 0x140 DUP3 ADD MSTORE PUSH1 0x9 DUP3 ADD SLOAD PUSH2 0x160 DUP3 ADD MSTORE PUSH1 0xA DUP3 ADD DUP1 SLOAD SWAP2 SWAP3 SWAP2 PUSH2 0x180 DUP5 ADD SWAP2 SWAP1 PUSH2 0x5627 SWAP1 PUSH2 0x8B20 JUMP JUMPDEST DUP1 PUSH1 0x1F ADD PUSH1 0x20 DUP1 SWAP2 DIV MUL PUSH1 0x20 ADD PUSH1 0x40 MLOAD SWAP1 DUP2 ADD PUSH1 0x40 MSTORE DUP1 SWAP3 SWAP2 SWAP1 DUP2 DUP2 MSTORE PUSH1 0x20 ADD DUP3 DUP1 SLOAD PUSH2 0x5653 SWAP1 PUSH2 0x8B20 JUMP JUMPDEST DUP1 ISZERO PUSH2 0x56A0 JUMPI DUP1 PUSH1 0x1F LT PUSH2 0x5675 JUMPI PUSH2 0x100 DUP1 DUP4 SLOAD DIV MUL DUP4 MSTORE SWAP2 PUSH1 0x20 ADD SWAP2 PUSH2 0x56A0 JUMP JUMPDEST DUP3 ADD SWAP2 SWAP1 PUSH1 0x0 MSTORE PUSH1 0x20 PUSH1 0x0 KECCAK256 SWAP1 JUMPDEST DUP2 SLOAD DUP2 MSTORE SWAP1 PUSH1 0x1 ADD SWAP1 PUSH1 0x20 ADD DUP1 DUP4 GT PUSH2 0x5683 JUMPI DUP3 SWAP1 SUB PUSH1 0x1F AND DUP3 ADD SWAP2 JUMPDEST POP POP POP SWAP2 DUP4 MSTORE POP POP PUSH1 0xB DUP3 ADD SLOAD PUSH1 0x20 SWAP1 SWAP2 ADD SWAP1 PUSH1 0xFF AND PUSH1 0x3 DUP2 GT ISZERO PUSH2 0x22AF JUMPI PUSH4 0x4E487B71 PUSH1 0xE0 SHL PUSH1 0x0 MSTORE PUSH1 0x21 PUSH1 0x4 MSTORE PUSH1 0x24 PUSH1 0x0 REVERT JUMPDEST PUSH2 0x56DD PUSH2 0x66E4 JUMP JUMPDEST PUSH1 0x13 SLOAD ISZERO PUSH2 0x56ED JUMPI PUSH2 0x56ED PUSH2 0x6F54 JUMP JUMPDEST PUSH2 0x56F5 PUSH2 0x6FEC JUMP JUMPDEST PUSH1 0x0 JUMPDEST PUSH1 0x26 PUSH1 0x0 SWAP1 SLOAD SWAP1 PUSH2 0x100 EXP SWAP1 DIV PUSH1 0x1 PUSH1 0x1 PUSH1 0xA0 SHL SUB AND PUSH1 0x1 PUSH1 0x1 PUSH1 0xA0 SHL SUB AND PUSH4 0x7D630CB0 PUSH1 0x40 MLOAD DUP2 PUSH4 0xFFFFFFFF AND PUSH1 0xE0 SHL DUP2 MSTORE PUSH1 0x4 ADD PUSH1 0x20 PUSH1 0x40 MLOAD DUP1 DUP4 SUB DUP2 DUP7 DUP1 EXTCODESIZE ISZERO DUP1 ISZERO PUSH2 0x5746 JUMPI PUSH1 0x0 DUP1 REVERT JUMPDEST POP GAS STATICCALL ISZERO DUP1 ISZERO PUSH2 0x575A JUMPI RETURNDATASIZE PUSH1 0x0 DUP1 RETURNDATACOPY RETURNDATASIZE PUSH1 0x0 REVERT JUMPDEST POP POP POP POP PUSH1 0x40 MLOAD RETURNDATASIZE PUSH1 0x1F NOT PUSH1 0x1F DUP3 ADD AND DUP3 ADD DUP1 PUSH1 0x40 MSTORE POP DUP2 ADD SWAP1 PUSH2 0x577E SWAP2 SWAP1 PUSH2 0x775E JUMP JUMPDEST DUP2 LT ISZERO PUSH2 0x19B5 JUMPI PUSH1 0x18 SLOAD PUSH1 0x0 SWAP1 DUP2 MSTORE PUSH1 0xB PUSH1 0x20 MSTORE PUSH1 0x40 DUP2 KECCAK256 PUSH1 0x5 ADD SLOAD PUSH3 0x10000 SWAP1 DIV PUSH1 0xFF AND ISZERO ISZERO PUSH1 0x1 EQ DUP1 ISZERO PUSH2 0x57D7 JUMPI POP PUSH2 0x57BA PUSH1 0x18 SLOAD PUSH2 0x1105 JUMP JUMPDEST DUP1 PUSH2 0x57D7 JUMPI POP PUSH1 0x18 SLOAD PUSH1 0x0 SWAP1 DUP2 MSTORE PUSH1 0xB PUSH1 0x20 MSTORE PUSH1 0x40 SWAP1 KECCAK256 PUSH1 0x3 ADD SLOAD ISZERO JUMPDEST ISZERO PUSH2 0x57FC JUMPI PUSH2 0x57E7 PUSH1 0x18 SLOAD PUSH2 0x2C88 JUMP JUMPDEST PUSH1 0x18 SLOAD PUSH2 0x57F5 SWAP1 PUSH1 0x1 PUSH2 0x6B96 JUMP JUMPDEST PUSH1 0x18 SSTORE POP PUSH1 0x1 JUMPDEST PUSH1 0x19 SLOAD PUSH1 0x0 SWAP1 DUP2 MSTORE PUSH1 0xB PUSH1 0x20 MSTORE PUSH1 0x40 SWAP1 KECCAK256 PUSH1 0x5 ADD SLOAD PUSH3 0x10000 SWAP1 DIV PUSH1 0xFF AND ISZERO ISZERO PUSH1 0x1 EQ DUP1 ISZERO SWAP1 PUSH2 0x58B3 JUMPI POP PUSH1 0x26 PUSH1 0x0 SWAP1 SLOAD SWAP1 PUSH2 0x100 EXP SWAP1 DIV PUSH1 0x1 PUSH1 0x1 PUSH1 0xA0 SHL SUB AND PUSH1 0x1 PUSH1 0x1 PUSH1 0xA0 SHL SUB AND PUSH4 0x166FF4C7 PUSH1 0x40 MLOAD DUP2 PUSH4 0xFFFFFFFF AND PUSH1 0xE0 SHL DUP2 MSTORE PUSH1 0x4 ADD PUSH1 0x20 PUSH1 0x40 MLOAD DUP1 DUP4 SUB DUP2 DUP7 DUP1 EXTCODESIZE ISZERO DUP1 ISZERO PUSH2 0x5875 JUMPI PUSH1 0x0 DUP1 REVERT JUMPDEST POP GAS STATICCALL ISZERO DUP1 ISZERO PUSH2 0x5889 JUMPI RETURNDATASIZE PUSH1 0x0 DUP1 RETURNDATACOPY RETURNDATASIZE PUSH1 0x0 REVERT JUMPDEST POP POP POP POP PUSH1 0x40 MLOAD RETURNDATASIZE PUSH1 0x1F NOT PUSH1 0x1F DUP3 ADD AND DUP3 ADD DUP1 PUSH1 0x40 MSTORE POP DUP2 ADD SWAP1 PUSH2 0x58AD SWAP2 SWAP1 PUSH2 0x775E JUMP JUMPDEST PUSH1 0x11 SLOAD LT ISZERO JUMPDEST DUP1 ISZERO PUSH2 0x58D3 JUMPI POP PUSH1 0x19 SLOAD PUSH1 0x0 SWAP1 DUP2 MSTORE PUSH1 0xB PUSH1 0x20 MSTORE PUSH1 0x40 SWAP1 KECCAK256 PUSH1 0x5 ADD SLOAD PUSH1 0xFF AND JUMPDEST ISZERO PUSH2 0x58E4 JUMPI PUSH2 0x58E0 PUSH2 0x25C4 JUMP JUMPDEST POP PUSH1 0x1 JUMPDEST DUP1 PUSH2 0x58EF JUMPI POP PUSH2 0x19B5 JUMP JUMPDEST POP DUP1 PUSH2 0x58FA DUP2 PUSH2 0x8B5B JUMP JUMPDEST SWAP2 POP POP PUSH2 0x56F8 JUMP JUMPDEST PUSH2 0x590A PUSH2 0x66E0 JUMP JUMPDEST PUSH1 0x1 PUSH1 0x1 PUSH1 0xA0 SHL SUB AND PUSH2 0x591B PUSH2 0x4035 JUMP JUMPDEST PUSH1 0x1 PUSH1 0x1 PUSH1 0xA0 SHL SUB AND EQ PUSH2 0x5941 JUMPI PUSH1 0x40 MLOAD PUSH3 0x461BCD PUSH1 0xE5 SHL DUP2 MSTORE PUSH1 0x4 ADD PUSH2 0xE1C SWAP1 PUSH2 0x822D JUMP JUMPDEST PUSH1 0x24 DUP1 SLOAD PUSH1 0x1 PUSH1 0x1 PUSH1 0xA0 SHL SUB NOT AND PUSH1 0x1 PUSH1 0x1 PUSH1 0xA0 SHL SUB SWAP3 SWAP1 SWAP3 AND SWAP2 SWAP1 SWAP2 OR SWAP1 SSTORE JUMP JUMPDEST PUSH1 0x25 SLOAD PUSH1 0x1 PUSH1 0x1 PUSH1 0xA0 SHL SUB AND DUP2 JUMP JUMPDEST PUSH2 0x597A PUSH2 0x66E0 JUMP JUMPDEST PUSH1 0x1 PUSH1 0x1 PUSH1 0xA0 SHL SUB AND PUSH2 0x598B PUSH2 0x4035 JUMP JUMPDEST PUSH1 0x1 PUSH1 0x1 PUSH1 0xA0 SHL SUB AND EQ PUSH2 0x59B1 JUMPI PUSH1 0x40 MLOAD PUSH3 0x461BCD PUSH1 0xE5 SHL DUP2 MSTORE PUSH1 0x4 ADD PUSH2 0xE1C SWAP1 PUSH2 0x822D JUMP JUMPDEST PUSH1 0x21 DUP1 SLOAD PUSH1 0x1 PUSH1 0x1 PUSH1 0xA0 SHL SUB NOT AND PUSH1 0x1 PUSH1 0x1 PUSH1 0xA0 SHL SUB SWAP3 SWAP1 SWAP3 AND SWAP2 SWAP1 SWAP2 OR SWAP1 SSTORE JUMP JUMPDEST PUSH2 0x59DB PUSH2 0x66E0 JUMP JUMPDEST PUSH1 0x1 PUSH1 0x1 PUSH1 0xA0 SHL SUB AND PUSH2 0x59EC PUSH2 0x4035 JUMP JUMPDEST PUSH1 0x1 PUSH1 0x1 PUSH1 0xA0 SHL SUB AND EQ PUSH2 0x5A12 JUMPI PUSH1 0x40 MLOAD PUSH3 0x461BCD PUSH1 0xE5 SHL DUP2 MSTORE PUSH1 0x4 ADD PUSH2 0xE1C SWAP1 PUSH2 0x822D JUMP JUMPDEST PUSH1 0x20 DUP1 SLOAD PUSH1 0x1 PUSH1 0x1 PUSH1 0xA0 SHL SUB NOT AND PUSH1 0x1 PUSH1 0x1 PUSH1 0xA0 SHL SUB SWAP3 SWAP1 SWAP3 AND SWAP2 SWAP1 SWAP2 OR SWAP1 SSTORE JUMP JUMPDEST CALLER PUSH1 0x0 SWAP1 DUP2 MSTORE PUSH1 0xD PUSH1 0x20 MSTORE PUSH1 0x40 SWAP1 KECCAK256 SLOAD SWAP1 JUMP JUMPDEST PUSH1 0x60 PUSH1 0x0 DUP3 GT PUSH2 0x5A56 JUMPI PUSH1 0x0 DUP1 REVERT JUMPDEST PUSH1 0x0 DUP3 PUSH1 0x1 PUSH1 0x1 PUSH1 0x40 SHL SUB DUP2 GT ISZERO PUSH2 0x5A7E JUMPI PUSH4 0x4E487B71 PUSH1 0xE0 SHL PUSH1 0x0 MSTORE PUSH1 0x41 PUSH1 0x4 MSTORE PUSH1 0x24 PUSH1 0x0 REVERT JUMPDEST PUSH1 0x40 MLOAD SWAP1 DUP1 DUP3 MSTORE DUP1 PUSH1 0x20 MUL PUSH1 0x20 ADD DUP3 ADD PUSH1 0x40 MSTORE DUP1 ISZERO PUSH2 0x5AA7 JUMPI DUP2 PUSH1 0x20 ADD PUSH1 0x20 DUP3 MUL DUP1 CALLDATASIZE DUP4 CALLDATACOPY ADD SWAP1 POP JUMPDEST POP SWAP1 POP PUSH1 0x0 PUSH2 0x5AB8 PUSH2 0x4FF0 DUP4 PUSH2 0x6D6A JUMP JUMPDEST SWAP5 SWAP4 POP POP POP POP JUMP JUMPDEST PUSH1 0x60 PUSH2 0x5ACB DUP3 PUSH2 0x65F3 JUMP JUMPDEST PUSH2 0x5AD4 JUMPI PUSH1 0x0 DUP1 REVERT JUMPDEST PUSH1 0x0 DUP3 DUP2 MSTORE PUSH1 0xB PUSH1 0x20 MSTORE PUSH1 0x40 SWAP1 KECCAK256 PUSH1 0xA ADD DUP1 SLOAD PUSH2 0x5AF0 SWAP1 PUSH2 0x8B20 JUMP JUMPDEST DUP1 PUSH1 0x1F ADD PUSH1 0x20 DUP1 SWAP2 DIV MUL PUSH1 0x20 ADD PUSH1 0x40 MLOAD SWAP1 DUP2 ADD PUSH1 0x40 MSTORE DUP1 SWAP3 SWAP2 SWAP1 DUP2 DUP2 MSTORE PUSH1 0x20 ADD DUP3 DUP1 SLOAD PUSH2 0x5B1C SWAP1 PUSH2 0x8B20 JUMP JUMPDEST DUP1 ISZERO PUSH2 0x5B69 JUMPI DUP1 PUSH1 0x1F LT PUSH2 0x5B3E JUMPI PUSH2 0x100 DUP1 DUP4 SLOAD DIV MUL DUP4 MSTORE SWAP2 PUSH1 0x20 ADD SWAP2 PUSH2 0x5B69 JUMP JUMPDEST DUP3 ADD SWAP2 SWAP1 PUSH1 0x0 MSTORE PUSH1 0x20 PUSH1 0x0 KECCAK256 SWAP1 JUMPDEST DUP2 SLOAD DUP2 MSTORE SWAP1 PUSH1 0x1 ADD SWAP1 PUSH1 0x20 ADD DUP1 DUP4 GT PUSH2 0x5B4C JUMPI DUP3 SWAP1 SUB PUSH1 0x1F AND DUP3 ADD SWAP2 JUMPDEST POP POP POP POP POP SWAP1 POP SWAP2 SWAP1 POP JUMP JUMPDEST PUSH1 0x1 PUSH1 0x1 PUSH1 0xA0 SHL SUB AND PUSH1 0x0 SWAP1 DUP2 MSTORE PUSH1 0xC PUSH1 0x20 MSTORE PUSH1 0x40 SWAP1 KECCAK256 PUSH1 0x5 ADD SLOAD PUSH1 0xFF AND SWAP1 JUMP JUMPDEST PUSH1 0x0 PUSH2 0x5BBA PUSH2 0x5BA4 CALLER PUSH2 0x3B01 JUMP JUMPDEST CALLER PUSH1 0x0 SWAP1 DUP2 MSTORE PUSH1 0xD PUSH1 0x20 MSTORE PUSH1 0x40 SWAP1 KECCAK256 SLOAD SWAP1 PUSH2 0x6AF4 JUMP JUMPDEST SWAP1 POP DUP2 DUP2 LT ISZERO PUSH2 0x5BDC JUMPI PUSH1 0x40 MLOAD PUSH3 0x461BCD PUSH1 0xE5 SHL DUP2 MSTORE PUSH1 0x4 ADD PUSH2 0xE1C SWAP1 PUSH2 0x8401 JUMP JUMPDEST PUSH1 0x20 SLOAD PUSH1 0x40 MLOAD PUSH4 0x8959933 PUSH1 0xE1 SHL DUP2 MSTORE PUSH1 0x1 PUSH1 0x1 PUSH1 0xA0 SHL SUB SWAP1 SWAP2 AND SWAP1 PUSH4 0x112B3266 SWAP1 PUSH2 0x5C0E SWAP1 DUP6 SWAP1 CALLER SWAP1 PUSH1 0x4 ADD PUSH2 0x8957 JUMP JUMPDEST PUSH1 0x20 PUSH1 0x40 MLOAD DUP1 DUP4 SUB DUP2 PUSH1 0x0 DUP8 DUP1 EXTCODESIZE ISZERO DUP1 ISZERO PUSH2 0x5C28 JUMPI PUSH1 0x0 DUP1 REVERT JUMPDEST POP GAS CALL ISZERO DUP1 ISZERO PUSH2 0x5C3C JUMPI RETURNDATASIZE PUSH1 0x0 DUP1 RETURNDATACOPY RETURNDATASIZE PUSH1 0x0 REVERT JUMPDEST POP POP POP POP PUSH1 0x40 MLOAD RETURNDATASIZE PUSH1 0x1F NOT PUSH1 0x1F DUP3 ADD AND DUP3 ADD DUP1 PUSH1 0x40 MSTORE POP DUP2 ADD SWAP1 PUSH2 0x5C60 SWAP2 SWAP1 PUSH2 0x7571 JUMP JUMPDEST PUSH2 0x5C7C JUMPI PUSH1 0x40 MLOAD PUSH3 0x461BCD PUSH1 0xE5 SHL DUP2 MSTORE PUSH1 0x4 ADD PUSH2 0xE1C SWAP1 PUSH2 0x86B7 JUMP JUMPDEST CALLER PUSH1 0x0 SWAP1 DUP2 MSTORE PUSH1 0xD PUSH1 0x20 MSTORE PUSH1 0x40 DUP2 KECCAK256 DUP1 SLOAD DUP5 SWAP3 SWAP1 PUSH2 0x5C9B SWAP1 DUP5 SWAP1 PUSH2 0x8AD9 JUMP JUMPDEST SWAP1 SWAP2 SSTORE POP POP PUSH1 0x40 MLOAD CALLER SWAP1 PUSH32 0xFAEB7DBB9992397D26EA1944EFD40C80B40F702FAF69B46C67AD10ABA68CCB79 SWAP1 PUSH2 0x5CD2 SWAP1 DUP6 SWAP1 PUSH2 0x799B JUMP JUMPDEST PUSH1 0x40 MLOAD DUP1 SWAP2 SUB SWAP1 LOG2 POP POP JUMP JUMPDEST PUSH1 0x1E SLOAD DUP2 JUMP JUMPDEST PUSH1 0x60 PUSH2 0x5CEF DUP3 PUSH2 0x65F3 JUMP JUMPDEST PUSH2 0x5D0B JUMPI PUSH1 0x40 MLOAD PUSH3 0x461BCD PUSH1 0xE5 SHL DUP2 MSTORE PUSH1 0x4 ADD PUSH2 0xE1C SWAP1 PUSH2 0x8448 JUMP JUMPDEST PUSH1 0x0 DUP3 DUP2 MSTORE PUSH1 0xB PUSH1 0x20 SWAP1 DUP2 MSTORE PUSH1 0x40 DUP1 DUP4 KECCAK256 DUP2 MLOAD PUSH2 0x1C0 DUP2 ADD DUP4 MSTORE DUP2 SLOAD DUP2 MSTORE PUSH1 0x1 DUP3 ADD SLOAD SWAP4 DUP2 ADD SWAP4 SWAP1 SWAP4 MSTORE PUSH1 0x2 DUP2 ADD SLOAD SWAP2 DUP4 ADD SWAP2 SWAP1 SWAP2 MSTORE PUSH1 0x3 DUP2 ADD SLOAD PUSH1 0x60 DUP4 ADD MSTORE PUSH1 0x4 DUP2 ADD SLOAD PUSH1 0x80 DUP4 ADD MSTORE PUSH1 0x5 DUP2 ADD SLOAD PUSH1 0xFF DUP1 DUP3 AND ISZERO ISZERO PUSH1 0xA0 DUP6 ADD MSTORE PUSH2 0x100 DUP1 DUP4 DIV DUP3 AND ISZERO ISZERO PUSH1 0xC0 DUP7 ADD MSTORE PUSH3 0x10000 SWAP1 SWAP3 DIV AND ISZERO ISZERO PUSH1 0xE0 DUP5 ADD MSTORE PUSH1 0x6 DUP3 ADD SLOAD SWAP1 DUP4 ADD MSTORE PUSH1 0x7 DUP2 ADD SLOAD PUSH2 0x120 DUP4 ADD MSTORE PUSH1 0x8 DUP2 ADD SLOAD PUSH2 0x140 DUP4 ADD MSTORE PUSH1 0x9 DUP2 ADD SLOAD PUSH2 0x160 DUP4 ADD MSTORE PUSH1 0xA DUP2 ADD DUP1 SLOAD PUSH2 0x180 DUP5 ADD SWAP2 SWAP1 PUSH2 0x5DC4 SWAP1 PUSH2 0x8B20 JUMP JUMPDEST DUP1 PUSH1 0x1F ADD PUSH1 0x20 DUP1 SWAP2 DIV MUL PUSH1 0x20 ADD PUSH1 0x40 MLOAD SWAP1 DUP2 ADD PUSH1 0x40 MSTORE DUP1 SWAP3 SWAP2 SWAP1 DUP2 DUP2 MSTORE PUSH1 0x20 ADD DUP3 DUP1 SLOAD PUSH2 0x5DF0 SWAP1 PUSH2 0x8B20 JUMP JUMPDEST DUP1 ISZERO PUSH2 0x5E3D JUMPI DUP1 PUSH1 0x1F LT PUSH2 0x5E12 JUMPI PUSH2 0x100 DUP1 DUP4 SLOAD DIV MUL DUP4 MSTORE SWAP2 PUSH1 0x20 ADD SWAP2 PUSH2 0x5E3D JUMP JUMPDEST DUP3 ADD SWAP2 SWAP1 PUSH1 0x0 MSTORE PUSH1 0x20 PUSH1 0x0 KECCAK256 SWAP1 JUMPDEST DUP2 SLOAD DUP2 MSTORE SWAP1 PUSH1 0x1 ADD SWAP1 PUSH1 0x20 ADD DUP1 DUP4 GT PUSH2 0x5E20 JUMPI DUP3 SWAP1 SUB PUSH1 0x1F AND DUP3 ADD SWAP2 JUMPDEST POP POP POP SWAP2 DUP4 MSTORE POP POP PUSH1 0xB DUP3 ADD SLOAD PUSH1 0x20 SWAP1 SWAP2 ADD SWAP1 PUSH1 0xFF AND PUSH1 0x3 DUP2 GT ISZERO PUSH2 0x5E72 JUMPI PUSH4 0x4E487B71 PUSH1 0xE0 SHL PUSH1 0x0 MSTORE PUSH1 0x21 PUSH1 0x4 MSTORE PUSH1 0x24 PUSH1 0x0 REVERT JUMPDEST PUSH1 0x3 DUP2 GT ISZERO PUSH2 0x5E91 JUMPI PUSH4 0x4E487B71 PUSH1 0xE0 SHL PUSH1 0x0 MSTORE PUSH1 0x21 PUSH1 0x4 MSTORE PUSH1 0x24 PUSH1 0x0 REVERT JUMPDEST SWAP1 MSTORE POP PUSH1 0x20 DUP1 DUP3 ADD MLOAD PUSH1 0x26 SLOAD PUSH1 0x40 DUP1 MLOAD PUSH4 0x57716B7F PUSH1 0xE0 SHL DUP2 MSTORE SWAP1 MLOAD SWAP5 SWAP6 POP SWAP2 SWAP4 PUSH1 0x0 SWAP4 PUSH1 0x1 PUSH1 0x1 PUSH1 0xA0 SHL SUB SWAP1 SWAP3 AND SWAP3 PUSH4 0x57716B7F SWAP3 PUSH1 0x4 DUP1 DUP4 ADD SWAP4 SWAP2 SWAP3 DUP3 SWAP1 SUB ADD DUP2 DUP7 DUP1 EXTCODESIZE ISZERO DUP1 ISZERO PUSH2 0x5EE3 JUMPI PUSH1 0x0 DUP1 REVERT JUMPDEST POP GAS STATICCALL ISZERO DUP1 ISZERO PUSH2 0x5EF7 JUMPI RETURNDATASIZE PUSH1 0x0 DUP1 RETURNDATACOPY RETURNDATASIZE PUSH1 0x0 REVERT JUMPDEST POP POP POP POP PUSH1 0x40 MLOAD RETURNDATASIZE PUSH1 0x1F NOT PUSH1 0x1F DUP3 ADD AND DUP3 ADD DUP1 PUSH1 0x40 MSTORE POP DUP2 ADD SWAP1 PUSH2 0x5F1B SWAP2 SWAP1 PUSH2 0x775E JUMP JUMPDEST PUSH1 0x1 PUSH1 0x1 PUSH1 0x40 SHL SUB DUP2 GT ISZERO PUSH2 0x5F40 JUMPI PUSH4 0x4E487B71 PUSH1 0xE0 SHL PUSH1 0x0 MSTORE PUSH1 0x41 PUSH1 0x4 MSTORE PUSH1 0x24 PUSH1 0x0 REVERT JUMPDEST PUSH1 0x40 MLOAD SWAP1 DUP1 DUP3 MSTORE DUP1 PUSH1 0x20 MUL PUSH1 0x20 ADD DUP3 ADD PUSH1 0x40 MSTORE DUP1 ISZERO PUSH2 0x5F73 JUMPI DUP2 PUSH1 0x20 ADD JUMPDEST PUSH1 0x60 DUP2 MSTORE PUSH1 0x20 ADD SWAP1 PUSH1 0x1 SWAP1 SUB SWAP1 DUP2 PUSH2 0x5F5E JUMPI SWAP1 POP JUMPDEST POP SWAP1 POP PUSH1 0x0 JUMPDEST DUP3 DUP2 LT ISZERO PUSH2 0x6070 JUMPI DUP4 MLOAD PUSH1 0x0 SWAP1 PUSH2 0x5F91 SWAP1 DUP4 SWAP1 PUSH2 0x8A8E JUMP JUMPDEST PUSH1 0x0 DUP2 DUP2 MSTORE PUSH1 0xA PUSH1 0x20 MSTORE PUSH1 0x40 DUP2 KECCAK256 DUP1 SLOAD SWAP3 SWAP4 POP SWAP1 SWAP2 PUSH2 0x5FAF SWAP1 PUSH2 0x8B20 JUMP JUMPDEST DUP1 PUSH1 0x1F ADD PUSH1 0x20 DUP1 SWAP2 DIV MUL PUSH1 0x20 ADD PUSH1 0x40 MLOAD SWAP1 DUP2 ADD PUSH1 0x40 MSTORE DUP1 SWAP3 SWAP2 SWAP1 DUP2 DUP2 MSTORE PUSH1 0x20 ADD DUP3 DUP1 SLOAD PUSH2 0x5FDB SWAP1 PUSH2 0x8B20 JUMP JUMPDEST DUP1 ISZERO PUSH2 0x6028 JUMPI DUP1 PUSH1 0x1F LT PUSH2 0x5FFD JUMPI PUSH2 0x100 DUP1 DUP4 SLOAD DIV MUL DUP4 MSTORE SWAP2 PUSH1 0x20 ADD SWAP2 PUSH2 0x6028 JUMP JUMPDEST DUP3 ADD SWAP2 SWAP1 PUSH1 0x0 MSTORE PUSH1 0x20 PUSH1 0x0 KECCAK256 SWAP1 JUMPDEST DUP2 SLOAD DUP2 MSTORE SWAP1 PUSH1 0x1 ADD SWAP1 PUSH1 0x20 ADD DUP1 DUP4 GT PUSH2 0x600B JUMPI DUP3 SWAP1 SUB PUSH1 0x1F AND DUP3 ADD SWAP2 JUMPDEST POP POP POP POP POP SWAP1 POP DUP1 DUP5 DUP5 DUP2 MLOAD DUP2 LT PUSH2 0x6050 JUMPI PUSH4 0x4E487B71 PUSH1 0xE0 SHL PUSH1 0x0 MSTORE PUSH1 0x32 PUSH1 0x4 MSTORE PUSH1 0x24 PUSH1 0x0 REVERT JUMPDEST PUSH1 0x20 MUL PUSH1 0x20 ADD ADD DUP2 SWAP1 MSTORE POP POP POP DUP1 DUP1 PUSH2 0x6068 SWAP1 PUSH2 0x8B5B JUMP JUMPDEST SWAP2 POP POP PUSH2 0x5F79 JUMP JUMPDEST POP SWAP5 SWAP4 POP POP POP POP JUMP JUMPDEST PUSH1 0x18 SLOAD DUP2 JUMP JUMPDEST PUSH1 0x1A SLOAD DUP2 JUMP JUMPDEST PUSH2 0x608D PUSH2 0x66E0 JUMP JUMPDEST PUSH1 0x1 PUSH1 0x1 PUSH1 0xA0 SHL SUB AND PUSH2 0x609E PUSH2 0x4035 JUMP JUMPDEST PUSH1 0x1 PUSH1 0x1 PUSH1 0xA0 SHL SUB AND EQ PUSH2 0x60C4 JUMPI PUSH1 0x40 MLOAD PUSH3 0x461BCD PUSH1 0xE5 SHL DUP2 MSTORE PUSH1 0x4 ADD PUSH2 0xE1C SWAP1 PUSH2 0x822D JUMP JUMPDEST PUSH1 0x1 PUSH1 0x1 PUSH1 0xA0 SHL SUB DUP2 AND PUSH2 0x60EA JUMPI PUSH1 0x40 MLOAD PUSH3 0x461BCD PUSH1 0xE5 SHL DUP2 MSTORE PUSH1 0x4 ADD PUSH2 0xE1C SWAP1 PUSH2 0x7D4C JUMP JUMPDEST PUSH2 0x19B5 DUP2 PUSH2 0x6C12 JUMP JUMPDEST PUSH1 0x0 DUP3 DUP3 PUSH1 0x40 MLOAD PUSH1 0x20 ADD PUSH2 0x42BD SWAP3 SWAP2 SWAP1 PUSH2 0x7B63 JUMP JUMPDEST PUSH1 0x1A SLOAD SWAP1 JUMP JUMPDEST PUSH2 0x6116 PUSH2 0x66E4 JUMP JUMPDEST CALLER PUSH1 0x0 SWAP1 DUP2 MSTORE PUSH1 0xC PUSH1 0x20 SWAP1 DUP2 MSTORE PUSH1 0x40 SWAP2 DUP3 SWAP1 KECCAK256 PUSH1 0x26 SLOAD DUP4 MLOAD PUSH4 0x98A54E2B PUSH1 0xE0 SHL DUP2 MSTORE SWAP4 MLOAD SWAP2 SWAP4 PUSH1 0x1 PUSH1 0x1 PUSH1 0xA0 SHL SUB SWAP1 SWAP2 AND SWAP3 PUSH4 0x98A54E2B SWAP3 PUSH1 0x4 DUP1 DUP5 ADD SWAP4 DUP3 SWAP1 SUB ADD DUP2 DUP7 DUP1 EXTCODESIZE ISZERO DUP1 ISZERO PUSH2 0x6168 JUMPI PUSH1 0x0 DUP1 REVERT JUMPDEST POP GAS STATICCALL ISZERO DUP1 ISZERO PUSH2 0x617C JUMPI RETURNDATASIZE PUSH1 0x0 DUP1 RETURNDATACOPY RETURNDATASIZE PUSH1 0x0 REVERT JUMPDEST POP POP POP POP PUSH1 0x40 MLOAD RETURNDATASIZE PUSH1 0x1F NOT PUSH1 0x1F DUP3 ADD AND DUP3 ADD DUP1 PUSH1 0x40 MSTORE POP DUP2 ADD SWAP1 PUSH2 0x61A0 SWAP2 SWAP1 PUSH2 0x775E JUMP JUMPDEST PUSH1 0x12 SLOAD PUSH1 0x11 SLOAD PUSH2 0x61B0 SWAP2 SWAP1 PUSH2 0x8A8E JUMP JUMPDEST LT PUSH2 0x61CD JUMPI PUSH1 0x40 MLOAD PUSH3 0x461BCD PUSH1 0xE5 SHL DUP2 MSTORE PUSH1 0x4 ADD PUSH2 0xE1C SWAP1 PUSH2 0x8536 JUMP JUMPDEST PUSH1 0x5 DUP2 ADD SLOAD PUSH1 0xFF AND ISZERO PUSH2 0x61F2 JUMPI PUSH1 0x40 MLOAD PUSH3 0x461BCD PUSH1 0xE5 SHL DUP2 MSTORE PUSH1 0x4 ADD PUSH2 0xE1C SWAP1 PUSH2 0x7C2F JUMP JUMPDEST PUSH1 0x26 PUSH1 0x0 SWAP1 SLOAD SWAP1 PUSH2 0x100 EXP SWAP1 DIV PUSH1 0x1 PUSH1 0x1 PUSH1 0xA0 SHL SUB AND PUSH1 0x1 PUSH1 0x1 PUSH1 0xA0 SHL SUB AND PUSH4 0x9FB491F6 PUSH1 0x40 MLOAD DUP2 PUSH4 0xFFFFFFFF AND PUSH1 0xE0 SHL DUP2 MSTORE PUSH1 0x4 ADD PUSH1 0x20 PUSH1 0x40 MLOAD DUP1 DUP4 SUB DUP2 DUP7 DUP1 EXTCODESIZE ISZERO DUP1 ISZERO PUSH2 0x6240 JUMPI PUSH1 0x0 DUP1 REVERT JUMPDEST POP GAS STATICCALL ISZERO DUP1 ISZERO PUSH2 0x6254 JUMPI RETURNDATASIZE PUSH1 0x0 DUP1 RETURNDATACOPY RETURNDATASIZE PUSH1 0x0 REVERT JUMPDEST POP POP POP POP PUSH1 0x40 MLOAD RETURNDATASIZE PUSH1 0x1F NOT PUSH1 0x1F DUP3 ADD AND DUP3 ADD DUP1 PUSH1 0x40 MSTORE POP DUP2 ADD SWAP1 PUSH2 0x6278 SWAP2 SWAP1 PUSH2 0x775E JUMP JUMPDEST DUP2 PUSH1 0x3 ADD SLOAD LT ISZERO DUP1 ISZERO PUSH2 0x631D JUMPI POP PUSH1 0x26 PUSH1 0x0 SWAP1 SLOAD SWAP1 PUSH2 0x100 EXP SWAP1 DIV PUSH1 0x1 PUSH1 0x1 PUSH1 0xA0 SHL SUB AND PUSH1 0x1 PUSH1 0x1 PUSH1 0xA0 SHL SUB AND PUSH4 0xF1F0FFE PUSH1 0x40 MLOAD DUP2 PUSH4 0xFFFFFFFF AND PUSH1 0xE0 SHL DUP2 MSTORE PUSH1 0x4 ADD PUSH1 0x20 PUSH1 0x40 MLOAD DUP1 DUP4 SUB DUP2 DUP7 DUP1 EXTCODESIZE ISZERO DUP1 ISZERO PUSH2 0x62D4 JUMPI PUSH1 0x0 DUP1 REVERT JUMPDEST POP GAS STATICCALL ISZERO DUP1 ISZERO PUSH2 0x62E8 JUMPI RETURNDATASIZE PUSH1 0x0 DUP1 RETURNDATACOPY RETURNDATASIZE PUSH1 0x0 REVERT JUMPDEST POP POP POP POP PUSH1 0x40 MLOAD RETURNDATASIZE PUSH1 0x1F NOT PUSH1 0x1F DUP3 ADD AND DUP3 ADD DUP1 PUSH1 0x40 MSTORE POP DUP2 ADD SWAP1 PUSH2 0x630C SWAP2 SWAP1 PUSH2 0x775E JUMP JUMPDEST PUSH1 0x6 DUP3 ADD SLOAD PUSH2 0x631B SWAP1 TIMESTAMP PUSH2 0x8AD9 JUMP JUMPDEST LT JUMPDEST ISZERO PUSH2 0x633A JUMPI PUSH1 0x40 MLOAD PUSH3 0x461BCD PUSH1 0xE5 SHL DUP2 MSTORE PUSH1 0x4 ADD PUSH2 0xE1C SWAP1 PUSH2 0x85D5 JUMP JUMPDEST PUSH1 0x26 SLOAD PUSH1 0x40 DUP1 MLOAD PUSH4 0x23AEA691 PUSH1 0xE0 SHL DUP2 MSTORE SWAP1 MLOAD PUSH1 0x0 SWAP3 PUSH1 0x1 PUSH1 0x1 PUSH1 0xA0 SHL SUB AND SWAP2 PUSH4 0x23AEA691 SWAP2 PUSH1 0x4 DUP1 DUP4 ADD SWAP3 PUSH1 0x20 SWAP3 SWAP2 SWAP1 DUP3 SWAP1 SUB ADD DUP2 DUP7 DUP1 EXTCODESIZE ISZERO DUP1 ISZERO PUSH2 0x637F JUMPI PUSH1 0x0 DUP1 REVERT JUMPDEST POP GAS STATICCALL ISZERO DUP1 ISZERO PUSH2 0x6393 JUMPI RETURNDATASIZE PUSH1 0x0 DUP1 RETURNDATACOPY RETURNDATASIZE PUSH1 0x0 REVERT JUMPDEST POP POP POP POP PUSH1 0x40 MLOAD RETURNDATASIZE PUSH1 0x1F NOT PUSH1 0x1F DUP3 ADD AND DUP3 ADD DUP1 PUSH1 0x40 MSTORE POP DUP2 ADD SWAP1 PUSH2 0x63B7 SWAP2 SWAP1 PUSH2 0x775E JUMP JUMPDEST PUSH1 0x23 SLOAD PUSH1 0x40 MLOAD PUSH4 0x792F4F69 PUSH1 0xE1 SHL DUP2 MSTORE SWAP2 SWAP3 POP PUSH1 0x0 SWAP2 PUSH1 0x1 PUSH1 0x1 PUSH1 0xA0 SHL SUB SWAP1 SWAP2 AND SWAP1 PUSH4 0xF25E9ED2 SWAP1 PUSH2 0x63ED SWAP1 CALLER SWAP1 PUSH1 0x4 ADD PUSH2 0x79CE JUMP JUMPDEST PUSH1 0x20 PUSH1 0x40 MLOAD DUP1 DUP4 SUB DUP2 DUP7 DUP1 EXTCODESIZE ISZERO DUP1 ISZERO PUSH2 0x6405 JUMPI PUSH1 0x0 DUP1 REVERT JUMPDEST POP GAS STATICCALL ISZERO DUP1 ISZERO PUSH2 0x6419 JUMPI RETURNDATASIZE PUSH1 0x0 DUP1 RETURNDATACOPY RETURNDATASIZE PUSH1 0x0 REVERT JUMPDEST POP POP POP POP PUSH1 0x40 MLOAD RETURNDATASIZE PUSH1 0x1F NOT PUSH1 0x1F DUP3 ADD AND DUP3 ADD DUP1 PUSH1 0x40 MSTORE POP DUP2 ADD SWAP1 PUSH2 0x643D SWAP2 SWAP1 PUSH2 0x7450 JUMP JUMPDEST CALLER PUSH1 0x0 SWAP1 DUP2 MSTORE PUSH1 0xD PUSH1 0x20 MSTORE PUSH1 0x40 SWAP1 KECCAK256 SLOAD SWAP1 SWAP2 POP DUP3 GT ISZERO PUSH2 0x64E6 JUMPI PUSH1 0x1 PUSH1 0x1 PUSH1 0xA0 SHL SUB DUP2 AND ISZERO PUSH2 0x64BD JUMPI PUSH1 0x1 PUSH1 0x1 PUSH1 0xA0 SHL SUB DUP2 AND PUSH1 0x0 SWAP1 DUP2 MSTORE PUSH1 0xD PUSH1 0x20 MSTORE PUSH1 0x40 SWAP1 KECCAK256 SLOAD DUP3 GT ISZERO PUSH2 0x64B8 JUMPI PUSH1 0x1 PUSH1 0x1 PUSH1 0xA0 SHL SUB DUP2 AND PUSH1 0x0 SWAP1 DUP2 MSTORE PUSH1 0xD PUSH1 0x20 MSTORE PUSH1 0x40 DUP2 KECCAK256 SLOAD PUSH2 0x64AA SWAP1 DUP5 SWAP1 PUSH2 0x6AF4 JUMP JUMPDEST SWAP1 POP PUSH2 0x64B6 DUP2 DUP4 PUSH2 0x6C62 JUMP JUMPDEST POP JUMPDEST PUSH2 0x64E6 JUMP JUMPDEST CALLER PUSH1 0x0 SWAP1 DUP2 MSTORE PUSH1 0xD PUSH1 0x20 MSTORE PUSH1 0x40 DUP2 KECCAK256 SLOAD PUSH2 0x64D8 SWAP1 DUP5 SWAP1 PUSH2 0x6AF4 JUMP JUMPDEST SWAP1 POP PUSH2 0x64E4 DUP2 CALLER PUSH2 0x6C62 JUMP JUMPDEST POP JUMPDEST CALLER PUSH1 0x0 SWAP1 DUP2 MSTORE PUSH1 0xD PUSH1 0x20 MSTORE PUSH1 0x40 SWAP1 KECCAK256 SLOAD DUP3 GT ISZERO PUSH2 0x6515 JUMPI PUSH1 0x40 MLOAD PUSH3 0x461BCD PUSH1 0xE5 SHL DUP2 MSTORE PUSH1 0x4 ADD PUSH2 0xE1C SWAP1 PUSH2 0x7FE8 JUMP JUMPDEST PUSH2 0x651E CALLER PUSH2 0x6B00 JUMP JUMPDEST PUSH2 0x6565 JUMPI PUSH1 0x11 DUP1 SLOAD PUSH1 0x1 DUP2 ADD DUP3 SSTORE PUSH1 0x0 SWAP2 SWAP1 SWAP2 MSTORE PUSH32 0x31ECC21A745E3968A04E9570E4425BC18FA8019C68028196B546D1669C200C68 ADD DUP1 SLOAD PUSH1 0x1 PUSH1 0x1 PUSH1 0xA0 SHL SUB NOT AND CALLER OR SWAP1 SSTORE JUMPDEST DUP3 SLOAD CALLER PUSH1 0x1 PUSH1 0x1 PUSH1 0xA0 SHL SUB NOT SWAP1 SWAP2 AND OR DUP4 SSTORE PUSH1 0x5 DUP4 ADD DUP1 SLOAD PUSH1 0xFF NOT AND PUSH1 0x1 SWAP1 DUP2 OR PUSH2 0xFF00 NOT AND SWAP1 SWAP2 SSTORE TIMESTAMP PUSH1 0x6 DUP6 ADD SSTORE PUSH1 0x0 PUSH1 0x3 DUP6 ADD DUP2 SWAP1 SSTORE PUSH1 0x1A DUP1 SLOAD SWAP1 SWAP2 SWAP1 PUSH2 0x65AF SWAP1 DUP5 SWAP1 PUSH2 0x8A8E JUMP JUMPDEST SWAP1 SWAP2 SSTORE POP POP PUSH1 0x40 MLOAD CALLER SWAP1 PUSH32 0x439D77B7534EC3108FC6143BD4FBABDE0B9F2BB54F7B0730D1F70DD2135B765F SWAP1 PUSH2 0x65E6 SWAP1 TIMESTAMP SWAP1 PUSH2 0x799B JUMP JUMPDEST PUSH1 0x40 MLOAD DUP1 SWAP2 SUB SWAP1 LOG2 POP POP POP JUMP JUMPDEST PUSH1 0x17 SLOAD LT ISZERO SWAP1 JUMP JUMPDEST CALLER PUSH1 0x0 SWAP1 DUP2 MSTORE PUSH1 0xC PUSH1 0x20 MSTORE PUSH1 0x40 SWAP1 KECCAK256 PUSH1 0x5 ADD SLOAD PUSH1 0xFF AND SWAP1 JUMP JUMPDEST PUSH1 0x1C SLOAD SWAP1 JUMP JUMPDEST PUSH1 0x1F SLOAD PUSH1 0x1 PUSH1 0x1 PUSH1 0xA0 SHL SUB AND DUP2 JUMP JUMPDEST PUSH1 0x1 PUSH1 0x1 PUSH1 0xA0 SHL SUB SWAP1 DUP2 AND PUSH1 0x0 SWAP1 DUP2 MSTORE PUSH1 0xC PUSH1 0x20 SWAP1 DUP2 MSTORE PUSH1 0x40 SWAP2 DUP3 SWAP1 KECCAK256 DUP3 MLOAD PUSH2 0x140 DUP2 ADD DUP5 MSTORE DUP2 SLOAD SWAP1 SWAP5 AND DUP5 MSTORE PUSH1 0x1 DUP2 ADD SLOAD SWAP2 DUP5 ADD DUP3 SWAP1 MSTORE PUSH1 0x2 DUP2 ADD SLOAD PUSH1 0xFF SWAP1 DUP2 AND ISZERO ISZERO SWAP4 DUP6 ADD SWAP4 SWAP1 SWAP4 MSTORE PUSH1 0x3 DUP2 ADD SLOAD PUSH1 0x60 DUP6 ADD MSTORE PUSH1 0x4 DUP2 ADD SLOAD PUSH1 0x80 DUP6 ADD MSTORE PUSH1 0x5 DUP2 ADD SLOAD DUP1 DUP5 AND ISZERO ISZERO PUSH1 0xA0 DUP7 ADD MSTORE PUSH2 0x100 SWAP1 DUP2 SWAP1 DIV SWAP1 SWAP4 AND ISZERO ISZERO PUSH1 0xC0 DUP6 ADD MSTORE PUSH1 0x6 DUP2 ADD SLOAD PUSH1 0xE0 DUP6 ADD MSTORE PUSH1 0x7 DUP2 ADD SLOAD SWAP3 DUP5 ADD SWAP3 SWAP1 SWAP3 MSTORE PUSH1 0x8 SWAP1 SWAP2 ADD SLOAD PUSH2 0x120 SWAP1 SWAP3 ADD SWAP2 SWAP1 SWAP2 MSTORE SWAP1 JUMP JUMPDEST PUSH1 0x26 SLOAD PUSH1 0x1 PUSH1 0x1 PUSH1 0xA0 SHL SUB AND DUP2 JUMP JUMPDEST CALLER SWAP1 JUMP JUMPDEST PUSH1 0x14 SLOAD PUSH1 0x1 PUSH1 0x1 PUSH1 0xA0 SHL SUB AND PUSH2 0x670C JUMPI PUSH1 0x40 MLOAD PUSH3 0x461BCD PUSH1 0xE5 SHL DUP2 MSTORE PUSH1 0x4 ADD PUSH2 0xE1C SWAP1 PUSH2 0x847F JUMP JUMPDEST PUSH1 0x14 SLOAD PUSH1 0x40 MLOAD PUSH1 0x0 SWAP2 PUSH1 0x1 PUSH1 0x1 PUSH1 0xA0 SHL SUB AND SWAP1 PUSH2 0x672D SWAP1 CALLER SWAP1 PUSH1 0x24 ADD PUSH2 0x79CE JUMP JUMPDEST PUSH1 0x40 DUP1 MLOAD PUSH1 0x1F NOT DUP2 DUP5 SUB ADD DUP2 MSTORE SWAP2 DUP2 MSTORE PUSH1 0x20 DUP3 ADD DUP1 MLOAD PUSH1 0x1 PUSH1 0x1 PUSH1 0xE0 SHL SUB AND PUSH4 0x1F5AC9C5 PUSH1 0xE1 SHL OR SWAP1 MSTORE MLOAD PUSH2 0x6762 SWAP2 SWAP1 PUSH2 0x79A4 JUMP JUMPDEST PUSH1 0x0 PUSH1 0x40 MLOAD DUP1 DUP4 SUB DUP2 PUSH1 0x0 DUP7 GAS CALL SWAP2 POP POP RETURNDATASIZE DUP1 PUSH1 0x0 DUP2 EQ PUSH2 0x679F JUMPI PUSH1 0x40 MLOAD SWAP2 POP PUSH1 0x1F NOT PUSH1 0x3F RETURNDATASIZE ADD AND DUP3 ADD PUSH1 0x40 MSTORE RETURNDATASIZE DUP3 MSTORE RETURNDATASIZE PUSH1 0x0 PUSH1 0x20 DUP5 ADD RETURNDATACOPY PUSH2 0x67A4 JUMP JUMPDEST PUSH1 0x60 SWAP2 POP JUMPDEST POP POP PUSH1 0x14 SLOAD PUSH1 0x40 MLOAD SWAP2 SWAP3 POP PUSH1 0x0 SWAP2 PUSH1 0x1 PUSH1 0x1 PUSH1 0xA0 SHL SUB SWAP1 SWAP2 AND SWAP1 PUSH2 0x67CC SWAP1 CALLER SWAP1 PUSH1 0x24 ADD PUSH2 0x79CE JUMP JUMPDEST PUSH1 0x40 DUP1 MLOAD PUSH1 0x1F NOT DUP2 DUP5 SUB ADD DUP2 MSTORE SWAP2 DUP2 MSTORE PUSH1 0x20 DUP3 ADD DUP1 MLOAD PUSH1 0x1 PUSH1 0x1 PUSH1 0xE0 SHL SUB AND PUSH4 0x58563D21 PUSH1 0xE0 SHL OR SWAP1 MSTORE MLOAD PUSH2 0x6801 SWAP2 SWAP1 PUSH2 0x79A4 JUMP JUMPDEST PUSH1 0x0 PUSH1 0x40 MLOAD DUP1 DUP4 SUB DUP2 PUSH1 0x0 DUP7 GAS CALL SWAP2 POP POP RETURNDATASIZE DUP1 PUSH1 0x0 DUP2 EQ PUSH2 0x683E JUMPI PUSH1 0x40 MLOAD SWAP2 POP PUSH1 0x1F NOT PUSH1 0x3F RETURNDATASIZE ADD AND DUP3 ADD PUSH1 0x40 MSTORE RETURNDATASIZE DUP3 MSTORE RETURNDATASIZE PUSH1 0x0 PUSH1 0x20 DUP5 ADD RETURNDATACOPY PUSH2 0x6843 JUMP JUMPDEST PUSH1 0x60 SWAP2 POP JUMPDEST POP POP SWAP1 POP DUP2 DUP1 PUSH2 0x6850 JUMPI POP DUP1 JUMPDEST PUSH2 0x4280 JUMPI PUSH1 0x40 MLOAD PUSH3 0x461BCD PUSH1 0xE5 SHL DUP2 MSTORE PUSH1 0x4 ADD PUSH2 0xE1C SWAP1 PUSH2 0x7CB7 JUMP JUMPDEST PUSH1 0x0 DUP1 PUSH1 0x0 JUMPDEST PUSH1 0x11 SLOAD DUP2 LT ISZERO PUSH2 0x68E0 JUMPI DUP4 PUSH1 0x1 PUSH1 0x1 PUSH1 0xA0 SHL SUB AND PUSH1 0x11 DUP3 DUP2 SLOAD DUP2 LT PUSH2 0x68A7 JUMPI PUSH4 0x4E487B71 PUSH1 0xE0 SHL PUSH1 0x0 MSTORE PUSH1 0x32 PUSH1 0x4 MSTORE PUSH1 0x24 PUSH1 0x0 REVERT JUMPDEST PUSH1 0x0 SWAP2 DUP3 MSTORE PUSH1 0x20 SWAP1 SWAP2 KECCAK256 ADD SLOAD PUSH1 0x1 PUSH1 0x1 PUSH1 0xA0 SHL SUB AND EQ ISZERO PUSH2 0x68CE JUMPI PUSH1 0x1 SWAP2 POP DUP1 SWAP3 POP PUSH2 0x68E0 JUMP JUMPDEST DUP1 PUSH2 0x68D8 DUP2 PUSH2 0x8B5B JUMP JUMPDEST SWAP2 POP POP PUSH2 0x6872 JUMP JUMPDEST POP DUP1 ISZERO PUSH2 0x69BF JUMPI PUSH1 0x11 DUP1 SLOAD PUSH2 0x68F7 SWAP1 PUSH1 0x1 SWAP1 PUSH2 0x8AD9 JUMP JUMPDEST DUP2 SLOAD DUP2 LT PUSH2 0x6915 JUMPI PUSH4 0x4E487B71 PUSH1 0xE0 SHL PUSH1 0x0 MSTORE PUSH1 0x32 PUSH1 0x4 MSTORE PUSH1 0x24 PUSH1 0x0 REVERT JUMPDEST PUSH1 0x0 SWAP2 DUP3 MSTORE PUSH1 0x20 SWAP1 SWAP2 KECCAK256 ADD SLOAD PUSH1 0x11 DUP1 SLOAD PUSH1 0x1 PUSH1 0x1 PUSH1 0xA0 SHL SUB SWAP1 SWAP3 AND SWAP2 DUP5 SWAP1 DUP2 LT PUSH2 0x694F JUMPI PUSH4 0x4E487B71 PUSH1 0xE0 SHL PUSH1 0x0 MSTORE PUSH1 0x32 PUSH1 0x4 MSTORE PUSH1 0x24 PUSH1 0x0 REVERT JUMPDEST SWAP1 PUSH1 0x0 MSTORE PUSH1 0x20 PUSH1 0x0 KECCAK256 ADD PUSH1 0x0 PUSH2 0x100 EXP DUP2 SLOAD DUP2 PUSH1 0x1 PUSH1 0x1 PUSH1 0xA0 SHL SUB MUL NOT AND SWAP1 DUP4 PUSH1 0x1 PUSH1 0x1 PUSH1 0xA0 SHL SUB AND MUL OR SWAP1 SSTORE POP PUSH1 0x11 DUP1 SLOAD DUP1 PUSH2 0x699C JUMPI PUSH4 0x4E487B71 PUSH1 0xE0 SHL PUSH1 0x0 MSTORE PUSH1 0x31 PUSH1 0x4 MSTORE PUSH1 0x24 PUSH1 0x0 REVERT JUMPDEST PUSH1 0x0 DUP3 DUP2 MSTORE PUSH1 0x20 SWAP1 KECCAK256 DUP2 ADD PUSH1 0x0 NOT SWAP1 DUP2 ADD DUP1 SLOAD PUSH1 0x1 PUSH1 0x1 PUSH1 0xA0 SHL SUB NOT AND SWAP1 SSTORE ADD SWAP1 SSTORE JUMPDEST POP POP POP JUMP JUMPDEST PUSH1 0x0 DUP1 PUSH1 0x0 JUMPDEST PUSH1 0x12 SLOAD DUP2 LT ISZERO PUSH2 0x6A38 JUMPI DUP4 PUSH1 0x1 PUSH1 0x1 PUSH1 0xA0 SHL SUB AND PUSH1 0x12 DUP3 DUP2 SLOAD DUP2 LT PUSH2 0x69FF JUMPI PUSH4 0x4E487B71 PUSH1 0xE0 SHL PUSH1 0x0 MSTORE PUSH1 0x32 PUSH1 0x4 MSTORE PUSH1 0x24 PUSH1 0x0 REVERT JUMPDEST PUSH1 0x0 SWAP2 DUP3 MSTORE PUSH1 0x20 SWAP1 SWAP2 KECCAK256 ADD SLOAD PUSH1 0x1 PUSH1 0x1 PUSH1 0xA0 SHL SUB AND EQ ISZERO PUSH2 0x6A26 JUMPI PUSH1 0x1 SWAP2 POP DUP1 SWAP3 POP PUSH2 0x6A38 JUMP JUMPDEST DUP1 PUSH2 0x6A30 DUP2 PUSH2 0x8B5B JUMP JUMPDEST SWAP2 POP POP PUSH2 0x69CA JUMP JUMPDEST POP DUP1 ISZERO PUSH2 0x69BF JUMPI PUSH1 0x12 DUP1 SLOAD PUSH2 0x6A4F SWAP1 PUSH1 0x1 SWAP1 PUSH2 0x8AD9 JUMP JUMPDEST DUP2 SLOAD DUP2 LT PUSH2 0x6A6D JUMPI PUSH4 0x4E487B71 PUSH1 0xE0 SHL PUSH1 0x0 MSTORE PUSH1 0x32 PUSH1 0x4 MSTORE PUSH1 0x24 PUSH1 0x0 REVERT JUMPDEST PUSH1 0x0 SWAP2 DUP3 MSTORE PUSH1 0x20 SWAP1 SWAP2 KECCAK256 ADD SLOAD PUSH1 0x12 DUP1 SLOAD PUSH1 0x1 PUSH1 0x1 PUSH1 0xA0 SHL SUB SWAP1 SWAP3 AND SWAP2 DUP5 SWAP1 DUP2 LT PUSH2 0x6AA7 JUMPI PUSH4 0x4E487B71 PUSH1 0xE0 SHL PUSH1 0x0 MSTORE PUSH1 0x32 PUSH1 0x4 MSTORE PUSH1 0x24 PUSH1 0x0 REVERT JUMPDEST SWAP1 PUSH1 0x0 MSTORE PUSH1 0x20 PUSH1 0x0 KECCAK256 ADD PUSH1 0x0 PUSH2 0x100 EXP DUP2 SLOAD DUP2 PUSH1 0x1 PUSH1 0x1 PUSH1 0xA0 SHL SUB MUL NOT AND SWAP1 DUP4 PUSH1 0x1 PUSH1 0x1 PUSH1 0xA0 SHL SUB AND MUL OR SWAP1 SSTORE POP PUSH1 0x12 DUP1 SLOAD DUP1 PUSH2 0x699C JUMPI PUSH4 0x4E487B71 PUSH1 0xE0 SHL PUSH1 0x0 MSTORE PUSH1 0x31 PUSH1 0x4 MSTORE PUSH1 0x24 PUSH1 0x0 REVERT JUMPDEST PUSH1 0x0 PUSH2 0x1446 DUP3 DUP5 PUSH2 0x8AD9 JUMP JUMPDEST PUSH1 0x0 DUP1 DUP1 JUMPDEST PUSH1 0x11 SLOAD DUP2 LT ISZERO PUSH2 0x4C05 JUMPI DUP4 PUSH1 0x1 PUSH1 0x1 PUSH1 0xA0 SHL SUB AND PUSH1 0x11 DUP3 DUP2 SLOAD DUP2 LT PUSH2 0x6B3A JUMPI PUSH4 0x4E487B71 PUSH1 0xE0 SHL PUSH1 0x0 MSTORE PUSH1 0x32 PUSH1 0x4 MSTORE PUSH1 0x24 PUSH1 0x0 REVERT JUMPDEST PUSH1 0x0 SWAP2 DUP3 MSTORE PUSH1 0x20 SWAP1 SWAP2 KECCAK256 ADD SLOAD PUSH1 0x1 PUSH1 0x1 PUSH1 0xA0 SHL SUB AND EQ ISZERO PUSH2 0x6B5E JUMPI PUSH1 0x1 SWAP2 POP PUSH2 0x4C05 JUMP JUMPDEST DUP1 PUSH2 0x6B68 DUP2 PUSH2 0x8B5B JUMP JUMPDEST SWAP2 POP POP PUSH2 0x6B05 JUMP JUMPDEST PUSH1 0x0 DUP2 DUP4 LT PUSH2 0x6B7F JUMPI DUP2 PUSH2 0x1446 JUMP JUMPDEST POP SWAP1 SWAP2 SWAP1 POP JUMP JUMPDEST PUSH1 0x0 DUP2 DUP4 LT ISZERO PUSH2 0x6B7F JUMPI DUP2 PUSH2 0x1446 JUMP JUMPDEST PUSH1 0x0 PUSH2 0x1446 DUP3 DUP5 PUSH2 0x8A8E JUMP JUMPDEST PUSH1 0x0 DUP1 DUP1 JUMPDEST PUSH1 0x12 SLOAD DUP2 LT ISZERO PUSH2 0x4C05 JUMPI DUP4 PUSH1 0x1 PUSH1 0x1 PUSH1 0xA0 SHL SUB AND PUSH1 0x12 DUP3 DUP2 SLOAD DUP2 LT PUSH2 0x6BDC JUMPI PUSH4 0x4E487B71 PUSH1 0xE0 SHL PUSH1 0x0 MSTORE PUSH1 0x32 PUSH1 0x4 MSTORE PUSH1 0x24 PUSH1 0x0 REVERT JUMPDEST PUSH1 0x0 SWAP2 DUP3 MSTORE PUSH1 0x20 SWAP1 SWAP2 KECCAK256 ADD SLOAD PUSH1 0x1 PUSH1 0x1 PUSH1 0xA0 SHL SUB AND EQ ISZERO PUSH2 0x6C00 JUMPI PUSH1 0x1 SWAP2 POP PUSH2 0x4C05 JUMP JUMPDEST DUP1 PUSH2 0x6C0A DUP2 PUSH2 0x8B5B JUMP JUMPDEST SWAP2 POP POP PUSH2 0x6BA7 JUMP JUMPDEST PUSH1 0x0 DUP1 SLOAD PUSH1 0x1 PUSH1 0x1 PUSH1 0xA0 SHL SUB DUP4 DUP2 AND PUSH1 0x1 PUSH1 0x1 PUSH1 0xA0 SHL SUB NOT DUP4 AND DUP2 OR DUP5 SSTORE PUSH1 0x40 MLOAD SWAP2 SWAP1 SWAP3 AND SWAP3 DUP4 SWAP2 PUSH32 0x8BE0079C531659141344CD1FD0A4F28419497F9722A3DAAFE3B4186F6B6457E0 SWAP2 SWAP1 LOG3 POP POP JUMP JUMPDEST PUSH1 0x20 SLOAD PUSH1 0x40 MLOAD PUSH4 0x4ADA21F PUSH1 0xE2 SHL DUP2 MSTORE PUSH1 0x1 PUSH1 0x1 PUSH1 0xA0 SHL SUB SWAP1 SWAP2 AND SWAP1 PUSH4 0x12B6887C SWAP1 PUSH2 0x6C94 SWAP1 DUP6 SWAP1 DUP6 SWAP1 PUSH1 0x4 ADD PUSH2 0x8957 JUMP JUMPDEST PUSH1 0x20 PUSH1 0x40 MLOAD DUP1 DUP4 SUB DUP2 PUSH1 0x0 DUP8 DUP1 EXTCODESIZE ISZERO DUP1 ISZERO PUSH2 0x6CAE JUMPI PUSH1 0x0 DUP1 REVERT JUMPDEST POP GAS CALL ISZERO DUP1 ISZERO PUSH2 0x6CC2 JUMPI RETURNDATASIZE PUSH1 0x0 DUP1 RETURNDATACOPY RETURNDATASIZE PUSH1 0x0 REVERT JUMPDEST POP POP POP POP PUSH1 0x40 MLOAD RETURNDATASIZE PUSH1 0x1F NOT PUSH1 0x1F DUP3 ADD AND DUP3 ADD DUP1 PUSH1 0x40 MSTORE POP DUP2 ADD SWAP1 PUSH2 0x6CE6 SWAP2 SWAP1 PUSH2 0x7571 JUMP JUMPDEST PUSH2 0x6D02 JUMPI PUSH1 0x40 MLOAD PUSH3 0x461BCD PUSH1 0xE5 SHL DUP2 MSTORE PUSH1 0x4 ADD PUSH2 0xE1C SWAP1 PUSH2 0x7EEE JUMP JUMPDEST PUSH1 0x1 PUSH1 0x1 PUSH1 0xA0 SHL SUB DUP2 AND PUSH1 0x0 SWAP1 DUP2 MSTORE PUSH1 0xD PUSH1 0x20 MSTORE PUSH1 0x40 DUP2 KECCAK256 DUP1 SLOAD DUP5 SWAP3 SWAP1 PUSH2 0x6D2A SWAP1 DUP5 SWAP1 PUSH2 0x8A8E JUMP JUMPDEST SWAP3 POP POP DUP2 SWAP1 SSTORE POP DUP1 PUSH1 0x1 PUSH1 0x1 PUSH1 0xA0 SHL SUB AND PUSH32 0x5AA5D56140767016C877A5333AC3E1AD31A09051098A8FDF7297C4B64530A942 DUP4 PUSH1 0x40 MLOAD PUSH2 0x5CD2 SWAP2 SWAP1 PUSH2 0x799B JUMP JUMPDEST DUP1 MLOAD PUSH1 0x60 SWAP1 PUSH1 0x0 JUMPDEST DUP2 DUP2 LT ISZERO PUSH2 0x6DB8 JUMPI DUP1 DUP5 DUP3 DUP2 MLOAD DUP2 LT PUSH2 0x6D9B JUMPI PUSH4 0x4E487B71 PUSH1 0xE0 SHL PUSH1 0x0 MSTORE PUSH1 0x32 PUSH1 0x4 MSTORE PUSH1 0x24 PUSH1 0x0 REVERT JUMPDEST PUSH1 0x20 SWAP1 DUP2 MUL SWAP2 SWAP1 SWAP2 ADD ADD MSTORE DUP1 PUSH2 0x6DB0 DUP2 PUSH2 0x8B5B JUMP JUMPDEST SWAP2 POP POP PUSH2 0x6D72 JUMP JUMPDEST POP SWAP2 SWAP3 SWAP2 POP POP JUMP JUMPDEST PUSH1 0x60 PUSH1 0x0 DUP3 MLOAD GT PUSH2 0x6DD0 JUMPI PUSH1 0x0 DUP1 REVERT JUMPDEST DUP2 MLOAD DUP1 PUSH1 0x0 JUMPDEST DUP2 DUP2 LT ISZERO PUSH2 0x6F4B JUMPI PUSH1 0x0 DUP4 PUSH2 0x6DE9 PUSH2 0x4A6B JUMP JUMPDEST DUP8 DUP5 DUP2 MLOAD DUP2 LT PUSH2 0x6E09 JUMPI PUSH4 0x4E487B71 PUSH1 0xE0 SHL PUSH1 0x0 MSTORE PUSH1 0x32 PUSH1 0x4 MSTORE PUSH1 0x24 PUSH1 0x0 REVERT JUMPDEST PUSH1 0x20 MUL PUSH1 0x20 ADD ADD MLOAD PUSH1 0x40 MLOAD PUSH1 0x20 ADD PUSH2 0x6E22 SWAP3 SWAP2 SWAP1 PUSH2 0x79C0 JUMP JUMPDEST PUSH1 0x40 MLOAD PUSH1 0x20 DUP2 DUP4 SUB SUB DUP2 MSTORE SWAP1 PUSH1 0x40 MSTORE DUP1 MLOAD SWAP1 PUSH1 0x20 ADD KECCAK256 PUSH1 0x0 SHR PUSH2 0x6E45 SWAP2 SWAP1 PUSH2 0x8B76 JUMP JUMPDEST PUSH2 0x6E50 SWAP1 PUSH1 0x1 PUSH2 0x8A8E JUMP JUMPDEST SWAP1 POP PUSH1 0x0 DUP7 PUSH2 0x6E60 PUSH1 0x1 DUP5 PUSH2 0x8AD9 JUMP JUMPDEST DUP2 MLOAD DUP2 LT PUSH2 0x6E7E JUMPI PUSH4 0x4E487B71 PUSH1 0xE0 SHL PUSH1 0x0 MSTORE PUSH1 0x32 PUSH1 0x4 MSTORE PUSH1 0x24 PUSH1 0x0 REVERT JUMPDEST PUSH1 0x20 MUL PUSH1 0x20 ADD ADD MLOAD SWAP1 POP DUP7 PUSH1 0x1 DUP7 PUSH2 0x6E96 SWAP2 SWAP1 PUSH2 0x8AD9 JUMP JUMPDEST DUP2 MLOAD DUP2 LT PUSH2 0x6EB4 JUMPI PUSH4 0x4E487B71 PUSH1 0xE0 SHL PUSH1 0x0 MSTORE PUSH1 0x32 PUSH1 0x4 MSTORE PUSH1 0x24 PUSH1 0x0 REVERT JUMPDEST PUSH1 0x20 MUL PUSH1 0x20 ADD ADD MLOAD DUP8 PUSH1 0x1 DUP5 PUSH2 0x6ECA SWAP2 SWAP1 PUSH2 0x8AD9 JUMP JUMPDEST DUP2 MLOAD DUP2 LT PUSH2 0x6EE8 JUMPI PUSH4 0x4E487B71 PUSH1 0xE0 SHL PUSH1 0x0 MSTORE PUSH1 0x32 PUSH1 0x4 MSTORE PUSH1 0x24 PUSH1 0x0 REVERT JUMPDEST PUSH1 0x20 SWAP1 DUP2 MUL SWAP2 SWAP1 SWAP2 ADD ADD MSTORE DUP1 DUP8 PUSH2 0x6F00 PUSH1 0x1 DUP9 PUSH2 0x8AD9 JUMP JUMPDEST DUP2 MLOAD DUP2 LT PUSH2 0x6F1E JUMPI PUSH4 0x4E487B71 PUSH1 0xE0 SHL PUSH1 0x0 MSTORE PUSH1 0x32 PUSH1 0x4 MSTORE PUSH1 0x24 PUSH1 0x0 REVERT JUMPDEST PUSH1 0x20 SWAP1 DUP2 MUL SWAP2 SWAP1 SWAP2 ADD ADD MSTORE PUSH2 0x6F34 PUSH1 0x1 DUP7 PUSH2 0x8AD9 JUMP JUMPDEST SWAP5 POP POP POP DUP1 DUP1 PUSH2 0x6F43 SWAP1 PUSH2 0x8B5B JUMP JUMPDEST SWAP2 POP POP PUSH2 0x6DD6 JUMP JUMPDEST POP SWAP3 SWAP4 SWAP3 POP POP POP JUMP JUMPDEST PUSH1 0x0 JUMPDEST PUSH1 0x13 SLOAD DUP2 LT ISZERO PUSH2 0x6FDF JUMPI PUSH1 0x0 PUSH1 0x13 DUP3 DUP2 SLOAD DUP2 LT PUSH2 0x6F84 JUMPI PUSH4 0x4E487B71 PUSH1 0xE0 SHL PUSH1 0x0 MSTORE PUSH1 0x32 PUSH1 0x4 MSTORE PUSH1 0x24 PUSH1 0x0 REVERT JUMPDEST PUSH1 0x0 SWAP2 DUP3 MSTORE PUSH1 0x20 DUP1 DUP4 KECCAK256 SWAP1 SWAP2 ADD SLOAD PUSH1 0x1 PUSH1 0x1 PUSH1 0xA0 SHL SUB AND DUP1 DUP4 MSTORE PUSH1 0xC SWAP1 SWAP2 MSTORE PUSH1 0x40 SWAP1 SWAP2 KECCAK256 PUSH1 0x5 DUP2 ADD DUP1 SLOAD PUSH2 0xFFFF NOT AND SWAP1 SSTORE SWAP1 SWAP2 POP PUSH2 0x6FC1 DUP3 PUSH2 0x686C JUMP JUMPDEST PUSH2 0x6FCA DUP3 PUSH2 0x69C4 JUMP JUMPDEST POP POP DUP1 DUP1 PUSH2 0x6FD7 SWAP1 PUSH2 0x8B5B JUMP JUMPDEST SWAP2 POP POP PUSH2 0x6F57 JUMP JUMPDEST POP PUSH2 0x3B74 PUSH1 0x13 PUSH1 0x0 PUSH2 0x7352 JUMP JUMPDEST PUSH1 0x0 PUSH1 0x16 SLOAD PUSH1 0x18 SLOAD PUSH2 0x6FFE SWAP2 SWAP1 PUSH2 0x8AD9 JUMP JUMPDEST SWAP1 POP PUSH1 0x26 PUSH1 0x0 SWAP1 SLOAD SWAP1 PUSH2 0x100 EXP SWAP1 DIV PUSH1 0x1 PUSH1 0x1 PUSH1 0xA0 SHL SUB AND PUSH1 0x1 PUSH1 0x1 PUSH1 0xA0 SHL SUB AND PUSH4 0xE3115D3C PUSH1 0x40 MLOAD DUP2 PUSH4 0xFFFFFFFF AND PUSH1 0xE0 SHL DUP2 MSTORE PUSH1 0x4 ADD PUSH1 0x20 PUSH1 0x40 MLOAD DUP1 DUP4 SUB DUP2 DUP7 DUP1 EXTCODESIZE ISZERO DUP1 ISZERO PUSH2 0x704E JUMPI PUSH1 0x0 DUP1 REVERT JUMPDEST POP GAS STATICCALL ISZERO DUP1 ISZERO PUSH2 0x7062 JUMPI RETURNDATASIZE PUSH1 0x0 DUP1 RETURNDATACOPY RETURNDATASIZE PUSH1 0x0 REVERT JUMPDEST POP POP POP POP PUSH1 0x40 MLOAD RETURNDATASIZE PUSH1 0x1F NOT PUSH1 0x1F DUP3 ADD AND DUP3 ADD DUP1 PUSH1 0x40 MSTORE POP DUP2 ADD SWAP1 PUSH2 0x7086 SWAP2 SWAP1 PUSH2 0x775E JUMP JUMPDEST DUP2 GT ISZERO PUSH2 0x19B5 JUMPI PUSH1 0x0 JUMPDEST PUSH1 0x26 SLOAD PUSH1 0x40 DUP1 MLOAD PUSH4 0x7D630CB PUSH1 0xE4 SHL DUP2 MSTORE SWAP1 MLOAD PUSH2 0x7114 SWAP3 PUSH1 0x1 PUSH1 0x1 PUSH1 0xA0 SHL SUB AND SWAP2 PUSH4 0x7D630CB0 SWAP2 PUSH1 0x4 DUP1 DUP4 ADD SWAP3 PUSH1 0x20 SWAP3 SWAP2 SWAP1 DUP3 SWAP1 SUB ADD DUP2 DUP7 DUP1 EXTCODESIZE ISZERO DUP1 ISZERO PUSH2 0x70D6 JUMPI PUSH1 0x0 DUP1 REVERT JUMPDEST POP GAS STATICCALL ISZERO DUP1 ISZERO PUSH2 0x70EA JUMPI RETURNDATASIZE PUSH1 0x0 DUP1 RETURNDATACOPY RETURNDATASIZE PUSH1 0x0 REVERT JUMPDEST POP POP POP POP PUSH1 0x40 MLOAD RETURNDATASIZE PUSH1 0x1F NOT PUSH1 0x1F DUP3 ADD AND DUP3 ADD DUP1 PUSH1 0x40 MSTORE POP DUP2 ADD SWAP1 PUSH2 0x710E SWAP2 SWAP1 PUSH2 0x775E JUMP JUMPDEST DUP4 PUSH2 0x6B70 JUMP JUMPDEST DUP2 LT ISZERO PUSH2 0x4280 JUMPI PUSH1 0x16 SLOAD PUSH1 0x0 SWAP1 DUP2 MSTORE PUSH1 0xB PUSH1 0x20 MSTORE PUSH1 0x40 DUP2 KECCAK256 DUP1 SLOAD PUSH1 0x1 SWAP1 SWAP2 ADD SLOAD SWAP1 SWAP2 SWAP1 PUSH2 0x7141 SWAP1 DUP4 PUSH2 0x8A8E JUMP JUMPDEST SWAP1 POP DUP2 JUMPDEST DUP2 DUP2 LT ISZERO PUSH2 0x7168 JUMPI PUSH2 0x7156 DUP2 PUSH2 0x211F JUMP JUMPDEST DUP1 PUSH2 0x7160 DUP2 PUSH2 0x8B5B JUMP JUMPDEST SWAP2 POP POP PUSH2 0x7145 JUMP JUMPDEST POP PUSH2 0x7174 PUSH1 0x16 SLOAD PUSH2 0x2511 JUMP JUMPDEST PUSH1 0x16 SLOAD PUSH1 0x40 MLOAD PUSH32 0x72C2FCC891FE835B86FC8BB9ABDC52ADF52499C52289B3C49E1461EABEA27175 SWAP1 PUSH1 0x0 SWAP1 LOG2 POP POP DUP1 DUP1 PUSH2 0x71AD SWAP1 PUSH2 0x8B5B JUMP JUMPDEST SWAP2 POP POP PUSH2 0x7090 JUMP JUMPDEST DUP3 DUP1 SLOAD PUSH2 0x71C1 SWAP1 PUSH2 0x8B20 JUMP JUMPDEST SWAP1 PUSH1 0x0 MSTORE PUSH1 0x20 PUSH1 0x0 KECCAK256 SWAP1 PUSH1 0x1F ADD PUSH1 0x20 SWAP1 DIV DUP2 ADD SWAP3 DUP3 PUSH2 0x71E3 JUMPI PUSH1 0x0 DUP6 SSTORE PUSH2 0x7229 JUMP JUMPDEST DUP3 PUSH1 0x1F LT PUSH2 0x71FC JUMPI DUP1 MLOAD PUSH1 0xFF NOT AND DUP4 DUP1 ADD OR DUP6 SSTORE PUSH2 0x7229 JUMP JUMPDEST DUP3 DUP1 ADD PUSH1 0x1 ADD DUP6 SSTORE DUP3 ISZERO PUSH2 0x7229 JUMPI SWAP2 DUP3 ADD JUMPDEST DUP3 DUP2 GT ISZERO PUSH2 0x7229 JUMPI DUP3 MLOAD DUP3 SSTORE SWAP2 PUSH1 0x20 ADD SWAP2 SWAP1 PUSH1 0x1 ADD SWAP1 PUSH2 0x720E JUMP JUMPDEST POP PUSH2 0x7235 SWAP3 SWAP2 POP PUSH2 0x736C JUMP JUMPDEST POP SWAP1 JUMP JUMPDEST POP DUP1 SLOAD PUSH2 0x7245 SWAP1 PUSH2 0x8B20 JUMP JUMPDEST PUSH1 0x0 DUP3 SSTORE DUP1 PUSH1 0x1F LT PUSH2 0x7257 JUMPI POP PUSH2 0x19B5 JUMP JUMPDEST PUSH1 0x1F ADD PUSH1 0x20 SWAP1 DIV SWAP1 PUSH1 0x0 MSTORE PUSH1 0x20 PUSH1 0x0 KECCAK256 SWAP1 DUP2 ADD SWAP1 PUSH2 0x19B5 SWAP2 SWAP1 PUSH2 0x736C JUMP JUMPDEST PUSH1 0x40 MLOAD DUP1 PUSH1 0x80 ADD PUSH1 0x40 MSTORE DUP1 PUSH1 0x60 DUP2 MSTORE PUSH1 0x20 ADD PUSH1 0x0 PUSH1 0x1 PUSH1 0x1 PUSH1 0xA0 SHL SUB AND DUP2 MSTORE PUSH1 0x20 ADD PUSH1 0x0 DUP2 MSTORE PUSH1 0x20 ADD PUSH1 0x0 PUSH1 0x3 DUP2 GT ISZERO PUSH2 0x72BF JUMPI PUSH4 0x4E487B71 PUSH1 0xE0 SHL PUSH1 0x0 MSTORE PUSH1 0x21 PUSH1 0x4 MSTORE PUSH1 0x24 PUSH1 0x0 REVERT JUMPDEST SWAP1 MSTORE SWAP1 JUMP JUMPDEST PUSH1 0x40 MLOAD DUP1 PUSH2 0x1C0 ADD PUSH1 0x40 MSTORE DUP1 PUSH1 0x0 DUP2 MSTORE PUSH1 0x20 ADD PUSH1 0x0 DUP2 MSTORE PUSH1 0x20 ADD PUSH1 0x0 DUP2 MSTORE PUSH1 0x20 ADD PUSH1 0x0 DUP2 MSTORE PUSH1 0x20 ADD PUSH1 0x0 DUP2 MSTORE PUSH1 0x20 ADD PUSH1 0x0 ISZERO ISZERO DUP2 MSTORE PUSH1 0x20 ADD PUSH1 0x0 ISZERO ISZERO DUP2 MSTORE PUSH1 0x20 ADD PUSH1 0x0 ISZERO ISZERO DUP2 MSTORE PUSH1 0x20 ADD PUSH1 0x0 DUP2 MSTORE PUSH1 0x20 ADD PUSH1 0x0 DUP2 MSTORE PUSH1 0x20 ADD PUSH1 0x0 DUP2 MSTORE PUSH1 0x20 ADD PUSH1 0x0 DUP2 MSTORE PUSH1 0x20 ADD PUSH1 0x60 DUP2 MSTORE PUSH1 0x20 ADD PUSH1 0x0 PUSH1 0x3 DUP2 GT ISZERO PUSH2 0x72BF JUMPI PUSH4 0x4E487B71 PUSH1 0xE0 SHL PUSH1 0x0 MSTORE PUSH1 0x21 PUSH1 0x4 MSTORE PUSH1 0x24 PUSH1 0x0 REVERT JUMPDEST POP DUP1 SLOAD PUSH1 0x0 DUP3 SSTORE SWAP1 PUSH1 0x0 MSTORE PUSH1 0x20 PUSH1 0x0 KECCAK256 SWAP1 DUP2 ADD SWAP1 PUSH2 0x19B5 SWAP2 SWAP1 JUMPDEST JUMPDEST DUP1 DUP3 GT ISZERO PUSH2 0x7235 JUMPI PUSH1 0x0 DUP2 SSTORE PUSH1 0x1 ADD PUSH2 0x736D JUMP JUMPDEST DUP1 MLOAD DUP1 ISZERO ISZERO DUP2 EQ PUSH2 0xF8D JUMPI PUSH1 0x0 DUP1 REVERT JUMPDEST DUP1 MLOAD PUSH1 0x4 DUP2 LT PUSH2 0xF8D JUMPI PUSH1 0x0 DUP1 REVERT JUMPDEST PUSH1 0x0 DUP3 PUSH1 0x1F DUP4 ADD SLT PUSH2 0x73B0 JUMPI DUP1 DUP2 REVERT JUMPDEST DUP2 CALLDATALOAD PUSH2 0x73C3 PUSH2 0x73BE DUP3 PUSH2 0x8A5B JUMP JUMPDEST PUSH2 0x8A32 JUMP JUMPDEST DUP2 DUP2 MSTORE DUP5 PUSH1 0x20 DUP4 DUP7 ADD ADD GT ISZERO PUSH2 0x73D7 JUMPI DUP3 DUP4 REVERT JUMPDEST DUP2 PUSH1 0x20 DUP6 ADD PUSH1 0x20 DUP4 ADD CALLDATACOPY SWAP1 DUP2 ADD PUSH1 0x20 ADD SWAP2 SWAP1 SWAP2 MSTORE SWAP3 SWAP2 POP POP JUMP JUMPDEST PUSH1 0x0 DUP3 PUSH1 0x1F DUP4 ADD SLT PUSH2 0x7401 JUMPI DUP1 DUP2 REVERT JUMPDEST DUP2 MLOAD PUSH2 0x740F PUSH2 0x73BE DUP3 PUSH2 0x8A5B JUMP JUMPDEST DUP2 DUP2 MSTORE DUP5 PUSH1 0x20 DUP4 DUP7 ADD ADD GT ISZERO PUSH2 0x7423 JUMPI DUP3 DUP4 REVERT JUMPDEST PUSH2 0x5AB8 DUP3 PUSH1 0x20 DUP4 ADD PUSH1 0x20 DUP8 ADD PUSH2 0x8AF0 JUMP JUMPDEST PUSH1 0x0 PUSH1 0x20 DUP3 DUP5 SUB SLT ISZERO PUSH2 0x7445 JUMPI DUP1 DUP2 REVERT JUMPDEST DUP2 CALLDATALOAD PUSH2 0x1446 DUP2 PUSH2 0x8BCC JUMP JUMPDEST PUSH1 0x0 PUSH1 0x20 DUP3 DUP5 SUB SLT ISZERO PUSH2 0x7461 JUMPI DUP1 DUP2 REVERT JUMPDEST DUP2 MLOAD PUSH2 0x1446 DUP2 PUSH2 0x8BCC JUMP JUMPDEST PUSH1 0x0 DUP1 PUSH1 0x40 DUP4 DUP6 SUB SLT ISZERO PUSH2 0x747E JUMPI DUP1 DUP2 REVERT JUMPDEST DUP3 CALLDATALOAD PUSH2 0x7489 DUP2 PUSH2 0x8BCC JUMP JUMPDEST SWAP5 PUSH1 0x20 SWAP4 SWAP1 SWAP4 ADD CALLDATALOAD SWAP4 POP POP POP JUMP JUMPDEST PUSH1 0x0 DUP1 PUSH1 0x0 PUSH1 0x60 DUP5 DUP7 SUB SLT ISZERO PUSH2 0x74AB JUMPI DUP1 DUP2 REVERT JUMPDEST DUP4 CALLDATALOAD PUSH2 0x74B6 DUP2 PUSH2 0x8BCC JUMP JUMPDEST SWAP6 PUSH1 0x20 DUP6 ADD CALLDATALOAD SWAP6 POP PUSH1 0x40 SWAP1 SWAP5 ADD CALLDATALOAD SWAP4 SWAP3 POP POP POP JUMP JUMPDEST PUSH1 0x0 PUSH1 0x20 DUP1 DUP4 DUP6 SUB SLT ISZERO PUSH2 0x74DD JUMPI DUP2 DUP3 REVERT JUMPDEST DUP3 CALLDATALOAD PUSH1 0x1 PUSH1 0x1 PUSH1 0x40 SHL SUB DUP1 DUP3 GT ISZERO PUSH2 0x74F3 JUMPI DUP4 DUP5 REVERT JUMPDEST DUP2 DUP6 ADD SWAP2 POP DUP6 PUSH1 0x1F DUP4 ADD SLT PUSH2 0x7506 JUMPI DUP4 DUP5 REVERT JUMPDEST DUP2 CALLDATALOAD DUP2 DUP2 GT ISZERO PUSH2 0x7518 JUMPI PUSH2 0x7518 PUSH2 0x8BB6 JUMP JUMPDEST DUP4 DUP2 MUL SWAP2 POP PUSH2 0x7528 DUP5 DUP4 ADD PUSH2 0x8A32 JUMP JUMPDEST DUP2 DUP2 MSTORE DUP5 DUP2 ADD SWAP1 DUP5 DUP7 ADD DUP5 DUP7 ADD DUP8 ADD DUP11 LT ISZERO PUSH2 0x7542 JUMPI DUP8 DUP9 REVERT JUMPDEST DUP8 SWAP6 POP JUMPDEST DUP4 DUP7 LT ISZERO PUSH2 0x7564 JUMPI DUP1 CALLDATALOAD DUP4 MSTORE PUSH1 0x1 SWAP6 SWAP1 SWAP6 ADD SWAP5 SWAP2 DUP7 ADD SWAP2 DUP7 ADD PUSH2 0x7546 JUMP JUMPDEST POP SWAP9 SWAP8 POP POP POP POP POP POP POP POP JUMP JUMPDEST PUSH1 0x0 PUSH1 0x20 DUP3 DUP5 SUB SLT ISZERO PUSH2 0x7582 JUMPI DUP1 DUP2 REVERT JUMPDEST PUSH2 0x1446 DUP3 PUSH2 0x7381 JUMP JUMPDEST PUSH1 0x0 DUP1 PUSH1 0x40 DUP4 DUP6 SUB SLT ISZERO PUSH2 0x759D JUMPI DUP2 DUP3 REVERT JUMPDEST DUP3 CALLDATALOAD PUSH1 0x1 PUSH1 0x1 PUSH1 0x40 SHL SUB DUP1 DUP3 GT ISZERO PUSH2 0x75B3 JUMPI DUP4 DUP5 REVERT JUMPDEST PUSH2 0x75BF DUP7 DUP4 DUP8 ADD PUSH2 0x73A0 JUMP JUMPDEST SWAP4 POP PUSH1 0x20 DUP6 ADD CALLDATALOAD SWAP2 POP DUP1 DUP3 GT ISZERO PUSH2 0x75D4 JUMPI DUP3 DUP4 REVERT JUMPDEST POP PUSH2 0x75E1 DUP6 DUP3 DUP7 ADD PUSH2 0x73A0 JUMP JUMPDEST SWAP2 POP POP SWAP3 POP SWAP3 SWAP1 POP JUMP JUMPDEST PUSH1 0x0 DUP1 PUSH1 0x40 DUP4 DUP6 SUB SLT ISZERO PUSH2 0x75FD JUMPI DUP2 DUP3 REVERT JUMPDEST DUP3 CALLDATALOAD PUSH1 0x1 PUSH1 0x1 PUSH1 0x40 SHL SUB DUP2 GT ISZERO PUSH2 0x7612 JUMPI DUP3 DUP4 REVERT JUMPDEST PUSH2 0x761E DUP6 DUP3 DUP7 ADD PUSH2 0x73A0 JUMP JUMPDEST SWAP6 PUSH1 0x20 SWAP5 SWAP1 SWAP5 ADD CALLDATALOAD SWAP5 POP POP POP POP JUMP JUMPDEST PUSH1 0x0 PUSH1 0x20 DUP3 DUP5 SUB SLT ISZERO PUSH2 0x763E JUMPI DUP1 DUP2 REVERT JUMPDEST DUP2 MLOAD PUSH1 0x1 PUSH1 0x1 PUSH1 0x40 SHL SUB DUP1 DUP3 GT ISZERO PUSH2 0x7654 JUMPI DUP3 DUP4 REVERT JUMPDEST DUP2 DUP5 ADD SWAP2 POP PUSH2 0x1C0 DUP1 DUP4 DUP8 SUB SLT ISZERO PUSH2 0x766A JUMPI DUP4 DUP5 REVERT JUMPDEST PUSH2 0x7673 DUP2 PUSH2 0x8A32 JUMP JUMPDEST SWAP1 POP DUP3 MLOAD DUP2 MSTORE PUSH1 0x20 DUP4 ADD MLOAD PUSH1 0x20 DUP3 ADD MSTORE PUSH1 0x40 DUP4 ADD MLOAD PUSH1 0x40 DUP3 ADD MSTORE PUSH1 0x60 DUP4 ADD MLOAD PUSH1 0x60 DUP3 ADD MSTORE PUSH2 0x76A3 PUSH1 0x80 DUP5 ADD PUSH2 0x7381 JUMP JUMPDEST PUSH1 0x80 DUP3 ADD MSTORE PUSH2 0x76B4 PUSH1 0xA0 DUP5 ADD PUSH2 0x7381 JUMP JUMPDEST PUSH1 0xA0 DUP3 ADD MSTORE PUSH2 0x76C5 PUSH1 0xC0 DUP5 ADD PUSH2 0x7381 JUMP JUMPDEST PUSH1 0xC0 DUP3 ADD MSTORE PUSH1 0xE0 DUP4 DUP2 ADD MLOAD SWAP1 DUP3 ADD MSTORE PUSH2 0x100 DUP1 DUP5 ADD MLOAD SWAP1 DUP3 ADD MSTORE PUSH2 0x120 DUP1 DUP5 ADD MLOAD SWAP1 DUP3 ADD MSTORE PUSH2 0x140 DUP1 DUP5 ADD MLOAD SWAP1 DUP3 ADD MSTORE PUSH2 0x160 DUP1 DUP5 ADD MLOAD DUP4 DUP2 GT ISZERO PUSH2 0x7708 JUMPI DUP6 DUP7 REVERT JUMPDEST PUSH2 0x7714 DUP9 DUP3 DUP8 ADD PUSH2 0x73F1 JUMP JUMPDEST DUP3 DUP5 ADD MSTORE POP POP PUSH2 0x180 SWAP2 POP DUP2 DUP4 ADD MLOAD DUP3 DUP3 ADD MSTORE PUSH2 0x1A0 SWAP2 POP PUSH2 0x7737 DUP3 DUP5 ADD PUSH2 0x7391 JUMP JUMPDEST SWAP2 DUP2 ADD SWAP2 SWAP1 SWAP2 MSTORE SWAP5 SWAP4 POP POP POP POP JUMP JUMPDEST PUSH1 0x0 PUSH1 0x20 DUP3 DUP5 SUB SLT ISZERO PUSH2 0x7757 JUMPI DUP1 DUP2 REVERT JUMPDEST POP CALLDATALOAD SWAP2 SWAP1 POP JUMP JUMPDEST PUSH1 0x0 PUSH1 0x20 DUP3 DUP5 SUB SLT ISZERO PUSH2 0x14E3 JUMPI DUP1 DUP2 REVERT JUMPDEST PUSH1 0x0 DUP1 PUSH1 0x40 DUP4 DUP6 SUB SLT ISZERO PUSH2 0x7781 JUMPI DUP2 DUP3 REVERT JUMPDEST DUP3 CALLDATALOAD SWAP2 POP PUSH1 0x20 DUP4 ADD CALLDATALOAD PUSH2 0x7793 DUP2 PUSH2 0x8BCC JUMP JUMPDEST DUP1 SWAP2 POP POP SWAP3 POP SWAP3 SWAP1 POP JUMP JUMPDEST PUSH1 0x0 DUP1 PUSH1 0x0 DUP1 PUSH1 0x0 PUSH1 0xA0 DUP7 DUP9 SUB SLT ISZERO PUSH2 0x77B5 JUMPI DUP3 DUP4 REVERT JUMPDEST DUP6 CALLDATALOAD SWAP5 POP PUSH1 0x20 DUP7 ADD CALLDATALOAD SWAP4 POP PUSH1 0x40 DUP7 ADD CALLDATALOAD SWAP3 POP PUSH1 0x60 DUP7 ADD CALLDATALOAD PUSH1 0x1 PUSH1 0x1 PUSH1 0x40 SHL SUB DUP1 DUP3 GT ISZERO PUSH2 0x77E0 JUMPI DUP3 DUP4 REVERT JUMPDEST PUSH2 0x77EC DUP10 DUP4 DUP11 ADD PUSH2 0x73A0 JUMP JUMPDEST SWAP4 POP PUSH1 0x80 DUP9 ADD CALLDATALOAD SWAP2 POP DUP1 DUP3 GT ISZERO PUSH2 0x7801 JUMPI DUP3 DUP4 REVERT JUMPDEST POP PUSH2 0x780E DUP9 DUP3 DUP10 ADD PUSH2 0x73A0 JUMP JUMPDEST SWAP2 POP POP SWAP3 SWAP6 POP SWAP3 SWAP6 SWAP1 SWAP4 POP JUMP JUMPDEST PUSH1 0x0 DUP1 PUSH1 0x40 DUP4 DUP6 SUB SLT ISZERO PUSH2 0x782D JUMPI DUP2 DUP3 REVERT JUMPDEST POP POP DUP1 CALLDATALOAD SWAP3 PUSH1 0x20 SWAP1 SWAP2 ADD CALLDATALOAD SWAP2 POP JUMP JUMPDEST PUSH1 0x0 DUP1 PUSH1 0x0 DUP1 PUSH1 0x80 DUP6 DUP8 SUB SLT ISZERO PUSH2 0x7851 JUMPI DUP2 DUP3 REVERT JUMPDEST DUP5 CALLDATALOAD SWAP4 POP PUSH1 0x20 DUP6 ADD CALLDATALOAD SWAP3 POP PUSH1 0x40 DUP6 ADD CALLDATALOAD PUSH2 0x786A DUP2 PUSH2 0x8BCC JUMP JUMPDEST SWAP4 SWAP7 SWAP3 SWAP6 POP SWAP3 SWAP4 PUSH1 0x60 ADD CALLDATALOAD SWAP3 POP POP JUMP JUMPDEST PUSH1 0x0 DUP1 PUSH1 0x0 DUP1 PUSH1 0x80 DUP6 DUP8 SUB SLT ISZERO PUSH2 0x788F JUMPI DUP2 DUP3 REVERT JUMPDEST DUP5 CALLDATALOAD SWAP4 POP PUSH1 0x20 DUP6 ADD CALLDATALOAD SWAP3 POP PUSH1 0x40 DUP6 ADD CALLDATALOAD PUSH1 0x1 PUSH1 0x1 PUSH1 0x40 SHL SUB DUP2 GT ISZERO PUSH2 0x78B2 JUMPI DUP3 DUP4 REVERT JUMPDEST PUSH2 0x78BE DUP8 DUP3 DUP9 ADD PUSH2 0x73A0 JUMP JUMPDEST SWAP5 SWAP8 SWAP4 SWAP7 POP SWAP4 SWAP5 PUSH1 0x60 ADD CALLDATALOAD SWAP4 POP POP POP JUMP JUMPDEST ISZERO ISZERO SWAP1 MSTORE JUMP JUMPDEST PUSH1 0x0 DUP2 MLOAD DUP1 DUP5 MSTORE PUSH2 0x78ED DUP2 PUSH1 0x20 DUP7 ADD PUSH1 0x20 DUP7 ADD PUSH2 0x8AF0 JUMP JUMPDEST PUSH1 0x1F ADD PUSH1 0x1F NOT AND SWAP3 SWAP1 SWAP3 ADD PUSH1 0x20 ADD SWAP3 SWAP2 POP POP JUMP JUMPDEST PUSH1 0x4 DUP2 LT PUSH2 0x791F JUMPI PUSH4 0x4E487B71 PUSH1 0xE0 SHL PUSH1 0x0 MSTORE PUSH1 0x21 PUSH1 0x4 MSTORE PUSH1 0x24 PUSH1 0x0 REVERT JUMPDEST SWAP1 MSTORE JUMP JUMPDEST PUSH1 0xA DUP2 MSTORE PUSH10 0xC6DEDADAD2E890C2E6D PUSH1 0xB3 SHL PUSH1 0x20 DUP3 ADD MSTORE PUSH1 0x40 ADD SWAP1 JUMP JUMPDEST PUSH1 0x9 DUP2 MSTORE PUSH9 0x6E756D546F6B656E73 PUSH1 0xB8 SHL PUSH1 0x20 DUP3 ADD MSTORE PUSH1 0x40 ADD SWAP1 JUMP JUMPDEST PUSH1 0x60 SWAP2 SWAP1 SWAP2 SHL PUSH12 0xFFFFFFFFFFFFFFFFFFFFFFFF NOT AND DUP2 MSTORE PUSH1 0x14 ADD SWAP1 JUMP JUMPDEST PUSH1 0x60 SWAP3 SWAP1 SWAP3 SHL PUSH12 0xFFFFFFFFFFFFFFFFFFFFFFFF NOT AND DUP3 MSTORE PUSH1 0x14 DUP3 ADD MSTORE PUSH1 0x34 ADD SWAP1 JUMP JUMPDEST SWAP1 DUP2 MSTORE PUSH1 0x20 ADD SWAP1 JUMP JUMPDEST PUSH1 0x0 DUP3 MLOAD PUSH2 0x79B6 DUP2 DUP5 PUSH1 0x20 DUP8 ADD PUSH2 0x8AF0 JUMP JUMPDEST SWAP2 SWAP1 SWAP2 ADD SWAP3 SWAP2 POP POP JUMP JUMPDEST SWAP2 DUP3 MSTORE PUSH1 0x20 DUP3 ADD MSTORE PUSH1 0x40 ADD SWAP1 JUMP JUMPDEST PUSH1 0x1 PUSH1 0x1 PUSH1 0xA0 SHL SUB SWAP2 SWAP1 SWAP2 AND DUP2 MSTORE PUSH1 0x20 ADD SWAP1 JUMP JUMPDEST PUSH1 0x1 PUSH1 0x1 PUSH1 0xA0 SHL SUB SWAP11 SWAP1 SWAP11 AND DUP11 MSTORE PUSH1 0x20 DUP11 ADD SWAP9 SWAP1 SWAP9 MSTORE SWAP6 ISZERO ISZERO PUSH1 0x40 DUP10 ADD MSTORE PUSH1 0x60 DUP9 ADD SWAP5 SWAP1 SWAP5 MSTORE PUSH1 0x80 DUP8 ADD SWAP3 SWAP1 SWAP3 MSTORE ISZERO ISZERO PUSH1 0xA0 DUP7 ADD MSTORE ISZERO ISZERO PUSH1 0xC0 DUP6 ADD MSTORE PUSH1 0xE0 DUP5 ADD MSTORE PUSH2 0x100 DUP4 ADD MSTORE PUSH2 0x120 DUP3 ADD MSTORE PUSH2 0x140 ADD SWAP1 JUMP JUMPDEST PUSH1 0x0 PUSH1 0x20 DUP1 DUP4 ADD DUP2 DUP5 MSTORE DUP1 DUP6 MLOAD DUP1 DUP4 MSTORE PUSH1 0x40 DUP7 ADD SWAP2 POP PUSH1 0x40 DUP5 DUP3 MUL DUP8 ADD ADD SWAP3 POP DUP4 DUP8 ADD DUP6 JUMPDEST DUP3 DUP2 LT ISZERO PUSH2 0x7A89 JUMPI PUSH1 0x3F NOT DUP9 DUP7 SUB ADD DUP5 MSTORE PUSH2 0x7A77 DUP6 DUP4 MLOAD PUSH2 0x78D5 JUMP JUMPDEST SWAP5 POP SWAP3 DUP6 ADD SWAP3 SWAP1 DUP6 ADD SWAP1 PUSH1 0x1 ADD PUSH2 0x7A5B JUMP JUMPDEST POP SWAP3 SWAP8 SWAP7 POP POP POP POP POP POP POP JUMP JUMPDEST PUSH1 0x20 DUP1 DUP3 MSTORE DUP3 MLOAD DUP3 DUP3 ADD DUP2 SWAP1 MSTORE PUSH1 0x0 SWAP2 SWAP1 DUP5 DUP3 ADD SWAP1 PUSH1 0x40 DUP6 ADD SWAP1 DUP5 JUMPDEST DUP2 DUP2 LT ISZERO PUSH2 0x7ACE JUMPI DUP4 MLOAD DUP4 MSTORE SWAP3 DUP5 ADD SWAP3 SWAP2 DUP5 ADD SWAP2 PUSH1 0x1 ADD PUSH2 0x7AB2 JUMP JUMPDEST POP SWAP1 SWAP7 SWAP6 POP POP POP POP POP POP JUMP JUMPDEST SWAP1 ISZERO ISZERO DUP2 MSTORE PUSH1 0x20 ADD SWAP1 JUMP JUMPDEST PUSH1 0x0 PUSH1 0x20 DUP3 MSTORE PUSH2 0x1446 PUSH1 0x20 DUP4 ADD DUP5 PUSH2 0x78D5 JUMP JUMPDEST PUSH1 0x0 PUSH1 0x40 DUP3 MSTORE PUSH2 0x7B0B PUSH1 0x40 DUP4 ADD DUP6 PUSH2 0x78D5 JUMP JUMPDEST SWAP1 POP PUSH1 0x1 DUP1 PUSH1 0xA0 SHL SUB DUP4 AND PUSH1 0x20 DUP4 ADD MSTORE SWAP4 SWAP3 POP POP POP JUMP JUMPDEST PUSH1 0x0 PUSH1 0x80 DUP3 MSTORE PUSH2 0x7B35 PUSH1 0x80 DUP4 ADD DUP8 PUSH2 0x78D5 JUMP JUMPDEST PUSH1 0x1 PUSH1 0x1 PUSH1 0xA0 SHL SUB DUP7 AND PUSH1 0x20 DUP5 ADD MSTORE PUSH1 0x40 DUP4 ADD DUP6 SWAP1 MSTORE SWAP1 POP PUSH2 0x7B5A PUSH1 0x60 DUP4 ADD DUP5 PUSH2 0x7901 JUMP JUMPDEST SWAP6 SWAP5 POP POP POP POP POP JUMP JUMPDEST PUSH1 0x0 PUSH1 0x40 DUP3 MSTORE PUSH2 0x7B76 PUSH1 0x40 DUP4 ADD DUP6 PUSH2 0x78D5 JUMP JUMPDEST SWAP1 POP DUP3 PUSH1 0x20 DUP4 ADD MSTORE SWAP4 SWAP3 POP POP POP JUMP JUMPDEST PUSH1 0x0 PUSH1 0x20 DUP1 DUP4 MSTORE DUP2 DUP5 SLOAD DUP4 PUSH1 0x2 DUP3 DIV SWAP1 POP PUSH1 0x1 DUP1 DUP4 AND DUP1 PUSH2 0x7BA7 JUMPI PUSH1 0x7F DUP4 AND SWAP3 POP JUMPDEST DUP6 DUP4 LT DUP2 EQ ISZERO PUSH2 0x7BC5 JUMPI PUSH4 0x4E487B71 PUSH1 0xE0 SHL DUP8 MSTORE PUSH1 0x22 PUSH1 0x4 MSTORE PUSH1 0x24 DUP8 REVERT JUMPDEST PUSH2 0x7BD1 DUP4 DUP8 DUP11 ADD PUSH2 0x799B JUMP JUMPDEST DUP2 DUP1 ISZERO PUSH2 0x7BE5 JUMPI PUSH1 0x1 DUP2 EQ PUSH2 0x7BF6 JUMPI PUSH2 0x7C20 JUMP JUMPDEST PUSH1 0xFF NOT DUP7 AND DUP3 MSTORE DUP8 DUP3 ADD SWAP7 POP PUSH2 0x7C20 JUMP JUMPDEST PUSH2 0x7BFF DUP12 PUSH2 0x8A82 JUMP JUMPDEST DUP10 JUMPDEST DUP7 DUP2 LT ISZERO PUSH2 0x7C1A JUMPI DUP2 SLOAD DUP5 DUP3 ADD MSTORE SWAP1 DUP6 ADD SWAP1 DUP10 ADD PUSH2 0x7C01 JUMP JUMPDEST DUP4 ADD SWAP8 POP POP JUMPDEST POP SWAP5 SWAP10 SWAP9 POP POP POP POP POP POP POP POP POP JUMP JUMPDEST PUSH1 0x20 DUP1 DUP3 MSTORE PUSH1 0x1C SWAP1 DUP3 ADD MSTORE PUSH32 0x576F726B657220697320616C7265616479207265676973746572656400000000 PUSH1 0x40 DUP3 ADD MSTORE PUSH1 0x60 ADD SWAP1 JUMP JUMPDEST PUSH1 0x20 DUP1 DUP3 MSTORE PUSH1 0x31 SWAP1 DUP3 ADD MSTORE PUSH32 0x676976656E204461746142617463682073686F756C6420626520415050524F56 PUSH1 0x40 DUP3 ADD MSTORE PUSH17 0x11510B08185B99081A5D081A5CC81B9BDD PUSH1 0x7A SHL PUSH1 0x60 DUP3 ADD MSTORE PUSH1 0x80 ADD SWAP1 JUMP JUMPDEST PUSH1 0x20 DUP1 DUP3 MSTORE PUSH1 0x25 SWAP1 DUP3 ADD MSTORE PUSH32 0x72656365697665722072656A6563746564205F7265747269657665534675656C PUSH1 0x40 DUP3 ADD MSTORE PUSH5 0x818D85B1B PUSH1 0xDA SHL PUSH1 0x60 DUP3 ADD MSTORE PUSH1 0x80 ADD SWAP1 JUMP JUMPDEST PUSH1 0x20 DUP1 DUP3 MSTORE PUSH1 0x30 SWAP1 DUP3 ADD MSTORE PUSH32 0x636F756C64206E6F742072657761726420746F6B656E20696E2056616C696461 PUSH1 0x40 DUP3 ADD MSTORE PUSH16 0x3A32A230BA30A130BA31B41610189731 PUSH1 0x81 SHL PUSH1 0x60 DUP3 ADD MSTORE PUSH1 0x80 ADD SWAP1 JUMP JUMPDEST PUSH1 0x20 DUP1 DUP3 MSTORE PUSH1 0x26 SWAP1 DUP3 ADD MSTORE PUSH32 0x4F776E61626C653A206E6577206F776E657220697320746865207A65726F2061 PUSH1 0x40 DUP3 ADD MSTORE PUSH6 0x646472657373 PUSH1 0xD0 SHL PUSH1 0x60 DUP3 ADD MSTORE PUSH1 0x80 ADD SWAP1 JUMP JUMPDEST PUSH1 0x20 DUP1 DUP3 MSTORE PUSH1 0x29 SWAP1 DUP3 ADD MSTORE PUSH32 0x6B206F72204E20617265206E6F74204F4B20647572696E672072616E646F6D20 PUSH1 0x40 DUP3 ADD MSTORE PUSH9 0x39B2B632B1BA34B7B7 PUSH1 0xB9 SHL PUSH1 0x60 DUP3 ADD MSTORE PUSH1 0x80 ADD SWAP1 JUMP JUMPDEST PUSH1 0x20 DUP1 DUP3 MSTORE PUSH1 0x2A SWAP1 DUP3 ADD MSTORE PUSH32 0x4661696C20647572696E6720616C6C6F636174696F6E3A206E6F7420656E6F75 PUSH1 0x40 DUP3 ADD MSTORE PUSH10 0x676820776F726B657273 PUSH1 0xB0 SHL PUSH1 0x60 DUP3 ADD MSTORE PUSH1 0x80 ADD SWAP1 JUMP JUMPDEST PUSH1 0x20 DUP1 DUP3 MSTORE PUSH1 0x1E SWAP1 DUP3 ADD MSTORE PUSH32 0x636F6D6D697420706572696F64206E6565647320746F206265206F70656E0000 PUSH1 0x40 DUP3 ADD MSTORE PUSH1 0x60 ADD SWAP1 JUMP JUMPDEST PUSH1 0x20 DUP1 DUP3 MSTORE DUP2 DUP2 ADD MSTORE PUSH32 0x576F726B65722063616E277420756E726567697374657220736F206561726C79 PUSH1 0x40 DUP3 ADD MSTORE PUSH1 0x60 ADD SWAP1 JUMP JUMPDEST PUSH1 0x20 DUP1 DUP3 MSTORE PUSH1 0x38 SWAP1 DUP3 ADD MSTORE PUSH32 0x55736572206E6565647320746F20626520616C6C6F636174656420746F207468 PUSH1 0x40 DUP3 ADD MSTORE PUSH32 0x697320626174636820746F20636F6D6D6974206F6E2069740000000000000000 PUSH1 0x60 DUP3 ADD MSTORE PUSH1 0x80 ADD SWAP1 JUMP JUMPDEST PUSH1 0x20 DUP1 DUP3 MSTORE PUSH1 0x3F SWAP1 DUP3 ADD MSTORE PUSH32 0x436F756C64206E6F74207265717565737420656E6F75676820616C6C6F636174 PUSH1 0x40 DUP3 ADD MSTORE PUSH32 0x6564207374616B652C2072657175657374416C6C6F63617465645374616B6500 PUSH1 0x60 DUP3 ADD MSTORE PUSH1 0x80 ADD SWAP1 JUMP JUMPDEST PUSH1 0x20 DUP1 DUP3 MSTORE PUSH1 0x2E SWAP1 DUP3 ADD MSTORE PUSH32 0x636F756C64206E6F74207265776172642052455020696E2056616C6964617465 PUSH1 0x40 DUP3 ADD MSTORE PUSH14 0x4461746142617463682C20312E61 PUSH1 0x90 SHL PUSH1 0x60 DUP3 ADD MSTORE PUSH1 0x80 ADD SWAP1 JUMP JUMPDEST PUSH1 0x20 DUP1 DUP3 MSTORE PUSH1 0x2F SWAP1 DUP3 ADD MSTORE PUSH32 0x5573657220686173206E6F7420636F6D6D69746564206265666F72652C207468 PUSH1 0x40 DUP3 ADD MSTORE PUSH15 0x1D5CC818D85B89DD081C995D99585B PUSH1 0x8A SHL PUSH1 0x60 DUP3 ADD MSTORE PUSH1 0x80 ADD SWAP1 JUMP JUMPDEST PUSH1 0x20 DUP1 DUP3 MSTORE PUSH1 0x43 SWAP1 DUP3 ADD MSTORE PUSH32 0x576F726B657220686173206E6F7420656E6F75676820285F6E756D546F6B656E PUSH1 0x40 DUP3 ADD MSTORE PUSH32 0x732920696E2068697320466F726D61745374616B6564546F6B656E42616C616E PUSH1 0x60 DUP3 ADD MSTORE PUSH3 0x31B29 PUSH1 0xED SHL PUSH1 0x80 DUP3 ADD MSTORE PUSH1 0xA0 ADD SWAP1 JUMP JUMPDEST PUSH1 0x20 DUP1 DUP3 MSTORE PUSH1 0x39 SWAP1 DUP3 ADD MSTORE PUSH32 0x646C6C4D61703A20646F6573206E6F7420636F696E7461696E205F4461746142 PUSH1 0x40 DUP3 ADD MSTORE PUSH32 0x61746368496420666F7220746865206D73672073656E64657200000000000000 PUSH1 0x60 DUP3 ADD MSTORE PUSH1 0x80 ADD SWAP1 JUMP JUMPDEST PUSH1 0x20 DUP1 DUP3 MSTORE PUSH1 0x2B SWAP1 DUP3 ADD MSTORE PUSH32 0x75736572206D75737420686176652072657665616C656420696E207468697320 PUSH1 0x40 DUP3 ADD MSTORE PUSH11 0xCED2ECCADC4084C2E8C6D PUSH1 0xAB SHL PUSH1 0x60 DUP3 ADD MSTORE PUSH1 0x80 ADD SWAP1 JUMP JUMPDEST PUSH1 0x20 DUP1 DUP3 MSTORE PUSH1 0x14 SWAP1 DUP3 ADD MSTORE PUSH20 0x3737BA1030903B30B634B2103837B9B4BA34B7B7 PUSH1 0x61 SHL PUSH1 0x40 DUP3 ADD MSTORE PUSH1 0x60 ADD SWAP1 JUMP JUMPDEST PUSH1 0x20 DUP1 DUP3 MSTORE PUSH1 0x3A SWAP1 DUP3 ADD MSTORE PUSH32 0x576F726B65722063757272656E746C792068617320776F726B20616C6C6F6361 PUSH1 0x40 DUP3 ADD MSTORE PUSH32 0x7465642C2063616E277420626520756E72656769737465726564000000000000 PUSH1 0x60 DUP3 ADD MSTORE PUSH1 0x80 ADD SWAP1 JUMP JUMPDEST PUSH1 0x20 DUP1 DUP3 MSTORE PUSH1 0x3B SWAP1 DUP3 ADD MSTORE PUSH32 0x43616E277420616C6C6F6361746520776F726B2C207468652063757272656E74 PUSH1 0x40 DUP3 ADD MSTORE PUSH32 0x20626174636820697320616C726561647920616C6C6F63617465640000000000 PUSH1 0x60 DUP3 ADD MSTORE PUSH1 0x80 ADD SWAP1 JUMP JUMPDEST PUSH1 0x20 DUP1 DUP3 MSTORE PUSH1 0x2C SWAP1 DUP3 ADD MSTORE PUSH32 0x576F726B6572206973206E6F74207265676973746572656420736F2063616E27 PUSH1 0x40 DUP3 ADD MSTORE PUSH12 0x3A103AB73932B3B4B9BA32B9 PUSH1 0xA1 SHL PUSH1 0x60 DUP3 ADD MSTORE PUSH1 0x80 ADD SWAP1 JUMP JUMPDEST PUSH1 0x20 DUP1 DUP3 MSTORE DUP2 DUP2 ADD MSTORE PUSH32 0x4F776E61626C653A2063616C6C6572206973206E6F7420746865206F776E6572 PUSH1 0x40 DUP3 ADD MSTORE PUSH1 0x60 ADD SWAP1 JUMP JUMPDEST PUSH1 0x20 DUP1 DUP3 MSTORE PUSH1 0x3A SWAP1 DUP3 ADD MSTORE PUSH32 0x5F446174614261746368496420686173206E6F7420656E6465642C206F72206E PUSH1 0x40 DUP3 ADD MSTORE PUSH32 0x6F7420657665727920766F74657273206861766520766F746564000000000000 PUSH1 0x60 DUP3 ADD MSTORE PUSH1 0x80 ADD SWAP1 JUMP JUMPDEST PUSH1 0x20 DUP1 DUP3 MSTORE PUSH1 0x3E SWAP1 DUP3 ADD MSTORE PUSH32 0x436F756C64206E6F74206D6174636820656E6372797074656420686173682026 PUSH1 0x40 DUP3 ADD MSTORE PUSH32 0x20636C6561722068617368207769746820676976656E20696E707574732E0000 PUSH1 0x60 DUP3 ADD MSTORE PUSH1 0x80 ADD SWAP1 JUMP JUMPDEST PUSH1 0x20 DUP1 DUP3 MSTORE PUSH1 0x29 SWAP1 DUP3 ADD MSTORE PUSH32 0x6765744E756D50617373696E67546F6B656E733A20686173686573206D757374 PUSH1 0x40 DUP3 ADD MSTORE PUSH9 0x8189948195C5D585B PUSH1 0xBA SHL PUSH1 0x60 DUP3 ADD MSTORE PUSH1 0x80 ADD SWAP1 JUMP JUMPDEST PUSH1 0x20 DUP1 DUP3 MSTORE PUSH1 0x36 SWAP1 DUP3 ADD MSTORE PUSH32 0x43616E277420616C6C6F6361746520776F726B2C207468652063757272656E74 PUSH1 0x40 DUP3 ADD MSTORE PUSH22 0x206261746368206973206E6F7420636F6D706C657465 PUSH1 0x50 SHL PUSH1 0x60 DUP3 ADD MSTORE PUSH1 0x80 ADD SWAP1 JUMP JUMPDEST PUSH1 0x20 DUP1 DUP3 MSTORE PUSH1 0x26 SWAP1 DUP3 ADD MSTORE PUSH32 0x52657665616C20706572696F64206E6F74206F70656E20666F72207468697320 PUSH1 0x40 DUP3 ADD MSTORE PUSH6 0x11185D185251 PUSH1 0xD2 SHL PUSH1 0x60 DUP3 ADD MSTORE PUSH1 0x80 ADD SWAP1 JUMP JUMPDEST PUSH1 0x20 DUP1 DUP3 MSTORE PUSH1 0x27 SWAP1 DUP3 ADD MSTORE PUSH32 0x617661696C61626C65546F6B656E732073686F756C64206265203E3D205F6E75 PUSH1 0x40 DUP3 ADD MSTORE PUSH7 0x6D546F6B656E73 PUSH1 0xC8 SHL PUSH1 0x60 DUP3 ADD MSTORE PUSH1 0x80 ADD SWAP1 JUMP JUMPDEST PUSH1 0x20 DUP1 DUP3 MSTORE PUSH1 0x17 SWAP1 DUP3 ADD MSTORE PUSH32 0x5F4461746142617463684964206D757374206578697374000000000000000000 PUSH1 0x40 DUP3 ADD MSTORE PUSH1 0x60 ADD SWAP1 JUMP JUMPDEST PUSH1 0x20 DUP1 DUP3 MSTORE PUSH1 0x13 SWAP1 DUP3 ADD MSTORE PUSH19 0xC081059191C995CDCC8139BDD0815985B1A59 PUSH1 0x6A SHL PUSH1 0x40 DUP3 ADD MSTORE PUSH1 0x60 ADD SWAP1 JUMP JUMPDEST PUSH1 0x20 DUP1 DUP3 MSTORE PUSH1 0x21 SWAP1 DUP3 ADD MSTORE PUSH32 0x5F446174614261746368496420697320616C72656164792076616C6964617465 PUSH1 0x40 DUP3 ADD MSTORE PUSH1 0x19 PUSH1 0xFA SHL PUSH1 0x60 DUP3 ADD MSTORE PUSH1 0x80 ADD SWAP1 JUMP JUMPDEST PUSH1 0x20 DUP1 DUP3 MSTORE PUSH1 0x29 SWAP1 DUP3 ADD MSTORE PUSH32 0x557365722068617320616C726561647920636F6D6D6974656420746F20746869 PUSH1 0x40 DUP3 ADD MSTORE PUSH9 0x1CC818985D18DA1259 PUSH1 0xBA SHL PUSH1 0x60 DUP3 ADD MSTORE PUSH1 0x80 ADD SWAP1 JUMP JUMPDEST PUSH1 0x20 DUP1 DUP3 MSTORE PUSH1 0x22 SWAP1 DUP3 ADD MSTORE PUSH32 0x4D6178696D756D207265676973746572656420776F726B65727320616C726561 PUSH1 0x40 DUP3 ADD MSTORE PUSH2 0x6479 PUSH1 0xF0 SHL PUSH1 0x60 DUP3 ADD MSTORE PUSH1 0x80 ADD SWAP1 JUMP JUMPDEST PUSH1 0x20 DUP1 DUP3 MSTORE PUSH1 0x37 SWAP1 DUP3 ADD MSTORE PUSH32 0x75736572206D757374206861766520656E6F75676820766F74696E6720726967 PUSH1 0x40 DUP3 ADD MSTORE PUSH32 0x68747320616B6120616C6C6F6361746564207374616B65000000000000000000 PUSH1 0x60 DUP3 ADD MSTORE PUSH1 0x80 ADD SWAP1 JUMP JUMPDEST PUSH1 0x20 DUP1 DUP3 MSTORE PUSH1 0x6C SWAP1 DUP3 ADD MSTORE PUSH32 0x5573657220686173206E6F7420766F746564206D616E792074696D657320696E PUSH1 0x40 DUP3 ADD MSTORE PUSH32 0x206120726F7720616E64206E6565647320746F2077616974204E4F564F54455F PUSH1 0x60 DUP3 ADD MSTORE PUSH32 0x524547495354524154494F4E5F574149545F4455524154494F4E20746F207265 PUSH1 0x80 DUP3 ADD MSTORE PUSH12 0x33B4B9BA32B91030B3B0B4B7 PUSH1 0xA1 SHL PUSH1 0xA0 DUP3 ADD MSTORE PUSH1 0xC0 ADD SWAP1 JUMP JUMPDEST PUSH1 0x20 DUP1 DUP3 MSTORE PUSH1 0x2A SWAP1 DUP3 ADD MSTORE PUSH32 0x5F446174614261746368496420636865636B696E6720766F7465206D75737420 PUSH1 0x40 DUP3 ADD MSTORE PUSH10 0x1A185D9948195B991959 PUSH1 0xB2 SHL PUSH1 0x60 DUP3 ADD MSTORE PUSH1 0x80 ADD SWAP1 JUMP JUMPDEST PUSH1 0x20 DUP1 DUP3 MSTORE PUSH1 0x3B SWAP1 DUP3 ADD MSTORE PUSH32 0x436F756C64206E6F74207769746864726177566F74696E675269676874732074 PUSH1 0x40 DUP3 ADD MSTORE PUSH32 0x68726F7567682050726F78795374616B654465616C6C6F636174650000000000 PUSH1 0x60 DUP3 ADD MSTORE PUSH1 0x80 ADD SWAP1 JUMP JUMPDEST PUSH1 0x20 DUP1 DUP3 MSTORE PUSH1 0xF SWAP1 DUP3 ADD MSTORE PUSH15 0x11185D18481B5D5CDD08195E1A5CDD PUSH1 0x8A SHL PUSH1 0x40 DUP3 ADD MSTORE PUSH1 0x60 ADD SWAP1 JUMP JUMPDEST PUSH1 0x20 DUP1 DUP3 MSTORE PUSH1 0x2C SWAP1 DUP3 ADD MSTORE PUSH32 0x557365722068617320616C72656164792072657665616C65642C207468757320 PUSH1 0x40 DUP3 ADD MSTORE PUSH12 0x18D85B89DD081C995D99585B PUSH1 0xA2 SHL PUSH1 0x60 DUP3 ADD MSTORE PUSH1 0x80 ADD SWAP1 JUMP JUMPDEST PUSH1 0x0 PUSH1 0x20 DUP3 MSTORE DUP3 MLOAD PUSH1 0x20 DUP4 ADD MSTORE PUSH1 0x20 DUP4 ADD MLOAD PUSH1 0x40 DUP4 ADD MSTORE PUSH1 0x40 DUP4 ADD MLOAD PUSH1 0x60 DUP4 ADD MSTORE PUSH1 0x60 DUP4 ADD MLOAD PUSH1 0x80 DUP4 ADD MSTORE PUSH1 0x80 DUP4 ADD MLOAD PUSH1 0xA0 DUP4 ADD MSTORE PUSH1 0xA0 DUP4 ADD MLOAD PUSH2 0x87D0 PUSH1 0xC0 DUP5 ADD DUP3 PUSH2 0x78CF JUMP JUMPDEST POP PUSH1 0xC0 DUP4 ADD MLOAD PUSH2 0x87E3 PUSH1 0xE0 DUP5 ADD DUP3 PUSH2 0x78CF JUMP JUMPDEST POP PUSH1 0xE0 DUP4 ADD MLOAD PUSH2 0x100 PUSH2 0x87F8 DUP2 DUP6 ADD DUP4 PUSH2 0x78CF JUMP JUMPDEST DUP5 ADD MLOAD PUSH2 0x120 DUP5 DUP2 ADD SWAP2 SWAP1 SWAP2 MSTORE DUP5 ADD MLOAD PUSH2 0x140 DUP1 DUP6 ADD SWAP2 SWAP1 SWAP2 MSTORE DUP5 ADD MLOAD PUSH2 0x160 DUP1 DUP6 ADD SWAP2 SWAP1 SWAP2 MSTORE DUP5 ADD MLOAD PUSH2 0x180 DUP1 DUP6 ADD SWAP2 SWAP1 SWAP2 MSTORE DUP5 ADD MLOAD PUSH2 0x1C0 PUSH2 0x1A0 DUP1 DUP7 ADD DUP3 SWAP1 MSTORE SWAP2 SWAP3 POP SWAP1 PUSH2 0x884D PUSH2 0x1E0 DUP7 ADD DUP5 PUSH2 0x78D5 JUMP JUMPDEST SWAP1 DUP7 ADD MLOAD SWAP1 SWAP3 POP PUSH2 0x526B DUP6 DUP4 ADD DUP3 PUSH2 0x7901 JUMP JUMPDEST PUSH1 0x0 PUSH1 0x20 DUP3 MSTORE DUP3 MLOAD PUSH1 0x80 PUSH1 0x20 DUP5 ADD MSTORE PUSH2 0x887C PUSH1 0xA0 DUP5 ADD DUP3 PUSH2 0x78D5 JUMP JUMPDEST SWAP1 POP PUSH1 0x1 DUP1 PUSH1 0xA0 SHL SUB PUSH1 0x20 DUP6 ADD MLOAD AND PUSH1 0x40 DUP5 ADD MSTORE PUSH1 0x40 DUP5 ADD MLOAD PUSH1 0x60 DUP5 ADD MSTORE PUSH1 0x60 DUP5 ADD MLOAD PUSH2 0x88AC PUSH1 0x80 DUP6 ADD DUP3 PUSH2 0x7901 JUMP JUMPDEST POP SWAP4 SWAP3 POP POP POP JUMP JUMPDEST PUSH1 0x0 DUP4 DUP3 MSTORE DUP3 PUSH1 0x20 DUP4 ADD MSTORE PUSH1 0x60 PUSH1 0x40 DUP4 ADD MSTORE PUSH2 0x5AB8 PUSH1 0x60 DUP4 ADD PUSH2 0x7923 JUMP JUMPDEST PUSH1 0x0 DUP5 DUP3 MSTORE DUP4 PUSH1 0x20 DUP4 ADD MSTORE PUSH1 0x80 PUSH1 0x40 DUP4 ADD MSTORE PUSH2 0x88F0 PUSH1 0x80 DUP4 ADD PUSH2 0x7923 JUMP JUMPDEST SWAP1 POP DUP3 PUSH1 0x60 DUP4 ADD MSTORE SWAP5 SWAP4 POP POP POP POP JUMP JUMPDEST PUSH1 0x0 DUP4 DUP3 MSTORE DUP3 PUSH1 0x20 DUP4 ADD MSTORE PUSH1 0x60 PUSH1 0x40 DUP4 ADD MSTORE PUSH2 0x5AB8 PUSH1 0x60 DUP4 ADD PUSH2 0x7940 JUMP JUMPDEST PUSH1 0x0 DUP5 DUP3 MSTORE DUP4 PUSH1 0x20 DUP4 ADD MSTORE PUSH1 0x80 PUSH1 0x40 DUP4 ADD MSTORE PUSH2 0x88F0 PUSH1 0x80 DUP4 ADD PUSH2 0x7940 JUMP JUMPDEST SWAP4 DUP5 MSTORE PUSH1 0x20 DUP5 ADD SWAP3 SWAP1 SWAP3 MSTORE PUSH1 0x40 DUP4 ADD MSTORE PUSH1 0x60 DUP3 ADD MSTORE PUSH1 0x80 ADD SWAP1 JUMP JUMPDEST SWAP2 DUP3 MSTORE PUSH1 0x1 PUSH1 0x1 PUSH1 0xA0 SHL SUB AND PUSH1 0x20 DUP3 ADD MSTORE PUSH1 0x40 ADD SWAP1 JUMP JUMPDEST SWAP2 DUP3 MSTORE PUSH1 0x1 PUSH1 0x1 PUSH1 0xA0 SHL SUB AND PUSH1 0x20 DUP3 ADD MSTORE PUSH1 0x0 PUSH1 0x40 DUP3 ADD MSTORE PUSH1 0x60 ADD SWAP1 JUMP JUMPDEST SWAP3 DUP4 MSTORE PUSH1 0x20 DUP4 ADD SWAP2 SWAP1 SWAP2 MSTORE PUSH1 0x40 DUP3 ADD MSTORE PUSH1 0x60 ADD SWAP1 JUMP JUMPDEST PUSH1 0x0 DUP16 DUP3 MSTORE DUP15 PUSH1 0x20 DUP4 ADD MSTORE DUP14 PUSH1 0x40 DUP4 ADD MSTORE DUP13 PUSH1 0x60 DUP4 ADD MSTORE DUP12 PUSH1 0x80 DUP4 ADD MSTORE DUP11 ISZERO ISZERO PUSH1 0xA0 DUP4 ADD MSTORE DUP10 ISZERO ISZERO PUSH1 0xC0 DUP4 ADD MSTORE PUSH2 0x89DC PUSH1 0xE0 DUP4 ADD DUP11 PUSH2 0x78CF JUMP JUMPDEST DUP8 PUSH2 0x100 DUP4 ADD MSTORE DUP7 PUSH2 0x120 DUP4 ADD MSTORE DUP6 PUSH2 0x140 DUP4 ADD MSTORE DUP5 PUSH2 0x160 DUP4 ADD MSTORE PUSH2 0x1C0 PUSH2 0x180 DUP4 ADD MSTORE PUSH2 0x8A0F PUSH2 0x1C0 DUP4 ADD DUP6 PUSH2 0x78D5 JUMP JUMPDEST SWAP1 POP PUSH2 0x8A1F PUSH2 0x1A0 DUP4 ADD DUP5 PUSH2 0x7901 JUMP JUMPDEST SWAP16 SWAP15 POP POP POP POP POP POP POP POP POP POP POP POP POP POP POP JUMP JUMPDEST PUSH1 0x40 MLOAD DUP2 DUP2 ADD PUSH1 0x1 PUSH1 0x1 PUSH1 0x40 SHL SUB DUP2 GT DUP3 DUP3 LT OR ISZERO PUSH2 0x8A53 JUMPI PUSH2 0x8A53 PUSH2 0x8BB6 JUMP JUMPDEST PUSH1 0x40 MSTORE SWAP2 SWAP1 POP JUMP JUMPDEST PUSH1 0x0 PUSH1 0x1 PUSH1 0x1 PUSH1 0x40 SHL SUB DUP3 GT ISZERO PUSH2 0x8A74 JUMPI PUSH2 0x8A74 PUSH2 0x8BB6 JUMP JUMPDEST POP PUSH1 0x1F ADD PUSH1 0x1F NOT AND PUSH1 0x20 ADD SWAP1 JUMP JUMPDEST PUSH1 0x0 SWAP1 DUP2 MSTORE PUSH1 0x20 SWAP1 KECCAK256 SWAP1 JUMP JUMPDEST PUSH1 0x0 DUP3 NOT DUP3 GT ISZERO PUSH2 0x8AA1 JUMPI PUSH2 0x8AA1 PUSH2 0x8B8A JUMP JUMPDEST POP ADD SWAP1 JUMP JUMPDEST PUSH1 0x0 DUP3 PUSH2 0x8AB5 JUMPI PUSH2 0x8AB5 PUSH2 0x8BA0 JUMP JUMPDEST POP DIV SWAP1 JUMP JUMPDEST PUSH1 0x0 DUP2 PUSH1 0x0 NOT DIV DUP4 GT DUP3 ISZERO ISZERO AND ISZERO PUSH2 0x8AD4 JUMPI PUSH2 0x8AD4 PUSH2 0x8B8A JUMP JUMPDEST POP MUL SWAP1 JUMP JUMPDEST PUSH1 0x0 DUP3 DUP3 LT ISZERO PUSH2 0x8AEB JUMPI PUSH2 0x8AEB PUSH2 0x8B8A JUMP JUMPDEST POP SUB SWAP1 JUMP JUMPDEST PUSH1 0x0 JUMPDEST DUP4 DUP2 LT ISZERO PUSH2 0x8B0B JUMPI DUP2 DUP2 ADD MLOAD DUP4 DUP3 ADD MSTORE PUSH1 0x20 ADD PUSH2 0x8AF3 JUMP JUMPDEST DUP4 DUP2 GT ISZERO PUSH2 0x8B1A JUMPI PUSH1 0x0 DUP5 DUP5 ADD MSTORE JUMPDEST POP POP POP POP JUMP JUMPDEST PUSH1 0x2 DUP2 DIV PUSH1 0x1 DUP3 AND DUP1 PUSH2 0x8B34 JUMPI PUSH1 0x7F DUP3 AND SWAP2 POP JUMPDEST PUSH1 0x20 DUP3 LT DUP2 EQ ISZERO PUSH2 0x8B55 JUMPI PUSH4 0x4E487B71 PUSH1 0xE0 SHL PUSH1 0x0 MSTORE PUSH1 0x22 PUSH1 0x4 MSTORE PUSH1 0x24 PUSH1 0x0 REVERT JUMPDEST POP SWAP2 SWAP1 POP JUMP JUMPDEST PUSH1 0x0 PUSH1 0x0 NOT DUP3 EQ ISZERO PUSH2 0x8B6F JUMPI PUSH2 0x8B6F PUSH2 0x8B8A JUMP JUMPDEST POP PUSH1 0x1 ADD SWAP1 JUMP JUMPDEST PUSH1 0x0 DUP3 PUSH2 0x8B85 JUMPI PUSH2 0x8B85 PUSH2 0x8BA0 JUMP JUMPDEST POP MOD SWAP1 JUMP JUMPDEST PUSH4 0x4E487B71 PUSH1 0xE0 SHL PUSH1 0x0 MSTORE PUSH1 0x11 PUSH1 0x4 MSTORE PUSH1 0x24 PUSH1 0x0 REVERT JUMPDEST PUSH4 0x4E487B71 PUSH1 0xE0 SHL PUSH1 0x0 MSTORE PUSH1 0x12 PUSH1 0x4 MSTORE PUSH1 0x24 PUSH1 0x0 REVERT JUMPDEST PUSH4 0x4E487B71 PUSH1 0xE0 SHL PUSH1 0x0 MSTORE PUSH1 0x41 PUSH1 0x4 MSTORE PUSH1 0x24 PUSH1 0x0 REVERT JUMPDEST PUSH1 0x1 PUSH1 0x1 PUSH1 0xA0 SHL SUB DUP2 AND DUP2 EQ PUSH2 0x19B5 JUMPI PUSH1 0x0 DUP1 REVERT INVALID LOG2 PUSH5 0x6970667358 0x22 SLT KECCAK256 DUP1 0xB8 COINBASE DUP4 0xB2 0xCA 0x4F 0xAC SWAP3 0xC6 SWAP11 DUP14 0xE6 0xFC CODECOPY SWAP1 0xB0 LOG2 0xF STOP SWAP9 0xD4 0xD3 0xEC 0xB2 0x5F 0xB0 0xCF 0xAE NOT LOG0 STATICCALL PUSH5 0x736F6C6343 STOP ADDMOD STOP STOP CALLER "
		},
		"gasEstimates": {
			"creation": {
				"codeDepositCost": "7172600",
				"executionCost": "infinite",
				"totalCost": "infinite"
			},
			"external": {
				"AcceptedBatchsCounter()": "1183",
				"AddressManager()": "1161",
				"AllTxsCounter()": "1117",
				"AllocateWork()": "infinite",
				"AllocatedBatchCursor()": "1117",
				"AmIRegistered()": "1247",
				"ArchiveSystem()": "1226",
				"AreStringsEqual(string,string)": "infinite",
				"BatchCheckingCursor()": "1162",
				"BatchDeletionCursor()": "1162",
				"CollectedSpotBatchs(uint256)": "1295",
				"DataBatch(uint256)": "infinite",
				"DataCommitEndDate(uint256)": "2169",
				"DataEnded(uint256)": "2173",
				"DataExists(uint256)": "1228",
				"DataNonce()": "1164",
				"DataRevealEndDate(uint256)": "2169",
				"FormatStakedTokenBalance(address)": "1338",
				"FormatsMapping(uint256)": "infinite",
				"GetCurrentWork(address)": "8167",
				"IsNewWorkAvailable(address)": "10006",
				"LastBatchCounter()": "1118",
				"MasterWorkers(address,uint256)": "2335",
				"NotCommitedCounter()": "1163",
				"NotRevealedCounter()": "1118",
				"Parameters()": "1224",
				"Ping(uint256)": "infinite",
				"RegisterWorker()": "infinite",
				"RejectedBatchsCounter()": "1185",
				"RepManager()": "1206",
				"RewardManager()": "1184",
				"SpottingSystem()": "1225",
				"StakeManager()": "1226",
				"TriggerUpdate()": "infinite",
				"UnregisterWorker()": "infinite",
				"UserBatchCounts(uint256,address)": "1440",
				"UserBatchFrom(uint256,address)": "infinite",
				"UserChecksCommits(address,uint256)": "1464",
				"UserChecksReveals(address,uint256)": "1463",
				"UserNewFiles(uint256,address)": "infinite",
				"UserSubmittedStatus(uint256,address)": "infinite",
				"UserVotes(uint256,address)": "1440",
				"ValidateDataBatch(uint256)": "infinite",
				"WorkersPerBatch(uint256,uint256)": "2240",
				"WorkersState(address)": "8193",
				"attrUUID(address,uint256)": "730",
				"availableWorkers(uint256)": "2195",
				"busyWorkers(uint256)": "2172",
				"commitFormatCheck(uint256,bytes32,uint256,string,string)": "infinite",
				"commitPeriodActive(uint256)": "3160",
				"deleteCollectedSpotBatch(uint256)": "23064",
				"deleteData(uint256)": "infinite",
				"deleteDataBatch(uint256)": "infinite",
				"didCommit(address,uint256)": "2368",
				"didReveal(address,uint256)": "2323",
				"generateIntegers(uint256,uint256)": "infinite",
				"getAcceptedBatchesCount()": "1163",
				"getActiveWorkersCount()": "2022",
				"getBatchByID(uint256)": "infinite",
				"getBatchIPFSFileByID(uint256)": "infinite",
				"getCommitHash(address,uint256)": "infinite",
				"getDataByID(uint256)": "infinite",
				"getEncryptedStringHash(string,uint256)": "infinite",
				"getFromsForBatch(uint256)": "infinite",
				"getIPFShashesForBatch(uint256)": "infinite",
				"getInsertPointForNumTokens(address,uint256,uint256)": "infinite",
				"getLastAllocatedBatchId()": "1208",
				"getLastBatchId()": "1120",
				"getLastCheckedBatchId()": "1119",
				"getLastDataId()": "1141",
				"getLastNode(address)": "infinite",
				"getLockedTokens(address)": "infinite",
				"getMySystemTokenBalance()": "1230",
				"getNumPassingTokens(address,uint256,uint256)": "infinite",
				"getNumTokens(address,uint256)": "infinite",
				"getRandom()": "infinite",
				"getRejectedBatchesCount()": "1116",
				"getSeed()": "infinite",
				"getStatusForBatch(uint256)": "infinite",
				"getSubmittedFilesForBatch(uint256)": "infinite",
				"getSystemTokenBalance(address)": "1354",
				"getTotalNumberOfFormatChecks(uint256)": "2165",
				"getTxCounter()": "1183",
				"getVotesForBatch(uint256)": "infinite",
				"isExpired(uint256)": "448",
				"isPassed(uint256)": "infinite",
				"isWorkerAllocatedToBatch(uint256,address)": "infinite",
				"isWorkerRegistered(address)": "1415",
				"owner()": "1159",
				"random_selection(uint256,uint256)": "infinite",
				"renounceOwnership()": "23616",
				"rescueTokens(uint256)": "infinite",
				"rescueTokensInMultipleDatas(uint256[])": "infinite",
				"revealFormatCheck(uint256,uint256,string,uint256)": "infinite",
				"revealPeriodActive(uint256)": "infinite",
				"sFuel()": "1204",
				"shuffle_array(uint256)": "infinite",
				"toUnregisterWorkers(uint256)": "2194",
				"token()": "1180",
				"transferOwnership(address)": "infinite",
				"updateAddressManager(address)": "22207",
				"updateArchiveManager(address)": "22252",
				"updateParametersManager(address)": "22209",
				"updateRepManager(address)": "22185",
				"updateRewardManager(address)": "22187",
				"updateSpotManager(address)": "22229",
				"updateStakeManager(address)": "22207",
				"updatesFuelFaucet(address)": "22229",
				"validPosition(uint256,uint256,address,uint256)": "infinite",
				"withdrawVotingRights(uint256)": "infinite"
			},
			"internal": {
				"PopFromAvailableWorkers(address)": "infinite",
				"PopFromBusyWorkers(address)": "infinite",
				"_retrieveSFuel()": "infinite",
				"deleteOldData()": "infinite",
				"isInAvailableWorkers(address)": "infinite",
				"isInBusyWorkers(address)": "infinite",
				"processLogoffRequests()": "infinite",
				"requestAllocatedStake(uint256,address)": "infinite"
			}
		},
		"methodIdentifiers": {
			"AcceptedBatchsCounter()": "9769d846",
			"AddressManager()": "7a34da67",
			"AllTxsCounter()": "f2d9e74d",
			"AllocateWork()": "667bf0f8",
			"AllocatedBatchCursor()": "d6b0206c",
			"AmIRegistered()": "f80a23fd",
			"ArchiveSystem()": "dd15f095",
			"AreStringsEqual(string,string)": "a9057790",
			"BatchCheckingCursor()": "ef4fcdad",
			"BatchDeletionCursor()": "d58f575c",
			"CollectedSpotBatchs(uint256)": "4d4b7d9b",
			"DataBatch(uint256)": "7fabe35b",
			"DataCommitEndDate(uint256)": "c4e4f82a",
			"DataEnded(uint256)": "226ed300",
			"DataExists(uint256)": "f721de4a",
			"DataNonce()": "0e6661a7",
			"DataRevealEndDate(uint256)": "71880b1b",
			"FormatStakedTokenBalance(address)": "353f44d0",
			"FormatsMapping(uint256)": "6a192ff5",
			"GetCurrentWork(address)": "fca49563",
			"IsNewWorkAvailable(address)": "b1a2e0be",
			"LastBatchCounter()": "8473850b",
			"MasterWorkers(address,uint256)": "d822ce01",
			"NotCommitedCounter()": "4852e2f0",
			"NotRevealedCounter()": "eb1322ff",
			"Parameters()": "ff43de9d",
			"Ping(uint256)": "48257dc9",
			"RegisterWorker()": "f716596d",
			"RejectedBatchsCounter()": "a350715a",
			"RepManager()": "29a47bc7",
			"RewardManager()": "51912f29",
			"SpottingSystem()": "d8645d37",
			"StakeManager()": "83cc6ef2",
			"TriggerUpdate()": "da14563a",
			"UnregisterWorker()": "275c2590",
			"UserBatchCounts(uint256,address)": "5b113a55",
			"UserBatchFrom(uint256,address)": "88d072eb",
			"UserChecksCommits(address,uint256)": "2d917c68",
			"UserChecksReveals(address,uint256)": "d420ec0b",
			"UserNewFiles(uint256,address)": "2f469fd1",
			"UserSubmittedStatus(uint256,address)": "10679810",
			"UserVotes(uint256,address)": "d8b75674",
			"ValidateDataBatch(uint256)": "6b1485a3",
			"WorkersPerBatch(uint256,uint256)": "8df0296e",
			"WorkersState(address)": "8c89d027",
			"attrUUID(address,uint256)": "a1103f37",
			"availableWorkers(uint256)": "3538af82",
			"busyWorkers(uint256)": "821aa8c0",
			"commitFormatCheck(uint256,bytes32,uint256,string,string)": "a4b7e233",
			"commitPeriodActive(uint256)": "a4439dc5",
			"deleteCollectedSpotBatch(uint256)": "4671ace5",
			"deleteData(uint256)": "4fe8b4c1",
			"deleteDataBatch(uint256)": "6371d81f",
			"didCommit(address,uint256)": "7f97e836",
			"didReveal(address,uint256)": "aa7ca464",
			"generateIntegers(uint256,uint256)": "b1d7ea98",
			"getAcceptedBatchesCount()": "a1b6b5b7",
			"getActiveWorkersCount()": "7f9510a2",
			"getBatchByID(uint256)": "d9845fb8",
			"getBatchIPFSFileByID(uint256)": "e604c127",
			"getCommitHash(address,uint256)": "d901402b",
			"getDataByID(uint256)": "5a452943",
			"getEncryptedStringHash(string,uint256)": "f4cdfcc4",
			"getFromsForBatch(uint256)": "5df6055d",
			"getIPFShashesForBatch(uint256)": "ed8becfa",
			"getInsertPointForNumTokens(address,uint256,uint256)": "2c052031",
			"getLastAllocatedBatchId()": "154fd39b",
			"getLastBatchId()": "515535e8",
			"getLastCheckedBatchId()": "47fe2d20",
			"getLastDataId()": "a511dba0",
			"getLastNode(address)": "427fa1d2",
			"getLockedTokens(address)": "6b2d95d4",
			"getMySystemTokenBalance()": "e1f7a430",
			"getNumPassingTokens(address,uint256,uint256)": "b43bd069",
			"getNumTokens(address,uint256)": "d1382092",
			"getRandom()": "aacc5a17",
			"getRejectedBatchesCount()": "f96305f0",
			"getSeed()": "39e7357c",
			"getStatusForBatch(uint256)": "76c1fef4",
			"getSubmittedFilesForBatch(uint256)": "d817587e",
			"getSystemTokenBalance(address)": "7074222b",
			"getTotalNumberOfFormatChecks(uint256)": "a0e71c15",
			"getTxCounter()": "f5ae7c7d",
			"getVotesForBatch(uint256)": "01a48b98",
			"isExpired(uint256)": "d9548e53",
			"isPassed(uint256)": "49403183",
			"isWorkerAllocatedToBatch(uint256,address)": "d186981d",
			"isWorkerRegistered(address)": "e798a7da",
			"owner()": "8da5cb5b",
			"random_selection(uint256,uint256)": "b8f011b3",
			"renounceOwnership()": "715018a6",
			"rescueTokens(uint256)": "97603560",
			"rescueTokensInMultipleDatas(uint256[])": "9fc9c52f",
			"revealFormatCheck(uint256,uint256,string,uint256)": "40fbaae4",
			"revealPeriodActive(uint256)": "441c77c0",
			"sFuel()": "ab43e78d",
			"shuffle_array(uint256)": "e44c974b",
			"toUnregisterWorkers(uint256)": "b10aa584",
			"token()": "fc0c546a",
			"transferOwnership(address)": "f2fde38b",
			"updateAddressManager(address)": "c47c4bc2",
			"updateArchiveManager(address)": "46a7aea6",
			"updateParametersManager(address)": "05957623",
			"updateRepManager(address)": "dd618682",
			"updateRewardManager(address)": "050eb2eb",
			"updateSpotManager(address)": "db687c17",
			"updateStakeManager(address)": "df05368e",
			"updatesFuelFaucet(address)": "4d884281",
			"validPosition(uint256,uint256,address,uint256)": "819b0293",
			"withdrawVotingRights(uint256)": "e7b1d43c"
		}
	},
	"abi": [
		{
			"inputs": [
				{
					"internalType": "address",
					"name": "EXDT_token_",
					"type": "address"
				}
			],
			"stateMutability": "nonpayable",
			"type": "constructor"
		},
		{
			"anonymous": false,
			"inputs": [
				{
					"indexed": false,
					"internalType": "bytes",
					"name": "bytesFailure",
					"type": "bytes"
				}
			],
			"name": "BytesFailure",
			"type": "event"
		},
		{
			"anonymous": false,
			"inputs": [
				{
					"indexed": true,
					"internalType": "address",
					"name": "previousOwner",
					"type": "address"
				},
				{
					"indexed": true,
					"internalType": "address",
					"name": "newOwner",
					"type": "address"
				}
			],
			"name": "OwnershipTransferred",
			"type": "event"
		},
		{
			"anonymous": false,
			"inputs": [
				{
					"indexed": true,
					"internalType": "uint256",
					"name": "batchID",
					"type": "uint256"
				}
			],
			"name": "_DataBatchDeleted",
			"type": "event"
		},
		{
			"anonymous": false,
			"inputs": [
				{
					"indexed": false,
					"internalType": "string",
					"name": "hash",
					"type": "string"
				},
				{
					"indexed": true,
					"internalType": "address",
					"name": "creator",
					"type": "address"
				}
			],
			"name": "_FormatAccepted",
			"type": "event"
		},
		{
			"anonymous": false,
			"inputs": [
				{
					"indexed": true,
					"internalType": "uint256",
					"name": "DataID",
					"type": "uint256"
				},
				{
					"indexed": false,
					"internalType": "uint256",
					"name": "numTokens",
					"type": "uint256"
				},
				{
					"indexed": true,
					"internalType": "address",
					"name": "voter",
					"type": "address"
				}
			],
			"name": "_FormatCheckCommitted",
			"type": "event"
		},
		{
			"anonymous": false,
			"inputs": [
				{
					"indexed": true,
					"internalType": "uint256",
					"name": "DataID",
					"type": "uint256"
				},
				{
					"indexed": false,
					"internalType": "uint256",
					"name": "numTokens",
					"type": "uint256"
				},
				{
					"indexed": false,
					"internalType": "uint256",
					"name": "votesFor",
					"type": "uint256"
				},
				{
					"indexed": false,
					"internalType": "uint256",
					"name": "votesAgainst",
					"type": "uint256"
				},
				{
					"indexed": true,
					"internalType": "uint256",
					"name": "choice",
					"type": "uint256"
				},
				{
					"indexed": true,
					"internalType": "address",
					"name": "voter",
					"type": "address"
				}
			],
			"name": "_FormatCheckRevealed",
			"type": "event"
		},
		{
			"anonymous": false,
			"inputs": [
				{
					"indexed": true,
					"internalType": "uint256",
					"name": "DataID",
					"type": "uint256"
				},
				{
					"indexed": false,
					"internalType": "string",
					"name": "file_hash",
					"type": "string"
				},
				{
					"indexed": false,
					"internalType": "address",
					"name": "sender",
					"type": "address"
				}
			],
			"name": "_FormatSubmitted",
			"type": "event"
		},
		{
			"anonymous": false,
			"inputs": [
				{
					"indexed": false,
					"internalType": "uint256",
					"name": "numTokens",
					"type": "uint256"
				},
				{
					"indexed": true,
					"internalType": "address",
					"name": "voter",
					"type": "address"
				}
			],
			"name": "_StakeAllocated",
			"type": "event"
		},
		{
			"anonymous": false,
			"inputs": [
				{
					"indexed": true,
					"internalType": "uint256",
					"name": "DataID",
					"type": "uint256"
				},
				{
					"indexed": true,
					"internalType": "address",
					"name": "voter",
					"type": "address"
				}
			],
			"name": "_TokensRescued",
			"type": "event"
		},
		{
			"anonymous": false,
			"inputs": [
				{
					"indexed": false,
					"internalType": "uint256",
					"name": "numTokens",
					"type": "uint256"
				},
				{
					"indexed": true,
					"internalType": "address",
					"name": "voter",
					"type": "address"
				}
			],
			"name": "_VotingRightsWithdrawn",
			"type": "event"
		},
		{
			"anonymous": false,
			"inputs": [
				{
					"indexed": true,
					"internalType": "uint256",
					"name": "batchID",
					"type": "uint256"
				},
				{
					"indexed": false,
					"internalType": "address",
					"name": "worker",
					"type": "address"
				}
			],
			"name": "_WorkAllocated",
			"type": "event"
		},
		{
			"anonymous": false,
			"inputs": [
				{
					"indexed": true,
					"internalType": "address",
					"name": "worker",
					"type": "address"
				},
				{
					"indexed": false,
					"internalType": "uint256",
					"name": "timestamp",
					"type": "uint256"
				}
			],
			"name": "_WorkerRegistered",
			"type": "event"
		},
		{
			"anonymous": false,
			"inputs": [
				{
					"indexed": true,
					"internalType": "address",
					"name": "worker",
					"type": "address"
				},
				{
					"indexed": false,
					"internalType": "uint256",
					"name": "timestamp",
					"type": "uint256"
				}
			],
			"name": "_WorkerUnregistered",
			"type": "event"
		},
		{
			"inputs": [],
			"name": "AcceptedBatchsCounter",
			"outputs": [
				{
					"internalType": "uint256",
					"name": "",
					"type": "uint256"
				}
			],
			"stateMutability": "view",
			"type": "function"
		},
		{
			"inputs": [],
			"name": "AddressManager",
			"outputs": [
				{
					"internalType": "contract IAddressManager",
					"name": "",
					"type": "address"
				}
			],
			"stateMutability": "view",
			"type": "function"
		},
		{
			"inputs": [],
			"name": "AllTxsCounter",
			"outputs": [
				{
					"internalType": "uint256",
					"name": "",
					"type": "uint256"
				}
			],
			"stateMutability": "view",
			"type": "function"
		},
		{
			"inputs": [],
			"name": "AllocateWork",
			"outputs": [],
			"stateMutability": "nonpayable",
			"type": "function"
		},
		{
			"inputs": [],
			"name": "AllocatedBatchCursor",
			"outputs": [
				{
					"internalType": "uint256",
					"name": "",
					"type": "uint256"
				}
			],
			"stateMutability": "view",
			"type": "function"
		},
		{
			"inputs": [],
			"name": "AmIRegistered",
			"outputs": [
				{
					"internalType": "bool",
					"name": "passed",
					"type": "bool"
				}
			],
			"stateMutability": "view",
			"type": "function"
		},
		{
			"inputs": [],
			"name": "ArchiveSystem",
			"outputs": [
				{
					"internalType": "contract IArchiveSystem",
					"name": "",
					"type": "address"
				}
			],
			"stateMutability": "view",
			"type": "function"
		},
		{
			"inputs": [
				{
					"internalType": "string",
					"name": "_a",
					"type": "string"
				},
				{
					"internalType": "string",
					"name": "_b",
					"type": "string"
				}
			],
			"name": "AreStringsEqual",
			"outputs": [
				{
					"internalType": "bool",
					"name": "",
					"type": "bool"
				}
			],
			"stateMutability": "pure",
			"type": "function"
		},
		{
			"inputs": [],
			"name": "BatchCheckingCursor",
			"outputs": [
				{
					"internalType": "uint256",
					"name": "",
					"type": "uint256"
				}
			],
			"stateMutability": "view",
			"type": "function"
		},
		{
			"inputs": [],
			"name": "BatchDeletionCursor",
			"outputs": [
				{
					"internalType": "uint256",
					"name": "",
					"type": "uint256"
				}
			],
			"stateMutability": "view",
			"type": "function"
		},
		{
			"inputs": [
				{
					"internalType": "uint256",
					"name": "",
					"type": "uint256"
				}
			],
			"name": "CollectedSpotBatchs",
			"outputs": [
				{
					"internalType": "bool",
					"name": "",
					"type": "bool"
				}
			],
			"stateMutability": "view",
			"type": "function"
		},
		{
			"inputs": [
				{
					"internalType": "uint256",
					"name": "",
					"type": "uint256"
				}
			],
			"name": "DataBatch",
			"outputs": [
				{
					"internalType": "uint256",
					"name": "start_idx",
					"type": "uint256"
				},
				{
					"internalType": "uint256",
					"name": "counter",
					"type": "uint256"
				},
				{
					"internalType": "uint256",
					"name": "uncommited_workers",
					"type": "uint256"
				},
				{
					"internalType": "uint256",
					"name": "unrevealed_workers",
					"type": "uint256"
				},
				{
					"internalType": "uint256",
					"name": "item_count",
					"type": "uint256"
				},
				{
					"internalType": "bool",
					"name": "complete",
					"type": "bool"
				},
				{
					"internalType": "bool",
					"name": "checked",
					"type": "bool"
				},
				{
					"internalType": "bool",
					"name": "allocated_to_work",
					"type": "bool"
				},
				{
					"internalType": "uint256",
					"name": "commitEndDate",
					"type": "uint256"
				},
				{
					"internalType": "uint256",
					"name": "revealEndDate",
					"type": "uint256"
				},
				{
					"internalType": "uint256",
					"name": "votesFor",
					"type": "uint256"
				},
				{
					"internalType": "uint256",
					"name": "votesAgainst",
					"type": "uint256"
				},
				{
					"internalType": "string",
					"name": "batchIPFSfile",
					"type": "string"
				},
				{
					"internalType": "enum DataFormatting.DataStatus",
					"name": "status",
					"type": "uint8"
				}
			],
			"stateMutability": "view",
			"type": "function"
		},
		{
			"inputs": [
				{
					"internalType": "uint256",
					"name": "_DataBatchId",
					"type": "uint256"
				}
			],
			"name": "DataCommitEndDate",
			"outputs": [
				{
					"internalType": "uint256",
					"name": "commitEndDate",
					"type": "uint256"
				}
			],
			"stateMutability": "view",
			"type": "function"
		},
		{
			"inputs": [
				{
					"internalType": "uint256",
					"name": "_DataBatchId",
					"type": "uint256"
				}
			],
			"name": "DataEnded",
			"outputs": [
				{
					"internalType": "bool",
					"name": "ended",
					"type": "bool"
				}
			],
			"stateMutability": "view",
			"type": "function"
		},
		{
			"inputs": [
				{
					"internalType": "uint256",
					"name": "_DataBatchId",
					"type": "uint256"
				}
			],
			"name": "DataExists",
			"outputs": [
				{
					"internalType": "bool",
					"name": "exists",
					"type": "bool"
				}
			],
			"stateMutability": "view",
			"type": "function"
		},
		{
			"inputs": [],
			"name": "DataNonce",
			"outputs": [
				{
					"internalType": "uint256",
					"name": "",
					"type": "uint256"
				}
			],
			"stateMutability": "view",
			"type": "function"
		},
		{
			"inputs": [
				{
					"internalType": "uint256",
					"name": "_DataBatchId",
					"type": "uint256"
				}
			],
			"name": "DataRevealEndDate",
			"outputs": [
				{
					"internalType": "uint256",
					"name": "revealEndDate",
					"type": "uint256"
				}
			],
			"stateMutability": "view",
			"type": "function"
		},
		{
			"inputs": [
				{
					"internalType": "address",
					"name": "",
					"type": "address"
				}
			],
			"name": "FormatStakedTokenBalance",
			"outputs": [
				{
					"internalType": "uint256",
					"name": "",
					"type": "uint256"
				}
			],
			"stateMutability": "view",
			"type": "function"
		},
		{
			"inputs": [
				{
					"internalType": "uint256",
					"name": "",
					"type": "uint256"
				}
			],
			"name": "FormatsMapping",
			"outputs": [
				{
					"internalType": "string",
					"name": "ipfs_hash",
					"type": "string"
				},
				{
					"internalType": "address",
					"name": "author",
					"type": "address"
				},
				{
					"internalType": "uint256",
					"name": "timestamp",
					"type": "uint256"
				},
				{
					"internalType": "enum DataFormatting.DataStatus",
					"name": "status",
					"type": "uint8"
				}
			],
			"stateMutability": "view",
			"type": "function"
		},
		{
			"inputs": [
				{
					"internalType": "address",
					"name": "user_",
					"type": "address"
				}
			],
			"name": "GetCurrentWork",
			"outputs": [
				{
					"internalType": "uint256",
					"name": "",
					"type": "uint256"
				}
			],
			"stateMutability": "view",
			"type": "function"
		},
		{
			"inputs": [
				{
					"internalType": "address",
					"name": "user_",
					"type": "address"
				}
			],
			"name": "IsNewWorkAvailable",
			"outputs": [
				{
					"internalType": "bool",
					"name": "",
					"type": "bool"
				}
			],
			"stateMutability": "view",
			"type": "function"
		},
		{
			"inputs": [],
			"name": "LastBatchCounter",
			"outputs": [
				{
					"internalType": "uint256",
					"name": "",
					"type": "uint256"
				}
			],
			"stateMutability": "view",
			"type": "function"
		},
		{
			"inputs": [
				{
					"internalType": "address",
					"name": "",
					"type": "address"
				},
				{
					"internalType": "uint256",
					"name": "",
					"type": "uint256"
				}
			],
			"name": "MasterWorkers",
			"outputs": [
				{
					"internalType": "address",
					"name": "",
					"type": "address"
				}
			],
			"stateMutability": "view",
			"type": "function"
		},
		{
			"inputs": [],
			"name": "NotCommitedCounter",
			"outputs": [
				{
					"internalType": "uint256",
					"name": "",
					"type": "uint256"
				}
			],
			"stateMutability": "view",
			"type": "function"
		},
		{
			"inputs": [],
			"name": "NotRevealedCounter",
			"outputs": [
				{
					"internalType": "uint256",
					"name": "",
					"type": "uint256"
				}
			],
			"stateMutability": "view",
			"type": "function"
		},
		{
			"inputs": [],
			"name": "Parameters",
			"outputs": [
				{
					"internalType": "contract IParametersManager",
					"name": "",
					"type": "address"
				}
			],
			"stateMutability": "view",
			"type": "function"
		},
		{
			"inputs": [
				{
					"internalType": "uint256",
					"name": "CheckedBatchId",
					"type": "uint256"
				}
			],
			"name": "Ping",
			"outputs": [],
			"stateMutability": "nonpayable",
			"type": "function"
		},
		{
			"inputs": [],
			"name": "RegisterWorker",
			"outputs": [],
			"stateMutability": "nonpayable",
			"type": "function"
		},
		{
			"inputs": [],
			"name": "RejectedBatchsCounter",
			"outputs": [
				{
					"internalType": "uint256",
					"name": "",
					"type": "uint256"
				}
			],
			"stateMutability": "view",
			"type": "function"
		},
		{
			"inputs": [],
			"name": "RepManager",
			"outputs": [
				{
					"internalType": "contract IRepManager",
					"name": "",
					"type": "address"
				}
			],
			"stateMutability": "view",
			"type": "function"
		},
		{
			"inputs": [],
			"name": "RewardManager",
			"outputs": [
				{
					"internalType": "contract IRewardManager",
					"name": "",
					"type": "address"
				}
			],
			"stateMutability": "view",
			"type": "function"
		},
		{
			"inputs": [],
			"name": "SpottingSystem",
			"outputs": [
				{
					"internalType": "contract ISpottingSystem",
					"name": "",
					"type": "address"
				}
			],
			"stateMutability": "view",
			"type": "function"
		},
		{
			"inputs": [],
			"name": "StakeManager",
			"outputs": [
				{
					"internalType": "contract IStakeManager",
					"name": "",
					"type": "address"
				}
			],
			"stateMutability": "view",
			"type": "function"
		},
		{
			"inputs": [],
			"name": "TriggerUpdate",
			"outputs": [],
			"stateMutability": "nonpayable",
			"type": "function"
		},
		{
			"inputs": [],
			"name": "UnregisterWorker",
			"outputs": [],
			"stateMutability": "nonpayable",
			"type": "function"
		},
		{
			"inputs": [
				{
					"internalType": "uint256",
					"name": "",
					"type": "uint256"
				},
				{
					"internalType": "address",
					"name": "",
					"type": "address"
				}
			],
			"name": "UserBatchCounts",
			"outputs": [
				{
					"internalType": "uint256",
					"name": "",
					"type": "uint256"
				}
			],
			"stateMutability": "view",
			"type": "function"
		},
		{
			"inputs": [
				{
					"internalType": "uint256",
					"name": "",
					"type": "uint256"
				},
				{
					"internalType": "address",
					"name": "",
					"type": "address"
				}
			],
			"name": "UserBatchFrom",
			"outputs": [
				{
					"internalType": "string",
					"name": "",
					"type": "string"
				}
			],
			"stateMutability": "view",
			"type": "function"
		},
		{
			"inputs": [
				{
					"internalType": "address",
					"name": "",
					"type": "address"
				},
				{
					"internalType": "uint256",
					"name": "",
					"type": "uint256"
				}
			],
			"name": "UserChecksCommits",
			"outputs": [
				{
					"internalType": "bool",
					"name": "",
					"type": "bool"
				}
			],
			"stateMutability": "view",
			"type": "function"
		},
		{
			"inputs": [
				{
					"internalType": "address",
					"name": "",
					"type": "address"
				},
				{
					"internalType": "uint256",
					"name": "",
					"type": "uint256"
				}
			],
			"name": "UserChecksReveals",
			"outputs": [
				{
					"internalType": "bool",
					"name": "",
					"type": "bool"
				}
			],
			"stateMutability": "view",
			"type": "function"
		},
		{
			"inputs": [
				{
					"internalType": "uint256",
					"name": "",
					"type": "uint256"
				},
				{
					"internalType": "address",
					"name": "",
					"type": "address"
				}
			],
			"name": "UserNewFiles",
			"outputs": [
				{
					"internalType": "string",
					"name": "",
					"type": "string"
				}
			],
			"stateMutability": "view",
			"type": "function"
		},
		{
			"inputs": [
				{
					"internalType": "uint256",
					"name": "",
					"type": "uint256"
				},
				{
					"internalType": "address",
					"name": "",
					"type": "address"
				}
			],
			"name": "UserSubmittedStatus",
			"outputs": [
				{
					"internalType": "string",
					"name": "",
					"type": "string"
				}
			],
			"stateMutability": "view",
			"type": "function"
		},
		{
			"inputs": [
				{
					"internalType": "uint256",
					"name": "",
					"type": "uint256"
				},
				{
					"internalType": "address",
					"name": "",
					"type": "address"
				}
			],
			"name": "UserVotes",
			"outputs": [
				{
					"internalType": "uint256",
					"name": "",
					"type": "uint256"
				}
			],
			"stateMutability": "view",
			"type": "function"
		},
		{
			"inputs": [
				{
					"internalType": "uint256",
					"name": "_DataBatchId",
					"type": "uint256"
				}
			],
			"name": "ValidateDataBatch",
			"outputs": [],
			"stateMutability": "nonpayable",
			"type": "function"
		},
		{
			"inputs": [
				{
					"internalType": "uint256",
					"name": "",
					"type": "uint256"
				},
				{
					"internalType": "uint256",
					"name": "",
					"type": "uint256"
				}
			],
			"name": "WorkersPerBatch",
			"outputs": [
				{
					"internalType": "address",
					"name": "",
					"type": "address"
				}
			],
			"stateMutability": "view",
			"type": "function"
		},
		{
			"inputs": [
				{
					"internalType": "address",
					"name": "",
					"type": "address"
				}
			],
			"name": "WorkersState",
			"outputs": [
				{
					"internalType": "address",
					"name": "worker_address",
					"type": "address"
				},
				{
					"internalType": "uint256",
					"name": "allocated_work_batch",
					"type": "uint256"
				},
				{
					"internalType": "bool",
					"name": "has_completed_work",
					"type": "bool"
				},
				{
					"internalType": "uint256",
					"name": "succeeding_novote_count",
					"type": "uint256"
				},
				{
					"internalType": "uint256",
					"name": "last_interaction_date",
					"type": "uint256"
				},
				{
					"internalType": "bool",
					"name": "registered",
					"type": "bool"
				},
				{
					"internalType": "bool",
					"name": "unregistration_request",
					"type": "bool"
				},
				{
					"internalType": "uint256",
					"name": "registration_date",
					"type": "uint256"
				},
				{
					"internalType": "uint256",
					"name": "majority_counter",
					"type": "uint256"
				},
				{
					"internalType": "uint256",
					"name": "minority_counter",
					"type": "uint256"
				}
			],
			"stateMutability": "view",
			"type": "function"
		},
		{
			"inputs": [
				{
					"internalType": "address",
					"name": "_user",
					"type": "address"
				},
				{
					"internalType": "uint256",
					"name": "_DataBatchId",
					"type": "uint256"
				}
			],
			"name": "attrUUID",
			"outputs": [
				{
					"internalType": "bytes32",
					"name": "UUID",
					"type": "bytes32"
				}
			],
			"stateMutability": "pure",
			"type": "function"
		},
		{
			"inputs": [
				{
					"internalType": "uint256",
					"name": "",
					"type": "uint256"
				}
			],
			"name": "availableWorkers",
			"outputs": [
				{
					"internalType": "address",
					"name": "",
					"type": "address"
				}
			],
			"stateMutability": "view",
			"type": "function"
		},
		{
			"inputs": [
				{
					"internalType": "uint256",
					"name": "",
					"type": "uint256"
				}
			],
			"name": "busyWorkers",
			"outputs": [
				{
					"internalType": "address",
					"name": "",
					"type": "address"
				}
			],
			"stateMutability": "view",
			"type": "function"
		},
		{
			"inputs": [
				{
					"internalType": "uint256",
					"name": "_DataBatchId",
					"type": "uint256"
				},
				{
					"internalType": "bytes32",
					"name": "_secretIPFSHash",
					"type": "bytes32"
				},
				{
					"internalType": "uint256",
					"name": "_BatchCount",
					"type": "uint256"
				},
				{
					"internalType": "string",
					"name": "_From",
					"type": "string"
				},
				{
					"internalType": "string",
					"name": "_Status",
					"type": "string"
				}
			],
			"name": "commitFormatCheck",
			"outputs": [],
			"stateMutability": "nonpayable",
			"type": "function"
		},
		{
			"inputs": [
				{
					"internalType": "uint256",
					"name": "_DataBatchId",
					"type": "uint256"
				}
			],
			"name": "commitPeriodActive",
			"outputs": [
				{
					"internalType": "bool",
					"name": "active",
					"type": "bool"
				}
			],
			"stateMutability": "view",
			"type": "function"
		},
		{
			"inputs": [
				{
					"internalType": "uint256",
					"name": "_BatchId",
					"type": "uint256"
				}
			],
			"name": "deleteCollectedSpotBatch",
			"outputs": [],
			"stateMutability": "nonpayable",
			"type": "function"
		},
		{
			"inputs": [
				{
					"internalType": "uint256",
					"name": "_DataId",
					"type": "uint256"
				}
			],
			"name": "deleteData",
			"outputs": [],
			"stateMutability": "nonpayable",
			"type": "function"
		},
		{
			"inputs": [
				{
					"internalType": "uint256",
					"name": "_BatchId",
					"type": "uint256"
				}
			],
			"name": "deleteDataBatch",
			"outputs": [],
			"stateMutability": "nonpayable",
			"type": "function"
		},
		{
			"inputs": [
				{
					"internalType": "address",
					"name": "_voter",
					"type": "address"
				},
				{
					"internalType": "uint256",
					"name": "_DataBatchId",
					"type": "uint256"
				}
			],
			"name": "didCommit",
			"outputs": [
				{
					"internalType": "bool",
					"name": "committed",
					"type": "bool"
				}
			],
			"stateMutability": "view",
			"type": "function"
		},
		{
			"inputs": [
				{
					"internalType": "address",
					"name": "_voter",
					"type": "address"
				},
				{
					"internalType": "uint256",
					"name": "_DataBatchId",
					"type": "uint256"
				}
			],
			"name": "didReveal",
			"outputs": [
				{
					"internalType": "bool",
					"name": "revealed",
					"type": "bool"
				}
			],
			"stateMutability": "view",
			"type": "function"
		},
		{
			"inputs": [
				{
					"internalType": "uint256",
					"name": "_k",
					"type": "uint256"
				},
				{
					"internalType": "uint256",
					"name": "N_range",
					"type": "uint256"
				}
			],
			"name": "generateIntegers",
			"outputs": [
				{
					"internalType": "uint256[]",
					"name": "",
					"type": "uint256[]"
				}
			],
			"stateMutability": "view",
			"type": "function"
		},
		{
			"inputs": [],
			"name": "getAcceptedBatchesCount",
			"outputs": [
				{
					"internalType": "uint256",
					"name": "count",
					"type": "uint256"
				}
			],
			"stateMutability": "view",
			"type": "function"
		},
		{
			"inputs": [],
			"name": "getActiveWorkersCount",
			"outputs": [
				{
					"internalType": "uint256",
					"name": "numWorkers",
					"type": "uint256"
				}
			],
			"stateMutability": "view",
			"type": "function"
		},
		{
			"inputs": [
				{
					"internalType": "uint256",
					"name": "_DataBatchId",
					"type": "uint256"
				}
			],
			"name": "getBatchByID",
			"outputs": [
				{
					"components": [
						{
							"internalType": "uint256",
							"name": "start_idx",
							"type": "uint256"
						},
						{
							"internalType": "uint256",
							"name": "counter",
							"type": "uint256"
						},
						{
							"internalType": "uint256",
							"name": "uncommited_workers",
							"type": "uint256"
						},
						{
							"internalType": "uint256",
							"name": "unrevealed_workers",
							"type": "uint256"
						},
						{
							"internalType": "uint256",
							"name": "item_count",
							"type": "uint256"
						},
						{
							"internalType": "bool",
							"name": "complete",
							"type": "bool"
						},
						{
							"internalType": "bool",
							"name": "checked",
							"type": "bool"
						},
						{
							"internalType": "bool",
							"name": "allocated_to_work",
							"type": "bool"
						},
						{
							"internalType": "uint256",
							"name": "commitEndDate",
							"type": "uint256"
						},
						{
							"internalType": "uint256",
							"name": "revealEndDate",
							"type": "uint256"
						},
						{
							"internalType": "uint256",
							"name": "votesFor",
							"type": "uint256"
						},
						{
							"internalType": "uint256",
							"name": "votesAgainst",
							"type": "uint256"
						},
						{
							"internalType": "string",
							"name": "batchIPFSfile",
							"type": "string"
						},
						{
							"internalType": "enum DataFormatting.DataStatus",
							"name": "status",
							"type": "uint8"
						}
					],
					"internalType": "struct DataFormatting.BatchMetadata",
					"name": "batch",
					"type": "tuple"
				}
			],
			"stateMutability": "view",
			"type": "function"
		},
		{
			"inputs": [
				{
					"internalType": "uint256",
					"name": "_DataBatchId",
					"type": "uint256"
				}
			],
			"name": "getBatchIPFSFileByID",
			"outputs": [
				{
					"internalType": "string",
					"name": "batch",
					"type": "string"
				}
			],
			"stateMutability": "view",
			"type": "function"
		},
		{
			"inputs": [
				{
					"internalType": "address",
					"name": "_voter",
					"type": "address"
				},
				{
					"internalType": "uint256",
					"name": "_DataBatchId",
					"type": "uint256"
				}
			],
			"name": "getCommitHash",
			"outputs": [
				{
					"internalType": "bytes32",
					"name": "commitHash",
					"type": "bytes32"
				}
			],
			"stateMutability": "view",
			"type": "function"
		},
		{
			"inputs": [
				{
					"internalType": "uint256",
					"name": "_DataId",
					"type": "uint256"
				}
			],
			"name": "getDataByID",
			"outputs": [
				{
					"components": [
						{
							"internalType": "string",
							"name": "ipfs_hash",
							"type": "string"
						},
						{
							"internalType": "address",
							"name": "author",
							"type": "address"
						},
						{
							"internalType": "uint256",
							"name": "timestamp",
							"type": "uint256"
						},
						{
							"internalType": "enum DataFormatting.DataStatus",
							"name": "status",
							"type": "uint8"
						}
					],
					"internalType": "struct DataFormatting.FormattedData",
					"name": "data",
					"type": "tuple"
				}
			],
			"stateMutability": "view",
			"type": "function"
		},
		{
			"inputs": [
				{
					"internalType": "string",
					"name": "_hash",
					"type": "string"
				},
				{
					"internalType": "uint256",
					"name": "_salt",
					"type": "uint256"
				}
			],
			"name": "getEncryptedStringHash",
			"outputs": [
				{
					"internalType": "bytes32",
					"name": "keccak256hash",
					"type": "bytes32"
				}
			],
			"stateMutability": "pure",
			"type": "function"
		},
		{
			"inputs": [
				{
					"internalType": "uint256",
					"name": "_DataBatchId",
					"type": "uint256"
				}
			],
			"name": "getFromsForBatch",
			"outputs": [
				{
					"internalType": "string[]",
					"name": "",
					"type": "string[]"
				}
			],
			"stateMutability": "view",
			"type": "function"
		},
		{
			"inputs": [
				{
					"internalType": "uint256",
					"name": "_DataBatchId",
					"type": "uint256"
				}
			],
			"name": "getIPFShashesForBatch",
			"outputs": [
				{
					"internalType": "string[]",
					"name": "",
					"type": "string[]"
				}
			],
			"stateMutability": "view",
			"type": "function"
		},
		{
			"inputs": [
				{
					"internalType": "address",
					"name": "_voter",
					"type": "address"
				},
				{
					"internalType": "uint256",
					"name": "_numTokens",
					"type": "uint256"
				},
				{
					"internalType": "uint256",
					"name": "_DataBatchId",
					"type": "uint256"
				}
			],
			"name": "getInsertPointForNumTokens",
			"outputs": [
				{
					"internalType": "uint256",
					"name": "prevNode",
					"type": "uint256"
				}
			],
			"stateMutability": "view",
			"type": "function"
		},
		{
			"inputs": [],
			"name": "getLastAllocatedBatchId",
			"outputs": [
				{
					"internalType": "uint256",
					"name": "LastAllocatedBatchId",
					"type": "uint256"
				}
			],
			"stateMutability": "view",
			"type": "function"
		},
		{
			"inputs": [],
			"name": "getLastBatchId",
			"outputs": [
				{
					"internalType": "uint256",
					"name": "LastBatchId",
					"type": "uint256"
				}
			],
			"stateMutability": "view",
			"type": "function"
		},
		{
			"inputs": [],
			"name": "getLastCheckedBatchId",
			"outputs": [
				{
					"internalType": "uint256",
					"name": "LastCheckedBatchId",
					"type": "uint256"
				}
			],
			"stateMutability": "view",
			"type": "function"
		},
		{
			"inputs": [],
			"name": "getLastDataId",
			"outputs": [
				{
					"internalType": "uint256",
					"name": "DataId",
					"type": "uint256"
				}
			],
			"stateMutability": "view",
			"type": "function"
		},
		{
			"inputs": [
				{
					"internalType": "address",
					"name": "_voter",
					"type": "address"
				}
			],
			"name": "getLastNode",
			"outputs": [
				{
					"internalType": "uint256",
					"name": "DataID",
					"type": "uint256"
				}
			],
			"stateMutability": "view",
			"type": "function"
		},
		{
			"inputs": [
				{
					"internalType": "address",
					"name": "_voter",
					"type": "address"
				}
			],
			"name": "getLockedTokens",
			"outputs": [
				{
					"internalType": "uint256",
					"name": "numTokens",
					"type": "uint256"
				}
			],
			"stateMutability": "view",
			"type": "function"
		},
		{
			"inputs": [],
			"name": "getMySystemTokenBalance",
			"outputs": [
				{
					"internalType": "uint256",
					"name": "tokens",
					"type": "uint256"
				}
			],
			"stateMutability": "view",
			"type": "function"
		},
		{
			"inputs": [
				{
					"internalType": "address",
					"name": "_voter",
					"type": "address"
				},
				{
					"internalType": "uint256",
					"name": "_DataBatchId",
					"type": "uint256"
				},
				{
					"internalType": "uint256",
					"name": "_salt",
					"type": "uint256"
				}
			],
			"name": "getNumPassingTokens",
			"outputs": [
				{
					"internalType": "uint256",
					"name": "correctFormatChecks",
					"type": "uint256"
				}
			],
			"stateMutability": "view",
			"type": "function"
		},
		{
			"inputs": [
				{
					"internalType": "address",
					"name": "_voter",
					"type": "address"
				},
				{
					"internalType": "uint256",
					"name": "_DataBatchId",
					"type": "uint256"
				}
			],
			"name": "getNumTokens",
			"outputs": [
				{
					"internalType": "uint256",
					"name": "numTokens",
					"type": "uint256"
				}
			],
			"stateMutability": "view",
			"type": "function"
		},
		{
			"inputs": [],
			"name": "getRandom",
			"outputs": [
				{
					"internalType": "uint256",
					"name": "",
					"type": "uint256"
				}
			],
			"stateMutability": "view",
			"type": "function"
		},
		{
			"inputs": [],
			"name": "getRejectedBatchesCount",
			"outputs": [
				{
					"internalType": "uint256",
					"name": "count",
					"type": "uint256"
				}
			],
			"stateMutability": "view",
			"type": "function"
		},
		{
			"inputs": [],
			"name": "getSeed",
			"outputs": [
				{
					"internalType": "bytes32",
					"name": "addr",
					"type": "bytes32"
				}
			],
			"stateMutability": "view",
			"type": "function"
		},
		{
			"inputs": [
				{
					"internalType": "uint256",
					"name": "_DataBatchId",
					"type": "uint256"
				}
			],
			"name": "getStatusForBatch",
			"outputs": [
				{
					"internalType": "string[]",
					"name": "",
					"type": "string[]"
				}
			],
			"stateMutability": "view",
			"type": "function"
		},
		{
			"inputs": [
				{
					"internalType": "uint256",
					"name": "_DataBatchId",
					"type": "uint256"
				}
			],
			"name": "getSubmittedFilesForBatch",
			"outputs": [
				{
					"internalType": "string[]",
					"name": "",
					"type": "string[]"
				}
			],
			"stateMutability": "view",
			"type": "function"
		},
		{
			"inputs": [
				{
					"internalType": "address",
					"name": "_user",
					"type": "address"
				}
			],
			"name": "getSystemTokenBalance",
			"outputs": [
				{
					"internalType": "uint256",
					"name": "tokens",
					"type": "uint256"
				}
			],
			"stateMutability": "view",
			"type": "function"
		},
		{
			"inputs": [
				{
					"internalType": "uint256",
					"name": "_DataBatchId",
					"type": "uint256"
				}
			],
			"name": "getTotalNumberOfFormatChecks",
			"outputs": [
				{
					"internalType": "uint256",
					"name": "vc",
					"type": "uint256"
				}
			],
			"stateMutability": "view",
			"type": "function"
		},
		{
			"inputs": [],
			"name": "getTxCounter",
			"outputs": [
				{
					"internalType": "uint256",
					"name": "Counter",
					"type": "uint256"
				}
			],
			"stateMutability": "view",
			"type": "function"
		},
		{
			"inputs": [
				{
					"internalType": "uint256",
					"name": "_DataBatchId",
					"type": "uint256"
				}
			],
			"name": "getVotesForBatch",
			"outputs": [
				{
					"internalType": "uint256[]",
					"name": "",
					"type": "uint256[]"
				}
			],
			"stateMutability": "view",
			"type": "function"
		},
		{
			"inputs": [
				{
					"internalType": "uint256",
					"name": "_terminationDate",
					"type": "uint256"
				}
			],
			"name": "isExpired",
			"outputs": [
				{
					"internalType": "bool",
					"name": "expired",
					"type": "bool"
				}
			],
			"stateMutability": "view",
			"type": "function"
		},
		{
			"inputs": [
				{
					"internalType": "uint256",
					"name": "_DataBatchId",
					"type": "uint256"
				}
			],
			"name": "isPassed",
			"outputs": [
				{
					"internalType": "bool",
					"name": "passed",
					"type": "bool"
				}
			],
			"stateMutability": "view",
			"type": "function"
		},
		{
			"inputs": [
				{
					"internalType": "uint256",
					"name": "_DataBatchId",
					"type": "uint256"
				},
				{
					"internalType": "address",
					"name": "_worker",
					"type": "address"
				}
			],
			"name": "isWorkerAllocatedToBatch",
			"outputs": [
				{
					"internalType": "bool",
					"name": "",
					"type": "bool"
				}
			],
			"stateMutability": "view",
			"type": "function"
		},
		{
			"inputs": [
				{
					"internalType": "address",
					"name": "_worker",
					"type": "address"
				}
			],
			"name": "isWorkerRegistered",
			"outputs": [
				{
					"internalType": "bool",
					"name": "passed",
					"type": "bool"
				}
			],
			"stateMutability": "view",
			"type": "function"
		},
		{
			"inputs": [],
			"name": "owner",
			"outputs": [
				{
					"internalType": "address",
					"name": "",
					"type": "address"
				}
			],
			"stateMutability": "view",
			"type": "function"
		},
		{
			"inputs": [
				{
					"internalType": "uint256",
					"name": "k",
					"type": "uint256"
				},
				{
					"internalType": "uint256",
					"name": "N",
					"type": "uint256"
				}
			],
			"name": "random_selection",
			"outputs": [
				{
					"internalType": "uint256[]",
					"name": "",
					"type": "uint256[]"
				}
			],
			"stateMutability": "view",
			"type": "function"
		},
		{
			"inputs": [],
			"name": "renounceOwnership",
			"outputs": [],
			"stateMutability": "nonpayable",
			"type": "function"
		},
		{
			"inputs": [
				{
					"internalType": "uint256",
					"name": "_DataBatchId",
					"type": "uint256"
				}
			],
			"name": "rescueTokens",
			"outputs": [],
			"stateMutability": "nonpayable",
			"type": "function"
		},
		{
			"inputs": [
				{
					"internalType": "uint256[]",
					"name": "_DataBatchIDs",
					"type": "uint256[]"
				}
			],
			"name": "rescueTokensInMultipleDatas",
			"outputs": [],
			"stateMutability": "nonpayable",
			"type": "function"
		},
		{
			"inputs": [
				{
					"internalType": "uint256",
					"name": "_DataBatchId",
					"type": "uint256"
				},
				{
					"internalType": "uint256",
					"name": "_voteOption",
					"type": "uint256"
				},
				{
					"internalType": "string",
					"name": "_clearIPFSHash",
					"type": "string"
				},
				{
					"internalType": "uint256",
					"name": "_salt",
					"type": "uint256"
				}
			],
			"name": "revealFormatCheck",
			"outputs": [],
			"stateMutability": "nonpayable",
			"type": "function"
		},
		{
			"inputs": [
				{
					"internalType": "uint256",
					"name": "_DataBatchId",
					"type": "uint256"
				}
			],
			"name": "revealPeriodActive",
			"outputs": [
				{
					"internalType": "bool",
					"name": "active",
					"type": "bool"
				}
			],
			"stateMutability": "view",
			"type": "function"
		},
		{
			"inputs": [],
			"name": "sFuel",
			"outputs": [
				{
					"internalType": "address",
					"name": "",
					"type": "address"
				}
			],
			"stateMutability": "view",
			"type": "function"
		},
		{
			"inputs": [
				{
					"internalType": "uint256",
					"name": "N",
					"type": "uint256"
				}
			],
			"name": "shuffle_array",
			"outputs": [
				{
					"internalType": "uint256[]",
					"name": "",
					"type": "uint256[]"
				}
			],
			"stateMutability": "view",
			"type": "function"
		},
		{
			"inputs": [
				{
					"internalType": "uint256",
					"name": "",
					"type": "uint256"
				}
			],
			"name": "toUnregisterWorkers",
			"outputs": [
				{
					"internalType": "address",
					"name": "",
					"type": "address"
				}
			],
			"stateMutability": "view",
			"type": "function"
		},
		{
			"inputs": [],
			"name": "token",
			"outputs": [
				{
					"internalType": "contract IERC20",
					"name": "",
					"type": "address"
				}
			],
			"stateMutability": "view",
			"type": "function"
		},
		{
			"inputs": [
				{
					"internalType": "address",
					"name": "newOwner",
					"type": "address"
				}
			],
			"name": "transferOwnership",
			"outputs": [],
			"stateMutability": "nonpayable",
			"type": "function"
		},
		{
			"inputs": [
				{
					"internalType": "address",
					"name": "addr",
					"type": "address"
				}
			],
			"name": "updateAddressManager",
			"outputs": [],
			"stateMutability": "nonpayable",
			"type": "function"
		},
		{
			"inputs": [
				{
					"internalType": "address",
					"name": "addr",
					"type": "address"
				}
			],
			"name": "updateArchiveManager",
			"outputs": [],
			"stateMutability": "nonpayable",
			"type": "function"
		},
		{
			"inputs": [
				{
					"internalType": "address",
					"name": "addr",
					"type": "address"
				}
			],
			"name": "updateParametersManager",
			"outputs": [],
			"stateMutability": "nonpayable",
			"type": "function"
		},
		{
			"inputs": [
				{
					"internalType": "address",
					"name": "addr",
					"type": "address"
				}
			],
			"name": "updateRepManager",
			"outputs": [],
			"stateMutability": "nonpayable",
			"type": "function"
		},
		{
			"inputs": [
				{
					"internalType": "address",
					"name": "addr",
					"type": "address"
				}
			],
			"name": "updateRewardManager",
			"outputs": [],
			"stateMutability": "nonpayable",
			"type": "function"
		},
		{
			"inputs": [
				{
					"internalType": "address",
					"name": "addr",
					"type": "address"
				}
			],
			"name": "updateSpotManager",
			"outputs": [],
			"stateMutability": "nonpayable",
			"type": "function"
		},
		{
			"inputs": [
				{
					"internalType": "address",
					"name": "addr",
					"type": "address"
				}
			],
			"name": "updateStakeManager",
			"outputs": [],
			"stateMutability": "nonpayable",
			"type": "function"
		},
		{
			"inputs": [
				{
					"internalType": "address",
					"name": "_sFuel",
					"type": "address"
				}
			],
			"name": "updatesFuelFaucet",
			"outputs": [],
			"stateMutability": "nonpayable",
			"type": "function"
		},
		{
			"inputs": [
				{
					"internalType": "uint256",
					"name": "_prevID",
					"type": "uint256"
				},
				{
					"internalType": "uint256",
					"name": "_nextID",
					"type": "uint256"
				},
				{
					"internalType": "address",
					"name": "_voter",
					"type": "address"
				},
				{
					"internalType": "uint256",
					"name": "_numTokens",
					"type": "uint256"
				}
			],
			"name": "validPosition",
			"outputs": [
				{
					"internalType": "bool",
					"name": "APPROVED",
					"type": "bool"
				}
			],
			"stateMutability": "view",
			"type": "function"
		},
		{
			"inputs": [
				{
					"internalType": "uint256",
					"name": "_numTokens",
					"type": "uint256"
				}
			],
			"name": "withdrawVotingRights",
			"outputs": [],
			"stateMutability": "nonpayable",
			"type": "function"
		}
	]
}