{
	"data": {
		"bytecode": {
			"linkReferences": {},
			"object": "608060405260006002819055600980546001600160a01b0319167314f52f3fc010ab6ca81568d4a6794d5eab3c61551790556001600a819055600b819055600c55600d553480156200005057600080fd5b50604051620020fe380380620020fe83398101604081905262000073916200012f565b6200008762000081620000be565b620000c2565b600e80546001600160a01b039384166001600160a01b03199182161790915560138054929093169116179055600060025562000166565b3390565b600080546001600160a01b038381166001600160a01b0319831681178455604051919092169283917f8be0079c531659141344cd1fd0a4f28419497f9722a3daafe3b4186f6b6457e09190a35050565b80516001600160a01b03811681146200012a57600080fd5b919050565b6000806040838503121562000142578182fd5b6200014d8362000112565b91506200015d6020840162000112565b90509250929050565b611f8880620001766000396000f3fe608060405234801561001057600080fd5b50600436106102695760003560e01c8063a16a11e011610151578063dd618682116100c3578063f2722a9f11610087578063f2722a9f146104d9578063f2d9e74d146104f9578063f2fde38b14610501578063f5ae7c7d14610514578063f721de4a1461051c578063fc0c546a1461052f57610269565b8063dd61868214610478578063df05368e1461048b578063e44c974b1461049e578063e4e6025e146104b1578063ef4fcdad146104d157610269565b8063b1d7ea9811610115578063b1d7ea9814610404578063b8f011b314610424578063c47c4bc214610437578063ced5ca6f1461044a578063d6b0206c1461045d578063d822ce011461046557610269565b8063a16a11e0146103c6578063a511dba0146103d9578063a9057790146103e1578063aacc5a17146103f4578063ab43e78d146103fc57610269565b8063715018a6116101ea5780638473850b116101ae5780638473850b146103655780638cbdab3c1461036d5780638d289f8f146103905780638da5cb5b146103985780638df0296e146103a0578063a1103f37146103b357610269565b8063715018a614610332578063796b89b91461033a5780637a34da6714610342578063821aa8c01461034a57806383cc6ef21461035d57610269565b8063353f44d011610231578063353f44d0146102e957806339e7357c146102fc57806348257dc9146103045780634fe8b4c11461031757806351912f291461032a57610269565b8063050eb2eb1461026e5780630e6661a714610283578063171ee06a146102a157806329a47bc7146102c15780633538af82146102d6575b600080fd5b61028161027c366004611912565b610537565b005b61028b6105a1565b6040516102989190611bb5565b60405180910390f35b6102b46102af366004611aef565b6105a7565b6040516102989190611c40565b6102c96105bc565b6040516102989190611be8565b6102c96102e4366004611aef565b6105cb565b61028b6102f7366004611912565b6105f5565b61028b610607565b6102b4610312366004611aef565b610624565b610281610325366004611aef565b6108e1565b6102c9610961565b610281610970565b61028b6109bb565b6102c96109bf565b6102c9610358366004611aef565b6109ce565b6102c96109de565b61028b6109ed565b61038061037b366004611aef565b6109f3565b6040516102989493929190611c88565b6102c9610ab2565b6102c9610ac1565b6102c96103ae366004611b07565b610ad0565b61028b6103c1366004611933565b610b08565b6102816103d4366004611912565b610b3c565b61028b610b9d565b6102b46103ef366004611976565b610ba3565b61028b610c09565b6102c9610cbe565b610417610412366004611b07565b610ccd565b6040516102989190611bfc565b610417610432366004611b07565b610ed5565b610281610445366004611912565b61103f565b610281610458366004611aef565b6110a0565b61028b611110565b6102c9610473366004611933565b611116565b610281610486366004611912565b611132565b610281610499366004611912565b611193565b6104176104ac366004611aef565b6111f4565b6104c46104bf366004611aef565b61126e565b6040516102989190611c4b565b61028b61131d565b6104ec6104e7366004611aef565b611323565b6040516102989190611d8d565b61028b611455565b61028161050f366004611912565b61145b565b61028b6114c9565b6102b461052a366004611aef565b6114cf565b6102c96114d7565b61053f6114e6565b6001600160a01b0316610550610ac1565b6001600160a01b03161461057f5760405162461bcd60e51b815260040161057690611d58565b60405180910390fd5b601180546001600160a01b0319166001600160a01b0392909216919091179055565b60025481565b60016020526000908152604090205460ff1681565b6010546001600160a01b031681565b600681815481106105db57600080fd5b6000918252602090912001546001600160a01b0316905081565b60046020526000908152604090205481565b60405160009080602081848060185afa61061d57fe5b5051919050565b6013546000906001600160a01b031615801590610650575060008281526001602052604090205460ff16155b156108bf57601354604051637b90ef2560e11b81526001600160a01b039091169063f721de4a90610685908590600401611bb5565b602060405180830381600087803b15801561069f57600080fd5b505af11580156106b3573d6000803e3d6000fd5b505050506040513d601f19601f820116820180604052508101906106d7919061195c565b156108bf57601354604051631b308bf760e31b81526000916001600160a01b03169063d9845fb89061070d908690600401611bb5565b600060405180830381600087803b15801561072757600080fd5b505af115801561073b573d6000803e3d6000fd5b505050506040513d6000823e601f3d908101601f1916820160405261076391908101906119d7565b6101a0810151909150600181600381111561078e57634e487b7160e01b600052602160045260246000fd5b14156108a0576040805160808101825261018084015181523360208083019190915242828401526000606083018190526002548152600382529290922081518051929391926107e09284920190611724565b506020820151600182810180546001600160a01b0319166001600160a01b0390931692909217909155604083015160028301556060830151600380840180549293909260ff191691849081111561084757634e487b7160e01b600052602160045260246000fd5b02179055505060025461085c91506001611e33565b60028190556101808301516040517f43ecb46cb5c77906888a0ab6a09798cb7feff11e826edd3ba74fada241e3a64691610897913390611c5e565b60405180910390a25b50506000828152600160208190526040909120805460ff191690911790555b6001600d60008282546108d29190611e33565b9091555060009150505b919050565b6108e96114e6565b6001600160a01b03166108fa610ac1565b6001600160a01b0316146109205760405162461bcd60e51b815260040161057690611d58565b60008181526003602052604081209061093982826117a8565b506001810180546001600160a01b031916905560006002820155600301805460ff1916905550565b6011546001600160a01b031681565b6109786114e6565b6001600160a01b0316610989610ac1565b6001600160a01b0316146109af5760405162461bcd60e51b815260040161057690611d58565b6109b960006114ea565b565b4290565b6012546001600160a01b031681565b600781815481106105db57600080fd5b600f546001600160a01b031681565b600a5481565b600360205260009081526040902080548190610a0e90611ea6565b80601f0160208091040260200160405190810160405280929190818152602001828054610a3a90611ea6565b8015610a875780601f10610a5c57610100808354040283529160200191610a87565b820191906000526020600020905b815481529060010190602001808311610a6a57829003601f168201915b505050506001830154600284015460039094015492936001600160a01b039091169290915060ff1684565b6013546001600160a01b031681565b6000546001600160a01b031690565b60086020528160005260406000208181548110610aec57600080fd5b6000918252602090912001546001600160a01b03169150829050565b60008282604051602001610b1d929190611b93565b6040516020818303038152906040528051906020012090505b92915050565b610b446114e6565b6001600160a01b0316610b55610ac1565b6001600160a01b031614610b7b5760405162461bcd60e51b815260040161057690611d58565b601380546001600160a01b0319166001600160a01b0392909216919091179055565b60025490565b600081604051602001610bb69190611bbe565b6040516020818303038152906040528051906020012083604051602001610bdd9190611bbe565b604051602081830303815290604052805190602001201415610c0157506001610b36565b506000610b36565b6000804241604051602001610c1e9190611b76565b6040516020818303038152906040528051906020012060001c610c419190611e4b565b44610c4a610607565b604051602001610c5a9190611bb5565b60408051601f198184030181529190528051602090910120610c7c9042611e33565b610c869190611e33565b610c909190611e33565b604051602001610ca09190611bb5565b60408051601f19818403018152919052805160209091012091505090565b6009546001600160a01b031681565b606060008211610cdc57600080fd5b600041604051602001610cef9190611b76565b6040516020818303038152906040528051906020012060001c610d10610607565b604051602001610d209190611bb5565b60408051601f198184030181529190528051602090910120610d429042611e33565b610d4c9190611e33565b604051602001610d5c9190611bb5565b6040516020818303038152906040528051906020012060001c905060008467ffffffffffffffff811115610da057634e487b7160e01b600052604160045260246000fd5b604051908082528060200260200182016040528015610dc9578160200160208202803683370190505b5090506000805b86821015610eca57600086610de963017efeeb87611e5f565b83604051602001610dfb929190611bda565b6040516020818303038152906040528051906020012060001c610e1e9190611efc565b90506000805b84811015610e765782868281518110610e4d57634e487b7160e01b600052603260045260246000fd5b60200260200101511415610e645760019150610e76565b80610e6e81611ee1565b915050610e24565b5080610eb65781858581518110610e9d57634e487b7160e01b600052603260045260246000fd5b6020908102919091010152610eb3846001611e33565b93505b610ec1836001611e33565b92505050610dd0565b509095945050505050565b6060600082118015610ee75750818311155b8015610ef4575060018310155b610f105760405162461bcd60e51b815260040161057690611d0f565b60008267ffffffffffffffff811115610f3957634e487b7160e01b600052604160045260246000fd5b604051908082528060200260200182016040528015610f62578160200160208202803683370190505b50905060008467ffffffffffffffff811115610f8e57634e487b7160e01b600052604160045260246000fd5b604051908082528060200260200182016040528015610fb7578160200160208202803683370190505b5090506000610fcd610fc88461153a565b611590565b905060005b86811015610eca57818181518110610ffa57634e487b7160e01b600052603260045260246000fd5b602002602001015183828151811061102257634e487b7160e01b600052603260045260246000fd5b60209081029190910101528061103781611ee1565b915050610fd2565b6110476114e6565b6001600160a01b0316611058610ac1565b6001600160a01b03161461107e5760405162461bcd60e51b815260040161057690611d58565b601280546001600160a01b0319166001600160a01b0392909216919091179055565b6110a86114e6565b6001600160a01b03166110b9610ac1565b6001600160a01b0316146110df5760405162461bcd60e51b815260040161057690611d58565b60008181526001602052604090205460ff161561110d576000818152600160205260409020805460ff191690555b50565b600c5481565b60056020528160005260406000208181548110610aec57600080fd5b61113a6114e6565b6001600160a01b031661114b610ac1565b6001600160a01b0316146111715760405162461bcd60e51b815260040161057690611d58565b601080546001600160a01b0319166001600160a01b0392909216919091179055565b61119b6114e6565b6001600160a01b03166111ac610ac1565b6001600160a01b0316146111d25760405162461bcd60e51b815260040161057690611d58565b600f80546001600160a01b0319166001600160a01b0392909216919091179055565b60606000821161120357600080fd5b60008267ffffffffffffffff81111561122c57634e487b7160e01b600052604160045260246000fd5b604051908082528060200260200182016040528015611255578160200160208202803683370190505b5090506000611266610fc88361153a565b949350505050565b606060025482111561127f57600080fd5b6000828152600360205260409020805461129890611ea6565b80601f01602080910402602001604051908101604052809291908181526020018280546112c490611ea6565b80156113115780601f106112e657610100808354040283529160200191611311565b820191906000526020600020905b8154815290600101906020018083116112f457829003601f168201915b50505050509050919050565b600b5481565b61132b6117e4565b60025482111561133a57600080fd5b6000828152600360205260409081902081516080810190925280548290829061136290611ea6565b80601f016020809104026020016040519081016040528092919081815260200182805461138e90611ea6565b80156113db5780601f106113b0576101008083540402835291602001916113db565b820191906000526020600020905b8154815290600101906020018083116113be57829003601f168201915b505050918352505060018201546001600160a01b031660208201526002820154604082015260038083015460609092019160ff169081111561142d57634e487b7160e01b600052602160045260246000fd5b600381111561144c57634e487b7160e01b600052602160045260246000fd5b90525092915050565b600d5481565b6114636114e6565b6001600160a01b0316611474610ac1565b6001600160a01b03161461149a5760405162461bcd60e51b815260040161057690611d58565b6001600160a01b0381166114c05760405162461bcd60e51b815260040161057690611cc9565b61110d816114ea565b600d5490565b600254101590565b600e546001600160a01b031681565b3390565b600080546001600160a01b038381166001600160a01b0319831681178455604051919092169283917f8be0079c531659141344cd1fd0a4f28419497f9722a3daafe3b4186f6b6457e09190a35050565b805160609060005b81811015611588578084828151811061156b57634e487b7160e01b600052603260045260246000fd5b60209081029190910101528061158081611ee1565b915050611542565b509192915050565b606060008251116115a057600080fd5b81518060005b8181101561171b576000836115b9610c09565b8784815181106115d957634e487b7160e01b600052603260045260246000fd5b60200260200101516040516020016115f2929190611bda565b6040516020818303038152906040528051906020012060001c6116159190611efc565b611620906001611e33565b9050600086611630600184611e5f565b8151811061164e57634e487b7160e01b600052603260045260246000fd5b60200260200101519050866001866116669190611e5f565b8151811061168457634e487b7160e01b600052603260045260246000fd5b60200260200101518760018461169a9190611e5f565b815181106116b857634e487b7160e01b600052603260045260246000fd5b602090810291909101015280876116d0600188611e5f565b815181106116ee57634e487b7160e01b600052603260045260246000fd5b6020908102919091010152611704600186611e5f565b94505050808061171390611ee1565b9150506115a6565b50929392505050565b82805461173090611ea6565b90600052602060002090601f0160209004810192826117525760008555611798565b82601f1061176b57805160ff1916838001178555611798565b82800160010185558215611798579182015b8281111561179857825182559160200191906001019061177d565b506117a4929150611833565b5090565b5080546117b490611ea6565b6000825580601f106117c6575061110d565b601f01602090049060005260206000209081019061110d9190611833565b60405180608001604052806060815260200160006001600160a01b03168152602001600081526020016000600381111561182e57634e487b7160e01b600052602160045260246000fd5b905290565b5b808211156117a45760008155600101611834565b80356001600160a01b03811681146108dc57600080fd5b805180151581146108dc57600080fd5b8051600481106108dc57600080fd5b600082601f83011261188e578081fd5b81356118a161189c82611e0b565b611de1565b8181528460208386010111156118b5578283fd5b816020850160208301379081016020019190915292915050565b600082601f8301126118df578081fd5b81516118ed61189c82611e0b565b818152846020838601011115611901578283fd5b611266826020830160208701611e76565b600060208284031215611923578081fd5b61192c82611848565b9392505050565b60008060408385031215611945578081fd5b61194e83611848565b946020939093013593505050565b60006020828403121561196d578081fd5b61192c8261185f565b60008060408385031215611988578182fd5b823567ffffffffffffffff8082111561199f578384fd5b6119ab8683870161187e565b935060208501359150808211156119c0578283fd5b506119cd8582860161187e565b9150509250929050565b6000602082840312156119e8578081fd5b815167ffffffffffffffff808211156119ff578283fd5b81840191506101c0808387031215611a15578384fd5b611a1e81611de1565b90508251815260208301516020820152604083015160408201526060830151606082015260808301516080820152611a5860a0840161185f565b60a0820152611a6960c0840161185f565b60c0820152611a7a60e0840161185f565b60e082015261010083810151908201526101208084015190820152610140808401519082015261016080840151908201526101808084015183811115611abe578586fd5b611aca888287016118cf565b8284015250506101a09150611ae082840161186f565b91810191909152949350505050565b600060208284031215611b00578081fd5b5035919050565b60008060408385031215611b19578182fd5b50508035926020909101359150565b60048110611b4657634e487b7160e01b600052602160045260246000fd5b9052565b60008151808452611b62816020860160208601611e76565b601f01601f19169290920160200192915050565b60609190911b6bffffffffffffffffffffffff1916815260140190565b60609290921b6bffffffffffffffffffffffff19168252601482015260340190565b90815260200190565b60008251611bd0818460208701611e76565b9190910192915050565b918252602082015260400190565b6001600160a01b0391909116815260200190565b6020808252825182820181905260009190848201906040850190845b81811015611c3457835183529284019291840191600101611c18565b50909695505050505050565b901515815260200190565b60006020825261192c6020830184611b4a565b600060408252611c716040830185611b4a565b905060018060a01b03831660208301529392505050565b600060808252611c9b6080830187611b4a565b6001600160a01b0386166020840152604083018590529050611cc06060830184611b28565b95945050505050565b60208082526026908201527f4f776e61626c653a206e6577206f776e657220697320746865207a65726f206160408201526564647265737360d01b606082015260800190565b60208082526029908201527f6b206f72204e20617265206e6f74204f4b20647572696e672072616e646f6d2060408201526839b2b632b1ba34b7b760b91b606082015260800190565b6020808252818101527f4f776e61626c653a2063616c6c6572206973206e6f7420746865206f776e6572604082015260600190565b600060208252825160806020840152611da960a0840182611b4a565b905060018060a01b036020850151166040840152604084015160608401526060840151611dd96080850182611b28565b509392505050565b60405181810167ffffffffffffffff81118282101715611e0357611e03611f3c565b604052919050565b600067ffffffffffffffff821115611e2557611e25611f3c565b50601f01601f191660200190565b60008219821115611e4657611e46611f10565b500190565b600082611e5a57611e5a611f26565b500490565b600082821015611e7157611e71611f10565b500390565b60005b83811015611e91578181015183820152602001611e79565b83811115611ea0576000848401525b50505050565b600281046001821680611eba57607f821691505b60208210811415611edb57634e487b7160e01b600052602260045260246000fd5b50919050565b6000600019821415611ef557611ef5611f10565b5060010190565b600082611f0b57611f0b611f26565b500690565b634e487b7160e01b600052601160045260246000fd5b634e487b7160e01b600052601260045260246000fd5b634e487b7160e01b600052604160045260246000fdfea2646970667358221220a350b18879d3052bc0fc1271a62bfe107979adbb26afcfeb61eaad098c88168164736f6c63430008000033",
			"opcodes": "PUSH1 0x80 PUSH1 0x40 MSTORE PUSH1 0x0 PUSH1 0x2 DUP2 SWAP1 SSTORE PUSH1 0x9 DUP1 SLOAD PUSH1 0x1 PUSH1 0x1 PUSH1 0xA0 SHL SUB NOT AND PUSH20 0x14F52F3FC010AB6CA81568D4A6794D5EAB3C6155 OR SWAP1 SSTORE PUSH1 0x1 PUSH1 0xA DUP2 SWAP1 SSTORE PUSH1 0xB DUP2 SWAP1 SSTORE PUSH1 0xC SSTORE PUSH1 0xD SSTORE CALLVALUE DUP1 ISZERO PUSH3 0x50 JUMPI PUSH1 0x0 DUP1 REVERT JUMPDEST POP PUSH1 0x40 MLOAD PUSH3 0x20FE CODESIZE SUB DUP1 PUSH3 0x20FE DUP4 CODECOPY DUP2 ADD PUSH1 0x40 DUP2 SWAP1 MSTORE PUSH3 0x73 SWAP2 PUSH3 0x12F JUMP JUMPDEST PUSH3 0x87 PUSH3 0x81 PUSH3 0xBE JUMP JUMPDEST PUSH3 0xC2 JUMP JUMPDEST PUSH1 0xE DUP1 SLOAD PUSH1 0x1 PUSH1 0x1 PUSH1 0xA0 SHL SUB SWAP4 DUP5 AND PUSH1 0x1 PUSH1 0x1 PUSH1 0xA0 SHL SUB NOT SWAP2 DUP3 AND OR SWAP1 SWAP2 SSTORE PUSH1 0x13 DUP1 SLOAD SWAP3 SWAP1 SWAP4 AND SWAP2 AND OR SWAP1 SSTORE PUSH1 0x0 PUSH1 0x2 SSTORE PUSH3 0x166 JUMP JUMPDEST CALLER SWAP1 JUMP JUMPDEST PUSH1 0x0 DUP1 SLOAD PUSH1 0x1 PUSH1 0x1 PUSH1 0xA0 SHL SUB DUP4 DUP2 AND PUSH1 0x1 PUSH1 0x1 PUSH1 0xA0 SHL SUB NOT DUP4 AND DUP2 OR DUP5 SSTORE PUSH1 0x40 MLOAD SWAP2 SWAP1 SWAP3 AND SWAP3 DUP4 SWAP2 PUSH32 0x8BE0079C531659141344CD1FD0A4F28419497F9722A3DAAFE3B4186F6B6457E0 SWAP2 SWAP1 LOG3 POP POP JUMP JUMPDEST DUP1 MLOAD PUSH1 0x1 PUSH1 0x1 PUSH1 0xA0 SHL SUB DUP2 AND DUP2 EQ PUSH3 0x12A JUMPI PUSH1 0x0 DUP1 REVERT JUMPDEST SWAP2 SWAP1 POP JUMP JUMPDEST PUSH1 0x0 DUP1 PUSH1 0x40 DUP4 DUP6 SUB SLT ISZERO PUSH3 0x142 JUMPI DUP2 DUP3 REVERT JUMPDEST PUSH3 0x14D DUP4 PUSH3 0x112 JUMP JUMPDEST SWAP2 POP PUSH3 0x15D PUSH1 0x20 DUP5 ADD PUSH3 0x112 JUMP JUMPDEST SWAP1 POP SWAP3 POP SWAP3 SWAP1 POP JUMP JUMPDEST PUSH2 0x1F88 DUP1 PUSH3 0x176 PUSH1 0x0 CODECOPY PUSH1 0x0 RETURN INVALID PUSH1 0x80 PUSH1 0x40 MSTORE CALLVALUE DUP1 ISZERO PUSH2 0x10 JUMPI PUSH1 0x0 DUP1 REVERT JUMPDEST POP PUSH1 0x4 CALLDATASIZE LT PUSH2 0x269 JUMPI PUSH1 0x0 CALLDATALOAD PUSH1 0xE0 SHR DUP1 PUSH4 0xA16A11E0 GT PUSH2 0x151 JUMPI DUP1 PUSH4 0xDD618682 GT PUSH2 0xC3 JUMPI DUP1 PUSH4 0xF2722A9F GT PUSH2 0x87 JUMPI DUP1 PUSH4 0xF2722A9F EQ PUSH2 0x4D9 JUMPI DUP1 PUSH4 0xF2D9E74D EQ PUSH2 0x4F9 JUMPI DUP1 PUSH4 0xF2FDE38B EQ PUSH2 0x501 JUMPI DUP1 PUSH4 0xF5AE7C7D EQ PUSH2 0x514 JUMPI DUP1 PUSH4 0xF721DE4A EQ PUSH2 0x51C JUMPI DUP1 PUSH4 0xFC0C546A EQ PUSH2 0x52F JUMPI PUSH2 0x269 JUMP JUMPDEST DUP1 PUSH4 0xDD618682 EQ PUSH2 0x478 JUMPI DUP1 PUSH4 0xDF05368E EQ PUSH2 0x48B JUMPI DUP1 PUSH4 0xE44C974B EQ PUSH2 0x49E JUMPI DUP1 PUSH4 0xE4E6025E EQ PUSH2 0x4B1 JUMPI DUP1 PUSH4 0xEF4FCDAD EQ PUSH2 0x4D1 JUMPI PUSH2 0x269 JUMP JUMPDEST DUP1 PUSH4 0xB1D7EA98 GT PUSH2 0x115 JUMPI DUP1 PUSH4 0xB1D7EA98 EQ PUSH2 0x404 JUMPI DUP1 PUSH4 0xB8F011B3 EQ PUSH2 0x424 JUMPI DUP1 PUSH4 0xC47C4BC2 EQ PUSH2 0x437 JUMPI DUP1 PUSH4 0xCED5CA6F EQ PUSH2 0x44A JUMPI DUP1 PUSH4 0xD6B0206C EQ PUSH2 0x45D JUMPI DUP1 PUSH4 0xD822CE01 EQ PUSH2 0x465 JUMPI PUSH2 0x269 JUMP JUMPDEST DUP1 PUSH4 0xA16A11E0 EQ PUSH2 0x3C6 JUMPI DUP1 PUSH4 0xA511DBA0 EQ PUSH2 0x3D9 JUMPI DUP1 PUSH4 0xA9057790 EQ PUSH2 0x3E1 JUMPI DUP1 PUSH4 0xAACC5A17 EQ PUSH2 0x3F4 JUMPI DUP1 PUSH4 0xAB43E78D EQ PUSH2 0x3FC JUMPI PUSH2 0x269 JUMP JUMPDEST DUP1 PUSH4 0x715018A6 GT PUSH2 0x1EA JUMPI DUP1 PUSH4 0x8473850B GT PUSH2 0x1AE JUMPI DUP1 PUSH4 0x8473850B EQ PUSH2 0x365 JUMPI DUP1 PUSH4 0x8CBDAB3C EQ PUSH2 0x36D JUMPI DUP1 PUSH4 0x8D289F8F EQ PUSH2 0x390 JUMPI DUP1 PUSH4 0x8DA5CB5B EQ PUSH2 0x398 JUMPI DUP1 PUSH4 0x8DF0296E EQ PUSH2 0x3A0 JUMPI DUP1 PUSH4 0xA1103F37 EQ PUSH2 0x3B3 JUMPI PUSH2 0x269 JUMP JUMPDEST DUP1 PUSH4 0x715018A6 EQ PUSH2 0x332 JUMPI DUP1 PUSH4 0x796B89B9 EQ PUSH2 0x33A JUMPI DUP1 PUSH4 0x7A34DA67 EQ PUSH2 0x342 JUMPI DUP1 PUSH4 0x821AA8C0 EQ PUSH2 0x34A JUMPI DUP1 PUSH4 0x83CC6EF2 EQ PUSH2 0x35D JUMPI PUSH2 0x269 JUMP JUMPDEST DUP1 PUSH4 0x353F44D0 GT PUSH2 0x231 JUMPI DUP1 PUSH4 0x353F44D0 EQ PUSH2 0x2E9 JUMPI DUP1 PUSH4 0x39E7357C EQ PUSH2 0x2FC JUMPI DUP1 PUSH4 0x48257DC9 EQ PUSH2 0x304 JUMPI DUP1 PUSH4 0x4FE8B4C1 EQ PUSH2 0x317 JUMPI DUP1 PUSH4 0x51912F29 EQ PUSH2 0x32A JUMPI PUSH2 0x269 JUMP JUMPDEST DUP1 PUSH4 0x50EB2EB EQ PUSH2 0x26E JUMPI DUP1 PUSH4 0xE6661A7 EQ PUSH2 0x283 JUMPI DUP1 PUSH4 0x171EE06A EQ PUSH2 0x2A1 JUMPI DUP1 PUSH4 0x29A47BC7 EQ PUSH2 0x2C1 JUMPI DUP1 PUSH4 0x3538AF82 EQ PUSH2 0x2D6 JUMPI JUMPDEST PUSH1 0x0 DUP1 REVERT JUMPDEST PUSH2 0x281 PUSH2 0x27C CALLDATASIZE PUSH1 0x4 PUSH2 0x1912 JUMP JUMPDEST PUSH2 0x537 JUMP JUMPDEST STOP JUMPDEST PUSH2 0x28B PUSH2 0x5A1 JUMP JUMPDEST PUSH1 0x40 MLOAD PUSH2 0x298 SWAP2 SWAP1 PUSH2 0x1BB5 JUMP JUMPDEST PUSH1 0x40 MLOAD DUP1 SWAP2 SUB SWAP1 RETURN JUMPDEST PUSH2 0x2B4 PUSH2 0x2AF CALLDATASIZE PUSH1 0x4 PUSH2 0x1AEF JUMP JUMPDEST PUSH2 0x5A7 JUMP JUMPDEST PUSH1 0x40 MLOAD PUSH2 0x298 SWAP2 SWAP1 PUSH2 0x1C40 JUMP JUMPDEST PUSH2 0x2C9 PUSH2 0x5BC JUMP JUMPDEST PUSH1 0x40 MLOAD PUSH2 0x298 SWAP2 SWAP1 PUSH2 0x1BE8 JUMP JUMPDEST PUSH2 0x2C9 PUSH2 0x2E4 CALLDATASIZE PUSH1 0x4 PUSH2 0x1AEF JUMP JUMPDEST PUSH2 0x5CB JUMP JUMPDEST PUSH2 0x28B PUSH2 0x2F7 CALLDATASIZE PUSH1 0x4 PUSH2 0x1912 JUMP JUMPDEST PUSH2 0x5F5 JUMP JUMPDEST PUSH2 0x28B PUSH2 0x607 JUMP JUMPDEST PUSH2 0x2B4 PUSH2 0x312 CALLDATASIZE PUSH1 0x4 PUSH2 0x1AEF JUMP JUMPDEST PUSH2 0x624 JUMP JUMPDEST PUSH2 0x281 PUSH2 0x325 CALLDATASIZE PUSH1 0x4 PUSH2 0x1AEF JUMP JUMPDEST PUSH2 0x8E1 JUMP JUMPDEST PUSH2 0x2C9 PUSH2 0x961 JUMP JUMPDEST PUSH2 0x281 PUSH2 0x970 JUMP JUMPDEST PUSH2 0x28B PUSH2 0x9BB JUMP JUMPDEST PUSH2 0x2C9 PUSH2 0x9BF JUMP JUMPDEST PUSH2 0x2C9 PUSH2 0x358 CALLDATASIZE PUSH1 0x4 PUSH2 0x1AEF JUMP JUMPDEST PUSH2 0x9CE JUMP JUMPDEST PUSH2 0x2C9 PUSH2 0x9DE JUMP JUMPDEST PUSH2 0x28B PUSH2 0x9ED JUMP JUMPDEST PUSH2 0x380 PUSH2 0x37B CALLDATASIZE PUSH1 0x4 PUSH2 0x1AEF JUMP JUMPDEST PUSH2 0x9F3 JUMP JUMPDEST PUSH1 0x40 MLOAD PUSH2 0x298 SWAP5 SWAP4 SWAP3 SWAP2 SWAP1 PUSH2 0x1C88 JUMP JUMPDEST PUSH2 0x2C9 PUSH2 0xAB2 JUMP JUMPDEST PUSH2 0x2C9 PUSH2 0xAC1 JUMP JUMPDEST PUSH2 0x2C9 PUSH2 0x3AE CALLDATASIZE PUSH1 0x4 PUSH2 0x1B07 JUMP JUMPDEST PUSH2 0xAD0 JUMP JUMPDEST PUSH2 0x28B PUSH2 0x3C1 CALLDATASIZE PUSH1 0x4 PUSH2 0x1933 JUMP JUMPDEST PUSH2 0xB08 JUMP JUMPDEST PUSH2 0x281 PUSH2 0x3D4 CALLDATASIZE PUSH1 0x4 PUSH2 0x1912 JUMP JUMPDEST PUSH2 0xB3C JUMP JUMPDEST PUSH2 0x28B PUSH2 0xB9D JUMP JUMPDEST PUSH2 0x2B4 PUSH2 0x3EF CALLDATASIZE PUSH1 0x4 PUSH2 0x1976 JUMP JUMPDEST PUSH2 0xBA3 JUMP JUMPDEST PUSH2 0x28B PUSH2 0xC09 JUMP JUMPDEST PUSH2 0x2C9 PUSH2 0xCBE JUMP JUMPDEST PUSH2 0x417 PUSH2 0x412 CALLDATASIZE PUSH1 0x4 PUSH2 0x1B07 JUMP JUMPDEST PUSH2 0xCCD JUMP JUMPDEST PUSH1 0x40 MLOAD PUSH2 0x298 SWAP2 SWAP1 PUSH2 0x1BFC JUMP JUMPDEST PUSH2 0x417 PUSH2 0x432 CALLDATASIZE PUSH1 0x4 PUSH2 0x1B07 JUMP JUMPDEST PUSH2 0xED5 JUMP JUMPDEST PUSH2 0x281 PUSH2 0x445 CALLDATASIZE PUSH1 0x4 PUSH2 0x1912 JUMP JUMPDEST PUSH2 0x103F JUMP JUMPDEST PUSH2 0x281 PUSH2 0x458 CALLDATASIZE PUSH1 0x4 PUSH2 0x1AEF JUMP JUMPDEST PUSH2 0x10A0 JUMP JUMPDEST PUSH2 0x28B PUSH2 0x1110 JUMP JUMPDEST PUSH2 0x2C9 PUSH2 0x473 CALLDATASIZE PUSH1 0x4 PUSH2 0x1933 JUMP JUMPDEST PUSH2 0x1116 JUMP JUMPDEST PUSH2 0x281 PUSH2 0x486 CALLDATASIZE PUSH1 0x4 PUSH2 0x1912 JUMP JUMPDEST PUSH2 0x1132 JUMP JUMPDEST PUSH2 0x281 PUSH2 0x499 CALLDATASIZE PUSH1 0x4 PUSH2 0x1912 JUMP JUMPDEST PUSH2 0x1193 JUMP JUMPDEST PUSH2 0x417 PUSH2 0x4AC CALLDATASIZE PUSH1 0x4 PUSH2 0x1AEF JUMP JUMPDEST PUSH2 0x11F4 JUMP JUMPDEST PUSH2 0x4C4 PUSH2 0x4BF CALLDATASIZE PUSH1 0x4 PUSH2 0x1AEF JUMP JUMPDEST PUSH2 0x126E JUMP JUMPDEST PUSH1 0x40 MLOAD PUSH2 0x298 SWAP2 SWAP1 PUSH2 0x1C4B JUMP JUMPDEST PUSH2 0x28B PUSH2 0x131D JUMP JUMPDEST PUSH2 0x4EC PUSH2 0x4E7 CALLDATASIZE PUSH1 0x4 PUSH2 0x1AEF JUMP JUMPDEST PUSH2 0x1323 JUMP JUMPDEST PUSH1 0x40 MLOAD PUSH2 0x298 SWAP2 SWAP1 PUSH2 0x1D8D JUMP JUMPDEST PUSH2 0x28B PUSH2 0x1455 JUMP JUMPDEST PUSH2 0x281 PUSH2 0x50F CALLDATASIZE PUSH1 0x4 PUSH2 0x1912 JUMP JUMPDEST PUSH2 0x145B JUMP JUMPDEST PUSH2 0x28B PUSH2 0x14C9 JUMP JUMPDEST PUSH2 0x2B4 PUSH2 0x52A CALLDATASIZE PUSH1 0x4 PUSH2 0x1AEF JUMP JUMPDEST PUSH2 0x14CF JUMP JUMPDEST PUSH2 0x2C9 PUSH2 0x14D7 JUMP JUMPDEST PUSH2 0x53F PUSH2 0x14E6 JUMP JUMPDEST PUSH1 0x1 PUSH1 0x1 PUSH1 0xA0 SHL SUB AND PUSH2 0x550 PUSH2 0xAC1 JUMP JUMPDEST PUSH1 0x1 PUSH1 0x1 PUSH1 0xA0 SHL SUB AND EQ PUSH2 0x57F JUMPI PUSH1 0x40 MLOAD PUSH3 0x461BCD PUSH1 0xE5 SHL DUP2 MSTORE PUSH1 0x4 ADD PUSH2 0x576 SWAP1 PUSH2 0x1D58 JUMP JUMPDEST PUSH1 0x40 MLOAD DUP1 SWAP2 SUB SWAP1 REVERT JUMPDEST PUSH1 0x11 DUP1 SLOAD PUSH1 0x1 PUSH1 0x1 PUSH1 0xA0 SHL SUB NOT AND PUSH1 0x1 PUSH1 0x1 PUSH1 0xA0 SHL SUB SWAP3 SWAP1 SWAP3 AND SWAP2 SWAP1 SWAP2 OR SWAP1 SSTORE JUMP JUMPDEST PUSH1 0x2 SLOAD DUP2 JUMP JUMPDEST PUSH1 0x1 PUSH1 0x20 MSTORE PUSH1 0x0 SWAP1 DUP2 MSTORE PUSH1 0x40 SWAP1 KECCAK256 SLOAD PUSH1 0xFF AND DUP2 JUMP JUMPDEST PUSH1 0x10 SLOAD PUSH1 0x1 PUSH1 0x1 PUSH1 0xA0 SHL SUB AND DUP2 JUMP JUMPDEST PUSH1 0x6 DUP2 DUP2 SLOAD DUP2 LT PUSH2 0x5DB JUMPI PUSH1 0x0 DUP1 REVERT JUMPDEST PUSH1 0x0 SWAP2 DUP3 MSTORE PUSH1 0x20 SWAP1 SWAP2 KECCAK256 ADD SLOAD PUSH1 0x1 PUSH1 0x1 PUSH1 0xA0 SHL SUB AND SWAP1 POP DUP2 JUMP JUMPDEST PUSH1 0x4 PUSH1 0x20 MSTORE PUSH1 0x0 SWAP1 DUP2 MSTORE PUSH1 0x40 SWAP1 KECCAK256 SLOAD DUP2 JUMP JUMPDEST PUSH1 0x40 MLOAD PUSH1 0x0 SWAP1 DUP1 PUSH1 0x20 DUP2 DUP5 DUP1 PUSH1 0x18 GAS STATICCALL PUSH2 0x61D JUMPI INVALID JUMPDEST POP MLOAD SWAP2 SWAP1 POP JUMP JUMPDEST PUSH1 0x13 SLOAD PUSH1 0x0 SWAP1 PUSH1 0x1 PUSH1 0x1 PUSH1 0xA0 SHL SUB AND ISZERO DUP1 ISZERO SWAP1 PUSH2 0x650 JUMPI POP PUSH1 0x0 DUP3 DUP2 MSTORE PUSH1 0x1 PUSH1 0x20 MSTORE PUSH1 0x40 SWAP1 KECCAK256 SLOAD PUSH1 0xFF AND ISZERO JUMPDEST ISZERO PUSH2 0x8BF JUMPI PUSH1 0x13 SLOAD PUSH1 0x40 MLOAD PUSH4 0x7B90EF25 PUSH1 0xE1 SHL DUP2 MSTORE PUSH1 0x1 PUSH1 0x1 PUSH1 0xA0 SHL SUB SWAP1 SWAP2 AND SWAP1 PUSH4 0xF721DE4A SWAP1 PUSH2 0x685 SWAP1 DUP6 SWAP1 PUSH1 0x4 ADD PUSH2 0x1BB5 JUMP JUMPDEST PUSH1 0x20 PUSH1 0x40 MLOAD DUP1 DUP4 SUB DUP2 PUSH1 0x0 DUP8 DUP1 EXTCODESIZE ISZERO DUP1 ISZERO PUSH2 0x69F JUMPI PUSH1 0x0 DUP1 REVERT JUMPDEST POP GAS CALL ISZERO DUP1 ISZERO PUSH2 0x6B3 JUMPI RETURNDATASIZE PUSH1 0x0 DUP1 RETURNDATACOPY RETURNDATASIZE PUSH1 0x0 REVERT JUMPDEST POP POP POP POP PUSH1 0x40 MLOAD RETURNDATASIZE PUSH1 0x1F NOT PUSH1 0x1F DUP3 ADD AND DUP3 ADD DUP1 PUSH1 0x40 MSTORE POP DUP2 ADD SWAP1 PUSH2 0x6D7 SWAP2 SWAP1 PUSH2 0x195C JUMP JUMPDEST ISZERO PUSH2 0x8BF JUMPI PUSH1 0x13 SLOAD PUSH1 0x40 MLOAD PUSH4 0x1B308BF7 PUSH1 0xE3 SHL DUP2 MSTORE PUSH1 0x0 SWAP2 PUSH1 0x1 PUSH1 0x1 PUSH1 0xA0 SHL SUB AND SWAP1 PUSH4 0xD9845FB8 SWAP1 PUSH2 0x70D SWAP1 DUP7 SWAP1 PUSH1 0x4 ADD PUSH2 0x1BB5 JUMP JUMPDEST PUSH1 0x0 PUSH1 0x40 MLOAD DUP1 DUP4 SUB DUP2 PUSH1 0x0 DUP8 DUP1 EXTCODESIZE ISZERO DUP1 ISZERO PUSH2 0x727 JUMPI PUSH1 0x0 DUP1 REVERT JUMPDEST POP GAS CALL ISZERO DUP1 ISZERO PUSH2 0x73B JUMPI RETURNDATASIZE PUSH1 0x0 DUP1 RETURNDATACOPY RETURNDATASIZE PUSH1 0x0 REVERT JUMPDEST POP POP POP POP PUSH1 0x40 MLOAD RETURNDATASIZE PUSH1 0x0 DUP3 RETURNDATACOPY PUSH1 0x1F RETURNDATASIZE SWAP1 DUP2 ADD PUSH1 0x1F NOT AND DUP3 ADD PUSH1 0x40 MSTORE PUSH2 0x763 SWAP2 SWAP1 DUP2 ADD SWAP1 PUSH2 0x19D7 JUMP JUMPDEST PUSH2 0x1A0 DUP2 ADD MLOAD SWAP1 SWAP2 POP PUSH1 0x1 DUP2 PUSH1 0x3 DUP2 GT ISZERO PUSH2 0x78E JUMPI PUSH4 0x4E487B71 PUSH1 0xE0 SHL PUSH1 0x0 MSTORE PUSH1 0x21 PUSH1 0x4 MSTORE PUSH1 0x24 PUSH1 0x0 REVERT JUMPDEST EQ ISZERO PUSH2 0x8A0 JUMPI PUSH1 0x40 DUP1 MLOAD PUSH1 0x80 DUP2 ADD DUP3 MSTORE PUSH2 0x180 DUP5 ADD MLOAD DUP2 MSTORE CALLER PUSH1 0x20 DUP1 DUP4 ADD SWAP2 SWAP1 SWAP2 MSTORE TIMESTAMP DUP3 DUP5 ADD MSTORE PUSH1 0x0 PUSH1 0x60 DUP4 ADD DUP2 SWAP1 MSTORE PUSH1 0x2 SLOAD DUP2 MSTORE PUSH1 0x3 DUP3 MSTORE SWAP3 SWAP1 SWAP3 KECCAK256 DUP2 MLOAD DUP1 MLOAD SWAP3 SWAP4 SWAP2 SWAP3 PUSH2 0x7E0 SWAP3 DUP5 SWAP3 ADD SWAP1 PUSH2 0x1724 JUMP JUMPDEST POP PUSH1 0x20 DUP3 ADD MLOAD PUSH1 0x1 DUP3 DUP2 ADD DUP1 SLOAD PUSH1 0x1 PUSH1 0x1 PUSH1 0xA0 SHL SUB NOT AND PUSH1 0x1 PUSH1 0x1 PUSH1 0xA0 SHL SUB SWAP1 SWAP4 AND SWAP3 SWAP1 SWAP3 OR SWAP1 SWAP2 SSTORE PUSH1 0x40 DUP4 ADD MLOAD PUSH1 0x2 DUP4 ADD SSTORE PUSH1 0x60 DUP4 ADD MLOAD PUSH1 0x3 DUP1 DUP5 ADD DUP1 SLOAD SWAP3 SWAP4 SWAP1 SWAP3 PUSH1 0xFF NOT AND SWAP2 DUP5 SWAP1 DUP2 GT ISZERO PUSH2 0x847 JUMPI PUSH4 0x4E487B71 PUSH1 0xE0 SHL PUSH1 0x0 MSTORE PUSH1 0x21 PUSH1 0x4 MSTORE PUSH1 0x24 PUSH1 0x0 REVERT JUMPDEST MUL OR SWAP1 SSTORE POP POP PUSH1 0x2 SLOAD PUSH2 0x85C SWAP2 POP PUSH1 0x1 PUSH2 0x1E33 JUMP JUMPDEST PUSH1 0x2 DUP2 SWAP1 SSTORE PUSH2 0x180 DUP4 ADD MLOAD PUSH1 0x40 MLOAD PUSH32 0x43ECB46CB5C77906888A0AB6A09798CB7FEFF11E826EDD3BA74FADA241E3A646 SWAP2 PUSH2 0x897 SWAP2 CALLER SWAP1 PUSH2 0x1C5E JUMP JUMPDEST PUSH1 0x40 MLOAD DUP1 SWAP2 SUB SWAP1 LOG2 JUMPDEST POP POP PUSH1 0x0 DUP3 DUP2 MSTORE PUSH1 0x1 PUSH1 0x20 DUP2 SWAP1 MSTORE PUSH1 0x40 SWAP1 SWAP2 KECCAK256 DUP1 SLOAD PUSH1 0xFF NOT AND SWAP1 SWAP2 OR SWAP1 SSTORE JUMPDEST PUSH1 0x1 PUSH1 0xD PUSH1 0x0 DUP3 DUP3 SLOAD PUSH2 0x8D2 SWAP2 SWAP1 PUSH2 0x1E33 JUMP JUMPDEST SWAP1 SWAP2 SSTORE POP PUSH1 0x0 SWAP2 POP POP JUMPDEST SWAP2 SWAP1 POP JUMP JUMPDEST PUSH2 0x8E9 PUSH2 0x14E6 JUMP JUMPDEST PUSH1 0x1 PUSH1 0x1 PUSH1 0xA0 SHL SUB AND PUSH2 0x8FA PUSH2 0xAC1 JUMP JUMPDEST PUSH1 0x1 PUSH1 0x1 PUSH1 0xA0 SHL SUB AND EQ PUSH2 0x920 JUMPI PUSH1 0x40 MLOAD PUSH3 0x461BCD PUSH1 0xE5 SHL DUP2 MSTORE PUSH1 0x4 ADD PUSH2 0x576 SWAP1 PUSH2 0x1D58 JUMP JUMPDEST PUSH1 0x0 DUP2 DUP2 MSTORE PUSH1 0x3 PUSH1 0x20 MSTORE PUSH1 0x40 DUP2 KECCAK256 SWAP1 PUSH2 0x939 DUP3 DUP3 PUSH2 0x17A8 JUMP JUMPDEST POP PUSH1 0x1 DUP2 ADD DUP1 SLOAD PUSH1 0x1 PUSH1 0x1 PUSH1 0xA0 SHL SUB NOT AND SWAP1 SSTORE PUSH1 0x0 PUSH1 0x2 DUP3 ADD SSTORE PUSH1 0x3 ADD DUP1 SLOAD PUSH1 0xFF NOT AND SWAP1 SSTORE POP JUMP JUMPDEST PUSH1 0x11 SLOAD PUSH1 0x1 PUSH1 0x1 PUSH1 0xA0 SHL SUB AND DUP2 JUMP JUMPDEST PUSH2 0x978 PUSH2 0x14E6 JUMP JUMPDEST PUSH1 0x1 PUSH1 0x1 PUSH1 0xA0 SHL SUB AND PUSH2 0x989 PUSH2 0xAC1 JUMP JUMPDEST PUSH1 0x1 PUSH1 0x1 PUSH1 0xA0 SHL SUB AND EQ PUSH2 0x9AF JUMPI PUSH1 0x40 MLOAD PUSH3 0x461BCD PUSH1 0xE5 SHL DUP2 MSTORE PUSH1 0x4 ADD PUSH2 0x576 SWAP1 PUSH2 0x1D58 JUMP JUMPDEST PUSH2 0x9B9 PUSH1 0x0 PUSH2 0x14EA JUMP JUMPDEST JUMP JUMPDEST TIMESTAMP SWAP1 JUMP JUMPDEST PUSH1 0x12 SLOAD PUSH1 0x1 PUSH1 0x1 PUSH1 0xA0 SHL SUB AND DUP2 JUMP JUMPDEST PUSH1 0x7 DUP2 DUP2 SLOAD DUP2 LT PUSH2 0x5DB JUMPI PUSH1 0x0 DUP1 REVERT JUMPDEST PUSH1 0xF SLOAD PUSH1 0x1 PUSH1 0x1 PUSH1 0xA0 SHL SUB AND DUP2 JUMP JUMPDEST PUSH1 0xA SLOAD DUP2 JUMP JUMPDEST PUSH1 0x3 PUSH1 0x20 MSTORE PUSH1 0x0 SWAP1 DUP2 MSTORE PUSH1 0x40 SWAP1 KECCAK256 DUP1 SLOAD DUP2 SWAP1 PUSH2 0xA0E SWAP1 PUSH2 0x1EA6 JUMP JUMPDEST DUP1 PUSH1 0x1F ADD PUSH1 0x20 DUP1 SWAP2 DIV MUL PUSH1 0x20 ADD PUSH1 0x40 MLOAD SWAP1 DUP2 ADD PUSH1 0x40 MSTORE DUP1 SWAP3 SWAP2 SWAP1 DUP2 DUP2 MSTORE PUSH1 0x20 ADD DUP3 DUP1 SLOAD PUSH2 0xA3A SWAP1 PUSH2 0x1EA6 JUMP JUMPDEST DUP1 ISZERO PUSH2 0xA87 JUMPI DUP1 PUSH1 0x1F LT PUSH2 0xA5C JUMPI PUSH2 0x100 DUP1 DUP4 SLOAD DIV MUL DUP4 MSTORE SWAP2 PUSH1 0x20 ADD SWAP2 PUSH2 0xA87 JUMP JUMPDEST DUP3 ADD SWAP2 SWAP1 PUSH1 0x0 MSTORE PUSH1 0x20 PUSH1 0x0 KECCAK256 SWAP1 JUMPDEST DUP2 SLOAD DUP2 MSTORE SWAP1 PUSH1 0x1 ADD SWAP1 PUSH1 0x20 ADD DUP1 DUP4 GT PUSH2 0xA6A JUMPI DUP3 SWAP1 SUB PUSH1 0x1F AND DUP3 ADD SWAP2 JUMPDEST POP POP POP POP PUSH1 0x1 DUP4 ADD SLOAD PUSH1 0x2 DUP5 ADD SLOAD PUSH1 0x3 SWAP1 SWAP5 ADD SLOAD SWAP3 SWAP4 PUSH1 0x1 PUSH1 0x1 PUSH1 0xA0 SHL SUB SWAP1 SWAP2 AND SWAP3 SWAP1 SWAP2 POP PUSH1 0xFF AND DUP5 JUMP JUMPDEST PUSH1 0x13 SLOAD PUSH1 0x1 PUSH1 0x1 PUSH1 0xA0 SHL SUB AND DUP2 JUMP JUMPDEST PUSH1 0x0 SLOAD PUSH1 0x1 PUSH1 0x1 PUSH1 0xA0 SHL SUB AND SWAP1 JUMP JUMPDEST PUSH1 0x8 PUSH1 0x20 MSTORE DUP2 PUSH1 0x0 MSTORE PUSH1 0x40 PUSH1 0x0 KECCAK256 DUP2 DUP2 SLOAD DUP2 LT PUSH2 0xAEC JUMPI PUSH1 0x0 DUP1 REVERT JUMPDEST PUSH1 0x0 SWAP2 DUP3 MSTORE PUSH1 0x20 SWAP1 SWAP2 KECCAK256 ADD SLOAD PUSH1 0x1 PUSH1 0x1 PUSH1 0xA0 SHL SUB AND SWAP2 POP DUP3 SWAP1 POP JUMP JUMPDEST PUSH1 0x0 DUP3 DUP3 PUSH1 0x40 MLOAD PUSH1 0x20 ADD PUSH2 0xB1D SWAP3 SWAP2 SWAP1 PUSH2 0x1B93 JUMP JUMPDEST PUSH1 0x40 MLOAD PUSH1 0x20 DUP2 DUP4 SUB SUB DUP2 MSTORE SWAP1 PUSH1 0x40 MSTORE DUP1 MLOAD SWAP1 PUSH1 0x20 ADD KECCAK256 SWAP1 POP JUMPDEST SWAP3 SWAP2 POP POP JUMP JUMPDEST PUSH2 0xB44 PUSH2 0x14E6 JUMP JUMPDEST PUSH1 0x1 PUSH1 0x1 PUSH1 0xA0 SHL SUB AND PUSH2 0xB55 PUSH2 0xAC1 JUMP JUMPDEST PUSH1 0x1 PUSH1 0x1 PUSH1 0xA0 SHL SUB AND EQ PUSH2 0xB7B JUMPI PUSH1 0x40 MLOAD PUSH3 0x461BCD PUSH1 0xE5 SHL DUP2 MSTORE PUSH1 0x4 ADD PUSH2 0x576 SWAP1 PUSH2 0x1D58 JUMP JUMPDEST PUSH1 0x13 DUP1 SLOAD PUSH1 0x1 PUSH1 0x1 PUSH1 0xA0 SHL SUB NOT AND PUSH1 0x1 PUSH1 0x1 PUSH1 0xA0 SHL SUB SWAP3 SWAP1 SWAP3 AND SWAP2 SWAP1 SWAP2 OR SWAP1 SSTORE JUMP JUMPDEST PUSH1 0x2 SLOAD SWAP1 JUMP JUMPDEST PUSH1 0x0 DUP2 PUSH1 0x40 MLOAD PUSH1 0x20 ADD PUSH2 0xBB6 SWAP2 SWAP1 PUSH2 0x1BBE JUMP JUMPDEST PUSH1 0x40 MLOAD PUSH1 0x20 DUP2 DUP4 SUB SUB DUP2 MSTORE SWAP1 PUSH1 0x40 MSTORE DUP1 MLOAD SWAP1 PUSH1 0x20 ADD KECCAK256 DUP4 PUSH1 0x40 MLOAD PUSH1 0x20 ADD PUSH2 0xBDD SWAP2 SWAP1 PUSH2 0x1BBE JUMP JUMPDEST PUSH1 0x40 MLOAD PUSH1 0x20 DUP2 DUP4 SUB SUB DUP2 MSTORE SWAP1 PUSH1 0x40 MSTORE DUP1 MLOAD SWAP1 PUSH1 0x20 ADD KECCAK256 EQ ISZERO PUSH2 0xC01 JUMPI POP PUSH1 0x1 PUSH2 0xB36 JUMP JUMPDEST POP PUSH1 0x0 PUSH2 0xB36 JUMP JUMPDEST PUSH1 0x0 DUP1 TIMESTAMP COINBASE PUSH1 0x40 MLOAD PUSH1 0x20 ADD PUSH2 0xC1E SWAP2 SWAP1 PUSH2 0x1B76 JUMP JUMPDEST PUSH1 0x40 MLOAD PUSH1 0x20 DUP2 DUP4 SUB SUB DUP2 MSTORE SWAP1 PUSH1 0x40 MSTORE DUP1 MLOAD SWAP1 PUSH1 0x20 ADD KECCAK256 PUSH1 0x0 SHR PUSH2 0xC41 SWAP2 SWAP1 PUSH2 0x1E4B JUMP JUMPDEST DIFFICULTY PUSH2 0xC4A PUSH2 0x607 JUMP JUMPDEST PUSH1 0x40 MLOAD PUSH1 0x20 ADD PUSH2 0xC5A SWAP2 SWAP1 PUSH2 0x1BB5 JUMP JUMPDEST PUSH1 0x40 DUP1 MLOAD PUSH1 0x1F NOT DUP2 DUP5 SUB ADD DUP2 MSTORE SWAP2 SWAP1 MSTORE DUP1 MLOAD PUSH1 0x20 SWAP1 SWAP2 ADD KECCAK256 PUSH2 0xC7C SWAP1 TIMESTAMP PUSH2 0x1E33 JUMP JUMPDEST PUSH2 0xC86 SWAP2 SWAP1 PUSH2 0x1E33 JUMP JUMPDEST PUSH2 0xC90 SWAP2 SWAP1 PUSH2 0x1E33 JUMP JUMPDEST PUSH1 0x40 MLOAD PUSH1 0x20 ADD PUSH2 0xCA0 SWAP2 SWAP1 PUSH2 0x1BB5 JUMP JUMPDEST PUSH1 0x40 DUP1 MLOAD PUSH1 0x1F NOT DUP2 DUP5 SUB ADD DUP2 MSTORE SWAP2 SWAP1 MSTORE DUP1 MLOAD PUSH1 0x20 SWAP1 SWAP2 ADD KECCAK256 SWAP2 POP POP SWAP1 JUMP JUMPDEST PUSH1 0x9 SLOAD PUSH1 0x1 PUSH1 0x1 PUSH1 0xA0 SHL SUB AND DUP2 JUMP JUMPDEST PUSH1 0x60 PUSH1 0x0 DUP3 GT PUSH2 0xCDC JUMPI PUSH1 0x0 DUP1 REVERT JUMPDEST PUSH1 0x0 COINBASE PUSH1 0x40 MLOAD PUSH1 0x20 ADD PUSH2 0xCEF SWAP2 SWAP1 PUSH2 0x1B76 JUMP JUMPDEST PUSH1 0x40 MLOAD PUSH1 0x20 DUP2 DUP4 SUB SUB DUP2 MSTORE SWAP1 PUSH1 0x40 MSTORE DUP1 MLOAD SWAP1 PUSH1 0x20 ADD KECCAK256 PUSH1 0x0 SHR PUSH2 0xD10 PUSH2 0x607 JUMP JUMPDEST PUSH1 0x40 MLOAD PUSH1 0x20 ADD PUSH2 0xD20 SWAP2 SWAP1 PUSH2 0x1BB5 JUMP JUMPDEST PUSH1 0x40 DUP1 MLOAD PUSH1 0x1F NOT DUP2 DUP5 SUB ADD DUP2 MSTORE SWAP2 SWAP1 MSTORE DUP1 MLOAD PUSH1 0x20 SWAP1 SWAP2 ADD KECCAK256 PUSH2 0xD42 SWAP1 TIMESTAMP PUSH2 0x1E33 JUMP JUMPDEST PUSH2 0xD4C SWAP2 SWAP1 PUSH2 0x1E33 JUMP JUMPDEST PUSH1 0x40 MLOAD PUSH1 0x20 ADD PUSH2 0xD5C SWAP2 SWAP1 PUSH2 0x1BB5 JUMP JUMPDEST PUSH1 0x40 MLOAD PUSH1 0x20 DUP2 DUP4 SUB SUB DUP2 MSTORE SWAP1 PUSH1 0x40 MSTORE DUP1 MLOAD SWAP1 PUSH1 0x20 ADD KECCAK256 PUSH1 0x0 SHR SWAP1 POP PUSH1 0x0 DUP5 PUSH8 0xFFFFFFFFFFFFFFFF DUP2 GT ISZERO PUSH2 0xDA0 JUMPI PUSH4 0x4E487B71 PUSH1 0xE0 SHL PUSH1 0x0 MSTORE PUSH1 0x41 PUSH1 0x4 MSTORE PUSH1 0x24 PUSH1 0x0 REVERT JUMPDEST PUSH1 0x40 MLOAD SWAP1 DUP1 DUP3 MSTORE DUP1 PUSH1 0x20 MUL PUSH1 0x20 ADD DUP3 ADD PUSH1 0x40 MSTORE DUP1 ISZERO PUSH2 0xDC9 JUMPI DUP2 PUSH1 0x20 ADD PUSH1 0x20 DUP3 MUL DUP1 CALLDATASIZE DUP4 CALLDATACOPY ADD SWAP1 POP JUMPDEST POP SWAP1 POP PUSH1 0x0 DUP1 JUMPDEST DUP7 DUP3 LT ISZERO PUSH2 0xECA JUMPI PUSH1 0x0 DUP7 PUSH2 0xDE9 PUSH4 0x17EFEEB DUP8 PUSH2 0x1E5F JUMP JUMPDEST DUP4 PUSH1 0x40 MLOAD PUSH1 0x20 ADD PUSH2 0xDFB SWAP3 SWAP2 SWAP1 PUSH2 0x1BDA JUMP JUMPDEST PUSH1 0x40 MLOAD PUSH1 0x20 DUP2 DUP4 SUB SUB DUP2 MSTORE SWAP1 PUSH1 0x40 MSTORE DUP1 MLOAD SWAP1 PUSH1 0x20 ADD KECCAK256 PUSH1 0x0 SHR PUSH2 0xE1E SWAP2 SWAP1 PUSH2 0x1EFC JUMP JUMPDEST SWAP1 POP PUSH1 0x0 DUP1 JUMPDEST DUP5 DUP2 LT ISZERO PUSH2 0xE76 JUMPI DUP3 DUP7 DUP3 DUP2 MLOAD DUP2 LT PUSH2 0xE4D JUMPI PUSH4 0x4E487B71 PUSH1 0xE0 SHL PUSH1 0x0 MSTORE PUSH1 0x32 PUSH1 0x4 MSTORE PUSH1 0x24 PUSH1 0x0 REVERT JUMPDEST PUSH1 0x20 MUL PUSH1 0x20 ADD ADD MLOAD EQ ISZERO PUSH2 0xE64 JUMPI PUSH1 0x1 SWAP2 POP PUSH2 0xE76 JUMP JUMPDEST DUP1 PUSH2 0xE6E DUP2 PUSH2 0x1EE1 JUMP JUMPDEST SWAP2 POP POP PUSH2 0xE24 JUMP JUMPDEST POP DUP1 PUSH2 0xEB6 JUMPI DUP2 DUP6 DUP6 DUP2 MLOAD DUP2 LT PUSH2 0xE9D JUMPI PUSH4 0x4E487B71 PUSH1 0xE0 SHL PUSH1 0x0 MSTORE PUSH1 0x32 PUSH1 0x4 MSTORE PUSH1 0x24 PUSH1 0x0 REVERT JUMPDEST PUSH1 0x20 SWAP1 DUP2 MUL SWAP2 SWAP1 SWAP2 ADD ADD MSTORE PUSH2 0xEB3 DUP5 PUSH1 0x1 PUSH2 0x1E33 JUMP JUMPDEST SWAP4 POP JUMPDEST PUSH2 0xEC1 DUP4 PUSH1 0x1 PUSH2 0x1E33 JUMP JUMPDEST SWAP3 POP POP POP PUSH2 0xDD0 JUMP JUMPDEST POP SWAP1 SWAP6 SWAP5 POP POP POP POP POP JUMP JUMPDEST PUSH1 0x60 PUSH1 0x0 DUP3 GT DUP1 ISZERO PUSH2 0xEE7 JUMPI POP DUP2 DUP4 GT ISZERO JUMPDEST DUP1 ISZERO PUSH2 0xEF4 JUMPI POP PUSH1 0x1 DUP4 LT ISZERO JUMPDEST PUSH2 0xF10 JUMPI PUSH1 0x40 MLOAD PUSH3 0x461BCD PUSH1 0xE5 SHL DUP2 MSTORE PUSH1 0x4 ADD PUSH2 0x576 SWAP1 PUSH2 0x1D0F JUMP JUMPDEST PUSH1 0x0 DUP3 PUSH8 0xFFFFFFFFFFFFFFFF DUP2 GT ISZERO PUSH2 0xF39 JUMPI PUSH4 0x4E487B71 PUSH1 0xE0 SHL PUSH1 0x0 MSTORE PUSH1 0x41 PUSH1 0x4 MSTORE PUSH1 0x24 PUSH1 0x0 REVERT JUMPDEST PUSH1 0x40 MLOAD SWAP1 DUP1 DUP3 MSTORE DUP1 PUSH1 0x20 MUL PUSH1 0x20 ADD DUP3 ADD PUSH1 0x40 MSTORE DUP1 ISZERO PUSH2 0xF62 JUMPI DUP2 PUSH1 0x20 ADD PUSH1 0x20 DUP3 MUL DUP1 CALLDATASIZE DUP4 CALLDATACOPY ADD SWAP1 POP JUMPDEST POP SWAP1 POP PUSH1 0x0 DUP5 PUSH8 0xFFFFFFFFFFFFFFFF DUP2 GT ISZERO PUSH2 0xF8E JUMPI PUSH4 0x4E487B71 PUSH1 0xE0 SHL PUSH1 0x0 MSTORE PUSH1 0x41 PUSH1 0x4 MSTORE PUSH1 0x24 PUSH1 0x0 REVERT JUMPDEST PUSH1 0x40 MLOAD SWAP1 DUP1 DUP3 MSTORE DUP1 PUSH1 0x20 MUL PUSH1 0x20 ADD DUP3 ADD PUSH1 0x40 MSTORE DUP1 ISZERO PUSH2 0xFB7 JUMPI DUP2 PUSH1 0x20 ADD PUSH1 0x20 DUP3 MUL DUP1 CALLDATASIZE DUP4 CALLDATACOPY ADD SWAP1 POP JUMPDEST POP SWAP1 POP PUSH1 0x0 PUSH2 0xFCD PUSH2 0xFC8 DUP5 PUSH2 0x153A JUMP JUMPDEST PUSH2 0x1590 JUMP JUMPDEST SWAP1 POP PUSH1 0x0 JUMPDEST DUP7 DUP2 LT ISZERO PUSH2 0xECA JUMPI DUP2 DUP2 DUP2 MLOAD DUP2 LT PUSH2 0xFFA JUMPI PUSH4 0x4E487B71 PUSH1 0xE0 SHL PUSH1 0x0 MSTORE PUSH1 0x32 PUSH1 0x4 MSTORE PUSH1 0x24 PUSH1 0x0 REVERT JUMPDEST PUSH1 0x20 MUL PUSH1 0x20 ADD ADD MLOAD DUP4 DUP3 DUP2 MLOAD DUP2 LT PUSH2 0x1022 JUMPI PUSH4 0x4E487B71 PUSH1 0xE0 SHL PUSH1 0x0 MSTORE PUSH1 0x32 PUSH1 0x4 MSTORE PUSH1 0x24 PUSH1 0x0 REVERT JUMPDEST PUSH1 0x20 SWAP1 DUP2 MUL SWAP2 SWAP1 SWAP2 ADD ADD MSTORE DUP1 PUSH2 0x1037 DUP2 PUSH2 0x1EE1 JUMP JUMPDEST SWAP2 POP POP PUSH2 0xFD2 JUMP JUMPDEST PUSH2 0x1047 PUSH2 0x14E6 JUMP JUMPDEST PUSH1 0x1 PUSH1 0x1 PUSH1 0xA0 SHL SUB AND PUSH2 0x1058 PUSH2 0xAC1 JUMP JUMPDEST PUSH1 0x1 PUSH1 0x1 PUSH1 0xA0 SHL SUB AND EQ PUSH2 0x107E JUMPI PUSH1 0x40 MLOAD PUSH3 0x461BCD PUSH1 0xE5 SHL DUP2 MSTORE PUSH1 0x4 ADD PUSH2 0x576 SWAP1 PUSH2 0x1D58 JUMP JUMPDEST PUSH1 0x12 DUP1 SLOAD PUSH1 0x1 PUSH1 0x1 PUSH1 0xA0 SHL SUB NOT AND PUSH1 0x1 PUSH1 0x1 PUSH1 0xA0 SHL SUB SWAP3 SWAP1 SWAP3 AND SWAP2 SWAP1 SWAP2 OR SWAP1 SSTORE JUMP JUMPDEST PUSH2 0x10A8 PUSH2 0x14E6 JUMP JUMPDEST PUSH1 0x1 PUSH1 0x1 PUSH1 0xA0 SHL SUB AND PUSH2 0x10B9 PUSH2 0xAC1 JUMP JUMPDEST PUSH1 0x1 PUSH1 0x1 PUSH1 0xA0 SHL SUB AND EQ PUSH2 0x10DF JUMPI PUSH1 0x40 MLOAD PUSH3 0x461BCD PUSH1 0xE5 SHL DUP2 MSTORE PUSH1 0x4 ADD PUSH2 0x576 SWAP1 PUSH2 0x1D58 JUMP JUMPDEST PUSH1 0x0 DUP2 DUP2 MSTORE PUSH1 0x1 PUSH1 0x20 MSTORE PUSH1 0x40 SWAP1 KECCAK256 SLOAD PUSH1 0xFF AND ISZERO PUSH2 0x110D JUMPI PUSH1 0x0 DUP2 DUP2 MSTORE PUSH1 0x1 PUSH1 0x20 MSTORE PUSH1 0x40 SWAP1 KECCAK256 DUP1 SLOAD PUSH1 0xFF NOT AND SWAP1 SSTORE JUMPDEST POP JUMP JUMPDEST PUSH1 0xC SLOAD DUP2 JUMP JUMPDEST PUSH1 0x5 PUSH1 0x20 MSTORE DUP2 PUSH1 0x0 MSTORE PUSH1 0x40 PUSH1 0x0 KECCAK256 DUP2 DUP2 SLOAD DUP2 LT PUSH2 0xAEC JUMPI PUSH1 0x0 DUP1 REVERT JUMPDEST PUSH2 0x113A PUSH2 0x14E6 JUMP JUMPDEST PUSH1 0x1 PUSH1 0x1 PUSH1 0xA0 SHL SUB AND PUSH2 0x114B PUSH2 0xAC1 JUMP JUMPDEST PUSH1 0x1 PUSH1 0x1 PUSH1 0xA0 SHL SUB AND EQ PUSH2 0x1171 JUMPI PUSH1 0x40 MLOAD PUSH3 0x461BCD PUSH1 0xE5 SHL DUP2 MSTORE PUSH1 0x4 ADD PUSH2 0x576 SWAP1 PUSH2 0x1D58 JUMP JUMPDEST PUSH1 0x10 DUP1 SLOAD PUSH1 0x1 PUSH1 0x1 PUSH1 0xA0 SHL SUB NOT AND PUSH1 0x1 PUSH1 0x1 PUSH1 0xA0 SHL SUB SWAP3 SWAP1 SWAP3 AND SWAP2 SWAP1 SWAP2 OR SWAP1 SSTORE JUMP JUMPDEST PUSH2 0x119B PUSH2 0x14E6 JUMP JUMPDEST PUSH1 0x1 PUSH1 0x1 PUSH1 0xA0 SHL SUB AND PUSH2 0x11AC PUSH2 0xAC1 JUMP JUMPDEST PUSH1 0x1 PUSH1 0x1 PUSH1 0xA0 SHL SUB AND EQ PUSH2 0x11D2 JUMPI PUSH1 0x40 MLOAD PUSH3 0x461BCD PUSH1 0xE5 SHL DUP2 MSTORE PUSH1 0x4 ADD PUSH2 0x576 SWAP1 PUSH2 0x1D58 JUMP JUMPDEST PUSH1 0xF DUP1 SLOAD PUSH1 0x1 PUSH1 0x1 PUSH1 0xA0 SHL SUB NOT AND PUSH1 0x1 PUSH1 0x1 PUSH1 0xA0 SHL SUB SWAP3 SWAP1 SWAP3 AND SWAP2 SWAP1 SWAP2 OR SWAP1 SSTORE JUMP JUMPDEST PUSH1 0x60 PUSH1 0x0 DUP3 GT PUSH2 0x1203 JUMPI PUSH1 0x0 DUP1 REVERT JUMPDEST PUSH1 0x0 DUP3 PUSH8 0xFFFFFFFFFFFFFFFF DUP2 GT ISZERO PUSH2 0x122C JUMPI PUSH4 0x4E487B71 PUSH1 0xE0 SHL PUSH1 0x0 MSTORE PUSH1 0x41 PUSH1 0x4 MSTORE PUSH1 0x24 PUSH1 0x0 REVERT JUMPDEST PUSH1 0x40 MLOAD SWAP1 DUP1 DUP3 MSTORE DUP1 PUSH1 0x20 MUL PUSH1 0x20 ADD DUP3 ADD PUSH1 0x40 MSTORE DUP1 ISZERO PUSH2 0x1255 JUMPI DUP2 PUSH1 0x20 ADD PUSH1 0x20 DUP3 MUL DUP1 CALLDATASIZE DUP4 CALLDATACOPY ADD SWAP1 POP JUMPDEST POP SWAP1 POP PUSH1 0x0 PUSH2 0x1266 PUSH2 0xFC8 DUP4 PUSH2 0x153A JUMP JUMPDEST SWAP5 SWAP4 POP POP POP POP JUMP JUMPDEST PUSH1 0x60 PUSH1 0x2 SLOAD DUP3 GT ISZERO PUSH2 0x127F JUMPI PUSH1 0x0 DUP1 REVERT JUMPDEST PUSH1 0x0 DUP3 DUP2 MSTORE PUSH1 0x3 PUSH1 0x20 MSTORE PUSH1 0x40 SWAP1 KECCAK256 DUP1 SLOAD PUSH2 0x1298 SWAP1 PUSH2 0x1EA6 JUMP JUMPDEST DUP1 PUSH1 0x1F ADD PUSH1 0x20 DUP1 SWAP2 DIV MUL PUSH1 0x20 ADD PUSH1 0x40 MLOAD SWAP1 DUP2 ADD PUSH1 0x40 MSTORE DUP1 SWAP3 SWAP2 SWAP1 DUP2 DUP2 MSTORE PUSH1 0x20 ADD DUP3 DUP1 SLOAD PUSH2 0x12C4 SWAP1 PUSH2 0x1EA6 JUMP JUMPDEST DUP1 ISZERO PUSH2 0x1311 JUMPI DUP1 PUSH1 0x1F LT PUSH2 0x12E6 JUMPI PUSH2 0x100 DUP1 DUP4 SLOAD DIV MUL DUP4 MSTORE SWAP2 PUSH1 0x20 ADD SWAP2 PUSH2 0x1311 JUMP JUMPDEST DUP3 ADD SWAP2 SWAP1 PUSH1 0x0 MSTORE PUSH1 0x20 PUSH1 0x0 KECCAK256 SWAP1 JUMPDEST DUP2 SLOAD DUP2 MSTORE SWAP1 PUSH1 0x1 ADD SWAP1 PUSH1 0x20 ADD DUP1 DUP4 GT PUSH2 0x12F4 JUMPI DUP3 SWAP1 SUB PUSH1 0x1F AND DUP3 ADD SWAP2 JUMPDEST POP POP POP POP POP SWAP1 POP SWAP2 SWAP1 POP JUMP JUMPDEST PUSH1 0xB SLOAD DUP2 JUMP JUMPDEST PUSH2 0x132B PUSH2 0x17E4 JUMP JUMPDEST PUSH1 0x2 SLOAD DUP3 GT ISZERO PUSH2 0x133A JUMPI PUSH1 0x0 DUP1 REVERT JUMPDEST PUSH1 0x0 DUP3 DUP2 MSTORE PUSH1 0x3 PUSH1 0x20 MSTORE PUSH1 0x40 SWAP1 DUP2 SWAP1 KECCAK256 DUP2 MLOAD PUSH1 0x80 DUP2 ADD SWAP1 SWAP3 MSTORE DUP1 SLOAD DUP3 SWAP1 DUP3 SWAP1 PUSH2 0x1362 SWAP1 PUSH2 0x1EA6 JUMP JUMPDEST DUP1 PUSH1 0x1F ADD PUSH1 0x20 DUP1 SWAP2 DIV MUL PUSH1 0x20 ADD PUSH1 0x40 MLOAD SWAP1 DUP2 ADD PUSH1 0x40 MSTORE DUP1 SWAP3 SWAP2 SWAP1 DUP2 DUP2 MSTORE PUSH1 0x20 ADD DUP3 DUP1 SLOAD PUSH2 0x138E SWAP1 PUSH2 0x1EA6 JUMP JUMPDEST DUP1 ISZERO PUSH2 0x13DB JUMPI DUP1 PUSH1 0x1F LT PUSH2 0x13B0 JUMPI PUSH2 0x100 DUP1 DUP4 SLOAD DIV MUL DUP4 MSTORE SWAP2 PUSH1 0x20 ADD SWAP2 PUSH2 0x13DB JUMP JUMPDEST DUP3 ADD SWAP2 SWAP1 PUSH1 0x0 MSTORE PUSH1 0x20 PUSH1 0x0 KECCAK256 SWAP1 JUMPDEST DUP2 SLOAD DUP2 MSTORE SWAP1 PUSH1 0x1 ADD SWAP1 PUSH1 0x20 ADD DUP1 DUP4 GT PUSH2 0x13BE JUMPI DUP3 SWAP1 SUB PUSH1 0x1F AND DUP3 ADD SWAP2 JUMPDEST POP POP POP SWAP2 DUP4 MSTORE POP POP PUSH1 0x1 DUP3 ADD SLOAD PUSH1 0x1 PUSH1 0x1 PUSH1 0xA0 SHL SUB AND PUSH1 0x20 DUP3 ADD MSTORE PUSH1 0x2 DUP3 ADD SLOAD PUSH1 0x40 DUP3 ADD MSTORE PUSH1 0x3 DUP1 DUP4 ADD SLOAD PUSH1 0x60 SWAP1 SWAP3 ADD SWAP2 PUSH1 0xFF AND SWAP1 DUP2 GT ISZERO PUSH2 0x142D JUMPI PUSH4 0x4E487B71 PUSH1 0xE0 SHL PUSH1 0x0 MSTORE PUSH1 0x21 PUSH1 0x4 MSTORE PUSH1 0x24 PUSH1 0x0 REVERT JUMPDEST PUSH1 0x3 DUP2 GT ISZERO PUSH2 0x144C JUMPI PUSH4 0x4E487B71 PUSH1 0xE0 SHL PUSH1 0x0 MSTORE PUSH1 0x21 PUSH1 0x4 MSTORE PUSH1 0x24 PUSH1 0x0 REVERT JUMPDEST SWAP1 MSTORE POP SWAP3 SWAP2 POP POP JUMP JUMPDEST PUSH1 0xD SLOAD DUP2 JUMP JUMPDEST PUSH2 0x1463 PUSH2 0x14E6 JUMP JUMPDEST PUSH1 0x1 PUSH1 0x1 PUSH1 0xA0 SHL SUB AND PUSH2 0x1474 PUSH2 0xAC1 JUMP JUMPDEST PUSH1 0x1 PUSH1 0x1 PUSH1 0xA0 SHL SUB AND EQ PUSH2 0x149A JUMPI PUSH1 0x40 MLOAD PUSH3 0x461BCD PUSH1 0xE5 SHL DUP2 MSTORE PUSH1 0x4 ADD PUSH2 0x576 SWAP1 PUSH2 0x1D58 JUMP JUMPDEST PUSH1 0x1 PUSH1 0x1 PUSH1 0xA0 SHL SUB DUP2 AND PUSH2 0x14C0 JUMPI PUSH1 0x40 MLOAD PUSH3 0x461BCD PUSH1 0xE5 SHL DUP2 MSTORE PUSH1 0x4 ADD PUSH2 0x576 SWAP1 PUSH2 0x1CC9 JUMP JUMPDEST PUSH2 0x110D DUP2 PUSH2 0x14EA JUMP JUMPDEST PUSH1 0xD SLOAD SWAP1 JUMP JUMPDEST PUSH1 0x2 SLOAD LT ISZERO SWAP1 JUMP JUMPDEST PUSH1 0xE SLOAD PUSH1 0x1 PUSH1 0x1 PUSH1 0xA0 SHL SUB AND DUP2 JUMP JUMPDEST CALLER SWAP1 JUMP JUMPDEST PUSH1 0x0 DUP1 SLOAD PUSH1 0x1 PUSH1 0x1 PUSH1 0xA0 SHL SUB DUP4 DUP2 AND PUSH1 0x1 PUSH1 0x1 PUSH1 0xA0 SHL SUB NOT DUP4 AND DUP2 OR DUP5 SSTORE PUSH1 0x40 MLOAD SWAP2 SWAP1 SWAP3 AND SWAP3 DUP4 SWAP2 PUSH32 0x8BE0079C531659141344CD1FD0A4F28419497F9722A3DAAFE3B4186F6B6457E0 SWAP2 SWAP1 LOG3 POP POP JUMP JUMPDEST DUP1 MLOAD PUSH1 0x60 SWAP1 PUSH1 0x0 JUMPDEST DUP2 DUP2 LT ISZERO PUSH2 0x1588 JUMPI DUP1 DUP5 DUP3 DUP2 MLOAD DUP2 LT PUSH2 0x156B JUMPI PUSH4 0x4E487B71 PUSH1 0xE0 SHL PUSH1 0x0 MSTORE PUSH1 0x32 PUSH1 0x4 MSTORE PUSH1 0x24 PUSH1 0x0 REVERT JUMPDEST PUSH1 0x20 SWAP1 DUP2 MUL SWAP2 SWAP1 SWAP2 ADD ADD MSTORE DUP1 PUSH2 0x1580 DUP2 PUSH2 0x1EE1 JUMP JUMPDEST SWAP2 POP POP PUSH2 0x1542 JUMP JUMPDEST POP SWAP2 SWAP3 SWAP2 POP POP JUMP JUMPDEST PUSH1 0x60 PUSH1 0x0 DUP3 MLOAD GT PUSH2 0x15A0 JUMPI PUSH1 0x0 DUP1 REVERT JUMPDEST DUP2 MLOAD DUP1 PUSH1 0x0 JUMPDEST DUP2 DUP2 LT ISZERO PUSH2 0x171B JUMPI PUSH1 0x0 DUP4 PUSH2 0x15B9 PUSH2 0xC09 JUMP JUMPDEST DUP8 DUP5 DUP2 MLOAD DUP2 LT PUSH2 0x15D9 JUMPI PUSH4 0x4E487B71 PUSH1 0xE0 SHL PUSH1 0x0 MSTORE PUSH1 0x32 PUSH1 0x4 MSTORE PUSH1 0x24 PUSH1 0x0 REVERT JUMPDEST PUSH1 0x20 MUL PUSH1 0x20 ADD ADD MLOAD PUSH1 0x40 MLOAD PUSH1 0x20 ADD PUSH2 0x15F2 SWAP3 SWAP2 SWAP1 PUSH2 0x1BDA JUMP JUMPDEST PUSH1 0x40 MLOAD PUSH1 0x20 DUP2 DUP4 SUB SUB DUP2 MSTORE SWAP1 PUSH1 0x40 MSTORE DUP1 MLOAD SWAP1 PUSH1 0x20 ADD KECCAK256 PUSH1 0x0 SHR PUSH2 0x1615 SWAP2 SWAP1 PUSH2 0x1EFC JUMP JUMPDEST PUSH2 0x1620 SWAP1 PUSH1 0x1 PUSH2 0x1E33 JUMP JUMPDEST SWAP1 POP PUSH1 0x0 DUP7 PUSH2 0x1630 PUSH1 0x1 DUP5 PUSH2 0x1E5F JUMP JUMPDEST DUP2 MLOAD DUP2 LT PUSH2 0x164E JUMPI PUSH4 0x4E487B71 PUSH1 0xE0 SHL PUSH1 0x0 MSTORE PUSH1 0x32 PUSH1 0x4 MSTORE PUSH1 0x24 PUSH1 0x0 REVERT JUMPDEST PUSH1 0x20 MUL PUSH1 0x20 ADD ADD MLOAD SWAP1 POP DUP7 PUSH1 0x1 DUP7 PUSH2 0x1666 SWAP2 SWAP1 PUSH2 0x1E5F JUMP JUMPDEST DUP2 MLOAD DUP2 LT PUSH2 0x1684 JUMPI PUSH4 0x4E487B71 PUSH1 0xE0 SHL PUSH1 0x0 MSTORE PUSH1 0x32 PUSH1 0x4 MSTORE PUSH1 0x24 PUSH1 0x0 REVERT JUMPDEST PUSH1 0x20 MUL PUSH1 0x20 ADD ADD MLOAD DUP8 PUSH1 0x1 DUP5 PUSH2 0x169A SWAP2 SWAP1 PUSH2 0x1E5F JUMP JUMPDEST DUP2 MLOAD DUP2 LT PUSH2 0x16B8 JUMPI PUSH4 0x4E487B71 PUSH1 0xE0 SHL PUSH1 0x0 MSTORE PUSH1 0x32 PUSH1 0x4 MSTORE PUSH1 0x24 PUSH1 0x0 REVERT JUMPDEST PUSH1 0x20 SWAP1 DUP2 MUL SWAP2 SWAP1 SWAP2 ADD ADD MSTORE DUP1 DUP8 PUSH2 0x16D0 PUSH1 0x1 DUP9 PUSH2 0x1E5F JUMP JUMPDEST DUP2 MLOAD DUP2 LT PUSH2 0x16EE JUMPI PUSH4 0x4E487B71 PUSH1 0xE0 SHL PUSH1 0x0 MSTORE PUSH1 0x32 PUSH1 0x4 MSTORE PUSH1 0x24 PUSH1 0x0 REVERT JUMPDEST PUSH1 0x20 SWAP1 DUP2 MUL SWAP2 SWAP1 SWAP2 ADD ADD MSTORE PUSH2 0x1704 PUSH1 0x1 DUP7 PUSH2 0x1E5F JUMP JUMPDEST SWAP5 POP POP POP DUP1 DUP1 PUSH2 0x1713 SWAP1 PUSH2 0x1EE1 JUMP JUMPDEST SWAP2 POP POP PUSH2 0x15A6 JUMP JUMPDEST POP SWAP3 SWAP4 SWAP3 POP POP POP JUMP JUMPDEST DUP3 DUP1 SLOAD PUSH2 0x1730 SWAP1 PUSH2 0x1EA6 JUMP JUMPDEST SWAP1 PUSH1 0x0 MSTORE PUSH1 0x20 PUSH1 0x0 KECCAK256 SWAP1 PUSH1 0x1F ADD PUSH1 0x20 SWAP1 DIV DUP2 ADD SWAP3 DUP3 PUSH2 0x1752 JUMPI PUSH1 0x0 DUP6 SSTORE PUSH2 0x1798 JUMP JUMPDEST DUP3 PUSH1 0x1F LT PUSH2 0x176B JUMPI DUP1 MLOAD PUSH1 0xFF NOT AND DUP4 DUP1 ADD OR DUP6 SSTORE PUSH2 0x1798 JUMP JUMPDEST DUP3 DUP1 ADD PUSH1 0x1 ADD DUP6 SSTORE DUP3 ISZERO PUSH2 0x1798 JUMPI SWAP2 DUP3 ADD JUMPDEST DUP3 DUP2 GT ISZERO PUSH2 0x1798 JUMPI DUP3 MLOAD DUP3 SSTORE SWAP2 PUSH1 0x20 ADD SWAP2 SWAP1 PUSH1 0x1 ADD SWAP1 PUSH2 0x177D JUMP JUMPDEST POP PUSH2 0x17A4 SWAP3 SWAP2 POP PUSH2 0x1833 JUMP JUMPDEST POP SWAP1 JUMP JUMPDEST POP DUP1 SLOAD PUSH2 0x17B4 SWAP1 PUSH2 0x1EA6 JUMP JUMPDEST PUSH1 0x0 DUP3 SSTORE DUP1 PUSH1 0x1F LT PUSH2 0x17C6 JUMPI POP PUSH2 0x110D JUMP JUMPDEST PUSH1 0x1F ADD PUSH1 0x20 SWAP1 DIV SWAP1 PUSH1 0x0 MSTORE PUSH1 0x20 PUSH1 0x0 KECCAK256 SWAP1 DUP2 ADD SWAP1 PUSH2 0x110D SWAP2 SWAP1 PUSH2 0x1833 JUMP JUMPDEST PUSH1 0x40 MLOAD DUP1 PUSH1 0x80 ADD PUSH1 0x40 MSTORE DUP1 PUSH1 0x60 DUP2 MSTORE PUSH1 0x20 ADD PUSH1 0x0 PUSH1 0x1 PUSH1 0x1 PUSH1 0xA0 SHL SUB AND DUP2 MSTORE PUSH1 0x20 ADD PUSH1 0x0 DUP2 MSTORE PUSH1 0x20 ADD PUSH1 0x0 PUSH1 0x3 DUP2 GT ISZERO PUSH2 0x182E JUMPI PUSH4 0x4E487B71 PUSH1 0xE0 SHL PUSH1 0x0 MSTORE PUSH1 0x21 PUSH1 0x4 MSTORE PUSH1 0x24 PUSH1 0x0 REVERT JUMPDEST SWAP1 MSTORE SWAP1 JUMP JUMPDEST JUMPDEST DUP1 DUP3 GT ISZERO PUSH2 0x17A4 JUMPI PUSH1 0x0 DUP2 SSTORE PUSH1 0x1 ADD PUSH2 0x1834 JUMP JUMPDEST DUP1 CALLDATALOAD PUSH1 0x1 PUSH1 0x1 PUSH1 0xA0 SHL SUB DUP2 AND DUP2 EQ PUSH2 0x8DC JUMPI PUSH1 0x0 DUP1 REVERT JUMPDEST DUP1 MLOAD DUP1 ISZERO ISZERO DUP2 EQ PUSH2 0x8DC JUMPI PUSH1 0x0 DUP1 REVERT JUMPDEST DUP1 MLOAD PUSH1 0x4 DUP2 LT PUSH2 0x8DC JUMPI PUSH1 0x0 DUP1 REVERT JUMPDEST PUSH1 0x0 DUP3 PUSH1 0x1F DUP4 ADD SLT PUSH2 0x188E JUMPI DUP1 DUP2 REVERT JUMPDEST DUP2 CALLDATALOAD PUSH2 0x18A1 PUSH2 0x189C DUP3 PUSH2 0x1E0B JUMP JUMPDEST PUSH2 0x1DE1 JUMP JUMPDEST DUP2 DUP2 MSTORE DUP5 PUSH1 0x20 DUP4 DUP7 ADD ADD GT ISZERO PUSH2 0x18B5 JUMPI DUP3 DUP4 REVERT JUMPDEST DUP2 PUSH1 0x20 DUP6 ADD PUSH1 0x20 DUP4 ADD CALLDATACOPY SWAP1 DUP2 ADD PUSH1 0x20 ADD SWAP2 SWAP1 SWAP2 MSTORE SWAP3 SWAP2 POP POP JUMP JUMPDEST PUSH1 0x0 DUP3 PUSH1 0x1F DUP4 ADD SLT PUSH2 0x18DF JUMPI DUP1 DUP2 REVERT JUMPDEST DUP2 MLOAD PUSH2 0x18ED PUSH2 0x189C DUP3 PUSH2 0x1E0B JUMP JUMPDEST DUP2 DUP2 MSTORE DUP5 PUSH1 0x20 DUP4 DUP7 ADD ADD GT ISZERO PUSH2 0x1901 JUMPI DUP3 DUP4 REVERT JUMPDEST PUSH2 0x1266 DUP3 PUSH1 0x20 DUP4 ADD PUSH1 0x20 DUP8 ADD PUSH2 0x1E76 JUMP JUMPDEST PUSH1 0x0 PUSH1 0x20 DUP3 DUP5 SUB SLT ISZERO PUSH2 0x1923 JUMPI DUP1 DUP2 REVERT JUMPDEST PUSH2 0x192C DUP3 PUSH2 0x1848 JUMP JUMPDEST SWAP4 SWAP3 POP POP POP JUMP JUMPDEST PUSH1 0x0 DUP1 PUSH1 0x40 DUP4 DUP6 SUB SLT ISZERO PUSH2 0x1945 JUMPI DUP1 DUP2 REVERT JUMPDEST PUSH2 0x194E DUP4 PUSH2 0x1848 JUMP JUMPDEST SWAP5 PUSH1 0x20 SWAP4 SWAP1 SWAP4 ADD CALLDATALOAD SWAP4 POP POP POP JUMP JUMPDEST PUSH1 0x0 PUSH1 0x20 DUP3 DUP5 SUB SLT ISZERO PUSH2 0x196D JUMPI DUP1 DUP2 REVERT JUMPDEST PUSH2 0x192C DUP3 PUSH2 0x185F JUMP JUMPDEST PUSH1 0x0 DUP1 PUSH1 0x40 DUP4 DUP6 SUB SLT ISZERO PUSH2 0x1988 JUMPI DUP2 DUP3 REVERT JUMPDEST DUP3 CALLDATALOAD PUSH8 0xFFFFFFFFFFFFFFFF DUP1 DUP3 GT ISZERO PUSH2 0x199F JUMPI DUP4 DUP5 REVERT JUMPDEST PUSH2 0x19AB DUP7 DUP4 DUP8 ADD PUSH2 0x187E JUMP JUMPDEST SWAP4 POP PUSH1 0x20 DUP6 ADD CALLDATALOAD SWAP2 POP DUP1 DUP3 GT ISZERO PUSH2 0x19C0 JUMPI DUP3 DUP4 REVERT JUMPDEST POP PUSH2 0x19CD DUP6 DUP3 DUP7 ADD PUSH2 0x187E JUMP JUMPDEST SWAP2 POP POP SWAP3 POP SWAP3 SWAP1 POP JUMP JUMPDEST PUSH1 0x0 PUSH1 0x20 DUP3 DUP5 SUB SLT ISZERO PUSH2 0x19E8 JUMPI DUP1 DUP2 REVERT JUMPDEST DUP2 MLOAD PUSH8 0xFFFFFFFFFFFFFFFF DUP1 DUP3 GT ISZERO PUSH2 0x19FF JUMPI DUP3 DUP4 REVERT JUMPDEST DUP2 DUP5 ADD SWAP2 POP PUSH2 0x1C0 DUP1 DUP4 DUP8 SUB SLT ISZERO PUSH2 0x1A15 JUMPI DUP4 DUP5 REVERT JUMPDEST PUSH2 0x1A1E DUP2 PUSH2 0x1DE1 JUMP JUMPDEST SWAP1 POP DUP3 MLOAD DUP2 MSTORE PUSH1 0x20 DUP4 ADD MLOAD PUSH1 0x20 DUP3 ADD MSTORE PUSH1 0x40 DUP4 ADD MLOAD PUSH1 0x40 DUP3 ADD MSTORE PUSH1 0x60 DUP4 ADD MLOAD PUSH1 0x60 DUP3 ADD MSTORE PUSH1 0x80 DUP4 ADD MLOAD PUSH1 0x80 DUP3 ADD MSTORE PUSH2 0x1A58 PUSH1 0xA0 DUP5 ADD PUSH2 0x185F JUMP JUMPDEST PUSH1 0xA0 DUP3 ADD MSTORE PUSH2 0x1A69 PUSH1 0xC0 DUP5 ADD PUSH2 0x185F JUMP JUMPDEST PUSH1 0xC0 DUP3 ADD MSTORE PUSH2 0x1A7A PUSH1 0xE0 DUP5 ADD PUSH2 0x185F JUMP JUMPDEST PUSH1 0xE0 DUP3 ADD MSTORE PUSH2 0x100 DUP4 DUP2 ADD MLOAD SWAP1 DUP3 ADD MSTORE PUSH2 0x120 DUP1 DUP5 ADD MLOAD SWAP1 DUP3 ADD MSTORE PUSH2 0x140 DUP1 DUP5 ADD MLOAD SWAP1 DUP3 ADD MSTORE PUSH2 0x160 DUP1 DUP5 ADD MLOAD SWAP1 DUP3 ADD MSTORE PUSH2 0x180 DUP1 DUP5 ADD MLOAD DUP4 DUP2 GT ISZERO PUSH2 0x1ABE JUMPI DUP6 DUP7 REVERT JUMPDEST PUSH2 0x1ACA DUP9 DUP3 DUP8 ADD PUSH2 0x18CF JUMP JUMPDEST DUP3 DUP5 ADD MSTORE POP POP PUSH2 0x1A0 SWAP2 POP PUSH2 0x1AE0 DUP3 DUP5 ADD PUSH2 0x186F JUMP JUMPDEST SWAP2 DUP2 ADD SWAP2 SWAP1 SWAP2 MSTORE SWAP5 SWAP4 POP POP POP POP JUMP JUMPDEST PUSH1 0x0 PUSH1 0x20 DUP3 DUP5 SUB SLT ISZERO PUSH2 0x1B00 JUMPI DUP1 DUP2 REVERT JUMPDEST POP CALLDATALOAD SWAP2 SWAP1 POP JUMP JUMPDEST PUSH1 0x0 DUP1 PUSH1 0x40 DUP4 DUP6 SUB SLT ISZERO PUSH2 0x1B19 JUMPI DUP2 DUP3 REVERT JUMPDEST POP POP DUP1 CALLDATALOAD SWAP3 PUSH1 0x20 SWAP1 SWAP2 ADD CALLDATALOAD SWAP2 POP JUMP JUMPDEST PUSH1 0x4 DUP2 LT PUSH2 0x1B46 JUMPI PUSH4 0x4E487B71 PUSH1 0xE0 SHL PUSH1 0x0 MSTORE PUSH1 0x21 PUSH1 0x4 MSTORE PUSH1 0x24 PUSH1 0x0 REVERT JUMPDEST SWAP1 MSTORE JUMP JUMPDEST PUSH1 0x0 DUP2 MLOAD DUP1 DUP5 MSTORE PUSH2 0x1B62 DUP2 PUSH1 0x20 DUP7 ADD PUSH1 0x20 DUP7 ADD PUSH2 0x1E76 JUMP JUMPDEST PUSH1 0x1F ADD PUSH1 0x1F NOT AND SWAP3 SWAP1 SWAP3 ADD PUSH1 0x20 ADD SWAP3 SWAP2 POP POP JUMP JUMPDEST PUSH1 0x60 SWAP2 SWAP1 SWAP2 SHL PUSH12 0xFFFFFFFFFFFFFFFFFFFFFFFF NOT AND DUP2 MSTORE PUSH1 0x14 ADD SWAP1 JUMP JUMPDEST PUSH1 0x60 SWAP3 SWAP1 SWAP3 SHL PUSH12 0xFFFFFFFFFFFFFFFFFFFFFFFF NOT AND DUP3 MSTORE PUSH1 0x14 DUP3 ADD MSTORE PUSH1 0x34 ADD SWAP1 JUMP JUMPDEST SWAP1 DUP2 MSTORE PUSH1 0x20 ADD SWAP1 JUMP JUMPDEST PUSH1 0x0 DUP3 MLOAD PUSH2 0x1BD0 DUP2 DUP5 PUSH1 0x20 DUP8 ADD PUSH2 0x1E76 JUMP JUMPDEST SWAP2 SWAP1 SWAP2 ADD SWAP3 SWAP2 POP POP JUMP JUMPDEST SWAP2 DUP3 MSTORE PUSH1 0x20 DUP3 ADD MSTORE PUSH1 0x40 ADD SWAP1 JUMP JUMPDEST PUSH1 0x1 PUSH1 0x1 PUSH1 0xA0 SHL SUB SWAP2 SWAP1 SWAP2 AND DUP2 MSTORE PUSH1 0x20 ADD SWAP1 JUMP JUMPDEST PUSH1 0x20 DUP1 DUP3 MSTORE DUP3 MLOAD DUP3 DUP3 ADD DUP2 SWAP1 MSTORE PUSH1 0x0 SWAP2 SWAP1 DUP5 DUP3 ADD SWAP1 PUSH1 0x40 DUP6 ADD SWAP1 DUP5 JUMPDEST DUP2 DUP2 LT ISZERO PUSH2 0x1C34 JUMPI DUP4 MLOAD DUP4 MSTORE SWAP3 DUP5 ADD SWAP3 SWAP2 DUP5 ADD SWAP2 PUSH1 0x1 ADD PUSH2 0x1C18 JUMP JUMPDEST POP SWAP1 SWAP7 SWAP6 POP POP POP POP POP POP JUMP JUMPDEST SWAP1 ISZERO ISZERO DUP2 MSTORE PUSH1 0x20 ADD SWAP1 JUMP JUMPDEST PUSH1 0x0 PUSH1 0x20 DUP3 MSTORE PUSH2 0x192C PUSH1 0x20 DUP4 ADD DUP5 PUSH2 0x1B4A JUMP JUMPDEST PUSH1 0x0 PUSH1 0x40 DUP3 MSTORE PUSH2 0x1C71 PUSH1 0x40 DUP4 ADD DUP6 PUSH2 0x1B4A JUMP JUMPDEST SWAP1 POP PUSH1 0x1 DUP1 PUSH1 0xA0 SHL SUB DUP4 AND PUSH1 0x20 DUP4 ADD MSTORE SWAP4 SWAP3 POP POP POP JUMP JUMPDEST PUSH1 0x0 PUSH1 0x80 DUP3 MSTORE PUSH2 0x1C9B PUSH1 0x80 DUP4 ADD DUP8 PUSH2 0x1B4A JUMP JUMPDEST PUSH1 0x1 PUSH1 0x1 PUSH1 0xA0 SHL SUB DUP7 AND PUSH1 0x20 DUP5 ADD MSTORE PUSH1 0x40 DUP4 ADD DUP6 SWAP1 MSTORE SWAP1 POP PUSH2 0x1CC0 PUSH1 0x60 DUP4 ADD DUP5 PUSH2 0x1B28 JUMP JUMPDEST SWAP6 SWAP5 POP POP POP POP POP JUMP JUMPDEST PUSH1 0x20 DUP1 DUP3 MSTORE PUSH1 0x26 SWAP1 DUP3 ADD MSTORE PUSH32 0x4F776E61626C653A206E6577206F776E657220697320746865207A65726F2061 PUSH1 0x40 DUP3 ADD MSTORE PUSH6 0x646472657373 PUSH1 0xD0 SHL PUSH1 0x60 DUP3 ADD MSTORE PUSH1 0x80 ADD SWAP1 JUMP JUMPDEST PUSH1 0x20 DUP1 DUP3 MSTORE PUSH1 0x29 SWAP1 DUP3 ADD MSTORE PUSH32 0x6B206F72204E20617265206E6F74204F4B20647572696E672072616E646F6D20 PUSH1 0x40 DUP3 ADD MSTORE PUSH9 0x39B2B632B1BA34B7B7 PUSH1 0xB9 SHL PUSH1 0x60 DUP3 ADD MSTORE PUSH1 0x80 ADD SWAP1 JUMP JUMPDEST PUSH1 0x20 DUP1 DUP3 MSTORE DUP2 DUP2 ADD MSTORE PUSH32 0x4F776E61626C653A2063616C6C6572206973206E6F7420746865206F776E6572 PUSH1 0x40 DUP3 ADD MSTORE PUSH1 0x60 ADD SWAP1 JUMP JUMPDEST PUSH1 0x0 PUSH1 0x20 DUP3 MSTORE DUP3 MLOAD PUSH1 0x80 PUSH1 0x20 DUP5 ADD MSTORE PUSH2 0x1DA9 PUSH1 0xA0 DUP5 ADD DUP3 PUSH2 0x1B4A JUMP JUMPDEST SWAP1 POP PUSH1 0x1 DUP1 PUSH1 0xA0 SHL SUB PUSH1 0x20 DUP6 ADD MLOAD AND PUSH1 0x40 DUP5 ADD MSTORE PUSH1 0x40 DUP5 ADD MLOAD PUSH1 0x60 DUP5 ADD MSTORE PUSH1 0x60 DUP5 ADD MLOAD PUSH2 0x1DD9 PUSH1 0x80 DUP6 ADD DUP3 PUSH2 0x1B28 JUMP JUMPDEST POP SWAP4 SWAP3 POP POP POP JUMP JUMPDEST PUSH1 0x40 MLOAD DUP2 DUP2 ADD PUSH8 0xFFFFFFFFFFFFFFFF DUP2 GT DUP3 DUP3 LT OR ISZERO PUSH2 0x1E03 JUMPI PUSH2 0x1E03 PUSH2 0x1F3C JUMP JUMPDEST PUSH1 0x40 MSTORE SWAP2 SWAP1 POP JUMP JUMPDEST PUSH1 0x0 PUSH8 0xFFFFFFFFFFFFFFFF DUP3 GT ISZERO PUSH2 0x1E25 JUMPI PUSH2 0x1E25 PUSH2 0x1F3C JUMP JUMPDEST POP PUSH1 0x1F ADD PUSH1 0x1F NOT AND PUSH1 0x20 ADD SWAP1 JUMP JUMPDEST PUSH1 0x0 DUP3 NOT DUP3 GT ISZERO PUSH2 0x1E46 JUMPI PUSH2 0x1E46 PUSH2 0x1F10 JUMP JUMPDEST POP ADD SWAP1 JUMP JUMPDEST PUSH1 0x0 DUP3 PUSH2 0x1E5A JUMPI PUSH2 0x1E5A PUSH2 0x1F26 JUMP JUMPDEST POP DIV SWAP1 JUMP JUMPDEST PUSH1 0x0 DUP3 DUP3 LT ISZERO PUSH2 0x1E71 JUMPI PUSH2 0x1E71 PUSH2 0x1F10 JUMP JUMPDEST POP SUB SWAP1 JUMP JUMPDEST PUSH1 0x0 JUMPDEST DUP4 DUP2 LT ISZERO PUSH2 0x1E91 JUMPI DUP2 DUP2 ADD MLOAD DUP4 DUP3 ADD MSTORE PUSH1 0x20 ADD PUSH2 0x1E79 JUMP JUMPDEST DUP4 DUP2 GT ISZERO PUSH2 0x1EA0 JUMPI PUSH1 0x0 DUP5 DUP5 ADD MSTORE JUMPDEST POP POP POP POP JUMP JUMPDEST PUSH1 0x2 DUP2 DIV PUSH1 0x1 DUP3 AND DUP1 PUSH2 0x1EBA JUMPI PUSH1 0x7F DUP3 AND SWAP2 POP JUMPDEST PUSH1 0x20 DUP3 LT DUP2 EQ ISZERO PUSH2 0x1EDB JUMPI PUSH4 0x4E487B71 PUSH1 0xE0 SHL PUSH1 0x0 MSTORE PUSH1 0x22 PUSH1 0x4 MSTORE PUSH1 0x24 PUSH1 0x0 REVERT JUMPDEST POP SWAP2 SWAP1 POP JUMP JUMPDEST PUSH1 0x0 PUSH1 0x0 NOT DUP3 EQ ISZERO PUSH2 0x1EF5 JUMPI PUSH2 0x1EF5 PUSH2 0x1F10 JUMP JUMPDEST POP PUSH1 0x1 ADD SWAP1 JUMP JUMPDEST PUSH1 0x0 DUP3 PUSH2 0x1F0B JUMPI PUSH2 0x1F0B PUSH2 0x1F26 JUMP JUMPDEST POP MOD SWAP1 JUMP JUMPDEST PUSH4 0x4E487B71 PUSH1 0xE0 SHL PUSH1 0x0 MSTORE PUSH1 0x11 PUSH1 0x4 MSTORE PUSH1 0x24 PUSH1 0x0 REVERT JUMPDEST PUSH4 0x4E487B71 PUSH1 0xE0 SHL PUSH1 0x0 MSTORE PUSH1 0x12 PUSH1 0x4 MSTORE PUSH1 0x24 PUSH1 0x0 REVERT JUMPDEST PUSH4 0x4E487B71 PUSH1 0xE0 SHL PUSH1 0x0 MSTORE PUSH1 0x41 PUSH1 0x4 MSTORE PUSH1 0x24 PUSH1 0x0 REVERT INVALID LOG2 PUSH5 0x6970667358 0x22 SLT KECCAK256 LOG3 POP 0xB1 DUP9 PUSH26 0xD3052BC0FC1271A62BFE107979ADBB26AFCFEB61EAAD098C8816 DUP2 PUSH5 0x736F6C6343 STOP ADDMOD STOP STOP CALLER "
		},
		"gasEstimates": {
			"creation": {
				"codeDepositCost": "1614400",
				"executionCost": "infinite",
				"totalCost": "infinite"
			},
			"external": {
				"AddressManager()": "1160",
				"AllTxsCounter()": "1094",
				"AllocatedBatchCursor()": "1161",
				"ArchiveMapping(uint256)": "infinite",
				"AreStringsEqual(string,string)": "infinite",
				"BatchCheckingCursor()": "1161",
				"CollectedFormatBatchs(uint256)": "1274",
				"DataExists(uint256)": "1249",
				"DataNonce()": "1097",
				"FormatStakedTokenBalance(address)": "1298",
				"FormattingSystem()": "1159",
				"LastBatchCounter()": "1073",
				"MasterWorkers(address,uint256)": "2363",
				"Ping(uint256)": "infinite",
				"RepManager()": "1183",
				"RewardManager()": "1204",
				"StakeManager()": "1204",
				"WorkersPerBatch(uint256,uint256)": "2262",
				"attrUUID(address,uint256)": "779",
				"availableWorkers(uint256)": "2173",
				"busyWorkers(uint256)": "2150",
				"deleteData(uint256)": "infinite",
				"deleteMapping(uint256)": "23040",
				"generateIntegers(uint256,uint256)": "infinite",
				"getBlockTimestamp()": "295",
				"getDataById(uint256)": "infinite",
				"getFileById(uint256)": "infinite",
				"getLastDataId()": "1096",
				"getRandom()": "infinite",
				"getSeed()": "infinite",
				"getTxCounter()": "1138",
				"owner()": "1181",
				"random_selection(uint256,uint256)": "infinite",
				"renounceOwnership()": "23550",
				"sFuel()": "1204",
				"shuffle_array(uint256)": "infinite",
				"token()": "1224",
				"transferOwnership(address)": "23787",
				"updateAddressManager(address)": "22190",
				"updatePreviousSystem(address)": "22147",
				"updateRepManager(address)": "22146",
				"updateRewardManager(address)": "22148",
				"updateStakeManager(address)": "22168"
			},
			"internal": {
				"PopFromAvailableWorkers(address)": "infinite",
				"PopFromBusyWorkers(address)": "infinite",
				"_retrieveSFuel()": "infinite",
				"isInAvailableWorkers(address)": "infinite",
				"isInBusyWorkers(address)": "infinite"
			}
		},
		"methodIdentifiers": {
			"AddressManager()": "7a34da67",
			"AllTxsCounter()": "f2d9e74d",
			"AllocatedBatchCursor()": "d6b0206c",
			"ArchiveMapping(uint256)": "8cbdab3c",
			"AreStringsEqual(string,string)": "a9057790",
			"BatchCheckingCursor()": "ef4fcdad",
			"CollectedFormatBatchs(uint256)": "171ee06a",
			"DataExists(uint256)": "f721de4a",
			"DataNonce()": "0e6661a7",
			"FormatStakedTokenBalance(address)": "353f44d0",
			"FormattingSystem()": "8d289f8f",
			"LastBatchCounter()": "8473850b",
			"MasterWorkers(address,uint256)": "d822ce01",
			"Ping(uint256)": "48257dc9",
			"RepManager()": "29a47bc7",
			"RewardManager()": "51912f29",
			"StakeManager()": "83cc6ef2",
			"WorkersPerBatch(uint256,uint256)": "8df0296e",
			"attrUUID(address,uint256)": "a1103f37",
			"availableWorkers(uint256)": "3538af82",
			"busyWorkers(uint256)": "821aa8c0",
			"deleteData(uint256)": "4fe8b4c1",
			"deleteMapping(uint256)": "ced5ca6f",
			"generateIntegers(uint256,uint256)": "b1d7ea98",
			"getBlockTimestamp()": "796b89b9",
			"getDataById(uint256)": "f2722a9f",
			"getFileById(uint256)": "e4e6025e",
			"getLastDataId()": "a511dba0",
			"getRandom()": "aacc5a17",
			"getSeed()": "39e7357c",
			"getTxCounter()": "f5ae7c7d",
			"owner()": "8da5cb5b",
			"random_selection(uint256,uint256)": "b8f011b3",
			"renounceOwnership()": "715018a6",
			"sFuel()": "ab43e78d",
			"shuffle_array(uint256)": "e44c974b",
			"token()": "fc0c546a",
			"transferOwnership(address)": "f2fde38b",
			"updateAddressManager(address)": "c47c4bc2",
			"updatePreviousSystem(address)": "a16a11e0",
			"updateRepManager(address)": "dd618682",
			"updateRewardManager(address)": "050eb2eb",
			"updateStakeManager(address)": "df05368e"
		}
	},
	"abi": [
		{
			"inputs": [
				{
					"internalType": "address",
					"name": "EXDT_token",
					"type": "address"
				},
				{
					"internalType": "address",
					"name": "_FormattingSystem",
					"type": "address"
				}
			],
			"stateMutability": "nonpayable",
			"type": "constructor"
		},
		{
			"anonymous": false,
			"inputs": [
				{
					"indexed": false,
					"internalType": "bytes",
					"name": "bytesFailure",
					"type": "bytes"
				}
			],
			"name": "BytesFailure",
			"type": "event"
		},
		{
			"anonymous": false,
			"inputs": [
				{
					"indexed": true,
					"internalType": "address",
					"name": "previousOwner",
					"type": "address"
				},
				{
					"indexed": true,
					"internalType": "address",
					"name": "newOwner",
					"type": "address"
				}
			],
			"name": "OwnershipTransferred",
			"type": "event"
		},
		{
			"anonymous": false,
			"inputs": [
				{
					"indexed": true,
					"internalType": "uint256",
					"name": "DataID",
					"type": "uint256"
				},
				{
					"indexed": false,
					"internalType": "string",
					"name": "file_hash",
					"type": "string"
				},
				{
					"indexed": false,
					"internalType": "address",
					"name": "sender",
					"type": "address"
				}
			],
			"name": "_DataArchive",
			"type": "event"
		},
		{
			"anonymous": false,
			"inputs": [
				{
					"indexed": true,
					"internalType": "uint256",
					"name": "DataID",
					"type": "uint256"
				},
				{
					"indexed": true,
					"internalType": "address",
					"name": "voter",
					"type": "address"
				}
			],
			"name": "_TokensRescued",
			"type": "event"
		},
		{
			"anonymous": false,
			"inputs": [
				{
					"indexed": false,
					"internalType": "uint256",
					"name": "numTokens",
					"type": "uint256"
				},
				{
					"indexed": true,
					"internalType": "address",
					"name": "voter",
					"type": "address"
				}
			],
			"name": "_VotingRightsGranted",
			"type": "event"
		},
		{
			"anonymous": false,
			"inputs": [
				{
					"indexed": false,
					"internalType": "uint256",
					"name": "numTokens",
					"type": "uint256"
				},
				{
					"indexed": true,
					"internalType": "address",
					"name": "voter",
					"type": "address"
				}
			],
			"name": "_VotingRightsWithdrawn",
			"type": "event"
		},
		{
			"anonymous": false,
			"inputs": [
				{
					"indexed": true,
					"internalType": "uint256",
					"name": "batchID",
					"type": "uint256"
				},
				{
					"indexed": false,
					"internalType": "address",
					"name": "worker",
					"type": "address"
				}
			],
			"name": "_WorkAllocated",
			"type": "event"
		},
		{
			"anonymous": false,
			"inputs": [
				{
					"indexed": true,
					"internalType": "address",
					"name": "worker",
					"type": "address"
				},
				{
					"indexed": false,
					"internalType": "uint256",
					"name": "timestamp",
					"type": "uint256"
				}
			],
			"name": "_WorkerRegistered",
			"type": "event"
		},
		{
			"anonymous": false,
			"inputs": [
				{
					"indexed": true,
					"internalType": "address",
					"name": "worker",
					"type": "address"
				},
				{
					"indexed": false,
					"internalType": "uint256",
					"name": "timestamp",
					"type": "uint256"
				}
			],
			"name": "_WorkerUnregistered",
			"type": "event"
		},
		{
			"inputs": [],
			"name": "AddressManager",
			"outputs": [
				{
					"internalType": "contract IAddressManager",
					"name": "",
					"type": "address"
				}
			],
			"stateMutability": "view",
			"type": "function"
		},
		{
			"inputs": [],
			"name": "AllTxsCounter",
			"outputs": [
				{
					"internalType": "uint256",
					"name": "",
					"type": "uint256"
				}
			],
			"stateMutability": "view",
			"type": "function"
		},
		{
			"inputs": [],
			"name": "AllocatedBatchCursor",
			"outputs": [
				{
					"internalType": "uint256",
					"name": "",
					"type": "uint256"
				}
			],
			"stateMutability": "view",
			"type": "function"
		},
		{
			"inputs": [
				{
					"internalType": "uint256",
					"name": "",
					"type": "uint256"
				}
			],
			"name": "ArchiveMapping",
			"outputs": [
				{
					"internalType": "string",
					"name": "ipfs_hash",
					"type": "string"
				},
				{
					"internalType": "address",
					"name": "author",
					"type": "address"
				},
				{
					"internalType": "uint256",
					"name": "timestamp",
					"type": "uint256"
				},
				{
					"internalType": "enum DataArchive.DataStatus",
					"name": "status",
					"type": "uint8"
				}
			],
			"stateMutability": "view",
			"type": "function"
		},
		{
			"inputs": [
				{
					"internalType": "string",
					"name": "_a",
					"type": "string"
				},
				{
					"internalType": "string",
					"name": "_b",
					"type": "string"
				}
			],
			"name": "AreStringsEqual",
			"outputs": [
				{
					"internalType": "bool",
					"name": "",
					"type": "bool"
				}
			],
			"stateMutability": "pure",
			"type": "function"
		},
		{
			"inputs": [],
			"name": "BatchCheckingCursor",
			"outputs": [
				{
					"internalType": "uint256",
					"name": "",
					"type": "uint256"
				}
			],
			"stateMutability": "view",
			"type": "function"
		},
		{
			"inputs": [
				{
					"internalType": "uint256",
					"name": "",
					"type": "uint256"
				}
			],
			"name": "CollectedFormatBatchs",
			"outputs": [
				{
					"internalType": "bool",
					"name": "",
					"type": "bool"
				}
			],
			"stateMutability": "view",
			"type": "function"
		},
		{
			"inputs": [
				{
					"internalType": "uint256",
					"name": "_DataId",
					"type": "uint256"
				}
			],
			"name": "DataExists",
			"outputs": [
				{
					"internalType": "bool",
					"name": "exists",
					"type": "bool"
				}
			],
			"stateMutability": "view",
			"type": "function"
		},
		{
			"inputs": [],
			"name": "DataNonce",
			"outputs": [
				{
					"internalType": "uint256",
					"name": "",
					"type": "uint256"
				}
			],
			"stateMutability": "view",
			"type": "function"
		},
		{
			"inputs": [
				{
					"internalType": "address",
					"name": "",
					"type": "address"
				}
			],
			"name": "FormatStakedTokenBalance",
			"outputs": [
				{
					"internalType": "uint256",
					"name": "",
					"type": "uint256"
				}
			],
			"stateMutability": "view",
			"type": "function"
		},
		{
			"inputs": [],
			"name": "FormattingSystem",
			"outputs": [
				{
					"internalType": "contract IFormattingSystem",
					"name": "",
					"type": "address"
				}
			],
			"stateMutability": "view",
			"type": "function"
		},
		{
			"inputs": [],
			"name": "LastBatchCounter",
			"outputs": [
				{
					"internalType": "uint256",
					"name": "",
					"type": "uint256"
				}
			],
			"stateMutability": "view",
			"type": "function"
		},
		{
			"inputs": [
				{
					"internalType": "address",
					"name": "",
					"type": "address"
				},
				{
					"internalType": "uint256",
					"name": "",
					"type": "uint256"
				}
			],
			"name": "MasterWorkers",
			"outputs": [
				{
					"internalType": "address",
					"name": "",
					"type": "address"
				}
			],
			"stateMutability": "view",
			"type": "function"
		},
		{
			"inputs": [
				{
					"internalType": "uint256",
					"name": "CheckedBatchId",
					"type": "uint256"
				}
			],
			"name": "Ping",
			"outputs": [
				{
					"internalType": "bool",
					"name": "",
					"type": "bool"
				}
			],
			"stateMutability": "nonpayable",
			"type": "function"
		},
		{
			"inputs": [],
			"name": "RepManager",
			"outputs": [
				{
					"internalType": "contract IRepManager",
					"name": "",
					"type": "address"
				}
			],
			"stateMutability": "view",
			"type": "function"
		},
		{
			"inputs": [],
			"name": "RewardManager",
			"outputs": [
				{
					"internalType": "contract IRewardManager",
					"name": "",
					"type": "address"
				}
			],
			"stateMutability": "view",
			"type": "function"
		},
		{
			"inputs": [],
			"name": "StakeManager",
			"outputs": [
				{
					"internalType": "contract IStakeManager",
					"name": "",
					"type": "address"
				}
			],
			"stateMutability": "view",
			"type": "function"
		},
		{
			"inputs": [
				{
					"internalType": "uint256",
					"name": "",
					"type": "uint256"
				},
				{
					"internalType": "uint256",
					"name": "",
					"type": "uint256"
				}
			],
			"name": "WorkersPerBatch",
			"outputs": [
				{
					"internalType": "address",
					"name": "",
					"type": "address"
				}
			],
			"stateMutability": "view",
			"type": "function"
		},
		{
			"inputs": [
				{
					"internalType": "address",
					"name": "_user",
					"type": "address"
				},
				{
					"internalType": "uint256",
					"name": "_DataBatchId",
					"type": "uint256"
				}
			],
			"name": "attrUUID",
			"outputs": [
				{
					"internalType": "bytes32",
					"name": "UUID",
					"type": "bytes32"
				}
			],
			"stateMutability": "pure",
			"type": "function"
		},
		{
			"inputs": [
				{
					"internalType": "uint256",
					"name": "",
					"type": "uint256"
				}
			],
			"name": "availableWorkers",
			"outputs": [
				{
					"internalType": "address",
					"name": "",
					"type": "address"
				}
			],
			"stateMutability": "view",
			"type": "function"
		},
		{
			"inputs": [
				{
					"internalType": "uint256",
					"name": "",
					"type": "uint256"
				}
			],
			"name": "busyWorkers",
			"outputs": [
				{
					"internalType": "address",
					"name": "",
					"type": "address"
				}
			],
			"stateMutability": "view",
			"type": "function"
		},
		{
			"inputs": [
				{
					"internalType": "uint256",
					"name": "_DataId",
					"type": "uint256"
				}
			],
			"name": "deleteData",
			"outputs": [],
			"stateMutability": "nonpayable",
			"type": "function"
		},
		{
			"inputs": [
				{
					"internalType": "uint256",
					"name": "_CheckedBatchId",
					"type": "uint256"
				}
			],
			"name": "deleteMapping",
			"outputs": [],
			"stateMutability": "nonpayable",
			"type": "function"
		},
		{
			"inputs": [
				{
					"internalType": "uint256",
					"name": "_k",
					"type": "uint256"
				},
				{
					"internalType": "uint256",
					"name": "N_range",
					"type": "uint256"
				}
			],
			"name": "generateIntegers",
			"outputs": [
				{
					"internalType": "uint256[]",
					"name": "",
					"type": "uint256[]"
				}
			],
			"stateMutability": "view",
			"type": "function"
		},
		{
			"inputs": [],
			"name": "getBlockTimestamp",
			"outputs": [
				{
					"internalType": "uint256",
					"name": "blocktimestamp",
					"type": "uint256"
				}
			],
			"stateMutability": "view",
			"type": "function"
		},
		{
			"inputs": [
				{
					"internalType": "uint256",
					"name": "_DataID",
					"type": "uint256"
				}
			],
			"name": "getDataById",
			"outputs": [
				{
					"components": [
						{
							"internalType": "string",
							"name": "ipfs_hash",
							"type": "string"
						},
						{
							"internalType": "address",
							"name": "author",
							"type": "address"
						},
						{
							"internalType": "uint256",
							"name": "timestamp",
							"type": "uint256"
						},
						{
							"internalType": "enum DataArchive.DataStatus",
							"name": "status",
							"type": "uint8"
						}
					],
					"internalType": "struct DataArchive.ArchiveData",
					"name": "data",
					"type": "tuple"
				}
			],
			"stateMutability": "view",
			"type": "function"
		},
		{
			"inputs": [
				{
					"internalType": "uint256",
					"name": "_DataID",
					"type": "uint256"
				}
			],
			"name": "getFileById",
			"outputs": [
				{
					"internalType": "string",
					"name": "ipfs_hash",
					"type": "string"
				}
			],
			"stateMutability": "view",
			"type": "function"
		},
		{
			"inputs": [],
			"name": "getLastDataId",
			"outputs": [
				{
					"internalType": "uint256",
					"name": "DataId",
					"type": "uint256"
				}
			],
			"stateMutability": "view",
			"type": "function"
		},
		{
			"inputs": [],
			"name": "getRandom",
			"outputs": [
				{
					"internalType": "uint256",
					"name": "",
					"type": "uint256"
				}
			],
			"stateMutability": "view",
			"type": "function"
		},
		{
			"inputs": [],
			"name": "getSeed",
			"outputs": [
				{
					"internalType": "bytes32",
					"name": "addr",
					"type": "bytes32"
				}
			],
			"stateMutability": "view",
			"type": "function"
		},
		{
			"inputs": [],
			"name": "getTxCounter",
			"outputs": [
				{
					"internalType": "uint256",
					"name": "Counter",
					"type": "uint256"
				}
			],
			"stateMutability": "view",
			"type": "function"
		},
		{
			"inputs": [],
			"name": "owner",
			"outputs": [
				{
					"internalType": "address",
					"name": "",
					"type": "address"
				}
			],
			"stateMutability": "view",
			"type": "function"
		},
		{
			"inputs": [
				{
					"internalType": "uint256",
					"name": "k",
					"type": "uint256"
				},
				{
					"internalType": "uint256",
					"name": "N",
					"type": "uint256"
				}
			],
			"name": "random_selection",
			"outputs": [
				{
					"internalType": "uint256[]",
					"name": "",
					"type": "uint256[]"
				}
			],
			"stateMutability": "view",
			"type": "function"
		},
		{
			"inputs": [],
			"name": "renounceOwnership",
			"outputs": [],
			"stateMutability": "nonpayable",
			"type": "function"
		},
		{
			"inputs": [],
			"name": "sFuel",
			"outputs": [
				{
					"internalType": "address",
					"name": "",
					"type": "address"
				}
			],
			"stateMutability": "view",
			"type": "function"
		},
		{
			"inputs": [
				{
					"internalType": "uint256",
					"name": "N",
					"type": "uint256"
				}
			],
			"name": "shuffle_array",
			"outputs": [
				{
					"internalType": "uint256[]",
					"name": "",
					"type": "uint256[]"
				}
			],
			"stateMutability": "view",
			"type": "function"
		},
		{
			"inputs": [],
			"name": "token",
			"outputs": [
				{
					"internalType": "contract IERC20",
					"name": "",
					"type": "address"
				}
			],
			"stateMutability": "view",
			"type": "function"
		},
		{
			"inputs": [
				{
					"internalType": "address",
					"name": "newOwner",
					"type": "address"
				}
			],
			"name": "transferOwnership",
			"outputs": [],
			"stateMutability": "nonpayable",
			"type": "function"
		},
		{
			"inputs": [
				{
					"internalType": "address",
					"name": "addr",
					"type": "address"
				}
			],
			"name": "updateAddressManager",
			"outputs": [],
			"stateMutability": "nonpayable",
			"type": "function"
		},
		{
			"inputs": [
				{
					"internalType": "address",
					"name": "addr",
					"type": "address"
				}
			],
			"name": "updatePreviousSystem",
			"outputs": [],
			"stateMutability": "nonpayable",
			"type": "function"
		},
		{
			"inputs": [
				{
					"internalType": "address",
					"name": "addr",
					"type": "address"
				}
			],
			"name": "updateRepManager",
			"outputs": [],
			"stateMutability": "nonpayable",
			"type": "function"
		},
		{
			"inputs": [
				{
					"internalType": "address",
					"name": "addr",
					"type": "address"
				}
			],
			"name": "updateRewardManager",
			"outputs": [],
			"stateMutability": "nonpayable",
			"type": "function"
		},
		{
			"inputs": [
				{
					"internalType": "address",
					"name": "addr",
					"type": "address"
				}
			],
			"name": "updateStakeManager",
			"outputs": [],
			"stateMutability": "nonpayable",
			"type": "function"
		}
	]
}