{
	"data": {
		"bytecode": {
			"linkReferences": {},
			"object": "60806040526103e86001556032600255603260035562030d40600455600160055568015af1d78b58c400006006556002600755600460085560b460095560b4600a5566038d7ea4c68000600b55662386f26fc10000600c5566038d7ea4c68000600d55662386f26fc10000600e55610190600f556001601060006101000a81548160ff0219169083151502179055506103846011556103e8601255601960135560046014556003601555610e1060165560016017556002601855600460195568015af1d78b58c40000601a55610190601b5560b4601c5566038d7ea4c68000601d55662386f26fc10000601e556001601f556002602055600460215568015af1d78b58c4000060225561019060235560b460245566038d7ea4c68000602555662386f26fc1000060265560016027556002602855600460295568015af1d78b58c40000602a55610190602b5560b4602c5566038d7ea4c68000602d55662386f26fc10000602e5534801561017257600080fd5b5061018361017e610188565b61018c565b6101dc565b3390565b600080546001600160a01b038381166001600160a01b0319831681178455604051919092169283917f8be0079c531659141344cd1fd0a4f28419497f9722a3daafe3b4186f6b6457e09190a35050565b61176b806101eb6000396000f3fe608060405234801561001057600080fd5b50600436106107635760003560e01c80638a13725d116103c9578063cb3a2a88116101ff578063e6fdd4c011610125578063f5bec1ad116100b8578063fbf1485111610087578063fbf1485114610ba7578063fc0c546a14610baf578063ff622dda14610bb7578063fff5f94614610bbf57610763565b8063f5bec1ad14610b87578063f67362fe14610b8f578063f80de0a014610b97578063fb50a47314610b9f57610763565b8063ee37f4a6116100f4578063ee37f4a614610b51578063f116c4e014610b64578063f2fde38b14610b6c578063f4e20b9c14610b7f57610763565b8063e6fdd4c014610b31578063e9704f8114610b39578063e992dca714610b41578063ea19733c14610b4957610763565b8063dfeceed71161019d578063e3dfc0b21161016c578063e3dfc0b214610b11578063e5f1482414610b19578063e66d543a14610b21578063e68c9c3014610b2957610763565b8063dfeceed714610ae6578063e0de3d7c14610aee578063e168063c14610af6578063e3115d3c14610b0957610763565b8063d4efd2ba116101d9578063d4efd2ba14610ac6578063d81109ce14610ace578063d8645d3714610ad6578063dc7048c114610ade57610763565b8063cb3a2a8814610aae578063d0eed96714610ab6578063d1a89a4614610abe57610763565b8063abb10b9b116102ef578063be25098811610282578063c6eacbfe11610251578063c6eacbfe14610a8e578063c7761fab14610a96578063c95b53c514610a9e578063ca64f9e714610aa657610763565b8063be25098814610a6e578063bf09ff7014610a76578063bf34f74914610a7e578063c4a306f814610a8657610763565b8063b45d9d8d116102be578063b45d9d8d14610a4e578063b611845014610a56578063b6c6ec0214610a5e578063bd40ef4c14610a6657610763565b8063abb10b9b14610a2e578063ac846e7914610a36578063b1562f6714610a3e578063b38e885e14610a4657610763565b8063995adbdd11610367578063a1a4575a11610336578063a1a4575a14610a0e578063a327181b14610a16578063a35b3b0914610a1e578063ab43e78d14610a2657610763565b8063995adbdd146109ee5780639a175938146109f65780639d1f2ada146109fe5780639fb491f614610a0657610763565b806390d10b6e116103a357806390d10b6e146109ce5780639279e9d4146109d657806398a54e2b146109de5780639904ed8d146109e657610763565b80638a13725d146109b65780638da5cb5b146109be57806390cc59eb146109c657610763565b806349b467871161059e578063728d23ab116104c45780638360034d116104575780638724450f116104265780638724450f1461099657806387ce63111461099e578063893b2a76146109a657806389b212d3146109ae57610763565b80638360034d1461097657806383cc6ef21461097e578063849f9f0a1461098657806386b0b4c51461098e57610763565b80637a0ec25b116104935780637a0ec25b146109565780637a34da671461095e5780637d630cb0146109665780637e8603e91461096e57610763565b8063728d23ab1461092b57806372e540301461093357806375dc61301461093b578063779231b21461094e57610763565b8063557c1abe1161053c578063618790751161050b57806361879075146109005780636785f847146109135780636a8e0ece1461091b578063715018a61461092357610763565b8063557c1abe146108d557806355a35f5c146108dd5780635cb361f6146108f05780635d1c3182146108f857610763565b80634ed60b2a116105785780634ed60b2a146108b557806351912f29146108bd578063531780bb146108c55780635492f302146108cd57610763565b806349b467871461089d5780634e5638f5146108a55780634e87c5a8146108ad57610763565b80632b0afab31161068e5780633692616a1161062157806342df5641116105f057806342df56411461087d578063444d62b614610885578063463444b71461088d578063484df80a1461089557610763565b80633692616a1461085057806336fc43fc14610858578063386d09761461086d5780633968ec841461087557610763565b80632e2f93f31161065d5780632e2f93f31461083057806330c0bb791461083857806331911c911461084057806334c37e211461084857610763565b80632b0afab3146108055780632be059601461080d5780632bf8abb3146108155780632d09a8e31461081d57610763565b80630a5a4c2011610706578063175bf630116106d5578063175bf630146107e55780631d0fb88e146107ed57806329a47bc7146107f557806329e3dd1f146107fd57610763565b80630a5a4c20146107c55780630b08bfd9146107cd5780630f1f0ffe146107d55780630f78cc76146107dd57610763565b806306606d671161074257806306606d67146107a35780630855d151146107ab57806308e7f0db146107b3578063092a5cce146107bb57610763565b8062653ff8146107685780630363a1bf1461078657806304e76c8f1461078e575b600080fd5b610770610bc7565b60405161077d919061172c565b60405180910390f35b610770610bcd565b610796610bd3565b60405161077d9190611692565b610796610be2565b610796610bf1565b610770610c00565b6107c3610c06565b005b610770610c21565b610770610c27565b610770610c2d565b610770610c33565b610770610c39565b610770610c3f565b610796610c45565b610770610c54565b610770610c5a565b610770610c60565b610770610c66565b6107c361082b36600461156a565b610c6c565b610796610e5a565b610770610e69565b610770610e6f565b610770610e75565b610770610e7b565b610860610e81565b60405161077d91906116a6565b610770610e8a565b610770610e90565b610770610e96565b610770610e9c565b610796610ea2565b610770610eb1565b610770610eb7565b610770610ebd565b610860610ec3565b610770610ecc565b610796610ed2565b610770610ee1565b610796610ee7565b610796610ef6565b6107c36108eb366004611635565b610f05565b610770610f89565b610770610f8f565b6107c361090e366004611635565b610f95565b610770610fd9565b610770610fdf565b6107c3610fe5565b610770610ff9565b610770610fff565b6107c3610949366004611635565b611005565b610770611085565b61079661108b565b61079661109a565b6107706110a9565b6107706110af565b6107706110b5565b6107966110bb565b6107706110ca565b6107706110d0565b6107706110d6565b6107706110dc565b6107706110e2565b6107706110e8565b6107706110ee565b6107966110f4565b610770611103565b610770611109565b61077061110f565b610770611115565b61079661111b565b61077061112a565b610770611130565b610770611136565b61077061113c565b610770611142565b610770611148565b61077061114e565b610796611154565b610770611163565b610770611169565b61077061116f565b610770611175565b61079661117b565b61077061118a565b610796611190565b61077061119f565b6107706111a5565b6107706111ab565b6107706111b1565b6107706111b7565b6107706111bd565b6107706111c3565b6107706111c9565b6107966111cf565b6107706111de565b6107706111e4565b6107706111ea565b6107706111f0565b6107706111f6565b6107966111fc565b61077061120b565b610770611211565b610770611217565b6107c3610b04366004611635565b61121d565b61077061129d565b6107706112a3565b6107706112a9565b6107706112af565b6107706112b5565b6107706112bb565b6107706112c1565b6107966112c7565b6107706112d6565b6107c3610b5f366004611656565b6112dc565b610770611400565b6107c3610b7a366004611549565b611406565b610770611449565b61077061144f565b610796611455565b610770611464565b61077061146a565b610796611470565b61079661147f565b61077061148e565b610770611494565b60065481565b60275490565b6033546001600160a01b031690565b6037546001600160a01b031681565b6032546001600160a01b031690565b602d5481565b610c0e61149a565b610c166110f4565b6001600160a01b0316ff5b602a5481565b600e5490565b60165490565b60115490565b60175481565b600a5481565b6032546001600160a01b031681565b602c5490565b601c5490565b60265481565b60255481565b610c7461149a565b6001600160a01b038b1615610c9f57603080546001600160a01b0319166001600160a01b038d161790555b6001600160a01b038a1615610cca57603280546001600160a01b0319166001600160a01b038c161790555b6001600160a01b03891615610cf557603180546001600160a01b0319166001600160a01b038b161790555b6001600160a01b03881615610d2057603380546001600160a01b0319166001600160a01b038a161790555b6001600160a01b03871615610d4b57603480546001600160a01b0319166001600160a01b0389161790555b6001600160a01b03851615610d7657603780546001600160a01b0319166001600160a01b0387161790555b6001600160a01b03861615610da157603680546001600160a01b0319166001600160a01b0388161790555b6001600160a01b03841615610dcc57603880546001600160a01b0319166001600160a01b0386161790555b6001600160a01b03831615610df757603980546001600160a01b0319166001600160a01b0385161790555b6001600160a01b03821615610e2257603580546001600160a01b0319166001600160a01b0384161790555b6001600160a01b03811615610e4d57602f80546001600160a01b0319166001600160a01b0383161790555b5050505050505050505050565b602f546001600160a01b031690565b600b5490565b60195481565b601d5481565b60095490565b60105460ff1681565b60255490565b60295490565b601a5481565b60205481565b6039546001600160a01b031690565b601b5490565b602e5490565b60045481565b60105460ff1690565b60275481565b6033546001600160a01b031681565b602b5481565b6034546001600160a01b031690565b6035546001600160a01b031690565b610f0d61149a565b8160011415610f1c5760278190555b8160021415610f2b57602a8190555b8160031415610f3a5760288190555b8160041415610f495760298190555b8160051415610f5857602b8190555b8160061415610f6757602c8190555b8160071415610f7657602e8190555b8160081415610f8557602d8190555b5050565b600c5481565b60285481565b610f9d61149a565b8160011415610fac5760018190555b8160021415610fbb5760028190555b8160031415610fca5760038190555b8160041415610f855760045550565b601b5481565b601e5481565b610fed61149a565b610ff760006114d9565b565b60185481565b600a5490565b61100d61149a565b816001141561101c57601f8190555b816002141561102b5760228190555b816003141561103a5760208190555b81600414156110495760218190555b81600514156110585760238190555b81600614156110675760248190555b81600714156110765760268190555b8160081415610f855760255550565b60225481565b6038546001600160a01b031690565b6034546001600160a01b031681565b60035490565b60245481565b602c5481565b6030546001600160a01b031681565b60265490565b600e5481565b600d5481565b60115481565b602d5490565b601e5490565b60245490565b6000546001600160a01b031690565b60235490565b60035481565b602b5490565b60015490565b6031546001600160a01b031681565b60285490565b601c5481565b60055490565b60155490565b60205490565b60015481565b60085481565b6035546001600160a01b031681565b600c5490565b60295481565b602a5490565b60125490565b6036546001600160a01b031690565b60145481565b6039546001600160a01b031681565b60075490565b60135490565b60135481565b60225490565b600f5490565b60055481565b60025481565b601f5481565b6030546001600160a01b031690565b601f5490565b60165481565b60175490565b60155481565b600b5481565b6036546001600160a01b031681565b60195490565b60085490565b60125481565b61122561149a565b81600114156112345760178190555b816002141561124357601a8190555b81600314156112525760188190555b81600414156112615760198190555b816005141561127057601b8190555b816006141561127f57601c8190555b816007141561128e57601e8190555b8160081415610f8557601d5550565b60045490565b601a5490565b600f5481565b60145490565b60215490565b60095481565b60235481565b6031546001600160a01b031690565b60025490565b6112e461149a565b82600114156112f35760058290555b82600214156113025760068290555b82600314156113115760078290555b82600414156113205760088290555b826005141561132f5760098290555b826006141561133e57600a8290555b826007141561134d57600b8290555b826008141561135c57600c8290555b826009141561136b57600d8290555b82600a141561137a57600e8290555b82600b141561138957600f8290555b82600c14156113a1576010805460ff19168215151790555b82600d14156113b05760118290555b82600e14156113bf5760128290555b82600f14156113ce5760138290555b82601014156113dd5760148290555b82601114156113ec5760158290555b82601214156113fb5760168290555b505050565b601d5490565b61140e61149a565b6001600160a01b03811661143d5760405162461bcd60e51b8152600401611434906116b1565b60405180910390fd5b611446816114d9565b50565b60215481565b602e5481565b6037546001600160a01b031690565b600d5490565b60075481565b6038546001600160a01b031681565b602f546001600160a01b031681565b60065490565b60185490565b6114a2611529565b6001600160a01b03166114b36110f4565b6001600160a01b031614610ff75760405162461bcd60e51b8152600401611434906116f7565b600080546001600160a01b038381166001600160a01b0319831681178455604051919092169283917f8be0079c531659141344cd1fd0a4f28419497f9722a3daafe3b4186f6b6457e09190a35050565b3390565b80356001600160a01b038116811461154457600080fd5b919050565b60006020828403121561155a578081fd5b6115638261152d565b9392505050565b60008060008060008060008060008060006101608c8e03121561158b578687fd5b6115948c61152d565b9a506115a260208d0161152d565b99506115b060408d0161152d565b98506115be60608d0161152d565b97506115cc60808d0161152d565b96506115da60a08d0161152d565b95506115e860c08d0161152d565b94506115f660e08d0161152d565b93506116056101008d0161152d565b92506116146101208d0161152d565b91506116236101408d0161152d565b90509295989b509295989b9093969950565b60008060408385031215611647578182fd5b50508035926020909101359150565b60008060006060848603121561166a578283fd5b833592506020840135915060408401358015158114611687578182fd5b809150509250925092565b6001600160a01b0391909116815260200190565b901515815260200190565b60208082526026908201527f4f776e61626c653a206e6577206f776e657220697320746865207a65726f206160408201526564647265737360d01b606082015260800190565b6020808252818101527f4f776e61626c653a2063616c6c6572206973206e6f7420746865206f776e6572604082015260600190565b9081526020019056fea2646970667358221220a0b3f8da33925ef6f5ec35c2610fe90c524090736371bcafe9008ceba454f56964736f6c63430008000033",
			"opcodes": "PUSH1 0x80 PUSH1 0x40 MSTORE PUSH2 0x3E8 PUSH1 0x1 SSTORE PUSH1 0x32 PUSH1 0x2 SSTORE PUSH1 0x32 PUSH1 0x3 SSTORE PUSH3 0x30D40 PUSH1 0x4 SSTORE PUSH1 0x1 PUSH1 0x5 SSTORE PUSH9 0x15AF1D78B58C40000 PUSH1 0x6 SSTORE PUSH1 0x2 PUSH1 0x7 SSTORE PUSH1 0x4 PUSH1 0x8 SSTORE PUSH1 0xB4 PUSH1 0x9 SSTORE PUSH1 0xB4 PUSH1 0xA SSTORE PUSH7 0x38D7EA4C68000 PUSH1 0xB SSTORE PUSH7 0x2386F26FC10000 PUSH1 0xC SSTORE PUSH7 0x38D7EA4C68000 PUSH1 0xD SSTORE PUSH7 0x2386F26FC10000 PUSH1 0xE SSTORE PUSH2 0x190 PUSH1 0xF SSTORE PUSH1 0x1 PUSH1 0x10 PUSH1 0x0 PUSH2 0x100 EXP DUP2 SLOAD DUP2 PUSH1 0xFF MUL NOT AND SWAP1 DUP4 ISZERO ISZERO MUL OR SWAP1 SSTORE POP PUSH2 0x384 PUSH1 0x11 SSTORE PUSH2 0x3E8 PUSH1 0x12 SSTORE PUSH1 0x19 PUSH1 0x13 SSTORE PUSH1 0x4 PUSH1 0x14 SSTORE PUSH1 0x3 PUSH1 0x15 SSTORE PUSH2 0xE10 PUSH1 0x16 SSTORE PUSH1 0x1 PUSH1 0x17 SSTORE PUSH1 0x2 PUSH1 0x18 SSTORE PUSH1 0x4 PUSH1 0x19 SSTORE PUSH9 0x15AF1D78B58C40000 PUSH1 0x1A SSTORE PUSH2 0x190 PUSH1 0x1B SSTORE PUSH1 0xB4 PUSH1 0x1C SSTORE PUSH7 0x38D7EA4C68000 PUSH1 0x1D SSTORE PUSH7 0x2386F26FC10000 PUSH1 0x1E SSTORE PUSH1 0x1 PUSH1 0x1F SSTORE PUSH1 0x2 PUSH1 0x20 SSTORE PUSH1 0x4 PUSH1 0x21 SSTORE PUSH9 0x15AF1D78B58C40000 PUSH1 0x22 SSTORE PUSH2 0x190 PUSH1 0x23 SSTORE PUSH1 0xB4 PUSH1 0x24 SSTORE PUSH7 0x38D7EA4C68000 PUSH1 0x25 SSTORE PUSH7 0x2386F26FC10000 PUSH1 0x26 SSTORE PUSH1 0x1 PUSH1 0x27 SSTORE PUSH1 0x2 PUSH1 0x28 SSTORE PUSH1 0x4 PUSH1 0x29 SSTORE PUSH9 0x15AF1D78B58C40000 PUSH1 0x2A SSTORE PUSH2 0x190 PUSH1 0x2B SSTORE PUSH1 0xB4 PUSH1 0x2C SSTORE PUSH7 0x38D7EA4C68000 PUSH1 0x2D SSTORE PUSH7 0x2386F26FC10000 PUSH1 0x2E SSTORE CALLVALUE DUP1 ISZERO PUSH2 0x172 JUMPI PUSH1 0x0 DUP1 REVERT JUMPDEST POP PUSH2 0x183 PUSH2 0x17E PUSH2 0x188 JUMP JUMPDEST PUSH2 0x18C JUMP JUMPDEST PUSH2 0x1DC JUMP JUMPDEST CALLER SWAP1 JUMP JUMPDEST PUSH1 0x0 DUP1 SLOAD PUSH1 0x1 PUSH1 0x1 PUSH1 0xA0 SHL SUB DUP4 DUP2 AND PUSH1 0x1 PUSH1 0x1 PUSH1 0xA0 SHL SUB NOT DUP4 AND DUP2 OR DUP5 SSTORE PUSH1 0x40 MLOAD SWAP2 SWAP1 SWAP3 AND SWAP3 DUP4 SWAP2 PUSH32 0x8BE0079C531659141344CD1FD0A4F28419497F9722A3DAAFE3B4186F6B6457E0 SWAP2 SWAP1 LOG3 POP POP JUMP JUMPDEST PUSH2 0x176B DUP1 PUSH2 0x1EB PUSH1 0x0 CODECOPY PUSH1 0x0 RETURN INVALID PUSH1 0x80 PUSH1 0x40 MSTORE CALLVALUE DUP1 ISZERO PUSH2 0x10 JUMPI PUSH1 0x0 DUP1 REVERT JUMPDEST POP PUSH1 0x4 CALLDATASIZE LT PUSH2 0x763 JUMPI PUSH1 0x0 CALLDATALOAD PUSH1 0xE0 SHR DUP1 PUSH4 0x8A13725D GT PUSH2 0x3C9 JUMPI DUP1 PUSH4 0xCB3A2A88 GT PUSH2 0x1FF JUMPI DUP1 PUSH4 0xE6FDD4C0 GT PUSH2 0x125 JUMPI DUP1 PUSH4 0xF5BEC1AD GT PUSH2 0xB8 JUMPI DUP1 PUSH4 0xFBF14851 GT PUSH2 0x87 JUMPI DUP1 PUSH4 0xFBF14851 EQ PUSH2 0xBA7 JUMPI DUP1 PUSH4 0xFC0C546A EQ PUSH2 0xBAF JUMPI DUP1 PUSH4 0xFF622DDA EQ PUSH2 0xBB7 JUMPI DUP1 PUSH4 0xFFF5F946 EQ PUSH2 0xBBF JUMPI PUSH2 0x763 JUMP JUMPDEST DUP1 PUSH4 0xF5BEC1AD EQ PUSH2 0xB87 JUMPI DUP1 PUSH4 0xF67362FE EQ PUSH2 0xB8F JUMPI DUP1 PUSH4 0xF80DE0A0 EQ PUSH2 0xB97 JUMPI DUP1 PUSH4 0xFB50A473 EQ PUSH2 0xB9F JUMPI PUSH2 0x763 JUMP JUMPDEST DUP1 PUSH4 0xEE37F4A6 GT PUSH2 0xF4 JUMPI DUP1 PUSH4 0xEE37F4A6 EQ PUSH2 0xB51 JUMPI DUP1 PUSH4 0xF116C4E0 EQ PUSH2 0xB64 JUMPI DUP1 PUSH4 0xF2FDE38B EQ PUSH2 0xB6C JUMPI DUP1 PUSH4 0xF4E20B9C EQ PUSH2 0xB7F JUMPI PUSH2 0x763 JUMP JUMPDEST DUP1 PUSH4 0xE6FDD4C0 EQ PUSH2 0xB31 JUMPI DUP1 PUSH4 0xE9704F81 EQ PUSH2 0xB39 JUMPI DUP1 PUSH4 0xE992DCA7 EQ PUSH2 0xB41 JUMPI DUP1 PUSH4 0xEA19733C EQ PUSH2 0xB49 JUMPI PUSH2 0x763 JUMP JUMPDEST DUP1 PUSH4 0xDFECEED7 GT PUSH2 0x19D JUMPI DUP1 PUSH4 0xE3DFC0B2 GT PUSH2 0x16C JUMPI DUP1 PUSH4 0xE3DFC0B2 EQ PUSH2 0xB11 JUMPI DUP1 PUSH4 0xE5F14824 EQ PUSH2 0xB19 JUMPI DUP1 PUSH4 0xE66D543A EQ PUSH2 0xB21 JUMPI DUP1 PUSH4 0xE68C9C30 EQ PUSH2 0xB29 JUMPI PUSH2 0x763 JUMP JUMPDEST DUP1 PUSH4 0xDFECEED7 EQ PUSH2 0xAE6 JUMPI DUP1 PUSH4 0xE0DE3D7C EQ PUSH2 0xAEE JUMPI DUP1 PUSH4 0xE168063C EQ PUSH2 0xAF6 JUMPI DUP1 PUSH4 0xE3115D3C EQ PUSH2 0xB09 JUMPI PUSH2 0x763 JUMP JUMPDEST DUP1 PUSH4 0xD4EFD2BA GT PUSH2 0x1D9 JUMPI DUP1 PUSH4 0xD4EFD2BA EQ PUSH2 0xAC6 JUMPI DUP1 PUSH4 0xD81109CE EQ PUSH2 0xACE JUMPI DUP1 PUSH4 0xD8645D37 EQ PUSH2 0xAD6 JUMPI DUP1 PUSH4 0xDC7048C1 EQ PUSH2 0xADE JUMPI PUSH2 0x763 JUMP JUMPDEST DUP1 PUSH4 0xCB3A2A88 EQ PUSH2 0xAAE JUMPI DUP1 PUSH4 0xD0EED967 EQ PUSH2 0xAB6 JUMPI DUP1 PUSH4 0xD1A89A46 EQ PUSH2 0xABE JUMPI PUSH2 0x763 JUMP JUMPDEST DUP1 PUSH4 0xABB10B9B GT PUSH2 0x2EF JUMPI DUP1 PUSH4 0xBE250988 GT PUSH2 0x282 JUMPI DUP1 PUSH4 0xC6EACBFE GT PUSH2 0x251 JUMPI DUP1 PUSH4 0xC6EACBFE EQ PUSH2 0xA8E JUMPI DUP1 PUSH4 0xC7761FAB EQ PUSH2 0xA96 JUMPI DUP1 PUSH4 0xC95B53C5 EQ PUSH2 0xA9E JUMPI DUP1 PUSH4 0xCA64F9E7 EQ PUSH2 0xAA6 JUMPI PUSH2 0x763 JUMP JUMPDEST DUP1 PUSH4 0xBE250988 EQ PUSH2 0xA6E JUMPI DUP1 PUSH4 0xBF09FF70 EQ PUSH2 0xA76 JUMPI DUP1 PUSH4 0xBF34F749 EQ PUSH2 0xA7E JUMPI DUP1 PUSH4 0xC4A306F8 EQ PUSH2 0xA86 JUMPI PUSH2 0x763 JUMP JUMPDEST DUP1 PUSH4 0xB45D9D8D GT PUSH2 0x2BE JUMPI DUP1 PUSH4 0xB45D9D8D EQ PUSH2 0xA4E JUMPI DUP1 PUSH4 0xB6118450 EQ PUSH2 0xA56 JUMPI DUP1 PUSH4 0xB6C6EC02 EQ PUSH2 0xA5E JUMPI DUP1 PUSH4 0xBD40EF4C EQ PUSH2 0xA66 JUMPI PUSH2 0x763 JUMP JUMPDEST DUP1 PUSH4 0xABB10B9B EQ PUSH2 0xA2E JUMPI DUP1 PUSH4 0xAC846E79 EQ PUSH2 0xA36 JUMPI DUP1 PUSH4 0xB1562F67 EQ PUSH2 0xA3E JUMPI DUP1 PUSH4 0xB38E885E EQ PUSH2 0xA46 JUMPI PUSH2 0x763 JUMP JUMPDEST DUP1 PUSH4 0x995ADBDD GT PUSH2 0x367 JUMPI DUP1 PUSH4 0xA1A4575A GT PUSH2 0x336 JUMPI DUP1 PUSH4 0xA1A4575A EQ PUSH2 0xA0E JUMPI DUP1 PUSH4 0xA327181B EQ PUSH2 0xA16 JUMPI DUP1 PUSH4 0xA35B3B09 EQ PUSH2 0xA1E JUMPI DUP1 PUSH4 0xAB43E78D EQ PUSH2 0xA26 JUMPI PUSH2 0x763 JUMP JUMPDEST DUP1 PUSH4 0x995ADBDD EQ PUSH2 0x9EE JUMPI DUP1 PUSH4 0x9A175938 EQ PUSH2 0x9F6 JUMPI DUP1 PUSH4 0x9D1F2ADA EQ PUSH2 0x9FE JUMPI DUP1 PUSH4 0x9FB491F6 EQ PUSH2 0xA06 JUMPI PUSH2 0x763 JUMP JUMPDEST DUP1 PUSH4 0x90D10B6E GT PUSH2 0x3A3 JUMPI DUP1 PUSH4 0x90D10B6E EQ PUSH2 0x9CE JUMPI DUP1 PUSH4 0x9279E9D4 EQ PUSH2 0x9D6 JUMPI DUP1 PUSH4 0x98A54E2B EQ PUSH2 0x9DE JUMPI DUP1 PUSH4 0x9904ED8D EQ PUSH2 0x9E6 JUMPI PUSH2 0x763 JUMP JUMPDEST DUP1 PUSH4 0x8A13725D EQ PUSH2 0x9B6 JUMPI DUP1 PUSH4 0x8DA5CB5B EQ PUSH2 0x9BE JUMPI DUP1 PUSH4 0x90CC59EB EQ PUSH2 0x9C6 JUMPI PUSH2 0x763 JUMP JUMPDEST DUP1 PUSH4 0x49B46787 GT PUSH2 0x59E JUMPI DUP1 PUSH4 0x728D23AB GT PUSH2 0x4C4 JUMPI DUP1 PUSH4 0x8360034D GT PUSH2 0x457 JUMPI DUP1 PUSH4 0x8724450F GT PUSH2 0x426 JUMPI DUP1 PUSH4 0x8724450F EQ PUSH2 0x996 JUMPI DUP1 PUSH4 0x87CE6311 EQ PUSH2 0x99E JUMPI DUP1 PUSH4 0x893B2A76 EQ PUSH2 0x9A6 JUMPI DUP1 PUSH4 0x89B212D3 EQ PUSH2 0x9AE JUMPI PUSH2 0x763 JUMP JUMPDEST DUP1 PUSH4 0x8360034D EQ PUSH2 0x976 JUMPI DUP1 PUSH4 0x83CC6EF2 EQ PUSH2 0x97E JUMPI DUP1 PUSH4 0x849F9F0A EQ PUSH2 0x986 JUMPI DUP1 PUSH4 0x86B0B4C5 EQ PUSH2 0x98E JUMPI PUSH2 0x763 JUMP JUMPDEST DUP1 PUSH4 0x7A0EC25B GT PUSH2 0x493 JUMPI DUP1 PUSH4 0x7A0EC25B EQ PUSH2 0x956 JUMPI DUP1 PUSH4 0x7A34DA67 EQ PUSH2 0x95E JUMPI DUP1 PUSH4 0x7D630CB0 EQ PUSH2 0x966 JUMPI DUP1 PUSH4 0x7E8603E9 EQ PUSH2 0x96E JUMPI PUSH2 0x763 JUMP JUMPDEST DUP1 PUSH4 0x728D23AB EQ PUSH2 0x92B JUMPI DUP1 PUSH4 0x72E54030 EQ PUSH2 0x933 JUMPI DUP1 PUSH4 0x75DC6130 EQ PUSH2 0x93B JUMPI DUP1 PUSH4 0x779231B2 EQ PUSH2 0x94E JUMPI PUSH2 0x763 JUMP JUMPDEST DUP1 PUSH4 0x557C1ABE GT PUSH2 0x53C JUMPI DUP1 PUSH4 0x61879075 GT PUSH2 0x50B JUMPI DUP1 PUSH4 0x61879075 EQ PUSH2 0x900 JUMPI DUP1 PUSH4 0x6785F847 EQ PUSH2 0x913 JUMPI DUP1 PUSH4 0x6A8E0ECE EQ PUSH2 0x91B JUMPI DUP1 PUSH4 0x715018A6 EQ PUSH2 0x923 JUMPI PUSH2 0x763 JUMP JUMPDEST DUP1 PUSH4 0x557C1ABE EQ PUSH2 0x8D5 JUMPI DUP1 PUSH4 0x55A35F5C EQ PUSH2 0x8DD JUMPI DUP1 PUSH4 0x5CB361F6 EQ PUSH2 0x8F0 JUMPI DUP1 PUSH4 0x5D1C3182 EQ PUSH2 0x8F8 JUMPI PUSH2 0x763 JUMP JUMPDEST DUP1 PUSH4 0x4ED60B2A GT PUSH2 0x578 JUMPI DUP1 PUSH4 0x4ED60B2A EQ PUSH2 0x8B5 JUMPI DUP1 PUSH4 0x51912F29 EQ PUSH2 0x8BD JUMPI DUP1 PUSH4 0x531780BB EQ PUSH2 0x8C5 JUMPI DUP1 PUSH4 0x5492F302 EQ PUSH2 0x8CD JUMPI PUSH2 0x763 JUMP JUMPDEST DUP1 PUSH4 0x49B46787 EQ PUSH2 0x89D JUMPI DUP1 PUSH4 0x4E5638F5 EQ PUSH2 0x8A5 JUMPI DUP1 PUSH4 0x4E87C5A8 EQ PUSH2 0x8AD JUMPI PUSH2 0x763 JUMP JUMPDEST DUP1 PUSH4 0x2B0AFAB3 GT PUSH2 0x68E JUMPI DUP1 PUSH4 0x3692616A GT PUSH2 0x621 JUMPI DUP1 PUSH4 0x42DF5641 GT PUSH2 0x5F0 JUMPI DUP1 PUSH4 0x42DF5641 EQ PUSH2 0x87D JUMPI DUP1 PUSH4 0x444D62B6 EQ PUSH2 0x885 JUMPI DUP1 PUSH4 0x463444B7 EQ PUSH2 0x88D JUMPI DUP1 PUSH4 0x484DF80A EQ PUSH2 0x895 JUMPI PUSH2 0x763 JUMP JUMPDEST DUP1 PUSH4 0x3692616A EQ PUSH2 0x850 JUMPI DUP1 PUSH4 0x36FC43FC EQ PUSH2 0x858 JUMPI DUP1 PUSH4 0x386D0976 EQ PUSH2 0x86D JUMPI DUP1 PUSH4 0x3968EC84 EQ PUSH2 0x875 JUMPI PUSH2 0x763 JUMP JUMPDEST DUP1 PUSH4 0x2E2F93F3 GT PUSH2 0x65D JUMPI DUP1 PUSH4 0x2E2F93F3 EQ PUSH2 0x830 JUMPI DUP1 PUSH4 0x30C0BB79 EQ PUSH2 0x838 JUMPI DUP1 PUSH4 0x31911C91 EQ PUSH2 0x840 JUMPI DUP1 PUSH4 0x34C37E21 EQ PUSH2 0x848 JUMPI PUSH2 0x763 JUMP JUMPDEST DUP1 PUSH4 0x2B0AFAB3 EQ PUSH2 0x805 JUMPI DUP1 PUSH4 0x2BE05960 EQ PUSH2 0x80D JUMPI DUP1 PUSH4 0x2BF8ABB3 EQ PUSH2 0x815 JUMPI DUP1 PUSH4 0x2D09A8E3 EQ PUSH2 0x81D JUMPI PUSH2 0x763 JUMP JUMPDEST DUP1 PUSH4 0xA5A4C20 GT PUSH2 0x706 JUMPI DUP1 PUSH4 0x175BF630 GT PUSH2 0x6D5 JUMPI DUP1 PUSH4 0x175BF630 EQ PUSH2 0x7E5 JUMPI DUP1 PUSH4 0x1D0FB88E EQ PUSH2 0x7ED JUMPI DUP1 PUSH4 0x29A47BC7 EQ PUSH2 0x7F5 JUMPI DUP1 PUSH4 0x29E3DD1F EQ PUSH2 0x7FD JUMPI PUSH2 0x763 JUMP JUMPDEST DUP1 PUSH4 0xA5A4C20 EQ PUSH2 0x7C5 JUMPI DUP1 PUSH4 0xB08BFD9 EQ PUSH2 0x7CD JUMPI DUP1 PUSH4 0xF1F0FFE EQ PUSH2 0x7D5 JUMPI DUP1 PUSH4 0xF78CC76 EQ PUSH2 0x7DD JUMPI PUSH2 0x763 JUMP JUMPDEST DUP1 PUSH4 0x6606D67 GT PUSH2 0x742 JUMPI DUP1 PUSH4 0x6606D67 EQ PUSH2 0x7A3 JUMPI DUP1 PUSH4 0x855D151 EQ PUSH2 0x7AB JUMPI DUP1 PUSH4 0x8E7F0DB EQ PUSH2 0x7B3 JUMPI DUP1 PUSH4 0x92A5CCE EQ PUSH2 0x7BB JUMPI PUSH2 0x763 JUMP JUMPDEST DUP1 PUSH3 0x653FF8 EQ PUSH2 0x768 JUMPI DUP1 PUSH4 0x363A1BF EQ PUSH2 0x786 JUMPI DUP1 PUSH4 0x4E76C8F EQ PUSH2 0x78E JUMPI JUMPDEST PUSH1 0x0 DUP1 REVERT JUMPDEST PUSH2 0x770 PUSH2 0xBC7 JUMP JUMPDEST PUSH1 0x40 MLOAD PUSH2 0x77D SWAP2 SWAP1 PUSH2 0x172C JUMP JUMPDEST PUSH1 0x40 MLOAD DUP1 SWAP2 SUB SWAP1 RETURN JUMPDEST PUSH2 0x770 PUSH2 0xBCD JUMP JUMPDEST PUSH2 0x796 PUSH2 0xBD3 JUMP JUMPDEST PUSH1 0x40 MLOAD PUSH2 0x77D SWAP2 SWAP1 PUSH2 0x1692 JUMP JUMPDEST PUSH2 0x796 PUSH2 0xBE2 JUMP JUMPDEST PUSH2 0x796 PUSH2 0xBF1 JUMP JUMPDEST PUSH2 0x770 PUSH2 0xC00 JUMP JUMPDEST PUSH2 0x7C3 PUSH2 0xC06 JUMP JUMPDEST STOP JUMPDEST PUSH2 0x770 PUSH2 0xC21 JUMP JUMPDEST PUSH2 0x770 PUSH2 0xC27 JUMP JUMPDEST PUSH2 0x770 PUSH2 0xC2D JUMP JUMPDEST PUSH2 0x770 PUSH2 0xC33 JUMP JUMPDEST PUSH2 0x770 PUSH2 0xC39 JUMP JUMPDEST PUSH2 0x770 PUSH2 0xC3F JUMP JUMPDEST PUSH2 0x796 PUSH2 0xC45 JUMP JUMPDEST PUSH2 0x770 PUSH2 0xC54 JUMP JUMPDEST PUSH2 0x770 PUSH2 0xC5A JUMP JUMPDEST PUSH2 0x770 PUSH2 0xC60 JUMP JUMPDEST PUSH2 0x770 PUSH2 0xC66 JUMP JUMPDEST PUSH2 0x7C3 PUSH2 0x82B CALLDATASIZE PUSH1 0x4 PUSH2 0x156A JUMP JUMPDEST PUSH2 0xC6C JUMP JUMPDEST PUSH2 0x796 PUSH2 0xE5A JUMP JUMPDEST PUSH2 0x770 PUSH2 0xE69 JUMP JUMPDEST PUSH2 0x770 PUSH2 0xE6F JUMP JUMPDEST PUSH2 0x770 PUSH2 0xE75 JUMP JUMPDEST PUSH2 0x770 PUSH2 0xE7B JUMP JUMPDEST PUSH2 0x860 PUSH2 0xE81 JUMP JUMPDEST PUSH1 0x40 MLOAD PUSH2 0x77D SWAP2 SWAP1 PUSH2 0x16A6 JUMP JUMPDEST PUSH2 0x770 PUSH2 0xE8A JUMP JUMPDEST PUSH2 0x770 PUSH2 0xE90 JUMP JUMPDEST PUSH2 0x770 PUSH2 0xE96 JUMP JUMPDEST PUSH2 0x770 PUSH2 0xE9C JUMP JUMPDEST PUSH2 0x796 PUSH2 0xEA2 JUMP JUMPDEST PUSH2 0x770 PUSH2 0xEB1 JUMP JUMPDEST PUSH2 0x770 PUSH2 0xEB7 JUMP JUMPDEST PUSH2 0x770 PUSH2 0xEBD JUMP JUMPDEST PUSH2 0x860 PUSH2 0xEC3 JUMP JUMPDEST PUSH2 0x770 PUSH2 0xECC JUMP JUMPDEST PUSH2 0x796 PUSH2 0xED2 JUMP JUMPDEST PUSH2 0x770 PUSH2 0xEE1 JUMP JUMPDEST PUSH2 0x796 PUSH2 0xEE7 JUMP JUMPDEST PUSH2 0x796 PUSH2 0xEF6 JUMP JUMPDEST PUSH2 0x7C3 PUSH2 0x8EB CALLDATASIZE PUSH1 0x4 PUSH2 0x1635 JUMP JUMPDEST PUSH2 0xF05 JUMP JUMPDEST PUSH2 0x770 PUSH2 0xF89 JUMP JUMPDEST PUSH2 0x770 PUSH2 0xF8F JUMP JUMPDEST PUSH2 0x7C3 PUSH2 0x90E CALLDATASIZE PUSH1 0x4 PUSH2 0x1635 JUMP JUMPDEST PUSH2 0xF95 JUMP JUMPDEST PUSH2 0x770 PUSH2 0xFD9 JUMP JUMPDEST PUSH2 0x770 PUSH2 0xFDF JUMP JUMPDEST PUSH2 0x7C3 PUSH2 0xFE5 JUMP JUMPDEST PUSH2 0x770 PUSH2 0xFF9 JUMP JUMPDEST PUSH2 0x770 PUSH2 0xFFF JUMP JUMPDEST PUSH2 0x7C3 PUSH2 0x949 CALLDATASIZE PUSH1 0x4 PUSH2 0x1635 JUMP JUMPDEST PUSH2 0x1005 JUMP JUMPDEST PUSH2 0x770 PUSH2 0x1085 JUMP JUMPDEST PUSH2 0x796 PUSH2 0x108B JUMP JUMPDEST PUSH2 0x796 PUSH2 0x109A JUMP JUMPDEST PUSH2 0x770 PUSH2 0x10A9 JUMP JUMPDEST PUSH2 0x770 PUSH2 0x10AF JUMP JUMPDEST PUSH2 0x770 PUSH2 0x10B5 JUMP JUMPDEST PUSH2 0x796 PUSH2 0x10BB JUMP JUMPDEST PUSH2 0x770 PUSH2 0x10CA JUMP JUMPDEST PUSH2 0x770 PUSH2 0x10D0 JUMP JUMPDEST PUSH2 0x770 PUSH2 0x10D6 JUMP JUMPDEST PUSH2 0x770 PUSH2 0x10DC JUMP JUMPDEST PUSH2 0x770 PUSH2 0x10E2 JUMP JUMPDEST PUSH2 0x770 PUSH2 0x10E8 JUMP JUMPDEST PUSH2 0x770 PUSH2 0x10EE JUMP JUMPDEST PUSH2 0x796 PUSH2 0x10F4 JUMP JUMPDEST PUSH2 0x770 PUSH2 0x1103 JUMP JUMPDEST PUSH2 0x770 PUSH2 0x1109 JUMP JUMPDEST PUSH2 0x770 PUSH2 0x110F JUMP JUMPDEST PUSH2 0x770 PUSH2 0x1115 JUMP JUMPDEST PUSH2 0x796 PUSH2 0x111B JUMP JUMPDEST PUSH2 0x770 PUSH2 0x112A JUMP JUMPDEST PUSH2 0x770 PUSH2 0x1130 JUMP JUMPDEST PUSH2 0x770 PUSH2 0x1136 JUMP JUMPDEST PUSH2 0x770 PUSH2 0x113C JUMP JUMPDEST PUSH2 0x770 PUSH2 0x1142 JUMP JUMPDEST PUSH2 0x770 PUSH2 0x1148 JUMP JUMPDEST PUSH2 0x770 PUSH2 0x114E JUMP JUMPDEST PUSH2 0x796 PUSH2 0x1154 JUMP JUMPDEST PUSH2 0x770 PUSH2 0x1163 JUMP JUMPDEST PUSH2 0x770 PUSH2 0x1169 JUMP JUMPDEST PUSH2 0x770 PUSH2 0x116F JUMP JUMPDEST PUSH2 0x770 PUSH2 0x1175 JUMP JUMPDEST PUSH2 0x796 PUSH2 0x117B JUMP JUMPDEST PUSH2 0x770 PUSH2 0x118A JUMP JUMPDEST PUSH2 0x796 PUSH2 0x1190 JUMP JUMPDEST PUSH2 0x770 PUSH2 0x119F JUMP JUMPDEST PUSH2 0x770 PUSH2 0x11A5 JUMP JUMPDEST PUSH2 0x770 PUSH2 0x11AB JUMP JUMPDEST PUSH2 0x770 PUSH2 0x11B1 JUMP JUMPDEST PUSH2 0x770 PUSH2 0x11B7 JUMP JUMPDEST PUSH2 0x770 PUSH2 0x11BD JUMP JUMPDEST PUSH2 0x770 PUSH2 0x11C3 JUMP JUMPDEST PUSH2 0x770 PUSH2 0x11C9 JUMP JUMPDEST PUSH2 0x796 PUSH2 0x11CF JUMP JUMPDEST PUSH2 0x770 PUSH2 0x11DE JUMP JUMPDEST PUSH2 0x770 PUSH2 0x11E4 JUMP JUMPDEST PUSH2 0x770 PUSH2 0x11EA JUMP JUMPDEST PUSH2 0x770 PUSH2 0x11F0 JUMP JUMPDEST PUSH2 0x770 PUSH2 0x11F6 JUMP JUMPDEST PUSH2 0x796 PUSH2 0x11FC JUMP JUMPDEST PUSH2 0x770 PUSH2 0x120B JUMP JUMPDEST PUSH2 0x770 PUSH2 0x1211 JUMP JUMPDEST PUSH2 0x770 PUSH2 0x1217 JUMP JUMPDEST PUSH2 0x7C3 PUSH2 0xB04 CALLDATASIZE PUSH1 0x4 PUSH2 0x1635 JUMP JUMPDEST PUSH2 0x121D JUMP JUMPDEST PUSH2 0x770 PUSH2 0x129D JUMP JUMPDEST PUSH2 0x770 PUSH2 0x12A3 JUMP JUMPDEST PUSH2 0x770 PUSH2 0x12A9 JUMP JUMPDEST PUSH2 0x770 PUSH2 0x12AF JUMP JUMPDEST PUSH2 0x770 PUSH2 0x12B5 JUMP JUMPDEST PUSH2 0x770 PUSH2 0x12BB JUMP JUMPDEST PUSH2 0x770 PUSH2 0x12C1 JUMP JUMPDEST PUSH2 0x796 PUSH2 0x12C7 JUMP JUMPDEST PUSH2 0x770 PUSH2 0x12D6 JUMP JUMPDEST PUSH2 0x7C3 PUSH2 0xB5F CALLDATASIZE PUSH1 0x4 PUSH2 0x1656 JUMP JUMPDEST PUSH2 0x12DC JUMP JUMPDEST PUSH2 0x770 PUSH2 0x1400 JUMP JUMPDEST PUSH2 0x7C3 PUSH2 0xB7A CALLDATASIZE PUSH1 0x4 PUSH2 0x1549 JUMP JUMPDEST PUSH2 0x1406 JUMP JUMPDEST PUSH2 0x770 PUSH2 0x1449 JUMP JUMPDEST PUSH2 0x770 PUSH2 0x144F JUMP JUMPDEST PUSH2 0x796 PUSH2 0x1455 JUMP JUMPDEST PUSH2 0x770 PUSH2 0x1464 JUMP JUMPDEST PUSH2 0x770 PUSH2 0x146A JUMP JUMPDEST PUSH2 0x796 PUSH2 0x1470 JUMP JUMPDEST PUSH2 0x796 PUSH2 0x147F JUMP JUMPDEST PUSH2 0x770 PUSH2 0x148E JUMP JUMPDEST PUSH2 0x770 PUSH2 0x1494 JUMP JUMPDEST PUSH1 0x6 SLOAD DUP2 JUMP JUMPDEST PUSH1 0x27 SLOAD SWAP1 JUMP JUMPDEST PUSH1 0x33 SLOAD PUSH1 0x1 PUSH1 0x1 PUSH1 0xA0 SHL SUB AND SWAP1 JUMP JUMPDEST PUSH1 0x37 SLOAD PUSH1 0x1 PUSH1 0x1 PUSH1 0xA0 SHL SUB AND DUP2 JUMP JUMPDEST PUSH1 0x32 SLOAD PUSH1 0x1 PUSH1 0x1 PUSH1 0xA0 SHL SUB AND SWAP1 JUMP JUMPDEST PUSH1 0x2D SLOAD DUP2 JUMP JUMPDEST PUSH2 0xC0E PUSH2 0x149A JUMP JUMPDEST PUSH2 0xC16 PUSH2 0x10F4 JUMP JUMPDEST PUSH1 0x1 PUSH1 0x1 PUSH1 0xA0 SHL SUB AND SELFDESTRUCT JUMPDEST PUSH1 0x2A SLOAD DUP2 JUMP JUMPDEST PUSH1 0xE SLOAD SWAP1 JUMP JUMPDEST PUSH1 0x16 SLOAD SWAP1 JUMP JUMPDEST PUSH1 0x11 SLOAD SWAP1 JUMP JUMPDEST PUSH1 0x17 SLOAD DUP2 JUMP JUMPDEST PUSH1 0xA SLOAD DUP2 JUMP JUMPDEST PUSH1 0x32 SLOAD PUSH1 0x1 PUSH1 0x1 PUSH1 0xA0 SHL SUB AND DUP2 JUMP JUMPDEST PUSH1 0x2C SLOAD SWAP1 JUMP JUMPDEST PUSH1 0x1C SLOAD SWAP1 JUMP JUMPDEST PUSH1 0x26 SLOAD DUP2 JUMP JUMPDEST PUSH1 0x25 SLOAD DUP2 JUMP JUMPDEST PUSH2 0xC74 PUSH2 0x149A JUMP JUMPDEST PUSH1 0x1 PUSH1 0x1 PUSH1 0xA0 SHL SUB DUP12 AND ISZERO PUSH2 0xC9F JUMPI PUSH1 0x30 DUP1 SLOAD PUSH1 0x1 PUSH1 0x1 PUSH1 0xA0 SHL SUB NOT AND PUSH1 0x1 PUSH1 0x1 PUSH1 0xA0 SHL SUB DUP14 AND OR SWAP1 SSTORE JUMPDEST PUSH1 0x1 PUSH1 0x1 PUSH1 0xA0 SHL SUB DUP11 AND ISZERO PUSH2 0xCCA JUMPI PUSH1 0x32 DUP1 SLOAD PUSH1 0x1 PUSH1 0x1 PUSH1 0xA0 SHL SUB NOT AND PUSH1 0x1 PUSH1 0x1 PUSH1 0xA0 SHL SUB DUP13 AND OR SWAP1 SSTORE JUMPDEST PUSH1 0x1 PUSH1 0x1 PUSH1 0xA0 SHL SUB DUP10 AND ISZERO PUSH2 0xCF5 JUMPI PUSH1 0x31 DUP1 SLOAD PUSH1 0x1 PUSH1 0x1 PUSH1 0xA0 SHL SUB NOT AND PUSH1 0x1 PUSH1 0x1 PUSH1 0xA0 SHL SUB DUP12 AND OR SWAP1 SSTORE JUMPDEST PUSH1 0x1 PUSH1 0x1 PUSH1 0xA0 SHL SUB DUP9 AND ISZERO PUSH2 0xD20 JUMPI PUSH1 0x33 DUP1 SLOAD PUSH1 0x1 PUSH1 0x1 PUSH1 0xA0 SHL SUB NOT AND PUSH1 0x1 PUSH1 0x1 PUSH1 0xA0 SHL SUB DUP11 AND OR SWAP1 SSTORE JUMPDEST PUSH1 0x1 PUSH1 0x1 PUSH1 0xA0 SHL SUB DUP8 AND ISZERO PUSH2 0xD4B JUMPI PUSH1 0x34 DUP1 SLOAD PUSH1 0x1 PUSH1 0x1 PUSH1 0xA0 SHL SUB NOT AND PUSH1 0x1 PUSH1 0x1 PUSH1 0xA0 SHL SUB DUP10 AND OR SWAP1 SSTORE JUMPDEST PUSH1 0x1 PUSH1 0x1 PUSH1 0xA0 SHL SUB DUP6 AND ISZERO PUSH2 0xD76 JUMPI PUSH1 0x37 DUP1 SLOAD PUSH1 0x1 PUSH1 0x1 PUSH1 0xA0 SHL SUB NOT AND PUSH1 0x1 PUSH1 0x1 PUSH1 0xA0 SHL SUB DUP8 AND OR SWAP1 SSTORE JUMPDEST PUSH1 0x1 PUSH1 0x1 PUSH1 0xA0 SHL SUB DUP7 AND ISZERO PUSH2 0xDA1 JUMPI PUSH1 0x36 DUP1 SLOAD PUSH1 0x1 PUSH1 0x1 PUSH1 0xA0 SHL SUB NOT AND PUSH1 0x1 PUSH1 0x1 PUSH1 0xA0 SHL SUB DUP9 AND OR SWAP1 SSTORE JUMPDEST PUSH1 0x1 PUSH1 0x1 PUSH1 0xA0 SHL SUB DUP5 AND ISZERO PUSH2 0xDCC JUMPI PUSH1 0x38 DUP1 SLOAD PUSH1 0x1 PUSH1 0x1 PUSH1 0xA0 SHL SUB NOT AND PUSH1 0x1 PUSH1 0x1 PUSH1 0xA0 SHL SUB DUP7 AND OR SWAP1 SSTORE JUMPDEST PUSH1 0x1 PUSH1 0x1 PUSH1 0xA0 SHL SUB DUP4 AND ISZERO PUSH2 0xDF7 JUMPI PUSH1 0x39 DUP1 SLOAD PUSH1 0x1 PUSH1 0x1 PUSH1 0xA0 SHL SUB NOT AND PUSH1 0x1 PUSH1 0x1 PUSH1 0xA0 SHL SUB DUP6 AND OR SWAP1 SSTORE JUMPDEST PUSH1 0x1 PUSH1 0x1 PUSH1 0xA0 SHL SUB DUP3 AND ISZERO PUSH2 0xE22 JUMPI PUSH1 0x35 DUP1 SLOAD PUSH1 0x1 PUSH1 0x1 PUSH1 0xA0 SHL SUB NOT AND PUSH1 0x1 PUSH1 0x1 PUSH1 0xA0 SHL SUB DUP5 AND OR SWAP1 SSTORE JUMPDEST PUSH1 0x1 PUSH1 0x1 PUSH1 0xA0 SHL SUB DUP2 AND ISZERO PUSH2 0xE4D JUMPI PUSH1 0x2F DUP1 SLOAD PUSH1 0x1 PUSH1 0x1 PUSH1 0xA0 SHL SUB NOT AND PUSH1 0x1 PUSH1 0x1 PUSH1 0xA0 SHL SUB DUP4 AND OR SWAP1 SSTORE JUMPDEST POP POP POP POP POP POP POP POP POP POP POP JUMP JUMPDEST PUSH1 0x2F SLOAD PUSH1 0x1 PUSH1 0x1 PUSH1 0xA0 SHL SUB AND SWAP1 JUMP JUMPDEST PUSH1 0xB SLOAD SWAP1 JUMP JUMPDEST PUSH1 0x19 SLOAD DUP2 JUMP JUMPDEST PUSH1 0x1D SLOAD DUP2 JUMP JUMPDEST PUSH1 0x9 SLOAD SWAP1 JUMP JUMPDEST PUSH1 0x10 SLOAD PUSH1 0xFF AND DUP2 JUMP JUMPDEST PUSH1 0x25 SLOAD SWAP1 JUMP JUMPDEST PUSH1 0x29 SLOAD SWAP1 JUMP JUMPDEST PUSH1 0x1A SLOAD DUP2 JUMP JUMPDEST PUSH1 0x20 SLOAD DUP2 JUMP JUMPDEST PUSH1 0x39 SLOAD PUSH1 0x1 PUSH1 0x1 PUSH1 0xA0 SHL SUB AND SWAP1 JUMP JUMPDEST PUSH1 0x1B SLOAD SWAP1 JUMP JUMPDEST PUSH1 0x2E SLOAD SWAP1 JUMP JUMPDEST PUSH1 0x4 SLOAD DUP2 JUMP JUMPDEST PUSH1 0x10 SLOAD PUSH1 0xFF AND SWAP1 JUMP JUMPDEST PUSH1 0x27 SLOAD DUP2 JUMP JUMPDEST PUSH1 0x33 SLOAD PUSH1 0x1 PUSH1 0x1 PUSH1 0xA0 SHL SUB AND DUP2 JUMP JUMPDEST PUSH1 0x2B SLOAD DUP2 JUMP JUMPDEST PUSH1 0x34 SLOAD PUSH1 0x1 PUSH1 0x1 PUSH1 0xA0 SHL SUB AND SWAP1 JUMP JUMPDEST PUSH1 0x35 SLOAD PUSH1 0x1 PUSH1 0x1 PUSH1 0xA0 SHL SUB AND SWAP1 JUMP JUMPDEST PUSH2 0xF0D PUSH2 0x149A JUMP JUMPDEST DUP2 PUSH1 0x1 EQ ISZERO PUSH2 0xF1C JUMPI PUSH1 0x27 DUP2 SWAP1 SSTORE JUMPDEST DUP2 PUSH1 0x2 EQ ISZERO PUSH2 0xF2B JUMPI PUSH1 0x2A DUP2 SWAP1 SSTORE JUMPDEST DUP2 PUSH1 0x3 EQ ISZERO PUSH2 0xF3A JUMPI PUSH1 0x28 DUP2 SWAP1 SSTORE JUMPDEST DUP2 PUSH1 0x4 EQ ISZERO PUSH2 0xF49 JUMPI PUSH1 0x29 DUP2 SWAP1 SSTORE JUMPDEST DUP2 PUSH1 0x5 EQ ISZERO PUSH2 0xF58 JUMPI PUSH1 0x2B DUP2 SWAP1 SSTORE JUMPDEST DUP2 PUSH1 0x6 EQ ISZERO PUSH2 0xF67 JUMPI PUSH1 0x2C DUP2 SWAP1 SSTORE JUMPDEST DUP2 PUSH1 0x7 EQ ISZERO PUSH2 0xF76 JUMPI PUSH1 0x2E DUP2 SWAP1 SSTORE JUMPDEST DUP2 PUSH1 0x8 EQ ISZERO PUSH2 0xF85 JUMPI PUSH1 0x2D DUP2 SWAP1 SSTORE JUMPDEST POP POP JUMP JUMPDEST PUSH1 0xC SLOAD DUP2 JUMP JUMPDEST PUSH1 0x28 SLOAD DUP2 JUMP JUMPDEST PUSH2 0xF9D PUSH2 0x149A JUMP JUMPDEST DUP2 PUSH1 0x1 EQ ISZERO PUSH2 0xFAC JUMPI PUSH1 0x1 DUP2 SWAP1 SSTORE JUMPDEST DUP2 PUSH1 0x2 EQ ISZERO PUSH2 0xFBB JUMPI PUSH1 0x2 DUP2 SWAP1 SSTORE JUMPDEST DUP2 PUSH1 0x3 EQ ISZERO PUSH2 0xFCA JUMPI PUSH1 0x3 DUP2 SWAP1 SSTORE JUMPDEST DUP2 PUSH1 0x4 EQ ISZERO PUSH2 0xF85 JUMPI PUSH1 0x4 SSTORE POP JUMP JUMPDEST PUSH1 0x1B SLOAD DUP2 JUMP JUMPDEST PUSH1 0x1E SLOAD DUP2 JUMP JUMPDEST PUSH2 0xFED PUSH2 0x149A JUMP JUMPDEST PUSH2 0xFF7 PUSH1 0x0 PUSH2 0x14D9 JUMP JUMPDEST JUMP JUMPDEST PUSH1 0x18 SLOAD DUP2 JUMP JUMPDEST PUSH1 0xA SLOAD SWAP1 JUMP JUMPDEST PUSH2 0x100D PUSH2 0x149A JUMP JUMPDEST DUP2 PUSH1 0x1 EQ ISZERO PUSH2 0x101C JUMPI PUSH1 0x1F DUP2 SWAP1 SSTORE JUMPDEST DUP2 PUSH1 0x2 EQ ISZERO PUSH2 0x102B JUMPI PUSH1 0x22 DUP2 SWAP1 SSTORE JUMPDEST DUP2 PUSH1 0x3 EQ ISZERO PUSH2 0x103A JUMPI PUSH1 0x20 DUP2 SWAP1 SSTORE JUMPDEST DUP2 PUSH1 0x4 EQ ISZERO PUSH2 0x1049 JUMPI PUSH1 0x21 DUP2 SWAP1 SSTORE JUMPDEST DUP2 PUSH1 0x5 EQ ISZERO PUSH2 0x1058 JUMPI PUSH1 0x23 DUP2 SWAP1 SSTORE JUMPDEST DUP2 PUSH1 0x6 EQ ISZERO PUSH2 0x1067 JUMPI PUSH1 0x24 DUP2 SWAP1 SSTORE JUMPDEST DUP2 PUSH1 0x7 EQ ISZERO PUSH2 0x1076 JUMPI PUSH1 0x26 DUP2 SWAP1 SSTORE JUMPDEST DUP2 PUSH1 0x8 EQ ISZERO PUSH2 0xF85 JUMPI PUSH1 0x25 SSTORE POP JUMP JUMPDEST PUSH1 0x22 SLOAD DUP2 JUMP JUMPDEST PUSH1 0x38 SLOAD PUSH1 0x1 PUSH1 0x1 PUSH1 0xA0 SHL SUB AND SWAP1 JUMP JUMPDEST PUSH1 0x34 SLOAD PUSH1 0x1 PUSH1 0x1 PUSH1 0xA0 SHL SUB AND DUP2 JUMP JUMPDEST PUSH1 0x3 SLOAD SWAP1 JUMP JUMPDEST PUSH1 0x24 SLOAD DUP2 JUMP JUMPDEST PUSH1 0x2C SLOAD DUP2 JUMP JUMPDEST PUSH1 0x30 SLOAD PUSH1 0x1 PUSH1 0x1 PUSH1 0xA0 SHL SUB AND DUP2 JUMP JUMPDEST PUSH1 0x26 SLOAD SWAP1 JUMP JUMPDEST PUSH1 0xE SLOAD DUP2 JUMP JUMPDEST PUSH1 0xD SLOAD DUP2 JUMP JUMPDEST PUSH1 0x11 SLOAD DUP2 JUMP JUMPDEST PUSH1 0x2D SLOAD SWAP1 JUMP JUMPDEST PUSH1 0x1E SLOAD SWAP1 JUMP JUMPDEST PUSH1 0x24 SLOAD SWAP1 JUMP JUMPDEST PUSH1 0x0 SLOAD PUSH1 0x1 PUSH1 0x1 PUSH1 0xA0 SHL SUB AND SWAP1 JUMP JUMPDEST PUSH1 0x23 SLOAD SWAP1 JUMP JUMPDEST PUSH1 0x3 SLOAD DUP2 JUMP JUMPDEST PUSH1 0x2B SLOAD SWAP1 JUMP JUMPDEST PUSH1 0x1 SLOAD SWAP1 JUMP JUMPDEST PUSH1 0x31 SLOAD PUSH1 0x1 PUSH1 0x1 PUSH1 0xA0 SHL SUB AND DUP2 JUMP JUMPDEST PUSH1 0x28 SLOAD SWAP1 JUMP JUMPDEST PUSH1 0x1C SLOAD DUP2 JUMP JUMPDEST PUSH1 0x5 SLOAD SWAP1 JUMP JUMPDEST PUSH1 0x15 SLOAD SWAP1 JUMP JUMPDEST PUSH1 0x20 SLOAD SWAP1 JUMP JUMPDEST PUSH1 0x1 SLOAD DUP2 JUMP JUMPDEST PUSH1 0x8 SLOAD DUP2 JUMP JUMPDEST PUSH1 0x35 SLOAD PUSH1 0x1 PUSH1 0x1 PUSH1 0xA0 SHL SUB AND DUP2 JUMP JUMPDEST PUSH1 0xC SLOAD SWAP1 JUMP JUMPDEST PUSH1 0x29 SLOAD DUP2 JUMP JUMPDEST PUSH1 0x2A SLOAD SWAP1 JUMP JUMPDEST PUSH1 0x12 SLOAD SWAP1 JUMP JUMPDEST PUSH1 0x36 SLOAD PUSH1 0x1 PUSH1 0x1 PUSH1 0xA0 SHL SUB AND SWAP1 JUMP JUMPDEST PUSH1 0x14 SLOAD DUP2 JUMP JUMPDEST PUSH1 0x39 SLOAD PUSH1 0x1 PUSH1 0x1 PUSH1 0xA0 SHL SUB AND DUP2 JUMP JUMPDEST PUSH1 0x7 SLOAD SWAP1 JUMP JUMPDEST PUSH1 0x13 SLOAD SWAP1 JUMP JUMPDEST PUSH1 0x13 SLOAD DUP2 JUMP JUMPDEST PUSH1 0x22 SLOAD SWAP1 JUMP JUMPDEST PUSH1 0xF SLOAD SWAP1 JUMP JUMPDEST PUSH1 0x5 SLOAD DUP2 JUMP JUMPDEST PUSH1 0x2 SLOAD DUP2 JUMP JUMPDEST PUSH1 0x1F SLOAD DUP2 JUMP JUMPDEST PUSH1 0x30 SLOAD PUSH1 0x1 PUSH1 0x1 PUSH1 0xA0 SHL SUB AND SWAP1 JUMP JUMPDEST PUSH1 0x1F SLOAD SWAP1 JUMP JUMPDEST PUSH1 0x16 SLOAD DUP2 JUMP JUMPDEST PUSH1 0x17 SLOAD SWAP1 JUMP JUMPDEST PUSH1 0x15 SLOAD DUP2 JUMP JUMPDEST PUSH1 0xB SLOAD DUP2 JUMP JUMPDEST PUSH1 0x36 SLOAD PUSH1 0x1 PUSH1 0x1 PUSH1 0xA0 SHL SUB AND DUP2 JUMP JUMPDEST PUSH1 0x19 SLOAD SWAP1 JUMP JUMPDEST PUSH1 0x8 SLOAD SWAP1 JUMP JUMPDEST PUSH1 0x12 SLOAD DUP2 JUMP JUMPDEST PUSH2 0x1225 PUSH2 0x149A JUMP JUMPDEST DUP2 PUSH1 0x1 EQ ISZERO PUSH2 0x1234 JUMPI PUSH1 0x17 DUP2 SWAP1 SSTORE JUMPDEST DUP2 PUSH1 0x2 EQ ISZERO PUSH2 0x1243 JUMPI PUSH1 0x1A DUP2 SWAP1 SSTORE JUMPDEST DUP2 PUSH1 0x3 EQ ISZERO PUSH2 0x1252 JUMPI PUSH1 0x18 DUP2 SWAP1 SSTORE JUMPDEST DUP2 PUSH1 0x4 EQ ISZERO PUSH2 0x1261 JUMPI PUSH1 0x19 DUP2 SWAP1 SSTORE JUMPDEST DUP2 PUSH1 0x5 EQ ISZERO PUSH2 0x1270 JUMPI PUSH1 0x1B DUP2 SWAP1 SSTORE JUMPDEST DUP2 PUSH1 0x6 EQ ISZERO PUSH2 0x127F JUMPI PUSH1 0x1C DUP2 SWAP1 SSTORE JUMPDEST DUP2 PUSH1 0x7 EQ ISZERO PUSH2 0x128E JUMPI PUSH1 0x1E DUP2 SWAP1 SSTORE JUMPDEST DUP2 PUSH1 0x8 EQ ISZERO PUSH2 0xF85 JUMPI PUSH1 0x1D SSTORE POP JUMP JUMPDEST PUSH1 0x4 SLOAD SWAP1 JUMP JUMPDEST PUSH1 0x1A SLOAD SWAP1 JUMP JUMPDEST PUSH1 0xF SLOAD DUP2 JUMP JUMPDEST PUSH1 0x14 SLOAD SWAP1 JUMP JUMPDEST PUSH1 0x21 SLOAD SWAP1 JUMP JUMPDEST PUSH1 0x9 SLOAD DUP2 JUMP JUMPDEST PUSH1 0x23 SLOAD DUP2 JUMP JUMPDEST PUSH1 0x31 SLOAD PUSH1 0x1 PUSH1 0x1 PUSH1 0xA0 SHL SUB AND SWAP1 JUMP JUMPDEST PUSH1 0x2 SLOAD SWAP1 JUMP JUMPDEST PUSH2 0x12E4 PUSH2 0x149A JUMP JUMPDEST DUP3 PUSH1 0x1 EQ ISZERO PUSH2 0x12F3 JUMPI PUSH1 0x5 DUP3 SWAP1 SSTORE JUMPDEST DUP3 PUSH1 0x2 EQ ISZERO PUSH2 0x1302 JUMPI PUSH1 0x6 DUP3 SWAP1 SSTORE JUMPDEST DUP3 PUSH1 0x3 EQ ISZERO PUSH2 0x1311 JUMPI PUSH1 0x7 DUP3 SWAP1 SSTORE JUMPDEST DUP3 PUSH1 0x4 EQ ISZERO PUSH2 0x1320 JUMPI PUSH1 0x8 DUP3 SWAP1 SSTORE JUMPDEST DUP3 PUSH1 0x5 EQ ISZERO PUSH2 0x132F JUMPI PUSH1 0x9 DUP3 SWAP1 SSTORE JUMPDEST DUP3 PUSH1 0x6 EQ ISZERO PUSH2 0x133E JUMPI PUSH1 0xA DUP3 SWAP1 SSTORE JUMPDEST DUP3 PUSH1 0x7 EQ ISZERO PUSH2 0x134D JUMPI PUSH1 0xB DUP3 SWAP1 SSTORE JUMPDEST DUP3 PUSH1 0x8 EQ ISZERO PUSH2 0x135C JUMPI PUSH1 0xC DUP3 SWAP1 SSTORE JUMPDEST DUP3 PUSH1 0x9 EQ ISZERO PUSH2 0x136B JUMPI PUSH1 0xD DUP3 SWAP1 SSTORE JUMPDEST DUP3 PUSH1 0xA EQ ISZERO PUSH2 0x137A JUMPI PUSH1 0xE DUP3 SWAP1 SSTORE JUMPDEST DUP3 PUSH1 0xB EQ ISZERO PUSH2 0x1389 JUMPI PUSH1 0xF DUP3 SWAP1 SSTORE JUMPDEST DUP3 PUSH1 0xC EQ ISZERO PUSH2 0x13A1 JUMPI PUSH1 0x10 DUP1 SLOAD PUSH1 0xFF NOT AND DUP3 ISZERO ISZERO OR SWAP1 SSTORE JUMPDEST DUP3 PUSH1 0xD EQ ISZERO PUSH2 0x13B0 JUMPI PUSH1 0x11 DUP3 SWAP1 SSTORE JUMPDEST DUP3 PUSH1 0xE EQ ISZERO PUSH2 0x13BF JUMPI PUSH1 0x12 DUP3 SWAP1 SSTORE JUMPDEST DUP3 PUSH1 0xF EQ ISZERO PUSH2 0x13CE JUMPI PUSH1 0x13 DUP3 SWAP1 SSTORE JUMPDEST DUP3 PUSH1 0x10 EQ ISZERO PUSH2 0x13DD JUMPI PUSH1 0x14 DUP3 SWAP1 SSTORE JUMPDEST DUP3 PUSH1 0x11 EQ ISZERO PUSH2 0x13EC JUMPI PUSH1 0x15 DUP3 SWAP1 SSTORE JUMPDEST DUP3 PUSH1 0x12 EQ ISZERO PUSH2 0x13FB JUMPI PUSH1 0x16 DUP3 SWAP1 SSTORE JUMPDEST POP POP POP JUMP JUMPDEST PUSH1 0x1D SLOAD SWAP1 JUMP JUMPDEST PUSH2 0x140E PUSH2 0x149A JUMP JUMPDEST PUSH1 0x1 PUSH1 0x1 PUSH1 0xA0 SHL SUB DUP2 AND PUSH2 0x143D JUMPI PUSH1 0x40 MLOAD PUSH3 0x461BCD PUSH1 0xE5 SHL DUP2 MSTORE PUSH1 0x4 ADD PUSH2 0x1434 SWAP1 PUSH2 0x16B1 JUMP JUMPDEST PUSH1 0x40 MLOAD DUP1 SWAP2 SUB SWAP1 REVERT JUMPDEST PUSH2 0x1446 DUP2 PUSH2 0x14D9 JUMP JUMPDEST POP JUMP JUMPDEST PUSH1 0x21 SLOAD DUP2 JUMP JUMPDEST PUSH1 0x2E SLOAD DUP2 JUMP JUMPDEST PUSH1 0x37 SLOAD PUSH1 0x1 PUSH1 0x1 PUSH1 0xA0 SHL SUB AND SWAP1 JUMP JUMPDEST PUSH1 0xD SLOAD SWAP1 JUMP JUMPDEST PUSH1 0x7 SLOAD DUP2 JUMP JUMPDEST PUSH1 0x38 SLOAD PUSH1 0x1 PUSH1 0x1 PUSH1 0xA0 SHL SUB AND DUP2 JUMP JUMPDEST PUSH1 0x2F SLOAD PUSH1 0x1 PUSH1 0x1 PUSH1 0xA0 SHL SUB AND DUP2 JUMP JUMPDEST PUSH1 0x6 SLOAD SWAP1 JUMP JUMPDEST PUSH1 0x18 SLOAD SWAP1 JUMP JUMPDEST PUSH2 0x14A2 PUSH2 0x1529 JUMP JUMPDEST PUSH1 0x1 PUSH1 0x1 PUSH1 0xA0 SHL SUB AND PUSH2 0x14B3 PUSH2 0x10F4 JUMP JUMPDEST PUSH1 0x1 PUSH1 0x1 PUSH1 0xA0 SHL SUB AND EQ PUSH2 0xFF7 JUMPI PUSH1 0x40 MLOAD PUSH3 0x461BCD PUSH1 0xE5 SHL DUP2 MSTORE PUSH1 0x4 ADD PUSH2 0x1434 SWAP1 PUSH2 0x16F7 JUMP JUMPDEST PUSH1 0x0 DUP1 SLOAD PUSH1 0x1 PUSH1 0x1 PUSH1 0xA0 SHL SUB DUP4 DUP2 AND PUSH1 0x1 PUSH1 0x1 PUSH1 0xA0 SHL SUB NOT DUP4 AND DUP2 OR DUP5 SSTORE PUSH1 0x40 MLOAD SWAP2 SWAP1 SWAP3 AND SWAP3 DUP4 SWAP2 PUSH32 0x8BE0079C531659141344CD1FD0A4F28419497F9722A3DAAFE3B4186F6B6457E0 SWAP2 SWAP1 LOG3 POP POP JUMP JUMPDEST CALLER SWAP1 JUMP JUMPDEST DUP1 CALLDATALOAD PUSH1 0x1 PUSH1 0x1 PUSH1 0xA0 SHL SUB DUP2 AND DUP2 EQ PUSH2 0x1544 JUMPI PUSH1 0x0 DUP1 REVERT JUMPDEST SWAP2 SWAP1 POP JUMP JUMPDEST PUSH1 0x0 PUSH1 0x20 DUP3 DUP5 SUB SLT ISZERO PUSH2 0x155A JUMPI DUP1 DUP2 REVERT JUMPDEST PUSH2 0x1563 DUP3 PUSH2 0x152D JUMP JUMPDEST SWAP4 SWAP3 POP POP POP JUMP JUMPDEST PUSH1 0x0 DUP1 PUSH1 0x0 DUP1 PUSH1 0x0 DUP1 PUSH1 0x0 DUP1 PUSH1 0x0 DUP1 PUSH1 0x0 PUSH2 0x160 DUP13 DUP15 SUB SLT ISZERO PUSH2 0x158B JUMPI DUP7 DUP8 REVERT JUMPDEST PUSH2 0x1594 DUP13 PUSH2 0x152D JUMP JUMPDEST SWAP11 POP PUSH2 0x15A2 PUSH1 0x20 DUP14 ADD PUSH2 0x152D JUMP JUMPDEST SWAP10 POP PUSH2 0x15B0 PUSH1 0x40 DUP14 ADD PUSH2 0x152D JUMP JUMPDEST SWAP9 POP PUSH2 0x15BE PUSH1 0x60 DUP14 ADD PUSH2 0x152D JUMP JUMPDEST SWAP8 POP PUSH2 0x15CC PUSH1 0x80 DUP14 ADD PUSH2 0x152D JUMP JUMPDEST SWAP7 POP PUSH2 0x15DA PUSH1 0xA0 DUP14 ADD PUSH2 0x152D JUMP JUMPDEST SWAP6 POP PUSH2 0x15E8 PUSH1 0xC0 DUP14 ADD PUSH2 0x152D JUMP JUMPDEST SWAP5 POP PUSH2 0x15F6 PUSH1 0xE0 DUP14 ADD PUSH2 0x152D JUMP JUMPDEST SWAP4 POP PUSH2 0x1605 PUSH2 0x100 DUP14 ADD PUSH2 0x152D JUMP JUMPDEST SWAP3 POP PUSH2 0x1614 PUSH2 0x120 DUP14 ADD PUSH2 0x152D JUMP JUMPDEST SWAP2 POP PUSH2 0x1623 PUSH2 0x140 DUP14 ADD PUSH2 0x152D JUMP JUMPDEST SWAP1 POP SWAP3 SWAP6 SWAP9 SWAP12 POP SWAP3 SWAP6 SWAP9 SWAP12 SWAP1 SWAP4 SWAP7 SWAP10 POP JUMP JUMPDEST PUSH1 0x0 DUP1 PUSH1 0x40 DUP4 DUP6 SUB SLT ISZERO PUSH2 0x1647 JUMPI DUP2 DUP3 REVERT JUMPDEST POP POP DUP1 CALLDATALOAD SWAP3 PUSH1 0x20 SWAP1 SWAP2 ADD CALLDATALOAD SWAP2 POP JUMP JUMPDEST PUSH1 0x0 DUP1 PUSH1 0x0 PUSH1 0x60 DUP5 DUP7 SUB SLT ISZERO PUSH2 0x166A JUMPI DUP3 DUP4 REVERT JUMPDEST DUP4 CALLDATALOAD SWAP3 POP PUSH1 0x20 DUP5 ADD CALLDATALOAD SWAP2 POP PUSH1 0x40 DUP5 ADD CALLDATALOAD DUP1 ISZERO ISZERO DUP2 EQ PUSH2 0x1687 JUMPI DUP2 DUP3 REVERT JUMPDEST DUP1 SWAP2 POP POP SWAP3 POP SWAP3 POP SWAP3 JUMP JUMPDEST PUSH1 0x1 PUSH1 0x1 PUSH1 0xA0 SHL SUB SWAP2 SWAP1 SWAP2 AND DUP2 MSTORE PUSH1 0x20 ADD SWAP1 JUMP JUMPDEST SWAP1 ISZERO ISZERO DUP2 MSTORE PUSH1 0x20 ADD SWAP1 JUMP JUMPDEST PUSH1 0x20 DUP1 DUP3 MSTORE PUSH1 0x26 SWAP1 DUP3 ADD MSTORE PUSH32 0x4F776E61626C653A206E6577206F776E657220697320746865207A65726F2061 PUSH1 0x40 DUP3 ADD MSTORE PUSH6 0x646472657373 PUSH1 0xD0 SHL PUSH1 0x60 DUP3 ADD MSTORE PUSH1 0x80 ADD SWAP1 JUMP JUMPDEST PUSH1 0x20 DUP1 DUP3 MSTORE DUP2 DUP2 ADD MSTORE PUSH32 0x4F776E61626C653A2063616C6C6572206973206E6F7420746865206F776E6572 PUSH1 0x40 DUP3 ADD MSTORE PUSH1 0x60 ADD SWAP1 JUMP JUMPDEST SWAP1 DUP2 MSTORE PUSH1 0x20 ADD SWAP1 JUMP INVALID LOG2 PUSH5 0x6970667358 0x22 SLT KECCAK256 LOG0 0xB3 0xF8 0xDA CALLER SWAP3 0x5E 0xF6 CREATE2 0xEC CALLDATALOAD 0xC2 PUSH2 0xFE9 0xC MSTORE BLOCKHASH SWAP1 PUSH20 0x6371BCAFE9008CEBA454F56964736F6C63430008 STOP STOP CALLER "
		},
		"gasEstimates": {
			"creation": {
				"codeDepositCost": "1199000",
				"executionCost": "944853",
				"totalCost": "2143853"
			},
			"external": {
				"ARCHIVING_COMMIT_ROUND_DURATION()": "1163",
				"ARCHIVING_DATA_BATCH_SIZE()": "1119",
				"ARCHIVING_MAX_CONSENSUS_WORKER_COUNT()": "1141",
				"ARCHIVING_MIN_CONSENSUS_WORKER_COUNT()": "1185",
				"ARCHIVING_MIN_REP_DataValidation()": "1117",
				"ARCHIVING_MIN_REWARD_DataValidation()": "1164",
				"ARCHIVING_MIN_STAKE()": "1120",
				"ARCHIVING_REVEAL_ROUND_DURATION()": "1118",
				"AddressManager()": "1182",
				"ArchivingSystem()": "1204",
				"COMPLIANCE_COMMIT_ROUND_DURATION()": "1140",
				"COMPLIANCE_DATA_BATCH_SIZE()": "1119",
				"COMPLIANCE_MAX_CONSENSUS_WORKER_COUNT()": "1163",
				"COMPLIANCE_MIN_CONSENSUS_WORKER_COUNT()": "1119",
				"COMPLIANCE_MIN_REP_DataValidation()": "1162",
				"COMPLIANCE_MIN_REWARD_DataValidation()": "1185",
				"COMPLIANCE_MIN_STAKE()": "1118",
				"COMPLIANCE_REVEAL_ROUND_DURATION()": "1141",
				"ComplianceSystem()": "1162",
				"INDEXING_COMMIT_ROUND_DURATION()": "1140",
				"INDEXING_DATA_BATCH_SIZE()": "1161",
				"INDEXING_MAX_CONSENSUS_WORKER_COUNT()": "1183",
				"INDEXING_MIN_CONSENSUS_WORKER_COUNT()": "1140",
				"INDEXING_MIN_REP_DataValidation()": "1142",
				"INDEXING_MIN_REWARD_DataValidation()": "1164",
				"INDEXING_MIN_STAKE()": "1185",
				"INDEXING_REVEAL_ROUND_DURATION()": "1184",
				"IndexingSystem()": "1158",
				"MAX_CONTRACT_STORED_BATCHES()": "1142",
				"MAX_SUCCEEDING_NOVOTES()": "1118",
				"MAX_TOTAL_WORKERS()": "1140",
				"MAX_UPDATE_ITERATIONS()": "1119",
				"NOVOTE_REGISTRATION_WAIT_DURATION()": "1141",
				"RepManager()": "1205",
				"Reputation()": "1227",
				"RewardManager()": "1183",
				"SPOT_COMMIT_ROUND_DURATION()": "1118",
				"SPOT_DATA_BATCH_SIZE()": "1117",
				"SPOT_GLOBAL_MAX_SPOT_PER_PERIOD()": "1140",
				"SPOT_INTER_ALLOCATION_DURATION()": "1139",
				"SPOT_MAX_CONSENSUS_WORKER_COUNT()": "1162",
				"SPOT_MAX_SPOT_PER_USER_PER_PERIOD()": "1140",
				"SPOT_MIN_CONSENSUS_WORKER_COUNT()": "1183",
				"SPOT_MIN_REP_DataValidation()": "1184",
				"SPOT_MIN_REP_SpotData()": "1163",
				"SPOT_MIN_REWARD_DataValidation()": "1117",
				"SPOT_MIN_REWARD_SpotData()": "1140",
				"SPOT_MIN_STAKE()": "1121",
				"SPOT_NB_TIMEFRAMES()": "1140",
				"SPOT_REVEAL_ROUND_DURATION()": "1141",
				"SPOT_TIMEFRAME_DURATION()": "1139",
				"SPOT_TOGGLE_ENABLED()": "1153",
				"SpottingSystem()": "1204",
				"StakeManager()": "1182",
				"VOTE_QUORUM()": "1139",
				"destroyContract()": "infinite",
				"getAddressManager()": "1227",
				"getArchivingSystem()": "1204",
				"getComplianceSystem()": "1181",
				"getExordeToken()": "1161",
				"getIndexingSystem()": "1160",
				"getMaxTotalWorkers()": "1163",
				"getRepManager()": "1184",
				"getReputationSystem()": "1204",
				"getRewardManager()": "1207",
				"getSpottingSystem()": "1160",
				"getStakeManager()": "1225",
				"getVoteQuorum()": "1184",
				"get_ARCHIVING_COMMIT_ROUND_DURATION()": "1141",
				"get_ARCHIVING_DATA_BATCH_SIZE()": "1143",
				"get_ARCHIVING_MAX_CONSENSUS_WORKER_COUNT()": "1185",
				"get_ARCHIVING_MIN_CONSENSUS_WORKER_COUNT()": "1119",
				"get_ARCHIVING_MIN_REP_DataValidation()": "1120",
				"get_ARCHIVING_MIN_REWARD_DataValidation()": "1161",
				"get_ARCHIVING_MIN_STAKE()": "1163",
				"get_ARCHIVING_REVEAL_ROUND_DURATION()": "1185",
				"get_COMPLIANCE_COMMIT_ROUND_DURATION()": "1184",
				"get_COMPLIANCE_DATA_BATCH_SIZE()": "1163",
				"get_COMPLIANCE_MAX_CONSENSUS_WORKER_COUNT()": "1184",
				"get_COMPLIANCE_MIN_CONSENSUS_WORKER_COUNT()": "1182",
				"get_COMPLIANCE_MIN_REP_DataValidation()": "1183",
				"get_COMPLIANCE_MIN_REWARD_DataValidation()": "1139",
				"get_COMPLIANCE_MIN_STAKE()": "1117",
				"get_COMPLIANCE_REVEAL_ROUND_DURATION()": "1120",
				"get_INDEXING_COMMIT_ROUND_DURATION()": "1164",
				"get_INDEXING_DATA_BATCH_SIZE()": "1119",
				"get_INDEXING_MAX_CONSENSUS_WORKER_COUNT()": "1183",
				"get_INDEXING_MIN_CONSENSUS_WORKER_COUNT()": "1118",
				"get_INDEXING_MIN_REP_DataValidation()": "1162",
				"get_INDEXING_MIN_REWARD_DataValidation()": "1163",
				"get_INDEXING_MIN_STAKE()": "1162",
				"get_INDEXING_REVEAL_ROUND_DURATION()": "1120",
				"get_MAX_CONTRACT_STORED_BATCHES()": "1184",
				"get_MAX_SUCCEEDING_NOVOTES()": "1185",
				"get_MAX_UPDATE_ITERATIONS()": "1162",
				"get_NOVOTE_REGISTRATION_WAIT_DURATION()": "1164",
				"get_SPOT_COMMIT_ROUND_DURATION()": "1119",
				"get_SPOT_DATA_BATCH_SIZE()": "1163",
				"get_SPOT_GLOBAL_MAX_SPOT_PER_PERIOD()": "1185",
				"get_SPOT_INTER_ALLOCATION_DURATION()": "1184",
				"get_SPOT_MAX_CONSENSUS_WORKER_COUNT()": "1118",
				"get_SPOT_MAX_SPOT_PER_USER_PER_PERIOD()": "1118",
				"get_SPOT_MIN_CONSENSUS_WORKER_COUNT()": "1184",
				"get_SPOT_MIN_REP_DataValidation()": "1142",
				"get_SPOT_MIN_REP_SpotData()": "1119",
				"get_SPOT_MIN_REWARD_DataValidation()": "1161",
				"get_SPOT_MIN_REWARD_SpotData()": "1141",
				"get_SPOT_MIN_STAKE()": "1160",
				"get_SPOT_NB_TIMEFRAMES()": "1161",
				"get_SPOT_REVEAL_ROUND_DURATION()": "1141",
				"get_SPOT_TIMEFRAME_DURATION()": "1186",
				"get_SPOT_TOGGLE_ENABLED()": "1176",
				"getsFuelSystem()": "1161",
				"owner()": "1184",
				"renounceOwnership()": "infinite",
				"sFuel()": "1226",
				"token()": "1180",
				"transferOwnership(address)": "23856",
				"updateArchivingParameters(uint256,uint256)": "161595",
				"updateComplianceParameters(uint256,uint256)": "161607",
				"updateContractsAddresses(address,address,address,address,address,address,address,address,address,address,address)": "infinite",
				"updateGeneralParameters(uint256,uint256)": "81423",
				"updateIndexingParameters(uint256,uint256)": "161608",
				"updateSpottingParameters(uint256,uint256,bool)": "362806"
			}
		},
		"methodIdentifiers": {
			"ARCHIVING_COMMIT_ROUND_DURATION()": "531780bb",
			"ARCHIVING_DATA_BATCH_SIZE()": "4ed60b2a",
			"ARCHIVING_MAX_CONSENSUS_WORKER_COUNT()": "ac846e79",
			"ARCHIVING_MIN_CONSENSUS_WORKER_COUNT()": "5d1c3182",
			"ARCHIVING_MIN_REP_DataValidation()": "f5bec1ad",
			"ARCHIVING_MIN_REWARD_DataValidation()": "08e7f0db",
			"ARCHIVING_MIN_STAKE()": "0a5a4c20",
			"ARCHIVING_REVEAL_ROUND_DURATION()": "8360034d",
			"AddressManager()": "7a34da67",
			"ArchivingSystem()": "b6c6ec02",
			"COMPLIANCE_COMMIT_ROUND_DURATION()": "6785f847",
			"COMPLIANCE_DATA_BATCH_SIZE()": "175bf630",
			"COMPLIANCE_MAX_CONSENSUS_WORKER_COUNT()": "31911c91",
			"COMPLIANCE_MIN_CONSENSUS_WORKER_COUNT()": "728d23ab",
			"COMPLIANCE_MIN_REP_DataValidation()": "6a8e0ece",
			"COMPLIANCE_MIN_REWARD_DataValidation()": "34c37e21",
			"COMPLIANCE_MIN_STAKE()": "42df5641",
			"COMPLIANCE_REVEAL_ROUND_DURATION()": "9a175938",
			"ComplianceSystem()": "06606d67",
			"INDEXING_COMMIT_ROUND_DURATION()": "e9704f81",
			"INDEXING_DATA_BATCH_SIZE()": "c95b53c5",
			"INDEXING_MAX_CONSENSUS_WORKER_COUNT()": "f4e20b9c",
			"INDEXING_MIN_CONSENSUS_WORKER_COUNT()": "444d62b6",
			"INDEXING_MIN_REP_DataValidation()": "2be05960",
			"INDEXING_MIN_REWARD_DataValidation()": "2bf8abb3",
			"INDEXING_MIN_STAKE()": "779231b2",
			"INDEXING_REVEAL_ROUND_DURATION()": "7e8603e9",
			"IndexingSystem()": "fbf14851",
			"MAX_CONTRACT_STORED_BATCHES()": "4e5638f5",
			"MAX_SUCCEEDING_NOVOTES()": "d4efd2ba",
			"MAX_TOTAL_WORKERS()": "a327181b",
			"MAX_UPDATE_ITERATIONS()": "90d10b6e",
			"NOVOTE_REGISTRATION_WAIT_DURATION()": "d0eed967",
			"RepManager()": "29a47bc7",
			"Reputation()": "9904ed8d",
			"RewardManager()": "51912f29",
			"SPOT_COMMIT_ROUND_DURATION()": "e6fdd4c0",
			"SPOT_DATA_BATCH_SIZE()": "c6eacbfe",
			"SPOT_GLOBAL_MAX_SPOT_PER_PERIOD()": "e0de3d7c",
			"SPOT_INTER_ALLOCATION_DURATION()": "e5f14824",
			"SPOT_MAX_CONSENSUS_WORKER_COUNT()": "a35b3b09",
			"SPOT_MAX_SPOT_PER_USER_PER_PERIOD()": "bf09ff70",
			"SPOT_MIN_CONSENSUS_WORKER_COUNT()": "fb50a473",
			"SPOT_MIN_REP_DataValidation()": "86b0b4c5",
			"SPOT_MIN_REP_SpotData()": "5cb361f6",
			"SPOT_MIN_REWARD_DataValidation()": "8724450f",
			"SPOT_MIN_REWARD_SpotData()": "d81109ce",
			"SPOT_MIN_STAKE()": "00653ff8",
			"SPOT_NB_TIMEFRAMES()": "b6118450",
			"SPOT_REVEAL_ROUND_DURATION()": "1d0fb88e",
			"SPOT_TIMEFRAME_DURATION()": "87ce6311",
			"SPOT_TOGGLE_ENABLED()": "36fc43fc",
			"SpottingSystem()": "d8645d37",
			"StakeManager()": "83cc6ef2",
			"VOTE_QUORUM()": "c7761fab",
			"destroyContract()": "092a5cce",
			"getAddressManager()": "5492f302",
			"getArchivingSystem()": "463444b7",
			"getComplianceSystem()": "f67362fe",
			"getExordeToken()": "2e2f93f3",
			"getIndexingSystem()": "7a0ec25b",
			"getMaxTotalWorkers()": "98a54e2b",
			"getRepManager()": "0855d151",
			"getReputationSystem()": "e992dca7",
			"getRewardManager()": "04e76c8f",
			"getSpottingSystem()": "b45d9d8d",
			"getStakeManager()": "ca64f9e7",
			"getVoteQuorum()": "ea19733c",
			"get_ARCHIVING_COMMIT_ROUND_DURATION()": "9279e9d4",
			"get_ARCHIVING_DATA_BATCH_SIZE()": "0363a1bf",
			"get_ARCHIVING_MAX_CONSENSUS_WORKER_COUNT()": "3968ec84",
			"get_ARCHIVING_MIN_CONSENSUS_WORKER_COUNT()": "995adbdd",
			"get_ARCHIVING_MIN_REP_DataValidation()": "49b46787",
			"get_ARCHIVING_MIN_REWARD_DataValidation()": "893b2a76",
			"get_ARCHIVING_MIN_STAKE()": "b1562f67",
			"get_ARCHIVING_REVEAL_ROUND_DURATION()": "29e3dd1f",
			"get_COMPLIANCE_COMMIT_ROUND_DURATION()": "484df80a",
			"get_COMPLIANCE_DATA_BATCH_SIZE()": "d1a89a46",
			"get_COMPLIANCE_MAX_CONSENSUS_WORKER_COUNT()": "dc7048c1",
			"get_COMPLIANCE_MIN_CONSENSUS_WORKER_COUNT()": "fff5f946",
			"get_COMPLIANCE_MIN_REP_DataValidation()": "89b212d3",
			"get_COMPLIANCE_MIN_REWARD_DataValidation()": "f116c4e0",
			"get_COMPLIANCE_MIN_STAKE()": "e3dfc0b2",
			"get_COMPLIANCE_REVEAL_ROUND_DURATION()": "2b0afab3",
			"get_INDEXING_COMMIT_ROUND_DURATION()": "90cc59eb",
			"get_INDEXING_DATA_BATCH_SIZE()": "cb3a2a88",
			"get_INDEXING_MAX_CONSENSUS_WORKER_COUNT()": "e68c9c30",
			"get_INDEXING_MIN_CONSENSUS_WORKER_COUNT()": "a1a4575a",
			"get_INDEXING_MIN_REP_DataValidation()": "849f9f0a",
			"get_INDEXING_MIN_REWARD_DataValidation()": "386d0976",
			"get_INDEXING_MIN_STAKE()": "bf34f749",
			"get_INDEXING_REVEAL_ROUND_DURATION()": "8a13725d",
			"get_MAX_CONTRACT_STORED_BATCHES()": "e3115d3c",
			"get_MAX_SUCCEEDING_NOVOTES()": "9fb491f6",
			"get_MAX_UPDATE_ITERATIONS()": "7d630cb0",
			"get_NOVOTE_REGISTRATION_WAIT_DURATION()": "0f1f0ffe",
			"get_SPOT_COMMIT_ROUND_DURATION()": "3692616a",
			"get_SPOT_DATA_BATCH_SIZE()": "9d1f2ada",
			"get_SPOT_GLOBAL_MAX_SPOT_PER_PERIOD()": "b38e885e",
			"get_SPOT_INTER_ALLOCATION_DURATION()": "c4a306f8",
			"get_SPOT_MAX_CONSENSUS_WORKER_COUNT()": "dfeceed7",
			"get_SPOT_MAX_SPOT_PER_USER_PER_PERIOD()": "be250988",
			"get_SPOT_MIN_CONSENSUS_WORKER_COUNT()": "bd40ef4c",
			"get_SPOT_MIN_REP_DataValidation()": "0b08bfd9",
			"get_SPOT_MIN_REP_SpotData()": "abb10b9b",
			"get_SPOT_MIN_REWARD_DataValidation()": "f80de0a0",
			"get_SPOT_MIN_REWARD_SpotData()": "30c0bb79",
			"get_SPOT_MIN_STAKE()": "ff622dda",
			"get_SPOT_NB_TIMEFRAMES()": "e66d543a",
			"get_SPOT_REVEAL_ROUND_DURATION()": "72e54030",
			"get_SPOT_TIMEFRAME_DURATION()": "0f78cc76",
			"get_SPOT_TOGGLE_ENABLED()": "4e87c5a8",
			"getsFuelSystem()": "557c1abe",
			"owner()": "8da5cb5b",
			"renounceOwnership()": "715018a6",
			"sFuel()": "ab43e78d",
			"token()": "fc0c546a",
			"transferOwnership(address)": "f2fde38b",
			"updateArchivingParameters(uint256,uint256)": "55a35f5c",
			"updateComplianceParameters(uint256,uint256)": "e168063c",
			"updateContractsAddresses(address,address,address,address,address,address,address,address,address,address,address)": "2d09a8e3",
			"updateGeneralParameters(uint256,uint256)": "61879075",
			"updateIndexingParameters(uint256,uint256)": "75dc6130",
			"updateSpottingParameters(uint256,uint256,bool)": "ee37f4a6"
		}
	},
	"abi": [
		{
			"anonymous": false,
			"inputs": [
				{
					"indexed": true,
					"internalType": "address",
					"name": "previousOwner",
					"type": "address"
				},
				{
					"indexed": true,
					"internalType": "address",
					"name": "newOwner",
					"type": "address"
				}
			],
			"name": "OwnershipTransferred",
			"type": "event"
		},
		{
			"inputs": [],
			"name": "ARCHIVING_COMMIT_ROUND_DURATION",
			"outputs": [
				{
					"internalType": "uint256",
					"name": "",
					"type": "uint256"
				}
			],
			"stateMutability": "view",
			"type": "function"
		},
		{
			"inputs": [],
			"name": "ARCHIVING_DATA_BATCH_SIZE",
			"outputs": [
				{
					"internalType": "uint256",
					"name": "",
					"type": "uint256"
				}
			],
			"stateMutability": "view",
			"type": "function"
		},
		{
			"inputs": [],
			"name": "ARCHIVING_MAX_CONSENSUS_WORKER_COUNT",
			"outputs": [
				{
					"internalType": "uint256",
					"name": "",
					"type": "uint256"
				}
			],
			"stateMutability": "view",
			"type": "function"
		},
		{
			"inputs": [],
			"name": "ARCHIVING_MIN_CONSENSUS_WORKER_COUNT",
			"outputs": [
				{
					"internalType": "uint256",
					"name": "",
					"type": "uint256"
				}
			],
			"stateMutability": "view",
			"type": "function"
		},
		{
			"inputs": [],
			"name": "ARCHIVING_MIN_REP_DataValidation",
			"outputs": [
				{
					"internalType": "uint256",
					"name": "",
					"type": "uint256"
				}
			],
			"stateMutability": "view",
			"type": "function"
		},
		{
			"inputs": [],
			"name": "ARCHIVING_MIN_REWARD_DataValidation",
			"outputs": [
				{
					"internalType": "uint256",
					"name": "",
					"type": "uint256"
				}
			],
			"stateMutability": "view",
			"type": "function"
		},
		{
			"inputs": [],
			"name": "ARCHIVING_MIN_STAKE",
			"outputs": [
				{
					"internalType": "uint256",
					"name": "",
					"type": "uint256"
				}
			],
			"stateMutability": "view",
			"type": "function"
		},
		{
			"inputs": [],
			"name": "ARCHIVING_REVEAL_ROUND_DURATION",
			"outputs": [
				{
					"internalType": "uint256",
					"name": "",
					"type": "uint256"
				}
			],
			"stateMutability": "view",
			"type": "function"
		},
		{
			"inputs": [],
			"name": "AddressManager",
			"outputs": [
				{
					"internalType": "address",
					"name": "",
					"type": "address"
				}
			],
			"stateMutability": "view",
			"type": "function"
		},
		{
			"inputs": [],
			"name": "ArchivingSystem",
			"outputs": [
				{
					"internalType": "address",
					"name": "",
					"type": "address"
				}
			],
			"stateMutability": "view",
			"type": "function"
		},
		{
			"inputs": [],
			"name": "COMPLIANCE_COMMIT_ROUND_DURATION",
			"outputs": [
				{
					"internalType": "uint256",
					"name": "",
					"type": "uint256"
				}
			],
			"stateMutability": "view",
			"type": "function"
		},
		{
			"inputs": [],
			"name": "COMPLIANCE_DATA_BATCH_SIZE",
			"outputs": [
				{
					"internalType": "uint256",
					"name": "",
					"type": "uint256"
				}
			],
			"stateMutability": "view",
			"type": "function"
		},
		{
			"inputs": [],
			"name": "COMPLIANCE_MAX_CONSENSUS_WORKER_COUNT",
			"outputs": [
				{
					"internalType": "uint256",
					"name": "",
					"type": "uint256"
				}
			],
			"stateMutability": "view",
			"type": "function"
		},
		{
			"inputs": [],
			"name": "COMPLIANCE_MIN_CONSENSUS_WORKER_COUNT",
			"outputs": [
				{
					"internalType": "uint256",
					"name": "",
					"type": "uint256"
				}
			],
			"stateMutability": "view",
			"type": "function"
		},
		{
			"inputs": [],
			"name": "COMPLIANCE_MIN_REP_DataValidation",
			"outputs": [
				{
					"internalType": "uint256",
					"name": "",
					"type": "uint256"
				}
			],
			"stateMutability": "view",
			"type": "function"
		},
		{
			"inputs": [],
			"name": "COMPLIANCE_MIN_REWARD_DataValidation",
			"outputs": [
				{
					"internalType": "uint256",
					"name": "",
					"type": "uint256"
				}
			],
			"stateMutability": "view",
			"type": "function"
		},
		{
			"inputs": [],
			"name": "COMPLIANCE_MIN_STAKE",
			"outputs": [
				{
					"internalType": "uint256",
					"name": "",
					"type": "uint256"
				}
			],
			"stateMutability": "view",
			"type": "function"
		},
		{
			"inputs": [],
			"name": "COMPLIANCE_REVEAL_ROUND_DURATION",
			"outputs": [
				{
					"internalType": "uint256",
					"name": "",
					"type": "uint256"
				}
			],
			"stateMutability": "view",
			"type": "function"
		},
		{
			"inputs": [],
			"name": "ComplianceSystem",
			"outputs": [
				{
					"internalType": "address",
					"name": "",
					"type": "address"
				}
			],
			"stateMutability": "view",
			"type": "function"
		},
		{
			"inputs": [],
			"name": "INDEXING_COMMIT_ROUND_DURATION",
			"outputs": [
				{
					"internalType": "uint256",
					"name": "",
					"type": "uint256"
				}
			],
			"stateMutability": "view",
			"type": "function"
		},
		{
			"inputs": [],
			"name": "INDEXING_DATA_BATCH_SIZE",
			"outputs": [
				{
					"internalType": "uint256",
					"name": "",
					"type": "uint256"
				}
			],
			"stateMutability": "view",
			"type": "function"
		},
		{
			"inputs": [],
			"name": "INDEXING_MAX_CONSENSUS_WORKER_COUNT",
			"outputs": [
				{
					"internalType": "uint256",
					"name": "",
					"type": "uint256"
				}
			],
			"stateMutability": "view",
			"type": "function"
		},
		{
			"inputs": [],
			"name": "INDEXING_MIN_CONSENSUS_WORKER_COUNT",
			"outputs": [
				{
					"internalType": "uint256",
					"name": "",
					"type": "uint256"
				}
			],
			"stateMutability": "view",
			"type": "function"
		},
		{
			"inputs": [],
			"name": "INDEXING_MIN_REP_DataValidation",
			"outputs": [
				{
					"internalType": "uint256",
					"name": "",
					"type": "uint256"
				}
			],
			"stateMutability": "view",
			"type": "function"
		},
		{
			"inputs": [],
			"name": "INDEXING_MIN_REWARD_DataValidation",
			"outputs": [
				{
					"internalType": "uint256",
					"name": "",
					"type": "uint256"
				}
			],
			"stateMutability": "view",
			"type": "function"
		},
		{
			"inputs": [],
			"name": "INDEXING_MIN_STAKE",
			"outputs": [
				{
					"internalType": "uint256",
					"name": "",
					"type": "uint256"
				}
			],
			"stateMutability": "view",
			"type": "function"
		},
		{
			"inputs": [],
			"name": "INDEXING_REVEAL_ROUND_DURATION",
			"outputs": [
				{
					"internalType": "uint256",
					"name": "",
					"type": "uint256"
				}
			],
			"stateMutability": "view",
			"type": "function"
		},
		{
			"inputs": [],
			"name": "IndexingSystem",
			"outputs": [
				{
					"internalType": "address",
					"name": "",
					"type": "address"
				}
			],
			"stateMutability": "view",
			"type": "function"
		},
		{
			"inputs": [],
			"name": "MAX_CONTRACT_STORED_BATCHES",
			"outputs": [
				{
					"internalType": "uint256",
					"name": "",
					"type": "uint256"
				}
			],
			"stateMutability": "view",
			"type": "function"
		},
		{
			"inputs": [],
			"name": "MAX_SUCCEEDING_NOVOTES",
			"outputs": [
				{
					"internalType": "uint256",
					"name": "",
					"type": "uint256"
				}
			],
			"stateMutability": "view",
			"type": "function"
		},
		{
			"inputs": [],
			"name": "MAX_TOTAL_WORKERS",
			"outputs": [
				{
					"internalType": "uint256",
					"name": "",
					"type": "uint256"
				}
			],
			"stateMutability": "view",
			"type": "function"
		},
		{
			"inputs": [],
			"name": "MAX_UPDATE_ITERATIONS",
			"outputs": [
				{
					"internalType": "uint256",
					"name": "",
					"type": "uint256"
				}
			],
			"stateMutability": "view",
			"type": "function"
		},
		{
			"inputs": [],
			"name": "NOVOTE_REGISTRATION_WAIT_DURATION",
			"outputs": [
				{
					"internalType": "uint256",
					"name": "",
					"type": "uint256"
				}
			],
			"stateMutability": "view",
			"type": "function"
		},
		{
			"inputs": [],
			"name": "RepManager",
			"outputs": [
				{
					"internalType": "address",
					"name": "",
					"type": "address"
				}
			],
			"stateMutability": "view",
			"type": "function"
		},
		{
			"inputs": [],
			"name": "Reputation",
			"outputs": [
				{
					"internalType": "address",
					"name": "",
					"type": "address"
				}
			],
			"stateMutability": "view",
			"type": "function"
		},
		{
			"inputs": [],
			"name": "RewardManager",
			"outputs": [
				{
					"internalType": "address",
					"name": "",
					"type": "address"
				}
			],
			"stateMutability": "view",
			"type": "function"
		},
		{
			"inputs": [],
			"name": "SPOT_COMMIT_ROUND_DURATION",
			"outputs": [
				{
					"internalType": "uint256",
					"name": "",
					"type": "uint256"
				}
			],
			"stateMutability": "view",
			"type": "function"
		},
		{
			"inputs": [],
			"name": "SPOT_DATA_BATCH_SIZE",
			"outputs": [
				{
					"internalType": "uint256",
					"name": "",
					"type": "uint256"
				}
			],
			"stateMutability": "view",
			"type": "function"
		},
		{
			"inputs": [],
			"name": "SPOT_GLOBAL_MAX_SPOT_PER_PERIOD",
			"outputs": [
				{
					"internalType": "uint256",
					"name": "",
					"type": "uint256"
				}
			],
			"stateMutability": "view",
			"type": "function"
		},
		{
			"inputs": [],
			"name": "SPOT_INTER_ALLOCATION_DURATION",
			"outputs": [
				{
					"internalType": "uint256",
					"name": "",
					"type": "uint256"
				}
			],
			"stateMutability": "view",
			"type": "function"
		},
		{
			"inputs": [],
			"name": "SPOT_MAX_CONSENSUS_WORKER_COUNT",
			"outputs": [
				{
					"internalType": "uint256",
					"name": "",
					"type": "uint256"
				}
			],
			"stateMutability": "view",
			"type": "function"
		},
		{
			"inputs": [],
			"name": "SPOT_MAX_SPOT_PER_USER_PER_PERIOD",
			"outputs": [
				{
					"internalType": "uint256",
					"name": "",
					"type": "uint256"
				}
			],
			"stateMutability": "view",
			"type": "function"
		},
		{
			"inputs": [],
			"name": "SPOT_MIN_CONSENSUS_WORKER_COUNT",
			"outputs": [
				{
					"internalType": "uint256",
					"name": "",
					"type": "uint256"
				}
			],
			"stateMutability": "view",
			"type": "function"
		},
		{
			"inputs": [],
			"name": "SPOT_MIN_REP_DataValidation",
			"outputs": [
				{
					"internalType": "uint256",
					"name": "",
					"type": "uint256"
				}
			],
			"stateMutability": "view",
			"type": "function"
		},
		{
			"inputs": [],
			"name": "SPOT_MIN_REP_SpotData",
			"outputs": [
				{
					"internalType": "uint256",
					"name": "",
					"type": "uint256"
				}
			],
			"stateMutability": "view",
			"type": "function"
		},
		{
			"inputs": [],
			"name": "SPOT_MIN_REWARD_DataValidation",
			"outputs": [
				{
					"internalType": "uint256",
					"name": "",
					"type": "uint256"
				}
			],
			"stateMutability": "view",
			"type": "function"
		},
		{
			"inputs": [],
			"name": "SPOT_MIN_REWARD_SpotData",
			"outputs": [
				{
					"internalType": "uint256",
					"name": "",
					"type": "uint256"
				}
			],
			"stateMutability": "view",
			"type": "function"
		},
		{
			"inputs": [],
			"name": "SPOT_MIN_STAKE",
			"outputs": [
				{
					"internalType": "uint256",
					"name": "",
					"type": "uint256"
				}
			],
			"stateMutability": "view",
			"type": "function"
		},
		{
			"inputs": [],
			"name": "SPOT_NB_TIMEFRAMES",
			"outputs": [
				{
					"internalType": "uint256",
					"name": "",
					"type": "uint256"
				}
			],
			"stateMutability": "view",
			"type": "function"
		},
		{
			"inputs": [],
			"name": "SPOT_REVEAL_ROUND_DURATION",
			"outputs": [
				{
					"internalType": "uint256",
					"name": "",
					"type": "uint256"
				}
			],
			"stateMutability": "view",
			"type": "function"
		},
		{
			"inputs": [],
			"name": "SPOT_TIMEFRAME_DURATION",
			"outputs": [
				{
					"internalType": "uint256",
					"name": "",
					"type": "uint256"
				}
			],
			"stateMutability": "view",
			"type": "function"
		},
		{
			"inputs": [],
			"name": "SPOT_TOGGLE_ENABLED",
			"outputs": [
				{
					"internalType": "bool",
					"name": "",
					"type": "bool"
				}
			],
			"stateMutability": "view",
			"type": "function"
		},
		{
			"inputs": [],
			"name": "SpottingSystem",
			"outputs": [
				{
					"internalType": "address",
					"name": "",
					"type": "address"
				}
			],
			"stateMutability": "view",
			"type": "function"
		},
		{
			"inputs": [],
			"name": "StakeManager",
			"outputs": [
				{
					"internalType": "address",
					"name": "",
					"type": "address"
				}
			],
			"stateMutability": "view",
			"type": "function"
		},
		{
			"inputs": [],
			"name": "VOTE_QUORUM",
			"outputs": [
				{
					"internalType": "uint256",
					"name": "",
					"type": "uint256"
				}
			],
			"stateMutability": "view",
			"type": "function"
		},
		{
			"inputs": [],
			"name": "destroyContract",
			"outputs": [],
			"stateMutability": "nonpayable",
			"type": "function"
		},
		{
			"inputs": [],
			"name": "getAddressManager",
			"outputs": [
				{
					"internalType": "address",
					"name": "",
					"type": "address"
				}
			],
			"stateMutability": "view",
			"type": "function"
		},
		{
			"inputs": [],
			"name": "getArchivingSystem",
			"outputs": [
				{
					"internalType": "address",
					"name": "",
					"type": "address"
				}
			],
			"stateMutability": "view",
			"type": "function"
		},
		{
			"inputs": [],
			"name": "getComplianceSystem",
			"outputs": [
				{
					"internalType": "address",
					"name": "",
					"type": "address"
				}
			],
			"stateMutability": "view",
			"type": "function"
		},
		{
			"inputs": [],
			"name": "getExordeToken",
			"outputs": [
				{
					"internalType": "address",
					"name": "",
					"type": "address"
				}
			],
			"stateMutability": "view",
			"type": "function"
		},
		{
			"inputs": [],
			"name": "getIndexingSystem",
			"outputs": [
				{
					"internalType": "address",
					"name": "",
					"type": "address"
				}
			],
			"stateMutability": "view",
			"type": "function"
		},
		{
			"inputs": [],
			"name": "getMaxTotalWorkers",
			"outputs": [
				{
					"internalType": "uint256",
					"name": "",
					"type": "uint256"
				}
			],
			"stateMutability": "view",
			"type": "function"
		},
		{
			"inputs": [],
			"name": "getRepManager",
			"outputs": [
				{
					"internalType": "address",
					"name": "",
					"type": "address"
				}
			],
			"stateMutability": "view",
			"type": "function"
		},
		{
			"inputs": [],
			"name": "getReputationSystem",
			"outputs": [
				{
					"internalType": "address",
					"name": "",
					"type": "address"
				}
			],
			"stateMutability": "view",
			"type": "function"
		},
		{
			"inputs": [],
			"name": "getRewardManager",
			"outputs": [
				{
					"internalType": "address",
					"name": "",
					"type": "address"
				}
			],
			"stateMutability": "view",
			"type": "function"
		},
		{
			"inputs": [],
			"name": "getSpottingSystem",
			"outputs": [
				{
					"internalType": "address",
					"name": "",
					"type": "address"
				}
			],
			"stateMutability": "view",
			"type": "function"
		},
		{
			"inputs": [],
			"name": "getStakeManager",
			"outputs": [
				{
					"internalType": "address",
					"name": "",
					"type": "address"
				}
			],
			"stateMutability": "view",
			"type": "function"
		},
		{
			"inputs": [],
			"name": "getVoteQuorum",
			"outputs": [
				{
					"internalType": "uint256",
					"name": "",
					"type": "uint256"
				}
			],
			"stateMutability": "view",
			"type": "function"
		},
		{
			"inputs": [],
			"name": "get_ARCHIVING_COMMIT_ROUND_DURATION",
			"outputs": [
				{
					"internalType": "uint256",
					"name": "",
					"type": "uint256"
				}
			],
			"stateMutability": "view",
			"type": "function"
		},
		{
			"inputs": [],
			"name": "get_ARCHIVING_DATA_BATCH_SIZE",
			"outputs": [
				{
					"internalType": "uint256",
					"name": "",
					"type": "uint256"
				}
			],
			"stateMutability": "view",
			"type": "function"
		},
		{
			"inputs": [],
			"name": "get_ARCHIVING_MAX_CONSENSUS_WORKER_COUNT",
			"outputs": [
				{
					"internalType": "uint256",
					"name": "",
					"type": "uint256"
				}
			],
			"stateMutability": "view",
			"type": "function"
		},
		{
			"inputs": [],
			"name": "get_ARCHIVING_MIN_CONSENSUS_WORKER_COUNT",
			"outputs": [
				{
					"internalType": "uint256",
					"name": "",
					"type": "uint256"
				}
			],
			"stateMutability": "view",
			"type": "function"
		},
		{
			"inputs": [],
			"name": "get_ARCHIVING_MIN_REP_DataValidation",
			"outputs": [
				{
					"internalType": "uint256",
					"name": "",
					"type": "uint256"
				}
			],
			"stateMutability": "view",
			"type": "function"
		},
		{
			"inputs": [],
			"name": "get_ARCHIVING_MIN_REWARD_DataValidation",
			"outputs": [
				{
					"internalType": "uint256",
					"name": "",
					"type": "uint256"
				}
			],
			"stateMutability": "view",
			"type": "function"
		},
		{
			"inputs": [],
			"name": "get_ARCHIVING_MIN_STAKE",
			"outputs": [
				{
					"internalType": "uint256",
					"name": "",
					"type": "uint256"
				}
			],
			"stateMutability": "view",
			"type": "function"
		},
		{
			"inputs": [],
			"name": "get_ARCHIVING_REVEAL_ROUND_DURATION",
			"outputs": [
				{
					"internalType": "uint256",
					"name": "",
					"type": "uint256"
				}
			],
			"stateMutability": "view",
			"type": "function"
		},
		{
			"inputs": [],
			"name": "get_COMPLIANCE_COMMIT_ROUND_DURATION",
			"outputs": [
				{
					"internalType": "uint256",
					"name": "",
					"type": "uint256"
				}
			],
			"stateMutability": "view",
			"type": "function"
		},
		{
			"inputs": [],
			"name": "get_COMPLIANCE_DATA_BATCH_SIZE",
			"outputs": [
				{
					"internalType": "uint256",
					"name": "",
					"type": "uint256"
				}
			],
			"stateMutability": "view",
			"type": "function"
		},
		{
			"inputs": [],
			"name": "get_COMPLIANCE_MAX_CONSENSUS_WORKER_COUNT",
			"outputs": [
				{
					"internalType": "uint256",
					"name": "",
					"type": "uint256"
				}
			],
			"stateMutability": "view",
			"type": "function"
		},
		{
			"inputs": [],
			"name": "get_COMPLIANCE_MIN_CONSENSUS_WORKER_COUNT",
			"outputs": [
				{
					"internalType": "uint256",
					"name": "",
					"type": "uint256"
				}
			],
			"stateMutability": "view",
			"type": "function"
		},
		{
			"inputs": [],
			"name": "get_COMPLIANCE_MIN_REP_DataValidation",
			"outputs": [
				{
					"internalType": "uint256",
					"name": "",
					"type": "uint256"
				}
			],
			"stateMutability": "view",
			"type": "function"
		},
		{
			"inputs": [],
			"name": "get_COMPLIANCE_MIN_REWARD_DataValidation",
			"outputs": [
				{
					"internalType": "uint256",
					"name": "",
					"type": "uint256"
				}
			],
			"stateMutability": "view",
			"type": "function"
		},
		{
			"inputs": [],
			"name": "get_COMPLIANCE_MIN_STAKE",
			"outputs": [
				{
					"internalType": "uint256",
					"name": "",
					"type": "uint256"
				}
			],
			"stateMutability": "view",
			"type": "function"
		},
		{
			"inputs": [],
			"name": "get_COMPLIANCE_REVEAL_ROUND_DURATION",
			"outputs": [
				{
					"internalType": "uint256",
					"name": "",
					"type": "uint256"
				}
			],
			"stateMutability": "view",
			"type": "function"
		},
		{
			"inputs": [],
			"name": "get_INDEXING_COMMIT_ROUND_DURATION",
			"outputs": [
				{
					"internalType": "uint256",
					"name": "",
					"type": "uint256"
				}
			],
			"stateMutability": "view",
			"type": "function"
		},
		{
			"inputs": [],
			"name": "get_INDEXING_DATA_BATCH_SIZE",
			"outputs": [
				{
					"internalType": "uint256",
					"name": "",
					"type": "uint256"
				}
			],
			"stateMutability": "view",
			"type": "function"
		},
		{
			"inputs": [],
			"name": "get_INDEXING_MAX_CONSENSUS_WORKER_COUNT",
			"outputs": [
				{
					"internalType": "uint256",
					"name": "",
					"type": "uint256"
				}
			],
			"stateMutability": "view",
			"type": "function"
		},
		{
			"inputs": [],
			"name": "get_INDEXING_MIN_CONSENSUS_WORKER_COUNT",
			"outputs": [
				{
					"internalType": "uint256",
					"name": "",
					"type": "uint256"
				}
			],
			"stateMutability": "view",
			"type": "function"
		},
		{
			"inputs": [],
			"name": "get_INDEXING_MIN_REP_DataValidation",
			"outputs": [
				{
					"internalType": "uint256",
					"name": "",
					"type": "uint256"
				}
			],
			"stateMutability": "view",
			"type": "function"
		},
		{
			"inputs": [],
			"name": "get_INDEXING_MIN_REWARD_DataValidation",
			"outputs": [
				{
					"internalType": "uint256",
					"name": "",
					"type": "uint256"
				}
			],
			"stateMutability": "view",
			"type": "function"
		},
		{
			"inputs": [],
			"name": "get_INDEXING_MIN_STAKE",
			"outputs": [
				{
					"internalType": "uint256",
					"name": "",
					"type": "uint256"
				}
			],
			"stateMutability": "view",
			"type": "function"
		},
		{
			"inputs": [],
			"name": "get_INDEXING_REVEAL_ROUND_DURATION",
			"outputs": [
				{
					"internalType": "uint256",
					"name": "",
					"type": "uint256"
				}
			],
			"stateMutability": "view",
			"type": "function"
		},
		{
			"inputs": [],
			"name": "get_MAX_CONTRACT_STORED_BATCHES",
			"outputs": [
				{
					"internalType": "uint256",
					"name": "",
					"type": "uint256"
				}
			],
			"stateMutability": "view",
			"type": "function"
		},
		{
			"inputs": [],
			"name": "get_MAX_SUCCEEDING_NOVOTES",
			"outputs": [
				{
					"internalType": "uint256",
					"name": "",
					"type": "uint256"
				}
			],
			"stateMutability": "view",
			"type": "function"
		},
		{
			"inputs": [],
			"name": "get_MAX_UPDATE_ITERATIONS",
			"outputs": [
				{
					"internalType": "uint256",
					"name": "",
					"type": "uint256"
				}
			],
			"stateMutability": "view",
			"type": "function"
		},
		{
			"inputs": [],
			"name": "get_NOVOTE_REGISTRATION_WAIT_DURATION",
			"outputs": [
				{
					"internalType": "uint256",
					"name": "",
					"type": "uint256"
				}
			],
			"stateMutability": "view",
			"type": "function"
		},
		{
			"inputs": [],
			"name": "get_SPOT_COMMIT_ROUND_DURATION",
			"outputs": [
				{
					"internalType": "uint256",
					"name": "",
					"type": "uint256"
				}
			],
			"stateMutability": "view",
			"type": "function"
		},
		{
			"inputs": [],
			"name": "get_SPOT_DATA_BATCH_SIZE",
			"outputs": [
				{
					"internalType": "uint256",
					"name": "",
					"type": "uint256"
				}
			],
			"stateMutability": "view",
			"type": "function"
		},
		{
			"inputs": [],
			"name": "get_SPOT_GLOBAL_MAX_SPOT_PER_PERIOD",
			"outputs": [
				{
					"internalType": "uint256",
					"name": "",
					"type": "uint256"
				}
			],
			"stateMutability": "view",
			"type": "function"
		},
		{
			"inputs": [],
			"name": "get_SPOT_INTER_ALLOCATION_DURATION",
			"outputs": [
				{
					"internalType": "uint256",
					"name": "",
					"type": "uint256"
				}
			],
			"stateMutability": "view",
			"type": "function"
		},
		{
			"inputs": [],
			"name": "get_SPOT_MAX_CONSENSUS_WORKER_COUNT",
			"outputs": [
				{
					"internalType": "uint256",
					"name": "",
					"type": "uint256"
				}
			],
			"stateMutability": "view",
			"type": "function"
		},
		{
			"inputs": [],
			"name": "get_SPOT_MAX_SPOT_PER_USER_PER_PERIOD",
			"outputs": [
				{
					"internalType": "uint256",
					"name": "",
					"type": "uint256"
				}
			],
			"stateMutability": "view",
			"type": "function"
		},
		{
			"inputs": [],
			"name": "get_SPOT_MIN_CONSENSUS_WORKER_COUNT",
			"outputs": [
				{
					"internalType": "uint256",
					"name": "",
					"type": "uint256"
				}
			],
			"stateMutability": "view",
			"type": "function"
		},
		{
			"inputs": [],
			"name": "get_SPOT_MIN_REP_DataValidation",
			"outputs": [
				{
					"internalType": "uint256",
					"name": "",
					"type": "uint256"
				}
			],
			"stateMutability": "view",
			"type": "function"
		},
		{
			"inputs": [],
			"name": "get_SPOT_MIN_REP_SpotData",
			"outputs": [
				{
					"internalType": "uint256",
					"name": "",
					"type": "uint256"
				}
			],
			"stateMutability": "view",
			"type": "function"
		},
		{
			"inputs": [],
			"name": "get_SPOT_MIN_REWARD_DataValidation",
			"outputs": [
				{
					"internalType": "uint256",
					"name": "",
					"type": "uint256"
				}
			],
			"stateMutability": "view",
			"type": "function"
		},
		{
			"inputs": [],
			"name": "get_SPOT_MIN_REWARD_SpotData",
			"outputs": [
				{
					"internalType": "uint256",
					"name": "",
					"type": "uint256"
				}
			],
			"stateMutability": "view",
			"type": "function"
		},
		{
			"inputs": [],
			"name": "get_SPOT_MIN_STAKE",
			"outputs": [
				{
					"internalType": "uint256",
					"name": "",
					"type": "uint256"
				}
			],
			"stateMutability": "view",
			"type": "function"
		},
		{
			"inputs": [],
			"name": "get_SPOT_NB_TIMEFRAMES",
			"outputs": [
				{
					"internalType": "uint256",
					"name": "",
					"type": "uint256"
				}
			],
			"stateMutability": "view",
			"type": "function"
		},
		{
			"inputs": [],
			"name": "get_SPOT_REVEAL_ROUND_DURATION",
			"outputs": [
				{
					"internalType": "uint256",
					"name": "",
					"type": "uint256"
				}
			],
			"stateMutability": "view",
			"type": "function"
		},
		{
			"inputs": [],
			"name": "get_SPOT_TIMEFRAME_DURATION",
			"outputs": [
				{
					"internalType": "uint256",
					"name": "",
					"type": "uint256"
				}
			],
			"stateMutability": "view",
			"type": "function"
		},
		{
			"inputs": [],
			"name": "get_SPOT_TOGGLE_ENABLED",
			"outputs": [
				{
					"internalType": "bool",
					"name": "",
					"type": "bool"
				}
			],
			"stateMutability": "view",
			"type": "function"
		},
		{
			"inputs": [],
			"name": "getsFuelSystem",
			"outputs": [
				{
					"internalType": "address",
					"name": "",
					"type": "address"
				}
			],
			"stateMutability": "view",
			"type": "function"
		},
		{
			"inputs": [],
			"name": "owner",
			"outputs": [
				{
					"internalType": "address",
					"name": "",
					"type": "address"
				}
			],
			"stateMutability": "view",
			"type": "function"
		},
		{
			"inputs": [],
			"name": "renounceOwnership",
			"outputs": [],
			"stateMutability": "nonpayable",
			"type": "function"
		},
		{
			"inputs": [],
			"name": "sFuel",
			"outputs": [
				{
					"internalType": "address",
					"name": "",
					"type": "address"
				}
			],
			"stateMutability": "view",
			"type": "function"
		},
		{
			"inputs": [],
			"name": "token",
			"outputs": [
				{
					"internalType": "address",
					"name": "",
					"type": "address"
				}
			],
			"stateMutability": "view",
			"type": "function"
		},
		{
			"inputs": [
				{
					"internalType": "address",
					"name": "newOwner",
					"type": "address"
				}
			],
			"name": "transferOwnership",
			"outputs": [],
			"stateMutability": "nonpayable",
			"type": "function"
		},
		{
			"inputs": [
				{
					"internalType": "uint256",
					"name": "ParameterIndex",
					"type": "uint256"
				},
				{
					"internalType": "uint256",
					"name": "uintValue",
					"type": "uint256"
				}
			],
			"name": "updateArchivingParameters",
			"outputs": [],
			"stateMutability": "nonpayable",
			"type": "function"
		},
		{
			"inputs": [
				{
					"internalType": "uint256",
					"name": "ParameterIndex",
					"type": "uint256"
				},
				{
					"internalType": "uint256",
					"name": "uintValue",
					"type": "uint256"
				}
			],
			"name": "updateComplianceParameters",
			"outputs": [],
			"stateMutability": "nonpayable",
			"type": "function"
		},
		{
			"inputs": [
				{
					"internalType": "address",
					"name": "StakeManager_",
					"type": "address"
				},
				{
					"internalType": "address",
					"name": "RepManager_",
					"type": "address"
				},
				{
					"internalType": "address",
					"name": "Reputation_",
					"type": "address"
				},
				{
					"internalType": "address",
					"name": "RewardManager_",
					"type": "address"
				},
				{
					"internalType": "address",
					"name": "AddressManager_",
					"type": "address"
				},
				{
					"internalType": "address",
					"name": "SpottingSystem_",
					"type": "address"
				},
				{
					"internalType": "address",
					"name": "ComplianceSystem_",
					"type": "address"
				},
				{
					"internalType": "address",
					"name": "IndexingSystem_",
					"type": "address"
				},
				{
					"internalType": "address",
					"name": "ArchivingSystem_",
					"type": "address"
				},
				{
					"internalType": "address",
					"name": "sFuel_",
					"type": "address"
				},
				{
					"internalType": "address",
					"name": "token_",
					"type": "address"
				}
			],
			"name": "updateContractsAddresses",
			"outputs": [],
			"stateMutability": "nonpayable",
			"type": "function"
		},
		{
			"inputs": [
				{
					"internalType": "uint256",
					"name": "ParameterIndex",
					"type": "uint256"
				},
				{
					"internalType": "uint256",
					"name": "uintValue",
					"type": "uint256"
				}
			],
			"name": "updateGeneralParameters",
			"outputs": [],
			"stateMutability": "nonpayable",
			"type": "function"
		},
		{
			"inputs": [
				{
					"internalType": "uint256",
					"name": "ParameterIndex",
					"type": "uint256"
				},
				{
					"internalType": "uint256",
					"name": "uintValue",
					"type": "uint256"
				}
			],
			"name": "updateIndexingParameters",
			"outputs": [],
			"stateMutability": "nonpayable",
			"type": "function"
		},
		{
			"inputs": [
				{
					"internalType": "uint256",
					"name": "ParameterIndex",
					"type": "uint256"
				},
				{
					"internalType": "uint256",
					"name": "uintValue",
					"type": "uint256"
				},
				{
					"internalType": "bool",
					"name": "boolValue",
					"type": "bool"
				}
			],
			"name": "updateSpottingParameters",
			"outputs": [],
			"stateMutability": "nonpayable",
			"type": "function"
		}
	]
}