{
  "_format": "hh-sol-artifact-1",
  "contractName": "SFuelContracts",
  "sourceName": "contracts/worksystems/sfueldistribute.sol",
  "abi": [
    {
      "inputs": [],
      "stateMutability": "nonpayable",
      "type": "constructor"
    },
    {
      "anonymous": false,
      "inputs": [
        {
          "indexed": true,
          "internalType": "address",
          "name": "caller",
          "type": "address"
        },
        {
          "indexed": false,
          "internalType": "uint256",
          "name": "value",
          "type": "uint256"
        }
      ],
      "name": "ContractFilled",
      "type": "event"
    },
    {
      "anonymous": false,
      "inputs": [
        {
          "indexed": true,
          "internalType": "address",
          "name": "sender",
          "type": "address"
        },
        {
          "indexed": false,
          "internalType": "uint256",
          "name": "value",
          "type": "uint256"
        }
      ],
      "name": "EtherDeposit",
      "type": "event"
    },
    {
      "anonymous": false,
      "inputs": [
        {
          "indexed": true,
          "internalType": "address",
          "name": "previousOwner",
          "type": "address"
        },
        {
          "indexed": true,
          "internalType": "address",
          "name": "newOwner",
          "type": "address"
        }
      ],
      "name": "OwnershipTransferred",
      "type": "event"
    },
    {
      "anonymous": false,
      "inputs": [
        {
          "indexed": true,
          "internalType": "address",
          "name": "reciever",
          "type": "address"
        },
        {
          "indexed": true,
          "internalType": "address",
          "name": "whitelistedContract",
          "type": "address"
        },
        {
          "indexed": false,
          "internalType": "uint256",
          "name": "amount",
          "type": "uint256"
        }
      ],
      "name": "RetrievedSFuel",
      "type": "event"
    },
    {
      "anonymous": false,
      "inputs": [
        {
          "indexed": true,
          "internalType": "address",
          "name": "returner",
          "type": "address"
        },
        {
          "indexed": true,
          "internalType": "address",
          "name": "whitelistedContract",
          "type": "address"
        },
        {
          "indexed": false,
          "internalType": "uint256",
          "name": "amount",
          "type": "uint256"
        }
      ],
      "name": "ReturnedSFuel",
      "type": "event"
    },
    {
      "stateMutability": "payable",
      "type": "fallback"
    },
    {
      "inputs": [],
      "name": "TogglePause",
      "outputs": [],
      "stateMutability": "nonpayable",
      "type": "function"
    },
    {
      "inputs": [
        {
          "internalType": "address",
          "name": "_address",
          "type": "address"
        }
      ],
      "name": "addAddress",
      "outputs": [],
      "stateMutability": "nonpayable",
      "type": "function"
    },
    {
      "inputs": [],
      "name": "fillContract",
      "outputs": [],
      "stateMutability": "nonpayable",
      "type": "function"
    },
    {
      "inputs": [
        {
          "internalType": "address",
          "name": "_address",
          "type": "address"
        }
      ],
      "name": "getBalance",
      "outputs": [
        {
          "internalType": "uint256",
          "name": "",
          "type": "uint256"
        }
      ],
      "stateMutability": "view",
      "type": "function"
    },
    {
      "inputs": [],
      "name": "isPaused",
      "outputs": [
        {
          "internalType": "bool",
          "name": "",
          "type": "bool"
        }
      ],
      "stateMutability": "view",
      "type": "function"
    },
    {
      "inputs": [],
      "name": "owner",
      "outputs": [
        {
          "internalType": "address",
          "name": "",
          "type": "address"
        }
      ],
      "stateMutability": "view",
      "type": "function"
    },
    {
      "inputs": [
        {
          "internalType": "address",
          "name": "_address",
          "type": "address"
        }
      ],
      "name": "removeAddress",
      "outputs": [],
      "stateMutability": "nonpayable",
      "type": "function"
    },
    {
      "inputs": [],
      "name": "renounceOwnership",
      "outputs": [],
      "stateMutability": "nonpayable",
      "type": "function"
    },
    {
      "inputs": [
        {
          "internalType": "address payable",
          "name": "_retriever",
          "type": "address"
        }
      ],
      "name": "retrieveSFuel",
      "outputs": [],
      "stateMutability": "payable",
      "type": "function"
    },
    {
      "inputs": [
        {
          "internalType": "address",
          "name": "newOwner",
          "type": "address"
        }
      ],
      "name": "transferOwnership",
      "outputs": [],
      "stateMutability": "nonpayable",
      "type": "function"
    },
    {
      "stateMutability": "payable",
      "type": "receive"
    }
  ],
  "bytecode": "0x608060405234801561001057600080fd5b5061002161001c610046565b61004a565b66038d7ea4c68000600155662386f26fc100006002556003805460ff1916905561009a565b3390565b600080546001600160a01b038381166001600160a01b0319831681178455604051919092169283917f8be0079c531659141344cd1fd0a4f28419497f9722a3daafe3b4186f6b6457e09190a35050565b61088a806100a96000396000f3fe6080604052600436106100955760003560e01c80638da5cb5b116100595780638da5cb5b1461019b578063b187bd26146101c6578063c08d4b99146101e8578063f2fde38b146101fd578063f8b2cb4f1461021d576100dd565b8063215ac4be1461011e57806338eada1c146101335780633eb5938a146101535780634ba79dfe14610166578063715018a614610186576100dd565b366100dd57336001600160a01b03167fa58b71ad2e6ce803dd1eec62e2f3717a164a8912ee33eb51a57a234ba56b5535346040516100d39190610813565b60405180910390a2005b341561011c57336001600160a01b03167fa58b71ad2e6ce803dd1eec62e2f3717a164a8912ee33eb51a57a234ba56b5535346040516100d39190610813565b005b34801561012a57600080fd5b5061011c61024a565b34801561013f57600080fd5b5061011c61014e366004610663565b610356565b61011c610161366004610663565b6103ad565b34801561017257600080fd5b5061011c610181366004610663565b6104d9565b34801561019257600080fd5b5061011c610527565b3480156101a757600080fd5b506101b061053b565b6040516101bd919061067f565b60405180910390f35b3480156101d257600080fd5b506101db61054a565b6040516101bd91906106ac565b3480156101f457600080fd5b5061011c610553565b34801561020957600080fd5b5061011c610218366004610663565b61056f565b34801561022957600080fd5b5061023d610238366004610663565b6105a6565b6040516101bd9190610813565b6102526105b3565b600061025d306105a6565b90506000610276826002546105f290919063ffffffff16565b9050610280610605565b6001600160a01b031663204a3e9330836040518363ffffffff1660e01b81526004016102ad929190610693565b600060405180830381600087803b1580156102c757600080fd5b505af11580156102db573d6000803e3d6000fd5b505050506002546102eb306105a6565b146103115760405162461bcd60e51b8152600401610308906107e9565b60405180910390fd5b336001600160a01b03167f2d6e436d93e4e3143f5d97f5786f48e9736d037972d20e408bb1aa2284bf6c0f8260405161034a9190610813565b60405180910390a25050565b61035e6105b3565b6001600160a01b03811660009081526004602052604090205460ff1615156001141561038957600080fd5b6001600160a01b03166000908152600460205260409020805460ff19166001179055565b60035460ff16156103d05760405162461bcd60e51b815260040161030890610786565b3360009081526004602052604090205460ff166103ff5760405162461bcd60e51b8152600401610308906106b7565b60015461040b826105a6565b10156104d657600061042861041f836105a6565b600154906105f2565b905080610434306105a6565b10156104525760405162461bcd60e51b8152600401610308906107b2565b6040516001600160a01b0383169082156108fc029083906000818181858888f19350505050158015610488573d6000803e3d6000fd5b50336001600160a01b0316826001600160a01b03167f3bd6ed6e41c189d37b6c3d633df447b94748e1f0c01a702e6314df17bbf40d7c836040516104cc9190610813565b60405180910390a3505b50565b6104e16105b3565b6001600160a01b03811660009081526004602052604090205460ff1661050657600080fd5b6001600160a01b03166000908152600460205260409020805460ff19169055565b61052f6105b3565b610539600061060f565b565b6000546001600160a01b031690565b60035460ff1681565b61055b6105b3565b6003805460ff19811660ff90911615179055565b6105776105b3565b6001600160a01b03811661059d5760405162461bcd60e51b81526004016103089061070b565b6104d68161060f565b6001600160a01b03163190565b6105bb61065f565b6001600160a01b03166105cc61053b565b6001600160a01b0316146105395760405162461bcd60e51b815260040161030890610751565b60006105fe828461081c565b9392505050565b62695d1f60891b90565b600080546001600160a01b038381166001600160a01b0319831681178455604051919092169283917f8be0079c531659141344cd1fd0a4f28419497f9722a3daafe3b4186f6b6457e09190a35050565b3390565b600060208284031215610674578081fd5b81356105fe8161083f565b6001600160a01b0391909116815260200190565b6001600160a01b03929092168252602082015260400190565b901515815260200190565b60208082526034908201527f6d73672e73656e64657220636f6e7472616374206e6565647320746f206265206040820152733bb434ba32b634b9ba32b210313c9027bbb732b960611b606082015260800190565b60208082526026908201527f4f776e61626c653a206e6577206f776e657220697320746865207a65726f206160408201526564647265737360d01b606082015260800190565b6020808252818101527f4f776e61626c653a2063616c6c6572206973206e6f7420746865206f776e6572604082015260600190565b60208082526012908201527110dbdb9d1c9858dd081a5cc814185d5cd95960721b604082015260600190565b6020808252601f908201527f496e737566666963656e742042616c616e636520696e20436f6e747261637400604082015260600190565b60208082526010908201526f04572726f722046696c6c696e672055760841b604082015260600190565b90815260200190565b60008282101561083a57634e487b7160e01b81526011600452602481fd5b500390565b6001600160a01b03811681146104d657600080fdfea26469706673582212208f58d64451811328d05c5cf33cf6bd9b0f92570d684126232e2e7592d8c8c97864736f6c63430008000033",
  "linkReferences": {},
  "deployedLinkReferences": {}
}