{
  "_format": "hh-sol-artifact-1",
  "contractName": "RandomAllocator",
  "sourceName": "contracts/worksystems/RandomAllocator.sol",
  "abi": [
    {
      "inputs": [
        {
          "internalType": "uint256",
          "name": "_k",
          "type": "uint256"
        },
        {
          "internalType": "uint256",
          "name": "N_range",
          "type": "uint256"
        }
      ],
      "name": "generateIntegers",
      "outputs": [
        {
          "internalType": "uint256[]",
          "name": "",
          "type": "uint256[]"
        }
      ],
      "stateMutability": "view",
      "type": "function"
    },
    {
      "inputs": [],
      "name": "getRandom",
      "outputs": [
        {
          "internalType": "uint256",
          "name": "",
          "type": "uint256"
        }
      ],
      "stateMutability": "view",
      "type": "function"
    },
    {
      "inputs": [],
      "name": "getSeed",
      "outputs": [
        {
          "internalType": "bytes32",
          "name": "addr",
          "type": "bytes32"
        }
      ],
      "stateMutability": "view",
      "type": "function"
    },
    {
      "inputs": [
        {
          "internalType": "uint256",
          "name": "k",
          "type": "uint256"
        },
        {
          "internalType": "uint256",
          "name": "N",
          "type": "uint256"
        }
      ],
      "name": "random_selection",
      "outputs": [
        {
          "internalType": "uint256[]",
          "name": "",
          "type": "uint256[]"
        }
      ],
      "stateMutability": "view",
      "type": "function"
    },
    {
      "inputs": [
        {
          "internalType": "uint256",
          "name": "N",
          "type": "uint256"
        }
      ],
      "name": "shuffle_array",
      "outputs": [
        {
          "internalType": "uint256[]",
          "name": "",
          "type": "uint256[]"
        }
      ],
      "stateMutability": "view",
      "type": "function"
    }
  ],
  "bytecode": "0x608060405234801561001057600080fd5b5061089f806100206000396000f3fe608060405234801561001057600080fd5b50600436106100575760003560e01c806339e7357c1461005c578063aacc5a1714610077578063b1d7ea981461007f578063b8f011b31461009f578063e44c974b146100b2575b600080fd5b6100646100c5565b6040519081526020015b60405180910390f35b6100646100e2565b61009261008d366004610720565b6101ab565b60405161006e9190610742565b6100926100ad366004610720565b61039d565b6100926100c0366004610786565b610515565b60405160009080602081848060185afa6100db57fe5b5051919050565b6040516bffffffffffffffffffffffff194160601b166020820152600090819042906034016040516020818303038152906040528051906020012060001c61012a91906107cb565b446101336100c5565b60405160200161014591815260200190565b60408051601f19818403018152919052805160209091012061016790426107df565b61017191906107df565b61017b91906107df565b60405160200161018d91815260200190565b60408051601f19818403018152919052805160209091012092915050565b6060600082116101ba57600080fd5b6040516bffffffffffffffffffffffff194160601b1660208201526000906034016040516020818303038152906040528051906020012060001c6101fc6100c5565b60405160200161020e91815260200190565b60408051601f19818403018152919052805160209091012061023090426107df565b61023a91906107df565b60405160200161024c91815260200190565b6040516020818303038152906040528051906020012060001c905060008467ffffffffffffffff811115610282576102826107f7565b6040519080825280602002602001820160405280156102ab578160200160208202803683370190505b5090506000805b86821015610392576000866102cb63017efeeb8761080d565b60408051602081019290925281018490526060016040516020818303038152906040528051906020012060001c6103029190610824565b90506000805b8481101561034c578286828151811061032357610323610838565b6020026020010151141561033a576001915061034c565b806103448161084e565b915050610308565b508061037e578185858151811061036557610365610838565b602090810291909101015261037b8460016107df565b93505b6103898360016107df565b925050506102b2565b509095945050505050565b60606000821180156103af5750818311155b80156103bc575060018310155b61041e5760405162461bcd60e51b815260206004820152602960248201527f6b206f72204e20617265206e6f74204f4b20647572696e672072616e646f6d2060448201526839b2b632b1ba34b7b760b91b606482015260840160405180910390fd5b60008267ffffffffffffffff811115610439576104396107f7565b604051908082528060200260200182016040528015610462578160200160208202803683370190505b50905060008467ffffffffffffffff811115610480576104806107f7565b6040519080825280602002602001820160405280156104a9578160200160208202803683370190505b50905060006104bf6104ba84610581565b6105c9565b905060005b86811015610392578181815181106104de576104de610838565b60200260200101518382815181106104f8576104f8610838565b60209081029190910101528061050d8161084e565b9150506104c4565b60606000821161052457600080fd5b60008267ffffffffffffffff81111561053f5761053f6107f7565b604051908082528060200260200182016040528015610568578160200160208202803683370190505b50905060006105796104ba83610581565b949350505050565b805160609060005b818110156105c157808482815181106105a4576105a4610838565b6020908102919091010152806105b98161084e565b915050610589565b509192915050565b606060008251116105d957600080fd5b81518060005b81811015610717576000836105f26100e2565b87848151811061060457610604610838565b6020026020010151604051602001610626929190918252602082015260400190565b6040516020818303038152906040528051906020012060001c6106499190610824565b6106549060016107df565b905060008661066460018461080d565b8151811061067457610674610838565b602002602001015190508660018661068c919061080d565b8151811061069c5761069c610838565b6020026020010151876001846106b2919061080d565b815181106106c2576106c2610838565b602090810291909101015280876106da60018861080d565b815181106106ea576106ea610838565b602090810291909101015261070060018661080d565b94505050808061070f9061084e565b9150506105df565b50929392505050565b6000806040838503121561073357600080fd5b50508035926020909101359150565b6020808252825182820181905260009190848201906040850190845b8181101561077a5783518352928401929184019160010161075e565b50909695505050505050565b60006020828403121561079857600080fd5b5035919050565b634e487b7160e01b600052601260045260246000fd5b634e487b7160e01b600052601160045260246000fd5b6000826107da576107da61079f565b500490565b600082198211156107f2576107f26107b5565b500190565b634e487b7160e01b600052604160045260246000fd5b60008282101561081f5761081f6107b5565b500390565b6000826108335761083361079f565b500690565b634e487b7160e01b600052603260045260246000fd5b6000600019821415610862576108626107b5565b506001019056fea2646970667358221220165a8651d55d74495eea86e42e696eb4ea44b6c2a49a5340ccc118bcc1b8667c64736f6c63430008080033",
  "linkReferences": {},
  "deployedLinkReferences": {}
}