{
  "_format": "hh-sol-artifact-1",
  "contractName": "StakingManager",
  "sourceName": "contracts/worksystems/StakingManager.sol",
  "abi": [
    {
      "inputs": [
        {
          "internalType": "address",
          "name": "EXD_token",
          "type": "address"
        }
      ],
      "stateMutability": "nonpayable",
      "type": "constructor"
    },
    {
      "anonymous": false,
      "inputs": [
        {
          "indexed": true,
          "internalType": "address",
          "name": "previousOwner",
          "type": "address"
        },
        {
          "indexed": true,
          "internalType": "address",
          "name": "newOwner",
          "type": "address"
        }
      ],
      "name": "OwnershipTransferred",
      "type": "event"
    },
    {
      "anonymous": false,
      "inputs": [
        {
          "indexed": true,
          "internalType": "address",
          "name": "account",
          "type": "address"
        },
        {
          "indexed": false,
          "internalType": "bool",
          "name": "isWhitelisted",
          "type": "bool"
        }
      ],
      "name": "StakeUnWhitelisted",
      "type": "event"
    },
    {
      "anonymous": false,
      "inputs": [
        {
          "indexed": true,
          "internalType": "address",
          "name": "account",
          "type": "address"
        },
        {
          "indexed": false,
          "internalType": "bool",
          "name": "isWhitelisted",
          "type": "bool"
        }
      ],
      "name": "StakeWhitelisted",
      "type": "event"
    },
    {
      "inputs": [
        {
          "internalType": "address",
          "name": "_stakeholder",
          "type": "address"
        }
      ],
      "name": "AllocatedStakedAmountOf",
      "outputs": [
        {
          "internalType": "uint256",
          "name": "",
          "type": "uint256"
        }
      ],
      "stateMutability": "view",
      "type": "function"
    },
    {
      "inputs": [
        {
          "internalType": "address",
          "name": "_stakeholder",
          "type": "address"
        }
      ],
      "name": "AvailableStakedAmountOf",
      "outputs": [
        {
          "internalType": "uint256",
          "name": "",
          "type": "uint256"
        }
      ],
      "stateMutability": "view",
      "type": "function"
    },
    {
      "inputs": [
        {
          "internalType": "uint256",
          "name": "_StakeAllocation",
          "type": "uint256"
        },
        {
          "internalType": "address",
          "name": "_stakeholder",
          "type": "address"
        }
      ],
      "name": "ProxyStakeAllocate",
      "outputs": [
        {
          "internalType": "bool",
          "name": "",
          "type": "bool"
        }
      ],
      "stateMutability": "nonpayable",
      "type": "function"
    },
    {
      "inputs": [
        {
          "internalType": "uint256",
          "name": "_StakeToDeallocate",
          "type": "uint256"
        },
        {
          "internalType": "address",
          "name": "_stakeholder",
          "type": "address"
        }
      ],
      "name": "ProxyStakeDeallocate",
      "outputs": [
        {
          "internalType": "bool",
          "name": "",
          "type": "bool"
        }
      ],
      "stateMutability": "nonpayable",
      "type": "function"
    },
    {
      "inputs": [
        {
          "internalType": "uint256",
          "name": "_stake",
          "type": "uint256"
        }
      ],
      "name": "Stake",
      "outputs": [],
      "stateMutability": "nonpayable",
      "type": "function"
    },
    {
      "inputs": [],
      "name": "TotalAllocatedStakes",
      "outputs": [
        {
          "internalType": "uint256",
          "name": "",
          "type": "uint256"
        }
      ],
      "stateMutability": "view",
      "type": "function"
    },
    {
      "inputs": [],
      "name": "TotalAvailableStakes",
      "outputs": [
        {
          "internalType": "uint256",
          "name": "",
          "type": "uint256"
        }
      ],
      "stateMutability": "view",
      "type": "function"
    },
    {
      "inputs": [],
      "name": "TotalStakes",
      "outputs": [
        {
          "internalType": "uint256",
          "name": "",
          "type": "uint256"
        }
      ],
      "stateMutability": "view",
      "type": "function"
    },
    {
      "inputs": [
        {
          "internalType": "address",
          "name": "_address",
          "type": "address"
        }
      ],
      "name": "addAddress",
      "outputs": [],
      "stateMutability": "nonpayable",
      "type": "function"
    },
    {
      "inputs": [
        {
          "internalType": "address",
          "name": "",
          "type": "address"
        }
      ],
      "name": "balances",
      "outputs": [
        {
          "internalType": "uint256",
          "name": "free_balance",
          "type": "uint256"
        },
        {
          "internalType": "uint256",
          "name": "staked_balance",
          "type": "uint256"
        },
        {
          "internalType": "uint256",
          "name": "allocated_balance",
          "type": "uint256"
        }
      ],
      "stateMutability": "view",
      "type": "function"
    },
    {
      "inputs": [],
      "name": "closeAllStakes",
      "outputs": [],
      "stateMutability": "nonpayable",
      "type": "function"
    },
    {
      "inputs": [
        {
          "internalType": "uint256",
          "name": "tokens",
          "type": "uint256"
        }
      ],
      "name": "deposit",
      "outputs": [],
      "stateMutability": "nonpayable",
      "type": "function"
    },
    {
      "inputs": [
        {
          "internalType": "address",
          "name": "_address",
          "type": "address"
        }
      ],
      "name": "isStakeWhitelisted",
      "outputs": [
        {
          "internalType": "bool",
          "name": "",
          "type": "bool"
        }
      ],
      "stateMutability": "view",
      "type": "function"
    },
    {
      "inputs": [
        {
          "internalType": "address",
          "name": "_address",
          "type": "address"
        }
      ],
      "name": "isStakeholder",
      "outputs": [
        {
          "internalType": "bool",
          "name": "",
          "type": "bool"
        }
      ],
      "stateMutability": "view",
      "type": "function"
    },
    {
      "inputs": [
        {
          "internalType": "address",
          "name": "_address",
          "type": "address"
        }
      ],
      "name": "isStakeholderIndex",
      "outputs": [
        {
          "internalType": "bool",
          "name": "",
          "type": "bool"
        },
        {
          "internalType": "uint256",
          "name": "",
          "type": "uint256"
        }
      ],
      "stateMutability": "view",
      "type": "function"
    },
    {
      "inputs": [],
      "name": "owner",
      "outputs": [
        {
          "internalType": "address",
          "name": "",
          "type": "address"
        }
      ],
      "stateMutability": "view",
      "type": "function"
    },
    {
      "inputs": [
        {
          "internalType": "address",
          "name": "_address",
          "type": "address"
        }
      ],
      "name": "removeAddress",
      "outputs": [],
      "stateMutability": "nonpayable",
      "type": "function"
    },
    {
      "inputs": [],
      "name": "renounceOwnership",
      "outputs": [],
      "stateMutability": "nonpayable",
      "type": "function"
    },
    {
      "inputs": [],
      "name": "token",
      "outputs": [
        {
          "internalType": "contract IERC20",
          "name": "",
          "type": "address"
        }
      ],
      "stateMutability": "view",
      "type": "function"
    },
    {
      "inputs": [
        {
          "internalType": "address",
          "name": "newOwner",
          "type": "address"
        }
      ],
      "name": "transferOwnership",
      "outputs": [],
      "stateMutability": "nonpayable",
      "type": "function"
    },
    {
      "inputs": [
        {
          "internalType": "uint256",
          "name": "_numTokens",
          "type": "uint256"
        }
      ],
      "name": "withdraw",
      "outputs": [],
      "stateMutability": "nonpayable",
      "type": "function"
    },
    {
      "inputs": [],
      "name": "withdrawAll",
      "outputs": [],
      "stateMutability": "nonpayable",
      "type": "function"
    }
  ],
  "bytecode": "0x608060405234801561001057600080fd5b5060405161127a38038061127a83398101604081905261002f916100ad565b6100383361005d565b600180546001600160a01b0319166001600160a01b03929092169190911790556100dd565b600080546001600160a01b038381166001600160a01b0319831681178455604051919092169283917f8be0079c531659141344cd1fd0a4f28419497f9722a3daafe3b4186f6b6457e09190a35050565b6000602082840312156100bf57600080fd5b81516001600160a01b03811681146100d657600080fd5b9392505050565b61118e806100ec6000396000f3fe608060405234801561001057600080fd5b50600436106101425760003560e01c8063853828b6116100b8578063cbdce4e01161007c578063cbdce4e0146102ba578063e67719bd146102e6578063ef037b9014610312578063f20e8b1214610325578063f2fde38b14610351578063fc0c546a1461036457600080fd5b8063853828b6146102485780638aed0feb146102505780638da5cb5b14610258578063b6b55f251461027d578063bd0bb4f61461029057600080fd5b806327e235e31161010a57806327e235e3146101b55780632e1a7d4d146101ff57806338eada1c146102125780634ba79dfe146102255780636a40cbb614610238578063715018a61461024057600080fd5b8063112b32661461014757806312b6887c1461016f57806314bee5a514610182578063227a473b1461019857806323cc9f37146101ad575b600080fd5b61015a610155366004610f9e565b610377565b60405190151581526020015b60405180910390f35b61015a61017d366004610f9e565b6104d6565b61018a610625565b604051908152602001610166565b6101ab6101a6366004610fca565b61069c565b005b61018a610728565b6101e46101c3366004610fe3565b60036020526000908152604090208054600182015460029092015490919083565b60408051938452602084019290925290820152606001610166565b6101ab61020d366004610fca565b610799565b6101ab610220366004610fe3565b610869565b6101ab610233366004610fe3565b61096f565b6101ab610a5c565b6101ab610a9c565b6101ab610ad2565b61018a610b9b565b6000546001600160a01b03165b6040516001600160a01b039091168152602001610166565b6101ab61028b366004610fca565b610c09565b6102a361029e366004610fe3565b610d49565b604080519215158352602083019190915201610166565b61018a6102c8366004610fe3565b6001600160a01b031660009081526003602052604090206001015490565b61015a6102f4366004610fe3565b6001600160a01b031660009081526004602052604090205460ff1690565b61015a610320366004610fe3565b610db4565b61018a610333366004610fe3565b6001600160a01b031660009081526003602052604090206002015490565b6101ab61035f366004610fe3565b610e18565b600154610265906001600160a01b031681565b3360009081526004602052604081205460ff166103af5760405162461bcd60e51b81526004016103a690610ffe565b60405180910390fd5b6103b882610db4565b6103d45760405162461bcd60e51b81526004016103a690611048565b6001600160a01b0382166000908152600360205260409020600201548311156104595760405162461bcd60e51b815260206004820152603160248201527f5f7374616b65686f6c6465722068617320746f206861766520656e6f75676820604482015270616c6c6f63617465642062616c616e636560781b60648201526084016103a6565b6001600160a01b03821660009081526003602052604090206002015461047f9084610eb0565b6001600160a01b03831660009081526003602052604090206002810191909155600101546104ad9084610ec3565b6001600160a01b0383166000908152600360205260409020600190810191909155905092915050565b3360009081526004602052604081205460ff166105055760405162461bcd60e51b81526004016103a690610ffe565b61050e82610db4565b61052a5760405162461bcd60e51b81526004016103a690611048565b6001600160a01b0382166000908152600360205260409020600101548311156105ac5760405162461bcd60e51b815260206004820152602e60248201527f5f7374616b65686f6c6465722068617320746f206861766520656e6f7567682060448201526d7374616b65642062616c616e636560901b60648201526084016103a6565b6001600160a01b0382166000908152600360205260409020600101546105d29084610eb0565b6001600160a01b03831660009081526003602052604090206001810191909155600201546106009084610ec3565b6001600160a01b03831660009081526003602052604090206002015550600192915050565b600080805b600254811015610696576000600282815481106106495761064961108d565b60009182526020808320909101546001600160a01b0316808352600390915260409091206002015490915061067e8482610ec3565b9350505060018161068f91906110b9565b905061062a565b50919050565b336000908152600360205260409020548111156106b857600080fd5b336000908152600360205260409020600101546106d8576106d833610ecf565b336000908152600360205260409020546106f29082610eb0565b336000908152600360205260409020908155600101546107129082610ec3565b3360009081526003602052604090206001015550565b600080805b6002548110156106965760006002828154811061074c5761074c61108d565b60009182526020808320909101546001600160a01b031680835260039091526040909120600101549091506107818482610ec3565b9350505060018161079291906110b9565b905061072d565b336000908152600360205260409020548111156107b557600080fd5b60015460405163a9059cbb60e01b8152336004820152602481018390526001600160a01b039091169063a9059cbb90604401602060405180830381600087803b15801561080157600080fd5b505af1158015610815573d6000803e3d6000fd5b505050506040513d601f19601f8201168201806040525081019061083991906110d1565b61084257600080fd5b33600090815260036020526040812080548392906108619084906110f3565b909155505050565b6000546001600160a01b031633146108935760405162461bcd60e51b81526004016103a69061110a565b6001600160a01b03811660009081526004602052604090205460ff161515600114156109115760405162461bcd60e51b815260206004820152602760248201527f41646472657373206d757374206e6f742062652077686974656c697374656420604482015266616c726561647960c81b60648201526084016103a6565b6001600160a01b038116600081815260046020908152604091829020805460ff1916600190811790915591519182527f34e57d3e15d2174a31aed19b5a635aad3c7fd6d6ff6b19d43f56819654e990fd91015b60405180910390a250565b6000546001600160a01b031633146109995760405162461bcd60e51b81526004016103a69061110a565b6001600160a01b03811660009081526004602052604090205460ff16610a0d5760405162461bcd60e51b815260206004820152602360248201527f41646472657373206d7573742062652077686974656c697374656420616c726560448201526261647960e81b60648201526084016103a6565b6001600160a01b0381166000818152600460209081526040808320805460ff19169055519182527fc87598b69899c8b872e8b5e416808d7332fe62ed4f035f7e72ae6f646e12f73f9101610964565b33600090815260036020526040902060018101549054610a7c9082610ec3565b336000908152600360205260409020908155600101546107129082610eb0565b6000546001600160a01b03163314610ac65760405162461bcd60e51b81526004016103a69061110a565b610ad06000610f32565b565b33600090815260036020526040902054610aeb57600080fd5b600154336000818152600360205260409081902054905163a9059cbb60e01b8152600481019290925260248201526001600160a01b039091169063a9059cbb90604401602060405180830381600087803b158015610b4857600080fd5b505af1158015610b5c573d6000803e3d6000fd5b505050506040513d601f19601f82011682018060405250810190610b8091906110d1565b610b8957600080fd5b33600090815260036020526040812055565b600080805b60025481101561069657600060028281548110610bbf57610bbf61108d565b60009182526020808320909101546001600160a01b03168083526003909152604090912054909150610bf18482610ec3565b93505050600181610c0291906110b9565b9050610ba0565b6001546040516370a0823160e01b815233600482015282916001600160a01b0316906370a082319060240160206040518083038186803b158015610c4c57600080fd5b505afa158015610c60573d6000803e3d6000fd5b505050506040513d601f19601f82011682018060405250810190610c84919061113f565b1015610c8f57600080fd5b3360009081526003602052604081208054839290610cae9084906110b9565b90915550506001546040516323b872dd60e01b8152336004820152306024820152604481018390526001600160a01b03909116906323b872dd90606401602060405180830381600087803b158015610d0557600080fd5b505af1158015610d19573d6000803e3d6000fd5b505050506040513d601f19601f82011682018060405250810190610d3d91906110d1565b610d4657600080fd5b50565b60008060005b600254811015610da85760028181548110610d6c57610d6c61108d565b6000918252602090912001546001600160a01b0385811691161415610d9657600194909350915050565b610da16001826110b9565b9050610d4f565b50600093849350915050565b6000805b600254811015610e0f5760028181548110610dd557610dd561108d565b6000918252602090912001546001600160a01b0384811691161415610dfd5750600192915050565b610e086001826110b9565b9050610db8565b50600092915050565b6000546001600160a01b03163314610e425760405162461bcd60e51b81526004016103a69061110a565b6001600160a01b038116610ea75760405162461bcd60e51b815260206004820152602660248201527f4f776e61626c653a206e6577206f776e657220697320746865207a65726f206160448201526564647265737360d01b60648201526084016103a6565b610d4681610f32565b6000610ebc82846110f3565b9392505050565b6000610ebc82846110b9565b6000610eda82610d49565b50905080610f2e57600280546001810182556000919091527f405787fa12a823e0f2b7631cc41b3ba8828b3321ca811111fa75cd3aa3bb5ace0180546001600160a01b0319166001600160a01b0384161790555b5050565b600080546001600160a01b038381166001600160a01b0319831681178455604051919092169283917f8be0079c531659141344cd1fd0a4f28419497f9722a3daafe3b4186f6b6457e09190a35050565b80356001600160a01b0381168114610f9957600080fd5b919050565b60008060408385031215610fb157600080fd5b82359150610fc160208401610f82565b90509250929050565b600060208284031215610fdc57600080fd5b5035919050565b600060208284031215610ff557600080fd5b610ebc82610f82565b6020808252602a908201527f69735374616b6557686974656c6973746564206d7573742062652074727565206040820152693337b91029b2b73232b960b11b606082015260800190565b60208082526025908201527f69735374616b65686f6c646572206d757374206265207472756520666f72205360408201526432b73232b960d91b606082015260800190565b634e487b7160e01b600052603260045260246000fd5b634e487b7160e01b600052601160045260246000fd5b600082198211156110cc576110cc6110a3565b500190565b6000602082840312156110e357600080fd5b81518015158114610ebc57600080fd5b600082821015611105576111056110a3565b500390565b6020808252818101527f4f776e61626c653a2063616c6c6572206973206e6f7420746865206f776e6572604082015260600190565b60006020828403121561115157600080fd5b505191905056fea2646970667358221220fa38d25f53814bd3088dbda9d4ed1c17edbf77b04ec5c42874ed56c887cfff1164736f6c63430008080033",
  "linkReferences": {},
  "deployedLinkReferences": {}
}