{
  "_format": "hh-sol-artifact-1",
  "contractName": "Controller",
  "sourceName": "contracts/daostack/controller/Controller.sol",
  "abi": [
    {
      "inputs": [
        {
          "internalType": "contract Avatar",
          "name": "_avatar",
          "type": "address"
        }
      ],
      "payable": false,
      "stateMutability": "nonpayable",
      "type": "constructor"
    },
    {
      "anonymous": false,
      "inputs": [
        {
          "indexed": true,
          "internalType": "address",
          "name": "_globalConstraint",
          "type": "address"
        },
        {
          "indexed": false,
          "internalType": "bytes32",
          "name": "_params",
          "type": "bytes32"
        },
        {
          "indexed": false,
          "internalType": "enum GlobalConstraintInterface.CallPhase",
          "name": "_when",
          "type": "uint8"
        }
      ],
      "name": "AddGlobalConstraint",
      "type": "event"
    },
    {
      "anonymous": false,
      "inputs": [
        {
          "indexed": true,
          "internalType": "address",
          "name": "_sender",
          "type": "address"
        },
        {
          "indexed": true,
          "internalType": "address",
          "name": "_from",
          "type": "address"
        },
        {
          "indexed": false,
          "internalType": "uint256",
          "name": "_amount",
          "type": "uint256"
        }
      ],
      "name": "BurnReputation",
      "type": "event"
    },
    {
      "anonymous": false,
      "inputs": [
        {
          "indexed": true,
          "internalType": "address",
          "name": "_sender",
          "type": "address"
        },
        {
          "indexed": true,
          "internalType": "address",
          "name": "_to",
          "type": "address"
        },
        {
          "indexed": false,
          "internalType": "uint256",
          "name": "_amount",
          "type": "uint256"
        }
      ],
      "name": "MintReputation",
      "type": "event"
    },
    {
      "anonymous": false,
      "inputs": [
        {
          "indexed": true,
          "internalType": "address",
          "name": "_sender",
          "type": "address"
        },
        {
          "indexed": true,
          "internalType": "address",
          "name": "_beneficiary",
          "type": "address"
        },
        {
          "indexed": false,
          "internalType": "uint256",
          "name": "_amount",
          "type": "uint256"
        }
      ],
      "name": "MintTokens",
      "type": "event"
    },
    {
      "anonymous": false,
      "inputs": [
        {
          "indexed": true,
          "internalType": "address",
          "name": "_sender",
          "type": "address"
        },
        {
          "indexed": true,
          "internalType": "address",
          "name": "_scheme",
          "type": "address"
        }
      ],
      "name": "RegisterScheme",
      "type": "event"
    },
    {
      "anonymous": false,
      "inputs": [
        {
          "indexed": true,
          "internalType": "address",
          "name": "_globalConstraint",
          "type": "address"
        },
        {
          "indexed": false,
          "internalType": "uint256",
          "name": "_index",
          "type": "uint256"
        },
        {
          "indexed": false,
          "internalType": "bool",
          "name": "_isPre",
          "type": "bool"
        }
      ],
      "name": "RemoveGlobalConstraint",
      "type": "event"
    },
    {
      "anonymous": false,
      "inputs": [
        {
          "indexed": true,
          "internalType": "address",
          "name": "_sender",
          "type": "address"
        },
        {
          "indexed": true,
          "internalType": "address",
          "name": "_scheme",
          "type": "address"
        }
      ],
      "name": "UnregisterScheme",
      "type": "event"
    },
    {
      "anonymous": false,
      "inputs": [
        {
          "indexed": true,
          "internalType": "address",
          "name": "_oldController",
          "type": "address"
        },
        {
          "indexed": false,
          "internalType": "address",
          "name": "_newController",
          "type": "address"
        }
      ],
      "name": "UpgradeController",
      "type": "event"
    },
    {
      "payable": false,
      "stateMutability": "nonpayable",
      "type": "fallback"
    },
    {
      "constant": false,
      "inputs": [
        {
          "internalType": "address",
          "name": "_globalConstraint",
          "type": "address"
        },
        {
          "internalType": "bytes32",
          "name": "_params",
          "type": "bytes32"
        },
        {
          "internalType": "address",
          "name": "_avatar",
          "type": "address"
        }
      ],
      "name": "addGlobalConstraint",
      "outputs": [
        {
          "internalType": "bool",
          "name": "",
          "type": "bool"
        }
      ],
      "payable": false,
      "stateMutability": "nonpayable",
      "type": "function"
    },
    {
      "constant": true,
      "inputs": [],
      "name": "avatar",
      "outputs": [
        {
          "internalType": "contract Avatar",
          "name": "",
          "type": "address"
        }
      ],
      "payable": false,
      "stateMutability": "view",
      "type": "function"
    },
    {
      "constant": false,
      "inputs": [
        {
          "internalType": "uint256",
          "name": "_amount",
          "type": "uint256"
        },
        {
          "internalType": "address",
          "name": "_from",
          "type": "address"
        },
        {
          "internalType": "address",
          "name": "_avatar",
          "type": "address"
        }
      ],
      "name": "burnReputation",
      "outputs": [
        {
          "internalType": "bool",
          "name": "",
          "type": "bool"
        }
      ],
      "payable": false,
      "stateMutability": "nonpayable",
      "type": "function"
    },
    {
      "constant": false,
      "inputs": [
        {
          "internalType": "contract IERC20",
          "name": "_externalToken",
          "type": "address"
        },
        {
          "internalType": "address",
          "name": "_spender",
          "type": "address"
        },
        {
          "internalType": "uint256",
          "name": "_value",
          "type": "uint256"
        },
        {
          "internalType": "contract Avatar",
          "name": "_avatar",
          "type": "address"
        }
      ],
      "name": "externalTokenApproval",
      "outputs": [
        {
          "internalType": "bool",
          "name": "",
          "type": "bool"
        }
      ],
      "payable": false,
      "stateMutability": "nonpayable",
      "type": "function"
    },
    {
      "constant": false,
      "inputs": [
        {
          "internalType": "contract IERC20",
          "name": "_externalToken",
          "type": "address"
        },
        {
          "internalType": "address",
          "name": "_to",
          "type": "address"
        },
        {
          "internalType": "uint256",
          "name": "_value",
          "type": "uint256"
        },
        {
          "internalType": "contract Avatar",
          "name": "_avatar",
          "type": "address"
        }
      ],
      "name": "externalTokenTransfer",
      "outputs": [
        {
          "internalType": "bool",
          "name": "",
          "type": "bool"
        }
      ],
      "payable": false,
      "stateMutability": "nonpayable",
      "type": "function"
    },
    {
      "constant": false,
      "inputs": [
        {
          "internalType": "contract IERC20",
          "name": "_externalToken",
          "type": "address"
        },
        {
          "internalType": "address",
          "name": "_from",
          "type": "address"
        },
        {
          "internalType": "address",
          "name": "_to",
          "type": "address"
        },
        {
          "internalType": "uint256",
          "name": "_value",
          "type": "uint256"
        },
        {
          "internalType": "contract Avatar",
          "name": "_avatar",
          "type": "address"
        }
      ],
      "name": "externalTokenTransferFrom",
      "outputs": [
        {
          "internalType": "bool",
          "name": "",
          "type": "bool"
        }
      ],
      "payable": false,
      "stateMutability": "nonpayable",
      "type": "function"
    },
    {
      "constant": false,
      "inputs": [
        {
          "internalType": "address",
          "name": "_contract",
          "type": "address"
        },
        {
          "internalType": "bytes",
          "name": "_data",
          "type": "bytes"
        },
        {
          "internalType": "contract Avatar",
          "name": "_avatar",
          "type": "address"
        },
        {
          "internalType": "uint256",
          "name": "_value",
          "type": "uint256"
        }
      ],
      "name": "genericCall",
      "outputs": [
        {
          "internalType": "bool",
          "name": "",
          "type": "bool"
        },
        {
          "internalType": "bytes",
          "name": "",
          "type": "bytes"
        }
      ],
      "payable": false,
      "stateMutability": "nonpayable",
      "type": "function"
    },
    {
      "constant": true,
      "inputs": [
        {
          "internalType": "address",
          "name": "_globalConstraint",
          "type": "address"
        },
        {
          "internalType": "address",
          "name": "",
          "type": "address"
        }
      ],
      "name": "getGlobalConstraintParameters",
      "outputs": [
        {
          "internalType": "bytes32",
          "name": "",
          "type": "bytes32"
        }
      ],
      "payable": false,
      "stateMutability": "view",
      "type": "function"
    },
    {
      "constant": true,
      "inputs": [
        {
          "internalType": "address",
          "name": "_avatar",
          "type": "address"
        }
      ],
      "name": "getNativeReputation",
      "outputs": [
        {
          "internalType": "address",
          "name": "",
          "type": "address"
        }
      ],
      "payable": false,
      "stateMutability": "view",
      "type": "function"
    },
    {
      "constant": true,
      "inputs": [
        {
          "internalType": "address",
          "name": "_scheme",
          "type": "address"
        },
        {
          "internalType": "address",
          "name": "_avatar",
          "type": "address"
        }
      ],
      "name": "getSchemeParameters",
      "outputs": [
        {
          "internalType": "bytes32",
          "name": "",
          "type": "bytes32"
        }
      ],
      "payable": false,
      "stateMutability": "view",
      "type": "function"
    },
    {
      "constant": true,
      "inputs": [
        {
          "internalType": "address",
          "name": "_scheme",
          "type": "address"
        },
        {
          "internalType": "address",
          "name": "_avatar",
          "type": "address"
        }
      ],
      "name": "getSchemePermissions",
      "outputs": [
        {
          "internalType": "bytes4",
          "name": "",
          "type": "bytes4"
        }
      ],
      "payable": false,
      "stateMutability": "view",
      "type": "function"
    },
    {
      "constant": true,
      "inputs": [
        {
          "internalType": "address",
          "name": "_avatar",
          "type": "address"
        }
      ],
      "name": "globalConstraintsCount",
      "outputs": [
        {
          "internalType": "uint256",
          "name": "",
          "type": "uint256"
        },
        {
          "internalType": "uint256",
          "name": "",
          "type": "uint256"
        }
      ],
      "payable": false,
      "stateMutability": "view",
      "type": "function"
    },
    {
      "constant": true,
      "inputs": [
        {
          "internalType": "uint256",
          "name": "",
          "type": "uint256"
        }
      ],
      "name": "globalConstraintsPost",
      "outputs": [
        {
          "internalType": "address",
          "name": "gcAddress",
          "type": "address"
        },
        {
          "internalType": "bytes32",
          "name": "params",
          "type": "bytes32"
        }
      ],
      "payable": false,
      "stateMutability": "view",
      "type": "function"
    },
    {
      "constant": true,
      "inputs": [
        {
          "internalType": "uint256",
          "name": "",
          "type": "uint256"
        }
      ],
      "name": "globalConstraintsPre",
      "outputs": [
        {
          "internalType": "address",
          "name": "gcAddress",
          "type": "address"
        },
        {
          "internalType": "bytes32",
          "name": "params",
          "type": "bytes32"
        }
      ],
      "payable": false,
      "stateMutability": "view",
      "type": "function"
    },
    {
      "constant": true,
      "inputs": [
        {
          "internalType": "address",
          "name": "",
          "type": "address"
        }
      ],
      "name": "globalConstraintsRegisterPost",
      "outputs": [
        {
          "internalType": "bool",
          "name": "isRegistered",
          "type": "bool"
        },
        {
          "internalType": "uint256",
          "name": "index",
          "type": "uint256"
        }
      ],
      "payable": false,
      "stateMutability": "view",
      "type": "function"
    },
    {
      "constant": true,
      "inputs": [
        {
          "internalType": "address",
          "name": "",
          "type": "address"
        }
      ],
      "name": "globalConstraintsRegisterPre",
      "outputs": [
        {
          "internalType": "bool",
          "name": "isRegistered",
          "type": "bool"
        },
        {
          "internalType": "uint256",
          "name": "index",
          "type": "uint256"
        }
      ],
      "payable": false,
      "stateMutability": "view",
      "type": "function"
    },
    {
      "constant": true,
      "inputs": [
        {
          "internalType": "address",
          "name": "_globalConstraint",
          "type": "address"
        },
        {
          "internalType": "address",
          "name": "_avatar",
          "type": "address"
        }
      ],
      "name": "isGlobalConstraintRegistered",
      "outputs": [
        {
          "internalType": "bool",
          "name": "",
          "type": "bool"
        }
      ],
      "payable": false,
      "stateMutability": "view",
      "type": "function"
    },
    {
      "constant": true,
      "inputs": [
        {
          "internalType": "address",
          "name": "_scheme",
          "type": "address"
        },
        {
          "internalType": "address",
          "name": "_avatar",
          "type": "address"
        }
      ],
      "name": "isSchemeRegistered",
      "outputs": [
        {
          "internalType": "bool",
          "name": "",
          "type": "bool"
        }
      ],
      "payable": false,
      "stateMutability": "view",
      "type": "function"
    },
    {
      "constant": true,
      "inputs": [
        {
          "internalType": "address",
          "name": "_stakingManagerAddress",
          "type": "address"
        },
        {
          "internalType": "address",
          "name": "_avatar",
          "type": "address"
        }
      ],
      "name": "isStakingManagerRegistered",
      "outputs": [
        {
          "internalType": "bool",
          "name": "",
          "type": "bool"
        }
      ],
      "payable": false,
      "stateMutability": "view",
      "type": "function"
    },
    {
      "constant": false,
      "inputs": [
        {
          "internalType": "string",
          "name": "_metaData",
          "type": "string"
        },
        {
          "internalType": "contract Avatar",
          "name": "_avatar",
          "type": "address"
        }
      ],
      "name": "metaData",
      "outputs": [
        {
          "internalType": "bool",
          "name": "",
          "type": "bool"
        }
      ],
      "payable": false,
      "stateMutability": "nonpayable",
      "type": "function"
    },
    {
      "constant": false,
      "inputs": [
        {
          "internalType": "uint256",
          "name": "_amount",
          "type": "uint256"
        },
        {
          "internalType": "address",
          "name": "_to",
          "type": "address"
        },
        {
          "internalType": "address",
          "name": "_avatar",
          "type": "address"
        }
      ],
      "name": "mintReputation",
      "outputs": [
        {
          "internalType": "bool",
          "name": "",
          "type": "bool"
        }
      ],
      "payable": false,
      "stateMutability": "nonpayable",
      "type": "function"
    },
    {
      "constant": false,
      "inputs": [
        {
          "internalType": "uint256",
          "name": "_amount",
          "type": "uint256"
        },
        {
          "internalType": "address",
          "name": "_beneficiary",
          "type": "address"
        },
        {
          "internalType": "address",
          "name": "_avatar",
          "type": "address"
        }
      ],
      "name": "mintTokens",
      "outputs": [
        {
          "internalType": "bool",
          "name": "",
          "type": "bool"
        }
      ],
      "payable": false,
      "stateMutability": "nonpayable",
      "type": "function"
    },
    {
      "constant": true,
      "inputs": [],
      "name": "nativeReputation",
      "outputs": [
        {
          "internalType": "contract Reputation",
          "name": "",
          "type": "address"
        }
      ],
      "payable": false,
      "stateMutability": "view",
      "type": "function"
    },
    {
      "constant": true,
      "inputs": [],
      "name": "nativeToken",
      "outputs": [
        {
          "internalType": "contract DAOToken",
          "name": "",
          "type": "address"
        }
      ],
      "payable": false,
      "stateMutability": "view",
      "type": "function"
    },
    {
      "constant": true,
      "inputs": [],
      "name": "newController",
      "outputs": [
        {
          "internalType": "address",
          "name": "",
          "type": "address"
        }
      ],
      "payable": false,
      "stateMutability": "view",
      "type": "function"
    },
    {
      "constant": false,
      "inputs": [
        {
          "internalType": "address",
          "name": "_scheme",
          "type": "address"
        },
        {
          "internalType": "bytes32",
          "name": "_paramsHash",
          "type": "bytes32"
        },
        {
          "internalType": "bytes4",
          "name": "_permissions",
          "type": "bytes4"
        },
        {
          "internalType": "address",
          "name": "_avatar",
          "type": "address"
        }
      ],
      "name": "registerScheme",
      "outputs": [
        {
          "internalType": "bool",
          "name": "",
          "type": "bool"
        }
      ],
      "payable": false,
      "stateMutability": "nonpayable",
      "type": "function"
    },
    {
      "constant": false,
      "inputs": [
        {
          "internalType": "address",
          "name": "_globalConstraint",
          "type": "address"
        },
        {
          "internalType": "address",
          "name": "_avatar",
          "type": "address"
        }
      ],
      "name": "removeGlobalConstraint",
      "outputs": [
        {
          "internalType": "bool",
          "name": "",
          "type": "bool"
        }
      ],
      "payable": false,
      "stateMutability": "nonpayable",
      "type": "function"
    },
    {
      "constant": true,
      "inputs": [
        {
          "internalType": "address",
          "name": "",
          "type": "address"
        }
      ],
      "name": "schemes",
      "outputs": [
        {
          "internalType": "bytes32",
          "name": "paramsHash",
          "type": "bytes32"
        },
        {
          "internalType": "bytes4",
          "name": "permissions",
          "type": "bytes4"
        }
      ],
      "payable": false,
      "stateMutability": "view",
      "type": "function"
    },
    {
      "constant": false,
      "inputs": [
        {
          "internalType": "uint256",
          "name": "_amountInWei",
          "type": "uint256"
        },
        {
          "internalType": "address payable",
          "name": "_to",
          "type": "address"
        },
        {
          "internalType": "contract Avatar",
          "name": "_avatar",
          "type": "address"
        }
      ],
      "name": "sendEther",
      "outputs": [
        {
          "internalType": "bool",
          "name": "",
          "type": "bool"
        }
      ],
      "payable": false,
      "stateMutability": "nonpayable",
      "type": "function"
    },
    {
      "constant": true,
      "inputs": [],
      "name": "stakingManagerAddress",
      "outputs": [
        {
          "internalType": "address",
          "name": "",
          "type": "address"
        }
      ],
      "payable": false,
      "stateMutability": "view",
      "type": "function"
    },
    {
      "constant": false,
      "inputs": [
        {
          "internalType": "address",
          "name": "_scheme",
          "type": "address"
        },
        {
          "internalType": "address",
          "name": "_avatar",
          "type": "address"
        }
      ],
      "name": "unregisterScheme",
      "outputs": [
        {
          "internalType": "bool",
          "name": "",
          "type": "bool"
        }
      ],
      "payable": false,
      "stateMutability": "nonpayable",
      "type": "function"
    },
    {
      "constant": false,
      "inputs": [
        {
          "internalType": "address",
          "name": "_avatar",
          "type": "address"
        }
      ],
      "name": "unregisterSelf",
      "outputs": [
        {
          "internalType": "bool",
          "name": "",
          "type": "bool"
        }
      ],
      "payable": false,
      "stateMutability": "nonpayable",
      "type": "function"
    },
    {
      "constant": false,
      "inputs": [
        {
          "internalType": "address",
          "name": "_newController",
          "type": "address"
        },
        {
          "internalType": "contract Avatar",
          "name": "_avatar",
          "type": "address"
        }
      ],
      "name": "upgradeController",
      "outputs": [
        {
          "internalType": "bool",
          "name": "",
          "type": "bool"
        }
      ],
      "payable": false,
      "stateMutability": "nonpayable",
      "type": "function"
    },
    {
      "constant": false,
      "inputs": [
        {
          "internalType": "address",
          "name": "_newController",
          "type": "address"
        },
        {
          "internalType": "contract Avatar",
          "name": "_avatar",
          "type": "address"
        }
      ],
      "name": "upgradeRewardsManager",
      "outputs": [
        {
          "internalType": "bool",
          "name": "",
          "type": "bool"
        }
      ],
      "payable": false,
      "stateMutability": "nonpayable",
      "type": "function"
    },
    {
      "constant": false,
      "inputs": [
        {
          "internalType": "address",
          "name": "_stakingManager",
          "type": "address"
        }
      ],
      "name": "upgradeStakingManager",
      "outputs": [
        {
          "internalType": "bool",
          "name": "",
          "type": "bool"
        }
      ],
      "payable": false,
      "stateMutability": "nonpayable",
      "type": "function"
    }
  ],
  "bytecode": "0x60806040523480156200001157600080fd5b5060405162003c6438038062003c64833981810160405260208110156200003757600080fd5b5051600180546001600160a01b0319166001600160a01b03808416919091179182905560408051631c2eb17b60e31b81529051929091169163e1758bd891600480820192602092909190829003018186803b1580156200009657600080fd5b505afa158015620000ab573d6000803e3d6000fd5b505050506040513d6020811015620000c257600080fd5b5051600280546001600160a01b0319166001600160a01b039283161790556001546040805163089ae1c960e41b8152905191909216916389ae1c90916004808301926020929190829003018186803b1580156200011e57600080fd5b505afa15801562000133573d6000803e3d6000fd5b505050506040513d60208110156200014a57600080fd5b5051600380546001600160a01b0319166001600160a01b03909216919091179055506040805180820182526000808252601f60e01b6020808401918252338352829052928120915182559151600191909101805463ffffffff191660e09290921c919091179055613aa2908190620001c290396000f3fe608060405234801561001057600080fd5b50600436106102115760003560e01c806389ae1c9011610125578063e08738da116100ad578063e8c98b221161007c578063e8c98b22146108be578063ea7da6ea146108db578063eaf994b2146108e3578063f76488be14610917578063fb4856a21461094557610211565b8063e08738da1461080e578063e1758bd81461083c578063e4537a7414610844578063e869d45f1461087a57610211565b8063b9a04cdd116100f4578063b9a04cdd146105d9578063c9b62eb114610615578063d1b7089a1461068e578063d22be043146107a0578063db6149ce146107c657610211565b806389ae1c90146105325780638da039971461053a5780639b51e35a146105605780639be2faed146105ab57610211565b80634f52b5be116101a85780636407e432116101775780636407e4321461043f5780636c525b13146104735780636e94d27814610499578063814784f6146104cd578063824f2f1f146104f357610211565b80634f52b5be1461039957806351803cd8146103c75780635aef7de614610403578063634965da1461040b57610211565b806337442d20116101e457806337442d20146103075780633a02263c1461033557806342427bf8146103075780634422d3721461035957610211565b8063039de01d14610216578063177eebb0146102585780631c4d5608146102995780633132511b146102d9575b600080fd5b6102446004803603604081101561022c57600080fd5b506001600160a01b038135811691602001351661098b565b604080519115158252519081900360200190f35b61027e6004803603602081101561026e57600080fd5b50356001600160a01b0316610c91565b60408051921515835260208301919091528051918290030190f35b6102c7600480360360408110156102af57600080fd5b506001600160a01b0381358116916020013516610cb0565b60408051918252519081900360200190f35b610244600480360360408110156102ef57600080fd5b506001600160a01b0381358116916020013516610cf2565b6102446004803603604081101561031d57600080fd5b506001600160a01b0381358116916020013516610d22565b61033d6111e6565b604080516001600160a01b039092168252519081900360200190f35b6103766004803603602081101561036f57600080fd5b50356111f5565b604080516001600160a01b03909316835260208301919091528051918290030190f35b610244600480360360408110156103af57600080fd5b506001600160a01b038135811691602001351661122a565b610244600480360360808110156103dd57600080fd5b506001600160a01b03813581169160208101358216916040820135916060013516611625565b61033d611909565b6102446004803603606081101561042157600080fd5b508035906001600160a01b0360208201358116916040013516611918565b6102446004803603606081101561045557600080fd5b508035906001600160a01b0360208201358116916040013516611bdf565b6102446004803603602081101561048957600080fd5b50356001600160a01b0316611ede565b610244600480360360608110156104af57600080fd5b508035906001600160a01b0360208201358116916040013516611f65565b61027e600480360360208110156104e357600080fd5b50356001600160a01b0316612268565b6105196004803603602081101561050957600080fd5b50356001600160a01b0316612287565b6040805192835260208301919091528051918290030190f35b61033d6122b9565b61033d6004803603602081101561055057600080fd5b50356001600160a01b03166122c8565b61058e6004803603604081101561057657600080fd5b506001600160a01b03813581169160200135166122fa565b604080516001600160e01b03199092168252519081900360200190f35b610244600480360360408110156105c157600080fd5b506001600160a01b038135811691602001351661233d565b610244600480360360808110156105ef57600080fd5b506001600160a01b03813581169160208101358216916040820135916060013516612365565b6102446004803603604081101561062b57600080fd5b81019060208101813564010000000081111561064657600080fd5b82018360208201111561065857600080fd5b8035906020019184600183028401116401000000008311171561067a57600080fd5b9193509150356001600160a01b0316612637565b61071d600480360360808110156106a457600080fd5b6001600160a01b0382351691908101906040810160208201356401000000008111156106cf57600080fd5b8201836020820111156106e157600080fd5b8035906020019184600183028401116401000000008311171561070357600080fd5b91935091506001600160a01b038135169060200135612727565b604051808315151515815260200180602001828103825283818151815260200191508051906020019080838360005b8381101561076457818101518382015260200161074c565b50505050905090810190601f1680156107915780820380516001836020036101000a031916815260200191505b50935050505060405180910390f35b610244600480360360208110156107b657600080fd5b50356001600160a01b0316612af8565b6107ec600480360360208110156107dc57600080fd5b50356001600160a01b0316612b45565b604080519283526001600160e01b031990911660208301528051918290030190f35b6102c76004803603604081101561082457600080fd5b506001600160a01b0381358116916020013516612b61565b61033d612c2d565b6102446004803603606081101561085a57600080fd5b506001600160a01b03813581169160208101359160409091013516612c3c565b6102446004803603608081101561089057600080fd5b506001600160a01b0381358116916020810135916001600160e01b0319604083013516916060013516613008565b610376600480360360208110156108d457600080fd5b5035613345565b61033d613352565b610244600480360360608110156108f957600080fd5b508035906001600160a01b0360208201358116916040013516613361565b6102446004803603604081101561092d57600080fd5b506001600160a01b0381358116916020013516613664565b610244600480360360a081101561095b57600080fd5b506001600160a01b03813581169160208101358216916040820135811691606081013591608090910135166136c6565b3360009081526020819052604081206001015460e01b600160e11b908116146109b357600080fd5b6f756e7265676973746572536368656d6560801b60005b600654811015610aba57600681815481106109e157fe5b6000918252602090912060029091020154600680546001600160a01b039092169163c1786ab291339185908110610a1457fe5b906000526020600020906002020160010154856040518463ffffffff1660e01b815260040180846001600160a01b03166001600160a01b031681526020018381526020018281526020019350505050602060405180830381600087803b158015610a7d57600080fd5b505af1158015610a91573d6000803e3d6000fd5b505050506040513d6020811015610aa757600080fd5b5051610ab257600080fd5b6001016109ca565b60015484906001600160a01b03808316911614610ad657600080fd5b610adf866139b3565b610aec5760009350610b93565b336000908152602081905260408082206001908101546001600160a01b038a168452919092209091015460e091821b19911b16601f60e01b1615610b2f57600080fd5b6040516001600160a01b0387169033907f10bb2cf04cb8b902a8e736d494f1a51003be6d4b16ef6fb95ce62c38445023bf90600090a36001600160a01b03861660009081526020819052604081209081556001908101805463ffffffff1916905593505b50600090505b600754811015610c895760078181548110610bb057fe5b6000918252602090912060029091020154600780546001600160a01b0390921691638043154d91339185908110610be357fe5b906000526020600020906002020160010154856040518463ffffffff1660e01b815260040180846001600160a01b03166001600160a01b031681526020018381526020018281526020019350505050602060405180830381600087803b158015610c4c57600080fd5b505af1158015610c60573d6000803e3d6000fd5b505050506040513d6020811015610c7657600080fd5b5051610c8157600080fd5b600101610b99565b505092915050565b6008602052600090815260409020805460019091015460ff9091169082565b60015460009082906001600160a01b03808316911614610ccf57600080fd5b6001600160a01b03841660009081526020819052604090205491505b5092915050565b60015460009082906001600160a01b03808316911614610d1157600080fd5b610d1a846139df565b949350505050565b3360009081526020819052604081206001015460e01b600160e31b90811614610d4a57600080fd5b60015482906001600160a01b03808316911614610d6657600080fd5b6005546001600160a01b031615610d7c57600080fd5b6001600160a01b038416610d8f57600080fd5b600580546001600160a01b0319166001600160a01b038681169182179092556001546040805163f2fde38b60e01b815260048101939093525192169163f2fde38b9160248082019260009290919082900301818387803b158015610df257600080fd5b505af1158015610e06573d6000803e3d6000fd5b50505050836001600160a01b0316600160009054906101000a90046001600160a01b03166001600160a01b0316638da5cb5b6040518163ffffffff1660e01b815260040160206040518083038186803b158015610e6257600080fd5b505afa158015610e76573d6000803e3d6000fd5b505050506040513d6020811015610e8c57600080fd5b50516001600160a01b031614610ea157600080fd5b60025460408051638da5cb5b60e01b8152905130926001600160a01b031691638da5cb5b916004808301926020929190829003018186803b158015610ee557600080fd5b505afa158015610ef9573d6000803e3d6000fd5b505050506040513d6020811015610f0f57600080fd5b50516001600160a01b0316141561101d576002546040805163f2fde38b60e01b81526001600160a01b0387811660048301529151919092169163f2fde38b91602480830192600092919082900301818387803b158015610f6e57600080fd5b505af1158015610f82573d6000803e3d6000fd5b50505050836001600160a01b0316600260009054906101000a90046001600160a01b03166001600160a01b0316638da5cb5b6040518163ffffffff1660e01b815260040160206040518083038186803b158015610fde57600080fd5b505afa158015610ff2573d6000803e3d6000fd5b505050506040513d602081101561100857600080fd5b50516001600160a01b03161461101d57600080fd5b60035460408051638da5cb5b60e01b8152905130926001600160a01b031691638da5cb5b916004808301926020929190829003018186803b15801561106157600080fd5b505afa158015611075573d6000803e3d6000fd5b505050506040513d602081101561108b57600080fd5b50516001600160a01b03161415611199576003546040805163f2fde38b60e01b81526001600160a01b0387811660048301529151919092169163f2fde38b91602480830192600092919082900301818387803b1580156110ea57600080fd5b505af11580156110fe573d6000803e3d6000fd5b50505050836001600160a01b0316600360009054906101000a90046001600160a01b03166001600160a01b0316638da5cb5b6040518163ffffffff1660e01b815260040160206040518083038186803b15801561115a57600080fd5b505afa15801561116e573d6000803e3d6000fd5b505050506040513d602081101561118457600080fd5b50516001600160a01b03161461119957600080fd5b600554604080516001600160a01b039290921682525130917fdb7cbacf8df312d794506c0cc9af07f64d29ca075796ea2e950a3832cc9a63dd919081900360200190a25060019392505050565b6005546001600160a01b031681565b6006818154811061120257fe5b6000918252602090912060029091020180546001909101546001600160a01b03909116915082565b3360009081526020819052604081206001015460e01b600160e21b9081161461125257600080fd5b60015482906001600160a01b0380831691161461126e57600080fd5b6112766139f3565b61127e6139f3565b6000866001600160a01b031663e2b0caef6040518163ffffffff1660e01b8152600401602060405180830381600087803b1580156112bb57600080fd5b505af11580156112cf573d6000803e3d6000fd5b505050506040513d60208110156112e557600080fd5b505190506000808260028111156112f857fe5b148061130f5750600282600281111561130d57fe5b145b15611453576001600160a01b0388166000908152600860209081526040918290208251808401909352805460ff1615801584526001909101549183019190915290945061145357600160068054905003846020015110156114145760068054600019810190811061137c57fe5b60009182526020918290206040805180820190915260029092020180546001600160a01b0316825260010154818301529085015160068054929550859290919081106113c457fe5b6000918252602080832084516002939093020180546001600160a01b0319166001600160a01b03938416178155938101516001948501558781015187519092168352600890526040909120909101555b6006805490611427906000198301613a0a565b50506001600160a01b0387166000908152600860205260408120805460ff191681556001908101919091555b600182600281111561146157fe5b14806114785750600282600281111561147657fe5b145b156115bc576001600160a01b0388166000908152600960209081526040918290208251808401909352805460ff161580158452600190910154918301919091529094506115bc576001600780549050038460200151101561157d576007805460001981019081106114e557fe5b60009182526020918290206040805180820190915260029092020180546001600160a01b03168252600101548183015290850151600780549295508592909190811061152d57fe5b6000918252602080832084516002939093020180546001600160a01b0319166001600160a01b03938416178155938101516001948501558781015187519092168352600990526040909120909101555b6007805490611590906000198301613a0a565b50506001600160a01b0387166000908152600960205260408120805460ff191681556001908101919091555b801561161a5760208401516001600160a01b038916907fcdf1a50ea6b7de555bd409f8a4a53ea43c6dc6b4caa961889da9e005f21bbaa990600085600281111561160257fe5b60408051938452911460208301528051918290030190a25b979650505050505050565b3360009081526020819052604081206001015460e01b600160e01b9081161461164d57600080fd5b7f65787465726e616c546f6b656e496e637265617365417070726f76616c00000060005b600654811015611761576006818154811061168857fe5b6000918252602090912060029091020154600680546001600160a01b039092169163c1786ab2913391859081106116bb57fe5b906000526020600020906002020160010154856040518463ffffffff1660e01b815260040180846001600160a01b03166001600160a01b031681526020018381526020018281526020019350505050602060405180830381600087803b15801561172457600080fd5b505af1158015611738573d6000803e3d6000fd5b505050506040513d602081101561174e57600080fd5b505161175957600080fd5b600101611671565b60015484906001600160a01b0380831691161461177d57600080fd5b6001546040805163ab751f7160e01b81526001600160a01b038b811660048301528a81166024830152604482018a90529151919092169163ab751f719160648083019260209291908290030181600087803b1580156117db57600080fd5b505af11580156117ef573d6000803e3d6000fd5b505050506040513d602081101561180557600080fd5b5051935050600090505b6007548110156118ff576007818154811061182657fe5b6000918252602090912060029091020154600780546001600160a01b0390921691638043154d9133918590811061185957fe5b906000526020600020906002020160010154856040518463ffffffff1660e01b815260040180846001600160a01b03166001600160a01b031681526020018381526020018281526020019350505050602060405180830381600087803b1580156118c257600080fd5b505af11580156118d6573d6000803e3d6000fd5b505050506040513d60208110156118ec57600080fd5b50516118f757600080fd5b60010161180f565b5050949350505050565b6001546001600160a01b031681565b3360009081526020819052604081206001015460e01b600160e01b9081161461194057600080fd5b6839b2b73222ba3432b960b91b60005b600654811015611a40576006818154811061196757fe5b6000918252602090912060029091020154600680546001600160a01b039092169163c1786ab29133918590811061199a57fe5b906000526020600020906002020160010154856040518463ffffffff1660e01b815260040180846001600160a01b03166001600160a01b031681526020018381526020018281526020019350505050602060405180830381600087803b158015611a0357600080fd5b505af1158015611a17573d6000803e3d6000fd5b505050506040513d6020811015611a2d57600080fd5b5051611a3857600080fd5b600101611950565b60015484906001600160a01b03808316911614611a5c57600080fd5b6001546040805163658b6a5160e11b8152600481018a90526001600160a01b0389811660248301529151919092169163cb16d4a29160448083019260209291908290030181600087803b158015611ab257600080fd5b505af1158015611ac6573d6000803e3d6000fd5b505050506040513d6020811015611adc57600080fd5b5051935050600090505b600754811015611bd65760078181548110611afd57fe5b6000918252602090912060029091020154600780546001600160a01b0390921691638043154d91339185908110611b3057fe5b906000526020600020906002020160010154856040518463ffffffff1660e01b815260040180846001600160a01b03166001600160a01b031681526020018381526020018281526020019350505050602060405180830381600087803b158015611b9957600080fd5b505af1158015611bad573d6000803e3d6000fd5b505050506040513d6020811015611bc357600080fd5b5051611bce57600080fd5b600101611ae6565b50509392505050565b3360009081526020819052604081206001015460e01b600160e01b90811614611c0757600080fd5b696d696e74546f6b656e7360b01b60005b600654811015611d085760068181548110611c2f57fe5b6000918252602090912060029091020154600680546001600160a01b039092169163c1786ab291339185908110611c6257fe5b906000526020600020906002020160010154856040518463ffffffff1660e01b815260040180846001600160a01b03166001600160a01b031681526020018381526020018281526020019350505050602060405180830381600087803b158015611ccb57600080fd5b505af1158015611cdf573d6000803e3d6000fd5b505050506040513d6020811015611cf557600080fd5b5051611d0057600080fd5b600101611c18565b60015484906001600160a01b03808316911614611d2457600080fd5b6040805188815290516001600160a01b0388169133917f21f9c9a1a1f9a311a50f15fec5c1faa9e21fc9edf964f0fdecba5bd490484c5e9181900360200190a3600254604080516340c10f1960e01b81526001600160a01b038981166004830152602482018b9052915191909216916340c10f199160448083019260209291908290030181600087803b158015611dba57600080fd5b505af1158015611dce573d6000803e3d6000fd5b505050506040513d6020811015611de457600080fd5b5051935050600090505b600754811015611bd65760078181548110611e0557fe5b6000918252602090912060029091020154600780546001600160a01b0390921691638043154d91339185908110611e3857fe5b906000526020600020906002020160010154856040518463ffffffff1660e01b815260040180846001600160a01b03166001600160a01b031681526020018381526020018281526020019350505050602060405180830381600087803b158015611ea157600080fd5b505af1158015611eb5573d6000803e3d6000fd5b505050506040513d6020811015611ecb57600080fd5b5051611ed657600080fd5b600101611dee565b60015460009082906001600160a01b03808316911614611efd57600080fd5b611f06336139b3565b611f135760009150611f5f565b33600081815260208190526040808220828155600101805463ffffffff191690555182917f10bb2cf04cb8b902a8e736d494f1a51003be6d4b16ef6fb95ce62c38445023bf91a3600191505b50919050565b3360009081526020819052604081206001015460e01b600160e01b90811614611f8d57600080fd5b6d313ab9372932b83aba30ba34b7b760911b60005b6006548110156120925760068181548110611fb957fe5b6000918252602090912060029091020154600680546001600160a01b039092169163c1786ab291339185908110611fec57fe5b906000526020600020906002020160010154856040518463ffffffff1660e01b815260040180846001600160a01b03166001600160a01b031681526020018381526020018281526020019350505050602060405180830381600087803b15801561205557600080fd5b505af1158015612069573d6000803e3d6000fd5b505050506040513d602081101561207f57600080fd5b505161208a57600080fd5b600101611fa2565b60015484906001600160a01b038083169116146120ae57600080fd5b6040805188815290516001600160a01b0388169133917f186d8887e1b22f9d9b16849c36baa748950d09d9c9b67a4a6ea140eaad00c21c9181900360200190a360035460408051632770a7eb60e21b81526001600160a01b038981166004830152602482018b905291519190921691639dc29fac9160448083019260209291908290030181600087803b15801561214457600080fd5b505af1158015612158573d6000803e3d6000fd5b505050506040513d602081101561216e57600080fd5b5051935050600090505b600754811015611bd6576007818154811061218f57fe5b6000918252602090912060029091020154600780546001600160a01b0390921691638043154d913391859081106121c257fe5b906000526020600020906002020160010154856040518463ffffffff1660e01b815260040180846001600160a01b03166001600160a01b031681526020018381526020018281526020019350505050602060405180830381600087803b15801561222b57600080fd5b505af115801561223f573d6000803e3d6000fd5b505050506040513d602081101561225557600080fd5b505161226057600080fd5b600101612178565b6009602052600090815260409020805460019091015460ff9091169082565b600154600090819083906001600160a01b038083169116146122a857600080fd5b600654600754909350915050915091565b6003546001600160a01b031681565b60015460009082906001600160a01b038083169116146122e757600080fd5b50506003546001600160a01b0316919050565b60015460009082906001600160a01b0380831691161461231957600080fd5b5050506001600160a01b031660009081526020819052604090206001015460e01b90565b60015460009082906001600160a01b0380831691161461235c57600080fd5b610d1a846139b3565b3360009081526020819052604081206001015460e01b600160e01b9081161461238d57600080fd5b7432bc3a32b93730b62a37b5b2b72a3930b739b332b960591b60005b60065481101561249957600681815481106123c057fe5b6000918252602090912060029091020154600680546001600160a01b039092169163c1786ab2913391859081106123f357fe5b906000526020600020906002020160010154856040518463ffffffff1660e01b815260040180846001600160a01b03166001600160a01b031681526020018381526020018281526020019350505050602060405180830381600087803b15801561245c57600080fd5b505af1158015612470573d6000803e3d6000fd5b505050506040513d602081101561248657600080fd5b505161249157600080fd5b6001016123a9565b60015484906001600160a01b038083169116146124b557600080fd5b6001546040805163dab0efff60e01b81526001600160a01b038b811660048301528a81166024830152604482018a90529151919092169163dab0efff9160648083019260209291908290030181600087803b15801561251357600080fd5b505af1158015612527573d6000803e3d6000fd5b505050506040513d602081101561253d57600080fd5b5051935050600090505b6007548110156118ff576007818154811061255e57fe5b6000918252602090912060029091020154600780546001600160a01b0390921691638043154d9133918590811061259157fe5b906000526020600020906002020160010154856040518463ffffffff1660e01b815260040180846001600160a01b03166001600160a01b031681526020018381526020018281526020019350505050602060405180830381600087803b1580156125fa57600080fd5b505af115801561260e573d6000803e3d6000fd5b505050506040513d602081101561262457600080fd5b505161262f57600080fd5b600101612547565b3360009081526020819052604081206001015460e01b600160e41b9081161461265f57600080fd5b60015482906001600160a01b0380831691161461267b57600080fd5b600154604051632242b11b60e21b8152602060048201908152602482018790526001600160a01b039092169163890ac46c91889188918190604401848480828437600081840152601f19601f8201169050808301925050509350505050602060405180830381600087803b1580156126f257600080fd5b505af1158015612706573d6000803e3d6000fd5b505050506040513d602081101561271c57600080fd5b505195945050505050565b3360009081526020819052604081206001015460609060e01b600160e41b9081161461275257600080fd5b6a19d95b995c9a58d0d85b1b60aa1b60005b600654811015612854576006818154811061277b57fe5b6000918252602090912060029091020154600680546001600160a01b039092169163c1786ab2913391859081106127ae57fe5b906000526020600020906002020160010154856040518463ffffffff1660e01b815260040180846001600160a01b03166001600160a01b031681526020018381526020018281526020019350505050602060405180830381600087803b15801561281757600080fd5b505af115801561282b573d6000803e3d6000fd5b505050506040513d602081101561284157600080fd5b505161284c57600080fd5b600101612764565b60015486906001600160a01b0380831691161461287057600080fd5b60015460405163057e2c8b60e31b81526001600160a01b038c811660048301908152604483018a9052606060248401908152606484018d90529190931692632bf16458928e928e928e928d9290608401858580828437600081840152601f19601f82011690508083019250505095505050505050600060405180830381600087803b1580156128fe57600080fd5b505af1158015612912573d6000803e3d6000fd5b505050506040513d6000823e601f3d908101601f19168201604090815281101561293b57600080fd5b81516020830180516040519294929383019291908464010000000082111561296257600080fd5b90830190602082018581111561297757600080fd5b825164010000000081118282018810171561299157600080fd5b82525081516020918201929091019080838360005b838110156129be5781810151838201526020016129a6565b50505050905090810190601f1680156129eb5780820380516001836020036101000a031916815260200191505b506040525050509450945050600090505b600754811015612aec5760078181548110612a1357fe5b6000918252602090912060029091020154600780546001600160a01b0390921691638043154d91339185908110612a4657fe5b906000526020600020906002020160010154856040518463ffffffff1660e01b815260040180846001600160a01b03166001600160a01b031681526020018381526020018281526020019350505050602060405180830381600087803b158015612aaf57600080fd5b505af1158015612ac3573d6000803e3d6000fd5b505050506040513d6020811015612ad957600080fd5b5051612ae457600080fd5b6001016129fc565b50509550959350505050565b3360009081526020819052604081206001015460e01b600160e31b90811614612b2057600080fd5b50600480546001600160a01b0383166001600160a01b03199091161790556001919050565b6000602081905290815260409020805460019091015460e01b82565b6000612b6b6139f3565b506001600160a01b0383166000908152600860209081526040918290208251808401909352805460ff16158015845260019091015491830191909152612bd6576006816020015181548110612bbc57fe5b906000526020600020906002020160010154915050612c27565b506001600160a01b0383166000908152600960209081526040918290208251808401909352805460ff16158015845260019091015491830191909152610ceb576007816020015181548110612bbc57fe5b92915050565b6002546001600160a01b031681565b3360009081526020819052604081206001015460e01b600160e21b90811614612c6457600080fd5b60015482906001600160a01b03808316911614612c8057600080fd5b6000856001600160a01b031663e2b0caef6040518163ffffffff1660e01b8152600401602060405180830381600087803b158015612cbd57600080fd5b505af1158015612cd1573d6000803e3d6000fd5b505050506040513d6020811015612ce757600080fd5b505190506000816002811115612cf957fe5b1480612d1057506002816002811115612d0e57fe5b145b15612e48576001600160a01b03861660009081526008602052604090205460ff16612e07576040805180820182526001600160a01b0388811680835260208084018a81526006805460018082018355600083815297517ff652222313e28459528d920b65115c16c04f3efc82aaedc97be59f3f377c0d3f600290930292830180546001600160a01b031916919098161790965591517ff652222313e28459528d920b65115c16c04f3efc82aaedc97be59f3f377c0d4090920191909155855180870187528481529054600019018183019081529285526008909152939092209251835460ff19169015151783559051910155612e48565b6001600160a01b038616600090815260086020526040902060010154600680548792908110612e3257fe5b9060005260206000209060020201600101819055505b6001816002811115612e5657fe5b1480612e6d57506002816002811115612e6b57fe5b145b15612fa5576001600160a01b03861660009081526009602052604090205460ff16612f64576040805180820182526001600160a01b0388811680835260208084018a81526007805460018082018355600083815297517fa66cc928b5edb82af9bd49922954155ab7b0942694bea4ce44661d9a8736c688600290930292830180546001600160a01b031916919098161790965591517fa66cc928b5edb82af9bd49922954155ab7b0942694bea4ce44661d9a8736c68990920191909155855180870187528481529054600019018183019081529285526009909152939092209251835460ff19169015151783559051910155612fa5565b6001600160a01b038616600090815260096020526040902060010154600780548792908110612f8f57fe5b9060005260206000209060020201600101819055505b856001600160a01b03167f78800d7333b8d0174a0845569e3913b7ce4a3c03ca444dd9904172fc14f2fdad868360405180838152602001826002811115612fe857fe5b60ff1681526020019250505060405180910390a250600195945050505050565b3360009081526020819052604081206001015460e01b600160e11b9081161461303057600080fd5b6d7265676973746572536368656d6560901b60005b600654811015613135576006818154811061305c57fe5b6000918252602090912060029091020154600680546001600160a01b039092169163c1786ab29133918590811061308f57fe5b906000526020600020906002020160010154856040518463ffffffff1660e01b815260040180846001600160a01b03166001600160a01b031681526020018381526020018281526020019350505050602060405180830381600087803b1580156130f857600080fd5b505af115801561310c573d6000803e3d6000fd5b505050506040513d602081101561312257600080fd5b505161312d57600080fd5b600101613045565b60015484906001600160a01b0380831691161461315157600080fd5b6131596139f3565b506001600160a01b03881660009081526020818152604080832081518083018352815481526001918201546001600160e01b031960e091821b16828601908152338752948690529290942001549151891891901b1916601f60e01b16156131bf57600080fd5b336000908152602081815260409091206001015490820151601f60e01b60e09290921b191616156131ef57600080fd5b6001600160a01b0389166000818152602081905260408082208b8155600101805463ffffffff1916600160e01b8c1760e01c1790555133917f546816e99403df442acb68ef69562682a50762c20a3fb6b472f7af9923736cfc91a3600194505050600090505b6007548110156118ff576007818154811061326c57fe5b6000918252602090912060029091020154600780546001600160a01b0390921691638043154d9133918590811061329f57fe5b906000526020600020906002020160010154856040518463ffffffff1660e01b815260040180846001600160a01b03166001600160a01b031681526020018381526020018281526020019350505050602060405180830381600087803b15801561330857600080fd5b505af115801561331c573d6000803e3d6000fd5b505050506040513d602081101561333257600080fd5b505161333d57600080fd5b600101613255565b6007818154811061120257fe5b6004546001600160a01b031681565b3360009081526020819052604081206001015460e01b600160e01b9081161461338957600080fd5b6d36b4b73a2932b83aba30ba34b7b760911b60005b60065481101561348e57600681815481106133b557fe5b6000918252602090912060029091020154600680546001600160a01b039092169163c1786ab2913391859081106133e857fe5b906000526020600020906002020160010154856040518463ffffffff1660e01b815260040180846001600160a01b03166001600160a01b031681526020018381526020018281526020019350505050602060405180830381600087803b15801561345157600080fd5b505af1158015613465573d6000803e3d6000fd5b505050506040513d602081101561347b57600080fd5b505161348657600080fd5b60010161339e565b60015484906001600160a01b038083169116146134aa57600080fd5b6040805188815290516001600160a01b0388169133917f837f2931e3df0592458212be4e470025f197feb7a8e39deb5b7f1f1d42e6f2629181900360200190a3600354604080516340c10f1960e01b81526001600160a01b038981166004830152602482018b9052915191909216916340c10f199160448083019260209291908290030181600087803b15801561354057600080fd5b505af1158015613554573d6000803e3d6000fd5b505050506040513d602081101561356a57600080fd5b5051935050600090505b600754811015611bd6576007818154811061358b57fe5b6000918252602090912060029091020154600780546001600160a01b0390921691638043154d913391859081106135be57fe5b906000526020600020906002020160010154856040518463ffffffff1660e01b815260040180846001600160a01b03166001600160a01b031681526020018381526020018281526020019350505050602060405180830381600087803b15801561362757600080fd5b505af115801561363b573d6000803e3d6000fd5b505050506040513d602081101561365157600080fd5b505161365c57600080fd5b600101613574565b60015460009082906001600160a01b0380831691161461368357600080fd5b6001600160a01b03841660009081526008602052604090205460ff1680610d1a57505050506001600160a01b031660009081526009602052604090205460ff1690565b3360009081526020819052604081206001015460e01b600160e01b908116146136ee57600080fd5b7f65787465726e616c546f6b656e5472616e7366657246726f6d0000000000000060005b600654811015613802576006818154811061372957fe5b6000918252602090912060029091020154600680546001600160a01b039092169163c1786ab29133918590811061375c57fe5b906000526020600020906002020160010154856040518463ffffffff1660e01b815260040180846001600160a01b03166001600160a01b031681526020018381526020018281526020019350505050602060405180830381600087803b1580156137c557600080fd5b505af11580156137d9573d6000803e3d6000fd5b505050506040513d60208110156137ef57600080fd5b50516137fa57600080fd5b600101613712565b60015484906001600160a01b0380831691161461381e57600080fd5b60015460408051635bab6ad160e11b81526001600160a01b038c811660048301528b811660248301528a81166044830152606482018a90529151919092169163b756d5a29160848083019260209291908290030181600087803b15801561388457600080fd5b505af1158015613898573d6000803e3d6000fd5b505050506040513d60208110156138ae57600080fd5b5051935050600090505b6007548110156139a857600781815481106138cf57fe5b6000918252602090912060029091020154600780546001600160a01b0390921691638043154d9133918590811061390257fe5b906000526020600020906002020160010154856040518463ffffffff1660e01b815260040180846001600160a01b03166001600160a01b031681526020018381526020018281526020019350505050602060405180830381600087803b15801561396b57600080fd5b505af115801561397f573d6000803e3d6000fd5b505050506040513d602081101561399557600080fd5b50516139a057600080fd5b6001016138b8565b505095945050505050565b6001600160a01b03811660009081526020819052604090206001015460e01b600160e01b161515919050565b6004546001600160a01b0390811691161490565b604080518082019091526000808252602082015290565b815481835581811115613a3657600202816002028360005260206000209182019101613a369190613a3b565b505050565b613a6a91905b80821115613a665780546001600160a01b031916815560006001820155600201613a41565b5090565b9056fea265627a7a723158204544786697aa7718662e0a307650a41662d699894d52755b7c89b2a0510607c564736f6c63430005110032",
  "linkReferences": {},
  "deployedLinkReferences": {}
}