{
  "_format": "hh-sol-artifact-1",
  "contractName": "DXDVotingMachineCallbacks",
  "sourceName": "contracts/daostack/votingMachines/DXDVotingMachineCallbacks.sol",
  "abi": [
    {
      "constant": true,
      "inputs": [],
      "name": "avatar",
      "outputs": [
        {
          "internalType": "contract Avatar",
          "name": "",
          "type": "address"
        }
      ],
      "payable": false,
      "stateMutability": "view",
      "type": "function"
    },
    {
      "constant": true,
      "inputs": [
        {
          "internalType": "contract IERC20",
          "name": "_stakingToken",
          "type": "address"
        },
        {
          "internalType": "bytes32",
          "name": "_proposalId",
          "type": "bytes32"
        }
      ],
      "name": "balanceOfStakingToken",
      "outputs": [
        {
          "internalType": "uint256",
          "name": "",
          "type": "uint256"
        }
      ],
      "payable": false,
      "stateMutability": "view",
      "type": "function"
    },
    {
      "constant": false,
      "inputs": [
        {
          "internalType": "uint256",
          "name": "_amount",
          "type": "uint256"
        },
        {
          "internalType": "address",
          "name": "_beneficiary",
          "type": "address"
        },
        {
          "internalType": "bytes32",
          "name": "_proposalId",
          "type": "bytes32"
        }
      ],
      "name": "burnReputation",
      "outputs": [
        {
          "internalType": "bool",
          "name": "",
          "type": "bool"
        }
      ],
      "payable": false,
      "stateMutability": "nonpayable",
      "type": "function"
    },
    {
      "constant": true,
      "inputs": [
        {
          "internalType": "bytes32",
          "name": "_proposalId",
          "type": "bytes32"
        }
      ],
      "name": "getTotalReputationSupply",
      "outputs": [
        {
          "internalType": "uint256",
          "name": "",
          "type": "uint256"
        }
      ],
      "payable": false,
      "stateMutability": "view",
      "type": "function"
    },
    {
      "constant": false,
      "inputs": [
        {
          "internalType": "uint256",
          "name": "_amount",
          "type": "uint256"
        },
        {
          "internalType": "address",
          "name": "_beneficiary",
          "type": "address"
        },
        {
          "internalType": "bytes32",
          "name": "_proposalId",
          "type": "bytes32"
        }
      ],
      "name": "mintReputation",
      "outputs": [
        {
          "internalType": "bool",
          "name": "",
          "type": "bool"
        }
      ],
      "payable": false,
      "stateMutability": "nonpayable",
      "type": "function"
    },
    {
      "constant": true,
      "inputs": [
        {
          "internalType": "bytes32",
          "name": "",
          "type": "bytes32"
        }
      ],
      "name": "proposalsBlockNumber",
      "outputs": [
        {
          "internalType": "uint256",
          "name": "",
          "type": "uint256"
        }
      ],
      "payable": false,
      "stateMutability": "view",
      "type": "function"
    },
    {
      "constant": true,
      "inputs": [
        {
          "internalType": "address",
          "name": "_owner",
          "type": "address"
        },
        {
          "internalType": "bytes32",
          "name": "_proposalId",
          "type": "bytes32"
        }
      ],
      "name": "reputationOf",
      "outputs": [
        {
          "internalType": "uint256",
          "name": "",
          "type": "uint256"
        }
      ],
      "payable": false,
      "stateMutability": "view",
      "type": "function"
    },
    {
      "constant": false,
      "inputs": [
        {
          "internalType": "contract IERC20",
          "name": "_stakingToken",
          "type": "address"
        },
        {
          "internalType": "address",
          "name": "_beneficiary",
          "type": "address"
        },
        {
          "internalType": "uint256",
          "name": "_amount",
          "type": "uint256"
        },
        {
          "internalType": "bytes32",
          "name": "_proposalId",
          "type": "bytes32"
        }
      ],
      "name": "stakingTokenTransfer",
      "outputs": [
        {
          "internalType": "bool",
          "name": "",
          "type": "bool"
        }
      ],
      "payable": false,
      "stateMutability": "nonpayable",
      "type": "function"
    },
    {
      "constant": true,
      "inputs": [],
      "name": "votingMachine",
      "outputs": [
        {
          "internalType": "contract IntVoteInterface",
          "name": "",
          "type": "address"
        }
      ],
      "payable": false,
      "stateMutability": "view",
      "type": "function"
    }
  ],
  "bytecode": "0x608060405234801561001057600080fd5b506108c3806100206000396000f3fe608060405234801561001057600080fd5b50600436106100935760003560e01c80639588378e116100665780639588378e1461011f578063b551c3731461014b578063bea75f2814610168578063d29b5d2f146101b8578063f81f8bf6146101ea57610093565b80633edf7ca1146100985780635aef7de6146100bc5780636b8eb403146100c45780637a5cb92c14610102575b600080fd5b6100a061021c565b604080516001600160a01b039092168252519081900360200190f35b6100a061022b565b6100f0600480360360408110156100da57600080fd5b506001600160a01b03813516906020013561023a565b60408051918252519081900360200190f35b6100f06004803603602081101561011857600080fd5b50356102bb565b6100f06004803603604081101561013557600080fd5b506001600160a01b0381351690602001356102cd565b6100f06004803603602081101561016157600080fd5b503561039c565b6101a46004803603608081101561017e57600080fd5b506001600160a01b03813581169160208101359091169060408101359060600135610496565b604080519115158252519081900360200190f35b6101a4600480360360608110156101ce57600080fd5b508035906001600160a01b036020820135169060400135610600565b6101a46004803603606081101561020057600080fd5b508035906001600160a01b036020820135169060400135610761565b6000546001600160a01b031681565b6001546001600160a01b031681565b600154604080516370a0823160e01b81526001600160a01b03928316600482015290516000928516916370a08231916024808301926020929190829003018186803b15801561028857600080fd5b505afa15801561029c573d6000803e3d6000fd5b505050506040513d60208110156102b257600080fd5b50519392505050565b60026020526000908152604090205481565b6001546040805163089ae1c960e41b815290516000926001600160a01b0316916389ae1c90916004808301926020929190829003018186803b15801561031257600080fd5b505afa158015610326573d6000803e3d6000fd5b505050506040513d602081101561033c57600080fd5b505160008381526002602090815260409182902054825163277166bf60e11b81526001600160a01b03888116600483015260248201929092529251931692634ee2cd7e926044808201939291829003018186803b15801561028857600080fd5b6001546040805163089ae1c960e41b815290516000926001600160a01b0316916389ae1c90916004808301926020929190829003018186803b1580156103e157600080fd5b505afa1580156103f5573d6000803e3d6000fd5b505050506040513d602081101561040b57600080fd5b5051600083815260026020908152604091829020548251630981b24d60e41b8152600481019190915291516001600160a01b039093169263981b24d0926024808201939291829003018186803b15801561046457600080fd5b505afa158015610478573d6000803e3d6000fd5b505050506040513d602081101561048e57600080fd5b505192915050565b600080546001600160a01b031633146104eb576040805162461bcd60e51b81526020600482015260126024820152716f6e6c7920566f74696e674d616368696e6560701b604482015290519081900360640190fd5b600160009054906101000a90046001600160a01b03166001600160a01b0316638da5cb5b6040518163ffffffff1660e01b815260040160206040518083038186803b15801561053957600080fd5b505afa15801561054d573d6000803e3d6000fd5b505050506040513d602081101561056357600080fd5b50516001546040805163b9a04cdd60e01b81526001600160a01b03898116600483015288811660248301526044820188905292831660648201529051919092169163b9a04cdd9160848083019260209291908290030181600087803b1580156105cb57600080fd5b505af11580156105df573d6000803e3d6000fd5b505050506040513d60208110156105f557600080fd5b505195945050505050565b600080546001600160a01b03163314610655576040805162461bcd60e51b81526020600482015260126024820152716f6e6c7920566f74696e674d616368696e6560701b604482015290519081900360640190fd5b600160009054906101000a90046001600160a01b03166001600160a01b0316638da5cb5b6040518163ffffffff1660e01b815260040160206040518083038186803b1580156106a357600080fd5b505afa1580156106b7573d6000803e3d6000fd5b505050506040513d60208110156106cd57600080fd5b50516001546040805163757cca5960e11b8152600481018890526001600160a01b03878116602483015292831660448201529051919092169163eaf994b29160648083019260209291908290030181600087803b15801561072d57600080fd5b505af1158015610741573d6000803e3d6000fd5b505050506040513d602081101561075757600080fd5b5051949350505050565b600080546001600160a01b031633146107b6576040805162461bcd60e51b81526020600482015260126024820152716f6e6c7920566f74696e674d616368696e6560701b604482015290519081900360640190fd5b600160009054906101000a90046001600160a01b03166001600160a01b0316638da5cb5b6040518163ffffffff1660e01b815260040160206040518083038186803b15801561080457600080fd5b505afa158015610818573d6000803e3d6000fd5b505050506040513d602081101561082e57600080fd5b505160015460408051630dd29a4f60e31b8152600481018890526001600160a01b038781166024830152928316604482015290519190921691636e94d2789160648083019260209291908290030181600087803b15801561072d57600080fdfea265627a7a7231582053644328146b22bd8c0f87ab43208c7d33bd3570e7b2b7b5a516834bc45204e664736f6c63430005110032",
  "linkReferences": {},
  "deployedLinkReferences": {}
}