{
  "_format": "hh-sol-artifact-1",
  "contractName": "StakingManager",
  "sourceName": "contracts/worksystems/StakingManager.sol",
  "abi": [
    {
      "inputs": [
        {
          "internalType": "address",
          "name": "EXD_token",
          "type": "address"
        }
      ],
      "stateMutability": "nonpayable",
      "type": "constructor"
    },
    {
      "anonymous": false,
      "inputs": [
        {
          "indexed": true,
          "internalType": "address",
          "name": "account",
          "type": "address"
        }
      ],
      "name": "AddedStakeholder",
      "type": "event"
    },
    {
      "anonymous": false,
      "inputs": [
        {
          "indexed": true,
          "internalType": "address",
          "name": "account",
          "type": "address"
        },
        {
          "indexed": false,
          "internalType": "uint256",
          "name": "amount",
          "type": "uint256"
        }
      ],
      "name": "AdminDeallocatedStake",
      "type": "event"
    },
    {
      "anonymous": false,
      "inputs": [
        {
          "indexed": true,
          "internalType": "address",
          "name": "token_",
          "type": "address"
        },
        {
          "indexed": false,
          "internalType": "address",
          "name": "beneficiary_",
          "type": "address"
        },
        {
          "indexed": false,
          "internalType": "uint256",
          "name": "amount",
          "type": "uint256"
        }
      ],
      "name": "AdminWithdrawERC20",
      "type": "event"
    },
    {
      "anonymous": false,
      "inputs": [
        {
          "indexed": true,
          "internalType": "address",
          "name": "account",
          "type": "address"
        },
        {
          "indexed": false,
          "internalType": "uint256",
          "name": "amount",
          "type": "uint256"
        }
      ],
      "name": "AllocatedStake",
      "type": "event"
    },
    {
      "anonymous": false,
      "inputs": [
        {
          "indexed": true,
          "internalType": "address",
          "name": "account",
          "type": "address"
        },
        {
          "indexed": false,
          "internalType": "uint256",
          "name": "amount",
          "type": "uint256"
        }
      ],
      "name": "DeallocatedStake",
      "type": "event"
    },
    {
      "anonymous": false,
      "inputs": [
        {
          "indexed": true,
          "internalType": "address",
          "name": "account",
          "type": "address"
        },
        {
          "indexed": false,
          "internalType": "uint256",
          "name": "amount",
          "type": "uint256"
        }
      ],
      "name": "Deposited",
      "type": "event"
    },
    {
      "anonymous": false,
      "inputs": [
        {
          "indexed": true,
          "internalType": "address",
          "name": "previousOwner",
          "type": "address"
        },
        {
          "indexed": true,
          "internalType": "address",
          "name": "newOwner",
          "type": "address"
        }
      ],
      "name": "OwnershipTransferred",
      "type": "event"
    },
    {
      "anonymous": false,
      "inputs": [
        {
          "indexed": true,
          "internalType": "address",
          "name": "account",
          "type": "address"
        }
      ],
      "name": "RemovedStakeholder",
      "type": "event"
    },
    {
      "anonymous": false,
      "inputs": [
        {
          "indexed": true,
          "internalType": "address",
          "name": "previous_account",
          "type": "address"
        },
        {
          "indexed": false,
          "internalType": "address",
          "name": "new_account",
          "type": "address"
        }
      ],
      "name": "SlashSinkUpdated",
      "type": "event"
    },
    {
      "anonymous": false,
      "inputs": [
        {
          "indexed": true,
          "internalType": "address",
          "name": "account",
          "type": "address"
        },
        {
          "indexed": false,
          "internalType": "uint256",
          "name": "amount",
          "type": "uint256"
        }
      ],
      "name": "SlashedOnStakedBalance",
      "type": "event"
    },
    {
      "anonymous": false,
      "inputs": [
        {
          "indexed": true,
          "internalType": "address",
          "name": "account",
          "type": "address"
        },
        {
          "indexed": false,
          "internalType": "address",
          "name": "system",
          "type": "address"
        },
        {
          "indexed": false,
          "internalType": "uint256",
          "name": "amount",
          "type": "uint256"
        }
      ],
      "name": "SlashedOnSystemStake",
      "type": "event"
    },
    {
      "anonymous": false,
      "inputs": [
        {
          "indexed": true,
          "internalType": "address",
          "name": "account",
          "type": "address"
        },
        {
          "indexed": false,
          "internalType": "bool",
          "name": "isWhitelisted",
          "type": "bool"
        }
      ],
      "name": "StakeSlashingUnWhitelisted",
      "type": "event"
    },
    {
      "anonymous": false,
      "inputs": [
        {
          "indexed": true,
          "internalType": "address",
          "name": "account",
          "type": "address"
        },
        {
          "indexed": false,
          "internalType": "bool",
          "name": "isWhitelisted",
          "type": "bool"
        }
      ],
      "name": "StakeSlashingWhitelisted",
      "type": "event"
    },
    {
      "anonymous": false,
      "inputs": [
        {
          "indexed": true,
          "internalType": "address",
          "name": "account",
          "type": "address"
        },
        {
          "indexed": false,
          "internalType": "bool",
          "name": "isWhitelisted",
          "type": "bool"
        }
      ],
      "name": "StakeUnWhitelisted",
      "type": "event"
    },
    {
      "anonymous": false,
      "inputs": [
        {
          "indexed": true,
          "internalType": "address",
          "name": "account",
          "type": "address"
        },
        {
          "indexed": false,
          "internalType": "bool",
          "name": "isWhitelisted",
          "type": "bool"
        }
      ],
      "name": "StakeWhitelisted",
      "type": "event"
    },
    {
      "anonymous": false,
      "inputs": [
        {
          "indexed": true,
          "internalType": "address",
          "name": "account",
          "type": "address"
        },
        {
          "indexed": false,
          "internalType": "uint256",
          "name": "amount",
          "type": "uint256"
        }
      ],
      "name": "Staked",
      "type": "event"
    },
    {
      "anonymous": false,
      "inputs": [
        {
          "indexed": true,
          "internalType": "address",
          "name": "account",
          "type": "address"
        },
        {
          "indexed": false,
          "internalType": "uint256",
          "name": "amount",
          "type": "uint256"
        }
      ],
      "name": "Unstaked",
      "type": "event"
    },
    {
      "anonymous": false,
      "inputs": [
        {
          "indexed": true,
          "internalType": "address",
          "name": "account",
          "type": "address"
        },
        {
          "indexed": false,
          "internalType": "uint256",
          "name": "amount",
          "type": "uint256"
        }
      ],
      "name": "Withdrawn",
      "type": "event"
    },
    {
      "inputs": [
        {
          "internalType": "uint256",
          "name": "_StakeToDeallocate",
          "type": "uint256"
        },
        {
          "internalType": "address",
          "name": "_stakeholder",
          "type": "address"
        }
      ],
      "name": "AdminUserDeallocate",
      "outputs": [],
      "stateMutability": "nonpayable",
      "type": "function"
    },
    {
      "inputs": [
        {
          "internalType": "address",
          "name": "_stakeholder",
          "type": "address"
        }
      ],
      "name": "AllocatedStakedAmountOf",
      "outputs": [
        {
          "internalType": "uint256",
          "name": "",
          "type": "uint256"
        }
      ],
      "stateMutability": "view",
      "type": "function"
    },
    {
      "inputs": [
        {
          "internalType": "address",
          "name": "_stakeholder",
          "type": "address"
        }
      ],
      "name": "AvailableStakedAmountOf",
      "outputs": [
        {
          "internalType": "uint256",
          "name": "",
          "type": "uint256"
        }
      ],
      "stateMutability": "view",
      "type": "function"
    },
    {
      "inputs": [
        {
          "internalType": "uint256",
          "name": "_StakeAllocation",
          "type": "uint256"
        },
        {
          "internalType": "address",
          "name": "_stakeholder",
          "type": "address"
        }
      ],
      "name": "ProxyStakeAllocate",
      "outputs": [
        {
          "internalType": "bool",
          "name": "",
          "type": "bool"
        }
      ],
      "stateMutability": "nonpayable",
      "type": "function"
    },
    {
      "inputs": [
        {
          "internalType": "uint256",
          "name": "_StakeToDeallocate",
          "type": "uint256"
        },
        {
          "internalType": "address",
          "name": "_stakeholder",
          "type": "address"
        }
      ],
      "name": "ProxyStakeDeallocate",
      "outputs": [
        {
          "internalType": "bool",
          "name": "",
          "type": "bool"
        }
      ],
      "stateMutability": "nonpayable",
      "type": "function"
    },
    {
      "inputs": [
        {
          "internalType": "uint256",
          "name": "_StakeToSlash",
          "type": "uint256"
        },
        {
          "internalType": "address",
          "name": "_stakeholder",
          "type": "address"
        },
        {
          "internalType": "address",
          "name": "_system_address",
          "type": "address"
        }
      ],
      "name": "ProxyStakeSlash",
      "outputs": [
        {
          "internalType": "bool",
          "name": "",
          "type": "bool"
        }
      ],
      "stateMutability": "nonpayable",
      "type": "function"
    },
    {
      "inputs": [
        {
          "internalType": "uint256",
          "name": "_stake",
          "type": "uint256"
        }
      ],
      "name": "Stake",
      "outputs": [],
      "stateMutability": "nonpayable",
      "type": "function"
    },
    {
      "inputs": [
        {
          "internalType": "uint256",
          "name": "",
          "type": "uint256"
        }
      ],
      "name": "StakeSlashingWhitelistedAddress",
      "outputs": [
        {
          "internalType": "address",
          "name": "",
          "type": "address"
        }
      ],
      "stateMutability": "view",
      "type": "function"
    },
    {
      "inputs": [
        {
          "internalType": "uint256",
          "name": "",
          "type": "uint256"
        }
      ],
      "name": "StakeWhitelistedAddress",
      "outputs": [
        {
          "internalType": "address",
          "name": "",
          "type": "address"
        }
      ],
      "stateMutability": "view",
      "type": "function"
    },
    {
      "inputs": [],
      "name": "TotalAllocatedStakes",
      "outputs": [
        {
          "internalType": "uint256",
          "name": "",
          "type": "uint256"
        }
      ],
      "stateMutability": "view",
      "type": "function"
    },
    {
      "inputs": [
        {
          "internalType": "address",
          "name": "",
          "type": "address"
        }
      ],
      "name": "TotalAllocationsPerSystem",
      "outputs": [
        {
          "internalType": "uint256",
          "name": "",
          "type": "uint256"
        }
      ],
      "stateMutability": "view",
      "type": "function"
    },
    {
      "inputs": [],
      "name": "TotalAvailableStake",
      "outputs": [
        {
          "internalType": "uint256",
          "name": "",
          "type": "uint256"
        }
      ],
      "stateMutability": "view",
      "type": "function"
    },
    {
      "inputs": [],
      "name": "TotalDeposit",
      "outputs": [
        {
          "internalType": "uint256",
          "name": "",
          "type": "uint256"
        }
      ],
      "stateMutability": "view",
      "type": "function"
    },
    {
      "inputs": [],
      "name": "TotalDeposited",
      "outputs": [
        {
          "internalType": "uint256",
          "name": "",
          "type": "uint256"
        }
      ],
      "stateMutability": "view",
      "type": "function"
    },
    {
      "inputs": [],
      "name": "TotalStakes",
      "outputs": [
        {
          "internalType": "uint256",
          "name": "",
          "type": "uint256"
        }
      ],
      "stateMutability": "view",
      "type": "function"
    },
    {
      "inputs": [
        {
          "internalType": "uint256",
          "name": "_stake",
          "type": "uint256"
        }
      ],
      "name": "Unstake",
      "outputs": [],
      "stateMutability": "nonpayable",
      "type": "function"
    },
    {
      "inputs": [
        {
          "internalType": "address",
          "name": "",
          "type": "address"
        },
        {
          "internalType": "address",
          "name": "",
          "type": "address"
        }
      ],
      "name": "UserStakeAllocations",
      "outputs": [
        {
          "internalType": "uint256",
          "name": "",
          "type": "uint256"
        }
      ],
      "stateMutability": "view",
      "type": "function"
    },
    {
      "inputs": [
        {
          "internalType": "address",
          "name": "_address",
          "type": "address"
        }
      ],
      "name": "addSlashingWhitelistedAddress",
      "outputs": [],
      "stateMutability": "nonpayable",
      "type": "function"
    },
    {
      "inputs": [
        {
          "internalType": "address",
          "name": "_address",
          "type": "address"
        }
      ],
      "name": "addWhitelistedAddress",
      "outputs": [],
      "stateMutability": "nonpayable",
      "type": "function"
    },
    {
      "inputs": [
        {
          "internalType": "contract IERC20",
          "name": "token_",
          "type": "address"
        },
        {
          "internalType": "address",
          "name": "beneficiary_",
          "type": "address"
        },
        {
          "internalType": "uint256",
          "name": "tokenAmount_",
          "type": "uint256"
        }
      ],
      "name": "adminWithdrawERC20",
      "outputs": [],
      "stateMutability": "nonpayable",
      "type": "function"
    },
    {
      "inputs": [
        {
          "internalType": "address",
          "name": "",
          "type": "address"
        }
      ],
      "name": "balances",
      "outputs": [
        {
          "internalType": "uint256",
          "name": "free_balance",
          "type": "uint256"
        },
        {
          "internalType": "uint256",
          "name": "staked_balance",
          "type": "uint256"
        }
      ],
      "stateMutability": "view",
      "type": "function"
    },
    {
      "inputs": [],
      "name": "closeAllStakes",
      "outputs": [],
      "stateMutability": "nonpayable",
      "type": "function"
    },
    {
      "inputs": [
        {
          "internalType": "uint256",
          "name": "_numTokens",
          "type": "uint256"
        }
      ],
      "name": "deposit",
      "outputs": [],
      "stateMutability": "nonpayable",
      "type": "function"
    },
    {
      "inputs": [
        {
          "internalType": "address",
          "name": "_system",
          "type": "address"
        }
      ],
      "name": "getSystemTotalAllocations",
      "outputs": [
        {
          "internalType": "uint256",
          "name": "",
          "type": "uint256"
        }
      ],
      "stateMutability": "view",
      "type": "function"
    },
    {
      "inputs": [
        {
          "internalType": "address",
          "name": "_stakeholder",
          "type": "address"
        }
      ],
      "name": "getUserTotalAllocation",
      "outputs": [
        {
          "internalType": "uint256",
          "name": "",
          "type": "uint256"
        }
      ],
      "stateMutability": "view",
      "type": "function"
    },
    {
      "inputs": [
        {
          "internalType": "address",
          "name": "_address",
          "type": "address"
        }
      ],
      "name": "isStakeSlashingWhitelisted",
      "outputs": [
        {
          "internalType": "bool",
          "name": "",
          "type": "bool"
        }
      ],
      "stateMutability": "view",
      "type": "function"
    },
    {
      "inputs": [
        {
          "internalType": "address",
          "name": "_address",
          "type": "address"
        }
      ],
      "name": "isStakeWhitelisted",
      "outputs": [
        {
          "internalType": "bool",
          "name": "",
          "type": "bool"
        }
      ],
      "stateMutability": "view",
      "type": "function"
    },
    {
      "inputs": [
        {
          "internalType": "address",
          "name": "_address",
          "type": "address"
        }
      ],
      "name": "isStakeholder",
      "outputs": [
        {
          "internalType": "bool",
          "name": "",
          "type": "bool"
        }
      ],
      "stateMutability": "view",
      "type": "function"
    },
    {
      "inputs": [
        {
          "internalType": "address",
          "name": "",
          "type": "address"
        }
      ],
      "name": "isStakeholderMap",
      "outputs": [
        {
          "internalType": "bool",
          "name": "",
          "type": "bool"
        }
      ],
      "stateMutability": "view",
      "type": "function"
    },
    {
      "inputs": [],
      "name": "owner",
      "outputs": [
        {
          "internalType": "address",
          "name": "",
          "type": "address"
        }
      ],
      "stateMutability": "view",
      "type": "function"
    },
    {
      "inputs": [
        {
          "internalType": "address",
          "name": "_address",
          "type": "address"
        }
      ],
      "name": "removeSlashingWhitelistedAddress",
      "outputs": [],
      "stateMutability": "nonpayable",
      "type": "function"
    },
    {
      "inputs": [
        {
          "internalType": "address",
          "name": "_address",
          "type": "address"
        }
      ],
      "name": "removeWhitelistedAddress",
      "outputs": [],
      "stateMutability": "nonpayable",
      "type": "function"
    },
    {
      "inputs": [],
      "name": "renounceOwnership",
      "outputs": [],
      "stateMutability": "nonpayable",
      "type": "function"
    },
    {
      "inputs": [],
      "name": "token",
      "outputs": [
        {
          "internalType": "contract IERC20",
          "name": "",
          "type": "address"
        }
      ],
      "stateMutability": "view",
      "type": "function"
    },
    {
      "inputs": [
        {
          "internalType": "address",
          "name": "newOwner",
          "type": "address"
        }
      ],
      "name": "transferOwnership",
      "outputs": [],
      "stateMutability": "nonpayable",
      "type": "function"
    },
    {
      "inputs": [
        {
          "internalType": "address",
          "name": "_new_sink_address",
          "type": "address"
        }
      ],
      "name": "updateSlashedSinkAddress",
      "outputs": [],
      "stateMutability": "nonpayable",
      "type": "function"
    },
    {
      "inputs": [
        {
          "internalType": "uint256",
          "name": "_numTokens",
          "type": "uint256"
        }
      ],
      "name": "withdraw",
      "outputs": [],
      "stateMutability": "nonpayable",
      "type": "function"
    },
    {
      "inputs": [],
      "name": "withdrawAll",
      "outputs": [],
      "stateMutability": "nonpayable",
      "type": "function"
    }
  ],
  "bytecode": "0x6080604052600060065560006007553480156200001b57600080fd5b5060405162002658380380620026588339810160408190526200003e91620000bf565b62000049336200006f565b600180546001600160a01b0319166001600160a01b0392909216919091179055620000f1565b600080546001600160a01b038381166001600160a01b0319831681178455604051919092169283917f8be0079c531659141344cd1fd0a4f28419497f9722a3daafe3b4186f6b6457e09190a35050565b600060208284031215620000d257600080fd5b81516001600160a01b0381168114620000ea57600080fd5b9392505050565b61255780620001016000396000f3fe608060405234801561001057600080fd5b50600436106102325760003560e01c8063853828b611610130578063cbdce4e0116100b8578063ef037b901161007c578063ef037b901461051f578063f1f1db1e1461054b578063f20e8b121461055e578063f2fde38b14610571578063fc0c546a1461058457600080fd5b8063cbdce4e014610497578063d6b143b9146104c3578063e63cf618146104d6578063e67719bd146104e9578063e904b813146104fc57600080fd5b8063a74b3d5d116100ff578063a74b3d5d14610407578063b33c93a814610432578063b6b55f2514610445578063c067acf714610458578063c5ef4d0c1461048457600080fd5b8063853828b6146103d3578063876cd6b0146103db5780638d94ac69146103e35780638da5cb5b146103f657600080fd5b806327ff1374116101be5780635e8ee84b116101825780635e8ee84b146103945780636830d954146103a75780636a40cbb6146103ba5780636b96dcff146103c2578063715018a6146103cb57600080fd5b806327ff13741461033f57806329975b43146103485780632e1a7d4d1461035b57806336601f401461036e578063530cd5ab1461038157600080fd5b806314bee5a51161020557806314bee5a5146102b3578063227a473b146102bb57806323cc9f37146102d0578063251bde94146102d857806327e235e31461030357600080fd5b80630b45fced146102375780630ec330151461026a578063112b32661461028d57806312b6887c146102a0575b600080fd5b610257610245366004612171565b60056020526000908152604090205481565b6040519081526020015b60405180910390f35b61027d610278366004612195565b610597565b6040519015158152602001610261565b61027d61029b3660046121d7565b6109ec565b61027d6102ae3660046121d7565b610c59565b610257610e01565b6102ce6102c9366004612207565b610e94565b005b600654610257565b6102eb6102e6366004612207565b610f80565b6040516001600160a01b039091168152602001610261565b61032a610311366004612171565b6008602052600090815260409020805460019091015482565b60408051928352602083019190915201610261565b61025760075481565b6102ce610356366004612171565b610faa565b6102ce610369366004612207565b6110b3565b6102ce61037c366004612220565b6111a5565b6102ce61038f366004612171565b61120c565b6102ce6103a23660046121d7565b6113af565b6102ce6103b5366004612171565b6114fb565b6102ce611556565b61025760065481565b6102ce6115fd565b6102ce611611565b600754610257565b6102eb6103f1366004612207565b61169a565b6000546001600160a01b03166102eb565b610257610415366004612261565b600460209081526000928352604080842090915290825290205481565b610257610440366004612171565b6116aa565b6102ce610453366004612207565b61174b565b61027d610466366004612171565b6001600160a01b03166000908152600c602052604090205460ff1690565b6102ce610492366004612171565b611882565b6102576104a5366004612171565b6001600160a01b031660009081526008602052604090206001015490565b6102576104d1366004612171565b611a1d565b6102ce6104e4366004612171565b611b1e565b61027d6104f7366004612171565b611c27565b61027d61050a366004612171565b60036020526000908152604090205460ff1681565b61027d61052d366004612171565b6001600160a01b031660009081526003602052604090205460ff1690565b6102ce610559366004612207565b611c45565b61025761056c366004612171565b611cfb565b6102ce61057f366004612171565b611d0c565b6001546102eb906001600160a01b031681565b60008084116105ed5760405162461bcd60e51b815260206004820152601b60248201527f205374616b6520746f20736c617368206d757374206265203e2030000000000060448201526064015b60405180910390fd5b336000908152600c602052604090205460ff166106675760405162461bcd60e51b815260206004820152603260248201527f69735374616b65536c617368696e6757686974656c6973746564206d757374206044820152713132903a393ab2903337b91029b2b73232b960711b60648201526084016105e4565b6001600160a01b03831660009081526003602052604090205460ff1661069f5760405162461bcd60e51b81526004016105e49061228f565b60006001600160a01b038316158015906106bd57506106bd83611c27565b156108b1576001600160a01b0380851660009081526004602090815260408083209387168352929052205485111561076b5760405162461bcd60e51b8152602060048201526044602482018190527f5f7374616b65686f6c6465722068617320746f206861766520656e6f75676820908201527f616c6c6f63617465642062616c616e636520746f20736c61736820696e2073796064820152637374656d60e01b608482015260a4016105e4565b6001600160a01b0384166000908152600560205260409020548511156107f95760405162461bcd60e51b815260206004820152603f60248201527f546f74616c416c6c6f636174696f6e7320696e2074686973207375622d73797360448201527f74656d206973206c6f776572207468616e205f5374616b65546f536c6173680060648201526084016105e4565b6001600160a01b038085166000908152600460209081526040808320938716835292905290812080548792906108309084906122ea565b90915550506001600160a01b0383166000908152600560205260408120805487929061085d9084906122ea565b9091555050604080516001600160a01b03858116825260208201889052600193508616917f92331c8a764761aa209b9d022af0abc70323367aaa9678e4d7a8e3b2f6a75b0f910160405180910390a26109c7565b3360009081526008602052604090206001015485111561091e5760405162461bcd60e51b815260206004820152602260248201527f5374616b65642062616c616e636520697320746f6f206c6f7720746f20736c616044820152610e6d60f31b60648201526084016105e4565b33600090815260086020526040812060010180548792906109409084906122ea565b92505081905550846006600082825461095991906122ea565b90915550503360009081526008602052604090206001908101549091506109835761098333611d85565b836001600160a01b03167f49d6a9aebd858e8700b98f39914c626202169de3c595e613a18becb50ba57d3d866040516109be91815260200190565b60405180910390a25b600f546001546109e4916001600160a01b03918216911687611dce565b949350505050565b60006109f733611c27565b610a135760405162461bcd60e51b81526004016105e490612301565b6001600160a01b03821660009081526003602052604090205460ff16610a4b5760405162461bcd60e51b81526004016105e49061228f565b6001600160a01b0382166000908152600460209081526040808320338452909152902054831115610af25760405162461bcd60e51b8152602060048201526044602482018190527f5f7374616b65686f6c6465722068617320746f206861766520656e6f75676820908201527f616c6c6f63617465642062616c616e636520696e2074686973207375622d73796064820152637374656d60e01b608482015260a4016105e4565b33600090815260056020526040902054831115610b855760405162461bcd60e51b8152602060048201526044602482018190527f546f74616c416c6c6f636174696f6e7320696e2074686973207375622d737973908201527f74656d206973206c6f776572207468616e205f5374616b65546f4465616c6c6f6064820152636361746560e01b608482015260a4016105e4565b6001600160a01b03821660009081526008602052604081206001018054859290610bb090849061234b565b90915550506001600160a01b038216600090815260046020908152604080832033845290915281208054859290610be89084906122ea565b90915550503360009081526005602052604081208054859290610c0c9084906122ea565b90915550506040518381526001600160a01b038316907f29895a7ca92aec2085942206453561cfcbe0bdd2c35e455f608f2a9f40a335f5906020015b60405180910390a250600192915050565b6000610c6433611c27565b610c805760405162461bcd60e51b81526004016105e490612301565b6001600160a01b03821660009081526003602052604090205460ff16610cb85760405162461bcd60e51b81526004016105e49061228f565b6001600160a01b038216600090815260086020526040902060010154831115610d3a5760405162461bcd60e51b815260206004820152602e60248201527f5f7374616b65686f6c6465722068617320746f206861766520656e6f7567682060448201526d7374616b65642062616c616e636560901b60648201526084016105e4565b6001600160a01b03821660009081526008602052604081206001018054859290610d659084906122ea565b90915550506001600160a01b038216600090815260046020908152604080832033845290915281208054859290610d9d90849061234b565b90915550503360009081526005602052604081208054859290610dc190849061234b565b90915550506040518381526001600160a01b038316907f89088e05af06e48f8cb32ba1aae7ec1276c822f339f19018b49b34077dd37cef90602001610c48565b600080805b600a54811015610e8e576000600a8281548110610e2557610e25612363565b60009182526020808320909101546001600160a01b0316808352600990915260409091205490915060ff1615610e7b576001600160a01b038116600090815260056020526040902054610e78908461234b565b92505b5080610e8681612379565b915050610e06565b50919050565b33600090815260086020526040902054811115610ec35760405162461bcd60e51b81526004016105e490612394565b33600090815260086020526040902060010154610ee357610ee333611e36565b3360009081526008602052604081208054839290610f029084906122ea565b90915550503360009081526008602052604081206001018054839290610f2990849061234b565b925050819055508060066000828254610f42919061234b565b909155505060405181815233907f9e71bc8eea02a63969f509818f2dafb9254532904319f9dbda79b67bd34a5f3d906020015b60405180910390a250565b600a8181548110610f9057600080fd5b6000918252602090912001546001600160a01b0316905081565b610fb2611e82565b6001600160a01b03811660009081526009602052604090205460ff16151560011415610ff05760405162461bcd60e51b81526004016105e4906123cb565b6001600160a01b0381166000818152600960205260408120805460ff19166001908117909155600a80548083018255928190527fc65a7bb8d6351c1cf70c95a316cc6a92839c986682d98bc35f958f4883f9d2a890920180546001600160a01b0319169093179092555461106491906122ea565b6001600160a01b0382166000818152600b602090815260409182902093909355516001815290917f34e57d3e15d2174a31aed19b5a635aad3c7fd6d6ff6b19d43f56819654e990fd9101610f75565b336000908152600860205260409020548111156111385760405162461bcd60e51b815260206004820152603860248201527f6e6f7420656e6f75676820746f6b656e7320696e20746865206672656520737460448201527f616b65642062616c616e636520746f207769746864726177000000000000000060648201526084016105e4565b33600090815260086020526040812080548392906111579084906122ea565b9091555050600154611173906001600160a01b03163383611dce565b60405181815233907f7084f5476618d8e60b11ef0d7d3f06914655adb8793e28ff7f018d4c76d505d590602001610f75565b6111ad611e82565b6111c16001600160a01b0384168383611dce565b604080516001600160a01b038481168252602082018490528516917fac6303b4cf6f066bc670195b64990e50df60eb54ca397394c4bee6e15748b9f3910160405180910390a2505050565b611214611e82565b6001600160a01b03811660009081526009602052604090205460ff1661124c5760405162461bcd60e51b81526004016105e490612412565b6001600160a01b0381166000908152600960209081526040808320805460ff19169055600b90915290208054633b9ac9ff909155600a8054611290906001906122ea565b815481106112a0576112a0612363565b600091825260209091200154600a80546001600160a01b0390921691839081106112cc576112cc612363565b9060005260206000200160006101000a8154816001600160a01b0302191690836001600160a01b0316021790555080600b6000600a848154811061131257611312612363565b60009182526020808320909101546001600160a01b03168352820192909252604001902055600a80548061134857611348612455565b60008281526020808220830160001990810180546001600160a01b03191690559092019092556040519182526001600160a01b038416917fc87598b69899c8b872e8b5e416808d7332fe62ed4f035f7e72ae6f646e12f73f91015b60405180910390a25050565b6113b7611e82565b6001600160a01b0381166000908152600860205260409020600101548211156113f25760405162461bcd60e51b81526004016105e490612394565b6001600160a01b03811660009081526004602090815260408083203384529091529020548211611455576001600160a01b03811660009081526004602090815260408083203384529091528120805484929061144f9084906122ea565b90915550505b33600090815260056020526040902054821161149057336000908152600560205260408120805484929061148a9084906122ea565b90915550505b6001600160a01b038116600090815260086020526040812060010180548492906114bb90849061234b565b90915550506040518281526001600160a01b038216907f9f89cf9cb85b0559097f8fe5afa3efd1996226f73995506f008320c0f0b74f7e906020016113a3565b611503611e82565b600f80546001600160a01b038381166001600160a01b031983168117909355604051928352169081907ff207005768928fdd8eed97fca7104d30d83cb9091abab710f2f920c71f2adbfb906020016113a3565b33600090815260086020526040812060018101548154909283929161157c90849061234b565b909155505033600090815260086020526040812060010180548392906115a39084906122ea565b9250508190555080600660008282546115bc91906122ea565b909155506115cb905033611d85565b60405181815233907f0f5bb82176feb1b5e747e28471aa92156a04d9f3ab9f45f28e2d704232b93f7590602001610f75565b611605611e82565b61160f6000611edc565b565b3360009081526008602052604090205461166d5760405162461bcd60e51b815260206004820152601d60248201527f6e6f7420656e6f75676820746f6b656e7320746f20776974686472617700000060448201526064016105e4565b33600081815260086020526040812080549190556001549091611173916001600160a01b03169083611dce565b600d8181548110610f9057600080fd5b600080805b600a54811015611744576000600a82815481106116ce576116ce612363565b60009182526020808320909101546001600160a01b0316808352600990915260409091205490915060ff1615611731576001600160a01b0380861660009081526004602090815260408083209385168352929052205461172e908461234b565b92505b508061173c81612379565b9150506116af565b5092915050565b6001546040516370a0823160e01b815233600482015282916001600160a01b0316906370a082319060240160206040518083038186803b15801561178e57600080fd5b505afa1580156117a2573d6000803e3d6000fd5b505050506040513d601f19601f820116820180604052508101906117c6919061246b565b10156118145760405162461bcd60e51b815260206004820152601c60248201527f6e6f7420656e6f75676820746f6b656e7320746f206465706f7369740000000060448201526064016105e4565b336000908152600860205260408120805483929061183390849061234b565b9091555050600154611850906001600160a01b0316333084611f2c565b60405181815233907f2da466a7b24304f47e87fa2e1e5a81b9831ce54fec19055ce277ca2f39ba42c490602001610f75565b61188a611e82565b6001600160a01b0381166000908152600c602052604090205460ff166118c25760405162461bcd60e51b81526004016105e490612412565b6001600160a01b0381166000908152600c60209081526040808320805460ff19169055600e90915290208054633b9ac9ff909155600d8054611906906001906122ea565b8154811061191657611916612363565b600091825260209091200154600d80546001600160a01b03909216918390811061194257611942612363565b9060005260206000200160006101000a8154816001600160a01b0302191690836001600160a01b0316021790555080600e6000600d848154811061198857611988612363565b60009182526020808320909101546001600160a01b03168352820192909252604001902055600d8054806119be576119be612455565b60008281526020808220830160001990810180546001600160a01b03191690559092019092556040519182526001600160a01b038416917fc4c1d19b136fc0a89ef7feb4f920f61ac8d802a2b6bc2e1a66f1fe594e4064ea91016113a3565b6000611a2882611c27565b611a925760405162461bcd60e51b815260206004820152603560248201527f5f73797374656d206d7573742062652077686974656c697374656420746f2068604482015274617665207374616b6520616c6c6f636174696f6e7360581b60648201526084016105e4565b6000805b600a54811015611744576000600a8281548110611ab557611ab5612363565b60009182526020808320909101546001600160a01b0316808352600990915260409091205490915060ff1615611b0b576001600160a01b038116600090815260056020526040902054611b08908461234b565b92505b5080611b1681612379565b915050611a96565b611b26611e82565b6001600160a01b0381166000908152600c602052604090205460ff16151560011415611b645760405162461bcd60e51b81526004016105e4906123cb565b6001600160a01b0381166000818152600c60205260408120805460ff19166001908117909155600d80548083018255928190527fd7b6990105719101dabeb77144f2a3385c8033acd3af97e9423a695e81ad1eb590920180546001600160a01b03191690931790925554611bd891906122ea565b6001600160a01b0382166000818152600e602090815260409182902093909355516001815290917f7140800234c106d070f2dcabf34e312a18b076ee088a5fac7abff6737cfe4a0e9101610f75565b6001600160a01b031660009081526009602052604090205460ff1690565b33600090815260086020526040902060010154811115611c775760405162461bcd60e51b81526004016105e490612394565b3360009081526008602052604081208054839290611c9690849061234b565b90915550503360009081526008602052604081206001018054839290611cbd9084906122ea565b925050819055508060066000828254611cd691906122ea565b9091555050336000908152600860205260409020600101546115cb576115cb33611d85565b6000611d06826116aa565b92915050565b611d14611e82565b6001600160a01b038116611d795760405162461bcd60e51b815260206004820152602660248201527f4f776e61626c653a206e6577206f776e657220697320746865207a65726f206160448201526564647265737360d01b60648201526084016105e4565b611d8281611edc565b50565b6001600160a01b038116600081815260036020526040808220805460ff19169055517fc91d0d028fa8d1438db470549e0468d107a185c7010e661b6f0d0b534da998fa9190a250565b6040516001600160a01b038316602482015260448101829052611e3190849063a9059cbb60e01b906064015b60408051601f198184030181529190526020810180516001600160e01b03166001600160e01b031990931692909217909152611f6a565b505050565b6001600160a01b038116600081815260036020526040808220805460ff19166001179055517f349539b90689aceca1423e2abf1efa7079beae0b95e76d5229516c4aa1ee54f89190a250565b6000546001600160a01b0316331461160f5760405162461bcd60e51b815260206004820181905260248201527f4f776e61626c653a2063616c6c6572206973206e6f7420746865206f776e657260448201526064016105e4565b600080546001600160a01b038381166001600160a01b0319831681178455604051919092169283917f8be0079c531659141344cd1fd0a4f28419497f9722a3daafe3b4186f6b6457e09190a35050565b6040516001600160a01b0380851660248301528316604482015260648101829052611f649085906323b872dd60e01b90608401611dfa565b50505050565b6000611fbf826040518060400160405280602081526020017f5361666545524332303a206c6f772d6c6576656c2063616c6c206661696c6564815250856001600160a01b031661203c9092919063ffffffff16565b805190915015611e315780806020019051810190611fdd9190612484565b611e315760405162461bcd60e51b815260206004820152602a60248201527f5361666545524332303a204552433230206f7065726174696f6e20646964206e6044820152691bdd081cdd58d8d9595960b21b60648201526084016105e4565b60606109e4848460008585600080866001600160a01b0316858760405161206391906124d2565b60006040518083038185875af1925050503d80600081146120a0576040519150601f19603f3d011682016040523d82523d6000602084013e6120a5565b606091505b50915091506120b6878383876120c1565b979650505050505050565b6060831561212d578251612126576001600160a01b0385163b6121265760405162461bcd60e51b815260206004820152601d60248201527f416464726573733a2063616c6c20746f206e6f6e2d636f6e747261637400000060448201526064016105e4565b50816109e4565b6109e483838151156121425781518083602001fd5b8060405162461bcd60e51b81526004016105e491906124ee565b6001600160a01b0381168114611d8257600080fd5b60006020828403121561218357600080fd5b813561218e8161215c565b9392505050565b6000806000606084860312156121aa57600080fd5b8335925060208401356121bc8161215c565b915060408401356121cc8161215c565b809150509250925092565b600080604083850312156121ea57600080fd5b8235915060208301356121fc8161215c565b809150509250929050565b60006020828403121561221957600080fd5b5035919050565b60008060006060848603121561223557600080fd5b83356122408161215c565b925060208401356122508161215c565b929592945050506040919091013590565b6000806040838503121561227457600080fd5b823561227f8161215c565b915060208301356121fc8161215c565b60208082526025908201527f69735374616b65686f6c646572206d757374206265207472756520666f72205360408201526432b73232b960d91b606082015260800190565b634e487b7160e01b600052601160045260246000fd5b6000828210156122fc576122fc6122d4565b500390565b6020808252602a908201527f69735374616b6557686974656c6973746564206d7573742062652074727565206040820152693337b91029b2b73232b960b11b606082015260800190565b6000821982111561235e5761235e6122d4565b500190565b634e487b7160e01b600052603260045260246000fd5b600060001982141561238d5761238d6122d4565b5060010190565b6020808252601a908201527f6465706f7369746564207374616b6520697320746f6f206c6f77000000000000604082015260600190565b60208082526027908201527f41646472657373206d757374206e6f742062652077686974656c697374656420604082015266616c726561647960c81b606082015260800190565b60208082526023908201527f41646472657373206d7573742062652077686974656c697374656420616c726560408201526261647960e81b606082015260800190565b634e487b7160e01b600052603160045260246000fd5b60006020828403121561247d57600080fd5b5051919050565b60006020828403121561249657600080fd5b8151801515811461218e57600080fd5b60005b838110156124c15781810151838201526020016124a9565b83811115611f645750506000910152565b600082516124e48184602087016124a6565b9190910192915050565b602081526000825180602084015261250d8160408501602087016124a6565b601f01601f1916919091016040019291505056fea2646970667358221220860fd7a32d19a41222a3b1e150f55c63f4d94d16776a9251439b07146846904d64736f6c63430008080033",
  "linkReferences": {},
  "deployedLinkReferences": {}
}