{
  "_format": "hh-sol-artifact-1",
  "contractName": "DataSpotting",
  "sourceName": "contracts/worksystems/DataSpotting.sol",
  "abi": [
    {
      "inputs": [
        {
          "internalType": "address",
          "name": "EXDT_token_",
          "type": "address"
        }
      ],
      "stateMutability": "nonpayable",
      "type": "constructor"
    },
    {
      "anonymous": false,
      "inputs": [
        {
          "indexed": false,
          "internalType": "bytes",
          "name": "bytesFailure",
          "type": "bytes"
        }
      ],
      "name": "BytesFailure",
      "type": "event"
    },
    {
      "anonymous": false,
      "inputs": [
        {
          "indexed": true,
          "internalType": "address",
          "name": "previousOwner",
          "type": "address"
        },
        {
          "indexed": true,
          "internalType": "address",
          "name": "newOwner",
          "type": "address"
        }
      ],
      "name": "OwnershipTransferred",
      "type": "event"
    },
    {
      "anonymous": false,
      "inputs": [
        {
          "indexed": false,
          "internalType": "address",
          "name": "parameters",
          "type": "address"
        }
      ],
      "name": "ParametersUpdated",
      "type": "event"
    },
    {
      "anonymous": false,
      "inputs": [
        {
          "indexed": false,
          "internalType": "address",
          "name": "account",
          "type": "address"
        }
      ],
      "name": "Paused",
      "type": "event"
    },
    {
      "anonymous": false,
      "inputs": [
        {
          "indexed": false,
          "internalType": "address",
          "name": "account",
          "type": "address"
        }
      ],
      "name": "Unpaused",
      "type": "event"
    },
    {
      "anonymous": false,
      "inputs": [
        {
          "indexed": true,
          "internalType": "uint256",
          "name": "DataID",
          "type": "uint256"
        },
        {
          "indexed": false,
          "internalType": "string",
          "name": "file_hash",
          "type": "string"
        },
        {
          "indexed": false,
          "internalType": "bool",
          "name": "isVotePassed",
          "type": "bool"
        }
      ],
      "name": "_BatchValidated",
      "type": "event"
    },
    {
      "anonymous": false,
      "inputs": [
        {
          "indexed": true,
          "internalType": "uint256",
          "name": "batchID",
          "type": "uint256"
        }
      ],
      "name": "_DataBatchDeleted",
      "type": "event"
    },
    {
      "anonymous": false,
      "inputs": [
        {
          "indexed": true,
          "internalType": "uint256",
          "name": "DataID",
          "type": "uint256"
        },
        {
          "indexed": false,
          "internalType": "uint256",
          "name": "numTokens",
          "type": "uint256"
        },
        {
          "indexed": true,
          "internalType": "address",
          "name": "voter",
          "type": "address"
        }
      ],
      "name": "_SpotCheckCommitted",
      "type": "event"
    },
    {
      "anonymous": false,
      "inputs": [
        {
          "indexed": true,
          "internalType": "uint256",
          "name": "DataID",
          "type": "uint256"
        },
        {
          "indexed": false,
          "internalType": "uint256",
          "name": "votesFor",
          "type": "uint256"
        },
        {
          "indexed": false,
          "internalType": "uint256",
          "name": "votesAgainst",
          "type": "uint256"
        },
        {
          "indexed": true,
          "internalType": "uint256",
          "name": "choice",
          "type": "uint256"
        },
        {
          "indexed": true,
          "internalType": "address",
          "name": "voter",
          "type": "address"
        }
      ],
      "name": "_SpotCheckRevealed",
      "type": "event"
    },
    {
      "anonymous": false,
      "inputs": [
        {
          "indexed": true,
          "internalType": "uint256",
          "name": "DataID",
          "type": "uint256"
        },
        {
          "indexed": false,
          "internalType": "string",
          "name": "file_hash",
          "type": "string"
        },
        {
          "indexed": false,
          "internalType": "string",
          "name": "URL_domain",
          "type": "string"
        },
        {
          "indexed": true,
          "internalType": "address",
          "name": "sender",
          "type": "address"
        }
      ],
      "name": "_SpotSubmitted",
      "type": "event"
    },
    {
      "anonymous": false,
      "inputs": [
        {
          "indexed": false,
          "internalType": "uint256",
          "name": "numTokens",
          "type": "uint256"
        },
        {
          "indexed": true,
          "internalType": "address",
          "name": "voter",
          "type": "address"
        }
      ],
      "name": "_StakeAllocated",
      "type": "event"
    },
    {
      "anonymous": false,
      "inputs": [
        {
          "indexed": true,
          "internalType": "uint256",
          "name": "DataID",
          "type": "uint256"
        },
        {
          "indexed": true,
          "internalType": "address",
          "name": "voter",
          "type": "address"
        }
      ],
      "name": "_TokensRescued",
      "type": "event"
    },
    {
      "anonymous": false,
      "inputs": [
        {
          "indexed": false,
          "internalType": "uint256",
          "name": "numTokens",
          "type": "uint256"
        },
        {
          "indexed": true,
          "internalType": "address",
          "name": "voter",
          "type": "address"
        }
      ],
      "name": "_VotingRightsWithdrawn",
      "type": "event"
    },
    {
      "anonymous": false,
      "inputs": [
        {
          "indexed": true,
          "internalType": "uint256",
          "name": "batchID",
          "type": "uint256"
        },
        {
          "indexed": false,
          "internalType": "address",
          "name": "worker",
          "type": "address"
        }
      ],
      "name": "_WorkAllocated",
      "type": "event"
    },
    {
      "anonymous": false,
      "inputs": [
        {
          "indexed": true,
          "internalType": "address",
          "name": "worker",
          "type": "address"
        },
        {
          "indexed": false,
          "internalType": "uint256",
          "name": "timestamp",
          "type": "uint256"
        }
      ],
      "name": "_WorkerRegistered",
      "type": "event"
    },
    {
      "anonymous": false,
      "inputs": [
        {
          "indexed": true,
          "internalType": "address",
          "name": "worker",
          "type": "address"
        },
        {
          "indexed": false,
          "internalType": "uint256",
          "name": "timestamp",
          "type": "uint256"
        }
      ],
      "name": "_WorkerUnregistered",
      "type": "event"
    },
    {
      "inputs": [],
      "name": "AcceptedBatchsCounter",
      "outputs": [
        {
          "internalType": "uint128",
          "name": "",
          "type": "uint128"
        }
      ],
      "stateMutability": "view",
      "type": "function"
    },
    {
      "inputs": [],
      "name": "AllItemCounter",
      "outputs": [
        {
          "internalType": "uint256",
          "name": "",
          "type": "uint256"
        }
      ],
      "stateMutability": "view",
      "type": "function"
    },
    {
      "inputs": [],
      "name": "AllTxsCounter",
      "outputs": [
        {
          "internalType": "uint256",
          "name": "",
          "type": "uint256"
        }
      ],
      "stateMutability": "view",
      "type": "function"
    },
    {
      "inputs": [
        {
          "internalType": "uint256",
          "name": "",
          "type": "uint256"
        }
      ],
      "name": "AllWorkersList",
      "outputs": [
        {
          "internalType": "address",
          "name": "",
          "type": "address"
        }
      ],
      "stateMutability": "view",
      "type": "function"
    },
    {
      "inputs": [],
      "name": "AllocatedBatchCursor",
      "outputs": [
        {
          "internalType": "uint128",
          "name": "",
          "type": "uint128"
        }
      ],
      "stateMutability": "view",
      "type": "function"
    },
    {
      "inputs": [],
      "name": "AmIKicked",
      "outputs": [
        {
          "internalType": "bool",
          "name": "status",
          "type": "bool"
        }
      ],
      "stateMutability": "view",
      "type": "function"
    },
    {
      "inputs": [],
      "name": "AmIRegistered",
      "outputs": [
        {
          "internalType": "bool",
          "name": "passed",
          "type": "bool"
        }
      ],
      "stateMutability": "view",
      "type": "function"
    },
    {
      "inputs": [
        {
          "internalType": "string",
          "name": "_a",
          "type": "string"
        },
        {
          "internalType": "string",
          "name": "_b",
          "type": "string"
        }
      ],
      "name": "AreStringsEqual",
      "outputs": [
        {
          "internalType": "bool",
          "name": "",
          "type": "bool"
        }
      ],
      "stateMutability": "pure",
      "type": "function"
    },
    {
      "inputs": [],
      "name": "BatchCheckingCursor",
      "outputs": [
        {
          "internalType": "uint128",
          "name": "",
          "type": "uint128"
        }
      ],
      "stateMutability": "view",
      "type": "function"
    },
    {
      "inputs": [
        {
          "internalType": "uint128",
          "name": "",
          "type": "uint128"
        }
      ],
      "name": "BatchCommitedVoteCount",
      "outputs": [
        {
          "internalType": "uint16",
          "name": "",
          "type": "uint16"
        }
      ],
      "stateMutability": "view",
      "type": "function"
    },
    {
      "inputs": [],
      "name": "BatchDeletionCursor",
      "outputs": [
        {
          "internalType": "uint128",
          "name": "",
          "type": "uint128"
        }
      ],
      "stateMutability": "view",
      "type": "function"
    },
    {
      "inputs": [
        {
          "internalType": "uint128",
          "name": "",
          "type": "uint128"
        }
      ],
      "name": "BatchRevealedVoteCount",
      "outputs": [
        {
          "internalType": "uint16",
          "name": "",
          "type": "uint16"
        }
      ],
      "stateMutability": "view",
      "type": "function"
    },
    {
      "inputs": [],
      "name": "BytesUsed",
      "outputs": [
        {
          "internalType": "uint256",
          "name": "",
          "type": "uint256"
        }
      ],
      "stateMutability": "view",
      "type": "function"
    },
    {
      "inputs": [
        {
          "internalType": "uint128",
          "name": "",
          "type": "uint128"
        }
      ],
      "name": "DataBatch",
      "outputs": [
        {
          "internalType": "uint128",
          "name": "start_idx",
          "type": "uint128"
        },
        {
          "internalType": "uint32",
          "name": "counter",
          "type": "uint32"
        },
        {
          "internalType": "uint32",
          "name": "item_count",
          "type": "uint32"
        },
        {
          "internalType": "uint16",
          "name": "uncommited_workers",
          "type": "uint16"
        },
        {
          "internalType": "uint16",
          "name": "unrevealed_workers",
          "type": "uint16"
        },
        {
          "internalType": "bool",
          "name": "complete",
          "type": "bool"
        },
        {
          "internalType": "bool",
          "name": "checked",
          "type": "bool"
        },
        {
          "internalType": "bool",
          "name": "allocated_to_work",
          "type": "bool"
        },
        {
          "internalType": "enum DataSpotting.DataStatus",
          "name": "status",
          "type": "uint8"
        },
        {
          "internalType": "uint16",
          "name": "votesFor",
          "type": "uint16"
        },
        {
          "internalType": "uint16",
          "name": "votesAgainst",
          "type": "uint16"
        },
        {
          "internalType": "uint64",
          "name": "commitEndDate",
          "type": "uint64"
        },
        {
          "internalType": "uint64",
          "name": "revealEndDate",
          "type": "uint64"
        },
        {
          "internalType": "string",
          "name": "batchIPFSfile",
          "type": "string"
        }
      ],
      "stateMutability": "view",
      "type": "function"
    },
    {
      "inputs": [
        {
          "internalType": "uint128",
          "name": "_DataBatchId",
          "type": "uint128"
        }
      ],
      "name": "DataCommitEndDate",
      "outputs": [
        {
          "internalType": "uint256",
          "name": "commitEndDate",
          "type": "uint256"
        }
      ],
      "stateMutability": "view",
      "type": "function"
    },
    {
      "inputs": [
        {
          "internalType": "uint128",
          "name": "_DataBatchId",
          "type": "uint128"
        }
      ],
      "name": "DataEnded",
      "outputs": [
        {
          "internalType": "bool",
          "name": "ended",
          "type": "bool"
        }
      ],
      "stateMutability": "view",
      "type": "function"
    },
    {
      "inputs": [
        {
          "internalType": "uint128",
          "name": "_DataBatchId",
          "type": "uint128"
        }
      ],
      "name": "DataExists",
      "outputs": [
        {
          "internalType": "bool",
          "name": "exists",
          "type": "bool"
        }
      ],
      "stateMutability": "view",
      "type": "function"
    },
    {
      "inputs": [],
      "name": "DataNonce",
      "outputs": [
        {
          "internalType": "uint128",
          "name": "",
          "type": "uint128"
        }
      ],
      "stateMutability": "view",
      "type": "function"
    },
    {
      "inputs": [
        {
          "internalType": "uint128",
          "name": "_DataBatchId",
          "type": "uint128"
        }
      ],
      "name": "DataRevealEndDate",
      "outputs": [
        {
          "internalType": "uint256",
          "name": "revealEndDate",
          "type": "uint256"
        }
      ],
      "stateMutability": "view",
      "type": "function"
    },
    {
      "inputs": [],
      "name": "FORCE_VALIDATE_BATCH_FILE",
      "outputs": [
        {
          "internalType": "bool",
          "name": "",
          "type": "bool"
        }
      ],
      "stateMutability": "view",
      "type": "function"
    },
    {
      "inputs": [
        {
          "internalType": "address",
          "name": "user_",
          "type": "address"
        }
      ],
      "name": "GetCurrentWork",
      "outputs": [
        {
          "internalType": "uint256",
          "name": "",
          "type": "uint256"
        }
      ],
      "stateMutability": "view",
      "type": "function"
    },
    {
      "inputs": [
        {
          "internalType": "uint256",
          "name": "",
          "type": "uint256"
        }
      ],
      "name": "GlobalSpotFlowManager",
      "outputs": [
        {
          "internalType": "uint128",
          "name": "timestamp",
          "type": "uint128"
        },
        {
          "internalType": "uint128",
          "name": "counter",
          "type": "uint128"
        }
      ],
      "stateMutability": "view",
      "type": "function"
    },
    {
      "inputs": [],
      "name": "InstantRevealRewards",
      "outputs": [
        {
          "internalType": "bool",
          "name": "",
          "type": "bool"
        }
      ],
      "stateMutability": "view",
      "type": "function"
    },
    {
      "inputs": [],
      "name": "InstantRevealRewardsDivider",
      "outputs": [
        {
          "internalType": "uint16",
          "name": "",
          "type": "uint16"
        }
      ],
      "stateMutability": "view",
      "type": "function"
    },
    {
      "inputs": [],
      "name": "InstantSpotRewards",
      "outputs": [
        {
          "internalType": "bool",
          "name": "",
          "type": "bool"
        }
      ],
      "stateMutability": "view",
      "type": "function"
    },
    {
      "inputs": [],
      "name": "InstantSpotRewardsDivider",
      "outputs": [
        {
          "internalType": "uint16",
          "name": "",
          "type": "uint16"
        }
      ],
      "stateMutability": "view",
      "type": "function"
    },
    {
      "inputs": [
        {
          "internalType": "address",
          "name": "user_",
          "type": "address"
        }
      ],
      "name": "IsAddressKicked",
      "outputs": [
        {
          "internalType": "bool",
          "name": "status",
          "type": "bool"
        }
      ],
      "stateMutability": "view",
      "type": "function"
    },
    {
      "inputs": [
        {
          "internalType": "address",
          "name": "_worker",
          "type": "address"
        }
      ],
      "name": "IsInLogoffList",
      "outputs": [
        {
          "internalType": "bool",
          "name": "",
          "type": "bool"
        }
      ],
      "stateMutability": "view",
      "type": "function"
    },
    {
      "inputs": [
        {
          "internalType": "address",
          "name": "user_",
          "type": "address"
        }
      ],
      "name": "IsNewWorkAvailable",
      "outputs": [
        {
          "internalType": "bool",
          "name": "",
          "type": "bool"
        }
      ],
      "stateMutability": "view",
      "type": "function"
    },
    {
      "inputs": [
        {
          "internalType": "uint256",
          "name": "",
          "type": "uint256"
        }
      ],
      "name": "ItemFlowManager",
      "outputs": [
        {
          "internalType": "uint128",
          "name": "timestamp",
          "type": "uint128"
        },
        {
          "internalType": "uint128",
          "name": "counter",
          "type": "uint128"
        }
      ],
      "stateMutability": "view",
      "type": "function"
    },
    {
      "inputs": [],
      "name": "LastAllocationTime",
      "outputs": [
        {
          "internalType": "uint64",
          "name": "",
          "type": "uint64"
        }
      ],
      "stateMutability": "view",
      "type": "function"
    },
    {
      "inputs": [],
      "name": "LastBatchCounter",
      "outputs": [
        {
          "internalType": "uint128",
          "name": "",
          "type": "uint128"
        }
      ],
      "stateMutability": "view",
      "type": "function"
    },
    {
      "inputs": [],
      "name": "LastRandomSeed",
      "outputs": [
        {
          "internalType": "uint256",
          "name": "",
          "type": "uint256"
        }
      ],
      "stateMutability": "view",
      "type": "function"
    },
    {
      "inputs": [],
      "name": "MaxPendingDataBatchCount",
      "outputs": [
        {
          "internalType": "uint16",
          "name": "",
          "type": "uint16"
        }
      ],
      "stateMutability": "view",
      "type": "function"
    },
    {
      "inputs": [],
      "name": "MaximumBytesTarget",
      "outputs": [
        {
          "internalType": "uint256",
          "name": "",
          "type": "uint256"
        }
      ],
      "stateMutability": "view",
      "type": "function"
    },
    {
      "inputs": [],
      "name": "NotCommitedCounter",
      "outputs": [
        {
          "internalType": "uint128",
          "name": "",
          "type": "uint128"
        }
      ],
      "stateMutability": "view",
      "type": "function"
    },
    {
      "inputs": [],
      "name": "NotRevealedCounter",
      "outputs": [
        {
          "internalType": "uint128",
          "name": "",
          "type": "uint128"
        }
      ],
      "stateMutability": "view",
      "type": "function"
    },
    {
      "inputs": [],
      "name": "Parameters",
      "outputs": [
        {
          "internalType": "contract IParametersManager",
          "name": "",
          "type": "address"
        }
      ],
      "stateMutability": "view",
      "type": "function"
    },
    {
      "inputs": [],
      "name": "RegisterWorker",
      "outputs": [],
      "stateMutability": "nonpayable",
      "type": "function"
    },
    {
      "inputs": [],
      "name": "RejectedBatchsCounter",
      "outputs": [
        {
          "internalType": "uint128",
          "name": "",
          "type": "uint128"
        }
      ],
      "stateMutability": "view",
      "type": "function"
    },
    {
      "inputs": [],
      "name": "SPOT_FILE_SIZE",
      "outputs": [
        {
          "internalType": "uint16",
          "name": "",
          "type": "uint16"
        }
      ],
      "stateMutability": "view",
      "type": "function"
    },
    {
      "inputs": [],
      "name": "STAKING_REQUIREMENT_TOGGLE_ENABLED",
      "outputs": [
        {
          "internalType": "bool",
          "name": "",
          "type": "bool"
        }
      ],
      "stateMutability": "view",
      "type": "function"
    },
    {
      "inputs": [
        {
          "internalType": "address",
          "name": "_worker",
          "type": "address"
        },
        {
          "internalType": "uint256",
          "name": "_TokensAmountToAllocate",
          "type": "uint256"
        }
      ],
      "name": "SelectAddressForUser",
      "outputs": [
        {
          "internalType": "address",
          "name": "",
          "type": "address"
        }
      ],
      "stateMutability": "view",
      "type": "function"
    },
    {
      "inputs": [
        {
          "internalType": "string[]",
          "name": "file_hashs_",
          "type": "string[]"
        },
        {
          "internalType": "string[]",
          "name": "URL_domains_",
          "type": "string[]"
        },
        {
          "internalType": "uint64[]",
          "name": "item_counts_",
          "type": "uint64[]"
        },
        {
          "internalType": "string",
          "name": "extra_",
          "type": "string"
        }
      ],
      "name": "SpotData",
      "outputs": [
        {
          "internalType": "uint256",
          "name": "Dataid_",
          "type": "uint256"
        }
      ],
      "stateMutability": "nonpayable",
      "type": "function"
    },
    {
      "inputs": [
        {
          "internalType": "uint128",
          "name": "",
          "type": "uint128"
        }
      ],
      "name": "SpotsMapping",
      "outputs": [
        {
          "internalType": "uint64",
          "name": "timestamp",
          "type": "uint64"
        },
        {
          "internalType": "uint64",
          "name": "item_count",
          "type": "uint64"
        },
        {
          "internalType": "enum DataSpotting.DataStatus",
          "name": "status",
          "type": "uint8"
        },
        {
          "internalType": "string",
          "name": "extra",
          "type": "string"
        },
        {
          "internalType": "address",
          "name": "author",
          "type": "address"
        },
        {
          "internalType": "string",
          "name": "ipfs_hash",
          "type": "string"
        },
        {
          "internalType": "string",
          "name": "URL_domain",
          "type": "string"
        }
      ],
      "stateMutability": "view",
      "type": "function"
    },
    {
      "inputs": [
        {
          "internalType": "address",
          "name": "",
          "type": "address"
        }
      ],
      "name": "SystemStakedTokenBalance",
      "outputs": [
        {
          "internalType": "uint256",
          "name": "",
          "type": "uint256"
        }
      ],
      "stateMutability": "view",
      "type": "function"
    },
    {
      "inputs": [],
      "name": "TRIGGER_WITH_SPOTDATA_TOGGLE_ENABLED",
      "outputs": [
        {
          "internalType": "bool",
          "name": "",
          "type": "bool"
        }
      ],
      "stateMutability": "view",
      "type": "function"
    },
    {
      "inputs": [
        {
          "internalType": "uint128",
          "name": "iteration_count",
          "type": "uint128"
        }
      ],
      "name": "TriggerAllocations",
      "outputs": [],
      "stateMutability": "nonpayable",
      "type": "function"
    },
    {
      "inputs": [
        {
          "internalType": "uint128",
          "name": "iteration_count",
          "type": "uint128"
        }
      ],
      "name": "TriggerDeletion",
      "outputs": [],
      "stateMutability": "nonpayable",
      "type": "function"
    },
    {
      "inputs": [
        {
          "internalType": "uint128",
          "name": "iteration_count",
          "type": "uint128"
        }
      ],
      "name": "TriggerUpdate",
      "outputs": [],
      "stateMutability": "nonpayable",
      "type": "function"
    },
    {
      "inputs": [
        {
          "internalType": "uint128",
          "name": "iteration_count",
          "type": "uint128"
        }
      ],
      "name": "TriggerValidation",
      "outputs": [],
      "stateMutability": "nonpayable",
      "type": "function"
    },
    {
      "inputs": [],
      "name": "UnregisterWorker",
      "outputs": [],
      "stateMutability": "nonpayable",
      "type": "function"
    },
    {
      "inputs": [
        {
          "internalType": "uint128",
          "name": "",
          "type": "uint128"
        },
        {
          "internalType": "address",
          "name": "",
          "type": "address"
        }
      ],
      "name": "UserVoteSubmission",
      "outputs": [
        {
          "internalType": "bool",
          "name": "commited",
          "type": "bool"
        },
        {
          "internalType": "bool",
          "name": "revealed",
          "type": "bool"
        },
        {
          "internalType": "uint8",
          "name": "vote",
          "type": "uint8"
        },
        {
          "internalType": "uint32",
          "name": "batchCount",
          "type": "uint32"
        },
        {
          "internalType": "string",
          "name": "newFile",
          "type": "string"
        },
        {
          "internalType": "string",
          "name": "batchFrom",
          "type": "string"
        }
      ],
      "stateMutability": "view",
      "type": "function"
    },
    {
      "inputs": [],
      "name": "VALIDATE_ON_LAST_REVEAL",
      "outputs": [
        {
          "internalType": "bool",
          "name": "",
          "type": "bool"
        }
      ],
      "stateMutability": "view",
      "type": "function"
    },
    {
      "inputs": [
        {
          "internalType": "uint128",
          "name": "",
          "type": "uint128"
        },
        {
          "internalType": "uint256",
          "name": "",
          "type": "uint256"
        }
      ],
      "name": "WorkersPerBatch",
      "outputs": [
        {
          "internalType": "address",
          "name": "",
          "type": "address"
        }
      ],
      "stateMutability": "view",
      "type": "function"
    },
    {
      "inputs": [
        {
          "internalType": "address",
          "name": "",
          "type": "address"
        },
        {
          "internalType": "uint256",
          "name": "",
          "type": "uint256"
        }
      ],
      "name": "WorkersSpotFlowManager",
      "outputs": [
        {
          "internalType": "uint128",
          "name": "timestamp",
          "type": "uint128"
        },
        {
          "internalType": "uint128",
          "name": "counter",
          "type": "uint128"
        }
      ],
      "stateMutability": "view",
      "type": "function"
    },
    {
      "inputs": [
        {
          "internalType": "address",
          "name": "",
          "type": "address"
        }
      ],
      "name": "WorkersState",
      "outputs": [
        {
          "internalType": "uint128",
          "name": "allocated_work_batch",
          "type": "uint128"
        },
        {
          "internalType": "uint64",
          "name": "last_interaction_date",
          "type": "uint64"
        },
        {
          "internalType": "uint16",
          "name": "succeeding_novote_count",
          "type": "uint16"
        },
        {
          "internalType": "bool",
          "name": "registered",
          "type": "bool"
        },
        {
          "internalType": "bool",
          "name": "unregistration_request",
          "type": "bool"
        },
        {
          "internalType": "bool",
          "name": "isWorkerSeen",
          "type": "bool"
        },
        {
          "internalType": "uint64",
          "name": "registration_date",
          "type": "uint64"
        },
        {
          "internalType": "uint64",
          "name": "allocated_batch_counter",
          "type": "uint64"
        },
        {
          "internalType": "uint64",
          "name": "majority_counter",
          "type": "uint64"
        },
        {
          "internalType": "uint64",
          "name": "minority_counter",
          "type": "uint64"
        }
      ],
      "stateMutability": "view",
      "type": "function"
    },
    {
      "inputs": [
        {
          "internalType": "address",
          "name": "",
          "type": "address"
        }
      ],
      "name": "WorkersStatus",
      "outputs": [
        {
          "internalType": "bool",
          "name": "isAvailableWorker",
          "type": "bool"
        },
        {
          "internalType": "bool",
          "name": "isBusyWorker",
          "type": "bool"
        },
        {
          "internalType": "bool",
          "name": "isToUnregisterWorker",
          "type": "bool"
        },
        {
          "internalType": "uint32",
          "name": "availableWorkersIndex",
          "type": "uint32"
        },
        {
          "internalType": "uint32",
          "name": "busyWorkersIndex",
          "type": "uint32"
        },
        {
          "internalType": "uint32",
          "name": "toUnregisterWorkersIndex",
          "type": "uint32"
        }
      ],
      "stateMutability": "view",
      "type": "function"
    },
    {
      "inputs": [
        {
          "internalType": "uint128",
          "name": "startIdx",
          "type": "uint128"
        },
        {
          "internalType": "uint128",
          "name": "iteration_count",
          "type": "uint128"
        }
      ],
      "name": "adminDataDelete",
      "outputs": [],
      "stateMutability": "nonpayable",
      "type": "function"
    },
    {
      "inputs": [
        {
          "internalType": "address",
          "name": "user_",
          "type": "address"
        },
        {
          "internalType": "uint128",
          "name": "_DataBatchId",
          "type": "uint128"
        }
      ],
      "name": "attrUUID",
      "outputs": [
        {
          "internalType": "bytes32",
          "name": "UUID",
          "type": "bytes32"
        }
      ],
      "stateMutability": "pure",
      "type": "function"
    },
    {
      "inputs": [
        {
          "internalType": "uint256",
          "name": "",
          "type": "uint256"
        }
      ],
      "name": "availableWorkers",
      "outputs": [
        {
          "internalType": "address",
          "name": "",
          "type": "address"
        }
      ],
      "stateMutability": "view",
      "type": "function"
    },
    {
      "inputs": [
        {
          "internalType": "uint256",
          "name": "",
          "type": "uint256"
        }
      ],
      "name": "busyWorkers",
      "outputs": [
        {
          "internalType": "address",
          "name": "",
          "type": "address"
        }
      ],
      "stateMutability": "view",
      "type": "function"
    },
    {
      "inputs": [
        {
          "internalType": "uint128",
          "name": "_DataBatchId",
          "type": "uint128"
        }
      ],
      "name": "commitPeriodActive",
      "outputs": [
        {
          "internalType": "bool",
          "name": "active",
          "type": "bool"
        }
      ],
      "stateMutability": "view",
      "type": "function"
    },
    {
      "inputs": [
        {
          "internalType": "uint128",
          "name": "_DataBatchId",
          "type": "uint128"
        }
      ],
      "name": "commitPeriodOver",
      "outputs": [
        {
          "internalType": "bool",
          "name": "active",
          "type": "bool"
        }
      ],
      "stateMutability": "view",
      "type": "function"
    },
    {
      "inputs": [
        {
          "internalType": "uint128",
          "name": "_DataBatchId",
          "type": "uint128"
        },
        {
          "internalType": "bytes32",
          "name": "_encryptedHash",
          "type": "bytes32"
        },
        {
          "internalType": "bytes32",
          "name": "_encryptedVote",
          "type": "bytes32"
        },
        {
          "internalType": "uint32",
          "name": "_BatchCount",
          "type": "uint32"
        },
        {
          "internalType": "string",
          "name": "_From",
          "type": "string"
        }
      ],
      "name": "commitSpotCheck",
      "outputs": [],
      "stateMutability": "nonpayable",
      "type": "function"
    },
    {
      "inputs": [],
      "name": "deleteAvailableWorkersArray",
      "outputs": [],
      "stateMutability": "nonpayable",
      "type": "function"
    },
    {
      "inputs": [
        {
          "internalType": "uint256[]",
          "name": "indices_",
          "type": "uint256[]"
        }
      ],
      "name": "deleteManyWorkersAtIndex",
      "outputs": [],
      "stateMutability": "nonpayable",
      "type": "function"
    },
    {
      "inputs": [
        {
          "internalType": "address[]",
          "name": "users_",
          "type": "address[]"
        }
      ],
      "name": "deleteManyWorkersState",
      "outputs": [],
      "stateMutability": "nonpayable",
      "type": "function"
    },
    {
      "inputs": [
        {
          "internalType": "address[]",
          "name": "users_",
          "type": "address[]"
        }
      ],
      "name": "deleteManyWorkersStatus",
      "outputs": [],
      "stateMutability": "nonpayable",
      "type": "function"
    },
    {
      "inputs": [
        {
          "internalType": "uint128",
          "name": "spotIndexA",
          "type": "uint128"
        },
        {
          "internalType": "uint128",
          "name": "spotIndexB",
          "type": "uint128"
        }
      ],
      "name": "deleteSpotData",
      "outputs": [],
      "stateMutability": "nonpayable",
      "type": "function"
    },
    {
      "inputs": [
        {
          "internalType": "uint256",
          "name": "index_",
          "type": "uint256"
        }
      ],
      "name": "deleteWorkersAtIndex",
      "outputs": [],
      "stateMutability": "nonpayable",
      "type": "function"
    },
    {
      "inputs": [
        {
          "internalType": "address",
          "name": "user_",
          "type": "address"
        }
      ],
      "name": "deleteWorkersState",
      "outputs": [],
      "stateMutability": "nonpayable",
      "type": "function"
    },
    {
      "inputs": [
        {
          "internalType": "address",
          "name": "user_",
          "type": "address"
        }
      ],
      "name": "deleteWorkersStatus",
      "outputs": [],
      "stateMutability": "nonpayable",
      "type": "function"
    },
    {
      "inputs": [
        {
          "internalType": "uint128",
          "name": "batchToDeleteIndex",
          "type": "uint128"
        }
      ],
      "name": "deleteWorkersSubmission",
      "outputs": [],
      "stateMutability": "nonpayable",
      "type": "function"
    },
    {
      "inputs": [
        {
          "internalType": "address",
          "name": "_voter",
          "type": "address"
        },
        {
          "internalType": "uint128",
          "name": "_DataBatchId",
          "type": "uint128"
        }
      ],
      "name": "didCommit",
      "outputs": [
        {
          "internalType": "bool",
          "name": "committed",
          "type": "bool"
        }
      ],
      "stateMutability": "view",
      "type": "function"
    },
    {
      "inputs": [
        {
          "internalType": "address",
          "name": "_voter",
          "type": "address"
        },
        {
          "internalType": "uint128",
          "name": "_DataBatchId",
          "type": "uint128"
        }
      ],
      "name": "didReveal",
      "outputs": [
        {
          "internalType": "bool",
          "name": "revealed",
          "type": "bool"
        }
      ],
      "stateMutability": "view",
      "type": "function"
    },
    {
      "inputs": [
        {
          "internalType": "uint256",
          "name": "_k",
          "type": "uint256"
        },
        {
          "internalType": "uint256",
          "name": "N_range",
          "type": "uint256"
        }
      ],
      "name": "generateIntegers",
      "outputs": [
        {
          "internalType": "uint256[]",
          "name": "",
          "type": "uint256[]"
        }
      ],
      "stateMutability": "view",
      "type": "function"
    },
    {
      "inputs": [],
      "name": "getAcceptedBatchesCount",
      "outputs": [
        {
          "internalType": "uint128",
          "name": "count",
          "type": "uint128"
        }
      ],
      "stateMutability": "view",
      "type": "function"
    },
    {
      "inputs": [],
      "name": "getActiveWorkersCount",
      "outputs": [
        {
          "internalType": "uint256",
          "name": "numWorkers",
          "type": "uint256"
        }
      ],
      "stateMutability": "view",
      "type": "function"
    },
    {
      "inputs": [
        {
          "internalType": "uint256",
          "name": "A_",
          "type": "uint256"
        },
        {
          "internalType": "uint256",
          "name": "B_",
          "type": "uint256"
        }
      ],
      "name": "getAllWorkersBetweenIndex",
      "outputs": [
        {
          "internalType": "address[]",
          "name": "workers",
          "type": "address[]"
        }
      ],
      "stateMutability": "view",
      "type": "function"
    },
    {
      "inputs": [],
      "name": "getAllWorkersLength",
      "outputs": [
        {
          "internalType": "uint256",
          "name": "length",
          "type": "uint256"
        }
      ],
      "stateMutability": "view",
      "type": "function"
    },
    {
      "inputs": [
        {
          "internalType": "bytes32",
          "name": "_UUID",
          "type": "bytes32"
        },
        {
          "internalType": "string",
          "name": "_attrName",
          "type": "string"
        }
      ],
      "name": "getAttribute",
      "outputs": [
        {
          "internalType": "uint256",
          "name": "",
          "type": "uint256"
        }
      ],
      "stateMutability": "view",
      "type": "function"
    },
    {
      "inputs": [],
      "name": "getAvailableWorkersCount",
      "outputs": [
        {
          "internalType": "uint256",
          "name": "numWorkers",
          "type": "uint256"
        }
      ],
      "stateMutability": "view",
      "type": "function"
    },
    {
      "inputs": [
        {
          "internalType": "uint128",
          "name": "_DataBatchId",
          "type": "uint128"
        }
      ],
      "name": "getBatchByID",
      "outputs": [
        {
          "components": [
            {
              "internalType": "uint128",
              "name": "start_idx",
              "type": "uint128"
            },
            {
              "internalType": "uint32",
              "name": "counter",
              "type": "uint32"
            },
            {
              "internalType": "uint32",
              "name": "item_count",
              "type": "uint32"
            },
            {
              "internalType": "uint16",
              "name": "uncommited_workers",
              "type": "uint16"
            },
            {
              "internalType": "uint16",
              "name": "unrevealed_workers",
              "type": "uint16"
            },
            {
              "internalType": "bool",
              "name": "complete",
              "type": "bool"
            },
            {
              "internalType": "bool",
              "name": "checked",
              "type": "bool"
            },
            {
              "internalType": "bool",
              "name": "allocated_to_work",
              "type": "bool"
            },
            {
              "internalType": "enum DataSpotting.DataStatus",
              "name": "status",
              "type": "uint8"
            },
            {
              "internalType": "uint16",
              "name": "votesFor",
              "type": "uint16"
            },
            {
              "internalType": "uint16",
              "name": "votesAgainst",
              "type": "uint16"
            },
            {
              "internalType": "uint64",
              "name": "commitEndDate",
              "type": "uint64"
            },
            {
              "internalType": "uint64",
              "name": "revealEndDate",
              "type": "uint64"
            },
            {
              "internalType": "string",
              "name": "batchIPFSfile",
              "type": "string"
            }
          ],
          "internalType": "struct DataSpotting.BatchMetadata",
          "name": "batch",
          "type": "tuple"
        }
      ],
      "stateMutability": "view",
      "type": "function"
    },
    {
      "inputs": [
        {
          "internalType": "uint128",
          "name": "_DataBatchId_a",
          "type": "uint128"
        },
        {
          "internalType": "uint128",
          "name": "_DataBatchId_b",
          "type": "uint128"
        }
      ],
      "name": "getBatchCountForBatch",
      "outputs": [
        {
          "internalType": "uint128",
          "name": "AverageURLCount",
          "type": "uint128"
        },
        {
          "internalType": "uint128[]",
          "name": "batchCounts",
          "type": "uint128[]"
        }
      ],
      "stateMutability": "view",
      "type": "function"
    },
    {
      "inputs": [
        {
          "internalType": "uint128",
          "name": "_DataBatchId",
          "type": "uint128"
        }
      ],
      "name": "getBatchIPFSFileByID",
      "outputs": [
        {
          "internalType": "string",
          "name": "batch",
          "type": "string"
        }
      ],
      "stateMutability": "view",
      "type": "function"
    },
    {
      "inputs": [
        {
          "internalType": "uint128",
          "name": "_DataBatchId_a",
          "type": "uint128"
        },
        {
          "internalType": "uint128",
          "name": "_DataBatchId_b",
          "type": "uint128"
        }
      ],
      "name": "getBatchsFilesByID",
      "outputs": [
        {
          "internalType": "string[]",
          "name": "",
          "type": "string[]"
        }
      ],
      "stateMutability": "view",
      "type": "function"
    },
    {
      "inputs": [],
      "name": "getBusyWorkersCount",
      "outputs": [
        {
          "internalType": "uint256",
          "name": "numWorkers",
          "type": "uint256"
        }
      ],
      "stateMutability": "view",
      "type": "function"
    },
    {
      "inputs": [],
      "name": "getBytesUsed",
      "outputs": [
        {
          "internalType": "uint256",
          "name": "storage_size",
          "type": "uint256"
        }
      ],
      "stateMutability": "view",
      "type": "function"
    },
    {
      "inputs": [
        {
          "internalType": "address",
          "name": "_voter",
          "type": "address"
        },
        {
          "internalType": "uint128",
          "name": "_DataBatchId",
          "type": "uint128"
        }
      ],
      "name": "getCommitIPFSHash",
      "outputs": [
        {
          "internalType": "bytes32",
          "name": "commitHash",
          "type": "bytes32"
        }
      ],
      "stateMutability": "view",
      "type": "function"
    },
    {
      "inputs": [
        {
          "internalType": "address",
          "name": "_voter",
          "type": "address"
        },
        {
          "internalType": "uint128",
          "name": "_DataBatchId",
          "type": "uint128"
        }
      ],
      "name": "getCommitVoteHash",
      "outputs": [
        {
          "internalType": "bytes32",
          "name": "commitHash",
          "type": "bytes32"
        }
      ],
      "stateMutability": "view",
      "type": "function"
    },
    {
      "inputs": [
        {
          "internalType": "uint128",
          "name": "_DataId",
          "type": "uint128"
        }
      ],
      "name": "getDataByID",
      "outputs": [
        {
          "components": [
            {
              "internalType": "uint64",
              "name": "timestamp",
              "type": "uint64"
            },
            {
              "internalType": "uint64",
              "name": "item_count",
              "type": "uint64"
            },
            {
              "internalType": "enum DataSpotting.DataStatus",
              "name": "status",
              "type": "uint8"
            },
            {
              "internalType": "string",
              "name": "extra",
              "type": "string"
            },
            {
              "internalType": "address",
              "name": "author",
              "type": "address"
            },
            {
              "internalType": "string",
              "name": "ipfs_hash",
              "type": "string"
            },
            {
              "internalType": "string",
              "name": "URL_domain",
              "type": "string"
            }
          ],
          "internalType": "struct DataSpotting.SpottedData",
          "name": "data",
          "type": "tuple"
        }
      ],
      "stateMutability": "view",
      "type": "function"
    },
    {
      "inputs": [
        {
          "internalType": "uint128",
          "name": "_DataBatchId",
          "type": "uint128"
        }
      ],
      "name": "getDomainsForBatch",
      "outputs": [
        {
          "internalType": "string[]",
          "name": "",
          "type": "string[]"
        }
      ],
      "stateMutability": "view",
      "type": "function"
    },
    {
      "inputs": [
        {
          "internalType": "uint256",
          "name": "_clearVote",
          "type": "uint256"
        },
        {
          "internalType": "uint256",
          "name": "_salt",
          "type": "uint256"
        }
      ],
      "name": "getEncryptedHash",
      "outputs": [
        {
          "internalType": "bytes32",
          "name": "keccak256hash",
          "type": "bytes32"
        }
      ],
      "stateMutability": "pure",
      "type": "function"
    },
    {
      "inputs": [
        {
          "internalType": "string",
          "name": "_hash",
          "type": "string"
        },
        {
          "internalType": "uint256",
          "name": "_salt",
          "type": "uint256"
        }
      ],
      "name": "getEncryptedStringHash",
      "outputs": [
        {
          "internalType": "bytes32",
          "name": "keccak256hash",
          "type": "bytes32"
        }
      ],
      "stateMutability": "pure",
      "type": "function"
    },
    {
      "inputs": [
        {
          "internalType": "uint128",
          "name": "_DataBatchId",
          "type": "uint128"
        }
      ],
      "name": "getFromsForBatch",
      "outputs": [
        {
          "internalType": "string[]",
          "name": "",
          "type": "string[]"
        }
      ],
      "stateMutability": "view",
      "type": "function"
    },
    {
      "inputs": [],
      "name": "getGlobalPeriodSpotCount",
      "outputs": [
        {
          "internalType": "uint256",
          "name": "",
          "type": "uint256"
        }
      ],
      "stateMutability": "view",
      "type": "function"
    },
    {
      "inputs": [
        {
          "internalType": "uint128",
          "name": "_DataBatchId",
          "type": "uint128"
        }
      ],
      "name": "getIPFShashesForBatch",
      "outputs": [
        {
          "internalType": "string[]",
          "name": "",
          "type": "string[]"
        }
      ],
      "stateMutability": "view",
      "type": "function"
    },
    {
      "inputs": [
        {
          "internalType": "address",
          "name": "_voter",
          "type": "address"
        },
        {
          "internalType": "uint256",
          "name": "_numTokens",
          "type": "uint256"
        },
        {
          "internalType": "uint128",
          "name": "_DataBatchId",
          "type": "uint128"
        }
      ],
      "name": "getInsertPointForNumTokens",
      "outputs": [
        {
          "internalType": "uint256",
          "name": "prevNode",
          "type": "uint256"
        }
      ],
      "stateMutability": "view",
      "type": "function"
    },
    {
      "inputs": [],
      "name": "getItemCounter",
      "outputs": [
        {
          "internalType": "uint256",
          "name": "Counter",
          "type": "uint256"
        }
      ],
      "stateMutability": "view",
      "type": "function"
    },
    {
      "inputs": [],
      "name": "getLastAllocatedBatchId",
      "outputs": [
        {
          "internalType": "uint256",
          "name": "LastAllocatedBatchId",
          "type": "uint256"
        }
      ],
      "stateMutability": "view",
      "type": "function"
    },
    {
      "inputs": [],
      "name": "getLastBatchId",
      "outputs": [
        {
          "internalType": "uint256",
          "name": "LastBatchId",
          "type": "uint256"
        }
      ],
      "stateMutability": "view",
      "type": "function"
    },
    {
      "inputs": [],
      "name": "getLastCheckedBatchId",
      "outputs": [
        {
          "internalType": "uint256",
          "name": "LastCheckedBatchId",
          "type": "uint256"
        }
      ],
      "stateMutability": "view",
      "type": "function"
    },
    {
      "inputs": [],
      "name": "getLastDataId",
      "outputs": [
        {
          "internalType": "uint256",
          "name": "DataId",
          "type": "uint256"
        }
      ],
      "stateMutability": "view",
      "type": "function"
    },
    {
      "inputs": [
        {
          "internalType": "address",
          "name": "_voter",
          "type": "address"
        }
      ],
      "name": "getLastNode",
      "outputs": [
        {
          "internalType": "uint128",
          "name": "DataID",
          "type": "uint128"
        }
      ],
      "stateMutability": "view",
      "type": "function"
    },
    {
      "inputs": [
        {
          "internalType": "address",
          "name": "_voter",
          "type": "address"
        }
      ],
      "name": "getLockedTokens",
      "outputs": [
        {
          "internalType": "uint256",
          "name": "numTokens",
          "type": "uint256"
        }
      ],
      "stateMutability": "view",
      "type": "function"
    },
    {
      "inputs": [
        {
          "internalType": "uint128",
          "name": "_DataBatchId_a",
          "type": "uint128"
        },
        {
          "internalType": "uint128",
          "name": "_DataBatchId_b",
          "type": "uint128"
        }
      ],
      "name": "getMultiBatchIPFShashes",
      "outputs": [
        {
          "internalType": "string[]",
          "name": "",
          "type": "string[]"
        }
      ],
      "stateMutability": "view",
      "type": "function"
    },
    {
      "inputs": [
        {
          "internalType": "address",
          "name": "_voter",
          "type": "address"
        },
        {
          "internalType": "uint128",
          "name": "_DataBatchId",
          "type": "uint128"
        },
        {
          "internalType": "uint256",
          "name": "_salt",
          "type": "uint256"
        }
      ],
      "name": "getNumPassingTokens",
      "outputs": [
        {
          "internalType": "uint256",
          "name": "numTokens",
          "type": "uint256"
        }
      ],
      "stateMutability": "view",
      "type": "function"
    },
    {
      "inputs": [
        {
          "internalType": "address",
          "name": "_voter",
          "type": "address"
        },
        {
          "internalType": "uint128",
          "name": "_DataBatchId",
          "type": "uint128"
        }
      ],
      "name": "getNumTokens",
      "outputs": [
        {
          "internalType": "uint256",
          "name": "numTokens",
          "type": "uint256"
        }
      ],
      "stateMutability": "view",
      "type": "function"
    },
    {
      "inputs": [],
      "name": "getPeriodItemCount",
      "outputs": [
        {
          "internalType": "uint256",
          "name": "",
          "type": "uint256"
        }
      ],
      "stateMutability": "view",
      "type": "function"
    },
    {
      "inputs": [],
      "name": "getRandom",
      "outputs": [
        {
          "internalType": "uint256",
          "name": "",
          "type": "uint256"
        }
      ],
      "stateMutability": "view",
      "type": "function"
    },
    {
      "inputs": [],
      "name": "getRejectedBatchesCount",
      "outputs": [
        {
          "internalType": "uint128",
          "name": "count",
          "type": "uint128"
        }
      ],
      "stateMutability": "view",
      "type": "function"
    },
    {
      "inputs": [],
      "name": "getSeed",
      "outputs": [
        {
          "internalType": "bytes32",
          "name": "addr",
          "type": "bytes32"
        }
      ],
      "stateMutability": "view",
      "type": "function"
    },
    {
      "inputs": [
        {
          "internalType": "uint128",
          "name": "_DataBatchId",
          "type": "uint128"
        }
      ],
      "name": "getSubmittedFilesForBatch",
      "outputs": [
        {
          "internalType": "string[]",
          "name": "",
          "type": "string[]"
        }
      ],
      "stateMutability": "view",
      "type": "function"
    },
    {
      "inputs": [
        {
          "internalType": "address",
          "name": "user_",
          "type": "address"
        }
      ],
      "name": "getSystemTokenBalance",
      "outputs": [
        {
          "internalType": "uint256",
          "name": "tokens",
          "type": "uint256"
        }
      ],
      "stateMutability": "view",
      "type": "function"
    },
    {
      "inputs": [],
      "name": "getTxCounter",
      "outputs": [
        {
          "internalType": "uint256",
          "name": "Counter",
          "type": "uint256"
        }
      ],
      "stateMutability": "view",
      "type": "function"
    },
    {
      "inputs": [
        {
          "internalType": "address",
          "name": "user_",
          "type": "address"
        }
      ],
      "name": "getUserPeriodSpotCount",
      "outputs": [
        {
          "internalType": "uint256",
          "name": "",
          "type": "uint256"
        }
      ],
      "stateMutability": "view",
      "type": "function"
    },
    {
      "inputs": [
        {
          "internalType": "uint128",
          "name": "_DataBatchId",
          "type": "uint128"
        }
      ],
      "name": "getVotesForBatch",
      "outputs": [
        {
          "internalType": "uint128[]",
          "name": "",
          "type": "uint128[]"
        }
      ],
      "stateMutability": "view",
      "type": "function"
    },
    {
      "inputs": [
        {
          "internalType": "uint256",
          "name": "_terminationDate",
          "type": "uint256"
        }
      ],
      "name": "isExpired",
      "outputs": [
        {
          "internalType": "bool",
          "name": "expired",
          "type": "bool"
        }
      ],
      "stateMutability": "view",
      "type": "function"
    },
    {
      "inputs": [
        {
          "internalType": "address",
          "name": "_worker",
          "type": "address"
        }
      ],
      "name": "isInAvailableWorkers",
      "outputs": [
        {
          "internalType": "bool",
          "name": "",
          "type": "bool"
        }
      ],
      "stateMutability": "view",
      "type": "function"
    },
    {
      "inputs": [
        {
          "internalType": "address",
          "name": "_worker",
          "type": "address"
        }
      ],
      "name": "isInBusyWorkers",
      "outputs": [
        {
          "internalType": "bool",
          "name": "",
          "type": "bool"
        }
      ],
      "stateMutability": "view",
      "type": "function"
    },
    {
      "inputs": [
        {
          "internalType": "uint128",
          "name": "_DataBatchId",
          "type": "uint128"
        }
      ],
      "name": "isPassed",
      "outputs": [
        {
          "internalType": "bool",
          "name": "passed",
          "type": "bool"
        }
      ],
      "stateMutability": "view",
      "type": "function"
    },
    {
      "inputs": [
        {
          "internalType": "uint128",
          "name": "_DataBatchId",
          "type": "uint128"
        },
        {
          "internalType": "address",
          "name": "_worker",
          "type": "address"
        }
      ],
      "name": "isWorkerAllocatedToBatch",
      "outputs": [
        {
          "internalType": "bool",
          "name": "",
          "type": "bool"
        }
      ],
      "stateMutability": "view",
      "type": "function"
    },
    {
      "inputs": [
        {
          "internalType": "address",
          "name": "_worker",
          "type": "address"
        }
      ],
      "name": "isWorkerRegistered",
      "outputs": [
        {
          "internalType": "bool",
          "name": "passed",
          "type": "bool"
        }
      ],
      "stateMutability": "view",
      "type": "function"
    },
    {
      "inputs": [],
      "name": "owner",
      "outputs": [
        {
          "internalType": "address",
          "name": "",
          "type": "address"
        }
      ],
      "stateMutability": "view",
      "type": "function"
    },
    {
      "inputs": [],
      "name": "paused",
      "outputs": [
        {
          "internalType": "bool",
          "name": "",
          "type": "bool"
        }
      ],
      "stateMutability": "view",
      "type": "function"
    },
    {
      "inputs": [
        {
          "internalType": "uint256",
          "name": "k",
          "type": "uint256"
        },
        {
          "internalType": "uint256",
          "name": "N",
          "type": "uint256"
        }
      ],
      "name": "random_selection",
      "outputs": [
        {
          "internalType": "uint256[]",
          "name": "",
          "type": "uint256[]"
        }
      ],
      "stateMutability": "view",
      "type": "function"
    },
    {
      "inputs": [
        {
          "internalType": "uint128",
          "name": "_DataBatchId",
          "type": "uint128"
        }
      ],
      "name": "remainingCommitDuration",
      "outputs": [
        {
          "internalType": "uint256",
          "name": "remainingTime",
          "type": "uint256"
        }
      ],
      "stateMutability": "view",
      "type": "function"
    },
    {
      "inputs": [
        {
          "internalType": "uint128",
          "name": "_DataBatchId",
          "type": "uint128"
        }
      ],
      "name": "remainingRevealDuration",
      "outputs": [
        {
          "internalType": "uint256",
          "name": "remainingTime",
          "type": "uint256"
        }
      ],
      "stateMutability": "view",
      "type": "function"
    },
    {
      "inputs": [],
      "name": "renounceOwnership",
      "outputs": [],
      "stateMutability": "nonpayable",
      "type": "function"
    },
    {
      "inputs": [
        {
          "internalType": "uint128",
          "name": "_DataBatchId",
          "type": "uint128"
        }
      ],
      "name": "rescueTokens",
      "outputs": [],
      "stateMutability": "nonpayable",
      "type": "function"
    },
    {
      "inputs": [
        {
          "internalType": "uint128[]",
          "name": "_DataBatchIDs",
          "type": "uint128[]"
        }
      ],
      "name": "rescueTokensInMultipleDatas",
      "outputs": [],
      "stateMutability": "nonpayable",
      "type": "function"
    },
    {
      "inputs": [
        {
          "internalType": "uint128",
          "name": "_DataBatchId",
          "type": "uint128"
        }
      ],
      "name": "revealPeriodActive",
      "outputs": [
        {
          "internalType": "bool",
          "name": "active",
          "type": "bool"
        }
      ],
      "stateMutability": "view",
      "type": "function"
    },
    {
      "inputs": [
        {
          "internalType": "uint128",
          "name": "_DataBatchId",
          "type": "uint128"
        }
      ],
      "name": "revealPeriodOver",
      "outputs": [
        {
          "internalType": "bool",
          "name": "active",
          "type": "bool"
        }
      ],
      "stateMutability": "view",
      "type": "function"
    },
    {
      "inputs": [
        {
          "internalType": "uint64",
          "name": "_DataBatchId",
          "type": "uint64"
        },
        {
          "internalType": "string",
          "name": "_clearIPFSHash",
          "type": "string"
        },
        {
          "internalType": "uint8",
          "name": "_clearVote",
          "type": "uint8"
        },
        {
          "internalType": "uint256",
          "name": "_salt",
          "type": "uint256"
        }
      ],
      "name": "revealSpotCheck",
      "outputs": [],
      "stateMutability": "nonpayable",
      "type": "function"
    },
    {
      "inputs": [
        {
          "internalType": "uint256",
          "name": "",
          "type": "uint256"
        }
      ],
      "name": "toUnregisterWorkers",
      "outputs": [
        {
          "internalType": "address",
          "name": "",
          "type": "address"
        }
      ],
      "stateMutability": "view",
      "type": "function"
    },
    {
      "inputs": [
        {
          "internalType": "bool",
          "name": "toggle_",
          "type": "bool"
        }
      ],
      "name": "toggleForceValidateBatchFile",
      "outputs": [],
      "stateMutability": "nonpayable",
      "type": "function"
    },
    {
      "inputs": [
        {
          "internalType": "bool",
          "name": "toggle_",
          "type": "bool"
        }
      ],
      "name": "toggleRequiredStaking",
      "outputs": [],
      "stateMutability": "nonpayable",
      "type": "function"
    },
    {
      "inputs": [],
      "name": "toggleSystemPause",
      "outputs": [],
      "stateMutability": "nonpayable",
      "type": "function"
    },
    {
      "inputs": [
        {
          "internalType": "bool",
          "name": "toggle_",
          "type": "bool"
        }
      ],
      "name": "toggleTriggerSpotData",
      "outputs": [],
      "stateMutability": "nonpayable",
      "type": "function"
    },
    {
      "inputs": [
        {
          "internalType": "bool",
          "name": "toggle_",
          "type": "bool"
        }
      ],
      "name": "toggleValidateLastReveal",
      "outputs": [],
      "stateMutability": "nonpayable",
      "type": "function"
    },
    {
      "inputs": [],
      "name": "token",
      "outputs": [
        {
          "internalType": "contract IERC20",
          "name": "",
          "type": "address"
        }
      ],
      "stateMutability": "view",
      "type": "function"
    },
    {
      "inputs": [
        {
          "internalType": "address",
          "name": "newOwner",
          "type": "address"
        }
      ],
      "name": "transferOwnership",
      "outputs": [],
      "stateMutability": "nonpayable",
      "type": "function"
    },
    {
      "inputs": [],
      "name": "updateGlobalSpotFlow",
      "outputs": [],
      "stateMutability": "nonpayable",
      "type": "function"
    },
    {
      "inputs": [
        {
          "internalType": "bool",
          "name": "state_",
          "type": "bool"
        },
        {
          "internalType": "uint16",
          "name": "divider_",
          "type": "uint16"
        }
      ],
      "name": "updateInstantRevealRewards",
      "outputs": [],
      "stateMutability": "nonpayable",
      "type": "function"
    },
    {
      "inputs": [
        {
          "internalType": "bool",
          "name": "state_",
          "type": "bool"
        },
        {
          "internalType": "uint16",
          "name": "divider_",
          "type": "uint16"
        }
      ],
      "name": "updateInstantSpotRewards",
      "outputs": [],
      "stateMutability": "nonpayable",
      "type": "function"
    },
    {
      "inputs": [],
      "name": "updateItemCount",
      "outputs": [],
      "stateMutability": "nonpayable",
      "type": "function"
    },
    {
      "inputs": [
        {
          "internalType": "uint16",
          "name": "MaxPendingDataBatchCount_",
          "type": "uint16"
        }
      ],
      "name": "updateMaxPendingDataBatch",
      "outputs": [],
      "stateMutability": "nonpayable",
      "type": "function"
    },
    {
      "inputs": [
        {
          "internalType": "uint256",
          "name": "new_limit_",
          "type": "uint256"
        }
      ],
      "name": "updateMaximumBytesTarget",
      "outputs": [],
      "stateMutability": "nonpayable",
      "type": "function"
    },
    {
      "inputs": [
        {
          "internalType": "address",
          "name": "addr",
          "type": "address"
        }
      ],
      "name": "updateParametersManager",
      "outputs": [],
      "stateMutability": "nonpayable",
      "type": "function"
    },
    {
      "inputs": [
        {
          "internalType": "uint16",
          "name": "file_size_",
          "type": "uint16"
        }
      ],
      "name": "updateSpotFileSize",
      "outputs": [],
      "stateMutability": "nonpayable",
      "type": "function"
    },
    {
      "inputs": [
        {
          "internalType": "address",
          "name": "user_",
          "type": "address"
        }
      ],
      "name": "updateUserSpotFlow",
      "outputs": [],
      "stateMutability": "nonpayable",
      "type": "function"
    },
    {
      "inputs": [
        {
          "internalType": "uint128",
          "name": "_prevID",
          "type": "uint128"
        },
        {
          "internalType": "uint128",
          "name": "_nextID",
          "type": "uint128"
        },
        {
          "internalType": "address",
          "name": "_voter",
          "type": "address"
        },
        {
          "internalType": "uint256",
          "name": "_numTokens",
          "type": "uint256"
        }
      ],
      "name": "validPosition",
      "outputs": [
        {
          "internalType": "bool",
          "name": "APPROVED",
          "type": "bool"
        }
      ],
      "stateMutability": "view",
      "type": "function"
    },
    {
      "inputs": [
        {
          "internalType": "uint256",
          "name": "_numTokens",
          "type": "uint256"
        }
      ],
      "name": "withdrawVotingRights",
      "outputs": [],
      "stateMutability": "nonpayable",
      "type": "function"
    }
  ],
  "bytecode": "0x608060405260008054600160a81b600160e81b0319168155602b805463ffffffff191663ffffffff179055600160801b60305570010000000000000000000000000000000160315560016032556033819055603480546001600160801b0319169055603581905560368190556037556101946038556317d78400603955603a80546c6403e8000100030101010000006001600160701b0319909116179055348015620000aa57600080fd5b506040516200f8e73803806200f8e7833981016040819052620000cd916200016f565b620000d8336200011f565b6000805460ff60a01b191690556001600160a01b038116620000f957600080fd5b603b80546001600160a01b0319166001600160a01b0392909216919091179055620001a1565b600080546001600160a01b038381166001600160a01b0319831681178455604051919092169283917f8be0079c531659141344cd1fd0a4f28419497f9722a3daafe3b4186f6b6457e09190a35050565b6000602082840312156200018257600080fd5b81516001600160a01b03811681146200019a57600080fd5b9392505050565b61f73680620001b16000396000f3fe608060405234801561001057600080fd5b50600436106108ae5760003560e01c80637f30c9b31161046e578063b926a9fe11610257578063e0b8bfeb11610151578063f4cdfcc4116100ce578063fc0c546a11610092578063fc0c546a14611655578063fca4956314611668578063fcbe89c91461167b578063fd08c3571461169b578063ff43de9d146116ae57600080fd5b8063f4cdfcc414611602578063f5ae7c7d14611615578063f716596d1461161d578063f80a23fd14611625578063f96305f01461164457600080fd5b8063e9a12fd711610115578063e9a12fd714611599578063eb1322ff146115b9578063ef4fcdad146115cc578063f2d9e74d146115e6578063f2fde38b146115ef57600080fd5b8063e0b8bfeb1461151e578063e23fcd1a14611531578063e59d028914611546578063e798a7da14611553578063e7b1d43c1461158657600080fd5b8063cd56aa81116101df578063d3ea8899116101a3578063d3ea8899146114b8578063d58f575c146114cb578063d6b0206c146114e5578063d9548e53146114f8578063de1faf771461150b57600080fd5b8063cd56aa811461143a578063cdf46a781461144d578063d0b28e7d14611460578063d0d41def14611473578063d2737905146114a557600080fd5b8063bf9fe16111610226578063bf9fe161146113e1578063c46f17d0146113f4578063c854d9951461140c578063c884ec9f1461141f578063cb2793891461143257600080fd5b8063b926a9fe14611395578063bbc35b31146113a8578063bc848295146113bb578063bda1e609146113ce57600080fd5b80639d6e3f9611610368578063ade7e65a116102f0578063b1d7ea98116102b4578063b1d7ea9814611334578063b4676b9714611354578063b5485f6214611367578063b61568721461136f578063b8f011b31461138257600080fd5b8063ade7e65a146112c8578063ae4c3877146112e8578063b10aa584146112fb578063b1a2e0be1461130e578063b1cf4a7e1461132157600080fd5b8063a23226d411610337578063a23226d414611276578063a350715a14611289578063a511dba01461129c578063a9057790146112ad578063aacc5a17146112c057600080fd5b80639d6e3f961461121e5780639f53805214611231578063a1563cc314611255578063a1b6b5b71461125e57600080fd5b80638bf8a338116103f6578063955122ef116103ba578063955122ef146111b857806396964b1e146111cb5780639769d846146111de5780639a1cbfd3146111f85780639c867cf41461120b57600080fd5b80638bf8a338146110665780638c89d027146110795780638cb4756d146111725780638ccb7eec1461117b5780638da5cb5b146111a757600080fd5b80638356443a1161043d5780638356443a146110115780638473850b146110245780638480a221146110375780638746ff8a146110405780638820f5b41461105357600080fd5b80637f30c9b314610fce5780637f9510a214610fee578063815ce74714610ff6578063821aa8c014610ffe57600080fd5b80633f7e62f31161069b5780635c975abb116105955780637074222b11610512578063794cd05a116104d6578063794cd05a14610f5e5780637960d1ca14610f7157806379dd459714610f955780637ad2f09514610fa85780637ae3d59b14610fbb57600080fd5b80637074222b14610efd578063715018a614610f2657806375b7536c14610f2e578063763a39f214610f4357806378b3decb14610f4b57600080fd5b806369d0433b1161055957806369d0433b14610eb457806369fef28314610ebc5780636b2d95d414610ec45780636b4a901b14610ed75780636cfaeff414610eea57600080fd5b80635c975abb14610e61578063607d5efa14610e73578063628516ae14610e7b5780636554a37514610e8e5780636917def314610ea157600080fd5b80634a45cd841161062357806353bf27f1116105e757806353bf27f114610e0d57806355adf7bf14610e15578063576a554314610e2857806359da7baf14610e3b5780635b0bca7714610e4e57600080fd5b80634a45cd8414610d915780634edad84414610dc25780634ffd734314610dd55780635102183314610de9578063515535e814610dfc57600080fd5b806345e8450e1161066a57806345e8450e14610d3057806345feae8914610d4357806347fe2d2014610d575780634852e2f014610d6f57806349ad1d0514610d8957600080fd5b80633f7e62f314610ccf578063413b90f714610cf7578063427fa1d214610d0a57806342ed24ed14610d1d57600080fd5b80632dbfca6a116107ac5780633465a7881161073457806339e7357c116106f857806339e7357c14610c465780633aed0be514610c4e5780633c062cc814610c805780633de4b29314610cb35780633f2a918014610cbc57600080fd5b80633465a78814610be05780633538af8214610bf357806336b99f7514610c0657806337527b4d14610c2b57806338eaf56514610c3357600080fd5b806331e2f2851161077b57806331e2f28514610af15780633287d91f14610b11578063333fa62614610b2457806334522fbd14610bba578063345b0f5114610bcd57600080fd5b80632dbfca6a14610a8a5780632eaff49914610a9d5780632f66157514610ab35780632ff0312f14610ac657600080fd5b80630fe05b011161083a5780631aca6412116107fe5780631aca641214610a33578063258cc84314610a46578063275c259014610a67578063289bd48214610a6f5780632a25c7c914610a7757600080fd5b80630fe05b01146109bd578063113f10d2146109ea578063154fd39b146109fd57806316860ec514610a185780631a0a890c14610a2057600080fd5b80630e4498c2116108815780630e4498c2146109265780630e6661a7146109465780630e8790d0146109715780630f91f0b2146109845780630fb69aa7146109aa57600080fd5b806305957623146108b35780630816692c146108c8578063086eafa3146108f15780630a7c5dd014610913575b600080fd5b6108c66108c136600461e2ab565b6116c1565b005b6108db6108d636600461e2dd565b611770565b6040516108e8919061e352565b60405180910390f35b603a5461090390610100900460ff1681565b60405190151581526020016108e8565b6108c661092136600461e2dd565b611980565b61093961093436600461e3b4565b611b0f565b6040516108e8919061e3d6565b603054610959906001600160801b031681565b6040516001600160801b0390911681526020016108e8565b6108c661097f36600461e417565b611c95565b61099761099236600461e2dd565b611ca2565b6040516108e8979695949392919061e468565b6108c66109b836600461e4f4565b611e99565b6109d06109cb36600461e2dd565b611ec3565b6040516108e89e9d9c9b9a9998979695949392919061e50f565b6108c66109f836600461e5cd565b611ffd565b6032546001600160801b03165b6040519081526020016108e8565b6108c661213b565b6108c6610a2e36600461e66f565b61232f565b610a0a610a4136600461e839565b61236f565b610a59610a5436600461e5cd565b6137de565b6040516108e892919061e99f565b6108c6613af2565b610a0a613d98565b6108c6610a8536600461e2dd565b613def565b610903610a9836600461e2ab565b614098565b603a546109039065010000000000900460ff1681565b610903610ac136600461e2dd565b61428e565b610ad9610ad436600461e417565b6142e7565b6040516001600160a01b0390911681526020016108e8565b610a0a610aff36600461e2ab565b60266020526000908152604090205481565b610903610b1f36600461e2dd565b614311565b610b7c610b3236600461e2ab565b60276020526000908152604090205460ff808216916101008104821691620100008204169063ffffffff63010000008204811691600160381b8104821691600160581b9091041686565b60408051961515875294151560208701529215159385019390935263ffffffff908116606085015291821660808401521660a082015260c0016108e8565b6108c6610bc836600461e9cf565b61437e565b610903610bdb36600461e2dd565b6143c8565b6108c6610bee36600461e2dd565b614476565b610ad9610c0136600461e417565b6144a7565b610c19610c1436600461ea04565b6144b7565b6040516108e89695949392919061ea32565b603854610a0a565b610a0a610c4136600461ea89565b61461c565b610a0a61465a565b610903610c5c36600461e2ab565b6001600160a01b031660009081526027602052604090205462010000900460ff1690565b610c93610c8e36600461e417565b614677565b604080516001600160801b039384168152929091166020830152016108e8565b610a0a60375481565b610903610cca36600461e2dd565b6146a2565b603a54610ce490600160501b900461ffff1681565b60405161ffff90911681526020016108e8565b610c93610d0536600461eaa7565b61491a565b610959610d1836600461e2ab565b614953565b610a0a610d2b36600461e2dd565b6149f9565b610903610d3e36600461e2dd565b614a79565b603a5461090390600160201b900460ff1681565b603154600160801b90046001600160801b0316610a0a565b60335461095990600160801b90046001600160801b031681565b6108c6614aff565b610903610d9f36600461e2ab565b6001600160a01b0316600090815260276020526040902054610100900460ff1690565b6108c6610dd036600461e2dd565b614b2b565b603a54610903906301000000900460ff1681565b610903610df736600461e2dd565b614cac565b6031546001600160801b0316610a0a565b602c54610a0a565b610a0a610e2336600461ead3565b614cd1565b6108c6610e3636600461e2ab565b614eb5565b610c93610e4936600461e417565b6150b4565b610a0a610e5c36600461ea89565b6150c4565b600054600160a01b900460ff16610903565b6108c6615119565b610903610e8936600461eb15565b6152eb565b6108c6610e9c36600461eb66565b615335565b6108c6610eaf36600461e4f4565b615ed4565b602f54610a0a565b6108c6615efe565b610a0a610ed236600461e2ab565b615f51565b6108db610ee536600461e2dd565b615f60565b610903610ef836600461e2dd565b6162b5565b610a0a610f0b36600461e2ab565b6001600160a01b031660009081526026602052604090205490565b6108c6616328565b603a54610ce490600160601b900461ffff1681565b602d54610a0a565b610a0a610f5936600461ea89565b61633a565b6108c6610f6c36600461e2ab565b616371565b610ce4610f7f36600461e2dd565b60296020526000908152604090205461ffff1681565b610a0a610fa336600461ea89565b6163d9565b610903610fb636600461ea89565b61640f565b6108c6610fc936600461ebc3565b61646a565b610fe1610fdc36600461e2dd565b61648e565b6040516108e8919061ebe0565b610a0a616724565b610a0a61673b565b610ad961100c36600461e417565b61678c565b6108c661101f36600461ebc3565b61679c565b603154610959906001600160801b031681565b610a0a60355481565b610ad961104e36600461eaa7565b6167c2565b610a0a61106136600461e2dd565b616c2e565b610a0a61107436600461ec91565b616c84565b61110661108736600461e2ab565b602460205260009081526040902080546001909101546001600160801b038216916001600160401b03600160801b80830482169361ffff600160c01b808604919091169460ff600160d01b8204811695600160d81b8304821695600160e01b9093049091169380821693600160401b820483169382048316929104168a565b604080516001600160801b03909b168b526001600160401b03998a1660208c015261ffff909816978a01979097529415156060890152921515608088015290151560a0870152841660c0860152831660e0850152821661010084015216610120820152610140016108e8565b610a0a60395481565b61090361118936600461e2ab565b6001600160a01b031660009081526027602052604090205460ff1690565b6000546001600160a01b0316610ad9565b6108c66111c636600461e2ab565b616cc5565b6108db6111d936600461e5cd565b616d51565b60325461095990600160801b90046001600160801b031681565b6108c661120636600461ebc3565b617319565b6108db61121936600461e5cd565b61733b565b610a0a61122c36600461e2ab565b617505565b610ce461123f36600461e2dd565b602a6020526000908152604090205461ffff1681565b610a0a60385481565b603254600160801b90046001600160801b0316610959565b610a0a61128436600461e2dd565b61756b565b603354610959906001600160801b031681565b6030546001600160801b0316610a0a565b6109036112bb36600461ecd7565b6175d9565b610a0a61763f565b6112db6112d636600461e2dd565b617708565b6040516108e8919061ed30565b6109036112f636600461ea89565b6178ae565b610ad961130936600461e417565b61790e565b61090361131c36600461e2ab565b61791e565b610a0a61132f36600461e3b4565b617a2b565b61134761134236600461e3b4565b617a47565b6040516108e8919061ed43565b6108c661136236600461ed7b565b617d8d565b61090361851d565b6108c661137d36600461e2dd565b618528565b61134761139036600461e3b4565b61872f565b6108c66113a336600461edec565b618745565b6108c66113b636600461ee71565b618793565b610ad96113c936600461eeff565b6187e1565b6108c66113dc36600461ebc3565b618819565b610a0a6113ef36600461e2dd565b618834565b603a54610ce4906601000000000000900461ffff1681565b6108db61141a36600461e2dd565b61888a565b6108c661142d36600461e2dd565b618aa6565b603754610a0a565b6108c661144836600461ee71565b618b0b565b603a546109039062010000900460ff1681565b6108c661146e36600461e9cf565b618b59565b60005461148d90600160a81b90046001600160401b031681565b6040516001600160401b0390911681526020016108e8565b6108db6114b336600461e2dd565b618ba6565b6108c66114c636600461e417565b618ee9565b60305461095990600160801b90046001600160801b031681565b603254610959906001600160801b031681565b61090361150636600461e417565b421190565b61090361151936600461ea04565b618f39565b6108c661152c36600461e5cd565b619010565b603a54610ce490600160401b900461ffff1681565b603a546109039060ff1681565b61090361156136600461e2ab565b6001600160a01b0316600090815260246020526040902054600160d01b900460ff1690565b6108c661159436600461e417565b61945f565b6115ac6115a736600461e2dd565b619795565b6040516108e8919061ef1d565b603454610959906001600160801b031681565b60315461095990600160801b90046001600160801b031681565b610a0a60365481565b6108c66115fd36600461e2ab565b619854565b610a0a61161036600461ef30565b6198ca565b603654610a0a565b6108c66198df565b33600090815260246020526040902054600160d01b900460ff16610903565b6033546001600160801b0316610959565b603b54610ad9906001600160a01b031681565b610a0a61167636600461e2ab565b619ec3565b61168e61168936600461e2dd565b619fc1565b6040516108e8919061ef74565b610a0a6116a936600461f09f565b61a173565b603c54610ad9906001600160a01b031681565b6116c961a343565b6001600160a01b03811661171c5760405162461bcd60e51b815260206004820152601560248201527461646472206d757374206265206e6f6e207a65726f60581b60448201526064015b60405180910390fd5b603c80546001600160a01b0319166001600160a01b0383169081179091556040519081527f1c57c3710c0570883580d2f83ee6a873d61b5af334741eea1c0cc397899e1d029060200160405180910390a150565b606061177b82614cac565b6117975760405162461bcd60e51b81526004016117139061f0e0565b6001600160801b03821660009081526028602090815260408083208054825181850281018501909352808352919290919083018282801561180157602002820191906000526020600020905b81546001600160a01b031681526001909101906020018083116117e3575b50505050509050600081516001600160401b038111156118235761182361e606565b60405190808252806020026020018201604052801561185657816020015b60608152602001906001900390816118415790505b50905060005b8251811015611978576001600160801b0385166000908152601f6020526040812084519091908590849081106118945761189461f117565b60200260200101516001600160a01b03166001600160a01b0316815260200190815260200160002060010180546118ca9061f12d565b80601f01602080910402602001604051908101604052809291908181526020018280546118f69061f12d565b80156119435780601f1061191857610100808354040283529160200191611943565b820191906000526020600020905b81548152906001019060200180831161192657829003601f168201915b505050505082828151811061195a5761195a61f117565b602002602001018190525080806119709061f178565b91505061185c565b509392505050565b603c546001600160a01b03166119a85760405162461bcd60e51b81526004016117139061f193565b6119ba816001600160801b031661a39d565b6119c261763f565b60355414611b045760005b816001600160801b0316816001600160801b03161015611b02576032546001600160801b031660009081526022602052604081205460ff600160f01b909104161515600114801590611aa65750603c60009054906101000a90046001600160a01b03166001600160a01b031663bd40ef4c6040518163ffffffff1660e01b815260040160206040518083038186803b158015611a6857600080fd5b505afa158015611a7c573d6000803e3d6000fd5b505050506040513d601f19601f82011682018060405250810190611aa0919061f1ca565b602c5410155b8015611ad357506032546001600160801b0316600090815260226020526040902054600160e01b900460ff165b15611ae457611ae061a4e8565b5060015b80611aef5750611b02565b5080611afa8161f1dc565b9150506119cd565b505b611b0c61ae23565b50565b606082821015611b555760405162461bcd60e51b8152602060048201526011602482015270205f42206d757374206265203e3d205f4160781b6044820152606401611713565b602f54611b649060019061f203565b821115611baa5760405162461bcd60e51b815260206004820152601460248201527320425f206973206f7574206f6620626f756e647360601b6044820152606401611713565b6000611bb6848461f203565b611bc190600161f21a565b90506000816001600160401b03811115611bdd57611bdd61e606565b604051908082528060200260200182016040528015611c06578160200160208202803683370190505b50905060005b82811015611c8a57602f611c20878361f21a565b81548110611c3057611c3061f117565b9060005260206000200160009054906101000a90046001600160a01b0316828281518110611c6057611c6061f117565b6001600160a01b039092166020928302919091019091015280611c828161f178565b915050611c0c565b509150505b92915050565b611c9d61a343565b603955565b602160205260009081526040902080546001820180546001600160401b0380841694600160401b850490911693600160801b900460ff16929091611ce59061f12d565b80601f0160208091040260200160405190810160405280929190818152602001828054611d119061f12d565b8015611d5e5780601f10611d3357610100808354040283529160200191611d5e565b820191906000526020600020905b815481529060010190602001808311611d4157829003601f168201915b505050600284015460038501805494956001600160a01b03909216949193509150611d889061f12d565b80601f0160208091040260200160405190810160405280929190818152602001828054611db49061f12d565b8015611e015780601f10611dd657610100808354040283529160200191611e01565b820191906000526020600020905b815481529060010190602001808311611de457829003601f168201915b505050505090806004018054611e169061f12d565b80601f0160208091040260200160405190810160405280929190818152602001828054611e429061f12d565b8015611e8f5780601f10611e6457610100808354040283529160200191611e8f565b820191906000526020600020905b815481529060010190602001808311611e7257829003601f168201915b5050505050905087565b611ea161a343565b603a805461ffff909216600160501b0261ffff60501b19909216919091179055565b6022602052600090815260409020805460018201546002830180546001600160801b0384169463ffffffff600160801b8604811695600160a01b81049091169461ffff600160c01b8304811695600160d01b840482169560ff600160e01b8604811696600160e81b8704821696600160f01b8104831696600160f81b9091049092169482811694620100008404909116936001600160401b03600160201b8504811694600160601b900416929190611f7a9061f12d565b80601f0160208091040260200160405190810160405280929190818152602001828054611fa69061f12d565b8015611ff35780601f10611fc857610100808354040283529160200191611ff3565b820191906000526020600020905b815481529060010190602001808311611fd657829003601f168201915b505050505090508e565b61200561a343565b806001600160801b0316826001600160801b0316106120665760405162461bcd60e51b815260206004820181905260248201527f73706f74496e64657841206d757374206265203c3d2073706f74496e646578426044820152606401611713565b815b816001600160801b0316816001600160801b03161015612136576001600160801b038116600090815260216020526040812080546001600160881b0319168155906120b6600183018261e19a565b6002820180546001600160a01b03191690556120d660038301600061e19a565b6120e460048301600061e19a565b50600090506120f56020600261f232565b9050806038541061211d578060386000828254612112919061f203565b909155506121239050565b60006038555b508061212e8161f1dc565b915050612068565b505050565b603c546001600160a01b03166121635760405162461bcd60e51b81526004016117139061f193565b60006121716001600f61f203565b90506000601082600f81106121885761218861f117565b0154603c54604080516307bc663b60e11b815290516001600160801b0390931693506001600160a01b0390911691630f78cc7691600480820192602092909190829003018186803b1580156121dc57600080fd5b505afa1580156121f0573d6000803e3d6000fd5b505050506040513d601f19601f82011682018060405250810190612214919061f1ca565b612227826001600160401b03421661f203565b111561232b5760005b61223c6001600f61f203565b8110156122bc57601061225082600161f21a565b600f81106122605761226061f117565b01601082600f81106122745761227461f117565b8254910180546001600160801b0319166001600160801b0392831690811782559254600160801b908190049092169091029091179055806122b48161f178565b915050612230565b50426001600160401b0316601083600f81106122da576122da61f117565b0180546001600160801b0319166001600160801b03929092169190911790556000601083600f811061230e5761230e61f117565b0180546001600160801b03928316600160801b0292169190911790555b5050565b60005b815181101561232b5761235d8282815181106123505761235061f117565b6020026020010151613def565b806123678161f178565b915050612332565b600061237961b0ae565b603c546001600160a01b03166123a15760405162461bcd60e51b81526004016117139061f193565b603c60009054906101000a90046001600160a01b03166001600160a01b0316634e87c5a86040518163ffffffff1660e01b815260040160206040518083038186803b1580156123ef57600080fd5b505afa158015612403573d6000803e3d6000fd5b505050506040513d601f19601f82011682018060405250810190612427919061f251565b6124865760405162461bcd60e51b815260206004820152602a60248201527f53706f7474696e67206973206e6f742063757272656e746c7920656e61626c656044820152693210313c9027bbb732b960b11b6064820152608401611713565b855184146124e65760405162461bcd60e51b815260206004820152602760248201527f696e70757420617272617973206d757374206265206f662073616d65206c656e6044820152666774682028312960c81b6064820152608401611713565b82518651146125475760405162461bcd60e51b815260206004820152602760248201527f696e70757420617272617973206d757374206265206f662073616d65206c656e6044820152666774682028322960c81b6064820152608401611713565b61254f615119565b603c60009054906101000a90046001600160a01b03166001600160a01b031663b38e885e6040518163ffffffff1660e01b815260040160206040518083038186803b15801561259d57600080fd5b505afa1580156125b1573d6000803e3d6000fd5b505050506040513d601f19601f820116820180604052508101906125d5919061f1ca565b6125dd61673b565b106126495760405162461bcd60e51b815260206004820152603660248201527f476c6f62616c206c696d69743a206578636565646564206d61782064617461206044820152753832b9103437bab916103932ba393c903630ba32b91760511b6064820152608401611713565b603c54604080516001624ee91360e11b0319815290516000926001600160a01b03169163ff622dda916004808301926020929190829003018186803b15801561269157600080fd5b505afa1580156126a5573d6000803e3d6000fd5b505050506040513d601f19601f820116820180604052508101906126c9919061f1ca565b905060006126d733836167c2565b90506126e281614eb5565b603154603c54604080516317c4a13160e31b815290516001600160801b03909316926001600160a01b039092169163be25098891600480820192602092909190829003018186803b15801561273657600080fd5b505afa15801561274a573d6000803e3d6000fd5b505050506040513d601f19601f8201168201806040525081019061276e919061f1ca565b61277783617505565b10801561280f5750603c60009054906101000a90046001600160a01b03166001600160a01b031663b38e885e6040518163ffffffff1660e01b815260040160206040518083038186803b1580156127cd57600080fd5b505afa1580156127e1573d6000803e3d6000fd5b505050506040513d601f19601f82011682018060405250810190612805919061f1ca565b61280d61673b565b105b80156128485750603a54603254600160501b90910461ffff169061283c906001600160801b03168361f26e565b6001600160801b031611155b1561370e57603a5460ff16156128a9576001600160a01b0382166000908152602660205260409020548311156128a9576001600160a01b03821660009081526026602052604081205461289b908561f203565b90506128a7818461b0fb565b505b60005b8951816001600160401b0316101561370c5760008a826001600160401b0316815181106128db576128db61f117565b6020026020010151905060008a8a846001600160401b03168181106129025761290261f117565b9050602002810190612914919061f296565b8080601f01602080910402602001604051908101604052809392919081815260200183838082843760009201829052508d51949550938d93506001600160401b0388169250821090506129695761296961f117565b602002602001015190506040518060e00160405280426001600160401b03168152602001826001600160401b03168152602001600060038111156129af576129af61e430565b815260208082018c9052336040808401919091526060830187905260809092018590526030546001600160801b031660009081526021825282902083518154928501516001600160401b03908116600160401b026001600160801b031990941691161791909117808255918301519091829060ff60801b1916600160801b836003811115612a3f57612a3f61e430565b021790555060608201518051612a5f91600184019160209091019061e1d4565b5060808201516002820180546001600160a01b0319166001600160a01b0390921691909117905560a08201518051612aa191600384019160209091019061e1d4565b5060c08201518051612abd91600484019160209091019061e1d4565b50612ace915060209050600561f232565b60386000828254612adf919061f21a565b90915550506001600160801b038516600090815260226020908152604091829020603c548351634e8f956d60e11b8152935191936001600160a01b0390911692639d1f2ada92600480840193829003018186803b158015612b3f57600080fd5b505afa158015612b53573d6000803e3d6000fd5b505050506040513d601f19601f82011682018060405250810190612b77919061f1ca565b8154600160801b900463ffffffff161015612bcd5780546001908290601090612bae908490600160801b900463ffffffff1661f2dc565b92506101000a81548163ffffffff021916908363ffffffff1602179055505b603c60009054906101000a90046001600160a01b03166001600160a01b0316639d1f2ada6040518163ffffffff1660e01b815260040160206040518083038186803b158015612c1b57600080fd5b505afa158015612c2f573d6000803e3d6000fd5b505050506040513d601f19601f82011682018060405250810190612c53919061f1ca565b8154600160801b900463ffffffff1610612d0557805461ffff60e01b1916600160e01b1781556031805460019190600090612c989084906001600160801b031661f304565b82546101009290920a6001600160801b0381810219909316918316021790915560305488821660009081526022602052604090208054919092166001600160801b031990911617905550612cee6010600161f21a565b60386000828254612cff919061f21a565b90915550505b603054612d1c906001600160801b0316600161f304565b603080546001600160801b0319166001600160801b0392909216919091179055600180612d4a81600f61f203565b600f8110612d5a57612d5a61f117565b018054601090612d7b908490600160801b90046001600160801b031661f304565b82546001600160801b039182166101009390930a9283029190920219909116179055506001600160a01b0387166000908152602560205260409020600181612dc482600f61f203565b600f8110612dd457612dd461f117565b018054601090612df5908490600160801b90046001600160801b031661f304565b92506101000a8154816001600160801b0302191690836001600160801b03160217905550603a60049054906101000a900460ff16156132fa57603c5460408051632a49798160e11b8152905133926000926001600160a01b0390911691635492f30291600480820192602092909190829003018186803b158015612e7857600080fd5b505afa158015612e8c573d6000803e3d6000fd5b505050506040513d601f19601f82011682018060405250810190612eb0919061f326565b90506000603c60009054906101000a90046001600160a01b03166001600160a01b0316630855d1516040518163ffffffff1660e01b815260040160206040518083038186803b158015612f0257600080fd5b505afa158015612f16573d6000803e3d6000fd5b505050506040513d601f19601f82011682018060405250810190612f3a919061f326565b90506000603c60009054906101000a90046001600160a01b03166001600160a01b03166304e76c8f6040518163ffffffff1660e01b815260040160206040518083038186803b158015612f8c57600080fd5b505afa158015612fa0573d6000803e3d6000fd5b505050506040513d601f19601f82011682018060405250810190612fc4919061f326565b6040516308c0a84360e11b81526001600160a01b03868116600483015291925060009185169063118150869060240160206040518083038186803b15801561300b57600080fd5b505afa15801561301f573d6000803e3d6000fd5b505050506040513d601f19601f82011682018060405250810190613043919061f326565b90506000603a60069054906101000a900461ffff1661ffff16603c60009054906101000a90046001600160a01b03166001600160a01b03166330c0bb796040518163ffffffff1660e01b815260040160206040518083038186803b1580156130aa57600080fd5b505afa1580156130be573d6000803e3d6000fd5b505050506040513d601f19601f820116820180604052508101906130e2919061f1ca565b6130ed90606461f232565b6130f7919061f359565b90506000603a60069054906101000a900461ffff1661ffff16603c60009054906101000a90046001600160a01b03166001600160a01b031663abb10b9b6040518163ffffffff1660e01b815260040160206040518083038186803b15801561315e57600080fd5b505afa158015613172573d6000803e3d6000fd5b505050506040513d601f19601f82011682018060405250810190613196919061f1ca565b6131a190606461f232565b6131ab919061f359565b604051630db6cc8560e11b8152600481018290526001600160a01b0385811660248301526000604483015291925090861690631b6d990a90606401602060405180830381600087803b15801561320057600080fd5b505af1158015613214573d6000803e3d6000fd5b505050506040513d601f19601f82011682018060405250810190613238919061f251565b6132545760405162461bcd60e51b81526004016117139061f36d565b604051633832942560e21b8152600481018390526001600160a01b03848116602483015285169063e0ca509490604401602060405180830381600087803b15801561329e57600080fd5b505af11580156132b2573d6000803e3d6000fd5b505050506040513d601f19601f820116820180604052508101906132d6919061f251565b6132f25760405162461bcd60e51b81526004016117139061f3bb565b505050505050505b603a54610100900460ff16156136a2576133146001618aa6565b603c5460408051637b39b17f60e11b815290516000926001600160a01b03169163f67362fe916004808301926020929190829003018186803b15801561335957600080fd5b505afa15801561336d573d6000803e3d6000fd5b505050506040513d601f19601f82011682018060405250810190613391919061f326565b604051633d18199160e11b8152600160048201529091506001600160a01b03821690637a30332290602401600060405180830381600087803b1580156133d657600080fd5b505af19250505080156133e7575060015b613442573d808015613415576040519150601f19603f3d011682016040523d82523d6000602084013e61341a565b606091505b5060008051602061f6e183398151915281604051613438919061ef1d565b60405180910390a1505b603c5460408051637a0ec25b60e01b815290516000926001600160a01b031691637a0ec25b916004808301926020929190829003018186803b15801561348757600080fd5b505afa15801561349b573d6000803e3d6000fd5b505050506040513d601f19601f820116820180604052508101906134bf919061f326565b604051633d18199160e11b8152600160048201529091506001600160a01b03821690637a30332290602401600060405180830381600087803b15801561350457600080fd5b505af1925050508015613515575060015b613570573d808015613543576040519150601f19603f3d011682016040523d82523d6000602084013e613548565b606091505b5060008051602061f6e183398151915281604051613566919061ef1d565b60405180910390a1505b603c546040805163463444b760e01b815290516000926001600160a01b03169163463444b7916004808301926020929190829003018186803b1580156135b557600080fd5b505afa1580156135c9573d6000803e3d6000fd5b505050506040513d601f19601f820116820180604052508101906135ed919061f326565b604051633d18199160e11b8152600160048201529091506001600160a01b03821690637a30332290602401600060405180830381600087803b15801561363257600080fd5b505af1925050508015613643575060015b61369e573d808015613671576040519150601f19603f3d011682016040523d82523d6000602084013e613676565b606091505b5060008051602061f6e183398151915281604051613694919061ef1d565b60405180910390a1505b5050505b6030546040516001600160a01b038a16916001600160801b0316907fb819ca9ac369919119f75ec7363dd954f75bcfa75f9245647e03da413be0d582906136ec908990899061f40b565b60405180910390a3505050505080806137049061f430565b9150506128ac565b505b3360009081526024602052604090208054600160e01b900460ff1661378157602f80546001810182556000919091527fa813484aef6fb598f9f753daf162068ff39ccea4075cb95e1a30f86995b5b7ee0180546001600160a01b03191633179055805460ff60e01b1916600160e01b1781555b805467ffffffffffffffff60801b1916600160801b426001600160401b0316021781556137ac61ae23565b6001603660008282546137bf919061f21a565b90915550506030546001600160801b03169a9950505050505050505050565b600060606000846001600160801b031611801561380c5750826001600160801b0316846001600160801b0316105b6138285760405162461bcd60e51b81526004016117139061f44d565b600080613835868661f26e565b61384090600161f304565b90506000816001600160801b03166001600160401b038111156138655761386561e606565b60405190808252806020026020018201604052801561388e578160200160208202803683370190505b50905060005b826001600160801b0316816001600160801b03161015613ad55760006022816138bd8b8561f304565b6001600160801b039081168252602080830193909352604091820160002082516101c0810184528154928316815263ffffffff600160801b8404811695820195909552600160a01b83049094169284019290925261ffff600160c01b820481166060850152600160d01b820416608084015260ff600160e01b82048116151560a0850152600160e81b82048116151560c0850152600160f01b82048116151560e0850152610100840191600160f81b90041660038111156139805761398061e430565b60038111156139915761399161e430565b8152600182015461ffff80821660208401526201000082041660408301526001600160401b03600160201b820481166060840152600160601b90910416608082015260028201805460a0909201916139e89061f12d565b80601f0160208091040260200160405190810160405280929190818152602001828054613a149061f12d565b8015613a615780601f10613a3657610100808354040283529160200191613a61565b820191906000526020600020905b815481529060010190602001808311613a4457829003601f168201915b5050505050815250509050806040015163ffffffff1685613a82919061f304565b9450806040015163ffffffff1683836001600160801b031681518110613aaa57613aaa61f117565b6001600160801b03909216602092830291909101909101525080613acd8161f1dc565b915050613894565b506000613ae2838561f484565b95509093505050505b9250929050565b3360009081526024602052604090208054600160d01b900460ff16613b6e5760405162461bcd60e51b815260206004820152602c60248201527f576f726b6572206973206e6f74207265676973746572656420736f2063616e2760448201526b3a103ab73932b3b4b9ba32b960a11b6064820152608401611713565b613b7960784261f21a565b60018201546001600160401b031611613be55760405162461bcd60e51b815260206004820152602860248201527f576f726b6572206d757374207761697420736f6d652074696d6520746f20756e6044820152673932b3b4b9ba32b960c11b6064820152608401611713565b80546001600160801b031615801590613c0757508054600160d81b900460ff16155b8015613c2957503360009081526027602052604090205462010000900460ff16155b15613cc357805460ff60d81b1916600160d81b178155602e8054600181810183556000929092527f37fa166cbdbfbb1561ccd9ea985ec0218b5e68502e230525f544285b2bdf3d7e0180546001600160a01b03191633179055613c8e9060209061f232565b60386000828254613c9f919061f21a565b9091555050336000908152602760205260409020805462ff00001916620100001790555b80546001600160801b0316613d7757613cdb3361b3ba565b613ce43361b535565b613ced3361b660565b80546001600160401b0342908116600160801b0267ffffffffffffffff60801b199092169190911782553360008181526027602052604090819020805462ff000019169055835460ff60d01b191684555190917f9dadcedba048e92b943ea1c5861cee1df63a566d7f795869c004780c1c698e2b91613d6e91815260200190565b60405180910390a25b600160366000828254613d8a919061f21a565b90915550611b0c905061ae23565b600080805b600f811015613de957601081600f8110613db957613db961f117565b0154613dd590600160801b90046001600160801b03168361f21a565b915080613de18161f178565b915050613d9d565b50919050565b60016001600160801b038216600090815260226020526040902054600160f81b900460ff166003811115613e2557613e2561e430565b14613e8c5760405162461bcd60e51b815260206004820152603160248201527f676976656e204461746142617463682073686f756c6420626520415050524f5660448201527011510b08185b99081a5d081a5cc81b9bdd607a1b6064820152608401611713565b3360009081526023602052604090819020905163071dc0ab60e51b815260048101919091526001600160801b038216602482015273__$85afbab79b2b776d70bef879a32ed56424$__9063e3b815609060440160206040518083038186803b158015613ef757600080fd5b505af4158015613f0b573d6000803e3d6000fd5b505050506040513d601f19601f82011682018060405250810190613f2f919061f251565b613fa15760405162461bcd60e51b815260206004820152603960248201527f646c6c4d61703a20646f6573206e6f7420636f696e7461696e205f446174614260448201527f61746368496420666f7220746865206d73672073656e646572000000000000006064820152608401611713565b336000908152602360205260409081902090516325923c7560e11b815260048101919091526001600160801b038216602482015273__$85afbab79b2b776d70bef879a32ed56424$__90634b2478ea9060440160006040518083038186803b15801561400c57600080fd5b505af4158015614020573d6000803e3d6000fd5b505050506000601090508060385410614050578060386000828254614045919061f203565b909155506140569050565b60006038555b61405e61ae23565b60405133906001600160801b038416907f402507661c8c8cb90e0a796450b8bdd28b6c516f05279c0cd29e84c344e1699a90600090a35050565b6001600160a01b03818116600090815260246020908152604080832081516101408101835281546001600160801b0381168252600160801b8082046001600160401b0390811684880152600160c01b80840461ffff1685880152600160d01b840460ff90811615156060870152600160d81b8504811615156080870152600160e01b909404909316151560a085015260019094015480851660c0850152600160401b8104851660e0850152908104841661010084015204909116610120820152603c548251634fda48fb60e11b81529251949586959294911692639fb491f69260048083019392829003018186803b15801561419357600080fd5b505afa1580156141a7573d6000803e3d6000fd5b505050506040513d601f19601f820116820180604052508101906141cb919061f1ca565b816040015161ffff161015801561427d5750603c60009054906101000a90046001600160a01b03166001600160a01b0316630f1f0ffe6040518163ffffffff1660e01b815260040160206040518083038186803b15801561422b57600080fd5b505afa15801561423f573d6000803e3d6000fd5b505050506040513d601f19601f82011682018060405250810190614263919061f1ca565b60c082015161427b906001600160401b03164261f203565b105b1561428757600191505b5092915050565b600061429982614cac565b6142a557506000919050565b6001600160801b038216600090815260226020526040902060010154600160201b90046001600160401b0316421180611c8f5750611c8f82614311565b919050565b602f81815481106142f757600080fd5b6000918252602090912001546001600160a01b0316905081565b600061431c82614cac565b6143385760405162461bcd60e51b81526004016117139061f0e0565b6001600160801b038216600090815260226020526040902060010154600160601b90046001600160401b03164211158015611c8f575061437782614a79565b1592915050565b61438661a343565b603a805467ffff00ff000000001916600160201b9315159390930267ffff000000000000191692909217660100000000000061ffff9290921691909102179055565b60006143d382614cac565b6144115760405162461bcd60e51b815260206004820152600f60248201526e11185d18481b5d5cdd08195e1a5cdd608a1b6044820152606401611713565b6001600160801b038216600090815260226020526040902060010154600160601b90046001600160401b0316421180611c8f575061444e8261428e565b8015611c8f5750506001600160801b031660009081526029602052604090205461ffff161590565b603c546001600160a01b031661449e5760405162461bcd60e51b81526004016117139061f193565b611b048161b791565b602c81815481106142f757600080fd5b601f6020908152600092835260408084209091529082529020805460018201805460ff80841694610100850482169462010000810490921693630100000090920463ffffffff169290919061450b9061f12d565b80601f01602080910402602001604051908101604052809291908181526020018280546145379061f12d565b80156145845780601f1061455957610100808354040283529160200191614584565b820191906000526020600020905b81548152906001019060200180831161456757829003601f168201915b5050505050908060020180546145999061f12d565b80601f01602080910402602001604051908101604052809291908181526020018280546145c59061f12d565b80156146125780601f106145e757610100808354040283529160200191614612565b820191906000526020600020905b8154815290600101906020018083116145f557829003601f168201915b5050505050905086565b600061465361462b84846150c4565b6040518060400160405280600a815260200169636f6d6d6974566f746560b01b815250616c84565b9392505050565b60405160009080602081848060185afa61467057fe5b5051919050565b600181600f811061468757600080fd5b01546001600160801b038082169250600160801b9091041682565b6001600160801b03808216600090815260226020908152604080832081516101c0810183528154958616815263ffffffff600160801b8704811694820194909452600160a01b86049093169183019190915261ffff600160c01b850481166060840152600160d01b850416608083015260ff600160e01b85048116151560a0840152600160e81b85048116151560c0840152600160f01b85048116151560e084015292938493610100840191600160f81b90041660038111156147675761476761e430565b60038111156147785761477861e430565b8152600182015461ffff80821660208401526201000082041660408301526001600160401b03600160201b820481166060840152600160601b90910416608082015260028201805460a0909201916147cf9061f12d565b80601f01602080910402602001604051908101604052809291908181526020018280546147fb9061f12d565b80156148485780601f1061481d57610100808354040283529160200191614848565b820191906000526020600020905b81548152906001019060200180831161482b57829003601f168201915b5050505050815250509050806101400151816101200151614869919061f4aa565b61ffff16603c60009054906101000a90046001600160a01b03166001600160a01b031663ea19733c6040518163ffffffff1660e01b815260040160206040518083038186803b1580156148bb57600080fd5b505afa1580156148cf573d6000803e3d6000fd5b505050506040513d601f19601f820116820180604052508101906148f3919061f1ca565b6148fd919061f232565b61012082015161490e90606461f4c7565b61ffff16119392505050565b602560205281600052604060002081600f811061493657600080fd5b01546001600160801b038082169350600160801b90910416905082565b6001600160a01b03811660009081526023602052604080822090516001627446cf60e11b0319815260048101919091526024810182905273__$85afbab79b2b776d70bef879a32ed56424$__9063ff1772629060440160206040518083038186803b1580156149c157600080fd5b505af41580156149d5573d6000803e3d6000fd5b505050506040513d601f19601f82011682018060405250810190611c8f919061f4f1565b6000614a0482614cac565b614a205760405162461bcd60e51b81526004016117139061f0e0565b6000614a2b83614a79565b15614a6a576001600160801b038316600090815260226020526040902060010154614a67904290600160201b90046001600160401b031661f50e565b90505b6001600160401b031692915050565b6000614a8482614cac565b614aa05760405162461bcd60e51b81526004016117139061f0e0565b6001600160801b038216600090815260226020526040902060010154600160201b90046001600160401b03164211158015611c8f5750506001600160801b0316600090815260226020526040902054600160c01b900461ffff16151590565b614b0761a343565b600054600160a01b900460ff1615614b2357614b2161bd01565b565b614b2161bd56565b603c546001600160a01b0316614b535760405162461bcd60e51b81526004016117139061f193565b603154600160801b90046001600160801b031660005b826001600160801b0316816001600160801b03161015612136576000614b8f828461f304565b6001600160801b038116600090815260226020526040902054909150600160f01b900460ff168015614bf15750614bc5816143c8565b80614bf157506001600160801b038116600090815260226020526040902054600160d01b900461ffff16155b15614c99576001600160801b038116600090815260226020526040902054600160e81b900460ff16614c2657614c268161bd99565b603154614c4490600160801b90046001600160801b0316600161f304565b6001600160801b0316816001600160801b03161415614c9957603154614c7b90600160801b90046001600160801b0316600161f304565b603180546001600160801b03928316600160801b0292169190911790555b5080614ca48161f1dc565b915050614b69565b6001600160801b0316600090815260226020526040902054600160e01b900460ff1690565b600080614cdd85614953565b90506000614ceb86836163d9565b90505b6001600160801b03821615614ea357614d0786836163d9565b9050848111614ded57836001600160801b0316826001600160801b03161415614ddc576001600160a01b0386166000908152602360205260409081902090516001627446cf60e11b0319815260048101919091526001600160801b038316602482015273__$85afbab79b2b776d70bef879a32ed56424$__9063ff1772629060440160206040518083038186803b158015614da157600080fd5b505af4158015614db5573d6000803e3d6000fd5b505050506040513d601f19601f82011682018060405250810190614dd9919061f4f1565b91505b506001600160801b03169050614653565b6001600160a01b0386166000908152602360205260409081902090516001627446cf60e11b0319815260048101919091526001600160801b038316602482015273__$85afbab79b2b776d70bef879a32ed56424$__9063ff1772629060440160206040518083038186803b158015614e6457600080fd5b505af4158015614e78573d6000803e3d6000fd5b505050506040513d601f19601f82011682018060405250810190614e9c919061f4f1565b9150614cee565b506001600160801b0316949350505050565b603c546001600160a01b0316614edd5760405162461bcd60e51b81526004016117139061f193565b6001600160a01b038116600090815260256020526040812090614f026001600f61f203565b905060008282600f8110614f1857614f1861f117565b0154603c54604080516307bc663b60e11b815290516001600160801b0390931693506001600160a01b0390911691630f78cc7691600480820192602092909190829003018186803b158015614f6c57600080fd5b505afa158015614f80573d6000803e3d6000fd5b505050506040513d601f19601f82011682018060405250810190614fa4919061f1ca565b614fae824261f203565b11156150ae5760005b614fc36001600f61f203565b8110156150415783614fd682600161f21a565b600f8110614fe657614fe661f117565b018482600f8110614ff957614ff961f117565b8254910180546001600160801b0319166001600160801b0392831690811782559254600160801b908190049092169091029091179055806150398161f178565b915050614fb7565b50426001600160401b03168383600f811061505e5761505e61f117565b0180546001600160801b0319166001600160801b039290921691909117905560008383600f81106150915761509161f117565b0180546001600160801b03928316600160801b0292169190911790555b50505050565b601081600f811061468757600080fd5b6040516bffffffffffffffffffffffff19606084901b1660208201526001600160801b0319608083901b1660348201526000906044015b60405160208183030381529060405280519060200120905092915050565b603c546001600160a01b03166151415760405162461bcd60e51b81526004016117139061f193565b600061514f6001600f61f203565b90506000600182600f81106151665761516661f117565b0154603c54604080516307bc663b60e11b815290516001600160801b0390931693506001600160a01b0390911691630f78cc7691600480820192602092909190829003018186803b1580156151ba57600080fd5b505afa1580156151ce573d6000803e3d6000fd5b505050506040513d601f19601f820116820180604052508101906151f2919061f1ca565b615205826001600160401b03421661f203565b111561232b5760005b61521a6001600f61f203565b81101561529957600161522d828261f21a565b600f811061523d5761523d61f117565b01600182600f81106152515761525161f117565b8254910180546001600160801b0319166001600160801b0392831690811782559254600160801b908190049092169091029091179055806152918161f178565b91505061520e565b50426001600160401b0316600183600f81106152b7576152b761f117565b0180546001600160801b0319166001600160801b03929092169190911790556000600183600f811061230e5761230e61f117565b6000806152f884876163d9565b8310159050600061530985876163d9565b8411158061531e57506001600160801b038616155b905081801561532a5750805b979650505050505050565b61533d61b0ae565b61534f846001600160401b0316614311565b6153aa5760405162461bcd60e51b815260206004820152602660248201527f52657665616c20706572696f64206e6f74206f70656e20666f7220746869732060448201526511185d18525160d21b6064820152608401611713565b6001600160401b0384166000908152601f6020908152604080832033845290915290205460ff166154355760405162461bcd60e51b815260206004820152602f60248201527f5573657220686173206e6f7420636f6d6d69746564206265666f72652c20746860448201526e1d5cc818d85b89dd081c995d99585b608a1b6064820152608401611713565b6001600160401b0384166000908152601f60209081526040808320338452909152902054610100900460ff16156154c35760405162461bcd60e51b815260206004820152602c60248201527f557365722068617320616c72656164792072657665616c65642c20746875732060448201526b18d85b89dd081c995d99585b60a21b6064820152608401611713565b6154d633856001600160401b031661633a565b6154e084836198ca565b146155725760405162461bcd60e51b815260206004820152605660248201527f4e6f74207468652073616d652068617368207468616e20636f6d6d697465642c60448201527f20696d706f737369626c6520746f206d61746368207769746820676976656e206064820152750bee6c2d8e8404c40bec6d8cac2e492a08ca690c2e6d60531b608482015260a401611713565b61558533856001600160401b031661461c565b6155928360ff1683617a2b565b146156205760405162461bcd60e51b815260206004820152605260248201527f4e6f74207468652073616d6520766f7465207468616e20636f6d6d697465642c60448201527f20696d706f737369626c6520746f206d61746368207769746820676976656e206064820152715f73616c742026205f636c656172566f746560701b608482015260a401611713565b60ff82166001141561567d576001600160401b0384166000908152602260205260408120600190810180549192909161565e90849061ffff1661f4aa565b92506101000a81548161ffff021916908361ffff1602179055506156cf565b6001600160401b0384166000908152602260205260409020600190810180546002906156b490849062010000900461ffff1661f4aa565b92506101000a81548161ffff021916908361ffff1602179055505b6001600160401b0384166000908152601f602090815260408083203384528252909120805461010062ffff00199091166201000060ff8716021717815584516157209260019092019186019061e1d4565b506001600160401b0384166000908152602a6020526040812080546001929061574e90849061ffff1661f4aa565b92506101000a81548161ffff021916908361ffff16021790555060206002615776919061f232565b6157826001600261f232565b61578c919061f21a565b6038600082825461579d919061f21a565b90915550503360009081526024602090815260408083206001600160401b03881684526022909252909120546157e090600190600160d01b900461ffff1661f52e565b6001600160401b038681166000908152602260205260409020805461ffff60d01b1916600160d01b61ffff949094168402179055825467ffffffffffffffff60801b1916600160801b4290921691909102178083550460ff161561588f5780546001600160801b0319168155603854600190811161587557806038600082825461586a919061f203565b9091555061587b9050565b60006038555b6158843361b535565b61588d3361dd22565b505b603a5465010000000000900460ff1615615ded57603c5460408051632a49798160e11b8152905133926000926001600160a01b0390911691635492f30291600480820192602092909190829003018186803b1580156158ed57600080fd5b505afa158015615901573d6000803e3d6000fd5b505050506040513d601f19601f82011682018060405250810190615925919061f326565b90506000603c60009054906101000a90046001600160a01b03166001600160a01b0316630855d1516040518163ffffffff1660e01b815260040160206040518083038186803b15801561597757600080fd5b505afa15801561598b573d6000803e3d6000fd5b505050506040513d601f19601f820116820180604052508101906159af919061f326565b90506000603c60009054906101000a90046001600160a01b03166001600160a01b03166304e76c8f6040518163ffffffff1660e01b815260040160206040518083038186803b158015615a0157600080fd5b505afa158015615a15573d6000803e3d6000fd5b505050506040513d601f19601f82011682018060405250810190615a39919061f326565b6040516308c0a84360e11b81526001600160a01b03868116600483015291925060009185169063118150869060240160206040518083038186803b158015615a8057600080fd5b505afa158015615a94573d6000803e3d6000fd5b505050506040513d601f19601f82011682018060405250810190615ab8919061f326565b603a54603c5460408051630b08bfd960e01b8152905193945060009361ffff600160401b8504811694600160601b900416926001600160a01b031691630b08bfd9916004808301926020929190829003018186803b158015615b1957600080fd5b505afa158015615b2d573d6000803e3d6000fd5b505050506040513d601f19601f82011682018060405250810190615b51919061f1ca565b615b5b919061f232565b615b65919061f359565b603a54603c54604080516307c06f0560e51b8152905193945060009361ffff600160401b8504811694600160601b900416926001600160a01b03169163f80de0a0916004808301926020929190829003018186803b158015615bc657600080fd5b505afa158015615bda573d6000803e3d6000fd5b505050506040513d601f19601f82011682018060405250810190615bfe919061f1ca565b615c08919061f232565b615c12919061f359565b604051630db6cc8560e11b8152600481018490526001600160a01b0385811660248301526000604483015291925090861690631b6d990a90606401602060405180830381600087803b158015615c6757600080fd5b505af1158015615c7b573d6000803e3d6000fd5b505050506040513d601f19601f82011682018060405250810190615c9f919061f251565b615d005760405162461bcd60e51b815260206004820152602c60248201527f636f756c64206e6f74207265776172642052455020696e2072657665616c537060448201526b6f74436865636b2c20312e6160a01b6064820152608401611713565b604051633832942560e21b8152600481018290526001600160a01b03848116602483015285169063e0ca509490604401602060405180830381600087803b158015615d4a57600080fd5b505af1158015615d5e573d6000803e3d6000fd5b505050506040513d601f19601f82011682018060405250810190615d82919061f251565b615de55760405162461bcd60e51b815260206004820152602e60248201527f636f756c64206e6f742072657761726420746f6b656e20696e2072657665616c60448201526d29b837ba21b432b1b5961018973160911b6064820152608401611713565b505050505050505b603a5462010000900460ff168015615e2657506001600160401b038516600090815260226020526040902054600160d01b900461ffff16155b15615e3d57615e3d856001600160401b031661bd99565b600160366000828254615e50919061f21a565b90915550615e5e905061ae23565b6001600160401b03851660008181526022602090815260409182902060010154825161ffff80831682526201000090920490911691810191909152339260ff87169290917f965f1f4937cc1062d77f76cbd2533a8147d3202573f62b9dfd5eca47c5dcfdb1910160405180910390a45050505050565b615edc61a343565b603a805461ffff909216600160601b0261ffff60601b19909216919091179055565b615f0661a343565b602c54600090615f1790602061f232565b90508060385410615f3f578060386000828254615f34919061f203565b90915550615f459050565b60006038555b611b0c602c600061e258565b6000611c8f82610fa384614953565b6060615f6b82614cac565b615f875760405162461bcd60e51b81526004016117139061f0e0565b6001600160801b03808316600090815260226020908152604080832081516101c0810183528154958616815263ffffffff600160801b8704811694820194909452600160a01b86049093169183019190915261ffff600160c01b850481166060840152600160d01b850416608083015260ff600160e01b85048116151560a0840152600160e81b85048116151560c0840152600160f01b85048116151560e0840152929391929091610100840191600160f81b90910416600381111561604f5761604f61e430565b60038111156160605761606061e430565b8152600182015461ffff80821660208401526201000082041660408301526001600160401b03600160201b820481166060840152600160601b90910416608082015260028201805460a0909201916160b79061f12d565b80601f01602080910402602001604051908101604052809291908181526020018280546160e39061f12d565b80156161305780601f1061610557610100808354040283529160200191616130565b820191906000526020600020905b81548152906001019060200180831161611357829003601f168201915b50505091909252505050602081015190915063ffffffff166000816001600160401b038111156161625761616261e606565b60405190808252806020026020018201604052801561619557816020015b60608152602001906001900390816161805790505b50905060005b826001600160801b0316816001600160801b031610156162ac5783516000906161c590839061f304565b6001600160801b0381166000908152602160205260408120600401805492935090916161f09061f12d565b80601f016020809104026020016040519081016040528092919081815260200182805461621c9061f12d565b80156162695780601f1061623e57610100808354040283529160200191616269565b820191906000526020600020905b81548152906001019060200180831161624c57829003601f168201915b505050505090508084846001600160801b03168151811061628c5761628c61f117565b6020026020010181905250505080806162a49061f1dc565b91505061619b565b50949350505050565b60006162c082614cac565b6162cc57506000919050565b6001600160801b038216600090815260226020526040902060010154600160601b90046001600160401b0316421180611c8f5750506001600160801b0316600090815260226020526040902054600160d01b900461ffff161590565b61633061a343565b614b21600061de91565b600061465361634984846150c4565b6040518060400160405280600a8152602001690c6dedadad2e890c2e6d60b31b815250616c84565b61637961a343565b6001600160a01b038116600090815260276020908152604090912080546effffffffffffffffffffffffffffff1916905560385481116163d05780603860008282546163c5919061f203565b9091555061232b9050565b60006038555050565b60006146536163e884846150c4565b604051806040016040528060098152602001686e756d546f6b656e7360b81b815250616c84565b600061641a82614cac565b6164365760405162461bcd60e51b81526004016117139061f0e0565b506001600160801b03166000908152601f602090815260408083206001600160a01b03949094168352929052205460ff1690565b61647261a343565b603a8054911515620100000262ff000019909216919091179055565b6164d76040805160e081018252600080825260208201819052909182019081526020016060815260200160006001600160a01b0316815260200160608152602001606081525090565b6001600160801b038216600090815260216020908152604091829020825160e08101845281546001600160401b038082168352600160401b8204169382019390935292909190830190600160801b900460ff16600381111561653b5761653b61e430565b600381111561654c5761654c61e430565b81526020016001820180546165609061f12d565b80601f016020809104026020016040519081016040528092919081815260200182805461658c9061f12d565b80156165d95780601f106165ae576101008083540402835291602001916165d9565b820191906000526020600020905b8154815290600101906020018083116165bc57829003601f168201915b505050918352505060028201546001600160a01b031660208201526003820180546040909201916166099061f12d565b80601f01602080910402602001604051908101604052809291908181526020018280546166359061f12d565b80156166825780601f1061665757610100808354040283529160200191616682565b820191906000526020600020905b81548152906001019060200180831161666557829003601f168201915b5050505050815260200160048201805461669b9061f12d565b80601f01602080910402602001604051908101604052809291908181526020018280546166c79061f12d565b80156167145780601f106166e957610100808354040283529160200191616714565b820191906000526020600020905b8154815290600101906020018083116166f757829003601f168201915b5050505050815250509050919050565b602d54602c546000916167369161f21a565b905090565b600080805b600f811015613de957600181600f811061675c5761675c61f117565b015461677890600160801b90046001600160801b03168361f21a565b9150806167848161f178565b915050616740565b602d81815481106142f757600080fd5b6167a461a343565b603a805491151563010000000263ff00000019909216919091179055565b603c546000906001600160a01b03166167ed5760405162461bcd60e51b81526004016117139061f193565b603c5460408051632a49798160e11b815290516000926001600160a01b031691635492f302916004808301926020929190829003018186803b15801561683257600080fd5b505afa158015616846573d6000803e3d6000fd5b505050506040513d601f19601f8201168201806040525081019061686a919061f326565b6001600160a01b031614156168915760405162461bcd60e51b81526004016117139061f549565b603c546040805163ca64f9e760e01b815290516000926001600160a01b03169163ca64f9e7916004808301926020929190829003018186803b1580156168d657600080fd5b505afa1580156168ea573d6000803e3d6000fd5b505050506040513d601f19601f8201168201806040525081019061690e919061f326565b6001600160a01b031614156169355760405162461bcd60e51b81526004016117139061f58d565b603c546040805163ca64f9e760e01b815290516000926001600160a01b03169163ca64f9e7916004808301926020929190829003018186803b15801561697a57600080fd5b505afa15801561698e573d6000803e3d6000fd5b505050506040513d601f19601f820116820180604052508101906169b2919061f326565b90506000603c60009054906101000a90046001600160a01b03166001600160a01b0316635492f3026040518163ffffffff1660e01b815260040160206040518083038186803b158015616a0457600080fd5b505afa158015616a18573d6000803e3d6000fd5b505050506040513d601f19601f82011682018060405250810190616a3c919061f326565b9050848060005b6003811015616c225760405163065ee72760e51b81526001600160a01b0383811660048301526000919087169063cbdce4e09060240160206040518083038186803b158015616a9157600080fd5b505afa158015616aa5573d6000803e3d6000fd5b505050506040513d601f19601f82011682018060405250810190616ac9919061f1ca565b6001600160a01b0384166000908152602660205260409020549091508811616af45782935050616c22565b6001600160a01b0383166000908152602660205260409020548810801590616b3357506001600160a01b03831660009081526026602052604090205415155b15616b70576001600160a01b038316600090815260266020526040812054616b5b908a61f203565b9050808210616b6e578394505050616c22565b505b878110616b805782935050616c22565b60405163792f4f6960e11b81526001600160a01b03848116600483015286169063f25e9ed29060240160206040518083038186803b158015616bc157600080fd5b505afa158015616bd5573d6000803e3d6000fd5b505050506040513d601f19601f82011682018060405250810190616bf9919061f326565b92506001600160a01b038316616c0f5750616c22565b5080616c1a8161f178565b915050616a43565b50909695505050505050565b6000616c3982614cac565b616c555760405162461bcd60e51b81526004016117139061f0e0565b506001600160801b0316600090815260226020526040902060010154600160601b90046001600160401b031690565b6000808383604051602001616c9a92919061f5cf565b60408051808303601f1901815291815281516020928301206000908152918052902054949350505050565b616ccd61a343565b6001600160a01b038116600090815260246020908152604080832080546001600160e81b031916815560010183905560259091528120616d0c9161e276565b6001600160a01b03811660009081526026602090815260408220829055616d3490602261f232565b905080603854106163d05780603860008282546163c5919061f203565b60606000836001600160801b0316118015616d7d5750816001600160801b0316836001600160801b0316105b616d995760405162461bcd60e51b81526004016117139061f44d565b6000835b616da884600161f304565b6001600160801b0316816001600160801b03161015616fa1576001600160801b03808216600090815260226020908152604080832081516101c0810183528154958616815263ffffffff600160801b8704811694820194909452600160a01b86049093169183019190915261ffff600160c01b850481166060840152600160d01b850416608083015260ff600160e01b85048116151560a0840152600160e81b85048116151560c0840152600160f01b85048116151560e0840152929391929091610100840191600160f81b909104166003811115616e8957616e8961e430565b6003811115616e9a57616e9a61e430565b8152600182015461ffff80821660208401526201000082041660408301526001600160401b03600160201b820481166060840152600160601b90910416608082015260028201805460a090920191616ef19061f12d565b80601f0160208091040260200160405190810160405280929190818152602001828054616f1d9061f12d565b8015616f6a5780601f10616f3f57610100808354040283529160200191616f6a565b820191906000526020600020905b815481529060010190602001808311616f4d57829003601f168201915b5050505050815250509050806020015163ffffffff1683616f8b919061f304565b9250508080616f999061f1dc565b915050616d9d565b506000816001600160801b03166001600160401b03811115616fc557616fc561e606565b604051908082528060200260200182016040528015616ff857816020015b6060815260200190600190039081616fe35790505b5090506000855b61700a86600161f304565b6001600160801b0316816001600160801b0316101561730e576001600160801b03808216600090815260226020908152604080832081516101c0810183528154958616815263ffffffff600160801b8704811694820194909452600160a01b86049093169183019190915261ffff600160c01b850481166060840152600160d01b850416608083015260ff600160e01b85048116151560a0840152600160e81b85048116151560c0840152600160f01b85048116151560e0840152929391929091610100840191600160f81b9091041660038111156170eb576170eb61e430565b60038111156170fc576170fc61e430565b8152600182015461ffff80821660208401526201000082041660408301526001600160401b03600160201b820481166060840152600160601b90910416608082015260028201805460a0909201916171539061f12d565b80601f016020809104026020016040519081016040528092919081815260200182805461717f9061f12d565b80156171cc5780601f106171a1576101008083540402835291602001916171cc565b820191906000526020600020905b8154815290600101906020018083116171af57829003601f168201915b505050505081525050905060005b816020015163ffffffff16816001600160801b031610156172f957815160009061720590839061f304565b6001600160801b0381166000908152602160205260408120600301805492935090916172309061f12d565b80601f016020809104026020016040519081016040528092919081815260200182805461725c9061f12d565b80156172a95780601f1061727e576101008083540402835291602001916172a9565b820191906000526020600020905b81548152906001019060200180831161728c57829003601f168201915b505050505090508087876001600160801b0316815181106172cc576172cc61f117565b60209081029190910101526172e260018761f304565b9550505080806172f19061f1dc565b9150506171da565b505080806173069061f1dc565b915050616fff565b509095945050505050565b61732161a343565b603a80549115156101000261ff0019909216919091179055565b60606000836001600160801b03161180156173675750816001600160801b0316836001600160801b0316105b6173835760405162461bcd60e51b81526004016117139061f44d565b600061738f848461f26e565b61739a90600161f304565b90506000816001600160801b03166001600160401b038111156173bf576173bf61e606565b6040519080825280602002602001820160405280156173f257816020015b60608152602001906001900390816173dd5790505b50905060005b826001600160801b0316816001600160801b03161015611c8a5760226000617420838961f304565b6001600160801b03166001600160801b03168152602001908152602001600020600201805461744e9061f12d565b80601f016020809104026020016040519081016040528092919081815260200182805461747a9061f12d565b80156174c75780601f1061749c576101008083540402835291602001916174c7565b820191906000526020600020905b8154815290600101906020018083116174aa57829003601f168201915b505050505082826001600160801b0316815181106174e7576174e761f117565b602002602001018190525080806174fd9061f1dc565b9150506173f8565b6001600160a01b038116600090815260256020526040812081805b600f811015611978578281600f811061753b5761753b61f117565b015461755790600160801b90046001600160801b03168361f21a565b9150806175638161f178565b915050617520565b600061757682614cac565b6175925760405162461bcd60e51b81526004016117139061f0e0565b600061759d83614311565b15611c8f576001600160801b038316600090815260226020526040902060010154614653904290600160601b90046001600160401b031661f203565b6000816040516020016175ec919061f5f5565b6040516020818303038152906040528051906020012083604051602001617613919061f5f5565b60405160208183030381529060405280519060200120141561763757506001611c8f565b506000611c8f565b6040516bffffffffffffffffffffffff194160601b166020820152600090819042906034016040516020818303038152906040528051906020012060001c617687919061f359565b4461769061465a565b6040516020016176a291815260200190565b60408051601f1981840301815291905280516020909101206176c4904261f21a565b6176ce919061f21a565b6176d8919061f21a565b6040516020016176ea91815260200190565b60408051601f19818403018152919052805160209091012092915050565b606061771382614cac565b61772f5760405162461bcd60e51b81526004016117139061f0e0565b6001600160801b03821660009081526028602090815260408083208054825181850281018501909352808352919290919083018282801561779957602002820191906000526020600020905b81546001600160a01b0316815260019091019060200180831161777b575b50505050509050600081516001600160401b038111156177bb576177bb61e606565b6040519080825280602002602001820160405280156177e4578160200160208202803683370190505b50905060005b8251816001600160801b03161015611978576001600160801b038086166000908152601f6020526040812085519092869190851690811061782d5761782d61f117565b60200260200101516001600160a01b03166001600160a01b0316815260200190815260200160002060000160029054906101000a900460ff1660ff1682826001600160801b0316815181106178845761788461f117565b6001600160801b0390921660209283029190910190910152806178a68161f1dc565b9150506177ea565b60006178b982614cac565b6178d55760405162461bcd60e51b81526004016117139061f0e0565b506001600160801b03166000908152601f602090815260408083206001600160a01b039490941683529290522054610100900460ff1690565b602e81815481106142f757600080fd5b6001600160a01b038116600090815260246020908152604080832081516101408101835281546001600160801b038116808352600160801b8083046001600160401b0390811697850197909752600160c01b80840461ffff1696850196909652600160d01b830460ff90811615156060860152600160d81b8404811615156080860152600160e01b909304909216151560a084015260019093015480861660c0840152600160401b8104861660e084015290810485166101008301529290920490921661012082015282916179f385826178ae565b158015617a065750617a04816143c8565b155b8015617a185750617a168161428e565b155b15617a2257600192505b50909392505050565b60408051602081018490529081018290526000906060016150fb565b6060600082118015617a595750818311155b8015617a66575060018310155b617ab25760405162461bcd60e51b815260206004820152601960248201527f6b206f72204e20617265206e6f74204f4b20666f7220524e47000000000000006044820152606401611713565b6000617abc61763f565b604051602001617ace91815260200190565b60408051601f19818403018152828252805160209182012081840152815180840382018152928201909152815191012090506000846001600160401b03811115617b1a57617b1a61e606565b604051908082528060200260200182016040528015617b43578160200160208202803683370190505b509050600080617b5460148861f21a565b905060005b81811015617c9757617b6b818061f232565b617b75908661f21a565b604051602001617b8791815260200190565b6040516020818303038152906040528051906020012060001c871115617bac57617c85565b600087617bb9838061f232565b617bc3908861f21a565b604051602001617bd591815260200190565b6040516020818303038152906040528051906020012060001c617bf8919061f611565b90506000805b85811015617c425782878281518110617c1957617c1961f117565b60200260200101511415617c305760019150617c42565b80617c3a8161f178565b915050617bfe565b5080617c745781868681518110617c5b57617c5b61f117565b6020908102919091010152617c7185600161f21a565b94505b898510617c82575050617c97565b50505b80617c8f8161f178565b915050617b59565b5086821015617d4b5760005b86811015617d4957806000805b85811015617cf45782878281518110617ccb57617ccb61f117565b60200260200101511415617ce25760019150617cf4565b80617cec8161f178565b915050617cb0565b5080617d265781868681518110617d0d57617d0d61f117565b6020908102919091010152617d2385600161f21a565b94505b898510617d34575050617d49565b50508080617d419061f178565b915050617ca3565b505b86821461730e5760405162461bcd60e51b815260206004820152601060248201526f149391c81a5b9cdd59999a58da595b9d60821b6044820152606401611713565b617d9561b0ae565b603c546001600160a01b0316617dbd5760405162461bcd60e51b81526004016117139061f193565b617dc685614a79565b617e2a5760405162461bcd60e51b815260206004820152602f60248201527f636f6d6d697420706572696f64206e6565647320746f206265206f70656e206660448201526e1bdc881d1a1a5cc818985d18da1259608a1b6064820152608401611713565b6001600160801b0385166000908152601f6020908152604080832033845290915290205460ff1615617eb05760405162461bcd60e51b815260206004820152602960248201527f557365722068617320616c726561647920636f6d6d6974656420746f207468696044820152681cc818985d18da125960ba1b6064820152608401611713565b617eba8533618f39565b617f2c5760405162461bcd60e51b815260206004820152603860248201527f55736572206e6565647320746f20626520616c6c6f636174656420746f20746860448201527f697320626174636820746f20636f6d6d6974206f6e20697400000000000000006064820152608401611713565b603c5460408051632a49798160e11b815290516000926001600160a01b031691635492f302916004808301926020929190829003018186803b158015617f7157600080fd5b505afa158015617f85573d6000803e3d6000fd5b505050506040513d601f19601f82011682018060405250810190617fa9919061f326565b6001600160a01b03161415617fd05760405162461bcd60e51b81526004016117139061f549565b603c54604080516001624ee91360e11b0319815290516000926001600160a01b03169163ff622dda916004808301926020929190829003018186803b15801561801857600080fd5b505afa15801561802c573d6000803e3d6000fd5b505050506040513d601f19601f82011682018060405250810190618050919061f1ca565b9050600061805e33836167c2565b603a5490915060ff16156180bd576001600160a01b0381166000908152602660205260409020548211156180bd576001600160a01b0381166000908152602660205260408120546180af908461f203565b90506180bb818361b0fb565b505b6000336000908152602360205260408082209051634c2f35d960e01b815260048101919091526001600160801b038316602482015273__$85afbab79b2b776d70bef879a32ed56424$__90634c2f35d99060440160206040518083038186803b15801561812957600080fd5b505af415801561813d573d6000803e3d6000fd5b505050506040513d601f19601f82011682018060405250810190618161919061f4f1565b9050886001600160801b0316816001600160801b031614156182235733600090815260236020526040908190209051634c2f35d960e01b815260048101919091526001600160801b038a16602482015273__$85afbab79b2b776d70bef879a32ed56424$__90634c2f35d99060440160206040518083038186803b1580156181e857600080fd5b505af41580156181fc573d6000803e3d6000fd5b505050506040513d601f19601f82011682018060405250810190618220919061f4f1565b90505b61822f828233876152eb565b6182725760405162461bcd60e51b81526020600482015260146024820152733737ba1030903b30b634b2103837b9b4ba34b7b760611b6044820152606401611713565b600061827e338b6150c4565b90506182ac81604051806040016040528060098152602001686e756d546f6b656e7360b81b8152508761dee1565b6182dc816040518060400160405280600a8152602001690c6dedadad2e890c2e6d60b31b8152508b60001c61dee1565b61830c816040518060400160405280600a815260200169636f6d6d6974566f746560b01b8152508a60001c61dee1565b6001600160801b038a166000908152601f602090815260408083203384528252909120805466ffffffff0000001916630100000063ffffffff8b1602178155875161835f9260029092019189019061e1d4565b506001600160801b038a16600090815260296020526040812080546001929061838d90849061ffff1661f4aa565b92506101000a81548161ffff021916908361ffff160217905550600060246000336001600160a01b03166001600160a01b0316815260200190815260200160002090506001602260008d6001600160801b03166001600160801b0316815260200190815260200160002060000160189054906101000a900461ffff16618413919061f52e565b6001600160801b038c166000908152602260209081526040808320805461ffff60c01b1916600160c01b61ffff969096169590950294909417909355835467ffffffffffffffff60801b1916600160801b426001600160401b031602178455601f81528282203383528152919020805460ff1916600117905561849790601061f21a565b603860008282546184a8919061f21a565b925050819055506001603660008282546184c2919061f21a565b909155506184d0905061ae23565b60405186815233906001600160801b038d16907f42864d9683ff5b12c3b2cc65d705af5aab104b03bc700b802f79e5c971ef08a19060200160405180910390a35050505050505050505050565b600061673633614098565b61853061a343565b6001600160801b03811660009081526028602090815260408083208054825181850281018501909352808352919290919083018282801561859a57602002820191906000526020600020905b81546001600160a01b0316815260019091019060200180831161857c575b5050505050905060005b8151816001600160801b0316101561213657600082826001600160801b0316815181106185d3576185d361f117565b6020026020010151905060006185e982866150c4565b905061861681604051806040016040528060098152602001686e756d546f6b656e7360b81b81525061df4b565b618642816040518060400160405280600a8152602001690c6dedadad2e890c2e6d60b31b81525061df4b565b61866e816040518060400160405280600a815260200169636f6d6d6974566f746560b01b81525061df4b565b6001600160801b0385166000908152601f602090815260408083206001600160a01b03861684529091528120805466ffffffffffffff19168155906186b6600183018261e19a565b6186c460028301600061e19a565b50600090506186d56020600261f232565b6186e16020600561f232565b6186eb919061f21a565b90508060385410618713578060386000828254618708919061f203565b909155506187199050565b60006038555b50505080806187279061f1dc565b9150506185a4565b6060600061873d8484617a47565b949350505050565b61874d61a343565b60005b815181101561232b57600082828151811061876d5761876d61f117565b6020026020010151905061878081618ee9565b508061878b8161f178565b915050618750565b61879b61a343565b60005b815181101561232b5760008282815181106187bb576187bb61f117565b602002602001015190506187ce81616cc5565b50806187d98161f178565b91505061879e565b602860205281600052604060002081815481106187fd57600080fd5b6000918252602090912001546001600160a01b03169150829050565b61882161a343565b603a805460ff1916911515919091179055565b600061883f82614cac565b61885b5760405162461bcd60e51b81526004016117139061f0e0565b506001600160801b0316600090815260226020526040902060010154600160201b90046001600160401b031690565b606061889582614cac565b6188b15760405162461bcd60e51b81526004016117139061f0e0565b6001600160801b03821660009081526028602090815260408083208054825181850281018501909352808352919290919083018282801561891b57602002820191906000526020600020905b81546001600160a01b031681526001909101906020018083116188fd575b50505050509050600081516001600160401b0381111561893d5761893d61e606565b60405190808252806020026020018201604052801561897057816020015b606081526020019060019003908161895b5790505b50905060005b8251816001600160801b03161015611978576001600160801b038086166000908152601f602052604081208551909286919085169081106189b9576189b961f117565b60200260200101516001600160a01b03166001600160a01b0316815260200190815260200160002060020180546189ef9061f12d565b80601f0160208091040260200160405190810160405280929190818152602001828054618a1b9061f12d565b8015618a685780601f10618a3d57610100808354040283529160200191618a68565b820191906000526020600020905b815481529060010190602001808311618a4b57829003601f168201915b505050505082826001600160801b031681518110618a8857618a8861f117565b60200260200101819052508080618a9e9061f1dc565b915050618976565b603c546001600160a01b0316618ace5760405162461bcd60e51b81526004016117139061f193565b618ad6615119565b618ade61213b565b618ae78161b791565b618af081614b2b565b618b02816001600160801b031661a39d565b611b0481611980565b618b1361a343565b60005b815181101561232b576000828281518110618b3357618b3361f117565b60200260200101519050618b4681616371565b5080618b518161f178565b915050618b16565b618b6161a343565b603a805469ffff0000ff00000000001916650100000000009315159390930269ffff0000000000000000191692909217600160401b61ffff9290921691909102179055565b6060618bb182614cac565b618bcd5760405162461bcd60e51b81526004016117139061f0e0565b6001600160801b03808316600090815260226020908152604080832081516101c0810183528154958616815263ffffffff600160801b8704811694820194909452600160a01b86049093169183019190915261ffff600160c01b850481166060840152600160d01b850416608083015260ff600160e01b85048116151560a0840152600160e81b85048116151560c0840152600160f01b85048116151560e0840152929391929091610100840191600160f81b909104166003811115618c9557618c9561e430565b6003811115618ca657618ca661e430565b8152600182015461ffff80821660208401526201000082041660408301526001600160401b03600160201b820481166060840152600160601b90910416608082015260028201805460a090920191618cfd9061f12d565b80601f0160208091040260200160405190810160405280929190818152602001828054618d299061f12d565b8015618d765780601f10618d4b57610100808354040283529160200191618d76565b820191906000526020600020905b815481529060010190602001808311618d5957829003601f168201915b50505091909252505050602081015190915063ffffffff166000816001600160401b03811115618da857618da861e606565b604051908082528060200260200182016040528015618ddb57816020015b6060815260200190600190039081618dc65790505b50905060005b82816001600160801b031610156162ac578351600090618e0290839061f304565b6001600160801b038116600090815260216020526040812060030180549293509091618e2d9061f12d565b80601f0160208091040260200160405190810160405280929190818152602001828054618e599061f12d565b8015618ea65780601f10618e7b57610100808354040283529160200191618ea6565b820191906000526020600020905b815481529060010190602001808311618e8957829003601f168201915b505050505090508084846001600160801b031681518110618ec957618ec961f117565b602002602001018190525050508080618ee19061f1dc565b915050618de1565b618ef161a343565b602f8181548110618f0457618f0461f117565b60009182526020918290200180546001600160a01b031916905560385481116163d05780603860008282546163c5919061f203565b6001600160801b0382166000908152602860209081526040808320805482518185028101850190935280835284938493929190830182828015618fa557602002820191906000526020600020905b81546001600160a01b03168152600190910190602001808311618f87575b5050505050905060005b815181101561900657846001600160a01b0316828281518110618fd457618fd461f117565b60200260200101516001600160a01b03161415618ff45760019250619006565b80618ffe8161f178565b915050618faf565b5090949350505050565b61901861a343565b6000805b826001600160801b0316816001600160801b0316101561942e576000619042828661f304565b6001600160801b038181166000908152602260205260408120549293509082169161907a90600160801b900463ffffffff168361f304565b9050815b816001600160801b0316816001600160801b03161015619127576001600160801b038116600090815260216020526040812080546001600160881b0319168155906190cc600183018261e19a565b6002820180546001600160a01b03191690556190ec60038301600061e19a565b6190fa60048301600061e19a565b5061910990506020600561f232565b619113908761f21a565b95508061911f8161f1dc565b91505061907e565b506001600160801b03831660009081526022602052604081208181556001810180546001600160a01b031916905590619163600283018261e19a565b5061917290506020600461f232565b61917c908661f21a565b6001600160801b0384166000908152602960209081526040808320805461ffff19908116909155602a9092529091208054909116905594506191c06010600261f232565b6191ca908661f21a565b6001600160801b03841660009081526028602090815260408083208054825181850281018501909352808352949950929390929183018282801561923757602002820191906000526020600020905b81546001600160a01b03168152600190910190602001808311619219575b5050505050905060005b8151816001600160801b031610156193a757600082826001600160801b0316815181106192705761927061f117565b60200260200101519050600061928682886150c4565b90506192b381604051806040016040528060098152602001686e756d546f6b656e7360b81b81525061df4b565b6192df816040518060400160405280600a8152602001690c6dedadad2e890c2e6d60b31b81525061df4b565b61930b816040518060400160405280600a815260200169636f6d6d6974566f746560b01b81525061df4b565b6001600160801b0387166000908152601f602090815260408083206001600160a01b03861684529091528120805466ffffffffffffff1916815590619353600183018261e19a565b61936160028301600061e19a565b5061937090506020600261f232565b61937c6020600561f232565b619386919061f21a565b619390908a61f21a565b98505050808061939f9061f1dc565b915050619241565b506001600160801b03841660009081526028602052604081206193c99161e258565b80516193d690602061f232565b6193e0908761f21a565b6040519096506001600160801b038516907f72c2fcc891fe835b86fc8bb9abdc52adf52499c52289b3c49e1461eabea2717590600090a25050505080806194269061f1dc565b91505061901c565b50806038541061945557806038600082825461944a919061f203565b909155506121369050565b6000603855505050565b603c546001600160a01b03166194875760405162461bcd60e51b81526004016117139061f193565b600061949333836167c2565b90506001600160a01b0381166195115760405162461bcd60e51b815260206004820152603b60248201527f4572726f723a205f73656c656374656441646472657373206973206e756c6c2060448201527f647572696e67207769746864726177566f74696e6752696768747300000000006064820152608401611713565b600061951c82615f51565b6001600160a01b03831660009081526026602052604090205461953f919061f203565b9050828110156195a15760405162461bcd60e51b815260206004820152602760248201527f617661696c61626c65546f6b656e732073686f756c64206265203e3d205f6e756044820152666d546f6b656e7360c81b6064820152608401611713565b603c546040805163ca64f9e760e01b815290516000926001600160a01b03169163ca64f9e7916004808301926020929190829003018186803b1580156195e657600080fd5b505afa1580156195fa573d6000803e3d6000fd5b505050506040513d601f19601f8201168201806040525081019061961e919061f326565b6001600160a01b03841660009081526026602052604081208054929350869290919061964b90849061f203565b9091555050604051630895993360e11b8152600481018590526001600160a01b03848116602483015282169063112b326690604401602060405180830381600087803b15801561969a57600080fd5b505af11580156196ae573d6000803e3d6000fd5b505050506040513d601f19601f820116820180604052508101906196d2919061f251565b6197445760405162461bcd60e51b815260206004820152603b60248201527f436f756c64206e6f74207769746864726177566f74696e67526967687473207460448201527f68726f7567682050726f78795374616b654465616c6c6f6361746500000000006064820152608401611713565b61974c61ae23565b826001600160a01b03167ffaeb7dbb9992397d26ea1944efd40c80b40f702faf69b46c67ad10aba68ccb798560405161978791815260200190565b60405180910390a250505050565b60606197a082614cac565b6197a957600080fd5b6001600160801b038216600090815260226020526040902060020180546197cf9061f12d565b80601f01602080910402602001604051908101604052809291908181526020018280546197fb9061f12d565b80156198485780601f1061981d57610100808354040283529160200191619848565b820191906000526020600020905b81548152906001019060200180831161982b57829003601f168201915b50505050509050919050565b61985c61a343565b6001600160a01b0381166198c15760405162461bcd60e51b815260206004820152602660248201527f4f776e61626c653a206e6577206f776e657220697320746865207a65726f206160448201526564647265737360d01b6064820152608401611713565b611b0c8161de91565b600082826040516020016150fb92919061f625565b3360009081526024602052604090208054600160e01b900460ff1661998a57602f80546001810182556000919091527fa813484aef6fb598f9f753daf162068ff39ccea4075cb95e1a30f86995b5b7ee0180546001600160a01b03191633179055805460ff60e01b1916600160e01b17815561995d600f602061f232565b6199696001602061f21a565b619973919061f21a565b60386000828254619984919061f21a565b90915550505b603c546001600160a01b03166199b25760405162461bcd60e51b81526004016117139061f193565b603c60009054906101000a90046001600160a01b03166001600160a01b03166398a54e2b6040518163ffffffff1660e01b815260040160206040518083038186803b158015619a0057600080fd5b505afa158015619a14573d6000803e3d6000fd5b505050506040513d601f19601f82011682018060405250810190619a38919061f1ca565b602d54602c54619a48919061f21a565b10619aa05760405162461bcd60e51b815260206004820152602260248201527f4d6178696d756d207265676973746572656420776f726b65727320616c726561604482015261647960f01b6064820152608401611713565b8054600160d01b900460ff1615619af95760405162461bcd60e51b815260206004820181905260248201527f576f726b657220697320616c72656164792072656769737465726564202831296044820152606401611713565b3360009081526027602052604090205460ff16158015619b2e575033600090815260276020526040902054610100900460ff16155b619b7a5760405162461bcd60e51b815260206004820181905260248201527f576f726b657220697320616c72656164792072656769737465726564202832296044820152606401611713565b603c60009054906101000a90046001600160a01b03166001600160a01b0316639fb491f66040518163ffffffff1660e01b815260040160206040518083038186803b158015619bc857600080fd5b505afa158015619bdc573d6000803e3d6000fd5b505050506040513d601f19601f82011682018060405250810190619c00919061f1ca565b8154600160c01b900461ffff1610801590619cb65750603c60009054906101000a90046001600160a01b03166001600160a01b0316630f1f0ffe6040518163ffffffff1660e01b815260040160206040518083038186803b158015619c6457600080fd5b505afa158015619c78573d6000803e3d6000fd5b505050506040513d601f19601f82011682018060405250810190619c9c919061f1ca565b6001820154619cb4906001600160401b03164261f203565b105b15619d195760405162461bcd60e51b815260206004820152602d60248201527f41646472657373206b69636b65642074656d706f726172696c792066726f6d2060448201526c3830b93a34b1b4b830ba34b7b760991b6064820152608401611713565b603a5460ff1615619e0957603c54604080516001624ee91360e11b0319815290516000926001600160a01b03169163ff622dda916004808301926020929190829003018186803b158015619d6c57600080fd5b505afa158015619d80573d6000803e3d6000fd5b505050506040513d601f19601f82011682018060405250810190619da4919061f1ca565b90506000619db233836167c2565b6001600160a01b038116600090815260266020526040902054909150821115619e06576001600160a01b038116600090815260266020526040812054619df8908461f203565b9050619e04818361b0fb565b505b50505b619e123361dd22565b80546001820180546001600160401b03421667ffffffffffffffff1990911617905563ffffffff60c01b1916600160d01b178155619e526020600261f232565b60386000828254619e63919061f21a565b92505081905550600160366000828254619e7d919061f21a565b90915550619e8b905061ae23565b60405142815233907f439d77b7534ec3108fc6143bd4fbabde0b9f2bb54f7b0730d1f70dd2135b765f9060200160405180910390a250565b6001600160a01b038116600090815260246020908152604080832081516101408101835281546001600160801b0381168083526001600160401b03600160801b80840482169785019790975261ffff600160c01b808504919091169685019690965260ff600160d01b8404811615156060860152600160d81b8404811615156080860152600160e01b909304909216151560a084015260019093015480821660c0840152600160401b8104821660e0840152948504811661010083015292909304909116610120830152619f97848261640f565b158015619fa85750619fa88161428e565b15619fb1575060005b6001600160801b03169392505050565b604080516101c08101825260008082526020820181905291810182905260608082018390526080820183905260a0820183905260c0820183905260e0820183905261010082018390526101208201839052610140820183905261016082018390526101808201929092526101a081019190915261a03d82614cac565b61a04657600080fd5b6001600160801b0380831660009081526022602090815260409182902082516101c0810184528154948516815263ffffffff600160801b8604811693820193909352600160a01b85049092169282019290925261ffff600160c01b840481166060830152600160d01b840416608082015260ff600160e01b84048116151560a0830152600160e81b84048116151560c0830152600160f01b84048116151560e08301529092610100840191600160f81b90910416600381111561a10b5761a10b61e430565b600381111561a11c5761a11c61e430565b8152600182015461ffff80821660208401526201000082041660408301526001600160401b03600160201b820481166060840152600160601b90910416608082015260028201805460a09092019161669b9061f12d565b600061a17e836143c8565b61a1dd5760405162461bcd60e51b815260206004820152602a60248201527f5f446174614261746368496420636865636b696e6720766f7465206d757374206044820152691a185d9948195b99195960b21b6064820152608401611713565b6001600160801b0383166000908152601f602090815260408083206001600160a01b0388168452909152902054610100900460ff1661a2725760405162461bcd60e51b815260206004820152602b60248201527f75736572206d75737420686176652072657665616c656420696e20746869732060448201526a0ced2eccadc4084c2e8c6d60ab1b6064820152608401611713565b600061a27d846146a2565b61a28857600061a28b565b60015b60405160f082901b60ff60f01b1660208201526022810185905260ff9091169150600090604201604051602081830303815290604052805190602001209050600061a2d6878761461c565b905080821461a3395760405162461bcd60e51b815260206004820152602960248201527f6765744e756d50617373696e67546f6b656e733a20686173686573206d75737460448201526808189948195c5d585b60ba1b6064820152608401611713565b61532a87876163d9565b6000546001600160a01b03163314614b215760405162461bcd60e51b815260206004820181905260248201527f4f776e61626c653a2063616c6c6572206973206e6f7420746865206f776e65726044820152606401611713565b600061a3ae82602e8054905061dfbb565b905060005b8181101561a4d4576000602e828154811061a3d05761a3d061f117565b60009182526020808320909101546001600160a01b0316808352602490915260409091208054919250906001600160801b031661a4bf57805461ffff60d01b1916815561a41c8261b3ba565b61a4258261b535565b6001600160a01b03821660008181526027602052604090819020805462ff000019169055517f9dadcedba048e92b943ea1c5861cee1df63a566d7f795869c004780c1c698e2b9061a4799042815260200190565b60405180910390a2600061a48f6001600361f232565b9050806038541061a4b757806038600082825461a4ac919061f203565b9091555061a4bd9050565b60006038555b505b5050808061a4cc9061f178565b91505061a3b3565b50602e5461232b5761232b602e600061e258565b6032546001600160801b0316600090815260226020526040902054600160e01b900460ff1661a5785760405162461bcd60e51b815260206004820152603660248201527f43616e277420616c6c6f6361746520776f726b2c207468652063757272656e74604482015275206261746368206973206e6f7420636f6d706c65746560501b6064820152608401611713565b6032546001600160801b0316600090815260226020526040902054600160f01b900460ff161561a6105760405162461bcd60e51b815260206004820152603b60248201527f43616e277420616c6c6f6361746520776f726b2c207468652063757272656e7460448201527f20626174636820697320616c726561647920616c6c6f636174656400000000006064820152608401611713565b600061a73461a6a9602c80549050603c60009054906101000a90046001600160a01b03166001600160a01b031663dfeceed76040518163ffffffff1660e01b815260040160206040518083038186803b15801561a66c57600080fd5b505afa15801561a680573d6000803e3d6000fd5b505050506040513d601f19601f8201168201806040525081019061a6a4919061f1ca565b61dfbb565b603c60009054906101000a90046001600160a01b03166001600160a01b031663bd40ef4c6040518163ffffffff1660e01b815260040160206040518083038186803b15801561a6f757600080fd5b505afa15801561a70b573d6000803e3d6000fd5b505050506040513d601f19601f8201168201806040525081019061a72f919061f1ca565b61dfd1565b9050603261ffff8216111561a7b15760405162461bcd60e51b815260206004820152603960248201527f73656c65637465645f6b206d757374206265206174206d6f7374204d41585f5760448201527f4f524b45525f414c4c4f43415445445f5045525f4241544348000000000000006064820152608401611713565b602c54603c546040805163189460df60e31b815290516001600160a01b039092169163c4a306f891600480820192602092909190829003018186803b15801561a7f957600080fd5b505afa15801561a80d573d6000803e3d6000fd5b505050506040513d601f19601f8201168201806040525081019061a831919061f1ca565b60005461a84e90600160a81b90046001600160401b03164261f50e565b6001600160401b03161061232b576032546001600160801b03166000818152602260209081526040808320805463ffffffff60c01b1916600160d01b61ffff891690810261ffff60c01b191691909117600160c01b91909102179055603c548151631b4930b560e11b815291516001600160a01b0390911692633692616a9260048082019391829003018186803b15801561a8e857600080fd5b505afa15801561a8fc573d6000803e3d6000fd5b505050506040513d601f19601f8201168201806040525081019061a920919061f1ca565b61a92a904261f21a565b90506000603c60009054906101000a90046001600160a01b03166001600160a01b03166372e540306040518163ffffffff1660e01b815260040160206040518083038186803b15801561a97c57600080fd5b505afa15801561a990573d6000803e3d6000fd5b505050506040513d601f19601f8201168201806040525081019061a9b4919061f1ca565b61a9c7906001600160401b03841661f21a565b6001600160801b0384166000908152602260205260409020600180820180546001600160401b03808616600160601b0267ffffffffffffffff60601b19918916600160201b029190911673ffffffffffffffffffffffffffffffff000000001990921691909117179055815460ff60f01b1916600160f01b1790915590915061aa526008600461f232565b61aa5d60028061f232565b61aa67919061f21a565b61aa71919061f21a565b6038600082825461aa82919061f21a565b9091555050600161ffff86161080159061aa9d575060018410155b61aafc5760405162461bcd60e51b815260206004820152602a60248201527f4661696c20647572696e6720616c6c6f636174696f6e3a206e6f7420656e6f75604482015269676820776f726b65727360b01b6064820152608401611713565b600061ab0c8661ffff168661872f565b9050600081516001600160401b0381111561ab295761ab2961e606565b60405190808252806020026020018201604052801561ab52578160200160208202803683370190505b50905060005b825181101561abe757602c83828151811061ab755761ab7561f117565b60200260200101518154811061ab8d5761ab8d61f117565b9060005260206000200160009054906101000a90046001600160a01b031682828151811061abbd5761abbd61f117565b6001600160a01b03909216602092830291909101909101528061abdf8161f178565b91505061ab58565b5060005b825181101561ad8e57600082828151811061ac085761ac0861f117565b6020908102919091018101516001600160a01b03811660008181526024845260408082206001600160801b038d168352601f86528183209383529290945292909220805461ffff19169055915061ac5e8261b3ba565b61ac678261dfe0565b6001600160801b03881660008181526028602090815260408220805460018082018355918452919092200180546001600160a01b0319166001600160a01b03861617905582546001600160801b0319169091178255818101805460089061acdf908490600160401b90046001600160401b031661f647565b92506101000a8154816001600160401b0302191690836001600160401b031602179055506020600461ad11919061f232565b61ad1c90600461f21a565b6038600082825461ad2d919061f21a565b90915550506040516001600160a01b03831681526001600160801b038916907fe4ee2dfabe57cee15e3f558890b20455f54c1fa0718e5276faad70a6500e6b8c9060200160405180910390a25050808061ad869061f178565b91505061abeb565b506000805467ffffffffffffffff60a81b1916600160a81b426001600160401b031602178155603280546001929061add09084906001600160801b031661f304565b92506101000a8154816001600160801b0302191690836001600160801b0316021790555061adfc61763f565b60358190555060016036600082825461ae15919061f21a565b909155505050505050505050565b603c546001600160a01b031661ae4b5760405162461bcd60e51b81526004016117139061f193565b603c5460408051632abe0d5f60e11b815290516000926001600160a01b03169163557c1abe916004808301926020929190829003018186803b15801561ae9057600080fd5b505afa15801561aea4573d6000803e3d6000fd5b505050506040513d601f19601f8201168201806040525081019061aec8919061f326565b90506001600160a01b03811661af205760405162461bcd60e51b815260206004820152601d60248201527f734675656c3a206e756c6c2041646472657373204e6f742056616c69640000006044820152606401611713565b6040513360248201526000906001600160a01b0383169060440160408051601f198184030181529181526020820180516001600160e01b0316631f5ac9c560e11b1790525161af6f919061f5f5565b6000604051808303816000865af19150503d806000811461afac576040519150601f19603f3d011682016040523d82523d6000602084013e61afb1565b606091505b50506040513360248201529091506000906001600160a01b0384169060440160408051601f198184030181529181526020820180516001600160e01b03166358563d2160e01b1790525161b005919061f5f5565b6000604051808303816000865af19150503d806000811461b042576040519150601f19603f3d011682016040523d82523d6000602084013e61b047565b606091505b50509050818061b0545750805b6121365760405162461bcd60e51b815260206004820152602560248201527f72656365697665722072656a6563746564205f7265747269657665534675656c6044820152640818d85b1b60da1b6064820152608401611713565b600054600160a01b900460ff1615614b215760405162461bcd60e51b815260206004820152601060248201526f14185d5cd8589b194e881c185d5cd95960821b6044820152606401611713565b603c546040805163ca64f9e760e01b815290516000926001600160a01b03169163ca64f9e7916004808301926020929190829003018186803b15801561b14057600080fd5b505afa15801561b154573d6000803e3d6000fd5b505050506040513d601f19601f8201168201806040525081019061b178919061f326565b6001600160a01b0316141561b19f5760405162461bcd60e51b81526004016117139061f58d565b603c546040805163ca64f9e760e01b815290516000926001600160a01b03169163ca64f9e7916004808301926020929190829003018186803b15801561b1e457600080fd5b505afa15801561b1f8573d6000803e3d6000fd5b505050506040513d601f19601f8201168201806040525081019061b21c919061f326565b6040516304ada21f60e21b8152600481018590526001600160a01b038481166024830152919250908216906312b6887c90604401602060405180830381600087803b15801561b26a57600080fd5b505af115801561b27e573d6000803e3d6000fd5b505050506040513d601f19601f8201168201806040525081019061b2a2919061f251565b61b3145760405162461bcd60e51b815260206004820152603f60248201527f436f756c64206e6f74207265717565737420656e6f75676820616c6c6f63617460448201527f6564207374616b652c2072657175657374416c6c6f63617465645374616b65006064820152608401611713565b6001600160a01b03821660009081526026602052604090205461b34a5760206038600082825461b344919061f21a565b90915550505b6001600160a01b0382166000908152602660205260408120805485929061b37290849061f21a565b90915550506040518381526001600160a01b038316907f5aa5d56140767016c877a5333ac3e1ad31a09051098a8fdf7297c4b64530a9429060200160405180910390a2505050565b6001600160a01b0381166000908152602760205260409020805460ff161561232b578054602c8054630100000090920463ffffffff16916000919061b4019060019061f203565b8154811061b4115761b41161f117565b600091825260209091200154835460ff1981168555602b54630100000063ffffffff9091160266ffffffff0000ff19909116178455602c546001600160a01b03909116915060021161b4ca5780602c8363ffffffff168154811061b4775761b47761f117565b600091825260208083209190910180546001600160a01b0319166001600160a01b039485161790559183168152602790915260409020805466ffffffff0000001916630100000063ffffffff8516021790555b602c80548061b4db5761b4db61f669565b6000828152602090819020820160001990810180546001600160a01b0319169055909101909155603854811161b52857806038600082825461b51d919061f203565b9091555061b52e9050565b60006038555b5050505050565b6001600160a01b03811660009081526027602052604090208054610100900460ff161561232b578054602d8054600160381b90920463ffffffff16916000919061b5819060019061f203565b8154811061b5915761b59161f117565b600091825260209091200154835461ff001981168555602b54600160381b63ffffffff909116026affffffff0000000000ff0019909116178455602d546001600160a01b03909116915060021161b64f5780602d8363ffffffff168154811061b5fc5761b5fc61f117565b600091825260208083209190910180546001600160a01b0319166001600160a01b039485161790559183168152602790915260409020805463ffffffff60381b1916600160381b63ffffffff8516021790555b602d80548061b4db5761b4db61f669565b6001600160a01b0381166000908152602760205260409020805462010000900460ff161561232b578054602e8054600160581b90920463ffffffff16916000919061b6ad9060019061f203565b8154811061b6bd5761b6bd61f117565b600091825260209091200154835462ff00001981168555602b54600160581b63ffffffff909116026effffffff0000000000000000ff000019909116178455602d546001600160a01b03909116915060021161b7805780602e8363ffffffff168154811061b72d5761b72d61f117565b600091825260208083209190910180546001600160a01b0319166001600160a01b039485161790559183168152602790915260409020805463ffffffff60581b1916600160581b63ffffffff8516021790555b602e80548061b4db5761b4db61f669565b603054603154600091829161b7be916001600160801b03600160801b91829004811692919091041661f26e565b603c54604080516338c4574f60e21b815290519293506000926032926001600160a01b03169163e3115d3c916004808301926020929190829003018186803b15801561b80957600080fd5b505afa15801561b81d573d6000803e3d6000fd5b505050506040513d601f19601f8201168201806040525081019061b841919061f1ca565b836001600160801b0316118061b85b575060395460385410155b801561b895575060315461b880908290600160801b90046001600160801b031661f203565b603054600160801b90046001600160801b0316105b1561bce65760005b856001600160801b0316816001600160801b0316101561bce457603054600160801b908190046001600160801b039081166000818152602260205260408120549198509181169261b8f5910463ffffffff168361f304565b9050815b816001600160801b0316816001600160801b0316101561b9a2576001600160801b038116600090815260216020526040812080546001600160881b03191681559061b947600183018261e19a565b6002820180546001600160a01b031916905561b96760038301600061e19a565b61b97560048301600061e19a565b5061b98490506020600561f232565b61b98e908761f21a565b95508061b99a8161f1dc565b91505061b8f9565b506001600160801b03871660009081526022602052604081208181556001810180546001600160a01b03191690559061b9de600283018261e19a565b5061b9ed90506020600461f232565b61b9f7908661f21a565b6001600160801b0388166000908152602960209081526040808320805461ffff19908116909155602a90925290912080549091169055945061ba3b6010600261f232565b61ba45908661f21a565b6001600160801b03881660009081526028602090815260408083208054825181850281018501909352808352949950929390929183018282801561bab257602002820191906000526020600020905b81546001600160a01b0316815260019091019060200180831161ba94575b5050505050905060005b8151816001600160801b0316101561bc2257600082826001600160801b03168151811061baeb5761baeb61f117565b60200260200101519050600061bb01828c6150c4565b905061bb2e81604051806040016040528060098152602001686e756d546f6b656e7360b81b81525061df4b565b61bb5a816040518060400160405280600a8152602001690c6dedadad2e890c2e6d60b31b81525061df4b565b61bb86816040518060400160405280600a815260200169636f6d6d6974566f746560b01b81525061df4b565b6001600160801b038b166000908152601f602090815260408083206001600160a01b03861684529091528120805466ffffffffffffff191681559061bbce600183018261e19a565b61bbdc60028301600061e19a565b5061bbeb90506020600261f232565b61bbf76020600561f232565b61bc01919061f21a565b61bc0b908a61f21a565b98505050808061bc1a9061f1dc565b91505061babc565b506001600160801b038816600090815260286020526040812061bc449161e258565b805161bc5190602061f232565b61bc5b908761f21a565b6040519096506001600160801b038916907f72c2fcc891fe835b86fc8bb9abdc52adf52499c52289b3c49e1461eabea2717590600090a260305461bcb090600160801b90046001600160801b0316600161f304565b603080546001600160801b03928316600160801b0292169190911790555082915061bcdc90508161f1dc565b91505061b89d565b505b816038541061b52857816038600082825461b51d919061f203565b61bd0961e14a565b6000805460ff60a01b191690557f5db9ee0a495bf2e6ff9c91a7834c1ba4fdd244a5e8aa4e537bd38aeae4b073aa335b6040516001600160a01b03909116815260200160405180910390a1565b61bd5e61b0ae565b6000805460ff60a01b1916600160a01b1790557f62e78cea01bee320cd4e420270b5ea74000d11b0c9f74754ebdbfc544b05a25861bd393390565b603c546001600160a01b031661bdc15760405162461bcd60e51b81526004016117139061f193565b603c5460408051632a49798160e11b815290516000926001600160a01b031691635492f302916004808301926020929190829003018186803b15801561be0657600080fd5b505afa15801561be1a573d6000803e3d6000fd5b505050506040513d601f19601f8201168201806040525081019061be3e919061f326565b6001600160a01b0316141561be655760405162461bcd60e51b81526004016117139061f549565b603c5460408051630855d15160e01b815290516000926001600160a01b031691630855d151916004808301926020929190829003018186803b15801561beaa57600080fd5b505afa15801561bebe573d6000803e3d6000fd5b505050506040513d601f19601f8201168201806040525081019061bee2919061f326565b6001600160a01b0316141561bf395760405162461bcd60e51b815260206004820181905260248201527f5265704d616e61676572206973206e756c6c20696e20506172616d65746572736044820152606401611713565b603c54604080516304e76c8f60e01b815290516000926001600160a01b0316916304e76c8f916004808301926020929190829003018186803b15801561bf7e57600080fd5b505afa15801561bf92573d6000803e3d6000fd5b505050506040513d601f19601f8201168201806040525081019061bfb6919061f326565b6001600160a01b0316141561c0195760405162461bcd60e51b815260206004820152602360248201527f5265776172644d616e61676572206973206e756c6c20696e20506172616d657460448201526265727360e81b6064820152608401611713565b61c022816143c8565b8061c04e57506001600160801b038116600090815260226020526040902054600160d01b900461ffff16155b61c0c05760405162461bcd60e51b815260206004820152603a60248201527f5f446174614261746368496420686173206e6f7420656e6465642c206f72206e60448201527f6f7420657665727920766f74657273206861766520766f7465640000000000006064820152608401611713565b6001600160801b038116600090815260226020526040902054600160e81b900460ff161561c13a5760405162461bcd60e51b815260206004820152602160248201527f5f446174614261746368496420697320616c72656164792076616c69646174656044820152601960fa1b6064820152608401611713565b6001600160801b03811660009081526028602090815260408083208054825181850281018501909352808352919290919083018282801561c1a457602002820191906000526020600020905b81546001600160a01b0316815260019091019060200180831161c186575b50505050509050600081516001600160401b0381111561c1c65761c1c661e606565b60405190808252806020026020018201604052801561c1f957816020015b606081526020019060019003908161c1e45790505b509050600082516001600160401b0381111561c2175761c21761e606565b60405190808252806020026020018201604052801561c240578160200160208202803683370190505b50905060005b835181101561c3cb57600084828151811061c2635761c26361f117565b6020908102919091018101516001600160801b0388166000908152601f835260408082206001600160a01b038416835290935291822060010180549193509061c2ab9061f12d565b80601f016020809104026020016040519081016040528092919081815260200182805461c2d79061f12d565b801561c3245780601f1061c2f95761010080835404028352916020019161c324565b820191906000526020600020905b81548152906001019060200180831161c30757829003601f168201915b505050506001600160801b0389166000908152601f602090815260408083206001600160a01b038816845290915290205487519293506301000000900463ffffffff169183915087908690811061c37d5761c37d61f117565b60200260200101819052508085858151811061c39b5761c39b61f117565b602002602001019063ffffffff16908163ffffffff1681525050505050808061c3c39061f178565b91505061c246565b50600061c4766064603c60009054906101000a90046001600160a01b03166001600160a01b031663ea19733c6040518163ffffffff1660e01b815260040160206040518083038186803b15801561c42157600080fd5b505afa15801561c435573d6000803e3d6000fd5b505050506040513d601f19601f8201168201806040525081019061c459919061f1ca565b865161c465919061f232565b61c46f919061f359565b600161dfd1565b60408051602081019091526000808252919250905b845181101561c54a576000805b865181101561c50d5761c4dd87848151811061c4b65761c4b661f117565b602002602001015188838151811061c4d05761c4d061f117565b60200260200101516175d9565b1561c4fb5761c4ed60018361f21a565b915084821061c4fb5761c50d565b8061c5058161f178565b91505061c498565b5083811061c5375785828151811061c5275761c52761f117565b602002602001015192505061c54a565b508061c5428161f178565b91505061c48b565b506000805b84518163ffffffff16101561c625576000805b865181101561c5e25786818151811061c57d5761c57d61f117565b602002602001015163ffffffff16878463ffffffff168151811061c5a35761c5a361f117565b602002602001015163ffffffff16141561c5d05761c5c260018361f21a565b915085821061c5d05761c5e2565b8061c5da8161f178565b91505061c562565b5084811061c61257858263ffffffff168151811061c6025761c60261f117565b602002602001015192505061c625565b508061c61d8161f67f565b91505061c54f565b50600061c631886146a2565b801561c653575061c65183604051806020016040528060008152506175d9565b155b801561c664575063ffffffff821615155b603a549091506301000000900460ff161561c9c6576001600160801b03808916600090815260226020908152604080832081516101c0810183528154958616815263ffffffff600160801b8704811694820194909452600160a01b86049093169183019190915261ffff600160c01b850481166060840152600160d01b850416608083015260ff600160e01b85048116151560a0840152600160e81b85048116151560c0840152600160f01b85048116151560e0840152929391929091610100840191600160f81b90910416600381111561c7415761c74161e430565b600381111561c7525761c75261e430565b8152600182015461ffff80821660208401526201000082041660408301526001600160401b03600160201b820481166060840152600160601b90910416608082015260028201805460a09092019161c7a99061f12d565b80601f016020809104026020016040519081016040528092919081815260200182805461c7d59061f12d565b801561c8225780601f1061c7f75761010080835404028352916020019161c822565b820191906000526020600020905b81548152906001019060200180831161c80557829003601f168201915b5050505050815250509050600081610120015161ffff16111561c84457600191505b61c85d84604051806020016040528060008152506175d9565b1561c9c45760005b885181101561c9c2576001600160801b038a166000908152601f602052604081208a519091908b908490811061c89d5761c89d61f117565b6020908102919091018101516001600160a01b0316825281019190915260400160002054610100900460ff1661c8d25761c9b0565b61c90488828151811061c8e75761c8e761f117565b6020026020010151604051806020016040528060008152506175d9565b61c9255787818151811061c91a5761c91a61f117565b602002602001015194505b63ffffffff841615801561c9585750600087828151811061c9485761c94861f117565b602002602001015163ffffffff16115b1561c97a5786818151811061c96f5761c96f61f117565b602002602001015193505b61c99385604051806020016040528060008152506175d9565b15801561c9a6575060008463ffffffff16115b1561c9b05761c9c2565b8061c9ba8161f178565b91505061c865565b505b505b8061c9e057603a54600160601b900461ffff16915061ca38565b603a546001600160801b03891660009081526022602052604090205461ca359161ca2391600160601b90910461ffff1690600160801b900463ffffffff1661f699565b63ffffffff168363ffffffff1661dfbb565b91505b60005b875181101561d22857600088828151811061ca585761ca5861f117565b6020908102919091018101516001600160801b038c166000908152601f835260408082206001600160a01b03841683528452808220546024909452902090925060ff62010000830481169261010090041690811561d0c2576001600160a01b0384166000908152602460205260409020805461ffff60c01b1916905585801561cae15750826001145b8061caf657508515801561caf6575082600114155b1561d07457603c5460408051632a49798160e11b815290516000926001600160a01b031691635492f302916004808301926020929190829003018186803b15801561cb4057600080fd5b505afa15801561cb54573d6000803e3d6000fd5b505050506040513d601f19601f8201168201806040525081019061cb78919061f326565b90506000603c60009054906101000a90046001600160a01b03166001600160a01b0316630855d1516040518163ffffffff1660e01b815260040160206040518083038186803b15801561cbca57600080fd5b505afa15801561cbde573d6000803e3d6000fd5b505050506040513d601f19601f8201168201806040525081019061cc02919061f326565b90506000603c60009054906101000a90046001600160a01b03166001600160a01b03166304e76c8f6040518163ffffffff1660e01b815260040160206040518083038186803b15801561cc5457600080fd5b505afa15801561cc68573d6000803e3d6000fd5b505050506040513d601f19601f8201168201806040525081019061cc8c919061f326565b6040516308c0a84360e11b81526001600160a01b03898116600483015291925060009185169063118150869060240160206040518083038186803b15801561ccd357600080fd5b505afa15801561cce7573d6000803e3d6000fd5b505050506040513d601f19601f8201168201806040525081019061cd0b919061f326565b905063ffffffff8b161561d02257826001600160a01b0316631b6d990a8c63ffffffff16603c60009054906101000a90046001600160a01b03166001600160a01b0316630b08bfd96040518163ffffffff1660e01b815260040160206040518083038186803b15801561cd7d57600080fd5b505afa15801561cd91573d6000803e3d6000fd5b505050506040513d601f19601f8201168201806040525081019061cdb5919061f1ca565b61cdbf919061f232565b6040516001600160e01b031960e084901b16815260048101919091526001600160a01b038416602482015260006044820152606401602060405180830381600087803b15801561ce0e57600080fd5b505af115801561ce22573d6000803e3d6000fd5b505050506040513d601f19601f8201168201806040525081019061ce46919061f251565b61cea05760405162461bcd60e51b815260206004820152602560248201527f636f756c64206e6f74207265776172642052455020696e2056616c69646174656044820152642c20312e6160d81b6064820152608401611713565b816001600160a01b031663e0ca50948c63ffffffff16603c60009054906101000a90046001600160a01b03166001600160a01b031663f80de0a06040518163ffffffff1660e01b815260040160206040518083038186803b15801561cf0457600080fd5b505afa15801561cf18573d6000803e3d6000fd5b505050506040513d601f19601f8201168201806040525081019061cf3c919061f1ca565b61cf46919061f232565b6040516001600160e01b031960e084901b16815260048101919091526001600160a01b0384166024820152604401602060405180830381600087803b15801561cf8e57600080fd5b505af115801561cfa2573d6000803e3d6000fd5b505050506040513d601f19601f8201168201806040525081019061cfc6919061f251565b61d0225760405162461bcd60e51b815260206004820152602760248201527f636f756c64206e6f742072657761726420746f6b656e20696e2056616c6964616044820152663a32961018973160c91b6064820152608401611713565b6001858101805460109061d047908490600160801b90046001600160401b031661f647565b92506101000a8154816001600160401b0302191690836001600160401b031602179055505050505061d211565b6001818101805460189061d099908490600160c01b90046001600160401b031661f647565b92506101000a8154816001600160401b0302191690836001600160401b0316021790555061d211565b6001600160a01b038416600090815260246020526040902080546001919060189061d0f9908490600160c01b900461ffff1661f4aa565b92506101000a81548161ffff021916908361ffff160217905550603c60009054906101000a90046001600160a01b03166001600160a01b0316639fb491f66040518163ffffffff1660e01b815260040160206040518083038186803b15801561d16157600080fd5b505afa15801561d175573d6000803e3d6000fd5b505050506040513d601f19601f8201168201806040525081019061d199919061f1ca565b6001600160a01b038516600090815260246020526040902054600160c01b900461ffff161061d1df57805460ff60d01b1916815561d1d68461b535565b61d1df8461b3ba565b8054600160d01b900460ff161561d2025761d1f98461b535565b61d2028461dd22565b80546001600160801b03191681555b50505050808061d2209061f178565b91505061ca3b565b506001600160801b0388166000908152602260209081526040909120805460ff60e81b1916600160e81b178155845161d2699260029092019186019061e1d4565b506001600160801b0388166000908152602260205260409020805463ffffffff60a01b1916600160a01b63ffffffff851602179055801561dace576001600160801b038881166000908152602260205260408120549182169161d2d990600160801b900463ffffffff168361f304565b9050815b816001600160801b0316816001600160801b0316101561d7d6576001600160801b038116600090815260216020908152604080832060020154603c548251632a49798160e11b815292516001600160a01b0392831695949190921692635492f3029260048083019392829003018186803b15801561d35a57600080fd5b505afa15801561d36e573d6000803e3d6000fd5b505050506040513d601f19601f8201168201806040525081019061d392919061f326565b90506000603c60009054906101000a90046001600160a01b03166001600160a01b0316630855d1516040518163ffffffff1660e01b815260040160206040518083038186803b15801561d3e457600080fd5b505afa15801561d3f8573d6000803e3d6000fd5b505050506040513d601f19601f8201168201806040525081019061d41c919061f326565b90506000603c60009054906101000a90046001600160a01b03166001600160a01b03166304e76c8f6040518163ffffffff1660e01b815260040160206040518083038186803b15801561d46e57600080fd5b505afa15801561d482573d6000803e3d6000fd5b505050506040513d601f19601f8201168201806040525081019061d4a6919061f326565b6040516308c0a84360e11b81526001600160a01b03868116600483015291925060009185169063118150869060240160206040518083038186803b15801561d4ed57600080fd5b505afa15801561d501573d6000803e3d6000fd5b505050506040513d601f19601f8201168201806040525081019061d525919061f326565b905063ffffffff8a161561d7be57826001600160a01b0316631b6d990a8b63ffffffff16603c60009054906101000a90046001600160a01b03166001600160a01b031663abb10b9b6040518163ffffffff1660e01b815260040160206040518083038186803b15801561d59757600080fd5b505afa15801561d5ab573d6000803e3d6000fd5b505050506040513d601f19601f8201168201806040525081019061d5cf919061f1ca565b61d5d9919061f232565b6040516001600160e01b031960e084901b16815260048101919091526001600160a01b038416602482015260006044820152606401602060405180830381600087803b15801561d62857600080fd5b505af115801561d63c573d6000803e3d6000fd5b505050506040513d601f19601f8201168201806040525081019061d660919061f251565b61d67c5760405162461bcd60e51b81526004016117139061f36d565b816001600160a01b031663e0ca50948b63ffffffff16603c60009054906101000a90046001600160a01b03166001600160a01b03166330c0bb796040518163ffffffff1660e01b815260040160206040518083038186803b15801561d6e057600080fd5b505afa15801561d6f4573d6000803e3d6000fd5b505050506040513d601f19601f8201168201806040525081019061d718919061f1ca565b61d722919061f232565b6040516001600160e01b031960e084901b16815260048101919091526001600160a01b0384166024820152604401602060405180830381600087803b15801561d76a57600080fd5b505af115801561d77e573d6000803e3d6000fd5b505050506040513d601f19601f8201168201806040525081019061d7a2919061f251565b61d7be5760405162461bcd60e51b81526004016117139061f3bb565b5050505050808061d7ce9061f1dc565b91505061d2dd565b506001600160801b038a8116600090815260226020526040902080546001600160f81b0316600160f81b1790556032805460019260109161d820918591600160801b90041661f304565b92506101000a8154816001600160801b0302191690836001600160801b031602179055506020600461d852919061f232565b600461d8606001600261f232565b61d86a919061f21a565b61d874919061f21a565b6038600082825461d885919061f21a565b9091555050603c5460408051637b39b17f60e11b815290516000926001600160a01b03169163f67362fe916004808301926020929190829003018186803b15801561d8cf57600080fd5b505afa15801561d8e3573d6000803e3d6000fd5b505050506040513d601f19601f8201168201806040525081019061d907919061f326565b6001600160a01b0316141561d9735760405162461bcd60e51b815260206004820152602c60248201527f436f6d706c69616e636553797374656d206e756c6c20696e20506172616d657460448201526b195c9cc810dbdb9d1c9858dd60a21b6064820152608401611713565b603c5460408051637b39b17f60e11b815290516000926001600160a01b03169163f67362fe916004808301926020929190829003018186803b15801561d9b857600080fd5b505afa15801561d9cc573d6000803e3d6000fd5b505050506040513d601f19601f8201168201806040525081019061d9f0919061f326565b6040516348257dc960e01b81526001600160801b038d1660048201529091506001600160a01b038216906348257dc990602401600060405180830381600087803b15801561da3d57600080fd5b505af192505050801561da4e575060015b61daad573d80801561da7c576040519150601f19603f3d011682016040523d82523d6000602084013e61da81565b606091505b5060008051602061f6e18339815191528160405161da9f919061ef1d565b60405180910390a15061dac6565b60016036600082825461dac0919061f21a565b90915550505b50505061db35565b6001600160801b03888116600090815260226020526040812080546001600160f81b0316600160f91b1790556033805460019391929161db109185911661f304565b92506101000a8154816001600160801b0302191690836001600160801b031602179055505b60016036600082825461db48919061f21a565b90915550506001600160801b03881660009081526022602052604081205460378054600160a01b90920463ffffffff1692909161db8690849061f21a565b90915550506001600160801b038816600090815260226020526040902054600160a01b900463ffffffff16601061dbbf6001600f61f203565b600f811061dbcf5761dbcf61f117565b01805460109061dbf0908490600160801b90046001600160801b031661f304565b92506101000a8154816001600160801b0302191690836001600160801b0316021790555061dc1c61213b565b6001600160801b0388811660009081526022602052604090205460338054600160c01b90920461ffff1692909160109161dc60918591600160801b9091041661f304565b82546101009290920a6001600160801b0381810219909316918316021790915589811660009081526022602052604081205460348054600160d01b90920461ffff1694509261dcb19185911661f304565b92506101000a8154816001600160801b0302191690836001600160801b03160217905550876001600160801b03167f98bfbdd7dba62d9141cf4f07139f8e53c0d00c0b44cad36d148730680b162161848360405161dd1092919061f6bc565b60405180910390a25050505050505050565b6001600160a01b03811661dd9e5760405162461bcd60e51b815260206004820152603760248201527f4572726f723a2043616e2774207075736820746865206e756c6c20616464726560448201527f737320696e20617661696c61626c6520776f726b6572730000000000000000006064820152608401611713565b6001600160a01b03811660009081526027602052604090205460ff16611b0c57602c805460018101825560009182527f7416c943b4a09859521022fd2e90eac0dd9026dad28fa317782a135f28a860910180546001600160a01b0319166001600160a01b038416179055603880546020929061de1b90849061f21a565b90915550506001600160a01b0381166000908152602760205260409020805460ff19166001908117909155602c5461de53919061f203565b6001600160a01b0382166000908152602760205260409020805463ffffffff9290921663010000000266ffffffff0000001990921691909117905550565b600080546001600160a01b038381166001600160a01b0319831681178455604051919092169283917f8be0079c531659141344cd1fd0a4f28419497f9722a3daafe3b4186f6b6457e09190a35050565b6000838360405160200161def692919061f5cf565b60408051601f198184030181529181528151602092830120600081815292805291205490915061df395760206038600082825461df33919061f21a565b90915550505b60009081526020805260409020555050565b6000828260405160200161df6092919061f5cf565b60408051601f198184030181529181528151602092830120600081815283805291822091909155603854909250811161dfb057806038600082825461dfa5919061f203565b909155506150ae9050565b600060385550505050565b600081831061dfca5781614653565b5090919050565b600081831161dfca5781614653565b6001600160a01b03811661e0515760405162461bcd60e51b815260206004820152603260248201527f4572726f723a2043616e2774207075736820746865206e756c6c206164647265604482015271737320696e206275737920776f726b65727360701b6064820152608401611713565b6001600160a01b038116600090815260276020526040902054610100900460ff16611b0c57602d805460018101825560009182527f4a2cc91ee622da3bc833a54c37ffcb6f3ec23b7793efc5eaf5e71b7b406c5c060180546001600160a01b0319166001600160a01b038416179055603880546020929061e0d390849061f21a565b90915550506001600160a01b0381166000908152602760205260409020805461ff001916610100179055602d5461e10c9060019061f203565b6001600160a01b0382166000908152602760205260409020805463ffffffff92909216600160381b0263ffffffff60381b1990921691909117905550565b600054600160a01b900460ff16614b215760405162461bcd60e51b815260206004820152601460248201527314185d5cd8589b194e881b9bdd081c185d5cd95960621b6044820152606401611713565b50805461e1a69061f12d565b6000825580601f1061e1b6575050565b601f016020900490600052602060002090810190611b0c919061e281565b82805461e1e09061f12d565b90600052602060002090601f01602090048101928261e202576000855561e248565b82601f1061e21b57805160ff191683800117855561e248565b8280016001018555821561e248579182015b8281111561e24857825182559160200191906001019061e22d565b5061e25492915061e281565b5090565b5080546000825590600052602060002090810190611b0c919061e281565b50611b0c90600f8101905b5b8082111561e254576000815560010161e282565b6001600160a01b0381168114611b0c57600080fd5b60006020828403121561e2bd57600080fd5b81356146538161e296565b6001600160801b0381168114611b0c57600080fd5b60006020828403121561e2ef57600080fd5b81356146538161e2c8565b60005b8381101561e31557818101518382015260200161e2fd565b838111156150ae5750506000910152565b6000815180845261e33e81602086016020860161e2fa565b601f01601f19169290920160200192915050565b6000602080830181845280855180835260408601915060408160051b870101925083870160005b8281101561e3a757603f1988860301845261e39585835161e326565b9450928501929085019060010161e379565b5092979650505050505050565b6000806040838503121561e3c757600080fd5b50508035926020909101359150565b6020808252825182820181905260009190848201906040850190845b81811015616c225783516001600160a01b03168352928401929184019160010161e3f2565b60006020828403121561e42957600080fd5b5035919050565b634e487b7160e01b600052602160045260246000fd5b6004811061e46457634e487b7160e01b600052602160045260246000fd5b9052565b6001600160401b03888116825287166020820152600061e48b604083018861e446565b60e0606083015261e49f60e083018761e326565b6001600160a01b038616608084015282810360a084015261e4c0818661e326565b905082810360c084015261e4d4818561e326565b9a9950505050505050505050565b803561ffff811681146142e257600080fd5b60006020828403121561e50657600080fd5b6146538261e4e2565b6001600160801b038f16815263ffffffff8e811660208301528d16604082015261ffff8c16606082015261ffff8b16608082015289151560a082015288151560c082015287151560e082015261e56961010082018861e446565b61ffff861661012082015261ffff85166101408201526001600160401b0384166101608201526001600160401b0383166101808201526101c06101a0820152600061e5b86101c083018461e326565b90509f9e505050505050505050505050505050565b6000806040838503121561e5e057600080fd5b823561e5eb8161e2c8565b9150602083013561e5fb8161e2c8565b809150509250929050565b634e487b7160e01b600052604160045260246000fd5b604051601f8201601f191681016001600160401b038111828210171561e6445761e64461e606565b604052919050565b60006001600160401b0382111561e6655761e66561e606565b5060051b60200190565b6000602080838503121561e68257600080fd5b82356001600160401b0381111561e69857600080fd5b8301601f8101851361e6a957600080fd5b803561e6bc61e6b78261e64c565b61e61c565b81815260059190911b8201830190838101908783111561e6db57600080fd5b928401925b8284101561532a57833561e6f38161e2c8565b8252928401929084019061e6e0565b600082601f83011261e71357600080fd5b81356001600160401b0381111561e72c5761e72c61e606565b61e73f601f8201601f191660200161e61c565b81815284602083860101111561e75457600080fd5b816020850160208301376000918101602001919091529392505050565b60008083601f84011261e78357600080fd5b5081356001600160401b0381111561e79a57600080fd5b6020830191508360208260051b8501011115613aeb57600080fd5b80356001600160401b03811681146142e257600080fd5b600082601f83011261e7dd57600080fd5b8135602061e7ed61e6b78361e64c565b82815260059290921b8401810191818101908684111561e80c57600080fd5b8286015b8481101561e82e5761e8218161e7b5565b835291830191830161e810565b509695505050505050565b60008060008060006080868803121561e85157600080fd5b85356001600160401b038082111561e86857600080fd5b818801915088601f83011261e87c57600080fd5b8135602061e88c61e6b78361e64c565b82815260059290921b8401810191818101908c84111561e8ab57600080fd5b8286015b8481101561e8e35780358681111561e8c75760008081fd5b61e8d58f86838b010161e702565b84525091830191830161e8af565b509950508901359250508082111561e8fa57600080fd5b61e90689838a0161e771565b9096509450604088013591508082111561e91f57600080fd5b61e92b89838a0161e7cc565b9350606088013591508082111561e94157600080fd5b5061e94e8882890161e702565b9150509295509295909350565b600081518084526020808501945080840160005b8381101561e9945781516001600160801b03168752958201959082019060010161e96f565b509495945050505050565b6001600160801b038316815260406020820152600061873d604083018461e95b565b8015158114611b0c57600080fd5b6000806040838503121561e9e257600080fd5b823561e9ed8161e9c1565b915061e9fb6020840161e4e2565b90509250929050565b6000806040838503121561ea1757600080fd5b823561ea228161e2c8565b9150602083013561e5fb8161e296565b8615158152851515602082015260ff8516604082015263ffffffff8416606082015260c06080820152600061ea6a60c083018561e326565b82810360a084015261ea7c818561e326565b9998505050505050505050565b6000806040838503121561ea9c57600080fd5b823561e5eb8161e296565b6000806040838503121561eaba57600080fd5b823561eac58161e296565b946020939093013593505050565b60008060006060848603121561eae857600080fd5b833561eaf38161e296565b925060208401359150604084013561eb0a8161e2c8565b809150509250925092565b6000806000806080858703121561eb2b57600080fd5b843561eb368161e2c8565b9350602085013561eb468161e2c8565b9250604085013561eb568161e296565b9396929550929360600135925050565b6000806000806080858703121561eb7c57600080fd5b61eb858561e7b5565b935060208501356001600160401b0381111561eba057600080fd5b61ebac8782880161e702565b935050604085013560ff8116811461eb5657600080fd5b60006020828403121561ebd557600080fd5b81356146538161e9c1565b6020815260006001600160401b0380845116602084015280602085015116604084015250604083015161ec16606084018261e446565b50606083015160e0608084015261ec3161010084018261e326565b9050608084015161ec4d60a08501826001600160a01b03169052565b5060a0840151601f19808584030160c086015261ec6a838361e326565b925060c08601519150808584030160e08601525061ec88828261e326565b95945050505050565b6000806040838503121561eca457600080fd5b8235915060208301356001600160401b0381111561ecc157600080fd5b61eccd8582860161e702565b9150509250929050565b6000806040838503121561ecea57600080fd5b82356001600160401b038082111561ed0157600080fd5b61ed0d8683870161e702565b9350602085013591508082111561ed2357600080fd5b5061eccd8582860161e702565b602081526000614653602083018461e95b565b6020808252825182820181905260009190848201906040850190845b81811015616c225783518352928401929184019160010161ed5f565b600080600080600060a0868803121561ed9357600080fd5b853561ed9e8161e2c8565b94506020860135935060408601359250606086013563ffffffff8116811461edc557600080fd5b915060808601356001600160401b0381111561ede057600080fd5b61e94e8882890161e702565b6000602080838503121561edff57600080fd5b82356001600160401b0381111561ee1557600080fd5b8301601f8101851361ee2657600080fd5b803561ee3461e6b78261e64c565b81815260059190911b8201830190838101908783111561ee5357600080fd5b928401925b8284101561532a5783358252928401929084019061ee58565b6000602080838503121561ee8457600080fd5b82356001600160401b0381111561ee9a57600080fd5b8301601f8101851361eeab57600080fd5b803561eeb961e6b78261e64c565b81815260059190911b8201830190838101908783111561eed857600080fd5b928401925b8284101561532a57833561eef08161e296565b8252928401929084019061eedd565b6000806040838503121561ef1257600080fd5b823561eac58161e2c8565b602081526000614653602083018461e326565b6000806040838503121561ef4357600080fd5b82356001600160401b0381111561ef5957600080fd5b61ef658582860161e702565b95602094909401359450505050565b6020815261ef8e6020820183516001600160801b03169052565b6000602083015161efa7604084018263ffffffff169052565b50604083015163ffffffff8116606084015250606083015161ffff8116608084015250608083015161ffff811660a08401525060a083015180151560c08401525060c083015180151560e08401525060e083015161010061f00b8185018315159052565b840151905061012061f01f8482018361e446565b840151905061014061f0368482018361ffff169052565b840151905061016061f04d8482018361ffff169052565b840151905061018061f069848201836001600160401b03169052565b84015190506101a061f085848201836001600160401b03169052565b8401516101c084810152905061873d6101e084018261e326565b60008060006060848603121561f0b457600080fd5b833561f0bf8161e296565b9250602084013561f0cf8161e2c8565b929592945050506040919091013590565b60208082526017908201527f5f4461746142617463684964206d757374206578697374000000000000000000604082015260600190565b634e487b7160e01b600052603260045260246000fd5b600181811c9082168061f14157607f821691505b60208210811415613de957634e487b7160e01b600052602260045260246000fd5b634e487b7160e01b600052601160045260246000fd5b600060001982141561f18c5761f18c61f162565b5060010190565b6020808252601f908201527f506172616d6574657273204d616e61676572206d757374206265207365742e00604082015260600190565b60006020828403121561467057600080fd5b60006001600160801b038083168181141561f1f95761f1f961f162565b6001019392505050565b60008282101561f2155761f21561f162565b500390565b6000821982111561f22d5761f22d61f162565b500190565b600081600019048311821515161561f24c5761f24c61f162565b500290565b60006020828403121561f26357600080fd5b81516146538161e9c1565b60006001600160801b038381169083168181101561f28e5761f28e61f162565b039392505050565b6000808335601e1984360301811261f2ad57600080fd5b8301803591506001600160401b0382111561f2c757600080fd5b602001915036819003821315613aeb57600080fd5b600063ffffffff80831681851680830382111561f2fb5761f2fb61f162565b01949350505050565b60006001600160801b0380831681851680830382111561f2fb5761f2fb61f162565b60006020828403121561f33857600080fd5b81516146538161e296565b634e487b7160e01b600052601260045260246000fd5b60008261f3685761f36861f343565b500490565b6020808252602e908201527f636f756c64206e6f74207265776172642052455020696e2056616c696461746560408201526d4461746142617463682c20322e6160901b606082015260800190565b60208082526030908201527f636f756c64206e6f742072657761726420746f6b656e20696e2056616c69646160408201526f3a32a230ba30a130ba31b4161019173160811b606082015260800190565b60408152600061f41e604083018561e326565b828103602084015261ec88818561e326565b60006001600160401b038083168181141561f1f95761f1f961f162565b6020808252601c908201527f496e70757420626f756e6461726965732061726520696e76616c696400000000604082015260600190565b60006001600160801b038084168061f49e5761f49e61f343565b92169190910492915050565b600061ffff80831681851680830382111561f2fb5761f2fb61f162565b600061ffff8083168185168183048111821515161561f4e85761f4e861f162565b02949350505050565b60006020828403121561f50357600080fd5b81516146538161e2c8565b60006001600160401b038381169083168181101561f28e5761f28e61f162565b600061ffff8381169083168181101561f28e5761f28e61f162565b60208082526024908201527f416464726573734d616e61676572206973206e756c6c20696e20506172616d656040820152637465727360e01b606082015260800190565b60208082526022908201527f5374616b654d616e61676572206973206e756c6c20696e20506172616d657465604082015261727360f01b606082015260800190565b8281526000825161f5e781602085016020870161e2fa565b919091016020019392505050565b6000825161f60781846020870161e2fa565b9190910192915050565b60008261f6205761f62061f343565b500690565b60408152600061f638604083018561e326565b90508260208301529392505050565b60006001600160401b0380831681851680830382111561f2fb5761f2fb61f162565b634e487b7160e01b600052603160045260246000fd5b600063ffffffff8083168181141561f1f95761f1f961f162565b600063ffffffff8083168185168183048111821515161561f4e85761f4e861f162565b60408152600061f6cf604083018561e326565b90508215156020830152939250505056fe4b87bbd93ba65ede1e2efeca735d9f7a6720bf7d6db0a8355b17dba5b64e5783a2646970667358221220fad2b2f193bef11992a94bfbd8c09cb6990d37b92bc3b358aecf50e86600052a64736f6c63430008080033",
  "linkReferences": {
    "contracts/worksystems/DataSpotting.sol": {
      "DLL": [
        {
          "length": 20,
          "start": 16499
        },
        {
          "length": 20,
          "start": 16776
        },
        {
          "length": 20,
          "start": 19261
        },
        {
          "length": 20,
          "start": 20253
        },
        {
          "length": 20,
          "start": 20448
        },
        {
          "length": 20,
          "start": 33445
        },
        {
          "length": 20,
          "start": 33636
        }
      ]
    }
  },
  "deployedLinkReferences": {
    "contracts/worksystems/DataSpotting.sol": {
      "DLL": [
        {
          "length": 20,
          "start": 16066
        },
        {
          "length": 20,
          "start": 16343
        },
        {
          "length": 20,
          "start": 18828
        },
        {
          "length": 20,
          "start": 19820
        },
        {
          "length": 20,
          "start": 20015
        },
        {
          "length": 20,
          "start": 33012
        },
        {
          "length": 20,
          "start": 33203
        }
      ]
    }
  }
}