{
  "_format": "hh-sol-artifact-1",
  "contractName": "DataSpotting",
  "sourceName": "contracts/worksystems/DataSpotting.sol",
  "abi": [
    {
      "inputs": [
        {
          "internalType": "address",
          "name": "EXDT_token_",
          "type": "address"
        }
      ],
      "stateMutability": "nonpayable",
      "type": "constructor"
    },
    {
      "anonymous": false,
      "inputs": [
        {
          "indexed": false,
          "internalType": "bytes",
          "name": "bytesFailure",
          "type": "bytes"
        }
      ],
      "name": "BytesFailure",
      "type": "event"
    },
    {
      "anonymous": false,
      "inputs": [
        {
          "indexed": true,
          "internalType": "address",
          "name": "previousOwner",
          "type": "address"
        },
        {
          "indexed": true,
          "internalType": "address",
          "name": "newOwner",
          "type": "address"
        }
      ],
      "name": "OwnershipTransferred",
      "type": "event"
    },
    {
      "anonymous": false,
      "inputs": [
        {
          "indexed": true,
          "internalType": "uint256",
          "name": "DataID",
          "type": "uint256"
        },
        {
          "indexed": false,
          "internalType": "string",
          "name": "file_hash",
          "type": "string"
        },
        {
          "indexed": false,
          "internalType": "bool",
          "name": "isVotePassed",
          "type": "bool"
        }
      ],
      "name": "_BatchValidated",
      "type": "event"
    },
    {
      "anonymous": false,
      "inputs": [
        {
          "indexed": true,
          "internalType": "uint256",
          "name": "batchID",
          "type": "uint256"
        }
      ],
      "name": "_DataBatchDeleted",
      "type": "event"
    },
    {
      "anonymous": false,
      "inputs": [
        {
          "indexed": true,
          "internalType": "uint256",
          "name": "DataID",
          "type": "uint256"
        },
        {
          "indexed": false,
          "internalType": "uint256",
          "name": "numTokens",
          "type": "uint256"
        },
        {
          "indexed": true,
          "internalType": "address",
          "name": "voter",
          "type": "address"
        }
      ],
      "name": "_SpotCheckCommitted",
      "type": "event"
    },
    {
      "anonymous": false,
      "inputs": [
        {
          "indexed": true,
          "internalType": "uint256",
          "name": "DataID",
          "type": "uint256"
        },
        {
          "indexed": false,
          "internalType": "uint256",
          "name": "numTokens",
          "type": "uint256"
        },
        {
          "indexed": false,
          "internalType": "uint256",
          "name": "votesFor",
          "type": "uint256"
        },
        {
          "indexed": false,
          "internalType": "uint256",
          "name": "votesAgainst",
          "type": "uint256"
        },
        {
          "indexed": true,
          "internalType": "uint256",
          "name": "choice",
          "type": "uint256"
        },
        {
          "indexed": true,
          "internalType": "address",
          "name": "voter",
          "type": "address"
        }
      ],
      "name": "_SpotCheckRevealed",
      "type": "event"
    },
    {
      "anonymous": false,
      "inputs": [
        {
          "indexed": true,
          "internalType": "uint256",
          "name": "DataID",
          "type": "uint256"
        },
        {
          "indexed": false,
          "internalType": "string",
          "name": "file_hash",
          "type": "string"
        },
        {
          "indexed": false,
          "internalType": "string",
          "name": "URL_domain",
          "type": "string"
        },
        {
          "indexed": true,
          "internalType": "address",
          "name": "sender",
          "type": "address"
        }
      ],
      "name": "_SpotSubmitted",
      "type": "event"
    },
    {
      "anonymous": false,
      "inputs": [
        {
          "indexed": false,
          "internalType": "uint256",
          "name": "numTokens",
          "type": "uint256"
        },
        {
          "indexed": true,
          "internalType": "address",
          "name": "voter",
          "type": "address"
        }
      ],
      "name": "_StakeAllocated",
      "type": "event"
    },
    {
      "anonymous": false,
      "inputs": [
        {
          "indexed": true,
          "internalType": "uint256",
          "name": "DataID",
          "type": "uint256"
        },
        {
          "indexed": true,
          "internalType": "address",
          "name": "voter",
          "type": "address"
        }
      ],
      "name": "_TokensRescued",
      "type": "event"
    },
    {
      "anonymous": false,
      "inputs": [
        {
          "indexed": false,
          "internalType": "uint256",
          "name": "numTokens",
          "type": "uint256"
        },
        {
          "indexed": true,
          "internalType": "address",
          "name": "voter",
          "type": "address"
        }
      ],
      "name": "_VotingRightsWithdrawn",
      "type": "event"
    },
    {
      "anonymous": false,
      "inputs": [
        {
          "indexed": true,
          "internalType": "uint256",
          "name": "batchID",
          "type": "uint256"
        },
        {
          "indexed": false,
          "internalType": "address",
          "name": "worker",
          "type": "address"
        }
      ],
      "name": "_WorkAllocated",
      "type": "event"
    },
    {
      "anonymous": false,
      "inputs": [
        {
          "indexed": true,
          "internalType": "address",
          "name": "worker",
          "type": "address"
        },
        {
          "indexed": false,
          "internalType": "uint256",
          "name": "timestamp",
          "type": "uint256"
        }
      ],
      "name": "_WorkerRegistered",
      "type": "event"
    },
    {
      "anonymous": false,
      "inputs": [
        {
          "indexed": true,
          "internalType": "address",
          "name": "worker",
          "type": "address"
        },
        {
          "indexed": false,
          "internalType": "uint256",
          "name": "timestamp",
          "type": "uint256"
        }
      ],
      "name": "_WorkerUnregistered",
      "type": "event"
    },
    {
      "inputs": [],
      "name": "AcceptedBatchsCounter",
      "outputs": [
        {
          "internalType": "uint256",
          "name": "",
          "type": "uint256"
        }
      ],
      "stateMutability": "view",
      "type": "function"
    },
    {
      "inputs": [],
      "name": "AllItemCounter",
      "outputs": [
        {
          "internalType": "uint256",
          "name": "",
          "type": "uint256"
        }
      ],
      "stateMutability": "view",
      "type": "function"
    },
    {
      "inputs": [],
      "name": "AllTxsCounter",
      "outputs": [
        {
          "internalType": "uint256",
          "name": "",
          "type": "uint256"
        }
      ],
      "stateMutability": "view",
      "type": "function"
    },
    {
      "inputs": [],
      "name": "AllocatedBatchCursor",
      "outputs": [
        {
          "internalType": "uint256",
          "name": "",
          "type": "uint256"
        }
      ],
      "stateMutability": "view",
      "type": "function"
    },
    {
      "inputs": [],
      "name": "AmIKicked",
      "outputs": [
        {
          "internalType": "bool",
          "name": "status",
          "type": "bool"
        }
      ],
      "stateMutability": "view",
      "type": "function"
    },
    {
      "inputs": [],
      "name": "AmIRegistered",
      "outputs": [
        {
          "internalType": "bool",
          "name": "passed",
          "type": "bool"
        }
      ],
      "stateMutability": "view",
      "type": "function"
    },
    {
      "inputs": [
        {
          "internalType": "string",
          "name": "_a",
          "type": "string"
        },
        {
          "internalType": "string",
          "name": "_b",
          "type": "string"
        }
      ],
      "name": "AreStringsEqual",
      "outputs": [
        {
          "internalType": "bool",
          "name": "",
          "type": "bool"
        }
      ],
      "stateMutability": "pure",
      "type": "function"
    },
    {
      "inputs": [],
      "name": "BatchCheckingCursor",
      "outputs": [
        {
          "internalType": "uint256",
          "name": "",
          "type": "uint256"
        }
      ],
      "stateMutability": "view",
      "type": "function"
    },
    {
      "inputs": [],
      "name": "BatchDeletionCursor",
      "outputs": [
        {
          "internalType": "uint256",
          "name": "",
          "type": "uint256"
        }
      ],
      "stateMutability": "view",
      "type": "function"
    },
    {
      "inputs": [
        {
          "internalType": "uint256",
          "name": "",
          "type": "uint256"
        }
      ],
      "name": "DataBatch",
      "outputs": [
        {
          "internalType": "uint256",
          "name": "start_idx",
          "type": "uint256"
        },
        {
          "internalType": "uint256",
          "name": "counter",
          "type": "uint256"
        },
        {
          "internalType": "uint256",
          "name": "uncommited_workers",
          "type": "uint256"
        },
        {
          "internalType": "uint256",
          "name": "unrevealed_workers",
          "type": "uint256"
        },
        {
          "internalType": "bool",
          "name": "complete",
          "type": "bool"
        },
        {
          "internalType": "bool",
          "name": "checked",
          "type": "bool"
        },
        {
          "internalType": "bool",
          "name": "allocated_to_work",
          "type": "bool"
        },
        {
          "internalType": "uint256",
          "name": "commitEndDate",
          "type": "uint256"
        },
        {
          "internalType": "uint256",
          "name": "revealEndDate",
          "type": "uint256"
        },
        {
          "internalType": "uint256",
          "name": "votesFor",
          "type": "uint256"
        },
        {
          "internalType": "uint256",
          "name": "votesAgainst",
          "type": "uint256"
        },
        {
          "internalType": "string",
          "name": "batchIPFSfile",
          "type": "string"
        },
        {
          "internalType": "uint256",
          "name": "item_count",
          "type": "uint256"
        },
        {
          "internalType": "enum DataSpotting.DataStatus",
          "name": "status",
          "type": "uint8"
        }
      ],
      "stateMutability": "view",
      "type": "function"
    },
    {
      "inputs": [
        {
          "internalType": "uint256",
          "name": "_DataBatchId",
          "type": "uint256"
        }
      ],
      "name": "DataCommitEndDate",
      "outputs": [
        {
          "internalType": "uint256",
          "name": "commitEndDate",
          "type": "uint256"
        }
      ],
      "stateMutability": "view",
      "type": "function"
    },
    {
      "inputs": [
        {
          "internalType": "uint256",
          "name": "_DataBatchId",
          "type": "uint256"
        }
      ],
      "name": "DataEnded",
      "outputs": [
        {
          "internalType": "bool",
          "name": "ended",
          "type": "bool"
        }
      ],
      "stateMutability": "view",
      "type": "function"
    },
    {
      "inputs": [
        {
          "internalType": "uint256",
          "name": "_DataBatchId",
          "type": "uint256"
        }
      ],
      "name": "DataExists",
      "outputs": [
        {
          "internalType": "bool",
          "name": "exists",
          "type": "bool"
        }
      ],
      "stateMutability": "view",
      "type": "function"
    },
    {
      "inputs": [],
      "name": "DataNonce",
      "outputs": [
        {
          "internalType": "uint256",
          "name": "",
          "type": "uint256"
        }
      ],
      "stateMutability": "view",
      "type": "function"
    },
    {
      "inputs": [
        {
          "internalType": "uint256",
          "name": "_DataBatchId",
          "type": "uint256"
        }
      ],
      "name": "DataRevealEndDate",
      "outputs": [
        {
          "internalType": "uint256",
          "name": "revealEndDate",
          "type": "uint256"
        }
      ],
      "stateMutability": "view",
      "type": "function"
    },
    {
      "inputs": [],
      "name": "FORCE_VALIDATE_BATCH_FILE",
      "outputs": [
        {
          "internalType": "bool",
          "name": "",
          "type": "bool"
        }
      ],
      "stateMutability": "view",
      "type": "function"
    },
    {
      "inputs": [],
      "name": "GAS_LEFT_LIMIT",
      "outputs": [
        {
          "internalType": "uint256",
          "name": "",
          "type": "uint256"
        }
      ],
      "stateMutability": "view",
      "type": "function"
    },
    {
      "inputs": [
        {
          "internalType": "address",
          "name": "user_",
          "type": "address"
        }
      ],
      "name": "GetCurrentWork",
      "outputs": [
        {
          "internalType": "uint256",
          "name": "",
          "type": "uint256"
        }
      ],
      "stateMutability": "view",
      "type": "function"
    },
    {
      "inputs": [
        {
          "internalType": "uint256",
          "name": "",
          "type": "uint256"
        }
      ],
      "name": "GlobalSpotFlowManager",
      "outputs": [
        {
          "internalType": "uint256",
          "name": "timestamp",
          "type": "uint256"
        },
        {
          "internalType": "uint256",
          "name": "counter",
          "type": "uint256"
        }
      ],
      "stateMutability": "view",
      "type": "function"
    },
    {
      "inputs": [],
      "name": "InstantRevealRewards",
      "outputs": [
        {
          "internalType": "bool",
          "name": "",
          "type": "bool"
        }
      ],
      "stateMutability": "view",
      "type": "function"
    },
    {
      "inputs": [],
      "name": "InstantRevealRewardsDivider",
      "outputs": [
        {
          "internalType": "uint256",
          "name": "",
          "type": "uint256"
        }
      ],
      "stateMutability": "view",
      "type": "function"
    },
    {
      "inputs": [],
      "name": "InstantSpotRewards",
      "outputs": [
        {
          "internalType": "bool",
          "name": "",
          "type": "bool"
        }
      ],
      "stateMutability": "view",
      "type": "function"
    },
    {
      "inputs": [],
      "name": "InstantSpotRewardsDivider",
      "outputs": [
        {
          "internalType": "uint256",
          "name": "",
          "type": "uint256"
        }
      ],
      "stateMutability": "view",
      "type": "function"
    },
    {
      "inputs": [
        {
          "internalType": "address",
          "name": "user_",
          "type": "address"
        }
      ],
      "name": "IsAddressKicked",
      "outputs": [
        {
          "internalType": "bool",
          "name": "status",
          "type": "bool"
        }
      ],
      "stateMutability": "view",
      "type": "function"
    },
    {
      "inputs": [
        {
          "internalType": "address",
          "name": "_worker",
          "type": "address"
        }
      ],
      "name": "IsInLogoffList",
      "outputs": [
        {
          "internalType": "bool",
          "name": "",
          "type": "bool"
        }
      ],
      "stateMutability": "view",
      "type": "function"
    },
    {
      "inputs": [
        {
          "internalType": "address",
          "name": "user_",
          "type": "address"
        }
      ],
      "name": "IsNewWorkAvailable",
      "outputs": [
        {
          "internalType": "bool",
          "name": "",
          "type": "bool"
        }
      ],
      "stateMutability": "view",
      "type": "function"
    },
    {
      "inputs": [
        {
          "internalType": "uint256",
          "name": "",
          "type": "uint256"
        }
      ],
      "name": "ItemFlowManager",
      "outputs": [
        {
          "internalType": "uint256",
          "name": "timestamp",
          "type": "uint256"
        },
        {
          "internalType": "uint256",
          "name": "counter",
          "type": "uint256"
        }
      ],
      "stateMutability": "view",
      "type": "function"
    },
    {
      "inputs": [],
      "name": "LastAllocationTime",
      "outputs": [
        {
          "internalType": "uint256",
          "name": "",
          "type": "uint256"
        }
      ],
      "stateMutability": "view",
      "type": "function"
    },
    {
      "inputs": [],
      "name": "LastBatchCounter",
      "outputs": [
        {
          "internalType": "uint256",
          "name": "",
          "type": "uint256"
        }
      ],
      "stateMutability": "view",
      "type": "function"
    },
    {
      "inputs": [],
      "name": "LastRandomSeed",
      "outputs": [
        {
          "internalType": "uint256",
          "name": "",
          "type": "uint256"
        }
      ],
      "stateMutability": "view",
      "type": "function"
    },
    {
      "inputs": [],
      "name": "MaxPendingDataBatchCount",
      "outputs": [
        {
          "internalType": "uint256",
          "name": "",
          "type": "uint256"
        }
      ],
      "stateMutability": "view",
      "type": "function"
    },
    {
      "inputs": [],
      "name": "NotCommitedCounter",
      "outputs": [
        {
          "internalType": "uint256",
          "name": "",
          "type": "uint256"
        }
      ],
      "stateMutability": "view",
      "type": "function"
    },
    {
      "inputs": [],
      "name": "NotRevealedCounter",
      "outputs": [
        {
          "internalType": "uint256",
          "name": "",
          "type": "uint256"
        }
      ],
      "stateMutability": "view",
      "type": "function"
    },
    {
      "inputs": [],
      "name": "Parameters",
      "outputs": [
        {
          "internalType": "contract IParametersManager",
          "name": "",
          "type": "address"
        }
      ],
      "stateMutability": "view",
      "type": "function"
    },
    {
      "inputs": [],
      "name": "RegisterWorker",
      "outputs": [],
      "stateMutability": "nonpayable",
      "type": "function"
    },
    {
      "inputs": [],
      "name": "RejectedBatchsCounter",
      "outputs": [
        {
          "internalType": "uint256",
          "name": "",
          "type": "uint256"
        }
      ],
      "stateMutability": "view",
      "type": "function"
    },
    {
      "inputs": [],
      "name": "SPOT_FILE_SIZE",
      "outputs": [
        {
          "internalType": "uint256",
          "name": "",
          "type": "uint256"
        }
      ],
      "stateMutability": "view",
      "type": "function"
    },
    {
      "inputs": [],
      "name": "STAKING_REQUIREMENT_TOGGLE_ENABLED",
      "outputs": [
        {
          "internalType": "bool",
          "name": "",
          "type": "bool"
        }
      ],
      "stateMutability": "view",
      "type": "function"
    },
    {
      "inputs": [],
      "name": "STRICT_RANDOMNESS_REQUIREMENT",
      "outputs": [
        {
          "internalType": "bool",
          "name": "",
          "type": "bool"
        }
      ],
      "stateMutability": "view",
      "type": "function"
    },
    {
      "inputs": [
        {
          "internalType": "address",
          "name": "_worker",
          "type": "address"
        },
        {
          "internalType": "uint256",
          "name": "_TokensAmountToAllocate",
          "type": "uint256"
        }
      ],
      "name": "SelectAddressForUser",
      "outputs": [
        {
          "internalType": "address",
          "name": "",
          "type": "address"
        }
      ],
      "stateMutability": "view",
      "type": "function"
    },
    {
      "inputs": [
        {
          "internalType": "string[]",
          "name": "file_hashs_",
          "type": "string[]"
        },
        {
          "internalType": "string[]",
          "name": "URL_domains_",
          "type": "string[]"
        },
        {
          "internalType": "uint256[]",
          "name": "item_counts_",
          "type": "uint256[]"
        },
        {
          "internalType": "string",
          "name": "extra_",
          "type": "string"
        }
      ],
      "name": "SpotData",
      "outputs": [
        {
          "internalType": "uint256",
          "name": "Dataid_",
          "type": "uint256"
        }
      ],
      "stateMutability": "nonpayable",
      "type": "function"
    },
    {
      "inputs": [
        {
          "internalType": "uint256",
          "name": "",
          "type": "uint256"
        }
      ],
      "name": "SpotsMapping",
      "outputs": [
        {
          "internalType": "string",
          "name": "ipfs_hash",
          "type": "string"
        },
        {
          "internalType": "address",
          "name": "author",
          "type": "address"
        },
        {
          "internalType": "uint256",
          "name": "timestamp",
          "type": "uint256"
        },
        {
          "internalType": "uint256",
          "name": "item_count",
          "type": "uint256"
        },
        {
          "internalType": "string",
          "name": "URL_domain",
          "type": "string"
        },
        {
          "internalType": "string",
          "name": "extra",
          "type": "string"
        },
        {
          "internalType": "enum DataSpotting.DataStatus",
          "name": "status",
          "type": "uint8"
        }
      ],
      "stateMutability": "view",
      "type": "function"
    },
    {
      "inputs": [
        {
          "internalType": "address",
          "name": "",
          "type": "address"
        }
      ],
      "name": "SystemStakedTokenBalance",
      "outputs": [
        {
          "internalType": "uint256",
          "name": "",
          "type": "uint256"
        }
      ],
      "stateMutability": "view",
      "type": "function"
    },
    {
      "inputs": [],
      "name": "TRIGGER_WITH_SPOTDATA_TOGGLE_ENABLED",
      "outputs": [
        {
          "internalType": "bool",
          "name": "",
          "type": "bool"
        }
      ],
      "stateMutability": "view",
      "type": "function"
    },
    {
      "inputs": [
        {
          "internalType": "uint256",
          "name": "iteration_count",
          "type": "uint256"
        }
      ],
      "name": "TriggerAllocations",
      "outputs": [],
      "stateMutability": "nonpayable",
      "type": "function"
    },
    {
      "inputs": [
        {
          "internalType": "uint256",
          "name": "iteration_count",
          "type": "uint256"
        }
      ],
      "name": "TriggerUpdate",
      "outputs": [],
      "stateMutability": "nonpayable",
      "type": "function"
    },
    {
      "inputs": [
        {
          "internalType": "uint256",
          "name": "iteration_count",
          "type": "uint256"
        }
      ],
      "name": "TriggerValidation",
      "outputs": [],
      "stateMutability": "nonpayable",
      "type": "function"
    },
    {
      "inputs": [],
      "name": "UnregisterWorker",
      "outputs": [],
      "stateMutability": "nonpayable",
      "type": "function"
    },
    {
      "inputs": [
        {
          "internalType": "uint256",
          "name": "",
          "type": "uint256"
        },
        {
          "internalType": "address",
          "name": "",
          "type": "address"
        }
      ],
      "name": "UserBatchCounts",
      "outputs": [
        {
          "internalType": "uint256",
          "name": "",
          "type": "uint256"
        }
      ],
      "stateMutability": "view",
      "type": "function"
    },
    {
      "inputs": [
        {
          "internalType": "uint256",
          "name": "",
          "type": "uint256"
        },
        {
          "internalType": "address",
          "name": "",
          "type": "address"
        }
      ],
      "name": "UserBatchFrom",
      "outputs": [
        {
          "internalType": "string",
          "name": "",
          "type": "string"
        }
      ],
      "stateMutability": "view",
      "type": "function"
    },
    {
      "inputs": [
        {
          "internalType": "address",
          "name": "",
          "type": "address"
        },
        {
          "internalType": "uint256",
          "name": "",
          "type": "uint256"
        }
      ],
      "name": "UserChecksCommits",
      "outputs": [
        {
          "internalType": "bool",
          "name": "",
          "type": "bool"
        }
      ],
      "stateMutability": "view",
      "type": "function"
    },
    {
      "inputs": [
        {
          "internalType": "address",
          "name": "",
          "type": "address"
        },
        {
          "internalType": "uint256",
          "name": "",
          "type": "uint256"
        }
      ],
      "name": "UserChecksReveals",
      "outputs": [
        {
          "internalType": "bool",
          "name": "",
          "type": "bool"
        }
      ],
      "stateMutability": "view",
      "type": "function"
    },
    {
      "inputs": [
        {
          "internalType": "uint256",
          "name": "",
          "type": "uint256"
        },
        {
          "internalType": "address",
          "name": "",
          "type": "address"
        }
      ],
      "name": "UserNewFiles",
      "outputs": [
        {
          "internalType": "string",
          "name": "",
          "type": "string"
        }
      ],
      "stateMutability": "view",
      "type": "function"
    },
    {
      "inputs": [
        {
          "internalType": "address",
          "name": "",
          "type": "address"
        },
        {
          "internalType": "uint256",
          "name": "",
          "type": "uint256"
        }
      ],
      "name": "UserSubmissions",
      "outputs": [
        {
          "internalType": "uint256",
          "name": "",
          "type": "uint256"
        }
      ],
      "stateMutability": "view",
      "type": "function"
    },
    {
      "inputs": [
        {
          "internalType": "uint256",
          "name": "",
          "type": "uint256"
        },
        {
          "internalType": "address",
          "name": "",
          "type": "address"
        }
      ],
      "name": "UserVotes",
      "outputs": [
        {
          "internalType": "uint256",
          "name": "",
          "type": "uint256"
        }
      ],
      "stateMutability": "view",
      "type": "function"
    },
    {
      "inputs": [],
      "name": "VALIDATE_ON_LAST_REVEAL",
      "outputs": [
        {
          "internalType": "bool",
          "name": "",
          "type": "bool"
        }
      ],
      "stateMutability": "view",
      "type": "function"
    },
    {
      "inputs": [
        {
          "internalType": "uint256",
          "name": "",
          "type": "uint256"
        },
        {
          "internalType": "uint256",
          "name": "",
          "type": "uint256"
        }
      ],
      "name": "WorkersPerBatch",
      "outputs": [
        {
          "internalType": "address",
          "name": "",
          "type": "address"
        }
      ],
      "stateMutability": "view",
      "type": "function"
    },
    {
      "inputs": [
        {
          "internalType": "address",
          "name": "",
          "type": "address"
        },
        {
          "internalType": "uint256",
          "name": "",
          "type": "uint256"
        }
      ],
      "name": "WorkersSpotFlowManager",
      "outputs": [
        {
          "internalType": "uint256",
          "name": "timestamp",
          "type": "uint256"
        },
        {
          "internalType": "uint256",
          "name": "counter",
          "type": "uint256"
        }
      ],
      "stateMutability": "view",
      "type": "function"
    },
    {
      "inputs": [
        {
          "internalType": "address",
          "name": "",
          "type": "address"
        }
      ],
      "name": "WorkersState",
      "outputs": [
        {
          "internalType": "uint256",
          "name": "allocated_work_batch",
          "type": "uint256"
        },
        {
          "internalType": "uint256",
          "name": "succeeding_novote_count",
          "type": "uint256"
        },
        {
          "internalType": "uint256",
          "name": "last_interaction_date",
          "type": "uint256"
        },
        {
          "internalType": "bool",
          "name": "registered",
          "type": "bool"
        },
        {
          "internalType": "bool",
          "name": "unregistration_request",
          "type": "bool"
        },
        {
          "internalType": "uint256",
          "name": "registration_date",
          "type": "uint256"
        },
        {
          "internalType": "uint256",
          "name": "allocated_batch_counter",
          "type": "uint256"
        },
        {
          "internalType": "uint256",
          "name": "majority_counter",
          "type": "uint256"
        },
        {
          "internalType": "uint256",
          "name": "minority_counter",
          "type": "uint256"
        }
      ],
      "stateMutability": "view",
      "type": "function"
    },
    {
      "inputs": [
        {
          "internalType": "address",
          "name": "user_",
          "type": "address"
        },
        {
          "internalType": "uint256",
          "name": "_DataBatchId",
          "type": "uint256"
        }
      ],
      "name": "attrUUID",
      "outputs": [
        {
          "internalType": "bytes32",
          "name": "UUID",
          "type": "bytes32"
        }
      ],
      "stateMutability": "pure",
      "type": "function"
    },
    {
      "inputs": [
        {
          "internalType": "uint256",
          "name": "",
          "type": "uint256"
        }
      ],
      "name": "availableWorkers",
      "outputs": [
        {
          "internalType": "address",
          "name": "",
          "type": "address"
        }
      ],
      "stateMutability": "view",
      "type": "function"
    },
    {
      "inputs": [
        {
          "internalType": "address",
          "name": "",
          "type": "address"
        }
      ],
      "name": "availableWorkersIndex",
      "outputs": [
        {
          "internalType": "uint256",
          "name": "",
          "type": "uint256"
        }
      ],
      "stateMutability": "view",
      "type": "function"
    },
    {
      "inputs": [
        {
          "internalType": "uint256",
          "name": "",
          "type": "uint256"
        }
      ],
      "name": "busyWorkers",
      "outputs": [
        {
          "internalType": "address",
          "name": "",
          "type": "address"
        }
      ],
      "stateMutability": "view",
      "type": "function"
    },
    {
      "inputs": [
        {
          "internalType": "address",
          "name": "",
          "type": "address"
        }
      ],
      "name": "busyWorkersIndex",
      "outputs": [
        {
          "internalType": "uint256",
          "name": "",
          "type": "uint256"
        }
      ],
      "stateMutability": "view",
      "type": "function"
    },
    {
      "inputs": [
        {
          "internalType": "uint256",
          "name": "_DataBatchId",
          "type": "uint256"
        }
      ],
      "name": "commitPeriodActive",
      "outputs": [
        {
          "internalType": "bool",
          "name": "active",
          "type": "bool"
        }
      ],
      "stateMutability": "view",
      "type": "function"
    },
    {
      "inputs": [
        {
          "internalType": "uint256",
          "name": "_DataBatchId",
          "type": "uint256"
        }
      ],
      "name": "commitPeriodOver",
      "outputs": [
        {
          "internalType": "bool",
          "name": "active",
          "type": "bool"
        }
      ],
      "stateMutability": "view",
      "type": "function"
    },
    {
      "inputs": [
        {
          "internalType": "uint256",
          "name": "_DataBatchId",
          "type": "uint256"
        },
        {
          "internalType": "bytes32",
          "name": "_encryptedHash",
          "type": "bytes32"
        },
        {
          "internalType": "bytes32",
          "name": "_encryptedVote",
          "type": "bytes32"
        },
        {
          "internalType": "uint256",
          "name": "_BatchCount",
          "type": "uint256"
        },
        {
          "internalType": "string",
          "name": "_From",
          "type": "string"
        }
      ],
      "name": "commitSpotCheck",
      "outputs": [],
      "stateMutability": "nonpayable",
      "type": "function"
    },
    {
      "inputs": [
        {
          "internalType": "uint256",
          "name": "_DataId",
          "type": "uint256"
        }
      ],
      "name": "deleteData",
      "outputs": [],
      "stateMutability": "nonpayable",
      "type": "function"
    },
    {
      "inputs": [
        {
          "internalType": "uint256",
          "name": "_BatchId",
          "type": "uint256"
        }
      ],
      "name": "deleteDataBatch",
      "outputs": [],
      "stateMutability": "nonpayable",
      "type": "function"
    },
    {
      "inputs": [],
      "name": "destroyContract",
      "outputs": [],
      "stateMutability": "nonpayable",
      "type": "function"
    },
    {
      "inputs": [
        {
          "internalType": "address",
          "name": "_voter",
          "type": "address"
        },
        {
          "internalType": "uint256",
          "name": "_DataBatchId",
          "type": "uint256"
        }
      ],
      "name": "didCommit",
      "outputs": [
        {
          "internalType": "bool",
          "name": "committed",
          "type": "bool"
        }
      ],
      "stateMutability": "view",
      "type": "function"
    },
    {
      "inputs": [
        {
          "internalType": "address",
          "name": "_voter",
          "type": "address"
        },
        {
          "internalType": "uint256",
          "name": "_DataBatchId",
          "type": "uint256"
        }
      ],
      "name": "didReveal",
      "outputs": [
        {
          "internalType": "bool",
          "name": "revealed",
          "type": "bool"
        }
      ],
      "stateMutability": "view",
      "type": "function"
    },
    {
      "inputs": [
        {
          "internalType": "uint256",
          "name": "_k",
          "type": "uint256"
        },
        {
          "internalType": "uint256",
          "name": "N_range",
          "type": "uint256"
        }
      ],
      "name": "generateIntegers",
      "outputs": [
        {
          "internalType": "uint256[]",
          "name": "",
          "type": "uint256[]"
        }
      ],
      "stateMutability": "view",
      "type": "function"
    },
    {
      "inputs": [],
      "name": "getAcceptedBatchesCount",
      "outputs": [
        {
          "internalType": "uint256",
          "name": "count",
          "type": "uint256"
        }
      ],
      "stateMutability": "view",
      "type": "function"
    },
    {
      "inputs": [],
      "name": "getActiveWorkersCount",
      "outputs": [
        {
          "internalType": "uint256",
          "name": "numWorkers",
          "type": "uint256"
        }
      ],
      "stateMutability": "view",
      "type": "function"
    },
    {
      "inputs": [
        {
          "internalType": "bytes32",
          "name": "_UUID",
          "type": "bytes32"
        },
        {
          "internalType": "string",
          "name": "_attrName",
          "type": "string"
        }
      ],
      "name": "getAttribute",
      "outputs": [
        {
          "internalType": "uint256",
          "name": "",
          "type": "uint256"
        }
      ],
      "stateMutability": "view",
      "type": "function"
    },
    {
      "inputs": [],
      "name": "getAvailableWorkersCount",
      "outputs": [
        {
          "internalType": "uint256",
          "name": "numWorkers",
          "type": "uint256"
        }
      ],
      "stateMutability": "view",
      "type": "function"
    },
    {
      "inputs": [
        {
          "internalType": "uint256",
          "name": "_DataBatchId",
          "type": "uint256"
        }
      ],
      "name": "getBatchByID",
      "outputs": [
        {
          "components": [
            {
              "internalType": "uint256",
              "name": "start_idx",
              "type": "uint256"
            },
            {
              "internalType": "uint256",
              "name": "counter",
              "type": "uint256"
            },
            {
              "internalType": "uint256",
              "name": "uncommited_workers",
              "type": "uint256"
            },
            {
              "internalType": "uint256",
              "name": "unrevealed_workers",
              "type": "uint256"
            },
            {
              "internalType": "bool",
              "name": "complete",
              "type": "bool"
            },
            {
              "internalType": "bool",
              "name": "checked",
              "type": "bool"
            },
            {
              "internalType": "bool",
              "name": "allocated_to_work",
              "type": "bool"
            },
            {
              "internalType": "uint256",
              "name": "commitEndDate",
              "type": "uint256"
            },
            {
              "internalType": "uint256",
              "name": "revealEndDate",
              "type": "uint256"
            },
            {
              "internalType": "uint256",
              "name": "votesFor",
              "type": "uint256"
            },
            {
              "internalType": "uint256",
              "name": "votesAgainst",
              "type": "uint256"
            },
            {
              "internalType": "string",
              "name": "batchIPFSfile",
              "type": "string"
            },
            {
              "internalType": "uint256",
              "name": "item_count",
              "type": "uint256"
            },
            {
              "internalType": "enum DataSpotting.DataStatus",
              "name": "status",
              "type": "uint8"
            }
          ],
          "internalType": "struct DataSpotting.BatchMetadata",
          "name": "batch",
          "type": "tuple"
        }
      ],
      "stateMutability": "view",
      "type": "function"
    },
    {
      "inputs": [
        {
          "internalType": "uint256",
          "name": "_DataBatchId_a",
          "type": "uint256"
        },
        {
          "internalType": "uint256",
          "name": "_DataBatchId_b",
          "type": "uint256"
        }
      ],
      "name": "getBatchCountForBatch",
      "outputs": [
        {
          "internalType": "uint256",
          "name": "AverageURLCount",
          "type": "uint256"
        },
        {
          "internalType": "uint256[]",
          "name": "batchCounts",
          "type": "uint256[]"
        }
      ],
      "stateMutability": "view",
      "type": "function"
    },
    {
      "inputs": [
        {
          "internalType": "uint256",
          "name": "_DataBatchId",
          "type": "uint256"
        }
      ],
      "name": "getBatchIPFSFileByID",
      "outputs": [
        {
          "internalType": "string",
          "name": "batch",
          "type": "string"
        }
      ],
      "stateMutability": "view",
      "type": "function"
    },
    {
      "inputs": [
        {
          "internalType": "uint256",
          "name": "_DataBatchId_a",
          "type": "uint256"
        },
        {
          "internalType": "uint256",
          "name": "_DataBatchId_b",
          "type": "uint256"
        }
      ],
      "name": "getBatchsFilesByID",
      "outputs": [
        {
          "internalType": "string[]",
          "name": "",
          "type": "string[]"
        }
      ],
      "stateMutability": "view",
      "type": "function"
    },
    {
      "inputs": [],
      "name": "getBusyWorkersCount",
      "outputs": [
        {
          "internalType": "uint256",
          "name": "numWorkers",
          "type": "uint256"
        }
      ],
      "stateMutability": "view",
      "type": "function"
    },
    {
      "inputs": [
        {
          "internalType": "address",
          "name": "_voter",
          "type": "address"
        },
        {
          "internalType": "uint256",
          "name": "_DataBatchId",
          "type": "uint256"
        }
      ],
      "name": "getCommitIPFSHash",
      "outputs": [
        {
          "internalType": "bytes32",
          "name": "commitHash",
          "type": "bytes32"
        }
      ],
      "stateMutability": "view",
      "type": "function"
    },
    {
      "inputs": [
        {
          "internalType": "address",
          "name": "_voter",
          "type": "address"
        },
        {
          "internalType": "uint256",
          "name": "_DataBatchId",
          "type": "uint256"
        }
      ],
      "name": "getCommitVoteHash",
      "outputs": [
        {
          "internalType": "bytes32",
          "name": "commitHash",
          "type": "bytes32"
        }
      ],
      "stateMutability": "view",
      "type": "function"
    },
    {
      "inputs": [
        {
          "internalType": "uint256",
          "name": "_DataId",
          "type": "uint256"
        }
      ],
      "name": "getDataByID",
      "outputs": [
        {
          "components": [
            {
              "internalType": "string",
              "name": "ipfs_hash",
              "type": "string"
            },
            {
              "internalType": "address",
              "name": "author",
              "type": "address"
            },
            {
              "internalType": "uint256",
              "name": "timestamp",
              "type": "uint256"
            },
            {
              "internalType": "uint256",
              "name": "item_count",
              "type": "uint256"
            },
            {
              "internalType": "string",
              "name": "URL_domain",
              "type": "string"
            },
            {
              "internalType": "string",
              "name": "extra",
              "type": "string"
            },
            {
              "internalType": "enum DataSpotting.DataStatus",
              "name": "status",
              "type": "uint8"
            }
          ],
          "internalType": "struct DataSpotting.SpottedData",
          "name": "data",
          "type": "tuple"
        }
      ],
      "stateMutability": "view",
      "type": "function"
    },
    {
      "inputs": [
        {
          "internalType": "uint256",
          "name": "_DataBatchId",
          "type": "uint256"
        }
      ],
      "name": "getDomainsForBatch",
      "outputs": [
        {
          "internalType": "string[]",
          "name": "",
          "type": "string[]"
        }
      ],
      "stateMutability": "view",
      "type": "function"
    },
    {
      "inputs": [
        {
          "internalType": "uint256",
          "name": "_clearVote",
          "type": "uint256"
        },
        {
          "internalType": "uint256",
          "name": "_salt",
          "type": "uint256"
        }
      ],
      "name": "getEncryptedHash",
      "outputs": [
        {
          "internalType": "bytes32",
          "name": "keccak256hash",
          "type": "bytes32"
        }
      ],
      "stateMutability": "pure",
      "type": "function"
    },
    {
      "inputs": [
        {
          "internalType": "string",
          "name": "_hash",
          "type": "string"
        },
        {
          "internalType": "uint256",
          "name": "_salt",
          "type": "uint256"
        }
      ],
      "name": "getEncryptedStringHash",
      "outputs": [
        {
          "internalType": "bytes32",
          "name": "keccak256hash",
          "type": "bytes32"
        }
      ],
      "stateMutability": "pure",
      "type": "function"
    },
    {
      "inputs": [
        {
          "internalType": "uint256",
          "name": "_DataBatchId",
          "type": "uint256"
        }
      ],
      "name": "getFromsForBatch",
      "outputs": [
        {
          "internalType": "string[]",
          "name": "",
          "type": "string[]"
        }
      ],
      "stateMutability": "view",
      "type": "function"
    },
    {
      "inputs": [],
      "name": "getGlobalPeriodSpotCount",
      "outputs": [
        {
          "internalType": "uint256",
          "name": "",
          "type": "uint256"
        }
      ],
      "stateMutability": "view",
      "type": "function"
    },
    {
      "inputs": [
        {
          "internalType": "uint256",
          "name": "_DataBatchId",
          "type": "uint256"
        }
      ],
      "name": "getIPFShashesForBatch",
      "outputs": [
        {
          "internalType": "string[]",
          "name": "",
          "type": "string[]"
        }
      ],
      "stateMutability": "view",
      "type": "function"
    },
    {
      "inputs": [
        {
          "internalType": "address",
          "name": "_voter",
          "type": "address"
        },
        {
          "internalType": "uint256",
          "name": "_numTokens",
          "type": "uint256"
        },
        {
          "internalType": "uint256",
          "name": "_DataBatchId",
          "type": "uint256"
        }
      ],
      "name": "getInsertPointForNumTokens",
      "outputs": [
        {
          "internalType": "uint256",
          "name": "prevNode",
          "type": "uint256"
        }
      ],
      "stateMutability": "view",
      "type": "function"
    },
    {
      "inputs": [],
      "name": "getItemCounter",
      "outputs": [
        {
          "internalType": "uint256",
          "name": "Counter",
          "type": "uint256"
        }
      ],
      "stateMutability": "view",
      "type": "function"
    },
    {
      "inputs": [],
      "name": "getLastAllocatedBatchId",
      "outputs": [
        {
          "internalType": "uint256",
          "name": "LastAllocatedBatchId",
          "type": "uint256"
        }
      ],
      "stateMutability": "view",
      "type": "function"
    },
    {
      "inputs": [],
      "name": "getLastBatchId",
      "outputs": [
        {
          "internalType": "uint256",
          "name": "LastBatchId",
          "type": "uint256"
        }
      ],
      "stateMutability": "view",
      "type": "function"
    },
    {
      "inputs": [],
      "name": "getLastCheckedBatchId",
      "outputs": [
        {
          "internalType": "uint256",
          "name": "LastCheckedBatchId",
          "type": "uint256"
        }
      ],
      "stateMutability": "view",
      "type": "function"
    },
    {
      "inputs": [],
      "name": "getLastDataId",
      "outputs": [
        {
          "internalType": "uint256",
          "name": "DataId",
          "type": "uint256"
        }
      ],
      "stateMutability": "view",
      "type": "function"
    },
    {
      "inputs": [
        {
          "internalType": "address",
          "name": "_voter",
          "type": "address"
        }
      ],
      "name": "getLastNode",
      "outputs": [
        {
          "internalType": "uint256",
          "name": "DataID",
          "type": "uint256"
        }
      ],
      "stateMutability": "view",
      "type": "function"
    },
    {
      "inputs": [
        {
          "internalType": "address",
          "name": "_voter",
          "type": "address"
        }
      ],
      "name": "getLockedTokens",
      "outputs": [
        {
          "internalType": "uint256",
          "name": "numTokens",
          "type": "uint256"
        }
      ],
      "stateMutability": "view",
      "type": "function"
    },
    {
      "inputs": [
        {
          "internalType": "uint256",
          "name": "_DataBatchId_a",
          "type": "uint256"
        },
        {
          "internalType": "uint256",
          "name": "_DataBatchId_b",
          "type": "uint256"
        }
      ],
      "name": "getMultiBatchIPFShashes",
      "outputs": [
        {
          "internalType": "string[]",
          "name": "",
          "type": "string[]"
        }
      ],
      "stateMutability": "view",
      "type": "function"
    },
    {
      "inputs": [
        {
          "internalType": "address",
          "name": "_voter",
          "type": "address"
        },
        {
          "internalType": "uint256",
          "name": "_DataBatchId",
          "type": "uint256"
        },
        {
          "internalType": "uint256",
          "name": "_salt",
          "type": "uint256"
        }
      ],
      "name": "getNumPassingTokens",
      "outputs": [
        {
          "internalType": "uint256",
          "name": "correctSpotChecks",
          "type": "uint256"
        }
      ],
      "stateMutability": "view",
      "type": "function"
    },
    {
      "inputs": [
        {
          "internalType": "address",
          "name": "_voter",
          "type": "address"
        },
        {
          "internalType": "uint256",
          "name": "_DataBatchId",
          "type": "uint256"
        }
      ],
      "name": "getNumTokens",
      "outputs": [
        {
          "internalType": "uint256",
          "name": "numTokens",
          "type": "uint256"
        }
      ],
      "stateMutability": "view",
      "type": "function"
    },
    {
      "inputs": [],
      "name": "getPeriodItemCount",
      "outputs": [
        {
          "internalType": "uint256",
          "name": "",
          "type": "uint256"
        }
      ],
      "stateMutability": "view",
      "type": "function"
    },
    {
      "inputs": [],
      "name": "getRandom",
      "outputs": [
        {
          "internalType": "uint256",
          "name": "",
          "type": "uint256"
        }
      ],
      "stateMutability": "view",
      "type": "function"
    },
    {
      "inputs": [],
      "name": "getRejectedBatchesCount",
      "outputs": [
        {
          "internalType": "uint256",
          "name": "count",
          "type": "uint256"
        }
      ],
      "stateMutability": "view",
      "type": "function"
    },
    {
      "inputs": [],
      "name": "getSeed",
      "outputs": [
        {
          "internalType": "bytes32",
          "name": "addr",
          "type": "bytes32"
        }
      ],
      "stateMutability": "view",
      "type": "function"
    },
    {
      "inputs": [
        {
          "internalType": "uint256",
          "name": "_DataBatchId",
          "type": "uint256"
        }
      ],
      "name": "getSubmittedFilesForBatch",
      "outputs": [
        {
          "internalType": "string[]",
          "name": "",
          "type": "string[]"
        }
      ],
      "stateMutability": "view",
      "type": "function"
    },
    {
      "inputs": [
        {
          "internalType": "address",
          "name": "user_",
          "type": "address"
        }
      ],
      "name": "getSystemTokenBalance",
      "outputs": [
        {
          "internalType": "uint256",
          "name": "tokens",
          "type": "uint256"
        }
      ],
      "stateMutability": "view",
      "type": "function"
    },
    {
      "inputs": [],
      "name": "getTxCounter",
      "outputs": [
        {
          "internalType": "uint256",
          "name": "Counter",
          "type": "uint256"
        }
      ],
      "stateMutability": "view",
      "type": "function"
    },
    {
      "inputs": [
        {
          "internalType": "address",
          "name": "user",
          "type": "address"
        }
      ],
      "name": "getUserDatas",
      "outputs": [
        {
          "internalType": "uint256[]",
          "name": "user_Datas",
          "type": "uint256[]"
        }
      ],
      "stateMutability": "view",
      "type": "function"
    },
    {
      "inputs": [
        {
          "internalType": "address",
          "name": "user_",
          "type": "address"
        }
      ],
      "name": "getUserPeriodSpotCount",
      "outputs": [
        {
          "internalType": "uint256",
          "name": "",
          "type": "uint256"
        }
      ],
      "stateMutability": "view",
      "type": "function"
    },
    {
      "inputs": [
        {
          "internalType": "uint256",
          "name": "_DataBatchId",
          "type": "uint256"
        }
      ],
      "name": "getVotesForBatch",
      "outputs": [
        {
          "internalType": "uint256[]",
          "name": "",
          "type": "uint256[]"
        }
      ],
      "stateMutability": "view",
      "type": "function"
    },
    {
      "inputs": [
        {
          "internalType": "address",
          "name": "",
          "type": "address"
        }
      ],
      "name": "isAvailableWorker",
      "outputs": [
        {
          "internalType": "bool",
          "name": "",
          "type": "bool"
        }
      ],
      "stateMutability": "view",
      "type": "function"
    },
    {
      "inputs": [
        {
          "internalType": "address",
          "name": "",
          "type": "address"
        }
      ],
      "name": "isBusyWorker",
      "outputs": [
        {
          "internalType": "bool",
          "name": "",
          "type": "bool"
        }
      ],
      "stateMutability": "view",
      "type": "function"
    },
    {
      "inputs": [
        {
          "internalType": "uint256",
          "name": "_terminationDate",
          "type": "uint256"
        }
      ],
      "name": "isExpired",
      "outputs": [
        {
          "internalType": "bool",
          "name": "expired",
          "type": "bool"
        }
      ],
      "stateMutability": "view",
      "type": "function"
    },
    {
      "inputs": [
        {
          "internalType": "address",
          "name": "_worker",
          "type": "address"
        }
      ],
      "name": "isInAvailableWorkers",
      "outputs": [
        {
          "internalType": "bool",
          "name": "",
          "type": "bool"
        }
      ],
      "stateMutability": "view",
      "type": "function"
    },
    {
      "inputs": [
        {
          "internalType": "address",
          "name": "_worker",
          "type": "address"
        }
      ],
      "name": "isInBusyWorkers",
      "outputs": [
        {
          "internalType": "bool",
          "name": "",
          "type": "bool"
        }
      ],
      "stateMutability": "view",
      "type": "function"
    },
    {
      "inputs": [
        {
          "internalType": "uint256",
          "name": "_DataBatchId",
          "type": "uint256"
        }
      ],
      "name": "isPassed",
      "outputs": [
        {
          "internalType": "bool",
          "name": "passed",
          "type": "bool"
        }
      ],
      "stateMutability": "view",
      "type": "function"
    },
    {
      "inputs": [
        {
          "internalType": "address",
          "name": "",
          "type": "address"
        }
      ],
      "name": "isToUnregisterWorker",
      "outputs": [
        {
          "internalType": "bool",
          "name": "",
          "type": "bool"
        }
      ],
      "stateMutability": "view",
      "type": "function"
    },
    {
      "inputs": [
        {
          "internalType": "uint256",
          "name": "_DataBatchId",
          "type": "uint256"
        },
        {
          "internalType": "address",
          "name": "_worker",
          "type": "address"
        }
      ],
      "name": "isWorkerAllocatedToBatch",
      "outputs": [
        {
          "internalType": "bool",
          "name": "",
          "type": "bool"
        }
      ],
      "stateMutability": "view",
      "type": "function"
    },
    {
      "inputs": [
        {
          "internalType": "address",
          "name": "_worker",
          "type": "address"
        }
      ],
      "name": "isWorkerRegistered",
      "outputs": [
        {
          "internalType": "bool",
          "name": "passed",
          "type": "bool"
        }
      ],
      "stateMutability": "view",
      "type": "function"
    },
    {
      "inputs": [],
      "name": "owner",
      "outputs": [
        {
          "internalType": "address",
          "name": "",
          "type": "address"
        }
      ],
      "stateMutability": "view",
      "type": "function"
    },
    {
      "inputs": [
        {
          "internalType": "uint256",
          "name": "k",
          "type": "uint256"
        },
        {
          "internalType": "uint256",
          "name": "N",
          "type": "uint256"
        }
      ],
      "name": "random_selection",
      "outputs": [
        {
          "internalType": "uint256[]",
          "name": "",
          "type": "uint256[]"
        }
      ],
      "stateMutability": "view",
      "type": "function"
    },
    {
      "inputs": [
        {
          "internalType": "uint256",
          "name": "_DataBatchId",
          "type": "uint256"
        }
      ],
      "name": "remainingCommitDuration",
      "outputs": [
        {
          "internalType": "uint256",
          "name": "remainingTime",
          "type": "uint256"
        }
      ],
      "stateMutability": "view",
      "type": "function"
    },
    {
      "inputs": [
        {
          "internalType": "uint256",
          "name": "_DataBatchId",
          "type": "uint256"
        }
      ],
      "name": "remainingRevealDuration",
      "outputs": [
        {
          "internalType": "uint256",
          "name": "remainingTime",
          "type": "uint256"
        }
      ],
      "stateMutability": "view",
      "type": "function"
    },
    {
      "inputs": [],
      "name": "renounceOwnership",
      "outputs": [],
      "stateMutability": "nonpayable",
      "type": "function"
    },
    {
      "inputs": [
        {
          "internalType": "uint256",
          "name": "_DataBatchId",
          "type": "uint256"
        }
      ],
      "name": "rescueTokens",
      "outputs": [],
      "stateMutability": "nonpayable",
      "type": "function"
    },
    {
      "inputs": [
        {
          "internalType": "uint256[]",
          "name": "_DataBatchIDs",
          "type": "uint256[]"
        }
      ],
      "name": "rescueTokensInMultipleDatas",
      "outputs": [],
      "stateMutability": "nonpayable",
      "type": "function"
    },
    {
      "inputs": [
        {
          "internalType": "uint256",
          "name": "_DataBatchId",
          "type": "uint256"
        }
      ],
      "name": "revealPeriodActive",
      "outputs": [
        {
          "internalType": "bool",
          "name": "active",
          "type": "bool"
        }
      ],
      "stateMutability": "view",
      "type": "function"
    },
    {
      "inputs": [
        {
          "internalType": "uint256",
          "name": "_DataBatchId",
          "type": "uint256"
        }
      ],
      "name": "revealPeriodOver",
      "outputs": [
        {
          "internalType": "bool",
          "name": "active",
          "type": "bool"
        }
      ],
      "stateMutability": "view",
      "type": "function"
    },
    {
      "inputs": [
        {
          "internalType": "uint256",
          "name": "_DataBatchId",
          "type": "uint256"
        },
        {
          "internalType": "string",
          "name": "_clearIPFSHash",
          "type": "string"
        },
        {
          "internalType": "uint256",
          "name": "_clearVote",
          "type": "uint256"
        },
        {
          "internalType": "uint256",
          "name": "_salt",
          "type": "uint256"
        }
      ],
      "name": "revealSpotCheck",
      "outputs": [],
      "stateMutability": "nonpayable",
      "type": "function"
    },
    {
      "inputs": [
        {
          "internalType": "uint256",
          "name": "",
          "type": "uint256"
        }
      ],
      "name": "toUnregisterWorkers",
      "outputs": [
        {
          "internalType": "address",
          "name": "",
          "type": "address"
        }
      ],
      "stateMutability": "view",
      "type": "function"
    },
    {
      "inputs": [
        {
          "internalType": "address",
          "name": "",
          "type": "address"
        }
      ],
      "name": "toUnregisterWorkersIndex",
      "outputs": [
        {
          "internalType": "uint256",
          "name": "",
          "type": "uint256"
        }
      ],
      "stateMutability": "view",
      "type": "function"
    },
    {
      "inputs": [
        {
          "internalType": "bool",
          "name": "toggle_",
          "type": "bool"
        }
      ],
      "name": "toggleForceValidateBatchFile",
      "outputs": [],
      "stateMutability": "nonpayable",
      "type": "function"
    },
    {
      "inputs": [
        {
          "internalType": "bool",
          "name": "toggle_",
          "type": "bool"
        }
      ],
      "name": "toggleRequiredStaking",
      "outputs": [],
      "stateMutability": "nonpayable",
      "type": "function"
    },
    {
      "inputs": [
        {
          "internalType": "bool",
          "name": "toggle_",
          "type": "bool"
        }
      ],
      "name": "toggleStrictRandomness",
      "outputs": [],
      "stateMutability": "nonpayable",
      "type": "function"
    },
    {
      "inputs": [
        {
          "internalType": "bool",
          "name": "toggle_",
          "type": "bool"
        }
      ],
      "name": "toggleTriggerSpotData",
      "outputs": [],
      "stateMutability": "nonpayable",
      "type": "function"
    },
    {
      "inputs": [
        {
          "internalType": "bool",
          "name": "toggle_",
          "type": "bool"
        }
      ],
      "name": "toggleValidateLastReveal",
      "outputs": [],
      "stateMutability": "nonpayable",
      "type": "function"
    },
    {
      "inputs": [],
      "name": "token",
      "outputs": [
        {
          "internalType": "contract IERC20",
          "name": "",
          "type": "address"
        }
      ],
      "stateMutability": "view",
      "type": "function"
    },
    {
      "inputs": [
        {
          "internalType": "address",
          "name": "newOwner",
          "type": "address"
        }
      ],
      "name": "transferOwnership",
      "outputs": [],
      "stateMutability": "nonpayable",
      "type": "function"
    },
    {
      "inputs": [
        {
          "internalType": "uint256",
          "name": "new_limit_",
          "type": "uint256"
        }
      ],
      "name": "updateGasLeftLimit",
      "outputs": [],
      "stateMutability": "nonpayable",
      "type": "function"
    },
    {
      "inputs": [],
      "name": "updateGlobalSpotFlow",
      "outputs": [],
      "stateMutability": "nonpayable",
      "type": "function"
    },
    {
      "inputs": [
        {
          "internalType": "bool",
          "name": "state_",
          "type": "bool"
        },
        {
          "internalType": "uint256",
          "name": "divider_",
          "type": "uint256"
        }
      ],
      "name": "updateInstantRevealRewards",
      "outputs": [],
      "stateMutability": "nonpayable",
      "type": "function"
    },
    {
      "inputs": [
        {
          "internalType": "bool",
          "name": "state_",
          "type": "bool"
        },
        {
          "internalType": "uint256",
          "name": "divider_",
          "type": "uint256"
        }
      ],
      "name": "updateInstantSpotRewards",
      "outputs": [],
      "stateMutability": "nonpayable",
      "type": "function"
    },
    {
      "inputs": [],
      "name": "updateItemCount",
      "outputs": [],
      "stateMutability": "nonpayable",
      "type": "function"
    },
    {
      "inputs": [
        {
          "internalType": "uint256",
          "name": "MaxPendingDataBatchCount_",
          "type": "uint256"
        }
      ],
      "name": "updateMaxPendingDataBatch",
      "outputs": [],
      "stateMutability": "nonpayable",
      "type": "function"
    },
    {
      "inputs": [
        {
          "internalType": "address",
          "name": "addr",
          "type": "address"
        }
      ],
      "name": "updateParametersManager",
      "outputs": [],
      "stateMutability": "nonpayable",
      "type": "function"
    },
    {
      "inputs": [
        {
          "internalType": "uint256",
          "name": "file_size_",
          "type": "uint256"
        }
      ],
      "name": "updateSpotFileSize",
      "outputs": [],
      "stateMutability": "nonpayable",
      "type": "function"
    },
    {
      "inputs": [
        {
          "internalType": "address",
          "name": "user_",
          "type": "address"
        }
      ],
      "name": "updateUserSpotFlow",
      "outputs": [],
      "stateMutability": "nonpayable",
      "type": "function"
    },
    {
      "inputs": [
        {
          "internalType": "uint256",
          "name": "_prevID",
          "type": "uint256"
        },
        {
          "internalType": "uint256",
          "name": "_nextID",
          "type": "uint256"
        },
        {
          "internalType": "address",
          "name": "_voter",
          "type": "address"
        },
        {
          "internalType": "uint256",
          "name": "_numTokens",
          "type": "uint256"
        }
      ],
      "name": "validPosition",
      "outputs": [
        {
          "internalType": "bool",
          "name": "APPROVED",
          "type": "bool"
        }
      ],
      "stateMutability": "view",
      "type": "function"
    },
    {
      "inputs": [
        {
          "internalType": "uint256",
          "name": "_numTokens",
          "type": "uint256"
        },
        {
          "internalType": "address",
          "name": "user_",
          "type": "address"
        }
      ],
      "name": "withdrawVotingRights",
      "outputs": [],
      "stateMutability": "nonpayable",
      "type": "function"
    }
  ],
  "bytecode": "0x6080604052600060018181556056829055605782905560588190556059819055605a819055605b819055605c829055605d829055605e829055605f82905560608290556061919091556062805461ff001960ff19909116909217919091166101001790556005606355600260649081556103e8606555606655620f42406067556068805460ff60201b1963ffffffff19909116630100000017166401000000001790556402540be3ff606a55348015620000b857600080fd5b506040516200d08c3803806200d08c833981016040819052620000db9162000189565b620000ef620000e962000135565b62000139565b6001600160a01b0381166200010357600080fd5b606880546001600160a01b039092166501000000000002600160281b600160c81b0319909216919091179055620001b9565b3390565b600080546001600160a01b038381166001600160a01b0319831681178455604051919092169283917f8be0079c531659141344cd1fd0a4f28419497f9722a3daafe3b4186f6b6457e09190a35050565b6000602082840312156200019b578081fd5b81516001600160a01b0381168114620001b2578182fd5b9392505050565b61cec380620001c96000396000f3fe608060405234801561001057600080fd5b506004361061088d5760003560e01c8063821aa8c011610463578063bda1e6091161024c578063e604c12711610146578063f716596d116100ce578063facd741711610092578063facd74171461121e578063fc0c546a14611231578063fca4956314611239578063fd4148811461124c578063ff43de9d1461125f5761088d565b8063f716596d146111e0578063f721de4a146111e8578063f7c544fe146111fb578063f80a23fd1461120e578063f96305f0146112165761088d565b8063ef4fcdad11610115578063ef4fcdad146111a2578063f2d9e74d146111aa578063f2fde38b146111b2578063f4cdfcc4146111c5578063f5ae7c7d146111d85761088d565b8063e604c12714611161578063e798a7da14611174578063eb1322ff14611187578063ed8becfa1461118f5761088d565b8063d186981d116101d4578063d8b7567411610198578063d8b756741461110b578063d9548e531461111e578063d9845fb814611131578063e23fcd1a14611151578063e59d0289146111595761088d565b8063d186981d146110c2578063d420ec0b146110d5578063d58f575c146110e8578063d6b0206c146110f0578063d817587e146110f85761088d565b8063cb2793891161021b578063cb27938914611084578063cdf46a781461108c578063cf78c54a14611094578063d0d41def146110a7578063d1382092146110af5761088d565b8063bda1e60914611043578063c46f17d014611056578063c4e4f82a1461105e578063c6b65063146110715761088d565b8063a1103f371161035d578063aacc5a17116102e5578063b1d7ea98116102a9578063b1d7ea9814610ffa578063b2850d771461100d578063b43bd06914611015578063b5485f6214611028578063b8f011b3146110305761088d565b8063aacc5a1714610fa6578063b0bc471e14610fae578063b10aa58414610fc1578063b1a2e0be14610fd4578063b1cf4a7e14610fe75761088d565b8063a511dba01161032c578063a511dba014610f52578063a7ba29d114610f5a578063a905779014610f6d578063a98eb31e14610f80578063aa7ca46414610f935761088d565b8063a1103f3714610f1c578063a1b6b5b714610f2f578063a350715a14610f37578063a4439dc514610f3f5761088d565b80638c89d027116103eb5780639769d846116103af5780639769d84614610ec85780639a1cbfd314610ed05780639d6e3f9614610ee35780639e05cbc214610ef65780639fc9c52f14610f095761088d565b80638c89d02714610e5f5780638ccb7eec14610e875780638da5cb5b14610e9a5780638df0296e14610ea25780639760356014610eb55761088d565b80638480a221116104325780638480a22114610e0b5780638746ff8a14610e1357806388d072eb14610e265780638a1479c814610e395780638bf8a33814610e4c5761088d565b8063821aa8c014610dca5780638356443a14610ddd57806383e5a8f614610df05780638473850b14610e035761088d565b806348cbd8f8116106855780636371d81f1161057f5780637860dd41116105075780637f9510a2116104cb5780637f9510a214610d675780637f97e83614610d6f5780637fabe35b14610d82578063815ce74714610daf578063819b029314610db75761088d565b80637860dd4114610d085780637a30332214610d1b5780637ad3be1114610d2e5780637ae3d59b14610d415780637e97561b14610d545761088d565b80637074222b1161054e5780637074222b14610cca578063715018a614610cdd57806371880b1b14610ce557806375b7536c14610cf8578063763a39f214610d005761088d565b80636371d81f14610c7e57806363b563a814610c915780636b2d95d414610ca45780637018e9c614610cb75761088d565b806353bf27f11161060d5780635a452943116105d15780635a45294314610c1d5780635b113a5514610c3d5780635dc44cf114610c505780635df6055d14610c63578063607d5efa14610c765761088d565b806353bf27f114610bc9578063576a554314610bd1578063579db71c14610be457806359da7baf14610bf757806359fcf77614610c0a5761088d565b80634bad8d24116106545780634bad8d2414610b725780634fe8b4c114610b935780634ffd734314610ba6578063515535e814610bae578063538e498c14610bb65761088d565b806348cbd8f814610b315780634940318314610b445780634a2b979f14610b575780634a45cd8414610b5f5761088d565b80632d917c68116107965780633cab7fcb1161071e57806342e1e071116106e257806342e1e07114610af3578063441c77c014610b0657806345feae8914610b1957806347fe2d2014610b215780634852e2f014610b295761088d565b80633cab7fcb14610aaa5780633de4b29314610abd5780633f7e62f314610ac5578063413b90f714610acd578063427fa1d214610ae05761088d565b806331e2f2851161076557806331e2f28514610a3b5780633538af8214610a4e57806339e7357c14610a6e5780633aed0be514610a765780633c062cc814610a895761088d565b80632d917c68146109ed5780632dbfca6a14610a005780632eaff49914610a135780632f469fd114610a1b5761088d565b80631336daec1161081957806319d90346116107e857806319d9034614610997578063226ed300146109b7578063275c2590146109ca578063289bd482146109d25780632c052031146109da5761088d565b80631336daec14610961578063154fd39b14610974578063168231071461097c57806316860ec51461098f5761088d565b806307c037011161086057806307c0370114610903578063086eafa314610916578063092a5cce1461092b5780630b96c5b0146109335780630e6661a7146109595761088d565b806301a48b981461089257806301aa5f73146108bb57806305957623146108db57806306ec9676146108f0575b600080fd5b6108a56108a036600461b6a2565b611267565b6040516108b2919061b99b565b60405180910390f35b6108ce6108c936600461b6a2565b611404565b6040516108b2919061b8ce565b6108ee6108e936600461b3ac565b611461565b005b6108ee6108fe36600461b5a9565b61148b565b6108ee61091136600461b6a2565b6114b1565b61091e6114be565b6040516108b2919061b9ae565b6108ee6114cc565b61094661094136600461b6a2565b6114e7565b6040516108b2979695949392919061b9cc565b6108ce6116cb565b6108ee61096f36600461b571565b6116d1565b6108ce6116f5565b6108ee61098a36600461b6a2565b6116fb565b6108ee611804565b6109aa6109a536600461b6a2565b6119df565b6040516108b2919061b93b565b61091e6109c536600461b6a2565b611cfa565b6108ee611d3c565b6108ce611ebd565b6108ce6109e836600461b40f565b611f19565b61091e6109fb36600461b3e4565b6120b6565b61091e610a0e36600461b3ac565b6120d6565b61091e61221b565b610a2e610a2936600461b6cb565b612229565b6040516108b2919061b9b9565b6108ce610a4936600461b3ac565b6122ce565b610a61610a5c36600461b6a2565b6122e0565b6040516108b2919061b927565b6108ce61230a565b61091e610a8436600461b3ac565b612327565b610a9c610a9736600461b6a2565b612345565b6040516108b292919061b919565b6108ce610ab836600461b443565b612367565b6108ce6134a5565b6108ce6134ab565b610a9c610adb36600461b3e4565b6134b1565b6108ce610aee36600461b3ac565b6134e1565b6109aa610b0136600461b7a2565b613581565b61091e610b1436600461b6a2565b6136fc565b61091e613756565b6108ce61375f565b6108ce613765565b6108ee610b3f36600461b6cb565b61376b565b61091e610b5236600461b6a2565b61397b565b6108ce613bc7565b61091e610b6d36600461b3ac565b613bcd565b610b85610b8036600461b7a2565b613beb565b6040516108b292919061cb82565b6108ee610ba136600461b6a2565b613e9a565b61091e613f08565b6108ce613f19565b6108ce610bc436600461b3ac565b613f1f565b6108ce613f31565b6108ee610bdf36600461b3ac565b613f37565b6108a5610bf236600461b3ac565b614126565b610a9c610c0536600461b6a2565b614192565b6108ce610c1836600461b3ac565b6141a2565b610c30610c2b36600461b6a2565b6141b4565b6040516108b2919061cab1565b6108ce610c4b36600461b6cb565b614409565b6108ce610c5e36600461b3e4565b614426565b6109aa610c7136600461b6a2565b614457565b6108ee614674565b6108ee610c8c36600461b6a2565b614845565b61091e610c9f36600461b6a2565b6148c1565b6108ce610cb236600461b3ac565b614914565b61091e610cc536600461b6a2565b614923565b6108ce610cd836600461b3ac565b614964565b6108ee61497f565b6108ce610cf336600461b6a2565b614993565b6108ce6149d0565b6108ce6149d6565b6108ce610d1636600461b6a2565b6149dc565b6108ee610d2936600461b6a2565b614a30565b6108ce610d3c36600461b3e4565b614a93565b6108ee610d4f36600461b571565b614aca565b6108ee610d6236600461b6a2565b614af0565b6108ce614afd565b61091e610d7d36600461b3e4565b614b14565b610d95610d9036600461b6a2565b614b67565b6040516108b29e9d9c9b9a9998979695949392919061cbf0565b6108ce614c67565b61091e610dc536600461b7c3565b614cbd565b610a61610dd836600461b6a2565b614cfe565b6108ee610deb36600461b571565b614d0e565b6108ee610dfe36600461b6fa565b614d36565b6108ce61530f565b6108ce615315565b610a61610e2136600461b3e4565b61531b565b610a2e610e3436600461b6cb565b61578f565b61091e610e4736600461b3ac565b6157b3565b6108ce610e5a36600461b5c6565b6157c8565b610e72610e6d36600461b3ac565b61580b565b6040516108b29998979695949392919061cbb1565b61091e610e9536600461b3ac565b615856565b610a61615874565b610a61610eb036600461b7a2565b615883565b6108ee610ec336600461b6a2565b6158bb565b6108ce615a72565b6108ee610ede36600461b571565b615a78565b6108ce610ef136600461b3ac565b615a9a565b6108ee610f0436600461b6a2565b615b05565b6108ee610f1736600461b53f565b615c85565b6108ce610f2a36600461b3e4565b615cd3565b6108ce615d06565b6108ce615d0c565b61091e610f4d36600461b6a2565b615d12565b6108ce615d74565b61091e610f6836600461b3ac565b615d7a565b61091e610f7b36600461b60a565b615d8f565b6108ee610f8e36600461b74e565b615df5565b61091e610fa136600461b3e4565b61658c565b6108ce6165df565b6108ce610fbc36600461b3e4565b616694565b610a61610fcf36600461b6a2565b6166cb565b61091e610fe236600461b3ac565b6166db565b6108ce610ff536600461b7a2565b6167a8565b6108a561100836600461b7a2565b6167bd565b61091e616b02565b6108ce61102336600461b40f565b616b11565b61091e616bfd565b6108a561103e36600461b7a2565b616c08565b6108ee61105136600461b571565b616c57565b6108ce616c72565b6108ce61106c36600461b6a2565b616c78565b61091e61107f36600461b3ac565b616cb5565b6108ce616cca565b61091e616cd0565b6108ce6110a236600461b3ac565b616ce0565b6108ce616cf2565b6108ce6110bd36600461b3e4565b616cf8565b61091e6110d036600461b6cb565b616d2e565b61091e6110e336600461b3e4565b616e09565b6108ce616e29565b6108ce616e2f565b6109aa61110636600461b6a2565b616e35565b6108ce61111936600461b6cb565b617052565b61091e61112c36600461b6a2565b61706c565b61114461113f36600461b6a2565b617071565b6040516108b2919061c9bf565b6108ce6171f5565b61091e6171fb565b610a2e61116f36600461b6a2565b617204565b61091e61118236600461b3ac565b6172af565b6108ce6172d0565b6109aa61119d36600461b6a2565b6172d6565b6108ce6175e5565b6108ce6175eb565b6108ee6111c036600461b3ac565b6175f1565b6108ce6111d336600461b660565b617628565b6108ce61763d565b6108ee617643565b61091e6111f636600461b6a2565b617a56565b6108ee61120936600461b5a9565b617a5e565b61091e617a7d565b6108ce617a96565b6108ee61122c36600461b6a2565b617a9c565b610a61617aa9565b6108ce61124736600461b3ac565b617ac1565b6109aa61125a36600461b7a2565b617b75565b610a61618087565b606061127282617a56565b6112975760405162461bcd60e51b815260040161128e9061c6ed565b60405180910390fd5b6000828152604c60209081526040808320805482518185028101850190935280835291929091908301828280156112f757602002820191906000526020600020905b81546001600160a01b031681526001909101906020018083116112d9575b50505050509050600081516001600160401b0381111561132757634e487b7160e01b600052604160045260246000fd5b604051908082528060200260200182016040528015611350578160200160208202803683370190505b50905060005b82518110156113fa5760406000868152602001908152602001600020600084838151811061139457634e487b7160e01b600052603260045260246000fd5b60200260200101516001600160a01b03166001600160a01b03168152602001908152602001600020548282815181106113dd57634e487b7160e01b600052603260045260246000fd5b6020908102919091010152806113f28161cdd9565b915050611356565b509150505b919050565b600061140f82617a56565b61142b5760405162461bcd60e51b815260040161128e9061c6ed565b6000611436836136fc565b1561145b5760008381526048602052604090206006015461145890429061cd5b565b90505b92915050565b611469618096565b606980546001600160a01b0319166001600160a01b0392909216919091179055565b611493618096565b606280549215156101000261ff001990931692909217909155606455565b6114b9618096565b606655565b606854610100900460ff1681565b6114d4618096565b6114dc615874565b6001600160a01b0316ff5b6047602052600090815260409020805481906115029061cd9e565b80601f016020809104026020016040519081016040528092919081815260200182805461152e9061cd9e565b801561157b5780601f106115505761010080835404028352916020019161157b565b820191906000526020600020905b81548152906001019060200180831161155e57829003601f168201915b50505060018401546002850154600386015460048701805496976001600160a01b0390941696929550909350906115b19061cd9e565b80601f01602080910402602001604051908101604052809291908181526020018280546115dd9061cd9e565b801561162a5780601f106115ff5761010080835404028352916020019161162a565b820191906000526020600020905b81548152906001019060200180831161160d57829003601f168201915b50505050509080600501805461163f9061cd9e565b80601f016020809104026020016040519081016040528092919081815260200182805461166b9061cd9e565b80156116b85780601f1061168d576101008083540402835291602001916116b8565b820191906000526020600020905b81548152906001019060200180831161169b57829003601f168201915b5050506006909301549192505060ff1687565b60575481565b6116d9618096565b60688054911515620100000262ff000019909216919091179055565b605b5490565b6069546001600160a01b03166117235760405162461bcd60e51b815260040161128e9061bab2565b605a5460005b828110156117ff576067545a1015611740576117ff565b600061174c828461cd10565b60008181526048602052604090206004015490915062010000900460ff1615156001148015611799575061177f81611cfa565b806117995750600081815260486020526040902060030154155b156117ec57600081815260486020526040902060040154610100900460ff166117c5576117c5816180d5565b605a546117d390600161cd10565b8114156117ec57605a546117e8906001619cbc565b605a555b50806117f78161cdd9565b915050611729565b505050565b6069546001600160a01b031661182c5760405162461bcd60e51b815260040161128e9061bab2565b600061183a6001600f61cd5b565b90506000602082600f811061185f57634e487b7160e01b600052603260045260246000fd5b6002020154606954604080516307bc663b60e11b815290519293506001600160a01b0390911691630f78cc7691600480820192602092909190829003018186803b1580156118ac57600080fd5b505afa1580156118c0573d6000803e3d6000fd5b505050506040513d601f19601f820116820180604052508101906118e4919061b6ba565b6118ee824261cd5b565b11156119db5760005b6119036001600f61cd5b565b81101561198457602061191782600161cd10565b600f811061193557634e487b7160e01b600052603260045260246000fd5b60020201602082600f811061195a57634e487b7160e01b600052603260045260246000fd5b8254600291909102919091019081556001918201549101558061197c8161cdd9565b9150506118f7565b5042602083600f81106119a757634e487b7160e01b600052603260045260246000fd5b60020201556000602083600f81106119cf57634e487b7160e01b600052603260045260246000fd5b60020201600101819055505b5050565b60606119ea82617a56565b611a065760405162461bcd60e51b815260040161128e9061c6ed565b600082815260486020908152604080832081516101c0810183528154815260018201549381019390935260028101549183019190915260038101546060830152600481015460ff808216151560808501526101008083048216151560a08601526201000090920416151560c0840152600582015460e08401526006820154908301526007810154610120830152600881015461014083015260098101805461016084019190611ab49061cd9e565b80601f0160208091040260200160405190810160405280929190818152602001828054611ae09061cd9e565b8015611b2d5780601f10611b0257610100808354040283529160200191611b2d565b820191906000526020600020905b815481529060010190602001808311611b1057829003601f168201915b5050509183525050600a8201546020820152600b82015460409091019060ff166003811115611b6c57634e487b7160e01b600052602160045260246000fd5b6003811115611b8b57634e487b7160e01b600052602160045260246000fd5b90525060208101519091506000816001600160401b03811115611bbe57634e487b7160e01b600052604160045260246000fd5b604051908082528060200260200182016040528015611bf157816020015b6060815260200190600190039081611bdc5790505b50905060005b82811015611cf1578351600090611c0f90839061cd10565b600081815260476020526040812060040180549293509091611c309061cd9e565b80601f0160208091040260200160405190810160405280929190818152602001828054611c5c9061cd9e565b8015611ca95780601f10611c7e57610100808354040283529160200191611ca9565b820191906000526020600020905b815481529060010190602001808311611c8c57829003601f168201915b5050505050905080848481518110611cd157634e487b7160e01b600052603260045260246000fd5b602002602001018190525050508080611ce99061cdd9565b915050611bf7565b50949350505050565b6000611d0582617a56565b611d215760405162461bcd60e51b815260040161128e9061c8fc565b60008281526048602052604090206006015461145b9061706c565b336000908152604960205260409020600381015460ff161515600114611d745760405162461bcd60e51b815260040161128e9061c334565b805415801590611d8e57506003810154610100900460ff16155b8015611da05750611d9e33612327565b155b15611e115760038101805461ff001916610100179055604f805460018181019092557fa2e8f972dc9f7d0b76177bb8be102e6bec069ee42c61080745e8825470e80c6c0180546001600160a01b031916339081179091556000908152605260205260409020805460ff191690911790555b8054611e9957611e2033619cc8565b611e2933619e1e565b611e3233619f4d565b42600282018190553360008181526052602052604090819020805460ff1990811690915560038501805490911690555190917f9dadcedba048e92b943ea1c5861cee1df63a566d7f795869c004780c1c698e2b91611e90919061b8ce565b60405180910390a25b6001605c6000828254611eac919061cd10565b90915550611eba905061a07c565b50565b600080805b600f811015611f1357602081600f8110611eec57634e487b7160e01b600052603260045260246000fd5b600202016001015482611eff919061cd10565b915080611f0b8161cdd9565b915050611ec2565b50905090565b600080611f25856134e1565b90506000611f338683616cf8565b90505b81156120ab57611f468683616cf8565b90508481116120035783821415611ffb576001600160a01b0386166000908152604560205260409081902090516301c39b2b60e11b815273__$85afbab79b2b776d70bef879a32ed56424$__91630387365691611fa89190869060040161b919565b60206040518083038186803b158015611fc057600080fd5b505af4158015611fd4573d6000803e3d6000fd5b505050506040513d601f19601f82011682018060405250810190611ff8919061b6ba565b91505b5090506120af565b6001600160a01b0386166000908152604560205260409081902090516301c39b2b60e11b815273__$85afbab79b2b776d70bef879a32ed56424$__916303873656916120549190869060040161b919565b60206040518083038186803b15801561206c57600080fd5b505af4158015612080573d6000803e3d6000fd5b505050506040513d601f19601f820116820180604052508101906120a4919061b6ba565b9150611f36565b5090505b9392505050565b603e60209081526000928352604080842090915290825290205460ff1681565b6001600160a01b0380821660009081526049602090815260408083206069548251634fda48fb60e11b81529251949586959294911692639fb491f69260048083019392829003018186803b15801561212d57600080fd5b505afa158015612141573d6000803e3d6000fd5b505050506040513d601f19601f82011682018060405250810190612165919061b6ba565b81600101541015801561220a5750606960009054906101000a90046001600160a01b03166001600160a01b0316630f1f0ffe6040518163ffffffff1660e01b815260040160206040518083038186803b1580156121c157600080fd5b505afa1580156121d5573d6000803e3d6000fd5b505050506040513d601f19601f820116820180604052508101906121f9919061b6ba565b6004820154612208904261cd5b565b105b1561221457600191505b5092915050565b606254610100900460ff1681565b60416020908152600092835260408084209091529082529020805461224d9061cd9e565b80601f01602080910402602001604051908101604052809291908181526020018280546122799061cd9e565b80156122c65780601f1061229b576101008083540402835291602001916122c6565b820191906000526020600020905b8154815290600101906020018083116122a957829003601f168201915b505050505081565b604b6020526000908152604090205481565b604d81815481106122f057600080fd5b6000918252602090912001546001600160a01b0316905081565b60405160009080602081848060185afa61232057fe5b5051919050565b6001600160a01b031660009081526052602052604090205460ff1690565b600281600f811061235557600080fd5b60020201805460019091015490915082565b6069546000906001600160a01b03166123925760405162461bcd60e51b815260040161128e9061bab2565b606960009054906101000a90046001600160a01b03166001600160a01b0316634e87c5a86040518163ffffffff1660e01b815260040160206040518083038186803b1580156123e057600080fd5b505afa1580156123f4573d6000803e3d6000fd5b505050506040513d601f19601f82011682018060405250810190612418919061b58d565b6124345760405162461bcd60e51b815260040161128e9061c0b2565b855184146124545760405162461bcd60e51b815260040161128e9061c6a6565b82518651146124755760405162461bcd60e51b815260040161128e9061bbce565b61247d614674565b606960009054906101000a90046001600160a01b03166001600160a01b031663b38e885e6040518163ffffffff1660e01b815260040160206040518083038186803b1580156124cb57600080fd5b505afa1580156124df573d6000803e3d6000fd5b505050506040513d601f19601f82011682018060405250810190612503919061b6ba565b61250b614c67565b106125285760405162461bcd60e51b815260040161128e9061c133565b606954604080516001624ee91360e11b0319815290516000926001600160a01b03169163ff622dda916004808301926020929190829003018186803b15801561257057600080fd5b505afa158015612584573d6000803e3d6000fd5b505050506040513d601f19601f820116820180604052508101906125a8919061b6ba565b905060006125b6338361531b565b90506125c181613f37565b606960009054906101000a90046001600160a01b03166001600160a01b031663be2509886040518163ffffffff1660e01b815260040160206040518083038186803b15801561260f57600080fd5b505afa158015612623573d6000803e3d6000fd5b505050506040513d601f19601f82011682018060405250810190612647919061b6ba565b61265082615a9a565b1080156126e85750606960009054906101000a90046001600160a01b03166001600160a01b031663b38e885e6040518163ffffffff1660e01b815260040160206040518083038186803b1580156126a657600080fd5b505afa1580156126ba573d6000803e3d6000fd5b505050506040513d601f19601f820116820180604052508101906126de919061b6ba565b6126e6614c67565b105b80156127055750606554605b54605954612702919061cd5b565b11155b156134605760685460ff1615612767576001600160a01b0381166000908152604b6020526040902054821115612767576001600160a01b0381166000908152604b602052604081205461275990849061a355565b9050612765818361a361565b505b60005b885181101561345e57600089828151811061279557634e487b7160e01b600052603260045260246000fd5b6020026020010151905060008989848181106127c157634e487b7160e01b600052603260045260246000fd5b90506020028101906127d3919061cc80565b8080601f01602080910402602001604051908101604052809392919081815260200183838082843760009201829052508c51949550938c93508792508210905061282d57634e487b7160e01b600052603260045260246000fd5b60209081029190910181015133600081815260448452604080822060578054825460018101845592855287852090920191909155815160e081018352898152808701949094524284830152606084018590526080840188905260a084018e905260c0840183905254825260478552902081518051939550919390926128b5928492019061b0b4565b506020828101516001830180546001600160a01b0319166001600160a01b03909216919091179055604083015160028301556060830151600383015560808301518051612908926004850192019061b0b4565b5060a0820151805161292491600584019160209091019061b0b4565b5060c082015160068201805460ff1916600183600381111561295657634e487b7160e01b600052602160045260246000fd5b0217905550506059546000908152604860209081526040918290206069548351634e8f956d60e11b815293519194506001600160a01b031692639d1f2ada926004808301939192829003018186803b1580156129b157600080fd5b505afa1580156129c5573d6000803e3d6000fd5b505050506040513d601f19601f820116820180604052508101906129e9919061b6ba565b81600101541015612a0f576001816001016000828254612a09919061cd10565b90915550505b606960009054906101000a90046001600160a01b03166001600160a01b0316639d1f2ada6040518163ffffffff1660e01b815260040160206040518083038186803b158015612a5d57600080fd5b505afa158015612a71573d6000803e3d6000fd5b505050506040513d601f19601f82011682018060405250810190612a95919061b6ba565b816001015410612ae457600481018054600160ff19909116811761ff00191690915560598054600090612ac990849061cd10565b90915550506057546059546000908152604860205260409020555b605754612af290600161cd10565b60575560016002612b0482600f61cd5b565b600f8110612b2257634e487b7160e01b600052603260045260246000fd5b600202016001016000828254612b38919061cd10565b90915550506001600160a01b0386166000908152604a60205260409020600181612b6382600f61cd5b565b600f8110612b8157634e487b7160e01b600052603260045260246000fd5b600202016001016000828254612b97919061cd10565b909155505060625460ff161515600114156130495760695460408051632a49798160e11b8152905133926000926001600160a01b0390911691635492f30291600480820192602092909190829003018186803b158015612bf657600080fd5b505afa158015612c0a573d6000803e3d6000fd5b505050506040513d601f19601f82011682018060405250810190612c2e919061b3c8565b90506000606960009054906101000a90046001600160a01b03166001600160a01b0316630855d1516040518163ffffffff1660e01b815260040160206040518083038186803b158015612c8057600080fd5b505afa158015612c94573d6000803e3d6000fd5b505050506040513d601f19601f82011682018060405250810190612cb8919061b3c8565b90506000606960009054906101000a90046001600160a01b03166001600160a01b03166304e76c8f6040518163ffffffff1660e01b815260040160206040518083038186803b158015612d0a57600080fd5b505afa158015612d1e573d6000803e3d6000fd5b505050506040513d601f19601f82011682018060405250810190612d42919061b3c8565b90506000836001600160a01b03166311815086866040518263ffffffff1660e01b8152600401612d72919061b927565b60206040518083038186803b158015612d8a57600080fd5b505afa158015612d9e573d6000803e3d6000fd5b505050506040513d601f19601f82011682018060405250810190612dc2919061b3c8565b90506000606354606960009054906101000a90046001600160a01b03166001600160a01b03166330c0bb796040518163ffffffff1660e01b815260040160206040518083038186803b158015612e1757600080fd5b505afa158015612e2b573d6000803e3d6000fd5b505050506040513d601f19601f82011682018060405250810190612e4f919061b6ba565b612e5a90606461cd3c565b612e64919061cd28565b90506000606354606960009054906101000a90046001600160a01b03166001600160a01b031663abb10b9b6040518163ffffffff1660e01b815260040160206040518083038186803b158015612eb957600080fd5b505afa158015612ecd573d6000803e3d6000fd5b505050506040513d601f19601f82011682018060405250810190612ef1919061b6ba565b612efc90606461cd3c565b612f06919061cd28565b604051630db6cc8560e11b81529091506001600160a01b03861690631b6d990a90612f37908490879060040161cb64565b602060405180830381600087803b158015612f5157600080fd5b505af1158015612f65573d6000803e3d6000fd5b505050506040513d601f19601f82011682018060405250810190612f89919061b58d565b612fa55760405162461bcd60e51b815260040161128e9061c231565b604051633832942560e21b81526001600160a01b0385169063e0ca509490612fd3908590879060040161cb4d565b602060405180830381600087803b158015612fed57600080fd5b505af1158015613001573d6000803e3d6000fd5b505050506040513d601f19601f82011682018060405250810190613025919061b58d565b6130415760405162461bcd60e51b815260040161128e9061c3da565b505050505050505b606854610100900460ff1615613400576130636001614a30565b60695460408051637b39b17f60e11b815290516000926001600160a01b03169163f67362fe916004808301926020929190829003018186803b1580156130a857600080fd5b505afa1580156130bc573d6000803e3d6000fd5b505050506040513d601f19601f820116820180604052508101906130e0919061b3c8565b604051633d18199160e11b81529091506001600160a01b03821690637a303322906131109060019060040161b8ce565b600060405180830381600087803b15801561312a57600080fd5b505af192505050801561313b575060015b613196573d808015613169576040519150601f19603f3d011682016040523d82523d6000602084013e61316e565b606091505b5060008051602061ce6e8339815191528160405161318c919061b9b9565b60405180910390a1505b60695460408051637a0ec25b60e01b815290516000926001600160a01b031691637a0ec25b916004808301926020929190829003018186803b1580156131db57600080fd5b505afa1580156131ef573d6000803e3d6000fd5b505050506040513d601f19601f82011682018060405250810190613213919061b3c8565b604051633d18199160e11b81529091506001600160a01b03821690637a303322906132439060019060040161b8ce565b600060405180830381600087803b15801561325d57600080fd5b505af192505050801561326e575060015b6132c9573d80801561329c576040519150601f19603f3d011682016040523d82523d6000602084013e6132a1565b606091505b5060008051602061ce6e833981519152816040516132bf919061b9b9565b60405180910390a1505b6069546040805163463444b760e01b815290516000926001600160a01b03169163463444b7916004808301926020929190829003018186803b15801561330e57600080fd5b505afa158015613322573d6000803e3d6000fd5b505050506040513d601f19601f82011682018060405250810190613346919061b3c8565b604051633d18199160e11b81529091506001600160a01b03821690637a303322906133769060019060040161b8ce565b600060405180830381600087803b15801561339057600080fd5b505af19250505080156133a1575060015b6133fc573d8080156133cf576040519150601f19603f3d011682016040523d82523d6000602084013e6133d4565b606091505b5060008051602061ce6e833981519152816040516133f2919061b9b9565b60405180910390a1505b5050505b866001600160a01b03166057547fb819ca9ac369919119f75ec7363dd954f75bcfa75f9245647e03da413be0d582878760405161343e92919061ba62565b60405180910390a3505050505080806134569061cdd9565b91505061276a565b505b33600090815260496020526040902042600282015561347d61a07c565b6001605c6000828254613490919061cd10565b90915550506057549998505050505050505050565b605d5481565b60655481565b604a60205281600052604060002081600f81106134cd57600080fd5b600202018054600190910154909250905082565b6001600160a01b03811660009081526045602052604080822090516301c39b2b60e11b815273__$85afbab79b2b776d70bef879a32ed56424$__916303873656916135319190859060040161b919565b60206040518083038186803b15801561354957600080fd5b505af415801561355d573d6000803e3d6000fd5b505050506040513d601f19601f8201168201806040525081019061145b919061b6ba565b606060008311801561359257508183105b6135ae5760405162461bcd60e51b815260040161128e9061c0fc565b60006135ba848461cd5b565b90506000816001600160401b038111156135e457634e487b7160e01b600052604160045260246000fd5b60405190808252806020026020018201604052801561361757816020015b60608152602001906001900390816136025790505b509050845b84811015611cf157600081815260486020526040902060090180546136409061cd9e565b80601f016020809104026020016040519081016040528092919081815260200182805461366c9061cd9e565b80156136b95780601f1061368e576101008083540402835291602001916136b9565b820191906000526020600020905b81548152906001019060200180831161369c57829003601f168201915b50505050508282815181106136de57634e487b7160e01b600052603260045260246000fd5b602002602001018190525080806136f49061cdd9565b91505061361c565b600061370782617a56565b6137235760405162461bcd60e51b815260040161128e9061c6ed565b60008281526048602052604090206006015461373e9061706c565b15801561145b575061374f82615d12565b1592915050565b60625460ff1681565b605a5490565b60605481565b6069546001600160a01b03166137935760405162461bcd60e51b815260040161128e9061bab2565b60006137c06137a183614914565b6001600160a01b0384166000908152604b60205260409020549061a355565b9050828110156137e25760405162461bcd60e51b815260040161128e9061c62a565b6069546040805163ca64f9e760e01b815290516000926001600160a01b03169163ca64f9e7916004808301926020929190829003018186803b15801561382757600080fd5b505afa15801561383b573d6000803e3d6000fd5b505050506040513d601f19601f8201168201806040525081019061385f919061b3c8565b604051630895993360e11b81529091506001600160a01b0382169063112b326690613890908790879060040161cb4d565b602060405180830381600087803b1580156138aa57600080fd5b505af11580156138be573d6000803e3d6000fd5b505050506040513d601f19601f820116820180604052508101906138e2919061b58d565b6138fe5760405162461bcd60e51b815260040161128e9061c85b565b6001600160a01b0383166000908152604b60205260408120805486929061392690849061cd5b565b90915550613934905061a07c565b826001600160a01b03167ffaeb7dbb9992397d26ea1944efd40c80b40f702faf69b46c67ad10aba68ccb798560405161396d919061b8ce565b60405180910390a250505050565b600081815260486020908152604080832081516101c0810183528154815260018201549381019390935260028101549183019190915260038101546060830152600481015460ff808216151560808501526101008083048216151560a08601526201000090920416151560c0840152600582015460e08401526006820154908301526007810154610120830152600881015461014083015260098101805484939291610160840191613a2c9061cd9e565b80601f0160208091040260200160405190810160405280929190818152602001828054613a589061cd9e565b8015613aa55780601f10613a7a57610100808354040283529160200191613aa5565b820191906000526020600020905b815481529060010190602001808311613a8857829003601f168201915b5050509183525050600a8201546020820152600b82015460409091019060ff166003811115613ae457634e487b7160e01b600052602160045260246000fd5b6003811115613b0357634e487b7160e01b600052602160045260246000fd5b905250610140810151610120820151919250613b1e9161cd10565b606960009054906101000a90046001600160a01b03166001600160a01b031663ea19733c6040518163ffffffff1660e01b815260040160206040518083038186803b158015613b6c57600080fd5b505afa158015613b80573d6000803e3d6000fd5b505050506040513d601f19601f82011682018060405250810190613ba4919061b6ba565b613bae919061cd3c565b610120820151613bbf90606461cd3c565b119392505050565b60675481565b6001600160a01b031660009081526051602052604090205460ff1690565b60006060600084118015613bfe57508284105b613c1a5760405162461bcd60e51b815260040161128e9061c0fc565b600080613c27868661cd5b565b613c3290600161cd10565b90506000816001600160401b03811115613c5c57634e487b7160e01b600052604160045260246000fd5b604051908082528060200260200182016040528015613c85578160200160208202803683370190505b509050865b613c9587600161cd10565b811015613e7d57600081815260486020908152604080832081516101c0810183528154815260018201549381019390935260028101549183019190915260038101546060830152600481015460ff808216151560808501526101008083048216151560a08601526201000090920416151560c0840152600582015460e08401526006820154908301526007810154610120830152600881015461014083015260098101805461016084019190613d4a9061cd9e565b80601f0160208091040260200160405190810160405280929190818152602001828054613d769061cd9e565b8015613dc35780601f10613d9857610100808354040283529160200191613dc3565b820191906000526020600020905b815481529060010190602001808311613da657829003601f168201915b5050509183525050600a8201546020820152600b82015460409091019060ff166003811115613e0257634e487b7160e01b600052602160045260246000fd5b6003811115613e2157634e487b7160e01b600052602160045260246000fd5b905250610180810151909150613e37908661cd10565b9450806101800151838381518110613e5f57634e487b7160e01b600052603260045260246000fd5b60209081029190910101525080613e758161cdd9565b915050613c8a565b506000613e8a838561cd28565b95509093505050505b9250929050565b613ea2618096565b600081815260476020526040812090613ebb828261b138565b6001820180546001600160a01b031916905560006002830181905560038301819055613eeb90600484019061b138565b613ef960058301600061b138565b50600601805460ff1916905550565b606854640100000000900460ff1681565b60595490565b60536020526000908152604090205481565b604d5490565b6069546001600160a01b0316613f5f5760405162461bcd60e51b815260040161128e9061bab2565b6001600160a01b0381166000908152604a6020526040812090613f846001600f61cd5b565b905060008282600f8110613fa857634e487b7160e01b600052603260045260246000fd5b6002020154606954604080516307bc663b60e11b815290519293506001600160a01b0390911691630f78cc7691600480820192602092909190829003018186803b158015613ff557600080fd5b505afa158015614009573d6000803e3d6000fd5b505050506040513d601f19601f8201168201806040525081019061402d919061b6ba565b614037824261cd5b565b11156141205760005b61404c6001600f61cd5b565b8110156140cb578361405f82600161cd10565b600f811061407d57634e487b7160e01b600052603260045260246000fd5b600202018482600f81106140a157634e487b7160e01b600052603260045260246000fd5b825460029190910291909101908155600191820154910155806140c38161cdd9565b915050614040565b50428383600f81106140ed57634e487b7160e01b600052603260045260246000fd5b600202015560008383600f811061411457634e487b7160e01b600052603260045260246000fd5b60020201600101819055505b50505050565b6001600160a01b03811660009081526044602090815260409182902080548351818402810184019094528084526060939283018282801561418657602002820191906000526020600020905b815481526020019060010190808311614172575b50505050509050919050565b602081600f811061235557600080fd5b60546020526000908152604090205481565b6141bc61b174565b60008281526047602052604090819020815160e081019092528054829082906141e49061cd9e565b80601f01602080910402602001604051908101604052809291908181526020018280546142109061cd9e565b801561425d5780601f106142325761010080835404028352916020019161425d565b820191906000526020600020905b81548152906001019060200180831161424057829003601f168201915b505050918352505060018201546001600160a01b0316602082015260028201546040820152600382015460608201526004820180546080909201916142a19061cd9e565b80601f01602080910402602001604051908101604052809291908181526020018280546142cd9061cd9e565b801561431a5780601f106142ef5761010080835404028352916020019161431a565b820191906000526020600020905b8154815290600101906020018083116142fd57829003601f168201915b505050505081526020016005820180546143339061cd9e565b80601f016020809104026020016040519081016040528092919081815260200182805461435f9061cd9e565b80156143ac5780601f10614381576101008083540402835291602001916143ac565b820191906000526020600020905b81548152906001019060200180831161438f57829003601f168201915b5050509183525050600682015460209091019060ff1660038111156143e157634e487b7160e01b600052602160045260246000fd5b600381111561440057634e487b7160e01b600052602160045260246000fd5b90525092915050565b604260209081526000928352604080842090915290825290205481565b6044602052816000526040600020818154811061444257600080fd5b90600052602060002001600091509150505481565b606061446282617a56565b61447e5760405162461bcd60e51b815260040161128e9061c6ed565b6000828152604c60209081526040808320805482518185028101850190935280835291929091908301828280156144de57602002820191906000526020600020905b81546001600160a01b031681526001909101906020018083116144c0575b50505050509050600081516001600160401b0381111561450e57634e487b7160e01b600052604160045260246000fd5b60405190808252806020026020018201604052801561454157816020015b606081526020019060019003908161452c5790505b50905060005b82518110156113fa5760436000868152602001908152602001600020600084838151811061458557634e487b7160e01b600052603260045260246000fd5b60200260200101516001600160a01b03166001600160a01b0316815260200190815260200160002080546145b89061cd9e565b80601f01602080910402602001604051908101604052809291908181526020018280546145e49061cd9e565b80156146315780601f1061460657610100808354040283529160200191614631565b820191906000526020600020905b81548152906001019060200180831161461457829003601f168201915b505050505082828151811061465657634e487b7160e01b600052603260045260246000fd5b6020026020010181905250808061466c9061cdd9565b915050614547565b6069546001600160a01b031661469c5760405162461bcd60e51b815260040161128e9061bab2565b60006146aa6001600f61cd5b565b90506000600282600f81106146cf57634e487b7160e01b600052603260045260246000fd5b6002020154606954604080516307bc663b60e11b815290519293506001600160a01b0390911691630f78cc7691600480820192602092909190829003018186803b15801561471c57600080fd5b505afa158015614730573d6000803e3d6000fd5b505050506040513d601f19601f82011682018060405250810190614754919061b6ba565b61475e824261cd5b565b11156119db5760005b6147736001600f61cd5b565b8110156147f457600261478782600161cd10565b600f81106147a557634e487b7160e01b600052603260045260246000fd5b60020201600282600f81106147ca57634e487b7160e01b600052603260045260246000fd5b825460029190910291909101908155600191820154910155806147ec8161cdd9565b915050614767565b5042600283600f811061481757634e487b7160e01b600052603260045260246000fd5b60020201600001819055506000600283600f81106119cf57634e487b7160e01b600052603260045260246000fd5b61484d618096565b600081815260486020526040812081815560018101829055600281018290556003810182905560048101805462ffffff1916905560058101829055600681018290556007810182905560088101829055906148ab600983018261b138565b506000600a820155600b01805460ff1916905550565b60006148cc82617a56565b6148d8575060006113ff565b6000828152604860205260409020600601546148f39061706c565b8061490d5750600082815260486020526040902060030154155b90506113ff565b600061145b826110bd846134e1565b600061492e82617a56565b61493a575060006113ff565b6000828152604860205260409020600501546149559061706c565b8061490d575061490d826136fc565b6001600160a01b03166000908152604b602052604090205490565b614987618096565b614991600061a596565b565b600061499e82617a56565b6149ba5760405162461bcd60e51b815260040161128e9061c6ed565b5060009081526048602052604090206006015490565b60665481565b604e5490565b60006149e782617a56565b614a035760405162461bcd60e51b815260040161128e9061c6ed565b6000614a0e83615d12565b1561145b5760008381526048602052604090206005015461145890429061cd5b565b6069546001600160a01b0316614a585760405162461bcd60e51b815260040161128e9061bab2565b614a60614674565b614a68611804565b614a7061a5e6565b614a79816116fb565b614a828161a7a9565b614a8b81615b05565b611eba61a07c565b60006120af614aa28484615cd3565b6040518060400160405280600a8152602001690c6dedadad2e890c2e6d60b31b8152506157c8565b614ad2618096565b6068805491151563010000000263ff00000019909216919091179055565b614af8618096565b606555565b604e54604d54600091614b0f9161cd10565b905090565b6000614b1f82617a56565b614b3b5760405162461bcd60e51b815260040161128e9061c6ed565b506001600160a01b03919091166000908152603e60209081526040808320938352929052205460ff1690565b604860205260009081526040902080546001820154600283015460038401546004850154600586015460068701546007880154600889015460098a018054999a98999798969760ff80881698610100890482169862010000900490911696959493929091614bd49061cd9e565b80601f0160208091040260200160405190810160405280929190818152602001828054614c009061cd9e565b8015614c4d5780601f10614c2257610100808354040283529160200191614c4d565b820191906000526020600020905b815481529060010190602001808311614c3057829003601f168201915b50505050600a830154600b9093015491929160ff1690508e565b600080805b600f811015611f1357600281600f8110614c9657634e487b7160e01b600052603260045260246000fd5b600202016001015482614ca9919061cd10565b915080614cb58161cdd9565b915050614c6c565b600080614cca8487616cf8565b83101590506000614cdb8587616cf8565b84111580614ce7575085155b9050818015614cf35750805b979650505050505050565b604e81815481106122f057600080fd5b614d16618096565b606880549115156401000000000264ff0000000019909216919091179055565b6069546001600160a01b0316614d5e5760405162461bcd60e51b815260040161128e9061bab2565b614d6785615d12565b614d835760405162461bcd60e51b815260040161128e9061bb7f565b336000908152603e6020908152604080832088845290915290205460ff1615614dbe5760405162461bcd60e51b815260040161128e9061c786565b614dc88533616d2e565b614de45760405162461bcd60e51b815260040161128e9061be28565b60695460408051632a49798160e11b815290516000926001600160a01b031691635492f302916004808301926020929190829003018186803b158015614e2957600080fd5b505afa158015614e3d573d6000803e3d6000fd5b505050506040513d601f19601f82011682018060405250810190614e61919061b3c8565b6001600160a01b03161415614e885760405162461bcd60e51b815260040161128e9061c8b8565b606954604080516001624ee91360e11b0319815290516000926001600160a01b03169163ff622dda916004808301926020929190829003018186803b158015614ed057600080fd5b505afa158015614ee4573d6000803e3d6000fd5b505050506040513d601f19601f82011682018060405250810190614f08919061b6ba565b90506000614f16338361531b565b60685490915060ff1615614f76576001600160a01b0381166000908152604b6020526040902054821115614f76576001600160a01b0381166000908152604b6020526040812054614f6890849061a355565b9050614f74818361a361565b505b6000336000908152604560205260408082209051631e0f232560e31b815273__$85afbab79b2b776d70bef879a32ed56424$__9163f079192891614fbf9190869060040161b919565b60206040518083038186803b158015614fd757600080fd5b505af4158015614feb573d6000803e3d6000fd5b505050506040513d601f19601f8201168201806040525081019061500f919061b6ba565b9050888114156150b45733600090815260456020526040908190209051631e0f232560e31b815273__$85afbab79b2b776d70bef879a32ed56424$__9163f07919289161506191908d9060040161b919565b60206040518083038186803b15801561507957600080fd5b505af415801561508d573d6000803e3d6000fd5b505050506040513d601f19601f820116820180604052508101906150b1919061b6ba565b90505b6150c082823387614cbd565b6150dc5760405162461bcd60e51b815260040161128e9061c2a9565b3360009081526045602052604090819020905163524cfe5360e11b815273__$85afbab79b2b776d70bef879a32ed56424$__9163a499fca691615128919086908e90879060040161ca96565b60006040518083038186803b15801561514057600080fd5b505af4158015615154573d6000803e3d6000fd5b505050506000615164338b615cd3565b905061519281604051806040016040528060098152602001686e756d546f6b656e7360b81b8152508761a8c2565b6151c2816040518060400160405280600a8152602001690c6dedadad2e890c2e6d60b31b8152508b60001c61a8c2565b6151f2816040518060400160405280600a815260200169636f6d6d6974566f746560b01b8152508a60001c61a8c2565b60008a8152604260209081526040808320338085529083528184208b90558d845260438352818420908452825290912087516152309289019061b0b4565b503360009081526049602090815260408083208d845260489092529091206002015461525d90600161a355565b60008c81526048602090815260408083206002908101949094554293850193909355338252603e81528282208e83529052908120805460ff19166001908117909155605c8054919290916152b290849061cd10565b909155506152c0905061a07c565b336001600160a01b03168b7f42864d9683ff5b12c3b2cc65d705af5aab104b03bc700b802f79e5c971ef08a1886040516152fa919061b8ce565b60405180910390a35050505050505050505050565b60595481565b60565481565b6069546000906001600160a01b03166153465760405162461bcd60e51b815260040161128e9061bab2565b60695460408051632a49798160e11b815290516000926001600160a01b031691635492f302916004808301926020929190829003018186803b15801561538b57600080fd5b505afa15801561539f573d6000803e3d6000fd5b505050506040513d601f19601f820116820180604052508101906153c3919061b3c8565b6001600160a01b031614156153ea5760405162461bcd60e51b815260040161128e9061c8b8565b6069546040805163ca64f9e760e01b815290516000926001600160a01b03169163ca64f9e7916004808301926020929190829003018186803b15801561542f57600080fd5b505afa158015615443573d6000803e3d6000fd5b505050506040513d601f19601f82011682018060405250810190615467919061b3c8565b6001600160a01b0316141561548e5760405162461bcd60e51b815260040161128e9061c503565b6069546040805163ca64f9e760e01b815290516000926001600160a01b03169163ca64f9e7916004808301926020929190829003018186803b1580156154d357600080fd5b505afa1580156154e7573d6000803e3d6000fd5b505050506040513d601f19601f8201168201806040525081019061550b919061b3c8565b90506000606960009054906101000a90046001600160a01b03166001600160a01b0316635492f3026040518163ffffffff1660e01b815260040160206040518083038186803b15801561555d57600080fd5b505afa158015615571573d6000803e3d6000fd5b505050506040513d601f19601f82011682018060405250810190615595919061b3c8565b90508480600360005b818110156157825760405163065ee72760e51b81526000906001600160a01b0388169063cbdce4e0906155d590879060040161b927565b60206040518083038186803b1580156155ed57600080fd5b505afa158015615601573d6000803e3d6000fd5b505050506040513d601f19601f82011682018060405250810190615625919061b6ba565b6001600160a01b0385166000908152604b602052604090205490915089116156505783945050615782565b6001600160a01b0384166000908152604b6020526040902054891080159061568f57506001600160a01b0384166000908152604b602052604090205415155b156156cd576001600160a01b0384166000908152604b60205260408120546156b8908b9061a355565b90508082106156cb578495505050615782565b505b8881106156dd5783945050615782565b60405163792f4f6960e11b81526001600160a01b0387169063f25e9ed29061570990879060040161b927565b60206040518083038186803b15801561572157600080fd5b505afa158015615735573d6000803e3d6000fd5b505050506040513d601f19601f82011682018060405250810190615759919061b3c8565b93506001600160a01b03841661576f5750615782565b508061577a8161cdd9565b91505061559e565b5091979650505050505050565b60436020908152600092835260408084209091529082529020805461224d9061cd9e565b60506020526000908152604090205460ff1681565b60008083836040516020016157de92919061b8d7565b60408051808303601f19018152918152815160209283012060009081526046909252902054949350505050565b6049602052600090815260409020805460018201546002830154600384015460048501546005860154600687015460079097015495969495939460ff80851695610100909504169389565b6001600160a01b031660009081526050602052604090205460ff1690565b6000546001600160a01b031690565b604c602052816000526040600020818154811061589f57600080fd5b6000918252602090912001546001600160a01b03169150829050565b60016000828152604860205260409020600b015460ff1660038111156158f157634e487b7160e01b600052602160045260246000fd5b1461590e5760405162461bcd60e51b815260040161128e9061bae9565b336000908152604560205260409081902090516306120d1f60e31b815273__$85afbab79b2b776d70bef879a32ed56424$__9163309068f8916159569190859060040161b919565b60206040518083038186803b15801561596e57600080fd5b505af4158015615982573d6000803e3d6000fd5b505050506040513d601f19601f820116820180604052508101906159a6919061b58d565b6159c25760405162461bcd60e51b815260040161128e9061c189565b336000908152604560205260409081902090516301039dfd60e11b815273__$85afbab79b2b776d70bef879a32ed56424$__916302073bfa91615a0a9190859060040161b919565b60006040518083038186803b158015615a2257600080fd5b505af4158015615a36573d6000803e3d6000fd5b50505050615a4261a07c565b604051339082907f402507661c8c8cb90e0a796450b8bdd28b6c516f05279c0cd29e84c344e1699a90600090a350565b605e5481565b615a80618096565b606880549115156101000261ff0019909216919091179055565b6001600160a01b0381166000908152604a6020526040812081805b600f8110156113fa578281600f8110615ade57634e487b7160e01b600052603260045260246000fd5b600202016001015482615af1919061cd10565b915080615afd8161cdd9565b915050615ab5565b6069546001600160a01b0316615b2d5760405162461bcd60e51b815260040161128e9061bab2565b615b368161a7a9565b615b3e6165df565b605654141580615b57575060685462010000900460ff16155b15614a8b5760005b81811015615c7c576067545a1015615b7657615c7c565b605b5460009081526048602052604081206004015462010000900460ff161515600114801590615c2d5750606960009054906101000a90046001600160a01b03166001600160a01b031663bd40ef4c6040518163ffffffff1660e01b815260040160206040518083038186803b158015615bef57600080fd5b505afa158015615c03573d6000803e3d6000fd5b505050506040513d601f19601f82011682018060405250810190615c27919061b6ba565b604d5410155b8015615c4d5750605b5460009081526048602052604090206004015460ff165b15615c5e57615c5a61a904565b5060015b80615c695750615c7c565b5080615c748161cdd9565b915050615b5f565b50611eba61a07c565b60005b81518110156119db57615cc1828281518110615cb457634e487b7160e01b600052603260045260246000fd5b60200260200101516158bb565b80615ccb8161cdd9565b915050615c88565b60008282604051602001615ce892919061b8ac565b60405160208183030381529060405280519060200120905092915050565b605e5490565b605f5481565b6000615d1d82617a56565b615d395760405162461bcd60e51b815260040161128e9061c6ed565b600082815260486020526040902060050154615d549061706c565b15801561145b575050600090815260486020526040902060020154151590565b60575490565b60526020526000908152604090205460ff1681565b600081604051602001615da2919061b8fd565b6040516020818303038152906040528051906020012083604051602001615dc9919061b8fd565b604051602081830303815290604052805190602001201415615ded5750600161145b565b50600061145b565b615dfe846136fc565b615e1a5760405162461bcd60e51b815260040161128e9061c5e4565b336000908152603e6020908152604080832087845290915290205460ff16615e545760405162461bcd60e51b815260040161128e9061c063565b336000908152603f6020908152604080832087845290915290205460ff1615615e8f5760405162461bcd60e51b815260040161128e9061c925565b615e993385614a93565b615ea38483617628565b14615ec05760405162461bcd60e51b815260040161128e9061bc8d565b615eca3385616694565b615ed483836167a8565b14615ef15760405162461bcd60e51b815260040161128e9061bc15565b6000615efd3386616cf8565b90508260011415615f345760008581526048602052604081206007018054839290615f2990849061cd10565b90915550615f5b9050565b60008581526048602052604081206008018054839290615f5590849061cd10565b90915550505b336000818152603f602090815260408083208984528252808320805460ff191660011790558082528083208484528252808320879055888352604182528083209383529281529190208551615fb29287019061b0b4565b50336000908152604960209081526040808320888452604890925290912060030154615fdf90600161a355565b600087815260486020526040902060039081019190915542600283015581015460ff161561601d576000815561601433619e1e565b61601d3361af5b565b60625460ff610100909104161515600114156164d25760695460408051632a49798160e11b8152905133926000926001600160a01b0390911691635492f30291600480820192602092909190829003018186803b15801561607d57600080fd5b505afa158015616091573d6000803e3d6000fd5b505050506040513d601f19601f820116820180604052508101906160b5919061b3c8565b90506000606960009054906101000a90046001600160a01b03166001600160a01b0316630855d1516040518163ffffffff1660e01b815260040160206040518083038186803b15801561610757600080fd5b505afa15801561611b573d6000803e3d6000fd5b505050506040513d601f19601f8201168201806040525081019061613f919061b3c8565b90506000606960009054906101000a90046001600160a01b03166001600160a01b03166304e76c8f6040518163ffffffff1660e01b815260040160206040518083038186803b15801561619157600080fd5b505afa1580156161a5573d6000803e3d6000fd5b505050506040513d601f19601f820116820180604052508101906161c9919061b3c8565b90506000836001600160a01b03166311815086866040518263ffffffff1660e01b81526004016161f9919061b927565b60206040518083038186803b15801561621157600080fd5b505afa158015616225573d6000803e3d6000fd5b505050506040513d601f19601f82011682018060405250810190616249919061b3c8565b90506000606454606960009054906101000a90046001600160a01b03166001600160a01b0316630b08bfd96040518163ffffffff1660e01b815260040160206040518083038186803b15801561629e57600080fd5b505afa1580156162b2573d6000803e3d6000fd5b505050506040513d601f19601f820116820180604052508101906162d6919061b6ba565b6162e29061019061cd3c565b6162ec919061cd28565b90506000606454606960009054906101000a90046001600160a01b03166001600160a01b031663f80de0a06040518163ffffffff1660e01b815260040160206040518083038186803b15801561634157600080fd5b505afa158015616355573d6000803e3d6000fd5b505050506040513d601f19601f82011682018060405250810190616379919061b6ba565b6163859061019061cd3c565b61638f919061cd28565b604051630db6cc8560e11b81529091506001600160a01b03861690631b6d990a906163c0908590879060040161cb64565b602060405180830381600087803b1580156163da57600080fd5b505af11580156163ee573d6000803e3d6000fd5b505050506040513d601f19601f82011682018060405250810190616412919061b58d565b61642e5760405162461bcd60e51b815260040161128e9061be85565b604051633832942560e21b81526001600160a01b0385169063e0ca50949061645c908490879060040161cb4d565b602060405180830381600087803b15801561647657600080fd5b505af115801561648a573d6000803e3d6000fd5b505050506040513d601f19601f820116820180604052508101906164ae919061b58d565b6164ca5760405162461bcd60e51b815260040161128e9061c971565b505050505050505b6068546301000000900460ff1680156164fa5750600086815260486020526040902060030154155b1561650857616508866180d5565b6001605c600082825461651b919061cd10565b90915550616529905061a07c565b6000868152604860205260409081902060078101546008909101549151339287928a927f0867b5027231dcbf37614eaad07d667b9febaf9fdf483f488229b1f140bb07489261657c92899290919061cb9b565b60405180910390a4505050505050565b600061659782617a56565b6165b35760405162461bcd60e51b815260040161128e9061c6ed565b506001600160a01b03919091166000908152603f60209081526040808320938352929052205460ff1690565b60008042416040516020016165f4919061b88f565b6040516020818303038152906040528051906020012060001c616617919061cd28565b4461662061230a565b604051602001616630919061b8ce565b60408051601f198184030181529190528051602090910120616652904261cd10565b61665c919061cd10565b616666919061cd10565b604051602001616676919061b8ce565b60408051601f19818403018152919052805160209091012091505090565b60006120af6166a38484615cd3565b6040518060400160405280600a815260200169636f6d6d6974566f746560b01b8152506157c8565b604f81815481106122f057600080fd5b6001600160a01b03811660009081526049602090815260408083208151610120810183528154808252600183015494820194909452600282015492810192909252600381015460ff80821615156060850152610100918290041615156080840152600482015460a0840152600582015460c0840152600682015460e0840152600790910154908201528291616770858261658c565b158015616783575061678181611cfa565b155b8015616795575061679381614923565b155b1561679f57600192505b50909392505050565b60008282604051602001615ce892919061b919565b60606000821180156167cf5750818311155b80156167dc575060018310155b6167f85760405162461bcd60e51b815260040161128e9061bed1565b60018310156168195760405162461bcd60e51b815260040161128e9061c724565b600182101561683a5760405162461bcd60e51b815260040161128e9061c380565b60006168446165df565b604051602001616854919061b8ce565b60408051601f198184030181529082905280516020918201206168799290910161b8ce565b6040516020818303038152906040528051906020012060001c90506000846001600160401b038111156168bc57634e487b7160e01b600052604160045260246000fd5b6040519080825280602002602001820160405280156168e5578160200160208202803683370190505b5090506000806168f687601461cd10565b905060005b81811015616a0857600087616910838061cd3c565b61691a908861cd10565b60405160200161692a919061b8ce565b6040516020818303038152906040528051906020012060001c61694d919061cdf4565b90506000805b858110156169a5578287828151811061697c57634e487b7160e01b600052603260045260246000fd5b6020026020010151141561699357600191506169a5565b8061699d8161cdd9565b915050616953565b50806169e557818686815181106169cc57634e487b7160e01b600052603260045260246000fd5b60209081029190910101526169e285600161cd10565b94505b8985106169f3575050616a08565b50508080616a009061cdd9565b9150506168fb565b5086821015616ad85760005b86811015616ad657806000805b85811015616a735782878281518110616a4a57634e487b7160e01b600052603260045260246000fd5b60200260200101511415616a615760019150616a73565b80616a6b8161cdd9565b915050616a21565b5080616ab35781868681518110616a9a57634e487b7160e01b600052603260045260246000fd5b6020908102919091010152616ab085600161cd10565b94505b898510616ac1575050616ad6565b50508080616ace9061cdd9565b915050616a14565b505b868214616af75760405162461bcd60e51b815260040161128e9061c27f565b509095945050505050565b60685462010000900460ff1681565b6000616b1c83611cfa565b616b385760405162461bcd60e51b815260040161128e9061c811565b6001600160a01b0384166000908152603f6020908152604080832086845290915290205460ff16616b7b5760405162461bcd60e51b815260040161128e9061c1e6565b6000616b868461397b565b616b91576000616b94565b60015b60ff16905060008184604051602001616bae92919061b919565b6040516020818303038152906040528051906020012090506000616bd28787616694565b9050808214616bf35760405162461bcd60e51b815260040161128e9061c545565b614cf38787616cf8565b6000614b0f336120d6565b6060600082118015616c1a5750818311155b8015616c27575060018310155b616c435760405162461bcd60e51b815260040161128e9061bed1565b6000616c4f84846167bd565b949350505050565b616c5f618096565b6068805460ff1916911515919091179055565b60635481565b6000616c8382617a56565b616c9f5760405162461bcd60e51b815260040161128e9061c6ed565b5060009081526048602052604090206005015490565b60516020526000908152604090205460ff1681565b605d5490565b6068546301000000900460ff1681565b60556020526000908152604090205481565b60015481565b60006120af616d078484615cd3565b604051806040016040528060098152602001686e756d546f6b656e7360b81b8152506157c8565b6000828152604c60209081526040808320805482518185028101850190935280835284938493929190830182828015616d9057602002820191906000526020600020905b81546001600160a01b03168152600190910190602001808311616d72575b5050505050905060005b8151811015616dff57846001600160a01b0316828281518110616dcd57634e487b7160e01b600052603260045260246000fd5b60200260200101516001600160a01b03161415616ded5760019250616dff565b80616df78161cdd9565b915050616d9a565b5090949350505050565b603f60209081526000928352604080842090915290825290205460ff1681565b60585481565b605b5481565b6060616e4082617a56565b616e5c5760405162461bcd60e51b815260040161128e9061c6ed565b6000828152604c6020908152604080832080548251818502810185019093528083529192909190830182828015616ebc57602002820191906000526020600020905b81546001600160a01b03168152600190910190602001808311616e9e575b50505050509050600081516001600160401b03811115616eec57634e487b7160e01b600052604160045260246000fd5b604051908082528060200260200182016040528015616f1f57816020015b6060815260200190600190039081616f0a5790505b50905060005b82518110156113fa57604160008681526020019081526020016000206000848381518110616f6357634e487b7160e01b600052603260045260246000fd5b60200260200101516001600160a01b03166001600160a01b031681526020019081526020016000208054616f969061cd9e565b80601f0160208091040260200160405190810160405280929190818152602001828054616fc29061cd9e565b801561700f5780601f10616fe45761010080835404028352916020019161700f565b820191906000526020600020905b815481529060010190602001808311616ff257829003601f168201915b505050505082828151811061703457634e487b7160e01b600052603260045260246000fd5b6020026020010181905250808061704a9061cdd9565b915050616f25565b604060208181526000938452818420905290825290205481565b421190565b61707961b1d8565b61708282617a56565b61708b57600080fd5b60008281526048602090815260409182902082516101c0810184528154815260018201549281019290925260028101549282019290925260038201546060820152600482015460ff808216151560808401526101008083048216151560a08501526201000090920416151560c0830152600583015460e0830152600683015490820152600782015461012082015260088201546101408201526009820180549192916101608401919061713d9061cd9e565b80601f01602080910402602001604051908101604052809291908181526020018280546171699061cd9e565b80156171b65780601f1061718b576101008083540402835291602001916171b6565b820191906000526020600020905b81548152906001019060200180831161719957829003601f168201915b5050509183525050600a8201546020820152600b82015460409091019060ff1660038111156143e157634e487b7160e01b600052602160045260246000fd5b60645481565b60685460ff1681565b606061720f82617a56565b61721857600080fd5b600082815260486020526040902060090180546172349061cd9e565b80601f01602080910402602001604051908101604052809291908181526020018280546172609061cd9e565b80156141865780601f1061728257610100808354040283529160200191614186565b820191906000526020600020905b8154815290600101906020018083116172905750939695505050505050565b6001600160a01b031660009081526049602052604090206003015460ff1690565b60615481565b60606172e182617a56565b6172fd5760405162461bcd60e51b815260040161128e9061c6ed565b600082815260486020908152604080832081516101c0810183528154815260018201549381019390935260028101549183019190915260038101546060830152600481015460ff808216151560808501526101008083048216151560a08601526201000090920416151560c0840152600582015460e084015260068201549083015260078101546101208301526008810154610140830152600981018054610160840191906173ab9061cd9e565b80601f01602080910402602001604051908101604052809291908181526020018280546173d79061cd9e565b80156174245780601f106173f957610100808354040283529160200191617424565b820191906000526020600020905b81548152906001019060200180831161740757829003601f168201915b5050509183525050600a8201546020820152600b82015460409091019060ff16600381111561746357634e487b7160e01b600052602160045260246000fd5b600381111561748257634e487b7160e01b600052602160045260246000fd5b90525060208101519091506000816001600160401b038111156174b557634e487b7160e01b600052604160045260246000fd5b6040519080825280602002602001820160405280156174e857816020015b60608152602001906001900390816174d35790505b50905060005b82811015611cf157835160009061750690839061cd10565b6000818152604760205260408120805492935090916175249061cd9e565b80601f01602080910402602001604051908101604052809291908181526020018280546175509061cd9e565b801561759d5780601f106175725761010080835404028352916020019161759d565b820191906000526020600020905b81548152906001019060200180831161758057829003601f168201915b50505050509050808484815181106175c557634e487b7160e01b600052603260045260246000fd5b6020026020010181905250505080806175dd9061cdd9565b9150506174ee565b605a5481565b605c5481565b6175f9618096565b6001600160a01b03811661761f5760405162461bcd60e51b815260040161128e9061bd09565b611eba8161a596565b60008282604051602001615ce892919061ba90565b605c5490565b3360009081526049602052604090206069546001600160a01b031661767a5760405162461bcd60e51b815260040161128e9061bab2565b606960009054906101000a90046001600160a01b03166001600160a01b03166398a54e2b6040518163ffffffff1660e01b815260040160206040518083038186803b1580156176c857600080fd5b505afa1580156176dc573d6000803e3d6000fd5b505050506040513d601f19601f82011682018060405250810190617700919061b6ba565b604e54604d54617710919061cd10565b1061772d5760405162461bcd60e51b815260040161128e9061c7cf565b600381015460ff16156177525760405162461bcd60e51b815260040161128e9061bf3f565b61775b33615856565b15801561776e575061776c33613bcd565b155b61778a5760405162461bcd60e51b815260040161128e9061c4ce565b606960009054906101000a90046001600160a01b03166001600160a01b0316639fb491f66040518163ffffffff1660e01b815260040160206040518083038186803b1580156177d857600080fd5b505afa1580156177ec573d6000803e3d6000fd5b505050506040513d601f19601f82011682018060405250810190617810919061b6ba565b8160010154101580156178b55750606960009054906101000a90046001600160a01b03166001600160a01b0316630f1f0ffe6040518163ffffffff1660e01b815260040160206040518083038186803b15801561786c57600080fd5b505afa158015617880573d6000803e3d6000fd5b505050506040513d601f19601f820116820180604052508101906178a4919061b6ba565b60048201546178b3904261cd5b565b105b156178d25760405162461bcd60e51b815260040161128e9061c016565b60685460ff16156179c357606954604080516001624ee91360e11b0319815290516000926001600160a01b03169163ff622dda916004808301926020929190829003018186803b15801561792557600080fd5b505afa158015617939573d6000803e3d6000fd5b505050506040513d601f19601f8201168201806040525081019061795d919061b6ba565b9050600061796b338361531b565b6001600160a01b0381166000908152604b60205260409020549091508211156179c0576001600160a01b0381166000908152604b60205260408120546179b290849061a355565b90506179be818361a361565b505b50505b6179cc3361af5b565b600381018054600160ff19909116811761ff0019169091554260048301556000818301819055605c8054909190617a0490849061cd10565b90915550617a12905061a07c565b336001600160a01b03167f439d77b7534ec3108fc6143bd4fbabde0b9f2bb54f7b0730d1f70dd2135b765f42604051617a4b919061b8ce565b60405180910390a250565b605954101590565b617a66618096565b6062805460ff191692151592909217909155606355565b3360009081526049602052604090206003015460ff1690565b605f5490565b617aa4618096565b606755565b6068546501000000000090046001600160a01b031681565b6001600160a01b03811660009081526049602090815260408083208151610120810183528154808252600183015494820194909452600282015492810192909252600381015460ff80821615156060850152610100918290041615156080840152600482015460a0840152600582015460c0840152600682015460e08401526007909101549082015290617b558482614b14565b158015617b665750617b6681614923565b156120af575060009392505050565b6060600083118015617b8657508183105b617ba25760405162461bcd60e51b815260040161128e9061c0fc565b6000835b617bb184600161cd10565b811015617d6857600081815260486020908152604080832081516101c0810183528154815260018201549381019390935260028101549183019190915260038101546060830152600481015460ff808216151560808501526101008083048216151560a08601526201000090920416151560c0840152600582015460e08401526006820154908301526007810154610120830152600881015461014083015260098101805461016084019190617c669061cd9e565b80601f0160208091040260200160405190810160405280929190818152602001828054617c929061cd9e565b8015617cdf5780601f10617cb457610100808354040283529160200191617cdf565b820191906000526020600020905b815481529060010190602001808311617cc257829003601f168201915b5050509183525050600a8201546020820152600b82015460409091019060ff166003811115617d1e57634e487b7160e01b600052602160045260246000fd5b6003811115617d3d57634e487b7160e01b600052602160045260246000fd5b9052506020810151909150617d52908461cd10565b9250508080617d609061cdd9565b915050617ba6565b506000816001600160401b03811115617d9157634e487b7160e01b600052604160045260246000fd5b604051908082528060200260200182016040528015617dc457816020015b6060815260200190600190039081617daf5790505b5090506000855b617dd686600161cd10565b811015616af757600081815260486020908152604080832081516101c0810183528154815260018201549381019390935260028101549183019190915260038101546060830152600481015460ff808216151560808501526101008083048216151560a08601526201000090920416151560c0840152600582015460e08401526006820154908301526007810154610120830152600881015461014083015260098101805461016084019190617e8b9061cd9e565b80601f0160208091040260200160405190810160405280929190818152602001828054617eb79061cd9e565b8015617f045780601f10617ed957610100808354040283529160200191617f04565b820191906000526020600020905b815481529060010190602001808311617ee757829003601f168201915b5050509183525050600a8201546020820152600b82015460409091019060ff166003811115617f4357634e487b7160e01b600052602160045260246000fd5b6003811115617f6257634e487b7160e01b600052602160045260246000fd5b905250905060005b8160200151811015618072578151600090617f8690839061cd10565b600081815260476020526040812080549293509091617fa49061cd9e565b80601f0160208091040260200160405190810160405280929190818152602001828054617fd09061cd9e565b801561801d5780601f10617ff25761010080835404028352916020019161801d565b820191906000526020600020905b81548152906001019060200180831161800057829003601f168201915b505050505090508087878151811061804557634e487b7160e01b600052603260045260246000fd5b602090810291909101015261805b60018761cd10565b95505050808061806a9061cdd9565b915050617f6a565b5050808061807f9061cdd9565b915050617dcb565b6069546001600160a01b031681565b61809e61aff3565b6001600160a01b03166180af615874565b6001600160a01b0316146149915760405162461bcd60e51b815260040161128e9061c3a5565b6069546001600160a01b03166180fd5760405162461bcd60e51b815260040161128e9061bab2565b60695460408051632a49798160e11b815290516000926001600160a01b031691635492f302916004808301926020929190829003018186803b15801561814257600080fd5b505afa158015618156573d6000803e3d6000fd5b505050506040513d601f19601f8201168201806040525081019061817a919061b3c8565b6001600160a01b031614156181a15760405162461bcd60e51b815260040161128e9061c8b8565b60695460408051630855d15160e01b815290516000926001600160a01b031691630855d151916004808301926020929190829003018186803b1580156181e657600080fd5b505afa1580156181fa573d6000803e3d6000fd5b505050506040513d601f19601f8201168201806040525081019061821e919061b3c8565b6001600160a01b031614156182455760405162461bcd60e51b815260040161128e9061c671565b606954604080516304e76c8f60e01b815290516000926001600160a01b0316916304e76c8f916004808301926020929190829003018186803b15801561828a57600080fd5b505afa15801561829e573d6000803e3d6000fd5b505050506040513d601f19601f820116820180604052508101906182c2919061b3c8565b6001600160a01b031614156182e95760405162461bcd60e51b815260040161128e9061bd99565b6182f281611cfa565b8061830c5750600081815260486020526040902060030154155b6183285760405162461bcd60e51b815260040161128e9061c42a565b600081815260486020526040902060040154610100900460ff161561835f5760405162461bcd60e51b815260040161128e9061c745565b6000818152604c60209081526040808320805482518185028101850190935280835291929091908301828280156183bf57602002820191906000526020600020905b81546001600160a01b031681526001909101906020018083116183a1575b50505050509050600081516001600160401b038111156183ef57634e487b7160e01b600052604160045260246000fd5b60405190808252806020026020018201604052801561842257816020015b606081526020019060019003908161840d5790505b509050600082516001600160401b0381111561844e57634e487b7160e01b600052604160045260246000fd5b604051908082528060200260200182016040528015618477578160200160208202803683370190505b50905060005b83518110156185fa5760008482815181106184a857634e487b7160e01b600052603260045260246000fd5b60209081029190910181015160008881526041835260408082206001600160a01b03841683529093529182208054919350906184e39061cd9e565b80601f016020809104026020016040519081016040528092919081815260200182805461850f9061cd9e565b801561855c5780601f106185315761010080835404028352916020019161855c565b820191906000526020600020905b81548152906001019060200180831161853f57829003601f168201915b50505060008a81526042602090815260408083206001600160a01b0389168452909152902054885193945092849250889150869081106185ac57634e487b7160e01b600052603260045260246000fd5b6020026020010181905250808585815181106185d857634e487b7160e01b600052603260045260246000fd5b60200260200101818152505050505080806185f29061cdd9565b91505061847d565b5060006186a56064606960009054906101000a90046001600160a01b03166001600160a01b031663ea19733c6040518163ffffffff1660e01b815260040160206040518083038186803b15801561865057600080fd5b505afa158015618664573d6000803e3d6000fd5b505050506040513d601f19601f82011682018060405250810190618688919061b6ba565b8651618694919061cd3c565b61869e919061cd28565b600161aff7565b60408051602081019091526000808252919250905b84518110156187a3576000805b8651811015618758576187288784815181106186f357634e487b7160e01b600052603260045260246000fd5b602002602001015188838151811061871b57634e487b7160e01b600052603260045260246000fd5b6020026020010151615d8f565b156187465761873860018361cd10565b915084821061874657618758565b806187508161cdd9565b9150506186c7565b508381106187905785828151811061878057634e487b7160e01b600052603260045260246000fd5b60200260200101519250506187a3565b508061879b8161cdd9565b9150506186ba565b506000805b845181101561888a576000805b865181101561883f578681815181106187de57634e487b7160e01b600052603260045260246000fd5b602002602001015187848151811061880657634e487b7160e01b600052603260045260246000fd5b6020026020010151141561882d5761881f60018361cd10565b915085821061882d5761883f565b806188378161cdd9565b9150506187b5565b508481106188775785828151811061886757634e487b7160e01b600052603260045260246000fd5b602002602001015192505061888a565b50806188828161cdd9565b9150506187a8565b5060006188968861397b565b80156188b857506188b68360405180602001604052806000815250615d8f565b155b80156188c357508115155b606854909150640100000000900460ff1615618c1957600088815260486020908152604080832081516101c0810183528154815260018201549381019390935260028101549183019190915260038101546060830152600481015460ff808216151560808501526101008083048216151560a08601526201000090920416151560c0840152600582015460e084015260068201549083015260078101546101208301526008810154610140830152600981018054610160840191906189879061cd9e565b80601f01602080910402602001604051908101604052809291908181526020018280546189b39061cd9e565b8015618a005780601f106189d557610100808354040283529160200191618a00565b820191906000526020600020905b8154815290600101906020018083116189e357829003601f168201915b5050509183525050600a8201546020820152600b82015460409091019060ff166003811115618a3f57634e487b7160e01b600052602160045260246000fd5b6003811115618a5e57634e487b7160e01b600052602160045260246000fd5b90525061012081015190915015618a7457600191505b618a8d8460405180602001604052806000815250615d8f565b15618c175760005b8851811015618c1557603f60008a8381518110618ac257634e487b7160e01b600052603260045260246000fd5b6020908102919091018101516001600160a01b0316825281810192909252604090810160009081208d825290925290205460ff16618aff57618c03565b618b3f888281518110618b2257634e487b7160e01b600052603260045260246000fd5b602002602001015160405180602001604052806000815250615d8f565b618b6e57878181518110618b6357634e487b7160e01b600052603260045260246000fd5b602002602001015194505b83158015618ba357506000878281518110618b9957634e487b7160e01b600052603260045260246000fd5b6020026020010151115b15618bd357868181518110618bc857634e487b7160e01b600052603260045260246000fd5b602002602001015193505b618bec8560405180602001604052806000815250615d8f565b158015618bf95750600084115b15618c0357618c15565b80618c0d8161cdd9565b915050618a95565b505b505b80618c28576066549150618c53565b606654600089815260486020526040902060010154618c5091618c4a9161cd3c565b8361b00d565b91505b60005b87518110156193f6576000888281518110618c8157634e487b7160e01b600052603260045260246000fd5b602002602001015190506000604060008c81526020019081526020016000206000836001600160a01b03166001600160a01b031681526020019081526020016000205490506000603f6000846001600160a01b03166001600160a01b0316815260200190815260200160002060008d815260200190815260200160002060009054906101000a900460ff169050600060496000856001600160a01b03166001600160a01b03168152602001908152602001600020905060456000856001600160a01b03166001600160a01b0316815260200190815260200160002073__$85afbab79b2b776d70bef879a32ed56424$__6302073bfa90918f6040518363ffffffff1660e01b8152600401618d9692919061b919565b60006040518083038186803b158015618dae57600080fd5b505af4158015618dc2573d6000803e3d6000fd5b5050505081156192cc576001600160a01b0384166000908152604960205260408120600190810191909155861515148015618dfd5750826001145b80618e12575085158015618e12575082600114155b156192ac5760695460408051632a49798160e11b815290516000926001600160a01b031691635492f302916004808301926020929190829003018186803b158015618e5c57600080fd5b505afa158015618e70573d6000803e3d6000fd5b505050506040513d601f19601f82011682018060405250810190618e94919061b3c8565b90506000606960009054906101000a90046001600160a01b03166001600160a01b0316630855d1516040518163ffffffff1660e01b815260040160206040518083038186803b158015618ee657600080fd5b505afa158015618efa573d6000803e3d6000fd5b505050506040513d601f19601f82011682018060405250810190618f1e919061b3c8565b90506000606960009054906101000a90046001600160a01b03166001600160a01b03166304e76c8f6040518163ffffffff1660e01b815260040160206040518083038186803b158015618f7057600080fd5b505afa158015618f84573d6000803e3d6000fd5b505050506040513d601f19601f82011682018060405250810190618fa8919061b3c8565b90506000836001600160a01b03166311815086896040518263ffffffff1660e01b8152600401618fd8919061b927565b60206040518083038186803b158015618ff057600080fd5b505afa158015619004573d6000803e3d6000fd5b505050506040513d601f19601f82011682018060405250810190619028919061b3c8565b90508a1561928857826001600160a01b0316631b6d990a8c606960009054906101000a90046001600160a01b03166001600160a01b0316630b08bfd96040518163ffffffff1660e01b815260040160206040518083038186803b15801561908e57600080fd5b505afa1580156190a2573d6000803e3d6000fd5b505050506040513d601f19601f820116820180604052508101906190c6919061b6ba565b6190d0919061cd3c565b836040518363ffffffff1660e01b81526004016190ee92919061cb64565b602060405180830381600087803b15801561910857600080fd5b505af115801561911c573d6000803e3d6000fd5b505050506040513d601f19601f82011682018060405250810190619140919061b58d565b61915c5760405162461bcd60e51b815260040161128e9061bf74565b816001600160a01b031663e0ca50948c606960009054906101000a90046001600160a01b03166001600160a01b031663f80de0a06040518163ffffffff1660e01b815260040160206040518083038186803b1580156191ba57600080fd5b505afa1580156191ce573d6000803e3d6000fd5b505050506040513d601f19601f820116820180604052508101906191f2919061b6ba565b6191fc919061cd3c565b836040518363ffffffff1660e01b815260040161921a92919061cb4d565b602060405180830381600087803b15801561923457600080fd5b505af1158015619248573d6000803e3d6000fd5b505050506040513d601f19601f8201168201806040525081019061926c919061b58d565b6192885760405162461bcd60e51b815260040161128e9061c487565b600185600601600082825461929d919061cd10565b909155506192c7945050505050565b60018160070160008282546192c1919061cd10565b90915550505b6193df565b6001600160a01b038416600090815260496020526040812060019081018054919290916192fa90849061cd10565b909155505060695460408051634fda48fb60e11b815290516001600160a01b0390921691639fb491f691600480820192602092909190829003018186803b15801561934457600080fd5b505afa158015619358573d6000803e3d6000fd5b505050506040513d601f19601f8201168201806040525081019061937c919061b6ba565b6001600160a01b038516600090815260496020526040902060010154106193bb5760038101805460ff191690556193b284619e1e565b6193bb84619cc8565b600381015460ff16156193da576193d184619e1e565b6193da8461af5b565b600081555b5050505080806193ee9061cdd9565b915050618c56565b50600088815260486020908152604090912060048101805461ff001916610100179055845161942d9260099092019186019061b0b4565b506000888152604860205260409020600a018290558015619b47576000888152604860205260408120805460019091015490919061946b908361cd10565b9050815b81811015619914576000818152604760209081526040808320600101546069548251632a49798160e11b815292516001600160a01b0392831695949190921692635492f3029260048083019392829003018186803b1580156194d057600080fd5b505afa1580156194e4573d6000803e3d6000fd5b505050506040513d601f19601f82011682018060405250810190619508919061b3c8565b90506000606960009054906101000a90046001600160a01b03166001600160a01b0316630855d1516040518163ffffffff1660e01b815260040160206040518083038186803b15801561955a57600080fd5b505afa15801561956e573d6000803e3d6000fd5b505050506040513d601f19601f82011682018060405250810190619592919061b3c8565b90506000606960009054906101000a90046001600160a01b03166001600160a01b03166304e76c8f6040518163ffffffff1660e01b815260040160206040518083038186803b1580156195e457600080fd5b505afa1580156195f8573d6000803e3d6000fd5b505050506040513d601f19601f8201168201806040525081019061961c919061b3c8565b90506000836001600160a01b03166311815086866040518263ffffffff1660e01b815260040161964c919061b927565b60206040518083038186803b15801561966457600080fd5b505afa158015619678573d6000803e3d6000fd5b505050506040513d601f19601f8201168201806040525081019061969c919061b3c8565b905089156198fc57826001600160a01b0316631b6d990a8b606960009054906101000a90046001600160a01b03166001600160a01b031663abb10b9b6040518163ffffffff1660e01b815260040160206040518083038186803b15801561970257600080fd5b505afa158015619716573d6000803e3d6000fd5b505050506040513d601f19601f8201168201806040525081019061973a919061b6ba565b619744919061cd3c565b836040518363ffffffff1660e01b815260040161976292919061cb64565b602060405180830381600087803b15801561977c57600080fd5b505af1158015619790573d6000803e3d6000fd5b505050506040513d601f19601f820116820180604052508101906197b4919061b58d565b6197d05760405162461bcd60e51b815260040161128e9061c231565b816001600160a01b031663e0ca50948b606960009054906101000a90046001600160a01b03166001600160a01b03166330c0bb796040518163ffffffff1660e01b815260040160206040518083038186803b15801561982e57600080fd5b505afa158015619842573d6000803e3d6000fd5b505050506040513d601f19601f82011682018060405250810190619866919061b6ba565b619870919061cd3c565b836040518363ffffffff1660e01b815260040161988e92919061cb4d565b602060405180830381600087803b1580156198a857600080fd5b505af11580156198bc573d6000803e3d6000fd5b505050506040513d601f19601f820116820180604052508101906198e0919061b58d565b6198fc5760405162461bcd60e51b815260040161128e9061c3da565b5050505050808061990c9061cdd9565b91505061946f565b5060008a8152604860205260408120600b01805460ff19166001908117909155605e80549192909161994790849061cd10565b909155505060695460408051637b39b17f60e11b815290516000926001600160a01b03169163f67362fe916004808301926020929190829003018186803b15801561999157600080fd5b505afa1580156199a5573d6000803e3d6000fd5b505050506040513d601f19601f820116820180604052508101906199c9919061b3c8565b6001600160a01b031614156199f05760405162461bcd60e51b815260040161128e9061bddc565b60695460408051637b39b17f60e11b815290516000926001600160a01b03169163f67362fe916004808301926020929190829003018186803b158015619a3557600080fd5b505afa158015619a49573d6000803e3d6000fd5b505050506040513d601f19601f82011682018060405250810190619a6d919061b3c8565b6040516348257dc960e01b81529091506001600160a01b038216906348257dc990619a9c908e9060040161b8ce565b600060405180830381600087803b158015619ab657600080fd5b505af1925050508015619ac7575060015b619b26573d808015619af5576040519150601f19603f3d011682016040523d82523d6000602084013e619afa565b606091505b5060008051602061ce6e83398151915281604051619b18919061b9b9565b60405180910390a150619b3f565b6001605c6000828254619b39919061cd10565b90915550505b505050619b7c565b6000888152604860205260408120600b01805460ff19166002179055605f805460019290619b7690849061cd10565b90915550505b6001605c6000828254619b8f919061cd10565b90915550506000888152604860205260408120600a0154605d805491929091619bb990849061cd10565b90915550506000888152604860209081526040909120600a015490619be06001600f61cd5b565b600f8110619bfe57634e487b7160e01b600052603260045260246000fd5b600202016001016000828254619c14919061cd10565b90915550619c229050611804565b6000888152604860205260408120600201546060805491929091619c4790849061cd10565b90915550506000888152604860205260408120600301546061805491929091619c7190849061cd10565b92505081905550877f98bfbdd7dba62d9141cf4f07139f8e53c0d00c0b44cad36d148730680b1621618483604051619caa92919061ba3e565b60405180910390a25050505050505050565b60006120af828461cd10565b6001600160a01b03811660009081526050602052604090205460ff1615611eba576001600160a01b038116600090815260536020526040812054604d8054919291619d159060019061cd5b565b81548110619d3357634e487b7160e01b600052603260045260246000fd5b60009182526020808320909101546001600160a01b038681168452605083526040808520805460ff19169055606a54605390945290932091909155604d5491169150600211619dd85780604d8381548110619d9e57634e487b7160e01b600052603260045260246000fd5b600091825260208083209190910180546001600160a01b0319166001600160a01b0394851617905591831681526053909152604090208290555b604d805480619df757634e487b7160e01b600052603160045260246000fd5b600082815260209020810160001990810180546001600160a01b0319169055019055505050565b6001600160a01b03811660009081526051602052604090205460ff1615611eba576001600160a01b038116600090815260546020526040812054604e8054919291619e6b9060019061cd5b565b81548110619e8957634e487b7160e01b600052603260045260246000fd5b60009182526020808320909101546001600160a01b038681168452605183526040808520805460ff19169055606a54605490945290932091909155604e5491169150600211619f2e5780604e8381548110619ef457634e487b7160e01b600052603260045260246000fd5b600091825260208083209190910180546001600160a01b0319166001600160a01b0394851617905591831681526054909152604090208290555b604e805480619df757634e487b7160e01b600052603160045260246000fd5b6001600160a01b03811660009081526052602052604090205460ff1615611eba576001600160a01b038116600090815260556020526040812054604f8054919291619f9a9060019061cd5b565b81548110619fb857634e487b7160e01b600052603260045260246000fd5b60009182526020808320909101546001600160a01b038681168452605283526040808520805460ff19169055606a54605590945290932091909155604e549116915060021161a05d5780604f838154811061a02357634e487b7160e01b600052603260045260246000fd5b600091825260208083209190910180546001600160a01b0319166001600160a01b0394851617905591831681526055909152604090208290555b604f805480619df757634e487b7160e01b600052603160045260246000fd5b60695460408051632abe0d5f60e11b815290516000926001600160a01b03169163557c1abe916004808301926020929190829003018186803b15801561a0c157600080fd5b505afa92505050801561a0f1575060408051601f3d908101601f1916820190925261a0ee9181019061b3c8565b60015b61a150573d80801561a11f576040519150601f19603f3d011682016040523d82523d6000602084013e61a124565b606091505b5060008051602061ce6e8339815191528160405161a142919061b9b9565b60405180910390a15061a152565b505b606960009054906101000a90046001600160a01b03166001600160a01b031663557c1abe6040518163ffffffff1660e01b815260040160206040518083038186803b15801561a1a057600080fd5b505afa15801561a1b4573d6000803e3d6000fd5b505050506040513d601f19601f8201168201806040525081019061a1d8919061b3c8565b90506001600160a01b03811661a2005760405162461bcd60e51b815260040161128e9061bf08565b6000816001600160a01b03163360405160240161a21d919061b927565b60408051601f198184030181529181526020820180516001600160e01b0316631f5ac9c560e11b1790525161a252919061b8fd565b6000604051808303816000865af19150503d806000811461a28f576040519150601f19603f3d011682016040523d82523d6000602084013e61a294565b606091505b505090506000826001600160a01b03163360405160240161a2b5919061b927565b60408051601f198184030181529181526020820180516001600160e01b03166358563d2160e01b1790525161a2ea919061b8fd565b6000604051808303816000865af19150503d806000811461a327576040519150601f19603f3d011682016040523d82523d6000602084013e61a32c565b606091505b50509050818061a3395750805b6117ff5760405162461bcd60e51b815260040161128e9061bb3a565b60006120af828461cd5b565b6069546040805163ca64f9e760e01b815290516000926001600160a01b03169163ca64f9e7916004808301926020929190829003018186803b15801561a3a657600080fd5b505afa15801561a3ba573d6000803e3d6000fd5b505050506040513d601f19601f8201168201806040525081019061a3de919061b3c8565b6001600160a01b0316141561a4055760405162461bcd60e51b815260040161128e9061c503565b6069546040805163ca64f9e760e01b815290516000926001600160a01b03169163ca64f9e7916004808301926020929190829003018186803b15801561a44a57600080fd5b505afa15801561a45e573d6000803e3d6000fd5b505050506040513d601f19601f8201168201806040525081019061a482919061b3c8565b6040516304ada21f60e21b81529091506001600160a01b038216906312b6887c9061a4b3908690869060040161cb4d565b602060405180830381600087803b15801561a4cd57600080fd5b505af115801561a4e1573d6000803e3d6000fd5b505050506040513d601f19601f8201168201806040525081019061a505919061b58d565b61a5215760405162461bcd60e51b815260040161128e9061bfb9565b6001600160a01b0382166000908152604b60205260408120805485929061a54990849061cd10565b92505081905550816001600160a01b03167f5aa5d56140767016c877a5333ac3e1ad31a09051098a8fdf7297c4b64530a9428460405161a589919061b8ce565b60405180910390a2505050565b600080546001600160a01b038381166001600160a01b0319831681178455604051919092169283917f8be0079c531659141344cd1fd0a4f28419497f9722a3daafe3b4186f6b6457e09190a35050565b6000605854605a5461a5f8919061cd5b565b9050606960009054906101000a90046001600160a01b03166001600160a01b031663e3115d3c6040518163ffffffff1660e01b815260040160206040518083038186803b15801561a64857600080fd5b505afa15801561a65c573d6000803e3d6000fd5b505050506040513d601f19601f8201168201806040525081019061a680919061b6ba565b811115611eba5760005b606954604080516307d630cb60e41b8152905161a708926001600160a01b031691637d630cb0916004808301926020929190829003018186803b15801561a6d057600080fd5b505afa15801561a6e4573d6000803e3d6000fd5b505050506040513d601f19601f82011682018060405250810190618c4a919061b6ba565b8110156119db576058546000908152604860205260408120805460019091015490919061a735908361cd10565b9050815b8181101561a75c5761a74a81613e9a565b8061a7548161cdd9565b91505061a739565b5061a768605854614845565b6058546040517f72c2fcc891fe835b86fc8bb9abdc52adf52499c52289b3c49e1461eabea2717590600090a25050808061a7a19061cdd9565b91505061a68a565b600061a7ba82604f8054905061b00d565b905060005b604f5481101561a8b5576000604f828154811061a7ec57634e487b7160e01b600052603260045260246000fd5b60009182526020808320909101546001600160a01b03168083526049909152604090912080549192509061a8925760038101805461ffff1916905561a83082619cc8565b61a83982619e1e565b6001600160a01b03821660008181526052602052604090819020805460ff19169055517f9dadcedba048e92b943ea1c5861cee1df63a566d7f795869c004780c1c698e2b9061a88990429061b8ce565b60405180910390a25b83831061a8a057505061a8b5565b5050808061a8ad9061cdd9565b91505061a7bf565b506119db604f600061b266565b6000838360405160200161a8d792919061b8d7565b60408051601f19818403018152918152815160209283012060009081526046909252902091909155505050565b605b5460009081526048602052604090206004015460ff1661a9385760405162461bcd60e51b815260040161128e9061c58e565b605b5460009081526048602052604090206004015462010000900460ff161561a9735760405162461bcd60e51b815260040161128e9061c2d7565b600061aa9761aa0c604d80549050606960009054906101000a90046001600160a01b03166001600160a01b031663dfeceed76040518163ffffffff1660e01b815260040160206040518083038186803b15801561a9cf57600080fd5b505afa15801561a9e3573d6000803e3d6000fd5b505050506040513d601f19601f8201168201806040525081019061aa07919061b6ba565b61b00d565b606960009054906101000a90046001600160a01b03166001600160a01b031663bd40ef4c6040518163ffffffff1660e01b815260040160206040518083038186803b15801561aa5a57600080fd5b505afa15801561aa6e573d6000803e3d6000fd5b505050506040513d601f19601f8201168201806040525081019061aa92919061b6ba565b61aff7565b604d546069546040805163189460df60e31b8152905193945091926001600160a01b039091169163c4a306f8916004808301926020929190829003018186803b15801561aae357600080fd5b505afa15801561aaf7573d6000803e3d6000fd5b505050506040513d601f19601f8201168201806040525081019061ab1b919061b6ba565b60015461ab28904261cd5b565b106119db57605b80546000908152604860209081526040808320600301869055925482528282206002018590556069548351631b4930b560e11b81529351929361abd7936001600160a01b0390921692633692616a92600480840193829003018186803b15801561ab9857600080fd5b505afa15801561abac573d6000803e3d6000fd5b505050506040513d601f19601f8201168201806040525081019061abd0919061b6ba565b4290619cbc565b9050600061ac6b606960009054906101000a90046001600160a01b03166001600160a01b03166372e540306040518163ffffffff1660e01b815260040160206040518083038186803b15801561ac2c57600080fd5b505afa15801561ac40573d6000803e3d6000fd5b505050506040513d601f19601f8201168201806040525081019061ac64919061b6ba565b8390619cbc565b605b8054600090815260486020526040808220600501869055825482528082206006018490559154815220600401805462ff000019166201000017905590506001841080159061acbc575060018310155b61acd85760405162461bcd60e51b815260040161128e9061bd4f565b600061ace48585616c08565b9050600081516001600160401b0381111561ad0f57634e487b7160e01b600052604160045260246000fd5b60405190808252806020026020018201604052801561ad38578160200160208202803683370190505b50905060005b825181101561adf757604d83828151811061ad6957634e487b7160e01b600052603260045260246000fd5b60200260200101518154811061ad8f57634e487b7160e01b600052603260045260246000fd5b9060005260206000200160009054906101000a90046001600160a01b031682828151811061adcd57634e487b7160e01b600052603260045260246000fd5b6001600160a01b03909216602092830291909101909101528061adef8161cdd9565b91505061ad3e565b5060005b825181101561af1757600082828151811061ae2657634e487b7160e01b600052603260045260246000fd5b60200260200101519050600060496000836001600160a01b03166001600160a01b03168152602001908152602001600020905061ae6282619cc8565b61ae6b8261b01c565b605b80546000908152604c60209081526040822080546001808201835591845291832090910180546001600160a01b0319166001600160a01b0387161790559154835560058301805490919061aec290849061cd10565b9091555050605b546040517fe4ee2dfabe57cee15e3f558890b20455f54c1fa0718e5276faad70a6500e6b8c9061aefa90859061b927565b60405180910390a25050808061af0f9061cdd9565b91505061adfb565b50426001908155605b5461af2a91619cbc565b605b5561af356165df565b6056819055506001605c600082825461af4e919061cd10565b9091555050505050505050565b61af6481615856565b611eba57604d8054600180820183557f1b524e1c8b5382bb913d0a2aae8ad83bb92a45fcb47761fa4a12f5b6316c2b2090910180546001600160a01b0319166001600160a01b0385169081179091556000908152605060205260409020805460ff191682179055905461afd7919061cd5b565b6001600160a01b03821660009081526053602052604090205550565b3390565b600081831161b00657816120af565b5090919050565b600081831061b00657816120af565b61b02581613bcd565b611eba57604e8054600180820183557f9b65e484ce3d961a557081a44c6c68a0a27eca0b88fce820bdd99c3dc223dcc790910180546001600160a01b0319166001600160a01b0385169081179091556000908152605160205260409020805460ff191682179055905461b098919061cd5b565b6001600160a01b03821660009081526054602052604090205550565b82805461b0c09061cd9e565b90600052602060002090601f01602090048101928261b0e2576000855561b128565b82601f1061b0fb57805160ff191683800117855561b128565b8280016001018555821561b128579182015b8281111561b12857825182559160200191906001019061b10d565b5061b13492915061b280565b5090565b50805461b1449061cd9e565b6000825580601f1061b1565750611eba565b601f016020900490600052602060002090810190611eba919061b280565b6040518060e001604052806060815260200160006001600160a01b03168152602001600081526020016000815260200160608152602001606081526020016000600381111561b1d357634e487b7160e01b600052602160045260246000fd5b905290565b604051806101c00160405280600081526020016000815260200160008152602001600081526020016000151581526020016000151581526020016000151581526020016000815260200160008152602001600081526020016000815260200160608152602001600081526020016000600381111561b1d357634e487b7160e01b600052602160045260246000fd5b5080546000825590600052602060002090810190611eba91905b5b8082111561b134576000815560010161b281565b60008083601f84011261b2a6578182fd5b5081356001600160401b0381111561b2bc578182fd5b6020830191508360208083028501011115613e9357600080fd5b600082601f83011261b2e6578081fd5b8135602061b2fb61b2f68361cced565b61ccc4565b828152818101908583018385028701840188101561b317578586fd5b855b8581101561b3355781358452928401929084019060010161b319565b5090979650505050505050565b600082601f83011261b352578081fd5b81356001600160401b0381111561b36b5761b36b61ce34565b61b37e601f8201601f191660200161ccc4565b81815284602083860101111561b392578283fd5b816020850160208301379081016020019190915292915050565b60006020828403121561b3bd578081fd5b81356120af8161ce4a565b60006020828403121561b3d9578081fd5b81516120af8161ce4a565b6000806040838503121561b3f6578081fd5b823561b4018161ce4a565b946020939093013593505050565b60008060006060848603121561b423578081fd5b833561b42e8161ce4a565b95602085013595506040909401359392505050565b60008060008060006080868803121561b45a578081fd5b85356001600160401b038082111561b470578283fd5b818801915088601f83011261b483578283fd5b8135602061b49361b2f68361cced565b82815281810190858301875b8581101561b4c85761b4b68f8684358b010161b342565b8452928401929084019060010161b49f565b50909a5050508901359250508082111561b4e0578283fd5b61b4ec89838a0161b295565b9096509450604088013591508082111561b504578283fd5b61b51089838a0161b2d6565b9350606088013591508082111561b525578283fd5b5061b5328882890161b342565b9150509295509295909350565b60006020828403121561b550578081fd5b81356001600160401b0381111561b565578182fd5b616c4f8482850161b2d6565b60006020828403121561b582578081fd5b81356120af8161ce5f565b60006020828403121561b59e578081fd5b81516120af8161ce5f565b6000806040838503121561b5bb578182fd5b823561b4018161ce5f565b6000806040838503121561b5d8578182fd5b8235915060208301356001600160401b0381111561b5f4578182fd5b61b6008582860161b342565b9150509250929050565b6000806040838503121561b61c578182fd5b82356001600160401b038082111561b632578384fd5b61b63e8683870161b342565b9350602085013591508082111561b653578283fd5b5061b6008582860161b342565b6000806040838503121561b672578182fd5b82356001600160401b0381111561b687578283fd5b61b6938582860161b342565b95602094909401359450505050565b60006020828403121561b6b3578081fd5b5035919050565b600060208284031215612320578081fd5b6000806040838503121561b6dd578182fd5b82359150602083013561b6ef8161ce4a565b809150509250929050565b600080600080600060a0868803121561b711578283fd5b8535945060208601359350604086013592506060860135915060808601356001600160401b0381111561b742578182fd5b61b5328882890161b342565b6000806000806080858703121561b763578182fd5b8435935060208501356001600160401b0381111561b77f578283fd5b61b78b8782880161b342565b949794965050505060408301359260600135919050565b6000806040838503121561b7b4578182fd5b50508035926020909101359150565b6000806000806080858703121561b7d8578182fd5b8435935060208501359250604085013561b7f18161ce4a565b9396929550929360600135925050565b6000815180845260208085019450808401835b8381101561b8305781518752958201959082019060010161b814565b509495945050505050565b15159052565b6000815180845261b85981602086016020860161cd72565b601f01601f19169290920160200192915050565b6004811061b88b57634e487b7160e01b600052602160045260246000fd5b9052565b60609190911b6bffffffffffffffffffffffff1916815260140190565b60609290921b6bffffffffffffffffffffffff19168252601482015260340190565b90815260200190565b6000838252825161b8ef81602085016020870161cd72565b919091016020019392505050565b6000825161b90f81846020870161cd72565b9190910192915050565b918252602082015260400190565b6001600160a01b0391909116815260200190565b6000602080830181845280855180835260408601915060408482028701019250838701855b8281101561b98e57603f1988860301845261b97c85835161b841565b9450928501929085019060010161b960565b5092979650505050505050565b6000602082526120af602083018461b801565b901515815260200190565b6000602082526120af602083018461b841565b600060e0825261b9df60e083018a61b841565b6001600160a01b03891660208401526040830188905260608301879052828103608084015261ba0e818761b841565b905082810360a084015261ba22818661b841565b91505061ba3260c083018461b86d565b98975050505050505050565b60006040825261ba51604083018561b841565b905082151560208301529392505050565b60006040825261ba75604083018561b841565b828103602084015261ba87818561b841565b95945050505050565b60006040825261baa3604083018561b841565b90508260208301529392505050565b6020808252601f908201527f506172616d6574657273204d616e61676572206d757374206265207365742e00604082015260600190565b60208082526031908201527f676976656e204461746142617463682073686f756c6420626520415050524f5660408201527011510b08185b99081a5d081a5cc81b9bdd607a1b606082015260800190565b60208082526025908201527f72656365697665722072656a6563746564205f7265747269657665534675656c6040820152640818d85b1b60da1b606082015260800190565b6020808252602f908201527f636f6d6d697420706572696f64206e6565647320746f206265206f70656e206660408201526e1bdc881d1a1a5cc818985d18da1259608a1b606082015260800190565b60208082526027908201527f696e70757420617272617973206d757374206265206f662073616d65206c656e6040820152666774682028322960c81b606082015260800190565b60208082526052908201527f4e6f74207468652073616d6520766f7465207468616e20636f6d6d697465642c60408201527f20696d706f737369626c6520746f206d61746368207769746820676976656e206060820152715f73616c742026205f636c656172566f746560701b608082015260a00190565b60208082526056908201527f4e6f74207468652073616d652068617368207468616e20636f6d6d697465642c60408201527f20696d706f737369626c6520746f206d61746368207769746820676976656e206060820152750bee6c2d8e8404c40bec6d8cac2e492a08ca690c2e6d60531b608082015260a00190565b60208082526026908201527f4f776e61626c653a206e6577206f776e657220697320746865207a65726f206160408201526564647265737360d01b606082015260800190565b6020808252602a908201527f4661696c20647572696e6720616c6c6f636174696f6e3a206e6f7420656e6f75604082015269676820776f726b65727360b01b606082015260800190565b60208082526023908201527f5265776172644d616e61676572206973206e756c6c20696e20506172616d657460408201526265727360e81b606082015260800190565b6020808252602c908201527f436f6d706c69616e636553797374656d206e756c6c20696e20506172616d657460408201526b195c9cc810dbdb9d1c9858dd60a21b606082015260800190565b60208082526038908201527f55736572206e6565647320746f20626520616c6c6f636174656420746f20746860408201527f697320626174636820746f20636f6d6d6974206f6e2069740000000000000000606082015260800190565b6020808252602c908201527f636f756c64206e6f74207265776172642052455020696e2072657665616c537060408201526b6f74436865636b2c20312e6160a01b606082015260800190565b60208082526019908201527f6b206f72204e20617265206e6f74204f4b20666f7220524e4700000000000000604082015260600190565b6020808252601d908201527f734675656c3a206e756c6c2041646472657373204e6f742056616c6964000000604082015260600190565b6020808252818101527f576f726b657220697320616c7265616479207265676973746572656420283129604082015260600190565b60208082526025908201527f636f756c64206e6f74207265776172642052455020696e2056616c69646174656040820152642c20312e6160d81b606082015260800190565b6020808252603f908201527f436f756c64206e6f74207265717565737420656e6f75676820616c6c6f63617460408201527f6564207374616b652c2072657175657374416c6c6f63617465645374616b6500606082015260800190565b6020808252602d908201527f41646472657373206b69636b65642074656d706f726172696c792066726f6d2060408201526c3830b93a34b1b4b830ba34b7b760991b606082015260800190565b6020808252602f908201527f5573657220686173206e6f7420636f6d6d69746564206265666f72652c20746860408201526e1d5cc818d85b89dd081c995d99585b608a1b606082015260800190565b6020808252602a908201527f53706f7474696e67206973206e6f742063757272656e746c7920656e61626c656040820152693210313c9027bbb732b960b11b606082015260800190565b6020808252601c908201527f496e70757420626f756e6461726965732061726520696e76616c696400000000604082015260600190565b60208082526036908201527f476c6f62616c206c696d69743a206578636565646564206d61782064617461206040820152753832b9103437bab916103932ba393c903630ba32b91760511b606082015260800190565b60208082526039908201527f646c6c4d61703a20646f6573206e6f7420636f696e7461696e205f446174614260408201527f61746368496420666f7220746865206d73672073656e64657200000000000000606082015260800190565b6020808252602b908201527f75736572206d75737420686176652072657665616c656420696e20746869732060408201526a0ced2eccadc4084c2e8c6d60ab1b606082015260800190565b6020808252602e908201527f636f756c64206e6f74207265776172642052455020696e2056616c696461746560408201526d4461746142617463682c20322e6160901b606082015260800190565b60208082526010908201526f149391c81a5b9cdd59999a58da595b9d60821b604082015260600190565b6020808252601490820152733737ba1030903b30b634b2103837b9b4ba34b7b760611b604082015260600190565b6020808252603b908201527f43616e277420616c6c6f6361746520776f726b2c207468652063757272656e7460408201527f20626174636820697320616c726561647920616c6c6f63617465640000000000606082015260800190565b6020808252602c908201527f576f726b6572206973206e6f74207265676973746572656420736f2063616e2760408201526b3a103ab73932b3b4b9ba32b960a11b606082015260800190565b6020808252600b908201526a04e5f72616e6765203e20360ac1b604082015260600190565b6020808252818101527f4f776e61626c653a2063616c6c6572206973206e6f7420746865206f776e6572604082015260600190565b60208082526030908201527f636f756c64206e6f742072657761726420746f6b656e20696e2056616c69646160408201526f3a32a230ba30a130ba31b4161019173160811b606082015260800190565b6020808252603a908201527f5f446174614261746368496420686173206e6f7420656e6465642c206f72206e60408201527f6f7420657665727920766f74657273206861766520766f746564000000000000606082015260800190565b60208082526027908201527f636f756c64206e6f742072657761726420746f6b656e20696e2056616c6964616040820152663a32961018973160c91b606082015260800190565b6020808252818101527f576f726b657220697320616c7265616479207265676973746572656420283229604082015260600190565b60208082526022908201527f5374616b654d616e61676572206973206e756c6c20696e20506172616d657465604082015261727360f01b606082015260800190565b60208082526029908201527f6765744e756d50617373696e67546f6b656e733a20686173686573206d75737460408201526808189948195c5d585b60ba1b606082015260800190565b60208082526036908201527f43616e277420616c6c6f6361746520776f726b2c207468652063757272656e74604082015275206261746368206973206e6f7420636f6d706c65746560501b606082015260800190565b60208082526026908201527f52657665616c20706572696f64206e6f74206f70656e20666f7220746869732060408201526511185d18525160d21b606082015260800190565b60208082526027908201527f617661696c61626c65546f6b656e732073686f756c64206265203e3d205f6e756040820152666d546f6b656e7360c81b606082015260800190565b6020808252818101527f5265704d616e61676572206973206e756c6c20696e20506172616d6574657273604082015260600190565b60208082526027908201527f696e70757420617272617973206d757374206265206f662073616d65206c656e6040820152666774682028312960c81b606082015260800190565b60208082526017908201527f5f4461746142617463684964206d757374206578697374000000000000000000604082015260600190565b60208082526007908201526605f6b203e3d20360cc1b604082015260600190565b60208082526021908201527f5f446174614261746368496420697320616c72656164792076616c69646174656040820152601960fa1b606082015260800190565b60208082526029908201527f557365722068617320616c726561647920636f6d6d6974656420746f207468696040820152681cc818985d18da125960ba1b606082015260800190565b60208082526022908201527f4d6178696d756d207265676973746572656420776f726b65727320616c726561604082015261647960f01b606082015260800190565b6020808252602a908201527f5f446174614261746368496420636865636b696e6720766f7465206d757374206040820152691a185d9948195b99195960b21b606082015260800190565b6020808252603b908201527f436f756c64206e6f74207769746864726177566f74696e67526967687473207460408201527f68726f7567682050726f78795374616b654465616c6c6f636174650000000000606082015260800190565b60208082526024908201527f416464726573734d616e61676572206973206e756c6c20696e20506172616d656040820152637465727360e01b606082015260800190565b6020808252600f908201526e11185d18481b5d5cdd08195e1a5cdd608a1b604082015260600190565b6020808252602c908201527f557365722068617320616c72656164792072657665616c65642c20746875732060408201526b18d85b89dd081c995d99585b60a21b606082015260800190565b6020808252602e908201527f636f756c64206e6f742072657761726420746f6b656e20696e2072657665616c60408201526d29b837ba21b432b1b5961018973160911b606082015260800190565b60006020825282516020830152602083015160408301526040830151606083015260608301516080830152608083015161c9fc60a084018261b83b565b5060a083015161ca0f60c084018261b83b565b5060c083015161ca2260e084018261b83b565b5060e0830151610100838101919091528301516101208084019190915283015161014080840191909152830151610160808401919091528301516101c061018080850182905261ca766101e086018461b841565b908601516101a086810191909152860151909250616dff8286018261b86d565b93845260208401929092526040830152606082015260800190565b600060208252825160e0602084015261cace61010084018261b841565b905060018060a01b03602085015116604084015260408401516060840152606084015160808401526080840151601f19808584030160a086015261cb12838361b841565b925060a08601519150808584030160c08601525061cb30828261b841565b91505060c084015161cb4560e085018261b86d565b509392505050565b9182526001600160a01b0316602082015260400190565b9182526001600160a01b031660208201526000604082015260600190565b600083825260406020830152616c4f604083018461b801565b9283526020830191909152604082015260600190565b988952602089019790975260408801959095529215156060870152901515608086015260a085015260c084015260e08301526101008201526101200190565b60008f82528e60208301528d60408301528c60608301528b151560808301528a151560a083015261cc2460c083018b61b83b565b8860e08301528761010083015286610120830152856101408301526101c061016083015261cc566101c083018661b841565b90508361018083015261cc6d6101a083018461b86d565b9f9e505050505050505050505050505050565b6000808335601e1984360301811261cc96578283fd5b8301803591506001600160401b0382111561ccaf578283fd5b602001915036819003821315613e9357600080fd5b6040518181016001600160401b038111828210171561cce55761cce561ce34565b604052919050565b60006001600160401b0382111561cd065761cd0661ce34565b5060209081020190565b6000821982111561cd235761cd2361ce08565b500190565b60008261cd375761cd3761ce1e565b500490565b600081600019048311821515161561cd565761cd5661ce08565b500290565b60008282101561cd6d5761cd6d61ce08565b500390565b60005b8381101561cd8d57818101518382015260200161cd75565b838111156141205750506000910152565b60028104600182168061cdb257607f821691505b6020821081141561cdd357634e487b7160e01b600052602260045260246000fd5b50919050565b600060001982141561cded5761cded61ce08565b5060010190565b60008261ce035761ce0361ce1e565b500690565b634e487b7160e01b600052601160045260246000fd5b634e487b7160e01b600052601260045260246000fd5b634e487b7160e01b600052604160045260246000fd5b6001600160a01b0381168114611eba57600080fd5b8015158114611eba57600080fdfe4b87bbd93ba65ede1e2efeca735d9f7a6720bf7d6db0a8355b17dba5b64e5783a26469706673582212209a29e7bd55aea6371069b348ee2d662dd3ca548d6d169729c84b99b7fb050ac864736f6c63430008000033",
  "linkReferences": {
    "contracts/worksystems/DataSpotting.sol": {
      "DLL": [
        {
          "length": 20,
          "start": 8520
        },
        {
          "length": 20,
          "start": 8692
        },
        {
          "length": 20,
          "start": 14033
        },
        {
          "length": 20,
          "start": 20831
        },
        {
          "length": 20,
          "start": 20993
        },
        {
          "length": 20,
          "start": 21188
        },
        {
          "length": 20,
          "start": 23286
        },
        {
          "length": 20,
          "start": 23466
        },
        {
          "length": 20,
          "start": 36647
        }
      ]
    }
  },
  "deployedLinkReferences": {
    "contracts/worksystems/DataSpotting.sol": {
      "DLL": [
        {
          "length": 20,
          "start": 8063
        },
        {
          "length": 20,
          "start": 8235
        },
        {
          "length": 20,
          "start": 13576
        },
        {
          "length": 20,
          "start": 20374
        },
        {
          "length": 20,
          "start": 20536
        },
        {
          "length": 20,
          "start": 20731
        },
        {
          "length": 20,
          "start": 22829
        },
        {
          "length": 20,
          "start": 23009
        },
        {
          "length": 20,
          "start": 36190
        }
      ]
    }
  }
}