{
  "_format": "hh-sol-artifact-1",
  "contractName": "DataSpotting",
  "sourceName": "contracts/worksystems/DataSpotting.sol",
  "abi": [
    {
      "inputs": [
        {
          "internalType": "address",
          "name": "EXDT_token",
          "type": "address"
        }
      ],
      "stateMutability": "nonpayable",
      "type": "constructor"
    },
    {
      "anonymous": false,
      "inputs": [
        {
          "indexed": false,
          "internalType": "bytes",
          "name": "bytesFailure",
          "type": "bytes"
        }
      ],
      "name": "BytesFailure",
      "type": "event"
    },
    {
      "anonymous": false,
      "inputs": [
        {
          "indexed": true,
          "internalType": "address",
          "name": "previousOwner",
          "type": "address"
        },
        {
          "indexed": true,
          "internalType": "address",
          "name": "newOwner",
          "type": "address"
        }
      ],
      "name": "OwnershipTransferred",
      "type": "event"
    },
    {
      "anonymous": false,
      "inputs": [
        {
          "indexed": true,
          "internalType": "uint256",
          "name": "epochNumber",
          "type": "uint256"
        }
      ],
      "name": "_NewEpoch",
      "type": "event"
    },
    {
      "anonymous": false,
      "inputs": [
        {
          "indexed": false,
          "internalType": "string",
          "name": "hash",
          "type": "string"
        },
        {
          "indexed": true,
          "internalType": "address",
          "name": "creator",
          "type": "address"
        }
      ],
      "name": "_SpotAccepted",
      "type": "event"
    },
    {
      "anonymous": false,
      "inputs": [
        {
          "indexed": true,
          "internalType": "uint256",
          "name": "DataID",
          "type": "uint256"
        },
        {
          "indexed": false,
          "internalType": "uint256",
          "name": "numTokens",
          "type": "uint256"
        },
        {
          "indexed": true,
          "internalType": "address",
          "name": "voter",
          "type": "address"
        }
      ],
      "name": "_SpotCheckCommitted",
      "type": "event"
    },
    {
      "anonymous": false,
      "inputs": [
        {
          "indexed": true,
          "internalType": "uint256",
          "name": "DataID",
          "type": "uint256"
        },
        {
          "indexed": false,
          "internalType": "uint256",
          "name": "numTokens",
          "type": "uint256"
        },
        {
          "indexed": false,
          "internalType": "uint256",
          "name": "votesFor",
          "type": "uint256"
        },
        {
          "indexed": false,
          "internalType": "uint256",
          "name": "votesAgainst",
          "type": "uint256"
        },
        {
          "indexed": true,
          "internalType": "uint256",
          "name": "choice",
          "type": "uint256"
        },
        {
          "indexed": true,
          "internalType": "address",
          "name": "voter",
          "type": "address"
        }
      ],
      "name": "_SpotCheckRevealed",
      "type": "event"
    },
    {
      "anonymous": false,
      "inputs": [
        {
          "indexed": true,
          "internalType": "uint256",
          "name": "DataID",
          "type": "uint256"
        },
        {
          "indexed": false,
          "internalType": "string",
          "name": "file_hash",
          "type": "string"
        },
        {
          "indexed": false,
          "internalType": "string",
          "name": "URL_domain",
          "type": "string"
        },
        {
          "indexed": false,
          "internalType": "string[]",
          "name": "tags",
          "type": "string[]"
        },
        {
          "indexed": true,
          "internalType": "address",
          "name": "sender",
          "type": "address"
        }
      ],
      "name": "_SpotSubmitted",
      "type": "event"
    },
    {
      "anonymous": false,
      "inputs": [
        {
          "indexed": true,
          "internalType": "uint256",
          "name": "DataID",
          "type": "uint256"
        },
        {
          "indexed": true,
          "internalType": "address",
          "name": "voter",
          "type": "address"
        }
      ],
      "name": "_TokensRescued",
      "type": "event"
    },
    {
      "anonymous": false,
      "inputs": [
        {
          "indexed": false,
          "internalType": "uint256",
          "name": "numTokens",
          "type": "uint256"
        },
        {
          "indexed": true,
          "internalType": "address",
          "name": "voter",
          "type": "address"
        }
      ],
      "name": "_VotingRightsGranted",
      "type": "event"
    },
    {
      "anonymous": false,
      "inputs": [
        {
          "indexed": false,
          "internalType": "uint256",
          "name": "numTokens",
          "type": "uint256"
        },
        {
          "indexed": true,
          "internalType": "address",
          "name": "voter",
          "type": "address"
        }
      ],
      "name": "_VotingRightsWithdrawn",
      "type": "event"
    },
    {
      "anonymous": false,
      "inputs": [
        {
          "indexed": true,
          "internalType": "uint256",
          "name": "batchID",
          "type": "uint256"
        },
        {
          "indexed": false,
          "internalType": "address",
          "name": "worker",
          "type": "address"
        }
      ],
      "name": "_WorkAllocated",
      "type": "event"
    },
    {
      "anonymous": false,
      "inputs": [
        {
          "indexed": true,
          "internalType": "address",
          "name": "worker",
          "type": "address"
        },
        {
          "indexed": false,
          "internalType": "uint256",
          "name": "timestamp",
          "type": "uint256"
        }
      ],
      "name": "_WorkerRegistered",
      "type": "event"
    },
    {
      "anonymous": false,
      "inputs": [
        {
          "indexed": true,
          "internalType": "address",
          "name": "worker",
          "type": "address"
        },
        {
          "indexed": false,
          "internalType": "uint256",
          "name": "timestamp",
          "type": "uint256"
        }
      ],
      "name": "_WorkerUnregistered",
      "type": "event"
    },
    {
      "inputs": [],
      "name": "AddressManager",
      "outputs": [
        {
          "internalType": "contract IAddressManager",
          "name": "",
          "type": "address"
        }
      ],
      "stateMutability": "view",
      "type": "function"
    },
    {
      "inputs": [],
      "name": "AllTxsCounter",
      "outputs": [
        {
          "internalType": "uint256",
          "name": "",
          "type": "uint256"
        }
      ],
      "stateMutability": "view",
      "type": "function"
    },
    {
      "inputs": [],
      "name": "AllocateWork",
      "outputs": [],
      "stateMutability": "nonpayable",
      "type": "function"
    },
    {
      "inputs": [],
      "name": "AllocatedBatchCursor",
      "outputs": [
        {
          "internalType": "uint256",
          "name": "",
          "type": "uint256"
        }
      ],
      "stateMutability": "view",
      "type": "function"
    },
    {
      "inputs": [],
      "name": "AmIRegistered",
      "outputs": [
        {
          "internalType": "bool",
          "name": "passed",
          "type": "bool"
        }
      ],
      "stateMutability": "view",
      "type": "function"
    },
    {
      "inputs": [
        {
          "internalType": "string",
          "name": "_a",
          "type": "string"
        },
        {
          "internalType": "string",
          "name": "_b",
          "type": "string"
        }
      ],
      "name": "AreStringsEqual",
      "outputs": [
        {
          "internalType": "bool",
          "name": "",
          "type": "bool"
        }
      ],
      "stateMutability": "pure",
      "type": "function"
    },
    {
      "inputs": [],
      "name": "BatchCheckingCursor",
      "outputs": [
        {
          "internalType": "uint256",
          "name": "",
          "type": "uint256"
        }
      ],
      "stateMutability": "view",
      "type": "function"
    },
    {
      "inputs": [],
      "name": "COMMIT_ROUND_DURATION",
      "outputs": [
        {
          "internalType": "uint256",
          "name": "",
          "type": "uint256"
        }
      ],
      "stateMutability": "view",
      "type": "function"
    },
    {
      "inputs": [],
      "name": "CONSENSUS_WORKER_SIZE",
      "outputs": [
        {
          "internalType": "uint256",
          "name": "",
          "type": "uint256"
        }
      ],
      "stateMutability": "view",
      "type": "function"
    },
    {
      "inputs": [],
      "name": "CurrentWorkEpoch",
      "outputs": [
        {
          "internalType": "uint256",
          "name": "",
          "type": "uint256"
        }
      ],
      "stateMutability": "view",
      "type": "function"
    },
    {
      "inputs": [],
      "name": "DATA_BATCH_SIZE",
      "outputs": [
        {
          "internalType": "uint256",
          "name": "",
          "type": "uint256"
        }
      ],
      "stateMutability": "view",
      "type": "function"
    },
    {
      "inputs": [
        {
          "internalType": "uint256",
          "name": "",
          "type": "uint256"
        }
      ],
      "name": "DataBatch",
      "outputs": [
        {
          "internalType": "uint256",
          "name": "start_idx",
          "type": "uint256"
        },
        {
          "internalType": "uint256",
          "name": "end_idx",
          "type": "uint256"
        },
        {
          "internalType": "uint256",
          "name": "counter",
          "type": "uint256"
        },
        {
          "internalType": "uint256",
          "name": "unrevealed_workers",
          "type": "uint256"
        },
        {
          "internalType": "bool",
          "name": "complete",
          "type": "bool"
        },
        {
          "internalType": "bool",
          "name": "checked",
          "type": "bool"
        },
        {
          "internalType": "bool",
          "name": "allocated_to_work",
          "type": "bool"
        },
        {
          "internalType": "uint256",
          "name": "commitEndDate",
          "type": "uint256"
        },
        {
          "internalType": "uint256",
          "name": "revealEndDate",
          "type": "uint256"
        },
        {
          "internalType": "uint256",
          "name": "votesFor",
          "type": "uint256"
        },
        {
          "internalType": "uint256",
          "name": "votesAgainst",
          "type": "uint256"
        },
        {
          "internalType": "string",
          "name": "batchIPFSfile",
          "type": "string"
        },
        {
          "internalType": "enum DataSpotting.DataStatus",
          "name": "status",
          "type": "uint8"
        }
      ],
      "stateMutability": "view",
      "type": "function"
    },
    {
      "inputs": [
        {
          "internalType": "uint256",
          "name": "_DataBatchId",
          "type": "uint256"
        }
      ],
      "name": "DataCommitEndDate",
      "outputs": [
        {
          "internalType": "uint256",
          "name": "commitEndDate",
          "type": "uint256"
        }
      ],
      "stateMutability": "view",
      "type": "function"
    },
    {
      "inputs": [
        {
          "internalType": "uint256",
          "name": "_DataBatchId",
          "type": "uint256"
        }
      ],
      "name": "DataEnded",
      "outputs": [
        {
          "internalType": "bool",
          "name": "ended",
          "type": "bool"
        }
      ],
      "stateMutability": "view",
      "type": "function"
    },
    {
      "inputs": [
        {
          "internalType": "uint256",
          "name": "_DataBatchId",
          "type": "uint256"
        }
      ],
      "name": "DataExists",
      "outputs": [
        {
          "internalType": "bool",
          "name": "exists",
          "type": "bool"
        }
      ],
      "stateMutability": "view",
      "type": "function"
    },
    {
      "inputs": [],
      "name": "DataNonce",
      "outputs": [
        {
          "internalType": "uint256",
          "name": "",
          "type": "uint256"
        }
      ],
      "stateMutability": "view",
      "type": "function"
    },
    {
      "inputs": [
        {
          "internalType": "uint256",
          "name": "_DataBatchId",
          "type": "uint256"
        }
      ],
      "name": "DataRevealEndDate",
      "outputs": [
        {
          "internalType": "uint256",
          "name": "revealEndDate",
          "type": "uint256"
        }
      ],
      "stateMutability": "view",
      "type": "function"
    },
    {
      "inputs": [],
      "name": "FormattingSystem",
      "outputs": [
        {
          "internalType": "contract IFormattingSystem",
          "name": "",
          "type": "address"
        }
      ],
      "stateMutability": "view",
      "type": "function"
    },
    {
      "inputs": [
        {
          "internalType": "address",
          "name": "user_",
          "type": "address"
        }
      ],
      "name": "GetCurrentWork",
      "outputs": [
        {
          "internalType": "uint256",
          "name": "",
          "type": "uint256"
        }
      ],
      "stateMutability": "view",
      "type": "function"
    },
    {
      "inputs": [
        {
          "internalType": "address",
          "name": "user_",
          "type": "address"
        }
      ],
      "name": "IsNewWorkAvailable",
      "outputs": [
        {
          "internalType": "bool",
          "name": "",
          "type": "bool"
        }
      ],
      "stateMutability": "view",
      "type": "function"
    },
    {
      "inputs": [],
      "name": "LastBatchCounter",
      "outputs": [
        {
          "internalType": "uint256",
          "name": "",
          "type": "uint256"
        }
      ],
      "stateMutability": "view",
      "type": "function"
    },
    {
      "inputs": [],
      "name": "MIN_CONSENSUS_WORKER_COUNT",
      "outputs": [
        {
          "internalType": "uint256",
          "name": "",
          "type": "uint256"
        }
      ],
      "stateMutability": "view",
      "type": "function"
    },
    {
      "inputs": [],
      "name": "MIN_REP_Data",
      "outputs": [
        {
          "internalType": "uint256",
          "name": "",
          "type": "uint256"
        }
      ],
      "stateMutability": "view",
      "type": "function"
    },
    {
      "inputs": [],
      "name": "MIN_REP_REVEAL",
      "outputs": [
        {
          "internalType": "uint256",
          "name": "",
          "type": "uint256"
        }
      ],
      "stateMutability": "view",
      "type": "function"
    },
    {
      "inputs": [],
      "name": "MIN_REWARD_Data",
      "outputs": [
        {
          "internalType": "uint256",
          "name": "",
          "type": "uint256"
        }
      ],
      "stateMutability": "view",
      "type": "function"
    },
    {
      "inputs": [],
      "name": "MIN_STAKE",
      "outputs": [
        {
          "internalType": "uint256",
          "name": "",
          "type": "uint256"
        }
      ],
      "stateMutability": "view",
      "type": "function"
    },
    {
      "inputs": [
        {
          "internalType": "address",
          "name": "",
          "type": "address"
        },
        {
          "internalType": "uint256",
          "name": "",
          "type": "uint256"
        }
      ],
      "name": "MasterWorkers",
      "outputs": [
        {
          "internalType": "address",
          "name": "",
          "type": "address"
        }
      ],
      "stateMutability": "view",
      "type": "function"
    },
    {
      "inputs": [],
      "name": "REVEAL_ROUND_DURATION",
      "outputs": [
        {
          "internalType": "uint256",
          "name": "",
          "type": "uint256"
        }
      ],
      "stateMutability": "view",
      "type": "function"
    },
    {
      "inputs": [],
      "name": "RegisterWorker",
      "outputs": [],
      "stateMutability": "nonpayable",
      "type": "function"
    },
    {
      "inputs": [],
      "name": "RepManager",
      "outputs": [
        {
          "internalType": "contract IRepManager",
          "name": "",
          "type": "address"
        }
      ],
      "stateMutability": "view",
      "type": "function"
    },
    {
      "inputs": [],
      "name": "RewardManager",
      "outputs": [
        {
          "internalType": "contract IRewardManager",
          "name": "",
          "type": "address"
        }
      ],
      "stateMutability": "view",
      "type": "function"
    },
    {
      "inputs": [],
      "name": "SPOT_CHECK_VOTE_QUORUM",
      "outputs": [
        {
          "internalType": "uint256",
          "name": "",
          "type": "uint256"
        }
      ],
      "stateMutability": "view",
      "type": "function"
    },
    {
      "inputs": [
        {
          "internalType": "string[]",
          "name": "file_hashs",
          "type": "string[]"
        },
        {
          "internalType": "address",
          "name": "main_worker_account",
          "type": "address"
        },
        {
          "internalType": "string[]",
          "name": "URL_domains",
          "type": "string[]"
        },
        {
          "internalType": "string[]",
          "name": "tags_",
          "type": "string[]"
        },
        {
          "internalType": "uint256[]",
          "name": "tags_id_",
          "type": "uint256[]"
        },
        {
          "internalType": "string",
          "name": "extra_",
          "type": "string"
        }
      ],
      "name": "SpotData",
      "outputs": [
        {
          "internalType": "uint256",
          "name": "Dataid_",
          "type": "uint256"
        }
      ],
      "stateMutability": "nonpayable",
      "type": "function"
    },
    {
      "inputs": [
        {
          "internalType": "address",
          "name": "",
          "type": "address"
        }
      ],
      "name": "SpotStakedTokenBalance",
      "outputs": [
        {
          "internalType": "uint256",
          "name": "",
          "type": "uint256"
        }
      ],
      "stateMutability": "view",
      "type": "function"
    },
    {
      "inputs": [
        {
          "internalType": "uint256",
          "name": "",
          "type": "uint256"
        }
      ],
      "name": "SpotsMapping",
      "outputs": [
        {
          "internalType": "string",
          "name": "ipfs_hash",
          "type": "string"
        },
        {
          "internalType": "address",
          "name": "author",
          "type": "address"
        },
        {
          "internalType": "uint256",
          "name": "timestamp",
          "type": "uint256"
        },
        {
          "internalType": "string",
          "name": "URL_domain",
          "type": "string"
        },
        {
          "internalType": "string",
          "name": "extra",
          "type": "string"
        },
        {
          "internalType": "enum DataSpotting.DataStatus",
          "name": "status",
          "type": "uint8"
        }
      ],
      "stateMutability": "view",
      "type": "function"
    },
    {
      "inputs": [],
      "name": "StakeManager",
      "outputs": [
        {
          "internalType": "contract IStakeManager",
          "name": "",
          "type": "address"
        }
      ],
      "stateMutability": "view",
      "type": "function"
    },
    {
      "inputs": [],
      "name": "TriggerNextEpoch",
      "outputs": [],
      "stateMutability": "nonpayable",
      "type": "function"
    },
    {
      "inputs": [],
      "name": "UnregisterWorker",
      "outputs": [],
      "stateMutability": "nonpayable",
      "type": "function"
    },
    {
      "inputs": [
        {
          "internalType": "address",
          "name": "",
          "type": "address"
        },
        {
          "internalType": "uint256",
          "name": "",
          "type": "uint256"
        }
      ],
      "name": "UserChecksCommits",
      "outputs": [
        {
          "internalType": "bool",
          "name": "",
          "type": "bool"
        }
      ],
      "stateMutability": "view",
      "type": "function"
    },
    {
      "inputs": [
        {
          "internalType": "address",
          "name": "",
          "type": "address"
        },
        {
          "internalType": "uint256",
          "name": "",
          "type": "uint256"
        }
      ],
      "name": "UserChecksReveals",
      "outputs": [
        {
          "internalType": "bool",
          "name": "",
          "type": "bool"
        }
      ],
      "stateMutability": "view",
      "type": "function"
    },
    {
      "inputs": [
        {
          "internalType": "uint256",
          "name": "",
          "type": "uint256"
        },
        {
          "internalType": "address",
          "name": "",
          "type": "address"
        }
      ],
      "name": "UserNewFiles",
      "outputs": [
        {
          "internalType": "string",
          "name": "",
          "type": "string"
        }
      ],
      "stateMutability": "view",
      "type": "function"
    },
    {
      "inputs": [
        {
          "internalType": "uint256",
          "name": "",
          "type": "uint256"
        },
        {
          "internalType": "address",
          "name": "",
          "type": "address"
        }
      ],
      "name": "UserVotes",
      "outputs": [
        {
          "internalType": "uint256",
          "name": "",
          "type": "uint256"
        }
      ],
      "stateMutability": "view",
      "type": "function"
    },
    {
      "inputs": [
        {
          "internalType": "uint256",
          "name": "",
          "type": "uint256"
        },
        {
          "internalType": "uint256",
          "name": "",
          "type": "uint256"
        }
      ],
      "name": "WorkersPerBatch",
      "outputs": [
        {
          "internalType": "address",
          "name": "",
          "type": "address"
        }
      ],
      "stateMutability": "view",
      "type": "function"
    },
    {
      "inputs": [
        {
          "internalType": "address",
          "name": "",
          "type": "address"
        }
      ],
      "name": "WorkersState",
      "outputs": [
        {
          "internalType": "address",
          "name": "worker_address",
          "type": "address"
        },
        {
          "internalType": "address",
          "name": "master_address",
          "type": "address"
        },
        {
          "internalType": "uint256",
          "name": "allocated_work_batch",
          "type": "uint256"
        },
        {
          "internalType": "bool",
          "name": "has_completed_work",
          "type": "bool"
        },
        {
          "internalType": "uint256",
          "name": "last_worked_round",
          "type": "uint256"
        },
        {
          "internalType": "uint256",
          "name": "last_interaction_date",
          "type": "uint256"
        },
        {
          "internalType": "string",
          "name": "extra",
          "type": "string"
        },
        {
          "internalType": "bool",
          "name": "registered",
          "type": "bool"
        },
        {
          "internalType": "uint256",
          "name": "registration_date",
          "type": "uint256"
        }
      ],
      "stateMutability": "view",
      "type": "function"
    },
    {
      "inputs": [
        {
          "internalType": "address",
          "name": "_user",
          "type": "address"
        },
        {
          "internalType": "uint256",
          "name": "_DataBatchId",
          "type": "uint256"
        }
      ],
      "name": "attrUUID",
      "outputs": [
        {
          "internalType": "bytes32",
          "name": "UUID",
          "type": "bytes32"
        }
      ],
      "stateMutability": "pure",
      "type": "function"
    },
    {
      "inputs": [
        {
          "internalType": "uint256",
          "name": "",
          "type": "uint256"
        }
      ],
      "name": "availableWorkers",
      "outputs": [
        {
          "internalType": "address",
          "name": "",
          "type": "address"
        }
      ],
      "stateMutability": "view",
      "type": "function"
    },
    {
      "inputs": [
        {
          "internalType": "uint256",
          "name": "",
          "type": "uint256"
        }
      ],
      "name": "busyWorkers",
      "outputs": [
        {
          "internalType": "address",
          "name": "",
          "type": "address"
        }
      ],
      "stateMutability": "view",
      "type": "function"
    },
    {
      "inputs": [
        {
          "internalType": "uint256",
          "name": "_DataBatchId",
          "type": "uint256"
        }
      ],
      "name": "commitPeriodActive",
      "outputs": [
        {
          "internalType": "bool",
          "name": "active",
          "type": "bool"
        }
      ],
      "stateMutability": "view",
      "type": "function"
    },
    {
      "inputs": [
        {
          "internalType": "uint256",
          "name": "_DataBatchId",
          "type": "uint256"
        },
        {
          "internalType": "bytes32",
          "name": "_secretHash",
          "type": "bytes32"
        },
        {
          "internalType": "string",
          "name": "newIPFSHash",
          "type": "string"
        }
      ],
      "name": "commitSpotCheck",
      "outputs": [],
      "stateMutability": "nonpayable",
      "type": "function"
    },
    {
      "inputs": [
        {
          "internalType": "uint256",
          "name": "_DataId",
          "type": "uint256"
        }
      ],
      "name": "deleteData",
      "outputs": [],
      "stateMutability": "nonpayable",
      "type": "function"
    },
    {
      "inputs": [
        {
          "internalType": "uint256",
          "name": "_BatchId",
          "type": "uint256"
        }
      ],
      "name": "deleteDataBatch",
      "outputs": [],
      "stateMutability": "nonpayable",
      "type": "function"
    },
    {
      "inputs": [
        {
          "internalType": "address",
          "name": "_voter",
          "type": "address"
        },
        {
          "internalType": "uint256",
          "name": "_DataBatchId",
          "type": "uint256"
        }
      ],
      "name": "didCommit",
      "outputs": [
        {
          "internalType": "bool",
          "name": "committed",
          "type": "bool"
        }
      ],
      "stateMutability": "view",
      "type": "function"
    },
    {
      "inputs": [
        {
          "internalType": "address",
          "name": "_voter",
          "type": "address"
        },
        {
          "internalType": "uint256",
          "name": "_DataBatchId",
          "type": "uint256"
        }
      ],
      "name": "didReveal",
      "outputs": [
        {
          "internalType": "bool",
          "name": "revealed",
          "type": "bool"
        }
      ],
      "stateMutability": "view",
      "type": "function"
    },
    {
      "inputs": [
        {
          "internalType": "uint256",
          "name": "_k",
          "type": "uint256"
        },
        {
          "internalType": "uint256",
          "name": "N_range",
          "type": "uint256"
        }
      ],
      "name": "generateIntegers",
      "outputs": [
        {
          "internalType": "uint256[]",
          "name": "",
          "type": "uint256[]"
        }
      ],
      "stateMutability": "view",
      "type": "function"
    },
    {
      "inputs": [],
      "name": "getActiveWorkersCount",
      "outputs": [
        {
          "internalType": "uint256",
          "name": "numWorkers",
          "type": "uint256"
        }
      ],
      "stateMutability": "view",
      "type": "function"
    },
    {
      "inputs": [
        {
          "internalType": "uint256",
          "name": "_DataBatchId",
          "type": "uint256"
        }
      ],
      "name": "getBatchByID",
      "outputs": [
        {
          "components": [
            {
              "internalType": "uint256",
              "name": "start_idx",
              "type": "uint256"
            },
            {
              "internalType": "uint256",
              "name": "end_idx",
              "type": "uint256"
            },
            {
              "internalType": "uint256",
              "name": "counter",
              "type": "uint256"
            },
            {
              "internalType": "uint256",
              "name": "unrevealed_workers",
              "type": "uint256"
            },
            {
              "internalType": "bool",
              "name": "complete",
              "type": "bool"
            },
            {
              "internalType": "bool",
              "name": "checked",
              "type": "bool"
            },
            {
              "internalType": "bool",
              "name": "allocated_to_work",
              "type": "bool"
            },
            {
              "internalType": "uint256",
              "name": "commitEndDate",
              "type": "uint256"
            },
            {
              "internalType": "uint256",
              "name": "revealEndDate",
              "type": "uint256"
            },
            {
              "internalType": "uint256",
              "name": "votesFor",
              "type": "uint256"
            },
            {
              "internalType": "uint256",
              "name": "votesAgainst",
              "type": "uint256"
            },
            {
              "internalType": "string",
              "name": "batchIPFSfile",
              "type": "string"
            },
            {
              "internalType": "enum DataSpotting.DataStatus",
              "name": "status",
              "type": "uint8"
            },
            {
              "internalType": "string[]",
              "name": "flags",
              "type": "string[]"
            },
            {
              "internalType": "uint256[]",
              "name": "flags_id",
              "type": "uint256[]"
            }
          ],
          "internalType": "struct DataSpotting.BatchMetadata",
          "name": "batch",
          "type": "tuple"
        }
      ],
      "stateMutability": "view",
      "type": "function"
    },
    {
      "inputs": [
        {
          "internalType": "uint256",
          "name": "_DataBatchId",
          "type": "uint256"
        }
      ],
      "name": "getBatchIPFSFileByID",
      "outputs": [
        {
          "internalType": "string",
          "name": "batch",
          "type": "string"
        }
      ],
      "stateMutability": "view",
      "type": "function"
    },
    {
      "inputs": [],
      "name": "getBlockTimestamp",
      "outputs": [
        {
          "internalType": "uint256",
          "name": "blocktimestamp",
          "type": "uint256"
        }
      ],
      "stateMutability": "view",
      "type": "function"
    },
    {
      "inputs": [
        {
          "internalType": "address",
          "name": "_voter",
          "type": "address"
        },
        {
          "internalType": "uint256",
          "name": "_DataBatchId",
          "type": "uint256"
        }
      ],
      "name": "getCommitHash",
      "outputs": [
        {
          "internalType": "bytes32",
          "name": "commitHash",
          "type": "bytes32"
        }
      ],
      "stateMutability": "view",
      "type": "function"
    },
    {
      "inputs": [],
      "name": "getCurrentWorkEpoch",
      "outputs": [
        {
          "internalType": "uint256",
          "name": "WorkEpoch",
          "type": "uint256"
        }
      ],
      "stateMutability": "view",
      "type": "function"
    },
    {
      "inputs": [
        {
          "internalType": "uint256",
          "name": "_DataId",
          "type": "uint256"
        }
      ],
      "name": "getDataByID",
      "outputs": [
        {
          "components": [
            {
              "internalType": "string",
              "name": "ipfs_hash",
              "type": "string"
            },
            {
              "internalType": "address",
              "name": "author",
              "type": "address"
            },
            {
              "internalType": "uint256",
              "name": "timestamp",
              "type": "uint256"
            },
            {
              "internalType": "string",
              "name": "URL_domain",
              "type": "string"
            },
            {
              "internalType": "string[]",
              "name": "tags",
              "type": "string[]"
            },
            {
              "internalType": "uint256[]",
              "name": "tags_id",
              "type": "uint256[]"
            },
            {
              "internalType": "string",
              "name": "extra",
              "type": "string"
            },
            {
              "internalType": "enum DataSpotting.DataStatus",
              "name": "status",
              "type": "uint8"
            }
          ],
          "internalType": "struct DataSpotting.SpottedData",
          "name": "data",
          "type": "tuple"
        }
      ],
      "stateMutability": "view",
      "type": "function"
    },
    {
      "inputs": [
        {
          "internalType": "uint256",
          "name": "_DataBatchId",
          "type": "uint256"
        }
      ],
      "name": "getDomainsForBatch",
      "outputs": [
        {
          "internalType": "string[]",
          "name": "",
          "type": "string[]"
        }
      ],
      "stateMutability": "view",
      "type": "function"
    },
    {
      "inputs": [
        {
          "internalType": "uint256",
          "name": "_voteOption",
          "type": "uint256"
        },
        {
          "internalType": "uint256",
          "name": "_salt",
          "type": "uint256"
        }
      ],
      "name": "getEncryptedHash",
      "outputs": [
        {
          "internalType": "bytes32",
          "name": "keccak256hash",
          "type": "bytes32"
        }
      ],
      "stateMutability": "pure",
      "type": "function"
    },
    {
      "inputs": [
        {
          "internalType": "uint256",
          "name": "a",
          "type": "uint256"
        },
        {
          "internalType": "uint256",
          "name": "b",
          "type": "uint256"
        }
      ],
      "name": "getHash",
      "outputs": [
        {
          "internalType": "bytes32",
          "name": "keccak256hash",
          "type": "bytes32"
        }
      ],
      "stateMutability": "pure",
      "type": "function"
    },
    {
      "inputs": [
        {
          "internalType": "uint256",
          "name": "_DataBatchId",
          "type": "uint256"
        }
      ],
      "name": "getIPFShashesForBatch",
      "outputs": [
        {
          "internalType": "string[]",
          "name": "",
          "type": "string[]"
        }
      ],
      "stateMutability": "view",
      "type": "function"
    },
    {
      "inputs": [
        {
          "internalType": "address",
          "name": "_voter",
          "type": "address"
        },
        {
          "internalType": "uint256",
          "name": "_numTokens",
          "type": "uint256"
        },
        {
          "internalType": "uint256",
          "name": "_DataBatchId",
          "type": "uint256"
        }
      ],
      "name": "getInsertPointForNumTokens",
      "outputs": [
        {
          "internalType": "uint256",
          "name": "prevNode",
          "type": "uint256"
        }
      ],
      "stateMutability": "view",
      "type": "function"
    },
    {
      "inputs": [],
      "name": "getLastBatchId",
      "outputs": [
        {
          "internalType": "uint256",
          "name": "LastBatchId",
          "type": "uint256"
        }
      ],
      "stateMutability": "view",
      "type": "function"
    },
    {
      "inputs": [],
      "name": "getLastCheckedBatchId",
      "outputs": [
        {
          "internalType": "uint256",
          "name": "LastCheckedBatchId",
          "type": "uint256"
        }
      ],
      "stateMutability": "view",
      "type": "function"
    },
    {
      "inputs": [],
      "name": "getLastDataId",
      "outputs": [
        {
          "internalType": "uint256",
          "name": "DataId",
          "type": "uint256"
        }
      ],
      "stateMutability": "view",
      "type": "function"
    },
    {
      "inputs": [
        {
          "internalType": "address",
          "name": "_voter",
          "type": "address"
        }
      ],
      "name": "getLastNode",
      "outputs": [
        {
          "internalType": "uint256",
          "name": "DataID",
          "type": "uint256"
        }
      ],
      "stateMutability": "view",
      "type": "function"
    },
    {
      "inputs": [
        {
          "internalType": "address",
          "name": "user",
          "type": "address"
        }
      ],
      "name": "getLastUserDataId",
      "outputs": [
        {
          "internalType": "uint256",
          "name": "DataId",
          "type": "uint256"
        }
      ],
      "stateMutability": "view",
      "type": "function"
    },
    {
      "inputs": [
        {
          "internalType": "address",
          "name": "_voter",
          "type": "address"
        }
      ],
      "name": "getLockedTokens",
      "outputs": [
        {
          "internalType": "uint256",
          "name": "numTokens",
          "type": "uint256"
        }
      ],
      "stateMutability": "view",
      "type": "function"
    },
    {
      "inputs": [
        {
          "internalType": "address",
          "name": "_voter",
          "type": "address"
        },
        {
          "internalType": "uint256",
          "name": "_DataBatchId",
          "type": "uint256"
        },
        {
          "internalType": "uint256",
          "name": "_salt",
          "type": "uint256"
        }
      ],
      "name": "getNumPassingTokens",
      "outputs": [
        {
          "internalType": "uint256",
          "name": "correctSpotChecks",
          "type": "uint256"
        }
      ],
      "stateMutability": "view",
      "type": "function"
    },
    {
      "inputs": [
        {
          "internalType": "address",
          "name": "_voter",
          "type": "address"
        },
        {
          "internalType": "uint256",
          "name": "_DataBatchId",
          "type": "uint256"
        }
      ],
      "name": "getNumTokens",
      "outputs": [
        {
          "internalType": "uint256",
          "name": "numTokens",
          "type": "uint256"
        }
      ],
      "stateMutability": "view",
      "type": "function"
    },
    {
      "inputs": [],
      "name": "getRandom",
      "outputs": [
        {
          "internalType": "uint256",
          "name": "",
          "type": "uint256"
        }
      ],
      "stateMutability": "view",
      "type": "function"
    },
    {
      "inputs": [],
      "name": "getSeed",
      "outputs": [
        {
          "internalType": "bytes32",
          "name": "addr",
          "type": "bytes32"
        }
      ],
      "stateMutability": "view",
      "type": "function"
    },
    {
      "inputs": [
        {
          "internalType": "uint256",
          "name": "_DataBatchId",
          "type": "uint256"
        }
      ],
      "name": "getTotalNumberOfSpotChecks",
      "outputs": [
        {
          "internalType": "uint256",
          "name": "vc",
          "type": "uint256"
        }
      ],
      "stateMutability": "view",
      "type": "function"
    },
    {
      "inputs": [
        {
          "internalType": "uint256",
          "name": "_DataBatchId",
          "type": "uint256"
        }
      ],
      "name": "getTotalNumberOfTokensForWinningOption",
      "outputs": [
        {
          "internalType": "uint256",
          "name": "numTokens",
          "type": "uint256"
        }
      ],
      "stateMutability": "view",
      "type": "function"
    },
    {
      "inputs": [],
      "name": "getTxCounter",
      "outputs": [
        {
          "internalType": "uint256",
          "name": "Counter",
          "type": "uint256"
        }
      ],
      "stateMutability": "view",
      "type": "function"
    },
    {
      "inputs": [
        {
          "internalType": "address",
          "name": "user",
          "type": "address"
        }
      ],
      "name": "getUserDatas",
      "outputs": [
        {
          "internalType": "uint256[]",
          "name": "user_Datas",
          "type": "uint256[]"
        }
      ],
      "stateMutability": "view",
      "type": "function"
    },
    {
      "inputs": [
        {
          "internalType": "uint256",
          "name": "_terminationDate",
          "type": "uint256"
        }
      ],
      "name": "isExpired",
      "outputs": [
        {
          "internalType": "bool",
          "name": "expired",
          "type": "bool"
        }
      ],
      "stateMutability": "view",
      "type": "function"
    },
    {
      "inputs": [
        {
          "internalType": "uint256",
          "name": "_DataBatchId",
          "type": "uint256"
        }
      ],
      "name": "isPassed",
      "outputs": [
        {
          "internalType": "bool",
          "name": "passed",
          "type": "bool"
        }
      ],
      "stateMutability": "view",
      "type": "function"
    },
    {
      "inputs": [
        {
          "internalType": "address",
          "name": "_worker",
          "type": "address"
        }
      ],
      "name": "isWorkerRegistered",
      "outputs": [
        {
          "internalType": "bool",
          "name": "passed",
          "type": "bool"
        }
      ],
      "stateMutability": "view",
      "type": "function"
    },
    {
      "inputs": [],
      "name": "owner",
      "outputs": [
        {
          "internalType": "address",
          "name": "",
          "type": "address"
        }
      ],
      "stateMutability": "view",
      "type": "function"
    },
    {
      "inputs": [
        {
          "internalType": "uint256",
          "name": "k",
          "type": "uint256"
        },
        {
          "internalType": "uint256",
          "name": "N",
          "type": "uint256"
        }
      ],
      "name": "random_selection",
      "outputs": [
        {
          "internalType": "uint256[]",
          "name": "",
          "type": "uint256[]"
        }
      ],
      "stateMutability": "view",
      "type": "function"
    },
    {
      "inputs": [],
      "name": "renounceOwnership",
      "outputs": [],
      "stateMutability": "nonpayable",
      "type": "function"
    },
    {
      "inputs": [
        {
          "internalType": "uint256",
          "name": "_numTokens",
          "type": "uint256"
        }
      ],
      "name": "requestVotingRights",
      "outputs": [],
      "stateMutability": "nonpayable",
      "type": "function"
    },
    {
      "inputs": [
        {
          "internalType": "uint256",
          "name": "_DataBatchId",
          "type": "uint256"
        }
      ],
      "name": "rescueTokens",
      "outputs": [],
      "stateMutability": "nonpayable",
      "type": "function"
    },
    {
      "inputs": [
        {
          "internalType": "uint256[]",
          "name": "_DataBatchIDs",
          "type": "uint256[]"
        }
      ],
      "name": "rescueTokensInMultipleDatas",
      "outputs": [],
      "stateMutability": "nonpayable",
      "type": "function"
    },
    {
      "inputs": [
        {
          "internalType": "uint256",
          "name": "_DataBatchId",
          "type": "uint256"
        }
      ],
      "name": "revealPeriodActive",
      "outputs": [
        {
          "internalType": "bool",
          "name": "active",
          "type": "bool"
        }
      ],
      "stateMutability": "view",
      "type": "function"
    },
    {
      "inputs": [
        {
          "internalType": "uint256",
          "name": "_DataBatchId",
          "type": "uint256"
        },
        {
          "internalType": "uint256",
          "name": "_voteOption",
          "type": "uint256"
        },
        {
          "internalType": "uint256",
          "name": "_salt",
          "type": "uint256"
        }
      ],
      "name": "revealSpotCheck",
      "outputs": [],
      "stateMutability": "nonpayable",
      "type": "function"
    },
    {
      "inputs": [],
      "name": "sFuel",
      "outputs": [
        {
          "internalType": "address",
          "name": "",
          "type": "address"
        }
      ],
      "stateMutability": "view",
      "type": "function"
    },
    {
      "inputs": [
        {
          "internalType": "uint256",
          "name": "N",
          "type": "uint256"
        }
      ],
      "name": "shuffle_array",
      "outputs": [
        {
          "internalType": "uint256[]",
          "name": "",
          "type": "uint256[]"
        }
      ],
      "stateMutability": "view",
      "type": "function"
    },
    {
      "inputs": [],
      "name": "token",
      "outputs": [
        {
          "internalType": "contract IERC20",
          "name": "",
          "type": "address"
        }
      ],
      "stateMutability": "view",
      "type": "function"
    },
    {
      "inputs": [
        {
          "internalType": "address",
          "name": "newOwner",
          "type": "address"
        }
      ],
      "name": "transferOwnership",
      "outputs": [],
      "stateMutability": "nonpayable",
      "type": "function"
    },
    {
      "inputs": [
        {
          "internalType": "address",
          "name": "addr",
          "type": "address"
        }
      ],
      "name": "updateAddressManager",
      "outputs": [],
      "stateMutability": "nonpayable",
      "type": "function"
    },
    {
      "inputs": [
        {
          "internalType": "uint256",
          "name": "COMMIT_ROUND_DURATION_",
          "type": "uint256"
        }
      ],
      "name": "updateCommitRoundDuration",
      "outputs": [],
      "stateMutability": "nonpayable",
      "type": "function"
    },
    {
      "inputs": [
        {
          "internalType": "uint256",
          "name": "CONSENSUS_WORKER_SIZE_",
          "type": "uint256"
        }
      ],
      "name": "updateConsensusSize",
      "outputs": [],
      "stateMutability": "nonpayable",
      "type": "function"
    },
    {
      "inputs": [
        {
          "internalType": "uint256",
          "name": "size",
          "type": "uint256"
        }
      ],
      "name": "updateDataBachSize",
      "outputs": [],
      "stateMutability": "nonpayable",
      "type": "function"
    },
    {
      "inputs": [
        {
          "internalType": "address",
          "name": "addr",
          "type": "address"
        }
      ],
      "name": "updateFormattingSystem",
      "outputs": [],
      "stateMutability": "nonpayable",
      "type": "function"
    },
    {
      "inputs": [
        {
          "internalType": "uint256",
          "name": "CONSENSUS_WORKER_SIZE_",
          "type": "uint256"
        }
      ],
      "name": "updateMinConsensusSize",
      "outputs": [],
      "stateMutability": "nonpayable",
      "type": "function"
    },
    {
      "inputs": [
        {
          "internalType": "address",
          "name": "addr",
          "type": "address"
        }
      ],
      "name": "updateRepManager",
      "outputs": [],
      "stateMutability": "nonpayable",
      "type": "function"
    },
    {
      "inputs": [
        {
          "internalType": "uint256",
          "name": "REVEAL_ROUND_DURATION_",
          "type": "uint256"
        }
      ],
      "name": "updateRevealRoundDuration",
      "outputs": [],
      "stateMutability": "nonpayable",
      "type": "function"
    },
    {
      "inputs": [
        {
          "internalType": "address",
          "name": "addr",
          "type": "address"
        }
      ],
      "name": "updateRewardManager",
      "outputs": [],
      "stateMutability": "nonpayable",
      "type": "function"
    },
    {
      "inputs": [
        {
          "internalType": "address",
          "name": "addr",
          "type": "address"
        }
      ],
      "name": "updateStakeManager",
      "outputs": [],
      "stateMutability": "nonpayable",
      "type": "function"
    },
    {
      "inputs": [
        {
          "internalType": "address",
          "name": "",
          "type": "address"
        },
        {
          "internalType": "uint256",
          "name": "",
          "type": "uint256"
        }
      ],
      "name": "userSubmissions",
      "outputs": [
        {
          "internalType": "uint256",
          "name": "",
          "type": "uint256"
        }
      ],
      "stateMutability": "view",
      "type": "function"
    },
    {
      "inputs": [
        {
          "internalType": "uint256",
          "name": "_prevID",
          "type": "uint256"
        },
        {
          "internalType": "uint256",
          "name": "_nextID",
          "type": "uint256"
        },
        {
          "internalType": "address",
          "name": "_voter",
          "type": "address"
        },
        {
          "internalType": "uint256",
          "name": "_numTokens",
          "type": "uint256"
        }
      ],
      "name": "validPosition",
      "outputs": [
        {
          "internalType": "bool",
          "name": "APPROVED",
          "type": "bool"
        }
      ],
      "stateMutability": "view",
      "type": "function"
    },
    {
      "inputs": [
        {
          "internalType": "uint256",
          "name": "_numTokens",
          "type": "uint256"
        }
      ],
      "name": "withdrawVotingRights",
      "outputs": [],
      "stateMutability": "nonpayable",
      "type": "function"
    }
  ],
  "bytecode": "0x6080604052600260015560036002556001600355670de0b6b3a7640000600755670de0b6b3a764000060085568015af1d78b58c40000600955603c600a55600060115560006012557314f52f3fc010ab6ca81568d4a6794d5eab3c6155601b60006101000a8154816001600160a01b0302191690836001600160a01b031602179055506001601c556001601d556001601e556000602055348015620000a357600080fd5b50604051620081a9380380620081a9833981016040819052620000c69162000170565b620000da620000d46200011c565b62000120565b602180546001600160a01b0319166001600160a01b0392909216919091179055600060125568015af1d78b58c4000060045560b46005819055600655620001a0565b3390565b600080546001600160a01b038381166001600160a01b0319831681178455604051919092169283917f8be0079c531659141344cd1fd0a4f28419497f9722a3daafe3b4186f6b6457e09190a35050565b60006020828403121562000182578081fd5b81516001600160a01b038116811462000199578182fd5b9392505050565b617ff980620001b06000396000f3fe608060405234801561001057600080fd5b50600436106106745760003560e01c80638da5cb5b11610351578063d420ec0b116101c3578063e798a7da1161010f578063f3438946116100ad578063f721de4a11610087578063f721de4a14610d3a578063f80a23fd14610d4d578063fc0c546a14610d55578063fca4956314610d5d57610674565b8063f343894614610d17578063f5ae7c7d14610d2a578063f716596d14610d3257610674565b8063ed8becfa116100e9578063ed8becfa14610ce1578063ef4fcdad14610cf4578063f2d9e74d14610cfc578063f2fde38b14610d0457610674565b8063e798a7da14610ca8578063e7b1d43c14610cbb578063e8e9b6f914610cce57610674565b8063d9845fb81161017c578063df05368e11610156578063df05368e14610c67578063e44c974b14610c7a578063e604c12714610c8d578063e7805f9e14610ca057610674565b8063d9845fb814610c21578063d9966ae814610c41578063dd61868214610c5457610674565b8063d420ec0b14610bba578063d6b0206c14610bcd578063d822ce0114610bd5578063d8b7567414610be8578063d901402b14610bfb578063d9548e5314610c0e57610674565b8063aacc5a171161029d578063b8f011b31161023b578063c7c063fb11610215578063c7c063fb14610b84578063c9b03a7214610b97578063cb1c2b5c14610b9f578063d138209214610ba757610674565b8063b8f011b314610b4b578063c47c4bc214610b5e578063c4e4f82a14610b7157610674565b8063b1cf4a7e11610277578063b1cf4a7e1461073a578063b1d7ea9814610b12578063b43bd06914610b25578063b7e4eba914610b3857610674565b8063aacc5a1714610aef578063ab43e78d14610af7578063b1a2e0be14610aff57610674565b8063a1103f371161030a578063a511dba0116102e4578063a511dba014610aae578063a7f830f414610ab6578063a905779014610ac9578063aa7ca46414610adc57610674565b8063a1103f3714610a75578063a25236fe14610a88578063a4439dc514610a9b57610674565b80638da5cb5b14610a195780638df0296e14610a215780639760356014610a345780639acb75c114610a475780639b7e018014610a4f5780639fc9c52f14610a6257610674565b80634fe8b4c1116104ea57806376e8ea4f116104365780637fabe35b116103d457806383cc6ef2116103ae57806383cc6ef2146109d95780638473850b146109e15780638c89d027146109e95780638d289f8f14610a1157610674565b80637fabe35b14610987578063819b0293146109b3578063821aa8c0146109c657610674565b80637a34da67116104105780637a34da67146109515780637d050526146109595780637f9510a21461096c5780637f97e8361461097457610674565b806376e8ea4f146109395780637827e54914610941578063796b89b91461094957610674565b80635fd87909116104a35780636b2d95d41161047d5780636b2d95d414610903578063715018a61461091657806371880b1b1461091e578063726bc8af1461093157610674565b80635fd87909146108e05780636371d81f146108e8578063667bf0f8146108fb57610674565b80634fe8b4c11461086a578063515535e81461087d57806351912f2914610885578063579db71c1461088d57806358002158146108ad5780635a452943146108c057610674565b80632c052031116105c457806339e7357c11610562578063441c77c01161053c578063441c77c01461082957806344639f7c1461083c57806347fe2d201461084f578063494031831461085757610674565b806339e7357c146108065780633ad2131f1461080e578063427fa1d21461081657610674565b8063313066ee1161059e578063313066ee146107d057806332ac1ba2146107d85780633538af82146107eb578063354dae40146107fe57610674565b80632c0520311461078a5780632d917c681461079d5780632f469fd1146107b057610674565b80630e6661a7116106315780631b8550441161060b5780631b8550441461073a578063226ed3001461074d578063275c25901461076d57806329a47bc71461077557610674565b80630e6661a71461070a5780630e670feb1461071257806319d903461461071a57610674565b8063035fbb551461067957806304dbcda71461068e578063050eb2eb146106ac578063053e71a6146106bf5780630b16d945146106d25780630b96c5b0146106e5575b600080fd5b61068c610687366004616ba3565b610d70565b005b61069661109c565b6040516106a39190616d5e565b60405180910390f35b61068c6106ba36600461689d565b6110a2565b6106966106cd366004616aa5565b611103565b6106966106e0366004616912565b611169565b6106f86106f3366004616aa5565b6114ae565b6040516106a396959493929190616e4d565b61069661168b565b610696611691565b61072d610728366004616aa5565b611697565b6040516106a39190616e09565b610696610748366004616b46565b611adf565b61076061075b366004616aa5565b611b13565b6040516106a39190616e2f565b61068c611b55565b61077d611c3e565b6040516106a39190616d91565b6106966107983660046168e0565b611c4d565b6107606107ab3660046168b7565b611dea565b6107c36107be366004616ace565b611e0a565b6040516106a39190616e3a565b610696611eaf565b6106966107e6366004616aa5565b611eb5565b61077d6107f9366004616aa5565b611ed9565b61068c611f03565b61069661202b565b610696612048565b61069661082436600461689d565b61204e565b610760610837366004616aa5565b6120ee565b61068c61084a366004616aa5565b612148565b61069661219a565b610760610865366004616aa5565b6121a0565b61068c610878366004616aa5565b612491565b61069661254b565b61077d612551565b6108a061089b36600461689d565b612560565b6040516106a39190616e1c565b61068c6108bb366004616aa5565b6125cc565b6108d36108ce366004616aa5565b612610565b6040516106a39190617c4b565b61069661298d565b61068c6108f6366004616aa5565b612993565b61068c612a6c565b61069661091136600461689d565b612e63565b61068c612e72565b61069661092c366004616aa5565b612ebd565b610696612efa565b610696612f00565b610696612f06565b610696612f0c565b61077d612f10565b61068c61096736600461689d565b612f1f565b610696612f80565b6107606109823660046168b7565b612f97565b61099a610995366004616aa5565b612fea565b6040516106a39d9c9b9a99989796959493929190617d66565b6107606109c1366004616b67565b6130e3565b61077d6109d4366004616aa5565b613121565b61077d613131565b610696613140565b6109fc6109f736600461689d565b613146565b6040516106a399989796959493929190616da5565b61077d61322e565b61077d61323d565b61077d610a2f366004616b46565b61324c565b61068c610a42366004616aa5565b613284565b610696613433565b610696610a5d3660046168b7565b613439565b61068c610a703660046169f3565b61346a565b610696610a833660046168b7565b6134bc565b61068c610a96366004616aa5565b6134d1565b610760610aa9366004616aa5565b6135d2565b610696613614565b61068c610ac4366004616af9565b61361a565b610760610ad7366004616a45565b613a92565b610760610aea3660046168b7565b613af8565b610696613b4b565b61077d613c00565b610760610b0d36600461689d565b613c0f565b6108a0610b20366004616b46565b613d5d565b610696610b333660046168e0565b613f64565b61068c610b46366004616aa5565b614050565b6108a0610b59366004616b46565b614094565b61068c610b6c36600461689d565b6141fc565b610696610b7f366004616aa5565b61425d565b610696610b9236600461689d565b61429a565b6106966142ac565b6106966142b2565b610696610bb53660046168b7565b6142b8565b610760610bc83660046168b7565b61434d565b61069661436d565b61077d610be33660046168b7565b614373565b610696610bf6366004616ace565b61438f565b610696610c093660046168b7565b6143ac565b610760610c1c366004616aa5565b6143f1565b610c34610c2f366004616aa5565b6143f6565b6040516106a39190617a7c565b61068c610c4f366004616aa5565b6146cb565b61068c610c6236600461689d565b61470f565b61068c610c7536600461689d565b614770565b6108a0610c88366004616aa5565b6147d1565b6107c3610c9b366004616aa5565b61484a565b6106966148f5565b610760610cb636600461689d565b6148fb565b61068c610cc9366004616aa5565b61491c565b61068c610cdc366004616aa5565b614a58565b61072d610cef366004616aa5565b614a9c565b610696614ed8565b610696614ede565b61068c610d1236600461689d565b614ee4565b610696610d2536600461689d565b614f52565b610696614ff3565b61068c614ff9565b610760610d48366004616aa5565b6151d3565b6107606151db565b61077d6151f4565b610696610d6b36600461689d565b615203565b610d78615329565b610d81836120ee565b610da65760405162461bcd60e51b8152600401610d9d906176f3565b60405180910390fd5b336000908152600b6020908152604080832086845290915290205460ff16610de05760405162461bcd60e51b8152600401610d9d90617357565b336000908152600c6020908152604080832086845290915290205460ff1615610e1b5760405162461bcd60e51b8152600401610d9d90617a30565b610e2533846143ac565b610e2f8383611adf565b14610e4c5760405162461bcd60e51b8152600401610d9d906170cd565b6000610e5833856142b8565b90508260011415610e8f576000848152601f602052604081206007018054839290610e84908490617e85565b90915550610eb69050565b6000848152601f602052604081206008018054839290610eb0908490617e85565b90915550505b336000908152600f60205260409081902090516301039dfd60e11b815273__$85afbab79b2b776d70bef879a32ed56424$__916302073bfa91610efe91908890600401616d83565b60006040518083038186803b158015610f1657600080fd5b505af4158015610f2a573d6000803e3d6000fd5b5050336000818152600c602090815260408083208a84528252808320805460ff19166001908117909155600d8352818420948452938252808320899055601382528083208a8452601f90925290912060030154909350610f8b9250906154b1565b6000868152601f602052604090206003908101919091558101805460ff19166001179055610fb7612f0c565b6005820155610fc5336154bd565b600781015460ff161561102257610fdb33615614565b61102257601880546001810182556000919091527fb13d2d76d1f4b7be834882e410b3e3a8afaf69f83600ae24db354391d2378d2e0180546001600160a01b031916331790555b6001602060008282546110359190617e85565b90915550506000858152601f602052604090819020600781015460089091015491513392879289927f0867b5027231dcbf37614eaad07d667b9febaf9fdf483f488229b1f140bb07489261108d928992909190617d50565b60405180910390a45050505050565b60075481565b6110aa615684565b6001600160a01b03166110bb61323d565b6001600160a01b0316146110e15760405162461bcd60e51b8152600401610d9d906175c2565b602480546001600160a01b0319166001600160a01b0392909216919091179055565b600061110e82611b13565b61112a5760405162461bcd60e51b8152600401610d9d906173a6565b611133826121a0565b1561115057506000818152601f6020526040902060070154611164565b506000818152601f60205260409020600801545b919050565b6000611173615329565b60005b88518110156114845760008982815181106111a157634e487b7160e01b600052603260045260246000fd5b6020026020010151905060008888848181106111cd57634e487b7160e01b600052603260045260246000fd5b90506020028101906111df9190617de9565b8080601f0160208091040260200160405190810160405280939291908181526020018383808284376000920182905250338082526015602090815260408084206012548154600181018355918652838620909101558051610100810182528a815291820192909252429181019190915260608101869052608081018d905260a081018c905260c081018b905294955060e085019350915061127d9050565b905260125460009081526014602090815260409091208251805191926112a89284929091019061644b565b506020828101516001830180546001600160a01b0319166001600160a01b0390921691909117905560408301516002830155606083015180516112f1926003850192019061644b565b506080820151805161130d9160048401916020909101906164cf565b5060a08201518051611329916005840191602090910190616528565b5060c0820151805161134591600684019160209091019061644b565b5060e082015160078201805460ff1916600183600381111561137757634e487b7160e01b600052602160045260246000fd5b021790555050601c546000908152601f60205260409020600154600282015491925011156113c25760018160020160008282546113b49190617e85565b909155505060125460018201555b60015481600201541061141457600481018054600160ff19909116811761ff001916909155601c80546000906113f9908490617e85565b9091555050601254601c546000908152601f60205260409020555b61141c611f03565b60125461142a906001617e85565b60128190556040513391907fb7b95e293993cd6c0c54a48cee487ef3dd8f51be568be962db90e7784af70dd19061146690879087908e90616eac565b60405180910390a3505050808061147c90617f52565b915050611176565b506001602060008282546114989190617e85565b909155505060125490505b979650505050505050565b6014602052600090815260409020805481906114c990617f17565b80601f01602080910402602001604051908101604052809291908181526020018280546114f590617f17565b80156115425780601f1061151757610100808354040283529160200191611542565b820191906000526020600020905b81548152906001019060200180831161152557829003601f168201915b505050506001830154600284015460038501805494956001600160a01b03909316949193509061157190617f17565b80601f016020809104026020016040519081016040528092919081815260200182805461159d90617f17565b80156115ea5780601f106115bf576101008083540402835291602001916115ea565b820191906000526020600020905b8154815290600101906020018083116115cd57829003601f168201915b5050505050908060060180546115ff90617f17565b80601f016020809104026020016040519081016040528092919081815260200182805461162b90617f17565b80156116785780601f1061164d57610100808354040283529160200191611678565b820191906000526020600020905b81548152906001019060200180831161165b57829003601f168201915b5050506007909301549192505060ff1686565b60125481565b60085481565b60606116a2826151d3565b6116be5760405162461bcd60e51b8152600401610d9d90617780565b6000828152601f6020908152604080832081516101e0810183528154815260018201549381019390935260028101549183019190915260038101546060830152600481015460ff808216151560808501526101008083048216151560a08601526201000090920416151560c0840152600582015460e0840152600682015490830152600781015461012083015260088101546101408301526009810180546101608401919061176c90617f17565b80601f016020809104026020016040519081016040528092919081815260200182805461179890617f17565b80156117e55780601f106117ba576101008083540402835291602001916117e5565b820191906000526020600020905b8154815290600101906020018083116117c857829003601f168201915b5050509183525050600a82015460209091019060ff16600381111561181a57634e487b7160e01b600052602160045260246000fd5b600381111561183957634e487b7160e01b600052602160045260246000fd5b8152602001600b8201805480602002602001604051908101604052809291908181526020016000905b8282101561190e57838290600052602060002001805461188190617f17565b80601f01602080910402602001604051908101604052809291908181526020018280546118ad90617f17565b80156118fa5780601f106118cf576101008083540402835291602001916118fa565b820191906000526020600020905b8154815290600101906020018083116118dd57829003601f168201915b505050505081526020019060010190611862565b505050508152602001600c820180548060200260200160405190810160405280929190818152602001828054801561196557602002820191906000526020600020905b815481526020019060010190808311611951575b505050505081525050905060008160400151905060006001546001600160401b038111156119a357634e487b7160e01b600052604160045260246000fd5b6040519080825280602002602001820160405280156119d657816020015b60608152602001906001900390816119c15790505b50905060005b82811015611ad65783516000906119f4908390617e85565b600081815260146020526040812060030180549293509091611a1590617f17565b80601f0160208091040260200160405190810160405280929190818152602001828054611a4190617f17565b8015611a8e5780601f10611a6357610100808354040283529160200191611a8e565b820191906000526020600020905b815481529060010190602001808311611a7157829003601f168201915b5050505050905080848481518110611ab657634e487b7160e01b600052603260045260246000fd5b602002602001018190525050508080611ace90617f52565b9150506119dc565b50949350505050565b60008282604051602001611af4929190616d83565b6040516020818303038152906040528051906020012090505b92915050565b6000611b1e826151d3565b611b3a5760405162461bcd60e51b8152600401610d9d90617a07565b6000828152601f6020526040902060060154611b0d906143f1565b611b5d615329565b336000908152601360205260409020600781015460ff161515600114611b955760405162461bcd60e51b8152600401610d9d906172af565b6000611b9f612f0c565b9050611baa33615688565b611bb3336154bd565b8154336001600160a01b031991821681178455600180850180549093169091179091556005830182905560078301805460ff1916905560208054600090611bfb908490617e85565b909155505060405133907f9dadcedba048e92b943ea1c5861cee1df63a566d7f795869c004780c1c698e2b90611c32908490616d5e565b60405180910390a25050565b6023546001600160a01b031681565b600080611c598561204e565b90506000611c6786836142b8565b90505b8115611ddf57611c7a86836142b8565b9050848111611d375783821415611d2f576001600160a01b0386166000908152600f60205260409081902090516301c39b2b60e11b815273__$85afbab79b2b776d70bef879a32ed56424$__91630387365691611cdc91908690600401616d83565b60206040518083038186803b158015611cf457600080fd5b505af4158015611d08573d6000803e3d6000fd5b505050506040513d601f19601f82011682018060405250810190611d2c9190616abd565b91505b509050611de3565b6001600160a01b0386166000908152600f60205260409081902090516301c39b2b60e11b815273__$85afbab79b2b776d70bef879a32ed56424$__91630387365691611d8891908690600401616d83565b60206040518083038186803b158015611da057600080fd5b505af4158015611db4573d6000803e3d6000fd5b505050506040513d601f19601f82011682018060405250810190611dd89190616abd565b9150611c6a565b5090505b9392505050565b600b60209081526000928352604080842090915290825290205460ff1681565b600e60209081526000928352604080842090915290825290208054611e2e90617f17565b80601f0160208091040260200160405190810160405280929190818152602001828054611e5a90617f17565b8015611ea75780601f10611e7c57610100808354040283529160200191611ea7565b820191906000526020600020905b815481529060010190602001808311611e8a57829003601f168201915b505050505081565b60115481565b6000818152601f6020526040812060088101546007909101548291611de391617e85565b60188181548110611ee957600080fd5b6000918252602090912001546001600160a01b0316905081565b611f0b615329565b601d546000908152601f602052604081206004015462010000900460ff1615156001148015611f5d5750611f40601d54611b13565b80611f5d5750601d546000908152601f6020526040902060030154155b15611f8257611f6d601d546157b8565b601d54611f7b90600161616f565b601d555060015b601e546000908152601f602052604090206004015462010000900460ff161515600114801590611fb3575060185415155b8015611fd35750601e546000908152601f602052604090206004015460ff165b15611fe457611fe0612a6c565b5060015b8015611ffc57601154611ff890600161616f565b6011555b6011546040517f94d48a7342690f1233e3f4db70efa37c4f1f25f4d0397c353f3f15aecdeca5f490600090a250565b60405160009080602081848060185afa61204157fe5b5051919050565b600a5481565b6001600160a01b0381166000908152600f602052604080822090516301c39b2b60e11b815273__$85afbab79b2b776d70bef879a32ed56424$__9163038736569161209e91908590600401616d83565b60206040518083038186803b1580156120b657600080fd5b505af41580156120ca573d6000803e3d6000fd5b505050506040513d601f19601f82011682018060405250810190611b0d9190616abd565b60006120f9826151d3565b6121155760405162461bcd60e51b8152600401610d9d90617780565b6000828152601f6020526040902060060154612130906143f1565b158015611b0d5750612141826135d2565b1592915050565b612150615684565b6001600160a01b031661216161323d565b6001600160a01b0316146121875760405162461bcd60e51b8152600401610d9d906175c2565b600181101561219557600080fd5b600355565b601d5490565b6000818152601f6020908152604080832081516101e0810183528154815260018201549381019390935260028101549183019190915260038101546060830152600481015460ff808216151560808501526101008083048216151560a08601526201000090920416151560c0840152600582015460e0840152600682015490830152600781015461012083015260088101546101408301526009810180548493929161016084019161225190617f17565b80601f016020809104026020016040519081016040528092919081815260200182805461227d90617f17565b80156122ca5780601f1061229f576101008083540402835291602001916122ca565b820191906000526020600020905b8154815290600101906020018083116122ad57829003601f168201915b5050509183525050600a82015460209091019060ff1660038111156122ff57634e487b7160e01b600052602160045260246000fd5b600381111561231e57634e487b7160e01b600052602160045260246000fd5b8152602001600b8201805480602002602001604051908101604052809291908181526020016000905b828210156123f357838290600052602060002001805461236690617f17565b80601f016020809104026020016040519081016040528092919081815260200182805461239290617f17565b80156123df5780601f106123b4576101008083540402835291602001916123df565b820191906000526020600020905b8154815290600101906020018083116123c257829003601f168201915b505050505081526020019060010190612347565b505050508152602001600c820180548060200260200160405190810160405280929190818152602001828054801561244a57602002820191906000526020600020905b815481526020019060010190808311612436575b505050505081525050905080610140015181610120015161246b9190617e85565b600a546124789190617eb1565b610120820151612489906064617eb1565b119392505050565b612499615684565b6001600160a01b03166124aa61323d565b6001600160a01b0316146124d05760405162461bcd60e51b8152600401610d9d906175c2565b6000818152601460205260408120906124e98282616562565b6001820180546001600160a01b0319169055600060028301819055612512906003840190616562565b61252060048301600061659e565b61252e6005830160006165bc565b61253c600683016000616562565b50600701805460ff1916905550565b601c5490565b6024546001600160a01b031681565b6001600160a01b0381166000908152601560209081526040918290208054835181840281018401909452808452606093928301828280156125c057602002820191906000526020600020905b8154815260200190600101908083116125ac575b50505050509050919050565b6125d4615684565b6001600160a01b03166125e561323d565b6001600160a01b03161461260b5760405162461bcd60e51b8152600401610d9d906175c2565b600655565b6126186165da565b600082815260146020526040908190208151610100810190925280548290829061264190617f17565b80601f016020809104026020016040519081016040528092919081815260200182805461266d90617f17565b80156126ba5780601f1061268f576101008083540402835291602001916126ba565b820191906000526020600020905b81548152906001019060200180831161269d57829003601f168201915b505050918352505060018201546001600160a01b03166020820152600282015460408201526003820180546060909201916126f490617f17565b80601f016020809104026020016040519081016040528092919081815260200182805461272090617f17565b801561276d5780601f106127425761010080835404028352916020019161276d565b820191906000526020600020905b81548152906001019060200180831161275057829003601f168201915b5050505050815260200160048201805480602002602001604051908101604052809291908181526020016000905b828210156128475783829060005260206000200180546127ba90617f17565b80601f01602080910402602001604051908101604052809291908181526020018280546127e690617f17565b80156128335780601f1061280857610100808354040283529160200191612833565b820191906000526020600020905b81548152906001019060200180831161281657829003601f168201915b50505050508152602001906001019061279b565b5050505081526020016005820180548060200260200160405190810160405280929190818152602001828054801561289e57602002820191906000526020600020905b81548152602001906001019080831161288a575b505050505081526020016006820180546128b790617f17565b80601f01602080910402602001604051908101604052809291908181526020018280546128e390617f17565b80156129305780601f1061290557610100808354040283529160200191612930565b820191906000526020600020905b81548152906001019060200180831161291357829003601f168201915b5050509183525050600782015460209091019060ff16600381111561296557634e487b7160e01b600052602160045260246000fd5b600381111561298457634e487b7160e01b600052602160045260246000fd5b90525092915050565b60065481565b61299b615684565b6001600160a01b03166129ac61323d565b6001600160a01b0316146129d25760405162461bcd60e51b8152600401610d9d906175c2565b6129db816151d3565b15612a69576000818152601f6020526040812081815560018101829055600281018290556003810182905560048101805462ffffff191690556005810182905560068101829055600781018290556008810182905590612a3e6009830182616562565b600a8201805460ff19169055612a58600b8301600061659e565b612a66600c830160006165bc565b50505b50565b601e546000908152601f602052604090206004015460ff16612aa05760405162461bcd60e51b8152600401610d9d9061769d565b601e546000908152601f602052604090206004015462010000900460ff1615612adb5760405162461bcd60e51b8152600401610d9d906174f7565b6000612af9612af160188054905060025461617b565b600354616191565b601854601e546000908152601f602052604081206003018390556005549293509091612b2690429061616f565b90506000612b3f6006548361616f90919063ffffffff16565b601e80546000908152601f6020526040808220600501869055825482528082206006018490559154815220600401805462ff0000191662010000179055905060018410801590612b90575060018310155b612bac5760405162461bcd60e51b8152600401610d9d906171df565b6000612bb88585614094565b9050600081516001600160401b03811115612be357634e487b7160e01b600052604160045260246000fd5b604051908082528060200260200182016040528015612c0c578160200160208202803683370190505b50905060005b8251811015612ccb576018838281518110612c3d57634e487b7160e01b600052603260045260246000fd5b602002602001015181548110612c6357634e487b7160e01b600052603260045260246000fd5b9060005260206000200160009054906101000a90046001600160a01b0316828281518110612ca157634e487b7160e01b600052603260045260246000fd5b6001600160a01b039092166020928302919091019091015280612cc381617f52565b915050612c12565b5060005b8251811015612e2e576000828281518110612cfa57634e487b7160e01b600052603260045260246000fd5b60200260200101519050600060136000836001600160a01b03166001600160a01b031681526020019081526020016000209050612d3682615688565b612d3f826161a1565b612d8f57601980546001810182556000919091527f944998273e477b495144fb8794c914197f3ccb46be2900f4698fd0ef743c96950180546001600160a01b0319166001600160a01b0384161790555b601e80546000908152601a602090815260408083208054600181018255908452919092200180546001600160a01b0319166001600160a01b0386161790558154600284015560038301805460ff19169055905490517fe4ee2dfabe57cee15e3f558890b20455f54c1fa0718e5276faad70a6500e6b8c90612e11908590616d91565b60405180910390a250508080612e2690617f52565b915050612ccf565b50601e54612e3d90600161616f565b601e81905550600160206000828254612e569190617e85565b9091555050505050505050565b6000611b0d82610bb58461204e565b612e7a615684565b6001600160a01b0316612e8b61323d565b6001600160a01b031614612eb15760405162461bcd60e51b8152600401610d9d906175c2565b612ebb6000616211565b565b6000612ec8826151d3565b612ee45760405162461bcd60e51b8152600401610d9d90617780565b506000908152601f602052604090206006015490565b60035481565b60015481565b60095481565b4290565b6025546001600160a01b031681565b612f27615684565b6001600160a01b0316612f3861323d565b6001600160a01b031614612f5e5760405162461bcd60e51b8152600401610d9d906175c2565b602680546001600160a01b0319166001600160a01b0392909216919091179055565b601954601854600091612f9291617e85565b905090565b6000612fa2826151d3565b612fbe5760405162461bcd60e51b8152600401610d9d90617780565b506001600160a01b03919091166000908152600b60209081526040808320938352929052205460ff1690565b601f60205260009081526040902080546001820154600283015460038401546004850154600586015460068701546007880154600889015460098a018054999a98999798969760ff8088169861010089048216986201000090049091169695949392909161305790617f17565b80601f016020809104026020016040519081016040528092919081815260200182805461308390617f17565b80156130d05780601f106130a5576101008083540402835291602001916130d0565b820191906000526020600020905b8154815290600101906020018083116130b357829003601f168201915b505050600a909301549192505060ff168d565b6000806130f084876142b8565b8310159050600061310185876142b8565b8411158061310d575085155b90508180156114a357509695505050505050565b60198181548110611ee957600080fd5b6022546001600160a01b031681565b601c5481565b60136020526000908152604090208054600182015460028301546003840154600485015460058601546006870180546001600160a01b03978816989690971696949560ff909416949293919261319b90617f17565b80601f01602080910402602001604051908101604052809291908181526020018280546131c790617f17565b80156132145780601f106131e957610100808354040283529160200191613214565b820191906000526020600020905b8154815290600101906020018083116131f757829003601f168201915b505050506007830154600890930154919260ff1691905089565b6026546001600160a01b031681565b6000546001600160a01b031690565b601a602052816000526040600020818154811061326857600080fd5b6000918252602090912001546001600160a01b03169150829050565b60016000828152601f60205260409020600a015460ff1660038111156132ba57634e487b7160e01b600052602160045260246000fd5b146132d75760405162461bcd60e51b8152600401610d9d90616fd0565b336000908152600f60205260409081902090516306120d1f60e31b815273__$85afbab79b2b776d70bef879a32ed56424$__9163309068f89161331f91908590600401616d83565b60206040518083038186803b15801561333757600080fd5b505af415801561334b573d6000803e3d6000fd5b505050506040513d601f19601f8201168201806040525081019061336f9190616a25565b61338b5760405162461bcd60e51b8152600401610d9d90617421565b336000908152600f60205260409081902090516301039dfd60e11b815273__$85afbab79b2b776d70bef879a32ed56424$__916302073bfa916133d391908590600401616d83565b60006040518083038186803b1580156133eb57600080fd5b505af41580156133ff573d6000803e3d6000fd5b50506040513392508391507f402507661c8c8cb90e0a796450b8bdd28b6c516f05279c0cd29e84c344e1699a90600090a350565b60115490565b6015602052816000526040600020818154811061345557600080fd5b90600052602060002001600091509150505481565b60005b81518110156134b8576134a682828151811061349957634e487b7160e01b600052603260045260246000fd5b6020026020010151613284565b806134b081617f52565b91505061346d565b5050565b60008282604051602001611af4929190616d3c565b6022546040516304ada21f60e21b81526001600160a01b03909116906312b6887c906135039084903390600401617d1b565b602060405180830381600087803b15801561351d57600080fd5b505af1158015613531573d6000803e3d6000fd5b505050506040513d601f19601f820116820180604052508101906135559190616a25565b6135715760405162461bcd60e51b8152600401610d9d906172fa565b3360009081526016602052604081208054839290613590908490617e85565b909155505060405133907ff7aaf024511d9982df8cd0d437c71c30106e6848cd1ba3d288d7a9c0e276aeda906135c7908490616d5e565b60405180910390a250565b60006135dd826151d3565b6135f95760405162461bcd60e51b8152600401610d9d90617780565b6000828152601f6020526040902060050154612141906143f1565b60125490565b613622615329565b61362b836135d2565b6136475760405162461bcd60e51b8152600401610d9d90617229565b8261365133615203565b1461366e5760405162461bcd60e51b8152600401610d9d90617554565b600454336000908152601660205260409020548111156136b057336000908152601660205260408120546136a39083906154b1565b90506136ae816134d1565b505b336000908152601660205260409020548111156136df5760405162461bcd60e51b8152600401610d9d906178b6565b6000336000908152600f60205260408082209051631e0f232560e31b815273__$85afbab79b2b776d70bef879a32ed56424$__9163f07919289161372891908690600401616d83565b60206040518083038186803b15801561374057600080fd5b505af4158015613754573d6000803e3d6000fd5b505050506040513d601f19601f820116820180604052508101906137789190616abd565b90508581141561381d57336000908152600f6020526040908190209051631e0f232560e31b815273__$85afbab79b2b776d70bef879a32ed56424$__9163f0791928916137ca91908a90600401616d83565b60206040518083038186803b1580156137e257600080fd5b505af41580156137f6573d6000803e3d6000fd5b505050506040513d601f19601f8201168201806040525081019061381a9190616abd565b90505b613829828233866130e3565b6138455760405162461bcd60e51b8152600401610d9d906174c9565b336000908152600f602052604090819020905163524cfe5360e11b815273__$85afbab79b2b776d70bef879a32ed56424$__9163a499fca691613891919086908b908790600401617c30565b60006040518083038186803b1580156138a957600080fd5b505af41580156138bd573d6000803e3d6000fd5b5050505060006138cd33886134bc565b60408051808201825260098152686e756d546f6b656e7360b81b6020820152905163099b040f60e31b81529192509073__$0947e710b66d7779e1d561254425e1375a$__90634cd820789061392d90601090869086908b90600401617b85565b60006040518083038186803b15801561394557600080fd5b505af4158015613959573d6000803e3d6000fd5b505060405163099b040f60e31b815273__$0947e710b66d7779e1d561254425e1375a$__9250634cd8207891506139999060109086908c90600401617bd3565b60006040518083038186803b1580156139b157600080fd5b505af41580156139c5573d6000803e3d6000fd5b5050506000898152600e60209081526040808320338452825290912088516139f29350909189019061644b565b50336000908152601360205260409020613a0a612f0c565b6005820155336000908152600b602090815260408083208c845282528220805460ff191660019081179091558154909290613a46908490617e85565b909155505060405133908a907f42864d9683ff5b12c3b2cc65d705af5aab104b03bc700b802f79e5c971ef08a190613a7f908a90616d5e565b60405180910390a3505050505050505050565b600081604051602001613aa59190616d67565b6040516020818303038152906040528051906020012083604051602001613acc9190616d67565b604051602081830303815290604052805190602001201415613af057506001611b0d565b506000611b0d565b6000613b03826151d3565b613b1f5760405162461bcd60e51b8152600401610d9d90617780565b506001600160a01b03919091166000908152600c60209081526040808320938352929052205460ff1690565b6000804241604051602001613b609190616d1f565b6040516020818303038152906040528051906020012060001c613b839190617e9d565b44613b8c61202b565b604051602001613b9c9190616d5e565b60408051601f198184030181529190528051602090910120613bbe9042617e85565b613bc89190617e85565b613bd29190617e85565b604051602001613be29190616d5e565b60408051601f19818403018152919052805160209091012091505090565b601b546001600160a01b031681565b6001600160a01b038082166000908152601360209081526040808320815161012081018352815486168152600182015490951692850192909252600282015490840152600381015460ff161515606084015260048101546080840152600581015460a0840152600681018054929384938493919260c0840191613c9190617f17565b80601f0160208091040260200160405190810160405280929190818152602001828054613cbd90617f17565b8015613d0a5780601f10613cdf57610100808354040283529160200191613d0a565b820191906000526020600020905b815481529060010190602001808311613ced57829003601f168201915b5050509183525050600782015460ff16151560208201526008909101546040909101526060810151909150158015613d4c5750613d4a8160400151611b13565b155b15613d5657600191505b5092915050565b606060008211613d6c57600080fd5b600041604051602001613d7f9190616d1f565b6040516020818303038152906040528051906020012060001c613da061202b565b604051602001613db09190616d5e565b60408051601f198184030181529190528051602090910120613dd29042617e85565b613ddc9190617e85565b604051602001613dec9190616d5e565b6040516020818303038152906040528051906020012060001c90506000846001600160401b03811115613e2f57634e487b7160e01b600052604160045260246000fd5b604051908082528060200260200182016040528015613e58578160200160208202803683370190505b5090506000805b86821015613f5957600086613e7863017efeeb87617ed0565b83604051602001613e8a929190616d83565b6040516020818303038152906040528051906020012060001c613ead9190617f6d565b90506000805b84811015613f055782868281518110613edc57634e487b7160e01b600052603260045260246000fd5b60200260200101511415613ef35760019150613f05565b80613efd81617f52565b915050613eb3565b5080613f455781858581518110613f2c57634e487b7160e01b600052603260045260246000fd5b6020908102919091010152613f42846001617e85565b93505b613f50836001617e85565b92505050613e5f565b509095945050505050565b6000613f6f83611b13565b613f8b5760405162461bcd60e51b8152600401610d9d90617960565b6001600160a01b0384166000908152600c6020908152604080832086845290915290205460ff16613fce5760405162461bcd60e51b8152600401610d9d9061747e565b6000613fd9846121a0565b613fe4576000613fe7565b60015b60ff16905060008184604051602001614001929190616d83565b604051602081830303815290604052805190602001209050600061402587876143ac565b90508082146140465760405162461bcd60e51b8152600401610d9d90617654565b6114a387876142b8565b614058615684565b6001600160a01b031661406961323d565b6001600160a01b03161461408f5760405162461bcd60e51b8152600401610d9d906175c2565b600155565b60606000821180156140a65750818311155b80156140b3575060018310155b6140cf5760405162461bcd60e51b8152600401610d9d90617196565b6000826001600160401b038111156140f757634e487b7160e01b600052604160045260246000fd5b604051908082528060200260200182016040528015614120578160200160208202803683370190505b5090506000846001600160401b0381111561414b57634e487b7160e01b600052604160045260246000fd5b604051908082528060200260200182016040528015614174578160200160208202803683370190505b509050600061418a61418584616261565b6162b7565b905060005b86811015613f59578181815181106141b757634e487b7160e01b600052603260045260246000fd5b60200260200101518382815181106141df57634e487b7160e01b600052603260045260246000fd5b6020908102919091010152806141f481617f52565b91505061418f565b614204615684565b6001600160a01b031661421561323d565b6001600160a01b03161461423b5760405162461bcd60e51b8152600401610d9d906175c2565b602580546001600160a01b0319166001600160a01b0392909216919091179055565b6000614268826151d3565b6142845760405162461bcd60e51b8152600401610d9d90617780565b506000908152601f602052604090206005015490565b60166020526000908152604090205481565b60025481565b60045481565b600073__$0947e710b66d7779e1d561254425e1375a$__636981015860106142e086866134bc565b6040518363ffffffff1660e01b81526004016142fd929190617c01565b60206040518083038186803b15801561431557600080fd5b505af4158015614329573d6000803e3d6000fd5b505050506040513d601f19601f82011682018060405250810190611de39190616abd565b600c60209081526000928352604080842090915290825290205460ff1681565b601e5481565b6017602052816000526040600020818154811061326857600080fd5b600d60209081526000928352604080842090915290825290205481565b600073__$0947e710b66d7779e1d561254425e1375a$__636981015860106143d486866134bc565b6040518363ffffffff1660e01b81526004016142fd929190617bb5565b421190565b6143fe616646565b614407826151d3565b61441057600080fd5b6000828152601f602090815260409182902082516101e0810184528154815260018201549281019290925260028101549282019290925260038201546060820152600482015460ff808216151560808401526101008083048216151560a08501526201000090920416151560c0830152600583015460e083015260068301549082015260078201546101208201526008820154610140820152600982018054919291610160840191906144c290617f17565b80601f01602080910402602001604051908101604052809291908181526020018280546144ee90617f17565b801561453b5780601f106145105761010080835404028352916020019161453b565b820191906000526020600020905b81548152906001019060200180831161451e57829003601f168201915b5050509183525050600a82015460209091019060ff16600381111561457057634e487b7160e01b600052602160045260246000fd5b600381111561458f57634e487b7160e01b600052602160045260246000fd5b8152602001600b8201805480602002602001604051908101604052809291908181526020016000905b828210156146645783829060005260206000200180546145d790617f17565b80601f016020809104026020016040519081016040528092919081815260200182805461460390617f17565b80156146505780601f1061462557610100808354040283529160200191614650565b820191906000526020600020905b81548152906001019060200180831161463357829003601f168201915b5050505050815260200190600101906145b8565b505050508152602001600c82018054806020026020016040519081016040528092919081815260200182805480156146bb57602002820191906000526020600020905b8154815260200190600101908083116146a7575b5050505050815250509050919050565b6146d3615684565b6001600160a01b03166146e461323d565b6001600160a01b03161461470a5760405162461bcd60e51b8152600401610d9d906175c2565b600255565b614717615684565b6001600160a01b031661472861323d565b6001600160a01b03161461474e5760405162461bcd60e51b8152600401610d9d906175c2565b602380546001600160a01b0319166001600160a01b0392909216919091179055565b614778615684565b6001600160a01b031661478961323d565b6001600160a01b0316146147af5760405162461bcd60e51b8152600401610d9d906175c2565b602280546001600160a01b0319166001600160a01b0392909216919091179055565b6060600082116147e057600080fd5b6000826001600160401b0381111561480857634e487b7160e01b600052604160045260246000fd5b604051908082528060200260200182016040528015614831578160200160208202803683370190505b509050600061484261418583616261565b949350505050565b6060614855826151d3565b61485e57600080fd5b6000828152601f60205260409020600901805461487a90617f17565b80601f01602080910402602001604051908101604052809291908181526020018280546148a690617f17565b80156125c05780601f106148c8576101008083540402835291602001916125c0565b820191906000526020600020905b8154815290600101906020018083116148d65750939695505050505050565b60055481565b6001600160a01b031660009081526013602052604090206007015460ff1690565b600061494061492a33612e63565b33600090815260166020526040902054906154b1565b9050818110156149625760405162461bcd60e51b8152600401610d9d90617739565b602254604051630895993360e11b81526001600160a01b039091169063112b3266906149949085903390600401617d1b565b602060405180830381600087803b1580156149ae57600080fd5b505af11580156149c2573d6000803e3d6000fd5b505050506040513d601f19601f820116820180604052508101906149e69190616a25565b614a025760405162461bcd60e51b8152600401610d9d906179aa565b3360009081526016602052604081208054849290614a21908490617ed0565b909155505060405133907ffaeb7dbb9992397d26ea1944efd40c80b40f702faf69b46c67ad10aba68ccb7990611c32908590616d5e565b614a60615684565b6001600160a01b0316614a7161323d565b6001600160a01b031614614a975760405162461bcd60e51b8152600401610d9d906175c2565b600555565b6060614aa7826151d3565b614ac35760405162461bcd60e51b8152600401610d9d90617780565b6000828152601f6020908152604080832081516101e0810183528154815260018201549381019390935260028101549183019190915260038101546060830152600481015460ff808216151560808501526101008083048216151560a08601526201000090920416151560c0840152600582015460e08401526006820154908301526007810154610120830152600881015461014083015260098101805461016084019190614b7190617f17565b80601f0160208091040260200160405190810160405280929190818152602001828054614b9d90617f17565b8015614bea5780601f10614bbf57610100808354040283529160200191614bea565b820191906000526020600020905b815481529060010190602001808311614bcd57829003601f168201915b5050509183525050600a82015460209091019060ff166003811115614c1f57634e487b7160e01b600052602160045260246000fd5b6003811115614c3e57634e487b7160e01b600052602160045260246000fd5b8152602001600b8201805480602002602001604051908101604052809291908181526020016000905b82821015614d13578382906000526020600020018054614c8690617f17565b80601f0160208091040260200160405190810160405280929190818152602001828054614cb290617f17565b8015614cff5780601f10614cd457610100808354040283529160200191614cff565b820191906000526020600020905b815481529060010190602001808311614ce257829003601f168201915b505050505081526020019060010190614c67565b505050508152602001600c8201805480602002602001604051908101604052809291908181526020018280548015614d6a57602002820191906000526020600020905b815481526020019060010190808311614d56575b505050505081525050905060008160400151905060006001546001600160401b03811115614da857634e487b7160e01b600052604160045260246000fd5b604051908082528060200260200182016040528015614ddb57816020015b6060815260200190600190039081614dc65790505b50905060005b82811015611ad6578351600090614df9908390617e85565b600081815260146020526040812080549293509091614e1790617f17565b80601f0160208091040260200160405190810160405280929190818152602001828054614e4390617f17565b8015614e905780601f10614e6557610100808354040283529160200191614e90565b820191906000526020600020905b815481529060010190602001808311614e7357829003601f168201915b5050505050905080848481518110614eb857634e487b7160e01b600052603260045260246000fd5b602002602001018190525050508080614ed090617f52565b915050614de1565b601d5481565b60205481565b614eec615684565b6001600160a01b0316614efd61323d565b6001600160a01b031614614f235760405162461bcd60e51b8152600401610d9d906175c2565b6001600160a01b038116614f495760405162461bcd60e51b8152600401610d9d90617150565b612a6981616211565b6001600160a01b038116600090815260156020908152604080832080548251818502810185019093528083528493830182828015614faf57602002820191906000526020600020905b815481526020019060010190808311614f9b575b505050505090508060018251614fc59190617ed0565b81518110614fe357634e487b7160e01b600052603260045260246000fd5b6020026020010151915050919050565b60205490565b615001615329565b3360009081526013602052604090206019546018546103e89161502391617e85565b106150405760405162461bcd60e51b8152600401610d9d90617874565b600781015460ff16156150655760405162461bcd60e51b8152600401610d9d90616f99565b600061506f612f0c565b60045433600090815260166020526040902054919250908111156150b557336000908152601660205260408120546150a89083906154b1565b90506150b3816134d1565b505b336000908152601660205260409020548111156150e45760405162461bcd60e51b8152600401610d9d90617021565b6150ed33615614565b61513457601880546001810182556000919091527fb13d2d76d1f4b7be834882e410b3e3a8afaf69f83600ae24db354391d2378d2e0180546001600160a01b031916331790555b8254336001600160a01b03199182168117855560018501805490921617905560058301829055600783015460ff1661517c5760078301805460ff191660011790554260088401555b60016020600082825461518f9190617e85565b909155505060405133907f439d77b7534ec3108fc6143bd4fbabde0b9f2bb54f7b0730d1f70dd2135b765f906151c6908590616d5e565b60405180910390a2505050565b601c54101590565b3360009081526013602052604090206007015460ff1690565b6021546001600160a01b031681565b6001600160a01b038082166000908152601360209081526040808320815161012081018352815486168152600182015490951692850192909252600282015490840152600381015460ff161515606084015260048101546080840152600581015460a08401526006810180549293849390929160c084019161528490617f17565b80601f01602080910402602001604051908101604052809291908181526020018280546152b090617f17565b80156152fd5780601f106152d2576101008083540402835291602001916152fd565b820191906000526020600020905b8154815290600101906020018083116152e057829003601f168201915b5050509183525050600782015460ff161515602082015260089091015460409182015201519392505050565b601b546001600160a01b03166153515760405162461bcd60e51b8152600401610d9d906177b7565b601b546040516000916001600160a01b031690615372903390602401616d91565b60408051601f198184030181529181526020820180516001600160e01b0316631f5ac9c560e11b179052516153a79190616d67565b6000604051808303816000865af19150503d80600081146153e4576040519150601f19603f3d011682016040523d82523d6000602084013e6153e9565b606091505b5050601b546040519192506000916001600160a01b0390911690615411903390602401616d91565b60408051601f198184030181529181526020820180516001600160e01b03166358563d2160e01b179052516154469190616d67565b6000604051808303816000865af19150503d8060008114615483576040519150601f19603f3d011682016040523d82523d6000602084013e615488565b606091505b5050905081806154955750805b6134b85760405162461bcd60e51b8152600401610d9d90617088565b6000611de38284617ed0565b60008060005b60195481101561553157836001600160a01b0316601982815481106154f857634e487b7160e01b600052603260045260246000fd5b6000918252602090912001546001600160a01b0316141561551f5760019150809250615531565b8061552981617f52565b9150506154c3565b508015612a66576019805461554890600190617ed0565b8154811061556657634e487b7160e01b600052603260045260246000fd5b600091825260209091200154601980546001600160a01b0390921691849081106155a057634e487b7160e01b600052603260045260246000fd5b9060005260206000200160006101000a8154816001600160a01b0302191690836001600160a01b0316021790555060198054806155ed57634e487b7160e01b600052603160045260246000fd5b600082815260209020810160001990810180546001600160a01b0319169055019055505050565b600080805b601854811015613d5657836001600160a01b03166018828154811061564e57634e487b7160e01b600052603260045260246000fd5b6000918252602090912001546001600160a01b031614156156725760019150613d56565b8061567c81617f52565b915050615619565b3390565b60008060005b6018548110156156fc57836001600160a01b0316601882815481106156c357634e487b7160e01b600052603260045260246000fd5b6000918252602090912001546001600160a01b031614156156ea57600191508092506156fc565b806156f481617f52565b91505061568e565b508015612a66576018805461571390600190617ed0565b8154811061573157634e487b7160e01b600052603260045260246000fd5b600091825260209091200154601880546001600160a01b03909216918490811061576b57634e487b7160e01b600052603260045260246000fd5b9060005260206000200160006101000a8154816001600160a01b0302191690836001600160a01b0316021790555060188054806155ed57634e487b7160e01b600052603160045260246000fd5b6157c181611b13565b806157db57506000818152601f6020526040902060030154155b6157f75760405162461bcd60e51b8152600401610d9d906175f7565b6000818152601f6020526040902060040154610100900460ff161561582e5760405162461bcd60e51b8152600401610d9d90617833565b6000818152601f6020526040902060040154610100900460ff16612a69576000615857826121a0565b6000838152601a60209081526040808320805482518185028101850190935280835294955092939092918301828280156158ba57602002820191906000526020600020905b81546001600160a01b0316815260019091019060200180831161589c575b50505050509050600081516001600160401b038111156158ea57634e487b7160e01b600052604160045260246000fd5b60405190808252806020026020018201604052801561591d57816020015b60608152602001906001900390816159085790505b50905060005b8251811015615cc757600083828151811061594e57634e487b7160e01b600052603260045260246000fd5b6020908102919091018101516000888152600d835260408082206001600160a01b03841680845290855281832054600c86528284208c8552865282842054600e875283852092855291909552908220805493955060ff909116926159b190617f17565b80601f01602080910402602001604051908101604052809291908181526020018280546159dd90617f17565b8015615a2a5780601f106159ff57610100808354040283529160200191615a2a565b820191906000526020600020905b815481529060010190602001808311615a0d57829003601f168201915b5050505050905080868681518110615a5257634e487b7160e01b600052603260045260246000fd5b6020026020010181905250615a66846154bd565b6001600160a01b03841660009081526013602052604090208215615c84576001600160a01b0385166000908152601360205260409020600301805460ff19166001908117909155891515148015615abd5750836001145b80615ad2575088158015615ad2575083600114155b15615c1957602354600954604051630db6cc8560e11b81526001600160a01b0390921691631b6d990a91615b0a918990600401617d32565b602060405180830381600087803b158015615b2457600080fd5b505af1158015615b38573d6000803e3d6000fd5b505050506040513d601f19601f82011682018060405250810190615b5c9190616a25565b615b785760405162461bcd60e51b8152600401610d9d906173d4565b602454600754604051633832942560e21b81526001600160a01b039092169163e0ca509491615bab918990600401617d1b565b602060405180830381600087803b158015615bc557600080fd5b505af1158015615bd9573d6000803e3d6000fd5b505050506040513d601f19601f82011682018060405250810190615bfd9190616a25565b615c195760405162461bcd60e51b8152600401610d9d90617260565b600781015460ff1615615c7f57615c2f85615614565b615c7f57601880546001810182556000919091527fb13d2d76d1f4b7be834882e410b3e3a8afaf69f83600ae24db354391d2378d2e0180546001600160a01b0319166001600160a01b0387161790555b615caf565b600781015460ff1615615caf5760078101805460ff19169055615ca685615688565b615caf856154bd565b50505050508080615cbf90617f52565b915050615923565b506000615cee606484516032615cdd9190617eb1565b615ce79190617e9d565b6001616191565b9050600082600081518110615d1357634e487b7160e01b600052603260045260246000fd5b6020026020010151905060005b8351811015615e09576000805b8551811015615dbe57615d8e868481518110615d5957634e487b7160e01b600052603260045260246000fd5b6020026020010151878381518110615d8157634e487b7160e01b600052603260045260246000fd5b6020026020010151613a92565b15615dac57615d9e600183617e85565b9150848210615dac57615dbe565b80615db681617f52565b915050615d2d565b50838110615df657848281518110615de657634e487b7160e01b600052603260045260246000fd5b6020026020010151925050615e09565b5080615e0181617f52565b915050615d20565b506000868152601f6020908152604090912060048101805461ff0019166101001790558251615e409260099092019184019061644b565b5084156160dc5760235460095460008881526014602052604090819020600101549051630db6cc8560e11b81526001600160a01b0393841693631b6d990a93615e90939092911690600401617d32565b602060405180830381600087803b158015615eaa57600080fd5b505af1158015615ebe573d6000803e3d6000fd5b505050506040513d601f19601f82011682018060405250810190615ee29190616a25565b615efe5760405162461bcd60e51b8152600401610d9d90617913565b60245460075460008881526014602052604090819020600101549051633832942560e21b81526001600160a01b039384169363e0ca509493615f47939092911690600401617d1b565b602060405180830381600087803b158015615f6157600080fd5b505af1158015615f75573d6000803e3d6000fd5b505050506040513d601f19601f82011682018060405250810190615f999190616a25565b615fb55760405162461bcd60e51b8152600401610d9d906177e4565b6000868152601f602052604090819020600a01805460ff1916600117905560265490516348257dc960e01b81526001600160a01b03909116906348257dc990616002908990600401616d5e565b602060405180830381600087803b15801561601c57600080fd5b505af192505050801561604c575060408051601f3d908101601f1916820190925261604991810190616a25565b60015b6160bd573d80801561607a576040519150601f19603f3d011682016040523d82523d6000602084013e61607f565b606091505b507f4b87bbd93ba65ede1e2efeca735d9f7a6720bf7d6db0a8355b17dba5b64e5783816040516160af9190616e3a565b60405180910390a1506160d7565b6001602060008282546160d09190617e85565b9091555050505b6160f9565b6000868152601f60205260409020600a01805460ff191660021790555b60016020600082825461610c9190617e85565b909155505060008681526014602052604090819020600181015491516001600160a01b03909216917f43916c3ae75995d24cc89b466ed08e6dba74d325f7957f9b37b05f150e12918e9161615f91616eef565b60405180910390a2505050505050565b6000611de38284617e85565b600081831061618a5781611de3565b5090919050565b60008183101561618a5781611de3565b600080805b601954811015613d5657836001600160a01b0316601982815481106161db57634e487b7160e01b600052603260045260246000fd5b6000918252602090912001546001600160a01b031614156161ff5760019150613d56565b8061620981617f52565b9150506161a6565b600080546001600160a01b038381166001600160a01b0319831681178455604051919092169283917f8be0079c531659141344cd1fd0a4f28419497f9722a3daafe3b4186f6b6457e09190a35050565b805160609060005b818110156162af578084828151811061629257634e487b7160e01b600052603260045260246000fd5b6020908102919091010152806162a781617f52565b915050616269565b509192915050565b606060008251116162c757600080fd5b81518060005b81811015616442576000836162e0613b4b565b87848151811061630057634e487b7160e01b600052603260045260246000fd5b6020026020010151604051602001616319929190616d83565b6040516020818303038152906040528051906020012060001c61633c9190617f6d565b616347906001617e85565b9050600086616357600184617ed0565b8151811061637557634e487b7160e01b600052603260045260246000fd5b602002602001015190508660018661638d9190617ed0565b815181106163ab57634e487b7160e01b600052603260045260246000fd5b6020026020010151876001846163c19190617ed0565b815181106163df57634e487b7160e01b600052603260045260246000fd5b602090810291909101015280876163f7600188617ed0565b8151811061641557634e487b7160e01b600052603260045260246000fd5b602090810291909101015261642b600186617ed0565b94505050808061643a90617f52565b9150506162cd565b50929392505050565b82805461645790617f17565b90600052602060002090601f01602090048101928261647957600085556164bf565b82601f1061649257805160ff19168380011785556164bf565b828001600101855582156164bf579182015b828111156164bf5782518255916020019190600101906164a4565b506164cb9291506166e1565b5090565b82805482825590600052602060002090810192821561651c579160200282015b8281111561651c578251805161650c91849160209091019061644b565b50916020019190600101906164ef565b506164cb9291506166f6565b8280548282559060005260206000209081019282156164bf57916020028201828111156164bf5782518255916020019190600101906164a4565b50805461656e90617f17565b6000825580601f106165805750612a69565b601f016020900490600052602060002090810190612a6991906166e1565b5080546000825590600052602060002090810190612a6991906166f6565b5080546000825590600052602060002090810190612a6991906166e1565b6040518061010001604052806060815260200160006001600160a01b0316815260200160008152602001606081526020016060815260200160608152602001606081526020016000600381111561664157634e487b7160e01b600052602160045260246000fd5b905290565b604051806101e00160405280600081526020016000815260200160008152602001600081526020016000151581526020016000151581526020016000151581526020016000815260200160008152602001600081526020016000815260200160608152602001600060038111156166cd57634e487b7160e01b600052602160045260246000fd5b815260200160608152602001606081525090565b5b808211156164cb57600081556001016166e2565b808211156164cb57600061670a8282616562565b506001016166f6565b80356001600160a01b038116811461116457600080fd5b60008083601f84011261673b578182fd5b5081356001600160401b03811115616751578182fd5b602083019150836020808302850101111561676b57600080fd5b9250929050565b600082601f830112616782578081fd5b8135602061679761679283617e56565b617e2d565b82815281810190858301855b858110156167cc576167ba898684358b0101616833565b845292840192908401906001016167a3565b5090979650505050505050565b600082601f8301126167e9578081fd5b813560206167f961679283617e56565b8281528181019085830183850287018401881015616815578586fd5b855b858110156167cc57813584529284019290840190600101616817565b600082601f830112616843578081fd5b81356001600160401b0381111561685c5761685c617fad565b61686f601f8201601f1916602001617e2d565b818152846020838601011115616883578283fd5b816020850160208301379081016020019190915292915050565b6000602082840312156168ae578081fd5b611de382616713565b600080604083850312156168c9578081fd5b6168d283616713565b946020939093013593505050565b6000806000606084860312156168f4578081fd5b6168fd84616713565b95602085013595506040909401359392505050565b600080600080600080600060c0888a03121561692c578283fd5b87356001600160401b0380821115616942578485fd5b61694e8b838c01616772565b985061695c60208b01616713565b975060408a0135915080821115616971578485fd5b61697d8b838c0161672a565b909750955060608a0135915080821115616995578485fd5b6169a18b838c01616772565b945060808a01359150808211156169b6578384fd5b6169c28b838c016167d9565b935060a08a01359150808211156169d7578283fd5b506169e48a828b01616833565b91505092959891949750929550565b600060208284031215616a04578081fd5b81356001600160401b03811115616a19578182fd5b614842848285016167d9565b600060208284031215616a36578081fd5b81518015158114611de3578182fd5b60008060408385031215616a57578182fd5b82356001600160401b0380821115616a6d578384fd5b616a7986838701616833565b93506020850135915080821115616a8e578283fd5b50616a9b85828601616833565b9150509250929050565b600060208284031215616ab6578081fd5b5035919050565b600060208284031215612041578081fd5b60008060408385031215616ae0578182fd5b82359150616af060208401616713565b90509250929050565b600080600060608486031215616b0d578283fd5b833592506020840135915060408401356001600160401b03811115616b30578182fd5b616b3c86828701616833565b9150509250925092565b60008060408385031215616b58578182fd5b50508035926020909101359150565b60008060008060808587031215616b7c578182fd5b8435935060208501359250616b9360408601616713565b9396929550929360600135925050565b600080600060608486031215616bb7578081fd5b505081359360208301359350604090920135919050565b6001600160a01b03169052565b6000815180845260208085018081965082840281019150828601855b85811015616c21578284038952616c0f848351616cb4565b98850198935090840190600101616bf7565b5091979650505050505050565b6000815180845260208085018081965082840281019150828601855b85811015616c21578284038952616c62848351616cb4565b98850198935090840190600101616c4a565b6000815180845260208085019450808401835b83811015616ca357815187529582019590820190600101616c87565b509495945050505050565b15159052565b60008151808452616ccc816020860160208601617ee7565b601f01601f19169290920160200192915050565b60048110616cfe57634e487b7160e01b600052602160045260246000fd5b9052565b600a8152690c6dedadad2e890c2e6d60b31b602082015260400190565b60609190911b6bffffffffffffffffffffffff1916815260140190565b60609290921b6bffffffffffffffffffffffff19168252601482015260340190565b90815260200190565b60008251616d79818460208701617ee7565b9190910192915050565b918252602082015260400190565b6001600160a01b0391909116815260200190565b6001600160a01b038a81168252891660208201526040810188905286151560608201526080810186905260a0810185905261012060c08201819052600090616def83820187616cb4565b94151560e084015250506101000152979650505050505050565b600060208252611de36020830184616c2e565b600060208252611de36020830184616c74565b901515815260200190565b600060208252611de36020830184616cb4565b600060c08252616e6060c0830189616cb4565b6001600160a01b0388166020840152604083018790528281036060840152616e888187616cb4565b90508281036080840152616e9c8186616cb4565b9150506114a360a0830184616ce0565b600060608252616ebf6060830186616cb4565b8281036020840152616ed18186616cb4565b90508281036040840152616ee58185616c2e565b9695505050505050565b6000602080835281845483600282049050600180831680616f1157607f831692505b858310811415616f2f57634e487b7160e01b87526022600452602487fd5b616f3b83878a01616d5e565b818015616f4f5760018114616f6057616f8a565b60ff19861682528782019650616f8a565b616f698b617e79565b895b86811015616f8457815484820152908501908901616f6b565b83019750505b50949998505050505050505050565b6020808252601c908201527f576f726b657220697320616c7265616479207265676973746572656400000000604082015260600190565b60208082526031908201527f676976656e204461746142617463682073686f756c6420626520415050524f5660408201527011510b08185b99081a5d081a5cc81b9bdd607a1b606082015260800190565b60208082526041908201527f576f726b657220686173206e6f7420656e6f75676820285f6e756d546f6b656e60408201527f732920696e206869732053706f745374616b6564546f6b656e42616c616e63656060820152600160fd1b608082015260a00190565b60208082526025908201527f72656365697665722072656a6563746564205f7265747269657665534675656c6040820152640818d85b1b60da1b606082015260800190565b6020808252605c908201527f4e6f74207468652073616d6520766f7465207468616e2077686174207761732060408201527f636f6d6d697465642c20696d706f737369626c6520746f206d6174636820776960608201527f746820676976656e205f73616c742026205f766f74654f7074696f6e00000000608082015260a00190565b60208082526026908201527f4f776e61626c653a206e6577206f776e657220697320746865207a65726f206160408201526564647265737360d01b606082015260800190565b60208082526029908201527f6b206f72204e20617265206e6f74204f4b20647572696e672072616e646f6d2060408201526839b2b632b1ba34b7b760b91b606082015260800190565b6020808252602a908201527f4661696c20647572696e6720616c6c6f636174696f6e3a206e6f7420656e6f75604082015269676820776f726b65727360b01b606082015260800190565b6020808252601e908201527f636f6d6d697420706572696f64206e6565647320746f206265206f70656e0000604082015260600190565b6020808252602f908201527f636f756c64206e6f742072657761726420746f6b656e20696e2054726967676560408201526e3921b432b1b5a9b837ba161018973160891b606082015260800190565b6020808252602b908201527f576f726b6572206973206e6f7420617661696c61626c6520736f2063616e277460408201526a103ab73932b3b4b9ba32b960a91b606082015260800190565b6020808252603d908201527f436f756c64206e6f74207265717565737420656e6f75676820616c6c6f63617460408201527f6564207374616b652c2072657175657374566f74696e67526967687473000000606082015260800190565b6020808252602f908201527f5573657220686173206e6f7420636f6d6d69746564206265666f72652c20746860408201526e1d5cc818d85b89dd081c995d99585b608a1b606082015260800190565b60208082526014908201527311185d18481b5d5cdd081a185d9948195b99195960621b604082015260600190565b6020808252602d908201527f636f756c64206e6f74207265776172642052455020696e20547269676765724360408201526c6865636b53706f742c20312e6160981b606082015260800190565b60208082526039908201527f646c6c4d61703a20646f6573206e6f7420636f696e7461696e205f446174614260408201527f61746368496420666f7220746865206d73672073656e64657200000000000000606082015260800190565b6020808252602b908201527f75736572206d75737420686176652072657665616c656420696e20746869732060408201526a0ced2eccadc4084c2e8c6d60ab1b606082015260800190565b6020808252601490820152733737ba1030903b30b634b2103837b9b4ba34b7b760611b604082015260600190565b6020808252603b908201527f43616e277420616c6c6f6361746520776f726b2c207468652063757272656e7460408201527f20626174636820697320616c726561647920616c6c6f63617465640000000000606082015260800190565b60208082526048908201527f55736572206e6565647320746f2068617665206265656e20616c6c6f6361746560408201527f64207468652063757272656e74206461746120626174636820746f20636f6d6d6060820152671a5d081bdb881a5d60c21b608082015260a00190565b6020808252818101527f4f776e61626c653a2063616c6c6572206973206e6f7420746865206f776e6572604082015260600190565b6020808252603a908201527f5f446174614261746368496420686173206e6f7420656e6465642c206f72206e60408201527f6f7420657665727920766f74657273206861766520766f746564000000000000606082015260800190565b60208082526029908201527f6765744e756d50617373696e67546f6b656e733a20686173686573206d75737460408201526808189948195c5d585b60ba1b606082015260800190565b60208082526036908201527f43616e277420616c6c6f6361746520776f726b2c207468652063757272656e74604082015275206261746368206973206e6f7420636f6d706c65746560501b606082015260800190565b60208082526026908201527f52657665616c20706572696f64206e6f74206f70656e20666f7220746869732060408201526511185d18525160d21b606082015260800190565b60208082526027908201527f617661696c61626c65546f6b656e732073686f756c64206265203e3d205f6e756040820152666d546f6b656e7360c81b606082015260800190565b60208082526017908201527f5f4461746142617463684964206d757374206578697374000000000000000000604082015260600190565b6020808252601390820152720c081059191c995cdcc8139bdd0815985b1a59606a1b604082015260600190565b6020808252602f908201527f636f756c64206e6f742072657761726420746f6b656e20696e2054726967676560408201526e3921b432b1b5a9b837ba161019173160891b606082015260800190565b60208082526021908201527f5f446174614261746368496420697320616c72656164792076616c69646174656040820152601960fa1b606082015260800190565b60208082526022908201527f4d6178696d756d207265676973746572656420776f726b65727320616c726561604082015261647960f01b606082015260800190565b60208082526037908201527f75736572206d757374206861766520656e6f75676820766f74696e672072696760408201527f68747320616b6120616c6c6f6361746564207374616b65000000000000000000606082015260800190565b6020808252602d908201527f636f756c64206e6f74207265776172642052455020696e20547269676765724360408201526c6865636b53706f742c20322e6160981b606082015260800190565b6020808252602a908201527f5f446174614261746368496420636865636b696e6720766f7465206d757374206040820152691a185d9948195b99195960b21b606082015260800190565b6020808252603b908201527f436f756c64206e6f74207769746864726177566f74696e67526967687473207460408201527f68726f7567682050726f78795374616b654465616c6c6f636174650000000000606082015260800190565b6020808252600f908201526e11185d18481b5d5cdd08195e1a5cdd608a1b604082015260600190565b6020808252602c908201527f557365722068617320616c72656164792072657665616c65642c20746875732060408201526b18d85b89dd081c995d99585b60a21b606082015260800190565b600060208252825160208301526020830151604083015260408301516060830152606083015160808301526080830151617ab960a0840182616cae565b5060a0830151617acc60c0840182616cae565b5060c0830151617adf60e0840182616cae565b5060e0830151610100838101919091528301516101208084019190915283015161014080840191909152830151610160808401919091528301516101e0610180808501829052617b33610200860184616cb4565b908601519092506101a0617b4986820183616ce0565b80870151915050601f196101c0818786030181880152617b698584616bdb565b908801518782039092018488015293509050616ee58382616c74565b600085825284602083015260806040830152617ba46080830185616cb4565b905082606083015295945050505050565b60008382528260208301526060604083015261484260608301616d02565b600084825283602083015260806040830152617bf160808301616d02565b9050826060830152949350505050565b9182526020820152606060408201819052600990820152686e756d546f6b656e7360b81b608082015260a00190565b93845260208401929092526040830152606082015260800190565b6000602082528251610100806020850152617c6a610120850183616cb4565b91506020850151617c7e6040860182616bce565b50604085015160608501526060850151601f1980868503016080870152617ca58483616cb4565b935060808701519150808685030160a0870152617cc28483616bdb565b935060a08701519150808685030160c0870152617cdf8483616c74565b935060c08701519150808685030160e087015250617cfd8382616cb4565b92505060e0850151617d1182860182616ce0565b5090949350505050565b9182526001600160a01b0316602082015260400190565b9182526001600160a01b031660208201526000604082015260600190565b9283526020830191909152604082015260600190565b60006101a08f83528e60208401528d60408401528c60608401528b151560808401528a151560a084015289151560c08401528860e084015287610100840152866101208401528561014084015280610160840152617dc681840186616cb4565b915050617dd7610180830184616ce0565b9e9d5050505050505050505050505050565b6000808335601e19843603018112617dff578283fd5b8301803591506001600160401b03821115617e18578283fd5b60200191503681900382131561676b57600080fd5b6040518181016001600160401b0381118282101715617e4e57617e4e617fad565b604052919050565b60006001600160401b03821115617e6f57617e6f617fad565b5060209081020190565b60009081526020902090565b60008219821115617e9857617e98617f81565b500190565b600082617eac57617eac617f97565b500490565b6000816000190483118215151615617ecb57617ecb617f81565b500290565b600082821015617ee257617ee2617f81565b500390565b60005b83811015617f02578181015183820152602001617eea565b83811115617f11576000848401525b50505050565b600281046001821680617f2b57607f821691505b60208210811415617f4c57634e487b7160e01b600052602260045260246000fd5b50919050565b6000600019821415617f6657617f66617f81565b5060010190565b600082617f7c57617f7c617f97565b500690565b634e487b7160e01b600052601160045260246000fd5b634e487b7160e01b600052601260045260246000fd5b634e487b7160e01b600052604160045260246000fdfea26469706673582212201182cc6ae1c0e5007b47b80aae9ab019e375bff706bb9181cf791cb20b49c5d064736f6c63430008000033",
  "linkReferences": {
    "contracts/worksystems/DataSpotting.sol": {
      "AttributeStore": [
        {
          "length": 20,
          "start": 15022
        },
        {
          "length": 20,
          "start": 15130
        },
        {
          "length": 20,
          "start": 17516
        },
        {
          "length": 20,
          "start": 17760
        }
      ],
      "DLL": [
        {
          "length": 20,
          "start": 4229
        },
        {
          "length": 20,
          "start": 7779
        },
        {
          "length": 20,
          "start": 7951
        },
        {
          "length": 20,
          "start": 8741
        },
        {
          "length": 20,
          "start": 13478
        },
        {
          "length": 20,
          "start": 13658
        },
        {
          "length": 20,
          "start": 14511
        },
        {
          "length": 20,
          "start": 14673
        },
        {
          "length": 20,
          "start": 14868
        }
      ]
    }
  },
  "deployedLinkReferences": {
    "contracts/worksystems/DataSpotting.sol": {
      "AttributeStore": [
        {
          "length": 20,
          "start": 14590
        },
        {
          "length": 20,
          "start": 14698
        },
        {
          "length": 20,
          "start": 17084
        },
        {
          "length": 20,
          "start": 17328
        }
      ],
      "DLL": [
        {
          "length": 20,
          "start": 3797
        },
        {
          "length": 20,
          "start": 7347
        },
        {
          "length": 20,
          "start": 7519
        },
        {
          "length": 20,
          "start": 8309
        },
        {
          "length": 20,
          "start": 13046
        },
        {
          "length": 20,
          "start": 13226
        },
        {
          "length": 20,
          "start": 14079
        },
        {
          "length": 20,
          "start": 14241
        },
        {
          "length": 20,
          "start": 14436
        }
      ]
    }
  }
}