{
  "_format": "hh-sol-artifact-1",
  "contractName": "DataSpotting",
  "sourceName": "contracts/worksystems/DataSpotting.sol",
  "abi": [
    {
      "inputs": [
        {
          "internalType": "address",
          "name": "EXDT_token_",
          "type": "address"
        }
      ],
      "stateMutability": "nonpayable",
      "type": "constructor"
    },
    {
      "anonymous": false,
      "inputs": [
        {
          "indexed": false,
          "internalType": "bytes",
          "name": "bytesFailure",
          "type": "bytes"
        }
      ],
      "name": "BytesFailure",
      "type": "event"
    },
    {
      "anonymous": false,
      "inputs": [
        {
          "indexed": true,
          "internalType": "address",
          "name": "previousOwner",
          "type": "address"
        },
        {
          "indexed": true,
          "internalType": "address",
          "name": "newOwner",
          "type": "address"
        }
      ],
      "name": "OwnershipTransferred",
      "type": "event"
    },
    {
      "anonymous": false,
      "inputs": [
        {
          "indexed": true,
          "internalType": "uint256",
          "name": "DataID",
          "type": "uint256"
        },
        {
          "indexed": false,
          "internalType": "string",
          "name": "file_hash",
          "type": "string"
        },
        {
          "indexed": false,
          "internalType": "bool",
          "name": "isVotePassed",
          "type": "bool"
        }
      ],
      "name": "_BatchValidated",
      "type": "event"
    },
    {
      "anonymous": false,
      "inputs": [
        {
          "indexed": true,
          "internalType": "uint256",
          "name": "batchID",
          "type": "uint256"
        }
      ],
      "name": "_DataBatchDeleted",
      "type": "event"
    },
    {
      "anonymous": false,
      "inputs": [
        {
          "indexed": true,
          "internalType": "uint256",
          "name": "DataID",
          "type": "uint256"
        },
        {
          "indexed": false,
          "internalType": "uint256",
          "name": "numTokens",
          "type": "uint256"
        },
        {
          "indexed": true,
          "internalType": "address",
          "name": "voter",
          "type": "address"
        }
      ],
      "name": "_SpotCheckCommitted",
      "type": "event"
    },
    {
      "anonymous": false,
      "inputs": [
        {
          "indexed": true,
          "internalType": "uint256",
          "name": "DataID",
          "type": "uint256"
        },
        {
          "indexed": false,
          "internalType": "uint256",
          "name": "numTokens",
          "type": "uint256"
        },
        {
          "indexed": false,
          "internalType": "uint256",
          "name": "votesFor",
          "type": "uint256"
        },
        {
          "indexed": false,
          "internalType": "uint256",
          "name": "votesAgainst",
          "type": "uint256"
        },
        {
          "indexed": true,
          "internalType": "uint256",
          "name": "choice",
          "type": "uint256"
        },
        {
          "indexed": true,
          "internalType": "address",
          "name": "voter",
          "type": "address"
        }
      ],
      "name": "_SpotCheckRevealed",
      "type": "event"
    },
    {
      "anonymous": false,
      "inputs": [
        {
          "indexed": true,
          "internalType": "uint256",
          "name": "DataID",
          "type": "uint256"
        },
        {
          "indexed": false,
          "internalType": "string",
          "name": "file_hash",
          "type": "string"
        },
        {
          "indexed": false,
          "internalType": "string",
          "name": "URL_domain",
          "type": "string"
        },
        {
          "indexed": true,
          "internalType": "address",
          "name": "sender",
          "type": "address"
        }
      ],
      "name": "_SpotSubmitted",
      "type": "event"
    },
    {
      "anonymous": false,
      "inputs": [
        {
          "indexed": false,
          "internalType": "uint256",
          "name": "numTokens",
          "type": "uint256"
        },
        {
          "indexed": true,
          "internalType": "address",
          "name": "voter",
          "type": "address"
        }
      ],
      "name": "_StakeAllocated",
      "type": "event"
    },
    {
      "anonymous": false,
      "inputs": [
        {
          "indexed": true,
          "internalType": "uint256",
          "name": "DataID",
          "type": "uint256"
        },
        {
          "indexed": true,
          "internalType": "address",
          "name": "voter",
          "type": "address"
        }
      ],
      "name": "_TokensRescued",
      "type": "event"
    },
    {
      "anonymous": false,
      "inputs": [
        {
          "indexed": false,
          "internalType": "uint256",
          "name": "numTokens",
          "type": "uint256"
        },
        {
          "indexed": true,
          "internalType": "address",
          "name": "voter",
          "type": "address"
        }
      ],
      "name": "_VotingRightsWithdrawn",
      "type": "event"
    },
    {
      "anonymous": false,
      "inputs": [
        {
          "indexed": true,
          "internalType": "uint256",
          "name": "batchID",
          "type": "uint256"
        },
        {
          "indexed": false,
          "internalType": "address",
          "name": "worker",
          "type": "address"
        }
      ],
      "name": "_WorkAllocated",
      "type": "event"
    },
    {
      "anonymous": false,
      "inputs": [
        {
          "indexed": true,
          "internalType": "address",
          "name": "worker",
          "type": "address"
        },
        {
          "indexed": false,
          "internalType": "uint256",
          "name": "timestamp",
          "type": "uint256"
        }
      ],
      "name": "_WorkerRegistered",
      "type": "event"
    },
    {
      "anonymous": false,
      "inputs": [
        {
          "indexed": true,
          "internalType": "address",
          "name": "worker",
          "type": "address"
        },
        {
          "indexed": false,
          "internalType": "uint256",
          "name": "timestamp",
          "type": "uint256"
        }
      ],
      "name": "_WorkerUnregistered",
      "type": "event"
    },
    {
      "inputs": [],
      "name": "AcceptedBatchsCounter",
      "outputs": [
        {
          "internalType": "uint256",
          "name": "",
          "type": "uint256"
        }
      ],
      "stateMutability": "view",
      "type": "function"
    },
    {
      "inputs": [],
      "name": "AllItemCounter",
      "outputs": [
        {
          "internalType": "uint256",
          "name": "",
          "type": "uint256"
        }
      ],
      "stateMutability": "view",
      "type": "function"
    },
    {
      "inputs": [],
      "name": "AllTxsCounter",
      "outputs": [
        {
          "internalType": "uint256",
          "name": "",
          "type": "uint256"
        }
      ],
      "stateMutability": "view",
      "type": "function"
    },
    {
      "inputs": [],
      "name": "AllocatedBatchCursor",
      "outputs": [
        {
          "internalType": "uint256",
          "name": "",
          "type": "uint256"
        }
      ],
      "stateMutability": "view",
      "type": "function"
    },
    {
      "inputs": [],
      "name": "AmIRegistered",
      "outputs": [
        {
          "internalType": "bool",
          "name": "passed",
          "type": "bool"
        }
      ],
      "stateMutability": "view",
      "type": "function"
    },
    {
      "inputs": [
        {
          "internalType": "string",
          "name": "_a",
          "type": "string"
        },
        {
          "internalType": "string",
          "name": "_b",
          "type": "string"
        }
      ],
      "name": "AreStringsEqual",
      "outputs": [
        {
          "internalType": "bool",
          "name": "",
          "type": "bool"
        }
      ],
      "stateMutability": "pure",
      "type": "function"
    },
    {
      "inputs": [],
      "name": "BatchCheckingCursor",
      "outputs": [
        {
          "internalType": "uint256",
          "name": "",
          "type": "uint256"
        }
      ],
      "stateMutability": "view",
      "type": "function"
    },
    {
      "inputs": [],
      "name": "BatchDeletionCursor",
      "outputs": [
        {
          "internalType": "uint256",
          "name": "",
          "type": "uint256"
        }
      ],
      "stateMutability": "view",
      "type": "function"
    },
    {
      "inputs": [
        {
          "internalType": "uint256",
          "name": "",
          "type": "uint256"
        }
      ],
      "name": "DataBatch",
      "outputs": [
        {
          "internalType": "uint256",
          "name": "start_idx",
          "type": "uint256"
        },
        {
          "internalType": "uint256",
          "name": "counter",
          "type": "uint256"
        },
        {
          "internalType": "uint256",
          "name": "uncommited_workers",
          "type": "uint256"
        },
        {
          "internalType": "uint256",
          "name": "unrevealed_workers",
          "type": "uint256"
        },
        {
          "internalType": "bool",
          "name": "complete",
          "type": "bool"
        },
        {
          "internalType": "bool",
          "name": "checked",
          "type": "bool"
        },
        {
          "internalType": "bool",
          "name": "allocated_to_work",
          "type": "bool"
        },
        {
          "internalType": "uint256",
          "name": "commitEndDate",
          "type": "uint256"
        },
        {
          "internalType": "uint256",
          "name": "revealEndDate",
          "type": "uint256"
        },
        {
          "internalType": "uint256",
          "name": "votesFor",
          "type": "uint256"
        },
        {
          "internalType": "uint256",
          "name": "votesAgainst",
          "type": "uint256"
        },
        {
          "internalType": "string",
          "name": "batchIPFSfile",
          "type": "string"
        },
        {
          "internalType": "uint256",
          "name": "item_count",
          "type": "uint256"
        },
        {
          "internalType": "enum DataSpotting.DataStatus",
          "name": "status",
          "type": "uint8"
        }
      ],
      "stateMutability": "view",
      "type": "function"
    },
    {
      "inputs": [
        {
          "internalType": "uint256",
          "name": "_DataBatchId",
          "type": "uint256"
        }
      ],
      "name": "DataCommitEndDate",
      "outputs": [
        {
          "internalType": "uint256",
          "name": "commitEndDate",
          "type": "uint256"
        }
      ],
      "stateMutability": "view",
      "type": "function"
    },
    {
      "inputs": [
        {
          "internalType": "uint256",
          "name": "_DataBatchId",
          "type": "uint256"
        }
      ],
      "name": "DataEnded",
      "outputs": [
        {
          "internalType": "bool",
          "name": "ended",
          "type": "bool"
        }
      ],
      "stateMutability": "view",
      "type": "function"
    },
    {
      "inputs": [
        {
          "internalType": "uint256",
          "name": "_DataBatchId",
          "type": "uint256"
        }
      ],
      "name": "DataExists",
      "outputs": [
        {
          "internalType": "bool",
          "name": "exists",
          "type": "bool"
        }
      ],
      "stateMutability": "view",
      "type": "function"
    },
    {
      "inputs": [],
      "name": "DataNonce",
      "outputs": [
        {
          "internalType": "uint256",
          "name": "",
          "type": "uint256"
        }
      ],
      "stateMutability": "view",
      "type": "function"
    },
    {
      "inputs": [
        {
          "internalType": "uint256",
          "name": "_DataBatchId",
          "type": "uint256"
        }
      ],
      "name": "DataRevealEndDate",
      "outputs": [
        {
          "internalType": "uint256",
          "name": "revealEndDate",
          "type": "uint256"
        }
      ],
      "stateMutability": "view",
      "type": "function"
    },
    {
      "inputs": [],
      "name": "FORCE_VALIDATE_BATCH_FILE",
      "outputs": [
        {
          "internalType": "bool",
          "name": "",
          "type": "bool"
        }
      ],
      "stateMutability": "view",
      "type": "function"
    },
    {
      "inputs": [],
      "name": "GAS_LEFT_LIMIT",
      "outputs": [
        {
          "internalType": "uint256",
          "name": "",
          "type": "uint256"
        }
      ],
      "stateMutability": "view",
      "type": "function"
    },
    {
      "inputs": [
        {
          "internalType": "address",
          "name": "user_",
          "type": "address"
        }
      ],
      "name": "GetCurrentWork",
      "outputs": [
        {
          "internalType": "uint256",
          "name": "",
          "type": "uint256"
        }
      ],
      "stateMutability": "view",
      "type": "function"
    },
    {
      "inputs": [
        {
          "internalType": "uint256",
          "name": "",
          "type": "uint256"
        }
      ],
      "name": "GlobalSpotFlowManager",
      "outputs": [
        {
          "internalType": "uint256",
          "name": "timestamp",
          "type": "uint256"
        },
        {
          "internalType": "uint256",
          "name": "counter",
          "type": "uint256"
        }
      ],
      "stateMutability": "view",
      "type": "function"
    },
    {
      "inputs": [],
      "name": "InstantRevealRewards",
      "outputs": [
        {
          "internalType": "bool",
          "name": "",
          "type": "bool"
        }
      ],
      "stateMutability": "view",
      "type": "function"
    },
    {
      "inputs": [],
      "name": "InstantRevealRewardsDivider",
      "outputs": [
        {
          "internalType": "uint256",
          "name": "",
          "type": "uint256"
        }
      ],
      "stateMutability": "view",
      "type": "function"
    },
    {
      "inputs": [],
      "name": "InstantSpotRewards",
      "outputs": [
        {
          "internalType": "bool",
          "name": "",
          "type": "bool"
        }
      ],
      "stateMutability": "view",
      "type": "function"
    },
    {
      "inputs": [],
      "name": "InstantSpotRewardsDivider",
      "outputs": [
        {
          "internalType": "uint256",
          "name": "",
          "type": "uint256"
        }
      ],
      "stateMutability": "view",
      "type": "function"
    },
    {
      "inputs": [
        {
          "internalType": "address",
          "name": "_worker",
          "type": "address"
        }
      ],
      "name": "IsInLogoffList",
      "outputs": [
        {
          "internalType": "bool",
          "name": "",
          "type": "bool"
        }
      ],
      "stateMutability": "view",
      "type": "function"
    },
    {
      "inputs": [
        {
          "internalType": "address",
          "name": "user_",
          "type": "address"
        }
      ],
      "name": "IsNewWorkAvailable",
      "outputs": [
        {
          "internalType": "bool",
          "name": "",
          "type": "bool"
        }
      ],
      "stateMutability": "view",
      "type": "function"
    },
    {
      "inputs": [
        {
          "internalType": "uint256",
          "name": "",
          "type": "uint256"
        }
      ],
      "name": "ItemFlowManager",
      "outputs": [
        {
          "internalType": "uint256",
          "name": "timestamp",
          "type": "uint256"
        },
        {
          "internalType": "uint256",
          "name": "counter",
          "type": "uint256"
        }
      ],
      "stateMutability": "view",
      "type": "function"
    },
    {
      "inputs": [],
      "name": "LastAllocationTime",
      "outputs": [
        {
          "internalType": "uint256",
          "name": "",
          "type": "uint256"
        }
      ],
      "stateMutability": "view",
      "type": "function"
    },
    {
      "inputs": [],
      "name": "LastBatchCounter",
      "outputs": [
        {
          "internalType": "uint256",
          "name": "",
          "type": "uint256"
        }
      ],
      "stateMutability": "view",
      "type": "function"
    },
    {
      "inputs": [],
      "name": "LastRandomSeed",
      "outputs": [
        {
          "internalType": "uint256",
          "name": "",
          "type": "uint256"
        }
      ],
      "stateMutability": "view",
      "type": "function"
    },
    {
      "inputs": [],
      "name": "MaxPendingDataBatchCount",
      "outputs": [
        {
          "internalType": "uint256",
          "name": "",
          "type": "uint256"
        }
      ],
      "stateMutability": "view",
      "type": "function"
    },
    {
      "inputs": [],
      "name": "NotCommitedCounter",
      "outputs": [
        {
          "internalType": "uint256",
          "name": "",
          "type": "uint256"
        }
      ],
      "stateMutability": "view",
      "type": "function"
    },
    {
      "inputs": [],
      "name": "NotRevealedCounter",
      "outputs": [
        {
          "internalType": "uint256",
          "name": "",
          "type": "uint256"
        }
      ],
      "stateMutability": "view",
      "type": "function"
    },
    {
      "inputs": [],
      "name": "Parameters",
      "outputs": [
        {
          "internalType": "contract IParametersManager",
          "name": "",
          "type": "address"
        }
      ],
      "stateMutability": "view",
      "type": "function"
    },
    {
      "inputs": [],
      "name": "RegisterWorker",
      "outputs": [],
      "stateMutability": "nonpayable",
      "type": "function"
    },
    {
      "inputs": [],
      "name": "RejectedBatchsCounter",
      "outputs": [
        {
          "internalType": "uint256",
          "name": "",
          "type": "uint256"
        }
      ],
      "stateMutability": "view",
      "type": "function"
    },
    {
      "inputs": [],
      "name": "SPOT_FILE_SIZE",
      "outputs": [
        {
          "internalType": "uint256",
          "name": "",
          "type": "uint256"
        }
      ],
      "stateMutability": "view",
      "type": "function"
    },
    {
      "inputs": [],
      "name": "STAKING_REQUIREMENT_TOGGLE_ENABLED",
      "outputs": [
        {
          "internalType": "bool",
          "name": "",
          "type": "bool"
        }
      ],
      "stateMutability": "view",
      "type": "function"
    },
    {
      "inputs": [],
      "name": "STRICT_RANDOMNESS_REQUIREMENT",
      "outputs": [
        {
          "internalType": "bool",
          "name": "",
          "type": "bool"
        }
      ],
      "stateMutability": "view",
      "type": "function"
    },
    {
      "inputs": [
        {
          "internalType": "address",
          "name": "_worker",
          "type": "address"
        },
        {
          "internalType": "uint256",
          "name": "_TokensAmountToAllocate",
          "type": "uint256"
        }
      ],
      "name": "SelectAddressForUser",
      "outputs": [
        {
          "internalType": "address",
          "name": "",
          "type": "address"
        }
      ],
      "stateMutability": "view",
      "type": "function"
    },
    {
      "inputs": [
        {
          "internalType": "string[]",
          "name": "file_hashs_",
          "type": "string[]"
        },
        {
          "internalType": "string[]",
          "name": "URL_domains_",
          "type": "string[]"
        },
        {
          "internalType": "uint256[]",
          "name": "item_counts_",
          "type": "uint256[]"
        },
        {
          "internalType": "string",
          "name": "extra_",
          "type": "string"
        }
      ],
      "name": "SpotData",
      "outputs": [
        {
          "internalType": "uint256",
          "name": "Dataid_",
          "type": "uint256"
        }
      ],
      "stateMutability": "nonpayable",
      "type": "function"
    },
    {
      "inputs": [
        {
          "internalType": "uint256",
          "name": "",
          "type": "uint256"
        }
      ],
      "name": "SpotsMapping",
      "outputs": [
        {
          "internalType": "string",
          "name": "ipfs_hash",
          "type": "string"
        },
        {
          "internalType": "address",
          "name": "author",
          "type": "address"
        },
        {
          "internalType": "uint256",
          "name": "timestamp",
          "type": "uint256"
        },
        {
          "internalType": "uint256",
          "name": "item_count",
          "type": "uint256"
        },
        {
          "internalType": "string",
          "name": "URL_domain",
          "type": "string"
        },
        {
          "internalType": "string",
          "name": "extra",
          "type": "string"
        },
        {
          "internalType": "enum DataSpotting.DataStatus",
          "name": "status",
          "type": "uint8"
        }
      ],
      "stateMutability": "view",
      "type": "function"
    },
    {
      "inputs": [
        {
          "internalType": "address",
          "name": "",
          "type": "address"
        }
      ],
      "name": "SystemStakedTokenBalance",
      "outputs": [
        {
          "internalType": "uint256",
          "name": "",
          "type": "uint256"
        }
      ],
      "stateMutability": "view",
      "type": "function"
    },
    {
      "inputs": [],
      "name": "TRIGGER_WITH_SPOTDATA_TOGGLE_ENABLED",
      "outputs": [
        {
          "internalType": "bool",
          "name": "",
          "type": "bool"
        }
      ],
      "stateMutability": "view",
      "type": "function"
    },
    {
      "inputs": [
        {
          "internalType": "uint256",
          "name": "iteration_count",
          "type": "uint256"
        }
      ],
      "name": "TriggerAllocations",
      "outputs": [],
      "stateMutability": "nonpayable",
      "type": "function"
    },
    {
      "inputs": [
        {
          "internalType": "uint256",
          "name": "iteration_count",
          "type": "uint256"
        }
      ],
      "name": "TriggerUpdate",
      "outputs": [],
      "stateMutability": "nonpayable",
      "type": "function"
    },
    {
      "inputs": [
        {
          "internalType": "uint256",
          "name": "iteration_count",
          "type": "uint256"
        }
      ],
      "name": "TriggerValidation",
      "outputs": [],
      "stateMutability": "nonpayable",
      "type": "function"
    },
    {
      "inputs": [],
      "name": "UnregisterWorker",
      "outputs": [],
      "stateMutability": "nonpayable",
      "type": "function"
    },
    {
      "inputs": [
        {
          "internalType": "uint256",
          "name": "",
          "type": "uint256"
        },
        {
          "internalType": "address",
          "name": "",
          "type": "address"
        }
      ],
      "name": "UserBatchCounts",
      "outputs": [
        {
          "internalType": "uint256",
          "name": "",
          "type": "uint256"
        }
      ],
      "stateMutability": "view",
      "type": "function"
    },
    {
      "inputs": [
        {
          "internalType": "uint256",
          "name": "",
          "type": "uint256"
        },
        {
          "internalType": "address",
          "name": "",
          "type": "address"
        }
      ],
      "name": "UserBatchFrom",
      "outputs": [
        {
          "internalType": "string",
          "name": "",
          "type": "string"
        }
      ],
      "stateMutability": "view",
      "type": "function"
    },
    {
      "inputs": [
        {
          "internalType": "address",
          "name": "",
          "type": "address"
        },
        {
          "internalType": "uint256",
          "name": "",
          "type": "uint256"
        }
      ],
      "name": "UserChecksCommits",
      "outputs": [
        {
          "internalType": "bool",
          "name": "",
          "type": "bool"
        }
      ],
      "stateMutability": "view",
      "type": "function"
    },
    {
      "inputs": [
        {
          "internalType": "address",
          "name": "",
          "type": "address"
        },
        {
          "internalType": "uint256",
          "name": "",
          "type": "uint256"
        }
      ],
      "name": "UserChecksReveals",
      "outputs": [
        {
          "internalType": "bool",
          "name": "",
          "type": "bool"
        }
      ],
      "stateMutability": "view",
      "type": "function"
    },
    {
      "inputs": [
        {
          "internalType": "uint256",
          "name": "",
          "type": "uint256"
        },
        {
          "internalType": "address",
          "name": "",
          "type": "address"
        }
      ],
      "name": "UserNewFiles",
      "outputs": [
        {
          "internalType": "string",
          "name": "",
          "type": "string"
        }
      ],
      "stateMutability": "view",
      "type": "function"
    },
    {
      "inputs": [
        {
          "internalType": "address",
          "name": "",
          "type": "address"
        },
        {
          "internalType": "uint256",
          "name": "",
          "type": "uint256"
        }
      ],
      "name": "UserSubmissions",
      "outputs": [
        {
          "internalType": "uint256",
          "name": "",
          "type": "uint256"
        }
      ],
      "stateMutability": "view",
      "type": "function"
    },
    {
      "inputs": [
        {
          "internalType": "uint256",
          "name": "",
          "type": "uint256"
        },
        {
          "internalType": "address",
          "name": "",
          "type": "address"
        }
      ],
      "name": "UserVotes",
      "outputs": [
        {
          "internalType": "uint256",
          "name": "",
          "type": "uint256"
        }
      ],
      "stateMutability": "view",
      "type": "function"
    },
    {
      "inputs": [],
      "name": "VALIDATE_ON_LAST_REVEAL",
      "outputs": [
        {
          "internalType": "bool",
          "name": "",
          "type": "bool"
        }
      ],
      "stateMutability": "view",
      "type": "function"
    },
    {
      "inputs": [
        {
          "internalType": "uint256",
          "name": "",
          "type": "uint256"
        },
        {
          "internalType": "uint256",
          "name": "",
          "type": "uint256"
        }
      ],
      "name": "WorkersPerBatch",
      "outputs": [
        {
          "internalType": "address",
          "name": "",
          "type": "address"
        }
      ],
      "stateMutability": "view",
      "type": "function"
    },
    {
      "inputs": [
        {
          "internalType": "address",
          "name": "",
          "type": "address"
        },
        {
          "internalType": "uint256",
          "name": "",
          "type": "uint256"
        }
      ],
      "name": "WorkersSpotFlowManager",
      "outputs": [
        {
          "internalType": "uint256",
          "name": "timestamp",
          "type": "uint256"
        },
        {
          "internalType": "uint256",
          "name": "counter",
          "type": "uint256"
        }
      ],
      "stateMutability": "view",
      "type": "function"
    },
    {
      "inputs": [
        {
          "internalType": "address",
          "name": "",
          "type": "address"
        }
      ],
      "name": "WorkersState",
      "outputs": [
        {
          "internalType": "uint256",
          "name": "allocated_work_batch",
          "type": "uint256"
        },
        {
          "internalType": "uint256",
          "name": "succeeding_novote_count",
          "type": "uint256"
        },
        {
          "internalType": "uint256",
          "name": "last_interaction_date",
          "type": "uint256"
        },
        {
          "internalType": "bool",
          "name": "registered",
          "type": "bool"
        },
        {
          "internalType": "bool",
          "name": "unregistration_request",
          "type": "bool"
        },
        {
          "internalType": "uint256",
          "name": "registration_date",
          "type": "uint256"
        },
        {
          "internalType": "uint256",
          "name": "allocated_batch_counter",
          "type": "uint256"
        },
        {
          "internalType": "uint256",
          "name": "majority_counter",
          "type": "uint256"
        },
        {
          "internalType": "uint256",
          "name": "minority_counter",
          "type": "uint256"
        }
      ],
      "stateMutability": "view",
      "type": "function"
    },
    {
      "inputs": [
        {
          "internalType": "address",
          "name": "user_",
          "type": "address"
        },
        {
          "internalType": "uint256",
          "name": "_DataBatchId",
          "type": "uint256"
        }
      ],
      "name": "attrUUID",
      "outputs": [
        {
          "internalType": "bytes32",
          "name": "UUID",
          "type": "bytes32"
        }
      ],
      "stateMutability": "pure",
      "type": "function"
    },
    {
      "inputs": [
        {
          "internalType": "uint256",
          "name": "",
          "type": "uint256"
        }
      ],
      "name": "availableWorkers",
      "outputs": [
        {
          "internalType": "address",
          "name": "",
          "type": "address"
        }
      ],
      "stateMutability": "view",
      "type": "function"
    },
    {
      "inputs": [
        {
          "internalType": "address",
          "name": "",
          "type": "address"
        }
      ],
      "name": "availableWorkersIndex",
      "outputs": [
        {
          "internalType": "uint256",
          "name": "",
          "type": "uint256"
        }
      ],
      "stateMutability": "view",
      "type": "function"
    },
    {
      "inputs": [
        {
          "internalType": "uint256",
          "name": "",
          "type": "uint256"
        }
      ],
      "name": "busyWorkers",
      "outputs": [
        {
          "internalType": "address",
          "name": "",
          "type": "address"
        }
      ],
      "stateMutability": "view",
      "type": "function"
    },
    {
      "inputs": [
        {
          "internalType": "address",
          "name": "",
          "type": "address"
        }
      ],
      "name": "busyWorkersIndex",
      "outputs": [
        {
          "internalType": "uint256",
          "name": "",
          "type": "uint256"
        }
      ],
      "stateMutability": "view",
      "type": "function"
    },
    {
      "inputs": [
        {
          "internalType": "uint256",
          "name": "_DataBatchId",
          "type": "uint256"
        }
      ],
      "name": "commitPeriodActive",
      "outputs": [
        {
          "internalType": "bool",
          "name": "active",
          "type": "bool"
        }
      ],
      "stateMutability": "view",
      "type": "function"
    },
    {
      "inputs": [
        {
          "internalType": "uint256",
          "name": "_DataBatchId",
          "type": "uint256"
        }
      ],
      "name": "commitPeriodOver",
      "outputs": [
        {
          "internalType": "bool",
          "name": "active",
          "type": "bool"
        }
      ],
      "stateMutability": "view",
      "type": "function"
    },
    {
      "inputs": [
        {
          "internalType": "uint256",
          "name": "_DataBatchId",
          "type": "uint256"
        },
        {
          "internalType": "bytes32",
          "name": "_encryptedHash",
          "type": "bytes32"
        },
        {
          "internalType": "bytes32",
          "name": "_encryptedVote",
          "type": "bytes32"
        },
        {
          "internalType": "uint256",
          "name": "_BatchCount",
          "type": "uint256"
        },
        {
          "internalType": "string",
          "name": "_From",
          "type": "string"
        }
      ],
      "name": "commitSpotCheck",
      "outputs": [],
      "stateMutability": "nonpayable",
      "type": "function"
    },
    {
      "inputs": [
        {
          "internalType": "uint256",
          "name": "_DataId",
          "type": "uint256"
        }
      ],
      "name": "deleteData",
      "outputs": [],
      "stateMutability": "nonpayable",
      "type": "function"
    },
    {
      "inputs": [
        {
          "internalType": "uint256",
          "name": "_BatchId",
          "type": "uint256"
        }
      ],
      "name": "deleteDataBatch",
      "outputs": [],
      "stateMutability": "nonpayable",
      "type": "function"
    },
    {
      "inputs": [],
      "name": "destroyContract",
      "outputs": [],
      "stateMutability": "nonpayable",
      "type": "function"
    },
    {
      "inputs": [
        {
          "internalType": "address",
          "name": "_voter",
          "type": "address"
        },
        {
          "internalType": "uint256",
          "name": "_DataBatchId",
          "type": "uint256"
        }
      ],
      "name": "didCommit",
      "outputs": [
        {
          "internalType": "bool",
          "name": "committed",
          "type": "bool"
        }
      ],
      "stateMutability": "view",
      "type": "function"
    },
    {
      "inputs": [
        {
          "internalType": "address",
          "name": "_voter",
          "type": "address"
        },
        {
          "internalType": "uint256",
          "name": "_DataBatchId",
          "type": "uint256"
        }
      ],
      "name": "didReveal",
      "outputs": [
        {
          "internalType": "bool",
          "name": "revealed",
          "type": "bool"
        }
      ],
      "stateMutability": "view",
      "type": "function"
    },
    {
      "inputs": [
        {
          "internalType": "uint256",
          "name": "_k",
          "type": "uint256"
        },
        {
          "internalType": "uint256",
          "name": "N_range",
          "type": "uint256"
        }
      ],
      "name": "generateIntegers",
      "outputs": [
        {
          "internalType": "uint256[]",
          "name": "",
          "type": "uint256[]"
        }
      ],
      "stateMutability": "view",
      "type": "function"
    },
    {
      "inputs": [],
      "name": "getAcceptedBatchesCount",
      "outputs": [
        {
          "internalType": "uint256",
          "name": "count",
          "type": "uint256"
        }
      ],
      "stateMutability": "view",
      "type": "function"
    },
    {
      "inputs": [],
      "name": "getActiveWorkersCount",
      "outputs": [
        {
          "internalType": "uint256",
          "name": "numWorkers",
          "type": "uint256"
        }
      ],
      "stateMutability": "view",
      "type": "function"
    },
    {
      "inputs": [
        {
          "internalType": "bytes32",
          "name": "_UUID",
          "type": "bytes32"
        },
        {
          "internalType": "string",
          "name": "_attrName",
          "type": "string"
        }
      ],
      "name": "getAttribute",
      "outputs": [
        {
          "internalType": "uint256",
          "name": "",
          "type": "uint256"
        }
      ],
      "stateMutability": "view",
      "type": "function"
    },
    {
      "inputs": [],
      "name": "getAvailableWorkersCount",
      "outputs": [
        {
          "internalType": "uint256",
          "name": "numWorkers",
          "type": "uint256"
        }
      ],
      "stateMutability": "view",
      "type": "function"
    },
    {
      "inputs": [
        {
          "internalType": "uint256",
          "name": "_DataBatchId",
          "type": "uint256"
        }
      ],
      "name": "getBatchByID",
      "outputs": [
        {
          "components": [
            {
              "internalType": "uint256",
              "name": "start_idx",
              "type": "uint256"
            },
            {
              "internalType": "uint256",
              "name": "counter",
              "type": "uint256"
            },
            {
              "internalType": "uint256",
              "name": "uncommited_workers",
              "type": "uint256"
            },
            {
              "internalType": "uint256",
              "name": "unrevealed_workers",
              "type": "uint256"
            },
            {
              "internalType": "bool",
              "name": "complete",
              "type": "bool"
            },
            {
              "internalType": "bool",
              "name": "checked",
              "type": "bool"
            },
            {
              "internalType": "bool",
              "name": "allocated_to_work",
              "type": "bool"
            },
            {
              "internalType": "uint256",
              "name": "commitEndDate",
              "type": "uint256"
            },
            {
              "internalType": "uint256",
              "name": "revealEndDate",
              "type": "uint256"
            },
            {
              "internalType": "uint256",
              "name": "votesFor",
              "type": "uint256"
            },
            {
              "internalType": "uint256",
              "name": "votesAgainst",
              "type": "uint256"
            },
            {
              "internalType": "string",
              "name": "batchIPFSfile",
              "type": "string"
            },
            {
              "internalType": "uint256",
              "name": "item_count",
              "type": "uint256"
            },
            {
              "internalType": "enum DataSpotting.DataStatus",
              "name": "status",
              "type": "uint8"
            }
          ],
          "internalType": "struct DataSpotting.BatchMetadata",
          "name": "batch",
          "type": "tuple"
        }
      ],
      "stateMutability": "view",
      "type": "function"
    },
    {
      "inputs": [
        {
          "internalType": "uint256",
          "name": "_DataBatchId_a",
          "type": "uint256"
        },
        {
          "internalType": "uint256",
          "name": "_DataBatchId_b",
          "type": "uint256"
        }
      ],
      "name": "getBatchCountForBatch",
      "outputs": [
        {
          "internalType": "uint256",
          "name": "AverageURLCount",
          "type": "uint256"
        },
        {
          "internalType": "uint256[]",
          "name": "batchCounts",
          "type": "uint256[]"
        }
      ],
      "stateMutability": "view",
      "type": "function"
    },
    {
      "inputs": [
        {
          "internalType": "uint256",
          "name": "_DataBatchId",
          "type": "uint256"
        }
      ],
      "name": "getBatchIPFSFileByID",
      "outputs": [
        {
          "internalType": "string",
          "name": "batch",
          "type": "string"
        }
      ],
      "stateMutability": "view",
      "type": "function"
    },
    {
      "inputs": [
        {
          "internalType": "uint256",
          "name": "_DataBatchId_a",
          "type": "uint256"
        },
        {
          "internalType": "uint256",
          "name": "_DataBatchId_b",
          "type": "uint256"
        }
      ],
      "name": "getBatchsFilesByID",
      "outputs": [
        {
          "internalType": "string[]",
          "name": "",
          "type": "string[]"
        }
      ],
      "stateMutability": "view",
      "type": "function"
    },
    {
      "inputs": [],
      "name": "getBusyWorkersCount",
      "outputs": [
        {
          "internalType": "uint256",
          "name": "numWorkers",
          "type": "uint256"
        }
      ],
      "stateMutability": "view",
      "type": "function"
    },
    {
      "inputs": [
        {
          "internalType": "address",
          "name": "_voter",
          "type": "address"
        },
        {
          "internalType": "uint256",
          "name": "_DataBatchId",
          "type": "uint256"
        }
      ],
      "name": "getCommitIPFSHash",
      "outputs": [
        {
          "internalType": "bytes32",
          "name": "commitHash",
          "type": "bytes32"
        }
      ],
      "stateMutability": "view",
      "type": "function"
    },
    {
      "inputs": [
        {
          "internalType": "address",
          "name": "_voter",
          "type": "address"
        },
        {
          "internalType": "uint256",
          "name": "_DataBatchId",
          "type": "uint256"
        }
      ],
      "name": "getCommitVoteHash",
      "outputs": [
        {
          "internalType": "bytes32",
          "name": "commitHash",
          "type": "bytes32"
        }
      ],
      "stateMutability": "view",
      "type": "function"
    },
    {
      "inputs": [
        {
          "internalType": "uint256",
          "name": "_DataId",
          "type": "uint256"
        }
      ],
      "name": "getDataByID",
      "outputs": [
        {
          "components": [
            {
              "internalType": "string",
              "name": "ipfs_hash",
              "type": "string"
            },
            {
              "internalType": "address",
              "name": "author",
              "type": "address"
            },
            {
              "internalType": "uint256",
              "name": "timestamp",
              "type": "uint256"
            },
            {
              "internalType": "uint256",
              "name": "item_count",
              "type": "uint256"
            },
            {
              "internalType": "string",
              "name": "URL_domain",
              "type": "string"
            },
            {
              "internalType": "string",
              "name": "extra",
              "type": "string"
            },
            {
              "internalType": "enum DataSpotting.DataStatus",
              "name": "status",
              "type": "uint8"
            }
          ],
          "internalType": "struct DataSpotting.SpottedData",
          "name": "data",
          "type": "tuple"
        }
      ],
      "stateMutability": "view",
      "type": "function"
    },
    {
      "inputs": [
        {
          "internalType": "uint256",
          "name": "_DataBatchId",
          "type": "uint256"
        }
      ],
      "name": "getDomainsForBatch",
      "outputs": [
        {
          "internalType": "string[]",
          "name": "",
          "type": "string[]"
        }
      ],
      "stateMutability": "view",
      "type": "function"
    },
    {
      "inputs": [
        {
          "internalType": "uint256",
          "name": "_clearVote",
          "type": "uint256"
        },
        {
          "internalType": "uint256",
          "name": "_salt",
          "type": "uint256"
        }
      ],
      "name": "getEncryptedHash",
      "outputs": [
        {
          "internalType": "bytes32",
          "name": "keccak256hash",
          "type": "bytes32"
        }
      ],
      "stateMutability": "pure",
      "type": "function"
    },
    {
      "inputs": [
        {
          "internalType": "string",
          "name": "_hash",
          "type": "string"
        },
        {
          "internalType": "uint256",
          "name": "_salt",
          "type": "uint256"
        }
      ],
      "name": "getEncryptedStringHash",
      "outputs": [
        {
          "internalType": "bytes32",
          "name": "keccak256hash",
          "type": "bytes32"
        }
      ],
      "stateMutability": "pure",
      "type": "function"
    },
    {
      "inputs": [
        {
          "internalType": "uint256",
          "name": "_DataBatchId",
          "type": "uint256"
        }
      ],
      "name": "getFromsForBatch",
      "outputs": [
        {
          "internalType": "string[]",
          "name": "",
          "type": "string[]"
        }
      ],
      "stateMutability": "view",
      "type": "function"
    },
    {
      "inputs": [],
      "name": "getGlobalPeriodSpotCount",
      "outputs": [
        {
          "internalType": "uint256",
          "name": "",
          "type": "uint256"
        }
      ],
      "stateMutability": "view",
      "type": "function"
    },
    {
      "inputs": [
        {
          "internalType": "uint256",
          "name": "_DataBatchId",
          "type": "uint256"
        }
      ],
      "name": "getIPFShashesForBatch",
      "outputs": [
        {
          "internalType": "string[]",
          "name": "",
          "type": "string[]"
        }
      ],
      "stateMutability": "view",
      "type": "function"
    },
    {
      "inputs": [
        {
          "internalType": "address",
          "name": "_voter",
          "type": "address"
        },
        {
          "internalType": "uint256",
          "name": "_numTokens",
          "type": "uint256"
        },
        {
          "internalType": "uint256",
          "name": "_DataBatchId",
          "type": "uint256"
        }
      ],
      "name": "getInsertPointForNumTokens",
      "outputs": [
        {
          "internalType": "uint256",
          "name": "prevNode",
          "type": "uint256"
        }
      ],
      "stateMutability": "view",
      "type": "function"
    },
    {
      "inputs": [],
      "name": "getItemCounter",
      "outputs": [
        {
          "internalType": "uint256",
          "name": "Counter",
          "type": "uint256"
        }
      ],
      "stateMutability": "view",
      "type": "function"
    },
    {
      "inputs": [],
      "name": "getLastAllocatedBatchId",
      "outputs": [
        {
          "internalType": "uint256",
          "name": "LastAllocatedBatchId",
          "type": "uint256"
        }
      ],
      "stateMutability": "view",
      "type": "function"
    },
    {
      "inputs": [],
      "name": "getLastBatchId",
      "outputs": [
        {
          "internalType": "uint256",
          "name": "LastBatchId",
          "type": "uint256"
        }
      ],
      "stateMutability": "view",
      "type": "function"
    },
    {
      "inputs": [],
      "name": "getLastCheckedBatchId",
      "outputs": [
        {
          "internalType": "uint256",
          "name": "LastCheckedBatchId",
          "type": "uint256"
        }
      ],
      "stateMutability": "view",
      "type": "function"
    },
    {
      "inputs": [],
      "name": "getLastDataId",
      "outputs": [
        {
          "internalType": "uint256",
          "name": "DataId",
          "type": "uint256"
        }
      ],
      "stateMutability": "view",
      "type": "function"
    },
    {
      "inputs": [
        {
          "internalType": "address",
          "name": "_voter",
          "type": "address"
        }
      ],
      "name": "getLastNode",
      "outputs": [
        {
          "internalType": "uint256",
          "name": "DataID",
          "type": "uint256"
        }
      ],
      "stateMutability": "view",
      "type": "function"
    },
    {
      "inputs": [
        {
          "internalType": "address",
          "name": "_voter",
          "type": "address"
        }
      ],
      "name": "getLockedTokens",
      "outputs": [
        {
          "internalType": "uint256",
          "name": "numTokens",
          "type": "uint256"
        }
      ],
      "stateMutability": "view",
      "type": "function"
    },
    {
      "inputs": [
        {
          "internalType": "uint256",
          "name": "_DataBatchId_a",
          "type": "uint256"
        },
        {
          "internalType": "uint256",
          "name": "_DataBatchId_b",
          "type": "uint256"
        }
      ],
      "name": "getMultiBatchIPFShashes",
      "outputs": [
        {
          "internalType": "string[]",
          "name": "",
          "type": "string[]"
        }
      ],
      "stateMutability": "view",
      "type": "function"
    },
    {
      "inputs": [
        {
          "internalType": "address",
          "name": "_voter",
          "type": "address"
        },
        {
          "internalType": "uint256",
          "name": "_DataBatchId",
          "type": "uint256"
        },
        {
          "internalType": "uint256",
          "name": "_salt",
          "type": "uint256"
        }
      ],
      "name": "getNumPassingTokens",
      "outputs": [
        {
          "internalType": "uint256",
          "name": "correctSpotChecks",
          "type": "uint256"
        }
      ],
      "stateMutability": "view",
      "type": "function"
    },
    {
      "inputs": [
        {
          "internalType": "address",
          "name": "_voter",
          "type": "address"
        },
        {
          "internalType": "uint256",
          "name": "_DataBatchId",
          "type": "uint256"
        }
      ],
      "name": "getNumTokens",
      "outputs": [
        {
          "internalType": "uint256",
          "name": "numTokens",
          "type": "uint256"
        }
      ],
      "stateMutability": "view",
      "type": "function"
    },
    {
      "inputs": [],
      "name": "getPeriodItemCount",
      "outputs": [
        {
          "internalType": "uint256",
          "name": "",
          "type": "uint256"
        }
      ],
      "stateMutability": "view",
      "type": "function"
    },
    {
      "inputs": [],
      "name": "getRandom",
      "outputs": [
        {
          "internalType": "uint256",
          "name": "",
          "type": "uint256"
        }
      ],
      "stateMutability": "view",
      "type": "function"
    },
    {
      "inputs": [],
      "name": "getRejectedBatchesCount",
      "outputs": [
        {
          "internalType": "uint256",
          "name": "count",
          "type": "uint256"
        }
      ],
      "stateMutability": "view",
      "type": "function"
    },
    {
      "inputs": [],
      "name": "getSeed",
      "outputs": [
        {
          "internalType": "bytes32",
          "name": "addr",
          "type": "bytes32"
        }
      ],
      "stateMutability": "view",
      "type": "function"
    },
    {
      "inputs": [
        {
          "internalType": "uint256",
          "name": "_DataBatchId",
          "type": "uint256"
        }
      ],
      "name": "getSubmittedFilesForBatch",
      "outputs": [
        {
          "internalType": "string[]",
          "name": "",
          "type": "string[]"
        }
      ],
      "stateMutability": "view",
      "type": "function"
    },
    {
      "inputs": [
        {
          "internalType": "address",
          "name": "user_",
          "type": "address"
        }
      ],
      "name": "getSystemTokenBalance",
      "outputs": [
        {
          "internalType": "uint256",
          "name": "tokens",
          "type": "uint256"
        }
      ],
      "stateMutability": "view",
      "type": "function"
    },
    {
      "inputs": [],
      "name": "getTxCounter",
      "outputs": [
        {
          "internalType": "uint256",
          "name": "Counter",
          "type": "uint256"
        }
      ],
      "stateMutability": "view",
      "type": "function"
    },
    {
      "inputs": [
        {
          "internalType": "address",
          "name": "user",
          "type": "address"
        }
      ],
      "name": "getUserDatas",
      "outputs": [
        {
          "internalType": "uint256[]",
          "name": "user_Datas",
          "type": "uint256[]"
        }
      ],
      "stateMutability": "view",
      "type": "function"
    },
    {
      "inputs": [
        {
          "internalType": "address",
          "name": "user_",
          "type": "address"
        }
      ],
      "name": "getUserPeriodSpotCount",
      "outputs": [
        {
          "internalType": "uint256",
          "name": "",
          "type": "uint256"
        }
      ],
      "stateMutability": "view",
      "type": "function"
    },
    {
      "inputs": [
        {
          "internalType": "uint256",
          "name": "_DataBatchId",
          "type": "uint256"
        }
      ],
      "name": "getVotesForBatch",
      "outputs": [
        {
          "internalType": "uint256[]",
          "name": "",
          "type": "uint256[]"
        }
      ],
      "stateMutability": "view",
      "type": "function"
    },
    {
      "inputs": [
        {
          "internalType": "address",
          "name": "",
          "type": "address"
        }
      ],
      "name": "isAvailableWorker",
      "outputs": [
        {
          "internalType": "bool",
          "name": "",
          "type": "bool"
        }
      ],
      "stateMutability": "view",
      "type": "function"
    },
    {
      "inputs": [
        {
          "internalType": "address",
          "name": "",
          "type": "address"
        }
      ],
      "name": "isBusyWorker",
      "outputs": [
        {
          "internalType": "bool",
          "name": "",
          "type": "bool"
        }
      ],
      "stateMutability": "view",
      "type": "function"
    },
    {
      "inputs": [
        {
          "internalType": "uint256",
          "name": "_terminationDate",
          "type": "uint256"
        }
      ],
      "name": "isExpired",
      "outputs": [
        {
          "internalType": "bool",
          "name": "expired",
          "type": "bool"
        }
      ],
      "stateMutability": "view",
      "type": "function"
    },
    {
      "inputs": [
        {
          "internalType": "address",
          "name": "_worker",
          "type": "address"
        }
      ],
      "name": "isInAvailableWorkers",
      "outputs": [
        {
          "internalType": "bool",
          "name": "",
          "type": "bool"
        }
      ],
      "stateMutability": "view",
      "type": "function"
    },
    {
      "inputs": [
        {
          "internalType": "address",
          "name": "_worker",
          "type": "address"
        }
      ],
      "name": "isInBusyWorkers",
      "outputs": [
        {
          "internalType": "bool",
          "name": "",
          "type": "bool"
        }
      ],
      "stateMutability": "view",
      "type": "function"
    },
    {
      "inputs": [
        {
          "internalType": "uint256",
          "name": "_DataBatchId",
          "type": "uint256"
        }
      ],
      "name": "isPassed",
      "outputs": [
        {
          "internalType": "bool",
          "name": "passed",
          "type": "bool"
        }
      ],
      "stateMutability": "view",
      "type": "function"
    },
    {
      "inputs": [
        {
          "internalType": "address",
          "name": "",
          "type": "address"
        }
      ],
      "name": "isToUnregisterWorker",
      "outputs": [
        {
          "internalType": "bool",
          "name": "",
          "type": "bool"
        }
      ],
      "stateMutability": "view",
      "type": "function"
    },
    {
      "inputs": [
        {
          "internalType": "uint256",
          "name": "_DataBatchId",
          "type": "uint256"
        },
        {
          "internalType": "address",
          "name": "_worker",
          "type": "address"
        }
      ],
      "name": "isWorkerAllocatedToBatch",
      "outputs": [
        {
          "internalType": "bool",
          "name": "",
          "type": "bool"
        }
      ],
      "stateMutability": "view",
      "type": "function"
    },
    {
      "inputs": [
        {
          "internalType": "address",
          "name": "_worker",
          "type": "address"
        }
      ],
      "name": "isWorkerRegistered",
      "outputs": [
        {
          "internalType": "bool",
          "name": "passed",
          "type": "bool"
        }
      ],
      "stateMutability": "view",
      "type": "function"
    },
    {
      "inputs": [],
      "name": "owner",
      "outputs": [
        {
          "internalType": "address",
          "name": "",
          "type": "address"
        }
      ],
      "stateMutability": "view",
      "type": "function"
    },
    {
      "inputs": [
        {
          "internalType": "uint256",
          "name": "k",
          "type": "uint256"
        },
        {
          "internalType": "uint256",
          "name": "N",
          "type": "uint256"
        }
      ],
      "name": "random_selection",
      "outputs": [
        {
          "internalType": "uint256[]",
          "name": "",
          "type": "uint256[]"
        }
      ],
      "stateMutability": "view",
      "type": "function"
    },
    {
      "inputs": [
        {
          "internalType": "uint256",
          "name": "_DataBatchId",
          "type": "uint256"
        }
      ],
      "name": "remainingCommitDuration",
      "outputs": [
        {
          "internalType": "uint256",
          "name": "remainingTime",
          "type": "uint256"
        }
      ],
      "stateMutability": "view",
      "type": "function"
    },
    {
      "inputs": [
        {
          "internalType": "uint256",
          "name": "_DataBatchId",
          "type": "uint256"
        }
      ],
      "name": "remainingRevealDuration",
      "outputs": [
        {
          "internalType": "uint256",
          "name": "remainingTime",
          "type": "uint256"
        }
      ],
      "stateMutability": "view",
      "type": "function"
    },
    {
      "inputs": [],
      "name": "renounceOwnership",
      "outputs": [],
      "stateMutability": "nonpayable",
      "type": "function"
    },
    {
      "inputs": [
        {
          "internalType": "uint256",
          "name": "_DataBatchId",
          "type": "uint256"
        }
      ],
      "name": "rescueTokens",
      "outputs": [],
      "stateMutability": "nonpayable",
      "type": "function"
    },
    {
      "inputs": [
        {
          "internalType": "uint256[]",
          "name": "_DataBatchIDs",
          "type": "uint256[]"
        }
      ],
      "name": "rescueTokensInMultipleDatas",
      "outputs": [],
      "stateMutability": "nonpayable",
      "type": "function"
    },
    {
      "inputs": [
        {
          "internalType": "uint256",
          "name": "_DataBatchId",
          "type": "uint256"
        }
      ],
      "name": "revealPeriodActive",
      "outputs": [
        {
          "internalType": "bool",
          "name": "active",
          "type": "bool"
        }
      ],
      "stateMutability": "view",
      "type": "function"
    },
    {
      "inputs": [
        {
          "internalType": "uint256",
          "name": "_DataBatchId",
          "type": "uint256"
        }
      ],
      "name": "revealPeriodOver",
      "outputs": [
        {
          "internalType": "bool",
          "name": "active",
          "type": "bool"
        }
      ],
      "stateMutability": "view",
      "type": "function"
    },
    {
      "inputs": [
        {
          "internalType": "uint256",
          "name": "_DataBatchId",
          "type": "uint256"
        },
        {
          "internalType": "string",
          "name": "_clearIPFSHash",
          "type": "string"
        },
        {
          "internalType": "uint256",
          "name": "_clearVote",
          "type": "uint256"
        },
        {
          "internalType": "uint256",
          "name": "_salt",
          "type": "uint256"
        }
      ],
      "name": "revealSpotCheck",
      "outputs": [],
      "stateMutability": "nonpayable",
      "type": "function"
    },
    {
      "inputs": [
        {
          "internalType": "uint256",
          "name": "",
          "type": "uint256"
        }
      ],
      "name": "toUnregisterWorkers",
      "outputs": [
        {
          "internalType": "address",
          "name": "",
          "type": "address"
        }
      ],
      "stateMutability": "view",
      "type": "function"
    },
    {
      "inputs": [
        {
          "internalType": "address",
          "name": "",
          "type": "address"
        }
      ],
      "name": "toUnregisterWorkersIndex",
      "outputs": [
        {
          "internalType": "uint256",
          "name": "",
          "type": "uint256"
        }
      ],
      "stateMutability": "view",
      "type": "function"
    },
    {
      "inputs": [
        {
          "internalType": "bool",
          "name": "toggle_",
          "type": "bool"
        }
      ],
      "name": "toggleForceValidateBatchFile",
      "outputs": [],
      "stateMutability": "nonpayable",
      "type": "function"
    },
    {
      "inputs": [
        {
          "internalType": "bool",
          "name": "toggle_",
          "type": "bool"
        }
      ],
      "name": "toggleRequiredStaking",
      "outputs": [],
      "stateMutability": "nonpayable",
      "type": "function"
    },
    {
      "inputs": [
        {
          "internalType": "bool",
          "name": "toggle_",
          "type": "bool"
        }
      ],
      "name": "toggleStrictRandomness",
      "outputs": [],
      "stateMutability": "nonpayable",
      "type": "function"
    },
    {
      "inputs": [
        {
          "internalType": "bool",
          "name": "toggle_",
          "type": "bool"
        }
      ],
      "name": "toggleTriggerSpotData",
      "outputs": [],
      "stateMutability": "nonpayable",
      "type": "function"
    },
    {
      "inputs": [
        {
          "internalType": "bool",
          "name": "toggle_",
          "type": "bool"
        }
      ],
      "name": "toggleValidateLastReveal",
      "outputs": [],
      "stateMutability": "nonpayable",
      "type": "function"
    },
    {
      "inputs": [],
      "name": "token",
      "outputs": [
        {
          "internalType": "contract IERC20",
          "name": "",
          "type": "address"
        }
      ],
      "stateMutability": "view",
      "type": "function"
    },
    {
      "inputs": [
        {
          "internalType": "address",
          "name": "newOwner",
          "type": "address"
        }
      ],
      "name": "transferOwnership",
      "outputs": [],
      "stateMutability": "nonpayable",
      "type": "function"
    },
    {
      "inputs": [
        {
          "internalType": "uint256",
          "name": "new_limit_",
          "type": "uint256"
        }
      ],
      "name": "updateGasLeftLimit",
      "outputs": [],
      "stateMutability": "nonpayable",
      "type": "function"
    },
    {
      "inputs": [],
      "name": "updateGlobalSpotFlow",
      "outputs": [],
      "stateMutability": "nonpayable",
      "type": "function"
    },
    {
      "inputs": [
        {
          "internalType": "bool",
          "name": "state_",
          "type": "bool"
        },
        {
          "internalType": "uint256",
          "name": "divider_",
          "type": "uint256"
        }
      ],
      "name": "updateInstantRevealRewards",
      "outputs": [],
      "stateMutability": "nonpayable",
      "type": "function"
    },
    {
      "inputs": [
        {
          "internalType": "bool",
          "name": "state_",
          "type": "bool"
        },
        {
          "internalType": "uint256",
          "name": "divider_",
          "type": "uint256"
        }
      ],
      "name": "updateInstantSpotRewards",
      "outputs": [],
      "stateMutability": "nonpayable",
      "type": "function"
    },
    {
      "inputs": [],
      "name": "updateItemCount",
      "outputs": [],
      "stateMutability": "nonpayable",
      "type": "function"
    },
    {
      "inputs": [
        {
          "internalType": "uint256",
          "name": "MaxPendingDataBatchCount_",
          "type": "uint256"
        }
      ],
      "name": "updateMaxPendingDataBatch",
      "outputs": [],
      "stateMutability": "nonpayable",
      "type": "function"
    },
    {
      "inputs": [
        {
          "internalType": "address",
          "name": "addr",
          "type": "address"
        }
      ],
      "name": "updateParametersManager",
      "outputs": [],
      "stateMutability": "nonpayable",
      "type": "function"
    },
    {
      "inputs": [
        {
          "internalType": "uint256",
          "name": "file_size_",
          "type": "uint256"
        }
      ],
      "name": "updateSpotFileSize",
      "outputs": [],
      "stateMutability": "nonpayable",
      "type": "function"
    },
    {
      "inputs": [
        {
          "internalType": "address",
          "name": "user_",
          "type": "address"
        }
      ],
      "name": "updateUserSpotFlow",
      "outputs": [],
      "stateMutability": "nonpayable",
      "type": "function"
    },
    {
      "inputs": [
        {
          "internalType": "uint256",
          "name": "_prevID",
          "type": "uint256"
        },
        {
          "internalType": "uint256",
          "name": "_nextID",
          "type": "uint256"
        },
        {
          "internalType": "address",
          "name": "_voter",
          "type": "address"
        },
        {
          "internalType": "uint256",
          "name": "_numTokens",
          "type": "uint256"
        }
      ],
      "name": "validPosition",
      "outputs": [
        {
          "internalType": "bool",
          "name": "APPROVED",
          "type": "bool"
        }
      ],
      "stateMutability": "view",
      "type": "function"
    },
    {
      "inputs": [
        {
          "internalType": "uint256",
          "name": "_numTokens",
          "type": "uint256"
        },
        {
          "internalType": "address",
          "name": "user_",
          "type": "address"
        }
      ],
      "name": "withdrawVotingRights",
      "outputs": [],
      "stateMutability": "nonpayable",
      "type": "function"
    }
  ],
  "bytecode": "0x6080604052600060018181556056829055605782905560588190556059819055605a819055605b819055605c829055605d829055605e829055605f82905560608290556061919091556062805461ff001960ff19909116909217919091166101001790556005606355600260649081556103e8606555606655620f42406067556068805460ff60201b1963ffffffff19909116630100000017166401000000001790556402540be3ff606a55348015620000b857600080fd5b506040516200cf0b3803806200cf0b833981016040819052620000db9162000189565b620000ef620000e962000135565b62000139565b6001600160a01b0381166200010357600080fd5b606880546001600160a01b039092166501000000000002600160281b600160c81b0319909216919091179055620001b9565b3390565b600080546001600160a01b038381166001600160a01b0319831681178455604051919092169283917f8be0079c531659141344cd1fd0a4f28419497f9722a3daafe3b4186f6b6457e09190a35050565b6000602082840312156200019b578081fd5b81516001600160a01b0381168114620001b2578182fd5b9392505050565b61cd4280620001c96000396000f3fe608060405234801561001057600080fd5b50600436106108775760003560e01c8063821aa8c011610458578063bda1e6091161024c578063e604c12711610146578063f716596d116100ce578063facd741711610092578063facd7417146111ed578063fc0c546a14611200578063fca4956314611208578063fd4148811461121b578063ff43de9d1461122e57610877565b8063f716596d146111af578063f721de4a146111b7578063f7c544fe146111ca578063f80a23fd146111dd578063f96305f0146111e557610877565b8063ef4fcdad11610115578063ef4fcdad14611171578063f2d9e74d14611179578063f2fde38b14611181578063f4cdfcc414611194578063f5ae7c7d146111a757610877565b8063e604c12714611130578063e798a7da14611143578063eb1322ff14611156578063ed8becfa1461115e57610877565b8063d186981d116101d4578063d8b7567411610198578063d8b75674146110da578063d9548e53146110ed578063d9845fb814611100578063e23fcd1a14611120578063e59d02891461112857610877565b8063d186981d14611091578063d420ec0b146110a4578063d58f575c146110b7578063d6b0206c146110bf578063d817587e146110c757610877565b8063cb2793891161021b578063cb27938914611053578063cdf46a781461105b578063cf78c54a14611063578063d0d41def14611076578063d13820921461107e57610877565b8063bda1e60914611012578063c46f17d014611025578063c4e4f82a1461102d578063c6b650631461104057610877565b80639fc9c52f1161035d578063aa7ca464116102e5578063b1cf4a7e116102a9578063b1cf4a7e14610fbe578063b1d7ea9814610fd1578063b2850d7714610fe4578063b43bd06914610fec578063b8f011b314610fff57610877565b8063aa7ca46414610f6a578063aacc5a1714610f7d578063b0bc471e14610f85578063b10aa58414610f98578063b1a2e0be14610fab57610877565b8063a4439dc51161032c578063a4439dc514610f16578063a511dba014610f29578063a7ba29d114610f31578063a905779014610f44578063a98eb31e14610f5757610877565b80639fc9c52f14610ee0578063a1103f3714610ef3578063a1b6b5b714610f06578063a350715a14610f0e57610877565b80638c89d027116103e057806397603560116103af5780639760356014610e8c5780639769d84614610e9f5780639a1cbfd314610ea75780639d6e3f9614610eba5780639e05cbc214610ecd57610877565b80638c89d02714610e365780638ccb7eec14610e5e5780638da5cb5b14610e715780638df0296e14610e7957610877565b80638480a221116104275780638480a22114610de25780638746ff8a14610dea57806388d072eb14610dfd5780638a1479c814610e105780638bf8a33814610e2357610877565b8063821aa8c014610da15780638356443a14610db457806383e5a8f614610dc75780638473850b14610dda57610877565b8063494031831161066f5780636371d81f116105745780637860dd41116104fc5780637f9510a2116104c05780637f9510a214610d3e5780637f97e83614610d465780637fabe35b14610d59578063815ce74714610d86578063819b029314610d8e57610877565b80637860dd4114610cdf5780637a30332214610cf25780637ad3be1114610d055780637ae3d59b14610d185780637e97561b14610d2b57610877565b80637074222b116105435780637074222b14610ca1578063715018a614610cb457806371880b1b14610cbc57806375b7536c14610ccf578063763a39f214610cd757610877565b80636371d81f14610c5557806363b563a814610c685780636b2d95d414610c7b5780637018e9c614610c8e57610877565b8063576a5543116105f75780635a452943116105c65780635a45294314610bf45780635b113a5514610c145780635dc44cf114610c275780635df6055d14610c3a578063607d5efa14610c4d57610877565b8063576a554314610ba8578063579db71c14610bbb57806359da7baf14610bce57806359fcf77614610be157610877565b80634fe8b4c11161063e5780634fe8b4c114610b6a5780634ffd734314610b7d578063515535e814610b85578063538e498c14610b8d57806353bf27f114610ba057610877565b80634940318314610b1b5780634a2b979f14610b2e5780634a45cd8414610b365780634bad8d2414610b4957610877565b80632d917c68116107805780633de4b29311610708578063441c77c0116106cc578063441c77c014610add57806345feae8914610af057806347fe2d2014610af85780634852e2f014610b0057806348cbd8f814610b0857610877565b80633de4b29314610a945780633f7e62f314610a9c578063413b90f714610aa4578063427fa1d214610ab757806342e1e07114610aca57610877565b80633538af821161074f5780633538af8214610a2557806339e7357c14610a455780633aed0be514610a4d5780633c062cc814610a605780633cab7fcb14610a8157610877565b80632d917c68146109d75780632eaff499146109ea5780632f469fd1146109f257806331e2f28514610a1257610877565b80631336daec1161080357806319d90346116107d257806319d9034614610981578063226ed300146109a1578063275c2590146109b4578063289bd482146109bc5780632c052031146109c457610877565b80631336daec1461094b578063154fd39b1461095e578063168231071461096657806316860ec51461097957610877565b806307c037011161084a57806307c03701146108ed578063086eafa314610900578063092a5cce146109155780630b96c5b01461091d5780630e6661a71461094357610877565b806301a48b981461087c57806301aa5f73146108a557806305957623146108c557806306ec9676146108da575b600080fd5b61088f61088a36600461b521565b611236565b60405161089c919061b81a565b60405180910390f35b6108b86108b336600461b521565b6113d3565b60405161089c919061b74d565b6108d86108d336600461b22b565b611430565b005b6108d86108e836600461b428565b61145a565b6108d86108fb36600461b521565b611480565b61090861148d565b60405161089c919061b82d565b6108d861149b565b61093061092b36600461b521565b6114b6565b60405161089c979695949392919061b84b565b6108b861169a565b6108d861095936600461b3f0565b6116a0565b6108b86116c4565b6108d861097436600461b521565b6116ca565b6108d86117d3565b61099461098f36600461b521565b6119ae565b60405161089c919061b7ba565b6109086109af36600461b521565b611cc9565b6108d8611d0b565b6108b8611e8c565b6108b86109d236600461b28e565b611ee8565b6109086109e536600461b263565b612085565b6109086120a5565b610a05610a0036600461b54a565b6120b3565b60405161089c919061b838565b6108b8610a2036600461b22b565b612158565b610a38610a3336600461b521565b61216a565b60405161089c919061b7a6565b6108b8612194565b610908610a5b36600461b22b565b6121b1565b610a73610a6e36600461b521565b6121cf565b60405161089c92919061b798565b6108b8610a8f36600461b2c2565b6121f1565b6108b861332f565b6108b8613335565b610a73610ab236600461b263565b61333b565b6108b8610ac536600461b22b565b61336b565b610994610ad836600461b621565b61340b565b610908610aeb36600461b521565b613586565b6109086135e0565b6108b86135e9565b6108b86135ef565b6108d8610b1636600461b54a565b6135f5565b610908610b2936600461b521565b613805565b6108b8613a51565b610908610b4436600461b22b565b613a57565b610b5c610b5736600461b621565b613a75565b60405161089c92919061ca01565b6108d8610b7836600461b521565b613d24565b610908613d92565b6108b8613da3565b6108b8610b9b36600461b22b565b613da9565b6108b8613dbb565b6108d8610bb636600461b22b565b613dc1565b61088f610bc936600461b22b565b613fb0565b610a73610bdc36600461b521565b61401c565b6108b8610bef36600461b22b565b61402c565b610c07610c0236600461b521565b61403e565b60405161089c919061c930565b6108b8610c2236600461b54a565b614293565b6108b8610c3536600461b263565b6142b0565b610994610c4836600461b521565b6142e1565b6108d86144fe565b6108d8610c6336600461b521565b6146cf565b610908610c7636600461b521565b61474b565b6108b8610c8936600461b22b565b61479e565b610908610c9c36600461b521565b6147ad565b6108b8610caf36600461b22b565b6147ee565b6108d8614809565b6108b8610cca36600461b521565b61481d565b6108b861485a565b6108b8614860565b6108b8610ced36600461b521565b614866565b6108d8610d0036600461b521565b6148ba565b6108b8610d1336600461b263565b61491d565b6108d8610d2636600461b3f0565b614954565b6108d8610d3936600461b521565b61497a565b6108b8614987565b610908610d5436600461b263565b61499e565b610d6c610d6736600461b521565b6149f1565b60405161089c9e9d9c9b9a9998979695949392919061ca6f565b6108b8614af1565b610908610d9c36600461b642565b614b47565b610a38610daf36600461b521565b614b88565b6108d8610dc236600461b3f0565b614b98565b6108d8610dd536600461b579565b614bc0565b6108b8615199565b6108b861519f565b610a38610df836600461b263565b6151a5565b610a05610e0b36600461b54a565b615619565b610908610e1e36600461b22b565b61563d565b6108b8610e3136600461b445565b615652565b610e49610e4436600461b22b565b615695565b60405161089c9998979695949392919061ca30565b610908610e6c36600461b22b565b6156e0565b610a386156fe565b610a38610e8736600461b621565b61570d565b6108d8610e9a36600461b521565b615745565b6108b86158fc565b6108d8610eb536600461b3f0565b615902565b6108b8610ec836600461b22b565b615924565b6108d8610edb36600461b521565b61598f565b6108d8610eee36600461b3be565b615b0f565b6108b8610f0136600461b263565b615b5d565b6108b8615b90565b6108b8615b96565b610908610f2436600461b521565b615b9c565b6108b8615bfe565b610908610f3f36600461b22b565b615c04565b610908610f5236600461b489565b615c19565b6108d8610f6536600461b5cd565b615c7f565b610908610f7836600461b263565b616416565b6108b8616469565b6108b8610f9336600461b263565b61651e565b610a38610fa636600461b521565b616555565b610908610fb936600461b22b565b616565565b6108b8610fcc36600461b621565b616632565b61088f610fdf36600461b621565b616647565b61090861698c565b6108b8610ffa36600461b28e565b61699b565b61088f61100d36600461b621565b616a87565b6108d861102036600461b3f0565b616ad6565b6108b8616af1565b6108b861103b36600461b521565b616af7565b61090861104e36600461b22b565b616b34565b6108b8616b49565b610908616b4f565b6108b861107136600461b22b565b616b5f565b6108b8616b71565b6108b861108c36600461b263565b616b77565b61090861109f36600461b54a565b616bad565b6109086110b236600461b263565b616c88565b6108b8616ca8565b6108b8616cae565b6109946110d536600461b521565b616cb4565b6108b86110e836600461b54a565b616ed1565b6109086110fb36600461b521565b616eeb565b61111361110e36600461b521565b616ef0565b60405161089c919061c83e565b6108b8617074565b61090861707a565b610a0561113e36600461b521565b617083565b61090861115136600461b22b565b61712e565b6108b861714f565b61099461116c36600461b521565b617155565b6108b8617464565b6108b861746a565b6108d861118f36600461b22b565b617470565b6108b86111a236600461b4df565b6174a7565b6108b86174bc565b6108d86174c2565b6109086111c536600461b521565b6178d5565b6108d86111d836600461b428565b6178dd565b6109086178fc565b6108b8617915565b6108d86111fb36600461b521565b61791b565b610a38617928565b6108b861121636600461b22b565b617940565b61099461122936600461b621565b6179f4565b610a38617f06565b6060611241826178d5565b6112665760405162461bcd60e51b815260040161125d9061c56c565b60405180910390fd5b6000828152604c60209081526040808320805482518185028101850190935280835291929091908301828280156112c657602002820191906000526020600020905b81546001600160a01b031681526001909101906020018083116112a8575b50505050509050600081516001600160401b038111156112f657634e487b7160e01b600052604160045260246000fd5b60405190808252806020026020018201604052801561131f578160200160208202803683370190505b50905060005b82518110156113c95760406000868152602001908152602001600020600084838151811061136357634e487b7160e01b600052603260045260246000fd5b60200260200101516001600160a01b03166001600160a01b03168152602001908152602001600020548282815181106113ac57634e487b7160e01b600052603260045260246000fd5b6020908102919091010152806113c18161cc58565b915050611325565b509150505b919050565b60006113de826178d5565b6113fa5760405162461bcd60e51b815260040161125d9061c56c565b600061140583613586565b1561142a5760008381526048602052604090206006015461142790429061cbda565b90505b92915050565b611438617f15565b606980546001600160a01b0319166001600160a01b0392909216919091179055565b611462617f15565b606280549215156101000261ff001990931692909217909155606455565b611488617f15565b606655565b606854610100900460ff1681565b6114a3617f15565b6114ab6156fe565b6001600160a01b0316ff5b6047602052600090815260409020805481906114d19061cc1d565b80601f01602080910402602001604051908101604052809291908181526020018280546114fd9061cc1d565b801561154a5780601f1061151f5761010080835404028352916020019161154a565b820191906000526020600020905b81548152906001019060200180831161152d57829003601f168201915b50505060018401546002850154600386015460048701805496976001600160a01b0390941696929550909350906115809061cc1d565b80601f01602080910402602001604051908101604052809291908181526020018280546115ac9061cc1d565b80156115f95780601f106115ce576101008083540402835291602001916115f9565b820191906000526020600020905b8154815290600101906020018083116115dc57829003601f168201915b50505050509080600501805461160e9061cc1d565b80601f016020809104026020016040519081016040528092919081815260200182805461163a9061cc1d565b80156116875780601f1061165c57610100808354040283529160200191611687565b820191906000526020600020905b81548152906001019060200180831161166a57829003601f168201915b5050506006909301549192505060ff1687565b60575481565b6116a8617f15565b60688054911515620100000262ff000019909216919091179055565b605b5490565b6069546001600160a01b03166116f25760405162461bcd60e51b815260040161125d9061b931565b605a5460005b828110156117ce576067545a101561170f576117ce565b600061171b828461cb8f565b60008181526048602052604090206004015490915062010000900460ff1615156001148015611768575061174e81611cc9565b806117685750600081815260486020526040902060030154155b156117bb57600081815260486020526040902060040154610100900460ff166117bb5761179481617f54565b605a546117a290600161cb8f565b8114156117bb57605a546117b7906001619b3b565b605a555b50806117c68161cc58565b9150506116f8565b505050565b6069546001600160a01b03166117fb5760405162461bcd60e51b815260040161125d9061b931565b60006118096001600f61cbda565b90506000602082600f811061182e57634e487b7160e01b600052603260045260246000fd5b6002020154606954604080516307bc663b60e11b815290519293506001600160a01b0390911691630f78cc7691600480820192602092909190829003018186803b15801561187b57600080fd5b505afa15801561188f573d6000803e3d6000fd5b505050506040513d601f19601f820116820180604052508101906118b3919061b539565b6118bd824261cbda565b11156119aa5760005b6118d26001600f61cbda565b8110156119535760206118e682600161cb8f565b600f811061190457634e487b7160e01b600052603260045260246000fd5b60020201602082600f811061192957634e487b7160e01b600052603260045260246000fd5b8254600291909102919091019081556001918201549101558061194b8161cc58565b9150506118c6565b5042602083600f811061197657634e487b7160e01b600052603260045260246000fd5b60020201556000602083600f811061199e57634e487b7160e01b600052603260045260246000fd5b60020201600101819055505b5050565b60606119b9826178d5565b6119d55760405162461bcd60e51b815260040161125d9061c56c565b600082815260486020908152604080832081516101c0810183528154815260018201549381019390935260028101549183019190915260038101546060830152600481015460ff808216151560808501526101008083048216151560a08601526201000090920416151560c0840152600582015460e08401526006820154908301526007810154610120830152600881015461014083015260098101805461016084019190611a839061cc1d565b80601f0160208091040260200160405190810160405280929190818152602001828054611aaf9061cc1d565b8015611afc5780601f10611ad157610100808354040283529160200191611afc565b820191906000526020600020905b815481529060010190602001808311611adf57829003601f168201915b5050509183525050600a8201546020820152600b82015460409091019060ff166003811115611b3b57634e487b7160e01b600052602160045260246000fd5b6003811115611b5a57634e487b7160e01b600052602160045260246000fd5b90525060208101519091506000816001600160401b03811115611b8d57634e487b7160e01b600052604160045260246000fd5b604051908082528060200260200182016040528015611bc057816020015b6060815260200190600190039081611bab5790505b50905060005b82811015611cc0578351600090611bde90839061cb8f565b600081815260476020526040812060040180549293509091611bff9061cc1d565b80601f0160208091040260200160405190810160405280929190818152602001828054611c2b9061cc1d565b8015611c785780601f10611c4d57610100808354040283529160200191611c78565b820191906000526020600020905b815481529060010190602001808311611c5b57829003601f168201915b5050505050905080848481518110611ca057634e487b7160e01b600052603260045260246000fd5b602002602001018190525050508080611cb89061cc58565b915050611bc6565b50949350505050565b6000611cd4826178d5565b611cf05760405162461bcd60e51b815260040161125d9061c77b565b60008281526048602052604090206006015461142a90616eeb565b336000908152604960205260409020600381015460ff161515600114611d435760405162461bcd60e51b815260040161125d9061c1b3565b805415801590611d5d57506003810154610100900460ff16155b8015611d6f5750611d6d336121b1565b155b15611de05760038101805461ff001916610100179055604f805460018181019092557fa2e8f972dc9f7d0b76177bb8be102e6bec069ee42c61080745e8825470e80c6c0180546001600160a01b031916339081179091556000908152605260205260409020805460ff191690911790555b8054611e6857611def33619b47565b611df833619c9d565b611e0133619dcc565b42600282018190553360008181526052602052604090819020805460ff1990811690915560038501805490911690555190917f9dadcedba048e92b943ea1c5861cee1df63a566d7f795869c004780c1c698e2b91611e5f919061b74d565b60405180910390a25b6001605c6000828254611e7b919061cb8f565b90915550611e899050619efb565b50565b600080805b600f811015611ee257602081600f8110611ebb57634e487b7160e01b600052603260045260246000fd5b600202016001015482611ece919061cb8f565b915080611eda8161cc58565b915050611e91565b50905090565b600080611ef48561336b565b90506000611f028683616b77565b90505b811561207a57611f158683616b77565b9050848111611fd25783821415611fca576001600160a01b0386166000908152604560205260409081902090516301c39b2b60e11b815273__$85afbab79b2b776d70bef879a32ed56424$__91630387365691611f779190869060040161b798565b60206040518083038186803b158015611f8f57600080fd5b505af4158015611fa3573d6000803e3d6000fd5b505050506040513d601f19601f82011682018060405250810190611fc7919061b539565b91505b50905061207e565b6001600160a01b0386166000908152604560205260409081902090516301c39b2b60e11b815273__$85afbab79b2b776d70bef879a32ed56424$__916303873656916120239190869060040161b798565b60206040518083038186803b15801561203b57600080fd5b505af415801561204f573d6000803e3d6000fd5b505050506040513d601f19601f82011682018060405250810190612073919061b539565b9150611f05565b5090505b9392505050565b603e60209081526000928352604080842090915290825290205460ff1681565b606254610100900460ff1681565b6041602090815260009283526040808420909152908252902080546120d79061cc1d565b80601f01602080910402602001604051908101604052809291908181526020018280546121039061cc1d565b80156121505780601f1061212557610100808354040283529160200191612150565b820191906000526020600020905b81548152906001019060200180831161213357829003601f168201915b505050505081565b604b6020526000908152604090205481565b604d818154811061217a57600080fd5b6000918252602090912001546001600160a01b0316905081565b60405160009080602081848060185afa6121aa57fe5b5051919050565b6001600160a01b031660009081526052602052604090205460ff1690565b600281600f81106121df57600080fd5b60020201805460019091015490915082565b6069546000906001600160a01b031661221c5760405162461bcd60e51b815260040161125d9061b931565b606960009054906101000a90046001600160a01b03166001600160a01b0316634e87c5a86040518163ffffffff1660e01b815260040160206040518083038186803b15801561226a57600080fd5b505afa15801561227e573d6000803e3d6000fd5b505050506040513d601f19601f820116820180604052508101906122a2919061b40c565b6122be5760405162461bcd60e51b815260040161125d9061bf31565b855184146122de5760405162461bcd60e51b815260040161125d9061c525565b82518651146122ff5760405162461bcd60e51b815260040161125d9061ba4d565b6123076144fe565b606960009054906101000a90046001600160a01b03166001600160a01b031663b38e885e6040518163ffffffff1660e01b815260040160206040518083038186803b15801561235557600080fd5b505afa158015612369573d6000803e3d6000fd5b505050506040513d601f19601f8201168201806040525081019061238d919061b539565b612395614af1565b106123b25760405162461bcd60e51b815260040161125d9061bfb2565b606954604080516001624ee91360e11b0319815290516000926001600160a01b03169163ff622dda916004808301926020929190829003018186803b1580156123fa57600080fd5b505afa15801561240e573d6000803e3d6000fd5b505050506040513d601f19601f82011682018060405250810190612432919061b539565b9050600061244033836151a5565b905061244b81613dc1565b606960009054906101000a90046001600160a01b03166001600160a01b031663be2509886040518163ffffffff1660e01b815260040160206040518083038186803b15801561249957600080fd5b505afa1580156124ad573d6000803e3d6000fd5b505050506040513d601f19601f820116820180604052508101906124d1919061b539565b6124da82615924565b1080156125725750606960009054906101000a90046001600160a01b03166001600160a01b031663b38e885e6040518163ffffffff1660e01b815260040160206040518083038186803b15801561253057600080fd5b505afa158015612544573d6000803e3d6000fd5b505050506040513d601f19601f82011682018060405250810190612568919061b539565b612570614af1565b105b801561258f5750606554605b5460595461258c919061cbda565b11155b156132ea5760685460ff16156125f1576001600160a01b0381166000908152604b60205260409020548211156125f1576001600160a01b0381166000908152604b60205260408120546125e390849061a1d4565b90506125ef818361a1e0565b505b60005b88518110156132e857600089828151811061261f57634e487b7160e01b600052603260045260246000fd5b60200260200101519050600089898481811061264b57634e487b7160e01b600052603260045260246000fd5b905060200281019061265d919061caff565b8080601f01602080910402602001604051908101604052809392919081815260200183838082843760009201829052508c51949550938c9350879250821090506126b757634e487b7160e01b600052603260045260246000fd5b60209081029190910181015133600081815260448452604080822060578054825460018101845592855287852090920191909155815160e081018352898152808701949094524284830152606084018590526080840188905260a084018e905260c08401839052548252604785529020815180519395509193909261273f928492019061af33565b506020828101516001830180546001600160a01b0319166001600160a01b03909216919091179055604083015160028301556060830151600383015560808301518051612792926004850192019061af33565b5060a082015180516127ae91600584019160209091019061af33565b5060c082015160068201805460ff191660018360038111156127e057634e487b7160e01b600052602160045260246000fd5b0217905550506059546000908152604860209081526040918290206069548351634e8f956d60e11b815293519194506001600160a01b031692639d1f2ada926004808301939192829003018186803b15801561283b57600080fd5b505afa15801561284f573d6000803e3d6000fd5b505050506040513d601f19601f82011682018060405250810190612873919061b539565b81600101541015612899576001816001016000828254612893919061cb8f565b90915550505b606960009054906101000a90046001600160a01b03166001600160a01b0316639d1f2ada6040518163ffffffff1660e01b815260040160206040518083038186803b1580156128e757600080fd5b505afa1580156128fb573d6000803e3d6000fd5b505050506040513d601f19601f8201168201806040525081019061291f919061b539565b81600101541061296e57600481018054600160ff19909116811761ff0019169091556059805460009061295390849061cb8f565b90915550506057546059546000908152604860205260409020555b60575461297c90600161cb8f565b6057556001600261298e82600f61cbda565b600f81106129ac57634e487b7160e01b600052603260045260246000fd5b6002020160010160008282546129c2919061cb8f565b90915550506001600160a01b0386166000908152604a602052604090206001816129ed82600f61cbda565b600f8110612a0b57634e487b7160e01b600052603260045260246000fd5b600202016001016000828254612a21919061cb8f565b909155505060625460ff16151560011415612ed35760695460408051632a49798160e11b8152905133926000926001600160a01b0390911691635492f30291600480820192602092909190829003018186803b158015612a8057600080fd5b505afa158015612a94573d6000803e3d6000fd5b505050506040513d601f19601f82011682018060405250810190612ab8919061b247565b90506000606960009054906101000a90046001600160a01b03166001600160a01b0316630855d1516040518163ffffffff1660e01b815260040160206040518083038186803b158015612b0a57600080fd5b505afa158015612b1e573d6000803e3d6000fd5b505050506040513d601f19601f82011682018060405250810190612b42919061b247565b90506000606960009054906101000a90046001600160a01b03166001600160a01b03166304e76c8f6040518163ffffffff1660e01b815260040160206040518083038186803b158015612b9457600080fd5b505afa158015612ba8573d6000803e3d6000fd5b505050506040513d601f19601f82011682018060405250810190612bcc919061b247565b90506000836001600160a01b03166311815086866040518263ffffffff1660e01b8152600401612bfc919061b7a6565b60206040518083038186803b158015612c1457600080fd5b505afa158015612c28573d6000803e3d6000fd5b505050506040513d601f19601f82011682018060405250810190612c4c919061b247565b90506000606354606960009054906101000a90046001600160a01b03166001600160a01b03166330c0bb796040518163ffffffff1660e01b815260040160206040518083038186803b158015612ca157600080fd5b505afa158015612cb5573d6000803e3d6000fd5b505050506040513d601f19601f82011682018060405250810190612cd9919061b539565b612ce490606461cbbb565b612cee919061cba7565b90506000606354606960009054906101000a90046001600160a01b03166001600160a01b031663abb10b9b6040518163ffffffff1660e01b815260040160206040518083038186803b158015612d4357600080fd5b505afa158015612d57573d6000803e3d6000fd5b505050506040513d601f19601f82011682018060405250810190612d7b919061b539565b612d8690606461cbbb565b612d90919061cba7565b604051630db6cc8560e11b81529091506001600160a01b03861690631b6d990a90612dc1908490879060040161c9e3565b602060405180830381600087803b158015612ddb57600080fd5b505af1158015612def573d6000803e3d6000fd5b505050506040513d601f19601f82011682018060405250810190612e13919061b40c565b612e2f5760405162461bcd60e51b815260040161125d9061c0b0565b604051633832942560e21b81526001600160a01b0385169063e0ca509490612e5d908590879060040161c9cc565b602060405180830381600087803b158015612e7757600080fd5b505af1158015612e8b573d6000803e3d6000fd5b505050506040513d601f19601f82011682018060405250810190612eaf919061b40c565b612ecb5760405162461bcd60e51b815260040161125d9061c259565b505050505050505b606854610100900460ff161561328a57612eed60016148ba565b60695460408051637b39b17f60e11b815290516000926001600160a01b03169163f67362fe916004808301926020929190829003018186803b158015612f3257600080fd5b505afa158015612f46573d6000803e3d6000fd5b505050506040513d601f19601f82011682018060405250810190612f6a919061b247565b604051633d18199160e11b81529091506001600160a01b03821690637a30332290612f9a9060019060040161b74d565b600060405180830381600087803b158015612fb457600080fd5b505af1925050508015612fc5575060015b613020573d808015612ff3576040519150601f19603f3d011682016040523d82523d6000602084013e612ff8565b606091505b5060008051602061cced83398151915281604051613016919061b838565b60405180910390a1505b60695460408051637a0ec25b60e01b815290516000926001600160a01b031691637a0ec25b916004808301926020929190829003018186803b15801561306557600080fd5b505afa158015613079573d6000803e3d6000fd5b505050506040513d601f19601f8201168201806040525081019061309d919061b247565b604051633d18199160e11b81529091506001600160a01b03821690637a303322906130cd9060019060040161b74d565b600060405180830381600087803b1580156130e757600080fd5b505af19250505080156130f8575060015b613153573d808015613126576040519150601f19603f3d011682016040523d82523d6000602084013e61312b565b606091505b5060008051602061cced83398151915281604051613149919061b838565b60405180910390a1505b6069546040805163463444b760e01b815290516000926001600160a01b03169163463444b7916004808301926020929190829003018186803b15801561319857600080fd5b505afa1580156131ac573d6000803e3d6000fd5b505050506040513d601f19601f820116820180604052508101906131d0919061b247565b604051633d18199160e11b81529091506001600160a01b03821690637a303322906132009060019060040161b74d565b600060405180830381600087803b15801561321a57600080fd5b505af192505050801561322b575060015b613286573d808015613259576040519150601f19603f3d011682016040523d82523d6000602084013e61325e565b606091505b5060008051602061cced8339815191528160405161327c919061b838565b60405180910390a1505b5050505b866001600160a01b03166057547fb819ca9ac369919119f75ec7363dd954f75bcfa75f9245647e03da413be0d58287876040516132c892919061b8e1565b60405180910390a3505050505080806132e09061cc58565b9150506125f4565b505b336000908152604960205260409020426002820155613307619efb565b6001605c600082825461331a919061cb8f565b90915550506057549998505050505050505050565b605d5481565b60655481565b604a60205281600052604060002081600f811061335757600080fd5b600202018054600190910154909250905082565b6001600160a01b03811660009081526045602052604080822090516301c39b2b60e11b815273__$85afbab79b2b776d70bef879a32ed56424$__916303873656916133bb9190859060040161b798565b60206040518083038186803b1580156133d357600080fd5b505af41580156133e7573d6000803e3d6000fd5b505050506040513d601f19601f8201168201806040525081019061142a919061b539565b606060008311801561341c57508183105b6134385760405162461bcd60e51b815260040161125d9061bf7b565b6000613444848461cbda565b90506000816001600160401b0381111561346e57634e487b7160e01b600052604160045260246000fd5b6040519080825280602002602001820160405280156134a157816020015b606081526020019060019003908161348c5790505b509050845b84811015611cc057600081815260486020526040902060090180546134ca9061cc1d565b80601f01602080910402602001604051908101604052809291908181526020018280546134f69061cc1d565b80156135435780601f1061351857610100808354040283529160200191613543565b820191906000526020600020905b81548152906001019060200180831161352657829003601f168201915b505050505082828151811061356857634e487b7160e01b600052603260045260246000fd5b6020026020010181905250808061357e9061cc58565b9150506134a6565b6000613591826178d5565b6135ad5760405162461bcd60e51b815260040161125d9061c56c565b6000828152604860205260409020600601546135c890616eeb565b15801561142a57506135d982615b9c565b1592915050565b60625460ff1681565b605a5490565b60605481565b6069546001600160a01b031661361d5760405162461bcd60e51b815260040161125d9061b931565b600061364a61362b8361479e565b6001600160a01b0384166000908152604b60205260409020549061a1d4565b90508281101561366c5760405162461bcd60e51b815260040161125d9061c4a9565b6069546040805163ca64f9e760e01b815290516000926001600160a01b03169163ca64f9e7916004808301926020929190829003018186803b1580156136b157600080fd5b505afa1580156136c5573d6000803e3d6000fd5b505050506040513d601f19601f820116820180604052508101906136e9919061b247565b604051630895993360e11b81529091506001600160a01b0382169063112b32669061371a908790879060040161c9cc565b602060405180830381600087803b15801561373457600080fd5b505af1158015613748573d6000803e3d6000fd5b505050506040513d601f19601f8201168201806040525081019061376c919061b40c565b6137885760405162461bcd60e51b815260040161125d9061c6da565b6001600160a01b0383166000908152604b6020526040812080548692906137b090849061cbda565b909155506137be9050619efb565b826001600160a01b03167ffaeb7dbb9992397d26ea1944efd40c80b40f702faf69b46c67ad10aba68ccb79856040516137f7919061b74d565b60405180910390a250505050565b600081815260486020908152604080832081516101c0810183528154815260018201549381019390935260028101549183019190915260038101546060830152600481015460ff808216151560808501526101008083048216151560a08601526201000090920416151560c0840152600582015460e084015260068201549083015260078101546101208301526008810154610140830152600981018054849392916101608401916138b69061cc1d565b80601f01602080910402602001604051908101604052809291908181526020018280546138e29061cc1d565b801561392f5780601f106139045761010080835404028352916020019161392f565b820191906000526020600020905b81548152906001019060200180831161391257829003601f168201915b5050509183525050600a8201546020820152600b82015460409091019060ff16600381111561396e57634e487b7160e01b600052602160045260246000fd5b600381111561398d57634e487b7160e01b600052602160045260246000fd5b9052506101408101516101208201519192506139a89161cb8f565b606960009054906101000a90046001600160a01b03166001600160a01b031663ea19733c6040518163ffffffff1660e01b815260040160206040518083038186803b1580156139f657600080fd5b505afa158015613a0a573d6000803e3d6000fd5b505050506040513d601f19601f82011682018060405250810190613a2e919061b539565b613a38919061cbbb565b610120820151613a4990606461cbbb565b119392505050565b60675481565b6001600160a01b031660009081526051602052604090205460ff1690565b60006060600084118015613a8857508284105b613aa45760405162461bcd60e51b815260040161125d9061bf7b565b600080613ab1868661cbda565b613abc90600161cb8f565b90506000816001600160401b03811115613ae657634e487b7160e01b600052604160045260246000fd5b604051908082528060200260200182016040528015613b0f578160200160208202803683370190505b509050865b613b1f87600161cb8f565b811015613d0757600081815260486020908152604080832081516101c0810183528154815260018201549381019390935260028101549183019190915260038101546060830152600481015460ff808216151560808501526101008083048216151560a08601526201000090920416151560c0840152600582015460e08401526006820154908301526007810154610120830152600881015461014083015260098101805461016084019190613bd49061cc1d565b80601f0160208091040260200160405190810160405280929190818152602001828054613c009061cc1d565b8015613c4d5780601f10613c2257610100808354040283529160200191613c4d565b820191906000526020600020905b815481529060010190602001808311613c3057829003601f168201915b5050509183525050600a8201546020820152600b82015460409091019060ff166003811115613c8c57634e487b7160e01b600052602160045260246000fd5b6003811115613cab57634e487b7160e01b600052602160045260246000fd5b905250610180810151909150613cc1908661cb8f565b9450806101800151838381518110613ce957634e487b7160e01b600052603260045260246000fd5b60209081029190910101525080613cff8161cc58565b915050613b14565b506000613d14838561cba7565b95509093505050505b9250929050565b613d2c617f15565b600081815260476020526040812090613d45828261afb7565b6001820180546001600160a01b031916905560006002830181905560038301819055613d7590600484019061afb7565b613d8360058301600061afb7565b50600601805460ff1916905550565b606854640100000000900460ff1681565b60595490565b60536020526000908152604090205481565b604d5490565b6069546001600160a01b0316613de95760405162461bcd60e51b815260040161125d9061b931565b6001600160a01b0381166000908152604a6020526040812090613e0e6001600f61cbda565b905060008282600f8110613e3257634e487b7160e01b600052603260045260246000fd5b6002020154606954604080516307bc663b60e11b815290519293506001600160a01b0390911691630f78cc7691600480820192602092909190829003018186803b158015613e7f57600080fd5b505afa158015613e93573d6000803e3d6000fd5b505050506040513d601f19601f82011682018060405250810190613eb7919061b539565b613ec1824261cbda565b1115613faa5760005b613ed66001600f61cbda565b811015613f555783613ee982600161cb8f565b600f8110613f0757634e487b7160e01b600052603260045260246000fd5b600202018482600f8110613f2b57634e487b7160e01b600052603260045260246000fd5b82546002919091029190910190815560019182015491015580613f4d8161cc58565b915050613eca565b50428383600f8110613f7757634e487b7160e01b600052603260045260246000fd5b600202015560008383600f8110613f9e57634e487b7160e01b600052603260045260246000fd5b60020201600101819055505b50505050565b6001600160a01b03811660009081526044602090815260409182902080548351818402810184019094528084526060939283018282801561401057602002820191906000526020600020905b815481526020019060010190808311613ffc575b50505050509050919050565b602081600f81106121df57600080fd5b60546020526000908152604090205481565b61404661aff3565b60008281526047602052604090819020815160e0810190925280548290829061406e9061cc1d565b80601f016020809104026020016040519081016040528092919081815260200182805461409a9061cc1d565b80156140e75780601f106140bc576101008083540402835291602001916140e7565b820191906000526020600020905b8154815290600101906020018083116140ca57829003601f168201915b505050918352505060018201546001600160a01b03166020820152600282015460408201526003820154606082015260048201805460809092019161412b9061cc1d565b80601f01602080910402602001604051908101604052809291908181526020018280546141579061cc1d565b80156141a45780601f10614179576101008083540402835291602001916141a4565b820191906000526020600020905b81548152906001019060200180831161418757829003601f168201915b505050505081526020016005820180546141bd9061cc1d565b80601f01602080910402602001604051908101604052809291908181526020018280546141e99061cc1d565b80156142365780601f1061420b57610100808354040283529160200191614236565b820191906000526020600020905b81548152906001019060200180831161421957829003601f168201915b5050509183525050600682015460209091019060ff16600381111561426b57634e487b7160e01b600052602160045260246000fd5b600381111561428a57634e487b7160e01b600052602160045260246000fd5b90525092915050565b604260209081526000928352604080842090915290825290205481565b604460205281600052604060002081815481106142cc57600080fd5b90600052602060002001600091509150505481565b60606142ec826178d5565b6143085760405162461bcd60e51b815260040161125d9061c56c565b6000828152604c602090815260408083208054825181850281018501909352808352919290919083018282801561436857602002820191906000526020600020905b81546001600160a01b0316815260019091019060200180831161434a575b50505050509050600081516001600160401b0381111561439857634e487b7160e01b600052604160045260246000fd5b6040519080825280602002602001820160405280156143cb57816020015b60608152602001906001900390816143b65790505b50905060005b82518110156113c95760436000868152602001908152602001600020600084838151811061440f57634e487b7160e01b600052603260045260246000fd5b60200260200101516001600160a01b03166001600160a01b0316815260200190815260200160002080546144429061cc1d565b80601f016020809104026020016040519081016040528092919081815260200182805461446e9061cc1d565b80156144bb5780601f10614490576101008083540402835291602001916144bb565b820191906000526020600020905b81548152906001019060200180831161449e57829003601f168201915b50505050508282815181106144e057634e487b7160e01b600052603260045260246000fd5b602002602001018190525080806144f69061cc58565b9150506143d1565b6069546001600160a01b03166145265760405162461bcd60e51b815260040161125d9061b931565b60006145346001600f61cbda565b90506000600282600f811061455957634e487b7160e01b600052603260045260246000fd5b6002020154606954604080516307bc663b60e11b815290519293506001600160a01b0390911691630f78cc7691600480820192602092909190829003018186803b1580156145a657600080fd5b505afa1580156145ba573d6000803e3d6000fd5b505050506040513d601f19601f820116820180604052508101906145de919061b539565b6145e8824261cbda565b11156119aa5760005b6145fd6001600f61cbda565b81101561467e57600261461182600161cb8f565b600f811061462f57634e487b7160e01b600052603260045260246000fd5b60020201600282600f811061465457634e487b7160e01b600052603260045260246000fd5b825460029190910291909101908155600191820154910155806146768161cc58565b9150506145f1565b5042600283600f81106146a157634e487b7160e01b600052603260045260246000fd5b60020201600001819055506000600283600f811061199e57634e487b7160e01b600052603260045260246000fd5b6146d7617f15565b600081815260486020526040812081815560018101829055600281018290556003810182905560048101805462ffffff191690556005810182905560068101829055600781018290556008810182905590614735600983018261afb7565b506000600a820155600b01805460ff1916905550565b6000614756826178d5565b614762575060006113ce565b60008281526048602052604090206006015461477d90616eeb565b806147975750600082815260486020526040902060030154155b90506113ce565b600061142a8261108c8461336b565b60006147b8826178d5565b6147c4575060006113ce565b6000828152604860205260409020600501546147df90616eeb565b80614797575061479782613586565b6001600160a01b03166000908152604b602052604090205490565b614811617f15565b61481b600061a415565b565b6000614828826178d5565b6148445760405162461bcd60e51b815260040161125d9061c56c565b5060009081526048602052604090206006015490565b60665481565b604e5490565b6000614871826178d5565b61488d5760405162461bcd60e51b815260040161125d9061c56c565b600061489883615b9c565b1561142a5760008381526048602052604090206005015461142790429061cbda565b6069546001600160a01b03166148e25760405162461bcd60e51b815260040161125d9061b931565b6148ea6144fe565b6148f26117d3565b6148fa61a465565b614903816116ca565b61490c8161a628565b6149158161598f565b611e89619efb565b600061207e61492c8484615b5d565b6040518060400160405280600a8152602001690c6dedadad2e890c2e6d60b31b815250615652565b61495c617f15565b6068805491151563010000000263ff00000019909216919091179055565b614982617f15565b606555565b604e54604d546000916149999161cb8f565b905090565b60006149a9826178d5565b6149c55760405162461bcd60e51b815260040161125d9061c56c565b506001600160a01b03919091166000908152603e60209081526040808320938352929052205460ff1690565b604860205260009081526040902080546001820154600283015460038401546004850154600586015460068701546007880154600889015460098a018054999a98999798969760ff80881698610100890482169862010000900490911696959493929091614a5e9061cc1d565b80601f0160208091040260200160405190810160405280929190818152602001828054614a8a9061cc1d565b8015614ad75780601f10614aac57610100808354040283529160200191614ad7565b820191906000526020600020905b815481529060010190602001808311614aba57829003601f168201915b50505050600a830154600b9093015491929160ff1690508e565b600080805b600f811015611ee257600281600f8110614b2057634e487b7160e01b600052603260045260246000fd5b600202016001015482614b33919061cb8f565b915080614b3f8161cc58565b915050614af6565b600080614b548487616b77565b83101590506000614b658587616b77565b84111580614b71575085155b9050818015614b7d5750805b979650505050505050565b604e818154811061217a57600080fd5b614ba0617f15565b606880549115156401000000000264ff0000000019909216919091179055565b6069546001600160a01b0316614be85760405162461bcd60e51b815260040161125d9061b931565b614bf185615b9c565b614c0d5760405162461bcd60e51b815260040161125d9061b9fe565b336000908152603e6020908152604080832088845290915290205460ff1615614c485760405162461bcd60e51b815260040161125d9061c605565b614c528533616bad565b614c6e5760405162461bcd60e51b815260040161125d9061bca7565b60695460408051632a49798160e11b815290516000926001600160a01b031691635492f302916004808301926020929190829003018186803b158015614cb357600080fd5b505afa158015614cc7573d6000803e3d6000fd5b505050506040513d601f19601f82011682018060405250810190614ceb919061b247565b6001600160a01b03161415614d125760405162461bcd60e51b815260040161125d9061c737565b606954604080516001624ee91360e11b0319815290516000926001600160a01b03169163ff622dda916004808301926020929190829003018186803b158015614d5a57600080fd5b505afa158015614d6e573d6000803e3d6000fd5b505050506040513d601f19601f82011682018060405250810190614d92919061b539565b90506000614da033836151a5565b60685490915060ff1615614e00576001600160a01b0381166000908152604b6020526040902054821115614e00576001600160a01b0381166000908152604b6020526040812054614df290849061a1d4565b9050614dfe818361a1e0565b505b6000336000908152604560205260408082209051631e0f232560e31b815273__$85afbab79b2b776d70bef879a32ed56424$__9163f079192891614e499190869060040161b798565b60206040518083038186803b158015614e6157600080fd5b505af4158015614e75573d6000803e3d6000fd5b505050506040513d601f19601f82011682018060405250810190614e99919061b539565b905088811415614f3e5733600090815260456020526040908190209051631e0f232560e31b815273__$85afbab79b2b776d70bef879a32ed56424$__9163f079192891614eeb91908d9060040161b798565b60206040518083038186803b158015614f0357600080fd5b505af4158015614f17573d6000803e3d6000fd5b505050506040513d601f19601f82011682018060405250810190614f3b919061b539565b90505b614f4a82823387614b47565b614f665760405162461bcd60e51b815260040161125d9061c128565b3360009081526045602052604090819020905163524cfe5360e11b815273__$85afbab79b2b776d70bef879a32ed56424$__9163a499fca691614fb2919086908e90879060040161c915565b60006040518083038186803b158015614fca57600080fd5b505af4158015614fde573d6000803e3d6000fd5b505050506000614fee338b615b5d565b905061501c81604051806040016040528060098152602001686e756d546f6b656e7360b81b8152508761a741565b61504c816040518060400160405280600a8152602001690c6dedadad2e890c2e6d60b31b8152508b60001c61a741565b61507c816040518060400160405280600a815260200169636f6d6d6974566f746560b01b8152508a60001c61a741565b60008a8152604260209081526040808320338085529083528184208b90558d845260438352818420908452825290912087516150ba9289019061af33565b503360009081526049602090815260408083208d84526048909252909120600201546150e790600161a1d4565b60008c81526048602090815260408083206002908101949094554293850193909355338252603e81528282208e83529052908120805460ff19166001908117909155605c80549192909161513c90849061cb8f565b9091555061514a9050619efb565b336001600160a01b03168b7f42864d9683ff5b12c3b2cc65d705af5aab104b03bc700b802f79e5c971ef08a188604051615184919061b74d565b60405180910390a35050505050505050505050565b60595481565b60565481565b6069546000906001600160a01b03166151d05760405162461bcd60e51b815260040161125d9061b931565b60695460408051632a49798160e11b815290516000926001600160a01b031691635492f302916004808301926020929190829003018186803b15801561521557600080fd5b505afa158015615229573d6000803e3d6000fd5b505050506040513d601f19601f8201168201806040525081019061524d919061b247565b6001600160a01b031614156152745760405162461bcd60e51b815260040161125d9061c737565b6069546040805163ca64f9e760e01b815290516000926001600160a01b03169163ca64f9e7916004808301926020929190829003018186803b1580156152b957600080fd5b505afa1580156152cd573d6000803e3d6000fd5b505050506040513d601f19601f820116820180604052508101906152f1919061b247565b6001600160a01b031614156153185760405162461bcd60e51b815260040161125d9061c382565b6069546040805163ca64f9e760e01b815290516000926001600160a01b03169163ca64f9e7916004808301926020929190829003018186803b15801561535d57600080fd5b505afa158015615371573d6000803e3d6000fd5b505050506040513d601f19601f82011682018060405250810190615395919061b247565b90506000606960009054906101000a90046001600160a01b03166001600160a01b0316635492f3026040518163ffffffff1660e01b815260040160206040518083038186803b1580156153e757600080fd5b505afa1580156153fb573d6000803e3d6000fd5b505050506040513d601f19601f8201168201806040525081019061541f919061b247565b90508480600360005b8181101561560c5760405163065ee72760e51b81526000906001600160a01b0388169063cbdce4e09061545f90879060040161b7a6565b60206040518083038186803b15801561547757600080fd5b505afa15801561548b573d6000803e3d6000fd5b505050506040513d601f19601f820116820180604052508101906154af919061b539565b6001600160a01b0385166000908152604b602052604090205490915089116154da578394505061560c565b6001600160a01b0384166000908152604b6020526040902054891080159061551957506001600160a01b0384166000908152604b602052604090205415155b15615557576001600160a01b0384166000908152604b6020526040812054615542908b9061a1d4565b905080821061555557849550505061560c565b505b888110615567578394505061560c565b60405163792f4f6960e11b81526001600160a01b0387169063f25e9ed29061559390879060040161b7a6565b60206040518083038186803b1580156155ab57600080fd5b505afa1580156155bf573d6000803e3d6000fd5b505050506040513d601f19601f820116820180604052508101906155e3919061b247565b93506001600160a01b0384166155f9575061560c565b50806156048161cc58565b915050615428565b5091979650505050505050565b6043602090815260009283526040808420909152908252902080546120d79061cc1d565b60506020526000908152604090205460ff1681565b600080838360405160200161566892919061b756565b60408051808303601f19018152918152815160209283012060009081526046909252902054949350505050565b6049602052600090815260409020805460018201546002830154600384015460048501546005860154600687015460079097015495969495939460ff80851695610100909504169389565b6001600160a01b031660009081526050602052604090205460ff1690565b6000546001600160a01b031690565b604c602052816000526040600020818154811061572957600080fd5b6000918252602090912001546001600160a01b03169150829050565b60016000828152604860205260409020600b015460ff16600381111561577b57634e487b7160e01b600052602160045260246000fd5b146157985760405162461bcd60e51b815260040161125d9061b968565b336000908152604560205260409081902090516306120d1f60e31b815273__$85afbab79b2b776d70bef879a32ed56424$__9163309068f8916157e09190859060040161b798565b60206040518083038186803b1580156157f857600080fd5b505af415801561580c573d6000803e3d6000fd5b505050506040513d601f19601f82011682018060405250810190615830919061b40c565b61584c5760405162461bcd60e51b815260040161125d9061c008565b336000908152604560205260409081902090516301039dfd60e11b815273__$85afbab79b2b776d70bef879a32ed56424$__916302073bfa916158949190859060040161b798565b60006040518083038186803b1580156158ac57600080fd5b505af41580156158c0573d6000803e3d6000fd5b505050506158cc619efb565b604051339082907f402507661c8c8cb90e0a796450b8bdd28b6c516f05279c0cd29e84c344e1699a90600090a350565b605e5481565b61590a617f15565b606880549115156101000261ff0019909216919091179055565b6001600160a01b0381166000908152604a6020526040812081805b600f8110156113c9578281600f811061596857634e487b7160e01b600052603260045260246000fd5b60020201600101548261597b919061cb8f565b9150806159878161cc58565b91505061593f565b6069546001600160a01b03166159b75760405162461bcd60e51b815260040161125d9061b931565b6159c08161a628565b6159c8616469565b6056541415806159e1575060685462010000900460ff16155b156149155760005b81811015615b06576067545a1015615a0057615b06565b605b5460009081526048602052604081206004015462010000900460ff161515600114801590615ab75750606960009054906101000a90046001600160a01b03166001600160a01b031663bd40ef4c6040518163ffffffff1660e01b815260040160206040518083038186803b158015615a7957600080fd5b505afa158015615a8d573d6000803e3d6000fd5b505050506040513d601f19601f82011682018060405250810190615ab1919061b539565b604d5410155b8015615ad75750605b5460009081526048602052604090206004015460ff165b15615ae857615ae461a783565b5060015b80615af35750615b06565b5080615afe8161cc58565b9150506159e9565b50611e89619efb565b60005b81518110156119aa57615b4b828281518110615b3e57634e487b7160e01b600052603260045260246000fd5b6020026020010151615745565b80615b558161cc58565b915050615b12565b60008282604051602001615b7292919061b72b565b60405160208183030381529060405280519060200120905092915050565b605e5490565b605f5481565b6000615ba7826178d5565b615bc35760405162461bcd60e51b815260040161125d9061c56c565b600082815260486020526040902060050154615bde90616eeb565b15801561142a575050600090815260486020526040902060020154151590565b60575490565b60526020526000908152604090205460ff1681565b600081604051602001615c2c919061b77c565b6040516020818303038152906040528051906020012083604051602001615c53919061b77c565b604051602081830303815290604052805190602001201415615c775750600161142a565b50600061142a565b615c8884613586565b615ca45760405162461bcd60e51b815260040161125d9061c463565b336000908152603e6020908152604080832087845290915290205460ff16615cde5760405162461bcd60e51b815260040161125d9061bee2565b336000908152603f6020908152604080832087845290915290205460ff1615615d195760405162461bcd60e51b815260040161125d9061c7a4565b615d23338561491d565b615d2d84836174a7565b14615d4a5760405162461bcd60e51b815260040161125d9061bb0c565b615d54338561651e565b615d5e8383616632565b14615d7b5760405162461bcd60e51b815260040161125d9061ba94565b6000615d873386616b77565b90508260011415615dbe5760008581526048602052604081206007018054839290615db390849061cb8f565b90915550615de59050565b60008581526048602052604081206008018054839290615ddf90849061cb8f565b90915550505b336000818152603f602090815260408083208984528252808320805460ff191660011790558082528083208484528252808320879055888352604182528083209383529281529190208551615e3c9287019061af33565b50336000908152604960209081526040808320888452604890925290912060030154615e6990600161a1d4565b600087815260486020526040902060039081019190915542600283015581015460ff1615615ea75760008155615e9e33619c9d565b615ea73361adda565b60625460ff6101009091041615156001141561635c5760695460408051632a49798160e11b8152905133926000926001600160a01b0390911691635492f30291600480820192602092909190829003018186803b158015615f0757600080fd5b505afa158015615f1b573d6000803e3d6000fd5b505050506040513d601f19601f82011682018060405250810190615f3f919061b247565b90506000606960009054906101000a90046001600160a01b03166001600160a01b0316630855d1516040518163ffffffff1660e01b815260040160206040518083038186803b158015615f9157600080fd5b505afa158015615fa5573d6000803e3d6000fd5b505050506040513d601f19601f82011682018060405250810190615fc9919061b247565b90506000606960009054906101000a90046001600160a01b03166001600160a01b03166304e76c8f6040518163ffffffff1660e01b815260040160206040518083038186803b15801561601b57600080fd5b505afa15801561602f573d6000803e3d6000fd5b505050506040513d601f19601f82011682018060405250810190616053919061b247565b90506000836001600160a01b03166311815086866040518263ffffffff1660e01b8152600401616083919061b7a6565b60206040518083038186803b15801561609b57600080fd5b505afa1580156160af573d6000803e3d6000fd5b505050506040513d601f19601f820116820180604052508101906160d3919061b247565b90506000606454606960009054906101000a90046001600160a01b03166001600160a01b0316630b08bfd96040518163ffffffff1660e01b815260040160206040518083038186803b15801561612857600080fd5b505afa15801561613c573d6000803e3d6000fd5b505050506040513d601f19601f82011682018060405250810190616160919061b539565b61616c9061019061cbbb565b616176919061cba7565b90506000606454606960009054906101000a90046001600160a01b03166001600160a01b031663f80de0a06040518163ffffffff1660e01b815260040160206040518083038186803b1580156161cb57600080fd5b505afa1580156161df573d6000803e3d6000fd5b505050506040513d601f19601f82011682018060405250810190616203919061b539565b61620f9061019061cbbb565b616219919061cba7565b604051630db6cc8560e11b81529091506001600160a01b03861690631b6d990a9061624a908590879060040161c9e3565b602060405180830381600087803b15801561626457600080fd5b505af1158015616278573d6000803e3d6000fd5b505050506040513d601f19601f8201168201806040525081019061629c919061b40c565b6162b85760405162461bcd60e51b815260040161125d9061bd04565b604051633832942560e21b81526001600160a01b0385169063e0ca5094906162e6908490879060040161c9cc565b602060405180830381600087803b15801561630057600080fd5b505af1158015616314573d6000803e3d6000fd5b505050506040513d601f19601f82011682018060405250810190616338919061b40c565b6163545760405162461bcd60e51b815260040161125d9061c7f0565b505050505050505b6068546301000000900460ff1680156163845750600086815260486020526040902060030154155b156163925761639286617f54565b6001605c60008282546163a5919061cb8f565b909155506163b39050619efb565b6000868152604860205260409081902060078101546008909101549151339287928a927f0867b5027231dcbf37614eaad07d667b9febaf9fdf483f488229b1f140bb07489261640692899290919061ca1a565b60405180910390a4505050505050565b6000616421826178d5565b61643d5760405162461bcd60e51b815260040161125d9061c56c565b506001600160a01b03919091166000908152603f60209081526040808320938352929052205460ff1690565b600080424160405160200161647e919061b70e565b6040516020818303038152906040528051906020012060001c6164a1919061cba7565b446164aa612194565b6040516020016164ba919061b74d565b60408051601f1981840301815291905280516020909101206164dc904261cb8f565b6164e6919061cb8f565b6164f0919061cb8f565b604051602001616500919061b74d565b60408051601f19818403018152919052805160209091012091505090565b600061207e61652d8484615b5d565b6040518060400160405280600a815260200169636f6d6d6974566f746560b01b815250615652565b604f818154811061217a57600080fd5b6001600160a01b03811660009081526049602090815260408083208151610120810183528154808252600183015494820194909452600282015492810192909252600381015460ff80821615156060850152610100918290041615156080840152600482015460a0840152600582015460c0840152600682015460e08401526007909101549082015282916165fa8582616416565b15801561660d575061660b81611cc9565b155b801561661f575061661d816147ad565b155b1561662957600192505b50909392505050565b60008282604051602001615b7292919061b798565b60606000821180156166595750818311155b8015616666575060018310155b6166825760405162461bcd60e51b815260040161125d9061bd50565b60018310156166a35760405162461bcd60e51b815260040161125d9061c5a3565b60018210156166c45760405162461bcd60e51b815260040161125d9061c1ff565b60006166ce616469565b6040516020016166de919061b74d565b60408051601f198184030181529082905280516020918201206167039290910161b74d565b6040516020818303038152906040528051906020012060001c90506000846001600160401b0381111561674657634e487b7160e01b600052604160045260246000fd5b60405190808252806020026020018201604052801561676f578160200160208202803683370190505b50905060008061678087601461cb8f565b905060005b818110156168925760008761679a838061cbbb565b6167a4908861cb8f565b6040516020016167b4919061b74d565b6040516020818303038152906040528051906020012060001c6167d7919061cc73565b90506000805b8581101561682f578287828151811061680657634e487b7160e01b600052603260045260246000fd5b6020026020010151141561681d576001915061682f565b806168278161cc58565b9150506167dd565b508061686f578186868151811061685657634e487b7160e01b600052603260045260246000fd5b602090810291909101015261686c85600161cb8f565b94505b89851061687d575050616892565b5050808061688a9061cc58565b915050616785565b50868210156169625760005b8681101561696057806000805b858110156168fd57828782815181106168d457634e487b7160e01b600052603260045260246000fd5b602002602001015114156168eb57600191506168fd565b806168f58161cc58565b9150506168ab565b508061693d578186868151811061692457634e487b7160e01b600052603260045260246000fd5b602090810291909101015261693a85600161cb8f565b94505b89851061694b575050616960565b505080806169589061cc58565b91505061689e565b505b8682146169815760405162461bcd60e51b815260040161125d9061c0fe565b509095945050505050565b60685462010000900460ff1681565b60006169a683611cc9565b6169c25760405162461bcd60e51b815260040161125d9061c690565b6001600160a01b0384166000908152603f6020908152604080832086845290915290205460ff16616a055760405162461bcd60e51b815260040161125d9061c065565b6000616a1084613805565b616a1b576000616a1e565b60015b60ff16905060008184604051602001616a3892919061b798565b6040516020818303038152906040528051906020012090506000616a5c878761651e565b9050808214616a7d5760405162461bcd60e51b815260040161125d9061c3c4565b614b7d8787616b77565b6060600082118015616a995750818311155b8015616aa6575060018310155b616ac25760405162461bcd60e51b815260040161125d9061bd50565b6000616ace8484616647565b949350505050565b616ade617f15565b6068805460ff1916911515919091179055565b60635481565b6000616b02826178d5565b616b1e5760405162461bcd60e51b815260040161125d9061c56c565b5060009081526048602052604090206005015490565b60516020526000908152604090205460ff1681565b605d5490565b6068546301000000900460ff1681565b60556020526000908152604090205481565b60015481565b600061207e616b868484615b5d565b604051806040016040528060098152602001686e756d546f6b656e7360b81b815250615652565b6000828152604c60209081526040808320805482518185028101850190935280835284938493929190830182828015616c0f57602002820191906000526020600020905b81546001600160a01b03168152600190910190602001808311616bf1575b5050505050905060005b8151811015616c7e57846001600160a01b0316828281518110616c4c57634e487b7160e01b600052603260045260246000fd5b60200260200101516001600160a01b03161415616c6c5760019250616c7e565b80616c768161cc58565b915050616c19565b5090949350505050565b603f60209081526000928352604080842090915290825290205460ff1681565b60585481565b605b5481565b6060616cbf826178d5565b616cdb5760405162461bcd60e51b815260040161125d9061c56c565b6000828152604c6020908152604080832080548251818502810185019093528083529192909190830182828015616d3b57602002820191906000526020600020905b81546001600160a01b03168152600190910190602001808311616d1d575b50505050509050600081516001600160401b03811115616d6b57634e487b7160e01b600052604160045260246000fd5b604051908082528060200260200182016040528015616d9e57816020015b6060815260200190600190039081616d895790505b50905060005b82518110156113c957604160008681526020019081526020016000206000848381518110616de257634e487b7160e01b600052603260045260246000fd5b60200260200101516001600160a01b03166001600160a01b031681526020019081526020016000208054616e159061cc1d565b80601f0160208091040260200160405190810160405280929190818152602001828054616e419061cc1d565b8015616e8e5780601f10616e6357610100808354040283529160200191616e8e565b820191906000526020600020905b815481529060010190602001808311616e7157829003601f168201915b5050505050828281518110616eb357634e487b7160e01b600052603260045260246000fd5b60200260200101819052508080616ec99061cc58565b915050616da4565b604060208181526000938452818420905290825290205481565b421190565b616ef861b057565b616f01826178d5565b616f0a57600080fd5b60008281526048602090815260409182902082516101c0810184528154815260018201549281019290925260028101549282019290925260038201546060820152600482015460ff808216151560808401526101008083048216151560a08501526201000090920416151560c0830152600583015460e08301526006830154908201526007820154610120820152600882015461014082015260098201805491929161016084019190616fbc9061cc1d565b80601f0160208091040260200160405190810160405280929190818152602001828054616fe89061cc1d565b80156170355780601f1061700a57610100808354040283529160200191617035565b820191906000526020600020905b81548152906001019060200180831161701857829003601f168201915b5050509183525050600a8201546020820152600b82015460409091019060ff16600381111561426b57634e487b7160e01b600052602160045260246000fd5b60645481565b60685460ff1681565b606061708e826178d5565b61709757600080fd5b600082815260486020526040902060090180546170b39061cc1d565b80601f01602080910402602001604051908101604052809291908181526020018280546170df9061cc1d565b80156140105780601f1061710157610100808354040283529160200191614010565b820191906000526020600020905b81548152906001019060200180831161710f5750939695505050505050565b6001600160a01b031660009081526049602052604090206003015460ff1690565b60615481565b6060617160826178d5565b61717c5760405162461bcd60e51b815260040161125d9061c56c565b600082815260486020908152604080832081516101c0810183528154815260018201549381019390935260028101549183019190915260038101546060830152600481015460ff808216151560808501526101008083048216151560a08601526201000090920416151560c0840152600582015460e0840152600682015490830152600781015461012083015260088101546101408301526009810180546101608401919061722a9061cc1d565b80601f01602080910402602001604051908101604052809291908181526020018280546172569061cc1d565b80156172a35780601f10617278576101008083540402835291602001916172a3565b820191906000526020600020905b81548152906001019060200180831161728657829003601f168201915b5050509183525050600a8201546020820152600b82015460409091019060ff1660038111156172e257634e487b7160e01b600052602160045260246000fd5b600381111561730157634e487b7160e01b600052602160045260246000fd5b90525060208101519091506000816001600160401b0381111561733457634e487b7160e01b600052604160045260246000fd5b60405190808252806020026020018201604052801561736757816020015b60608152602001906001900390816173525790505b50905060005b82811015611cc057835160009061738590839061cb8f565b6000818152604760205260408120805492935090916173a39061cc1d565b80601f01602080910402602001604051908101604052809291908181526020018280546173cf9061cc1d565b801561741c5780601f106173f15761010080835404028352916020019161741c565b820191906000526020600020905b8154815290600101906020018083116173ff57829003601f168201915b505050505090508084848151811061744457634e487b7160e01b600052603260045260246000fd5b60200260200101819052505050808061745c9061cc58565b91505061736d565b605a5481565b605c5481565b617478617f15565b6001600160a01b03811661749e5760405162461bcd60e51b815260040161125d9061bb88565b611e898161a415565b60008282604051602001615b7292919061b90f565b605c5490565b3360009081526049602052604090206069546001600160a01b03166174f95760405162461bcd60e51b815260040161125d9061b931565b606960009054906101000a90046001600160a01b03166001600160a01b03166398a54e2b6040518163ffffffff1660e01b815260040160206040518083038186803b15801561754757600080fd5b505afa15801561755b573d6000803e3d6000fd5b505050506040513d601f19601f8201168201806040525081019061757f919061b539565b604e54604d5461758f919061cb8f565b106175ac5760405162461bcd60e51b815260040161125d9061c64e565b600381015460ff16156175d15760405162461bcd60e51b815260040161125d9061bdbe565b6175da336156e0565b1580156175ed57506175eb33613a57565b155b6176095760405162461bcd60e51b815260040161125d9061c34d565b606960009054906101000a90046001600160a01b03166001600160a01b0316639fb491f66040518163ffffffff1660e01b815260040160206040518083038186803b15801561765757600080fd5b505afa15801561766b573d6000803e3d6000fd5b505050506040513d601f19601f8201168201806040525081019061768f919061b539565b8160010154101580156177345750606960009054906101000a90046001600160a01b03166001600160a01b0316630f1f0ffe6040518163ffffffff1660e01b815260040160206040518083038186803b1580156176eb57600080fd5b505afa1580156176ff573d6000803e3d6000fd5b505050506040513d601f19601f82011682018060405250810190617723919061b539565b6004820154617732904261cbda565b105b156177515760405162461bcd60e51b815260040161125d9061be95565b60685460ff161561784257606954604080516001624ee91360e11b0319815290516000926001600160a01b03169163ff622dda916004808301926020929190829003018186803b1580156177a457600080fd5b505afa1580156177b8573d6000803e3d6000fd5b505050506040513d601f19601f820116820180604052508101906177dc919061b539565b905060006177ea33836151a5565b6001600160a01b0381166000908152604b602052604090205490915082111561783f576001600160a01b0381166000908152604b602052604081205461783190849061a1d4565b905061783d818361a1e0565b505b50505b61784b3361adda565b600381018054600160ff19909116811761ff0019169091554260048301556000818301819055605c805490919061788390849061cb8f565b909155506178919050619efb565b336001600160a01b03167f439d77b7534ec3108fc6143bd4fbabde0b9f2bb54f7b0730d1f70dd2135b765f426040516178ca919061b74d565b60405180910390a250565b605954101590565b6178e5617f15565b6062805460ff191692151592909217909155606355565b3360009081526049602052604090206003015460ff1690565b605f5490565b617923617f15565b606755565b6068546501000000000090046001600160a01b031681565b6001600160a01b03811660009081526049602090815260408083208151610120810183528154808252600183015494820194909452600282015492810192909252600381015460ff80821615156060850152610100918290041615156080840152600482015460a0840152600582015460c0840152600682015460e084015260079091015490820152906179d4848261499e565b1580156179e557506179e5816147ad565b1561207e575060009392505050565b6060600083118015617a0557508183105b617a215760405162461bcd60e51b815260040161125d9061bf7b565b6000835b617a3084600161cb8f565b811015617be757600081815260486020908152604080832081516101c0810183528154815260018201549381019390935260028101549183019190915260038101546060830152600481015460ff808216151560808501526101008083048216151560a08601526201000090920416151560c0840152600582015460e08401526006820154908301526007810154610120830152600881015461014083015260098101805461016084019190617ae59061cc1d565b80601f0160208091040260200160405190810160405280929190818152602001828054617b119061cc1d565b8015617b5e5780601f10617b3357610100808354040283529160200191617b5e565b820191906000526020600020905b815481529060010190602001808311617b4157829003601f168201915b5050509183525050600a8201546020820152600b82015460409091019060ff166003811115617b9d57634e487b7160e01b600052602160045260246000fd5b6003811115617bbc57634e487b7160e01b600052602160045260246000fd5b9052506020810151909150617bd1908461cb8f565b9250508080617bdf9061cc58565b915050617a25565b506000816001600160401b03811115617c1057634e487b7160e01b600052604160045260246000fd5b604051908082528060200260200182016040528015617c4357816020015b6060815260200190600190039081617c2e5790505b5090506000855b617c5586600161cb8f565b81101561698157600081815260486020908152604080832081516101c0810183528154815260018201549381019390935260028101549183019190915260038101546060830152600481015460ff808216151560808501526101008083048216151560a08601526201000090920416151560c0840152600582015460e08401526006820154908301526007810154610120830152600881015461014083015260098101805461016084019190617d0a9061cc1d565b80601f0160208091040260200160405190810160405280929190818152602001828054617d369061cc1d565b8015617d835780601f10617d5857610100808354040283529160200191617d83565b820191906000526020600020905b815481529060010190602001808311617d6657829003601f168201915b5050509183525050600a8201546020820152600b82015460409091019060ff166003811115617dc257634e487b7160e01b600052602160045260246000fd5b6003811115617de157634e487b7160e01b600052602160045260246000fd5b905250905060005b8160200151811015617ef1578151600090617e0590839061cb8f565b600081815260476020526040812080549293509091617e239061cc1d565b80601f0160208091040260200160405190810160405280929190818152602001828054617e4f9061cc1d565b8015617e9c5780601f10617e7157610100808354040283529160200191617e9c565b820191906000526020600020905b815481529060010190602001808311617e7f57829003601f168201915b5050505050905080878781518110617ec457634e487b7160e01b600052603260045260246000fd5b6020908102919091010152617eda60018761cb8f565b955050508080617ee99061cc58565b915050617de9565b50508080617efe9061cc58565b915050617c4a565b6069546001600160a01b031681565b617f1d61ae72565b6001600160a01b0316617f2e6156fe565b6001600160a01b03161461481b5760405162461bcd60e51b815260040161125d9061c224565b6069546001600160a01b0316617f7c5760405162461bcd60e51b815260040161125d9061b931565b60695460408051632a49798160e11b815290516000926001600160a01b031691635492f302916004808301926020929190829003018186803b158015617fc157600080fd5b505afa158015617fd5573d6000803e3d6000fd5b505050506040513d601f19601f82011682018060405250810190617ff9919061b247565b6001600160a01b031614156180205760405162461bcd60e51b815260040161125d9061c737565b60695460408051630855d15160e01b815290516000926001600160a01b031691630855d151916004808301926020929190829003018186803b15801561806557600080fd5b505afa158015618079573d6000803e3d6000fd5b505050506040513d601f19601f8201168201806040525081019061809d919061b247565b6001600160a01b031614156180c45760405162461bcd60e51b815260040161125d9061c4f0565b606954604080516304e76c8f60e01b815290516000926001600160a01b0316916304e76c8f916004808301926020929190829003018186803b15801561810957600080fd5b505afa15801561811d573d6000803e3d6000fd5b505050506040513d601f19601f82011682018060405250810190618141919061b247565b6001600160a01b031614156181685760405162461bcd60e51b815260040161125d9061bc18565b61817181611cc9565b8061818b5750600081815260486020526040902060030154155b6181a75760405162461bcd60e51b815260040161125d9061c2a9565b600081815260486020526040902060040154610100900460ff16156181de5760405162461bcd60e51b815260040161125d9061c5c4565b6000818152604c602090815260408083208054825181850281018501909352808352919290919083018282801561823e57602002820191906000526020600020905b81546001600160a01b03168152600190910190602001808311618220575b50505050509050600081516001600160401b0381111561826e57634e487b7160e01b600052604160045260246000fd5b6040519080825280602002602001820160405280156182a157816020015b606081526020019060019003908161828c5790505b509050600082516001600160401b038111156182cd57634e487b7160e01b600052604160045260246000fd5b6040519080825280602002602001820160405280156182f6578160200160208202803683370190505b50905060005b835181101561847957600084828151811061832757634e487b7160e01b600052603260045260246000fd5b60209081029190910181015160008881526041835260408082206001600160a01b03841683529093529182208054919350906183629061cc1d565b80601f016020809104026020016040519081016040528092919081815260200182805461838e9061cc1d565b80156183db5780601f106183b0576101008083540402835291602001916183db565b820191906000526020600020905b8154815290600101906020018083116183be57829003601f168201915b50505060008a81526042602090815260408083206001600160a01b03891684529091529020548851939450928492508891508690811061842b57634e487b7160e01b600052603260045260246000fd5b60200260200101819052508085858151811061845757634e487b7160e01b600052603260045260246000fd5b60200260200101818152505050505080806184719061cc58565b9150506182fc565b5060006185246064606960009054906101000a90046001600160a01b03166001600160a01b031663ea19733c6040518163ffffffff1660e01b815260040160206040518083038186803b1580156184cf57600080fd5b505afa1580156184e3573d6000803e3d6000fd5b505050506040513d601f19601f82011682018060405250810190618507919061b539565b8651618513919061cbbb565b61851d919061cba7565b600161ae76565b60408051602081019091526000808252919250905b8451811015618622576000805b86518110156185d7576185a787848151811061857257634e487b7160e01b600052603260045260246000fd5b602002602001015188838151811061859a57634e487b7160e01b600052603260045260246000fd5b6020026020010151615c19565b156185c5576185b760018361cb8f565b91508482106185c5576185d7565b806185cf8161cc58565b915050618546565b5083811061860f578582815181106185ff57634e487b7160e01b600052603260045260246000fd5b6020026020010151925050618622565b508061861a8161cc58565b915050618539565b506000805b8451811015618709576000805b86518110156186be5786818151811061865d57634e487b7160e01b600052603260045260246000fd5b602002602001015187848151811061868557634e487b7160e01b600052603260045260246000fd5b602002602001015114156186ac5761869e60018361cb8f565b91508582106186ac576186be565b806186b68161cc58565b915050618634565b508481106186f6578582815181106186e657634e487b7160e01b600052603260045260246000fd5b6020026020010151925050618709565b50806187018161cc58565b915050618627565b50600061871588613805565b801561873757506187358360405180602001604052806000815250615c19565b155b801561874257508115155b606854909150640100000000900460ff1615618a9857600088815260486020908152604080832081516101c0810183528154815260018201549381019390935260028101549183019190915260038101546060830152600481015460ff808216151560808501526101008083048216151560a08601526201000090920416151560c0840152600582015460e084015260068201549083015260078101546101208301526008810154610140830152600981018054610160840191906188069061cc1d565b80601f01602080910402602001604051908101604052809291908181526020018280546188329061cc1d565b801561887f5780601f106188545761010080835404028352916020019161887f565b820191906000526020600020905b81548152906001019060200180831161886257829003601f168201915b5050509183525050600a8201546020820152600b82015460409091019060ff1660038111156188be57634e487b7160e01b600052602160045260246000fd5b60038111156188dd57634e487b7160e01b600052602160045260246000fd5b905250610120810151909150156188f357600191505b61890c8460405180602001604052806000815250615c19565b15618a965760005b8851811015618a9457603f60008a838151811061894157634e487b7160e01b600052603260045260246000fd5b6020908102919091018101516001600160a01b0316825281810192909252604090810160009081208d825290925290205460ff1661897e57618a82565b6189be8882815181106189a157634e487b7160e01b600052603260045260246000fd5b602002602001015160405180602001604052806000815250615c19565b6189ed578781815181106189e257634e487b7160e01b600052603260045260246000fd5b602002602001015194505b83158015618a2257506000878281518110618a1857634e487b7160e01b600052603260045260246000fd5b6020026020010151115b15618a5257868181518110618a4757634e487b7160e01b600052603260045260246000fd5b602002602001015193505b618a6b8560405180602001604052806000815250615c19565b158015618a785750600084115b15618a8257618a94565b80618a8c8161cc58565b915050618914565b505b505b80618aa7576066549150618ad2565b606654600089815260486020526040902060010154618acf91618ac99161cbbb565b8361ae8c565b91505b60005b8751811015619275576000888281518110618b0057634e487b7160e01b600052603260045260246000fd5b602002602001015190506000604060008c81526020019081526020016000206000836001600160a01b03166001600160a01b031681526020019081526020016000205490506000603f6000846001600160a01b03166001600160a01b0316815260200190815260200160002060008d815260200190815260200160002060009054906101000a900460ff169050600060496000856001600160a01b03166001600160a01b03168152602001908152602001600020905060456000856001600160a01b03166001600160a01b0316815260200190815260200160002073__$85afbab79b2b776d70bef879a32ed56424$__6302073bfa90918f6040518363ffffffff1660e01b8152600401618c1592919061b798565b60006040518083038186803b158015618c2d57600080fd5b505af4158015618c41573d6000803e3d6000fd5b50505050811561914b576001600160a01b0384166000908152604960205260408120600190810191909155861515148015618c7c5750826001145b80618c91575085158015618c91575082600114155b1561912b5760695460408051632a49798160e11b815290516000926001600160a01b031691635492f302916004808301926020929190829003018186803b158015618cdb57600080fd5b505afa158015618cef573d6000803e3d6000fd5b505050506040513d601f19601f82011682018060405250810190618d13919061b247565b90506000606960009054906101000a90046001600160a01b03166001600160a01b0316630855d1516040518163ffffffff1660e01b815260040160206040518083038186803b158015618d6557600080fd5b505afa158015618d79573d6000803e3d6000fd5b505050506040513d601f19601f82011682018060405250810190618d9d919061b247565b90506000606960009054906101000a90046001600160a01b03166001600160a01b03166304e76c8f6040518163ffffffff1660e01b815260040160206040518083038186803b158015618def57600080fd5b505afa158015618e03573d6000803e3d6000fd5b505050506040513d601f19601f82011682018060405250810190618e27919061b247565b90506000836001600160a01b03166311815086896040518263ffffffff1660e01b8152600401618e57919061b7a6565b60206040518083038186803b158015618e6f57600080fd5b505afa158015618e83573d6000803e3d6000fd5b505050506040513d601f19601f82011682018060405250810190618ea7919061b247565b90508a1561910757826001600160a01b0316631b6d990a8c606960009054906101000a90046001600160a01b03166001600160a01b0316630b08bfd96040518163ffffffff1660e01b815260040160206040518083038186803b158015618f0d57600080fd5b505afa158015618f21573d6000803e3d6000fd5b505050506040513d601f19601f82011682018060405250810190618f45919061b539565b618f4f919061cbbb565b836040518363ffffffff1660e01b8152600401618f6d92919061c9e3565b602060405180830381600087803b158015618f8757600080fd5b505af1158015618f9b573d6000803e3d6000fd5b505050506040513d601f19601f82011682018060405250810190618fbf919061b40c565b618fdb5760405162461bcd60e51b815260040161125d9061bdf3565b816001600160a01b031663e0ca50948c606960009054906101000a90046001600160a01b03166001600160a01b031663f80de0a06040518163ffffffff1660e01b815260040160206040518083038186803b15801561903957600080fd5b505afa15801561904d573d6000803e3d6000fd5b505050506040513d601f19601f82011682018060405250810190619071919061b539565b61907b919061cbbb565b836040518363ffffffff1660e01b815260040161909992919061c9cc565b602060405180830381600087803b1580156190b357600080fd5b505af11580156190c7573d6000803e3d6000fd5b505050506040513d601f19601f820116820180604052508101906190eb919061b40c565b6191075760405162461bcd60e51b815260040161125d9061c306565b600185600601600082825461911c919061cb8f565b90915550619146945050505050565b6001816007016000828254619140919061cb8f565b90915550505b61925e565b6001600160a01b0384166000908152604960205260408120600190810180549192909161917990849061cb8f565b909155505060695460408051634fda48fb60e11b815290516001600160a01b0390921691639fb491f691600480820192602092909190829003018186803b1580156191c357600080fd5b505afa1580156191d7573d6000803e3d6000fd5b505050506040513d601f19601f820116820180604052508101906191fb919061b539565b6001600160a01b0385166000908152604960205260409020600101541061923a5760038101805460ff1916905561923184619c9d565b61923a84619b47565b600381015460ff16156192595761925084619c9d565b6192598461adda565b600081555b50505050808061926d9061cc58565b915050618ad5565b50600088815260486020908152604090912060048101805461ff00191661010017905584516192ac9260099092019186019061af33565b506000888152604860205260409020600a0182905580156199c657600088815260486020526040812080546001909101549091906192ea908361cb8f565b9050815b81811015619793576000818152604760209081526040808320600101546069548251632a49798160e11b815292516001600160a01b0392831695949190921692635492f3029260048083019392829003018186803b15801561934f57600080fd5b505afa158015619363573d6000803e3d6000fd5b505050506040513d601f19601f82011682018060405250810190619387919061b247565b90506000606960009054906101000a90046001600160a01b03166001600160a01b0316630855d1516040518163ffffffff1660e01b815260040160206040518083038186803b1580156193d957600080fd5b505afa1580156193ed573d6000803e3d6000fd5b505050506040513d601f19601f82011682018060405250810190619411919061b247565b90506000606960009054906101000a90046001600160a01b03166001600160a01b03166304e76c8f6040518163ffffffff1660e01b815260040160206040518083038186803b15801561946357600080fd5b505afa158015619477573d6000803e3d6000fd5b505050506040513d601f19601f8201168201806040525081019061949b919061b247565b90506000836001600160a01b03166311815086866040518263ffffffff1660e01b81526004016194cb919061b7a6565b60206040518083038186803b1580156194e357600080fd5b505afa1580156194f7573d6000803e3d6000fd5b505050506040513d601f19601f8201168201806040525081019061951b919061b247565b9050891561977b57826001600160a01b0316631b6d990a8b606960009054906101000a90046001600160a01b03166001600160a01b031663abb10b9b6040518163ffffffff1660e01b815260040160206040518083038186803b15801561958157600080fd5b505afa158015619595573d6000803e3d6000fd5b505050506040513d601f19601f820116820180604052508101906195b9919061b539565b6195c3919061cbbb565b836040518363ffffffff1660e01b81526004016195e192919061c9e3565b602060405180830381600087803b1580156195fb57600080fd5b505af115801561960f573d6000803e3d6000fd5b505050506040513d601f19601f82011682018060405250810190619633919061b40c565b61964f5760405162461bcd60e51b815260040161125d9061c0b0565b816001600160a01b031663e0ca50948b606960009054906101000a90046001600160a01b03166001600160a01b03166330c0bb796040518163ffffffff1660e01b815260040160206040518083038186803b1580156196ad57600080fd5b505afa1580156196c1573d6000803e3d6000fd5b505050506040513d601f19601f820116820180604052508101906196e5919061b539565b6196ef919061cbbb565b836040518363ffffffff1660e01b815260040161970d92919061c9cc565b602060405180830381600087803b15801561972757600080fd5b505af115801561973b573d6000803e3d6000fd5b505050506040513d601f19601f8201168201806040525081019061975f919061b40c565b61977b5760405162461bcd60e51b815260040161125d9061c259565b5050505050808061978b9061cc58565b9150506192ee565b5060008a8152604860205260408120600b01805460ff19166001908117909155605e8054919290916197c690849061cb8f565b909155505060695460408051637b39b17f60e11b815290516000926001600160a01b03169163f67362fe916004808301926020929190829003018186803b15801561981057600080fd5b505afa158015619824573d6000803e3d6000fd5b505050506040513d601f19601f82011682018060405250810190619848919061b247565b6001600160a01b0316141561986f5760405162461bcd60e51b815260040161125d9061bc5b565b60695460408051637b39b17f60e11b815290516000926001600160a01b03169163f67362fe916004808301926020929190829003018186803b1580156198b457600080fd5b505afa1580156198c8573d6000803e3d6000fd5b505050506040513d601f19601f820116820180604052508101906198ec919061b247565b6040516348257dc960e01b81529091506001600160a01b038216906348257dc99061991b908e9060040161b74d565b600060405180830381600087803b15801561993557600080fd5b505af1925050508015619946575060015b6199a5573d808015619974576040519150601f19603f3d011682016040523d82523d6000602084013e619979565b606091505b5060008051602061cced83398151915281604051619997919061b838565b60405180910390a1506199be565b6001605c60008282546199b8919061cb8f565b90915550505b5050506199fb565b6000888152604860205260408120600b01805460ff19166002179055605f8054600192906199f590849061cb8f565b90915550505b6001605c6000828254619a0e919061cb8f565b90915550506000888152604860205260408120600a0154605d805491929091619a3890849061cb8f565b90915550506000888152604860209081526040909120600a015490619a5f6001600f61cbda565b600f8110619a7d57634e487b7160e01b600052603260045260246000fd5b600202016001016000828254619a93919061cb8f565b90915550619aa190506117d3565b6000888152604860205260408120600201546060805491929091619ac690849061cb8f565b90915550506000888152604860205260408120600301546061805491929091619af090849061cb8f565b92505081905550877f98bfbdd7dba62d9141cf4f07139f8e53c0d00c0b44cad36d148730680b1621618483604051619b2992919061b8bd565b60405180910390a25050505050505050565b600061207e828461cb8f565b6001600160a01b03811660009081526050602052604090205460ff1615611e89576001600160a01b038116600090815260536020526040812054604d8054919291619b949060019061cbda565b81548110619bb257634e487b7160e01b600052603260045260246000fd5b60009182526020808320909101546001600160a01b038681168452605083526040808520805460ff19169055606a54605390945290932091909155604d5491169150600211619c575780604d8381548110619c1d57634e487b7160e01b600052603260045260246000fd5b600091825260208083209190910180546001600160a01b0319166001600160a01b0394851617905591831681526053909152604090208290555b604d805480619c7657634e487b7160e01b600052603160045260246000fd5b600082815260209020810160001990810180546001600160a01b0319169055019055505050565b6001600160a01b03811660009081526051602052604090205460ff1615611e89576001600160a01b038116600090815260546020526040812054604e8054919291619cea9060019061cbda565b81548110619d0857634e487b7160e01b600052603260045260246000fd5b60009182526020808320909101546001600160a01b038681168452605183526040808520805460ff19169055606a54605490945290932091909155604e5491169150600211619dad5780604e8381548110619d7357634e487b7160e01b600052603260045260246000fd5b600091825260208083209190910180546001600160a01b0319166001600160a01b0394851617905591831681526054909152604090208290555b604e805480619c7657634e487b7160e01b600052603160045260246000fd5b6001600160a01b03811660009081526052602052604090205460ff1615611e89576001600160a01b038116600090815260556020526040812054604f8054919291619e199060019061cbda565b81548110619e3757634e487b7160e01b600052603260045260246000fd5b60009182526020808320909101546001600160a01b038681168452605283526040808520805460ff19169055606a54605590945290932091909155604e5491169150600211619edc5780604f8381548110619ea257634e487b7160e01b600052603260045260246000fd5b600091825260208083209190910180546001600160a01b0319166001600160a01b0394851617905591831681526055909152604090208290555b604f805480619c7657634e487b7160e01b600052603160045260246000fd5b60695460408051632abe0d5f60e11b815290516000926001600160a01b03169163557c1abe916004808301926020929190829003018186803b158015619f4057600080fd5b505afa925050508015619f70575060408051601f3d908101601f19168201909252619f6d9181019061b247565b60015b619fcf573d808015619f9e576040519150601f19603f3d011682016040523d82523d6000602084013e619fa3565b606091505b5060008051602061cced83398151915281604051619fc1919061b838565b60405180910390a150619fd1565b505b606960009054906101000a90046001600160a01b03166001600160a01b031663557c1abe6040518163ffffffff1660e01b815260040160206040518083038186803b15801561a01f57600080fd5b505afa15801561a033573d6000803e3d6000fd5b505050506040513d601f19601f8201168201806040525081019061a057919061b247565b90506001600160a01b03811661a07f5760405162461bcd60e51b815260040161125d9061bd87565b6000816001600160a01b03163360405160240161a09c919061b7a6565b60408051601f198184030181529181526020820180516001600160e01b0316631f5ac9c560e11b1790525161a0d1919061b77c565b6000604051808303816000865af19150503d806000811461a10e576040519150601f19603f3d011682016040523d82523d6000602084013e61a113565b606091505b505090506000826001600160a01b03163360405160240161a134919061b7a6565b60408051601f198184030181529181526020820180516001600160e01b03166358563d2160e01b1790525161a169919061b77c565b6000604051808303816000865af19150503d806000811461a1a6576040519150601f19603f3d011682016040523d82523d6000602084013e61a1ab565b606091505b50509050818061a1b85750805b6117ce5760405162461bcd60e51b815260040161125d9061b9b9565b600061207e828461cbda565b6069546040805163ca64f9e760e01b815290516000926001600160a01b03169163ca64f9e7916004808301926020929190829003018186803b15801561a22557600080fd5b505afa15801561a239573d6000803e3d6000fd5b505050506040513d601f19601f8201168201806040525081019061a25d919061b247565b6001600160a01b0316141561a2845760405162461bcd60e51b815260040161125d9061c382565b6069546040805163ca64f9e760e01b815290516000926001600160a01b03169163ca64f9e7916004808301926020929190829003018186803b15801561a2c957600080fd5b505afa15801561a2dd573d6000803e3d6000fd5b505050506040513d601f19601f8201168201806040525081019061a301919061b247565b6040516304ada21f60e21b81529091506001600160a01b038216906312b6887c9061a332908690869060040161c9cc565b602060405180830381600087803b15801561a34c57600080fd5b505af115801561a360573d6000803e3d6000fd5b505050506040513d601f19601f8201168201806040525081019061a384919061b40c565b61a3a05760405162461bcd60e51b815260040161125d9061be38565b6001600160a01b0382166000908152604b60205260408120805485929061a3c890849061cb8f565b92505081905550816001600160a01b03167f5aa5d56140767016c877a5333ac3e1ad31a09051098a8fdf7297c4b64530a9428460405161a408919061b74d565b60405180910390a2505050565b600080546001600160a01b038381166001600160a01b0319831681178455604051919092169283917f8be0079c531659141344cd1fd0a4f28419497f9722a3daafe3b4186f6b6457e09190a35050565b6000605854605a5461a477919061cbda565b9050606960009054906101000a90046001600160a01b03166001600160a01b031663e3115d3c6040518163ffffffff1660e01b815260040160206040518083038186803b15801561a4c757600080fd5b505afa15801561a4db573d6000803e3d6000fd5b505050506040513d601f19601f8201168201806040525081019061a4ff919061b539565b811115611e895760005b606954604080516307d630cb60e41b8152905161a587926001600160a01b031691637d630cb0916004808301926020929190829003018186803b15801561a54f57600080fd5b505afa15801561a563573d6000803e3d6000fd5b505050506040513d601f19601f82011682018060405250810190618ac9919061b539565b8110156119aa576058546000908152604860205260408120805460019091015490919061a5b4908361cb8f565b9050815b8181101561a5db5761a5c981613d24565b8061a5d38161cc58565b91505061a5b8565b5061a5e76058546146cf565b6058546040517f72c2fcc891fe835b86fc8bb9abdc52adf52499c52289b3c49e1461eabea2717590600090a25050808061a6209061cc58565b91505061a509565b600061a63982604f8054905061ae8c565b905060005b604f5481101561a734576000604f828154811061a66b57634e487b7160e01b600052603260045260246000fd5b60009182526020808320909101546001600160a01b03168083526049909152604090912080549192509061a7115760038101805461ffff1916905561a6af82619b47565b61a6b882619c9d565b6001600160a01b03821660008181526052602052604090819020805460ff19169055517f9dadcedba048e92b943ea1c5861cee1df63a566d7f795869c004780c1c698e2b9061a70890429061b74d565b60405180910390a25b83831061a71f57505061a734565b5050808061a72c9061cc58565b91505061a63e565b506119aa604f600061b0e5565b6000838360405160200161a75692919061b756565b60408051601f19818403018152918152815160209283012060009081526046909252902091909155505050565b605b5460009081526048602052604090206004015460ff1661a7b75760405162461bcd60e51b815260040161125d9061c40d565b605b5460009081526048602052604090206004015462010000900460ff161561a7f25760405162461bcd60e51b815260040161125d9061c156565b600061a91661a88b604d80549050606960009054906101000a90046001600160a01b03166001600160a01b031663dfeceed76040518163ffffffff1660e01b815260040160206040518083038186803b15801561a84e57600080fd5b505afa15801561a862573d6000803e3d6000fd5b505050506040513d601f19601f8201168201806040525081019061a886919061b539565b61ae8c565b606960009054906101000a90046001600160a01b03166001600160a01b031663bd40ef4c6040518163ffffffff1660e01b815260040160206040518083038186803b15801561a8d957600080fd5b505afa15801561a8ed573d6000803e3d6000fd5b505050506040513d601f19601f8201168201806040525081019061a911919061b539565b61ae76565b604d546069546040805163189460df60e31b8152905193945091926001600160a01b039091169163c4a306f8916004808301926020929190829003018186803b15801561a96257600080fd5b505afa15801561a976573d6000803e3d6000fd5b505050506040513d601f19601f8201168201806040525081019061a99a919061b539565b60015461a9a7904261cbda565b106119aa57605b80546000908152604860209081526040808320600301869055925482528282206002018590556069548351631b4930b560e11b81529351929361aa56936001600160a01b0390921692633692616a92600480840193829003018186803b15801561aa1757600080fd5b505afa15801561aa2b573d6000803e3d6000fd5b505050506040513d601f19601f8201168201806040525081019061aa4f919061b539565b4290619b3b565b9050600061aaea606960009054906101000a90046001600160a01b03166001600160a01b03166372e540306040518163ffffffff1660e01b815260040160206040518083038186803b15801561aaab57600080fd5b505afa15801561aabf573d6000803e3d6000fd5b505050506040513d601f19601f8201168201806040525081019061aae3919061b539565b8390619b3b565b605b8054600090815260486020526040808220600501869055825482528082206006018490559154815220600401805462ff000019166201000017905590506001841080159061ab3b575060018310155b61ab575760405162461bcd60e51b815260040161125d9061bbce565b600061ab638585616a87565b9050600081516001600160401b0381111561ab8e57634e487b7160e01b600052604160045260246000fd5b60405190808252806020026020018201604052801561abb7578160200160208202803683370190505b50905060005b825181101561ac7657604d83828151811061abe857634e487b7160e01b600052603260045260246000fd5b60200260200101518154811061ac0e57634e487b7160e01b600052603260045260246000fd5b9060005260206000200160009054906101000a90046001600160a01b031682828151811061ac4c57634e487b7160e01b600052603260045260246000fd5b6001600160a01b03909216602092830291909101909101528061ac6e8161cc58565b91505061abbd565b5060005b825181101561ad9657600082828151811061aca557634e487b7160e01b600052603260045260246000fd5b60200260200101519050600060496000836001600160a01b03166001600160a01b03168152602001908152602001600020905061ace182619b47565b61acea8261ae9b565b605b80546000908152604c60209081526040822080546001808201835591845291832090910180546001600160a01b0319166001600160a01b0387161790559154835560058301805490919061ad4190849061cb8f565b9091555050605b546040517fe4ee2dfabe57cee15e3f558890b20455f54c1fa0718e5276faad70a6500e6b8c9061ad7990859061b7a6565b60405180910390a25050808061ad8e9061cc58565b91505061ac7a565b50426001908155605b5461ada991619b3b565b605b5561adb4616469565b6056819055506001605c600082825461adcd919061cb8f565b9091555050505050505050565b61ade3816156e0565b611e8957604d8054600180820183557f1b524e1c8b5382bb913d0a2aae8ad83bb92a45fcb47761fa4a12f5b6316c2b2090910180546001600160a01b0319166001600160a01b0385169081179091556000908152605060205260409020805460ff191682179055905461ae56919061cbda565b6001600160a01b03821660009081526053602052604090205550565b3390565b600081831161ae85578161207e565b5090919050565b600081831061ae85578161207e565b61aea481613a57565b611e8957604e8054600180820183557f9b65e484ce3d961a557081a44c6c68a0a27eca0b88fce820bdd99c3dc223dcc790910180546001600160a01b0319166001600160a01b0385169081179091556000908152605160205260409020805460ff191682179055905461af17919061cbda565b6001600160a01b03821660009081526054602052604090205550565b82805461af3f9061cc1d565b90600052602060002090601f01602090048101928261af61576000855561afa7565b82601f1061af7a57805160ff191683800117855561afa7565b8280016001018555821561afa7579182015b8281111561afa757825182559160200191906001019061af8c565b5061afb392915061b0ff565b5090565b50805461afc39061cc1d565b6000825580601f1061afd55750611e89565b601f016020900490600052602060002090810190611e89919061b0ff565b6040518060e001604052806060815260200160006001600160a01b03168152602001600081526020016000815260200160608152602001606081526020016000600381111561b05257634e487b7160e01b600052602160045260246000fd5b905290565b604051806101c00160405280600081526020016000815260200160008152602001600081526020016000151581526020016000151581526020016000151581526020016000815260200160008152602001600081526020016000815260200160608152602001600081526020016000600381111561b05257634e487b7160e01b600052602160045260246000fd5b5080546000825590600052602060002090810190611e8991905b5b8082111561afb3576000815560010161b100565b60008083601f84011261b125578182fd5b5081356001600160401b0381111561b13b578182fd5b6020830191508360208083028501011115613d1d57600080fd5b600082601f83011261b165578081fd5b8135602061b17a61b1758361cb6c565b61cb43565b828152818101908583018385028701840188101561b196578586fd5b855b8581101561b1b45781358452928401929084019060010161b198565b5090979650505050505050565b600082601f83011261b1d1578081fd5b81356001600160401b0381111561b1ea5761b1ea61ccb3565b61b1fd601f8201601f191660200161cb43565b81815284602083860101111561b211578283fd5b816020850160208301379081016020019190915292915050565b60006020828403121561b23c578081fd5b813561207e8161ccc9565b60006020828403121561b258578081fd5b815161207e8161ccc9565b6000806040838503121561b275578081fd5b823561b2808161ccc9565b946020939093013593505050565b60008060006060848603121561b2a2578081fd5b833561b2ad8161ccc9565b95602085013595506040909401359392505050565b60008060008060006080868803121561b2d9578081fd5b85356001600160401b038082111561b2ef578283fd5b818801915088601f83011261b302578283fd5b8135602061b31261b1758361cb6c565b82815281810190858301875b8581101561b3475761b3358f8684358b010161b1c1565b8452928401929084019060010161b31e565b50909a5050508901359250508082111561b35f578283fd5b61b36b89838a0161b114565b9096509450604088013591508082111561b383578283fd5b61b38f89838a0161b155565b9350606088013591508082111561b3a4578283fd5b5061b3b18882890161b1c1565b9150509295509295909350565b60006020828403121561b3cf578081fd5b81356001600160401b0381111561b3e4578182fd5b616ace8482850161b155565b60006020828403121561b401578081fd5b813561207e8161ccde565b60006020828403121561b41d578081fd5b815161207e8161ccde565b6000806040838503121561b43a578182fd5b823561b2808161ccde565b6000806040838503121561b457578182fd5b8235915060208301356001600160401b0381111561b473578182fd5b61b47f8582860161b1c1565b9150509250929050565b6000806040838503121561b49b578182fd5b82356001600160401b038082111561b4b1578384fd5b61b4bd8683870161b1c1565b9350602085013591508082111561b4d2578283fd5b5061b47f8582860161b1c1565b6000806040838503121561b4f1578182fd5b82356001600160401b0381111561b506578283fd5b61b5128582860161b1c1565b95602094909401359450505050565b60006020828403121561b532578081fd5b5035919050565b6000602082840312156121aa578081fd5b6000806040838503121561b55c578182fd5b82359150602083013561b56e8161ccc9565b809150509250929050565b600080600080600060a0868803121561b590578283fd5b8535945060208601359350604086013592506060860135915060808601356001600160401b0381111561b5c1578182fd5b61b3b18882890161b1c1565b6000806000806080858703121561b5e2578182fd5b8435935060208501356001600160401b0381111561b5fe578283fd5b61b60a8782880161b1c1565b949794965050505060408301359260600135919050565b6000806040838503121561b633578182fd5b50508035926020909101359150565b6000806000806080858703121561b657578182fd5b8435935060208501359250604085013561b6708161ccc9565b9396929550929360600135925050565b6000815180845260208085019450808401835b8381101561b6af5781518752958201959082019060010161b693565b509495945050505050565b15159052565b6000815180845261b6d881602086016020860161cbf1565b601f01601f19169290920160200192915050565b6004811061b70a57634e487b7160e01b600052602160045260246000fd5b9052565b60609190911b6bffffffffffffffffffffffff1916815260140190565b60609290921b6bffffffffffffffffffffffff19168252601482015260340190565b90815260200190565b6000838252825161b76e81602085016020870161cbf1565b919091016020019392505050565b6000825161b78e81846020870161cbf1565b9190910192915050565b918252602082015260400190565b6001600160a01b0391909116815260200190565b6000602080830181845280855180835260408601915060408482028701019250838701855b8281101561b80d57603f1988860301845261b7fb85835161b6c0565b9450928501929085019060010161b7df565b5092979650505050505050565b60006020825261207e602083018461b680565b901515815260200190565b60006020825261207e602083018461b6c0565b600060e0825261b85e60e083018a61b6c0565b6001600160a01b03891660208401526040830188905260608301879052828103608084015261b88d818761b6c0565b905082810360a084015261b8a1818661b6c0565b91505061b8b160c083018461b6ec565b98975050505050505050565b60006040825261b8d0604083018561b6c0565b905082151560208301529392505050565b60006040825261b8f4604083018561b6c0565b828103602084015261b906818561b6c0565b95945050505050565b60006040825261b922604083018561b6c0565b90508260208301529392505050565b6020808252601f908201527f506172616d6574657273204d616e61676572206d757374206265207365742e00604082015260600190565b60208082526031908201527f676976656e204461746142617463682073686f756c6420626520415050524f5660408201527011510b08185b99081a5d081a5cc81b9bdd607a1b606082015260800190565b60208082526025908201527f72656365697665722072656a6563746564205f7265747269657665534675656c6040820152640818d85b1b60da1b606082015260800190565b6020808252602f908201527f636f6d6d697420706572696f64206e6565647320746f206265206f70656e206660408201526e1bdc881d1a1a5cc818985d18da1259608a1b606082015260800190565b60208082526027908201527f696e70757420617272617973206d757374206265206f662073616d65206c656e6040820152666774682028322960c81b606082015260800190565b60208082526052908201527f4e6f74207468652073616d6520766f7465207468616e20636f6d6d697465642c60408201527f20696d706f737369626c6520746f206d61746368207769746820676976656e206060820152715f73616c742026205f636c656172566f746560701b608082015260a00190565b60208082526056908201527f4e6f74207468652073616d652068617368207468616e20636f6d6d697465642c60408201527f20696d706f737369626c6520746f206d61746368207769746820676976656e206060820152750bee6c2d8e8404c40bec6d8cac2e492a08ca690c2e6d60531b608082015260a00190565b60208082526026908201527f4f776e61626c653a206e6577206f776e657220697320746865207a65726f206160408201526564647265737360d01b606082015260800190565b6020808252602a908201527f4661696c20647572696e6720616c6c6f636174696f6e3a206e6f7420656e6f75604082015269676820776f726b65727360b01b606082015260800190565b60208082526023908201527f5265776172644d616e61676572206973206e756c6c20696e20506172616d657460408201526265727360e81b606082015260800190565b6020808252602c908201527f436f6d706c69616e636553797374656d206e756c6c20696e20506172616d657460408201526b195c9cc810dbdb9d1c9858dd60a21b606082015260800190565b60208082526038908201527f55736572206e6565647320746f20626520616c6c6f636174656420746f20746860408201527f697320626174636820746f20636f6d6d6974206f6e2069740000000000000000606082015260800190565b6020808252602c908201527f636f756c64206e6f74207265776172642052455020696e2072657665616c537060408201526b6f74436865636b2c20312e6160a01b606082015260800190565b60208082526019908201527f6b206f72204e20617265206e6f74204f4b20666f7220524e4700000000000000604082015260600190565b6020808252601d908201527f734675656c3a206e756c6c2041646472657373204e6f742056616c6964000000604082015260600190565b6020808252818101527f576f726b657220697320616c7265616479207265676973746572656420283129604082015260600190565b60208082526025908201527f636f756c64206e6f74207265776172642052455020696e2056616c69646174656040820152642c20312e6160d81b606082015260800190565b6020808252603f908201527f436f756c64206e6f74207265717565737420656e6f75676820616c6c6f63617460408201527f6564207374616b652c2072657175657374416c6c6f63617465645374616b6500606082015260800190565b6020808252602d908201527f41646472657373206b69636b65642074656d706f726172696c792066726f6d2060408201526c3830b93a34b1b4b830ba34b7b760991b606082015260800190565b6020808252602f908201527f5573657220686173206e6f7420636f6d6d69746564206265666f72652c20746860408201526e1d5cc818d85b89dd081c995d99585b608a1b606082015260800190565b6020808252602a908201527f53706f7474696e67206973206e6f742063757272656e746c7920656e61626c656040820152693210313c9027bbb732b960b11b606082015260800190565b6020808252601c908201527f496e70757420626f756e6461726965732061726520696e76616c696400000000604082015260600190565b60208082526036908201527f476c6f62616c206c696d69743a206578636565646564206d61782064617461206040820152753832b9103437bab916103932ba393c903630ba32b91760511b606082015260800190565b60208082526039908201527f646c6c4d61703a20646f6573206e6f7420636f696e7461696e205f446174614260408201527f61746368496420666f7220746865206d73672073656e64657200000000000000606082015260800190565b6020808252602b908201527f75736572206d75737420686176652072657665616c656420696e20746869732060408201526a0ced2eccadc4084c2e8c6d60ab1b606082015260800190565b6020808252602e908201527f636f756c64206e6f74207265776172642052455020696e2056616c696461746560408201526d4461746142617463682c20322e6160901b606082015260800190565b60208082526010908201526f149391c81a5b9cdd59999a58da595b9d60821b604082015260600190565b6020808252601490820152733737ba1030903b30b634b2103837b9b4ba34b7b760611b604082015260600190565b6020808252603b908201527f43616e277420616c6c6f6361746520776f726b2c207468652063757272656e7460408201527f20626174636820697320616c726561647920616c6c6f63617465640000000000606082015260800190565b6020808252602c908201527f576f726b6572206973206e6f74207265676973746572656420736f2063616e2760408201526b3a103ab73932b3b4b9ba32b960a11b606082015260800190565b6020808252600b908201526a04e5f72616e6765203e20360ac1b604082015260600190565b6020808252818101527f4f776e61626c653a2063616c6c6572206973206e6f7420746865206f776e6572604082015260600190565b60208082526030908201527f636f756c64206e6f742072657761726420746f6b656e20696e2056616c69646160408201526f3a32a230ba30a130ba31b4161019173160811b606082015260800190565b6020808252603a908201527f5f446174614261746368496420686173206e6f7420656e6465642c206f72206e60408201527f6f7420657665727920766f74657273206861766520766f746564000000000000606082015260800190565b60208082526027908201527f636f756c64206e6f742072657761726420746f6b656e20696e2056616c6964616040820152663a32961018973160c91b606082015260800190565b6020808252818101527f576f726b657220697320616c7265616479207265676973746572656420283229604082015260600190565b60208082526022908201527f5374616b654d616e61676572206973206e756c6c20696e20506172616d657465604082015261727360f01b606082015260800190565b60208082526029908201527f6765744e756d50617373696e67546f6b656e733a20686173686573206d75737460408201526808189948195c5d585b60ba1b606082015260800190565b60208082526036908201527f43616e277420616c6c6f6361746520776f726b2c207468652063757272656e74604082015275206261746368206973206e6f7420636f6d706c65746560501b606082015260800190565b60208082526026908201527f52657665616c20706572696f64206e6f74206f70656e20666f7220746869732060408201526511185d18525160d21b606082015260800190565b60208082526027908201527f617661696c61626c65546f6b656e732073686f756c64206265203e3d205f6e756040820152666d546f6b656e7360c81b606082015260800190565b6020808252818101527f5265704d616e61676572206973206e756c6c20696e20506172616d6574657273604082015260600190565b60208082526027908201527f696e70757420617272617973206d757374206265206f662073616d65206c656e6040820152666774682028312960c81b606082015260800190565b60208082526017908201527f5f4461746142617463684964206d757374206578697374000000000000000000604082015260600190565b60208082526007908201526605f6b203e3d20360cc1b604082015260600190565b60208082526021908201527f5f446174614261746368496420697320616c72656164792076616c69646174656040820152601960fa1b606082015260800190565b60208082526029908201527f557365722068617320616c726561647920636f6d6d6974656420746f207468696040820152681cc818985d18da125960ba1b606082015260800190565b60208082526022908201527f4d6178696d756d207265676973746572656420776f726b65727320616c726561604082015261647960f01b606082015260800190565b6020808252602a908201527f5f446174614261746368496420636865636b696e6720766f7465206d757374206040820152691a185d9948195b99195960b21b606082015260800190565b6020808252603b908201527f436f756c64206e6f74207769746864726177566f74696e67526967687473207460408201527f68726f7567682050726f78795374616b654465616c6c6f636174650000000000606082015260800190565b60208082526024908201527f416464726573734d616e61676572206973206e756c6c20696e20506172616d656040820152637465727360e01b606082015260800190565b6020808252600f908201526e11185d18481b5d5cdd08195e1a5cdd608a1b604082015260600190565b6020808252602c908201527f557365722068617320616c72656164792072657665616c65642c20746875732060408201526b18d85b89dd081c995d99585b60a21b606082015260800190565b6020808252602e908201527f636f756c64206e6f742072657761726420746f6b656e20696e2072657665616c60408201526d29b837ba21b432b1b5961018973160911b606082015260800190565b60006020825282516020830152602083015160408301526040830151606083015260608301516080830152608083015161c87b60a084018261b6ba565b5060a083015161c88e60c084018261b6ba565b5060c083015161c8a160e084018261b6ba565b5060e0830151610100838101919091528301516101208084019190915283015161014080840191909152830151610160808401919091528301516101c061018080850182905261c8f56101e086018461b6c0565b908601516101a086810191909152860151909250616c7e8286018261b6ec565b93845260208401929092526040830152606082015260800190565b600060208252825160e0602084015261c94d61010084018261b6c0565b905060018060a01b03602085015116604084015260408401516060840152606084015160808401526080840151601f19808584030160a086015261c991838361b6c0565b925060a08601519150808584030160c08601525061c9af828261b6c0565b91505060c084015161c9c460e085018261b6ec565b509392505050565b9182526001600160a01b0316602082015260400190565b9182526001600160a01b031660208201526000604082015260600190565b600083825260406020830152616ace604083018461b680565b9283526020830191909152604082015260600190565b988952602089019790975260408801959095529215156060870152901515608086015260a085015260c084015260e08301526101008201526101200190565b60008f82528e60208301528d60408301528c60608301528b151560808301528a151560a083015261caa360c083018b61b6ba565b8860e08301528761010083015286610120830152856101408301526101c061016083015261cad56101c083018661b6c0565b90508361018083015261caec6101a083018461b6ec565b9f9e505050505050505050505050505050565b6000808335601e1984360301811261cb15578283fd5b8301803591506001600160401b0382111561cb2e578283fd5b602001915036819003821315613d1d57600080fd5b6040518181016001600160401b038111828210171561cb645761cb6461ccb3565b604052919050565b60006001600160401b0382111561cb855761cb8561ccb3565b5060209081020190565b6000821982111561cba25761cba261cc87565b500190565b60008261cbb65761cbb661cc9d565b500490565b600081600019048311821515161561cbd55761cbd561cc87565b500290565b60008282101561cbec5761cbec61cc87565b500390565b60005b8381101561cc0c57818101518382015260200161cbf4565b83811115613faa5750506000910152565b60028104600182168061cc3157607f821691505b6020821081141561cc5257634e487b7160e01b600052602260045260246000fd5b50919050565b600060001982141561cc6c5761cc6c61cc87565b5060010190565b60008261cc825761cc8261cc9d565b500690565b634e487b7160e01b600052601160045260246000fd5b634e487b7160e01b600052601260045260246000fd5b634e487b7160e01b600052604160045260246000fd5b6001600160a01b0381168114611e8957600080fd5b8015158114611e8957600080fdfe4b87bbd93ba65ede1e2efeca735d9f7a6720bf7d6db0a8355b17dba5b64e5783a26469706673582212202b4da1a13f153f62e0cd021404cfc383f0328fd0bea95b619448c8ee5d700c8a64736f6c63430008000033",
  "linkReferences": {
    "contracts/worksystems/DataSpotting.sol": {
      "DLL": [
        {
          "length": 20,
          "start": 8471
        },
        {
          "length": 20,
          "start": 8643
        },
        {
          "length": 20,
          "start": 13659
        },
        {
          "length": 20,
          "start": 20457
        },
        {
          "length": 20,
          "start": 20619
        },
        {
          "length": 20,
          "start": 20814
        },
        {
          "length": 20,
          "start": 22912
        },
        {
          "length": 20,
          "start": 23092
        },
        {
          "length": 20,
          "start": 36262
        }
      ]
    }
  },
  "deployedLinkReferences": {
    "contracts/worksystems/DataSpotting.sol": {
      "DLL": [
        {
          "length": 20,
          "start": 8014
        },
        {
          "length": 20,
          "start": 8186
        },
        {
          "length": 20,
          "start": 13202
        },
        {
          "length": 20,
          "start": 20000
        },
        {
          "length": 20,
          "start": 20162
        },
        {
          "length": 20,
          "start": 20357
        },
        {
          "length": 20,
          "start": 22455
        },
        {
          "length": 20,
          "start": 22635
        },
        {
          "length": 20,
          "start": 35805
        }
      ]
    }
  }
}