{
  "_format": "hh-sol-artifact-1",
  "contractName": "DataSpotting",
  "sourceName": "contracts/worksystems/DataSpotting.sol",
  "abi": [
    {
      "inputs": [
        {
          "internalType": "address",
          "name": "EXDT_token",
          "type": "address"
        }
      ],
      "stateMutability": "nonpayable",
      "type": "constructor"
    },
    {
      "anonymous": false,
      "inputs": [
        {
          "indexed": false,
          "internalType": "bytes",
          "name": "bytesFailure",
          "type": "bytes"
        }
      ],
      "name": "BytesFailure",
      "type": "event"
    },
    {
      "anonymous": false,
      "inputs": [
        {
          "indexed": true,
          "internalType": "address",
          "name": "previousOwner",
          "type": "address"
        },
        {
          "indexed": true,
          "internalType": "address",
          "name": "newOwner",
          "type": "address"
        }
      ],
      "name": "OwnershipTransferred",
      "type": "event"
    },
    {
      "anonymous": false,
      "inputs": [
        {
          "indexed": true,
          "internalType": "uint256",
          "name": "epochNumber",
          "type": "uint256"
        }
      ],
      "name": "_NewEpoch",
      "type": "event"
    },
    {
      "anonymous": false,
      "inputs": [
        {
          "indexed": false,
          "internalType": "string",
          "name": "hash",
          "type": "string"
        },
        {
          "indexed": true,
          "internalType": "address",
          "name": "creator",
          "type": "address"
        }
      ],
      "name": "_SpotAccepted",
      "type": "event"
    },
    {
      "anonymous": false,
      "inputs": [
        {
          "indexed": true,
          "internalType": "uint256",
          "name": "DataID",
          "type": "uint256"
        },
        {
          "indexed": false,
          "internalType": "uint256",
          "name": "numTokens",
          "type": "uint256"
        },
        {
          "indexed": true,
          "internalType": "address",
          "name": "voter",
          "type": "address"
        }
      ],
      "name": "_SpotCheckCommitted",
      "type": "event"
    },
    {
      "anonymous": false,
      "inputs": [
        {
          "indexed": true,
          "internalType": "uint256",
          "name": "DataID",
          "type": "uint256"
        },
        {
          "indexed": false,
          "internalType": "uint256",
          "name": "numTokens",
          "type": "uint256"
        },
        {
          "indexed": false,
          "internalType": "uint256",
          "name": "votesFor",
          "type": "uint256"
        },
        {
          "indexed": false,
          "internalType": "uint256",
          "name": "votesAgainst",
          "type": "uint256"
        },
        {
          "indexed": true,
          "internalType": "uint256",
          "name": "choice",
          "type": "uint256"
        },
        {
          "indexed": true,
          "internalType": "address",
          "name": "voter",
          "type": "address"
        }
      ],
      "name": "_SpotCheckRevealed",
      "type": "event"
    },
    {
      "anonymous": false,
      "inputs": [
        {
          "indexed": true,
          "internalType": "uint256",
          "name": "DataID",
          "type": "uint256"
        },
        {
          "indexed": false,
          "internalType": "string",
          "name": "file_hash",
          "type": "string"
        },
        {
          "indexed": false,
          "internalType": "string",
          "name": "URL_domain",
          "type": "string"
        },
        {
          "indexed": false,
          "internalType": "string[]",
          "name": "tags",
          "type": "string[]"
        },
        {
          "indexed": true,
          "internalType": "address",
          "name": "sender",
          "type": "address"
        }
      ],
      "name": "_SpotSubmitted",
      "type": "event"
    },
    {
      "anonymous": false,
      "inputs": [
        {
          "indexed": true,
          "internalType": "uint256",
          "name": "DataID",
          "type": "uint256"
        },
        {
          "indexed": true,
          "internalType": "address",
          "name": "voter",
          "type": "address"
        }
      ],
      "name": "_TokensRescued",
      "type": "event"
    },
    {
      "anonymous": false,
      "inputs": [
        {
          "indexed": false,
          "internalType": "uint256",
          "name": "numTokens",
          "type": "uint256"
        },
        {
          "indexed": true,
          "internalType": "address",
          "name": "voter",
          "type": "address"
        }
      ],
      "name": "_VotingRightsGranted",
      "type": "event"
    },
    {
      "anonymous": false,
      "inputs": [
        {
          "indexed": false,
          "internalType": "uint256",
          "name": "numTokens",
          "type": "uint256"
        },
        {
          "indexed": true,
          "internalType": "address",
          "name": "voter",
          "type": "address"
        }
      ],
      "name": "_VotingRightsWithdrawn",
      "type": "event"
    },
    {
      "anonymous": false,
      "inputs": [
        {
          "indexed": true,
          "internalType": "uint256",
          "name": "batchID",
          "type": "uint256"
        },
        {
          "indexed": false,
          "internalType": "address",
          "name": "worker",
          "type": "address"
        }
      ],
      "name": "_WorkAllocated",
      "type": "event"
    },
    {
      "anonymous": false,
      "inputs": [
        {
          "indexed": true,
          "internalType": "address",
          "name": "worker",
          "type": "address"
        },
        {
          "indexed": false,
          "internalType": "uint256",
          "name": "timestamp",
          "type": "uint256"
        }
      ],
      "name": "_WorkerRegistered",
      "type": "event"
    },
    {
      "anonymous": false,
      "inputs": [
        {
          "indexed": true,
          "internalType": "address",
          "name": "worker",
          "type": "address"
        },
        {
          "indexed": false,
          "internalType": "uint256",
          "name": "timestamp",
          "type": "uint256"
        }
      ],
      "name": "_WorkerUnregistered",
      "type": "event"
    },
    {
      "inputs": [],
      "name": "AddressManager",
      "outputs": [
        {
          "internalType": "contract IAddressManager",
          "name": "",
          "type": "address"
        }
      ],
      "stateMutability": "view",
      "type": "function"
    },
    {
      "inputs": [],
      "name": "AllTxsCounter",
      "outputs": [
        {
          "internalType": "uint256",
          "name": "",
          "type": "uint256"
        }
      ],
      "stateMutability": "view",
      "type": "function"
    },
    {
      "inputs": [],
      "name": "AllocateWork",
      "outputs": [],
      "stateMutability": "nonpayable",
      "type": "function"
    },
    {
      "inputs": [],
      "name": "AllocatedBatchCursor",
      "outputs": [
        {
          "internalType": "uint256",
          "name": "",
          "type": "uint256"
        }
      ],
      "stateMutability": "view",
      "type": "function"
    },
    {
      "inputs": [],
      "name": "AmIRegistered",
      "outputs": [
        {
          "internalType": "bool",
          "name": "passed",
          "type": "bool"
        }
      ],
      "stateMutability": "view",
      "type": "function"
    },
    {
      "inputs": [
        {
          "internalType": "string",
          "name": "_a",
          "type": "string"
        },
        {
          "internalType": "string",
          "name": "_b",
          "type": "string"
        }
      ],
      "name": "AreStringsEqual",
      "outputs": [
        {
          "internalType": "bool",
          "name": "",
          "type": "bool"
        }
      ],
      "stateMutability": "pure",
      "type": "function"
    },
    {
      "inputs": [],
      "name": "BatchCheckingCursor",
      "outputs": [
        {
          "internalType": "uint256",
          "name": "",
          "type": "uint256"
        }
      ],
      "stateMutability": "view",
      "type": "function"
    },
    {
      "inputs": [],
      "name": "COMMIT_ROUND_DURATION",
      "outputs": [
        {
          "internalType": "uint256",
          "name": "",
          "type": "uint256"
        }
      ],
      "stateMutability": "view",
      "type": "function"
    },
    {
      "inputs": [],
      "name": "CONSENSUS_WORKER_SIZE",
      "outputs": [
        {
          "internalType": "uint256",
          "name": "",
          "type": "uint256"
        }
      ],
      "stateMutability": "view",
      "type": "function"
    },
    {
      "inputs": [],
      "name": "CurrentWorkEpoch",
      "outputs": [
        {
          "internalType": "uint256",
          "name": "",
          "type": "uint256"
        }
      ],
      "stateMutability": "view",
      "type": "function"
    },
    {
      "inputs": [],
      "name": "DATA_BATCH_SIZE",
      "outputs": [
        {
          "internalType": "uint256",
          "name": "",
          "type": "uint256"
        }
      ],
      "stateMutability": "view",
      "type": "function"
    },
    {
      "inputs": [
        {
          "internalType": "uint256",
          "name": "",
          "type": "uint256"
        }
      ],
      "name": "DataBatch",
      "outputs": [
        {
          "internalType": "uint256",
          "name": "start_idx",
          "type": "uint256"
        },
        {
          "internalType": "uint256",
          "name": "end_idx",
          "type": "uint256"
        },
        {
          "internalType": "uint256",
          "name": "counter",
          "type": "uint256"
        },
        {
          "internalType": "uint256",
          "name": "unrevealed_workers",
          "type": "uint256"
        },
        {
          "internalType": "bool",
          "name": "complete",
          "type": "bool"
        },
        {
          "internalType": "bool",
          "name": "checked",
          "type": "bool"
        },
        {
          "internalType": "bool",
          "name": "allocated_to_work",
          "type": "bool"
        },
        {
          "internalType": "uint256",
          "name": "commitEndDate",
          "type": "uint256"
        },
        {
          "internalType": "uint256",
          "name": "revealEndDate",
          "type": "uint256"
        },
        {
          "internalType": "uint256",
          "name": "votesFor",
          "type": "uint256"
        },
        {
          "internalType": "uint256",
          "name": "votesAgainst",
          "type": "uint256"
        },
        {
          "internalType": "string",
          "name": "batchIPFSfile",
          "type": "string"
        },
        {
          "internalType": "enum DataSpotting.DataStatus",
          "name": "status",
          "type": "uint8"
        }
      ],
      "stateMutability": "view",
      "type": "function"
    },
    {
      "inputs": [
        {
          "internalType": "uint256",
          "name": "_DataBatchId",
          "type": "uint256"
        }
      ],
      "name": "DataCommitEndDate",
      "outputs": [
        {
          "internalType": "uint256",
          "name": "commitEndDate",
          "type": "uint256"
        }
      ],
      "stateMutability": "view",
      "type": "function"
    },
    {
      "inputs": [
        {
          "internalType": "uint256",
          "name": "_DataBatchId",
          "type": "uint256"
        }
      ],
      "name": "DataEnded",
      "outputs": [
        {
          "internalType": "bool",
          "name": "ended",
          "type": "bool"
        }
      ],
      "stateMutability": "view",
      "type": "function"
    },
    {
      "inputs": [
        {
          "internalType": "uint256",
          "name": "_DataBatchId",
          "type": "uint256"
        }
      ],
      "name": "DataExists",
      "outputs": [
        {
          "internalType": "bool",
          "name": "exists",
          "type": "bool"
        }
      ],
      "stateMutability": "view",
      "type": "function"
    },
    {
      "inputs": [],
      "name": "DataNonce",
      "outputs": [
        {
          "internalType": "uint256",
          "name": "",
          "type": "uint256"
        }
      ],
      "stateMutability": "view",
      "type": "function"
    },
    {
      "inputs": [
        {
          "internalType": "uint256",
          "name": "_DataBatchId",
          "type": "uint256"
        }
      ],
      "name": "DataRevealEndDate",
      "outputs": [
        {
          "internalType": "uint256",
          "name": "revealEndDate",
          "type": "uint256"
        }
      ],
      "stateMutability": "view",
      "type": "function"
    },
    {
      "inputs": [],
      "name": "FormattingSystem",
      "outputs": [
        {
          "internalType": "contract IFormattingSystem",
          "name": "",
          "type": "address"
        }
      ],
      "stateMutability": "view",
      "type": "function"
    },
    {
      "inputs": [
        {
          "internalType": "address",
          "name": "user_",
          "type": "address"
        }
      ],
      "name": "GetCurrentWork",
      "outputs": [
        {
          "internalType": "uint256",
          "name": "",
          "type": "uint256"
        }
      ],
      "stateMutability": "view",
      "type": "function"
    },
    {
      "inputs": [
        {
          "internalType": "address",
          "name": "user_",
          "type": "address"
        }
      ],
      "name": "IsNewWorkAvailable",
      "outputs": [
        {
          "internalType": "bool",
          "name": "",
          "type": "bool"
        }
      ],
      "stateMutability": "view",
      "type": "function"
    },
    {
      "inputs": [],
      "name": "LastBatchCounter",
      "outputs": [
        {
          "internalType": "uint256",
          "name": "",
          "type": "uint256"
        }
      ],
      "stateMutability": "view",
      "type": "function"
    },
    {
      "inputs": [],
      "name": "MIN_REP_Data",
      "outputs": [
        {
          "internalType": "uint256",
          "name": "",
          "type": "uint256"
        }
      ],
      "stateMutability": "view",
      "type": "function"
    },
    {
      "inputs": [],
      "name": "MIN_REP_REVEAL",
      "outputs": [
        {
          "internalType": "uint256",
          "name": "",
          "type": "uint256"
        }
      ],
      "stateMutability": "view",
      "type": "function"
    },
    {
      "inputs": [],
      "name": "MIN_REWARD_Data",
      "outputs": [
        {
          "internalType": "uint256",
          "name": "",
          "type": "uint256"
        }
      ],
      "stateMutability": "view",
      "type": "function"
    },
    {
      "inputs": [],
      "name": "MIN_STAKE",
      "outputs": [
        {
          "internalType": "uint256",
          "name": "",
          "type": "uint256"
        }
      ],
      "stateMutability": "view",
      "type": "function"
    },
    {
      "inputs": [
        {
          "internalType": "address",
          "name": "",
          "type": "address"
        },
        {
          "internalType": "uint256",
          "name": "",
          "type": "uint256"
        }
      ],
      "name": "MasterWorkers",
      "outputs": [
        {
          "internalType": "address",
          "name": "",
          "type": "address"
        }
      ],
      "stateMutability": "view",
      "type": "function"
    },
    {
      "inputs": [],
      "name": "REVEAL_ROUND_DURATION",
      "outputs": [
        {
          "internalType": "uint256",
          "name": "",
          "type": "uint256"
        }
      ],
      "stateMutability": "view",
      "type": "function"
    },
    {
      "inputs": [],
      "name": "RegisterWorker",
      "outputs": [],
      "stateMutability": "nonpayable",
      "type": "function"
    },
    {
      "inputs": [],
      "name": "RepManager",
      "outputs": [
        {
          "internalType": "contract IRepManager",
          "name": "",
          "type": "address"
        }
      ],
      "stateMutability": "view",
      "type": "function"
    },
    {
      "inputs": [],
      "name": "RewardManager",
      "outputs": [
        {
          "internalType": "contract IRewardManager",
          "name": "",
          "type": "address"
        }
      ],
      "stateMutability": "view",
      "type": "function"
    },
    {
      "inputs": [],
      "name": "SPOT_CHECK_VOTE_QUORUM",
      "outputs": [
        {
          "internalType": "uint256",
          "name": "",
          "type": "uint256"
        }
      ],
      "stateMutability": "view",
      "type": "function"
    },
    {
      "inputs": [
        {
          "internalType": "string[]",
          "name": "file_hashs",
          "type": "string[]"
        },
        {
          "internalType": "address",
          "name": "main_worker_account",
          "type": "address"
        },
        {
          "internalType": "string[]",
          "name": "URL_domains",
          "type": "string[]"
        },
        {
          "internalType": "string[]",
          "name": "tags_",
          "type": "string[]"
        },
        {
          "internalType": "uint256[]",
          "name": "tags_id_",
          "type": "uint256[]"
        },
        {
          "internalType": "string",
          "name": "extra_",
          "type": "string"
        }
      ],
      "name": "SpotData",
      "outputs": [
        {
          "internalType": "uint256",
          "name": "Dataid_",
          "type": "uint256"
        }
      ],
      "stateMutability": "nonpayable",
      "type": "function"
    },
    {
      "inputs": [
        {
          "internalType": "address",
          "name": "",
          "type": "address"
        }
      ],
      "name": "SpotStakedTokenBalance",
      "outputs": [
        {
          "internalType": "uint256",
          "name": "",
          "type": "uint256"
        }
      ],
      "stateMutability": "view",
      "type": "function"
    },
    {
      "inputs": [
        {
          "internalType": "uint256",
          "name": "",
          "type": "uint256"
        }
      ],
      "name": "SpotsMapping",
      "outputs": [
        {
          "internalType": "string",
          "name": "ipfs_hash",
          "type": "string"
        },
        {
          "internalType": "address",
          "name": "author",
          "type": "address"
        },
        {
          "internalType": "uint256",
          "name": "timestamp",
          "type": "uint256"
        },
        {
          "internalType": "string",
          "name": "URL_domain",
          "type": "string"
        },
        {
          "internalType": "string",
          "name": "extra",
          "type": "string"
        },
        {
          "internalType": "enum DataSpotting.DataStatus",
          "name": "status",
          "type": "uint8"
        }
      ],
      "stateMutability": "view",
      "type": "function"
    },
    {
      "inputs": [],
      "name": "StakeManager",
      "outputs": [
        {
          "internalType": "contract IStakeManager",
          "name": "",
          "type": "address"
        }
      ],
      "stateMutability": "view",
      "type": "function"
    },
    {
      "inputs": [],
      "name": "TriggerNextEpoch",
      "outputs": [],
      "stateMutability": "nonpayable",
      "type": "function"
    },
    {
      "inputs": [],
      "name": "UnregisterWorker",
      "outputs": [],
      "stateMutability": "nonpayable",
      "type": "function"
    },
    {
      "inputs": [
        {
          "internalType": "address",
          "name": "",
          "type": "address"
        },
        {
          "internalType": "uint256",
          "name": "",
          "type": "uint256"
        }
      ],
      "name": "UserChecksCommits",
      "outputs": [
        {
          "internalType": "bool",
          "name": "",
          "type": "bool"
        }
      ],
      "stateMutability": "view",
      "type": "function"
    },
    {
      "inputs": [
        {
          "internalType": "address",
          "name": "",
          "type": "address"
        },
        {
          "internalType": "uint256",
          "name": "",
          "type": "uint256"
        }
      ],
      "name": "UserChecksReveals",
      "outputs": [
        {
          "internalType": "bool",
          "name": "",
          "type": "bool"
        }
      ],
      "stateMutability": "view",
      "type": "function"
    },
    {
      "inputs": [
        {
          "internalType": "uint256",
          "name": "",
          "type": "uint256"
        },
        {
          "internalType": "address",
          "name": "",
          "type": "address"
        }
      ],
      "name": "UserNewFiles",
      "outputs": [
        {
          "internalType": "string",
          "name": "",
          "type": "string"
        }
      ],
      "stateMutability": "view",
      "type": "function"
    },
    {
      "inputs": [
        {
          "internalType": "uint256",
          "name": "",
          "type": "uint256"
        },
        {
          "internalType": "address",
          "name": "",
          "type": "address"
        }
      ],
      "name": "UserVotes",
      "outputs": [
        {
          "internalType": "uint256",
          "name": "",
          "type": "uint256"
        }
      ],
      "stateMutability": "view",
      "type": "function"
    },
    {
      "inputs": [
        {
          "internalType": "uint256",
          "name": "",
          "type": "uint256"
        },
        {
          "internalType": "uint256",
          "name": "",
          "type": "uint256"
        }
      ],
      "name": "WorkersPerBatch",
      "outputs": [
        {
          "internalType": "address",
          "name": "",
          "type": "address"
        }
      ],
      "stateMutability": "view",
      "type": "function"
    },
    {
      "inputs": [
        {
          "internalType": "address",
          "name": "",
          "type": "address"
        }
      ],
      "name": "WorkersState",
      "outputs": [
        {
          "internalType": "address",
          "name": "worker_address",
          "type": "address"
        },
        {
          "internalType": "address",
          "name": "master_address",
          "type": "address"
        },
        {
          "internalType": "uint256",
          "name": "allocated_work_batch",
          "type": "uint256"
        },
        {
          "internalType": "bool",
          "name": "has_completed_work",
          "type": "bool"
        },
        {
          "internalType": "uint256",
          "name": "last_worked_round",
          "type": "uint256"
        },
        {
          "internalType": "uint256",
          "name": "last_interaction_date",
          "type": "uint256"
        },
        {
          "internalType": "string",
          "name": "extra",
          "type": "string"
        },
        {
          "internalType": "bool",
          "name": "registered",
          "type": "bool"
        },
        {
          "internalType": "uint256",
          "name": "registration_date",
          "type": "uint256"
        }
      ],
      "stateMutability": "view",
      "type": "function"
    },
    {
      "inputs": [
        {
          "internalType": "address",
          "name": "_user",
          "type": "address"
        },
        {
          "internalType": "uint256",
          "name": "_DataBatchId",
          "type": "uint256"
        }
      ],
      "name": "attrUUID",
      "outputs": [
        {
          "internalType": "bytes32",
          "name": "UUID",
          "type": "bytes32"
        }
      ],
      "stateMutability": "pure",
      "type": "function"
    },
    {
      "inputs": [
        {
          "internalType": "uint256",
          "name": "",
          "type": "uint256"
        }
      ],
      "name": "availableWorkers",
      "outputs": [
        {
          "internalType": "address",
          "name": "",
          "type": "address"
        }
      ],
      "stateMutability": "view",
      "type": "function"
    },
    {
      "inputs": [
        {
          "internalType": "uint256",
          "name": "",
          "type": "uint256"
        }
      ],
      "name": "busyWorkers",
      "outputs": [
        {
          "internalType": "address",
          "name": "",
          "type": "address"
        }
      ],
      "stateMutability": "view",
      "type": "function"
    },
    {
      "inputs": [
        {
          "internalType": "uint256",
          "name": "_DataBatchId",
          "type": "uint256"
        }
      ],
      "name": "commitPeriodActive",
      "outputs": [
        {
          "internalType": "bool",
          "name": "active",
          "type": "bool"
        }
      ],
      "stateMutability": "view",
      "type": "function"
    },
    {
      "inputs": [
        {
          "internalType": "uint256",
          "name": "_DataBatchId",
          "type": "uint256"
        },
        {
          "internalType": "bytes32",
          "name": "_secretHash",
          "type": "bytes32"
        },
        {
          "internalType": "string",
          "name": "newIPFSHash",
          "type": "string"
        }
      ],
      "name": "commitSpotCheck",
      "outputs": [],
      "stateMutability": "nonpayable",
      "type": "function"
    },
    {
      "inputs": [
        {
          "internalType": "uint256",
          "name": "_DataId",
          "type": "uint256"
        }
      ],
      "name": "deleteData",
      "outputs": [],
      "stateMutability": "nonpayable",
      "type": "function"
    },
    {
      "inputs": [
        {
          "internalType": "uint256",
          "name": "_BatchId",
          "type": "uint256"
        }
      ],
      "name": "deleteDataBatch",
      "outputs": [],
      "stateMutability": "nonpayable",
      "type": "function"
    },
    {
      "inputs": [
        {
          "internalType": "address",
          "name": "_voter",
          "type": "address"
        },
        {
          "internalType": "uint256",
          "name": "_DataBatchId",
          "type": "uint256"
        }
      ],
      "name": "didCommit",
      "outputs": [
        {
          "internalType": "bool",
          "name": "committed",
          "type": "bool"
        }
      ],
      "stateMutability": "view",
      "type": "function"
    },
    {
      "inputs": [
        {
          "internalType": "address",
          "name": "_voter",
          "type": "address"
        },
        {
          "internalType": "uint256",
          "name": "_DataBatchId",
          "type": "uint256"
        }
      ],
      "name": "didReveal",
      "outputs": [
        {
          "internalType": "bool",
          "name": "revealed",
          "type": "bool"
        }
      ],
      "stateMutability": "view",
      "type": "function"
    },
    {
      "inputs": [
        {
          "internalType": "uint256",
          "name": "_k",
          "type": "uint256"
        },
        {
          "internalType": "uint256",
          "name": "N_range",
          "type": "uint256"
        }
      ],
      "name": "generateIntegers",
      "outputs": [
        {
          "internalType": "uint256[]",
          "name": "",
          "type": "uint256[]"
        }
      ],
      "stateMutability": "view",
      "type": "function"
    },
    {
      "inputs": [],
      "name": "getActiveWorkersCount",
      "outputs": [
        {
          "internalType": "uint256",
          "name": "numWorkers",
          "type": "uint256"
        }
      ],
      "stateMutability": "view",
      "type": "function"
    },
    {
      "inputs": [
        {
          "internalType": "uint256",
          "name": "_DataBatchId",
          "type": "uint256"
        }
      ],
      "name": "getBatchByID",
      "outputs": [
        {
          "components": [
            {
              "internalType": "uint256",
              "name": "start_idx",
              "type": "uint256"
            },
            {
              "internalType": "uint256",
              "name": "end_idx",
              "type": "uint256"
            },
            {
              "internalType": "uint256",
              "name": "counter",
              "type": "uint256"
            },
            {
              "internalType": "uint256",
              "name": "unrevealed_workers",
              "type": "uint256"
            },
            {
              "internalType": "bool",
              "name": "complete",
              "type": "bool"
            },
            {
              "internalType": "bool",
              "name": "checked",
              "type": "bool"
            },
            {
              "internalType": "bool",
              "name": "allocated_to_work",
              "type": "bool"
            },
            {
              "internalType": "uint256",
              "name": "commitEndDate",
              "type": "uint256"
            },
            {
              "internalType": "uint256",
              "name": "revealEndDate",
              "type": "uint256"
            },
            {
              "internalType": "uint256",
              "name": "votesFor",
              "type": "uint256"
            },
            {
              "internalType": "uint256",
              "name": "votesAgainst",
              "type": "uint256"
            },
            {
              "internalType": "string",
              "name": "batchIPFSfile",
              "type": "string"
            },
            {
              "internalType": "enum DataSpotting.DataStatus",
              "name": "status",
              "type": "uint8"
            },
            {
              "internalType": "string[]",
              "name": "flags",
              "type": "string[]"
            },
            {
              "internalType": "uint256[]",
              "name": "flags_id",
              "type": "uint256[]"
            }
          ],
          "internalType": "struct DataSpotting.BatchMetadata",
          "name": "batch",
          "type": "tuple"
        }
      ],
      "stateMutability": "view",
      "type": "function"
    },
    {
      "inputs": [
        {
          "internalType": "uint256",
          "name": "_DataBatchId",
          "type": "uint256"
        }
      ],
      "name": "getBatchIPFSFileByID",
      "outputs": [
        {
          "internalType": "string",
          "name": "batch",
          "type": "string"
        }
      ],
      "stateMutability": "view",
      "type": "function"
    },
    {
      "inputs": [],
      "name": "getBlockTimestamp",
      "outputs": [
        {
          "internalType": "uint256",
          "name": "blocktimestamp",
          "type": "uint256"
        }
      ],
      "stateMutability": "view",
      "type": "function"
    },
    {
      "inputs": [
        {
          "internalType": "address",
          "name": "_voter",
          "type": "address"
        },
        {
          "internalType": "uint256",
          "name": "_DataBatchId",
          "type": "uint256"
        }
      ],
      "name": "getCommitHash",
      "outputs": [
        {
          "internalType": "bytes32",
          "name": "commitHash",
          "type": "bytes32"
        }
      ],
      "stateMutability": "view",
      "type": "function"
    },
    {
      "inputs": [],
      "name": "getCurrentWorkEpoch",
      "outputs": [
        {
          "internalType": "uint256",
          "name": "WorkEpoch",
          "type": "uint256"
        }
      ],
      "stateMutability": "view",
      "type": "function"
    },
    {
      "inputs": [
        {
          "internalType": "uint256",
          "name": "_DataId",
          "type": "uint256"
        }
      ],
      "name": "getDataByID",
      "outputs": [
        {
          "components": [
            {
              "internalType": "string",
              "name": "ipfs_hash",
              "type": "string"
            },
            {
              "internalType": "address",
              "name": "author",
              "type": "address"
            },
            {
              "internalType": "uint256",
              "name": "timestamp",
              "type": "uint256"
            },
            {
              "internalType": "string",
              "name": "URL_domain",
              "type": "string"
            },
            {
              "internalType": "string[]",
              "name": "tags",
              "type": "string[]"
            },
            {
              "internalType": "uint256[]",
              "name": "tags_id",
              "type": "uint256[]"
            },
            {
              "internalType": "string",
              "name": "extra",
              "type": "string"
            },
            {
              "internalType": "enum DataSpotting.DataStatus",
              "name": "status",
              "type": "uint8"
            }
          ],
          "internalType": "struct DataSpotting.SpottedData",
          "name": "data",
          "type": "tuple"
        }
      ],
      "stateMutability": "view",
      "type": "function"
    },
    {
      "inputs": [
        {
          "internalType": "uint256",
          "name": "_DataBatchId",
          "type": "uint256"
        }
      ],
      "name": "getDomainsForBatch",
      "outputs": [
        {
          "internalType": "string[]",
          "name": "",
          "type": "string[]"
        }
      ],
      "stateMutability": "view",
      "type": "function"
    },
    {
      "inputs": [
        {
          "internalType": "uint256",
          "name": "_voteOption",
          "type": "uint256"
        },
        {
          "internalType": "uint256",
          "name": "_salt",
          "type": "uint256"
        }
      ],
      "name": "getEncryptedHash",
      "outputs": [
        {
          "internalType": "bytes32",
          "name": "keccak256hash",
          "type": "bytes32"
        }
      ],
      "stateMutability": "pure",
      "type": "function"
    },
    {
      "inputs": [
        {
          "internalType": "uint256",
          "name": "a",
          "type": "uint256"
        },
        {
          "internalType": "uint256",
          "name": "b",
          "type": "uint256"
        }
      ],
      "name": "getHash",
      "outputs": [
        {
          "internalType": "bytes32",
          "name": "keccak256hash",
          "type": "bytes32"
        }
      ],
      "stateMutability": "pure",
      "type": "function"
    },
    {
      "inputs": [
        {
          "internalType": "uint256",
          "name": "_DataBatchId",
          "type": "uint256"
        }
      ],
      "name": "getIPFShashesForBatch",
      "outputs": [
        {
          "internalType": "string[]",
          "name": "",
          "type": "string[]"
        }
      ],
      "stateMutability": "view",
      "type": "function"
    },
    {
      "inputs": [
        {
          "internalType": "address",
          "name": "_voter",
          "type": "address"
        },
        {
          "internalType": "uint256",
          "name": "_numTokens",
          "type": "uint256"
        },
        {
          "internalType": "uint256",
          "name": "_DataBatchId",
          "type": "uint256"
        }
      ],
      "name": "getInsertPointForNumTokens",
      "outputs": [
        {
          "internalType": "uint256",
          "name": "prevNode",
          "type": "uint256"
        }
      ],
      "stateMutability": "view",
      "type": "function"
    },
    {
      "inputs": [],
      "name": "getLastBatchId",
      "outputs": [
        {
          "internalType": "uint256",
          "name": "LastBatchId",
          "type": "uint256"
        }
      ],
      "stateMutability": "view",
      "type": "function"
    },
    {
      "inputs": [],
      "name": "getLastCheckedBatchId",
      "outputs": [
        {
          "internalType": "uint256",
          "name": "LastCheckedBatchId",
          "type": "uint256"
        }
      ],
      "stateMutability": "view",
      "type": "function"
    },
    {
      "inputs": [],
      "name": "getLastDataId",
      "outputs": [
        {
          "internalType": "uint256",
          "name": "DataId",
          "type": "uint256"
        }
      ],
      "stateMutability": "view",
      "type": "function"
    },
    {
      "inputs": [
        {
          "internalType": "address",
          "name": "_voter",
          "type": "address"
        }
      ],
      "name": "getLastNode",
      "outputs": [
        {
          "internalType": "uint256",
          "name": "DataID",
          "type": "uint256"
        }
      ],
      "stateMutability": "view",
      "type": "function"
    },
    {
      "inputs": [
        {
          "internalType": "address",
          "name": "user",
          "type": "address"
        }
      ],
      "name": "getLastUserDataId",
      "outputs": [
        {
          "internalType": "uint256",
          "name": "DataId",
          "type": "uint256"
        }
      ],
      "stateMutability": "view",
      "type": "function"
    },
    {
      "inputs": [
        {
          "internalType": "address",
          "name": "_voter",
          "type": "address"
        }
      ],
      "name": "getLockedTokens",
      "outputs": [
        {
          "internalType": "uint256",
          "name": "numTokens",
          "type": "uint256"
        }
      ],
      "stateMutability": "view",
      "type": "function"
    },
    {
      "inputs": [
        {
          "internalType": "address",
          "name": "_voter",
          "type": "address"
        },
        {
          "internalType": "uint256",
          "name": "_DataBatchId",
          "type": "uint256"
        },
        {
          "internalType": "uint256",
          "name": "_salt",
          "type": "uint256"
        }
      ],
      "name": "getNumPassingTokens",
      "outputs": [
        {
          "internalType": "uint256",
          "name": "correctSpotChecks",
          "type": "uint256"
        }
      ],
      "stateMutability": "view",
      "type": "function"
    },
    {
      "inputs": [
        {
          "internalType": "address",
          "name": "_voter",
          "type": "address"
        },
        {
          "internalType": "uint256",
          "name": "_DataBatchId",
          "type": "uint256"
        }
      ],
      "name": "getNumTokens",
      "outputs": [
        {
          "internalType": "uint256",
          "name": "numTokens",
          "type": "uint256"
        }
      ],
      "stateMutability": "view",
      "type": "function"
    },
    {
      "inputs": [],
      "name": "getRandom",
      "outputs": [
        {
          "internalType": "uint256",
          "name": "",
          "type": "uint256"
        }
      ],
      "stateMutability": "view",
      "type": "function"
    },
    {
      "inputs": [],
      "name": "getSeed",
      "outputs": [
        {
          "internalType": "bytes32",
          "name": "addr",
          "type": "bytes32"
        }
      ],
      "stateMutability": "view",
      "type": "function"
    },
    {
      "inputs": [
        {
          "internalType": "uint256",
          "name": "_DataBatchId",
          "type": "uint256"
        }
      ],
      "name": "getTotalNumberOfSpotChecks",
      "outputs": [
        {
          "internalType": "uint256",
          "name": "vc",
          "type": "uint256"
        }
      ],
      "stateMutability": "view",
      "type": "function"
    },
    {
      "inputs": [
        {
          "internalType": "uint256",
          "name": "_DataBatchId",
          "type": "uint256"
        }
      ],
      "name": "getTotalNumberOfTokensForWinningOption",
      "outputs": [
        {
          "internalType": "uint256",
          "name": "numTokens",
          "type": "uint256"
        }
      ],
      "stateMutability": "view",
      "type": "function"
    },
    {
      "inputs": [],
      "name": "getTxCounter",
      "outputs": [
        {
          "internalType": "uint256",
          "name": "Counter",
          "type": "uint256"
        }
      ],
      "stateMutability": "view",
      "type": "function"
    },
    {
      "inputs": [
        {
          "internalType": "address",
          "name": "user",
          "type": "address"
        }
      ],
      "name": "getUserDatas",
      "outputs": [
        {
          "internalType": "uint256[]",
          "name": "user_Datas",
          "type": "uint256[]"
        }
      ],
      "stateMutability": "view",
      "type": "function"
    },
    {
      "inputs": [
        {
          "internalType": "uint256",
          "name": "_terminationDate",
          "type": "uint256"
        }
      ],
      "name": "isExpired",
      "outputs": [
        {
          "internalType": "bool",
          "name": "expired",
          "type": "bool"
        }
      ],
      "stateMutability": "view",
      "type": "function"
    },
    {
      "inputs": [
        {
          "internalType": "uint256",
          "name": "_DataBatchId",
          "type": "uint256"
        }
      ],
      "name": "isPassed",
      "outputs": [
        {
          "internalType": "bool",
          "name": "passed",
          "type": "bool"
        }
      ],
      "stateMutability": "view",
      "type": "function"
    },
    {
      "inputs": [
        {
          "internalType": "address",
          "name": "_worker",
          "type": "address"
        }
      ],
      "name": "isWorkerRegistered",
      "outputs": [
        {
          "internalType": "bool",
          "name": "passed",
          "type": "bool"
        }
      ],
      "stateMutability": "view",
      "type": "function"
    },
    {
      "inputs": [],
      "name": "owner",
      "outputs": [
        {
          "internalType": "address",
          "name": "",
          "type": "address"
        }
      ],
      "stateMutability": "view",
      "type": "function"
    },
    {
      "inputs": [
        {
          "internalType": "uint256",
          "name": "k",
          "type": "uint256"
        },
        {
          "internalType": "uint256",
          "name": "N",
          "type": "uint256"
        }
      ],
      "name": "random_selection",
      "outputs": [
        {
          "internalType": "uint256[]",
          "name": "",
          "type": "uint256[]"
        }
      ],
      "stateMutability": "view",
      "type": "function"
    },
    {
      "inputs": [],
      "name": "renounceOwnership",
      "outputs": [],
      "stateMutability": "nonpayable",
      "type": "function"
    },
    {
      "inputs": [
        {
          "internalType": "uint256",
          "name": "_numTokens",
          "type": "uint256"
        }
      ],
      "name": "requestVotingRights",
      "outputs": [],
      "stateMutability": "nonpayable",
      "type": "function"
    },
    {
      "inputs": [
        {
          "internalType": "uint256",
          "name": "_DataBatchId",
          "type": "uint256"
        }
      ],
      "name": "rescueTokens",
      "outputs": [],
      "stateMutability": "nonpayable",
      "type": "function"
    },
    {
      "inputs": [
        {
          "internalType": "uint256[]",
          "name": "_DataBatchIDs",
          "type": "uint256[]"
        }
      ],
      "name": "rescueTokensInMultipleDatas",
      "outputs": [],
      "stateMutability": "nonpayable",
      "type": "function"
    },
    {
      "inputs": [
        {
          "internalType": "uint256",
          "name": "_DataBatchId",
          "type": "uint256"
        }
      ],
      "name": "revealPeriodActive",
      "outputs": [
        {
          "internalType": "bool",
          "name": "active",
          "type": "bool"
        }
      ],
      "stateMutability": "view",
      "type": "function"
    },
    {
      "inputs": [
        {
          "internalType": "uint256",
          "name": "_DataBatchId",
          "type": "uint256"
        },
        {
          "internalType": "uint256",
          "name": "_voteOption",
          "type": "uint256"
        },
        {
          "internalType": "uint256",
          "name": "_salt",
          "type": "uint256"
        }
      ],
      "name": "revealSpotCheck",
      "outputs": [],
      "stateMutability": "nonpayable",
      "type": "function"
    },
    {
      "inputs": [],
      "name": "sFuel",
      "outputs": [
        {
          "internalType": "address",
          "name": "",
          "type": "address"
        }
      ],
      "stateMutability": "view",
      "type": "function"
    },
    {
      "inputs": [
        {
          "internalType": "uint256",
          "name": "N",
          "type": "uint256"
        }
      ],
      "name": "shuffle_array",
      "outputs": [
        {
          "internalType": "uint256[]",
          "name": "",
          "type": "uint256[]"
        }
      ],
      "stateMutability": "view",
      "type": "function"
    },
    {
      "inputs": [],
      "name": "token",
      "outputs": [
        {
          "internalType": "contract IERC20",
          "name": "",
          "type": "address"
        }
      ],
      "stateMutability": "view",
      "type": "function"
    },
    {
      "inputs": [
        {
          "internalType": "address",
          "name": "newOwner",
          "type": "address"
        }
      ],
      "name": "transferOwnership",
      "outputs": [],
      "stateMutability": "nonpayable",
      "type": "function"
    },
    {
      "inputs": [
        {
          "internalType": "address",
          "name": "addr",
          "type": "address"
        }
      ],
      "name": "updateAddressManager",
      "outputs": [],
      "stateMutability": "nonpayable",
      "type": "function"
    },
    {
      "inputs": [
        {
          "internalType": "uint256",
          "name": "COMMIT_ROUND_DURATION_",
          "type": "uint256"
        }
      ],
      "name": "updateCommitRoundDuration",
      "outputs": [],
      "stateMutability": "nonpayable",
      "type": "function"
    },
    {
      "inputs": [
        {
          "internalType": "uint256",
          "name": "CONSENSUS_WORKER_SIZE_",
          "type": "uint256"
        }
      ],
      "name": "updateConsensusSize",
      "outputs": [],
      "stateMutability": "nonpayable",
      "type": "function"
    },
    {
      "inputs": [
        {
          "internalType": "uint256",
          "name": "size",
          "type": "uint256"
        }
      ],
      "name": "updateDataBachSize",
      "outputs": [],
      "stateMutability": "nonpayable",
      "type": "function"
    },
    {
      "inputs": [
        {
          "internalType": "address",
          "name": "addr",
          "type": "address"
        }
      ],
      "name": "updateFormattingSystem",
      "outputs": [],
      "stateMutability": "nonpayable",
      "type": "function"
    },
    {
      "inputs": [
        {
          "internalType": "address",
          "name": "addr",
          "type": "address"
        }
      ],
      "name": "updateRepManager",
      "outputs": [],
      "stateMutability": "nonpayable",
      "type": "function"
    },
    {
      "inputs": [
        {
          "internalType": "uint256",
          "name": "REVEAL_ROUND_DURATION_",
          "type": "uint256"
        }
      ],
      "name": "updateRevealRoundDuration",
      "outputs": [],
      "stateMutability": "nonpayable",
      "type": "function"
    },
    {
      "inputs": [
        {
          "internalType": "address",
          "name": "addr",
          "type": "address"
        }
      ],
      "name": "updateRewardManager",
      "outputs": [],
      "stateMutability": "nonpayable",
      "type": "function"
    },
    {
      "inputs": [
        {
          "internalType": "address",
          "name": "addr",
          "type": "address"
        }
      ],
      "name": "updateStakeManager",
      "outputs": [],
      "stateMutability": "nonpayable",
      "type": "function"
    },
    {
      "inputs": [
        {
          "internalType": "address",
          "name": "",
          "type": "address"
        },
        {
          "internalType": "uint256",
          "name": "",
          "type": "uint256"
        }
      ],
      "name": "userSubmissions",
      "outputs": [
        {
          "internalType": "uint256",
          "name": "",
          "type": "uint256"
        }
      ],
      "stateMutability": "view",
      "type": "function"
    },
    {
      "inputs": [
        {
          "internalType": "uint256",
          "name": "_prevID",
          "type": "uint256"
        },
        {
          "internalType": "uint256",
          "name": "_nextID",
          "type": "uint256"
        },
        {
          "internalType": "address",
          "name": "_voter",
          "type": "address"
        },
        {
          "internalType": "uint256",
          "name": "_numTokens",
          "type": "uint256"
        }
      ],
      "name": "validPosition",
      "outputs": [
        {
          "internalType": "bool",
          "name": "APPROVED",
          "type": "bool"
        }
      ],
      "stateMutability": "view",
      "type": "function"
    },
    {
      "inputs": [
        {
          "internalType": "uint256",
          "name": "_numTokens",
          "type": "uint256"
        }
      ],
      "name": "withdrawVotingRights",
      "outputs": [],
      "stateMutability": "nonpayable",
      "type": "function"
    }
  ],
  "bytecode": "0x6080604052600360019081556005600255670de0b6b3a7640000600681905560075568015af1d78b58c40000600855603c600955600060108190556011819055601a80546001600160a01b0319167314f52f3fc010ab6ca81568d4a6794d5eab3c6155179055601b829055601c829055601d91909155601f553480156200008557600080fd5b50604051620080cd380380620080cd833981016040819052620000a89162000152565b620000bc620000b6620000fe565b62000102565b602080546001600160a01b0319166001600160a01b0392909216919091179055600060115568015af1d78b58c4000060035560b4600481905560055562000182565b3390565b600080546001600160a01b038381166001600160a01b0319831681178455604051919092169283917f8be0079c531659141344cd1fd0a4f28419497f9722a3daafe3b4186f6b6457e09190a35050565b60006020828403121562000164578081fd5b81516001600160a01b03811681146200017b578182fd5b9392505050565b617f3b80620001926000396000f3fe608060405234801561001057600080fd5b506004361061063e5760003560e01c80638df0296e11610336578063d420ec0b116101c3578063e798a7da1161010f578063f3438946116100ad578063f721de4a11610087578063f721de4a14610ce9578063f80a23fd14610cfc578063fc0c546a14610d04578063fca4956314610d0c5761063e565b8063f343894614610cc6578063f5ae7c7d14610cd9578063f716596d14610ce15761063e565b8063ed8becfa116100e9578063ed8becfa14610c90578063ef4fcdad14610ca3578063f2d9e74d14610cab578063f2fde38b14610cb35761063e565b8063e798a7da14610c57578063e7b1d43c14610c6a578063e8e9b6f914610c7d5761063e565b8063d9845fb81161017c578063df05368e11610156578063df05368e14610c16578063e44c974b14610c29578063e604c12714610c3c578063e7805f9e14610c4f5761063e565b8063d9845fb814610bd0578063d9966ae814610bf0578063dd61868214610c035761063e565b8063d420ec0b14610b69578063d6b0206c14610b7c578063d822ce0114610b84578063d8b7567414610b97578063d901402b14610baa578063d9548e5314610bbd5761063e565b8063ab43e78d11610282578063b8f011b31161023b578063c7c063fb11610215578063c7c063fb14610b33578063c9b03a7214610b46578063cb1c2b5c14610b4e578063d138209214610b565761063e565b8063b8f011b314610afa578063c47c4bc214610b0d578063c4e4f82a14610b205761063e565b8063ab43e78d14610aa6578063b1a2e0be14610aae578063b1cf4a7e14610704578063b1d7ea9814610ac1578063b43bd06914610ad4578063b7e4eba914610ae75761063e565b8063a25236fe116102ef578063a7f830f4116102c9578063a7f830f414610a65578063a905779014610a78578063aa7ca46414610a8b578063aacc5a1714610a9e5761063e565b8063a25236fe14610a37578063a4439dc514610a4a578063a511dba014610a5d5761063e565b80638df0296e146109d057806397603560146109e35780639acb75c1146109f65780639b7e0180146109fe5780639fc9c52f14610a11578063a1103f3714610a245761063e565b80634fe8b4c1116104cf5780637827e5491161041b578063819b0293116103b95780638473850b116103935780638473850b146109905780638c89d027146109985780638d289f8f146109c05780638da5cb5b146109c85761063e565b8063819b029314610962578063821aa8c01461097557806383cc6ef2146109885761063e565b80637d050526116103f55780637d050526146109085780637f9510a21461091b5780637f97e836146109235780637fabe35b146109365761063e565b80637827e549146108f0578063796b89b9146108f85780637a34da67146109005761063e565b80635fd87909116104885780636b2d95d4116104625780636b2d95d4146108ba578063715018a6146108cd57806371880b1b146108d557806376e8ea4f146108e85761063e565b80635fd87909146108975780636371d81f1461089f578063667bf0f8146108b25761063e565b80634fe8b4c114610821578063515535e81461083457806351912f291461083c578063579db71c1461084457806358002158146108645780635a452943146108775761063e565b80632c0520311161058e578063354dae4011610547578063427fa1d211610521578063427fa1d2146107e0578063441c77c0146107f357806347fe2d2014610806578063494031831461080e5761063e565b8063354dae40146107c857806339e7357c146107d05780633ad2131f146107d85761063e565b80632c052031146107545780632d917c68146107675780632f469fd11461077a578063313066ee1461079a57806332ac1ba2146107a25780633538af82146107b55761063e565b80630e6661a7116105fb5780631b855044116105d55780631b85504414610704578063226ed30014610717578063275c25901461073757806329a47bc71461073f5761063e565b80630e6661a7146106d45780630e670feb146106dc57806319d90346146106e45761063e565b8063035fbb551461064357806304dbcda714610658578063050eb2eb14610676578063053e71a6146106895780630b16d9451461069c5780630b96c5b0146106af575b600080fd5b610656610651366004616aec565b610d1f565b005b610660611003565b60405161066d9190616ca7565b60405180910390f35b6106566106843660046167e6565b611009565b6106606106973660046169ee565b61106a565b6106606106aa36600461685b565b6110d0565b6106c26106bd3660046169ee565b611415565b60405161066d96959493929190616d96565b6106606115f2565b6106606115f8565b6106f76106f23660046169ee565b6115fe565b60405161066d9190616d52565b610660610712366004616a8f565b611a46565b61072a6107253660046169ee565b611a7a565b60405161066d9190616d78565b610656611abc565b610747611bcb565b60405161066d9190616cda565b610660610762366004616829565b611bda565b61072a610775366004616800565b611d77565b61078d610788366004616a17565b611d97565b60405161066d9190616d83565b610660611e3c565b6106606107b03660046169ee565b611e42565b6107476107c33660046169ee565b611e66565b610656611e90565b610660611fd0565b610660611fed565b6106606107ee3660046167e6565b611ff3565b61072a6108013660046169ee565b612093565b6106606120ed565b61072a61081c3660046169ee565b6120f3565b61065661082f3660046169ee565b6123e4565b61066061249e565b6107476124a4565b6108576108523660046167e6565b6124b3565b60405161066d9190616d65565b6106566108723660046169ee565b61251f565b61088a6108853660046169ee565b612563565b60405161066d9190617b8d565b6106606128e0565b6106566108ad3660046169ee565b6128e6565b6106566129bf565b6106606108c83660046167e6565b612db5565b610656612dc4565b6106606108e33660046169ee565b612e0f565b610660612e4c565b610660612e52565b610660612e58565b610747612e5c565b6106566109163660046167e6565b612e6b565b610660612ecc565b61072a610931366004616800565b612ee3565b6109496109443660046169ee565b612f36565b60405161066d9d9c9b9a99989796959493929190617ca8565b61072a610970366004616ab0565b61302f565b6107476109833660046169ee565b61306d565b61074761307d565b61066061308c565b6109ab6109a63660046167e6565b613092565b60405161066d99989796959493929190616cee565b61074761317a565b610747613189565b6107476109de366004616a8f565b613198565b6106566109f13660046169ee565b6131d0565b61066061337f565b610660610a0c366004616800565b613385565b610656610a1f36600461693c565b6133b6565b610660610a32366004616800565b613408565b610656610a453660046169ee565b61341d565b61072a610a583660046169ee565b61351e565b610660613560565b610656610a73366004616a42565b613566565b61072a610a8636600461698e565b6139e2565b61072a610a99366004616800565b613a48565b610660613a9b565b610747613b50565b61072a610abc3660046167e6565b613b5f565b610857610acf366004616a8f565b613cad565b610660610ae2366004616829565b613eb4565b610656610af53660046169ee565b613fa0565b610857610b08366004616a8f565b613fe4565b610656610b1b3660046167e6565b61414c565b610660610b2e3660046169ee565b6141ad565b610660610b413660046167e6565b6141ea565b6106606141fc565b610660614202565b610660610b64366004616800565b614208565b61072a610b77366004616800565b61429d565b6106606142bd565b610747610b92366004616800565b6142c3565b610660610ba5366004616a17565b6142df565b610660610bb8366004616800565b6142fc565b61072a610bcb3660046169ee565b614341565b610be3610bde3660046169ee565b614346565b60405161066d91906179be565b610656610bfe3660046169ee565b61461b565b610656610c113660046167e6565b61465f565b610656610c243660046167e6565b6146c0565b610857610c373660046169ee565b614721565b61078d610c4a3660046169ee565b61479a565b610660614845565b61072a610c653660046167e6565b61484b565b610656610c783660046169ee565b61486c565b610656610c8b3660046169ee565b6149a8565b6106f7610c9e3660046169ee565b6149ec565b610660614e28565b610660614e2e565b610656610cc13660046167e6565b614e34565b610660610cd43660046167e6565b614ea2565b610660614f43565b610656614f49565b61072a610cf73660046169ee565b615123565b61072a61512b565b610747615144565b610660610d1a3660046167e6565b615153565b610d27615279565b610d3083612093565b610d555760405162461bcd60e51b8152600401610d4c90617681565b60405180910390fd5b336000908152600a6020908152604080832086845290915290205460ff16610d8f5760405162461bcd60e51b8152600401610d4c906172e5565b610d9933846142fc565b610da38383611a46565b14610dc05760405162461bcd60e51b8152600401610d4c90617016565b6000610dcc3385614208565b90508260011415610e03576000848152601e602052604081206007018054839290610df8908490617dc7565b90915550610e2a9050565b6000848152601e602052604081206008018054839290610e24908490617dc7565b90915550505b336000908152600e60205260409081902090516301039dfd60e11b815273__$85afbab79b2b776d70bef879a32ed56424$__916302073bfa91610e7291908890600401616ccc565b60006040518083038186803b158015610e8a57600080fd5b505af4158015610e9e573d6000803e3d6000fd5b5050336000818152600b602090815260408083208a84528252808320805460ff19166001908117909155600c8352818420948452938252808320899055601282528083208a8452601e90925290912060030154909350610eff925090615401565b6000868152601e602052604090206003908101919091558101805460ff19166001179055610f2b612e58565b6005820155610f393361540d565b610f4233615564565b610f8957601780546001810182556000919091527fc624b66cc0138b8fabc209247f72d758e1cf3343756d543badbf24212bed8c150180546001600160a01b031916331790555b6001601f6000828254610f9c9190617dc7565b90915550506000858152601e602052604090819020600781015460089091015491513392879289927f0867b5027231dcbf37614eaad07d667b9febaf9fdf483f488229b1f140bb074892610ff4928992909190617c92565b60405180910390a45050505050565b60065481565b6110116155d4565b6001600160a01b0316611022613189565b6001600160a01b0316146110485760405162461bcd60e51b8152600401610d4c90617550565b602380546001600160a01b0319166001600160a01b0392909216919091179055565b600061107582611a7a565b6110915760405162461bcd60e51b8152600401610d4c90617334565b61109a826120f3565b156110b757506000818152601e60205260409020600701546110cb565b506000818152601e60205260409020600801545b919050565b60006110da615279565b60005b88518110156113eb57600089828151811061110857634e487b7160e01b600052603260045260246000fd5b60200260200101519050600088888481811061113457634e487b7160e01b600052603260045260246000fd5b90506020028101906111469190617d2b565b8080601f0160208091040260200160405190810160405280939291908181526020018383808284376000920182905250338082526014602090815260408084206011548154600181018355918652838620909101558051610100810182528a815291820192909252429181019190915260608101869052608081018d905260a081018c905260c081018b905294955060e08501935091506111e49050565b9052601154600090815260136020908152604090912082518051919261120f92849290910190616394565b506020828101516001830180546001600160a01b0319166001600160a01b0390921691909117905560408301516002830155606083015180516112589260038501920190616394565b5060808201518051611274916004840191602090910190616418565b5060a08201518051611290916005840191602090910190616471565b5060c082015180516112ac916006840191602090910190616394565b5060e082015160078201805460ff191660018360038111156112de57634e487b7160e01b600052602160045260246000fd5b021790555050601b546000908152601e602052604090206001546002820154919250111561132957600181600201600082825461131b9190617dc7565b909155505060115460018201555b60015481600201541061137b57600481018054600160ff19909116811761ff001916909155601b8054600090611360908490617dc7565b9091555050601154601b546000908152601e60205260409020555b611383611e90565b601154611391906001617dc7565b60118190556040513391907fb7b95e293993cd6c0c54a48cee487ef3dd8f51be568be962db90e7784af70dd1906113cd90879087908e90616df5565b60405180910390a350505080806113e390617e94565b9150506110dd565b506001601f60008282546113ff9190617dc7565b909155505060115490505b979650505050505050565b60136020526000908152604090208054819061143090617e59565b80601f016020809104026020016040519081016040528092919081815260200182805461145c90617e59565b80156114a95780601f1061147e576101008083540402835291602001916114a9565b820191906000526020600020905b81548152906001019060200180831161148c57829003601f168201915b505050506001830154600284015460038501805494956001600160a01b0390931694919350906114d890617e59565b80601f016020809104026020016040519081016040528092919081815260200182805461150490617e59565b80156115515780601f1061152657610100808354040283529160200191611551565b820191906000526020600020905b81548152906001019060200180831161153457829003601f168201915b50505050509080600601805461156690617e59565b80601f016020809104026020016040519081016040528092919081815260200182805461159290617e59565b80156115df5780601f106115b4576101008083540402835291602001916115df565b820191906000526020600020905b8154815290600101906020018083116115c257829003601f168201915b5050506007909301549192505060ff1686565b60115481565b60075481565b606061160982615123565b6116255760405162461bcd60e51b8152600401610d4c9061770e565b6000828152601e6020908152604080832081516101e0810183528154815260018201549381019390935260028101549183019190915260038101546060830152600481015460ff808216151560808501526101008083048216151560a08601526201000090920416151560c0840152600582015460e084015260068201549083015260078101546101208301526008810154610140830152600981018054610160840191906116d390617e59565b80601f01602080910402602001604051908101604052809291908181526020018280546116ff90617e59565b801561174c5780601f106117215761010080835404028352916020019161174c565b820191906000526020600020905b81548152906001019060200180831161172f57829003601f168201915b5050509183525050600a82015460209091019060ff16600381111561178157634e487b7160e01b600052602160045260246000fd5b60038111156117a057634e487b7160e01b600052602160045260246000fd5b8152602001600b8201805480602002602001604051908101604052809291908181526020016000905b828210156118755783829060005260206000200180546117e890617e59565b80601f016020809104026020016040519081016040528092919081815260200182805461181490617e59565b80156118615780601f1061183657610100808354040283529160200191611861565b820191906000526020600020905b81548152906001019060200180831161184457829003601f168201915b5050505050815260200190600101906117c9565b505050508152602001600c82018054806020026020016040519081016040528092919081815260200182805480156118cc57602002820191906000526020600020905b8154815260200190600101908083116118b8575b505050505081525050905060008160400151905060006001546001600160401b0381111561190a57634e487b7160e01b600052604160045260246000fd5b60405190808252806020026020018201604052801561193d57816020015b60608152602001906001900390816119285790505b50905060005b82811015611a3d57835160009061195b908390617dc7565b60008181526013602052604081206003018054929350909161197c90617e59565b80601f01602080910402602001604051908101604052809291908181526020018280546119a890617e59565b80156119f55780601f106119ca576101008083540402835291602001916119f5565b820191906000526020600020905b8154815290600101906020018083116119d857829003601f168201915b5050505050905080848481518110611a1d57634e487b7160e01b600052603260045260246000fd5b602002602001018190525050508080611a3590617e94565b915050611943565b50949350505050565b60008282604051602001611a5b929190616ccc565b6040516020818303038152906040528051906020012090505b92915050565b6000611a8582615123565b611aa15760405162461bcd60e51b8152600401610d4c90617995565b6000828152601e6020526040902060060154611a7490614341565b611ac4615279565b336000908152601260205260409020600781015460ff161515600114611afc5760405162461bcd60e51b8152600401610d4c9061723d565b611b05336155d8565b15611b225760405162461bcd60e51b8152600401610d4c90617172565b6000611b2c612e58565b9050611b3733615648565b611b403361540d565b8154336001600160a01b031991821681178455600180850180549093169091179091556005830182905560078301805460ff19169055601f8054600090611b88908490617dc7565b909155505060405133907f9dadcedba048e92b943ea1c5861cee1df63a566d7f795869c004780c1c698e2b90611bbf908490616ca7565b60405180910390a25050565b6022546001600160a01b031681565b600080611be685611ff3565b90506000611bf48683614208565b90505b8115611d6c57611c078683614208565b9050848111611cc45783821415611cbc576001600160a01b0386166000908152600e60205260409081902090516301c39b2b60e11b815273__$85afbab79b2b776d70bef879a32ed56424$__91630387365691611c6991908690600401616ccc565b60206040518083038186803b158015611c8157600080fd5b505af4158015611c95573d6000803e3d6000fd5b505050506040513d601f19601f82011682018060405250810190611cb99190616a06565b91505b509050611d70565b6001600160a01b0386166000908152600e60205260409081902090516301c39b2b60e11b815273__$85afbab79b2b776d70bef879a32ed56424$__91630387365691611d1591908690600401616ccc565b60206040518083038186803b158015611d2d57600080fd5b505af4158015611d41573d6000803e3d6000fd5b505050506040513d601f19601f82011682018060405250810190611d659190616a06565b9150611bf7565b5090505b9392505050565b600a60209081526000928352604080842090915290825290205460ff1681565b600d60209081526000928352604080842090915290825290208054611dbb90617e59565b80601f0160208091040260200160405190810160405280929190818152602001828054611de790617e59565b8015611e345780601f10611e0957610100808354040283529160200191611e34565b820191906000526020600020905b815481529060010190602001808311611e1757829003601f168201915b505050505081565b60105481565b6000818152601e6020526040812060088101546007909101548291611d7091617dc7565b60178181548110611e7657600080fd5b6000918252602090912001546001600160a01b0316905081565b611e98615279565b601c546000908152601e602052604081206004015462010000900460ff1615156001148015611eea5750611ecd601c54611a7a565b80611eea5750601c546000908152601e6020526040902060030154155b15611f0f57611efa601c54615778565b601c54611f08906001616128565b601c555060015b601d546000908152601e602052604090206004015462010000900460ff161515600114801590611f40575060175415155b8015611f605750601d546000908152601e602052604090206004015460ff165b15611f7157611f6d6129bf565b5060015b8015611f8957601054611f85906001616128565b6010555b6001601f6000828254611f9c9190617dc7565b90915550506010546040517f94d48a7342690f1233e3f4db70efa37c4f1f25f4d0397c353f3f15aecdeca5f490600090a250565b60405160009080602081848060185afa611fe657fe5b5051919050565b60095481565b6001600160a01b0381166000908152600e602052604080822090516301c39b2b60e11b815273__$85afbab79b2b776d70bef879a32ed56424$__9163038736569161204391908590600401616ccc565b60206040518083038186803b15801561205b57600080fd5b505af415801561206f573d6000803e3d6000fd5b505050506040513d601f19601f82011682018060405250810190611a749190616a06565b600061209e82615123565b6120ba5760405162461bcd60e51b8152600401610d4c9061770e565b6000828152601e60205260409020600601546120d590614341565b158015611a7457506120e68261351e565b1592915050565b601c5490565b6000818152601e6020908152604080832081516101e0810183528154815260018201549381019390935260028101549183019190915260038101546060830152600481015460ff808216151560808501526101008083048216151560a08601526201000090920416151560c0840152600582015460e084015260068201549083015260078101546101208301526008810154610140830152600981018054849392916101608401916121a490617e59565b80601f01602080910402602001604051908101604052809291908181526020018280546121d090617e59565b801561221d5780601f106121f25761010080835404028352916020019161221d565b820191906000526020600020905b81548152906001019060200180831161220057829003601f168201915b5050509183525050600a82015460209091019060ff16600381111561225257634e487b7160e01b600052602160045260246000fd5b600381111561227157634e487b7160e01b600052602160045260246000fd5b8152602001600b8201805480602002602001604051908101604052809291908181526020016000905b828210156123465783829060005260206000200180546122b990617e59565b80601f01602080910402602001604051908101604052809291908181526020018280546122e590617e59565b80156123325780601f1061230757610100808354040283529160200191612332565b820191906000526020600020905b81548152906001019060200180831161231557829003601f168201915b50505050508152602001906001019061229a565b505050508152602001600c820180548060200260200160405190810160405280929190818152602001828054801561239d57602002820191906000526020600020905b815481526020019060010190808311612389575b50505050508152505090508061014001518161012001516123be9190617dc7565b6009546123cb9190617df3565b6101208201516123dc906064617df3565b119392505050565b6123ec6155d4565b6001600160a01b03166123fd613189565b6001600160a01b0316146124235760405162461bcd60e51b8152600401610d4c90617550565b60008181526013602052604081209061243c82826164ab565b6001820180546001600160a01b03191690556000600283018190556124659060038401906164ab565b6124736004830160006164e7565b612481600583016000616505565b61248f6006830160006164ab565b50600701805460ff1916905550565b601b5490565b6023546001600160a01b031681565b6001600160a01b03811660009081526014602090815260409182902080548351818402810184019094528084526060939283018282801561251357602002820191906000526020600020905b8154815260200190600101908083116124ff575b50505050509050919050565b6125276155d4565b6001600160a01b0316612538613189565b6001600160a01b03161461255e5760405162461bcd60e51b8152600401610d4c90617550565b600555565b61256b616523565b600082815260136020526040908190208151610100810190925280548290829061259490617e59565b80601f01602080910402602001604051908101604052809291908181526020018280546125c090617e59565b801561260d5780601f106125e25761010080835404028352916020019161260d565b820191906000526020600020905b8154815290600101906020018083116125f057829003601f168201915b505050918352505060018201546001600160a01b031660208201526002820154604082015260038201805460609092019161264790617e59565b80601f016020809104026020016040519081016040528092919081815260200182805461267390617e59565b80156126c05780601f10612695576101008083540402835291602001916126c0565b820191906000526020600020905b8154815290600101906020018083116126a357829003601f168201915b5050505050815260200160048201805480602002602001604051908101604052809291908181526020016000905b8282101561279a57838290600052602060002001805461270d90617e59565b80601f016020809104026020016040519081016040528092919081815260200182805461273990617e59565b80156127865780601f1061275b57610100808354040283529160200191612786565b820191906000526020600020905b81548152906001019060200180831161276957829003601f168201915b5050505050815260200190600101906126ee565b505050508152602001600582018054806020026020016040519081016040528092919081815260200182805480156127f157602002820191906000526020600020905b8154815260200190600101908083116127dd575b5050505050815260200160068201805461280a90617e59565b80601f016020809104026020016040519081016040528092919081815260200182805461283690617e59565b80156128835780601f1061285857610100808354040283529160200191612883565b820191906000526020600020905b81548152906001019060200180831161286657829003601f168201915b5050509183525050600782015460209091019060ff1660038111156128b857634e487b7160e01b600052602160045260246000fd5b60038111156128d757634e487b7160e01b600052602160045260246000fd5b90525092915050565b60055481565b6128ee6155d4565b6001600160a01b03166128ff613189565b6001600160a01b0316146129255760405162461bcd60e51b8152600401610d4c90617550565b61292e81615123565b156129bc576000818152601e6020526040812081815560018101829055600281018290556003810182905560048101805462ffffff19169055600581018290556006810182905560078101829055600881018290559061299160098301826164ab565b600a8201805460ff191690556129ab600b830160006164e7565b6129b9600c83016000616505565b50505b50565b601d546000908152601e602052604090206004015460ff166129f35760405162461bcd60e51b8152600401610d4c9061762b565b601d546000908152601e602052604090206004015462010000900460ff1615612a2e5760405162461bcd60e51b8152600401610d4c90617485565b6000612a4b612a44601780549050600254616134565b600161614a565b601754601d546000908152601e602052604081206003018390556004549293509091612a78904290616128565b90506000612a916005548361612890919063ffffffff16565b601d80546000908152601e6020526040808220600501869055825482528082206006018490559154815220600401805462ff0000191662010000179055905060018410801590612ae2575060018310155b612afe5760405162461bcd60e51b8152600401610d4c90617128565b6000612b0a8585613fe4565b9050600081516001600160401b03811115612b3557634e487b7160e01b600052604160045260246000fd5b604051908082528060200260200182016040528015612b5e578160200160208202803683370190505b50905060005b8251811015612c1d576017838281518110612b8f57634e487b7160e01b600052603260045260246000fd5b602002602001015181548110612bb557634e487b7160e01b600052603260045260246000fd5b9060005260206000200160009054906101000a90046001600160a01b0316828281518110612bf357634e487b7160e01b600052603260045260246000fd5b6001600160a01b039092166020928302919091019091015280612c1581617e94565b915050612b64565b5060005b8251811015612d80576000828281518110612c4c57634e487b7160e01b600052603260045260246000fd5b60200260200101519050600060126000836001600160a01b03166001600160a01b031681526020019081526020016000209050612c8882615648565b612c91826155d8565b612ce157601880546001810182556000919091527fb13d2d76d1f4b7be834882e410b3e3a8afaf69f83600ae24db354391d2378d2e0180546001600160a01b0319166001600160a01b0384161790555b601d805460009081526019602090815260408083208054600181018255908452919092200180546001600160a01b0319166001600160a01b0386161790558154600284015560038301805460ff19169055905490517fe4ee2dfabe57cee15e3f558890b20455f54c1fa0718e5276faad70a6500e6b8c90612d63908590616cda565b60405180910390a250508080612d7890617e94565b915050612c21565b50601d54612d8f906001616128565b601d819055506001601f6000828254612da89190617dc7565b9091555050505050505050565b6000611a7482610b6484611ff3565b612dcc6155d4565b6001600160a01b0316612ddd613189565b6001600160a01b031614612e035760405162461bcd60e51b8152600401610d4c90617550565b612e0d600061615a565b565b6000612e1a82615123565b612e365760405162461bcd60e51b8152600401610d4c9061770e565b506000908152601e602052604090206006015490565b60015481565b60085481565b4290565b6024546001600160a01b031681565b612e736155d4565b6001600160a01b0316612e84613189565b6001600160a01b031614612eaa5760405162461bcd60e51b8152600401610d4c90617550565b602580546001600160a01b0319166001600160a01b0392909216919091179055565b601854601754600091612ede91617dc7565b905090565b6000612eee82615123565b612f0a5760405162461bcd60e51b8152600401610d4c9061770e565b506001600160a01b03919091166000908152600a60209081526040808320938352929052205460ff1690565b601e60205260009081526040902080546001820154600283015460038401546004850154600586015460068701546007880154600889015460098a018054999a98999798969760ff80881698610100890482169862010000900490911696959493929091612fa390617e59565b80601f0160208091040260200160405190810160405280929190818152602001828054612fcf90617e59565b801561301c5780601f10612ff15761010080835404028352916020019161301c565b820191906000526020600020905b815481529060010190602001808311612fff57829003601f168201915b505050600a909301549192505060ff168d565b60008061303c8487614208565b8310159050600061304d8587614208565b84111580613059575085155b905081801561140a57509695505050505050565b60188181548110611e7657600080fd5b6021546001600160a01b031681565b601b5481565b60126020526000908152604090208054600182015460028301546003840154600485015460058601546006870180546001600160a01b03978816989690971696949560ff90941694929391926130e790617e59565b80601f016020809104026020016040519081016040528092919081815260200182805461311390617e59565b80156131605780601f1061313557610100808354040283529160200191613160565b820191906000526020600020905b81548152906001019060200180831161314357829003601f168201915b505050506007830154600890930154919260ff1691905089565b6025546001600160a01b031681565b6000546001600160a01b031690565b601960205281600052604060002081815481106131b457600080fd5b6000918252602090912001546001600160a01b03169150829050565b60016000828152601e60205260409020600a015460ff16600381111561320657634e487b7160e01b600052602160045260246000fd5b146132235760405162461bcd60e51b8152600401610d4c90616f19565b336000908152600e60205260409081902090516306120d1f60e31b815273__$85afbab79b2b776d70bef879a32ed56424$__9163309068f89161326b91908590600401616ccc565b60206040518083038186803b15801561328357600080fd5b505af4158015613297573d6000803e3d6000fd5b505050506040513d601f19601f820116820180604052508101906132bb919061696e565b6132d75760405162461bcd60e51b8152600401610d4c906173af565b336000908152600e60205260409081902090516301039dfd60e11b815273__$85afbab79b2b776d70bef879a32ed56424$__916302073bfa9161331f91908590600401616ccc565b60006040518083038186803b15801561333757600080fd5b505af415801561334b573d6000803e3d6000fd5b50506040513392508391507f402507661c8c8cb90e0a796450b8bdd28b6c516f05279c0cd29e84c344e1699a90600090a350565b60105490565b601460205281600052604060002081815481106133a157600080fd5b90600052602060002001600091509150505481565b60005b8151811015613404576133f28282815181106133e557634e487b7160e01b600052603260045260246000fd5b60200260200101516131d0565b806133fc81617e94565b9150506133b9565b5050565b60008282604051602001611a5b929190616c85565b6021546040516304ada21f60e21b81526001600160a01b03909116906312b6887c9061344f9084903390600401617c5d565b602060405180830381600087803b15801561346957600080fd5b505af115801561347d573d6000803e3d6000fd5b505050506040513d601f19601f820116820180604052508101906134a1919061696e565b6134bd5760405162461bcd60e51b8152600401610d4c90617288565b33600090815260156020526040812080548392906134dc908490617dc7565b909155505060405133907ff7aaf024511d9982df8cd0d437c71c30106e6848cd1ba3d288d7a9c0e276aeda90613513908490616ca7565b60405180910390a250565b600061352982615123565b6135455760405162461bcd60e51b8152600401610d4c9061770e565b6000828152601e60205260409020600501546120e690614341565b60115490565b61356e615279565b6135778361351e565b6135935760405162461bcd60e51b8152600401610d4c906171b7565b8261359d33615153565b146135ba5760405162461bcd60e51b8152600401610d4c906174e2565b600354336000908152601560205260409020548111156135fc57336000908152601560205260408120546135ef908390615401565b90506135fa8161341d565b505b3360009081526015602052604090205481111561362b5760405162461bcd60e51b8152600401610d4c90617844565b6000336000908152600e60205260408082209051631e0f232560e31b815273__$85afbab79b2b776d70bef879a32ed56424$__9163f07919289161367491908690600401616ccc565b60206040518083038186803b15801561368c57600080fd5b505af41580156136a0573d6000803e3d6000fd5b505050506040513d601f19601f820116820180604052508101906136c49190616a06565b90508581141561376957336000908152600e6020526040908190209051631e0f232560e31b815273__$85afbab79b2b776d70bef879a32ed56424$__9163f07919289161371691908a90600401616ccc565b60206040518083038186803b15801561372e57600080fd5b505af4158015613742573d6000803e3d6000fd5b505050506040513d601f19601f820116820180604052508101906137669190616a06565b90505b6137758282338661302f565b6137915760405162461bcd60e51b8152600401610d4c90617457565b336000908152600e602052604090819020905163524cfe5360e11b815273__$85afbab79b2b776d70bef879a32ed56424$__9163a499fca6916137dd919086908b908790600401617b72565b60006040518083038186803b1580156137f557600080fd5b505af4158015613809573d6000803e3d6000fd5b5050505060006138193388613408565b60408051808201825260098152686e756d546f6b656e7360b81b6020820152905163099b040f60e31b81529192509073__$0947e710b66d7779e1d561254425e1375a$__90634cd820789061387990600f90869086908b90600401617ac7565b60006040518083038186803b15801561389157600080fd5b505af41580156138a5573d6000803e3d6000fd5b505060405163099b040f60e31b815273__$0947e710b66d7779e1d561254425e1375a$__9250634cd8207891506138e590600f9086908c90600401617b15565b60006040518083038186803b1580156138fd57600080fd5b505af4158015613911573d6000803e3d6000fd5b5050506000898152600d602090815260408083203384528252909120885161393e93509091890190616394565b50336000908152601260205260409020613956612e58565b6005820155336000908152600a602090815260408083208c84529091528120805460ff19166001908117909155601f805491929091613996908490617dc7565b909155505060405133908a907f42864d9683ff5b12c3b2cc65d705af5aab104b03bc700b802f79e5c971ef08a1906139cf908a90616ca7565b60405180910390a3505050505050505050565b6000816040516020016139f59190616cb0565b6040516020818303038152906040528051906020012083604051602001613a1c9190616cb0565b604051602081830303815290604052805190602001201415613a4057506001611a74565b506000611a74565b6000613a5382615123565b613a6f5760405162461bcd60e51b8152600401610d4c9061770e565b506001600160a01b03919091166000908152600b60209081526040808320938352929052205460ff1690565b6000804241604051602001613ab09190616c68565b6040516020818303038152906040528051906020012060001c613ad39190617ddf565b44613adc611fd0565b604051602001613aec9190616ca7565b60408051601f198184030181529190528051602090910120613b0e9042617dc7565b613b189190617dc7565b613b229190617dc7565b604051602001613b329190616ca7565b60408051601f19818403018152919052805160209091012091505090565b601a546001600160a01b031681565b6001600160a01b038082166000908152601260209081526040808320815161012081018352815486168152600182015490951692850192909252600282015490840152600381015460ff161515606084015260048101546080840152600581015460a0840152600681018054929384938493919260c0840191613be190617e59565b80601f0160208091040260200160405190810160405280929190818152602001828054613c0d90617e59565b8015613c5a5780601f10613c2f57610100808354040283529160200191613c5a565b820191906000526020600020905b815481529060010190602001808311613c3d57829003601f168201915b5050509183525050600782015460ff16151560208201526008909101546040909101526060810151909150158015613c9c5750613c9a8160400151611a7a565b155b15613ca657600191505b5092915050565b606060008211613cbc57600080fd5b600041604051602001613ccf9190616c68565b6040516020818303038152906040528051906020012060001c613cf0611fd0565b604051602001613d009190616ca7565b60408051601f198184030181529190528051602090910120613d229042617dc7565b613d2c9190617dc7565b604051602001613d3c9190616ca7565b6040516020818303038152906040528051906020012060001c90506000846001600160401b03811115613d7f57634e487b7160e01b600052604160045260246000fd5b604051908082528060200260200182016040528015613da8578160200160208202803683370190505b5090506000805b86821015613ea957600086613dc863017efeeb87617e12565b83604051602001613dda929190616ccc565b6040516020818303038152906040528051906020012060001c613dfd9190617eaf565b90506000805b84811015613e555782868281518110613e2c57634e487b7160e01b600052603260045260246000fd5b60200260200101511415613e435760019150613e55565b80613e4d81617e94565b915050613e03565b5080613e955781858581518110613e7c57634e487b7160e01b600052603260045260246000fd5b6020908102919091010152613e92846001617dc7565b93505b613ea0836001617dc7565b92505050613daf565b509095945050505050565b6000613ebf83611a7a565b613edb5760405162461bcd60e51b8152600401610d4c906178ee565b6001600160a01b0384166000908152600b6020908152604080832086845290915290205460ff16613f1e5760405162461bcd60e51b8152600401610d4c9061740c565b6000613f29846120f3565b613f34576000613f37565b60015b60ff16905060008184604051602001613f51929190616ccc565b6040516020818303038152906040528051906020012090506000613f7587876142fc565b9050808214613f965760405162461bcd60e51b8152600401610d4c906175e2565b61140a8787614208565b613fa86155d4565b6001600160a01b0316613fb9613189565b6001600160a01b031614613fdf5760405162461bcd60e51b8152600401610d4c90617550565b600155565b6060600082118015613ff65750818311155b8015614003575060018310155b61401f5760405162461bcd60e51b8152600401610d4c906170df565b6000826001600160401b0381111561404757634e487b7160e01b600052604160045260246000fd5b604051908082528060200260200182016040528015614070578160200160208202803683370190505b5090506000846001600160401b0381111561409b57634e487b7160e01b600052604160045260246000fd5b6040519080825280602002602001820160405280156140c4578160200160208202803683370190505b50905060006140da6140d5846161aa565b616200565b905060005b86811015613ea95781818151811061410757634e487b7160e01b600052603260045260246000fd5b602002602001015183828151811061412f57634e487b7160e01b600052603260045260246000fd5b60209081029190910101528061414481617e94565b9150506140df565b6141546155d4565b6001600160a01b0316614165613189565b6001600160a01b03161461418b5760405162461bcd60e51b8152600401610d4c90617550565b602480546001600160a01b0319166001600160a01b0392909216919091179055565b60006141b882615123565b6141d45760405162461bcd60e51b8152600401610d4c9061770e565b506000908152601e602052604090206005015490565b60156020526000908152604090205481565b60025481565b60035481565b600073__$0947e710b66d7779e1d561254425e1375a$__6369810158600f6142308686613408565b6040518363ffffffff1660e01b815260040161424d929190617b43565b60206040518083038186803b15801561426557600080fd5b505af4158015614279573d6000803e3d6000fd5b505050506040513d601f19601f82011682018060405250810190611d709190616a06565b600b60209081526000928352604080842090915290825290205460ff1681565b601d5481565b601660205281600052604060002081815481106131b457600080fd5b600c60209081526000928352604080842090915290825290205481565b600073__$0947e710b66d7779e1d561254425e1375a$__6369810158600f6143248686613408565b6040518363ffffffff1660e01b815260040161424d929190617af7565b421190565b61434e61658f565b61435782615123565b61436057600080fd5b6000828152601e602090815260409182902082516101e0810184528154815260018201549281019290925260028101549282019290925260038201546060820152600482015460ff808216151560808401526101008083048216151560a08501526201000090920416151560c0830152600583015460e0830152600683015490820152600782015461012082015260088201546101408201526009820180549192916101608401919061441290617e59565b80601f016020809104026020016040519081016040528092919081815260200182805461443e90617e59565b801561448b5780601f106144605761010080835404028352916020019161448b565b820191906000526020600020905b81548152906001019060200180831161446e57829003601f168201915b5050509183525050600a82015460209091019060ff1660038111156144c057634e487b7160e01b600052602160045260246000fd5b60038111156144df57634e487b7160e01b600052602160045260246000fd5b8152602001600b8201805480602002602001604051908101604052809291908181526020016000905b828210156145b457838290600052602060002001805461452790617e59565b80601f016020809104026020016040519081016040528092919081815260200182805461455390617e59565b80156145a05780601f10614575576101008083540402835291602001916145a0565b820191906000526020600020905b81548152906001019060200180831161458357829003601f168201915b505050505081526020019060010190614508565b505050508152602001600c820180548060200260200160405190810160405280929190818152602001828054801561460b57602002820191906000526020600020905b8154815260200190600101908083116145f7575b5050505050815250509050919050565b6146236155d4565b6001600160a01b0316614634613189565b6001600160a01b03161461465a5760405162461bcd60e51b8152600401610d4c90617550565b600255565b6146676155d4565b6001600160a01b0316614678613189565b6001600160a01b03161461469e5760405162461bcd60e51b8152600401610d4c90617550565b602280546001600160a01b0319166001600160a01b0392909216919091179055565b6146c86155d4565b6001600160a01b03166146d9613189565b6001600160a01b0316146146ff5760405162461bcd60e51b8152600401610d4c90617550565b602180546001600160a01b0319166001600160a01b0392909216919091179055565b60606000821161473057600080fd5b6000826001600160401b0381111561475857634e487b7160e01b600052604160045260246000fd5b604051908082528060200260200182016040528015614781578160200160208202803683370190505b50905060006147926140d5836161aa565b949350505050565b60606147a582615123565b6147ae57600080fd5b6000828152601e6020526040902060090180546147ca90617e59565b80601f01602080910402602001604051908101604052809291908181526020018280546147f690617e59565b80156125135780601f1061481857610100808354040283529160200191612513565b820191906000526020600020905b8154815290600101906020018083116148265750939695505050505050565b60045481565b6001600160a01b031660009081526012602052604090206007015460ff1690565b600061489061487a33612db5565b3360009081526015602052604090205490615401565b9050818110156148b25760405162461bcd60e51b8152600401610d4c906176c7565b602154604051630895993360e11b81526001600160a01b039091169063112b3266906148e49085903390600401617c5d565b602060405180830381600087803b1580156148fe57600080fd5b505af1158015614912573d6000803e3d6000fd5b505050506040513d601f19601f82011682018060405250810190614936919061696e565b6149525760405162461bcd60e51b8152600401610d4c90617938565b3360009081526015602052604081208054849290614971908490617e12565b909155505060405133907ffaeb7dbb9992397d26ea1944efd40c80b40f702faf69b46c67ad10aba68ccb7990611bbf908590616ca7565b6149b06155d4565b6001600160a01b03166149c1613189565b6001600160a01b0316146149e75760405162461bcd60e51b8152600401610d4c90617550565b600455565b60606149f782615123565b614a135760405162461bcd60e51b8152600401610d4c9061770e565b6000828152601e6020908152604080832081516101e0810183528154815260018201549381019390935260028101549183019190915260038101546060830152600481015460ff808216151560808501526101008083048216151560a08601526201000090920416151560c0840152600582015460e08401526006820154908301526007810154610120830152600881015461014083015260098101805461016084019190614ac190617e59565b80601f0160208091040260200160405190810160405280929190818152602001828054614aed90617e59565b8015614b3a5780601f10614b0f57610100808354040283529160200191614b3a565b820191906000526020600020905b815481529060010190602001808311614b1d57829003601f168201915b5050509183525050600a82015460209091019060ff166003811115614b6f57634e487b7160e01b600052602160045260246000fd5b6003811115614b8e57634e487b7160e01b600052602160045260246000fd5b8152602001600b8201805480602002602001604051908101604052809291908181526020016000905b82821015614c63578382906000526020600020018054614bd690617e59565b80601f0160208091040260200160405190810160405280929190818152602001828054614c0290617e59565b8015614c4f5780601f10614c2457610100808354040283529160200191614c4f565b820191906000526020600020905b815481529060010190602001808311614c3257829003601f168201915b505050505081526020019060010190614bb7565b505050508152602001600c8201805480602002602001604051908101604052809291908181526020018280548015614cba57602002820191906000526020600020905b815481526020019060010190808311614ca6575b505050505081525050905060008160400151905060006001546001600160401b03811115614cf857634e487b7160e01b600052604160045260246000fd5b604051908082528060200260200182016040528015614d2b57816020015b6060815260200190600190039081614d165790505b50905060005b82811015611a3d578351600090614d49908390617dc7565b600081815260136020526040812080549293509091614d6790617e59565b80601f0160208091040260200160405190810160405280929190818152602001828054614d9390617e59565b8015614de05780601f10614db557610100808354040283529160200191614de0565b820191906000526020600020905b815481529060010190602001808311614dc357829003601f168201915b5050505050905080848481518110614e0857634e487b7160e01b600052603260045260246000fd5b602002602001018190525050508080614e2090617e94565b915050614d31565b601c5481565b601f5481565b614e3c6155d4565b6001600160a01b0316614e4d613189565b6001600160a01b031614614e735760405162461bcd60e51b8152600401610d4c90617550565b6001600160a01b038116614e995760405162461bcd60e51b8152600401610d4c90617099565b6129bc8161615a565b6001600160a01b038116600090815260146020908152604080832080548251818502810185019093528083528493830182828015614eff57602002820191906000526020600020905b815481526020019060010190808311614eeb575b505050505090508060018251614f159190617e12565b81518110614f3357634e487b7160e01b600052603260045260246000fd5b6020026020010151915050919050565b601f5490565b614f51615279565b3360009081526012602052604090206018546017546103e891614f7391617dc7565b10614f905760405162461bcd60e51b8152600401610d4c90617802565b600781015460ff1615614fb55760405162461bcd60e51b8152600401610d4c90616ee2565b6000614fbf612e58565b60035433600090815260156020526040902054919250908111156150055733600090815260156020526040812054614ff8908390615401565b90506150038161341d565b505b336000908152601560205260409020548111156150345760405162461bcd60e51b8152600401610d4c90616f6a565b61503d33615564565b61508457601780546001810182556000919091527fc624b66cc0138b8fabc209247f72d758e1cf3343756d543badbf24212bed8c150180546001600160a01b031916331790555b8254336001600160a01b03199182168117855560018501805490921617905560058301829055600783015460ff166150cc5760078301805460ff191660011790554260088401555b6001601f60008282546150df9190617dc7565b909155505060405133907f439d77b7534ec3108fc6143bd4fbabde0b9f2bb54f7b0730d1f70dd2135b765f90615116908590616ca7565b60405180910390a2505050565b601b54101590565b3360009081526012602052604090206007015460ff1690565b6020546001600160a01b031681565b6001600160a01b038082166000908152601260209081526040808320815161012081018352815486168152600182015490951692850192909252600282015490840152600381015460ff161515606084015260048101546080840152600581015460a08401526006810180549293849390929160c08401916151d490617e59565b80601f016020809104026020016040519081016040528092919081815260200182805461520090617e59565b801561524d5780601f106152225761010080835404028352916020019161524d565b820191906000526020600020905b81548152906001019060200180831161523057829003601f168201915b5050509183525050600782015460ff161515602082015260089091015460409182015201519392505050565b601a546001600160a01b03166152a15760405162461bcd60e51b8152600401610d4c90617745565b601a546040516000916001600160a01b0316906152c2903390602401616cda565b60408051601f198184030181529181526020820180516001600160e01b0316631f5ac9c560e11b179052516152f79190616cb0565b6000604051808303816000865af19150503d8060008114615334576040519150601f19603f3d011682016040523d82523d6000602084013e615339565b606091505b5050601a546040519192506000916001600160a01b0390911690615361903390602401616cda565b60408051601f198184030181529181526020820180516001600160e01b03166358563d2160e01b179052516153969190616cb0565b6000604051808303816000865af19150503d80600081146153d3576040519150601f19603f3d011682016040523d82523d6000602084013e6153d8565b606091505b5050905081806153e55750805b6134045760405162461bcd60e51b8152600401610d4c90616fd1565b6000611d708284617e12565b60008060005b60185481101561548157836001600160a01b03166018828154811061544857634e487b7160e01b600052603260045260246000fd5b6000918252602090912001546001600160a01b0316141561546f5760019150809250615481565b8061547981617e94565b915050615413565b5080156129b9576018805461549890600190617e12565b815481106154b657634e487b7160e01b600052603260045260246000fd5b600091825260209091200154601880546001600160a01b0390921691849081106154f057634e487b7160e01b600052603260045260246000fd5b9060005260206000200160006101000a8154816001600160a01b0302191690836001600160a01b03160217905550601880548061553d57634e487b7160e01b600052603160045260246000fd5b600082815260209020810160001990810180546001600160a01b0319169055019055505050565b600080805b601754811015613ca657836001600160a01b03166017828154811061559e57634e487b7160e01b600052603260045260246000fd5b6000918252602090912001546001600160a01b031614156155c25760019150613ca6565b806155cc81617e94565b915050615569565b3390565b600080805b601854811015613ca657836001600160a01b03166018828154811061561257634e487b7160e01b600052603260045260246000fd5b6000918252602090912001546001600160a01b031614156156365760019150613ca6565b8061564081617e94565b9150506155dd565b60008060005b6017548110156156bc57836001600160a01b03166017828154811061568357634e487b7160e01b600052603260045260246000fd5b6000918252602090912001546001600160a01b031614156156aa57600191508092506156bc565b806156b481617e94565b91505061564e565b5080156129b957601780546156d390600190617e12565b815481106156f157634e487b7160e01b600052603260045260246000fd5b600091825260209091200154601780546001600160a01b03909216918490811061572b57634e487b7160e01b600052603260045260246000fd5b9060005260206000200160006101000a8154816001600160a01b0302191690836001600160a01b03160217905550601780548061553d57634e487b7160e01b600052603160045260246000fd5b61578181611a7a565b8061579b57506000818152601e6020526040902060030154155b6157b75760405162461bcd60e51b8152600401610d4c90617585565b6000818152601e6020526040902060040154610100900460ff16156157ee5760405162461bcd60e51b8152600401610d4c906177c1565b6000818152601e6020526040902060040154610100900460ff166129bc576000615817826120f3565b60008381526019602090815260408083208054825181850281018501909352808352949550929390929183018282801561587a57602002820191906000526020600020905b81546001600160a01b0316815260019091019060200180831161585c575b50505050509050600081516001600160401b038111156158aa57634e487b7160e01b600052604160045260246000fd5b6040519080825280602002602001820160405280156158dd57816020015b60608152602001906001900390816158c85790505b50905060005b8251811015615c8757600083828151811061590e57634e487b7160e01b600052603260045260246000fd5b6020908102919091018101516000888152600c835260408082206001600160a01b03841680845290855281832054600b86528284208c8552865282842054600d875283852092855291909552908220805493955060ff9091169261597190617e59565b80601f016020809104026020016040519081016040528092919081815260200182805461599d90617e59565b80156159ea5780601f106159bf576101008083540402835291602001916159ea565b820191906000526020600020905b8154815290600101906020018083116159cd57829003601f168201915b5050505050905080868681518110615a1257634e487b7160e01b600052603260045260246000fd5b6020026020010181905250615a268461540d565b6001600160a01b03841660009081526012602052604090208215615c44576001600160a01b0385166000908152601260205260409020600301805460ff19166001908117909155891515148015615a7d5750836001145b80615a92575088158015615a92575083600114155b15615bd957602254600854604051630db6cc8560e11b81526001600160a01b0390921691631b6d990a91615aca918990600401617c74565b602060405180830381600087803b158015615ae457600080fd5b505af1158015615af8573d6000803e3d6000fd5b505050506040513d601f19601f82011682018060405250810190615b1c919061696e565b615b385760405162461bcd60e51b8152600401610d4c90617362565b602354600654604051633832942560e21b81526001600160a01b039092169163e0ca509491615b6b918990600401617c5d565b602060405180830381600087803b158015615b8557600080fd5b505af1158015615b99573d6000803e3d6000fd5b505050506040513d601f19601f82011682018060405250810190615bbd919061696e565b615bd95760405162461bcd60e51b8152600401610d4c906171ee565b600781015460ff1615615c3f57615bef85615564565b615c3f57601780546001810182556000919091527fc624b66cc0138b8fabc209247f72d758e1cf3343756d543badbf24212bed8c150180546001600160a01b0319166001600160a01b0387161790555b615c6f565b600781015460ff1615615c6f5760078101805460ff19169055615c6685615648565b615c6f8561540d565b50505050508080615c7f90617e94565b9150506158e3565b506000615ca7606484516032615c9d9190617df3565b612a449190617ddf565b9050600082600081518110615ccc57634e487b7160e01b600052603260045260246000fd5b6020026020010151905060005b8351811015615dc2576000805b8551811015615d7757615d47868481518110615d1257634e487b7160e01b600052603260045260246000fd5b6020026020010151878381518110615d3a57634e487b7160e01b600052603260045260246000fd5b60200260200101516139e2565b15615d6557615d57600183617dc7565b9150848210615d6557615d77565b80615d6f81617e94565b915050615ce6565b50838110615daf57848281518110615d9f57634e487b7160e01b600052603260045260246000fd5b6020026020010151925050615dc2565b5080615dba81617e94565b915050615cd9565b506000868152601e6020908152604090912060048101805461ff0019166101001790558251615df992600990920191840190616394565b5084156160955760225460085460008881526013602052604090819020600101549051630db6cc8560e11b81526001600160a01b0393841693631b6d990a93615e49939092911690600401617c74565b602060405180830381600087803b158015615e6357600080fd5b505af1158015615e77573d6000803e3d6000fd5b505050506040513d601f19601f82011682018060405250810190615e9b919061696e565b615eb75760405162461bcd60e51b8152600401610d4c906178a1565b60235460065460008881526013602052604090819020600101549051633832942560e21b81526001600160a01b039384169363e0ca509493615f00939092911690600401617c5d565b602060405180830381600087803b158015615f1a57600080fd5b505af1158015615f2e573d6000803e3d6000fd5b505050506040513d601f19601f82011682018060405250810190615f52919061696e565b615f6e5760405162461bcd60e51b8152600401610d4c90617772565b6000868152601e602052604090819020600a01805460ff1916600117905560255490516348257dc960e01b81526001600160a01b03909116906348257dc990615fbb908990600401616ca7565b602060405180830381600087803b158015615fd557600080fd5b505af1925050508015616005575060408051601f3d908101601f191682019092526160029181019061696e565b60015b616076573d808015616033576040519150601f19603f3d011682016040523d82523d6000602084013e616038565b606091505b507f4b87bbd93ba65ede1e2efeca735d9f7a6720bf7d6db0a8355b17dba5b64e5783816040516160689190616d83565b60405180910390a150616090565b6001601f60008282546160899190617dc7565b9091555050505b6160b2565b6000868152601e60205260409020600a01805460ff191660021790555b6001601f60008282546160c59190617dc7565b909155505060008681526013602052604090819020600181015491516001600160a01b03909216917f43916c3ae75995d24cc89b466ed08e6dba74d325f7957f9b37b05f150e12918e9161611891616e38565b60405180910390a2505050505050565b6000611d708284617dc7565b60008183106161435781611d70565b5090919050565b6000818310156161435781611d70565b600080546001600160a01b038381166001600160a01b0319831681178455604051919092169283917f8be0079c531659141344cd1fd0a4f28419497f9722a3daafe3b4186f6b6457e09190a35050565b805160609060005b818110156161f857808482815181106161db57634e487b7160e01b600052603260045260246000fd5b6020908102919091010152806161f081617e94565b9150506161b2565b509192915050565b6060600082511161621057600080fd5b81518060005b8181101561638b57600083616229613a9b565b87848151811061624957634e487b7160e01b600052603260045260246000fd5b6020026020010151604051602001616262929190616ccc565b6040516020818303038152906040528051906020012060001c6162859190617eaf565b616290906001617dc7565b90506000866162a0600184617e12565b815181106162be57634e487b7160e01b600052603260045260246000fd5b60200260200101519050866001866162d69190617e12565b815181106162f457634e487b7160e01b600052603260045260246000fd5b60200260200101518760018461630a9190617e12565b8151811061632857634e487b7160e01b600052603260045260246000fd5b60209081029190910101528087616340600188617e12565b8151811061635e57634e487b7160e01b600052603260045260246000fd5b6020908102919091010152616374600186617e12565b94505050808061638390617e94565b915050616216565b50929392505050565b8280546163a090617e59565b90600052602060002090601f0160209004810192826163c25760008555616408565b82601f106163db57805160ff1916838001178555616408565b82800160010185558215616408579182015b828111156164085782518255916020019190600101906163ed565b5061641492915061662a565b5090565b828054828255906000526020600020908101928215616465579160200282015b828111156164655782518051616455918491602090910190616394565b5091602001919060010190616438565b5061641492915061663f565b82805482825590600052602060002090810192821561640857916020028201828111156164085782518255916020019190600101906163ed565b5080546164b790617e59565b6000825580601f106164c957506129bc565b601f0160209004906000526020600020908101906129bc919061662a565b50805460008255906000526020600020908101906129bc919061663f565b50805460008255906000526020600020908101906129bc919061662a565b6040518061010001604052806060815260200160006001600160a01b0316815260200160008152602001606081526020016060815260200160608152602001606081526020016000600381111561658a57634e487b7160e01b600052602160045260246000fd5b905290565b604051806101e001604052806000815260200160008152602001600081526020016000815260200160001515815260200160001515815260200160001515815260200160008152602001600081526020016000815260200160008152602001606081526020016000600381111561661657634e487b7160e01b600052602160045260246000fd5b815260200160608152602001606081525090565b5b80821115616414576000815560010161662b565b8082111561641457600061665382826164ab565b5060010161663f565b80356001600160a01b03811681146110cb57600080fd5b60008083601f840112616684578182fd5b5081356001600160401b0381111561669a578182fd5b60208301915083602080830285010111156166b457600080fd5b9250929050565b600082601f8301126166cb578081fd5b813560206166e06166db83617d98565b617d6f565b82815281810190858301855b8581101561671557616703898684358b010161677c565b845292840192908401906001016166ec565b5090979650505050505050565b600082601f830112616732578081fd5b813560206167426166db83617d98565b828152818101908583018385028701840188101561675e578586fd5b855b8581101561671557813584529284019290840190600101616760565b600082601f83011261678c578081fd5b81356001600160401b038111156167a5576167a5617eef565b6167b8601f8201601f1916602001617d6f565b8181528460208386010111156167cc578283fd5b816020850160208301379081016020019190915292915050565b6000602082840312156167f7578081fd5b611d708261665c565b60008060408385031215616812578081fd5b61681b8361665c565b946020939093013593505050565b60008060006060848603121561683d578081fd5b6168468461665c565b95602085013595506040909401359392505050565b600080600080600080600060c0888a031215616875578283fd5b87356001600160401b038082111561688b578485fd5b6168978b838c016166bb565b98506168a560208b0161665c565b975060408a01359150808211156168ba578485fd5b6168c68b838c01616673565b909750955060608a01359150808211156168de578485fd5b6168ea8b838c016166bb565b945060808a01359150808211156168ff578384fd5b61690b8b838c01616722565b935060a08a0135915080821115616920578283fd5b5061692d8a828b0161677c565b91505092959891949750929550565b60006020828403121561694d578081fd5b81356001600160401b03811115616962578182fd5b61479284828501616722565b60006020828403121561697f578081fd5b81518015158114611d70578182fd5b600080604083850312156169a0578182fd5b82356001600160401b03808211156169b6578384fd5b6169c28683870161677c565b935060208501359150808211156169d7578283fd5b506169e48582860161677c565b9150509250929050565b6000602082840312156169ff578081fd5b5035919050565b600060208284031215611fe6578081fd5b60008060408385031215616a29578182fd5b82359150616a396020840161665c565b90509250929050565b600080600060608486031215616a56578283fd5b833592506020840135915060408401356001600160401b03811115616a79578182fd5b616a858682870161677c565b9150509250925092565b60008060408385031215616aa1578182fd5b50508035926020909101359150565b60008060008060808587031215616ac5578182fd5b8435935060208501359250616adc6040860161665c565b9396929550929360600135925050565b600080600060608486031215616b00578081fd5b505081359360208301359350604090920135919050565b6001600160a01b03169052565b6000815180845260208085018081965082840281019150828601855b85811015616b6a578284038952616b58848351616bfd565b98850198935090840190600101616b40565b5091979650505050505050565b6000815180845260208085018081965082840281019150828601855b85811015616b6a578284038952616bab848351616bfd565b98850198935090840190600101616b93565b6000815180845260208085019450808401835b83811015616bec57815187529582019590820190600101616bd0565b509495945050505050565b15159052565b60008151808452616c15816020860160208601617e29565b601f01601f19169290920160200192915050565b60048110616c4757634e487b7160e01b600052602160045260246000fd5b9052565b600a8152690c6dedadad2e890c2e6d60b31b602082015260400190565b60609190911b6bffffffffffffffffffffffff1916815260140190565b60609290921b6bffffffffffffffffffffffff19168252601482015260340190565b90815260200190565b60008251616cc2818460208701617e29565b9190910192915050565b918252602082015260400190565b6001600160a01b0391909116815260200190565b6001600160a01b038a81168252891660208201526040810188905286151560608201526080810186905260a0810185905261012060c08201819052600090616d3883820187616bfd565b94151560e084015250506101000152979650505050505050565b600060208252611d706020830184616b77565b600060208252611d706020830184616bbd565b901515815260200190565b600060208252611d706020830184616bfd565b600060c08252616da960c0830189616bfd565b6001600160a01b0388166020840152604083018790528281036060840152616dd18187616bfd565b90508281036080840152616de58186616bfd565b91505061140a60a0830184616c29565b600060608252616e086060830186616bfd565b8281036020840152616e1a8186616bfd565b90508281036040840152616e2e8185616b77565b9695505050505050565b6000602080835281845483600282049050600180831680616e5a57607f831692505b858310811415616e7857634e487b7160e01b87526022600452602487fd5b616e8483878a01616ca7565b818015616e985760018114616ea957616ed3565b60ff19861682528782019650616ed3565b616eb28b617dbb565b895b86811015616ecd57815484820152908501908901616eb4565b83019750505b50949998505050505050505050565b6020808252601c908201527f576f726b657220697320616c7265616479207265676973746572656400000000604082015260600190565b60208082526031908201527f676976656e204461746142617463682073686f756c6420626520415050524f5660408201527011510b08185b99081a5d081a5cc81b9bdd607a1b606082015260800190565b60208082526041908201527f576f726b657220686173206e6f7420656e6f75676820285f6e756d546f6b656e60408201527f732920696e206869732053706f745374616b6564546f6b656e42616c616e63656060820152600160fd1b608082015260a00190565b60208082526025908201527f72656365697665722072656a6563746564205f7265747269657665534675656c6040820152640818d85b1b60da1b606082015260800190565b6020808252605c908201527f4e6f74207468652073616d6520766f7465207468616e2077686174207761732060408201527f636f6d6d697465642c20696d706f737369626c6520746f206d6174636820776960608201527f746820676976656e205f73616c742026205f766f74654f7074696f6e00000000608082015260a00190565b60208082526026908201527f4f776e61626c653a206e6577206f776e657220697320746865207a65726f206160408201526564647265737360d01b606082015260800190565b60208082526029908201527f6b206f72204e20617265206e6f74204f4b20647572696e672072616e646f6d2060408201526839b2b632b1ba34b7b760b91b606082015260800190565b6020808252602a908201527f4661696c20647572696e6720616c6c6f636174696f6e3a206e6f7420656e6f75604082015269676820776f726b65727360b01b606082015260800190565b60208082526025908201527f576f726b6572206d757374206265204e4f54204275737920746f20756e72656760408201526434b9ba32b960d91b606082015260800190565b6020808252601e908201527f636f6d6d697420706572696f64206e6565647320746f206265206f70656e0000604082015260600190565b6020808252602f908201527f636f756c64206e6f742072657761726420746f6b656e20696e2054726967676560408201526e3921b432b1b5a9b837ba161018973160891b606082015260800190565b6020808252602b908201527f576f726b6572206973206e6f7420617661696c61626c6520736f2063616e277460408201526a103ab73932b3b4b9ba32b960a91b606082015260800190565b6020808252603d908201527f436f756c64206e6f74207265717565737420656e6f75676820616c6c6f63617460408201527f6564207374616b652c2072657175657374566f74696e67526967687473000000606082015260800190565b6020808252602f908201527f5573657220686173206e6f7420636f6d6d69746564206265666f72652c20746860408201526e1d5cc818d85b89dd081c995d99585b608a1b606082015260800190565b60208082526014908201527311185d18481b5d5cdd081a185d9948195b99195960621b604082015260600190565b6020808252602d908201527f636f756c64206e6f74207265776172642052455020696e20547269676765724360408201526c6865636b53706f742c20312e6160981b606082015260800190565b60208082526039908201527f646c6c4d61703a20646f6573206e6f7420636f696e7461696e205f446174614260408201527f61746368496420666f7220746865206d73672073656e64657200000000000000606082015260800190565b6020808252602b908201527f75736572206d75737420686176652072657665616c656420696e20746869732060408201526a0ced2eccadc4084c2e8c6d60ab1b606082015260800190565b6020808252601490820152733737ba1030903b30b634b2103837b9b4ba34b7b760611b604082015260600190565b6020808252603b908201527f43616e277420616c6c6f6361746520776f726b2c207468652063757272656e7460408201527f20626174636820697320616c726561647920616c6c6f63617465640000000000606082015260800190565b60208082526048908201527f55736572206e6565647320746f2068617665206265656e20616c6c6f6361746560408201527f64207468652063757272656e74206461746120626174636820746f20636f6d6d6060820152671a5d081bdb881a5d60c21b608082015260a00190565b6020808252818101527f4f776e61626c653a2063616c6c6572206973206e6f7420746865206f776e6572604082015260600190565b6020808252603a908201527f5f446174614261746368496420686173206e6f7420656e6465642c206f72206e60408201527f6f7420657665727920766f74657273206861766520766f746564000000000000606082015260800190565b60208082526029908201527f6765744e756d50617373696e67546f6b656e733a20686173686573206d75737460408201526808189948195c5d585b60ba1b606082015260800190565b60208082526036908201527f43616e277420616c6c6f6361746520776f726b2c207468652063757272656e74604082015275206261746368206973206e6f7420636f6d706c65746560501b606082015260800190565b60208082526026908201527f52657665616c20706572696f64206e6f74206f70656e20666f7220746869732060408201526511185d18525160d21b606082015260800190565b60208082526027908201527f617661696c61626c65546f6b656e732073686f756c64206265203e3d205f6e756040820152666d546f6b656e7360c81b606082015260800190565b60208082526017908201527f5f4461746142617463684964206d757374206578697374000000000000000000604082015260600190565b6020808252601390820152720c081059191c995cdcc8139bdd0815985b1a59606a1b604082015260600190565b6020808252602f908201527f636f756c64206e6f742072657761726420746f6b656e20696e2054726967676560408201526e3921b432b1b5a9b837ba161019173160891b606082015260800190565b60208082526021908201527f5f446174614261746368496420697320616c72656164792076616c69646174656040820152601960fa1b606082015260800190565b60208082526022908201527f4d6178696d756d207265676973746572656420776f726b65727320616c726561604082015261647960f01b606082015260800190565b60208082526037908201527f75736572206d757374206861766520656e6f75676820766f74696e672072696760408201527f68747320616b6120616c6c6f6361746564207374616b65000000000000000000606082015260800190565b6020808252602d908201527f636f756c64206e6f74207265776172642052455020696e20547269676765724360408201526c6865636b53706f742c20322e6160981b606082015260800190565b6020808252602a908201527f5f446174614261746368496420636865636b696e6720766f7465206d757374206040820152691a185d9948195b99195960b21b606082015260800190565b6020808252603b908201527f436f756c64206e6f74207769746864726177566f74696e67526967687473207460408201527f68726f7567682050726f78795374616b654465616c6c6f636174650000000000606082015260800190565b6020808252600f908201526e11185d18481b5d5cdd08195e1a5cdd608a1b604082015260600190565b6000602082528251602083015260208301516040830152604083015160608301526060830151608083015260808301516179fb60a0840182616bf7565b5060a0830151617a0e60c0840182616bf7565b5060c0830151617a2160e0840182616bf7565b5060e0830151610100838101919091528301516101208084019190915283015161014080840191909152830151610160808401919091528301516101e0610180808501829052617a75610200860184616bfd565b908601519092506101a0617a8b86820183616c29565b80870151915050601f196101c0818786030181880152617aab8584616b24565b908801518782039092018488015293509050616e2e8382616bbd565b600085825284602083015260806040830152617ae66080830185616bfd565b905082606083015295945050505050565b60008382528260208301526060604083015261479260608301616c4b565b600084825283602083015260806040830152617b3360808301616c4b565b9050826060830152949350505050565b9182526020820152606060408201819052600990820152686e756d546f6b656e7360b81b608082015260a00190565b93845260208401929092526040830152606082015260800190565b6000602082528251610100806020850152617bac610120850183616bfd565b91506020850151617bc06040860182616b17565b50604085015160608501526060850151601f1980868503016080870152617be78483616bfd565b935060808701519150808685030160a0870152617c048483616b24565b935060a08701519150808685030160c0870152617c218483616bbd565b935060c08701519150808685030160e087015250617c3f8382616bfd565b92505060e0850151617c5382860182616c29565b5090949350505050565b9182526001600160a01b0316602082015260400190565b9182526001600160a01b031660208201526000604082015260600190565b9283526020830191909152604082015260600190565b60006101a08f83528e60208401528d60408401528c60608401528b151560808401528a151560a084015289151560c08401528860e084015287610100840152866101208401528561014084015280610160840152617d0881840186616bfd565b915050617d19610180830184616c29565b9e9d5050505050505050505050505050565b6000808335601e19843603018112617d41578283fd5b8301803591506001600160401b03821115617d5a578283fd5b6020019150368190038213156166b457600080fd5b6040518181016001600160401b0381118282101715617d9057617d90617eef565b604052919050565b60006001600160401b03821115617db157617db1617eef565b5060209081020190565b60009081526020902090565b60008219821115617dda57617dda617ec3565b500190565b600082617dee57617dee617ed9565b500490565b6000816000190483118215151615617e0d57617e0d617ec3565b500290565b600082821015617e2457617e24617ec3565b500390565b60005b83811015617e44578181015183820152602001617e2c565b83811115617e53576000848401525b50505050565b600281046001821680617e6d57607f821691505b60208210811415617e8e57634e487b7160e01b600052602260045260246000fd5b50919050565b6000600019821415617ea857617ea8617ec3565b5060010190565b600082617ebe57617ebe617ed9565b500690565b634e487b7160e01b600052601160045260246000fd5b634e487b7160e01b600052601260045260246000fd5b634e487b7160e01b600052604160045260246000fdfea264697066735822122080d26cab44326eb8ccae79921484b933c31dd7cc07014823ade343aaf19508e464736f6c63430008000033",
  "linkReferences": {
    "contracts/worksystems/DataSpotting.sol": {
      "AttributeStore": [
        {
          "length": 20,
          "start": 14812
        },
        {
          "length": 20,
          "start": 14920
        },
        {
          "length": 20,
          "start": 17310
        },
        {
          "length": 20,
          "start": 17554
        }
      ],
      "DLL": [
        {
          "length": 20,
          "start": 4059
        },
        {
          "length": 20,
          "start": 7634
        },
        {
          "length": 20,
          "start": 7806
        },
        {
          "length": 20,
          "start": 8620
        },
        {
          "length": 20,
          "start": 13268
        },
        {
          "length": 20,
          "start": 13448
        },
        {
          "length": 20,
          "start": 14301
        },
        {
          "length": 20,
          "start": 14463
        },
        {
          "length": 20,
          "start": 14658
        }
      ]
    }
  },
  "deployedLinkReferences": {
    "contracts/worksystems/DataSpotting.sol": {
      "AttributeStore": [
        {
          "length": 20,
          "start": 14410
        },
        {
          "length": 20,
          "start": 14518
        },
        {
          "length": 20,
          "start": 16908
        },
        {
          "length": 20,
          "start": 17152
        }
      ],
      "DLL": [
        {
          "length": 20,
          "start": 3657
        },
        {
          "length": 20,
          "start": 7232
        },
        {
          "length": 20,
          "start": 7404
        },
        {
          "length": 20,
          "start": 8218
        },
        {
          "length": 20,
          "start": 12866
        },
        {
          "length": 20,
          "start": 13046
        },
        {
          "length": 20,
          "start": 13899
        },
        {
          "length": 20,
          "start": 14061
        },
        {
          "length": 20,
          "start": 14256
        }
      ]
    }
  }
}