{
  "_format": "hh-sol-artifact-1",
  "contractName": "DataSpotting",
  "sourceName": "contracts/worksystems/DataSpotting.sol",
  "abi": [
    {
      "inputs": [
        {
          "internalType": "address",
          "name": "EXDT_token",
          "type": "address"
        }
      ],
      "stateMutability": "nonpayable",
      "type": "constructor"
    },
    {
      "anonymous": false,
      "inputs": [
        {
          "indexed": false,
          "internalType": "bytes",
          "name": "bytesFailure",
          "type": "bytes"
        }
      ],
      "name": "BytesFailure",
      "type": "event"
    },
    {
      "anonymous": false,
      "inputs": [
        {
          "indexed": true,
          "internalType": "address",
          "name": "previousOwner",
          "type": "address"
        },
        {
          "indexed": true,
          "internalType": "address",
          "name": "newOwner",
          "type": "address"
        }
      ],
      "name": "OwnershipTransferred",
      "type": "event"
    },
    {
      "anonymous": false,
      "inputs": [
        {
          "indexed": true,
          "internalType": "uint256",
          "name": "epochNumber",
          "type": "uint256"
        }
      ],
      "name": "_NewEpoch",
      "type": "event"
    },
    {
      "anonymous": false,
      "inputs": [
        {
          "indexed": false,
          "internalType": "string",
          "name": "hash",
          "type": "string"
        },
        {
          "indexed": true,
          "internalType": "address",
          "name": "creator",
          "type": "address"
        }
      ],
      "name": "_SpotAccepted",
      "type": "event"
    },
    {
      "anonymous": false,
      "inputs": [
        {
          "indexed": true,
          "internalType": "uint256",
          "name": "DataID",
          "type": "uint256"
        },
        {
          "indexed": false,
          "internalType": "uint256",
          "name": "numTokens",
          "type": "uint256"
        },
        {
          "indexed": true,
          "internalType": "address",
          "name": "voter",
          "type": "address"
        }
      ],
      "name": "_SpotCheckCommitted",
      "type": "event"
    },
    {
      "anonymous": false,
      "inputs": [
        {
          "indexed": true,
          "internalType": "uint256",
          "name": "DataID",
          "type": "uint256"
        },
        {
          "indexed": false,
          "internalType": "uint256",
          "name": "numTokens",
          "type": "uint256"
        },
        {
          "indexed": false,
          "internalType": "uint256",
          "name": "votesFor",
          "type": "uint256"
        },
        {
          "indexed": false,
          "internalType": "uint256",
          "name": "votesAgainst",
          "type": "uint256"
        },
        {
          "indexed": true,
          "internalType": "uint256",
          "name": "choice",
          "type": "uint256"
        },
        {
          "indexed": true,
          "internalType": "address",
          "name": "voter",
          "type": "address"
        }
      ],
      "name": "_SpotCheckRevealed",
      "type": "event"
    },
    {
      "anonymous": false,
      "inputs": [
        {
          "indexed": true,
          "internalType": "uint256",
          "name": "DataID",
          "type": "uint256"
        },
        {
          "indexed": false,
          "internalType": "string",
          "name": "file_hash",
          "type": "string"
        },
        {
          "indexed": false,
          "internalType": "string",
          "name": "URL_domain",
          "type": "string"
        },
        {
          "indexed": false,
          "internalType": "string[]",
          "name": "tags",
          "type": "string[]"
        },
        {
          "indexed": true,
          "internalType": "address",
          "name": "sender",
          "type": "address"
        }
      ],
      "name": "_SpotSubmitted",
      "type": "event"
    },
    {
      "anonymous": false,
      "inputs": [
        {
          "indexed": true,
          "internalType": "uint256",
          "name": "DataID",
          "type": "uint256"
        },
        {
          "indexed": true,
          "internalType": "address",
          "name": "voter",
          "type": "address"
        }
      ],
      "name": "_TokensRescued",
      "type": "event"
    },
    {
      "anonymous": false,
      "inputs": [
        {
          "indexed": false,
          "internalType": "uint256",
          "name": "numTokens",
          "type": "uint256"
        },
        {
          "indexed": true,
          "internalType": "address",
          "name": "voter",
          "type": "address"
        }
      ],
      "name": "_VotingRightsGranted",
      "type": "event"
    },
    {
      "anonymous": false,
      "inputs": [
        {
          "indexed": false,
          "internalType": "uint256",
          "name": "numTokens",
          "type": "uint256"
        },
        {
          "indexed": true,
          "internalType": "address",
          "name": "voter",
          "type": "address"
        }
      ],
      "name": "_VotingRightsWithdrawn",
      "type": "event"
    },
    {
      "anonymous": false,
      "inputs": [
        {
          "indexed": true,
          "internalType": "uint256",
          "name": "batchID",
          "type": "uint256"
        },
        {
          "indexed": false,
          "internalType": "address",
          "name": "worker",
          "type": "address"
        }
      ],
      "name": "_WorkAllocated",
      "type": "event"
    },
    {
      "anonymous": false,
      "inputs": [
        {
          "indexed": true,
          "internalType": "address",
          "name": "worker",
          "type": "address"
        },
        {
          "indexed": false,
          "internalType": "uint256",
          "name": "timestamp",
          "type": "uint256"
        }
      ],
      "name": "_WorkerRegistered",
      "type": "event"
    },
    {
      "anonymous": false,
      "inputs": [
        {
          "indexed": true,
          "internalType": "address",
          "name": "worker",
          "type": "address"
        },
        {
          "indexed": false,
          "internalType": "uint256",
          "name": "timestamp",
          "type": "uint256"
        }
      ],
      "name": "_WorkerUnregistered",
      "type": "event"
    },
    {
      "inputs": [],
      "name": "AddressManager",
      "outputs": [
        {
          "internalType": "contract IAddressManager",
          "name": "",
          "type": "address"
        }
      ],
      "stateMutability": "view",
      "type": "function"
    },
    {
      "inputs": [],
      "name": "AllTxsCounter",
      "outputs": [
        {
          "internalType": "uint256",
          "name": "",
          "type": "uint256"
        }
      ],
      "stateMutability": "view",
      "type": "function"
    },
    {
      "inputs": [],
      "name": "AllocateWork",
      "outputs": [],
      "stateMutability": "nonpayable",
      "type": "function"
    },
    {
      "inputs": [],
      "name": "AllocatedBatchCursor",
      "outputs": [
        {
          "internalType": "uint256",
          "name": "",
          "type": "uint256"
        }
      ],
      "stateMutability": "view",
      "type": "function"
    },
    {
      "inputs": [],
      "name": "AmIRegistered",
      "outputs": [
        {
          "internalType": "bool",
          "name": "passed",
          "type": "bool"
        }
      ],
      "stateMutability": "view",
      "type": "function"
    },
    {
      "inputs": [
        {
          "internalType": "string",
          "name": "_a",
          "type": "string"
        },
        {
          "internalType": "string",
          "name": "_b",
          "type": "string"
        }
      ],
      "name": "AreStringsEqual",
      "outputs": [
        {
          "internalType": "bool",
          "name": "",
          "type": "bool"
        }
      ],
      "stateMutability": "pure",
      "type": "function"
    },
    {
      "inputs": [],
      "name": "BatchCheckingCursor",
      "outputs": [
        {
          "internalType": "uint256",
          "name": "",
          "type": "uint256"
        }
      ],
      "stateMutability": "view",
      "type": "function"
    },
    {
      "inputs": [],
      "name": "COMMIT_ROUND_DURATION",
      "outputs": [
        {
          "internalType": "uint256",
          "name": "",
          "type": "uint256"
        }
      ],
      "stateMutability": "view",
      "type": "function"
    },
    {
      "inputs": [],
      "name": "CONSENSUS_WORKER_SIZE",
      "outputs": [
        {
          "internalType": "uint256",
          "name": "",
          "type": "uint256"
        }
      ],
      "stateMutability": "view",
      "type": "function"
    },
    {
      "inputs": [],
      "name": "CurrentWorkEpoch",
      "outputs": [
        {
          "internalType": "uint256",
          "name": "",
          "type": "uint256"
        }
      ],
      "stateMutability": "view",
      "type": "function"
    },
    {
      "inputs": [],
      "name": "DATA_BATCH_SIZE",
      "outputs": [
        {
          "internalType": "uint256",
          "name": "",
          "type": "uint256"
        }
      ],
      "stateMutability": "view",
      "type": "function"
    },
    {
      "inputs": [
        {
          "internalType": "uint256",
          "name": "",
          "type": "uint256"
        }
      ],
      "name": "DataBatch",
      "outputs": [
        {
          "internalType": "uint256",
          "name": "start_idx",
          "type": "uint256"
        },
        {
          "internalType": "uint256",
          "name": "end_idx",
          "type": "uint256"
        },
        {
          "internalType": "uint256",
          "name": "counter",
          "type": "uint256"
        },
        {
          "internalType": "uint256",
          "name": "unrevealed_workers",
          "type": "uint256"
        },
        {
          "internalType": "bool",
          "name": "complete",
          "type": "bool"
        },
        {
          "internalType": "bool",
          "name": "checked",
          "type": "bool"
        },
        {
          "internalType": "bool",
          "name": "allocated_to_work",
          "type": "bool"
        },
        {
          "internalType": "uint256",
          "name": "commitEndDate",
          "type": "uint256"
        },
        {
          "internalType": "uint256",
          "name": "revealEndDate",
          "type": "uint256"
        },
        {
          "internalType": "uint256",
          "name": "votesFor",
          "type": "uint256"
        },
        {
          "internalType": "uint256",
          "name": "votesAgainst",
          "type": "uint256"
        },
        {
          "internalType": "string",
          "name": "batchIPFSfile",
          "type": "string"
        },
        {
          "internalType": "enum DataSpotting.DataStatus",
          "name": "status",
          "type": "uint8"
        }
      ],
      "stateMutability": "view",
      "type": "function"
    },
    {
      "inputs": [
        {
          "internalType": "uint256",
          "name": "_DataBatchId",
          "type": "uint256"
        }
      ],
      "name": "DataCommitEndDate",
      "outputs": [
        {
          "internalType": "uint256",
          "name": "commitEndDate",
          "type": "uint256"
        }
      ],
      "stateMutability": "view",
      "type": "function"
    },
    {
      "inputs": [
        {
          "internalType": "uint256",
          "name": "_DataBatchId",
          "type": "uint256"
        }
      ],
      "name": "DataEnded",
      "outputs": [
        {
          "internalType": "bool",
          "name": "ended",
          "type": "bool"
        }
      ],
      "stateMutability": "view",
      "type": "function"
    },
    {
      "inputs": [
        {
          "internalType": "uint256",
          "name": "_DataBatchId",
          "type": "uint256"
        }
      ],
      "name": "DataExists",
      "outputs": [
        {
          "internalType": "bool",
          "name": "exists",
          "type": "bool"
        }
      ],
      "stateMutability": "view",
      "type": "function"
    },
    {
      "inputs": [],
      "name": "DataNonce",
      "outputs": [
        {
          "internalType": "uint256",
          "name": "",
          "type": "uint256"
        }
      ],
      "stateMutability": "view",
      "type": "function"
    },
    {
      "inputs": [
        {
          "internalType": "uint256",
          "name": "_DataBatchId",
          "type": "uint256"
        }
      ],
      "name": "DataRevealEndDate",
      "outputs": [
        {
          "internalType": "uint256",
          "name": "revealEndDate",
          "type": "uint256"
        }
      ],
      "stateMutability": "view",
      "type": "function"
    },
    {
      "inputs": [],
      "name": "FormattingSystem",
      "outputs": [
        {
          "internalType": "contract IFormattingSystem",
          "name": "",
          "type": "address"
        }
      ],
      "stateMutability": "view",
      "type": "function"
    },
    {
      "inputs": [
        {
          "internalType": "address",
          "name": "user_",
          "type": "address"
        }
      ],
      "name": "GetCurrentWork",
      "outputs": [
        {
          "internalType": "uint256",
          "name": "",
          "type": "uint256"
        }
      ],
      "stateMutability": "view",
      "type": "function"
    },
    {
      "inputs": [
        {
          "internalType": "address",
          "name": "user_",
          "type": "address"
        }
      ],
      "name": "IsNewWorkAvailable",
      "outputs": [
        {
          "internalType": "bool",
          "name": "",
          "type": "bool"
        }
      ],
      "stateMutability": "view",
      "type": "function"
    },
    {
      "inputs": [],
      "name": "LastBatchCounter",
      "outputs": [
        {
          "internalType": "uint256",
          "name": "",
          "type": "uint256"
        }
      ],
      "stateMutability": "view",
      "type": "function"
    },
    {
      "inputs": [],
      "name": "MIN_REP_Data",
      "outputs": [
        {
          "internalType": "uint256",
          "name": "",
          "type": "uint256"
        }
      ],
      "stateMutability": "view",
      "type": "function"
    },
    {
      "inputs": [],
      "name": "MIN_REP_REVEAL",
      "outputs": [
        {
          "internalType": "uint256",
          "name": "",
          "type": "uint256"
        }
      ],
      "stateMutability": "view",
      "type": "function"
    },
    {
      "inputs": [],
      "name": "MIN_REWARD_Data",
      "outputs": [
        {
          "internalType": "uint256",
          "name": "",
          "type": "uint256"
        }
      ],
      "stateMutability": "view",
      "type": "function"
    },
    {
      "inputs": [],
      "name": "MIN_STAKE",
      "outputs": [
        {
          "internalType": "uint256",
          "name": "",
          "type": "uint256"
        }
      ],
      "stateMutability": "view",
      "type": "function"
    },
    {
      "inputs": [
        {
          "internalType": "address",
          "name": "",
          "type": "address"
        },
        {
          "internalType": "uint256",
          "name": "",
          "type": "uint256"
        }
      ],
      "name": "MasterWorkers",
      "outputs": [
        {
          "internalType": "address",
          "name": "",
          "type": "address"
        }
      ],
      "stateMutability": "view",
      "type": "function"
    },
    {
      "inputs": [],
      "name": "REVEAL_ROUND_DURATION",
      "outputs": [
        {
          "internalType": "uint256",
          "name": "",
          "type": "uint256"
        }
      ],
      "stateMutability": "view",
      "type": "function"
    },
    {
      "inputs": [],
      "name": "RegisterWorker",
      "outputs": [],
      "stateMutability": "nonpayable",
      "type": "function"
    },
    {
      "inputs": [],
      "name": "RepManager",
      "outputs": [
        {
          "internalType": "contract IRepManager",
          "name": "",
          "type": "address"
        }
      ],
      "stateMutability": "view",
      "type": "function"
    },
    {
      "inputs": [],
      "name": "RewardManager",
      "outputs": [
        {
          "internalType": "contract IRewardManager",
          "name": "",
          "type": "address"
        }
      ],
      "stateMutability": "view",
      "type": "function"
    },
    {
      "inputs": [],
      "name": "SPOT_CHECK_VOTE_QUORUM",
      "outputs": [
        {
          "internalType": "uint256",
          "name": "",
          "type": "uint256"
        }
      ],
      "stateMutability": "view",
      "type": "function"
    },
    {
      "inputs": [
        {
          "internalType": "string[]",
          "name": "file_hashs",
          "type": "string[]"
        },
        {
          "internalType": "address",
          "name": "main_worker_account",
          "type": "address"
        },
        {
          "internalType": "string[]",
          "name": "URL_domains",
          "type": "string[]"
        },
        {
          "internalType": "string[]",
          "name": "tags_",
          "type": "string[]"
        },
        {
          "internalType": "uint256[]",
          "name": "tags_id_",
          "type": "uint256[]"
        },
        {
          "internalType": "string",
          "name": "extra_",
          "type": "string"
        }
      ],
      "name": "SpotData",
      "outputs": [
        {
          "internalType": "uint256",
          "name": "Dataid_",
          "type": "uint256"
        }
      ],
      "stateMutability": "nonpayable",
      "type": "function"
    },
    {
      "inputs": [
        {
          "internalType": "address",
          "name": "",
          "type": "address"
        }
      ],
      "name": "SpotStakedTokenBalance",
      "outputs": [
        {
          "internalType": "uint256",
          "name": "",
          "type": "uint256"
        }
      ],
      "stateMutability": "view",
      "type": "function"
    },
    {
      "inputs": [
        {
          "internalType": "uint256",
          "name": "",
          "type": "uint256"
        }
      ],
      "name": "SpotsMapping",
      "outputs": [
        {
          "internalType": "string",
          "name": "ipfs_hash",
          "type": "string"
        },
        {
          "internalType": "address",
          "name": "author",
          "type": "address"
        },
        {
          "internalType": "uint256",
          "name": "timestamp",
          "type": "uint256"
        },
        {
          "internalType": "string",
          "name": "URL_domain",
          "type": "string"
        },
        {
          "internalType": "string",
          "name": "extra",
          "type": "string"
        },
        {
          "internalType": "enum DataSpotting.DataStatus",
          "name": "status",
          "type": "uint8"
        }
      ],
      "stateMutability": "view",
      "type": "function"
    },
    {
      "inputs": [],
      "name": "StakeManager",
      "outputs": [
        {
          "internalType": "contract IStakeManager",
          "name": "",
          "type": "address"
        }
      ],
      "stateMutability": "view",
      "type": "function"
    },
    {
      "inputs": [],
      "name": "TriggerNextEpoch",
      "outputs": [],
      "stateMutability": "nonpayable",
      "type": "function"
    },
    {
      "inputs": [],
      "name": "UnregisterWorker",
      "outputs": [],
      "stateMutability": "nonpayable",
      "type": "function"
    },
    {
      "inputs": [
        {
          "internalType": "address",
          "name": "",
          "type": "address"
        },
        {
          "internalType": "uint256",
          "name": "",
          "type": "uint256"
        }
      ],
      "name": "UserChecksCommits",
      "outputs": [
        {
          "internalType": "bool",
          "name": "",
          "type": "bool"
        }
      ],
      "stateMutability": "view",
      "type": "function"
    },
    {
      "inputs": [
        {
          "internalType": "address",
          "name": "",
          "type": "address"
        },
        {
          "internalType": "uint256",
          "name": "",
          "type": "uint256"
        }
      ],
      "name": "UserChecksReveals",
      "outputs": [
        {
          "internalType": "bool",
          "name": "",
          "type": "bool"
        }
      ],
      "stateMutability": "view",
      "type": "function"
    },
    {
      "inputs": [
        {
          "internalType": "uint256",
          "name": "",
          "type": "uint256"
        },
        {
          "internalType": "address",
          "name": "",
          "type": "address"
        }
      ],
      "name": "UserNewFiles",
      "outputs": [
        {
          "internalType": "string",
          "name": "",
          "type": "string"
        }
      ],
      "stateMutability": "view",
      "type": "function"
    },
    {
      "inputs": [
        {
          "internalType": "uint256",
          "name": "",
          "type": "uint256"
        },
        {
          "internalType": "address",
          "name": "",
          "type": "address"
        }
      ],
      "name": "UserVotes",
      "outputs": [
        {
          "internalType": "uint256",
          "name": "",
          "type": "uint256"
        }
      ],
      "stateMutability": "view",
      "type": "function"
    },
    {
      "inputs": [
        {
          "internalType": "uint256",
          "name": "",
          "type": "uint256"
        },
        {
          "internalType": "uint256",
          "name": "",
          "type": "uint256"
        }
      ],
      "name": "WorkersPerBatch",
      "outputs": [
        {
          "internalType": "address",
          "name": "",
          "type": "address"
        }
      ],
      "stateMutability": "view",
      "type": "function"
    },
    {
      "inputs": [
        {
          "internalType": "address",
          "name": "",
          "type": "address"
        }
      ],
      "name": "WorkersState",
      "outputs": [
        {
          "internalType": "address",
          "name": "worker_address",
          "type": "address"
        },
        {
          "internalType": "address",
          "name": "master_address",
          "type": "address"
        },
        {
          "internalType": "uint256",
          "name": "allocated_work_batch",
          "type": "uint256"
        },
        {
          "internalType": "bool",
          "name": "has_completed_work",
          "type": "bool"
        },
        {
          "internalType": "uint256",
          "name": "last_worked_round",
          "type": "uint256"
        },
        {
          "internalType": "uint256",
          "name": "last_interaction_date",
          "type": "uint256"
        },
        {
          "internalType": "string",
          "name": "extra",
          "type": "string"
        },
        {
          "internalType": "bool",
          "name": "registered",
          "type": "bool"
        },
        {
          "internalType": "uint256",
          "name": "registration_date",
          "type": "uint256"
        }
      ],
      "stateMutability": "view",
      "type": "function"
    },
    {
      "inputs": [
        {
          "internalType": "address",
          "name": "_user",
          "type": "address"
        },
        {
          "internalType": "uint256",
          "name": "_DataBatchId",
          "type": "uint256"
        }
      ],
      "name": "attrUUID",
      "outputs": [
        {
          "internalType": "bytes32",
          "name": "UUID",
          "type": "bytes32"
        }
      ],
      "stateMutability": "pure",
      "type": "function"
    },
    {
      "inputs": [
        {
          "internalType": "uint256",
          "name": "",
          "type": "uint256"
        }
      ],
      "name": "availableWorkers",
      "outputs": [
        {
          "internalType": "address",
          "name": "",
          "type": "address"
        }
      ],
      "stateMutability": "view",
      "type": "function"
    },
    {
      "inputs": [
        {
          "internalType": "uint256",
          "name": "",
          "type": "uint256"
        }
      ],
      "name": "busyWorkers",
      "outputs": [
        {
          "internalType": "address",
          "name": "",
          "type": "address"
        }
      ],
      "stateMutability": "view",
      "type": "function"
    },
    {
      "inputs": [
        {
          "internalType": "uint256",
          "name": "_DataBatchId",
          "type": "uint256"
        }
      ],
      "name": "commitPeriodActive",
      "outputs": [
        {
          "internalType": "bool",
          "name": "active",
          "type": "bool"
        }
      ],
      "stateMutability": "view",
      "type": "function"
    },
    {
      "inputs": [
        {
          "internalType": "uint256",
          "name": "_DataBatchId",
          "type": "uint256"
        },
        {
          "internalType": "bytes32",
          "name": "_secretHash",
          "type": "bytes32"
        },
        {
          "internalType": "string",
          "name": "newIPFSHash",
          "type": "string"
        }
      ],
      "name": "commitSpotCheck",
      "outputs": [],
      "stateMutability": "nonpayable",
      "type": "function"
    },
    {
      "inputs": [
        {
          "internalType": "uint256",
          "name": "_DataId",
          "type": "uint256"
        }
      ],
      "name": "deleteData",
      "outputs": [],
      "stateMutability": "nonpayable",
      "type": "function"
    },
    {
      "inputs": [
        {
          "internalType": "uint256",
          "name": "_BatchId",
          "type": "uint256"
        }
      ],
      "name": "deleteDataBatch",
      "outputs": [],
      "stateMutability": "nonpayable",
      "type": "function"
    },
    {
      "inputs": [
        {
          "internalType": "address",
          "name": "_voter",
          "type": "address"
        },
        {
          "internalType": "uint256",
          "name": "_DataBatchId",
          "type": "uint256"
        }
      ],
      "name": "didCommit",
      "outputs": [
        {
          "internalType": "bool",
          "name": "committed",
          "type": "bool"
        }
      ],
      "stateMutability": "view",
      "type": "function"
    },
    {
      "inputs": [
        {
          "internalType": "address",
          "name": "_voter",
          "type": "address"
        },
        {
          "internalType": "uint256",
          "name": "_DataBatchId",
          "type": "uint256"
        }
      ],
      "name": "didReveal",
      "outputs": [
        {
          "internalType": "bool",
          "name": "revealed",
          "type": "bool"
        }
      ],
      "stateMutability": "view",
      "type": "function"
    },
    {
      "inputs": [
        {
          "internalType": "uint256",
          "name": "_k",
          "type": "uint256"
        },
        {
          "internalType": "uint256",
          "name": "N_range",
          "type": "uint256"
        }
      ],
      "name": "generateIntegers",
      "outputs": [
        {
          "internalType": "uint256[]",
          "name": "",
          "type": "uint256[]"
        }
      ],
      "stateMutability": "view",
      "type": "function"
    },
    {
      "inputs": [],
      "name": "getActiveWorkersCount",
      "outputs": [
        {
          "internalType": "uint256",
          "name": "numWorkers",
          "type": "uint256"
        }
      ],
      "stateMutability": "view",
      "type": "function"
    },
    {
      "inputs": [
        {
          "internalType": "uint256",
          "name": "_DataBatchId",
          "type": "uint256"
        }
      ],
      "name": "getBatchByID",
      "outputs": [
        {
          "components": [
            {
              "internalType": "uint256",
              "name": "start_idx",
              "type": "uint256"
            },
            {
              "internalType": "uint256",
              "name": "end_idx",
              "type": "uint256"
            },
            {
              "internalType": "uint256",
              "name": "counter",
              "type": "uint256"
            },
            {
              "internalType": "uint256",
              "name": "unrevealed_workers",
              "type": "uint256"
            },
            {
              "internalType": "bool",
              "name": "complete",
              "type": "bool"
            },
            {
              "internalType": "bool",
              "name": "checked",
              "type": "bool"
            },
            {
              "internalType": "bool",
              "name": "allocated_to_work",
              "type": "bool"
            },
            {
              "internalType": "uint256",
              "name": "commitEndDate",
              "type": "uint256"
            },
            {
              "internalType": "uint256",
              "name": "revealEndDate",
              "type": "uint256"
            },
            {
              "internalType": "uint256",
              "name": "votesFor",
              "type": "uint256"
            },
            {
              "internalType": "uint256",
              "name": "votesAgainst",
              "type": "uint256"
            },
            {
              "internalType": "string",
              "name": "batchIPFSfile",
              "type": "string"
            },
            {
              "internalType": "enum DataSpotting.DataStatus",
              "name": "status",
              "type": "uint8"
            },
            {
              "internalType": "string[]",
              "name": "flags",
              "type": "string[]"
            },
            {
              "internalType": "uint256[]",
              "name": "flags_id",
              "type": "uint256[]"
            }
          ],
          "internalType": "struct DataSpotting.BatchMetadata",
          "name": "batch",
          "type": "tuple"
        }
      ],
      "stateMutability": "view",
      "type": "function"
    },
    {
      "inputs": [
        {
          "internalType": "uint256",
          "name": "_DataBatchId",
          "type": "uint256"
        }
      ],
      "name": "getBatchIPFSFileByID",
      "outputs": [
        {
          "internalType": "string",
          "name": "batch",
          "type": "string"
        }
      ],
      "stateMutability": "view",
      "type": "function"
    },
    {
      "inputs": [],
      "name": "getBlockTimestamp",
      "outputs": [
        {
          "internalType": "uint256",
          "name": "blocktimestamp",
          "type": "uint256"
        }
      ],
      "stateMutability": "view",
      "type": "function"
    },
    {
      "inputs": [
        {
          "internalType": "address",
          "name": "_voter",
          "type": "address"
        },
        {
          "internalType": "uint256",
          "name": "_DataBatchId",
          "type": "uint256"
        }
      ],
      "name": "getCommitHash",
      "outputs": [
        {
          "internalType": "bytes32",
          "name": "commitHash",
          "type": "bytes32"
        }
      ],
      "stateMutability": "view",
      "type": "function"
    },
    {
      "inputs": [],
      "name": "getCurrentWorkEpoch",
      "outputs": [
        {
          "internalType": "uint256",
          "name": "WorkEpoch",
          "type": "uint256"
        }
      ],
      "stateMutability": "view",
      "type": "function"
    },
    {
      "inputs": [
        {
          "internalType": "uint256",
          "name": "_DataId",
          "type": "uint256"
        }
      ],
      "name": "getDataByID",
      "outputs": [
        {
          "components": [
            {
              "internalType": "string",
              "name": "ipfs_hash",
              "type": "string"
            },
            {
              "internalType": "address",
              "name": "author",
              "type": "address"
            },
            {
              "internalType": "uint256",
              "name": "timestamp",
              "type": "uint256"
            },
            {
              "internalType": "string",
              "name": "URL_domain",
              "type": "string"
            },
            {
              "internalType": "string[]",
              "name": "tags",
              "type": "string[]"
            },
            {
              "internalType": "uint256[]",
              "name": "tags_id",
              "type": "uint256[]"
            },
            {
              "internalType": "string",
              "name": "extra",
              "type": "string"
            },
            {
              "internalType": "enum DataSpotting.DataStatus",
              "name": "status",
              "type": "uint8"
            }
          ],
          "internalType": "struct DataSpotting.SpottedData",
          "name": "data",
          "type": "tuple"
        }
      ],
      "stateMutability": "view",
      "type": "function"
    },
    {
      "inputs": [
        {
          "internalType": "uint256",
          "name": "_DataBatchId",
          "type": "uint256"
        }
      ],
      "name": "getDomainsForBatch",
      "outputs": [
        {
          "internalType": "string[]",
          "name": "",
          "type": "string[]"
        }
      ],
      "stateMutability": "view",
      "type": "function"
    },
    {
      "inputs": [
        {
          "internalType": "uint256",
          "name": "_voteOption",
          "type": "uint256"
        },
        {
          "internalType": "uint256",
          "name": "_salt",
          "type": "uint256"
        }
      ],
      "name": "getEncryptedHash",
      "outputs": [
        {
          "internalType": "bytes32",
          "name": "keccak256hash",
          "type": "bytes32"
        }
      ],
      "stateMutability": "pure",
      "type": "function"
    },
    {
      "inputs": [
        {
          "internalType": "uint256",
          "name": "a",
          "type": "uint256"
        },
        {
          "internalType": "uint256",
          "name": "b",
          "type": "uint256"
        }
      ],
      "name": "getHash",
      "outputs": [
        {
          "internalType": "bytes32",
          "name": "keccak256hash",
          "type": "bytes32"
        }
      ],
      "stateMutability": "pure",
      "type": "function"
    },
    {
      "inputs": [
        {
          "internalType": "uint256",
          "name": "_DataBatchId",
          "type": "uint256"
        }
      ],
      "name": "getIPFShashesForBatch",
      "outputs": [
        {
          "internalType": "string[]",
          "name": "",
          "type": "string[]"
        }
      ],
      "stateMutability": "view",
      "type": "function"
    },
    {
      "inputs": [
        {
          "internalType": "address",
          "name": "_voter",
          "type": "address"
        },
        {
          "internalType": "uint256",
          "name": "_numTokens",
          "type": "uint256"
        },
        {
          "internalType": "uint256",
          "name": "_DataBatchId",
          "type": "uint256"
        }
      ],
      "name": "getInsertPointForNumTokens",
      "outputs": [
        {
          "internalType": "uint256",
          "name": "prevNode",
          "type": "uint256"
        }
      ],
      "stateMutability": "view",
      "type": "function"
    },
    {
      "inputs": [],
      "name": "getLastBatchId",
      "outputs": [
        {
          "internalType": "uint256",
          "name": "LastBatchId",
          "type": "uint256"
        }
      ],
      "stateMutability": "view",
      "type": "function"
    },
    {
      "inputs": [],
      "name": "getLastCheckedBatchId",
      "outputs": [
        {
          "internalType": "uint256",
          "name": "LastCheckedBatchId",
          "type": "uint256"
        }
      ],
      "stateMutability": "view",
      "type": "function"
    },
    {
      "inputs": [],
      "name": "getLastDataId",
      "outputs": [
        {
          "internalType": "uint256",
          "name": "DataId",
          "type": "uint256"
        }
      ],
      "stateMutability": "view",
      "type": "function"
    },
    {
      "inputs": [
        {
          "internalType": "address",
          "name": "_voter",
          "type": "address"
        }
      ],
      "name": "getLastNode",
      "outputs": [
        {
          "internalType": "uint256",
          "name": "DataID",
          "type": "uint256"
        }
      ],
      "stateMutability": "view",
      "type": "function"
    },
    {
      "inputs": [
        {
          "internalType": "address",
          "name": "user",
          "type": "address"
        }
      ],
      "name": "getLastUserDataId",
      "outputs": [
        {
          "internalType": "uint256",
          "name": "DataId",
          "type": "uint256"
        }
      ],
      "stateMutability": "view",
      "type": "function"
    },
    {
      "inputs": [
        {
          "internalType": "address",
          "name": "_voter",
          "type": "address"
        }
      ],
      "name": "getLockedTokens",
      "outputs": [
        {
          "internalType": "uint256",
          "name": "numTokens",
          "type": "uint256"
        }
      ],
      "stateMutability": "view",
      "type": "function"
    },
    {
      "inputs": [
        {
          "internalType": "address",
          "name": "_voter",
          "type": "address"
        },
        {
          "internalType": "uint256",
          "name": "_DataBatchId",
          "type": "uint256"
        },
        {
          "internalType": "uint256",
          "name": "_salt",
          "type": "uint256"
        }
      ],
      "name": "getNumPassingTokens",
      "outputs": [
        {
          "internalType": "uint256",
          "name": "correctSpotChecks",
          "type": "uint256"
        }
      ],
      "stateMutability": "view",
      "type": "function"
    },
    {
      "inputs": [
        {
          "internalType": "address",
          "name": "_voter",
          "type": "address"
        },
        {
          "internalType": "uint256",
          "name": "_DataBatchId",
          "type": "uint256"
        }
      ],
      "name": "getNumTokens",
      "outputs": [
        {
          "internalType": "uint256",
          "name": "numTokens",
          "type": "uint256"
        }
      ],
      "stateMutability": "view",
      "type": "function"
    },
    {
      "inputs": [],
      "name": "getRandom",
      "outputs": [
        {
          "internalType": "uint256",
          "name": "",
          "type": "uint256"
        }
      ],
      "stateMutability": "view",
      "type": "function"
    },
    {
      "inputs": [],
      "name": "getSeed",
      "outputs": [
        {
          "internalType": "bytes32",
          "name": "addr",
          "type": "bytes32"
        }
      ],
      "stateMutability": "view",
      "type": "function"
    },
    {
      "inputs": [
        {
          "internalType": "uint256",
          "name": "_DataBatchId",
          "type": "uint256"
        }
      ],
      "name": "getTotalNumberOfSpotChecks",
      "outputs": [
        {
          "internalType": "uint256",
          "name": "vc",
          "type": "uint256"
        }
      ],
      "stateMutability": "view",
      "type": "function"
    },
    {
      "inputs": [
        {
          "internalType": "uint256",
          "name": "_DataBatchId",
          "type": "uint256"
        }
      ],
      "name": "getTotalNumberOfTokensForWinningOption",
      "outputs": [
        {
          "internalType": "uint256",
          "name": "numTokens",
          "type": "uint256"
        }
      ],
      "stateMutability": "view",
      "type": "function"
    },
    {
      "inputs": [],
      "name": "getTxCounter",
      "outputs": [
        {
          "internalType": "uint256",
          "name": "Counter",
          "type": "uint256"
        }
      ],
      "stateMutability": "view",
      "type": "function"
    },
    {
      "inputs": [
        {
          "internalType": "address",
          "name": "user",
          "type": "address"
        }
      ],
      "name": "getUserDatas",
      "outputs": [
        {
          "internalType": "uint256[]",
          "name": "user_Datas",
          "type": "uint256[]"
        }
      ],
      "stateMutability": "view",
      "type": "function"
    },
    {
      "inputs": [
        {
          "internalType": "uint256",
          "name": "_terminationDate",
          "type": "uint256"
        }
      ],
      "name": "isExpired",
      "outputs": [
        {
          "internalType": "bool",
          "name": "expired",
          "type": "bool"
        }
      ],
      "stateMutability": "view",
      "type": "function"
    },
    {
      "inputs": [
        {
          "internalType": "uint256",
          "name": "_DataBatchId",
          "type": "uint256"
        }
      ],
      "name": "isPassed",
      "outputs": [
        {
          "internalType": "bool",
          "name": "passed",
          "type": "bool"
        }
      ],
      "stateMutability": "view",
      "type": "function"
    },
    {
      "inputs": [
        {
          "internalType": "address",
          "name": "_worker",
          "type": "address"
        }
      ],
      "name": "isWorkerRegistered",
      "outputs": [
        {
          "internalType": "bool",
          "name": "passed",
          "type": "bool"
        }
      ],
      "stateMutability": "view",
      "type": "function"
    },
    {
      "inputs": [],
      "name": "owner",
      "outputs": [
        {
          "internalType": "address",
          "name": "",
          "type": "address"
        }
      ],
      "stateMutability": "view",
      "type": "function"
    },
    {
      "inputs": [
        {
          "internalType": "uint256",
          "name": "k",
          "type": "uint256"
        },
        {
          "internalType": "uint256",
          "name": "N",
          "type": "uint256"
        }
      ],
      "name": "random_selection",
      "outputs": [
        {
          "internalType": "uint256[]",
          "name": "",
          "type": "uint256[]"
        }
      ],
      "stateMutability": "view",
      "type": "function"
    },
    {
      "inputs": [],
      "name": "renounceOwnership",
      "outputs": [],
      "stateMutability": "nonpayable",
      "type": "function"
    },
    {
      "inputs": [
        {
          "internalType": "uint256",
          "name": "_numTokens",
          "type": "uint256"
        }
      ],
      "name": "requestVotingRights",
      "outputs": [],
      "stateMutability": "nonpayable",
      "type": "function"
    },
    {
      "inputs": [
        {
          "internalType": "uint256",
          "name": "_DataBatchId",
          "type": "uint256"
        }
      ],
      "name": "rescueTokens",
      "outputs": [],
      "stateMutability": "nonpayable",
      "type": "function"
    },
    {
      "inputs": [
        {
          "internalType": "uint256[]",
          "name": "_DataBatchIDs",
          "type": "uint256[]"
        }
      ],
      "name": "rescueTokensInMultipleDatas",
      "outputs": [],
      "stateMutability": "nonpayable",
      "type": "function"
    },
    {
      "inputs": [
        {
          "internalType": "uint256",
          "name": "_DataBatchId",
          "type": "uint256"
        }
      ],
      "name": "revealPeriodActive",
      "outputs": [
        {
          "internalType": "bool",
          "name": "active",
          "type": "bool"
        }
      ],
      "stateMutability": "view",
      "type": "function"
    },
    {
      "inputs": [
        {
          "internalType": "uint256",
          "name": "_DataBatchId",
          "type": "uint256"
        },
        {
          "internalType": "uint256",
          "name": "_voteOption",
          "type": "uint256"
        },
        {
          "internalType": "uint256",
          "name": "_salt",
          "type": "uint256"
        }
      ],
      "name": "revealSpotCheck",
      "outputs": [],
      "stateMutability": "nonpayable",
      "type": "function"
    },
    {
      "inputs": [],
      "name": "sFuel",
      "outputs": [
        {
          "internalType": "address",
          "name": "",
          "type": "address"
        }
      ],
      "stateMutability": "view",
      "type": "function"
    },
    {
      "inputs": [
        {
          "internalType": "uint256",
          "name": "N",
          "type": "uint256"
        }
      ],
      "name": "shuffle_array",
      "outputs": [
        {
          "internalType": "uint256[]",
          "name": "",
          "type": "uint256[]"
        }
      ],
      "stateMutability": "view",
      "type": "function"
    },
    {
      "inputs": [],
      "name": "token",
      "outputs": [
        {
          "internalType": "contract IERC20",
          "name": "",
          "type": "address"
        }
      ],
      "stateMutability": "view",
      "type": "function"
    },
    {
      "inputs": [
        {
          "internalType": "address",
          "name": "newOwner",
          "type": "address"
        }
      ],
      "name": "transferOwnership",
      "outputs": [],
      "stateMutability": "nonpayable",
      "type": "function"
    },
    {
      "inputs": [
        {
          "internalType": "address",
          "name": "addr",
          "type": "address"
        }
      ],
      "name": "updateAddressManager",
      "outputs": [],
      "stateMutability": "nonpayable",
      "type": "function"
    },
    {
      "inputs": [
        {
          "internalType": "uint256",
          "name": "COMMIT_ROUND_DURATION_",
          "type": "uint256"
        }
      ],
      "name": "updateCommitRoundDuration",
      "outputs": [],
      "stateMutability": "nonpayable",
      "type": "function"
    },
    {
      "inputs": [
        {
          "internalType": "uint256",
          "name": "CONSENSUS_WORKER_SIZE_",
          "type": "uint256"
        }
      ],
      "name": "updateConsensusSize",
      "outputs": [],
      "stateMutability": "nonpayable",
      "type": "function"
    },
    {
      "inputs": [
        {
          "internalType": "uint256",
          "name": "size",
          "type": "uint256"
        }
      ],
      "name": "updateDataBachSize",
      "outputs": [],
      "stateMutability": "nonpayable",
      "type": "function"
    },
    {
      "inputs": [
        {
          "internalType": "address",
          "name": "addr",
          "type": "address"
        }
      ],
      "name": "updateFormattingSystem",
      "outputs": [],
      "stateMutability": "nonpayable",
      "type": "function"
    },
    {
      "inputs": [
        {
          "internalType": "address",
          "name": "addr",
          "type": "address"
        }
      ],
      "name": "updateRepManager",
      "outputs": [],
      "stateMutability": "nonpayable",
      "type": "function"
    },
    {
      "inputs": [
        {
          "internalType": "uint256",
          "name": "REVEAL_ROUND_DURATION_",
          "type": "uint256"
        }
      ],
      "name": "updateRevealRoundDuration",
      "outputs": [],
      "stateMutability": "nonpayable",
      "type": "function"
    },
    {
      "inputs": [
        {
          "internalType": "address",
          "name": "addr",
          "type": "address"
        }
      ],
      "name": "updateRewardManager",
      "outputs": [],
      "stateMutability": "nonpayable",
      "type": "function"
    },
    {
      "inputs": [
        {
          "internalType": "address",
          "name": "addr",
          "type": "address"
        }
      ],
      "name": "updateStakeManager",
      "outputs": [],
      "stateMutability": "nonpayable",
      "type": "function"
    },
    {
      "inputs": [
        {
          "internalType": "address",
          "name": "",
          "type": "address"
        },
        {
          "internalType": "uint256",
          "name": "",
          "type": "uint256"
        }
      ],
      "name": "userSubmissions",
      "outputs": [
        {
          "internalType": "uint256",
          "name": "",
          "type": "uint256"
        }
      ],
      "stateMutability": "view",
      "type": "function"
    },
    {
      "inputs": [
        {
          "internalType": "uint256",
          "name": "_prevID",
          "type": "uint256"
        },
        {
          "internalType": "uint256",
          "name": "_nextID",
          "type": "uint256"
        },
        {
          "internalType": "address",
          "name": "_voter",
          "type": "address"
        },
        {
          "internalType": "uint256",
          "name": "_numTokens",
          "type": "uint256"
        }
      ],
      "name": "validPosition",
      "outputs": [
        {
          "internalType": "bool",
          "name": "APPROVED",
          "type": "bool"
        }
      ],
      "stateMutability": "view",
      "type": "function"
    },
    {
      "inputs": [
        {
          "internalType": "uint256",
          "name": "_numTokens",
          "type": "uint256"
        }
      ],
      "name": "withdrawVotingRights",
      "outputs": [],
      "stateMutability": "nonpayable",
      "type": "function"
    }
  ],
  "bytecode": "0x6080604052600360019081556005600255670de0b6b3a7640000600681905560075568015af1d78b58c40000600855603c600955600060108190556011819055601a80546001600160a01b0319167314f52f3fc010ab6ca81568d4a6794d5eab3c6155179055601b829055601c829055601d91909155601f553480156200008557600080fd5b50604051620080b5380380620080b5833981016040819052620000a89162000152565b620000bc620000b6620000fe565b62000102565b602080546001600160a01b0319166001600160a01b0392909216919091179055600060115568015af1d78b58c4000060035560b4600481905560055562000182565b3390565b600080546001600160a01b038381166001600160a01b0319831681178455604051919092169283917f8be0079c531659141344cd1fd0a4f28419497f9722a3daafe3b4186f6b6457e09190a35050565b60006020828403121562000164578081fd5b81516001600160a01b03811681146200017b578182fd5b9392505050565b617f2380620001926000396000f3fe608060405234801561001057600080fd5b506004361061063e5760003560e01c80638df0296e11610336578063d420ec0b116101c3578063e798a7da1161010f578063f3438946116100ad578063f721de4a11610087578063f721de4a14610ce9578063f80a23fd14610cfc578063fc0c546a14610d04578063fca4956314610d0c5761063e565b8063f343894614610cc6578063f5ae7c7d14610cd9578063f716596d14610ce15761063e565b8063ed8becfa116100e9578063ed8becfa14610c90578063ef4fcdad14610ca3578063f2d9e74d14610cab578063f2fde38b14610cb35761063e565b8063e798a7da14610c57578063e7b1d43c14610c6a578063e8e9b6f914610c7d5761063e565b8063d9845fb81161017c578063df05368e11610156578063df05368e14610c16578063e44c974b14610c29578063e604c12714610c3c578063e7805f9e14610c4f5761063e565b8063d9845fb814610bd0578063d9966ae814610bf0578063dd61868214610c035761063e565b8063d420ec0b14610b69578063d6b0206c14610b7c578063d822ce0114610b84578063d8b7567414610b97578063d901402b14610baa578063d9548e5314610bbd5761063e565b8063ab43e78d11610282578063b8f011b31161023b578063c7c063fb11610215578063c7c063fb14610b33578063c9b03a7214610b46578063cb1c2b5c14610b4e578063d138209214610b565761063e565b8063b8f011b314610afa578063c47c4bc214610b0d578063c4e4f82a14610b205761063e565b8063ab43e78d14610aa6578063b1a2e0be14610aae578063b1cf4a7e14610704578063b1d7ea9814610ac1578063b43bd06914610ad4578063b7e4eba914610ae75761063e565b8063a25236fe116102ef578063a7f830f4116102c9578063a7f830f414610a65578063a905779014610a78578063aa7ca46414610a8b578063aacc5a1714610a9e5761063e565b8063a25236fe14610a37578063a4439dc514610a4a578063a511dba014610a5d5761063e565b80638df0296e146109d057806397603560146109e35780639acb75c1146109f65780639b7e0180146109fe5780639fc9c52f14610a11578063a1103f3714610a245761063e565b80634fe8b4c1116104cf5780637827e5491161041b578063819b0293116103b95780638473850b116103935780638473850b146109905780638c89d027146109985780638d289f8f146109c05780638da5cb5b146109c85761063e565b8063819b029314610962578063821aa8c01461097557806383cc6ef2146109885761063e565b80637d050526116103f55780637d050526146109085780637f9510a21461091b5780637f97e836146109235780637fabe35b146109365761063e565b80637827e549146108f0578063796b89b9146108f85780637a34da67146109005761063e565b80635fd87909116104885780636b2d95d4116104625780636b2d95d4146108ba578063715018a6146108cd57806371880b1b146108d557806376e8ea4f146108e85761063e565b80635fd87909146108975780636371d81f1461089f578063667bf0f8146108b25761063e565b80634fe8b4c114610821578063515535e81461083457806351912f291461083c578063579db71c1461084457806358002158146108645780635a452943146108775761063e565b80632c0520311161058e578063354dae4011610547578063427fa1d211610521578063427fa1d2146107e0578063441c77c0146107f357806347fe2d2014610806578063494031831461080e5761063e565b8063354dae40146107c857806339e7357c146107d05780633ad2131f146107d85761063e565b80632c052031146107545780632d917c68146107675780632f469fd11461077a578063313066ee1461079a57806332ac1ba2146107a25780633538af82146107b55761063e565b80630e6661a7116105fb5780631b855044116105d55780631b85504414610704578063226ed30014610717578063275c25901461073757806329a47bc71461073f5761063e565b80630e6661a7146106d45780630e670feb146106dc57806319d90346146106e45761063e565b8063035fbb551461064357806304dbcda714610658578063050eb2eb14610676578063053e71a6146106895780630b16d9451461069c5780630b96c5b0146106af575b600080fd5b610656610651366004616ad4565b610d1f565b005b610660611003565b60405161066d9190616c8f565b60405180910390f35b6106566106843660046167ce565b611009565b6106606106973660046169d6565b61106a565b6106606106aa366004616843565b6110d0565b6106c26106bd3660046169d6565b611415565b60405161066d96959493929190616d7e565b6106606115f2565b6106606115f8565b6106f76106f23660046169d6565b6115fe565b60405161066d9190616d3a565b610660610712366004616a77565b611a46565b61072a6107253660046169d6565b611a7a565b60405161066d9190616d60565b610656611abc565b610747611bcb565b60405161066d9190616cc2565b610660610762366004616811565b611bda565b61072a6107753660046167e8565b611d77565b61078d6107883660046169ff565b611d97565b60405161066d9190616d6b565b610660611e3c565b6106606107b03660046169d6565b611e42565b6107476107c33660046169d6565b611e66565b610656611e90565b610660611fb8565b610660611fd5565b6106606107ee3660046167ce565b611fdb565b61072a6108013660046169d6565b61207b565b6106606120d5565b61072a61081c3660046169d6565b6120db565b61065661082f3660046169d6565b6123cc565b610660612486565b61074761248c565b6108576108523660046167ce565b61249b565b60405161066d9190616d4d565b6106566108723660046169d6565b612507565b61088a6108853660046169d6565b61254b565b60405161066d9190617b75565b6106606128c8565b6106566108ad3660046169d6565b6128ce565b6106566129a7565b6106606108c83660046167ce565b612d9d565b610656612dac565b6106606108e33660046169d6565b612df7565b610660612e34565b610660612e3a565b610660612e40565b610747612e44565b6106566109163660046167ce565b612e53565b610660612eb4565b61072a6109313660046167e8565b612ecb565b6109496109443660046169d6565b612f1e565b60405161066d9d9c9b9a99989796959493929190617c90565b61072a610970366004616a98565b613017565b6107476109833660046169d6565b613055565b610747613065565b610660613074565b6109ab6109a63660046167ce565b61307a565b60405161066d99989796959493929190616cd6565b610747613162565b610747613171565b6107476109de366004616a77565b613180565b6106566109f13660046169d6565b6131b8565b610660613367565b610660610a0c3660046167e8565b61336d565b610656610a1f366004616924565b61339e565b610660610a323660046167e8565b6133f0565b610656610a453660046169d6565b613405565b61072a610a583660046169d6565b613506565b610660613548565b610656610a73366004616a2a565b61354e565b61072a610a86366004616976565b6139ca565b61072a610a993660046167e8565b613a30565b610660613a83565b610747613b38565b61072a610abc3660046167ce565b613b47565b610857610acf366004616a77565b613c95565b610660610ae2366004616811565b613e9c565b610656610af53660046169d6565b613f88565b610857610b08366004616a77565b613fcc565b610656610b1b3660046167ce565b614134565b610660610b2e3660046169d6565b614195565b610660610b413660046167ce565b6141d2565b6106606141e4565b6106606141ea565b610660610b643660046167e8565b6141f0565b61072a610b773660046167e8565b614285565b6106606142a5565b610747610b923660046167e8565b6142ab565b610660610ba53660046169ff565b6142c7565b610660610bb83660046167e8565b6142e4565b61072a610bcb3660046169d6565b614329565b610be3610bde3660046169d6565b61432e565b60405161066d91906179a6565b610656610bfe3660046169d6565b614603565b610656610c113660046167ce565b614647565b610656610c243660046167ce565b6146a8565b610857610c373660046169d6565b614709565b61078d610c4a3660046169d6565b614782565b61066061482d565b61072a610c653660046167ce565b614833565b610656610c783660046169d6565b614854565b610656610c8b3660046169d6565b614990565b6106f7610c9e3660046169d6565b6149d4565b610660614e10565b610660614e16565b610656610cc13660046167ce565b614e1c565b610660610cd43660046167ce565b614e8a565b610660614f2b565b610656614f31565b61072a610cf73660046169d6565b61510b565b61072a615113565b61074761512c565b610660610d1a3660046167ce565b61513b565b610d27615261565b610d308361207b565b610d555760405162461bcd60e51b8152600401610d4c90617669565b60405180910390fd5b336000908152600a6020908152604080832086845290915290205460ff16610d8f5760405162461bcd60e51b8152600401610d4c906172cd565b610d9933846142e4565b610da38383611a46565b14610dc05760405162461bcd60e51b8152600401610d4c90616ffe565b6000610dcc33856141f0565b90508260011415610e03576000848152601e602052604081206007018054839290610df8908490617daf565b90915550610e2a9050565b6000848152601e602052604081206008018054839290610e24908490617daf565b90915550505b336000908152600e60205260409081902090516301039dfd60e11b815273__$85afbab79b2b776d70bef879a32ed56424$__916302073bfa91610e7291908890600401616cb4565b60006040518083038186803b158015610e8a57600080fd5b505af4158015610e9e573d6000803e3d6000fd5b5050336000818152600b602090815260408083208a84528252808320805460ff19166001908117909155600c8352818420948452938252808320899055601282528083208a8452601e90925290912060030154909350610eff9250906153e9565b6000868152601e602052604090206003908101919091558101805460ff19166001179055610f2b612e40565b6005820155610f39336153f5565b610f423361554c565b610f8957601780546001810182556000919091527fc624b66cc0138b8fabc209247f72d758e1cf3343756d543badbf24212bed8c150180546001600160a01b031916331790555b6001601f6000828254610f9c9190617daf565b90915550506000858152601e602052604090819020600781015460089091015491513392879289927f0867b5027231dcbf37614eaad07d667b9febaf9fdf483f488229b1f140bb074892610ff4928992909190617c7a565b60405180910390a45050505050565b60065481565b6110116155bc565b6001600160a01b0316611022613171565b6001600160a01b0316146110485760405162461bcd60e51b8152600401610d4c90617538565b602380546001600160a01b0319166001600160a01b0392909216919091179055565b600061107582611a7a565b6110915760405162461bcd60e51b8152600401610d4c9061731c565b61109a826120db565b156110b757506000818152601e60205260409020600701546110cb565b506000818152601e60205260409020600801545b919050565b60006110da615261565b60005b88518110156113eb57600089828151811061110857634e487b7160e01b600052603260045260246000fd5b60200260200101519050600088888481811061113457634e487b7160e01b600052603260045260246000fd5b90506020028101906111469190617d13565b8080601f0160208091040260200160405190810160405280939291908181526020018383808284376000920182905250338082526014602090815260408084206011548154600181018355918652838620909101558051610100810182528a815291820192909252429181019190915260608101869052608081018d905260a081018c905260c081018b905294955060e08501935091506111e49050565b9052601154600090815260136020908152604090912082518051919261120f9284929091019061637c565b506020828101516001830180546001600160a01b0319166001600160a01b039092169190911790556040830151600283015560608301518051611258926003850192019061637c565b5060808201518051611274916004840191602090910190616400565b5060a08201518051611290916005840191602090910190616459565b5060c082015180516112ac91600684019160209091019061637c565b5060e082015160078201805460ff191660018360038111156112de57634e487b7160e01b600052602160045260246000fd5b021790555050601b546000908152601e602052604090206001546002820154919250111561132957600181600201600082825461131b9190617daf565b909155505060115460018201555b60015481600201541061137b57600481018054600160ff19909116811761ff001916909155601b8054600090611360908490617daf565b9091555050601154601b546000908152601e60205260409020555b611383611e90565b601154611391906001617daf565b60118190556040513391907fb7b95e293993cd6c0c54a48cee487ef3dd8f51be568be962db90e7784af70dd1906113cd90879087908e90616ddd565b60405180910390a350505080806113e390617e7c565b9150506110dd565b506001601f60008282546113ff9190617daf565b909155505060115490505b979650505050505050565b60136020526000908152604090208054819061143090617e41565b80601f016020809104026020016040519081016040528092919081815260200182805461145c90617e41565b80156114a95780601f1061147e576101008083540402835291602001916114a9565b820191906000526020600020905b81548152906001019060200180831161148c57829003601f168201915b505050506001830154600284015460038501805494956001600160a01b0390931694919350906114d890617e41565b80601f016020809104026020016040519081016040528092919081815260200182805461150490617e41565b80156115515780601f1061152657610100808354040283529160200191611551565b820191906000526020600020905b81548152906001019060200180831161153457829003601f168201915b50505050509080600601805461156690617e41565b80601f016020809104026020016040519081016040528092919081815260200182805461159290617e41565b80156115df5780601f106115b4576101008083540402835291602001916115df565b820191906000526020600020905b8154815290600101906020018083116115c257829003601f168201915b5050506007909301549192505060ff1686565b60115481565b60075481565b60606116098261510b565b6116255760405162461bcd60e51b8152600401610d4c906176f6565b6000828152601e6020908152604080832081516101e0810183528154815260018201549381019390935260028101549183019190915260038101546060830152600481015460ff808216151560808501526101008083048216151560a08601526201000090920416151560c0840152600582015460e084015260068201549083015260078101546101208301526008810154610140830152600981018054610160840191906116d390617e41565b80601f01602080910402602001604051908101604052809291908181526020018280546116ff90617e41565b801561174c5780601f106117215761010080835404028352916020019161174c565b820191906000526020600020905b81548152906001019060200180831161172f57829003601f168201915b5050509183525050600a82015460209091019060ff16600381111561178157634e487b7160e01b600052602160045260246000fd5b60038111156117a057634e487b7160e01b600052602160045260246000fd5b8152602001600b8201805480602002602001604051908101604052809291908181526020016000905b828210156118755783829060005260206000200180546117e890617e41565b80601f016020809104026020016040519081016040528092919081815260200182805461181490617e41565b80156118615780601f1061183657610100808354040283529160200191611861565b820191906000526020600020905b81548152906001019060200180831161184457829003601f168201915b5050505050815260200190600101906117c9565b505050508152602001600c82018054806020026020016040519081016040528092919081815260200182805480156118cc57602002820191906000526020600020905b8154815260200190600101908083116118b8575b505050505081525050905060008160400151905060006001546001600160401b0381111561190a57634e487b7160e01b600052604160045260246000fd5b60405190808252806020026020018201604052801561193d57816020015b60608152602001906001900390816119285790505b50905060005b82811015611a3d57835160009061195b908390617daf565b60008181526013602052604081206003018054929350909161197c90617e41565b80601f01602080910402602001604051908101604052809291908181526020018280546119a890617e41565b80156119f55780601f106119ca576101008083540402835291602001916119f5565b820191906000526020600020905b8154815290600101906020018083116119d857829003601f168201915b5050505050905080848481518110611a1d57634e487b7160e01b600052603260045260246000fd5b602002602001018190525050508080611a3590617e7c565b915050611943565b50949350505050565b60008282604051602001611a5b929190616cb4565b6040516020818303038152906040528051906020012090505b92915050565b6000611a858261510b565b611aa15760405162461bcd60e51b8152600401610d4c9061797d565b6000828152601e6020526040902060060154611a7490614329565b611ac4615261565b336000908152601260205260409020600781015460ff161515600114611afc5760405162461bcd60e51b8152600401610d4c90617225565b611b05336155c0565b15611b225760405162461bcd60e51b8152600401610d4c9061715a565b6000611b2c612e40565b9050611b3733615630565b611b40336153f5565b8154336001600160a01b031991821681178455600180850180549093169091179091556005830182905560078301805460ff19169055601f8054600090611b88908490617daf565b909155505060405133907f9dadcedba048e92b943ea1c5861cee1df63a566d7f795869c004780c1c698e2b90611bbf908490616c8f565b60405180910390a25050565b6022546001600160a01b031681565b600080611be685611fdb565b90506000611bf486836141f0565b90505b8115611d6c57611c0786836141f0565b9050848111611cc45783821415611cbc576001600160a01b0386166000908152600e60205260409081902090516301c39b2b60e11b815273__$85afbab79b2b776d70bef879a32ed56424$__91630387365691611c6991908690600401616cb4565b60206040518083038186803b158015611c8157600080fd5b505af4158015611c95573d6000803e3d6000fd5b505050506040513d601f19601f82011682018060405250810190611cb991906169ee565b91505b509050611d70565b6001600160a01b0386166000908152600e60205260409081902090516301c39b2b60e11b815273__$85afbab79b2b776d70bef879a32ed56424$__91630387365691611d1591908690600401616cb4565b60206040518083038186803b158015611d2d57600080fd5b505af4158015611d41573d6000803e3d6000fd5b505050506040513d601f19601f82011682018060405250810190611d6591906169ee565b9150611bf7565b5090505b9392505050565b600a60209081526000928352604080842090915290825290205460ff1681565b600d60209081526000928352604080842090915290825290208054611dbb90617e41565b80601f0160208091040260200160405190810160405280929190818152602001828054611de790617e41565b8015611e345780601f10611e0957610100808354040283529160200191611e34565b820191906000526020600020905b815481529060010190602001808311611e1757829003601f168201915b505050505081565b60105481565b6000818152601e6020526040812060088101546007909101548291611d7091617daf565b60178181548110611e7657600080fd5b6000918252602090912001546001600160a01b0316905081565b611e98615261565b601c546000908152601e602052604081206004015462010000900460ff1615156001148015611eea5750611ecd601c54611a7a565b80611eea5750601c546000908152601e6020526040902060030154155b15611f0f57611efa601c54615760565b601c54611f08906001616110565b601c555060015b601d546000908152601e602052604090206004015462010000900460ff161515600114801590611f40575060175415155b8015611f605750601d546000908152601e602052604090206004015460ff165b15611f7157611f6d6129a7565b5060015b8015611f8957601054611f85906001616110565b6010555b6010546040517f94d48a7342690f1233e3f4db70efa37c4f1f25f4d0397c353f3f15aecdeca5f490600090a250565b60405160009080602081848060185afa611fce57fe5b5051919050565b60095481565b6001600160a01b0381166000908152600e602052604080822090516301c39b2b60e11b815273__$85afbab79b2b776d70bef879a32ed56424$__9163038736569161202b91908590600401616cb4565b60206040518083038186803b15801561204357600080fd5b505af4158015612057573d6000803e3d6000fd5b505050506040513d601f19601f82011682018060405250810190611a7491906169ee565b60006120868261510b565b6120a25760405162461bcd60e51b8152600401610d4c906176f6565b6000828152601e60205260409020600601546120bd90614329565b158015611a7457506120ce82613506565b1592915050565b601c5490565b6000818152601e6020908152604080832081516101e0810183528154815260018201549381019390935260028101549183019190915260038101546060830152600481015460ff808216151560808501526101008083048216151560a08601526201000090920416151560c0840152600582015460e0840152600682015490830152600781015461012083015260088101546101408301526009810180548493929161016084019161218c90617e41565b80601f01602080910402602001604051908101604052809291908181526020018280546121b890617e41565b80156122055780601f106121da57610100808354040283529160200191612205565b820191906000526020600020905b8154815290600101906020018083116121e857829003601f168201915b5050509183525050600a82015460209091019060ff16600381111561223a57634e487b7160e01b600052602160045260246000fd5b600381111561225957634e487b7160e01b600052602160045260246000fd5b8152602001600b8201805480602002602001604051908101604052809291908181526020016000905b8282101561232e5783829060005260206000200180546122a190617e41565b80601f01602080910402602001604051908101604052809291908181526020018280546122cd90617e41565b801561231a5780601f106122ef5761010080835404028352916020019161231a565b820191906000526020600020905b8154815290600101906020018083116122fd57829003601f168201915b505050505081526020019060010190612282565b505050508152602001600c820180548060200260200160405190810160405280929190818152602001828054801561238557602002820191906000526020600020905b815481526020019060010190808311612371575b50505050508152505090508061014001518161012001516123a69190617daf565b6009546123b39190617ddb565b6101208201516123c4906064617ddb565b119392505050565b6123d46155bc565b6001600160a01b03166123e5613171565b6001600160a01b03161461240b5760405162461bcd60e51b8152600401610d4c90617538565b6000818152601360205260408120906124248282616493565b6001820180546001600160a01b031916905560006002830181905561244d906003840190616493565b61245b6004830160006164cf565b6124696005830160006164ed565b612477600683016000616493565b50600701805460ff1916905550565b601b5490565b6023546001600160a01b031681565b6001600160a01b0381166000908152601460209081526040918290208054835181840281018401909452808452606093928301828280156124fb57602002820191906000526020600020905b8154815260200190600101908083116124e7575b50505050509050919050565b61250f6155bc565b6001600160a01b0316612520613171565b6001600160a01b0316146125465760405162461bcd60e51b8152600401610d4c90617538565b600555565b61255361650b565b600082815260136020526040908190208151610100810190925280548290829061257c90617e41565b80601f01602080910402602001604051908101604052809291908181526020018280546125a890617e41565b80156125f55780601f106125ca576101008083540402835291602001916125f5565b820191906000526020600020905b8154815290600101906020018083116125d857829003601f168201915b505050918352505060018201546001600160a01b031660208201526002820154604082015260038201805460609092019161262f90617e41565b80601f016020809104026020016040519081016040528092919081815260200182805461265b90617e41565b80156126a85780601f1061267d576101008083540402835291602001916126a8565b820191906000526020600020905b81548152906001019060200180831161268b57829003601f168201915b5050505050815260200160048201805480602002602001604051908101604052809291908181526020016000905b828210156127825783829060005260206000200180546126f590617e41565b80601f016020809104026020016040519081016040528092919081815260200182805461272190617e41565b801561276e5780601f106127435761010080835404028352916020019161276e565b820191906000526020600020905b81548152906001019060200180831161275157829003601f168201915b5050505050815260200190600101906126d6565b505050508152602001600582018054806020026020016040519081016040528092919081815260200182805480156127d957602002820191906000526020600020905b8154815260200190600101908083116127c5575b505050505081526020016006820180546127f290617e41565b80601f016020809104026020016040519081016040528092919081815260200182805461281e90617e41565b801561286b5780601f106128405761010080835404028352916020019161286b565b820191906000526020600020905b81548152906001019060200180831161284e57829003601f168201915b5050509183525050600782015460209091019060ff1660038111156128a057634e487b7160e01b600052602160045260246000fd5b60038111156128bf57634e487b7160e01b600052602160045260246000fd5b90525092915050565b60055481565b6128d66155bc565b6001600160a01b03166128e7613171565b6001600160a01b03161461290d5760405162461bcd60e51b8152600401610d4c90617538565b6129168161510b565b156129a4576000818152601e6020526040812081815560018101829055600281018290556003810182905560048101805462ffffff1916905560058101829055600681018290556007810182905560088101829055906129796009830182616493565b600a8201805460ff19169055612993600b830160006164cf565b6129a1600c830160006164ed565b50505b50565b601d546000908152601e602052604090206004015460ff166129db5760405162461bcd60e51b8152600401610d4c90617613565b601d546000908152601e602052604090206004015462010000900460ff1615612a165760405162461bcd60e51b8152600401610d4c9061746d565b6000612a33612a2c60178054905060025461611c565b6001616132565b601754601d546000908152601e602052604081206003018390556004549293509091612a60904290616110565b90506000612a796005548361611090919063ffffffff16565b601d80546000908152601e6020526040808220600501869055825482528082206006018490559154815220600401805462ff0000191662010000179055905060018410801590612aca575060018310155b612ae65760405162461bcd60e51b8152600401610d4c90617110565b6000612af28585613fcc565b9050600081516001600160401b03811115612b1d57634e487b7160e01b600052604160045260246000fd5b604051908082528060200260200182016040528015612b46578160200160208202803683370190505b50905060005b8251811015612c05576017838281518110612b7757634e487b7160e01b600052603260045260246000fd5b602002602001015181548110612b9d57634e487b7160e01b600052603260045260246000fd5b9060005260206000200160009054906101000a90046001600160a01b0316828281518110612bdb57634e487b7160e01b600052603260045260246000fd5b6001600160a01b039092166020928302919091019091015280612bfd81617e7c565b915050612b4c565b5060005b8251811015612d68576000828281518110612c3457634e487b7160e01b600052603260045260246000fd5b60200260200101519050600060126000836001600160a01b03166001600160a01b031681526020019081526020016000209050612c7082615630565b612c79826155c0565b612cc957601880546001810182556000919091527fb13d2d76d1f4b7be834882e410b3e3a8afaf69f83600ae24db354391d2378d2e0180546001600160a01b0319166001600160a01b0384161790555b601d805460009081526019602090815260408083208054600181018255908452919092200180546001600160a01b0319166001600160a01b0386161790558154600284015560038301805460ff19169055905490517fe4ee2dfabe57cee15e3f558890b20455f54c1fa0718e5276faad70a6500e6b8c90612d4b908590616cc2565b60405180910390a250508080612d6090617e7c565b915050612c09565b50601d54612d77906001616110565b601d819055506001601f6000828254612d909190617daf565b9091555050505050505050565b6000611a7482610b6484611fdb565b612db46155bc565b6001600160a01b0316612dc5613171565b6001600160a01b031614612deb5760405162461bcd60e51b8152600401610d4c90617538565b612df56000616142565b565b6000612e028261510b565b612e1e5760405162461bcd60e51b8152600401610d4c906176f6565b506000908152601e602052604090206006015490565b60015481565b60085481565b4290565b6024546001600160a01b031681565b612e5b6155bc565b6001600160a01b0316612e6c613171565b6001600160a01b031614612e925760405162461bcd60e51b8152600401610d4c90617538565b602580546001600160a01b0319166001600160a01b0392909216919091179055565b601854601754600091612ec691617daf565b905090565b6000612ed68261510b565b612ef25760405162461bcd60e51b8152600401610d4c906176f6565b506001600160a01b03919091166000908152600a60209081526040808320938352929052205460ff1690565b601e60205260009081526040902080546001820154600283015460038401546004850154600586015460068701546007880154600889015460098a018054999a98999798969760ff80881698610100890482169862010000900490911696959493929091612f8b90617e41565b80601f0160208091040260200160405190810160405280929190818152602001828054612fb790617e41565b80156130045780601f10612fd957610100808354040283529160200191613004565b820191906000526020600020905b815481529060010190602001808311612fe757829003601f168201915b505050600a909301549192505060ff168d565b60008061302484876141f0565b8310159050600061303585876141f0565b84111580613041575085155b905081801561140a57509695505050505050565b60188181548110611e7657600080fd5b6021546001600160a01b031681565b601b5481565b60126020526000908152604090208054600182015460028301546003840154600485015460058601546006870180546001600160a01b03978816989690971696949560ff90941694929391926130cf90617e41565b80601f01602080910402602001604051908101604052809291908181526020018280546130fb90617e41565b80156131485780601f1061311d57610100808354040283529160200191613148565b820191906000526020600020905b81548152906001019060200180831161312b57829003601f168201915b505050506007830154600890930154919260ff1691905089565b6025546001600160a01b031681565b6000546001600160a01b031690565b6019602052816000526040600020818154811061319c57600080fd5b6000918252602090912001546001600160a01b03169150829050565b60016000828152601e60205260409020600a015460ff1660038111156131ee57634e487b7160e01b600052602160045260246000fd5b1461320b5760405162461bcd60e51b8152600401610d4c90616f01565b336000908152600e60205260409081902090516306120d1f60e31b815273__$85afbab79b2b776d70bef879a32ed56424$__9163309068f89161325391908590600401616cb4565b60206040518083038186803b15801561326b57600080fd5b505af415801561327f573d6000803e3d6000fd5b505050506040513d601f19601f820116820180604052508101906132a39190616956565b6132bf5760405162461bcd60e51b8152600401610d4c90617397565b336000908152600e60205260409081902090516301039dfd60e11b815273__$85afbab79b2b776d70bef879a32ed56424$__916302073bfa9161330791908590600401616cb4565b60006040518083038186803b15801561331f57600080fd5b505af4158015613333573d6000803e3d6000fd5b50506040513392508391507f402507661c8c8cb90e0a796450b8bdd28b6c516f05279c0cd29e84c344e1699a90600090a350565b60105490565b6014602052816000526040600020818154811061338957600080fd5b90600052602060002001600091509150505481565b60005b81518110156133ec576133da8282815181106133cd57634e487b7160e01b600052603260045260246000fd5b60200260200101516131b8565b806133e481617e7c565b9150506133a1565b5050565b60008282604051602001611a5b929190616c6d565b6021546040516304ada21f60e21b81526001600160a01b03909116906312b6887c906134379084903390600401617c45565b602060405180830381600087803b15801561345157600080fd5b505af1158015613465573d6000803e3d6000fd5b505050506040513d601f19601f820116820180604052508101906134899190616956565b6134a55760405162461bcd60e51b8152600401610d4c90617270565b33600090815260156020526040812080548392906134c4908490617daf565b909155505060405133907ff7aaf024511d9982df8cd0d437c71c30106e6848cd1ba3d288d7a9c0e276aeda906134fb908490616c8f565b60405180910390a250565b60006135118261510b565b61352d5760405162461bcd60e51b8152600401610d4c906176f6565b6000828152601e60205260409020600501546120ce90614329565b60115490565b613556615261565b61355f83613506565b61357b5760405162461bcd60e51b8152600401610d4c9061719f565b826135853361513b565b146135a25760405162461bcd60e51b8152600401610d4c906174ca565b600354336000908152601560205260409020548111156135e457336000908152601560205260408120546135d79083906153e9565b90506135e281613405565b505b336000908152601560205260409020548111156136135760405162461bcd60e51b8152600401610d4c9061782c565b6000336000908152600e60205260408082209051631e0f232560e31b815273__$85afbab79b2b776d70bef879a32ed56424$__9163f07919289161365c91908690600401616cb4565b60206040518083038186803b15801561367457600080fd5b505af4158015613688573d6000803e3d6000fd5b505050506040513d601f19601f820116820180604052508101906136ac91906169ee565b90508581141561375157336000908152600e6020526040908190209051631e0f232560e31b815273__$85afbab79b2b776d70bef879a32ed56424$__9163f0791928916136fe91908a90600401616cb4565b60206040518083038186803b15801561371657600080fd5b505af415801561372a573d6000803e3d6000fd5b505050506040513d601f19601f8201168201806040525081019061374e91906169ee565b90505b61375d82823386613017565b6137795760405162461bcd60e51b8152600401610d4c9061743f565b336000908152600e602052604090819020905163524cfe5360e11b815273__$85afbab79b2b776d70bef879a32ed56424$__9163a499fca6916137c5919086908b908790600401617b5a565b60006040518083038186803b1580156137dd57600080fd5b505af41580156137f1573d6000803e3d6000fd5b50505050600061380133886133f0565b60408051808201825260098152686e756d546f6b656e7360b81b6020820152905163099b040f60e31b81529192509073__$0947e710b66d7779e1d561254425e1375a$__90634cd820789061386190600f90869086908b90600401617aaf565b60006040518083038186803b15801561387957600080fd5b505af415801561388d573d6000803e3d6000fd5b505060405163099b040f60e31b815273__$0947e710b66d7779e1d561254425e1375a$__9250634cd8207891506138cd90600f9086908c90600401617afd565b60006040518083038186803b1580156138e557600080fd5b505af41580156138f9573d6000803e3d6000fd5b5050506000898152600d60209081526040808320338452825290912088516139269350909189019061637c565b5033600090815260126020526040902061393e612e40565b6005820155336000908152600a602090815260408083208c84529091528120805460ff19166001908117909155601f80549192909161397e908490617daf565b909155505060405133908a907f42864d9683ff5b12c3b2cc65d705af5aab104b03bc700b802f79e5c971ef08a1906139b7908a90616c8f565b60405180910390a3505050505050505050565b6000816040516020016139dd9190616c98565b6040516020818303038152906040528051906020012083604051602001613a049190616c98565b604051602081830303815290604052805190602001201415613a2857506001611a74565b506000611a74565b6000613a3b8261510b565b613a575760405162461bcd60e51b8152600401610d4c906176f6565b506001600160a01b03919091166000908152600b60209081526040808320938352929052205460ff1690565b6000804241604051602001613a989190616c50565b6040516020818303038152906040528051906020012060001c613abb9190617dc7565b44613ac4611fb8565b604051602001613ad49190616c8f565b60408051601f198184030181529190528051602090910120613af69042617daf565b613b009190617daf565b613b0a9190617daf565b604051602001613b1a9190616c8f565b60408051601f19818403018152919052805160209091012091505090565b601a546001600160a01b031681565b6001600160a01b038082166000908152601260209081526040808320815161012081018352815486168152600182015490951692850192909252600282015490840152600381015460ff161515606084015260048101546080840152600581015460a0840152600681018054929384938493919260c0840191613bc990617e41565b80601f0160208091040260200160405190810160405280929190818152602001828054613bf590617e41565b8015613c425780601f10613c1757610100808354040283529160200191613c42565b820191906000526020600020905b815481529060010190602001808311613c2557829003601f168201915b5050509183525050600782015460ff16151560208201526008909101546040909101526060810151909150158015613c845750613c828160400151611a7a565b155b15613c8e57600191505b5092915050565b606060008211613ca457600080fd5b600041604051602001613cb79190616c50565b6040516020818303038152906040528051906020012060001c613cd8611fb8565b604051602001613ce89190616c8f565b60408051601f198184030181529190528051602090910120613d0a9042617daf565b613d149190617daf565b604051602001613d249190616c8f565b6040516020818303038152906040528051906020012060001c90506000846001600160401b03811115613d6757634e487b7160e01b600052604160045260246000fd5b604051908082528060200260200182016040528015613d90578160200160208202803683370190505b5090506000805b86821015613e9157600086613db063017efeeb87617dfa565b83604051602001613dc2929190616cb4565b6040516020818303038152906040528051906020012060001c613de59190617e97565b90506000805b84811015613e3d5782868281518110613e1457634e487b7160e01b600052603260045260246000fd5b60200260200101511415613e2b5760019150613e3d565b80613e3581617e7c565b915050613deb565b5080613e7d5781858581518110613e6457634e487b7160e01b600052603260045260246000fd5b6020908102919091010152613e7a846001617daf565b93505b613e88836001617daf565b92505050613d97565b509095945050505050565b6000613ea783611a7a565b613ec35760405162461bcd60e51b8152600401610d4c906178d6565b6001600160a01b0384166000908152600b6020908152604080832086845290915290205460ff16613f065760405162461bcd60e51b8152600401610d4c906173f4565b6000613f11846120db565b613f1c576000613f1f565b60015b60ff16905060008184604051602001613f39929190616cb4565b6040516020818303038152906040528051906020012090506000613f5d87876142e4565b9050808214613f7e5760405162461bcd60e51b8152600401610d4c906175ca565b61140a87876141f0565b613f906155bc565b6001600160a01b0316613fa1613171565b6001600160a01b031614613fc75760405162461bcd60e51b8152600401610d4c90617538565b600155565b6060600082118015613fde5750818311155b8015613feb575060018310155b6140075760405162461bcd60e51b8152600401610d4c906170c7565b6000826001600160401b0381111561402f57634e487b7160e01b600052604160045260246000fd5b604051908082528060200260200182016040528015614058578160200160208202803683370190505b5090506000846001600160401b0381111561408357634e487b7160e01b600052604160045260246000fd5b6040519080825280602002602001820160405280156140ac578160200160208202803683370190505b50905060006140c26140bd84616192565b6161e8565b905060005b86811015613e91578181815181106140ef57634e487b7160e01b600052603260045260246000fd5b602002602001015183828151811061411757634e487b7160e01b600052603260045260246000fd5b60209081029190910101528061412c81617e7c565b9150506140c7565b61413c6155bc565b6001600160a01b031661414d613171565b6001600160a01b0316146141735760405162461bcd60e51b8152600401610d4c90617538565b602480546001600160a01b0319166001600160a01b0392909216919091179055565b60006141a08261510b565b6141bc5760405162461bcd60e51b8152600401610d4c906176f6565b506000908152601e602052604090206005015490565b60156020526000908152604090205481565b60025481565b60035481565b600073__$0947e710b66d7779e1d561254425e1375a$__6369810158600f61421886866133f0565b6040518363ffffffff1660e01b8152600401614235929190617b2b565b60206040518083038186803b15801561424d57600080fd5b505af4158015614261573d6000803e3d6000fd5b505050506040513d601f19601f82011682018060405250810190611d7091906169ee565b600b60209081526000928352604080842090915290825290205460ff1681565b601d5481565b6016602052816000526040600020818154811061319c57600080fd5b600c60209081526000928352604080842090915290825290205481565b600073__$0947e710b66d7779e1d561254425e1375a$__6369810158600f61430c86866133f0565b6040518363ffffffff1660e01b8152600401614235929190617adf565b421190565b614336616577565b61433f8261510b565b61434857600080fd5b6000828152601e602090815260409182902082516101e0810184528154815260018201549281019290925260028101549282019290925260038201546060820152600482015460ff808216151560808401526101008083048216151560a08501526201000090920416151560c0830152600583015460e083015260068301549082015260078201546101208201526008820154610140820152600982018054919291610160840191906143fa90617e41565b80601f016020809104026020016040519081016040528092919081815260200182805461442690617e41565b80156144735780601f1061444857610100808354040283529160200191614473565b820191906000526020600020905b81548152906001019060200180831161445657829003601f168201915b5050509183525050600a82015460209091019060ff1660038111156144a857634e487b7160e01b600052602160045260246000fd5b60038111156144c757634e487b7160e01b600052602160045260246000fd5b8152602001600b8201805480602002602001604051908101604052809291908181526020016000905b8282101561459c57838290600052602060002001805461450f90617e41565b80601f016020809104026020016040519081016040528092919081815260200182805461453b90617e41565b80156145885780601f1061455d57610100808354040283529160200191614588565b820191906000526020600020905b81548152906001019060200180831161456b57829003601f168201915b5050505050815260200190600101906144f0565b505050508152602001600c82018054806020026020016040519081016040528092919081815260200182805480156145f357602002820191906000526020600020905b8154815260200190600101908083116145df575b5050505050815250509050919050565b61460b6155bc565b6001600160a01b031661461c613171565b6001600160a01b0316146146425760405162461bcd60e51b8152600401610d4c90617538565b600255565b61464f6155bc565b6001600160a01b0316614660613171565b6001600160a01b0316146146865760405162461bcd60e51b8152600401610d4c90617538565b602280546001600160a01b0319166001600160a01b0392909216919091179055565b6146b06155bc565b6001600160a01b03166146c1613171565b6001600160a01b0316146146e75760405162461bcd60e51b8152600401610d4c90617538565b602180546001600160a01b0319166001600160a01b0392909216919091179055565b60606000821161471857600080fd5b6000826001600160401b0381111561474057634e487b7160e01b600052604160045260246000fd5b604051908082528060200260200182016040528015614769578160200160208202803683370190505b509050600061477a6140bd83616192565b949350505050565b606061478d8261510b565b61479657600080fd5b6000828152601e6020526040902060090180546147b290617e41565b80601f01602080910402602001604051908101604052809291908181526020018280546147de90617e41565b80156124fb5780601f10614800576101008083540402835291602001916124fb565b820191906000526020600020905b81548152906001019060200180831161480e5750939695505050505050565b60045481565b6001600160a01b031660009081526012602052604090206007015460ff1690565b600061487861486233612d9d565b33600090815260156020526040902054906153e9565b90508181101561489a5760405162461bcd60e51b8152600401610d4c906176af565b602154604051630895993360e11b81526001600160a01b039091169063112b3266906148cc9085903390600401617c45565b602060405180830381600087803b1580156148e657600080fd5b505af11580156148fa573d6000803e3d6000fd5b505050506040513d601f19601f8201168201806040525081019061491e9190616956565b61493a5760405162461bcd60e51b8152600401610d4c90617920565b3360009081526015602052604081208054849290614959908490617dfa565b909155505060405133907ffaeb7dbb9992397d26ea1944efd40c80b40f702faf69b46c67ad10aba68ccb7990611bbf908590616c8f565b6149986155bc565b6001600160a01b03166149a9613171565b6001600160a01b0316146149cf5760405162461bcd60e51b8152600401610d4c90617538565b600455565b60606149df8261510b565b6149fb5760405162461bcd60e51b8152600401610d4c906176f6565b6000828152601e6020908152604080832081516101e0810183528154815260018201549381019390935260028101549183019190915260038101546060830152600481015460ff808216151560808501526101008083048216151560a08601526201000090920416151560c0840152600582015460e08401526006820154908301526007810154610120830152600881015461014083015260098101805461016084019190614aa990617e41565b80601f0160208091040260200160405190810160405280929190818152602001828054614ad590617e41565b8015614b225780601f10614af757610100808354040283529160200191614b22565b820191906000526020600020905b815481529060010190602001808311614b0557829003601f168201915b5050509183525050600a82015460209091019060ff166003811115614b5757634e487b7160e01b600052602160045260246000fd5b6003811115614b7657634e487b7160e01b600052602160045260246000fd5b8152602001600b8201805480602002602001604051908101604052809291908181526020016000905b82821015614c4b578382906000526020600020018054614bbe90617e41565b80601f0160208091040260200160405190810160405280929190818152602001828054614bea90617e41565b8015614c375780601f10614c0c57610100808354040283529160200191614c37565b820191906000526020600020905b815481529060010190602001808311614c1a57829003601f168201915b505050505081526020019060010190614b9f565b505050508152602001600c8201805480602002602001604051908101604052809291908181526020018280548015614ca257602002820191906000526020600020905b815481526020019060010190808311614c8e575b505050505081525050905060008160400151905060006001546001600160401b03811115614ce057634e487b7160e01b600052604160045260246000fd5b604051908082528060200260200182016040528015614d1357816020015b6060815260200190600190039081614cfe5790505b50905060005b82811015611a3d578351600090614d31908390617daf565b600081815260136020526040812080549293509091614d4f90617e41565b80601f0160208091040260200160405190810160405280929190818152602001828054614d7b90617e41565b8015614dc85780601f10614d9d57610100808354040283529160200191614dc8565b820191906000526020600020905b815481529060010190602001808311614dab57829003601f168201915b5050505050905080848481518110614df057634e487b7160e01b600052603260045260246000fd5b602002602001018190525050508080614e0890617e7c565b915050614d19565b601c5481565b601f5481565b614e246155bc565b6001600160a01b0316614e35613171565b6001600160a01b031614614e5b5760405162461bcd60e51b8152600401610d4c90617538565b6001600160a01b038116614e815760405162461bcd60e51b8152600401610d4c90617081565b6129a481616142565b6001600160a01b038116600090815260146020908152604080832080548251818502810185019093528083528493830182828015614ee757602002820191906000526020600020905b815481526020019060010190808311614ed3575b505050505090508060018251614efd9190617dfa565b81518110614f1b57634e487b7160e01b600052603260045260246000fd5b6020026020010151915050919050565b601f5490565b614f39615261565b3360009081526012602052604090206018546017546103e891614f5b91617daf565b10614f785760405162461bcd60e51b8152600401610d4c906177ea565b600781015460ff1615614f9d5760405162461bcd60e51b8152600401610d4c90616eca565b6000614fa7612e40565b6003543360009081526015602052604090205491925090811115614fed5733600090815260156020526040812054614fe09083906153e9565b9050614feb81613405565b505b3360009081526015602052604090205481111561501c5760405162461bcd60e51b8152600401610d4c90616f52565b6150253361554c565b61506c57601780546001810182556000919091527fc624b66cc0138b8fabc209247f72d758e1cf3343756d543badbf24212bed8c150180546001600160a01b031916331790555b8254336001600160a01b03199182168117855560018501805490921617905560058301829055600783015460ff166150b45760078301805460ff191660011790554260088401555b6001601f60008282546150c79190617daf565b909155505060405133907f439d77b7534ec3108fc6143bd4fbabde0b9f2bb54f7b0730d1f70dd2135b765f906150fe908590616c8f565b60405180910390a2505050565b601b54101590565b3360009081526012602052604090206007015460ff1690565b6020546001600160a01b031681565b6001600160a01b038082166000908152601260209081526040808320815161012081018352815486168152600182015490951692850192909252600282015490840152600381015460ff161515606084015260048101546080840152600581015460a08401526006810180549293849390929160c08401916151bc90617e41565b80601f01602080910402602001604051908101604052809291908181526020018280546151e890617e41565b80156152355780601f1061520a57610100808354040283529160200191615235565b820191906000526020600020905b81548152906001019060200180831161521857829003601f168201915b5050509183525050600782015460ff161515602082015260089091015460409182015201519392505050565b601a546001600160a01b03166152895760405162461bcd60e51b8152600401610d4c9061772d565b601a546040516000916001600160a01b0316906152aa903390602401616cc2565b60408051601f198184030181529181526020820180516001600160e01b0316631f5ac9c560e11b179052516152df9190616c98565b6000604051808303816000865af19150503d806000811461531c576040519150601f19603f3d011682016040523d82523d6000602084013e615321565b606091505b5050601a546040519192506000916001600160a01b0390911690615349903390602401616cc2565b60408051601f198184030181529181526020820180516001600160e01b03166358563d2160e01b1790525161537e9190616c98565b6000604051808303816000865af19150503d80600081146153bb576040519150601f19603f3d011682016040523d82523d6000602084013e6153c0565b606091505b5050905081806153cd5750805b6133ec5760405162461bcd60e51b8152600401610d4c90616fb9565b6000611d708284617dfa565b60008060005b60185481101561546957836001600160a01b03166018828154811061543057634e487b7160e01b600052603260045260246000fd5b6000918252602090912001546001600160a01b031614156154575760019150809250615469565b8061546181617e7c565b9150506153fb565b5080156129a1576018805461548090600190617dfa565b8154811061549e57634e487b7160e01b600052603260045260246000fd5b600091825260209091200154601880546001600160a01b0390921691849081106154d857634e487b7160e01b600052603260045260246000fd5b9060005260206000200160006101000a8154816001600160a01b0302191690836001600160a01b03160217905550601880548061552557634e487b7160e01b600052603160045260246000fd5b600082815260209020810160001990810180546001600160a01b0319169055019055505050565b600080805b601754811015613c8e57836001600160a01b03166017828154811061558657634e487b7160e01b600052603260045260246000fd5b6000918252602090912001546001600160a01b031614156155aa5760019150613c8e565b806155b481617e7c565b915050615551565b3390565b600080805b601854811015613c8e57836001600160a01b0316601882815481106155fa57634e487b7160e01b600052603260045260246000fd5b6000918252602090912001546001600160a01b0316141561561e5760019150613c8e565b8061562881617e7c565b9150506155c5565b60008060005b6017548110156156a457836001600160a01b03166017828154811061566b57634e487b7160e01b600052603260045260246000fd5b6000918252602090912001546001600160a01b0316141561569257600191508092506156a4565b8061569c81617e7c565b915050615636565b5080156129a157601780546156bb90600190617dfa565b815481106156d957634e487b7160e01b600052603260045260246000fd5b600091825260209091200154601780546001600160a01b03909216918490811061571357634e487b7160e01b600052603260045260246000fd5b9060005260206000200160006101000a8154816001600160a01b0302191690836001600160a01b03160217905550601780548061552557634e487b7160e01b600052603160045260246000fd5b61576981611a7a565b8061578357506000818152601e6020526040902060030154155b61579f5760405162461bcd60e51b8152600401610d4c9061756d565b6000818152601e6020526040902060040154610100900460ff16156157d65760405162461bcd60e51b8152600401610d4c906177a9565b6000818152601e6020526040902060040154610100900460ff166129a45760006157ff826120db565b60008381526019602090815260408083208054825181850281018501909352808352949550929390929183018282801561586257602002820191906000526020600020905b81546001600160a01b03168152600190910190602001808311615844575b50505050509050600081516001600160401b0381111561589257634e487b7160e01b600052604160045260246000fd5b6040519080825280602002602001820160405280156158c557816020015b60608152602001906001900390816158b05790505b50905060005b8251811015615c6f5760008382815181106158f657634e487b7160e01b600052603260045260246000fd5b6020908102919091018101516000888152600c835260408082206001600160a01b03841680845290855281832054600b86528284208c8552865282842054600d875283852092855291909552908220805493955060ff9091169261595990617e41565b80601f016020809104026020016040519081016040528092919081815260200182805461598590617e41565b80156159d25780601f106159a7576101008083540402835291602001916159d2565b820191906000526020600020905b8154815290600101906020018083116159b557829003601f168201915b50505050509050808686815181106159fa57634e487b7160e01b600052603260045260246000fd5b6020026020010181905250615a0e846153f5565b6001600160a01b03841660009081526012602052604090208215615c2c576001600160a01b0385166000908152601260205260409020600301805460ff19166001908117909155891515148015615a655750836001145b80615a7a575088158015615a7a575083600114155b15615bc157602254600854604051630db6cc8560e11b81526001600160a01b0390921691631b6d990a91615ab2918990600401617c5c565b602060405180830381600087803b158015615acc57600080fd5b505af1158015615ae0573d6000803e3d6000fd5b505050506040513d601f19601f82011682018060405250810190615b049190616956565b615b205760405162461bcd60e51b8152600401610d4c9061734a565b602354600654604051633832942560e21b81526001600160a01b039092169163e0ca509491615b53918990600401617c45565b602060405180830381600087803b158015615b6d57600080fd5b505af1158015615b81573d6000803e3d6000fd5b505050506040513d601f19601f82011682018060405250810190615ba59190616956565b615bc15760405162461bcd60e51b8152600401610d4c906171d6565b600781015460ff1615615c2757615bd78561554c565b615c2757601780546001810182556000919091527fc624b66cc0138b8fabc209247f72d758e1cf3343756d543badbf24212bed8c150180546001600160a01b0319166001600160a01b0387161790555b615c57565b600781015460ff1615615c575760078101805460ff19169055615c4e85615630565b615c57856153f5565b50505050508080615c6790617e7c565b9150506158cb565b506000615c8f606484516032615c859190617ddb565b612a2c9190617dc7565b9050600082600081518110615cb457634e487b7160e01b600052603260045260246000fd5b6020026020010151905060005b8351811015615daa576000805b8551811015615d5f57615d2f868481518110615cfa57634e487b7160e01b600052603260045260246000fd5b6020026020010151878381518110615d2257634e487b7160e01b600052603260045260246000fd5b60200260200101516139ca565b15615d4d57615d3f600183617daf565b9150848210615d4d57615d5f565b80615d5781617e7c565b915050615cce565b50838110615d9757848281518110615d8757634e487b7160e01b600052603260045260246000fd5b6020026020010151925050615daa565b5080615da281617e7c565b915050615cc1565b506000868152601e6020908152604090912060048101805461ff0019166101001790558251615de19260099092019184019061637c565b50841561607d5760225460085460008881526013602052604090819020600101549051630db6cc8560e11b81526001600160a01b0393841693631b6d990a93615e31939092911690600401617c5c565b602060405180830381600087803b158015615e4b57600080fd5b505af1158015615e5f573d6000803e3d6000fd5b505050506040513d601f19601f82011682018060405250810190615e839190616956565b615e9f5760405162461bcd60e51b8152600401610d4c90617889565b60235460065460008881526013602052604090819020600101549051633832942560e21b81526001600160a01b039384169363e0ca509493615ee8939092911690600401617c45565b602060405180830381600087803b158015615f0257600080fd5b505af1158015615f16573d6000803e3d6000fd5b505050506040513d601f19601f82011682018060405250810190615f3a9190616956565b615f565760405162461bcd60e51b8152600401610d4c9061775a565b6000868152601e602052604090819020600a01805460ff1916600117905560255490516348257dc960e01b81526001600160a01b03909116906348257dc990615fa3908990600401616c8f565b602060405180830381600087803b158015615fbd57600080fd5b505af1925050508015615fed575060408051601f3d908101601f19168201909252615fea91810190616956565b60015b61605e573d80801561601b576040519150601f19603f3d011682016040523d82523d6000602084013e616020565b606091505b507f4b87bbd93ba65ede1e2efeca735d9f7a6720bf7d6db0a8355b17dba5b64e5783816040516160509190616d6b565b60405180910390a150616078565b6001601f60008282546160719190617daf565b9091555050505b61609a565b6000868152601e60205260409020600a01805460ff191660021790555b6001601f60008282546160ad9190617daf565b909155505060008681526013602052604090819020600181015491516001600160a01b03909216917f43916c3ae75995d24cc89b466ed08e6dba74d325f7957f9b37b05f150e12918e9161610091616e20565b60405180910390a2505050505050565b6000611d708284617daf565b600081831061612b5781611d70565b5090919050565b60008183101561612b5781611d70565b600080546001600160a01b038381166001600160a01b0319831681178455604051919092169283917f8be0079c531659141344cd1fd0a4f28419497f9722a3daafe3b4186f6b6457e09190a35050565b805160609060005b818110156161e057808482815181106161c357634e487b7160e01b600052603260045260246000fd5b6020908102919091010152806161d881617e7c565b91505061619a565b509192915050565b606060008251116161f857600080fd5b81518060005b8181101561637357600083616211613a83565b87848151811061623157634e487b7160e01b600052603260045260246000fd5b602002602001015160405160200161624a929190616cb4565b6040516020818303038152906040528051906020012060001c61626d9190617e97565b616278906001617daf565b9050600086616288600184617dfa565b815181106162a657634e487b7160e01b600052603260045260246000fd5b60200260200101519050866001866162be9190617dfa565b815181106162dc57634e487b7160e01b600052603260045260246000fd5b6020026020010151876001846162f29190617dfa565b8151811061631057634e487b7160e01b600052603260045260246000fd5b60209081029190910101528087616328600188617dfa565b8151811061634657634e487b7160e01b600052603260045260246000fd5b602090810291909101015261635c600186617dfa565b94505050808061636b90617e7c565b9150506161fe565b50929392505050565b82805461638890617e41565b90600052602060002090601f0160209004810192826163aa57600085556163f0565b82601f106163c357805160ff19168380011785556163f0565b828001600101855582156163f0579182015b828111156163f05782518255916020019190600101906163d5565b506163fc929150616612565b5090565b82805482825590600052602060002090810192821561644d579160200282015b8281111561644d578251805161643d91849160209091019061637c565b5091602001919060010190616420565b506163fc929150616627565b8280548282559060005260206000209081019282156163f057916020028201828111156163f05782518255916020019190600101906163d5565b50805461649f90617e41565b6000825580601f106164b157506129a4565b601f0160209004906000526020600020908101906129a49190616612565b50805460008255906000526020600020908101906129a49190616627565b50805460008255906000526020600020908101906129a49190616612565b6040518061010001604052806060815260200160006001600160a01b0316815260200160008152602001606081526020016060815260200160608152602001606081526020016000600381111561657257634e487b7160e01b600052602160045260246000fd5b905290565b604051806101e00160405280600081526020016000815260200160008152602001600081526020016000151581526020016000151581526020016000151581526020016000815260200160008152602001600081526020016000815260200160608152602001600060038111156165fe57634e487b7160e01b600052602160045260246000fd5b815260200160608152602001606081525090565b5b808211156163fc5760008155600101616613565b808211156163fc57600061663b8282616493565b50600101616627565b80356001600160a01b03811681146110cb57600080fd5b60008083601f84011261666c578182fd5b5081356001600160401b03811115616682578182fd5b602083019150836020808302850101111561669c57600080fd5b9250929050565b600082601f8301126166b3578081fd5b813560206166c86166c383617d80565b617d57565b82815281810190858301855b858110156166fd576166eb898684358b0101616764565b845292840192908401906001016166d4565b5090979650505050505050565b600082601f83011261671a578081fd5b8135602061672a6166c383617d80565b8281528181019085830183850287018401881015616746578586fd5b855b858110156166fd57813584529284019290840190600101616748565b600082601f830112616774578081fd5b81356001600160401b0381111561678d5761678d617ed7565b6167a0601f8201601f1916602001617d57565b8181528460208386010111156167b4578283fd5b816020850160208301379081016020019190915292915050565b6000602082840312156167df578081fd5b611d7082616644565b600080604083850312156167fa578081fd5b61680383616644565b946020939093013593505050565b600080600060608486031215616825578081fd5b61682e84616644565b95602085013595506040909401359392505050565b600080600080600080600060c0888a03121561685d578283fd5b87356001600160401b0380821115616873578485fd5b61687f8b838c016166a3565b985061688d60208b01616644565b975060408a01359150808211156168a2578485fd5b6168ae8b838c0161665b565b909750955060608a01359150808211156168c6578485fd5b6168d28b838c016166a3565b945060808a01359150808211156168e7578384fd5b6168f38b838c0161670a565b935060a08a0135915080821115616908578283fd5b506169158a828b01616764565b91505092959891949750929550565b600060208284031215616935578081fd5b81356001600160401b0381111561694a578182fd5b61477a8482850161670a565b600060208284031215616967578081fd5b81518015158114611d70578182fd5b60008060408385031215616988578182fd5b82356001600160401b038082111561699e578384fd5b6169aa86838701616764565b935060208501359150808211156169bf578283fd5b506169cc85828601616764565b9150509250929050565b6000602082840312156169e7578081fd5b5035919050565b600060208284031215611fce578081fd5b60008060408385031215616a11578182fd5b82359150616a2160208401616644565b90509250929050565b600080600060608486031215616a3e578283fd5b833592506020840135915060408401356001600160401b03811115616a61578182fd5b616a6d86828701616764565b9150509250925092565b60008060408385031215616a89578182fd5b50508035926020909101359150565b60008060008060808587031215616aad578182fd5b8435935060208501359250616ac460408601616644565b9396929550929360600135925050565b600080600060608486031215616ae8578081fd5b505081359360208301359350604090920135919050565b6001600160a01b03169052565b6000815180845260208085018081965082840281019150828601855b85811015616b52578284038952616b40848351616be5565b98850198935090840190600101616b28565b5091979650505050505050565b6000815180845260208085018081965082840281019150828601855b85811015616b52578284038952616b93848351616be5565b98850198935090840190600101616b7b565b6000815180845260208085019450808401835b83811015616bd457815187529582019590820190600101616bb8565b509495945050505050565b15159052565b60008151808452616bfd816020860160208601617e11565b601f01601f19169290920160200192915050565b60048110616c2f57634e487b7160e01b600052602160045260246000fd5b9052565b600a8152690c6dedadad2e890c2e6d60b31b602082015260400190565b60609190911b6bffffffffffffffffffffffff1916815260140190565b60609290921b6bffffffffffffffffffffffff19168252601482015260340190565b90815260200190565b60008251616caa818460208701617e11565b9190910192915050565b918252602082015260400190565b6001600160a01b0391909116815260200190565b6001600160a01b038a81168252891660208201526040810188905286151560608201526080810186905260a0810185905261012060c08201819052600090616d2083820187616be5565b94151560e084015250506101000152979650505050505050565b600060208252611d706020830184616b5f565b600060208252611d706020830184616ba5565b901515815260200190565b600060208252611d706020830184616be5565b600060c08252616d9160c0830189616be5565b6001600160a01b0388166020840152604083018790528281036060840152616db98187616be5565b90508281036080840152616dcd8186616be5565b91505061140a60a0830184616c11565b600060608252616df06060830186616be5565b8281036020840152616e028186616be5565b90508281036040840152616e168185616b5f565b9695505050505050565b6000602080835281845483600282049050600180831680616e4257607f831692505b858310811415616e6057634e487b7160e01b87526022600452602487fd5b616e6c83878a01616c8f565b818015616e805760018114616e9157616ebb565b60ff19861682528782019650616ebb565b616e9a8b617da3565b895b86811015616eb557815484820152908501908901616e9c565b83019750505b50949998505050505050505050565b6020808252601c908201527f576f726b657220697320616c7265616479207265676973746572656400000000604082015260600190565b60208082526031908201527f676976656e204461746142617463682073686f756c6420626520415050524f5660408201527011510b08185b99081a5d081a5cc81b9bdd607a1b606082015260800190565b60208082526041908201527f576f726b657220686173206e6f7420656e6f75676820285f6e756d546f6b656e60408201527f732920696e206869732053706f745374616b6564546f6b656e42616c616e63656060820152600160fd1b608082015260a00190565b60208082526025908201527f72656365697665722072656a6563746564205f7265747269657665534675656c6040820152640818d85b1b60da1b606082015260800190565b6020808252605c908201527f4e6f74207468652073616d6520766f7465207468616e2077686174207761732060408201527f636f6d6d697465642c20696d706f737369626c6520746f206d6174636820776960608201527f746820676976656e205f73616c742026205f766f74654f7074696f6e00000000608082015260a00190565b60208082526026908201527f4f776e61626c653a206e6577206f776e657220697320746865207a65726f206160408201526564647265737360d01b606082015260800190565b60208082526029908201527f6b206f72204e20617265206e6f74204f4b20647572696e672072616e646f6d2060408201526839b2b632b1ba34b7b760b91b606082015260800190565b6020808252602a908201527f4661696c20647572696e6720616c6c6f636174696f6e3a206e6f7420656e6f75604082015269676820776f726b65727360b01b606082015260800190565b60208082526025908201527f576f726b6572206d757374206265204e4f54204275737920746f20756e72656760408201526434b9ba32b960d91b606082015260800190565b6020808252601e908201527f636f6d6d697420706572696f64206e6565647320746f206265206f70656e0000604082015260600190565b6020808252602f908201527f636f756c64206e6f742072657761726420746f6b656e20696e2054726967676560408201526e3921b432b1b5a9b837ba161018973160891b606082015260800190565b6020808252602b908201527f576f726b6572206973206e6f7420617661696c61626c6520736f2063616e277460408201526a103ab73932b3b4b9ba32b960a91b606082015260800190565b6020808252603d908201527f436f756c64206e6f74207265717565737420656e6f75676820616c6c6f63617460408201527f6564207374616b652c2072657175657374566f74696e67526967687473000000606082015260800190565b6020808252602f908201527f5573657220686173206e6f7420636f6d6d69746564206265666f72652c20746860408201526e1d5cc818d85b89dd081c995d99585b608a1b606082015260800190565b60208082526014908201527311185d18481b5d5cdd081a185d9948195b99195960621b604082015260600190565b6020808252602d908201527f636f756c64206e6f74207265776172642052455020696e20547269676765724360408201526c6865636b53706f742c20312e6160981b606082015260800190565b60208082526039908201527f646c6c4d61703a20646f6573206e6f7420636f696e7461696e205f446174614260408201527f61746368496420666f7220746865206d73672073656e64657200000000000000606082015260800190565b6020808252602b908201527f75736572206d75737420686176652072657665616c656420696e20746869732060408201526a0ced2eccadc4084c2e8c6d60ab1b606082015260800190565b6020808252601490820152733737ba1030903b30b634b2103837b9b4ba34b7b760611b604082015260600190565b6020808252603b908201527f43616e277420616c6c6f6361746520776f726b2c207468652063757272656e7460408201527f20626174636820697320616c726561647920616c6c6f63617465640000000000606082015260800190565b60208082526048908201527f55736572206e6565647320746f2068617665206265656e20616c6c6f6361746560408201527f64207468652063757272656e74206461746120626174636820746f20636f6d6d6060820152671a5d081bdb881a5d60c21b608082015260a00190565b6020808252818101527f4f776e61626c653a2063616c6c6572206973206e6f7420746865206f776e6572604082015260600190565b6020808252603a908201527f5f446174614261746368496420686173206e6f7420656e6465642c206f72206e60408201527f6f7420657665727920766f74657273206861766520766f746564000000000000606082015260800190565b60208082526029908201527f6765744e756d50617373696e67546f6b656e733a20686173686573206d75737460408201526808189948195c5d585b60ba1b606082015260800190565b60208082526036908201527f43616e277420616c6c6f6361746520776f726b2c207468652063757272656e74604082015275206261746368206973206e6f7420636f6d706c65746560501b606082015260800190565b60208082526026908201527f52657665616c20706572696f64206e6f74206f70656e20666f7220746869732060408201526511185d18525160d21b606082015260800190565b60208082526027908201527f617661696c61626c65546f6b656e732073686f756c64206265203e3d205f6e756040820152666d546f6b656e7360c81b606082015260800190565b60208082526017908201527f5f4461746142617463684964206d757374206578697374000000000000000000604082015260600190565b6020808252601390820152720c081059191c995cdcc8139bdd0815985b1a59606a1b604082015260600190565b6020808252602f908201527f636f756c64206e6f742072657761726420746f6b656e20696e2054726967676560408201526e3921b432b1b5a9b837ba161019173160891b606082015260800190565b60208082526021908201527f5f446174614261746368496420697320616c72656164792076616c69646174656040820152601960fa1b606082015260800190565b60208082526022908201527f4d6178696d756d207265676973746572656420776f726b65727320616c726561604082015261647960f01b606082015260800190565b60208082526037908201527f75736572206d757374206861766520656e6f75676820766f74696e672072696760408201527f68747320616b6120616c6c6f6361746564207374616b65000000000000000000606082015260800190565b6020808252602d908201527f636f756c64206e6f74207265776172642052455020696e20547269676765724360408201526c6865636b53706f742c20322e6160981b606082015260800190565b6020808252602a908201527f5f446174614261746368496420636865636b696e6720766f7465206d757374206040820152691a185d9948195b99195960b21b606082015260800190565b6020808252603b908201527f436f756c64206e6f74207769746864726177566f74696e67526967687473207460408201527f68726f7567682050726f78795374616b654465616c6c6f636174650000000000606082015260800190565b6020808252600f908201526e11185d18481b5d5cdd08195e1a5cdd608a1b604082015260600190565b6000602082528251602083015260208301516040830152604083015160608301526060830151608083015260808301516179e360a0840182616bdf565b5060a08301516179f660c0840182616bdf565b5060c0830151617a0960e0840182616bdf565b5060e0830151610100838101919091528301516101208084019190915283015161014080840191909152830151610160808401919091528301516101e0610180808501829052617a5d610200860184616be5565b908601519092506101a0617a7386820183616c11565b80870151915050601f196101c0818786030181880152617a938584616b0c565b908801518782039092018488015293509050616e168382616ba5565b600085825284602083015260806040830152617ace6080830185616be5565b905082606083015295945050505050565b60008382528260208301526060604083015261477a60608301616c33565b600084825283602083015260806040830152617b1b60808301616c33565b9050826060830152949350505050565b9182526020820152606060408201819052600990820152686e756d546f6b656e7360b81b608082015260a00190565b93845260208401929092526040830152606082015260800190565b6000602082528251610100806020850152617b94610120850183616be5565b91506020850151617ba86040860182616aff565b50604085015160608501526060850151601f1980868503016080870152617bcf8483616be5565b935060808701519150808685030160a0870152617bec8483616b0c565b935060a08701519150808685030160c0870152617c098483616ba5565b935060c08701519150808685030160e087015250617c278382616be5565b92505060e0850151617c3b82860182616c11565b5090949350505050565b9182526001600160a01b0316602082015260400190565b9182526001600160a01b031660208201526000604082015260600190565b9283526020830191909152604082015260600190565b60006101a08f83528e60208401528d60408401528c60608401528b151560808401528a151560a084015289151560c08401528860e084015287610100840152866101208401528561014084015280610160840152617cf081840186616be5565b915050617d01610180830184616c11565b9e9d5050505050505050505050505050565b6000808335601e19843603018112617d29578283fd5b8301803591506001600160401b03821115617d42578283fd5b60200191503681900382131561669c57600080fd5b6040518181016001600160401b0381118282101715617d7857617d78617ed7565b604052919050565b60006001600160401b03821115617d9957617d99617ed7565b5060209081020190565b60009081526020902090565b60008219821115617dc257617dc2617eab565b500190565b600082617dd657617dd6617ec1565b500490565b6000816000190483118215151615617df557617df5617eab565b500290565b600082821015617e0c57617e0c617eab565b500390565b60005b83811015617e2c578181015183820152602001617e14565b83811115617e3b576000848401525b50505050565b600281046001821680617e5557607f821691505b60208210811415617e7657634e487b7160e01b600052602260045260246000fd5b50919050565b6000600019821415617e9057617e90617eab565b5060010190565b600082617ea657617ea6617ec1565b500690565b634e487b7160e01b600052601160045260246000fd5b634e487b7160e01b600052601260045260246000fd5b634e487b7160e01b600052604160045260246000fdfea2646970667358221220f72caaa65898c8a9db03299f84e4f275c07a23dca54639bd02ba15a07d80dba764736f6c63430008000033",
  "linkReferences": {
    "contracts/worksystems/DataSpotting.sol": {
      "AttributeStore": [
        {
          "length": 20,
          "start": 14788
        },
        {
          "length": 20,
          "start": 14896
        },
        {
          "length": 20,
          "start": 17286
        },
        {
          "length": 20,
          "start": 17530
        }
      ],
      "DLL": [
        {
          "length": 20,
          "start": 4059
        },
        {
          "length": 20,
          "start": 7634
        },
        {
          "length": 20,
          "start": 7806
        },
        {
          "length": 20,
          "start": 8596
        },
        {
          "length": 20,
          "start": 13244
        },
        {
          "length": 20,
          "start": 13424
        },
        {
          "length": 20,
          "start": 14277
        },
        {
          "length": 20,
          "start": 14439
        },
        {
          "length": 20,
          "start": 14634
        }
      ]
    }
  },
  "deployedLinkReferences": {
    "contracts/worksystems/DataSpotting.sol": {
      "AttributeStore": [
        {
          "length": 20,
          "start": 14386
        },
        {
          "length": 20,
          "start": 14494
        },
        {
          "length": 20,
          "start": 16884
        },
        {
          "length": 20,
          "start": 17128
        }
      ],
      "DLL": [
        {
          "length": 20,
          "start": 3657
        },
        {
          "length": 20,
          "start": 7232
        },
        {
          "length": 20,
          "start": 7404
        },
        {
          "length": 20,
          "start": 8194
        },
        {
          "length": 20,
          "start": 12842
        },
        {
          "length": 20,
          "start": 13022
        },
        {
          "length": 20,
          "start": 13875
        },
        {
          "length": 20,
          "start": 14037
        },
        {
          "length": 20,
          "start": 14232
        }
      ]
    }
  }
}