{
  "_format": "hh-sol-artifact-1",
  "contractName": "DataSpotting",
  "sourceName": "contracts/worksystems/DataSpotting.sol",
  "abi": [
    {
      "inputs": [
        {
          "internalType": "address",
          "name": "EXDT_token",
          "type": "address"
        }
      ],
      "stateMutability": "nonpayable",
      "type": "constructor"
    },
    {
      "anonymous": false,
      "inputs": [
        {
          "indexed": false,
          "internalType": "bytes",
          "name": "bytesFailure",
          "type": "bytes"
        }
      ],
      "name": "BytesFailure",
      "type": "event"
    },
    {
      "anonymous": false,
      "inputs": [
        {
          "indexed": true,
          "internalType": "address",
          "name": "previousOwner",
          "type": "address"
        },
        {
          "indexed": true,
          "internalType": "address",
          "name": "newOwner",
          "type": "address"
        }
      ],
      "name": "OwnershipTransferred",
      "type": "event"
    },
    {
      "anonymous": false,
      "inputs": [
        {
          "indexed": true,
          "internalType": "uint256",
          "name": "epochNumber",
          "type": "uint256"
        }
      ],
      "name": "_NewEpoch",
      "type": "event"
    },
    {
      "anonymous": false,
      "inputs": [
        {
          "indexed": false,
          "internalType": "string",
          "name": "hash",
          "type": "string"
        },
        {
          "indexed": true,
          "internalType": "address",
          "name": "creator",
          "type": "address"
        }
      ],
      "name": "_SpotAccepted",
      "type": "event"
    },
    {
      "anonymous": false,
      "inputs": [
        {
          "indexed": true,
          "internalType": "uint256",
          "name": "DataID",
          "type": "uint256"
        },
        {
          "indexed": false,
          "internalType": "uint256",
          "name": "numTokens",
          "type": "uint256"
        },
        {
          "indexed": true,
          "internalType": "address",
          "name": "voter",
          "type": "address"
        }
      ],
      "name": "_SpotCheckCommitted",
      "type": "event"
    },
    {
      "anonymous": false,
      "inputs": [
        {
          "indexed": true,
          "internalType": "uint256",
          "name": "DataID",
          "type": "uint256"
        },
        {
          "indexed": false,
          "internalType": "uint256",
          "name": "numTokens",
          "type": "uint256"
        },
        {
          "indexed": false,
          "internalType": "uint256",
          "name": "votesFor",
          "type": "uint256"
        },
        {
          "indexed": false,
          "internalType": "uint256",
          "name": "votesAgainst",
          "type": "uint256"
        },
        {
          "indexed": true,
          "internalType": "uint256",
          "name": "choice",
          "type": "uint256"
        },
        {
          "indexed": true,
          "internalType": "address",
          "name": "voter",
          "type": "address"
        }
      ],
      "name": "_SpotCheckRevealed",
      "type": "event"
    },
    {
      "anonymous": false,
      "inputs": [
        {
          "indexed": true,
          "internalType": "uint256",
          "name": "DataID",
          "type": "uint256"
        },
        {
          "indexed": false,
          "internalType": "string",
          "name": "file_hash",
          "type": "string"
        },
        {
          "indexed": false,
          "internalType": "string",
          "name": "URL_domain",
          "type": "string"
        },
        {
          "indexed": false,
          "internalType": "string[]",
          "name": "tags",
          "type": "string[]"
        },
        {
          "indexed": true,
          "internalType": "address",
          "name": "sender",
          "type": "address"
        }
      ],
      "name": "_SpotSubmitted",
      "type": "event"
    },
    {
      "anonymous": false,
      "inputs": [
        {
          "indexed": true,
          "internalType": "uint256",
          "name": "DataID",
          "type": "uint256"
        },
        {
          "indexed": true,
          "internalType": "address",
          "name": "voter",
          "type": "address"
        }
      ],
      "name": "_TokensRescued",
      "type": "event"
    },
    {
      "anonymous": false,
      "inputs": [
        {
          "indexed": false,
          "internalType": "uint256",
          "name": "numTokens",
          "type": "uint256"
        },
        {
          "indexed": true,
          "internalType": "address",
          "name": "voter",
          "type": "address"
        }
      ],
      "name": "_VotingRightsGranted",
      "type": "event"
    },
    {
      "anonymous": false,
      "inputs": [
        {
          "indexed": false,
          "internalType": "uint256",
          "name": "numTokens",
          "type": "uint256"
        },
        {
          "indexed": true,
          "internalType": "address",
          "name": "voter",
          "type": "address"
        }
      ],
      "name": "_VotingRightsWithdrawn",
      "type": "event"
    },
    {
      "anonymous": false,
      "inputs": [
        {
          "indexed": true,
          "internalType": "uint256",
          "name": "batchID",
          "type": "uint256"
        },
        {
          "indexed": false,
          "internalType": "address",
          "name": "worker",
          "type": "address"
        }
      ],
      "name": "_WorkAllocated",
      "type": "event"
    },
    {
      "anonymous": false,
      "inputs": [
        {
          "indexed": true,
          "internalType": "address",
          "name": "worker",
          "type": "address"
        },
        {
          "indexed": false,
          "internalType": "uint256",
          "name": "timestamp",
          "type": "uint256"
        }
      ],
      "name": "_WorkerRegistered",
      "type": "event"
    },
    {
      "anonymous": false,
      "inputs": [
        {
          "indexed": true,
          "internalType": "address",
          "name": "worker",
          "type": "address"
        },
        {
          "indexed": false,
          "internalType": "uint256",
          "name": "timestamp",
          "type": "uint256"
        }
      ],
      "name": "_WorkerUnregistered",
      "type": "event"
    },
    {
      "inputs": [],
      "name": "AddressManager",
      "outputs": [
        {
          "internalType": "contract IAddressManager",
          "name": "",
          "type": "address"
        }
      ],
      "stateMutability": "view",
      "type": "function"
    },
    {
      "inputs": [],
      "name": "AllTxsCounter",
      "outputs": [
        {
          "internalType": "uint256",
          "name": "",
          "type": "uint256"
        }
      ],
      "stateMutability": "view",
      "type": "function"
    },
    {
      "inputs": [],
      "name": "AllocateWork",
      "outputs": [],
      "stateMutability": "nonpayable",
      "type": "function"
    },
    {
      "inputs": [],
      "name": "AllocatedBatchCursor",
      "outputs": [
        {
          "internalType": "uint256",
          "name": "",
          "type": "uint256"
        }
      ],
      "stateMutability": "view",
      "type": "function"
    },
    {
      "inputs": [],
      "name": "AmIRegistered",
      "outputs": [
        {
          "internalType": "bool",
          "name": "passed",
          "type": "bool"
        }
      ],
      "stateMutability": "view",
      "type": "function"
    },
    {
      "inputs": [
        {
          "internalType": "string",
          "name": "_a",
          "type": "string"
        },
        {
          "internalType": "string",
          "name": "_b",
          "type": "string"
        }
      ],
      "name": "AreStringsEqual",
      "outputs": [
        {
          "internalType": "bool",
          "name": "",
          "type": "bool"
        }
      ],
      "stateMutability": "pure",
      "type": "function"
    },
    {
      "inputs": [],
      "name": "BatchCheckingCursor",
      "outputs": [
        {
          "internalType": "uint256",
          "name": "",
          "type": "uint256"
        }
      ],
      "stateMutability": "view",
      "type": "function"
    },
    {
      "inputs": [],
      "name": "COMMIT_ROUND_DURATION",
      "outputs": [
        {
          "internalType": "uint256",
          "name": "",
          "type": "uint256"
        }
      ],
      "stateMutability": "view",
      "type": "function"
    },
    {
      "inputs": [],
      "name": "CONSENSUS_WORKER_SIZE",
      "outputs": [
        {
          "internalType": "uint256",
          "name": "",
          "type": "uint256"
        }
      ],
      "stateMutability": "view",
      "type": "function"
    },
    {
      "inputs": [],
      "name": "CurrentWorkEpoch",
      "outputs": [
        {
          "internalType": "uint256",
          "name": "",
          "type": "uint256"
        }
      ],
      "stateMutability": "view",
      "type": "function"
    },
    {
      "inputs": [
        {
          "internalType": "uint256",
          "name": "",
          "type": "uint256"
        }
      ],
      "name": "DataBatch",
      "outputs": [
        {
          "internalType": "uint256",
          "name": "start_idx",
          "type": "uint256"
        },
        {
          "internalType": "uint256",
          "name": "end_idx",
          "type": "uint256"
        },
        {
          "internalType": "uint256",
          "name": "counter",
          "type": "uint256"
        },
        {
          "internalType": "uint256",
          "name": "unrevealed_workers",
          "type": "uint256"
        },
        {
          "internalType": "bool",
          "name": "complete",
          "type": "bool"
        },
        {
          "internalType": "bool",
          "name": "checked",
          "type": "bool"
        },
        {
          "internalType": "bool",
          "name": "allocated_to_work",
          "type": "bool"
        },
        {
          "internalType": "uint256",
          "name": "commitEndDate",
          "type": "uint256"
        },
        {
          "internalType": "uint256",
          "name": "revealEndDate",
          "type": "uint256"
        },
        {
          "internalType": "uint256",
          "name": "votesFor",
          "type": "uint256"
        },
        {
          "internalType": "uint256",
          "name": "votesAgainst",
          "type": "uint256"
        },
        {
          "internalType": "string",
          "name": "batchIPFSfile",
          "type": "string"
        },
        {
          "internalType": "enum DataSpotting.DataStatus",
          "name": "status",
          "type": "uint8"
        }
      ],
      "stateMutability": "view",
      "type": "function"
    },
    {
      "inputs": [
        {
          "internalType": "uint256",
          "name": "_DataBatchId",
          "type": "uint256"
        }
      ],
      "name": "DataCommitEndDate",
      "outputs": [
        {
          "internalType": "uint256",
          "name": "commitEndDate",
          "type": "uint256"
        }
      ],
      "stateMutability": "view",
      "type": "function"
    },
    {
      "inputs": [
        {
          "internalType": "uint256",
          "name": "_DataBatchId",
          "type": "uint256"
        }
      ],
      "name": "DataEnded",
      "outputs": [
        {
          "internalType": "bool",
          "name": "ended",
          "type": "bool"
        }
      ],
      "stateMutability": "view",
      "type": "function"
    },
    {
      "inputs": [
        {
          "internalType": "uint256",
          "name": "_DataBatchId",
          "type": "uint256"
        }
      ],
      "name": "DataExists",
      "outputs": [
        {
          "internalType": "bool",
          "name": "exists",
          "type": "bool"
        }
      ],
      "stateMutability": "view",
      "type": "function"
    },
    {
      "inputs": [],
      "name": "DataNonce",
      "outputs": [
        {
          "internalType": "uint256",
          "name": "",
          "type": "uint256"
        }
      ],
      "stateMutability": "view",
      "type": "function"
    },
    {
      "inputs": [
        {
          "internalType": "uint256",
          "name": "_DataBatchId",
          "type": "uint256"
        }
      ],
      "name": "DataRevealEndDate",
      "outputs": [
        {
          "internalType": "uint256",
          "name": "revealEndDate",
          "type": "uint256"
        }
      ],
      "stateMutability": "view",
      "type": "function"
    },
    {
      "inputs": [],
      "name": "FormattingSystem",
      "outputs": [
        {
          "internalType": "contract IFormattingSystem",
          "name": "",
          "type": "address"
        }
      ],
      "stateMutability": "view",
      "type": "function"
    },
    {
      "inputs": [
        {
          "internalType": "address",
          "name": "user_",
          "type": "address"
        }
      ],
      "name": "GetCurrentWork",
      "outputs": [
        {
          "internalType": "uint256",
          "name": "",
          "type": "uint256"
        }
      ],
      "stateMutability": "view",
      "type": "function"
    },
    {
      "inputs": [
        {
          "internalType": "address",
          "name": "user_",
          "type": "address"
        }
      ],
      "name": "IsNewWorkAvailable",
      "outputs": [
        {
          "internalType": "bool",
          "name": "",
          "type": "bool"
        }
      ],
      "stateMutability": "view",
      "type": "function"
    },
    {
      "inputs": [],
      "name": "LastBatchCounter",
      "outputs": [
        {
          "internalType": "uint256",
          "name": "",
          "type": "uint256"
        }
      ],
      "stateMutability": "view",
      "type": "function"
    },
    {
      "inputs": [],
      "name": "MIN_PARTICIPANTS_FOR_VALIDITY",
      "outputs": [
        {
          "internalType": "uint256",
          "name": "",
          "type": "uint256"
        }
      ],
      "stateMutability": "view",
      "type": "function"
    },
    {
      "inputs": [],
      "name": "MIN_REP_Data",
      "outputs": [
        {
          "internalType": "uint256",
          "name": "",
          "type": "uint256"
        }
      ],
      "stateMutability": "view",
      "type": "function"
    },
    {
      "inputs": [],
      "name": "MIN_REP_REVEAL",
      "outputs": [
        {
          "internalType": "uint256",
          "name": "",
          "type": "uint256"
        }
      ],
      "stateMutability": "view",
      "type": "function"
    },
    {
      "inputs": [],
      "name": "MIN_REWARD_Data",
      "outputs": [
        {
          "internalType": "uint256",
          "name": "",
          "type": "uint256"
        }
      ],
      "stateMutability": "view",
      "type": "function"
    },
    {
      "inputs": [],
      "name": "MIN_STAKE",
      "outputs": [
        {
          "internalType": "uint256",
          "name": "",
          "type": "uint256"
        }
      ],
      "stateMutability": "view",
      "type": "function"
    },
    {
      "inputs": [
        {
          "internalType": "address",
          "name": "",
          "type": "address"
        },
        {
          "internalType": "uint256",
          "name": "",
          "type": "uint256"
        }
      ],
      "name": "MasterWorkers",
      "outputs": [
        {
          "internalType": "address",
          "name": "",
          "type": "address"
        }
      ],
      "stateMutability": "view",
      "type": "function"
    },
    {
      "inputs": [],
      "name": "REVEAL_ROUND_DURATION",
      "outputs": [
        {
          "internalType": "uint256",
          "name": "",
          "type": "uint256"
        }
      ],
      "stateMutability": "view",
      "type": "function"
    },
    {
      "inputs": [],
      "name": "RegisterWorker",
      "outputs": [],
      "stateMutability": "nonpayable",
      "type": "function"
    },
    {
      "inputs": [],
      "name": "RepManager",
      "outputs": [
        {
          "internalType": "contract IRepManager",
          "name": "",
          "type": "address"
        }
      ],
      "stateMutability": "view",
      "type": "function"
    },
    {
      "inputs": [],
      "name": "RewardManager",
      "outputs": [
        {
          "internalType": "contract IRewardManager",
          "name": "",
          "type": "address"
        }
      ],
      "stateMutability": "view",
      "type": "function"
    },
    {
      "inputs": [],
      "name": "SPOT_CHECK_VOTE_QUORUM",
      "outputs": [
        {
          "internalType": "uint256",
          "name": "",
          "type": "uint256"
        }
      ],
      "stateMutability": "view",
      "type": "function"
    },
    {
      "inputs": [
        {
          "internalType": "string[]",
          "name": "file_hashs",
          "type": "string[]"
        },
        {
          "internalType": "address",
          "name": "main_worker_account",
          "type": "address"
        },
        {
          "internalType": "string[]",
          "name": "URL_domains",
          "type": "string[]"
        },
        {
          "internalType": "string[]",
          "name": "tags_",
          "type": "string[]"
        },
        {
          "internalType": "uint256[]",
          "name": "tags_id_",
          "type": "uint256[]"
        },
        {
          "internalType": "string",
          "name": "extra_",
          "type": "string"
        }
      ],
      "name": "SpotData",
      "outputs": [
        {
          "internalType": "uint256",
          "name": "Dataid_",
          "type": "uint256"
        }
      ],
      "stateMutability": "nonpayable",
      "type": "function"
    },
    {
      "inputs": [
        {
          "internalType": "address",
          "name": "",
          "type": "address"
        }
      ],
      "name": "SpotStakedTokenBalance",
      "outputs": [
        {
          "internalType": "uint256",
          "name": "",
          "type": "uint256"
        }
      ],
      "stateMutability": "view",
      "type": "function"
    },
    {
      "inputs": [
        {
          "internalType": "uint256",
          "name": "",
          "type": "uint256"
        }
      ],
      "name": "SpotsMapping",
      "outputs": [
        {
          "internalType": "string",
          "name": "ipfs_hash",
          "type": "string"
        },
        {
          "internalType": "address",
          "name": "author",
          "type": "address"
        },
        {
          "internalType": "uint256",
          "name": "timestamp",
          "type": "uint256"
        },
        {
          "internalType": "string",
          "name": "URL_domain",
          "type": "string"
        },
        {
          "internalType": "string",
          "name": "extra",
          "type": "string"
        },
        {
          "internalType": "enum DataSpotting.DataStatus",
          "name": "status",
          "type": "uint8"
        }
      ],
      "stateMutability": "view",
      "type": "function"
    },
    {
      "inputs": [],
      "name": "StakeManager",
      "outputs": [
        {
          "internalType": "contract IStakeManager",
          "name": "",
          "type": "address"
        }
      ],
      "stateMutability": "view",
      "type": "function"
    },
    {
      "inputs": [],
      "name": "TriggerNextEpoch",
      "outputs": [],
      "stateMutability": "nonpayable",
      "type": "function"
    },
    {
      "inputs": [],
      "name": "UnregisterWorker",
      "outputs": [],
      "stateMutability": "nonpayable",
      "type": "function"
    },
    {
      "inputs": [
        {
          "internalType": "address",
          "name": "",
          "type": "address"
        },
        {
          "internalType": "uint256",
          "name": "",
          "type": "uint256"
        }
      ],
      "name": "UserChecksCommits",
      "outputs": [
        {
          "internalType": "bool",
          "name": "",
          "type": "bool"
        }
      ],
      "stateMutability": "view",
      "type": "function"
    },
    {
      "inputs": [
        {
          "internalType": "address",
          "name": "",
          "type": "address"
        },
        {
          "internalType": "uint256",
          "name": "",
          "type": "uint256"
        }
      ],
      "name": "UserChecksReveals",
      "outputs": [
        {
          "internalType": "bool",
          "name": "",
          "type": "bool"
        }
      ],
      "stateMutability": "view",
      "type": "function"
    },
    {
      "inputs": [
        {
          "internalType": "uint256",
          "name": "",
          "type": "uint256"
        },
        {
          "internalType": "address",
          "name": "",
          "type": "address"
        }
      ],
      "name": "UserNewFiles",
      "outputs": [
        {
          "internalType": "string",
          "name": "",
          "type": "string"
        }
      ],
      "stateMutability": "view",
      "type": "function"
    },
    {
      "inputs": [
        {
          "internalType": "uint256",
          "name": "",
          "type": "uint256"
        },
        {
          "internalType": "address",
          "name": "",
          "type": "address"
        }
      ],
      "name": "UserVotes",
      "outputs": [
        {
          "internalType": "uint256",
          "name": "",
          "type": "uint256"
        }
      ],
      "stateMutability": "view",
      "type": "function"
    },
    {
      "inputs": [
        {
          "internalType": "uint256",
          "name": "",
          "type": "uint256"
        },
        {
          "internalType": "uint256",
          "name": "",
          "type": "uint256"
        }
      ],
      "name": "WorkersPerBatch",
      "outputs": [
        {
          "internalType": "address",
          "name": "",
          "type": "address"
        }
      ],
      "stateMutability": "view",
      "type": "function"
    },
    {
      "inputs": [
        {
          "internalType": "address",
          "name": "",
          "type": "address"
        }
      ],
      "name": "WorkersState",
      "outputs": [
        {
          "internalType": "address",
          "name": "worker_address",
          "type": "address"
        },
        {
          "internalType": "address",
          "name": "master_address",
          "type": "address"
        },
        {
          "internalType": "uint256",
          "name": "allocated_work_batch",
          "type": "uint256"
        },
        {
          "internalType": "bool",
          "name": "has_completed_work",
          "type": "bool"
        },
        {
          "internalType": "uint256",
          "name": "last_worked_round",
          "type": "uint256"
        },
        {
          "internalType": "uint256",
          "name": "last_interaction_date",
          "type": "uint256"
        },
        {
          "internalType": "string",
          "name": "extra",
          "type": "string"
        },
        {
          "internalType": "bool",
          "name": "registered",
          "type": "bool"
        },
        {
          "internalType": "uint256",
          "name": "registration_date",
          "type": "uint256"
        }
      ],
      "stateMutability": "view",
      "type": "function"
    },
    {
      "inputs": [
        {
          "internalType": "address",
          "name": "_user",
          "type": "address"
        },
        {
          "internalType": "uint256",
          "name": "_DataBatchId",
          "type": "uint256"
        }
      ],
      "name": "attrUUID",
      "outputs": [
        {
          "internalType": "bytes32",
          "name": "UUID",
          "type": "bytes32"
        }
      ],
      "stateMutability": "pure",
      "type": "function"
    },
    {
      "inputs": [
        {
          "internalType": "uint256",
          "name": "",
          "type": "uint256"
        }
      ],
      "name": "availableWorkers",
      "outputs": [
        {
          "internalType": "address",
          "name": "",
          "type": "address"
        }
      ],
      "stateMutability": "view",
      "type": "function"
    },
    {
      "inputs": [
        {
          "internalType": "uint256",
          "name": "",
          "type": "uint256"
        }
      ],
      "name": "busyWorkers",
      "outputs": [
        {
          "internalType": "address",
          "name": "",
          "type": "address"
        }
      ],
      "stateMutability": "view",
      "type": "function"
    },
    {
      "inputs": [
        {
          "internalType": "uint256",
          "name": "_DataBatchId",
          "type": "uint256"
        }
      ],
      "name": "commitPeriodActive",
      "outputs": [
        {
          "internalType": "bool",
          "name": "active",
          "type": "bool"
        }
      ],
      "stateMutability": "view",
      "type": "function"
    },
    {
      "inputs": [
        {
          "internalType": "uint256",
          "name": "_DataBatchId",
          "type": "uint256"
        },
        {
          "internalType": "bytes32",
          "name": "_secretHash",
          "type": "bytes32"
        },
        {
          "internalType": "string",
          "name": "newIPFSHash",
          "type": "string"
        }
      ],
      "name": "commitSpotCheck",
      "outputs": [],
      "stateMutability": "nonpayable",
      "type": "function"
    },
    {
      "inputs": [
        {
          "internalType": "uint256[]",
          "name": "_DataBatchIDs",
          "type": "uint256[]"
        },
        {
          "internalType": "bytes32[]",
          "name": "_secretHashes",
          "type": "bytes32[]"
        },
        {
          "internalType": "string[]",
          "name": "_newIPFSHash",
          "type": "string[]"
        }
      ],
      "name": "commitSpotChecks",
      "outputs": [],
      "stateMutability": "nonpayable",
      "type": "function"
    },
    {
      "inputs": [
        {
          "internalType": "address",
          "name": "_voter",
          "type": "address"
        },
        {
          "internalType": "uint256",
          "name": "_DataBatchId",
          "type": "uint256"
        }
      ],
      "name": "didCommit",
      "outputs": [
        {
          "internalType": "bool",
          "name": "committed",
          "type": "bool"
        }
      ],
      "stateMutability": "view",
      "type": "function"
    },
    {
      "inputs": [
        {
          "internalType": "address",
          "name": "_voter",
          "type": "address"
        },
        {
          "internalType": "uint256",
          "name": "_DataBatchId",
          "type": "uint256"
        }
      ],
      "name": "didReveal",
      "outputs": [
        {
          "internalType": "bool",
          "name": "revealed",
          "type": "bool"
        }
      ],
      "stateMutability": "view",
      "type": "function"
    },
    {
      "inputs": [
        {
          "internalType": "uint256",
          "name": "_k",
          "type": "uint256"
        },
        {
          "internalType": "uint256",
          "name": "N_range",
          "type": "uint256"
        }
      ],
      "name": "generateIntegers",
      "outputs": [
        {
          "internalType": "uint256[]",
          "name": "",
          "type": "uint256[]"
        }
      ],
      "stateMutability": "view",
      "type": "function"
    },
    {
      "inputs": [],
      "name": "getActiveWorkersCount",
      "outputs": [
        {
          "internalType": "uint256",
          "name": "numWorkers",
          "type": "uint256"
        }
      ],
      "stateMutability": "view",
      "type": "function"
    },
    {
      "inputs": [
        {
          "internalType": "uint256",
          "name": "_DataBatchId",
          "type": "uint256"
        }
      ],
      "name": "getBatchByID",
      "outputs": [
        {
          "components": [
            {
              "internalType": "uint256",
              "name": "start_idx",
              "type": "uint256"
            },
            {
              "internalType": "uint256",
              "name": "end_idx",
              "type": "uint256"
            },
            {
              "internalType": "uint256",
              "name": "counter",
              "type": "uint256"
            },
            {
              "internalType": "uint256",
              "name": "unrevealed_workers",
              "type": "uint256"
            },
            {
              "internalType": "bool",
              "name": "complete",
              "type": "bool"
            },
            {
              "internalType": "bool",
              "name": "checked",
              "type": "bool"
            },
            {
              "internalType": "bool",
              "name": "allocated_to_work",
              "type": "bool"
            },
            {
              "internalType": "uint256",
              "name": "commitEndDate",
              "type": "uint256"
            },
            {
              "internalType": "uint256",
              "name": "revealEndDate",
              "type": "uint256"
            },
            {
              "internalType": "uint256",
              "name": "votesFor",
              "type": "uint256"
            },
            {
              "internalType": "uint256",
              "name": "votesAgainst",
              "type": "uint256"
            },
            {
              "internalType": "string",
              "name": "batchIPFSfile",
              "type": "string"
            },
            {
              "internalType": "enum DataSpotting.DataStatus",
              "name": "status",
              "type": "uint8"
            },
            {
              "internalType": "string[]",
              "name": "flags",
              "type": "string[]"
            },
            {
              "internalType": "uint256[]",
              "name": "flags_id",
              "type": "uint256[]"
            }
          ],
          "internalType": "struct DataSpotting.BatchMetadata",
          "name": "batch",
          "type": "tuple"
        }
      ],
      "stateMutability": "view",
      "type": "function"
    },
    {
      "inputs": [
        {
          "internalType": "uint256",
          "name": "_DataBatchId",
          "type": "uint256"
        }
      ],
      "name": "getBatchIPFSFileByID",
      "outputs": [
        {
          "internalType": "string",
          "name": "batch",
          "type": "string"
        }
      ],
      "stateMutability": "view",
      "type": "function"
    },
    {
      "inputs": [],
      "name": "getBlockTimestamp",
      "outputs": [
        {
          "internalType": "uint256",
          "name": "blocktimestamp",
          "type": "uint256"
        }
      ],
      "stateMutability": "view",
      "type": "function"
    },
    {
      "inputs": [
        {
          "internalType": "address",
          "name": "_voter",
          "type": "address"
        },
        {
          "internalType": "uint256",
          "name": "_DataBatchId",
          "type": "uint256"
        }
      ],
      "name": "getCommitHash",
      "outputs": [
        {
          "internalType": "bytes32",
          "name": "commitHash",
          "type": "bytes32"
        }
      ],
      "stateMutability": "view",
      "type": "function"
    },
    {
      "inputs": [],
      "name": "getCurrentWorkEpoch",
      "outputs": [
        {
          "internalType": "uint256",
          "name": "WorkEpoch",
          "type": "uint256"
        }
      ],
      "stateMutability": "view",
      "type": "function"
    },
    {
      "inputs": [
        {
          "internalType": "uint256",
          "name": "_DataId",
          "type": "uint256"
        }
      ],
      "name": "getDataByID",
      "outputs": [
        {
          "components": [
            {
              "internalType": "string",
              "name": "ipfs_hash",
              "type": "string"
            },
            {
              "internalType": "address",
              "name": "author",
              "type": "address"
            },
            {
              "internalType": "uint256",
              "name": "timestamp",
              "type": "uint256"
            },
            {
              "internalType": "string",
              "name": "URL_domain",
              "type": "string"
            },
            {
              "internalType": "string[]",
              "name": "tags",
              "type": "string[]"
            },
            {
              "internalType": "uint256[]",
              "name": "tags_id",
              "type": "uint256[]"
            },
            {
              "internalType": "string",
              "name": "extra",
              "type": "string"
            },
            {
              "internalType": "enum DataSpotting.DataStatus",
              "name": "status",
              "type": "uint8"
            }
          ],
          "internalType": "struct DataSpotting.SpottedData",
          "name": "data",
          "type": "tuple"
        }
      ],
      "stateMutability": "view",
      "type": "function"
    },
    {
      "inputs": [
        {
          "internalType": "uint256",
          "name": "_DataBatchId",
          "type": "uint256"
        }
      ],
      "name": "getDomainsForBatch",
      "outputs": [
        {
          "internalType": "string[]",
          "name": "",
          "type": "string[]"
        }
      ],
      "stateMutability": "view",
      "type": "function"
    },
    {
      "inputs": [
        {
          "internalType": "uint256",
          "name": "_voteOption",
          "type": "uint256"
        },
        {
          "internalType": "uint256",
          "name": "_salt",
          "type": "uint256"
        }
      ],
      "name": "getEncryptedHash",
      "outputs": [
        {
          "internalType": "bytes32",
          "name": "keccak256hash",
          "type": "bytes32"
        }
      ],
      "stateMutability": "pure",
      "type": "function"
    },
    {
      "inputs": [
        {
          "internalType": "uint256",
          "name": "a",
          "type": "uint256"
        },
        {
          "internalType": "uint256",
          "name": "b",
          "type": "uint256"
        }
      ],
      "name": "getHash",
      "outputs": [
        {
          "internalType": "bytes32",
          "name": "keccak256hash",
          "type": "bytes32"
        }
      ],
      "stateMutability": "pure",
      "type": "function"
    },
    {
      "inputs": [
        {
          "internalType": "uint256",
          "name": "_DataBatchId",
          "type": "uint256"
        }
      ],
      "name": "getIPFShashesForBatch",
      "outputs": [
        {
          "internalType": "string[]",
          "name": "",
          "type": "string[]"
        }
      ],
      "stateMutability": "view",
      "type": "function"
    },
    {
      "inputs": [
        {
          "internalType": "address",
          "name": "_voter",
          "type": "address"
        },
        {
          "internalType": "uint256",
          "name": "_numTokens",
          "type": "uint256"
        },
        {
          "internalType": "uint256",
          "name": "_DataBatchId",
          "type": "uint256"
        }
      ],
      "name": "getInsertPointForNumTokens",
      "outputs": [
        {
          "internalType": "uint256",
          "name": "prevNode",
          "type": "uint256"
        }
      ],
      "stateMutability": "view",
      "type": "function"
    },
    {
      "inputs": [],
      "name": "getLastBatchId",
      "outputs": [
        {
          "internalType": "uint256",
          "name": "LastBatchId",
          "type": "uint256"
        }
      ],
      "stateMutability": "view",
      "type": "function"
    },
    {
      "inputs": [],
      "name": "getLastCheckedBatchId",
      "outputs": [
        {
          "internalType": "uint256",
          "name": "LastCheckedBatchId",
          "type": "uint256"
        }
      ],
      "stateMutability": "view",
      "type": "function"
    },
    {
      "inputs": [],
      "name": "getLastDataId",
      "outputs": [
        {
          "internalType": "uint256",
          "name": "DataId",
          "type": "uint256"
        }
      ],
      "stateMutability": "view",
      "type": "function"
    },
    {
      "inputs": [
        {
          "internalType": "address",
          "name": "_voter",
          "type": "address"
        }
      ],
      "name": "getLastNode",
      "outputs": [
        {
          "internalType": "uint256",
          "name": "DataID",
          "type": "uint256"
        }
      ],
      "stateMutability": "view",
      "type": "function"
    },
    {
      "inputs": [
        {
          "internalType": "address",
          "name": "user",
          "type": "address"
        }
      ],
      "name": "getLastUserDataId",
      "outputs": [
        {
          "internalType": "uint256",
          "name": "DataId",
          "type": "uint256"
        }
      ],
      "stateMutability": "view",
      "type": "function"
    },
    {
      "inputs": [
        {
          "internalType": "address",
          "name": "_voter",
          "type": "address"
        }
      ],
      "name": "getLockedTokens",
      "outputs": [
        {
          "internalType": "uint256",
          "name": "numTokens",
          "type": "uint256"
        }
      ],
      "stateMutability": "view",
      "type": "function"
    },
    {
      "inputs": [
        {
          "internalType": "address",
          "name": "_voter",
          "type": "address"
        },
        {
          "internalType": "uint256",
          "name": "_DataBatchId",
          "type": "uint256"
        },
        {
          "internalType": "uint256",
          "name": "_salt",
          "type": "uint256"
        }
      ],
      "name": "getNumPassingTokens",
      "outputs": [
        {
          "internalType": "uint256",
          "name": "correctSpotChecks",
          "type": "uint256"
        }
      ],
      "stateMutability": "view",
      "type": "function"
    },
    {
      "inputs": [
        {
          "internalType": "address",
          "name": "_voter",
          "type": "address"
        },
        {
          "internalType": "uint256",
          "name": "_DataBatchId",
          "type": "uint256"
        }
      ],
      "name": "getNumTokens",
      "outputs": [
        {
          "internalType": "uint256",
          "name": "numTokens",
          "type": "uint256"
        }
      ],
      "stateMutability": "view",
      "type": "function"
    },
    {
      "inputs": [],
      "name": "getRandom",
      "outputs": [
        {
          "internalType": "uint256",
          "name": "",
          "type": "uint256"
        }
      ],
      "stateMutability": "view",
      "type": "function"
    },
    {
      "inputs": [],
      "name": "getSeed",
      "outputs": [
        {
          "internalType": "bytes32",
          "name": "addr",
          "type": "bytes32"
        }
      ],
      "stateMutability": "view",
      "type": "function"
    },
    {
      "inputs": [
        {
          "internalType": "uint256",
          "name": "_DataBatchId",
          "type": "uint256"
        }
      ],
      "name": "getTotalNumberOfSpotChecks",
      "outputs": [
        {
          "internalType": "uint256",
          "name": "vc",
          "type": "uint256"
        }
      ],
      "stateMutability": "view",
      "type": "function"
    },
    {
      "inputs": [
        {
          "internalType": "uint256",
          "name": "_DataBatchId",
          "type": "uint256"
        }
      ],
      "name": "getTotalNumberOfTokensForWinningOption",
      "outputs": [
        {
          "internalType": "uint256",
          "name": "numTokens",
          "type": "uint256"
        }
      ],
      "stateMutability": "view",
      "type": "function"
    },
    {
      "inputs": [],
      "name": "getTxCounter",
      "outputs": [
        {
          "internalType": "uint256",
          "name": "Counter",
          "type": "uint256"
        }
      ],
      "stateMutability": "view",
      "type": "function"
    },
    {
      "inputs": [
        {
          "internalType": "address",
          "name": "user",
          "type": "address"
        }
      ],
      "name": "getUserDatas",
      "outputs": [
        {
          "internalType": "uint256[]",
          "name": "user_Datas",
          "type": "uint256[]"
        }
      ],
      "stateMutability": "view",
      "type": "function"
    },
    {
      "inputs": [
        {
          "internalType": "uint256",
          "name": "_terminationDate",
          "type": "uint256"
        }
      ],
      "name": "isExpired",
      "outputs": [
        {
          "internalType": "bool",
          "name": "expired",
          "type": "bool"
        }
      ],
      "stateMutability": "view",
      "type": "function"
    },
    {
      "inputs": [
        {
          "internalType": "uint256",
          "name": "_DataBatchId",
          "type": "uint256"
        }
      ],
      "name": "isPassed",
      "outputs": [
        {
          "internalType": "bool",
          "name": "passed",
          "type": "bool"
        }
      ],
      "stateMutability": "view",
      "type": "function"
    },
    {
      "inputs": [
        {
          "internalType": "address",
          "name": "_worker",
          "type": "address"
        }
      ],
      "name": "isWorkerRegistered",
      "outputs": [
        {
          "internalType": "bool",
          "name": "passed",
          "type": "bool"
        }
      ],
      "stateMutability": "view",
      "type": "function"
    },
    {
      "inputs": [],
      "name": "owner",
      "outputs": [
        {
          "internalType": "address",
          "name": "",
          "type": "address"
        }
      ],
      "stateMutability": "view",
      "type": "function"
    },
    {
      "inputs": [
        {
          "internalType": "uint256",
          "name": "k",
          "type": "uint256"
        },
        {
          "internalType": "uint256",
          "name": "N",
          "type": "uint256"
        }
      ],
      "name": "random_selection",
      "outputs": [
        {
          "internalType": "uint256[]",
          "name": "",
          "type": "uint256[]"
        }
      ],
      "stateMutability": "view",
      "type": "function"
    },
    {
      "inputs": [],
      "name": "renounceOwnership",
      "outputs": [],
      "stateMutability": "nonpayable",
      "type": "function"
    },
    {
      "inputs": [
        {
          "internalType": "uint256",
          "name": "_numTokens",
          "type": "uint256"
        }
      ],
      "name": "requestVotingRights",
      "outputs": [],
      "stateMutability": "nonpayable",
      "type": "function"
    },
    {
      "inputs": [
        {
          "internalType": "uint256",
          "name": "_DataBatchId",
          "type": "uint256"
        }
      ],
      "name": "rescueTokens",
      "outputs": [],
      "stateMutability": "nonpayable",
      "type": "function"
    },
    {
      "inputs": [
        {
          "internalType": "uint256[]",
          "name": "_DataBatchIDs",
          "type": "uint256[]"
        }
      ],
      "name": "rescueTokensInMultipleDatas",
      "outputs": [],
      "stateMutability": "nonpayable",
      "type": "function"
    },
    {
      "inputs": [
        {
          "internalType": "uint256",
          "name": "_DataBatchId",
          "type": "uint256"
        }
      ],
      "name": "revealPeriodActive",
      "outputs": [
        {
          "internalType": "bool",
          "name": "active",
          "type": "bool"
        }
      ],
      "stateMutability": "view",
      "type": "function"
    },
    {
      "inputs": [
        {
          "internalType": "uint256",
          "name": "_DataBatchId",
          "type": "uint256"
        },
        {
          "internalType": "uint256",
          "name": "_voteOption",
          "type": "uint256"
        },
        {
          "internalType": "uint256",
          "name": "_salt",
          "type": "uint256"
        }
      ],
      "name": "revealSpotCheck",
      "outputs": [],
      "stateMutability": "nonpayable",
      "type": "function"
    },
    {
      "inputs": [
        {
          "internalType": "uint256[]",
          "name": "_DataBatchIDs",
          "type": "uint256[]"
        },
        {
          "internalType": "uint256[]",
          "name": "_voteOptions",
          "type": "uint256[]"
        },
        {
          "internalType": "uint256[]",
          "name": "_salts",
          "type": "uint256[]"
        }
      ],
      "name": "revealSpotChecks",
      "outputs": [],
      "stateMutability": "nonpayable",
      "type": "function"
    },
    {
      "inputs": [],
      "name": "sFuel",
      "outputs": [
        {
          "internalType": "address",
          "name": "",
          "type": "address"
        }
      ],
      "stateMutability": "view",
      "type": "function"
    },
    {
      "inputs": [
        {
          "internalType": "uint256",
          "name": "N",
          "type": "uint256"
        }
      ],
      "name": "shuffle_array",
      "outputs": [
        {
          "internalType": "uint256[]",
          "name": "",
          "type": "uint256[]"
        }
      ],
      "stateMutability": "view",
      "type": "function"
    },
    {
      "inputs": [],
      "name": "token",
      "outputs": [
        {
          "internalType": "contract IERC20",
          "name": "",
          "type": "address"
        }
      ],
      "stateMutability": "view",
      "type": "function"
    },
    {
      "inputs": [
        {
          "internalType": "address",
          "name": "newOwner",
          "type": "address"
        }
      ],
      "name": "transferOwnership",
      "outputs": [],
      "stateMutability": "nonpayable",
      "type": "function"
    },
    {
      "inputs": [
        {
          "internalType": "address",
          "name": "addr",
          "type": "address"
        }
      ],
      "name": "updateAddressManager",
      "outputs": [],
      "stateMutability": "nonpayable",
      "type": "function"
    },
    {
      "inputs": [
        {
          "internalType": "uint256",
          "name": "COMMIT_ROUND_DURATION_",
          "type": "uint256"
        }
      ],
      "name": "updateCommitRoundDuration",
      "outputs": [],
      "stateMutability": "nonpayable",
      "type": "function"
    },
    {
      "inputs": [
        {
          "internalType": "uint256",
          "name": "CONSENSUS_WORKER_SIZE_",
          "type": "uint256"
        }
      ],
      "name": "updateConsensusSize",
      "outputs": [],
      "stateMutability": "nonpayable",
      "type": "function"
    },
    {
      "inputs": [
        {
          "internalType": "address",
          "name": "addr",
          "type": "address"
        }
      ],
      "name": "updateFormattingSystem",
      "outputs": [],
      "stateMutability": "nonpayable",
      "type": "function"
    },
    {
      "inputs": [
        {
          "internalType": "address",
          "name": "addr",
          "type": "address"
        }
      ],
      "name": "updateRepManager",
      "outputs": [],
      "stateMutability": "nonpayable",
      "type": "function"
    },
    {
      "inputs": [
        {
          "internalType": "uint256",
          "name": "REVEAL_ROUND_DURATION_",
          "type": "uint256"
        }
      ],
      "name": "updateRevealRoundDuration",
      "outputs": [],
      "stateMutability": "nonpayable",
      "type": "function"
    },
    {
      "inputs": [
        {
          "internalType": "address",
          "name": "addr",
          "type": "address"
        }
      ],
      "name": "updateRewardManager",
      "outputs": [],
      "stateMutability": "nonpayable",
      "type": "function"
    },
    {
      "inputs": [
        {
          "internalType": "address",
          "name": "addr",
          "type": "address"
        }
      ],
      "name": "updateStakeManager",
      "outputs": [],
      "stateMutability": "nonpayable",
      "type": "function"
    },
    {
      "inputs": [
        {
          "internalType": "address",
          "name": "sFuel_",
          "type": "address"
        }
      ],
      "name": "updatesFuelFaucet",
      "outputs": [],
      "stateMutability": "nonpayable",
      "type": "function"
    },
    {
      "inputs": [
        {
          "internalType": "address",
          "name": "",
          "type": "address"
        },
        {
          "internalType": "uint256",
          "name": "",
          "type": "uint256"
        }
      ],
      "name": "userSubmissions",
      "outputs": [
        {
          "internalType": "uint256",
          "name": "",
          "type": "uint256"
        }
      ],
      "stateMutability": "view",
      "type": "function"
    },
    {
      "inputs": [
        {
          "internalType": "uint256",
          "name": "_prevID",
          "type": "uint256"
        },
        {
          "internalType": "uint256",
          "name": "_nextID",
          "type": "uint256"
        },
        {
          "internalType": "address",
          "name": "_voter",
          "type": "address"
        },
        {
          "internalType": "uint256",
          "name": "_numTokens",
          "type": "uint256"
        }
      ],
      "name": "validPosition",
      "outputs": [
        {
          "internalType": "bool",
          "name": "APPROVED",
          "type": "bool"
        }
      ],
      "stateMutability": "view",
      "type": "function"
    },
    {
      "inputs": [
        {
          "internalType": "uint256",
          "name": "_numTokens",
          "type": "uint256"
        }
      ],
      "name": "withdrawVotingRights",
      "outputs": [],
      "stateMutability": "nonpayable",
      "type": "function"
    }
  ],
  "bytecode": "0x6080604052670de0b6b3a764000060058181556006829055600791909155603c600855600955600060108190556011819055601a80546001600160a01b0319167314f52f3fc010ab6ca81568d4a6794d5eab3c61551790556001601b819055601c819055601d55601f553480156200007657600080fd5b506040516200814938038062008149833981016040819052620000999162000148565b620000ad620000a7620000f4565b620000f8565b602080546001600160a01b0319166001600160a01b0392909216919091179055600060115568015af1d78b58c400006001908155600255605a600355602d60045562000178565b3390565b600080546001600160a01b038381166001600160a01b0319831681178455604051919092169283917f8be0079c531659141344cd1fd0a4f28419497f9722a3daafe3b4186f6b6457e09190a35050565b6000602082840312156200015a578081fd5b81516001600160a01b038116811462000171578182fd5b9392505050565b617fc180620001886000396000f3fe608060405234801561001057600080fd5b506004361061063e5760003560e01c80638df0296e11610336578063d420ec0b116101c3578063e798a7da1161010f578063f3438946116100ad578063f721de4a11610087578063f721de4a14610ce9578063f80a23fd14610cfc578063fc0c546a14610d04578063fca4956314610d0c5761063e565b8063f343894614610cc6578063f5ae7c7d14610cd9578063f716596d14610ce15761063e565b8063ed8becfa116100e9578063ed8becfa14610c90578063ef4fcdad14610ca3578063f2d9e74d14610cab578063f2fde38b14610cb35761063e565b8063e798a7da14610c57578063e7b1d43c14610c6a578063e8e9b6f914610c7d5761063e565b8063d9845fb81161017c578063df05368e11610156578063df05368e14610c16578063e44c974b14610c29578063e604c12714610c3c578063e7805f9e14610c4f5761063e565b8063d9845fb814610bd0578063d9966ae814610bf0578063dd61868214610c035761063e565b8063d420ec0b14610b69578063d6b0206c14610b7c578063d822ce0114610b84578063d8b7567414610b97578063d901402b14610baa578063d9548e5314610bbd5761063e565b8063ab43e78d11610282578063c47c4bc21161023b578063c9b03a7211610215578063c9b03a7214610b33578063cb1c2b5c14610b3b578063d138209214610b43578063d37a4db214610b565761063e565b8063c47c4bc214610afa578063c4e4f82a14610b0d578063c7c063fb14610b205761063e565b8063ab43e78d14610aa6578063b1a2e0be14610aae578063b1cf4a7e14610704578063b1d7ea9814610ac1578063b43bd06914610ad4578063b8f011b314610ae75761063e565b8063a25236fe116102ef578063a7f830f4116102c9578063a7f830f414610a65578063a905779014610a78578063aa7ca46414610a8b578063aacc5a1714610a9e5761063e565b8063a25236fe14610a37578063a4439dc514610a4a578063a511dba014610a5d5761063e565b80638df0296e146109d057806397603560146109e35780639acb75c1146109f65780639b7e0180146109fe5780639fc9c52f14610a11578063a1103f3714610a245761063e565b80634d884281116104cf5780637827e5491161041b578063819b0293116103b95780638473850b116103935780638473850b146109905780638c89d027146109985780638d289f8f146109c05780638da5cb5b146109c85761063e565b8063819b029314610962578063821aa8c01461097557806383cc6ef2146109885761063e565b80637d050526116103f55780637d050526146109085780637f9510a21461091b5780637f97e836146109235780637fabe35b146109365761063e565b80637827e549146108f0578063796b89b9146108f85780637a34da67146109005761063e565b80635a45294311610488578063667bf0f811610462578063667bf0f8146108ba5780636b2d95d4146108c2578063715018a6146108d557806371880b1b146108dd5761063e565b80635a4529431461088a5780635fd87909146108aa57806362b7e941146108b25761063e565b80634d884281146108215780635106a55f14610834578063515535e81461084757806351912f291461084f578063579db71c1461085757806358002158146108775761063e565b80632c0520311161058e578063354dae4011610547578063427fa1d211610521578063427fa1d2146107e0578063441c77c0146107f357806347fe2d2014610806578063494031831461080e5761063e565b8063354dae40146107c857806339e7357c146107d05780633ad2131f146107d85761063e565b80632c052031146107545780632d917c68146107675780632f469fd11461077a578063313066ee1461079a57806332ac1ba2146107a25780633538af82146107b55761063e565b80630e6661a7116105fb5780631b855044116105d55780631b85504414610704578063226ed30014610717578063275c25901461073757806329a47bc71461073f5761063e565b80630e6661a7146106d45780630e670feb146106dc57806319d90346146106e45761063e565b8063035fbb551461064357806304dbcda714610658578063050eb2eb14610676578063053e71a6146106895780630b16d9451461069c5780630b96c5b0146106af575b600080fd5b6106566106513660046169e8565b610d1f565b005b610660610ff7565b60405161066d9190616ba3565b60405180910390f35b61065661068436600461664d565b610ffd565b6106606106973660046168ea565b61105e565b6106606106aa3660046166c2565b6110c4565b6106c26106bd3660046168ea565b6113fe565b60405161066d96959493929190616c92565b6106606115db565b6106606115e1565b6106f76106f23660046168ea565b6115e7565b60405161066d9190616c4e565b61066061071236600461698b565b6119fc565b61072a6107253660046168ea565b611a30565b60405161066d9190616c74565b610656611a72565b610747611b5b565b60405161066d9190616bd6565b610660610762366004616690565b611b6a565b61072a610775366004616667565b611d07565b61078d610788366004616913565b611d27565b60405161066d9190616c7f565b610660611dcc565b6106606107b03660046168ea565b611dd2565b6107476107c33660046168ea565b611df6565b610656611e20565b610660611f60565b610660611f7d565b6106606107ee36600461664d565b611f83565b61072a6108013660046168ea565b612023565b61066061207d565b61072a61081c3660046168ea565b612083565b61065661082f36600461664d565b612374565b6106566108423660046167a3565b6123d5565b6106606124d7565b6107476124dd565b61086a61086536600461664d565b6124ec565b60405161066d9190616c61565b6106566108853660046168ea565b612558565b61089d6108983660046168ea565b61259c565b60405161066d9190617c13565b610660612919565b61066061291f565b610656612925565b6106606108d036600461664d565b612d0c565b610656612d1b565b6106606108eb3660046168ea565b612d66565b610660612da3565b610660612da9565b610747612dad565b61065661091636600461664d565b612dbc565b610660612e1d565b61072a610931366004616667565b612e34565b6109496109443660046168ea565b612e87565b60405161066d9d9c9b9a99989796959493929190617d2e565b61072a6109703660046169ac565b612f80565b6107476109833660046168ea565b612fbe565b610747612fce565b610660612fdd565b6109ab6109a636600461664d565b612fe3565b60405161066d99989796959493929190616bea565b6107476130cb565b6107476130da565b6107476109de36600461698b565b6130e9565b6106566109f13660046168ea565b613121565b6106606132d0565b610660610a0c366004616667565b6132d6565b610656610a1f366004616838565b613307565b610660610a32366004616667565b613359565b610656610a453660046168ea565b61336e565b61072a610a583660046168ea565b61346f565b6106606134b1565b610656610a7336600461693e565b6134b7565b61072a610a8636600461688a565b613933565b61072a610a99366004616667565b613999565b6106606139ec565b610747613aa1565b61072a610abc36600461664d565b613ab0565b61086a610acf36600461698b565b613bfe565b610660610ae2366004616690565b613e05565b61086a610af536600461698b565b613ef1565b610656610b0836600461664d565b614059565b610660610b1b3660046168ea565b6140ba565b610660610b2e36600461664d565b6140f7565b610660614109565b61066061410f565b610660610b51366004616667565b614115565b610656610b643660046167a3565b6141aa565b61072a610b77366004616667565b614282565b6106606142a2565b610747610b92366004616667565b6142a8565b610660610ba5366004616913565b6142c4565b610660610bb8366004616667565b6142e1565b61072a610bcb3660046168ea565b614326565b610be3610bde3660046168ea565b61432b565b60405161066d9190617a44565b610656610bfe3660046168ea565b614600565b610656610c1136600461664d565b614644565b610656610c2436600461664d565b6146a5565b61086a610c373660046168ea565b614706565b61078d610c4a3660046168ea565b61477f565b61066061482a565b61072a610c6536600461664d565b614830565b610656610c783660046168ea565b614851565b610656610c8b3660046168ea565b61498d565b6106f7610c9e3660046168ea565b6149d1565b610660614dda565b610660614de0565b610656610cc136600461664d565b614de6565b610660610cd436600461664d565b614e57565b610660614ef8565b610656614efe565b61072a610cf73660046168ea565b6150c3565b61072a6150cb565b6107476150e4565b610660610d1a36600461664d565b6150f3565b610d27615219565b610d3083612023565b610d555760405162461bcd60e51b8152600401610d4c90617626565b60405180910390fd5b336000908152600a6020908152604080832086845290915290205460ff16610d8f5760405162461bcd60e51b8152600401610d4c9061719c565b610d9933846142e1565b610da383836119fc565b14610dc05760405162461bcd60e51b8152600401610d4c90616f12565b6000610dcc3385614115565b90508260011415610e03576000848152601e602052604081206007018054839290610df8908490617e4d565b90915550610e2a9050565b6000848152601e602052604081206008018054839290610e24908490617e4d565b90915550505b336000908152600e60205260409081902090516301039dfd60e11b815273__$85afbab79b2b776d70bef879a32ed56424$__916302073bfa91610e7291908890600401616bc8565b60006040518083038186803b158015610e8a57600080fd5b505af4158015610e9e573d6000803e3d6000fd5b5050336000818152600b602090815260408083208a84528252808320805460ff19166001908117909155600c8352818420948452938252808320899055601282528083208a8452601e90925290912060030154909350610eff9250906153a1565b6000868152601e602052604090206003908101919091558101805460ff19166001179055610f2b612da9565b6005820155610f39336153ad565b601780546001818101835560009283527fc624b66cc0138b8fabc209247f72d758e1cf3343756d543badbf24212bed8c1590910180546001600160a01b03191633179055601f805491929091610f90908490617e4d565b90915550506000858152601e602052604090819020600781015460089091015491513392879289927f0867b5027231dcbf37614eaad07d667b9febaf9fdf483f488229b1f140bb074892610fe8928992909190617d18565b60405180910390a45050505050565b60055481565b611005615505565b6001600160a01b03166110166130da565b6001600160a01b03161461103c5760405162461bcd60e51b8152600401610d4c906174f5565b602380546001600160a01b0319166001600160a01b0392909216919091179055565b600061106982611a30565b6110855760405162461bcd60e51b8152600401610d4c906171eb565b61108e82612083565b156110ab57506000818152601e60205260409020600701546110bf565b506000818152601e60205260409020600801545b919050565b60006110ce615219565b60005b88518110156113d45760008982815181106110fc57634e487b7160e01b600052603260045260246000fd5b60200260200101519050600088888481811061112857634e487b7160e01b600052603260045260246000fd5b905060200281019061113a9190617db1565b8080601f0160208091040260200160405190810160405280939291908181526020018383808284376000920182905250338082526014602090815260408084206011548154600181018355918652838620909101558051610100810182528a815291820192909252429181019190915260608101869052608081018d905260a081018c905260c081018b905294955060e08501935091506111d89050565b9052601154600090815260136020908152604090912082518051919261120392849290910190616237565b506020828101516001830180546001600160a01b0319166001600160a01b03909216919091179055604083015160028301556060830151805161124c9260038501920190616237565b50608082015180516112689160048401916020909101906162bb565b5060a08201518051611284916005840191602090910190616314565b5060c082015180516112a0916006840191602090910190616237565b5060e082015160078201805460ff191660018360038111156112d257634e487b7160e01b600052602160045260246000fd5b021790555050601b546000908152601e6020526040902060028101549091506005111561132057600181600201600082825461130e9190617e4d565b9091555050601154600182015561136c565b60048101805461ff001960ff1990911660011716905561133e611e20565b6001601b60008282546113519190617e4d565b9091555050601154601b546000908152601e60205260409020555b60115461137a906001617e4d565b60118190556040513391907fb7b95e293993cd6c0c54a48cee487ef3dd8f51be568be962db90e7784af70dd1906113b690879087908e90616cf1565b60405180910390a350505080806113cc90617f1a565b9150506110d1565b506001601f60008282546113e89190617e4d565b909155505060115490505b979650505050505050565b60136020526000908152604090208054819061141990617edf565b80601f016020809104026020016040519081016040528092919081815260200182805461144590617edf565b80156114925780601f1061146757610100808354040283529160200191611492565b820191906000526020600020905b81548152906001019060200180831161147557829003601f168201915b505050506001830154600284015460038501805494956001600160a01b0390931694919350906114c190617edf565b80601f01602080910402602001604051908101604052809291908181526020018280546114ed90617edf565b801561153a5780601f1061150f5761010080835404028352916020019161153a565b820191906000526020600020905b81548152906001019060200180831161151d57829003601f168201915b50505050509080600601805461154f90617edf565b80601f016020809104026020016040519081016040528092919081815260200182805461157b90617edf565b80156115c85780601f1061159d576101008083540402835291602001916115c8565b820191906000526020600020905b8154815290600101906020018083116115ab57829003601f168201915b5050506007909301549192505060ff1686565b60115481565b60065481565b60606115f2826150c3565b61160e5760405162461bcd60e51b8152600401610d4c906176b3565b6000828152601e6020908152604080832081516101e0810183528154815260018201549381019390935260028101549183019190915260038101546060830152600481015460ff808216151560808501526101008083048216151560a08601526201000090920416151560c0840152600582015460e084015260068201549083015260078101546101208301526008810154610140830152600981018054610160840191906116bc90617edf565b80601f01602080910402602001604051908101604052809291908181526020018280546116e890617edf565b80156117355780601f1061170a57610100808354040283529160200191611735565b820191906000526020600020905b81548152906001019060200180831161171857829003601f168201915b5050509183525050600a82015460209091019060ff16600381111561176a57634e487b7160e01b600052602160045260246000fd5b600381111561178957634e487b7160e01b600052602160045260246000fd5b8152602001600b8201805480602002602001604051908101604052809291908181526020016000905b8282101561185e5783829060005260206000200180546117d190617edf565b80601f01602080910402602001604051908101604052809291908181526020018280546117fd90617edf565b801561184a5780601f1061181f5761010080835404028352916020019161184a565b820191906000526020600020905b81548152906001019060200180831161182d57829003601f168201915b5050505050815260200190600101906117b2565b505050508152602001600c82018054806020026020016040519081016040528092919081815260200182805480156118b557602002820191906000526020600020905b8154815260200190600101908083116118a1575b505050919092525050506040818101518151600580825260c0820190935292935091600091816020015b60608152602001906001900390816118df57905050905060005b828110156119f3578351600090611911908390617e4d565b60008181526013602052604081206003018054929350909161193290617edf565b80601f016020809104026020016040519081016040528092919081815260200182805461195e90617edf565b80156119ab5780601f10611980576101008083540402835291602001916119ab565b820191906000526020600020905b81548152906001019060200180831161198e57829003601f168201915b50505050509050808484815181106119d357634e487b7160e01b600052603260045260246000fd5b6020026020010181905250505080806119eb90617f1a565b9150506118f9565b50949350505050565b60008282604051602001611a11929190616bc8565b6040516020818303038152906040528051906020012090505b92915050565b6000611a3b826150c3565b611a575760405162461bcd60e51b8152600401610d4c90617a1b565b6000828152601e6020526040902060060154611a2a90614326565b611a7a615219565b336000908152601260205260409020600781015460ff161515600114611ab25760405162461bcd60e51b8152600401610d4c906170f4565b6000611abc612da9565b9050611ac733615509565b611ad0336153ad565b8154336001600160a01b031991821681178455600180850180549093169091179091556005830182905560078301805460ff19169055601f8054600090611b18908490617e4d565b909155505060405133907f9dadcedba048e92b943ea1c5861cee1df63a566d7f795869c004780c1c698e2b90611b4f908490616ba3565b60405180910390a25050565b6022546001600160a01b031681565b600080611b7685611f83565b90506000611b848683614115565b90505b8115611cfc57611b978683614115565b9050848111611c545783821415611c4c576001600160a01b0386166000908152600e60205260409081902090516301c39b2b60e11b815273__$85afbab79b2b776d70bef879a32ed56424$__91630387365691611bf991908690600401616bc8565b60206040518083038186803b158015611c1157600080fd5b505af4158015611c25573d6000803e3d6000fd5b505050506040513d601f19601f82011682018060405250810190611c499190616902565b91505b509050611d00565b6001600160a01b0386166000908152600e60205260409081902090516301c39b2b60e11b815273__$85afbab79b2b776d70bef879a32ed56424$__91630387365691611ca591908690600401616bc8565b60206040518083038186803b158015611cbd57600080fd5b505af4158015611cd1573d6000803e3d6000fd5b505050506040513d601f19601f82011682018060405250810190611cf59190616902565b9150611b87565b5090505b9392505050565b600a60209081526000928352604080842090915290825290205460ff1681565b600d60209081526000928352604080842090915290825290208054611d4b90617edf565b80601f0160208091040260200160405190810160405280929190818152602001828054611d7790617edf565b8015611dc45780601f10611d9957610100808354040283529160200191611dc4565b820191906000526020600020905b815481529060010190602001808311611da757829003601f168201915b505050505081565b60105481565b6000818152601e6020526040812060088101546007909101548291611d0091617e4d565b60178181548110611e0657600080fd5b6000918252602090912001546001600160a01b0316905081565b601d546000908152601e602052604090206004015460ff1680611e44575060175415155b611e605760405162461bcd60e51b8152600401610d4c906172de565b601d546000908152601e602052604081206004015462010000900460ff161515600114801590611e91575060175415155b15611ea257611e9e612925565b5060015b601c546000908152601e602052604090206004015462010000900460ff1615156001148015611ef45750611ed7601c54611a30565b80611ef45750601c546000908152601e6020526040902060030154155b15611f1957611f04601c54615639565b601c54611f12906001615fcb565b601c555060015b8015611f3157601054611f2d906001615fcb565b6010555b6010546040517f94d48a7342690f1233e3f4db70efa37c4f1f25f4d0397c353f3f15aecdeca5f490600090a250565b60405160009080602081848060185afa611f7657fe5b5051919050565b60085481565b6001600160a01b0381166000908152600e602052604080822090516301c39b2b60e11b815273__$85afbab79b2b776d70bef879a32ed56424$__91630387365691611fd391908590600401616bc8565b60206040518083038186803b158015611feb57600080fd5b505af4158015611fff573d6000803e3d6000fd5b505050506040513d601f19601f82011682018060405250810190611a2a9190616902565b600061202e826150c3565b61204a5760405162461bcd60e51b8152600401610d4c906176b3565b6000828152601e602052604090206006015461206590614326565b158015611a2a57506120768261346f565b1592915050565b601c5490565b6000818152601e6020908152604080832081516101e0810183528154815260018201549381019390935260028101549183019190915260038101546060830152600481015460ff808216151560808501526101008083048216151560a08601526201000090920416151560c0840152600582015460e0840152600682015490830152600781015461012083015260088101546101408301526009810180548493929161016084019161213490617edf565b80601f016020809104026020016040519081016040528092919081815260200182805461216090617edf565b80156121ad5780601f10612182576101008083540402835291602001916121ad565b820191906000526020600020905b81548152906001019060200180831161219057829003601f168201915b5050509183525050600a82015460209091019060ff1660038111156121e257634e487b7160e01b600052602160045260246000fd5b600381111561220157634e487b7160e01b600052602160045260246000fd5b8152602001600b8201805480602002602001604051908101604052809291908181526020016000905b828210156122d657838290600052602060002001805461224990617edf565b80601f016020809104026020016040519081016040528092919081815260200182805461227590617edf565b80156122c25780601f10612297576101008083540402835291602001916122c2565b820191906000526020600020905b8154815290600101906020018083116122a557829003601f168201915b50505050508152602001906001019061222a565b505050508152602001600c820180548060200260200160405190810160405280929190818152602001828054801561232d57602002820191906000526020600020905b815481526020019060010190808311612319575b505050505081525050905080610140015181610120015161234e9190617e4d565b60085461235b9190617e79565b61012082015161236c906064617e79565b119392505050565b61237c615505565b6001600160a01b031661238d6130da565b6001600160a01b0316146123b35760405162461bcd60e51b8152600401610d4c906174f5565b601a80546001600160a01b0319166001600160a01b0392909216919091179055565b8483146123f45760405162461bcd60e51b8152600401610d4c90617819565b60005b858110156124ce576124bc87878381811061242257634e487b7160e01b600052603260045260246000fd5b9050602002013586868481811061244957634e487b7160e01b600052603260045260246000fd5b9050602002013585858581811061247057634e487b7160e01b600052603260045260246000fd5b90506020028101906124829190617db1565b8080601f0160208091040260200160405190810160405280939291908181526020018383808284376000920191909152506134b792505050565b806124c681617f1a565b9150506123f7565b50505050505050565b601b5490565b6023546001600160a01b031681565b6001600160a01b03811660009081526014602090815260409182902080548351818402810184019094528084526060939283018282801561254c57602002820191906000526020600020905b815481526020019060010190808311612538575b50505050509050919050565b612560615505565b6001600160a01b03166125716130da565b6001600160a01b0316146125975760405162461bcd60e51b8152600401610d4c906174f5565b600455565b6125a461634e565b60008281526013602052604090819020815161010081019092528054829082906125cd90617edf565b80601f01602080910402602001604051908101604052809291908181526020018280546125f990617edf565b80156126465780601f1061261b57610100808354040283529160200191612646565b820191906000526020600020905b81548152906001019060200180831161262957829003601f168201915b505050918352505060018201546001600160a01b031660208201526002820154604082015260038201805460609092019161268090617edf565b80601f01602080910402602001604051908101604052809291908181526020018280546126ac90617edf565b80156126f95780601f106126ce576101008083540402835291602001916126f9565b820191906000526020600020905b8154815290600101906020018083116126dc57829003601f168201915b5050505050815260200160048201805480602002602001604051908101604052809291908181526020016000905b828210156127d357838290600052602060002001805461274690617edf565b80601f016020809104026020016040519081016040528092919081815260200182805461277290617edf565b80156127bf5780601f10612794576101008083540402835291602001916127bf565b820191906000526020600020905b8154815290600101906020018083116127a257829003601f168201915b505050505081526020019060010190612727565b5050505081526020016005820180548060200260200160405190810160405280929190818152602001828054801561282a57602002820191906000526020600020905b815481526020019060010190808311612816575b5050505050815260200160068201805461284390617edf565b80601f016020809104026020016040519081016040528092919081815260200182805461286f90617edf565b80156128bc5780601f10612891576101008083540402835291602001916128bc565b820191906000526020600020905b81548152906001019060200180831161289f57829003601f168201915b5050509183525050600782015460209091019060ff1660038111156128f157634e487b7160e01b600052602160045260246000fd5b600381111561291057634e487b7160e01b600052602160045260246000fd5b90525092915050565b60045481565b60025481565b601d546000908152601e602052604090206004015460ff166129595760405162461bcd60e51b8152600401610d4c906175d0565b601d546000908152601e602052604090206004015462010000900460ff16156129945760405162461bcd60e51b8152600401610d4c9061742a565b60006129b16129aa601780549050600954615fd7565b6001615fed565b601754601d546000908152601e6020526040812060039081018490555492935090916129de904290615fcb565b905060006129f760045483615fcb90919063ffffffff16565b601d80546000908152601e6020526040808220600501869055825482528082206006018490559154815220600401805462ff0000191662010000179055905060018410801590612a48575060018310155b612a645760405162461bcd60e51b8152600401610d4c90617024565b6000612a708585613ef1565b9050600081516001600160401b03811115612a9b57634e487b7160e01b600052604160045260246000fd5b604051908082528060200260200182016040528015612ac4578160200160208202803683370190505b50905060005b8251811015612b83576017838281518110612af557634e487b7160e01b600052603260045260246000fd5b602002602001015181548110612b1b57634e487b7160e01b600052603260045260246000fd5b9060005260206000200160009054906101000a90046001600160a01b0316828281518110612b5957634e487b7160e01b600052603260045260246000fd5b6001600160a01b039092166020928302919091019091015280612b7b81617f1a565b915050612aca565b5060005b8251811015612cd7576000828281518110612bb257634e487b7160e01b600052603260045260246000fd5b6020908102919091018101516001600160a01b03811660008181526012845260408082206018805460018181019092557fb13d2d76d1f4b7be834882e410b3e3a8afaf69f83600ae24db354391d2378d2e0180546001600160a01b03199081168717909155601d548552601988529284208054918201815584529590922090940180549094169091179092558451909250612c7490859085908110612c6757634e487b7160e01b600052603260045260246000fd5b6020026020010151615509565b601d8054600283015560038201805460ff19169055546040517fe4ee2dfabe57cee15e3f558890b20455f54c1fa0718e5276faad70a6500e6b8c90612cba908590616bd6565b60405180910390a250508080612ccf90617f1a565b915050612b87565b50601d54612ce6906001615fcb565b601d819055506001601f6000828254612cff9190617e4d565b9091555050505050505050565b6000611a2a82610b5184611f83565b612d23615505565b6001600160a01b0316612d346130da565b6001600160a01b031614612d5a5760405162461bcd60e51b8152600401610d4c906174f5565b612d646000615ffd565b565b6000612d71826150c3565b612d8d5760405162461bcd60e51b8152600401610d4c906176b3565b506000908152601e602052604090206006015490565b60075481565b4290565b6024546001600160a01b031681565b612dc4615505565b6001600160a01b0316612dd56130da565b6001600160a01b031614612dfb5760405162461bcd60e51b8152600401610d4c906174f5565b602580546001600160a01b0319166001600160a01b0392909216919091179055565b601854601754600091612e2f91617e4d565b905090565b6000612e3f826150c3565b612e5b5760405162461bcd60e51b8152600401610d4c906176b3565b506001600160a01b03919091166000908152600a60209081526040808320938352929052205460ff1690565b601e60205260009081526040902080546001820154600283015460038401546004850154600586015460068701546007880154600889015460098a018054999a98999798969760ff80881698610100890482169862010000900490911696959493929091612ef490617edf565b80601f0160208091040260200160405190810160405280929190818152602001828054612f2090617edf565b8015612f6d5780601f10612f4257610100808354040283529160200191612f6d565b820191906000526020600020905b815481529060010190602001808311612f5057829003601f168201915b505050600a909301549192505060ff168d565b600080612f8d8487614115565b83101590506000612f9e8587614115565b84111580612faa575085155b90508180156113f357509695505050505050565b60188181548110611e0657600080fd5b6021546001600160a01b031681565b601b5481565b60126020526000908152604090208054600182015460028301546003840154600485015460058601546006870180546001600160a01b03978816989690971696949560ff909416949293919261303890617edf565b80601f016020809104026020016040519081016040528092919081815260200182805461306490617edf565b80156130b15780601f10613086576101008083540402835291602001916130b1565b820191906000526020600020905b81548152906001019060200180831161309457829003601f168201915b505050506007830154600890930154919260ff1691905089565b6025546001600160a01b031681565b6000546001600160a01b031690565b6019602052816000526040600020818154811061310557600080fd5b6000918252602090912001546001600160a01b03169150829050565b60016000828152601e60205260409020600a015460ff16600381111561315757634e487b7160e01b600052602160045260246000fd5b146131745760405162461bcd60e51b8152600401610d4c90616e15565b336000908152600e60205260409081902090516306120d1f60e31b815273__$85afbab79b2b776d70bef879a32ed56424$__9163309068f8916131bc91908590600401616bc8565b60206040518083038186803b1580156131d457600080fd5b505af41580156131e8573d6000803e3d6000fd5b505050506040513d601f19601f8201168201806040525081019061320c919061686a565b6132285760405162461bcd60e51b8152600401610d4c90617354565b336000908152600e60205260409081902090516301039dfd60e11b815273__$85afbab79b2b776d70bef879a32ed56424$__916302073bfa9161327091908590600401616bc8565b60006040518083038186803b15801561328857600080fd5b505af415801561329c573d6000803e3d6000fd5b50506040513392508391507f402507661c8c8cb90e0a796450b8bdd28b6c516f05279c0cd29e84c344e1699a90600090a350565b60105490565b601460205281600052604060002081815481106132f257600080fd5b90600052602060002001600091509150505481565b60005b81518110156133555761334382828151811061333657634e487b7160e01b600052603260045260246000fd5b6020026020010151613121565b8061334d81617f1a565b91505061330a565b5050565b60008282604051602001611a11929190616b81565b6021546040516304ada21f60e21b81526001600160a01b03909116906312b6887c906133a09084903390600401617ce3565b602060405180830381600087803b1580156133ba57600080fd5b505af11580156133ce573d6000803e3d6000fd5b505050506040513d601f19601f820116820180604052508101906133f2919061686a565b61340e5760405162461bcd60e51b8152600401610d4c9061713f565b336000908152601560205260408120805483929061342d908490617e4d565b909155505060405133907ff7aaf024511d9982df8cd0d437c71c30106e6848cd1ba3d288d7a9c0e276aeda90613464908490616ba3565b60405180910390a250565b600061347a826150c3565b6134965760405162461bcd60e51b8152600401610d4c906176b3565b6000828152601e602052604090206005015461207690614326565b60115490565b6134bf615219565b6134c88361346f565b6134e45760405162461bcd60e51b8152600401610d4c9061706e565b826134ee336150f3565b1461350b5760405162461bcd60e51b8152600401610d4c90617487565b6001543360009081526015602052604090205481111561354d57336000908152601560205260408120546135409083906153a1565b905061354b8161336e565b505b3360009081526015602052604090205481111561357c5760405162461bcd60e51b8152600401610d4c906178ca565b6000336000908152600e60205260408082209051631e0f232560e31b815273__$85afbab79b2b776d70bef879a32ed56424$__9163f0791928916135c591908690600401616bc8565b60206040518083038186803b1580156135dd57600080fd5b505af41580156135f1573d6000803e3d6000fd5b505050506040513d601f19601f820116820180604052508101906136159190616902565b9050858114156136ba57336000908152600e6020526040908190209051631e0f232560e31b815273__$85afbab79b2b776d70bef879a32ed56424$__9163f07919289161366791908a90600401616bc8565b60206040518083038186803b15801561367f57600080fd5b505af4158015613693573d6000803e3d6000fd5b505050506040513d601f19601f820116820180604052508101906136b79190616902565b90505b6136c682823386612f80565b6136e25760405162461bcd60e51b8152600401610d4c906173fc565b336000908152600e602052604090819020905163524cfe5360e11b815273__$85afbab79b2b776d70bef879a32ed56424$__9163a499fca69161372e919086908b908790600401617bf8565b60006040518083038186803b15801561374657600080fd5b505af415801561375a573d6000803e3d6000fd5b50505050600061376a3388613359565b60408051808201825260098152686e756d546f6b656e7360b81b6020820152905163099b040f60e31b81529192509073__$0947e710b66d7779e1d561254425e1375a$__90634cd82078906137ca90600f90869086908b90600401617b4d565b60006040518083038186803b1580156137e257600080fd5b505af41580156137f6573d6000803e3d6000fd5b505060405163099b040f60e31b815273__$0947e710b66d7779e1d561254425e1375a$__9250634cd82078915061383690600f9086908c90600401617b9b565b60006040518083038186803b15801561384e57600080fd5b505af4158015613862573d6000803e3d6000fd5b5050506000898152600d602090815260408083203384528252909120885161388f93509091890190616237565b503360009081526012602052604090206138a7612da9565b6005820155336000908152600a602090815260408083208c84529091528120805460ff19166001908117909155601f8054919290916138e7908490617e4d565b909155505060405133908a907f42864d9683ff5b12c3b2cc65d705af5aab104b03bc700b802f79e5c971ef08a190613920908a90616ba3565b60405180910390a3505050505050505050565b6000816040516020016139469190616bac565b604051602081830303815290604052805190602001208360405160200161396d9190616bac565b60405160208183030381529060405280519060200120141561399157506001611a2a565b506000611a2a565b60006139a4826150c3565b6139c05760405162461bcd60e51b8152600401610d4c906176b3565b506001600160a01b03919091166000908152600b60209081526040808320938352929052205460ff1690565b6000804241604051602001613a019190616b64565b6040516020818303038152906040528051906020012060001c613a249190617e65565b44613a2d611f60565b604051602001613a3d9190616ba3565b60408051601f198184030181529190528051602090910120613a5f9042617e4d565b613a699190617e4d565b613a739190617e4d565b604051602001613a839190616ba3565b60408051601f19818403018152919052805160209091012091505090565b601a546001600160a01b031681565b6001600160a01b038082166000908152601260209081526040808320815161012081018352815486168152600182015490951692850192909252600282015490840152600381015460ff161515606084015260048101546080840152600581015460a0840152600681018054929384938493919260c0840191613b3290617edf565b80601f0160208091040260200160405190810160405280929190818152602001828054613b5e90617edf565b8015613bab5780601f10613b8057610100808354040283529160200191613bab565b820191906000526020600020905b815481529060010190602001808311613b8e57829003601f168201915b5050509183525050600782015460ff16151560208201526008909101546040909101526060810151909150158015613bed5750613beb8160400151611a30565b155b15613bf757600191505b5092915050565b606060008211613c0d57600080fd5b600041604051602001613c209190616b64565b6040516020818303038152906040528051906020012060001c613c41611f60565b604051602001613c519190616ba3565b60408051601f198184030181529190528051602090910120613c739042617e4d565b613c7d9190617e4d565b604051602001613c8d9190616ba3565b6040516020818303038152906040528051906020012060001c90506000846001600160401b03811115613cd057634e487b7160e01b600052604160045260246000fd5b604051908082528060200260200182016040528015613cf9578160200160208202803683370190505b5090506000805b86821015613dfa57600086613d1963017efeeb87617e98565b83604051602001613d2b929190616bc8565b6040516020818303038152906040528051906020012060001c613d4e9190617f35565b90506000805b84811015613da65782868281518110613d7d57634e487b7160e01b600052603260045260246000fd5b60200260200101511415613d945760019150613da6565b80613d9e81617f1a565b915050613d54565b5080613de65781858581518110613dcd57634e487b7160e01b600052603260045260246000fd5b6020908102919091010152613de3846001617e4d565b93505b613df1836001617e4d565b92505050613d00565b509095945050505050565b6000613e1083611a30565b613e2c5760405162461bcd60e51b8152600401610d4c90617974565b6001600160a01b0384166000908152600b6020908152604080832086845290915290205460ff16613e6f5760405162461bcd60e51b8152600401610d4c906173b1565b6000613e7a84612083565b613e85576000613e88565b60015b60ff16905060008184604051602001613ea2929190616bc8565b6040516020818303038152906040528051906020012090506000613ec687876142e1565b9050808214613ee75760405162461bcd60e51b8152600401610d4c90617587565b6113f38787614115565b6060600082118015613f035750818311155b8015613f10575060018310155b613f2c5760405162461bcd60e51b8152600401610d4c90616fdb565b6000826001600160401b03811115613f5457634e487b7160e01b600052604160045260246000fd5b604051908082528060200260200182016040528015613f7d578160200160208202803683370190505b5090506000846001600160401b03811115613fa857634e487b7160e01b600052604160045260246000fd5b604051908082528060200260200182016040528015613fd1578160200160208202803683370190505b5090506000613fe7613fe28461604d565b6160a3565b905060005b86811015613dfa5781818151811061401457634e487b7160e01b600052603260045260246000fd5b602002602001015183828151811061403c57634e487b7160e01b600052603260045260246000fd5b60209081029190910101528061405181617f1a565b915050613fec565b614061615505565b6001600160a01b03166140726130da565b6001600160a01b0316146140985760405162461bcd60e51b8152600401610d4c906174f5565b602480546001600160a01b0319166001600160a01b0392909216919091179055565b60006140c5826150c3565b6140e15760405162461bcd60e51b8152600401610d4c906176b3565b506000908152601e602052604090206005015490565b60156020526000908152604090205481565b60095481565b60015481565b600073__$0947e710b66d7779e1d561254425e1375a$__6369810158600f61413d8686613359565b6040518363ffffffff1660e01b815260040161415a929190617bc9565b60206040518083038186803b15801561417257600080fd5b505af4158015614186573d6000803e3d6000fd5b505050506040513d601f19601f82011682018060405250810190611d009190616902565b8483146141c95760405162461bcd60e51b8152600401610d4c90617219565b8481146141e85760405162461bcd60e51b8152600401610d4c90617717565b60005b858110156124ce5761427087878381811061421657634e487b7160e01b600052603260045260246000fd5b9050602002013586868481811061423d57634e487b7160e01b600052603260045260246000fd5b9050602002013585858581811061426457634e487b7160e01b600052603260045260246000fd5b90506020020135610d1f565b8061427a81617f1a565b9150506141eb565b600b60209081526000928352604080842090915290825290205460ff1681565b601d5481565b6016602052816000526040600020818154811061310557600080fd5b600c60209081526000928352604080842090915290825290205481565b600073__$0947e710b66d7779e1d561254425e1375a$__6369810158600f6143098686613359565b6040518363ffffffff1660e01b815260040161415a929190617b7d565b421190565b6143336163ba565b61433c826150c3565b61434557600080fd5b6000828152601e602090815260409182902082516101e0810184528154815260018201549281019290925260028101549282019290925260038201546060820152600482015460ff808216151560808401526101008083048216151560a08501526201000090920416151560c0830152600583015460e083015260068301549082015260078201546101208201526008820154610140820152600982018054919291610160840191906143f790617edf565b80601f016020809104026020016040519081016040528092919081815260200182805461442390617edf565b80156144705780601f1061444557610100808354040283529160200191614470565b820191906000526020600020905b81548152906001019060200180831161445357829003601f168201915b5050509183525050600a82015460209091019060ff1660038111156144a557634e487b7160e01b600052602160045260246000fd5b60038111156144c457634e487b7160e01b600052602160045260246000fd5b8152602001600b8201805480602002602001604051908101604052809291908181526020016000905b8282101561459957838290600052602060002001805461450c90617edf565b80601f016020809104026020016040519081016040528092919081815260200182805461453890617edf565b80156145855780601f1061455a57610100808354040283529160200191614585565b820191906000526020600020905b81548152906001019060200180831161456857829003601f168201915b5050505050815260200190600101906144ed565b505050508152602001600c82018054806020026020016040519081016040528092919081815260200182805480156145f057602002820191906000526020600020905b8154815260200190600101908083116145dc575b5050505050815250509050919050565b614608615505565b6001600160a01b03166146196130da565b6001600160a01b03161461463f5760405162461bcd60e51b8152600401610d4c906174f5565b600955565b61464c615505565b6001600160a01b031661465d6130da565b6001600160a01b0316146146835760405162461bcd60e51b8152600401610d4c906174f5565b602280546001600160a01b0319166001600160a01b0392909216919091179055565b6146ad615505565b6001600160a01b03166146be6130da565b6001600160a01b0316146146e45760405162461bcd60e51b8152600401610d4c906174f5565b602180546001600160a01b0319166001600160a01b0392909216919091179055565b60606000821161471557600080fd5b6000826001600160401b0381111561473d57634e487b7160e01b600052604160045260246000fd5b604051908082528060200260200182016040528015614766578160200160208202803683370190505b5090506000614777613fe28361604d565b949350505050565b606061478a826150c3565b61479357600080fd5b6000828152601e6020526040902060090180546147af90617edf565b80601f01602080910402602001604051908101604052809291908181526020018280546147db90617edf565b801561254c5780601f106147fd5761010080835404028352916020019161254c565b820191906000526020600020905b81548152906001019060200180831161480b5750939695505050505050565b60035481565b6001600160a01b031660009081526012602052604090206007015460ff1690565b600061487561485f33612d0c565b33600090815260156020526040902054906153a1565b9050818110156148975760405162461bcd60e51b8152600401610d4c9061766c565b602154604051630895993360e11b81526001600160a01b039091169063112b3266906148c99085903390600401617ce3565b602060405180830381600087803b1580156148e357600080fd5b505af11580156148f7573d6000803e3d6000fd5b505050506040513d601f19601f8201168201806040525081019061491b919061686a565b6149375760405162461bcd60e51b8152600401610d4c906179be565b3360009081526015602052604081208054849290614956908490617e98565b909155505060405133907ffaeb7dbb9992397d26ea1944efd40c80b40f702faf69b46c67ad10aba68ccb7990611b4f908590616ba3565b614995615505565b6001600160a01b03166149a66130da565b6001600160a01b0316146149cc5760405162461bcd60e51b8152600401610d4c906174f5565b600355565b60606149dc826150c3565b6149f85760405162461bcd60e51b8152600401610d4c906176b3565b6000828152601e6020908152604080832081516101e0810183528154815260018201549381019390935260028101549183019190915260038101546060830152600481015460ff808216151560808501526101008083048216151560a08601526201000090920416151560c0840152600582015460e08401526006820154908301526007810154610120830152600881015461014083015260098101805461016084019190614aa690617edf565b80601f0160208091040260200160405190810160405280929190818152602001828054614ad290617edf565b8015614b1f5780601f10614af457610100808354040283529160200191614b1f565b820191906000526020600020905b815481529060010190602001808311614b0257829003601f168201915b5050509183525050600a82015460209091019060ff166003811115614b5457634e487b7160e01b600052602160045260246000fd5b6003811115614b7357634e487b7160e01b600052602160045260246000fd5b8152602001600b8201805480602002602001604051908101604052809291908181526020016000905b82821015614c48578382906000526020600020018054614bbb90617edf565b80601f0160208091040260200160405190810160405280929190818152602001828054614be790617edf565b8015614c345780601f10614c0957610100808354040283529160200191614c34565b820191906000526020600020905b815481529060010190602001808311614c1757829003601f168201915b505050505081526020019060010190614b9c565b505050508152602001600c8201805480602002602001604051908101604052809291908181526020018280548015614c9f57602002820191906000526020600020905b815481526020019060010190808311614c8b575b505050919092525050506040818101518151600580825260c0820190935292935091600091816020015b6060815260200190600190039081614cc957905050905060005b828110156119f3578351600090614cfb908390617e4d565b600081815260136020526040812080549293509091614d1990617edf565b80601f0160208091040260200160405190810160405280929190818152602001828054614d4590617edf565b8015614d925780601f10614d6757610100808354040283529160200191614d92565b820191906000526020600020905b815481529060010190602001808311614d7557829003601f168201915b5050505050905080848481518110614dba57634e487b7160e01b600052603260045260246000fd5b602002602001018190525050508080614dd290617f1a565b915050614ce3565b601c5481565b601f5481565b614dee615505565b6001600160a01b0316614dff6130da565b6001600160a01b031614614e255760405162461bcd60e51b8152600401610d4c906174f5565b6001600160a01b038116614e4b5760405162461bcd60e51b8152600401610d4c90616f95565b614e5481615ffd565b50565b6001600160a01b038116600090815260146020908152604080832080548251818502810185019093528083528493830182828015614eb457602002820191906000526020600020905b815481526020019060010190808311614ea0575b505050505090508060018251614eca9190617e98565b81518110614ee857634e487b7160e01b600052603260045260246000fd5b6020026020010151915050919050565b601f5490565b614f06615219565b3360009081526012602052604090206018546017546103e891614f2891617e4d565b10614f455760405162461bcd60e51b8152600401610d4c90617888565b600781015460ff1615614f6a5760405162461bcd60e51b8152600401610d4c90616dde565b6000614f74612da9565b6001543360009081526015602052604090205491925090811115614fba5733600090815260156020526040812054614fad9083906153a1565b9050614fb88161336e565b505b33600090815260156020526040902054811115614fe95760405162461bcd60e51b8152600401610d4c90616e66565b60178054600180820183556000929092527fc624b66cc0138b8fabc209247f72d758e1cf3343756d543badbf24212bed8c15018054336001600160a01b031991821681179092558554811682178655918501805490921617905560058301829055600783015460ff1661506c5760078301805460ff191660011790554260088401555b6001601f600082825461507f9190617e4d565b909155505060405133907f439d77b7534ec3108fc6143bd4fbabde0b9f2bb54f7b0730d1f70dd2135b765f906150b6908590616ba3565b60405180910390a2505050565b601b54101590565b3360009081526012602052604090206007015460ff1690565b6020546001600160a01b031681565b6001600160a01b038082166000908152601260209081526040808320815161012081018352815486168152600182015490951692850192909252600282015490840152600381015460ff161515606084015260048101546080840152600581015460a08401526006810180549293849390929160c084019161517490617edf565b80601f01602080910402602001604051908101604052809291908181526020018280546151a090617edf565b80156151ed5780601f106151c2576101008083540402835291602001916151ed565b820191906000526020600020905b8154815290600101906020018083116151d057829003601f168201915b5050509183525050600782015460ff161515602082015260089091015460409182015201519392505050565b601a546001600160a01b03166152415760405162461bcd60e51b8152600401610d4c906176ea565b601a546040516000916001600160a01b031690615262903390602401616bd6565b60408051601f198184030181529181526020820180516001600160e01b0316631f5ac9c560e11b179052516152979190616bac565b6000604051808303816000865af19150503d80600081146152d4576040519150601f19603f3d011682016040523d82523d6000602084013e6152d9565b606091505b5050601a546040519192506000916001600160a01b0390911690615301903390602401616bd6565b60408051601f198184030181529181526020820180516001600160e01b03166358563d2160e01b179052516153369190616bac565b6000604051808303816000865af19150503d8060008114615373576040519150601f19603f3d011682016040523d82523d6000602084013e615378565b606091505b5050905081806153855750805b6133555760405162461bcd60e51b8152600401610d4c90616ecd565b6000611d008284617e98565b60008060005b60185481101561542157836001600160a01b0316601882815481106153e857634e487b7160e01b600052603260045260246000fd5b6000918252602090912001546001600160a01b0316141561540f5760019150809250615421565b8061541981617f1a565b9150506153b3565b508015615500576018805461543890600190617e98565b8154811061545657634e487b7160e01b600052603260045260246000fd5b600091825260209091200154601880546001600160a01b03909216918490811061549057634e487b7160e01b600052603260045260246000fd5b9060005260206000200160006101000a8154816001600160a01b0302191690836001600160a01b0316021790555060188054806154dd57634e487b7160e01b600052603160045260246000fd5b600082815260209020810160001990810180546001600160a01b03191690550190555b505050565b3390565b60008060005b60175481101561557d57836001600160a01b03166017828154811061554457634e487b7160e01b600052603260045260246000fd5b6000918252602090912001546001600160a01b0316141561556b576001915080925061557d565b8061557581617f1a565b91505061550f565b508015615500576017805461559490600190617e98565b815481106155b257634e487b7160e01b600052603260045260246000fd5b600091825260209091200154601780546001600160a01b0390921691849081106155ec57634e487b7160e01b600052603260045260246000fd5b9060005260206000200160006101000a8154816001600160a01b0302191690836001600160a01b0316021790555060178054806154dd57634e487b7160e01b600052603160045260246000fd5b61564281611a30565b8061565c57506000818152601e6020526040902060030154155b6156785760405162461bcd60e51b8152600401610d4c9061752a565b6000818152601e6020526040902060040154610100900460ff16156156af5760405162461bcd60e51b8152600401610d4c906177d8565b6000818152601e6020526040902060040154610100900460ff16614e545760006156d882612083565b60008381526019602090815260408083208054825181850281018501909352808352949550929390929183018282801561573b57602002820191906000526020600020905b81546001600160a01b0316815260019091019060200180831161571d575b50505050509050600081516001600160401b0381111561576b57634e487b7160e01b600052604160045260246000fd5b60405190808252806020026020018201604052801561579e57816020015b60608152602001906001900390816157895790505b50905060005b8251811015615b2a5760008382815181106157cf57634e487b7160e01b600052603260045260246000fd5b6020908102919091018101516000888152600c835260408082206001600160a01b03841680845290855281832054600b86528284208c8552865282842054600d875283852092855291909552908220805493955060ff9091169261583290617edf565b80601f016020809104026020016040519081016040528092919081815260200182805461585e90617edf565b80156158ab5780601f10615880576101008083540402835291602001916158ab565b820191906000526020600020905b81548152906001019060200180831161588e57829003601f168201915b50505050509050808686815181106158d357634e487b7160e01b600052603260045260246000fd5b60200260200101819052506158e7846153ad565b6001600160a01b03841660009081526012602052604090208215615af8576001600160a01b0385166000908152601260205260409020600301805460ff1916600190811790915589151514801561593e5750836001145b80615953575088158015615953575083600114155b15615a9a57602254600754604051630db6cc8560e11b81526001600160a01b0390921691631b6d990a9161598b918990600401617cfa565b602060405180830381600087803b1580156159a557600080fd5b505af11580156159b9573d6000803e3d6000fd5b505050506040513d601f19601f820116820180604052508101906159dd919061686a565b6159f95760405162461bcd60e51b8152600401610d4c90617291565b602354600554604051633832942560e21b81526001600160a01b039092169163e0ca509491615a2c918990600401617ce3565b602060405180830381600087803b158015615a4657600080fd5b505af1158015615a5a573d6000803e3d6000fd5b505050506040513d601f19601f82011682018060405250810190615a7e919061686a565b615a9a5760405162461bcd60e51b8152600401610d4c906170a5565b600781015460ff1615615af357601780546001810182556000919091527fc624b66cc0138b8fabc209247f72d758e1cf3343756d543badbf24212bed8c150180546001600160a01b0319166001600160a01b0387161790555b615b12565b600781015460ff1615615b125760078101805460ff191690555b50505050508080615b2290617f1a565b9150506157a4565b506000615b4a606484516032615b409190617e79565b6129aa9190617e65565b9050600082600081518110615b6f57634e487b7160e01b600052603260045260246000fd5b6020026020010151905060005b8351811015615c65576000805b8551811015615c1a57615bea868481518110615bb557634e487b7160e01b600052603260045260246000fd5b6020026020010151878381518110615bdd57634e487b7160e01b600052603260045260246000fd5b6020026020010151613933565b15615c0857615bfa600183617e4d565b9150848210615c0857615c1a565b80615c1281617f1a565b915050615b89565b50838110615c5257848281518110615c4257634e487b7160e01b600052603260045260246000fd5b6020026020010151925050615c65565b5080615c5d81617f1a565b915050615b7c565b506000868152601e6020908152604090912060048101805461ff0019166101001790558251615c9c92600990920191840190616237565b508415615f385760225460075460008881526013602052604090819020600101549051630db6cc8560e11b81526001600160a01b0393841693631b6d990a93615cec939092911690600401617cfa565b602060405180830381600087803b158015615d0657600080fd5b505af1158015615d1a573d6000803e3d6000fd5b505050506040513d601f19601f82011682018060405250810190615d3e919061686a565b615d5a5760405162461bcd60e51b8152600401610d4c90617927565b60235460055460008881526013602052604090819020600101549051633832942560e21b81526001600160a01b039384169363e0ca509493615da3939092911690600401617ce3565b602060405180830381600087803b158015615dbd57600080fd5b505af1158015615dd1573d6000803e3d6000fd5b505050506040513d601f19601f82011682018060405250810190615df5919061686a565b615e115760405162461bcd60e51b8152600401610d4c90617789565b6000868152601e602052604090819020600a01805460ff1916600117905560255490516348257dc960e01b81526001600160a01b03909116906348257dc990615e5e908990600401616ba3565b602060405180830381600087803b158015615e7857600080fd5b505af1925050508015615ea8575060408051601f3d908101601f19168201909252615ea59181019061686a565b60015b615f19573d808015615ed6576040519150601f19603f3d011682016040523d82523d6000602084013e615edb565b606091505b507f4b87bbd93ba65ede1e2efeca735d9f7a6720bf7d6db0a8355b17dba5b64e578381604051615f0b9190616c7f565b60405180910390a150615f33565b6001601f6000828254615f2c9190617e4d565b9091555050505b615f55565b6000868152601e60205260409020600a01805460ff191660021790555b6001601f6000828254615f689190617e4d565b909155505060008681526013602052604090819020600181015491516001600160a01b03909216917f43916c3ae75995d24cc89b466ed08e6dba74d325f7957f9b37b05f150e12918e91615fbb91616d34565b60405180910390a2505050505050565b6000611d008284617e4d565b6000818310615fe65781611d00565b5090919050565b600081831015615fe65781611d00565b600080546001600160a01b038381166001600160a01b0319831681178455604051919092169283917f8be0079c531659141344cd1fd0a4f28419497f9722a3daafe3b4186f6b6457e09190a35050565b805160609060005b8181101561609b578084828151811061607e57634e487b7160e01b600052603260045260246000fd5b60209081029190910101528061609381617f1a565b915050616055565b509192915050565b606060008251116160b357600080fd5b81518060005b8181101561622e576000836160cc6139ec565b8784815181106160ec57634e487b7160e01b600052603260045260246000fd5b6020026020010151604051602001616105929190616bc8565b6040516020818303038152906040528051906020012060001c6161289190617f35565b616133906001617e4d565b9050600086616143600184617e98565b8151811061616157634e487b7160e01b600052603260045260246000fd5b60200260200101519050866001866161799190617e98565b8151811061619757634e487b7160e01b600052603260045260246000fd5b6020026020010151876001846161ad9190617e98565b815181106161cb57634e487b7160e01b600052603260045260246000fd5b602090810291909101015280876161e3600188617e98565b8151811061620157634e487b7160e01b600052603260045260246000fd5b6020908102919091010152616217600186617e98565b94505050808061622690617f1a565b9150506160b9565b50929392505050565b82805461624390617edf565b90600052602060002090601f01602090048101928261626557600085556162ab565b82601f1061627e57805160ff19168380011785556162ab565b828001600101855582156162ab579182015b828111156162ab578251825591602001919060010190616290565b506162b7929150616455565b5090565b828054828255906000526020600020908101928215616308579160200282015b8281111561630857825180516162f8918491602090910190616237565b50916020019190600101906162db565b506162b792915061646a565b8280548282559060005260206000209081019282156162ab57916020028201828111156162ab578251825591602001919060010190616290565b6040518061010001604052806060815260200160006001600160a01b031681526020016000815260200160608152602001606081526020016060815260200160608152602001600060038111156163b557634e487b7160e01b600052602160045260246000fd5b905290565b604051806101e001604052806000815260200160008152602001600081526020016000815260200160001515815260200160001515815260200160001515815260200160008152602001600081526020016000815260200160008152602001606081526020016000600381111561644157634e487b7160e01b600052602160045260246000fd5b815260200160608152602001606081525090565b5b808211156162b75760008155600101616456565b808211156162b757600061647e8282616487565b5060010161646a565b50805461649390617edf565b6000825580601f106164a55750614e54565b601f016020900490600052602060002090810190614e549190616455565b80356001600160a01b03811681146110bf57600080fd5b60008083601f8401126164eb578182fd5b5081356001600160401b03811115616501578182fd5b602083019150836020808302850101111561651b57600080fd5b9250929050565b600082601f830112616532578081fd5b8135602061654761654283617e1e565b617df5565b82815281810190858301855b8581101561657c5761656a898684358b01016165e3565b84529284019290840190600101616553565b5090979650505050505050565b600082601f830112616599578081fd5b813560206165a961654283617e1e565b82815281810190858301838502870184018810156165c5578586fd5b855b8581101561657c578135845292840192908401906001016165c7565b600082601f8301126165f3578081fd5b81356001600160401b0381111561660c5761660c617f75565b61661f601f8201601f1916602001617df5565b818152846020838601011115616633578283fd5b816020850160208301379081016020019190915292915050565b60006020828403121561665e578081fd5b611d00826164c3565b60008060408385031215616679578081fd5b616682836164c3565b946020939093013593505050565b6000806000606084860312156166a4578081fd5b6166ad846164c3565b95602085013595506040909401359392505050565b600080600080600080600060c0888a0312156166dc578283fd5b87356001600160401b03808211156166f2578485fd5b6166fe8b838c01616522565b985061670c60208b016164c3565b975060408a0135915080821115616721578485fd5b61672d8b838c016164da565b909750955060608a0135915080821115616745578485fd5b6167518b838c01616522565b945060808a0135915080821115616766578384fd5b6167728b838c01616589565b935060a08a0135915080821115616787578283fd5b506167948a828b016165e3565b91505092959891949750929550565b600080600080600080606087890312156167bb578182fd5b86356001600160401b03808211156167d1578384fd5b6167dd8a838b016164da565b909850965060208901359150808211156167f5578384fd5b6168018a838b016164da565b90965094506040890135915080821115616819578384fd5b5061682689828a016164da565b979a9699509497509295939492505050565b600060208284031215616849578081fd5b81356001600160401b0381111561685e578182fd5b61477784828501616589565b60006020828403121561687b578081fd5b81518015158114611d00578182fd5b6000806040838503121561689c578182fd5b82356001600160401b03808211156168b2578384fd5b6168be868387016165e3565b935060208501359150808211156168d3578283fd5b506168e0858286016165e3565b9150509250929050565b6000602082840312156168fb578081fd5b5035919050565b600060208284031215611f76578081fd5b60008060408385031215616925578182fd5b82359150616935602084016164c3565b90509250929050565b600080600060608486031215616952578081fd5b833592506020840135915060408401356001600160401b03811115616975578182fd5b616981868287016165e3565b9150509250925092565b6000806040838503121561699d578182fd5b50508035926020909101359150565b600080600080608085870312156169c1578182fd5b84359350602085013592506169d8604086016164c3565b9396929550929360600135925050565b6000806000606084860312156169fc578081fd5b505081359360208301359350604090920135919050565b6001600160a01b03169052565b6000815180845260208085018081965082840281019150828601855b85811015616a66578284038952616a54848351616af9565b98850198935090840190600101616a3c565b5091979650505050505050565b6000815180845260208085018081965082840281019150828601855b85811015616a66578284038952616aa7848351616af9565b98850198935090840190600101616a8f565b6000815180845260208085019450808401835b83811015616ae857815187529582019590820190600101616acc565b509495945050505050565b15159052565b60008151808452616b11816020860160208601617eaf565b601f01601f19169290920160200192915050565b60048110616b4357634e487b7160e01b600052602160045260246000fd5b9052565b600a8152690c6dedadad2e890c2e6d60b31b602082015260400190565b60609190911b6bffffffffffffffffffffffff1916815260140190565b60609290921b6bffffffffffffffffffffffff19168252601482015260340190565b90815260200190565b60008251616bbe818460208701617eaf565b9190910192915050565b918252602082015260400190565b6001600160a01b0391909116815260200190565b6001600160a01b038a81168252891660208201526040810188905286151560608201526080810186905260a0810185905261012060c08201819052600090616c3483820187616af9565b94151560e084015250506101000152979650505050505050565b600060208252611d006020830184616a73565b600060208252611d006020830184616ab9565b901515815260200190565b600060208252611d006020830184616af9565b600060c08252616ca560c0830189616af9565b6001600160a01b0388166020840152604083018790528281036060840152616ccd8187616af9565b90508281036080840152616ce18186616af9565b9150506113f360a0830184616b25565b600060608252616d046060830186616af9565b8281036020840152616d168186616af9565b90508281036040840152616d2a8185616a73565b9695505050505050565b6000602080835281845483600282049050600180831680616d5657607f831692505b858310811415616d7457634e487b7160e01b87526022600452602487fd5b616d8083878a01616ba3565b818015616d945760018114616da557616dcf565b60ff19861682528782019650616dcf565b616dae8b617e41565b895b86811015616dc957815484820152908501908901616db0565b83019750505b50949998505050505050505050565b6020808252601c908201527f576f726b657220697320616c7265616479207265676973746572656400000000604082015260600190565b60208082526031908201527f676976656e204461746142617463682073686f756c6420626520415050524f5660408201527011510b08185b99081a5d081a5cc81b9bdd607a1b606082015260800190565b60208082526041908201527f576f726b657220686173206e6f7420656e6f75676820285f6e756d546f6b656e60408201527f732920696e206869732053706f745374616b6564546f6b656e42616c616e63656060820152600160fd1b608082015260a00190565b60208082526025908201527f72656365697665722072656a6563746564205f7265747269657665534675656c6040820152640818d85b1b60da1b606082015260800190565b6020808252605c908201527f4e6f74207468652073616d6520766f7465207468616e2077686174207761732060408201527f636f6d6d697465642c20696d706f737369626c6520746f206d6174636820776960608201527f746820676976656e205f73616c742026205f766f74654f7074696f6e00000000608082015260a00190565b60208082526026908201527f4f776e61626c653a206e6577206f776e657220697320746865207a65726f206160408201526564647265737360d01b606082015260800190565b60208082526029908201527f6b206f72204e20617265206e6f74204f4b20647572696e672072616e646f6d2060408201526839b2b632b1ba34b7b760b91b606082015260800190565b6020808252602a908201527f4661696c20647572696e6720616c6c6f636174696f6e3a206e6f7420656e6f75604082015269676820776f726b65727360b01b606082015260800190565b6020808252601e908201527f636f6d6d697420706572696f64206e6565647320746f206265206f70656e0000604082015260600190565b6020808252602f908201527f636f756c64206e6f742072657761726420746f6b656e20696e2054726967676560408201526e3921b432b1b5a9b837ba161018973160891b606082015260800190565b6020808252602b908201527f576f726b6572206973206e6f7420617661696c61626c6520736f2063616e277460408201526a103ab73932b3b4b9ba32b960a91b606082015260800190565b6020808252603d908201527f436f756c64206e6f74207265717565737420656e6f75676820616c6c6f63617460408201527f6564207374616b652c2072657175657374566f74696e67526967687473000000606082015260800190565b6020808252602f908201527f5573657220686173206e6f7420636f6d6d69746564206265666f72652c20746860408201526e1d5cc818d85b89dd081c995d99585b608a1b606082015260800190565b60208082526014908201527311185d18481b5d5cdd081a185d9948195b99195960621b604082015260600190565b60208082526052908201527f4572726f722072657665616c53706f74436865636b733a205f4461746142617460408201527f63684944732e6c656e67746820616e64205f766f74654f7074696f6e732e6c656060820152711b99dd1a081b5d5cdd08189948195c5d585b60721b608082015260a00190565b6020808252602d908201527f636f756c64206e6f74207265776172642052455020696e20547269676765724360408201526c6865636b53706f742c20312e6160981b606082015260800190565b60208082526050908201527f547269676765724e65787445706f63683a2061206261746368206d757374206260408201527f6520636f6d706c657465642c206f7220656e6f75676820776f726b657273206d60608201526f75737420626520617661696c61626c6560801b608082015260a00190565b60208082526039908201527f646c6c4d61703a20646f6573206e6f7420636f696e7461696e205f446174614260408201527f61746368496420666f7220746865206d73672073656e64657200000000000000606082015260800190565b6020808252602b908201527f75736572206d75737420686176652072657665616c656420696e20746869732060408201526a0ced2eccadc4084c2e8c6d60ab1b606082015260800190565b6020808252601490820152733737ba1030903b30b634b2103837b9b4ba34b7b760611b604082015260600190565b6020808252603b908201527f43616e277420616c6c6f6361746520776f726b2c207468652063757272656e7460408201527f20626174636820697320616c726561647920616c6c6f63617465640000000000606082015260800190565b60208082526048908201527f55736572206e6565647320746f2068617665206265656e20616c6c6f6361746560408201527f64207468652063757272656e74206461746120626174636820746f20636f6d6d6060820152671a5d081bdb881a5d60c21b608082015260a00190565b6020808252818101527f4f776e61626c653a2063616c6c6572206973206e6f7420746865206f776e6572604082015260600190565b6020808252603a908201527f5f446174614261746368496420686173206e6f7420656e6465642c206f72206e60408201527f6f7420657665727920766f74657273206861766520766f746564000000000000606082015260800190565b60208082526029908201527f6765744e756d50617373696e67546f6b656e733a20686173686573206d75737460408201526808189948195c5d585b60ba1b606082015260800190565b60208082526036908201527f43616e277420616c6c6f6361746520776f726b2c207468652063757272656e74604082015275206261746368206973206e6f7420636f6d706c65746560501b606082015260800190565b60208082526026908201527f52657665616c20706572696f64206e6f74206f70656e20666f7220746869732060408201526511185d18525160d21b606082015260800190565b60208082526027908201527f617661696c61626c65546f6b656e732073686f756c64206265203e3d205f6e756040820152666d546f6b656e7360c81b606082015260800190565b60208082526017908201527f5f4461746142617463684964206d757374206578697374000000000000000000604082015260600190565b6020808252601390820152720c081059191c995cdcc8139bdd0815985b1a59606a1b604082015260600190565b6020808252604c908201527f4572726f722072657665616c53706f74436865636b733a205f4461746142617460408201527f63684944732e6c656e67746820616e64205f73616c74732e6c656e677468206d60608201526b1d5cdd08189948195c5d585b60a21b608082015260a00190565b6020808252602f908201527f636f756c64206e6f742072657761726420746f6b656e20696e2054726967676560408201526e3921b432b1b5a9b837ba161019173160891b606082015260800190565b60208082526021908201527f5f446174614261746368496420697320616c72656164792076616c69646174656040820152601960fa1b606082015260800190565b60208082526049908201527f4572726f72207768656e20636f6d6d697453706f74436865636b733a205f446160408201527f746142617463684944732e6c656e677468203d3d205f736563726574486173686060820152680cae65cd8cadccee8d60bb1b608082015260a00190565b60208082526022908201527f4d6178696d756d207265676973746572656420776f726b65727320616c726561604082015261647960f01b606082015260800190565b60208082526037908201527f75736572206d757374206861766520656e6f75676820766f74696e672072696760408201527f68747320616b6120616c6c6f6361746564207374616b65000000000000000000606082015260800190565b6020808252602d908201527f636f756c64206e6f74207265776172642052455020696e20547269676765724360408201526c6865636b53706f742c20322e6160981b606082015260800190565b6020808252602a908201527f5f446174614261746368496420636865636b696e6720766f7465206d757374206040820152691a185d9948195b99195960b21b606082015260800190565b6020808252603b908201527f436f756c64206e6f74207769746864726177566f74696e67526967687473207460408201527f68726f7567682050726f78795374616b654465616c6c6f636174650000000000606082015260800190565b6020808252600f908201526e11185d18481b5d5cdd08195e1a5cdd608a1b604082015260600190565b600060208252825160208301526020830151604083015260408301516060830152606083015160808301526080830151617a8160a0840182616af3565b5060a0830151617a9460c0840182616af3565b5060c0830151617aa760e0840182616af3565b5060e0830151610100838101919091528301516101208084019190915283015161014080840191909152830151610160808401919091528301516101e0610180808501829052617afb610200860184616af9565b908601519092506101a0617b1186820183616b25565b80870151915050601f196101c0818786030181880152617b318584616a20565b908801518782039092018488015293509050616d2a8382616ab9565b600085825284602083015260806040830152617b6c6080830185616af9565b905082606083015295945050505050565b60008382528260208301526060604083015261477760608301616b47565b600084825283602083015260806040830152617bb960808301616b47565b9050826060830152949350505050565b9182526020820152606060408201819052600990820152686e756d546f6b656e7360b81b608082015260a00190565b93845260208401929092526040830152606082015260800190565b6000602082528251610100806020850152617c32610120850183616af9565b91506020850151617c466040860182616a13565b50604085015160608501526060850151601f1980868503016080870152617c6d8483616af9565b935060808701519150808685030160a0870152617c8a8483616a20565b935060a08701519150808685030160c0870152617ca78483616ab9565b935060c08701519150808685030160e087015250617cc58382616af9565b92505060e0850151617cd982860182616b25565b5090949350505050565b9182526001600160a01b0316602082015260400190565b9182526001600160a01b031660208201526000604082015260600190565b9283526020830191909152604082015260600190565b60006101a08f83528e60208401528d60408401528c60608401528b151560808401528a151560a084015289151560c08401528860e084015287610100840152866101208401528561014084015280610160840152617d8e81840186616af9565b915050617d9f610180830184616b25565b9e9d5050505050505050505050505050565b6000808335601e19843603018112617dc7578283fd5b8301803591506001600160401b03821115617de0578283fd5b60200191503681900382131561651b57600080fd5b6040518181016001600160401b0381118282101715617e1657617e16617f75565b604052919050565b60006001600160401b03821115617e3757617e37617f75565b5060209081020190565b60009081526020902090565b60008219821115617e6057617e60617f49565b500190565b600082617e7457617e74617f5f565b500490565b6000816000190483118215151615617e9357617e93617f49565b500290565b600082821015617eaa57617eaa617f49565b500390565b60005b83811015617eca578181015183820152602001617eb2565b83811115617ed9576000848401525b50505050565b600281046001821680617ef357607f821691505b60208210811415617f1457634e487b7160e01b600052602260045260246000fd5b50919050565b6000600019821415617f2e57617f2e617f49565b5060010190565b600082617f4457617f44617f5f565b500690565b634e487b7160e01b600052601160045260246000fd5b634e487b7160e01b600052601260045260246000fd5b634e487b7160e01b600052604160045260246000fdfea264697066735822122035f817428a3350ecfe929aa50282477526dce0419033755240bdb24a6a33c1af64736f6c63430008000033",
  "linkReferences": {
    "contracts/worksystems/DataSpotting.sol": {
      "AttributeStore": [
        {
          "length": 20,
          "start": 14627
        },
        {
          "length": 20,
          "start": 14735
        },
        {
          "length": 20,
          "start": 17057
        },
        {
          "length": 20,
          "start": 17517
        }
      ],
      "DLL": [
        {
          "length": 20,
          "start": 4049
        },
        {
          "length": 20,
          "start": 7512
        },
        {
          "length": 20,
          "start": 7684
        },
        {
          "length": 20,
          "start": 8498
        },
        {
          "length": 20,
          "start": 13083
        },
        {
          "length": 20,
          "start": 13263
        },
        {
          "length": 20,
          "start": 14116
        },
        {
          "length": 20,
          "start": 14278
        },
        {
          "length": 20,
          "start": 14473
        }
      ]
    }
  },
  "deployedLinkReferences": {
    "contracts/worksystems/DataSpotting.sol": {
      "AttributeStore": [
        {
          "length": 20,
          "start": 14235
        },
        {
          "length": 20,
          "start": 14343
        },
        {
          "length": 20,
          "start": 16665
        },
        {
          "length": 20,
          "start": 17125
        }
      ],
      "DLL": [
        {
          "length": 20,
          "start": 3657
        },
        {
          "length": 20,
          "start": 7120
        },
        {
          "length": 20,
          "start": 7292
        },
        {
          "length": 20,
          "start": 8106
        },
        {
          "length": 20,
          "start": 12691
        },
        {
          "length": 20,
          "start": 12871
        },
        {
          "length": 20,
          "start": 13724
        },
        {
          "length": 20,
          "start": 13886
        },
        {
          "length": 20,
          "start": 14081
        }
      ]
    }
  }
}