{
  "_format": "hh-sol-artifact-1",
  "contractName": "DataSpotting",
  "sourceName": "contracts/worksystems/DataSpotting.sol",
  "abi": [
    {
      "inputs": [
        {
          "internalType": "address",
          "name": "EXDT_token",
          "type": "address"
        }
      ],
      "stateMutability": "nonpayable",
      "type": "constructor"
    },
    {
      "anonymous": false,
      "inputs": [
        {
          "indexed": false,
          "internalType": "bytes",
          "name": "bytesFailure",
          "type": "bytes"
        }
      ],
      "name": "BytesFailure",
      "type": "event"
    },
    {
      "anonymous": false,
      "inputs": [
        {
          "indexed": true,
          "internalType": "address",
          "name": "previousOwner",
          "type": "address"
        },
        {
          "indexed": true,
          "internalType": "address",
          "name": "newOwner",
          "type": "address"
        }
      ],
      "name": "OwnershipTransferred",
      "type": "event"
    },
    {
      "anonymous": false,
      "inputs": [
        {
          "indexed": true,
          "internalType": "uint256",
          "name": "epochNumber",
          "type": "uint256"
        }
      ],
      "name": "_NewEpoch",
      "type": "event"
    },
    {
      "anonymous": false,
      "inputs": [
        {
          "indexed": false,
          "internalType": "string",
          "name": "hash",
          "type": "string"
        },
        {
          "indexed": true,
          "internalType": "address",
          "name": "creator",
          "type": "address"
        }
      ],
      "name": "_SpotAccepted",
      "type": "event"
    },
    {
      "anonymous": false,
      "inputs": [
        {
          "indexed": true,
          "internalType": "uint256",
          "name": "DataID",
          "type": "uint256"
        },
        {
          "indexed": false,
          "internalType": "uint256",
          "name": "numTokens",
          "type": "uint256"
        },
        {
          "indexed": true,
          "internalType": "address",
          "name": "voter",
          "type": "address"
        }
      ],
      "name": "_SpotCheckCommitted",
      "type": "event"
    },
    {
      "anonymous": false,
      "inputs": [
        {
          "indexed": true,
          "internalType": "uint256",
          "name": "DataID",
          "type": "uint256"
        },
        {
          "indexed": false,
          "internalType": "uint256",
          "name": "numTokens",
          "type": "uint256"
        },
        {
          "indexed": false,
          "internalType": "uint256",
          "name": "votesFor",
          "type": "uint256"
        },
        {
          "indexed": false,
          "internalType": "uint256",
          "name": "votesAgainst",
          "type": "uint256"
        },
        {
          "indexed": true,
          "internalType": "uint256",
          "name": "choice",
          "type": "uint256"
        },
        {
          "indexed": true,
          "internalType": "address",
          "name": "voter",
          "type": "address"
        }
      ],
      "name": "_SpotCheckRevealed",
      "type": "event"
    },
    {
      "anonymous": false,
      "inputs": [
        {
          "indexed": true,
          "internalType": "uint256",
          "name": "DataID",
          "type": "uint256"
        },
        {
          "indexed": false,
          "internalType": "string",
          "name": "file_hash",
          "type": "string"
        },
        {
          "indexed": false,
          "internalType": "string",
          "name": "URL_domain",
          "type": "string"
        },
        {
          "indexed": false,
          "internalType": "string[]",
          "name": "tags",
          "type": "string[]"
        },
        {
          "indexed": true,
          "internalType": "address",
          "name": "sender",
          "type": "address"
        }
      ],
      "name": "_SpotSubmitted",
      "type": "event"
    },
    {
      "anonymous": false,
      "inputs": [
        {
          "indexed": true,
          "internalType": "uint256",
          "name": "DataID",
          "type": "uint256"
        },
        {
          "indexed": true,
          "internalType": "address",
          "name": "voter",
          "type": "address"
        }
      ],
      "name": "_TokensRescued",
      "type": "event"
    },
    {
      "anonymous": false,
      "inputs": [
        {
          "indexed": false,
          "internalType": "uint256",
          "name": "numTokens",
          "type": "uint256"
        },
        {
          "indexed": true,
          "internalType": "address",
          "name": "voter",
          "type": "address"
        }
      ],
      "name": "_VotingRightsGranted",
      "type": "event"
    },
    {
      "anonymous": false,
      "inputs": [
        {
          "indexed": false,
          "internalType": "uint256",
          "name": "numTokens",
          "type": "uint256"
        },
        {
          "indexed": true,
          "internalType": "address",
          "name": "voter",
          "type": "address"
        }
      ],
      "name": "_VotingRightsWithdrawn",
      "type": "event"
    },
    {
      "anonymous": false,
      "inputs": [
        {
          "indexed": true,
          "internalType": "uint256",
          "name": "batchID",
          "type": "uint256"
        },
        {
          "indexed": false,
          "internalType": "address",
          "name": "worker",
          "type": "address"
        }
      ],
      "name": "_WorkAllocated",
      "type": "event"
    },
    {
      "anonymous": false,
      "inputs": [
        {
          "indexed": true,
          "internalType": "address",
          "name": "worker",
          "type": "address"
        },
        {
          "indexed": false,
          "internalType": "uint256",
          "name": "timestamp",
          "type": "uint256"
        }
      ],
      "name": "_WorkerRegistered",
      "type": "event"
    },
    {
      "anonymous": false,
      "inputs": [
        {
          "indexed": true,
          "internalType": "address",
          "name": "worker",
          "type": "address"
        },
        {
          "indexed": false,
          "internalType": "uint256",
          "name": "timestamp",
          "type": "uint256"
        }
      ],
      "name": "_WorkerUnregistered",
      "type": "event"
    },
    {
      "inputs": [],
      "name": "AddressManager",
      "outputs": [
        {
          "internalType": "contract IAddressManager",
          "name": "",
          "type": "address"
        }
      ],
      "stateMutability": "view",
      "type": "function"
    },
    {
      "inputs": [],
      "name": "AllTxsCounter",
      "outputs": [
        {
          "internalType": "uint256",
          "name": "",
          "type": "uint256"
        }
      ],
      "stateMutability": "view",
      "type": "function"
    },
    {
      "inputs": [],
      "name": "AllocateWork",
      "outputs": [],
      "stateMutability": "nonpayable",
      "type": "function"
    },
    {
      "inputs": [],
      "name": "AllocatedBatchCursor",
      "outputs": [
        {
          "internalType": "uint256",
          "name": "",
          "type": "uint256"
        }
      ],
      "stateMutability": "view",
      "type": "function"
    },
    {
      "inputs": [],
      "name": "AmIRegistered",
      "outputs": [
        {
          "internalType": "bool",
          "name": "passed",
          "type": "bool"
        }
      ],
      "stateMutability": "view",
      "type": "function"
    },
    {
      "inputs": [
        {
          "internalType": "string",
          "name": "_a",
          "type": "string"
        },
        {
          "internalType": "string",
          "name": "_b",
          "type": "string"
        }
      ],
      "name": "AreStringsEqual",
      "outputs": [
        {
          "internalType": "bool",
          "name": "",
          "type": "bool"
        }
      ],
      "stateMutability": "pure",
      "type": "function"
    },
    {
      "inputs": [],
      "name": "BatchCheckingCursor",
      "outputs": [
        {
          "internalType": "uint256",
          "name": "",
          "type": "uint256"
        }
      ],
      "stateMutability": "view",
      "type": "function"
    },
    {
      "inputs": [],
      "name": "COMMIT_ROUND_DURATION",
      "outputs": [
        {
          "internalType": "uint256",
          "name": "",
          "type": "uint256"
        }
      ],
      "stateMutability": "view",
      "type": "function"
    },
    {
      "inputs": [],
      "name": "CONSENSUS_WORKER_SIZE",
      "outputs": [
        {
          "internalType": "uint256",
          "name": "",
          "type": "uint256"
        }
      ],
      "stateMutability": "view",
      "type": "function"
    },
    {
      "inputs": [],
      "name": "CurrentWorkEpoch",
      "outputs": [
        {
          "internalType": "uint256",
          "name": "",
          "type": "uint256"
        }
      ],
      "stateMutability": "view",
      "type": "function"
    },
    {
      "inputs": [
        {
          "internalType": "uint256",
          "name": "",
          "type": "uint256"
        }
      ],
      "name": "DataBatch",
      "outputs": [
        {
          "internalType": "uint256",
          "name": "start_idx",
          "type": "uint256"
        },
        {
          "internalType": "uint256",
          "name": "end_idx",
          "type": "uint256"
        },
        {
          "internalType": "uint256",
          "name": "counter",
          "type": "uint256"
        },
        {
          "internalType": "uint256",
          "name": "unrevealed_workers",
          "type": "uint256"
        },
        {
          "internalType": "bool",
          "name": "complete",
          "type": "bool"
        },
        {
          "internalType": "bool",
          "name": "checked",
          "type": "bool"
        },
        {
          "internalType": "bool",
          "name": "allocated_to_work",
          "type": "bool"
        },
        {
          "internalType": "uint256",
          "name": "commitEndDate",
          "type": "uint256"
        },
        {
          "internalType": "uint256",
          "name": "revealEndDate",
          "type": "uint256"
        },
        {
          "internalType": "uint256",
          "name": "votesFor",
          "type": "uint256"
        },
        {
          "internalType": "uint256",
          "name": "votesAgainst",
          "type": "uint256"
        },
        {
          "internalType": "string",
          "name": "batchIPFSfile",
          "type": "string"
        },
        {
          "internalType": "enum DataSpotting.DataStatus",
          "name": "status",
          "type": "uint8"
        }
      ],
      "stateMutability": "view",
      "type": "function"
    },
    {
      "inputs": [
        {
          "internalType": "uint256",
          "name": "_DataBatchId",
          "type": "uint256"
        }
      ],
      "name": "DataCommitEndDate",
      "outputs": [
        {
          "internalType": "uint256",
          "name": "commitEndDate",
          "type": "uint256"
        }
      ],
      "stateMutability": "view",
      "type": "function"
    },
    {
      "inputs": [
        {
          "internalType": "uint256",
          "name": "_DataBatchId",
          "type": "uint256"
        }
      ],
      "name": "DataEnded",
      "outputs": [
        {
          "internalType": "bool",
          "name": "ended",
          "type": "bool"
        }
      ],
      "stateMutability": "view",
      "type": "function"
    },
    {
      "inputs": [
        {
          "internalType": "uint256",
          "name": "_DataBatchId",
          "type": "uint256"
        }
      ],
      "name": "DataExists",
      "outputs": [
        {
          "internalType": "bool",
          "name": "exists",
          "type": "bool"
        }
      ],
      "stateMutability": "view",
      "type": "function"
    },
    {
      "inputs": [],
      "name": "DataNonce",
      "outputs": [
        {
          "internalType": "uint256",
          "name": "",
          "type": "uint256"
        }
      ],
      "stateMutability": "view",
      "type": "function"
    },
    {
      "inputs": [
        {
          "internalType": "uint256",
          "name": "_DataBatchId",
          "type": "uint256"
        }
      ],
      "name": "DataRevealEndDate",
      "outputs": [
        {
          "internalType": "uint256",
          "name": "revealEndDate",
          "type": "uint256"
        }
      ],
      "stateMutability": "view",
      "type": "function"
    },
    {
      "inputs": [],
      "name": "FormattingSystem",
      "outputs": [
        {
          "internalType": "contract IFormattingSystem",
          "name": "",
          "type": "address"
        }
      ],
      "stateMutability": "view",
      "type": "function"
    },
    {
      "inputs": [
        {
          "internalType": "address",
          "name": "user_",
          "type": "address"
        }
      ],
      "name": "GetCurrentWork",
      "outputs": [
        {
          "internalType": "uint256",
          "name": "",
          "type": "uint256"
        }
      ],
      "stateMutability": "view",
      "type": "function"
    },
    {
      "inputs": [
        {
          "internalType": "address",
          "name": "user_",
          "type": "address"
        }
      ],
      "name": "IsNewWorkAvailable",
      "outputs": [
        {
          "internalType": "bool",
          "name": "",
          "type": "bool"
        }
      ],
      "stateMutability": "view",
      "type": "function"
    },
    {
      "inputs": [],
      "name": "LastBatchCounter",
      "outputs": [
        {
          "internalType": "uint256",
          "name": "",
          "type": "uint256"
        }
      ],
      "stateMutability": "view",
      "type": "function"
    },
    {
      "inputs": [],
      "name": "MIN_REP_Data",
      "outputs": [
        {
          "internalType": "uint256",
          "name": "",
          "type": "uint256"
        }
      ],
      "stateMutability": "view",
      "type": "function"
    },
    {
      "inputs": [],
      "name": "MIN_REP_REVEAL",
      "outputs": [
        {
          "internalType": "uint256",
          "name": "",
          "type": "uint256"
        }
      ],
      "stateMutability": "view",
      "type": "function"
    },
    {
      "inputs": [],
      "name": "MIN_REWARD_Data",
      "outputs": [
        {
          "internalType": "uint256",
          "name": "",
          "type": "uint256"
        }
      ],
      "stateMutability": "view",
      "type": "function"
    },
    {
      "inputs": [],
      "name": "MIN_STAKE",
      "outputs": [
        {
          "internalType": "uint256",
          "name": "",
          "type": "uint256"
        }
      ],
      "stateMutability": "view",
      "type": "function"
    },
    {
      "inputs": [
        {
          "internalType": "address",
          "name": "",
          "type": "address"
        },
        {
          "internalType": "uint256",
          "name": "",
          "type": "uint256"
        }
      ],
      "name": "MasterWorkers",
      "outputs": [
        {
          "internalType": "address",
          "name": "",
          "type": "address"
        }
      ],
      "stateMutability": "view",
      "type": "function"
    },
    {
      "inputs": [],
      "name": "REVEAL_ROUND_DURATION",
      "outputs": [
        {
          "internalType": "uint256",
          "name": "",
          "type": "uint256"
        }
      ],
      "stateMutability": "view",
      "type": "function"
    },
    {
      "inputs": [],
      "name": "RegisterWorker",
      "outputs": [],
      "stateMutability": "nonpayable",
      "type": "function"
    },
    {
      "inputs": [],
      "name": "RepManager",
      "outputs": [
        {
          "internalType": "contract IRepManager",
          "name": "",
          "type": "address"
        }
      ],
      "stateMutability": "view",
      "type": "function"
    },
    {
      "inputs": [],
      "name": "RewardManager",
      "outputs": [
        {
          "internalType": "contract IRewardManager",
          "name": "",
          "type": "address"
        }
      ],
      "stateMutability": "view",
      "type": "function"
    },
    {
      "inputs": [],
      "name": "SPOT_CHECK_VOTE_QUORUM",
      "outputs": [
        {
          "internalType": "uint256",
          "name": "",
          "type": "uint256"
        }
      ],
      "stateMutability": "view",
      "type": "function"
    },
    {
      "inputs": [
        {
          "internalType": "string[]",
          "name": "file_hashs",
          "type": "string[]"
        },
        {
          "internalType": "address",
          "name": "main_worker_account",
          "type": "address"
        },
        {
          "internalType": "string[]",
          "name": "URL_domains",
          "type": "string[]"
        },
        {
          "internalType": "string[]",
          "name": "tags_",
          "type": "string[]"
        },
        {
          "internalType": "uint256[]",
          "name": "tags_id_",
          "type": "uint256[]"
        },
        {
          "internalType": "string",
          "name": "extra_",
          "type": "string"
        }
      ],
      "name": "SpotData",
      "outputs": [
        {
          "internalType": "uint256",
          "name": "Dataid_",
          "type": "uint256"
        }
      ],
      "stateMutability": "nonpayable",
      "type": "function"
    },
    {
      "inputs": [
        {
          "internalType": "address",
          "name": "",
          "type": "address"
        }
      ],
      "name": "SpotStakedTokenBalance",
      "outputs": [
        {
          "internalType": "uint256",
          "name": "",
          "type": "uint256"
        }
      ],
      "stateMutability": "view",
      "type": "function"
    },
    {
      "inputs": [
        {
          "internalType": "uint256",
          "name": "",
          "type": "uint256"
        }
      ],
      "name": "SpotsMapping",
      "outputs": [
        {
          "internalType": "string",
          "name": "ipfs_hash",
          "type": "string"
        },
        {
          "internalType": "address",
          "name": "author",
          "type": "address"
        },
        {
          "internalType": "uint256",
          "name": "timestamp",
          "type": "uint256"
        },
        {
          "internalType": "string",
          "name": "URL_domain",
          "type": "string"
        },
        {
          "internalType": "string",
          "name": "extra",
          "type": "string"
        },
        {
          "internalType": "enum DataSpotting.DataStatus",
          "name": "status",
          "type": "uint8"
        }
      ],
      "stateMutability": "view",
      "type": "function"
    },
    {
      "inputs": [],
      "name": "StakeManager",
      "outputs": [
        {
          "internalType": "contract IStakeManager",
          "name": "",
          "type": "address"
        }
      ],
      "stateMutability": "view",
      "type": "function"
    },
    {
      "inputs": [],
      "name": "TriggerNextEpoch",
      "outputs": [],
      "stateMutability": "nonpayable",
      "type": "function"
    },
    {
      "inputs": [],
      "name": "UnregisterWorker",
      "outputs": [],
      "stateMutability": "nonpayable",
      "type": "function"
    },
    {
      "inputs": [
        {
          "internalType": "address",
          "name": "",
          "type": "address"
        },
        {
          "internalType": "uint256",
          "name": "",
          "type": "uint256"
        }
      ],
      "name": "UserChecksCommits",
      "outputs": [
        {
          "internalType": "bool",
          "name": "",
          "type": "bool"
        }
      ],
      "stateMutability": "view",
      "type": "function"
    },
    {
      "inputs": [
        {
          "internalType": "address",
          "name": "",
          "type": "address"
        },
        {
          "internalType": "uint256",
          "name": "",
          "type": "uint256"
        }
      ],
      "name": "UserChecksReveals",
      "outputs": [
        {
          "internalType": "bool",
          "name": "",
          "type": "bool"
        }
      ],
      "stateMutability": "view",
      "type": "function"
    },
    {
      "inputs": [
        {
          "internalType": "uint256",
          "name": "",
          "type": "uint256"
        },
        {
          "internalType": "address",
          "name": "",
          "type": "address"
        }
      ],
      "name": "UserNewFiles",
      "outputs": [
        {
          "internalType": "string",
          "name": "",
          "type": "string"
        }
      ],
      "stateMutability": "view",
      "type": "function"
    },
    {
      "inputs": [
        {
          "internalType": "uint256",
          "name": "",
          "type": "uint256"
        },
        {
          "internalType": "address",
          "name": "",
          "type": "address"
        }
      ],
      "name": "UserVotes",
      "outputs": [
        {
          "internalType": "uint256",
          "name": "",
          "type": "uint256"
        }
      ],
      "stateMutability": "view",
      "type": "function"
    },
    {
      "inputs": [
        {
          "internalType": "uint256",
          "name": "",
          "type": "uint256"
        },
        {
          "internalType": "uint256",
          "name": "",
          "type": "uint256"
        }
      ],
      "name": "WorkersPerBatch",
      "outputs": [
        {
          "internalType": "address",
          "name": "",
          "type": "address"
        }
      ],
      "stateMutability": "view",
      "type": "function"
    },
    {
      "inputs": [
        {
          "internalType": "address",
          "name": "",
          "type": "address"
        }
      ],
      "name": "WorkersState",
      "outputs": [
        {
          "internalType": "address",
          "name": "worker_address",
          "type": "address"
        },
        {
          "internalType": "address",
          "name": "master_address",
          "type": "address"
        },
        {
          "internalType": "uint256",
          "name": "allocated_work_batch",
          "type": "uint256"
        },
        {
          "internalType": "bool",
          "name": "has_completed_work",
          "type": "bool"
        },
        {
          "internalType": "uint256",
          "name": "last_worked_round",
          "type": "uint256"
        },
        {
          "internalType": "uint256",
          "name": "last_interaction_date",
          "type": "uint256"
        },
        {
          "internalType": "string",
          "name": "extra",
          "type": "string"
        },
        {
          "internalType": "bool",
          "name": "registered",
          "type": "bool"
        },
        {
          "internalType": "uint256",
          "name": "registration_date",
          "type": "uint256"
        }
      ],
      "stateMutability": "view",
      "type": "function"
    },
    {
      "inputs": [
        {
          "internalType": "address",
          "name": "_user",
          "type": "address"
        },
        {
          "internalType": "uint256",
          "name": "_DataBatchId",
          "type": "uint256"
        }
      ],
      "name": "attrUUID",
      "outputs": [
        {
          "internalType": "bytes32",
          "name": "UUID",
          "type": "bytes32"
        }
      ],
      "stateMutability": "pure",
      "type": "function"
    },
    {
      "inputs": [
        {
          "internalType": "uint256",
          "name": "",
          "type": "uint256"
        }
      ],
      "name": "availableWorkers",
      "outputs": [
        {
          "internalType": "address",
          "name": "",
          "type": "address"
        }
      ],
      "stateMutability": "view",
      "type": "function"
    },
    {
      "inputs": [
        {
          "internalType": "uint256",
          "name": "",
          "type": "uint256"
        }
      ],
      "name": "busyWorkers",
      "outputs": [
        {
          "internalType": "address",
          "name": "",
          "type": "address"
        }
      ],
      "stateMutability": "view",
      "type": "function"
    },
    {
      "inputs": [
        {
          "internalType": "uint256",
          "name": "_DataBatchId",
          "type": "uint256"
        }
      ],
      "name": "commitPeriodActive",
      "outputs": [
        {
          "internalType": "bool",
          "name": "active",
          "type": "bool"
        }
      ],
      "stateMutability": "view",
      "type": "function"
    },
    {
      "inputs": [
        {
          "internalType": "uint256",
          "name": "_DataBatchId",
          "type": "uint256"
        },
        {
          "internalType": "bytes32",
          "name": "_secretHash",
          "type": "bytes32"
        },
        {
          "internalType": "string",
          "name": "newIPFSHash",
          "type": "string"
        }
      ],
      "name": "commitSpotCheck",
      "outputs": [],
      "stateMutability": "nonpayable",
      "type": "function"
    },
    {
      "inputs": [
        {
          "internalType": "uint256[]",
          "name": "_DataBatchIDs",
          "type": "uint256[]"
        },
        {
          "internalType": "bytes32[]",
          "name": "_secretHashes",
          "type": "bytes32[]"
        },
        {
          "internalType": "string[]",
          "name": "_newIPFSHash",
          "type": "string[]"
        }
      ],
      "name": "commitSpotChecks",
      "outputs": [],
      "stateMutability": "nonpayable",
      "type": "function"
    },
    {
      "inputs": [
        {
          "internalType": "address",
          "name": "_voter",
          "type": "address"
        },
        {
          "internalType": "uint256",
          "name": "_DataBatchId",
          "type": "uint256"
        }
      ],
      "name": "didCommit",
      "outputs": [
        {
          "internalType": "bool",
          "name": "committed",
          "type": "bool"
        }
      ],
      "stateMutability": "view",
      "type": "function"
    },
    {
      "inputs": [
        {
          "internalType": "address",
          "name": "_voter",
          "type": "address"
        },
        {
          "internalType": "uint256",
          "name": "_DataBatchId",
          "type": "uint256"
        }
      ],
      "name": "didReveal",
      "outputs": [
        {
          "internalType": "bool",
          "name": "revealed",
          "type": "bool"
        }
      ],
      "stateMutability": "view",
      "type": "function"
    },
    {
      "inputs": [
        {
          "internalType": "uint256",
          "name": "_k",
          "type": "uint256"
        },
        {
          "internalType": "uint256",
          "name": "N_range",
          "type": "uint256"
        }
      ],
      "name": "generateIntegers",
      "outputs": [
        {
          "internalType": "uint256[]",
          "name": "",
          "type": "uint256[]"
        }
      ],
      "stateMutability": "view",
      "type": "function"
    },
    {
      "inputs": [],
      "name": "getActiveWorkersCount",
      "outputs": [
        {
          "internalType": "uint256",
          "name": "numWorkers",
          "type": "uint256"
        }
      ],
      "stateMutability": "view",
      "type": "function"
    },
    {
      "inputs": [
        {
          "internalType": "uint256",
          "name": "_DataBatchId",
          "type": "uint256"
        }
      ],
      "name": "getBatchByID",
      "outputs": [
        {
          "components": [
            {
              "internalType": "uint256",
              "name": "start_idx",
              "type": "uint256"
            },
            {
              "internalType": "uint256",
              "name": "end_idx",
              "type": "uint256"
            },
            {
              "internalType": "uint256",
              "name": "counter",
              "type": "uint256"
            },
            {
              "internalType": "uint256",
              "name": "unrevealed_workers",
              "type": "uint256"
            },
            {
              "internalType": "bool",
              "name": "complete",
              "type": "bool"
            },
            {
              "internalType": "bool",
              "name": "checked",
              "type": "bool"
            },
            {
              "internalType": "bool",
              "name": "allocated_to_work",
              "type": "bool"
            },
            {
              "internalType": "uint256",
              "name": "commitEndDate",
              "type": "uint256"
            },
            {
              "internalType": "uint256",
              "name": "revealEndDate",
              "type": "uint256"
            },
            {
              "internalType": "uint256",
              "name": "votesFor",
              "type": "uint256"
            },
            {
              "internalType": "uint256",
              "name": "votesAgainst",
              "type": "uint256"
            },
            {
              "internalType": "string",
              "name": "batchIPFSfile",
              "type": "string"
            },
            {
              "internalType": "enum DataSpotting.DataStatus",
              "name": "status",
              "type": "uint8"
            },
            {
              "internalType": "string[]",
              "name": "flags",
              "type": "string[]"
            },
            {
              "internalType": "uint256[]",
              "name": "flags_id",
              "type": "uint256[]"
            }
          ],
          "internalType": "struct DataSpotting.BatchMetadata",
          "name": "batch",
          "type": "tuple"
        }
      ],
      "stateMutability": "view",
      "type": "function"
    },
    {
      "inputs": [
        {
          "internalType": "uint256",
          "name": "_DataBatchId",
          "type": "uint256"
        }
      ],
      "name": "getBatchIPFSFileByID",
      "outputs": [
        {
          "internalType": "string",
          "name": "batch",
          "type": "string"
        }
      ],
      "stateMutability": "view",
      "type": "function"
    },
    {
      "inputs": [],
      "name": "getBlockTimestamp",
      "outputs": [
        {
          "internalType": "uint256",
          "name": "blocktimestamp",
          "type": "uint256"
        }
      ],
      "stateMutability": "view",
      "type": "function"
    },
    {
      "inputs": [
        {
          "internalType": "address",
          "name": "_voter",
          "type": "address"
        },
        {
          "internalType": "uint256",
          "name": "_DataBatchId",
          "type": "uint256"
        }
      ],
      "name": "getCommitHash",
      "outputs": [
        {
          "internalType": "bytes32",
          "name": "commitHash",
          "type": "bytes32"
        }
      ],
      "stateMutability": "view",
      "type": "function"
    },
    {
      "inputs": [],
      "name": "getCurrentWorkEpoch",
      "outputs": [
        {
          "internalType": "uint256",
          "name": "WorkEpoch",
          "type": "uint256"
        }
      ],
      "stateMutability": "view",
      "type": "function"
    },
    {
      "inputs": [
        {
          "internalType": "uint256",
          "name": "_DataId",
          "type": "uint256"
        }
      ],
      "name": "getDataByID",
      "outputs": [
        {
          "components": [
            {
              "internalType": "string",
              "name": "ipfs_hash",
              "type": "string"
            },
            {
              "internalType": "address",
              "name": "author",
              "type": "address"
            },
            {
              "internalType": "uint256",
              "name": "timestamp",
              "type": "uint256"
            },
            {
              "internalType": "string",
              "name": "URL_domain",
              "type": "string"
            },
            {
              "internalType": "string[]",
              "name": "tags",
              "type": "string[]"
            },
            {
              "internalType": "uint256[]",
              "name": "tags_id",
              "type": "uint256[]"
            },
            {
              "internalType": "string",
              "name": "extra",
              "type": "string"
            },
            {
              "internalType": "enum DataSpotting.DataStatus",
              "name": "status",
              "type": "uint8"
            }
          ],
          "internalType": "struct DataSpotting.SpottedData",
          "name": "data",
          "type": "tuple"
        }
      ],
      "stateMutability": "view",
      "type": "function"
    },
    {
      "inputs": [
        {
          "internalType": "uint256",
          "name": "_DataBatchId",
          "type": "uint256"
        }
      ],
      "name": "getDomainsForBatch",
      "outputs": [
        {
          "internalType": "string[]",
          "name": "",
          "type": "string[]"
        }
      ],
      "stateMutability": "view",
      "type": "function"
    },
    {
      "inputs": [
        {
          "internalType": "uint256",
          "name": "_voteOption",
          "type": "uint256"
        },
        {
          "internalType": "uint256",
          "name": "_salt",
          "type": "uint256"
        }
      ],
      "name": "getEncryptedHash",
      "outputs": [
        {
          "internalType": "bytes32",
          "name": "keccak256hash",
          "type": "bytes32"
        }
      ],
      "stateMutability": "pure",
      "type": "function"
    },
    {
      "inputs": [
        {
          "internalType": "uint256",
          "name": "a",
          "type": "uint256"
        },
        {
          "internalType": "uint256",
          "name": "b",
          "type": "uint256"
        }
      ],
      "name": "getHash",
      "outputs": [
        {
          "internalType": "bytes32",
          "name": "keccak256hash",
          "type": "bytes32"
        }
      ],
      "stateMutability": "pure",
      "type": "function"
    },
    {
      "inputs": [
        {
          "internalType": "uint256",
          "name": "_DataBatchId",
          "type": "uint256"
        }
      ],
      "name": "getIPFShashesForBatch",
      "outputs": [
        {
          "internalType": "string[]",
          "name": "",
          "type": "string[]"
        }
      ],
      "stateMutability": "view",
      "type": "function"
    },
    {
      "inputs": [
        {
          "internalType": "address",
          "name": "_voter",
          "type": "address"
        },
        {
          "internalType": "uint256",
          "name": "_numTokens",
          "type": "uint256"
        },
        {
          "internalType": "uint256",
          "name": "_DataBatchId",
          "type": "uint256"
        }
      ],
      "name": "getInsertPointForNumTokens",
      "outputs": [
        {
          "internalType": "uint256",
          "name": "prevNode",
          "type": "uint256"
        }
      ],
      "stateMutability": "view",
      "type": "function"
    },
    {
      "inputs": [],
      "name": "getLastBatchId",
      "outputs": [
        {
          "internalType": "uint256",
          "name": "LastBatchId",
          "type": "uint256"
        }
      ],
      "stateMutability": "view",
      "type": "function"
    },
    {
      "inputs": [],
      "name": "getLastCheckedBatchId",
      "outputs": [
        {
          "internalType": "uint256",
          "name": "LastCheckedBatchId",
          "type": "uint256"
        }
      ],
      "stateMutability": "view",
      "type": "function"
    },
    {
      "inputs": [],
      "name": "getLastDataId",
      "outputs": [
        {
          "internalType": "uint256",
          "name": "DataId",
          "type": "uint256"
        }
      ],
      "stateMutability": "view",
      "type": "function"
    },
    {
      "inputs": [
        {
          "internalType": "address",
          "name": "_voter",
          "type": "address"
        }
      ],
      "name": "getLastNode",
      "outputs": [
        {
          "internalType": "uint256",
          "name": "DataID",
          "type": "uint256"
        }
      ],
      "stateMutability": "view",
      "type": "function"
    },
    {
      "inputs": [
        {
          "internalType": "address",
          "name": "user",
          "type": "address"
        }
      ],
      "name": "getLastUserDataId",
      "outputs": [
        {
          "internalType": "uint256",
          "name": "DataId",
          "type": "uint256"
        }
      ],
      "stateMutability": "view",
      "type": "function"
    },
    {
      "inputs": [
        {
          "internalType": "address",
          "name": "_voter",
          "type": "address"
        }
      ],
      "name": "getLockedTokens",
      "outputs": [
        {
          "internalType": "uint256",
          "name": "numTokens",
          "type": "uint256"
        }
      ],
      "stateMutability": "view",
      "type": "function"
    },
    {
      "inputs": [
        {
          "internalType": "address",
          "name": "_voter",
          "type": "address"
        },
        {
          "internalType": "uint256",
          "name": "_DataBatchId",
          "type": "uint256"
        },
        {
          "internalType": "uint256",
          "name": "_salt",
          "type": "uint256"
        }
      ],
      "name": "getNumPassingTokens",
      "outputs": [
        {
          "internalType": "uint256",
          "name": "correctSpotChecks",
          "type": "uint256"
        }
      ],
      "stateMutability": "view",
      "type": "function"
    },
    {
      "inputs": [
        {
          "internalType": "address",
          "name": "_voter",
          "type": "address"
        },
        {
          "internalType": "uint256",
          "name": "_DataBatchId",
          "type": "uint256"
        }
      ],
      "name": "getNumTokens",
      "outputs": [
        {
          "internalType": "uint256",
          "name": "numTokens",
          "type": "uint256"
        }
      ],
      "stateMutability": "view",
      "type": "function"
    },
    {
      "inputs": [],
      "name": "getRandom",
      "outputs": [
        {
          "internalType": "uint256",
          "name": "",
          "type": "uint256"
        }
      ],
      "stateMutability": "view",
      "type": "function"
    },
    {
      "inputs": [],
      "name": "getSeed",
      "outputs": [
        {
          "internalType": "bytes32",
          "name": "addr",
          "type": "bytes32"
        }
      ],
      "stateMutability": "view",
      "type": "function"
    },
    {
      "inputs": [
        {
          "internalType": "uint256",
          "name": "_DataBatchId",
          "type": "uint256"
        }
      ],
      "name": "getTotalNumberOfSpotChecks",
      "outputs": [
        {
          "internalType": "uint256",
          "name": "vc",
          "type": "uint256"
        }
      ],
      "stateMutability": "view",
      "type": "function"
    },
    {
      "inputs": [
        {
          "internalType": "uint256",
          "name": "_DataBatchId",
          "type": "uint256"
        }
      ],
      "name": "getTotalNumberOfTokensForWinningOption",
      "outputs": [
        {
          "internalType": "uint256",
          "name": "numTokens",
          "type": "uint256"
        }
      ],
      "stateMutability": "view",
      "type": "function"
    },
    {
      "inputs": [],
      "name": "getTxCounter",
      "outputs": [
        {
          "internalType": "uint256",
          "name": "Counter",
          "type": "uint256"
        }
      ],
      "stateMutability": "view",
      "type": "function"
    },
    {
      "inputs": [
        {
          "internalType": "address",
          "name": "user",
          "type": "address"
        }
      ],
      "name": "getUserDatas",
      "outputs": [
        {
          "internalType": "uint256[]",
          "name": "user_Datas",
          "type": "uint256[]"
        }
      ],
      "stateMutability": "view",
      "type": "function"
    },
    {
      "inputs": [
        {
          "internalType": "uint256",
          "name": "_terminationDate",
          "type": "uint256"
        }
      ],
      "name": "isExpired",
      "outputs": [
        {
          "internalType": "bool",
          "name": "expired",
          "type": "bool"
        }
      ],
      "stateMutability": "view",
      "type": "function"
    },
    {
      "inputs": [
        {
          "internalType": "uint256",
          "name": "_DataBatchId",
          "type": "uint256"
        }
      ],
      "name": "isPassed",
      "outputs": [
        {
          "internalType": "bool",
          "name": "passed",
          "type": "bool"
        }
      ],
      "stateMutability": "view",
      "type": "function"
    },
    {
      "inputs": [
        {
          "internalType": "address",
          "name": "_worker",
          "type": "address"
        }
      ],
      "name": "isWorkerRegistered",
      "outputs": [
        {
          "internalType": "bool",
          "name": "passed",
          "type": "bool"
        }
      ],
      "stateMutability": "view",
      "type": "function"
    },
    {
      "inputs": [],
      "name": "owner",
      "outputs": [
        {
          "internalType": "address",
          "name": "",
          "type": "address"
        }
      ],
      "stateMutability": "view",
      "type": "function"
    },
    {
      "inputs": [
        {
          "internalType": "uint256",
          "name": "k",
          "type": "uint256"
        },
        {
          "internalType": "uint256",
          "name": "N",
          "type": "uint256"
        }
      ],
      "name": "random_selection",
      "outputs": [
        {
          "internalType": "uint256[]",
          "name": "",
          "type": "uint256[]"
        }
      ],
      "stateMutability": "view",
      "type": "function"
    },
    {
      "inputs": [],
      "name": "renounceOwnership",
      "outputs": [],
      "stateMutability": "nonpayable",
      "type": "function"
    },
    {
      "inputs": [
        {
          "internalType": "uint256",
          "name": "_numTokens",
          "type": "uint256"
        }
      ],
      "name": "requestVotingRights",
      "outputs": [],
      "stateMutability": "nonpayable",
      "type": "function"
    },
    {
      "inputs": [
        {
          "internalType": "uint256",
          "name": "_DataBatchId",
          "type": "uint256"
        }
      ],
      "name": "rescueTokens",
      "outputs": [],
      "stateMutability": "nonpayable",
      "type": "function"
    },
    {
      "inputs": [
        {
          "internalType": "uint256[]",
          "name": "_DataBatchIDs",
          "type": "uint256[]"
        }
      ],
      "name": "rescueTokensInMultipleDatas",
      "outputs": [],
      "stateMutability": "nonpayable",
      "type": "function"
    },
    {
      "inputs": [
        {
          "internalType": "uint256",
          "name": "_DataBatchId",
          "type": "uint256"
        }
      ],
      "name": "revealPeriodActive",
      "outputs": [
        {
          "internalType": "bool",
          "name": "active",
          "type": "bool"
        }
      ],
      "stateMutability": "view",
      "type": "function"
    },
    {
      "inputs": [
        {
          "internalType": "uint256",
          "name": "_DataBatchId",
          "type": "uint256"
        },
        {
          "internalType": "uint256",
          "name": "_voteOption",
          "type": "uint256"
        },
        {
          "internalType": "uint256",
          "name": "_salt",
          "type": "uint256"
        }
      ],
      "name": "revealSpotCheck",
      "outputs": [],
      "stateMutability": "nonpayable",
      "type": "function"
    },
    {
      "inputs": [
        {
          "internalType": "uint256[]",
          "name": "_DataBatchIDs",
          "type": "uint256[]"
        },
        {
          "internalType": "uint256[]",
          "name": "_voteOptions",
          "type": "uint256[]"
        },
        {
          "internalType": "uint256[]",
          "name": "_salts",
          "type": "uint256[]"
        }
      ],
      "name": "revealSpotChecks",
      "outputs": [],
      "stateMutability": "nonpayable",
      "type": "function"
    },
    {
      "inputs": [],
      "name": "sFuel",
      "outputs": [
        {
          "internalType": "address",
          "name": "",
          "type": "address"
        }
      ],
      "stateMutability": "view",
      "type": "function"
    },
    {
      "inputs": [
        {
          "internalType": "uint256",
          "name": "N",
          "type": "uint256"
        }
      ],
      "name": "shuffle_array",
      "outputs": [
        {
          "internalType": "uint256[]",
          "name": "",
          "type": "uint256[]"
        }
      ],
      "stateMutability": "view",
      "type": "function"
    },
    {
      "inputs": [],
      "name": "token",
      "outputs": [
        {
          "internalType": "contract IERC20",
          "name": "",
          "type": "address"
        }
      ],
      "stateMutability": "view",
      "type": "function"
    },
    {
      "inputs": [
        {
          "internalType": "address",
          "name": "newOwner",
          "type": "address"
        }
      ],
      "name": "transferOwnership",
      "outputs": [],
      "stateMutability": "nonpayable",
      "type": "function"
    },
    {
      "inputs": [
        {
          "internalType": "address",
          "name": "addr",
          "type": "address"
        }
      ],
      "name": "updateAddressManager",
      "outputs": [],
      "stateMutability": "nonpayable",
      "type": "function"
    },
    {
      "inputs": [
        {
          "internalType": "uint256",
          "name": "COMMIT_ROUND_DURATION_",
          "type": "uint256"
        }
      ],
      "name": "updateCommitRoundDuration",
      "outputs": [],
      "stateMutability": "nonpayable",
      "type": "function"
    },
    {
      "inputs": [
        {
          "internalType": "uint256",
          "name": "CONSENSUS_WORKER_SIZE_",
          "type": "uint256"
        }
      ],
      "name": "updateConsensusSize",
      "outputs": [],
      "stateMutability": "nonpayable",
      "type": "function"
    },
    {
      "inputs": [
        {
          "internalType": "address",
          "name": "addr",
          "type": "address"
        }
      ],
      "name": "updateFormattingSystem",
      "outputs": [],
      "stateMutability": "nonpayable",
      "type": "function"
    },
    {
      "inputs": [
        {
          "internalType": "address",
          "name": "addr",
          "type": "address"
        }
      ],
      "name": "updateRepManager",
      "outputs": [],
      "stateMutability": "nonpayable",
      "type": "function"
    },
    {
      "inputs": [
        {
          "internalType": "uint256",
          "name": "REVEAL_ROUND_DURATION_",
          "type": "uint256"
        }
      ],
      "name": "updateRevealRoundDuration",
      "outputs": [],
      "stateMutability": "nonpayable",
      "type": "function"
    },
    {
      "inputs": [
        {
          "internalType": "address",
          "name": "addr",
          "type": "address"
        }
      ],
      "name": "updateRewardManager",
      "outputs": [],
      "stateMutability": "nonpayable",
      "type": "function"
    },
    {
      "inputs": [
        {
          "internalType": "address",
          "name": "addr",
          "type": "address"
        }
      ],
      "name": "updateStakeManager",
      "outputs": [],
      "stateMutability": "nonpayable",
      "type": "function"
    },
    {
      "inputs": [
        {
          "internalType": "address",
          "name": "sFuel_",
          "type": "address"
        }
      ],
      "name": "updatesFuelFaucet",
      "outputs": [],
      "stateMutability": "nonpayable",
      "type": "function"
    },
    {
      "inputs": [
        {
          "internalType": "address",
          "name": "",
          "type": "address"
        },
        {
          "internalType": "uint256",
          "name": "",
          "type": "uint256"
        }
      ],
      "name": "userSubmissions",
      "outputs": [
        {
          "internalType": "uint256",
          "name": "",
          "type": "uint256"
        }
      ],
      "stateMutability": "view",
      "type": "function"
    },
    {
      "inputs": [
        {
          "internalType": "uint256",
          "name": "_prevID",
          "type": "uint256"
        },
        {
          "internalType": "uint256",
          "name": "_nextID",
          "type": "uint256"
        },
        {
          "internalType": "address",
          "name": "_voter",
          "type": "address"
        },
        {
          "internalType": "uint256",
          "name": "_numTokens",
          "type": "uint256"
        }
      ],
      "name": "validPosition",
      "outputs": [
        {
          "internalType": "bool",
          "name": "APPROVED",
          "type": "bool"
        }
      ],
      "stateMutability": "view",
      "type": "function"
    },
    {
      "inputs": [
        {
          "internalType": "uint256",
          "name": "_numTokens",
          "type": "uint256"
        }
      ],
      "name": "withdrawVotingRights",
      "outputs": [],
      "stateMutability": "nonpayable",
      "type": "function"
    }
  ],
  "bytecode": "0x6080604052670de0b6b3a764000060048190556005818155600691909155603c6007556008556000600f8190556010819055601980546001600160a01b0319167314f52f3fc010ab6ca81568d4a6794d5eab3c61551790556001601a819055601b819055601c55601e553480156200007657600080fd5b506040516200813b3803806200813b833981016040819052620000999162000143565b620000ad620000a7620000ef565b620000f3565b601f80546001600160a01b0319166001600160a01b0392909216919091179055600060105568015af1d78b58c40000600155605a600255602d60035562000173565b3390565b600080546001600160a01b038381166001600160a01b0319831681178455604051919092169283917f8be0079c531659141344cd1fd0a4f28419497f9722a3daafe3b4186f6b6457e09190a35050565b60006020828403121562000155578081fd5b81516001600160a01b03811681146200016c578182fd5b9392505050565b617fb880620001836000396000f3fe608060405234801561001057600080fd5b50600436106106235760003560e01c80638df0296e11610336578063d420ec0b116101c3578063e798a7da1161010f578063f3438946116100ad578063f721de4a11610087578063f721de4a14610cc6578063f80a23fd14610cd9578063fc0c546a14610ce1578063fca4956314610ce957610623565b8063f343894614610ca3578063f5ae7c7d14610cb6578063f716596d14610cbe57610623565b8063ed8becfa116100e9578063ed8becfa14610c6d578063ef4fcdad14610c80578063f2d9e74d14610c88578063f2fde38b14610c9057610623565b8063e798a7da14610c34578063e7b1d43c14610c47578063e8e9b6f914610c5a57610623565b8063d9845fb81161017c578063df05368e11610156578063df05368e14610bf3578063e44c974b14610c06578063e604c12714610c19578063e7805f9e14610c2c57610623565b8063d9845fb814610bad578063d9966ae814610bcd578063dd61868214610be057610623565b8063d420ec0b14610b46578063d6b0206c14610b59578063d822ce0114610b61578063d8b7567414610b74578063d901402b14610b87578063d9548e5314610b9a57610623565b8063ab43e78d11610282578063c47c4bc21161023b578063c9b03a7211610215578063c9b03a7214610b10578063cb1c2b5c14610b18578063d138209214610b20578063d37a4db214610b3357610623565b8063c47c4bc214610ad7578063c4e4f82a14610aea578063c7c063fb14610afd57610623565b8063ab43e78d14610a83578063b1a2e0be14610a8b578063b1cf4a7e146106e9578063b1d7ea9814610a9e578063b43bd06914610ab1578063b8f011b314610ac457610623565b8063a25236fe116102ef578063a7f830f4116102c9578063a7f830f414610a42578063a905779014610a55578063aa7ca46414610a68578063aacc5a1714610a7b57610623565b8063a25236fe14610a14578063a4439dc514610a27578063a511dba014610a3a57610623565b80638df0296e146109ad57806397603560146109c05780639acb75c1146109d35780639b7e0180146109db5780639fc9c52f146109ee578063a1103f3714610a0157610623565b80634d884281116104b4578063796b89b911610400578063819b0293116103b95780638473850b116103935780638473850b1461096d5780638c89d027146109755780638d289f8f1461099d5780638da5cb5b146109a557610623565b8063819b02931461093f578063821aa8c01461095257806383cc6ef21461096557610623565b8063796b89b9146108d55780637a34da67146108dd5780637d050526146108e55780637f9510a2146108f85780637f97e836146109005780637fabe35b1461091357610623565b80635a4529431161046d5780636b2d95d4116104475780636b2d95d41461089f578063715018a6146108b257806371880b1b146108ba5780637827e549146108cd57610623565b80635a4529431461086f5780635fd879091461088f578063667bf0f81461089757610623565b80634d884281146108065780635106a55f14610819578063515535e81461082c57806351912f2914610834578063579db71c1461083c578063580021581461085c57610623565b80632c05203111610573578063354dae401161052c578063427fa1d211610506578063427fa1d2146107c5578063441c77c0146107d857806347fe2d20146107eb57806349403183146107f357610623565b8063354dae40146107ad57806339e7357c146107b55780633ad2131f146107bd57610623565b80632c052031146107395780632d917c681461074c5780632f469fd11461075f578063313066ee1461077f57806332ac1ba2146107875780633538af821461079a57610623565b80630e6661a7116105e05780631b855044116105ba5780631b855044146106e9578063226ed300146106fc578063275c25901461071c57806329a47bc71461072457610623565b80630e6661a7146106b95780630e670feb146106c157806319d90346146106c957610623565b8063035fbb551461062857806304dbcda71461063d578063050eb2eb1461065b578063053e71a61461066e5780630b16d945146106815780630b96c5b014610694575b600080fd5b61063b6106363660046169df565b610cfc565b005b610645610fd4565b6040516106529190616b9a565b60405180910390f35b61063b610669366004616644565b610fda565b61064561067c3660046168e1565b61103b565b61064561068f3660046166b9565b6110a1565b6106a76106a23660046168e1565b6113dc565b60405161065296959493929190616c89565b6106456115b9565b6106456115bf565b6106dc6106d73660046168e1565b6115c5565b6040516106529190616c45565b6106456106f7366004616982565b6119da565b61070f61070a3660046168e1565b611a0e565b6040516106529190616c6b565b61063b611a50565b61072c611b39565b6040516106529190616bcd565b610645610747366004616687565b611b48565b61070f61075a36600461665e565b611ce5565b61077261076d36600461690a565b611d05565b6040516106529190616c76565b610645611daa565b6106456107953660046168e1565b611db0565b61072c6107a83660046168e1565b611dd4565b61063b611dfe565b610645611f5e565b610645611f7b565b6106456107d3366004616644565b611f81565b61070f6107e63660046168e1565b612021565b61064561207b565b61070f6108013660046168e1565b612081565b61063b610814366004616644565b612372565b61063b61082736600461679a565b6123d3565b6106456124d5565b61072c6124db565b61084f61084a366004616644565b6124ea565b6040516106529190616c58565b61063b61086a3660046168e1565b612556565b61088261087d3660046168e1565b61259a565b6040516106529190617c0a565b610645612917565b61063b61291d565b6106456108ad366004616644565b612d04565b61063b612d13565b6106456108c83660046168e1565b612d5e565b610645612d9b565b610645612da1565b61072c612da5565b61063b6108f3366004616644565b612db4565b610645612e15565b61070f61090e36600461665e565b612e2c565b6109266109213660046168e1565b612e7f565b6040516106529d9c9b9a99989796959493929190617d25565b61070f61094d3660046169a3565b612f78565b61072c6109603660046168e1565b612fb6565b61072c612fc6565b610645612fd5565b610988610983366004616644565b612fdb565b60405161065299989796959493929190616be1565b61072c6130c3565b61072c6130d2565b61072c6109bb366004616982565b6130e1565b61063b6109ce3660046168e1565b613119565b6106456132c8565b6106456109e936600461665e565b6132ce565b61063b6109fc36600461682f565b6132ff565b610645610a0f36600461665e565b613351565b61063b610a223660046168e1565b613366565b61070f610a353660046168e1565b613467565b6106456134a9565b61063b610a50366004616935565b6134af565b61070f610a63366004616881565b61392b565b61070f610a7636600461665e565b613991565b6106456139e4565b61072c613a99565b61070f610a99366004616644565b613aa8565b61084f610aac366004616982565b613bf6565b610645610abf366004616687565b613dfd565b61084f610ad2366004616982565b613ee9565b61063b610ae5366004616644565b614051565b610645610af83660046168e1565b6140b2565b610645610b0b366004616644565b6140ef565b610645614101565b610645614107565b610645610b2e36600461665e565b61410d565b61063b610b4136600461679a565b6141a2565b61070f610b5436600461665e565b61427a565b61064561429a565b61072c610b6f36600461665e565b6142a0565b610645610b8236600461690a565b6142bc565b610645610b9536600461665e565b6142d9565b61070f610ba83660046168e1565b61431e565b610bc0610bbb3660046168e1565b614323565b6040516106529190617a3b565b61063b610bdb3660046168e1565b6145f8565b61063b610bee366004616644565b61463c565b61063b610c01366004616644565b61469d565b61084f610c143660046168e1565b6146fe565b610772610c273660046168e1565b614777565b610645614822565b61070f610c42366004616644565b614828565b61063b610c553660046168e1565b614849565b61063b610c683660046168e1565b614985565b6106dc610c7b3660046168e1565b6149c9565b610645614dd2565b610645614dd8565b61063b610c9e366004616644565b614dde565b610645610cb1366004616644565b614e4f565b610645614ef0565b61063b614ef6565b61070f610cd43660046168e1565b6150bb565b61070f6150c3565b61072c6150dc565b610645610cf7366004616644565b6150eb565b610d04615211565b610d0d83612021565b610d325760405162461bcd60e51b8152600401610d299061761d565b60405180910390fd5b33600090815260096020908152604080832086845290915290205460ff16610d6c5760405162461bcd60e51b8152600401610d2990617193565b610d7633846142d9565b610d8083836119da565b14610d9d5760405162461bcd60e51b8152600401610d2990616f09565b6000610da9338561410d565b90508260011415610de0576000848152601d602052604081206007018054839290610dd5908490617e44565b90915550610e079050565b6000848152601d602052604081206008018054839290610e01908490617e44565b90915550505b336000908152600d60205260409081902090516301039dfd60e11b815273__$85afbab79b2b776d70bef879a32ed56424$__916302073bfa91610e4f91908890600401616bbf565b60006040518083038186803b158015610e6757600080fd5b505af4158015610e7b573d6000803e3d6000fd5b5050336000818152600a602090815260408083208a84528252808320805460ff19166001908117909155600b8352818420948452938252808320899055601182528083208a8452601d90925290912060030154909350610edc925090615399565b6000868152601d602052604090206003908101919091558101805460ff19166001179055610f08612da1565b6005820155610f16336153a5565b601680546001818101835560009283527fd833147d7dc355ba459fc788f669e58cfaf9dc25ddcd0702e87d69c7b512428990910180546001600160a01b03191633179055601e805491929091610f6d908490617e44565b90915550506000858152601d602052604090819020600781015460089091015491513392879289927f0867b5027231dcbf37614eaad07d667b9febaf9fdf483f488229b1f140bb074892610fc5928992909190617d0f565b60405180910390a45050505050565b60045481565b610fe26154fd565b6001600160a01b0316610ff36130d2565b6001600160a01b0316146110195760405162461bcd60e51b8152600401610d29906174ec565b602280546001600160a01b0319166001600160a01b0392909216919091179055565b600061104682611a0e565b6110625760405162461bcd60e51b8152600401610d29906171e2565b61106b82612081565b1561108857506000818152601d602052604090206007015461109c565b506000818152601d60205260409020600801545b919050565b60006110ab615211565b60005b88518110156113b25760008982815181106110d957634e487b7160e01b600052603260045260246000fd5b60200260200101519050600088888481811061110557634e487b7160e01b600052603260045260246000fd5b90506020028101906111179190617da8565b8080601f0160208091040260200160405190810160405280939291908181526020018383808284376000920182905250338082526013602090815260408084206010548154600181018355918652838620909101558051610100810182528a815291820192909252429181019190915260608101869052608081018d905260a081018c905260c081018b905294955060e08501935091506111b59050565b905260105460009081526012602090815260409091208251805191926111e09284929091019061622e565b506020828101516001830180546001600160a01b0319166001600160a01b039092169190911790556040830151600283015560608301518051611229926003850192019061622e565b50608082015180516112459160048401916020909101906162b2565b5060a0820151805161126191600584019160209091019061630b565b5060c0820151805161127d91600684019160209091019061622e565b5060e082015160078201805460ff191660018360038111156112af57634e487b7160e01b600052602160045260246000fd5b021790555050601a546000908152601d602052604090206002810154909150600511156112fd5760018160020160008282546112eb9190617e44565b90915550506010546001820155611342565b600481018054600160ff19909116811761ff001916909155601a8054600090611327908490617e44565b9091555050601054601a546000908152601d60205260409020555b61134a611dfe565b601054611358906001617e44565b60108190556040513391907fb7b95e293993cd6c0c54a48cee487ef3dd8f51be568be962db90e7784af70dd19061139490879087908e90616ce8565b60405180910390a350505080806113aa90617f11565b9150506110ae565b506001601e60008282546113c69190617e44565b909155505060105490505b979650505050505050565b6012602052600090815260409020805481906113f790617ed6565b80601f016020809104026020016040519081016040528092919081815260200182805461142390617ed6565b80156114705780601f1061144557610100808354040283529160200191611470565b820191906000526020600020905b81548152906001019060200180831161145357829003601f168201915b505050506001830154600284015460038501805494956001600160a01b03909316949193509061149f90617ed6565b80601f01602080910402602001604051908101604052809291908181526020018280546114cb90617ed6565b80156115185780601f106114ed57610100808354040283529160200191611518565b820191906000526020600020905b8154815290600101906020018083116114fb57829003601f168201915b50505050509080600601805461152d90617ed6565b80601f016020809104026020016040519081016040528092919081815260200182805461155990617ed6565b80156115a65780601f1061157b576101008083540402835291602001916115a6565b820191906000526020600020905b81548152906001019060200180831161158957829003601f168201915b5050506007909301549192505060ff1686565b60105481565b60055481565b60606115d0826150bb565b6115ec5760405162461bcd60e51b8152600401610d29906176aa565b6000828152601d6020908152604080832081516101e0810183528154815260018201549381019390935260028101549183019190915260038101546060830152600481015460ff808216151560808501526101008083048216151560a08601526201000090920416151560c0840152600582015460e0840152600682015490830152600781015461012083015260088101546101408301526009810180546101608401919061169a90617ed6565b80601f01602080910402602001604051908101604052809291908181526020018280546116c690617ed6565b80156117135780601f106116e857610100808354040283529160200191611713565b820191906000526020600020905b8154815290600101906020018083116116f657829003601f168201915b5050509183525050600a82015460209091019060ff16600381111561174857634e487b7160e01b600052602160045260246000fd5b600381111561176757634e487b7160e01b600052602160045260246000fd5b8152602001600b8201805480602002602001604051908101604052809291908181526020016000905b8282101561183c5783829060005260206000200180546117af90617ed6565b80601f01602080910402602001604051908101604052809291908181526020018280546117db90617ed6565b80156118285780601f106117fd57610100808354040283529160200191611828565b820191906000526020600020905b81548152906001019060200180831161180b57829003601f168201915b505050505081526020019060010190611790565b505050508152602001600c820180548060200260200160405190810160405280929190818152602001828054801561189357602002820191906000526020600020905b81548152602001906001019080831161187f575b505050919092525050506040818101518151600580825260c0820190935292935091600091816020015b60608152602001906001900390816118bd57905050905060005b828110156119d15783516000906118ef908390617e44565b60008181526012602052604081206003018054929350909161191090617ed6565b80601f016020809104026020016040519081016040528092919081815260200182805461193c90617ed6565b80156119895780601f1061195e57610100808354040283529160200191611989565b820191906000526020600020905b81548152906001019060200180831161196c57829003601f168201915b50505050509050808484815181106119b157634e487b7160e01b600052603260045260246000fd5b6020026020010181905250505080806119c990617f11565b9150506118d7565b50949350505050565b600082826040516020016119ef929190616bbf565b6040516020818303038152906040528051906020012090505b92915050565b6000611a19826150bb565b611a355760405162461bcd60e51b8152600401610d2990617a12565b6000828152601d6020526040902060060154611a089061431e565b611a58615211565b336000908152601160205260409020600781015460ff161515600114611a905760405162461bcd60e51b8152600401610d29906170eb565b6000611a9a612da1565b9050611aa533615501565b611aae336153a5565b8154336001600160a01b031991821681178455600180850180549093169091179091556005830182905560078301805460ff19169055601e8054600090611af6908490617e44565b909155505060405133907f9dadcedba048e92b943ea1c5861cee1df63a566d7f795869c004780c1c698e2b90611b2d908490616b9a565b60405180910390a25050565b6021546001600160a01b031681565b600080611b5485611f81565b90506000611b62868361410d565b90505b8115611cda57611b75868361410d565b9050848111611c325783821415611c2a576001600160a01b0386166000908152600d60205260409081902090516301c39b2b60e11b815273__$85afbab79b2b776d70bef879a32ed56424$__91630387365691611bd791908690600401616bbf565b60206040518083038186803b158015611bef57600080fd5b505af4158015611c03573d6000803e3d6000fd5b505050506040513d601f19601f82011682018060405250810190611c2791906168f9565b91505b509050611cde565b6001600160a01b0386166000908152600d60205260409081902090516301c39b2b60e11b815273__$85afbab79b2b776d70bef879a32ed56424$__91630387365691611c8391908690600401616bbf565b60206040518083038186803b158015611c9b57600080fd5b505af4158015611caf573d6000803e3d6000fd5b505050506040513d601f19601f82011682018060405250810190611cd391906168f9565b9150611b65565b5090505b9392505050565b600960209081526000928352604080842090915290825290205460ff1681565b600c60209081526000928352604080842090915290825290208054611d2990617ed6565b80601f0160208091040260200160405190810160405280929190818152602001828054611d5590617ed6565b8015611da25780601f10611d7757610100808354040283529160200191611da2565b820191906000526020600020905b815481529060010190602001808311611d8557829003601f168201915b505050505081565b600f5481565b6000818152601d6020526040812060088101546007909101548291611cde91617e44565b60168181548110611de457600080fd5b6000918252602090912001546001600160a01b0316905081565b601c546000908152601d602052604090206004015460ff1680611e22575060165415155b611e3e5760405162461bcd60e51b8152600401610d29906172d5565b601c546000908152601d602052604081206004015462010000900460ff161515600114801590611e6f575060165415155b8015611e8f5750601c546000908152601d602052604090206004015460ff165b15611ea057611e9c61291d565b5060015b601b546000908152601d602052604090206004015462010000900460ff1615156001148015611ef25750611ed5601b54611a0e565b80611ef25750601b546000908152601d6020526040902060030154155b15611f1757611f02601b54615631565b601b54611f10906001615fc2565b601b555060015b8015611f2f57600f54611f2b906001615fc2565b600f555b600f546040517f94d48a7342690f1233e3f4db70efa37c4f1f25f4d0397c353f3f15aecdeca5f490600090a250565b60405160009080602081848060185afa611f7457fe5b5051919050565b60075481565b6001600160a01b0381166000908152600d602052604080822090516301c39b2b60e11b815273__$85afbab79b2b776d70bef879a32ed56424$__91630387365691611fd191908590600401616bbf565b60206040518083038186803b158015611fe957600080fd5b505af4158015611ffd573d6000803e3d6000fd5b505050506040513d601f19601f82011682018060405250810190611a0891906168f9565b600061202c826150bb565b6120485760405162461bcd60e51b8152600401610d29906176aa565b6000828152601d60205260409020600601546120639061431e565b158015611a08575061207482613467565b1592915050565b601b5490565b6000818152601d6020908152604080832081516101e0810183528154815260018201549381019390935260028101549183019190915260038101546060830152600481015460ff808216151560808501526101008083048216151560a08601526201000090920416151560c0840152600582015460e0840152600682015490830152600781015461012083015260088101546101408301526009810180548493929161016084019161213290617ed6565b80601f016020809104026020016040519081016040528092919081815260200182805461215e90617ed6565b80156121ab5780601f10612180576101008083540402835291602001916121ab565b820191906000526020600020905b81548152906001019060200180831161218e57829003601f168201915b5050509183525050600a82015460209091019060ff1660038111156121e057634e487b7160e01b600052602160045260246000fd5b60038111156121ff57634e487b7160e01b600052602160045260246000fd5b8152602001600b8201805480602002602001604051908101604052809291908181526020016000905b828210156122d457838290600052602060002001805461224790617ed6565b80601f016020809104026020016040519081016040528092919081815260200182805461227390617ed6565b80156122c05780601f10612295576101008083540402835291602001916122c0565b820191906000526020600020905b8154815290600101906020018083116122a357829003601f168201915b505050505081526020019060010190612228565b505050508152602001600c820180548060200260200160405190810160405280929190818152602001828054801561232b57602002820191906000526020600020905b815481526020019060010190808311612317575b505050505081525050905080610140015181610120015161234c9190617e44565b6007546123599190617e70565b61012082015161236a906064617e70565b119392505050565b61237a6154fd565b6001600160a01b031661238b6130d2565b6001600160a01b0316146123b15760405162461bcd60e51b8152600401610d29906174ec565b601980546001600160a01b0319166001600160a01b0392909216919091179055565b8483146123f25760405162461bcd60e51b8152600401610d2990617810565b60005b858110156124cc576124ba87878381811061242057634e487b7160e01b600052603260045260246000fd5b9050602002013586868481811061244757634e487b7160e01b600052603260045260246000fd5b9050602002013585858581811061246e57634e487b7160e01b600052603260045260246000fd5b90506020028101906124809190617da8565b8080601f0160208091040260200160405190810160405280939291908181526020018383808284376000920191909152506134af92505050565b806124c481617f11565b9150506123f5565b50505050505050565b601a5490565b6022546001600160a01b031681565b6001600160a01b03811660009081526013602090815260409182902080548351818402810184019094528084526060939283018282801561254a57602002820191906000526020600020905b815481526020019060010190808311612536575b50505050509050919050565b61255e6154fd565b6001600160a01b031661256f6130d2565b6001600160a01b0316146125955760405162461bcd60e51b8152600401610d29906174ec565b600355565b6125a2616345565b60008281526012602052604090819020815161010081019092528054829082906125cb90617ed6565b80601f01602080910402602001604051908101604052809291908181526020018280546125f790617ed6565b80156126445780601f1061261957610100808354040283529160200191612644565b820191906000526020600020905b81548152906001019060200180831161262757829003601f168201915b505050918352505060018201546001600160a01b031660208201526002820154604082015260038201805460609092019161267e90617ed6565b80601f01602080910402602001604051908101604052809291908181526020018280546126aa90617ed6565b80156126f75780601f106126cc576101008083540402835291602001916126f7565b820191906000526020600020905b8154815290600101906020018083116126da57829003601f168201915b5050505050815260200160048201805480602002602001604051908101604052809291908181526020016000905b828210156127d157838290600052602060002001805461274490617ed6565b80601f016020809104026020016040519081016040528092919081815260200182805461277090617ed6565b80156127bd5780601f10612792576101008083540402835291602001916127bd565b820191906000526020600020905b8154815290600101906020018083116127a057829003601f168201915b505050505081526020019060010190612725565b5050505081526020016005820180548060200260200160405190810160405280929190818152602001828054801561282857602002820191906000526020600020905b815481526020019060010190808311612814575b5050505050815260200160068201805461284190617ed6565b80601f016020809104026020016040519081016040528092919081815260200182805461286d90617ed6565b80156128ba5780601f1061288f576101008083540402835291602001916128ba565b820191906000526020600020905b81548152906001019060200180831161289d57829003601f168201915b5050509183525050600782015460209091019060ff1660038111156128ef57634e487b7160e01b600052602160045260246000fd5b600381111561290e57634e487b7160e01b600052602160045260246000fd5b90525092915050565b60035481565b601c546000908152601d602052604090206004015460ff166129515760405162461bcd60e51b8152600401610d29906175c7565b601c546000908152601d602052604090206004015462010000900460ff161561298c5760405162461bcd60e51b8152600401610d2990617421565b60006129a96129a2601680549050600854615fce565b6001615fe4565b601654601c546000908152601d6020526040812060030183905560025492935090916129d6904290615fc2565b905060006129ef60035483615fc290919063ffffffff16565b601c80546000908152601d6020526040808220600501869055825482528082206006018490559154815220600401805462ff0000191662010000179055905060018410801590612a40575060018310155b612a5c5760405162461bcd60e51b8152600401610d299061701b565b6000612a688585613ee9565b9050600081516001600160401b03811115612a9357634e487b7160e01b600052604160045260246000fd5b604051908082528060200260200182016040528015612abc578160200160208202803683370190505b50905060005b8251811015612b7b576016838281518110612aed57634e487b7160e01b600052603260045260246000fd5b602002602001015181548110612b1357634e487b7160e01b600052603260045260246000fd5b9060005260206000200160009054906101000a90046001600160a01b0316828281518110612b5157634e487b7160e01b600052603260045260246000fd5b6001600160a01b039092166020928302919091019091015280612b7381617f11565b915050612ac2565b5060005b8251811015612ccf576000828281518110612baa57634e487b7160e01b600052603260045260246000fd5b6020908102919091018101516001600160a01b03811660008181526011845260408082206017805460018181019092557fc624b66cc0138b8fabc209247f72d758e1cf3343756d543badbf24212bed8c150180546001600160a01b03199081168717909155601c548552601888529284208054918201815584529590922090940180549094169091179092558451909250612c6c90859085908110612c5f57634e487b7160e01b600052603260045260246000fd5b6020026020010151615501565b601c8054600283015560038201805460ff19169055546040517fe4ee2dfabe57cee15e3f558890b20455f54c1fa0718e5276faad70a6500e6b8c90612cb2908590616bcd565b60405180910390a250508080612cc790617f11565b915050612b7f565b50601c54612cde906001615fc2565b601c819055506001601e6000828254612cf79190617e44565b9091555050505050505050565b6000611a0882610b2e84611f81565b612d1b6154fd565b6001600160a01b0316612d2c6130d2565b6001600160a01b031614612d525760405162461bcd60e51b8152600401610d29906174ec565b612d5c6000615ff4565b565b6000612d69826150bb565b612d855760405162461bcd60e51b8152600401610d29906176aa565b506000908152601d602052604090206006015490565b60065481565b4290565b6023546001600160a01b031681565b612dbc6154fd565b6001600160a01b0316612dcd6130d2565b6001600160a01b031614612df35760405162461bcd60e51b8152600401610d29906174ec565b602480546001600160a01b0319166001600160a01b0392909216919091179055565b601754601654600091612e2791617e44565b905090565b6000612e37826150bb565b612e535760405162461bcd60e51b8152600401610d29906176aa565b506001600160a01b03919091166000908152600960209081526040808320938352929052205460ff1690565b601d60205260009081526040902080546001820154600283015460038401546004850154600586015460068701546007880154600889015460098a018054999a98999798969760ff80881698610100890482169862010000900490911696959493929091612eec90617ed6565b80601f0160208091040260200160405190810160405280929190818152602001828054612f1890617ed6565b8015612f655780601f10612f3a57610100808354040283529160200191612f65565b820191906000526020600020905b815481529060010190602001808311612f4857829003601f168201915b505050600a909301549192505060ff168d565b600080612f85848761410d565b83101590506000612f96858761410d565b84111580612fa2575085155b90508180156113d157509695505050505050565b60178181548110611de457600080fd5b6020546001600160a01b031681565b601a5481565b60116020526000908152604090208054600182015460028301546003840154600485015460058601546006870180546001600160a01b03978816989690971696949560ff909416949293919261303090617ed6565b80601f016020809104026020016040519081016040528092919081815260200182805461305c90617ed6565b80156130a95780601f1061307e576101008083540402835291602001916130a9565b820191906000526020600020905b81548152906001019060200180831161308c57829003601f168201915b505050506007830154600890930154919260ff1691905089565b6024546001600160a01b031681565b6000546001600160a01b031690565b601860205281600052604060002081815481106130fd57600080fd5b6000918252602090912001546001600160a01b03169150829050565b60016000828152601d60205260409020600a015460ff16600381111561314f57634e487b7160e01b600052602160045260246000fd5b1461316c5760405162461bcd60e51b8152600401610d2990616e0c565b336000908152600d60205260409081902090516306120d1f60e31b815273__$85afbab79b2b776d70bef879a32ed56424$__9163309068f8916131b491908590600401616bbf565b60206040518083038186803b1580156131cc57600080fd5b505af41580156131e0573d6000803e3d6000fd5b505050506040513d601f19601f820116820180604052508101906132049190616861565b6132205760405162461bcd60e51b8152600401610d299061734b565b336000908152600d60205260409081902090516301039dfd60e11b815273__$85afbab79b2b776d70bef879a32ed56424$__916302073bfa9161326891908590600401616bbf565b60006040518083038186803b15801561328057600080fd5b505af4158015613294573d6000803e3d6000fd5b50506040513392508391507f402507661c8c8cb90e0a796450b8bdd28b6c516f05279c0cd29e84c344e1699a90600090a350565b600f5490565b601360205281600052604060002081815481106132ea57600080fd5b90600052602060002001600091509150505481565b60005b815181101561334d5761333b82828151811061332e57634e487b7160e01b600052603260045260246000fd5b6020026020010151613119565b8061334581617f11565b915050613302565b5050565b600082826040516020016119ef929190616b78565b6020546040516304ada21f60e21b81526001600160a01b03909116906312b6887c906133989084903390600401617cda565b602060405180830381600087803b1580156133b257600080fd5b505af11580156133c6573d6000803e3d6000fd5b505050506040513d601f19601f820116820180604052508101906133ea9190616861565b6134065760405162461bcd60e51b8152600401610d2990617136565b3360009081526014602052604081208054839290613425908490617e44565b909155505060405133907ff7aaf024511d9982df8cd0d437c71c30106e6848cd1ba3d288d7a9c0e276aeda9061345c908490616b9a565b60405180910390a250565b6000613472826150bb565b61348e5760405162461bcd60e51b8152600401610d29906176aa565b6000828152601d60205260409020600501546120749061431e565b60105490565b6134b7615211565b6134c083613467565b6134dc5760405162461bcd60e51b8152600401610d2990617065565b826134e6336150eb565b146135035760405162461bcd60e51b8152600401610d299061747e565b600154336000908152601460205260409020548111156135455733600090815260146020526040812054613538908390615399565b905061354381613366565b505b336000908152601460205260409020548111156135745760405162461bcd60e51b8152600401610d29906178c1565b6000336000908152600d60205260408082209051631e0f232560e31b815273__$85afbab79b2b776d70bef879a32ed56424$__9163f0791928916135bd91908690600401616bbf565b60206040518083038186803b1580156135d557600080fd5b505af41580156135e9573d6000803e3d6000fd5b505050506040513d601f19601f8201168201806040525081019061360d91906168f9565b9050858114156136b257336000908152600d6020526040908190209051631e0f232560e31b815273__$85afbab79b2b776d70bef879a32ed56424$__9163f07919289161365f91908a90600401616bbf565b60206040518083038186803b15801561367757600080fd5b505af415801561368b573d6000803e3d6000fd5b505050506040513d601f19601f820116820180604052508101906136af91906168f9565b90505b6136be82823386612f78565b6136da5760405162461bcd60e51b8152600401610d29906173f3565b336000908152600d602052604090819020905163524cfe5360e11b815273__$85afbab79b2b776d70bef879a32ed56424$__9163a499fca691613726919086908b908790600401617bef565b60006040518083038186803b15801561373e57600080fd5b505af4158015613752573d6000803e3d6000fd5b5050505060006137623388613351565b60408051808201825260098152686e756d546f6b656e7360b81b6020820152905163099b040f60e31b81529192509073__$0947e710b66d7779e1d561254425e1375a$__90634cd82078906137c290600e90869086908b90600401617b44565b60006040518083038186803b1580156137da57600080fd5b505af41580156137ee573d6000803e3d6000fd5b505060405163099b040f60e31b815273__$0947e710b66d7779e1d561254425e1375a$__9250634cd82078915061382e90600e9086908c90600401617b92565b60006040518083038186803b15801561384657600080fd5b505af415801561385a573d6000803e3d6000fd5b5050506000898152600c60209081526040808320338452825290912088516138879350909189019061622e565b5033600090815260116020526040902061389f612da1565b60058201553360009081526009602090815260408083208c84529091528120805460ff19166001908117909155601e8054919290916138df908490617e44565b909155505060405133908a907f42864d9683ff5b12c3b2cc65d705af5aab104b03bc700b802f79e5c971ef08a190613918908a90616b9a565b60405180910390a3505050505050505050565b60008160405160200161393e9190616ba3565b60405160208183030381529060405280519060200120836040516020016139659190616ba3565b60405160208183030381529060405280519060200120141561398957506001611a08565b506000611a08565b600061399c826150bb565b6139b85760405162461bcd60e51b8152600401610d29906176aa565b506001600160a01b03919091166000908152600a60209081526040808320938352929052205460ff1690565b60008042416040516020016139f99190616b5b565b6040516020818303038152906040528051906020012060001c613a1c9190617e5c565b44613a25611f5e565b604051602001613a359190616b9a565b60408051601f198184030181529190528051602090910120613a579042617e44565b613a619190617e44565b613a6b9190617e44565b604051602001613a7b9190616b9a565b60408051601f19818403018152919052805160209091012091505090565b6019546001600160a01b031681565b6001600160a01b038082166000908152601160209081526040808320815161012081018352815486168152600182015490951692850192909252600282015490840152600381015460ff161515606084015260048101546080840152600581015460a0840152600681018054929384938493919260c0840191613b2a90617ed6565b80601f0160208091040260200160405190810160405280929190818152602001828054613b5690617ed6565b8015613ba35780601f10613b7857610100808354040283529160200191613ba3565b820191906000526020600020905b815481529060010190602001808311613b8657829003601f168201915b5050509183525050600782015460ff16151560208201526008909101546040909101526060810151909150158015613be55750613be38160400151611a0e565b155b15613bef57600191505b5092915050565b606060008211613c0557600080fd5b600041604051602001613c189190616b5b565b6040516020818303038152906040528051906020012060001c613c39611f5e565b604051602001613c499190616b9a565b60408051601f198184030181529190528051602090910120613c6b9042617e44565b613c759190617e44565b604051602001613c859190616b9a565b6040516020818303038152906040528051906020012060001c90506000846001600160401b03811115613cc857634e487b7160e01b600052604160045260246000fd5b604051908082528060200260200182016040528015613cf1578160200160208202803683370190505b5090506000805b86821015613df257600086613d1163017efeeb87617e8f565b83604051602001613d23929190616bbf565b6040516020818303038152906040528051906020012060001c613d469190617f2c565b90506000805b84811015613d9e5782868281518110613d7557634e487b7160e01b600052603260045260246000fd5b60200260200101511415613d8c5760019150613d9e565b80613d9681617f11565b915050613d4c565b5080613dde5781858581518110613dc557634e487b7160e01b600052603260045260246000fd5b6020908102919091010152613ddb846001617e44565b93505b613de9836001617e44565b92505050613cf8565b509095945050505050565b6000613e0883611a0e565b613e245760405162461bcd60e51b8152600401610d299061796b565b6001600160a01b0384166000908152600a6020908152604080832086845290915290205460ff16613e675760405162461bcd60e51b8152600401610d29906173a8565b6000613e7284612081565b613e7d576000613e80565b60015b60ff16905060008184604051602001613e9a929190616bbf565b6040516020818303038152906040528051906020012090506000613ebe87876142d9565b9050808214613edf5760405162461bcd60e51b8152600401610d299061757e565b6113d1878761410d565b6060600082118015613efb5750818311155b8015613f08575060018310155b613f245760405162461bcd60e51b8152600401610d2990616fd2565b6000826001600160401b03811115613f4c57634e487b7160e01b600052604160045260246000fd5b604051908082528060200260200182016040528015613f75578160200160208202803683370190505b5090506000846001600160401b03811115613fa057634e487b7160e01b600052604160045260246000fd5b604051908082528060200260200182016040528015613fc9578160200160208202803683370190505b5090506000613fdf613fda84616044565b61609a565b905060005b86811015613df25781818151811061400c57634e487b7160e01b600052603260045260246000fd5b602002602001015183828151811061403457634e487b7160e01b600052603260045260246000fd5b60209081029190910101528061404981617f11565b915050613fe4565b6140596154fd565b6001600160a01b031661406a6130d2565b6001600160a01b0316146140905760405162461bcd60e51b8152600401610d29906174ec565b602380546001600160a01b0319166001600160a01b0392909216919091179055565b60006140bd826150bb565b6140d95760405162461bcd60e51b8152600401610d29906176aa565b506000908152601d602052604090206005015490565b60146020526000908152604090205481565b60085481565b60015481565b600073__$0947e710b66d7779e1d561254425e1375a$__6369810158600e6141358686613351565b6040518363ffffffff1660e01b8152600401614152929190617bc0565b60206040518083038186803b15801561416a57600080fd5b505af415801561417e573d6000803e3d6000fd5b505050506040513d601f19601f82011682018060405250810190611cde91906168f9565b8483146141c15760405162461bcd60e51b8152600401610d2990617210565b8481146141e05760405162461bcd60e51b8152600401610d299061770e565b60005b858110156124cc5761426887878381811061420e57634e487b7160e01b600052603260045260246000fd5b9050602002013586868481811061423557634e487b7160e01b600052603260045260246000fd5b9050602002013585858581811061425c57634e487b7160e01b600052603260045260246000fd5b90506020020135610cfc565b8061427281617f11565b9150506141e3565b600a60209081526000928352604080842090915290825290205460ff1681565b601c5481565b601560205281600052604060002081815481106130fd57600080fd5b600b60209081526000928352604080842090915290825290205481565b600073__$0947e710b66d7779e1d561254425e1375a$__6369810158600e6143018686613351565b6040518363ffffffff1660e01b8152600401614152929190617b74565b421190565b61432b6163b1565b614334826150bb565b61433d57600080fd5b6000828152601d602090815260409182902082516101e0810184528154815260018201549281019290925260028101549282019290925260038201546060820152600482015460ff808216151560808401526101008083048216151560a08501526201000090920416151560c0830152600583015460e083015260068301549082015260078201546101208201526008820154610140820152600982018054919291610160840191906143ef90617ed6565b80601f016020809104026020016040519081016040528092919081815260200182805461441b90617ed6565b80156144685780601f1061443d57610100808354040283529160200191614468565b820191906000526020600020905b81548152906001019060200180831161444b57829003601f168201915b5050509183525050600a82015460209091019060ff16600381111561449d57634e487b7160e01b600052602160045260246000fd5b60038111156144bc57634e487b7160e01b600052602160045260246000fd5b8152602001600b8201805480602002602001604051908101604052809291908181526020016000905b8282101561459157838290600052602060002001805461450490617ed6565b80601f016020809104026020016040519081016040528092919081815260200182805461453090617ed6565b801561457d5780601f106145525761010080835404028352916020019161457d565b820191906000526020600020905b81548152906001019060200180831161456057829003601f168201915b5050505050815260200190600101906144e5565b505050508152602001600c82018054806020026020016040519081016040528092919081815260200182805480156145e857602002820191906000526020600020905b8154815260200190600101908083116145d4575b5050505050815250509050919050565b6146006154fd565b6001600160a01b03166146116130d2565b6001600160a01b0316146146375760405162461bcd60e51b8152600401610d29906174ec565b600855565b6146446154fd565b6001600160a01b03166146556130d2565b6001600160a01b03161461467b5760405162461bcd60e51b8152600401610d29906174ec565b602180546001600160a01b0319166001600160a01b0392909216919091179055565b6146a56154fd565b6001600160a01b03166146b66130d2565b6001600160a01b0316146146dc5760405162461bcd60e51b8152600401610d29906174ec565b602080546001600160a01b0319166001600160a01b0392909216919091179055565b60606000821161470d57600080fd5b6000826001600160401b0381111561473557634e487b7160e01b600052604160045260246000fd5b60405190808252806020026020018201604052801561475e578160200160208202803683370190505b509050600061476f613fda83616044565b949350505050565b6060614782826150bb565b61478b57600080fd5b6000828152601d6020526040902060090180546147a790617ed6565b80601f01602080910402602001604051908101604052809291908181526020018280546147d390617ed6565b801561254a5780601f106147f55761010080835404028352916020019161254a565b820191906000526020600020905b8154815290600101906020018083116148035750939695505050505050565b60025481565b6001600160a01b031660009081526011602052604090206007015460ff1690565b600061486d61485733612d04565b3360009081526014602052604090205490615399565b90508181101561488f5760405162461bcd60e51b8152600401610d2990617663565b602054604051630895993360e11b81526001600160a01b039091169063112b3266906148c19085903390600401617cda565b602060405180830381600087803b1580156148db57600080fd5b505af11580156148ef573d6000803e3d6000fd5b505050506040513d601f19601f820116820180604052508101906149139190616861565b61492f5760405162461bcd60e51b8152600401610d29906179b5565b336000908152601460205260408120805484929061494e908490617e8f565b909155505060405133907ffaeb7dbb9992397d26ea1944efd40c80b40f702faf69b46c67ad10aba68ccb7990611b2d908590616b9a565b61498d6154fd565b6001600160a01b031661499e6130d2565b6001600160a01b0316146149c45760405162461bcd60e51b8152600401610d29906174ec565b600255565b60606149d4826150bb565b6149f05760405162461bcd60e51b8152600401610d29906176aa565b6000828152601d6020908152604080832081516101e0810183528154815260018201549381019390935260028101549183019190915260038101546060830152600481015460ff808216151560808501526101008083048216151560a08601526201000090920416151560c0840152600582015460e08401526006820154908301526007810154610120830152600881015461014083015260098101805461016084019190614a9e90617ed6565b80601f0160208091040260200160405190810160405280929190818152602001828054614aca90617ed6565b8015614b175780601f10614aec57610100808354040283529160200191614b17565b820191906000526020600020905b815481529060010190602001808311614afa57829003601f168201915b5050509183525050600a82015460209091019060ff166003811115614b4c57634e487b7160e01b600052602160045260246000fd5b6003811115614b6b57634e487b7160e01b600052602160045260246000fd5b8152602001600b8201805480602002602001604051908101604052809291908181526020016000905b82821015614c40578382906000526020600020018054614bb390617ed6565b80601f0160208091040260200160405190810160405280929190818152602001828054614bdf90617ed6565b8015614c2c5780601f10614c0157610100808354040283529160200191614c2c565b820191906000526020600020905b815481529060010190602001808311614c0f57829003601f168201915b505050505081526020019060010190614b94565b505050508152602001600c8201805480602002602001604051908101604052809291908181526020018280548015614c9757602002820191906000526020600020905b815481526020019060010190808311614c83575b505050919092525050506040818101518151600580825260c0820190935292935091600091816020015b6060815260200190600190039081614cc157905050905060005b828110156119d1578351600090614cf3908390617e44565b600081815260126020526040812080549293509091614d1190617ed6565b80601f0160208091040260200160405190810160405280929190818152602001828054614d3d90617ed6565b8015614d8a5780601f10614d5f57610100808354040283529160200191614d8a565b820191906000526020600020905b815481529060010190602001808311614d6d57829003601f168201915b5050505050905080848481518110614db257634e487b7160e01b600052603260045260246000fd5b602002602001018190525050508080614dca90617f11565b915050614cdb565b601b5481565b601e5481565b614de66154fd565b6001600160a01b0316614df76130d2565b6001600160a01b031614614e1d5760405162461bcd60e51b8152600401610d29906174ec565b6001600160a01b038116614e435760405162461bcd60e51b8152600401610d2990616f8c565b614e4c81615ff4565b50565b6001600160a01b038116600090815260136020908152604080832080548251818502810185019093528083528493830182828015614eac57602002820191906000526020600020905b815481526020019060010190808311614e98575b505050505090508060018251614ec29190617e8f565b81518110614ee057634e487b7160e01b600052603260045260246000fd5b6020026020010151915050919050565b601e5490565b614efe615211565b3360009081526011602052604090206017546016546103e891614f2091617e44565b10614f3d5760405162461bcd60e51b8152600401610d299061787f565b600781015460ff1615614f625760405162461bcd60e51b8152600401610d2990616dd5565b6000614f6c612da1565b6001543360009081526014602052604090205491925090811115614fb25733600090815260146020526040812054614fa5908390615399565b9050614fb081613366565b505b33600090815260146020526040902054811115614fe15760405162461bcd60e51b8152600401610d2990616e5d565b60168054600180820183556000929092527fd833147d7dc355ba459fc788f669e58cfaf9dc25ddcd0702e87d69c7b5124289018054336001600160a01b031991821681179092558554811682178655918501805490921617905560058301829055600783015460ff166150645760078301805460ff191660011790554260088401555b6001601e60008282546150779190617e44565b909155505060405133907f439d77b7534ec3108fc6143bd4fbabde0b9f2bb54f7b0730d1f70dd2135b765f906150ae908590616b9a565b60405180910390a2505050565b601a54101590565b3360009081526011602052604090206007015460ff1690565b601f546001600160a01b031681565b6001600160a01b038082166000908152601160209081526040808320815161012081018352815486168152600182015490951692850192909252600282015490840152600381015460ff161515606084015260048101546080840152600581015460a08401526006810180549293849390929160c084019161516c90617ed6565b80601f016020809104026020016040519081016040528092919081815260200182805461519890617ed6565b80156151e55780601f106151ba576101008083540402835291602001916151e5565b820191906000526020600020905b8154815290600101906020018083116151c857829003601f168201915b5050509183525050600782015460ff161515602082015260089091015460409182015201519392505050565b6019546001600160a01b03166152395760405162461bcd60e51b8152600401610d29906176e1565b6019546040516000916001600160a01b03169061525a903390602401616bcd565b60408051601f198184030181529181526020820180516001600160e01b0316631f5ac9c560e11b1790525161528f9190616ba3565b6000604051808303816000865af19150503d80600081146152cc576040519150601f19603f3d011682016040523d82523d6000602084013e6152d1565b606091505b50506019546040519192506000916001600160a01b03909116906152f9903390602401616bcd565b60408051601f198184030181529181526020820180516001600160e01b03166358563d2160e01b1790525161532e9190616ba3565b6000604051808303816000865af19150503d806000811461536b576040519150601f19603f3d011682016040523d82523d6000602084013e615370565b606091505b50509050818061537d5750805b61334d5760405162461bcd60e51b8152600401610d2990616ec4565b6000611cde8284617e8f565b60008060005b60175481101561541957836001600160a01b0316601782815481106153e057634e487b7160e01b600052603260045260246000fd5b6000918252602090912001546001600160a01b031614156154075760019150809250615419565b8061541181617f11565b9150506153ab565b5080156154f8576017805461543090600190617e8f565b8154811061544e57634e487b7160e01b600052603260045260246000fd5b600091825260209091200154601780546001600160a01b03909216918490811061548857634e487b7160e01b600052603260045260246000fd5b9060005260206000200160006101000a8154816001600160a01b0302191690836001600160a01b0316021790555060178054806154d557634e487b7160e01b600052603160045260246000fd5b600082815260209020810160001990810180546001600160a01b03191690550190555b505050565b3390565b60008060005b60165481101561557557836001600160a01b03166016828154811061553c57634e487b7160e01b600052603260045260246000fd5b6000918252602090912001546001600160a01b031614156155635760019150809250615575565b8061556d81617f11565b915050615507565b5080156154f8576016805461558c90600190617e8f565b815481106155aa57634e487b7160e01b600052603260045260246000fd5b600091825260209091200154601680546001600160a01b0390921691849081106155e457634e487b7160e01b600052603260045260246000fd5b9060005260206000200160006101000a8154816001600160a01b0302191690836001600160a01b0316021790555060168054806154d557634e487b7160e01b600052603160045260246000fd5b61563a81611a0e565b8061565457506000818152601d6020526040902060030154155b6156705760405162461bcd60e51b8152600401610d2990617521565b6000818152601d6020526040902060040154610100900460ff16156156a75760405162461bcd60e51b8152600401610d29906177cf565b6000818152601d6020526040902060040154610100900460ff16614e4c5760006156d082612081565b60008381526018602090815260408083208054825181850281018501909352808352949550929390929183018282801561573357602002820191906000526020600020905b81546001600160a01b03168152600190910190602001808311615715575b50505050509050600081516001600160401b0381111561576357634e487b7160e01b600052604160045260246000fd5b60405190808252806020026020018201604052801561579657816020015b60608152602001906001900390816157815790505b50905060005b8251811015615b225760008382815181106157c757634e487b7160e01b600052603260045260246000fd5b6020908102919091018101516000888152600b835260408082206001600160a01b03841680845290855281832054600a86528284208c8552865282842054600c875283852092855291909552908220805493955060ff9091169261582a90617ed6565b80601f016020809104026020016040519081016040528092919081815260200182805461585690617ed6565b80156158a35780601f10615878576101008083540402835291602001916158a3565b820191906000526020600020905b81548152906001019060200180831161588657829003601f168201915b50505050509050808686815181106158cb57634e487b7160e01b600052603260045260246000fd5b60200260200101819052506158df846153a5565b6001600160a01b03841660009081526011602052604090208215615af0576001600160a01b0385166000908152601160205260409020600301805460ff191660019081179091558915151480156159365750836001145b8061594b57508815801561594b575083600114155b15615a9257602154600654604051630db6cc8560e11b81526001600160a01b0390921691631b6d990a91615983918990600401617cf1565b602060405180830381600087803b15801561599d57600080fd5b505af11580156159b1573d6000803e3d6000fd5b505050506040513d601f19601f820116820180604052508101906159d59190616861565b6159f15760405162461bcd60e51b8152600401610d2990617288565b60225460048054604051633832942560e21b81526001600160a01b039093169263e0ca509492615a2492918a9101617cda565b602060405180830381600087803b158015615a3e57600080fd5b505af1158015615a52573d6000803e3d6000fd5b505050506040513d601f19601f82011682018060405250810190615a769190616861565b615a925760405162461bcd60e51b8152600401610d299061709c565b600781015460ff1615615aeb57601680546001810182556000919091527fd833147d7dc355ba459fc788f669e58cfaf9dc25ddcd0702e87d69c7b51242890180546001600160a01b0319166001600160a01b0387161790555b615b0a565b600781015460ff1615615b0a5760078101805460ff191690555b50505050508080615b1a90617f11565b91505061579c565b506000615b42606484516032615b389190617e70565b6129a29190617e5c565b9050600082600081518110615b6757634e487b7160e01b600052603260045260246000fd5b6020026020010151905060005b8351811015615c5d576000805b8551811015615c1257615be2868481518110615bad57634e487b7160e01b600052603260045260246000fd5b6020026020010151878381518110615bd557634e487b7160e01b600052603260045260246000fd5b602002602001015161392b565b15615c0057615bf2600183617e44565b9150848210615c0057615c12565b80615c0a81617f11565b915050615b81565b50838110615c4a57848281518110615c3a57634e487b7160e01b600052603260045260246000fd5b6020026020010151925050615c5d565b5080615c5581617f11565b915050615b74565b506000868152601d6020908152604090912060048101805461ff0019166101001790558251615c949260099092019184019061622e565b508415615f2f5760215460065460008881526012602052604090819020600101549051630db6cc8560e11b81526001600160a01b0393841693631b6d990a93615ce4939092911690600401617cf1565b602060405180830381600087803b158015615cfe57600080fd5b505af1158015615d12573d6000803e3d6000fd5b505050506040513d601f19601f82011682018060405250810190615d369190616861565b615d525760405162461bcd60e51b8152600401610d299061791e565b6022546004805460008981526012602052604090819020600101549051633832942560e21b81526001600160a01b039485169463e0ca509494615d9a94939091169101617cda565b602060405180830381600087803b158015615db457600080fd5b505af1158015615dc8573d6000803e3d6000fd5b505050506040513d601f19601f82011682018060405250810190615dec9190616861565b615e085760405162461bcd60e51b8152600401610d2990617780565b6000868152601d602052604090819020600a01805460ff1916600117905560245490516348257dc960e01b81526001600160a01b03909116906348257dc990615e55908990600401616b9a565b602060405180830381600087803b158015615e6f57600080fd5b505af1925050508015615e9f575060408051601f3d908101601f19168201909252615e9c91810190616861565b60015b615f10573d808015615ecd576040519150601f19603f3d011682016040523d82523d6000602084013e615ed2565b606091505b507f4b87bbd93ba65ede1e2efeca735d9f7a6720bf7d6db0a8355b17dba5b64e578381604051615f029190616c76565b60405180910390a150615f2a565b6001601e6000828254615f239190617e44565b9091555050505b615f4c565b6000868152601d60205260409020600a01805460ff191660021790555b6001601e6000828254615f5f9190617e44565b909155505060008681526012602052604090819020600181015491516001600160a01b03909216917f43916c3ae75995d24cc89b466ed08e6dba74d325f7957f9b37b05f150e12918e91615fb291616d2b565b60405180910390a2505050505050565b6000611cde8284617e44565b6000818310615fdd5781611cde565b5090919050565b600081831015615fdd5781611cde565b600080546001600160a01b038381166001600160a01b0319831681178455604051919092169283917f8be0079c531659141344cd1fd0a4f28419497f9722a3daafe3b4186f6b6457e09190a35050565b805160609060005b81811015616092578084828151811061607557634e487b7160e01b600052603260045260246000fd5b60209081029190910101528061608a81617f11565b91505061604c565b509192915050565b606060008251116160aa57600080fd5b81518060005b81811015616225576000836160c36139e4565b8784815181106160e357634e487b7160e01b600052603260045260246000fd5b60200260200101516040516020016160fc929190616bbf565b6040516020818303038152906040528051906020012060001c61611f9190617f2c565b61612a906001617e44565b905060008661613a600184617e8f565b8151811061615857634e487b7160e01b600052603260045260246000fd5b60200260200101519050866001866161709190617e8f565b8151811061618e57634e487b7160e01b600052603260045260246000fd5b6020026020010151876001846161a49190617e8f565b815181106161c257634e487b7160e01b600052603260045260246000fd5b602090810291909101015280876161da600188617e8f565b815181106161f857634e487b7160e01b600052603260045260246000fd5b602090810291909101015261620e600186617e8f565b94505050808061621d90617f11565b9150506160b0565b50929392505050565b82805461623a90617ed6565b90600052602060002090601f01602090048101928261625c57600085556162a2565b82601f1061627557805160ff19168380011785556162a2565b828001600101855582156162a2579182015b828111156162a2578251825591602001919060010190616287565b506162ae92915061644c565b5090565b8280548282559060005260206000209081019282156162ff579160200282015b828111156162ff57825180516162ef91849160209091019061622e565b50916020019190600101906162d2565b506162ae929150616461565b8280548282559060005260206000209081019282156162a257916020028201828111156162a2578251825591602001919060010190616287565b6040518061010001604052806060815260200160006001600160a01b031681526020016000815260200160608152602001606081526020016060815260200160608152602001600060038111156163ac57634e487b7160e01b600052602160045260246000fd5b905290565b604051806101e001604052806000815260200160008152602001600081526020016000815260200160001515815260200160001515815260200160001515815260200160008152602001600081526020016000815260200160008152602001606081526020016000600381111561643857634e487b7160e01b600052602160045260246000fd5b815260200160608152602001606081525090565b5b808211156162ae576000815560010161644d565b808211156162ae576000616475828261647e565b50600101616461565b50805461648a90617ed6565b6000825580601f1061649c5750614e4c565b601f016020900490600052602060002090810190614e4c919061644c565b80356001600160a01b038116811461109c57600080fd5b60008083601f8401126164e2578182fd5b5081356001600160401b038111156164f8578182fd5b602083019150836020808302850101111561651257600080fd5b9250929050565b600082601f830112616529578081fd5b8135602061653e61653983617e15565b617dec565b82815281810190858301855b8581101561657357616561898684358b01016165da565b8452928401929084019060010161654a565b5090979650505050505050565b600082601f830112616590578081fd5b813560206165a061653983617e15565b82815281810190858301838502870184018810156165bc578586fd5b855b85811015616573578135845292840192908401906001016165be565b600082601f8301126165ea578081fd5b81356001600160401b0381111561660357616603617f6c565b616616601f8201601f1916602001617dec565b81815284602083860101111561662a578283fd5b816020850160208301379081016020019190915292915050565b600060208284031215616655578081fd5b611cde826164ba565b60008060408385031215616670578081fd5b616679836164ba565b946020939093013593505050565b60008060006060848603121561669b578081fd5b6166a4846164ba565b95602085013595506040909401359392505050565b600080600080600080600060c0888a0312156166d3578283fd5b87356001600160401b03808211156166e9578485fd5b6166f58b838c01616519565b985061670360208b016164ba565b975060408a0135915080821115616718578485fd5b6167248b838c016164d1565b909750955060608a013591508082111561673c578485fd5b6167488b838c01616519565b945060808a013591508082111561675d578384fd5b6167698b838c01616580565b935060a08a013591508082111561677e578283fd5b5061678b8a828b016165da565b91505092959891949750929550565b600080600080600080606087890312156167b2578182fd5b86356001600160401b03808211156167c8578384fd5b6167d48a838b016164d1565b909850965060208901359150808211156167ec578384fd5b6167f88a838b016164d1565b90965094506040890135915080821115616810578384fd5b5061681d89828a016164d1565b979a9699509497509295939492505050565b600060208284031215616840578081fd5b81356001600160401b03811115616855578182fd5b61476f84828501616580565b600060208284031215616872578081fd5b81518015158114611cde578182fd5b60008060408385031215616893578182fd5b82356001600160401b03808211156168a9578384fd5b6168b5868387016165da565b935060208501359150808211156168ca578283fd5b506168d7858286016165da565b9150509250929050565b6000602082840312156168f2578081fd5b5035919050565b600060208284031215611f74578081fd5b6000806040838503121561691c578182fd5b8235915061692c602084016164ba565b90509250929050565b600080600060608486031215616949578081fd5b833592506020840135915060408401356001600160401b0381111561696c578182fd5b616978868287016165da565b9150509250925092565b60008060408385031215616994578182fd5b50508035926020909101359150565b600080600080608085870312156169b8578182fd5b84359350602085013592506169cf604086016164ba565b9396929550929360600135925050565b6000806000606084860312156169f3578081fd5b505081359360208301359350604090920135919050565b6001600160a01b03169052565b6000815180845260208085018081965082840281019150828601855b85811015616a5d578284038952616a4b848351616af0565b98850198935090840190600101616a33565b5091979650505050505050565b6000815180845260208085018081965082840281019150828601855b85811015616a5d578284038952616a9e848351616af0565b98850198935090840190600101616a86565b6000815180845260208085019450808401835b83811015616adf57815187529582019590820190600101616ac3565b509495945050505050565b15159052565b60008151808452616b08816020860160208601617ea6565b601f01601f19169290920160200192915050565b60048110616b3a57634e487b7160e01b600052602160045260246000fd5b9052565b600a8152690c6dedadad2e890c2e6d60b31b602082015260400190565b60609190911b6bffffffffffffffffffffffff1916815260140190565b60609290921b6bffffffffffffffffffffffff19168252601482015260340190565b90815260200190565b60008251616bb5818460208701617ea6565b9190910192915050565b918252602082015260400190565b6001600160a01b0391909116815260200190565b6001600160a01b038a81168252891660208201526040810188905286151560608201526080810186905260a0810185905261012060c08201819052600090616c2b83820187616af0565b94151560e084015250506101000152979650505050505050565b600060208252611cde6020830184616a6a565b600060208252611cde6020830184616ab0565b901515815260200190565b600060208252611cde6020830184616af0565b600060c08252616c9c60c0830189616af0565b6001600160a01b0388166020840152604083018790528281036060840152616cc48187616af0565b90508281036080840152616cd88186616af0565b9150506113d160a0830184616b1c565b600060608252616cfb6060830186616af0565b8281036020840152616d0d8186616af0565b90508281036040840152616d218185616a6a565b9695505050505050565b6000602080835281845483600282049050600180831680616d4d57607f831692505b858310811415616d6b57634e487b7160e01b87526022600452602487fd5b616d7783878a01616b9a565b818015616d8b5760018114616d9c57616dc6565b60ff19861682528782019650616dc6565b616da58b617e38565b895b86811015616dc057815484820152908501908901616da7565b83019750505b50949998505050505050505050565b6020808252601c908201527f576f726b657220697320616c7265616479207265676973746572656400000000604082015260600190565b60208082526031908201527f676976656e204461746142617463682073686f756c6420626520415050524f5660408201527011510b08185b99081a5d081a5cc81b9bdd607a1b606082015260800190565b60208082526041908201527f576f726b657220686173206e6f7420656e6f75676820285f6e756d546f6b656e60408201527f732920696e206869732053706f745374616b6564546f6b656e42616c616e63656060820152600160fd1b608082015260a00190565b60208082526025908201527f72656365697665722072656a6563746564205f7265747269657665534675656c6040820152640818d85b1b60da1b606082015260800190565b6020808252605c908201527f4e6f74207468652073616d6520766f7465207468616e2077686174207761732060408201527f636f6d6d697465642c20696d706f737369626c6520746f206d6174636820776960608201527f746820676976656e205f73616c742026205f766f74654f7074696f6e00000000608082015260a00190565b60208082526026908201527f4f776e61626c653a206e6577206f776e657220697320746865207a65726f206160408201526564647265737360d01b606082015260800190565b60208082526029908201527f6b206f72204e20617265206e6f74204f4b20647572696e672072616e646f6d2060408201526839b2b632b1ba34b7b760b91b606082015260800190565b6020808252602a908201527f4661696c20647572696e6720616c6c6f636174696f6e3a206e6f7420656e6f75604082015269676820776f726b65727360b01b606082015260800190565b6020808252601e908201527f636f6d6d697420706572696f64206e6565647320746f206265206f70656e0000604082015260600190565b6020808252602f908201527f636f756c64206e6f742072657761726420746f6b656e20696e2054726967676560408201526e3921b432b1b5a9b837ba161018973160891b606082015260800190565b6020808252602b908201527f576f726b6572206973206e6f7420617661696c61626c6520736f2063616e277460408201526a103ab73932b3b4b9ba32b960a91b606082015260800190565b6020808252603d908201527f436f756c64206e6f74207265717565737420656e6f75676820616c6c6f63617460408201527f6564207374616b652c2072657175657374566f74696e67526967687473000000606082015260800190565b6020808252602f908201527f5573657220686173206e6f7420636f6d6d69746564206265666f72652c20746860408201526e1d5cc818d85b89dd081c995d99585b608a1b606082015260800190565b60208082526014908201527311185d18481b5d5cdd081a185d9948195b99195960621b604082015260600190565b60208082526052908201527f4572726f722072657665616c53706f74436865636b733a205f4461746142617460408201527f63684944732e6c656e67746820616e64205f766f74654f7074696f6e732e6c656060820152711b99dd1a081b5d5cdd08189948195c5d585b60721b608082015260a00190565b6020808252602d908201527f636f756c64206e6f74207265776172642052455020696e20547269676765724360408201526c6865636b53706f742c20312e6160981b606082015260800190565b60208082526050908201527f547269676765724e65787445706f63683a2061206261746368206d757374206260408201527f6520636f6d706c657465642c206f7220656e6f75676820776f726b657273206d60608201526f75737420626520617661696c61626c6560801b608082015260a00190565b60208082526039908201527f646c6c4d61703a20646f6573206e6f7420636f696e7461696e205f446174614260408201527f61746368496420666f7220746865206d73672073656e64657200000000000000606082015260800190565b6020808252602b908201527f75736572206d75737420686176652072657665616c656420696e20746869732060408201526a0ced2eccadc4084c2e8c6d60ab1b606082015260800190565b6020808252601490820152733737ba1030903b30b634b2103837b9b4ba34b7b760611b604082015260600190565b6020808252603b908201527f43616e277420616c6c6f6361746520776f726b2c207468652063757272656e7460408201527f20626174636820697320616c726561647920616c6c6f63617465640000000000606082015260800190565b60208082526048908201527f55736572206e6565647320746f2068617665206265656e20616c6c6f6361746560408201527f64207468652063757272656e74206461746120626174636820746f20636f6d6d6060820152671a5d081bdb881a5d60c21b608082015260a00190565b6020808252818101527f4f776e61626c653a2063616c6c6572206973206e6f7420746865206f776e6572604082015260600190565b6020808252603a908201527f5f446174614261746368496420686173206e6f7420656e6465642c206f72206e60408201527f6f7420657665727920766f74657273206861766520766f746564000000000000606082015260800190565b60208082526029908201527f6765744e756d50617373696e67546f6b656e733a20686173686573206d75737460408201526808189948195c5d585b60ba1b606082015260800190565b60208082526036908201527f43616e277420616c6c6f6361746520776f726b2c207468652063757272656e74604082015275206261746368206973206e6f7420636f6d706c65746560501b606082015260800190565b60208082526026908201527f52657665616c20706572696f64206e6f74206f70656e20666f7220746869732060408201526511185d18525160d21b606082015260800190565b60208082526027908201527f617661696c61626c65546f6b656e732073686f756c64206265203e3d205f6e756040820152666d546f6b656e7360c81b606082015260800190565b60208082526017908201527f5f4461746142617463684964206d757374206578697374000000000000000000604082015260600190565b6020808252601390820152720c081059191c995cdcc8139bdd0815985b1a59606a1b604082015260600190565b6020808252604c908201527f4572726f722072657665616c53706f74436865636b733a205f4461746142617460408201527f63684944732e6c656e67746820616e64205f73616c74732e6c656e677468206d60608201526b1d5cdd08189948195c5d585b60a21b608082015260a00190565b6020808252602f908201527f636f756c64206e6f742072657761726420746f6b656e20696e2054726967676560408201526e3921b432b1b5a9b837ba161019173160891b606082015260800190565b60208082526021908201527f5f446174614261746368496420697320616c72656164792076616c69646174656040820152601960fa1b606082015260800190565b60208082526049908201527f4572726f72207768656e20636f6d6d697453706f74436865636b733a205f446160408201527f746142617463684944732e6c656e677468203d3d205f736563726574486173686060820152680cae65cd8cadccee8d60bb1b608082015260a00190565b60208082526022908201527f4d6178696d756d207265676973746572656420776f726b65727320616c726561604082015261647960f01b606082015260800190565b60208082526037908201527f75736572206d757374206861766520656e6f75676820766f74696e672072696760408201527f68747320616b6120616c6c6f6361746564207374616b65000000000000000000606082015260800190565b6020808252602d908201527f636f756c64206e6f74207265776172642052455020696e20547269676765724360408201526c6865636b53706f742c20322e6160981b606082015260800190565b6020808252602a908201527f5f446174614261746368496420636865636b696e6720766f7465206d757374206040820152691a185d9948195b99195960b21b606082015260800190565b6020808252603b908201527f436f756c64206e6f74207769746864726177566f74696e67526967687473207460408201527f68726f7567682050726f78795374616b654465616c6c6f636174650000000000606082015260800190565b6020808252600f908201526e11185d18481b5d5cdd08195e1a5cdd608a1b604082015260600190565b600060208252825160208301526020830151604083015260408301516060830152606083015160808301526080830151617a7860a0840182616aea565b5060a0830151617a8b60c0840182616aea565b5060c0830151617a9e60e0840182616aea565b5060e0830151610100838101919091528301516101208084019190915283015161014080840191909152830151610160808401919091528301516101e0610180808501829052617af2610200860184616af0565b908601519092506101a0617b0886820183616b1c565b80870151915050601f196101c0818786030181880152617b288584616a17565b908801518782039092018488015293509050616d218382616ab0565b600085825284602083015260806040830152617b636080830185616af0565b905082606083015295945050505050565b60008382528260208301526060604083015261476f60608301616b3e565b600084825283602083015260806040830152617bb060808301616b3e565b9050826060830152949350505050565b9182526020820152606060408201819052600990820152686e756d546f6b656e7360b81b608082015260a00190565b93845260208401929092526040830152606082015260800190565b6000602082528251610100806020850152617c29610120850183616af0565b91506020850151617c3d6040860182616a0a565b50604085015160608501526060850151601f1980868503016080870152617c648483616af0565b935060808701519150808685030160a0870152617c818483616a17565b935060a08701519150808685030160c0870152617c9e8483616ab0565b935060c08701519150808685030160e087015250617cbc8382616af0565b92505060e0850151617cd082860182616b1c565b5090949350505050565b9182526001600160a01b0316602082015260400190565b9182526001600160a01b031660208201526000604082015260600190565b9283526020830191909152604082015260600190565b60006101a08f83528e60208401528d60408401528c60608401528b151560808401528a151560a084015289151560c08401528860e084015287610100840152866101208401528561014084015280610160840152617d8581840186616af0565b915050617d96610180830184616b1c565b9e9d5050505050505050505050505050565b6000808335601e19843603018112617dbe578283fd5b8301803591506001600160401b03821115617dd7578283fd5b60200191503681900382131561651257600080fd5b6040518181016001600160401b0381118282101715617e0d57617e0d617f6c565b604052919050565b60006001600160401b03821115617e2e57617e2e617f6c565b5060209081020190565b60009081526020902090565b60008219821115617e5757617e57617f40565b500190565b600082617e6b57617e6b617f56565b500490565b6000816000190483118215151615617e8a57617e8a617f40565b500290565b600082821015617ea157617ea1617f40565b500390565b60005b83811015617ec1578181015183820152602001617ea9565b83811115617ed0576000848401525b50505050565b600281046001821680617eea57607f821691505b60208210811415617f0b57634e487b7160e01b600052602260045260246000fd5b50919050565b6000600019821415617f2557617f25617f40565b5060010190565b600082617f3b57617f3b617f56565b500690565b634e487b7160e01b600052601160045260246000fd5b634e487b7160e01b600052601260045260246000fd5b634e487b7160e01b600052604160045260246000fdfea264697066735822122068ccef0d7795ad06d4b656b7c77ce97c3965cabe7f31133131d7de4fc2245ae664736f6c63430008000033",
  "linkReferences": {
    "contracts/worksystems/DataSpotting.sol": {
      "AttributeStore": [
        {
          "length": 20,
          "start": 14614
        },
        {
          "length": 20,
          "start": 14722
        },
        {
          "length": 20,
          "start": 17044
        },
        {
          "length": 20,
          "start": 17504
        }
      ],
      "DLL": [
        {
          "length": 20,
          "start": 4009
        },
        {
          "length": 20,
          "start": 7473
        },
        {
          "length": 20,
          "start": 7645
        },
        {
          "length": 20,
          "start": 8491
        },
        {
          "length": 20,
          "start": 13070
        },
        {
          "length": 20,
          "start": 13250
        },
        {
          "length": 20,
          "start": 14103
        },
        {
          "length": 20,
          "start": 14265
        },
        {
          "length": 20,
          "start": 14460
        }
      ]
    }
  },
  "deployedLinkReferences": {
    "contracts/worksystems/DataSpotting.sol": {
      "AttributeStore": [
        {
          "length": 20,
          "start": 14227
        },
        {
          "length": 20,
          "start": 14335
        },
        {
          "length": 20,
          "start": 16657
        },
        {
          "length": 20,
          "start": 17117
        }
      ],
      "DLL": [
        {
          "length": 20,
          "start": 3622
        },
        {
          "length": 20,
          "start": 7086
        },
        {
          "length": 20,
          "start": 7258
        },
        {
          "length": 20,
          "start": 8104
        },
        {
          "length": 20,
          "start": 12683
        },
        {
          "length": 20,
          "start": 12863
        },
        {
          "length": 20,
          "start": 13716
        },
        {
          "length": 20,
          "start": 13878
        },
        {
          "length": 20,
          "start": 14073
        }
      ]
    }
  }
}