{
  "_format": "hh-sol-artifact-1",
  "contractName": "DataSpotting",
  "sourceName": "contracts/worksystems/DataSpotting2.sol",
  "abi": [
    {
      "inputs": [
        {
          "internalType": "address",
          "name": "EXDT_token_",
          "type": "address"
        }
      ],
      "stateMutability": "nonpayable",
      "type": "constructor"
    },
    {
      "anonymous": false,
      "inputs": [
        {
          "indexed": false,
          "internalType": "bytes",
          "name": "bytesFailure",
          "type": "bytes"
        }
      ],
      "name": "BytesFailure",
      "type": "event"
    },
    {
      "anonymous": false,
      "inputs": [
        {
          "indexed": true,
          "internalType": "address",
          "name": "previousOwner",
          "type": "address"
        },
        {
          "indexed": true,
          "internalType": "address",
          "name": "newOwner",
          "type": "address"
        }
      ],
      "name": "OwnershipTransferred",
      "type": "event"
    },
    {
      "anonymous": false,
      "inputs": [
        {
          "indexed": false,
          "internalType": "address",
          "name": "parameters",
          "type": "address"
        }
      ],
      "name": "ParametersUpdated",
      "type": "event"
    },
    {
      "anonymous": false,
      "inputs": [
        {
          "indexed": false,
          "internalType": "address",
          "name": "account",
          "type": "address"
        }
      ],
      "name": "Paused",
      "type": "event"
    },
    {
      "anonymous": false,
      "inputs": [
        {
          "indexed": false,
          "internalType": "address",
          "name": "account",
          "type": "address"
        }
      ],
      "name": "Unpaused",
      "type": "event"
    },
    {
      "anonymous": false,
      "inputs": [
        {
          "indexed": true,
          "internalType": "uint256",
          "name": "batchID",
          "type": "uint256"
        }
      ],
      "name": "_DataBatchDeleted",
      "type": "event"
    },
    {
      "anonymous": false,
      "inputs": [
        {
          "indexed": true,
          "internalType": "uint256",
          "name": "DataID",
          "type": "uint256"
        },
        {
          "indexed": false,
          "internalType": "string",
          "name": "file_hash",
          "type": "string"
        },
        {
          "indexed": false,
          "internalType": "string",
          "name": "URL_domain",
          "type": "string"
        },
        {
          "indexed": true,
          "internalType": "address",
          "name": "sender",
          "type": "address"
        }
      ],
      "name": "_SpotSubmitted",
      "type": "event"
    },
    {
      "anonymous": false,
      "inputs": [
        {
          "indexed": false,
          "internalType": "uint256",
          "name": "numTokens",
          "type": "uint256"
        },
        {
          "indexed": true,
          "internalType": "address",
          "name": "voter",
          "type": "address"
        }
      ],
      "name": "_StakeAllocated",
      "type": "event"
    },
    {
      "anonymous": false,
      "inputs": [
        {
          "indexed": true,
          "internalType": "uint256",
          "name": "DataID",
          "type": "uint256"
        },
        {
          "indexed": true,
          "internalType": "address",
          "name": "voter",
          "type": "address"
        }
      ],
      "name": "_TokensRescued",
      "type": "event"
    },
    {
      "anonymous": false,
      "inputs": [
        {
          "indexed": false,
          "internalType": "uint256",
          "name": "numTokens",
          "type": "uint256"
        },
        {
          "indexed": true,
          "internalType": "address",
          "name": "voter",
          "type": "address"
        }
      ],
      "name": "_VotingRightsWithdrawn",
      "type": "event"
    },
    {
      "inputs": [],
      "name": "AllItemCounter",
      "outputs": [
        {
          "internalType": "uint256",
          "name": "",
          "type": "uint256"
        }
      ],
      "stateMutability": "view",
      "type": "function"
    },
    {
      "inputs": [],
      "name": "AllTxsCounter",
      "outputs": [
        {
          "internalType": "uint256",
          "name": "",
          "type": "uint256"
        }
      ],
      "stateMutability": "view",
      "type": "function"
    },
    {
      "inputs": [
        {
          "internalType": "uint256",
          "name": "",
          "type": "uint256"
        }
      ],
      "name": "AllWorkersList",
      "outputs": [
        {
          "internalType": "address",
          "name": "",
          "type": "address"
        }
      ],
      "stateMutability": "view",
      "type": "function"
    },
    {
      "inputs": [],
      "name": "AmIKicked",
      "outputs": [
        {
          "internalType": "bool",
          "name": "status",
          "type": "bool"
        }
      ],
      "stateMutability": "view",
      "type": "function"
    },
    {
      "inputs": [
        {
          "internalType": "string",
          "name": "_a",
          "type": "string"
        },
        {
          "internalType": "string",
          "name": "_b",
          "type": "string"
        }
      ],
      "name": "AreStringsEqual",
      "outputs": [
        {
          "internalType": "bool",
          "name": "",
          "type": "bool"
        }
      ],
      "stateMutability": "pure",
      "type": "function"
    },
    {
      "inputs": [],
      "name": "BatchDeletionCursor",
      "outputs": [
        {
          "internalType": "uint128",
          "name": "",
          "type": "uint128"
        }
      ],
      "stateMutability": "view",
      "type": "function"
    },
    {
      "inputs": [],
      "name": "BytesUsed",
      "outputs": [
        {
          "internalType": "uint256",
          "name": "",
          "type": "uint256"
        }
      ],
      "stateMutability": "view",
      "type": "function"
    },
    {
      "inputs": [
        {
          "internalType": "uint128",
          "name": "",
          "type": "uint128"
        }
      ],
      "name": "DataBatch",
      "outputs": [
        {
          "internalType": "uint128",
          "name": "start_idx",
          "type": "uint128"
        },
        {
          "internalType": "uint32",
          "name": "counter",
          "type": "uint32"
        },
        {
          "internalType": "uint32",
          "name": "item_count",
          "type": "uint32"
        },
        {
          "internalType": "uint16",
          "name": "uncommited_workers",
          "type": "uint16"
        },
        {
          "internalType": "uint16",
          "name": "unrevealed_workers",
          "type": "uint16"
        },
        {
          "internalType": "bool",
          "name": "complete",
          "type": "bool"
        },
        {
          "internalType": "bool",
          "name": "checked",
          "type": "bool"
        },
        {
          "internalType": "bool",
          "name": "allocated_to_work",
          "type": "bool"
        },
        {
          "internalType": "enum IDataBase.DataStatus",
          "name": "status",
          "type": "uint8"
        },
        {
          "internalType": "uint16",
          "name": "votesFor",
          "type": "uint16"
        },
        {
          "internalType": "uint16",
          "name": "votesAgainst",
          "type": "uint16"
        },
        {
          "internalType": "uint64",
          "name": "commitEndDate",
          "type": "uint64"
        },
        {
          "internalType": "uint64",
          "name": "revealEndDate",
          "type": "uint64"
        },
        {
          "internalType": "string",
          "name": "batchIPFSfile",
          "type": "string"
        }
      ],
      "stateMutability": "view",
      "type": "function"
    },
    {
      "inputs": [
        {
          "internalType": "uint128",
          "name": "_DataBatchId",
          "type": "uint128"
        }
      ],
      "name": "DataExists",
      "outputs": [
        {
          "internalType": "bool",
          "name": "exists",
          "type": "bool"
        }
      ],
      "stateMutability": "view",
      "type": "function"
    },
    {
      "inputs": [],
      "name": "DataNonce",
      "outputs": [
        {
          "internalType": "uint128",
          "name": "",
          "type": "uint128"
        }
      ],
      "stateMutability": "view",
      "type": "function"
    },
    {
      "inputs": [
        {
          "internalType": "uint256",
          "name": "",
          "type": "uint256"
        }
      ],
      "name": "GlobalSpotFlowManager",
      "outputs": [
        {
          "internalType": "uint128",
          "name": "timestamp",
          "type": "uint128"
        },
        {
          "internalType": "uint128",
          "name": "counter",
          "type": "uint128"
        }
      ],
      "stateMutability": "view",
      "type": "function"
    },
    {
      "inputs": [],
      "name": "InstantSpotRewards",
      "outputs": [
        {
          "internalType": "bool",
          "name": "",
          "type": "bool"
        }
      ],
      "stateMutability": "view",
      "type": "function"
    },
    {
      "inputs": [],
      "name": "InstantSpotRewardsDivider",
      "outputs": [
        {
          "internalType": "uint16",
          "name": "",
          "type": "uint16"
        }
      ],
      "stateMutability": "view",
      "type": "function"
    },
    {
      "inputs": [
        {
          "internalType": "address",
          "name": "user_",
          "type": "address"
        }
      ],
      "name": "IsAddressKicked",
      "outputs": [
        {
          "internalType": "bool",
          "name": "status",
          "type": "bool"
        }
      ],
      "stateMutability": "view",
      "type": "function"
    },
    {
      "inputs": [
        {
          "internalType": "uint256",
          "name": "",
          "type": "uint256"
        }
      ],
      "name": "ItemFlowManager",
      "outputs": [
        {
          "internalType": "uint128",
          "name": "timestamp",
          "type": "uint128"
        },
        {
          "internalType": "uint128",
          "name": "counter",
          "type": "uint128"
        }
      ],
      "stateMutability": "view",
      "type": "function"
    },
    {
      "inputs": [],
      "name": "LastAllocationTime",
      "outputs": [
        {
          "internalType": "uint64",
          "name": "",
          "type": "uint64"
        }
      ],
      "stateMutability": "view",
      "type": "function"
    },
    {
      "inputs": [],
      "name": "LastBatchCounter",
      "outputs": [
        {
          "internalType": "uint128",
          "name": "",
          "type": "uint128"
        }
      ],
      "stateMutability": "view",
      "type": "function"
    },
    {
      "inputs": [],
      "name": "LastRandomSeed",
      "outputs": [
        {
          "internalType": "uint256",
          "name": "",
          "type": "uint256"
        }
      ],
      "stateMutability": "view",
      "type": "function"
    },
    {
      "inputs": [],
      "name": "MAX_INDEX_RANGE_BATCHS",
      "outputs": [
        {
          "internalType": "uint128",
          "name": "",
          "type": "uint128"
        }
      ],
      "stateMutability": "view",
      "type": "function"
    },
    {
      "inputs": [],
      "name": "MAX_INDEX_RANGE_SPOTS",
      "outputs": [
        {
          "internalType": "uint128",
          "name": "",
          "type": "uint128"
        }
      ],
      "stateMutability": "view",
      "type": "function"
    },
    {
      "inputs": [],
      "name": "NB_BATCH_TO_TRIGGER_GARBAGE_COLLECTION",
      "outputs": [
        {
          "internalType": "uint256",
          "name": "",
          "type": "uint256"
        }
      ],
      "stateMutability": "view",
      "type": "function"
    },
    {
      "inputs": [],
      "name": "Parameters",
      "outputs": [
        {
          "internalType": "contract IParametersManager",
          "name": "",
          "type": "address"
        }
      ],
      "stateMutability": "view",
      "type": "function"
    },
    {
      "inputs": [],
      "name": "STAKING_REQUIREMENT_TOGGLE_ENABLED",
      "outputs": [
        {
          "internalType": "bool",
          "name": "",
          "type": "bool"
        }
      ],
      "stateMutability": "view",
      "type": "function"
    },
    {
      "inputs": [
        {
          "internalType": "address",
          "name": "_worker",
          "type": "address"
        },
        {
          "internalType": "uint256",
          "name": "_TokensAmountToAllocate",
          "type": "uint256"
        }
      ],
      "name": "SelectAddressForUser",
      "outputs": [
        {
          "internalType": "address",
          "name": "",
          "type": "address"
        }
      ],
      "stateMutability": "view",
      "type": "function"
    },
    {
      "inputs": [
        {
          "internalType": "string[]",
          "name": "file_hashs_",
          "type": "string[]"
        },
        {
          "internalType": "string[]",
          "name": "URL_domains_",
          "type": "string[]"
        },
        {
          "internalType": "uint64[]",
          "name": "item_counts_",
          "type": "uint64[]"
        },
        {
          "internalType": "string",
          "name": "extra_",
          "type": "string"
        }
      ],
      "name": "SpotData",
      "outputs": [
        {
          "internalType": "uint256",
          "name": "Dataid_",
          "type": "uint256"
        }
      ],
      "stateMutability": "nonpayable",
      "type": "function"
    },
    {
      "inputs": [
        {
          "internalType": "uint128",
          "name": "",
          "type": "uint128"
        }
      ],
      "name": "SpotsMapping",
      "outputs": [
        {
          "internalType": "uint64",
          "name": "timestamp",
          "type": "uint64"
        },
        {
          "internalType": "uint64",
          "name": "item_count",
          "type": "uint64"
        },
        {
          "internalType": "enum IDataBase.DataStatus",
          "name": "status",
          "type": "uint8"
        },
        {
          "internalType": "string",
          "name": "extra",
          "type": "string"
        },
        {
          "internalType": "address",
          "name": "author",
          "type": "address"
        },
        {
          "internalType": "string",
          "name": "ipfs_hash",
          "type": "string"
        },
        {
          "internalType": "string",
          "name": "URL_domain",
          "type": "string"
        }
      ],
      "stateMutability": "view",
      "type": "function"
    },
    {
      "inputs": [
        {
          "internalType": "address",
          "name": "",
          "type": "address"
        }
      ],
      "name": "SystemStakedTokenBalance",
      "outputs": [
        {
          "internalType": "uint256",
          "name": "",
          "type": "uint256"
        }
      ],
      "stateMutability": "view",
      "type": "function"
    },
    {
      "inputs": [],
      "name": "TriggerUpdate",
      "outputs": [],
      "stateMutability": "nonpayable",
      "type": "function"
    },
    {
      "inputs": [
        {
          "internalType": "address",
          "name": "",
          "type": "address"
        },
        {
          "internalType": "uint256",
          "name": "",
          "type": "uint256"
        }
      ],
      "name": "WorkersSpotFlowManager",
      "outputs": [
        {
          "internalType": "uint128",
          "name": "timestamp",
          "type": "uint128"
        },
        {
          "internalType": "uint128",
          "name": "counter",
          "type": "uint128"
        }
      ],
      "stateMutability": "view",
      "type": "function"
    },
    {
      "inputs": [
        {
          "internalType": "address",
          "name": "",
          "type": "address"
        }
      ],
      "name": "WorkersState",
      "outputs": [
        {
          "internalType": "uint128",
          "name": "allocated_work_batch",
          "type": "uint128"
        },
        {
          "internalType": "uint64",
          "name": "last_interaction_date",
          "type": "uint64"
        },
        {
          "internalType": "uint16",
          "name": "succeeding_novote_count",
          "type": "uint16"
        },
        {
          "internalType": "bool",
          "name": "registered",
          "type": "bool"
        },
        {
          "internalType": "bool",
          "name": "unregistration_request",
          "type": "bool"
        },
        {
          "internalType": "bool",
          "name": "isWorkerSeen",
          "type": "bool"
        },
        {
          "internalType": "uint64",
          "name": "registration_date",
          "type": "uint64"
        },
        {
          "internalType": "uint64",
          "name": "allocated_batch_counter",
          "type": "uint64"
        },
        {
          "internalType": "uint64",
          "name": "majority_counter",
          "type": "uint64"
        },
        {
          "internalType": "uint64",
          "name": "minority_counter",
          "type": "uint64"
        }
      ],
      "stateMutability": "view",
      "type": "function"
    },
    {
      "inputs": [
        {
          "internalType": "address",
          "name": "",
          "type": "address"
        }
      ],
      "name": "WorkersStatus",
      "outputs": [
        {
          "internalType": "bool",
          "name": "isAvailableWorker",
          "type": "bool"
        },
        {
          "internalType": "bool",
          "name": "isBusyWorker",
          "type": "bool"
        },
        {
          "internalType": "bool",
          "name": "isToUnregisterWorker",
          "type": "bool"
        },
        {
          "internalType": "uint32",
          "name": "availableWorkersIndex",
          "type": "uint32"
        },
        {
          "internalType": "uint32",
          "name": "busyWorkersIndex",
          "type": "uint32"
        },
        {
          "internalType": "uint32",
          "name": "toUnregisterWorkersIndex",
          "type": "uint32"
        }
      ],
      "stateMutability": "view",
      "type": "function"
    },
    {
      "inputs": [
        {
          "internalType": "address",
          "name": "user_",
          "type": "address"
        },
        {
          "internalType": "uint128",
          "name": "_DataBatchId",
          "type": "uint128"
        }
      ],
      "name": "attrUUID",
      "outputs": [
        {
          "internalType": "bytes32",
          "name": "UUID",
          "type": "bytes32"
        }
      ],
      "stateMutability": "pure",
      "type": "function"
    },
    {
      "inputs": [
        {
          "internalType": "uint256[]",
          "name": "indices_",
          "type": "uint256[]"
        }
      ],
      "name": "deleteManyWorkersAtIndex",
      "outputs": [],
      "stateMutability": "nonpayable",
      "type": "function"
    },
    {
      "inputs": [
        {
          "internalType": "address[]",
          "name": "users_",
          "type": "address[]"
        }
      ],
      "name": "deleteManyWorkersState",
      "outputs": [],
      "stateMutability": "nonpayable",
      "type": "function"
    },
    {
      "inputs": [
        {
          "internalType": "address[]",
          "name": "users_",
          "type": "address[]"
        }
      ],
      "name": "deleteManyWorkersStatus",
      "outputs": [],
      "stateMutability": "nonpayable",
      "type": "function"
    },
    {
      "inputs": [
        {
          "internalType": "uint256",
          "name": "index_",
          "type": "uint256"
        }
      ],
      "name": "deleteWorkersAtIndex",
      "outputs": [],
      "stateMutability": "nonpayable",
      "type": "function"
    },
    {
      "inputs": [
        {
          "internalType": "address",
          "name": "user_",
          "type": "address"
        }
      ],
      "name": "deleteWorkersState",
      "outputs": [],
      "stateMutability": "nonpayable",
      "type": "function"
    },
    {
      "inputs": [
        {
          "internalType": "address",
          "name": "user_",
          "type": "address"
        }
      ],
      "name": "deleteWorkersStatus",
      "outputs": [],
      "stateMutability": "nonpayable",
      "type": "function"
    },
    {
      "inputs": [
        {
          "internalType": "uint256",
          "name": "_k",
          "type": "uint256"
        },
        {
          "internalType": "uint256",
          "name": "N_range",
          "type": "uint256"
        }
      ],
      "name": "generateIntegers",
      "outputs": [
        {
          "internalType": "uint256[]",
          "name": "",
          "type": "uint256[]"
        }
      ],
      "stateMutability": "view",
      "type": "function"
    },
    {
      "inputs": [
        {
          "internalType": "uint256",
          "name": "_k",
          "type": "uint256"
        },
        {
          "internalType": "uint256",
          "name": "N_range",
          "type": "uint256"
        },
        {
          "internalType": "uint256",
          "name": "extra_seed",
          "type": "uint256"
        }
      ],
      "name": "generateIntegersWithSeed",
      "outputs": [
        {
          "internalType": "uint256[]",
          "name": "",
          "type": "uint256[]"
        }
      ],
      "stateMutability": "view",
      "type": "function"
    },
    {
      "inputs": [
        {
          "internalType": "uint256",
          "name": "A_",
          "type": "uint256"
        },
        {
          "internalType": "uint256",
          "name": "B_",
          "type": "uint256"
        }
      ],
      "name": "getAllWorkersBetweenIndex",
      "outputs": [
        {
          "internalType": "address[]",
          "name": "workers",
          "type": "address[]"
        }
      ],
      "stateMutability": "view",
      "type": "function"
    },
    {
      "inputs": [],
      "name": "getAllWorkersLength",
      "outputs": [
        {
          "internalType": "uint256",
          "name": "length",
          "type": "uint256"
        }
      ],
      "stateMutability": "view",
      "type": "function"
    },
    {
      "inputs": [
        {
          "internalType": "bytes32",
          "name": "_UUID",
          "type": "bytes32"
        },
        {
          "internalType": "string",
          "name": "_attrName",
          "type": "string"
        }
      ],
      "name": "getAttribute",
      "outputs": [
        {
          "internalType": "uint256",
          "name": "",
          "type": "uint256"
        }
      ],
      "stateMutability": "view",
      "type": "function"
    },
    {
      "inputs": [
        {
          "internalType": "uint128",
          "name": "_DataBatchId",
          "type": "uint128"
        }
      ],
      "name": "getBatchByID",
      "outputs": [
        {
          "components": [
            {
              "internalType": "uint128",
              "name": "start_idx",
              "type": "uint128"
            },
            {
              "internalType": "uint32",
              "name": "counter",
              "type": "uint32"
            },
            {
              "internalType": "uint32",
              "name": "item_count",
              "type": "uint32"
            },
            {
              "internalType": "uint16",
              "name": "uncommited_workers",
              "type": "uint16"
            },
            {
              "internalType": "uint16",
              "name": "unrevealed_workers",
              "type": "uint16"
            },
            {
              "internalType": "bool",
              "name": "complete",
              "type": "bool"
            },
            {
              "internalType": "bool",
              "name": "checked",
              "type": "bool"
            },
            {
              "internalType": "bool",
              "name": "allocated_to_work",
              "type": "bool"
            },
            {
              "internalType": "enum IDataBase.DataStatus",
              "name": "status",
              "type": "uint8"
            },
            {
              "internalType": "uint16",
              "name": "votesFor",
              "type": "uint16"
            },
            {
              "internalType": "uint16",
              "name": "votesAgainst",
              "type": "uint16"
            },
            {
              "internalType": "uint64",
              "name": "commitEndDate",
              "type": "uint64"
            },
            {
              "internalType": "uint64",
              "name": "revealEndDate",
              "type": "uint64"
            },
            {
              "internalType": "string",
              "name": "batchIPFSfile",
              "type": "string"
            }
          ],
          "internalType": "struct IDataBase.BatchMetadata",
          "name": "batch",
          "type": "tuple"
        }
      ],
      "stateMutability": "view",
      "type": "function"
    },
    {
      "inputs": [
        {
          "internalType": "uint128",
          "name": "_DataBatchId_a",
          "type": "uint128"
        },
        {
          "internalType": "uint128",
          "name": "_DataBatchId_b",
          "type": "uint128"
        }
      ],
      "name": "getBatchCountForBatch",
      "outputs": [
        {
          "internalType": "uint128",
          "name": "AverageURLCount",
          "type": "uint128"
        },
        {
          "internalType": "uint128[]",
          "name": "batchCounts",
          "type": "uint128[]"
        }
      ],
      "stateMutability": "view",
      "type": "function"
    },
    {
      "inputs": [
        {
          "internalType": "uint128",
          "name": "_DataBatchId",
          "type": "uint128"
        }
      ],
      "name": "getBatchIPFSFileByID",
      "outputs": [
        {
          "internalType": "string[]",
          "name": "",
          "type": "string[]"
        }
      ],
      "stateMutability": "view",
      "type": "function"
    },
    {
      "inputs": [
        {
          "internalType": "uint128",
          "name": "_DataBatchId_a",
          "type": "uint128"
        },
        {
          "internalType": "uint128",
          "name": "_DataBatchId_b",
          "type": "uint128"
        }
      ],
      "name": "getBatchsFilesByID",
      "outputs": [
        {
          "internalType": "string[]",
          "name": "",
          "type": "string[]"
        }
      ],
      "stateMutability": "view",
      "type": "function"
    },
    {
      "inputs": [],
      "name": "getBytesUsed",
      "outputs": [
        {
          "internalType": "uint256",
          "name": "storage_size",
          "type": "uint256"
        }
      ],
      "stateMutability": "view",
      "type": "function"
    },
    {
      "inputs": [
        {
          "internalType": "uint128",
          "name": "_DataId",
          "type": "uint128"
        }
      ],
      "name": "getDataByID",
      "outputs": [
        {
          "components": [
            {
              "internalType": "uint64",
              "name": "timestamp",
              "type": "uint64"
            },
            {
              "internalType": "uint64",
              "name": "item_count",
              "type": "uint64"
            },
            {
              "internalType": "enum IDataBase.DataStatus",
              "name": "status",
              "type": "uint8"
            },
            {
              "internalType": "string",
              "name": "extra",
              "type": "string"
            },
            {
              "internalType": "address",
              "name": "author",
              "type": "address"
            },
            {
              "internalType": "string",
              "name": "ipfs_hash",
              "type": "string"
            },
            {
              "internalType": "string",
              "name": "URL_domain",
              "type": "string"
            }
          ],
          "internalType": "struct IDataSpotting.SpottedData",
          "name": "data",
          "type": "tuple"
        }
      ],
      "stateMutability": "view",
      "type": "function"
    },
    {
      "inputs": [
        {
          "internalType": "uint128",
          "name": "_DataBatchId",
          "type": "uint128"
        }
      ],
      "name": "getDomainsForBatch",
      "outputs": [
        {
          "internalType": "string[]",
          "name": "",
          "type": "string[]"
        }
      ],
      "stateMutability": "view",
      "type": "function"
    },
    {
      "inputs": [],
      "name": "getGlobalPeriodSpotCount",
      "outputs": [
        {
          "internalType": "uint256",
          "name": "",
          "type": "uint256"
        }
      ],
      "stateMutability": "view",
      "type": "function"
    },
    {
      "inputs": [
        {
          "internalType": "address",
          "name": "_voter",
          "type": "address"
        },
        {
          "internalType": "uint256",
          "name": "_numTokens",
          "type": "uint256"
        },
        {
          "internalType": "uint128",
          "name": "_DataBatchId",
          "type": "uint128"
        }
      ],
      "name": "getInsertPointForNumTokens",
      "outputs": [
        {
          "internalType": "uint256",
          "name": "prevNode",
          "type": "uint256"
        }
      ],
      "stateMutability": "view",
      "type": "function"
    },
    {
      "inputs": [],
      "name": "getItemCounter",
      "outputs": [
        {
          "internalType": "uint256",
          "name": "Counter",
          "type": "uint256"
        }
      ],
      "stateMutability": "view",
      "type": "function"
    },
    {
      "inputs": [],
      "name": "getLastBatchId",
      "outputs": [
        {
          "internalType": "uint256",
          "name": "LastBatchId",
          "type": "uint256"
        }
      ],
      "stateMutability": "view",
      "type": "function"
    },
    {
      "inputs": [],
      "name": "getLastDataId",
      "outputs": [
        {
          "internalType": "uint256",
          "name": "DataId",
          "type": "uint256"
        }
      ],
      "stateMutability": "view",
      "type": "function"
    },
    {
      "inputs": [
        {
          "internalType": "address",
          "name": "_voter",
          "type": "address"
        }
      ],
      "name": "getLastNode",
      "outputs": [
        {
          "internalType": "uint128",
          "name": "DataID",
          "type": "uint128"
        }
      ],
      "stateMutability": "view",
      "type": "function"
    },
    {
      "inputs": [
        {
          "internalType": "address",
          "name": "_voter",
          "type": "address"
        }
      ],
      "name": "getLockedTokens",
      "outputs": [
        {
          "internalType": "uint256",
          "name": "numTokens",
          "type": "uint256"
        }
      ],
      "stateMutability": "view",
      "type": "function"
    },
    {
      "inputs": [
        {
          "internalType": "address",
          "name": "_voter",
          "type": "address"
        },
        {
          "internalType": "uint128",
          "name": "_DataBatchId",
          "type": "uint128"
        }
      ],
      "name": "getNumTokens",
      "outputs": [
        {
          "internalType": "uint256",
          "name": "numTokens",
          "type": "uint256"
        }
      ],
      "stateMutability": "view",
      "type": "function"
    },
    {
      "inputs": [],
      "name": "getPeriodItemCount",
      "outputs": [
        {
          "internalType": "uint256",
          "name": "",
          "type": "uint256"
        }
      ],
      "stateMutability": "view",
      "type": "function"
    },
    {
      "inputs": [],
      "name": "getRandom",
      "outputs": [
        {
          "internalType": "uint256",
          "name": "",
          "type": "uint256"
        }
      ],
      "stateMutability": "view",
      "type": "function"
    },
    {
      "inputs": [],
      "name": "getSeed",
      "outputs": [
        {
          "internalType": "bytes32",
          "name": "addr",
          "type": "bytes32"
        }
      ],
      "stateMutability": "view",
      "type": "function"
    },
    {
      "inputs": [
        {
          "internalType": "address",
          "name": "user_",
          "type": "address"
        }
      ],
      "name": "getSystemTokenBalance",
      "outputs": [
        {
          "internalType": "uint256",
          "name": "tokens",
          "type": "uint256"
        }
      ],
      "stateMutability": "view",
      "type": "function"
    },
    {
      "inputs": [],
      "name": "getTxCounter",
      "outputs": [
        {
          "internalType": "uint256",
          "name": "Counter",
          "type": "uint256"
        }
      ],
      "stateMutability": "view",
      "type": "function"
    },
    {
      "inputs": [
        {
          "internalType": "address",
          "name": "user_",
          "type": "address"
        }
      ],
      "name": "getUserPeriodSpotCount",
      "outputs": [
        {
          "internalType": "uint256",
          "name": "",
          "type": "uint256"
        }
      ],
      "stateMutability": "view",
      "type": "function"
    },
    {
      "inputs": [
        {
          "internalType": "uint256",
          "name": "_terminationDate",
          "type": "uint256"
        }
      ],
      "name": "isExpired",
      "outputs": [
        {
          "internalType": "bool",
          "name": "expired",
          "type": "bool"
        }
      ],
      "stateMutability": "view",
      "type": "function"
    },
    {
      "inputs": [
        {
          "internalType": "uint128",
          "name": "_DataBatchId",
          "type": "uint128"
        }
      ],
      "name": "isPassed",
      "outputs": [
        {
          "internalType": "bool",
          "name": "passed",
          "type": "bool"
        }
      ],
      "stateMutability": "view",
      "type": "function"
    },
    {
      "inputs": [],
      "name": "owner",
      "outputs": [
        {
          "internalType": "address",
          "name": "",
          "type": "address"
        }
      ],
      "stateMutability": "view",
      "type": "function"
    },
    {
      "inputs": [],
      "name": "paused",
      "outputs": [
        {
          "internalType": "bool",
          "name": "",
          "type": "bool"
        }
      ],
      "stateMutability": "view",
      "type": "function"
    },
    {
      "inputs": [
        {
          "internalType": "uint256",
          "name": "k",
          "type": "uint256"
        },
        {
          "internalType": "uint256",
          "name": "N",
          "type": "uint256"
        }
      ],
      "name": "random_selection",
      "outputs": [
        {
          "internalType": "uint256[]",
          "name": "",
          "type": "uint256[]"
        }
      ],
      "stateMutability": "view",
      "type": "function"
    },
    {
      "inputs": [],
      "name": "renounceOwnership",
      "outputs": [],
      "stateMutability": "nonpayable",
      "type": "function"
    },
    {
      "inputs": [
        {
          "internalType": "uint128",
          "name": "_DataBatchId",
          "type": "uint128"
        }
      ],
      "name": "rescueTokens",
      "outputs": [],
      "stateMutability": "nonpayable",
      "type": "function"
    },
    {
      "inputs": [
        {
          "internalType": "uint128[]",
          "name": "_DataBatchIDs",
          "type": "uint128[]"
        }
      ],
      "name": "rescueTokensInMultipleDatas",
      "outputs": [],
      "stateMutability": "nonpayable",
      "type": "function"
    },
    {
      "inputs": [],
      "name": "toggleSystemPause",
      "outputs": [],
      "stateMutability": "nonpayable",
      "type": "function"
    },
    {
      "inputs": [],
      "name": "token",
      "outputs": [
        {
          "internalType": "contract IERC20",
          "name": "",
          "type": "address"
        }
      ],
      "stateMutability": "view",
      "type": "function"
    },
    {
      "inputs": [
        {
          "internalType": "address",
          "name": "newOwner",
          "type": "address"
        }
      ],
      "name": "transferOwnership",
      "outputs": [],
      "stateMutability": "nonpayable",
      "type": "function"
    },
    {
      "inputs": [
        {
          "internalType": "uint256",
          "name": "NewGarbageCollectTreshold_",
          "type": "uint256"
        }
      ],
      "name": "updateGarbageCollectionThreshold",
      "outputs": [],
      "stateMutability": "nonpayable",
      "type": "function"
    },
    {
      "inputs": [],
      "name": "updateGlobalSpotFlow",
      "outputs": [],
      "stateMutability": "nonpayable",
      "type": "function"
    },
    {
      "inputs": [
        {
          "internalType": "bool",
          "name": "state_",
          "type": "bool"
        },
        {
          "internalType": "uint16",
          "name": "divider_",
          "type": "uint16"
        }
      ],
      "name": "updateInstantSpotRewards",
      "outputs": [],
      "stateMutability": "nonpayable",
      "type": "function"
    },
    {
      "inputs": [
        {
          "internalType": "address",
          "name": "addr",
          "type": "address"
        }
      ],
      "name": "updateParametersManager",
      "outputs": [],
      "stateMutability": "nonpayable",
      "type": "function"
    },
    {
      "inputs": [
        {
          "internalType": "address",
          "name": "user_",
          "type": "address"
        }
      ],
      "name": "updateUserSpotFlow",
      "outputs": [],
      "stateMutability": "nonpayable",
      "type": "function"
    },
    {
      "inputs": [
        {
          "internalType": "uint128",
          "name": "_prevID",
          "type": "uint128"
        },
        {
          "internalType": "uint128",
          "name": "_nextID",
          "type": "uint128"
        },
        {
          "internalType": "address",
          "name": "_voter",
          "type": "address"
        },
        {
          "internalType": "uint256",
          "name": "_numTokens",
          "type": "uint256"
        }
      ],
      "name": "validPosition",
      "outputs": [
        {
          "internalType": "bool",
          "name": "APPROVED",
          "type": "bool"
        }
      ],
      "stateMutability": "view",
      "type": "function"
    },
    {
      "inputs": [
        {
          "internalType": "uint256",
          "name": "_numTokens",
          "type": "uint256"
        }
      ],
      "name": "withdrawVotingRights",
      "outputs": [],
      "stateMutability": "nonpayable",
      "type": "function"
    }
  ],
  "bytecode": "0x608060405260008054600160a81b600160e81b0319168155600160801b602855602980546001600160801b0319166001179055602a819055602b819055602c55610194602d55720493e000000000000000000000000000002710602e55602f805463ffffffff1916621e01001790556103e860305560326031553480156200008657600080fd5b50604051620075be380380620075be833981016040819052620000a9916200014b565b620000b433620000fb565b6000805460ff60a01b191690556001600160a01b038116620000d557600080fd5b603280546001600160a01b0319166001600160a01b03929092169190911790556200017d565b600080546001600160a01b038381166001600160a01b0319831681178455604051919092169283917f8be0079c531659141344cd1fd0a4f28419497f9722a3daafe3b4186f6b6457e09190a35050565b6000602082840312156200015e57600080fd5b81516001600160a01b03811681146200017657600080fd5b9392505050565b617431806200018d6000396000f3fe608060405234801561001057600080fd5b50600436106104965760003560e01c806379dd459711610262578063b926a9fe11610151578063e59d0289116100ce578063f594a84b11610092578063f594a84b14610c3e578063f5ae7c7d14610c47578063fc0c546a14610c4f578063fc5f971f14610c62578063fcbe89c914610c7c578063ff43de9d14610c9c57600080fd5b8063e59d028914610bef578063e7b1d43c14610bfc578063e9a12fd714610c0f578063f2d9e74d14610c22578063f2fde38b14610c2b57600080fd5b8063d0d41def11610115578063d0d41def14610b7c578063d3ea889914610bae578063d58f575c14610bc1578063d9548e5314610bd4578063da14563a14610be757600080fd5b8063b926a9fe14610b14578063bbc35b3114610b27578063c46f17d014610b3a578063cb27938914610b61578063cd56aa8114610b6957600080fd5b8063955122ef116101df578063a9057790116101a3578063a905779014610acb578063aacc5a1714610ade578063b1d7ea9814610ae6578063b5485f6214610af9578063b8f011b314610b0157600080fd5b8063955122ef14610a785780639c867cf414610a8b5780639d6e3f9614610a9e578063a1563cc314610ab1578063a511dba014610aba57600080fd5b80638746ff8a116102265780638746ff8a146109285780638bf8a3381461093b5780638c89d0271461094e5780638d52ea5714610a475780638da5cb5b14610a6757600080fd5b806379dd4597146108ca5780637f30c9b3146108dd578063815ce747146108fd5780638473850b146109055780638480a2211461091f57600080fd5b80633de4b2931161038957806359da7baf1161030657806369d0433b116102ca57806369d0433b1461084b5780636b2d95d4146108535780636b4a901b146108665780637074222b14610886578063715018a6146108af578063794cd05a146108b757600080fd5b806359da7baf146107f85780635b0bca771461080b5780635c975abb1461081e578063607d5efa14610830578063628516ae1461083857600080fd5b806349ad1d051161034d57806349ad1d051461079f57806351021833146107a7578063515535e8146107ba57806355adf7bf146107d2578063576a5543146107e557600080fd5b80633de4b2931461074b5780633f2a918014610754578063413b90f714610767578063427fa1d21461077a57806345feae891461078d57600080fd5b80632a25c7c911610417578063333fa626116103db578063333fa6261461065b57806334522fbd146106f557806337527b4d1461070857806339e7357c146107105780633c062cc81461071857600080fd5b80632a25c7c9146105c75780632dbfca6a146105da5780632ff0312f146105fd578063310e513b1461062857806331e2f2851461063b57600080fd5b80631a0a890c1161045e5780631a0a890c146105575780631aca64121461056a57806323a909a91461058b578063258cc8431461059e578063289bd482146105bf57600080fd5b8063059576231461049b5780630e4498c2146104b05780630e6661a7146104d95780630f91f0b2146105045780630fe05b011461052a575b600080fd5b6104ae6104a936600461641d565b610caf565b005b6104c36104be36600461643a565b610d5e565b6040516104d0919061645c565b60405180910390f35b6028546104ec906001600160801b031681565b6040516001600160801b0390911681526020016104d0565b6105176105123660046164b2565b610ee4565b6040516104d0979695949392919061655f565b61053d6105383660046164b2565b6110db565b6040516104d09e9d9c9b9a999897969594939291906165d9565b6104ae610565366004616700565b611215565b61057d6105783660046168c2565b611259565b6040519081526020016104d0565b6104ae6105993660046169e4565b6123e1565b6105b16105ac3660046169fd565b61244f565b6040516104d0929190616a36565b61057d61279b565b6104ae6105d53660046164b2565b6127f2565b6105ed6105e836600461641d565b612aa9565b60405190151581526020016104d0565b61061061060b3660046169e4565b612c9f565b6040516001600160a01b0390911681526020016104d0565b602e546104ec906001600160801b031681565b61057d61064936600461641d565b60266020526000908152604090205481565b6106b761066936600461641d565b60276020526000908152604090205460ff808216916101008104821691620100008204169063ffffffff630100000082048116916701000000000000008104821691600160581b9091041686565b60408051961515875294151560208701529215159385019390935263ffffffff908116606085015291821660808401521660a082015260c0016104d0565b6104ae610703366004616a9f565b612cc9565b602d5461057d565b61057d612d05565b61072b6107263660046169e4565b612d22565b604080516001600160801b039384168152929091166020830152016104d0565b61057d602c5481565b6105ed6107623660046164b2565b612d4d565b61072b610775366004616ad4565b612fd3565b6104ec61078836600461641d565b61300c565b602f546105ed90610100900460ff1681565b6104ae6130b2565b6105ed6107b53660046164b2565b6130de565b602854600160801b90046001600160801b031661057d565b61057d6107e0366004616b00565b613117565b6104ae6107f336600461641d565b6132fd565b61072b6108063660046169e4565b6134fc565b61057d610819366004616b42565b61350c565b600054600160a01b900460ff166105ed565b6104ae613560565b6105ed610846366004616b60565b613752565b601f5461057d565b61057d61086136600461641d565b61379c565b6108796108743660046164b2565b6137ab565b6040516104d09190616bb1565b61057d61089436600461641d565b6001600160a01b031660009081526026602052604090205490565b6104ae613b48565b6104ae6108c536600461641d565b613b5a565b61057d6108d8366004616b42565b613bc2565b6108f06108eb3660046164b2565b613bf8565b6040516104d09190616c13565b61057d613e9a565b6028546104ec90600160801b90046001600160801b031681565b61057d602a5481565b610610610936366004616ad4565b613eeb565b61057d610949366004616cc4565b614393565b6109db61095c36600461641d565b602460205260009081526040902080546001909101546001600160801b038216916001600160401b03600160801b80830482169361ffff600160c01b808604919091169460ff600160d01b8204811695600160d81b8304821695600160e01b9093049091169380821693600160401b820483169382048316929104168a565b604080516001600160801b03909b168b526001600160401b03998a1660208c015261ffff909816978a01979097529415156060890152921515608088015290151560a0870152841660c0860152831660e0850152821661010084015216610120820152610140016104d0565b610a5a610a55366004616d0a565b6143d4565b6040516104d09190616d36565b6000546001600160a01b0316610610565b6104ae610a8636600461641d565b614623565b610879610a993660046169fd565b6146af565b61057d610aac36600461641d565b614ccf565b61057d602d5481565b6028546001600160801b031661057d565b6105ed610ad9366004616d6e565b614d3d565b61057d614da3565b610a5a610af436600461643a565b614e14565b6105ed615058565b610a5a610b0f36600461643a565b615068565b6104ae610b22366004616dc7565b61507e565b6104ae610b35366004616e4c565b6150cc565b602f54610b4e9062010000900461ffff1681565b60405161ffff90911681526020016104d0565b602c5461057d565b6104ae610b77366004616e4c565b61511a565b600054610b9690600160a81b90046001600160401b031681565b6040516001600160401b0390911681526020016104d0565b6104ae610bbc3660046169e4565b615168565b6029546104ec906001600160801b031681565b6105ed610be23660046169e4565b421190565b6104ae615294565b602f546105ed9060ff1681565b6104ae610c0a3660046169e4565b6152cc565b610879610c1d3660046164b2565b615602565b61057d602b5481565b6104ae610c3936600461641d565b61598d565b61057d60305481565b602b5461057d565b603254610610906001600160a01b031681565b602e546104ec90600160801b90046001600160801b031681565b610c8f610c8a3660046164b2565b615a06565b6040516104d09190616eda565b603354610610906001600160a01b031681565b610cb7615bc3565b6001600160a01b038116610d0a5760405162461bcd60e51b815260206004820152601560248201527461646472206d757374206265206e6f6e207a65726f60581b60448201526064015b60405180910390fd5b603380546001600160a01b0319166001600160a01b0383169081179091556040519081527f1c57c3710c0570883580d2f83ee6a873d61b5af334741eea1c0cc397899e1d029060200160405180910390a150565b606082821015610da45760405162461bcd60e51b8152602060048201526011602482015270205f42206d757374206265203e3d205f4160781b6044820152606401610d01565b601f54610db39060019061701b565b821115610df95760405162461bcd60e51b815260206004820152601460248201527320425f206973206f7574206f6620626f756e647360601b6044820152606401610d01565b6000610e05848461701b565b610e10906001617032565b90506000816001600160401b03811115610e2c57610e2c616697565b604051908082528060200260200182016040528015610e55578160200160208202803683370190505b50905060005b82811015610ed957601f610e6f8783617032565b81548110610e7f57610e7f61704a565b9060005260206000200160009054906101000a90046001600160a01b0316828281518110610eaf57610eaf61704a565b6001600160a01b039092166020928302919091019091015280610ed181617060565b915050610e5b565b509150505b92915050565b602160205260009081526040902080546001820180546001600160401b0380841694600160401b850490911693600160801b900460ff16929091610f279061707b565b80601f0160208091040260200160405190810160405280929190818152602001828054610f539061707b565b8015610fa05780601f10610f7557610100808354040283529160200191610fa0565b820191906000526020600020905b815481529060010190602001808311610f8357829003601f168201915b505050600284015460038501805494956001600160a01b03909216949193509150610fca9061707b565b80601f0160208091040260200160405190810160405280929190818152602001828054610ff69061707b565b80156110435780601f1061101857610100808354040283529160200191611043565b820191906000526020600020905b81548152906001019060200180831161102657829003601f168201915b5050505050908060040180546110589061707b565b80601f01602080910402602001604051908101604052809291908181526020018280546110849061707b565b80156110d15780601f106110a6576101008083540402835291602001916110d1565b820191906000526020600020905b8154815290600101906020018083116110b457829003601f168201915b5050505050905087565b6022602052600090815260409020805460018201546002830180546001600160801b0384169463ffffffff600160801b8604811695600160a01b81049091169461ffff600160c01b8304811695600160d01b840482169560ff600160e01b8604811696600160e81b8704821696600160f01b8104831696600160f81b9091049092169482811694620100008404909116936001600160401b03600160201b8504811694600160601b9004169291906111929061707b565b80601f01602080910402602001604051908101604052809291908181526020018280546111be9061707b565b801561120b5780601f106111e05761010080835404028352916020019161120b565b820191906000526020600020905b8154815290600101906020018083116111ee57829003601f168201915b505050505090508e565b60005b8151811015611255576112438282815181106112365761123661704a565b60200260200101516127f2565b8061124d81617060565b915050611218565b5050565b6000611263615c1d565b6033546001600160a01b031661128b5760405162461bcd60e51b8152600401610d01906170b0565b603360009054906101000a90046001600160a01b03166001600160a01b0316634e87c5a86040518163ffffffff1660e01b815260040160206040518083038186803b1580156112d957600080fd5b505afa1580156112ed573d6000803e3d6000fd5b505050506040513d601f19601f8201168201806040525081019061131191906170e7565b6113705760405162461bcd60e51b815260206004820152602a60248201527f53706f7474696e67206973206e6f742063757272656e746c7920656e61626c656044820152693210313c9027bbb732b960b11b6064820152608401610d01565b855184146113d05760405162461bcd60e51b815260206004820152602760248201527f696e70757420617272617973206d757374206265206f662073616d65206c656e6044820152666774682028312960c81b6064820152608401610d01565b82518651146114315760405162461bcd60e51b815260206004820152602760248201527f696e70757420617272617973206d757374206265206f662073616d65206c656e6044820152666774682028322960c81b6064820152608401610d01565b611439613560565b603360009054906101000a90046001600160a01b03166001600160a01b031663b38e885e6040518163ffffffff1660e01b815260040160206040518083038186803b15801561148757600080fd5b505afa15801561149b573d6000803e3d6000fd5b505050506040513d601f19601f820116820180604052508101906114bf9190617104565b6114c7613e9a565b106115335760405162461bcd60e51b815260206004820152603660248201527f476c6f62616c206c696d69743a206578636565646564206d61782064617461206044820152753832b9103437bab916103932ba393c903630ba32b91760511b6064820152608401610d01565b603354604080516001624ee91360e11b0319815290516000926001600160a01b03169163ff622dda916004808301926020929190829003018186803b15801561157b57600080fd5b505afa15801561158f573d6000803e3d6000fd5b505050506040513d601f19601f820116820180604052508101906115b39190617104565b905060006115c13383613eeb565b90506115cc816132fd565b602854603354604080516317c4a13160e31b81529051600160801b9093046001600160801b0316926001600160a01b039092169163be25098891600480820192602092909190829003018186803b15801561162657600080fd5b505afa15801561163a573d6000803e3d6000fd5b505050506040513d601f19601f8201168201806040525081019061165e9190617104565b61166783614ccf565b1080156116ff5750603360009054906101000a90046001600160a01b03166001600160a01b031663b38e885e6040518163ffffffff1660e01b815260040160206040518083038186803b1580156116bd57600080fd5b505afa1580156116d1573d6000803e3d6000fd5b505050506040513d601f19601f820116820180604052508101906116f59190617104565b6116fd613e9a565b105b1561231157602f5460ff1615611760576001600160a01b038216600090815260266020526040902054831115611760576001600160a01b038216600090815260266020526040812054611752908561701b565b905061175e8184615c6a565b505b60005b8951816001600160401b0316101561230f5760008a826001600160401b0316815181106117925761179261704a565b6020026020010151905060008a8a846001600160401b03168181106117b9576117b961704a565b90506020028101906117cb9190617116565b8080601f01602080910402602001604051908101604052809392919081815260200183838082843760009201829052508d51949550938d93506001600160401b0388169250821090506118205761182061704a565b602002602001015190506040518060e00160405280426001600160401b03168152602001826001600160401b0316815260200160006003811115611866576118666164cf565b8152602081018b90523360408201526060810185905260800183905260285460219060009061189d906001600160801b0316615f29565b6001600160801b03168152602080820192909252604090810160002083518154938501516001600160401b03908116600160401b026001600160801b0319909516911617929092178083559083015190829060ff60801b1916600160801b83600381111561190d5761190d6164cf565b02179055506060820151805161192d91600184019160209091019061632a565b5060808201516002820180546001600160a01b0319166001600160a01b0390921691909117905560a0820151805161196f91600384019160209091019061632a565b5060c0820151805161198b91600484019160209091019061632a565b5090505060006022600061199e88615f49565b6001600160801b0316815260208082019290925260409081016000206033548251634e8f956d60e11b815292519194506001600160a01b031692639d1f2ada9260048082019391829003018186803b1580156119f957600080fd5b505afa158015611a0d573d6000803e3d6000fd5b505050506040513d601f19601f82011682018060405250810190611a319190617104565b8154600160801b900463ffffffff161015611a875780546001908290601090611a68908490600160801b900463ffffffff1661715c565b92506101000a81548163ffffffff021916908363ffffffff1602179055505b603360009054906101000a90046001600160a01b03166001600160a01b0316639d1f2ada6040518163ffffffff1660e01b815260040160206040518083038186803b158015611ad557600080fd5b505afa158015611ae9573d6000803e3d6000fd5b505050506040513d601f19601f82011682018060405250810190611b0d9190617104565b8154600160801b900463ffffffff1610611c2b57805461ffff60e01b1916600160e01b1781556028805460019190601090611b5a9084906001600160801b03600160801b90910416617184565b92506101000a8154816001600160801b0302191690836001600160801b0316021790555060226000611ba0602860109054906101000a90046001600160801b0316615f49565b6001600160801b03168152602081019190915260400160009081208181556001810180546001600160a01b031916905590611bde60028301826163ae565b50506028546001600160801b031660226000611bf989615f49565b6001600160801b039081168252602082019290925260400160002080546001600160801b031916929091169190911790555b602854611c42906001600160801b03166001617184565b602880546001600160801b0319166001600160801b0392909216919091179055600180611c7081600f61701b565b600f8110611c8057611c8061704a565b018054601090611ca1908490600160801b90046001600160801b0316617184565b82546001600160801b039182166101009390930a9283029190920219909116179055506001600160a01b0387166000908152602560205260409020600181611cea82600f61701b565b600f8110611cfa57611cfa61704a565b018054601090611d1b908490600160801b90046001600160801b0316617184565b82546001600160801b0391821661010093840a9081029202191617909155602f5460ff919004161590506122a55760335460408051632a49798160e11b8152905133926000926001600160a01b0390911691635492f30291600480820192602092909190829003018186803b158015611d9357600080fd5b505afa158015611da7573d6000803e3d6000fd5b505050506040513d601f19601f82011682018060405250810190611dcb91906171a6565b90506000603360009054906101000a90046001600160a01b03166001600160a01b0316630855d1516040518163ffffffff1660e01b815260040160206040518083038186803b158015611e1d57600080fd5b505afa158015611e31573d6000803e3d6000fd5b505050506040513d601f19601f82011682018060405250810190611e5591906171a6565b90506000603360009054906101000a90046001600160a01b03166001600160a01b03166304e76c8f6040518163ffffffff1660e01b815260040160206040518083038186803b158015611ea757600080fd5b505afa158015611ebb573d6000803e3d6000fd5b505050506040513d601f19601f82011682018060405250810190611edf91906171a6565b6040516308c0a84360e11b81526001600160a01b03868116600483015291925060009185169063118150869060240160206040518083038186803b158015611f2657600080fd5b505afa158015611f3a573d6000803e3d6000fd5b505050506040513d601f19601f82011682018060405250810190611f5e91906171a6565b90506000602f60029054906101000a900461ffff1661ffff16603360009054906101000a90046001600160a01b03166001600160a01b03166330c0bb796040518163ffffffff1660e01b815260040160206040518083038186803b158015611fc557600080fd5b505afa158015611fd9573d6000803e3d6000fd5b505050506040513d601f19601f82011682018060405250810190611ffd9190617104565b6120089060646171c3565b61201291906171f8565b90506000602f60029054906101000a900461ffff1661ffff16603360009054906101000a90046001600160a01b03166001600160a01b031663abb10b9b6040518163ffffffff1660e01b815260040160206040518083038186803b15801561207957600080fd5b505afa15801561208d573d6000803e3d6000fd5b505050506040513d601f19601f820116820180604052508101906120b19190617104565b6120bc9060646171c3565b6120c691906171f8565b604051630db6cc8560e11b8152600481018290526001600160a01b0385811660248301526000604483015291925090861690631b6d990a90606401602060405180830381600087803b15801561211b57600080fd5b505af115801561212f573d6000803e3d6000fd5b505050506040513d601f19601f8201168201806040525081019061215391906170e7565b6121b65760405162461bcd60e51b815260206004820152602e60248201527f636f756c64206e6f74207265776172642052455020696e2056616c696461746560448201526d4461746142617463682c20322e6160901b6064820152608401610d01565b604051633832942560e21b8152600481018390526001600160a01b03848116602483015285169063e0ca509490604401602060405180830381600087803b15801561220057600080fd5b505af1158015612214573d6000803e3d6000fd5b505050506040513d601f19601f8201168201806040525081019061223891906170e7565b61229d5760405162461bcd60e51b815260206004820152603060248201527f636f756c64206e6f742072657761726420746f6b656e20696e2056616c69646160448201526f3a32a230ba30a130ba31b4161019173160811b6064820152608401610d01565b505050505050505b6028546040516001600160a01b038a16916001600160801b0316907fb819ca9ac369919119f75ec7363dd954f75bcfa75f9245647e03da413be0d582906122ef908990899061720c565b60405180910390a35050505050808061230790617231565b915050611763565b505b3360009081526024602052604090208054600160e01b900460ff1661238457601f80546001810182556000919091527fa03837a25210ee280c2113ff4b77ca23440b19d4866cca721c801278fd08d8070180546001600160a01b03191633179055805460ff60e01b1916600160e01b1781555b805467ffffffffffffffff60801b1916600160801b426001600160401b0316021781556123af615f62565b6001602b60008282546123c29190617032565b90915550506028546001600160801b03169a9950505050505050505050565b6123e9615bc3565b6064811161244a5760405162461bcd60e51b815260206004820152602860248201527f4e657747617262616765436f6c6c65637454726573686f6c645f206d7573742060448201526706265203e203130360c41b6064820152608401610d01565b603055565b600060606000846001600160801b031611801561247d5750826001600160801b0316846001600160801b0316105b6124c95760405162461bcd60e51b815260206004820152601c60248201527f496e70757420626f756e6461726965732061726520696e76616c6964000000006044820152606401610d01565b6000806124d68686617258565b6124e1906001617184565b90506000816001600160801b03166001600160401b0381111561250657612506616697565b60405190808252806020026020018201604052801561252f578160200160208202803683370190505b50905060005b826001600160801b0316816001600160801b0316101561277e5760006022816125666125618c86617184565b615f49565b6001600160801b039081168252602080830193909352604091820160002082516101c0810184528154928316815263ffffffff600160801b8404811695820195909552600160a01b83049094169284019290925261ffff600160c01b820481166060850152600160d01b820416608084015260ff600160e01b82048116151560a0850152600160e81b82048116151560c0850152600160f01b82048116151560e0850152610100840191600160f81b9004166003811115612629576126296164cf565b600381111561263a5761263a6164cf565b8152600182015461ffff80821660208401526201000082041660408301526001600160401b03600160201b820481166060840152600160601b90910416608082015260028201805460a0909201916126919061707b565b80601f01602080910402602001604051908101604052809291908181526020018280546126bd9061707b565b801561270a5780601f106126df5761010080835404028352916020019161270a565b820191906000526020600020905b8154815290600101906020018083116126ed57829003601f168201915b5050505050815250509050806040015163ffffffff168561272b9190617184565b9450806040015163ffffffff1683836001600160801b0316815181106127535761275361704a565b6001600160801b0390921660209283029190910190910152508061277681617280565b915050612535565b50600061278b838561729d565b95509093505050505b9250929050565b600080805b600f8110156127ec57601081600f81106127bc576127bc61704a565b01546127d890600160801b90046001600160801b031683617032565b9150806127e481617060565b9150506127a0565b50919050565b60016022600061280184615f49565b6001600160801b03168152602081019190915260400160002054600160f81b900460ff166003811115612836576128366164cf565b1461289d5760405162461bcd60e51b815260206004820152603160248201527f676976656e204461746142617463682073686f756c6420626520415050524f5660448201527011510b08185b99081a5d081a5cc81b9bdd607a1b6064820152608401610d01565b3360009081526023602052604090819020905163071dc0ab60e51b815260048101919091526001600160801b038216602482015273__$d6548f7e6b409fa64ec338d51066920057$__9063e3b815609060440160206040518083038186803b15801561290857600080fd5b505af415801561291c573d6000803e3d6000fd5b505050506040513d601f19601f8201168201806040525081019061294091906170e7565b6129b25760405162461bcd60e51b815260206004820152603960248201527f646c6c4d61703a20646f6573206e6f7420636f696e7461696e205f446174614260448201527f61746368496420666f7220746865206d73672073656e646572000000000000006064820152608401610d01565b336000908152602360205260409081902090516325923c7560e11b815260048101919091526001600160801b038216602482015273__$d6548f7e6b409fa64ec338d51066920057$__90634b2478ea9060440160006040518083038186803b158015612a1d57600080fd5b505af4158015612a31573d6000803e3d6000fd5b5050505060006010905080602d5410612a615780602d6000828254612a56919061701b565b90915550612a679050565b6000602d555b612a6f615f62565b60405133906001600160801b038416907f402507661c8c8cb90e0a796450b8bdd28b6c516f05279c0cd29e84c344e1699a90600090a35050565b6001600160a01b03818116600090815260246020908152604080832081516101408101835281546001600160801b0381168252600160801b8082046001600160401b0390811684880152600160c01b80840461ffff1685880152600160d01b840460ff90811615156060870152600160d81b8504811615156080870152600160e01b909404909316151560a085015260019094015480851660c0850152600160401b8104851660e08501529081048416610100840152049091166101208201526033548251634fda48fb60e11b81529251949586959294911692639fb491f69260048083019392829003018186803b158015612ba457600080fd5b505afa158015612bb8573d6000803e3d6000fd5b505050506040513d601f19601f82011682018060405250810190612bdc9190617104565b816040015161ffff1610158015612c8e5750603360009054906101000a90046001600160a01b03166001600160a01b0316630f1f0ffe6040518163ffffffff1660e01b815260040160206040518083038186803b158015612c3c57600080fd5b505afa158015612c50573d6000803e3d6000fd5b505050506040513d601f19601f82011682018060405250810190612c749190617104565b60c0820151612c8c906001600160401b03164261701b565b105b15612c9857600191505b5092915050565b601f8181548110612caf57600080fd5b6000918252602090912001546001600160a01b0316905081565b612cd1615bc3565b602f805463ffffff0019166101009315159390930263ffff00001916929092176201000061ffff9290921691909102179055565b60405160009080602081848060185afa612d1b57fe5b5051919050565b600181600f8110612d3257600080fd5b01546001600160801b038082169250600160801b9091041682565b60008060226000612d5d85615f49565b6001600160801b039081168252602080830193909352604091820160002082516101c0810184528154928316815263ffffffff600160801b8404811695820195909552600160a01b83049094169284019290925261ffff600160c01b820481166060850152600160d01b820416608084015260ff600160e01b82048116151560a0850152600160e81b82048116151560c0850152600160f01b82048116151560e0850152610100840191600160f81b9004166003811115612e2057612e206164cf565b6003811115612e3157612e316164cf565b8152600182015461ffff80821660208401526201000082041660408301526001600160401b03600160201b820481166060840152600160601b90910416608082015260028201805460a090920191612e889061707b565b80601f0160208091040260200160405190810160405280929190818152602001828054612eb49061707b565b8015612f015780601f10612ed657610100808354040283529160200191612f01565b820191906000526020600020905b815481529060010190602001808311612ee457829003601f168201915b5050505050815250509050806101400151816101200151612f2291906172c3565b61ffff16603360009054906101000a90046001600160a01b03166001600160a01b031663ea19733c6040518163ffffffff1660e01b815260040160206040518083038186803b158015612f7457600080fd5b505afa158015612f88573d6000803e3d6000fd5b505050506040513d601f19601f82011682018060405250810190612fac9190617104565b612fb691906171c3565b610120820151612fc79060646172e0565b61ffff16119392505050565b602560205281600052604060002081600f8110612fef57600080fd5b01546001600160801b038082169350600160801b90910416905082565b6001600160a01b03811660009081526023602052604080822090516001627446cf60e11b0319815260048101919091526024810182905273__$d6548f7e6b409fa64ec338d51066920057$__9063ff1772629060440160206040518083038186803b15801561307a57600080fd5b505af415801561308e573d6000803e3d6000fd5b505050506040513d601f19601f82011682018060405250810190610ede919061730a565b6130ba615bc3565b600054600160a01b900460ff16156130d6576130d46161f2565b565b6130d4616247565b6000602260006130ed84615f49565b6001600160801b03168152602081019190915260400160002054600160e01b900460ff1692915050565b6000806131238561300c565b905060006131318683613bc2565b90505b6001600160801b038216156132e95761314d8683613bc2565b905084811161323357836001600160801b0316826001600160801b03161415613222576001600160a01b0386166000908152602360205260409081902090516001627446cf60e11b0319815260048101919091526001600160801b038316602482015273__$d6548f7e6b409fa64ec338d51066920057$__9063ff1772629060440160206040518083038186803b1580156131e757600080fd5b505af41580156131fb573d6000803e3d6000fd5b505050506040513d601f19601f8201168201806040525081019061321f919061730a565b91505b506001600160801b031690506132f6565b6001600160a01b0386166000908152602360205260409081902090516001627446cf60e11b0319815260048101919091526001600160801b038316602482015273__$d6548f7e6b409fa64ec338d51066920057$__9063ff1772629060440160206040518083038186803b1580156132aa57600080fd5b505af41580156132be573d6000803e3d6000fd5b505050506040513d601f19601f820116820180604052508101906132e2919061730a565b9150613134565b506001600160801b031690505b9392505050565b6033546001600160a01b03166133255760405162461bcd60e51b8152600401610d01906170b0565b6001600160a01b03811660009081526025602052604081209061334a6001600f61701b565b905060008282600f81106133605761336061704a565b0154603354604080516307bc663b60e11b815290516001600160801b0390931693506001600160a01b0390911691630f78cc7691600480820192602092909190829003018186803b1580156133b457600080fd5b505afa1580156133c8573d6000803e3d6000fd5b505050506040513d601f19601f820116820180604052508101906133ec9190617104565b6133f6824261701b565b11156134f65760005b61340b6001600f61701b565b811015613489578361341e826001617032565b600f811061342e5761342e61704a565b018482600f81106134415761344161704a565b8254910180546001600160801b0319166001600160801b0392831690811782559254600160801b9081900490921690910290911790558061348181617060565b9150506133ff565b50426001600160401b03168383600f81106134a6576134a661704a565b0180546001600160801b0319166001600160801b039290921691909117905560008383600f81106134d9576134d961704a565b0180546001600160801b03928316600160801b0292169190911790555b50505050565b601081600f8110612d3257600080fd5b6040516bffffffffffffffffffffffff19606084901b1660208201526001600160801b0319608083901b16603482015260009060440160405160208183030381529060405280519060200120905092915050565b6033546001600160a01b03166135885760405162461bcd60e51b8152600401610d01906170b0565b60006135966001600f61701b565b90506000600182600f81106135ad576135ad61704a565b0154603354604080516307bc663b60e11b815290516001600160801b0390931693506001600160a01b0390911691630f78cc7691600480820192602092909190829003018186803b15801561360157600080fd5b505afa158015613615573d6000803e3d6000fd5b505050506040513d601f19601f820116820180604052508101906136399190617104565b61364c826001600160401b03421661701b565b11156112555760005b6136616001600f61701b565b8110156136e05760016136748282617032565b600f81106136845761368461704a565b01600182600f81106136985761369861704a565b8254910180546001600160801b0319166001600160801b0392831690811782559254600160801b908190049092169091029091179055806136d881617060565b915050613655565b50426001600160401b0316600183600f81106136fe576136fe61704a565b0180546001600160801b0319166001600160801b03929092169190911790556000600183600f81106137325761373261704a565b0180546001600160801b03928316600160801b0292169190911790555050565b60008061375f8487613bc2565b831015905060006137708587613bc2565b8411158061378557506001600160801b038616155b90508180156137915750805b979650505050505050565b6000610ede826108d88461300c565b60606137b6826130de565b6137fc5760405162461bcd60e51b815260206004820152601760248201527617d1185d1850985d18da1259081b5d5cdd08195e1a5cdd604a1b6044820152606401610d01565b60006022600061380b85615f49565b6001600160801b039081168252602080830193909352604091820160002082516101c0810184528154928316815263ffffffff600160801b8404811695820195909552600160a01b83049094169284019290925261ffff600160c01b820481166060850152600160d01b820416608084015260ff600160e01b82048116151560a0850152600160e81b82048116151560c0850152600160f01b82048116151560e0850152610100840191600160f81b90041660038111156138ce576138ce6164cf565b60038111156138df576138df6164cf565b8152600182015461ffff80821660208401526201000082041660408301526001600160401b03600160201b820481166060840152600160601b90910416608082015260028201805460a0909201916139369061707b565b80601f01602080910402602001604051908101604052809291908181526020018280546139629061707b565b80156139af5780601f10613984576101008083540402835291602001916139af565b820191906000526020600020905b81548152906001019060200180831161399257829003601f168201915b50505091909252505050602081015190915063ffffffff166000816001600160401b038111156139e1576139e1616697565b604051908082528060200260200182016040528015613a1457816020015b60608152602001906001900390816139ff5790505b50905060005b826001600160801b0316816001600160801b03161015613b3f578351600090613a44908390617184565b9050600060216000613a5584615f29565b6001600160801b03166001600160801b031681526020019081526020016000206004018054613a839061707b565b80601f0160208091040260200160405190810160405280929190818152602001828054613aaf9061707b565b8015613afc5780601f10613ad157610100808354040283529160200191613afc565b820191906000526020600020905b815481529060010190602001808311613adf57829003601f168201915b505050505090508084846001600160801b031681518110613b1f57613b1f61704a565b602002602001018190525050508080613b3790617280565b915050613a1a565b50949350505050565b613b50615bc3565b6130d4600061628a565b613b62615bc3565b6001600160a01b038116600090815260276020908152604090912080546effffffffffffffffffffffffffffff19169055602d548111613bb95780602d6000828254613bae919061701b565b909155506112559050565b6000602d555050565b60006132f6613bd1848461350c565b604051806040016040528060098152602001686e756d546f6b656e7360b81b815250614393565b613c416040805160e081018252600080825260208201819052909182019081526020016060815260200160006001600160a01b0316815260200160608152602001606081525090565b60216000613c4e84615f29565b6001600160801b031681526020808201929092526040908101600020815160e08101835281546001600160401b038082168352600160401b82041694820194909452929091830190600160801b900460ff166003811115613cb157613cb16164cf565b6003811115613cc257613cc26164cf565b8152602001600182018054613cd69061707b565b80601f0160208091040260200160405190810160405280929190818152602001828054613d029061707b565b8015613d4f5780601f10613d2457610100808354040283529160200191613d4f565b820191906000526020600020905b815481529060010190602001808311613d3257829003601f168201915b505050918352505060028201546001600160a01b03166020820152600382018054604090920191613d7f9061707b565b80601f0160208091040260200160405190810160405280929190818152602001828054613dab9061707b565b8015613df85780601f10613dcd57610100808354040283529160200191613df8565b820191906000526020600020905b815481529060010190602001808311613ddb57829003601f168201915b50505050508152602001600482018054613e119061707b565b80601f0160208091040260200160405190810160405280929190818152602001828054613e3d9061707b565b8015613e8a5780601f10613e5f57610100808354040283529160200191613e8a565b820191906000526020600020905b815481529060010190602001808311613e6d57829003601f168201915b5050505050815250509050919050565b600080805b600f8110156127ec57600181600f8110613ebb57613ebb61704a565b0154613ed790600160801b90046001600160801b031683617032565b915080613ee381617060565b915050613e9f565b6033546000906001600160a01b0316613f165760405162461bcd60e51b8152600401610d01906170b0565b60335460408051632a49798160e11b815290516000926001600160a01b031691635492f302916004808301926020929190829003018186803b158015613f5b57600080fd5b505afa158015613f6f573d6000803e3d6000fd5b505050506040513d601f19601f82011682018060405250810190613f9391906171a6565b6001600160a01b03161415613ff65760405162461bcd60e51b8152602060048201526024808201527f416464726573734d616e61676572206973206e756c6c20696e20506172616d656044820152637465727360e01b6064820152608401610d01565b6033546040805163ca64f9e760e01b815290516000926001600160a01b03169163ca64f9e7916004808301926020929190829003018186803b15801561403b57600080fd5b505afa15801561404f573d6000803e3d6000fd5b505050506040513d601f19601f8201168201806040525081019061407391906171a6565b6001600160a01b0316141561409a5760405162461bcd60e51b8152600401610d0190617327565b6033546040805163ca64f9e760e01b815290516000926001600160a01b03169163ca64f9e7916004808301926020929190829003018186803b1580156140df57600080fd5b505afa1580156140f3573d6000803e3d6000fd5b505050506040513d601f19601f8201168201806040525081019061411791906171a6565b90506000603360009054906101000a90046001600160a01b03166001600160a01b0316635492f3026040518163ffffffff1660e01b815260040160206040518083038186803b15801561416957600080fd5b505afa15801561417d573d6000803e3d6000fd5b505050506040513d601f19601f820116820180604052508101906141a191906171a6565b9050848060005b60038110156143875760405163065ee72760e51b81526001600160a01b0383811660048301526000919087169063cbdce4e09060240160206040518083038186803b1580156141f657600080fd5b505afa15801561420a573d6000803e3d6000fd5b505050506040513d601f19601f8201168201806040525081019061422e9190617104565b6001600160a01b03841660009081526026602052604090205490915088116142595782935050614387565b6001600160a01b038316600090815260266020526040902054881080159061429857506001600160a01b03831660009081526026602052604090205415155b156142d5576001600160a01b0383166000908152602660205260408120546142c0908a61701b565b90508082106142d3578394505050614387565b505b8781106142e55782935050614387565b60405163792f4f6960e11b81526001600160a01b03848116600483015286169063f25e9ed29060240160206040518083038186803b15801561432657600080fd5b505afa15801561433a573d6000803e3d6000fd5b505050506040513d601f19601f8201168201806040525081019061435e91906171a6565b92506001600160a01b0383166143745750614387565b508061437f81617060565b9150506141a8565b50909695505050505050565b60008083836040516020016143a9929190617369565b60408051808303601f1901815291815281516020928301206000908152918052902054949350505050565b60606000831180156143e65750828411155b80156143f3575060018410155b61443b5760405162461bcd60e51b81526020600482015260196024820152786b206f72204e20617265206e6f74204f4b20666f7220524e4760381b6044820152606401610d01565b600082614446614da3565b6144509190617032565b60405160200161446291815260200190565b60408051601f19818403018152828252805160209182012081840152815180840382018152928201909152815191012090506000856001600160401b038111156144ae576144ae616697565b6040519080825280602002602001820160405280156144d7578160200160208202803683370190505b5090506000806144e88860026171c3565b905060005b818110156145e05760008861450283806171c3565b61450c9088617032565b60405160200161451e91815260200190565b6040516020818303038152906040528051906020012060001c614541919061738f565b90506000805b8581101561458b57828782815181106145625761456261704a565b60200260200101511415614579576001915061458b565b8061458381617060565b915050614547565b50806145bd57818686815181106145a4576145a461704a565b60209081029190910101526145ba856001617032565b94505b8a85106145cb5750506145e0565b505080806145d890617060565b9150506144ed565b508782146143875760405162461bcd60e51b815260206004820152601060248201526f149391c81a5b9cdd59999a58da595b9d60821b6044820152606401610d01565b61462b615bc3565b6001600160a01b038116600090815260246020908152604080832080546001600160e81b03191681556001018390556025909152812061466a916163e8565b6001600160a01b038116600090815260266020908152604082208290556146929060226171c3565b905080602d5410613bb95780602d6000828254613bae919061701b565b60606000836001600160801b03161180156146db5750816001600160801b0316836001600160801b0316105b6147275760405162461bcd60e51b815260206004820152601c60248201527f496e70757420626f756e6461726965732061726520696e76616c6964000000006044820152606401610d01565b6000835b614736846001617184565b6001600160801b0316816001600160801b031610156149395760006022600061475e84615f49565b6001600160801b039081168252602080830193909352604091820160002082516101c0810184528154928316815263ffffffff600160801b8404811695820195909552600160a01b83049094169284019290925261ffff600160c01b820481166060850152600160d01b820416608084015260ff600160e01b82048116151560a0850152600160e81b82048116151560c0850152600160f01b82048116151560e0850152610100840191600160f81b9004166003811115614821576148216164cf565b6003811115614832576148326164cf565b8152600182015461ffff80821660208401526201000082041660408301526001600160401b03600160201b820481166060840152600160601b90910416608082015260028201805460a0909201916148899061707b565b80601f01602080910402602001604051908101604052809291908181526020018280546148b59061707b565b80156149025780601f106148d757610100808354040283529160200191614902565b820191906000526020600020905b8154815290600101906020018083116148e557829003601f168201915b5050505050815250509050806020015163ffffffff16836149239190617184565b925050808061493190617280565b91505061472b565b506000816001600160801b03166001600160401b0381111561495d5761495d616697565b60405190808252806020026020018201604052801561499057816020015b606081526020019060019003908161497b5790505b5090506000855b6149a2866001617184565b6001600160801b0316816001600160801b03161015614cc4576000602260006149ca84615f49565b6001600160801b039081168252602080830193909352604091820160002082516101c0810184528154928316815263ffffffff600160801b8404811695820195909552600160a01b83049094169284019290925261ffff600160c01b820481166060850152600160d01b820416608084015260ff600160e01b82048116151560a0850152600160e81b82048116151560c0850152600160f01b82048116151560e0850152610100840191600160f81b9004166003811115614a8d57614a8d6164cf565b6003811115614a9e57614a9e6164cf565b8152600182015461ffff80821660208401526201000082041660408301526001600160401b03600160201b820481166060840152600160601b90910416608082015260028201805460a090920191614af59061707b565b80601f0160208091040260200160405190810160405280929190818152602001828054614b219061707b565b8015614b6e5780601f10614b4357610100808354040283529160200191614b6e565b820191906000526020600020905b815481529060010190602001808311614b5157829003601f168201915b505050505081525050905060005b816020015163ffffffff16816001600160801b03161015614caf578151600090614ba7908390617184565b9050600060216000614bb884615f29565b6001600160801b03166001600160801b031681526020019081526020016000206003018054614be69061707b565b80601f0160208091040260200160405190810160405280929190818152602001828054614c129061707b565b8015614c5f5780601f10614c3457610100808354040283529160200191614c5f565b820191906000526020600020905b815481529060010190602001808311614c4257829003601f168201915b505050505090508087876001600160801b031681518110614c8257614c8261704a565b6020908102919091010152614c98600187617184565b955050508080614ca790617280565b915050614b7c565b50508080614cbc90617280565b915050614997565b509095945050505050565b6001600160a01b038116600090815260256020526040812081805b600f811015614d35578281600f8110614d0557614d0561704a565b0154614d2190600160801b90046001600160801b031683617032565b915080614d2d81617060565b915050614cea565b509392505050565b600081604051602001614d5091906173a3565b6040516020818303038152906040528051906020012083604051602001614d7791906173a3565b604051602081830303815290604052805190602001201415614d9b57506001610ede565b506000610ede565b600080614dae612d05565b604080516020810192909252429082015260600160408051601f198184030181529190528051602090910120614de49042617032565b604051602001614df691815260200190565b60408051601f19818403018152919052805160209091012092915050565b6060600082118015614e265750818311155b8015614e33575060018310155b614e7b5760405162461bcd60e51b81526020600482015260196024820152786b206f72204e20617265206e6f74204f4b20666f7220524e4760381b6044820152606401610d01565b6000614e85614da3565b604051602001614e9791815260200190565b60408051601f19818403018152828252805160209182012081840152815180840382018152928201909152815191012090506000846001600160401b03811115614ee357614ee3616697565b604051908082528060200260200182016040528015614f0c578160200160208202803683370190505b509050600080614f1d8760026171c3565b905060005b8181101561501557600087614f3783806171c3565b614f419088617032565b604051602001614f5391815260200190565b6040516020818303038152906040528051906020012060001c614f76919061738f565b90506000805b85811015614fc05782878281518110614f9757614f9761704a565b60200260200101511415614fae5760019150614fc0565b80614fb881617060565b915050614f7c565b5080614ff25781868681518110614fd957614fd961704a565b6020908102919091010152614fef856001617032565b94505b898510615000575050615015565b5050808061500d90617060565b915050614f22565b50868214614cc45760405162461bcd60e51b815260206004820152601060248201526f149391c81a5b9cdd59999a58da595b9d60821b6044820152606401610d01565b600061506333612aa9565b905090565b606060006150768484614e14565b949350505050565b615086615bc3565b60005b81518110156112555760008282815181106150a6576150a661704a565b602002602001015190506150b981615168565b50806150c481617060565b915050615089565b6150d4615bc3565b60005b81518110156112555760008282815181106150f4576150f461704a565b6020026020010151905061510781614623565b508061511281617060565b9150506150d7565b615122615bc3565b60005b81518110156112555760008282815181106151425761514261704a565b6020026020010151905061515581613b5a565b508061516081617060565b915050615125565b615170615bc3565b6000601f82815481106151855761518561704a565b6000918252602082200154601f80546001600160a01b039092169350906151ae9060019061701b565b815481106151be576151be61704a565b600091825260209091200154601f546001600160a01b0390911691506002116152245780601f84815481106151f5576151f561704a565b9060005260206000200160006101000a8154816001600160a01b0302191690836001600160a01b031602179055505b601f805480615235576152356173bf565b600082815260209020810160001990810180546001600160a01b031916905501905561526082613b5a565b602d5460209081116152895780602d600082825461527e919061701b565b909155506134f69050565b6000602d5550505050565b6033546001600160a01b03166152bc5760405162461bcd60e51b8152600401610d01906170b0565b6152c4613560565b6130d4615f62565b6033546001600160a01b03166152f45760405162461bcd60e51b8152600401610d01906170b0565b60006153003383613eeb565b90506001600160a01b03811661537e5760405162461bcd60e51b815260206004820152603b60248201527f4572726f723a205f73656c656374656441646472657373206973206e756c6c2060448201527f647572696e67207769746864726177566f74696e6752696768747300000000006064820152608401610d01565b60006153898261379c565b6001600160a01b0383166000908152602660205260409020546153ac919061701b565b90508281101561540e5760405162461bcd60e51b815260206004820152602760248201527f617661696c61626c65546f6b656e732073686f756c64206265203e3d205f6e756044820152666d546f6b656e7360c81b6064820152608401610d01565b6033546040805163ca64f9e760e01b815290516000926001600160a01b03169163ca64f9e7916004808301926020929190829003018186803b15801561545357600080fd5b505afa158015615467573d6000803e3d6000fd5b505050506040513d601f19601f8201168201806040525081019061548b91906171a6565b6001600160a01b0384166000908152602660205260408120805492935086929091906154b890849061701b565b9091555050604051630895993360e11b8152600481018590526001600160a01b03848116602483015282169063112b326690604401602060405180830381600087803b15801561550757600080fd5b505af115801561551b573d6000803e3d6000fd5b505050506040513d601f19601f8201168201806040525081019061553f91906170e7565b6155b15760405162461bcd60e51b815260206004820152603b60248201527f436f756c64206e6f74207769746864726177566f74696e67526967687473207460448201527f68726f7567682050726f78795374616b654465616c6c6f6361746500000000006064820152608401610d01565b6155b9615f62565b826001600160a01b03167ffaeb7dbb9992397d26ea1944efd40c80b40f702faf69b46c67ad10aba68ccb79856040516155f491815260200190565b60405180910390a250505050565b606061560d826130de565b6156535760405162461bcd60e51b815260206004820152601760248201527617d1185d1850985d18da1259081b5d5cdd08195e1a5cdd604a1b6044820152606401610d01565b60006022600061566285615f49565b6001600160801b039081168252602080830193909352604091820160002082516101c0810184528154928316815263ffffffff600160801b8404811695820195909552600160a01b83049094169284019290925261ffff600160c01b820481166060850152600160d01b820416608084015260ff600160e01b82048116151560a0850152600160e81b82048116151560c0850152600160f01b82048116151560e0850152610100840191600160f81b9004166003811115615725576157256164cf565b6003811115615736576157366164cf565b8152600182015461ffff80821660208401526201000082041660408301526001600160401b03600160201b820481166060840152600160601b90910416608082015260028201805460a09092019161578d9061707b565b80601f01602080910402602001604051908101604052809291908181526020018280546157b99061707b565b80156158065780601f106157db57610100808354040283529160200191615806565b820191906000526020600020905b8154815290600101906020018083116157e957829003601f168201915b50505091909252505050602081015190915063ffffffff166000816001600160401b0381111561583857615838616697565b60405190808252806020026020018201604052801561586b57816020015b60608152602001906001900390816158565790505b50905060005b82816001600160801b03161015613b3f578351600090615892908390617184565b90506000602160006158a384615f29565b6001600160801b03166001600160801b0316815260200190815260200160002060030180546158d19061707b565b80601f01602080910402602001604051908101604052809291908181526020018280546158fd9061707b565b801561594a5780601f1061591f5761010080835404028352916020019161594a565b820191906000526020600020905b81548152906001019060200180831161592d57829003601f168201915b505050505090508084846001600160801b03168151811061596d5761596d61704a565b60200260200101819052505050808061598590617280565b915050615871565b615995615bc3565b6001600160a01b0381166159fa5760405162461bcd60e51b815260206004820152602660248201527f4f776e61626c653a206e6577206f776e657220697320746865207a65726f206160448201526564647265737360d01b6064820152608401610d01565b615a038161628a565b50565b604080516101c08101825260008082526020820181905291810182905260608082018390526080820183905260a0820183905260c0820183905260e0820183905261010082018390526101208201839052610140820183905261016082018390526101808201929092526101a0810191909152615a82826130de565b615a8b57600080fd5b60226000615a9884615f49565b6001600160801b039081168252602080830193909352604091820160002082516101c0810184528154928316815263ffffffff600160801b8404811695820195909552600160a01b83049094169284019290925261ffff600160c01b820481166060850152600160d01b820416608084015260ff600160e01b82048116151560a0850152600160e81b82048116151560c0850152600160f01b82048116151560e0850152610100840191600160f81b9004166003811115615b5b57615b5b6164cf565b6003811115615b6c57615b6c6164cf565b8152600182015461ffff80821660208401526201000082041660408301526001600160401b03600160201b820481166060840152600160601b90910416608082015260028201805460a090920191613e119061707b565b6000546001600160a01b031633146130d45760405162461bcd60e51b815260206004820181905260248201527f4f776e61626c653a2063616c6c6572206973206e6f7420746865206f776e65726044820152606401610d01565b600054600160a01b900460ff16156130d45760405162461bcd60e51b815260206004820152601060248201526f14185d5cd8589b194e881c185d5cd95960821b6044820152606401610d01565b6033546040805163ca64f9e760e01b815290516000926001600160a01b03169163ca64f9e7916004808301926020929190829003018186803b158015615caf57600080fd5b505afa158015615cc3573d6000803e3d6000fd5b505050506040513d601f19601f82011682018060405250810190615ce791906171a6565b6001600160a01b03161415615d0e5760405162461bcd60e51b8152600401610d0190617327565b6033546040805163ca64f9e760e01b815290516000926001600160a01b03169163ca64f9e7916004808301926020929190829003018186803b158015615d5357600080fd5b505afa158015615d67573d6000803e3d6000fd5b505050506040513d601f19601f82011682018060405250810190615d8b91906171a6565b6040516304ada21f60e21b8152600481018590526001600160a01b038481166024830152919250908216906312b6887c90604401602060405180830381600087803b158015615dd957600080fd5b505af1158015615ded573d6000803e3d6000fd5b505050506040513d601f19601f82011682018060405250810190615e1191906170e7565b615e835760405162461bcd60e51b815260206004820152603f60248201527f436f756c64206e6f74207265717565737420656e6f75676820616c6c6f63617460448201527f6564207374616b652c2072657175657374416c6c6f63617465645374616b65006064820152608401610d01565b6001600160a01b038216600090815260266020526040902054615eb9576020602d6000828254615eb39190617032565b90915550505b6001600160a01b03821660009081526026602052604081208054859290615ee1908490617032565b90915550506040518381526001600160a01b038316907f5aa5d56140767016c877a5333ac3e1ad31a09051098a8fdf7297c4b64530a9429060200160405180910390a2505050565b602e54600090610ede90600160801b90046001600160801b0316836173d5565b602e54600090610ede906001600160801b0316836173d5565b6033546001600160a01b0316615f8a5760405162461bcd60e51b8152600401610d01906170b0565b60335460408051632abe0d5f60e11b815290516000926001600160a01b03169163557c1abe916004808301926020929190829003018186803b158015615fcf57600080fd5b505afa158015615fe3573d6000803e3d6000fd5b505050506040513d601f19601f8201168201806040525081019061600791906171a6565b90506001600160a01b03811661605f5760405162461bcd60e51b815260206004820152601d60248201527f734675656c3a206e756c6c2041646472657373204e6f742056616c69640000006044820152606401610d01565b6040513360248201526000906001600160a01b0383169060440160408051601f198184030181529181526020820180516001600160e01b0316631f5ac9c560e11b179052516160ae91906173a3565b6000604051808303816000865af19150503d80600081146160eb576040519150601f19603f3d011682016040523d82523d6000602084013e6160f0565b606091505b50506040513360248201529091506000906001600160a01b0384169060440160408051601f198184030181529181526020820180516001600160e01b03166358563d2160e01b1790525161614491906173a3565b6000604051808303816000865af19150503d8060008114616181576040519150601f19603f3d011682016040523d82523d6000602084013e616186565b606091505b5050905081806161935750805b6161ed5760405162461bcd60e51b815260206004820152602560248201527f72656365697665722072656a6563746564205f7265747269657665534675656c6044820152640818d85b1b60da1b6064820152608401610d01565b505050565b6161fa6162da565b6000805460ff60a01b191690557f5db9ee0a495bf2e6ff9c91a7834c1ba4fdd244a5e8aa4e537bd38aeae4b073aa335b6040516001600160a01b03909116815260200160405180910390a1565b61624f615c1d565b6000805460ff60a01b1916600160a01b1790557f62e78cea01bee320cd4e420270b5ea74000d11b0c9f74754ebdbfc544b05a25861622a3390565b600080546001600160a01b038381166001600160a01b0319831681178455604051919092169283917f8be0079c531659141344cd1fd0a4f28419497f9722a3daafe3b4186f6b6457e09190a35050565b600054600160a01b900460ff166130d45760405162461bcd60e51b815260206004820152601460248201527314185d5cd8589b194e881b9bdd081c185d5cd95960621b6044820152606401610d01565b8280546163369061707b565b90600052602060002090601f016020900481019282616358576000855561639e565b82601f1061637157805160ff191683800117855561639e565b8280016001018555821561639e579182015b8281111561639e578251825591602001919060010190616383565b506163aa9291506163f3565b5090565b5080546163ba9061707b565b6000825580601f106163ca575050565b601f016020900490600052602060002090810190615a0391906163f3565b50615a0390600f8101905b5b808211156163aa57600081556001016163f4565b6001600160a01b0381168114615a0357600080fd5b60006020828403121561642f57600080fd5b81356132f681616408565b6000806040838503121561644d57600080fd5b50508035926020909101359150565b6020808252825182820181905260009190848201906040850190845b818110156143875783516001600160a01b031683529284019291840191600101616478565b6001600160801b0381168114615a0357600080fd5b6000602082840312156164c457600080fd5b81356132f68161649d565b634e487b7160e01b600052602160045260246000fd5b6004811061650357634e487b7160e01b600052602160045260246000fd5b9052565b60005b8381101561652257818101518382015260200161650a565b838111156134f65750506000910152565b6000815180845261654b816020860160208601616507565b601f01601f19169290920160200192915050565b6001600160401b03888116825287166020820152600061658260408301886164e5565b60e0606083015261659660e0830187616533565b6001600160a01b038616608084015282810360a08401526165b78186616533565b905082810360c08401526165cb8185616533565b9a9950505050505050505050565b6001600160801b038f16815263ffffffff8e811660208301528d16604082015261ffff8c16606082015261ffff8b16608082015289151560a082015288151560c082015287151560e08201526166336101008201886164e5565b61ffff861661012082015261ffff85166101408201526001600160401b0384166101608201526001600160401b0383166101808201526101c06101a082015260006166826101c0830184616533565b90509f9e505050505050505050505050505050565b634e487b7160e01b600052604160045260246000fd5b604051601f8201601f191681016001600160401b03811182821017156166d5576166d5616697565b604052919050565b60006001600160401b038211156166f6576166f6616697565b5060051b60200190565b6000602080838503121561671357600080fd5b82356001600160401b0381111561672957600080fd5b8301601f8101851361673a57600080fd5b803561674d616748826166dd565b6166ad565b81815260059190911b8201830190838101908783111561676c57600080fd5b928401925b828410156137915783356167848161649d565b82529284019290840190616771565b600082601f8301126167a457600080fd5b81356001600160401b038111156167bd576167bd616697565b6167d0601f8201601f19166020016166ad565b8181528460208386010111156167e557600080fd5b816020850160208301376000918101602001919091529392505050565b60008083601f84011261681457600080fd5b5081356001600160401b0381111561682b57600080fd5b6020830191508360208260051b850101111561279457600080fd5b600082601f83011261685757600080fd5b81356020616867616748836166dd565b82815260059290921b8401810191818101908684111561688657600080fd5b8286015b848110156168b75780356001600160401b03811681146168aa5760008081fd5b835291830191830161688a565b509695505050505050565b6000806000806000608086880312156168da57600080fd5b85356001600160401b03808211156168f157600080fd5b818801915088601f83011261690557600080fd5b81356020616915616748836166dd565b82815260059290921b8401810191818101908c84111561693457600080fd5b8286015b8481101561696c578035868111156169505760008081fd5b61695e8f86838b0101616793565b845250918301918301616938565b509950508901359250508082111561698357600080fd5b61698f89838a01616802565b909650945060408801359150808211156169a857600080fd5b6169b489838a01616846565b935060608801359150808211156169ca57600080fd5b506169d788828901616793565b9150509295509295909350565b6000602082840312156169f657600080fd5b5035919050565b60008060408385031215616a1057600080fd5b8235616a1b8161649d565b91506020830135616a2b8161649d565b809150509250929050565b6000604082016001600160801b0380861684526020604081860152828651808552606087019150828801945060005b81811015616a83578551851683529483019491830191600101616a65565b509098975050505050505050565b8015158114615a0357600080fd5b60008060408385031215616ab257600080fd5b8235616abd81616a91565b9150602083013561ffff81168114616a2b57600080fd5b60008060408385031215616ae757600080fd5b8235616af281616408565b946020939093013593505050565b600080600060608486031215616b1557600080fd5b8335616b2081616408565b9250602084013591506040840135616b378161649d565b809150509250925092565b60008060408385031215616b5557600080fd5b8235616a1b81616408565b60008060008060808587031215616b7657600080fd5b8435616b818161649d565b93506020850135616b918161649d565b92506040850135616ba181616408565b9396929550929360600135925050565b6000602080830181845280855180835260408601915060408160051b870101925083870160005b82811015616c0657603f19888603018452616bf4858351616533565b94509285019290850190600101616bd8565b5092979650505050505050565b6020815260006001600160401b03808451166020840152806020850151166040840152506040830151616c4960608401826164e5565b50606083015160e06080840152616c64610100840182616533565b90506080840151616c8060a08501826001600160a01b03169052565b5060a0840151601f19808584030160c0860152616c9d8383616533565b925060c08601519150808584030160e086015250616cbb8282616533565b95945050505050565b60008060408385031215616cd757600080fd5b8235915060208301356001600160401b03811115616cf457600080fd5b616d0085828601616793565b9150509250929050565b600080600060608486031215616d1f57600080fd5b505081359360208301359350604090920135919050565b6020808252825182820181905260009190848201906040850190845b8181101561438757835183529284019291840191600101616d52565b60008060408385031215616d8157600080fd5b82356001600160401b0380821115616d9857600080fd5b616da486838701616793565b93506020850135915080821115616dba57600080fd5b50616d0085828601616793565b60006020808385031215616dda57600080fd5b82356001600160401b03811115616df057600080fd5b8301601f81018513616e0157600080fd5b8035616e0f616748826166dd565b81815260059190911b82018301908381019087831115616e2e57600080fd5b928401925b8284101561379157833582529284019290840190616e33565b60006020808385031215616e5f57600080fd5b82356001600160401b03811115616e7557600080fd5b8301601f81018513616e8657600080fd5b8035616e94616748826166dd565b81815260059190911b82018301908381019087831115616eb357600080fd5b928401925b82841015613791578335616ecb81616408565b82529284019290840190616eb8565b60208152616ef46020820183516001600160801b03169052565b60006020830151616f0d604084018263ffffffff169052565b50604083015163ffffffff8116606084015250606083015161ffff8116608084015250608083015161ffff811660a08401525060a083015180151560c08401525060c083015180151560e08401525060e0830151610100616f718185018315159052565b8401519050610120616f85848201836164e5565b8401519050610140616f9c8482018361ffff169052565b8401519050610160616fb38482018361ffff169052565b8401519050610180616fcf848201836001600160401b03169052565b84015190506101a0616feb848201836001600160401b03169052565b8401516101c08481015290506150766101e0840182616533565b634e487b7160e01b600052601160045260246000fd5b60008282101561702d5761702d617005565b500390565b6000821982111561704557617045617005565b500190565b634e487b7160e01b600052603260045260246000fd5b600060001982141561707457617074617005565b5060010190565b600181811c9082168061708f57607f821691505b602082108114156127ec57634e487b7160e01b600052602260045260246000fd5b6020808252601f908201527f506172616d6574657273204d616e61676572206d757374206265207365742e00604082015260600190565b6000602082840312156170f957600080fd5b81516132f681616a91565b600060208284031215612d1b57600080fd5b6000808335601e1984360301811261712d57600080fd5b8301803591506001600160401b0382111561714757600080fd5b60200191503681900382131561279457600080fd5b600063ffffffff80831681851680830382111561717b5761717b617005565b01949350505050565b60006001600160801b0380831681851680830382111561717b5761717b617005565b6000602082840312156171b857600080fd5b81516132f681616408565b60008160001904831182151516156171dd576171dd617005565b500290565b634e487b7160e01b600052601260045260246000fd5b600082617207576172076171e2565b500490565b60408152600061721f6040830185616533565b8281036020840152616cbb8185616533565b60006001600160401b038083168181141561724e5761724e617005565b6001019392505050565b60006001600160801b038381169083168181101561727857617278617005565b039392505050565b60006001600160801b038083168181141561724e5761724e617005565b60006001600160801b03808416806172b7576172b76171e2565b92169190910492915050565b600061ffff80831681851680830382111561717b5761717b617005565b600061ffff8083168185168183048111821515161561730157617301617005565b02949350505050565b60006020828403121561731c57600080fd5b81516132f68161649d565b60208082526022908201527f5374616b654d616e61676572206973206e756c6c20696e20506172616d657465604082015261727360f01b606082015260800190565b82815260008251617381816020850160208701616507565b919091016020019392505050565b60008261739e5761739e6171e2565b500690565b600082516173b5818460208701616507565b9190910192915050565b634e487b7160e01b600052603160045260246000fd5b60006001600160801b03808416806173ef576173ef6171e2565b9216919091069291505056fea2646970667358221220e768df1e00feae4eb3f129c690e446a15f446ef5445aef7ee5b2146e8e17f78e64736f6c63430008080033",
  "linkReferences": {
    "contracts/worksystems/DataSpotting2.sol": {
      "DLL": [
        {
          "length": 20,
          "start": 10848
        },
        {
          "length": 20,
          "start": 11125
        },
        {
          "length": 20,
          "start": 12754
        },
        {
          "length": 20,
          "start": 13119
        },
        {
          "length": 20,
          "start": 13314
        }
      ]
    }
  },
  "deployedLinkReferences": {
    "contracts/worksystems/DataSpotting2.sol": {
      "DLL": [
        {
          "length": 20,
          "start": 10451
        },
        {
          "length": 20,
          "start": 10728
        },
        {
          "length": 20,
          "start": 12357
        },
        {
          "length": 20,
          "start": 12722
        },
        {
          "length": 20,
          "start": 12917
        }
      ]
    }
  }
}