{
  "_format": "hh-sol-artifact-1",
  "contractName": "DataSpotting",
  "sourceName": "contracts/worksystems/DataSpotting.sol",
  "abi": [
    {
      "inputs": [
        {
          "internalType": "address",
          "name": "EXDT_token",
          "type": "address"
        }
      ],
      "stateMutability": "nonpayable",
      "type": "constructor"
    },
    {
      "anonymous": false,
      "inputs": [
        {
          "indexed": false,
          "internalType": "bytes",
          "name": "bytesFailure",
          "type": "bytes"
        }
      ],
      "name": "BytesFailure",
      "type": "event"
    },
    {
      "anonymous": false,
      "inputs": [
        {
          "indexed": true,
          "internalType": "address",
          "name": "previousOwner",
          "type": "address"
        },
        {
          "indexed": true,
          "internalType": "address",
          "name": "newOwner",
          "type": "address"
        }
      ],
      "name": "OwnershipTransferred",
      "type": "event"
    },
    {
      "anonymous": false,
      "inputs": [
        {
          "indexed": true,
          "internalType": "uint256",
          "name": "epochNumber",
          "type": "uint256"
        }
      ],
      "name": "_NewEpoch",
      "type": "event"
    },
    {
      "anonymous": false,
      "inputs": [
        {
          "indexed": false,
          "internalType": "string",
          "name": "hash",
          "type": "string"
        },
        {
          "indexed": true,
          "internalType": "address",
          "name": "creator",
          "type": "address"
        }
      ],
      "name": "_SpotAccepted",
      "type": "event"
    },
    {
      "anonymous": false,
      "inputs": [
        {
          "indexed": true,
          "internalType": "uint256",
          "name": "DataID",
          "type": "uint256"
        },
        {
          "indexed": false,
          "internalType": "uint256",
          "name": "numTokens",
          "type": "uint256"
        },
        {
          "indexed": true,
          "internalType": "address",
          "name": "voter",
          "type": "address"
        }
      ],
      "name": "_SpotCheckCommitted",
      "type": "event"
    },
    {
      "anonymous": false,
      "inputs": [
        {
          "indexed": true,
          "internalType": "uint256",
          "name": "DataID",
          "type": "uint256"
        },
        {
          "indexed": false,
          "internalType": "uint256",
          "name": "numTokens",
          "type": "uint256"
        },
        {
          "indexed": false,
          "internalType": "uint256",
          "name": "votesFor",
          "type": "uint256"
        },
        {
          "indexed": false,
          "internalType": "uint256",
          "name": "votesAgainst",
          "type": "uint256"
        },
        {
          "indexed": true,
          "internalType": "uint256",
          "name": "choice",
          "type": "uint256"
        },
        {
          "indexed": true,
          "internalType": "address",
          "name": "voter",
          "type": "address"
        }
      ],
      "name": "_SpotCheckRevealed",
      "type": "event"
    },
    {
      "anonymous": false,
      "inputs": [
        {
          "indexed": true,
          "internalType": "uint256",
          "name": "DataID",
          "type": "uint256"
        },
        {
          "indexed": false,
          "internalType": "string",
          "name": "file_hash",
          "type": "string"
        },
        {
          "indexed": false,
          "internalType": "string",
          "name": "URL_domain",
          "type": "string"
        },
        {
          "indexed": true,
          "internalType": "address",
          "name": "sender",
          "type": "address"
        }
      ],
      "name": "_SpotSubmitted",
      "type": "event"
    },
    {
      "anonymous": false,
      "inputs": [
        {
          "indexed": true,
          "internalType": "uint256",
          "name": "DataID",
          "type": "uint256"
        },
        {
          "indexed": true,
          "internalType": "address",
          "name": "voter",
          "type": "address"
        }
      ],
      "name": "_TokensRescued",
      "type": "event"
    },
    {
      "anonymous": false,
      "inputs": [
        {
          "indexed": false,
          "internalType": "uint256",
          "name": "numTokens",
          "type": "uint256"
        },
        {
          "indexed": true,
          "internalType": "address",
          "name": "voter",
          "type": "address"
        }
      ],
      "name": "_VotingRightsGranted",
      "type": "event"
    },
    {
      "anonymous": false,
      "inputs": [
        {
          "indexed": false,
          "internalType": "uint256",
          "name": "numTokens",
          "type": "uint256"
        },
        {
          "indexed": true,
          "internalType": "address",
          "name": "voter",
          "type": "address"
        }
      ],
      "name": "_VotingRightsWithdrawn",
      "type": "event"
    },
    {
      "anonymous": false,
      "inputs": [
        {
          "indexed": true,
          "internalType": "uint256",
          "name": "batchID",
          "type": "uint256"
        },
        {
          "indexed": false,
          "internalType": "address",
          "name": "worker",
          "type": "address"
        }
      ],
      "name": "_WorkAllocated",
      "type": "event"
    },
    {
      "anonymous": false,
      "inputs": [
        {
          "indexed": true,
          "internalType": "address",
          "name": "worker",
          "type": "address"
        },
        {
          "indexed": false,
          "internalType": "uint256",
          "name": "timestamp",
          "type": "uint256"
        }
      ],
      "name": "_WorkerRegistered",
      "type": "event"
    },
    {
      "anonymous": false,
      "inputs": [
        {
          "indexed": true,
          "internalType": "address",
          "name": "worker",
          "type": "address"
        },
        {
          "indexed": false,
          "internalType": "uint256",
          "name": "timestamp",
          "type": "uint256"
        }
      ],
      "name": "_WorkerUnregistered",
      "type": "event"
    },
    {
      "inputs": [],
      "name": "AcceptedBatchsCounter",
      "outputs": [
        {
          "internalType": "uint256",
          "name": "",
          "type": "uint256"
        }
      ],
      "stateMutability": "view",
      "type": "function"
    },
    {
      "inputs": [],
      "name": "AddressManager",
      "outputs": [
        {
          "internalType": "contract IAddressManager",
          "name": "",
          "type": "address"
        }
      ],
      "stateMutability": "view",
      "type": "function"
    },
    {
      "inputs": [],
      "name": "AllTxsCounter",
      "outputs": [
        {
          "internalType": "uint256",
          "name": "",
          "type": "uint256"
        }
      ],
      "stateMutability": "view",
      "type": "function"
    },
    {
      "inputs": [],
      "name": "AllocateWork",
      "outputs": [],
      "stateMutability": "nonpayable",
      "type": "function"
    },
    {
      "inputs": [],
      "name": "AllocatedBatchCursor",
      "outputs": [
        {
          "internalType": "uint256",
          "name": "",
          "type": "uint256"
        }
      ],
      "stateMutability": "view",
      "type": "function"
    },
    {
      "inputs": [],
      "name": "AmIRegistered",
      "outputs": [
        {
          "internalType": "bool",
          "name": "passed",
          "type": "bool"
        }
      ],
      "stateMutability": "view",
      "type": "function"
    },
    {
      "inputs": [
        {
          "internalType": "string",
          "name": "_a",
          "type": "string"
        },
        {
          "internalType": "string",
          "name": "_b",
          "type": "string"
        }
      ],
      "name": "AreStringsEqual",
      "outputs": [
        {
          "internalType": "bool",
          "name": "",
          "type": "bool"
        }
      ],
      "stateMutability": "pure",
      "type": "function"
    },
    {
      "inputs": [],
      "name": "BatchCheckingCursor",
      "outputs": [
        {
          "internalType": "uint256",
          "name": "",
          "type": "uint256"
        }
      ],
      "stateMutability": "view",
      "type": "function"
    },
    {
      "inputs": [],
      "name": "COMMIT_ROUND_DURATION",
      "outputs": [
        {
          "internalType": "uint256",
          "name": "",
          "type": "uint256"
        }
      ],
      "stateMutability": "view",
      "type": "function"
    },
    {
      "inputs": [],
      "name": "CONSENSUS_WORKER_SIZE",
      "outputs": [
        {
          "internalType": "uint256",
          "name": "",
          "type": "uint256"
        }
      ],
      "stateMutability": "view",
      "type": "function"
    },
    {
      "inputs": [],
      "name": "CurrentWorkEpoch",
      "outputs": [
        {
          "internalType": "uint256",
          "name": "",
          "type": "uint256"
        }
      ],
      "stateMutability": "view",
      "type": "function"
    },
    {
      "inputs": [],
      "name": "DATA_BATCH_SIZE",
      "outputs": [
        {
          "internalType": "uint256",
          "name": "",
          "type": "uint256"
        }
      ],
      "stateMutability": "view",
      "type": "function"
    },
    {
      "inputs": [
        {
          "internalType": "uint256",
          "name": "",
          "type": "uint256"
        }
      ],
      "name": "DataBatch",
      "outputs": [
        {
          "internalType": "uint256",
          "name": "start_idx",
          "type": "uint256"
        },
        {
          "internalType": "uint256",
          "name": "counter",
          "type": "uint256"
        },
        {
          "internalType": "uint256",
          "name": "uncommited_workers",
          "type": "uint256"
        },
        {
          "internalType": "uint256",
          "name": "unrevealed_workers",
          "type": "uint256"
        },
        {
          "internalType": "bool",
          "name": "complete",
          "type": "bool"
        },
        {
          "internalType": "bool",
          "name": "checked",
          "type": "bool"
        },
        {
          "internalType": "bool",
          "name": "allocated_to_work",
          "type": "bool"
        },
        {
          "internalType": "uint256",
          "name": "commitEndDate",
          "type": "uint256"
        },
        {
          "internalType": "uint256",
          "name": "revealEndDate",
          "type": "uint256"
        },
        {
          "internalType": "uint256",
          "name": "votesFor",
          "type": "uint256"
        },
        {
          "internalType": "uint256",
          "name": "votesAgainst",
          "type": "uint256"
        },
        {
          "internalType": "string",
          "name": "batchIPFSfile",
          "type": "string"
        },
        {
          "internalType": "uint256",
          "name": "item_count",
          "type": "uint256"
        },
        {
          "internalType": "enum DataSpotting.DataStatus",
          "name": "status",
          "type": "uint8"
        }
      ],
      "stateMutability": "view",
      "type": "function"
    },
    {
      "inputs": [
        {
          "internalType": "uint256",
          "name": "_DataBatchId",
          "type": "uint256"
        }
      ],
      "name": "DataCommitEndDate",
      "outputs": [
        {
          "internalType": "uint256",
          "name": "commitEndDate",
          "type": "uint256"
        }
      ],
      "stateMutability": "view",
      "type": "function"
    },
    {
      "inputs": [
        {
          "internalType": "uint256",
          "name": "_DataBatchId",
          "type": "uint256"
        }
      ],
      "name": "DataEnded",
      "outputs": [
        {
          "internalType": "bool",
          "name": "ended",
          "type": "bool"
        }
      ],
      "stateMutability": "view",
      "type": "function"
    },
    {
      "inputs": [
        {
          "internalType": "uint256",
          "name": "_DataBatchId",
          "type": "uint256"
        }
      ],
      "name": "DataExists",
      "outputs": [
        {
          "internalType": "bool",
          "name": "exists",
          "type": "bool"
        }
      ],
      "stateMutability": "view",
      "type": "function"
    },
    {
      "inputs": [],
      "name": "DataNonce",
      "outputs": [
        {
          "internalType": "uint256",
          "name": "",
          "type": "uint256"
        }
      ],
      "stateMutability": "view",
      "type": "function"
    },
    {
      "inputs": [
        {
          "internalType": "uint256",
          "name": "_DataBatchId",
          "type": "uint256"
        }
      ],
      "name": "DataRevealEndDate",
      "outputs": [
        {
          "internalType": "uint256",
          "name": "revealEndDate",
          "type": "uint256"
        }
      ],
      "stateMutability": "view",
      "type": "function"
    },
    {
      "inputs": [],
      "name": "FormattingSystem",
      "outputs": [
        {
          "internalType": "contract IFormattingSystem",
          "name": "",
          "type": "address"
        }
      ],
      "stateMutability": "view",
      "type": "function"
    },
    {
      "inputs": [
        {
          "internalType": "address",
          "name": "user_",
          "type": "address"
        }
      ],
      "name": "GetCurrentWork",
      "outputs": [
        {
          "internalType": "uint256",
          "name": "",
          "type": "uint256"
        }
      ],
      "stateMutability": "view",
      "type": "function"
    },
    {
      "inputs": [],
      "name": "INTER_ALLOCATION_DURATION",
      "outputs": [
        {
          "internalType": "uint256",
          "name": "",
          "type": "uint256"
        }
      ],
      "stateMutability": "view",
      "type": "function"
    },
    {
      "inputs": [
        {
          "internalType": "address",
          "name": "user_",
          "type": "address"
        }
      ],
      "name": "IsNewWorkAvailable",
      "outputs": [
        {
          "internalType": "bool",
          "name": "",
          "type": "bool"
        }
      ],
      "stateMutability": "view",
      "type": "function"
    },
    {
      "inputs": [],
      "name": "LastAllocationTime",
      "outputs": [
        {
          "internalType": "uint256",
          "name": "",
          "type": "uint256"
        }
      ],
      "stateMutability": "view",
      "type": "function"
    },
    {
      "inputs": [],
      "name": "LastBatchCounter",
      "outputs": [
        {
          "internalType": "uint256",
          "name": "",
          "type": "uint256"
        }
      ],
      "stateMutability": "view",
      "type": "function"
    },
    {
      "inputs": [],
      "name": "MIN_CONSENSUS_WORKER_COUNT",
      "outputs": [
        {
          "internalType": "uint256",
          "name": "",
          "type": "uint256"
        }
      ],
      "stateMutability": "view",
      "type": "function"
    },
    {
      "inputs": [],
      "name": "MIN_REP_Data",
      "outputs": [
        {
          "internalType": "uint256",
          "name": "",
          "type": "uint256"
        }
      ],
      "stateMutability": "view",
      "type": "function"
    },
    {
      "inputs": [],
      "name": "MIN_REWARD_Data",
      "outputs": [
        {
          "internalType": "uint256",
          "name": "",
          "type": "uint256"
        }
      ],
      "stateMutability": "view",
      "type": "function"
    },
    {
      "inputs": [],
      "name": "MIN_STAKE",
      "outputs": [
        {
          "internalType": "uint256",
          "name": "",
          "type": "uint256"
        }
      ],
      "stateMutability": "view",
      "type": "function"
    },
    {
      "inputs": [
        {
          "internalType": "address",
          "name": "",
          "type": "address"
        },
        {
          "internalType": "uint256",
          "name": "",
          "type": "uint256"
        }
      ],
      "name": "MasterWorkers",
      "outputs": [
        {
          "internalType": "address",
          "name": "",
          "type": "address"
        }
      ],
      "stateMutability": "view",
      "type": "function"
    },
    {
      "inputs": [],
      "name": "NotCommitedCounter",
      "outputs": [
        {
          "internalType": "uint256",
          "name": "",
          "type": "uint256"
        }
      ],
      "stateMutability": "view",
      "type": "function"
    },
    {
      "inputs": [],
      "name": "NotRevealedCounter",
      "outputs": [
        {
          "internalType": "uint256",
          "name": "",
          "type": "uint256"
        }
      ],
      "stateMutability": "view",
      "type": "function"
    },
    {
      "inputs": [],
      "name": "REVEAL_ROUND_DURATION",
      "outputs": [
        {
          "internalType": "uint256",
          "name": "",
          "type": "uint256"
        }
      ],
      "stateMutability": "view",
      "type": "function"
    },
    {
      "inputs": [],
      "name": "RegisterWorker",
      "outputs": [],
      "stateMutability": "nonpayable",
      "type": "function"
    },
    {
      "inputs": [],
      "name": "RejectedBatchsCounter",
      "outputs": [
        {
          "internalType": "uint256",
          "name": "",
          "type": "uint256"
        }
      ],
      "stateMutability": "view",
      "type": "function"
    },
    {
      "inputs": [],
      "name": "RepManager",
      "outputs": [
        {
          "internalType": "contract IRepManager",
          "name": "",
          "type": "address"
        }
      ],
      "stateMutability": "view",
      "type": "function"
    },
    {
      "inputs": [],
      "name": "RewardManager",
      "outputs": [
        {
          "internalType": "contract IRewardManager",
          "name": "",
          "type": "address"
        }
      ],
      "stateMutability": "view",
      "type": "function"
    },
    {
      "inputs": [
        {
          "internalType": "string[]",
          "name": "file_hashs",
          "type": "string[]"
        },
        {
          "internalType": "string[]",
          "name": "URL_domains",
          "type": "string[]"
        },
        {
          "internalType": "uint256",
          "name": "item_count_",
          "type": "uint256"
        },
        {
          "internalType": "string",
          "name": "extra_",
          "type": "string"
        }
      ],
      "name": "SpotData",
      "outputs": [
        {
          "internalType": "uint256",
          "name": "Dataid_",
          "type": "uint256"
        }
      ],
      "stateMutability": "nonpayable",
      "type": "function"
    },
    {
      "inputs": [
        {
          "internalType": "address",
          "name": "",
          "type": "address"
        }
      ],
      "name": "SpotStakedTokenBalance",
      "outputs": [
        {
          "internalType": "uint256",
          "name": "",
          "type": "uint256"
        }
      ],
      "stateMutability": "view",
      "type": "function"
    },
    {
      "inputs": [
        {
          "internalType": "uint256",
          "name": "",
          "type": "uint256"
        }
      ],
      "name": "SpotsMapping",
      "outputs": [
        {
          "internalType": "string",
          "name": "ipfs_hash",
          "type": "string"
        },
        {
          "internalType": "address",
          "name": "author",
          "type": "address"
        },
        {
          "internalType": "uint256",
          "name": "timestamp",
          "type": "uint256"
        },
        {
          "internalType": "uint256",
          "name": "item_count",
          "type": "uint256"
        },
        {
          "internalType": "string",
          "name": "URL_domain",
          "type": "string"
        },
        {
          "internalType": "string",
          "name": "extra",
          "type": "string"
        },
        {
          "internalType": "enum DataSpotting.DataStatus",
          "name": "status",
          "type": "uint8"
        }
      ],
      "stateMutability": "view",
      "type": "function"
    },
    {
      "inputs": [],
      "name": "StakeManager",
      "outputs": [
        {
          "internalType": "contract IStakeManager",
          "name": "",
          "type": "address"
        }
      ],
      "stateMutability": "view",
      "type": "function"
    },
    {
      "inputs": [],
      "name": "TriggerNextEpoch",
      "outputs": [],
      "stateMutability": "nonpayable",
      "type": "function"
    },
    {
      "inputs": [],
      "name": "UnregisterWorker",
      "outputs": [],
      "stateMutability": "nonpayable",
      "type": "function"
    },
    {
      "inputs": [
        {
          "internalType": "uint256",
          "name": "",
          "type": "uint256"
        },
        {
          "internalType": "address",
          "name": "",
          "type": "address"
        }
      ],
      "name": "UserBatchCounts",
      "outputs": [
        {
          "internalType": "uint256",
          "name": "",
          "type": "uint256"
        }
      ],
      "stateMutability": "view",
      "type": "function"
    },
    {
      "inputs": [
        {
          "internalType": "uint256",
          "name": "",
          "type": "uint256"
        },
        {
          "internalType": "address",
          "name": "",
          "type": "address"
        }
      ],
      "name": "UserBatchFrom",
      "outputs": [
        {
          "internalType": "string",
          "name": "",
          "type": "string"
        }
      ],
      "stateMutability": "view",
      "type": "function"
    },
    {
      "inputs": [
        {
          "internalType": "address",
          "name": "",
          "type": "address"
        },
        {
          "internalType": "uint256",
          "name": "",
          "type": "uint256"
        }
      ],
      "name": "UserChecksCommits",
      "outputs": [
        {
          "internalType": "bool",
          "name": "",
          "type": "bool"
        }
      ],
      "stateMutability": "view",
      "type": "function"
    },
    {
      "inputs": [
        {
          "internalType": "address",
          "name": "",
          "type": "address"
        },
        {
          "internalType": "uint256",
          "name": "",
          "type": "uint256"
        }
      ],
      "name": "UserChecksReveals",
      "outputs": [
        {
          "internalType": "bool",
          "name": "",
          "type": "bool"
        }
      ],
      "stateMutability": "view",
      "type": "function"
    },
    {
      "inputs": [
        {
          "internalType": "uint256",
          "name": "",
          "type": "uint256"
        },
        {
          "internalType": "address",
          "name": "",
          "type": "address"
        }
      ],
      "name": "UserNewFiles",
      "outputs": [
        {
          "internalType": "string",
          "name": "",
          "type": "string"
        }
      ],
      "stateMutability": "view",
      "type": "function"
    },
    {
      "inputs": [
        {
          "internalType": "uint256",
          "name": "",
          "type": "uint256"
        },
        {
          "internalType": "address",
          "name": "",
          "type": "address"
        }
      ],
      "name": "UserVotes",
      "outputs": [
        {
          "internalType": "uint256",
          "name": "",
          "type": "uint256"
        }
      ],
      "stateMutability": "view",
      "type": "function"
    },
    {
      "inputs": [],
      "name": "VOTE_QUORUM",
      "outputs": [
        {
          "internalType": "uint256",
          "name": "",
          "type": "uint256"
        }
      ],
      "stateMutability": "view",
      "type": "function"
    },
    {
      "inputs": [
        {
          "internalType": "uint256",
          "name": "",
          "type": "uint256"
        },
        {
          "internalType": "uint256",
          "name": "",
          "type": "uint256"
        }
      ],
      "name": "WorkersPerBatch",
      "outputs": [
        {
          "internalType": "address",
          "name": "",
          "type": "address"
        }
      ],
      "stateMutability": "view",
      "type": "function"
    },
    {
      "inputs": [
        {
          "internalType": "address",
          "name": "",
          "type": "address"
        }
      ],
      "name": "WorkersState",
      "outputs": [
        {
          "internalType": "address",
          "name": "worker_address",
          "type": "address"
        },
        {
          "internalType": "address",
          "name": "master_address",
          "type": "address"
        },
        {
          "internalType": "uint256",
          "name": "allocated_work_batch",
          "type": "uint256"
        },
        {
          "internalType": "bool",
          "name": "has_completed_work",
          "type": "bool"
        },
        {
          "internalType": "uint256",
          "name": "last_worked_round",
          "type": "uint256"
        },
        {
          "internalType": "uint256",
          "name": "last_interaction_date",
          "type": "uint256"
        },
        {
          "internalType": "string",
          "name": "extra",
          "type": "string"
        },
        {
          "internalType": "bool",
          "name": "registered",
          "type": "bool"
        },
        {
          "internalType": "bool",
          "name": "unregistration_request",
          "type": "bool"
        },
        {
          "internalType": "uint256",
          "name": "registration_date",
          "type": "uint256"
        },
        {
          "internalType": "uint256",
          "name": "majority_counter",
          "type": "uint256"
        },
        {
          "internalType": "uint256",
          "name": "minority_counter",
          "type": "uint256"
        }
      ],
      "stateMutability": "view",
      "type": "function"
    },
    {
      "inputs": [
        {
          "internalType": "address",
          "name": "_user",
          "type": "address"
        },
        {
          "internalType": "uint256",
          "name": "_DataBatchId",
          "type": "uint256"
        }
      ],
      "name": "attrUUID",
      "outputs": [
        {
          "internalType": "bytes32",
          "name": "UUID",
          "type": "bytes32"
        }
      ],
      "stateMutability": "pure",
      "type": "function"
    },
    {
      "inputs": [
        {
          "internalType": "uint256",
          "name": "",
          "type": "uint256"
        }
      ],
      "name": "availableWorkers",
      "outputs": [
        {
          "internalType": "address",
          "name": "",
          "type": "address"
        }
      ],
      "stateMutability": "view",
      "type": "function"
    },
    {
      "inputs": [
        {
          "internalType": "uint256",
          "name": "",
          "type": "uint256"
        }
      ],
      "name": "busyWorkers",
      "outputs": [
        {
          "internalType": "address",
          "name": "",
          "type": "address"
        }
      ],
      "stateMutability": "view",
      "type": "function"
    },
    {
      "inputs": [
        {
          "internalType": "uint256",
          "name": "_DataBatchId",
          "type": "uint256"
        }
      ],
      "name": "commitPeriodActive",
      "outputs": [
        {
          "internalType": "bool",
          "name": "active",
          "type": "bool"
        }
      ],
      "stateMutability": "view",
      "type": "function"
    },
    {
      "inputs": [
        {
          "internalType": "uint256",
          "name": "_DataBatchId",
          "type": "uint256"
        },
        {
          "internalType": "bytes32",
          "name": "_secretHash",
          "type": "bytes32"
        },
        {
          "internalType": "string",
          "name": "newIPFSHash",
          "type": "string"
        },
        {
          "internalType": "uint256",
          "name": "_BatchCount",
          "type": "uint256"
        },
        {
          "internalType": "string",
          "name": "_From",
          "type": "string"
        }
      ],
      "name": "commitSpotCheck",
      "outputs": [],
      "stateMutability": "nonpayable",
      "type": "function"
    },
    {
      "inputs": [
        {
          "internalType": "uint256",
          "name": "_DataId",
          "type": "uint256"
        }
      ],
      "name": "deleteData",
      "outputs": [],
      "stateMutability": "nonpayable",
      "type": "function"
    },
    {
      "inputs": [
        {
          "internalType": "uint256",
          "name": "_BatchId",
          "type": "uint256"
        }
      ],
      "name": "deleteDataBatch",
      "outputs": [],
      "stateMutability": "nonpayable",
      "type": "function"
    },
    {
      "inputs": [
        {
          "internalType": "address",
          "name": "_voter",
          "type": "address"
        },
        {
          "internalType": "uint256",
          "name": "_DataBatchId",
          "type": "uint256"
        }
      ],
      "name": "didCommit",
      "outputs": [
        {
          "internalType": "bool",
          "name": "committed",
          "type": "bool"
        }
      ],
      "stateMutability": "view",
      "type": "function"
    },
    {
      "inputs": [
        {
          "internalType": "address",
          "name": "_voter",
          "type": "address"
        },
        {
          "internalType": "uint256",
          "name": "_DataBatchId",
          "type": "uint256"
        }
      ],
      "name": "didReveal",
      "outputs": [
        {
          "internalType": "bool",
          "name": "revealed",
          "type": "bool"
        }
      ],
      "stateMutability": "view",
      "type": "function"
    },
    {
      "inputs": [
        {
          "internalType": "uint256",
          "name": "_k",
          "type": "uint256"
        },
        {
          "internalType": "uint256",
          "name": "N_range",
          "type": "uint256"
        }
      ],
      "name": "generateIntegers",
      "outputs": [
        {
          "internalType": "uint256[]",
          "name": "",
          "type": "uint256[]"
        }
      ],
      "stateMutability": "view",
      "type": "function"
    },
    {
      "inputs": [],
      "name": "getAcceptedBatchesCount",
      "outputs": [
        {
          "internalType": "uint256",
          "name": "count",
          "type": "uint256"
        }
      ],
      "stateMutability": "view",
      "type": "function"
    },
    {
      "inputs": [],
      "name": "getActiveWorkersCount",
      "outputs": [
        {
          "internalType": "uint256",
          "name": "numWorkers",
          "type": "uint256"
        }
      ],
      "stateMutability": "view",
      "type": "function"
    },
    {
      "inputs": [
        {
          "internalType": "uint256",
          "name": "_DataBatchId",
          "type": "uint256"
        }
      ],
      "name": "getBatchByID",
      "outputs": [
        {
          "components": [
            {
              "internalType": "uint256",
              "name": "start_idx",
              "type": "uint256"
            },
            {
              "internalType": "uint256",
              "name": "counter",
              "type": "uint256"
            },
            {
              "internalType": "uint256",
              "name": "uncommited_workers",
              "type": "uint256"
            },
            {
              "internalType": "uint256",
              "name": "unrevealed_workers",
              "type": "uint256"
            },
            {
              "internalType": "bool",
              "name": "complete",
              "type": "bool"
            },
            {
              "internalType": "bool",
              "name": "checked",
              "type": "bool"
            },
            {
              "internalType": "bool",
              "name": "allocated_to_work",
              "type": "bool"
            },
            {
              "internalType": "uint256",
              "name": "commitEndDate",
              "type": "uint256"
            },
            {
              "internalType": "uint256",
              "name": "revealEndDate",
              "type": "uint256"
            },
            {
              "internalType": "uint256",
              "name": "votesFor",
              "type": "uint256"
            },
            {
              "internalType": "uint256",
              "name": "votesAgainst",
              "type": "uint256"
            },
            {
              "internalType": "string",
              "name": "batchIPFSfile",
              "type": "string"
            },
            {
              "internalType": "uint256",
              "name": "item_count",
              "type": "uint256"
            },
            {
              "internalType": "enum DataSpotting.DataStatus",
              "name": "status",
              "type": "uint8"
            }
          ],
          "internalType": "struct DataSpotting.BatchMetadata",
          "name": "batch",
          "type": "tuple"
        }
      ],
      "stateMutability": "view",
      "type": "function"
    },
    {
      "inputs": [
        {
          "internalType": "uint256",
          "name": "_DataBatchId",
          "type": "uint256"
        }
      ],
      "name": "getBatchIPFSFileByID",
      "outputs": [
        {
          "internalType": "string",
          "name": "batch",
          "type": "string"
        }
      ],
      "stateMutability": "view",
      "type": "function"
    },
    {
      "inputs": [
        {
          "internalType": "address",
          "name": "_voter",
          "type": "address"
        },
        {
          "internalType": "uint256",
          "name": "_DataBatchId",
          "type": "uint256"
        }
      ],
      "name": "getCommitHash",
      "outputs": [
        {
          "internalType": "bytes32",
          "name": "commitHash",
          "type": "bytes32"
        }
      ],
      "stateMutability": "view",
      "type": "function"
    },
    {
      "inputs": [],
      "name": "getCurrentWorkEpoch",
      "outputs": [
        {
          "internalType": "uint256",
          "name": "WorkEpoch",
          "type": "uint256"
        }
      ],
      "stateMutability": "view",
      "type": "function"
    },
    {
      "inputs": [
        {
          "internalType": "uint256",
          "name": "_DataId",
          "type": "uint256"
        }
      ],
      "name": "getDataByID",
      "outputs": [
        {
          "components": [
            {
              "internalType": "string",
              "name": "ipfs_hash",
              "type": "string"
            },
            {
              "internalType": "address",
              "name": "author",
              "type": "address"
            },
            {
              "internalType": "uint256",
              "name": "timestamp",
              "type": "uint256"
            },
            {
              "internalType": "uint256",
              "name": "item_count",
              "type": "uint256"
            },
            {
              "internalType": "string",
              "name": "URL_domain",
              "type": "string"
            },
            {
              "internalType": "string",
              "name": "extra",
              "type": "string"
            },
            {
              "internalType": "enum DataSpotting.DataStatus",
              "name": "status",
              "type": "uint8"
            }
          ],
          "internalType": "struct DataSpotting.SpottedData",
          "name": "data",
          "type": "tuple"
        }
      ],
      "stateMutability": "view",
      "type": "function"
    },
    {
      "inputs": [
        {
          "internalType": "uint256",
          "name": "_DataBatchId",
          "type": "uint256"
        }
      ],
      "name": "getDomainsForBatch",
      "outputs": [
        {
          "internalType": "string[]",
          "name": "",
          "type": "string[]"
        }
      ],
      "stateMutability": "view",
      "type": "function"
    },
    {
      "inputs": [
        {
          "internalType": "uint256",
          "name": "_voteOption",
          "type": "uint256"
        },
        {
          "internalType": "uint256",
          "name": "_salt",
          "type": "uint256"
        }
      ],
      "name": "getEncryptedHash",
      "outputs": [
        {
          "internalType": "bytes32",
          "name": "keccak256hash",
          "type": "bytes32"
        }
      ],
      "stateMutability": "pure",
      "type": "function"
    },
    {
      "inputs": [
        {
          "internalType": "string",
          "name": "_hash",
          "type": "string"
        },
        {
          "internalType": "uint256",
          "name": "_salt",
          "type": "uint256"
        }
      ],
      "name": "getEncryptedStringHash",
      "outputs": [
        {
          "internalType": "bytes32",
          "name": "keccak256hash",
          "type": "bytes32"
        }
      ],
      "stateMutability": "pure",
      "type": "function"
    },
    {
      "inputs": [
        {
          "internalType": "uint256",
          "name": "_DataBatchId",
          "type": "uint256"
        }
      ],
      "name": "getIPFShashesForBatch",
      "outputs": [
        {
          "internalType": "string[]",
          "name": "",
          "type": "string[]"
        }
      ],
      "stateMutability": "view",
      "type": "function"
    },
    {
      "inputs": [],
      "name": "getLastAllocatedBatchId",
      "outputs": [
        {
          "internalType": "uint256",
          "name": "LastAllocatedBatchId",
          "type": "uint256"
        }
      ],
      "stateMutability": "view",
      "type": "function"
    },
    {
      "inputs": [],
      "name": "getLastBatchId",
      "outputs": [
        {
          "internalType": "uint256",
          "name": "LastBatchId",
          "type": "uint256"
        }
      ],
      "stateMutability": "view",
      "type": "function"
    },
    {
      "inputs": [],
      "name": "getLastCheckedBatchId",
      "outputs": [
        {
          "internalType": "uint256",
          "name": "LastCheckedBatchId",
          "type": "uint256"
        }
      ],
      "stateMutability": "view",
      "type": "function"
    },
    {
      "inputs": [],
      "name": "getLastDataId",
      "outputs": [
        {
          "internalType": "uint256",
          "name": "DataId",
          "type": "uint256"
        }
      ],
      "stateMutability": "view",
      "type": "function"
    },
    {
      "inputs": [
        {
          "internalType": "address",
          "name": "_voter",
          "type": "address"
        }
      ],
      "name": "getLastNode",
      "outputs": [
        {
          "internalType": "uint256",
          "name": "DataID",
          "type": "uint256"
        }
      ],
      "stateMutability": "view",
      "type": "function"
    },
    {
      "inputs": [
        {
          "internalType": "address",
          "name": "user",
          "type": "address"
        }
      ],
      "name": "getLastUserDataId",
      "outputs": [
        {
          "internalType": "uint256",
          "name": "DataId",
          "type": "uint256"
        }
      ],
      "stateMutability": "view",
      "type": "function"
    },
    {
      "inputs": [
        {
          "internalType": "address",
          "name": "_voter",
          "type": "address"
        }
      ],
      "name": "getLockedTokens",
      "outputs": [
        {
          "internalType": "uint256",
          "name": "numTokens",
          "type": "uint256"
        }
      ],
      "stateMutability": "view",
      "type": "function"
    },
    {
      "inputs": [],
      "name": "getMySystemTokenBalance",
      "outputs": [
        {
          "internalType": "uint256",
          "name": "tokens",
          "type": "uint256"
        }
      ],
      "stateMutability": "view",
      "type": "function"
    },
    {
      "inputs": [
        {
          "internalType": "address",
          "name": "_voter",
          "type": "address"
        },
        {
          "internalType": "uint256",
          "name": "_DataBatchId",
          "type": "uint256"
        }
      ],
      "name": "getNumTokens",
      "outputs": [
        {
          "internalType": "uint256",
          "name": "numTokens",
          "type": "uint256"
        }
      ],
      "stateMutability": "view",
      "type": "function"
    },
    {
      "inputs": [],
      "name": "getRandom",
      "outputs": [
        {
          "internalType": "uint256",
          "name": "",
          "type": "uint256"
        }
      ],
      "stateMutability": "view",
      "type": "function"
    },
    {
      "inputs": [],
      "name": "getRejectedBatchesCount",
      "outputs": [
        {
          "internalType": "uint256",
          "name": "count",
          "type": "uint256"
        }
      ],
      "stateMutability": "view",
      "type": "function"
    },
    {
      "inputs": [],
      "name": "getSeed",
      "outputs": [
        {
          "internalType": "bytes32",
          "name": "addr",
          "type": "bytes32"
        }
      ],
      "stateMutability": "view",
      "type": "function"
    },
    {
      "inputs": [
        {
          "internalType": "address",
          "name": "_user",
          "type": "address"
        }
      ],
      "name": "getSystemTokenBalance",
      "outputs": [
        {
          "internalType": "uint256",
          "name": "tokens",
          "type": "uint256"
        }
      ],
      "stateMutability": "view",
      "type": "function"
    },
    {
      "inputs": [],
      "name": "getTxCounter",
      "outputs": [
        {
          "internalType": "uint256",
          "name": "Counter",
          "type": "uint256"
        }
      ],
      "stateMutability": "view",
      "type": "function"
    },
    {
      "inputs": [
        {
          "internalType": "address",
          "name": "user",
          "type": "address"
        }
      ],
      "name": "getUserDatas",
      "outputs": [
        {
          "internalType": "uint256[]",
          "name": "user_Datas",
          "type": "uint256[]"
        }
      ],
      "stateMutability": "view",
      "type": "function"
    },
    {
      "inputs": [
        {
          "internalType": "uint256",
          "name": "_terminationDate",
          "type": "uint256"
        }
      ],
      "name": "isExpired",
      "outputs": [
        {
          "internalType": "bool",
          "name": "expired",
          "type": "bool"
        }
      ],
      "stateMutability": "view",
      "type": "function"
    },
    {
      "inputs": [
        {
          "internalType": "uint256",
          "name": "_DataBatchId",
          "type": "uint256"
        }
      ],
      "name": "isPassed",
      "outputs": [
        {
          "internalType": "bool",
          "name": "passed",
          "type": "bool"
        }
      ],
      "stateMutability": "view",
      "type": "function"
    },
    {
      "inputs": [
        {
          "internalType": "uint256",
          "name": "_DataBatchId",
          "type": "uint256"
        },
        {
          "internalType": "address",
          "name": "_worker",
          "type": "address"
        }
      ],
      "name": "isWorkerAllocatedToBatch",
      "outputs": [
        {
          "internalType": "bool",
          "name": "",
          "type": "bool"
        }
      ],
      "stateMutability": "view",
      "type": "function"
    },
    {
      "inputs": [
        {
          "internalType": "address",
          "name": "_worker",
          "type": "address"
        }
      ],
      "name": "isWorkerRegistered",
      "outputs": [
        {
          "internalType": "bool",
          "name": "passed",
          "type": "bool"
        }
      ],
      "stateMutability": "view",
      "type": "function"
    },
    {
      "inputs": [],
      "name": "owner",
      "outputs": [
        {
          "internalType": "address",
          "name": "",
          "type": "address"
        }
      ],
      "stateMutability": "view",
      "type": "function"
    },
    {
      "inputs": [
        {
          "internalType": "uint256",
          "name": "k",
          "type": "uint256"
        },
        {
          "internalType": "uint256",
          "name": "N",
          "type": "uint256"
        }
      ],
      "name": "random_selection",
      "outputs": [
        {
          "internalType": "uint256[]",
          "name": "",
          "type": "uint256[]"
        }
      ],
      "stateMutability": "view",
      "type": "function"
    },
    {
      "inputs": [],
      "name": "renounceOwnership",
      "outputs": [],
      "stateMutability": "nonpayable",
      "type": "function"
    },
    {
      "inputs": [
        {
          "internalType": "uint256",
          "name": "_numTokens",
          "type": "uint256"
        }
      ],
      "name": "requestVotingRights",
      "outputs": [],
      "stateMutability": "nonpayable",
      "type": "function"
    },
    {
      "inputs": [
        {
          "internalType": "uint256",
          "name": "_DataBatchId",
          "type": "uint256"
        }
      ],
      "name": "rescueTokens",
      "outputs": [],
      "stateMutability": "nonpayable",
      "type": "function"
    },
    {
      "inputs": [
        {
          "internalType": "uint256[]",
          "name": "_DataBatchIDs",
          "type": "uint256[]"
        }
      ],
      "name": "rescueTokensInMultipleDatas",
      "outputs": [],
      "stateMutability": "nonpayable",
      "type": "function"
    },
    {
      "inputs": [
        {
          "internalType": "uint256",
          "name": "_DataBatchId",
          "type": "uint256"
        }
      ],
      "name": "revealPeriodActive",
      "outputs": [
        {
          "internalType": "bool",
          "name": "active",
          "type": "bool"
        }
      ],
      "stateMutability": "view",
      "type": "function"
    },
    {
      "inputs": [
        {
          "internalType": "uint256",
          "name": "_DataBatchId",
          "type": "uint256"
        },
        {
          "internalType": "uint256",
          "name": "_voteOption",
          "type": "uint256"
        },
        {
          "internalType": "uint256",
          "name": "_salt",
          "type": "uint256"
        }
      ],
      "name": "revealSpotCheck",
      "outputs": [],
      "stateMutability": "nonpayable",
      "type": "function"
    },
    {
      "inputs": [],
      "name": "sFuel",
      "outputs": [
        {
          "internalType": "address",
          "name": "",
          "type": "address"
        }
      ],
      "stateMutability": "view",
      "type": "function"
    },
    {
      "inputs": [
        {
          "internalType": "uint256",
          "name": "N",
          "type": "uint256"
        }
      ],
      "name": "shuffle_array",
      "outputs": [
        {
          "internalType": "uint256[]",
          "name": "",
          "type": "uint256[]"
        }
      ],
      "stateMutability": "view",
      "type": "function"
    },
    {
      "inputs": [
        {
          "internalType": "uint256",
          "name": "",
          "type": "uint256"
        }
      ],
      "name": "toUnregisterWorkers",
      "outputs": [
        {
          "internalType": "address",
          "name": "",
          "type": "address"
        }
      ],
      "stateMutability": "view",
      "type": "function"
    },
    {
      "inputs": [],
      "name": "token",
      "outputs": [
        {
          "internalType": "contract IERC20",
          "name": "",
          "type": "address"
        }
      ],
      "stateMutability": "view",
      "type": "function"
    },
    {
      "inputs": [
        {
          "internalType": "address",
          "name": "newOwner",
          "type": "address"
        }
      ],
      "name": "transferOwnership",
      "outputs": [],
      "stateMutability": "nonpayable",
      "type": "function"
    },
    {
      "inputs": [
        {
          "internalType": "address",
          "name": "addr",
          "type": "address"
        }
      ],
      "name": "updateAddressManager",
      "outputs": [],
      "stateMutability": "nonpayable",
      "type": "function"
    },
    {
      "inputs": [
        {
          "internalType": "uint256",
          "name": "COMMIT_ROUND_DURATION_",
          "type": "uint256"
        }
      ],
      "name": "updateCommitRoundDuration",
      "outputs": [],
      "stateMutability": "nonpayable",
      "type": "function"
    },
    {
      "inputs": [
        {
          "internalType": "uint256",
          "name": "CONSENSUS_WORKER_SIZE_",
          "type": "uint256"
        }
      ],
      "name": "updateConsensusSize",
      "outputs": [],
      "stateMutability": "nonpayable",
      "type": "function"
    },
    {
      "inputs": [
        {
          "internalType": "uint256",
          "name": "size",
          "type": "uint256"
        }
      ],
      "name": "updateDataBachSize",
      "outputs": [],
      "stateMutability": "nonpayable",
      "type": "function"
    },
    {
      "inputs": [
        {
          "internalType": "address",
          "name": "addr",
          "type": "address"
        }
      ],
      "name": "updateFormattingSystem",
      "outputs": [],
      "stateMutability": "nonpayable",
      "type": "function"
    },
    {
      "inputs": [
        {
          "internalType": "uint256",
          "name": "INTER_ALLOCATION_DURATION_",
          "type": "uint256"
        }
      ],
      "name": "updateInterAllocationDuration",
      "outputs": [],
      "stateMutability": "nonpayable",
      "type": "function"
    },
    {
      "inputs": [
        {
          "internalType": "uint256",
          "name": "CONSENSUS_WORKER_SIZE_",
          "type": "uint256"
        }
      ],
      "name": "updateMinConsensusSize",
      "outputs": [],
      "stateMutability": "nonpayable",
      "type": "function"
    },
    {
      "inputs": [
        {
          "internalType": "address",
          "name": "addr",
          "type": "address"
        }
      ],
      "name": "updateRepManager",
      "outputs": [],
      "stateMutability": "nonpayable",
      "type": "function"
    },
    {
      "inputs": [
        {
          "internalType": "uint256",
          "name": "REVEAL_ROUND_DURATION_",
          "type": "uint256"
        }
      ],
      "name": "updateRevealRoundDuration",
      "outputs": [],
      "stateMutability": "nonpayable",
      "type": "function"
    },
    {
      "inputs": [
        {
          "internalType": "address",
          "name": "addr",
          "type": "address"
        }
      ],
      "name": "updateRewardManager",
      "outputs": [],
      "stateMutability": "nonpayable",
      "type": "function"
    },
    {
      "inputs": [
        {
          "internalType": "address",
          "name": "addr",
          "type": "address"
        }
      ],
      "name": "updateStakeManager",
      "outputs": [],
      "stateMutability": "nonpayable",
      "type": "function"
    },
    {
      "inputs": [
        {
          "internalType": "uint256",
          "name": "VOTE_QUORUM_",
          "type": "uint256"
        }
      ],
      "name": "updateVoteQuoum",
      "outputs": [],
      "stateMutability": "nonpayable",
      "type": "function"
    },
    {
      "inputs": [
        {
          "internalType": "address",
          "name": "_sFuel",
          "type": "address"
        }
      ],
      "name": "updatesFuelFaucet",
      "outputs": [],
      "stateMutability": "nonpayable",
      "type": "function"
    },
    {
      "inputs": [
        {
          "internalType": "address",
          "name": "",
          "type": "address"
        },
        {
          "internalType": "uint256",
          "name": "",
          "type": "uint256"
        }
      ],
      "name": "userSubmissions",
      "outputs": [
        {
          "internalType": "uint256",
          "name": "",
          "type": "uint256"
        }
      ],
      "stateMutability": "view",
      "type": "function"
    },
    {
      "inputs": [
        {
          "internalType": "uint256",
          "name": "_prevID",
          "type": "uint256"
        },
        {
          "internalType": "uint256",
          "name": "_nextID",
          "type": "uint256"
        },
        {
          "internalType": "address",
          "name": "_voter",
          "type": "address"
        },
        {
          "internalType": "uint256",
          "name": "_numTokens",
          "type": "uint256"
        }
      ],
      "name": "validPosition",
      "outputs": [
        {
          "internalType": "bool",
          "name": "APPROVED",
          "type": "bool"
        }
      ],
      "stateMutability": "view",
      "type": "function"
    },
    {
      "inputs": [
        {
          "internalType": "uint256",
          "name": "_numTokens",
          "type": "uint256"
        }
      ],
      "name": "withdrawVotingRights",
      "outputs": [],
      "stateMutability": "nonpayable",
      "type": "function"
    }
  ],
  "bytecode": "0x6080604052600180556002805560016003556000600855670de0b6b3a764000060095568015af1d78b58c40000600a55603c600b55600060145560006015557314f52f3fc010ab6ca81568d4a6794d5eab3c6155601f60006101000a8154816001600160a01b0302191690836001600160a01b0316021790555060016020556001602155600160225560006024556000602555600060265560006027556000602855348015620000ae57600080fd5b506040516200806d3803806200806d833981016040819052620000d19162000180565b620000e5620000df6200012c565b62000130565b602980546001600160a01b0319166001600160a01b0392909216919091179055600060155568015af1d78b58c4000060045560b46005819055600655600a600755620001b0565b3390565b600080546001600160a01b038381166001600160a01b0319831681178455604051919092169283917f8be0079c531659141344cd1fd0a4f28419497f9722a3daafe3b4186f6b6457e09190a35050565b60006020828403121562000192578081fd5b81516001600160a01b0381168114620001a9578182fd5b9392505050565b617ead80620001c06000396000f3fe608060405234801561001057600080fd5b50600436106107375760003560e01c80639fc9c52f116103b3578063d6b0206c116101f4578063e8e9b6f91161011a578063f4cdfcc4116100b8578063f80a23fd11610087578063f80a23fd14610eac578063f96305f014610eb4578063fc0c546a14610ebc578063fca4956314610ec457610737565b8063f4cdfcc414610e76578063f5ae7c7d14610e89578063f716596d14610e91578063f721de4a14610e9957610737565b8063ef4fcdad116100f4578063ef4fcdad14610e40578063f2d9e74d14610e48578063f2fde38b14610e50578063f343894614610e6357610737565b8063e8e9b6f914610e12578063eb1322ff14610e25578063ed8becfa14610e2d57610737565b8063dd61868211610192578063e604c12711610161578063e604c12714610dd1578063e7805f9e14610de4578063e798a7da14610dec578063e7b1d43c14610dff57610737565b8063dd61868214610d90578063df05368e14610da3578063e1f7a43014610db6578063e44c974b14610dbe57610737565b8063d901402b116101ce578063d901402b14610d37578063d9548e5314610d4a578063d9845fb814610d5d578063d9966ae814610d7d57610737565b8063d6b0206c14610d09578063d822ce0114610d11578063d8b7567414610d2457610737565b8063b1d7ea98116102d9578063c7c063fb11610277578063d0d41def11610246578063d0d41def14610cc8578063d138209214610cd0578063d186981d14610ce3578063d420ec0b14610cf657610737565b8063c7c063fb14610c92578063c9b03a7214610ca5578063cb1c2b5c14610cad578063cdb8b21814610cb557610737565b8063bc3002e6116102b3578063bc3002e614610c51578063c47c4bc214610c64578063c4e4f82a14610c77578063c7761fab14610c8a57610737565b8063b1d7ea9814610c18578063b7e4eba914610c2b578063b8f011b314610c3e57610737565b8063a905779011610351578063b0ebc1d811610320578063b0ebc1d814610bcc578063b10aa58414610bdf578063b1a2e0be14610bf2578063b1cf4a7e14610c0557610737565b8063a905779014610b96578063aa7ca46414610ba9578063aacc5a1714610bbc578063ab43e78d14610bc457610737565b8063a25236fe1161038d578063a25236fe14610b60578063a350715a14610b73578063a4439dc514610b7b578063a511dba014610b8e57610737565b80639fc9c52f14610b32578063a1103f3714610b45578063a1b6b5b714610b5857610737565b80635a4529431161057d5780637f97e836116104a35780638c89d0271161044157806397603560116104105780639760356014610afc5780639769d84614610b0f5780639acb75c114610b175780639b7e018014610b1f57610737565b80638c89d02714610aae5780638d289f8f14610ad95780638da5cb5b14610ae15780638df0296e14610ae957610737565b8063821aa8c01161047d578063821aa8c014610a7857806383cc6ef214610a8b5780638473850b14610a9357806388d072eb14610a9b57610737565b80637f97e83614610a255780637fabe35b14610a38578063819b029314610a6557610737565b8063715018a61161051b5780637827e549116104ea5780637827e549146109fa5780637a34da6714610a025780637d05052614610a0a5780637f9510a214610a1d57610737565b8063715018a6146109cf57806371880b1b146109d7578063726bc8af146109ea57806376e8ea4f146109f257610737565b80636371d81f116105575780636371d81f1461098e578063667bf0f8146109a15780636b2d95d4146109a95780637074222b146109bc57610737565b80635a452943146109535780635b113a55146109735780635fd879091461098657610737565b8063354dae40116106625780634852e2f011610600578063515535e8116105cf578063515535e81461091057806351912f2914610918578063579db71c14610920578063580021581461094057610737565b80634852e2f0146108cf57806349403183146108d75780634d884281146108ea5780634fe8b4c1146108fd57610737565b8063441c77c01161063c578063441c77c01461088e57806344639f7c146108a157806344dc8e6b146108b457806347fe2d20146108c757610737565b8063354dae401461086b57806339e7357c14610873578063427fa1d21461087b57610737565b806319d90346116106da5780632d917c68116106a95780632d917c681461081d5780632f469fd114610830578063313066ee146108505780633538af821461085857610737565b806319d90346146107c0578063226ed300146107e0578063275c25901461080057806329a47bc71461080857610737565b8063050eb2eb11610716578063050eb2eb146107775780630b96c5b01461078a5780630e6661a7146107b0578063154fd39b146107b857610737565b8062e527361461073c578063035fbb551461075a57806304dbcda71461076f575b600080fd5b610744610ed7565b6040516107519190616c22565b60405180910390f35b61076d610768366004616b2b565b610edd565b005b61074461121a565b61076d61078536600461676c565b611220565b61079d610798366004616a17565b611281565b6040516107519796959493929190616ddd565b610744611465565b61074461146b565b6107d36107ce366004616a17565b611471565b6040516107519190616ce3565b6107f36107ee366004616a17565b611792565b6040516107519190616d87565b61076d6117da565b610810611952565b6040516107519190616c55565b6107f361082b366004616786565b611961565b61084361083e366004616a40565b611981565b6040516107519190616d92565b610744611a26565b610810610866366004616a17565b611a2c565b61076d611a56565b610744611bab565b61074461088936600461676c565b611bc8565b6107f361089c366004616a17565b611c68565b61076d6108af366004616a17565b611cc2565b61076d6108c2366004616a17565b611d14565b610744611d58565b610744611d5e565b6107f36108e5366004616a17565b611d64565b61076d6108f836600461676c565b611f2d565b61076d61090b366004616a17565b611f8e565b610744612033565b610810612039565b61093361092e36600461676c565b612048565b6040516107519190616d43565b61076d61094e366004616a17565b6120b4565b610966610961366004616a17565b6120f8565b6040516107519190617b26565b610744610981366004616a40565b61234d565b61074461236a565b61076d61099c366004616a17565b612370565b61076d612432565b6107446109b736600461676c565b612852565b6107446109ca36600461676c565b612861565b61076d61287c565b6107446109e5366004616a17565b6128c7565b610744612904565b61074461290a565b610744612910565b610810612916565b61076d610a1836600461676c565b612925565b610744612986565b6107f3610a33366004616786565b61299d565b610a4b610a46366004616a17565b6129f0565b6040516107519e9d9c9b9a99989796959493929190617c0d565b6107f3610a73366004616aef565b612af0565b610810610a86366004616a17565b612b31565b610810612b41565b610744612b50565b610843610aa9366004616a40565b612b56565b610ac1610abc36600461676c565b612b7a565b6040516107519c9b9a99989796959493929190616c69565b610810612c77565b610810612c86565b610810610af7366004616ace565b612c95565b61076d610b0a366004616a17565b612ccd565b610744612e7c565b610744612e82565b610744610b2d366004616786565b612e88565b61076d610b40366004616896565b612eb9565b610744610b53366004616786565b612f07565b610744612f3a565b61076d610b6e366004616a17565b612f40565b610744613041565b6107f3610b89366004616a17565b613047565b6107446130a9565b6107f3610ba43660046169b7565b6130af565b6107f3610bb7366004616786565b613115565b610744613168565b61081061321d565b61076d610bda366004616a17565b61322c565b610810610bed366004616a17565b61327e565b6107f3610c0036600461676c565b61328e565b610744610c13366004616ace565b613402565b610933610c26366004616ace565b613417565b61076d610c39366004616a17565b61361e565b610933610c4c366004616ace565b613662565b610744610c5f3660046167af565b6137ca565b61076d610c7236600461676c565b613b10565b610744610c85366004616a17565b613b71565b610744613bae565b610744610ca036600461676c565b613bb4565b610744613bc6565b610744613bcc565b61076d610cc3366004616a6b565b613bd2565b6107446140cd565b610744610cde366004616786565b6140d3565b6107f3610cf1366004616a40565b61416f565b6107f3610d04366004616786565b61424a565b61074461426a565b610810610d1f366004616786565b614270565b610744610d32366004616a40565b61428c565b610744610d45366004616786565b6142a9565b6107f3610d58366004616a17565b6142ee565b610d70610d6b366004616a17565b6142f3565b60405161075191906179ac565b61076d610d8b366004616a17565b614477565b61076d610d9e36600461676c565b6144bb565b61076d610db136600461676c565b61451c565b61074461457d565b610933610dcc366004616a17565b614590565b610843610ddf366004616a17565b614609565b6107446146b4565b6107f3610dfa36600461676c565b6146ba565b61076d610e0d366004616a17565b6146db565b61076d610e20366004616a17565b614823565b610744614867565b6107d3610e3b366004616a17565b61486d565b610744614b80565b610744614b86565b61076d610e5e36600461676c565b614b8c565b610744610e7136600461676c565b614bfa565b610744610e84366004616945565b614c9b565b610744614cd1565b61076d614cd7565b6107f3610ea7366004616a17565b614ea6565b6107f3614eae565b610744614ec7565b610810614ecd565b610744610ed236600461676c565b614edc565b60075481565b610ee561502a565b610eee83611c68565b610f135760405162461bcd60e51b8152600401610f0a90617624565b60405180910390fd5b336000908152600c6020908152604080832086845290915290205460ff16610f4d5760405162461bcd60e51b8152600401610f0a9061730f565b336000908152600d6020908152604080832086845290915290205460ff1615610f885760405162461bcd60e51b8152600401610f0a90617960565b610f9233846142a9565b610f9c8383613402565b14610fb95760405162461bcd60e51b8152600401610f0a906170aa565b6000610fc533856140d3565b90508260011415610ffc5760008481526023602052604081206007018054839290610ff1908490617d39565b909155506110239050565b6000848152602360205260408120600801805483929061101d908490617d39565b90915550505b336000908152601260205260409081902090516301039dfd60e11b815273__$85afbab79b2b776d70bef879a32ed56424$__916302073bfa9161106b91908890600401616c47565b60006040518083038186803b15801561108357600080fd5b505af4158015611097573d6000803e3d6000fd5b5050336000818152600d602090815260408083208a84528252808320805460ff19166001908117909155600e8352818420948452938252808320899055601682528083208a84526023909252909120600301549093506110f89250906151b2565b60008681526023602052604090206003908101919091558101805460ff1916600117905542600582015561112b336151be565b600781015460ff16156111a05761114133615316565b15801561115857506007810154610100900460ff16155b156111a057601b80546001810182556000919091527f3ad8aa4f87544323a9d1e5dd902f40c356527a7955687113db5f9a85ad579dc10180546001600160a01b031916331790555b6001602460008282546111b39190617d39565b909155505060008581526023602052604090819020600781015460089091015491513392879289927f0867b5027231dcbf37614eaad07d667b9febaf9fdf483f488229b1f140bb07489261120b928992909190617bf7565b60405180910390a45050505050565b60095481565b611228615386565b6001600160a01b0316611239612c86565b6001600160a01b03161461125f5760405162461bcd60e51b8152600401610f0a9061753c565b602c80546001600160a01b0319166001600160a01b0392909216919091179055565b60176020526000908152604090208054819061129c90617dcb565b80601f01602080910402602001604051908101604052809291908181526020018280546112c890617dcb565b80156113155780601f106112ea57610100808354040283529160200191611315565b820191906000526020600020905b8154815290600101906020018083116112f857829003601f168201915b50505060018401546002850154600386015460048701805496976001600160a01b03909416969295509093509061134b90617dcb565b80601f016020809104026020016040519081016040528092919081815260200182805461137790617dcb565b80156113c45780601f10611399576101008083540402835291602001916113c4565b820191906000526020600020905b8154815290600101906020018083116113a757829003601f168201915b5050505050908060050180546113d990617dcb565b80601f016020809104026020016040519081016040528092919081815260200182805461140590617dcb565b80156114525780601f1061142757610100808354040283529160200191611452565b820191906000526020600020905b81548152906001019060200180831161143557829003601f168201915b5050506006909301549192505060ff1687565b60155481565b60225490565b606061147c82614ea6565b6114985760405162461bcd60e51b8152600401610f0a906176b1565b600082815260236020908152604080832081516101c0810183528154815260018201549381019390935260028101549183019190915260038101546060830152600481015460ff808216151560808501526101008083048216151560a08601526201000090920416151560c0840152600582015460e0840152600682015490830152600781015461012083015260088101546101408301526009810180546101608401919061154690617dcb565b80601f016020809104026020016040519081016040528092919081815260200182805461157290617dcb565b80156115bf5780601f10611594576101008083540402835291602001916115bf565b820191906000526020600020905b8154815290600101906020018083116115a257829003601f168201915b5050509183525050600a8201546020820152600b82015460409091019060ff1660038111156115fe57634e487b7160e01b600052602160045260246000fd5b600381111561161d57634e487b7160e01b600052602160045260246000fd5b9052506020810151600154919250906000906001600160401b0381111561165457634e487b7160e01b600052604160045260246000fd5b60405190808252806020026020018201604052801561168757816020015b60608152602001906001900390816116725790505b50905060005b828110156117875783516000906116a5908390617d39565b6000818152601760205260408120600401805492935090916116c690617dcb565b80601f01602080910402602001604051908101604052809291908181526020018280546116f290617dcb565b801561173f5780601f106117145761010080835404028352916020019161173f565b820191906000526020600020905b81548152906001019060200180831161172257829003601f168201915b505050505090508084848151811061176757634e487b7160e01b600052603260045260246000fd5b60200260200101819052505050808061177f90617e06565b91505061168d565b50925050505b919050565b600061179d82614ea6565b6117b95760405162461bcd60e51b8152600401610f0a90617937565b6000828152602360205260409020600601546117d4906142ee565b92915050565b6117e261502a565b336000908152601660205260409020600781015460ff16151560011461181a5760405162461bcd60e51b8152600401610f0a906174f0565b60028101541580159061183757506007810154610100900460ff16155b156118945760078101805461ff001916610100179055601d80546001810182556000919091527f6d4407e7be21f808e6509aa9fa9143369579dd7d760fe20a2c09680fc146134f0180546001600160a01b03191633179055611937565b6002810154156118b65760405162461bcd60e51b8152600401610f0a90617436565b426118c03361538a565b6118c9336151be565b8154336001600160a01b03199182168117845560018401805490921681179091556005830182905560078301805460ff191690556040517f9dadcedba048e92b943ea1c5861cee1df63a566d7f795869c004780c1c698e2b9061192d908490616c22565b60405180910390a2505b60016024600082825461194a9190617d39565b909155505050565b602b546001600160a01b031681565b600c60209081526000928352604080842090915290825290205460ff1681565b600f602090815260009283526040808420909152908252902080546119a590617dcb565b80601f01602080910402602001604051908101604052809291908181526020018280546119d190617dcb565b8015611a1e5780601f106119f357610100808354040283529160200191611a1e565b820191906000526020600020905b815481529060010190602001808311611a0157829003601f168201915b505050505081565b60145481565b601b8181548110611a3c57600080fd5b6000918252602090912001546001600160a01b0316905081565b611a5e61502a565b601d5460009015611a7157611a716154ba565b60215460009081526023602052604090206004015462010000900460ff1615156001148015611ac35750611aa6602154611792565b80611ac35750602154600090815260236020526040902060030154155b15611ae857611ad3602154615552565b602154611ae19060016161e6565b6021555060015b60225460009081526023602052604090206004015462010000900460ff161515600114801590611b195750601b5415155b8015611b39575060225460009081526023602052604090206004015460ff165b8015611b535750600754600854611b509042617d84565b10155b15611b6457611b60612432565b5060015b8015611b7c57601454611b789060016161e6565b6014555b6014546040517f94d48a7342690f1233e3f4db70efa37c4f1f25f4d0397c353f3f15aecdeca5f490600090a250565b60405160009080602081848060185afa611bc157fe5b5051919050565b6001600160a01b03811660009081526012602052604080822090516301c39b2b60e11b815273__$85afbab79b2b776d70bef879a32ed56424$__91630387365691611c1891908590600401616c47565b60206040518083038186803b158015611c3057600080fd5b505af4158015611c44573d6000803e3d6000fd5b505050506040513d601f19601f820116820180604052508101906117d49190616a2f565b6000611c7382614ea6565b611c8f5760405162461bcd60e51b8152600401610f0a906176b1565b600082815260236020526040902060060154611caa906142ee565b1580156117d45750611cbb82613047565b1592915050565b611cca615386565b6001600160a01b0316611cdb612c86565b6001600160a01b031614611d015760405162461bcd60e51b8152600401610f0a9061753c565b6001811015611d0f57600080fd5b600355565b611d1c615386565b6001600160a01b0316611d2d612c86565b6001600160a01b031614611d535760405162461bcd60e51b8152600401610f0a9061753c565b600755565b60215490565b60275481565b600081815260236020908152604080832081516101c0810183528154815260018201549381019390935260028101549183019190915260038101546060830152600481015460ff808216151560808501526101008083048216151560a08601526201000090920416151560c0840152600582015460e08401526006820154908301526007810154610120830152600881015461014083015260098101805484939291610160840191611e1590617dcb565b80601f0160208091040260200160405190810160405280929190818152602001828054611e4190617dcb565b8015611e8e5780601f10611e6357610100808354040283529160200191611e8e565b820191906000526020600020905b815481529060010190602001808311611e7157829003601f168201915b5050509183525050600a8201546020820152600b82015460409091019060ff166003811115611ecd57634e487b7160e01b600052602160045260246000fd5b6003811115611eec57634e487b7160e01b600052602160045260246000fd5b905250610140810151610120820151919250611f0791617d39565b600b54611f149190617d65565b610120820151611f25906064617d65565b119392505050565b611f35615386565b6001600160a01b0316611f46612c86565b6001600160a01b031614611f6c5760405162461bcd60e51b8152600401610f0a9061753c565b601f80546001600160a01b0319166001600160a01b0392909216919091179055565b611f96615386565b6001600160a01b0316611fa7612c86565b6001600160a01b031614611fcd5760405162461bcd60e51b8152600401610f0a9061753c565b600081815260176020526040812090611fe682826164c2565b6001820180546001600160a01b0319169055600060028301819055600383018190556120169060048401906164c2565b6120246005830160006164c2565b50600601805460ff1916905550565b60205490565b602c546001600160a01b031681565b6001600160a01b0381166000908152601860209081526040918290208054835181840281018401909452808452606093928301828280156120a857602002820191906000526020600020905b815481526020019060010190808311612094575b50505050509050919050565b6120bc615386565b6001600160a01b03166120cd612c86565b6001600160a01b0316146120f35760405162461bcd60e51b8152600401610f0a9061753c565b600655565b6121006164fe565b60008281526017602052604090819020815160e0810190925280548290829061212890617dcb565b80601f016020809104026020016040519081016040528092919081815260200182805461215490617dcb565b80156121a15780601f10612176576101008083540402835291602001916121a1565b820191906000526020600020905b81548152906001019060200180831161218457829003601f168201915b505050918352505060018201546001600160a01b0316602082015260028201546040820152600382015460608201526004820180546080909201916121e590617dcb565b80601f016020809104026020016040519081016040528092919081815260200182805461221190617dcb565b801561225e5780601f106122335761010080835404028352916020019161225e565b820191906000526020600020905b81548152906001019060200180831161224157829003601f168201915b5050505050815260200160058201805461227790617dcb565b80601f01602080910402602001604051908101604052809291908181526020018280546122a390617dcb565b80156122f05780601f106122c5576101008083540402835291602001916122f0565b820191906000526020600020905b8154815290600101906020018083116122d357829003601f168201915b5050509183525050600682015460209091019060ff16600381111561232557634e487b7160e01b600052602160045260246000fd5b600381111561234457634e487b7160e01b600052602160045260246000fd5b90525092915050565b601060209081526000928352604080842090915290825290205481565b60065481565b612378615386565b6001600160a01b0316612389612c86565b6001600160a01b0316146123af5760405162461bcd60e51b8152600401610f0a9061753c565b6123b881614ea6565b1561242f57600081815260236020526040812081815560018101829055600281018290556003810182905560048101805462ffffff19169055600581018290556006810182905560078101829055600881018290559061241b60098301826164c2565b506000600a820155600b01805460ff191690555b50565b60225460009081526023602052604090206004015460ff166124665760405162461bcd60e51b8152600401610f0a906175ce565b60225460009081526023602052604090206004015462010000900460ff16156124a15760405162461bcd60e51b8152600401610f0a90617493565b60006124bf6124b7601b805490506002546161f2565b600354616208565b601b5460075460085492935090916124d79042617d84565b1061284e5760228054600090815260236020526040808220600301859055915481529081206002018390556005546125109042906161e6565b90506000612529600654836161e690919063ffffffff16565b60228054600090815260236020526040808220600501869055825482528082206006018490559154815220600401805462ff000019166201000017905590506001841080159061257a575060018310155b6125965760405162461bcd60e51b8152600401610f0a906171bc565b60006125a28585613662565b9050600081516001600160401b038111156125cd57634e487b7160e01b600052604160045260246000fd5b6040519080825280602002602001820160405280156125f6578160200160208202803683370190505b50905060005b82518110156126b557601b83828151811061262757634e487b7160e01b600052603260045260246000fd5b60200260200101518154811061264d57634e487b7160e01b600052603260045260246000fd5b9060005260206000200160009054906101000a90046001600160a01b031682828151811061268b57634e487b7160e01b600052603260045260246000fd5b6001600160a01b0390921660209283029190910190910152806126ad81617e06565b9150506125fc565b5060005b82518110156128185760008282815181106126e457634e487b7160e01b600052603260045260246000fd5b60200260200101519050600060166000836001600160a01b03166001600160a01b0316815260200190815260200160002090506127208261538a565b61272982616218565b61277957601c80546001810182556000919091527f0e4562a10381dec21b205ed72637e6b1b523bdd0e4d4d50af5cd23dd4500a2110180546001600160a01b0319166001600160a01b0384161790555b602280546000908152601e602090815260408083208054600181018255908452919092200180546001600160a01b0319166001600160a01b0386161790558154600284015560038301805460ff19169055905490517fe4ee2dfabe57cee15e3f558890b20455f54c1fa0718e5276faad70a6500e6b8c906127fb908590616c55565b60405180910390a25050808061281090617e06565b9150506126b9565b504260085560225461282b9060016161e6565b6022819055506001602460008282546128449190617d39565b9091555050505050505b5050565b60006117d482610cde84611bc8565b6001600160a01b031660009081526019602052604090205490565b612884615386565b6001600160a01b0316612895612c86565b6001600160a01b0316146128bb5760405162461bcd60e51b8152600401610f0a9061753c565b6128c56000616288565b565b60006128d282614ea6565b6128ee5760405162461bcd60e51b8152600401610f0a906176b1565b5060009081526023602052604090206006015490565b60035481565b60015481565b600a5481565b602d546001600160a01b031681565b61292d615386565b6001600160a01b031661293e612c86565b6001600160a01b0316146129645760405162461bcd60e51b8152600401610f0a9061753c565b602e80546001600160a01b0319166001600160a01b0392909216919091179055565b601c54601b5460009161299891617d39565b905090565b60006129a882614ea6565b6129c45760405162461bcd60e51b8152600401610f0a906176b1565b506001600160a01b03919091166000908152600c60209081526040808320938352929052205460ff1690565b602360205260009081526040902080546001820154600283015460038401546004850154600586015460068701546007880154600889015460098a018054999a98999798969760ff80881698610100890482169862010000900490911696959493929091612a5d90617dcb565b80601f0160208091040260200160405190810160405280929190818152602001828054612a8990617dcb565b8015612ad65780601f10612aab57610100808354040283529160200191612ad6565b820191906000526020600020905b815481529060010190602001808311612ab957829003601f168201915b50505050600a830154600b9093015491929160ff1690508e565b600080612afd84876140d3565b83101590506000612b0e85876140d3565b84111580612b1a575085155b9050818015612b265750805b979650505050505050565b601c8181548110611a3c57600080fd5b602a546001600160a01b031681565b60205481565b6011602090815260009283526040808420909152908252902080546119a590617dcb565b60166020526000908152604090208054600182015460028301546003840154600485015460058601546006870180546001600160a01b03978816989690971696949560ff9094169492939192612bcf90617dcb565b80601f0160208091040260200160405190810160405280929190818152602001828054612bfb90617dcb565b8015612c485780601f10612c1d57610100808354040283529160200191612c48565b820191906000526020600020905b815481529060010190602001808311612c2b57829003601f168201915b50505050600783015460088401546009850154600a90950154939460ff8084169561010090940416935090918c565b602e546001600160a01b031681565b6000546001600160a01b031690565b601e6020528160005260406000208181548110612cb157600080fd5b6000918252602090912001546001600160a01b03169150829050565b60016000828152602360205260409020600b015460ff166003811115612d0357634e487b7160e01b600052602160045260246000fd5b14612d205760405162461bcd60e51b8152600401610f0a90616f5e565b336000908152601260205260409081902090516306120d1f60e31b815273__$85afbab79b2b776d70bef879a32ed56424$__9163309068f891612d6891908590600401616c47565b60206040518083038186803b158015612d8057600080fd5b505af4158015612d94573d6000803e3d6000fd5b505050506040513d601f19601f82011682018060405250810190612db89190616925565b612dd45760405162461bcd60e51b8152600401610f0a906173ab565b336000908152601260205260409081902090516301039dfd60e11b815273__$85afbab79b2b776d70bef879a32ed56424$__916302073bfa91612e1c91908590600401616c47565b60006040518083038186803b158015612e3457600080fd5b505af4158015612e48573d6000803e3d6000fd5b50506040513392508391507f402507661c8c8cb90e0a796450b8bdd28b6c516f05279c0cd29e84c344e1699a90600090a350565b60255481565b60145490565b60186020528160005260406000208181548110612ea457600080fd5b90600052602060002001600091509150505481565b60005b815181101561284e57612ef5828281518110612ee857634e487b7160e01b600052603260045260246000fd5b6020026020010151612ccd565b80612eff81617e06565b915050612ebc565b60008282604051602001612f1c929190616c00565b60405160208183030381529060405280519060200120905092915050565b60255490565b602a546040516304ada21f60e21b81526001600160a01b03909116906312b6887c90612f729084903390600401617bc2565b602060405180830381600087803b158015612f8c57600080fd5b505af1158015612fa0573d6000803e3d6000fd5b505050506040513d601f19601f82011682018060405250810190612fc49190616925565b612fe05760405162461bcd60e51b8152600401610f0a906172b2565b3360009081526019602052604081208054839290612fff908490617d39565b909155505060405133907ff7aaf024511d9982df8cd0d437c71c30106e6848cd1ba3d288d7a9c0e276aeda90613036908490616c22565b60405180910390a250565b60265481565b600061305282614ea6565b61306e5760405162461bcd60e51b8152600401610f0a906176b1565b600082815260236020526040902060050154613089906142ee565b1580156117d4575050600090815260236020526040902060020154151590565b60155490565b6000816040516020016130c29190616c2b565b60405160208183030381529060405280519060200120836040516020016130e99190616c2b565b60405160208183030381529060405280519060200120141561310d575060016117d4565b5060006117d4565b600061312082614ea6565b61313c5760405162461bcd60e51b8152600401610f0a906176b1565b506001600160a01b03919091166000908152600d60209081526040808320938352929052205460ff1690565b600080424160405160200161317d9190616be3565b6040516020818303038152906040528051906020012060001c6131a09190617d51565b446131a9611bab565b6040516020016131b99190616c22565b60408051601f1981840301815291905280516020909101206131db9042617d39565b6131e59190617d39565b6131ef9190617d39565b6040516020016131ff9190616c22565b60408051601f19818403018152919052805160209091012091505090565b601f546001600160a01b031681565b613234615386565b6001600160a01b0316613245612c86565b6001600160a01b03161461326b5760405162461bcd60e51b8152600401610f0a9061753c565b606481111561327957600080fd5b600b55565b601d8181548110611a3c57600080fd5b6001600160a01b038082166000908152601660209081526040808320815161018081018352815486168152600182015490951692850192909252600282015490840152600381015460ff161515606084015260048101546080840152600581015460a0840152600681018054929384938493919260c084019161331090617dcb565b80601f016020809104026020016040519081016040528092919081815260200182805461333c90617dcb565b80156133895780601f1061335e57610100808354040283529160200191613389565b820191906000526020600020905b81548152906001019060200180831161336c57829003601f168201915b5050509183525050600782015460ff808216151560208401526101009091041615156040820152600882015460608083019190915260098301546080830152600a9092015460a0909101528101519091501580156133f157506133ef8160400151611792565b155b156133fb57600191505b5092915050565b60008282604051602001612f1c929190616c47565b60606000821161342657600080fd5b6000416040516020016134399190616be3565b6040516020818303038152906040528051906020012060001c61345a611bab565b60405160200161346a9190616c22565b60408051601f19818403018152919052805160209091012061348c9042617d39565b6134969190617d39565b6040516020016134a69190616c22565b6040516020818303038152906040528051906020012060001c90506000846001600160401b038111156134e957634e487b7160e01b600052604160045260246000fd5b604051908082528060200260200182016040528015613512578160200160208202803683370190505b5090506000805b868210156136135760008661353263017efeeb87617d84565b83604051602001613544929190616c47565b6040516020818303038152906040528051906020012060001c6135679190617e21565b90506000805b848110156135bf578286828151811061359657634e487b7160e01b600052603260045260246000fd5b602002602001015114156135ad57600191506135bf565b806135b781617e06565b91505061356d565b50806135ff57818585815181106135e657634e487b7160e01b600052603260045260246000fd5b60209081029190910101526135fc846001617d39565b93505b61360a836001617d39565b92505050613519565b509095945050505050565b613626615386565b6001600160a01b0316613637612c86565b6001600160a01b03161461365d5760405162461bcd60e51b8152600401610f0a9061753c565b600155565b60606000821180156136745750818311155b8015613681575060018310155b61369d5760405162461bcd60e51b8152600401610f0a90617173565b6000826001600160401b038111156136c557634e487b7160e01b600052604160045260246000fd5b6040519080825280602002602001820160405280156136ee578160200160208202803683370190505b5090506000846001600160401b0381111561371957634e487b7160e01b600052604160045260246000fd5b604051908082528060200260200182016040528015613742578160200160208202803683370190505b5090506000613758613753846162d8565b61632e565b905060005b868110156136135781818151811061378557634e487b7160e01b600052603260045260246000fd5b60200260200101518382815181106137ad57634e487b7160e01b600052603260045260246000fd5b6020908102919091010152806137c281617e06565b91505061375d565b60006137d461502a565b6004543360009081526019602052604090205481111561381657336000908152601960205260408120546138099083906151b2565b905061381481612f40565b505b60005b8751811015613ae957600088828151811061384457634e487b7160e01b600052603260045260246000fd5b60200260200101519050600088888481811061387057634e487b7160e01b600052603260045260246000fd5b90506020028101906138829190617c9d565b8080601f016020809104026020016040519081016040528093929190818152602001838380828437600092018290525033808252601860209081526040808420601554815460018101835591865283862090910155805160e0810182528a8152918201929092524291810191909152606081018d90526080810186905260a081018c905294955060c08501935091506139189050565b9052601554600090815260176020908152604090912082518051919261394392849290910190616562565b506020828101516001830180546001600160a01b0319166001600160a01b039092169190911790556040830151600283015560608301516003830155608083015180516139969260048501920190616562565b5060a082015180516139b2916005840191602090910190616562565b5060c082015160068201805460ff191660018360038111156139e457634e487b7160e01b600052602160045260246000fd5b02179055505060208054600090815260239091526040902060018054908201549192501115613a28576001816001016000828254613a229190617d39565b90915550505b600154816001015410613a7b57600481018054600160ff19909116811761ff00191690915560208054600090613a5f908490617d39565b9091555050601554602080546000908152602390915260409020555b613a83611a56565b601554613a91906001617d39565b60158190556040513391907fb819ca9ac369919119f75ec7363dd954f75bcfa75f9245647e03da413be0d58290613acb9087908790616e4f565b60405180910390a35050508080613ae190617e06565b915050613819565b50600160246000828254613afd9190617d39565b9091555050601554979650505050505050565b613b18615386565b6001600160a01b0316613b29612c86565b6001600160a01b031614613b4f5760405162461bcd60e51b8152600401610f0a9061753c565b602d80546001600160a01b0319166001600160a01b0392909216919091179055565b6000613b7c82614ea6565b613b985760405162461bcd60e51b8152600401610f0a906176b1565b5060009081526023602052604090206005015490565b600b5481565b60196020526000908152604090205481565b60025481565b60045481565b613bda61502a565b613be385613047565b613bff5760405162461bcd60e51b8152600401610f0a9061705b565b336000908152600c6020908152604080832088845290915290205460ff1615613c3a5760405162461bcd60e51b8152600401610f0a906177a5565b613c44853361416f565b613c605760405162461bcd60e51b8152600401610f0a90617206565b60045433600090815260196020526040902054811115613ca25733600090815260196020526040812054613c959083906151b2565b9050613ca081612f40565b505b33600090815260196020526040902054811115613cd15760405162461bcd60e51b8152600401610f0a90617830565b6000336000908152601260205260408082209051631e0f232560e31b815273__$85afbab79b2b776d70bef879a32ed56424$__9163f079192891613d1a91908690600401616c47565b60206040518083038186803b158015613d3257600080fd5b505af4158015613d46573d6000803e3d6000fd5b505050506040513d601f19601f82011682018060405250810190613d6a9190616a2f565b905087811415613e0f5733600090815260126020526040908190209051631e0f232560e31b815273__$85afbab79b2b776d70bef879a32ed56424$__9163f079192891613dbc91908c90600401616c47565b60206040518083038186803b158015613dd457600080fd5b505af4158015613de8573d6000803e3d6000fd5b505050506040513d601f19601f82011682018060405250810190613e0c9190616a2f565b90505b613e1b82823386612af0565b613e375760405162461bcd60e51b8152600401610f0a90617408565b3360009081526012602052604090819020905163524cfe5360e11b815273__$85afbab79b2b776d70bef879a32ed56424$__9163a499fca691613e83919086908d908790600401617b0b565b60006040518083038186803b158015613e9b57600080fd5b505af4158015613eaf573d6000803e3d6000fd5b505050506000613ebf338a612f07565b60405163099b040f60e31b815290915073__$0947e710b66d7779e1d561254425e1375a$__90634cd8207890613efe9060139085908990600401617aed565b60006040518083038186803b158015613f1657600080fd5b505af4158015613f2a573d6000803e3d6000fd5b505060405163099b040f60e31b815273__$0947e710b66d7779e1d561254425e1375a$__9250634cd820789150613f6a9060139085908d90600401617aa1565b60006040518083038186803b158015613f8257600080fd5b505af4158015613f96573d6000803e3d6000fd5b50505060008a8152600f6020908152604080832033845282529091208951613fc3935090918a0190616562565b506000898152601060209081526040808320338085529083528184208a90558c8452601183528184209084528252909120865161400292880190616562565b503360009081526016602090815260408083208c845260239092529091206002015461402f9060016151b2565b60008b815260236020908152604080832060020193909355426005850155338252600c81528282208d83529052908120805460ff191660019081179091556024805491929091614080908490617d39565b909155505060405133908b907f42864d9683ff5b12c3b2cc65d705af5aab104b03bc700b802f79e5c971ef08a1906140b9908990616c22565b60405180910390a350505050505050505050565b60085481565b600073__$0947e710b66d7779e1d561254425e1375a$__636981015860136140fb8686612f07565b6040518363ffffffff1660e01b8152600401614118929190617acf565b60206040518083038186803b15801561413057600080fd5b505af4158015614144573d6000803e3d6000fd5b505050506040513d601f19601f820116820180604052508101906141689190616a2f565b9392505050565b6000828152601e602090815260408083208054825181850281018501909352808352849384939291908301828280156141d157602002820191906000526020600020905b81546001600160a01b031681526001909101906020018083116141b3575b5050505050905060005b815181101561424057846001600160a01b031682828151811061420e57634e487b7160e01b600052603260045260246000fd5b60200260200101516001600160a01b0316141561422e5760019250614240565b8061423881617e06565b9150506141db565b5090949350505050565b600d60209081526000928352604080842090915290825290205460ff1681565b60225481565b601a6020528160005260406000208181548110612cb157600080fd5b600e60209081526000928352604080842090915290825290205481565b600073__$0947e710b66d7779e1d561254425e1375a$__636981015860136142d18686612f07565b6040518363ffffffff1660e01b8152600401614118929190617a83565b421190565b6142fb6165e6565b61430482614ea6565b61430d57600080fd5b60008281526023602090815260409182902082516101c0810184528154815260018201549281019290925260028101549282019290925260038201546060820152600482015460ff808216151560808401526101008083048216151560a08501526201000090920416151560c0830152600583015460e083015260068301549082015260078201546101208201526008820154610140820152600982018054919291610160840191906143bf90617dcb565b80601f01602080910402602001604051908101604052809291908181526020018280546143eb90617dcb565b80156144385780601f1061440d57610100808354040283529160200191614438565b820191906000526020600020905b81548152906001019060200180831161441b57829003601f168201915b5050509183525050600a8201546020820152600b82015460409091019060ff16600381111561232557634e487b7160e01b600052602160045260246000fd5b61447f615386565b6001600160a01b0316614490612c86565b6001600160a01b0316146144b65760405162461bcd60e51b8152600401610f0a9061753c565b600255565b6144c3615386565b6001600160a01b03166144d4612c86565b6001600160a01b0316146144fa5760405162461bcd60e51b8152600401610f0a9061753c565b602b80546001600160a01b0319166001600160a01b0392909216919091179055565b614524615386565b6001600160a01b0316614535612c86565b6001600160a01b03161461455b5760405162461bcd60e51b8152600401610f0a9061753c565b602a80546001600160a01b0319166001600160a01b0392909216919091179055565b3360009081526019602052604090205490565b60606000821161459f57600080fd5b6000826001600160401b038111156145c757634e487b7160e01b600052604160045260246000fd5b6040519080825280602002602001820160405280156145f0578160200160208202803683370190505b5090506000614601613753836162d8565b949350505050565b606061461482614ea6565b61461d57600080fd5b6000828152602360205260409020600901805461463990617dcb565b80601f016020809104026020016040519081016040528092919081815260200182805461466590617dcb565b80156120a85780601f10614687576101008083540402835291602001916120a8565b820191906000526020600020905b8154815290600101906020018083116146955750939695505050505050565b60055481565b6001600160a01b031660009081526016602052604090206007015460ff1690565b60006146ff6146e933612852565b33600090815260196020526040902054906151b2565b9050818110156147215760405162461bcd60e51b8152600401610f0a9061766a565b602a54604051630895993360e11b81526001600160a01b039091169063112b3266906147539085903390600401617bc2565b602060405180830381600087803b15801561476d57600080fd5b505af1158015614781573d6000803e3d6000fd5b505050506040513d601f19601f820116820180604052508101906147a59190616925565b6147c15760405162461bcd60e51b8152600401610f0a906178da565b33600090815260196020526040812080548492906147e0908490617d84565b909155505060405133907ffaeb7dbb9992397d26ea1944efd40c80b40f702faf69b46c67ad10aba68ccb7990614817908590616c22565b60405180910390a25050565b61482b615386565b6001600160a01b031661483c612c86565b6001600160a01b0316146148625760405162461bcd60e51b8152600401610f0a9061753c565b600555565b60285481565b606061487882614ea6565b6148945760405162461bcd60e51b8152600401610f0a906176b1565b600082815260236020908152604080832081516101c0810183528154815260018201549381019390935260028101549183019190915260038101546060830152600481015460ff808216151560808501526101008083048216151560a08601526201000090920416151560c0840152600582015460e0840152600682015490830152600781015461012083015260088101546101408301526009810180546101608401919061494290617dcb565b80601f016020809104026020016040519081016040528092919081815260200182805461496e90617dcb565b80156149bb5780601f10614990576101008083540402835291602001916149bb565b820191906000526020600020905b81548152906001019060200180831161499e57829003601f168201915b5050509183525050600a8201546020820152600b82015460409091019060ff1660038111156149fa57634e487b7160e01b600052602160045260246000fd5b6003811115614a1957634e487b7160e01b600052602160045260246000fd5b9052506020810151600154919250906000906001600160401b03811115614a5057634e487b7160e01b600052604160045260246000fd5b604051908082528060200260200182016040528015614a8357816020015b6060815260200190600190039081614a6e5790505b50905060005b82811015611787578351600090614aa1908390617d39565b600081815260176020526040812080549293509091614abf90617dcb565b80601f0160208091040260200160405190810160405280929190818152602001828054614aeb90617dcb565b8015614b385780601f10614b0d57610100808354040283529160200191614b38565b820191906000526020600020905b815481529060010190602001808311614b1b57829003601f168201915b5050505050905080848481518110614b6057634e487b7160e01b600052603260045260246000fd5b602002602001018190525050508080614b7890617e06565b915050614a89565b60215481565b60245481565b614b94615386565b6001600160a01b0316614ba5612c86565b6001600160a01b031614614bcb5760405162461bcd60e51b8152600401610f0a9061753c565b6001600160a01b038116614bf15760405162461bcd60e51b8152600401610f0a9061712d565b61242f81616288565b6001600160a01b038116600090815260186020908152604080832080548251818502810185019093528083528493830182828015614c5757602002820191906000526020600020905b815481526020019060010190808311614c43575b505050505090508060018251614c6d9190617d84565b81518110614c8b57634e487b7160e01b600052603260045260246000fd5b6020026020010151915050919050565b6000838383604051602001614cb293929190616da5565b6040516020818303038152906040528051906020012090509392505050565b60245490565b614cdf61502a565b336000908152601660205260409020601c54601b546103e891614d0191617d39565b10614d1e5760405162461bcd60e51b8152600401610f0a906177ee565b600781015460ff1615614d435760405162461bcd60e51b8152600401610f0a90616f27565b60045433600090815260196020526040902054429190811115614d885733600090815260196020526040812054614d7b9083906151b2565b9050614d8681612f40565b505b33600090815260196020526040902054811115614db75760405162461bcd60e51b8152600401610f0a90616faf565b614dc033615316565b614e0757601b80546001810182556000919091527f3ad8aa4f87544323a9d1e5dd902f40c356527a7955687113db5f9a85ad579dc10180546001600160a01b031916331790555b8254336001600160a01b03199182168117855560018501805490921617905560058301829055600783015460ff16614e4f5760078301805460ff191660011790554260088401555b600160246000828254614e629190617d39565b909155505060405133907f439d77b7534ec3108fc6143bd4fbabde0b9f2bb54f7b0730d1f70dd2135b765f90614e99908590616c22565b60405180910390a2505050565b602054101590565b3360009081526016602052604090206007015460ff1690565b60265490565b6029546001600160a01b031681565b6001600160a01b038082166000908152601660209081526040808320815161018081018352815486168152600182015490951692850192909252600282015490840152600381015460ff161515606084015260048101546080840152600581015460a08401526006810180549293849390929160c0840191614f5d90617dcb565b80601f0160208091040260200160405190810160405280929190818152602001828054614f8990617dcb565b8015614fd65780601f10614fab57610100808354040283529160200191614fd6565b820191906000526020600020905b815481529060010190602001808311614fb957829003601f168201915b5050509183525050600782015460ff808216151560208401526101009091041615156040808301919091526008830154606083015260098301546080830152600a9092015460a09091015201519392505050565b601f546001600160a01b03166150525760405162461bcd60e51b8152600401610f0a906176e8565b601f546040516000916001600160a01b031690615073903390602401616c55565b60408051601f198184030181529181526020820180516001600160e01b0316631f5ac9c560e11b179052516150a89190616c2b565b6000604051808303816000865af19150503d80600081146150e5576040519150601f19603f3d011682016040523d82523d6000602084013e6150ea565b606091505b5050601f546040519192506000916001600160a01b0390911690615112903390602401616c55565b60408051601f198184030181529181526020820180516001600160e01b03166358563d2160e01b179052516151479190616c2b565b6000604051808303816000865af19150503d8060008114615184576040519150601f19603f3d011682016040523d82523d6000602084013e615189565b606091505b5050905081806151965750805b61284e5760405162461bcd60e51b8152600401610f0a90617016565b60006141688284617d84565b60008060005b601c5481101561523257836001600160a01b0316601c82815481106151f957634e487b7160e01b600052603260045260246000fd5b6000918252602090912001546001600160a01b031614156152205760019150809250615232565b8061522a81617e06565b9150506151c4565b50801561531157601c805461524990600190617d84565b8154811061526757634e487b7160e01b600052603260045260246000fd5b600091825260209091200154601c80546001600160a01b0390921691849081106152a157634e487b7160e01b600052603260045260246000fd5b9060005260206000200160006101000a8154816001600160a01b0302191690836001600160a01b03160217905550601c8054806152ee57634e487b7160e01b600052603160045260246000fd5b600082815260209020810160001990810180546001600160a01b03191690550190555b505050565b600080805b601b548110156133fb57836001600160a01b0316601b828154811061535057634e487b7160e01b600052603260045260246000fd5b6000918252602090912001546001600160a01b0316141561537457600191506133fb565b8061537e81617e06565b91505061531b565b3390565b60008060005b601b548110156153fe57836001600160a01b0316601b82815481106153c557634e487b7160e01b600052603260045260246000fd5b6000918252602090912001546001600160a01b031614156153ec57600191508092506153fe565b806153f681617e06565b915050615390565b50801561531157601b805461541590600190617d84565b8154811061543357634e487b7160e01b600052603260045260246000fd5b600091825260209091200154601b80546001600160a01b03909216918490811061546d57634e487b7160e01b600052603260045260246000fd5b9060005260206000200160006101000a8154816001600160a01b0302191690836001600160a01b03160217905550601b8054806152ee57634e487b7160e01b600052603160045260246000fd5b60005b601d54811015615545576000601d82815481106154ea57634e487b7160e01b600052603260045260246000fd5b60009182526020808320909101546001600160a01b03168083526016909152604090912060078101805461ffff191690559091506155278261538a565b615530826151be565b5050808061553d90617e06565b9150506154bd565b506128c5601d6000616674565b61555b81611792565b806155755750600081815260236020526040902060030154155b6155915760405162461bcd60e51b8152600401610f0a90617571565b600081815260236020526040902060040154610100900460ff16156155c85760405162461bcd60e51b8152600401610f0a90617764565b6000818152601e602090815260408083208054825181850281018501909352808352919290919083018282801561562857602002820191906000526020600020905b81546001600160a01b0316815260019091019060200180831161560a575b50505050509050600081516001600160401b0381111561565857634e487b7160e01b600052604160045260246000fd5b60405190808252806020026020018201604052801561568b57816020015b60608152602001906001900390816156765790505b509050600082516001600160401b038111156156b757634e487b7160e01b600052604160045260246000fd5b6040519080825280602002602001820160405280156156e0578160200160208202803683370190505b50905060005b835181101561586357600084828151811061571157634e487b7160e01b600052603260045260246000fd5b6020908102919091018101516000888152600f835260408082206001600160a01b038416835290935291822080549193509061574c90617dcb565b80601f016020809104026020016040519081016040528092919081815260200182805461577890617dcb565b80156157c55780601f1061579a576101008083540402835291602001916157c5565b820191906000526020600020905b8154815290600101906020018083116157a857829003601f168201915b50505060008a81526010602090815260408083206001600160a01b03891684529091529020548851939450928492508891508690811061581557634e487b7160e01b600052603260045260246000fd5b60200260200101819052508085858151811061584157634e487b7160e01b600052603260045260246000fd5b602002602001018181525050505050808061585b90617e06565b9150506156e6565b50600061588b6064600b54865161587a9190617d65565b6158849190617d51565b6001616208565b90506000836000815181106158b057634e487b7160e01b600052603260045260246000fd5b6020026020010151905060005b84518110156159a6576000805b865181101561595b5761592b8784815181106158f657634e487b7160e01b600052603260045260246000fd5b602002602001015188838151811061591e57634e487b7160e01b600052603260045260246000fd5b60200260200101516130af565b156159495761593b600183617d39565b91508482106159495761595b565b8061595381617e06565b9150506158ca565b508381106159935785828151811061598357634e487b7160e01b600052603260045260246000fd5b60200260200101519250506159a6565b508061599e81617e06565b9150506158bd565b506000836000815181106159ca57634e487b7160e01b600052603260045260246000fd5b6020026020010151905060005b8451811015615ab9576000805b8651811015615a6e57868181518110615a0d57634e487b7160e01b600052603260045260246000fd5b6020026020010151878481518110615a3557634e487b7160e01b600052603260045260246000fd5b60200260200101511415615a5c57615a4e600183617d39565b9150858210615a5c57615a6e565b80615a6681617e06565b9150506159e4565b50848110615aa657858281518110615a9657634e487b7160e01b600052603260045260246000fd5b6020026020010151925050615ab9565b5080615ab181617e06565b9150506159d7565b506000615ac588611d64565b905060005b8751811015615dd3576000888281518110615af557634e487b7160e01b600052603260045260246000fd5b60209081029190910181015160008c8152600e835260408082206001600160a01b0384168352845280822054600d85528183208f845290945290205490925060ff16615b40836151be565b6001600160a01b03831660009081526016602052604090208115615d76576001600160a01b0384166000908152601660205260409020600301805460ff19166001908117909155861515148015615b975750826001145b80615bac575085158015615bac575082600114155b15615cf357602b54600a54604051630db6cc8560e11b81526001600160a01b0390921691631b6d990a91615be4918890600401617bd9565b602060405180830381600087803b158015615bfe57600080fd5b505af1158015615c12573d6000803e3d6000fd5b505050506040513d601f19601f82011682018060405250810190615c369190616925565b615c525760405162461bcd60e51b8152600401610f0a9061735e565b602c54600954604051633832942560e21b81526001600160a01b039092169163e0ca509491615c85918890600401617bc2565b602060405180830381600087803b158015615c9f57600080fd5b505af1158015615cb3573d6000803e3d6000fd5b505050506040513d601f19601f82011682018060405250810190615cd79190616925565b615cf35760405162461bcd60e51b8152600401610f0a90617263565b600781015460ff1615615d7157615d0984615316565b158015615d2057506007810154610100900460ff16155b15615d7157601b80546001810182556000919091527f3ad8aa4f87544323a9d1e5dd902f40c356527a7955687113db5f9a85ad579dc10180546001600160a01b0319166001600160a01b0386161790555b615dbc565b6007810154610100900460ff1680615d8c575081155b15615dbc57600781015460ff1615615dbc5760078101805460ff19169055615db38461538a565b615dbc846151be565b505050508080615dcb90617e06565b915050615aca565b50600088815260236020908152604090912060048101805461ff0019166101001790558451615e0a92600990920191860190616562565b506000888152602360205260409020600a0182905580156160e55760008881526023602052604081208054600190910154909190615e489083617d39565b9050815b81811015615fc1576000818152601760205260409081902060010154602b54600a549251630db6cc8560e11b81526001600160a01b03928316939190921691631b6d990a91615e9f918590600401617bd9565b602060405180830381600087803b158015615eb957600080fd5b505af1158015615ecd573d6000803e3d6000fd5b505050506040513d601f19601f82011682018060405250810190615ef19190616925565b615f0d5760405162461bcd60e51b8152600401610f0a9061788d565b602c54600954604051633832942560e21b81526001600160a01b039092169163e0ca509491615f40918590600401617bc2565b602060405180830381600087803b158015615f5a57600080fd5b505af1158015615f6e573d6000803e3d6000fd5b505050506040513d601f19601f82011682018060405250810190615f929190616925565b615fae5760405162461bcd60e51b8152600401610f0a90617715565b5080615fb981617e06565b915050615e4c565b5060008a8152602360205260408120600b01805460ff191660019081179091556025805491929091615ff4908490617d39565b9091555050602e546040516348257dc960e01b81526001600160a01b03909116906348257dc990616029908d90600401616c22565b600060405180830381600087803b15801561604357600080fd5b505af1925050508015616054575060015b6160c5573d808015616082576040519150601f19603f3d011682016040523d82523d6000602084013e616087565b606091505b507f4b87bbd93ba65ede1e2efeca735d9f7a6720bf7d6db0a8355b17dba5b64e5783816040516160b79190616d92565b60405180910390a1506160de565b6001602460008282546160d89190617d39565b90915550505b505061611a565b6000888152602360205260408120600b01805460ff191660021790556026805460019290616114908490617d39565b90915550505b60016024600082825461612d9190617d39565b90915550506000888152602360205260408120600201546027805491929091616157908490617d39565b90915550506000888152602360205260408120600301546028805491929091616181908490617d39565b909155505060008881526017602052604090819020600181015491516001600160a01b03909216917f43916c3ae75995d24cc89b466ed08e6dba74d325f7957f9b37b05f150e12918e916161d491616e7d565b60405180910390a25050505050505050565b60006141688284617d39565b60008183106162015781614168565b5090919050565b6000818310156162015781614168565b600080805b601c548110156133fb57836001600160a01b0316601c828154811061625257634e487b7160e01b600052603260045260246000fd5b6000918252602090912001546001600160a01b0316141561627657600191506133fb565b8061628081617e06565b91505061621d565b600080546001600160a01b038381166001600160a01b0319831681178455604051919092169283917f8be0079c531659141344cd1fd0a4f28419497f9722a3daafe3b4186f6b6457e09190a35050565b805160609060005b81811015616326578084828151811061630957634e487b7160e01b600052603260045260246000fd5b60209081029190910101528061631e81617e06565b9150506162e0565b509192915050565b6060600082511161633e57600080fd5b81518060005b818110156164b957600083616357613168565b87848151811061637757634e487b7160e01b600052603260045260246000fd5b6020026020010151604051602001616390929190616c47565b6040516020818303038152906040528051906020012060001c6163b39190617e21565b6163be906001617d39565b90506000866163ce600184617d84565b815181106163ec57634e487b7160e01b600052603260045260246000fd5b60200260200101519050866001866164049190617d84565b8151811061642257634e487b7160e01b600052603260045260246000fd5b6020026020010151876001846164389190617d84565b8151811061645657634e487b7160e01b600052603260045260246000fd5b6020908102919091010152808761646e600188617d84565b8151811061648c57634e487b7160e01b600052603260045260246000fd5b60209081029190910101526164a2600186617d84565b9450505080806164b190617e06565b915050616344565b50929392505050565b5080546164ce90617dcb565b6000825580601f106164e0575061242f565b601f01602090049060005260206000209081019061242f919061668e565b6040518060e001604052806060815260200160006001600160a01b03168152602001600081526020016000815260200160608152602001606081526020016000600381111561655d57634e487b7160e01b600052602160045260246000fd5b905290565b82805461656e90617dcb565b90600052602060002090601f01602090048101928261659057600085556165d6565b82601f106165a957805160ff19168380011785556165d6565b828001600101855582156165d6579182015b828111156165d65782518255916020019190600101906165bb565b506165e292915061668e565b5090565b604051806101c00160405280600081526020016000815260200160008152602001600081526020016000151581526020016000151581526020016000151581526020016000815260200160008152602001600081526020016000815260200160608152602001600081526020016000600381111561655d57634e487b7160e01b600052602160045260246000fd5b508054600082559060005260206000209081019061242f91905b5b808211156165e2576000815560010161668f565b80356001600160a01b038116811461178d57600080fd5b60008083601f8401126166cb578182fd5b5081356001600160401b038111156166e1578182fd5b60208301915083602080830285010111156166fb57600080fd5b9250929050565b600082601f830112616712578081fd5b81356001600160401b0381111561672b5761672b617e61565b61673e601f8201601f1916602001617ce1565b818152846020838601011115616752578283fd5b816020850160208301379081016020019190915292915050565b60006020828403121561677d578081fd5b614168826166a3565b60008060408385031215616798578081fd5b6167a1836166a3565b946020939093013593505050565b6000806000806000608086880312156167c6578081fd5b85356001600160401b03808211156167dc578283fd5b818801915088601f8301126167ef578283fd5b813560206168046167ff83617d0a565b617ce1565b82815281810190858301875b85811015616839576168278f8684358b0101616702565b84529284019290840190600101616810565b50909a50505089013592505080821115616851578283fd5b61685d89838a016166ba565b909650945060408801359350606088013591508082111561687c578283fd5b5061688988828901616702565b9150509295509295909350565b600060208083850312156168a8578182fd5b82356001600160401b038111156168bd578283fd5b8301601f810185136168cd578283fd5b80356168db6167ff82617d0a565b81815283810190838501858402850186018910156168f7578687fd5b8694505b838510156169195780358352600194909401939185019185016168fb565b50979650505050505050565b600060208284031215616936578081fd5b81518015158114614168578182fd5b600080600060408486031215616959578283fd5b83356001600160401b038082111561696f578485fd5b818601915086601f830112616982578485fd5b813581811115616990578586fd5b8760208285010111156169a1578586fd5b6020928301989097509590910135949350505050565b600080604083850312156169c9578182fd5b82356001600160401b03808211156169df578384fd5b6169eb86838701616702565b93506020850135915080821115616a00578283fd5b50616a0d85828601616702565b9150509250929050565b600060208284031215616a28578081fd5b5035919050565b600060208284031215611bc1578081fd5b60008060408385031215616a52578182fd5b82359150616a62602084016166a3565b90509250929050565b600080600080600060a08688031215616a82578283fd5b853594506020860135935060408601356001600160401b0380821115616aa6578485fd5b616ab289838a01616702565b945060608801359350608088013591508082111561687c578283fd5b60008060408385031215616ae0578182fd5b50508035926020909101359150565b60008060008060808587031215616b04578182fd5b8435935060208501359250616b1b604086016166a3565b9396929550929360600135925050565b600080600060608486031215616b3f578081fd5b505081359360208301359350604090920135919050565b15159052565b60008151808452616b74816020860160208601617d9b565b601f01601f19169290920160200192915050565b60048110616ba657634e487b7160e01b600052602160045260246000fd5b9052565b600a8152690c6dedadad2e890c2e6d60b31b602082015260400190565b60098152686e756d546f6b656e7360b81b602082015260400190565b60609190911b6bffffffffffffffffffffffff1916815260140190565b60609290921b6bffffffffffffffffffffffff19168252601482015260340190565b90815260200190565b60008251616c3d818460208701617d9b565b9190910192915050565b918252602082015260400190565b6001600160a01b0391909116815260200190565b600060018060a01b03808f168352808e166020840152508b60408301528a151560608301528960808301528860a083015261018060c0830152616cb0610180830189616b5c565b96151560e08301525093151561010085015261012084019290925261014083015261016090910152979650505050505050565b6000602080830181845280855180835260408601915060408482028701019250838701855b82811015616d3657603f19888603018452616d24858351616b5c565b94509285019290850190600101616d08565b5092979650505050505050565b6020808252825182820181905260009190848201906040850190845b81811015616d7b57835183529284019291840191600101616d5f565b50909695505050505050565b901515815260200190565b6000602082526141686020830184616b5c565b6000604082528360408301528385606084013780606085840101526060601f19601f8601168301019050826020830152949350505050565b600060e08252616df060e083018a616b5c565b6001600160a01b038916602084015260408301889052606083018790528281036080840152616e1f8187616b5c565b905082810360a0840152616e338186616b5c565b915050616e4360c0830184616b88565b98975050505050505050565b600060408252616e626040830185616b5c565b8281036020840152616e748185616b5c565b95945050505050565b6000602080835281845483600282049050600180831680616e9f57607f831692505b858310811415616ebd57634e487b7160e01b87526022600452602487fd5b616ec983878a01616c22565b818015616edd5760018114616eee57616f18565b60ff19861682528782019650616f18565b616ef78b617d2d565b895b86811015616f1257815484820152908501908901616ef9565b83019750505b50949998505050505050505050565b6020808252601c908201527f576f726b657220697320616c7265616479207265676973746572656400000000604082015260600190565b60208082526031908201527f676976656e204461746142617463682073686f756c6420626520415050524f5660408201527011510b08185b99081a5d081a5cc81b9bdd607a1b606082015260800190565b60208082526041908201527f576f726b657220686173206e6f7420656e6f75676820285f6e756d546f6b656e60408201527f732920696e206869732053706f745374616b6564546f6b656e42616c616e63656060820152600160fd1b608082015260a00190565b60208082526025908201527f72656365697665722072656a6563746564205f7265747269657665534675656c6040820152640818d85b1b60da1b606082015260800190565b6020808252602f908201527f636f6d6d697420706572696f64206e6565647320746f206265206f70656e206660408201526e1bdc881d1a1a5cc818985d18da1259608a1b606082015260800190565b6020808252605c908201527f4e6f74207468652073616d6520766f7465207468616e2077686174207761732060408201527f636f6d6d697465642c20696d706f737369626c6520746f206d6174636820776960608201527f746820676976656e205f73616c742026205f766f74654f7074696f6e00000000608082015260a00190565b60208082526026908201527f4f776e61626c653a206e6577206f776e657220697320746865207a65726f206160408201526564647265737360d01b606082015260800190565b60208082526029908201527f6b206f72204e20617265206e6f74204f4b20647572696e672072616e646f6d2060408201526839b2b632b1ba34b7b760b91b606082015260800190565b6020808252602a908201527f4661696c20647572696e6720616c6c6f636174696f6e3a206e6f7420656e6f75604082015269676820776f726b65727360b01b606082015260800190565b60208082526038908201527f55736572206e6565647320746f20626520616c6c6f636174656420746f20746860408201527f697320626174636820746f20636f6d6d6974206f6e2069740000000000000000606082015260800190565b6020808252602f908201527f636f756c64206e6f742072657761726420746f6b656e20696e2054726967676560408201526e3921b432b1b5a9b837ba161018973160891b606082015260800190565b6020808252603d908201527f436f756c64206e6f74207265717565737420656e6f75676820616c6c6f63617460408201527f6564207374616b652c2072657175657374566f74696e67526967687473000000606082015260800190565b6020808252602f908201527f5573657220686173206e6f7420636f6d6d69746564206265666f72652c20746860408201526e1d5cc818d85b89dd081c995d99585b608a1b606082015260800190565b6020808252602d908201527f636f756c64206e6f74207265776172642052455020696e20547269676765724360408201526c6865636b53706f742c20312e6160981b606082015260800190565b60208082526039908201527f646c6c4d61703a20646f6573206e6f7420636f696e7461696e205f446174614260408201527f61746368496420666f7220746865206d73672073656e64657200000000000000606082015260800190565b6020808252601490820152733737ba1030903b30b634b2103837b9b4ba34b7b760611b604082015260600190565b6020808252603a908201527f576f726b65722063757272656e746c792068617320776f726b20616c6c6f636160408201527f7465642c2063616e277420626520756e72656769737465726564000000000000606082015260800190565b6020808252603b908201527f43616e277420616c6c6f6361746520776f726b2c207468652063757272656e7460408201527f20626174636820697320616c726561647920616c6c6f63617465640000000000606082015260800190565b6020808252602c908201527f576f726b6572206973206e6f74207265676973746572656420736f2063616e2760408201526b3a103ab73932b3b4b9ba32b960a11b606082015260800190565b6020808252818101527f4f776e61626c653a2063616c6c6572206973206e6f7420746865206f776e6572604082015260600190565b6020808252603a908201527f5f446174614261746368496420686173206e6f7420656e6465642c206f72206e60408201527f6f7420657665727920766f74657273206861766520766f746564000000000000606082015260800190565b60208082526036908201527f43616e277420616c6c6f6361746520776f726b2c207468652063757272656e74604082015275206261746368206973206e6f7420636f6d706c65746560501b606082015260800190565b60208082526026908201527f52657665616c20706572696f64206e6f74206f70656e20666f7220746869732060408201526511185d18525160d21b606082015260800190565b60208082526027908201527f617661696c61626c65546f6b656e732073686f756c64206265203e3d205f6e756040820152666d546f6b656e7360c81b606082015260800190565b60208082526017908201527f5f4461746142617463684964206d757374206578697374000000000000000000604082015260600190565b6020808252601390820152720c081059191c995cdcc8139bdd0815985b1a59606a1b604082015260600190565b6020808252602f908201527f636f756c64206e6f742072657761726420746f6b656e20696e2054726967676560408201526e3921b432b1b5a9b837ba161019173160891b606082015260800190565b60208082526021908201527f5f446174614261746368496420697320616c72656164792076616c69646174656040820152601960fa1b606082015260800190565b60208082526029908201527f557365722068617320616c726561647920636f6d6d6974656420746f207468696040820152681cc818985d18da125960ba1b606082015260800190565b60208082526022908201527f4d6178696d756d207265676973746572656420776f726b65727320616c726561604082015261647960f01b606082015260800190565b60208082526037908201527f75736572206d757374206861766520656e6f75676820766f74696e672072696760408201527f68747320616b6120616c6c6f6361746564207374616b65000000000000000000606082015260800190565b6020808252602d908201527f636f756c64206e6f74207265776172642052455020696e20547269676765724360408201526c6865636b53706f742c20322e6160981b606082015260800190565b6020808252603b908201527f436f756c64206e6f74207769746864726177566f74696e67526967687473207460408201527f68726f7567682050726f78795374616b654465616c6c6f636174650000000000606082015260800190565b6020808252600f908201526e11185d18481b5d5cdd08195e1a5cdd608a1b604082015260600190565b6020808252602c908201527f557365722068617320616c72656164792072657665616c65642c20746875732060408201526b18d85b89dd081c995d99585b60a21b606082015260800190565b6000602082528251602083015260208301516040830152604083015160608301526060830151608083015260808301516179e960a0840182616b56565b5060a08301516179fc60c0840182616b56565b5060c0830151617a0f60e0840182616b56565b5060e0830151610100838101919091528301516101208084019190915283015161014080840191909152830151610160808401919091528301516101c0610180808501829052617a636101e0860184616b5c565b908601516101a08681019190915286015190925061424082860182616b88565b60008382528260208301526060604083015261460160608301616baa565b600084825283602083015260806040830152617abf60808301616baa565b9050826060830152949350505050565b60008382528260208301526060604083015261460160608301616bc7565b600084825283602083015260806040830152617abf60808301616bc7565b93845260208401929092526040830152606082015260800190565b600060208252825160e06020840152617b43610100840182616b5c565b905060018060a01b03602085015116604084015260408401516060840152606084015160808401526080840151601f19808584030160a0860152617b878383616b5c565b925060a08601519150808584030160c086015250617ba58282616b5c565b91505060c0840151617bba60e0850182616b88565b509392505050565b9182526001600160a01b0316602082015260400190565b9182526001600160a01b031660208201526000604082015260600190565b9283526020830191909152604082015260600190565b60008f82528e60208301528d60408301528c60608301528b151560808301528a151560a0830152617c4160c083018b616b56565b8860e08301528761010083015286610120830152856101408301526101c0610160830152617c736101c0830186616b5c565b905083610180830152617c8a6101a0830184616b88565b9f9e505050505050505050505050505050565b6000808335601e19843603018112617cb3578283fd5b8301803591506001600160401b03821115617ccc578283fd5b6020019150368190038213156166fb57600080fd5b6040518181016001600160401b0381118282101715617d0257617d02617e61565b604052919050565b60006001600160401b03821115617d2357617d23617e61565b5060209081020190565b60009081526020902090565b60008219821115617d4c57617d4c617e35565b500190565b600082617d6057617d60617e4b565b500490565b6000816000190483118215151615617d7f57617d7f617e35565b500290565b600082821015617d9657617d96617e35565b500390565b60005b83811015617db6578181015183820152602001617d9e565b83811115617dc5576000848401525b50505050565b600281046001821680617ddf57607f821691505b60208210811415617e0057634e487b7160e01b600052602260045260246000fd5b50919050565b6000600019821415617e1a57617e1a617e35565b5060010190565b600082617e3057617e30617e4b565b500690565b634e487b7160e01b600052601160045260246000fd5b634e487b7160e01b600052601260045260246000fd5b634e487b7160e01b600052604160045260246000fdfea2646970667358221220bb18f4f02675428c8eed986046e19f8e0ff0b3dbaacce0a41cd695e567728dea64736f6c63430008000033",
  "linkReferences": {
    "contracts/worksystems/DataSpotting.sol": {
      "AttributeStore": [
        {
          "length": 20,
          "start": 16529
        },
        {
          "length": 20,
          "start": 16635
        },
        {
          "length": 20,
          "start": 17047
        },
        {
          "length": 20,
          "start": 17517
        }
      ],
      "DLL": [
        {
          "length": 20,
          "start": 4610
        },
        {
          "length": 20,
          "start": 7599
        },
        {
          "length": 20,
          "start": 12031
        },
        {
          "length": 20,
          "start": 12211
        },
        {
          "length": 20,
          "start": 16049
        },
        {
          "length": 20,
          "start": 16211
        },
        {
          "length": 20,
          "start": 16406
        }
      ]
    }
  },
  "deployedLinkReferences": {
    "contracts/worksystems/DataSpotting.sol": {
      "AttributeStore": [
        {
          "length": 20,
          "start": 16081
        },
        {
          "length": 20,
          "start": 16187
        },
        {
          "length": 20,
          "start": 16599
        },
        {
          "length": 20,
          "start": 17069
        }
      ],
      "DLL": [
        {
          "length": 20,
          "start": 4162
        },
        {
          "length": 20,
          "start": 7151
        },
        {
          "length": 20,
          "start": 11583
        },
        {
          "length": 20,
          "start": 11763
        },
        {
          "length": 20,
          "start": 15601
        },
        {
          "length": 20,
          "start": 15763
        },
        {
          "length": 20,
          "start": 15958
        }
      ]
    }
  }
}