{
  "_format": "hh-sol-artifact-1",
  "contractName": "DataSpotting",
  "sourceName": "contracts/worksystems/DataSpotting.sol",
  "abi": [
    {
      "inputs": [
        {
          "internalType": "address",
          "name": "EXDT_token_",
          "type": "address"
        }
      ],
      "stateMutability": "nonpayable",
      "type": "constructor"
    },
    {
      "anonymous": false,
      "inputs": [
        {
          "indexed": false,
          "internalType": "bytes",
          "name": "bytesFailure",
          "type": "bytes"
        }
      ],
      "name": "BytesFailure",
      "type": "event"
    },
    {
      "anonymous": false,
      "inputs": [
        {
          "indexed": true,
          "internalType": "address",
          "name": "previousOwner",
          "type": "address"
        },
        {
          "indexed": true,
          "internalType": "address",
          "name": "newOwner",
          "type": "address"
        }
      ],
      "name": "OwnershipTransferred",
      "type": "event"
    },
    {
      "anonymous": false,
      "inputs": [
        {
          "indexed": false,
          "internalType": "address",
          "name": "parameters",
          "type": "address"
        }
      ],
      "name": "ParametersUpdated",
      "type": "event"
    },
    {
      "anonymous": false,
      "inputs": [
        {
          "indexed": false,
          "internalType": "address",
          "name": "account",
          "type": "address"
        }
      ],
      "name": "Paused",
      "type": "event"
    },
    {
      "anonymous": false,
      "inputs": [
        {
          "indexed": false,
          "internalType": "address",
          "name": "account",
          "type": "address"
        }
      ],
      "name": "Unpaused",
      "type": "event"
    },
    {
      "anonymous": false,
      "inputs": [
        {
          "indexed": true,
          "internalType": "uint256",
          "name": "DataID",
          "type": "uint256"
        },
        {
          "indexed": false,
          "internalType": "string",
          "name": "file_hash",
          "type": "string"
        },
        {
          "indexed": false,
          "internalType": "bool",
          "name": "isVotePassed",
          "type": "bool"
        }
      ],
      "name": "_BatchValidated",
      "type": "event"
    },
    {
      "anonymous": false,
      "inputs": [
        {
          "indexed": true,
          "internalType": "uint256",
          "name": "batchID",
          "type": "uint256"
        }
      ],
      "name": "_DataBatchDeleted",
      "type": "event"
    },
    {
      "anonymous": false,
      "inputs": [
        {
          "indexed": true,
          "internalType": "uint256",
          "name": "DataID",
          "type": "uint256"
        },
        {
          "indexed": false,
          "internalType": "uint256",
          "name": "numTokens",
          "type": "uint256"
        },
        {
          "indexed": true,
          "internalType": "address",
          "name": "voter",
          "type": "address"
        }
      ],
      "name": "_SpotCheckCommitted",
      "type": "event"
    },
    {
      "anonymous": false,
      "inputs": [
        {
          "indexed": true,
          "internalType": "uint256",
          "name": "DataID",
          "type": "uint256"
        },
        {
          "indexed": false,
          "internalType": "uint256",
          "name": "votesFor",
          "type": "uint256"
        },
        {
          "indexed": false,
          "internalType": "uint256",
          "name": "votesAgainst",
          "type": "uint256"
        },
        {
          "indexed": true,
          "internalType": "uint256",
          "name": "choice",
          "type": "uint256"
        },
        {
          "indexed": true,
          "internalType": "address",
          "name": "voter",
          "type": "address"
        }
      ],
      "name": "_SpotCheckRevealed",
      "type": "event"
    },
    {
      "anonymous": false,
      "inputs": [
        {
          "indexed": true,
          "internalType": "uint256",
          "name": "DataID",
          "type": "uint256"
        },
        {
          "indexed": false,
          "internalType": "string",
          "name": "file_hash",
          "type": "string"
        },
        {
          "indexed": false,
          "internalType": "string",
          "name": "URL_domain",
          "type": "string"
        },
        {
          "indexed": true,
          "internalType": "address",
          "name": "sender",
          "type": "address"
        }
      ],
      "name": "_SpotSubmitted",
      "type": "event"
    },
    {
      "anonymous": false,
      "inputs": [
        {
          "indexed": false,
          "internalType": "uint256",
          "name": "numTokens",
          "type": "uint256"
        },
        {
          "indexed": true,
          "internalType": "address",
          "name": "voter",
          "type": "address"
        }
      ],
      "name": "_StakeAllocated",
      "type": "event"
    },
    {
      "anonymous": false,
      "inputs": [
        {
          "indexed": true,
          "internalType": "uint256",
          "name": "DataID",
          "type": "uint256"
        },
        {
          "indexed": true,
          "internalType": "address",
          "name": "voter",
          "type": "address"
        }
      ],
      "name": "_TokensRescued",
      "type": "event"
    },
    {
      "anonymous": false,
      "inputs": [
        {
          "indexed": false,
          "internalType": "uint256",
          "name": "numTokens",
          "type": "uint256"
        },
        {
          "indexed": true,
          "internalType": "address",
          "name": "voter",
          "type": "address"
        }
      ],
      "name": "_VotingRightsWithdrawn",
      "type": "event"
    },
    {
      "anonymous": false,
      "inputs": [
        {
          "indexed": true,
          "internalType": "uint256",
          "name": "batchID",
          "type": "uint256"
        },
        {
          "indexed": false,
          "internalType": "address",
          "name": "worker",
          "type": "address"
        }
      ],
      "name": "_WorkAllocated",
      "type": "event"
    },
    {
      "anonymous": false,
      "inputs": [
        {
          "indexed": true,
          "internalType": "address",
          "name": "worker",
          "type": "address"
        },
        {
          "indexed": false,
          "internalType": "uint256",
          "name": "timestamp",
          "type": "uint256"
        }
      ],
      "name": "_WorkerRegistered",
      "type": "event"
    },
    {
      "anonymous": false,
      "inputs": [
        {
          "indexed": true,
          "internalType": "address",
          "name": "worker",
          "type": "address"
        },
        {
          "indexed": false,
          "internalType": "uint256",
          "name": "timestamp",
          "type": "uint256"
        }
      ],
      "name": "_WorkerUnregistered",
      "type": "event"
    },
    {
      "inputs": [],
      "name": "AcceptedBatchsCounter",
      "outputs": [
        {
          "internalType": "uint128",
          "name": "",
          "type": "uint128"
        }
      ],
      "stateMutability": "view",
      "type": "function"
    },
    {
      "inputs": [],
      "name": "AllItemCounter",
      "outputs": [
        {
          "internalType": "uint256",
          "name": "",
          "type": "uint256"
        }
      ],
      "stateMutability": "view",
      "type": "function"
    },
    {
      "inputs": [],
      "name": "AllTxsCounter",
      "outputs": [
        {
          "internalType": "uint256",
          "name": "",
          "type": "uint256"
        }
      ],
      "stateMutability": "view",
      "type": "function"
    },
    {
      "inputs": [
        {
          "internalType": "uint256",
          "name": "",
          "type": "uint256"
        }
      ],
      "name": "AllWorkersList",
      "outputs": [
        {
          "internalType": "address",
          "name": "",
          "type": "address"
        }
      ],
      "stateMutability": "view",
      "type": "function"
    },
    {
      "inputs": [],
      "name": "AllocatedBatchCursor",
      "outputs": [
        {
          "internalType": "uint128",
          "name": "",
          "type": "uint128"
        }
      ],
      "stateMutability": "view",
      "type": "function"
    },
    {
      "inputs": [],
      "name": "AmIKicked",
      "outputs": [
        {
          "internalType": "bool",
          "name": "status",
          "type": "bool"
        }
      ],
      "stateMutability": "view",
      "type": "function"
    },
    {
      "inputs": [],
      "name": "AmIRegistered",
      "outputs": [
        {
          "internalType": "bool",
          "name": "passed",
          "type": "bool"
        }
      ],
      "stateMutability": "view",
      "type": "function"
    },
    {
      "inputs": [
        {
          "internalType": "string",
          "name": "_a",
          "type": "string"
        },
        {
          "internalType": "string",
          "name": "_b",
          "type": "string"
        }
      ],
      "name": "AreStringsEqual",
      "outputs": [
        {
          "internalType": "bool",
          "name": "",
          "type": "bool"
        }
      ],
      "stateMutability": "pure",
      "type": "function"
    },
    {
      "inputs": [],
      "name": "BatchCheckingCursor",
      "outputs": [
        {
          "internalType": "uint128",
          "name": "",
          "type": "uint128"
        }
      ],
      "stateMutability": "view",
      "type": "function"
    },
    {
      "inputs": [
        {
          "internalType": "uint128",
          "name": "",
          "type": "uint128"
        }
      ],
      "name": "BatchCommitedVoteCount",
      "outputs": [
        {
          "internalType": "uint16",
          "name": "",
          "type": "uint16"
        }
      ],
      "stateMutability": "view",
      "type": "function"
    },
    {
      "inputs": [],
      "name": "BatchDeletionCursor",
      "outputs": [
        {
          "internalType": "uint128",
          "name": "",
          "type": "uint128"
        }
      ],
      "stateMutability": "view",
      "type": "function"
    },
    {
      "inputs": [
        {
          "internalType": "uint128",
          "name": "",
          "type": "uint128"
        }
      ],
      "name": "BatchRevealedVoteCount",
      "outputs": [
        {
          "internalType": "uint16",
          "name": "",
          "type": "uint16"
        }
      ],
      "stateMutability": "view",
      "type": "function"
    },
    {
      "inputs": [],
      "name": "BytesUsed",
      "outputs": [
        {
          "internalType": "uint256",
          "name": "",
          "type": "uint256"
        }
      ],
      "stateMutability": "view",
      "type": "function"
    },
    {
      "inputs": [
        {
          "internalType": "uint128",
          "name": "",
          "type": "uint128"
        }
      ],
      "name": "DataBatch",
      "outputs": [
        {
          "internalType": "uint128",
          "name": "start_idx",
          "type": "uint128"
        },
        {
          "internalType": "uint32",
          "name": "counter",
          "type": "uint32"
        },
        {
          "internalType": "uint32",
          "name": "item_count",
          "type": "uint32"
        },
        {
          "internalType": "uint16",
          "name": "uncommited_workers",
          "type": "uint16"
        },
        {
          "internalType": "uint16",
          "name": "unrevealed_workers",
          "type": "uint16"
        },
        {
          "internalType": "bool",
          "name": "complete",
          "type": "bool"
        },
        {
          "internalType": "bool",
          "name": "checked",
          "type": "bool"
        },
        {
          "internalType": "bool",
          "name": "allocated_to_work",
          "type": "bool"
        },
        {
          "internalType": "uint16",
          "name": "votesFor",
          "type": "uint16"
        },
        {
          "internalType": "uint16",
          "name": "votesAgainst",
          "type": "uint16"
        },
        {
          "internalType": "uint64",
          "name": "commitEndDate",
          "type": "uint64"
        },
        {
          "internalType": "uint64",
          "name": "revealEndDate",
          "type": "uint64"
        },
        {
          "internalType": "string",
          "name": "batchIPFSfile",
          "type": "string"
        },
        {
          "internalType": "enum DataSpotting.DataStatus",
          "name": "status",
          "type": "uint8"
        }
      ],
      "stateMutability": "view",
      "type": "function"
    },
    {
      "inputs": [
        {
          "internalType": "uint128",
          "name": "_DataBatchId",
          "type": "uint128"
        }
      ],
      "name": "DataCommitEndDate",
      "outputs": [
        {
          "internalType": "uint256",
          "name": "commitEndDate",
          "type": "uint256"
        }
      ],
      "stateMutability": "view",
      "type": "function"
    },
    {
      "inputs": [
        {
          "internalType": "uint128",
          "name": "_DataBatchId",
          "type": "uint128"
        }
      ],
      "name": "DataEnded",
      "outputs": [
        {
          "internalType": "bool",
          "name": "ended",
          "type": "bool"
        }
      ],
      "stateMutability": "view",
      "type": "function"
    },
    {
      "inputs": [
        {
          "internalType": "uint128",
          "name": "_DataBatchId",
          "type": "uint128"
        }
      ],
      "name": "DataExists",
      "outputs": [
        {
          "internalType": "bool",
          "name": "exists",
          "type": "bool"
        }
      ],
      "stateMutability": "view",
      "type": "function"
    },
    {
      "inputs": [],
      "name": "DataNonce",
      "outputs": [
        {
          "internalType": "uint128",
          "name": "",
          "type": "uint128"
        }
      ],
      "stateMutability": "view",
      "type": "function"
    },
    {
      "inputs": [
        {
          "internalType": "uint128",
          "name": "_DataBatchId",
          "type": "uint128"
        }
      ],
      "name": "DataRevealEndDate",
      "outputs": [
        {
          "internalType": "uint256",
          "name": "revealEndDate",
          "type": "uint256"
        }
      ],
      "stateMutability": "view",
      "type": "function"
    },
    {
      "inputs": [],
      "name": "FORCE_VALIDATE_BATCH_FILE",
      "outputs": [
        {
          "internalType": "bool",
          "name": "",
          "type": "bool"
        }
      ],
      "stateMutability": "view",
      "type": "function"
    },
    {
      "inputs": [
        {
          "internalType": "address",
          "name": "user_",
          "type": "address"
        }
      ],
      "name": "GetCurrentWork",
      "outputs": [
        {
          "internalType": "uint256",
          "name": "",
          "type": "uint256"
        }
      ],
      "stateMutability": "view",
      "type": "function"
    },
    {
      "inputs": [
        {
          "internalType": "uint256",
          "name": "",
          "type": "uint256"
        }
      ],
      "name": "GlobalSpotFlowManager",
      "outputs": [
        {
          "internalType": "uint128",
          "name": "timestamp",
          "type": "uint128"
        },
        {
          "internalType": "uint128",
          "name": "counter",
          "type": "uint128"
        }
      ],
      "stateMutability": "view",
      "type": "function"
    },
    {
      "inputs": [],
      "name": "InstantRevealRewards",
      "outputs": [
        {
          "internalType": "bool",
          "name": "",
          "type": "bool"
        }
      ],
      "stateMutability": "view",
      "type": "function"
    },
    {
      "inputs": [],
      "name": "InstantRevealRewardsDivider",
      "outputs": [
        {
          "internalType": "uint16",
          "name": "",
          "type": "uint16"
        }
      ],
      "stateMutability": "view",
      "type": "function"
    },
    {
      "inputs": [],
      "name": "InstantSpotRewards",
      "outputs": [
        {
          "internalType": "bool",
          "name": "",
          "type": "bool"
        }
      ],
      "stateMutability": "view",
      "type": "function"
    },
    {
      "inputs": [],
      "name": "InstantSpotRewardsDivider",
      "outputs": [
        {
          "internalType": "uint16",
          "name": "",
          "type": "uint16"
        }
      ],
      "stateMutability": "view",
      "type": "function"
    },
    {
      "inputs": [
        {
          "internalType": "address",
          "name": "user_",
          "type": "address"
        }
      ],
      "name": "IsAddressKicked",
      "outputs": [
        {
          "internalType": "bool",
          "name": "status",
          "type": "bool"
        }
      ],
      "stateMutability": "view",
      "type": "function"
    },
    {
      "inputs": [
        {
          "internalType": "address",
          "name": "_worker",
          "type": "address"
        }
      ],
      "name": "IsInLogoffList",
      "outputs": [
        {
          "internalType": "bool",
          "name": "",
          "type": "bool"
        }
      ],
      "stateMutability": "view",
      "type": "function"
    },
    {
      "inputs": [
        {
          "internalType": "address",
          "name": "user_",
          "type": "address"
        }
      ],
      "name": "IsNewWorkAvailable",
      "outputs": [
        {
          "internalType": "bool",
          "name": "",
          "type": "bool"
        }
      ],
      "stateMutability": "view",
      "type": "function"
    },
    {
      "inputs": [
        {
          "internalType": "uint256",
          "name": "",
          "type": "uint256"
        }
      ],
      "name": "ItemFlowManager",
      "outputs": [
        {
          "internalType": "uint128",
          "name": "timestamp",
          "type": "uint128"
        },
        {
          "internalType": "uint128",
          "name": "counter",
          "type": "uint128"
        }
      ],
      "stateMutability": "view",
      "type": "function"
    },
    {
      "inputs": [],
      "name": "LastAllocationTime",
      "outputs": [
        {
          "internalType": "uint64",
          "name": "",
          "type": "uint64"
        }
      ],
      "stateMutability": "view",
      "type": "function"
    },
    {
      "inputs": [],
      "name": "LastBatchCounter",
      "outputs": [
        {
          "internalType": "uint128",
          "name": "",
          "type": "uint128"
        }
      ],
      "stateMutability": "view",
      "type": "function"
    },
    {
      "inputs": [],
      "name": "LastRandomSeed",
      "outputs": [
        {
          "internalType": "uint256",
          "name": "",
          "type": "uint256"
        }
      ],
      "stateMutability": "view",
      "type": "function"
    },
    {
      "inputs": [],
      "name": "MaxPendingDataBatchCount",
      "outputs": [
        {
          "internalType": "uint16",
          "name": "",
          "type": "uint16"
        }
      ],
      "stateMutability": "view",
      "type": "function"
    },
    {
      "inputs": [],
      "name": "MaximumBytesTarget",
      "outputs": [
        {
          "internalType": "uint256",
          "name": "",
          "type": "uint256"
        }
      ],
      "stateMutability": "view",
      "type": "function"
    },
    {
      "inputs": [],
      "name": "NotCommitedCounter",
      "outputs": [
        {
          "internalType": "uint128",
          "name": "",
          "type": "uint128"
        }
      ],
      "stateMutability": "view",
      "type": "function"
    },
    {
      "inputs": [],
      "name": "NotRevealedCounter",
      "outputs": [
        {
          "internalType": "uint128",
          "name": "",
          "type": "uint128"
        }
      ],
      "stateMutability": "view",
      "type": "function"
    },
    {
      "inputs": [],
      "name": "Parameters",
      "outputs": [
        {
          "internalType": "contract IParametersManager",
          "name": "",
          "type": "address"
        }
      ],
      "stateMutability": "view",
      "type": "function"
    },
    {
      "inputs": [],
      "name": "RegisterWorker",
      "outputs": [],
      "stateMutability": "nonpayable",
      "type": "function"
    },
    {
      "inputs": [],
      "name": "RejectedBatchsCounter",
      "outputs": [
        {
          "internalType": "uint128",
          "name": "",
          "type": "uint128"
        }
      ],
      "stateMutability": "view",
      "type": "function"
    },
    {
      "inputs": [],
      "name": "SPOT_FILE_SIZE",
      "outputs": [
        {
          "internalType": "uint16",
          "name": "",
          "type": "uint16"
        }
      ],
      "stateMutability": "view",
      "type": "function"
    },
    {
      "inputs": [],
      "name": "STAKING_REQUIREMENT_TOGGLE_ENABLED",
      "outputs": [
        {
          "internalType": "bool",
          "name": "",
          "type": "bool"
        }
      ],
      "stateMutability": "view",
      "type": "function"
    },
    {
      "inputs": [
        {
          "internalType": "address",
          "name": "_worker",
          "type": "address"
        },
        {
          "internalType": "uint256",
          "name": "_TokensAmountToAllocate",
          "type": "uint256"
        }
      ],
      "name": "SelectAddressForUser",
      "outputs": [
        {
          "internalType": "address",
          "name": "",
          "type": "address"
        }
      ],
      "stateMutability": "view",
      "type": "function"
    },
    {
      "inputs": [
        {
          "internalType": "string[]",
          "name": "file_hashs_",
          "type": "string[]"
        },
        {
          "internalType": "string[]",
          "name": "URL_domains_",
          "type": "string[]"
        },
        {
          "internalType": "uint64[]",
          "name": "item_counts_",
          "type": "uint64[]"
        },
        {
          "internalType": "string",
          "name": "extra_",
          "type": "string"
        }
      ],
      "name": "SpotData",
      "outputs": [
        {
          "internalType": "uint256",
          "name": "Dataid_",
          "type": "uint256"
        }
      ],
      "stateMutability": "nonpayable",
      "type": "function"
    },
    {
      "inputs": [
        {
          "internalType": "uint128",
          "name": "",
          "type": "uint128"
        }
      ],
      "name": "SpotsMapping",
      "outputs": [
        {
          "internalType": "uint64",
          "name": "timestamp",
          "type": "uint64"
        },
        {
          "internalType": "uint64",
          "name": "item_count",
          "type": "uint64"
        },
        {
          "internalType": "enum DataSpotting.DataStatus",
          "name": "status",
          "type": "uint8"
        },
        {
          "internalType": "address",
          "name": "author",
          "type": "address"
        },
        {
          "internalType": "string",
          "name": "ipfs_hash",
          "type": "string"
        },
        {
          "internalType": "string",
          "name": "URL_domain",
          "type": "string"
        },
        {
          "internalType": "string",
          "name": "extra",
          "type": "string"
        }
      ],
      "stateMutability": "view",
      "type": "function"
    },
    {
      "inputs": [
        {
          "internalType": "address",
          "name": "",
          "type": "address"
        }
      ],
      "name": "SystemStakedTokenBalance",
      "outputs": [
        {
          "internalType": "uint256",
          "name": "",
          "type": "uint256"
        }
      ],
      "stateMutability": "view",
      "type": "function"
    },
    {
      "inputs": [],
      "name": "TRIGGER_WITH_SPOTDATA_TOGGLE_ENABLED",
      "outputs": [
        {
          "internalType": "bool",
          "name": "",
          "type": "bool"
        }
      ],
      "stateMutability": "view",
      "type": "function"
    },
    {
      "inputs": [
        {
          "internalType": "uint128",
          "name": "iteration_count",
          "type": "uint128"
        }
      ],
      "name": "TriggerAllocations",
      "outputs": [],
      "stateMutability": "nonpayable",
      "type": "function"
    },
    {
      "inputs": [
        {
          "internalType": "uint128",
          "name": "iteration_count",
          "type": "uint128"
        }
      ],
      "name": "TriggerDeletion",
      "outputs": [],
      "stateMutability": "nonpayable",
      "type": "function"
    },
    {
      "inputs": [
        {
          "internalType": "uint128",
          "name": "iteration_count",
          "type": "uint128"
        }
      ],
      "name": "TriggerUpdate",
      "outputs": [],
      "stateMutability": "nonpayable",
      "type": "function"
    },
    {
      "inputs": [
        {
          "internalType": "uint128",
          "name": "iteration_count",
          "type": "uint128"
        }
      ],
      "name": "TriggerValidation",
      "outputs": [],
      "stateMutability": "nonpayable",
      "type": "function"
    },
    {
      "inputs": [],
      "name": "UnregisterWorker",
      "outputs": [],
      "stateMutability": "nonpayable",
      "type": "function"
    },
    {
      "inputs": [
        {
          "internalType": "uint128",
          "name": "",
          "type": "uint128"
        },
        {
          "internalType": "address",
          "name": "",
          "type": "address"
        }
      ],
      "name": "UserVoteSubmission",
      "outputs": [
        {
          "internalType": "bool",
          "name": "commited",
          "type": "bool"
        },
        {
          "internalType": "bool",
          "name": "revealed",
          "type": "bool"
        },
        {
          "internalType": "uint8",
          "name": "vote",
          "type": "uint8"
        },
        {
          "internalType": "uint32",
          "name": "batchCount",
          "type": "uint32"
        },
        {
          "internalType": "string",
          "name": "newFile",
          "type": "string"
        },
        {
          "internalType": "string",
          "name": "batchFrom",
          "type": "string"
        }
      ],
      "stateMutability": "view",
      "type": "function"
    },
    {
      "inputs": [],
      "name": "VALIDATE_ON_LAST_REVEAL",
      "outputs": [
        {
          "internalType": "bool",
          "name": "",
          "type": "bool"
        }
      ],
      "stateMutability": "view",
      "type": "function"
    },
    {
      "inputs": [
        {
          "internalType": "uint128",
          "name": "",
          "type": "uint128"
        },
        {
          "internalType": "uint256",
          "name": "",
          "type": "uint256"
        }
      ],
      "name": "WorkersPerBatch",
      "outputs": [
        {
          "internalType": "address",
          "name": "",
          "type": "address"
        }
      ],
      "stateMutability": "view",
      "type": "function"
    },
    {
      "inputs": [
        {
          "internalType": "address",
          "name": "",
          "type": "address"
        },
        {
          "internalType": "uint256",
          "name": "",
          "type": "uint256"
        }
      ],
      "name": "WorkersSpotFlowManager",
      "outputs": [
        {
          "internalType": "uint128",
          "name": "timestamp",
          "type": "uint128"
        },
        {
          "internalType": "uint128",
          "name": "counter",
          "type": "uint128"
        }
      ],
      "stateMutability": "view",
      "type": "function"
    },
    {
      "inputs": [
        {
          "internalType": "address",
          "name": "",
          "type": "address"
        }
      ],
      "name": "WorkersState",
      "outputs": [
        {
          "internalType": "uint128",
          "name": "allocated_work_batch",
          "type": "uint128"
        },
        {
          "internalType": "uint64",
          "name": "last_interaction_date",
          "type": "uint64"
        },
        {
          "internalType": "uint16",
          "name": "succeeding_novote_count",
          "type": "uint16"
        },
        {
          "internalType": "bool",
          "name": "registered",
          "type": "bool"
        },
        {
          "internalType": "bool",
          "name": "unregistration_request",
          "type": "bool"
        },
        {
          "internalType": "bool",
          "name": "isWorkerSeen",
          "type": "bool"
        },
        {
          "internalType": "uint64",
          "name": "registration_date",
          "type": "uint64"
        },
        {
          "internalType": "uint64",
          "name": "allocated_batch_counter",
          "type": "uint64"
        },
        {
          "internalType": "uint64",
          "name": "majority_counter",
          "type": "uint64"
        },
        {
          "internalType": "uint64",
          "name": "minority_counter",
          "type": "uint64"
        }
      ],
      "stateMutability": "view",
      "type": "function"
    },
    {
      "inputs": [
        {
          "internalType": "address",
          "name": "",
          "type": "address"
        }
      ],
      "name": "WorkersStatus",
      "outputs": [
        {
          "internalType": "bool",
          "name": "isAvailableWorker",
          "type": "bool"
        },
        {
          "internalType": "bool",
          "name": "isBusyWorker",
          "type": "bool"
        },
        {
          "internalType": "bool",
          "name": "isToUnregisterWorker",
          "type": "bool"
        },
        {
          "internalType": "uint32",
          "name": "availableWorkersIndex",
          "type": "uint32"
        },
        {
          "internalType": "uint32",
          "name": "busyWorkersIndex",
          "type": "uint32"
        },
        {
          "internalType": "uint32",
          "name": "toUnregisterWorkersIndex",
          "type": "uint32"
        }
      ],
      "stateMutability": "view",
      "type": "function"
    },
    {
      "inputs": [
        {
          "internalType": "uint128",
          "name": "startIdx",
          "type": "uint128"
        },
        {
          "internalType": "uint128",
          "name": "iteration_count",
          "type": "uint128"
        }
      ],
      "name": "adminDataDelete",
      "outputs": [],
      "stateMutability": "nonpayable",
      "type": "function"
    },
    {
      "inputs": [
        {
          "internalType": "address",
          "name": "user_",
          "type": "address"
        },
        {
          "internalType": "uint128",
          "name": "_DataBatchId",
          "type": "uint128"
        }
      ],
      "name": "attrUUID",
      "outputs": [
        {
          "internalType": "bytes32",
          "name": "UUID",
          "type": "bytes32"
        }
      ],
      "stateMutability": "pure",
      "type": "function"
    },
    {
      "inputs": [
        {
          "internalType": "uint256",
          "name": "",
          "type": "uint256"
        }
      ],
      "name": "availableWorkers",
      "outputs": [
        {
          "internalType": "address",
          "name": "",
          "type": "address"
        }
      ],
      "stateMutability": "view",
      "type": "function"
    },
    {
      "inputs": [
        {
          "internalType": "uint256",
          "name": "",
          "type": "uint256"
        }
      ],
      "name": "busyWorkers",
      "outputs": [
        {
          "internalType": "address",
          "name": "",
          "type": "address"
        }
      ],
      "stateMutability": "view",
      "type": "function"
    },
    {
      "inputs": [
        {
          "internalType": "uint128",
          "name": "_DataBatchId",
          "type": "uint128"
        }
      ],
      "name": "commitPeriodActive",
      "outputs": [
        {
          "internalType": "bool",
          "name": "active",
          "type": "bool"
        }
      ],
      "stateMutability": "view",
      "type": "function"
    },
    {
      "inputs": [
        {
          "internalType": "uint128",
          "name": "_DataBatchId",
          "type": "uint128"
        }
      ],
      "name": "commitPeriodOver",
      "outputs": [
        {
          "internalType": "bool",
          "name": "active",
          "type": "bool"
        }
      ],
      "stateMutability": "view",
      "type": "function"
    },
    {
      "inputs": [
        {
          "internalType": "uint128",
          "name": "_DataBatchId",
          "type": "uint128"
        },
        {
          "internalType": "bytes32",
          "name": "_encryptedHash",
          "type": "bytes32"
        },
        {
          "internalType": "bytes32",
          "name": "_encryptedVote",
          "type": "bytes32"
        },
        {
          "internalType": "uint32",
          "name": "_BatchCount",
          "type": "uint32"
        },
        {
          "internalType": "string",
          "name": "_From",
          "type": "string"
        }
      ],
      "name": "commitSpotCheck",
      "outputs": [],
      "stateMutability": "nonpayable",
      "type": "function"
    },
    {
      "inputs": [],
      "name": "deleteAllWorkersArray",
      "outputs": [],
      "stateMutability": "nonpayable",
      "type": "function"
    },
    {
      "inputs": [],
      "name": "deleteAvailableWorkersArray",
      "outputs": [],
      "stateMutability": "nonpayable",
      "type": "function"
    },
    {
      "inputs": [
        {
          "internalType": "uint128",
          "name": "spotIndexA",
          "type": "uint128"
        },
        {
          "internalType": "uint128",
          "name": "spotIndexB",
          "type": "uint128"
        }
      ],
      "name": "deleteSpotData",
      "outputs": [],
      "stateMutability": "nonpayable",
      "type": "function"
    },
    {
      "inputs": [
        {
          "internalType": "address",
          "name": "user_",
          "type": "address"
        }
      ],
      "name": "deleteWorkersState",
      "outputs": [],
      "stateMutability": "nonpayable",
      "type": "function"
    },
    {
      "inputs": [
        {
          "internalType": "address",
          "name": "user_",
          "type": "address"
        }
      ],
      "name": "deleteWorkersStatus",
      "outputs": [],
      "stateMutability": "nonpayable",
      "type": "function"
    },
    {
      "inputs": [
        {
          "internalType": "uint128",
          "name": "batchToDeleteIndex",
          "type": "uint128"
        }
      ],
      "name": "deleteWorkersSubmission",
      "outputs": [],
      "stateMutability": "nonpayable",
      "type": "function"
    },
    {
      "inputs": [
        {
          "internalType": "address",
          "name": "_voter",
          "type": "address"
        },
        {
          "internalType": "uint128",
          "name": "_DataBatchId",
          "type": "uint128"
        }
      ],
      "name": "didCommit",
      "outputs": [
        {
          "internalType": "bool",
          "name": "committed",
          "type": "bool"
        }
      ],
      "stateMutability": "view",
      "type": "function"
    },
    {
      "inputs": [
        {
          "internalType": "address",
          "name": "_voter",
          "type": "address"
        },
        {
          "internalType": "uint128",
          "name": "_DataBatchId",
          "type": "uint128"
        }
      ],
      "name": "didReveal",
      "outputs": [
        {
          "internalType": "bool",
          "name": "revealed",
          "type": "bool"
        }
      ],
      "stateMutability": "view",
      "type": "function"
    },
    {
      "inputs": [
        {
          "internalType": "uint256",
          "name": "_k",
          "type": "uint256"
        },
        {
          "internalType": "uint256",
          "name": "N_range",
          "type": "uint256"
        }
      ],
      "name": "generateIntegers",
      "outputs": [
        {
          "internalType": "uint256[]",
          "name": "",
          "type": "uint256[]"
        }
      ],
      "stateMutability": "view",
      "type": "function"
    },
    {
      "inputs": [],
      "name": "getAcceptedBatchesCount",
      "outputs": [
        {
          "internalType": "uint128",
          "name": "count",
          "type": "uint128"
        }
      ],
      "stateMutability": "view",
      "type": "function"
    },
    {
      "inputs": [],
      "name": "getActiveWorkersCount",
      "outputs": [
        {
          "internalType": "uint256",
          "name": "numWorkers",
          "type": "uint256"
        }
      ],
      "stateMutability": "view",
      "type": "function"
    },
    {
      "inputs": [
        {
          "internalType": "uint256",
          "name": "A_",
          "type": "uint256"
        },
        {
          "internalType": "uint256",
          "name": "B_",
          "type": "uint256"
        }
      ],
      "name": "getAllWorkersBetweenIndex",
      "outputs": [
        {
          "internalType": "address[]",
          "name": "workers",
          "type": "address[]"
        }
      ],
      "stateMutability": "view",
      "type": "function"
    },
    {
      "inputs": [],
      "name": "getAllWorkersLength",
      "outputs": [
        {
          "internalType": "uint256",
          "name": "length",
          "type": "uint256"
        }
      ],
      "stateMutability": "view",
      "type": "function"
    },
    {
      "inputs": [
        {
          "internalType": "bytes32",
          "name": "_UUID",
          "type": "bytes32"
        },
        {
          "internalType": "string",
          "name": "_attrName",
          "type": "string"
        }
      ],
      "name": "getAttribute",
      "outputs": [
        {
          "internalType": "uint256",
          "name": "",
          "type": "uint256"
        }
      ],
      "stateMutability": "view",
      "type": "function"
    },
    {
      "inputs": [],
      "name": "getAvailableWorkersCount",
      "outputs": [
        {
          "internalType": "uint256",
          "name": "numWorkers",
          "type": "uint256"
        }
      ],
      "stateMutability": "view",
      "type": "function"
    },
    {
      "inputs": [
        {
          "internalType": "uint128",
          "name": "_DataBatchId",
          "type": "uint128"
        }
      ],
      "name": "getBatchByID",
      "outputs": [
        {
          "components": [
            {
              "internalType": "uint128",
              "name": "start_idx",
              "type": "uint128"
            },
            {
              "internalType": "uint32",
              "name": "counter",
              "type": "uint32"
            },
            {
              "internalType": "uint32",
              "name": "item_count",
              "type": "uint32"
            },
            {
              "internalType": "uint16",
              "name": "uncommited_workers",
              "type": "uint16"
            },
            {
              "internalType": "uint16",
              "name": "unrevealed_workers",
              "type": "uint16"
            },
            {
              "internalType": "bool",
              "name": "complete",
              "type": "bool"
            },
            {
              "internalType": "bool",
              "name": "checked",
              "type": "bool"
            },
            {
              "internalType": "bool",
              "name": "allocated_to_work",
              "type": "bool"
            },
            {
              "internalType": "uint16",
              "name": "votesFor",
              "type": "uint16"
            },
            {
              "internalType": "uint16",
              "name": "votesAgainst",
              "type": "uint16"
            },
            {
              "internalType": "uint64",
              "name": "commitEndDate",
              "type": "uint64"
            },
            {
              "internalType": "uint64",
              "name": "revealEndDate",
              "type": "uint64"
            },
            {
              "internalType": "string",
              "name": "batchIPFSfile",
              "type": "string"
            },
            {
              "internalType": "enum DataSpotting.DataStatus",
              "name": "status",
              "type": "uint8"
            }
          ],
          "internalType": "struct DataSpotting.BatchMetadata",
          "name": "batch",
          "type": "tuple"
        }
      ],
      "stateMutability": "view",
      "type": "function"
    },
    {
      "inputs": [
        {
          "internalType": "uint128",
          "name": "_DataBatchId_a",
          "type": "uint128"
        },
        {
          "internalType": "uint128",
          "name": "_DataBatchId_b",
          "type": "uint128"
        }
      ],
      "name": "getBatchCountForBatch",
      "outputs": [
        {
          "internalType": "uint128",
          "name": "AverageURLCount",
          "type": "uint128"
        },
        {
          "internalType": "uint128[]",
          "name": "batchCounts",
          "type": "uint128[]"
        }
      ],
      "stateMutability": "view",
      "type": "function"
    },
    {
      "inputs": [
        {
          "internalType": "uint128",
          "name": "_DataBatchId",
          "type": "uint128"
        }
      ],
      "name": "getBatchIPFSFileByID",
      "outputs": [
        {
          "internalType": "string",
          "name": "batch",
          "type": "string"
        }
      ],
      "stateMutability": "view",
      "type": "function"
    },
    {
      "inputs": [
        {
          "internalType": "uint128",
          "name": "_DataBatchId_a",
          "type": "uint128"
        },
        {
          "internalType": "uint128",
          "name": "_DataBatchId_b",
          "type": "uint128"
        }
      ],
      "name": "getBatchsFilesByID",
      "outputs": [
        {
          "internalType": "string[]",
          "name": "",
          "type": "string[]"
        }
      ],
      "stateMutability": "view",
      "type": "function"
    },
    {
      "inputs": [],
      "name": "getBusyWorkersCount",
      "outputs": [
        {
          "internalType": "uint256",
          "name": "numWorkers",
          "type": "uint256"
        }
      ],
      "stateMutability": "view",
      "type": "function"
    },
    {
      "inputs": [],
      "name": "getBytesUsed",
      "outputs": [
        {
          "internalType": "uint256",
          "name": "storage_size",
          "type": "uint256"
        }
      ],
      "stateMutability": "view",
      "type": "function"
    },
    {
      "inputs": [
        {
          "internalType": "address",
          "name": "_voter",
          "type": "address"
        },
        {
          "internalType": "uint128",
          "name": "_DataBatchId",
          "type": "uint128"
        }
      ],
      "name": "getCommitIPFSHash",
      "outputs": [
        {
          "internalType": "bytes32",
          "name": "commitHash",
          "type": "bytes32"
        }
      ],
      "stateMutability": "view",
      "type": "function"
    },
    {
      "inputs": [
        {
          "internalType": "address",
          "name": "_voter",
          "type": "address"
        },
        {
          "internalType": "uint128",
          "name": "_DataBatchId",
          "type": "uint128"
        }
      ],
      "name": "getCommitVoteHash",
      "outputs": [
        {
          "internalType": "bytes32",
          "name": "commitHash",
          "type": "bytes32"
        }
      ],
      "stateMutability": "view",
      "type": "function"
    },
    {
      "inputs": [
        {
          "internalType": "uint128",
          "name": "_DataId",
          "type": "uint128"
        }
      ],
      "name": "getDataByID",
      "outputs": [
        {
          "components": [
            {
              "internalType": "uint64",
              "name": "timestamp",
              "type": "uint64"
            },
            {
              "internalType": "uint64",
              "name": "item_count",
              "type": "uint64"
            },
            {
              "internalType": "enum DataSpotting.DataStatus",
              "name": "status",
              "type": "uint8"
            },
            {
              "internalType": "address",
              "name": "author",
              "type": "address"
            },
            {
              "internalType": "string",
              "name": "ipfs_hash",
              "type": "string"
            },
            {
              "internalType": "string",
              "name": "URL_domain",
              "type": "string"
            },
            {
              "internalType": "string",
              "name": "extra",
              "type": "string"
            }
          ],
          "internalType": "struct DataSpotting.SpottedData",
          "name": "data",
          "type": "tuple"
        }
      ],
      "stateMutability": "view",
      "type": "function"
    },
    {
      "inputs": [
        {
          "internalType": "uint128",
          "name": "_DataBatchId",
          "type": "uint128"
        }
      ],
      "name": "getDomainsForBatch",
      "outputs": [
        {
          "internalType": "string[]",
          "name": "",
          "type": "string[]"
        }
      ],
      "stateMutability": "view",
      "type": "function"
    },
    {
      "inputs": [
        {
          "internalType": "uint256",
          "name": "_clearVote",
          "type": "uint256"
        },
        {
          "internalType": "uint256",
          "name": "_salt",
          "type": "uint256"
        }
      ],
      "name": "getEncryptedHash",
      "outputs": [
        {
          "internalType": "bytes32",
          "name": "keccak256hash",
          "type": "bytes32"
        }
      ],
      "stateMutability": "pure",
      "type": "function"
    },
    {
      "inputs": [
        {
          "internalType": "string",
          "name": "_hash",
          "type": "string"
        },
        {
          "internalType": "uint256",
          "name": "_salt",
          "type": "uint256"
        }
      ],
      "name": "getEncryptedStringHash",
      "outputs": [
        {
          "internalType": "bytes32",
          "name": "keccak256hash",
          "type": "bytes32"
        }
      ],
      "stateMutability": "pure",
      "type": "function"
    },
    {
      "inputs": [
        {
          "internalType": "uint128",
          "name": "_DataBatchId",
          "type": "uint128"
        }
      ],
      "name": "getFromsForBatch",
      "outputs": [
        {
          "internalType": "string[]",
          "name": "",
          "type": "string[]"
        }
      ],
      "stateMutability": "view",
      "type": "function"
    },
    {
      "inputs": [],
      "name": "getGlobalPeriodSpotCount",
      "outputs": [
        {
          "internalType": "uint256",
          "name": "",
          "type": "uint256"
        }
      ],
      "stateMutability": "view",
      "type": "function"
    },
    {
      "inputs": [
        {
          "internalType": "uint128",
          "name": "_DataBatchId",
          "type": "uint128"
        }
      ],
      "name": "getIPFShashesForBatch",
      "outputs": [
        {
          "internalType": "string[]",
          "name": "",
          "type": "string[]"
        }
      ],
      "stateMutability": "view",
      "type": "function"
    },
    {
      "inputs": [
        {
          "internalType": "address",
          "name": "_voter",
          "type": "address"
        },
        {
          "internalType": "uint256",
          "name": "_numTokens",
          "type": "uint256"
        },
        {
          "internalType": "uint128",
          "name": "_DataBatchId",
          "type": "uint128"
        }
      ],
      "name": "getInsertPointForNumTokens",
      "outputs": [
        {
          "internalType": "uint256",
          "name": "prevNode",
          "type": "uint256"
        }
      ],
      "stateMutability": "view",
      "type": "function"
    },
    {
      "inputs": [],
      "name": "getItemCounter",
      "outputs": [
        {
          "internalType": "uint256",
          "name": "Counter",
          "type": "uint256"
        }
      ],
      "stateMutability": "view",
      "type": "function"
    },
    {
      "inputs": [],
      "name": "getLastAllocatedBatchId",
      "outputs": [
        {
          "internalType": "uint256",
          "name": "LastAllocatedBatchId",
          "type": "uint256"
        }
      ],
      "stateMutability": "view",
      "type": "function"
    },
    {
      "inputs": [],
      "name": "getLastBatchId",
      "outputs": [
        {
          "internalType": "uint256",
          "name": "LastBatchId",
          "type": "uint256"
        }
      ],
      "stateMutability": "view",
      "type": "function"
    },
    {
      "inputs": [],
      "name": "getLastCheckedBatchId",
      "outputs": [
        {
          "internalType": "uint256",
          "name": "LastCheckedBatchId",
          "type": "uint256"
        }
      ],
      "stateMutability": "view",
      "type": "function"
    },
    {
      "inputs": [],
      "name": "getLastDataId",
      "outputs": [
        {
          "internalType": "uint256",
          "name": "DataId",
          "type": "uint256"
        }
      ],
      "stateMutability": "view",
      "type": "function"
    },
    {
      "inputs": [
        {
          "internalType": "address",
          "name": "_voter",
          "type": "address"
        }
      ],
      "name": "getLastNode",
      "outputs": [
        {
          "internalType": "uint128",
          "name": "DataID",
          "type": "uint128"
        }
      ],
      "stateMutability": "view",
      "type": "function"
    },
    {
      "inputs": [
        {
          "internalType": "address",
          "name": "_voter",
          "type": "address"
        }
      ],
      "name": "getLockedTokens",
      "outputs": [
        {
          "internalType": "uint256",
          "name": "numTokens",
          "type": "uint256"
        }
      ],
      "stateMutability": "view",
      "type": "function"
    },
    {
      "inputs": [
        {
          "internalType": "uint128",
          "name": "_DataBatchId_a",
          "type": "uint128"
        },
        {
          "internalType": "uint128",
          "name": "_DataBatchId_b",
          "type": "uint128"
        }
      ],
      "name": "getMultiBatchIPFShashes",
      "outputs": [
        {
          "internalType": "string[]",
          "name": "",
          "type": "string[]"
        }
      ],
      "stateMutability": "view",
      "type": "function"
    },
    {
      "inputs": [
        {
          "internalType": "address",
          "name": "_voter",
          "type": "address"
        },
        {
          "internalType": "uint128",
          "name": "_DataBatchId",
          "type": "uint128"
        },
        {
          "internalType": "uint256",
          "name": "_salt",
          "type": "uint256"
        }
      ],
      "name": "getNumPassingTokens",
      "outputs": [
        {
          "internalType": "uint256",
          "name": "numTokens",
          "type": "uint256"
        }
      ],
      "stateMutability": "view",
      "type": "function"
    },
    {
      "inputs": [
        {
          "internalType": "address",
          "name": "_voter",
          "type": "address"
        },
        {
          "internalType": "uint128",
          "name": "_DataBatchId",
          "type": "uint128"
        }
      ],
      "name": "getNumTokens",
      "outputs": [
        {
          "internalType": "uint256",
          "name": "numTokens",
          "type": "uint256"
        }
      ],
      "stateMutability": "view",
      "type": "function"
    },
    {
      "inputs": [],
      "name": "getPeriodItemCount",
      "outputs": [
        {
          "internalType": "uint256",
          "name": "",
          "type": "uint256"
        }
      ],
      "stateMutability": "view",
      "type": "function"
    },
    {
      "inputs": [],
      "name": "getRandom",
      "outputs": [
        {
          "internalType": "uint256",
          "name": "",
          "type": "uint256"
        }
      ],
      "stateMutability": "view",
      "type": "function"
    },
    {
      "inputs": [],
      "name": "getRejectedBatchesCount",
      "outputs": [
        {
          "internalType": "uint128",
          "name": "count",
          "type": "uint128"
        }
      ],
      "stateMutability": "view",
      "type": "function"
    },
    {
      "inputs": [],
      "name": "getSeed",
      "outputs": [
        {
          "internalType": "bytes32",
          "name": "addr",
          "type": "bytes32"
        }
      ],
      "stateMutability": "view",
      "type": "function"
    },
    {
      "inputs": [
        {
          "internalType": "uint128",
          "name": "_DataBatchId",
          "type": "uint128"
        }
      ],
      "name": "getSubmittedFilesForBatch",
      "outputs": [
        {
          "internalType": "string[]",
          "name": "",
          "type": "string[]"
        }
      ],
      "stateMutability": "view",
      "type": "function"
    },
    {
      "inputs": [
        {
          "internalType": "address",
          "name": "user_",
          "type": "address"
        }
      ],
      "name": "getSystemTokenBalance",
      "outputs": [
        {
          "internalType": "uint256",
          "name": "tokens",
          "type": "uint256"
        }
      ],
      "stateMutability": "view",
      "type": "function"
    },
    {
      "inputs": [],
      "name": "getTxCounter",
      "outputs": [
        {
          "internalType": "uint256",
          "name": "Counter",
          "type": "uint256"
        }
      ],
      "stateMutability": "view",
      "type": "function"
    },
    {
      "inputs": [
        {
          "internalType": "address",
          "name": "user_",
          "type": "address"
        }
      ],
      "name": "getUserPeriodSpotCount",
      "outputs": [
        {
          "internalType": "uint256",
          "name": "",
          "type": "uint256"
        }
      ],
      "stateMutability": "view",
      "type": "function"
    },
    {
      "inputs": [
        {
          "internalType": "uint128",
          "name": "_DataBatchId",
          "type": "uint128"
        }
      ],
      "name": "getVotesForBatch",
      "outputs": [
        {
          "internalType": "uint128[]",
          "name": "",
          "type": "uint128[]"
        }
      ],
      "stateMutability": "view",
      "type": "function"
    },
    {
      "inputs": [
        {
          "internalType": "uint256",
          "name": "_terminationDate",
          "type": "uint256"
        }
      ],
      "name": "isExpired",
      "outputs": [
        {
          "internalType": "bool",
          "name": "expired",
          "type": "bool"
        }
      ],
      "stateMutability": "view",
      "type": "function"
    },
    {
      "inputs": [
        {
          "internalType": "address",
          "name": "_worker",
          "type": "address"
        }
      ],
      "name": "isInAvailableWorkers",
      "outputs": [
        {
          "internalType": "bool",
          "name": "",
          "type": "bool"
        }
      ],
      "stateMutability": "view",
      "type": "function"
    },
    {
      "inputs": [
        {
          "internalType": "address",
          "name": "_worker",
          "type": "address"
        }
      ],
      "name": "isInBusyWorkers",
      "outputs": [
        {
          "internalType": "bool",
          "name": "",
          "type": "bool"
        }
      ],
      "stateMutability": "view",
      "type": "function"
    },
    {
      "inputs": [
        {
          "internalType": "uint128",
          "name": "_DataBatchId",
          "type": "uint128"
        }
      ],
      "name": "isPassed",
      "outputs": [
        {
          "internalType": "bool",
          "name": "passed",
          "type": "bool"
        }
      ],
      "stateMutability": "view",
      "type": "function"
    },
    {
      "inputs": [
        {
          "internalType": "uint128",
          "name": "_DataBatchId",
          "type": "uint128"
        },
        {
          "internalType": "address",
          "name": "_worker",
          "type": "address"
        }
      ],
      "name": "isWorkerAllocatedToBatch",
      "outputs": [
        {
          "internalType": "bool",
          "name": "",
          "type": "bool"
        }
      ],
      "stateMutability": "view",
      "type": "function"
    },
    {
      "inputs": [
        {
          "internalType": "address",
          "name": "_worker",
          "type": "address"
        }
      ],
      "name": "isWorkerRegistered",
      "outputs": [
        {
          "internalType": "bool",
          "name": "passed",
          "type": "bool"
        }
      ],
      "stateMutability": "view",
      "type": "function"
    },
    {
      "inputs": [],
      "name": "owner",
      "outputs": [
        {
          "internalType": "address",
          "name": "",
          "type": "address"
        }
      ],
      "stateMutability": "view",
      "type": "function"
    },
    {
      "inputs": [],
      "name": "paused",
      "outputs": [
        {
          "internalType": "bool",
          "name": "",
          "type": "bool"
        }
      ],
      "stateMutability": "view",
      "type": "function"
    },
    {
      "inputs": [
        {
          "internalType": "uint256",
          "name": "k",
          "type": "uint256"
        },
        {
          "internalType": "uint256",
          "name": "N",
          "type": "uint256"
        }
      ],
      "name": "random_selection",
      "outputs": [
        {
          "internalType": "uint256[]",
          "name": "",
          "type": "uint256[]"
        }
      ],
      "stateMutability": "view",
      "type": "function"
    },
    {
      "inputs": [
        {
          "internalType": "uint128",
          "name": "_DataBatchId",
          "type": "uint128"
        }
      ],
      "name": "remainingCommitDuration",
      "outputs": [
        {
          "internalType": "uint256",
          "name": "remainingTime",
          "type": "uint256"
        }
      ],
      "stateMutability": "view",
      "type": "function"
    },
    {
      "inputs": [
        {
          "internalType": "uint128",
          "name": "_DataBatchId",
          "type": "uint128"
        }
      ],
      "name": "remainingRevealDuration",
      "outputs": [
        {
          "internalType": "uint256",
          "name": "remainingTime",
          "type": "uint256"
        }
      ],
      "stateMutability": "view",
      "type": "function"
    },
    {
      "inputs": [],
      "name": "renounceOwnership",
      "outputs": [],
      "stateMutability": "nonpayable",
      "type": "function"
    },
    {
      "inputs": [
        {
          "internalType": "uint128",
          "name": "_DataBatchId",
          "type": "uint128"
        }
      ],
      "name": "rescueTokens",
      "outputs": [],
      "stateMutability": "nonpayable",
      "type": "function"
    },
    {
      "inputs": [
        {
          "internalType": "uint128[]",
          "name": "_DataBatchIDs",
          "type": "uint128[]"
        }
      ],
      "name": "rescueTokensInMultipleDatas",
      "outputs": [],
      "stateMutability": "nonpayable",
      "type": "function"
    },
    {
      "inputs": [
        {
          "internalType": "uint128",
          "name": "_DataBatchId",
          "type": "uint128"
        }
      ],
      "name": "revealPeriodActive",
      "outputs": [
        {
          "internalType": "bool",
          "name": "active",
          "type": "bool"
        }
      ],
      "stateMutability": "view",
      "type": "function"
    },
    {
      "inputs": [
        {
          "internalType": "uint128",
          "name": "_DataBatchId",
          "type": "uint128"
        }
      ],
      "name": "revealPeriodOver",
      "outputs": [
        {
          "internalType": "bool",
          "name": "active",
          "type": "bool"
        }
      ],
      "stateMutability": "view",
      "type": "function"
    },
    {
      "inputs": [
        {
          "internalType": "uint64",
          "name": "_DataBatchId",
          "type": "uint64"
        },
        {
          "internalType": "string",
          "name": "_clearIPFSHash",
          "type": "string"
        },
        {
          "internalType": "uint8",
          "name": "_clearVote",
          "type": "uint8"
        },
        {
          "internalType": "uint256",
          "name": "_salt",
          "type": "uint256"
        }
      ],
      "name": "revealSpotCheck",
      "outputs": [],
      "stateMutability": "nonpayable",
      "type": "function"
    },
    {
      "inputs": [
        {
          "internalType": "uint256",
          "name": "",
          "type": "uint256"
        }
      ],
      "name": "toUnregisterWorkers",
      "outputs": [
        {
          "internalType": "address",
          "name": "",
          "type": "address"
        }
      ],
      "stateMutability": "view",
      "type": "function"
    },
    {
      "inputs": [
        {
          "internalType": "bool",
          "name": "toggle_",
          "type": "bool"
        }
      ],
      "name": "toggleForceValidateBatchFile",
      "outputs": [],
      "stateMutability": "nonpayable",
      "type": "function"
    },
    {
      "inputs": [
        {
          "internalType": "bool",
          "name": "toggle_",
          "type": "bool"
        }
      ],
      "name": "toggleRequiredStaking",
      "outputs": [],
      "stateMutability": "nonpayable",
      "type": "function"
    },
    {
      "inputs": [],
      "name": "toggleSystemPause",
      "outputs": [],
      "stateMutability": "nonpayable",
      "type": "function"
    },
    {
      "inputs": [
        {
          "internalType": "bool",
          "name": "toggle_",
          "type": "bool"
        }
      ],
      "name": "toggleTriggerSpotData",
      "outputs": [],
      "stateMutability": "nonpayable",
      "type": "function"
    },
    {
      "inputs": [
        {
          "internalType": "bool",
          "name": "toggle_",
          "type": "bool"
        }
      ],
      "name": "toggleValidateLastReveal",
      "outputs": [],
      "stateMutability": "nonpayable",
      "type": "function"
    },
    {
      "inputs": [],
      "name": "token",
      "outputs": [
        {
          "internalType": "contract IERC20",
          "name": "",
          "type": "address"
        }
      ],
      "stateMutability": "view",
      "type": "function"
    },
    {
      "inputs": [
        {
          "internalType": "address",
          "name": "newOwner",
          "type": "address"
        }
      ],
      "name": "transferOwnership",
      "outputs": [],
      "stateMutability": "nonpayable",
      "type": "function"
    },
    {
      "inputs": [],
      "name": "updateGlobalSpotFlow",
      "outputs": [],
      "stateMutability": "nonpayable",
      "type": "function"
    },
    {
      "inputs": [
        {
          "internalType": "bool",
          "name": "state_",
          "type": "bool"
        },
        {
          "internalType": "uint16",
          "name": "divider_",
          "type": "uint16"
        }
      ],
      "name": "updateInstantRevealRewards",
      "outputs": [],
      "stateMutability": "nonpayable",
      "type": "function"
    },
    {
      "inputs": [
        {
          "internalType": "bool",
          "name": "state_",
          "type": "bool"
        },
        {
          "internalType": "uint16",
          "name": "divider_",
          "type": "uint16"
        }
      ],
      "name": "updateInstantSpotRewards",
      "outputs": [],
      "stateMutability": "nonpayable",
      "type": "function"
    },
    {
      "inputs": [],
      "name": "updateItemCount",
      "outputs": [],
      "stateMutability": "nonpayable",
      "type": "function"
    },
    {
      "inputs": [
        {
          "internalType": "uint16",
          "name": "MaxPendingDataBatchCount_",
          "type": "uint16"
        }
      ],
      "name": "updateMaxPendingDataBatch",
      "outputs": [],
      "stateMutability": "nonpayable",
      "type": "function"
    },
    {
      "inputs": [
        {
          "internalType": "uint16",
          "name": "new_limit_",
          "type": "uint16"
        }
      ],
      "name": "updateMaximumBytesTarget",
      "outputs": [],
      "stateMutability": "nonpayable",
      "type": "function"
    },
    {
      "inputs": [
        {
          "internalType": "address",
          "name": "addr",
          "type": "address"
        }
      ],
      "name": "updateParametersManager",
      "outputs": [],
      "stateMutability": "nonpayable",
      "type": "function"
    },
    {
      "inputs": [
        {
          "internalType": "uint16",
          "name": "file_size_",
          "type": "uint16"
        }
      ],
      "name": "updateSpotFileSize",
      "outputs": [],
      "stateMutability": "nonpayable",
      "type": "function"
    },
    {
      "inputs": [
        {
          "internalType": "address",
          "name": "user_",
          "type": "address"
        }
      ],
      "name": "updateUserSpotFlow",
      "outputs": [],
      "stateMutability": "nonpayable",
      "type": "function"
    },
    {
      "inputs": [
        {
          "internalType": "uint128",
          "name": "_prevID",
          "type": "uint128"
        },
        {
          "internalType": "uint128",
          "name": "_nextID",
          "type": "uint128"
        },
        {
          "internalType": "address",
          "name": "_voter",
          "type": "address"
        },
        {
          "internalType": "uint256",
          "name": "_numTokens",
          "type": "uint256"
        }
      ],
      "name": "validPosition",
      "outputs": [
        {
          "internalType": "bool",
          "name": "APPROVED",
          "type": "bool"
        }
      ],
      "stateMutability": "view",
      "type": "function"
    },
    {
      "inputs": [
        {
          "internalType": "uint256",
          "name": "_numTokens",
          "type": "uint256"
        }
      ],
      "name": "withdrawVotingRights",
      "outputs": [],
      "stateMutability": "nonpayable",
      "type": "function"
    }
  ],
  "bytecode": "0x608060405260008054600160a81b600160e81b0319168155600160801b602f5570010000000000000000000000000000000160305560016031556032819055603380546001600160801b0319169055603481905560358190556036556101946037556305f5e100603855603980546c6403e8000200050101010000006001600160701b0319909116179055603b805463ffffffff60a01b191663ffffffff60a01b179055348015620000b057600080fd5b506040516200f4b23803806200f4b2833981016040819052620000d39162000175565b620000de3362000125565b6000805460ff60a01b191690556001600160a01b038116620000ff57600080fd5b603a80546001600160a01b0319166001600160a01b0392909216919091179055620001a7565b600080546001600160a01b038381166001600160a01b0319831681178455604051919092169283917f8be0079c531659141344cd1fd0a4f28419497f9722a3daafe3b4186f6b6457e09190a35050565b6000602082840312156200018857600080fd5b81516001600160a01b0381168114620001a057600080fd5b9392505050565b61f2fb80620001b76000396000f3fe608060405234801561001057600080fd5b506004361061088d5760003560e01c80637ad2f09511610463578063b61568721161024c578063e23fcd1a11610146578063f4cdfcc4116100ce578063fc0c546a11610092578063fc0c546a146115f0578063fca4956314611603578063fcbe89c914611616578063fd08c35714611636578063ff43de9d1461164957600080fd5b8063f4cdfcc41461159d578063f5ae7c7d146115b0578063f716596d146115b8578063f80a23fd146115c0578063f96305f0146115df57600080fd5b8063e9a12fd711610115578063e9a12fd714611534578063eb1322ff14611554578063ef4fcdad14611567578063f2d9e74d14611581578063f2fde38b1461158a57600080fd5b8063e23fcd1a146114cc578063e59d0289146114e1578063e798a7da146114ee578063e7b1d43c1461152157600080fd5b8063cdf46a78116101d4578063d58f575c11610198578063d58f575c14611466578063d6b0206c14611480578063d9548e5314611493578063de1faf77146114a6578063e0b8bfeb146114b957600080fd5b8063cdf46a78146113e8578063ce95fd82146113fb578063d0b28e7d1461140e578063d0d41def14611421578063d27379051461145357600080fd5b8063bf9fe1611161021b578063bf9fe1611461138f578063c46f17d0146113a2578063c854d995146113ba578063c884ec9f146113cd578063cb279389146113e057600080fd5b8063b615687214611343578063b8f011b314611356578063bc84829514611369578063bda1e6091461137c57600080fd5b80639a1cbfd31161035d578063a9057790116102e5578063b1a2e0be116102a9578063b1a2e0be146112e2578063b1cf4a7e146112f5578063b1d7ea9814611308578063b4676b9714611328578063b5485f621461133b57600080fd5b8063a905779014611281578063aacc5a1714611294578063ade7e65a1461129c578063ae4c3877146112bc578063b10aa584146112cf57600080fd5b8063a1563cc31161032c578063a1563cc314611229578063a1b6b5b714611232578063a23226d41461124a578063a350715a1461125d578063a511dba01461127057600080fd5b80639a1cbfd3146111cc5780639c867cf4146111df5780639d6e3f96146111f25780639f5380521461120557600080fd5b80638746ff8a116103eb5780638ccb7eec116103af5780638ccb7eec1461114f5780638da5cb5b1461117b578063955122ef1461118c57806396964b1e1461119f5780639769d846146111b257600080fd5b80638746ff8a146110145780638820f5b4146110275780638bf8a3381461103a5780638c89d0271461104d5780638cb4756d1461114657600080fd5b8063815ce74711610432578063815ce74714610fca578063821aa8c014610fd25780638356443a14610fe55780638473850b14610ff85780638480a2211461100b57600080fd5b80637ad2f09514610f7c5780637ae3d59b14610f8f5780637f30c9b314610fa25780637f9510a214610fc257600080fd5b80633f7e62f3116106855780635b0bca771161057f5780636b4a901b11610507578063763a39f2116104cb578063763a39f214610f1757806378b3decb14610f1f578063794cd05a14610f325780637960d1ca14610f4557806379dd459714610f6957600080fd5b80636b4a901b14610eab5780636cfaeff414610ebe5780637074222b14610ed1578063715018a614610efa57806375b7536c14610f0257600080fd5b80636554a3751161054e5780636554a37514610e625780636917def314610e7557806369d0433b14610e8857806369fef28314610e905780636b2d95d414610e9857600080fd5b80635b0bca7714610e225780635c975abb14610e35578063607d5efa14610e47578063628516ae14610e4f57600080fd5b80634a45cd841161060d578063531f890a116105d1578063531f890a14610dd957806353bf27f114610de157806355adf7bf14610de9578063576a554314610dfc57806359da7baf14610e0f57600080fd5b80634a45cd8414610d5d5780634edad84414610d8e5780634ffd734314610da15780635102183314610db5578063515535e814610dc857600080fd5b806345e8450e1161065457806345e8450e14610cfc57806345feae8914610d0f57806347fe2d2014610d235780634852e2f014610d3b57806349ad1d0514610d5557600080fd5b80633f7e62f314610c9b578063413b90f714610cc3578063427fa1d214610cd657806342ed24ed14610ce957600080fd5b80632dbfca6a116107965780633465a7881161071e57806339e7357c116106e257806339e7357c14610c125780633aed0be514610c1a5780633c062cc814610c4c5780633de4b29314610c7f5780633f2a918014610c8857600080fd5b80633465a78814610bac5780633538af8214610bbf57806336b99f7514610bd257806337527b4d14610bf757806338eaf56514610bff57600080fd5b806331e2f2851161076557806331e2f28514610abd5780633287d91f14610add578063333fa62614610af057806334522fbd14610b86578063345b0f5114610b9957600080fd5b80632dbfca6a14610a565780632eaff49914610a695780632f66157514610a7f5780632ff0312f14610a9257600080fd5b8063113f10d2116108195780631aca6412116107e85780631aca6412146109ff578063258cc84314610a12578063275c259014610a33578063289bd48214610a3b5780632a25c7c914610a4357600080fd5b8063113f10d2146109b6578063154fd39b146109c957806316860ec5146109e45780631a0a890c146109ec57600080fd5b80630e4498c2116108605780630e4498c2146109055780630e6661a7146109255780630f91f0b2146109505780630fb69aa7146109765780630fe05b011461098957600080fd5b806305957623146108925780630816692c146108a7578063086eafa3146108d05780630a7c5dd0146108f2575b600080fd5b6108a56108a036600461df83565b61165c565b005b6108ba6108b536600461dfb5565b61170b565b6040516108c7919061e02a565b60405180910390f35b6039546108e290610100900460ff1681565b60405190151581526020016108c7565b6108a561090036600461dfb5565b61191b565b61091861091336600461e08c565b611aaa565b6040516108c7919061e0ae565b602f54610938906001600160801b031681565b6040516001600160801b0390911681526020016108c7565b61096361095e36600461dfb5565b611c30565b6040516108c7979695949392919061e127565b6108a561098436600461e1b4565b611e21565b61099c61099736600461dfb5565b611e4b565b6040516108c79e9d9c9b9a9998979695949392919061e1cf565b6108a56109c436600461e28d565b611f81565b6031546001600160801b03165b6040519081526020016108c7565b6108a56120a5565b6108a56109fa36600461e32f565b612299565b6109d6610a0d36600461e4f9565b6122d9565b610a25610a2036600461e28d565b613748565b6040516108c792919061e65f565b6108a5613a63565b6109d6613c92565b6108a5610a5136600461dfb5565b613ce9565b6108e2610a6436600461df83565b613f75565b6039546108e29065010000000000900460ff1681565b6108e2610a8d36600461dfb5565b61416b565b610aa5610aa036600461e681565b6141c4565b6040516001600160a01b0390911681526020016108c7565b6109d6610acb36600461df83565b60266020526000908152604090205481565b6108e2610aeb36600461dfb5565b6141ee565b610b48610afe36600461df83565b60276020526000908152604090205460ff808216916101008104821691620100008204169063ffffffff63010000008204811691600160381b8104821691600160581b9091041686565b60408051961515875294151560208701529215159385019390935263ffffffff908116606085015291821660808401521660a082015260c0016108c7565b6108a5610b9436600461e6a8565b61425b565b6108e2610ba736600461dfb5565b6142a5565b6108a5610bba36600461dfb5565b614353565b610aa5610bcd36600461e681565b614384565b610be5610be036600461e6dd565b614394565b6040516108c79695949392919061e70b565b6037546109d6565b6109d6610c0d36600461e762565b6144f9565b6109d6614537565b6108e2610c2836600461df83565b6001600160a01b031660009081526027602052604090205462010000900460ff1690565b610c5f610c5a36600461e681565b614554565b604080516001600160801b039384168152929091166020830152016108c7565b6109d660365481565b6108e2610c9636600461dfb5565b61457f565b603954610cb090600160501b900461ffff1681565b60405161ffff90911681526020016108c7565b610c5f610cd136600461e780565b614801565b610938610ce436600461df83565b61483a565b6109d6610cf736600461dfb5565b6148e0565b6108e2610d0a36600461dfb5565b614960565b6039546108e290600160201b900460ff1681565b603054600160801b90046001600160801b03166109d6565b60325461093890600160801b90046001600160801b031681565b6108a56149e6565b6108e2610d6b36600461df83565b6001600160a01b0316600090815260276020526040902054610100900460ff1690565b6108a5610d9c36600461dfb5565b614a12565b6039546108e2906301000000900460ff1681565b6108e2610dc336600461dfb5565b614b93565b6030546001600160801b03166109d6565b6108a5614bb8565b602b546109d6565b6109d6610df736600461e7ac565b614bf1565b6108a5610e0a36600461df83565b614dd5565b610c5f610e1d36600461e681565b614fd4565b6109d6610e3036600461e762565b614fe4565b600054600160a01b900460ff166108e2565b6108a5615039565b6108e2610e5d36600461e7ee565b61520b565b6108a5610e7036600461e83f565b615255565b6108a5610e8336600461e1b4565b615dd5565b602e546109d6565b6108a5615dff565b6109d6610ea636600461df83565b615e38565b6108ba610eb936600461dfb5565b615e47565b6108e2610ecc36600461dfb5565b6161a1565b6109d6610edf36600461df83565b6001600160a01b031660009081526026602052604090205490565b6108a5616214565b603954610cb090600160601b900461ffff1681565b602c546109d6565b6109d6610f2d36600461e762565b616226565b6108a5610f4036600461df83565b61625d565b610cb0610f5336600461dfb5565b60296020526000908152604090205461ffff1681565b6109d6610f7736600461e762565b6162b0565b6108e2610f8a36600461e762565b6162e6565b6108a5610f9d36600461e89c565b616341565b610fb5610fb036600461dfb5565b616365565b6040516108c7919061e8b9565b6109d66165fa565b6109d6616611565b610aa5610fe036600461e681565b616662565b6108a5610ff336600461e89c565b616672565b603054610938906001600160801b031681565b6109d660345481565b610aa561102236600461e780565b616698565b6109d661103536600461dfb5565b616b04565b6109d661104836600461e964565b616b5a565b6110da61105b36600461df83565b602460205260009081526040902080546001909101546001600160801b038216916001600160401b03600160801b80830482169361ffff600160c01b808604919091169460ff600160d01b8204811695600160d81b8304821695600160e01b9093049091169380821693600160401b820483169382048316929104168a565b604080516001600160801b03909b168b526001600160401b03998a1660208c015261ffff909816978a01979097529415156060890152921515608088015290151560a0870152841660c0860152831660e0850152821661010084015216610120820152610140016108c7565b6109d660385481565b6108e261115d36600461df83565b6001600160a01b031660009081526027602052604090205460ff1690565b6000546001600160a01b0316610aa5565b6108a561119a36600461df83565b616b9b565b6108ba6111ad36600461e28d565b616c1c565b60315461093890600160801b90046001600160801b031681565b6108a56111da36600461e89c565b6171f0565b6108ba6111ed36600461e28d565b617212565b6109d661120036600461df83565b6173dc565b610cb061121336600461dfb5565b602a6020526000908152604090205461ffff1681565b6109d660375481565b603154600160801b90046001600160801b0316610938565b6109d661125836600461dfb5565b617442565b603254610938906001600160801b031681565b602f546001600160801b03166109d6565b6108e261128f36600461e9aa565b6174b0565b6109d6617516565b6112af6112aa36600461dfb5565b6175df565b6040516108c7919061ea03565b6108e26112ca36600461e762565b617785565b610aa56112dd36600461e681565b6177e5565b6108e26112f036600461df83565b6177f5565b6109d661130336600461e08c565b617902565b61131b61131636600461e08c565b61791e565b6040516108c7919061ea16565b6108a561133636600461ea4e565b617c64565b6108e26183eb565b6108a561135136600461dfb5565b6183f6565b61131b61136436600461e08c565b6185e4565b610aa561137736600461eabf565b6185fa565b6108a561138a36600461e89c565b618632565b6109d661139d36600461dfb5565b61864d565b603954610cb0906601000000000000900461ffff1681565b6108ba6113c836600461dfb5565b6186a3565b6108a56113db36600461dfb5565b6188bf565b6036546109d6565b6039546108e29062010000900460ff1681565b6108a561140936600461e1b4565b618924565b6108a561141c36600461e6a8565b618935565b60005461143b90600160a81b90046001600160401b031681565b6040516001600160401b0390911681526020016108c7565b6108ba61146136600461dfb5565b618982565b602f5461093890600160801b90046001600160801b031681565b603154610938906001600160801b031681565b6108e26114a136600461e681565b421190565b6108e26114b436600461e6dd565b618cca565b6108a56114c736600461e28d565b618da1565b603954610cb090600160401b900461ffff1681565b6039546108e29060ff1681565b6108e26114fc36600461df83565b6001600160a01b0316600090815260246020526040902054600160d01b900460ff1690565b6108a561152f36600461e681565b61924e565b61154761154236600461dfb5565b619508565b6040516108c7919061eadd565b603354610938906001600160801b031681565b60305461093890600160801b90046001600160801b031681565b6109d660355481565b6108a561159836600461df83565b6195c7565b6109d66115ab36600461eaf0565b61963d565b6035546109d6565b6108a5619652565b33600090815260246020526040902054600160d01b900460ff166108e2565b6032546001600160801b0316610938565b603a54610aa5906001600160a01b031681565b6109d661161136600461df83565b619c36565b61162961162436600461dfb5565b619d34565b6040516108c7919061eb34565b6109d661164436600461ec64565b619f75565b603b54610aa5906001600160a01b031681565b61166461a145565b6001600160a01b0381166116b75760405162461bcd60e51b815260206004820152601560248201527461646472206d757374206265206e6f6e207a65726f60581b60448201526064015b60405180910390fd5b603b80546001600160a01b0319166001600160a01b0383169081179091556040519081527f1c57c3710c0570883580d2f83ee6a873d61b5af334741eea1c0cc397899e1d029060200160405180910390a150565b606061171682614b93565b6117325760405162461bcd60e51b81526004016116ae9061eca5565b6001600160801b03821660009081526028602090815260408083208054825181850281018501909352808352919290919083018282801561179c57602002820191906000526020600020905b81546001600160a01b0316815260019091019060200180831161177e575b50505050509050600081516001600160401b038111156117be576117be61e2c6565b6040519080825280602002602001820160405280156117f157816020015b60608152602001906001900390816117dc5790505b50905060005b8251811015611913576001600160801b0385166000908152601f60205260408120845190919085908490811061182f5761182f61ecdc565b60200260200101516001600160a01b03166001600160a01b0316815260200190815260200160002060010180546118659061ecf2565b80601f01602080910402602001604051908101604052809291908181526020018280546118919061ecf2565b80156118de5780601f106118b3576101008083540402835291602001916118de565b820191906000526020600020905b8154815290600101906020018083116118c157829003601f168201915b50505050508282815181106118f5576118f561ecdc565b6020026020010181905250808061190b9061ed3d565b9150506117f7565b509392505050565b603b546001600160a01b03166119435760405162461bcd60e51b81526004016116ae9061ed58565b611955816001600160801b031661a19f565b61195d617516565b60345414611a9f5760005b816001600160801b0316816001600160801b03161015611a9d576031546001600160801b031660009081526022602052604081205460ff600160f01b909104161515600114801590611a415750603b60009054906101000a90046001600160a01b03166001600160a01b031663bd40ef4c6040518163ffffffff1660e01b815260040160206040518083038186803b158015611a0357600080fd5b505afa158015611a17573d6000803e3d6000fd5b505050506040513d601f19601f82011682018060405250810190611a3b919061ed8f565b602b5410155b8015611a6e57506031546001600160801b0316600090815260226020526040902054600160e01b900460ff165b15611a7f57611a7b61a2cf565b5060015b80611a8a5750611a9d565b5080611a958161eda1565b915050611968565b505b611aa761abff565b50565b606082821015611af05760405162461bcd60e51b8152602060048201526011602482015270205f42206d757374206265203e3d205f4160781b60448201526064016116ae565b602e54611aff9060019061edc8565b821115611b455760405162461bcd60e51b815260206004820152601460248201527320425f206973206f7574206f6620626f756e647360601b60448201526064016116ae565b6000611b51848461edc8565b611b5c90600161eddf565b90506000816001600160401b03811115611b7857611b7861e2c6565b604051908082528060200260200182016040528015611ba1578160200160208202803683370190505b50905060005b82811015611c2557602e611bbb878361eddf565b81548110611bcb57611bcb61ecdc565b9060005260206000200160009054906101000a90046001600160a01b0316828281518110611bfb57611bfb61ecdc565b6001600160a01b039092166020928302919091019091015280611c1d8161ed3d565b915050611ba7565b509150505b92915050565b6021602052600090815260409020805460018201546002830180546001600160401b0380851695600160401b860490911694600160801b900460ff16936001600160a01b0316929091611c829061ecf2565b80601f0160208091040260200160405190810160405280929190818152602001828054611cae9061ecf2565b8015611cfb5780601f10611cd057610100808354040283529160200191611cfb565b820191906000526020600020905b815481529060010190602001808311611cde57829003601f168201915b505050505090806003018054611d109061ecf2565b80601f0160208091040260200160405190810160405280929190818152602001828054611d3c9061ecf2565b8015611d895780601f10611d5e57610100808354040283529160200191611d89565b820191906000526020600020905b815481529060010190602001808311611d6c57829003601f168201915b505050505090806004018054611d9e9061ecf2565b80601f0160208091040260200160405190810160405280929190818152602001828054611dca9061ecf2565b8015611e175780601f10611dec57610100808354040283529160200191611e17565b820191906000526020600020905b815481529060010190602001808311611dfa57829003601f168201915b5050505050905087565b611e2961a145565b6039805461ffff909216600160501b0261ffff60501b19909216919091179055565b6022602052600090815260409020805460018201546002830180546001600160801b0384169463ffffffff600160801b8604811695600160a01b81049091169461ffff600160c01b8304811695600160d01b840482169560ff600160e01b8604811696600160e81b8704821696600160f01b9004909116948085169462010000820416936001600160401b03600160201b8304811694600160601b909304169291611ef59061ecf2565b80601f0160208091040260200160405190810160405280929190818152602001828054611f219061ecf2565b8015611f6e5780601f10611f4357610100808354040283529160200191611f6e565b820191906000526020600020905b815481529060010190602001808311611f5157829003601f168201915b5050506003909301549192505060ff168e565b611f8961a145565b806001600160801b0316826001600160801b031610611fea5760405162461bcd60e51b815260206004820181905260248201527f73706f74496e64657841206d757374206265203c3d2073706f74496e6465784260448201526064016116ae565b815b816001600160801b0316816001600160801b031610156120a0576001600160801b038116600090815260216020526040812080546001600160881b03191681556001810180546001600160a01b03191690559061204c600283018261de72565b61205a60038301600061de72565b61206860048301600061de72565b5061207790506020600261edf7565b60376000828254612088919061edc8565b909155508190506120988161eda1565b915050611fec565b505050565b603b546001600160a01b03166120cd5760405162461bcd60e51b81526004016116ae9061ed58565b60006120db6001600f61edc8565b90506000601082600f81106120f2576120f261ecdc565b0154603b54604080516307bc663b60e11b815290516001600160801b0390931693506001600160a01b0390911691630f78cc7691600480820192602092909190829003018186803b15801561214657600080fd5b505afa15801561215a573d6000803e3d6000fd5b505050506040513d601f19601f8201168201806040525081019061217e919061ed8f565b612191826001600160401b03421661edc8565b11156122955760005b6121a66001600f61edc8565b8110156122265760106121ba82600161eddf565b600f81106121ca576121ca61ecdc565b01601082600f81106121de576121de61ecdc565b8254910180546001600160801b0319166001600160801b0392831690811782559254600160801b9081900490921690910290911790558061221e8161ed3d565b91505061219a565b50426001600160401b0316601083600f81106122445761224461ecdc565b0180546001600160801b0319166001600160801b03929092169190911790556000601083600f81106122785761227861ecdc565b0180546001600160801b03928316600160801b0292169190911790555b5050565b60005b8151811015612295576122c78282815181106122ba576122ba61ecdc565b6020026020010151613ce9565b806122d18161ed3d565b91505061229c565b60006122e361ae8a565b603b546001600160a01b031661230b5760405162461bcd60e51b81526004016116ae9061ed58565b603b60009054906101000a90046001600160a01b03166001600160a01b0316634e87c5a86040518163ffffffff1660e01b815260040160206040518083038186803b15801561235957600080fd5b505afa15801561236d573d6000803e3d6000fd5b505050506040513d601f19601f82011682018060405250810190612391919061ee16565b6123f05760405162461bcd60e51b815260206004820152602a60248201527f53706f7474696e67206973206e6f742063757272656e746c7920656e61626c656044820152693210313c9027bbb732b960b11b60648201526084016116ae565b855184146124505760405162461bcd60e51b815260206004820152602760248201527f696e70757420617272617973206d757374206265206f662073616d65206c656e6044820152666774682028312960c81b60648201526084016116ae565b82518651146124b15760405162461bcd60e51b815260206004820152602760248201527f696e70757420617272617973206d757374206265206f662073616d65206c656e6044820152666774682028322960c81b60648201526084016116ae565b6124b9615039565b603b60009054906101000a90046001600160a01b03166001600160a01b031663b38e885e6040518163ffffffff1660e01b815260040160206040518083038186803b15801561250757600080fd5b505afa15801561251b573d6000803e3d6000fd5b505050506040513d601f19601f8201168201806040525081019061253f919061ed8f565b612547616611565b106125b35760405162461bcd60e51b815260206004820152603660248201527f476c6f62616c206c696d69743a206578636565646564206d61782064617461206044820152753832b9103437bab916103932ba393c903630ba32b91760511b60648201526084016116ae565b603b54604080516001624ee91360e11b0319815290516000926001600160a01b03169163ff622dda916004808301926020929190829003018186803b1580156125fb57600080fd5b505afa15801561260f573d6000803e3d6000fd5b505050506040513d601f19601f82011682018060405250810190612633919061ed8f565b905060006126413383616698565b905061264c81614dd5565b603054603b54604080516317c4a13160e31b815290516001600160801b03909316926001600160a01b039092169163be25098891600480820192602092909190829003018186803b1580156126a057600080fd5b505afa1580156126b4573d6000803e3d6000fd5b505050506040513d601f19601f820116820180604052508101906126d8919061ed8f565b6126e1836173dc565b1080156127795750603b60009054906101000a90046001600160a01b03166001600160a01b031663b38e885e6040518163ffffffff1660e01b815260040160206040518083038186803b15801561273757600080fd5b505afa15801561274b573d6000803e3d6000fd5b505050506040513d601f19601f8201168201806040525081019061276f919061ed8f565b612777616611565b105b80156127b25750603954603154600160501b90910461ffff16906127a6906001600160801b03168361ee33565b6001600160801b031611155b156136785760395460ff1615612813576001600160a01b038216600090815260266020526040902054831115612813576001600160a01b038216600090815260266020526040812054612805908561edc8565b9050612811818461aed7565b505b60005b8951816001600160401b031610156136765760008a826001600160401b0316815181106128455761284561ecdc565b6020026020010151905060008a8a846001600160401b031681811061286c5761286c61ecdc565b905060200281019061287e919061ee5b565b8080601f01602080910402602001604051908101604052809392919081815260200183838082843760009201829052508d51949550938d93506001600160401b0388169250821090506128d3576128d361ecdc565b602002602001015190506040518060e00160405280426001600160401b03168152602001826001600160401b03168152602001600060038111156129195761291961e0ef565b81523360208083019190915260408083018790526060830186905260809092018c9052602f546001600160801b031660009081526021825282902083518154928501516001600160401b03908116600160401b026001600160801b031990941691161791909117808255918301519091829060ff60801b1916600160801b8360038111156129a9576129a961e0ef565b021790555060608201516001820180546001600160a01b0319166001600160a01b03909216919091179055608082015180516129ef91600284019160209091019061deac565b5060a08201518051612a0b91600384019160209091019061deac565b5060c08201518051612a2791600484019160209091019061deac565b50612a38915060209050600261edf7565b60376000828254612a49919061eddf565b90915550506001600160801b038516600090815260226020908152604091829020603b548351634e8f956d60e11b8152935191936001600160a01b0390911692639d1f2ada92600480840193829003018186803b158015612aa957600080fd5b505afa158015612abd573d6000803e3d6000fd5b505050506040513d601f19601f82011682018060405250810190612ae1919061ed8f565b8154600160801b900463ffffffff161015612b375780546001908290601090612b18908490600160801b900463ffffffff1661eea1565b92506101000a81548163ffffffff021916908363ffffffff1602179055505b603b60009054906101000a90046001600160a01b03166001600160a01b0316639d1f2ada6040518163ffffffff1660e01b815260040160206040518083038186803b158015612b8557600080fd5b505afa158015612b99573d6000803e3d6000fd5b505050506040513d601f19601f82011682018060405250810190612bbd919061ed8f565b8154600160801b900463ffffffff1610612c6f57805461ffff60e01b1916600160e01b1781556030805460019190600090612c029084906001600160801b031661eec9565b82546101009290920a6001600160801b03818102199093169183160217909155602f5488821660009081526022602052604090208054919092166001600160801b031990911617905550612c586010600161eddf565b60376000828254612c69919061eddf565b90915550505b602f54612c86906001600160801b0316600161eec9565b602f80546001600160801b0319166001600160801b0392909216919091179055600180612cb481600f61edc8565b600f8110612cc457612cc461ecdc565b018054601090612ce5908490600160801b90046001600160801b031661eec9565b82546001600160801b039182166101009390930a9283029190920219909116179055506001600160a01b0387166000908152602560205260409020600181612d2e82600f61edc8565b600f8110612d3e57612d3e61ecdc565b018054601090612d5f908490600160801b90046001600160801b031661eec9565b92506101000a8154816001600160801b0302191690836001600160801b03160217905550603960049054906101000a900460ff161561326457603b5460408051632a49798160e11b8152905133926000926001600160a01b0390911691635492f30291600480820192602092909190829003018186803b158015612de257600080fd5b505afa158015612df6573d6000803e3d6000fd5b505050506040513d601f19601f82011682018060405250810190612e1a919061eeeb565b90506000603b60009054906101000a90046001600160a01b03166001600160a01b0316630855d1516040518163ffffffff1660e01b815260040160206040518083038186803b158015612e6c57600080fd5b505afa158015612e80573d6000803e3d6000fd5b505050506040513d601f19601f82011682018060405250810190612ea4919061eeeb565b90506000603b60009054906101000a90046001600160a01b03166001600160a01b03166304e76c8f6040518163ffffffff1660e01b815260040160206040518083038186803b158015612ef657600080fd5b505afa158015612f0a573d6000803e3d6000fd5b505050506040513d601f19601f82011682018060405250810190612f2e919061eeeb565b6040516308c0a84360e11b81526001600160a01b03868116600483015291925060009185169063118150869060240160206040518083038186803b158015612f7557600080fd5b505afa158015612f89573d6000803e3d6000fd5b505050506040513d601f19601f82011682018060405250810190612fad919061eeeb565b90506000603960069054906101000a900461ffff1661ffff16603b60009054906101000a90046001600160a01b03166001600160a01b03166330c0bb796040518163ffffffff1660e01b815260040160206040518083038186803b15801561301457600080fd5b505afa158015613028573d6000803e3d6000fd5b505050506040513d601f19601f8201168201806040525081019061304c919061ed8f565b61305790606461edf7565b613061919061ef1e565b90506000603960069054906101000a900461ffff1661ffff16603b60009054906101000a90046001600160a01b03166001600160a01b031663abb10b9b6040518163ffffffff1660e01b815260040160206040518083038186803b1580156130c857600080fd5b505afa1580156130dc573d6000803e3d6000fd5b505050506040513d601f19601f82011682018060405250810190613100919061ed8f565b61310b90606461edf7565b613115919061ef1e565b604051630db6cc8560e11b8152600481018290526001600160a01b0385811660248301526000604483015291925090861690631b6d990a90606401602060405180830381600087803b15801561316a57600080fd5b505af115801561317e573d6000803e3d6000fd5b505050506040513d601f19601f820116820180604052508101906131a2919061ee16565b6131be5760405162461bcd60e51b81526004016116ae9061ef32565b604051633832942560e21b8152600481018390526001600160a01b03848116602483015285169063e0ca509490604401602060405180830381600087803b15801561320857600080fd5b505af115801561321c573d6000803e3d6000fd5b505050506040513d601f19601f82011682018060405250810190613240919061ee16565b61325c5760405162461bcd60e51b81526004016116ae9061ef80565b505050505050505b603954610100900460ff161561360c5761327e60016188bf565b603b5460408051637b39b17f60e11b815290516000926001600160a01b03169163f67362fe916004808301926020929190829003018186803b1580156132c357600080fd5b505afa1580156132d7573d6000803e3d6000fd5b505050506040513d601f19601f820116820180604052508101906132fb919061eeeb565b604051633d18199160e11b8152600160048201529091506001600160a01b03821690637a30332290602401600060405180830381600087803b15801561334057600080fd5b505af1925050508015613351575060015b6133ac573d80801561337f576040519150601f19603f3d011682016040523d82523d6000602084013e613384565b606091505b5060008051602061f2a6833981519152816040516133a2919061eadd565b60405180910390a1505b603b5460408051637a0ec25b60e01b815290516000926001600160a01b031691637a0ec25b916004808301926020929190829003018186803b1580156133f157600080fd5b505afa158015613405573d6000803e3d6000fd5b505050506040513d601f19601f82011682018060405250810190613429919061eeeb565b604051633d18199160e11b8152600160048201529091506001600160a01b03821690637a30332290602401600060405180830381600087803b15801561346e57600080fd5b505af192505050801561347f575060015b6134da573d8080156134ad576040519150601f19603f3d011682016040523d82523d6000602084013e6134b2565b606091505b5060008051602061f2a6833981519152816040516134d0919061eadd565b60405180910390a1505b603b546040805163463444b760e01b815290516000926001600160a01b03169163463444b7916004808301926020929190829003018186803b15801561351f57600080fd5b505afa158015613533573d6000803e3d6000fd5b505050506040513d601f19601f82011682018060405250810190613557919061eeeb565b604051633d18199160e11b8152600160048201529091506001600160a01b03821690637a30332290602401600060405180830381600087803b15801561359c57600080fd5b505af19250505080156135ad575060015b613608573d8080156135db576040519150601f19603f3d011682016040523d82523d6000602084013e6135e0565b606091505b5060008051602061f2a6833981519152816040516135fe919061eadd565b60405180910390a1505b5050505b602f546040516001600160a01b038a16916001600160801b0316907fb819ca9ac369919119f75ec7363dd954f75bcfa75f9245647e03da413be0d58290613656908990899061efd0565b60405180910390a35050505050808061366e9061eff5565b915050612816565b505b3360009081526024602052604090208054600160e01b900460ff166136eb57602e80546001810182556000919091527f37fa166cbdbfbb1561ccd9ea985ec0218b5e68502e230525f544285b2bdf3d7e0180546001600160a01b03191633179055805460ff60e01b1916600160e01b1781555b805467ffffffffffffffff60801b1916600160801b426001600160401b03160217815561371661abff565b600160356000828254613729919061eddf565b9091555050602f546001600160801b03169a9950505050505050505050565b600060606000846001600160801b03161180156137765750826001600160801b0316846001600160801b0316105b6137925760405162461bcd60e51b81526004016116ae9061f012565b60008061379f868661ee33565b6137aa90600161eec9565b90506000816001600160801b03166001600160401b038111156137cf576137cf61e2c6565b6040519080825280602002602001820160405280156137f8578160200160208202803683370190505b50905060005b826001600160801b0316816001600160801b03161015613a465760006022816138278b8561eec9565b6001600160801b039081168252602080830193909352604091820160002082516101c0810184528154928316815263ffffffff600160801b8404811695820195909552600160a01b83049094169284019290925261ffff600160c01b820481166060850152600160d01b82048116608085015260ff600160e01b83048116151560a0860152600160e81b83048116151560c0860152600160f01b909204909116151560e084015260018201548082166101008501526201000081049091166101208401526001600160401b03600160201b82048116610140850152600160601b90910416610160830152600281018054610180840191906139279061ecf2565b80601f01602080910402602001604051908101604052809291908181526020018280546139539061ecf2565b80156139a05780601f10613975576101008083540402835291602001916139a0565b820191906000526020600020905b81548152906001019060200180831161398357829003601f168201915b505050918352505060038281015460209092019160ff16908111156139c7576139c761e0ef565b60038111156139d8576139d861e0ef565b90525060408101519091506139f39063ffffffff168661eec9565b9450806040015163ffffffff1683836001600160801b031681518110613a1b57613a1b61ecdc565b6001600160801b03909216602092830291909101909101525080613a3e8161eda1565b9150506137fe565b506000613a53838561f049565b95509093505050505b9250929050565b3360009081526024602052604090208054600160d01b900460ff16613adf5760405162461bcd60e51b815260206004820152602c60248201527f576f726b6572206973206e6f74207265676973746572656420736f2063616e2760448201526b3a103ab73932b3b4b9ba32b960a11b60648201526084016116ae565b80546001600160801b031615801590613b0157508054600160d81b900460ff16155b8015613b2357503360009081526027602052604090205462010000900460ff16155b15613bbd57805460ff60d81b1916600160d81b178155602d8054600181810183556000929092527f4a2cc91ee622da3bc833a54c37ffcb6f3ec23b7793efc5eaf5e71b7b406c5c060180546001600160a01b03191633179055613b889060209061edf7565b60376000828254613b99919061eddf565b9091555050336000908152602760205260409020805462ff00001916620100001790555b80546001600160801b0316613c7157613bd53361b196565b613bde3361b303565b613be73361b434565b80546001600160401b0342908116600160801b0267ffffffffffffffff60801b199092169190911782553360008181526027602052604090819020805462ff000019169055835460ff60d01b191684555190917f9dadcedba048e92b943ea1c5861cee1df63a566d7f795869c004780c1c698e2b91613c6891815260200190565b60405180910390a25b600160356000828254613c84919061eddf565b90915550611aa7905061abff565b600080805b600f811015613ce357601081600f8110613cb357613cb361ecdc565b0154613ccf90600160801b90046001600160801b03168361eddf565b915080613cdb8161ed3d565b915050613c97565b50919050565b60016001600160801b038216600090815260226020526040902060039081015460ff1690811115613d1c57613d1c61e0ef565b14613d835760405162461bcd60e51b815260206004820152603160248201527f676976656e204461746142617463682073686f756c6420626520415050524f5660448201527011510b08185b99081a5d081a5cc81b9bdd607a1b60648201526084016116ae565b3360009081526023602052604090819020905163071dc0ab60e51b815260048101919091526001600160801b038216602482015273__$85afbab79b2b776d70bef879a32ed56424$__9063e3b815609060440160206040518083038186803b158015613dee57600080fd5b505af4158015613e02573d6000803e3d6000fd5b505050506040513d601f19601f82011682018060405250810190613e26919061ee16565b613e985760405162461bcd60e51b815260206004820152603960248201527f646c6c4d61703a20646f6573206e6f7420636f696e7461696e205f446174614260448201527f61746368496420666f7220746865206d73672073656e6465720000000000000060648201526084016116ae565b336000908152602360205260409081902090516325923c7560e11b815260048101919091526001600160801b038216602482015273__$85afbab79b2b776d70bef879a32ed56424$__90634b2478ea9060440160006040518083038186803b158015613f0357600080fd5b505af4158015613f17573d6000803e3d6000fd5b50505050601060376000828254613f2e919061edc8565b90915550613f3c905061abff565b60405133906001600160801b038316907f402507661c8c8cb90e0a796450b8bdd28b6c516f05279c0cd29e84c344e1699a90600090a350565b6001600160a01b03818116600090815260246020908152604080832081516101408101835281546001600160801b0381168252600160801b8082046001600160401b0390811684880152600160c01b80840461ffff1685880152600160d01b840460ff90811615156060870152600160d81b8504811615156080870152600160e01b909404909316151560a085015260019094015480851660c0850152600160401b8104851660e0850152908104841661010084015204909116610120820152603b548251634fda48fb60e11b81529251949586959294911692639fb491f69260048083019392829003018186803b15801561407057600080fd5b505afa158015614084573d6000803e3d6000fd5b505050506040513d601f19601f820116820180604052508101906140a8919061ed8f565b816040015161ffff161015801561415a5750603b60009054906101000a90046001600160a01b03166001600160a01b0316630f1f0ffe6040518163ffffffff1660e01b815260040160206040518083038186803b15801561410857600080fd5b505afa15801561411c573d6000803e3d6000fd5b505050506040513d601f19601f82011682018060405250810190614140919061ed8f565b60c0820151614158906001600160401b03164261edc8565b105b1561416457600191505b5092915050565b600061417682614b93565b61418257506000919050565b6001600160801b038216600090815260226020526040902060010154600160201b90046001600160401b0316421180611c2a5750611c2a826141ee565b919050565b602e81815481106141d457600080fd5b6000918252602090912001546001600160a01b0316905081565b60006141f982614b93565b6142155760405162461bcd60e51b81526004016116ae9061eca5565b6001600160801b038216600090815260226020526040902060010154600160601b90046001600160401b03164211158015611c2a575061425482614960565b1592915050565b61426361a145565b6039805467ffff00ff000000001916600160201b9315159390930267ffff000000000000191692909217660100000000000061ffff9290921691909102179055565b60006142b082614b93565b6142ee5760405162461bcd60e51b815260206004820152600f60248201526e11185d18481b5d5cdd08195e1a5cdd608a1b60448201526064016116ae565b6001600160801b038216600090815260226020526040902060010154600160601b90046001600160401b0316421180611c2a575061432b8261416b565b8015611c2a5750506001600160801b031660009081526029602052604090205461ffff161590565b603b546001600160a01b031661437b5760405162461bcd60e51b81526004016116ae9061ed58565b611a9f8161b56b565b602b81815481106141d457600080fd5b601f6020908152600092835260408084209091529082529020805460018201805460ff80841694610100850482169462010000810490921693630100000090920463ffffffff16929091906143e89061ecf2565b80601f01602080910402602001604051908101604052809291908181526020018280546144149061ecf2565b80156144615780601f1061443657610100808354040283529160200191614461565b820191906000526020600020905b81548152906001019060200180831161444457829003601f168201915b5050505050908060020180546144769061ecf2565b80601f01602080910402602001604051908101604052809291908181526020018280546144a29061ecf2565b80156144ef5780601f106144c4576101008083540402835291602001916144ef565b820191906000526020600020905b8154815290600101906020018083116144d257829003601f168201915b5050505050905086565b60006145306145088484614fe4565b6040518060400160405280600a815260200169636f6d6d6974566f746560b01b815250616b5a565b9392505050565b60405160009080602081848060185afa61454d57fe5b5051919050565b600181600f811061456457600080fd5b01546001600160801b038082169250600160801b9091041682565b6001600160801b03808216600090815260226020908152604080832081516101c0810183528154958616815263ffffffff600160801b8704811694820194909452600160a01b86049093169183019190915261ffff600160c01b850481166060840152600160d01b85048116608084015260ff600160e01b86048116151560a0850152600160e81b86048116151560c0850152600160f01b909504909416151560e083015260018101548085166101008401526201000081049094166101208301526001600160401b03600160201b85048116610140840152600160601b9094049093166101608201526002830180549293849390916101808401916146849061ecf2565b80601f01602080910402602001604051908101604052809291908181526020018280546146b09061ecf2565b80156146fd5780601f106146d2576101008083540402835291602001916146fd565b820191906000526020600020905b8154815290600101906020018083116146e057829003601f168201915b505050918352505060038281015460209092019160ff16908111156147245761472461e0ef565b60038111156147355761473561e0ef565b9052506101208101516101008201519192506147509161f06f565b61ffff16603b60009054906101000a90046001600160a01b03166001600160a01b031663ea19733c6040518163ffffffff1660e01b815260040160206040518083038186803b1580156147a257600080fd5b505afa1580156147b6573d6000803e3d6000fd5b505050506040513d601f19601f820116820180604052508101906147da919061ed8f565b6147e4919061edf7565b6101008201516147f590606461f08c565b61ffff16119392505050565b602560205281600052604060002081600f811061481d57600080fd5b01546001600160801b038082169350600160801b90910416905082565b6001600160a01b03811660009081526023602052604080822090516001627446cf60e11b0319815260048101919091526024810182905273__$85afbab79b2b776d70bef879a32ed56424$__9063ff1772629060440160206040518083038186803b1580156148a857600080fd5b505af41580156148bc573d6000803e3d6000fd5b505050506040513d601f19601f82011682018060405250810190611c2a919061f0b6565b60006148eb82614b93565b6149075760405162461bcd60e51b81526004016116ae9061eca5565b600061491283614960565b15614951576001600160801b03831660009081526022602052604090206001015461494e904290600160201b90046001600160401b031661f0d3565b90505b6001600160401b031692915050565b600061496b82614b93565b6149875760405162461bcd60e51b81526004016116ae9061eca5565b6001600160801b038216600090815260226020526040902060010154600160201b90046001600160401b03164211158015611c2a5750506001600160801b0316600090815260226020526040902054600160c01b900461ffff16151590565b6149ee61a145565b600054600160a01b900460ff1615614a0a57614a0861bae8565b565b614a0861bb3d565b603b546001600160a01b0316614a3a5760405162461bcd60e51b81526004016116ae9061ed58565b603054600160801b90046001600160801b031660005b826001600160801b0316816001600160801b031610156120a0576000614a76828461eec9565b6001600160801b038116600090815260226020526040902054909150600160f01b900460ff168015614ad85750614aac816142a5565b80614ad857506001600160801b038116600090815260226020526040902054600160d01b900461ffff16155b15614b80576001600160801b038116600090815260226020526040902054600160e81b900460ff16614b0d57614b0d8161bb80565b603054614b2b90600160801b90046001600160801b0316600161eec9565b6001600160801b0316816001600160801b03161415614b8057603054614b6290600160801b90046001600160801b0316600161eec9565b603080546001600160801b03928316600160801b0292169190911790555b5080614b8b8161eda1565b915050614a50565b6001600160801b0316600090815260226020526040902054600160e01b900460ff1690565b614bc061a145565b602e54614bce90602061edf7565b60376000828254614bdf919061edc8565b90915550614a089050602e600061df30565b600080614bfd8561483a565b90506000614c0b86836162b0565b90505b6001600160801b03821615614dc357614c2786836162b0565b9050848111614d0d57836001600160801b0316826001600160801b03161415614cfc576001600160a01b0386166000908152602360205260409081902090516001627446cf60e11b0319815260048101919091526001600160801b038316602482015273__$85afbab79b2b776d70bef879a32ed56424$__9063ff1772629060440160206040518083038186803b158015614cc157600080fd5b505af4158015614cd5573d6000803e3d6000fd5b505050506040513d601f19601f82011682018060405250810190614cf9919061f0b6565b91505b506001600160801b03169050614530565b6001600160a01b0386166000908152602360205260409081902090516001627446cf60e11b0319815260048101919091526001600160801b038316602482015273__$85afbab79b2b776d70bef879a32ed56424$__9063ff1772629060440160206040518083038186803b158015614d8457600080fd5b505af4158015614d98573d6000803e3d6000fd5b505050506040513d601f19601f82011682018060405250810190614dbc919061f0b6565b9150614c0e565b506001600160801b0316949350505050565b603b546001600160a01b0316614dfd5760405162461bcd60e51b81526004016116ae9061ed58565b6001600160a01b038116600090815260256020526040812090614e226001600f61edc8565b905060008282600f8110614e3857614e3861ecdc565b0154603b54604080516307bc663b60e11b815290516001600160801b0390931693506001600160a01b0390911691630f78cc7691600480820192602092909190829003018186803b158015614e8c57600080fd5b505afa158015614ea0573d6000803e3d6000fd5b505050506040513d601f19601f82011682018060405250810190614ec4919061ed8f565b614ece824261edc8565b1115614fce5760005b614ee36001600f61edc8565b811015614f615783614ef682600161eddf565b600f8110614f0657614f0661ecdc565b018482600f8110614f1957614f1961ecdc565b8254910180546001600160801b0319166001600160801b0392831690811782559254600160801b90819004909216909102909117905580614f598161ed3d565b915050614ed7565b50426001600160401b03168383600f8110614f7e57614f7e61ecdc565b0180546001600160801b0319166001600160801b039290921691909117905560008383600f8110614fb157614fb161ecdc565b0180546001600160801b03928316600160801b0292169190911790555b50505050565b601081600f811061456457600080fd5b6040516bffffffffffffffffffffffff19606084901b1660208201526001600160801b0319608083901b1660348201526000906044015b60405160208183030381529060405280519060200120905092915050565b603b546001600160a01b03166150615760405162461bcd60e51b81526004016116ae9061ed58565b600061506f6001600f61edc8565b90506000600182600f81106150865761508661ecdc565b0154603b54604080516307bc663b60e11b815290516001600160801b0390931693506001600160a01b0390911691630f78cc7691600480820192602092909190829003018186803b1580156150da57600080fd5b505afa1580156150ee573d6000803e3d6000fd5b505050506040513d601f19601f82011682018060405250810190615112919061ed8f565b615125826001600160401b03421661edc8565b11156122955760005b61513a6001600f61edc8565b8110156151b957600161514d828261eddf565b600f811061515d5761515d61ecdc565b01600182600f81106151715761517161ecdc565b8254910180546001600160801b0319166001600160801b0392831690811782559254600160801b908190049092169091029091179055806151b18161ed3d565b91505061512e565b50426001600160401b0316600183600f81106151d7576151d761ecdc565b0180546001600160801b0319166001600160801b03929092169190911790556000600183600f81106122785761227861ecdc565b60008061521884876162b0565b8310159050600061522985876162b0565b8411158061523e57506001600160801b038616155b905081801561524a5750805b979650505050505050565b61525d61ae8a565b61526f846001600160401b03166141ee565b6152ca5760405162461bcd60e51b815260206004820152602660248201527f52657665616c20706572696f64206e6f74206f70656e20666f7220746869732060448201526511185d18525160d21b60648201526084016116ae565b6001600160401b0384166000908152601f6020908152604080832033845290915290205460ff166153555760405162461bcd60e51b815260206004820152602f60248201527f5573657220686173206e6f7420636f6d6d69746564206265666f72652c20746860448201526e1d5cc818d85b89dd081c995d99585b608a1b60648201526084016116ae565b6001600160401b0384166000908152601f60209081526040808320338452909152902054610100900460ff16156153e35760405162461bcd60e51b815260206004820152602c60248201527f557365722068617320616c72656164792072657665616c65642c20746875732060448201526b18d85b89dd081c995d99585b60a21b60648201526084016116ae565b6153f633856001600160401b0316616226565b615400848361963d565b146154925760405162461bcd60e51b815260206004820152605660248201527f4e6f74207468652073616d652068617368207468616e20636f6d6d697465642c60448201527f20696d706f737369626c6520746f206d61746368207769746820676976656e206064820152750bee6c2d8e8404c40bec6d8cac2e492a08ca690c2e6d60531b608482015260a4016116ae565b6154a533856001600160401b03166144f9565b6154b28360ff1683617902565b146155405760405162461bcd60e51b815260206004820152605260248201527f4e6f74207468652073616d6520766f7465207468616e20636f6d6d697465642c60448201527f20696d706f737369626c6520746f206d61746368207769746820676976656e206064820152715f73616c742026205f636c656172566f746560701b608482015260a4016116ae565b60ff82166001141561559d576001600160401b0384166000908152602260205260408120600190810180549192909161557e90849061ffff1661f06f565b92506101000a81548161ffff021916908361ffff1602179055506155ef565b6001600160401b0384166000908152602260205260409020600190810180546002906155d490849062010000900461ffff1661f06f565b92506101000a81548161ffff021916908361ffff1602179055505b6001600160401b0384166000908152601f602090815260408083203384528252909120805461010062ffff00199091166201000060ff8716021717815584516156409260019092019186019061deac565b506001600160401b0384166000908152602a6020526040812080546001929061566e90849061ffff1661f06f565b92506101000a81548161ffff021916908361ffff160217905550602060016002615698919061edf7565b6156a2919061eddf565b603760008282546156b3919061eddf565b90915550503360009081526024602090815260408083206001600160401b03881684526022909252909120546156f690600190600160d01b900461ffff1661f0f3565b6001600160401b038681166000908152602260205260409020805461ffff60d01b1916600160d01b61ffff949094168402179055825467ffffffffffffffff60801b1916600160801b4290921691909102178083550460ff16156157905780546001600160801b0319168155603780546001919060009061577890849061edc8565b9091555061578790503361b303565b6157903361dafe565b60395465010000000000900460ff1615615cee57603b5460408051632a49798160e11b8152905133926000926001600160a01b0390911691635492f30291600480820192602092909190829003018186803b1580156157ee57600080fd5b505afa158015615802573d6000803e3d6000fd5b505050506040513d601f19601f82011682018060405250810190615826919061eeeb565b90506000603b60009054906101000a90046001600160a01b03166001600160a01b0316630855d1516040518163ffffffff1660e01b815260040160206040518083038186803b15801561587857600080fd5b505afa15801561588c573d6000803e3d6000fd5b505050506040513d601f19601f820116820180604052508101906158b0919061eeeb565b90506000603b60009054906101000a90046001600160a01b03166001600160a01b03166304e76c8f6040518163ffffffff1660e01b815260040160206040518083038186803b15801561590257600080fd5b505afa158015615916573d6000803e3d6000fd5b505050506040513d601f19601f8201168201806040525081019061593a919061eeeb565b6040516308c0a84360e11b81526001600160a01b03868116600483015291925060009185169063118150869060240160206040518083038186803b15801561598157600080fd5b505afa158015615995573d6000803e3d6000fd5b505050506040513d601f19601f820116820180604052508101906159b9919061eeeb565b603954603b5460408051630b08bfd960e01b8152905193945060009361ffff600160401b8504811694600160601b900416926001600160a01b031691630b08bfd9916004808301926020929190829003018186803b158015615a1a57600080fd5b505afa158015615a2e573d6000803e3d6000fd5b505050506040513d601f19601f82011682018060405250810190615a52919061ed8f565b615a5c919061edf7565b615a66919061ef1e565b603954603b54604080516307c06f0560e51b8152905193945060009361ffff600160401b8504811694600160601b900416926001600160a01b03169163f80de0a0916004808301926020929190829003018186803b158015615ac757600080fd5b505afa158015615adb573d6000803e3d6000fd5b505050506040513d601f19601f82011682018060405250810190615aff919061ed8f565b615b09919061edf7565b615b13919061ef1e565b604051630db6cc8560e11b8152600481018490526001600160a01b0385811660248301526000604483015291925090861690631b6d990a90606401602060405180830381600087803b158015615b6857600080fd5b505af1158015615b7c573d6000803e3d6000fd5b505050506040513d601f19601f82011682018060405250810190615ba0919061ee16565b615c015760405162461bcd60e51b815260206004820152602c60248201527f636f756c64206e6f74207265776172642052455020696e2072657665616c537060448201526b6f74436865636b2c20312e6160a01b60648201526084016116ae565b604051633832942560e21b8152600481018290526001600160a01b03848116602483015285169063e0ca509490604401602060405180830381600087803b158015615c4b57600080fd5b505af1158015615c5f573d6000803e3d6000fd5b505050506040513d601f19601f82011682018060405250810190615c83919061ee16565b615ce65760405162461bcd60e51b815260206004820152602e60248201527f636f756c64206e6f742072657761726420746f6b656e20696e2072657665616c60448201526d29b837ba21b432b1b5961018973160911b60648201526084016116ae565b505050505050505b60395462010000900460ff168015615d2757506001600160401b038516600090815260226020526040902054600160d01b900461ffff16155b15615d3e57615d3e856001600160401b031661bb80565b600160356000828254615d51919061eddf565b90915550615d5f905061abff565b6001600160401b03851660008181526022602090815260409182902060010154825161ffff80831682526201000090920490911691810191909152339260ff87169290917f965f1f4937cc1062d77f76cbd2533a8147d3202573f62b9dfd5eca47c5dcfdb1910160405180910390a45050505050565b615ddd61a145565b6039805461ffff909216600160601b0261ffff60601b19909216919091179055565b615e0761a145565b602b54615e1590602061edf7565b60376000828254615e26919061edc8565b90915550614a089050602b600061df30565b6000611c2a82610f778461483a565b6060615e5282614b93565b615e6e5760405162461bcd60e51b81526004016116ae9061eca5565b6001600160801b03808316600090815260226020908152604080832081516101c0810183528154958616815263ffffffff600160801b8704811694820194909452600160a01b86049093169183019190915261ffff600160c01b850481166060840152600160d01b85048116608084015260ff600160e01b86048116151560a0850152600160e81b86048116151560c0850152600160f01b909504909416151560e083015260018101548085166101008401526201000081049094166101208301526001600160401b03600160201b85048116610140840152600160601b9094049093166101608201526002830180549293919261018084019190615f729061ecf2565b80601f0160208091040260200160405190810160405280929190818152602001828054615f9e9061ecf2565b8015615feb5780601f10615fc057610100808354040283529160200191615feb565b820191906000526020600020905b815481529060010190602001808311615fce57829003601f168201915b505050918352505060038281015460209092019160ff16908111156160125761601261e0ef565b60038111156160235761602361e0ef565b905250602081015190915063ffffffff166000816001600160401b0381111561604e5761604e61e2c6565b60405190808252806020026020018201604052801561608157816020015b606081526020019060019003908161606c5790505b50905060005b826001600160801b0316816001600160801b031610156161985783516000906160b190839061eec9565b6001600160801b0381166000908152602160205260408120600301805492935090916160dc9061ecf2565b80601f01602080910402602001604051908101604052809291908181526020018280546161089061ecf2565b80156161555780601f1061612a57610100808354040283529160200191616155565b820191906000526020600020905b81548152906001019060200180831161613857829003601f168201915b505050505090508084846001600160801b0316815181106161785761617861ecdc565b6020026020010181905250505080806161909061eda1565b915050616087565b50949350505050565b60006161ac82614b93565b6161b857506000919050565b6001600160801b038216600090815260226020526040902060010154600160601b90046001600160401b0316421180611c2a5750506001600160801b0316600090815260226020526040902054600160d01b900461ffff161590565b61621c61a145565b614a08600061dbf1565b60006145306162358484614fe4565b6040518060400160405280600a8152602001690c6dedadad2e890c2e6d60b31b815250616b5a565b61626561a145565b6001600160a01b0381166000908152602760209081526040822080546effffffffffffffffffffffffffffff1916905560378054919290916162a890849061edc8565b909155505050565b60006145306162bf8484614fe4565b604051806040016040528060098152602001686e756d546f6b656e7360b81b815250616b5a565b60006162f182614b93565b61630d5760405162461bcd60e51b81526004016116ae9061eca5565b506001600160801b03166000908152601f602090815260408083206001600160a01b03949094168352929052205460ff1690565b61634961a145565b60398054911515620100000262ff000019909216919091179055565b6163ae6040805160e0810182526000808252602082018190529091820190815260200160006001600160a01b031681526020016060815260200160608152602001606081525090565b6001600160801b038216600090815260216020908152604091829020825160e08101845281546001600160401b038082168352600160401b8204169382019390935292909190830190600160801b900460ff1660038111156164125761641261e0ef565b60038111156164235761642361e0ef565b815260018201546001600160a01b0316602082015260028201805460409092019161644d9061ecf2565b80601f01602080910402602001604051908101604052809291908181526020018280546164799061ecf2565b80156164c65780601f1061649b576101008083540402835291602001916164c6565b820191906000526020600020905b8154815290600101906020018083116164a957829003601f168201915b505050505081526020016003820180546164df9061ecf2565b80601f016020809104026020016040519081016040528092919081815260200182805461650b9061ecf2565b80156165585780601f1061652d57610100808354040283529160200191616558565b820191906000526020600020905b81548152906001019060200180831161653b57829003601f168201915b505050505081526020016004820180546165719061ecf2565b80601f016020809104026020016040519081016040528092919081815260200182805461659d9061ecf2565b80156165ea5780601f106165bf576101008083540402835291602001916165ea565b820191906000526020600020905b8154815290600101906020018083116165cd57829003601f168201915b5050505050815250509050919050565b602c54602b5460009161660c9161eddf565b905090565b600080805b600f811015613ce357600181600f81106166325761663261ecdc565b015461664e90600160801b90046001600160801b03168361eddf565b91508061665a8161ed3d565b915050616616565b602c81815481106141d457600080fd5b61667a61a145565b6039805491151563010000000263ff00000019909216919091179055565b603b546000906001600160a01b03166166c35760405162461bcd60e51b81526004016116ae9061ed58565b603b5460408051632a49798160e11b815290516000926001600160a01b031691635492f302916004808301926020929190829003018186803b15801561670857600080fd5b505afa15801561671c573d6000803e3d6000fd5b505050506040513d601f19601f82011682018060405250810190616740919061eeeb565b6001600160a01b031614156167675760405162461bcd60e51b81526004016116ae9061f10e565b603b546040805163ca64f9e760e01b815290516000926001600160a01b03169163ca64f9e7916004808301926020929190829003018186803b1580156167ac57600080fd5b505afa1580156167c0573d6000803e3d6000fd5b505050506040513d601f19601f820116820180604052508101906167e4919061eeeb565b6001600160a01b0316141561680b5760405162461bcd60e51b81526004016116ae9061f152565b603b546040805163ca64f9e760e01b815290516000926001600160a01b03169163ca64f9e7916004808301926020929190829003018186803b15801561685057600080fd5b505afa158015616864573d6000803e3d6000fd5b505050506040513d601f19601f82011682018060405250810190616888919061eeeb565b90506000603b60009054906101000a90046001600160a01b03166001600160a01b0316635492f3026040518163ffffffff1660e01b815260040160206040518083038186803b1580156168da57600080fd5b505afa1580156168ee573d6000803e3d6000fd5b505050506040513d601f19601f82011682018060405250810190616912919061eeeb565b9050848060005b6003811015616af85760405163065ee72760e51b81526001600160a01b0383811660048301526000919087169063cbdce4e09060240160206040518083038186803b15801561696757600080fd5b505afa15801561697b573d6000803e3d6000fd5b505050506040513d601f19601f8201168201806040525081019061699f919061ed8f565b6001600160a01b03841660009081526026602052604090205490915088116169ca5782935050616af8565b6001600160a01b0383166000908152602660205260409020548810801590616a0957506001600160a01b03831660009081526026602052604090205415155b15616a46576001600160a01b038316600090815260266020526040812054616a31908a61edc8565b9050808210616a44578394505050616af8565b505b878110616a565782935050616af8565b60405163792f4f6960e11b81526001600160a01b03848116600483015286169063f25e9ed29060240160206040518083038186803b158015616a9757600080fd5b505afa158015616aab573d6000803e3d6000fd5b505050506040513d601f19601f82011682018060405250810190616acf919061eeeb565b92506001600160a01b038316616ae55750616af8565b5080616af08161ed3d565b915050616919565b50909695505050505050565b6000616b0f82614b93565b616b2b5760405162461bcd60e51b81526004016116ae9061eca5565b506001600160801b0316600090815260226020526040902060010154600160601b90046001600160401b031690565b6000808383604051602001616b7092919061f194565b60408051808303601f1901815291815281516020928301206000908152918052902054949350505050565b616ba361a145565b6001600160a01b038116600090815260246020908152604080832080546001600160e81b031916815560010183905560259091528120616be29161df4e565b6001600160a01b0381166000908152602660209081526040822091909155616c0b90602261edf7565b603760008282546162a8919061edc8565b60606000836001600160801b0316118015616c485750816001600160801b0316836001600160801b0316105b616c645760405162461bcd60e51b81526004016116ae9061f012565b6000835b616c7384600161eec9565b6001600160801b0316816001600160801b03161015616e72576001600160801b03808216600090815260226020908152604080832081516101c0810183528154958616815263ffffffff600160801b8704811694820194909452600160a01b86049093169183019190915261ffff600160c01b850481166060840152600160d01b85048116608084015260ff600160e01b86048116151560a0850152600160e81b86048116151560c0850152600160f01b909504909416151560e083015260018101548085166101008401526201000081049094166101208301526001600160401b03600160201b85048116610140840152600160601b9094049093166101608201526002830180549293919261018084019190616d909061ecf2565b80601f0160208091040260200160405190810160405280929190818152602001828054616dbc9061ecf2565b8015616e095780601f10616dde57610100808354040283529160200191616e09565b820191906000526020600020905b815481529060010190602001808311616dec57829003601f168201915b505050918352505060038281015460209092019160ff1690811115616e3057616e3061e0ef565b6003811115616e4157616e4161e0ef565b9052506020810151909150616e5c9063ffffffff168461eec9565b9250508080616e6a9061eda1565b915050616c68565b506000816001600160801b03166001600160401b03811115616e9657616e9661e2c6565b604051908082528060200260200182016040528015616ec957816020015b6060815260200190600190039081616eb45790505b5090506000855b616edb86600161eec9565b6001600160801b0316816001600160801b031610156171e5576001600160801b03808216600090815260226020908152604080832081516101c0810183528154958616815263ffffffff600160801b8704811694820194909452600160a01b86049093169183019190915261ffff600160c01b850481166060840152600160d01b85048116608084015260ff600160e01b86048116151560a0850152600160e81b86048116151560c0850152600160f01b909504909416151560e083015260018101548085166101008401526201000081049094166101208301526001600160401b03600160201b85048116610140840152600160601b9094049093166101608201526002830180549293919261018084019190616ff89061ecf2565b80601f01602080910402602001604051908101604052809291908181526020018280546170249061ecf2565b80156170715780601f1061704657610100808354040283529160200191617071565b820191906000526020600020905b81548152906001019060200180831161705457829003601f168201915b505050918352505060038281015460209092019160ff16908111156170985761709861e0ef565b60038111156170a9576170a961e0ef565b905250905060005b816020015163ffffffff16816001600160801b031610156171d05781516000906170dc90839061eec9565b6001600160801b0381166000908152602160205260408120600201805492935090916171079061ecf2565b80601f01602080910402602001604051908101604052809291908181526020018280546171339061ecf2565b80156171805780601f1061715557610100808354040283529160200191617180565b820191906000526020600020905b81548152906001019060200180831161716357829003601f168201915b505050505090508087876001600160801b0316815181106171a3576171a361ecdc565b60209081029190910101526171b960018761eec9565b9550505080806171c89061eda1565b9150506170b1565b505080806171dd9061eda1565b915050616ed0565b509095945050505050565b6171f861a145565b603980549115156101000261ff0019909216919091179055565b60606000836001600160801b031611801561723e5750816001600160801b0316836001600160801b0316105b61725a5760405162461bcd60e51b81526004016116ae9061f012565b6000617266848461ee33565b61727190600161eec9565b90506000816001600160801b03166001600160401b038111156172965761729661e2c6565b6040519080825280602002602001820160405280156172c957816020015b60608152602001906001900390816172b45790505b50905060005b826001600160801b0316816001600160801b03161015611c2557602260006172f7838961eec9565b6001600160801b03166001600160801b0316815260200190815260200160002060020180546173259061ecf2565b80601f01602080910402602001604051908101604052809291908181526020018280546173519061ecf2565b801561739e5780601f106173735761010080835404028352916020019161739e565b820191906000526020600020905b81548152906001019060200180831161738157829003601f168201915b505050505082826001600160801b0316815181106173be576173be61ecdc565b602002602001018190525080806173d49061eda1565b9150506172cf565b6001600160a01b038116600090815260256020526040812081805b600f811015611913578281600f81106174125761741261ecdc565b015461742e90600160801b90046001600160801b03168361eddf565b91508061743a8161ed3d565b9150506173f7565b600061744d82614b93565b6174695760405162461bcd60e51b81526004016116ae9061eca5565b6000617474836141ee565b15611c2a576001600160801b038316600090815260226020526040902060010154614530904290600160601b90046001600160401b031661edc8565b6000816040516020016174c3919061f1ba565b60405160208183030381529060405280519060200120836040516020016174ea919061f1ba565b60405160208183030381529060405280519060200120141561750e57506001611c2a565b506000611c2a565b6040516bffffffffffffffffffffffff194160601b166020820152600090819042906034016040516020818303038152906040528051906020012060001c61755e919061ef1e565b44617567614537565b60405160200161757991815260200190565b60408051601f19818403018152919052805160209091012061759b904261eddf565b6175a5919061eddf565b6175af919061eddf565b6040516020016175c191815260200190565b60408051601f19818403018152919052805160209091012092915050565b60606175ea82614b93565b6176065760405162461bcd60e51b81526004016116ae9061eca5565b6001600160801b03821660009081526028602090815260408083208054825181850281018501909352808352919290919083018282801561767057602002820191906000526020600020905b81546001600160a01b03168152600190910190602001808311617652575b50505050509050600081516001600160401b038111156176925761769261e2c6565b6040519080825280602002602001820160405280156176bb578160200160208202803683370190505b50905060005b8251816001600160801b03161015611913576001600160801b038086166000908152601f602052604081208551909286919085169081106177045761770461ecdc565b60200260200101516001600160a01b03166001600160a01b0316815260200190815260200160002060000160029054906101000a900460ff1660ff1682826001600160801b03168151811061775b5761775b61ecdc565b6001600160801b03909216602092830291909101909101528061777d8161eda1565b9150506176c1565b600061779082614b93565b6177ac5760405162461bcd60e51b81526004016116ae9061eca5565b506001600160801b03166000908152601f602090815260408083206001600160a01b039490941683529290522054610100900460ff1690565b602d81815481106141d457600080fd5b6001600160a01b038116600090815260246020908152604080832081516101408101835281546001600160801b038116808352600160801b8083046001600160401b0390811697850197909752600160c01b80840461ffff1696850196909652600160d01b830460ff90811615156060860152600160d81b8404811615156080860152600160e01b909304909216151560a084015260019093015480861660c0840152600160401b8104861660e084015290810485166101008301529290920490921661012082015282916178ca8582617785565b1580156178dd57506178db816142a5565b155b80156178ef57506178ed8161416b565b155b156178f957600192505b50909392505050565b604080516020810184905290810182905260009060600161501b565b60606000821180156179305750818311155b801561793d575060018310155b6179895760405162461bcd60e51b815260206004820152601960248201527f6b206f72204e20617265206e6f74204f4b20666f7220524e470000000000000060448201526064016116ae565b6000617993617516565b6040516020016179a591815260200190565b60408051601f19818403018152828252805160209182012081840152815180840382018152928201909152815191012090506000846001600160401b038111156179f1576179f161e2c6565b604051908082528060200260200182016040528015617a1a578160200160208202803683370190505b509050600080617a2b60148861eddf565b905060005b81811015617b6e57617a42818061edf7565b617a4c908661eddf565b604051602001617a5e91815260200190565b6040516020818303038152906040528051906020012060001c871115617a8357617b5c565b600087617a90838061edf7565b617a9a908861eddf565b604051602001617aac91815260200190565b6040516020818303038152906040528051906020012060001c617acf919061f1d6565b90506000805b85811015617b195782878281518110617af057617af061ecdc565b60200260200101511415617b075760019150617b19565b80617b118161ed3d565b915050617ad5565b5080617b4b5781868681518110617b3257617b3261ecdc565b6020908102919091010152617b4885600161eddf565b94505b898510617b59575050617b6e565b50505b80617b668161ed3d565b915050617a30565b5086821015617c225760005b86811015617c2057806000805b85811015617bcb5782878281518110617ba257617ba261ecdc565b60200260200101511415617bb95760019150617bcb565b80617bc38161ed3d565b915050617b87565b5080617bfd5781868681518110617be457617be461ecdc565b6020908102919091010152617bfa85600161eddf565b94505b898510617c0b575050617c20565b50508080617c189061ed3d565b915050617b7a565b505b8682146171e55760405162461bcd60e51b815260206004820152601060248201526f149391c81a5b9cdd59999a58da595b9d60821b60448201526064016116ae565b617c6c61ae8a565b603b546001600160a01b0316617c945760405162461bcd60e51b81526004016116ae9061ed58565b617c9d85614960565b617d015760405162461bcd60e51b815260206004820152602f60248201527f636f6d6d697420706572696f64206e6565647320746f206265206f70656e206660448201526e1bdc881d1a1a5cc818985d18da1259608a1b60648201526084016116ae565b6001600160801b0385166000908152601f6020908152604080832033845290915290205460ff1615617d875760405162461bcd60e51b815260206004820152602960248201527f557365722068617320616c726561647920636f6d6d6974656420746f207468696044820152681cc818985d18da125960ba1b60648201526084016116ae565b617d918533618cca565b617e035760405162461bcd60e51b815260206004820152603860248201527f55736572206e6565647320746f20626520616c6c6f636174656420746f20746860448201527f697320626174636820746f20636f6d6d6974206f6e206974000000000000000060648201526084016116ae565b603b5460408051632a49798160e11b815290516000926001600160a01b031691635492f302916004808301926020929190829003018186803b158015617e4857600080fd5b505afa158015617e5c573d6000803e3d6000fd5b505050506040513d601f19601f82011682018060405250810190617e80919061eeeb565b6001600160a01b03161415617ea75760405162461bcd60e51b81526004016116ae9061f10e565b603b54604080516001624ee91360e11b0319815290516000926001600160a01b03169163ff622dda916004808301926020929190829003018186803b158015617eef57600080fd5b505afa158015617f03573d6000803e3d6000fd5b505050506040513d601f19601f82011682018060405250810190617f27919061ed8f565b90506000617f353383616698565b60395490915060ff1615617f94576001600160a01b038116600090815260266020526040902054821115617f94576001600160a01b038116600090815260266020526040812054617f86908461edc8565b9050617f92818361aed7565b505b6000336000908152602360205260408082209051634c2f35d960e01b815260048101919091526001600160801b038316602482015273__$85afbab79b2b776d70bef879a32ed56424$__90634c2f35d99060440160206040518083038186803b15801561800057600080fd5b505af4158015618014573d6000803e3d6000fd5b505050506040513d601f19601f82011682018060405250810190618038919061f0b6565b9050886001600160801b0316816001600160801b031614156180fa5733600090815260236020526040908190209051634c2f35d960e01b815260048101919091526001600160801b038a16602482015273__$85afbab79b2b776d70bef879a32ed56424$__90634c2f35d99060440160206040518083038186803b1580156180bf57600080fd5b505af41580156180d3573d6000803e3d6000fd5b505050506040513d601f19601f820116820180604052508101906180f7919061f0b6565b90505b6181068282338761520b565b6181495760405162461bcd60e51b81526020600482015260146024820152733737ba1030903b30b634b2103837b9b4ba34b7b760611b60448201526064016116ae565b6000618155338b614fe4565b905061818381604051806040016040528060098152602001686e756d546f6b656e7360b81b8152508761dc41565b6181b3816040518060400160405280600a8152602001690c6dedadad2e890c2e6d60b31b8152508b60001c61dc41565b6181e3816040518060400160405280600a815260200169636f6d6d6974566f746560b01b8152508a60001c61dc41565b6001600160801b038a166000908152601f602090815260408083203384528252909120805466ffffffff0000001916630100000063ffffffff8b160217815587516182369260029092019189019061deac565b506001600160801b038a16600090815260296020526040812080546001929061826490849061ffff1661f06f565b92506101000a81548161ffff021916908361ffff160217905550600060246000336001600160a01b03166001600160a01b0316815260200190815260200160002090506001602260008d6001600160801b03166001600160801b0316815260200190815260200160002060000160189054906101000a900461ffff166182ea919061f0f3565b6001600160801b038c166000908152602260209081526040808320805461ffff60c01b1916600160c01b61ffff969096169590950294909417909355835467ffffffffffffffff60801b1916600160801b426001600160401b031602178455601f81528282203383529052908120805460ff19166001179055603780546010929061837690849061eddf565b92505081905550600160356000828254618390919061eddf565b9091555061839e905061abff565b60405186815233906001600160801b038d16907f42864d9683ff5b12c3b2cc65d705af5aab104b03bc700b802f79e5c971ef08a19060200160405180910390a35050505050505050505050565b600061660c33613f75565b6183fe61a145565b6001600160801b03811660009081526028602090815260408083208054825181850281018501909352808352919290919083018282801561846857602002820191906000526020600020905b81546001600160a01b0316815260019091019060200180831161844a575b5050505050905060005b8151816001600160801b031610156120a057600082826001600160801b0316815181106184a1576184a161ecdc565b6020026020010151905060006184b78286614fe4565b90506184e481604051806040016040528060098152602001686e756d546f6b656e7360b81b81525061dcab565b618510816040518060400160405280600a8152602001690c6dedadad2e890c2e6d60b31b81525061dcab565b61853c816040518060400160405280600a815260200169636f6d6d6974566f746560b01b81525061dcab565b6001600160801b0385166000908152601f602090815260408083206001600160a01b03861684529091528120805466ffffffffffffff1916815590618584600183018261de72565b61859260028301600061de72565b506185a190506020600261edf7565b6185ad6020600361edf7565b6185b7919061eddf565b603760008282546185c8919061edc8565b92505081905550505080806185dc9061eda1565b915050618472565b606060006185f2848461791e565b949350505050565b6028602052816000526040600020818154811061861657600080fd5b6000918252602090912001546001600160a01b03169150829050565b61863a61a145565b6039805460ff1916911515919091179055565b600061865882614b93565b6186745760405162461bcd60e51b81526004016116ae9061eca5565b506001600160801b0316600090815260226020526040902060010154600160201b90046001600160401b031690565b60606186ae82614b93565b6186ca5760405162461bcd60e51b81526004016116ae9061eca5565b6001600160801b03821660009081526028602090815260408083208054825181850281018501909352808352919290919083018282801561873457602002820191906000526020600020905b81546001600160a01b03168152600190910190602001808311618716575b50505050509050600081516001600160401b038111156187565761875661e2c6565b60405190808252806020026020018201604052801561878957816020015b60608152602001906001900390816187745790505b50905060005b8251816001600160801b03161015611913576001600160801b038086166000908152601f602052604081208551909286919085169081106187d2576187d261ecdc565b60200260200101516001600160a01b03166001600160a01b0316815260200190815260200160002060020180546188089061ecf2565b80601f01602080910402602001604051908101604052809291908181526020018280546188349061ecf2565b80156188815780601f1061885657610100808354040283529160200191618881565b820191906000526020600020905b81548152906001019060200180831161886457829003601f168201915b505050505082826001600160801b0316815181106188a1576188a161ecdc565b602002602001018190525080806188b79061eda1565b91505061878f565b603b546001600160a01b03166188e75760405162461bcd60e51b81526004016116ae9061ed58565b6188ef615039565b6188f76120a5565b6189008161b56b565b61890981614a12565b61891b816001600160801b031661a19f565b611a9f8161191b565b61892c61a145565b61ffff16603855565b61893d61a145565b6039805469ffff0000ff00000000001916650100000000009315159390930269ffff0000000000000000191692909217600160401b61ffff9290921691909102179055565b606061898d82614b93565b6189a95760405162461bcd60e51b81526004016116ae9061eca5565b6001600160801b03808316600090815260226020908152604080832081516101c0810183528154958616815263ffffffff600160801b8704811694820194909452600160a01b86049093169183019190915261ffff600160c01b850481166060840152600160d01b85048116608084015260ff600160e01b86048116151560a0850152600160e81b86048116151560c0850152600160f01b909504909416151560e083015260018101548085166101008401526201000081049094166101208301526001600160401b03600160201b85048116610140840152600160601b9094049093166101608201526002830180549293919261018084019190618aad9061ecf2565b80601f0160208091040260200160405190810160405280929190818152602001828054618ad99061ecf2565b8015618b265780601f10618afb57610100808354040283529160200191618b26565b820191906000526020600020905b815481529060010190602001808311618b0957829003601f168201915b505050918352505060038281015460209092019160ff1690811115618b4d57618b4d61e0ef565b6003811115618b5e57618b5e61e0ef565b905250602081015190915063ffffffff166000816001600160401b03811115618b8957618b8961e2c6565b604051908082528060200260200182016040528015618bbc57816020015b6060815260200190600190039081618ba75790505b50905060005b82816001600160801b03161015616198578351600090618be390839061eec9565b6001600160801b038116600090815260216020526040812060020180549293509091618c0e9061ecf2565b80601f0160208091040260200160405190810160405280929190818152602001828054618c3a9061ecf2565b8015618c875780601f10618c5c57610100808354040283529160200191618c87565b820191906000526020600020905b815481529060010190602001808311618c6a57829003601f168201915b505050505090508084846001600160801b031681518110618caa57618caa61ecdc565b602002602001018190525050508080618cc29061eda1565b915050618bc2565b6001600160801b0382166000908152602860209081526040808320805482518185028101850190935280835284938493929190830182828015618d3657602002820191906000526020600020905b81546001600160a01b03168152600190910190602001808311618d18575b5050505050905060005b8151811015618d9757846001600160a01b0316828281518110618d6557618d6561ecdc565b60200260200101516001600160a01b03161415618d855760019250618d97565b80618d8f8161ed3d565b915050618d40565b5090949350505050565b618da961a145565b60005b816001600160801b0316816001600160801b031610156120a0576000618dd2828561eec9565b6001600160801b0381811660009081526022602052604081205492935090821691618e0a90600160801b900463ffffffff168361eec9565b9050815b816001600160801b0316816001600160801b03161015618ec2576001600160801b038116600090815260216020526040812080546001600160881b03191681556001810180546001600160a01b031916905590618e6e600283018261de72565b618e7c60038301600061de72565b618e8a60048301600061de72565b50618e9990506020600261edf7565b60376000828254618eaa919061edc8565b90915550819050618eba8161eda1565b915050618e0e565b506001600160801b038316600090815260226020526040812080546001600160f81b03191681556001810180546001600160a01b031916905590618f09600283018261de72565b50600301805460ff19169055618f216020600261edf7565b60376000828254618f32919061edc8565b90915550506001600160801b0383166000908152602960209081526040808320805461ffff19908116909155602a90925290912080549091169055618f796010600261edf7565b60376000828254618f8a919061edc8565b90915550506001600160801b038316600090815260286020908152604080832080548251818502810185019093528083529192909190830182828015618ff957602002820191906000526020600020905b81546001600160a01b03168152600190910190602001808311618fdb575b5050505050905060005b8151816001600160801b0316101561917557600082826001600160801b0316815181106190325761903261ecdc565b6020026020010151905060006190488288614fe4565b905061907581604051806040016040528060098152602001686e756d546f6b656e7360b81b81525061dcab565b6190a1816040518060400160405280600a8152602001690c6dedadad2e890c2e6d60b31b81525061dcab565b6190cd816040518060400160405280600a815260200169636f6d6d6974566f746560b01b81525061dcab565b6001600160801b0387166000908152601f602090815260408083206001600160a01b03861684529091528120805466ffffffffffffff1916815590619115600183018261de72565b61912360028301600061de72565b5061913290506020600261edf7565b61913e6020600361edf7565b619148919061eddf565b60376000828254619159919061edc8565b925050819055505050808061916d9061eda1565b915050619003565b506001600160801b03841660009081526028602052604081206191979161df30565b80516191a490602061edf7565b603760008282546191b5919061edc8565b90915550506040516001600160801b038516907f72c2fcc891fe835b86fc8bb9abdc52adf52499c52289b3c49e1461eabea2717590600090a26001602f60108282829054906101000a90046001600160801b0316619213919061eec9565b92506101000a8154816001600160801b0302191690836001600160801b031602179055505050505080806192469061eda1565b915050618dac565b603b546001600160a01b03166192765760405162461bcd60e51b81526004016116ae9061ed58565b60006192823383616698565b9050600061928f82615e38565b6001600160a01b0383166000908152602660205260409020546192b2919061edc8565b9050828110156193145760405162461bcd60e51b815260206004820152602760248201527f617661696c61626c65546f6b656e732073686f756c64206265203e3d205f6e756044820152666d546f6b656e7360c81b60648201526084016116ae565b603b546040805163ca64f9e760e01b815290516000926001600160a01b03169163ca64f9e7916004808301926020929190829003018186803b15801561935957600080fd5b505afa15801561936d573d6000803e3d6000fd5b505050506040513d601f19601f82011682018060405250810190619391919061eeeb565b6001600160a01b0384166000908152602660205260408120805492935086929091906193be90849061edc8565b9091555050604051630895993360e11b8152600481018590526001600160a01b03848116602483015282169063112b326690604401602060405180830381600087803b15801561940d57600080fd5b505af1158015619421573d6000803e3d6000fd5b505050506040513d601f19601f82011682018060405250810190619445919061ee16565b6194b75760405162461bcd60e51b815260206004820152603b60248201527f436f756c64206e6f74207769746864726177566f74696e67526967687473207460448201527f68726f7567682050726f78795374616b654465616c6c6f63617465000000000060648201526084016116ae565b6194bf61abff565b826001600160a01b03167ffaeb7dbb9992397d26ea1944efd40c80b40f702faf69b46c67ad10aba68ccb79856040516194fa91815260200190565b60405180910390a250505050565b606061951382614b93565b61951c57600080fd5b6001600160801b038216600090815260226020526040902060020180546195429061ecf2565b80601f016020809104026020016040519081016040528092919081815260200182805461956e9061ecf2565b80156195bb5780601f10619590576101008083540402835291602001916195bb565b820191906000526020600020905b81548152906001019060200180831161959e57829003601f168201915b50505050509050919050565b6195cf61a145565b6001600160a01b0381166196345760405162461bcd60e51b815260206004820152602660248201527f4f776e61626c653a206e6577206f776e657220697320746865207a65726f206160448201526564647265737360d01b60648201526084016116ae565b611aa78161dbf1565b6000828260405160200161501b92919061f1ea565b3360009081526024602052604090208054600160e01b900460ff166196fd57602e80546001810182556000919091527f37fa166cbdbfbb1561ccd9ea985ec0218b5e68502e230525f544285b2bdf3d7e0180546001600160a01b03191633179055805460ff60e01b1916600160e01b1781556196d0600f602061edf7565b6196dc6001602061eddf565b6196e6919061eddf565b603760008282546196f7919061eddf565b90915550505b603b546001600160a01b03166197255760405162461bcd60e51b81526004016116ae9061ed58565b603b60009054906101000a90046001600160a01b03166001600160a01b03166398a54e2b6040518163ffffffff1660e01b815260040160206040518083038186803b15801561977357600080fd5b505afa158015619787573d6000803e3d6000fd5b505050506040513d601f19601f820116820180604052508101906197ab919061ed8f565b602c54602b546197bb919061eddf565b106198135760405162461bcd60e51b815260206004820152602260248201527f4d6178696d756d207265676973746572656420776f726b65727320616c726561604482015261647960f01b60648201526084016116ae565b8054600160d01b900460ff161561986c5760405162461bcd60e51b815260206004820181905260248201527f576f726b657220697320616c726561647920726567697374657265642028312960448201526064016116ae565b3360009081526027602052604090205460ff161580156198a1575033600090815260276020526040902054610100900460ff16155b6198ed5760405162461bcd60e51b815260206004820181905260248201527f576f726b657220697320616c726561647920726567697374657265642028322960448201526064016116ae565b603b60009054906101000a90046001600160a01b03166001600160a01b0316639fb491f66040518163ffffffff1660e01b815260040160206040518083038186803b15801561993b57600080fd5b505afa15801561994f573d6000803e3d6000fd5b505050506040513d601f19601f82011682018060405250810190619973919061ed8f565b8154600160c01b900461ffff1610801590619a295750603b60009054906101000a90046001600160a01b03166001600160a01b0316630f1f0ffe6040518163ffffffff1660e01b815260040160206040518083038186803b1580156199d757600080fd5b505afa1580156199eb573d6000803e3d6000fd5b505050506040513d601f19601f82011682018060405250810190619a0f919061ed8f565b6001820154619a27906001600160401b03164261edc8565b105b15619a8c5760405162461bcd60e51b815260206004820152602d60248201527f41646472657373206b69636b65642074656d706f726172696c792066726f6d2060448201526c3830b93a34b1b4b830ba34b7b760991b60648201526084016116ae565b60395460ff1615619b7c57603b54604080516001624ee91360e11b0319815290516000926001600160a01b03169163ff622dda916004808301926020929190829003018186803b158015619adf57600080fd5b505afa158015619af3573d6000803e3d6000fd5b505050506040513d601f19601f82011682018060405250810190619b17919061ed8f565b90506000619b253383616698565b6001600160a01b038116600090815260266020526040902054909150821115619b79576001600160a01b038116600090815260266020526040812054619b6b908461edc8565b9050619b77818361aed7565b505b50505b619b853361dafe565b80546001820180546001600160401b03421667ffffffffffffffff1990911617905563ffffffff60c01b1916600160d01b178155619bc56020600261edf7565b60376000828254619bd6919061eddf565b92505081905550600160356000828254619bf0919061eddf565b90915550619bfe905061abff565b60405142815233907f439d77b7534ec3108fc6143bd4fbabde0b9f2bb54f7b0730d1f70dd2135b765f9060200160405180910390a250565b6001600160a01b038116600090815260246020908152604080832081516101408101835281546001600160801b0381168083526001600160401b03600160801b80840482169785019790975261ffff600160c01b808504919091169685019690965260ff600160d01b8404811615156060860152600160d81b8404811615156080860152600160e01b909304909216151560a084015260019093015480821660c0840152600160401b8104821660e0840152948504811661010083015292909304909116610120830152619d0a84826162e6565b158015619d1b5750619d1b8161416b565b15619d24575060005b6001600160801b03169392505050565b619da8604080516101c08101825260008082526020820181905291810182905260608082018390526080820183905260a0820183905260c0820183905260e082018390526101008201839052610120820183905261014082018390526101608201839052610180820152906101a082015290565b619db182614b93565b619dba57600080fd5b6001600160801b0380831660009081526022602090815260409182902082516101c0810184528154948516815263ffffffff600160801b8604811693820193909352600160a01b85049092169282019290925261ffff600160c01b840481166060830152600160d01b84048116608083015260ff600160e01b85048116151560a0840152600160e81b85048116151560c0840152600160f01b909404909316151560e082015260018201548084166101008301526201000081049093166101208201526001600160401b03600160201b84048116610140830152600160601b90930490921661016083015260028101805461018084019190619ebb9061ecf2565b80601f0160208091040260200160405190810160405280929190818152602001828054619ee79061ecf2565b8015619f345780601f10619f0957610100808354040283529160200191619f34565b820191906000526020600020905b815481529060010190602001808311619f1757829003601f168201915b505050918352505060038281015460209092019160ff1690811115619f5b57619f5b61e0ef565b6003811115619f6c57619f6c61e0ef565b90525092915050565b6000619f80836142a5565b619fdf5760405162461bcd60e51b815260206004820152602a60248201527f5f446174614261746368496420636865636b696e6720766f7465206d757374206044820152691a185d9948195b99195960b21b60648201526084016116ae565b6001600160801b0383166000908152601f602090815260408083206001600160a01b0388168452909152902054610100900460ff1661a0745760405162461bcd60e51b815260206004820152602b60248201527f75736572206d75737420686176652072657665616c656420696e20746869732060448201526a0ced2eccadc4084c2e8c6d60ab1b60648201526084016116ae565b600061a07f8461457f565b61a08a57600061a08d565b60015b60405160f082901b60ff60f01b1660208201526022810185905260ff9091169150600090604201604051602081830303815290604052805190602001209050600061a0d887876144f9565b905080821461a13b5760405162461bcd60e51b815260206004820152602960248201527f6765744e756d50617373696e67546f6b656e733a20686173686573206d75737460448201526808189948195c5d585b60ba1b60648201526084016116ae565b61524a87876162b0565b6000546001600160a01b03163314614a085760405162461bcd60e51b815260206004820181905260248201527f4f776e61626c653a2063616c6c6572206973206e6f7420746865206f776e657260448201526064016116ae565b600061a1b082602d8054905061dd04565b905060005b8181101561a2bb576000602d828154811061a1d25761a1d261ecdc565b60009182526020808320909101546001600160a01b0316808352602490915260409091208054919250906001600160801b031661a2a657805461ffff60d01b1916815561a21e8261b196565b61a2278261b303565b6001600160a01b03821660008181526027602052604090819020805462ff000019169055517f9dadcedba048e92b943ea1c5861cee1df63a566d7f795869c004780c1c698e2b9061a27b9042815260200190565b60405180910390a261a28f6001600361edf7565b6037600082825461a2a0919061edc8565b90915550505b5050808061a2b39061ed3d565b91505061a1b5565b50602d5461229557612295602d600061df30565b6031546001600160801b0316600090815260226020526040902054600160e01b900460ff1661a35f5760405162461bcd60e51b815260206004820152603660248201527f43616e277420616c6c6f6361746520776f726b2c207468652063757272656e74604482015275206261746368206973206e6f7420636f6d706c65746560501b60648201526084016116ae565b6031546001600160801b0316600090815260226020526040902054600160f01b900460ff161561a3f75760405162461bcd60e51b815260206004820152603b60248201527f43616e277420616c6c6f6361746520776f726b2c207468652063757272656e7460448201527f20626174636820697320616c726561647920616c6c6f6361746564000000000060648201526084016116ae565b600061a51b61a490602b80549050603b60009054906101000a90046001600160a01b03166001600160a01b031663dfeceed76040518163ffffffff1660e01b815260040160206040518083038186803b15801561a45357600080fd5b505afa15801561a467573d6000803e3d6000fd5b505050506040513d601f19601f8201168201806040525081019061a48b919061ed8f565b61dd04565b603b60009054906101000a90046001600160a01b03166001600160a01b031663bd40ef4c6040518163ffffffff1660e01b815260040160206040518083038186803b15801561a4de57600080fd5b505afa15801561a4f2573d6000803e3d6000fd5b505050506040513d601f19601f8201168201806040525081019061a516919061ed8f565b61dd1a565b9050603261ffff8216111561a5985760405162461bcd60e51b815260206004820152603960248201527f73656c65637465645f6b206d757374206265206174206d6f7374204d41585f5760448201527f4f524b45525f414c4c4f43415445445f5045525f42415443480000000000000060648201526084016116ae565b602b54603b546040805163189460df60e31b815290516001600160a01b039092169163c4a306f891600480820192602092909190829003018186803b15801561a5e057600080fd5b505afa15801561a5f4573d6000803e3d6000fd5b505050506040513d601f19601f8201168201806040525081019061a618919061ed8f565b60005461a63590600160a81b90046001600160401b03164261f0d3565b6001600160401b031610612295576031546001600160801b03166000818152602260209081526040808320805463ffffffff60c01b1916600160d01b61ffff891690810261ffff60c01b191691909117600160c01b91909102179055603b548151631b4930b560e11b815291516001600160a01b0390911692633692616a9260048082019391829003018186803b15801561a6cf57600080fd5b505afa15801561a6e3573d6000803e3d6000fd5b505050506040513d601f19601f8201168201806040525081019061a707919061ed8f565b61a711904261eddf565b90506000603b60009054906101000a90046001600160a01b03166001600160a01b03166372e540306040518163ffffffff1660e01b815260040160206040518083038186803b15801561a76357600080fd5b505afa15801561a777573d6000803e3d6000fd5b505050506040513d601f19601f8201168201806040525081019061a79b919061ed8f565b61a7ae906001600160401b03841661eddf565b6001600160801b0384166000908152602260205260409020600180820180546001600160401b03808616600160601b0267ffffffffffffffff60601b19918916600160201b029190911673ffffffffffffffffffffffffffffffff000000001990921691909117179055815460ff60f01b1916600160f01b1790915590915061a8396008600461edf7565b61a84460028061edf7565b61a84e919061eddf565b61a858919061eddf565b6037600082825461a869919061eddf565b9091555050600161ffff86161080159061a884575060018410155b61a8e35760405162461bcd60e51b815260206004820152602a60248201527f4661696c20647572696e6720616c6c6f636174696f6e3a206e6f7420656e6f75604482015269676820776f726b65727360b01b60648201526084016116ae565b600061a8f38661ffff16866185e4565b9050600081516001600160401b0381111561a9105761a91061e2c6565b60405190808252806020026020018201604052801561a939578160200160208202803683370190505b50905060005b825181101561a9ce57602b83828151811061a95c5761a95c61ecdc565b60200260200101518154811061a9745761a97461ecdc565b9060005260206000200160009054906101000a90046001600160a01b031682828151811061a9a45761a9a461ecdc565b6001600160a01b03909216602092830291909101909101528061a9c68161ed3d565b91505061a93f565b5060005b825181101561ab6a57600082828151811061a9ef5761a9ef61ecdc565b6020908102919091018101516001600160a01b03811660008181526024845260408082206001600160801b038d168352601f86528183209383529290945292909220805461ffff19169055915061aa458261b196565b61aa4e8261dd29565b6001600160801b03881660008181526028602090815260408220805460018082018355918452919092200180546001600160a01b0319166001600160a01b03861617905582546001600160801b0319169091178255818101805460089061aac6908490600160401b90046001600160401b031661f20c565b92506101000a8154816001600160401b0302191690836001600160401b031602179055506020600461aaf8919061eddf565b6037600082825461ab09919061eddf565b90915550506040516001600160a01b03831681526001600160801b038916907fe4ee2dfabe57cee15e3f558890b20455f54c1fa0718e5276faad70a6500e6b8c9060200160405180910390a25050808061ab629061ed3d565b91505061a9d2565b506000805467ffffffffffffffff60a81b1916600160a81b426001600160401b031602178155603180546001929061abac9084906001600160801b031661eec9565b92506101000a8154816001600160801b0302191690836001600160801b0316021790555061abd8617516565b60348190555060016035600082825461abf1919061eddf565b909155505050505050505050565b603b546001600160a01b031661ac275760405162461bcd60e51b81526004016116ae9061ed58565b603b5460408051632abe0d5f60e11b815290516000926001600160a01b03169163557c1abe916004808301926020929190829003018186803b15801561ac6c57600080fd5b505afa15801561ac80573d6000803e3d6000fd5b505050506040513d601f19601f8201168201806040525081019061aca4919061eeeb565b90506001600160a01b03811661acfc5760405162461bcd60e51b815260206004820152601d60248201527f734675656c3a206e756c6c2041646472657373204e6f742056616c696400000060448201526064016116ae565b6040513360248201526000906001600160a01b0383169060440160408051601f198184030181529181526020820180516001600160e01b0316631f5ac9c560e11b1790525161ad4b919061f1ba565b6000604051808303816000865af19150503d806000811461ad88576040519150601f19603f3d011682016040523d82523d6000602084013e61ad8d565b606091505b50506040513360248201529091506000906001600160a01b0384169060440160408051601f198184030181529181526020820180516001600160e01b03166358563d2160e01b1790525161ade1919061f1ba565b6000604051808303816000865af19150503d806000811461ae1e576040519150601f19603f3d011682016040523d82523d6000602084013e61ae23565b606091505b50509050818061ae305750805b6120a05760405162461bcd60e51b815260206004820152602560248201527f72656365697665722072656a6563746564205f7265747269657665534675656c6044820152640818d85b1b60da1b60648201526084016116ae565b600054600160a01b900460ff1615614a085760405162461bcd60e51b815260206004820152601060248201526f14185d5cd8589b194e881c185d5cd95960821b60448201526064016116ae565b603b546040805163ca64f9e760e01b815290516000926001600160a01b03169163ca64f9e7916004808301926020929190829003018186803b15801561af1c57600080fd5b505afa15801561af30573d6000803e3d6000fd5b505050506040513d601f19601f8201168201806040525081019061af54919061eeeb565b6001600160a01b0316141561af7b5760405162461bcd60e51b81526004016116ae9061f152565b603b546040805163ca64f9e760e01b815290516000926001600160a01b03169163ca64f9e7916004808301926020929190829003018186803b15801561afc057600080fd5b505afa15801561afd4573d6000803e3d6000fd5b505050506040513d601f19601f8201168201806040525081019061aff8919061eeeb565b6040516304ada21f60e21b8152600481018590526001600160a01b038481166024830152919250908216906312b6887c90604401602060405180830381600087803b15801561b04657600080fd5b505af115801561b05a573d6000803e3d6000fd5b505050506040513d601f19601f8201168201806040525081019061b07e919061ee16565b61b0f05760405162461bcd60e51b815260206004820152603f60248201527f436f756c64206e6f74207265717565737420656e6f75676820616c6c6f63617460448201527f6564207374616b652c2072657175657374416c6c6f63617465645374616b650060648201526084016116ae565b6001600160a01b03821660009081526026602052604090205461b1265760206037600082825461b120919061eddf565b90915550505b6001600160a01b0382166000908152602660205260408120805485929061b14e90849061eddf565b90915550506040518381526001600160a01b038316907f5aa5d56140767016c877a5333ac3e1ad31a09051098a8fdf7297c4b64530a9429060200160405180910390a2505050565b6001600160a01b0381166000908152602760205260409020805460ff1615612295578054602b8054630100000090920463ffffffff16916000919061b1dd9060019061edc8565b8154811061b1ed5761b1ed61ecdc565b600091825260209091200154835460ff1981168555603b5466ffffffff0000ff19909116600160a01b90910463ffffffff16630100000002178455602b546001600160a01b03909116915060021161b2ac5780602b8363ffffffff168154811061b2595761b25961ecdc565b600091825260208083209190910180546001600160a01b0319166001600160a01b039485161790559183168152602790915260409020805466ffffffff0000001916630100000063ffffffff8516021790555b602b80548061b2bd5761b2bd61f22e565b6001900381819060005260206000200160006101000a8154906001600160a01b030219169055905560206037600082825461b2f8919061edc8565b909155505050505050565b6001600160a01b03811660009081526027602052604090208054610100900460ff1615612295578054602c8054600160381b90920463ffffffff16916000919061b34f9060019061edc8565b8154811061b35f5761b35f61ecdc565b600091825260209091200154835461ff001981168555603b546affffffff0000000000ff0019909116600160a01b90910463ffffffff16600160381b02178455602c546001600160a01b03909116915060021161b4235780602c8363ffffffff168154811061b3d05761b3d061ecdc565b600091825260208083209190910180546001600160a01b0319166001600160a01b039485161790559183168152602790915260409020805463ffffffff60381b1916600160381b63ffffffff8516021790555b602c80548061b2bd5761b2bd61f22e565b6001600160a01b0381166000908152602760205260409020805462010000900460ff1615612295578054602d8054600160581b90920463ffffffff16916000919061b4819060019061edc8565b8154811061b4915761b49161ecdc565b600091825260209091200154835462ff00001981168555603b546effffffff0000000000000000ff000019909116600160a01b90910463ffffffff16600160581b02178455602c546001600160a01b03909116915060021161b55a5780602d8363ffffffff168154811061b5075761b50761ecdc565b600091825260208083209190910180546001600160a01b0319166001600160a01b039485161790559183168152602790915260409020805463ffffffff60581b1916600160581b63ffffffff8516021790555b602d80548061b2bd5761b2bd61f22e565b602f546030546001600160801b03600160801b9283900481169260009261b5979285929091041661ee33565b9050603b60009054906101000a90046001600160a01b03166001600160a01b031663e3115d3c6040518163ffffffff1660e01b815260040160206040518083038186803b15801561b5e757600080fd5b505afa15801561b5fb573d6000803e3d6000fd5b505050506040513d601f19601f8201168201806040525081019061b61f919061ed8f565b816001600160801b0316118061b639575060385460375410155b156120a057602f54600160801b90046001600160801b0316915060005b836001600160801b0316816001600160801b03161015614fce576001600160801b038381166000908152602260205260408120549182169161b6a590600160801b900463ffffffff168361eec9565b9050815b816001600160801b0316816001600160801b0316101561b75d576001600160801b038116600090815260216020526040812080546001600160881b03191681556001810180546001600160a01b03191690559061b709600283018261de72565b61b71760038301600061de72565b61b72560048301600061de72565b5061b73490506020600261edf7565b6037600082825461b745919061edc8565b9091555081905061b7558161eda1565b91505061b6a9565b506001600160801b038516600090815260226020526040812080546001600160f81b03191681556001810180546001600160a01b03191690559061b7a4600283018261de72565b50600301805460ff1916905561b7bc6020600261edf7565b6037600082825461b7cd919061edc8565b90915550506001600160801b0385166000908152602960209081526040808320805461ffff19908116909155602a9092529091208054909116905561b8146010600261edf7565b6037600082825461b825919061edc8565b90915550506001600160801b03851660009081526028602090815260408083208054825181850281018501909352808352919290919083018282801561b89457602002820191906000526020600020905b81546001600160a01b0316815260019091019060200180831161b876575b5050505050905060005b8151816001600160801b0316101561ba1057600082826001600160801b03168151811061b8cd5761b8cd61ecdc565b60200260200101519050600061b8e3828a614fe4565b905061b91081604051806040016040528060098152602001686e756d546f6b656e7360b81b81525061dcab565b61b93c816040518060400160405280600a8152602001690c6dedadad2e890c2e6d60b31b81525061dcab565b61b968816040518060400160405280600a815260200169636f6d6d6974566f746560b01b81525061dcab565b6001600160801b0389166000908152601f602090815260408083206001600160a01b03861684529091528120805466ffffffffffffff191681559061b9b0600183018261de72565b61b9be60028301600061de72565b5061b9cd90506020600261edf7565b61b9d96020600361edf7565b61b9e3919061eddf565b6037600082825461b9f4919061edc8565b925050819055505050808061ba089061eda1565b91505061b89e565b506001600160801b038616600090815260286020526040812061ba329161df30565b805161ba3f90602061edf7565b6037600082825461ba50919061edc8565b90915550506040516001600160801b038716907f72c2fcc891fe835b86fc8bb9abdc52adf52499c52289b3c49e1461eabea2717590600090a26001602f60108282829054906101000a90046001600160801b031661baae919061eec9565b92506101000a8154816001600160801b0302191690836001600160801b03160217905550505050808061bae09061eda1565b91505061b656565b61baf061de22565b6000805460ff60a01b191690557f5db9ee0a495bf2e6ff9c91a7834c1ba4fdd244a5e8aa4e537bd38aeae4b073aa335b6040516001600160a01b03909116815260200160405180910390a1565b61bb4561ae8a565b6000805460ff60a01b1916600160a01b1790557f62e78cea01bee320cd4e420270b5ea74000d11b0c9f74754ebdbfc544b05a25861bb203390565b603b546001600160a01b031661bba85760405162461bcd60e51b81526004016116ae9061ed58565b603b5460408051632a49798160e11b815290516000926001600160a01b031691635492f302916004808301926020929190829003018186803b15801561bbed57600080fd5b505afa15801561bc01573d6000803e3d6000fd5b505050506040513d601f19601f8201168201806040525081019061bc25919061eeeb565b6001600160a01b0316141561bc4c5760405162461bcd60e51b81526004016116ae9061f10e565b603b5460408051630855d15160e01b815290516000926001600160a01b031691630855d151916004808301926020929190829003018186803b15801561bc9157600080fd5b505afa15801561bca5573d6000803e3d6000fd5b505050506040513d601f19601f8201168201806040525081019061bcc9919061eeeb565b6001600160a01b0316141561bd205760405162461bcd60e51b815260206004820181905260248201527f5265704d616e61676572206973206e756c6c20696e20506172616d657465727360448201526064016116ae565b603b54604080516304e76c8f60e01b815290516000926001600160a01b0316916304e76c8f916004808301926020929190829003018186803b15801561bd6557600080fd5b505afa15801561bd79573d6000803e3d6000fd5b505050506040513d601f19601f8201168201806040525081019061bd9d919061eeeb565b6001600160a01b0316141561be005760405162461bcd60e51b815260206004820152602360248201527f5265776172644d616e61676572206973206e756c6c20696e20506172616d657460448201526265727360e81b60648201526084016116ae565b61be09816142a5565b8061be3557506001600160801b038116600090815260226020526040902054600160d01b900461ffff16155b61bea75760405162461bcd60e51b815260206004820152603a60248201527f5f446174614261746368496420686173206e6f7420656e6465642c206f72206e60448201527f6f7420657665727920766f74657273206861766520766f74656400000000000060648201526084016116ae565b6001600160801b038116600090815260226020526040902054600160e81b900460ff161561bf215760405162461bcd60e51b815260206004820152602160248201527f5f446174614261746368496420697320616c72656164792076616c69646174656044820152601960fa1b60648201526084016116ae565b6001600160801b03811660009081526028602090815260408083208054825181850281018501909352808352919290919083018282801561bf8b57602002820191906000526020600020905b81546001600160a01b0316815260019091019060200180831161bf6d575b50505050509050600081516001600160401b0381111561bfad5761bfad61e2c6565b60405190808252806020026020018201604052801561bfe057816020015b606081526020019060019003908161bfcb5790505b509050600082516001600160401b0381111561bffe5761bffe61e2c6565b60405190808252806020026020018201604052801561c027578160200160208202803683370190505b50905060005b835181101561c1b257600084828151811061c04a5761c04a61ecdc565b6020908102919091018101516001600160801b0388166000908152601f835260408082206001600160a01b038416835290935291822060010180549193509061c0929061ecf2565b80601f016020809104026020016040519081016040528092919081815260200182805461c0be9061ecf2565b801561c10b5780601f1061c0e05761010080835404028352916020019161c10b565b820191906000526020600020905b81548152906001019060200180831161c0ee57829003601f168201915b505050506001600160801b0389166000908152601f602090815260408083206001600160a01b038816845290915290205487519293506301000000900463ffffffff169183915087908690811061c1645761c16461ecdc565b60200260200101819052508085858151811061c1825761c18261ecdc565b602002602001019063ffffffff16908163ffffffff1681525050505050808061c1aa9061ed3d565b91505061c02d565b50600061c25d6064603b60009054906101000a90046001600160a01b03166001600160a01b031663ea19733c6040518163ffffffff1660e01b815260040160206040518083038186803b15801561c20857600080fd5b505afa15801561c21c573d6000803e3d6000fd5b505050506040513d601f19601f8201168201806040525081019061c240919061ed8f565b865161c24c919061edf7565b61c256919061ef1e565b600161dd1a565b60408051602081019091526000808252919250905b845181101561c331576000805b865181101561c2f45761c2c487848151811061c29d5761c29d61ecdc565b602002602001015188838151811061c2b75761c2b761ecdc565b60200260200101516174b0565b1561c2e25761c2d460018361eddf565b915084821061c2e25761c2f4565b8061c2ec8161ed3d565b91505061c27f565b5083811061c31e5785828151811061c30e5761c30e61ecdc565b602002602001015192505061c331565b508061c3298161ed3d565b91505061c272565b506000805b84518163ffffffff16101561c40c576000805b865181101561c3c95786818151811061c3645761c36461ecdc565b602002602001015163ffffffff16878463ffffffff168151811061c38a5761c38a61ecdc565b602002602001015163ffffffff16141561c3b75761c3a960018361eddf565b915085821061c3b75761c3c9565b8061c3c18161ed3d565b91505061c349565b5084811061c3f957858263ffffffff168151811061c3e95761c3e961ecdc565b602002602001015192505061c40c565b508061c4048161f244565b91505061c336565b50600061c4188861457f565b801561c43a575061c43883604051806020016040528060008152506174b0565b155b801561c44b575063ffffffff821615155b6039549091506301000000900460ff161561c7b1576001600160801b03808916600090815260226020908152604080832081516101c0810183528154958616815263ffffffff600160801b8704811694820194909452600160a01b86049093169183019190915261ffff600160c01b850481166060840152600160d01b85048116608084015260ff600160e01b86048116151560a0850152600160e81b86048116151560c0850152600160f01b909504909416151560e083015260018101548085166101008401526201000081049094166101208301526001600160401b03600160201b85048116610140840152600160601b909404909316610160820152600283018054929391926101808401919061c5649061ecf2565b80601f016020809104026020016040519081016040528092919081815260200182805461c5909061ecf2565b801561c5dd5780601f1061c5b25761010080835404028352916020019161c5dd565b820191906000526020600020905b81548152906001019060200180831161c5c057829003601f168201915b505050918352505060038281015460209092019160ff169081111561c6045761c60461e0ef565b600381111561c6155761c61561e0ef565b90525061010081015190915061ffff161561c62f57600191505b61c64884604051806020016040528060008152506174b0565b1561c7af5760005b885181101561c7ad576001600160801b038a166000908152601f602052604081208a519091908b908490811061c6885761c68861ecdc565b6020908102919091018101516001600160a01b0316825281019190915260400160002054610100900460ff1661c6bd5761c79b565b61c6ef88828151811061c6d25761c6d261ecdc565b6020026020010151604051806020016040528060008152506174b0565b61c7105787818151811061c7055761c70561ecdc565b602002602001015194505b63ffffffff841615801561c7435750600087828151811061c7335761c73361ecdc565b602002602001015163ffffffff16115b1561c7655786818151811061c75a5761c75a61ecdc565b602002602001015193505b61c77e85604051806020016040528060008152506174b0565b15801561c791575060008463ffffffff16115b1561c79b5761c7ad565b8061c7a58161ed3d565b91505061c650565b505b505b8061c7cb57603954600160601b900461ffff16915061c823565b6039546001600160801b03891660009081526022602052604090205461c8209161c80e91600160601b90910461ffff1690600160801b900463ffffffff1661f25e565b63ffffffff168363ffffffff1661dd04565b91505b60005b875181101561d01357600088828151811061c8435761c84361ecdc565b6020908102919091018101516001600160801b038c166000908152601f835260408082206001600160a01b03841683528452808220546024909452902090925060ff62010000830481169261010090041690811561cead576001600160a01b0384166000908152602460205260409020805461ffff60c01b1916905585801561c8cc5750826001145b8061c8e157508515801561c8e1575082600114155b1561ce5f57603b5460408051632a49798160e11b815290516000926001600160a01b031691635492f302916004808301926020929190829003018186803b15801561c92b57600080fd5b505afa15801561c93f573d6000803e3d6000fd5b505050506040513d601f19601f8201168201806040525081019061c963919061eeeb565b90506000603b60009054906101000a90046001600160a01b03166001600160a01b0316630855d1516040518163ffffffff1660e01b815260040160206040518083038186803b15801561c9b557600080fd5b505afa15801561c9c9573d6000803e3d6000fd5b505050506040513d601f19601f8201168201806040525081019061c9ed919061eeeb565b90506000603b60009054906101000a90046001600160a01b03166001600160a01b03166304e76c8f6040518163ffffffff1660e01b815260040160206040518083038186803b15801561ca3f57600080fd5b505afa15801561ca53573d6000803e3d6000fd5b505050506040513d601f19601f8201168201806040525081019061ca77919061eeeb565b6040516308c0a84360e11b81526001600160a01b03898116600483015291925060009185169063118150869060240160206040518083038186803b15801561cabe57600080fd5b505afa15801561cad2573d6000803e3d6000fd5b505050506040513d601f19601f8201168201806040525081019061caf6919061eeeb565b905063ffffffff8b161561ce0d57826001600160a01b0316631b6d990a8c63ffffffff16603b60009054906101000a90046001600160a01b03166001600160a01b0316630b08bfd96040518163ffffffff1660e01b815260040160206040518083038186803b15801561cb6857600080fd5b505afa15801561cb7c573d6000803e3d6000fd5b505050506040513d601f19601f8201168201806040525081019061cba0919061ed8f565b61cbaa919061edf7565b6040516001600160e01b031960e084901b16815260048101919091526001600160a01b038416602482015260006044820152606401602060405180830381600087803b15801561cbf957600080fd5b505af115801561cc0d573d6000803e3d6000fd5b505050506040513d601f19601f8201168201806040525081019061cc31919061ee16565b61cc8b5760405162461bcd60e51b815260206004820152602560248201527f636f756c64206e6f74207265776172642052455020696e2056616c69646174656044820152642c20312e6160d81b60648201526084016116ae565b816001600160a01b031663e0ca50948c63ffffffff16603b60009054906101000a90046001600160a01b03166001600160a01b031663f80de0a06040518163ffffffff1660e01b815260040160206040518083038186803b15801561ccef57600080fd5b505afa15801561cd03573d6000803e3d6000fd5b505050506040513d601f19601f8201168201806040525081019061cd27919061ed8f565b61cd31919061edf7565b6040516001600160e01b031960e084901b16815260048101919091526001600160a01b0384166024820152604401602060405180830381600087803b15801561cd7957600080fd5b505af115801561cd8d573d6000803e3d6000fd5b505050506040513d601f19601f8201168201806040525081019061cdb1919061ee16565b61ce0d5760405162461bcd60e51b815260206004820152602760248201527f636f756c64206e6f742072657761726420746f6b656e20696e2056616c6964616044820152663a32961018973160c91b60648201526084016116ae565b6001858101805460109061ce32908490600160801b90046001600160401b031661f20c565b92506101000a8154816001600160401b0302191690836001600160401b031602179055505050505061cffc565b6001818101805460189061ce84908490600160c01b90046001600160401b031661f20c565b92506101000a8154816001600160401b0302191690836001600160401b0316021790555061cffc565b6001600160a01b038416600090815260246020526040902080546001919060189061cee4908490600160c01b900461ffff1661f06f565b92506101000a81548161ffff021916908361ffff160217905550603b60009054906101000a90046001600160a01b03166001600160a01b0316639fb491f66040518163ffffffff1660e01b815260040160206040518083038186803b15801561cf4c57600080fd5b505afa15801561cf60573d6000803e3d6000fd5b505050506040513d601f19601f8201168201806040525081019061cf84919061ed8f565b6001600160a01b038516600090815260246020526040902054600160c01b900461ffff161061cfca57805460ff60d01b1916815561cfc18461b303565b61cfca8461b196565b8054600160d01b900460ff161561cfed5761cfe48461b303565b61cfed8461dafe565b80546001600160801b03191681555b50505050808061d00b9061ed3d565b91505061c826565b506001600160801b0388166000908152602260209081526040909120805460ff60e81b1916600160e81b178155845161d0549260029092019186019061deac565b506001600160801b0388166000908152602260205260409020805463ffffffff60a01b1916600160a01b63ffffffff851602179055801561d8af576001600160801b038881166000908152602260205260408120549182169161d0c490600160801b900463ffffffff168361eec9565b9050815b816001600160801b0316816001600160801b0316101561d5c1576001600160801b038116600090815260216020908152604080832060010154603b548251632a49798160e11b815292516001600160a01b0392831695949190921692635492f3029260048083019392829003018186803b15801561d14557600080fd5b505afa15801561d159573d6000803e3d6000fd5b505050506040513d601f19601f8201168201806040525081019061d17d919061eeeb565b90506000603b60009054906101000a90046001600160a01b03166001600160a01b0316630855d1516040518163ffffffff1660e01b815260040160206040518083038186803b15801561d1cf57600080fd5b505afa15801561d1e3573d6000803e3d6000fd5b505050506040513d601f19601f8201168201806040525081019061d207919061eeeb565b90506000603b60009054906101000a90046001600160a01b03166001600160a01b03166304e76c8f6040518163ffffffff1660e01b815260040160206040518083038186803b15801561d25957600080fd5b505afa15801561d26d573d6000803e3d6000fd5b505050506040513d601f19601f8201168201806040525081019061d291919061eeeb565b6040516308c0a84360e11b81526001600160a01b03868116600483015291925060009185169063118150869060240160206040518083038186803b15801561d2d857600080fd5b505afa15801561d2ec573d6000803e3d6000fd5b505050506040513d601f19601f8201168201806040525081019061d310919061eeeb565b905063ffffffff8a161561d5a957826001600160a01b0316631b6d990a8b63ffffffff16603b60009054906101000a90046001600160a01b03166001600160a01b031663abb10b9b6040518163ffffffff1660e01b815260040160206040518083038186803b15801561d38257600080fd5b505afa15801561d396573d6000803e3d6000fd5b505050506040513d601f19601f8201168201806040525081019061d3ba919061ed8f565b61d3c4919061edf7565b6040516001600160e01b031960e084901b16815260048101919091526001600160a01b038416602482015260006044820152606401602060405180830381600087803b15801561d41357600080fd5b505af115801561d427573d6000803e3d6000fd5b505050506040513d601f19601f8201168201806040525081019061d44b919061ee16565b61d4675760405162461bcd60e51b81526004016116ae9061ef32565b816001600160a01b031663e0ca50948b63ffffffff16603b60009054906101000a90046001600160a01b03166001600160a01b03166330c0bb796040518163ffffffff1660e01b815260040160206040518083038186803b15801561d4cb57600080fd5b505afa15801561d4df573d6000803e3d6000fd5b505050506040513d601f19601f8201168201806040525081019061d503919061ed8f565b61d50d919061edf7565b6040516001600160e01b031960e084901b16815260048101919091526001600160a01b0384166024820152604401602060405180830381600087803b15801561d55557600080fd5b505af115801561d569573d6000803e3d6000fd5b505050506040513d601f19601f8201168201806040525081019061d58d919061ee16565b61d5a95760405162461bcd60e51b81526004016116ae9061ef80565b5050505050808061d5b99061eda1565b91505061d0c8565b506001600160801b038a81166000908152602260205260409020600301805460ff19166001908117909155603180549192909160109161d60b918591600160801b9091041661eec9565b92506101000a8154816001600160801b0302191690836001600160801b03160217905550602060046001600261d641919061edf7565b61d64b919061eddf565b61d655919061eddf565b6037600082825461d666919061eddf565b9091555050603b5460408051637b39b17f60e11b815290516000926001600160a01b03169163f67362fe916004808301926020929190829003018186803b15801561d6b057600080fd5b505afa15801561d6c4573d6000803e3d6000fd5b505050506040513d601f19601f8201168201806040525081019061d6e8919061eeeb565b6001600160a01b0316141561d7545760405162461bcd60e51b815260206004820152602c60248201527f436f6d706c69616e636553797374656d206e756c6c20696e20506172616d657460448201526b195c9cc810dbdb9d1c9858dd60a21b60648201526084016116ae565b603b5460408051637b39b17f60e11b815290516000926001600160a01b03169163f67362fe916004808301926020929190829003018186803b15801561d79957600080fd5b505afa15801561d7ad573d6000803e3d6000fd5b505050506040513d601f19601f8201168201806040525081019061d7d1919061eeeb565b6040516348257dc960e01b81526001600160801b038d1660048201529091506001600160a01b038216906348257dc990602401600060405180830381600087803b15801561d81e57600080fd5b505af192505050801561d82f575060015b61d88e573d80801561d85d576040519150601f19603f3d011682016040523d82523d6000602084013e61d862565b606091505b5060008051602061f2a68339815191528160405161d880919061eadd565b60405180910390a15061d8a7565b60016035600082825461d8a1919061eddf565b90915550505b50505061d911565b6001600160801b038881166000908152602260205260408120600301805460ff191660021790556032805460019391929161d8ec9185911661eec9565b92506101000a8154816001600160801b0302191690836001600160801b031602179055505b60016035600082825461d924919061eddf565b90915550506001600160801b03881660009081526022602052604081205460368054600160a01b90920463ffffffff1692909161d96290849061eddf565b90915550506001600160801b038816600090815260226020526040902054600160a01b900463ffffffff16601061d99b6001600f61edc8565b600f811061d9ab5761d9ab61ecdc565b01805460109061d9cc908490600160801b90046001600160801b031661eec9565b92506101000a8154816001600160801b0302191690836001600160801b0316021790555061d9f86120a5565b6001600160801b0388811660009081526022602052604090205460328054600160c01b90920461ffff1692909160109161da3c918591600160801b9091041661eec9565b82546101009290920a6001600160801b0381810219909316918316021790915589811660009081526022602052604081205460338054600160d01b90920461ffff1694509261da8d9185911661eec9565b92506101000a8154816001600160801b0302191690836001600160801b03160217905550876001600160801b03167f98bfbdd7dba62d9141cf4f07139f8e53c0d00c0b44cad36d148730680b162161848360405161daec92919061f281565b60405180910390a25050505050505050565b6001600160a01b03811660009081526027602052604090205460ff16611aa757602b805460018101825560009182527f11c44e4875b74d31ff9fd779bf2566af7bd15b87fc985d01f5094b89e3669e4f0180546001600160a01b0319166001600160a01b038416179055603780546020929061db7b90849061eddf565b90915550506001600160a01b0381166000908152602760205260409020805460ff19166001908117909155602b5461dbb3919061edc8565b6001600160a01b0382166000908152602760205260409020805463ffffffff9290921663010000000266ffffffff0000001990921691909117905550565b600080546001600160a01b038381166001600160a01b0319831681178455604051919092169283917f8be0079c531659141344cd1fd0a4f28419497f9722a3daafe3b4186f6b6457e09190a35050565b6000838360405160200161dc5692919061f194565b60408051601f198184030181529181528151602092830120600081815292805291205490915061dc995760206037600082825461dc93919061eddf565b90915550505b60009081526020805260409020555050565b6000828260405160200161dcc092919061f194565b60408051601f198184030181529181528151602092830120600081815283805291822082905560378054919450919061dcfa90849061edc8565b9091555050505050565b600081831061dd135781614530565b5090919050565b600081831161dd135781614530565b6001600160a01b038116600090815260276020526040902054610100900460ff16611aa757602c805460018101825560009182527f7416c943b4a09859521022fd2e90eac0dd9026dad28fa317782a135f28a860910180546001600160a01b0319166001600160a01b038416179055603780546020929061ddab90849061eddf565b90915550506001600160a01b0381166000908152602760205260409020805461ff001916610100179055602c5461dde49060019061edc8565b6001600160a01b0382166000908152602760205260409020805463ffffffff92909216600160381b0263ffffffff60381b1990921691909117905550565b600054600160a01b900460ff16614a085760405162461bcd60e51b815260206004820152601460248201527314185d5cd8589b194e881b9bdd081c185d5cd95960621b60448201526064016116ae565b50805461de7e9061ecf2565b6000825580601f1061de8e575050565b601f016020900490600052602060002090810190611aa7919061df59565b82805461deb89061ecf2565b90600052602060002090601f01602090048101928261deda576000855561df20565b82601f1061def357805160ff191683800117855561df20565b8280016001018555821561df20579182015b8281111561df2057825182559160200191906001019061df05565b5061df2c92915061df59565b5090565b5080546000825590600052602060002090810190611aa7919061df59565b50611aa790600f8101905b5b8082111561df2c576000815560010161df5a565b6001600160a01b0381168114611aa757600080fd5b60006020828403121561df9557600080fd5b81356145308161df6e565b6001600160801b0381168114611aa757600080fd5b60006020828403121561dfc757600080fd5b81356145308161dfa0565b60005b8381101561dfed57818101518382015260200161dfd5565b83811115614fce5750506000910152565b6000815180845261e01681602086016020860161dfd2565b601f01601f19169290920160200192915050565b6000602080830181845280855180835260408601915060408160051b870101925083870160005b8281101561e07f57603f1988860301845261e06d85835161dffe565b9450928501929085019060010161e051565b5092979650505050505050565b6000806040838503121561e09f57600080fd5b50508035926020909101359150565b6020808252825182820181905260009190848201906040850190845b81811015616af85783516001600160a01b03168352928401929184019160010161e0ca565b634e487b7160e01b600052602160045260246000fd5b6004811061e12357634e487b7160e01b600052602160045260246000fd5b9052565b6001600160401b03888116825287166020820152600061e14a604083018861e105565b6001600160a01b038616606083015260e06080830181905261e16e9083018661dffe565b82810360a084015261e180818661dffe565b905082810360c084015261e194818561dffe565b9a9950505050505050505050565b803561ffff811681146141bf57600080fd5b60006020828403121561e1c657600080fd5b6145308261e1a2565b6001600160801b038f16815263ffffffff8e811660208301528d16604082015261ffff8c16606082015261ffff8b16608082015289151560a082015288151560c082015287151560e082015261ffff871661010082015261ffff86166101208201526001600160401b0385166101408201526001600160401b0384166101608201526101c0610180820152600061e26a6101c083018561dffe565b905061e27a6101a083018461e105565b9f9e505050505050505050505050505050565b6000806040838503121561e2a057600080fd5b823561e2ab8161dfa0565b9150602083013561e2bb8161dfa0565b809150509250929050565b634e487b7160e01b600052604160045260246000fd5b604051601f8201601f191681016001600160401b038111828210171561e3045761e30461e2c6565b604052919050565b60006001600160401b0382111561e3255761e32561e2c6565b5060051b60200190565b6000602080838503121561e34257600080fd5b82356001600160401b0381111561e35857600080fd5b8301601f8101851361e36957600080fd5b803561e37c61e3778261e30c565b61e2dc565b81815260059190911b8201830190838101908783111561e39b57600080fd5b928401925b8284101561524a57833561e3b38161dfa0565b8252928401929084019061e3a0565b600082601f83011261e3d357600080fd5b81356001600160401b0381111561e3ec5761e3ec61e2c6565b61e3ff601f8201601f191660200161e2dc565b81815284602083860101111561e41457600080fd5b816020850160208301376000918101602001919091529392505050565b60008083601f84011261e44357600080fd5b5081356001600160401b0381111561e45a57600080fd5b6020830191508360208260051b8501011115613a5c57600080fd5b80356001600160401b03811681146141bf57600080fd5b600082601f83011261e49d57600080fd5b8135602061e4ad61e3778361e30c565b82815260059290921b8401810191818101908684111561e4cc57600080fd5b8286015b8481101561e4ee5761e4e18161e475565b835291830191830161e4d0565b509695505050505050565b60008060008060006080868803121561e51157600080fd5b85356001600160401b038082111561e52857600080fd5b818801915088601f83011261e53c57600080fd5b8135602061e54c61e3778361e30c565b82815260059290921b8401810191818101908c84111561e56b57600080fd5b8286015b8481101561e5a35780358681111561e5875760008081fd5b61e5958f86838b010161e3c2565b84525091830191830161e56f565b509950508901359250508082111561e5ba57600080fd5b61e5c689838a0161e431565b9096509450604088013591508082111561e5df57600080fd5b61e5eb89838a0161e48c565b9350606088013591508082111561e60157600080fd5b5061e60e8882890161e3c2565b9150509295509295909350565b600081518084526020808501945080840160005b8381101561e6545781516001600160801b03168752958201959082019060010161e62f565b509495945050505050565b6001600160801b03831681526040602082015260006185f2604083018461e61b565b60006020828403121561e69357600080fd5b5035919050565b8015158114611aa757600080fd5b6000806040838503121561e6bb57600080fd5b823561e6c68161e69a565b915061e6d46020840161e1a2565b90509250929050565b6000806040838503121561e6f057600080fd5b823561e6fb8161dfa0565b9150602083013561e2bb8161df6e565b8615158152851515602082015260ff8516604082015263ffffffff8416606082015260c06080820152600061e74360c083018561dffe565b82810360a084015261e755818561dffe565b9998505050505050505050565b6000806040838503121561e77557600080fd5b823561e2ab8161df6e565b6000806040838503121561e79357600080fd5b823561e79e8161df6e565b946020939093013593505050565b60008060006060848603121561e7c157600080fd5b833561e7cc8161df6e565b925060208401359150604084013561e7e38161dfa0565b809150509250925092565b6000806000806080858703121561e80457600080fd5b843561e80f8161dfa0565b9350602085013561e81f8161dfa0565b9250604085013561e82f8161df6e565b9396929550929360600135925050565b6000806000806080858703121561e85557600080fd5b61e85e8561e475565b935060208501356001600160401b0381111561e87957600080fd5b61e8858782880161e3c2565b935050604085013560ff8116811461e82f57600080fd5b60006020828403121561e8ae57600080fd5b81356145308161e69a565b6020815260006001600160401b0380845116602084015280602085015116604084015250604083015161e8ef606084018261e105565b5060608301516001600160a01b038116608084015250608083015160e060a084015261e91f61010084018261dffe565b905060a0840151601f19808584030160c086015261e93d838361dffe565b925060c08601519150808584030160e08601525061e95b828261dffe565b95945050505050565b6000806040838503121561e97757600080fd5b8235915060208301356001600160401b0381111561e99457600080fd5b61e9a08582860161e3c2565b9150509250929050565b6000806040838503121561e9bd57600080fd5b82356001600160401b038082111561e9d457600080fd5b61e9e08683870161e3c2565b9350602085013591508082111561e9f657600080fd5b5061e9a08582860161e3c2565b602081526000614530602083018461e61b565b6020808252825182820181905260009190848201906040850190845b81811015616af85783518352928401929184019160010161ea32565b600080600080600060a0868803121561ea6657600080fd5b853561ea718161dfa0565b94506020860135935060408601359250606086013563ffffffff8116811461ea9857600080fd5b915060808601356001600160401b0381111561eab357600080fd5b61e60e8882890161e3c2565b6000806040838503121561ead257600080fd5b823561e79e8161dfa0565b602081526000614530602083018461dffe565b6000806040838503121561eb0357600080fd5b82356001600160401b0381111561eb1957600080fd5b61eb258582860161e3c2565b95602094909401359450505050565b6020815261eb4e6020820183516001600160801b03169052565b6000602083015161eb67604084018263ffffffff169052565b50604083015163ffffffff8116606084015250606083015161ffff8116608084015250608083015161ffff811660a08401525060a083015180151560c08401525060c083015180151560e08401525060e083015161010061ebcb8185018315159052565b840151905061012061ebe28482018361ffff169052565b840151905061014061ebf98482018361ffff169052565b840151905061016061ec15848201836001600160401b03169052565b840151905061018061ec31848201836001600160401b03169052565b808501519150506101c06101a0818186015261ec516101e086018461dffe565b90860151909250618d978583018261e105565b60008060006060848603121561ec7957600080fd5b833561ec848161df6e565b9250602084013561ec948161dfa0565b929592945050506040919091013590565b60208082526017908201527f5f4461746142617463684964206d757374206578697374000000000000000000604082015260600190565b634e487b7160e01b600052603260045260246000fd5b600181811c9082168061ed0657607f821691505b60208210811415613ce357634e487b7160e01b600052602260045260246000fd5b634e487b7160e01b600052601160045260246000fd5b600060001982141561ed515761ed5161ed27565b5060010190565b6020808252601f908201527f506172616d6574657273204d616e61676572206d757374206265207365742e00604082015260600190565b60006020828403121561454d57600080fd5b60006001600160801b038083168181141561edbe5761edbe61ed27565b6001019392505050565b60008282101561edda5761edda61ed27565b500390565b6000821982111561edf25761edf261ed27565b500190565b600081600019048311821515161561ee115761ee1161ed27565b500290565b60006020828403121561ee2857600080fd5b81516145308161e69a565b60006001600160801b038381169083168181101561ee535761ee5361ed27565b039392505050565b6000808335601e1984360301811261ee7257600080fd5b8301803591506001600160401b0382111561ee8c57600080fd5b602001915036819003821315613a5c57600080fd5b600063ffffffff80831681851680830382111561eec05761eec061ed27565b01949350505050565b60006001600160801b0380831681851680830382111561eec05761eec061ed27565b60006020828403121561eefd57600080fd5b81516145308161df6e565b634e487b7160e01b600052601260045260246000fd5b60008261ef2d5761ef2d61ef08565b500490565b6020808252602e908201527f636f756c64206e6f74207265776172642052455020696e2056616c696461746560408201526d4461746142617463682c20322e6160901b606082015260800190565b60208082526030908201527f636f756c64206e6f742072657761726420746f6b656e20696e2056616c69646160408201526f3a32a230ba30a130ba31b4161019173160811b606082015260800190565b60408152600061efe3604083018561dffe565b828103602084015261e95b818561dffe565b60006001600160401b038083168181141561edbe5761edbe61ed27565b6020808252601c908201527f496e70757420626f756e6461726965732061726520696e76616c696400000000604082015260600190565b60006001600160801b038084168061f0635761f06361ef08565b92169190910492915050565b600061ffff80831681851680830382111561eec05761eec061ed27565b600061ffff8083168185168183048111821515161561f0ad5761f0ad61ed27565b02949350505050565b60006020828403121561f0c857600080fd5b81516145308161dfa0565b60006001600160401b038381169083168181101561ee535761ee5361ed27565b600061ffff8381169083168181101561ee535761ee5361ed27565b60208082526024908201527f416464726573734d616e61676572206973206e756c6c20696e20506172616d656040820152637465727360e01b606082015260800190565b60208082526022908201527f5374616b654d616e61676572206973206e756c6c20696e20506172616d657465604082015261727360f01b606082015260800190565b8281526000825161f1ac81602085016020870161dfd2565b919091016020019392505050565b6000825161f1cc81846020870161dfd2565b9190910192915050565b60008261f1e55761f1e561ef08565b500690565b60408152600061f1fd604083018561dffe565b90508260208301529392505050565b60006001600160401b0380831681851680830382111561eec05761eec061ed27565b634e487b7160e01b600052603160045260246000fd5b600063ffffffff8083168181141561edbe5761edbe61ed27565b600063ffffffff8083168185168183048111821515161561f0ad5761f0ad61ed27565b60408152600061f294604083018561dffe565b90508215156020830152939250505056fe4b87bbd93ba65ede1e2efeca735d9f7a6720bf7d6db0a8355b17dba5b64e5783a26469706673582212201cd98b01259b6a231f8a303187d45459e3d29dd66da7fc39de6ce5fdf2c585fd64736f6c63430008080033",
  "linkReferences": {
    "contracts/worksystems/DataSpotting.sol": {
      "DLL": [
        {
          "length": 20,
          "start": 16240
        },
        {
          "length": 20,
          "start": 16517
        },
        {
          "length": 20,
          "start": 18986
        },
        {
          "length": 20,
          "start": 20035
        },
        {
          "length": 20,
          "start": 20230
        },
        {
          "length": 20,
          "start": 33154
        },
        {
          "length": 20,
          "start": 33345
        }
      ]
    }
  },
  "deployedLinkReferences": {
    "contracts/worksystems/DataSpotting.sol": {
      "DLL": [
        {
          "length": 20,
          "start": 15801
        },
        {
          "length": 20,
          "start": 16078
        },
        {
          "length": 20,
          "start": 18547
        },
        {
          "length": 20,
          "start": 19596
        },
        {
          "length": 20,
          "start": 19791
        },
        {
          "length": 20,
          "start": 32715
        },
        {
          "length": 20,
          "start": 32906
        }
      ]
    }
  }
}