{
	"data": {
		"bytecode": {
			"linkReferences": {},
			"object": "60806040523480156200001157600080fd5b5060405162003b4f38038062003b4f8339810160408190526200003491620001de565b600180546001600160a01b0319166001600160a01b03831690811790915560408051631c2eb17b60e31b8152905163e1758bd891600480820192602092909190829003018186803b1580156200008957600080fd5b505afa1580156200009e573d6000803e3d6000fd5b505050506040513d601f19601f82011682018060405250810190620000c49190620001de565b600280546001600160a01b0319166001600160a01b039283161790556001546040805163089ae1c960e41b8152905191909216916389ae1c90916004808301926020929190829003018186803b1580156200011e57600080fd5b505afa15801562000133573d6000803e3d6000fd5b505050506040513d601f19601f82011682018060405250810190620001599190620001de565b600380546001600160a01b0319166001600160a01b0392909216919091179055506040805180820182526000808252601f60e01b6020808401918252338352829052929020905181559051600191909101805463ffffffff191660e09290921c91909117905562000205565b6001600160a01b0381168114620001db57600080fd5b50565b600060208284031215620001f157600080fd5b8151620001fe81620001c5565b9392505050565b61393a80620002156000396000f3fe6080604052600436106101fd5760003560e01c80638da039971161010d578063e08738da116100a0578063e8c98b221161006f578063e8c98b22146106a2578063ea7da6ea146106c2578063eaf994b2146106e2578063f76488be14610702578063fb4856a21461072257600080fd5b8063e08738da14610622578063e1758bd814610642578063e4537a7414610662578063e869d45f1461068257600080fd5b8063c9b62eb1116100dc578063c9b62eb11461055f578063d1b7089a1461057f578063d22be043146105ad578063db6149ce146105cd57600080fd5b80638da03997146104c65780639b51e35a146104e65780639be2faed1461051f578063b9a04cdd1461053f57600080fd5b80634f52b5be116101905780636c525b131161015f5780636c525b13146103f75780636e94d27814610417578063814784f614610437578063824f2f1f1461047157806389ae1c90146104a657600080fd5b80634f52b5be1461037757806351803cd8146103975780635aef7de6146103b7578063634965da146103d757600080fd5b806337442d20116101cc57806337442d20146102e05780633a02263c1461030057806342427bf8146102e05780634422d3721461033857600080fd5b8063039de01d1461020c578063177eebb0146102415780631c4d5608146102925780633132511b146102c057600080fd5b3661020757600080fd5b600080fd5b34801561021857600080fd5b5061022c610227366004613305565b610742565b60405190151581526020015b60405180910390f35b34801561024d57600080fd5b5061027b61025c36600461333e565b6008602052600090815260409020805460019091015460ff9091169082565b604080519215158352602083019190915201610238565b34801561029e57600080fd5b506102b26102ad366004613305565b610a50565b604051908152602001610238565b3480156102cc57600080fd5b5061022c6102db366004613305565b610a92565b3480156102ec57600080fd5b5061022c6102fb366004613305565b610acb565b34801561030c57600080fd5b50600554610320906001600160a01b031681565b6040516001600160a01b039091168152602001610238565b34801561034457600080fd5b50610358610353366004613362565b610e2a565b604080516001600160a01b039093168352602083019190915201610238565b34801561038357600080fd5b5061022c610392366004613305565b610e62565b3480156103a357600080fd5b5061022c6103b236600461337b565b611323565b3480156103c357600080fd5b50600154610320906001600160a01b031681565b3480156103e357600080fd5b5061022c6103f23660046133ce565b611613565b34801561040357600080fd5b5061022c61041236600461333e565b6118e6565b34801561042357600080fd5b5061022c6104323660046133ce565b61196d565b34801561044357600080fd5b5061027b61045236600461333e565b6009602052600090815260409020805460019091015460ff9091169082565b34801561047d57600080fd5b5061049161048c36600461333e565b611c7c565b60408051928352602083019190915201610238565b3480156104b257600080fd5b50600354610320906001600160a01b031681565b3480156104d257600080fd5b506103206104e136600461333e565b611cae565b3480156104f257600080fd5b50610506610501366004613305565b611ce0565b6040516001600160e01b03199091168152602001610238565b34801561052b57600080fd5b5061022c61053a366004613305565b611d23565b34801561054b57600080fd5b5061022c61055a36600461337b565b611d4b565b34801561056b57600080fd5b5061022c61057a366004613459565b612029565b34801561058b57600080fd5b5061059f61059a3660046134a5565b6120fa565b604051610238929190613545565b3480156105b957600080fd5b5061022c6105c836600461333e565b6123dd565b3480156105d957600080fd5b506106046105e836600461333e565b6000602081905290815260409020805460019091015460e01b82565b604080519283526001600160e01b0319909116602083015201610238565b34801561062e57600080fd5b506102b261063d366004613305565b612429565b34801561064e57600080fd5b50600254610320906001600160a01b031681565b34801561066e57600080fd5b5061022c61067d366004613581565b6124f6565b34801561068e57600080fd5b5061022c61069d3660046135b8565b61290e565b3480156106ae57600080fd5b506103586106bd366004613362565b612c4a565b3480156106ce57600080fd5b50600454610320906001600160a01b031681565b3480156106ee57600080fd5b5061022c6106fd3660046133ce565b612c5a565b34801561070e57600080fd5b5061022c61071d366004613305565b612f69565b34801561072e57600080fd5b5061022c61073d36600461360d565b612fcb565b3360009081526020819052604081206001015460e01b600160e11b9081161461076a57600080fd5b6f756e7265676973746572536368656d6560801b60005b600654811015610875576006818154811061079e5761079e613675565b6000918252602090912060029091020154600680546001600160a01b039092169163c1786ab2913391859081106107d7576107d7613675565b906000526020600020906002020160010154856040518463ffffffff1660e01b81526004016108089392919061368b565b602060405180830381600087803b15801561082257600080fd5b505af1158015610836573d6000803e3d6000fd5b505050506040513d601f19601f8201168201806040525081019061085a91906136bc565b61086357600080fd5b8061086d816136ed565b915050610781565b60015484906001600160a01b0380831691161461089157600080fd5b61089a866132c4565b6108a7576000935061094e565b336000908152602081905260408082206001908101546001600160a01b038a168452919092209091015460e091821b19911b16601f60e01b16156108ea57600080fd5b6040516001600160a01b0387169033907f10bb2cf04cb8b902a8e736d494f1a51003be6d4b16ef6fb95ce62c38445023bf90600090a36001600160a01b03861660009081526020819052604081209081556001908101805463ffffffff1916905593505b50600090505b600754811015610a48576007818154811061097157610971613675565b6000918252602090912060029091020154600780546001600160a01b0390921691638043154d913391859081106109aa576109aa613675565b906000526020600020906002020160010154856040518463ffffffff1660e01b81526004016109db9392919061368b565b602060405180830381600087803b1580156109f557600080fd5b505af1158015610a09573d6000803e3d6000fd5b505050506040513d601f19601f82011682018060405250810190610a2d91906136bc565b610a3657600080fd5b80610a40816136ed565b915050610954565b505092915050565b60015460009082906001600160a01b03808316911614610a6f57600080fd5b6001600160a01b03841660009081526020819052604090205491505b5092915050565b60015460009082906001600160a01b03808316911614610ab157600080fd5b6004546001600160a01b038581169116145b949350505050565b3360009081526020819052604081206001015460e01b600160e31b90811614610af357600080fd5b60015482906001600160a01b03808316911614610b0f57600080fd5b6005546001600160a01b031615610b2557600080fd5b6001600160a01b038416610b3857600080fd5b600580546001600160a01b0319166001600160a01b0386811691821790925560015460405163f2fde38b60e01b815260048101929092529091169063f2fde38b90602401600060405180830381600087803b158015610b9657600080fd5b505af1158015610baa573d6000803e3d6000fd5b50505050836001600160a01b0316600160009054906101000a90046001600160a01b03166001600160a01b0316638da5cb5b6040518163ffffffff1660e01b815260040160206040518083038186803b158015610c0657600080fd5b505afa158015610c1a573d6000803e3d6000fd5b505050506040513d601f19601f82011682018060405250810190610c3e9190613708565b6001600160a01b031614610c5157600080fd5b60035460408051638da5cb5b60e01b8152905130926001600160a01b031691638da5cb5b916004808301926020929190829003018186803b158015610c9557600080fd5b505afa158015610ca9573d6000803e3d6000fd5b505050506040513d601f19601f82011682018060405250810190610ccd9190613708565b6001600160a01b03161415610dde5760035460405163f2fde38b60e01b81526001600160a01b0386811660048301529091169063f2fde38b90602401600060405180830381600087803b158015610d2357600080fd5b505af1158015610d37573d6000803e3d6000fd5b50505050836001600160a01b0316600360009054906101000a90046001600160a01b03166001600160a01b0316638da5cb5b6040518163ffffffff1660e01b815260040160206040518083038186803b158015610d9357600080fd5b505afa158015610da7573d6000803e3d6000fd5b505050506040513d601f19601f82011682018060405250810190610dcb9190613708565b6001600160a01b031614610dde57600080fd5b6005546040516001600160a01b03909116815230907fdb7cbacf8df312d794506c0cc9af07f64d29ca075796ea2e950a3832cc9a63dd9060200160405180910390a25060019392505050565b60068181548110610e3a57600080fd5b6000918252602090912060029091020180546001909101546001600160a01b03909116915082565b3360009081526020819052604081206001015460e01b600160e21b90811614610e8a57600080fd5b60015482906001600160a01b03808316911614610ea657600080fd5b604080518082019091526000808252602082015260408051808201909152600080825260208201526000866001600160a01b031663e2b0caef6040518163ffffffff1660e01b8152600401602060405180830381600087803b158015610f0b57600080fd5b505af1158015610f1f573d6000803e3d6000fd5b505050506040513d601f19601f82011682018060405250810190610f439190613725565b9050600080826002811115610f5a57610f5a613746565b1480610f7757506002826002811115610f7557610f75613746565b145b156110fd576001600160a01b0388166000908152600860209081526040918290208251808401909352805460ff161580158452600190910154918301919091529094506110fd57600654610fcd9060019061375c565b846020015110156110965760068054610fe89060019061375c565b81548110610ff857610ff8613675565b60009182526020918290206040805180820190915260029092020180546001600160a01b03168252600101548183015290850151600680549295508592909190811061104657611046613675565b6000918252602080832084516002939093020180546001600160a01b0319166001600160a01b03938416178155938101516001948501558781015187519092168352600890526040909120909101555b60068054806110a7576110a7613773565b6000828152602080822060026000199094019384020180546001600160a01b03191681556001908101839055929093556001600160a01b038b168152600890925260408220805460ff1916815581019190915590505b600182600281111561111157611111613746565b148061112e5750600282600281111561112c5761112c613746565b145b156112b4576001600160a01b0388166000908152600960209081526040918290208251808401909352805460ff161580158452600190910154918301919091529094506112b4576007546111849060019061375c565b8460200151101561124d576007805461119f9060019061375c565b815481106111af576111af613675565b60009182526020918290206040805180820190915260029092020180546001600160a01b0316825260010154818301529085015160078054929550859290919081106111fd576111fd613675565b6000918252602080832084516002939093020180546001600160a01b0319166001600160a01b03938416178155938101516001948501558781015187519092168352600990526040909120909101555b600680548061125e5761125e613773565b6000828152602080822060026000199094019384020180546001600160a01b03191681556001908101839055929093556001600160a01b038b168152600990925260408220805460ff1916815581019190915590505b80156113185760208401516001600160a01b038916907fcdf1a50ea6b7de555bd409f8a4a53ea43c6dc6b4caa961889da9e005f21bbaa990600085600281111561130057611300613746565b60408051938452911460208301520160405180910390a25b979650505050505050565b3360009081526020819052604081206001015460e01b600160e01b9081161461134b57600080fd5b7f65787465726e616c546f6b656e496e637265617365417070726f76616c00000060005b600654811015611463576006818154811061138c5761138c613675565b6000918252602090912060029091020154600680546001600160a01b039092169163c1786ab2913391859081106113c5576113c5613675565b906000526020600020906002020160010154856040518463ffffffff1660e01b81526004016113f69392919061368b565b602060405180830381600087803b15801561141057600080fd5b505af1158015611424573d6000803e3d6000fd5b505050506040513d601f19601f8201168201806040525081019061144891906136bc565b61145157600080fd5b8061145b816136ed565b91505061136f565b60015484906001600160a01b0380831691161461147f57600080fd5b60015460405163ab751f7160e01b81526001600160a01b038a811660048301528981166024830152604482018990529091169063ab751f7190606401602060405180830381600087803b1580156114d557600080fd5b505af11580156114e9573d6000803e3d6000fd5b505050506040513d601f19601f8201168201806040525081019061150d91906136bc565b935050600090505b600754811015611609576007818154811061153257611532613675565b6000918252602090912060029091020154600780546001600160a01b0390921691638043154d9133918590811061156b5761156b613675565b906000526020600020906002020160010154856040518463ffffffff1660e01b815260040161159c9392919061368b565b602060405180830381600087803b1580156115b657600080fd5b505af11580156115ca573d6000803e3d6000fd5b505050506040513d601f19601f820116820180604052508101906115ee91906136bc565b6115f757600080fd5b80611601816136ed565b915050611515565b5050949350505050565b3360009081526020819052604081206001015460e01b600160e01b9081161461163b57600080fd5b6839b2b73222ba3432b960b91b60005b60065481101561173f576006818154811061166857611668613675565b6000918252602090912060029091020154600680546001600160a01b039092169163c1786ab2913391859081106116a1576116a1613675565b906000526020600020906002020160010154856040518463ffffffff1660e01b81526004016116d29392919061368b565b602060405180830381600087803b1580156116ec57600080fd5b505af1158015611700573d6000803e3d6000fd5b505050506040513d601f19601f8201168201806040525081019061172491906136bc565b61172d57600080fd5b80611737816136ed565b91505061164b565b60015484906001600160a01b0380831691161461175b57600080fd5b60015460405163658b6a5160e11b8152600481018990526001600160a01b0388811660248301529091169063cb16d4a290604401602060405180830381600087803b1580156117a957600080fd5b505af11580156117bd573d6000803e3d6000fd5b505050506040513d601f19601f820116820180604052508101906117e191906136bc565b935050600090505b6007548110156118dd576007818154811061180657611806613675565b6000918252602090912060029091020154600780546001600160a01b0390921691638043154d9133918590811061183f5761183f613675565b906000526020600020906002020160010154856040518463ffffffff1660e01b81526004016118709392919061368b565b602060405180830381600087803b15801561188a57600080fd5b505af115801561189e573d6000803e3d6000fd5b505050506040513d601f19601f820116820180604052508101906118c291906136bc565b6118cb57600080fd5b806118d5816136ed565b9150506117e9565b50509392505050565b60015460009082906001600160a01b0380831691161461190557600080fd5b61190e336132c4565b61191b5760009150611967565b33600081815260208190526040808220828155600101805463ffffffff191690555182917f10bb2cf04cb8b902a8e736d494f1a51003be6d4b16ef6fb95ce62c38445023bf91a3600191505b50919050565b3360009081526020819052604081206001015460e01b600160e01b9081161461199557600080fd5b6d313ab9372932b83aba30ba34b7b760911b60005b600654811015611a9e57600681815481106119c7576119c7613675565b6000918252602090912060029091020154600680546001600160a01b039092169163c1786ab291339185908110611a0057611a00613675565b906000526020600020906002020160010154856040518463ffffffff1660e01b8152600401611a319392919061368b565b602060405180830381600087803b158015611a4b57600080fd5b505af1158015611a5f573d6000803e3d6000fd5b505050506040513d601f19601f82011682018060405250810190611a8391906136bc565b611a8c57600080fd5b80611a96816136ed565b9150506119aa565b60015484906001600160a01b03808316911614611aba57600080fd5b6040518781526001600160a01b0387169033907f186d8887e1b22f9d9b16849c36baa748950d09d9c9b67a4a6ea140eaad00c21c9060200160405180910390a3600354604051632770a7eb60e21b81526001600160a01b038881166004830152602482018a905290911690639dc29fac90604401602060405180830381600087803b158015611b4857600080fd5b505af1158015611b5c573d6000803e3d6000fd5b505050506040513d601f19601f82011682018060405250810190611b8091906136bc565b935050600090505b6007548110156118dd5760078181548110611ba557611ba5613675565b6000918252602090912060029091020154600780546001600160a01b0390921691638043154d91339185908110611bde57611bde613675565b906000526020600020906002020160010154856040518463ffffffff1660e01b8152600401611c0f9392919061368b565b602060405180830381600087803b158015611c2957600080fd5b505af1158015611c3d573d6000803e3d6000fd5b505050506040513d601f19601f82011682018060405250810190611c6191906136bc565b611c6a57600080fd5b80611c74816136ed565b915050611b88565b600154600090819083906001600160a01b03808316911614611c9d57600080fd5b600654600754909350915050915091565b60015460009082906001600160a01b03808316911614611ccd57600080fd5b50506003546001600160a01b0316919050565b60015460009082906001600160a01b03808316911614611cff57600080fd5b5050506001600160a01b031660009081526020819052604090206001015460e01b90565b60015460009082906001600160a01b03808316911614611d4257600080fd5b610ac3846132c4565b3360009081526020819052604081206001015460e01b600160e01b90811614611d7357600080fd5b7432bc3a32b93730b62a37b5b2b72a3930b739b332b960591b60005b600654811015611e835760068181548110611dac57611dac613675565b6000918252602090912060029091020154600680546001600160a01b039092169163c1786ab291339185908110611de557611de5613675565b906000526020600020906002020160010154856040518463ffffffff1660e01b8152600401611e169392919061368b565b602060405180830381600087803b158015611e3057600080fd5b505af1158015611e44573d6000803e3d6000fd5b505050506040513d601f19601f82011682018060405250810190611e6891906136bc565b611e7157600080fd5b80611e7b816136ed565b915050611d8f565b60015484906001600160a01b03808316911614611e9f57600080fd5b60015460405163dab0efff60e01b81526001600160a01b038a811660048301528981166024830152604482018990529091169063dab0efff90606401602060405180830381600087803b158015611ef557600080fd5b505af1158015611f09573d6000803e3d6000fd5b505050506040513d601f19601f82011682018060405250810190611f2d91906136bc565b935050600090505b6007548110156116095760078181548110611f5257611f52613675565b6000918252602090912060029091020154600780546001600160a01b0390921691638043154d91339185908110611f8b57611f8b613675565b906000526020600020906002020160010154856040518463ffffffff1660e01b8152600401611fbc9392919061368b565b602060405180830381600087803b158015611fd657600080fd5b505af1158015611fea573d6000803e3d6000fd5b505050506040513d601f19601f8201168201806040525081019061200e91906136bc565b61201757600080fd5b80612021816136ed565b915050611f35565b3360009081526020819052604081206001015460e01b600160e41b9081161461205157600080fd5b60015482906001600160a01b0380831691161461206d57600080fd5b600154604051632242b11b60e21b81526001600160a01b039091169063890ac46c9061209f90889088906004016137b2565b602060405180830381600087803b1580156120b957600080fd5b505af11580156120cd573d6000803e3d6000fd5b505050506040513d601f19601f820116820180604052508101906120f191906136bc565b95945050505050565b3360009081526020819052604081206001015460609060e01b600160e41b9081161461212557600080fd5b6a19d95b995c9a58d0d85b1b60aa1b60005b60065481101561222b576006818154811061215457612154613675565b6000918252602090912060029091020154600680546001600160a01b039092169163c1786ab29133918590811061218d5761218d613675565b906000526020600020906002020160010154856040518463ffffffff1660e01b81526004016121be9392919061368b565b602060405180830381600087803b1580156121d857600080fd5b505af11580156121ec573d6000803e3d6000fd5b505050506040513d601f19601f8201168201806040525081019061221091906136bc565b61221957600080fd5b80612223816136ed565b915050612137565b60015486906001600160a01b0380831691161461224757600080fd5b60015460405163057e2c8b60e31b81526001600160a01b0390911690632bf164589061227d908d908d908d908c906004016137c6565b600060405180830381600087803b15801561229757600080fd5b505af11580156122ab573d6000803e3d6000fd5b505050506040513d6000823e601f3d908101601f191682016040526122d39190810190613812565b9450945050600090505b6007548110156123d157600781815481106122fa576122fa613675565b6000918252602090912060029091020154600780546001600160a01b0390921691638043154d9133918590811061233357612333613675565b906000526020600020906002020160010154856040518463ffffffff1660e01b81526004016123649392919061368b565b602060405180830381600087803b15801561237e57600080fd5b505af1158015612392573d6000803e3d6000fd5b505050506040513d601f19601f820116820180604052508101906123b691906136bc565b6123bf57600080fd5b806123c9816136ed565b9150506122dd565b50509550959350505050565b3360009081526020819052604081206001015460e01b600160e31b9081161461240557600080fd5b50600480546001600160a01b0319166001600160a01b03831617905560015b919050565b6001600160a01b03821660009081526008602090815260408083208151808301909252805460ff161580158352600190910154928201929092529061249957600681602001518154811061247f5761247f613675565b9060005260206000209060020201600101549150506124f0565b506001600160a01b0383166000908152600960209081526040918290208251808401909352805460ff16158015845260019091015491830191909152610a8b57600781602001518154811061247f5761247f613675565b92915050565b3360009081526020819052604081206001015460e01b600160e21b9081161461251e57600080fd5b60015482906001600160a01b0380831691161461253a57600080fd5b6000856001600160a01b031663e2b0caef6040518163ffffffff1660e01b8152600401602060405180830381600087803b15801561257757600080fd5b505af115801561258b573d6000803e3d6000fd5b505050506040513d601f19601f820116820180604052508101906125af9190613725565b905060008160028111156125c5576125c5613746565b14806125e2575060028160028111156125e0576125e0613746565b145b15612738576001600160a01b03861660009081526008602052604090205460ff166126f1576040805180820182526001600160a01b03888116825260208083018981526006805460018082018355600083905295517ff652222313e28459528d920b65115c16c04f3efc82aaedc97be59f3f377c0d3f600290920291820180546001600160a01b031916919096161790945590517ff652222313e28459528d920b65115c16c04f3efc82aaedc97be59f3f377c0d409093019290925583518085019094528284529054908301916126b89161375c565b90526001600160a01b03871660009081526008602090815260409091208251815460ff1916901515178155910151600190910155612738565b6001600160a01b03861660009081526008602052604090206001015460068054879290811061272257612722613675565b9060005260206000209060020201600101819055505b600181600281111561274c5761274c613746565b14806127695750600281600281111561276757612767613746565b145b156128bf576001600160a01b03861660009081526009602052604090205460ff16612878576040805180820182526001600160a01b03888116825260208083018981526007805460018082018355600083905295517fa66cc928b5edb82af9bd49922954155ab7b0942694bea4ce44661d9a8736c688600290920291820180546001600160a01b031916919096161790945590517fa66cc928b5edb82af9bd49922954155ab7b0942694bea4ce44661d9a8736c68990930192909255835180850190945282845290549083019161283f9161375c565b90526001600160a01b03871660009081526009602090815260409091208251815460ff19169015151781559101516001909101556128bf565b6001600160a01b0386166000908152600960205260409020600101546007805487929081106128a9576128a9613675565b9060005260206000209060020201600101819055505b856001600160a01b03167f78800d7333b8d0174a0845569e3913b7ce4a3c03ca444dd9904172fc14f2fdad86836040516128fa9291906138d2565b60405180910390a250600195945050505050565b3360009081526020819052604081206001015460e01b600160e11b9081161461293657600080fd5b6d7265676973746572536368656d6560901b60005b600654811015612a3f576006818154811061296857612968613675565b6000918252602090912060029091020154600680546001600160a01b039092169163c1786ab2913391859081106129a1576129a1613675565b906000526020600020906002020160010154856040518463ffffffff1660e01b81526004016129d29392919061368b565b602060405180830381600087803b1580156129ec57600080fd5b505af1158015612a00573d6000803e3d6000fd5b505050506040513d601f19601f82011682018060405250810190612a2491906136bc565b612a2d57600080fd5b80612a37816136ed565b91505061294b565b60015484906001600160a01b03808316911614612a5b57600080fd5b6001600160a01b03881660009081526020818152604080832081518083018352815481526001918201546001600160e01b031960e091821b16828601908152338752948690529290942001549151891891901b1916601f60e01b1615612ac057600080fd5b336000908152602081815260409091206001015490820151601f60e01b60e09290921b19161615612af057600080fd5b6001600160a01b0389166000818152602081905260408082208b8155600101805463ffffffff1916600160e01b8c1760e01c1790555133917f546816e99403df442acb68ef69562682a50762c20a3fb6b472f7af9923736cfc91a3600194505050600090505b6007548110156116095760078181548110612b7357612b73613675565b6000918252602090912060029091020154600780546001600160a01b0390921691638043154d91339185908110612bac57612bac613675565b906000526020600020906002020160010154856040518463ffffffff1660e01b8152600401612bdd9392919061368b565b602060405180830381600087803b158015612bf757600080fd5b505af1158015612c0b573d6000803e3d6000fd5b505050506040513d601f19601f82011682018060405250810190612c2f91906136bc565b612c3857600080fd5b80612c42816136ed565b915050612b56565b60078181548110610e3a57600080fd5b3360009081526020819052604081206001015460e01b600160e01b90811614612c8257600080fd5b6d36b4b73a2932b83aba30ba34b7b760911b60005b600654811015612d8b5760068181548110612cb457612cb4613675565b6000918252602090912060029091020154600680546001600160a01b039092169163c1786ab291339185908110612ced57612ced613675565b906000526020600020906002020160010154856040518463ffffffff1660e01b8152600401612d1e9392919061368b565b602060405180830381600087803b158015612d3857600080fd5b505af1158015612d4c573d6000803e3d6000fd5b505050506040513d601f19601f82011682018060405250810190612d7091906136bc565b612d7957600080fd5b80612d83816136ed565b915050612c97565b60015484906001600160a01b03808316911614612da757600080fd5b6040518781526001600160a01b0387169033907f837f2931e3df0592458212be4e470025f197feb7a8e39deb5b7f1f1d42e6f2629060200160405180910390a36003546040516340c10f1960e01b81526001600160a01b038881166004830152602482018a9052909116906340c10f1990604401602060405180830381600087803b158015612e3557600080fd5b505af1158015612e49573d6000803e3d6000fd5b505050506040513d601f19601f82011682018060405250810190612e6d91906136bc565b935050600090505b6007548110156118dd5760078181548110612e9257612e92613675565b6000918252602090912060029091020154600780546001600160a01b0390921691638043154d91339185908110612ecb57612ecb613675565b906000526020600020906002020160010154856040518463ffffffff1660e01b8152600401612efc9392919061368b565b602060405180830381600087803b158015612f1657600080fd5b505af1158015612f2a573d6000803e3d6000fd5b505050506040513d601f19601f82011682018060405250810190612f4e91906136bc565b612f5757600080fd5b80612f61816136ed565b915050612e75565b60015460009082906001600160a01b03808316911614612f8857600080fd5b6001600160a01b03841660009081526008602052604090205460ff1680610ac357505050506001600160a01b031660009081526009602052604090205460ff1690565b3360009081526020819052604081206001015460e01b600160e01b90811614612ff357600080fd5b7f65787465726e616c546f6b656e5472616e7366657246726f6d0000000000000060005b60065481101561310b576006818154811061303457613034613675565b6000918252602090912060029091020154600680546001600160a01b039092169163c1786ab29133918590811061306d5761306d613675565b906000526020600020906002020160010154856040518463ffffffff1660e01b815260040161309e9392919061368b565b602060405180830381600087803b1580156130b857600080fd5b505af11580156130cc573d6000803e3d6000fd5b505050506040513d601f19601f820116820180604052508101906130f091906136bc565b6130f957600080fd5b80613103816136ed565b915050613017565b60015484906001600160a01b0380831691161461312757600080fd5b600154604051635bab6ad160e11b81526001600160a01b038b811660048301528a811660248301528981166044830152606482018990529091169063b756d5a290608401602060405180830381600087803b15801561318557600080fd5b505af1158015613199573d6000803e3d6000fd5b505050506040513d601f19601f820116820180604052508101906131bd91906136bc565b935050600090505b6007548110156132b957600781815481106131e2576131e2613675565b6000918252602090912060029091020154600780546001600160a01b0390921691638043154d9133918590811061321b5761321b613675565b906000526020600020906002020160010154856040518463ffffffff1660e01b815260040161324c9392919061368b565b602060405180830381600087803b15801561326657600080fd5b505af115801561327a573d6000803e3d6000fd5b505050506040513d601f19601f8201168201806040525081019061329e91906136bc565b6132a757600080fd5b806132b1816136ed565b9150506131c5565b505095945050505050565b6001600160a01b031660009081526020819052604090206001015460e01b600160e01b16151590565b6001600160a01b038116811461330257600080fd5b50565b6000806040838503121561331857600080fd5b8235613323816132ed565b91506020830135613333816132ed565b809150509250929050565b60006020828403121561335057600080fd5b813561335b816132ed565b9392505050565b60006020828403121561337457600080fd5b5035919050565b6000806000806080858703121561339157600080fd5b843561339c816132ed565b935060208501356133ac816132ed565b92506040850135915060608501356133c3816132ed565b939692955090935050565b6000806000606084860312156133e357600080fd5b8335925060208401356133f5816132ed565b91506040840135613405816132ed565b809150509250925092565b60008083601f84011261342257600080fd5b50813567ffffffffffffffff81111561343a57600080fd5b60208301915083602082850101111561345257600080fd5b9250929050565b60008060006040848603121561346e57600080fd5b833567ffffffffffffffff81111561348557600080fd5b61349186828701613410565b9094509250506020840135613405816132ed565b6000806000806000608086880312156134bd57600080fd5b85356134c8816132ed565b9450602086013567ffffffffffffffff8111156134e457600080fd5b6134f088828901613410565b9095509350506040860135613504816132ed565b949793965091946060013592915050565b60005b83811015613530578181015183820152602001613518565b8381111561353f576000848401525b50505050565b8215158152604060208201526000825180604084015261356c816060850160208701613515565b601f01601f1916919091016060019392505050565b60008060006060848603121561359657600080fd5b83356135a1816132ed565b9250602084013591506040840135613405816132ed565b600080600080608085870312156135ce57600080fd5b84356135d9816132ed565b93506020850135925060408501356001600160e01b0319811681146135fd57600080fd5b915060608501356133c3816132ed565b600080600080600060a0868803121561362557600080fd5b8535613630816132ed565b94506020860135613640816132ed565b93506040860135613650816132ed565b9250606086013591506080860135613667816132ed565b809150509295509295909350565b634e487b7160e01b600052603260045260246000fd5b6001600160a01b039390931683526020830191909152604082015260600190565b8051801515811461242457600080fd5b6000602082840312156136ce57600080fd5b61335b826136ac565b634e487b7160e01b600052601160045260246000fd5b6000600019821415613701576137016136d7565b5060010190565b60006020828403121561371a57600080fd5b815161335b816132ed565b60006020828403121561373757600080fd5b81516003811061335b57600080fd5b634e487b7160e01b600052602160045260246000fd5b60008282101561376e5761376e6136d7565b500390565b634e487b7160e01b600052603160045260246000fd5b81835281816020850137506000828201602090810191909152601f909101601f19169091010190565b602081526000610ac3602083018486613789565b6001600160a01b03851681526060602082018190526000906137eb9083018587613789565b905082604083015295945050505050565b634e487b7160e01b600052604160045260246000fd5b6000806040838503121561382557600080fd5b61382e836136ac565b9150602083015167ffffffffffffffff8082111561384b57600080fd5b818501915085601f83011261385f57600080fd5b815181811115613871576138716137fc565b604051601f8201601f19908116603f01168101908382118183101715613899576138996137fc565b816040528281528860208487010111156138b257600080fd5b6138c3836020830160208801613515565b80955050505050509250929050565b82815260408101600383106138f757634e487b7160e01b600052602160045260246000fd5b826020830152939250505056fea2646970667358221220e60dfe839cca7b0af8952a465340f5369b7d61ae97e31441030b764ade29b3c364736f6c63430008080033",
			"opcodes": "PUSH1 0x80 PUSH1 0x40 MSTORE CALLVALUE DUP1 ISZERO PUSH3 0x11 JUMPI PUSH1 0x0 DUP1 REVERT JUMPDEST POP PUSH1 0x40 MLOAD PUSH3 0x3B4F CODESIZE SUB DUP1 PUSH3 0x3B4F DUP4 CODECOPY DUP2 ADD PUSH1 0x40 DUP2 SWAP1 MSTORE PUSH3 0x34 SWAP2 PUSH3 0x1DE JUMP JUMPDEST PUSH1 0x1 DUP1 SLOAD PUSH1 0x1 PUSH1 0x1 PUSH1 0xA0 SHL SUB NOT AND PUSH1 0x1 PUSH1 0x1 PUSH1 0xA0 SHL SUB DUP4 AND SWAP1 DUP2 OR SWAP1 SWAP2 SSTORE PUSH1 0x40 DUP1 MLOAD PUSH4 0x1C2EB17B PUSH1 0xE3 SHL DUP2 MSTORE SWAP1 MLOAD PUSH4 0xE1758BD8 SWAP2 PUSH1 0x4 DUP1 DUP3 ADD SWAP3 PUSH1 0x20 SWAP3 SWAP1 SWAP2 SWAP1 DUP3 SWAP1 SUB ADD DUP2 DUP7 DUP1 EXTCODESIZE ISZERO DUP1 ISZERO PUSH3 0x89 JUMPI PUSH1 0x0 DUP1 REVERT JUMPDEST POP GAS STATICCALL ISZERO DUP1 ISZERO PUSH3 0x9E JUMPI RETURNDATASIZE PUSH1 0x0 DUP1 RETURNDATACOPY RETURNDATASIZE PUSH1 0x0 REVERT JUMPDEST POP POP POP POP PUSH1 0x40 MLOAD RETURNDATASIZE PUSH1 0x1F NOT PUSH1 0x1F DUP3 ADD AND DUP3 ADD DUP1 PUSH1 0x40 MSTORE POP DUP2 ADD SWAP1 PUSH3 0xC4 SWAP2 SWAP1 PUSH3 0x1DE JUMP JUMPDEST PUSH1 0x2 DUP1 SLOAD PUSH1 0x1 PUSH1 0x1 PUSH1 0xA0 SHL SUB NOT AND PUSH1 0x1 PUSH1 0x1 PUSH1 0xA0 SHL SUB SWAP3 DUP4 AND OR SWAP1 SSTORE PUSH1 0x1 SLOAD PUSH1 0x40 DUP1 MLOAD PUSH4 0x89AE1C9 PUSH1 0xE4 SHL DUP2 MSTORE SWAP1 MLOAD SWAP2 SWAP1 SWAP3 AND SWAP2 PUSH4 0x89AE1C90 SWAP2 PUSH1 0x4 DUP1 DUP4 ADD SWAP3 PUSH1 0x20 SWAP3 SWAP2 SWAP1 DUP3 SWAP1 SUB ADD DUP2 DUP7 DUP1 EXTCODESIZE ISZERO DUP1 ISZERO PUSH3 0x11E JUMPI PUSH1 0x0 DUP1 REVERT JUMPDEST POP GAS STATICCALL ISZERO DUP1 ISZERO PUSH3 0x133 JUMPI RETURNDATASIZE PUSH1 0x0 DUP1 RETURNDATACOPY RETURNDATASIZE PUSH1 0x0 REVERT JUMPDEST POP POP POP POP PUSH1 0x40 MLOAD RETURNDATASIZE PUSH1 0x1F NOT PUSH1 0x1F DUP3 ADD AND DUP3 ADD DUP1 PUSH1 0x40 MSTORE POP DUP2 ADD SWAP1 PUSH3 0x159 SWAP2 SWAP1 PUSH3 0x1DE JUMP JUMPDEST PUSH1 0x3 DUP1 SLOAD PUSH1 0x1 PUSH1 0x1 PUSH1 0xA0 SHL SUB NOT AND PUSH1 0x1 PUSH1 0x1 PUSH1 0xA0 SHL SUB SWAP3 SWAP1 SWAP3 AND SWAP2 SWAP1 SWAP2 OR SWAP1 SSTORE POP PUSH1 0x40 DUP1 MLOAD DUP1 DUP3 ADD DUP3 MSTORE PUSH1 0x0 DUP1 DUP3 MSTORE PUSH1 0x1F PUSH1 0xE0 SHL PUSH1 0x20 DUP1 DUP5 ADD SWAP2 DUP3 MSTORE CALLER DUP4 MSTORE DUP3 SWAP1 MSTORE SWAP3 SWAP1 KECCAK256 SWAP1 MLOAD DUP2 SSTORE SWAP1 MLOAD PUSH1 0x1 SWAP2 SWAP1 SWAP2 ADD DUP1 SLOAD PUSH4 0xFFFFFFFF NOT AND PUSH1 0xE0 SWAP3 SWAP1 SWAP3 SHR SWAP2 SWAP1 SWAP2 OR SWAP1 SSTORE PUSH3 0x205 JUMP JUMPDEST PUSH1 0x1 PUSH1 0x1 PUSH1 0xA0 SHL SUB DUP2 AND DUP2 EQ PUSH3 0x1DB JUMPI PUSH1 0x0 DUP1 REVERT JUMPDEST POP JUMP JUMPDEST PUSH1 0x0 PUSH1 0x20 DUP3 DUP5 SUB SLT ISZERO PUSH3 0x1F1 JUMPI PUSH1 0x0 DUP1 REVERT JUMPDEST DUP2 MLOAD PUSH3 0x1FE DUP2 PUSH3 0x1C5 JUMP JUMPDEST SWAP4 SWAP3 POP POP POP JUMP JUMPDEST PUSH2 0x393A DUP1 PUSH3 0x215 PUSH1 0x0 CODECOPY PUSH1 0x0 RETURN INVALID PUSH1 0x80 PUSH1 0x40 MSTORE PUSH1 0x4 CALLDATASIZE LT PUSH2 0x1FD JUMPI PUSH1 0x0 CALLDATALOAD PUSH1 0xE0 SHR DUP1 PUSH4 0x8DA03997 GT PUSH2 0x10D JUMPI DUP1 PUSH4 0xE08738DA GT PUSH2 0xA0 JUMPI DUP1 PUSH4 0xE8C98B22 GT PUSH2 0x6F JUMPI DUP1 PUSH4 0xE8C98B22 EQ PUSH2 0x6A2 JUMPI DUP1 PUSH4 0xEA7DA6EA EQ PUSH2 0x6C2 JUMPI DUP1 PUSH4 0xEAF994B2 EQ PUSH2 0x6E2 JUMPI DUP1 PUSH4 0xF76488BE EQ PUSH2 0x702 JUMPI DUP1 PUSH4 0xFB4856A2 EQ PUSH2 0x722 JUMPI PUSH1 0x0 DUP1 REVERT JUMPDEST DUP1 PUSH4 0xE08738DA EQ PUSH2 0x622 JUMPI DUP1 PUSH4 0xE1758BD8 EQ PUSH2 0x642 JUMPI DUP1 PUSH4 0xE4537A74 EQ PUSH2 0x662 JUMPI DUP1 PUSH4 0xE869D45F EQ PUSH2 0x682 JUMPI PUSH1 0x0 DUP1 REVERT JUMPDEST DUP1 PUSH4 0xC9B62EB1 GT PUSH2 0xDC JUMPI DUP1 PUSH4 0xC9B62EB1 EQ PUSH2 0x55F JUMPI DUP1 PUSH4 0xD1B7089A EQ PUSH2 0x57F JUMPI DUP1 PUSH4 0xD22BE043 EQ PUSH2 0x5AD JUMPI DUP1 PUSH4 0xDB6149CE EQ PUSH2 0x5CD JUMPI PUSH1 0x0 DUP1 REVERT JUMPDEST DUP1 PUSH4 0x8DA03997 EQ PUSH2 0x4C6 JUMPI DUP1 PUSH4 0x9B51E35A EQ PUSH2 0x4E6 JUMPI DUP1 PUSH4 0x9BE2FAED EQ PUSH2 0x51F JUMPI DUP1 PUSH4 0xB9A04CDD EQ PUSH2 0x53F JUMPI PUSH1 0x0 DUP1 REVERT JUMPDEST DUP1 PUSH4 0x4F52B5BE GT PUSH2 0x190 JUMPI DUP1 PUSH4 0x6C525B13 GT PUSH2 0x15F JUMPI DUP1 PUSH4 0x6C525B13 EQ PUSH2 0x3F7 JUMPI DUP1 PUSH4 0x6E94D278 EQ PUSH2 0x417 JUMPI DUP1 PUSH4 0x814784F6 EQ PUSH2 0x437 JUMPI DUP1 PUSH4 0x824F2F1F EQ PUSH2 0x471 JUMPI DUP1 PUSH4 0x89AE1C90 EQ PUSH2 0x4A6 JUMPI PUSH1 0x0 DUP1 REVERT JUMPDEST DUP1 PUSH4 0x4F52B5BE EQ PUSH2 0x377 JUMPI DUP1 PUSH4 0x51803CD8 EQ PUSH2 0x397 JUMPI DUP1 PUSH4 0x5AEF7DE6 EQ PUSH2 0x3B7 JUMPI DUP1 PUSH4 0x634965DA EQ PUSH2 0x3D7 JUMPI PUSH1 0x0 DUP1 REVERT JUMPDEST DUP1 PUSH4 0x37442D20 GT PUSH2 0x1CC JUMPI DUP1 PUSH4 0x37442D20 EQ PUSH2 0x2E0 JUMPI DUP1 PUSH4 0x3A02263C EQ PUSH2 0x300 JUMPI DUP1 PUSH4 0x42427BF8 EQ PUSH2 0x2E0 JUMPI DUP1 PUSH4 0x4422D372 EQ PUSH2 0x338 JUMPI PUSH1 0x0 DUP1 REVERT JUMPDEST DUP1 PUSH4 0x39DE01D EQ PUSH2 0x20C JUMPI DUP1 PUSH4 0x177EEBB0 EQ PUSH2 0x241 JUMPI DUP1 PUSH4 0x1C4D5608 EQ PUSH2 0x292 JUMPI DUP1 PUSH4 0x3132511B EQ PUSH2 0x2C0 JUMPI PUSH1 0x0 DUP1 REVERT JUMPDEST CALLDATASIZE PUSH2 0x207 JUMPI PUSH1 0x0 DUP1 REVERT JUMPDEST PUSH1 0x0 DUP1 REVERT JUMPDEST CALLVALUE DUP1 ISZERO PUSH2 0x218 JUMPI PUSH1 0x0 DUP1 REVERT JUMPDEST POP PUSH2 0x22C PUSH2 0x227 CALLDATASIZE PUSH1 0x4 PUSH2 0x3305 JUMP JUMPDEST PUSH2 0x742 JUMP JUMPDEST PUSH1 0x40 MLOAD SWAP1 ISZERO ISZERO DUP2 MSTORE PUSH1 0x20 ADD JUMPDEST PUSH1 0x40 MLOAD DUP1 SWAP2 SUB SWAP1 RETURN JUMPDEST CALLVALUE DUP1 ISZERO PUSH2 0x24D JUMPI PUSH1 0x0 DUP1 REVERT JUMPDEST POP PUSH2 0x27B PUSH2 0x25C CALLDATASIZE PUSH1 0x4 PUSH2 0x333E JUMP JUMPDEST PUSH1 0x8 PUSH1 0x20 MSTORE PUSH1 0x0 SWAP1 DUP2 MSTORE PUSH1 0x40 SWAP1 KECCAK256 DUP1 SLOAD PUSH1 0x1 SWAP1 SWAP2 ADD SLOAD PUSH1 0xFF SWAP1 SWAP2 AND SWAP1 DUP3 JUMP JUMPDEST PUSH1 0x40 DUP1 MLOAD SWAP3 ISZERO ISZERO DUP4 MSTORE PUSH1 0x20 DUP4 ADD SWAP2 SWAP1 SWAP2 MSTORE ADD PUSH2 0x238 JUMP JUMPDEST CALLVALUE DUP1 ISZERO PUSH2 0x29E JUMPI PUSH1 0x0 DUP1 REVERT JUMPDEST POP PUSH2 0x2B2 PUSH2 0x2AD CALLDATASIZE PUSH1 0x4 PUSH2 0x3305 JUMP JUMPDEST PUSH2 0xA50 JUMP JUMPDEST PUSH1 0x40 MLOAD SWAP1 DUP2 MSTORE PUSH1 0x20 ADD PUSH2 0x238 JUMP JUMPDEST CALLVALUE DUP1 ISZERO PUSH2 0x2CC JUMPI PUSH1 0x0 DUP1 REVERT JUMPDEST POP PUSH2 0x22C PUSH2 0x2DB CALLDATASIZE PUSH1 0x4 PUSH2 0x3305 JUMP JUMPDEST PUSH2 0xA92 JUMP JUMPDEST CALLVALUE DUP1 ISZERO PUSH2 0x2EC JUMPI PUSH1 0x0 DUP1 REVERT JUMPDEST POP PUSH2 0x22C PUSH2 0x2FB CALLDATASIZE PUSH1 0x4 PUSH2 0x3305 JUMP JUMPDEST PUSH2 0xACB JUMP JUMPDEST CALLVALUE DUP1 ISZERO PUSH2 0x30C JUMPI PUSH1 0x0 DUP1 REVERT JUMPDEST POP PUSH1 0x5 SLOAD PUSH2 0x320 SWAP1 PUSH1 0x1 PUSH1 0x1 PUSH1 0xA0 SHL SUB AND DUP2 JUMP JUMPDEST PUSH1 0x40 MLOAD PUSH1 0x1 PUSH1 0x1 PUSH1 0xA0 SHL SUB SWAP1 SWAP2 AND DUP2 MSTORE PUSH1 0x20 ADD PUSH2 0x238 JUMP JUMPDEST CALLVALUE DUP1 ISZERO PUSH2 0x344 JUMPI PUSH1 0x0 DUP1 REVERT JUMPDEST POP PUSH2 0x358 PUSH2 0x353 CALLDATASIZE PUSH1 0x4 PUSH2 0x3362 JUMP JUMPDEST PUSH2 0xE2A JUMP JUMPDEST PUSH1 0x40 DUP1 MLOAD PUSH1 0x1 PUSH1 0x1 PUSH1 0xA0 SHL SUB SWAP1 SWAP4 AND DUP4 MSTORE PUSH1 0x20 DUP4 ADD SWAP2 SWAP1 SWAP2 MSTORE ADD PUSH2 0x238 JUMP JUMPDEST CALLVALUE DUP1 ISZERO PUSH2 0x383 JUMPI PUSH1 0x0 DUP1 REVERT JUMPDEST POP PUSH2 0x22C PUSH2 0x392 CALLDATASIZE PUSH1 0x4 PUSH2 0x3305 JUMP JUMPDEST PUSH2 0xE62 JUMP JUMPDEST CALLVALUE DUP1 ISZERO PUSH2 0x3A3 JUMPI PUSH1 0x0 DUP1 REVERT JUMPDEST POP PUSH2 0x22C PUSH2 0x3B2 CALLDATASIZE PUSH1 0x4 PUSH2 0x337B JUMP JUMPDEST PUSH2 0x1323 JUMP JUMPDEST CALLVALUE DUP1 ISZERO PUSH2 0x3C3 JUMPI PUSH1 0x0 DUP1 REVERT JUMPDEST POP PUSH1 0x1 SLOAD PUSH2 0x320 SWAP1 PUSH1 0x1 PUSH1 0x1 PUSH1 0xA0 SHL SUB AND DUP2 JUMP JUMPDEST CALLVALUE DUP1 ISZERO PUSH2 0x3E3 JUMPI PUSH1 0x0 DUP1 REVERT JUMPDEST POP PUSH2 0x22C PUSH2 0x3F2 CALLDATASIZE PUSH1 0x4 PUSH2 0x33CE JUMP JUMPDEST PUSH2 0x1613 JUMP JUMPDEST CALLVALUE DUP1 ISZERO PUSH2 0x403 JUMPI PUSH1 0x0 DUP1 REVERT JUMPDEST POP PUSH2 0x22C PUSH2 0x412 CALLDATASIZE PUSH1 0x4 PUSH2 0x333E JUMP JUMPDEST PUSH2 0x18E6 JUMP JUMPDEST CALLVALUE DUP1 ISZERO PUSH2 0x423 JUMPI PUSH1 0x0 DUP1 REVERT JUMPDEST POP PUSH2 0x22C PUSH2 0x432 CALLDATASIZE PUSH1 0x4 PUSH2 0x33CE JUMP JUMPDEST PUSH2 0x196D JUMP JUMPDEST CALLVALUE DUP1 ISZERO PUSH2 0x443 JUMPI PUSH1 0x0 DUP1 REVERT JUMPDEST POP PUSH2 0x27B PUSH2 0x452 CALLDATASIZE PUSH1 0x4 PUSH2 0x333E JUMP JUMPDEST PUSH1 0x9 PUSH1 0x20 MSTORE PUSH1 0x0 SWAP1 DUP2 MSTORE PUSH1 0x40 SWAP1 KECCAK256 DUP1 SLOAD PUSH1 0x1 SWAP1 SWAP2 ADD SLOAD PUSH1 0xFF SWAP1 SWAP2 AND SWAP1 DUP3 JUMP JUMPDEST CALLVALUE DUP1 ISZERO PUSH2 0x47D JUMPI PUSH1 0x0 DUP1 REVERT JUMPDEST POP PUSH2 0x491 PUSH2 0x48C CALLDATASIZE PUSH1 0x4 PUSH2 0x333E JUMP JUMPDEST PUSH2 0x1C7C JUMP JUMPDEST PUSH1 0x40 DUP1 MLOAD SWAP3 DUP4 MSTORE PUSH1 0x20 DUP4 ADD SWAP2 SWAP1 SWAP2 MSTORE ADD PUSH2 0x238 JUMP JUMPDEST CALLVALUE DUP1 ISZERO PUSH2 0x4B2 JUMPI PUSH1 0x0 DUP1 REVERT JUMPDEST POP PUSH1 0x3 SLOAD PUSH2 0x320 SWAP1 PUSH1 0x1 PUSH1 0x1 PUSH1 0xA0 SHL SUB AND DUP2 JUMP JUMPDEST CALLVALUE DUP1 ISZERO PUSH2 0x4D2 JUMPI PUSH1 0x0 DUP1 REVERT JUMPDEST POP PUSH2 0x320 PUSH2 0x4E1 CALLDATASIZE PUSH1 0x4 PUSH2 0x333E JUMP JUMPDEST PUSH2 0x1CAE JUMP JUMPDEST CALLVALUE DUP1 ISZERO PUSH2 0x4F2 JUMPI PUSH1 0x0 DUP1 REVERT JUMPDEST POP PUSH2 0x506 PUSH2 0x501 CALLDATASIZE PUSH1 0x4 PUSH2 0x3305 JUMP JUMPDEST PUSH2 0x1CE0 JUMP JUMPDEST PUSH1 0x40 MLOAD PUSH1 0x1 PUSH1 0x1 PUSH1 0xE0 SHL SUB NOT SWAP1 SWAP2 AND DUP2 MSTORE PUSH1 0x20 ADD PUSH2 0x238 JUMP JUMPDEST CALLVALUE DUP1 ISZERO PUSH2 0x52B JUMPI PUSH1 0x0 DUP1 REVERT JUMPDEST POP PUSH2 0x22C PUSH2 0x53A CALLDATASIZE PUSH1 0x4 PUSH2 0x3305 JUMP JUMPDEST PUSH2 0x1D23 JUMP JUMPDEST CALLVALUE DUP1 ISZERO PUSH2 0x54B JUMPI PUSH1 0x0 DUP1 REVERT JUMPDEST POP PUSH2 0x22C PUSH2 0x55A CALLDATASIZE PUSH1 0x4 PUSH2 0x337B JUMP JUMPDEST PUSH2 0x1D4B JUMP JUMPDEST CALLVALUE DUP1 ISZERO PUSH2 0x56B JUMPI PUSH1 0x0 DUP1 REVERT JUMPDEST POP PUSH2 0x22C PUSH2 0x57A CALLDATASIZE PUSH1 0x4 PUSH2 0x3459 JUMP JUMPDEST PUSH2 0x2029 JUMP JUMPDEST CALLVALUE DUP1 ISZERO PUSH2 0x58B JUMPI PUSH1 0x0 DUP1 REVERT JUMPDEST POP PUSH2 0x59F PUSH2 0x59A CALLDATASIZE PUSH1 0x4 PUSH2 0x34A5 JUMP JUMPDEST PUSH2 0x20FA JUMP JUMPDEST PUSH1 0x40 MLOAD PUSH2 0x238 SWAP3 SWAP2 SWAP1 PUSH2 0x3545 JUMP JUMPDEST CALLVALUE DUP1 ISZERO PUSH2 0x5B9 JUMPI PUSH1 0x0 DUP1 REVERT JUMPDEST POP PUSH2 0x22C PUSH2 0x5C8 CALLDATASIZE PUSH1 0x4 PUSH2 0x333E JUMP JUMPDEST PUSH2 0x23DD JUMP JUMPDEST CALLVALUE DUP1 ISZERO PUSH2 0x5D9 JUMPI PUSH1 0x0 DUP1 REVERT JUMPDEST POP PUSH2 0x604 PUSH2 0x5E8 CALLDATASIZE PUSH1 0x4 PUSH2 0x333E JUMP JUMPDEST PUSH1 0x0 PUSH1 0x20 DUP2 SWAP1 MSTORE SWAP1 DUP2 MSTORE PUSH1 0x40 SWAP1 KECCAK256 DUP1 SLOAD PUSH1 0x1 SWAP1 SWAP2 ADD SLOAD PUSH1 0xE0 SHL DUP3 JUMP JUMPDEST PUSH1 0x40 DUP1 MLOAD SWAP3 DUP4 MSTORE PUSH1 0x1 PUSH1 0x1 PUSH1 0xE0 SHL SUB NOT SWAP1 SWAP2 AND PUSH1 0x20 DUP4 ADD MSTORE ADD PUSH2 0x238 JUMP JUMPDEST CALLVALUE DUP1 ISZERO PUSH2 0x62E JUMPI PUSH1 0x0 DUP1 REVERT JUMPDEST POP PUSH2 0x2B2 PUSH2 0x63D CALLDATASIZE PUSH1 0x4 PUSH2 0x3305 JUMP JUMPDEST PUSH2 0x2429 JUMP JUMPDEST CALLVALUE DUP1 ISZERO PUSH2 0x64E JUMPI PUSH1 0x0 DUP1 REVERT JUMPDEST POP PUSH1 0x2 SLOAD PUSH2 0x320 SWAP1 PUSH1 0x1 PUSH1 0x1 PUSH1 0xA0 SHL SUB AND DUP2 JUMP JUMPDEST CALLVALUE DUP1 ISZERO PUSH2 0x66E JUMPI PUSH1 0x0 DUP1 REVERT JUMPDEST POP PUSH2 0x22C PUSH2 0x67D CALLDATASIZE PUSH1 0x4 PUSH2 0x3581 JUMP JUMPDEST PUSH2 0x24F6 JUMP JUMPDEST CALLVALUE DUP1 ISZERO PUSH2 0x68E JUMPI PUSH1 0x0 DUP1 REVERT JUMPDEST POP PUSH2 0x22C PUSH2 0x69D CALLDATASIZE PUSH1 0x4 PUSH2 0x35B8 JUMP JUMPDEST PUSH2 0x290E JUMP JUMPDEST CALLVALUE DUP1 ISZERO PUSH2 0x6AE JUMPI PUSH1 0x0 DUP1 REVERT JUMPDEST POP PUSH2 0x358 PUSH2 0x6BD CALLDATASIZE PUSH1 0x4 PUSH2 0x3362 JUMP JUMPDEST PUSH2 0x2C4A JUMP JUMPDEST CALLVALUE DUP1 ISZERO PUSH2 0x6CE JUMPI PUSH1 0x0 DUP1 REVERT JUMPDEST POP PUSH1 0x4 SLOAD PUSH2 0x320 SWAP1 PUSH1 0x1 PUSH1 0x1 PUSH1 0xA0 SHL SUB AND DUP2 JUMP JUMPDEST CALLVALUE DUP1 ISZERO PUSH2 0x6EE JUMPI PUSH1 0x0 DUP1 REVERT JUMPDEST POP PUSH2 0x22C PUSH2 0x6FD CALLDATASIZE PUSH1 0x4 PUSH2 0x33CE JUMP JUMPDEST PUSH2 0x2C5A JUMP JUMPDEST CALLVALUE DUP1 ISZERO PUSH2 0x70E JUMPI PUSH1 0x0 DUP1 REVERT JUMPDEST POP PUSH2 0x22C PUSH2 0x71D CALLDATASIZE PUSH1 0x4 PUSH2 0x3305 JUMP JUMPDEST PUSH2 0x2F69 JUMP JUMPDEST CALLVALUE DUP1 ISZERO PUSH2 0x72E JUMPI PUSH1 0x0 DUP1 REVERT JUMPDEST POP PUSH2 0x22C PUSH2 0x73D CALLDATASIZE PUSH1 0x4 PUSH2 0x360D JUMP JUMPDEST PUSH2 0x2FCB JUMP JUMPDEST CALLER PUSH1 0x0 SWAP1 DUP2 MSTORE PUSH1 0x20 DUP2 SWAP1 MSTORE PUSH1 0x40 DUP2 KECCAK256 PUSH1 0x1 ADD SLOAD PUSH1 0xE0 SHL PUSH1 0x1 PUSH1 0xE1 SHL SWAP1 DUP2 AND EQ PUSH2 0x76A JUMPI PUSH1 0x0 DUP1 REVERT JUMPDEST PUSH16 0x756E7265676973746572536368656D65 PUSH1 0x80 SHL PUSH1 0x0 JUMPDEST PUSH1 0x6 SLOAD DUP2 LT ISZERO PUSH2 0x875 JUMPI PUSH1 0x6 DUP2 DUP2 SLOAD DUP2 LT PUSH2 0x79E JUMPI PUSH2 0x79E PUSH2 0x3675 JUMP JUMPDEST PUSH1 0x0 SWAP2 DUP3 MSTORE PUSH1 0x20 SWAP1 SWAP2 KECCAK256 PUSH1 0x2 SWAP1 SWAP2 MUL ADD SLOAD PUSH1 0x6 DUP1 SLOAD PUSH1 0x1 PUSH1 0x1 PUSH1 0xA0 SHL SUB SWAP1 SWAP3 AND SWAP2 PUSH4 0xC1786AB2 SWAP2 CALLER SWAP2 DUP6 SWAP1 DUP2 LT PUSH2 0x7D7 JUMPI PUSH2 0x7D7 PUSH2 0x3675 JUMP JUMPDEST SWAP1 PUSH1 0x0 MSTORE PUSH1 0x20 PUSH1 0x0 KECCAK256 SWAP1 PUSH1 0x2 MUL ADD PUSH1 0x1 ADD SLOAD DUP6 PUSH1 0x40 MLOAD DUP5 PUSH4 0xFFFFFFFF AND PUSH1 0xE0 SHL DUP2 MSTORE PUSH1 0x4 ADD PUSH2 0x808 SWAP4 SWAP3 SWAP2 SWAP1 PUSH2 0x368B JUMP JUMPDEST PUSH1 0x20 PUSH1 0x40 MLOAD DUP1 DUP4 SUB DUP2 PUSH1 0x0 DUP8 DUP1 EXTCODESIZE ISZERO DUP1 ISZERO PUSH2 0x822 JUMPI PUSH1 0x0 DUP1 REVERT JUMPDEST POP GAS CALL ISZERO DUP1 ISZERO PUSH2 0x836 JUMPI RETURNDATASIZE PUSH1 0x0 DUP1 RETURNDATACOPY RETURNDATASIZE PUSH1 0x0 REVERT JUMPDEST POP POP POP POP PUSH1 0x40 MLOAD RETURNDATASIZE PUSH1 0x1F NOT PUSH1 0x1F DUP3 ADD AND DUP3 ADD DUP1 PUSH1 0x40 MSTORE POP DUP2 ADD SWAP1 PUSH2 0x85A SWAP2 SWAP1 PUSH2 0x36BC JUMP JUMPDEST PUSH2 0x863 JUMPI PUSH1 0x0 DUP1 REVERT JUMPDEST DUP1 PUSH2 0x86D DUP2 PUSH2 0x36ED JUMP JUMPDEST SWAP2 POP POP PUSH2 0x781 JUMP JUMPDEST PUSH1 0x1 SLOAD DUP5 SWAP1 PUSH1 0x1 PUSH1 0x1 PUSH1 0xA0 SHL SUB DUP1 DUP4 AND SWAP2 AND EQ PUSH2 0x891 JUMPI PUSH1 0x0 DUP1 REVERT JUMPDEST PUSH2 0x89A DUP7 PUSH2 0x32C4 JUMP JUMPDEST PUSH2 0x8A7 JUMPI PUSH1 0x0 SWAP4 POP PUSH2 0x94E JUMP JUMPDEST CALLER PUSH1 0x0 SWAP1 DUP2 MSTORE PUSH1 0x20 DUP2 SWAP1 MSTORE PUSH1 0x40 DUP1 DUP3 KECCAK256 PUSH1 0x1 SWAP1 DUP2 ADD SLOAD PUSH1 0x1 PUSH1 0x1 PUSH1 0xA0 SHL SUB DUP11 AND DUP5 MSTORE SWAP2 SWAP1 SWAP3 KECCAK256 SWAP1 SWAP2 ADD SLOAD PUSH1 0xE0 SWAP2 DUP3 SHL NOT SWAP2 SHL AND PUSH1 0x1F PUSH1 0xE0 SHL AND ISZERO PUSH2 0x8EA JUMPI PUSH1 0x0 DUP1 REVERT JUMPDEST PUSH1 0x40 MLOAD PUSH1 0x1 PUSH1 0x1 PUSH1 0xA0 SHL SUB DUP8 AND SWAP1 CALLER SWAP1 PUSH32 0x10BB2CF04CB8B902A8E736D494F1A51003BE6D4B16EF6FB95CE62C38445023BF SWAP1 PUSH1 0x0 SWAP1 LOG3 PUSH1 0x1 PUSH1 0x1 PUSH1 0xA0 SHL SUB DUP7 AND PUSH1 0x0 SWAP1 DUP2 MSTORE PUSH1 0x20 DUP2 SWAP1 MSTORE PUSH1 0x40 DUP2 KECCAK256 SWAP1 DUP2 SSTORE PUSH1 0x1 SWAP1 DUP2 ADD DUP1 SLOAD PUSH4 0xFFFFFFFF NOT AND SWAP1 SSTORE SWAP4 POP JUMPDEST POP PUSH1 0x0 SWAP1 POP JUMPDEST PUSH1 0x7 SLOAD DUP2 LT ISZERO PUSH2 0xA48 JUMPI PUSH1 0x7 DUP2 DUP2 SLOAD DUP2 LT PUSH2 0x971 JUMPI PUSH2 0x971 PUSH2 0x3675 JUMP JUMPDEST PUSH1 0x0 SWAP2 DUP3 MSTORE PUSH1 0x20 SWAP1 SWAP2 KECCAK256 PUSH1 0x2 SWAP1 SWAP2 MUL ADD SLOAD PUSH1 0x7 DUP1 SLOAD PUSH1 0x1 PUSH1 0x1 PUSH1 0xA0 SHL SUB SWAP1 SWAP3 AND SWAP2 PUSH4 0x8043154D SWAP2 CALLER SWAP2 DUP6 SWAP1 DUP2 LT PUSH2 0x9AA JUMPI PUSH2 0x9AA PUSH2 0x3675 JUMP JUMPDEST SWAP1 PUSH1 0x0 MSTORE PUSH1 0x20 PUSH1 0x0 KECCAK256 SWAP1 PUSH1 0x2 MUL ADD PUSH1 0x1 ADD SLOAD DUP6 PUSH1 0x40 MLOAD DUP5 PUSH4 0xFFFFFFFF AND PUSH1 0xE0 SHL DUP2 MSTORE PUSH1 0x4 ADD PUSH2 0x9DB SWAP4 SWAP3 SWAP2 SWAP1 PUSH2 0x368B JUMP JUMPDEST PUSH1 0x20 PUSH1 0x40 MLOAD DUP1 DUP4 SUB DUP2 PUSH1 0x0 DUP8 DUP1 EXTCODESIZE ISZERO DUP1 ISZERO PUSH2 0x9F5 JUMPI PUSH1 0x0 DUP1 REVERT JUMPDEST POP GAS CALL ISZERO DUP1 ISZERO PUSH2 0xA09 JUMPI RETURNDATASIZE PUSH1 0x0 DUP1 RETURNDATACOPY RETURNDATASIZE PUSH1 0x0 REVERT JUMPDEST POP POP POP POP PUSH1 0x40 MLOAD RETURNDATASIZE PUSH1 0x1F NOT PUSH1 0x1F DUP3 ADD AND DUP3 ADD DUP1 PUSH1 0x40 MSTORE POP DUP2 ADD SWAP1 PUSH2 0xA2D SWAP2 SWAP1 PUSH2 0x36BC JUMP JUMPDEST PUSH2 0xA36 JUMPI PUSH1 0x0 DUP1 REVERT JUMPDEST DUP1 PUSH2 0xA40 DUP2 PUSH2 0x36ED JUMP JUMPDEST SWAP2 POP POP PUSH2 0x954 JUMP JUMPDEST POP POP SWAP3 SWAP2 POP POP JUMP JUMPDEST PUSH1 0x1 SLOAD PUSH1 0x0 SWAP1 DUP3 SWAP1 PUSH1 0x1 PUSH1 0x1 PUSH1 0xA0 SHL SUB DUP1 DUP4 AND SWAP2 AND EQ PUSH2 0xA6F JUMPI PUSH1 0x0 DUP1 REVERT JUMPDEST PUSH1 0x1 PUSH1 0x1 PUSH1 0xA0 SHL SUB DUP5 AND PUSH1 0x0 SWAP1 DUP2 MSTORE PUSH1 0x20 DUP2 SWAP1 MSTORE PUSH1 0x40 SWAP1 KECCAK256 SLOAD SWAP2 POP JUMPDEST POP SWAP3 SWAP2 POP POP JUMP JUMPDEST PUSH1 0x1 SLOAD PUSH1 0x0 SWAP1 DUP3 SWAP1 PUSH1 0x1 PUSH1 0x1 PUSH1 0xA0 SHL SUB DUP1 DUP4 AND SWAP2 AND EQ PUSH2 0xAB1 JUMPI PUSH1 0x0 DUP1 REVERT JUMPDEST PUSH1 0x4 SLOAD PUSH1 0x1 PUSH1 0x1 PUSH1 0xA0 SHL SUB DUP6 DUP2 AND SWAP2 AND EQ JUMPDEST SWAP5 SWAP4 POP POP POP POP JUMP JUMPDEST CALLER PUSH1 0x0 SWAP1 DUP2 MSTORE PUSH1 0x20 DUP2 SWAP1 MSTORE PUSH1 0x40 DUP2 KECCAK256 PUSH1 0x1 ADD SLOAD PUSH1 0xE0 SHL PUSH1 0x1 PUSH1 0xE3 SHL SWAP1 DUP2 AND EQ PUSH2 0xAF3 JUMPI PUSH1 0x0 DUP1 REVERT JUMPDEST PUSH1 0x1 SLOAD DUP3 SWAP1 PUSH1 0x1 PUSH1 0x1 PUSH1 0xA0 SHL SUB DUP1 DUP4 AND SWAP2 AND EQ PUSH2 0xB0F JUMPI PUSH1 0x0 DUP1 REVERT JUMPDEST PUSH1 0x5 SLOAD PUSH1 0x1 PUSH1 0x1 PUSH1 0xA0 SHL SUB AND ISZERO PUSH2 0xB25 JUMPI PUSH1 0x0 DUP1 REVERT JUMPDEST PUSH1 0x1 PUSH1 0x1 PUSH1 0xA0 SHL SUB DUP5 AND PUSH2 0xB38 JUMPI PUSH1 0x0 DUP1 REVERT JUMPDEST PUSH1 0x5 DUP1 SLOAD PUSH1 0x1 PUSH1 0x1 PUSH1 0xA0 SHL SUB NOT AND PUSH1 0x1 PUSH1 0x1 PUSH1 0xA0 SHL SUB DUP7 DUP2 AND SWAP2 DUP3 OR SWAP1 SWAP3 SSTORE PUSH1 0x1 SLOAD PUSH1 0x40 MLOAD PUSH4 0xF2FDE38B PUSH1 0xE0 SHL DUP2 MSTORE PUSH1 0x4 DUP2 ADD SWAP3 SWAP1 SWAP3 MSTORE SWAP1 SWAP2 AND SWAP1 PUSH4 0xF2FDE38B SWAP1 PUSH1 0x24 ADD PUSH1 0x0 PUSH1 0x40 MLOAD DUP1 DUP4 SUB DUP2 PUSH1 0x0 DUP8 DUP1 EXTCODESIZE ISZERO DUP1 ISZERO PUSH2 0xB96 JUMPI PUSH1 0x0 DUP1 REVERT JUMPDEST POP GAS CALL ISZERO DUP1 ISZERO PUSH2 0xBAA JUMPI RETURNDATASIZE PUSH1 0x0 DUP1 RETURNDATACOPY RETURNDATASIZE PUSH1 0x0 REVERT JUMPDEST POP POP POP POP DUP4 PUSH1 0x1 PUSH1 0x1 PUSH1 0xA0 SHL SUB AND PUSH1 0x1 PUSH1 0x0 SWAP1 SLOAD SWAP1 PUSH2 0x100 EXP SWAP1 DIV PUSH1 0x1 PUSH1 0x1 PUSH1 0xA0 SHL SUB AND PUSH1 0x1 PUSH1 0x1 PUSH1 0xA0 SHL SUB AND PUSH4 0x8DA5CB5B PUSH1 0x40 MLOAD DUP2 PUSH4 0xFFFFFFFF AND PUSH1 0xE0 SHL DUP2 MSTORE PUSH1 0x4 ADD PUSH1 0x20 PUSH1 0x40 MLOAD DUP1 DUP4 SUB DUP2 DUP7 DUP1 EXTCODESIZE ISZERO DUP1 ISZERO PUSH2 0xC06 JUMPI PUSH1 0x0 DUP1 REVERT JUMPDEST POP GAS STATICCALL ISZERO DUP1 ISZERO PUSH2 0xC1A JUMPI RETURNDATASIZE PUSH1 0x0 DUP1 RETURNDATACOPY RETURNDATASIZE PUSH1 0x0 REVERT JUMPDEST POP POP POP POP PUSH1 0x40 MLOAD RETURNDATASIZE PUSH1 0x1F NOT PUSH1 0x1F DUP3 ADD AND DUP3 ADD DUP1 PUSH1 0x40 MSTORE POP DUP2 ADD SWAP1 PUSH2 0xC3E SWAP2 SWAP1 PUSH2 0x3708 JUMP JUMPDEST PUSH1 0x1 PUSH1 0x1 PUSH1 0xA0 SHL SUB AND EQ PUSH2 0xC51 JUMPI PUSH1 0x0 DUP1 REVERT JUMPDEST PUSH1 0x3 SLOAD PUSH1 0x40 DUP1 MLOAD PUSH4 0x8DA5CB5B PUSH1 0xE0 SHL DUP2 MSTORE SWAP1 MLOAD ADDRESS SWAP3 PUSH1 0x1 PUSH1 0x1 PUSH1 0xA0 SHL SUB AND SWAP2 PUSH4 0x8DA5CB5B SWAP2 PUSH1 0x4 DUP1 DUP4 ADD SWAP3 PUSH1 0x20 SWAP3 SWAP2 SWAP1 DUP3 SWAP1 SUB ADD DUP2 DUP7 DUP1 EXTCODESIZE ISZERO DUP1 ISZERO PUSH2 0xC95 JUMPI PUSH1 0x0 DUP1 REVERT JUMPDEST POP GAS STATICCALL ISZERO DUP1 ISZERO PUSH2 0xCA9 JUMPI RETURNDATASIZE PUSH1 0x0 DUP1 RETURNDATACOPY RETURNDATASIZE PUSH1 0x0 REVERT JUMPDEST POP POP POP POP PUSH1 0x40 MLOAD RETURNDATASIZE PUSH1 0x1F NOT PUSH1 0x1F DUP3 ADD AND DUP3 ADD DUP1 PUSH1 0x40 MSTORE POP DUP2 ADD SWAP1 PUSH2 0xCCD SWAP2 SWAP1 PUSH2 0x3708 JUMP JUMPDEST PUSH1 0x1 PUSH1 0x1 PUSH1 0xA0 SHL SUB AND EQ ISZERO PUSH2 0xDDE JUMPI PUSH1 0x3 SLOAD PUSH1 0x40 MLOAD PUSH4 0xF2FDE38B PUSH1 0xE0 SHL DUP2 MSTORE PUSH1 0x1 PUSH1 0x1 PUSH1 0xA0 SHL SUB DUP7 DUP2 AND PUSH1 0x4 DUP4 ADD MSTORE SWAP1 SWAP2 AND SWAP1 PUSH4 0xF2FDE38B SWAP1 PUSH1 0x24 ADD PUSH1 0x0 PUSH1 0x40 MLOAD DUP1 DUP4 SUB DUP2 PUSH1 0x0 DUP8 DUP1 EXTCODESIZE ISZERO DUP1 ISZERO PUSH2 0xD23 JUMPI PUSH1 0x0 DUP1 REVERT JUMPDEST POP GAS CALL ISZERO DUP1 ISZERO PUSH2 0xD37 JUMPI RETURNDATASIZE PUSH1 0x0 DUP1 RETURNDATACOPY RETURNDATASIZE PUSH1 0x0 REVERT JUMPDEST POP POP POP POP DUP4 PUSH1 0x1 PUSH1 0x1 PUSH1 0xA0 SHL SUB AND PUSH1 0x3 PUSH1 0x0 SWAP1 SLOAD SWAP1 PUSH2 0x100 EXP SWAP1 DIV PUSH1 0x1 PUSH1 0x1 PUSH1 0xA0 SHL SUB AND PUSH1 0x1 PUSH1 0x1 PUSH1 0xA0 SHL SUB AND PUSH4 0x8DA5CB5B PUSH1 0x40 MLOAD DUP2 PUSH4 0xFFFFFFFF AND PUSH1 0xE0 SHL DUP2 MSTORE PUSH1 0x4 ADD PUSH1 0x20 PUSH1 0x40 MLOAD DUP1 DUP4 SUB DUP2 DUP7 DUP1 EXTCODESIZE ISZERO DUP1 ISZERO PUSH2 0xD93 JUMPI PUSH1 0x0 DUP1 REVERT JUMPDEST POP GAS STATICCALL ISZERO DUP1 ISZERO PUSH2 0xDA7 JUMPI RETURNDATASIZE PUSH1 0x0 DUP1 RETURNDATACOPY RETURNDATASIZE PUSH1 0x0 REVERT JUMPDEST POP POP POP POP PUSH1 0x40 MLOAD RETURNDATASIZE PUSH1 0x1F NOT PUSH1 0x1F DUP3 ADD AND DUP3 ADD DUP1 PUSH1 0x40 MSTORE POP DUP2 ADD SWAP1 PUSH2 0xDCB SWAP2 SWAP1 PUSH2 0x3708 JUMP JUMPDEST PUSH1 0x1 PUSH1 0x1 PUSH1 0xA0 SHL SUB AND EQ PUSH2 0xDDE JUMPI PUSH1 0x0 DUP1 REVERT JUMPDEST PUSH1 0x5 SLOAD PUSH1 0x40 MLOAD PUSH1 0x1 PUSH1 0x1 PUSH1 0xA0 SHL SUB SWAP1 SWAP2 AND DUP2 MSTORE ADDRESS SWAP1 PUSH32 0xDB7CBACF8DF312D794506C0CC9AF07F64D29CA075796EA2E950A3832CC9A63DD SWAP1 PUSH1 0x20 ADD PUSH1 0x40 MLOAD DUP1 SWAP2 SUB SWAP1 LOG2 POP PUSH1 0x1 SWAP4 SWAP3 POP POP POP JUMP JUMPDEST PUSH1 0x6 DUP2 DUP2 SLOAD DUP2 LT PUSH2 0xE3A JUMPI PUSH1 0x0 DUP1 REVERT JUMPDEST PUSH1 0x0 SWAP2 DUP3 MSTORE PUSH1 0x20 SWAP1 SWAP2 KECCAK256 PUSH1 0x2 SWAP1 SWAP2 MUL ADD DUP1 SLOAD PUSH1 0x1 SWAP1 SWAP2 ADD SLOAD PUSH1 0x1 PUSH1 0x1 PUSH1 0xA0 SHL SUB SWAP1 SWAP2 AND SWAP2 POP DUP3 JUMP JUMPDEST CALLER PUSH1 0x0 SWAP1 DUP2 MSTORE PUSH1 0x20 DUP2 SWAP1 MSTORE PUSH1 0x40 DUP2 KECCAK256 PUSH1 0x1 ADD SLOAD PUSH1 0xE0 SHL PUSH1 0x1 PUSH1 0xE2 SHL SWAP1 DUP2 AND EQ PUSH2 0xE8A JUMPI PUSH1 0x0 DUP1 REVERT JUMPDEST PUSH1 0x1 SLOAD DUP3 SWAP1 PUSH1 0x1 PUSH1 0x1 PUSH1 0xA0 SHL SUB DUP1 DUP4 AND SWAP2 AND EQ PUSH2 0xEA6 JUMPI PUSH1 0x0 DUP1 REVERT JUMPDEST PUSH1 0x40 DUP1 MLOAD DUP1 DUP3 ADD SWAP1 SWAP2 MSTORE PUSH1 0x0 DUP1 DUP3 MSTORE PUSH1 0x20 DUP3 ADD MSTORE PUSH1 0x40 DUP1 MLOAD DUP1 DUP3 ADD SWAP1 SWAP2 MSTORE PUSH1 0x0 DUP1 DUP3 MSTORE PUSH1 0x20 DUP3 ADD MSTORE PUSH1 0x0 DUP7 PUSH1 0x1 PUSH1 0x1 PUSH1 0xA0 SHL SUB AND PUSH4 0xE2B0CAEF PUSH1 0x40 MLOAD DUP2 PUSH4 0xFFFFFFFF AND PUSH1 0xE0 SHL DUP2 MSTORE PUSH1 0x4 ADD PUSH1 0x20 PUSH1 0x40 MLOAD DUP1 DUP4 SUB DUP2 PUSH1 0x0 DUP8 DUP1 EXTCODESIZE ISZERO DUP1 ISZERO PUSH2 0xF0B JUMPI PUSH1 0x0 DUP1 REVERT JUMPDEST POP GAS CALL ISZERO DUP1 ISZERO PUSH2 0xF1F JUMPI RETURNDATASIZE PUSH1 0x0 DUP1 RETURNDATACOPY RETURNDATASIZE PUSH1 0x0 REVERT JUMPDEST POP POP POP POP PUSH1 0x40 MLOAD RETURNDATASIZE PUSH1 0x1F NOT PUSH1 0x1F DUP3 ADD AND DUP3 ADD DUP1 PUSH1 0x40 MSTORE POP DUP2 ADD SWAP1 PUSH2 0xF43 SWAP2 SWAP1 PUSH2 0x3725 JUMP JUMPDEST SWAP1 POP PUSH1 0x0 DUP1 DUP3 PUSH1 0x2 DUP2 GT ISZERO PUSH2 0xF5A JUMPI PUSH2 0xF5A PUSH2 0x3746 JUMP JUMPDEST EQ DUP1 PUSH2 0xF77 JUMPI POP PUSH1 0x2 DUP3 PUSH1 0x2 DUP2 GT ISZERO PUSH2 0xF75 JUMPI PUSH2 0xF75 PUSH2 0x3746 JUMP JUMPDEST EQ JUMPDEST ISZERO PUSH2 0x10FD JUMPI PUSH1 0x1 PUSH1 0x1 PUSH1 0xA0 SHL SUB DUP9 AND PUSH1 0x0 SWAP1 DUP2 MSTORE PUSH1 0x8 PUSH1 0x20 SWAP1 DUP2 MSTORE PUSH1 0x40 SWAP2 DUP3 SWAP1 KECCAK256 DUP3 MLOAD DUP1 DUP5 ADD SWAP1 SWAP4 MSTORE DUP1 SLOAD PUSH1 0xFF AND ISZERO DUP1 ISZERO DUP5 MSTORE PUSH1 0x1 SWAP1 SWAP2 ADD SLOAD SWAP2 DUP4 ADD SWAP2 SWAP1 SWAP2 MSTORE SWAP1 SWAP5 POP PUSH2 0x10FD JUMPI PUSH1 0x6 SLOAD PUSH2 0xFCD SWAP1 PUSH1 0x1 SWAP1 PUSH2 0x375C JUMP JUMPDEST DUP5 PUSH1 0x20 ADD MLOAD LT ISZERO PUSH2 0x1096 JUMPI PUSH1 0x6 DUP1 SLOAD PUSH2 0xFE8 SWAP1 PUSH1 0x1 SWAP1 PUSH2 0x375C JUMP JUMPDEST DUP2 SLOAD DUP2 LT PUSH2 0xFF8 JUMPI PUSH2 0xFF8 PUSH2 0x3675 JUMP JUMPDEST PUSH1 0x0 SWAP2 DUP3 MSTORE PUSH1 0x20 SWAP2 DUP3 SWAP1 KECCAK256 PUSH1 0x40 DUP1 MLOAD DUP1 DUP3 ADD SWAP1 SWAP2 MSTORE PUSH1 0x2 SWAP1 SWAP3 MUL ADD DUP1 SLOAD PUSH1 0x1 PUSH1 0x1 PUSH1 0xA0 SHL SUB AND DUP3 MSTORE PUSH1 0x1 ADD SLOAD DUP2 DUP4 ADD MSTORE SWAP1 DUP6 ADD MLOAD PUSH1 0x6 DUP1 SLOAD SWAP3 SWAP6 POP DUP6 SWAP3 SWAP1 SWAP2 SWAP1 DUP2 LT PUSH2 0x1046 JUMPI PUSH2 0x1046 PUSH2 0x3675 JUMP JUMPDEST PUSH1 0x0 SWAP2 DUP3 MSTORE PUSH1 0x20 DUP1 DUP4 KECCAK256 DUP5 MLOAD PUSH1 0x2 SWAP4 SWAP1 SWAP4 MUL ADD DUP1 SLOAD PUSH1 0x1 PUSH1 0x1 PUSH1 0xA0 SHL SUB NOT AND PUSH1 0x1 PUSH1 0x1 PUSH1 0xA0 SHL SUB SWAP4 DUP5 AND OR DUP2 SSTORE SWAP4 DUP2 ADD MLOAD PUSH1 0x1 SWAP5 DUP6 ADD SSTORE DUP8 DUP2 ADD MLOAD DUP8 MLOAD SWAP1 SWAP3 AND DUP4 MSTORE PUSH1 0x8 SWAP1 MSTORE PUSH1 0x40 SWAP1 SWAP2 KECCAK256 SWAP1 SWAP2 ADD SSTORE JUMPDEST PUSH1 0x6 DUP1 SLOAD DUP1 PUSH2 0x10A7 JUMPI PUSH2 0x10A7 PUSH2 0x3773 JUMP JUMPDEST PUSH1 0x0 DUP3 DUP2 MSTORE PUSH1 0x20 DUP1 DUP3 KECCAK256 PUSH1 0x2 PUSH1 0x0 NOT SWAP1 SWAP5 ADD SWAP4 DUP5 MUL ADD DUP1 SLOAD PUSH1 0x1 PUSH1 0x1 PUSH1 0xA0 SHL SUB NOT AND DUP2 SSTORE PUSH1 0x1 SWAP1 DUP2 ADD DUP4 SWAP1 SSTORE SWAP3 SWAP1 SWAP4 SSTORE PUSH1 0x1 PUSH1 0x1 PUSH1 0xA0 SHL SUB DUP12 AND DUP2 MSTORE PUSH1 0x8 SWAP1 SWAP3 MSTORE PUSH1 0x40 DUP3 KECCAK256 DUP1 SLOAD PUSH1 0xFF NOT AND DUP2 SSTORE DUP2 ADD SWAP2 SWAP1 SWAP2 SSTORE SWAP1 POP JUMPDEST PUSH1 0x1 DUP3 PUSH1 0x2 DUP2 GT ISZERO PUSH2 0x1111 JUMPI PUSH2 0x1111 PUSH2 0x3746 JUMP JUMPDEST EQ DUP1 PUSH2 0x112E JUMPI POP PUSH1 0x2 DUP3 PUSH1 0x2 DUP2 GT ISZERO PUSH2 0x112C JUMPI PUSH2 0x112C PUSH2 0x3746 JUMP JUMPDEST EQ JUMPDEST ISZERO PUSH2 0x12B4 JUMPI PUSH1 0x1 PUSH1 0x1 PUSH1 0xA0 SHL SUB DUP9 AND PUSH1 0x0 SWAP1 DUP2 MSTORE PUSH1 0x9 PUSH1 0x20 SWAP1 DUP2 MSTORE PUSH1 0x40 SWAP2 DUP3 SWAP1 KECCAK256 DUP3 MLOAD DUP1 DUP5 ADD SWAP1 SWAP4 MSTORE DUP1 SLOAD PUSH1 0xFF AND ISZERO DUP1 ISZERO DUP5 MSTORE PUSH1 0x1 SWAP1 SWAP2 ADD SLOAD SWAP2 DUP4 ADD SWAP2 SWAP1 SWAP2 MSTORE SWAP1 SWAP5 POP PUSH2 0x12B4 JUMPI PUSH1 0x7 SLOAD PUSH2 0x1184 SWAP1 PUSH1 0x1 SWAP1 PUSH2 0x375C JUMP JUMPDEST DUP5 PUSH1 0x20 ADD MLOAD LT ISZERO PUSH2 0x124D JUMPI PUSH1 0x7 DUP1 SLOAD PUSH2 0x119F SWAP1 PUSH1 0x1 SWAP1 PUSH2 0x375C JUMP JUMPDEST DUP2 SLOAD DUP2 LT PUSH2 0x11AF JUMPI PUSH2 0x11AF PUSH2 0x3675 JUMP JUMPDEST PUSH1 0x0 SWAP2 DUP3 MSTORE PUSH1 0x20 SWAP2 DUP3 SWAP1 KECCAK256 PUSH1 0x40 DUP1 MLOAD DUP1 DUP3 ADD SWAP1 SWAP2 MSTORE PUSH1 0x2 SWAP1 SWAP3 MUL ADD DUP1 SLOAD PUSH1 0x1 PUSH1 0x1 PUSH1 0xA0 SHL SUB AND DUP3 MSTORE PUSH1 0x1 ADD SLOAD DUP2 DUP4 ADD MSTORE SWAP1 DUP6 ADD MLOAD PUSH1 0x7 DUP1 SLOAD SWAP3 SWAP6 POP DUP6 SWAP3 SWAP1 SWAP2 SWAP1 DUP2 LT PUSH2 0x11FD JUMPI PUSH2 0x11FD PUSH2 0x3675 JUMP JUMPDEST PUSH1 0x0 SWAP2 DUP3 MSTORE PUSH1 0x20 DUP1 DUP4 KECCAK256 DUP5 MLOAD PUSH1 0x2 SWAP4 SWAP1 SWAP4 MUL ADD DUP1 SLOAD PUSH1 0x1 PUSH1 0x1 PUSH1 0xA0 SHL SUB NOT AND PUSH1 0x1 PUSH1 0x1 PUSH1 0xA0 SHL SUB SWAP4 DUP5 AND OR DUP2 SSTORE SWAP4 DUP2 ADD MLOAD PUSH1 0x1 SWAP5 DUP6 ADD SSTORE DUP8 DUP2 ADD MLOAD DUP8 MLOAD SWAP1 SWAP3 AND DUP4 MSTORE PUSH1 0x9 SWAP1 MSTORE PUSH1 0x40 SWAP1 SWAP2 KECCAK256 SWAP1 SWAP2 ADD SSTORE JUMPDEST PUSH1 0x6 DUP1 SLOAD DUP1 PUSH2 0x125E JUMPI PUSH2 0x125E PUSH2 0x3773 JUMP JUMPDEST PUSH1 0x0 DUP3 DUP2 MSTORE PUSH1 0x20 DUP1 DUP3 KECCAK256 PUSH1 0x2 PUSH1 0x0 NOT SWAP1 SWAP5 ADD SWAP4 DUP5 MUL ADD DUP1 SLOAD PUSH1 0x1 PUSH1 0x1 PUSH1 0xA0 SHL SUB NOT AND DUP2 SSTORE PUSH1 0x1 SWAP1 DUP2 ADD DUP4 SWAP1 SSTORE SWAP3 SWAP1 SWAP4 SSTORE PUSH1 0x1 PUSH1 0x1 PUSH1 0xA0 SHL SUB DUP12 AND DUP2 MSTORE PUSH1 0x9 SWAP1 SWAP3 MSTORE PUSH1 0x40 DUP3 KECCAK256 DUP1 SLOAD PUSH1 0xFF NOT AND DUP2 SSTORE DUP2 ADD SWAP2 SWAP1 SWAP2 SSTORE SWAP1 POP JUMPDEST DUP1 ISZERO PUSH2 0x1318 JUMPI PUSH1 0x20 DUP5 ADD MLOAD PUSH1 0x1 PUSH1 0x1 PUSH1 0xA0 SHL SUB DUP10 AND SWAP1 PUSH32 0xCDF1A50EA6B7DE555BD409F8A4A53EA43C6DC6B4CAA961889DA9E005F21BBAA9 SWAP1 PUSH1 0x0 DUP6 PUSH1 0x2 DUP2 GT ISZERO PUSH2 0x1300 JUMPI PUSH2 0x1300 PUSH2 0x3746 JUMP JUMPDEST PUSH1 0x40 DUP1 MLOAD SWAP4 DUP5 MSTORE SWAP2 EQ PUSH1 0x20 DUP4 ADD MSTORE ADD PUSH1 0x40 MLOAD DUP1 SWAP2 SUB SWAP1 LOG2 JUMPDEST SWAP8 SWAP7 POP POP POP POP POP POP POP JUMP JUMPDEST CALLER PUSH1 0x0 SWAP1 DUP2 MSTORE PUSH1 0x20 DUP2 SWAP1 MSTORE PUSH1 0x40 DUP2 KECCAK256 PUSH1 0x1 ADD SLOAD PUSH1 0xE0 SHL PUSH1 0x1 PUSH1 0xE0 SHL SWAP1 DUP2 AND EQ PUSH2 0x134B JUMPI PUSH1 0x0 DUP1 REVERT JUMPDEST PUSH32 0x65787465726E616C546F6B656E496E637265617365417070726F76616C000000 PUSH1 0x0 JUMPDEST PUSH1 0x6 SLOAD DUP2 LT ISZERO PUSH2 0x1463 JUMPI PUSH1 0x6 DUP2 DUP2 SLOAD DUP2 LT PUSH2 0x138C JUMPI PUSH2 0x138C PUSH2 0x3675 JUMP JUMPDEST PUSH1 0x0 SWAP2 DUP3 MSTORE PUSH1 0x20 SWAP1 SWAP2 KECCAK256 PUSH1 0x2 SWAP1 SWAP2 MUL ADD SLOAD PUSH1 0x6 DUP1 SLOAD PUSH1 0x1 PUSH1 0x1 PUSH1 0xA0 SHL SUB SWAP1 SWAP3 AND SWAP2 PUSH4 0xC1786AB2 SWAP2 CALLER SWAP2 DUP6 SWAP1 DUP2 LT PUSH2 0x13C5 JUMPI PUSH2 0x13C5 PUSH2 0x3675 JUMP JUMPDEST SWAP1 PUSH1 0x0 MSTORE PUSH1 0x20 PUSH1 0x0 KECCAK256 SWAP1 PUSH1 0x2 MUL ADD PUSH1 0x1 ADD SLOAD DUP6 PUSH1 0x40 MLOAD DUP5 PUSH4 0xFFFFFFFF AND PUSH1 0xE0 SHL DUP2 MSTORE PUSH1 0x4 ADD PUSH2 0x13F6 SWAP4 SWAP3 SWAP2 SWAP1 PUSH2 0x368B JUMP JUMPDEST PUSH1 0x20 PUSH1 0x40 MLOAD DUP1 DUP4 SUB DUP2 PUSH1 0x0 DUP8 DUP1 EXTCODESIZE ISZERO DUP1 ISZERO PUSH2 0x1410 JUMPI PUSH1 0x0 DUP1 REVERT JUMPDEST POP GAS CALL ISZERO DUP1 ISZERO PUSH2 0x1424 JUMPI RETURNDATASIZE PUSH1 0x0 DUP1 RETURNDATACOPY RETURNDATASIZE PUSH1 0x0 REVERT JUMPDEST POP POP POP POP PUSH1 0x40 MLOAD RETURNDATASIZE PUSH1 0x1F NOT PUSH1 0x1F DUP3 ADD AND DUP3 ADD DUP1 PUSH1 0x40 MSTORE POP DUP2 ADD SWAP1 PUSH2 0x1448 SWAP2 SWAP1 PUSH2 0x36BC JUMP JUMPDEST PUSH2 0x1451 JUMPI PUSH1 0x0 DUP1 REVERT JUMPDEST DUP1 PUSH2 0x145B DUP2 PUSH2 0x36ED JUMP JUMPDEST SWAP2 POP POP PUSH2 0x136F JUMP JUMPDEST PUSH1 0x1 SLOAD DUP5 SWAP1 PUSH1 0x1 PUSH1 0x1 PUSH1 0xA0 SHL SUB DUP1 DUP4 AND SWAP2 AND EQ PUSH2 0x147F JUMPI PUSH1 0x0 DUP1 REVERT JUMPDEST PUSH1 0x1 SLOAD PUSH1 0x40 MLOAD PUSH4 0xAB751F71 PUSH1 0xE0 SHL DUP2 MSTORE PUSH1 0x1 PUSH1 0x1 PUSH1 0xA0 SHL SUB DUP11 DUP2 AND PUSH1 0x4 DUP4 ADD MSTORE DUP10 DUP2 AND PUSH1 0x24 DUP4 ADD MSTORE PUSH1 0x44 DUP3 ADD DUP10 SWAP1 MSTORE SWAP1 SWAP2 AND SWAP1 PUSH4 0xAB751F71 SWAP1 PUSH1 0x64 ADD PUSH1 0x20 PUSH1 0x40 MLOAD DUP1 DUP4 SUB DUP2 PUSH1 0x0 DUP8 DUP1 EXTCODESIZE ISZERO DUP1 ISZERO PUSH2 0x14D5 JUMPI PUSH1 0x0 DUP1 REVERT JUMPDEST POP GAS CALL ISZERO DUP1 ISZERO PUSH2 0x14E9 JUMPI RETURNDATASIZE PUSH1 0x0 DUP1 RETURNDATACOPY RETURNDATASIZE PUSH1 0x0 REVERT JUMPDEST POP POP POP POP PUSH1 0x40 MLOAD RETURNDATASIZE PUSH1 0x1F NOT PUSH1 0x1F DUP3 ADD AND DUP3 ADD DUP1 PUSH1 0x40 MSTORE POP DUP2 ADD SWAP1 PUSH2 0x150D SWAP2 SWAP1 PUSH2 0x36BC JUMP JUMPDEST SWAP4 POP POP PUSH1 0x0 SWAP1 POP JUMPDEST PUSH1 0x7 SLOAD DUP2 LT ISZERO PUSH2 0x1609 JUMPI PUSH1 0x7 DUP2 DUP2 SLOAD DUP2 LT PUSH2 0x1532 JUMPI PUSH2 0x1532 PUSH2 0x3675 JUMP JUMPDEST PUSH1 0x0 SWAP2 DUP3 MSTORE PUSH1 0x20 SWAP1 SWAP2 KECCAK256 PUSH1 0x2 SWAP1 SWAP2 MUL ADD SLOAD PUSH1 0x7 DUP1 SLOAD PUSH1 0x1 PUSH1 0x1 PUSH1 0xA0 SHL SUB SWAP1 SWAP3 AND SWAP2 PUSH4 0x8043154D SWAP2 CALLER SWAP2 DUP6 SWAP1 DUP2 LT PUSH2 0x156B JUMPI PUSH2 0x156B PUSH2 0x3675 JUMP JUMPDEST SWAP1 PUSH1 0x0 MSTORE PUSH1 0x20 PUSH1 0x0 KECCAK256 SWAP1 PUSH1 0x2 MUL ADD PUSH1 0x1 ADD SLOAD DUP6 PUSH1 0x40 MLOAD DUP5 PUSH4 0xFFFFFFFF AND PUSH1 0xE0 SHL DUP2 MSTORE PUSH1 0x4 ADD PUSH2 0x159C SWAP4 SWAP3 SWAP2 SWAP1 PUSH2 0x368B JUMP JUMPDEST PUSH1 0x20 PUSH1 0x40 MLOAD DUP1 DUP4 SUB DUP2 PUSH1 0x0 DUP8 DUP1 EXTCODESIZE ISZERO DUP1 ISZERO PUSH2 0x15B6 JUMPI PUSH1 0x0 DUP1 REVERT JUMPDEST POP GAS CALL ISZERO DUP1 ISZERO PUSH2 0x15CA JUMPI RETURNDATASIZE PUSH1 0x0 DUP1 RETURNDATACOPY RETURNDATASIZE PUSH1 0x0 REVERT JUMPDEST POP POP POP POP PUSH1 0x40 MLOAD RETURNDATASIZE PUSH1 0x1F NOT PUSH1 0x1F DUP3 ADD AND DUP3 ADD DUP1 PUSH1 0x40 MSTORE POP DUP2 ADD SWAP1 PUSH2 0x15EE SWAP2 SWAP1 PUSH2 0x36BC JUMP JUMPDEST PUSH2 0x15F7 JUMPI PUSH1 0x0 DUP1 REVERT JUMPDEST DUP1 PUSH2 0x1601 DUP2 PUSH2 0x36ED JUMP JUMPDEST SWAP2 POP POP PUSH2 0x1515 JUMP JUMPDEST POP POP SWAP5 SWAP4 POP POP POP POP JUMP JUMPDEST CALLER PUSH1 0x0 SWAP1 DUP2 MSTORE PUSH1 0x20 DUP2 SWAP1 MSTORE PUSH1 0x40 DUP2 KECCAK256 PUSH1 0x1 ADD SLOAD PUSH1 0xE0 SHL PUSH1 0x1 PUSH1 0xE0 SHL SWAP1 DUP2 AND EQ PUSH2 0x163B JUMPI PUSH1 0x0 DUP1 REVERT JUMPDEST PUSH9 0x39B2B73222BA3432B9 PUSH1 0xB9 SHL PUSH1 0x0 JUMPDEST PUSH1 0x6 SLOAD DUP2 LT ISZERO PUSH2 0x173F JUMPI PUSH1 0x6 DUP2 DUP2 SLOAD DUP2 LT PUSH2 0x1668 JUMPI PUSH2 0x1668 PUSH2 0x3675 JUMP JUMPDEST PUSH1 0x0 SWAP2 DUP3 MSTORE PUSH1 0x20 SWAP1 SWAP2 KECCAK256 PUSH1 0x2 SWAP1 SWAP2 MUL ADD SLOAD PUSH1 0x6 DUP1 SLOAD PUSH1 0x1 PUSH1 0x1 PUSH1 0xA0 SHL SUB SWAP1 SWAP3 AND SWAP2 PUSH4 0xC1786AB2 SWAP2 CALLER SWAP2 DUP6 SWAP1 DUP2 LT PUSH2 0x16A1 JUMPI PUSH2 0x16A1 PUSH2 0x3675 JUMP JUMPDEST SWAP1 PUSH1 0x0 MSTORE PUSH1 0x20 PUSH1 0x0 KECCAK256 SWAP1 PUSH1 0x2 MUL ADD PUSH1 0x1 ADD SLOAD DUP6 PUSH1 0x40 MLOAD DUP5 PUSH4 0xFFFFFFFF AND PUSH1 0xE0 SHL DUP2 MSTORE PUSH1 0x4 ADD PUSH2 0x16D2 SWAP4 SWAP3 SWAP2 SWAP1 PUSH2 0x368B JUMP JUMPDEST PUSH1 0x20 PUSH1 0x40 MLOAD DUP1 DUP4 SUB DUP2 PUSH1 0x0 DUP8 DUP1 EXTCODESIZE ISZERO DUP1 ISZERO PUSH2 0x16EC JUMPI PUSH1 0x0 DUP1 REVERT JUMPDEST POP GAS CALL ISZERO DUP1 ISZERO PUSH2 0x1700 JUMPI RETURNDATASIZE PUSH1 0x0 DUP1 RETURNDATACOPY RETURNDATASIZE PUSH1 0x0 REVERT JUMPDEST POP POP POP POP PUSH1 0x40 MLOAD RETURNDATASIZE PUSH1 0x1F NOT PUSH1 0x1F DUP3 ADD AND DUP3 ADD DUP1 PUSH1 0x40 MSTORE POP DUP2 ADD SWAP1 PUSH2 0x1724 SWAP2 SWAP1 PUSH2 0x36BC JUMP JUMPDEST PUSH2 0x172D JUMPI PUSH1 0x0 DUP1 REVERT JUMPDEST DUP1 PUSH2 0x1737 DUP2 PUSH2 0x36ED JUMP JUMPDEST SWAP2 POP POP PUSH2 0x164B JUMP JUMPDEST PUSH1 0x1 SLOAD DUP5 SWAP1 PUSH1 0x1 PUSH1 0x1 PUSH1 0xA0 SHL SUB DUP1 DUP4 AND SWAP2 AND EQ PUSH2 0x175B JUMPI PUSH1 0x0 DUP1 REVERT JUMPDEST PUSH1 0x1 SLOAD PUSH1 0x40 MLOAD PUSH4 0x658B6A51 PUSH1 0xE1 SHL DUP2 MSTORE PUSH1 0x4 DUP2 ADD DUP10 SWAP1 MSTORE PUSH1 0x1 PUSH1 0x1 PUSH1 0xA0 SHL SUB DUP9 DUP2 AND PUSH1 0x24 DUP4 ADD MSTORE SWAP1 SWAP2 AND SWAP1 PUSH4 0xCB16D4A2 SWAP1 PUSH1 0x44 ADD PUSH1 0x20 PUSH1 0x40 MLOAD DUP1 DUP4 SUB DUP2 PUSH1 0x0 DUP8 DUP1 EXTCODESIZE ISZERO DUP1 ISZERO PUSH2 0x17A9 JUMPI PUSH1 0x0 DUP1 REVERT JUMPDEST POP GAS CALL ISZERO DUP1 ISZERO PUSH2 0x17BD JUMPI RETURNDATASIZE PUSH1 0x0 DUP1 RETURNDATACOPY RETURNDATASIZE PUSH1 0x0 REVERT JUMPDEST POP POP POP POP PUSH1 0x40 MLOAD RETURNDATASIZE PUSH1 0x1F NOT PUSH1 0x1F DUP3 ADD AND DUP3 ADD DUP1 PUSH1 0x40 MSTORE POP DUP2 ADD SWAP1 PUSH2 0x17E1 SWAP2 SWAP1 PUSH2 0x36BC JUMP JUMPDEST SWAP4 POP POP PUSH1 0x0 SWAP1 POP JUMPDEST PUSH1 0x7 SLOAD DUP2 LT ISZERO PUSH2 0x18DD JUMPI PUSH1 0x7 DUP2 DUP2 SLOAD DUP2 LT PUSH2 0x1806 JUMPI PUSH2 0x1806 PUSH2 0x3675 JUMP JUMPDEST PUSH1 0x0 SWAP2 DUP3 MSTORE PUSH1 0x20 SWAP1 SWAP2 KECCAK256 PUSH1 0x2 SWAP1 SWAP2 MUL ADD SLOAD PUSH1 0x7 DUP1 SLOAD PUSH1 0x1 PUSH1 0x1 PUSH1 0xA0 SHL SUB SWAP1 SWAP3 AND SWAP2 PUSH4 0x8043154D SWAP2 CALLER SWAP2 DUP6 SWAP1 DUP2 LT PUSH2 0x183F JUMPI PUSH2 0x183F PUSH2 0x3675 JUMP JUMPDEST SWAP1 PUSH1 0x0 MSTORE PUSH1 0x20 PUSH1 0x0 KECCAK256 SWAP1 PUSH1 0x2 MUL ADD PUSH1 0x1 ADD SLOAD DUP6 PUSH1 0x40 MLOAD DUP5 PUSH4 0xFFFFFFFF AND PUSH1 0xE0 SHL DUP2 MSTORE PUSH1 0x4 ADD PUSH2 0x1870 SWAP4 SWAP3 SWAP2 SWAP1 PUSH2 0x368B JUMP JUMPDEST PUSH1 0x20 PUSH1 0x40 MLOAD DUP1 DUP4 SUB DUP2 PUSH1 0x0 DUP8 DUP1 EXTCODESIZE ISZERO DUP1 ISZERO PUSH2 0x188A JUMPI PUSH1 0x0 DUP1 REVERT JUMPDEST POP GAS CALL ISZERO DUP1 ISZERO PUSH2 0x189E JUMPI RETURNDATASIZE PUSH1 0x0 DUP1 RETURNDATACOPY RETURNDATASIZE PUSH1 0x0 REVERT JUMPDEST POP POP POP POP PUSH1 0x40 MLOAD RETURNDATASIZE PUSH1 0x1F NOT PUSH1 0x1F DUP3 ADD AND DUP3 ADD DUP1 PUSH1 0x40 MSTORE POP DUP2 ADD SWAP1 PUSH2 0x18C2 SWAP2 SWAP1 PUSH2 0x36BC JUMP JUMPDEST PUSH2 0x18CB JUMPI PUSH1 0x0 DUP1 REVERT JUMPDEST DUP1 PUSH2 0x18D5 DUP2 PUSH2 0x36ED JUMP JUMPDEST SWAP2 POP POP PUSH2 0x17E9 JUMP JUMPDEST POP POP SWAP4 SWAP3 POP POP POP JUMP JUMPDEST PUSH1 0x1 SLOAD PUSH1 0x0 SWAP1 DUP3 SWAP1 PUSH1 0x1 PUSH1 0x1 PUSH1 0xA0 SHL SUB DUP1 DUP4 AND SWAP2 AND EQ PUSH2 0x1905 JUMPI PUSH1 0x0 DUP1 REVERT JUMPDEST PUSH2 0x190E CALLER PUSH2 0x32C4 JUMP JUMPDEST PUSH2 0x191B JUMPI PUSH1 0x0 SWAP2 POP PUSH2 0x1967 JUMP JUMPDEST CALLER PUSH1 0x0 DUP2 DUP2 MSTORE PUSH1 0x20 DUP2 SWAP1 MSTORE PUSH1 0x40 DUP1 DUP3 KECCAK256 DUP3 DUP2 SSTORE PUSH1 0x1 ADD DUP1 SLOAD PUSH4 0xFFFFFFFF NOT AND SWAP1 SSTORE MLOAD DUP3 SWAP2 PUSH32 0x10BB2CF04CB8B902A8E736D494F1A51003BE6D4B16EF6FB95CE62C38445023BF SWAP2 LOG3 PUSH1 0x1 SWAP2 POP JUMPDEST POP SWAP2 SWAP1 POP JUMP JUMPDEST CALLER PUSH1 0x0 SWAP1 DUP2 MSTORE PUSH1 0x20 DUP2 SWAP1 MSTORE PUSH1 0x40 DUP2 KECCAK256 PUSH1 0x1 ADD SLOAD PUSH1 0xE0 SHL PUSH1 0x1 PUSH1 0xE0 SHL SWAP1 DUP2 AND EQ PUSH2 0x1995 JUMPI PUSH1 0x0 DUP1 REVERT JUMPDEST PUSH14 0x313AB9372932B83ABA30BA34B7B7 PUSH1 0x91 SHL PUSH1 0x0 JUMPDEST PUSH1 0x6 SLOAD DUP2 LT ISZERO PUSH2 0x1A9E JUMPI PUSH1 0x6 DUP2 DUP2 SLOAD DUP2 LT PUSH2 0x19C7 JUMPI PUSH2 0x19C7 PUSH2 0x3675 JUMP JUMPDEST PUSH1 0x0 SWAP2 DUP3 MSTORE PUSH1 0x20 SWAP1 SWAP2 KECCAK256 PUSH1 0x2 SWAP1 SWAP2 MUL ADD SLOAD PUSH1 0x6 DUP1 SLOAD PUSH1 0x1 PUSH1 0x1 PUSH1 0xA0 SHL SUB SWAP1 SWAP3 AND SWAP2 PUSH4 0xC1786AB2 SWAP2 CALLER SWAP2 DUP6 SWAP1 DUP2 LT PUSH2 0x1A00 JUMPI PUSH2 0x1A00 PUSH2 0x3675 JUMP JUMPDEST SWAP1 PUSH1 0x0 MSTORE PUSH1 0x20 PUSH1 0x0 KECCAK256 SWAP1 PUSH1 0x2 MUL ADD PUSH1 0x1 ADD SLOAD DUP6 PUSH1 0x40 MLOAD DUP5 PUSH4 0xFFFFFFFF AND PUSH1 0xE0 SHL DUP2 MSTORE PUSH1 0x4 ADD PUSH2 0x1A31 SWAP4 SWAP3 SWAP2 SWAP1 PUSH2 0x368B JUMP JUMPDEST PUSH1 0x20 PUSH1 0x40 MLOAD DUP1 DUP4 SUB DUP2 PUSH1 0x0 DUP8 DUP1 EXTCODESIZE ISZERO DUP1 ISZERO PUSH2 0x1A4B JUMPI PUSH1 0x0 DUP1 REVERT JUMPDEST POP GAS CALL ISZERO DUP1 ISZERO PUSH2 0x1A5F JUMPI RETURNDATASIZE PUSH1 0x0 DUP1 RETURNDATACOPY RETURNDATASIZE PUSH1 0x0 REVERT JUMPDEST POP POP POP POP PUSH1 0x40 MLOAD RETURNDATASIZE PUSH1 0x1F NOT PUSH1 0x1F DUP3 ADD AND DUP3 ADD DUP1 PUSH1 0x40 MSTORE POP DUP2 ADD SWAP1 PUSH2 0x1A83 SWAP2 SWAP1 PUSH2 0x36BC JUMP JUMPDEST PUSH2 0x1A8C JUMPI PUSH1 0x0 DUP1 REVERT JUMPDEST DUP1 PUSH2 0x1A96 DUP2 PUSH2 0x36ED JUMP JUMPDEST SWAP2 POP POP PUSH2 0x19AA JUMP JUMPDEST PUSH1 0x1 SLOAD DUP5 SWAP1 PUSH1 0x1 PUSH1 0x1 PUSH1 0xA0 SHL SUB DUP1 DUP4 AND SWAP2 AND EQ PUSH2 0x1ABA JUMPI PUSH1 0x0 DUP1 REVERT JUMPDEST PUSH1 0x40 MLOAD DUP8 DUP2 MSTORE PUSH1 0x1 PUSH1 0x1 PUSH1 0xA0 SHL SUB DUP8 AND SWAP1 CALLER SWAP1 PUSH32 0x186D8887E1B22F9D9B16849C36BAA748950D09D9C9B67A4A6EA140EAAD00C21C SWAP1 PUSH1 0x20 ADD PUSH1 0x40 MLOAD DUP1 SWAP2 SUB SWAP1 LOG3 PUSH1 0x3 SLOAD PUSH1 0x40 MLOAD PUSH4 0x2770A7EB PUSH1 0xE2 SHL DUP2 MSTORE PUSH1 0x1 PUSH1 0x1 PUSH1 0xA0 SHL SUB DUP9 DUP2 AND PUSH1 0x4 DUP4 ADD MSTORE PUSH1 0x24 DUP3 ADD DUP11 SWAP1 MSTORE SWAP1 SWAP2 AND SWAP1 PUSH4 0x9DC29FAC SWAP1 PUSH1 0x44 ADD PUSH1 0x20 PUSH1 0x40 MLOAD DUP1 DUP4 SUB DUP2 PUSH1 0x0 DUP8 DUP1 EXTCODESIZE ISZERO DUP1 ISZERO PUSH2 0x1B48 JUMPI PUSH1 0x0 DUP1 REVERT JUMPDEST POP GAS CALL ISZERO DUP1 ISZERO PUSH2 0x1B5C JUMPI RETURNDATASIZE PUSH1 0x0 DUP1 RETURNDATACOPY RETURNDATASIZE PUSH1 0x0 REVERT JUMPDEST POP POP POP POP PUSH1 0x40 MLOAD RETURNDATASIZE PUSH1 0x1F NOT PUSH1 0x1F DUP3 ADD AND DUP3 ADD DUP1 PUSH1 0x40 MSTORE POP DUP2 ADD SWAP1 PUSH2 0x1B80 SWAP2 SWAP1 PUSH2 0x36BC JUMP JUMPDEST SWAP4 POP POP PUSH1 0x0 SWAP1 POP JUMPDEST PUSH1 0x7 SLOAD DUP2 LT ISZERO PUSH2 0x18DD JUMPI PUSH1 0x7 DUP2 DUP2 SLOAD DUP2 LT PUSH2 0x1BA5 JUMPI PUSH2 0x1BA5 PUSH2 0x3675 JUMP JUMPDEST PUSH1 0x0 SWAP2 DUP3 MSTORE PUSH1 0x20 SWAP1 SWAP2 KECCAK256 PUSH1 0x2 SWAP1 SWAP2 MUL ADD SLOAD PUSH1 0x7 DUP1 SLOAD PUSH1 0x1 PUSH1 0x1 PUSH1 0xA0 SHL SUB SWAP1 SWAP3 AND SWAP2 PUSH4 0x8043154D SWAP2 CALLER SWAP2 DUP6 SWAP1 DUP2 LT PUSH2 0x1BDE JUMPI PUSH2 0x1BDE PUSH2 0x3675 JUMP JUMPDEST SWAP1 PUSH1 0x0 MSTORE PUSH1 0x20 PUSH1 0x0 KECCAK256 SWAP1 PUSH1 0x2 MUL ADD PUSH1 0x1 ADD SLOAD DUP6 PUSH1 0x40 MLOAD DUP5 PUSH4 0xFFFFFFFF AND PUSH1 0xE0 SHL DUP2 MSTORE PUSH1 0x4 ADD PUSH2 0x1C0F SWAP4 SWAP3 SWAP2 SWAP1 PUSH2 0x368B JUMP JUMPDEST PUSH1 0x20 PUSH1 0x40 MLOAD DUP1 DUP4 SUB DUP2 PUSH1 0x0 DUP8 DUP1 EXTCODESIZE ISZERO DUP1 ISZERO PUSH2 0x1C29 JUMPI PUSH1 0x0 DUP1 REVERT JUMPDEST POP GAS CALL ISZERO DUP1 ISZERO PUSH2 0x1C3D JUMPI RETURNDATASIZE PUSH1 0x0 DUP1 RETURNDATACOPY RETURNDATASIZE PUSH1 0x0 REVERT JUMPDEST POP POP POP POP PUSH1 0x40 MLOAD RETURNDATASIZE PUSH1 0x1F NOT PUSH1 0x1F DUP3 ADD AND DUP3 ADD DUP1 PUSH1 0x40 MSTORE POP DUP2 ADD SWAP1 PUSH2 0x1C61 SWAP2 SWAP1 PUSH2 0x36BC JUMP JUMPDEST PUSH2 0x1C6A JUMPI PUSH1 0x0 DUP1 REVERT JUMPDEST DUP1 PUSH2 0x1C74 DUP2 PUSH2 0x36ED JUMP JUMPDEST SWAP2 POP POP PUSH2 0x1B88 JUMP JUMPDEST PUSH1 0x1 SLOAD PUSH1 0x0 SWAP1 DUP2 SWAP1 DUP4 SWAP1 PUSH1 0x1 PUSH1 0x1 PUSH1 0xA0 SHL SUB DUP1 DUP4 AND SWAP2 AND EQ PUSH2 0x1C9D JUMPI PUSH1 0x0 DUP1 REVERT JUMPDEST PUSH1 0x6 SLOAD PUSH1 0x7 SLOAD SWAP1 SWAP4 POP SWAP2 POP POP SWAP2 POP SWAP2 JUMP JUMPDEST PUSH1 0x1 SLOAD PUSH1 0x0 SWAP1 DUP3 SWAP1 PUSH1 0x1 PUSH1 0x1 PUSH1 0xA0 SHL SUB DUP1 DUP4 AND SWAP2 AND EQ PUSH2 0x1CCD JUMPI PUSH1 0x0 DUP1 REVERT JUMPDEST POP POP PUSH1 0x3 SLOAD PUSH1 0x1 PUSH1 0x1 PUSH1 0xA0 SHL SUB AND SWAP2 SWAP1 POP JUMP JUMPDEST PUSH1 0x1 SLOAD PUSH1 0x0 SWAP1 DUP3 SWAP1 PUSH1 0x1 PUSH1 0x1 PUSH1 0xA0 SHL SUB DUP1 DUP4 AND SWAP2 AND EQ PUSH2 0x1CFF JUMPI PUSH1 0x0 DUP1 REVERT JUMPDEST POP POP POP PUSH1 0x1 PUSH1 0x1 PUSH1 0xA0 SHL SUB AND PUSH1 0x0 SWAP1 DUP2 MSTORE PUSH1 0x20 DUP2 SWAP1 MSTORE PUSH1 0x40 SWAP1 KECCAK256 PUSH1 0x1 ADD SLOAD PUSH1 0xE0 SHL SWAP1 JUMP JUMPDEST PUSH1 0x1 SLOAD PUSH1 0x0 SWAP1 DUP3 SWAP1 PUSH1 0x1 PUSH1 0x1 PUSH1 0xA0 SHL SUB DUP1 DUP4 AND SWAP2 AND EQ PUSH2 0x1D42 JUMPI PUSH1 0x0 DUP1 REVERT JUMPDEST PUSH2 0xAC3 DUP5 PUSH2 0x32C4 JUMP JUMPDEST CALLER PUSH1 0x0 SWAP1 DUP2 MSTORE PUSH1 0x20 DUP2 SWAP1 MSTORE PUSH1 0x40 DUP2 KECCAK256 PUSH1 0x1 ADD SLOAD PUSH1 0xE0 SHL PUSH1 0x1 PUSH1 0xE0 SHL SWAP1 DUP2 AND EQ PUSH2 0x1D73 JUMPI PUSH1 0x0 DUP1 REVERT JUMPDEST PUSH21 0x32BC3A32B93730B62A37B5B2B72A3930B739B332B9 PUSH1 0x59 SHL PUSH1 0x0 JUMPDEST PUSH1 0x6 SLOAD DUP2 LT ISZERO PUSH2 0x1E83 JUMPI PUSH1 0x6 DUP2 DUP2 SLOAD DUP2 LT PUSH2 0x1DAC JUMPI PUSH2 0x1DAC PUSH2 0x3675 JUMP JUMPDEST PUSH1 0x0 SWAP2 DUP3 MSTORE PUSH1 0x20 SWAP1 SWAP2 KECCAK256 PUSH1 0x2 SWAP1 SWAP2 MUL ADD SLOAD PUSH1 0x6 DUP1 SLOAD PUSH1 0x1 PUSH1 0x1 PUSH1 0xA0 SHL SUB SWAP1 SWAP3 AND SWAP2 PUSH4 0xC1786AB2 SWAP2 CALLER SWAP2 DUP6 SWAP1 DUP2 LT PUSH2 0x1DE5 JUMPI PUSH2 0x1DE5 PUSH2 0x3675 JUMP JUMPDEST SWAP1 PUSH1 0x0 MSTORE PUSH1 0x20 PUSH1 0x0 KECCAK256 SWAP1 PUSH1 0x2 MUL ADD PUSH1 0x1 ADD SLOAD DUP6 PUSH1 0x40 MLOAD DUP5 PUSH4 0xFFFFFFFF AND PUSH1 0xE0 SHL DUP2 MSTORE PUSH1 0x4 ADD PUSH2 0x1E16 SWAP4 SWAP3 SWAP2 SWAP1 PUSH2 0x368B JUMP JUMPDEST PUSH1 0x20 PUSH1 0x40 MLOAD DUP1 DUP4 SUB DUP2 PUSH1 0x0 DUP8 DUP1 EXTCODESIZE ISZERO DUP1 ISZERO PUSH2 0x1E30 JUMPI PUSH1 0x0 DUP1 REVERT JUMPDEST POP GAS CALL ISZERO DUP1 ISZERO PUSH2 0x1E44 JUMPI RETURNDATASIZE PUSH1 0x0 DUP1 RETURNDATACOPY RETURNDATASIZE PUSH1 0x0 REVERT JUMPDEST POP POP POP POP PUSH1 0x40 MLOAD RETURNDATASIZE PUSH1 0x1F NOT PUSH1 0x1F DUP3 ADD AND DUP3 ADD DUP1 PUSH1 0x40 MSTORE POP DUP2 ADD SWAP1 PUSH2 0x1E68 SWAP2 SWAP1 PUSH2 0x36BC JUMP JUMPDEST PUSH2 0x1E71 JUMPI PUSH1 0x0 DUP1 REVERT JUMPDEST DUP1 PUSH2 0x1E7B DUP2 PUSH2 0x36ED JUMP JUMPDEST SWAP2 POP POP PUSH2 0x1D8F JUMP JUMPDEST PUSH1 0x1 SLOAD DUP5 SWAP1 PUSH1 0x1 PUSH1 0x1 PUSH1 0xA0 SHL SUB DUP1 DUP4 AND SWAP2 AND EQ PUSH2 0x1E9F JUMPI PUSH1 0x0 DUP1 REVERT JUMPDEST PUSH1 0x1 SLOAD PUSH1 0x40 MLOAD PUSH4 0xDAB0EFFF PUSH1 0xE0 SHL DUP2 MSTORE PUSH1 0x1 PUSH1 0x1 PUSH1 0xA0 SHL SUB DUP11 DUP2 AND PUSH1 0x4 DUP4 ADD MSTORE DUP10 DUP2 AND PUSH1 0x24 DUP4 ADD MSTORE PUSH1 0x44 DUP3 ADD DUP10 SWAP1 MSTORE SWAP1 SWAP2 AND SWAP1 PUSH4 0xDAB0EFFF SWAP1 PUSH1 0x64 ADD PUSH1 0x20 PUSH1 0x40 MLOAD DUP1 DUP4 SUB DUP2 PUSH1 0x0 DUP8 DUP1 EXTCODESIZE ISZERO DUP1 ISZERO PUSH2 0x1EF5 JUMPI PUSH1 0x0 DUP1 REVERT JUMPDEST POP GAS CALL ISZERO DUP1 ISZERO PUSH2 0x1F09 JUMPI RETURNDATASIZE PUSH1 0x0 DUP1 RETURNDATACOPY RETURNDATASIZE PUSH1 0x0 REVERT JUMPDEST POP POP POP POP PUSH1 0x40 MLOAD RETURNDATASIZE PUSH1 0x1F NOT PUSH1 0x1F DUP3 ADD AND DUP3 ADD DUP1 PUSH1 0x40 MSTORE POP DUP2 ADD SWAP1 PUSH2 0x1F2D SWAP2 SWAP1 PUSH2 0x36BC JUMP JUMPDEST SWAP4 POP POP PUSH1 0x0 SWAP1 POP JUMPDEST PUSH1 0x7 SLOAD DUP2 LT ISZERO PUSH2 0x1609 JUMPI PUSH1 0x7 DUP2 DUP2 SLOAD DUP2 LT PUSH2 0x1F52 JUMPI PUSH2 0x1F52 PUSH2 0x3675 JUMP JUMPDEST PUSH1 0x0 SWAP2 DUP3 MSTORE PUSH1 0x20 SWAP1 SWAP2 KECCAK256 PUSH1 0x2 SWAP1 SWAP2 MUL ADD SLOAD PUSH1 0x7 DUP1 SLOAD PUSH1 0x1 PUSH1 0x1 PUSH1 0xA0 SHL SUB SWAP1 SWAP3 AND SWAP2 PUSH4 0x8043154D SWAP2 CALLER SWAP2 DUP6 SWAP1 DUP2 LT PUSH2 0x1F8B JUMPI PUSH2 0x1F8B PUSH2 0x3675 JUMP JUMPDEST SWAP1 PUSH1 0x0 MSTORE PUSH1 0x20 PUSH1 0x0 KECCAK256 SWAP1 PUSH1 0x2 MUL ADD PUSH1 0x1 ADD SLOAD DUP6 PUSH1 0x40 MLOAD DUP5 PUSH4 0xFFFFFFFF AND PUSH1 0xE0 SHL DUP2 MSTORE PUSH1 0x4 ADD PUSH2 0x1FBC SWAP4 SWAP3 SWAP2 SWAP1 PUSH2 0x368B JUMP JUMPDEST PUSH1 0x20 PUSH1 0x40 MLOAD DUP1 DUP4 SUB DUP2 PUSH1 0x0 DUP8 DUP1 EXTCODESIZE ISZERO DUP1 ISZERO PUSH2 0x1FD6 JUMPI PUSH1 0x0 DUP1 REVERT JUMPDEST POP GAS CALL ISZERO DUP1 ISZERO PUSH2 0x1FEA JUMPI RETURNDATASIZE PUSH1 0x0 DUP1 RETURNDATACOPY RETURNDATASIZE PUSH1 0x0 REVERT JUMPDEST POP POP POP POP PUSH1 0x40 MLOAD RETURNDATASIZE PUSH1 0x1F NOT PUSH1 0x1F DUP3 ADD AND DUP3 ADD DUP1 PUSH1 0x40 MSTORE POP DUP2 ADD SWAP1 PUSH2 0x200E SWAP2 SWAP1 PUSH2 0x36BC JUMP JUMPDEST PUSH2 0x2017 JUMPI PUSH1 0x0 DUP1 REVERT JUMPDEST DUP1 PUSH2 0x2021 DUP2 PUSH2 0x36ED JUMP JUMPDEST SWAP2 POP POP PUSH2 0x1F35 JUMP JUMPDEST CALLER PUSH1 0x0 SWAP1 DUP2 MSTORE PUSH1 0x20 DUP2 SWAP1 MSTORE PUSH1 0x40 DUP2 KECCAK256 PUSH1 0x1 ADD SLOAD PUSH1 0xE0 SHL PUSH1 0x1 PUSH1 0xE4 SHL SWAP1 DUP2 AND EQ PUSH2 0x2051 JUMPI PUSH1 0x0 DUP1 REVERT JUMPDEST PUSH1 0x1 SLOAD DUP3 SWAP1 PUSH1 0x1 PUSH1 0x1 PUSH1 0xA0 SHL SUB DUP1 DUP4 AND SWAP2 AND EQ PUSH2 0x206D JUMPI PUSH1 0x0 DUP1 REVERT JUMPDEST PUSH1 0x1 SLOAD PUSH1 0x40 MLOAD PUSH4 0x2242B11B PUSH1 0xE2 SHL DUP2 MSTORE PUSH1 0x1 PUSH1 0x1 PUSH1 0xA0 SHL SUB SWAP1 SWAP2 AND SWAP1 PUSH4 0x890AC46C SWAP1 PUSH2 0x209F SWAP1 DUP9 SWAP1 DUP9 SWAP1 PUSH1 0x4 ADD PUSH2 0x37B2 JUMP JUMPDEST PUSH1 0x20 PUSH1 0x40 MLOAD DUP1 DUP4 SUB DUP2 PUSH1 0x0 DUP8 DUP1 EXTCODESIZE ISZERO DUP1 ISZERO PUSH2 0x20B9 JUMPI PUSH1 0x0 DUP1 REVERT JUMPDEST POP GAS CALL ISZERO DUP1 ISZERO PUSH2 0x20CD JUMPI RETURNDATASIZE PUSH1 0x0 DUP1 RETURNDATACOPY RETURNDATASIZE PUSH1 0x0 REVERT JUMPDEST POP POP POP POP PUSH1 0x40 MLOAD RETURNDATASIZE PUSH1 0x1F NOT PUSH1 0x1F DUP3 ADD AND DUP3 ADD DUP1 PUSH1 0x40 MSTORE POP DUP2 ADD SWAP1 PUSH2 0x20F1 SWAP2 SWAP1 PUSH2 0x36BC JUMP JUMPDEST SWAP6 SWAP5 POP POP POP POP POP JUMP JUMPDEST CALLER PUSH1 0x0 SWAP1 DUP2 MSTORE PUSH1 0x20 DUP2 SWAP1 MSTORE PUSH1 0x40 DUP2 KECCAK256 PUSH1 0x1 ADD SLOAD PUSH1 0x60 SWAP1 PUSH1 0xE0 SHL PUSH1 0x1 PUSH1 0xE4 SHL SWAP1 DUP2 AND EQ PUSH2 0x2125 JUMPI PUSH1 0x0 DUP1 REVERT JUMPDEST PUSH11 0x19D95B995C9A58D0D85B1B PUSH1 0xAA SHL PUSH1 0x0 JUMPDEST PUSH1 0x6 SLOAD DUP2 LT ISZERO PUSH2 0x222B JUMPI PUSH1 0x6 DUP2 DUP2 SLOAD DUP2 LT PUSH2 0x2154 JUMPI PUSH2 0x2154 PUSH2 0x3675 JUMP JUMPDEST PUSH1 0x0 SWAP2 DUP3 MSTORE PUSH1 0x20 SWAP1 SWAP2 KECCAK256 PUSH1 0x2 SWAP1 SWAP2 MUL ADD SLOAD PUSH1 0x6 DUP1 SLOAD PUSH1 0x1 PUSH1 0x1 PUSH1 0xA0 SHL SUB SWAP1 SWAP3 AND SWAP2 PUSH4 0xC1786AB2 SWAP2 CALLER SWAP2 DUP6 SWAP1 DUP2 LT PUSH2 0x218D JUMPI PUSH2 0x218D PUSH2 0x3675 JUMP JUMPDEST SWAP1 PUSH1 0x0 MSTORE PUSH1 0x20 PUSH1 0x0 KECCAK256 SWAP1 PUSH1 0x2 MUL ADD PUSH1 0x1 ADD SLOAD DUP6 PUSH1 0x40 MLOAD DUP5 PUSH4 0xFFFFFFFF AND PUSH1 0xE0 SHL DUP2 MSTORE PUSH1 0x4 ADD PUSH2 0x21BE SWAP4 SWAP3 SWAP2 SWAP1 PUSH2 0x368B JUMP JUMPDEST PUSH1 0x20 PUSH1 0x40 MLOAD DUP1 DUP4 SUB DUP2 PUSH1 0x0 DUP8 DUP1 EXTCODESIZE ISZERO DUP1 ISZERO PUSH2 0x21D8 JUMPI PUSH1 0x0 DUP1 REVERT JUMPDEST POP GAS CALL ISZERO DUP1 ISZERO PUSH2 0x21EC JUMPI RETURNDATASIZE PUSH1 0x0 DUP1 RETURNDATACOPY RETURNDATASIZE PUSH1 0x0 REVERT JUMPDEST POP POP POP POP PUSH1 0x40 MLOAD RETURNDATASIZE PUSH1 0x1F NOT PUSH1 0x1F DUP3 ADD AND DUP3 ADD DUP1 PUSH1 0x40 MSTORE POP DUP2 ADD SWAP1 PUSH2 0x2210 SWAP2 SWAP1 PUSH2 0x36BC JUMP JUMPDEST PUSH2 0x2219 JUMPI PUSH1 0x0 DUP1 REVERT JUMPDEST DUP1 PUSH2 0x2223 DUP2 PUSH2 0x36ED JUMP JUMPDEST SWAP2 POP POP PUSH2 0x2137 JUMP JUMPDEST PUSH1 0x1 SLOAD DUP7 SWAP1 PUSH1 0x1 PUSH1 0x1 PUSH1 0xA0 SHL SUB DUP1 DUP4 AND SWAP2 AND EQ PUSH2 0x2247 JUMPI PUSH1 0x0 DUP1 REVERT JUMPDEST PUSH1 0x1 SLOAD PUSH1 0x40 MLOAD PUSH4 0x57E2C8B PUSH1 0xE3 SHL DUP2 MSTORE PUSH1 0x1 PUSH1 0x1 PUSH1 0xA0 SHL SUB SWAP1 SWAP2 AND SWAP1 PUSH4 0x2BF16458 SWAP1 PUSH2 0x227D SWAP1 DUP14 SWAP1 DUP14 SWAP1 DUP14 SWAP1 DUP13 SWAP1 PUSH1 0x4 ADD PUSH2 0x37C6 JUMP JUMPDEST PUSH1 0x0 PUSH1 0x40 MLOAD DUP1 DUP4 SUB DUP2 PUSH1 0x0 DUP8 DUP1 EXTCODESIZE ISZERO DUP1 ISZERO PUSH2 0x2297 JUMPI PUSH1 0x0 DUP1 REVERT JUMPDEST POP GAS CALL ISZERO DUP1 ISZERO PUSH2 0x22AB JUMPI RETURNDATASIZE PUSH1 0x0 DUP1 RETURNDATACOPY RETURNDATASIZE PUSH1 0x0 REVERT JUMPDEST POP POP POP POP PUSH1 0x40 MLOAD RETURNDATASIZE PUSH1 0x0 DUP3 RETURNDATACOPY PUSH1 0x1F RETURNDATASIZE SWAP1 DUP2 ADD PUSH1 0x1F NOT AND DUP3 ADD PUSH1 0x40 MSTORE PUSH2 0x22D3 SWAP2 SWAP1 DUP2 ADD SWAP1 PUSH2 0x3812 JUMP JUMPDEST SWAP5 POP SWAP5 POP POP PUSH1 0x0 SWAP1 POP JUMPDEST PUSH1 0x7 SLOAD DUP2 LT ISZERO PUSH2 0x23D1 JUMPI PUSH1 0x7 DUP2 DUP2 SLOAD DUP2 LT PUSH2 0x22FA JUMPI PUSH2 0x22FA PUSH2 0x3675 JUMP JUMPDEST PUSH1 0x0 SWAP2 DUP3 MSTORE PUSH1 0x20 SWAP1 SWAP2 KECCAK256 PUSH1 0x2 SWAP1 SWAP2 MUL ADD SLOAD PUSH1 0x7 DUP1 SLOAD PUSH1 0x1 PUSH1 0x1 PUSH1 0xA0 SHL SUB SWAP1 SWAP3 AND SWAP2 PUSH4 0x8043154D SWAP2 CALLER SWAP2 DUP6 SWAP1 DUP2 LT PUSH2 0x2333 JUMPI PUSH2 0x2333 PUSH2 0x3675 JUMP JUMPDEST SWAP1 PUSH1 0x0 MSTORE PUSH1 0x20 PUSH1 0x0 KECCAK256 SWAP1 PUSH1 0x2 MUL ADD PUSH1 0x1 ADD SLOAD DUP6 PUSH1 0x40 MLOAD DUP5 PUSH4 0xFFFFFFFF AND PUSH1 0xE0 SHL DUP2 MSTORE PUSH1 0x4 ADD PUSH2 0x2364 SWAP4 SWAP3 SWAP2 SWAP1 PUSH2 0x368B JUMP JUMPDEST PUSH1 0x20 PUSH1 0x40 MLOAD DUP1 DUP4 SUB DUP2 PUSH1 0x0 DUP8 DUP1 EXTCODESIZE ISZERO DUP1 ISZERO PUSH2 0x237E JUMPI PUSH1 0x0 DUP1 REVERT JUMPDEST POP GAS CALL ISZERO DUP1 ISZERO PUSH2 0x2392 JUMPI RETURNDATASIZE PUSH1 0x0 DUP1 RETURNDATACOPY RETURNDATASIZE PUSH1 0x0 REVERT JUMPDEST POP POP POP POP PUSH1 0x40 MLOAD RETURNDATASIZE PUSH1 0x1F NOT PUSH1 0x1F DUP3 ADD AND DUP3 ADD DUP1 PUSH1 0x40 MSTORE POP DUP2 ADD SWAP1 PUSH2 0x23B6 SWAP2 SWAP1 PUSH2 0x36BC JUMP JUMPDEST PUSH2 0x23BF JUMPI PUSH1 0x0 DUP1 REVERT JUMPDEST DUP1 PUSH2 0x23C9 DUP2 PUSH2 0x36ED JUMP JUMPDEST SWAP2 POP POP PUSH2 0x22DD JUMP JUMPDEST POP POP SWAP6 POP SWAP6 SWAP4 POP POP POP POP JUMP JUMPDEST CALLER PUSH1 0x0 SWAP1 DUP2 MSTORE PUSH1 0x20 DUP2 SWAP1 MSTORE PUSH1 0x40 DUP2 KECCAK256 PUSH1 0x1 ADD SLOAD PUSH1 0xE0 SHL PUSH1 0x1 PUSH1 0xE3 SHL SWAP1 DUP2 AND EQ PUSH2 0x2405 JUMPI PUSH1 0x0 DUP1 REVERT JUMPDEST POP PUSH1 0x4 DUP1 SLOAD PUSH1 0x1 PUSH1 0x1 PUSH1 0xA0 SHL SUB NOT AND PUSH1 0x1 PUSH1 0x1 PUSH1 0xA0 SHL SUB DUP4 AND OR SWAP1 SSTORE PUSH1 0x1 JUMPDEST SWAP2 SWAP1 POP JUMP JUMPDEST PUSH1 0x1 PUSH1 0x1 PUSH1 0xA0 SHL SUB DUP3 AND PUSH1 0x0 SWAP1 DUP2 MSTORE PUSH1 0x8 PUSH1 0x20 SWAP1 DUP2 MSTORE PUSH1 0x40 DUP1 DUP4 KECCAK256 DUP2 MLOAD DUP1 DUP4 ADD SWAP1 SWAP3 MSTORE DUP1 SLOAD PUSH1 0xFF AND ISZERO DUP1 ISZERO DUP4 MSTORE PUSH1 0x1 SWAP1 SWAP2 ADD SLOAD SWAP3 DUP3 ADD SWAP3 SWAP1 SWAP3 MSTORE SWAP1 PUSH2 0x2499 JUMPI PUSH1 0x6 DUP2 PUSH1 0x20 ADD MLOAD DUP2 SLOAD DUP2 LT PUSH2 0x247F JUMPI PUSH2 0x247F PUSH2 0x3675 JUMP JUMPDEST SWAP1 PUSH1 0x0 MSTORE PUSH1 0x20 PUSH1 0x0 KECCAK256 SWAP1 PUSH1 0x2 MUL ADD PUSH1 0x1 ADD SLOAD SWAP2 POP POP PUSH2 0x24F0 JUMP JUMPDEST POP PUSH1 0x1 PUSH1 0x1 PUSH1 0xA0 SHL SUB DUP4 AND PUSH1 0x0 SWAP1 DUP2 MSTORE PUSH1 0x9 PUSH1 0x20 SWAP1 DUP2 MSTORE PUSH1 0x40 SWAP2 DUP3 SWAP1 KECCAK256 DUP3 MLOAD DUP1 DUP5 ADD SWAP1 SWAP4 MSTORE DUP1 SLOAD PUSH1 0xFF AND ISZERO DUP1 ISZERO DUP5 MSTORE PUSH1 0x1 SWAP1 SWAP2 ADD SLOAD SWAP2 DUP4 ADD SWAP2 SWAP1 SWAP2 MSTORE PUSH2 0xA8B JUMPI PUSH1 0x7 DUP2 PUSH1 0x20 ADD MLOAD DUP2 SLOAD DUP2 LT PUSH2 0x247F JUMPI PUSH2 0x247F PUSH2 0x3675 JUMP JUMPDEST SWAP3 SWAP2 POP POP JUMP JUMPDEST CALLER PUSH1 0x0 SWAP1 DUP2 MSTORE PUSH1 0x20 DUP2 SWAP1 MSTORE PUSH1 0x40 DUP2 KECCAK256 PUSH1 0x1 ADD SLOAD PUSH1 0xE0 SHL PUSH1 0x1 PUSH1 0xE2 SHL SWAP1 DUP2 AND EQ PUSH2 0x251E JUMPI PUSH1 0x0 DUP1 REVERT JUMPDEST PUSH1 0x1 SLOAD DUP3 SWAP1 PUSH1 0x1 PUSH1 0x1 PUSH1 0xA0 SHL SUB DUP1 DUP4 AND SWAP2 AND EQ PUSH2 0x253A JUMPI PUSH1 0x0 DUP1 REVERT JUMPDEST PUSH1 0x0 DUP6 PUSH1 0x1 PUSH1 0x1 PUSH1 0xA0 SHL SUB AND PUSH4 0xE2B0CAEF PUSH1 0x40 MLOAD DUP2 PUSH4 0xFFFFFFFF AND PUSH1 0xE0 SHL DUP2 MSTORE PUSH1 0x4 ADD PUSH1 0x20 PUSH1 0x40 MLOAD DUP1 DUP4 SUB DUP2 PUSH1 0x0 DUP8 DUP1 EXTCODESIZE ISZERO DUP1 ISZERO PUSH2 0x2577 JUMPI PUSH1 0x0 DUP1 REVERT JUMPDEST POP GAS CALL ISZERO DUP1 ISZERO PUSH2 0x258B JUMPI RETURNDATASIZE PUSH1 0x0 DUP1 RETURNDATACOPY RETURNDATASIZE PUSH1 0x0 REVERT JUMPDEST POP POP POP POP PUSH1 0x40 MLOAD RETURNDATASIZE PUSH1 0x1F NOT PUSH1 0x1F DUP3 ADD AND DUP3 ADD DUP1 PUSH1 0x40 MSTORE POP DUP2 ADD SWAP1 PUSH2 0x25AF SWAP2 SWAP1 PUSH2 0x3725 JUMP JUMPDEST SWAP1 POP PUSH1 0x0 DUP2 PUSH1 0x2 DUP2 GT ISZERO PUSH2 0x25C5 JUMPI PUSH2 0x25C5 PUSH2 0x3746 JUMP JUMPDEST EQ DUP1 PUSH2 0x25E2 JUMPI POP PUSH1 0x2 DUP2 PUSH1 0x2 DUP2 GT ISZERO PUSH2 0x25E0 JUMPI PUSH2 0x25E0 PUSH2 0x3746 JUMP JUMPDEST EQ JUMPDEST ISZERO PUSH2 0x2738 JUMPI PUSH1 0x1 PUSH1 0x1 PUSH1 0xA0 SHL SUB DUP7 AND PUSH1 0x0 SWAP1 DUP2 MSTORE PUSH1 0x8 PUSH1 0x20 MSTORE PUSH1 0x40 SWAP1 KECCAK256 SLOAD PUSH1 0xFF AND PUSH2 0x26F1 JUMPI PUSH1 0x40 DUP1 MLOAD DUP1 DUP3 ADD DUP3 MSTORE PUSH1 0x1 PUSH1 0x1 PUSH1 0xA0 SHL SUB DUP9 DUP2 AND DUP3 MSTORE PUSH1 0x20 DUP1 DUP4 ADD DUP10 DUP2 MSTORE PUSH1 0x6 DUP1 SLOAD PUSH1 0x1 DUP1 DUP3 ADD DUP4 SSTORE PUSH1 0x0 DUP4 SWAP1 MSTORE SWAP6 MLOAD PUSH32 0xF652222313E28459528D920B65115C16C04F3EFC82AAEDC97BE59F3F377C0D3F PUSH1 0x2 SWAP1 SWAP3 MUL SWAP2 DUP3 ADD DUP1 SLOAD PUSH1 0x1 PUSH1 0x1 PUSH1 0xA0 SHL SUB NOT AND SWAP2 SWAP1 SWAP7 AND OR SWAP1 SWAP5 SSTORE SWAP1 MLOAD PUSH32 0xF652222313E28459528D920B65115C16C04F3EFC82AAEDC97BE59F3F377C0D40 SWAP1 SWAP4 ADD SWAP3 SWAP1 SWAP3 SSTORE DUP4 MLOAD DUP1 DUP6 ADD SWAP1 SWAP5 MSTORE DUP3 DUP5 MSTORE SWAP1 SLOAD SWAP1 DUP4 ADD SWAP2 PUSH2 0x26B8 SWAP2 PUSH2 0x375C JUMP JUMPDEST SWAP1 MSTORE PUSH1 0x1 PUSH1 0x1 PUSH1 0xA0 SHL SUB DUP8 AND PUSH1 0x0 SWAP1 DUP2 MSTORE PUSH1 0x8 PUSH1 0x20 SWAP1 DUP2 MSTORE PUSH1 0x40 SWAP1 SWAP2 KECCAK256 DUP3 MLOAD DUP2 SLOAD PUSH1 0xFF NOT AND SWAP1 ISZERO ISZERO OR DUP2 SSTORE SWAP2 ADD MLOAD PUSH1 0x1 SWAP1 SWAP2 ADD SSTORE PUSH2 0x2738 JUMP JUMPDEST PUSH1 0x1 PUSH1 0x1 PUSH1 0xA0 SHL SUB DUP7 AND PUSH1 0x0 SWAP1 DUP2 MSTORE PUSH1 0x8 PUSH1 0x20 MSTORE PUSH1 0x40 SWAP1 KECCAK256 PUSH1 0x1 ADD SLOAD PUSH1 0x6 DUP1 SLOAD DUP8 SWAP3 SWAP1 DUP2 LT PUSH2 0x2722 JUMPI PUSH2 0x2722 PUSH2 0x3675 JUMP JUMPDEST SWAP1 PUSH1 0x0 MSTORE PUSH1 0x20 PUSH1 0x0 KECCAK256 SWAP1 PUSH1 0x2 MUL ADD PUSH1 0x1 ADD DUP2 SWAP1 SSTORE POP JUMPDEST PUSH1 0x1 DUP2 PUSH1 0x2 DUP2 GT ISZERO PUSH2 0x274C JUMPI PUSH2 0x274C PUSH2 0x3746 JUMP JUMPDEST EQ DUP1 PUSH2 0x2769 JUMPI POP PUSH1 0x2 DUP2 PUSH1 0x2 DUP2 GT ISZERO PUSH2 0x2767 JUMPI PUSH2 0x2767 PUSH2 0x3746 JUMP JUMPDEST EQ JUMPDEST ISZERO PUSH2 0x28BF JUMPI PUSH1 0x1 PUSH1 0x1 PUSH1 0xA0 SHL SUB DUP7 AND PUSH1 0x0 SWAP1 DUP2 MSTORE PUSH1 0x9 PUSH1 0x20 MSTORE PUSH1 0x40 SWAP1 KECCAK256 SLOAD PUSH1 0xFF AND PUSH2 0x2878 JUMPI PUSH1 0x40 DUP1 MLOAD DUP1 DUP3 ADD DUP3 MSTORE PUSH1 0x1 PUSH1 0x1 PUSH1 0xA0 SHL SUB DUP9 DUP2 AND DUP3 MSTORE PUSH1 0x20 DUP1 DUP4 ADD DUP10 DUP2 MSTORE PUSH1 0x7 DUP1 SLOAD PUSH1 0x1 DUP1 DUP3 ADD DUP4 SSTORE PUSH1 0x0 DUP4 SWAP1 MSTORE SWAP6 MLOAD PUSH32 0xA66CC928B5EDB82AF9BD49922954155AB7B0942694BEA4CE44661D9A8736C688 PUSH1 0x2 SWAP1 SWAP3 MUL SWAP2 DUP3 ADD DUP1 SLOAD PUSH1 0x1 PUSH1 0x1 PUSH1 0xA0 SHL SUB NOT AND SWAP2 SWAP1 SWAP7 AND OR SWAP1 SWAP5 SSTORE SWAP1 MLOAD PUSH32 0xA66CC928B5EDB82AF9BD49922954155AB7B0942694BEA4CE44661D9A8736C689 SWAP1 SWAP4 ADD SWAP3 SWAP1 SWAP3 SSTORE DUP4 MLOAD DUP1 DUP6 ADD SWAP1 SWAP5 MSTORE DUP3 DUP5 MSTORE SWAP1 SLOAD SWAP1 DUP4 ADD SWAP2 PUSH2 0x283F SWAP2 PUSH2 0x375C JUMP JUMPDEST SWAP1 MSTORE PUSH1 0x1 PUSH1 0x1 PUSH1 0xA0 SHL SUB DUP8 AND PUSH1 0x0 SWAP1 DUP2 MSTORE PUSH1 0x9 PUSH1 0x20 SWAP1 DUP2 MSTORE PUSH1 0x40 SWAP1 SWAP2 KECCAK256 DUP3 MLOAD DUP2 SLOAD PUSH1 0xFF NOT AND SWAP1 ISZERO ISZERO OR DUP2 SSTORE SWAP2 ADD MLOAD PUSH1 0x1 SWAP1 SWAP2 ADD SSTORE PUSH2 0x28BF JUMP JUMPDEST PUSH1 0x1 PUSH1 0x1 PUSH1 0xA0 SHL SUB DUP7 AND PUSH1 0x0 SWAP1 DUP2 MSTORE PUSH1 0x9 PUSH1 0x20 MSTORE PUSH1 0x40 SWAP1 KECCAK256 PUSH1 0x1 ADD SLOAD PUSH1 0x7 DUP1 SLOAD DUP8 SWAP3 SWAP1 DUP2 LT PUSH2 0x28A9 JUMPI PUSH2 0x28A9 PUSH2 0x3675 JUMP JUMPDEST SWAP1 PUSH1 0x0 MSTORE PUSH1 0x20 PUSH1 0x0 KECCAK256 SWAP1 PUSH1 0x2 MUL ADD PUSH1 0x1 ADD DUP2 SWAP1 SSTORE POP JUMPDEST DUP6 PUSH1 0x1 PUSH1 0x1 PUSH1 0xA0 SHL SUB AND PUSH32 0x78800D7333B8D0174A0845569E3913B7CE4A3C03CA444DD9904172FC14F2FDAD DUP7 DUP4 PUSH1 0x40 MLOAD PUSH2 0x28FA SWAP3 SWAP2 SWAP1 PUSH2 0x38D2 JUMP JUMPDEST PUSH1 0x40 MLOAD DUP1 SWAP2 SUB SWAP1 LOG2 POP PUSH1 0x1 SWAP6 SWAP5 POP POP POP POP POP JUMP JUMPDEST CALLER PUSH1 0x0 SWAP1 DUP2 MSTORE PUSH1 0x20 DUP2 SWAP1 MSTORE PUSH1 0x40 DUP2 KECCAK256 PUSH1 0x1 ADD SLOAD PUSH1 0xE0 SHL PUSH1 0x1 PUSH1 0xE1 SHL SWAP1 DUP2 AND EQ PUSH2 0x2936 JUMPI PUSH1 0x0 DUP1 REVERT JUMPDEST PUSH14 0x7265676973746572536368656D65 PUSH1 0x90 SHL PUSH1 0x0 JUMPDEST PUSH1 0x6 SLOAD DUP2 LT ISZERO PUSH2 0x2A3F JUMPI PUSH1 0x6 DUP2 DUP2 SLOAD DUP2 LT PUSH2 0x2968 JUMPI PUSH2 0x2968 PUSH2 0x3675 JUMP JUMPDEST PUSH1 0x0 SWAP2 DUP3 MSTORE PUSH1 0x20 SWAP1 SWAP2 KECCAK256 PUSH1 0x2 SWAP1 SWAP2 MUL ADD SLOAD PUSH1 0x6 DUP1 SLOAD PUSH1 0x1 PUSH1 0x1 PUSH1 0xA0 SHL SUB SWAP1 SWAP3 AND SWAP2 PUSH4 0xC1786AB2 SWAP2 CALLER SWAP2 DUP6 SWAP1 DUP2 LT PUSH2 0x29A1 JUMPI PUSH2 0x29A1 PUSH2 0x3675 JUMP JUMPDEST SWAP1 PUSH1 0x0 MSTORE PUSH1 0x20 PUSH1 0x0 KECCAK256 SWAP1 PUSH1 0x2 MUL ADD PUSH1 0x1 ADD SLOAD DUP6 PUSH1 0x40 MLOAD DUP5 PUSH4 0xFFFFFFFF AND PUSH1 0xE0 SHL DUP2 MSTORE PUSH1 0x4 ADD PUSH2 0x29D2 SWAP4 SWAP3 SWAP2 SWAP1 PUSH2 0x368B JUMP JUMPDEST PUSH1 0x20 PUSH1 0x40 MLOAD DUP1 DUP4 SUB DUP2 PUSH1 0x0 DUP8 DUP1 EXTCODESIZE ISZERO DUP1 ISZERO PUSH2 0x29EC JUMPI PUSH1 0x0 DUP1 REVERT JUMPDEST POP GAS CALL ISZERO DUP1 ISZERO PUSH2 0x2A00 JUMPI RETURNDATASIZE PUSH1 0x0 DUP1 RETURNDATACOPY RETURNDATASIZE PUSH1 0x0 REVERT JUMPDEST POP POP POP POP PUSH1 0x40 MLOAD RETURNDATASIZE PUSH1 0x1F NOT PUSH1 0x1F DUP3 ADD AND DUP3 ADD DUP1 PUSH1 0x40 MSTORE POP DUP2 ADD SWAP1 PUSH2 0x2A24 SWAP2 SWAP1 PUSH2 0x36BC JUMP JUMPDEST PUSH2 0x2A2D JUMPI PUSH1 0x0 DUP1 REVERT JUMPDEST DUP1 PUSH2 0x2A37 DUP2 PUSH2 0x36ED JUMP JUMPDEST SWAP2 POP POP PUSH2 0x294B JUMP JUMPDEST PUSH1 0x1 SLOAD DUP5 SWAP1 PUSH1 0x1 PUSH1 0x1 PUSH1 0xA0 SHL SUB DUP1 DUP4 AND SWAP2 AND EQ PUSH2 0x2A5B JUMPI PUSH1 0x0 DUP1 REVERT JUMPDEST PUSH1 0x1 PUSH1 0x1 PUSH1 0xA0 SHL SUB DUP9 AND PUSH1 0x0 SWAP1 DUP2 MSTORE PUSH1 0x20 DUP2 DUP2 MSTORE PUSH1 0x40 DUP1 DUP4 KECCAK256 DUP2 MLOAD DUP1 DUP4 ADD DUP4 MSTORE DUP2 SLOAD DUP2 MSTORE PUSH1 0x1 SWAP2 DUP3 ADD SLOAD PUSH1 0x1 PUSH1 0x1 PUSH1 0xE0 SHL SUB NOT PUSH1 0xE0 SWAP2 DUP3 SHL AND DUP3 DUP7 ADD SWAP1 DUP2 MSTORE CALLER DUP8 MSTORE SWAP5 DUP7 SWAP1 MSTORE SWAP3 SWAP1 SWAP5 KECCAK256 ADD SLOAD SWAP2 MLOAD DUP10 XOR SWAP2 SWAP1 SHL NOT AND PUSH1 0x1F PUSH1 0xE0 SHL AND ISZERO PUSH2 0x2AC0 JUMPI PUSH1 0x0 DUP1 REVERT JUMPDEST CALLER PUSH1 0x0 SWAP1 DUP2 MSTORE PUSH1 0x20 DUP2 DUP2 MSTORE PUSH1 0x40 SWAP1 SWAP2 KECCAK256 PUSH1 0x1 ADD SLOAD SWAP1 DUP3 ADD MLOAD PUSH1 0x1F PUSH1 0xE0 SHL PUSH1 0xE0 SWAP3 SWAP1 SWAP3 SHL NOT AND AND ISZERO PUSH2 0x2AF0 JUMPI PUSH1 0x0 DUP1 REVERT JUMPDEST PUSH1 0x1 PUSH1 0x1 PUSH1 0xA0 SHL SUB DUP10 AND PUSH1 0x0 DUP2 DUP2 MSTORE PUSH1 0x20 DUP2 SWAP1 MSTORE PUSH1 0x40 DUP1 DUP3 KECCAK256 DUP12 DUP2 SSTORE PUSH1 0x1 ADD DUP1 SLOAD PUSH4 0xFFFFFFFF NOT AND PUSH1 0x1 PUSH1 0xE0 SHL DUP13 OR PUSH1 0xE0 SHR OR SWAP1 SSTORE MLOAD CALLER SWAP2 PUSH32 0x546816E99403DF442ACB68EF69562682A50762C20A3FB6B472F7AF9923736CFC SWAP2 LOG3 PUSH1 0x1 SWAP5 POP POP POP PUSH1 0x0 SWAP1 POP JUMPDEST PUSH1 0x7 SLOAD DUP2 LT ISZERO PUSH2 0x1609 JUMPI PUSH1 0x7 DUP2 DUP2 SLOAD DUP2 LT PUSH2 0x2B73 JUMPI PUSH2 0x2B73 PUSH2 0x3675 JUMP JUMPDEST PUSH1 0x0 SWAP2 DUP3 MSTORE PUSH1 0x20 SWAP1 SWAP2 KECCAK256 PUSH1 0x2 SWAP1 SWAP2 MUL ADD SLOAD PUSH1 0x7 DUP1 SLOAD PUSH1 0x1 PUSH1 0x1 PUSH1 0xA0 SHL SUB SWAP1 SWAP3 AND SWAP2 PUSH4 0x8043154D SWAP2 CALLER SWAP2 DUP6 SWAP1 DUP2 LT PUSH2 0x2BAC JUMPI PUSH2 0x2BAC PUSH2 0x3675 JUMP JUMPDEST SWAP1 PUSH1 0x0 MSTORE PUSH1 0x20 PUSH1 0x0 KECCAK256 SWAP1 PUSH1 0x2 MUL ADD PUSH1 0x1 ADD SLOAD DUP6 PUSH1 0x40 MLOAD DUP5 PUSH4 0xFFFFFFFF AND PUSH1 0xE0 SHL DUP2 MSTORE PUSH1 0x4 ADD PUSH2 0x2BDD SWAP4 SWAP3 SWAP2 SWAP1 PUSH2 0x368B JUMP JUMPDEST PUSH1 0x20 PUSH1 0x40 MLOAD DUP1 DUP4 SUB DUP2 PUSH1 0x0 DUP8 DUP1 EXTCODESIZE ISZERO DUP1 ISZERO PUSH2 0x2BF7 JUMPI PUSH1 0x0 DUP1 REVERT JUMPDEST POP GAS CALL ISZERO DUP1 ISZERO PUSH2 0x2C0B JUMPI RETURNDATASIZE PUSH1 0x0 DUP1 RETURNDATACOPY RETURNDATASIZE PUSH1 0x0 REVERT JUMPDEST POP POP POP POP PUSH1 0x40 MLOAD RETURNDATASIZE PUSH1 0x1F NOT PUSH1 0x1F DUP3 ADD AND DUP3 ADD DUP1 PUSH1 0x40 MSTORE POP DUP2 ADD SWAP1 PUSH2 0x2C2F SWAP2 SWAP1 PUSH2 0x36BC JUMP JUMPDEST PUSH2 0x2C38 JUMPI PUSH1 0x0 DUP1 REVERT JUMPDEST DUP1 PUSH2 0x2C42 DUP2 PUSH2 0x36ED JUMP JUMPDEST SWAP2 POP POP PUSH2 0x2B56 JUMP JUMPDEST PUSH1 0x7 DUP2 DUP2 SLOAD DUP2 LT PUSH2 0xE3A JUMPI PUSH1 0x0 DUP1 REVERT JUMPDEST CALLER PUSH1 0x0 SWAP1 DUP2 MSTORE PUSH1 0x20 DUP2 SWAP1 MSTORE PUSH1 0x40 DUP2 KECCAK256 PUSH1 0x1 ADD SLOAD PUSH1 0xE0 SHL PUSH1 0x1 PUSH1 0xE0 SHL SWAP1 DUP2 AND EQ PUSH2 0x2C82 JUMPI PUSH1 0x0 DUP1 REVERT JUMPDEST PUSH14 0x36B4B73A2932B83ABA30BA34B7B7 PUSH1 0x91 SHL PUSH1 0x0 JUMPDEST PUSH1 0x6 SLOAD DUP2 LT ISZERO PUSH2 0x2D8B JUMPI PUSH1 0x6 DUP2 DUP2 SLOAD DUP2 LT PUSH2 0x2CB4 JUMPI PUSH2 0x2CB4 PUSH2 0x3675 JUMP JUMPDEST PUSH1 0x0 SWAP2 DUP3 MSTORE PUSH1 0x20 SWAP1 SWAP2 KECCAK256 PUSH1 0x2 SWAP1 SWAP2 MUL ADD SLOAD PUSH1 0x6 DUP1 SLOAD PUSH1 0x1 PUSH1 0x1 PUSH1 0xA0 SHL SUB SWAP1 SWAP3 AND SWAP2 PUSH4 0xC1786AB2 SWAP2 CALLER SWAP2 DUP6 SWAP1 DUP2 LT PUSH2 0x2CED JUMPI PUSH2 0x2CED PUSH2 0x3675 JUMP JUMPDEST SWAP1 PUSH1 0x0 MSTORE PUSH1 0x20 PUSH1 0x0 KECCAK256 SWAP1 PUSH1 0x2 MUL ADD PUSH1 0x1 ADD SLOAD DUP6 PUSH1 0x40 MLOAD DUP5 PUSH4 0xFFFFFFFF AND PUSH1 0xE0 SHL DUP2 MSTORE PUSH1 0x4 ADD PUSH2 0x2D1E SWAP4 SWAP3 SWAP2 SWAP1 PUSH2 0x368B JUMP JUMPDEST PUSH1 0x20 PUSH1 0x40 MLOAD DUP1 DUP4 SUB DUP2 PUSH1 0x0 DUP8 DUP1 EXTCODESIZE ISZERO DUP1 ISZERO PUSH2 0x2D38 JUMPI PUSH1 0x0 DUP1 REVERT JUMPDEST POP GAS CALL ISZERO DUP1 ISZERO PUSH2 0x2D4C JUMPI RETURNDATASIZE PUSH1 0x0 DUP1 RETURNDATACOPY RETURNDATASIZE PUSH1 0x0 REVERT JUMPDEST POP POP POP POP PUSH1 0x40 MLOAD RETURNDATASIZE PUSH1 0x1F NOT PUSH1 0x1F DUP3 ADD AND DUP3 ADD DUP1 PUSH1 0x40 MSTORE POP DUP2 ADD SWAP1 PUSH2 0x2D70 SWAP2 SWAP1 PUSH2 0x36BC JUMP JUMPDEST PUSH2 0x2D79 JUMPI PUSH1 0x0 DUP1 REVERT JUMPDEST DUP1 PUSH2 0x2D83 DUP2 PUSH2 0x36ED JUMP JUMPDEST SWAP2 POP POP PUSH2 0x2C97 JUMP JUMPDEST PUSH1 0x1 SLOAD DUP5 SWAP1 PUSH1 0x1 PUSH1 0x1 PUSH1 0xA0 SHL SUB DUP1 DUP4 AND SWAP2 AND EQ PUSH2 0x2DA7 JUMPI PUSH1 0x0 DUP1 REVERT JUMPDEST PUSH1 0x40 MLOAD DUP8 DUP2 MSTORE PUSH1 0x1 PUSH1 0x1 PUSH1 0xA0 SHL SUB DUP8 AND SWAP1 CALLER SWAP1 PUSH32 0x837F2931E3DF0592458212BE4E470025F197FEB7A8E39DEB5B7F1F1D42E6F262 SWAP1 PUSH1 0x20 ADD PUSH1 0x40 MLOAD DUP1 SWAP2 SUB SWAP1 LOG3 PUSH1 0x3 SLOAD PUSH1 0x40 MLOAD PUSH4 0x40C10F19 PUSH1 0xE0 SHL DUP2 MSTORE PUSH1 0x1 PUSH1 0x1 PUSH1 0xA0 SHL SUB DUP9 DUP2 AND PUSH1 0x4 DUP4 ADD MSTORE PUSH1 0x24 DUP3 ADD DUP11 SWAP1 MSTORE SWAP1 SWAP2 AND SWAP1 PUSH4 0x40C10F19 SWAP1 PUSH1 0x44 ADD PUSH1 0x20 PUSH1 0x40 MLOAD DUP1 DUP4 SUB DUP2 PUSH1 0x0 DUP8 DUP1 EXTCODESIZE ISZERO DUP1 ISZERO PUSH2 0x2E35 JUMPI PUSH1 0x0 DUP1 REVERT JUMPDEST POP GAS CALL ISZERO DUP1 ISZERO PUSH2 0x2E49 JUMPI RETURNDATASIZE PUSH1 0x0 DUP1 RETURNDATACOPY RETURNDATASIZE PUSH1 0x0 REVERT JUMPDEST POP POP POP POP PUSH1 0x40 MLOAD RETURNDATASIZE PUSH1 0x1F NOT PUSH1 0x1F DUP3 ADD AND DUP3 ADD DUP1 PUSH1 0x40 MSTORE POP DUP2 ADD SWAP1 PUSH2 0x2E6D SWAP2 SWAP1 PUSH2 0x36BC JUMP JUMPDEST SWAP4 POP POP PUSH1 0x0 SWAP1 POP JUMPDEST PUSH1 0x7 SLOAD DUP2 LT ISZERO PUSH2 0x18DD JUMPI PUSH1 0x7 DUP2 DUP2 SLOAD DUP2 LT PUSH2 0x2E92 JUMPI PUSH2 0x2E92 PUSH2 0x3675 JUMP JUMPDEST PUSH1 0x0 SWAP2 DUP3 MSTORE PUSH1 0x20 SWAP1 SWAP2 KECCAK256 PUSH1 0x2 SWAP1 SWAP2 MUL ADD SLOAD PUSH1 0x7 DUP1 SLOAD PUSH1 0x1 PUSH1 0x1 PUSH1 0xA0 SHL SUB SWAP1 SWAP3 AND SWAP2 PUSH4 0x8043154D SWAP2 CALLER SWAP2 DUP6 SWAP1 DUP2 LT PUSH2 0x2ECB JUMPI PUSH2 0x2ECB PUSH2 0x3675 JUMP JUMPDEST SWAP1 PUSH1 0x0 MSTORE PUSH1 0x20 PUSH1 0x0 KECCAK256 SWAP1 PUSH1 0x2 MUL ADD PUSH1 0x1 ADD SLOAD DUP6 PUSH1 0x40 MLOAD DUP5 PUSH4 0xFFFFFFFF AND PUSH1 0xE0 SHL DUP2 MSTORE PUSH1 0x4 ADD PUSH2 0x2EFC SWAP4 SWAP3 SWAP2 SWAP1 PUSH2 0x368B JUMP JUMPDEST PUSH1 0x20 PUSH1 0x40 MLOAD DUP1 DUP4 SUB DUP2 PUSH1 0x0 DUP8 DUP1 EXTCODESIZE ISZERO DUP1 ISZERO PUSH2 0x2F16 JUMPI PUSH1 0x0 DUP1 REVERT JUMPDEST POP GAS CALL ISZERO DUP1 ISZERO PUSH2 0x2F2A JUMPI RETURNDATASIZE PUSH1 0x0 DUP1 RETURNDATACOPY RETURNDATASIZE PUSH1 0x0 REVERT JUMPDEST POP POP POP POP PUSH1 0x40 MLOAD RETURNDATASIZE PUSH1 0x1F NOT PUSH1 0x1F DUP3 ADD AND DUP3 ADD DUP1 PUSH1 0x40 MSTORE POP DUP2 ADD SWAP1 PUSH2 0x2F4E SWAP2 SWAP1 PUSH2 0x36BC JUMP JUMPDEST PUSH2 0x2F57 JUMPI PUSH1 0x0 DUP1 REVERT JUMPDEST DUP1 PUSH2 0x2F61 DUP2 PUSH2 0x36ED JUMP JUMPDEST SWAP2 POP POP PUSH2 0x2E75 JUMP JUMPDEST PUSH1 0x1 SLOAD PUSH1 0x0 SWAP1 DUP3 SWAP1 PUSH1 0x1 PUSH1 0x1 PUSH1 0xA0 SHL SUB DUP1 DUP4 AND SWAP2 AND EQ PUSH2 0x2F88 JUMPI PUSH1 0x0 DUP1 REVERT JUMPDEST PUSH1 0x1 PUSH1 0x1 PUSH1 0xA0 SHL SUB DUP5 AND PUSH1 0x0 SWAP1 DUP2 MSTORE PUSH1 0x8 PUSH1 0x20 MSTORE PUSH1 0x40 SWAP1 KECCAK256 SLOAD PUSH1 0xFF AND DUP1 PUSH2 0xAC3 JUMPI POP POP POP POP PUSH1 0x1 PUSH1 0x1 PUSH1 0xA0 SHL SUB AND PUSH1 0x0 SWAP1 DUP2 MSTORE PUSH1 0x9 PUSH1 0x20 MSTORE PUSH1 0x40 SWAP1 KECCAK256 SLOAD PUSH1 0xFF AND SWAP1 JUMP JUMPDEST CALLER PUSH1 0x0 SWAP1 DUP2 MSTORE PUSH1 0x20 DUP2 SWAP1 MSTORE PUSH1 0x40 DUP2 KECCAK256 PUSH1 0x1 ADD SLOAD PUSH1 0xE0 SHL PUSH1 0x1 PUSH1 0xE0 SHL SWAP1 DUP2 AND EQ PUSH2 0x2FF3 JUMPI PUSH1 0x0 DUP1 REVERT JUMPDEST PUSH32 0x65787465726E616C546F6B656E5472616E7366657246726F6D00000000000000 PUSH1 0x0 JUMPDEST PUSH1 0x6 SLOAD DUP2 LT ISZERO PUSH2 0x310B JUMPI PUSH1 0x6 DUP2 DUP2 SLOAD DUP2 LT PUSH2 0x3034 JUMPI PUSH2 0x3034 PUSH2 0x3675 JUMP JUMPDEST PUSH1 0x0 SWAP2 DUP3 MSTORE PUSH1 0x20 SWAP1 SWAP2 KECCAK256 PUSH1 0x2 SWAP1 SWAP2 MUL ADD SLOAD PUSH1 0x6 DUP1 SLOAD PUSH1 0x1 PUSH1 0x1 PUSH1 0xA0 SHL SUB SWAP1 SWAP3 AND SWAP2 PUSH4 0xC1786AB2 SWAP2 CALLER SWAP2 DUP6 SWAP1 DUP2 LT PUSH2 0x306D JUMPI PUSH2 0x306D PUSH2 0x3675 JUMP JUMPDEST SWAP1 PUSH1 0x0 MSTORE PUSH1 0x20 PUSH1 0x0 KECCAK256 SWAP1 PUSH1 0x2 MUL ADD PUSH1 0x1 ADD SLOAD DUP6 PUSH1 0x40 MLOAD DUP5 PUSH4 0xFFFFFFFF AND PUSH1 0xE0 SHL DUP2 MSTORE PUSH1 0x4 ADD PUSH2 0x309E SWAP4 SWAP3 SWAP2 SWAP1 PUSH2 0x368B JUMP JUMPDEST PUSH1 0x20 PUSH1 0x40 MLOAD DUP1 DUP4 SUB DUP2 PUSH1 0x0 DUP8 DUP1 EXTCODESIZE ISZERO DUP1 ISZERO PUSH2 0x30B8 JUMPI PUSH1 0x0 DUP1 REVERT JUMPDEST POP GAS CALL ISZERO DUP1 ISZERO PUSH2 0x30CC JUMPI RETURNDATASIZE PUSH1 0x0 DUP1 RETURNDATACOPY RETURNDATASIZE PUSH1 0x0 REVERT JUMPDEST POP POP POP POP PUSH1 0x40 MLOAD RETURNDATASIZE PUSH1 0x1F NOT PUSH1 0x1F DUP3 ADD AND DUP3 ADD DUP1 PUSH1 0x40 MSTORE POP DUP2 ADD SWAP1 PUSH2 0x30F0 SWAP2 SWAP1 PUSH2 0x36BC JUMP JUMPDEST PUSH2 0x30F9 JUMPI PUSH1 0x0 DUP1 REVERT JUMPDEST DUP1 PUSH2 0x3103 DUP2 PUSH2 0x36ED JUMP JUMPDEST SWAP2 POP POP PUSH2 0x3017 JUMP JUMPDEST PUSH1 0x1 SLOAD DUP5 SWAP1 PUSH1 0x1 PUSH1 0x1 PUSH1 0xA0 SHL SUB DUP1 DUP4 AND SWAP2 AND EQ PUSH2 0x3127 JUMPI PUSH1 0x0 DUP1 REVERT JUMPDEST PUSH1 0x1 SLOAD PUSH1 0x40 MLOAD PUSH4 0x5BAB6AD1 PUSH1 0xE1 SHL DUP2 MSTORE PUSH1 0x1 PUSH1 0x1 PUSH1 0xA0 SHL SUB DUP12 DUP2 AND PUSH1 0x4 DUP4 ADD MSTORE DUP11 DUP2 AND PUSH1 0x24 DUP4 ADD MSTORE DUP10 DUP2 AND PUSH1 0x44 DUP4 ADD MSTORE PUSH1 0x64 DUP3 ADD DUP10 SWAP1 MSTORE SWAP1 SWAP2 AND SWAP1 PUSH4 0xB756D5A2 SWAP1 PUSH1 0x84 ADD PUSH1 0x20 PUSH1 0x40 MLOAD DUP1 DUP4 SUB DUP2 PUSH1 0x0 DUP8 DUP1 EXTCODESIZE ISZERO DUP1 ISZERO PUSH2 0x3185 JUMPI PUSH1 0x0 DUP1 REVERT JUMPDEST POP GAS CALL ISZERO DUP1 ISZERO PUSH2 0x3199 JUMPI RETURNDATASIZE PUSH1 0x0 DUP1 RETURNDATACOPY RETURNDATASIZE PUSH1 0x0 REVERT JUMPDEST POP POP POP POP PUSH1 0x40 MLOAD RETURNDATASIZE PUSH1 0x1F NOT PUSH1 0x1F DUP3 ADD AND DUP3 ADD DUP1 PUSH1 0x40 MSTORE POP DUP2 ADD SWAP1 PUSH2 0x31BD SWAP2 SWAP1 PUSH2 0x36BC JUMP JUMPDEST SWAP4 POP POP PUSH1 0x0 SWAP1 POP JUMPDEST PUSH1 0x7 SLOAD DUP2 LT ISZERO PUSH2 0x32B9 JUMPI PUSH1 0x7 DUP2 DUP2 SLOAD DUP2 LT PUSH2 0x31E2 JUMPI PUSH2 0x31E2 PUSH2 0x3675 JUMP JUMPDEST PUSH1 0x0 SWAP2 DUP3 MSTORE PUSH1 0x20 SWAP1 SWAP2 KECCAK256 PUSH1 0x2 SWAP1 SWAP2 MUL ADD SLOAD PUSH1 0x7 DUP1 SLOAD PUSH1 0x1 PUSH1 0x1 PUSH1 0xA0 SHL SUB SWAP1 SWAP3 AND SWAP2 PUSH4 0x8043154D SWAP2 CALLER SWAP2 DUP6 SWAP1 DUP2 LT PUSH2 0x321B JUMPI PUSH2 0x321B PUSH2 0x3675 JUMP JUMPDEST SWAP1 PUSH1 0x0 MSTORE PUSH1 0x20 PUSH1 0x0 KECCAK256 SWAP1 PUSH1 0x2 MUL ADD PUSH1 0x1 ADD SLOAD DUP6 PUSH1 0x40 MLOAD DUP5 PUSH4 0xFFFFFFFF AND PUSH1 0xE0 SHL DUP2 MSTORE PUSH1 0x4 ADD PUSH2 0x324C SWAP4 SWAP3 SWAP2 SWAP1 PUSH2 0x368B JUMP JUMPDEST PUSH1 0x20 PUSH1 0x40 MLOAD DUP1 DUP4 SUB DUP2 PUSH1 0x0 DUP8 DUP1 EXTCODESIZE ISZERO DUP1 ISZERO PUSH2 0x3266 JUMPI PUSH1 0x0 DUP1 REVERT JUMPDEST POP GAS CALL ISZERO DUP1 ISZERO PUSH2 0x327A JUMPI RETURNDATASIZE PUSH1 0x0 DUP1 RETURNDATACOPY RETURNDATASIZE PUSH1 0x0 REVERT JUMPDEST POP POP POP POP PUSH1 0x40 MLOAD RETURNDATASIZE PUSH1 0x1F NOT PUSH1 0x1F DUP3 ADD AND DUP3 ADD DUP1 PUSH1 0x40 MSTORE POP DUP2 ADD SWAP1 PUSH2 0x329E SWAP2 SWAP1 PUSH2 0x36BC JUMP JUMPDEST PUSH2 0x32A7 JUMPI PUSH1 0x0 DUP1 REVERT JUMPDEST DUP1 PUSH2 0x32B1 DUP2 PUSH2 0x36ED JUMP JUMPDEST SWAP2 POP POP PUSH2 0x31C5 JUMP JUMPDEST POP POP SWAP6 SWAP5 POP POP POP POP POP JUMP JUMPDEST PUSH1 0x1 PUSH1 0x1 PUSH1 0xA0 SHL SUB AND PUSH1 0x0 SWAP1 DUP2 MSTORE PUSH1 0x20 DUP2 SWAP1 MSTORE PUSH1 0x40 SWAP1 KECCAK256 PUSH1 0x1 ADD SLOAD PUSH1 0xE0 SHL PUSH1 0x1 PUSH1 0xE0 SHL AND ISZERO ISZERO SWAP1 JUMP JUMPDEST PUSH1 0x1 PUSH1 0x1 PUSH1 0xA0 SHL SUB DUP2 AND DUP2 EQ PUSH2 0x3302 JUMPI PUSH1 0x0 DUP1 REVERT JUMPDEST POP JUMP JUMPDEST PUSH1 0x0 DUP1 PUSH1 0x40 DUP4 DUP6 SUB SLT ISZERO PUSH2 0x3318 JUMPI PUSH1 0x0 DUP1 REVERT JUMPDEST DUP3 CALLDATALOAD PUSH2 0x3323 DUP2 PUSH2 0x32ED JUMP JUMPDEST SWAP2 POP PUSH1 0x20 DUP4 ADD CALLDATALOAD PUSH2 0x3333 DUP2 PUSH2 0x32ED JUMP JUMPDEST DUP1 SWAP2 POP POP SWAP3 POP SWAP3 SWAP1 POP JUMP JUMPDEST PUSH1 0x0 PUSH1 0x20 DUP3 DUP5 SUB SLT ISZERO PUSH2 0x3350 JUMPI PUSH1 0x0 DUP1 REVERT JUMPDEST DUP2 CALLDATALOAD PUSH2 0x335B DUP2 PUSH2 0x32ED JUMP JUMPDEST SWAP4 SWAP3 POP POP POP JUMP JUMPDEST PUSH1 0x0 PUSH1 0x20 DUP3 DUP5 SUB SLT ISZERO PUSH2 0x3374 JUMPI PUSH1 0x0 DUP1 REVERT JUMPDEST POP CALLDATALOAD SWAP2 SWAP1 POP JUMP JUMPDEST PUSH1 0x0 DUP1 PUSH1 0x0 DUP1 PUSH1 0x80 DUP6 DUP8 SUB SLT ISZERO PUSH2 0x3391 JUMPI PUSH1 0x0 DUP1 REVERT JUMPDEST DUP5 CALLDATALOAD PUSH2 0x339C DUP2 PUSH2 0x32ED JUMP JUMPDEST SWAP4 POP PUSH1 0x20 DUP6 ADD CALLDATALOAD PUSH2 0x33AC DUP2 PUSH2 0x32ED JUMP JUMPDEST SWAP3 POP PUSH1 0x40 DUP6 ADD CALLDATALOAD SWAP2 POP PUSH1 0x60 DUP6 ADD CALLDATALOAD PUSH2 0x33C3 DUP2 PUSH2 0x32ED JUMP JUMPDEST SWAP4 SWAP7 SWAP3 SWAP6 POP SWAP1 SWAP4 POP POP JUMP JUMPDEST PUSH1 0x0 DUP1 PUSH1 0x0 PUSH1 0x60 DUP5 DUP7 SUB SLT ISZERO PUSH2 0x33E3 JUMPI PUSH1 0x0 DUP1 REVERT JUMPDEST DUP4 CALLDATALOAD SWAP3 POP PUSH1 0x20 DUP5 ADD CALLDATALOAD PUSH2 0x33F5 DUP2 PUSH2 0x32ED JUMP JUMPDEST SWAP2 POP PUSH1 0x40 DUP5 ADD CALLDATALOAD PUSH2 0x3405 DUP2 PUSH2 0x32ED JUMP JUMPDEST DUP1 SWAP2 POP POP SWAP3 POP SWAP3 POP SWAP3 JUMP JUMPDEST PUSH1 0x0 DUP1 DUP4 PUSH1 0x1F DUP5 ADD SLT PUSH2 0x3422 JUMPI PUSH1 0x0 DUP1 REVERT JUMPDEST POP DUP2 CALLDATALOAD PUSH8 0xFFFFFFFFFFFFFFFF DUP2 GT ISZERO PUSH2 0x343A JUMPI PUSH1 0x0 DUP1 REVERT JUMPDEST PUSH1 0x20 DUP4 ADD SWAP2 POP DUP4 PUSH1 0x20 DUP3 DUP6 ADD ADD GT ISZERO PUSH2 0x3452 JUMPI PUSH1 0x0 DUP1 REVERT JUMPDEST SWAP3 POP SWAP3 SWAP1 POP JUMP JUMPDEST PUSH1 0x0 DUP1 PUSH1 0x0 PUSH1 0x40 DUP5 DUP7 SUB SLT ISZERO PUSH2 0x346E JUMPI PUSH1 0x0 DUP1 REVERT JUMPDEST DUP4 CALLDATALOAD PUSH8 0xFFFFFFFFFFFFFFFF DUP2 GT ISZERO PUSH2 0x3485 JUMPI PUSH1 0x0 DUP1 REVERT JUMPDEST PUSH2 0x3491 DUP7 DUP3 DUP8 ADD PUSH2 0x3410 JUMP JUMPDEST SWAP1 SWAP5 POP SWAP3 POP POP PUSH1 0x20 DUP5 ADD CALLDATALOAD PUSH2 0x3405 DUP2 PUSH2 0x32ED JUMP JUMPDEST PUSH1 0x0 DUP1 PUSH1 0x0 DUP1 PUSH1 0x0 PUSH1 0x80 DUP7 DUP9 SUB SLT ISZERO PUSH2 0x34BD JUMPI PUSH1 0x0 DUP1 REVERT JUMPDEST DUP6 CALLDATALOAD PUSH2 0x34C8 DUP2 PUSH2 0x32ED JUMP JUMPDEST SWAP5 POP PUSH1 0x20 DUP7 ADD CALLDATALOAD PUSH8 0xFFFFFFFFFFFFFFFF DUP2 GT ISZERO PUSH2 0x34E4 JUMPI PUSH1 0x0 DUP1 REVERT JUMPDEST PUSH2 0x34F0 DUP9 DUP3 DUP10 ADD PUSH2 0x3410 JUMP JUMPDEST SWAP1 SWAP6 POP SWAP4 POP POP PUSH1 0x40 DUP7 ADD CALLDATALOAD PUSH2 0x3504 DUP2 PUSH2 0x32ED JUMP JUMPDEST SWAP5 SWAP8 SWAP4 SWAP7 POP SWAP2 SWAP5 PUSH1 0x60 ADD CALLDATALOAD SWAP3 SWAP2 POP POP JUMP JUMPDEST PUSH1 0x0 JUMPDEST DUP4 DUP2 LT ISZERO PUSH2 0x3530 JUMPI DUP2 DUP2 ADD MLOAD DUP4 DUP3 ADD MSTORE PUSH1 0x20 ADD PUSH2 0x3518 JUMP JUMPDEST DUP4 DUP2 GT ISZERO PUSH2 0x353F JUMPI PUSH1 0x0 DUP5 DUP5 ADD MSTORE JUMPDEST POP POP POP POP JUMP JUMPDEST DUP3 ISZERO ISZERO DUP2 MSTORE PUSH1 0x40 PUSH1 0x20 DUP3 ADD MSTORE PUSH1 0x0 DUP3 MLOAD DUP1 PUSH1 0x40 DUP5 ADD MSTORE PUSH2 0x356C DUP2 PUSH1 0x60 DUP6 ADD PUSH1 0x20 DUP8 ADD PUSH2 0x3515 JUMP JUMPDEST PUSH1 0x1F ADD PUSH1 0x1F NOT AND SWAP2 SWAP1 SWAP2 ADD PUSH1 0x60 ADD SWAP4 SWAP3 POP POP POP JUMP JUMPDEST PUSH1 0x0 DUP1 PUSH1 0x0 PUSH1 0x60 DUP5 DUP7 SUB SLT ISZERO PUSH2 0x3596 JUMPI PUSH1 0x0 DUP1 REVERT JUMPDEST DUP4 CALLDATALOAD PUSH2 0x35A1 DUP2 PUSH2 0x32ED JUMP JUMPDEST SWAP3 POP PUSH1 0x20 DUP5 ADD CALLDATALOAD SWAP2 POP PUSH1 0x40 DUP5 ADD CALLDATALOAD PUSH2 0x3405 DUP2 PUSH2 0x32ED JUMP JUMPDEST PUSH1 0x0 DUP1 PUSH1 0x0 DUP1 PUSH1 0x80 DUP6 DUP8 SUB SLT ISZERO PUSH2 0x35CE JUMPI PUSH1 0x0 DUP1 REVERT JUMPDEST DUP5 CALLDATALOAD PUSH2 0x35D9 DUP2 PUSH2 0x32ED JUMP JUMPDEST SWAP4 POP PUSH1 0x20 DUP6 ADD CALLDATALOAD SWAP3 POP PUSH1 0x40 DUP6 ADD CALLDATALOAD PUSH1 0x1 PUSH1 0x1 PUSH1 0xE0 SHL SUB NOT DUP2 AND DUP2 EQ PUSH2 0x35FD JUMPI PUSH1 0x0 DUP1 REVERT JUMPDEST SWAP2 POP PUSH1 0x60 DUP6 ADD CALLDATALOAD PUSH2 0x33C3 DUP2 PUSH2 0x32ED JUMP JUMPDEST PUSH1 0x0 DUP1 PUSH1 0x0 DUP1 PUSH1 0x0 PUSH1 0xA0 DUP7 DUP9 SUB SLT ISZERO PUSH2 0x3625 JUMPI PUSH1 0x0 DUP1 REVERT JUMPDEST DUP6 CALLDATALOAD PUSH2 0x3630 DUP2 PUSH2 0x32ED JUMP JUMPDEST SWAP5 POP PUSH1 0x20 DUP7 ADD CALLDATALOAD PUSH2 0x3640 DUP2 PUSH2 0x32ED JUMP JUMPDEST SWAP4 POP PUSH1 0x40 DUP7 ADD CALLDATALOAD PUSH2 0x3650 DUP2 PUSH2 0x32ED JUMP JUMPDEST SWAP3 POP PUSH1 0x60 DUP7 ADD CALLDATALOAD SWAP2 POP PUSH1 0x80 DUP7 ADD CALLDATALOAD PUSH2 0x3667 DUP2 PUSH2 0x32ED JUMP JUMPDEST DUP1 SWAP2 POP POP SWAP3 SWAP6 POP SWAP3 SWAP6 SWAP1 SWAP4 POP JUMP JUMPDEST PUSH4 0x4E487B71 PUSH1 0xE0 SHL PUSH1 0x0 MSTORE PUSH1 0x32 PUSH1 0x4 MSTORE PUSH1 0x24 PUSH1 0x0 REVERT JUMPDEST PUSH1 0x1 PUSH1 0x1 PUSH1 0xA0 SHL SUB SWAP4 SWAP1 SWAP4 AND DUP4 MSTORE PUSH1 0x20 DUP4 ADD SWAP2 SWAP1 SWAP2 MSTORE PUSH1 0x40 DUP3 ADD MSTORE PUSH1 0x60 ADD SWAP1 JUMP JUMPDEST DUP1 MLOAD DUP1 ISZERO ISZERO DUP2 EQ PUSH2 0x2424 JUMPI PUSH1 0x0 DUP1 REVERT JUMPDEST PUSH1 0x0 PUSH1 0x20 DUP3 DUP5 SUB SLT ISZERO PUSH2 0x36CE JUMPI PUSH1 0x0 DUP1 REVERT JUMPDEST PUSH2 0x335B DUP3 PUSH2 0x36AC JUMP JUMPDEST PUSH4 0x4E487B71 PUSH1 0xE0 SHL PUSH1 0x0 MSTORE PUSH1 0x11 PUSH1 0x4 MSTORE PUSH1 0x24 PUSH1 0x0 REVERT JUMPDEST PUSH1 0x0 PUSH1 0x0 NOT DUP3 EQ ISZERO PUSH2 0x3701 JUMPI PUSH2 0x3701 PUSH2 0x36D7 JUMP JUMPDEST POP PUSH1 0x1 ADD SWAP1 JUMP JUMPDEST PUSH1 0x0 PUSH1 0x20 DUP3 DUP5 SUB SLT ISZERO PUSH2 0x371A JUMPI PUSH1 0x0 DUP1 REVERT JUMPDEST DUP2 MLOAD PUSH2 0x335B DUP2 PUSH2 0x32ED JUMP JUMPDEST PUSH1 0x0 PUSH1 0x20 DUP3 DUP5 SUB SLT ISZERO PUSH2 0x3737 JUMPI PUSH1 0x0 DUP1 REVERT JUMPDEST DUP2 MLOAD PUSH1 0x3 DUP2 LT PUSH2 0x335B JUMPI PUSH1 0x0 DUP1 REVERT JUMPDEST PUSH4 0x4E487B71 PUSH1 0xE0 SHL PUSH1 0x0 MSTORE PUSH1 0x21 PUSH1 0x4 MSTORE PUSH1 0x24 PUSH1 0x0 REVERT JUMPDEST PUSH1 0x0 DUP3 DUP3 LT ISZERO PUSH2 0x376E JUMPI PUSH2 0x376E PUSH2 0x36D7 JUMP JUMPDEST POP SUB SWAP1 JUMP JUMPDEST PUSH4 0x4E487B71 PUSH1 0xE0 SHL PUSH1 0x0 MSTORE PUSH1 0x31 PUSH1 0x4 MSTORE PUSH1 0x24 PUSH1 0x0 REVERT JUMPDEST DUP2 DUP4 MSTORE DUP2 DUP2 PUSH1 0x20 DUP6 ADD CALLDATACOPY POP PUSH1 0x0 DUP3 DUP3 ADD PUSH1 0x20 SWAP1 DUP2 ADD SWAP2 SWAP1 SWAP2 MSTORE PUSH1 0x1F SWAP1 SWAP2 ADD PUSH1 0x1F NOT AND SWAP1 SWAP2 ADD ADD SWAP1 JUMP JUMPDEST PUSH1 0x20 DUP2 MSTORE PUSH1 0x0 PUSH2 0xAC3 PUSH1 0x20 DUP4 ADD DUP5 DUP7 PUSH2 0x3789 JUMP JUMPDEST PUSH1 0x1 PUSH1 0x1 PUSH1 0xA0 SHL SUB DUP6 AND DUP2 MSTORE PUSH1 0x60 PUSH1 0x20 DUP3 ADD DUP2 SWAP1 MSTORE PUSH1 0x0 SWAP1 PUSH2 0x37EB SWAP1 DUP4 ADD DUP6 DUP8 PUSH2 0x3789 JUMP JUMPDEST SWAP1 POP DUP3 PUSH1 0x40 DUP4 ADD MSTORE SWAP6 SWAP5 POP POP POP POP POP JUMP JUMPDEST PUSH4 0x4E487B71 PUSH1 0xE0 SHL PUSH1 0x0 MSTORE PUSH1 0x41 PUSH1 0x4 MSTORE PUSH1 0x24 PUSH1 0x0 REVERT JUMPDEST PUSH1 0x0 DUP1 PUSH1 0x40 DUP4 DUP6 SUB SLT ISZERO PUSH2 0x3825 JUMPI PUSH1 0x0 DUP1 REVERT JUMPDEST PUSH2 0x382E DUP4 PUSH2 0x36AC JUMP JUMPDEST SWAP2 POP PUSH1 0x20 DUP4 ADD MLOAD PUSH8 0xFFFFFFFFFFFFFFFF DUP1 DUP3 GT ISZERO PUSH2 0x384B JUMPI PUSH1 0x0 DUP1 REVERT JUMPDEST DUP2 DUP6 ADD SWAP2 POP DUP6 PUSH1 0x1F DUP4 ADD SLT PUSH2 0x385F JUMPI PUSH1 0x0 DUP1 REVERT JUMPDEST DUP2 MLOAD DUP2 DUP2 GT ISZERO PUSH2 0x3871 JUMPI PUSH2 0x3871 PUSH2 0x37FC JUMP JUMPDEST PUSH1 0x40 MLOAD PUSH1 0x1F DUP3 ADD PUSH1 0x1F NOT SWAP1 DUP2 AND PUSH1 0x3F ADD AND DUP2 ADD SWAP1 DUP4 DUP3 GT DUP2 DUP4 LT OR ISZERO PUSH2 0x3899 JUMPI PUSH2 0x3899 PUSH2 0x37FC JUMP JUMPDEST DUP2 PUSH1 0x40 MSTORE DUP3 DUP2 MSTORE DUP9 PUSH1 0x20 DUP5 DUP8 ADD ADD GT ISZERO PUSH2 0x38B2 JUMPI PUSH1 0x0 DUP1 REVERT JUMPDEST PUSH2 0x38C3 DUP4 PUSH1 0x20 DUP4 ADD PUSH1 0x20 DUP9 ADD PUSH2 0x3515 JUMP JUMPDEST DUP1 SWAP6 POP POP POP POP POP POP SWAP3 POP SWAP3 SWAP1 POP JUMP JUMPDEST DUP3 DUP2 MSTORE PUSH1 0x40 DUP2 ADD PUSH1 0x3 DUP4 LT PUSH2 0x38F7 JUMPI PUSH4 0x4E487B71 PUSH1 0xE0 SHL PUSH1 0x0 MSTORE PUSH1 0x21 PUSH1 0x4 MSTORE PUSH1 0x24 PUSH1 0x0 REVERT JUMPDEST DUP3 PUSH1 0x20 DUP4 ADD MSTORE SWAP4 SWAP3 POP POP POP JUMP INVALID LOG2 PUSH5 0x6970667358 0x22 SLT KECCAK256 0xE6 0xD INVALID DUP4 SWAP13 0xCA PUSH28 0xAF8952A465340F5369B7D61AE97E31441030B764ADE29B3C364736F PUSH13 0x63430008080033000000000000 "
		},
		"gasEstimates": {
			"creation": {
				"codeDepositCost": "2930000",
				"executionCost": "infinite",
				"totalCost": "infinite"
			},
			"external": {
				"addGlobalConstraint(address,bytes32,address)": "infinite",
				"avatar()": "2427",
				"burnReputation(uint256,address,address)": "infinite",
				"externalTokenApproval(address,address,uint256,address)": "infinite",
				"externalTokenTransfer(address,address,uint256,address)": "infinite",
				"externalTokenTransferFrom(address,address,address,uint256,address)": "infinite",
				"genericCall(address,bytes,address,uint256)": "infinite",
				"getGlobalConstraintParameters(address,address)": "infinite",
				"getNativeReputation(address)": "4715",
				"getSchemeParameters(address,address)": "infinite",
				"getSchemePermissions(address,address)": "infinite",
				"globalConstraintsCount(address)": "6885",
				"globalConstraintsPost(uint256)": "6817",
				"globalConstraintsPre(uint256)": "6885",
				"globalConstraintsRegisterPost(address)": "4762",
				"globalConstraintsRegisterPre(address)": "4742",
				"isGlobalConstraintRegistered(address,address)": "infinite",
				"isSchemeRegistered(address,address)": "infinite",
				"isStakingManagerRegistered(address,address)": "infinite",
				"metaData(string,address)": "infinite",
				"mintReputation(uint256,address,address)": "infinite",
				"nativeReputation()": "2470",
				"nativeToken()": "2404",
				"newController()": "2405",
				"registerScheme(address,bytes32,bytes4,address)": "infinite",
				"removeGlobalConstraint(address,address)": "infinite",
				"schemes(address)": "4790",
				"sendEther(uint256,address,address)": "infinite",
				"stakingManagerAddress()": "2403",
				"unregisterScheme(address,address)": "infinite",
				"unregisterSelf(address)": "35656",
				"upgradeController(address,address)": "infinite",
				"upgradeRewardsManager(address,address)": "infinite",
				"upgradeStakingManager(address)": "26926"
			},
			"internal": {
				"_isSchemeRegistered(address)": "2238",
				"_isStakingManager(address)": "infinite"
			}
		},
		"methodIdentifiers": {
			"addGlobalConstraint(address,bytes32,address)": "e4537a74",
			"avatar()": "5aef7de6",
			"burnReputation(uint256,address,address)": "6e94d278",
			"externalTokenApproval(address,address,uint256,address)": "51803cd8",
			"externalTokenTransfer(address,address,uint256,address)": "b9a04cdd",
			"externalTokenTransferFrom(address,address,address,uint256,address)": "fb4856a2",
			"genericCall(address,bytes,address,uint256)": "d1b7089a",
			"getGlobalConstraintParameters(address,address)": "e08738da",
			"getNativeReputation(address)": "8da03997",
			"getSchemeParameters(address,address)": "1c4d5608",
			"getSchemePermissions(address,address)": "9b51e35a",
			"globalConstraintsCount(address)": "824f2f1f",
			"globalConstraintsPost(uint256)": "e8c98b22",
			"globalConstraintsPre(uint256)": "4422d372",
			"globalConstraintsRegisterPost(address)": "814784f6",
			"globalConstraintsRegisterPre(address)": "177eebb0",
			"isGlobalConstraintRegistered(address,address)": "f76488be",
			"isSchemeRegistered(address,address)": "9be2faed",
			"isStakingManagerRegistered(address,address)": "3132511b",
			"metaData(string,address)": "c9b62eb1",
			"mintReputation(uint256,address,address)": "eaf994b2",
			"nativeReputation()": "89ae1c90",
			"nativeToken()": "e1758bd8",
			"newController()": "3a02263c",
			"registerScheme(address,bytes32,bytes4,address)": "e869d45f",
			"removeGlobalConstraint(address,address)": "4f52b5be",
			"schemes(address)": "db6149ce",
			"sendEther(uint256,address,address)": "634965da",
			"stakingManagerAddress()": "ea7da6ea",
			"unregisterScheme(address,address)": "039de01d",
			"unregisterSelf(address)": "6c525b13",
			"upgradeController(address,address)": "42427bf8",
			"upgradeRewardsManager(address,address)": "37442d20",
			"upgradeStakingManager(address)": "d22be043"
		}
	},
	"abi": [
		{
			"inputs": [
				{
					"internalType": "contract Avatar",
					"name": "_avatar",
					"type": "address"
				}
			],
			"stateMutability": "nonpayable",
			"type": "constructor"
		},
		{
			"anonymous": false,
			"inputs": [
				{
					"indexed": true,
					"internalType": "address",
					"name": "_globalConstraint",
					"type": "address"
				},
				{
					"indexed": false,
					"internalType": "bytes32",
					"name": "_params",
					"type": "bytes32"
				},
				{
					"indexed": false,
					"internalType": "enum GlobalConstraintInterface.CallPhase",
					"name": "_when",
					"type": "uint8"
				}
			],
			"name": "AddGlobalConstraint",
			"type": "event"
		},
		{
			"anonymous": false,
			"inputs": [
				{
					"indexed": true,
					"internalType": "address",
					"name": "_sender",
					"type": "address"
				},
				{
					"indexed": true,
					"internalType": "address",
					"name": "_from",
					"type": "address"
				},
				{
					"indexed": false,
					"internalType": "uint256",
					"name": "_amount",
					"type": "uint256"
				}
			],
			"name": "BurnReputation",
			"type": "event"
		},
		{
			"anonymous": false,
			"inputs": [
				{
					"indexed": true,
					"internalType": "address",
					"name": "_sender",
					"type": "address"
				},
				{
					"indexed": true,
					"internalType": "address",
					"name": "_to",
					"type": "address"
				},
				{
					"indexed": false,
					"internalType": "uint256",
					"name": "_amount",
					"type": "uint256"
				}
			],
			"name": "MintReputation",
			"type": "event"
		},
		{
			"anonymous": false,
			"inputs": [
				{
					"indexed": true,
					"internalType": "address",
					"name": "_sender",
					"type": "address"
				},
				{
					"indexed": true,
					"internalType": "address",
					"name": "_scheme",
					"type": "address"
				}
			],
			"name": "RegisterScheme",
			"type": "event"
		},
		{
			"anonymous": false,
			"inputs": [
				{
					"indexed": true,
					"internalType": "address",
					"name": "_globalConstraint",
					"type": "address"
				},
				{
					"indexed": false,
					"internalType": "uint256",
					"name": "_index",
					"type": "uint256"
				},
				{
					"indexed": false,
					"internalType": "bool",
					"name": "_isPre",
					"type": "bool"
				}
			],
			"name": "RemoveGlobalConstraint",
			"type": "event"
		},
		{
			"anonymous": false,
			"inputs": [
				{
					"indexed": true,
					"internalType": "address",
					"name": "_sender",
					"type": "address"
				},
				{
					"indexed": true,
					"internalType": "address",
					"name": "_scheme",
					"type": "address"
				}
			],
			"name": "UnregisterScheme",
			"type": "event"
		},
		{
			"anonymous": false,
			"inputs": [
				{
					"indexed": true,
					"internalType": "address",
					"name": "_oldController",
					"type": "address"
				},
				{
					"indexed": false,
					"internalType": "address",
					"name": "_newController",
					"type": "address"
				}
			],
			"name": "UpgradeController",
			"type": "event"
		},
		{
			"inputs": [
				{
					"internalType": "address",
					"name": "_globalConstraint",
					"type": "address"
				},
				{
					"internalType": "bytes32",
					"name": "_params",
					"type": "bytes32"
				},
				{
					"internalType": "address",
					"name": "_avatar",
					"type": "address"
				}
			],
			"name": "addGlobalConstraint",
			"outputs": [
				{
					"internalType": "bool",
					"name": "",
					"type": "bool"
				}
			],
			"stateMutability": "nonpayable",
			"type": "function"
		},
		{
			"inputs": [],
			"name": "avatar",
			"outputs": [
				{
					"internalType": "contract Avatar",
					"name": "",
					"type": "address"
				}
			],
			"stateMutability": "view",
			"type": "function"
		},
		{
			"inputs": [
				{
					"internalType": "uint256",
					"name": "_amount",
					"type": "uint256"
				},
				{
					"internalType": "address",
					"name": "_from",
					"type": "address"
				},
				{
					"internalType": "address",
					"name": "_avatar",
					"type": "address"
				}
			],
			"name": "burnReputation",
			"outputs": [
				{
					"internalType": "bool",
					"name": "",
					"type": "bool"
				}
			],
			"stateMutability": "nonpayable",
			"type": "function"
		},
		{
			"inputs": [
				{
					"internalType": "contract IERC20",
					"name": "_externalToken",
					"type": "address"
				},
				{
					"internalType": "address",
					"name": "_spender",
					"type": "address"
				},
				{
					"internalType": "uint256",
					"name": "_value",
					"type": "uint256"
				},
				{
					"internalType": "contract Avatar",
					"name": "_avatar",
					"type": "address"
				}
			],
			"name": "externalTokenApproval",
			"outputs": [
				{
					"internalType": "bool",
					"name": "",
					"type": "bool"
				}
			],
			"stateMutability": "nonpayable",
			"type": "function"
		},
		{
			"inputs": [
				{
					"internalType": "contract IERC20",
					"name": "_externalToken",
					"type": "address"
				},
				{
					"internalType": "address",
					"name": "_to",
					"type": "address"
				},
				{
					"internalType": "uint256",
					"name": "_value",
					"type": "uint256"
				},
				{
					"internalType": "contract Avatar",
					"name": "_avatar",
					"type": "address"
				}
			],
			"name": "externalTokenTransfer",
			"outputs": [
				{
					"internalType": "bool",
					"name": "",
					"type": "bool"
				}
			],
			"stateMutability": "nonpayable",
			"type": "function"
		},
		{
			"inputs": [
				{
					"internalType": "contract IERC20",
					"name": "_externalToken",
					"type": "address"
				},
				{
					"internalType": "address",
					"name": "_from",
					"type": "address"
				},
				{
					"internalType": "address",
					"name": "_to",
					"type": "address"
				},
				{
					"internalType": "uint256",
					"name": "_value",
					"type": "uint256"
				},
				{
					"internalType": "contract Avatar",
					"name": "_avatar",
					"type": "address"
				}
			],
			"name": "externalTokenTransferFrom",
			"outputs": [
				{
					"internalType": "bool",
					"name": "",
					"type": "bool"
				}
			],
			"stateMutability": "nonpayable",
			"type": "function"
		},
		{
			"inputs": [
				{
					"internalType": "address",
					"name": "_contract",
					"type": "address"
				},
				{
					"internalType": "bytes",
					"name": "_data",
					"type": "bytes"
				},
				{
					"internalType": "contract Avatar",
					"name": "_avatar",
					"type": "address"
				},
				{
					"internalType": "uint256",
					"name": "_value",
					"type": "uint256"
				}
			],
			"name": "genericCall",
			"outputs": [
				{
					"internalType": "bool",
					"name": "",
					"type": "bool"
				},
				{
					"internalType": "bytes",
					"name": "",
					"type": "bytes"
				}
			],
			"stateMutability": "nonpayable",
			"type": "function"
		},
		{
			"inputs": [
				{
					"internalType": "address",
					"name": "_globalConstraint",
					"type": "address"
				},
				{
					"internalType": "address",
					"name": "",
					"type": "address"
				}
			],
			"name": "getGlobalConstraintParameters",
			"outputs": [
				{
					"internalType": "bytes32",
					"name": "",
					"type": "bytes32"
				}
			],
			"stateMutability": "view",
			"type": "function"
		},
		{
			"inputs": [
				{
					"internalType": "address",
					"name": "_avatar",
					"type": "address"
				}
			],
			"name": "getNativeReputation",
			"outputs": [
				{
					"internalType": "address",
					"name": "",
					"type": "address"
				}
			],
			"stateMutability": "view",
			"type": "function"
		},
		{
			"inputs": [
				{
					"internalType": "address",
					"name": "_scheme",
					"type": "address"
				},
				{
					"internalType": "address",
					"name": "_avatar",
					"type": "address"
				}
			],
			"name": "getSchemeParameters",
			"outputs": [
				{
					"internalType": "bytes32",
					"name": "",
					"type": "bytes32"
				}
			],
			"stateMutability": "view",
			"type": "function"
		},
		{
			"inputs": [
				{
					"internalType": "address",
					"name": "_scheme",
					"type": "address"
				},
				{
					"internalType": "address",
					"name": "_avatar",
					"type": "address"
				}
			],
			"name": "getSchemePermissions",
			"outputs": [
				{
					"internalType": "bytes4",
					"name": "",
					"type": "bytes4"
				}
			],
			"stateMutability": "view",
			"type": "function"
		},
		{
			"inputs": [
				{
					"internalType": "address",
					"name": "_avatar",
					"type": "address"
				}
			],
			"name": "globalConstraintsCount",
			"outputs": [
				{
					"internalType": "uint256",
					"name": "",
					"type": "uint256"
				},
				{
					"internalType": "uint256",
					"name": "",
					"type": "uint256"
				}
			],
			"stateMutability": "view",
			"type": "function"
		},
		{
			"inputs": [
				{
					"internalType": "uint256",
					"name": "",
					"type": "uint256"
				}
			],
			"name": "globalConstraintsPost",
			"outputs": [
				{
					"internalType": "address",
					"name": "gcAddress",
					"type": "address"
				},
				{
					"internalType": "bytes32",
					"name": "params",
					"type": "bytes32"
				}
			],
			"stateMutability": "view",
			"type": "function"
		},
		{
			"inputs": [
				{
					"internalType": "uint256",
					"name": "",
					"type": "uint256"
				}
			],
			"name": "globalConstraintsPre",
			"outputs": [
				{
					"internalType": "address",
					"name": "gcAddress",
					"type": "address"
				},
				{
					"internalType": "bytes32",
					"name": "params",
					"type": "bytes32"
				}
			],
			"stateMutability": "view",
			"type": "function"
		},
		{
			"inputs": [
				{
					"internalType": "address",
					"name": "",
					"type": "address"
				}
			],
			"name": "globalConstraintsRegisterPost",
			"outputs": [
				{
					"internalType": "bool",
					"name": "isRegistered",
					"type": "bool"
				},
				{
					"internalType": "uint256",
					"name": "index",
					"type": "uint256"
				}
			],
			"stateMutability": "view",
			"type": "function"
		},
		{
			"inputs": [
				{
					"internalType": "address",
					"name": "",
					"type": "address"
				}
			],
			"name": "globalConstraintsRegisterPre",
			"outputs": [
				{
					"internalType": "bool",
					"name": "isRegistered",
					"type": "bool"
				},
				{
					"internalType": "uint256",
					"name": "index",
					"type": "uint256"
				}
			],
			"stateMutability": "view",
			"type": "function"
		},
		{
			"inputs": [
				{
					"internalType": "address",
					"name": "_globalConstraint",
					"type": "address"
				},
				{
					"internalType": "address",
					"name": "_avatar",
					"type": "address"
				}
			],
			"name": "isGlobalConstraintRegistered",
			"outputs": [
				{
					"internalType": "bool",
					"name": "",
					"type": "bool"
				}
			],
			"stateMutability": "view",
			"type": "function"
		},
		{
			"inputs": [
				{
					"internalType": "address",
					"name": "_scheme",
					"type": "address"
				},
				{
					"internalType": "address",
					"name": "_avatar",
					"type": "address"
				}
			],
			"name": "isSchemeRegistered",
			"outputs": [
				{
					"internalType": "bool",
					"name": "",
					"type": "bool"
				}
			],
			"stateMutability": "view",
			"type": "function"
		},
		{
			"inputs": [
				{
					"internalType": "address",
					"name": "_stakingManagerAddress",
					"type": "address"
				},
				{
					"internalType": "address",
					"name": "_avatar",
					"type": "address"
				}
			],
			"name": "isStakingManagerRegistered",
			"outputs": [
				{
					"internalType": "bool",
					"name": "",
					"type": "bool"
				}
			],
			"stateMutability": "view",
			"type": "function"
		},
		{
			"inputs": [
				{
					"internalType": "string",
					"name": "_metaData",
					"type": "string"
				},
				{
					"internalType": "contract Avatar",
					"name": "_avatar",
					"type": "address"
				}
			],
			"name": "metaData",
			"outputs": [
				{
					"internalType": "bool",
					"name": "",
					"type": "bool"
				}
			],
			"stateMutability": "nonpayable",
			"type": "function"
		},
		{
			"inputs": [
				{
					"internalType": "uint256",
					"name": "_amount",
					"type": "uint256"
				},
				{
					"internalType": "address",
					"name": "_to",
					"type": "address"
				},
				{
					"internalType": "address",
					"name": "_avatar",
					"type": "address"
				}
			],
			"name": "mintReputation",
			"outputs": [
				{
					"internalType": "bool",
					"name": "",
					"type": "bool"
				}
			],
			"stateMutability": "nonpayable",
			"type": "function"
		},
		{
			"inputs": [],
			"name": "nativeReputation",
			"outputs": [
				{
					"internalType": "contract Reputation",
					"name": "",
					"type": "address"
				}
			],
			"stateMutability": "view",
			"type": "function"
		},
		{
			"inputs": [],
			"name": "nativeToken",
			"outputs": [
				{
					"internalType": "contract DAOToken",
					"name": "",
					"type": "address"
				}
			],
			"stateMutability": "view",
			"type": "function"
		},
		{
			"inputs": [],
			"name": "newController",
			"outputs": [
				{
					"internalType": "address",
					"name": "",
					"type": "address"
				}
			],
			"stateMutability": "view",
			"type": "function"
		},
		{
			"inputs": [
				{
					"internalType": "address",
					"name": "_scheme",
					"type": "address"
				},
				{
					"internalType": "bytes32",
					"name": "_paramsHash",
					"type": "bytes32"
				},
				{
					"internalType": "bytes4",
					"name": "_permissions",
					"type": "bytes4"
				},
				{
					"internalType": "address",
					"name": "_avatar",
					"type": "address"
				}
			],
			"name": "registerScheme",
			"outputs": [
				{
					"internalType": "bool",
					"name": "",
					"type": "bool"
				}
			],
			"stateMutability": "nonpayable",
			"type": "function"
		},
		{
			"inputs": [
				{
					"internalType": "address",
					"name": "_globalConstraint",
					"type": "address"
				},
				{
					"internalType": "address",
					"name": "_avatar",
					"type": "address"
				}
			],
			"name": "removeGlobalConstraint",
			"outputs": [
				{
					"internalType": "bool",
					"name": "",
					"type": "bool"
				}
			],
			"stateMutability": "nonpayable",
			"type": "function"
		},
		{
			"inputs": [
				{
					"internalType": "address",
					"name": "",
					"type": "address"
				}
			],
			"name": "schemes",
			"outputs": [
				{
					"internalType": "bytes32",
					"name": "paramsHash",
					"type": "bytes32"
				},
				{
					"internalType": "bytes4",
					"name": "permissions",
					"type": "bytes4"
				}
			],
			"stateMutability": "view",
			"type": "function"
		},
		{
			"inputs": [
				{
					"internalType": "uint256",
					"name": "_amountInWei",
					"type": "uint256"
				},
				{
					"internalType": "address payable",
					"name": "_to",
					"type": "address"
				},
				{
					"internalType": "contract Avatar",
					"name": "_avatar",
					"type": "address"
				}
			],
			"name": "sendEther",
			"outputs": [
				{
					"internalType": "bool",
					"name": "",
					"type": "bool"
				}
			],
			"stateMutability": "nonpayable",
			"type": "function"
		},
		{
			"inputs": [],
			"name": "stakingManagerAddress",
			"outputs": [
				{
					"internalType": "address",
					"name": "",
					"type": "address"
				}
			],
			"stateMutability": "view",
			"type": "function"
		},
		{
			"inputs": [
				{
					"internalType": "address",
					"name": "_scheme",
					"type": "address"
				},
				{
					"internalType": "address",
					"name": "_avatar",
					"type": "address"
				}
			],
			"name": "unregisterScheme",
			"outputs": [
				{
					"internalType": "bool",
					"name": "",
					"type": "bool"
				}
			],
			"stateMutability": "nonpayable",
			"type": "function"
		},
		{
			"inputs": [
				{
					"internalType": "address",
					"name": "_avatar",
					"type": "address"
				}
			],
			"name": "unregisterSelf",
			"outputs": [
				{
					"internalType": "bool",
					"name": "",
					"type": "bool"
				}
			],
			"stateMutability": "nonpayable",
			"type": "function"
		},
		{
			"inputs": [
				{
					"internalType": "address",
					"name": "_newController",
					"type": "address"
				},
				{
					"internalType": "contract Avatar",
					"name": "_avatar",
					"type": "address"
				}
			],
			"name": "upgradeController",
			"outputs": [
				{
					"internalType": "bool",
					"name": "",
					"type": "bool"
				}
			],
			"stateMutability": "nonpayable",
			"type": "function"
		},
		{
			"inputs": [
				{
					"internalType": "address",
					"name": "_newController",
					"type": "address"
				},
				{
					"internalType": "contract Avatar",
					"name": "_avatar",
					"type": "address"
				}
			],
			"name": "upgradeRewardsManager",
			"outputs": [
				{
					"internalType": "bool",
					"name": "",
					"type": "bool"
				}
			],
			"stateMutability": "nonpayable",
			"type": "function"
		},
		{
			"inputs": [
				{
					"internalType": "address",
					"name": "_stakingManager",
					"type": "address"
				}
			],
			"name": "upgradeStakingManager",
			"outputs": [
				{
					"internalType": "bool",
					"name": "",
					"type": "bool"
				}
			],
			"stateMutability": "nonpayable",
			"type": "function"
		},
		{
			"stateMutability": "payable",
			"type": "receive"
		}
	]
}