{
  "_format": "hh-sol-artifact-1",
  "contractName": "Statistics",
  "sourceName": "contracts/worksystems/Statistics.sol",
  "abi": [
    {
      "inputs": [
        {
          "internalType": "uint256",
          "name": "BaseTransactionCount_",
          "type": "uint256"
        }
      ],
      "stateMutability": "nonpayable",
      "type": "constructor"
    },
    {
      "anonymous": false,
      "inputs": [
        {
          "indexed": true,
          "internalType": "address",
          "name": "account",
          "type": "address"
        },
        {
          "indexed": false,
          "internalType": "bool",
          "name": "isWhitelisted",
          "type": "bool"
        }
      ],
      "name": "Monitored",
      "type": "event"
    },
    {
      "anonymous": false,
      "inputs": [
        {
          "indexed": true,
          "internalType": "address",
          "name": "previousOwner",
          "type": "address"
        },
        {
          "indexed": true,
          "internalType": "address",
          "name": "newOwner",
          "type": "address"
        }
      ],
      "name": "OwnershipTransferred",
      "type": "event"
    },
    {
      "anonymous": false,
      "inputs": [
        {
          "indexed": true,
          "internalType": "address",
          "name": "account",
          "type": "address"
        },
        {
          "indexed": false,
          "internalType": "bool",
          "name": "isWhitelisted",
          "type": "bool"
        }
      ],
      "name": "UnMonitored",
      "type": "event"
    },
    {
      "inputs": [],
      "name": "BaseTransactionCount",
      "outputs": [
        {
          "internalType": "uint256",
          "name": "",
          "type": "uint256"
        }
      ],
      "stateMutability": "view",
      "type": "function"
    },
    {
      "inputs": [
        {
          "internalType": "uint256",
          "name": "",
          "type": "uint256"
        }
      ],
      "name": "MonitoredSystemAddress",
      "outputs": [
        {
          "internalType": "address",
          "name": "",
          "type": "address"
        }
      ],
      "stateMutability": "view",
      "type": "function"
    },
    {
      "inputs": [],
      "name": "TotalActiveWorkerCount",
      "outputs": [
        {
          "internalType": "uint256",
          "name": "",
          "type": "uint256"
        }
      ],
      "stateMutability": "view",
      "type": "function"
    },
    {
      "inputs": [],
      "name": "TotalAvailableWorkerCount",
      "outputs": [
        {
          "internalType": "uint256",
          "name": "",
          "type": "uint256"
        }
      ],
      "stateMutability": "view",
      "type": "function"
    },
    {
      "inputs": [],
      "name": "TotalBusyWorkerCount",
      "outputs": [
        {
          "internalType": "uint256",
          "name": "",
          "type": "uint256"
        }
      ],
      "stateMutability": "view",
      "type": "function"
    },
    {
      "inputs": [],
      "name": "TotalTxCount",
      "outputs": [
        {
          "internalType": "uint256",
          "name": "",
          "type": "uint256"
        }
      ],
      "stateMutability": "view",
      "type": "function"
    },
    {
      "inputs": [
        {
          "internalType": "address",
          "name": "_address",
          "type": "address"
        }
      ],
      "name": "addAddress",
      "outputs": [],
      "stateMutability": "nonpayable",
      "type": "function"
    },
    {
      "inputs": [
        {
          "internalType": "address",
          "name": "_address",
          "type": "address"
        }
      ],
      "name": "isMonitoredAddress",
      "outputs": [
        {
          "internalType": "bool",
          "name": "",
          "type": "bool"
        }
      ],
      "stateMutability": "view",
      "type": "function"
    },
    {
      "inputs": [],
      "name": "owner",
      "outputs": [
        {
          "internalType": "address",
          "name": "",
          "type": "address"
        }
      ],
      "stateMutability": "view",
      "type": "function"
    },
    {
      "inputs": [
        {
          "internalType": "address",
          "name": "_address",
          "type": "address"
        }
      ],
      "name": "removeAddress",
      "outputs": [],
      "stateMutability": "nonpayable",
      "type": "function"
    },
    {
      "inputs": [],
      "name": "renounceOwnership",
      "outputs": [],
      "stateMutability": "nonpayable",
      "type": "function"
    },
    {
      "inputs": [
        {
          "internalType": "address",
          "name": "newOwner",
          "type": "address"
        }
      ],
      "name": "transferOwnership",
      "outputs": [],
      "stateMutability": "nonpayable",
      "type": "function"
    },
    {
      "inputs": [
        {
          "internalType": "uint256",
          "name": "BaseTransactionCountNew_",
          "type": "uint256"
        }
      ],
      "name": "updateBaseTransactionCount",
      "outputs": [],
      "stateMutability": "nonpayable",
      "type": "function"
    }
  ],
  "bytecode": "0x6080604052600060015534801561001557600080fd5b50604051610c42380380610c42833981016040819052610034916100a0565b61004461003f61004c565b610050565b6001556100b8565b3390565b600080546001600160a01b038381166001600160a01b0319831681178455604051919092169283917f8be0079c531659141344cd1fd0a4f28419497f9722a3daafe3b4186f6b6457e09190a35050565b6000602082840312156100b1578081fd5b5051919050565b610b7b806100c76000396000f3fe608060405234801561001057600080fd5b50600436106100cf5760003560e01c806360c68e091161008c578063951887881161006657806395188788146101625780639e4f8c4b14610182578063c1e6810c14610195578063f2fde38b1461019d576100cf565b806360c68e091461013d578063715018a6146101455780638da5cb5b1461014d576100cf565b8063013f8d24146100d457806338eada1c146100f25780633a9915b2146101075780634ba79dfe1461010f5780634c323963146101225780634c599b4a1461012a575b600080fd5b6100dc6101b0565b6040516100e99190610adc565b60405180910390f35b61010561010036600461095a565b61028f565b005b6100dc6103ab565b61010561011d36600461095a565b610481565b6100dc610663565b610105610138366004610988565b610739565b6100dc610746565b61010561081c565b610155610830565b6040516100e991906109b8565b61017561017036600461095a565b61083f565b6040516100e991906109cc565b610155610190366004610988565b61085d565b6100dc610887565b6101056101ab36600461095a565b61088d565b600154600090815b600354811015610289576000600382815481106101e557634e487b7160e01b600052603260045260246000fd5b600091825260209182902001546040805163f5ae7c7d60e01b815290516001600160a01b039092169350839263f5ae7c7d92600480840193829003018186803b15801561023157600080fd5b505afa158015610245573d6000803e3d6000fd5b505050506040513d601f19601f8201168201806040525081019061026991906109a0565b6102739084610ae5565b925050808061028190610b14565b9150506101b8565b50905090565b6102976108c7565b6001600160a01b03811660009081526002602052604090205460ff161515600114156102de5760405162461bcd60e51b81526004016102d590610a95565b60405180910390fd5b6001600160a01b0381166000818152600260205260408120805460ff19166001908117909155600380548083018255928190527fc2575a0e9e593c00f959f8c92f12db2869c3395a3b0502d05e2516446f71f85b90920180546001600160a01b031916909317909255546103529190610afd565b6001600160a01b038216600081815260046020526040908190209290925590517fc965bf1d4af49eca553da41f807b2aa90eee4c30fcb188b20c2f7e1925e066ad906103a0906001906109cc565b60405180910390a250565b600080805b600354811015610289576000600382815481106103dd57634e487b7160e01b600052603260045260246000fd5b60009182526020918290200154604080516353bf27f160e01b815290516001600160a01b03909216935083926353bf27f192600480840193829003018186803b15801561042957600080fd5b505afa15801561043d573d6000803e3d6000fd5b505050506040513d601f19601f8201168201806040525081019061046191906109a0565b61046b9084610ae5565b925050808061047990610b14565b9150506103b0565b6104896108c7565b6001600160a01b03811660009081526002602052604090205460ff166104c15760405162461bcd60e51b81526004016102d590610a1d565b6001600160a01b0381166000908152600260209081526040808320805460ff19169055600490915290208054633b9ac9ff9091556003805461050590600190610afd565b8154811061052357634e487b7160e01b600052603260045260246000fd5b600091825260209091200154600380546001600160a01b03909216918390811061055d57634e487b7160e01b600052603260045260246000fd5b9060005260206000200160006101000a8154816001600160a01b0302191690836001600160a01b031602179055508060046000600384815481106105b157634e487b7160e01b600052603260045260246000fd5b60009182526020808320909101546001600160a01b0316835282019290925260400190205560038054806105f557634e487b7160e01b600052603160045260246000fd5b6001900381819060005260206000200160006101000a8154906001600160a01b0302191690559055816001600160a01b03167f8b45e87e67a8255bbbdf97b0b8e4a50fe295cd0bcca586c1faf71331dffd2dfe600060405161065791906109cc565b60405180910390a25050565b600080805b6003548110156102895760006003828154811061069557634e487b7160e01b600052603260045260246000fd5b6000918252602091829020015460408051633b1d1cf960e11b815290516001600160a01b039092169350839263763a39f292600480840193829003018186803b1580156106e157600080fd5b505afa1580156106f5573d6000803e3d6000fd5b505050506040513d601f19601f8201168201806040525081019061071991906109a0565b6107239084610ae5565b925050808061073190610b14565b915050610668565b6107416108c7565b600155565b600080805b6003548110156102895760006003828154811061077857634e487b7160e01b600052603260045260246000fd5b6000918252602091829020015460408051633fca885160e11b815290516001600160a01b0390921693508392637f9510a292600480840193829003018186803b1580156107c457600080fd5b505afa1580156107d8573d6000803e3d6000fd5b505050506040513d601f19601f820116820180604052508101906107fc91906109a0565b6108069084610ae5565b925050808061081490610b14565b91505061074b565b6108246108c7565b61082e6000610906565b565b6000546001600160a01b031690565b6001600160a01b031660009081526002602052604090205460ff1690565b6003818154811061086d57600080fd5b6000918252602090912001546001600160a01b0316905081565b60015481565b6108956108c7565b6001600160a01b0381166108bb5760405162461bcd60e51b81526004016102d5906109d7565b6108c481610906565b50565b6108cf610956565b6001600160a01b03166108e0610830565b6001600160a01b03161461082e5760405162461bcd60e51b81526004016102d590610a60565b600080546001600160a01b038381166001600160a01b0319831681178455604051919092169283917f8be0079c531659141344cd1fd0a4f28419497f9722a3daafe3b4186f6b6457e09190a35050565b3390565b60006020828403121561096b578081fd5b81356001600160a01b0381168114610981578182fd5b9392505050565b600060208284031215610999578081fd5b5035919050565b6000602082840312156109b1578081fd5b5051919050565b6001600160a01b0391909116815260200190565b901515815260200190565b60208082526026908201527f4f776e61626c653a206e6577206f776e657220697320746865207a65726f206160408201526564647265737360d01b606082015260800190565b60208082526023908201527f41646472657373206d7573742062652077686974656c697374656420616c726560408201526261647960e81b606082015260800190565b6020808252818101527f4f776e61626c653a2063616c6c6572206973206e6f7420746865206f776e6572604082015260600190565b60208082526027908201527f41646472657373206d757374206e6f742062652077686974656c697374656420604082015266616c726561647960c81b606082015260800190565b90815260200190565b60008219821115610af857610af8610b2f565b500190565b600082821015610b0f57610b0f610b2f565b500390565b6000600019821415610b2857610b28610b2f565b5060010190565b634e487b7160e01b600052601160045260246000fdfea2646970667358221220c95ed4c849886130f409f67a290ded3092a25249175ce932f5ffb386464d399b64736f6c63430008000033",
  "linkReferences": {},
  "deployedLinkReferences": {}
}