{
	"Parameters_flat.sol": {
		"Parameters": {
			"abi": [
				{
					"anonymous": false,
					"inputs": [
						{
							"indexed": true,
							"internalType": "address",
							"name": "previousOwner",
							"type": "address"
						},
						{
							"indexed": true,
							"internalType": "address",
							"name": "newOwner",
							"type": "address"
						}
					],
					"name": "OwnershipTransferred",
					"type": "event"
				},
				{
					"inputs": [],
					"name": "ARCHIVING_COMMIT_ROUND_DURATION",
					"outputs": [
						{
							"internalType": "uint256",
							"name": "",
							"type": "uint256"
						}
					],
					"stateMutability": "view",
					"type": "function"
				},
				{
					"inputs": [],
					"name": "ARCHIVING_DATA_BATCH_SIZE",
					"outputs": [
						{
							"internalType": "uint256",
							"name": "",
							"type": "uint256"
						}
					],
					"stateMutability": "view",
					"type": "function"
				},
				{
					"inputs": [],
					"name": "ARCHIVING_MAX_CONSENSUS_WORKER_COUNT",
					"outputs": [
						{
							"internalType": "uint256",
							"name": "",
							"type": "uint256"
						}
					],
					"stateMutability": "view",
					"type": "function"
				},
				{
					"inputs": [],
					"name": "ARCHIVING_MIN_CONSENSUS_WORKER_COUNT",
					"outputs": [
						{
							"internalType": "uint256",
							"name": "",
							"type": "uint256"
						}
					],
					"stateMutability": "view",
					"type": "function"
				},
				{
					"inputs": [],
					"name": "ARCHIVING_MIN_REP_DataValidation",
					"outputs": [
						{
							"internalType": "uint256",
							"name": "",
							"type": "uint256"
						}
					],
					"stateMutability": "view",
					"type": "function"
				},
				{
					"inputs": [],
					"name": "ARCHIVING_MIN_REWARD_DataValidation",
					"outputs": [
						{
							"internalType": "uint256",
							"name": "",
							"type": "uint256"
						}
					],
					"stateMutability": "view",
					"type": "function"
				},
				{
					"inputs": [],
					"name": "ARCHIVING_MIN_STAKE",
					"outputs": [
						{
							"internalType": "uint256",
							"name": "",
							"type": "uint256"
						}
					],
					"stateMutability": "view",
					"type": "function"
				},
				{
					"inputs": [],
					"name": "ARCHIVING_REVEAL_ROUND_DURATION",
					"outputs": [
						{
							"internalType": "uint256",
							"name": "",
							"type": "uint256"
						}
					],
					"stateMutability": "view",
					"type": "function"
				},
				{
					"inputs": [],
					"name": "AddressManager",
					"outputs": [
						{
							"internalType": "address",
							"name": "",
							"type": "address"
						}
					],
					"stateMutability": "view",
					"type": "function"
				},
				{
					"inputs": [],
					"name": "ArchivingSystem",
					"outputs": [
						{
							"internalType": "address",
							"name": "",
							"type": "address"
						}
					],
					"stateMutability": "view",
					"type": "function"
				},
				{
					"inputs": [],
					"name": "COMPLIANCE_COMMIT_ROUND_DURATION",
					"outputs": [
						{
							"internalType": "uint256",
							"name": "",
							"type": "uint256"
						}
					],
					"stateMutability": "view",
					"type": "function"
				},
				{
					"inputs": [],
					"name": "COMPLIANCE_DATA_BATCH_SIZE",
					"outputs": [
						{
							"internalType": "uint256",
							"name": "",
							"type": "uint256"
						}
					],
					"stateMutability": "view",
					"type": "function"
				},
				{
					"inputs": [],
					"name": "COMPLIANCE_MAX_CONSENSUS_WORKER_COUNT",
					"outputs": [
						{
							"internalType": "uint256",
							"name": "",
							"type": "uint256"
						}
					],
					"stateMutability": "view",
					"type": "function"
				},
				{
					"inputs": [],
					"name": "COMPLIANCE_MIN_CONSENSUS_WORKER_COUNT",
					"outputs": [
						{
							"internalType": "uint256",
							"name": "",
							"type": "uint256"
						}
					],
					"stateMutability": "view",
					"type": "function"
				},
				{
					"inputs": [],
					"name": "COMPLIANCE_MIN_REP_DataValidation",
					"outputs": [
						{
							"internalType": "uint256",
							"name": "",
							"type": "uint256"
						}
					],
					"stateMutability": "view",
					"type": "function"
				},
				{
					"inputs": [],
					"name": "COMPLIANCE_MIN_REWARD_DataValidation",
					"outputs": [
						{
							"internalType": "uint256",
							"name": "",
							"type": "uint256"
						}
					],
					"stateMutability": "view",
					"type": "function"
				},
				{
					"inputs": [],
					"name": "COMPLIANCE_MIN_STAKE",
					"outputs": [
						{
							"internalType": "uint256",
							"name": "",
							"type": "uint256"
						}
					],
					"stateMutability": "view",
					"type": "function"
				},
				{
					"inputs": [],
					"name": "COMPLIANCE_REVEAL_ROUND_DURATION",
					"outputs": [
						{
							"internalType": "uint256",
							"name": "",
							"type": "uint256"
						}
					],
					"stateMutability": "view",
					"type": "function"
				},
				{
					"inputs": [],
					"name": "ComplianceSystem",
					"outputs": [
						{
							"internalType": "address",
							"name": "",
							"type": "address"
						}
					],
					"stateMutability": "view",
					"type": "function"
				},
				{
					"inputs": [],
					"name": "INDEXING_COMMIT_ROUND_DURATION",
					"outputs": [
						{
							"internalType": "uint256",
							"name": "",
							"type": "uint256"
						}
					],
					"stateMutability": "view",
					"type": "function"
				},
				{
					"inputs": [],
					"name": "INDEXING_DATA_BATCH_SIZE",
					"outputs": [
						{
							"internalType": "uint256",
							"name": "",
							"type": "uint256"
						}
					],
					"stateMutability": "view",
					"type": "function"
				},
				{
					"inputs": [],
					"name": "INDEXING_MAX_CONSENSUS_WORKER_COUNT",
					"outputs": [
						{
							"internalType": "uint256",
							"name": "",
							"type": "uint256"
						}
					],
					"stateMutability": "view",
					"type": "function"
				},
				{
					"inputs": [],
					"name": "INDEXING_MIN_CONSENSUS_WORKER_COUNT",
					"outputs": [
						{
							"internalType": "uint256",
							"name": "",
							"type": "uint256"
						}
					],
					"stateMutability": "view",
					"type": "function"
				},
				{
					"inputs": [],
					"name": "INDEXING_MIN_REP_DataValidation",
					"outputs": [
						{
							"internalType": "uint256",
							"name": "",
							"type": "uint256"
						}
					],
					"stateMutability": "view",
					"type": "function"
				},
				{
					"inputs": [],
					"name": "INDEXING_MIN_REWARD_DataValidation",
					"outputs": [
						{
							"internalType": "uint256",
							"name": "",
							"type": "uint256"
						}
					],
					"stateMutability": "view",
					"type": "function"
				},
				{
					"inputs": [],
					"name": "INDEXING_MIN_STAKE",
					"outputs": [
						{
							"internalType": "uint256",
							"name": "",
							"type": "uint256"
						}
					],
					"stateMutability": "view",
					"type": "function"
				},
				{
					"inputs": [],
					"name": "INDEXING_REVEAL_ROUND_DURATION",
					"outputs": [
						{
							"internalType": "uint256",
							"name": "",
							"type": "uint256"
						}
					],
					"stateMutability": "view",
					"type": "function"
				},
				{
					"inputs": [],
					"name": "IndexingSystem",
					"outputs": [
						{
							"internalType": "address",
							"name": "",
							"type": "address"
						}
					],
					"stateMutability": "view",
					"type": "function"
				},
				{
					"inputs": [],
					"name": "MAX_CONTRACT_STORED_BATCHES",
					"outputs": [
						{
							"internalType": "uint256",
							"name": "",
							"type": "uint256"
						}
					],
					"stateMutability": "view",
					"type": "function"
				},
				{
					"inputs": [],
					"name": "MAX_SUCCEEDING_NOVOTES",
					"outputs": [
						{
							"internalType": "uint256",
							"name": "",
							"type": "uint256"
						}
					],
					"stateMutability": "view",
					"type": "function"
				},
				{
					"inputs": [],
					"name": "MAX_TOTAL_WORKERS",
					"outputs": [
						{
							"internalType": "uint256",
							"name": "",
							"type": "uint256"
						}
					],
					"stateMutability": "view",
					"type": "function"
				},
				{
					"inputs": [],
					"name": "MAX_UPDATE_ITERATIONS",
					"outputs": [
						{
							"internalType": "uint256",
							"name": "",
							"type": "uint256"
						}
					],
					"stateMutability": "view",
					"type": "function"
				},
				{
					"inputs": [],
					"name": "NOVOTE_REGISTRATION_WAIT_DURATION",
					"outputs": [
						{
							"internalType": "uint256",
							"name": "",
							"type": "uint256"
						}
					],
					"stateMutability": "view",
					"type": "function"
				},
				{
					"inputs": [],
					"name": "RepManager",
					"outputs": [
						{
							"internalType": "address",
							"name": "",
							"type": "address"
						}
					],
					"stateMutability": "view",
					"type": "function"
				},
				{
					"inputs": [],
					"name": "Reputation",
					"outputs": [
						{
							"internalType": "address",
							"name": "",
							"type": "address"
						}
					],
					"stateMutability": "view",
					"type": "function"
				},
				{
					"inputs": [],
					"name": "RewardManager",
					"outputs": [
						{
							"internalType": "address",
							"name": "",
							"type": "address"
						}
					],
					"stateMutability": "view",
					"type": "function"
				},
				{
					"inputs": [],
					"name": "SPOT_COMMIT_ROUND_DURATION",
					"outputs": [
						{
							"internalType": "uint256",
							"name": "",
							"type": "uint256"
						}
					],
					"stateMutability": "view",
					"type": "function"
				},
				{
					"inputs": [],
					"name": "SPOT_DATA_BATCH_SIZE",
					"outputs": [
						{
							"internalType": "uint256",
							"name": "",
							"type": "uint256"
						}
					],
					"stateMutability": "view",
					"type": "function"
				},
				{
					"inputs": [],
					"name": "SPOT_GLOBAL_MAX_SPOT_PER_PERIOD",
					"outputs": [
						{
							"internalType": "uint256",
							"name": "",
							"type": "uint256"
						}
					],
					"stateMutability": "view",
					"type": "function"
				},
				{
					"inputs": [],
					"name": "SPOT_INTER_ALLOCATION_DURATION",
					"outputs": [
						{
							"internalType": "uint256",
							"name": "",
							"type": "uint256"
						}
					],
					"stateMutability": "view",
					"type": "function"
				},
				{
					"inputs": [],
					"name": "SPOT_MAX_CONSENSUS_WORKER_COUNT",
					"outputs": [
						{
							"internalType": "uint256",
							"name": "",
							"type": "uint256"
						}
					],
					"stateMutability": "view",
					"type": "function"
				},
				{
					"inputs": [],
					"name": "SPOT_MAX_SPOT_PER_USER_PER_PERIOD",
					"outputs": [
						{
							"internalType": "uint256",
							"name": "",
							"type": "uint256"
						}
					],
					"stateMutability": "view",
					"type": "function"
				},
				{
					"inputs": [],
					"name": "SPOT_MIN_CONSENSUS_WORKER_COUNT",
					"outputs": [
						{
							"internalType": "uint256",
							"name": "",
							"type": "uint256"
						}
					],
					"stateMutability": "view",
					"type": "function"
				},
				{
					"inputs": [],
					"name": "SPOT_MIN_REP_DataValidation",
					"outputs": [
						{
							"internalType": "uint256",
							"name": "",
							"type": "uint256"
						}
					],
					"stateMutability": "view",
					"type": "function"
				},
				{
					"inputs": [],
					"name": "SPOT_MIN_REP_SpotData",
					"outputs": [
						{
							"internalType": "uint256",
							"name": "",
							"type": "uint256"
						}
					],
					"stateMutability": "view",
					"type": "function"
				},
				{
					"inputs": [],
					"name": "SPOT_MIN_REWARD_DataValidation",
					"outputs": [
						{
							"internalType": "uint256",
							"name": "",
							"type": "uint256"
						}
					],
					"stateMutability": "view",
					"type": "function"
				},
				{
					"inputs": [],
					"name": "SPOT_MIN_REWARD_SpotData",
					"outputs": [
						{
							"internalType": "uint256",
							"name": "",
							"type": "uint256"
						}
					],
					"stateMutability": "view",
					"type": "function"
				},
				{
					"inputs": [],
					"name": "SPOT_MIN_STAKE",
					"outputs": [
						{
							"internalType": "uint256",
							"name": "",
							"type": "uint256"
						}
					],
					"stateMutability": "view",
					"type": "function"
				},
				{
					"inputs": [],
					"name": "SPOT_NB_TIMEFRAMES",
					"outputs": [
						{
							"internalType": "uint256",
							"name": "",
							"type": "uint256"
						}
					],
					"stateMutability": "view",
					"type": "function"
				},
				{
					"inputs": [],
					"name": "SPOT_REVEAL_ROUND_DURATION",
					"outputs": [
						{
							"internalType": "uint256",
							"name": "",
							"type": "uint256"
						}
					],
					"stateMutability": "view",
					"type": "function"
				},
				{
					"inputs": [],
					"name": "SPOT_TIMEFRAME_DURATION",
					"outputs": [
						{
							"internalType": "uint256",
							"name": "",
							"type": "uint256"
						}
					],
					"stateMutability": "view",
					"type": "function"
				},
				{
					"inputs": [],
					"name": "SPOT_TOGGLE_ENABLED",
					"outputs": [
						{
							"internalType": "bool",
							"name": "",
							"type": "bool"
						}
					],
					"stateMutability": "view",
					"type": "function"
				},
				{
					"inputs": [],
					"name": "SpottingSystem",
					"outputs": [
						{
							"internalType": "address",
							"name": "",
							"type": "address"
						}
					],
					"stateMutability": "view",
					"type": "function"
				},
				{
					"inputs": [],
					"name": "StakeManager",
					"outputs": [
						{
							"internalType": "address",
							"name": "",
							"type": "address"
						}
					],
					"stateMutability": "view",
					"type": "function"
				},
				{
					"inputs": [],
					"name": "VOTE_QUORUM",
					"outputs": [
						{
							"internalType": "uint256",
							"name": "",
							"type": "uint256"
						}
					],
					"stateMutability": "view",
					"type": "function"
				},
				{
					"inputs": [],
					"name": "destroyContract",
					"outputs": [],
					"stateMutability": "nonpayable",
					"type": "function"
				},
				{
					"inputs": [],
					"name": "getAddressManager",
					"outputs": [
						{
							"internalType": "address",
							"name": "",
							"type": "address"
						}
					],
					"stateMutability": "view",
					"type": "function"
				},
				{
					"inputs": [],
					"name": "getArchivingSystem",
					"outputs": [
						{
							"internalType": "address",
							"name": "",
							"type": "address"
						}
					],
					"stateMutability": "view",
					"type": "function"
				},
				{
					"inputs": [],
					"name": "getComplianceSystem",
					"outputs": [
						{
							"internalType": "address",
							"name": "",
							"type": "address"
						}
					],
					"stateMutability": "view",
					"type": "function"
				},
				{
					"inputs": [],
					"name": "getExordeToken",
					"outputs": [
						{
							"internalType": "address",
							"name": "",
							"type": "address"
						}
					],
					"stateMutability": "view",
					"type": "function"
				},
				{
					"inputs": [],
					"name": "getIndexingSystem",
					"outputs": [
						{
							"internalType": "address",
							"name": "",
							"type": "address"
						}
					],
					"stateMutability": "view",
					"type": "function"
				},
				{
					"inputs": [],
					"name": "getMaxTotalWorkers",
					"outputs": [
						{
							"internalType": "uint256",
							"name": "",
							"type": "uint256"
						}
					],
					"stateMutability": "view",
					"type": "function"
				},
				{
					"inputs": [],
					"name": "getRepManager",
					"outputs": [
						{
							"internalType": "address",
							"name": "",
							"type": "address"
						}
					],
					"stateMutability": "view",
					"type": "function"
				},
				{
					"inputs": [],
					"name": "getReputationSystem",
					"outputs": [
						{
							"internalType": "address",
							"name": "",
							"type": "address"
						}
					],
					"stateMutability": "view",
					"type": "function"
				},
				{
					"inputs": [],
					"name": "getRewardManager",
					"outputs": [
						{
							"internalType": "address",
							"name": "",
							"type": "address"
						}
					],
					"stateMutability": "view",
					"type": "function"
				},
				{
					"inputs": [],
					"name": "getSpottingSystem",
					"outputs": [
						{
							"internalType": "address",
							"name": "",
							"type": "address"
						}
					],
					"stateMutability": "view",
					"type": "function"
				},
				{
					"inputs": [],
					"name": "getStakeManager",
					"outputs": [
						{
							"internalType": "address",
							"name": "",
							"type": "address"
						}
					],
					"stateMutability": "view",
					"type": "function"
				},
				{
					"inputs": [],
					"name": "getVoteQuorum",
					"outputs": [
						{
							"internalType": "uint256",
							"name": "",
							"type": "uint256"
						}
					],
					"stateMutability": "view",
					"type": "function"
				},
				{
					"inputs": [],
					"name": "get_ARCHIVING_COMMIT_ROUND_DURATION",
					"outputs": [
						{
							"internalType": "uint256",
							"name": "",
							"type": "uint256"
						}
					],
					"stateMutability": "view",
					"type": "function"
				},
				{
					"inputs": [],
					"name": "get_ARCHIVING_DATA_BATCH_SIZE",
					"outputs": [
						{
							"internalType": "uint256",
							"name": "",
							"type": "uint256"
						}
					],
					"stateMutability": "view",
					"type": "function"
				},
				{
					"inputs": [],
					"name": "get_ARCHIVING_MAX_CONSENSUS_WORKER_COUNT",
					"outputs": [
						{
							"internalType": "uint256",
							"name": "",
							"type": "uint256"
						}
					],
					"stateMutability": "view",
					"type": "function"
				},
				{
					"inputs": [],
					"name": "get_ARCHIVING_MIN_CONSENSUS_WORKER_COUNT",
					"outputs": [
						{
							"internalType": "uint256",
							"name": "",
							"type": "uint256"
						}
					],
					"stateMutability": "view",
					"type": "function"
				},
				{
					"inputs": [],
					"name": "get_ARCHIVING_MIN_REP_DataValidation",
					"outputs": [
						{
							"internalType": "uint256",
							"name": "",
							"type": "uint256"
						}
					],
					"stateMutability": "view",
					"type": "function"
				},
				{
					"inputs": [],
					"name": "get_ARCHIVING_MIN_REWARD_DataValidation",
					"outputs": [
						{
							"internalType": "uint256",
							"name": "",
							"type": "uint256"
						}
					],
					"stateMutability": "view",
					"type": "function"
				},
				{
					"inputs": [],
					"name": "get_ARCHIVING_MIN_STAKE",
					"outputs": [
						{
							"internalType": "uint256",
							"name": "",
							"type": "uint256"
						}
					],
					"stateMutability": "view",
					"type": "function"
				},
				{
					"inputs": [],
					"name": "get_ARCHIVING_REVEAL_ROUND_DURATION",
					"outputs": [
						{
							"internalType": "uint256",
							"name": "",
							"type": "uint256"
						}
					],
					"stateMutability": "view",
					"type": "function"
				},
				{
					"inputs": [],
					"name": "get_COMPLIANCE_COMMIT_ROUND_DURATION",
					"outputs": [
						{
							"internalType": "uint256",
							"name": "",
							"type": "uint256"
						}
					],
					"stateMutability": "view",
					"type": "function"
				},
				{
					"inputs": [],
					"name": "get_COMPLIANCE_DATA_BATCH_SIZE",
					"outputs": [
						{
							"internalType": "uint256",
							"name": "",
							"type": "uint256"
						}
					],
					"stateMutability": "view",
					"type": "function"
				},
				{
					"inputs": [],
					"name": "get_COMPLIANCE_MAX_CONSENSUS_WORKER_COUNT",
					"outputs": [
						{
							"internalType": "uint256",
							"name": "",
							"type": "uint256"
						}
					],
					"stateMutability": "view",
					"type": "function"
				},
				{
					"inputs": [],
					"name": "get_COMPLIANCE_MIN_CONSENSUS_WORKER_COUNT",
					"outputs": [
						{
							"internalType": "uint256",
							"name": "",
							"type": "uint256"
						}
					],
					"stateMutability": "view",
					"type": "function"
				},
				{
					"inputs": [],
					"name": "get_COMPLIANCE_MIN_REP_DataValidation",
					"outputs": [
						{
							"internalType": "uint256",
							"name": "",
							"type": "uint256"
						}
					],
					"stateMutability": "view",
					"type": "function"
				},
				{
					"inputs": [],
					"name": "get_COMPLIANCE_MIN_REWARD_DataValidation",
					"outputs": [
						{
							"internalType": "uint256",
							"name": "",
							"type": "uint256"
						}
					],
					"stateMutability": "view",
					"type": "function"
				},
				{
					"inputs": [],
					"name": "get_COMPLIANCE_MIN_STAKE",
					"outputs": [
						{
							"internalType": "uint256",
							"name": "",
							"type": "uint256"
						}
					],
					"stateMutability": "view",
					"type": "function"
				},
				{
					"inputs": [],
					"name": "get_COMPLIANCE_REVEAL_ROUND_DURATION",
					"outputs": [
						{
							"internalType": "uint256",
							"name": "",
							"type": "uint256"
						}
					],
					"stateMutability": "view",
					"type": "function"
				},
				{
					"inputs": [],
					"name": "get_INDEXING_COMMIT_ROUND_DURATION",
					"outputs": [
						{
							"internalType": "uint256",
							"name": "",
							"type": "uint256"
						}
					],
					"stateMutability": "view",
					"type": "function"
				},
				{
					"inputs": [],
					"name": "get_INDEXING_DATA_BATCH_SIZE",
					"outputs": [
						{
							"internalType": "uint256",
							"name": "",
							"type": "uint256"
						}
					],
					"stateMutability": "view",
					"type": "function"
				},
				{
					"inputs": [],
					"name": "get_INDEXING_MAX_CONSENSUS_WORKER_COUNT",
					"outputs": [
						{
							"internalType": "uint256",
							"name": "",
							"type": "uint256"
						}
					],
					"stateMutability": "view",
					"type": "function"
				},
				{
					"inputs": [],
					"name": "get_INDEXING_MIN_CONSENSUS_WORKER_COUNT",
					"outputs": [
						{
							"internalType": "uint256",
							"name": "",
							"type": "uint256"
						}
					],
					"stateMutability": "view",
					"type": "function"
				},
				{
					"inputs": [],
					"name": "get_INDEXING_MIN_REP_DataValidation",
					"outputs": [
						{
							"internalType": "uint256",
							"name": "",
							"type": "uint256"
						}
					],
					"stateMutability": "view",
					"type": "function"
				},
				{
					"inputs": [],
					"name": "get_INDEXING_MIN_REWARD_DataValidation",
					"outputs": [
						{
							"internalType": "uint256",
							"name": "",
							"type": "uint256"
						}
					],
					"stateMutability": "view",
					"type": "function"
				},
				{
					"inputs": [],
					"name": "get_INDEXING_MIN_STAKE",
					"outputs": [
						{
							"internalType": "uint256",
							"name": "",
							"type": "uint256"
						}
					],
					"stateMutability": "view",
					"type": "function"
				},
				{
					"inputs": [],
					"name": "get_INDEXING_REVEAL_ROUND_DURATION",
					"outputs": [
						{
							"internalType": "uint256",
							"name": "",
							"type": "uint256"
						}
					],
					"stateMutability": "view",
					"type": "function"
				},
				{
					"inputs": [],
					"name": "get_MAX_CONTRACT_STORED_BATCHES",
					"outputs": [
						{
							"internalType": "uint256",
							"name": "",
							"type": "uint256"
						}
					],
					"stateMutability": "view",
					"type": "function"
				},
				{
					"inputs": [],
					"name": "get_MAX_SUCCEEDING_NOVOTES",
					"outputs": [
						{
							"internalType": "uint256",
							"name": "",
							"type": "uint256"
						}
					],
					"stateMutability": "view",
					"type": "function"
				},
				{
					"inputs": [],
					"name": "get_MAX_UPDATE_ITERATIONS",
					"outputs": [
						{
							"internalType": "uint256",
							"name": "",
							"type": "uint256"
						}
					],
					"stateMutability": "view",
					"type": "function"
				},
				{
					"inputs": [],
					"name": "get_NOVOTE_REGISTRATION_WAIT_DURATION",
					"outputs": [
						{
							"internalType": "uint256",
							"name": "",
							"type": "uint256"
						}
					],
					"stateMutability": "view",
					"type": "function"
				},
				{
					"inputs": [],
					"name": "get_SPOT_COMMIT_ROUND_DURATION",
					"outputs": [
						{
							"internalType": "uint256",
							"name": "",
							"type": "uint256"
						}
					],
					"stateMutability": "view",
					"type": "function"
				},
				{
					"inputs": [],
					"name": "get_SPOT_DATA_BATCH_SIZE",
					"outputs": [
						{
							"internalType": "uint256",
							"name": "",
							"type": "uint256"
						}
					],
					"stateMutability": "view",
					"type": "function"
				},
				{
					"inputs": [],
					"name": "get_SPOT_GLOBAL_MAX_SPOT_PER_PERIOD",
					"outputs": [
						{
							"internalType": "uint256",
							"name": "",
							"type": "uint256"
						}
					],
					"stateMutability": "view",
					"type": "function"
				},
				{
					"inputs": [],
					"name": "get_SPOT_INTER_ALLOCATION_DURATION",
					"outputs": [
						{
							"internalType": "uint256",
							"name": "",
							"type": "uint256"
						}
					],
					"stateMutability": "view",
					"type": "function"
				},
				{
					"inputs": [],
					"name": "get_SPOT_MAX_CONSENSUS_WORKER_COUNT",
					"outputs": [
						{
							"internalType": "uint256",
							"name": "",
							"type": "uint256"
						}
					],
					"stateMutability": "view",
					"type": "function"
				},
				{
					"inputs": [],
					"name": "get_SPOT_MAX_SPOT_PER_USER_PER_PERIOD",
					"outputs": [
						{
							"internalType": "uint256",
							"name": "",
							"type": "uint256"
						}
					],
					"stateMutability": "view",
					"type": "function"
				},
				{
					"inputs": [],
					"name": "get_SPOT_MIN_CONSENSUS_WORKER_COUNT",
					"outputs": [
						{
							"internalType": "uint256",
							"name": "",
							"type": "uint256"
						}
					],
					"stateMutability": "view",
					"type": "function"
				},
				{
					"inputs": [],
					"name": "get_SPOT_MIN_REP_DataValidation",
					"outputs": [
						{
							"internalType": "uint256",
							"name": "",
							"type": "uint256"
						}
					],
					"stateMutability": "view",
					"type": "function"
				},
				{
					"inputs": [],
					"name": "get_SPOT_MIN_REP_SpotData",
					"outputs": [
						{
							"internalType": "uint256",
							"name": "",
							"type": "uint256"
						}
					],
					"stateMutability": "view",
					"type": "function"
				},
				{
					"inputs": [],
					"name": "get_SPOT_MIN_REWARD_DataValidation",
					"outputs": [
						{
							"internalType": "uint256",
							"name": "",
							"type": "uint256"
						}
					],
					"stateMutability": "view",
					"type": "function"
				},
				{
					"inputs": [],
					"name": "get_SPOT_MIN_REWARD_SpotData",
					"outputs": [
						{
							"internalType": "uint256",
							"name": "",
							"type": "uint256"
						}
					],
					"stateMutability": "view",
					"type": "function"
				},
				{
					"inputs": [],
					"name": "get_SPOT_MIN_STAKE",
					"outputs": [
						{
							"internalType": "uint256",
							"name": "",
							"type": "uint256"
						}
					],
					"stateMutability": "view",
					"type": "function"
				},
				{
					"inputs": [],
					"name": "get_SPOT_NB_TIMEFRAMES",
					"outputs": [
						{
							"internalType": "uint256",
							"name": "",
							"type": "uint256"
						}
					],
					"stateMutability": "view",
					"type": "function"
				},
				{
					"inputs": [],
					"name": "get_SPOT_REVEAL_ROUND_DURATION",
					"outputs": [
						{
							"internalType": "uint256",
							"name": "",
							"type": "uint256"
						}
					],
					"stateMutability": "view",
					"type": "function"
				},
				{
					"inputs": [],
					"name": "get_SPOT_TIMEFRAME_DURATION",
					"outputs": [
						{
							"internalType": "uint256",
							"name": "",
							"type": "uint256"
						}
					],
					"stateMutability": "view",
					"type": "function"
				},
				{
					"inputs": [],
					"name": "get_SPOT_TOGGLE_ENABLED",
					"outputs": [
						{
							"internalType": "bool",
							"name": "",
							"type": "bool"
						}
					],
					"stateMutability": "view",
					"type": "function"
				},
				{
					"inputs": [],
					"name": "getsFuelSystem",
					"outputs": [
						{
							"internalType": "address",
							"name": "",
							"type": "address"
						}
					],
					"stateMutability": "view",
					"type": "function"
				},
				{
					"inputs": [],
					"name": "owner",
					"outputs": [
						{
							"internalType": "address",
							"name": "",
							"type": "address"
						}
					],
					"stateMutability": "view",
					"type": "function"
				},
				{
					"inputs": [],
					"name": "renounceOwnership",
					"outputs": [],
					"stateMutability": "nonpayable",
					"type": "function"
				},
				{
					"inputs": [],
					"name": "sFuel",
					"outputs": [
						{
							"internalType": "address",
							"name": "",
							"type": "address"
						}
					],
					"stateMutability": "view",
					"type": "function"
				},
				{
					"inputs": [],
					"name": "token",
					"outputs": [
						{
							"internalType": "address",
							"name": "",
							"type": "address"
						}
					],
					"stateMutability": "view",
					"type": "function"
				},
				{
					"inputs": [
						{
							"internalType": "address",
							"name": "newOwner",
							"type": "address"
						}
					],
					"name": "transferOwnership",
					"outputs": [],
					"stateMutability": "nonpayable",
					"type": "function"
				},
				{
					"inputs": [
						{
							"internalType": "uint256",
							"name": "ParameterIndex",
							"type": "uint256"
						},
						{
							"internalType": "uint256",
							"name": "uintValue",
							"type": "uint256"
						}
					],
					"name": "updateArchivingParameters",
					"outputs": [],
					"stateMutability": "nonpayable",
					"type": "function"
				},
				{
					"inputs": [
						{
							"internalType": "uint256",
							"name": "ParameterIndex",
							"type": "uint256"
						},
						{
							"internalType": "uint256",
							"name": "uintValue",
							"type": "uint256"
						}
					],
					"name": "updateComplianceParameters",
					"outputs": [],
					"stateMutability": "nonpayable",
					"type": "function"
				},
				{
					"inputs": [
						{
							"internalType": "address",
							"name": "StakeManager_",
							"type": "address"
						},
						{
							"internalType": "address",
							"name": "RepManager_",
							"type": "address"
						},
						{
							"internalType": "address",
							"name": "Reputation_",
							"type": "address"
						},
						{
							"internalType": "address",
							"name": "RewardManager_",
							"type": "address"
						},
						{
							"internalType": "address",
							"name": "AddressManager_",
							"type": "address"
						},
						{
							"internalType": "address",
							"name": "SpottingSystem_",
							"type": "address"
						},
						{
							"internalType": "address",
							"name": "ComplianceSystem_",
							"type": "address"
						},
						{
							"internalType": "address",
							"name": "IndexingSystem_",
							"type": "address"
						},
						{
							"internalType": "address",
							"name": "ArchivingSystem_",
							"type": "address"
						},
						{
							"internalType": "address",
							"name": "sFuel_",
							"type": "address"
						},
						{
							"internalType": "address",
							"name": "token_",
							"type": "address"
						}
					],
					"name": "updateContractsAddresses",
					"outputs": [],
					"stateMutability": "nonpayable",
					"type": "function"
				},
				{
					"inputs": [
						{
							"internalType": "uint256",
							"name": "ParameterIndex",
							"type": "uint256"
						},
						{
							"internalType": "uint256",
							"name": "uintValue",
							"type": "uint256"
						}
					],
					"name": "updateGeneralParameters",
					"outputs": [],
					"stateMutability": "nonpayable",
					"type": "function"
				},
				{
					"inputs": [
						{
							"internalType": "uint256",
							"name": "ParameterIndex",
							"type": "uint256"
						},
						{
							"internalType": "uint256",
							"name": "uintValue",
							"type": "uint256"
						}
					],
					"name": "updateIndexingParameters",
					"outputs": [],
					"stateMutability": "nonpayable",
					"type": "function"
				},
				{
					"inputs": [
						{
							"internalType": "uint256",
							"name": "ParameterIndex",
							"type": "uint256"
						},
						{
							"internalType": "uint256",
							"name": "uintValue",
							"type": "uint256"
						},
						{
							"internalType": "bool",
							"name": "boolValue",
							"type": "bool"
						}
					],
					"name": "updateSpottingParameters",
					"outputs": [],
					"stateMutability": "nonpayable",
					"type": "function"
				}
			],
			"devdoc": {
				"author": "Mathias Dail",
				"kind": "dev",
				"methods": {
					"owner()": {
						"details": "Returns the address of the current owner."
					},
					"renounceOwnership()": {
						"details": "Leaves the contract without owner. It will not be possible to call `onlyOwner` functions anymore. Can only be called by the current owner. NOTE: Renouncing ownership will leave the contract without an owner, thereby removing any functionality that is only available to the owner."
					},
					"transferOwnership(address)": {
						"details": "Transfers ownership of the contract to a new account (`newOwner`). Can only be called by the current owner."
					}
				},
				"title": "Parameters  v0.1",
				"version": 1
			},
			"evm": {
				"assembly": "    /* \"Parameters_flat.sol\":22057:44543  contract Parameters is Ownable {... */\n  mstore(0x40, 0x80)\n    /* \"Parameters_flat.sol\":22197:22201  1000 */\n  0x03e8\n    /* \"Parameters_flat.sol\":22162:22201  uint256 public MAX_TOTAL_WORKERS = 1000 */\n  0x01\n  sstore\n    /* \"Parameters_flat.sol\":22237:22239  50 */\n  0x32\n    /* \"Parameters_flat.sol\":22207:22239  uint256 public VOTE_QUORUM  = 50 */\n  0x02\n  sstore\n    /* \"Parameters_flat.sol\":22288:22290  50 */\n  0x32\n    /* \"Parameters_flat.sol\":22248:22290  uint256 public MAX_UPDATE_ITERATIONS  = 50 */\n  0x03\n  sstore\n    /* \"Parameters_flat.sol\":22345:22351  200000 */\n  0x030d40\n    /* \"Parameters_flat.sol\":22299:22351  uint256 public MAX_CONTRACT_STORED_BATCHES  = 200000 */\n  0x04\n  sstore\n    /* \"Parameters_flat.sol\":22447:22448  1 */\n  0x01\n    /* \"Parameters_flat.sol\":22409:22448  uint256 public SPOT_DATA_BATCH_SIZE = 1 */\n  0x05\n  sstore\n    /* \"Parameters_flat.sol\":22486:22501  25 * (10 ** 18) */\n  0x015af1d78b58c40000\n    /* \"Parameters_flat.sol\":22454:22501  uint256 public SPOT_MIN_STAKE = 25 * (10 ** 18) */\n  0x06\n  sstore\n    /* \"Parameters_flat.sol\":22558:22559  2 */\n  0x02\n    /* \"Parameters_flat.sol\":22508:22559  uint256 public SPOT_MIN_CONSENSUS_WORKER_COUNT  = 2 */\n  0x07\n  sstore\n    /* \"Parameters_flat.sol\":22618:22619  4 */\n  0x04\n    /* \"Parameters_flat.sol\":22568:22619  uint256 public SPOT_MAX_CONSENSUS_WORKER_COUNT  = 4 */\n  0x08\n  sstore\n    /* \"Parameters_flat.sol\":22669:22672  180 */\n  0xb4\n    /* \"Parameters_flat.sol\":22625:22672  uint256 public SPOT_COMMIT_ROUND_DURATION = 180 */\n  0x09\n  sstore\n    /* \"Parameters_flat.sol\":22722:22725  180 */\n  0xb4\n    /* \"Parameters_flat.sol\":22678:22725  uint256 public SPOT_REVEAL_ROUND_DURATION = 180 */\n  0x0a\n  sstore\n    /* \"Parameters_flat.sol\":22780:22794  1 * (10 ** 15) */\n  0x038d7ea4c68000\n    /* \"Parameters_flat.sol\":22738:22794  uint256 public SPOT_MIN_REWARD_SpotData = 1 * (10 ** 15) */\n  0x0b\n  sstore\n    /* \"Parameters_flat.sol\":22840:22855  10 * (10 ** 15) */\n  0x2386f26fc10000\n    /* \"Parameters_flat.sol\":22800:22855  uint256 public SPOT_MIN_REP_SpotData  = 10 * (10 ** 15) */\n  0x0c\n  sstore\n    /* \"Parameters_flat.sol\":22909:22923  1 * (10 ** 15) */\n  0x038d7ea4c68000\n    /* \"Parameters_flat.sol\":22861:22923  uint256 public SPOT_MIN_REWARD_DataValidation = 1 * (10 ** 15) */\n  0x0d\n  sstore\n    /* \"Parameters_flat.sol\":22975:22990  10 * (10 ** 15) */\n  0x2386f26fc10000\n    /* \"Parameters_flat.sol\":22929:22990  uint256 public SPOT_MIN_REP_DataValidation  = 10 * (10 ** 15) */\n  0x0e\n  sstore\n    /* \"Parameters_flat.sol\":23073:23076  400 */\n  0x0190\n    /* \"Parameters_flat.sol\":23025:23076  uint256 public SPOT_INTER_ALLOCATION_DURATION = 400 */\n  0x0f\n  sstore\n    /* \"Parameters_flat.sol\":23116:23120  true */\n  0x01\n    /* \"Parameters_flat.sol\":23082:23120  bool public SPOT_TOGGLE_ENABLED = true */\n  0x10\n  exp(0x0100, 0x00)\n  dup2\n  sload\n  dup2\n  0xff\n  mul\n  not\n  and\n  swap1\n  dup4\n  iszero\n  iszero\n  mul\n  or\n  swap1\n  sstore\n  pop\n    /* \"Parameters_flat.sol\":23168:23173  15*60 */\n  0x0384\n    /* \"Parameters_flat.sol\":23126:23173  uint256 public SPOT_TIMEFRAME_DURATION  = 15*60 */\n  0x11\n  sstore\n    /* \"Parameters_flat.sol\":23242:23246  1000 */\n  0x03e8\n    /* \"Parameters_flat.sol\":23192:23246  uint256 public SPOT_GLOBAL_MAX_SPOT_PER_PERIOD  = 1000 */\n  0x12\n  sstore\n    /* \"Parameters_flat.sol\":23304:23306  25 */\n  0x19\n    /* \"Parameters_flat.sol\":23252:23306  uint256 public SPOT_MAX_SPOT_PER_USER_PER_PERIOD  = 25 */\n  0x13\n  sstore\n    /* \"Parameters_flat.sol\":23348:23349  4 */\n  0x04\n    /* \"Parameters_flat.sol\":23312:23349  uint256 public SPOT_NB_TIMEFRAMES = 4 */\n  0x14\n  sstore\n    /* \"Parameters_flat.sol\":23396:23397  3 */\n  0x03\n    /* \"Parameters_flat.sol\":23355:23397  uint256 public MAX_SUCCEEDING_NOVOTES  = 3 */\n  0x15\n  sstore\n    /* \"Parameters_flat.sol\":23459:23463  3600 */\n  0x0e10\n    /* \"Parameters_flat.sol\":23407:23463  uint256 public NOVOTE_REGISTRATION_WAIT_DURATION  = 3600 */\n  0x16\n  sstore\n    /* \"Parameters_flat.sol\":23581:23582  1 */\n  0x01\n    /* \"Parameters_flat.sol\":23537:23582  uint256 public COMPLIANCE_DATA_BATCH_SIZE = 1 */\n  0x17\n  sstore\n    /* \"Parameters_flat.sol\":23645:23646  2 */\n  0x02\n    /* \"Parameters_flat.sol\":23589:23646  uint256 public COMPLIANCE_MIN_CONSENSUS_WORKER_COUNT  = 2 */\n  0x18\n  sstore\n    /* \"Parameters_flat.sol\":23709:23710  4 */\n  0x04\n    /* \"Parameters_flat.sol\":23653:23710  uint256 public COMPLIANCE_MAX_CONSENSUS_WORKER_COUNT  = 4 */\n  0x19\n  sstore\n    /* \"Parameters_flat.sol\":23757:23772  25 * (10 ** 18) */\n  0x015af1d78b58c40000\n    /* \"Parameters_flat.sol\":23719:23772  uint256 public COMPLIANCE_MIN_STAKE = 25 * (10 ** 18) */\n  0x1a\n  sstore\n    /* \"Parameters_flat.sol\":23829:23832  400 */\n  0x0190\n    /* \"Parameters_flat.sol\":23779:23832  uint256 public COMPLIANCE_COMMIT_ROUND_DURATION = 400 */\n  0x1b\n  sstore\n    /* \"Parameters_flat.sol\":23888:23891  180 */\n  0xb4\n    /* \"Parameters_flat.sol\":23838:23891  uint256 public COMPLIANCE_REVEAL_ROUND_DURATION = 180 */\n  0x1c\n  sstore\n    /* \"Parameters_flat.sol\":23953:23967  1 * (10 ** 15) */\n  0x038d7ea4c68000\n    /* \"Parameters_flat.sol\":23899:23967  uint256 public COMPLIANCE_MIN_REWARD_DataValidation = 1 * (10 ** 15) */\n  0x1d\n  sstore\n    /* \"Parameters_flat.sol\":24025:24040  10 * (10 ** 15) */\n  0x2386f26fc10000\n    /* \"Parameters_flat.sol\":23973:24040  uint256 public COMPLIANCE_MIN_REP_DataValidation  = 10 * (10 ** 15) */\n  0x1e\n  sstore\n    /* \"Parameters_flat.sol\":24139:24140  1 */\n  0x01\n    /* \"Parameters_flat.sol\":24097:24140  uint256 public INDEXING_DATA_BATCH_SIZE = 1 */\n  0x1f\n  sstore\n    /* \"Parameters_flat.sol\":24201:24202  2 */\n  0x02\n    /* \"Parameters_flat.sol\":24147:24202  uint256 public INDEXING_MIN_CONSENSUS_WORKER_COUNT  = 2 */\n  0x20\n  sstore\n    /* \"Parameters_flat.sol\":24263:24264  4 */\n  0x04\n    /* \"Parameters_flat.sol\":24209:24264  uint256 public INDEXING_MAX_CONSENSUS_WORKER_COUNT  = 4 */\n  0x21\n  sstore\n    /* \"Parameters_flat.sol\":24309:24324  25 * (10 ** 18) */\n  0x015af1d78b58c40000\n    /* \"Parameters_flat.sol\":24273:24324  uint256 public INDEXING_MIN_STAKE = 25 * (10 ** 18) */\n  0x22\n  sstore\n    /* \"Parameters_flat.sol\":24379:24382  400 */\n  0x0190\n    /* \"Parameters_flat.sol\":24331:24382  uint256 public INDEXING_COMMIT_ROUND_DURATION = 400 */\n  0x23\n  sstore\n    /* \"Parameters_flat.sol\":24436:24439  180 */\n  0xb4\n    /* \"Parameters_flat.sol\":24388:24439  uint256 public INDEXING_REVEAL_ROUND_DURATION = 180 */\n  0x24\n  sstore\n    /* \"Parameters_flat.sol\":24499:24513  1 * (10 ** 15) */\n  0x038d7ea4c68000\n    /* \"Parameters_flat.sol\":24447:24513  uint256 public INDEXING_MIN_REWARD_DataValidation = 1 * (10 ** 15) */\n  0x25\n  sstore\n    /* \"Parameters_flat.sol\":24569:24584  10 * (10 ** 15) */\n  0x2386f26fc10000\n    /* \"Parameters_flat.sol\":24519:24584  uint256 public INDEXING_MIN_REP_DataValidation  = 10 * (10 ** 15) */\n  0x26\n  sstore\n    /* \"Parameters_flat.sol\":24682:24683  1 */\n  0x01\n    /* \"Parameters_flat.sol\":24639:24683  uint256 public ARCHIVING_DATA_BATCH_SIZE = 1 */\n  0x27\n  sstore\n    /* \"Parameters_flat.sol\":24745:24746  2 */\n  0x02\n    /* \"Parameters_flat.sol\":24690:24746  uint256 public ARCHIVING_MIN_CONSENSUS_WORKER_COUNT  = 2 */\n  0x28\n  sstore\n    /* \"Parameters_flat.sol\":24808:24809  4 */\n  0x04\n    /* \"Parameters_flat.sol\":24753:24809  uint256 public ARCHIVING_MAX_CONSENSUS_WORKER_COUNT  = 4 */\n  0x29\n  sstore\n    /* \"Parameters_flat.sol\":24855:24870  25 * (10 ** 18) */\n  0x015af1d78b58c40000\n    /* \"Parameters_flat.sol\":24818:24870  uint256 public ARCHIVING_MIN_STAKE = 25 * (10 ** 18) */\n  0x2a\n  sstore\n    /* \"Parameters_flat.sol\":24926:24929  400 */\n  0x0190\n    /* \"Parameters_flat.sol\":24877:24929  uint256 public ARCHIVING_COMMIT_ROUND_DURATION = 400 */\n  0x2b\n  sstore\n    /* \"Parameters_flat.sol\":24984:24987  180 */\n  0xb4\n    /* \"Parameters_flat.sol\":24935:24987  uint256 public ARCHIVING_REVEAL_ROUND_DURATION = 180 */\n  0x2c\n  sstore\n    /* \"Parameters_flat.sol\":25048:25062  1 * (10 ** 15) */\n  0x038d7ea4c68000\n    /* \"Parameters_flat.sol\":24995:25062  uint256 public ARCHIVING_MIN_REWARD_DataValidation = 1 * (10 ** 15) */\n  0x2d\n  sstore\n    /* \"Parameters_flat.sol\":25119:25134  10 * (10 ** 15) */\n  0x2386f26fc10000\n    /* \"Parameters_flat.sol\":25068:25134  uint256 public ARCHIVING_MIN_REP_DataValidation  = 10 * (10 ** 15) */\n  0x2e\n  sstore\n    /* \"Parameters_flat.sol\":22057:44543  contract Parameters is Ownable {... */\n  callvalue\n  dup1\n  iszero\n  tag_1\n  jumpi\n  0x00\n  dup1\n  revert\ntag_1:\n  pop\n    /* \"Parameters_flat.sol\":1794:1826  _transferOwnership(_msgSender()) */\n  tag_4\n    /* \"Parameters_flat.sol\":1813:1825  _msgSender() */\n  tag_5\n    /* \"Parameters_flat.sol\":1813:1823  _msgSender */\n  tag_6\n    /* \"Parameters_flat.sol\":1813:1825  _msgSender() */\n  jump\t// in\ntag_5:\n    /* \"Parameters_flat.sol\":1794:1812  _transferOwnership */\n  tag_7\n    /* \"Parameters_flat.sol\":1794:1826  _transferOwnership(_msgSender()) */\n  jump\t// in\ntag_4:\n    /* \"Parameters_flat.sol\":22057:44543  contract Parameters is Ownable {... */\n  jump(tag_8)\n    /* \"Parameters_flat.sol\":662:758  function _msgSender() internal view virtual returns (address) {... */\ntag_6:\n    /* \"Parameters_flat.sol\":741:751  msg.sender */\n  caller\n    /* \"Parameters_flat.sol\":662:758  function _msgSender() internal view virtual returns (address) {... */\n  swap1\n  jump\t// out\n    /* \"Parameters_flat.sol\":3291:3478  function _transferOwnership(address newOwner) internal virtual {... */\ntag_7:\n    /* \"Parameters_flat.sol\":3364:3380  address oldOwner */\n  0x00\n    /* \"Parameters_flat.sol\":3383:3389  _owner */\n  dup1\n  sload\n  sub(shl(0xa0, 0x01), 0x01)\n    /* \"Parameters_flat.sol\":3399:3416  _owner = newOwner */\n  dup4\n  dup2\n  and\n  not(sub(shl(0xa0, 0x01), 0x01))\n  dup4\n  and\n  dup2\n  or\n  dup5\n  sstore\n    /* \"Parameters_flat.sol\":3431:3471  OwnershipTransferred(oldOwner, newOwner) */\n  mload(0x40)\n    /* \"Parameters_flat.sol\":3383:3389  _owner */\n  swap2\n  swap1\n  swap3\n  and\n  swap3\n  dup4\n  swap2\n    /* \"Parameters_flat.sol\":3431:3471  OwnershipTransferred(oldOwner, newOwner) */\n  0x8be0079c531659141344cd1fd0a4f28419497f9722a3daafe3b4186f6b6457e0\n  swap2\n    /* \"Parameters_flat.sol\":3364:3380  address oldOwner */\n  swap1\n    /* \"Parameters_flat.sol\":3431:3471  OwnershipTransferred(oldOwner, newOwner) */\n  log3\n    /* \"Parameters_flat.sol\":3291:3478  function _transferOwnership(address newOwner) internal virtual {... */\n  pop\n  pop\n  jump\t// out\n    /* \"Parameters_flat.sol\":22057:44543  contract Parameters is Ownable {... */\ntag_8:\n  dataSize(sub_0)\n  dup1\n  dataOffset(sub_0)\n  0x00\n  codecopy\n  0x00\n  return\nstop\n\nsub_0: assembly {\n        /* \"Parameters_flat.sol\":22057:44543  contract Parameters is Ownable {... */\n      mstore(0x40, 0x80)\n      callvalue\n      dup1\n      iszero\n      tag_1\n      jumpi\n      0x00\n      dup1\n      revert\n    tag_1:\n      pop\n      jumpi(tag_2, lt(calldatasize, 0x04))\n      shr(0xe0, calldataload(0x00))\n      dup1\n      0x8a13725d\n      gt\n      tag_127\n      jumpi\n      dup1\n      0xcb3a2a88\n      gt\n      tag_128\n      jumpi\n      dup1\n      0xe6fdd4c0\n      gt\n      tag_129\n      jumpi\n      dup1\n      0xf5bec1ad\n      gt\n      tag_130\n      jumpi\n      dup1\n      0xfbf14851\n      gt\n      tag_131\n      jumpi\n      dup1\n      0xfbf14851\n      eq\n      tag_123\n      jumpi\n      dup1\n      0xfc0c546a\n      eq\n      tag_124\n      jumpi\n      dup1\n      0xff622dda\n      eq\n      tag_125\n      jumpi\n      dup1\n      0xfff5f946\n      eq\n      tag_126\n      jumpi\n      jump(tag_2)\n    tag_131:\n      dup1\n      0xf5bec1ad\n      eq\n      tag_119\n      jumpi\n      dup1\n      0xf67362fe\n      eq\n      tag_120\n      jumpi\n      dup1\n      0xf80de0a0\n      eq\n      tag_121\n      jumpi\n      dup1\n      0xfb50a473\n      eq\n      tag_122\n      jumpi\n      jump(tag_2)\n    tag_130:\n      dup1\n      0xee37f4a6\n      gt\n      tag_132\n      jumpi\n      dup1\n      0xee37f4a6\n      eq\n      tag_115\n      jumpi\n      dup1\n      0xf116c4e0\n      eq\n      tag_116\n      jumpi\n      dup1\n      0xf2fde38b\n      eq\n      tag_117\n      jumpi\n      dup1\n      0xf4e20b9c\n      eq\n      tag_118\n      jumpi\n      jump(tag_2)\n    tag_132:\n      dup1\n      0xe6fdd4c0\n      eq\n      tag_111\n      jumpi\n      dup1\n      0xe9704f81\n      eq\n      tag_112\n      jumpi\n      dup1\n      0xe992dca7\n      eq\n      tag_113\n      jumpi\n      dup1\n      0xea19733c\n      eq\n      tag_114\n      jumpi\n      jump(tag_2)\n    tag_129:\n      dup1\n      0xdfeceed7\n      gt\n      tag_133\n      jumpi\n      dup1\n      0xe3dfc0b2\n      gt\n      tag_134\n      jumpi\n      dup1\n      0xe3dfc0b2\n      eq\n      tag_107\n      jumpi\n      dup1\n      0xe5f14824\n      eq\n      tag_108\n      jumpi\n      dup1\n      0xe66d543a\n      eq\n      tag_109\n      jumpi\n      dup1\n      0xe68c9c30\n      eq\n      tag_110\n      jumpi\n      jump(tag_2)\n    tag_134:\n      dup1\n      0xdfeceed7\n      eq\n      tag_103\n      jumpi\n      dup1\n      0xe0de3d7c\n      eq\n      tag_104\n      jumpi\n      dup1\n      0xe168063c\n      eq\n      tag_105\n      jumpi\n      dup1\n      0xe3115d3c\n      eq\n      tag_106\n      jumpi\n      jump(tag_2)\n    tag_133:\n      dup1\n      0xd4efd2ba\n      gt\n      tag_135\n      jumpi\n      dup1\n      0xd4efd2ba\n      eq\n      tag_99\n      jumpi\n      dup1\n      0xd81109ce\n      eq\n      tag_100\n      jumpi\n      dup1\n      0xd8645d37\n      eq\n      tag_101\n      jumpi\n      dup1\n      0xdc7048c1\n      eq\n      tag_102\n      jumpi\n      jump(tag_2)\n    tag_135:\n      dup1\n      0xcb3a2a88\n      eq\n      tag_96\n      jumpi\n      dup1\n      0xd0eed967\n      eq\n      tag_97\n      jumpi\n      dup1\n      0xd1a89a46\n      eq\n      tag_98\n      jumpi\n      jump(tag_2)\n    tag_128:\n      dup1\n      0xabb10b9b\n      gt\n      tag_136\n      jumpi\n      dup1\n      0xbe250988\n      gt\n      tag_137\n      jumpi\n      dup1\n      0xc6eacbfe\n      gt\n      tag_138\n      jumpi\n      dup1\n      0xc6eacbfe\n      eq\n      tag_92\n      jumpi\n      dup1\n      0xc7761fab\n      eq\n      tag_93\n      jumpi\n      dup1\n      0xc95b53c5\n      eq\n      tag_94\n      jumpi\n      dup1\n      0xca64f9e7\n      eq\n      tag_95\n      jumpi\n      jump(tag_2)\n    tag_138:\n      dup1\n      0xbe250988\n      eq\n      tag_88\n      jumpi\n      dup1\n      0xbf09ff70\n      eq\n      tag_89\n      jumpi\n      dup1\n      0xbf34f749\n      eq\n      tag_90\n      jumpi\n      dup1\n      0xc4a306f8\n      eq\n      tag_91\n      jumpi\n      jump(tag_2)\n    tag_137:\n      dup1\n      0xb45d9d8d\n      gt\n      tag_139\n      jumpi\n      dup1\n      0xb45d9d8d\n      eq\n      tag_84\n      jumpi\n      dup1\n      0xb6118450\n      eq\n      tag_85\n      jumpi\n      dup1\n      0xb6c6ec02\n      eq\n      tag_86\n      jumpi\n      dup1\n      0xbd40ef4c\n      eq\n      tag_87\n      jumpi\n      jump(tag_2)\n    tag_139:\n      dup1\n      0xabb10b9b\n      eq\n      tag_80\n      jumpi\n      dup1\n      0xac846e79\n      eq\n      tag_81\n      jumpi\n      dup1\n      0xb1562f67\n      eq\n      tag_82\n      jumpi\n      dup1\n      0xb38e885e\n      eq\n      tag_83\n      jumpi\n      jump(tag_2)\n    tag_136:\n      dup1\n      0x995adbdd\n      gt\n      tag_140\n      jumpi\n      dup1\n      0xa1a4575a\n      gt\n      tag_141\n      jumpi\n      dup1\n      0xa1a4575a\n      eq\n      tag_76\n      jumpi\n      dup1\n      0xa327181b\n      eq\n      tag_77\n      jumpi\n      dup1\n      0xa35b3b09\n      eq\n      tag_78\n      jumpi\n      dup1\n      0xab43e78d\n      eq\n      tag_79\n      jumpi\n      jump(tag_2)\n    tag_141:\n      dup1\n      0x995adbdd\n      eq\n      tag_72\n      jumpi\n      dup1\n      0x9a175938\n      eq\n      tag_73\n      jumpi\n      dup1\n      0x9d1f2ada\n      eq\n      tag_74\n      jumpi\n      dup1\n      0x9fb491f6\n      eq\n      tag_75\n      jumpi\n      jump(tag_2)\n    tag_140:\n      dup1\n      0x90d10b6e\n      gt\n      tag_142\n      jumpi\n      dup1\n      0x90d10b6e\n      eq\n      tag_68\n      jumpi\n      dup1\n      0x9279e9d4\n      eq\n      tag_69\n      jumpi\n      dup1\n      0x98a54e2b\n      eq\n      tag_70\n      jumpi\n      dup1\n      0x9904ed8d\n      eq\n      tag_71\n      jumpi\n      jump(tag_2)\n    tag_142:\n      dup1\n      0x8a13725d\n      eq\n      tag_65\n      jumpi\n      dup1\n      0x8da5cb5b\n      eq\n      tag_66\n      jumpi\n      dup1\n      0x90cc59eb\n      eq\n      tag_67\n      jumpi\n      jump(tag_2)\n    tag_127:\n      dup1\n      0x49b46787\n      gt\n      tag_143\n      jumpi\n      dup1\n      0x728d23ab\n      gt\n      tag_144\n      jumpi\n      dup1\n      0x8360034d\n      gt\n      tag_145\n      jumpi\n      dup1\n      0x8724450f\n      gt\n      tag_146\n      jumpi\n      dup1\n      0x8724450f\n      eq\n      tag_61\n      jumpi\n      dup1\n      0x87ce6311\n      eq\n      tag_62\n      jumpi\n      dup1\n      0x893b2a76\n      eq\n      tag_63\n      jumpi\n      dup1\n      0x89b212d3\n      eq\n      tag_64\n      jumpi\n      jump(tag_2)\n    tag_146:\n      dup1\n      0x8360034d\n      eq\n      tag_57\n      jumpi\n      dup1\n      0x83cc6ef2\n      eq\n      tag_58\n      jumpi\n      dup1\n      0x849f9f0a\n      eq\n      tag_59\n      jumpi\n      dup1\n      0x86b0b4c5\n      eq\n      tag_60\n      jumpi\n      jump(tag_2)\n    tag_145:\n      dup1\n      0x7a0ec25b\n      gt\n      tag_147\n      jumpi\n      dup1\n      0x7a0ec25b\n      eq\n      tag_53\n      jumpi\n      dup1\n      0x7a34da67\n      eq\n      tag_54\n      jumpi\n      dup1\n      0x7d630cb0\n      eq\n      tag_55\n      jumpi\n      dup1\n      0x7e8603e9\n      eq\n      tag_56\n      jumpi\n      jump(tag_2)\n    tag_147:\n      dup1\n      0x728d23ab\n      eq\n      tag_49\n      jumpi\n      dup1\n      0x72e54030\n      eq\n      tag_50\n      jumpi\n      dup1\n      0x75dc6130\n      eq\n      tag_51\n      jumpi\n      dup1\n      0x779231b2\n      eq\n      tag_52\n      jumpi\n      jump(tag_2)\n    tag_144:\n      dup1\n      0x557c1abe\n      gt\n      tag_148\n      jumpi\n      dup1\n      0x61879075\n      gt\n      tag_149\n      jumpi\n      dup1\n      0x61879075\n      eq\n      tag_45\n      jumpi\n      dup1\n      0x6785f847\n      eq\n      tag_46\n      jumpi\n      dup1\n      0x6a8e0ece\n      eq\n      tag_47\n      jumpi\n      dup1\n      0x715018a6\n      eq\n      tag_48\n      jumpi\n      jump(tag_2)\n    tag_149:\n      dup1\n      0x557c1abe\n      eq\n      tag_41\n      jumpi\n      dup1\n      0x55a35f5c\n      eq\n      tag_42\n      jumpi\n      dup1\n      0x5cb361f6\n      eq\n      tag_43\n      jumpi\n      dup1\n      0x5d1c3182\n      eq\n      tag_44\n      jumpi\n      jump(tag_2)\n    tag_148:\n      dup1\n      0x4ed60b2a\n      gt\n      tag_150\n      jumpi\n      dup1\n      0x4ed60b2a\n      eq\n      tag_37\n      jumpi\n      dup1\n      0x51912f29\n      eq\n      tag_38\n      jumpi\n      dup1\n      0x531780bb\n      eq\n      tag_39\n      jumpi\n      dup1\n      0x5492f302\n      eq\n      tag_40\n      jumpi\n      jump(tag_2)\n    tag_150:\n      dup1\n      0x49b46787\n      eq\n      tag_34\n      jumpi\n      dup1\n      0x4e5638f5\n      eq\n      tag_35\n      jumpi\n      dup1\n      0x4e87c5a8\n      eq\n      tag_36\n      jumpi\n      jump(tag_2)\n    tag_143:\n      dup1\n      0x2b0afab3\n      gt\n      tag_151\n      jumpi\n      dup1\n      0x3692616a\n      gt\n      tag_152\n      jumpi\n      dup1\n      0x42df5641\n      gt\n      tag_153\n      jumpi\n      dup1\n      0x42df5641\n      eq\n      tag_30\n      jumpi\n      dup1\n      0x444d62b6\n      eq\n      tag_31\n      jumpi\n      dup1\n      0x463444b7\n      eq\n      tag_32\n      jumpi\n      dup1\n      0x484df80a\n      eq\n      tag_33\n      jumpi\n      jump(tag_2)\n    tag_153:\n      dup1\n      0x3692616a\n      eq\n      tag_26\n      jumpi\n      dup1\n      0x36fc43fc\n      eq\n      tag_27\n      jumpi\n      dup1\n      0x386d0976\n      eq\n      tag_28\n      jumpi\n      dup1\n      0x3968ec84\n      eq\n      tag_29\n      jumpi\n      jump(tag_2)\n    tag_152:\n      dup1\n      0x2e2f93f3\n      gt\n      tag_154\n      jumpi\n      dup1\n      0x2e2f93f3\n      eq\n      tag_22\n      jumpi\n      dup1\n      0x30c0bb79\n      eq\n      tag_23\n      jumpi\n      dup1\n      0x31911c91\n      eq\n      tag_24\n      jumpi\n      dup1\n      0x34c37e21\n      eq\n      tag_25\n      jumpi\n      jump(tag_2)\n    tag_154:\n      dup1\n      0x2b0afab3\n      eq\n      tag_18\n      jumpi\n      dup1\n      0x2be05960\n      eq\n      tag_19\n      jumpi\n      dup1\n      0x2bf8abb3\n      eq\n      tag_20\n      jumpi\n      dup1\n      0x2d09a8e3\n      eq\n      tag_21\n      jumpi\n      jump(tag_2)\n    tag_151:\n      dup1\n      0x0a5a4c20\n      gt\n      tag_155\n      jumpi\n      dup1\n      0x175bf630\n      gt\n      tag_156\n      jumpi\n      dup1\n      0x175bf630\n      eq\n      tag_14\n      jumpi\n      dup1\n      0x1d0fb88e\n      eq\n      tag_15\n      jumpi\n      dup1\n      0x29a47bc7\n      eq\n      tag_16\n      jumpi\n      dup1\n      0x29e3dd1f\n      eq\n      tag_17\n      jumpi\n      jump(tag_2)\n    tag_156:\n      dup1\n      0x0a5a4c20\n      eq\n      tag_10\n      jumpi\n      dup1\n      0x0b08bfd9\n      eq\n      tag_11\n      jumpi\n      dup1\n      0x0f1f0ffe\n      eq\n      tag_12\n      jumpi\n      dup1\n      0x0f78cc76\n      eq\n      tag_13\n      jumpi\n      jump(tag_2)\n    tag_155:\n      dup1\n      0x06606d67\n      gt\n      tag_157\n      jumpi\n      dup1\n      0x06606d67\n      eq\n      tag_6\n      jumpi\n      dup1\n      0x0855d151\n      eq\n      tag_7\n      jumpi\n      dup1\n      0x08e7f0db\n      eq\n      tag_8\n      jumpi\n      dup1\n      0x092a5cce\n      eq\n      tag_9\n      jumpi\n      jump(tag_2)\n    tag_157:\n      dup1\n      0x653ff8\n      eq\n      tag_3\n      jumpi\n      dup1\n      0x0363a1bf\n      eq\n      tag_4\n      jumpi\n      dup1\n      0x04e76c8f\n      eq\n      tag_5\n      jumpi\n    tag_2:\n      0x00\n      dup1\n      revert\n        /* \"Parameters_flat.sol\":22454:22501  uint256 public SPOT_MIN_STAKE = 25 * (10 ** 18) */\n    tag_3:\n      tag_158\n      tag_159\n      jump\t// in\n    tag_158:\n      mload(0x40)\n      tag_160\n      swap2\n      swap1\n      tag_161\n      jump\t// in\n    tag_160:\n      mload(0x40)\n      dup1\n      swap2\n      sub\n      swap1\n      return\n        /* \"Parameters_flat.sol\":43471:43589  function get_ARCHIVING_DATA_BATCH_SIZE() public view returns(uint256){... */\n    tag_4:\n      tag_158\n      tag_163\n      jump\t// in\n        /* \"Parameters_flat.sol\":38141:38234  function getRewardManager() public view returns(address){... */\n    tag_5:\n      tag_165\n      tag_166\n      jump\t// in\n    tag_165:\n      mload(0x40)\n      tag_160\n      swap2\n      swap1\n      tag_168\n      jump\t// in\n        /* \"Parameters_flat.sol\":25427:25458  address public ComplianceSystem */\n    tag_6:\n      tag_165\n      tag_170\n      jump\t// in\n        /* \"Parameters_flat.sol\":37851:37938  function getRepManager() public view returns(address){... */\n    tag_7:\n      tag_165\n      tag_173\n      jump\t// in\n        /* \"Parameters_flat.sol\":24995:25062  uint256 public ARCHIVING_MIN_REWARD_DataValidation = 1 * (10 ** 15) */\n    tag_8:\n      tag_158\n      tag_176\n      jump\t// in\n        /* \"Parameters_flat.sol\":30543:30634  function destroyContract() public onlyOwner {... */\n    tag_9:\n      tag_178\n      tag_179\n      jump\t// in\n    tag_178:\n      stop\n        /* \"Parameters_flat.sol\":24818:24870  uint256 public ARCHIVING_MIN_STAKE = 25 * (10 ** 18) */\n    tag_10:\n      tag_158\n      tag_181\n      jump\t// in\n        /* \"Parameters_flat.sol\":39858:39980  function get_SPOT_MIN_REP_DataValidation() public view returns(uint256){... */\n    tag_11:\n      tag_158\n      tag_184\n      jump\t// in\n        /* \"Parameters_flat.sol\":40990:41124  function get_NOVOTE_REGISTRATION_WAIT_DURATION() public view returns(uint256){... */\n    tag_12:\n      tag_158\n      tag_187\n      jump\t// in\n        /* \"Parameters_flat.sol\":40363:40477  function get_SPOT_TIMEFRAME_DURATION() public view returns(uint256){... */\n    tag_13:\n      tag_158\n      tag_190\n      jump\t// in\n        /* \"Parameters_flat.sol\":23537:23582  uint256 public COMPLIANCE_DATA_BATCH_SIZE = 1 */\n    tag_14:\n      tag_158\n      tag_193\n      jump\t// in\n        /* \"Parameters_flat.sol\":22678:22725  uint256 public SPOT_REVEAL_ROUND_DURATION = 180 */\n    tag_15:\n      tag_158\n      tag_196\n      jump\t// in\n        /* \"Parameters_flat.sol\":25261:25286  address public RepManager */\n    tag_16:\n      tag_165\n      tag_199\n      jump\t// in\n        /* \"Parameters_flat.sol\":44130:44260  function get_ARCHIVING_REVEAL_ROUND_DURATION() public view returns(uint256){... */\n    tag_17:\n      tag_158\n      tag_202\n      jump\t// in\n        /* \"Parameters_flat.sol\":41863:41995  function get_COMPLIANCE_REVEAL_ROUND_DURATION() public view returns(uint256){... */\n    tag_18:\n      tag_158\n      tag_205\n      jump\t// in\n        /* \"Parameters_flat.sol\":24519:24584  uint256 public INDEXING_MIN_REP_DataValidation  = 10 * (10 ** 15) */\n    tag_19:\n      tag_158\n      tag_208\n      jump\t// in\n        /* \"Parameters_flat.sol\":24447:24513  uint256 public INDEXING_MIN_REWARD_DataValidation = 1 * (10 ** 15) */\n    tag_20:\n      tag_158\n      tag_211\n      jump\t// in\n        /* \"Parameters_flat.sol\":31113:32508  function updateContractsAddresses(address StakeManager_, address RepManager_, address Reputation_, address RewardManager_, address AddressManager_,... */\n    tag_21:\n      tag_178\n      tag_214\n      calldatasize\n      0x04\n      tag_215\n      jump\t// in\n    tag_214:\n      tag_216\n      jump\t// in\n        /* \"Parameters_flat.sol\":38737:38820  function getExordeToken() public view returns(address){... */\n    tag_22:\n      tag_165\n      tag_218\n      jump\t// in\n        /* \"Parameters_flat.sol\":39737:39853  function get_SPOT_MIN_REWARD_SpotData() public view returns(uint256){... */\n    tag_23:\n      tag_158\n      tag_221\n      jump\t// in\n        /* \"Parameters_flat.sol\":23653:23710  uint256 public COMPLIANCE_MAX_CONSENSUS_WORKER_COUNT  = 4 */\n    tag_24:\n      tag_158\n      tag_224\n      jump\t// in\n        /* \"Parameters_flat.sol\":23899:23967  uint256 public COMPLIANCE_MIN_REWARD_DataValidation = 1 * (10 ** 15) */\n    tag_25:\n      tag_158\n      tag_227\n      jump\t// in\n        /* \"Parameters_flat.sol\":39372:39492  function get_SPOT_COMMIT_ROUND_DURATION() public view returns(uint256){... */\n    tag_26:\n      tag_158\n      tag_230\n      jump\t// in\n        /* \"Parameters_flat.sol\":23082:23120  bool public SPOT_TOGGLE_ENABLED = true */\n    tag_27:\n      tag_232\n      tag_233\n      jump\t// in\n    tag_232:\n      mload(0x40)\n      tag_160\n      swap2\n      swap1\n      tag_235\n      jump\t// in\n        /* \"Parameters_flat.sol\":43130:43266  function get_INDEXING_MIN_REWARD_DataValidation() public view returns(uint256){... */\n    tag_28:\n      tag_158\n      tag_237\n      jump\t// in\n        /* \"Parameters_flat.sol\":43850:43990  function get_ARCHIVING_MAX_CONSENSUS_WORKER_COUNT() public view returns(uint256){... */\n    tag_29:\n      tag_158\n      tag_240\n      jump\t// in\n        /* \"Parameters_flat.sol\":23719:23772  uint256 public COMPLIANCE_MIN_STAKE = 25 * (10 ** 18) */\n    tag_30:\n      tag_158\n      tag_243\n      jump\t// in\n        /* \"Parameters_flat.sol\":24147:24202  uint256 public INDEXING_MIN_CONSENSUS_WORKER_COUNT  = 2 */\n    tag_31:\n      tag_158\n      tag_246\n      jump\t// in\n        /* \"Parameters_flat.sol\":38547:38644  function getArchivingSystem() public view returns(address){... */\n    tag_32:\n      tag_165\n      tag_249\n      jump\t// in\n        /* \"Parameters_flat.sol\":41726:41858  function get_COMPLIANCE_COMMIT_ROUND_DURATION() public view returns(uint256){... */\n    tag_33:\n      tag_158\n      tag_252\n      jump\t// in\n        /* \"Parameters_flat.sol\":44408:44540  function get_ARCHIVING_MIN_REP_DataValidation() public view returns(uint256){... */\n    tag_34:\n      tag_158\n      tag_255\n      jump\t// in\n        /* \"Parameters_flat.sol\":22299:22351  uint256 public MAX_CONTRACT_STORED_BATCHES  = 200000 */\n    tag_35:\n      tag_158\n      tag_258\n      jump\t// in\n        /* \"Parameters_flat.sol\":40251:40354  function get_SPOT_TOGGLE_ENABLED() public view returns(bool){... */\n    tag_36:\n      tag_232\n      tag_261\n      jump\t// in\n        /* \"Parameters_flat.sol\":24639:24683  uint256 public ARCHIVING_DATA_BATCH_SIZE = 1 */\n    tag_37:\n      tag_158\n      tag_264\n      jump\t// in\n        /* \"Parameters_flat.sol\":25292:25320  address public RewardManager */\n    tag_38:\n      tag_165\n      tag_267\n      jump\t// in\n        /* \"Parameters_flat.sol\":24877:24929  uint256 public ARCHIVING_COMMIT_ROUND_DURATION = 400 */\n    tag_39:\n      tag_158\n      tag_270\n      jump\t// in\n        /* \"Parameters_flat.sol\":38041:38136  function getAddressManager() public view returns(address){... */\n    tag_40:\n      tag_165\n      tag_273\n      jump\t// in\n        /* \"Parameters_flat.sol\":38649:38732  function getsFuelSystem() public view returns(address){... */\n    tag_41:\n      tag_165\n      tag_276\n      jump\t// in\n        /* \"Parameters_flat.sol\":36266:37180  function updateArchivingParameters(uint256 ParameterIndex, uint256 uintValue) public onlyOwner {        ... */\n    tag_42:\n      tag_178\n      tag_279\n      calldatasize\n      0x04\n      tag_280\n      jump\t// in\n    tag_279:\n      tag_281\n      jump\t// in\n        /* \"Parameters_flat.sol\":22800:22855  uint256 public SPOT_MIN_REP_SpotData  = 10 * (10 ** 15) */\n    tag_43:\n      tag_158\n      tag_283\n      jump\t// in\n        /* \"Parameters_flat.sol\":24690:24746  uint256 public ARCHIVING_MIN_CONSENSUS_WORKER_COUNT  = 2 */\n    tag_44:\n      tag_158\n      tag_286\n      jump\t// in\n        /* \"Parameters_flat.sol\":30644:31107  function updateGeneralParameters(uint256 ParameterIndex, uint256 uintValue) public onlyOwner {        ... */\n    tag_45:\n      tag_178\n      tag_289\n      calldatasize\n      0x04\n      tag_280\n      jump\t// in\n    tag_289:\n      tag_290\n      jump\t// in\n        /* \"Parameters_flat.sol\":23779:23832  uint256 public COMPLIANCE_COMMIT_ROUND_DURATION = 400 */\n    tag_46:\n      tag_158\n      tag_292\n      jump\t// in\n        /* \"Parameters_flat.sol\":23973:24040  uint256 public COMPLIANCE_MIN_REP_DataValidation  = 10 * (10 ** 15) */\n    tag_47:\n      tag_158\n      tag_295\n      jump\t// in\n        /* \"Parameters_flat.sol\":2689:2790  function renounceOwnership() public virtual onlyOwner {... */\n    tag_48:\n      tag_178\n      tag_298\n      jump\t// in\n        /* \"Parameters_flat.sol\":23589:23646  uint256 public COMPLIANCE_MIN_CONSENSUS_WORKER_COUNT  = 2 */\n    tag_49:\n      tag_158\n      tag_300\n      jump\t// in\n        /* \"Parameters_flat.sol\":39497:39617  function get_SPOT_REVEAL_ROUND_DURATION() public view returns(uint256){... */\n    tag_50:\n      tag_158\n      tag_303\n      jump\t// in\n        /* \"Parameters_flat.sol\":35354:36259  function updateIndexingParameters(uint256 ParameterIndex, uint256 uintValue) public onlyOwner {        ... */\n    tag_51:\n      tag_178\n      tag_306\n      calldatasize\n      0x04\n      tag_280\n      jump\t// in\n    tag_306:\n      tag_307\n      jump\t// in\n        /* \"Parameters_flat.sol\":24273:24324  uint256 public INDEXING_MIN_STAKE = 25 * (10 ** 18) */\n    tag_52:\n      tag_158\n      tag_309\n      jump\t// in\n        /* \"Parameters_flat.sol\":38447:38542  function getIndexingSystem() public view returns(address){... */\n    tag_53:\n      tag_165\n      tag_312\n      jump\t// in\n        /* \"Parameters_flat.sol\":25330:25359  address public AddressManager */\n    tag_54:\n      tag_165\n      tag_315\n      jump\t// in\n        /* \"Parameters_flat.sol\":37445:37555  function get_MAX_UPDATE_ITERATIONS() public view returns(uint256){... */\n    tag_55:\n      tag_158\n      tag_318\n      jump\t// in\n        /* \"Parameters_flat.sol\":24388:24439  uint256 public INDEXING_REVEAL_ROUND_DURATION = 180 */\n    tag_56:\n      tag_158\n      tag_321\n      jump\t// in\n        /* \"Parameters_flat.sol\":24935:24987  uint256 public ARCHIVING_REVEAL_ROUND_DURATION = 180 */\n    tag_57:\n      tag_158\n      tag_324\n      jump\t// in\n        /* \"Parameters_flat.sol\":25197:25224  address public StakeManager */\n    tag_58:\n      tag_165\n      tag_327\n      jump\t// in\n        /* \"Parameters_flat.sol\":43271:43401  function get_INDEXING_MIN_REP_DataValidation() public view returns(uint256){... */\n    tag_59:\n      tag_158\n      tag_330\n      jump\t// in\n        /* \"Parameters_flat.sol\":22929:22990  uint256 public SPOT_MIN_REP_DataValidation  = 10 * (10 ** 15) */\n    tag_60:\n      tag_158\n      tag_333\n      jump\t// in\n        /* \"Parameters_flat.sol\":22861:22923  uint256 public SPOT_MIN_REWARD_DataValidation = 1 * (10 ** 15) */\n    tag_61:\n      tag_158\n      tag_336\n      jump\t// in\n        /* \"Parameters_flat.sol\":23126:23173  uint256 public SPOT_TIMEFRAME_DURATION  = 15*60 */\n    tag_62:\n      tag_158\n      tag_339\n      jump\t// in\n        /* \"Parameters_flat.sol\":44265:44403  function get_ARCHIVING_MIN_REWARD_DataValidation() public view returns(uint256){... */\n    tag_63:\n      tag_158\n      tag_342\n      jump\t// in\n        /* \"Parameters_flat.sol\":42145:42279  function get_COMPLIANCE_MIN_REP_DataValidation() public view returns(uint256){... */\n    tag_64:\n      tag_158\n      tag_345\n      jump\t// in\n        /* \"Parameters_flat.sol\":42997:43125  function get_INDEXING_REVEAL_ROUND_DURATION() public view returns(uint256){... */\n    tag_65:\n      tag_158\n      tag_348\n      jump\t// in\n        /* \"Parameters_flat.sol\":2059:2144  function owner() public view virtual returns (address) {... */\n    tag_66:\n      tag_165\n      tag_351\n      jump\t// in\n        /* \"Parameters_flat.sol\":42864:42992  function get_INDEXING_COMMIT_ROUND_DURATION() public view returns(uint256){... */\n    tag_67:\n      tag_158\n      tag_354\n      jump\t// in\n        /* \"Parameters_flat.sol\":22248:22290  uint256 public MAX_UPDATE_ITERATIONS  = 50 */\n    tag_68:\n      tag_158\n      tag_357\n      jump\t// in\n        /* \"Parameters_flat.sol\":43995:44125  function get_ARCHIVING_COMMIT_ROUND_DURATION() public view returns(uint256){... */\n    tag_69:\n      tag_158\n      tag_360\n      jump\t// in\n        /* \"Parameters_flat.sol\":37248:37347  function getMaxTotalWorkers() public view returns(uint256){... */\n    tag_70:\n      tag_158\n      tag_363\n      jump\t// in\n        /* \"Parameters_flat.sol\":25230:25255  address public Reputation */\n    tag_71:\n      tag_165\n      tag_366\n      jump\t// in\n        /* \"Parameters_flat.sol\":43705:43845  function get_ARCHIVING_MIN_CONSENSUS_WORKER_COUNT() public view returns(uint256){... */\n    tag_72:\n      tag_158\n      tag_369\n      jump\t// in\n        /* \"Parameters_flat.sol\":23838:23891  uint256 public COMPLIANCE_REVEAL_ROUND_DURATION = 180 */\n    tag_73:\n      tag_158\n      tag_372\n      jump\t// in\n        /* \"Parameters_flat.sol\":38888:38996  function get_SPOT_DATA_BATCH_SIZE() public view returns(uint256){... */\n    tag_74:\n      tag_158\n      tag_375\n      jump\t// in\n        /* \"Parameters_flat.sol\":40873:40985  function get_MAX_SUCCEEDING_NOVOTES() public view returns(uint256){... */\n    tag_75:\n      tag_158\n      tag_378\n      jump\t// in\n        /* \"Parameters_flat.sol\":42578:42716  function get_INDEXING_MIN_CONSENSUS_WORKER_COUNT() public view returns(uint256){... */\n    tag_76:\n      tag_158\n      tag_381\n      jump\t// in\n        /* \"Parameters_flat.sol\":22162:22201  uint256 public MAX_TOTAL_WORKERS = 1000 */\n    tag_77:\n      tag_158\n      tag_384\n      jump\t// in\n        /* \"Parameters_flat.sol\":22568:22619  uint256 public SPOT_MAX_CONSENSUS_WORKER_COUNT  = 4 */\n    tag_78:\n      tag_158\n      tag_387\n      jump\t// in\n        /* \"Parameters_flat.sol\":25365:25385  address public sFuel */\n    tag_79:\n      tag_165\n      tag_390\n      jump\t// in\n        /* \"Parameters_flat.sol\":39622:39732  function get_SPOT_MIN_REP_SpotData() public view returns(uint256){... */\n    tag_80:\n      tag_158\n      tag_393\n      jump\t// in\n        /* \"Parameters_flat.sol\":24753:24809  uint256 public ARCHIVING_MAX_CONSENSUS_WORKER_COUNT  = 4 */\n    tag_81:\n      tag_158\n      tag_396\n      jump\t// in\n        /* \"Parameters_flat.sol\":43594:43700  function get_ARCHIVING_MIN_STAKE() public view returns(uint256){... */\n    tag_82:\n      tag_158\n      tag_399\n      jump\t// in\n        /* \"Parameters_flat.sol\":40486:40616  function get_SPOT_GLOBAL_MAX_SPOT_PER_PERIOD() public view returns(uint256){... */\n    tag_83:\n      tag_158\n      tag_402\n      jump\t// in\n        /* \"Parameters_flat.sol\":38243:38338  function getSpottingSystem() public view returns(address){... */\n    tag_84:\n      tag_165\n      tag_405\n      jump\t// in\n        /* \"Parameters_flat.sol\":23312:23349  uint256 public SPOT_NB_TIMEFRAMES = 4 */\n    tag_85:\n      tag_158\n      tag_408\n      jump\t// in\n        /* \"Parameters_flat.sol\":25499:25529  address public ArchivingSystem */\n    tag_86:\n      tag_165\n      tag_411\n      jump\t// in\n        /* \"Parameters_flat.sol\":39102:39232  function get_SPOT_MIN_CONSENSUS_WORKER_COUNT() public view returns(uint256){... */\n    tag_87:\n      tag_158\n      tag_414\n      jump\t// in\n        /* \"Parameters_flat.sol\":40625:40759  function get_SPOT_MAX_SPOT_PER_USER_PER_PERIOD() public view returns(uint256){... */\n    tag_88:\n      tag_158\n      tag_417\n      jump\t// in\n        /* \"Parameters_flat.sol\":23252:23306  uint256 public SPOT_MAX_SPOT_PER_USER_PER_PERIOD  = 25 */\n    tag_89:\n      tag_158\n      tag_420\n      jump\t// in\n        /* \"Parameters_flat.sol\":42469:42573  function get_INDEXING_MIN_STAKE() public view returns(uint256){... */\n    tag_90:\n      tag_158\n      tag_423\n      jump\t// in\n        /* \"Parameters_flat.sol\":40118:40246  function get_SPOT_INTER_ALLOCATION_DURATION() public view returns(uint256){... */\n    tag_91:\n      tag_158\n      tag_426\n      jump\t// in\n        /* \"Parameters_flat.sol\":22409:22448  uint256 public SPOT_DATA_BATCH_SIZE = 1 */\n    tag_92:\n      tag_158\n      tag_429\n      jump\t// in\n        /* \"Parameters_flat.sol\":22207:22239  uint256 public VOTE_QUORUM  = 50 */\n    tag_93:\n      tag_158\n      tag_432\n      jump\t// in\n        /* \"Parameters_flat.sol\":24097:24140  uint256 public INDEXING_DATA_BATCH_SIZE = 1 */\n    tag_94:\n      tag_158\n      tag_435\n      jump\t// in\n        /* \"Parameters_flat.sol\":37755:37846  function getStakeManager() public view returns(address){... */\n    tag_95:\n      tag_165\n      tag_438\n      jump\t// in\n        /* \"Parameters_flat.sol\":42348:42464  function get_INDEXING_DATA_BATCH_SIZE() public view returns(uint256){... */\n    tag_96:\n      tag_158\n      tag_441\n      jump\t// in\n        /* \"Parameters_flat.sol\":23407:23463  uint256 public NOVOTE_REGISTRATION_WAIT_DURATION  = 3600 */\n    tag_97:\n      tag_158\n      tag_444\n      jump\t// in\n        /* \"Parameters_flat.sol\":41194:41314  function get_COMPLIANCE_DATA_BATCH_SIZE() public view returns(uint256){... */\n    tag_98:\n      tag_158\n      tag_447\n      jump\t// in\n        /* \"Parameters_flat.sol\":23355:23397  uint256 public MAX_SUCCEEDING_NOVOTES  = 3 */\n    tag_99:\n      tag_158\n      tag_450\n      jump\t// in\n        /* \"Parameters_flat.sol\":22738:22794  uint256 public SPOT_MIN_REWARD_SpotData = 1 * (10 ** 15) */\n    tag_100:\n      tag_158\n      tag_453\n      jump\t// in\n        /* \"Parameters_flat.sol\":25392:25421  address public SpottingSystem */\n    tag_101:\n      tag_165\n      tag_456\n      jump\t// in\n        /* \"Parameters_flat.sol\":41579:41721  function get_COMPLIANCE_MAX_CONSENSUS_WORKER_COUNT() public view returns(uint256){... */\n    tag_102:\n      tag_158\n      tag_459\n      jump\t// in\n        /* \"Parameters_flat.sol\":39237:39367  function get_SPOT_MAX_CONSENSUS_WORKER_COUNT() public view returns(uint256){... */\n    tag_103:\n      tag_158\n      tag_462\n      jump\t// in\n        /* \"Parameters_flat.sol\":23192:23246  uint256 public SPOT_GLOBAL_MAX_SPOT_PER_PERIOD  = 1000 */\n    tag_104:\n      tag_158\n      tag_465\n      jump\t// in\n        /* \"Parameters_flat.sol\":34424:35347  function updateComplianceParameters(uint256 ParameterIndex, uint256 uintValue) public onlyOwner {        ... */\n    tag_105:\n      tag_178\n      tag_468\n      calldatasize\n      0x04\n      tag_280\n      jump\t// in\n    tag_468:\n      tag_469\n      jump\t// in\n        /* \"Parameters_flat.sol\":37560:37682  function get_MAX_CONTRACT_STORED_BATCHES() public view returns(uint256){... */\n    tag_106:\n      tag_158\n      tag_471\n      jump\t// in\n        /* \"Parameters_flat.sol\":41319:41427  function get_COMPLIANCE_MIN_STAKE() public view returns(uint256){... */\n    tag_107:\n      tag_158\n      tag_474\n      jump\t// in\n        /* \"Parameters_flat.sol\":23025:23076  uint256 public SPOT_INTER_ALLOCATION_DURATION = 400 */\n    tag_108:\n      tag_158\n      tag_477\n      jump\t// in\n        /* \"Parameters_flat.sol\":40764:40868  function get_SPOT_NB_TIMEFRAMES() public view returns(uint256){... */\n    tag_109:\n      tag_158\n      tag_480\n      jump\t// in\n        /* \"Parameters_flat.sol\":42721:42859  function get_INDEXING_MAX_CONSENSUS_WORKER_COUNT() public view returns(uint256){... */\n    tag_110:\n      tag_158\n      tag_483\n      jump\t// in\n        /* \"Parameters_flat.sol\":22625:22672  uint256 public SPOT_COMMIT_ROUND_DURATION = 180 */\n    tag_111:\n      tag_158\n      tag_486\n      jump\t// in\n        /* \"Parameters_flat.sol\":24331:24382  uint256 public INDEXING_COMMIT_ROUND_DURATION = 400 */\n    tag_112:\n      tag_158\n      tag_489\n      jump\t// in\n        /* \"Parameters_flat.sol\":37943:38036  function getReputationSystem() public view returns(address){... */\n    tag_113:\n      tag_165\n      tag_492\n      jump\t// in\n        /* \"Parameters_flat.sol\":37352:37440  function getVoteQuorum() public view returns(uint256){... */\n    tag_114:\n      tag_158\n      tag_495\n      jump\t// in\n        /* \"Parameters_flat.sol\":32524:34417  function updateSpottingParameters(uint256 ParameterIndex, uint256 uintValue, bool boolValue) public onlyOwner {        ... */\n    tag_115:\n      tag_178\n      tag_498\n      calldatasize\n      0x04\n      tag_499\n      jump\t// in\n    tag_498:\n      tag_500\n      jump\t// in\n        /* \"Parameters_flat.sol\":42000:42140  function get_COMPLIANCE_MIN_REWARD_DataValidation() public view returns(uint256){... */\n    tag_116:\n      tag_158\n      tag_502\n      jump\t// in\n        /* \"Parameters_flat.sol\":2939:3137  function transferOwnership(address newOwner) public virtual onlyOwner {... */\n    tag_117:\n      tag_178\n      tag_505\n      calldatasize\n      0x04\n      tag_506\n      jump\t// in\n    tag_505:\n      tag_507\n      jump\t// in\n        /* \"Parameters_flat.sol\":24209:24264  uint256 public INDEXING_MAX_CONSENSUS_WORKER_COUNT  = 4 */\n    tag_118:\n      tag_158\n      tag_509\n      jump\t// in\n        /* \"Parameters_flat.sol\":25068:25134  uint256 public ARCHIVING_MIN_REP_DataValidation  = 10 * (10 ** 15) */\n    tag_119:\n      tag_158\n      tag_512\n      jump\t// in\n        /* \"Parameters_flat.sol\":38343:38442  function getComplianceSystem() public view returns(address){... */\n    tag_120:\n      tag_165\n      tag_515\n      jump\t// in\n        /* \"Parameters_flat.sol\":39985:40113  function get_SPOT_MIN_REWARD_DataValidation() public view returns(uint256){... */\n    tag_121:\n      tag_158\n      tag_518\n      jump\t// in\n        /* \"Parameters_flat.sol\":22508:22559  uint256 public SPOT_MIN_CONSENSUS_WORKER_COUNT  = 2 */\n    tag_122:\n      tag_158\n      tag_521\n      jump\t// in\n        /* \"Parameters_flat.sol\":25464:25493  address public IndexingSystem */\n    tag_123:\n      tag_165\n      tag_524\n      jump\t// in\n        /* \"Parameters_flat.sol\":25171:25191  address public token */\n    tag_124:\n      tag_165\n      tag_527\n      jump\t// in\n        /* \"Parameters_flat.sol\":39001:39097  function get_SPOT_MIN_STAKE() public view returns(uint256){... */\n    tag_125:\n      tag_158\n      tag_530\n      jump\t// in\n        /* \"Parameters_flat.sol\":41432:41574  function get_COMPLIANCE_MIN_CONSENSUS_WORKER_COUNT() public view returns(uint256){... */\n    tag_126:\n      tag_158\n      tag_533\n      jump\t// in\n        /* \"Parameters_flat.sol\":22454:22501  uint256 public SPOT_MIN_STAKE = 25 * (10 ** 18) */\n    tag_159:\n      sload(0x06)\n      dup2\n      jump\t// out\n        /* \"Parameters_flat.sol\":43471:43589  function get_ARCHIVING_DATA_BATCH_SIZE() public view returns(uint256){... */\n    tag_163:\n        /* \"Parameters_flat.sol\":43557:43582  ARCHIVING_DATA_BATCH_SIZE */\n      sload(0x27)\n        /* \"Parameters_flat.sol\":43471:43589  function get_ARCHIVING_DATA_BATCH_SIZE() public view returns(uint256){... */\n      swap1\n      jump\t// out\n        /* \"Parameters_flat.sol\":38141:38234  function getRewardManager() public view returns(address){... */\n    tag_166:\n        /* \"Parameters_flat.sol\":38214:38227  RewardManager */\n      and(sub(shl(0xa0, 0x01), 0x01), sload(0x33))\n        /* \"Parameters_flat.sol\":38141:38234  function getRewardManager() public view returns(address){... */\n      swap1\n      jump\t// out\n        /* \"Parameters_flat.sol\":25427:25458  address public ComplianceSystem */\n    tag_170:\n      and(sub(shl(0xa0, 0x01), 0x01), sload(0x37))\n      dup2\n      jump\t// out\n        /* \"Parameters_flat.sol\":37851:37938  function getRepManager() public view returns(address){... */\n    tag_173:\n        /* \"Parameters_flat.sol\":37921:37931  RepManager */\n      and(sub(shl(0xa0, 0x01), 0x01), sload(0x32))\n        /* \"Parameters_flat.sol\":37851:37938  function getRepManager() public view returns(address){... */\n      swap1\n      jump\t// out\n        /* \"Parameters_flat.sol\":24995:25062  uint256 public ARCHIVING_MIN_REWARD_DataValidation = 1 * (10 ** 15) */\n    tag_176:\n      sload(0x2d)\n      dup2\n      jump\t// out\n        /* \"Parameters_flat.sol\":30543:30634  function destroyContract() public onlyOwner {... */\n    tag_179:\n        /* \"Parameters_flat.sol\":1952:1965  _checkOwner() */\n      tag_539\n        /* \"Parameters_flat.sol\":1952:1963  _checkOwner */\n      tag_540\n        /* \"Parameters_flat.sol\":1952:1965  _checkOwner() */\n      jump\t// in\n    tag_539:\n        /* \"Parameters_flat.sol\":30618:30625  owner() */\n      tag_542\n        /* \"Parameters_flat.sol\":30618:30623  owner */\n      tag_351\n        /* \"Parameters_flat.sol\":30618:30625  owner() */\n      jump\t// in\n    tag_542:\n      sub(shl(0xa0, 0x01), 0x01)\n        /* \"Parameters_flat.sol\":30597:30627  selfdestruct(payable(owner())) */\n      and\n      selfdestruct\n        /* \"Parameters_flat.sol\":24818:24870  uint256 public ARCHIVING_MIN_STAKE = 25 * (10 ** 18) */\n    tag_181:\n      sload(0x2a)\n      dup2\n      jump\t// out\n        /* \"Parameters_flat.sol\":39858:39980  function get_SPOT_MIN_REP_DataValidation() public view returns(uint256){... */\n    tag_184:\n        /* \"Parameters_flat.sol\":39946:39973  SPOT_MIN_REP_DataValidation */\n      sload(0x0e)\n        /* \"Parameters_flat.sol\":39858:39980  function get_SPOT_MIN_REP_DataValidation() public view returns(uint256){... */\n      swap1\n      jump\t// out\n        /* \"Parameters_flat.sol\":40990:41124  function get_NOVOTE_REGISTRATION_WAIT_DURATION() public view returns(uint256){... */\n    tag_187:\n        /* \"Parameters_flat.sol\":41084:41117  NOVOTE_REGISTRATION_WAIT_DURATION */\n      sload(0x16)\n        /* \"Parameters_flat.sol\":40990:41124  function get_NOVOTE_REGISTRATION_WAIT_DURATION() public view returns(uint256){... */\n      swap1\n      jump\t// out\n        /* \"Parameters_flat.sol\":40363:40477  function get_SPOT_TIMEFRAME_DURATION() public view returns(uint256){... */\n    tag_190:\n        /* \"Parameters_flat.sol\":40447:40470  SPOT_TIMEFRAME_DURATION */\n      sload(0x11)\n        /* \"Parameters_flat.sol\":40363:40477  function get_SPOT_TIMEFRAME_DURATION() public view returns(uint256){... */\n      swap1\n      jump\t// out\n        /* \"Parameters_flat.sol\":23537:23582  uint256 public COMPLIANCE_DATA_BATCH_SIZE = 1 */\n    tag_193:\n      sload(0x17)\n      dup2\n      jump\t// out\n        /* \"Parameters_flat.sol\":22678:22725  uint256 public SPOT_REVEAL_ROUND_DURATION = 180 */\n    tag_196:\n      sload(0x0a)\n      dup2\n      jump\t// out\n        /* \"Parameters_flat.sol\":25261:25286  address public RepManager */\n    tag_199:\n      and(sub(shl(0xa0, 0x01), 0x01), sload(0x32))\n      dup2\n      jump\t// out\n        /* \"Parameters_flat.sol\":44130:44260  function get_ARCHIVING_REVEAL_ROUND_DURATION() public view returns(uint256){... */\n    tag_202:\n        /* \"Parameters_flat.sol\":44222:44253  ARCHIVING_REVEAL_ROUND_DURATION */\n      sload(0x2c)\n        /* \"Parameters_flat.sol\":44130:44260  function get_ARCHIVING_REVEAL_ROUND_DURATION() public view returns(uint256){... */\n      swap1\n      jump\t// out\n        /* \"Parameters_flat.sol\":41863:41995  function get_COMPLIANCE_REVEAL_ROUND_DURATION() public view returns(uint256){... */\n    tag_205:\n        /* \"Parameters_flat.sol\":41956:41988  COMPLIANCE_REVEAL_ROUND_DURATION */\n      sload(0x1c)\n        /* \"Parameters_flat.sol\":41863:41995  function get_COMPLIANCE_REVEAL_ROUND_DURATION() public view returns(uint256){... */\n      swap1\n      jump\t// out\n        /* \"Parameters_flat.sol\":24519:24584  uint256 public INDEXING_MIN_REP_DataValidation  = 10 * (10 ** 15) */\n    tag_208:\n      sload(0x26)\n      dup2\n      jump\t// out\n        /* \"Parameters_flat.sol\":24447:24513  uint256 public INDEXING_MIN_REWARD_DataValidation = 1 * (10 ** 15) */\n    tag_211:\n      sload(0x25)\n      dup2\n      jump\t// out\n        /* \"Parameters_flat.sol\":31113:32508  function updateContractsAddresses(address StakeManager_, address RepManager_, address Reputation_, address RewardManager_, address AddressManager_,... */\n    tag_216:\n        /* \"Parameters_flat.sol\":1952:1965  _checkOwner() */\n      tag_549\n        /* \"Parameters_flat.sol\":1952:1963  _checkOwner */\n      tag_540\n        /* \"Parameters_flat.sol\":1952:1965  _checkOwner() */\n      jump\t// in\n    tag_549:\n      sub(shl(0xa0, 0x01), 0x01)\n        /* \"Parameters_flat.sol\":31503:31530  StakeManager_ != address(0) */\n      dup12\n      and\n      iszero\n        /* \"Parameters_flat.sol\":31500:31584  if(StakeManager_ != address(0)){... */\n      tag_551\n      jumpi\n        /* \"Parameters_flat.sol\":31545:31557  StakeManager */\n      0x30\n        /* \"Parameters_flat.sol\":31545:31573  StakeManager = StakeManager_ */\n      dup1\n      sload\n      not(sub(shl(0xa0, 0x01), 0x01))\n      and\n      sub(shl(0xa0, 0x01), 0x01)\n      dup14\n      and\n      or\n      swap1\n      sstore\n        /* \"Parameters_flat.sol\":31500:31584  if(StakeManager_ != address(0)){... */\n    tag_551:\n      sub(shl(0xa0, 0x01), 0x01)\n        /* \"Parameters_flat.sol\":31596:31621  RepManager_ != address(0) */\n      dup11\n      and\n      iszero\n        /* \"Parameters_flat.sol\":31593:31671  if(RepManager_ != address(0)){... */\n      tag_552\n      jumpi\n        /* \"Parameters_flat.sol\":31636:31646  RepManager */\n      0x32\n        /* \"Parameters_flat.sol\":31636:31660  RepManager = RepManager_ */\n      dup1\n      sload\n      not(sub(shl(0xa0, 0x01), 0x01))\n      and\n      sub(shl(0xa0, 0x01), 0x01)\n      dup13\n      and\n      or\n      swap1\n      sstore\n        /* \"Parameters_flat.sol\":31593:31671  if(RepManager_ != address(0)){... */\n    tag_552:\n      sub(shl(0xa0, 0x01), 0x01)\n        /* \"Parameters_flat.sol\":31683:31708  Reputation_ != address(0) */\n      dup10\n      and\n      iszero\n        /* \"Parameters_flat.sol\":31680:31758  if(Reputation_ != address(0)){... */\n      tag_553\n      jumpi\n        /* \"Parameters_flat.sol\":31723:31733  Reputation */\n      0x31\n        /* \"Parameters_flat.sol\":31723:31747  Reputation = Reputation_ */\n      dup1\n      sload\n      not(sub(shl(0xa0, 0x01), 0x01))\n      and\n      sub(shl(0xa0, 0x01), 0x01)\n      dup12\n      and\n      or\n      swap1\n      sstore\n        /* \"Parameters_flat.sol\":31680:31758  if(Reputation_ != address(0)){... */\n    tag_553:\n      sub(shl(0xa0, 0x01), 0x01)\n        /* \"Parameters_flat.sol\":31770:31798  RewardManager_ != address(0) */\n      dup9\n      and\n      iszero\n        /* \"Parameters_flat.sol\":31767:31854  if(RewardManager_ != address(0)){... */\n      tag_554\n      jumpi\n        /* \"Parameters_flat.sol\":31813:31826  RewardManager */\n      0x33\n        /* \"Parameters_flat.sol\":31813:31843  RewardManager = RewardManager_ */\n      dup1\n      sload\n      not(sub(shl(0xa0, 0x01), 0x01))\n      and\n      sub(shl(0xa0, 0x01), 0x01)\n      dup11\n      and\n      or\n      swap1\n      sstore\n        /* \"Parameters_flat.sol\":31767:31854  if(RewardManager_ != address(0)){... */\n    tag_554:\n      sub(shl(0xa0, 0x01), 0x01)\n        /* \"Parameters_flat.sol\":31866:31895  AddressManager_ != address(0) */\n      dup8\n      and\n      iszero\n        /* \"Parameters_flat.sol\":31863:31953  if(AddressManager_ != address(0)){... */\n      tag_555\n      jumpi\n        /* \"Parameters_flat.sol\":31910:31924  AddressManager */\n      0x34\n        /* \"Parameters_flat.sol\":31910:31942  AddressManager = AddressManager_ */\n      dup1\n      sload\n      not(sub(shl(0xa0, 0x01), 0x01))\n      and\n      sub(shl(0xa0, 0x01), 0x01)\n      dup10\n      and\n      or\n      swap1\n      sstore\n        /* \"Parameters_flat.sol\":31863:31953  if(AddressManager_ != address(0)){... */\n    tag_555:\n      sub(shl(0xa0, 0x01), 0x01)\n        /* \"Parameters_flat.sol\":31965:31996  ComplianceSystem_ != address(0) */\n      dup6\n      and\n      iszero\n        /* \"Parameters_flat.sol\":31962:32058  if(ComplianceSystem_ != address(0)){... */\n      tag_556\n      jumpi\n        /* \"Parameters_flat.sol\":32011:32027  ComplianceSystem */\n      0x37\n        /* \"Parameters_flat.sol\":32011:32047  ComplianceSystem = ComplianceSystem_ */\n      dup1\n      sload\n      not(sub(shl(0xa0, 0x01), 0x01))\n      and\n      sub(shl(0xa0, 0x01), 0x01)\n      dup8\n      and\n      or\n      swap1\n      sstore\n        /* \"Parameters_flat.sol\":31962:32058  if(ComplianceSystem_ != address(0)){... */\n    tag_556:\n      sub(shl(0xa0, 0x01), 0x01)\n        /* \"Parameters_flat.sol\":32070:32099  SpottingSystem_ != address(0) */\n      dup7\n      and\n      iszero\n        /* \"Parameters_flat.sol\":32067:32157  if(SpottingSystem_ != address(0)){... */\n      tag_557\n      jumpi\n        /* \"Parameters_flat.sol\":32114:32128  SpottingSystem */\n      0x36\n        /* \"Parameters_flat.sol\":32114:32146  SpottingSystem = SpottingSystem_ */\n      dup1\n      sload\n      not(sub(shl(0xa0, 0x01), 0x01))\n      and\n      sub(shl(0xa0, 0x01), 0x01)\n      dup9\n      and\n      or\n      swap1\n      sstore\n        /* \"Parameters_flat.sol\":32067:32157  if(SpottingSystem_ != address(0)){... */\n    tag_557:\n      sub(shl(0xa0, 0x01), 0x01)\n        /* \"Parameters_flat.sol\":32169:32198  IndexingSystem_ != address(0) */\n      dup5\n      and\n      iszero\n        /* \"Parameters_flat.sol\":32166:32256  if(IndexingSystem_ != address(0)){... */\n      tag_558\n      jumpi\n        /* \"Parameters_flat.sol\":32213:32227  IndexingSystem */\n      0x38\n        /* \"Parameters_flat.sol\":32213:32245  IndexingSystem = IndexingSystem_ */\n      dup1\n      sload\n      not(sub(shl(0xa0, 0x01), 0x01))\n      and\n      sub(shl(0xa0, 0x01), 0x01)\n      dup7\n      and\n      or\n      swap1\n      sstore\n        /* \"Parameters_flat.sol\":32166:32256  if(IndexingSystem_ != address(0)){... */\n    tag_558:\n      sub(shl(0xa0, 0x01), 0x01)\n        /* \"Parameters_flat.sol\":32268:32298  ArchivingSystem_ != address(0) */\n      dup4\n      and\n      iszero\n        /* \"Parameters_flat.sol\":32265:32358  if(ArchivingSystem_ != address(0)){... */\n      tag_559\n      jumpi\n        /* \"Parameters_flat.sol\":32313:32328  ArchivingSystem */\n      0x39\n        /* \"Parameters_flat.sol\":32313:32347  ArchivingSystem = ArchivingSystem_ */\n      dup1\n      sload\n      not(sub(shl(0xa0, 0x01), 0x01))\n      and\n      sub(shl(0xa0, 0x01), 0x01)\n      dup6\n      and\n      or\n      swap1\n      sstore\n        /* \"Parameters_flat.sol\":32265:32358  if(ArchivingSystem_ != address(0)){... */\n    tag_559:\n      sub(shl(0xa0, 0x01), 0x01)\n        /* \"Parameters_flat.sol\":32370:32390  sFuel_ != address(0) */\n      dup3\n      and\n      iszero\n        /* \"Parameters_flat.sol\":32367:32430  if(sFuel_ != address(0)){... */\n      tag_560\n      jumpi\n        /* \"Parameters_flat.sol\":32405:32410  sFuel */\n      0x35\n        /* \"Parameters_flat.sol\":32405:32419  sFuel = sFuel_ */\n      dup1\n      sload\n      not(sub(shl(0xa0, 0x01), 0x01))\n      and\n      sub(shl(0xa0, 0x01), 0x01)\n      dup5\n      and\n      or\n      swap1\n      sstore\n        /* \"Parameters_flat.sol\":32367:32430  if(sFuel_ != address(0)){... */\n    tag_560:\n      sub(shl(0xa0, 0x01), 0x01)\n        /* \"Parameters_flat.sol\":32442:32462  token_ != address(0) */\n      dup2\n      and\n      iszero\n        /* \"Parameters_flat.sol\":32439:32502  if(token_ != address(0)){... */\n      tag_561\n      jumpi\n        /* \"Parameters_flat.sol\":32477:32482  token */\n      0x2f\n        /* \"Parameters_flat.sol\":32477:32491  token = token_ */\n      dup1\n      sload\n      not(sub(shl(0xa0, 0x01), 0x01))\n      and\n      sub(shl(0xa0, 0x01), 0x01)\n      dup4\n      and\n      or\n      swap1\n      sstore\n        /* \"Parameters_flat.sol\":32439:32502  if(token_ != address(0)){... */\n    tag_561:\n        /* \"Parameters_flat.sol\":31113:32508  function updateContractsAddresses(address StakeManager_, address RepManager_, address Reputation_, address RewardManager_, address AddressManager_,... */\n      pop\n      pop\n      pop\n      pop\n      pop\n      pop\n      pop\n      pop\n      pop\n      pop\n      pop\n      jump\t// out\n        /* \"Parameters_flat.sol\":38737:38820  function getExordeToken() public view returns(address){... */\n    tag_218:\n        /* \"Parameters_flat.sol\":38808:38813  token */\n      and(sub(shl(0xa0, 0x01), 0x01), sload(0x2f))\n        /* \"Parameters_flat.sol\":38737:38820  function getExordeToken() public view returns(address){... */\n      swap1\n      jump\t// out\n        /* \"Parameters_flat.sol\":39737:39853  function get_SPOT_MIN_REWARD_SpotData() public view returns(uint256){... */\n    tag_221:\n        /* \"Parameters_flat.sol\":39822:39846  SPOT_MIN_REWARD_SpotData */\n      sload(0x0b)\n        /* \"Parameters_flat.sol\":39737:39853  function get_SPOT_MIN_REWARD_SpotData() public view returns(uint256){... */\n      swap1\n      jump\t// out\n        /* \"Parameters_flat.sol\":23653:23710  uint256 public COMPLIANCE_MAX_CONSENSUS_WORKER_COUNT  = 4 */\n    tag_224:\n      sload(0x19)\n      dup2\n      jump\t// out\n        /* \"Parameters_flat.sol\":23899:23967  uint256 public COMPLIANCE_MIN_REWARD_DataValidation = 1 * (10 ** 15) */\n    tag_227:\n      sload(0x1d)\n      dup2\n      jump\t// out\n        /* \"Parameters_flat.sol\":39372:39492  function get_SPOT_COMMIT_ROUND_DURATION() public view returns(uint256){... */\n    tag_230:\n        /* \"Parameters_flat.sol\":39459:39485  SPOT_COMMIT_ROUND_DURATION */\n      sload(0x09)\n        /* \"Parameters_flat.sol\":39372:39492  function get_SPOT_COMMIT_ROUND_DURATION() public view returns(uint256){... */\n      swap1\n      jump\t// out\n        /* \"Parameters_flat.sol\":23082:23120  bool public SPOT_TOGGLE_ENABLED = true */\n    tag_233:\n      and(0xff, sload(0x10))\n      dup2\n      jump\t// out\n        /* \"Parameters_flat.sol\":43130:43266  function get_INDEXING_MIN_REWARD_DataValidation() public view returns(uint256){... */\n    tag_237:\n        /* \"Parameters_flat.sol\":43225:43259  INDEXING_MIN_REWARD_DataValidation */\n      sload(0x25)\n        /* \"Parameters_flat.sol\":43130:43266  function get_INDEXING_MIN_REWARD_DataValidation() public view returns(uint256){... */\n      swap1\n      jump\t// out\n        /* \"Parameters_flat.sol\":43850:43990  function get_ARCHIVING_MAX_CONSENSUS_WORKER_COUNT() public view returns(uint256){... */\n    tag_240:\n        /* \"Parameters_flat.sol\":43947:43983  ARCHIVING_MAX_CONSENSUS_WORKER_COUNT */\n      sload(0x29)\n        /* \"Parameters_flat.sol\":43850:43990  function get_ARCHIVING_MAX_CONSENSUS_WORKER_COUNT() public view returns(uint256){... */\n      swap1\n      jump\t// out\n        /* \"Parameters_flat.sol\":23719:23772  uint256 public COMPLIANCE_MIN_STAKE = 25 * (10 ** 18) */\n    tag_243:\n      sload(0x1a)\n      dup2\n      jump\t// out\n        /* \"Parameters_flat.sol\":24147:24202  uint256 public INDEXING_MIN_CONSENSUS_WORKER_COUNT  = 2 */\n    tag_246:\n      sload(0x20)\n      dup2\n      jump\t// out\n        /* \"Parameters_flat.sol\":38547:38644  function getArchivingSystem() public view returns(address){... */\n    tag_249:\n        /* \"Parameters_flat.sol\":38622:38637  ArchivingSystem */\n      and(sub(shl(0xa0, 0x01), 0x01), sload(0x39))\n        /* \"Parameters_flat.sol\":38547:38644  function getArchivingSystem() public view returns(address){... */\n      swap1\n      jump\t// out\n        /* \"Parameters_flat.sol\":41726:41858  function get_COMPLIANCE_COMMIT_ROUND_DURATION() public view returns(uint256){... */\n    tag_252:\n        /* \"Parameters_flat.sol\":41819:41851  COMPLIANCE_COMMIT_ROUND_DURATION */\n      sload(0x1b)\n        /* \"Parameters_flat.sol\":41726:41858  function get_COMPLIANCE_COMMIT_ROUND_DURATION() public view returns(uint256){... */\n      swap1\n      jump\t// out\n        /* \"Parameters_flat.sol\":44408:44540  function get_ARCHIVING_MIN_REP_DataValidation() public view returns(uint256){... */\n    tag_255:\n        /* \"Parameters_flat.sol\":44501:44533  ARCHIVING_MIN_REP_DataValidation */\n      sload(0x2e)\n        /* \"Parameters_flat.sol\":44408:44540  function get_ARCHIVING_MIN_REP_DataValidation() public view returns(uint256){... */\n      swap1\n      jump\t// out\n        /* \"Parameters_flat.sol\":22299:22351  uint256 public MAX_CONTRACT_STORED_BATCHES  = 200000 */\n    tag_258:\n      sload(0x04)\n      dup2\n      jump\t// out\n        /* \"Parameters_flat.sol\":40251:40354  function get_SPOT_TOGGLE_ENABLED() public view returns(bool){... */\n    tag_261:\n        /* \"Parameters_flat.sol\":40328:40347  SPOT_TOGGLE_ENABLED */\n      and(0xff, sload(0x10))\n        /* \"Parameters_flat.sol\":40251:40354  function get_SPOT_TOGGLE_ENABLED() public view returns(bool){... */\n      swap1\n      jump\t// out\n        /* \"Parameters_flat.sol\":24639:24683  uint256 public ARCHIVING_DATA_BATCH_SIZE = 1 */\n    tag_264:\n      sload(0x27)\n      dup2\n      jump\t// out\n        /* \"Parameters_flat.sol\":25292:25320  address public RewardManager */\n    tag_267:\n      and(sub(shl(0xa0, 0x01), 0x01), sload(0x33))\n      dup2\n      jump\t// out\n        /* \"Parameters_flat.sol\":24877:24929  uint256 public ARCHIVING_COMMIT_ROUND_DURATION = 400 */\n    tag_270:\n      sload(0x2b)\n      dup2\n      jump\t// out\n        /* \"Parameters_flat.sol\":38041:38136  function getAddressManager() public view returns(address){... */\n    tag_273:\n        /* \"Parameters_flat.sol\":38115:38129  AddressManager */\n      and(sub(shl(0xa0, 0x01), 0x01), sload(0x34))\n        /* \"Parameters_flat.sol\":38041:38136  function getAddressManager() public view returns(address){... */\n      swap1\n      jump\t// out\n        /* \"Parameters_flat.sol\":38649:38732  function getsFuelSystem() public view returns(address){... */\n    tag_276:\n        /* \"Parameters_flat.sol\":38720:38725  sFuel */\n      and(sub(shl(0xa0, 0x01), 0x01), sload(0x35))\n        /* \"Parameters_flat.sol\":38649:38732  function getsFuelSystem() public view returns(address){... */\n      swap1\n      jump\t// out\n        /* \"Parameters_flat.sol\":36266:37180  function updateArchivingParameters(uint256 ParameterIndex, uint256 uintValue) public onlyOwner {        ... */\n    tag_281:\n        /* \"Parameters_flat.sol\":1952:1965  _checkOwner() */\n      tag_574\n        /* \"Parameters_flat.sol\":1952:1963  _checkOwner */\n      tag_540\n        /* \"Parameters_flat.sol\":1952:1965  _checkOwner() */\n      jump\t// in\n    tag_574:\n        /* \"Parameters_flat.sol\":36382:36396  ParameterIndex */\n      dup2\n        /* \"Parameters_flat.sol\":36400:36401  1 */\n      0x01\n        /* \"Parameters_flat.sol\":36382:36401  ParameterIndex == 1 */\n      eq\n        /* \"Parameters_flat.sol\":36379:36464  if(ParameterIndex == 1){... */\n      iszero\n      tag_576\n      jumpi\n        /* \"Parameters_flat.sol\":36416:36441  ARCHIVING_DATA_BATCH_SIZE */\n      0x27\n        /* \"Parameters_flat.sol\":36416:36453  ARCHIVING_DATA_BATCH_SIZE = uintValue */\n      dup2\n      swap1\n      sstore\n        /* \"Parameters_flat.sol\":36379:36464  if(ParameterIndex == 1){... */\n    tag_576:\n        /* \"Parameters_flat.sol\":36476:36490  ParameterIndex */\n      dup2\n        /* \"Parameters_flat.sol\":36494:36495  2 */\n      0x02\n        /* \"Parameters_flat.sol\":36476:36495  ParameterIndex == 2 */\n      eq\n        /* \"Parameters_flat.sol\":36473:36553  if(ParameterIndex == 2){... */\n      iszero\n      tag_577\n      jumpi\n        /* \"Parameters_flat.sol\":36510:36529  ARCHIVING_MIN_STAKE */\n      0x2a\n        /* \"Parameters_flat.sol\":36510:36542  ARCHIVING_MIN_STAKE  = uintValue */\n      dup2\n      swap1\n      sstore\n        /* \"Parameters_flat.sol\":36473:36553  if(ParameterIndex == 2){... */\n    tag_577:\n        /* \"Parameters_flat.sol\":36565:36579  ParameterIndex */\n      dup2\n        /* \"Parameters_flat.sol\":36583:36584  3 */\n      0x03\n        /* \"Parameters_flat.sol\":36565:36584  ParameterIndex == 3 */\n      eq\n        /* \"Parameters_flat.sol\":36562:36659  if(ParameterIndex == 3){... */\n      iszero\n      tag_578\n      jumpi\n        /* \"Parameters_flat.sol\":36599:36635  ARCHIVING_MIN_CONSENSUS_WORKER_COUNT */\n      0x28\n        /* \"Parameters_flat.sol\":36599:36648  ARCHIVING_MIN_CONSENSUS_WORKER_COUNT  = uintValue */\n      dup2\n      swap1\n      sstore\n        /* \"Parameters_flat.sol\":36562:36659  if(ParameterIndex == 3){... */\n    tag_578:\n        /* \"Parameters_flat.sol\":36671:36685  ParameterIndex */\n      dup2\n        /* \"Parameters_flat.sol\":36689:36690  4 */\n      0x04\n        /* \"Parameters_flat.sol\":36671:36690  ParameterIndex == 4 */\n      eq\n        /* \"Parameters_flat.sol\":36668:36765  if(ParameterIndex == 4){... */\n      iszero\n      tag_579\n      jumpi\n        /* \"Parameters_flat.sol\":36705:36741  ARCHIVING_MAX_CONSENSUS_WORKER_COUNT */\n      0x29\n        /* \"Parameters_flat.sol\":36705:36754  ARCHIVING_MAX_CONSENSUS_WORKER_COUNT  = uintValue */\n      dup2\n      swap1\n      sstore\n        /* \"Parameters_flat.sol\":36668:36765  if(ParameterIndex == 4){... */\n    tag_579:\n        /* \"Parameters_flat.sol\":36777:36791  ParameterIndex */\n      dup2\n        /* \"Parameters_flat.sol\":36795:36796  5 */\n      0x05\n        /* \"Parameters_flat.sol\":36777:36796  ParameterIndex == 5 */\n      eq\n        /* \"Parameters_flat.sol\":36774:36866  if(ParameterIndex == 5){... */\n      iszero\n      tag_580\n      jumpi\n        /* \"Parameters_flat.sol\":36811:36842  ARCHIVING_COMMIT_ROUND_DURATION */\n      0x2b\n        /* \"Parameters_flat.sol\":36811:36855  ARCHIVING_COMMIT_ROUND_DURATION  = uintValue */\n      dup2\n      swap1\n      sstore\n        /* \"Parameters_flat.sol\":36774:36866  if(ParameterIndex == 5){... */\n    tag_580:\n        /* \"Parameters_flat.sol\":36878:36892  ParameterIndex */\n      dup2\n        /* \"Parameters_flat.sol\":36896:36897  6 */\n      0x06\n        /* \"Parameters_flat.sol\":36878:36897  ParameterIndex == 6 */\n      eq\n        /* \"Parameters_flat.sol\":36875:36967  if(ParameterIndex == 6){... */\n      iszero\n      tag_581\n      jumpi\n        /* \"Parameters_flat.sol\":36912:36943  ARCHIVING_REVEAL_ROUND_DURATION */\n      0x2c\n        /* \"Parameters_flat.sol\":36912:36956  ARCHIVING_REVEAL_ROUND_DURATION  = uintValue */\n      dup2\n      swap1\n      sstore\n        /* \"Parameters_flat.sol\":36875:36967  if(ParameterIndex == 6){... */\n    tag_581:\n        /* \"Parameters_flat.sol\":36979:36993  ParameterIndex */\n      dup2\n        /* \"Parameters_flat.sol\":36997:36998  7 */\n      0x07\n        /* \"Parameters_flat.sol\":36979:36998  ParameterIndex == 7 */\n      eq\n        /* \"Parameters_flat.sol\":36976:37069  if(ParameterIndex == 7){... */\n      iszero\n      tag_582\n      jumpi\n        /* \"Parameters_flat.sol\":37013:37045  ARCHIVING_MIN_REP_DataValidation */\n      0x2e\n        /* \"Parameters_flat.sol\":37013:37058  ARCHIVING_MIN_REP_DataValidation  = uintValue */\n      dup2\n      swap1\n      sstore\n        /* \"Parameters_flat.sol\":36976:37069  if(ParameterIndex == 7){... */\n    tag_582:\n        /* \"Parameters_flat.sol\":37081:37095  ParameterIndex */\n      dup2\n        /* \"Parameters_flat.sol\":37099:37100  8 */\n      0x08\n        /* \"Parameters_flat.sol\":37081:37100  ParameterIndex == 8 */\n      eq\n        /* \"Parameters_flat.sol\":37078:37174  if(ParameterIndex == 8){... */\n      iszero\n      tag_583\n      jumpi\n        /* \"Parameters_flat.sol\":37115:37150  ARCHIVING_MIN_REWARD_DataValidation */\n      0x2d\n        /* \"Parameters_flat.sol\":37115:37163  ARCHIVING_MIN_REWARD_DataValidation  = uintValue */\n      dup2\n      swap1\n      sstore\n        /* \"Parameters_flat.sol\":37078:37174  if(ParameterIndex == 8){... */\n    tag_583:\n        /* \"Parameters_flat.sol\":36266:37180  function updateArchivingParameters(uint256 ParameterIndex, uint256 uintValue) public onlyOwner {        ... */\n      pop\n      pop\n      jump\t// out\n        /* \"Parameters_flat.sol\":22800:22855  uint256 public SPOT_MIN_REP_SpotData  = 10 * (10 ** 15) */\n    tag_283:\n      sload(0x0c)\n      dup2\n      jump\t// out\n        /* \"Parameters_flat.sol\":24690:24746  uint256 public ARCHIVING_MIN_CONSENSUS_WORKER_COUNT  = 2 */\n    tag_286:\n      sload(0x28)\n      dup2\n      jump\t// out\n        /* \"Parameters_flat.sol\":30644:31107  function updateGeneralParameters(uint256 ParameterIndex, uint256 uintValue) public onlyOwner {        ... */\n    tag_290:\n        /* \"Parameters_flat.sol\":1952:1965  _checkOwner() */\n      tag_585\n        /* \"Parameters_flat.sol\":1952:1963  _checkOwner */\n      tag_540\n        /* \"Parameters_flat.sol\":1952:1965  _checkOwner() */\n      jump\t// in\n    tag_585:\n        /* \"Parameters_flat.sol\":30758:30772  ParameterIndex */\n      dup2\n        /* \"Parameters_flat.sol\":30776:30777  1 */\n      0x01\n        /* \"Parameters_flat.sol\":30758:30777  ParameterIndex == 1 */\n      eq\n        /* \"Parameters_flat.sol\":30755:30832  if(ParameterIndex == 1){... */\n      iszero\n      tag_587\n      jumpi\n        /* \"Parameters_flat.sol\":30792:30809  MAX_TOTAL_WORKERS */\n      0x01\n        /* \"Parameters_flat.sol\":30792:30821  MAX_TOTAL_WORKERS = uintValue */\n      dup2\n      swap1\n      sstore\n        /* \"Parameters_flat.sol\":30755:30832  if(ParameterIndex == 1){... */\n    tag_587:\n        /* \"Parameters_flat.sol\":30844:30858  ParameterIndex */\n      dup2\n        /* \"Parameters_flat.sol\":30862:30863  2 */\n      0x02\n        /* \"Parameters_flat.sol\":30844:30863  ParameterIndex == 2 */\n      eq\n        /* \"Parameters_flat.sol\":30841:30913  if(ParameterIndex == 2){... */\n      iszero\n      tag_588\n      jumpi\n        /* \"Parameters_flat.sol\":30878:30889  VOTE_QUORUM */\n      0x02\n        /* \"Parameters_flat.sol\":30878:30902  VOTE_QUORUM  = uintValue */\n      dup2\n      swap1\n      sstore\n        /* \"Parameters_flat.sol\":30841:30913  if(ParameterIndex == 2){... */\n    tag_588:\n        /* \"Parameters_flat.sol\":30925:30939  ParameterIndex */\n      dup2\n        /* \"Parameters_flat.sol\":30943:30944  3 */\n      0x03\n        /* \"Parameters_flat.sol\":30925:30944  ParameterIndex == 3 */\n      eq\n        /* \"Parameters_flat.sol\":30922:31004  if(ParameterIndex == 3){... */\n      iszero\n      tag_589\n      jumpi\n        /* \"Parameters_flat.sol\":30959:30980  MAX_UPDATE_ITERATIONS */\n      0x03\n        /* \"Parameters_flat.sol\":30959:30993  MAX_UPDATE_ITERATIONS  = uintValue */\n      dup2\n      swap1\n      sstore\n        /* \"Parameters_flat.sol\":30922:31004  if(ParameterIndex == 3){... */\n    tag_589:\n        /* \"Parameters_flat.sol\":31016:31030  ParameterIndex */\n      dup2\n        /* \"Parameters_flat.sol\":31034:31035  4 */\n      0x04\n        /* \"Parameters_flat.sol\":31016:31035  ParameterIndex == 4 */\n      eq\n        /* \"Parameters_flat.sol\":31013:31101  if(ParameterIndex == 4){... */\n      iszero\n      tag_583\n      jumpi\n        /* \"Parameters_flat.sol\":31050:31077  MAX_CONTRACT_STORED_BATCHES */\n      0x04\n        /* \"Parameters_flat.sol\":31050:31090  MAX_CONTRACT_STORED_BATCHES  = uintValue */\n      sstore\n      pop\n        /* \"Parameters_flat.sol\":30644:31107  function updateGeneralParameters(uint256 ParameterIndex, uint256 uintValue) public onlyOwner {        ... */\n      jump\t// out\n        /* \"Parameters_flat.sol\":23779:23832  uint256 public COMPLIANCE_COMMIT_ROUND_DURATION = 400 */\n    tag_292:\n      sload(0x1b)\n      dup2\n      jump\t// out\n        /* \"Parameters_flat.sol\":23973:24040  uint256 public COMPLIANCE_MIN_REP_DataValidation  = 10 * (10 ** 15) */\n    tag_295:\n      sload(0x1e)\n      dup2\n      jump\t// out\n        /* \"Parameters_flat.sol\":2689:2790  function renounceOwnership() public virtual onlyOwner {... */\n    tag_298:\n        /* \"Parameters_flat.sol\":1952:1965  _checkOwner() */\n      tag_592\n        /* \"Parameters_flat.sol\":1952:1963  _checkOwner */\n      tag_540\n        /* \"Parameters_flat.sol\":1952:1965  _checkOwner() */\n      jump\t// in\n    tag_592:\n        /* \"Parameters_flat.sol\":2753:2783  _transferOwnership(address(0)) */\n      tag_594\n        /* \"Parameters_flat.sol\":2780:2781  0 */\n      0x00\n        /* \"Parameters_flat.sol\":2753:2771  _transferOwnership */\n      tag_595\n        /* \"Parameters_flat.sol\":2753:2783  _transferOwnership(address(0)) */\n      jump\t// in\n    tag_594:\n        /* \"Parameters_flat.sol\":2689:2790  function renounceOwnership() public virtual onlyOwner {... */\n      jump\t// out\n        /* \"Parameters_flat.sol\":23589:23646  uint256 public COMPLIANCE_MIN_CONSENSUS_WORKER_COUNT  = 2 */\n    tag_300:\n      sload(0x18)\n      dup2\n      jump\t// out\n        /* \"Parameters_flat.sol\":39497:39617  function get_SPOT_REVEAL_ROUND_DURATION() public view returns(uint256){... */\n    tag_303:\n        /* \"Parameters_flat.sol\":39584:39610  SPOT_REVEAL_ROUND_DURATION */\n      sload(0x0a)\n        /* \"Parameters_flat.sol\":39497:39617  function get_SPOT_REVEAL_ROUND_DURATION() public view returns(uint256){... */\n      swap1\n      jump\t// out\n        /* \"Parameters_flat.sol\":35354:36259  function updateIndexingParameters(uint256 ParameterIndex, uint256 uintValue) public onlyOwner {        ... */\n    tag_307:\n        /* \"Parameters_flat.sol\":1952:1965  _checkOwner() */\n      tag_598\n        /* \"Parameters_flat.sol\":1952:1963  _checkOwner */\n      tag_540\n        /* \"Parameters_flat.sol\":1952:1965  _checkOwner() */\n      jump\t// in\n    tag_598:\n        /* \"Parameters_flat.sol\":35469:35483  ParameterIndex */\n      dup2\n        /* \"Parameters_flat.sol\":35487:35488  1 */\n      0x01\n        /* \"Parameters_flat.sol\":35469:35488  ParameterIndex == 1 */\n      eq\n        /* \"Parameters_flat.sol\":35466:35550  if(ParameterIndex == 1){... */\n      iszero\n      tag_600\n      jumpi\n        /* \"Parameters_flat.sol\":35503:35527  INDEXING_DATA_BATCH_SIZE */\n      0x1f\n        /* \"Parameters_flat.sol\":35503:35539  INDEXING_DATA_BATCH_SIZE = uintValue */\n      dup2\n      swap1\n      sstore\n        /* \"Parameters_flat.sol\":35466:35550  if(ParameterIndex == 1){... */\n    tag_600:\n        /* \"Parameters_flat.sol\":35562:35576  ParameterIndex */\n      dup2\n        /* \"Parameters_flat.sol\":35580:35581  2 */\n      0x02\n        /* \"Parameters_flat.sol\":35562:35581  ParameterIndex == 2 */\n      eq\n        /* \"Parameters_flat.sol\":35559:35638  if(ParameterIndex == 2){... */\n      iszero\n      tag_601\n      jumpi\n        /* \"Parameters_flat.sol\":35596:35614  INDEXING_MIN_STAKE */\n      0x22\n        /* \"Parameters_flat.sol\":35596:35627  INDEXING_MIN_STAKE  = uintValue */\n      dup2\n      swap1\n      sstore\n        /* \"Parameters_flat.sol\":35559:35638  if(ParameterIndex == 2){... */\n    tag_601:\n        /* \"Parameters_flat.sol\":35650:35664  ParameterIndex */\n      dup2\n        /* \"Parameters_flat.sol\":35668:35669  3 */\n      0x03\n        /* \"Parameters_flat.sol\":35650:35669  ParameterIndex == 3 */\n      eq\n        /* \"Parameters_flat.sol\":35647:35743  if(ParameterIndex == 3){... */\n      iszero\n      tag_602\n      jumpi\n        /* \"Parameters_flat.sol\":35684:35719  INDEXING_MIN_CONSENSUS_WORKER_COUNT */\n      0x20\n        /* \"Parameters_flat.sol\":35684:35732  INDEXING_MIN_CONSENSUS_WORKER_COUNT  = uintValue */\n      dup2\n      swap1\n      sstore\n        /* \"Parameters_flat.sol\":35647:35743  if(ParameterIndex == 3){... */\n    tag_602:\n        /* \"Parameters_flat.sol\":35755:35769  ParameterIndex */\n      dup2\n        /* \"Parameters_flat.sol\":35773:35774  4 */\n      0x04\n        /* \"Parameters_flat.sol\":35755:35774  ParameterIndex == 4 */\n      eq\n        /* \"Parameters_flat.sol\":35752:35848  if(ParameterIndex == 4){... */\n      iszero\n      tag_603\n      jumpi\n        /* \"Parameters_flat.sol\":35789:35824  INDEXING_MAX_CONSENSUS_WORKER_COUNT */\n      0x21\n        /* \"Parameters_flat.sol\":35789:35837  INDEXING_MAX_CONSENSUS_WORKER_COUNT  = uintValue */\n      dup2\n      swap1\n      sstore\n        /* \"Parameters_flat.sol\":35752:35848  if(ParameterIndex == 4){... */\n    tag_603:\n        /* \"Parameters_flat.sol\":35860:35874  ParameterIndex */\n      dup2\n        /* \"Parameters_flat.sol\":35878:35879  5 */\n      0x05\n        /* \"Parameters_flat.sol\":35860:35879  ParameterIndex == 5 */\n      eq\n        /* \"Parameters_flat.sol\":35857:35948  if(ParameterIndex == 5){... */\n      iszero\n      tag_604\n      jumpi\n        /* \"Parameters_flat.sol\":35894:35924  INDEXING_COMMIT_ROUND_DURATION */\n      0x23\n        /* \"Parameters_flat.sol\":35894:35937  INDEXING_COMMIT_ROUND_DURATION  = uintValue */\n      dup2\n      swap1\n      sstore\n        /* \"Parameters_flat.sol\":35857:35948  if(ParameterIndex == 5){... */\n    tag_604:\n        /* \"Parameters_flat.sol\":35960:35974  ParameterIndex */\n      dup2\n        /* \"Parameters_flat.sol\":35978:35979  6 */\n      0x06\n        /* \"Parameters_flat.sol\":35960:35979  ParameterIndex == 6 */\n      eq\n        /* \"Parameters_flat.sol\":35957:36048  if(ParameterIndex == 6){... */\n      iszero\n      tag_605\n      jumpi\n        /* \"Parameters_flat.sol\":35994:36024  INDEXING_REVEAL_ROUND_DURATION */\n      0x24\n        /* \"Parameters_flat.sol\":35994:36037  INDEXING_REVEAL_ROUND_DURATION  = uintValue */\n      dup2\n      swap1\n      sstore\n        /* \"Parameters_flat.sol\":35957:36048  if(ParameterIndex == 6){... */\n    tag_605:\n        /* \"Parameters_flat.sol\":36060:36074  ParameterIndex */\n      dup2\n        /* \"Parameters_flat.sol\":36078:36079  7 */\n      0x07\n        /* \"Parameters_flat.sol\":36060:36079  ParameterIndex == 7 */\n      eq\n        /* \"Parameters_flat.sol\":36057:36149  if(ParameterIndex == 7){... */\n      iszero\n      tag_606\n      jumpi\n        /* \"Parameters_flat.sol\":36094:36125  INDEXING_MIN_REP_DataValidation */\n      0x26\n        /* \"Parameters_flat.sol\":36094:36138  INDEXING_MIN_REP_DataValidation  = uintValue */\n      dup2\n      swap1\n      sstore\n        /* \"Parameters_flat.sol\":36057:36149  if(ParameterIndex == 7){... */\n    tag_606:\n        /* \"Parameters_flat.sol\":36161:36175  ParameterIndex */\n      dup2\n        /* \"Parameters_flat.sol\":36179:36180  8 */\n      0x08\n        /* \"Parameters_flat.sol\":36161:36180  ParameterIndex == 8 */\n      eq\n        /* \"Parameters_flat.sol\":36158:36253  if(ParameterIndex == 8){... */\n      iszero\n      tag_583\n      jumpi\n        /* \"Parameters_flat.sol\":36195:36229  INDEXING_MIN_REWARD_DataValidation */\n      0x25\n        /* \"Parameters_flat.sol\":36195:36242  INDEXING_MIN_REWARD_DataValidation  = uintValue */\n      sstore\n      pop\n        /* \"Parameters_flat.sol\":35354:36259  function updateIndexingParameters(uint256 ParameterIndex, uint256 uintValue) public onlyOwner {        ... */\n      jump\t// out\n        /* \"Parameters_flat.sol\":24273:24324  uint256 public INDEXING_MIN_STAKE = 25 * (10 ** 18) */\n    tag_309:\n      sload(0x22)\n      dup2\n      jump\t// out\n        /* \"Parameters_flat.sol\":38447:38542  function getIndexingSystem() public view returns(address){... */\n    tag_312:\n        /* \"Parameters_flat.sol\":38521:38535  IndexingSystem */\n      and(sub(shl(0xa0, 0x01), 0x01), sload(0x38))\n        /* \"Parameters_flat.sol\":38447:38542  function getIndexingSystem() public view returns(address){... */\n      swap1\n      jump\t// out\n        /* \"Parameters_flat.sol\":25330:25359  address public AddressManager */\n    tag_315:\n      and(sub(shl(0xa0, 0x01), 0x01), sload(0x34))\n      dup2\n      jump\t// out\n        /* \"Parameters_flat.sol\":37445:37555  function get_MAX_UPDATE_ITERATIONS() public view returns(uint256){... */\n    tag_318:\n        /* \"Parameters_flat.sol\":37527:37548  MAX_UPDATE_ITERATIONS */\n      sload(0x03)\n        /* \"Parameters_flat.sol\":37445:37555  function get_MAX_UPDATE_ITERATIONS() public view returns(uint256){... */\n      swap1\n      jump\t// out\n        /* \"Parameters_flat.sol\":24388:24439  uint256 public INDEXING_REVEAL_ROUND_DURATION = 180 */\n    tag_321:\n      sload(0x24)\n      dup2\n      jump\t// out\n        /* \"Parameters_flat.sol\":24935:24987  uint256 public ARCHIVING_REVEAL_ROUND_DURATION = 180 */\n    tag_324:\n      sload(0x2c)\n      dup2\n      jump\t// out\n        /* \"Parameters_flat.sol\":25197:25224  address public StakeManager */\n    tag_327:\n      and(sub(shl(0xa0, 0x01), 0x01), sload(0x30))\n      dup2\n      jump\t// out\n        /* \"Parameters_flat.sol\":43271:43401  function get_INDEXING_MIN_REP_DataValidation() public view returns(uint256){... */\n    tag_330:\n        /* \"Parameters_flat.sol\":43363:43394  INDEXING_MIN_REP_DataValidation */\n      sload(0x26)\n        /* \"Parameters_flat.sol\":43271:43401  function get_INDEXING_MIN_REP_DataValidation() public view returns(uint256){... */\n      swap1\n      jump\t// out\n        /* \"Parameters_flat.sol\":22929:22990  uint256 public SPOT_MIN_REP_DataValidation  = 10 * (10 ** 15) */\n    tag_333:\n      sload(0x0e)\n      dup2\n      jump\t// out\n        /* \"Parameters_flat.sol\":22861:22923  uint256 public SPOT_MIN_REWARD_DataValidation = 1 * (10 ** 15) */\n    tag_336:\n      sload(0x0d)\n      dup2\n      jump\t// out\n        /* \"Parameters_flat.sol\":23126:23173  uint256 public SPOT_TIMEFRAME_DURATION  = 15*60 */\n    tag_339:\n      sload(0x11)\n      dup2\n      jump\t// out\n        /* \"Parameters_flat.sol\":44265:44403  function get_ARCHIVING_MIN_REWARD_DataValidation() public view returns(uint256){... */\n    tag_342:\n        /* \"Parameters_flat.sol\":44361:44396  ARCHIVING_MIN_REWARD_DataValidation */\n      sload(0x2d)\n        /* \"Parameters_flat.sol\":44265:44403  function get_ARCHIVING_MIN_REWARD_DataValidation() public view returns(uint256){... */\n      swap1\n      jump\t// out\n        /* \"Parameters_flat.sol\":42145:42279  function get_COMPLIANCE_MIN_REP_DataValidation() public view returns(uint256){... */\n    tag_345:\n        /* \"Parameters_flat.sol\":42239:42272  COMPLIANCE_MIN_REP_DataValidation */\n      sload(0x1e)\n        /* \"Parameters_flat.sol\":42145:42279  function get_COMPLIANCE_MIN_REP_DataValidation() public view returns(uint256){... */\n      swap1\n      jump\t// out\n        /* \"Parameters_flat.sol\":42997:43125  function get_INDEXING_REVEAL_ROUND_DURATION() public view returns(uint256){... */\n    tag_348:\n        /* \"Parameters_flat.sol\":43088:43118  INDEXING_REVEAL_ROUND_DURATION */\n      sload(0x24)\n        /* \"Parameters_flat.sol\":42997:43125  function get_INDEXING_REVEAL_ROUND_DURATION() public view returns(uint256){... */\n      swap1\n      jump\t// out\n        /* \"Parameters_flat.sol\":2059:2144  function owner() public view virtual returns (address) {... */\n    tag_351:\n        /* \"Parameters_flat.sol\":2105:2112  address */\n      0x00\n        /* \"Parameters_flat.sol\":2131:2137  _owner */\n      sload\n      sub(shl(0xa0, 0x01), 0x01)\n      and\n        /* \"Parameters_flat.sol\":2059:2144  function owner() public view virtual returns (address) {... */\n      swap1\n      jump\t// out\n        /* \"Parameters_flat.sol\":42864:42992  function get_INDEXING_COMMIT_ROUND_DURATION() public view returns(uint256){... */\n    tag_354:\n        /* \"Parameters_flat.sol\":42955:42985  INDEXING_COMMIT_ROUND_DURATION */\n      sload(0x23)\n        /* \"Parameters_flat.sol\":42864:42992  function get_INDEXING_COMMIT_ROUND_DURATION() public view returns(uint256){... */\n      swap1\n      jump\t// out\n        /* \"Parameters_flat.sol\":22248:22290  uint256 public MAX_UPDATE_ITERATIONS  = 50 */\n    tag_357:\n      sload(0x03)\n      dup2\n      jump\t// out\n        /* \"Parameters_flat.sol\":43995:44125  function get_ARCHIVING_COMMIT_ROUND_DURATION() public view returns(uint256){... */\n    tag_360:\n        /* \"Parameters_flat.sol\":44087:44118  ARCHIVING_COMMIT_ROUND_DURATION */\n      sload(0x2b)\n        /* \"Parameters_flat.sol\":43995:44125  function get_ARCHIVING_COMMIT_ROUND_DURATION() public view returns(uint256){... */\n      swap1\n      jump\t// out\n        /* \"Parameters_flat.sol\":37248:37347  function getMaxTotalWorkers() public view returns(uint256){... */\n    tag_363:\n        /* \"Parameters_flat.sol\":37323:37340  MAX_TOTAL_WORKERS */\n      sload(0x01)\n        /* \"Parameters_flat.sol\":37248:37347  function getMaxTotalWorkers() public view returns(uint256){... */\n      swap1\n      jump\t// out\n        /* \"Parameters_flat.sol\":25230:25255  address public Reputation */\n    tag_366:\n      and(sub(shl(0xa0, 0x01), 0x01), sload(0x31))\n      dup2\n      jump\t// out\n        /* \"Parameters_flat.sol\":43705:43845  function get_ARCHIVING_MIN_CONSENSUS_WORKER_COUNT() public view returns(uint256){... */\n    tag_369:\n        /* \"Parameters_flat.sol\":43802:43838  ARCHIVING_MIN_CONSENSUS_WORKER_COUNT */\n      sload(0x28)\n        /* \"Parameters_flat.sol\":43705:43845  function get_ARCHIVING_MIN_CONSENSUS_WORKER_COUNT() public view returns(uint256){... */\n      swap1\n      jump\t// out\n        /* \"Parameters_flat.sol\":23838:23891  uint256 public COMPLIANCE_REVEAL_ROUND_DURATION = 180 */\n    tag_372:\n      sload(0x1c)\n      dup2\n      jump\t// out\n        /* \"Parameters_flat.sol\":38888:38996  function get_SPOT_DATA_BATCH_SIZE() public view returns(uint256){... */\n    tag_375:\n        /* \"Parameters_flat.sol\":38969:38989  SPOT_DATA_BATCH_SIZE */\n      sload(0x05)\n        /* \"Parameters_flat.sol\":38888:38996  function get_SPOT_DATA_BATCH_SIZE() public view returns(uint256){... */\n      swap1\n      jump\t// out\n        /* \"Parameters_flat.sol\":40873:40985  function get_MAX_SUCCEEDING_NOVOTES() public view returns(uint256){... */\n    tag_378:\n        /* \"Parameters_flat.sol\":40956:40978  MAX_SUCCEEDING_NOVOTES */\n      sload(0x15)\n        /* \"Parameters_flat.sol\":40873:40985  function get_MAX_SUCCEEDING_NOVOTES() public view returns(uint256){... */\n      swap1\n      jump\t// out\n        /* \"Parameters_flat.sol\":42578:42716  function get_INDEXING_MIN_CONSENSUS_WORKER_COUNT() public view returns(uint256){... */\n    tag_381:\n        /* \"Parameters_flat.sol\":42674:42709  INDEXING_MIN_CONSENSUS_WORKER_COUNT */\n      sload(0x20)\n        /* \"Parameters_flat.sol\":42578:42716  function get_INDEXING_MIN_CONSENSUS_WORKER_COUNT() public view returns(uint256){... */\n      swap1\n      jump\t// out\n        /* \"Parameters_flat.sol\":22162:22201  uint256 public MAX_TOTAL_WORKERS = 1000 */\n    tag_384:\n      sload(0x01)\n      dup2\n      jump\t// out\n        /* \"Parameters_flat.sol\":22568:22619  uint256 public SPOT_MAX_CONSENSUS_WORKER_COUNT  = 4 */\n    tag_387:\n      sload(0x08)\n      dup2\n      jump\t// out\n        /* \"Parameters_flat.sol\":25365:25385  address public sFuel */\n    tag_390:\n      and(sub(shl(0xa0, 0x01), 0x01), sload(0x35))\n      dup2\n      jump\t// out\n        /* \"Parameters_flat.sol\":39622:39732  function get_SPOT_MIN_REP_SpotData() public view returns(uint256){... */\n    tag_393:\n        /* \"Parameters_flat.sol\":39704:39725  SPOT_MIN_REP_SpotData */\n      sload(0x0c)\n        /* \"Parameters_flat.sol\":39622:39732  function get_SPOT_MIN_REP_SpotData() public view returns(uint256){... */\n      swap1\n      jump\t// out\n        /* \"Parameters_flat.sol\":24753:24809  uint256 public ARCHIVING_MAX_CONSENSUS_WORKER_COUNT  = 4 */\n    tag_396:\n      sload(0x29)\n      dup2\n      jump\t// out\n        /* \"Parameters_flat.sol\":43594:43700  function get_ARCHIVING_MIN_STAKE() public view returns(uint256){... */\n    tag_399:\n        /* \"Parameters_flat.sol\":43674:43693  ARCHIVING_MIN_STAKE */\n      sload(0x2a)\n        /* \"Parameters_flat.sol\":43594:43700  function get_ARCHIVING_MIN_STAKE() public view returns(uint256){... */\n      swap1\n      jump\t// out\n        /* \"Parameters_flat.sol\":40486:40616  function get_SPOT_GLOBAL_MAX_SPOT_PER_PERIOD() public view returns(uint256){... */\n    tag_402:\n        /* \"Parameters_flat.sol\":40578:40609  SPOT_GLOBAL_MAX_SPOT_PER_PERIOD */\n      sload(0x12)\n        /* \"Parameters_flat.sol\":40486:40616  function get_SPOT_GLOBAL_MAX_SPOT_PER_PERIOD() public view returns(uint256){... */\n      swap1\n      jump\t// out\n        /* \"Parameters_flat.sol\":38243:38338  function getSpottingSystem() public view returns(address){... */\n    tag_405:\n        /* \"Parameters_flat.sol\":38317:38331  SpottingSystem */\n      and(sub(shl(0xa0, 0x01), 0x01), sload(0x36))\n        /* \"Parameters_flat.sol\":38243:38338  function getSpottingSystem() public view returns(address){... */\n      swap1\n      jump\t// out\n        /* \"Parameters_flat.sol\":23312:23349  uint256 public SPOT_NB_TIMEFRAMES = 4 */\n    tag_408:\n      sload(0x14)\n      dup2\n      jump\t// out\n        /* \"Parameters_flat.sol\":25499:25529  address public ArchivingSystem */\n    tag_411:\n      and(sub(shl(0xa0, 0x01), 0x01), sload(0x39))\n      dup2\n      jump\t// out\n        /* \"Parameters_flat.sol\":39102:39232  function get_SPOT_MIN_CONSENSUS_WORKER_COUNT() public view returns(uint256){... */\n    tag_414:\n        /* \"Parameters_flat.sol\":39194:39225  SPOT_MIN_CONSENSUS_WORKER_COUNT */\n      sload(0x07)\n        /* \"Parameters_flat.sol\":39102:39232  function get_SPOT_MIN_CONSENSUS_WORKER_COUNT() public view returns(uint256){... */\n      swap1\n      jump\t// out\n        /* \"Parameters_flat.sol\":40625:40759  function get_SPOT_MAX_SPOT_PER_USER_PER_PERIOD() public view returns(uint256){... */\n    tag_417:\n        /* \"Parameters_flat.sol\":40719:40752  SPOT_MAX_SPOT_PER_USER_PER_PERIOD */\n      sload(0x13)\n        /* \"Parameters_flat.sol\":40625:40759  function get_SPOT_MAX_SPOT_PER_USER_PER_PERIOD() public view returns(uint256){... */\n      swap1\n      jump\t// out\n        /* \"Parameters_flat.sol\":23252:23306  uint256 public SPOT_MAX_SPOT_PER_USER_PER_PERIOD  = 25 */\n    tag_420:\n      sload(0x13)\n      dup2\n      jump\t// out\n        /* \"Parameters_flat.sol\":42469:42573  function get_INDEXING_MIN_STAKE() public view returns(uint256){... */\n    tag_423:\n        /* \"Parameters_flat.sol\":42548:42566  INDEXING_MIN_STAKE */\n      sload(0x22)\n        /* \"Parameters_flat.sol\":42469:42573  function get_INDEXING_MIN_STAKE() public view returns(uint256){... */\n      swap1\n      jump\t// out\n        /* \"Parameters_flat.sol\":40118:40246  function get_SPOT_INTER_ALLOCATION_DURATION() public view returns(uint256){... */\n    tag_426:\n        /* \"Parameters_flat.sol\":40209:40239  SPOT_INTER_ALLOCATION_DURATION */\n      sload(0x0f)\n        /* \"Parameters_flat.sol\":40118:40246  function get_SPOT_INTER_ALLOCATION_DURATION() public view returns(uint256){... */\n      swap1\n      jump\t// out\n        /* \"Parameters_flat.sol\":22409:22448  uint256 public SPOT_DATA_BATCH_SIZE = 1 */\n    tag_429:\n      sload(0x05)\n      dup2\n      jump\t// out\n        /* \"Parameters_flat.sol\":22207:22239  uint256 public VOTE_QUORUM  = 50 */\n    tag_432:\n      sload(0x02)\n      dup2\n      jump\t// out\n        /* \"Parameters_flat.sol\":24097:24140  uint256 public INDEXING_DATA_BATCH_SIZE = 1 */\n    tag_435:\n      sload(0x1f)\n      dup2\n      jump\t// out\n        /* \"Parameters_flat.sol\":37755:37846  function getStakeManager() public view returns(address){... */\n    tag_438:\n        /* \"Parameters_flat.sol\":37827:37839  StakeManager */\n      and(sub(shl(0xa0, 0x01), 0x01), sload(0x30))\n        /* \"Parameters_flat.sol\":37755:37846  function getStakeManager() public view returns(address){... */\n      swap1\n      jump\t// out\n        /* \"Parameters_flat.sol\":42348:42464  function get_INDEXING_DATA_BATCH_SIZE() public view returns(uint256){... */\n    tag_441:\n        /* \"Parameters_flat.sol\":42433:42457  INDEXING_DATA_BATCH_SIZE */\n      sload(0x1f)\n        /* \"Parameters_flat.sol\":42348:42464  function get_INDEXING_DATA_BATCH_SIZE() public view returns(uint256){... */\n      swap1\n      jump\t// out\n        /* \"Parameters_flat.sol\":23407:23463  uint256 public NOVOTE_REGISTRATION_WAIT_DURATION  = 3600 */\n    tag_444:\n      sload(0x16)\n      dup2\n      jump\t// out\n        /* \"Parameters_flat.sol\":41194:41314  function get_COMPLIANCE_DATA_BATCH_SIZE() public view returns(uint256){... */\n    tag_447:\n        /* \"Parameters_flat.sol\":41281:41307  COMPLIANCE_DATA_BATCH_SIZE */\n      sload(0x17)\n        /* \"Parameters_flat.sol\":41194:41314  function get_COMPLIANCE_DATA_BATCH_SIZE() public view returns(uint256){... */\n      swap1\n      jump\t// out\n        /* \"Parameters_flat.sol\":23355:23397  uint256 public MAX_SUCCEEDING_NOVOTES  = 3 */\n    tag_450:\n      sload(0x15)\n      dup2\n      jump\t// out\n        /* \"Parameters_flat.sol\":22738:22794  uint256 public SPOT_MIN_REWARD_SpotData = 1 * (10 ** 15) */\n    tag_453:\n      sload(0x0b)\n      dup2\n      jump\t// out\n        /* \"Parameters_flat.sol\":25392:25421  address public SpottingSystem */\n    tag_456:\n      and(sub(shl(0xa0, 0x01), 0x01), sload(0x36))\n      dup2\n      jump\t// out\n        /* \"Parameters_flat.sol\":41579:41721  function get_COMPLIANCE_MAX_CONSENSUS_WORKER_COUNT() public view returns(uint256){... */\n    tag_459:\n        /* \"Parameters_flat.sol\":41677:41714  COMPLIANCE_MAX_CONSENSUS_WORKER_COUNT */\n      sload(0x19)\n        /* \"Parameters_flat.sol\":41579:41721  function get_COMPLIANCE_MAX_CONSENSUS_WORKER_COUNT() public view returns(uint256){... */\n      swap1\n      jump\t// out\n        /* \"Parameters_flat.sol\":39237:39367  function get_SPOT_MAX_CONSENSUS_WORKER_COUNT() public view returns(uint256){... */\n    tag_462:\n        /* \"Parameters_flat.sol\":39329:39360  SPOT_MAX_CONSENSUS_WORKER_COUNT */\n      sload(0x08)\n        /* \"Parameters_flat.sol\":39237:39367  function get_SPOT_MAX_CONSENSUS_WORKER_COUNT() public view returns(uint256){... */\n      swap1\n      jump\t// out\n        /* \"Parameters_flat.sol\":23192:23246  uint256 public SPOT_GLOBAL_MAX_SPOT_PER_PERIOD  = 1000 */\n    tag_465:\n      sload(0x12)\n      dup2\n      jump\t// out\n        /* \"Parameters_flat.sol\":34424:35347  function updateComplianceParameters(uint256 ParameterIndex, uint256 uintValue) public onlyOwner {        ... */\n    tag_469:\n        /* \"Parameters_flat.sol\":1952:1965  _checkOwner() */\n      tag_636\n        /* \"Parameters_flat.sol\":1952:1963  _checkOwner */\n      tag_540\n        /* \"Parameters_flat.sol\":1952:1965  _checkOwner() */\n      jump\t// in\n    tag_636:\n        /* \"Parameters_flat.sol\":34541:34555  ParameterIndex */\n      dup2\n        /* \"Parameters_flat.sol\":34559:34560  1 */\n      0x01\n        /* \"Parameters_flat.sol\":34541:34560  ParameterIndex == 1 */\n      eq\n        /* \"Parameters_flat.sol\":34538:34624  if(ParameterIndex == 1){... */\n      iszero\n      tag_638\n      jumpi\n        /* \"Parameters_flat.sol\":34575:34601  COMPLIANCE_DATA_BATCH_SIZE */\n      0x17\n        /* \"Parameters_flat.sol\":34575:34613  COMPLIANCE_DATA_BATCH_SIZE = uintValue */\n      dup2\n      swap1\n      sstore\n        /* \"Parameters_flat.sol\":34538:34624  if(ParameterIndex == 1){... */\n    tag_638:\n        /* \"Parameters_flat.sol\":34636:34650  ParameterIndex */\n      dup2\n        /* \"Parameters_flat.sol\":34654:34655  2 */\n      0x02\n        /* \"Parameters_flat.sol\":34636:34655  ParameterIndex == 2 */\n      eq\n        /* \"Parameters_flat.sol\":34633:34714  if(ParameterIndex == 2){... */\n      iszero\n      tag_639\n      jumpi\n        /* \"Parameters_flat.sol\":34670:34690  COMPLIANCE_MIN_STAKE */\n      0x1a\n        /* \"Parameters_flat.sol\":34670:34703  COMPLIANCE_MIN_STAKE  = uintValue */\n      dup2\n      swap1\n      sstore\n        /* \"Parameters_flat.sol\":34633:34714  if(ParameterIndex == 2){... */\n    tag_639:\n        /* \"Parameters_flat.sol\":34726:34740  ParameterIndex */\n      dup2\n        /* \"Parameters_flat.sol\":34744:34745  3 */\n      0x03\n        /* \"Parameters_flat.sol\":34726:34745  ParameterIndex == 3 */\n      eq\n        /* \"Parameters_flat.sol\":34723:34821  if(ParameterIndex == 3){... */\n      iszero\n      tag_640\n      jumpi\n        /* \"Parameters_flat.sol\":34760:34797  COMPLIANCE_MIN_CONSENSUS_WORKER_COUNT */\n      0x18\n        /* \"Parameters_flat.sol\":34760:34810  COMPLIANCE_MIN_CONSENSUS_WORKER_COUNT  = uintValue */\n      dup2\n      swap1\n      sstore\n        /* \"Parameters_flat.sol\":34723:34821  if(ParameterIndex == 3){... */\n    tag_640:\n        /* \"Parameters_flat.sol\":34833:34847  ParameterIndex */\n      dup2\n        /* \"Parameters_flat.sol\":34851:34852  4 */\n      0x04\n        /* \"Parameters_flat.sol\":34833:34852  ParameterIndex == 4 */\n      eq\n        /* \"Parameters_flat.sol\":34830:34928  if(ParameterIndex == 4){... */\n      iszero\n      tag_641\n      jumpi\n        /* \"Parameters_flat.sol\":34867:34904  COMPLIANCE_MAX_CONSENSUS_WORKER_COUNT */\n      0x19\n        /* \"Parameters_flat.sol\":34867:34917  COMPLIANCE_MAX_CONSENSUS_WORKER_COUNT  = uintValue */\n      dup2\n      swap1\n      sstore\n        /* \"Parameters_flat.sol\":34830:34928  if(ParameterIndex == 4){... */\n    tag_641:\n        /* \"Parameters_flat.sol\":34940:34954  ParameterIndex */\n      dup2\n        /* \"Parameters_flat.sol\":34958:34959  5 */\n      0x05\n        /* \"Parameters_flat.sol\":34940:34959  ParameterIndex == 5 */\n      eq\n        /* \"Parameters_flat.sol\":34937:35030  if(ParameterIndex == 5){... */\n      iszero\n      tag_642\n      jumpi\n        /* \"Parameters_flat.sol\":34974:35006  COMPLIANCE_COMMIT_ROUND_DURATION */\n      0x1b\n        /* \"Parameters_flat.sol\":34974:35019  COMPLIANCE_COMMIT_ROUND_DURATION  = uintValue */\n      dup2\n      swap1\n      sstore\n        /* \"Parameters_flat.sol\":34937:35030  if(ParameterIndex == 5){... */\n    tag_642:\n        /* \"Parameters_flat.sol\":35042:35056  ParameterIndex */\n      dup2\n        /* \"Parameters_flat.sol\":35060:35061  6 */\n      0x06\n        /* \"Parameters_flat.sol\":35042:35061  ParameterIndex == 6 */\n      eq\n        /* \"Parameters_flat.sol\":35039:35132  if(ParameterIndex == 6){... */\n      iszero\n      tag_643\n      jumpi\n        /* \"Parameters_flat.sol\":35076:35108  COMPLIANCE_REVEAL_ROUND_DURATION */\n      0x1c\n        /* \"Parameters_flat.sol\":35076:35121  COMPLIANCE_REVEAL_ROUND_DURATION  = uintValue */\n      dup2\n      swap1\n      sstore\n        /* \"Parameters_flat.sol\":35039:35132  if(ParameterIndex == 6){... */\n    tag_643:\n        /* \"Parameters_flat.sol\":35144:35158  ParameterIndex */\n      dup2\n        /* \"Parameters_flat.sol\":35162:35163  7 */\n      0x07\n        /* \"Parameters_flat.sol\":35144:35163  ParameterIndex == 7 */\n      eq\n        /* \"Parameters_flat.sol\":35141:35235  if(ParameterIndex == 7){... */\n      iszero\n      tag_644\n      jumpi\n        /* \"Parameters_flat.sol\":35178:35211  COMPLIANCE_MIN_REP_DataValidation */\n      0x1e\n        /* \"Parameters_flat.sol\":35178:35224  COMPLIANCE_MIN_REP_DataValidation  = uintValue */\n      dup2\n      swap1\n      sstore\n        /* \"Parameters_flat.sol\":35141:35235  if(ParameterIndex == 7){... */\n    tag_644:\n        /* \"Parameters_flat.sol\":35247:35261  ParameterIndex */\n      dup2\n        /* \"Parameters_flat.sol\":35265:35266  8 */\n      0x08\n        /* \"Parameters_flat.sol\":35247:35266  ParameterIndex == 8 */\n      eq\n        /* \"Parameters_flat.sol\":35244:35341  if(ParameterIndex == 8){... */\n      iszero\n      tag_583\n      jumpi\n        /* \"Parameters_flat.sol\":35281:35317  COMPLIANCE_MIN_REWARD_DataValidation */\n      0x1d\n        /* \"Parameters_flat.sol\":35281:35330  COMPLIANCE_MIN_REWARD_DataValidation  = uintValue */\n      sstore\n      pop\n        /* \"Parameters_flat.sol\":34424:35347  function updateComplianceParameters(uint256 ParameterIndex, uint256 uintValue) public onlyOwner {        ... */\n      jump\t// out\n        /* \"Parameters_flat.sol\":37560:37682  function get_MAX_CONTRACT_STORED_BATCHES() public view returns(uint256){... */\n    tag_471:\n        /* \"Parameters_flat.sol\":37648:37675  MAX_CONTRACT_STORED_BATCHES */\n      sload(0x04)\n        /* \"Parameters_flat.sol\":37560:37682  function get_MAX_CONTRACT_STORED_BATCHES() public view returns(uint256){... */\n      swap1\n      jump\t// out\n        /* \"Parameters_flat.sol\":41319:41427  function get_COMPLIANCE_MIN_STAKE() public view returns(uint256){... */\n    tag_474:\n        /* \"Parameters_flat.sol\":41400:41420  COMPLIANCE_MIN_STAKE */\n      sload(0x1a)\n        /* \"Parameters_flat.sol\":41319:41427  function get_COMPLIANCE_MIN_STAKE() public view returns(uint256){... */\n      swap1\n      jump\t// out\n        /* \"Parameters_flat.sol\":23025:23076  uint256 public SPOT_INTER_ALLOCATION_DURATION = 400 */\n    tag_477:\n      sload(0x0f)\n      dup2\n      jump\t// out\n        /* \"Parameters_flat.sol\":40764:40868  function get_SPOT_NB_TIMEFRAMES() public view returns(uint256){... */\n    tag_480:\n        /* \"Parameters_flat.sol\":40843:40861  SPOT_NB_TIMEFRAMES */\n      sload(0x14)\n        /* \"Parameters_flat.sol\":40764:40868  function get_SPOT_NB_TIMEFRAMES() public view returns(uint256){... */\n      swap1\n      jump\t// out\n        /* \"Parameters_flat.sol\":42721:42859  function get_INDEXING_MAX_CONSENSUS_WORKER_COUNT() public view returns(uint256){... */\n    tag_483:\n        /* \"Parameters_flat.sol\":42817:42852  INDEXING_MAX_CONSENSUS_WORKER_COUNT */\n      sload(0x21)\n        /* \"Parameters_flat.sol\":42721:42859  function get_INDEXING_MAX_CONSENSUS_WORKER_COUNT() public view returns(uint256){... */\n      swap1\n      jump\t// out\n        /* \"Parameters_flat.sol\":22625:22672  uint256 public SPOT_COMMIT_ROUND_DURATION = 180 */\n    tag_486:\n      sload(0x09)\n      dup2\n      jump\t// out\n        /* \"Parameters_flat.sol\":24331:24382  uint256 public INDEXING_COMMIT_ROUND_DURATION = 400 */\n    tag_489:\n      sload(0x23)\n      dup2\n      jump\t// out\n        /* \"Parameters_flat.sol\":37943:38036  function getReputationSystem() public view returns(address){... */\n    tag_492:\n        /* \"Parameters_flat.sol\":38019:38029  Reputation */\n      and(sub(shl(0xa0, 0x01), 0x01), sload(0x31))\n        /* \"Parameters_flat.sol\":37943:38036  function getReputationSystem() public view returns(address){... */\n      swap1\n      jump\t// out\n        /* \"Parameters_flat.sol\":37352:37440  function getVoteQuorum() public view returns(uint256){... */\n    tag_495:\n        /* \"Parameters_flat.sol\":37422:37433  VOTE_QUORUM */\n      sload(0x02)\n        /* \"Parameters_flat.sol\":37352:37440  function getVoteQuorum() public view returns(uint256){... */\n      swap1\n      jump\t// out\n        /* \"Parameters_flat.sol\":32524:34417  function updateSpottingParameters(uint256 ParameterIndex, uint256 uintValue, bool boolValue) public onlyOwner {        ... */\n    tag_500:\n        /* \"Parameters_flat.sol\":1952:1965  _checkOwner() */\n      tag_653\n        /* \"Parameters_flat.sol\":1952:1963  _checkOwner */\n      tag_540\n        /* \"Parameters_flat.sol\":1952:1965  _checkOwner() */\n      jump\t// in\n    tag_653:\n        /* \"Parameters_flat.sol\":32655:32669  ParameterIndex */\n      dup3\n        /* \"Parameters_flat.sol\":32673:32674  1 */\n      0x01\n        /* \"Parameters_flat.sol\":32655:32674  ParameterIndex == 1 */\n      eq\n        /* \"Parameters_flat.sol\":32652:32733  if(ParameterIndex == 1){... */\n      iszero\n      tag_655\n      jumpi\n        /* \"Parameters_flat.sol\":32689:32709  SPOT_DATA_BATCH_SIZE */\n      0x05\n        /* \"Parameters_flat.sol\":32689:32722  SPOT_DATA_BATCH_SIZE  = uintValue */\n      dup3\n      swap1\n      sstore\n        /* \"Parameters_flat.sol\":32652:32733  if(ParameterIndex == 1){... */\n    tag_655:\n        /* \"Parameters_flat.sol\":32745:32759  ParameterIndex */\n      dup3\n        /* \"Parameters_flat.sol\":32763:32764  2 */\n      0x02\n        /* \"Parameters_flat.sol\":32745:32764  ParameterIndex == 2 */\n      eq\n        /* \"Parameters_flat.sol\":32742:32817  if(ParameterIndex == 2){... */\n      iszero\n      tag_656\n      jumpi\n        /* \"Parameters_flat.sol\":32779:32793  SPOT_MIN_STAKE */\n      0x06\n        /* \"Parameters_flat.sol\":32779:32806  SPOT_MIN_STAKE  = uintValue */\n      dup3\n      swap1\n      sstore\n        /* \"Parameters_flat.sol\":32742:32817  if(ParameterIndex == 2){... */\n    tag_656:\n        /* \"Parameters_flat.sol\":32829:32843  ParameterIndex */\n      dup3\n        /* \"Parameters_flat.sol\":32847:32848  3 */\n      0x03\n        /* \"Parameters_flat.sol\":32829:32848  ParameterIndex == 3 */\n      eq\n        /* \"Parameters_flat.sol\":32826:32918  if(ParameterIndex == 3){... */\n      iszero\n      tag_657\n      jumpi\n        /* \"Parameters_flat.sol\":32863:32894  SPOT_MIN_CONSENSUS_WORKER_COUNT */\n      0x07\n        /* \"Parameters_flat.sol\":32863:32907  SPOT_MIN_CONSENSUS_WORKER_COUNT  = uintValue */\n      dup3\n      swap1\n      sstore\n        /* \"Parameters_flat.sol\":32826:32918  if(ParameterIndex == 3){... */\n    tag_657:\n        /* \"Parameters_flat.sol\":32930:32944  ParameterIndex */\n      dup3\n        /* \"Parameters_flat.sol\":32948:32949  4 */\n      0x04\n        /* \"Parameters_flat.sol\":32930:32949  ParameterIndex == 4 */\n      eq\n        /* \"Parameters_flat.sol\":32927:33019  if(ParameterIndex == 4){... */\n      iszero\n      tag_658\n      jumpi\n        /* \"Parameters_flat.sol\":32964:32995  SPOT_MAX_CONSENSUS_WORKER_COUNT */\n      0x08\n        /* \"Parameters_flat.sol\":32964:33008  SPOT_MAX_CONSENSUS_WORKER_COUNT  = uintValue */\n      dup3\n      swap1\n      sstore\n        /* \"Parameters_flat.sol\":32927:33019  if(ParameterIndex == 4){... */\n    tag_658:\n        /* \"Parameters_flat.sol\":33031:33045  ParameterIndex */\n      dup3\n        /* \"Parameters_flat.sol\":33049:33050  5 */\n      0x05\n        /* \"Parameters_flat.sol\":33031:33050  ParameterIndex == 5 */\n      eq\n        /* \"Parameters_flat.sol\":33028:33115  if(ParameterIndex == 5){... */\n      iszero\n      tag_659\n      jumpi\n        /* \"Parameters_flat.sol\":33065:33091  SPOT_COMMIT_ROUND_DURATION */\n      0x09\n        /* \"Parameters_flat.sol\":33065:33104  SPOT_COMMIT_ROUND_DURATION  = uintValue */\n      dup3\n      swap1\n      sstore\n        /* \"Parameters_flat.sol\":33028:33115  if(ParameterIndex == 5){... */\n    tag_659:\n        /* \"Parameters_flat.sol\":33127:33141  ParameterIndex */\n      dup3\n        /* \"Parameters_flat.sol\":33145:33146  6 */\n      0x06\n        /* \"Parameters_flat.sol\":33127:33146  ParameterIndex == 6 */\n      eq\n        /* \"Parameters_flat.sol\":33124:33211  if(ParameterIndex == 6){... */\n      iszero\n      tag_660\n      jumpi\n        /* \"Parameters_flat.sol\":33161:33187  SPOT_REVEAL_ROUND_DURATION */\n      0x0a\n        /* \"Parameters_flat.sol\":33161:33200  SPOT_REVEAL_ROUND_DURATION  = uintValue */\n      dup3\n      swap1\n      sstore\n        /* \"Parameters_flat.sol\":33124:33211  if(ParameterIndex == 6){... */\n    tag_660:\n        /* \"Parameters_flat.sol\":33223:33237  ParameterIndex */\n      dup3\n        /* \"Parameters_flat.sol\":33241:33242  7 */\n      0x07\n        /* \"Parameters_flat.sol\":33223:33242  ParameterIndex == 7 */\n      eq\n        /* \"Parameters_flat.sol\":33220:33305  if(ParameterIndex == 7){... */\n      iszero\n      tag_661\n      jumpi\n        /* \"Parameters_flat.sol\":33257:33281  SPOT_MIN_REWARD_SpotData */\n      0x0b\n        /* \"Parameters_flat.sol\":33257:33294  SPOT_MIN_REWARD_SpotData  = uintValue */\n      dup3\n      swap1\n      sstore\n        /* \"Parameters_flat.sol\":33220:33305  if(ParameterIndex == 7){... */\n    tag_661:\n        /* \"Parameters_flat.sol\":33317:33331  ParameterIndex */\n      dup3\n        /* \"Parameters_flat.sol\":33335:33336  8 */\n      0x08\n        /* \"Parameters_flat.sol\":33317:33336  ParameterIndex == 8 */\n      eq\n        /* \"Parameters_flat.sol\":33314:33396  if(ParameterIndex == 8){... */\n      iszero\n      tag_662\n      jumpi\n        /* \"Parameters_flat.sol\":33351:33372  SPOT_MIN_REP_SpotData */\n      0x0c\n        /* \"Parameters_flat.sol\":33351:33385  SPOT_MIN_REP_SpotData  = uintValue */\n      dup3\n      swap1\n      sstore\n        /* \"Parameters_flat.sol\":33314:33396  if(ParameterIndex == 8){... */\n    tag_662:\n        /* \"Parameters_flat.sol\":33408:33422  ParameterIndex */\n      dup3\n        /* \"Parameters_flat.sol\":33426:33427  9 */\n      0x09\n        /* \"Parameters_flat.sol\":33408:33427  ParameterIndex == 9 */\n      eq\n        /* \"Parameters_flat.sol\":33405:33496  if(ParameterIndex == 9){... */\n      iszero\n      tag_663\n      jumpi\n        /* \"Parameters_flat.sol\":33442:33472  SPOT_MIN_REWARD_DataValidation */\n      0x0d\n        /* \"Parameters_flat.sol\":33442:33485  SPOT_MIN_REWARD_DataValidation  = uintValue */\n      dup3\n      swap1\n      sstore\n        /* \"Parameters_flat.sol\":33405:33496  if(ParameterIndex == 9){... */\n    tag_663:\n        /* \"Parameters_flat.sol\":33508:33522  ParameterIndex */\n      dup3\n        /* \"Parameters_flat.sol\":33526:33528  10 */\n      0x0a\n        /* \"Parameters_flat.sol\":33508:33528  ParameterIndex == 10 */\n      eq\n        /* \"Parameters_flat.sol\":33505:33594  if(ParameterIndex == 10){... */\n      iszero\n      tag_664\n      jumpi\n        /* \"Parameters_flat.sol\":33543:33570  SPOT_MIN_REP_DataValidation */\n      0x0e\n        /* \"Parameters_flat.sol\":33543:33583  SPOT_MIN_REP_DataValidation  = uintValue */\n      dup3\n      swap1\n      sstore\n        /* \"Parameters_flat.sol\":33505:33594  if(ParameterIndex == 10){... */\n    tag_664:\n        /* \"Parameters_flat.sol\":33654:33668  ParameterIndex */\n      dup3\n        /* \"Parameters_flat.sol\":33672:33674  11 */\n      0x0b\n        /* \"Parameters_flat.sol\":33654:33674  ParameterIndex == 11 */\n      eq\n        /* \"Parameters_flat.sol\":33651:33742  if(ParameterIndex == 11){... */\n      iszero\n      tag_665\n      jumpi\n        /* \"Parameters_flat.sol\":33689:33719  SPOT_INTER_ALLOCATION_DURATION */\n      0x0f\n        /* \"Parameters_flat.sol\":33689:33731  SPOT_INTER_ALLOCATION_DURATION = uintValue */\n      dup3\n      swap1\n      sstore\n        /* \"Parameters_flat.sol\":33651:33742  if(ParameterIndex == 11){... */\n    tag_665:\n        /* \"Parameters_flat.sol\":33754:33768  ParameterIndex */\n      dup3\n        /* \"Parameters_flat.sol\":33772:33774  12 */\n      0x0c\n        /* \"Parameters_flat.sol\":33754:33774  ParameterIndex == 12 */\n      eq\n        /* \"Parameters_flat.sol\":33751:33831  if(ParameterIndex == 12){... */\n      iszero\n      tag_666\n      jumpi\n        /* \"Parameters_flat.sol\":33789:33808  SPOT_TOGGLE_ENABLED */\n      0x10\n        /* \"Parameters_flat.sol\":33789:33820  SPOT_TOGGLE_ENABLED = boolValue */\n      dup1\n      sload\n      not(0xff)\n      and\n      dup3\n      iszero\n      iszero\n      or\n      swap1\n      sstore\n        /* \"Parameters_flat.sol\":33751:33831  if(ParameterIndex == 12){... */\n    tag_666:\n        /* \"Parameters_flat.sol\":33843:33857  ParameterIndex */\n      dup3\n        /* \"Parameters_flat.sol\":33861:33863  13 */\n      0x0d\n        /* \"Parameters_flat.sol\":33843:33863  ParameterIndex == 13 */\n      eq\n        /* \"Parameters_flat.sol\":33840:33924  if(ParameterIndex == 13){... */\n      iszero\n      tag_667\n      jumpi\n        /* \"Parameters_flat.sol\":33878:33901  SPOT_TIMEFRAME_DURATION */\n      0x11\n        /* \"Parameters_flat.sol\":33878:33913  SPOT_TIMEFRAME_DURATION = uintValue */\n      dup3\n      swap1\n      sstore\n        /* \"Parameters_flat.sol\":33840:33924  if(ParameterIndex == 13){... */\n    tag_667:\n        /* \"Parameters_flat.sol\":33936:33950  ParameterIndex */\n      dup3\n        /* \"Parameters_flat.sol\":33954:33956  14 */\n      0x0e\n        /* \"Parameters_flat.sol\":33936:33956  ParameterIndex == 14 */\n      eq\n        /* \"Parameters_flat.sol\":33933:34025  if(ParameterIndex == 14){... */\n      iszero\n      tag_668\n      jumpi\n        /* \"Parameters_flat.sol\":33971:34002  SPOT_GLOBAL_MAX_SPOT_PER_PERIOD */\n      0x12\n        /* \"Parameters_flat.sol\":33971:34014  SPOT_GLOBAL_MAX_SPOT_PER_PERIOD = uintValue */\n      dup3\n      swap1\n      sstore\n        /* \"Parameters_flat.sol\":33933:34025  if(ParameterIndex == 14){... */\n    tag_668:\n        /* \"Parameters_flat.sol\":34037:34051  ParameterIndex */\n      dup3\n        /* \"Parameters_flat.sol\":34055:34057  15 */\n      0x0f\n        /* \"Parameters_flat.sol\":34037:34057  ParameterIndex == 15 */\n      eq\n        /* \"Parameters_flat.sol\":34034:34128  if(ParameterIndex == 15){... */\n      iszero\n      tag_669\n      jumpi\n        /* \"Parameters_flat.sol\":34072:34105  SPOT_MAX_SPOT_PER_USER_PER_PERIOD */\n      0x13\n        /* \"Parameters_flat.sol\":34072:34117  SPOT_MAX_SPOT_PER_USER_PER_PERIOD = uintValue */\n      dup3\n      swap1\n      sstore\n        /* \"Parameters_flat.sol\":34034:34128  if(ParameterIndex == 15){... */\n    tag_669:\n        /* \"Parameters_flat.sol\":34140:34154  ParameterIndex */\n      dup3\n        /* \"Parameters_flat.sol\":34158:34160  16 */\n      0x10\n        /* \"Parameters_flat.sol\":34140:34160  ParameterIndex == 16 */\n      eq\n        /* \"Parameters_flat.sol\":34137:34216  if(ParameterIndex == 16){... */\n      iszero\n      tag_670\n      jumpi\n        /* \"Parameters_flat.sol\":34175:34193  SPOT_NB_TIMEFRAMES */\n      0x14\n        /* \"Parameters_flat.sol\":34175:34205  SPOT_NB_TIMEFRAMES = uintValue */\n      dup3\n      swap1\n      sstore\n        /* \"Parameters_flat.sol\":34137:34216  if(ParameterIndex == 16){... */\n    tag_670:\n        /* \"Parameters_flat.sol\":34228:34242  ParameterIndex */\n      dup3\n        /* \"Parameters_flat.sol\":34246:34248  17 */\n      0x11\n        /* \"Parameters_flat.sol\":34228:34248  ParameterIndex == 17 */\n      eq\n        /* \"Parameters_flat.sol\":34225:34308  if(ParameterIndex == 17){... */\n      iszero\n      tag_671\n      jumpi\n        /* \"Parameters_flat.sol\":34263:34285  MAX_SUCCEEDING_NOVOTES */\n      0x15\n        /* \"Parameters_flat.sol\":34263:34297  MAX_SUCCEEDING_NOVOTES = uintValue */\n      dup3\n      swap1\n      sstore\n        /* \"Parameters_flat.sol\":34225:34308  if(ParameterIndex == 17){... */\n    tag_671:\n        /* \"Parameters_flat.sol\":34320:34334  ParameterIndex */\n      dup3\n        /* \"Parameters_flat.sol\":34338:34340  18 */\n      0x12\n        /* \"Parameters_flat.sol\":34320:34340  ParameterIndex == 18 */\n      eq\n        /* \"Parameters_flat.sol\":34317:34411  if(ParameterIndex == 18){... */\n      iszero\n      tag_672\n      jumpi\n        /* \"Parameters_flat.sol\":34355:34388  NOVOTE_REGISTRATION_WAIT_DURATION */\n      0x16\n        /* \"Parameters_flat.sol\":34355:34400  NOVOTE_REGISTRATION_WAIT_DURATION = uintValue */\n      dup3\n      swap1\n      sstore\n        /* \"Parameters_flat.sol\":34317:34411  if(ParameterIndex == 18){... */\n    tag_672:\n        /* \"Parameters_flat.sol\":32524:34417  function updateSpottingParameters(uint256 ParameterIndex, uint256 uintValue, bool boolValue) public onlyOwner {        ... */\n      pop\n      pop\n      pop\n      jump\t// out\n        /* \"Parameters_flat.sol\":42000:42140  function get_COMPLIANCE_MIN_REWARD_DataValidation() public view returns(uint256){... */\n    tag_502:\n        /* \"Parameters_flat.sol\":42097:42133  COMPLIANCE_MIN_REWARD_DataValidation */\n      sload(0x1d)\n        /* \"Parameters_flat.sol\":42000:42140  function get_COMPLIANCE_MIN_REWARD_DataValidation() public view returns(uint256){... */\n      swap1\n      jump\t// out\n        /* \"Parameters_flat.sol\":2939:3137  function transferOwnership(address newOwner) public virtual onlyOwner {... */\n    tag_507:\n        /* \"Parameters_flat.sol\":1952:1965  _checkOwner() */\n      tag_675\n        /* \"Parameters_flat.sol\":1952:1963  _checkOwner */\n      tag_540\n        /* \"Parameters_flat.sol\":1952:1965  _checkOwner() */\n      jump\t// in\n    tag_675:\n      sub(shl(0xa0, 0x01), 0x01)\n        /* \"Parameters_flat.sol\":3027:3049  newOwner != address(0) */\n      dup2\n      and\n        /* \"Parameters_flat.sol\":3019:3092  require(newOwner != address(0), \"Ownable: new owner is the zero address\") */\n      tag_677\n      jumpi\n      mload(0x40)\n      shl(0xe5, 0x461bcd)\n      dup2\n      mstore\n      0x04\n      add\n      tag_678\n      swap1\n      tag_679\n      jump\t// in\n    tag_678:\n      mload(0x40)\n      dup1\n      swap2\n      sub\n      swap1\n      revert\n    tag_677:\n        /* \"Parameters_flat.sol\":3102:3130  _transferOwnership(newOwner) */\n      tag_680\n        /* \"Parameters_flat.sol\":3121:3129  newOwner */\n      dup2\n        /* \"Parameters_flat.sol\":3102:3120  _transferOwnership */\n      tag_595\n        /* \"Parameters_flat.sol\":3102:3130  _transferOwnership(newOwner) */\n      jump\t// in\n    tag_680:\n        /* \"Parameters_flat.sol\":2939:3137  function transferOwnership(address newOwner) public virtual onlyOwner {... */\n      pop\n      jump\t// out\n        /* \"Parameters_flat.sol\":24209:24264  uint256 public INDEXING_MAX_CONSENSUS_WORKER_COUNT  = 4 */\n    tag_509:\n      sload(0x21)\n      dup2\n      jump\t// out\n        /* \"Parameters_flat.sol\":25068:25134  uint256 public ARCHIVING_MIN_REP_DataValidation  = 10 * (10 ** 15) */\n    tag_512:\n      sload(0x2e)\n      dup2\n      jump\t// out\n        /* \"Parameters_flat.sol\":38343:38442  function getComplianceSystem() public view returns(address){... */\n    tag_515:\n        /* \"Parameters_flat.sol\":38419:38435  ComplianceSystem */\n      and(sub(shl(0xa0, 0x01), 0x01), sload(0x37))\n        /* \"Parameters_flat.sol\":38343:38442  function getComplianceSystem() public view returns(address){... */\n      swap1\n      jump\t// out\n        /* \"Parameters_flat.sol\":39985:40113  function get_SPOT_MIN_REWARD_DataValidation() public view returns(uint256){... */\n    tag_518:\n        /* \"Parameters_flat.sol\":40076:40106  SPOT_MIN_REWARD_DataValidation */\n      sload(0x0d)\n        /* \"Parameters_flat.sol\":39985:40113  function get_SPOT_MIN_REWARD_DataValidation() public view returns(uint256){... */\n      swap1\n      jump\t// out\n        /* \"Parameters_flat.sol\":22508:22559  uint256 public SPOT_MIN_CONSENSUS_WORKER_COUNT  = 2 */\n    tag_521:\n      sload(0x07)\n      dup2\n      jump\t// out\n        /* \"Parameters_flat.sol\":25464:25493  address public IndexingSystem */\n    tag_524:\n      and(sub(shl(0xa0, 0x01), 0x01), sload(0x38))\n      dup2\n      jump\t// out\n        /* \"Parameters_flat.sol\":25171:25191  address public token */\n    tag_527:\n      and(sub(shl(0xa0, 0x01), 0x01), sload(0x2f))\n      dup2\n      jump\t// out\n        /* \"Parameters_flat.sol\":39001:39097  function get_SPOT_MIN_STAKE() public view returns(uint256){... */\n    tag_530:\n        /* \"Parameters_flat.sol\":39076:39090  SPOT_MIN_STAKE */\n      sload(0x06)\n        /* \"Parameters_flat.sol\":39001:39097  function get_SPOT_MIN_STAKE() public view returns(uint256){... */\n      swap1\n      jump\t// out\n        /* \"Parameters_flat.sol\":41432:41574  function get_COMPLIANCE_MIN_CONSENSUS_WORKER_COUNT() public view returns(uint256){... */\n    tag_533:\n        /* \"Parameters_flat.sol\":41530:41567  COMPLIANCE_MIN_CONSENSUS_WORKER_COUNT */\n      sload(0x18)\n        /* \"Parameters_flat.sol\":41432:41574  function get_COMPLIANCE_MIN_CONSENSUS_WORKER_COUNT() public view returns(uint256){... */\n      swap1\n      jump\t// out\n        /* \"Parameters_flat.sol\":2217:2347  function _checkOwner() internal view virtual {... */\n    tag_540:\n        /* \"Parameters_flat.sol\":2291:2303  _msgSender() */\n      tag_686\n        /* \"Parameters_flat.sol\":2291:2301  _msgSender */\n      tag_687\n        /* \"Parameters_flat.sol\":2291:2303  _msgSender() */\n      jump\t// in\n    tag_686:\n      sub(shl(0xa0, 0x01), 0x01)\n        /* \"Parameters_flat.sol\":2280:2303  owner() == _msgSender() */\n      and\n        /* \"Parameters_flat.sol\":2280:2287  owner() */\n      tag_688\n        /* \"Parameters_flat.sol\":2280:2285  owner */\n      tag_351\n        /* \"Parameters_flat.sol\":2280:2287  owner() */\n      jump\t// in\n    tag_688:\n      sub(shl(0xa0, 0x01), 0x01)\n        /* \"Parameters_flat.sol\":2280:2303  owner() == _msgSender() */\n      and\n      eq\n        /* \"Parameters_flat.sol\":2272:2340  require(owner() == _msgSender(), \"Ownable: caller is not the owner\") */\n      tag_594\n      jumpi\n      mload(0x40)\n      shl(0xe5, 0x461bcd)\n      dup2\n      mstore\n      0x04\n      add\n      tag_678\n      swap1\n      tag_691\n      jump\t// in\n        /* \"Parameters_flat.sol\":3291:3478  function _transferOwnership(address newOwner) internal virtual {... */\n    tag_595:\n        /* \"Parameters_flat.sol\":3364:3380  address oldOwner */\n      0x00\n        /* \"Parameters_flat.sol\":3383:3389  _owner */\n      dup1\n      sload\n      sub(shl(0xa0, 0x01), 0x01)\n        /* \"Parameters_flat.sol\":3399:3416  _owner = newOwner */\n      dup4\n      dup2\n      and\n      not(sub(shl(0xa0, 0x01), 0x01))\n      dup4\n      and\n      dup2\n      or\n      dup5\n      sstore\n        /* \"Parameters_flat.sol\":3431:3471  OwnershipTransferred(oldOwner, newOwner) */\n      mload(0x40)\n        /* \"Parameters_flat.sol\":3383:3389  _owner */\n      swap2\n      swap1\n      swap3\n      and\n      swap3\n      dup4\n      swap2\n        /* \"Parameters_flat.sol\":3431:3471  OwnershipTransferred(oldOwner, newOwner) */\n      0x8be0079c531659141344cd1fd0a4f28419497f9722a3daafe3b4186f6b6457e0\n      swap2\n        /* \"Parameters_flat.sol\":3364:3380  address oldOwner */\n      swap1\n        /* \"Parameters_flat.sol\":3431:3471  OwnershipTransferred(oldOwner, newOwner) */\n      log3\n        /* \"Parameters_flat.sol\":3291:3478  function _transferOwnership(address newOwner) internal virtual {... */\n      pop\n      pop\n      jump\t// out\n        /* \"Parameters_flat.sol\":662:758  function _msgSender() internal view virtual returns (address) {... */\n    tag_687:\n        /* \"Parameters_flat.sol\":741:751  msg.sender */\n      caller\n        /* \"Parameters_flat.sol\":662:758  function _msgSender() internal view virtual returns (address) {... */\n      swap1\n      jump\t// out\n        /* \"#utility.yul\":14:189   */\n    tag_695:\n        /* \"#utility.yul\":84:104   */\n      dup1\n      calldataload\n      sub(shl(0xa0, 0x01), 0x01)\n        /* \"#utility.yul\":133:164   */\n      dup2\n      and\n        /* \"#utility.yul\":123:165   */\n      dup2\n      eq\n        /* \"#utility.yul\":113:115   */\n      tag_697\n      jumpi\n        /* \"#utility.yul\":179:180   */\n      0x00\n        /* \"#utility.yul\":176:177   */\n      dup1\n        /* \"#utility.yul\":169:181   */\n      revert\n        /* \"#utility.yul\":113:115   */\n    tag_697:\n        /* \"#utility.yul\":65:189   */\n      swap2\n      swap1\n      pop\n      jump\t// out\n        /* \"#utility.yul\":194:392   */\n    tag_506:\n      0x00\n        /* \"#utility.yul\":306:308   */\n      0x20\n        /* \"#utility.yul\":294:303   */\n      dup3\n        /* \"#utility.yul\":285:292   */\n      dup5\n        /* \"#utility.yul\":281:304   */\n      sub\n        /* \"#utility.yul\":277:309   */\n      slt\n        /* \"#utility.yul\":274:276   */\n      iszero\n      tag_699\n      jumpi\n        /* \"#utility.yul\":327:333   */\n      dup1\n        /* \"#utility.yul\":319:325   */\n      dup2\n        /* \"#utility.yul\":312:334   */\n      revert\n        /* \"#utility.yul\":274:276   */\n    tag_699:\n        /* \"#utility.yul\":355:386   */\n      tag_700\n        /* \"#utility.yul\":376:385   */\n      dup3\n        /* \"#utility.yul\":355:386   */\n      tag_695\n      jump\t// in\n    tag_700:\n        /* \"#utility.yul\":345:386   */\n      swap4\n        /* \"#utility.yul\":264:392   */\n      swap3\n      pop\n      pop\n      pop\n      jump\t// out\n        /* \"#utility.yul\":397:1365   */\n    tag_215:\n      0x00\n      dup1\n      0x00\n      dup1\n      0x00\n      dup1\n      0x00\n      dup1\n      0x00\n      dup1\n      0x00\n        /* \"#utility.yul\":680:683   */\n      0x0160\n        /* \"#utility.yul\":668:677   */\n      dup13\n        /* \"#utility.yul\":659:666   */\n      dup15\n        /* \"#utility.yul\":655:678   */\n      sub\n        /* \"#utility.yul\":651:684   */\n      slt\n        /* \"#utility.yul\":648:650   */\n      iszero\n      tag_702\n      jumpi\n        /* \"#utility.yul\":702:708   */\n      dup7\n        /* \"#utility.yul\":694:700   */\n      dup8\n        /* \"#utility.yul\":687:709   */\n      revert\n        /* \"#utility.yul\":648:650   */\n    tag_702:\n        /* \"#utility.yul\":730:761   */\n      tag_703\n        /* \"#utility.yul\":751:760   */\n      dup13\n        /* \"#utility.yul\":730:761   */\n      tag_695\n      jump\t// in\n    tag_703:\n        /* \"#utility.yul\":720:761   */\n      swap11\n      pop\n        /* \"#utility.yul\":780:820   */\n      tag_704\n        /* \"#utility.yul\":816:818   */\n      0x20\n        /* \"#utility.yul\":805:814   */\n      dup14\n        /* \"#utility.yul\":801:819   */\n      add\n        /* \"#utility.yul\":780:820   */\n      tag_695\n      jump\t// in\n    tag_704:\n        /* \"#utility.yul\":770:820   */\n      swap10\n      pop\n        /* \"#utility.yul\":839:879   */\n      tag_705\n        /* \"#utility.yul\":875:877   */\n      0x40\n        /* \"#utility.yul\":864:873   */\n      dup14\n        /* \"#utility.yul\":860:878   */\n      add\n        /* \"#utility.yul\":839:879   */\n      tag_695\n      jump\t// in\n    tag_705:\n        /* \"#utility.yul\":829:879   */\n      swap9\n      pop\n        /* \"#utility.yul\":898:938   */\n      tag_706\n        /* \"#utility.yul\":934:936   */\n      0x60\n        /* \"#utility.yul\":923:932   */\n      dup14\n        /* \"#utility.yul\":919:937   */\n      add\n        /* \"#utility.yul\":898:938   */\n      tag_695\n      jump\t// in\n    tag_706:\n        /* \"#utility.yul\":888:938   */\n      swap8\n      pop\n        /* \"#utility.yul\":957:998   */\n      tag_707\n        /* \"#utility.yul\":993:996   */\n      0x80\n        /* \"#utility.yul\":982:991   */\n      dup14\n        /* \"#utility.yul\":978:997   */\n      add\n        /* \"#utility.yul\":957:998   */\n      tag_695\n      jump\t// in\n    tag_707:\n        /* \"#utility.yul\":947:998   */\n      swap7\n      pop\n        /* \"#utility.yul\":1017:1058   */\n      tag_708\n        /* \"#utility.yul\":1053:1056   */\n      0xa0\n        /* \"#utility.yul\":1042:1051   */\n      dup14\n        /* \"#utility.yul\":1038:1057   */\n      add\n        /* \"#utility.yul\":1017:1058   */\n      tag_695\n      jump\t// in\n    tag_708:\n        /* \"#utility.yul\":1007:1058   */\n      swap6\n      pop\n        /* \"#utility.yul\":1077:1118   */\n      tag_709\n        /* \"#utility.yul\":1113:1116   */\n      0xc0\n        /* \"#utility.yul\":1102:1111   */\n      dup14\n        /* \"#utility.yul\":1098:1117   */\n      add\n        /* \"#utility.yul\":1077:1118   */\n      tag_695\n      jump\t// in\n    tag_709:\n        /* \"#utility.yul\":1067:1118   */\n      swap5\n      pop\n        /* \"#utility.yul\":1137:1178   */\n      tag_710\n        /* \"#utility.yul\":1173:1176   */\n      0xe0\n        /* \"#utility.yul\":1162:1171   */\n      dup14\n        /* \"#utility.yul\":1158:1177   */\n      add\n        /* \"#utility.yul\":1137:1178   */\n      tag_695\n      jump\t// in\n    tag_710:\n        /* \"#utility.yul\":1127:1178   */\n      swap4\n      pop\n        /* \"#utility.yul\":1197:1238   */\n      tag_711\n        /* \"#utility.yul\":1233:1236   */\n      0x0100\n        /* \"#utility.yul\":1222:1231   */\n      dup14\n        /* \"#utility.yul\":1218:1237   */\n      add\n        /* \"#utility.yul\":1197:1238   */\n      tag_695\n      jump\t// in\n    tag_711:\n        /* \"#utility.yul\":1187:1238   */\n      swap3\n      pop\n        /* \"#utility.yul\":1257:1298   */\n      tag_712\n        /* \"#utility.yul\":1293:1296   */\n      0x0120\n        /* \"#utility.yul\":1282:1291   */\n      dup14\n        /* \"#utility.yul\":1278:1297   */\n      add\n        /* \"#utility.yul\":1257:1298   */\n      tag_695\n      jump\t// in\n    tag_712:\n        /* \"#utility.yul\":1247:1298   */\n      swap2\n      pop\n        /* \"#utility.yul\":1318:1359   */\n      tag_713\n        /* \"#utility.yul\":1354:1357   */\n      0x0140\n        /* \"#utility.yul\":1343:1352   */\n      dup14\n        /* \"#utility.yul\":1339:1358   */\n      add\n        /* \"#utility.yul\":1318:1359   */\n      tag_695\n      jump\t// in\n    tag_713:\n        /* \"#utility.yul\":1307:1359   */\n      swap1\n      pop\n        /* \"#utility.yul\":638:1365   */\n      swap3\n      swap6\n      swap9\n      swap12\n      pop\n      swap3\n      swap6\n      swap9\n      swap12\n      swap1\n      swap4\n      swap7\n      swap10\n      pop\n      jump\t// out\n        /* \"#utility.yul\":1370:1628   */\n    tag_280:\n      0x00\n      dup1\n        /* \"#utility.yul\":1499:1501   */\n      0x40\n        /* \"#utility.yul\":1487:1496   */\n      dup4\n        /* \"#utility.yul\":1478:1485   */\n      dup6\n        /* \"#utility.yul\":1474:1497   */\n      sub\n        /* \"#utility.yul\":1470:1502   */\n      slt\n        /* \"#utility.yul\":1467:1469   */\n      iszero\n      tag_715\n      jumpi\n        /* \"#utility.yul\":1520:1526   */\n      dup2\n        /* \"#utility.yul\":1512:1518   */\n      dup3\n        /* \"#utility.yul\":1505:1527   */\n      revert\n        /* \"#utility.yul\":1467:1469   */\n    tag_715:\n      pop\n      pop\n        /* \"#utility.yul\":1548:1571   */\n      dup1\n      calldataload\n      swap3\n        /* \"#utility.yul\":1618:1620   */\n      0x20\n        /* \"#utility.yul\":1603:1621   */\n      swap1\n      swap2\n      add\n        /* \"#utility.yul\":1590:1622   */\n      calldataload\n      swap2\n      pop\n        /* \"#utility.yul\":1457:1628   */\n      jump\t// out\n        /* \"#utility.yul\":1633:2062   */\n    tag_499:\n      0x00\n      dup1\n      0x00\n        /* \"#utility.yul\":1776:1778   */\n      0x60\n        /* \"#utility.yul\":1764:1773   */\n      dup5\n        /* \"#utility.yul\":1755:1762   */\n      dup7\n        /* \"#utility.yul\":1751:1774   */\n      sub\n        /* \"#utility.yul\":1747:1779   */\n      slt\n        /* \"#utility.yul\":1744:1746   */\n      iszero\n      tag_717\n      jumpi\n        /* \"#utility.yul\":1797:1803   */\n      dup3\n        /* \"#utility.yul\":1789:1795   */\n      dup4\n        /* \"#utility.yul\":1782:1804   */\n      revert\n        /* \"#utility.yul\":1744:1746   */\n    tag_717:\n        /* \"#utility.yul\":1838:1847   */\n      dup4\n        /* \"#utility.yul\":1825:1848   */\n      calldataload\n        /* \"#utility.yul\":1815:1848   */\n      swap3\n      pop\n        /* \"#utility.yul\":1895:1897   */\n      0x20\n        /* \"#utility.yul\":1884:1893   */\n      dup5\n        /* \"#utility.yul\":1880:1898   */\n      add\n        /* \"#utility.yul\":1867:1899   */\n      calldataload\n        /* \"#utility.yul\":1857:1899   */\n      swap2\n      pop\n        /* \"#utility.yul\":1949:1951   */\n      0x40\n        /* \"#utility.yul\":1938:1947   */\n      dup5\n        /* \"#utility.yul\":1934:1952   */\n      add\n        /* \"#utility.yul\":1921:1953   */\n      calldataload\n        /* \"#utility.yul\":1996:2001   */\n      dup1\n        /* \"#utility.yul\":1989:2002   */\n      iszero\n        /* \"#utility.yul\":1982:2003   */\n      iszero\n        /* \"#utility.yul\":1975:1980   */\n      dup2\n        /* \"#utility.yul\":1972:2004   */\n      eq\n        /* \"#utility.yul\":1962:1964   */\n      tag_718\n      jumpi\n        /* \"#utility.yul\":2023:2029   */\n      dup2\n        /* \"#utility.yul\":2015:2021   */\n      dup3\n        /* \"#utility.yul\":2008:2030   */\n      revert\n        /* \"#utility.yul\":1962:1964   */\n    tag_718:\n        /* \"#utility.yul\":2051:2056   */\n      dup1\n        /* \"#utility.yul\":2041:2056   */\n      swap2\n      pop\n      pop\n        /* \"#utility.yul\":1734:2062   */\n      swap3\n      pop\n      swap3\n      pop\n      swap3\n      jump\t// out\n        /* \"#utility.yul\":2067:2270   */\n    tag_168:\n      sub(shl(0xa0, 0x01), 0x01)\n        /* \"#utility.yul\":2231:2263   */\n      swap2\n      swap1\n      swap2\n      and\n        /* \"#utility.yul\":2213:2264   */\n      dup2\n      mstore\n        /* \"#utility.yul\":2201:2203   */\n      0x20\n        /* \"#utility.yul\":2186:2204   */\n      add\n      swap1\n        /* \"#utility.yul\":2168:2270   */\n      jump\t// out\n        /* \"#utility.yul\":2275:2462   */\n    tag_235:\n        /* \"#utility.yul\":2440:2454   */\n      swap1\n      iszero\n        /* \"#utility.yul\":2433:2455   */\n      iszero\n        /* \"#utility.yul\":2415:2456   */\n      dup2\n      mstore\n        /* \"#utility.yul\":2403:2405   */\n      0x20\n        /* \"#utility.yul\":2388:2406   */\n      add\n      swap1\n        /* \"#utility.yul\":2370:2462   */\n      jump\t// out\n        /* \"#utility.yul\":2467:2869   */\n    tag_679:\n        /* \"#utility.yul\":2669:2671   */\n      0x20\n        /* \"#utility.yul\":2651:2672   */\n      dup1\n      dup3\n      mstore\n        /* \"#utility.yul\":2708:2710   */\n      0x26\n        /* \"#utility.yul\":2688:2706   */\n      swap1\n      dup3\n      add\n        /* \"#utility.yul\":2681:2711   */\n      mstore\n        /* \"#utility.yul\":2747:2781   */\n      0x4f776e61626c653a206e6577206f776e657220697320746865207a65726f2061\n        /* \"#utility.yul\":2742:2744   */\n      0x40\n        /* \"#utility.yul\":2727:2745   */\n      dup3\n      add\n        /* \"#utility.yul\":2720:2782   */\n      mstore\n      shl(0xd0, 0x646472657373)\n        /* \"#utility.yul\":2813:2815   */\n      0x60\n        /* \"#utility.yul\":2798:2816   */\n      dup3\n      add\n        /* \"#utility.yul\":2791:2827   */\n      mstore\n        /* \"#utility.yul\":2859:2862   */\n      0x80\n        /* \"#utility.yul\":2844:2863   */\n      add\n      swap1\n        /* \"#utility.yul\":2641:2869   */\n      jump\t// out\n        /* \"#utility.yul\":2874:3230   */\n    tag_691:\n        /* \"#utility.yul\":3076:3078   */\n      0x20\n        /* \"#utility.yul\":3058:3079   */\n      dup1\n      dup3\n      mstore\n        /* \"#utility.yul\":3095:3113   */\n      dup2\n      dup2\n      add\n        /* \"#utility.yul\":3088:3118   */\n      mstore\n        /* \"#utility.yul\":3154:3188   */\n      0x4f776e61626c653a2063616c6c6572206973206e6f7420746865206f776e6572\n        /* \"#utility.yul\":3149:3151   */\n      0x40\n        /* \"#utility.yul\":3134:3152   */\n      dup3\n      add\n        /* \"#utility.yul\":3127:3189   */\n      mstore\n        /* \"#utility.yul\":3221:3223   */\n      0x60\n        /* \"#utility.yul\":3206:3224   */\n      add\n      swap1\n        /* \"#utility.yul\":3048:3230   */\n      jump\t// out\n        /* \"#utility.yul\":3235:3412   */\n    tag_161:\n        /* \"#utility.yul\":3381:3406   */\n      swap1\n      dup2\n      mstore\n        /* \"#utility.yul\":3369:3371   */\n      0x20\n        /* \"#utility.yul\":3354:3372   */\n      add\n      swap1\n        /* \"#utility.yul\":3336:3412   */\n      jump\t// out\n\n    auxdata: 0xa2646970667358221220fa8cfcceba82729f6071705d769086d8c83e0b58445ba16026595c68904f98b364736f6c63430008000033\n}\n",
				"bytecode": {
					"linkReferences": {},
					"object": "60806040526103e86001556032600255603260035562030d40600455600160055568015af1d78b58c400006006556002600755600460085560b460095560b4600a5566038d7ea4c68000600b55662386f26fc10000600c5566038d7ea4c68000600d55662386f26fc10000600e55610190600f556001601060006101000a81548160ff0219169083151502179055506103846011556103e8601255601960135560046014556003601555610e1060165560016017556002601855600460195568015af1d78b58c40000601a55610190601b5560b4601c5566038d7ea4c68000601d55662386f26fc10000601e556001601f556002602055600460215568015af1d78b58c4000060225561019060235560b460245566038d7ea4c68000602555662386f26fc1000060265560016027556002602855600460295568015af1d78b58c40000602a55610190602b5560b4602c5566038d7ea4c68000602d55662386f26fc10000602e5534801561017257600080fd5b5061018361017e610188565b61018c565b6101dc565b3390565b600080546001600160a01b038381166001600160a01b0319831681178455604051919092169283917f8be0079c531659141344cd1fd0a4f28419497f9722a3daafe3b4186f6b6457e09190a35050565b61176b806101eb6000396000f3fe608060405234801561001057600080fd5b50600436106107635760003560e01c80638a13725d116103c9578063cb3a2a88116101ff578063e6fdd4c011610125578063f5bec1ad116100b8578063fbf1485111610087578063fbf1485114610ba7578063fc0c546a14610baf578063ff622dda14610bb7578063fff5f94614610bbf57610763565b8063f5bec1ad14610b87578063f67362fe14610b8f578063f80de0a014610b97578063fb50a47314610b9f57610763565b8063ee37f4a6116100f4578063ee37f4a614610b51578063f116c4e014610b64578063f2fde38b14610b6c578063f4e20b9c14610b7f57610763565b8063e6fdd4c014610b31578063e9704f8114610b39578063e992dca714610b41578063ea19733c14610b4957610763565b8063dfeceed71161019d578063e3dfc0b21161016c578063e3dfc0b214610b11578063e5f1482414610b19578063e66d543a14610b21578063e68c9c3014610b2957610763565b8063dfeceed714610ae6578063e0de3d7c14610aee578063e168063c14610af6578063e3115d3c14610b0957610763565b8063d4efd2ba116101d9578063d4efd2ba14610ac6578063d81109ce14610ace578063d8645d3714610ad6578063dc7048c114610ade57610763565b8063cb3a2a8814610aae578063d0eed96714610ab6578063d1a89a4614610abe57610763565b8063abb10b9b116102ef578063be25098811610282578063c6eacbfe11610251578063c6eacbfe14610a8e578063c7761fab14610a96578063c95b53c514610a9e578063ca64f9e714610aa657610763565b8063be25098814610a6e578063bf09ff7014610a76578063bf34f74914610a7e578063c4a306f814610a8657610763565b8063b45d9d8d116102be578063b45d9d8d14610a4e578063b611845014610a56578063b6c6ec0214610a5e578063bd40ef4c14610a6657610763565b8063abb10b9b14610a2e578063ac846e7914610a36578063b1562f6714610a3e578063b38e885e14610a4657610763565b8063995adbdd11610367578063a1a4575a11610336578063a1a4575a14610a0e578063a327181b14610a16578063a35b3b0914610a1e578063ab43e78d14610a2657610763565b8063995adbdd146109ee5780639a175938146109f65780639d1f2ada146109fe5780639fb491f614610a0657610763565b806390d10b6e116103a357806390d10b6e146109ce5780639279e9d4146109d657806398a54e2b146109de5780639904ed8d146109e657610763565b80638a13725d146109b65780638da5cb5b146109be57806390cc59eb146109c657610763565b806349b467871161059e578063728d23ab116104c45780638360034d116104575780638724450f116104265780638724450f1461099657806387ce63111461099e578063893b2a76146109a657806389b212d3146109ae57610763565b80638360034d1461097657806383cc6ef21461097e578063849f9f0a1461098657806386b0b4c51461098e57610763565b80637a0ec25b116104935780637a0ec25b146109565780637a34da671461095e5780637d630cb0146109665780637e8603e91461096e57610763565b8063728d23ab1461092b57806372e540301461093357806375dc61301461093b578063779231b21461094e57610763565b8063557c1abe1161053c578063618790751161050b57806361879075146109005780636785f847146109135780636a8e0ece1461091b578063715018a61461092357610763565b8063557c1abe146108d557806355a35f5c146108dd5780635cb361f6146108f05780635d1c3182146108f857610763565b80634ed60b2a116105785780634ed60b2a146108b557806351912f29146108bd578063531780bb146108c55780635492f302146108cd57610763565b806349b467871461089d5780634e5638f5146108a55780634e87c5a8146108ad57610763565b80632b0afab31161068e5780633692616a1161062157806342df5641116105f057806342df56411461087d578063444d62b614610885578063463444b71461088d578063484df80a1461089557610763565b80633692616a1461085057806336fc43fc14610858578063386d09761461086d5780633968ec841461087557610763565b80632e2f93f31161065d5780632e2f93f31461083057806330c0bb791461083857806331911c911461084057806334c37e211461084857610763565b80632b0afab3146108055780632be059601461080d5780632bf8abb3146108155780632d09a8e31461081d57610763565b80630a5a4c2011610706578063175bf630116106d5578063175bf630146107e55780631d0fb88e146107ed57806329a47bc7146107f557806329e3dd1f146107fd57610763565b80630a5a4c20146107c55780630b08bfd9146107cd5780630f1f0ffe146107d55780630f78cc76146107dd57610763565b806306606d671161074257806306606d67146107a35780630855d151146107ab57806308e7f0db146107b3578063092a5cce146107bb57610763565b8062653ff8146107685780630363a1bf1461078657806304e76c8f1461078e575b600080fd5b610770610bc7565b60405161077d919061172c565b60405180910390f35b610770610bcd565b610796610bd3565b60405161077d9190611692565b610796610be2565b610796610bf1565b610770610c00565b6107c3610c06565b005b610770610c21565b610770610c27565b610770610c2d565b610770610c33565b610770610c39565b610770610c3f565b610796610c45565b610770610c54565b610770610c5a565b610770610c60565b610770610c66565b6107c361082b36600461156a565b610c6c565b610796610e5a565b610770610e69565b610770610e6f565b610770610e75565b610770610e7b565b610860610e81565b60405161077d91906116a6565b610770610e8a565b610770610e90565b610770610e96565b610770610e9c565b610796610ea2565b610770610eb1565b610770610eb7565b610770610ebd565b610860610ec3565b610770610ecc565b610796610ed2565b610770610ee1565b610796610ee7565b610796610ef6565b6107c36108eb366004611635565b610f05565b610770610f89565b610770610f8f565b6107c361090e366004611635565b610f95565b610770610fd9565b610770610fdf565b6107c3610fe5565b610770610ff9565b610770610fff565b6107c3610949366004611635565b611005565b610770611085565b61079661108b565b61079661109a565b6107706110a9565b6107706110af565b6107706110b5565b6107966110bb565b6107706110ca565b6107706110d0565b6107706110d6565b6107706110dc565b6107706110e2565b6107706110e8565b6107706110ee565b6107966110f4565b610770611103565b610770611109565b61077061110f565b610770611115565b61079661111b565b61077061112a565b610770611130565b610770611136565b61077061113c565b610770611142565b610770611148565b61077061114e565b610796611154565b610770611163565b610770611169565b61077061116f565b610770611175565b61079661117b565b61077061118a565b610796611190565b61077061119f565b6107706111a5565b6107706111ab565b6107706111b1565b6107706111b7565b6107706111bd565b6107706111c3565b6107706111c9565b6107966111cf565b6107706111de565b6107706111e4565b6107706111ea565b6107706111f0565b6107706111f6565b6107966111fc565b61077061120b565b610770611211565b610770611217565b6107c3610b04366004611635565b61121d565b61077061129d565b6107706112a3565b6107706112a9565b6107706112af565b6107706112b5565b6107706112bb565b6107706112c1565b6107966112c7565b6107706112d6565b6107c3610b5f366004611656565b6112dc565b610770611400565b6107c3610b7a366004611549565b611406565b610770611449565b61077061144f565b610796611455565b610770611464565b61077061146a565b610796611470565b61079661147f565b61077061148e565b610770611494565b60065481565b60275490565b6033546001600160a01b031690565b6037546001600160a01b031681565b6032546001600160a01b031690565b602d5481565b610c0e61149a565b610c166110f4565b6001600160a01b0316ff5b602a5481565b600e5490565b60165490565b60115490565b60175481565b600a5481565b6032546001600160a01b031681565b602c5490565b601c5490565b60265481565b60255481565b610c7461149a565b6001600160a01b038b1615610c9f57603080546001600160a01b0319166001600160a01b038d161790555b6001600160a01b038a1615610cca57603280546001600160a01b0319166001600160a01b038c161790555b6001600160a01b03891615610cf557603180546001600160a01b0319166001600160a01b038b161790555b6001600160a01b03881615610d2057603380546001600160a01b0319166001600160a01b038a161790555b6001600160a01b03871615610d4b57603480546001600160a01b0319166001600160a01b0389161790555b6001600160a01b03851615610d7657603780546001600160a01b0319166001600160a01b0387161790555b6001600160a01b03861615610da157603680546001600160a01b0319166001600160a01b0388161790555b6001600160a01b03841615610dcc57603880546001600160a01b0319166001600160a01b0386161790555b6001600160a01b03831615610df757603980546001600160a01b0319166001600160a01b0385161790555b6001600160a01b03821615610e2257603580546001600160a01b0319166001600160a01b0384161790555b6001600160a01b03811615610e4d57602f80546001600160a01b0319166001600160a01b0383161790555b5050505050505050505050565b602f546001600160a01b031690565b600b5490565b60195481565b601d5481565b60095490565b60105460ff1681565b60255490565b60295490565b601a5481565b60205481565b6039546001600160a01b031690565b601b5490565b602e5490565b60045481565b60105460ff1690565b60275481565b6033546001600160a01b031681565b602b5481565b6034546001600160a01b031690565b6035546001600160a01b031690565b610f0d61149a565b8160011415610f1c5760278190555b8160021415610f2b57602a8190555b8160031415610f3a5760288190555b8160041415610f495760298190555b8160051415610f5857602b8190555b8160061415610f6757602c8190555b8160071415610f7657602e8190555b8160081415610f8557602d8190555b5050565b600c5481565b60285481565b610f9d61149a565b8160011415610fac5760018190555b8160021415610fbb5760028190555b8160031415610fca5760038190555b8160041415610f855760045550565b601b5481565b601e5481565b610fed61149a565b610ff760006114d9565b565b60185481565b600a5490565b61100d61149a565b816001141561101c57601f8190555b816002141561102b5760228190555b816003141561103a5760208190555b81600414156110495760218190555b81600514156110585760238190555b81600614156110675760248190555b81600714156110765760268190555b8160081415610f855760255550565b60225481565b6038546001600160a01b031690565b6034546001600160a01b031681565b60035490565b60245481565b602c5481565b6030546001600160a01b031681565b60265490565b600e5481565b600d5481565b60115481565b602d5490565b601e5490565b60245490565b6000546001600160a01b031690565b60235490565b60035481565b602b5490565b60015490565b6031546001600160a01b031681565b60285490565b601c5481565b60055490565b60155490565b60205490565b60015481565b60085481565b6035546001600160a01b031681565b600c5490565b60295481565b602a5490565b60125490565b6036546001600160a01b031690565b60145481565b6039546001600160a01b031681565b60075490565b60135490565b60135481565b60225490565b600f5490565b60055481565b60025481565b601f5481565b6030546001600160a01b031690565b601f5490565b60165481565b60175490565b60155481565b600b5481565b6036546001600160a01b031681565b60195490565b60085490565b60125481565b61122561149a565b81600114156112345760178190555b816002141561124357601a8190555b81600314156112525760188190555b81600414156112615760198190555b816005141561127057601b8190555b816006141561127f57601c8190555b816007141561128e57601e8190555b8160081415610f8557601d5550565b60045490565b601a5490565b600f5481565b60145490565b60215490565b60095481565b60235481565b6031546001600160a01b031690565b60025490565b6112e461149a565b82600114156112f35760058290555b82600214156113025760068290555b82600314156113115760078290555b82600414156113205760088290555b826005141561132f5760098290555b826006141561133e57600a8290555b826007141561134d57600b8290555b826008141561135c57600c8290555b826009141561136b57600d8290555b82600a141561137a57600e8290555b82600b141561138957600f8290555b82600c14156113a1576010805460ff19168215151790555b82600d14156113b05760118290555b82600e14156113bf5760128290555b82600f14156113ce5760138290555b82601014156113dd5760148290555b82601114156113ec5760158290555b82601214156113fb5760168290555b505050565b601d5490565b61140e61149a565b6001600160a01b03811661143d5760405162461bcd60e51b8152600401611434906116b1565b60405180910390fd5b611446816114d9565b50565b60215481565b602e5481565b6037546001600160a01b031690565b600d5490565b60075481565b6038546001600160a01b031681565b602f546001600160a01b031681565b60065490565b60185490565b6114a2611529565b6001600160a01b03166114b36110f4565b6001600160a01b031614610ff75760405162461bcd60e51b8152600401611434906116f7565b600080546001600160a01b038381166001600160a01b0319831681178455604051919092169283917f8be0079c531659141344cd1fd0a4f28419497f9722a3daafe3b4186f6b6457e09190a35050565b3390565b80356001600160a01b038116811461154457600080fd5b919050565b60006020828403121561155a578081fd5b6115638261152d565b9392505050565b60008060008060008060008060008060006101608c8e03121561158b578687fd5b6115948c61152d565b9a506115a260208d0161152d565b99506115b060408d0161152d565b98506115be60608d0161152d565b97506115cc60808d0161152d565b96506115da60a08d0161152d565b95506115e860c08d0161152d565b94506115f660e08d0161152d565b93506116056101008d0161152d565b92506116146101208d0161152d565b91506116236101408d0161152d565b90509295989b509295989b9093969950565b60008060408385031215611647578182fd5b50508035926020909101359150565b60008060006060848603121561166a578283fd5b833592506020840135915060408401358015158114611687578182fd5b809150509250925092565b6001600160a01b0391909116815260200190565b901515815260200190565b60208082526026908201527f4f776e61626c653a206e6577206f776e657220697320746865207a65726f206160408201526564647265737360d01b606082015260800190565b6020808252818101527f4f776e61626c653a2063616c6c6572206973206e6f7420746865206f776e6572604082015260600190565b9081526020019056fea2646970667358221220fa8cfcceba82729f6071705d769086d8c83e0b58445ba16026595c68904f98b364736f6c63430008000033",
					"opcodes": "PUSH1 0x80 PUSH1 0x40 MSTORE PUSH2 0x3E8 PUSH1 0x1 SSTORE PUSH1 0x32 PUSH1 0x2 SSTORE PUSH1 0x32 PUSH1 0x3 SSTORE PUSH3 0x30D40 PUSH1 0x4 SSTORE PUSH1 0x1 PUSH1 0x5 SSTORE PUSH9 0x15AF1D78B58C40000 PUSH1 0x6 SSTORE PUSH1 0x2 PUSH1 0x7 SSTORE PUSH1 0x4 PUSH1 0x8 SSTORE PUSH1 0xB4 PUSH1 0x9 SSTORE PUSH1 0xB4 PUSH1 0xA SSTORE PUSH7 0x38D7EA4C68000 PUSH1 0xB SSTORE PUSH7 0x2386F26FC10000 PUSH1 0xC SSTORE PUSH7 0x38D7EA4C68000 PUSH1 0xD SSTORE PUSH7 0x2386F26FC10000 PUSH1 0xE SSTORE PUSH2 0x190 PUSH1 0xF SSTORE PUSH1 0x1 PUSH1 0x10 PUSH1 0x0 PUSH2 0x100 EXP DUP2 SLOAD DUP2 PUSH1 0xFF MUL NOT AND SWAP1 DUP4 ISZERO ISZERO MUL OR SWAP1 SSTORE POP PUSH2 0x384 PUSH1 0x11 SSTORE PUSH2 0x3E8 PUSH1 0x12 SSTORE PUSH1 0x19 PUSH1 0x13 SSTORE PUSH1 0x4 PUSH1 0x14 SSTORE PUSH1 0x3 PUSH1 0x15 SSTORE PUSH2 0xE10 PUSH1 0x16 SSTORE PUSH1 0x1 PUSH1 0x17 SSTORE PUSH1 0x2 PUSH1 0x18 SSTORE PUSH1 0x4 PUSH1 0x19 SSTORE PUSH9 0x15AF1D78B58C40000 PUSH1 0x1A SSTORE PUSH2 0x190 PUSH1 0x1B SSTORE PUSH1 0xB4 PUSH1 0x1C SSTORE PUSH7 0x38D7EA4C68000 PUSH1 0x1D SSTORE PUSH7 0x2386F26FC10000 PUSH1 0x1E SSTORE PUSH1 0x1 PUSH1 0x1F SSTORE PUSH1 0x2 PUSH1 0x20 SSTORE PUSH1 0x4 PUSH1 0x21 SSTORE PUSH9 0x15AF1D78B58C40000 PUSH1 0x22 SSTORE PUSH2 0x190 PUSH1 0x23 SSTORE PUSH1 0xB4 PUSH1 0x24 SSTORE PUSH7 0x38D7EA4C68000 PUSH1 0x25 SSTORE PUSH7 0x2386F26FC10000 PUSH1 0x26 SSTORE PUSH1 0x1 PUSH1 0x27 SSTORE PUSH1 0x2 PUSH1 0x28 SSTORE PUSH1 0x4 PUSH1 0x29 SSTORE PUSH9 0x15AF1D78B58C40000 PUSH1 0x2A SSTORE PUSH2 0x190 PUSH1 0x2B SSTORE PUSH1 0xB4 PUSH1 0x2C SSTORE PUSH7 0x38D7EA4C68000 PUSH1 0x2D SSTORE PUSH7 0x2386F26FC10000 PUSH1 0x2E SSTORE CALLVALUE DUP1 ISZERO PUSH2 0x172 JUMPI PUSH1 0x0 DUP1 REVERT JUMPDEST POP PUSH2 0x183 PUSH2 0x17E PUSH2 0x188 JUMP JUMPDEST PUSH2 0x18C JUMP JUMPDEST PUSH2 0x1DC JUMP JUMPDEST CALLER SWAP1 JUMP JUMPDEST PUSH1 0x0 DUP1 SLOAD PUSH1 0x1 PUSH1 0x1 PUSH1 0xA0 SHL SUB DUP4 DUP2 AND PUSH1 0x1 PUSH1 0x1 PUSH1 0xA0 SHL SUB NOT DUP4 AND DUP2 OR DUP5 SSTORE PUSH1 0x40 MLOAD SWAP2 SWAP1 SWAP3 AND SWAP3 DUP4 SWAP2 PUSH32 0x8BE0079C531659141344CD1FD0A4F28419497F9722A3DAAFE3B4186F6B6457E0 SWAP2 SWAP1 LOG3 POP POP JUMP JUMPDEST PUSH2 0x176B DUP1 PUSH2 0x1EB PUSH1 0x0 CODECOPY PUSH1 0x0 RETURN INVALID PUSH1 0x80 PUSH1 0x40 MSTORE CALLVALUE DUP1 ISZERO PUSH2 0x10 JUMPI PUSH1 0x0 DUP1 REVERT JUMPDEST POP PUSH1 0x4 CALLDATASIZE LT PUSH2 0x763 JUMPI PUSH1 0x0 CALLDATALOAD PUSH1 0xE0 SHR DUP1 PUSH4 0x8A13725D GT PUSH2 0x3C9 JUMPI DUP1 PUSH4 0xCB3A2A88 GT PUSH2 0x1FF JUMPI DUP1 PUSH4 0xE6FDD4C0 GT PUSH2 0x125 JUMPI DUP1 PUSH4 0xF5BEC1AD GT PUSH2 0xB8 JUMPI DUP1 PUSH4 0xFBF14851 GT PUSH2 0x87 JUMPI DUP1 PUSH4 0xFBF14851 EQ PUSH2 0xBA7 JUMPI DUP1 PUSH4 0xFC0C546A EQ PUSH2 0xBAF JUMPI DUP1 PUSH4 0xFF622DDA EQ PUSH2 0xBB7 JUMPI DUP1 PUSH4 0xFFF5F946 EQ PUSH2 0xBBF JUMPI PUSH2 0x763 JUMP JUMPDEST DUP1 PUSH4 0xF5BEC1AD EQ PUSH2 0xB87 JUMPI DUP1 PUSH4 0xF67362FE EQ PUSH2 0xB8F JUMPI DUP1 PUSH4 0xF80DE0A0 EQ PUSH2 0xB97 JUMPI DUP1 PUSH4 0xFB50A473 EQ PUSH2 0xB9F JUMPI PUSH2 0x763 JUMP JUMPDEST DUP1 PUSH4 0xEE37F4A6 GT PUSH2 0xF4 JUMPI DUP1 PUSH4 0xEE37F4A6 EQ PUSH2 0xB51 JUMPI DUP1 PUSH4 0xF116C4E0 EQ PUSH2 0xB64 JUMPI DUP1 PUSH4 0xF2FDE38B EQ PUSH2 0xB6C JUMPI DUP1 PUSH4 0xF4E20B9C EQ PUSH2 0xB7F JUMPI PUSH2 0x763 JUMP JUMPDEST DUP1 PUSH4 0xE6FDD4C0 EQ PUSH2 0xB31 JUMPI DUP1 PUSH4 0xE9704F81 EQ PUSH2 0xB39 JUMPI DUP1 PUSH4 0xE992DCA7 EQ PUSH2 0xB41 JUMPI DUP1 PUSH4 0xEA19733C EQ PUSH2 0xB49 JUMPI PUSH2 0x763 JUMP JUMPDEST DUP1 PUSH4 0xDFECEED7 GT PUSH2 0x19D JUMPI DUP1 PUSH4 0xE3DFC0B2 GT PUSH2 0x16C JUMPI DUP1 PUSH4 0xE3DFC0B2 EQ PUSH2 0xB11 JUMPI DUP1 PUSH4 0xE5F14824 EQ PUSH2 0xB19 JUMPI DUP1 PUSH4 0xE66D543A EQ PUSH2 0xB21 JUMPI DUP1 PUSH4 0xE68C9C30 EQ PUSH2 0xB29 JUMPI PUSH2 0x763 JUMP JUMPDEST DUP1 PUSH4 0xDFECEED7 EQ PUSH2 0xAE6 JUMPI DUP1 PUSH4 0xE0DE3D7C EQ PUSH2 0xAEE JUMPI DUP1 PUSH4 0xE168063C EQ PUSH2 0xAF6 JUMPI DUP1 PUSH4 0xE3115D3C EQ PUSH2 0xB09 JUMPI PUSH2 0x763 JUMP JUMPDEST DUP1 PUSH4 0xD4EFD2BA GT PUSH2 0x1D9 JUMPI DUP1 PUSH4 0xD4EFD2BA EQ PUSH2 0xAC6 JUMPI DUP1 PUSH4 0xD81109CE EQ PUSH2 0xACE JUMPI DUP1 PUSH4 0xD8645D37 EQ PUSH2 0xAD6 JUMPI DUP1 PUSH4 0xDC7048C1 EQ PUSH2 0xADE JUMPI PUSH2 0x763 JUMP JUMPDEST DUP1 PUSH4 0xCB3A2A88 EQ PUSH2 0xAAE JUMPI DUP1 PUSH4 0xD0EED967 EQ PUSH2 0xAB6 JUMPI DUP1 PUSH4 0xD1A89A46 EQ PUSH2 0xABE JUMPI PUSH2 0x763 JUMP JUMPDEST DUP1 PUSH4 0xABB10B9B GT PUSH2 0x2EF JUMPI DUP1 PUSH4 0xBE250988 GT PUSH2 0x282 JUMPI DUP1 PUSH4 0xC6EACBFE GT PUSH2 0x251 JUMPI DUP1 PUSH4 0xC6EACBFE EQ PUSH2 0xA8E JUMPI DUP1 PUSH4 0xC7761FAB EQ PUSH2 0xA96 JUMPI DUP1 PUSH4 0xC95B53C5 EQ PUSH2 0xA9E JUMPI DUP1 PUSH4 0xCA64F9E7 EQ PUSH2 0xAA6 JUMPI PUSH2 0x763 JUMP JUMPDEST DUP1 PUSH4 0xBE250988 EQ PUSH2 0xA6E JUMPI DUP1 PUSH4 0xBF09FF70 EQ PUSH2 0xA76 JUMPI DUP1 PUSH4 0xBF34F749 EQ PUSH2 0xA7E JUMPI DUP1 PUSH4 0xC4A306F8 EQ PUSH2 0xA86 JUMPI PUSH2 0x763 JUMP JUMPDEST DUP1 PUSH4 0xB45D9D8D GT PUSH2 0x2BE JUMPI DUP1 PUSH4 0xB45D9D8D EQ PUSH2 0xA4E JUMPI DUP1 PUSH4 0xB6118450 EQ PUSH2 0xA56 JUMPI DUP1 PUSH4 0xB6C6EC02 EQ PUSH2 0xA5E JUMPI DUP1 PUSH4 0xBD40EF4C EQ PUSH2 0xA66 JUMPI PUSH2 0x763 JUMP JUMPDEST DUP1 PUSH4 0xABB10B9B EQ PUSH2 0xA2E JUMPI DUP1 PUSH4 0xAC846E79 EQ PUSH2 0xA36 JUMPI DUP1 PUSH4 0xB1562F67 EQ PUSH2 0xA3E JUMPI DUP1 PUSH4 0xB38E885E EQ PUSH2 0xA46 JUMPI PUSH2 0x763 JUMP JUMPDEST DUP1 PUSH4 0x995ADBDD GT PUSH2 0x367 JUMPI DUP1 PUSH4 0xA1A4575A GT PUSH2 0x336 JUMPI DUP1 PUSH4 0xA1A4575A EQ PUSH2 0xA0E JUMPI DUP1 PUSH4 0xA327181B EQ PUSH2 0xA16 JUMPI DUP1 PUSH4 0xA35B3B09 EQ PUSH2 0xA1E JUMPI DUP1 PUSH4 0xAB43E78D EQ PUSH2 0xA26 JUMPI PUSH2 0x763 JUMP JUMPDEST DUP1 PUSH4 0x995ADBDD EQ PUSH2 0x9EE JUMPI DUP1 PUSH4 0x9A175938 EQ PUSH2 0x9F6 JUMPI DUP1 PUSH4 0x9D1F2ADA EQ PUSH2 0x9FE JUMPI DUP1 PUSH4 0x9FB491F6 EQ PUSH2 0xA06 JUMPI PUSH2 0x763 JUMP JUMPDEST DUP1 PUSH4 0x90D10B6E GT PUSH2 0x3A3 JUMPI DUP1 PUSH4 0x90D10B6E EQ PUSH2 0x9CE JUMPI DUP1 PUSH4 0x9279E9D4 EQ PUSH2 0x9D6 JUMPI DUP1 PUSH4 0x98A54E2B EQ PUSH2 0x9DE JUMPI DUP1 PUSH4 0x9904ED8D EQ PUSH2 0x9E6 JUMPI PUSH2 0x763 JUMP JUMPDEST DUP1 PUSH4 0x8A13725D EQ PUSH2 0x9B6 JUMPI DUP1 PUSH4 0x8DA5CB5B EQ PUSH2 0x9BE JUMPI DUP1 PUSH4 0x90CC59EB EQ PUSH2 0x9C6 JUMPI PUSH2 0x763 JUMP JUMPDEST DUP1 PUSH4 0x49B46787 GT PUSH2 0x59E JUMPI DUP1 PUSH4 0x728D23AB GT PUSH2 0x4C4 JUMPI DUP1 PUSH4 0x8360034D GT PUSH2 0x457 JUMPI DUP1 PUSH4 0x8724450F GT PUSH2 0x426 JUMPI DUP1 PUSH4 0x8724450F EQ PUSH2 0x996 JUMPI DUP1 PUSH4 0x87CE6311 EQ PUSH2 0x99E JUMPI DUP1 PUSH4 0x893B2A76 EQ PUSH2 0x9A6 JUMPI DUP1 PUSH4 0x89B212D3 EQ PUSH2 0x9AE JUMPI PUSH2 0x763 JUMP JUMPDEST DUP1 PUSH4 0x8360034D EQ PUSH2 0x976 JUMPI DUP1 PUSH4 0x83CC6EF2 EQ PUSH2 0x97E JUMPI DUP1 PUSH4 0x849F9F0A EQ PUSH2 0x986 JUMPI DUP1 PUSH4 0x86B0B4C5 EQ PUSH2 0x98E JUMPI PUSH2 0x763 JUMP JUMPDEST DUP1 PUSH4 0x7A0EC25B GT PUSH2 0x493 JUMPI DUP1 PUSH4 0x7A0EC25B EQ PUSH2 0x956 JUMPI DUP1 PUSH4 0x7A34DA67 EQ PUSH2 0x95E JUMPI DUP1 PUSH4 0x7D630CB0 EQ PUSH2 0x966 JUMPI DUP1 PUSH4 0x7E8603E9 EQ PUSH2 0x96E JUMPI PUSH2 0x763 JUMP JUMPDEST DUP1 PUSH4 0x728D23AB EQ PUSH2 0x92B JUMPI DUP1 PUSH4 0x72E54030 EQ PUSH2 0x933 JUMPI DUP1 PUSH4 0x75DC6130 EQ PUSH2 0x93B JUMPI DUP1 PUSH4 0x779231B2 EQ PUSH2 0x94E JUMPI PUSH2 0x763 JUMP JUMPDEST DUP1 PUSH4 0x557C1ABE GT PUSH2 0x53C JUMPI DUP1 PUSH4 0x61879075 GT PUSH2 0x50B JUMPI DUP1 PUSH4 0x61879075 EQ PUSH2 0x900 JUMPI DUP1 PUSH4 0x6785F847 EQ PUSH2 0x913 JUMPI DUP1 PUSH4 0x6A8E0ECE EQ PUSH2 0x91B JUMPI DUP1 PUSH4 0x715018A6 EQ PUSH2 0x923 JUMPI PUSH2 0x763 JUMP JUMPDEST DUP1 PUSH4 0x557C1ABE EQ PUSH2 0x8D5 JUMPI DUP1 PUSH4 0x55A35F5C EQ PUSH2 0x8DD JUMPI DUP1 PUSH4 0x5CB361F6 EQ PUSH2 0x8F0 JUMPI DUP1 PUSH4 0x5D1C3182 EQ PUSH2 0x8F8 JUMPI PUSH2 0x763 JUMP JUMPDEST DUP1 PUSH4 0x4ED60B2A GT PUSH2 0x578 JUMPI DUP1 PUSH4 0x4ED60B2A EQ PUSH2 0x8B5 JUMPI DUP1 PUSH4 0x51912F29 EQ PUSH2 0x8BD JUMPI DUP1 PUSH4 0x531780BB EQ PUSH2 0x8C5 JUMPI DUP1 PUSH4 0x5492F302 EQ PUSH2 0x8CD JUMPI PUSH2 0x763 JUMP JUMPDEST DUP1 PUSH4 0x49B46787 EQ PUSH2 0x89D JUMPI DUP1 PUSH4 0x4E5638F5 EQ PUSH2 0x8A5 JUMPI DUP1 PUSH4 0x4E87C5A8 EQ PUSH2 0x8AD JUMPI PUSH2 0x763 JUMP JUMPDEST DUP1 PUSH4 0x2B0AFAB3 GT PUSH2 0x68E JUMPI DUP1 PUSH4 0x3692616A GT PUSH2 0x621 JUMPI DUP1 PUSH4 0x42DF5641 GT PUSH2 0x5F0 JUMPI DUP1 PUSH4 0x42DF5641 EQ PUSH2 0x87D JUMPI DUP1 PUSH4 0x444D62B6 EQ PUSH2 0x885 JUMPI DUP1 PUSH4 0x463444B7 EQ PUSH2 0x88D JUMPI DUP1 PUSH4 0x484DF80A EQ PUSH2 0x895 JUMPI PUSH2 0x763 JUMP JUMPDEST DUP1 PUSH4 0x3692616A EQ PUSH2 0x850 JUMPI DUP1 PUSH4 0x36FC43FC EQ PUSH2 0x858 JUMPI DUP1 PUSH4 0x386D0976 EQ PUSH2 0x86D JUMPI DUP1 PUSH4 0x3968EC84 EQ PUSH2 0x875 JUMPI PUSH2 0x763 JUMP JUMPDEST DUP1 PUSH4 0x2E2F93F3 GT PUSH2 0x65D JUMPI DUP1 PUSH4 0x2E2F93F3 EQ PUSH2 0x830 JUMPI DUP1 PUSH4 0x30C0BB79 EQ PUSH2 0x838 JUMPI DUP1 PUSH4 0x31911C91 EQ PUSH2 0x840 JUMPI DUP1 PUSH4 0x34C37E21 EQ PUSH2 0x848 JUMPI PUSH2 0x763 JUMP JUMPDEST DUP1 PUSH4 0x2B0AFAB3 EQ PUSH2 0x805 JUMPI DUP1 PUSH4 0x2BE05960 EQ PUSH2 0x80D JUMPI DUP1 PUSH4 0x2BF8ABB3 EQ PUSH2 0x815 JUMPI DUP1 PUSH4 0x2D09A8E3 EQ PUSH2 0x81D JUMPI PUSH2 0x763 JUMP JUMPDEST DUP1 PUSH4 0xA5A4C20 GT PUSH2 0x706 JUMPI DUP1 PUSH4 0x175BF630 GT PUSH2 0x6D5 JUMPI DUP1 PUSH4 0x175BF630 EQ PUSH2 0x7E5 JUMPI DUP1 PUSH4 0x1D0FB88E EQ PUSH2 0x7ED JUMPI DUP1 PUSH4 0x29A47BC7 EQ PUSH2 0x7F5 JUMPI DUP1 PUSH4 0x29E3DD1F EQ PUSH2 0x7FD JUMPI PUSH2 0x763 JUMP JUMPDEST DUP1 PUSH4 0xA5A4C20 EQ PUSH2 0x7C5 JUMPI DUP1 PUSH4 0xB08BFD9 EQ PUSH2 0x7CD JUMPI DUP1 PUSH4 0xF1F0FFE EQ PUSH2 0x7D5 JUMPI DUP1 PUSH4 0xF78CC76 EQ PUSH2 0x7DD JUMPI PUSH2 0x763 JUMP JUMPDEST DUP1 PUSH4 0x6606D67 GT PUSH2 0x742 JUMPI DUP1 PUSH4 0x6606D67 EQ PUSH2 0x7A3 JUMPI DUP1 PUSH4 0x855D151 EQ PUSH2 0x7AB JUMPI DUP1 PUSH4 0x8E7F0DB EQ PUSH2 0x7B3 JUMPI DUP1 PUSH4 0x92A5CCE EQ PUSH2 0x7BB JUMPI PUSH2 0x763 JUMP JUMPDEST DUP1 PUSH3 0x653FF8 EQ PUSH2 0x768 JUMPI DUP1 PUSH4 0x363A1BF EQ PUSH2 0x786 JUMPI DUP1 PUSH4 0x4E76C8F EQ PUSH2 0x78E JUMPI JUMPDEST PUSH1 0x0 DUP1 REVERT JUMPDEST PUSH2 0x770 PUSH2 0xBC7 JUMP JUMPDEST PUSH1 0x40 MLOAD PUSH2 0x77D SWAP2 SWAP1 PUSH2 0x172C JUMP JUMPDEST PUSH1 0x40 MLOAD DUP1 SWAP2 SUB SWAP1 RETURN JUMPDEST PUSH2 0x770 PUSH2 0xBCD JUMP JUMPDEST PUSH2 0x796 PUSH2 0xBD3 JUMP JUMPDEST PUSH1 0x40 MLOAD PUSH2 0x77D SWAP2 SWAP1 PUSH2 0x1692 JUMP JUMPDEST PUSH2 0x796 PUSH2 0xBE2 JUMP JUMPDEST PUSH2 0x796 PUSH2 0xBF1 JUMP JUMPDEST PUSH2 0x770 PUSH2 0xC00 JUMP JUMPDEST PUSH2 0x7C3 PUSH2 0xC06 JUMP JUMPDEST STOP JUMPDEST PUSH2 0x770 PUSH2 0xC21 JUMP JUMPDEST PUSH2 0x770 PUSH2 0xC27 JUMP JUMPDEST PUSH2 0x770 PUSH2 0xC2D JUMP JUMPDEST PUSH2 0x770 PUSH2 0xC33 JUMP JUMPDEST PUSH2 0x770 PUSH2 0xC39 JUMP JUMPDEST PUSH2 0x770 PUSH2 0xC3F JUMP JUMPDEST PUSH2 0x796 PUSH2 0xC45 JUMP JUMPDEST PUSH2 0x770 PUSH2 0xC54 JUMP JUMPDEST PUSH2 0x770 PUSH2 0xC5A JUMP JUMPDEST PUSH2 0x770 PUSH2 0xC60 JUMP JUMPDEST PUSH2 0x770 PUSH2 0xC66 JUMP JUMPDEST PUSH2 0x7C3 PUSH2 0x82B CALLDATASIZE PUSH1 0x4 PUSH2 0x156A JUMP JUMPDEST PUSH2 0xC6C JUMP JUMPDEST PUSH2 0x796 PUSH2 0xE5A JUMP JUMPDEST PUSH2 0x770 PUSH2 0xE69 JUMP JUMPDEST PUSH2 0x770 PUSH2 0xE6F JUMP JUMPDEST PUSH2 0x770 PUSH2 0xE75 JUMP JUMPDEST PUSH2 0x770 PUSH2 0xE7B JUMP JUMPDEST PUSH2 0x860 PUSH2 0xE81 JUMP JUMPDEST PUSH1 0x40 MLOAD PUSH2 0x77D SWAP2 SWAP1 PUSH2 0x16A6 JUMP JUMPDEST PUSH2 0x770 PUSH2 0xE8A JUMP JUMPDEST PUSH2 0x770 PUSH2 0xE90 JUMP JUMPDEST PUSH2 0x770 PUSH2 0xE96 JUMP JUMPDEST PUSH2 0x770 PUSH2 0xE9C JUMP JUMPDEST PUSH2 0x796 PUSH2 0xEA2 JUMP JUMPDEST PUSH2 0x770 PUSH2 0xEB1 JUMP JUMPDEST PUSH2 0x770 PUSH2 0xEB7 JUMP JUMPDEST PUSH2 0x770 PUSH2 0xEBD JUMP JUMPDEST PUSH2 0x860 PUSH2 0xEC3 JUMP JUMPDEST PUSH2 0x770 PUSH2 0xECC JUMP JUMPDEST PUSH2 0x796 PUSH2 0xED2 JUMP JUMPDEST PUSH2 0x770 PUSH2 0xEE1 JUMP JUMPDEST PUSH2 0x796 PUSH2 0xEE7 JUMP JUMPDEST PUSH2 0x796 PUSH2 0xEF6 JUMP JUMPDEST PUSH2 0x7C3 PUSH2 0x8EB CALLDATASIZE PUSH1 0x4 PUSH2 0x1635 JUMP JUMPDEST PUSH2 0xF05 JUMP JUMPDEST PUSH2 0x770 PUSH2 0xF89 JUMP JUMPDEST PUSH2 0x770 PUSH2 0xF8F JUMP JUMPDEST PUSH2 0x7C3 PUSH2 0x90E CALLDATASIZE PUSH1 0x4 PUSH2 0x1635 JUMP JUMPDEST PUSH2 0xF95 JUMP JUMPDEST PUSH2 0x770 PUSH2 0xFD9 JUMP JUMPDEST PUSH2 0x770 PUSH2 0xFDF JUMP JUMPDEST PUSH2 0x7C3 PUSH2 0xFE5 JUMP JUMPDEST PUSH2 0x770 PUSH2 0xFF9 JUMP JUMPDEST PUSH2 0x770 PUSH2 0xFFF JUMP JUMPDEST PUSH2 0x7C3 PUSH2 0x949 CALLDATASIZE PUSH1 0x4 PUSH2 0x1635 JUMP JUMPDEST PUSH2 0x1005 JUMP JUMPDEST PUSH2 0x770 PUSH2 0x1085 JUMP JUMPDEST PUSH2 0x796 PUSH2 0x108B JUMP JUMPDEST PUSH2 0x796 PUSH2 0x109A JUMP JUMPDEST PUSH2 0x770 PUSH2 0x10A9 JUMP JUMPDEST PUSH2 0x770 PUSH2 0x10AF JUMP JUMPDEST PUSH2 0x770 PUSH2 0x10B5 JUMP JUMPDEST PUSH2 0x796 PUSH2 0x10BB JUMP JUMPDEST PUSH2 0x770 PUSH2 0x10CA JUMP JUMPDEST PUSH2 0x770 PUSH2 0x10D0 JUMP JUMPDEST PUSH2 0x770 PUSH2 0x10D6 JUMP JUMPDEST PUSH2 0x770 PUSH2 0x10DC JUMP JUMPDEST PUSH2 0x770 PUSH2 0x10E2 JUMP JUMPDEST PUSH2 0x770 PUSH2 0x10E8 JUMP JUMPDEST PUSH2 0x770 PUSH2 0x10EE JUMP JUMPDEST PUSH2 0x796 PUSH2 0x10F4 JUMP JUMPDEST PUSH2 0x770 PUSH2 0x1103 JUMP JUMPDEST PUSH2 0x770 PUSH2 0x1109 JUMP JUMPDEST PUSH2 0x770 PUSH2 0x110F JUMP JUMPDEST PUSH2 0x770 PUSH2 0x1115 JUMP JUMPDEST PUSH2 0x796 PUSH2 0x111B JUMP JUMPDEST PUSH2 0x770 PUSH2 0x112A JUMP JUMPDEST PUSH2 0x770 PUSH2 0x1130 JUMP JUMPDEST PUSH2 0x770 PUSH2 0x1136 JUMP JUMPDEST PUSH2 0x770 PUSH2 0x113C JUMP JUMPDEST PUSH2 0x770 PUSH2 0x1142 JUMP JUMPDEST PUSH2 0x770 PUSH2 0x1148 JUMP JUMPDEST PUSH2 0x770 PUSH2 0x114E JUMP JUMPDEST PUSH2 0x796 PUSH2 0x1154 JUMP JUMPDEST PUSH2 0x770 PUSH2 0x1163 JUMP JUMPDEST PUSH2 0x770 PUSH2 0x1169 JUMP JUMPDEST PUSH2 0x770 PUSH2 0x116F JUMP JUMPDEST PUSH2 0x770 PUSH2 0x1175 JUMP JUMPDEST PUSH2 0x796 PUSH2 0x117B JUMP JUMPDEST PUSH2 0x770 PUSH2 0x118A JUMP JUMPDEST PUSH2 0x796 PUSH2 0x1190 JUMP JUMPDEST PUSH2 0x770 PUSH2 0x119F JUMP JUMPDEST PUSH2 0x770 PUSH2 0x11A5 JUMP JUMPDEST PUSH2 0x770 PUSH2 0x11AB JUMP JUMPDEST PUSH2 0x770 PUSH2 0x11B1 JUMP JUMPDEST PUSH2 0x770 PUSH2 0x11B7 JUMP JUMPDEST PUSH2 0x770 PUSH2 0x11BD JUMP JUMPDEST PUSH2 0x770 PUSH2 0x11C3 JUMP JUMPDEST PUSH2 0x770 PUSH2 0x11C9 JUMP JUMPDEST PUSH2 0x796 PUSH2 0x11CF JUMP JUMPDEST PUSH2 0x770 PUSH2 0x11DE JUMP JUMPDEST PUSH2 0x770 PUSH2 0x11E4 JUMP JUMPDEST PUSH2 0x770 PUSH2 0x11EA JUMP JUMPDEST PUSH2 0x770 PUSH2 0x11F0 JUMP JUMPDEST PUSH2 0x770 PUSH2 0x11F6 JUMP JUMPDEST PUSH2 0x796 PUSH2 0x11FC JUMP JUMPDEST PUSH2 0x770 PUSH2 0x120B JUMP JUMPDEST PUSH2 0x770 PUSH2 0x1211 JUMP JUMPDEST PUSH2 0x770 PUSH2 0x1217 JUMP JUMPDEST PUSH2 0x7C3 PUSH2 0xB04 CALLDATASIZE PUSH1 0x4 PUSH2 0x1635 JUMP JUMPDEST PUSH2 0x121D JUMP JUMPDEST PUSH2 0x770 PUSH2 0x129D JUMP JUMPDEST PUSH2 0x770 PUSH2 0x12A3 JUMP JUMPDEST PUSH2 0x770 PUSH2 0x12A9 JUMP JUMPDEST PUSH2 0x770 PUSH2 0x12AF JUMP JUMPDEST PUSH2 0x770 PUSH2 0x12B5 JUMP JUMPDEST PUSH2 0x770 PUSH2 0x12BB JUMP JUMPDEST PUSH2 0x770 PUSH2 0x12C1 JUMP JUMPDEST PUSH2 0x796 PUSH2 0x12C7 JUMP JUMPDEST PUSH2 0x770 PUSH2 0x12D6 JUMP JUMPDEST PUSH2 0x7C3 PUSH2 0xB5F CALLDATASIZE PUSH1 0x4 PUSH2 0x1656 JUMP JUMPDEST PUSH2 0x12DC JUMP JUMPDEST PUSH2 0x770 PUSH2 0x1400 JUMP JUMPDEST PUSH2 0x7C3 PUSH2 0xB7A CALLDATASIZE PUSH1 0x4 PUSH2 0x1549 JUMP JUMPDEST PUSH2 0x1406 JUMP JUMPDEST PUSH2 0x770 PUSH2 0x1449 JUMP JUMPDEST PUSH2 0x770 PUSH2 0x144F JUMP JUMPDEST PUSH2 0x796 PUSH2 0x1455 JUMP JUMPDEST PUSH2 0x770 PUSH2 0x1464 JUMP JUMPDEST PUSH2 0x770 PUSH2 0x146A JUMP JUMPDEST PUSH2 0x796 PUSH2 0x1470 JUMP JUMPDEST PUSH2 0x796 PUSH2 0x147F JUMP JUMPDEST PUSH2 0x770 PUSH2 0x148E JUMP JUMPDEST PUSH2 0x770 PUSH2 0x1494 JUMP JUMPDEST PUSH1 0x6 SLOAD DUP2 JUMP JUMPDEST PUSH1 0x27 SLOAD SWAP1 JUMP JUMPDEST PUSH1 0x33 SLOAD PUSH1 0x1 PUSH1 0x1 PUSH1 0xA0 SHL SUB AND SWAP1 JUMP JUMPDEST PUSH1 0x37 SLOAD PUSH1 0x1 PUSH1 0x1 PUSH1 0xA0 SHL SUB AND DUP2 JUMP JUMPDEST PUSH1 0x32 SLOAD PUSH1 0x1 PUSH1 0x1 PUSH1 0xA0 SHL SUB AND SWAP1 JUMP JUMPDEST PUSH1 0x2D SLOAD DUP2 JUMP JUMPDEST PUSH2 0xC0E PUSH2 0x149A JUMP JUMPDEST PUSH2 0xC16 PUSH2 0x10F4 JUMP JUMPDEST PUSH1 0x1 PUSH1 0x1 PUSH1 0xA0 SHL SUB AND SELFDESTRUCT JUMPDEST PUSH1 0x2A SLOAD DUP2 JUMP JUMPDEST PUSH1 0xE SLOAD SWAP1 JUMP JUMPDEST PUSH1 0x16 SLOAD SWAP1 JUMP JUMPDEST PUSH1 0x11 SLOAD SWAP1 JUMP JUMPDEST PUSH1 0x17 SLOAD DUP2 JUMP JUMPDEST PUSH1 0xA SLOAD DUP2 JUMP JUMPDEST PUSH1 0x32 SLOAD PUSH1 0x1 PUSH1 0x1 PUSH1 0xA0 SHL SUB AND DUP2 JUMP JUMPDEST PUSH1 0x2C SLOAD SWAP1 JUMP JUMPDEST PUSH1 0x1C SLOAD SWAP1 JUMP JUMPDEST PUSH1 0x26 SLOAD DUP2 JUMP JUMPDEST PUSH1 0x25 SLOAD DUP2 JUMP JUMPDEST PUSH2 0xC74 PUSH2 0x149A JUMP JUMPDEST PUSH1 0x1 PUSH1 0x1 PUSH1 0xA0 SHL SUB DUP12 AND ISZERO PUSH2 0xC9F JUMPI PUSH1 0x30 DUP1 SLOAD PUSH1 0x1 PUSH1 0x1 PUSH1 0xA0 SHL SUB NOT AND PUSH1 0x1 PUSH1 0x1 PUSH1 0xA0 SHL SUB DUP14 AND OR SWAP1 SSTORE JUMPDEST PUSH1 0x1 PUSH1 0x1 PUSH1 0xA0 SHL SUB DUP11 AND ISZERO PUSH2 0xCCA JUMPI PUSH1 0x32 DUP1 SLOAD PUSH1 0x1 PUSH1 0x1 PUSH1 0xA0 SHL SUB NOT AND PUSH1 0x1 PUSH1 0x1 PUSH1 0xA0 SHL SUB DUP13 AND OR SWAP1 SSTORE JUMPDEST PUSH1 0x1 PUSH1 0x1 PUSH1 0xA0 SHL SUB DUP10 AND ISZERO PUSH2 0xCF5 JUMPI PUSH1 0x31 DUP1 SLOAD PUSH1 0x1 PUSH1 0x1 PUSH1 0xA0 SHL SUB NOT AND PUSH1 0x1 PUSH1 0x1 PUSH1 0xA0 SHL SUB DUP12 AND OR SWAP1 SSTORE JUMPDEST PUSH1 0x1 PUSH1 0x1 PUSH1 0xA0 SHL SUB DUP9 AND ISZERO PUSH2 0xD20 JUMPI PUSH1 0x33 DUP1 SLOAD PUSH1 0x1 PUSH1 0x1 PUSH1 0xA0 SHL SUB NOT AND PUSH1 0x1 PUSH1 0x1 PUSH1 0xA0 SHL SUB DUP11 AND OR SWAP1 SSTORE JUMPDEST PUSH1 0x1 PUSH1 0x1 PUSH1 0xA0 SHL SUB DUP8 AND ISZERO PUSH2 0xD4B JUMPI PUSH1 0x34 DUP1 SLOAD PUSH1 0x1 PUSH1 0x1 PUSH1 0xA0 SHL SUB NOT AND PUSH1 0x1 PUSH1 0x1 PUSH1 0xA0 SHL SUB DUP10 AND OR SWAP1 SSTORE JUMPDEST PUSH1 0x1 PUSH1 0x1 PUSH1 0xA0 SHL SUB DUP6 AND ISZERO PUSH2 0xD76 JUMPI PUSH1 0x37 DUP1 SLOAD PUSH1 0x1 PUSH1 0x1 PUSH1 0xA0 SHL SUB NOT AND PUSH1 0x1 PUSH1 0x1 PUSH1 0xA0 SHL SUB DUP8 AND OR SWAP1 SSTORE JUMPDEST PUSH1 0x1 PUSH1 0x1 PUSH1 0xA0 SHL SUB DUP7 AND ISZERO PUSH2 0xDA1 JUMPI PUSH1 0x36 DUP1 SLOAD PUSH1 0x1 PUSH1 0x1 PUSH1 0xA0 SHL SUB NOT AND PUSH1 0x1 PUSH1 0x1 PUSH1 0xA0 SHL SUB DUP9 AND OR SWAP1 SSTORE JUMPDEST PUSH1 0x1 PUSH1 0x1 PUSH1 0xA0 SHL SUB DUP5 AND ISZERO PUSH2 0xDCC JUMPI PUSH1 0x38 DUP1 SLOAD PUSH1 0x1 PUSH1 0x1 PUSH1 0xA0 SHL SUB NOT AND PUSH1 0x1 PUSH1 0x1 PUSH1 0xA0 SHL SUB DUP7 AND OR SWAP1 SSTORE JUMPDEST PUSH1 0x1 PUSH1 0x1 PUSH1 0xA0 SHL SUB DUP4 AND ISZERO PUSH2 0xDF7 JUMPI PUSH1 0x39 DUP1 SLOAD PUSH1 0x1 PUSH1 0x1 PUSH1 0xA0 SHL SUB NOT AND PUSH1 0x1 PUSH1 0x1 PUSH1 0xA0 SHL SUB DUP6 AND OR SWAP1 SSTORE JUMPDEST PUSH1 0x1 PUSH1 0x1 PUSH1 0xA0 SHL SUB DUP3 AND ISZERO PUSH2 0xE22 JUMPI PUSH1 0x35 DUP1 SLOAD PUSH1 0x1 PUSH1 0x1 PUSH1 0xA0 SHL SUB NOT AND PUSH1 0x1 PUSH1 0x1 PUSH1 0xA0 SHL SUB DUP5 AND OR SWAP1 SSTORE JUMPDEST PUSH1 0x1 PUSH1 0x1 PUSH1 0xA0 SHL SUB DUP2 AND ISZERO PUSH2 0xE4D JUMPI PUSH1 0x2F DUP1 SLOAD PUSH1 0x1 PUSH1 0x1 PUSH1 0xA0 SHL SUB NOT AND PUSH1 0x1 PUSH1 0x1 PUSH1 0xA0 SHL SUB DUP4 AND OR SWAP1 SSTORE JUMPDEST POP POP POP POP POP POP POP POP POP POP POP JUMP JUMPDEST PUSH1 0x2F SLOAD PUSH1 0x1 PUSH1 0x1 PUSH1 0xA0 SHL SUB AND SWAP1 JUMP JUMPDEST PUSH1 0xB SLOAD SWAP1 JUMP JUMPDEST PUSH1 0x19 SLOAD DUP2 JUMP JUMPDEST PUSH1 0x1D SLOAD DUP2 JUMP JUMPDEST PUSH1 0x9 SLOAD SWAP1 JUMP JUMPDEST PUSH1 0x10 SLOAD PUSH1 0xFF AND DUP2 JUMP JUMPDEST PUSH1 0x25 SLOAD SWAP1 JUMP JUMPDEST PUSH1 0x29 SLOAD SWAP1 JUMP JUMPDEST PUSH1 0x1A SLOAD DUP2 JUMP JUMPDEST PUSH1 0x20 SLOAD DUP2 JUMP JUMPDEST PUSH1 0x39 SLOAD PUSH1 0x1 PUSH1 0x1 PUSH1 0xA0 SHL SUB AND SWAP1 JUMP JUMPDEST PUSH1 0x1B SLOAD SWAP1 JUMP JUMPDEST PUSH1 0x2E SLOAD SWAP1 JUMP JUMPDEST PUSH1 0x4 SLOAD DUP2 JUMP JUMPDEST PUSH1 0x10 SLOAD PUSH1 0xFF AND SWAP1 JUMP JUMPDEST PUSH1 0x27 SLOAD DUP2 JUMP JUMPDEST PUSH1 0x33 SLOAD PUSH1 0x1 PUSH1 0x1 PUSH1 0xA0 SHL SUB AND DUP2 JUMP JUMPDEST PUSH1 0x2B SLOAD DUP2 JUMP JUMPDEST PUSH1 0x34 SLOAD PUSH1 0x1 PUSH1 0x1 PUSH1 0xA0 SHL SUB AND SWAP1 JUMP JUMPDEST PUSH1 0x35 SLOAD PUSH1 0x1 PUSH1 0x1 PUSH1 0xA0 SHL SUB AND SWAP1 JUMP JUMPDEST PUSH2 0xF0D PUSH2 0x149A JUMP JUMPDEST DUP2 PUSH1 0x1 EQ ISZERO PUSH2 0xF1C JUMPI PUSH1 0x27 DUP2 SWAP1 SSTORE JUMPDEST DUP2 PUSH1 0x2 EQ ISZERO PUSH2 0xF2B JUMPI PUSH1 0x2A DUP2 SWAP1 SSTORE JUMPDEST DUP2 PUSH1 0x3 EQ ISZERO PUSH2 0xF3A JUMPI PUSH1 0x28 DUP2 SWAP1 SSTORE JUMPDEST DUP2 PUSH1 0x4 EQ ISZERO PUSH2 0xF49 JUMPI PUSH1 0x29 DUP2 SWAP1 SSTORE JUMPDEST DUP2 PUSH1 0x5 EQ ISZERO PUSH2 0xF58 JUMPI PUSH1 0x2B DUP2 SWAP1 SSTORE JUMPDEST DUP2 PUSH1 0x6 EQ ISZERO PUSH2 0xF67 JUMPI PUSH1 0x2C DUP2 SWAP1 SSTORE JUMPDEST DUP2 PUSH1 0x7 EQ ISZERO PUSH2 0xF76 JUMPI PUSH1 0x2E DUP2 SWAP1 SSTORE JUMPDEST DUP2 PUSH1 0x8 EQ ISZERO PUSH2 0xF85 JUMPI PUSH1 0x2D DUP2 SWAP1 SSTORE JUMPDEST POP POP JUMP JUMPDEST PUSH1 0xC SLOAD DUP2 JUMP JUMPDEST PUSH1 0x28 SLOAD DUP2 JUMP JUMPDEST PUSH2 0xF9D PUSH2 0x149A JUMP JUMPDEST DUP2 PUSH1 0x1 EQ ISZERO PUSH2 0xFAC JUMPI PUSH1 0x1 DUP2 SWAP1 SSTORE JUMPDEST DUP2 PUSH1 0x2 EQ ISZERO PUSH2 0xFBB JUMPI PUSH1 0x2 DUP2 SWAP1 SSTORE JUMPDEST DUP2 PUSH1 0x3 EQ ISZERO PUSH2 0xFCA JUMPI PUSH1 0x3 DUP2 SWAP1 SSTORE JUMPDEST DUP2 PUSH1 0x4 EQ ISZERO PUSH2 0xF85 JUMPI PUSH1 0x4 SSTORE POP JUMP JUMPDEST PUSH1 0x1B SLOAD DUP2 JUMP JUMPDEST PUSH1 0x1E SLOAD DUP2 JUMP JUMPDEST PUSH2 0xFED PUSH2 0x149A JUMP JUMPDEST PUSH2 0xFF7 PUSH1 0x0 PUSH2 0x14D9 JUMP JUMPDEST JUMP JUMPDEST PUSH1 0x18 SLOAD DUP2 JUMP JUMPDEST PUSH1 0xA SLOAD SWAP1 JUMP JUMPDEST PUSH2 0x100D PUSH2 0x149A JUMP JUMPDEST DUP2 PUSH1 0x1 EQ ISZERO PUSH2 0x101C JUMPI PUSH1 0x1F DUP2 SWAP1 SSTORE JUMPDEST DUP2 PUSH1 0x2 EQ ISZERO PUSH2 0x102B JUMPI PUSH1 0x22 DUP2 SWAP1 SSTORE JUMPDEST DUP2 PUSH1 0x3 EQ ISZERO PUSH2 0x103A JUMPI PUSH1 0x20 DUP2 SWAP1 SSTORE JUMPDEST DUP2 PUSH1 0x4 EQ ISZERO PUSH2 0x1049 JUMPI PUSH1 0x21 DUP2 SWAP1 SSTORE JUMPDEST DUP2 PUSH1 0x5 EQ ISZERO PUSH2 0x1058 JUMPI PUSH1 0x23 DUP2 SWAP1 SSTORE JUMPDEST DUP2 PUSH1 0x6 EQ ISZERO PUSH2 0x1067 JUMPI PUSH1 0x24 DUP2 SWAP1 SSTORE JUMPDEST DUP2 PUSH1 0x7 EQ ISZERO PUSH2 0x1076 JUMPI PUSH1 0x26 DUP2 SWAP1 SSTORE JUMPDEST DUP2 PUSH1 0x8 EQ ISZERO PUSH2 0xF85 JUMPI PUSH1 0x25 SSTORE POP JUMP JUMPDEST PUSH1 0x22 SLOAD DUP2 JUMP JUMPDEST PUSH1 0x38 SLOAD PUSH1 0x1 PUSH1 0x1 PUSH1 0xA0 SHL SUB AND SWAP1 JUMP JUMPDEST PUSH1 0x34 SLOAD PUSH1 0x1 PUSH1 0x1 PUSH1 0xA0 SHL SUB AND DUP2 JUMP JUMPDEST PUSH1 0x3 SLOAD SWAP1 JUMP JUMPDEST PUSH1 0x24 SLOAD DUP2 JUMP JUMPDEST PUSH1 0x2C SLOAD DUP2 JUMP JUMPDEST PUSH1 0x30 SLOAD PUSH1 0x1 PUSH1 0x1 PUSH1 0xA0 SHL SUB AND DUP2 JUMP JUMPDEST PUSH1 0x26 SLOAD SWAP1 JUMP JUMPDEST PUSH1 0xE SLOAD DUP2 JUMP JUMPDEST PUSH1 0xD SLOAD DUP2 JUMP JUMPDEST PUSH1 0x11 SLOAD DUP2 JUMP JUMPDEST PUSH1 0x2D SLOAD SWAP1 JUMP JUMPDEST PUSH1 0x1E SLOAD SWAP1 JUMP JUMPDEST PUSH1 0x24 SLOAD SWAP1 JUMP JUMPDEST PUSH1 0x0 SLOAD PUSH1 0x1 PUSH1 0x1 PUSH1 0xA0 SHL SUB AND SWAP1 JUMP JUMPDEST PUSH1 0x23 SLOAD SWAP1 JUMP JUMPDEST PUSH1 0x3 SLOAD DUP2 JUMP JUMPDEST PUSH1 0x2B SLOAD SWAP1 JUMP JUMPDEST PUSH1 0x1 SLOAD SWAP1 JUMP JUMPDEST PUSH1 0x31 SLOAD PUSH1 0x1 PUSH1 0x1 PUSH1 0xA0 SHL SUB AND DUP2 JUMP JUMPDEST PUSH1 0x28 SLOAD SWAP1 JUMP JUMPDEST PUSH1 0x1C SLOAD DUP2 JUMP JUMPDEST PUSH1 0x5 SLOAD SWAP1 JUMP JUMPDEST PUSH1 0x15 SLOAD SWAP1 JUMP JUMPDEST PUSH1 0x20 SLOAD SWAP1 JUMP JUMPDEST PUSH1 0x1 SLOAD DUP2 JUMP JUMPDEST PUSH1 0x8 SLOAD DUP2 JUMP JUMPDEST PUSH1 0x35 SLOAD PUSH1 0x1 PUSH1 0x1 PUSH1 0xA0 SHL SUB AND DUP2 JUMP JUMPDEST PUSH1 0xC SLOAD SWAP1 JUMP JUMPDEST PUSH1 0x29 SLOAD DUP2 JUMP JUMPDEST PUSH1 0x2A SLOAD SWAP1 JUMP JUMPDEST PUSH1 0x12 SLOAD SWAP1 JUMP JUMPDEST PUSH1 0x36 SLOAD PUSH1 0x1 PUSH1 0x1 PUSH1 0xA0 SHL SUB AND SWAP1 JUMP JUMPDEST PUSH1 0x14 SLOAD DUP2 JUMP JUMPDEST PUSH1 0x39 SLOAD PUSH1 0x1 PUSH1 0x1 PUSH1 0xA0 SHL SUB AND DUP2 JUMP JUMPDEST PUSH1 0x7 SLOAD SWAP1 JUMP JUMPDEST PUSH1 0x13 SLOAD SWAP1 JUMP JUMPDEST PUSH1 0x13 SLOAD DUP2 JUMP JUMPDEST PUSH1 0x22 SLOAD SWAP1 JUMP JUMPDEST PUSH1 0xF SLOAD SWAP1 JUMP JUMPDEST PUSH1 0x5 SLOAD DUP2 JUMP JUMPDEST PUSH1 0x2 SLOAD DUP2 JUMP JUMPDEST PUSH1 0x1F SLOAD DUP2 JUMP JUMPDEST PUSH1 0x30 SLOAD PUSH1 0x1 PUSH1 0x1 PUSH1 0xA0 SHL SUB AND SWAP1 JUMP JUMPDEST PUSH1 0x1F SLOAD SWAP1 JUMP JUMPDEST PUSH1 0x16 SLOAD DUP2 JUMP JUMPDEST PUSH1 0x17 SLOAD SWAP1 JUMP JUMPDEST PUSH1 0x15 SLOAD DUP2 JUMP JUMPDEST PUSH1 0xB SLOAD DUP2 JUMP JUMPDEST PUSH1 0x36 SLOAD PUSH1 0x1 PUSH1 0x1 PUSH1 0xA0 SHL SUB AND DUP2 JUMP JUMPDEST PUSH1 0x19 SLOAD SWAP1 JUMP JUMPDEST PUSH1 0x8 SLOAD SWAP1 JUMP JUMPDEST PUSH1 0x12 SLOAD DUP2 JUMP JUMPDEST PUSH2 0x1225 PUSH2 0x149A JUMP JUMPDEST DUP2 PUSH1 0x1 EQ ISZERO PUSH2 0x1234 JUMPI PUSH1 0x17 DUP2 SWAP1 SSTORE JUMPDEST DUP2 PUSH1 0x2 EQ ISZERO PUSH2 0x1243 JUMPI PUSH1 0x1A DUP2 SWAP1 SSTORE JUMPDEST DUP2 PUSH1 0x3 EQ ISZERO PUSH2 0x1252 JUMPI PUSH1 0x18 DUP2 SWAP1 SSTORE JUMPDEST DUP2 PUSH1 0x4 EQ ISZERO PUSH2 0x1261 JUMPI PUSH1 0x19 DUP2 SWAP1 SSTORE JUMPDEST DUP2 PUSH1 0x5 EQ ISZERO PUSH2 0x1270 JUMPI PUSH1 0x1B DUP2 SWAP1 SSTORE JUMPDEST DUP2 PUSH1 0x6 EQ ISZERO PUSH2 0x127F JUMPI PUSH1 0x1C DUP2 SWAP1 SSTORE JUMPDEST DUP2 PUSH1 0x7 EQ ISZERO PUSH2 0x128E JUMPI PUSH1 0x1E DUP2 SWAP1 SSTORE JUMPDEST DUP2 PUSH1 0x8 EQ ISZERO PUSH2 0xF85 JUMPI PUSH1 0x1D SSTORE POP JUMP JUMPDEST PUSH1 0x4 SLOAD SWAP1 JUMP JUMPDEST PUSH1 0x1A SLOAD SWAP1 JUMP JUMPDEST PUSH1 0xF SLOAD DUP2 JUMP JUMPDEST PUSH1 0x14 SLOAD SWAP1 JUMP JUMPDEST PUSH1 0x21 SLOAD SWAP1 JUMP JUMPDEST PUSH1 0x9 SLOAD DUP2 JUMP JUMPDEST PUSH1 0x23 SLOAD DUP2 JUMP JUMPDEST PUSH1 0x31 SLOAD PUSH1 0x1 PUSH1 0x1 PUSH1 0xA0 SHL SUB AND SWAP1 JUMP JUMPDEST PUSH1 0x2 SLOAD SWAP1 JUMP JUMPDEST PUSH2 0x12E4 PUSH2 0x149A JUMP JUMPDEST DUP3 PUSH1 0x1 EQ ISZERO PUSH2 0x12F3 JUMPI PUSH1 0x5 DUP3 SWAP1 SSTORE JUMPDEST DUP3 PUSH1 0x2 EQ ISZERO PUSH2 0x1302 JUMPI PUSH1 0x6 DUP3 SWAP1 SSTORE JUMPDEST DUP3 PUSH1 0x3 EQ ISZERO PUSH2 0x1311 JUMPI PUSH1 0x7 DUP3 SWAP1 SSTORE JUMPDEST DUP3 PUSH1 0x4 EQ ISZERO PUSH2 0x1320 JUMPI PUSH1 0x8 DUP3 SWAP1 SSTORE JUMPDEST DUP3 PUSH1 0x5 EQ ISZERO PUSH2 0x132F JUMPI PUSH1 0x9 DUP3 SWAP1 SSTORE JUMPDEST DUP3 PUSH1 0x6 EQ ISZERO PUSH2 0x133E JUMPI PUSH1 0xA DUP3 SWAP1 SSTORE JUMPDEST DUP3 PUSH1 0x7 EQ ISZERO PUSH2 0x134D JUMPI PUSH1 0xB DUP3 SWAP1 SSTORE JUMPDEST DUP3 PUSH1 0x8 EQ ISZERO PUSH2 0x135C JUMPI PUSH1 0xC DUP3 SWAP1 SSTORE JUMPDEST DUP3 PUSH1 0x9 EQ ISZERO PUSH2 0x136B JUMPI PUSH1 0xD DUP3 SWAP1 SSTORE JUMPDEST DUP3 PUSH1 0xA EQ ISZERO PUSH2 0x137A JUMPI PUSH1 0xE DUP3 SWAP1 SSTORE JUMPDEST DUP3 PUSH1 0xB EQ ISZERO PUSH2 0x1389 JUMPI PUSH1 0xF DUP3 SWAP1 SSTORE JUMPDEST DUP3 PUSH1 0xC EQ ISZERO PUSH2 0x13A1 JUMPI PUSH1 0x10 DUP1 SLOAD PUSH1 0xFF NOT AND DUP3 ISZERO ISZERO OR SWAP1 SSTORE JUMPDEST DUP3 PUSH1 0xD EQ ISZERO PUSH2 0x13B0 JUMPI PUSH1 0x11 DUP3 SWAP1 SSTORE JUMPDEST DUP3 PUSH1 0xE EQ ISZERO PUSH2 0x13BF JUMPI PUSH1 0x12 DUP3 SWAP1 SSTORE JUMPDEST DUP3 PUSH1 0xF EQ ISZERO PUSH2 0x13CE JUMPI PUSH1 0x13 DUP3 SWAP1 SSTORE JUMPDEST DUP3 PUSH1 0x10 EQ ISZERO PUSH2 0x13DD JUMPI PUSH1 0x14 DUP3 SWAP1 SSTORE JUMPDEST DUP3 PUSH1 0x11 EQ ISZERO PUSH2 0x13EC JUMPI PUSH1 0x15 DUP3 SWAP1 SSTORE JUMPDEST DUP3 PUSH1 0x12 EQ ISZERO PUSH2 0x13FB JUMPI PUSH1 0x16 DUP3 SWAP1 SSTORE JUMPDEST POP POP POP JUMP JUMPDEST PUSH1 0x1D SLOAD SWAP1 JUMP JUMPDEST PUSH2 0x140E PUSH2 0x149A JUMP JUMPDEST PUSH1 0x1 PUSH1 0x1 PUSH1 0xA0 SHL SUB DUP2 AND PUSH2 0x143D JUMPI PUSH1 0x40 MLOAD PUSH3 0x461BCD PUSH1 0xE5 SHL DUP2 MSTORE PUSH1 0x4 ADD PUSH2 0x1434 SWAP1 PUSH2 0x16B1 JUMP JUMPDEST PUSH1 0x40 MLOAD DUP1 SWAP2 SUB SWAP1 REVERT JUMPDEST PUSH2 0x1446 DUP2 PUSH2 0x14D9 JUMP JUMPDEST POP JUMP JUMPDEST PUSH1 0x21 SLOAD DUP2 JUMP JUMPDEST PUSH1 0x2E SLOAD DUP2 JUMP JUMPDEST PUSH1 0x37 SLOAD PUSH1 0x1 PUSH1 0x1 PUSH1 0xA0 SHL SUB AND SWAP1 JUMP JUMPDEST PUSH1 0xD SLOAD SWAP1 JUMP JUMPDEST PUSH1 0x7 SLOAD DUP2 JUMP JUMPDEST PUSH1 0x38 SLOAD PUSH1 0x1 PUSH1 0x1 PUSH1 0xA0 SHL SUB AND DUP2 JUMP JUMPDEST PUSH1 0x2F SLOAD PUSH1 0x1 PUSH1 0x1 PUSH1 0xA0 SHL SUB AND DUP2 JUMP JUMPDEST PUSH1 0x6 SLOAD SWAP1 JUMP JUMPDEST PUSH1 0x18 SLOAD SWAP1 JUMP JUMPDEST PUSH2 0x14A2 PUSH2 0x1529 JUMP JUMPDEST PUSH1 0x1 PUSH1 0x1 PUSH1 0xA0 SHL SUB AND PUSH2 0x14B3 PUSH2 0x10F4 JUMP JUMPDEST PUSH1 0x1 PUSH1 0x1 PUSH1 0xA0 SHL SUB AND EQ PUSH2 0xFF7 JUMPI PUSH1 0x40 MLOAD PUSH3 0x461BCD PUSH1 0xE5 SHL DUP2 MSTORE PUSH1 0x4 ADD PUSH2 0x1434 SWAP1 PUSH2 0x16F7 JUMP JUMPDEST PUSH1 0x0 DUP1 SLOAD PUSH1 0x1 PUSH1 0x1 PUSH1 0xA0 SHL SUB DUP4 DUP2 AND PUSH1 0x1 PUSH1 0x1 PUSH1 0xA0 SHL SUB NOT DUP4 AND DUP2 OR DUP5 SSTORE PUSH1 0x40 MLOAD SWAP2 SWAP1 SWAP3 AND SWAP3 DUP4 SWAP2 PUSH32 0x8BE0079C531659141344CD1FD0A4F28419497F9722A3DAAFE3B4186F6B6457E0 SWAP2 SWAP1 LOG3 POP POP JUMP JUMPDEST CALLER SWAP1 JUMP JUMPDEST DUP1 CALLDATALOAD PUSH1 0x1 PUSH1 0x1 PUSH1 0xA0 SHL SUB DUP2 AND DUP2 EQ PUSH2 0x1544 JUMPI PUSH1 0x0 DUP1 REVERT JUMPDEST SWAP2 SWAP1 POP JUMP JUMPDEST PUSH1 0x0 PUSH1 0x20 DUP3 DUP5 SUB SLT ISZERO PUSH2 0x155A JUMPI DUP1 DUP2 REVERT JUMPDEST PUSH2 0x1563 DUP3 PUSH2 0x152D JUMP JUMPDEST SWAP4 SWAP3 POP POP POP JUMP JUMPDEST PUSH1 0x0 DUP1 PUSH1 0x0 DUP1 PUSH1 0x0 DUP1 PUSH1 0x0 DUP1 PUSH1 0x0 DUP1 PUSH1 0x0 PUSH2 0x160 DUP13 DUP15 SUB SLT ISZERO PUSH2 0x158B JUMPI DUP7 DUP8 REVERT JUMPDEST PUSH2 0x1594 DUP13 PUSH2 0x152D JUMP JUMPDEST SWAP11 POP PUSH2 0x15A2 PUSH1 0x20 DUP14 ADD PUSH2 0x152D JUMP JUMPDEST SWAP10 POP PUSH2 0x15B0 PUSH1 0x40 DUP14 ADD PUSH2 0x152D JUMP JUMPDEST SWAP9 POP PUSH2 0x15BE PUSH1 0x60 DUP14 ADD PUSH2 0x152D JUMP JUMPDEST SWAP8 POP PUSH2 0x15CC PUSH1 0x80 DUP14 ADD PUSH2 0x152D JUMP JUMPDEST SWAP7 POP PUSH2 0x15DA PUSH1 0xA0 DUP14 ADD PUSH2 0x152D JUMP JUMPDEST SWAP6 POP PUSH2 0x15E8 PUSH1 0xC0 DUP14 ADD PUSH2 0x152D JUMP JUMPDEST SWAP5 POP PUSH2 0x15F6 PUSH1 0xE0 DUP14 ADD PUSH2 0x152D JUMP JUMPDEST SWAP4 POP PUSH2 0x1605 PUSH2 0x100 DUP14 ADD PUSH2 0x152D JUMP JUMPDEST SWAP3 POP PUSH2 0x1614 PUSH2 0x120 DUP14 ADD PUSH2 0x152D JUMP JUMPDEST SWAP2 POP PUSH2 0x1623 PUSH2 0x140 DUP14 ADD PUSH2 0x152D JUMP JUMPDEST SWAP1 POP SWAP3 SWAP6 SWAP9 SWAP12 POP SWAP3 SWAP6 SWAP9 SWAP12 SWAP1 SWAP4 SWAP7 SWAP10 POP JUMP JUMPDEST PUSH1 0x0 DUP1 PUSH1 0x40 DUP4 DUP6 SUB SLT ISZERO PUSH2 0x1647 JUMPI DUP2 DUP3 REVERT JUMPDEST POP POP DUP1 CALLDATALOAD SWAP3 PUSH1 0x20 SWAP1 SWAP2 ADD CALLDATALOAD SWAP2 POP JUMP JUMPDEST PUSH1 0x0 DUP1 PUSH1 0x0 PUSH1 0x60 DUP5 DUP7 SUB SLT ISZERO PUSH2 0x166A JUMPI DUP3 DUP4 REVERT JUMPDEST DUP4 CALLDATALOAD SWAP3 POP PUSH1 0x20 DUP5 ADD CALLDATALOAD SWAP2 POP PUSH1 0x40 DUP5 ADD CALLDATALOAD DUP1 ISZERO ISZERO DUP2 EQ PUSH2 0x1687 JUMPI DUP2 DUP3 REVERT JUMPDEST DUP1 SWAP2 POP POP SWAP3 POP SWAP3 POP SWAP3 JUMP JUMPDEST PUSH1 0x1 PUSH1 0x1 PUSH1 0xA0 SHL SUB SWAP2 SWAP1 SWAP2 AND DUP2 MSTORE PUSH1 0x20 ADD SWAP1 JUMP JUMPDEST SWAP1 ISZERO ISZERO DUP2 MSTORE PUSH1 0x20 ADD SWAP1 JUMP JUMPDEST PUSH1 0x20 DUP1 DUP3 MSTORE PUSH1 0x26 SWAP1 DUP3 ADD MSTORE PUSH32 0x4F776E61626C653A206E6577206F776E657220697320746865207A65726F2061 PUSH1 0x40 DUP3 ADD MSTORE PUSH6 0x646472657373 PUSH1 0xD0 SHL PUSH1 0x60 DUP3 ADD MSTORE PUSH1 0x80 ADD SWAP1 JUMP JUMPDEST PUSH1 0x20 DUP1 DUP3 MSTORE DUP2 DUP2 ADD MSTORE PUSH32 0x4F776E61626C653A2063616C6C6572206973206E6F7420746865206F776E6572 PUSH1 0x40 DUP3 ADD MSTORE PUSH1 0x60 ADD SWAP1 JUMP JUMPDEST SWAP1 DUP2 MSTORE PUSH1 0x20 ADD SWAP1 JUMP INVALID LOG2 PUSH5 0x6970667358 0x22 SLT KECCAK256 STATICCALL DUP13 0xFC 0xCE 0xBA DUP3 PUSH19 0x9F6071705D769086D8C83E0B58445BA1602659 0x5C PUSH9 0x904F98B364736F6C63 NUMBER STOP ADDMOD STOP STOP CALLER "
				},
				"gasEstimates": {
					"creation": {
						"codeDepositCost": "1199000",
						"executionCost": "944853",
						"totalCost": "2143853"
					},
					"external": {
						"ARCHIVING_COMMIT_ROUND_DURATION()": "1163",
						"ARCHIVING_DATA_BATCH_SIZE()": "1119",
						"ARCHIVING_MAX_CONSENSUS_WORKER_COUNT()": "1141",
						"ARCHIVING_MIN_CONSENSUS_WORKER_COUNT()": "1185",
						"ARCHIVING_MIN_REP_DataValidation()": "1117",
						"ARCHIVING_MIN_REWARD_DataValidation()": "1164",
						"ARCHIVING_MIN_STAKE()": "1120",
						"ARCHIVING_REVEAL_ROUND_DURATION()": "1118",
						"AddressManager()": "1182",
						"ArchivingSystem()": "1204",
						"COMPLIANCE_COMMIT_ROUND_DURATION()": "1140",
						"COMPLIANCE_DATA_BATCH_SIZE()": "1119",
						"COMPLIANCE_MAX_CONSENSUS_WORKER_COUNT()": "1163",
						"COMPLIANCE_MIN_CONSENSUS_WORKER_COUNT()": "1119",
						"COMPLIANCE_MIN_REP_DataValidation()": "1162",
						"COMPLIANCE_MIN_REWARD_DataValidation()": "1185",
						"COMPLIANCE_MIN_STAKE()": "1118",
						"COMPLIANCE_REVEAL_ROUND_DURATION()": "1141",
						"ComplianceSystem()": "1162",
						"INDEXING_COMMIT_ROUND_DURATION()": "1140",
						"INDEXING_DATA_BATCH_SIZE()": "1161",
						"INDEXING_MAX_CONSENSUS_WORKER_COUNT()": "1183",
						"INDEXING_MIN_CONSENSUS_WORKER_COUNT()": "1140",
						"INDEXING_MIN_REP_DataValidation()": "1142",
						"INDEXING_MIN_REWARD_DataValidation()": "1164",
						"INDEXING_MIN_STAKE()": "1185",
						"INDEXING_REVEAL_ROUND_DURATION()": "1184",
						"IndexingSystem()": "1158",
						"MAX_CONTRACT_STORED_BATCHES()": "1142",
						"MAX_SUCCEEDING_NOVOTES()": "1118",
						"MAX_TOTAL_WORKERS()": "1140",
						"MAX_UPDATE_ITERATIONS()": "1119",
						"NOVOTE_REGISTRATION_WAIT_DURATION()": "1141",
						"RepManager()": "1205",
						"Reputation()": "1227",
						"RewardManager()": "1183",
						"SPOT_COMMIT_ROUND_DURATION()": "1118",
						"SPOT_DATA_BATCH_SIZE()": "1117",
						"SPOT_GLOBAL_MAX_SPOT_PER_PERIOD()": "1140",
						"SPOT_INTER_ALLOCATION_DURATION()": "1139",
						"SPOT_MAX_CONSENSUS_WORKER_COUNT()": "1162",
						"SPOT_MAX_SPOT_PER_USER_PER_PERIOD()": "1140",
						"SPOT_MIN_CONSENSUS_WORKER_COUNT()": "1183",
						"SPOT_MIN_REP_DataValidation()": "1184",
						"SPOT_MIN_REP_SpotData()": "1163",
						"SPOT_MIN_REWARD_DataValidation()": "1117",
						"SPOT_MIN_REWARD_SpotData()": "1140",
						"SPOT_MIN_STAKE()": "1121",
						"SPOT_NB_TIMEFRAMES()": "1140",
						"SPOT_REVEAL_ROUND_DURATION()": "1141",
						"SPOT_TIMEFRAME_DURATION()": "1139",
						"SPOT_TOGGLE_ENABLED()": "1153",
						"SpottingSystem()": "1204",
						"StakeManager()": "1182",
						"VOTE_QUORUM()": "1139",
						"destroyContract()": "infinite",
						"getAddressManager()": "1227",
						"getArchivingSystem()": "1204",
						"getComplianceSystem()": "1181",
						"getExordeToken()": "1161",
						"getIndexingSystem()": "1160",
						"getMaxTotalWorkers()": "1163",
						"getRepManager()": "1184",
						"getReputationSystem()": "1204",
						"getRewardManager()": "1207",
						"getSpottingSystem()": "1160",
						"getStakeManager()": "1225",
						"getVoteQuorum()": "1184",
						"get_ARCHIVING_COMMIT_ROUND_DURATION()": "1141",
						"get_ARCHIVING_DATA_BATCH_SIZE()": "1143",
						"get_ARCHIVING_MAX_CONSENSUS_WORKER_COUNT()": "1185",
						"get_ARCHIVING_MIN_CONSENSUS_WORKER_COUNT()": "1119",
						"get_ARCHIVING_MIN_REP_DataValidation()": "1120",
						"get_ARCHIVING_MIN_REWARD_DataValidation()": "1161",
						"get_ARCHIVING_MIN_STAKE()": "1163",
						"get_ARCHIVING_REVEAL_ROUND_DURATION()": "1185",
						"get_COMPLIANCE_COMMIT_ROUND_DURATION()": "1184",
						"get_COMPLIANCE_DATA_BATCH_SIZE()": "1163",
						"get_COMPLIANCE_MAX_CONSENSUS_WORKER_COUNT()": "1184",
						"get_COMPLIANCE_MIN_CONSENSUS_WORKER_COUNT()": "1182",
						"get_COMPLIANCE_MIN_REP_DataValidation()": "1183",
						"get_COMPLIANCE_MIN_REWARD_DataValidation()": "1139",
						"get_COMPLIANCE_MIN_STAKE()": "1117",
						"get_COMPLIANCE_REVEAL_ROUND_DURATION()": "1120",
						"get_INDEXING_COMMIT_ROUND_DURATION()": "1164",
						"get_INDEXING_DATA_BATCH_SIZE()": "1119",
						"get_INDEXING_MAX_CONSENSUS_WORKER_COUNT()": "1183",
						"get_INDEXING_MIN_CONSENSUS_WORKER_COUNT()": "1118",
						"get_INDEXING_MIN_REP_DataValidation()": "1162",
						"get_INDEXING_MIN_REWARD_DataValidation()": "1163",
						"get_INDEXING_MIN_STAKE()": "1162",
						"get_INDEXING_REVEAL_ROUND_DURATION()": "1120",
						"get_MAX_CONTRACT_STORED_BATCHES()": "1184",
						"get_MAX_SUCCEEDING_NOVOTES()": "1185",
						"get_MAX_UPDATE_ITERATIONS()": "1162",
						"get_NOVOTE_REGISTRATION_WAIT_DURATION()": "1164",
						"get_SPOT_COMMIT_ROUND_DURATION()": "1119",
						"get_SPOT_DATA_BATCH_SIZE()": "1163",
						"get_SPOT_GLOBAL_MAX_SPOT_PER_PERIOD()": "1185",
						"get_SPOT_INTER_ALLOCATION_DURATION()": "1184",
						"get_SPOT_MAX_CONSENSUS_WORKER_COUNT()": "1118",
						"get_SPOT_MAX_SPOT_PER_USER_PER_PERIOD()": "1118",
						"get_SPOT_MIN_CONSENSUS_WORKER_COUNT()": "1184",
						"get_SPOT_MIN_REP_DataValidation()": "1142",
						"get_SPOT_MIN_REP_SpotData()": "1119",
						"get_SPOT_MIN_REWARD_DataValidation()": "1161",
						"get_SPOT_MIN_REWARD_SpotData()": "1141",
						"get_SPOT_MIN_STAKE()": "1160",
						"get_SPOT_NB_TIMEFRAMES()": "1161",
						"get_SPOT_REVEAL_ROUND_DURATION()": "1141",
						"get_SPOT_TIMEFRAME_DURATION()": "1186",
						"get_SPOT_TOGGLE_ENABLED()": "1176",
						"getsFuelSystem()": "1161",
						"owner()": "1184",
						"renounceOwnership()": "infinite",
						"sFuel()": "1226",
						"token()": "1180",
						"transferOwnership(address)": "23856",
						"updateArchivingParameters(uint256,uint256)": "161595",
						"updateComplianceParameters(uint256,uint256)": "161607",
						"updateContractsAddresses(address,address,address,address,address,address,address,address,address,address,address)": "infinite",
						"updateGeneralParameters(uint256,uint256)": "81423",
						"updateIndexingParameters(uint256,uint256)": "161608",
						"updateSpottingParameters(uint256,uint256,bool)": "362806"
					}
				},
				"methodIdentifiers": {
					"ARCHIVING_COMMIT_ROUND_DURATION()": "531780bb",
					"ARCHIVING_DATA_BATCH_SIZE()": "4ed60b2a",
					"ARCHIVING_MAX_CONSENSUS_WORKER_COUNT()": "ac846e79",
					"ARCHIVING_MIN_CONSENSUS_WORKER_COUNT()": "5d1c3182",
					"ARCHIVING_MIN_REP_DataValidation()": "f5bec1ad",
					"ARCHIVING_MIN_REWARD_DataValidation()": "08e7f0db",
					"ARCHIVING_MIN_STAKE()": "0a5a4c20",
					"ARCHIVING_REVEAL_ROUND_DURATION()": "8360034d",
					"AddressManager()": "7a34da67",
					"ArchivingSystem()": "b6c6ec02",
					"COMPLIANCE_COMMIT_ROUND_DURATION()": "6785f847",
					"COMPLIANCE_DATA_BATCH_SIZE()": "175bf630",
					"COMPLIANCE_MAX_CONSENSUS_WORKER_COUNT()": "31911c91",
					"COMPLIANCE_MIN_CONSENSUS_WORKER_COUNT()": "728d23ab",
					"COMPLIANCE_MIN_REP_DataValidation()": "6a8e0ece",
					"COMPLIANCE_MIN_REWARD_DataValidation()": "34c37e21",
					"COMPLIANCE_MIN_STAKE()": "42df5641",
					"COMPLIANCE_REVEAL_ROUND_DURATION()": "9a175938",
					"ComplianceSystem()": "06606d67",
					"INDEXING_COMMIT_ROUND_DURATION()": "e9704f81",
					"INDEXING_DATA_BATCH_SIZE()": "c95b53c5",
					"INDEXING_MAX_CONSENSUS_WORKER_COUNT()": "f4e20b9c",
					"INDEXING_MIN_CONSENSUS_WORKER_COUNT()": "444d62b6",
					"INDEXING_MIN_REP_DataValidation()": "2be05960",
					"INDEXING_MIN_REWARD_DataValidation()": "2bf8abb3",
					"INDEXING_MIN_STAKE()": "779231b2",
					"INDEXING_REVEAL_ROUND_DURATION()": "7e8603e9",
					"IndexingSystem()": "fbf14851",
					"MAX_CONTRACT_STORED_BATCHES()": "4e5638f5",
					"MAX_SUCCEEDING_NOVOTES()": "d4efd2ba",
					"MAX_TOTAL_WORKERS()": "a327181b",
					"MAX_UPDATE_ITERATIONS()": "90d10b6e",
					"NOVOTE_REGISTRATION_WAIT_DURATION()": "d0eed967",
					"RepManager()": "29a47bc7",
					"Reputation()": "9904ed8d",
					"RewardManager()": "51912f29",
					"SPOT_COMMIT_ROUND_DURATION()": "e6fdd4c0",
					"SPOT_DATA_BATCH_SIZE()": "c6eacbfe",
					"SPOT_GLOBAL_MAX_SPOT_PER_PERIOD()": "e0de3d7c",
					"SPOT_INTER_ALLOCATION_DURATION()": "e5f14824",
					"SPOT_MAX_CONSENSUS_WORKER_COUNT()": "a35b3b09",
					"SPOT_MAX_SPOT_PER_USER_PER_PERIOD()": "bf09ff70",
					"SPOT_MIN_CONSENSUS_WORKER_COUNT()": "fb50a473",
					"SPOT_MIN_REP_DataValidation()": "86b0b4c5",
					"SPOT_MIN_REP_SpotData()": "5cb361f6",
					"SPOT_MIN_REWARD_DataValidation()": "8724450f",
					"SPOT_MIN_REWARD_SpotData()": "d81109ce",
					"SPOT_MIN_STAKE()": "00653ff8",
					"SPOT_NB_TIMEFRAMES()": "b6118450",
					"SPOT_REVEAL_ROUND_DURATION()": "1d0fb88e",
					"SPOT_TIMEFRAME_DURATION()": "87ce6311",
					"SPOT_TOGGLE_ENABLED()": "36fc43fc",
					"SpottingSystem()": "d8645d37",
					"StakeManager()": "83cc6ef2",
					"VOTE_QUORUM()": "c7761fab",
					"destroyContract()": "092a5cce",
					"getAddressManager()": "5492f302",
					"getArchivingSystem()": "463444b7",
					"getComplianceSystem()": "f67362fe",
					"getExordeToken()": "2e2f93f3",
					"getIndexingSystem()": "7a0ec25b",
					"getMaxTotalWorkers()": "98a54e2b",
					"getRepManager()": "0855d151",
					"getReputationSystem()": "e992dca7",
					"getRewardManager()": "04e76c8f",
					"getSpottingSystem()": "b45d9d8d",
					"getStakeManager()": "ca64f9e7",
					"getVoteQuorum()": "ea19733c",
					"get_ARCHIVING_COMMIT_ROUND_DURATION()": "9279e9d4",
					"get_ARCHIVING_DATA_BATCH_SIZE()": "0363a1bf",
					"get_ARCHIVING_MAX_CONSENSUS_WORKER_COUNT()": "3968ec84",
					"get_ARCHIVING_MIN_CONSENSUS_WORKER_COUNT()": "995adbdd",
					"get_ARCHIVING_MIN_REP_DataValidation()": "49b46787",
					"get_ARCHIVING_MIN_REWARD_DataValidation()": "893b2a76",
					"get_ARCHIVING_MIN_STAKE()": "b1562f67",
					"get_ARCHIVING_REVEAL_ROUND_DURATION()": "29e3dd1f",
					"get_COMPLIANCE_COMMIT_ROUND_DURATION()": "484df80a",
					"get_COMPLIANCE_DATA_BATCH_SIZE()": "d1a89a46",
					"get_COMPLIANCE_MAX_CONSENSUS_WORKER_COUNT()": "dc7048c1",
					"get_COMPLIANCE_MIN_CONSENSUS_WORKER_COUNT()": "fff5f946",
					"get_COMPLIANCE_MIN_REP_DataValidation()": "89b212d3",
					"get_COMPLIANCE_MIN_REWARD_DataValidation()": "f116c4e0",
					"get_COMPLIANCE_MIN_STAKE()": "e3dfc0b2",
					"get_COMPLIANCE_REVEAL_ROUND_DURATION()": "2b0afab3",
					"get_INDEXING_COMMIT_ROUND_DURATION()": "90cc59eb",
					"get_INDEXING_DATA_BATCH_SIZE()": "cb3a2a88",
					"get_INDEXING_MAX_CONSENSUS_WORKER_COUNT()": "e68c9c30",
					"get_INDEXING_MIN_CONSENSUS_WORKER_COUNT()": "a1a4575a",
					"get_INDEXING_MIN_REP_DataValidation()": "849f9f0a",
					"get_INDEXING_MIN_REWARD_DataValidation()": "386d0976",
					"get_INDEXING_MIN_STAKE()": "bf34f749",
					"get_INDEXING_REVEAL_ROUND_DURATION()": "8a13725d",
					"get_MAX_CONTRACT_STORED_BATCHES()": "e3115d3c",
					"get_MAX_SUCCEEDING_NOVOTES()": "9fb491f6",
					"get_MAX_UPDATE_ITERATIONS()": "7d630cb0",
					"get_NOVOTE_REGISTRATION_WAIT_DURATION()": "0f1f0ffe",
					"get_SPOT_COMMIT_ROUND_DURATION()": "3692616a",
					"get_SPOT_DATA_BATCH_SIZE()": "9d1f2ada",
					"get_SPOT_GLOBAL_MAX_SPOT_PER_PERIOD()": "b38e885e",
					"get_SPOT_INTER_ALLOCATION_DURATION()": "c4a306f8",
					"get_SPOT_MAX_CONSENSUS_WORKER_COUNT()": "dfeceed7",
					"get_SPOT_MAX_SPOT_PER_USER_PER_PERIOD()": "be250988",
					"get_SPOT_MIN_CONSENSUS_WORKER_COUNT()": "bd40ef4c",
					"get_SPOT_MIN_REP_DataValidation()": "0b08bfd9",
					"get_SPOT_MIN_REP_SpotData()": "abb10b9b",
					"get_SPOT_MIN_REWARD_DataValidation()": "f80de0a0",
					"get_SPOT_MIN_REWARD_SpotData()": "30c0bb79",
					"get_SPOT_MIN_STAKE()": "ff622dda",
					"get_SPOT_NB_TIMEFRAMES()": "e66d543a",
					"get_SPOT_REVEAL_ROUND_DURATION()": "72e54030",
					"get_SPOT_TIMEFRAME_DURATION()": "0f78cc76",
					"get_SPOT_TOGGLE_ENABLED()": "4e87c5a8",
					"getsFuelSystem()": "557c1abe",
					"owner()": "8da5cb5b",
					"renounceOwnership()": "715018a6",
					"sFuel()": "ab43e78d",
					"token()": "fc0c546a",
					"transferOwnership(address)": "f2fde38b",
					"updateArchivingParameters(uint256,uint256)": "55a35f5c",
					"updateComplianceParameters(uint256,uint256)": "e168063c",
					"updateContractsAddresses(address,address,address,address,address,address,address,address,address,address,address)": "2d09a8e3",
					"updateGeneralParameters(uint256,uint256)": "61879075",
					"updateIndexingParameters(uint256,uint256)": "75dc6130",
					"updateSpottingParameters(uint256,uint256,bool)": "ee37f4a6"
				}
			},
			"storageLayout": {
				"storage": [
					{
						"astId": 27,
						"contract": "Parameters_flat.sol:Parameters",
						"label": "_owner",
						"offset": 0,
						"slot": "0",
						"type": "t_address"
					},
					{
						"astId": 1030,
						"contract": "Parameters_flat.sol:Parameters",
						"label": "MAX_TOTAL_WORKERS",
						"offset": 0,
						"slot": "1",
						"type": "t_uint256"
					},
					{
						"astId": 1033,
						"contract": "Parameters_flat.sol:Parameters",
						"label": "VOTE_QUORUM",
						"offset": 0,
						"slot": "2",
						"type": "t_uint256"
					},
					{
						"astId": 1036,
						"contract": "Parameters_flat.sol:Parameters",
						"label": "MAX_UPDATE_ITERATIONS",
						"offset": 0,
						"slot": "3",
						"type": "t_uint256"
					},
					{
						"astId": 1039,
						"contract": "Parameters_flat.sol:Parameters",
						"label": "MAX_CONTRACT_STORED_BATCHES",
						"offset": 0,
						"slot": "4",
						"type": "t_uint256"
					},
					{
						"astId": 1042,
						"contract": "Parameters_flat.sol:Parameters",
						"label": "SPOT_DATA_BATCH_SIZE",
						"offset": 0,
						"slot": "5",
						"type": "t_uint256"
					},
					{
						"astId": 1050,
						"contract": "Parameters_flat.sol:Parameters",
						"label": "SPOT_MIN_STAKE",
						"offset": 0,
						"slot": "6",
						"type": "t_uint256"
					},
					{
						"astId": 1053,
						"contract": "Parameters_flat.sol:Parameters",
						"label": "SPOT_MIN_CONSENSUS_WORKER_COUNT",
						"offset": 0,
						"slot": "7",
						"type": "t_uint256"
					},
					{
						"astId": 1056,
						"contract": "Parameters_flat.sol:Parameters",
						"label": "SPOT_MAX_CONSENSUS_WORKER_COUNT",
						"offset": 0,
						"slot": "8",
						"type": "t_uint256"
					},
					{
						"astId": 1059,
						"contract": "Parameters_flat.sol:Parameters",
						"label": "SPOT_COMMIT_ROUND_DURATION",
						"offset": 0,
						"slot": "9",
						"type": "t_uint256"
					},
					{
						"astId": 1062,
						"contract": "Parameters_flat.sol:Parameters",
						"label": "SPOT_REVEAL_ROUND_DURATION",
						"offset": 0,
						"slot": "10",
						"type": "t_uint256"
					},
					{
						"astId": 1070,
						"contract": "Parameters_flat.sol:Parameters",
						"label": "SPOT_MIN_REWARD_SpotData",
						"offset": 0,
						"slot": "11",
						"type": "t_uint256"
					},
					{
						"astId": 1078,
						"contract": "Parameters_flat.sol:Parameters",
						"label": "SPOT_MIN_REP_SpotData",
						"offset": 0,
						"slot": "12",
						"type": "t_uint256"
					},
					{
						"astId": 1086,
						"contract": "Parameters_flat.sol:Parameters",
						"label": "SPOT_MIN_REWARD_DataValidation",
						"offset": 0,
						"slot": "13",
						"type": "t_uint256"
					},
					{
						"astId": 1094,
						"contract": "Parameters_flat.sol:Parameters",
						"label": "SPOT_MIN_REP_DataValidation",
						"offset": 0,
						"slot": "14",
						"type": "t_uint256"
					},
					{
						"astId": 1097,
						"contract": "Parameters_flat.sol:Parameters",
						"label": "SPOT_INTER_ALLOCATION_DURATION",
						"offset": 0,
						"slot": "15",
						"type": "t_uint256"
					},
					{
						"astId": 1100,
						"contract": "Parameters_flat.sol:Parameters",
						"label": "SPOT_TOGGLE_ENABLED",
						"offset": 0,
						"slot": "16",
						"type": "t_bool"
					},
					{
						"astId": 1105,
						"contract": "Parameters_flat.sol:Parameters",
						"label": "SPOT_TIMEFRAME_DURATION",
						"offset": 0,
						"slot": "17",
						"type": "t_uint256"
					},
					{
						"astId": 1108,
						"contract": "Parameters_flat.sol:Parameters",
						"label": "SPOT_GLOBAL_MAX_SPOT_PER_PERIOD",
						"offset": 0,
						"slot": "18",
						"type": "t_uint256"
					},
					{
						"astId": 1111,
						"contract": "Parameters_flat.sol:Parameters",
						"label": "SPOT_MAX_SPOT_PER_USER_PER_PERIOD",
						"offset": 0,
						"slot": "19",
						"type": "t_uint256"
					},
					{
						"astId": 1114,
						"contract": "Parameters_flat.sol:Parameters",
						"label": "SPOT_NB_TIMEFRAMES",
						"offset": 0,
						"slot": "20",
						"type": "t_uint256"
					},
					{
						"astId": 1117,
						"contract": "Parameters_flat.sol:Parameters",
						"label": "MAX_SUCCEEDING_NOVOTES",
						"offset": 0,
						"slot": "21",
						"type": "t_uint256"
					},
					{
						"astId": 1120,
						"contract": "Parameters_flat.sol:Parameters",
						"label": "NOVOTE_REGISTRATION_WAIT_DURATION",
						"offset": 0,
						"slot": "22",
						"type": "t_uint256"
					},
					{
						"astId": 1123,
						"contract": "Parameters_flat.sol:Parameters",
						"label": "COMPLIANCE_DATA_BATCH_SIZE",
						"offset": 0,
						"slot": "23",
						"type": "t_uint256"
					},
					{
						"astId": 1126,
						"contract": "Parameters_flat.sol:Parameters",
						"label": "COMPLIANCE_MIN_CONSENSUS_WORKER_COUNT",
						"offset": 0,
						"slot": "24",
						"type": "t_uint256"
					},
					{
						"astId": 1129,
						"contract": "Parameters_flat.sol:Parameters",
						"label": "COMPLIANCE_MAX_CONSENSUS_WORKER_COUNT",
						"offset": 0,
						"slot": "25",
						"type": "t_uint256"
					},
					{
						"astId": 1137,
						"contract": "Parameters_flat.sol:Parameters",
						"label": "COMPLIANCE_MIN_STAKE",
						"offset": 0,
						"slot": "26",
						"type": "t_uint256"
					},
					{
						"astId": 1140,
						"contract": "Parameters_flat.sol:Parameters",
						"label": "COMPLIANCE_COMMIT_ROUND_DURATION",
						"offset": 0,
						"slot": "27",
						"type": "t_uint256"
					},
					{
						"astId": 1143,
						"contract": "Parameters_flat.sol:Parameters",
						"label": "COMPLIANCE_REVEAL_ROUND_DURATION",
						"offset": 0,
						"slot": "28",
						"type": "t_uint256"
					},
					{
						"astId": 1151,
						"contract": "Parameters_flat.sol:Parameters",
						"label": "COMPLIANCE_MIN_REWARD_DataValidation",
						"offset": 0,
						"slot": "29",
						"type": "t_uint256"
					},
					{
						"astId": 1159,
						"contract": "Parameters_flat.sol:Parameters",
						"label": "COMPLIANCE_MIN_REP_DataValidation",
						"offset": 0,
						"slot": "30",
						"type": "t_uint256"
					},
					{
						"astId": 1162,
						"contract": "Parameters_flat.sol:Parameters",
						"label": "INDEXING_DATA_BATCH_SIZE",
						"offset": 0,
						"slot": "31",
						"type": "t_uint256"
					},
					{
						"astId": 1165,
						"contract": "Parameters_flat.sol:Parameters",
						"label": "INDEXING_MIN_CONSENSUS_WORKER_COUNT",
						"offset": 0,
						"slot": "32",
						"type": "t_uint256"
					},
					{
						"astId": 1168,
						"contract": "Parameters_flat.sol:Parameters",
						"label": "INDEXING_MAX_CONSENSUS_WORKER_COUNT",
						"offset": 0,
						"slot": "33",
						"type": "t_uint256"
					},
					{
						"astId": 1176,
						"contract": "Parameters_flat.sol:Parameters",
						"label": "INDEXING_MIN_STAKE",
						"offset": 0,
						"slot": "34",
						"type": "t_uint256"
					},
					{
						"astId": 1179,
						"contract": "Parameters_flat.sol:Parameters",
						"label": "INDEXING_COMMIT_ROUND_DURATION",
						"offset": 0,
						"slot": "35",
						"type": "t_uint256"
					},
					{
						"astId": 1182,
						"contract": "Parameters_flat.sol:Parameters",
						"label": "INDEXING_REVEAL_ROUND_DURATION",
						"offset": 0,
						"slot": "36",
						"type": "t_uint256"
					},
					{
						"astId": 1190,
						"contract": "Parameters_flat.sol:Parameters",
						"label": "INDEXING_MIN_REWARD_DataValidation",
						"offset": 0,
						"slot": "37",
						"type": "t_uint256"
					},
					{
						"astId": 1198,
						"contract": "Parameters_flat.sol:Parameters",
						"label": "INDEXING_MIN_REP_DataValidation",
						"offset": 0,
						"slot": "38",
						"type": "t_uint256"
					},
					{
						"astId": 1201,
						"contract": "Parameters_flat.sol:Parameters",
						"label": "ARCHIVING_DATA_BATCH_SIZE",
						"offset": 0,
						"slot": "39",
						"type": "t_uint256"
					},
					{
						"astId": 1204,
						"contract": "Parameters_flat.sol:Parameters",
						"label": "ARCHIVING_MIN_CONSENSUS_WORKER_COUNT",
						"offset": 0,
						"slot": "40",
						"type": "t_uint256"
					},
					{
						"astId": 1207,
						"contract": "Parameters_flat.sol:Parameters",
						"label": "ARCHIVING_MAX_CONSENSUS_WORKER_COUNT",
						"offset": 0,
						"slot": "41",
						"type": "t_uint256"
					},
					{
						"astId": 1215,
						"contract": "Parameters_flat.sol:Parameters",
						"label": "ARCHIVING_MIN_STAKE",
						"offset": 0,
						"slot": "42",
						"type": "t_uint256"
					},
					{
						"astId": 1218,
						"contract": "Parameters_flat.sol:Parameters",
						"label": "ARCHIVING_COMMIT_ROUND_DURATION",
						"offset": 0,
						"slot": "43",
						"type": "t_uint256"
					},
					{
						"astId": 1221,
						"contract": "Parameters_flat.sol:Parameters",
						"label": "ARCHIVING_REVEAL_ROUND_DURATION",
						"offset": 0,
						"slot": "44",
						"type": "t_uint256"
					},
					{
						"astId": 1229,
						"contract": "Parameters_flat.sol:Parameters",
						"label": "ARCHIVING_MIN_REWARD_DataValidation",
						"offset": 0,
						"slot": "45",
						"type": "t_uint256"
					},
					{
						"astId": 1237,
						"contract": "Parameters_flat.sol:Parameters",
						"label": "ARCHIVING_MIN_REP_DataValidation",
						"offset": 0,
						"slot": "46",
						"type": "t_uint256"
					},
					{
						"astId": 1239,
						"contract": "Parameters_flat.sol:Parameters",
						"label": "token",
						"offset": 0,
						"slot": "47",
						"type": "t_address"
					},
					{
						"astId": 1241,
						"contract": "Parameters_flat.sol:Parameters",
						"label": "StakeManager",
						"offset": 0,
						"slot": "48",
						"type": "t_address"
					},
					{
						"astId": 1243,
						"contract": "Parameters_flat.sol:Parameters",
						"label": "Reputation",
						"offset": 0,
						"slot": "49",
						"type": "t_address"
					},
					{
						"astId": 1245,
						"contract": "Parameters_flat.sol:Parameters",
						"label": "RepManager",
						"offset": 0,
						"slot": "50",
						"type": "t_address"
					},
					{
						"astId": 1247,
						"contract": "Parameters_flat.sol:Parameters",
						"label": "RewardManager",
						"offset": 0,
						"slot": "51",
						"type": "t_address"
					},
					{
						"astId": 1249,
						"contract": "Parameters_flat.sol:Parameters",
						"label": "AddressManager",
						"offset": 0,
						"slot": "52",
						"type": "t_address"
					},
					{
						"astId": 1251,
						"contract": "Parameters_flat.sol:Parameters",
						"label": "sFuel",
						"offset": 0,
						"slot": "53",
						"type": "t_address"
					},
					{
						"astId": 1253,
						"contract": "Parameters_flat.sol:Parameters",
						"label": "SpottingSystem",
						"offset": 0,
						"slot": "54",
						"type": "t_address"
					},
					{
						"astId": 1255,
						"contract": "Parameters_flat.sol:Parameters",
						"label": "ComplianceSystem",
						"offset": 0,
						"slot": "55",
						"type": "t_address"
					},
					{
						"astId": 1257,
						"contract": "Parameters_flat.sol:Parameters",
						"label": "IndexingSystem",
						"offset": 0,
						"slot": "56",
						"type": "t_address"
					},
					{
						"astId": 1259,
						"contract": "Parameters_flat.sol:Parameters",
						"label": "ArchivingSystem",
						"offset": 0,
						"slot": "57",
						"type": "t_address"
					}
				],
				"types": {
					"t_address": {
						"encoding": "inplace",
						"label": "address",
						"numberOfBytes": "20"
					},
					"t_bool": {
						"encoding": "inplace",
						"label": "bool",
						"numberOfBytes": "1"
					},
					"t_uint256": {
						"encoding": "inplace",
						"label": "uint256",
						"numberOfBytes": "32"
					}
				}
			},
			"userdoc": {
				"kind": "user",
				"methods": {},
				"version": 1
			}
		}
	}
}