{
	"data": {
		"bytecode": {
			"linkReferences": {},
			"object": "60806040523480156200001157600080fd5b506200001d3362000023565b62000073565b600080546001600160a01b038381166001600160a01b0319831681178455604051919092169283917f8be0079c531659141344cd1fd0a4f28419497f9722a3daafe3b4186f6b6457e09190a35050565b613f6780620000836000396000f3fe6080604052600436106102605760003560e01c806372c4104611610144578063d29b5d2f116100b6578063e59570231161007a578063e595702314610851578063f2fde38b14610871578063f389ca4614610891578063f5447c0a146108ab578063f77c4791146108ea578063f81f8bf61461090f57600080fd5b8063d29b5d2f146107c4578063d3b4644a146107e4578063d3d1e7ba146107f9578063d8708a761461081b578063db2131cd1461083b57600080fd5b8063b551c37311610108578063b551c37314610706578063b55a5c1c14610726578063b632a91214610746578063bea75f281461075b578063c45ff2811461077b578063cac7d2051461079057600080fd5b806372c410461461065b5780637a5cb92c1461067b5780638da5cb5b146106a85780639588378e146106c65780639d4c162d146106e657600080fd5b80633b72b3c7116101dd57806359618a26116101a157806359618a26146105935780635aef7de6146105c65780635c6f3f0c146105e6578063622c7c8d146106065780636b8eb40314610626578063715018a61461064657600080fd5b80633b72b3c7146104a85780633c4c17da146104dc5780633edf7ca1146105275780633f81a192146105475780634f9ce2211461056f57600080fd5b80631b6d990a116102245780631b6d990a146103e457806327efdab5146104045780632f4ab7be1461042457806332ed5b1214610458578063337df7b11461048857600080fd5b8063020f4ff6146102f5578063069dfc5b14610315578063088af1821461034e57806309121fa81461036e578063112f92bb1461039b57600080fd5b366102f05760035460ff16156102ee5760405162461bcd60e51b815260206004820152604260248201527f57616c6c6574536368656d653a2043616e74207265636569766520696620697460448201527f2077696c6c206d616b652067656e657269632063616c6c7320746f206176617460648201526130b960f11b608482015260a4015b60405180910390fd5b005b600080fd5b34801561030157600080fd5b506102ee610310366004613006565b61092f565b34801561032157600080fd5b50610330635555555560e11b81565b6040516001600160e01b031990911681526020015b60405180910390f35b34801561035a57600080fd5b5061033061036936600461306c565b6109c0565b34801561037a57600080fd5b506103836109f2565b6040516001600160a01b039091168152602001610345565b3480156103a757600080fd5b506103d46103b6366004613006565b6001600160a01b031660009081526005602052604090205460ff1690565b6040519015158152602001610345565b3480156103f057600080fd5b506103d46103ff3660046130ae565b610a66565b34801561041057600080fd5b506102ee61041f3660046130f4565b610b35565b34801561043057600080fd5b506103307f622c7c8d66bcda10e315b5c5ce22299dfd581e8b5cdf8ab947022f2a1bb8ef4981565b34801561046457600080fd5b506104786104733660046131a8565b610cfd565b6040516103459493929190613255565b34801561049457600080fd5b506102ee6104a3366004613006565b610e3d565b3480156104b457600080fd5b506103307fa9059cbb2ab09eb219583f4a59a5d0623ade346d962bcd4e46b11da047c9049b81565b3480156104e857600080fd5b5061051a604051806040016040528060128152602001712bb0b63632ba1029b1b432b6b2903b18971960711b81525081565b6040516103459190613299565b34801561053357600080fd5b50600954610383906001600160a01b031681565b34801561055357600080fd5b5061038373aaaaaaaaaaaaaaaaaaaaaaaaaaaaaaaaaaaaaaaa81565b34801561057b57600080fd5b5061058560075481565b604051908152602001610345565b34801561059f57600080fd5b506105b36105ae3660046131a8565b610eb9565b604051610345979695949392919061333c565b3480156105d257600080fd5b50600a54610383906001600160a01b031681565b3480156105f257600080fd5b506103d46106013660046130ae565b6111aa565b34801561061257600080fd5b506102ee6106213660046131a8565b61125e565b34801561063257600080fd5b506105856106413660046133f2565b611317565b34801561065257600080fd5b506102ee61139d565b34801561066757600080fd5b50610585610676366004613463565b6113b1565b34801561068757600080fd5b506105856106963660046131a8565b600b6020526000908152604090205481565b3480156106b457600080fd5b506000546001600160a01b0316610383565b3480156106d257600080fd5b506105856106e13660046133f2565b611b07565b3480156106f257600080fd5b506103d4610701366004613554565b611ba3565b34801561071257600080fd5b506105856107213660046131a8565b6125b8565b34801561073257600080fd5b50600454610383906001600160a01b031681565b34801561075257600080fd5b50600254610585565b34801561076757600080fd5b506103d4610776366004613576565b61263a565b34801561078757600080fd5b5061051a612710565b34801561079c57600080fd5b506103307f095ea7b334ae44009aa867bfb386f5c3b4b443ac6f0ee573fa91c4608fbadfba81565b3480156107d057600080fd5b506103d46107df3660046130ae565b61279e565b3480156107f057600080fd5b50610585612850565b34801561080557600080fd5b5061080e6128b4565b60405161034591906135bc565b34801561082757600080fd5b506105b36108363660046131a8565b61290c565b34801561084757600080fd5b5061058560085481565b34801561085d57600080fd5b5061058561086c3660046131a8565b612955565b34801561087d57600080fd5b506102ee61088c366004613006565b612976565b34801561089d57600080fd5b506003546103d49060ff1681565b3480156108b757600080fd5b506108cb6108c636600461306c565b6129ef565b604080516001600160a01b039093168352602083019190915201610345565b3480156108f657600080fd5b506003546103839061010090046001600160a01b031681565b34801561091b57600080fd5b506103d461092a3660046130ae565b612a17565b610937612ac9565b6001600160a01b03811660009081526005602052604090205460ff1615156001141561096257600080fd5b6001600160a01b038116600081815260056020908152604091829020805460ff1916600190811790915591519182527febcb0e14aae789891730336ade5f30fa6034cb7fe1e8a07ad23f0ec40c0cc61d91015b60405180910390a250565b6000600482106109e8576109d8600460008486613600565b6109e19161362a565b90506109ec565b5060005b92915050565b6040805160048152602481018252602080820180516001600160e01b031663089ae1c960e41b179052825160608101909352603e808452600093610a4e9392909190613ef490830139600a546001600160a01b03169190612b23565b806020019051810190610a61919061365a565b905090565b3360009081526005602052604081205460ff16610a955760405162461bcd60e51b81526004016102e590613677565b600a54604051602481018690526001600160a01b0380861660448301529091166064820152610b1a9060840160408051601f19818403018152918152602080830180516001600160e01b031663757cca5960e11b179052815160808101909252604e80835290613db39083013960035461010090046001600160a01b03169190612b9b565b806020019051810190610b2d91906136b9565b949350505050565b600a546001600160a01b031615610b8e5760405162461bcd60e51b815260206004820152601f60248201527f57616c6c6574536368656d653a2063616e6e6f7420696e69742074776963650060448201526064016102e5565b6001600160a01b038916610bf05760405162461bcd60e51b815260206004820152602360248201527f57616c6c6574536368656d653a206176617461722063616e6e6f74206265207a60448201526265726f60e81b60648201526084016102e5565b6001600160a01b038616610c565760405162461bcd60e51b815260206004820152602760248201527f57616c6c6574536368656d653a20636f6e74726f6c6c65722063616e6e6f74206044820152666265207a65726f60c81b60648201526084016102e5565b62015180821015610c795760405162461bcd60e51b81526004016102e5906136d6565b600a80546001600160a01b03199081166001600160a01b038c8116919091179092556009805482168b8416179055600380546001600160a81b0319168a1515610100600160a81b031916176101008a85160217905560048054909116918716919091179055610cea60068585612da5565b5060079190915560085550505050505050565b6001602052600090815260409020600381015460048201805460ff9092169291610d2690613741565b80601f0160208091040260200160405190810160405280929190818152602001828054610d5290613741565b8015610d9f5780601f10610d7457610100808354040283529160200191610d9f565b820191906000526020600020905b815481529060010190602001808311610d8257829003601f168201915b505050505090806005018054610db490613741565b80601f0160208091040260200160405190810160405280929190818152602001828054610de090613741565b8015610e2d5780601f10610e0257610100808354040283529160200191610e2d565b820191906000526020600020905b815481529060010190602001808311610e1057829003601f168201915b5050505050908060060154905084565b610e45612ac9565b6001600160a01b03811660009081526005602052604090205460ff16610e6a57600080fd5b6001600160a01b0381166000818152600560209081526040808320805460ff19169055519182527f38f561c9cd37215d8695132eb6dd4e737827eae190ffdf0708ec9e0bbca646b491016109b5565b6000818152600160208181526040808420600381015460068201548254845181870281018701909552808552606097889788979196889687968996919593860194600287019460ff90921693600488019360058901939092899190830182828015610f4d57602002820191906000526020600020905b81546001600160a01b03168152600190910190602001808311610f2f575b5050505050965085805480602002602001604051908101604052809291908181526020016000905b82821015611021578382906000526020600020018054610f9490613741565b80601f0160208091040260200160405190810160405280929190818152602001828054610fc090613741565b801561100d5780601f10610fe25761010080835404028352916020019161100d565b820191906000526020600020905b815481529060010190602001808311610ff057829003601f168201915b505050505081526020019060010190610f75565b5050505095508480548060200260200160405190810160405280929190818152602001828054801561107257602002820191906000526020600020905b81548152602001906001019080831161105e575b5050505050945082805461108590613741565b80601f01602080910402602001604051908101604052809291908181526020018280546110b190613741565b80156110fe5780601f106110d3576101008083540402835291602001916110fe565b820191906000526020600020905b8154815290600101906020018083116110e157829003601f168201915b5050505050925081805461111190613741565b80601f016020809104026020016040519081016040528092919081815260200182805461113d90613741565b801561118a5780601f1061115f5761010080835404028352916020019161118a565b820191906000526020600020905b81548152906001019060200180831161116d57829003601f168201915b505050505091509650965096509650965096509650919395979092949650565b3360009081526005602052604081205460ff166111d95760405162461bcd60e51b81526004016102e590613677565b600a54604051602481018690526001600160a01b0380861660448301529091166064820152610b1a9060840160408051601f19818403018152918152602080830180516001600160e01b0316630dd29a4f60e31b179052815160808101909252604e80835290613cad9083013960035461010090046001600160a01b03169190612b9b565b600a546001600160a01b031633146112ef5760405162461bcd60e51b815260206004820152604860248201527f57616c6c6574536368656d653a207365744d61785365636f6e6473466f72457860448201527f65637574696f6e2069732063616c6c61626c65206f6e6c7920666f726d207468606482015267329030bb30ba30b960c11b608482015260a4016102e5565b620151808110156113125760405162461bcd60e51b81526004016102e5906136d6565b600755565b600a546040516370a0823160e01b81526001600160a01b0391821660048201526000918416906370a082319060240160206040518083038186803b15801561135e57600080fd5b505afa158015611372573d6000803e3d6000fd5b505050506040513d601f19601f82011682018060405250810190611396919061377c565b9392505050565b6113a5612ac9565b6113af6000612baa565b565b6000805b8a8110156116e45760006113e68b8b848181106113d4576113d4613795565b905060200281019061036991906137ab565b905073aaaaaaaaaaaaaaaaaaaaaaaaaaaaaaaaaaaaaaaa8d8d8481811061140f5761140f613795565b90506020020160208101906114249190613006565b6001600160a01b031614156114c05760405162461bcd60e51b815260206004820152605660248201527f57616c6c6574536368656d653a2063616e742070726f706f73652063616c6c7360448201527f20746f20307861416141614161614161416141616141614141414141414141616064820152756161416141614161614161614161206164647265737360501b608482015260a4016102e5565b6001600160e01b03198116635555555560e11b14156115475760405162461bcd60e51b815260206004820152603a60248201527f57616c6c6574536368656d653a2063616e742070726f706f73652063616c6c7360448201527f20776974682030786161616161616161207369676e617475726500000000000060648201526084016102e5565b308d8d8481811061155a5761155a613795565b905060200201602081019061156f9190613006565b6001600160a01b03161415806115b857506001600160e01b0319811663622c7c8d60e01b1480156115b857508888838181106115ad576115ad613795565b905060200201356000145b6116125760405162461bcd60e51b815260206004820152602560248201527f57616c6c6574536368656d653a20696e76616c69642070726f706f73616c206360448201526430b63632b960d91b60648201526084016102e5565b6001600160e01b0319811663a9059cbb60e01b1480159061164457506001600160e01b0319811663095ea7b360e01b14155b80611667575088888381811061165c5761165c613795565b905060200201356000145b6116d15760405162461bcd60e51b815260206004820152603560248201527f57616c6c6574536368656d653a2063616e742070726f706f7365204552433230604482015274207472616e736665727320776974682076616c756560581b60648201526084016102e5565b50806116dc81613808565b9150506113b5565b508988146117435760405162461bcd60e51b815260206004820152602660248201527f57616c6c6574536368656d653a20696e76616c6964205f63616c6c44617461206044820152650d8cadccee8d60d31b60648201526084016102e5565b89861461179e5760405162461bcd60e51b815260206004820152602360248201527f57616c6c6574536368656d653a20696e76616c6964205f76616c7565206c656e6044820152620cee8d60eb1b60648201526084016102e5565b600a546040513060248201526001600160a01b03909116604482015260009061181d9060640160408051601f19818403018152918152602080830180516001600160e01b0316630389aac160e31b179052815160608101909252602780835290613d8c9083013960035461010090046001600160a01b03169190612b23565b806020019051810190611830919061377c565b600a5460405160026024820152604481018390523360648201526001600160a01b0390911660848201529091506000906118bb9060a40160408051601f19818403018152918152602080830180516001600160e01b0316634439bdaf60e11b179052815160608101909252603580835290613d57908301396009546001600160a01b03169190612b9b565b8060200190518101906118ce919061377c565b90506040518060e001604052808e8e8080602002602001604051908101604052809392919081815260200183836020028082843760009201919091525050509082525060200161191e8c8e613892565b81526020018a8a808060200260200160405190810160405280939291908181526020018383602002808284376000920191909152505050908252506020016001815260200188888080601f016020809104026020016040519081016040528093929190818152602001838380828437600092019190915250505090825250604080516020601f89018190048102820181019092528781529181019190889088908190840183828082843760009201829052509385525050426020938401525083815260018252604090208251805191926119fd92849290910190612e29565b506020828101518051611a169260018501920190612e7e565b5060408201518051611a32916002840191602090910190612ed7565b50606082015160038201805460ff19166001836004811115611a5657611a566131c1565b021790555060808201518051611a76916004840191602090910190612f12565b5060a08201518051611a92916005840191602090910190612f12565b5060c091909101516006909101556002805460018082019092557f405787fa12a823e0f2b7631cc41b3ba8828b3321ca811111fa75cd3aa3bb5ace018290556000828152600b6020526040808220439055518391600080516020613cfb83398151915291a39c9b505050505050505050505050565b6000818152600b60205260408082205490516001600160a01b03851660248201526044810191909152611b909060640160408051601f19818403018152918152602080830180516001600160e01b031663277166bf60e11b179052815160608101909252603980835290613c7490830139611b806109f2565b6001600160a01b03169190612b23565b806020019051810190611396919061377c565b6009546000906001600160a01b03163314611bd05760405162461bcd60e51b81526004016102e590613957565b600a54600160a01b900460ff1615611c435760405162461bcd60e51b815260206004820152603060248201527f57616c6c6574536368656d653a2070726f706f73616c20657865637574696f6e60448201526f20616c72656164792072756e6e696e6760801b60648201526084016102e5565b600a805460ff60a01b1916600160a01b179055600083815260016020819052604090912090600382015460ff166004811115611c8157611c816131c1565b14611ce15760405162461bcd60e51b815260206004820152602a60248201527f57616c6c6574536368656d653a206d7573742062652061207375626d6974746560448201526919081c1c9bdc1bdcd85b60b21b60648201526084016102e5565b42611cfb6007548360060154612bfa90919063ffffffff16565b1015611d315760038101805460ff191660049081179091556040518590600080516020613cfb83398151915290600090a36125a1565b8260011415612575576000611d44612850565b825490915060009067ffffffffffffffff811115611d6457611d64613823565b604051908082528060200260200182016040528015611d9757816020015b6060815260200190600190039081611d825790505b50835490915060009067ffffffffffffffff811115611db857611db8613823565b604051908082528060200260200182016040528015611de1578160200160208202803683370190505b50905060008060008060005b88548110156124415760009450306001600160a01b031663088af1828a6001018381548110611e1e57611e1e613795565b906000526020600020016040518263ffffffff1660e01b8152600401611e4491906139fa565b60206040518083038186803b158015611e5c57600080fd5b505afa158015611e70573d6000803e3d6000fd5b505050506040513d601f19601f82011682018060405250810190611e949190613a0d565b9250886000018181548110611eab57611eab613795565b60009182526020909120015460028a0180546001600160a01b0390921695509082908110611edb57611edb613795565b600091825260209091200154915063a9059cbb60e01b6001600160e01b031984161480611f18575063095ea7b360e01b6001600160e01b03198416145b15611fe557886000018181548110611f3257611f32613795565b60009182526020909120015460018a0180546001600160a01b039092169650309163f5447c0a919084908110611f6a57611f6a613795565b906000526020600020016040518263ffffffff1660e01b8152600401611f9091906139fa565b604080518083038186803b158015611fa757600080fd5b505afa158015611fbb573d6000803e3d6000fd5b505050506040513d601f19601f82011682018060405250810190611fdf9190613a37565b90945091505b6004546001600160a01b038581169116146120a7576004546003546001600160a01b03909116906306f09e0b90879060ff16612021573061202e565b600a546001600160a01b03165b6040516001600160e01b031960e085901b811682526001600160a01b03938416600483015291831660248201529188166044830152861660648201526084810185905260a401600060405180830381600087803b15801561208e57600080fd5b505af11580156120a2573d6000803e3d6000fd5b505050505b60035460ff1680156120f3575060035489546101009091046001600160a01b0316908a90839081106120db576120db613795565b6000918252602090912001546001600160a01b031614155b156122c057600089600001828154811061210f5761210f613795565b60009182526020909120015460018b0180546001600160a01b03909216918490811061213d5761213d613795565b90600052602060002001600a60009054906101000a90046001600160a01b03168c600201858154811061217257612172613795565b90600052602060002001546040516024016121909493929190613a65565b60408051601f198184030181529181526020820180516001600160e01b03166368db844d60e11b17905260035490519192506001600160a01b0361010090910416906000906121e0908490613a99565b60006040518083038185875af1925050503d806000811461221d576040519150601f19603f3d011682016040523d82523d6000602084013e612222565b606091505b5088848151811061223557612235613795565b602002602001018a858151811061224e5761224e613795565b6020026020010182905282151515158152505050600088838151811061227657612276613795565b60200260200101518060200190518101906122919190613ab5565b509050808884815181106122a7576122a7613795565b60200260200101901515908115158152505050506123bd565b8860000181815481106122d5576122d5613795565b60009182526020909120015460028a0180546001600160a01b03909216918390811061230357612303613795565b90600052602060002001548a600101838154811061232357612323613795565b9060005260206000200160405161233a9190613b42565b60006040518083038185875af1925050503d8060008114612377576040519150601f19603f3d011682016040523d82523d6000602084013e61237c565b606091505b5087838151811061238f5761238f613795565b602002602001018984815181106123a8576123a8613795565b60200260200101829052821515151581525050505b8581815181106123cf576123cf613795565b602002602001015161242f5760405162461bcd60e51b815260206004820152602360248201527f57616c6c6574536368656d653a2063616c6c20657865637574696f6e206661696044820152621b195960ea1b60648201526084016102e5565b8061243981613808565b915050611ded565b5061244a612850565b612475606461246f6124686008546064612bfa90919063ffffffff16565b8b90612c06565b90612c12565b101580156124a75750612486612850565b6124a4606461246f6124686008546064612c1e90919063ffffffff16565b11155b6125075760405162461bcd60e51b815260206004820152602b60248201527f57616c6c6574536368656d653a206d617852657050657263656e74616765436860448201526a185b99d9481c185cdcd95960aa1b60648201526084016102e5565b6003888101805460ff1916821790556040518c90600080516020613cfb83398151915290600090a38a7f994d6e6491320bb0d97b7f84aca77e9e13ff409f1911682ddd406b5323191dcd8688604051612561929190613bb4565b60405180910390a2505050505050506125a1565b60038101805460ff191660029081179091556040518590600080516020613cfb83398151915290600090a35b5050600a805460ff60a01b19169055600192915050565b6000818152600b6020526040808220549051612627916125de9160240190815260200190565b60408051601f19818403018152918152602080830180516001600160e01b0316630981b24d60e41b179052815160608101909252603b80835290613eb990830139611b806109f2565b8060200190518101906109ec919061377c565b6009546000906001600160a01b031633146126675760405162461bcd60e51b81526004016102e590613957565b600a546040516001600160a01b03808816602483015280871660448301526064820186905290911660848201526126f49060a40160408051601f19818403018152918152602080830180516001600160e01b031663b9a04cdd60e01b179052815160808101909252604380835290613e019083013960035461010090046001600160a01b03169190612b9b565b80602001905181019061270791906136b9565b95945050505050565b6006805461271d90613741565b80601f016020809104026020016040519081016040528092919081815260200182805461274990613741565b80156127965780601f1061276b57610100808354040283529160200191612796565b820191906000526020600020905b81548152906001019060200180831161277957829003601f168201915b505050505081565b6009546000906001600160a01b031633146127cb5760405162461bcd60e51b81526004016102e590613957565b600a54604051602481018690526001600160a01b0380861660448301529091166064820152610b1a9060840160408051601f19818403018152918152602080830180516001600160e01b031663757cca5960e11b179052815160608101909252603c80835290613d1b9083013960035461010090046001600160a01b03169190612b9b565b6040805160048152602481018252602080820180516001600160e01b03166318160ddd60e01b17905282516060810190935260398084526000936128a19392909190613e4490830139611b806109f2565b806020019051810190610a61919061377c565b6060600280548060200260200160405190810160405280929190818152602001828054801561290257602002820191906000526020600020905b8154815260200190600101908083116128ee575b5050505050905090565b60608060606000606080600061293e6002898154811061292e5761292e613795565b9060005260206000200154610eb9565b959e949d50929b5090995097509550909350915050565b6002818154811061296557600080fd5b600091825260209091200154905081565b61297e612ac9565b6001600160a01b0381166129e35760405162461bcd60e51b815260206004820152602660248201527f4f776e61626c653a206e6577206f776e657220697320746865207a65726f206160448201526564647265737360d01b60648201526084016102e5565b6129ec81612baa565b50565b6000806129ff8360048187613600565b810190612a0c91906133f2565b909590945092505050565b6009546000906001600160a01b03163314612a445760405162461bcd60e51b81526004016102e590613957565b600a54604051602481018690526001600160a01b0380861660448301529091166064820152610b1a9060840160408051601f19818403018152918152602080830180516001600160e01b0316630dd29a4f60e31b179052815160608101909252603c80835290613e7d9083013960035461010090046001600160a01b03169190612b9b565b6000546001600160a01b031633146113af5760405162461bcd60e51b815260206004820181905260248201527f4f776e61626c653a2063616c6c6572206973206e6f7420746865206f776e657260448201526064016102e5565b6060600080856001600160a01b031685604051612b409190613a99565b600060405180830381855afa9150503d8060008114612b7b576040519150601f19603f3d011682016040523d82523d6000602084013e612b80565b606091505b5091509150612b9186838387612c2a565b9695505050505050565b6060610b2d8484600085612ca0565b600080546001600160a01b038381166001600160a01b0319831681178455604051919092169283917f8be0079c531659141344cd1fd0a4f28419497f9722a3daafe3b4186f6b6457e09190a35050565b60006113968284613c03565b60006113968284613c1b565b60006113968284613c3a565b60006113968284613c5c565b60608315612c96578251612c8f576001600160a01b0385163b612c8f5760405162461bcd60e51b815260206004820152601d60248201527f416464726573733a2063616c6c20746f206e6f6e2d636f6e747261637400000060448201526064016102e5565b5081610b2d565b610b2d8383612d7b565b606082471015612d015760405162461bcd60e51b815260206004820152602660248201527f416464726573733a20696e73756666696369656e742062616c616e636520666f6044820152651c8818d85b1b60d21b60648201526084016102e5565b600080866001600160a01b03168587604051612d1d9190613a99565b60006040518083038185875af1925050503d8060008114612d5a576040519150601f19603f3d011682016040523d82523d6000602084013e612d5f565b606091505b5091509150612d7087838387612c2a565b979650505050505050565b815115612d8b5781518083602001fd5b8060405162461bcd60e51b81526004016102e59190613299565b828054612db190613741565b90600052602060002090601f016020900481019282612dd35760008555612e19565b82601f10612dec5782800160ff19823516178555612e19565b82800160010185558215612e19579182015b82811115612e19578235825591602001919060010190612dfe565b50612e25929150612f85565b5090565b828054828255906000526020600020908101928215612e19579160200282015b82811115612e1957825182546001600160a01b0319166001600160a01b03909116178255602090920191600190910190612e49565b828054828255906000526020600020908101928215612ecb579160200282015b82811115612ecb5782518051612ebb918491602090910190612f12565b5091602001919060010190612e9e565b50612e25929150612f9a565b828054828255906000526020600020908101928215612e19579160200282015b82811115612e19578251825591602001919060010190612ef7565b828054612f1e90613741565b90600052602060002090601f016020900481019282612f405760008555612e19565b82601f10612f5957805160ff1916838001178555612e19565b82800160010185558215612e195791820182811115612e19578251825591602001919060010190612ef7565b5b80821115612e255760008155600101612f86565b80821115612e25576000612fae8282612fb7565b50600101612f9a565b508054612fc390613741565b6000825580601f10612fd3575050565b601f0160209004906000526020600020908101906129ec9190612f85565b6001600160a01b03811681146129ec57600080fd5b60006020828403121561301857600080fd5b813561139681612ff1565b60008083601f84011261303557600080fd5b50813567ffffffffffffffff81111561304d57600080fd5b60208301915083602082850101111561306557600080fd5b9250929050565b6000806020838503121561307f57600080fd5b823567ffffffffffffffff81111561309657600080fd5b6130a285828601613023565b90969095509350505050565b6000806000606084860312156130c357600080fd5b8335925060208401356130d581612ff1565b929592945050506040919091013590565b80151581146129ec57600080fd5b60008060008060008060008060006101008a8c03121561311357600080fd5b893561311e81612ff1565b985060208a013561312e81612ff1565b975060408a013561313e816130e6565b965060608a013561314e81612ff1565b955060808a013561315e81612ff1565b945060a08a013567ffffffffffffffff81111561317a57600080fd5b6131868c828d01613023565b9a9d999c50979a96999598959660c08101359660e09091013595509350505050565b6000602082840312156131ba57600080fd5b5035919050565b634e487b7160e01b600052602160045260246000fd5b600581106131f557634e487b7160e01b600052602160045260246000fd5b9052565b60005b838110156132145781810151838201526020016131fc565b83811115613223576000848401525b50505050565b600081518084526132418160208601602086016131f9565b601f01601f19169290920160200192915050565b61325f81866131d7565b6080602082015260006132756080830186613229565b82810360408401526132878186613229565b91505082606083015295945050505050565b6020815260006113966020830184613229565b600081518084526020808501808196508360051b8101915082860160005b858110156132f45782840389526132e2848351613229565b988501989350908401906001016132ca565b5091979650505050505050565b600081518084526020808501945080840160005b8381101561333157815187529582019590820190600101613315565b509495945050505050565b60e08082528851908201819052600090602090610100840190828c01845b8281101561337f5781516001600160a01b03168452928401929084019060010161335a565b50505083810382850152613393818b6132ac565b91505082810360408401526133a88189613301565b90506133b760608401886131d7565b82810360808401526133c98187613229565b905082810360a08401526133dd8186613229565b9150508260c083015298975050505050505050565b6000806040838503121561340557600080fd5b823561341081612ff1565b946020939093013593505050565b60008083601f84011261343057600080fd5b50813567ffffffffffffffff81111561344857600080fd5b6020830191508360208260051b850101111561306557600080fd5b60008060008060008060008060008060a08b8d03121561348257600080fd5b8a3567ffffffffffffffff8082111561349a57600080fd5b6134a68e838f0161341e565b909c509a5060208d01359150808211156134bf57600080fd5b6134cb8e838f0161341e565b909a50985060408d01359150808211156134e457600080fd5b6134f08e838f0161341e565b909850965060608d013591508082111561350957600080fd5b6135158e838f01613023565b909650945060808d013591508082111561352e57600080fd5b5061353b8d828e01613023565b915080935050809150509295989b9194979a5092959850565b6000806040838503121561356757600080fd5b50508035926020909101359150565b6000806000806080858703121561358c57600080fd5b843561359781612ff1565b935060208501356135a781612ff1565b93969395505050506040820135916060013590565b6020808252825182820181905260009190848201906040850190845b818110156135f4578351835292840192918401916001016135d8565b50909695505050505050565b6000808585111561361057600080fd5b8386111561361d57600080fd5b5050820193919092039150565b6001600160e01b031981358181169160048510156136525780818660040360031b1b83161692505b505092915050565b60006020828403121561366c57600080fd5b815161139681612ff1565b60208082526022908201527f6f6e6c79206120576f726b53797374656d2073686f756c642063616c6c207468604082015261697360f01b606082015260800190565b6000602082840312156136cb57600080fd5b8151611396816130e6565b60208082526045908201527f57616c6c6574536368656d653a205f6d61785365636f6e6473466f724578656360408201527f7574696f6e2063616e74206265206c657373207468616e203836343030207365606082015264636f6e647360d81b608082015260a00190565b600181811c9082168061375557607f821691505b6020821081141561377657634e487b7160e01b600052602260045260246000fd5b50919050565b60006020828403121561378e57600080fd5b5051919050565b634e487b7160e01b600052603260045260246000fd5b6000808335601e198436030181126137c257600080fd5b83018035915067ffffffffffffffff8211156137dd57600080fd5b60200191503681900382131561306557600080fd5b634e487b7160e01b600052601160045260246000fd5b600060001982141561381c5761381c6137f2565b5060010190565b634e487b7160e01b600052604160045260246000fd5b604051601f8201601f1916810167ffffffffffffffff8111828210171561386257613862613823565b604052919050565b600067ffffffffffffffff82111561388457613884613823565b50601f01601f191660200190565b600067ffffffffffffffff808411156138ad576138ad613823565b8360051b60206138be818301613839565b8681529185019181810190368411156138d657600080fd5b865b8481101561394b578035868111156138f05760008081fd5b880136601f8201126139025760008081fd5b80356139156139108261386a565b613839565b818152368783850101111561392a5760008081fd5b818784018883013760009181018701919091528452509183019183016138d8565b50979650505050505050565b6020808252601290820152716f6e6c7920566f74696e674d616368696e6560701b604082015260600190565b6000815461399081613741565b8085526020600183811680156139ad57600181146139c1576139ef565b60ff198516888401526040880195506139ef565b866000528260002060005b858110156139e75781548a82018601529083019084016139cc565b890184019650505b505050505092915050565b6020815260006113966020830184613983565b600060208284031215613a1f57600080fd5b81516001600160e01b03198116811461139657600080fd5b60008060408385031215613a4a57600080fd5b8251613a5581612ff1565b6020939093015192949293505050565b600060018060a01b03808716835260806020840152613a876080840187613983565b94166040830152506060015292915050565b60008251613aab8184602087016131f9565b9190910192915050565b60008060408385031215613ac857600080fd5b8251613ad3816130e6565b602084015190925067ffffffffffffffff811115613af057600080fd5b8301601f81018513613b0157600080fd5b8051613b0f6139108261386a565b818152866020838501011115613b2457600080fd5b613b358260208301602086016131f9565b8093505050509250929050565b6000808354613b5081613741565b60018281168015613b685760018114613b7957613ba8565b60ff19841687528287019450613ba8565b8760005260208060002060005b85811015613b9f5781548a820152908401908201613b86565b50505082870194505b50929695505050505050565b604080825283519082018190526000906020906060840190828701845b82811015613bef578151151584529284019290840190600101613bd1565b50505083810382850152612b9181866132ac565b60008219821115613c1657613c166137f2565b500190565b6000816000190483118215151615613c3557613c356137f2565b500290565b600082613c5757634e487b7160e01b600052601260045260246000fd5b500490565b600082821015613c6e57613c6e6137f2565b50039056fe57616c6c6574536368656d653a20445844566f74696e674d616368696e652063616c6c6261636b2062616c616e63654f664174206572726f7257616c6c6574536368656d653a206d696e7452657075746174696f6e466f72576f726b202d20576f726b53797374656d2063616c6c6261636b206275726e52657075746174696f6e206572726f72aa798b5c17de8359ce5a2d3b6a5da0de89d0b116dcf830f1809599da1d986dbb57616c6c6574536368656d653a20445844566f74696e674d616368696e652063616c6c6261636b206d696e7452657075746174696f6e206572726f7257616c6c6574536368656d653a20445844566f74696e674d616368696e652063616c6c6261636b2070726f706f7365206572726f7257616c6c6574536368656d653a20676574536368656d65506172616d6574657273206572726f7257616c6c6574536368656d653a206d696e7452657075746174696f6e466f72576f726b202d20576f726b53797374656d2063616c6c6261636b206d696e7452657075746174696f6e206572726f7257616c6c6574536368656d653a20445844566f74696e674d616368696e652063616c6c6261636b2065787465726e616c546f6b656e5472616e73666572206572726f7257616c6c6574536368656d653a20445844566f74696e674d616368696e652063616c6c6261636b20746f74616c537570706c79206572726f7257616c6c6574536368656d653a20445844566f74696e674d616368696e652063616c6c6261636b206275726e52657075746174696f6e206572726f7257616c6c6574536368656d653a20445844566f74696e674d616368696e652063616c6c6261636b20746f74616c537570706c794174206572726f7257616c6c6574536368656d653a20445844566f74696e674d616368696e652063616c6c6261636b206e617469766552657075746174696f6e206572726f72a2646970667358221220a57a8e0076ff1de86512e2c076e207b11bf273b576a91f37a68ebd38a2d2729364736f6c63430008080033",
			"opcodes": "PUSH1 0x80 PUSH1 0x40 MSTORE CALLVALUE DUP1 ISZERO PUSH3 0x11 JUMPI PUSH1 0x0 DUP1 REVERT JUMPDEST POP PUSH3 0x1D CALLER PUSH3 0x23 JUMP JUMPDEST PUSH3 0x73 JUMP JUMPDEST PUSH1 0x0 DUP1 SLOAD PUSH1 0x1 PUSH1 0x1 PUSH1 0xA0 SHL SUB DUP4 DUP2 AND PUSH1 0x1 PUSH1 0x1 PUSH1 0xA0 SHL SUB NOT DUP4 AND DUP2 OR DUP5 SSTORE PUSH1 0x40 MLOAD SWAP2 SWAP1 SWAP3 AND SWAP3 DUP4 SWAP2 PUSH32 0x8BE0079C531659141344CD1FD0A4F28419497F9722A3DAAFE3B4186F6B6457E0 SWAP2 SWAP1 LOG3 POP POP JUMP JUMPDEST PUSH2 0x3F67 DUP1 PUSH3 0x83 PUSH1 0x0 CODECOPY PUSH1 0x0 RETURN INVALID PUSH1 0x80 PUSH1 0x40 MSTORE PUSH1 0x4 CALLDATASIZE LT PUSH2 0x260 JUMPI PUSH1 0x0 CALLDATALOAD PUSH1 0xE0 SHR DUP1 PUSH4 0x72C41046 GT PUSH2 0x144 JUMPI DUP1 PUSH4 0xD29B5D2F GT PUSH2 0xB6 JUMPI DUP1 PUSH4 0xE5957023 GT PUSH2 0x7A JUMPI DUP1 PUSH4 0xE5957023 EQ PUSH2 0x851 JUMPI DUP1 PUSH4 0xF2FDE38B EQ PUSH2 0x871 JUMPI DUP1 PUSH4 0xF389CA46 EQ PUSH2 0x891 JUMPI DUP1 PUSH4 0xF5447C0A EQ PUSH2 0x8AB JUMPI DUP1 PUSH4 0xF77C4791 EQ PUSH2 0x8EA JUMPI DUP1 PUSH4 0xF81F8BF6 EQ PUSH2 0x90F JUMPI PUSH1 0x0 DUP1 REVERT JUMPDEST DUP1 PUSH4 0xD29B5D2F EQ PUSH2 0x7C4 JUMPI DUP1 PUSH4 0xD3B4644A EQ PUSH2 0x7E4 JUMPI DUP1 PUSH4 0xD3D1E7BA EQ PUSH2 0x7F9 JUMPI DUP1 PUSH4 0xD8708A76 EQ PUSH2 0x81B JUMPI DUP1 PUSH4 0xDB2131CD EQ PUSH2 0x83B JUMPI PUSH1 0x0 DUP1 REVERT JUMPDEST DUP1 PUSH4 0xB551C373 GT PUSH2 0x108 JUMPI DUP1 PUSH4 0xB551C373 EQ PUSH2 0x706 JUMPI DUP1 PUSH4 0xB55A5C1C EQ PUSH2 0x726 JUMPI DUP1 PUSH4 0xB632A912 EQ PUSH2 0x746 JUMPI DUP1 PUSH4 0xBEA75F28 EQ PUSH2 0x75B JUMPI DUP1 PUSH4 0xC45FF281 EQ PUSH2 0x77B JUMPI DUP1 PUSH4 0xCAC7D205 EQ PUSH2 0x790 JUMPI PUSH1 0x0 DUP1 REVERT JUMPDEST DUP1 PUSH4 0x72C41046 EQ PUSH2 0x65B JUMPI DUP1 PUSH4 0x7A5CB92C EQ PUSH2 0x67B JUMPI DUP1 PUSH4 0x8DA5CB5B EQ PUSH2 0x6A8 JUMPI DUP1 PUSH4 0x9588378E EQ PUSH2 0x6C6 JUMPI DUP1 PUSH4 0x9D4C162D EQ PUSH2 0x6E6 JUMPI PUSH1 0x0 DUP1 REVERT JUMPDEST DUP1 PUSH4 0x3B72B3C7 GT PUSH2 0x1DD JUMPI DUP1 PUSH4 0x59618A26 GT PUSH2 0x1A1 JUMPI DUP1 PUSH4 0x59618A26 EQ PUSH2 0x593 JUMPI DUP1 PUSH4 0x5AEF7DE6 EQ PUSH2 0x5C6 JUMPI DUP1 PUSH4 0x5C6F3F0C EQ PUSH2 0x5E6 JUMPI DUP1 PUSH4 0x622C7C8D EQ PUSH2 0x606 JUMPI DUP1 PUSH4 0x6B8EB403 EQ PUSH2 0x626 JUMPI DUP1 PUSH4 0x715018A6 EQ PUSH2 0x646 JUMPI PUSH1 0x0 DUP1 REVERT JUMPDEST DUP1 PUSH4 0x3B72B3C7 EQ PUSH2 0x4A8 JUMPI DUP1 PUSH4 0x3C4C17DA EQ PUSH2 0x4DC JUMPI DUP1 PUSH4 0x3EDF7CA1 EQ PUSH2 0x527 JUMPI DUP1 PUSH4 0x3F81A192 EQ PUSH2 0x547 JUMPI DUP1 PUSH4 0x4F9CE221 EQ PUSH2 0x56F JUMPI PUSH1 0x0 DUP1 REVERT JUMPDEST DUP1 PUSH4 0x1B6D990A GT PUSH2 0x224 JUMPI DUP1 PUSH4 0x1B6D990A EQ PUSH2 0x3E4 JUMPI DUP1 PUSH4 0x27EFDAB5 EQ PUSH2 0x404 JUMPI DUP1 PUSH4 0x2F4AB7BE EQ PUSH2 0x424 JUMPI DUP1 PUSH4 0x32ED5B12 EQ PUSH2 0x458 JUMPI DUP1 PUSH4 0x337DF7B1 EQ PUSH2 0x488 JUMPI PUSH1 0x0 DUP1 REVERT JUMPDEST DUP1 PUSH4 0x20F4FF6 EQ PUSH2 0x2F5 JUMPI DUP1 PUSH4 0x69DFC5B EQ PUSH2 0x315 JUMPI DUP1 PUSH4 0x88AF182 EQ PUSH2 0x34E JUMPI DUP1 PUSH4 0x9121FA8 EQ PUSH2 0x36E JUMPI DUP1 PUSH4 0x112F92BB EQ PUSH2 0x39B JUMPI PUSH1 0x0 DUP1 REVERT JUMPDEST CALLDATASIZE PUSH2 0x2F0 JUMPI PUSH1 0x3 SLOAD PUSH1 0xFF AND ISZERO PUSH2 0x2EE JUMPI PUSH1 0x40 MLOAD PUSH3 0x461BCD PUSH1 0xE5 SHL DUP2 MSTORE PUSH1 0x20 PUSH1 0x4 DUP3 ADD MSTORE PUSH1 0x42 PUSH1 0x24 DUP3 ADD MSTORE PUSH32 0x57616C6C6574536368656D653A2043616E742072656365697665206966206974 PUSH1 0x44 DUP3 ADD MSTORE PUSH32 0x2077696C6C206D616B652067656E657269632063616C6C7320746F2061766174 PUSH1 0x64 DUP3 ADD MSTORE PUSH2 0x30B9 PUSH1 0xF1 SHL PUSH1 0x84 DUP3 ADD MSTORE PUSH1 0xA4 ADD JUMPDEST PUSH1 0x40 MLOAD DUP1 SWAP2 SUB SWAP1 REVERT JUMPDEST STOP JUMPDEST PUSH1 0x0 DUP1 REVERT JUMPDEST CALLVALUE DUP1 ISZERO PUSH2 0x301 JUMPI PUSH1 0x0 DUP1 REVERT JUMPDEST POP PUSH2 0x2EE PUSH2 0x310 CALLDATASIZE PUSH1 0x4 PUSH2 0x3006 JUMP JUMPDEST PUSH2 0x92F JUMP JUMPDEST CALLVALUE DUP1 ISZERO PUSH2 0x321 JUMPI PUSH1 0x0 DUP1 REVERT JUMPDEST POP PUSH2 0x330 PUSH4 0x55555555 PUSH1 0xE1 SHL DUP2 JUMP JUMPDEST PUSH1 0x40 MLOAD PUSH1 0x1 PUSH1 0x1 PUSH1 0xE0 SHL SUB NOT SWAP1 SWAP2 AND DUP2 MSTORE PUSH1 0x20 ADD JUMPDEST PUSH1 0x40 MLOAD DUP1 SWAP2 SUB SWAP1 RETURN JUMPDEST CALLVALUE DUP1 ISZERO PUSH2 0x35A JUMPI PUSH1 0x0 DUP1 REVERT JUMPDEST POP PUSH2 0x330 PUSH2 0x369 CALLDATASIZE PUSH1 0x4 PUSH2 0x306C JUMP JUMPDEST PUSH2 0x9C0 JUMP JUMPDEST CALLVALUE DUP1 ISZERO PUSH2 0x37A JUMPI PUSH1 0x0 DUP1 REVERT JUMPDEST POP PUSH2 0x383 PUSH2 0x9F2 JUMP JUMPDEST PUSH1 0x40 MLOAD PUSH1 0x1 PUSH1 0x1 PUSH1 0xA0 SHL SUB SWAP1 SWAP2 AND DUP2 MSTORE PUSH1 0x20 ADD PUSH2 0x345 JUMP JUMPDEST CALLVALUE DUP1 ISZERO PUSH2 0x3A7 JUMPI PUSH1 0x0 DUP1 REVERT JUMPDEST POP PUSH2 0x3D4 PUSH2 0x3B6 CALLDATASIZE PUSH1 0x4 PUSH2 0x3006 JUMP JUMPDEST PUSH1 0x1 PUSH1 0x1 PUSH1 0xA0 SHL SUB AND PUSH1 0x0 SWAP1 DUP2 MSTORE PUSH1 0x5 PUSH1 0x20 MSTORE PUSH1 0x40 SWAP1 KECCAK256 SLOAD PUSH1 0xFF AND SWAP1 JUMP JUMPDEST PUSH1 0x40 MLOAD SWAP1 ISZERO ISZERO DUP2 MSTORE PUSH1 0x20 ADD PUSH2 0x345 JUMP JUMPDEST CALLVALUE DUP1 ISZERO PUSH2 0x3F0 JUMPI PUSH1 0x0 DUP1 REVERT JUMPDEST POP PUSH2 0x3D4 PUSH2 0x3FF CALLDATASIZE PUSH1 0x4 PUSH2 0x30AE JUMP JUMPDEST PUSH2 0xA66 JUMP JUMPDEST CALLVALUE DUP1 ISZERO PUSH2 0x410 JUMPI PUSH1 0x0 DUP1 REVERT JUMPDEST POP PUSH2 0x2EE PUSH2 0x41F CALLDATASIZE PUSH1 0x4 PUSH2 0x30F4 JUMP JUMPDEST PUSH2 0xB35 JUMP JUMPDEST CALLVALUE DUP1 ISZERO PUSH2 0x430 JUMPI PUSH1 0x0 DUP1 REVERT JUMPDEST POP PUSH2 0x330 PUSH32 0x622C7C8D66BCDA10E315B5C5CE22299DFD581E8B5CDF8AB947022F2A1BB8EF49 DUP2 JUMP JUMPDEST CALLVALUE DUP1 ISZERO PUSH2 0x464 JUMPI PUSH1 0x0 DUP1 REVERT JUMPDEST POP PUSH2 0x478 PUSH2 0x473 CALLDATASIZE PUSH1 0x4 PUSH2 0x31A8 JUMP JUMPDEST PUSH2 0xCFD JUMP JUMPDEST PUSH1 0x40 MLOAD PUSH2 0x345 SWAP5 SWAP4 SWAP3 SWAP2 SWAP1 PUSH2 0x3255 JUMP JUMPDEST CALLVALUE DUP1 ISZERO PUSH2 0x494 JUMPI PUSH1 0x0 DUP1 REVERT JUMPDEST POP PUSH2 0x2EE PUSH2 0x4A3 CALLDATASIZE PUSH1 0x4 PUSH2 0x3006 JUMP JUMPDEST PUSH2 0xE3D JUMP JUMPDEST CALLVALUE DUP1 ISZERO PUSH2 0x4B4 JUMPI PUSH1 0x0 DUP1 REVERT JUMPDEST POP PUSH2 0x330 PUSH32 0xA9059CBB2AB09EB219583F4A59A5D0623ADE346D962BCD4E46B11DA047C9049B DUP2 JUMP JUMPDEST CALLVALUE DUP1 ISZERO PUSH2 0x4E8 JUMPI PUSH1 0x0 DUP1 REVERT JUMPDEST POP PUSH2 0x51A PUSH1 0x40 MLOAD DUP1 PUSH1 0x40 ADD PUSH1 0x40 MSTORE DUP1 PUSH1 0x12 DUP2 MSTORE PUSH1 0x20 ADD PUSH18 0x2BB0B63632BA1029B1B432B6B2903B189719 PUSH1 0x71 SHL DUP2 MSTORE POP DUP2 JUMP JUMPDEST PUSH1 0x40 MLOAD PUSH2 0x345 SWAP2 SWAP1 PUSH2 0x3299 JUMP JUMPDEST CALLVALUE DUP1 ISZERO PUSH2 0x533 JUMPI PUSH1 0x0 DUP1 REVERT JUMPDEST POP PUSH1 0x9 SLOAD PUSH2 0x383 SWAP1 PUSH1 0x1 PUSH1 0x1 PUSH1 0xA0 SHL SUB AND DUP2 JUMP JUMPDEST CALLVALUE DUP1 ISZERO PUSH2 0x553 JUMPI PUSH1 0x0 DUP1 REVERT JUMPDEST POP PUSH2 0x383 PUSH20 0xAAAAAAAAAAAAAAAAAAAAAAAAAAAAAAAAAAAAAAAA DUP2 JUMP JUMPDEST CALLVALUE DUP1 ISZERO PUSH2 0x57B JUMPI PUSH1 0x0 DUP1 REVERT JUMPDEST POP PUSH2 0x585 PUSH1 0x7 SLOAD DUP2 JUMP JUMPDEST PUSH1 0x40 MLOAD SWAP1 DUP2 MSTORE PUSH1 0x20 ADD PUSH2 0x345 JUMP JUMPDEST CALLVALUE DUP1 ISZERO PUSH2 0x59F JUMPI PUSH1 0x0 DUP1 REVERT JUMPDEST POP PUSH2 0x5B3 PUSH2 0x5AE CALLDATASIZE PUSH1 0x4 PUSH2 0x31A8 JUMP JUMPDEST PUSH2 0xEB9 JUMP JUMPDEST PUSH1 0x40 MLOAD PUSH2 0x345 SWAP8 SWAP7 SWAP6 SWAP5 SWAP4 SWAP3 SWAP2 SWAP1 PUSH2 0x333C JUMP JUMPDEST CALLVALUE DUP1 ISZERO PUSH2 0x5D2 JUMPI PUSH1 0x0 DUP1 REVERT JUMPDEST POP PUSH1 0xA SLOAD PUSH2 0x383 SWAP1 PUSH1 0x1 PUSH1 0x1 PUSH1 0xA0 SHL SUB AND DUP2 JUMP JUMPDEST CALLVALUE DUP1 ISZERO PUSH2 0x5F2 JUMPI PUSH1 0x0 DUP1 REVERT JUMPDEST POP PUSH2 0x3D4 PUSH2 0x601 CALLDATASIZE PUSH1 0x4 PUSH2 0x30AE JUMP JUMPDEST PUSH2 0x11AA JUMP JUMPDEST CALLVALUE DUP1 ISZERO PUSH2 0x612 JUMPI PUSH1 0x0 DUP1 REVERT JUMPDEST POP PUSH2 0x2EE PUSH2 0x621 CALLDATASIZE PUSH1 0x4 PUSH2 0x31A8 JUMP JUMPDEST PUSH2 0x125E JUMP JUMPDEST CALLVALUE DUP1 ISZERO PUSH2 0x632 JUMPI PUSH1 0x0 DUP1 REVERT JUMPDEST POP PUSH2 0x585 PUSH2 0x641 CALLDATASIZE PUSH1 0x4 PUSH2 0x33F2 JUMP JUMPDEST PUSH2 0x1317 JUMP JUMPDEST CALLVALUE DUP1 ISZERO PUSH2 0x652 JUMPI PUSH1 0x0 DUP1 REVERT JUMPDEST POP PUSH2 0x2EE PUSH2 0x139D JUMP JUMPDEST CALLVALUE DUP1 ISZERO PUSH2 0x667 JUMPI PUSH1 0x0 DUP1 REVERT JUMPDEST POP PUSH2 0x585 PUSH2 0x676 CALLDATASIZE PUSH1 0x4 PUSH2 0x3463 JUMP JUMPDEST PUSH2 0x13B1 JUMP JUMPDEST CALLVALUE DUP1 ISZERO PUSH2 0x687 JUMPI PUSH1 0x0 DUP1 REVERT JUMPDEST POP PUSH2 0x585 PUSH2 0x696 CALLDATASIZE PUSH1 0x4 PUSH2 0x31A8 JUMP JUMPDEST PUSH1 0xB PUSH1 0x20 MSTORE PUSH1 0x0 SWAP1 DUP2 MSTORE PUSH1 0x40 SWAP1 KECCAK256 SLOAD DUP2 JUMP JUMPDEST CALLVALUE DUP1 ISZERO PUSH2 0x6B4 JUMPI PUSH1 0x0 DUP1 REVERT JUMPDEST POP PUSH1 0x0 SLOAD PUSH1 0x1 PUSH1 0x1 PUSH1 0xA0 SHL SUB AND PUSH2 0x383 JUMP JUMPDEST CALLVALUE DUP1 ISZERO PUSH2 0x6D2 JUMPI PUSH1 0x0 DUP1 REVERT JUMPDEST POP PUSH2 0x585 PUSH2 0x6E1 CALLDATASIZE PUSH1 0x4 PUSH2 0x33F2 JUMP JUMPDEST PUSH2 0x1B07 JUMP JUMPDEST CALLVALUE DUP1 ISZERO PUSH2 0x6F2 JUMPI PUSH1 0x0 DUP1 REVERT JUMPDEST POP PUSH2 0x3D4 PUSH2 0x701 CALLDATASIZE PUSH1 0x4 PUSH2 0x3554 JUMP JUMPDEST PUSH2 0x1BA3 JUMP JUMPDEST CALLVALUE DUP1 ISZERO PUSH2 0x712 JUMPI PUSH1 0x0 DUP1 REVERT JUMPDEST POP PUSH2 0x585 PUSH2 0x721 CALLDATASIZE PUSH1 0x4 PUSH2 0x31A8 JUMP JUMPDEST PUSH2 0x25B8 JUMP JUMPDEST CALLVALUE DUP1 ISZERO PUSH2 0x732 JUMPI PUSH1 0x0 DUP1 REVERT JUMPDEST POP PUSH1 0x4 SLOAD PUSH2 0x383 SWAP1 PUSH1 0x1 PUSH1 0x1 PUSH1 0xA0 SHL SUB AND DUP2 JUMP JUMPDEST CALLVALUE DUP1 ISZERO PUSH2 0x752 JUMPI PUSH1 0x0 DUP1 REVERT JUMPDEST POP PUSH1 0x2 SLOAD PUSH2 0x585 JUMP JUMPDEST CALLVALUE DUP1 ISZERO PUSH2 0x767 JUMPI PUSH1 0x0 DUP1 REVERT JUMPDEST POP PUSH2 0x3D4 PUSH2 0x776 CALLDATASIZE PUSH1 0x4 PUSH2 0x3576 JUMP JUMPDEST PUSH2 0x263A JUMP JUMPDEST CALLVALUE DUP1 ISZERO PUSH2 0x787 JUMPI PUSH1 0x0 DUP1 REVERT JUMPDEST POP PUSH2 0x51A PUSH2 0x2710 JUMP JUMPDEST CALLVALUE DUP1 ISZERO PUSH2 0x79C JUMPI PUSH1 0x0 DUP1 REVERT JUMPDEST POP PUSH2 0x330 PUSH32 0x95EA7B334AE44009AA867BFB386F5C3B4B443AC6F0EE573FA91C4608FBADFBA DUP2 JUMP JUMPDEST CALLVALUE DUP1 ISZERO PUSH2 0x7D0 JUMPI PUSH1 0x0 DUP1 REVERT JUMPDEST POP PUSH2 0x3D4 PUSH2 0x7DF CALLDATASIZE PUSH1 0x4 PUSH2 0x30AE JUMP JUMPDEST PUSH2 0x279E JUMP JUMPDEST CALLVALUE DUP1 ISZERO PUSH2 0x7F0 JUMPI PUSH1 0x0 DUP1 REVERT JUMPDEST POP PUSH2 0x585 PUSH2 0x2850 JUMP JUMPDEST CALLVALUE DUP1 ISZERO PUSH2 0x805 JUMPI PUSH1 0x0 DUP1 REVERT JUMPDEST POP PUSH2 0x80E PUSH2 0x28B4 JUMP JUMPDEST PUSH1 0x40 MLOAD PUSH2 0x345 SWAP2 SWAP1 PUSH2 0x35BC JUMP JUMPDEST CALLVALUE DUP1 ISZERO PUSH2 0x827 JUMPI PUSH1 0x0 DUP1 REVERT JUMPDEST POP PUSH2 0x5B3 PUSH2 0x836 CALLDATASIZE PUSH1 0x4 PUSH2 0x31A8 JUMP JUMPDEST PUSH2 0x290C JUMP JUMPDEST CALLVALUE DUP1 ISZERO PUSH2 0x847 JUMPI PUSH1 0x0 DUP1 REVERT JUMPDEST POP PUSH2 0x585 PUSH1 0x8 SLOAD DUP2 JUMP JUMPDEST CALLVALUE DUP1 ISZERO PUSH2 0x85D JUMPI PUSH1 0x0 DUP1 REVERT JUMPDEST POP PUSH2 0x585 PUSH2 0x86C CALLDATASIZE PUSH1 0x4 PUSH2 0x31A8 JUMP JUMPDEST PUSH2 0x2955 JUMP JUMPDEST CALLVALUE DUP1 ISZERO PUSH2 0x87D JUMPI PUSH1 0x0 DUP1 REVERT JUMPDEST POP PUSH2 0x2EE PUSH2 0x88C CALLDATASIZE PUSH1 0x4 PUSH2 0x3006 JUMP JUMPDEST PUSH2 0x2976 JUMP JUMPDEST CALLVALUE DUP1 ISZERO PUSH2 0x89D JUMPI PUSH1 0x0 DUP1 REVERT JUMPDEST POP PUSH1 0x3 SLOAD PUSH2 0x3D4 SWAP1 PUSH1 0xFF AND DUP2 JUMP JUMPDEST CALLVALUE DUP1 ISZERO PUSH2 0x8B7 JUMPI PUSH1 0x0 DUP1 REVERT JUMPDEST POP PUSH2 0x8CB PUSH2 0x8C6 CALLDATASIZE PUSH1 0x4 PUSH2 0x306C JUMP JUMPDEST PUSH2 0x29EF JUMP JUMPDEST PUSH1 0x40 DUP1 MLOAD PUSH1 0x1 PUSH1 0x1 PUSH1 0xA0 SHL SUB SWAP1 SWAP4 AND DUP4 MSTORE PUSH1 0x20 DUP4 ADD SWAP2 SWAP1 SWAP2 MSTORE ADD PUSH2 0x345 JUMP JUMPDEST CALLVALUE DUP1 ISZERO PUSH2 0x8F6 JUMPI PUSH1 0x0 DUP1 REVERT JUMPDEST POP PUSH1 0x3 SLOAD PUSH2 0x383 SWAP1 PUSH2 0x100 SWAP1 DIV PUSH1 0x1 PUSH1 0x1 PUSH1 0xA0 SHL SUB AND DUP2 JUMP JUMPDEST CALLVALUE DUP1 ISZERO PUSH2 0x91B JUMPI PUSH1 0x0 DUP1 REVERT JUMPDEST POP PUSH2 0x3D4 PUSH2 0x92A CALLDATASIZE PUSH1 0x4 PUSH2 0x30AE JUMP JUMPDEST PUSH2 0x2A17 JUMP JUMPDEST PUSH2 0x937 PUSH2 0x2AC9 JUMP JUMPDEST PUSH1 0x1 PUSH1 0x1 PUSH1 0xA0 SHL SUB DUP2 AND PUSH1 0x0 SWAP1 DUP2 MSTORE PUSH1 0x5 PUSH1 0x20 MSTORE PUSH1 0x40 SWAP1 KECCAK256 SLOAD PUSH1 0xFF AND ISZERO ISZERO PUSH1 0x1 EQ ISZERO PUSH2 0x962 JUMPI PUSH1 0x0 DUP1 REVERT JUMPDEST PUSH1 0x1 PUSH1 0x1 PUSH1 0xA0 SHL SUB DUP2 AND PUSH1 0x0 DUP2 DUP2 MSTORE PUSH1 0x5 PUSH1 0x20 SWAP1 DUP2 MSTORE PUSH1 0x40 SWAP2 DUP3 SWAP1 KECCAK256 DUP1 SLOAD PUSH1 0xFF NOT AND PUSH1 0x1 SWAP1 DUP2 OR SWAP1 SWAP2 SSTORE SWAP2 MLOAD SWAP2 DUP3 MSTORE PUSH32 0xEBCB0E14AAE789891730336ADE5F30FA6034CB7FE1E8A07AD23F0EC40C0CC61D SWAP2 ADD JUMPDEST PUSH1 0x40 MLOAD DUP1 SWAP2 SUB SWAP1 LOG2 POP JUMP JUMPDEST PUSH1 0x0 PUSH1 0x4 DUP3 LT PUSH2 0x9E8 JUMPI PUSH2 0x9D8 PUSH1 0x4 PUSH1 0x0 DUP5 DUP7 PUSH2 0x3600 JUMP JUMPDEST PUSH2 0x9E1 SWAP2 PUSH2 0x362A JUMP JUMPDEST SWAP1 POP PUSH2 0x9EC JUMP JUMPDEST POP PUSH1 0x0 JUMPDEST SWAP3 SWAP2 POP POP JUMP JUMPDEST PUSH1 0x40 DUP1 MLOAD PUSH1 0x4 DUP2 MSTORE PUSH1 0x24 DUP2 ADD DUP3 MSTORE PUSH1 0x20 DUP1 DUP3 ADD DUP1 MLOAD PUSH1 0x1 PUSH1 0x1 PUSH1 0xE0 SHL SUB AND PUSH4 0x89AE1C9 PUSH1 0xE4 SHL OR SWAP1 MSTORE DUP3 MLOAD PUSH1 0x60 DUP2 ADD SWAP1 SWAP4 MSTORE PUSH1 0x3E DUP1 DUP5 MSTORE PUSH1 0x0 SWAP4 PUSH2 0xA4E SWAP4 SWAP3 SWAP1 SWAP2 SWAP1 PUSH2 0x3EF4 SWAP1 DUP4 ADD CODECOPY PUSH1 0xA SLOAD PUSH1 0x1 PUSH1 0x1 PUSH1 0xA0 SHL SUB AND SWAP2 SWAP1 PUSH2 0x2B23 JUMP JUMPDEST DUP1 PUSH1 0x20 ADD SWAP1 MLOAD DUP2 ADD SWAP1 PUSH2 0xA61 SWAP2 SWAP1 PUSH2 0x365A JUMP JUMPDEST SWAP1 POP SWAP1 JUMP JUMPDEST CALLER PUSH1 0x0 SWAP1 DUP2 MSTORE PUSH1 0x5 PUSH1 0x20 MSTORE PUSH1 0x40 DUP2 KECCAK256 SLOAD PUSH1 0xFF AND PUSH2 0xA95 JUMPI PUSH1 0x40 MLOAD PUSH3 0x461BCD PUSH1 0xE5 SHL DUP2 MSTORE PUSH1 0x4 ADD PUSH2 0x2E5 SWAP1 PUSH2 0x3677 JUMP JUMPDEST PUSH1 0xA SLOAD PUSH1 0x40 MLOAD PUSH1 0x24 DUP2 ADD DUP7 SWAP1 MSTORE PUSH1 0x1 PUSH1 0x1 PUSH1 0xA0 SHL SUB DUP1 DUP7 AND PUSH1 0x44 DUP4 ADD MSTORE SWAP1 SWAP2 AND PUSH1 0x64 DUP3 ADD MSTORE PUSH2 0xB1A SWAP1 PUSH1 0x84 ADD PUSH1 0x40 DUP1 MLOAD PUSH1 0x1F NOT DUP2 DUP5 SUB ADD DUP2 MSTORE SWAP2 DUP2 MSTORE PUSH1 0x20 DUP1 DUP4 ADD DUP1 MLOAD PUSH1 0x1 PUSH1 0x1 PUSH1 0xE0 SHL SUB AND PUSH4 0x757CCA59 PUSH1 0xE1 SHL OR SWAP1 MSTORE DUP2 MLOAD PUSH1 0x80 DUP2 ADD SWAP1 SWAP3 MSTORE PUSH1 0x4E DUP1 DUP4 MSTORE SWAP1 PUSH2 0x3DB3 SWAP1 DUP4 ADD CODECOPY PUSH1 0x3 SLOAD PUSH2 0x100 SWAP1 DIV PUSH1 0x1 PUSH1 0x1 PUSH1 0xA0 SHL SUB AND SWAP2 SWAP1 PUSH2 0x2B9B JUMP JUMPDEST DUP1 PUSH1 0x20 ADD SWAP1 MLOAD DUP2 ADD SWAP1 PUSH2 0xB2D SWAP2 SWAP1 PUSH2 0x36B9 JUMP JUMPDEST SWAP5 SWAP4 POP POP POP POP JUMP JUMPDEST PUSH1 0xA SLOAD PUSH1 0x1 PUSH1 0x1 PUSH1 0xA0 SHL SUB AND ISZERO PUSH2 0xB8E JUMPI PUSH1 0x40 MLOAD PUSH3 0x461BCD PUSH1 0xE5 SHL DUP2 MSTORE PUSH1 0x20 PUSH1 0x4 DUP3 ADD MSTORE PUSH1 0x1F PUSH1 0x24 DUP3 ADD MSTORE PUSH32 0x57616C6C6574536368656D653A2063616E6E6F7420696E697420747769636500 PUSH1 0x44 DUP3 ADD MSTORE PUSH1 0x64 ADD PUSH2 0x2E5 JUMP JUMPDEST PUSH1 0x1 PUSH1 0x1 PUSH1 0xA0 SHL SUB DUP10 AND PUSH2 0xBF0 JUMPI PUSH1 0x40 MLOAD PUSH3 0x461BCD PUSH1 0xE5 SHL DUP2 MSTORE PUSH1 0x20 PUSH1 0x4 DUP3 ADD MSTORE PUSH1 0x23 PUSH1 0x24 DUP3 ADD MSTORE PUSH32 0x57616C6C6574536368656D653A206176617461722063616E6E6F74206265207A PUSH1 0x44 DUP3 ADD MSTORE PUSH3 0x65726F PUSH1 0xE8 SHL PUSH1 0x64 DUP3 ADD MSTORE PUSH1 0x84 ADD PUSH2 0x2E5 JUMP JUMPDEST PUSH1 0x1 PUSH1 0x1 PUSH1 0xA0 SHL SUB DUP7 AND PUSH2 0xC56 JUMPI PUSH1 0x40 MLOAD PUSH3 0x461BCD PUSH1 0xE5 SHL DUP2 MSTORE PUSH1 0x20 PUSH1 0x4 DUP3 ADD MSTORE PUSH1 0x27 PUSH1 0x24 DUP3 ADD MSTORE PUSH32 0x57616C6C6574536368656D653A20636F6E74726F6C6C65722063616E6E6F7420 PUSH1 0x44 DUP3 ADD MSTORE PUSH7 0x6265207A65726F PUSH1 0xC8 SHL PUSH1 0x64 DUP3 ADD MSTORE PUSH1 0x84 ADD PUSH2 0x2E5 JUMP JUMPDEST PUSH3 0x15180 DUP3 LT ISZERO PUSH2 0xC79 JUMPI PUSH1 0x40 MLOAD PUSH3 0x461BCD PUSH1 0xE5 SHL DUP2 MSTORE PUSH1 0x4 ADD PUSH2 0x2E5 SWAP1 PUSH2 0x36D6 JUMP JUMPDEST PUSH1 0xA DUP1 SLOAD PUSH1 0x1 PUSH1 0x1 PUSH1 0xA0 SHL SUB NOT SWAP1 DUP2 AND PUSH1 0x1 PUSH1 0x1 PUSH1 0xA0 SHL SUB DUP13 DUP2 AND SWAP2 SWAP1 SWAP2 OR SWAP1 SWAP3 SSTORE PUSH1 0x9 DUP1 SLOAD DUP3 AND DUP12 DUP5 AND OR SWAP1 SSTORE PUSH1 0x3 DUP1 SLOAD PUSH1 0x1 PUSH1 0x1 PUSH1 0xA8 SHL SUB NOT AND DUP11 ISZERO ISZERO PUSH2 0x100 PUSH1 0x1 PUSH1 0xA8 SHL SUB NOT AND OR PUSH2 0x100 DUP11 DUP6 AND MUL OR SWAP1 SSTORE PUSH1 0x4 DUP1 SLOAD SWAP1 SWAP2 AND SWAP2 DUP8 AND SWAP2 SWAP1 SWAP2 OR SWAP1 SSTORE PUSH2 0xCEA PUSH1 0x6 DUP6 DUP6 PUSH2 0x2DA5 JUMP JUMPDEST POP PUSH1 0x7 SWAP2 SWAP1 SWAP2 SSTORE PUSH1 0x8 SSTORE POP POP POP POP POP POP POP JUMP JUMPDEST PUSH1 0x1 PUSH1 0x20 MSTORE PUSH1 0x0 SWAP1 DUP2 MSTORE PUSH1 0x40 SWAP1 KECCAK256 PUSH1 0x3 DUP2 ADD SLOAD PUSH1 0x4 DUP3 ADD DUP1 SLOAD PUSH1 0xFF SWAP1 SWAP3 AND SWAP3 SWAP2 PUSH2 0xD26 SWAP1 PUSH2 0x3741 JUMP JUMPDEST DUP1 PUSH1 0x1F ADD PUSH1 0x20 DUP1 SWAP2 DIV MUL PUSH1 0x20 ADD PUSH1 0x40 MLOAD SWAP1 DUP2 ADD PUSH1 0x40 MSTORE DUP1 SWAP3 SWAP2 SWAP1 DUP2 DUP2 MSTORE PUSH1 0x20 ADD DUP3 DUP1 SLOAD PUSH2 0xD52 SWAP1 PUSH2 0x3741 JUMP JUMPDEST DUP1 ISZERO PUSH2 0xD9F JUMPI DUP1 PUSH1 0x1F LT PUSH2 0xD74 JUMPI PUSH2 0x100 DUP1 DUP4 SLOAD DIV MUL DUP4 MSTORE SWAP2 PUSH1 0x20 ADD SWAP2 PUSH2 0xD9F JUMP JUMPDEST DUP3 ADD SWAP2 SWAP1 PUSH1 0x0 MSTORE PUSH1 0x20 PUSH1 0x0 KECCAK256 SWAP1 JUMPDEST DUP2 SLOAD DUP2 MSTORE SWAP1 PUSH1 0x1 ADD SWAP1 PUSH1 0x20 ADD DUP1 DUP4 GT PUSH2 0xD82 JUMPI DUP3 SWAP1 SUB PUSH1 0x1F AND DUP3 ADD SWAP2 JUMPDEST POP POP POP POP POP SWAP1 DUP1 PUSH1 0x5 ADD DUP1 SLOAD PUSH2 0xDB4 SWAP1 PUSH2 0x3741 JUMP JUMPDEST DUP1 PUSH1 0x1F ADD PUSH1 0x20 DUP1 SWAP2 DIV MUL PUSH1 0x20 ADD PUSH1 0x40 MLOAD SWAP1 DUP2 ADD PUSH1 0x40 MSTORE DUP1 SWAP3 SWAP2 SWAP1 DUP2 DUP2 MSTORE PUSH1 0x20 ADD DUP3 DUP1 SLOAD PUSH2 0xDE0 SWAP1 PUSH2 0x3741 JUMP JUMPDEST DUP1 ISZERO PUSH2 0xE2D JUMPI DUP1 PUSH1 0x1F LT PUSH2 0xE02 JUMPI PUSH2 0x100 DUP1 DUP4 SLOAD DIV MUL DUP4 MSTORE SWAP2 PUSH1 0x20 ADD SWAP2 PUSH2 0xE2D JUMP JUMPDEST DUP3 ADD SWAP2 SWAP1 PUSH1 0x0 MSTORE PUSH1 0x20 PUSH1 0x0 KECCAK256 SWAP1 JUMPDEST DUP2 SLOAD DUP2 MSTORE SWAP1 PUSH1 0x1 ADD SWAP1 PUSH1 0x20 ADD DUP1 DUP4 GT PUSH2 0xE10 JUMPI DUP3 SWAP1 SUB PUSH1 0x1F AND DUP3 ADD SWAP2 JUMPDEST POP POP POP POP POP SWAP1 DUP1 PUSH1 0x6 ADD SLOAD SWAP1 POP DUP5 JUMP JUMPDEST PUSH2 0xE45 PUSH2 0x2AC9 JUMP JUMPDEST PUSH1 0x1 PUSH1 0x1 PUSH1 0xA0 SHL SUB DUP2 AND PUSH1 0x0 SWAP1 DUP2 MSTORE PUSH1 0x5 PUSH1 0x20 MSTORE PUSH1 0x40 SWAP1 KECCAK256 SLOAD PUSH1 0xFF AND PUSH2 0xE6A JUMPI PUSH1 0x0 DUP1 REVERT JUMPDEST PUSH1 0x1 PUSH1 0x1 PUSH1 0xA0 SHL SUB DUP2 AND PUSH1 0x0 DUP2 DUP2 MSTORE PUSH1 0x5 PUSH1 0x20 SWAP1 DUP2 MSTORE PUSH1 0x40 DUP1 DUP4 KECCAK256 DUP1 SLOAD PUSH1 0xFF NOT AND SWAP1 SSTORE MLOAD SWAP2 DUP3 MSTORE PUSH32 0x38F561C9CD37215D8695132EB6DD4E737827EAE190FFDF0708EC9E0BBCA646B4 SWAP2 ADD PUSH2 0x9B5 JUMP JUMPDEST PUSH1 0x0 DUP2 DUP2 MSTORE PUSH1 0x1 PUSH1 0x20 DUP2 DUP2 MSTORE PUSH1 0x40 DUP1 DUP5 KECCAK256 PUSH1 0x3 DUP2 ADD SLOAD PUSH1 0x6 DUP3 ADD SLOAD DUP3 SLOAD DUP5 MLOAD DUP2 DUP8 MUL DUP2 ADD DUP8 ADD SWAP1 SWAP6 MSTORE DUP1 DUP6 MSTORE PUSH1 0x60 SWAP8 DUP9 SWAP8 DUP9 SWAP8 SWAP2 SWAP7 DUP9 SWAP7 DUP8 SWAP7 DUP10 SWAP7 SWAP2 SWAP6 SWAP4 DUP7 ADD SWAP5 PUSH1 0x2 DUP8 ADD SWAP5 PUSH1 0xFF SWAP1 SWAP3 AND SWAP4 PUSH1 0x4 DUP9 ADD SWAP4 PUSH1 0x5 DUP10 ADD SWAP4 SWAP1 SWAP3 DUP10 SWAP2 SWAP1 DUP4 ADD DUP3 DUP3 DUP1 ISZERO PUSH2 0xF4D JUMPI PUSH1 0x20 MUL DUP3 ADD SWAP2 SWAP1 PUSH1 0x0 MSTORE PUSH1 0x20 PUSH1 0x0 KECCAK256 SWAP1 JUMPDEST DUP2 SLOAD PUSH1 0x1 PUSH1 0x1 PUSH1 0xA0 SHL SUB AND DUP2 MSTORE PUSH1 0x1 SWAP1 SWAP2 ADD SWAP1 PUSH1 0x20 ADD DUP1 DUP4 GT PUSH2 0xF2F JUMPI JUMPDEST POP POP POP POP POP SWAP7 POP DUP6 DUP1 SLOAD DUP1 PUSH1 0x20 MUL PUSH1 0x20 ADD PUSH1 0x40 MLOAD SWAP1 DUP2 ADD PUSH1 0x40 MSTORE DUP1 SWAP3 SWAP2 SWAP1 DUP2 DUP2 MSTORE PUSH1 0x20 ADD PUSH1 0x0 SWAP1 JUMPDEST DUP3 DUP3 LT ISZERO PUSH2 0x1021 JUMPI DUP4 DUP3 SWAP1 PUSH1 0x0 MSTORE PUSH1 0x20 PUSH1 0x0 KECCAK256 ADD DUP1 SLOAD PUSH2 0xF94 SWAP1 PUSH2 0x3741 JUMP JUMPDEST DUP1 PUSH1 0x1F ADD PUSH1 0x20 DUP1 SWAP2 DIV MUL PUSH1 0x20 ADD PUSH1 0x40 MLOAD SWAP1 DUP2 ADD PUSH1 0x40 MSTORE DUP1 SWAP3 SWAP2 SWAP1 DUP2 DUP2 MSTORE PUSH1 0x20 ADD DUP3 DUP1 SLOAD PUSH2 0xFC0 SWAP1 PUSH2 0x3741 JUMP JUMPDEST DUP1 ISZERO PUSH2 0x100D JUMPI DUP1 PUSH1 0x1F LT PUSH2 0xFE2 JUMPI PUSH2 0x100 DUP1 DUP4 SLOAD DIV MUL DUP4 MSTORE SWAP2 PUSH1 0x20 ADD SWAP2 PUSH2 0x100D JUMP JUMPDEST DUP3 ADD SWAP2 SWAP1 PUSH1 0x0 MSTORE PUSH1 0x20 PUSH1 0x0 KECCAK256 SWAP1 JUMPDEST DUP2 SLOAD DUP2 MSTORE SWAP1 PUSH1 0x1 ADD SWAP1 PUSH1 0x20 ADD DUP1 DUP4 GT PUSH2 0xFF0 JUMPI DUP3 SWAP1 SUB PUSH1 0x1F AND DUP3 ADD SWAP2 JUMPDEST POP POP POP POP POP DUP2 MSTORE PUSH1 0x20 ADD SWAP1 PUSH1 0x1 ADD SWAP1 PUSH2 0xF75 JUMP JUMPDEST POP POP POP POP SWAP6 POP DUP5 DUP1 SLOAD DUP1 PUSH1 0x20 MUL PUSH1 0x20 ADD PUSH1 0x40 MLOAD SWAP1 DUP2 ADD PUSH1 0x40 MSTORE DUP1 SWAP3 SWAP2 SWAP1 DUP2 DUP2 MSTORE PUSH1 0x20 ADD DUP3 DUP1 SLOAD DUP1 ISZERO PUSH2 0x1072 JUMPI PUSH1 0x20 MUL DUP3 ADD SWAP2 SWAP1 PUSH1 0x0 MSTORE PUSH1 0x20 PUSH1 0x0 KECCAK256 SWAP1 JUMPDEST DUP2 SLOAD DUP2 MSTORE PUSH1 0x20 ADD SWAP1 PUSH1 0x1 ADD SWAP1 DUP1 DUP4 GT PUSH2 0x105E JUMPI JUMPDEST POP POP POP POP POP SWAP5 POP DUP3 DUP1 SLOAD PUSH2 0x1085 SWAP1 PUSH2 0x3741 JUMP JUMPDEST DUP1 PUSH1 0x1F ADD PUSH1 0x20 DUP1 SWAP2 DIV MUL PUSH1 0x20 ADD PUSH1 0x40 MLOAD SWAP1 DUP2 ADD PUSH1 0x40 MSTORE DUP1 SWAP3 SWAP2 SWAP1 DUP2 DUP2 MSTORE PUSH1 0x20 ADD DUP3 DUP1 SLOAD PUSH2 0x10B1 SWAP1 PUSH2 0x3741 JUMP JUMPDEST DUP1 ISZERO PUSH2 0x10FE JUMPI DUP1 PUSH1 0x1F LT PUSH2 0x10D3 JUMPI PUSH2 0x100 DUP1 DUP4 SLOAD DIV MUL DUP4 MSTORE SWAP2 PUSH1 0x20 ADD SWAP2 PUSH2 0x10FE JUMP JUMPDEST DUP3 ADD SWAP2 SWAP1 PUSH1 0x0 MSTORE PUSH1 0x20 PUSH1 0x0 KECCAK256 SWAP1 JUMPDEST DUP2 SLOAD DUP2 MSTORE SWAP1 PUSH1 0x1 ADD SWAP1 PUSH1 0x20 ADD DUP1 DUP4 GT PUSH2 0x10E1 JUMPI DUP3 SWAP1 SUB PUSH1 0x1F AND DUP3 ADD SWAP2 JUMPDEST POP POP POP POP POP SWAP3 POP DUP2 DUP1 SLOAD PUSH2 0x1111 SWAP1 PUSH2 0x3741 JUMP JUMPDEST DUP1 PUSH1 0x1F ADD PUSH1 0x20 DUP1 SWAP2 DIV MUL PUSH1 0x20 ADD PUSH1 0x40 MLOAD SWAP1 DUP2 ADD PUSH1 0x40 MSTORE DUP1 SWAP3 SWAP2 SWAP1 DUP2 DUP2 MSTORE PUSH1 0x20 ADD DUP3 DUP1 SLOAD PUSH2 0x113D SWAP1 PUSH2 0x3741 JUMP JUMPDEST DUP1 ISZERO PUSH2 0x118A JUMPI DUP1 PUSH1 0x1F LT PUSH2 0x115F JUMPI PUSH2 0x100 DUP1 DUP4 SLOAD DIV MUL DUP4 MSTORE SWAP2 PUSH1 0x20 ADD SWAP2 PUSH2 0x118A JUMP JUMPDEST DUP3 ADD SWAP2 SWAP1 PUSH1 0x0 MSTORE PUSH1 0x20 PUSH1 0x0 KECCAK256 SWAP1 JUMPDEST DUP2 SLOAD DUP2 MSTORE SWAP1 PUSH1 0x1 ADD SWAP1 PUSH1 0x20 ADD DUP1 DUP4 GT PUSH2 0x116D JUMPI DUP3 SWAP1 SUB PUSH1 0x1F AND DUP3 ADD SWAP2 JUMPDEST POP POP POP POP POP SWAP2 POP SWAP7 POP SWAP7 POP SWAP7 POP SWAP7 POP SWAP7 POP SWAP7 POP SWAP7 POP SWAP2 SWAP4 SWAP6 SWAP8 SWAP1 SWAP3 SWAP5 SWAP7 POP JUMP JUMPDEST CALLER PUSH1 0x0 SWAP1 DUP2 MSTORE PUSH1 0x5 PUSH1 0x20 MSTORE PUSH1 0x40 DUP2 KECCAK256 SLOAD PUSH1 0xFF AND PUSH2 0x11D9 JUMPI PUSH1 0x40 MLOAD PUSH3 0x461BCD PUSH1 0xE5 SHL DUP2 MSTORE PUSH1 0x4 ADD PUSH2 0x2E5 SWAP1 PUSH2 0x3677 JUMP JUMPDEST PUSH1 0xA SLOAD PUSH1 0x40 MLOAD PUSH1 0x24 DUP2 ADD DUP7 SWAP1 MSTORE PUSH1 0x1 PUSH1 0x1 PUSH1 0xA0 SHL SUB DUP1 DUP7 AND PUSH1 0x44 DUP4 ADD MSTORE SWAP1 SWAP2 AND PUSH1 0x64 DUP3 ADD MSTORE PUSH2 0xB1A SWAP1 PUSH1 0x84 ADD PUSH1 0x40 DUP1 MLOAD PUSH1 0x1F NOT DUP2 DUP5 SUB ADD DUP2 MSTORE SWAP2 DUP2 MSTORE PUSH1 0x20 DUP1 DUP4 ADD DUP1 MLOAD PUSH1 0x1 PUSH1 0x1 PUSH1 0xE0 SHL SUB AND PUSH4 0xDD29A4F PUSH1 0xE3 SHL OR SWAP1 MSTORE DUP2 MLOAD PUSH1 0x80 DUP2 ADD SWAP1 SWAP3 MSTORE PUSH1 0x4E DUP1 DUP4 MSTORE SWAP1 PUSH2 0x3CAD SWAP1 DUP4 ADD CODECOPY PUSH1 0x3 SLOAD PUSH2 0x100 SWAP1 DIV PUSH1 0x1 PUSH1 0x1 PUSH1 0xA0 SHL SUB AND SWAP2 SWAP1 PUSH2 0x2B9B JUMP JUMPDEST PUSH1 0xA SLOAD PUSH1 0x1 PUSH1 0x1 PUSH1 0xA0 SHL SUB AND CALLER EQ PUSH2 0x12EF JUMPI PUSH1 0x40 MLOAD PUSH3 0x461BCD PUSH1 0xE5 SHL DUP2 MSTORE PUSH1 0x20 PUSH1 0x4 DUP3 ADD MSTORE PUSH1 0x48 PUSH1 0x24 DUP3 ADD MSTORE PUSH32 0x57616C6C6574536368656D653A207365744D61785365636F6E6473466F724578 PUSH1 0x44 DUP3 ADD MSTORE PUSH32 0x65637574696F6E2069732063616C6C61626C65206F6E6C7920666F726D207468 PUSH1 0x64 DUP3 ADD MSTORE PUSH8 0x329030BB30BA30B9 PUSH1 0xC1 SHL PUSH1 0x84 DUP3 ADD MSTORE PUSH1 0xA4 ADD PUSH2 0x2E5 JUMP JUMPDEST PUSH3 0x15180 DUP2 LT ISZERO PUSH2 0x1312 JUMPI PUSH1 0x40 MLOAD PUSH3 0x461BCD PUSH1 0xE5 SHL DUP2 MSTORE PUSH1 0x4 ADD PUSH2 0x2E5 SWAP1 PUSH2 0x36D6 JUMP JUMPDEST PUSH1 0x7 SSTORE JUMP JUMPDEST PUSH1 0xA SLOAD PUSH1 0x40 MLOAD PUSH4 0x70A08231 PUSH1 0xE0 SHL DUP2 MSTORE PUSH1 0x1 PUSH1 0x1 PUSH1 0xA0 SHL SUB SWAP2 DUP3 AND PUSH1 0x4 DUP3 ADD MSTORE PUSH1 0x0 SWAP2 DUP5 AND SWAP1 PUSH4 0x70A08231 SWAP1 PUSH1 0x24 ADD PUSH1 0x20 PUSH1 0x40 MLOAD DUP1 DUP4 SUB DUP2 DUP7 DUP1 EXTCODESIZE ISZERO DUP1 ISZERO PUSH2 0x135E JUMPI PUSH1 0x0 DUP1 REVERT JUMPDEST POP GAS STATICCALL ISZERO DUP1 ISZERO PUSH2 0x1372 JUMPI RETURNDATASIZE PUSH1 0x0 DUP1 RETURNDATACOPY RETURNDATASIZE PUSH1 0x0 REVERT JUMPDEST POP POP POP POP PUSH1 0x40 MLOAD RETURNDATASIZE PUSH1 0x1F NOT PUSH1 0x1F DUP3 ADD AND DUP3 ADD DUP1 PUSH1 0x40 MSTORE POP DUP2 ADD SWAP1 PUSH2 0x1396 SWAP2 SWAP1 PUSH2 0x377C JUMP JUMPDEST SWAP4 SWAP3 POP POP POP JUMP JUMPDEST PUSH2 0x13A5 PUSH2 0x2AC9 JUMP JUMPDEST PUSH2 0x13AF PUSH1 0x0 PUSH2 0x2BAA JUMP JUMPDEST JUMP JUMPDEST PUSH1 0x0 DUP1 JUMPDEST DUP11 DUP2 LT ISZERO PUSH2 0x16E4 JUMPI PUSH1 0x0 PUSH2 0x13E6 DUP12 DUP12 DUP5 DUP2 DUP2 LT PUSH2 0x13D4 JUMPI PUSH2 0x13D4 PUSH2 0x3795 JUMP JUMPDEST SWAP1 POP PUSH1 0x20 MUL DUP2 ADD SWAP1 PUSH2 0x369 SWAP2 SWAP1 PUSH2 0x37AB JUMP JUMPDEST SWAP1 POP PUSH20 0xAAAAAAAAAAAAAAAAAAAAAAAAAAAAAAAAAAAAAAAA DUP14 DUP14 DUP5 DUP2 DUP2 LT PUSH2 0x140F JUMPI PUSH2 0x140F PUSH2 0x3795 JUMP JUMPDEST SWAP1 POP PUSH1 0x20 MUL ADD PUSH1 0x20 DUP2 ADD SWAP1 PUSH2 0x1424 SWAP2 SWAP1 PUSH2 0x3006 JUMP JUMPDEST PUSH1 0x1 PUSH1 0x1 PUSH1 0xA0 SHL SUB AND EQ ISZERO PUSH2 0x14C0 JUMPI PUSH1 0x40 MLOAD PUSH3 0x461BCD PUSH1 0xE5 SHL DUP2 MSTORE PUSH1 0x20 PUSH1 0x4 DUP3 ADD MSTORE PUSH1 0x56 PUSH1 0x24 DUP3 ADD MSTORE PUSH32 0x57616C6C6574536368656D653A2063616E742070726F706F73652063616C6C73 PUSH1 0x44 DUP3 ADD MSTORE PUSH32 0x20746F2030786141614161416161416141614161614161414141414141414161 PUSH1 0x64 DUP3 ADD MSTORE PUSH22 0x61614161416141616141616141612061646472657373 PUSH1 0x50 SHL PUSH1 0x84 DUP3 ADD MSTORE PUSH1 0xA4 ADD PUSH2 0x2E5 JUMP JUMPDEST PUSH1 0x1 PUSH1 0x1 PUSH1 0xE0 SHL SUB NOT DUP2 AND PUSH4 0x55555555 PUSH1 0xE1 SHL EQ ISZERO PUSH2 0x1547 JUMPI PUSH1 0x40 MLOAD PUSH3 0x461BCD PUSH1 0xE5 SHL DUP2 MSTORE PUSH1 0x20 PUSH1 0x4 DUP3 ADD MSTORE PUSH1 0x3A PUSH1 0x24 DUP3 ADD MSTORE PUSH32 0x57616C6C6574536368656D653A2063616E742070726F706F73652063616C6C73 PUSH1 0x44 DUP3 ADD MSTORE PUSH32 0x20776974682030786161616161616161207369676E6174757265000000000000 PUSH1 0x64 DUP3 ADD MSTORE PUSH1 0x84 ADD PUSH2 0x2E5 JUMP JUMPDEST ADDRESS DUP14 DUP14 DUP5 DUP2 DUP2 LT PUSH2 0x155A JUMPI PUSH2 0x155A PUSH2 0x3795 JUMP JUMPDEST SWAP1 POP PUSH1 0x20 MUL ADD PUSH1 0x20 DUP2 ADD SWAP1 PUSH2 0x156F SWAP2 SWAP1 PUSH2 0x3006 JUMP JUMPDEST PUSH1 0x1 PUSH1 0x1 PUSH1 0xA0 SHL SUB AND EQ ISZERO DUP1 PUSH2 0x15B8 JUMPI POP PUSH1 0x1 PUSH1 0x1 PUSH1 0xE0 SHL SUB NOT DUP2 AND PUSH4 0x622C7C8D PUSH1 0xE0 SHL EQ DUP1 ISZERO PUSH2 0x15B8 JUMPI POP DUP9 DUP9 DUP4 DUP2 DUP2 LT PUSH2 0x15AD JUMPI PUSH2 0x15AD PUSH2 0x3795 JUMP JUMPDEST SWAP1 POP PUSH1 0x20 MUL ADD CALLDATALOAD PUSH1 0x0 EQ JUMPDEST PUSH2 0x1612 JUMPI PUSH1 0x40 MLOAD PUSH3 0x461BCD PUSH1 0xE5 SHL DUP2 MSTORE PUSH1 0x20 PUSH1 0x4 DUP3 ADD MSTORE PUSH1 0x25 PUSH1 0x24 DUP3 ADD MSTORE PUSH32 0x57616C6C6574536368656D653A20696E76616C69642070726F706F73616C2063 PUSH1 0x44 DUP3 ADD MSTORE PUSH5 0x30B63632B9 PUSH1 0xD9 SHL PUSH1 0x64 DUP3 ADD MSTORE PUSH1 0x84 ADD PUSH2 0x2E5 JUMP JUMPDEST PUSH1 0x1 PUSH1 0x1 PUSH1 0xE0 SHL SUB NOT DUP2 AND PUSH4 0xA9059CBB PUSH1 0xE0 SHL EQ DUP1 ISZERO SWAP1 PUSH2 0x1644 JUMPI POP PUSH1 0x1 PUSH1 0x1 PUSH1 0xE0 SHL SUB NOT DUP2 AND PUSH4 0x95EA7B3 PUSH1 0xE0 SHL EQ ISZERO JUMPDEST DUP1 PUSH2 0x1667 JUMPI POP DUP9 DUP9 DUP4 DUP2 DUP2 LT PUSH2 0x165C JUMPI PUSH2 0x165C PUSH2 0x3795 JUMP JUMPDEST SWAP1 POP PUSH1 0x20 MUL ADD CALLDATALOAD PUSH1 0x0 EQ JUMPDEST PUSH2 0x16D1 JUMPI PUSH1 0x40 MLOAD PUSH3 0x461BCD PUSH1 0xE5 SHL DUP2 MSTORE PUSH1 0x20 PUSH1 0x4 DUP3 ADD MSTORE PUSH1 0x35 PUSH1 0x24 DUP3 ADD MSTORE PUSH32 0x57616C6C6574536368656D653A2063616E742070726F706F7365204552433230 PUSH1 0x44 DUP3 ADD MSTORE PUSH21 0x207472616E736665727320776974682076616C7565 PUSH1 0x58 SHL PUSH1 0x64 DUP3 ADD MSTORE PUSH1 0x84 ADD PUSH2 0x2E5 JUMP JUMPDEST POP DUP1 PUSH2 0x16DC DUP2 PUSH2 0x3808 JUMP JUMPDEST SWAP2 POP POP PUSH2 0x13B5 JUMP JUMPDEST POP DUP10 DUP9 EQ PUSH2 0x1743 JUMPI PUSH1 0x40 MLOAD PUSH3 0x461BCD PUSH1 0xE5 SHL DUP2 MSTORE PUSH1 0x20 PUSH1 0x4 DUP3 ADD MSTORE PUSH1 0x26 PUSH1 0x24 DUP3 ADD MSTORE PUSH32 0x57616C6C6574536368656D653A20696E76616C6964205F63616C6C4461746120 PUSH1 0x44 DUP3 ADD MSTORE PUSH6 0xD8CADCCEE8D PUSH1 0xD3 SHL PUSH1 0x64 DUP3 ADD MSTORE PUSH1 0x84 ADD PUSH2 0x2E5 JUMP JUMPDEST DUP10 DUP7 EQ PUSH2 0x179E JUMPI PUSH1 0x40 MLOAD PUSH3 0x461BCD PUSH1 0xE5 SHL DUP2 MSTORE PUSH1 0x20 PUSH1 0x4 DUP3 ADD MSTORE PUSH1 0x23 PUSH1 0x24 DUP3 ADD MSTORE PUSH32 0x57616C6C6574536368656D653A20696E76616C6964205F76616C7565206C656E PUSH1 0x44 DUP3 ADD MSTORE PUSH3 0xCEE8D PUSH1 0xEB SHL PUSH1 0x64 DUP3 ADD MSTORE PUSH1 0x84 ADD PUSH2 0x2E5 JUMP JUMPDEST PUSH1 0xA SLOAD PUSH1 0x40 MLOAD ADDRESS PUSH1 0x24 DUP3 ADD MSTORE PUSH1 0x1 PUSH1 0x1 PUSH1 0xA0 SHL SUB SWAP1 SWAP2 AND PUSH1 0x44 DUP3 ADD MSTORE PUSH1 0x0 SWAP1 PUSH2 0x181D SWAP1 PUSH1 0x64 ADD PUSH1 0x40 DUP1 MLOAD PUSH1 0x1F NOT DUP2 DUP5 SUB ADD DUP2 MSTORE SWAP2 DUP2 MSTORE PUSH1 0x20 DUP1 DUP4 ADD DUP1 MLOAD PUSH1 0x1 PUSH1 0x1 PUSH1 0xE0 SHL SUB AND PUSH4 0x389AAC1 PUSH1 0xE3 SHL OR SWAP1 MSTORE DUP2 MLOAD PUSH1 0x60 DUP2 ADD SWAP1 SWAP3 MSTORE PUSH1 0x27 DUP1 DUP4 MSTORE SWAP1 PUSH2 0x3D8C SWAP1 DUP4 ADD CODECOPY PUSH1 0x3 SLOAD PUSH2 0x100 SWAP1 DIV PUSH1 0x1 PUSH1 0x1 PUSH1 0xA0 SHL SUB AND SWAP2 SWAP1 PUSH2 0x2B23 JUMP JUMPDEST DUP1 PUSH1 0x20 ADD SWAP1 MLOAD DUP2 ADD SWAP1 PUSH2 0x1830 SWAP2 SWAP1 PUSH2 0x377C JUMP JUMPDEST PUSH1 0xA SLOAD PUSH1 0x40 MLOAD PUSH1 0x2 PUSH1 0x24 DUP3 ADD MSTORE PUSH1 0x44 DUP2 ADD DUP4 SWAP1 MSTORE CALLER PUSH1 0x64 DUP3 ADD MSTORE PUSH1 0x1 PUSH1 0x1 PUSH1 0xA0 SHL SUB SWAP1 SWAP2 AND PUSH1 0x84 DUP3 ADD MSTORE SWAP1 SWAP2 POP PUSH1 0x0 SWAP1 PUSH2 0x18BB SWAP1 PUSH1 0xA4 ADD PUSH1 0x40 DUP1 MLOAD PUSH1 0x1F NOT DUP2 DUP5 SUB ADD DUP2 MSTORE SWAP2 DUP2 MSTORE PUSH1 0x20 DUP1 DUP4 ADD DUP1 MLOAD PUSH1 0x1 PUSH1 0x1 PUSH1 0xE0 SHL SUB AND PUSH4 0x4439BDAF PUSH1 0xE1 SHL OR SWAP1 MSTORE DUP2 MLOAD PUSH1 0x60 DUP2 ADD SWAP1 SWAP3 MSTORE PUSH1 0x35 DUP1 DUP4 MSTORE SWAP1 PUSH2 0x3D57 SWAP1 DUP4 ADD CODECOPY PUSH1 0x9 SLOAD PUSH1 0x1 PUSH1 0x1 PUSH1 0xA0 SHL SUB AND SWAP2 SWAP1 PUSH2 0x2B9B JUMP JUMPDEST DUP1 PUSH1 0x20 ADD SWAP1 MLOAD DUP2 ADD SWAP1 PUSH2 0x18CE SWAP2 SWAP1 PUSH2 0x377C JUMP JUMPDEST SWAP1 POP PUSH1 0x40 MLOAD DUP1 PUSH1 0xE0 ADD PUSH1 0x40 MSTORE DUP1 DUP15 DUP15 DUP1 DUP1 PUSH1 0x20 MUL PUSH1 0x20 ADD PUSH1 0x40 MLOAD SWAP1 DUP2 ADD PUSH1 0x40 MSTORE DUP1 SWAP4 SWAP3 SWAP2 SWAP1 DUP2 DUP2 MSTORE PUSH1 0x20 ADD DUP4 DUP4 PUSH1 0x20 MUL DUP1 DUP3 DUP5 CALLDATACOPY PUSH1 0x0 SWAP3 ADD SWAP2 SWAP1 SWAP2 MSTORE POP POP POP SWAP1 DUP3 MSTORE POP PUSH1 0x20 ADD PUSH2 0x191E DUP13 DUP15 PUSH2 0x3892 JUMP JUMPDEST DUP2 MSTORE PUSH1 0x20 ADD DUP11 DUP11 DUP1 DUP1 PUSH1 0x20 MUL PUSH1 0x20 ADD PUSH1 0x40 MLOAD SWAP1 DUP2 ADD PUSH1 0x40 MSTORE DUP1 SWAP4 SWAP3 SWAP2 SWAP1 DUP2 DUP2 MSTORE PUSH1 0x20 ADD DUP4 DUP4 PUSH1 0x20 MUL DUP1 DUP3 DUP5 CALLDATACOPY PUSH1 0x0 SWAP3 ADD SWAP2 SWAP1 SWAP2 MSTORE POP POP POP SWAP1 DUP3 MSTORE POP PUSH1 0x20 ADD PUSH1 0x1 DUP2 MSTORE PUSH1 0x20 ADD DUP9 DUP9 DUP1 DUP1 PUSH1 0x1F ADD PUSH1 0x20 DUP1 SWAP2 DIV MUL PUSH1 0x20 ADD PUSH1 0x40 MLOAD SWAP1 DUP2 ADD PUSH1 0x40 MSTORE DUP1 SWAP4 SWAP3 SWAP2 SWAP1 DUP2 DUP2 MSTORE PUSH1 0x20 ADD DUP4 DUP4 DUP1 DUP3 DUP5 CALLDATACOPY PUSH1 0x0 SWAP3 ADD SWAP2 SWAP1 SWAP2 MSTORE POP POP POP SWAP1 DUP3 MSTORE POP PUSH1 0x40 DUP1 MLOAD PUSH1 0x20 PUSH1 0x1F DUP10 ADD DUP2 SWAP1 DIV DUP2 MUL DUP3 ADD DUP2 ADD SWAP1 SWAP3 MSTORE DUP8 DUP2 MSTORE SWAP2 DUP2 ADD SWAP2 SWAP1 DUP9 SWAP1 DUP9 SWAP1 DUP2 SWAP1 DUP5 ADD DUP4 DUP3 DUP1 DUP3 DUP5 CALLDATACOPY PUSH1 0x0 SWAP3 ADD DUP3 SWAP1 MSTORE POP SWAP4 DUP6 MSTORE POP POP TIMESTAMP PUSH1 0x20 SWAP4 DUP5 ADD MSTORE POP DUP4 DUP2 MSTORE PUSH1 0x1 DUP3 MSTORE PUSH1 0x40 SWAP1 KECCAK256 DUP3 MLOAD DUP1 MLOAD SWAP2 SWAP3 PUSH2 0x19FD SWAP3 DUP5 SWAP3 SWAP1 SWAP2 ADD SWAP1 PUSH2 0x2E29 JUMP JUMPDEST POP PUSH1 0x20 DUP3 DUP2 ADD MLOAD DUP1 MLOAD PUSH2 0x1A16 SWAP3 PUSH1 0x1 DUP6 ADD SWAP3 ADD SWAP1 PUSH2 0x2E7E JUMP JUMPDEST POP PUSH1 0x40 DUP3 ADD MLOAD DUP1 MLOAD PUSH2 0x1A32 SWAP2 PUSH1 0x2 DUP5 ADD SWAP2 PUSH1 0x20 SWAP1 SWAP2 ADD SWAP1 PUSH2 0x2ED7 JUMP JUMPDEST POP PUSH1 0x60 DUP3 ADD MLOAD PUSH1 0x3 DUP3 ADD DUP1 SLOAD PUSH1 0xFF NOT AND PUSH1 0x1 DUP4 PUSH1 0x4 DUP2 GT ISZERO PUSH2 0x1A56 JUMPI PUSH2 0x1A56 PUSH2 0x31C1 JUMP JUMPDEST MUL OR SWAP1 SSTORE POP PUSH1 0x80 DUP3 ADD MLOAD DUP1 MLOAD PUSH2 0x1A76 SWAP2 PUSH1 0x4 DUP5 ADD SWAP2 PUSH1 0x20 SWAP1 SWAP2 ADD SWAP1 PUSH2 0x2F12 JUMP JUMPDEST POP PUSH1 0xA0 DUP3 ADD MLOAD DUP1 MLOAD PUSH2 0x1A92 SWAP2 PUSH1 0x5 DUP5 ADD SWAP2 PUSH1 0x20 SWAP1 SWAP2 ADD SWAP1 PUSH2 0x2F12 JUMP JUMPDEST POP PUSH1 0xC0 SWAP2 SWAP1 SWAP2 ADD MLOAD PUSH1 0x6 SWAP1 SWAP2 ADD SSTORE PUSH1 0x2 DUP1 SLOAD PUSH1 0x1 DUP1 DUP3 ADD SWAP1 SWAP3 SSTORE PUSH32 0x405787FA12A823E0F2B7631CC41B3BA8828B3321CA811111FA75CD3AA3BB5ACE ADD DUP3 SWAP1 SSTORE PUSH1 0x0 DUP3 DUP2 MSTORE PUSH1 0xB PUSH1 0x20 MSTORE PUSH1 0x40 DUP1 DUP3 KECCAK256 NUMBER SWAP1 SSTORE MLOAD DUP4 SWAP2 PUSH1 0x0 DUP1 MLOAD PUSH1 0x20 PUSH2 0x3CFB DUP4 CODECOPY DUP2 MLOAD SWAP2 MSTORE SWAP2 LOG3 SWAP13 SWAP12 POP POP POP POP POP POP POP POP POP POP POP POP JUMP JUMPDEST PUSH1 0x0 DUP2 DUP2 MSTORE PUSH1 0xB PUSH1 0x20 MSTORE PUSH1 0x40 DUP1 DUP3 KECCAK256 SLOAD SWAP1 MLOAD PUSH1 0x1 PUSH1 0x1 PUSH1 0xA0 SHL SUB DUP6 AND PUSH1 0x24 DUP3 ADD MSTORE PUSH1 0x44 DUP2 ADD SWAP2 SWAP1 SWAP2 MSTORE PUSH2 0x1B90 SWAP1 PUSH1 0x64 ADD PUSH1 0x40 DUP1 MLOAD PUSH1 0x1F NOT DUP2 DUP5 SUB ADD DUP2 MSTORE SWAP2 DUP2 MSTORE PUSH1 0x20 DUP1 DUP4 ADD DUP1 MLOAD PUSH1 0x1 PUSH1 0x1 PUSH1 0xE0 SHL SUB AND PUSH4 0x277166BF PUSH1 0xE1 SHL OR SWAP1 MSTORE DUP2 MLOAD PUSH1 0x60 DUP2 ADD SWAP1 SWAP3 MSTORE PUSH1 0x39 DUP1 DUP4 MSTORE SWAP1 PUSH2 0x3C74 SWAP1 DUP4 ADD CODECOPY PUSH2 0x1B80 PUSH2 0x9F2 JUMP JUMPDEST PUSH1 0x1 PUSH1 0x1 PUSH1 0xA0 SHL SUB AND SWAP2 SWAP1 PUSH2 0x2B23 JUMP JUMPDEST DUP1 PUSH1 0x20 ADD SWAP1 MLOAD DUP2 ADD SWAP1 PUSH2 0x1396 SWAP2 SWAP1 PUSH2 0x377C JUMP JUMPDEST PUSH1 0x9 SLOAD PUSH1 0x0 SWAP1 PUSH1 0x1 PUSH1 0x1 PUSH1 0xA0 SHL SUB AND CALLER EQ PUSH2 0x1BD0 JUMPI PUSH1 0x40 MLOAD PUSH3 0x461BCD PUSH1 0xE5 SHL DUP2 MSTORE PUSH1 0x4 ADD PUSH2 0x2E5 SWAP1 PUSH2 0x3957 JUMP JUMPDEST PUSH1 0xA SLOAD PUSH1 0x1 PUSH1 0xA0 SHL SWAP1 DIV PUSH1 0xFF AND ISZERO PUSH2 0x1C43 JUMPI PUSH1 0x40 MLOAD PUSH3 0x461BCD PUSH1 0xE5 SHL DUP2 MSTORE PUSH1 0x20 PUSH1 0x4 DUP3 ADD MSTORE PUSH1 0x30 PUSH1 0x24 DUP3 ADD MSTORE PUSH32 0x57616C6C6574536368656D653A2070726F706F73616C20657865637574696F6E PUSH1 0x44 DUP3 ADD MSTORE PUSH16 0x20616C72656164792072756E6E696E67 PUSH1 0x80 SHL PUSH1 0x64 DUP3 ADD MSTORE PUSH1 0x84 ADD PUSH2 0x2E5 JUMP JUMPDEST PUSH1 0xA DUP1 SLOAD PUSH1 0xFF PUSH1 0xA0 SHL NOT AND PUSH1 0x1 PUSH1 0xA0 SHL OR SWAP1 SSTORE PUSH1 0x0 DUP4 DUP2 MSTORE PUSH1 0x1 PUSH1 0x20 DUP2 SWAP1 MSTORE PUSH1 0x40 SWAP1 SWAP2 KECCAK256 SWAP1 PUSH1 0x3 DUP3 ADD SLOAD PUSH1 0xFF AND PUSH1 0x4 DUP2 GT ISZERO PUSH2 0x1C81 JUMPI PUSH2 0x1C81 PUSH2 0x31C1 JUMP JUMPDEST EQ PUSH2 0x1CE1 JUMPI PUSH1 0x40 MLOAD PUSH3 0x461BCD PUSH1 0xE5 SHL DUP2 MSTORE PUSH1 0x20 PUSH1 0x4 DUP3 ADD MSTORE PUSH1 0x2A PUSH1 0x24 DUP3 ADD MSTORE PUSH32 0x57616C6C6574536368656D653A206D7573742062652061207375626D69747465 PUSH1 0x44 DUP3 ADD MSTORE PUSH10 0x19081C1C9BDC1BDCD85B PUSH1 0xB2 SHL PUSH1 0x64 DUP3 ADD MSTORE PUSH1 0x84 ADD PUSH2 0x2E5 JUMP JUMPDEST TIMESTAMP PUSH2 0x1CFB PUSH1 0x7 SLOAD DUP4 PUSH1 0x6 ADD SLOAD PUSH2 0x2BFA SWAP1 SWAP2 SWAP1 PUSH4 0xFFFFFFFF AND JUMP JUMPDEST LT ISZERO PUSH2 0x1D31 JUMPI PUSH1 0x3 DUP2 ADD DUP1 SLOAD PUSH1 0xFF NOT AND PUSH1 0x4 SWAP1 DUP2 OR SWAP1 SWAP2 SSTORE PUSH1 0x40 MLOAD DUP6 SWAP1 PUSH1 0x0 DUP1 MLOAD PUSH1 0x20 PUSH2 0x3CFB DUP4 CODECOPY DUP2 MLOAD SWAP2 MSTORE SWAP1 PUSH1 0x0 SWAP1 LOG3 PUSH2 0x25A1 JUMP JUMPDEST DUP3 PUSH1 0x1 EQ ISZERO PUSH2 0x2575 JUMPI PUSH1 0x0 PUSH2 0x1D44 PUSH2 0x2850 JUMP JUMPDEST DUP3 SLOAD SWAP1 SWAP2 POP PUSH1 0x0 SWAP1 PUSH8 0xFFFFFFFFFFFFFFFF DUP2 GT ISZERO PUSH2 0x1D64 JUMPI PUSH2 0x1D64 PUSH2 0x3823 JUMP JUMPDEST PUSH1 0x40 MLOAD SWAP1 DUP1 DUP3 MSTORE DUP1 PUSH1 0x20 MUL PUSH1 0x20 ADD DUP3 ADD PUSH1 0x40 MSTORE DUP1 ISZERO PUSH2 0x1D97 JUMPI DUP2 PUSH1 0x20 ADD JUMPDEST PUSH1 0x60 DUP2 MSTORE PUSH1 0x20 ADD SWAP1 PUSH1 0x1 SWAP1 SUB SWAP1 DUP2 PUSH2 0x1D82 JUMPI SWAP1 POP JUMPDEST POP DUP4 SLOAD SWAP1 SWAP2 POP PUSH1 0x0 SWAP1 PUSH8 0xFFFFFFFFFFFFFFFF DUP2 GT ISZERO PUSH2 0x1DB8 JUMPI PUSH2 0x1DB8 PUSH2 0x3823 JUMP JUMPDEST PUSH1 0x40 MLOAD SWAP1 DUP1 DUP3 MSTORE DUP1 PUSH1 0x20 MUL PUSH1 0x20 ADD DUP3 ADD PUSH1 0x40 MSTORE DUP1 ISZERO PUSH2 0x1DE1 JUMPI DUP2 PUSH1 0x20 ADD PUSH1 0x20 DUP3 MUL DUP1 CALLDATASIZE DUP4 CALLDATACOPY ADD SWAP1 POP JUMPDEST POP SWAP1 POP PUSH1 0x0 DUP1 PUSH1 0x0 DUP1 PUSH1 0x0 JUMPDEST DUP9 SLOAD DUP2 LT ISZERO PUSH2 0x2441 JUMPI PUSH1 0x0 SWAP5 POP ADDRESS PUSH1 0x1 PUSH1 0x1 PUSH1 0xA0 SHL SUB AND PUSH4 0x88AF182 DUP11 PUSH1 0x1 ADD DUP4 DUP2 SLOAD DUP2 LT PUSH2 0x1E1E JUMPI PUSH2 0x1E1E PUSH2 0x3795 JUMP JUMPDEST SWAP1 PUSH1 0x0 MSTORE PUSH1 0x20 PUSH1 0x0 KECCAK256 ADD PUSH1 0x40 MLOAD DUP3 PUSH4 0xFFFFFFFF AND PUSH1 0xE0 SHL DUP2 MSTORE PUSH1 0x4 ADD PUSH2 0x1E44 SWAP2 SWAP1 PUSH2 0x39FA JUMP JUMPDEST PUSH1 0x20 PUSH1 0x40 MLOAD DUP1 DUP4 SUB DUP2 DUP7 DUP1 EXTCODESIZE ISZERO DUP1 ISZERO PUSH2 0x1E5C JUMPI PUSH1 0x0 DUP1 REVERT JUMPDEST POP GAS STATICCALL ISZERO DUP1 ISZERO PUSH2 0x1E70 JUMPI RETURNDATASIZE PUSH1 0x0 DUP1 RETURNDATACOPY RETURNDATASIZE PUSH1 0x0 REVERT JUMPDEST POP POP POP POP PUSH1 0x40 MLOAD RETURNDATASIZE PUSH1 0x1F NOT PUSH1 0x1F DUP3 ADD AND DUP3 ADD DUP1 PUSH1 0x40 MSTORE POP DUP2 ADD SWAP1 PUSH2 0x1E94 SWAP2 SWAP1 PUSH2 0x3A0D JUMP JUMPDEST SWAP3 POP DUP9 PUSH1 0x0 ADD DUP2 DUP2 SLOAD DUP2 LT PUSH2 0x1EAB JUMPI PUSH2 0x1EAB PUSH2 0x3795 JUMP JUMPDEST PUSH1 0x0 SWAP2 DUP3 MSTORE PUSH1 0x20 SWAP1 SWAP2 KECCAK256 ADD SLOAD PUSH1 0x2 DUP11 ADD DUP1 SLOAD PUSH1 0x1 PUSH1 0x1 PUSH1 0xA0 SHL SUB SWAP1 SWAP3 AND SWAP6 POP SWAP1 DUP3 SWAP1 DUP2 LT PUSH2 0x1EDB JUMPI PUSH2 0x1EDB PUSH2 0x3795 JUMP JUMPDEST PUSH1 0x0 SWAP2 DUP3 MSTORE PUSH1 0x20 SWAP1 SWAP2 KECCAK256 ADD SLOAD SWAP2 POP PUSH4 0xA9059CBB PUSH1 0xE0 SHL PUSH1 0x1 PUSH1 0x1 PUSH1 0xE0 SHL SUB NOT DUP5 AND EQ DUP1 PUSH2 0x1F18 JUMPI POP PUSH4 0x95EA7B3 PUSH1 0xE0 SHL PUSH1 0x1 PUSH1 0x1 PUSH1 0xE0 SHL SUB NOT DUP5 AND EQ JUMPDEST ISZERO PUSH2 0x1FE5 JUMPI DUP9 PUSH1 0x0 ADD DUP2 DUP2 SLOAD DUP2 LT PUSH2 0x1F32 JUMPI PUSH2 0x1F32 PUSH2 0x3795 JUMP JUMPDEST PUSH1 0x0 SWAP2 DUP3 MSTORE PUSH1 0x20 SWAP1 SWAP2 KECCAK256 ADD SLOAD PUSH1 0x1 DUP11 ADD DUP1 SLOAD PUSH1 0x1 PUSH1 0x1 PUSH1 0xA0 SHL SUB SWAP1 SWAP3 AND SWAP7 POP ADDRESS SWAP2 PUSH4 0xF5447C0A SWAP2 SWAP1 DUP5 SWAP1 DUP2 LT PUSH2 0x1F6A JUMPI PUSH2 0x1F6A PUSH2 0x3795 JUMP JUMPDEST SWAP1 PUSH1 0x0 MSTORE PUSH1 0x20 PUSH1 0x0 KECCAK256 ADD PUSH1 0x40 MLOAD DUP3 PUSH4 0xFFFFFFFF AND PUSH1 0xE0 SHL DUP2 MSTORE PUSH1 0x4 ADD PUSH2 0x1F90 SWAP2 SWAP1 PUSH2 0x39FA JUMP JUMPDEST PUSH1 0x40 DUP1 MLOAD DUP1 DUP4 SUB DUP2 DUP7 DUP1 EXTCODESIZE ISZERO DUP1 ISZERO PUSH2 0x1FA7 JUMPI PUSH1 0x0 DUP1 REVERT JUMPDEST POP GAS STATICCALL ISZERO DUP1 ISZERO PUSH2 0x1FBB JUMPI RETURNDATASIZE PUSH1 0x0 DUP1 RETURNDATACOPY RETURNDATASIZE PUSH1 0x0 REVERT JUMPDEST POP POP POP POP PUSH1 0x40 MLOAD RETURNDATASIZE PUSH1 0x1F NOT PUSH1 0x1F DUP3 ADD AND DUP3 ADD DUP1 PUSH1 0x40 MSTORE POP DUP2 ADD SWAP1 PUSH2 0x1FDF SWAP2 SWAP1 PUSH2 0x3A37 JUMP JUMPDEST SWAP1 SWAP5 POP SWAP2 POP JUMPDEST PUSH1 0x4 SLOAD PUSH1 0x1 PUSH1 0x1 PUSH1 0xA0 SHL SUB DUP6 DUP2 AND SWAP2 AND EQ PUSH2 0x20A7 JUMPI PUSH1 0x4 SLOAD PUSH1 0x3 SLOAD PUSH1 0x1 PUSH1 0x1 PUSH1 0xA0 SHL SUB SWAP1 SWAP2 AND SWAP1 PUSH4 0x6F09E0B SWAP1 DUP8 SWAP1 PUSH1 0xFF AND PUSH2 0x2021 JUMPI ADDRESS PUSH2 0x202E JUMP JUMPDEST PUSH1 0xA SLOAD PUSH1 0x1 PUSH1 0x1 PUSH1 0xA0 SHL SUB AND JUMPDEST PUSH1 0x40 MLOAD PUSH1 0x1 PUSH1 0x1 PUSH1 0xE0 SHL SUB NOT PUSH1 0xE0 DUP6 SWAP1 SHL DUP2 AND DUP3 MSTORE PUSH1 0x1 PUSH1 0x1 PUSH1 0xA0 SHL SUB SWAP4 DUP5 AND PUSH1 0x4 DUP4 ADD MSTORE SWAP2 DUP4 AND PUSH1 0x24 DUP3 ADD MSTORE SWAP2 DUP9 AND PUSH1 0x44 DUP4 ADD MSTORE DUP7 AND PUSH1 0x64 DUP3 ADD MSTORE PUSH1 0x84 DUP2 ADD DUP6 SWAP1 MSTORE PUSH1 0xA4 ADD PUSH1 0x0 PUSH1 0x40 MLOAD DUP1 DUP4 SUB DUP2 PUSH1 0x0 DUP8 DUP1 EXTCODESIZE ISZERO DUP1 ISZERO PUSH2 0x208E JUMPI PUSH1 0x0 DUP1 REVERT JUMPDEST POP GAS CALL ISZERO DUP1 ISZERO PUSH2 0x20A2 JUMPI RETURNDATASIZE PUSH1 0x0 DUP1 RETURNDATACOPY RETURNDATASIZE PUSH1 0x0 REVERT JUMPDEST POP POP POP POP JUMPDEST PUSH1 0x3 SLOAD PUSH1 0xFF AND DUP1 ISZERO PUSH2 0x20F3 JUMPI POP PUSH1 0x3 SLOAD DUP10 SLOAD PUSH2 0x100 SWAP1 SWAP2 DIV PUSH1 0x1 PUSH1 0x1 PUSH1 0xA0 SHL SUB AND SWAP1 DUP11 SWAP1 DUP4 SWAP1 DUP2 LT PUSH2 0x20DB JUMPI PUSH2 0x20DB PUSH2 0x3795 JUMP JUMPDEST PUSH1 0x0 SWAP2 DUP3 MSTORE PUSH1 0x20 SWAP1 SWAP2 KECCAK256 ADD SLOAD PUSH1 0x1 PUSH1 0x1 PUSH1 0xA0 SHL SUB AND EQ ISZERO JUMPDEST ISZERO PUSH2 0x22C0 JUMPI PUSH1 0x0 DUP10 PUSH1 0x0 ADD DUP3 DUP2 SLOAD DUP2 LT PUSH2 0x210F JUMPI PUSH2 0x210F PUSH2 0x3795 JUMP JUMPDEST PUSH1 0x0 SWAP2 DUP3 MSTORE PUSH1 0x20 SWAP1 SWAP2 KECCAK256 ADD SLOAD PUSH1 0x1 DUP12 ADD DUP1 SLOAD PUSH1 0x1 PUSH1 0x1 PUSH1 0xA0 SHL SUB SWAP1 SWAP3 AND SWAP2 DUP5 SWAP1 DUP2 LT PUSH2 0x213D JUMPI PUSH2 0x213D PUSH2 0x3795 JUMP JUMPDEST SWAP1 PUSH1 0x0 MSTORE PUSH1 0x20 PUSH1 0x0 KECCAK256 ADD PUSH1 0xA PUSH1 0x0 SWAP1 SLOAD SWAP1 PUSH2 0x100 EXP SWAP1 DIV PUSH1 0x1 PUSH1 0x1 PUSH1 0xA0 SHL SUB AND DUP13 PUSH1 0x2 ADD DUP6 DUP2 SLOAD DUP2 LT PUSH2 0x2172 JUMPI PUSH2 0x2172 PUSH2 0x3795 JUMP JUMPDEST SWAP1 PUSH1 0x0 MSTORE PUSH1 0x20 PUSH1 0x0 KECCAK256 ADD SLOAD PUSH1 0x40 MLOAD PUSH1 0x24 ADD PUSH2 0x2190 SWAP5 SWAP4 SWAP3 SWAP2 SWAP1 PUSH2 0x3A65 JUMP JUMPDEST PUSH1 0x40 DUP1 MLOAD PUSH1 0x1F NOT DUP2 DUP5 SUB ADD DUP2 MSTORE SWAP2 DUP2 MSTORE PUSH1 0x20 DUP3 ADD DUP1 MLOAD PUSH1 0x1 PUSH1 0x1 PUSH1 0xE0 SHL SUB AND PUSH4 0x68DB844D PUSH1 0xE1 SHL OR SWAP1 MSTORE PUSH1 0x3 SLOAD SWAP1 MLOAD SWAP2 SWAP3 POP PUSH1 0x1 PUSH1 0x1 PUSH1 0xA0 SHL SUB PUSH2 0x100 SWAP1 SWAP2 DIV AND SWAP1 PUSH1 0x0 SWAP1 PUSH2 0x21E0 SWAP1 DUP5 SWAP1 PUSH2 0x3A99 JUMP JUMPDEST PUSH1 0x0 PUSH1 0x40 MLOAD DUP1 DUP4 SUB DUP2 DUP6 DUP8 GAS CALL SWAP3 POP POP POP RETURNDATASIZE DUP1 PUSH1 0x0 DUP2 EQ PUSH2 0x221D JUMPI PUSH1 0x40 MLOAD SWAP2 POP PUSH1 0x1F NOT PUSH1 0x3F RETURNDATASIZE ADD AND DUP3 ADD PUSH1 0x40 MSTORE RETURNDATASIZE DUP3 MSTORE RETURNDATASIZE PUSH1 0x0 PUSH1 0x20 DUP5 ADD RETURNDATACOPY PUSH2 0x2222 JUMP JUMPDEST PUSH1 0x60 SWAP2 POP JUMPDEST POP DUP9 DUP5 DUP2 MLOAD DUP2 LT PUSH2 0x2235 JUMPI PUSH2 0x2235 PUSH2 0x3795 JUMP JUMPDEST PUSH1 0x20 MUL PUSH1 0x20 ADD ADD DUP11 DUP6 DUP2 MLOAD DUP2 LT PUSH2 0x224E JUMPI PUSH2 0x224E PUSH2 0x3795 JUMP JUMPDEST PUSH1 0x20 MUL PUSH1 0x20 ADD ADD DUP3 SWAP1 MSTORE DUP3 ISZERO ISZERO ISZERO ISZERO DUP2 MSTORE POP POP POP PUSH1 0x0 DUP9 DUP4 DUP2 MLOAD DUP2 LT PUSH2 0x2276 JUMPI PUSH2 0x2276 PUSH2 0x3795 JUMP JUMPDEST PUSH1 0x20 MUL PUSH1 0x20 ADD ADD MLOAD DUP1 PUSH1 0x20 ADD SWAP1 MLOAD DUP2 ADD SWAP1 PUSH2 0x2291 SWAP2 SWAP1 PUSH2 0x3AB5 JUMP JUMPDEST POP SWAP1 POP DUP1 DUP9 DUP5 DUP2 MLOAD DUP2 LT PUSH2 0x22A7 JUMPI PUSH2 0x22A7 PUSH2 0x3795 JUMP JUMPDEST PUSH1 0x20 MUL PUSH1 0x20 ADD ADD SWAP1 ISZERO ISZERO SWAP1 DUP2 ISZERO ISZERO DUP2 MSTORE POP POP POP POP PUSH2 0x23BD JUMP JUMPDEST DUP9 PUSH1 0x0 ADD DUP2 DUP2 SLOAD DUP2 LT PUSH2 0x22D5 JUMPI PUSH2 0x22D5 PUSH2 0x3795 JUMP JUMPDEST PUSH1 0x0 SWAP2 DUP3 MSTORE PUSH1 0x20 SWAP1 SWAP2 KECCAK256 ADD SLOAD PUSH1 0x2 DUP11 ADD DUP1 SLOAD PUSH1 0x1 PUSH1 0x1 PUSH1 0xA0 SHL SUB SWAP1 SWAP3 AND SWAP2 DUP4 SWAP1 DUP2 LT PUSH2 0x2303 JUMPI PUSH2 0x2303 PUSH2 0x3795 JUMP JUMPDEST SWAP1 PUSH1 0x0 MSTORE PUSH1 0x20 PUSH1 0x0 KECCAK256 ADD SLOAD DUP11 PUSH1 0x1 ADD DUP4 DUP2 SLOAD DUP2 LT PUSH2 0x2323 JUMPI PUSH2 0x2323 PUSH2 0x3795 JUMP JUMPDEST SWAP1 PUSH1 0x0 MSTORE PUSH1 0x20 PUSH1 0x0 KECCAK256 ADD PUSH1 0x40 MLOAD PUSH2 0x233A SWAP2 SWAP1 PUSH2 0x3B42 JUMP JUMPDEST PUSH1 0x0 PUSH1 0x40 MLOAD DUP1 DUP4 SUB DUP2 DUP6 DUP8 GAS CALL SWAP3 POP POP POP RETURNDATASIZE DUP1 PUSH1 0x0 DUP2 EQ PUSH2 0x2377 JUMPI PUSH1 0x40 MLOAD SWAP2 POP PUSH1 0x1F NOT PUSH1 0x3F RETURNDATASIZE ADD AND DUP3 ADD PUSH1 0x40 MSTORE RETURNDATASIZE DUP3 MSTORE RETURNDATASIZE PUSH1 0x0 PUSH1 0x20 DUP5 ADD RETURNDATACOPY PUSH2 0x237C JUMP JUMPDEST PUSH1 0x60 SWAP2 POP JUMPDEST POP DUP8 DUP4 DUP2 MLOAD DUP2 LT PUSH2 0x238F JUMPI PUSH2 0x238F PUSH2 0x3795 JUMP JUMPDEST PUSH1 0x20 MUL PUSH1 0x20 ADD ADD DUP10 DUP5 DUP2 MLOAD DUP2 LT PUSH2 0x23A8 JUMPI PUSH2 0x23A8 PUSH2 0x3795 JUMP JUMPDEST PUSH1 0x20 MUL PUSH1 0x20 ADD ADD DUP3 SWAP1 MSTORE DUP3 ISZERO ISZERO ISZERO ISZERO DUP2 MSTORE POP POP POP JUMPDEST DUP6 DUP2 DUP2 MLOAD DUP2 LT PUSH2 0x23CF JUMPI PUSH2 0x23CF PUSH2 0x3795 JUMP JUMPDEST PUSH1 0x20 MUL PUSH1 0x20 ADD ADD MLOAD PUSH2 0x242F JUMPI PUSH1 0x40 MLOAD PUSH3 0x461BCD PUSH1 0xE5 SHL DUP2 MSTORE PUSH1 0x20 PUSH1 0x4 DUP3 ADD MSTORE PUSH1 0x23 PUSH1 0x24 DUP3 ADD MSTORE PUSH32 0x57616C6C6574536368656D653A2063616C6C20657865637574696F6E20666169 PUSH1 0x44 DUP3 ADD MSTORE PUSH3 0x1B1959 PUSH1 0xEA SHL PUSH1 0x64 DUP3 ADD MSTORE PUSH1 0x84 ADD PUSH2 0x2E5 JUMP JUMPDEST DUP1 PUSH2 0x2439 DUP2 PUSH2 0x3808 JUMP JUMPDEST SWAP2 POP POP PUSH2 0x1DED JUMP JUMPDEST POP PUSH2 0x244A PUSH2 0x2850 JUMP JUMPDEST PUSH2 0x2475 PUSH1 0x64 PUSH2 0x246F PUSH2 0x2468 PUSH1 0x8 SLOAD PUSH1 0x64 PUSH2 0x2BFA SWAP1 SWAP2 SWAP1 PUSH4 0xFFFFFFFF AND JUMP JUMPDEST DUP12 SWAP1 PUSH2 0x2C06 JUMP JUMPDEST SWAP1 PUSH2 0x2C12 JUMP JUMPDEST LT ISZERO DUP1 ISZERO PUSH2 0x24A7 JUMPI POP PUSH2 0x2486 PUSH2 0x2850 JUMP JUMPDEST PUSH2 0x24A4 PUSH1 0x64 PUSH2 0x246F PUSH2 0x2468 PUSH1 0x8 SLOAD PUSH1 0x64 PUSH2 0x2C1E SWAP1 SWAP2 SWAP1 PUSH4 0xFFFFFFFF AND JUMP JUMPDEST GT ISZERO JUMPDEST PUSH2 0x2507 JUMPI PUSH1 0x40 MLOAD PUSH3 0x461BCD PUSH1 0xE5 SHL DUP2 MSTORE PUSH1 0x20 PUSH1 0x4 DUP3 ADD MSTORE PUSH1 0x2B PUSH1 0x24 DUP3 ADD MSTORE PUSH32 0x57616C6C6574536368656D653A206D617852657050657263656E746167654368 PUSH1 0x44 DUP3 ADD MSTORE PUSH11 0x185B99D9481C185CDCD959 PUSH1 0xAA SHL PUSH1 0x64 DUP3 ADD MSTORE PUSH1 0x84 ADD PUSH2 0x2E5 JUMP JUMPDEST PUSH1 0x3 DUP9 DUP2 ADD DUP1 SLOAD PUSH1 0xFF NOT AND DUP3 OR SWAP1 SSTORE PUSH1 0x40 MLOAD DUP13 SWAP1 PUSH1 0x0 DUP1 MLOAD PUSH1 0x20 PUSH2 0x3CFB DUP4 CODECOPY DUP2 MLOAD SWAP2 MSTORE SWAP1 PUSH1 0x0 SWAP1 LOG3 DUP11 PUSH32 0x994D6E6491320BB0D97B7F84ACA77E9E13FF409F1911682DDD406B5323191DCD DUP7 DUP9 PUSH1 0x40 MLOAD PUSH2 0x2561 SWAP3 SWAP2 SWAP1 PUSH2 0x3BB4 JUMP JUMPDEST PUSH1 0x40 MLOAD DUP1 SWAP2 SUB SWAP1 LOG2 POP POP POP POP POP POP POP PUSH2 0x25A1 JUMP JUMPDEST PUSH1 0x3 DUP2 ADD DUP1 SLOAD PUSH1 0xFF NOT AND PUSH1 0x2 SWAP1 DUP2 OR SWAP1 SWAP2 SSTORE PUSH1 0x40 MLOAD DUP6 SWAP1 PUSH1 0x0 DUP1 MLOAD PUSH1 0x20 PUSH2 0x3CFB DUP4 CODECOPY DUP2 MLOAD SWAP2 MSTORE SWAP1 PUSH1 0x0 SWAP1 LOG3 JUMPDEST POP POP PUSH1 0xA DUP1 SLOAD PUSH1 0xFF PUSH1 0xA0 SHL NOT AND SWAP1 SSTORE PUSH1 0x1 SWAP3 SWAP2 POP POP JUMP JUMPDEST PUSH1 0x0 DUP2 DUP2 MSTORE PUSH1 0xB PUSH1 0x20 MSTORE PUSH1 0x40 DUP1 DUP3 KECCAK256 SLOAD SWAP1 MLOAD PUSH2 0x2627 SWAP2 PUSH2 0x25DE SWAP2 PUSH1 0x24 ADD SWAP1 DUP2 MSTORE PUSH1 0x20 ADD SWAP1 JUMP JUMPDEST PUSH1 0x40 DUP1 MLOAD PUSH1 0x1F NOT DUP2 DUP5 SUB ADD DUP2 MSTORE SWAP2 DUP2 MSTORE PUSH1 0x20 DUP1 DUP4 ADD DUP1 MLOAD PUSH1 0x1 PUSH1 0x1 PUSH1 0xE0 SHL SUB AND PUSH4 0x981B24D PUSH1 0xE4 SHL OR SWAP1 MSTORE DUP2 MLOAD PUSH1 0x60 DUP2 ADD SWAP1 SWAP3 MSTORE PUSH1 0x3B DUP1 DUP4 MSTORE SWAP1 PUSH2 0x3EB9 SWAP1 DUP4 ADD CODECOPY PUSH2 0x1B80 PUSH2 0x9F2 JUMP JUMPDEST DUP1 PUSH1 0x20 ADD SWAP1 MLOAD DUP2 ADD SWAP1 PUSH2 0x9EC SWAP2 SWAP1 PUSH2 0x377C JUMP JUMPDEST PUSH1 0x9 SLOAD PUSH1 0x0 SWAP1 PUSH1 0x1 PUSH1 0x1 PUSH1 0xA0 SHL SUB AND CALLER EQ PUSH2 0x2667 JUMPI PUSH1 0x40 MLOAD PUSH3 0x461BCD PUSH1 0xE5 SHL DUP2 MSTORE PUSH1 0x4 ADD PUSH2 0x2E5 SWAP1 PUSH2 0x3957 JUMP JUMPDEST PUSH1 0xA SLOAD PUSH1 0x40 MLOAD PUSH1 0x1 PUSH1 0x1 PUSH1 0xA0 SHL SUB DUP1 DUP9 AND PUSH1 0x24 DUP4 ADD MSTORE DUP1 DUP8 AND PUSH1 0x44 DUP4 ADD MSTORE PUSH1 0x64 DUP3 ADD DUP7 SWAP1 MSTORE SWAP1 SWAP2 AND PUSH1 0x84 DUP3 ADD MSTORE PUSH2 0x26F4 SWAP1 PUSH1 0xA4 ADD PUSH1 0x40 DUP1 MLOAD PUSH1 0x1F NOT DUP2 DUP5 SUB ADD DUP2 MSTORE SWAP2 DUP2 MSTORE PUSH1 0x20 DUP1 DUP4 ADD DUP1 MLOAD PUSH1 0x1 PUSH1 0x1 PUSH1 0xE0 SHL SUB AND PUSH4 0xB9A04CDD PUSH1 0xE0 SHL OR SWAP1 MSTORE DUP2 MLOAD PUSH1 0x80 DUP2 ADD SWAP1 SWAP3 MSTORE PUSH1 0x43 DUP1 DUP4 MSTORE SWAP1 PUSH2 0x3E01 SWAP1 DUP4 ADD CODECOPY PUSH1 0x3 SLOAD PUSH2 0x100 SWAP1 DIV PUSH1 0x1 PUSH1 0x1 PUSH1 0xA0 SHL SUB AND SWAP2 SWAP1 PUSH2 0x2B9B JUMP JUMPDEST DUP1 PUSH1 0x20 ADD SWAP1 MLOAD DUP2 ADD SWAP1 PUSH2 0x2707 SWAP2 SWAP1 PUSH2 0x36B9 JUMP JUMPDEST SWAP6 SWAP5 POP POP POP POP POP JUMP JUMPDEST PUSH1 0x6 DUP1 SLOAD PUSH2 0x271D SWAP1 PUSH2 0x3741 JUMP JUMPDEST DUP1 PUSH1 0x1F ADD PUSH1 0x20 DUP1 SWAP2 DIV MUL PUSH1 0x20 ADD PUSH1 0x40 MLOAD SWAP1 DUP2 ADD PUSH1 0x40 MSTORE DUP1 SWAP3 SWAP2 SWAP1 DUP2 DUP2 MSTORE PUSH1 0x20 ADD DUP3 DUP1 SLOAD PUSH2 0x2749 SWAP1 PUSH2 0x3741 JUMP JUMPDEST DUP1 ISZERO PUSH2 0x2796 JUMPI DUP1 PUSH1 0x1F LT PUSH2 0x276B JUMPI PUSH2 0x100 DUP1 DUP4 SLOAD DIV MUL DUP4 MSTORE SWAP2 PUSH1 0x20 ADD SWAP2 PUSH2 0x2796 JUMP JUMPDEST DUP3 ADD SWAP2 SWAP1 PUSH1 0x0 MSTORE PUSH1 0x20 PUSH1 0x0 KECCAK256 SWAP1 JUMPDEST DUP2 SLOAD DUP2 MSTORE SWAP1 PUSH1 0x1 ADD SWAP1 PUSH1 0x20 ADD DUP1 DUP4 GT PUSH2 0x2779 JUMPI DUP3 SWAP1 SUB PUSH1 0x1F AND DUP3 ADD SWAP2 JUMPDEST POP POP POP POP POP DUP2 JUMP JUMPDEST PUSH1 0x9 SLOAD PUSH1 0x0 SWAP1 PUSH1 0x1 PUSH1 0x1 PUSH1 0xA0 SHL SUB AND CALLER EQ PUSH2 0x27CB JUMPI PUSH1 0x40 MLOAD PUSH3 0x461BCD PUSH1 0xE5 SHL DUP2 MSTORE PUSH1 0x4 ADD PUSH2 0x2E5 SWAP1 PUSH2 0x3957 JUMP JUMPDEST PUSH1 0xA SLOAD PUSH1 0x40 MLOAD PUSH1 0x24 DUP2 ADD DUP7 SWAP1 MSTORE PUSH1 0x1 PUSH1 0x1 PUSH1 0xA0 SHL SUB DUP1 DUP7 AND PUSH1 0x44 DUP4 ADD MSTORE SWAP1 SWAP2 AND PUSH1 0x64 DUP3 ADD MSTORE PUSH2 0xB1A SWAP1 PUSH1 0x84 ADD PUSH1 0x40 DUP1 MLOAD PUSH1 0x1F NOT DUP2 DUP5 SUB ADD DUP2 MSTORE SWAP2 DUP2 MSTORE PUSH1 0x20 DUP1 DUP4 ADD DUP1 MLOAD PUSH1 0x1 PUSH1 0x1 PUSH1 0xE0 SHL SUB AND PUSH4 0x757CCA59 PUSH1 0xE1 SHL OR SWAP1 MSTORE DUP2 MLOAD PUSH1 0x60 DUP2 ADD SWAP1 SWAP3 MSTORE PUSH1 0x3C DUP1 DUP4 MSTORE SWAP1 PUSH2 0x3D1B SWAP1 DUP4 ADD CODECOPY PUSH1 0x3 SLOAD PUSH2 0x100 SWAP1 DIV PUSH1 0x1 PUSH1 0x1 PUSH1 0xA0 SHL SUB AND SWAP2 SWAP1 PUSH2 0x2B9B JUMP JUMPDEST PUSH1 0x40 DUP1 MLOAD PUSH1 0x4 DUP2 MSTORE PUSH1 0x24 DUP2 ADD DUP3 MSTORE PUSH1 0x20 DUP1 DUP3 ADD DUP1 MLOAD PUSH1 0x1 PUSH1 0x1 PUSH1 0xE0 SHL SUB AND PUSH4 0x18160DDD PUSH1 0xE0 SHL OR SWAP1 MSTORE DUP3 MLOAD PUSH1 0x60 DUP2 ADD SWAP1 SWAP4 MSTORE PUSH1 0x39 DUP1 DUP5 MSTORE PUSH1 0x0 SWAP4 PUSH2 0x28A1 SWAP4 SWAP3 SWAP1 SWAP2 SWAP1 PUSH2 0x3E44 SWAP1 DUP4 ADD CODECOPY PUSH2 0x1B80 PUSH2 0x9F2 JUMP JUMPDEST DUP1 PUSH1 0x20 ADD SWAP1 MLOAD DUP2 ADD SWAP1 PUSH2 0xA61 SWAP2 SWAP1 PUSH2 0x377C JUMP JUMPDEST PUSH1 0x60 PUSH1 0x2 DUP1 SLOAD DUP1 PUSH1 0x20 MUL PUSH1 0x20 ADD PUSH1 0x40 MLOAD SWAP1 DUP2 ADD PUSH1 0x40 MSTORE DUP1 SWAP3 SWAP2 SWAP1 DUP2 DUP2 MSTORE PUSH1 0x20 ADD DUP3 DUP1 SLOAD DUP1 ISZERO PUSH2 0x2902 JUMPI PUSH1 0x20 MUL DUP3 ADD SWAP2 SWAP1 PUSH1 0x0 MSTORE PUSH1 0x20 PUSH1 0x0 KECCAK256 SWAP1 JUMPDEST DUP2 SLOAD DUP2 MSTORE PUSH1 0x20 ADD SWAP1 PUSH1 0x1 ADD SWAP1 DUP1 DUP4 GT PUSH2 0x28EE JUMPI JUMPDEST POP POP POP POP POP SWAP1 POP SWAP1 JUMP JUMPDEST PUSH1 0x60 DUP1 PUSH1 0x60 PUSH1 0x0 PUSH1 0x60 DUP1 PUSH1 0x0 PUSH2 0x293E PUSH1 0x2 DUP10 DUP2 SLOAD DUP2 LT PUSH2 0x292E JUMPI PUSH2 0x292E PUSH2 0x3795 JUMP JUMPDEST SWAP1 PUSH1 0x0 MSTORE PUSH1 0x20 PUSH1 0x0 KECCAK256 ADD SLOAD PUSH2 0xEB9 JUMP JUMPDEST SWAP6 SWAP15 SWAP5 SWAP14 POP SWAP3 SWAP12 POP SWAP1 SWAP10 POP SWAP8 POP SWAP6 POP SWAP1 SWAP4 POP SWAP2 POP POP JUMP JUMPDEST PUSH1 0x2 DUP2 DUP2 SLOAD DUP2 LT PUSH2 0x2965 JUMPI PUSH1 0x0 DUP1 REVERT JUMPDEST PUSH1 0x0 SWAP2 DUP3 MSTORE PUSH1 0x20 SWAP1 SWAP2 KECCAK256 ADD SLOAD SWAP1 POP DUP2 JUMP JUMPDEST PUSH2 0x297E PUSH2 0x2AC9 JUMP JUMPDEST PUSH1 0x1 PUSH1 0x1 PUSH1 0xA0 SHL SUB DUP2 AND PUSH2 0x29E3 JUMPI PUSH1 0x40 MLOAD PUSH3 0x461BCD PUSH1 0xE5 SHL DUP2 MSTORE PUSH1 0x20 PUSH1 0x4 DUP3 ADD MSTORE PUSH1 0x26 PUSH1 0x24 DUP3 ADD MSTORE PUSH32 0x4F776E61626C653A206E6577206F776E657220697320746865207A65726F2061 PUSH1 0x44 DUP3 ADD MSTORE PUSH6 0x646472657373 PUSH1 0xD0 SHL PUSH1 0x64 DUP3 ADD MSTORE PUSH1 0x84 ADD PUSH2 0x2E5 JUMP JUMPDEST PUSH2 0x29EC DUP2 PUSH2 0x2BAA JUMP JUMPDEST POP JUMP JUMPDEST PUSH1 0x0 DUP1 PUSH2 0x29FF DUP4 PUSH1 0x4 DUP2 DUP8 PUSH2 0x3600 JUMP JUMPDEST DUP2 ADD SWAP1 PUSH2 0x2A0C SWAP2 SWAP1 PUSH2 0x33F2 JUMP JUMPDEST SWAP1 SWAP6 SWAP1 SWAP5 POP SWAP3 POP POP POP JUMP JUMPDEST PUSH1 0x9 SLOAD PUSH1 0x0 SWAP1 PUSH1 0x1 PUSH1 0x1 PUSH1 0xA0 SHL SUB AND CALLER EQ PUSH2 0x2A44 JUMPI PUSH1 0x40 MLOAD PUSH3 0x461BCD PUSH1 0xE5 SHL DUP2 MSTORE PUSH1 0x4 ADD PUSH2 0x2E5 SWAP1 PUSH2 0x3957 JUMP JUMPDEST PUSH1 0xA SLOAD PUSH1 0x40 MLOAD PUSH1 0x24 DUP2 ADD DUP7 SWAP1 MSTORE PUSH1 0x1 PUSH1 0x1 PUSH1 0xA0 SHL SUB DUP1 DUP7 AND PUSH1 0x44 DUP4 ADD MSTORE SWAP1 SWAP2 AND PUSH1 0x64 DUP3 ADD MSTORE PUSH2 0xB1A SWAP1 PUSH1 0x84 ADD PUSH1 0x40 DUP1 MLOAD PUSH1 0x1F NOT DUP2 DUP5 SUB ADD DUP2 MSTORE SWAP2 DUP2 MSTORE PUSH1 0x20 DUP1 DUP4 ADD DUP1 MLOAD PUSH1 0x1 PUSH1 0x1 PUSH1 0xE0 SHL SUB AND PUSH4 0xDD29A4F PUSH1 0xE3 SHL OR SWAP1 MSTORE DUP2 MLOAD PUSH1 0x60 DUP2 ADD SWAP1 SWAP3 MSTORE PUSH1 0x3C DUP1 DUP4 MSTORE SWAP1 PUSH2 0x3E7D SWAP1 DUP4 ADD CODECOPY PUSH1 0x3 SLOAD PUSH2 0x100 SWAP1 DIV PUSH1 0x1 PUSH1 0x1 PUSH1 0xA0 SHL SUB AND SWAP2 SWAP1 PUSH2 0x2B9B JUMP JUMPDEST PUSH1 0x0 SLOAD PUSH1 0x1 PUSH1 0x1 PUSH1 0xA0 SHL SUB AND CALLER EQ PUSH2 0x13AF JUMPI PUSH1 0x40 MLOAD PUSH3 0x461BCD PUSH1 0xE5 SHL DUP2 MSTORE PUSH1 0x20 PUSH1 0x4 DUP3 ADD DUP2 SWAP1 MSTORE PUSH1 0x24 DUP3 ADD MSTORE PUSH32 0x4F776E61626C653A2063616C6C6572206973206E6F7420746865206F776E6572 PUSH1 0x44 DUP3 ADD MSTORE PUSH1 0x64 ADD PUSH2 0x2E5 JUMP JUMPDEST PUSH1 0x60 PUSH1 0x0 DUP1 DUP6 PUSH1 0x1 PUSH1 0x1 PUSH1 0xA0 SHL SUB AND DUP6 PUSH1 0x40 MLOAD PUSH2 0x2B40 SWAP2 SWAP1 PUSH2 0x3A99 JUMP JUMPDEST PUSH1 0x0 PUSH1 0x40 MLOAD DUP1 DUP4 SUB DUP2 DUP6 GAS STATICCALL SWAP2 POP POP RETURNDATASIZE DUP1 PUSH1 0x0 DUP2 EQ PUSH2 0x2B7B JUMPI PUSH1 0x40 MLOAD SWAP2 POP PUSH1 0x1F NOT PUSH1 0x3F RETURNDATASIZE ADD AND DUP3 ADD PUSH1 0x40 MSTORE RETURNDATASIZE DUP3 MSTORE RETURNDATASIZE PUSH1 0x0 PUSH1 0x20 DUP5 ADD RETURNDATACOPY PUSH2 0x2B80 JUMP JUMPDEST PUSH1 0x60 SWAP2 POP JUMPDEST POP SWAP2 POP SWAP2 POP PUSH2 0x2B91 DUP7 DUP4 DUP4 DUP8 PUSH2 0x2C2A JUMP JUMPDEST SWAP7 SWAP6 POP POP POP POP POP POP JUMP JUMPDEST PUSH1 0x60 PUSH2 0xB2D DUP5 DUP5 PUSH1 0x0 DUP6 PUSH2 0x2CA0 JUMP JUMPDEST PUSH1 0x0 DUP1 SLOAD PUSH1 0x1 PUSH1 0x1 PUSH1 0xA0 SHL SUB DUP4 DUP2 AND PUSH1 0x1 PUSH1 0x1 PUSH1 0xA0 SHL SUB NOT DUP4 AND DUP2 OR DUP5 SSTORE PUSH1 0x40 MLOAD SWAP2 SWAP1 SWAP3 AND SWAP3 DUP4 SWAP2 PUSH32 0x8BE0079C531659141344CD1FD0A4F28419497F9722A3DAAFE3B4186F6B6457E0 SWAP2 SWAP1 LOG3 POP POP JUMP JUMPDEST PUSH1 0x0 PUSH2 0x1396 DUP3 DUP5 PUSH2 0x3C03 JUMP JUMPDEST PUSH1 0x0 PUSH2 0x1396 DUP3 DUP5 PUSH2 0x3C1B JUMP JUMPDEST PUSH1 0x0 PUSH2 0x1396 DUP3 DUP5 PUSH2 0x3C3A JUMP JUMPDEST PUSH1 0x0 PUSH2 0x1396 DUP3 DUP5 PUSH2 0x3C5C JUMP JUMPDEST PUSH1 0x60 DUP4 ISZERO PUSH2 0x2C96 JUMPI DUP3 MLOAD PUSH2 0x2C8F JUMPI PUSH1 0x1 PUSH1 0x1 PUSH1 0xA0 SHL SUB DUP6 AND EXTCODESIZE PUSH2 0x2C8F JUMPI PUSH1 0x40 MLOAD PUSH3 0x461BCD PUSH1 0xE5 SHL DUP2 MSTORE PUSH1 0x20 PUSH1 0x4 DUP3 ADD MSTORE PUSH1 0x1D PUSH1 0x24 DUP3 ADD MSTORE PUSH32 0x416464726573733A2063616C6C20746F206E6F6E2D636F6E7472616374000000 PUSH1 0x44 DUP3 ADD MSTORE PUSH1 0x64 ADD PUSH2 0x2E5 JUMP JUMPDEST POP DUP2 PUSH2 0xB2D JUMP JUMPDEST PUSH2 0xB2D DUP4 DUP4 PUSH2 0x2D7B JUMP JUMPDEST PUSH1 0x60 DUP3 SELFBALANCE LT ISZERO PUSH2 0x2D01 JUMPI PUSH1 0x40 MLOAD PUSH3 0x461BCD PUSH1 0xE5 SHL DUP2 MSTORE PUSH1 0x20 PUSH1 0x4 DUP3 ADD MSTORE PUSH1 0x26 PUSH1 0x24 DUP3 ADD MSTORE PUSH32 0x416464726573733A20696E73756666696369656E742062616C616E636520666F PUSH1 0x44 DUP3 ADD MSTORE PUSH6 0x1C8818D85B1B PUSH1 0xD2 SHL PUSH1 0x64 DUP3 ADD MSTORE PUSH1 0x84 ADD PUSH2 0x2E5 JUMP JUMPDEST PUSH1 0x0 DUP1 DUP7 PUSH1 0x1 PUSH1 0x1 PUSH1 0xA0 SHL SUB AND DUP6 DUP8 PUSH1 0x40 MLOAD PUSH2 0x2D1D SWAP2 SWAP1 PUSH2 0x3A99 JUMP JUMPDEST PUSH1 0x0 PUSH1 0x40 MLOAD DUP1 DUP4 SUB DUP2 DUP6 DUP8 GAS CALL SWAP3 POP POP POP RETURNDATASIZE DUP1 PUSH1 0x0 DUP2 EQ PUSH2 0x2D5A JUMPI PUSH1 0x40 MLOAD SWAP2 POP PUSH1 0x1F NOT PUSH1 0x3F RETURNDATASIZE ADD AND DUP3 ADD PUSH1 0x40 MSTORE RETURNDATASIZE DUP3 MSTORE RETURNDATASIZE PUSH1 0x0 PUSH1 0x20 DUP5 ADD RETURNDATACOPY PUSH2 0x2D5F JUMP JUMPDEST PUSH1 0x60 SWAP2 POP JUMPDEST POP SWAP2 POP SWAP2 POP PUSH2 0x2D70 DUP8 DUP4 DUP4 DUP8 PUSH2 0x2C2A JUMP JUMPDEST SWAP8 SWAP7 POP POP POP POP POP POP POP JUMP JUMPDEST DUP2 MLOAD ISZERO PUSH2 0x2D8B JUMPI DUP2 MLOAD DUP1 DUP4 PUSH1 0x20 ADD REVERT JUMPDEST DUP1 PUSH1 0x40 MLOAD PUSH3 0x461BCD PUSH1 0xE5 SHL DUP2 MSTORE PUSH1 0x4 ADD PUSH2 0x2E5 SWAP2 SWAP1 PUSH2 0x3299 JUMP JUMPDEST DUP3 DUP1 SLOAD PUSH2 0x2DB1 SWAP1 PUSH2 0x3741 JUMP JUMPDEST SWAP1 PUSH1 0x0 MSTORE PUSH1 0x20 PUSH1 0x0 KECCAK256 SWAP1 PUSH1 0x1F ADD PUSH1 0x20 SWAP1 DIV DUP2 ADD SWAP3 DUP3 PUSH2 0x2DD3 JUMPI PUSH1 0x0 DUP6 SSTORE PUSH2 0x2E19 JUMP JUMPDEST DUP3 PUSH1 0x1F LT PUSH2 0x2DEC JUMPI DUP3 DUP1 ADD PUSH1 0xFF NOT DUP3 CALLDATALOAD AND OR DUP6 SSTORE PUSH2 0x2E19 JUMP JUMPDEST DUP3 DUP1 ADD PUSH1 0x1 ADD DUP6 SSTORE DUP3 ISZERO PUSH2 0x2E19 JUMPI SWAP2 DUP3 ADD JUMPDEST DUP3 DUP2 GT ISZERO PUSH2 0x2E19 JUMPI DUP3 CALLDATALOAD DUP3 SSTORE SWAP2 PUSH1 0x20 ADD SWAP2 SWAP1 PUSH1 0x1 ADD SWAP1 PUSH2 0x2DFE JUMP JUMPDEST POP PUSH2 0x2E25 SWAP3 SWAP2 POP PUSH2 0x2F85 JUMP JUMPDEST POP SWAP1 JUMP JUMPDEST DUP3 DUP1 SLOAD DUP3 DUP3 SSTORE SWAP1 PUSH1 0x0 MSTORE PUSH1 0x20 PUSH1 0x0 KECCAK256 SWAP1 DUP2 ADD SWAP3 DUP3 ISZERO PUSH2 0x2E19 JUMPI SWAP2 PUSH1 0x20 MUL DUP3 ADD JUMPDEST DUP3 DUP2 GT ISZERO PUSH2 0x2E19 JUMPI DUP3 MLOAD DUP3 SLOAD PUSH1 0x1 PUSH1 0x1 PUSH1 0xA0 SHL SUB NOT AND PUSH1 0x1 PUSH1 0x1 PUSH1 0xA0 SHL SUB SWAP1 SWAP2 AND OR DUP3 SSTORE PUSH1 0x20 SWAP1 SWAP3 ADD SWAP2 PUSH1 0x1 SWAP1 SWAP2 ADD SWAP1 PUSH2 0x2E49 JUMP JUMPDEST DUP3 DUP1 SLOAD DUP3 DUP3 SSTORE SWAP1 PUSH1 0x0 MSTORE PUSH1 0x20 PUSH1 0x0 KECCAK256 SWAP1 DUP2 ADD SWAP3 DUP3 ISZERO PUSH2 0x2ECB JUMPI SWAP2 PUSH1 0x20 MUL DUP3 ADD JUMPDEST DUP3 DUP2 GT ISZERO PUSH2 0x2ECB JUMPI DUP3 MLOAD DUP1 MLOAD PUSH2 0x2EBB SWAP2 DUP5 SWAP2 PUSH1 0x20 SWAP1 SWAP2 ADD SWAP1 PUSH2 0x2F12 JUMP JUMPDEST POP SWAP2 PUSH1 0x20 ADD SWAP2 SWAP1 PUSH1 0x1 ADD SWAP1 PUSH2 0x2E9E JUMP JUMPDEST POP PUSH2 0x2E25 SWAP3 SWAP2 POP PUSH2 0x2F9A JUMP JUMPDEST DUP3 DUP1 SLOAD DUP3 DUP3 SSTORE SWAP1 PUSH1 0x0 MSTORE PUSH1 0x20 PUSH1 0x0 KECCAK256 SWAP1 DUP2 ADD SWAP3 DUP3 ISZERO PUSH2 0x2E19 JUMPI SWAP2 PUSH1 0x20 MUL DUP3 ADD JUMPDEST DUP3 DUP2 GT ISZERO PUSH2 0x2E19 JUMPI DUP3 MLOAD DUP3 SSTORE SWAP2 PUSH1 0x20 ADD SWAP2 SWAP1 PUSH1 0x1 ADD SWAP1 PUSH2 0x2EF7 JUMP JUMPDEST DUP3 DUP1 SLOAD PUSH2 0x2F1E SWAP1 PUSH2 0x3741 JUMP JUMPDEST SWAP1 PUSH1 0x0 MSTORE PUSH1 0x20 PUSH1 0x0 KECCAK256 SWAP1 PUSH1 0x1F ADD PUSH1 0x20 SWAP1 DIV DUP2 ADD SWAP3 DUP3 PUSH2 0x2F40 JUMPI PUSH1 0x0 DUP6 SSTORE PUSH2 0x2E19 JUMP JUMPDEST DUP3 PUSH1 0x1F LT PUSH2 0x2F59 JUMPI DUP1 MLOAD PUSH1 0xFF NOT AND DUP4 DUP1 ADD OR DUP6 SSTORE PUSH2 0x2E19 JUMP JUMPDEST DUP3 DUP1 ADD PUSH1 0x1 ADD DUP6 SSTORE DUP3 ISZERO PUSH2 0x2E19 JUMPI SWAP2 DUP3 ADD DUP3 DUP2 GT ISZERO PUSH2 0x2E19 JUMPI DUP3 MLOAD DUP3 SSTORE SWAP2 PUSH1 0x20 ADD SWAP2 SWAP1 PUSH1 0x1 ADD SWAP1 PUSH2 0x2EF7 JUMP JUMPDEST JUMPDEST DUP1 DUP3 GT ISZERO PUSH2 0x2E25 JUMPI PUSH1 0x0 DUP2 SSTORE PUSH1 0x1 ADD PUSH2 0x2F86 JUMP JUMPDEST DUP1 DUP3 GT ISZERO PUSH2 0x2E25 JUMPI PUSH1 0x0 PUSH2 0x2FAE DUP3 DUP3 PUSH2 0x2FB7 JUMP JUMPDEST POP PUSH1 0x1 ADD PUSH2 0x2F9A JUMP JUMPDEST POP DUP1 SLOAD PUSH2 0x2FC3 SWAP1 PUSH2 0x3741 JUMP JUMPDEST PUSH1 0x0 DUP3 SSTORE DUP1 PUSH1 0x1F LT PUSH2 0x2FD3 JUMPI POP POP JUMP JUMPDEST PUSH1 0x1F ADD PUSH1 0x20 SWAP1 DIV SWAP1 PUSH1 0x0 MSTORE PUSH1 0x20 PUSH1 0x0 KECCAK256 SWAP1 DUP2 ADD SWAP1 PUSH2 0x29EC SWAP2 SWAP1 PUSH2 0x2F85 JUMP JUMPDEST PUSH1 0x1 PUSH1 0x1 PUSH1 0xA0 SHL SUB DUP2 AND DUP2 EQ PUSH2 0x29EC JUMPI PUSH1 0x0 DUP1 REVERT JUMPDEST PUSH1 0x0 PUSH1 0x20 DUP3 DUP5 SUB SLT ISZERO PUSH2 0x3018 JUMPI PUSH1 0x0 DUP1 REVERT JUMPDEST DUP2 CALLDATALOAD PUSH2 0x1396 DUP2 PUSH2 0x2FF1 JUMP JUMPDEST PUSH1 0x0 DUP1 DUP4 PUSH1 0x1F DUP5 ADD SLT PUSH2 0x3035 JUMPI PUSH1 0x0 DUP1 REVERT JUMPDEST POP DUP2 CALLDATALOAD PUSH8 0xFFFFFFFFFFFFFFFF DUP2 GT ISZERO PUSH2 0x304D JUMPI PUSH1 0x0 DUP1 REVERT JUMPDEST PUSH1 0x20 DUP4 ADD SWAP2 POP DUP4 PUSH1 0x20 DUP3 DUP6 ADD ADD GT ISZERO PUSH2 0x3065 JUMPI PUSH1 0x0 DUP1 REVERT JUMPDEST SWAP3 POP SWAP3 SWAP1 POP JUMP JUMPDEST PUSH1 0x0 DUP1 PUSH1 0x20 DUP4 DUP6 SUB SLT ISZERO PUSH2 0x307F JUMPI PUSH1 0x0 DUP1 REVERT JUMPDEST DUP3 CALLDATALOAD PUSH8 0xFFFFFFFFFFFFFFFF DUP2 GT ISZERO PUSH2 0x3096 JUMPI PUSH1 0x0 DUP1 REVERT JUMPDEST PUSH2 0x30A2 DUP6 DUP3 DUP7 ADD PUSH2 0x3023 JUMP JUMPDEST SWAP1 SWAP7 SWAP1 SWAP6 POP SWAP4 POP POP POP POP JUMP JUMPDEST PUSH1 0x0 DUP1 PUSH1 0x0 PUSH1 0x60 DUP5 DUP7 SUB SLT ISZERO PUSH2 0x30C3 JUMPI PUSH1 0x0 DUP1 REVERT JUMPDEST DUP4 CALLDATALOAD SWAP3 POP PUSH1 0x20 DUP5 ADD CALLDATALOAD PUSH2 0x30D5 DUP2 PUSH2 0x2FF1 JUMP JUMPDEST SWAP3 SWAP6 SWAP3 SWAP5 POP POP POP PUSH1 0x40 SWAP2 SWAP1 SWAP2 ADD CALLDATALOAD SWAP1 JUMP JUMPDEST DUP1 ISZERO ISZERO DUP2 EQ PUSH2 0x29EC JUMPI PUSH1 0x0 DUP1 REVERT JUMPDEST PUSH1 0x0 DUP1 PUSH1 0x0 DUP1 PUSH1 0x0 DUP1 PUSH1 0x0 DUP1 PUSH1 0x0 PUSH2 0x100 DUP11 DUP13 SUB SLT ISZERO PUSH2 0x3113 JUMPI PUSH1 0x0 DUP1 REVERT JUMPDEST DUP10 CALLDATALOAD PUSH2 0x311E DUP2 PUSH2 0x2FF1 JUMP JUMPDEST SWAP9 POP PUSH1 0x20 DUP11 ADD CALLDATALOAD PUSH2 0x312E DUP2 PUSH2 0x2FF1 JUMP JUMPDEST SWAP8 POP PUSH1 0x40 DUP11 ADD CALLDATALOAD PUSH2 0x313E DUP2 PUSH2 0x30E6 JUMP JUMPDEST SWAP7 POP PUSH1 0x60 DUP11 ADD CALLDATALOAD PUSH2 0x314E DUP2 PUSH2 0x2FF1 JUMP JUMPDEST SWAP6 POP PUSH1 0x80 DUP11 ADD CALLDATALOAD PUSH2 0x315E DUP2 PUSH2 0x2FF1 JUMP JUMPDEST SWAP5 POP PUSH1 0xA0 DUP11 ADD CALLDATALOAD PUSH8 0xFFFFFFFFFFFFFFFF DUP2 GT ISZERO PUSH2 0x317A JUMPI PUSH1 0x0 DUP1 REVERT JUMPDEST PUSH2 0x3186 DUP13 DUP3 DUP14 ADD PUSH2 0x3023 JUMP JUMPDEST SWAP11 SWAP14 SWAP10 SWAP13 POP SWAP8 SWAP11 SWAP7 SWAP10 SWAP6 SWAP9 SWAP6 SWAP7 PUSH1 0xC0 DUP2 ADD CALLDATALOAD SWAP7 PUSH1 0xE0 SWAP1 SWAP2 ADD CALLDATALOAD SWAP6 POP SWAP4 POP POP POP POP JUMP JUMPDEST PUSH1 0x0 PUSH1 0x20 DUP3 DUP5 SUB SLT ISZERO PUSH2 0x31BA JUMPI PUSH1 0x0 DUP1 REVERT JUMPDEST POP CALLDATALOAD SWAP2 SWAP1 POP JUMP JUMPDEST PUSH4 0x4E487B71 PUSH1 0xE0 SHL PUSH1 0x0 MSTORE PUSH1 0x21 PUSH1 0x4 MSTORE PUSH1 0x24 PUSH1 0x0 REVERT JUMPDEST PUSH1 0x5 DUP2 LT PUSH2 0x31F5 JUMPI PUSH4 0x4E487B71 PUSH1 0xE0 SHL PUSH1 0x0 MSTORE PUSH1 0x21 PUSH1 0x4 MSTORE PUSH1 0x24 PUSH1 0x0 REVERT JUMPDEST SWAP1 MSTORE JUMP JUMPDEST PUSH1 0x0 JUMPDEST DUP4 DUP2 LT ISZERO PUSH2 0x3214 JUMPI DUP2 DUP2 ADD MLOAD DUP4 DUP3 ADD MSTORE PUSH1 0x20 ADD PUSH2 0x31FC JUMP JUMPDEST DUP4 DUP2 GT ISZERO PUSH2 0x3223 JUMPI PUSH1 0x0 DUP5 DUP5 ADD MSTORE JUMPDEST POP POP POP POP JUMP JUMPDEST PUSH1 0x0 DUP2 MLOAD DUP1 DUP5 MSTORE PUSH2 0x3241 DUP2 PUSH1 0x20 DUP7 ADD PUSH1 0x20 DUP7 ADD PUSH2 0x31F9 JUMP JUMPDEST PUSH1 0x1F ADD PUSH1 0x1F NOT AND SWAP3 SWAP1 SWAP3 ADD PUSH1 0x20 ADD SWAP3 SWAP2 POP POP JUMP JUMPDEST PUSH2 0x325F DUP2 DUP7 PUSH2 0x31D7 JUMP JUMPDEST PUSH1 0x80 PUSH1 0x20 DUP3 ADD MSTORE PUSH1 0x0 PUSH2 0x3275 PUSH1 0x80 DUP4 ADD DUP7 PUSH2 0x3229 JUMP JUMPDEST DUP3 DUP2 SUB PUSH1 0x40 DUP5 ADD MSTORE PUSH2 0x3287 DUP2 DUP7 PUSH2 0x3229 JUMP JUMPDEST SWAP2 POP POP DUP3 PUSH1 0x60 DUP4 ADD MSTORE SWAP6 SWAP5 POP POP POP POP POP JUMP JUMPDEST PUSH1 0x20 DUP2 MSTORE PUSH1 0x0 PUSH2 0x1396 PUSH1 0x20 DUP4 ADD DUP5 PUSH2 0x3229 JUMP JUMPDEST PUSH1 0x0 DUP2 MLOAD DUP1 DUP5 MSTORE PUSH1 0x20 DUP1 DUP6 ADD DUP1 DUP2 SWAP7 POP DUP4 PUSH1 0x5 SHL DUP2 ADD SWAP2 POP DUP3 DUP7 ADD PUSH1 0x0 JUMPDEST DUP6 DUP2 LT ISZERO PUSH2 0x32F4 JUMPI DUP3 DUP5 SUB DUP10 MSTORE PUSH2 0x32E2 DUP5 DUP4 MLOAD PUSH2 0x3229 JUMP JUMPDEST SWAP9 DUP6 ADD SWAP9 SWAP4 POP SWAP1 DUP5 ADD SWAP1 PUSH1 0x1 ADD PUSH2 0x32CA JUMP JUMPDEST POP SWAP2 SWAP8 SWAP7 POP POP POP POP POP POP POP JUMP JUMPDEST PUSH1 0x0 DUP2 MLOAD DUP1 DUP5 MSTORE PUSH1 0x20 DUP1 DUP6 ADD SWAP5 POP DUP1 DUP5 ADD PUSH1 0x0 JUMPDEST DUP4 DUP2 LT ISZERO PUSH2 0x3331 JUMPI DUP2 MLOAD DUP8 MSTORE SWAP6 DUP3 ADD SWAP6 SWAP1 DUP3 ADD SWAP1 PUSH1 0x1 ADD PUSH2 0x3315 JUMP JUMPDEST POP SWAP5 SWAP6 SWAP5 POP POP POP POP POP JUMP JUMPDEST PUSH1 0xE0 DUP1 DUP3 MSTORE DUP9 MLOAD SWAP1 DUP3 ADD DUP2 SWAP1 MSTORE PUSH1 0x0 SWAP1 PUSH1 0x20 SWAP1 PUSH2 0x100 DUP5 ADD SWAP1 DUP3 DUP13 ADD DUP5 JUMPDEST DUP3 DUP2 LT ISZERO PUSH2 0x337F JUMPI DUP2 MLOAD PUSH1 0x1 PUSH1 0x1 PUSH1 0xA0 SHL SUB AND DUP5 MSTORE SWAP3 DUP5 ADD SWAP3 SWAP1 DUP5 ADD SWAP1 PUSH1 0x1 ADD PUSH2 0x335A JUMP JUMPDEST POP POP POP DUP4 DUP2 SUB DUP3 DUP6 ADD MSTORE PUSH2 0x3393 DUP2 DUP12 PUSH2 0x32AC JUMP JUMPDEST SWAP2 POP POP DUP3 DUP2 SUB PUSH1 0x40 DUP5 ADD MSTORE PUSH2 0x33A8 DUP2 DUP10 PUSH2 0x3301 JUMP JUMPDEST SWAP1 POP PUSH2 0x33B7 PUSH1 0x60 DUP5 ADD DUP9 PUSH2 0x31D7 JUMP JUMPDEST DUP3 DUP2 SUB PUSH1 0x80 DUP5 ADD MSTORE PUSH2 0x33C9 DUP2 DUP8 PUSH2 0x3229 JUMP JUMPDEST SWAP1 POP DUP3 DUP2 SUB PUSH1 0xA0 DUP5 ADD MSTORE PUSH2 0x33DD DUP2 DUP7 PUSH2 0x3229 JUMP JUMPDEST SWAP2 POP POP DUP3 PUSH1 0xC0 DUP4 ADD MSTORE SWAP9 SWAP8 POP POP POP POP POP POP POP POP JUMP JUMPDEST PUSH1 0x0 DUP1 PUSH1 0x40 DUP4 DUP6 SUB SLT ISZERO PUSH2 0x3405 JUMPI PUSH1 0x0 DUP1 REVERT JUMPDEST DUP3 CALLDATALOAD PUSH2 0x3410 DUP2 PUSH2 0x2FF1 JUMP JUMPDEST SWAP5 PUSH1 0x20 SWAP4 SWAP1 SWAP4 ADD CALLDATALOAD SWAP4 POP POP POP JUMP JUMPDEST PUSH1 0x0 DUP1 DUP4 PUSH1 0x1F DUP5 ADD SLT PUSH2 0x3430 JUMPI PUSH1 0x0 DUP1 REVERT JUMPDEST POP DUP2 CALLDATALOAD PUSH8 0xFFFFFFFFFFFFFFFF DUP2 GT ISZERO PUSH2 0x3448 JUMPI PUSH1 0x0 DUP1 REVERT JUMPDEST PUSH1 0x20 DUP4 ADD SWAP2 POP DUP4 PUSH1 0x20 DUP3 PUSH1 0x5 SHL DUP6 ADD ADD GT ISZERO PUSH2 0x3065 JUMPI PUSH1 0x0 DUP1 REVERT JUMPDEST PUSH1 0x0 DUP1 PUSH1 0x0 DUP1 PUSH1 0x0 DUP1 PUSH1 0x0 DUP1 PUSH1 0x0 DUP1 PUSH1 0xA0 DUP12 DUP14 SUB SLT ISZERO PUSH2 0x3482 JUMPI PUSH1 0x0 DUP1 REVERT JUMPDEST DUP11 CALLDATALOAD PUSH8 0xFFFFFFFFFFFFFFFF DUP1 DUP3 GT ISZERO PUSH2 0x349A JUMPI PUSH1 0x0 DUP1 REVERT JUMPDEST PUSH2 0x34A6 DUP15 DUP4 DUP16 ADD PUSH2 0x341E JUMP JUMPDEST SWAP1 SWAP13 POP SWAP11 POP PUSH1 0x20 DUP14 ADD CALLDATALOAD SWAP2 POP DUP1 DUP3 GT ISZERO PUSH2 0x34BF JUMPI PUSH1 0x0 DUP1 REVERT JUMPDEST PUSH2 0x34CB DUP15 DUP4 DUP16 ADD PUSH2 0x341E JUMP JUMPDEST SWAP1 SWAP11 POP SWAP9 POP PUSH1 0x40 DUP14 ADD CALLDATALOAD SWAP2 POP DUP1 DUP3 GT ISZERO PUSH2 0x34E4 JUMPI PUSH1 0x0 DUP1 REVERT JUMPDEST PUSH2 0x34F0 DUP15 DUP4 DUP16 ADD PUSH2 0x341E JUMP JUMPDEST SWAP1 SWAP9 POP SWAP7 POP PUSH1 0x60 DUP14 ADD CALLDATALOAD SWAP2 POP DUP1 DUP3 GT ISZERO PUSH2 0x3509 JUMPI PUSH1 0x0 DUP1 REVERT JUMPDEST PUSH2 0x3515 DUP15 DUP4 DUP16 ADD PUSH2 0x3023 JUMP JUMPDEST SWAP1 SWAP7 POP SWAP5 POP PUSH1 0x80 DUP14 ADD CALLDATALOAD SWAP2 POP DUP1 DUP3 GT ISZERO PUSH2 0x352E JUMPI PUSH1 0x0 DUP1 REVERT JUMPDEST POP PUSH2 0x353B DUP14 DUP3 DUP15 ADD PUSH2 0x3023 JUMP JUMPDEST SWAP2 POP DUP1 SWAP4 POP POP DUP1 SWAP2 POP POP SWAP3 SWAP6 SWAP9 SWAP12 SWAP2 SWAP5 SWAP8 SWAP11 POP SWAP3 SWAP6 SWAP9 POP JUMP JUMPDEST PUSH1 0x0 DUP1 PUSH1 0x40 DUP4 DUP6 SUB SLT ISZERO PUSH2 0x3567 JUMPI PUSH1 0x0 DUP1 REVERT JUMPDEST POP POP DUP1 CALLDATALOAD SWAP3 PUSH1 0x20 SWAP1 SWAP2 ADD CALLDATALOAD SWAP2 POP JUMP JUMPDEST PUSH1 0x0 DUP1 PUSH1 0x0 DUP1 PUSH1 0x80 DUP6 DUP8 SUB SLT ISZERO PUSH2 0x358C JUMPI PUSH1 0x0 DUP1 REVERT JUMPDEST DUP5 CALLDATALOAD PUSH2 0x3597 DUP2 PUSH2 0x2FF1 JUMP JUMPDEST SWAP4 POP PUSH1 0x20 DUP6 ADD CALLDATALOAD PUSH2 0x35A7 DUP2 PUSH2 0x2FF1 JUMP JUMPDEST SWAP4 SWAP7 SWAP4 SWAP6 POP POP POP POP PUSH1 0x40 DUP3 ADD CALLDATALOAD SWAP2 PUSH1 0x60 ADD CALLDATALOAD SWAP1 JUMP JUMPDEST PUSH1 0x20 DUP1 DUP3 MSTORE DUP3 MLOAD DUP3 DUP3 ADD DUP2 SWAP1 MSTORE PUSH1 0x0 SWAP2 SWAP1 DUP5 DUP3 ADD SWAP1 PUSH1 0x40 DUP6 ADD SWAP1 DUP5 JUMPDEST DUP2 DUP2 LT ISZERO PUSH2 0x35F4 JUMPI DUP4 MLOAD DUP4 MSTORE SWAP3 DUP5 ADD SWAP3 SWAP2 DUP5 ADD SWAP2 PUSH1 0x1 ADD PUSH2 0x35D8 JUMP JUMPDEST POP SWAP1 SWAP7 SWAP6 POP POP POP POP POP POP JUMP JUMPDEST PUSH1 0x0 DUP1 DUP6 DUP6 GT ISZERO PUSH2 0x3610 JUMPI PUSH1 0x0 DUP1 REVERT JUMPDEST DUP4 DUP7 GT ISZERO PUSH2 0x361D JUMPI PUSH1 0x0 DUP1 REVERT JUMPDEST POP POP DUP3 ADD SWAP4 SWAP2 SWAP1 SWAP3 SUB SWAP2 POP JUMP JUMPDEST PUSH1 0x1 PUSH1 0x1 PUSH1 0xE0 SHL SUB NOT DUP2 CALLDATALOAD DUP2 DUP2 AND SWAP2 PUSH1 0x4 DUP6 LT ISZERO PUSH2 0x3652 JUMPI DUP1 DUP2 DUP7 PUSH1 0x4 SUB PUSH1 0x3 SHL SHL DUP4 AND AND SWAP3 POP JUMPDEST POP POP SWAP3 SWAP2 POP POP JUMP JUMPDEST PUSH1 0x0 PUSH1 0x20 DUP3 DUP5 SUB SLT ISZERO PUSH2 0x366C JUMPI PUSH1 0x0 DUP1 REVERT JUMPDEST DUP2 MLOAD PUSH2 0x1396 DUP2 PUSH2 0x2FF1 JUMP JUMPDEST PUSH1 0x20 DUP1 DUP3 MSTORE PUSH1 0x22 SWAP1 DUP3 ADD MSTORE PUSH32 0x6F6E6C79206120576F726B53797374656D2073686F756C642063616C6C207468 PUSH1 0x40 DUP3 ADD MSTORE PUSH2 0x6973 PUSH1 0xF0 SHL PUSH1 0x60 DUP3 ADD MSTORE PUSH1 0x80 ADD SWAP1 JUMP JUMPDEST PUSH1 0x0 PUSH1 0x20 DUP3 DUP5 SUB SLT ISZERO PUSH2 0x36CB JUMPI PUSH1 0x0 DUP1 REVERT JUMPDEST DUP2 MLOAD PUSH2 0x1396 DUP2 PUSH2 0x30E6 JUMP JUMPDEST PUSH1 0x20 DUP1 DUP3 MSTORE PUSH1 0x45 SWAP1 DUP3 ADD MSTORE PUSH32 0x57616C6C6574536368656D653A205F6D61785365636F6E6473466F7245786563 PUSH1 0x40 DUP3 ADD MSTORE PUSH32 0x7574696F6E2063616E74206265206C657373207468616E203836343030207365 PUSH1 0x60 DUP3 ADD MSTORE PUSH5 0x636F6E6473 PUSH1 0xD8 SHL PUSH1 0x80 DUP3 ADD MSTORE PUSH1 0xA0 ADD SWAP1 JUMP JUMPDEST PUSH1 0x1 DUP2 DUP2 SHR SWAP1 DUP3 AND DUP1 PUSH2 0x3755 JUMPI PUSH1 0x7F DUP3 AND SWAP2 POP JUMPDEST PUSH1 0x20 DUP3 LT DUP2 EQ ISZERO PUSH2 0x3776 JUMPI PUSH4 0x4E487B71 PUSH1 0xE0 SHL PUSH1 0x0 MSTORE PUSH1 0x22 PUSH1 0x4 MSTORE PUSH1 0x24 PUSH1 0x0 REVERT JUMPDEST POP SWAP2 SWAP1 POP JUMP JUMPDEST PUSH1 0x0 PUSH1 0x20 DUP3 DUP5 SUB SLT ISZERO PUSH2 0x378E JUMPI PUSH1 0x0 DUP1 REVERT JUMPDEST POP MLOAD SWAP2 SWAP1 POP JUMP JUMPDEST PUSH4 0x4E487B71 PUSH1 0xE0 SHL PUSH1 0x0 MSTORE PUSH1 0x32 PUSH1 0x4 MSTORE PUSH1 0x24 PUSH1 0x0 REVERT JUMPDEST PUSH1 0x0 DUP1 DUP4 CALLDATALOAD PUSH1 0x1E NOT DUP5 CALLDATASIZE SUB ADD DUP2 SLT PUSH2 0x37C2 JUMPI PUSH1 0x0 DUP1 REVERT JUMPDEST DUP4 ADD DUP1 CALLDATALOAD SWAP2 POP PUSH8 0xFFFFFFFFFFFFFFFF DUP3 GT ISZERO PUSH2 0x37DD JUMPI PUSH1 0x0 DUP1 REVERT JUMPDEST PUSH1 0x20 ADD SWAP2 POP CALLDATASIZE DUP2 SWAP1 SUB DUP3 SGT ISZERO PUSH2 0x3065 JUMPI PUSH1 0x0 DUP1 REVERT JUMPDEST PUSH4 0x4E487B71 PUSH1 0xE0 SHL PUSH1 0x0 MSTORE PUSH1 0x11 PUSH1 0x4 MSTORE PUSH1 0x24 PUSH1 0x0 REVERT JUMPDEST PUSH1 0x0 PUSH1 0x0 NOT DUP3 EQ ISZERO PUSH2 0x381C JUMPI PUSH2 0x381C PUSH2 0x37F2 JUMP JUMPDEST POP PUSH1 0x1 ADD SWAP1 JUMP JUMPDEST PUSH4 0x4E487B71 PUSH1 0xE0 SHL PUSH1 0x0 MSTORE PUSH1 0x41 PUSH1 0x4 MSTORE PUSH1 0x24 PUSH1 0x0 REVERT JUMPDEST PUSH1 0x40 MLOAD PUSH1 0x1F DUP3 ADD PUSH1 0x1F NOT AND DUP2 ADD PUSH8 0xFFFFFFFFFFFFFFFF DUP2 GT DUP3 DUP3 LT OR ISZERO PUSH2 0x3862 JUMPI PUSH2 0x3862 PUSH2 0x3823 JUMP JUMPDEST PUSH1 0x40 MSTORE SWAP2 SWAP1 POP JUMP JUMPDEST PUSH1 0x0 PUSH8 0xFFFFFFFFFFFFFFFF DUP3 GT ISZERO PUSH2 0x3884 JUMPI PUSH2 0x3884 PUSH2 0x3823 JUMP JUMPDEST POP PUSH1 0x1F ADD PUSH1 0x1F NOT AND PUSH1 0x20 ADD SWAP1 JUMP JUMPDEST PUSH1 0x0 PUSH8 0xFFFFFFFFFFFFFFFF DUP1 DUP5 GT ISZERO PUSH2 0x38AD JUMPI PUSH2 0x38AD PUSH2 0x3823 JUMP JUMPDEST DUP4 PUSH1 0x5 SHL PUSH1 0x20 PUSH2 0x38BE DUP2 DUP4 ADD PUSH2 0x3839 JUMP JUMPDEST DUP7 DUP2 MSTORE SWAP2 DUP6 ADD SWAP2 DUP2 DUP2 ADD SWAP1 CALLDATASIZE DUP5 GT ISZERO PUSH2 0x38D6 JUMPI PUSH1 0x0 DUP1 REVERT JUMPDEST DUP7 JUMPDEST DUP5 DUP2 LT ISZERO PUSH2 0x394B JUMPI DUP1 CALLDATALOAD DUP7 DUP2 GT ISZERO PUSH2 0x38F0 JUMPI PUSH1 0x0 DUP1 DUP2 REVERT JUMPDEST DUP9 ADD CALLDATASIZE PUSH1 0x1F DUP3 ADD SLT PUSH2 0x3902 JUMPI PUSH1 0x0 DUP1 DUP2 REVERT JUMPDEST DUP1 CALLDATALOAD PUSH2 0x3915 PUSH2 0x3910 DUP3 PUSH2 0x386A JUMP JUMPDEST PUSH2 0x3839 JUMP JUMPDEST DUP2 DUP2 MSTORE CALLDATASIZE DUP8 DUP4 DUP6 ADD ADD GT ISZERO PUSH2 0x392A JUMPI PUSH1 0x0 DUP1 DUP2 REVERT JUMPDEST DUP2 DUP8 DUP5 ADD DUP9 DUP4 ADD CALLDATACOPY PUSH1 0x0 SWAP2 DUP2 ADD DUP8 ADD SWAP2 SWAP1 SWAP2 MSTORE DUP5 MSTORE POP SWAP2 DUP4 ADD SWAP2 DUP4 ADD PUSH2 0x38D8 JUMP JUMPDEST POP SWAP8 SWAP7 POP POP POP POP POP POP POP JUMP JUMPDEST PUSH1 0x20 DUP1 DUP3 MSTORE PUSH1 0x12 SWAP1 DUP3 ADD MSTORE PUSH18 0x6F6E6C7920566F74696E674D616368696E65 PUSH1 0x70 SHL PUSH1 0x40 DUP3 ADD MSTORE PUSH1 0x60 ADD SWAP1 JUMP JUMPDEST PUSH1 0x0 DUP2 SLOAD PUSH2 0x3990 DUP2 PUSH2 0x3741 JUMP JUMPDEST DUP1 DUP6 MSTORE PUSH1 0x20 PUSH1 0x1 DUP4 DUP2 AND DUP1 ISZERO PUSH2 0x39AD JUMPI PUSH1 0x1 DUP2 EQ PUSH2 0x39C1 JUMPI PUSH2 0x39EF JUMP JUMPDEST PUSH1 0xFF NOT DUP6 AND DUP9 DUP5 ADD MSTORE PUSH1 0x40 DUP9 ADD SWAP6 POP PUSH2 0x39EF JUMP JUMPDEST DUP7 PUSH1 0x0 MSTORE DUP3 PUSH1 0x0 KECCAK256 PUSH1 0x0 JUMPDEST DUP6 DUP2 LT ISZERO PUSH2 0x39E7 JUMPI DUP2 SLOAD DUP11 DUP3 ADD DUP7 ADD MSTORE SWAP1 DUP4 ADD SWAP1 DUP5 ADD PUSH2 0x39CC JUMP JUMPDEST DUP10 ADD DUP5 ADD SWAP7 POP POP JUMPDEST POP POP POP POP POP SWAP3 SWAP2 POP POP JUMP JUMPDEST PUSH1 0x20 DUP2 MSTORE PUSH1 0x0 PUSH2 0x1396 PUSH1 0x20 DUP4 ADD DUP5 PUSH2 0x3983 JUMP JUMPDEST PUSH1 0x0 PUSH1 0x20 DUP3 DUP5 SUB SLT ISZERO PUSH2 0x3A1F JUMPI PUSH1 0x0 DUP1 REVERT JUMPDEST DUP2 MLOAD PUSH1 0x1 PUSH1 0x1 PUSH1 0xE0 SHL SUB NOT DUP2 AND DUP2 EQ PUSH2 0x1396 JUMPI PUSH1 0x0 DUP1 REVERT JUMPDEST PUSH1 0x0 DUP1 PUSH1 0x40 DUP4 DUP6 SUB SLT ISZERO PUSH2 0x3A4A JUMPI PUSH1 0x0 DUP1 REVERT JUMPDEST DUP3 MLOAD PUSH2 0x3A55 DUP2 PUSH2 0x2FF1 JUMP JUMPDEST PUSH1 0x20 SWAP4 SWAP1 SWAP4 ADD MLOAD SWAP3 SWAP5 SWAP3 SWAP4 POP POP POP JUMP JUMPDEST PUSH1 0x0 PUSH1 0x1 DUP1 PUSH1 0xA0 SHL SUB DUP1 DUP8 AND DUP4 MSTORE PUSH1 0x80 PUSH1 0x20 DUP5 ADD MSTORE PUSH2 0x3A87 PUSH1 0x80 DUP5 ADD DUP8 PUSH2 0x3983 JUMP JUMPDEST SWAP5 AND PUSH1 0x40 DUP4 ADD MSTORE POP PUSH1 0x60 ADD MSTORE SWAP3 SWAP2 POP POP JUMP JUMPDEST PUSH1 0x0 DUP3 MLOAD PUSH2 0x3AAB DUP2 DUP5 PUSH1 0x20 DUP8 ADD PUSH2 0x31F9 JUMP JUMPDEST SWAP2 SWAP1 SWAP2 ADD SWAP3 SWAP2 POP POP JUMP JUMPDEST PUSH1 0x0 DUP1 PUSH1 0x40 DUP4 DUP6 SUB SLT ISZERO PUSH2 0x3AC8 JUMPI PUSH1 0x0 DUP1 REVERT JUMPDEST DUP3 MLOAD PUSH2 0x3AD3 DUP2 PUSH2 0x30E6 JUMP JUMPDEST PUSH1 0x20 DUP5 ADD MLOAD SWAP1 SWAP3 POP PUSH8 0xFFFFFFFFFFFFFFFF DUP2 GT ISZERO PUSH2 0x3AF0 JUMPI PUSH1 0x0 DUP1 REVERT JUMPDEST DUP4 ADD PUSH1 0x1F DUP2 ADD DUP6 SGT PUSH2 0x3B01 JUMPI PUSH1 0x0 DUP1 REVERT JUMPDEST DUP1 MLOAD PUSH2 0x3B0F PUSH2 0x3910 DUP3 PUSH2 0x386A JUMP JUMPDEST DUP2 DUP2 MSTORE DUP7 PUSH1 0x20 DUP4 DUP6 ADD ADD GT ISZERO PUSH2 0x3B24 JUMPI PUSH1 0x0 DUP1 REVERT JUMPDEST PUSH2 0x3B35 DUP3 PUSH1 0x20 DUP4 ADD PUSH1 0x20 DUP7 ADD PUSH2 0x31F9 JUMP JUMPDEST DUP1 SWAP4 POP POP POP POP SWAP3 POP SWAP3 SWAP1 POP JUMP JUMPDEST PUSH1 0x0 DUP1 DUP4 SLOAD PUSH2 0x3B50 DUP2 PUSH2 0x3741 JUMP JUMPDEST PUSH1 0x1 DUP3 DUP2 AND DUP1 ISZERO PUSH2 0x3B68 JUMPI PUSH1 0x1 DUP2 EQ PUSH2 0x3B79 JUMPI PUSH2 0x3BA8 JUMP JUMPDEST PUSH1 0xFF NOT DUP5 AND DUP8 MSTORE DUP3 DUP8 ADD SWAP5 POP PUSH2 0x3BA8 JUMP JUMPDEST DUP8 PUSH1 0x0 MSTORE PUSH1 0x20 DUP1 PUSH1 0x0 KECCAK256 PUSH1 0x0 JUMPDEST DUP6 DUP2 LT ISZERO PUSH2 0x3B9F JUMPI DUP2 SLOAD DUP11 DUP3 ADD MSTORE SWAP1 DUP5 ADD SWAP1 DUP3 ADD PUSH2 0x3B86 JUMP JUMPDEST POP POP POP DUP3 DUP8 ADD SWAP5 POP JUMPDEST POP SWAP3 SWAP7 SWAP6 POP POP POP POP POP POP JUMP JUMPDEST PUSH1 0x40 DUP1 DUP3 MSTORE DUP4 MLOAD SWAP1 DUP3 ADD DUP2 SWAP1 MSTORE PUSH1 0x0 SWAP1 PUSH1 0x20 SWAP1 PUSH1 0x60 DUP5 ADD SWAP1 DUP3 DUP8 ADD DUP5 JUMPDEST DUP3 DUP2 LT ISZERO PUSH2 0x3BEF JUMPI DUP2 MLOAD ISZERO ISZERO DUP5 MSTORE SWAP3 DUP5 ADD SWAP3 SWAP1 DUP5 ADD SWAP1 PUSH1 0x1 ADD PUSH2 0x3BD1 JUMP JUMPDEST POP POP POP DUP4 DUP2 SUB DUP3 DUP6 ADD MSTORE PUSH2 0x2B91 DUP2 DUP7 PUSH2 0x32AC JUMP JUMPDEST PUSH1 0x0 DUP3 NOT DUP3 GT ISZERO PUSH2 0x3C16 JUMPI PUSH2 0x3C16 PUSH2 0x37F2 JUMP JUMPDEST POP ADD SWAP1 JUMP JUMPDEST PUSH1 0x0 DUP2 PUSH1 0x0 NOT DIV DUP4 GT DUP3 ISZERO ISZERO AND ISZERO PUSH2 0x3C35 JUMPI PUSH2 0x3C35 PUSH2 0x37F2 JUMP JUMPDEST POP MUL SWAP1 JUMP JUMPDEST PUSH1 0x0 DUP3 PUSH2 0x3C57 JUMPI PUSH4 0x4E487B71 PUSH1 0xE0 SHL PUSH1 0x0 MSTORE PUSH1 0x12 PUSH1 0x4 MSTORE PUSH1 0x24 PUSH1 0x0 REVERT JUMPDEST POP DIV SWAP1 JUMP JUMPDEST PUSH1 0x0 DUP3 DUP3 LT ISZERO PUSH2 0x3C6E JUMPI PUSH2 0x3C6E PUSH2 0x37F2 JUMP JUMPDEST POP SUB SWAP1 JUMP INVALID JUMPI PUSH2 0x6C6C PUSH6 0x74536368656D PUSH6 0x3A2044584456 PUSH16 0x74696E674D616368696E652063616C6C PUSH3 0x61636B KECCAK256 PUSH3 0x616C61 PUSH15 0x63654F664174206572726F7257616C PUSH13 0x6574536368656D653A206D696E PUSH21 0x52657075746174696F6E466F72576F726B202D2057 PUSH16 0x726B53797374656D2063616C6C626163 PUSH12 0x206275726E52657075746174 PUSH10 0x6F6E206572726F72AA79 DUP12 0x5C OR 0xDE DUP4 MSIZE 0xCE GAS 0x2D EXTCODESIZE PUSH11 0x5DA0DE89D0B116DCF830F1 DUP1 SWAP6 SWAP10 0xDA SAR SWAP9 PUSH14 0xBB57616C6C6574536368656D653A KECCAK256 DIFFICULTY PC DIFFICULTY JUMP PUSH16 0x74696E674D616368696E652063616C6C PUSH3 0x61636B KECCAK256 PUSH14 0x696E7452657075746174696F6E20 PUSH6 0x72726F725761 PUSH13 0x6C6574536368656D653A204458 DIFFICULTY JUMP PUSH16 0x74696E674D616368696E652063616C6C PUSH3 0x61636B KECCAK256 PUSH17 0x726F706F7365206572726F7257616C6C65 PUSH21 0x536368656D653A20676574536368656D6550617261 PUSH14 0x6574657273206572726F7257616C PUSH13 0x6574536368656D653A206D696E PUSH21 0x52657075746174696F6E466F72576F726B202D2057 PUSH16 0x726B53797374656D2063616C6C626163 PUSH12 0x206D696E7452657075746174 PUSH10 0x6F6E206572726F725761 PUSH13 0x6C6574536368656D653A204458 DIFFICULTY JUMP PUSH16 0x74696E674D616368696E652063616C6C PUSH3 0x61636B KECCAK256 PUSH6 0x787465726E61 PUSH13 0x546F6B656E5472616E73666572 KECCAK256 PUSH6 0x72726F725761 PUSH13 0x6C6574536368656D653A204458 DIFFICULTY JUMP PUSH16 0x74696E674D616368696E652063616C6C PUSH3 0x61636B KECCAK256 PUSH21 0x6F74616C537570706C79206572726F7257616C6C65 PUSH21 0x536368656D653A20445844566F74696E674D616368 PUSH10 0x6E652063616C6C626163 PUSH12 0x206275726E52657075746174 PUSH10 0x6F6E206572726F725761 PUSH13 0x6C6574536368656D653A204458 DIFFICULTY JUMP PUSH16 0x74696E674D616368696E652063616C6C PUSH3 0x61636B KECCAK256 PUSH21 0x6F74616C537570706C794174206572726F7257616C PUSH13 0x6574536368656D653A20445844 JUMP PUSH16 0x74696E674D616368696E652063616C6C PUSH3 0x61636B KECCAK256 PUSH15 0x617469766552657075746174696F6E KECCAK256 PUSH6 0x72726F72A264 PUSH10 0x70667358221220A57A8E STOP PUSH23 0xFF1DE86512E2C076E207B11BF273B576A91F37A68EBD38 LOG2 0xD2 PUSH19 0x9364736F6C6343000808003300000000000000 "
		},
		"gasEstimates": {
			"creation": {
				"codeDepositCost": "3246200",
				"executionCost": "29444",
				"totalCost": "3275644"
			},
			"external": {
				"ANY_ADDRESS()": "328",
				"ANY_SIGNATURE()": "283",
				"ERC20_APPROVE_SIGNATURE()": "363",
				"ERC20_TRANSFER_SIGNATURE()": "254",
				"SCHEME_TYPE()": "infinite",
				"SET_MAX_SECONDS_FOR_EXECUTION_SIGNATURE()": "298",
				"addWorksystemAddress(address)": "30496",
				"avatar()": "2404",
				"balanceOfStakingToken(address,bytes32)": "infinite",
				"burnReputation(uint256,address,bytes32)": "infinite",
				"burnReputationForWork(uint256,address,bytes32)": "infinite",
				"controller()": "2480",
				"doAvatarGenericCalls()": "2398",
				"erc20TransferOrApproveDecode(bytes)": "986",
				"executeProposal(bytes32,int256)": "infinite",
				"getFuncSignature(bytes)": "878",
				"getNativeReputation()": "infinite",
				"getNativeReputationTotalSupply()": "infinite",
				"getOrganizationProposal(bytes32)": "infinite",
				"getOrganizationProposalByIndex(uint256)": "infinite",
				"getOrganizationProposals()": "infinite",
				"getOrganizationProposalsLength()": "2381",
				"getTotalReputationSupply(bytes32)": "infinite",
				"initialize(address,address,bool,address,address,string,uint256,uint256)": "infinite",
				"isRegisteredWorksystem(address)": "2678",
				"maxRepPercentageChange()": "2428",
				"maxSecondsForExecution()": "2429",
				"mintReputation(uint256,address,bytes32)": "infinite",
				"mintReputationForWork(uint256,address,bytes32)": "infinite",
				"owner()": "2421",
				"permissionRegistry()": "2404",
				"proposals(bytes32)": "infinite",
				"proposalsBlockNumber(bytes32)": "2506",
				"proposalsList(uint256)": "4619",
				"proposeCalls(address[],bytes[],uint256[],string,string)": "infinite",
				"removeWorksystemAddress(address)": "30558",
				"renounceOwnership()": "infinite",
				"reputationOf(address,bytes32)": "infinite",
				"schemeName()": "infinite",
				"setMaxSecondsForExecution(uint256)": "24601",
				"stakingTokenTransfer(address,address,uint256,bytes32)": "infinite",
				"transferOwnership(address)": "infinite",
				"votingMachine()": "2427"
			}
		},
		"methodIdentifiers": {
			"ANY_ADDRESS()": "3f81a192",
			"ANY_SIGNATURE()": "069dfc5b",
			"ERC20_APPROVE_SIGNATURE()": "cac7d205",
			"ERC20_TRANSFER_SIGNATURE()": "3b72b3c7",
			"SCHEME_TYPE()": "3c4c17da",
			"SET_MAX_SECONDS_FOR_EXECUTION_SIGNATURE()": "2f4ab7be",
			"addWorksystemAddress(address)": "020f4ff6",
			"avatar()": "5aef7de6",
			"balanceOfStakingToken(address,bytes32)": "6b8eb403",
			"burnReputation(uint256,address,bytes32)": "f81f8bf6",
			"burnReputationForWork(uint256,address,bytes32)": "5c6f3f0c",
			"controller()": "f77c4791",
			"doAvatarGenericCalls()": "f389ca46",
			"erc20TransferOrApproveDecode(bytes)": "f5447c0a",
			"executeProposal(bytes32,int256)": "9d4c162d",
			"getFuncSignature(bytes)": "088af182",
			"getNativeReputation()": "09121fa8",
			"getNativeReputationTotalSupply()": "d3b4644a",
			"getOrganizationProposal(bytes32)": "59618a26",
			"getOrganizationProposalByIndex(uint256)": "d8708a76",
			"getOrganizationProposals()": "d3d1e7ba",
			"getOrganizationProposalsLength()": "b632a912",
			"getTotalReputationSupply(bytes32)": "b551c373",
			"initialize(address,address,bool,address,address,string,uint256,uint256)": "27efdab5",
			"isRegisteredWorksystem(address)": "112f92bb",
			"maxRepPercentageChange()": "db2131cd",
			"maxSecondsForExecution()": "4f9ce221",
			"mintReputation(uint256,address,bytes32)": "d29b5d2f",
			"mintReputationForWork(uint256,address,bytes32)": "1b6d990a",
			"owner()": "8da5cb5b",
			"permissionRegistry()": "b55a5c1c",
			"proposals(bytes32)": "32ed5b12",
			"proposalsBlockNumber(bytes32)": "7a5cb92c",
			"proposalsList(uint256)": "e5957023",
			"proposeCalls(address[],bytes[],uint256[],string,string)": "72c41046",
			"removeWorksystemAddress(address)": "337df7b1",
			"renounceOwnership()": "715018a6",
			"reputationOf(address,bytes32)": "9588378e",
			"schemeName()": "c45ff281",
			"setMaxSecondsForExecution(uint256)": "622c7c8d",
			"stakingTokenTransfer(address,address,uint256,bytes32)": "bea75f28",
			"transferOwnership(address)": "f2fde38b",
			"votingMachine()": "3edf7ca1"
		}
	},
	"abi": [
		{
			"anonymous": false,
			"inputs": [
				{
					"indexed": true,
					"internalType": "bytes32",
					"name": "_proposalId",
					"type": "bytes32"
				},
				{
					"indexed": false,
					"internalType": "bool[]",
					"name": "_callsSucessResult",
					"type": "bool[]"
				},
				{
					"indexed": false,
					"internalType": "bytes[]",
					"name": "_callsDataResult",
					"type": "bytes[]"
				}
			],
			"name": "ExecutionResults",
			"type": "event"
		},
		{
			"anonymous": false,
			"inputs": [
				{
					"indexed": true,
					"internalType": "address",
					"name": "previousOwner",
					"type": "address"
				},
				{
					"indexed": true,
					"internalType": "address",
					"name": "newOwner",
					"type": "address"
				}
			],
			"name": "OwnershipTransferred",
			"type": "event"
		},
		{
			"anonymous": false,
			"inputs": [
				{
					"indexed": true,
					"internalType": "bytes32",
					"name": "_proposalId",
					"type": "bytes32"
				},
				{
					"indexed": true,
					"internalType": "uint256",
					"name": "_state",
					"type": "uint256"
				}
			],
			"name": "ProposalStateChange",
			"type": "event"
		},
		{
			"anonymous": false,
			"inputs": [
				{
					"indexed": true,
					"internalType": "address",
					"name": "account",
					"type": "address"
				},
				{
					"indexed": false,
					"internalType": "bool",
					"name": "isWhitelisted",
					"type": "bool"
				}
			],
			"name": "ReputationModify_UnWhitelisted",
			"type": "event"
		},
		{
			"anonymous": false,
			"inputs": [
				{
					"indexed": true,
					"internalType": "address",
					"name": "account",
					"type": "address"
				},
				{
					"indexed": false,
					"internalType": "bool",
					"name": "isWhitelisted",
					"type": "bool"
				}
			],
			"name": "ReputationModify_Whitelisted",
			"type": "event"
		},
		{
			"inputs": [],
			"name": "ANY_ADDRESS",
			"outputs": [
				{
					"internalType": "address",
					"name": "",
					"type": "address"
				}
			],
			"stateMutability": "view",
			"type": "function"
		},
		{
			"inputs": [],
			"name": "ANY_SIGNATURE",
			"outputs": [
				{
					"internalType": "bytes4",
					"name": "",
					"type": "bytes4"
				}
			],
			"stateMutability": "view",
			"type": "function"
		},
		{
			"inputs": [],
			"name": "ERC20_APPROVE_SIGNATURE",
			"outputs": [
				{
					"internalType": "bytes4",
					"name": "",
					"type": "bytes4"
				}
			],
			"stateMutability": "view",
			"type": "function"
		},
		{
			"inputs": [],
			"name": "ERC20_TRANSFER_SIGNATURE",
			"outputs": [
				{
					"internalType": "bytes4",
					"name": "",
					"type": "bytes4"
				}
			],
			"stateMutability": "view",
			"type": "function"
		},
		{
			"inputs": [],
			"name": "SCHEME_TYPE",
			"outputs": [
				{
					"internalType": "string",
					"name": "",
					"type": "string"
				}
			],
			"stateMutability": "view",
			"type": "function"
		},
		{
			"inputs": [],
			"name": "SET_MAX_SECONDS_FOR_EXECUTION_SIGNATURE",
			"outputs": [
				{
					"internalType": "bytes4",
					"name": "",
					"type": "bytes4"
				}
			],
			"stateMutability": "view",
			"type": "function"
		},
		{
			"inputs": [
				{
					"internalType": "address",
					"name": "_address",
					"type": "address"
				}
			],
			"name": "addWorksystemAddress",
			"outputs": [],
			"stateMutability": "nonpayable",
			"type": "function"
		},
		{
			"inputs": [],
			"name": "avatar",
			"outputs": [
				{
					"internalType": "address",
					"name": "",
					"type": "address"
				}
			],
			"stateMutability": "view",
			"type": "function"
		},
		{
			"inputs": [
				{
					"internalType": "contract IERC20",
					"name": "_stakingToken",
					"type": "address"
				},
				{
					"internalType": "bytes32",
					"name": "",
					"type": "bytes32"
				}
			],
			"name": "balanceOfStakingToken",
			"outputs": [
				{
					"internalType": "uint256",
					"name": "",
					"type": "uint256"
				}
			],
			"stateMutability": "view",
			"type": "function"
		},
		{
			"inputs": [
				{
					"internalType": "uint256",
					"name": "_amount",
					"type": "uint256"
				},
				{
					"internalType": "address",
					"name": "_beneficiary",
					"type": "address"
				},
				{
					"internalType": "bytes32",
					"name": "",
					"type": "bytes32"
				}
			],
			"name": "burnReputation",
			"outputs": [
				{
					"internalType": "bool",
					"name": "",
					"type": "bool"
				}
			],
			"stateMutability": "nonpayable",
			"type": "function"
		},
		{
			"inputs": [
				{
					"internalType": "uint256",
					"name": "_amount",
					"type": "uint256"
				},
				{
					"internalType": "address",
					"name": "_beneficiary",
					"type": "address"
				},
				{
					"internalType": "bytes32",
					"name": "",
					"type": "bytes32"
				}
			],
			"name": "burnReputationForWork",
			"outputs": [
				{
					"internalType": "bool",
					"name": "",
					"type": "bool"
				}
			],
			"stateMutability": "nonpayable",
			"type": "function"
		},
		{
			"inputs": [],
			"name": "controller",
			"outputs": [
				{
					"internalType": "address",
					"name": "",
					"type": "address"
				}
			],
			"stateMutability": "view",
			"type": "function"
		},
		{
			"inputs": [],
			"name": "doAvatarGenericCalls",
			"outputs": [
				{
					"internalType": "bool",
					"name": "",
					"type": "bool"
				}
			],
			"stateMutability": "view",
			"type": "function"
		},
		{
			"inputs": [
				{
					"internalType": "bytes",
					"name": "_data",
					"type": "bytes"
				}
			],
			"name": "erc20TransferOrApproveDecode",
			"outputs": [
				{
					"internalType": "address",
					"name": "to",
					"type": "address"
				},
				{
					"internalType": "uint256",
					"name": "value",
					"type": "uint256"
				}
			],
			"stateMutability": "pure",
			"type": "function"
		},
		{
			"inputs": [
				{
					"internalType": "bytes32",
					"name": "_proposalId",
					"type": "bytes32"
				},
				{
					"internalType": "int256",
					"name": "_decision",
					"type": "int256"
				}
			],
			"name": "executeProposal",
			"outputs": [
				{
					"internalType": "bool",
					"name": "",
					"type": "bool"
				}
			],
			"stateMutability": "nonpayable",
			"type": "function"
		},
		{
			"inputs": [
				{
					"internalType": "bytes",
					"name": "data",
					"type": "bytes"
				}
			],
			"name": "getFuncSignature",
			"outputs": [
				{
					"internalType": "bytes4",
					"name": "",
					"type": "bytes4"
				}
			],
			"stateMutability": "pure",
			"type": "function"
		},
		{
			"inputs": [],
			"name": "getNativeReputation",
			"outputs": [
				{
					"internalType": "address",
					"name": "",
					"type": "address"
				}
			],
			"stateMutability": "view",
			"type": "function"
		},
		{
			"inputs": [],
			"name": "getNativeReputationTotalSupply",
			"outputs": [
				{
					"internalType": "uint256",
					"name": "",
					"type": "uint256"
				}
			],
			"stateMutability": "view",
			"type": "function"
		},
		{
			"inputs": [
				{
					"internalType": "bytes32",
					"name": "proposalId",
					"type": "bytes32"
				}
			],
			"name": "getOrganizationProposal",
			"outputs": [
				{
					"internalType": "address[]",
					"name": "to",
					"type": "address[]"
				},
				{
					"internalType": "bytes[]",
					"name": "callData",
					"type": "bytes[]"
				},
				{
					"internalType": "uint256[]",
					"name": "value",
					"type": "uint256[]"
				},
				{
					"internalType": "enum WalletScheme.ProposalState",
					"name": "state",
					"type": "uint8"
				},
				{
					"internalType": "string",
					"name": "title",
					"type": "string"
				},
				{
					"internalType": "string",
					"name": "descriptionHash",
					"type": "string"
				},
				{
					"internalType": "uint256",
					"name": "submittedTime",
					"type": "uint256"
				}
			],
			"stateMutability": "view",
			"type": "function"
		},
		{
			"inputs": [
				{
					"internalType": "uint256",
					"name": "proposalIndex",
					"type": "uint256"
				}
			],
			"name": "getOrganizationProposalByIndex",
			"outputs": [
				{
					"internalType": "address[]",
					"name": "to",
					"type": "address[]"
				},
				{
					"internalType": "bytes[]",
					"name": "callData",
					"type": "bytes[]"
				},
				{
					"internalType": "uint256[]",
					"name": "value",
					"type": "uint256[]"
				},
				{
					"internalType": "enum WalletScheme.ProposalState",
					"name": "state",
					"type": "uint8"
				},
				{
					"internalType": "string",
					"name": "title",
					"type": "string"
				},
				{
					"internalType": "string",
					"name": "descriptionHash",
					"type": "string"
				},
				{
					"internalType": "uint256",
					"name": "submittedTime",
					"type": "uint256"
				}
			],
			"stateMutability": "view",
			"type": "function"
		},
		{
			"inputs": [],
			"name": "getOrganizationProposals",
			"outputs": [
				{
					"internalType": "bytes32[]",
					"name": "",
					"type": "bytes32[]"
				}
			],
			"stateMutability": "view",
			"type": "function"
		},
		{
			"inputs": [],
			"name": "getOrganizationProposalsLength",
			"outputs": [
				{
					"internalType": "uint256",
					"name": "",
					"type": "uint256"
				}
			],
			"stateMutability": "view",
			"type": "function"
		},
		{
			"inputs": [
				{
					"internalType": "bytes32",
					"name": "_proposalId",
					"type": "bytes32"
				}
			],
			"name": "getTotalReputationSupply",
			"outputs": [
				{
					"internalType": "uint256",
					"name": "",
					"type": "uint256"
				}
			],
			"stateMutability": "view",
			"type": "function"
		},
		{
			"inputs": [
				{
					"internalType": "address",
					"name": "_avatar",
					"type": "address"
				},
				{
					"internalType": "address",
					"name": "_votingMachine",
					"type": "address"
				},
				{
					"internalType": "bool",
					"name": "_doAvatarGenericCalls",
					"type": "bool"
				},
				{
					"internalType": "address",
					"name": "_controller",
					"type": "address"
				},
				{
					"internalType": "address",
					"name": "_permissionRegistry",
					"type": "address"
				},
				{
					"internalType": "string",
					"name": "_schemeName",
					"type": "string"
				},
				{
					"internalType": "uint256",
					"name": "_maxSecondsForExecution",
					"type": "uint256"
				},
				{
					"internalType": "uint256",
					"name": "_maxRepPercentageChange",
					"type": "uint256"
				}
			],
			"name": "initialize",
			"outputs": [],
			"stateMutability": "nonpayable",
			"type": "function"
		},
		{
			"inputs": [
				{
					"internalType": "address",
					"name": "_address",
					"type": "address"
				}
			],
			"name": "isRegisteredWorksystem",
			"outputs": [
				{
					"internalType": "bool",
					"name": "",
					"type": "bool"
				}
			],
			"stateMutability": "view",
			"type": "function"
		},
		{
			"inputs": [],
			"name": "maxRepPercentageChange",
			"outputs": [
				{
					"internalType": "uint256",
					"name": "",
					"type": "uint256"
				}
			],
			"stateMutability": "view",
			"type": "function"
		},
		{
			"inputs": [],
			"name": "maxSecondsForExecution",
			"outputs": [
				{
					"internalType": "uint256",
					"name": "",
					"type": "uint256"
				}
			],
			"stateMutability": "view",
			"type": "function"
		},
		{
			"inputs": [
				{
					"internalType": "uint256",
					"name": "_amount",
					"type": "uint256"
				},
				{
					"internalType": "address",
					"name": "_beneficiary",
					"type": "address"
				},
				{
					"internalType": "bytes32",
					"name": "",
					"type": "bytes32"
				}
			],
			"name": "mintReputation",
			"outputs": [
				{
					"internalType": "bool",
					"name": "",
					"type": "bool"
				}
			],
			"stateMutability": "nonpayable",
			"type": "function"
		},
		{
			"inputs": [
				{
					"internalType": "uint256",
					"name": "_amount",
					"type": "uint256"
				},
				{
					"internalType": "address",
					"name": "_beneficiary",
					"type": "address"
				},
				{
					"internalType": "bytes32",
					"name": "",
					"type": "bytes32"
				}
			],
			"name": "mintReputationForWork",
			"outputs": [
				{
					"internalType": "bool",
					"name": "",
					"type": "bool"
				}
			],
			"stateMutability": "nonpayable",
			"type": "function"
		},
		{
			"inputs": [],
			"name": "owner",
			"outputs": [
				{
					"internalType": "address",
					"name": "",
					"type": "address"
				}
			],
			"stateMutability": "view",
			"type": "function"
		},
		{
			"inputs": [],
			"name": "permissionRegistry",
			"outputs": [
				{
					"internalType": "contract PermissionRegistry",
					"name": "",
					"type": "address"
				}
			],
			"stateMutability": "view",
			"type": "function"
		},
		{
			"inputs": [
				{
					"internalType": "bytes32",
					"name": "",
					"type": "bytes32"
				}
			],
			"name": "proposals",
			"outputs": [
				{
					"internalType": "enum WalletScheme.ProposalState",
					"name": "state",
					"type": "uint8"
				},
				{
					"internalType": "string",
					"name": "title",
					"type": "string"
				},
				{
					"internalType": "string",
					"name": "descriptionHash",
					"type": "string"
				},
				{
					"internalType": "uint256",
					"name": "submittedTime",
					"type": "uint256"
				}
			],
			"stateMutability": "view",
			"type": "function"
		},
		{
			"inputs": [
				{
					"internalType": "bytes32",
					"name": "",
					"type": "bytes32"
				}
			],
			"name": "proposalsBlockNumber",
			"outputs": [
				{
					"internalType": "uint256",
					"name": "",
					"type": "uint256"
				}
			],
			"stateMutability": "view",
			"type": "function"
		},
		{
			"inputs": [
				{
					"internalType": "uint256",
					"name": "",
					"type": "uint256"
				}
			],
			"name": "proposalsList",
			"outputs": [
				{
					"internalType": "bytes32",
					"name": "",
					"type": "bytes32"
				}
			],
			"stateMutability": "view",
			"type": "function"
		},
		{
			"inputs": [
				{
					"internalType": "address[]",
					"name": "_to",
					"type": "address[]"
				},
				{
					"internalType": "bytes[]",
					"name": "_callData",
					"type": "bytes[]"
				},
				{
					"internalType": "uint256[]",
					"name": "_value",
					"type": "uint256[]"
				},
				{
					"internalType": "string",
					"name": "_title",
					"type": "string"
				},
				{
					"internalType": "string",
					"name": "_descriptionHash",
					"type": "string"
				}
			],
			"name": "proposeCalls",
			"outputs": [
				{
					"internalType": "bytes32",
					"name": "",
					"type": "bytes32"
				}
			],
			"stateMutability": "nonpayable",
			"type": "function"
		},
		{
			"inputs": [
				{
					"internalType": "address",
					"name": "_address",
					"type": "address"
				}
			],
			"name": "removeWorksystemAddress",
			"outputs": [],
			"stateMutability": "nonpayable",
			"type": "function"
		},
		{
			"inputs": [],
			"name": "renounceOwnership",
			"outputs": [],
			"stateMutability": "nonpayable",
			"type": "function"
		},
		{
			"inputs": [
				{
					"internalType": "address",
					"name": "_owner",
					"type": "address"
				},
				{
					"internalType": "bytes32",
					"name": "_proposalId",
					"type": "bytes32"
				}
			],
			"name": "reputationOf",
			"outputs": [
				{
					"internalType": "uint256",
					"name": "",
					"type": "uint256"
				}
			],
			"stateMutability": "view",
			"type": "function"
		},
		{
			"inputs": [],
			"name": "schemeName",
			"outputs": [
				{
					"internalType": "string",
					"name": "",
					"type": "string"
				}
			],
			"stateMutability": "view",
			"type": "function"
		},
		{
			"inputs": [
				{
					"internalType": "uint256",
					"name": "_maxSecondsForExecution",
					"type": "uint256"
				}
			],
			"name": "setMaxSecondsForExecution",
			"outputs": [],
			"stateMutability": "nonpayable",
			"type": "function"
		},
		{
			"inputs": [
				{
					"internalType": "contract IERC20",
					"name": "_stakingToken",
					"type": "address"
				},
				{
					"internalType": "address",
					"name": "_beneficiary",
					"type": "address"
				},
				{
					"internalType": "uint256",
					"name": "_amount",
					"type": "uint256"
				},
				{
					"internalType": "bytes32",
					"name": "",
					"type": "bytes32"
				}
			],
			"name": "stakingTokenTransfer",
			"outputs": [
				{
					"internalType": "bool",
					"name": "",
					"type": "bool"
				}
			],
			"stateMutability": "nonpayable",
			"type": "function"
		},
		{
			"inputs": [
				{
					"internalType": "address",
					"name": "newOwner",
					"type": "address"
				}
			],
			"name": "transferOwnership",
			"outputs": [],
			"stateMutability": "nonpayable",
			"type": "function"
		},
		{
			"inputs": [],
			"name": "votingMachine",
			"outputs": [
				{
					"internalType": "address",
					"name": "",
					"type": "address"
				}
			],
			"stateMutability": "view",
			"type": "function"
		},
		{
			"stateMutability": "payable",
			"type": "receive"
		}
	]
}