{
	"data": {
		"bytecode": {
			"linkReferences": {},
			"object": "60806040526000805460ff60a01b1916600960a11b17905561271060035534801561002957600080fd5b5061003333610038565b610088565b600080546001600160a01b038381166001600160a01b0319831681178455604051919092169283917f8be0079c531659141344cd1fd0a4f28419497f9722a3daafe3b4186f6b6457e09190a35050565b610d56806100976000396000f3fe608060405234801561001057600080fd5b50600436106100cf5760003560e01c806370a082311161008c578063981b24d011610066578063981b24d01461019f5780639dc29fac146101b2578063ade4dcfb146101c5578063f2fde38b146101d857600080fd5b806370a0823114610167578063715018a61461017a5780638da5cb5b1461018457600080fd5b806307ea5477146100d457806318160ddd146100fc578063313ce5671461011257806340c10f19146101385780634104f64f1461014b5780634ee2cd7e14610154575b600080fd5b6100e76100e2366004610b63565b6101eb565b60405190151581526020015b60405180910390f35b6101046103c0565b6040519081526020016100f3565b60005461012690600160a01b900460ff1681565b60405160ff90911681526020016100f3565b6100e7610146366004610c23565b6103d0565b61010460035481565b610104610162366004610c23565b6104a2565b610104610175366004610c4d565b610538565b610182610544565b005b6000546040516001600160a01b0390911681526020016100f3565b6101046101ad366004610c6f565b610558565b6100e76101c0366004610c23565b6105ae565b6101826101d3366004610c6f565b610662565b6101826101e6366004610c4d565b6106c4565b60006101f561073d565b60005b83518110156103b457600061020b6103c0565b90508084838151811061022057610220610c88565b6020026020010151826102339190610cb4565b101561023e57600080fd5b600061026286848151811061025557610255610c88565b6020026020010151610538565b90508085848151811061027757610277610c88565b60200260200101518261028a9190610cb4565b101561029557600080fd5b6102c460028685815181106102ac576102ac610c88565b6020026020010151846102bf9190610cb4565b610797565b61032a600160008886815181106102dd576102dd610c88565b60200260200101516001600160a01b03166001600160a01b0316815260200190815260200160002086858151811061031757610317610c88565b6020026020010151836102bf9190610cb4565b85838151811061033c5761033c610c88565b60200260200101516001600160a01b03167f0f6798a560793a54c3bcfe86a93cde1e73087d944c0ea20544137d412139688586858151811061038057610380610c88565b602002602001015160405161039791815260200190565b60405180910390a2505080806103ac90610ccc565b9150506101f8565b50600190505b92915050565b60006103cb43610558565b905090565b60006103da61073d565b60006103e46103c0565b9050806103f18482610cb4565b10156103fc57600080fd5b600061040785610538565b9050806104148582610cb4565b101561041f57600080fd5b61042e60026102bf8685610cb4565b6001600160a01b0385166000908152600160205260409020610454906102bf8684610cb4565b846001600160a01b03167f0f6798a560793a54c3bcfe86a93cde1e73087d944c0ea20544137d41213968858560405161048f91815260200190565b60405180910390a2506001949350505050565b6001600160a01b038216600090815260016020526040812054158061050257506001600160a01b038316600090815260016020526040812080548492906104eb576104eb610c88565b6000918252602090912001546001600160801b0316115b1561050f575060006103ba565b6001600160a01b0383166000908152600160205260409020610531908361089d565b90506103ba565b60006103ba82436104a2565b61054c61073d565b6105566000610a26565b565b6002546000901580610591575081600260008154811061057a5761057a610c88565b6000918252602090912001546001600160801b0316115b1561059e57506000919050565b6103ba60028361089d565b919050565b60006105b861073d565b60006105c26103c0565b90508260006105d086610538565b9050818110156105de578091505b6105ed60026102bf8486610ce7565b6001600160a01b0386166000908152600160205260409020610613906102bf8484610ce7565b856001600160a01b03167fcc16f5dbb4873280815c1ee09dbd06736cffcc184412cf7a71a0fdb75d397ca58360405161064e91815260200190565b60405180910390a250600195945050505050565b61066a61073d565b600a81116106bf5760405162461bcd60e51b815260206004820152601960248201527f6e657720696e74657276616c206d757374206265203e2031300000000000000060448201526064015b60405180910390fd5b600355565b6106cc61073d565b6001600160a01b0381166107315760405162461bcd60e51b815260206004820152602660248201527f4f776e61626c653a206e6577206f776e657220697320746865207a65726f206160448201526564647265737360d01b60648201526084016106b6565b61073a81610a26565b50565b6000546001600160a01b031633146105565760405162461bcd60e51b815260206004820181905260248201527f4f776e61626c653a2063616c6c6572206973206e6f7420746865206f776e657260448201526064016106b6565b80816001600160801b0316146107ac57600080fd5b8154158061080557506003544311801561080557506003546107ce9043610ce7565b825483906107de90600190610ce7565b815481106107ee576107ee610c88565b6000918252602090912001546001600160801b0316105b1561085257604080518082019091526001600160801b0343811682529182166020808301918252845460018101865560009586529420915190518316600160801b02921691909117910155565b8154600090839061086590600190610ce7565b8154811061087557610875610c88565b600091825260209091200180546001600160801b03808516600160801b029116179055505050565b81546000906108ae575060006103ba565b825483906108be90600190610ce7565b815481106108ce576108ce610c88565b6000918252602090912001546001600160801b0316821061092c57825483906108f990600190610ce7565b8154811061090957610909610c88565b600091825260209091200154600160801b90046001600160801b031690506103ba565b8260008154811061093f5761093f610c88565b6000918252602090912001546001600160801b0316821015610963575060006103ba565b8254600090819061097690600190610ce7565b90505b818111156109ef576000600261098f8484610cb4565b61099a906001610cb4565b6109a49190610cfe565b9050848682815481106109b9576109b9610c88565b6000918252602090912001546001600160801b0316116109db578092506109e9565b6109e6600182610ce7565b91505b50610979565b848281548110610a0157610a01610c88565b600091825260209091200154600160801b90046001600160801b031695945050505050565b600080546001600160a01b038381166001600160a01b0319831681178455604051919092169283917f8be0079c531659141344cd1fd0a4f28419497f9722a3daafe3b4186f6b6457e09190a35050565b634e487b7160e01b600052604160045260246000fd5b604051601f8201601f1916810167ffffffffffffffff81118282101715610ab557610ab5610a76565b604052919050565b600067ffffffffffffffff821115610ad757610ad7610a76565b5060051b60200190565b80356001600160a01b03811681146105a957600080fd5b600082601f830112610b0957600080fd5b81356020610b1e610b1983610abd565b610a8c565b82815260059290921b84018101918181019086841115610b3d57600080fd5b8286015b84811015610b585780358352918301918301610b41565b509695505050505050565b60008060408385031215610b7657600080fd5b823567ffffffffffffffff80821115610b8e57600080fd5b818501915085601f830112610ba257600080fd5b81356020610bb2610b1983610abd565b82815260059290921b84018101918181019089841115610bd157600080fd5b948201945b83861015610bf657610be786610ae1565b82529482019490820190610bd6565b96505086013592505080821115610c0c57600080fd5b50610c1985828601610af8565b9150509250929050565b60008060408385031215610c3657600080fd5b610c3f83610ae1565b946020939093013593505050565b600060208284031215610c5f57600080fd5b610c6882610ae1565b9392505050565b600060208284031215610c8157600080fd5b5035919050565b634e487b7160e01b600052603260045260246000fd5b634e487b7160e01b600052601160045260246000fd5b60008219821115610cc757610cc7610c9e565b500190565b6000600019821415610ce057610ce0610c9e565b5060010190565b600082821015610cf957610cf9610c9e565b500390565b600082610d1b57634e487b7160e01b600052601260045260246000fd5b50049056fea264697066735822122010d7a3dc44915d7ad9e84bea40b1dc2ccb390fe31f3a2fa08f640f3008002aa364736f6c63430008080033",
			"opcodes": "PUSH1 0x80 PUSH1 0x40 MSTORE PUSH1 0x0 DUP1 SLOAD PUSH1 0xFF PUSH1 0xA0 SHL NOT AND PUSH1 0x9 PUSH1 0xA1 SHL OR SWAP1 SSTORE PUSH2 0x2710 PUSH1 0x3 SSTORE CALLVALUE DUP1 ISZERO PUSH2 0x29 JUMPI PUSH1 0x0 DUP1 REVERT JUMPDEST POP PUSH2 0x33 CALLER PUSH2 0x38 JUMP JUMPDEST PUSH2 0x88 JUMP JUMPDEST PUSH1 0x0 DUP1 SLOAD PUSH1 0x1 PUSH1 0x1 PUSH1 0xA0 SHL SUB DUP4 DUP2 AND PUSH1 0x1 PUSH1 0x1 PUSH1 0xA0 SHL SUB NOT DUP4 AND DUP2 OR DUP5 SSTORE PUSH1 0x40 MLOAD SWAP2 SWAP1 SWAP3 AND SWAP3 DUP4 SWAP2 PUSH32 0x8BE0079C531659141344CD1FD0A4F28419497F9722A3DAAFE3B4186F6B6457E0 SWAP2 SWAP1 LOG3 POP POP JUMP JUMPDEST PUSH2 0xD56 DUP1 PUSH2 0x97 PUSH1 0x0 CODECOPY PUSH1 0x0 RETURN INVALID PUSH1 0x80 PUSH1 0x40 MSTORE CALLVALUE DUP1 ISZERO PUSH2 0x10 JUMPI PUSH1 0x0 DUP1 REVERT JUMPDEST POP PUSH1 0x4 CALLDATASIZE LT PUSH2 0xCF JUMPI PUSH1 0x0 CALLDATALOAD PUSH1 0xE0 SHR DUP1 PUSH4 0x70A08231 GT PUSH2 0x8C JUMPI DUP1 PUSH4 0x981B24D0 GT PUSH2 0x66 JUMPI DUP1 PUSH4 0x981B24D0 EQ PUSH2 0x19F JUMPI DUP1 PUSH4 0x9DC29FAC EQ PUSH2 0x1B2 JUMPI DUP1 PUSH4 0xADE4DCFB EQ PUSH2 0x1C5 JUMPI DUP1 PUSH4 0xF2FDE38B EQ PUSH2 0x1D8 JUMPI PUSH1 0x0 DUP1 REVERT JUMPDEST DUP1 PUSH4 0x70A08231 EQ PUSH2 0x167 JUMPI DUP1 PUSH4 0x715018A6 EQ PUSH2 0x17A JUMPI DUP1 PUSH4 0x8DA5CB5B EQ PUSH2 0x184 JUMPI PUSH1 0x0 DUP1 REVERT JUMPDEST DUP1 PUSH4 0x7EA5477 EQ PUSH2 0xD4 JUMPI DUP1 PUSH4 0x18160DDD EQ PUSH2 0xFC JUMPI DUP1 PUSH4 0x313CE567 EQ PUSH2 0x112 JUMPI DUP1 PUSH4 0x40C10F19 EQ PUSH2 0x138 JUMPI DUP1 PUSH4 0x4104F64F EQ PUSH2 0x14B JUMPI DUP1 PUSH4 0x4EE2CD7E EQ PUSH2 0x154 JUMPI JUMPDEST PUSH1 0x0 DUP1 REVERT JUMPDEST PUSH2 0xE7 PUSH2 0xE2 CALLDATASIZE PUSH1 0x4 PUSH2 0xB63 JUMP JUMPDEST PUSH2 0x1EB JUMP JUMPDEST PUSH1 0x40 MLOAD SWAP1 ISZERO ISZERO DUP2 MSTORE PUSH1 0x20 ADD JUMPDEST PUSH1 0x40 MLOAD DUP1 SWAP2 SUB SWAP1 RETURN JUMPDEST PUSH2 0x104 PUSH2 0x3C0 JUMP JUMPDEST PUSH1 0x40 MLOAD SWAP1 DUP2 MSTORE PUSH1 0x20 ADD PUSH2 0xF3 JUMP JUMPDEST PUSH1 0x0 SLOAD PUSH2 0x126 SWAP1 PUSH1 0x1 PUSH1 0xA0 SHL SWAP1 DIV PUSH1 0xFF AND DUP2 JUMP JUMPDEST PUSH1 0x40 MLOAD PUSH1 0xFF SWAP1 SWAP2 AND DUP2 MSTORE PUSH1 0x20 ADD PUSH2 0xF3 JUMP JUMPDEST PUSH2 0xE7 PUSH2 0x146 CALLDATASIZE PUSH1 0x4 PUSH2 0xC23 JUMP JUMPDEST PUSH2 0x3D0 JUMP JUMPDEST PUSH2 0x104 PUSH1 0x3 SLOAD DUP2 JUMP JUMPDEST PUSH2 0x104 PUSH2 0x162 CALLDATASIZE PUSH1 0x4 PUSH2 0xC23 JUMP JUMPDEST PUSH2 0x4A2 JUMP JUMPDEST PUSH2 0x104 PUSH2 0x175 CALLDATASIZE PUSH1 0x4 PUSH2 0xC4D JUMP JUMPDEST PUSH2 0x538 JUMP JUMPDEST PUSH2 0x182 PUSH2 0x544 JUMP JUMPDEST STOP JUMPDEST PUSH1 0x0 SLOAD PUSH1 0x40 MLOAD PUSH1 0x1 PUSH1 0x1 PUSH1 0xA0 SHL SUB SWAP1 SWAP2 AND DUP2 MSTORE PUSH1 0x20 ADD PUSH2 0xF3 JUMP JUMPDEST PUSH2 0x104 PUSH2 0x1AD CALLDATASIZE PUSH1 0x4 PUSH2 0xC6F JUMP JUMPDEST PUSH2 0x558 JUMP JUMPDEST PUSH2 0xE7 PUSH2 0x1C0 CALLDATASIZE PUSH1 0x4 PUSH2 0xC23 JUMP JUMPDEST PUSH2 0x5AE JUMP JUMPDEST PUSH2 0x182 PUSH2 0x1D3 CALLDATASIZE PUSH1 0x4 PUSH2 0xC6F JUMP JUMPDEST PUSH2 0x662 JUMP JUMPDEST PUSH2 0x182 PUSH2 0x1E6 CALLDATASIZE PUSH1 0x4 PUSH2 0xC4D JUMP JUMPDEST PUSH2 0x6C4 JUMP JUMPDEST PUSH1 0x0 PUSH2 0x1F5 PUSH2 0x73D JUMP JUMPDEST PUSH1 0x0 JUMPDEST DUP4 MLOAD DUP2 LT ISZERO PUSH2 0x3B4 JUMPI PUSH1 0x0 PUSH2 0x20B PUSH2 0x3C0 JUMP JUMPDEST SWAP1 POP DUP1 DUP5 DUP4 DUP2 MLOAD DUP2 LT PUSH2 0x220 JUMPI PUSH2 0x220 PUSH2 0xC88 JUMP JUMPDEST PUSH1 0x20 MUL PUSH1 0x20 ADD ADD MLOAD DUP3 PUSH2 0x233 SWAP2 SWAP1 PUSH2 0xCB4 JUMP JUMPDEST LT ISZERO PUSH2 0x23E JUMPI PUSH1 0x0 DUP1 REVERT JUMPDEST PUSH1 0x0 PUSH2 0x262 DUP7 DUP5 DUP2 MLOAD DUP2 LT PUSH2 0x255 JUMPI PUSH2 0x255 PUSH2 0xC88 JUMP JUMPDEST PUSH1 0x20 MUL PUSH1 0x20 ADD ADD MLOAD PUSH2 0x538 JUMP JUMPDEST SWAP1 POP DUP1 DUP6 DUP5 DUP2 MLOAD DUP2 LT PUSH2 0x277 JUMPI PUSH2 0x277 PUSH2 0xC88 JUMP JUMPDEST PUSH1 0x20 MUL PUSH1 0x20 ADD ADD MLOAD DUP3 PUSH2 0x28A SWAP2 SWAP1 PUSH2 0xCB4 JUMP JUMPDEST LT ISZERO PUSH2 0x295 JUMPI PUSH1 0x0 DUP1 REVERT JUMPDEST PUSH2 0x2C4 PUSH1 0x2 DUP7 DUP6 DUP2 MLOAD DUP2 LT PUSH2 0x2AC JUMPI PUSH2 0x2AC PUSH2 0xC88 JUMP JUMPDEST PUSH1 0x20 MUL PUSH1 0x20 ADD ADD MLOAD DUP5 PUSH2 0x2BF SWAP2 SWAP1 PUSH2 0xCB4 JUMP JUMPDEST PUSH2 0x797 JUMP JUMPDEST PUSH2 0x32A PUSH1 0x1 PUSH1 0x0 DUP9 DUP7 DUP2 MLOAD DUP2 LT PUSH2 0x2DD JUMPI PUSH2 0x2DD PUSH2 0xC88 JUMP JUMPDEST PUSH1 0x20 MUL PUSH1 0x20 ADD ADD MLOAD PUSH1 0x1 PUSH1 0x1 PUSH1 0xA0 SHL SUB AND PUSH1 0x1 PUSH1 0x1 PUSH1 0xA0 SHL SUB AND DUP2 MSTORE PUSH1 0x20 ADD SWAP1 DUP2 MSTORE PUSH1 0x20 ADD PUSH1 0x0 KECCAK256 DUP7 DUP6 DUP2 MLOAD DUP2 LT PUSH2 0x317 JUMPI PUSH2 0x317 PUSH2 0xC88 JUMP JUMPDEST PUSH1 0x20 MUL PUSH1 0x20 ADD ADD MLOAD DUP4 PUSH2 0x2BF SWAP2 SWAP1 PUSH2 0xCB4 JUMP JUMPDEST DUP6 DUP4 DUP2 MLOAD DUP2 LT PUSH2 0x33C JUMPI PUSH2 0x33C PUSH2 0xC88 JUMP JUMPDEST PUSH1 0x20 MUL PUSH1 0x20 ADD ADD MLOAD PUSH1 0x1 PUSH1 0x1 PUSH1 0xA0 SHL SUB AND PUSH32 0xF6798A560793A54C3BCFE86A93CDE1E73087D944C0EA20544137D4121396885 DUP7 DUP6 DUP2 MLOAD DUP2 LT PUSH2 0x380 JUMPI PUSH2 0x380 PUSH2 0xC88 JUMP JUMPDEST PUSH1 0x20 MUL PUSH1 0x20 ADD ADD MLOAD PUSH1 0x40 MLOAD PUSH2 0x397 SWAP2 DUP2 MSTORE PUSH1 0x20 ADD SWAP1 JUMP JUMPDEST PUSH1 0x40 MLOAD DUP1 SWAP2 SUB SWAP1 LOG2 POP POP DUP1 DUP1 PUSH2 0x3AC SWAP1 PUSH2 0xCCC JUMP JUMPDEST SWAP2 POP POP PUSH2 0x1F8 JUMP JUMPDEST POP PUSH1 0x1 SWAP1 POP JUMPDEST SWAP3 SWAP2 POP POP JUMP JUMPDEST PUSH1 0x0 PUSH2 0x3CB NUMBER PUSH2 0x558 JUMP JUMPDEST SWAP1 POP SWAP1 JUMP JUMPDEST PUSH1 0x0 PUSH2 0x3DA PUSH2 0x73D JUMP JUMPDEST PUSH1 0x0 PUSH2 0x3E4 PUSH2 0x3C0 JUMP JUMPDEST SWAP1 POP DUP1 PUSH2 0x3F1 DUP5 DUP3 PUSH2 0xCB4 JUMP JUMPDEST LT ISZERO PUSH2 0x3FC JUMPI PUSH1 0x0 DUP1 REVERT JUMPDEST PUSH1 0x0 PUSH2 0x407 DUP6 PUSH2 0x538 JUMP JUMPDEST SWAP1 POP DUP1 PUSH2 0x414 DUP6 DUP3 PUSH2 0xCB4 JUMP JUMPDEST LT ISZERO PUSH2 0x41F JUMPI PUSH1 0x0 DUP1 REVERT JUMPDEST PUSH2 0x42E PUSH1 0x2 PUSH2 0x2BF DUP7 DUP6 PUSH2 0xCB4 JUMP JUMPDEST PUSH1 0x1 PUSH1 0x1 PUSH1 0xA0 SHL SUB DUP6 AND PUSH1 0x0 SWAP1 DUP2 MSTORE PUSH1 0x1 PUSH1 0x20 MSTORE PUSH1 0x40 SWAP1 KECCAK256 PUSH2 0x454 SWAP1 PUSH2 0x2BF DUP7 DUP5 PUSH2 0xCB4 JUMP JUMPDEST DUP5 PUSH1 0x1 PUSH1 0x1 PUSH1 0xA0 SHL SUB AND PUSH32 0xF6798A560793A54C3BCFE86A93CDE1E73087D944C0EA20544137D4121396885 DUP6 PUSH1 0x40 MLOAD PUSH2 0x48F SWAP2 DUP2 MSTORE PUSH1 0x20 ADD SWAP1 JUMP JUMPDEST PUSH1 0x40 MLOAD DUP1 SWAP2 SUB SWAP1 LOG2 POP PUSH1 0x1 SWAP5 SWAP4 POP POP POP POP JUMP JUMPDEST PUSH1 0x1 PUSH1 0x1 PUSH1 0xA0 SHL SUB DUP3 AND PUSH1 0x0 SWAP1 DUP2 MSTORE PUSH1 0x1 PUSH1 0x20 MSTORE PUSH1 0x40 DUP2 KECCAK256 SLOAD ISZERO DUP1 PUSH2 0x502 JUMPI POP PUSH1 0x1 PUSH1 0x1 PUSH1 0xA0 SHL SUB DUP4 AND PUSH1 0x0 SWAP1 DUP2 MSTORE PUSH1 0x1 PUSH1 0x20 MSTORE PUSH1 0x40 DUP2 KECCAK256 DUP1 SLOAD DUP5 SWAP3 SWAP1 PUSH2 0x4EB JUMPI PUSH2 0x4EB PUSH2 0xC88 JUMP JUMPDEST PUSH1 0x0 SWAP2 DUP3 MSTORE PUSH1 0x20 SWAP1 SWAP2 KECCAK256 ADD SLOAD PUSH1 0x1 PUSH1 0x1 PUSH1 0x80 SHL SUB AND GT JUMPDEST ISZERO PUSH2 0x50F JUMPI POP PUSH1 0x0 PUSH2 0x3BA JUMP JUMPDEST PUSH1 0x1 PUSH1 0x1 PUSH1 0xA0 SHL SUB DUP4 AND PUSH1 0x0 SWAP1 DUP2 MSTORE PUSH1 0x1 PUSH1 0x20 MSTORE PUSH1 0x40 SWAP1 KECCAK256 PUSH2 0x531 SWAP1 DUP4 PUSH2 0x89D JUMP JUMPDEST SWAP1 POP PUSH2 0x3BA JUMP JUMPDEST PUSH1 0x0 PUSH2 0x3BA DUP3 NUMBER PUSH2 0x4A2 JUMP JUMPDEST PUSH2 0x54C PUSH2 0x73D JUMP JUMPDEST PUSH2 0x556 PUSH1 0x0 PUSH2 0xA26 JUMP JUMPDEST JUMP JUMPDEST PUSH1 0x2 SLOAD PUSH1 0x0 SWAP1 ISZERO DUP1 PUSH2 0x591 JUMPI POP DUP2 PUSH1 0x2 PUSH1 0x0 DUP2 SLOAD DUP2 LT PUSH2 0x57A JUMPI PUSH2 0x57A PUSH2 0xC88 JUMP JUMPDEST PUSH1 0x0 SWAP2 DUP3 MSTORE PUSH1 0x20 SWAP1 SWAP2 KECCAK256 ADD SLOAD PUSH1 0x1 PUSH1 0x1 PUSH1 0x80 SHL SUB AND GT JUMPDEST ISZERO PUSH2 0x59E JUMPI POP PUSH1 0x0 SWAP2 SWAP1 POP JUMP JUMPDEST PUSH2 0x3BA PUSH1 0x2 DUP4 PUSH2 0x89D JUMP JUMPDEST SWAP2 SWAP1 POP JUMP JUMPDEST PUSH1 0x0 PUSH2 0x5B8 PUSH2 0x73D JUMP JUMPDEST PUSH1 0x0 PUSH2 0x5C2 PUSH2 0x3C0 JUMP JUMPDEST SWAP1 POP DUP3 PUSH1 0x0 PUSH2 0x5D0 DUP7 PUSH2 0x538 JUMP JUMPDEST SWAP1 POP DUP2 DUP2 LT ISZERO PUSH2 0x5DE JUMPI DUP1 SWAP2 POP JUMPDEST PUSH2 0x5ED PUSH1 0x2 PUSH2 0x2BF DUP5 DUP7 PUSH2 0xCE7 JUMP JUMPDEST PUSH1 0x1 PUSH1 0x1 PUSH1 0xA0 SHL SUB DUP7 AND PUSH1 0x0 SWAP1 DUP2 MSTORE PUSH1 0x1 PUSH1 0x20 MSTORE PUSH1 0x40 SWAP1 KECCAK256 PUSH2 0x613 SWAP1 PUSH2 0x2BF DUP5 DUP5 PUSH2 0xCE7 JUMP JUMPDEST DUP6 PUSH1 0x1 PUSH1 0x1 PUSH1 0xA0 SHL SUB AND PUSH32 0xCC16F5DBB4873280815C1EE09DBD06736CFFCC184412CF7A71A0FDB75D397CA5 DUP4 PUSH1 0x40 MLOAD PUSH2 0x64E SWAP2 DUP2 MSTORE PUSH1 0x20 ADD SWAP1 JUMP JUMPDEST PUSH1 0x40 MLOAD DUP1 SWAP2 SUB SWAP1 LOG2 POP PUSH1 0x1 SWAP6 SWAP5 POP POP POP POP POP JUMP JUMPDEST PUSH2 0x66A PUSH2 0x73D JUMP JUMPDEST PUSH1 0xA DUP2 GT PUSH2 0x6BF JUMPI PUSH1 0x40 MLOAD PUSH3 0x461BCD PUSH1 0xE5 SHL DUP2 MSTORE PUSH1 0x20 PUSH1 0x4 DUP3 ADD MSTORE PUSH1 0x19 PUSH1 0x24 DUP3 ADD MSTORE PUSH32 0x6E657720696E74657276616C206D757374206265203E20313000000000000000 PUSH1 0x44 DUP3 ADD MSTORE PUSH1 0x64 ADD JUMPDEST PUSH1 0x40 MLOAD DUP1 SWAP2 SUB SWAP1 REVERT JUMPDEST PUSH1 0x3 SSTORE JUMP JUMPDEST PUSH2 0x6CC PUSH2 0x73D JUMP JUMPDEST PUSH1 0x1 PUSH1 0x1 PUSH1 0xA0 SHL SUB DUP2 AND PUSH2 0x731 JUMPI PUSH1 0x40 MLOAD PUSH3 0x461BCD PUSH1 0xE5 SHL DUP2 MSTORE PUSH1 0x20 PUSH1 0x4 DUP3 ADD MSTORE PUSH1 0x26 PUSH1 0x24 DUP3 ADD MSTORE PUSH32 0x4F776E61626C653A206E6577206F776E657220697320746865207A65726F2061 PUSH1 0x44 DUP3 ADD MSTORE PUSH6 0x646472657373 PUSH1 0xD0 SHL PUSH1 0x64 DUP3 ADD MSTORE PUSH1 0x84 ADD PUSH2 0x6B6 JUMP JUMPDEST PUSH2 0x73A DUP2 PUSH2 0xA26 JUMP JUMPDEST POP JUMP JUMPDEST PUSH1 0x0 SLOAD PUSH1 0x1 PUSH1 0x1 PUSH1 0xA0 SHL SUB AND CALLER EQ PUSH2 0x556 JUMPI PUSH1 0x40 MLOAD PUSH3 0x461BCD PUSH1 0xE5 SHL DUP2 MSTORE PUSH1 0x20 PUSH1 0x4 DUP3 ADD DUP2 SWAP1 MSTORE PUSH1 0x24 DUP3 ADD MSTORE PUSH32 0x4F776E61626C653A2063616C6C6572206973206E6F7420746865206F776E6572 PUSH1 0x44 DUP3 ADD MSTORE PUSH1 0x64 ADD PUSH2 0x6B6 JUMP JUMPDEST DUP1 DUP2 PUSH1 0x1 PUSH1 0x1 PUSH1 0x80 SHL SUB AND EQ PUSH2 0x7AC JUMPI PUSH1 0x0 DUP1 REVERT JUMPDEST DUP2 SLOAD ISZERO DUP1 PUSH2 0x805 JUMPI POP PUSH1 0x3 SLOAD NUMBER GT DUP1 ISZERO PUSH2 0x805 JUMPI POP PUSH1 0x3 SLOAD PUSH2 0x7CE SWAP1 NUMBER PUSH2 0xCE7 JUMP JUMPDEST DUP3 SLOAD DUP4 SWAP1 PUSH2 0x7DE SWAP1 PUSH1 0x1 SWAP1 PUSH2 0xCE7 JUMP JUMPDEST DUP2 SLOAD DUP2 LT PUSH2 0x7EE JUMPI PUSH2 0x7EE PUSH2 0xC88 JUMP JUMPDEST PUSH1 0x0 SWAP2 DUP3 MSTORE PUSH1 0x20 SWAP1 SWAP2 KECCAK256 ADD SLOAD PUSH1 0x1 PUSH1 0x1 PUSH1 0x80 SHL SUB AND LT JUMPDEST ISZERO PUSH2 0x852 JUMPI PUSH1 0x40 DUP1 MLOAD DUP1 DUP3 ADD SWAP1 SWAP2 MSTORE PUSH1 0x1 PUSH1 0x1 PUSH1 0x80 SHL SUB NUMBER DUP2 AND DUP3 MSTORE SWAP2 DUP3 AND PUSH1 0x20 DUP1 DUP4 ADD SWAP2 DUP3 MSTORE DUP5 SLOAD PUSH1 0x1 DUP2 ADD DUP7 SSTORE PUSH1 0x0 SWAP6 DUP7 MSTORE SWAP5 KECCAK256 SWAP2 MLOAD SWAP1 MLOAD DUP4 AND PUSH1 0x1 PUSH1 0x80 SHL MUL SWAP3 AND SWAP2 SWAP1 SWAP2 OR SWAP2 ADD SSTORE JUMP JUMPDEST DUP2 SLOAD PUSH1 0x0 SWAP1 DUP4 SWAP1 PUSH2 0x865 SWAP1 PUSH1 0x1 SWAP1 PUSH2 0xCE7 JUMP JUMPDEST DUP2 SLOAD DUP2 LT PUSH2 0x875 JUMPI PUSH2 0x875 PUSH2 0xC88 JUMP JUMPDEST PUSH1 0x0 SWAP2 DUP3 MSTORE PUSH1 0x20 SWAP1 SWAP2 KECCAK256 ADD DUP1 SLOAD PUSH1 0x1 PUSH1 0x1 PUSH1 0x80 SHL SUB DUP1 DUP6 AND PUSH1 0x1 PUSH1 0x80 SHL MUL SWAP2 AND OR SWAP1 SSTORE POP POP POP JUMP JUMPDEST DUP2 SLOAD PUSH1 0x0 SWAP1 PUSH2 0x8AE JUMPI POP PUSH1 0x0 PUSH2 0x3BA JUMP JUMPDEST DUP3 SLOAD DUP4 SWAP1 PUSH2 0x8BE SWAP1 PUSH1 0x1 SWAP1 PUSH2 0xCE7 JUMP JUMPDEST DUP2 SLOAD DUP2 LT PUSH2 0x8CE JUMPI PUSH2 0x8CE PUSH2 0xC88 JUMP JUMPDEST PUSH1 0x0 SWAP2 DUP3 MSTORE PUSH1 0x20 SWAP1 SWAP2 KECCAK256 ADD SLOAD PUSH1 0x1 PUSH1 0x1 PUSH1 0x80 SHL SUB AND DUP3 LT PUSH2 0x92C JUMPI DUP3 SLOAD DUP4 SWAP1 PUSH2 0x8F9 SWAP1 PUSH1 0x1 SWAP1 PUSH2 0xCE7 JUMP JUMPDEST DUP2 SLOAD DUP2 LT PUSH2 0x909 JUMPI PUSH2 0x909 PUSH2 0xC88 JUMP JUMPDEST PUSH1 0x0 SWAP2 DUP3 MSTORE PUSH1 0x20 SWAP1 SWAP2 KECCAK256 ADD SLOAD PUSH1 0x1 PUSH1 0x80 SHL SWAP1 DIV PUSH1 0x1 PUSH1 0x1 PUSH1 0x80 SHL SUB AND SWAP1 POP PUSH2 0x3BA JUMP JUMPDEST DUP3 PUSH1 0x0 DUP2 SLOAD DUP2 LT PUSH2 0x93F JUMPI PUSH2 0x93F PUSH2 0xC88 JUMP JUMPDEST PUSH1 0x0 SWAP2 DUP3 MSTORE PUSH1 0x20 SWAP1 SWAP2 KECCAK256 ADD SLOAD PUSH1 0x1 PUSH1 0x1 PUSH1 0x80 SHL SUB AND DUP3 LT ISZERO PUSH2 0x963 JUMPI POP PUSH1 0x0 PUSH2 0x3BA JUMP JUMPDEST DUP3 SLOAD PUSH1 0x0 SWAP1 DUP2 SWAP1 PUSH2 0x976 SWAP1 PUSH1 0x1 SWAP1 PUSH2 0xCE7 JUMP JUMPDEST SWAP1 POP JUMPDEST DUP2 DUP2 GT ISZERO PUSH2 0x9EF JUMPI PUSH1 0x0 PUSH1 0x2 PUSH2 0x98F DUP5 DUP5 PUSH2 0xCB4 JUMP JUMPDEST PUSH2 0x99A SWAP1 PUSH1 0x1 PUSH2 0xCB4 JUMP JUMPDEST PUSH2 0x9A4 SWAP2 SWAP1 PUSH2 0xCFE JUMP JUMPDEST SWAP1 POP DUP5 DUP7 DUP3 DUP2 SLOAD DUP2 LT PUSH2 0x9B9 JUMPI PUSH2 0x9B9 PUSH2 0xC88 JUMP JUMPDEST PUSH1 0x0 SWAP2 DUP3 MSTORE PUSH1 0x20 SWAP1 SWAP2 KECCAK256 ADD SLOAD PUSH1 0x1 PUSH1 0x1 PUSH1 0x80 SHL SUB AND GT PUSH2 0x9DB JUMPI DUP1 SWAP3 POP PUSH2 0x9E9 JUMP JUMPDEST PUSH2 0x9E6 PUSH1 0x1 DUP3 PUSH2 0xCE7 JUMP JUMPDEST SWAP2 POP JUMPDEST POP PUSH2 0x979 JUMP JUMPDEST DUP5 DUP3 DUP2 SLOAD DUP2 LT PUSH2 0xA01 JUMPI PUSH2 0xA01 PUSH2 0xC88 JUMP JUMPDEST PUSH1 0x0 SWAP2 DUP3 MSTORE PUSH1 0x20 SWAP1 SWAP2 KECCAK256 ADD SLOAD PUSH1 0x1 PUSH1 0x80 SHL SWAP1 DIV PUSH1 0x1 PUSH1 0x1 PUSH1 0x80 SHL SUB AND SWAP6 SWAP5 POP POP POP POP POP JUMP JUMPDEST PUSH1 0x0 DUP1 SLOAD PUSH1 0x1 PUSH1 0x1 PUSH1 0xA0 SHL SUB DUP4 DUP2 AND PUSH1 0x1 PUSH1 0x1 PUSH1 0xA0 SHL SUB NOT DUP4 AND DUP2 OR DUP5 SSTORE PUSH1 0x40 MLOAD SWAP2 SWAP1 SWAP3 AND SWAP3 DUP4 SWAP2 PUSH32 0x8BE0079C531659141344CD1FD0A4F28419497F9722A3DAAFE3B4186F6B6457E0 SWAP2 SWAP1 LOG3 POP POP JUMP JUMPDEST PUSH4 0x4E487B71 PUSH1 0xE0 SHL PUSH1 0x0 MSTORE PUSH1 0x41 PUSH1 0x4 MSTORE PUSH1 0x24 PUSH1 0x0 REVERT JUMPDEST PUSH1 0x40 MLOAD PUSH1 0x1F DUP3 ADD PUSH1 0x1F NOT AND DUP2 ADD PUSH8 0xFFFFFFFFFFFFFFFF DUP2 GT DUP3 DUP3 LT OR ISZERO PUSH2 0xAB5 JUMPI PUSH2 0xAB5 PUSH2 0xA76 JUMP JUMPDEST PUSH1 0x40 MSTORE SWAP2 SWAP1 POP JUMP JUMPDEST PUSH1 0x0 PUSH8 0xFFFFFFFFFFFFFFFF DUP3 GT ISZERO PUSH2 0xAD7 JUMPI PUSH2 0xAD7 PUSH2 0xA76 JUMP JUMPDEST POP PUSH1 0x5 SHL PUSH1 0x20 ADD SWAP1 JUMP JUMPDEST DUP1 CALLDATALOAD PUSH1 0x1 PUSH1 0x1 PUSH1 0xA0 SHL SUB DUP2 AND DUP2 EQ PUSH2 0x5A9 JUMPI PUSH1 0x0 DUP1 REVERT JUMPDEST PUSH1 0x0 DUP3 PUSH1 0x1F DUP4 ADD SLT PUSH2 0xB09 JUMPI PUSH1 0x0 DUP1 REVERT JUMPDEST DUP2 CALLDATALOAD PUSH1 0x20 PUSH2 0xB1E PUSH2 0xB19 DUP4 PUSH2 0xABD JUMP JUMPDEST PUSH2 0xA8C JUMP JUMPDEST DUP3 DUP2 MSTORE PUSH1 0x5 SWAP3 SWAP1 SWAP3 SHL DUP5 ADD DUP2 ADD SWAP2 DUP2 DUP2 ADD SWAP1 DUP7 DUP5 GT ISZERO PUSH2 0xB3D JUMPI PUSH1 0x0 DUP1 REVERT JUMPDEST DUP3 DUP7 ADD JUMPDEST DUP5 DUP2 LT ISZERO PUSH2 0xB58 JUMPI DUP1 CALLDATALOAD DUP4 MSTORE SWAP2 DUP4 ADD SWAP2 DUP4 ADD PUSH2 0xB41 JUMP JUMPDEST POP SWAP7 SWAP6 POP POP POP POP POP POP JUMP JUMPDEST PUSH1 0x0 DUP1 PUSH1 0x40 DUP4 DUP6 SUB SLT ISZERO PUSH2 0xB76 JUMPI PUSH1 0x0 DUP1 REVERT JUMPDEST DUP3 CALLDATALOAD PUSH8 0xFFFFFFFFFFFFFFFF DUP1 DUP3 GT ISZERO PUSH2 0xB8E JUMPI PUSH1 0x0 DUP1 REVERT JUMPDEST DUP2 DUP6 ADD SWAP2 POP DUP6 PUSH1 0x1F DUP4 ADD SLT PUSH2 0xBA2 JUMPI PUSH1 0x0 DUP1 REVERT JUMPDEST DUP2 CALLDATALOAD PUSH1 0x20 PUSH2 0xBB2 PUSH2 0xB19 DUP4 PUSH2 0xABD JUMP JUMPDEST DUP3 DUP2 MSTORE PUSH1 0x5 SWAP3 SWAP1 SWAP3 SHL DUP5 ADD DUP2 ADD SWAP2 DUP2 DUP2 ADD SWAP1 DUP10 DUP5 GT ISZERO PUSH2 0xBD1 JUMPI PUSH1 0x0 DUP1 REVERT JUMPDEST SWAP5 DUP3 ADD SWAP5 JUMPDEST DUP4 DUP7 LT ISZERO PUSH2 0xBF6 JUMPI PUSH2 0xBE7 DUP7 PUSH2 0xAE1 JUMP JUMPDEST DUP3 MSTORE SWAP5 DUP3 ADD SWAP5 SWAP1 DUP3 ADD SWAP1 PUSH2 0xBD6 JUMP JUMPDEST SWAP7 POP POP DUP7 ADD CALLDATALOAD SWAP3 POP POP DUP1 DUP3 GT ISZERO PUSH2 0xC0C JUMPI PUSH1 0x0 DUP1 REVERT JUMPDEST POP PUSH2 0xC19 DUP6 DUP3 DUP7 ADD PUSH2 0xAF8 JUMP JUMPDEST SWAP2 POP POP SWAP3 POP SWAP3 SWAP1 POP JUMP JUMPDEST PUSH1 0x0 DUP1 PUSH1 0x40 DUP4 DUP6 SUB SLT ISZERO PUSH2 0xC36 JUMPI PUSH1 0x0 DUP1 REVERT JUMPDEST PUSH2 0xC3F DUP4 PUSH2 0xAE1 JUMP JUMPDEST SWAP5 PUSH1 0x20 SWAP4 SWAP1 SWAP4 ADD CALLDATALOAD SWAP4 POP POP POP JUMP JUMPDEST PUSH1 0x0 PUSH1 0x20 DUP3 DUP5 SUB SLT ISZERO PUSH2 0xC5F JUMPI PUSH1 0x0 DUP1 REVERT JUMPDEST PUSH2 0xC68 DUP3 PUSH2 0xAE1 JUMP JUMPDEST SWAP4 SWAP3 POP POP POP JUMP JUMPDEST PUSH1 0x0 PUSH1 0x20 DUP3 DUP5 SUB SLT ISZERO PUSH2 0xC81 JUMPI PUSH1 0x0 DUP1 REVERT JUMPDEST POP CALLDATALOAD SWAP2 SWAP1 POP JUMP JUMPDEST PUSH4 0x4E487B71 PUSH1 0xE0 SHL PUSH1 0x0 MSTORE PUSH1 0x32 PUSH1 0x4 MSTORE PUSH1 0x24 PUSH1 0x0 REVERT JUMPDEST PUSH4 0x4E487B71 PUSH1 0xE0 SHL PUSH1 0x0 MSTORE PUSH1 0x11 PUSH1 0x4 MSTORE PUSH1 0x24 PUSH1 0x0 REVERT JUMPDEST PUSH1 0x0 DUP3 NOT DUP3 GT ISZERO PUSH2 0xCC7 JUMPI PUSH2 0xCC7 PUSH2 0xC9E JUMP JUMPDEST POP ADD SWAP1 JUMP JUMPDEST PUSH1 0x0 PUSH1 0x0 NOT DUP3 EQ ISZERO PUSH2 0xCE0 JUMPI PUSH2 0xCE0 PUSH2 0xC9E JUMP JUMPDEST POP PUSH1 0x1 ADD SWAP1 JUMP JUMPDEST PUSH1 0x0 DUP3 DUP3 LT ISZERO PUSH2 0xCF9 JUMPI PUSH2 0xCF9 PUSH2 0xC9E JUMP JUMPDEST POP SUB SWAP1 JUMP JUMPDEST PUSH1 0x0 DUP3 PUSH2 0xD1B JUMPI PUSH4 0x4E487B71 PUSH1 0xE0 SHL PUSH1 0x0 MSTORE PUSH1 0x12 PUSH1 0x4 MSTORE PUSH1 0x24 PUSH1 0x0 REVERT JUMPDEST POP DIV SWAP1 JUMP INVALID LOG2 PUSH5 0x6970667358 0x22 SLT KECCAK256 LT 0xD7 LOG3 0xDC DIFFICULTY SWAP2 0x5D PUSH27 0xD9E84BEA40B1DC2CCB390FE31F3A2FA08F640F3008002AA364736F PUSH13 0x63430008080033000000000000 "
		},
		"gasEstimates": {
			"creation": {
				"codeDepositCost": "682800",
				"executionCost": "72898",
				"totalCost": "755698"
			},
			"external": {
				"balanceOf(address)": "infinite",
				"balanceOfAt(address,uint256)": "infinite",
				"burn(address,uint256)": "infinite",
				"checkpoint_interval()": "2384",
				"decimals()": "2375",
				"mint(address,uint256)": "infinite",
				"mintMultiple(address[],uint256[])": "infinite",
				"owner()": "2368",
				"renounceOwnership()": "infinite",
				"totalSupply()": "infinite",
				"totalSupplyAt(uint256)": "infinite",
				"transferOwnership(address)": "28421",
				"updateCheckpointInterval(uint256)": "24577"
			}
		},
		"methodIdentifiers": {
			"balanceOf(address)": "70a08231",
			"balanceOfAt(address,uint256)": "4ee2cd7e",
			"burn(address,uint256)": "9dc29fac",
			"checkpoint_interval()": "4104f64f",
			"decimals()": "313ce567",
			"mint(address,uint256)": "40c10f19",
			"mintMultiple(address[],uint256[])": "07ea5477",
			"owner()": "8da5cb5b",
			"renounceOwnership()": "715018a6",
			"totalSupply()": "18160ddd",
			"totalSupplyAt(uint256)": "981b24d0",
			"transferOwnership(address)": "f2fde38b",
			"updateCheckpointInterval(uint256)": "ade4dcfb"
		}
	},
	"abi": [
		{
			"inputs": [],
			"stateMutability": "nonpayable",
			"type": "constructor"
		},
		{
			"anonymous": false,
			"inputs": [
				{
					"indexed": true,
					"internalType": "address",
					"name": "_from",
					"type": "address"
				},
				{
					"indexed": false,
					"internalType": "uint256",
					"name": "_amount",
					"type": "uint256"
				}
			],
			"name": "Burn",
			"type": "event"
		},
		{
			"anonymous": false,
			"inputs": [
				{
					"indexed": true,
					"internalType": "address",
					"name": "_to",
					"type": "address"
				},
				{
					"indexed": false,
					"internalType": "uint256",
					"name": "_amount",
					"type": "uint256"
				}
			],
			"name": "Mint",
			"type": "event"
		},
		{
			"anonymous": false,
			"inputs": [
				{
					"indexed": true,
					"internalType": "address",
					"name": "previousOwner",
					"type": "address"
				},
				{
					"indexed": true,
					"internalType": "address",
					"name": "newOwner",
					"type": "address"
				}
			],
			"name": "OwnershipTransferred",
			"type": "event"
		},
		{
			"inputs": [
				{
					"internalType": "address",
					"name": "_owner",
					"type": "address"
				}
			],
			"name": "balanceOf",
			"outputs": [
				{
					"internalType": "uint256",
					"name": "balance",
					"type": "uint256"
				}
			],
			"stateMutability": "view",
			"type": "function"
		},
		{
			"inputs": [
				{
					"internalType": "address",
					"name": "_owner",
					"type": "address"
				},
				{
					"internalType": "uint256",
					"name": "_blockNumber",
					"type": "uint256"
				}
			],
			"name": "balanceOfAt",
			"outputs": [
				{
					"internalType": "uint256",
					"name": "",
					"type": "uint256"
				}
			],
			"stateMutability": "view",
			"type": "function"
		},
		{
			"inputs": [
				{
					"internalType": "address",
					"name": "_user",
					"type": "address"
				},
				{
					"internalType": "uint256",
					"name": "_amount",
					"type": "uint256"
				}
			],
			"name": "burn",
			"outputs": [
				{
					"internalType": "bool",
					"name": "",
					"type": "bool"
				}
			],
			"stateMutability": "nonpayable",
			"type": "function"
		},
		{
			"inputs": [],
			"name": "checkpoint_interval",
			"outputs": [
				{
					"internalType": "uint256",
					"name": "",
					"type": "uint256"
				}
			],
			"stateMutability": "view",
			"type": "function"
		},
		{
			"inputs": [],
			"name": "decimals",
			"outputs": [
				{
					"internalType": "uint8",
					"name": "",
					"type": "uint8"
				}
			],
			"stateMutability": "view",
			"type": "function"
		},
		{
			"inputs": [
				{
					"internalType": "address",
					"name": "_user",
					"type": "address"
				},
				{
					"internalType": "uint256",
					"name": "_amount",
					"type": "uint256"
				}
			],
			"name": "mint",
			"outputs": [
				{
					"internalType": "bool",
					"name": "",
					"type": "bool"
				}
			],
			"stateMutability": "nonpayable",
			"type": "function"
		},
		{
			"inputs": [
				{
					"internalType": "address[]",
					"name": "_user",
					"type": "address[]"
				},
				{
					"internalType": "uint256[]",
					"name": "_amount",
					"type": "uint256[]"
				}
			],
			"name": "mintMultiple",
			"outputs": [
				{
					"internalType": "bool",
					"name": "",
					"type": "bool"
				}
			],
			"stateMutability": "nonpayable",
			"type": "function"
		},
		{
			"inputs": [],
			"name": "owner",
			"outputs": [
				{
					"internalType": "address",
					"name": "",
					"type": "address"
				}
			],
			"stateMutability": "view",
			"type": "function"
		},
		{
			"inputs": [],
			"name": "renounceOwnership",
			"outputs": [],
			"stateMutability": "nonpayable",
			"type": "function"
		},
		{
			"inputs": [],
			"name": "totalSupply",
			"outputs": [
				{
					"internalType": "uint256",
					"name": "",
					"type": "uint256"
				}
			],
			"stateMutability": "view",
			"type": "function"
		},
		{
			"inputs": [
				{
					"internalType": "uint256",
					"name": "_blockNumber",
					"type": "uint256"
				}
			],
			"name": "totalSupplyAt",
			"outputs": [
				{
					"internalType": "uint256",
					"name": "",
					"type": "uint256"
				}
			],
			"stateMutability": "view",
			"type": "function"
		},
		{
			"inputs": [
				{
					"internalType": "address",
					"name": "newOwner",
					"type": "address"
				}
			],
			"name": "transferOwnership",
			"outputs": [],
			"stateMutability": "nonpayable",
			"type": "function"
		},
		{
			"inputs": [
				{
					"internalType": "uint256",
					"name": "new_interval_",
					"type": "uint256"
				}
			],
			"name": "updateCheckpointInterval",
			"outputs": [],
			"stateMutability": "nonpayable",
			"type": "function"
		}
	]
}