{
	"contracts/worksystems/AddressManager.sol": {
		"AddressManager": {
			"abi": [
				{
					"anonymous": false,
					"inputs": [
						{
							"indexed": true,
							"internalType": "address",
							"name": "account",
							"type": "address"
						},
						{
							"indexed": false,
							"internalType": "address",
							"name": "account2",
							"type": "address"
						}
					],
					"name": "AddressAddedByMaster",
					"type": "event"
				},
				{
					"anonymous": false,
					"inputs": [
						{
							"indexed": true,
							"internalType": "address",
							"name": "account",
							"type": "address"
						},
						{
							"indexed": false,
							"internalType": "address",
							"name": "account2",
							"type": "address"
						}
					],
					"name": "AddressAddedByWorker",
					"type": "event"
				},
				{
					"anonymous": false,
					"inputs": [
						{
							"indexed": true,
							"internalType": "address",
							"name": "account",
							"type": "address"
						},
						{
							"indexed": false,
							"internalType": "address",
							"name": "account2",
							"type": "address"
						}
					],
					"name": "AddressRemovedByMaster",
					"type": "event"
				},
				{
					"anonymous": false,
					"inputs": [
						{
							"indexed": true,
							"internalType": "address",
							"name": "account",
							"type": "address"
						},
						{
							"indexed": false,
							"internalType": "address",
							"name": "account2",
							"type": "address"
						}
					],
					"name": "AddressRemovedByWorker",
					"type": "event"
				},
				{
					"anonymous": false,
					"inputs": [
						{
							"indexed": true,
							"internalType": "address",
							"name": "previousOwner",
							"type": "address"
						},
						{
							"indexed": true,
							"internalType": "address",
							"name": "newOwner",
							"type": "address"
						}
					],
					"name": "OwnershipTransferred",
					"type": "event"
				},
				{
					"anonymous": false,
					"inputs": [
						{
							"indexed": true,
							"internalType": "address",
							"name": "account",
							"type": "address"
						},
						{
							"indexed": false,
							"internalType": "address",
							"name": "account2",
							"type": "address"
						}
					],
					"name": "ReputationTransfered",
					"type": "event"
				},
				{
					"anonymous": false,
					"inputs": [
						{
							"indexed": true,
							"internalType": "address",
							"name": "account",
							"type": "address"
						},
						{
							"indexed": false,
							"internalType": "address",
							"name": "account2",
							"type": "address"
						}
					],
					"name": "RewardsTransfered",
					"type": "event"
				},
				{
					"inputs": [
						{
							"internalType": "address",
							"name": "_master",
							"type": "address"
						},
						{
							"internalType": "address",
							"name": "_address",
							"type": "address"
						}
					],
					"name": "AreMasterSubLinked",
					"outputs": [
						{
							"internalType": "bool",
							"name": "",
							"type": "bool"
						}
					],
					"stateMutability": "view",
					"type": "function"
				},
				{
					"inputs": [
						{
							"internalType": "address",
							"name": "_master",
							"type": "address"
						}
					],
					"name": "ClaimMaster",
					"outputs": [],
					"stateMutability": "nonpayable",
					"type": "function"
				},
				{
					"inputs": [
						{
							"internalType": "address",
							"name": "_worker",
							"type": "address"
						}
					],
					"name": "FetchHighestMaster",
					"outputs": [
						{
							"internalType": "address",
							"name": "",
							"type": "address"
						}
					],
					"stateMutability": "view",
					"type": "function"
				},
				{
					"inputs": [
						{
							"internalType": "address[]",
							"name": "_addresses",
							"type": "address[]"
						}
					],
					"name": "MasterClaimManySubs",
					"outputs": [],
					"stateMutability": "nonpayable",
					"type": "function"
				},
				{
					"inputs": [
						{
							"internalType": "address",
							"name": "_address",
							"type": "address"
						}
					],
					"name": "MasterClaimSub",
					"outputs": [],
					"stateMutability": "nonpayable",
					"type": "function"
				},
				{
					"inputs": [
						{
							"internalType": "address",
							"name": "",
							"type": "address"
						},
						{
							"internalType": "address",
							"name": "",
							"type": "address"
						}
					],
					"name": "MasterClaimingWorker",
					"outputs": [
						{
							"internalType": "bool",
							"name": "",
							"type": "bool"
						}
					],
					"stateMutability": "view",
					"type": "function"
				},
				{
					"inputs": [
						{
							"internalType": "address[]",
							"name": "_addresses",
							"type": "address[]"
						}
					],
					"name": "MasterRemoveManySubs",
					"outputs": [],
					"stateMutability": "nonpayable",
					"type": "function"
				},
				{
					"inputs": [
						{
							"internalType": "address",
							"name": "_address",
							"type": "address"
						}
					],
					"name": "MasterRemoveSub",
					"outputs": [],
					"stateMutability": "nonpayable",
					"type": "function"
				},
				{
					"inputs": [
						{
							"internalType": "address",
							"name": "",
							"type": "address"
						},
						{
							"internalType": "uint256",
							"name": "",
							"type": "uint256"
						}
					],
					"name": "MasterToSubsMap",
					"outputs": [
						{
							"internalType": "address",
							"name": "",
							"type": "address"
						}
					],
					"stateMutability": "view",
					"type": "function"
				},
				{
					"inputs": [
						{
							"internalType": "address",
							"name": "_master",
							"type": "address"
						}
					],
					"name": "RemoveMaster",
					"outputs": [],
					"stateMutability": "nonpayable",
					"type": "function"
				},
				{
					"inputs": [],
					"name": "RepManager",
					"outputs": [
						{
							"internalType": "contract IRepManager",
							"name": "",
							"type": "address"
						}
					],
					"stateMutability": "view",
					"type": "function"
				},
				{
					"inputs": [],
					"name": "Reputation",
					"outputs": [
						{
							"internalType": "contract IReputation",
							"name": "",
							"type": "address"
						}
					],
					"stateMutability": "view",
					"type": "function"
				},
				{
					"inputs": [],
					"name": "RewardManager",
					"outputs": [
						{
							"internalType": "contract IRewardManager",
							"name": "",
							"type": "address"
						}
					],
					"stateMutability": "view",
					"type": "function"
				},
				{
					"inputs": [
						{
							"internalType": "address",
							"name": "",
							"type": "address"
						}
					],
					"name": "SubToMasterMap",
					"outputs": [
						{
							"internalType": "address",
							"name": "",
							"type": "address"
						}
					],
					"stateMutability": "view",
					"type": "function"
				},
				{
					"inputs": [
						{
							"internalType": "address",
							"name": "",
							"type": "address"
						},
						{
							"internalType": "address",
							"name": "",
							"type": "address"
						}
					],
					"name": "WorkerClaimingMaster",
					"outputs": [
						{
							"internalType": "bool",
							"name": "",
							"type": "bool"
						}
					],
					"stateMutability": "view",
					"type": "function"
				},
				{
					"inputs": [
						{
							"internalType": "address",
							"name": "_worker",
							"type": "address"
						}
					],
					"name": "getMaster",
					"outputs": [
						{
							"internalType": "address",
							"name": "",
							"type": "address"
						}
					],
					"stateMutability": "view",
					"type": "function"
				},
				{
					"inputs": [
						{
							"internalType": "address",
							"name": "_master",
							"type": "address"
						}
					],
					"name": "getMasterSubs",
					"outputs": [
						{
							"internalType": "address[]",
							"name": "",
							"type": "address[]"
						}
					],
					"stateMutability": "view",
					"type": "function"
				},
				{
					"inputs": [
						{
							"internalType": "address",
							"name": "_master",
							"type": "address"
						},
						{
							"internalType": "address",
							"name": "_address",
							"type": "address"
						}
					],
					"name": "isMasterOf",
					"outputs": [
						{
							"internalType": "bool",
							"name": "",
							"type": "bool"
						}
					],
					"stateMutability": "view",
					"type": "function"
				},
				{
					"inputs": [
						{
							"internalType": "address",
							"name": "_master",
							"type": "address"
						}
					],
					"name": "isMasterOfMe",
					"outputs": [
						{
							"internalType": "bool",
							"name": "",
							"type": "bool"
						}
					],
					"stateMutability": "view",
					"type": "function"
				},
				{
					"inputs": [
						{
							"internalType": "address",
							"name": "_worker",
							"type": "address"
						},
						{
							"internalType": "address",
							"name": "_master",
							"type": "address"
						}
					],
					"name": "isSubInMasterArray",
					"outputs": [
						{
							"internalType": "bool",
							"name": "",
							"type": "bool"
						}
					],
					"stateMutability": "view",
					"type": "function"
				},
				{
					"inputs": [
						{
							"internalType": "address",
							"name": "_master",
							"type": "address"
						},
						{
							"internalType": "address",
							"name": "_address",
							"type": "address"
						}
					],
					"name": "isSubWorkerOf",
					"outputs": [
						{
							"internalType": "bool",
							"name": "",
							"type": "bool"
						}
					],
					"stateMutability": "view",
					"type": "function"
				},
				{
					"inputs": [
						{
							"internalType": "address",
							"name": "_worker",
							"type": "address"
						}
					],
					"name": "isSubWorkerOfMe",
					"outputs": [
						{
							"internalType": "bool",
							"name": "",
							"type": "bool"
						}
					],
					"stateMutability": "view",
					"type": "function"
				},
				{
					"inputs": [],
					"name": "owner",
					"outputs": [
						{
							"internalType": "address",
							"name": "",
							"type": "address"
						}
					],
					"stateMutability": "view",
					"type": "function"
				},
				{
					"inputs": [],
					"name": "renounceOwnership",
					"outputs": [],
					"stateMutability": "nonpayable",
					"type": "function"
				},
				{
					"inputs": [
						{
							"internalType": "address",
							"name": "newOwner",
							"type": "address"
						}
					],
					"name": "transferOwnership",
					"outputs": [],
					"stateMutability": "nonpayable",
					"type": "function"
				},
				{
					"inputs": [
						{
							"internalType": "address",
							"name": "addr",
							"type": "address"
						}
					],
					"name": "updateRepManager",
					"outputs": [],
					"stateMutability": "nonpayable",
					"type": "function"
				},
				{
					"inputs": [
						{
							"internalType": "address",
							"name": "addr",
							"type": "address"
						}
					],
					"name": "updateReputation",
					"outputs": [],
					"stateMutability": "nonpayable",
					"type": "function"
				},
				{
					"inputs": [
						{
							"internalType": "address",
							"name": "addr",
							"type": "address"
						}
					],
					"name": "updateRewardManager",
					"outputs": [],
					"stateMutability": "nonpayable",
					"type": "function"
				}
			],
			"devdoc": {
				"kind": "dev",
				"methods": {
					"owner()": {
						"details": "Returns the address of the current owner."
					},
					"renounceOwnership()": {
						"details": "Leaves the contract without owner. It will not be possible to call `onlyOwner` functions anymore. Can only be called by the current owner. NOTE: Renouncing ownership will leave the contract without an owner, thereby removing any functionality that is only available to the owner."
					},
					"transferOwnership(address)": {
						"details": "Transfers ownership of the contract to a new account (`newOwner`). Can only be called by the current owner."
					}
				},
				"version": 1
			},
			"evm": {
				"assembly": "    /* \"contracts/worksystems/AddressManager.sol\":909:10345  contract AddressManager is Ownable{\r... */\n  mstore(0x40, 0x80)\n    /* \"contracts/worksystems/AddressManager.sol\":1540:1541  5 */\n  0x05\n    /* \"contracts/worksystems/AddressManager.sol\":1511:1541  uint256 MAX_MASTER_LOOKUP  = 5 */\n  dup1\n  sstore\n    /* \"contracts/worksystems/AddressManager.sol\":909:10345  contract AddressManager is Ownable{\r... */\n  callvalue\n  dup1\n  iszero\n  tag_1\n  jumpi\n  0x00\n  dup1\n  revert\ntag_1:\n  pop\n    /* \"@openzeppelin/contracts/access/Ownable.sol\":921:953  _transferOwnership(_msgSender()) */\n  tag_4\n    /* \"@openzeppelin/contracts/access/Ownable.sol\":940:952  _msgSender() */\n  tag_5\n    /* \"@openzeppelin/contracts/access/Ownable.sol\":940:950  _msgSender */\n  tag_6\n    /* \"@openzeppelin/contracts/access/Ownable.sol\":940:952  _msgSender() */\n  jump\t// in\ntag_5:\n    /* \"@openzeppelin/contracts/access/Ownable.sol\":921:939  _transferOwnership */\n  tag_7\n    /* \"@openzeppelin/contracts/access/Ownable.sol\":921:953  _transferOwnership(_msgSender()) */\n  jump\t// in\ntag_4:\n    /* \"contracts/worksystems/AddressManager.sol\":909:10345  contract AddressManager is Ownable{\r... */\n  jump(tag_8)\n    /* \"@openzeppelin/contracts/utils/Context.sol\":640:736  function _msgSender() internal view virtual returns (address) {... */\ntag_6:\n    /* \"@openzeppelin/contracts/utils/Context.sol\":719:729  msg.sender */\n  caller\n    /* \"@openzeppelin/contracts/utils/Context.sol\":640:736  function _msgSender() internal view virtual returns (address) {... */\n  swap1\n  jump\t// out\n    /* \"@openzeppelin/contracts/access/Ownable.sol\":2270:2457  function _transferOwnership(address newOwner) internal virtual {... */\ntag_7:\n    /* \"@openzeppelin/contracts/access/Ownable.sol\":2343:2359  address oldOwner */\n  0x00\n    /* \"@openzeppelin/contracts/access/Ownable.sol\":2362:2368  _owner */\n  dup1\n  sload\n  sub(shl(0xa0, 0x01), 0x01)\n    /* \"@openzeppelin/contracts/access/Ownable.sol\":2378:2395  _owner = newOwner */\n  dup4\n  dup2\n  and\n  not(sub(shl(0xa0, 0x01), 0x01))\n  dup4\n  and\n  dup2\n  or\n  dup5\n  sstore\n    /* \"@openzeppelin/contracts/access/Ownable.sol\":2410:2450  OwnershipTransferred(oldOwner, newOwner) */\n  mload(0x40)\n    /* \"@openzeppelin/contracts/access/Ownable.sol\":2362:2368  _owner */\n  swap2\n  swap1\n  swap3\n  and\n  swap3\n  dup4\n  swap2\n    /* \"@openzeppelin/contracts/access/Ownable.sol\":2410:2450  OwnershipTransferred(oldOwner, newOwner) */\n  0x8be0079c531659141344cd1fd0a4f28419497f9722a3daafe3b4186f6b6457e0\n  swap2\n    /* \"@openzeppelin/contracts/access/Ownable.sol\":2343:2359  address oldOwner */\n  swap1\n    /* \"@openzeppelin/contracts/access/Ownable.sol\":2410:2450  OwnershipTransferred(oldOwner, newOwner) */\n  log3\n    /* \"@openzeppelin/contracts/access/Ownable.sol\":2270:2457  function _transferOwnership(address newOwner) internal virtual {... */\n  pop\n  pop\n  jump\t// out\n    /* \"contracts/worksystems/AddressManager.sol\":909:10345  contract AddressManager is Ownable{\r... */\ntag_8:\n  dataSize(sub_0)\n  dup1\n  dataOffset(sub_0)\n  0x00\n  codecopy\n  0x00\n  return\nstop\n\nsub_0: assembly {\n        /* \"contracts/worksystems/AddressManager.sol\":909:10345  contract AddressManager is Ownable{\r... */\n      mstore(0x40, 0x80)\n      callvalue\n      dup1\n      iszero\n      tag_1\n      jumpi\n      0x00\n      dup1\n      revert\n    tag_1:\n      pop\n      jumpi(tag_2, lt(calldatasize, 0x04))\n      shr(0xe0, calldataload(0x00))\n      dup1\n      0x715018a6\n      gt\n      tag_31\n      jumpi\n      dup1\n      0xdb519824\n      gt\n      tag_32\n      jumpi\n      dup1\n      0xe4f1d0fd\n      gt\n      tag_33\n      jumpi\n      dup1\n      0xe4f1d0fd\n      eq\n      tag_27\n      jumpi\n      dup1\n      0xf25e9ed2\n      eq\n      tag_28\n      jumpi\n      dup1\n      0xf2fde38b\n      eq\n      tag_29\n      jumpi\n      dup1\n      0xf77c8658\n      eq\n      tag_30\n      jumpi\n      jump(tag_2)\n    tag_33:\n      dup1\n      0xdb519824\n      eq\n      tag_24\n      jumpi\n      dup1\n      0xdd618682\n      eq\n      tag_25\n      jumpi\n      dup1\n      0xdf77a0f6\n      eq\n      tag_26\n      jumpi\n      jump(tag_2)\n    tag_32:\n      dup1\n      0x96daff56\n      gt\n      tag_34\n      jumpi\n      dup1\n      0x96daff56\n      eq\n      tag_20\n      jumpi\n      dup1\n      0x9904ed8d\n      eq\n      tag_21\n      jumpi\n      dup1\n      0x9f62c379\n      eq\n      tag_22\n      jumpi\n      dup1\n      0xac8d65cb\n      eq\n      tag_20\n      jumpi\n      jump(tag_2)\n    tag_34:\n      dup1\n      0x715018a6\n      eq\n      tag_17\n      jumpi\n      dup1\n      0x8213b8d8\n      eq\n      tag_18\n      jumpi\n      dup1\n      0x8da5cb5b\n      eq\n      tag_19\n      jumpi\n      jump(tag_2)\n    tag_31:\n      dup1\n      0x29a47bc7\n      gt\n      tag_35\n      jumpi\n      dup1\n      0x39c3f6e7\n      gt\n      tag_36\n      jumpi\n      dup1\n      0x39c3f6e7\n      eq\n      tag_13\n      jumpi\n      dup1\n      0x4826d043\n      eq\n      tag_14\n      jumpi\n      dup1\n      0x51912f29\n      eq\n      tag_15\n      jumpi\n      dup1\n      0x584720f5\n      eq\n      tag_16\n      jumpi\n      jump(tag_2)\n    tag_36:\n      dup1\n      0x29a47bc7\n      eq\n      tag_10\n      jumpi\n      dup1\n      0x2e3ce457\n      eq\n      tag_11\n      jumpi\n      dup1\n      0x342bffbf\n      eq\n      tag_12\n      jumpi\n      jump(tag_2)\n    tag_35:\n      dup1\n      0x11815086\n      gt\n      tag_37\n      jumpi\n      dup1\n      0x11815086\n      eq\n      tag_6\n      jumpi\n      dup1\n      0x12ccb147\n      eq\n      tag_7\n      jumpi\n      dup1\n      0x1778f9c8\n      eq\n      tag_8\n      jumpi\n      dup1\n      0x198ff3dc\n      eq\n      tag_9\n      jumpi\n      jump(tag_2)\n    tag_37:\n      dup1\n      0x050eb2eb\n      eq\n      tag_3\n      jumpi\n      dup1\n      0x0c06e4df\n      eq\n      tag_4\n      jumpi\n      dup1\n      0x0e90e565\n      eq\n      tag_5\n      jumpi\n    tag_2:\n      0x00\n      dup1\n      revert\n        /* \"contracts/worksystems/AddressManager.sol\":2597:2728  function updateRewardManager(address addr)\r... */\n    tag_3:\n      tag_38\n      tag_39\n      calldatasize\n      0x04\n      tag_40\n      jump\t// in\n    tag_39:\n      tag_41\n      jump\t// in\n    tag_38:\n      stop\n        /* \"contracts/worksystems/AddressManager.sol\":3406:3577  function isSubWorkerOfMe(address _worker)\r... */\n    tag_4:\n      tag_42\n      tag_43\n      calldatasize\n      0x04\n      tag_40\n      jump\t// in\n    tag_43:\n      tag_44\n      jump\t// in\n    tag_42:\n      mload(0x40)\n      tag_45\n      swap2\n      swap1\n      tag_46\n      jump\t// in\n    tag_45:\n      mload(0x40)\n      dup1\n      swap2\n      sub\n      swap1\n      return\n        /* \"contracts/worksystems/AddressManager.sol\":2333:2455  function updateReputation(address addr)\r... */\n    tag_5:\n      tag_38\n      tag_48\n      calldatasize\n      0x04\n      tag_40\n      jump\t// in\n    tag_48:\n      tag_49\n      jump\t// in\n        /* \"contracts/worksystems/AddressManager.sol\":7169:7728  function FetchHighestMaster(address _worker) public view returns (address){\r... */\n    tag_6:\n      tag_50\n      tag_51\n      calldatasize\n      0x04\n      tag_40\n      jump\t// in\n    tag_51:\n      tag_52\n      jump\t// in\n    tag_50:\n      mload(0x40)\n      tag_45\n      swap2\n      swap1\n      tag_54\n      jump\t// in\n        /* \"contracts/worksystems/AddressManager.sol\":5433:5675  function MasterClaimSub(address _address)\r... */\n    tag_7:\n      tag_38\n      tag_56\n      calldatasize\n      0x04\n      tag_40\n      jump\t// in\n    tag_56:\n      tag_57\n      jump\t// in\n        /* \"contracts/worksystems/AddressManager.sol\":1073:1148  mapping (address =>  mapping (address => bool)) public WorkerClaimingMaster */\n    tag_8:\n      tag_42\n      tag_59\n      calldatasize\n      0x04\n      tag_60\n      jump\t// in\n    tag_59:\n      tag_61\n      jump\t// in\n        /* \"contracts/worksystems/AddressManager.sol\":3174:3338  function getMasterSubs(address _master)\r... */\n    tag_9:\n      tag_63\n      tag_64\n      calldatasize\n      0x04\n      tag_40\n      jump\t// in\n    tag_64:\n      tag_65\n      jump\t// in\n    tag_63:\n      mload(0x40)\n      tag_45\n      swap2\n      swap1\n      tag_67\n      jump\t// in\n        /* \"contracts/worksystems/AddressManager.sol\":1586:1615  IRepManager public RepManager */\n    tag_10:\n      tag_50\n      tag_69\n      jump\t// in\n        /* \"contracts/worksystems/AddressManager.sol\":1193:1247  mapping (address =>  address[]) public MasterToSubsMap */\n    tag_11:\n      tag_50\n      tag_73\n      calldatasize\n      0x04\n      tag_74\n      jump\t// in\n    tag_73:\n      tag_75\n      jump\t// in\n        /* \"contracts/worksystems/AddressManager.sol\":956:1031  mapping (address =>  mapping (address => bool)) public MasterClaimingWorker */\n    tag_12:\n      tag_42\n      tag_78\n      calldatasize\n      0x04\n      tag_60\n      jump\t// in\n    tag_78:\n      tag_79\n      jump\t// in\n        /* \"contracts/worksystems/AddressManager.sol\":5683:6136  function MasterClaimManySubs(address[] memory _addresses)\r... */\n    tag_13:\n      tag_38\n      tag_82\n      calldatasize\n      0x04\n      tag_83\n      jump\t// in\n    tag_82:\n      tag_84\n      jump\t// in\n        /* \"contracts/worksystems/AddressManager.sol\":6172:6555  function MasterRemoveSub(address _address)\r... */\n    tag_14:\n      tag_38\n      tag_86\n      calldatasize\n      0x04\n      tag_40\n      jump\t// in\n    tag_86:\n      tag_87\n      jump\t// in\n        /* \"contracts/worksystems/AddressManager.sol\":1622:1657  IRewardManager public RewardManager */\n    tag_15:\n      tag_50\n      tag_89\n      jump\t// in\n        /* \"contracts/worksystems/AddressManager.sol\":9930:10334  function RemoveMaster(address _master)\r... */\n    tag_16:\n      tag_38\n      tag_93\n      calldatasize\n      0x04\n      tag_40\n      jump\t// in\n    tag_93:\n      tag_94\n      jump\t// in\n        /* \"@openzeppelin/contracts/access/Ownable.sol\":1668:1769  function renounceOwnership() public virtual onlyOwner {... */\n    tag_17:\n      tag_38\n      tag_96\n      jump\t// in\n        /* \"contracts/worksystems/AddressManager.sol\":6563:7017  function MasterRemoveManySubs(address[] memory _addresses)\r... */\n    tag_18:\n      tag_38\n      tag_98\n      calldatasize\n      0x04\n      tag_83\n      jump\t// in\n    tag_98:\n      tag_99\n      jump\t// in\n        /* \"@openzeppelin/contracts/access/Ownable.sol\":1036:1121  function owner() public view virtual returns (address) {... */\n    tag_19:\n      tag_50\n      tag_101\n      jump\t// in\n        /* \"contracts/worksystems/AddressManager.sol\":2982:3164  function isMasterOf(address _master, address _address)\r... */\n    tag_20:\n      tag_42\n      tag_104\n      calldatasize\n      0x04\n      tag_60\n      jump\t// in\n    tag_104:\n      tag_105\n      jump\t// in\n        /* \"contracts/worksystems/AddressManager.sol\":1550:1579  IReputation public Reputation */\n    tag_21:\n      tag_50\n      tag_108\n      jump\t// in\n        /* \"contracts/worksystems/AddressManager.sol\":5037:5255  function AreMasterSubLinked(address _master, address _address)\r... */\n    tag_22:\n      tag_42\n      tag_112\n      calldatasize\n      0x04\n      tag_60\n      jump\t// in\n    tag_112:\n      tag_113\n      jump\t// in\n        /* \"contracts/worksystems/AddressManager.sol\":2804:2972  function isMasterOfMe(address _master)\r... */\n    tag_24:\n      tag_42\n      tag_120\n      calldatasize\n      0x04\n      tag_40\n      jump\t// in\n    tag_120:\n      tag_121\n      jump\t// in\n        /* \"contracts/worksystems/AddressManager.sol\":2463:2585  function updateRepManager(address addr)\r... */\n    tag_25:\n      tag_38\n      tag_124\n      calldatasize\n      0x04\n      tag_40\n      jump\t// in\n    tag_124:\n      tag_125\n      jump\t// in\n        /* \"contracts/worksystems/AddressManager.sol\":9566:9922  function ClaimMaster(address _master)\r... */\n    tag_26:\n      tag_38\n      tag_127\n      calldatasize\n      0x04\n      tag_40\n      jump\t// in\n    tag_127:\n      tag_128\n      jump\t// in\n        /* \"contracts/worksystems/AddressManager.sol\":1305:1356  mapping (address =>  address) public SubToMasterMap */\n    tag_27:\n      tag_50\n      tag_130\n      calldatasize\n      0x04\n      tag_40\n      jump\t// in\n    tag_130:\n      tag_131\n      jump\t// in\n        /* \"contracts/worksystems/AddressManager.sol\":4184:4334  function getMaster(address _worker)\r... */\n    tag_28:\n      tag_50\n      tag_134\n      calldatasize\n      0x04\n      tag_40\n      jump\t// in\n    tag_134:\n      tag_135\n      jump\t// in\n        /* \"@openzeppelin/contracts/access/Ownable.sol\":1918:2116  function transferOwnership(address newOwner) public virtual onlyOwner {... */\n    tag_29:\n      tag_38\n      tag_138\n      calldatasize\n      0x04\n      tag_40\n      jump\t// in\n    tag_138:\n      tag_139\n      jump\t// in\n        /* \"contracts/worksystems/AddressManager.sol\":3778:4176  function isSubInMasterArray(address _worker, address _master) public view returns(bool){\r... */\n    tag_30:\n      tag_42\n      tag_141\n      calldatasize\n      0x04\n      tag_60\n      jump\t// in\n    tag_141:\n      tag_142\n      jump\t// in\n        /* \"contracts/worksystems/AddressManager.sol\":2597:2728  function updateRewardManager(address addr)\r... */\n    tag_41:\n        /* \"@openzeppelin/contracts/access/Ownable.sol\":1259:1271  _msgSender() */\n      tag_145\n        /* \"@openzeppelin/contracts/access/Ownable.sol\":1259:1269  _msgSender */\n      tag_146\n        /* \"@openzeppelin/contracts/access/Ownable.sol\":1259:1271  _msgSender() */\n      jump\t// in\n    tag_145:\n      sub(shl(0xa0, 0x01), 0x01)\n        /* \"@openzeppelin/contracts/access/Ownable.sol\":1248:1271  owner() == _msgSender() */\n      and\n        /* \"@openzeppelin/contracts/access/Ownable.sol\":1248:1255  owner() */\n      tag_147\n        /* \"@openzeppelin/contracts/access/Ownable.sol\":1248:1253  owner */\n      tag_101\n        /* \"@openzeppelin/contracts/access/Ownable.sol\":1248:1255  owner() */\n      jump\t// in\n    tag_147:\n      sub(shl(0xa0, 0x01), 0x01)\n        /* \"@openzeppelin/contracts/access/Ownable.sol\":1248:1271  owner() == _msgSender() */\n      and\n      eq\n        /* \"@openzeppelin/contracts/access/Ownable.sol\":1240:1308  require(owner() == _msgSender(), \"Ownable: caller is not the owner\") */\n      tag_148\n      jumpi\n      mload(0x40)\n      shl(0xe5, 0x461bcd)\n      dup2\n      mstore\n      0x04\n      add\n      tag_149\n      swap1\n      tag_150\n      jump\t// in\n    tag_149:\n      mload(0x40)\n      dup1\n      swap2\n      sub\n      swap1\n      revert\n    tag_148:\n        /* \"contracts/worksystems/AddressManager.sol\":2683:2696  RewardManager */\n      0x08\n        /* \"contracts/worksystems/AddressManager.sol\":2683:2720  RewardManager  = IRewardManager(addr) */\n      dup1\n      sload\n      not(sub(shl(0xa0, 0x01), 0x01))\n      and\n      sub(shl(0xa0, 0x01), 0x01)\n      swap3\n      swap1\n      swap3\n      and\n      swap2\n      swap1\n      swap2\n      or\n      swap1\n      sstore\n        /* \"contracts/worksystems/AddressManager.sol\":2597:2728  function updateRewardManager(address addr)\r... */\n      jump\t// out\n        /* \"contracts/worksystems/AddressManager.sol\":3406:3577  function isSubWorkerOfMe(address _worker)\r... */\n    tag_44:\n        /* \"contracts/worksystems/AddressManager.sol\":3549:3559  msg.sender */\n      caller\n        /* \"contracts/worksystems/AddressManager.sol\":3496:3500  bool */\n      0x00\n        /* \"contracts/worksystems/AddressManager.sol\":3528:3560  MasterClaimingWorker[msg.sender] */\n      swap1\n      dup2\n      mstore\n        /* \"contracts/worksystems/AddressManager.sol\":3528:3548  MasterClaimingWorker */\n      0x01\n        /* \"contracts/worksystems/AddressManager.sol\":3528:3560  MasterClaimingWorker[msg.sender] */\n      0x20\n      swap1\n      dup2\n      mstore\n      0x40\n      dup1\n      dup4\n      keccak256\n      sub(shl(0xa0, 0x01), 0x01)\n        /* \"contracts/worksystems/AddressManager.sol\":3528:3569  MasterClaimingWorker[msg.sender][_worker] */\n      dup6\n      and\n      dup5\n      mstore\n      swap1\n      swap2\n      mstore\n      swap1\n      keccak256\n      sload\n      0xff\n      and\n        /* \"contracts/worksystems/AddressManager.sol\":3406:3577  function isSubWorkerOfMe(address _worker)\r... */\n    tag_152:\n      swap2\n      swap1\n      pop\n      jump\t// out\n        /* \"contracts/worksystems/AddressManager.sol\":2333:2455  function updateReputation(address addr)\r... */\n    tag_49:\n        /* \"@openzeppelin/contracts/access/Ownable.sol\":1259:1271  _msgSender() */\n      tag_154\n        /* \"@openzeppelin/contracts/access/Ownable.sol\":1259:1269  _msgSender */\n      tag_146\n        /* \"@openzeppelin/contracts/access/Ownable.sol\":1259:1271  _msgSender() */\n      jump\t// in\n    tag_154:\n      sub(shl(0xa0, 0x01), 0x01)\n        /* \"@openzeppelin/contracts/access/Ownable.sol\":1248:1271  owner() == _msgSender() */\n      and\n        /* \"@openzeppelin/contracts/access/Ownable.sol\":1248:1255  owner() */\n      tag_155\n        /* \"@openzeppelin/contracts/access/Ownable.sol\":1248:1253  owner */\n      tag_101\n        /* \"@openzeppelin/contracts/access/Ownable.sol\":1248:1255  owner() */\n      jump\t// in\n    tag_155:\n      sub(shl(0xa0, 0x01), 0x01)\n        /* \"@openzeppelin/contracts/access/Ownable.sol\":1248:1271  owner() == _msgSender() */\n      and\n      eq\n        /* \"@openzeppelin/contracts/access/Ownable.sol\":1240:1308  require(owner() == _msgSender(), \"Ownable: caller is not the owner\") */\n      tag_156\n      jumpi\n      mload(0x40)\n      shl(0xe5, 0x461bcd)\n      dup2\n      mstore\n      0x04\n      add\n      tag_149\n      swap1\n      tag_150\n      jump\t// in\n    tag_156:\n        /* \"contracts/worksystems/AddressManager.sol\":2416:2426  Reputation */\n      0x06\n        /* \"contracts/worksystems/AddressManager.sol\":2416:2447  Reputation  = IReputation(addr) */\n      dup1\n      sload\n      not(sub(shl(0xa0, 0x01), 0x01))\n      and\n      sub(shl(0xa0, 0x01), 0x01)\n      swap3\n      swap1\n      swap3\n      and\n      swap2\n      swap1\n      swap2\n      or\n      swap1\n      sstore\n        /* \"contracts/worksystems/AddressManager.sol\":2333:2455  function updateReputation(address addr)\r... */\n      jump\t// out\n        /* \"contracts/worksystems/AddressManager.sol\":7169:7728  function FetchHighestMaster(address _worker) public view returns (address){\r... */\n    tag_52:\n        /* \"contracts/worksystems/AddressManager.sol\":7235:7242  address */\n      0x00\n      sub(shl(0xa0, 0x01), 0x01)\n        /* \"contracts/worksystems/AddressManager.sol\":7262:7283  _worker != address(0) */\n      dup3\n      and\n        /* \"contracts/worksystems/AddressManager.sol\":7254:7350  require(_worker != address(0), \"FetchHighestMaster: input _worker needs to be non null address\") */\n      tag_160\n      jumpi\n      mload(0x40)\n      shl(0xe5, 0x461bcd)\n      dup2\n      mstore\n      0x04\n      add\n      tag_149\n      swap1\n      tag_162\n      jump\t// in\n    tag_160:\n      sub(shl(0xa0, 0x01), 0x01)\n        /* \"contracts/worksystems/AddressManager.sol\":7379:7402  SubToMasterMap[_worker] */\n      dup1\n      dup4\n      and\n        /* \"contracts/worksystems/AddressManager.sol\":7361:7376  address _master */\n      0x00\n        /* \"contracts/worksystems/AddressManager.sol\":7379:7402  SubToMasterMap[_worker] */\n      swap1\n      dup2\n      mstore\n        /* \"contracts/worksystems/AddressManager.sol\":7379:7393  SubToMasterMap */\n      0x04\n        /* \"contracts/worksystems/AddressManager.sol\":7379:7402  SubToMasterMap[_worker] */\n      0x20\n      mstore\n      0x40\n      swap1\n      keccak256\n      sload\n        /* \"contracts/worksystems/AddressManager.sol\":7478:7495  MAX_MASTER_LOOKUP */\n      sload(0x05)\n        /* \"contracts/worksystems/AddressManager.sol\":7379:7402  SubToMasterMap[_worker] */\n      swap2\n      and\n      swap1\n        /* \"contracts/worksystems/AddressManager.sol\":7394:7401  _worker */\n      dup4\n      swap1\n        /* \"contracts/worksystems/AddressManager.sol\":7508:7686  while(_master != address(0) && (iterations > 0)){\r... */\n    tag_163:\n      sub(shl(0xa0, 0x01), 0x01)\n        /* \"contracts/worksystems/AddressManager.sol\":7514:7535  _master != address(0) */\n      dup4\n      and\n      iszero\n      dup1\n      iszero\n      swap1\n        /* \"contracts/worksystems/AddressManager.sol\":7514:7555  _master != address(0) && (iterations > 0) */\n      tag_165\n      jumpi\n      pop\n        /* \"contracts/worksystems/AddressManager.sol\":7553:7554  0 */\n      0x00\n        /* \"contracts/worksystems/AddressManager.sol\":7540:7550  iterations */\n      dup2\n        /* \"contracts/worksystems/AddressManager.sol\":7540:7554  iterations > 0 */\n      gt\n        /* \"contracts/worksystems/AddressManager.sol\":7514:7555  _master != address(0) && (iterations > 0) */\n    tag_165:\n        /* \"contracts/worksystems/AddressManager.sol\":7508:7686  while(_master != address(0) && (iterations > 0)){\r... */\n      iszero\n      tag_164\n      jumpi\n      sub(shl(0xa0, 0x01), 0x01)\n        /* \"contracts/worksystems/AddressManager.sol\":7621:7644  SubToMasterMap[_master] */\n      dup1\n      dup5\n      and\n      0x00\n      swap1\n      dup2\n      mstore\n        /* \"contracts/worksystems/AddressManager.sol\":7621:7635  SubToMasterMap */\n      0x04\n        /* \"contracts/worksystems/AddressManager.sol\":7621:7644  SubToMasterMap[_master] */\n      0x20\n      mstore\n      0x40\n      swap1\n      keccak256\n      sload\n      and\n      swap3\n        /* \"contracts/worksystems/AddressManager.sol\":7589:7596  _master */\n      swap2\n      pop\n        /* \"contracts/worksystems/AddressManager.sol\":7659:7674  iterations -= 1 */\n      tag_166\n        /* \"contracts/worksystems/AddressManager.sol\":7621:7644  SubToMasterMap[_master] */\n      0x01\n        /* \"contracts/worksystems/AddressManager.sol\":7659:7674  iterations -= 1 */\n      dup3\n      tag_167\n      jump\t// in\n    tag_166:\n      swap1\n      pop\n        /* \"contracts/worksystems/AddressManager.sol\":7508:7686  while(_master != address(0) && (iterations > 0)){\r... */\n      jump(tag_163)\n    tag_164:\n      pop\n        /* \"contracts/worksystems/AddressManager.sol\":7704:7719  _highest_master */\n      swap4\n        /* \"contracts/worksystems/AddressManager.sol\":7169:7728  function FetchHighestMaster(address _worker) public view returns (address){\r... */\n      swap3\n      pop\n      pop\n      pop\n      jump\t// out\n        /* \"contracts/worksystems/AddressManager.sol\":5433:5675  function MasterClaimSub(address _address)\r... */\n    tag_57:\n        /* \"contracts/worksystems/AddressManager.sol\":5528:5538  msg.sender */\n      caller\n        /* \"contracts/worksystems/AddressManager.sol\":5507:5539  MasterClaimingWorker[msg.sender] */\n      0x00\n      dup2\n      dup2\n      mstore\n        /* \"contracts/worksystems/AddressManager.sol\":5552:5556  true */\n      0x01\n        /* \"contracts/worksystems/AddressManager.sol\":5507:5539  MasterClaimingWorker[msg.sender] */\n      0x20\n      dup2\n      dup2\n      mstore\n      0x40\n      dup1\n      dup5\n      keccak256\n      sub(shl(0xa0, 0x01), 0x01)\n        /* \"contracts/worksystems/AddressManager.sol\":5507:5549  MasterClaimingWorker[msg.sender][_address] */\n      dup8\n      and\n      dup1\n      dup7\n      mstore\n      swap1\n      dup4\n      mstore\n      dup2\n      dup6\n      keccak256\n        /* \"contracts/worksystems/AddressManager.sol\":5507:5556  MasterClaimingWorker[msg.sender][_address] = true */\n      dup1\n      sload\n      not(0xff)\n      and\n      dup6\n      or\n      swap1\n      sstore\n        /* \"contracts/worksystems/AddressManager.sol\":5567:5594  MasterToSubsMap[msg.sender] */\n      dup6\n      dup6\n      mstore\n        /* \"contracts/worksystems/AddressManager.sol\":5567:5582  MasterToSubsMap */\n      0x03\n        /* \"contracts/worksystems/AddressManager.sol\":5567:5594  MasterToSubsMap[msg.sender] */\n      dup4\n      mstore\n      dup2\n      dup6\n      keccak256\n        /* \"contracts/worksystems/AddressManager.sol\":5567:5609  MasterToSubsMap[msg.sender].push(_address) */\n      dup1\n      sload\n      swap5\n      dup6\n      add\n      dup2\n      sstore\n      dup6\n      mstore\n      swap2\n      swap1\n      swap4\n      keccak256\n      swap1\n      swap2\n      add\n      dup1\n      sload\n      not(sub(shl(0xa0, 0x01), 0x01))\n      and\n      swap1\n      swap2\n      or\n      swap1\n      sstore\n        /* \"contracts/worksystems/AddressManager.sol\":5625:5667  AddressAddedByMaster(msg.sender, _address) */\n      mload\n      0x8902b85532bfc55a9f5b6e6a9576366640928b3be984b3a61167a210ca2bbc57\n      swap1\n      tag_170\n      swap1\n        /* \"contracts/worksystems/AddressManager.sol\":5540:5548  _address */\n      dup5\n      swap1\n        /* \"contracts/worksystems/AddressManager.sol\":5625:5667  AddressAddedByMaster(msg.sender, _address) */\n      tag_54\n      jump\t// in\n    tag_170:\n      mload(0x40)\n      dup1\n      swap2\n      sub\n      swap1\n      log2\n        /* \"contracts/worksystems/AddressManager.sol\":5433:5675  function MasterClaimSub(address _address)\r... */\n      pop\n      jump\t// out\n        /* \"contracts/worksystems/AddressManager.sol\":1073:1148  mapping (address =>  mapping (address => bool)) public WorkerClaimingMaster */\n    tag_61:\n      0x02\n      0x20\n      swap1\n      dup2\n      mstore\n      0x00\n      swap3\n      dup4\n      mstore\n      0x40\n      dup1\n      dup5\n      keccak256\n      swap1\n      swap2\n      mstore\n      swap1\n      dup3\n      mstore\n      swap1\n      keccak256\n      sload\n      0xff\n      and\n      dup2\n      jump\t// out\n        /* \"contracts/worksystems/AddressManager.sol\":3174:3338  function getMasterSubs(address _master)\r... */\n    tag_65:\n      sub(shl(0xa0, 0x01), 0x01)\n        /* \"contracts/worksystems/AddressManager.sol\":3306:3330  MasterToSubsMap[_master] */\n      dup2\n      and\n      0x00\n      swap1\n      dup2\n      mstore\n        /* \"contracts/worksystems/AddressManager.sol\":3306:3321  MasterToSubsMap */\n      0x03\n        /* \"contracts/worksystems/AddressManager.sol\":3306:3330  MasterToSubsMap[_master] */\n      0x20\n      swap1\n      dup2\n      mstore\n      0x40\n      swap2\n      dup3\n      swap1\n      keccak256\n        /* \"contracts/worksystems/AddressManager.sol\":3299:3330  return MasterToSubsMap[_master] */\n      dup1\n      sload\n      dup4\n      mload\n      dup2\n      dup5\n      mul\n      dup2\n      add\n      dup5\n      add\n      swap1\n      swap5\n      mstore\n      dup1\n      dup5\n      mstore\n        /* \"contracts/worksystems/AddressManager.sol\":3262:3278  address[] memory */\n      0x60\n      swap4\n        /* \"contracts/worksystems/AddressManager.sol\":3299:3330  return MasterToSubsMap[_master] */\n      swap3\n      dup4\n      add\n        /* \"contracts/worksystems/AddressManager.sol\":3306:3330  MasterToSubsMap[_master] */\n      dup3\n        /* \"contracts/worksystems/AddressManager.sol\":3299:3330  return MasterToSubsMap[_master] */\n      dup3\n      dup1\n      iszero\n      tag_172\n      jumpi\n      0x20\n      mul\n      dup3\n      add\n      swap2\n      swap1\n      0x00\n      mstore\n      keccak256(0x00, 0x20)\n      swap1\n    tag_173:\n      dup2\n      sload\n      sub(shl(0xa0, 0x01), 0x01)\n      and\n      dup2\n      mstore\n      0x01\n      swap1\n      swap2\n      add\n      swap1\n      0x20\n      add\n      dup1\n      dup4\n      gt\n      tag_173\n      jumpi\n    tag_172:\n      pop\n      pop\n      pop\n      pop\n      pop\n      swap1\n      pop\n        /* \"contracts/worksystems/AddressManager.sol\":3174:3338  function getMasterSubs(address _master)\r... */\n      swap2\n      swap1\n      pop\n      jump\t// out\n        /* \"contracts/worksystems/AddressManager.sol\":1586:1615  IRepManager public RepManager */\n    tag_69:\n      and(sub(shl(0xa0, 0x01), 0x01), sload(0x07))\n      dup2\n      jump\t// out\n        /* \"contracts/worksystems/AddressManager.sol\":1193:1247  mapping (address =>  address[]) public MasterToSubsMap */\n    tag_75:\n      mstore(0x20, 0x03)\n      dup2\n      0x00\n      mstore\n      keccak256(0x00, 0x40)\n      dup2\n      dup2\n      sload\n      dup2\n      lt\n      tag_174\n      jumpi\n      0x00\n      dup1\n      revert\n    tag_174:\n      0x00\n      swap2\n      dup3\n      mstore\n      0x20\n      swap1\n      swap2\n      keccak256\n      add\n      sload\n      sub(shl(0xa0, 0x01), 0x01)\n      and\n      swap2\n      pop\n      dup3\n      swap1\n      pop\n      jump\t// out\n        /* \"contracts/worksystems/AddressManager.sol\":956:1031  mapping (address =>  mapping (address => bool)) public MasterClaimingWorker */\n    tag_79:\n      0x01\n      0x20\n      swap1\n      dup2\n      mstore\n      0x00\n      swap3\n      dup4\n      mstore\n      0x40\n      dup1\n      dup5\n      keccak256\n      swap1\n      swap2\n      mstore\n      swap1\n      dup3\n      mstore\n      swap1\n      keccak256\n      sload\n      0xff\n      and\n      dup2\n      jump\t// out\n        /* \"contracts/worksystems/AddressManager.sol\":5683:6136  function MasterClaimManySubs(address[] memory _addresses)\r... */\n    tag_84:\n        /* \"contracts/worksystems/AddressManager.sol\":5780:5786  uint i */\n      0x00\n        /* \"contracts/worksystems/AddressManager.sol\":5776:6129  for(uint i = 0; i< _addresses.length; i++){\r... */\n    tag_177:\n        /* \"contracts/worksystems/AddressManager.sol\":5795:5805  _addresses */\n      dup2\n        /* \"contracts/worksystems/AddressManager.sol\":5795:5812  _addresses.length */\n      mload\n        /* \"contracts/worksystems/AddressManager.sol\":5792:5793  i */\n      dup2\n        /* \"contracts/worksystems/AddressManager.sol\":5792:5812  i< _addresses.length */\n      lt\n        /* \"contracts/worksystems/AddressManager.sol\":5776:6129  for(uint i = 0; i< _addresses.length; i++){\r... */\n      iszero\n      tag_178\n      jumpi\n        /* \"contracts/worksystems/AddressManager.sol\":5857:5867  msg.sender */\n      caller\n        /* \"contracts/worksystems/AddressManager.sol\":5836:5868  MasterClaimingWorker[msg.sender] */\n      0x00\n      swap1\n      dup2\n      mstore\n        /* \"contracts/worksystems/AddressManager.sol\":5836:5856  MasterClaimingWorker */\n      0x01\n        /* \"contracts/worksystems/AddressManager.sol\":5836:5868  MasterClaimingWorker[msg.sender] */\n      0x20\n      mstore\n      0x40\n      dup2\n      keccak256\n        /* \"contracts/worksystems/AddressManager.sol\":5869:5882  _addresses[i] */\n      dup4\n      mload\n        /* \"contracts/worksystems/AddressManager.sol\":5836:5868  MasterClaimingWorker[msg.sender] */\n      swap1\n      swap2\n      swap1\n        /* \"contracts/worksystems/AddressManager.sol\":5869:5879  _addresses */\n      dup5\n      swap1\n        /* \"contracts/worksystems/AddressManager.sol\":5880:5881  i */\n      dup5\n      swap1\n        /* \"contracts/worksystems/AddressManager.sol\":5869:5882  _addresses[i] */\n      dup2\n      lt\n      tag_180\n      jumpi\n      mstore(0x00, shl(0xe0, 0x4e487b71))\n      mstore(0x04, 0x32)\n      revert(0x00, 0x24)\n    tag_180:\n      0x20\n      swap1\n      dup2\n      mul\n      swap2\n      swap1\n      swap2\n      add\n      dup2\n      add\n      mload\n      sub(shl(0xa0, 0x01), 0x01)\n        /* \"contracts/worksystems/AddressManager.sol\":5836:5883  MasterClaimingWorker[msg.sender][_addresses[i]] */\n      and\n      dup3\n      mstore\n      dup2\n      add\n      swap2\n      swap1\n      swap2\n      mstore\n      0x40\n      add\n      0x00\n      keccak256\n      sload\n      0xff\n      and\n        /* \"contracts/worksystems/AddressManager.sol\":5836:5891  MasterClaimingWorker[msg.sender][_addresses[i]] != true */\n      iszero\n      iszero\n        /* \"contracts/worksystems/AddressManager.sol\":5836:5883  MasterClaimingWorker[msg.sender][_addresses[i]] */\n      0x01\n        /* \"contracts/worksystems/AddressManager.sol\":5836:5891  MasterClaimingWorker[msg.sender][_addresses[i]] != true */\n      eq\n        /* \"contracts/worksystems/AddressManager.sol\":5833:6118  if(MasterClaimingWorker[msg.sender][_addresses[i]] != true){\r... */\n      tag_181\n      jumpi\n        /* \"contracts/worksystems/AddressManager.sol\":5932:5942  msg.sender */\n      caller\n        /* \"contracts/worksystems/AddressManager.sol\":5911:5943  MasterClaimingWorker[msg.sender] */\n      0x00\n      swap1\n      dup2\n      mstore\n        /* \"contracts/worksystems/AddressManager.sol\":5961:5965  true */\n      0x01\n        /* \"contracts/worksystems/AddressManager.sol\":5911:5943  MasterClaimingWorker[msg.sender] */\n      0x20\n      dup2\n      swap1\n      mstore\n      0x40\n      dup3\n      keccak256\n        /* \"contracts/worksystems/AddressManager.sol\":5944:5957  _addresses[i] */\n      dup5\n      mload\n        /* \"contracts/worksystems/AddressManager.sol\":5961:5965  true */\n      swap2\n      swap3\n        /* \"contracts/worksystems/AddressManager.sol\":5911:5943  MasterClaimingWorker[msg.sender] */\n      swap1\n      swap2\n        /* \"contracts/worksystems/AddressManager.sol\":5944:5954  _addresses */\n      dup6\n      swap1\n        /* \"contracts/worksystems/AddressManager.sol\":5955:5956  i */\n      dup6\n      swap1\n        /* \"contracts/worksystems/AddressManager.sol\":5944:5957  _addresses[i] */\n      dup2\n      lt\n      tag_182\n      jumpi\n      mstore(0x00, shl(0xe0, 0x4e487b71))\n      mstore(0x04, 0x32)\n      revert(0x00, 0x24)\n    tag_182:\n      0x20\n      swap1\n      dup2\n      mul\n      swap2\n      swap1\n      swap2\n      add\n      dup2\n      add\n      mload\n      sub(shl(0xa0, 0x01), 0x01)\n        /* \"contracts/worksystems/AddressManager.sol\":5911:5958  MasterClaimingWorker[msg.sender][_addresses[i]] */\n      and\n      dup3\n      mstore\n      dup2\n      dup2\n      add\n      swap3\n      swap1\n      swap3\n      mstore\n      0x40\n      swap1\n      dup2\n      add\n      0x00\n      swap1\n      dup2\n      keccak256\n        /* \"contracts/worksystems/AddressManager.sol\":5911:5965  MasterClaimingWorker[msg.sender][_addresses[i]] = true */\n      dup1\n      sload\n      not(0xff)\n      and\n      swap5\n      iszero\n      iszero\n      swap5\n      swap1\n      swap5\n      or\n      swap1\n      swap4\n      sstore\n        /* \"contracts/worksystems/AddressManager.sol\":6000:6010  msg.sender */\n      caller\n        /* \"contracts/worksystems/AddressManager.sol\":5984:6011  MasterToSubsMap[msg.sender] */\n      dup4\n      mstore\n        /* \"contracts/worksystems/AddressManager.sol\":5984:5999  MasterToSubsMap */\n      0x03\n        /* \"contracts/worksystems/AddressManager.sol\":5984:6011  MasterToSubsMap[msg.sender] */\n      swap1\n      swap2\n      mstore\n      swap1\n      keccak256\n        /* \"contracts/worksystems/AddressManager.sol\":6017:6030  _addresses[i] */\n      dup3\n      mload\n      dup4\n      swap1\n        /* \"contracts/worksystems/AddressManager.sol\":6028:6029  i */\n      dup4\n      swap1\n        /* \"contracts/worksystems/AddressManager.sol\":6017:6030  _addresses[i] */\n      dup2\n      lt\n      tag_183\n      jumpi\n      mstore(0x00, shl(0xe0, 0x4e487b71))\n      mstore(0x04, 0x32)\n      revert(0x00, 0x24)\n    tag_183:\n      0x20\n      swap1\n      dup2\n      mul\n      swap2\n      swap1\n      swap2\n      add\n      dup2\n      add\n      mload\n        /* \"contracts/worksystems/AddressManager.sol\":5984:6031  MasterToSubsMap[msg.sender].push(_addresses[i]) */\n      dup3\n      sload\n      0x01\n      dup2\n      add\n      dup5\n      sstore\n      0x00\n      swap4\n      dup5\n      mstore\n      swap2\n      swap1\n      swap3\n      keccak256\n      add\n      dup1\n      sload\n      not(sub(shl(0xa0, 0x01), 0x01))\n      and\n      sub(shl(0xa0, 0x01), 0x01)\n      swap1\n      swap3\n      and\n      swap2\n      swap1\n      swap2\n      or\n      swap1\n      sstore\n        /* \"contracts/worksystems/AddressManager.sol\":6088:6101  _addresses[i] */\n      dup2\n      mload\n        /* \"contracts/worksystems/AddressManager.sol\":6076:6086  msg.sender */\n      caller\n      swap1\n        /* \"contracts/worksystems/AddressManager.sol\":6055:6102  AddressAddedByMaster(msg.sender, _addresses[i]) */\n      0x8902b85532bfc55a9f5b6e6a9576366640928b3be984b3a61167a210ca2bbc57\n      swap1\n        /* \"contracts/worksystems/AddressManager.sol\":6088:6101  _addresses[i] */\n      dup5\n      swap1\n        /* \"contracts/worksystems/AddressManager.sol\":6099:6100  i */\n      dup5\n      swap1\n        /* \"contracts/worksystems/AddressManager.sol\":6088:6101  _addresses[i] */\n      dup2\n      lt\n      tag_185\n      jumpi\n      mstore(0x00, shl(0xe0, 0x4e487b71))\n      mstore(0x04, 0x32)\n      revert(0x00, 0x24)\n    tag_185:\n      0x20\n      mul\n      0x20\n      add\n      add\n      mload\n        /* \"contracts/worksystems/AddressManager.sol\":6055:6102  AddressAddedByMaster(msg.sender, _addresses[i]) */\n      mload(0x40)\n      tag_186\n      swap2\n      swap1\n      tag_54\n      jump\t// in\n    tag_186:\n      mload(0x40)\n      dup1\n      swap2\n      sub\n      swap1\n      log2\n        /* \"contracts/worksystems/AddressManager.sol\":5833:6118  if(MasterClaimingWorker[msg.sender][_addresses[i]] != true){\r... */\n    tag_181:\n        /* \"contracts/worksystems/AddressManager.sol\":5814:5817  i++ */\n      dup1\n      tag_187\n      dup2\n      tag_188\n      jump\t// in\n    tag_187:\n      swap2\n      pop\n      pop\n        /* \"contracts/worksystems/AddressManager.sol\":5776:6129  for(uint i = 0; i< _addresses.length; i++){\r... */\n      jump(tag_177)\n    tag_178:\n      pop\n        /* \"contracts/worksystems/AddressManager.sol\":5683:6136  function MasterClaimManySubs(address[] memory _addresses)\r... */\n      pop\n      jump\t// out\n        /* \"contracts/worksystems/AddressManager.sol\":6172:6555  function MasterRemoveSub(address _address)\r... */\n    tag_87:\n        /* \"contracts/worksystems/AddressManager.sol\":6284:6294  msg.sender */\n      caller\n        /* \"contracts/worksystems/AddressManager.sol\":6263:6295  MasterClaimingWorker[msg.sender] */\n      0x00\n      swap1\n      dup2\n      mstore\n        /* \"contracts/worksystems/AddressManager.sol\":6263:6283  MasterClaimingWorker */\n      0x01\n        /* \"contracts/worksystems/AddressManager.sol\":6263:6295  MasterClaimingWorker[msg.sender] */\n      0x20\n      swap1\n      dup2\n      mstore\n      0x40\n      dup1\n      dup4\n      keccak256\n      sub(shl(0xa0, 0x01), 0x01)\n        /* \"contracts/worksystems/AddressManager.sol\":6263:6305  MasterClaimingWorker[msg.sender][_address] */\n      dup6\n      and\n      dup5\n      mstore\n      swap1\n      swap2\n      mstore\n      swap1\n      keccak256\n      sload\n      0xff\n      and\n        /* \"contracts/worksystems/AddressManager.sol\":6255:6369  require(MasterClaimingWorker[msg.sender][_address] != false, \"Can't remove: Master not claiming this Sub Address\") */\n      tag_190\n      jumpi\n      mload(0x40)\n      shl(0xe5, 0x461bcd)\n      dup2\n      mstore\n      0x04\n      add\n      tag_149\n      swap1\n      tag_192\n      jump\t// in\n    tag_190:\n        /* \"contracts/worksystems/AddressManager.sol\":6401:6411  msg.sender */\n      caller\n        /* \"contracts/worksystems/AddressManager.sol\":6425:6430  false */\n      0x00\n        /* \"contracts/worksystems/AddressManager.sol\":6380:6412  MasterClaimingWorker[msg.sender] */\n      dup2\n      dup2\n      mstore\n        /* \"contracts/worksystems/AddressManager.sol\":6380:6400  MasterClaimingWorker */\n      0x01\n        /* \"contracts/worksystems/AddressManager.sol\":6380:6412  MasterClaimingWorker[msg.sender] */\n      0x20\n      swap1\n      dup2\n      mstore\n      0x40\n      dup1\n      dup4\n      keccak256\n      sub(shl(0xa0, 0x01), 0x01)\n        /* \"contracts/worksystems/AddressManager.sol\":6380:6422  MasterClaimingWorker[msg.sender][_address] */\n      dup7\n      and\n      dup5\n      mstore\n      swap1\n      swap2\n      mstore\n      swap1\n      keccak256\n        /* \"contracts/worksystems/AddressManager.sol\":6380:6430  MasterClaimingWorker[msg.sender][_address] = false */\n      dup1\n      sload\n      not(0xff)\n      and\n      swap1\n      sstore\n        /* \"contracts/worksystems/AddressManager.sol\":6441:6479  PopFromSubsArray(msg.sender, _address) */\n      tag_193\n      swap1\n        /* \"contracts/worksystems/AddressManager.sol\":6413:6421  _address */\n      dup3\n        /* \"contracts/worksystems/AddressManager.sol\":6441:6457  PopFromSubsArray */\n      tag_194\n        /* \"contracts/worksystems/AddressManager.sol\":6441:6479  PopFromSubsArray(msg.sender, _address) */\n      jump\t// in\n    tag_193:\n        /* \"contracts/worksystems/AddressManager.sol\":6518:6528  msg.sender */\n      caller\n      sub(shl(0xa0, 0x01), 0x01)\n        /* \"contracts/worksystems/AddressManager.sol\":6495:6539  AddressRemovedByMaster(msg.sender, _address) */\n      and\n      0x7a24ac72e272dd8c83b793ae84448c72032b95723856486219c79dd722fe4292\n        /* \"contracts/worksystems/AddressManager.sol\":6530:6538  _address */\n      dup3\n        /* \"contracts/worksystems/AddressManager.sol\":6495:6539  AddressRemovedByMaster(msg.sender, _address) */\n      mload(0x40)\n      tag_170\n      swap2\n      swap1\n      tag_54\n      jump\t// in\n        /* \"contracts/worksystems/AddressManager.sol\":1622:1657  IRewardManager public RewardManager */\n    tag_89:\n      and(sub(shl(0xa0, 0x01), 0x01), sload(0x08))\n      dup2\n      jump\t// out\n        /* \"contracts/worksystems/AddressManager.sol\":9930:10334  function RemoveMaster(address _master)\r... */\n    tag_94:\n      sub(shl(0xa0, 0x01), 0x01)\n        /* \"contracts/worksystems/AddressManager.sol\":10017:10046  WorkerClaimingMaster[_master] */\n      dup2\n      and\n      0x00\n      swap1\n      dup2\n      mstore\n        /* \"contracts/worksystems/AddressManager.sol\":10017:10037  WorkerClaimingMaster */\n      0x02\n        /* \"contracts/worksystems/AddressManager.sol\":10017:10046  WorkerClaimingMaster[_master] */\n      0x20\n      swap1\n      dup2\n      mstore\n      0x40\n      dup1\n      dup4\n      keccak256\n        /* \"contracts/worksystems/AddressManager.sol\":10047:10057  msg.sender */\n      caller\n        /* \"contracts/worksystems/AddressManager.sol\":10017:10058  WorkerClaimingMaster[_master][msg.sender] */\n      dup5\n      mstore\n      swap1\n      swap2\n      mstore\n      swap1\n      keccak256\n      sload\n      0xff\n      and\n        /* \"contracts/worksystems/AddressManager.sol\":10009:10118  require(WorkerClaimingMaster[_master][msg.sender] != false, \"Can't remove Master: not claiming this address\") */\n      tag_197\n      jumpi\n      mload(0x40)\n      shl(0xe5, 0x461bcd)\n      dup2\n      mstore\n      0x04\n      add\n      tag_149\n      swap1\n      tag_199\n      jump\t// in\n    tag_197:\n      sub(shl(0xa0, 0x01), 0x01)\n        /* \"contracts/worksystems/AddressManager.sol\":10129:10158  WorkerClaimingMaster[_master] */\n      dup2\n      and\n        /* \"contracts/worksystems/AddressManager.sol\":10173:10178  false */\n      0x00\n        /* \"contracts/worksystems/AddressManager.sol\":10129:10158  WorkerClaimingMaster[_master] */\n      swap1\n      dup2\n      mstore\n        /* \"contracts/worksystems/AddressManager.sol\":10129:10149  WorkerClaimingMaster */\n      0x02\n        /* \"contracts/worksystems/AddressManager.sol\":10129:10158  WorkerClaimingMaster[_master] */\n      0x20\n      swap1\n      dup2\n      mstore\n      0x40\n      dup1\n      dup4\n      keccak256\n        /* \"contracts/worksystems/AddressManager.sol\":10159:10169  msg.sender */\n      caller\n        /* \"contracts/worksystems/AddressManager.sol\":10129:10170  WorkerClaimingMaster[_master][msg.sender] */\n      dup1\n      dup6\n      mstore\n      swap1\n      dup4\n      mstore\n      dup2\n      dup5\n      keccak256\n        /* \"contracts/worksystems/AddressManager.sol\":10129:10178  WorkerClaimingMaster[_master][msg.sender] = false */\n      dup1\n      sload\n      not(0xff)\n      and\n      swap1\n      sstore\n        /* \"contracts/worksystems/AddressManager.sol\":10189:10203  SubToMasterMap */\n      0x04\n        /* \"contracts/worksystems/AddressManager.sol\":10189:10215  SubToMasterMap[msg.sender] */\n      swap1\n      swap3\n      mstore\n      swap2\n      dup3\n      swap1\n      keccak256\n        /* \"contracts/worksystems/AddressManager.sol\":10189:10228  SubToMasterMap[msg.sender] = address(0) */\n      dup1\n      sload\n      not(sub(shl(0xa0, 0x01), 0x01))\n      and\n      swap1\n      sstore\n        /* \"contracts/worksystems/AddressManager.sol\":10275:10318  AddressRemovedByWorker(msg.sender, _master) */\n      swap1\n      mload\n      0x0d7169440daf0897d7f4486a35eef15a070460981ff18ab846aa2199f171118e\n      swap1\n      tag_170\n      swap1\n        /* \"contracts/worksystems/AddressManager.sol\":10150:10157  _master */\n      dup5\n      swap1\n        /* \"contracts/worksystems/AddressManager.sol\":10275:10318  AddressRemovedByWorker(msg.sender, _master) */\n      tag_54\n      jump\t// in\n        /* \"@openzeppelin/contracts/access/Ownable.sol\":1668:1769  function renounceOwnership() public virtual onlyOwner {... */\n    tag_96:\n        /* \"@openzeppelin/contracts/access/Ownable.sol\":1259:1271  _msgSender() */\n      tag_202\n        /* \"@openzeppelin/contracts/access/Ownable.sol\":1259:1269  _msgSender */\n      tag_146\n        /* \"@openzeppelin/contracts/access/Ownable.sol\":1259:1271  _msgSender() */\n      jump\t// in\n    tag_202:\n      sub(shl(0xa0, 0x01), 0x01)\n        /* \"@openzeppelin/contracts/access/Ownable.sol\":1248:1271  owner() == _msgSender() */\n      and\n        /* \"@openzeppelin/contracts/access/Ownable.sol\":1248:1255  owner() */\n      tag_203\n        /* \"@openzeppelin/contracts/access/Ownable.sol\":1248:1253  owner */\n      tag_101\n        /* \"@openzeppelin/contracts/access/Ownable.sol\":1248:1255  owner() */\n      jump\t// in\n    tag_203:\n      sub(shl(0xa0, 0x01), 0x01)\n        /* \"@openzeppelin/contracts/access/Ownable.sol\":1248:1271  owner() == _msgSender() */\n      and\n      eq\n        /* \"@openzeppelin/contracts/access/Ownable.sol\":1240:1308  require(owner() == _msgSender(), \"Ownable: caller is not the owner\") */\n      tag_204\n      jumpi\n      mload(0x40)\n      shl(0xe5, 0x461bcd)\n      dup2\n      mstore\n      0x04\n      add\n      tag_149\n      swap1\n      tag_150\n      jump\t// in\n    tag_204:\n        /* \"@openzeppelin/contracts/access/Ownable.sol\":1732:1762  _transferOwnership(address(0)) */\n      tag_207\n        /* \"@openzeppelin/contracts/access/Ownable.sol\":1759:1760  0 */\n      0x00\n        /* \"@openzeppelin/contracts/access/Ownable.sol\":1732:1750  _transferOwnership */\n      tag_208\n        /* \"@openzeppelin/contracts/access/Ownable.sol\":1732:1762  _transferOwnership(address(0)) */\n      jump\t// in\n    tag_207:\n        /* \"@openzeppelin/contracts/access/Ownable.sol\":1668:1769  function renounceOwnership() public virtual onlyOwner {... */\n      jump\t// out\n        /* \"contracts/worksystems/AddressManager.sol\":6563:7017  function MasterRemoveManySubs(address[] memory _addresses)\r... */\n    tag_99:\n        /* \"contracts/worksystems/AddressManager.sol\":6661:6667  uint i */\n      0x00\n        /* \"contracts/worksystems/AddressManager.sol\":6657:7010  for(uint i = 0; i< _addresses.length; i++){\r... */\n    tag_210:\n        /* \"contracts/worksystems/AddressManager.sol\":6676:6686  _addresses */\n      dup2\n        /* \"contracts/worksystems/AddressManager.sol\":6676:6693  _addresses.length */\n      mload\n        /* \"contracts/worksystems/AddressManager.sol\":6673:6674  i */\n      dup2\n        /* \"contracts/worksystems/AddressManager.sol\":6673:6693  i< _addresses.length */\n      lt\n        /* \"contracts/worksystems/AddressManager.sol\":6657:7010  for(uint i = 0; i< _addresses.length; i++){\r... */\n      iszero\n      tag_178\n      jumpi\n        /* \"contracts/worksystems/AddressManager.sol\":6738:6748  msg.sender */\n      caller\n        /* \"contracts/worksystems/AddressManager.sol\":6717:6749  MasterClaimingWorker[msg.sender] */\n      0x00\n      swap1\n      dup2\n      mstore\n        /* \"contracts/worksystems/AddressManager.sol\":6717:6737  MasterClaimingWorker */\n      0x01\n        /* \"contracts/worksystems/AddressManager.sol\":6717:6749  MasterClaimingWorker[msg.sender] */\n      0x20\n      mstore\n      0x40\n      dup2\n      keccak256\n        /* \"contracts/worksystems/AddressManager.sol\":6750:6763  _addresses[i] */\n      dup4\n      mload\n        /* \"contracts/worksystems/AddressManager.sol\":6717:6749  MasterClaimingWorker[msg.sender] */\n      swap1\n      swap2\n      swap1\n        /* \"contracts/worksystems/AddressManager.sol\":6750:6760  _addresses */\n      dup5\n      swap1\n        /* \"contracts/worksystems/AddressManager.sol\":6761:6762  i */\n      dup5\n      swap1\n        /* \"contracts/worksystems/AddressManager.sol\":6750:6763  _addresses[i] */\n      dup2\n      lt\n      tag_213\n      jumpi\n      mstore(0x00, shl(0xe0, 0x4e487b71))\n      mstore(0x04, 0x32)\n      revert(0x00, 0x24)\n    tag_213:\n      0x20\n      swap1\n      dup2\n      mul\n      swap2\n      swap1\n      swap2\n      add\n      dup2\n      add\n      mload\n      sub(shl(0xa0, 0x01), 0x01)\n        /* \"contracts/worksystems/AddressManager.sol\":6717:6764  MasterClaimingWorker[msg.sender][_addresses[i]] */\n      and\n      dup3\n      mstore\n      dup2\n      add\n      swap2\n      swap1\n      swap2\n      mstore\n      0x40\n      add\n      0x00\n      keccak256\n      sload\n      0xff\n      and\n        /* \"contracts/worksystems/AddressManager.sol\":6717:6773  MasterClaimingWorker[msg.sender][_addresses[i]] != false */\n      iszero\n        /* \"contracts/worksystems/AddressManager.sol\":6714:6999  if(MasterClaimingWorker[msg.sender][_addresses[i]] != false){\r... */\n      tag_214\n      jumpi\n        /* \"contracts/worksystems/AddressManager.sol\":6814:6824  msg.sender */\n      caller\n        /* \"contracts/worksystems/AddressManager.sol\":6843:6848  false */\n      0x00\n        /* \"contracts/worksystems/AddressManager.sol\":6793:6825  MasterClaimingWorker[msg.sender] */\n      swap1\n      dup2\n      mstore\n        /* \"contracts/worksystems/AddressManager.sol\":6793:6813  MasterClaimingWorker */\n      0x01\n        /* \"contracts/worksystems/AddressManager.sol\":6793:6825  MasterClaimingWorker[msg.sender] */\n      0x20\n      mstore\n      0x40\n      dup2\n      keccak256\n        /* \"contracts/worksystems/AddressManager.sol\":6826:6839  _addresses[i] */\n      dup4\n      mload\n        /* \"contracts/worksystems/AddressManager.sol\":6843:6848  false */\n      dup3\n      swap1\n        /* \"contracts/worksystems/AddressManager.sol\":6826:6836  _addresses */\n      dup6\n      swap1\n        /* \"contracts/worksystems/AddressManager.sol\":6837:6838  i */\n      dup6\n      swap1\n        /* \"contracts/worksystems/AddressManager.sol\":6826:6839  _addresses[i] */\n      dup2\n      lt\n      tag_215\n      jumpi\n      mstore(0x00, shl(0xe0, 0x4e487b71))\n      mstore(0x04, 0x32)\n      revert(0x00, 0x24)\n    tag_215:\n      0x20\n      mul\n      0x20\n      add\n      add\n      mload\n      sub(shl(0xa0, 0x01), 0x01)\n        /* \"contracts/worksystems/AddressManager.sol\":6793:6840  MasterClaimingWorker[msg.sender][_addresses[i]] */\n      and\n      sub(shl(0xa0, 0x01), 0x01)\n      and\n      dup2\n      mstore\n      0x20\n      add\n      swap1\n      dup2\n      mstore\n      0x20\n      add\n      0x00\n      keccak256\n      0x00\n        /* \"contracts/worksystems/AddressManager.sol\":6793:6848  MasterClaimingWorker[msg.sender][_addresses[i]] = false */\n      0x0100\n      exp\n      dup2\n      sload\n      dup2\n      0xff\n      mul\n      not\n      and\n      swap1\n      dup4\n      iszero\n      iszero\n      mul\n      or\n      swap1\n      sstore\n      pop\n        /* \"contracts/worksystems/AddressManager.sol\":6867:6910  PopFromSubsArray(msg.sender, _addresses[i]) */\n      tag_216\n        /* \"contracts/worksystems/AddressManager.sol\":6884:6894  msg.sender */\n      caller\n        /* \"contracts/worksystems/AddressManager.sol\":6896:6906  _addresses */\n      dup4\n        /* \"contracts/worksystems/AddressManager.sol\":6907:6908  i */\n      dup4\n        /* \"contracts/worksystems/AddressManager.sol\":6896:6909  _addresses[i] */\n      dup2\n      mload\n      dup2\n      lt\n      tag_217\n      jumpi\n      mstore(0x00, shl(0xe0, 0x4e487b71))\n      mstore(0x04, 0x32)\n      revert(0x00, 0x24)\n    tag_217:\n      0x20\n      mul\n      0x20\n      add\n      add\n      mload\n        /* \"contracts/worksystems/AddressManager.sol\":6867:6883  PopFromSubsArray */\n      tag_194\n        /* \"contracts/worksystems/AddressManager.sol\":6867:6910  PopFromSubsArray(msg.sender, _addresses[i]) */\n      jump\t// in\n    tag_216:\n        /* \"contracts/worksystems/AddressManager.sol\":6957:6967  msg.sender */\n      caller\n      sub(shl(0xa0, 0x01), 0x01)\n        /* \"contracts/worksystems/AddressManager.sol\":6934:6983  AddressRemovedByMaster(msg.sender, _addresses[i]) */\n      and\n      0x7a24ac72e272dd8c83b793ae84448c72032b95723856486219c79dd722fe4292\n        /* \"contracts/worksystems/AddressManager.sol\":6969:6979  _addresses */\n      dup4\n        /* \"contracts/worksystems/AddressManager.sol\":6980:6981  i */\n      dup4\n        /* \"contracts/worksystems/AddressManager.sol\":6969:6982  _addresses[i] */\n      dup2\n      mload\n      dup2\n      lt\n      tag_218\n      jumpi\n      mstore(0x00, shl(0xe0, 0x4e487b71))\n      mstore(0x04, 0x32)\n      revert(0x00, 0x24)\n    tag_218:\n      0x20\n      mul\n      0x20\n      add\n      add\n      mload\n        /* \"contracts/worksystems/AddressManager.sol\":6934:6983  AddressRemovedByMaster(msg.sender, _addresses[i]) */\n      mload(0x40)\n      tag_219\n      swap2\n      swap1\n      tag_54\n      jump\t// in\n    tag_219:\n      mload(0x40)\n      dup1\n      swap2\n      sub\n      swap1\n      log2\n        /* \"contracts/worksystems/AddressManager.sol\":6714:6999  if(MasterClaimingWorker[msg.sender][_addresses[i]] != false){\r... */\n    tag_214:\n        /* \"contracts/worksystems/AddressManager.sol\":6695:6698  i++ */\n      dup1\n      tag_220\n      dup2\n      tag_188\n      jump\t// in\n    tag_220:\n      swap2\n      pop\n      pop\n        /* \"contracts/worksystems/AddressManager.sol\":6657:7010  for(uint i = 0; i< _addresses.length; i++){\r... */\n      jump(tag_210)\n        /* \"@openzeppelin/contracts/access/Ownable.sol\":1036:1121  function owner() public view virtual returns (address) {... */\n    tag_101:\n        /* \"@openzeppelin/contracts/access/Ownable.sol\":1082:1089  address */\n      0x00\n        /* \"@openzeppelin/contracts/access/Ownable.sol\":1108:1114  _owner */\n      sload\n      sub(shl(0xa0, 0x01), 0x01)\n      and\n        /* \"@openzeppelin/contracts/access/Ownable.sol\":1036:1121  function owner() public view virtual returns (address) {... */\n      swap1\n      jump\t// out\n        /* \"contracts/worksystems/AddressManager.sol\":2982:3164  function isMasterOf(address _master, address _address)\r... */\n    tag_105:\n      sub(shl(0xa0, 0x01), 0x01)\n        /* \"contracts/worksystems/AddressManager.sol\":3117:3146  MasterClaimingWorker[_master] */\n      swap2\n      dup3\n      and\n        /* \"contracts/worksystems/AddressManager.sol\":3085:3089  bool */\n      0x00\n        /* \"contracts/worksystems/AddressManager.sol\":3117:3146  MasterClaimingWorker[_master] */\n      swap1\n      dup2\n      mstore\n        /* \"contracts/worksystems/AddressManager.sol\":3117:3137  MasterClaimingWorker */\n      0x01\n        /* \"contracts/worksystems/AddressManager.sol\":3117:3146  MasterClaimingWorker[_master] */\n      0x20\n      swap1\n      dup2\n      mstore\n      0x40\n      dup1\n      dup4\n      keccak256\n        /* \"contracts/worksystems/AddressManager.sol\":3117:3156  MasterClaimingWorker[_master][_address] */\n      swap4\n      swap1\n      swap5\n      and\n      dup3\n      mstore\n      swap2\n      swap1\n      swap2\n      mstore\n      keccak256\n      sload\n      0xff\n      and\n      swap1\n        /* \"contracts/worksystems/AddressManager.sol\":2982:3164  function isMasterOf(address _master, address _address)\r... */\n      jump\t// out\n        /* \"contracts/worksystems/AddressManager.sol\":1550:1579  IReputation public Reputation */\n    tag_108:\n      and(sub(shl(0xa0, 0x01), 0x01), sload(0x06))\n      dup2\n      jump\t// out\n        /* \"contracts/worksystems/AddressManager.sol\":5037:5255  function AreMasterSubLinked(address _master, address _address)\r... */\n    tag_113:\n        /* \"contracts/worksystems/AddressManager.sol\":5148:5152  bool */\n      0x00\n        /* \"contracts/worksystems/AddressManager.sol\":5181:5213  isSubWorkerOf(_master, _address) */\n      tag_224\n        /* \"contracts/worksystems/AddressManager.sol\":5195:5202  _master */\n      dup4\n        /* \"contracts/worksystems/AddressManager.sol\":5204:5212  _address */\n      dup4\n        /* \"contracts/worksystems/AddressManager.sol\":5181:5194  isSubWorkerOf */\n      tag_105\n        /* \"contracts/worksystems/AddressManager.sol\":5181:5213  isSubWorkerOf(_master, _address) */\n      jump\t// in\n    tag_224:\n        /* \"contracts/worksystems/AddressManager.sol\":5181:5246  isSubWorkerOf(_master, _address) && isMasterOf(_master, _address) */\n      dup1\n      iszero\n      tag_226\n      jumpi\n      pop\n        /* \"contracts/worksystems/AddressManager.sol\":5217:5246  isMasterOf(_master, _address) */\n      tag_226\n        /* \"contracts/worksystems/AddressManager.sol\":5228:5235  _master */\n      dup4\n        /* \"contracts/worksystems/AddressManager.sol\":5237:5245  _address */\n      dup4\n        /* \"contracts/worksystems/AddressManager.sol\":5217:5227  isMasterOf */\n      tag_105\n        /* \"contracts/worksystems/AddressManager.sol\":5217:5246  isMasterOf(_master, _address) */\n      jump\t// in\n    tag_226:\n        /* \"contracts/worksystems/AddressManager.sol\":5173:5247  return (isSubWorkerOf(_master, _address) && isMasterOf(_master, _address)) */\n      swap4\n        /* \"contracts/worksystems/AddressManager.sol\":5037:5255  function AreMasterSubLinked(address _master, address _address)\r... */\n      swap3\n      pop\n      pop\n      pop\n      jump\t// out\n        /* \"contracts/worksystems/AddressManager.sol\":2804:2972  function isMasterOfMe(address _master)\r... */\n    tag_121:\n      sub(shl(0xa0, 0x01), 0x01)\n        /* \"contracts/worksystems/AddressManager.sol\":2923:2952  MasterClaimingWorker[_master] */\n      and\n        /* \"contracts/worksystems/AddressManager.sol\":2891:2895  bool */\n      0x00\n        /* \"contracts/worksystems/AddressManager.sol\":2923:2952  MasterClaimingWorker[_master] */\n      swap1\n      dup2\n      mstore\n        /* \"contracts/worksystems/AddressManager.sol\":2923:2943  MasterClaimingWorker */\n      0x01\n        /* \"contracts/worksystems/AddressManager.sol\":2923:2952  MasterClaimingWorker[_master] */\n      0x20\n      swap1\n      dup2\n      mstore\n      0x40\n      dup1\n      dup4\n      keccak256\n        /* \"contracts/worksystems/AddressManager.sol\":2953:2963  msg.sender */\n      caller\n        /* \"contracts/worksystems/AddressManager.sol\":2923:2964  MasterClaimingWorker[_master][msg.sender] */\n      dup5\n      mstore\n      swap1\n      swap2\n      mstore\n      swap1\n      keccak256\n      sload\n      0xff\n      and\n      swap1\n        /* \"contracts/worksystems/AddressManager.sol\":2804:2972  function isMasterOfMe(address _master)\r... */\n      jump\t// out\n        /* \"contracts/worksystems/AddressManager.sol\":2463:2585  function updateRepManager(address addr)\r... */\n    tag_125:\n        /* \"@openzeppelin/contracts/access/Ownable.sol\":1259:1271  _msgSender() */\n      tag_230\n        /* \"@openzeppelin/contracts/access/Ownable.sol\":1259:1269  _msgSender */\n      tag_146\n        /* \"@openzeppelin/contracts/access/Ownable.sol\":1259:1271  _msgSender() */\n      jump\t// in\n    tag_230:\n      sub(shl(0xa0, 0x01), 0x01)\n        /* \"@openzeppelin/contracts/access/Ownable.sol\":1248:1271  owner() == _msgSender() */\n      and\n        /* \"@openzeppelin/contracts/access/Ownable.sol\":1248:1255  owner() */\n      tag_231\n        /* \"@openzeppelin/contracts/access/Ownable.sol\":1248:1253  owner */\n      tag_101\n        /* \"@openzeppelin/contracts/access/Ownable.sol\":1248:1255  owner() */\n      jump\t// in\n    tag_231:\n      sub(shl(0xa0, 0x01), 0x01)\n        /* \"@openzeppelin/contracts/access/Ownable.sol\":1248:1271  owner() == _msgSender() */\n      and\n      eq\n        /* \"@openzeppelin/contracts/access/Ownable.sol\":1240:1308  require(owner() == _msgSender(), \"Ownable: caller is not the owner\") */\n      tag_232\n      jumpi\n      mload(0x40)\n      shl(0xe5, 0x461bcd)\n      dup2\n      mstore\n      0x04\n      add\n      tag_149\n      swap1\n      tag_150\n      jump\t// in\n    tag_232:\n        /* \"contracts/worksystems/AddressManager.sol\":2546:2556  RepManager */\n      0x07\n        /* \"contracts/worksystems/AddressManager.sol\":2546:2577  RepManager  = IRepManager(addr) */\n      dup1\n      sload\n      not(sub(shl(0xa0, 0x01), 0x01))\n      and\n      sub(shl(0xa0, 0x01), 0x01)\n      swap3\n      swap1\n      swap3\n      and\n      swap2\n      swap1\n      swap2\n      or\n      swap1\n      sstore\n        /* \"contracts/worksystems/AddressManager.sol\":2463:2585  function updateRepManager(address addr)\r... */\n      jump\t// out\n        /* \"contracts/worksystems/AddressManager.sol\":9566:9922  function ClaimMaster(address _master)\r... */\n    tag_128:\n      sub(shl(0xa0, 0x01), 0x01)\n        /* \"contracts/worksystems/AddressManager.sol\":9636:9665  WorkerClaimingMaster[_master] */\n      dup2\n      and\n      0x00\n      dup2\n      dup2\n      mstore\n        /* \"contracts/worksystems/AddressManager.sol\":9636:9656  WorkerClaimingMaster */\n      0x02\n        /* \"contracts/worksystems/AddressManager.sol\":9636:9665  WorkerClaimingMaster[_master] */\n      0x20\n      swap1\n      dup2\n      mstore\n      0x40\n      dup1\n      dup4\n      keccak256\n        /* \"contracts/worksystems/AddressManager.sol\":9666:9676  msg.sender */\n      caller\n        /* \"contracts/worksystems/AddressManager.sol\":9636:9677  WorkerClaimingMaster[_master][msg.sender] */\n      dup1\n      dup6\n      mstore\n      swap1\n      dup4\n      mstore\n      dup2\n      dup5\n      keccak256\n        /* \"contracts/worksystems/AddressManager.sol\":9636:9684  WorkerClaimingMaster[_master][msg.sender] = true */\n      dup1\n      sload\n      not(0xff)\n      and\n        /* \"contracts/worksystems/AddressManager.sol\":9680:9684  true */\n      0x01\n        /* \"contracts/worksystems/AddressManager.sol\":9636:9684  WorkerClaimingMaster[_master][msg.sender] = true */\n      or\n      swap1\n      sstore\n        /* \"contracts/worksystems/AddressManager.sol\":9695:9709  SubToMasterMap */\n      0x04\n        /* \"contracts/worksystems/AddressManager.sol\":9695:9721  SubToMasterMap[msg.sender] */\n      swap1\n      swap3\n      mstore\n      swap1\n      swap2\n      keccak256\n        /* \"contracts/worksystems/AddressManager.sol\":9695:9731  SubToMasterMap[msg.sender] = _master */\n      dup1\n      sload\n      not(sub(shl(0xa0, 0x01), 0x01))\n      and\n      swap1\n      swap3\n      or\n      swap1\n      swap2\n      sstore\n        /* \"contracts/worksystems/AddressManager.sol\":9780:9811  TransferRepToMaster(msg.sender) */\n      tag_236\n      swap1\n        /* \"contracts/worksystems/AddressManager.sol\":9780:9799  TransferRepToMaster */\n      tag_237\n        /* \"contracts/worksystems/AddressManager.sol\":9780:9811  TransferRepToMaster(msg.sender) */\n      jump\t// in\n    tag_236:\n        /* \"contracts/worksystems/AddressManager.sol\":9822:9857  TransferRewardsToMaster(msg.sender) */\n      tag_238\n        /* \"contracts/worksystems/AddressManager.sol\":9846:9856  msg.sender */\n      caller\n        /* \"contracts/worksystems/AddressManager.sol\":9822:9845  TransferRewardsToMaster */\n      tag_239\n        /* \"contracts/worksystems/AddressManager.sol\":9822:9857  TransferRewardsToMaster(msg.sender) */\n      jump\t// in\n    tag_238:\n        /* \"contracts/worksystems/AddressManager.sol\":9894:9904  msg.sender */\n      caller\n      sub(shl(0xa0, 0x01), 0x01)\n        /* \"contracts/worksystems/AddressManager.sol\":9873:9914  AddressAddedByWorker(msg.sender, _master) */\n      and\n      0x85851bdf5239daecee00c49afa200b87f208a1cc246f3c3da177796c9f605d73\n        /* \"contracts/worksystems/AddressManager.sol\":9906:9913  _master */\n      dup3\n        /* \"contracts/worksystems/AddressManager.sol\":9873:9914  AddressAddedByWorker(msg.sender, _master) */\n      mload(0x40)\n      tag_170\n      swap2\n      swap1\n      tag_54\n      jump\t// in\n        /* \"contracts/worksystems/AddressManager.sol\":1305:1356  mapping (address =>  address) public SubToMasterMap */\n    tag_131:\n      mstore(0x20, 0x04)\n      0x00\n      swap1\n      dup2\n      mstore\n      0x40\n      swap1\n      keccak256\n      sload\n      sub(shl(0xa0, 0x01), 0x01)\n      and\n      dup2\n      jump\t// out\n        /* \"contracts/worksystems/AddressManager.sol\":4184:4334  function getMaster(address _worker)\r... */\n    tag_135:\n      sub(shl(0xa0, 0x01), 0x01)\n        /* \"contracts/worksystems/AddressManager.sol\":4303:4326  SubToMasterMap[_worker] */\n      swap1\n      dup2\n      and\n        /* \"contracts/worksystems/AddressManager.sol\":4268:4275  address */\n      0x00\n        /* \"contracts/worksystems/AddressManager.sol\":4303:4326  SubToMasterMap[_worker] */\n      swap1\n      dup2\n      mstore\n        /* \"contracts/worksystems/AddressManager.sol\":4303:4317  SubToMasterMap */\n      0x04\n        /* \"contracts/worksystems/AddressManager.sol\":4303:4326  SubToMasterMap[_worker] */\n      0x20\n      mstore\n      0x40\n      swap1\n      keccak256\n      sload\n      and\n      swap1\n        /* \"contracts/worksystems/AddressManager.sol\":4184:4334  function getMaster(address _worker)\r... */\n      jump\t// out\n        /* \"@openzeppelin/contracts/access/Ownable.sol\":1918:2116  function transferOwnership(address newOwner) public virtual onlyOwner {... */\n    tag_139:\n        /* \"@openzeppelin/contracts/access/Ownable.sol\":1259:1271  _msgSender() */\n      tag_243\n        /* \"@openzeppelin/contracts/access/Ownable.sol\":1259:1269  _msgSender */\n      tag_146\n        /* \"@openzeppelin/contracts/access/Ownable.sol\":1259:1271  _msgSender() */\n      jump\t// in\n    tag_243:\n      sub(shl(0xa0, 0x01), 0x01)\n        /* \"@openzeppelin/contracts/access/Ownable.sol\":1248:1271  owner() == _msgSender() */\n      and\n        /* \"@openzeppelin/contracts/access/Ownable.sol\":1248:1255  owner() */\n      tag_244\n        /* \"@openzeppelin/contracts/access/Ownable.sol\":1248:1253  owner */\n      tag_101\n        /* \"@openzeppelin/contracts/access/Ownable.sol\":1248:1255  owner() */\n      jump\t// in\n    tag_244:\n      sub(shl(0xa0, 0x01), 0x01)\n        /* \"@openzeppelin/contracts/access/Ownable.sol\":1248:1271  owner() == _msgSender() */\n      and\n      eq\n        /* \"@openzeppelin/contracts/access/Ownable.sol\":1240:1308  require(owner() == _msgSender(), \"Ownable: caller is not the owner\") */\n      tag_245\n      jumpi\n      mload(0x40)\n      shl(0xe5, 0x461bcd)\n      dup2\n      mstore\n      0x04\n      add\n      tag_149\n      swap1\n      tag_150\n      jump\t// in\n    tag_245:\n      sub(shl(0xa0, 0x01), 0x01)\n        /* \"@openzeppelin/contracts/access/Ownable.sol\":2006:2028  newOwner != address(0) */\n      dup2\n      and\n        /* \"@openzeppelin/contracts/access/Ownable.sol\":1998:2071  require(newOwner != address(0), \"Ownable: new owner is the zero address\") */\n      tag_248\n      jumpi\n      mload(0x40)\n      shl(0xe5, 0x461bcd)\n      dup2\n      mstore\n      0x04\n      add\n      tag_149\n      swap1\n      tag_250\n      jump\t// in\n    tag_248:\n        /* \"@openzeppelin/contracts/access/Ownable.sol\":2081:2109  _transferOwnership(newOwner) */\n      tag_251\n        /* \"@openzeppelin/contracts/access/Ownable.sol\":2100:2108  newOwner */\n      dup2\n        /* \"@openzeppelin/contracts/access/Ownable.sol\":2081:2099  _transferOwnership */\n      tag_208\n        /* \"@openzeppelin/contracts/access/Ownable.sol\":2081:2109  _transferOwnership(newOwner) */\n      jump\t// in\n    tag_251:\n        /* \"@openzeppelin/contracts/access/Ownable.sol\":1918:2116  function transferOwnership(address newOwner) public virtual onlyOwner {... */\n      pop\n      jump\t// out\n        /* \"contracts/worksystems/AddressManager.sol\":3778:4176  function isSubInMasterArray(address _worker, address _master) public view returns(bool){\r... */\n    tag_142:\n      sub(shl(0xa0, 0x01), 0x01)\n        /* \"contracts/worksystems/AddressManager.sol\":3937:3961  MasterToSubsMap[_master] */\n      dup2\n      and\n        /* \"contracts/worksystems/AddressManager.sol\":3860:3864  bool */\n      0x00\n        /* \"contracts/worksystems/AddressManager.sol\":3937:3961  MasterToSubsMap[_master] */\n      swap1\n      dup2\n      mstore\n        /* \"contracts/worksystems/AddressManager.sol\":3937:3952  MasterToSubsMap */\n      0x03\n        /* \"contracts/worksystems/AddressManager.sol\":3937:3961  MasterToSubsMap[_master] */\n      0x20\n      swap1\n      dup2\n      mstore\n      0x40\n      dup1\n      dup4\n      keccak256\n        /* \"contracts/worksystems/AddressManager.sol\":3905:3961  address[] memory sub_workers_ = MasterToSubsMap[_master] */\n      dup1\n      sload\n      dup3\n      mload\n      dup2\n      dup6\n      mul\n      dup2\n      add\n      dup6\n      add\n      swap1\n      swap4\n      mstore\n      dup1\n      dup4\n      mstore\n        /* \"contracts/worksystems/AddressManager.sol\":3860:3864  bool */\n      dup5\n      swap4\n      dup5\n      swap4\n        /* \"contracts/worksystems/AddressManager.sol\":3905:3961  address[] memory sub_workers_ = MasterToSubsMap[_master] */\n      swap3\n        /* \"contracts/worksystems/AddressManager.sol\":3937:3961  MasterToSubsMap[_master] */\n      swap2\n        /* \"contracts/worksystems/AddressManager.sol\":3905:3961  address[] memory sub_workers_ = MasterToSubsMap[_master] */\n      swap1\n      dup4\n      add\n        /* \"contracts/worksystems/AddressManager.sol\":3937:3961  MasterToSubsMap[_master] */\n      dup3\n        /* \"contracts/worksystems/AddressManager.sol\":3905:3961  address[] memory sub_workers_ = MasterToSubsMap[_master] */\n      dup3\n      dup1\n      iszero\n      tag_253\n      jumpi\n      0x20\n      mul\n      dup3\n      add\n      swap2\n      swap1\n      0x00\n      mstore\n      keccak256(0x00, 0x20)\n      swap1\n    tag_254:\n      dup2\n      sload\n      sub(shl(0xa0, 0x01), 0x01)\n      and\n      dup2\n      mstore\n      0x01\n      swap1\n      swap2\n      add\n      swap1\n      0x20\n      add\n      dup1\n      dup4\n      gt\n      tag_254\n      jumpi\n    tag_253:\n      pop\n      pop\n      pop\n      pop\n      pop\n      swap1\n      pop\n        /* \"contracts/worksystems/AddressManager.sol\":3976:3985  uint256 i */\n      0x00\n        /* \"contracts/worksystems/AddressManager.sol\":3972:4146  for(uint256 i = 0; i< sub_workers_.length; i++){\r... */\n    tag_255:\n        /* \"contracts/worksystems/AddressManager.sol\":3994:4006  sub_workers_ */\n      dup2\n        /* \"contracts/worksystems/AddressManager.sol\":3994:4013  sub_workers_.length */\n      mload\n        /* \"contracts/worksystems/AddressManager.sol\":3991:3992  i */\n      dup2\n        /* \"contracts/worksystems/AddressManager.sol\":3991:4013  i< sub_workers_.length */\n      lt\n        /* \"contracts/worksystems/AddressManager.sol\":3972:4146  for(uint256 i = 0; i< sub_workers_.length; i++){\r... */\n      iszero\n      tag_256\n      jumpi\n        /* \"contracts/worksystems/AddressManager.sol\":4056:4063  _worker */\n      dup6\n      sub(shl(0xa0, 0x01), 0x01)\n        /* \"contracts/worksystems/AddressManager.sol\":4037:4063  sub_workers_[i] == _worker */\n      and\n        /* \"contracts/worksystems/AddressManager.sol\":4037:4049  sub_workers_ */\n      dup3\n        /* \"contracts/worksystems/AddressManager.sol\":4050:4051  i */\n      dup3\n        /* \"contracts/worksystems/AddressManager.sol\":4037:4052  sub_workers_[i] */\n      dup2\n      mload\n      dup2\n      lt\n      tag_258\n      jumpi\n      mstore(0x00, shl(0xe0, 0x4e487b71))\n      mstore(0x04, 0x32)\n      revert(0x00, 0x24)\n    tag_258:\n      0x20\n      mul\n      0x20\n      add\n      add\n      mload\n      sub(shl(0xa0, 0x01), 0x01)\n        /* \"contracts/worksystems/AddressManager.sol\":4037:4063  sub_workers_[i] == _worker */\n      and\n      eq\n        /* \"contracts/worksystems/AddressManager.sol\":4034:4135  if(sub_workers_[i] == _worker){\r... */\n      iszero\n      tag_259\n      jumpi\n        /* \"contracts/worksystems/AddressManager.sol\":4091:4095  true */\n      0x01\n        /* \"contracts/worksystems/AddressManager.sol\":4083:4095  found = true */\n      swap3\n      pop\n        /* \"contracts/worksystems/AddressManager.sol\":4114:4119  break */\n      jump(tag_256)\n        /* \"contracts/worksystems/AddressManager.sol\":4034:4135  if(sub_workers_[i] == _worker){\r... */\n    tag_259:\n        /* \"contracts/worksystems/AddressManager.sol\":4015:4018  i++ */\n      dup1\n      tag_260\n      dup2\n      tag_188\n      jump\t// in\n    tag_260:\n      swap2\n      pop\n      pop\n        /* \"contracts/worksystems/AddressManager.sol\":3972:4146  for(uint256 i = 0; i< sub_workers_.length; i++){\r... */\n      jump(tag_255)\n    tag_256:\n      pop\n        /* \"contracts/worksystems/AddressManager.sol\":4163:4168  found */\n      swap1\n      swap5\n        /* \"contracts/worksystems/AddressManager.sol\":3778:4176  function isSubInMasterArray(address _worker, address _master) public view returns(bool){\r... */\n      swap4\n      pop\n      pop\n      pop\n      pop\n      jump\t// out\n        /* \"@openzeppelin/contracts/utils/Context.sol\":640:736  function _msgSender() internal view virtual returns (address) {... */\n    tag_146:\n        /* \"@openzeppelin/contracts/utils/Context.sol\":719:729  msg.sender */\n      caller\n        /* \"@openzeppelin/contracts/utils/Context.sol\":640:736  function _msgSender() internal view virtual returns (address) {... */\n      swap1\n      jump\t// out\n        /* \"contracts/worksystems/AddressManager.sol\":4342:4962  function PopFromSubsArray(address _master, address _worker) internal{\r... */\n    tag_194:\n        /* \"contracts/worksystems/AddressManager.sol\":4421:4434  uint256 index */\n      0x00\n        /* \"contracts/worksystems/AddressManager.sol\":4449:4459  bool found */\n      dup1\n        /* \"contracts/worksystems/AddressManager.sol\":4482:4491  uint256 i */\n      0x00\n        /* \"contracts/worksystems/AddressManager.sol\":4478:4704  for(uint256 i = 0; i< MasterToSubsMap[_master].length; i++){\r... */\n    tag_263:\n      sub(shl(0xa0, 0x01), 0x01)\n        /* \"contracts/worksystems/AddressManager.sol\":4500:4524  MasterToSubsMap[_master] */\n      dup6\n      and\n      0x00\n      swap1\n      dup2\n      mstore\n        /* \"contracts/worksystems/AddressManager.sol\":4500:4515  MasterToSubsMap */\n      0x03\n        /* \"contracts/worksystems/AddressManager.sol\":4500:4524  MasterToSubsMap[_master] */\n      0x20\n      mstore\n      0x40\n      swap1\n      keccak256\n        /* \"contracts/worksystems/AddressManager.sol\":4500:4531  MasterToSubsMap[_master].length */\n      sload\n        /* \"contracts/worksystems/AddressManager.sol\":4497:4531  i< MasterToSubsMap[_master].length */\n      dup2\n      lt\n        /* \"contracts/worksystems/AddressManager.sol\":4478:4704  for(uint256 i = 0; i< MasterToSubsMap[_master].length; i++){\r... */\n      iszero\n      tag_264\n      jumpi\n      sub(shl(0xa0, 0x01), 0x01)\n        /* \"contracts/worksystems/AddressManager.sol\":4555:4579  MasterToSubsMap[_master] */\n      dup6\n      dup2\n      and\n      0x00\n      swap1\n      dup2\n      mstore\n        /* \"contracts/worksystems/AddressManager.sol\":4555:4570  MasterToSubsMap */\n      0x03\n        /* \"contracts/worksystems/AddressManager.sol\":4555:4579  MasterToSubsMap[_master] */\n      0x20\n      mstore\n      0x40\n      swap1\n      keccak256\n        /* \"contracts/worksystems/AddressManager.sol\":4555:4582  MasterToSubsMap[_master][i] */\n      dup1\n      sload\n        /* \"contracts/worksystems/AddressManager.sol\":4555:4593  MasterToSubsMap[_master][i] == _worker */\n      swap2\n      dup7\n      and\n      swap2\n        /* \"contracts/worksystems/AddressManager.sol\":4580:4581  i */\n      dup4\n      swap1\n        /* \"contracts/worksystems/AddressManager.sol\":4555:4582  MasterToSubsMap[_master][i] */\n      dup2\n      lt\n      tag_266\n      jumpi\n      mstore(0x00, shl(0xe0, 0x4e487b71))\n      mstore(0x04, 0x32)\n      revert(0x00, 0x24)\n    tag_266:\n      0x00\n      swap2\n      dup3\n      mstore\n      0x20\n      swap1\n      swap2\n      keccak256\n      add\n      sload\n      sub(shl(0xa0, 0x01), 0x01)\n      and\n        /* \"contracts/worksystems/AddressManager.sol\":4555:4593  MasterToSubsMap[_master][i] == _worker */\n      eq\n        /* \"contracts/worksystems/AddressManager.sol\":4552:4693  if(MasterToSubsMap[_master][i] == _worker){\r... */\n      iszero\n      tag_268\n      jumpi\n        /* \"contracts/worksystems/AddressManager.sol\":4621:4625  true */\n      0x01\n        /* \"contracts/worksystems/AddressManager.sol\":4613:4625  found = true */\n      swap2\n      pop\n        /* \"contracts/worksystems/AddressManager.sol\":4652:4653  i */\n      dup1\n        /* \"contracts/worksystems/AddressManager.sol\":4644:4653  index = i */\n      swap3\n      pop\n        /* \"contracts/worksystems/AddressManager.sol\":4672:4677  break */\n      jump(tag_264)\n        /* \"contracts/worksystems/AddressManager.sol\":4552:4693  if(MasterToSubsMap[_master][i] == _worker){\r... */\n    tag_268:\n        /* \"contracts/worksystems/AddressManager.sol\":4533:4536  i++ */\n      dup1\n      tag_269\n      dup2\n      tag_188\n      jump\t// in\n    tag_269:\n      swap2\n      pop\n      pop\n        /* \"contracts/worksystems/AddressManager.sol\":4478:4704  for(uint256 i = 0; i< MasterToSubsMap[_master].length; i++){\r... */\n      jump(tag_263)\n    tag_264:\n      pop\n        /* \"contracts/worksystems/AddressManager.sol\":4782:4787  found */\n      dup1\n        /* \"contracts/worksystems/AddressManager.sol\":4779:4955  if(found){\r... */\n      iszero\n      tag_270\n      jumpi\n      sub(shl(0xa0, 0x01), 0x01)\n        /* \"contracts/worksystems/AddressManager.sol\":4837:4861  MasterToSubsMap[_master] */\n      dup5\n      and\n      0x00\n      swap1\n      dup2\n      mstore\n        /* \"contracts/worksystems/AddressManager.sol\":4837:4852  MasterToSubsMap */\n      0x03\n        /* \"contracts/worksystems/AddressManager.sol\":4837:4861  MasterToSubsMap[_master] */\n      0x20\n      mstore\n      0x40\n      swap1\n      keccak256\n        /* \"contracts/worksystems/AddressManager.sol\":4862:4893  MasterToSubsMap[_master].length */\n      dup1\n      sload\n        /* \"contracts/worksystems/AddressManager.sol\":4862:4897  MasterToSubsMap[_master].length - 1 */\n      tag_271\n      swap1\n        /* \"contracts/worksystems/AddressManager.sol\":4896:4897  1 */\n      0x01\n      swap1\n        /* \"contracts/worksystems/AddressManager.sol\":4862:4897  MasterToSubsMap[_master].length - 1 */\n      tag_167\n      jump\t// in\n    tag_271:\n        /* \"contracts/worksystems/AddressManager.sol\":4837:4898  MasterToSubsMap[_master][MasterToSubsMap[_master].length - 1] */\n      dup2\n      sload\n      dup2\n      lt\n      tag_272\n      jumpi\n      mstore(0x00, shl(0xe0, 0x4e487b71))\n      mstore(0x04, 0x32)\n      revert(0x00, 0x24)\n    tag_272:\n      0x00\n      swap2\n      dup3\n      mstore\n      0x20\n      dup1\n      dup4\n      keccak256\n      swap1\n      swap2\n      add\n      sload\n      sub(shl(0xa0, 0x01), 0x01)\n        /* \"contracts/worksystems/AddressManager.sol\":4803:4827  MasterToSubsMap[_master] */\n      dup8\n      dup2\n      and\n      dup5\n      mstore\n        /* \"contracts/worksystems/AddressManager.sol\":4803:4818  MasterToSubsMap */\n      0x03\n        /* \"contracts/worksystems/AddressManager.sol\":4803:4827  MasterToSubsMap[_master] */\n      swap1\n      swap3\n      mstore\n      0x40\n      swap1\n      swap3\n      keccak256\n        /* \"contracts/worksystems/AddressManager.sol\":4803:4834  MasterToSubsMap[_master][index] */\n      dup1\n      sload\n        /* \"contracts/worksystems/AddressManager.sol\":4837:4898  MasterToSubsMap[_master][MasterToSubsMap[_master].length - 1] */\n      swap2\n      swap1\n      swap3\n      and\n      swap2\n        /* \"contracts/worksystems/AddressManager.sol\":4803:4827  MasterToSubsMap[_master] */\n      swap1\n        /* \"contracts/worksystems/AddressManager.sol\":4828:4833  index */\n      dup5\n      swap1\n        /* \"contracts/worksystems/AddressManager.sol\":4803:4834  MasterToSubsMap[_master][index] */\n      dup2\n      lt\n      tag_274\n      jumpi\n      mstore(0x00, shl(0xe0, 0x4e487b71))\n      mstore(0x04, 0x32)\n      revert(0x00, 0x24)\n    tag_274:\n      0x00\n      swap2\n      dup3\n      mstore\n      0x20\n      dup1\n      dup4\n      keccak256\n      swap2\n      swap1\n      swap2\n      add\n        /* \"contracts/worksystems/AddressManager.sol\":4803:4898  MasterToSubsMap[_master][index] = MasterToSubsMap[_master][MasterToSubsMap[_master].length - 1] */\n      dup1\n      sload\n      not(sub(shl(0xa0, 0x01), 0x01))\n      and\n      sub(shl(0xa0, 0x01), 0x01)\n      swap5\n      dup6\n      and\n      or\n      swap1\n      sstore\n        /* \"contracts/worksystems/AddressManager.sol\":4913:4937  MasterToSubsMap[_master] */\n      swap2\n      dup7\n      and\n      dup2\n      mstore\n        /* \"contracts/worksystems/AddressManager.sol\":4913:4928  MasterToSubsMap */\n      0x03\n        /* \"contracts/worksystems/AddressManager.sol\":4913:4937  MasterToSubsMap[_master] */\n      swap1\n      swap2\n      mstore\n      0x40\n      swap1\n      keccak256\n        /* \"contracts/worksystems/AddressManager.sol\":4913:4943  MasterToSubsMap[_master].pop() */\n      dup1\n      sload\n      dup1\n      tag_276\n      jumpi\n      mstore(0x00, shl(0xe0, 0x4e487b71))\n      mstore(0x04, 0x31)\n      revert(0x00, 0x24)\n    tag_276:\n      0x00\n      dup3\n      dup2\n      mstore\n      0x20\n      swap1\n      keccak256\n      dup2\n      add\n      not(0x00)\n      swap1\n      dup2\n      add\n      dup1\n      sload\n      not(sub(shl(0xa0, 0x01), 0x01))\n      and\n      swap1\n      sstore\n      add\n      swap1\n      sstore\n        /* \"contracts/worksystems/AddressManager.sol\":4779:4955  if(found){\r... */\n    tag_270:\n        /* \"contracts/worksystems/AddressManager.sol\":4342:4962  function PopFromSubsArray(address _master, address _worker) internal{\r... */\n      pop\n      pop\n      pop\n      pop\n      jump\t// out\n        /* \"@openzeppelin/contracts/access/Ownable.sol\":2270:2457  function _transferOwnership(address newOwner) internal virtual {... */\n    tag_208:\n        /* \"@openzeppelin/contracts/access/Ownable.sol\":2343:2359  address oldOwner */\n      0x00\n        /* \"@openzeppelin/contracts/access/Ownable.sol\":2362:2368  _owner */\n      dup1\n      sload\n      sub(shl(0xa0, 0x01), 0x01)\n        /* \"@openzeppelin/contracts/access/Ownable.sol\":2378:2395  _owner = newOwner */\n      dup4\n      dup2\n      and\n      not(sub(shl(0xa0, 0x01), 0x01))\n      dup4\n      and\n      dup2\n      or\n      dup5\n      sstore\n        /* \"@openzeppelin/contracts/access/Ownable.sol\":2410:2450  OwnershipTransferred(oldOwner, newOwner) */\n      mload(0x40)\n        /* \"@openzeppelin/contracts/access/Ownable.sol\":2362:2368  _owner */\n      swap2\n      swap1\n      swap3\n      and\n      swap3\n      dup4\n      swap2\n        /* \"@openzeppelin/contracts/access/Ownable.sol\":2410:2450  OwnershipTransferred(oldOwner, newOwner) */\n      0x8be0079c531659141344cd1fd0a4f28419497f9722a3daafe3b4186f6b6457e0\n      swap2\n        /* \"@openzeppelin/contracts/access/Ownable.sol\":2343:2359  address oldOwner */\n      swap1\n        /* \"@openzeppelin/contracts/access/Ownable.sol\":2410:2450  OwnershipTransferred(oldOwner, newOwner) */\n      log3\n        /* \"@openzeppelin/contracts/access/Ownable.sol\":2270:2457  function _transferOwnership(address newOwner) internal virtual {... */\n      pop\n      pop\n      jump\t// out\n        /* \"contracts/worksystems/AddressManager.sol\":7736:8814  function TransferRepToMaster(address _worker)\r... */\n    tag_237:\n        /* \"contracts/worksystems/AddressManager.sol\":7843:7853  Reputation */\n      and(sub(shl(0xa0, 0x01), 0x01), sload(0x06))\n        /* \"contracts/worksystems/AddressManager.sol\":7827:7901  require(address(Reputation) != address(0), \"Reputation needs to be setup\") */\n      tag_280\n      jumpi\n      mload(0x40)\n      shl(0xe5, 0x461bcd)\n      dup2\n      mstore\n      0x04\n      add\n      tag_149\n      swap1\n      tag_282\n      jump\t// in\n    tag_280:\n        /* \"contracts/worksystems/AddressManager.sol\":7928:7938  RepManager */\n      and(sub(shl(0xa0, 0x01), 0x01), sload(0x07))\n        /* \"contracts/worksystems/AddressManager.sol\":7912:7986  require(address(RepManager) != address(0), \"RepManager needs to be setup\") */\n      tag_283\n      jumpi\n      mload(0x40)\n      shl(0xe5, 0x461bcd)\n      dup2\n      mstore\n      0x04\n      add\n      tag_149\n      swap1\n      tag_285\n      jump\t// in\n    tag_283:\n      sub(shl(0xa0, 0x01), 0x01)\n        /* \"contracts/worksystems/AddressManager.sol\":8005:8028  SubToMasterMap[_worker] */\n      dup2\n      dup2\n      and\n        /* \"contracts/worksystems/AddressManager.sol\":8040:8041  0 */\n      0x00\n        /* \"contracts/worksystems/AddressManager.sol\":8005:8028  SubToMasterMap[_worker] */\n      swap1\n      dup2\n      mstore\n        /* \"contracts/worksystems/AddressManager.sol\":8005:8019  SubToMasterMap */\n      0x04\n        /* \"contracts/worksystems/AddressManager.sol\":8005:8028  SubToMasterMap[_worker] */\n      0x20\n      mstore\n      0x40\n      swap1\n      keccak256\n      sload\n      and\n        /* \"contracts/worksystems/AddressManager.sol\":7997:8113  require(SubToMasterMap[_worker] != address(0), \"TransferRepToMaster: input _worker needs to have a non-null master\") */\n      tag_286\n      jumpi\n      mload(0x40)\n      shl(0xe5, 0x461bcd)\n      dup2\n      mstore\n      0x04\n      add\n      tag_149\n      swap1\n      tag_288\n      jump\t// in\n    tag_286:\n        /* \"contracts/worksystems/AddressManager.sol\":8189:8199  Reputation */\n      sload(0x06)\n        /* \"contracts/worksystems/AddressManager.sol\":8189:8218  Reputation.balanceOf(_worker) */\n      mload(0x40)\n      shl(0xe0, 0x70a08231)\n      dup2\n      mstore\n        /* \"contracts/worksystems/AddressManager.sol\":8167:8186  uint256 _worker_rep */\n      0x00\n      swap2\n      sub(shl(0xa0, 0x01), 0x01)\n        /* \"contracts/worksystems/AddressManager.sol\":8189:8199  Reputation */\n      and\n      swap1\n        /* \"contracts/worksystems/AddressManager.sol\":8189:8209  Reputation.balanceOf */\n      0x70a08231\n      swap1\n        /* \"contracts/worksystems/AddressManager.sol\":8189:8218  Reputation.balanceOf(_worker) */\n      tag_289\n      swap1\n        /* \"contracts/worksystems/AddressManager.sol\":8210:8217  _worker */\n      dup6\n      swap1\n        /* \"contracts/worksystems/AddressManager.sol\":8189:8218  Reputation.balanceOf(_worker) */\n      0x04\n      add\n      tag_54\n      jump\t// in\n    tag_289:\n      0x20\n      mload(0x40)\n      dup1\n      dup4\n      sub\n      dup2\n      dup7\n      dup1\n      extcodesize\n      iszero\n      dup1\n      iszero\n      tag_290\n      jumpi\n      0x00\n      dup1\n      revert\n    tag_290:\n      pop\n      gas\n      staticcall\n      iszero\n      dup1\n      iszero\n      tag_292\n      jumpi\n      returndatasize\n      0x00\n      dup1\n      returndatacopy\n      revert(0x00, returndatasize)\n    tag_292:\n      pop\n      pop\n      pop\n      pop\n      mload(0x40)\n      returndatasize\n      not(0x1f)\n      0x1f\n      dup3\n      add\n      and\n      dup3\n      add\n      dup1\n      0x40\n      mstore\n      pop\n      dup2\n      add\n      swap1\n      tag_293\n      swap2\n      swap1\n      tag_294\n      jump\t// in\n    tag_293:\n        /* \"contracts/worksystems/AddressManager.sol\":8167:8218  uint256 _worker_rep = Reputation.balanceOf(_worker) */\n      swap1\n      pop\n        /* \"contracts/worksystems/AddressManager.sol\":8229:8252  address _highest_master */\n      0x00\n        /* \"contracts/worksystems/AddressManager.sol\":8255:8282  FetchHighestMaster(_worker) */\n      tag_295\n        /* \"contracts/worksystems/AddressManager.sol\":8274:8281  _worker */\n      dup4\n        /* \"contracts/worksystems/AddressManager.sol\":8255:8273  FetchHighestMaster */\n      tag_52\n        /* \"contracts/worksystems/AddressManager.sol\":8255:8282  FetchHighestMaster(_worker) */\n      jump\t// in\n    tag_295:\n        /* \"contracts/worksystems/AddressManager.sol\":8229:8282  address _highest_master = FetchHighestMaster(_worker) */\n      swap1\n      pop\n        /* \"contracts/worksystems/AddressManager.sol\":8296:8311  _worker_rep > 0 */\n      dup2\n      iszero\n        /* \"contracts/worksystems/AddressManager.sol\":8293:8807  if(_worker_rep > 0){\r... */\n      tag_296\n      jumpi\n        /* \"contracts/worksystems/AddressManager.sol\":8397:8407  RepManager */\n      sload(0x07)\n        /* \"contracts/worksystems/AddressManager.sol\":8397:8463  RepManager.mintReputationForWork(_worker_rep, _highest_master, \"\") */\n      mload(0x40)\n      shl(0xe1, 0x0db6cc85)\n      dup2\n      mstore\n      sub(shl(0xa0, 0x01), 0x01)\n        /* \"contracts/worksystems/AddressManager.sol\":8397:8407  RepManager */\n      swap1\n      swap2\n      and\n      swap1\n        /* \"contracts/worksystems/AddressManager.sol\":8397:8429  RepManager.mintReputationForWork */\n      0x1b6d990a\n      swap1\n        /* \"contracts/worksystems/AddressManager.sol\":8397:8463  RepManager.mintReputationForWork(_worker_rep, _highest_master, \"\") */\n      tag_297\n      swap1\n        /* \"contracts/worksystems/AddressManager.sol\":8430:8441  _worker_rep */\n      dup6\n      swap1\n        /* \"contracts/worksystems/AddressManager.sol\":8443:8458  _highest_master */\n      dup6\n      swap1\n        /* \"contracts/worksystems/AddressManager.sol\":8397:8463  RepManager.mintReputationForWork(_worker_rep, _highest_master, \"\") */\n      0x04\n      add\n      tag_298\n      jump\t// in\n    tag_297:\n      0x20\n      mload(0x40)\n      dup1\n      dup4\n      sub\n      dup2\n      0x00\n      dup8\n      dup1\n      extcodesize\n      iszero\n      dup1\n      iszero\n      tag_299\n      jumpi\n      0x00\n      dup1\n      revert\n    tag_299:\n      pop\n      gas\n      call\n      iszero\n      dup1\n      iszero\n      tag_301\n      jumpi\n      returndatasize\n      0x00\n      dup1\n      returndatacopy\n      revert(0x00, returndatasize)\n    tag_301:\n      pop\n      pop\n      pop\n      pop\n      mload(0x40)\n      returndatasize\n      not(0x1f)\n      0x1f\n      dup3\n      add\n      and\n      dup3\n      add\n      dup1\n      0x40\n      mstore\n      pop\n      dup2\n      add\n      swap1\n      tag_302\n      swap2\n      swap1\n      tag_303\n      jump\t// in\n    tag_302:\n        /* \"contracts/worksystems/AddressManager.sol\":8389:8517  require(RepManager.mintReputationForWork(_worker_rep, _highest_master, \"\"), \"TransferRepToMaster: could not mint Rep to master\") */\n      tag_304\n      jumpi\n      mload(0x40)\n      shl(0xe5, 0x461bcd)\n      dup2\n      mstore\n      0x04\n      add\n      tag_149\n      swap1\n      tag_306\n      jump\t// in\n    tag_304:\n        /* \"contracts/worksystems/AddressManager.sol\":8615:8625  RepManager */\n      sload(0x07)\n        /* \"contracts/worksystems/AddressManager.sol\":8615:8673  RepManager.burnReputationForWork(_worker_rep, _worker, \"\") */\n      mload(0x40)\n      shl(0xe2, 0x171bcfc3)\n      dup2\n      mstore\n      sub(shl(0xa0, 0x01), 0x01)\n        /* \"contracts/worksystems/AddressManager.sol\":8615:8625  RepManager */\n      swap1\n      swap2\n      and\n      swap1\n        /* \"contracts/worksystems/AddressManager.sol\":8615:8647  RepManager.burnReputationForWork */\n      0x5c6f3f0c\n      swap1\n        /* \"contracts/worksystems/AddressManager.sol\":8615:8673  RepManager.burnReputationForWork(_worker_rep, _worker, \"\") */\n      tag_307\n      swap1\n        /* \"contracts/worksystems/AddressManager.sol\":8648:8659  _worker_rep */\n      dup6\n      swap1\n        /* \"contracts/worksystems/AddressManager.sol\":8661:8668  _worker */\n      dup8\n      swap1\n        /* \"contracts/worksystems/AddressManager.sol\":8615:8673  RepManager.burnReputationForWork(_worker_rep, _worker, \"\") */\n      0x04\n      add\n      tag_298\n      jump\t// in\n    tag_307:\n      0x20\n      mload(0x40)\n      dup1\n      dup4\n      sub\n      dup2\n      0x00\n      dup8\n      dup1\n      extcodesize\n      iszero\n      dup1\n      iszero\n      tag_308\n      jumpi\n      0x00\n      dup1\n      revert\n    tag_308:\n      pop\n      gas\n      call\n      iszero\n      dup1\n      iszero\n      tag_310\n      jumpi\n      returndatasize\n      0x00\n      dup1\n      returndatacopy\n      revert(0x00, returndatasize)\n    tag_310:\n      pop\n      pop\n      pop\n      pop\n      mload(0x40)\n      returndatasize\n      not(0x1f)\n      0x1f\n      dup3\n      add\n      and\n      dup3\n      add\n      dup1\n      0x40\n      mstore\n      pop\n      dup2\n      add\n      swap1\n      tag_311\n      swap2\n      swap1\n      tag_303\n      jump\t// in\n    tag_311:\n        /* \"contracts/worksystems/AddressManager.sol\":8607:8729  require(RepManager.burnReputationForWork(_worker_rep, _worker, \"\"), \"TransferRepToMaster: could not burn Rep from worker\") */\n      tag_312\n      jumpi\n      mload(0x40)\n      shl(0xe5, 0x461bcd)\n      dup2\n      mstore\n      0x04\n      add\n      tag_149\n      swap1\n      tag_314\n      jump\t// in\n    tag_312:\n        /* \"contracts/worksystems/AddressManager.sol\":8770:8777  _worker */\n      dup3\n      sub(shl(0xa0, 0x01), 0x01)\n        /* \"contracts/worksystems/AddressManager.sol\":8749:8795  ReputationTransfered(_worker, _highest_master) */\n      and\n      0xc587680578b3acb8eeb1ab421a6921efe2a32b10903016ebd6c3f39e51cd1d96\n        /* \"contracts/worksystems/AddressManager.sol\":8779:8794  _highest_master */\n      dup3\n        /* \"contracts/worksystems/AddressManager.sol\":8749:8795  ReputationTransfered(_worker, _highest_master) */\n      mload(0x40)\n      tag_315\n      swap2\n      swap1\n      tag_54\n      jump\t// in\n    tag_315:\n      mload(0x40)\n      dup1\n      swap2\n      sub\n      swap1\n      log2\n        /* \"contracts/worksystems/AddressManager.sol\":8293:8807  if(_worker_rep > 0){\r... */\n    tag_296:\n        /* \"contracts/worksystems/AddressManager.sol\":7736:8814  function TransferRepToMaster(address _worker)\r... */\n      pop\n      pop\n      pop\n      jump\t// out\n        /* \"contracts/worksystems/AddressManager.sol\":8826:9558  function TransferRewardsToMaster(address _worker)\r... */\n    tag_239:\n        /* \"contracts/worksystems/AddressManager.sol\":8929:8942  RewardManager */\n      and(sub(shl(0xa0, 0x01), 0x01), sload(0x08))\n        /* \"contracts/worksystems/AddressManager.sol\":8913:8993  require(address(RewardManager) != address(0), \"RewardManager needs to be setup\") */\n      tag_317\n      jumpi\n      mload(0x40)\n      shl(0xe5, 0x461bcd)\n      dup2\n      mstore\n      0x04\n      add\n      tag_149\n      swap1\n      tag_319\n      jump\t// in\n    tag_317:\n      sub(shl(0xa0, 0x01), 0x01)\n        /* \"contracts/worksystems/AddressManager.sol\":9012:9035  SubToMasterMap[_worker] */\n      dup2\n      dup2\n      and\n        /* \"contracts/worksystems/AddressManager.sol\":9047:9048  0 */\n      0x00\n        /* \"contracts/worksystems/AddressManager.sol\":9012:9035  SubToMasterMap[_worker] */\n      swap1\n      dup2\n      mstore\n        /* \"contracts/worksystems/AddressManager.sol\":9012:9026  SubToMasterMap */\n      0x04\n        /* \"contracts/worksystems/AddressManager.sol\":9012:9035  SubToMasterMap[_worker] */\n      0x20\n      mstore\n      0x40\n      swap1\n      keccak256\n      sload\n      and\n        /* \"contracts/worksystems/AddressManager.sol\":9004:9120  require(SubToMasterMap[_worker] != address(0), \"TransferRepToMaster: input _worker needs to have a non-null master\") */\n      tag_320\n      jumpi\n      mload(0x40)\n      shl(0xe5, 0x461bcd)\n      dup2\n      mstore\n      0x04\n      add\n      tag_149\n      swap1\n      tag_288\n      jump\t// in\n    tag_320:\n        /* \"contracts/worksystems/AddressManager.sol\":9200:9213  RewardManager */\n      sload(0x08)\n        /* \"contracts/worksystems/AddressManager.sol\":9200:9239  RewardManager.RewardsBalanceOf(_worker) */\n      mload(0x40)\n      shl(0xe2, 0x3b4febfb)\n      dup2\n      mstore\n        /* \"contracts/worksystems/AddressManager.sol\":9174:9197  uint256 _worker_rewards */\n      0x00\n      swap2\n      sub(shl(0xa0, 0x01), 0x01)\n        /* \"contracts/worksystems/AddressManager.sol\":9200:9213  RewardManager */\n      and\n      swap1\n        /* \"contracts/worksystems/AddressManager.sol\":9200:9230  RewardManager.RewardsBalanceOf */\n      0xed3fafec\n      swap1\n        /* \"contracts/worksystems/AddressManager.sol\":9200:9239  RewardManager.RewardsBalanceOf(_worker) */\n      tag_322\n      swap1\n        /* \"contracts/worksystems/AddressManager.sol\":9231:9238  _worker */\n      dup6\n      swap1\n        /* \"contracts/worksystems/AddressManager.sol\":9200:9239  RewardManager.RewardsBalanceOf(_worker) */\n      0x04\n      add\n      tag_54\n      jump\t// in\n    tag_322:\n      0x20\n      mload(0x40)\n      dup1\n      dup4\n      sub\n      dup2\n      0x00\n      dup8\n      dup1\n      extcodesize\n      iszero\n      dup1\n      iszero\n      tag_323\n      jumpi\n      0x00\n      dup1\n      revert\n    tag_323:\n      pop\n      gas\n      call\n      iszero\n      dup1\n      iszero\n      tag_325\n      jumpi\n      returndatasize\n      0x00\n      dup1\n      returndatacopy\n      revert(0x00, returndatasize)\n    tag_325:\n      pop\n      pop\n      pop\n      pop\n      mload(0x40)\n      returndatasize\n      not(0x1f)\n      0x1f\n      dup3\n      add\n      and\n      dup3\n      add\n      dup1\n      0x40\n      mstore\n      pop\n      dup2\n      add\n      swap1\n      tag_326\n      swap2\n      swap1\n      tag_294\n      jump\t// in\n    tag_326:\n        /* \"contracts/worksystems/AddressManager.sol\":9174:9239  uint256 _worker_rewards = RewardManager.RewardsBalanceOf(_worker) */\n      swap1\n      pop\n        /* \"contracts/worksystems/AddressManager.sol\":9250:9273  address _highest_master */\n      0x00\n        /* \"contracts/worksystems/AddressManager.sol\":9276:9303  FetchHighestMaster(_worker) */\n      tag_327\n        /* \"contracts/worksystems/AddressManager.sol\":9295:9302  _worker */\n      dup4\n        /* \"contracts/worksystems/AddressManager.sol\":9276:9294  FetchHighestMaster */\n      tag_52\n        /* \"contracts/worksystems/AddressManager.sol\":9276:9303  FetchHighestMaster(_worker) */\n      jump\t// in\n    tag_327:\n        /* \"contracts/worksystems/AddressManager.sol\":9250:9303  address _highest_master = FetchHighestMaster(_worker) */\n      swap1\n      pop\n        /* \"contracts/worksystems/AddressManager.sol\":9317:9336  _worker_rewards > 0 */\n      dup2\n      iszero\n        /* \"contracts/worksystems/AddressManager.sol\":9314:9551  if(_worker_rewards > 0){\r... */\n      tag_296\n      jumpi\n        /* \"contracts/worksystems/AddressManager.sol\":9360:9373  RewardManager */\n      sload(0x08)\n        /* \"contracts/worksystems/AddressManager.sol\":9360:9420  RewardManager.ProxyTransferRewards(_worker, _highest_master) */\n      mload(0x40)\n      shl(0xe0, 0x5f28bad5)\n      dup2\n      mstore\n      sub(shl(0xa0, 0x01), 0x01)\n        /* \"contracts/worksystems/AddressManager.sol\":9360:9373  RewardManager */\n      swap1\n      swap2\n      and\n      swap1\n        /* \"contracts/worksystems/AddressManager.sol\":9360:9394  RewardManager.ProxyTransferRewards */\n      0x5f28bad5\n      swap1\n        /* \"contracts/worksystems/AddressManager.sol\":9360:9420  RewardManager.ProxyTransferRewards(_worker, _highest_master) */\n      tag_329\n      swap1\n        /* \"contracts/worksystems/AddressManager.sol\":9395:9402  _worker */\n      dup7\n      swap1\n        /* \"contracts/worksystems/AddressManager.sol\":9404:9419  _highest_master */\n      dup6\n      swap1\n        /* \"contracts/worksystems/AddressManager.sol\":9360:9420  RewardManager.ProxyTransferRewards(_worker, _highest_master) */\n      0x04\n      add\n      tag_330\n      jump\t// in\n    tag_329:\n      0x20\n      mload(0x40)\n      dup1\n      dup4\n      sub\n      dup2\n      0x00\n      dup8\n      dup1\n      extcodesize\n      iszero\n      dup1\n      iszero\n      tag_331\n      jumpi\n      0x00\n      dup1\n      revert\n    tag_331:\n      pop\n      gas\n      call\n      iszero\n      dup1\n      iszero\n      tag_333\n      jumpi\n      returndatasize\n      0x00\n      dup1\n      returndatacopy\n      revert(0x00, returndatasize)\n    tag_333:\n      pop\n      pop\n      pop\n      pop\n      mload(0x40)\n      returndatasize\n      not(0x1f)\n      0x1f\n      dup3\n      add\n      and\n      dup3\n      add\n      dup1\n      0x40\n      mstore\n      pop\n      dup2\n      add\n      swap1\n      tag_334\n      swap2\n      swap1\n      tag_303\n      jump\t// in\n    tag_334:\n        /* \"contracts/worksystems/AddressManager.sol\":9352:9476  require(RewardManager.ProxyTransferRewards(_worker, _highest_master), \"TransferRewardsToMaster: could not transfer rewards\") */\n      tag_335\n      jumpi\n      mload(0x40)\n      shl(0xe5, 0x461bcd)\n      dup2\n      mstore\n      0x04\n      add\n      tag_149\n      swap1\n      tag_337\n      jump\t// in\n    tag_335:\n        /* \"contracts/worksystems/AddressManager.sol\":9514:9521  _worker */\n      dup3\n      sub(shl(0xa0, 0x01), 0x01)\n        /* \"contracts/worksystems/AddressManager.sol\":9496:9539  RewardsTransfered(_worker, _highest_master) */\n      and\n      0x04b22084ec80e4b31b47cb8c65cd44c4e4e2840e20dffcbd81bd7d048b74fb4e\n        /* \"contracts/worksystems/AddressManager.sol\":9523:9538  _highest_master */\n      dup3\n        /* \"contracts/worksystems/AddressManager.sol\":9496:9539  RewardsTransfered(_worker, _highest_master) */\n      mload(0x40)\n      tag_315\n      swap2\n      swap1\n      tag_54\n      jump\t// in\n        /* \"#utility.yul\":14:189   */\n    tag_340:\n        /* \"#utility.yul\":84:104   */\n      dup1\n      calldataload\n      sub(shl(0xa0, 0x01), 0x01)\n        /* \"#utility.yul\":133:164   */\n      dup2\n      and\n        /* \"#utility.yul\":123:165   */\n      dup2\n      eq\n        /* \"#utility.yul\":113:115   */\n      tag_152\n      jumpi\n        /* \"#utility.yul\":179:180   */\n      0x00\n        /* \"#utility.yul\":176:177   */\n      dup1\n        /* \"#utility.yul\":169:181   */\n      revert\n        /* \"#utility.yul\":194:392   */\n    tag_40:\n      0x00\n        /* \"#utility.yul\":306:308   */\n      0x20\n        /* \"#utility.yul\":294:303   */\n      dup3\n        /* \"#utility.yul\":285:292   */\n      dup5\n        /* \"#utility.yul\":281:304   */\n      sub\n        /* \"#utility.yul\":277:309   */\n      slt\n        /* \"#utility.yul\":274:276   */\n      iszero\n      tag_344\n      jumpi\n        /* \"#utility.yul\":327:333   */\n      dup1\n        /* \"#utility.yul\":319:325   */\n      dup2\n        /* \"#utility.yul\":312:334   */\n      revert\n        /* \"#utility.yul\":274:276   */\n    tag_344:\n        /* \"#utility.yul\":355:386   */\n      tag_226\n        /* \"#utility.yul\":376:385   */\n      dup3\n        /* \"#utility.yul\":355:386   */\n      tag_340\n      jump\t// in\n        /* \"#utility.yul\":397:671   */\n    tag_60:\n      0x00\n      dup1\n        /* \"#utility.yul\":526:528   */\n      0x40\n        /* \"#utility.yul\":514:523   */\n      dup4\n        /* \"#utility.yul\":505:512   */\n      dup6\n        /* \"#utility.yul\":501:524   */\n      sub\n        /* \"#utility.yul\":497:529   */\n      slt\n        /* \"#utility.yul\":494:496   */\n      iszero\n      tag_347\n      jumpi\n        /* \"#utility.yul\":547:553   */\n      dup1\n        /* \"#utility.yul\":539:545   */\n      dup2\n        /* \"#utility.yul\":532:554   */\n      revert\n        /* \"#utility.yul\":494:496   */\n    tag_347:\n        /* \"#utility.yul\":575:606   */\n      tag_348\n        /* \"#utility.yul\":596:605   */\n      dup4\n        /* \"#utility.yul\":575:606   */\n      tag_340\n      jump\t// in\n    tag_348:\n        /* \"#utility.yul\":565:606   */\n      swap2\n      pop\n        /* \"#utility.yul\":625:665   */\n      tag_349\n        /* \"#utility.yul\":661:663   */\n      0x20\n        /* \"#utility.yul\":650:659   */\n      dup5\n        /* \"#utility.yul\":646:664   */\n      add\n        /* \"#utility.yul\":625:665   */\n      tag_340\n      jump\t// in\n    tag_349:\n        /* \"#utility.yul\":615:665   */\n      swap1\n      pop\n        /* \"#utility.yul\":484:671   */\n      swap3\n      pop\n      swap3\n      swap1\n      pop\n      jump\t// out\n        /* \"#utility.yul\":676:942   */\n    tag_74:\n      0x00\n      dup1\n        /* \"#utility.yul\":805:807   */\n      0x40\n        /* \"#utility.yul\":793:802   */\n      dup4\n        /* \"#utility.yul\":784:791   */\n      dup6\n        /* \"#utility.yul\":780:803   */\n      sub\n        /* \"#utility.yul\":776:808   */\n      slt\n        /* \"#utility.yul\":773:775   */\n      iszero\n      tag_351\n      jumpi\n        /* \"#utility.yul\":826:832   */\n      dup2\n        /* \"#utility.yul\":818:824   */\n      dup3\n        /* \"#utility.yul\":811:833   */\n      revert\n        /* \"#utility.yul\":773:775   */\n    tag_351:\n        /* \"#utility.yul\":854:885   */\n      tag_352\n        /* \"#utility.yul\":875:884   */\n      dup4\n        /* \"#utility.yul\":854:885   */\n      tag_340\n      jump\t// in\n    tag_352:\n        /* \"#utility.yul\":844:885   */\n      swap5\n        /* \"#utility.yul\":932:934   */\n      0x20\n        /* \"#utility.yul\":917:935   */\n      swap4\n      swap1\n      swap4\n      add\n        /* \"#utility.yul\":904:936   */\n      calldataload\n      swap4\n      pop\n      pop\n      pop\n        /* \"#utility.yul\":763:942   */\n      jump\t// out\n        /* \"#utility.yul\":947:2113   */\n    tag_83:\n      0x00\n        /* \"#utility.yul\":1062:1064   */\n      0x20\n        /* \"#utility.yul\":1105:1107   */\n      dup1\n        /* \"#utility.yul\":1093:1102   */\n      dup4\n        /* \"#utility.yul\":1084:1091   */\n      dup6\n        /* \"#utility.yul\":1080:1103   */\n      sub\n        /* \"#utility.yul\":1076:1108   */\n      slt\n        /* \"#utility.yul\":1073:1075   */\n      iszero\n      tag_354\n      jumpi\n        /* \"#utility.yul\":1126:1132   */\n      dup2\n        /* \"#utility.yul\":1118:1124   */\n      dup3\n        /* \"#utility.yul\":1111:1133   */\n      revert\n        /* \"#utility.yul\":1073:1075   */\n    tag_354:\n        /* \"#utility.yul\":1171:1180   */\n      dup3\n        /* \"#utility.yul\":1158:1181   */\n      calldataload\n        /* \"#utility.yul\":1200:1218   */\n      0xffffffffffffffff\n        /* \"#utility.yul\":1241:1243   */\n      dup1\n        /* \"#utility.yul\":1233:1239   */\n      dup3\n        /* \"#utility.yul\":1230:1244   */\n      gt\n        /* \"#utility.yul\":1227:1229   */\n      iszero\n      tag_355\n      jumpi\n        /* \"#utility.yul\":1262:1268   */\n      dup4\n        /* \"#utility.yul\":1254:1260   */\n      dup5\n        /* \"#utility.yul\":1247:1269   */\n      revert\n        /* \"#utility.yul\":1227:1229   */\n    tag_355:\n        /* \"#utility.yul\":1305:1311   */\n      dup2\n        /* \"#utility.yul\":1294:1303   */\n      dup6\n        /* \"#utility.yul\":1290:1312   */\n      add\n        /* \"#utility.yul\":1280:1312   */\n      swap2\n      pop\n        /* \"#utility.yul\":1350:1357   */\n      dup6\n        /* \"#utility.yul\":1343:1347   */\n      0x1f\n        /* \"#utility.yul\":1339:1341   */\n      dup4\n        /* \"#utility.yul\":1335:1348   */\n      add\n        /* \"#utility.yul\":1331:1358   */\n      slt\n        /* \"#utility.yul\":1321:1323   */\n      tag_356\n      jumpi\n        /* \"#utility.yul\":1377:1383   */\n      dup4\n        /* \"#utility.yul\":1369:1375   */\n      dup5\n        /* \"#utility.yul\":1362:1384   */\n      revert\n        /* \"#utility.yul\":1321:1323   */\n    tag_356:\n        /* \"#utility.yul\":1418:1420   */\n      dup2\n        /* \"#utility.yul\":1405:1421   */\n      calldataload\n        /* \"#utility.yul\":1440:1442   */\n      dup2\n        /* \"#utility.yul\":1436:1438   */\n      dup2\n        /* \"#utility.yul\":1433:1443   */\n      gt\n        /* \"#utility.yul\":1430:1432   */\n      iszero\n      tag_358\n      jumpi\n        /* \"#utility.yul\":1446:1464   */\n      tag_358\n      tag_359\n      jump\t// in\n    tag_358:\n        /* \"#utility.yul\":1493:1495   */\n      dup4\n        /* \"#utility.yul\":1489:1491   */\n      dup2\n        /* \"#utility.yul\":1485:1496   */\n      mul\n        /* \"#utility.yul\":1525:1527   */\n      0x40\n        /* \"#utility.yul\":1519:1528   */\n      mload\n        /* \"#utility.yul\":1576:1578   */\n      dup6\n        /* \"#utility.yul\":1571:1573   */\n      dup3\n        /* \"#utility.yul\":1563:1569   */\n      dup3\n        /* \"#utility.yul\":1559:1574   */\n      add\n        /* \"#utility.yul\":1555:1579   */\n      add\n        /* \"#utility.yul\":1629:1635   */\n      dup2\n        /* \"#utility.yul\":1617:1627   */\n      dup2\n        /* \"#utility.yul\":1614:1636   */\n      lt\n        /* \"#utility.yul\":1609:1611   */\n      dup6\n        /* \"#utility.yul\":1597:1607   */\n      dup3\n        /* \"#utility.yul\":1594:1612   */\n      gt\n        /* \"#utility.yul\":1591:1637   */\n      or\n        /* \"#utility.yul\":1588:1590   */\n      iszero\n      tag_361\n      jumpi\n        /* \"#utility.yul\":1640:1658   */\n      tag_361\n      tag_359\n      jump\t// in\n    tag_361:\n        /* \"#utility.yul\":1676:1678   */\n      0x40\n        /* \"#utility.yul\":1669:1691   */\n      mstore\n        /* \"#utility.yul\":1726:1744   */\n      dup3\n      dup2\n      mstore\n        /* \"#utility.yul\":1760:1775   */\n      dup6\n      dup2\n      add\n      swap4\n      pop\n        /* \"#utility.yul\":1795:1806   */\n      dup5\n      dup7\n      add\n        /* \"#utility.yul\":1825:1836   */\n      dup3\n      dup7\n      add\n        /* \"#utility.yul\":1821:1841   */\n      dup8\n      add\n        /* \"#utility.yul\":1818:1851   */\n      dup11\n      lt\n        /* \"#utility.yul\":1815:1817   */\n      iszero\n      tag_362\n      jumpi\n        /* \"#utility.yul\":1869:1875   */\n      dup8\n        /* \"#utility.yul\":1861:1867   */\n      dup9\n        /* \"#utility.yul\":1854:1876   */\n      revert\n        /* \"#utility.yul\":1815:1817   */\n    tag_362:\n        /* \"#utility.yul\":1896:1902   */\n      dup8\n        /* \"#utility.yul\":1887:1902   */\n      swap6\n      pop\n        /* \"#utility.yul\":1911:2082   */\n    tag_363:\n        /* \"#utility.yul\":1925:1927   */\n      dup4\n        /* \"#utility.yul\":1922:1923   */\n      dup7\n        /* \"#utility.yul\":1919:1928   */\n      lt\n        /* \"#utility.yul\":1911:2082   */\n      iszero\n      tag_365\n      jumpi\n        /* \"#utility.yul\":1982:2007   */\n      tag_366\n        /* \"#utility.yul\":2003:2006   */\n      dup2\n        /* \"#utility.yul\":1982:2007   */\n      tag_340\n      jump\t// in\n    tag_366:\n        /* \"#utility.yul\":1970:2008   */\n      dup6\n      mstore\n        /* \"#utility.yul\":1943:1944   */\n      0x01\n        /* \"#utility.yul\":1936:1945   */\n      swap6\n      swap1\n      swap6\n      add\n      swap5\n        /* \"#utility.yul\":2028:2040   */\n      swap4\n      dup7\n      add\n      swap4\n        /* \"#utility.yul\":2060:2072   */\n      dup7\n      add\n        /* \"#utility.yul\":1911:2082   */\n      jump(tag_363)\n    tag_365:\n      pop\n        /* \"#utility.yul\":2101:2107   */\n      swap9\n        /* \"#utility.yul\":1042:2113   */\n      swap8\n      pop\n      pop\n      pop\n      pop\n      pop\n      pop\n      pop\n      pop\n      jump\t// out\n        /* \"#utility.yul\":2118:2415   */\n    tag_303:\n      0x00\n        /* \"#utility.yul\":2238:2240   */\n      0x20\n        /* \"#utility.yul\":2226:2235   */\n      dup3\n        /* \"#utility.yul\":2217:2224   */\n      dup5\n        /* \"#utility.yul\":2213:2236   */\n      sub\n        /* \"#utility.yul\":2209:2241   */\n      slt\n        /* \"#utility.yul\":2206:2208   */\n      iszero\n      tag_368\n      jumpi\n        /* \"#utility.yul\":2259:2265   */\n      dup1\n        /* \"#utility.yul\":2251:2257   */\n      dup2\n        /* \"#utility.yul\":2244:2266   */\n      revert\n        /* \"#utility.yul\":2206:2208   */\n    tag_368:\n        /* \"#utility.yul\":2296:2305   */\n      dup2\n        /* \"#utility.yul\":2290:2306   */\n      mload\n        /* \"#utility.yul\":2349:2354   */\n      dup1\n        /* \"#utility.yul\":2342:2355   */\n      iszero\n        /* \"#utility.yul\":2335:2356   */\n      iszero\n        /* \"#utility.yul\":2328:2333   */\n      dup2\n        /* \"#utility.yul\":2325:2357   */\n      eq\n        /* \"#utility.yul\":2315:2317   */\n      tag_226\n      jumpi\n        /* \"#utility.yul\":2376:2382   */\n      dup2\n        /* \"#utility.yul\":2368:2374   */\n      dup3\n        /* \"#utility.yul\":2361:2383   */\n      revert\n        /* \"#utility.yul\":2420:2614   */\n    tag_294:\n      0x00\n        /* \"#utility.yul\":2543:2545   */\n      0x20\n        /* \"#utility.yul\":2531:2540   */\n      dup3\n        /* \"#utility.yul\":2522:2529   */\n      dup5\n        /* \"#utility.yul\":2518:2541   */\n      sub\n        /* \"#utility.yul\":2514:2546   */\n      slt\n        /* \"#utility.yul\":2511:2513   */\n      iszero\n      tag_371\n      jumpi\n        /* \"#utility.yul\":2564:2570   */\n      dup1\n        /* \"#utility.yul\":2556:2562   */\n      dup2\n        /* \"#utility.yul\":2549:2571   */\n      revert\n        /* \"#utility.yul\":2511:2513   */\n    tag_371:\n      pop\n        /* \"#utility.yul\":2592:2608   */\n      mload\n      swap2\n        /* \"#utility.yul\":2501:2614   */\n      swap1\n      pop\n      jump\t// out\n        /* \"#utility.yul\":2619:2822   */\n    tag_54:\n      sub(shl(0xa0, 0x01), 0x01)\n        /* \"#utility.yul\":2783:2815   */\n      swap2\n      swap1\n      swap2\n      and\n        /* \"#utility.yul\":2765:2816   */\n      dup2\n      mstore\n        /* \"#utility.yul\":2753:2755   */\n      0x20\n        /* \"#utility.yul\":2738:2756   */\n      add\n      swap1\n        /* \"#utility.yul\":2720:2822   */\n      jump\t// out\n        /* \"#utility.yul\":2827:3131   */\n    tag_330:\n      sub(shl(0xa0, 0x01), 0x01)\n        /* \"#utility.yul\":3057:3072   */\n      swap3\n      dup4\n      and\n        /* \"#utility.yul\":3039:3073   */\n      dup2\n      mstore\n        /* \"#utility.yul\":3109:3124   */\n      swap2\n      and\n        /* \"#utility.yul\":3104:3106   */\n      0x20\n        /* \"#utility.yul\":3089:3107   */\n      dup3\n      add\n        /* \"#utility.yul\":3082:3125   */\n      mstore\n        /* \"#utility.yul\":2989:2991   */\n      0x40\n        /* \"#utility.yul\":2974:2992   */\n      add\n      swap1\n        /* \"#utility.yul\":2956:3131   */\n      jump\t// out\n        /* \"#utility.yul\":3136:3797   */\n    tag_67:\n        /* \"#utility.yul\":3307:3309   */\n      0x20\n        /* \"#utility.yul\":3359:3380   */\n      dup1\n      dup3\n      mstore\n        /* \"#utility.yul\":3429:3442   */\n      dup3\n      mload\n        /* \"#utility.yul\":3332:3350   */\n      dup3\n      dup3\n      add\n        /* \"#utility.yul\":3451:3473   */\n      dup2\n      swap1\n      mstore\n        /* \"#utility.yul\":3136:3797   */\n      0x00\n      swap2\n        /* \"#utility.yul\":3307:3309   */\n      swap1\n        /* \"#utility.yul\":3530:3545   */\n      dup5\n      dup3\n      add\n      swap1\n        /* \"#utility.yul\":3504:3506   */\n      0x40\n        /* \"#utility.yul\":3489:3507   */\n      dup6\n      add\n      swap1\n        /* \"#utility.yul\":3136:3797   */\n      dup5\n        /* \"#utility.yul\":3576:3771   */\n    tag_375:\n        /* \"#utility.yul\":3590:3596   */\n      dup2\n        /* \"#utility.yul\":3587:3588   */\n      dup2\n        /* \"#utility.yul\":3584:3597   */\n      lt\n        /* \"#utility.yul\":3576:3771   */\n      iszero\n      tag_377\n      jumpi\n        /* \"#utility.yul\":3655:3668   */\n      dup4\n      mload\n      sub(shl(0xa0, 0x01), 0x01)\n        /* \"#utility.yul\":3651:3690   */\n      and\n        /* \"#utility.yul\":3639:3691   */\n      dup4\n      mstore\n        /* \"#utility.yul\":3746:3761   */\n      swap3\n      dup5\n      add\n      swap3\n        /* \"#utility.yul\":3711:3723   */\n      swap2\n      dup5\n      add\n      swap2\n        /* \"#utility.yul\":3687:3688   */\n      0x01\n        /* \"#utility.yul\":3605:3614   */\n      add\n        /* \"#utility.yul\":3576:3771   */\n      jump(tag_375)\n    tag_377:\n      pop\n        /* \"#utility.yul\":3788:3791   */\n      swap1\n      swap7\n        /* \"#utility.yul\":3287:3797   */\n      swap6\n      pop\n      pop\n      pop\n      pop\n      pop\n      pop\n      jump\t// out\n        /* \"#utility.yul\":3802:3989   */\n    tag_46:\n        /* \"#utility.yul\":3967:3981   */\n      swap1\n      iszero\n        /* \"#utility.yul\":3960:3982   */\n      iszero\n        /* \"#utility.yul\":3942:3983   */\n      dup2\n      mstore\n        /* \"#utility.yul\":3930:3932   */\n      0x20\n        /* \"#utility.yul\":3915:3933   */\n      add\n      swap1\n        /* \"#utility.yul\":3897:3989   */\n      jump\t// out\n        /* \"#utility.yul\":4678:5148   */\n    tag_288:\n        /* \"#utility.yul\":4880:4882   */\n      0x20\n        /* \"#utility.yul\":4862:4883   */\n      dup1\n      dup3\n      mstore\n        /* \"#utility.yul\":4919:4921   */\n      0x42\n        /* \"#utility.yul\":4899:4917   */\n      swap1\n      dup3\n      add\n        /* \"#utility.yul\":4892:4922   */\n      mstore\n        /* \"#utility.yul\":4958:4992   */\n      0x5472616e73666572526570546f4d61737465723a20696e707574205f776f726b\n        /* \"#utility.yul\":4953:4955   */\n      0x40\n        /* \"#utility.yul\":4938:4956   */\n      dup3\n      add\n        /* \"#utility.yul\":4931:4993   */\n      mstore\n        /* \"#utility.yul\":5029:5063   */\n      0x6572206e6565647320746f20686176652061206e6f6e2d6e756c6c206d617374\n        /* \"#utility.yul\":5024:5026   */\n      0x60\n        /* \"#utility.yul\":5009:5027   */\n      dup3\n      add\n        /* \"#utility.yul\":5002:5064   */\n      mstore\n      shl(0xf1, 0x32b9)\n        /* \"#utility.yul\":5095:5098   */\n      0x80\n        /* \"#utility.yul\":5080:5099   */\n      dup3\n      add\n        /* \"#utility.yul\":5073:5106   */\n      mstore\n        /* \"#utility.yul\":5138:5141   */\n      0xa0\n        /* \"#utility.yul\":5123:5142   */\n      add\n      swap1\n        /* \"#utility.yul\":4852:5148   */\n      jump\t// out\n        /* \"#utility.yul\":5153:5568   */\n    tag_337:\n        /* \"#utility.yul\":5355:5357   */\n      0x20\n        /* \"#utility.yul\":5337:5358   */\n      dup1\n      dup3\n      mstore\n        /* \"#utility.yul\":5394:5396   */\n      0x33\n        /* \"#utility.yul\":5374:5392   */\n      swap1\n      dup3\n      add\n        /* \"#utility.yul\":5367:5397   */\n      mstore\n        /* \"#utility.yul\":5433:5467   */\n      0x5472616e7366657252657761726473546f4d61737465723a20636f756c64206e\n        /* \"#utility.yul\":5428:5430   */\n      0x40\n        /* \"#utility.yul\":5413:5431   */\n      dup3\n      add\n        /* \"#utility.yul\":5406:5468   */\n      mstore\n      shl(0x68, 0x6f74207472616e736665722072657761726473)\n        /* \"#utility.yul\":5499:5501   */\n      0x60\n        /* \"#utility.yul\":5484:5502   */\n      dup3\n      add\n        /* \"#utility.yul\":5477:5526   */\n      mstore\n        /* \"#utility.yul\":5558:5561   */\n      0x80\n        /* \"#utility.yul\":5543:5562   */\n      add\n      swap1\n        /* \"#utility.yul\":5327:5568   */\n      jump\t// out\n        /* \"#utility.yul\":5573:5928   */\n    tag_319:\n        /* \"#utility.yul\":5775:5777   */\n      0x20\n        /* \"#utility.yul\":5757:5778   */\n      dup1\n      dup3\n      mstore\n        /* \"#utility.yul\":5814:5816   */\n      0x1f\n        /* \"#utility.yul\":5794:5812   */\n      swap1\n      dup3\n      add\n        /* \"#utility.yul\":5787:5817   */\n      mstore\n        /* \"#utility.yul\":5853:5886   */\n      0x5265776172644d616e61676572206e6565647320746f20626520736574757000\n        /* \"#utility.yul\":5848:5850   */\n      0x40\n        /* \"#utility.yul\":5833:5851   */\n      dup3\n      add\n        /* \"#utility.yul\":5826:5887   */\n      mstore\n        /* \"#utility.yul\":5919:5921   */\n      0x60\n        /* \"#utility.yul\":5904:5922   */\n      add\n      swap1\n        /* \"#utility.yul\":5747:5928   */\n      jump\t// out\n        /* \"#utility.yul\":5933:6335   */\n    tag_250:\n        /* \"#utility.yul\":6135:6137   */\n      0x20\n        /* \"#utility.yul\":6117:6138   */\n      dup1\n      dup3\n      mstore\n        /* \"#utility.yul\":6174:6176   */\n      0x26\n        /* \"#utility.yul\":6154:6172   */\n      swap1\n      dup3\n      add\n        /* \"#utility.yul\":6147:6177   */\n      mstore\n        /* \"#utility.yul\":6213:6247   */\n      0x4f776e61626c653a206e6577206f776e657220697320746865207a65726f2061\n        /* \"#utility.yul\":6208:6210   */\n      0x40\n        /* \"#utility.yul\":6193:6211   */\n      dup3\n      add\n        /* \"#utility.yul\":6186:6248   */\n      mstore\n      shl(0xd0, 0x646472657373)\n        /* \"#utility.yul\":6279:6281   */\n      0x60\n        /* \"#utility.yul\":6264:6282   */\n      dup3\n      add\n        /* \"#utility.yul\":6257:6293   */\n      mstore\n        /* \"#utility.yul\":6325:6328   */\n      0x80\n        /* \"#utility.yul\":6310:6329   */\n      add\n      swap1\n        /* \"#utility.yul\":6107:6335   */\n      jump\t// out\n        /* \"#utility.yul\":6340:6754   */\n    tag_192:\n        /* \"#utility.yul\":6542:6544   */\n      0x20\n        /* \"#utility.yul\":6524:6545   */\n      dup1\n      dup3\n      mstore\n        /* \"#utility.yul\":6581:6583   */\n      0x32\n        /* \"#utility.yul\":6561:6579   */\n      swap1\n      dup3\n      add\n        /* \"#utility.yul\":6554:6584   */\n      mstore\n        /* \"#utility.yul\":6620:6654   */\n      0x43616e27742072656d6f76653a204d6173746572206e6f7420636c61696d696e\n        /* \"#utility.yul\":6615:6617   */\n      0x40\n        /* \"#utility.yul\":6600:6618   */\n      dup3\n      add\n        /* \"#utility.yul\":6593:6655   */\n      mstore\n      shl(0x70, 0x672074686973205375622041646472657373)\n        /* \"#utility.yul\":6686:6688   */\n      0x60\n        /* \"#utility.yul\":6671:6689   */\n      dup3\n      add\n        /* \"#utility.yul\":6664:6712   */\n      mstore\n        /* \"#utility.yul\":6744:6747   */\n      0x80\n        /* \"#utility.yul\":6729:6748   */\n      add\n      swap1\n        /* \"#utility.yul\":6514:6754   */\n      jump\t// out\n        /* \"#utility.yul\":6759:7172   */\n    tag_306:\n        /* \"#utility.yul\":6961:6963   */\n      0x20\n        /* \"#utility.yul\":6943:6964   */\n      dup1\n      dup3\n      mstore\n        /* \"#utility.yul\":7000:7002   */\n      0x31\n        /* \"#utility.yul\":6980:6998   */\n      swap1\n      dup3\n      add\n        /* \"#utility.yul\":6973:7003   */\n      mstore\n        /* \"#utility.yul\":7039:7073   */\n      0x5472616e73666572526570546f4d61737465723a20636f756c64206e6f74206d\n        /* \"#utility.yul\":7034:7036   */\n      0x40\n        /* \"#utility.yul\":7019:7037   */\n      dup3\n      add\n        /* \"#utility.yul\":7012:7074   */\n      mstore\n      shl(0x79, 0x34b73a102932b8103a379036b0b9ba32b9)\n        /* \"#utility.yul\":7105:7107   */\n      0x60\n        /* \"#utility.yul\":7090:7108   */\n      dup3\n      add\n        /* \"#utility.yul\":7083:7130   */\n      mstore\n        /* \"#utility.yul\":7162:7165   */\n      0x80\n        /* \"#utility.yul\":7147:7166   */\n      add\n      swap1\n        /* \"#utility.yul\":6933:7172   */\n      jump\t// out\n        /* \"#utility.yul\":7177:7592   */\n    tag_314:\n        /* \"#utility.yul\":7379:7381   */\n      0x20\n        /* \"#utility.yul\":7361:7382   */\n      dup1\n      dup3\n      mstore\n        /* \"#utility.yul\":7418:7420   */\n      0x33\n        /* \"#utility.yul\":7398:7416   */\n      swap1\n      dup3\n      add\n        /* \"#utility.yul\":7391:7421   */\n      mstore\n        /* \"#utility.yul\":7457:7491   */\n      0x5472616e73666572526570546f4d61737465723a20636f756c64206e6f742062\n        /* \"#utility.yul\":7452:7454   */\n      0x40\n        /* \"#utility.yul\":7437:7455   */\n      dup3\n      add\n        /* \"#utility.yul\":7430:7492   */\n      mstore\n      shl(0x69, 0x3ab937102932b810333937b6903bb7b935b2b9)\n        /* \"#utility.yul\":7523:7525   */\n      0x60\n        /* \"#utility.yul\":7508:7526   */\n      dup3\n      add\n        /* \"#utility.yul\":7501:7550   */\n      mstore\n        /* \"#utility.yul\":7582:7585   */\n      0x80\n        /* \"#utility.yul\":7567:7586   */\n      add\n      swap1\n        /* \"#utility.yul\":7351:7592   */\n      jump\t// out\n        /* \"#utility.yul\":7597:7949   */\n    tag_285:\n        /* \"#utility.yul\":7799:7801   */\n      0x20\n        /* \"#utility.yul\":7781:7802   */\n      dup1\n      dup3\n      mstore\n        /* \"#utility.yul\":7838:7840   */\n      0x1c\n        /* \"#utility.yul\":7818:7836   */\n      swap1\n      dup3\n      add\n        /* \"#utility.yul\":7811:7841   */\n      mstore\n        /* \"#utility.yul\":7877:7907   */\n      0x5265704d616e61676572206e6565647320746f20626520736574757000000000\n        /* \"#utility.yul\":7872:7874   */\n      0x40\n        /* \"#utility.yul\":7857:7875   */\n      dup3\n      add\n        /* \"#utility.yul\":7850:7908   */\n      mstore\n        /* \"#utility.yul\":7940:7942   */\n      0x60\n        /* \"#utility.yul\":7925:7943   */\n      add\n      swap1\n        /* \"#utility.yul\":7771:7949   */\n      jump\t// out\n        /* \"#utility.yul\":7954:8310   */\n    tag_150:\n        /* \"#utility.yul\":8156:8158   */\n      0x20\n        /* \"#utility.yul\":8138:8159   */\n      dup1\n      dup3\n      mstore\n        /* \"#utility.yul\":8175:8193   */\n      dup2\n      dup2\n      add\n        /* \"#utility.yul\":8168:8198   */\n      mstore\n        /* \"#utility.yul\":8234:8268   */\n      0x4f776e61626c653a2063616c6c6572206973206e6f7420746865206f776e6572\n        /* \"#utility.yul\":8229:8231   */\n      0x40\n        /* \"#utility.yul\":8214:8232   */\n      dup3\n      add\n        /* \"#utility.yul\":8207:8269   */\n      mstore\n        /* \"#utility.yul\":8301:8303   */\n      0x60\n        /* \"#utility.yul\":8286:8304   */\n      add\n      swap1\n        /* \"#utility.yul\":8128:8310   */\n      jump\t// out\n        /* \"#utility.yul\":8315:8667   */\n    tag_282:\n        /* \"#utility.yul\":8517:8519   */\n      0x20\n        /* \"#utility.yul\":8499:8520   */\n      dup1\n      dup3\n      mstore\n        /* \"#utility.yul\":8556:8558   */\n      0x1c\n        /* \"#utility.yul\":8536:8554   */\n      swap1\n      dup3\n      add\n        /* \"#utility.yul\":8529:8559   */\n      mstore\n        /* \"#utility.yul\":8595:8625   */\n      0x52657075746174696f6e206e6565647320746f20626520736574757000000000\n        /* \"#utility.yul\":8590:8592   */\n      0x40\n        /* \"#utility.yul\":8575:8593   */\n      dup3\n      add\n        /* \"#utility.yul\":8568:8626   */\n      mstore\n        /* \"#utility.yul\":8658:8660   */\n      0x60\n        /* \"#utility.yul\":8643:8661   */\n      add\n      swap1\n        /* \"#utility.yul\":8489:8667   */\n      jump\t// out\n        /* \"#utility.yul\":8672:9098   */\n    tag_162:\n        /* \"#utility.yul\":8874:8876   */\n      0x20\n        /* \"#utility.yul\":8856:8877   */\n      dup1\n      dup3\n      mstore\n        /* \"#utility.yul\":8913:8915   */\n      0x3e\n        /* \"#utility.yul\":8893:8911   */\n      swap1\n      dup3\n      add\n        /* \"#utility.yul\":8886:8916   */\n      mstore\n        /* \"#utility.yul\":8952:8986   */\n      0x4665746368486967686573744d61737465723a20696e707574205f776f726b65\n        /* \"#utility.yul\":8947:8949   */\n      0x40\n        /* \"#utility.yul\":8932:8950   */\n      dup3\n      add\n        /* \"#utility.yul\":8925:8987   */\n      mstore\n        /* \"#utility.yul\":9023:9055   */\n      0x72206e6565647320746f206265206e6f6e206e756c6c20616464726573730000\n        /* \"#utility.yul\":9018:9020   */\n      0x60\n        /* \"#utility.yul\":9003:9021   */\n      dup3\n      add\n        /* \"#utility.yul\":8996:9056   */\n      mstore\n        /* \"#utility.yul\":9088:9091   */\n      0x80\n        /* \"#utility.yul\":9073:9092   */\n      add\n      swap1\n        /* \"#utility.yul\":8846:9098   */\n      jump\t// out\n        /* \"#utility.yul\":9103:9513   */\n    tag_199:\n        /* \"#utility.yul\":9305:9307   */\n      0x20\n        /* \"#utility.yul\":9287:9308   */\n      dup1\n      dup3\n      mstore\n        /* \"#utility.yul\":9344:9346   */\n      0x2e\n        /* \"#utility.yul\":9324:9342   */\n      swap1\n      dup3\n      add\n        /* \"#utility.yul\":9317:9347   */\n      mstore\n        /* \"#utility.yul\":9383:9417   */\n      0x43616e27742072656d6f7665204d61737465723a206e6f7420636c61696d696e\n        /* \"#utility.yul\":9378:9380   */\n      0x40\n        /* \"#utility.yul\":9363:9381   */\n      dup3\n      add\n        /* \"#utility.yul\":9356:9418   */\n      mstore\n      shl(0x90, 0x6720746869732061646472657373)\n        /* \"#utility.yul\":9449:9451   */\n      0x60\n        /* \"#utility.yul\":9434:9452   */\n      dup3\n      add\n        /* \"#utility.yul\":9427:9471   */\n      mstore\n        /* \"#utility.yul\":9503:9506   */\n      0x80\n        /* \"#utility.yul\":9488:9507   */\n      add\n      swap1\n        /* \"#utility.yul\":9277:9513   */\n      jump\t// out\n        /* \"#utility.yul\":9518:9922   */\n    tag_298:\n        /* \"#utility.yul\":9783:9808   */\n      swap2\n      dup3\n      mstore\n      sub(shl(0xa0, 0x01), 0x01)\n        /* \"#utility.yul\":9844:9876   */\n      and\n        /* \"#utility.yul\":9839:9841   */\n      0x20\n        /* \"#utility.yul\":9824:9842   */\n      dup3\n      add\n        /* \"#utility.yul\":9817:9877   */\n      mstore\n        /* \"#utility.yul\":9518:9922   */\n      0x00\n        /* \"#utility.yul\":9908:9910   */\n      0x40\n        /* \"#utility.yul\":9893:9911   */\n      dup3\n      add\n        /* \"#utility.yul\":9886:9916   */\n      mstore\n        /* \"#utility.yul\":9771:9773   */\n      0x60\n        /* \"#utility.yul\":9756:9774   */\n      add\n      swap1\n        /* \"#utility.yul\":9738:9922   */\n      jump\t// out\n        /* \"#utility.yul\":9927:10052   */\n    tag_167:\n      0x00\n        /* \"#utility.yul\":9995:9996   */\n      dup3\n        /* \"#utility.yul\":9992:9993   */\n      dup3\n        /* \"#utility.yul\":9989:9997   */\n      lt\n        /* \"#utility.yul\":9986:9988   */\n      iszero\n      tag_397\n      jumpi\n        /* \"#utility.yul\":10000:10018   */\n      tag_397\n      tag_398\n      jump\t// in\n    tag_397:\n      pop\n        /* \"#utility.yul\":10037:10046   */\n      sub\n      swap1\n        /* \"#utility.yul\":9976:10052   */\n      jump\t// out\n        /* \"#utility.yul\":10057:10192   */\n    tag_188:\n      0x00\n      not(0x00)\n        /* \"#utility.yul\":10117:10134   */\n      dup3\n      eq\n        /* \"#utility.yul\":10114:10116   */\n      iszero\n      tag_401\n      jumpi\n        /* \"#utility.yul\":10137:10155   */\n      tag_401\n      tag_398\n      jump\t// in\n    tag_401:\n      pop\n        /* \"#utility.yul\":10184:10185   */\n      0x01\n        /* \"#utility.yul\":10173:10186   */\n      add\n      swap1\n        /* \"#utility.yul\":10104:10192   */\n      jump\t// out\n        /* \"#utility.yul\":10197:10324   */\n    tag_398:\n        /* \"#utility.yul\":10258:10268   */\n      0x4e487b71\n        /* \"#utility.yul\":10253:10256   */\n      0xe0\n        /* \"#utility.yul\":10249:10269   */\n      shl\n        /* \"#utility.yul\":10246:10247   */\n      0x00\n        /* \"#utility.yul\":10239:10270   */\n      mstore\n        /* \"#utility.yul\":10289:10293   */\n      0x11\n        /* \"#utility.yul\":10286:10287   */\n      0x04\n        /* \"#utility.yul\":10279:10294   */\n      mstore\n        /* \"#utility.yul\":10313:10317   */\n      0x24\n        /* \"#utility.yul\":10310:10311   */\n      0x00\n        /* \"#utility.yul\":10303:10318   */\n      revert\n        /* \"#utility.yul\":10329:10456   */\n    tag_359:\n        /* \"#utility.yul\":10390:10400   */\n      0x4e487b71\n        /* \"#utility.yul\":10385:10388   */\n      0xe0\n        /* \"#utility.yul\":10381:10401   */\n      shl\n        /* \"#utility.yul\":10378:10379   */\n      0x00\n        /* \"#utility.yul\":10371:10402   */\n      mstore\n        /* \"#utility.yul\":10421:10425   */\n      0x41\n        /* \"#utility.yul\":10418:10419   */\n      0x04\n        /* \"#utility.yul\":10411:10426   */\n      mstore\n        /* \"#utility.yul\":10445:10449   */\n      0x24\n        /* \"#utility.yul\":10442:10443   */\n      0x00\n        /* \"#utility.yul\":10435:10450   */\n      revert\n\n    auxdata: 0xa2646970667358221220a9d13d7294448cb42b9f0e121c951c923ba0328ff7686b7ad2ba45a13d08833664736f6c63430008000033\n}\n",
				"bytecode": {
					"linkReferences": {},
					"object": "60806040526005805534801561001457600080fd5b5061002561002061002a565b61002e565b61007e565b3390565b600080546001600160a01b038381166001600160a01b0319831681178455604051919092169283917f8be0079c531659141344cd1fd0a4f28419497f9722a3daafe3b4186f6b6457e09190a35050565b611bc58061008d6000396000f3fe608060405234801561001057600080fd5b50600436106101c45760003560e01c8063715018a6116100f9578063db51982411610097578063e4f1d0fd11610071578063e4f1d0fd14610379578063f25e9ed21461038c578063f2fde38b1461039f578063f77c8658146103b2576101c4565b8063db51982414610340578063dd61868214610353578063df77a0f614610366576101c4565b806396daff56116100d357806396daff56146103125780639904ed8d146103255780639f62c3791461032d578063ac8d65cb14610312576101c4565b8063715018a6146102ef5780638213b8d8146102f75780638da5cb5b1461030a576101c4565b806329a47bc71161016657806339c3f6e71161014057806339c3f6e7146102ae5780634826d043146102c157806351912f29146102d4578063584720f5146102dc576101c4565b806329a47bc7146102805780632e3ce45714610288578063342bffbf1461029b576101c4565b806311815086116101a2578063118150861461021a57806312ccb1471461023a5780631778f9c81461024d578063198ff3dc14610260576101c4565b8063050eb2eb146101c95780630c06e4df146101de5780630e90e56514610207575b600080fd5b6101dc6101d73660046115a3565b6103c5565b005b6101f16101ec3660046115a3565b61042f565b6040516101fe919061178c565b60405180910390f35b6101dc6102153660046115a3565b61045c565b61022d6102283660046115a3565b6104bd565b6040516101fe9190611711565b6101dc6102483660046115a3565b61055d565b6101f161025b3660046115bd565b6105f0565b61027361026e3660046115a3565b610610565b6040516101fe919061173f565b61022d610686565b61022d6102963660046115ef565b610695565b6101f16102a93660046115bd565b6106cd565b6101dc6102bc366004611618565b6106ed565b6101dc6102cf3660046115a3565b6108ad565b61022d61095e565b6101dc6102ea3660046115a3565b61096d565b6101dc610a23565b6101dc610305366004611618565b610a6e565b61022d610bf8565b6101f16103203660046115bd565b610c07565b61022d610c35565b6101f161033b3660046115bd565b610c44565b6101f161034e3660046115a3565b610c68565b6101dc6103613660046115a3565b610c91565b6101dc6103743660046115a3565b610cf2565b61022d6103873660046115a3565b610d87565b61022d61039a3660046115a3565b610da2565b6101dc6103ad3660046115a3565b610dc0565b6101f16103c03660046115bd565b610e31565b6103cd610f16565b6001600160a01b03166103de610bf8565b6001600160a01b03161461040d5760405162461bcd60e51b8152600401610404906119fc565b60405180910390fd5b600880546001600160a01b0319166001600160a01b0392909216919091179055565b3360009081526001602090815260408083206001600160a01b038516845290915290205460ff165b919050565b610464610f16565b6001600160a01b0316610475610bf8565b6001600160a01b03161461049b5760405162461bcd60e51b8152600401610404906119fc565b600680546001600160a01b0319166001600160a01b0392909216919091179055565b60006001600160a01b0382166104e55760405162461bcd60e51b815260040161040490611a68565b6001600160a01b0380831660009081526004602052604090205460055491169083905b6001600160a01b038316158015906105205750600081115b15610555576001600160a01b038084166000908152600460205260409020541692915061054e600182611b31565b9050610508565b509392505050565b3360008181526001602081815260408084206001600160a01b038716808652908352818520805460ff191685179055858552600383528185208054948501815585529190932090910180546001600160a01b0319169091179055517f8902b85532bfc55a9f5b6e6a9576366640928b3be984b3a61167a210ca2bbc57906105e5908490611711565b60405180910390a250565b600260209081526000928352604080842090915290825290205460ff1681565b6001600160a01b03811660009081526003602090815260409182902080548351818402810184019094528084526060939283018282801561067a57602002820191906000526020600020905b81546001600160a01b0316815260019091019060200180831161065c575b50505050509050919050565b6007546001600160a01b031681565b600360205281600052604060002081815481106106b157600080fd5b6000918252602090912001546001600160a01b03169150829050565b600160209081526000928352604080842090915290825290205460ff1681565b60005b81518110156108a957336000908152600160205260408120835190919084908490811061072d57634e487b7160e01b600052603260045260246000fd5b6020908102919091018101516001600160a01b031682528101919091526040016000205460ff16151560011461089757336000908152600160208190526040822084519192909185908590811061079457634e487b7160e01b600052603260045260246000fd5b6020908102919091018101516001600160a01b031682528181019290925260409081016000908120805460ff1916941515949094179093553383526003909152902082518390839081106107f857634e487b7160e01b600052603260045260246000fd5b60209081029190910181015182546001810184556000938452919092200180546001600160a01b0319166001600160a01b03909216919091179055815133907f8902b85532bfc55a9f5b6e6a9576366640928b3be984b3a61167a210ca2bbc579084908490811061087957634e487b7160e01b600052603260045260246000fd5b602002602001015160405161088e9190611711565b60405180910390a25b806108a181611b48565b9150506106f0565b5050565b3360009081526001602090815260408083206001600160a01b038516845290915290205460ff166108f05760405162461bcd60e51b8152600401610404906118cf565b3360008181526001602090815260408083206001600160a01b03861684529091529020805460ff191690556109259082610f1a565b336001600160a01b03167f7a24ac72e272dd8c83b793ae84448c72032b95723856486219c79dd722fe4292826040516105e59190611711565b6008546001600160a01b031681565b6001600160a01b038116600090815260026020908152604080832033845290915290205460ff166109b05760405162461bcd60e51b815260040161040490611ac5565b6001600160a01b038116600090815260026020908152604080832033808552908352818420805460ff1916905560049092529182902080546001600160a01b031916905590517f0d7169440daf0897d7f4486a35eef15a070460981ff18ab846aa2199f171118e906105e5908490611711565b610a2b610f16565b6001600160a01b0316610a3c610bf8565b6001600160a01b031614610a625760405162461bcd60e51b8152600401610404906119fc565b610a6c60006110c8565b565b60005b81518110156108a9573360009081526001602052604081208351909190849084908110610aae57634e487b7160e01b600052603260045260246000fd5b6020908102919091018101516001600160a01b031682528101919091526040016000205460ff1615610be65733600090815260016020526040812083518290859085908110610b0d57634e487b7160e01b600052603260045260246000fd5b60200260200101516001600160a01b03166001600160a01b0316815260200190815260200160002060006101000a81548160ff021916908315150217905550610b7d33838381518110610b7057634e487b7160e01b600052603260045260246000fd5b6020026020010151610f1a565b336001600160a01b03167f7a24ac72e272dd8c83b793ae84448c72032b95723856486219c79dd722fe4292838381518110610bc857634e487b7160e01b600052603260045260246000fd5b6020026020010151604051610bdd9190611711565b60405180910390a25b80610bf081611b48565b915050610a71565b6000546001600160a01b031690565b6001600160a01b03918216600090815260016020908152604080832093909416825291909152205460ff1690565b6006546001600160a01b031681565b6000610c508383610c07565b8015610c615750610c618383610c07565b9392505050565b6001600160a01b0316600090815260016020908152604080832033845290915290205460ff1690565b610c99610f16565b6001600160a01b0316610caa610bf8565b6001600160a01b031614610cd05760405162461bcd60e51b8152600401610404906119fc565b600780546001600160a01b0319166001600160a01b0392909216919091179055565b6001600160a01b038116600081815260026020908152604080832033808552908352818420805460ff19166001179055600490925290912080546001600160a01b031916909217909155610d4590611118565b610d4e336113bc565b336001600160a01b03167f85851bdf5239daecee00c49afa200b87f208a1cc246f3c3da177796c9f605d73826040516105e59190611711565b6004602052600090815260409020546001600160a01b031681565b6001600160a01b039081166000908152600460205260409020541690565b610dc8610f16565b6001600160a01b0316610dd9610bf8565b6001600160a01b031614610dff5760405162461bcd60e51b8152600401610404906119fc565b6001600160a01b038116610e255760405162461bcd60e51b815260040161040490611889565b610e2e816110c8565b50565b6001600160a01b0381166000908152600360209081526040808320805482518185028101850190935280835284938493929190830182828015610e9d57602002820191906000526020600020905b81546001600160a01b03168152600190910190602001808311610e7f575b5050505050905060005b8151811015610f0c57856001600160a01b0316828281518110610eda57634e487b7160e01b600052603260045260246000fd5b60200260200101516001600160a01b03161415610efa5760019250610f0c565b80610f0481611b48565b915050610ea7565b5090949350505050565b3390565b60008060005b6001600160a01b038516600090815260036020526040902054811015610fb6576001600160a01b03858116600090815260036020526040902080549186169183908110610f7d57634e487b7160e01b600052603260045260246000fd5b6000918252602090912001546001600160a01b03161415610fa45760019150809250610fb6565b80610fae81611b48565b915050610f20565b5080156110c2576001600160a01b03841660009081526003602052604090208054610fe390600190611b31565b8154811061100157634e487b7160e01b600052603260045260246000fd5b60009182526020808320909101546001600160a01b0387811684526003909252604090922080549190921691908490811061104c57634e487b7160e01b600052603260045260246000fd5b600091825260208083209190910180546001600160a01b0319166001600160a01b03948516179055918616815260039091526040902080548061109f57634e487b7160e01b600052603160045260246000fd5b600082815260209020810160001990810180546001600160a01b03191690550190555b50505050565b600080546001600160a01b038381166001600160a01b0319831681178455604051919092169283917f8be0079c531659141344cd1fd0a4f28419497f9722a3daafe3b4186f6b6457e09190a35050565b6006546001600160a01b03166111405760405162461bcd60e51b815260040161040490611a31565b6007546001600160a01b03166111685760405162461bcd60e51b8152600401610404906119c5565b6001600160a01b038181166000908152600460205260409020541661119f5760405162461bcd60e51b815260040161040490611797565b6006546040516370a0823160e01b81526000916001600160a01b0316906370a08231906111d0908590600401611711565b60206040518083038186803b1580156111e857600080fd5b505afa1580156111fc573d6000803e3d6000fd5b505050506040513d601f19601f8201168201806040525081019061122091906116f9565b9050600061122d836104bd565b905081156113b757600754604051630db6cc8560e11b81526001600160a01b0390911690631b6d990a906112679085908590600401611b13565b602060405180830381600087803b15801561128157600080fd5b505af1158015611295573d6000803e3d6000fd5b505050506040513d601f19601f820116820180604052508101906112b991906116d9565b6112d55760405162461bcd60e51b815260040161040490611921565b60075460405163171bcfc360e21b81526001600160a01b0390911690635c6f3f0c906113079085908790600401611b13565b602060405180830381600087803b15801561132157600080fd5b505af1158015611335573d6000803e3d6000fd5b505050506040513d601f19601f8201168201806040525081019061135991906116d9565b6113755760405162461bcd60e51b815260040161040490611972565b826001600160a01b03167fc587680578b3acb8eeb1ab421a6921efe2a32b10903016ebd6c3f39e51cd1d96826040516113ae9190611711565b60405180910390a25b505050565b6008546001600160a01b03166113e45760405162461bcd60e51b815260040161040490611852565b6001600160a01b038181166000908152600460205260409020541661141b5760405162461bcd60e51b815260040161040490611797565b600854604051633b4febfb60e21b81526000916001600160a01b03169063ed3fafec9061144c908590600401611711565b602060405180830381600087803b15801561146657600080fd5b505af115801561147a573d6000803e3d6000fd5b505050506040513d601f19601f8201168201806040525081019061149e91906116f9565b905060006114ab836104bd565b905081156113b757600854604051635f28bad560e01b81526001600160a01b0390911690635f28bad5906114e59086908590600401611725565b602060405180830381600087803b1580156114ff57600080fd5b505af1158015611513573d6000803e3d6000fd5b505050506040513d601f19601f8201168201806040525081019061153791906116d9565b6115535760405162461bcd60e51b8152600401610404906117ff565b826001600160a01b03167f04b22084ec80e4b31b47cb8c65cd44c4e4e2840e20dffcbd81bd7d048b74fb4e826040516113ae9190611711565b80356001600160a01b038116811461045757600080fd5b6000602082840312156115b4578081fd5b610c618261158c565b600080604083850312156115cf578081fd5b6115d88361158c565b91506115e66020840161158c565b90509250929050565b60008060408385031215611601578182fd5b61160a8361158c565b946020939093013593505050565b6000602080838503121561162a578182fd5b823567ffffffffffffffff80821115611641578384fd5b818501915085601f830112611654578384fd5b81358181111561166657611666611b79565b8381026040518582820101818110858211171561168557611685611b79565b604052828152858101935084860182860187018a10156116a3578788fd5b8795505b838610156116cc576116b88161158c565b8552600195909501949386019386016116a7565b5098975050505050505050565b6000602082840312156116ea578081fd5b81518015158114610c61578182fd5b60006020828403121561170a578081fd5b5051919050565b6001600160a01b0391909116815260200190565b6001600160a01b0392831681529116602082015260400190565b6020808252825182820181905260009190848201906040850190845b818110156117805783516001600160a01b03168352928401929184019160010161175b565b50909695505050505050565b901515815260200190565b60208082526042908201527f5472616e73666572526570546f4d61737465723a20696e707574205f776f726b60408201527f6572206e6565647320746f20686176652061206e6f6e2d6e756c6c206d61737460608201526132b960f11b608082015260a00190565b60208082526033908201527f5472616e7366657252657761726473546f4d61737465723a20636f756c64206e6040820152726f74207472616e73666572207265776172647360681b606082015260800190565b6020808252601f908201527f5265776172644d616e61676572206e6565647320746f20626520736574757000604082015260600190565b60208082526026908201527f4f776e61626c653a206e6577206f776e657220697320746865207a65726f206160408201526564647265737360d01b606082015260800190565b60208082526032908201527f43616e27742072656d6f76653a204d6173746572206e6f7420636c61696d696e60408201527167207468697320537562204164647265737360701b606082015260800190565b60208082526031908201527f5472616e73666572526570546f4d61737465723a20636f756c64206e6f74206d60408201527034b73a102932b8103a379036b0b9ba32b960791b606082015260800190565b60208082526033908201527f5472616e73666572526570546f4d61737465723a20636f756c64206e6f7420626040820152723ab937102932b810333937b6903bb7b935b2b960691b606082015260800190565b6020808252601c908201527f5265704d616e61676572206e6565647320746f20626520736574757000000000604082015260600190565b6020808252818101527f4f776e61626c653a2063616c6c6572206973206e6f7420746865206f776e6572604082015260600190565b6020808252601c908201527f52657075746174696f6e206e6565647320746f20626520736574757000000000604082015260600190565b6020808252603e908201527f4665746368486967686573744d61737465723a20696e707574205f776f726b6560408201527f72206e6565647320746f206265206e6f6e206e756c6c20616464726573730000606082015260800190565b6020808252602e908201527f43616e27742072656d6f7665204d61737465723a206e6f7420636c61696d696e60408201526d672074686973206164647265737360901b606082015260800190565b9182526001600160a01b031660208201526000604082015260600190565b600082821015611b4357611b43611b63565b500390565b6000600019821415611b5c57611b5c611b63565b5060010190565b634e487b7160e01b600052601160045260246000fd5b634e487b7160e01b600052604160045260246000fdfea2646970667358221220a9d13d7294448cb42b9f0e121c951c923ba0328ff7686b7ad2ba45a13d08833664736f6c63430008000033",
					"opcodes": "PUSH1 0x80 PUSH1 0x40 MSTORE PUSH1 0x5 DUP1 SSTORE CALLVALUE DUP1 ISZERO PUSH2 0x14 JUMPI PUSH1 0x0 DUP1 REVERT JUMPDEST POP PUSH2 0x25 PUSH2 0x20 PUSH2 0x2A JUMP JUMPDEST PUSH2 0x2E JUMP JUMPDEST PUSH2 0x7E JUMP JUMPDEST CALLER SWAP1 JUMP JUMPDEST PUSH1 0x0 DUP1 SLOAD PUSH1 0x1 PUSH1 0x1 PUSH1 0xA0 SHL SUB DUP4 DUP2 AND PUSH1 0x1 PUSH1 0x1 PUSH1 0xA0 SHL SUB NOT DUP4 AND DUP2 OR DUP5 SSTORE PUSH1 0x40 MLOAD SWAP2 SWAP1 SWAP3 AND SWAP3 DUP4 SWAP2 PUSH32 0x8BE0079C531659141344CD1FD0A4F28419497F9722A3DAAFE3B4186F6B6457E0 SWAP2 SWAP1 LOG3 POP POP JUMP JUMPDEST PUSH2 0x1BC5 DUP1 PUSH2 0x8D PUSH1 0x0 CODECOPY PUSH1 0x0 RETURN INVALID PUSH1 0x80 PUSH1 0x40 MSTORE CALLVALUE DUP1 ISZERO PUSH2 0x10 JUMPI PUSH1 0x0 DUP1 REVERT JUMPDEST POP PUSH1 0x4 CALLDATASIZE LT PUSH2 0x1C4 JUMPI PUSH1 0x0 CALLDATALOAD PUSH1 0xE0 SHR DUP1 PUSH4 0x715018A6 GT PUSH2 0xF9 JUMPI DUP1 PUSH4 0xDB519824 GT PUSH2 0x97 JUMPI DUP1 PUSH4 0xE4F1D0FD GT PUSH2 0x71 JUMPI DUP1 PUSH4 0xE4F1D0FD EQ PUSH2 0x379 JUMPI DUP1 PUSH4 0xF25E9ED2 EQ PUSH2 0x38C JUMPI DUP1 PUSH4 0xF2FDE38B EQ PUSH2 0x39F JUMPI DUP1 PUSH4 0xF77C8658 EQ PUSH2 0x3B2 JUMPI PUSH2 0x1C4 JUMP JUMPDEST DUP1 PUSH4 0xDB519824 EQ PUSH2 0x340 JUMPI DUP1 PUSH4 0xDD618682 EQ PUSH2 0x353 JUMPI DUP1 PUSH4 0xDF77A0F6 EQ PUSH2 0x366 JUMPI PUSH2 0x1C4 JUMP JUMPDEST DUP1 PUSH4 0x96DAFF56 GT PUSH2 0xD3 JUMPI DUP1 PUSH4 0x96DAFF56 EQ PUSH2 0x312 JUMPI DUP1 PUSH4 0x9904ED8D EQ PUSH2 0x325 JUMPI DUP1 PUSH4 0x9F62C379 EQ PUSH2 0x32D JUMPI DUP1 PUSH4 0xAC8D65CB EQ PUSH2 0x312 JUMPI PUSH2 0x1C4 JUMP JUMPDEST DUP1 PUSH4 0x715018A6 EQ PUSH2 0x2EF JUMPI DUP1 PUSH4 0x8213B8D8 EQ PUSH2 0x2F7 JUMPI DUP1 PUSH4 0x8DA5CB5B EQ PUSH2 0x30A JUMPI PUSH2 0x1C4 JUMP JUMPDEST DUP1 PUSH4 0x29A47BC7 GT PUSH2 0x166 JUMPI DUP1 PUSH4 0x39C3F6E7 GT PUSH2 0x140 JUMPI DUP1 PUSH4 0x39C3F6E7 EQ PUSH2 0x2AE JUMPI DUP1 PUSH4 0x4826D043 EQ PUSH2 0x2C1 JUMPI DUP1 PUSH4 0x51912F29 EQ PUSH2 0x2D4 JUMPI DUP1 PUSH4 0x584720F5 EQ PUSH2 0x2DC JUMPI PUSH2 0x1C4 JUMP JUMPDEST DUP1 PUSH4 0x29A47BC7 EQ PUSH2 0x280 JUMPI DUP1 PUSH4 0x2E3CE457 EQ PUSH2 0x288 JUMPI DUP1 PUSH4 0x342BFFBF EQ PUSH2 0x29B JUMPI PUSH2 0x1C4 JUMP JUMPDEST DUP1 PUSH4 0x11815086 GT PUSH2 0x1A2 JUMPI DUP1 PUSH4 0x11815086 EQ PUSH2 0x21A JUMPI DUP1 PUSH4 0x12CCB147 EQ PUSH2 0x23A JUMPI DUP1 PUSH4 0x1778F9C8 EQ PUSH2 0x24D JUMPI DUP1 PUSH4 0x198FF3DC EQ PUSH2 0x260 JUMPI PUSH2 0x1C4 JUMP JUMPDEST DUP1 PUSH4 0x50EB2EB EQ PUSH2 0x1C9 JUMPI DUP1 PUSH4 0xC06E4DF EQ PUSH2 0x1DE JUMPI DUP1 PUSH4 0xE90E565 EQ PUSH2 0x207 JUMPI JUMPDEST PUSH1 0x0 DUP1 REVERT JUMPDEST PUSH2 0x1DC PUSH2 0x1D7 CALLDATASIZE PUSH1 0x4 PUSH2 0x15A3 JUMP JUMPDEST PUSH2 0x3C5 JUMP JUMPDEST STOP JUMPDEST PUSH2 0x1F1 PUSH2 0x1EC CALLDATASIZE PUSH1 0x4 PUSH2 0x15A3 JUMP JUMPDEST PUSH2 0x42F JUMP JUMPDEST PUSH1 0x40 MLOAD PUSH2 0x1FE SWAP2 SWAP1 PUSH2 0x178C JUMP JUMPDEST PUSH1 0x40 MLOAD DUP1 SWAP2 SUB SWAP1 RETURN JUMPDEST PUSH2 0x1DC PUSH2 0x215 CALLDATASIZE PUSH1 0x4 PUSH2 0x15A3 JUMP JUMPDEST PUSH2 0x45C JUMP JUMPDEST PUSH2 0x22D PUSH2 0x228 CALLDATASIZE PUSH1 0x4 PUSH2 0x15A3 JUMP JUMPDEST PUSH2 0x4BD JUMP JUMPDEST PUSH1 0x40 MLOAD PUSH2 0x1FE SWAP2 SWAP1 PUSH2 0x1711 JUMP JUMPDEST PUSH2 0x1DC PUSH2 0x248 CALLDATASIZE PUSH1 0x4 PUSH2 0x15A3 JUMP JUMPDEST PUSH2 0x55D JUMP JUMPDEST PUSH2 0x1F1 PUSH2 0x25B CALLDATASIZE PUSH1 0x4 PUSH2 0x15BD JUMP JUMPDEST PUSH2 0x5F0 JUMP JUMPDEST PUSH2 0x273 PUSH2 0x26E CALLDATASIZE PUSH1 0x4 PUSH2 0x15A3 JUMP JUMPDEST PUSH2 0x610 JUMP JUMPDEST PUSH1 0x40 MLOAD PUSH2 0x1FE SWAP2 SWAP1 PUSH2 0x173F JUMP JUMPDEST PUSH2 0x22D PUSH2 0x686 JUMP JUMPDEST PUSH2 0x22D PUSH2 0x296 CALLDATASIZE PUSH1 0x4 PUSH2 0x15EF JUMP JUMPDEST PUSH2 0x695 JUMP JUMPDEST PUSH2 0x1F1 PUSH2 0x2A9 CALLDATASIZE PUSH1 0x4 PUSH2 0x15BD JUMP JUMPDEST PUSH2 0x6CD JUMP JUMPDEST PUSH2 0x1DC PUSH2 0x2BC CALLDATASIZE PUSH1 0x4 PUSH2 0x1618 JUMP JUMPDEST PUSH2 0x6ED JUMP JUMPDEST PUSH2 0x1DC PUSH2 0x2CF CALLDATASIZE PUSH1 0x4 PUSH2 0x15A3 JUMP JUMPDEST PUSH2 0x8AD JUMP JUMPDEST PUSH2 0x22D PUSH2 0x95E JUMP JUMPDEST PUSH2 0x1DC PUSH2 0x2EA CALLDATASIZE PUSH1 0x4 PUSH2 0x15A3 JUMP JUMPDEST PUSH2 0x96D JUMP JUMPDEST PUSH2 0x1DC PUSH2 0xA23 JUMP JUMPDEST PUSH2 0x1DC PUSH2 0x305 CALLDATASIZE PUSH1 0x4 PUSH2 0x1618 JUMP JUMPDEST PUSH2 0xA6E JUMP JUMPDEST PUSH2 0x22D PUSH2 0xBF8 JUMP JUMPDEST PUSH2 0x1F1 PUSH2 0x320 CALLDATASIZE PUSH1 0x4 PUSH2 0x15BD JUMP JUMPDEST PUSH2 0xC07 JUMP JUMPDEST PUSH2 0x22D PUSH2 0xC35 JUMP JUMPDEST PUSH2 0x1F1 PUSH2 0x33B CALLDATASIZE PUSH1 0x4 PUSH2 0x15BD JUMP JUMPDEST PUSH2 0xC44 JUMP JUMPDEST PUSH2 0x1F1 PUSH2 0x34E CALLDATASIZE PUSH1 0x4 PUSH2 0x15A3 JUMP JUMPDEST PUSH2 0xC68 JUMP JUMPDEST PUSH2 0x1DC PUSH2 0x361 CALLDATASIZE PUSH1 0x4 PUSH2 0x15A3 JUMP JUMPDEST PUSH2 0xC91 JUMP JUMPDEST PUSH2 0x1DC PUSH2 0x374 CALLDATASIZE PUSH1 0x4 PUSH2 0x15A3 JUMP JUMPDEST PUSH2 0xCF2 JUMP JUMPDEST PUSH2 0x22D PUSH2 0x387 CALLDATASIZE PUSH1 0x4 PUSH2 0x15A3 JUMP JUMPDEST PUSH2 0xD87 JUMP JUMPDEST PUSH2 0x22D PUSH2 0x39A CALLDATASIZE PUSH1 0x4 PUSH2 0x15A3 JUMP JUMPDEST PUSH2 0xDA2 JUMP JUMPDEST PUSH2 0x1DC PUSH2 0x3AD CALLDATASIZE PUSH1 0x4 PUSH2 0x15A3 JUMP JUMPDEST PUSH2 0xDC0 JUMP JUMPDEST PUSH2 0x1F1 PUSH2 0x3C0 CALLDATASIZE PUSH1 0x4 PUSH2 0x15BD JUMP JUMPDEST PUSH2 0xE31 JUMP JUMPDEST PUSH2 0x3CD PUSH2 0xF16 JUMP JUMPDEST PUSH1 0x1 PUSH1 0x1 PUSH1 0xA0 SHL SUB AND PUSH2 0x3DE PUSH2 0xBF8 JUMP JUMPDEST PUSH1 0x1 PUSH1 0x1 PUSH1 0xA0 SHL SUB AND EQ PUSH2 0x40D JUMPI PUSH1 0x40 MLOAD PUSH3 0x461BCD PUSH1 0xE5 SHL DUP2 MSTORE PUSH1 0x4 ADD PUSH2 0x404 SWAP1 PUSH2 0x19FC JUMP JUMPDEST PUSH1 0x40 MLOAD DUP1 SWAP2 SUB SWAP1 REVERT JUMPDEST PUSH1 0x8 DUP1 SLOAD PUSH1 0x1 PUSH1 0x1 PUSH1 0xA0 SHL SUB NOT AND PUSH1 0x1 PUSH1 0x1 PUSH1 0xA0 SHL SUB SWAP3 SWAP1 SWAP3 AND SWAP2 SWAP1 SWAP2 OR SWAP1 SSTORE JUMP JUMPDEST CALLER PUSH1 0x0 SWAP1 DUP2 MSTORE PUSH1 0x1 PUSH1 0x20 SWAP1 DUP2 MSTORE PUSH1 0x40 DUP1 DUP4 KECCAK256 PUSH1 0x1 PUSH1 0x1 PUSH1 0xA0 SHL SUB DUP6 AND DUP5 MSTORE SWAP1 SWAP2 MSTORE SWAP1 KECCAK256 SLOAD PUSH1 0xFF AND JUMPDEST SWAP2 SWAP1 POP JUMP JUMPDEST PUSH2 0x464 PUSH2 0xF16 JUMP JUMPDEST PUSH1 0x1 PUSH1 0x1 PUSH1 0xA0 SHL SUB AND PUSH2 0x475 PUSH2 0xBF8 JUMP JUMPDEST PUSH1 0x1 PUSH1 0x1 PUSH1 0xA0 SHL SUB AND EQ PUSH2 0x49B JUMPI PUSH1 0x40 MLOAD PUSH3 0x461BCD PUSH1 0xE5 SHL DUP2 MSTORE PUSH1 0x4 ADD PUSH2 0x404 SWAP1 PUSH2 0x19FC JUMP JUMPDEST PUSH1 0x6 DUP1 SLOAD PUSH1 0x1 PUSH1 0x1 PUSH1 0xA0 SHL SUB NOT AND PUSH1 0x1 PUSH1 0x1 PUSH1 0xA0 SHL SUB SWAP3 SWAP1 SWAP3 AND SWAP2 SWAP1 SWAP2 OR SWAP1 SSTORE JUMP JUMPDEST PUSH1 0x0 PUSH1 0x1 PUSH1 0x1 PUSH1 0xA0 SHL SUB DUP3 AND PUSH2 0x4E5 JUMPI PUSH1 0x40 MLOAD PUSH3 0x461BCD PUSH1 0xE5 SHL DUP2 MSTORE PUSH1 0x4 ADD PUSH2 0x404 SWAP1 PUSH2 0x1A68 JUMP JUMPDEST PUSH1 0x1 PUSH1 0x1 PUSH1 0xA0 SHL SUB DUP1 DUP4 AND PUSH1 0x0 SWAP1 DUP2 MSTORE PUSH1 0x4 PUSH1 0x20 MSTORE PUSH1 0x40 SWAP1 KECCAK256 SLOAD PUSH1 0x5 SLOAD SWAP2 AND SWAP1 DUP4 SWAP1 JUMPDEST PUSH1 0x1 PUSH1 0x1 PUSH1 0xA0 SHL SUB DUP4 AND ISZERO DUP1 ISZERO SWAP1 PUSH2 0x520 JUMPI POP PUSH1 0x0 DUP2 GT JUMPDEST ISZERO PUSH2 0x555 JUMPI PUSH1 0x1 PUSH1 0x1 PUSH1 0xA0 SHL SUB DUP1 DUP5 AND PUSH1 0x0 SWAP1 DUP2 MSTORE PUSH1 0x4 PUSH1 0x20 MSTORE PUSH1 0x40 SWAP1 KECCAK256 SLOAD AND SWAP3 SWAP2 POP PUSH2 0x54E PUSH1 0x1 DUP3 PUSH2 0x1B31 JUMP JUMPDEST SWAP1 POP PUSH2 0x508 JUMP JUMPDEST POP SWAP4 SWAP3 POP POP POP JUMP JUMPDEST CALLER PUSH1 0x0 DUP2 DUP2 MSTORE PUSH1 0x1 PUSH1 0x20 DUP2 DUP2 MSTORE PUSH1 0x40 DUP1 DUP5 KECCAK256 PUSH1 0x1 PUSH1 0x1 PUSH1 0xA0 SHL SUB DUP8 AND DUP1 DUP7 MSTORE SWAP1 DUP4 MSTORE DUP2 DUP6 KECCAK256 DUP1 SLOAD PUSH1 0xFF NOT AND DUP6 OR SWAP1 SSTORE DUP6 DUP6 MSTORE PUSH1 0x3 DUP4 MSTORE DUP2 DUP6 KECCAK256 DUP1 SLOAD SWAP5 DUP6 ADD DUP2 SSTORE DUP6 MSTORE SWAP2 SWAP1 SWAP4 KECCAK256 SWAP1 SWAP2 ADD DUP1 SLOAD PUSH1 0x1 PUSH1 0x1 PUSH1 0xA0 SHL SUB NOT AND SWAP1 SWAP2 OR SWAP1 SSTORE MLOAD PUSH32 0x8902B85532BFC55A9F5B6E6A9576366640928B3BE984B3A61167A210CA2BBC57 SWAP1 PUSH2 0x5E5 SWAP1 DUP5 SWAP1 PUSH2 0x1711 JUMP JUMPDEST PUSH1 0x40 MLOAD DUP1 SWAP2 SUB SWAP1 LOG2 POP JUMP JUMPDEST PUSH1 0x2 PUSH1 0x20 SWAP1 DUP2 MSTORE PUSH1 0x0 SWAP3 DUP4 MSTORE PUSH1 0x40 DUP1 DUP5 KECCAK256 SWAP1 SWAP2 MSTORE SWAP1 DUP3 MSTORE SWAP1 KECCAK256 SLOAD PUSH1 0xFF AND DUP2 JUMP JUMPDEST PUSH1 0x1 PUSH1 0x1 PUSH1 0xA0 SHL SUB DUP2 AND PUSH1 0x0 SWAP1 DUP2 MSTORE PUSH1 0x3 PUSH1 0x20 SWAP1 DUP2 MSTORE PUSH1 0x40 SWAP2 DUP3 SWAP1 KECCAK256 DUP1 SLOAD DUP4 MLOAD DUP2 DUP5 MUL DUP2 ADD DUP5 ADD SWAP1 SWAP5 MSTORE DUP1 DUP5 MSTORE PUSH1 0x60 SWAP4 SWAP3 DUP4 ADD DUP3 DUP3 DUP1 ISZERO PUSH2 0x67A JUMPI PUSH1 0x20 MUL DUP3 ADD SWAP2 SWAP1 PUSH1 0x0 MSTORE PUSH1 0x20 PUSH1 0x0 KECCAK256 SWAP1 JUMPDEST DUP2 SLOAD PUSH1 0x1 PUSH1 0x1 PUSH1 0xA0 SHL SUB AND DUP2 MSTORE PUSH1 0x1 SWAP1 SWAP2 ADD SWAP1 PUSH1 0x20 ADD DUP1 DUP4 GT PUSH2 0x65C JUMPI JUMPDEST POP POP POP POP POP SWAP1 POP SWAP2 SWAP1 POP JUMP JUMPDEST PUSH1 0x7 SLOAD PUSH1 0x1 PUSH1 0x1 PUSH1 0xA0 SHL SUB AND DUP2 JUMP JUMPDEST PUSH1 0x3 PUSH1 0x20 MSTORE DUP2 PUSH1 0x0 MSTORE PUSH1 0x40 PUSH1 0x0 KECCAK256 DUP2 DUP2 SLOAD DUP2 LT PUSH2 0x6B1 JUMPI PUSH1 0x0 DUP1 REVERT JUMPDEST PUSH1 0x0 SWAP2 DUP3 MSTORE PUSH1 0x20 SWAP1 SWAP2 KECCAK256 ADD SLOAD PUSH1 0x1 PUSH1 0x1 PUSH1 0xA0 SHL SUB AND SWAP2 POP DUP3 SWAP1 POP JUMP JUMPDEST PUSH1 0x1 PUSH1 0x20 SWAP1 DUP2 MSTORE PUSH1 0x0 SWAP3 DUP4 MSTORE PUSH1 0x40 DUP1 DUP5 KECCAK256 SWAP1 SWAP2 MSTORE SWAP1 DUP3 MSTORE SWAP1 KECCAK256 SLOAD PUSH1 0xFF AND DUP2 JUMP JUMPDEST PUSH1 0x0 JUMPDEST DUP2 MLOAD DUP2 LT ISZERO PUSH2 0x8A9 JUMPI CALLER PUSH1 0x0 SWAP1 DUP2 MSTORE PUSH1 0x1 PUSH1 0x20 MSTORE PUSH1 0x40 DUP2 KECCAK256 DUP4 MLOAD SWAP1 SWAP2 SWAP1 DUP5 SWAP1 DUP5 SWAP1 DUP2 LT PUSH2 0x72D JUMPI PUSH4 0x4E487B71 PUSH1 0xE0 SHL PUSH1 0x0 MSTORE PUSH1 0x32 PUSH1 0x4 MSTORE PUSH1 0x24 PUSH1 0x0 REVERT JUMPDEST PUSH1 0x20 SWAP1 DUP2 MUL SWAP2 SWAP1 SWAP2 ADD DUP2 ADD MLOAD PUSH1 0x1 PUSH1 0x1 PUSH1 0xA0 SHL SUB AND DUP3 MSTORE DUP2 ADD SWAP2 SWAP1 SWAP2 MSTORE PUSH1 0x40 ADD PUSH1 0x0 KECCAK256 SLOAD PUSH1 0xFF AND ISZERO ISZERO PUSH1 0x1 EQ PUSH2 0x897 JUMPI CALLER PUSH1 0x0 SWAP1 DUP2 MSTORE PUSH1 0x1 PUSH1 0x20 DUP2 SWAP1 MSTORE PUSH1 0x40 DUP3 KECCAK256 DUP5 MLOAD SWAP2 SWAP3 SWAP1 SWAP2 DUP6 SWAP1 DUP6 SWAP1 DUP2 LT PUSH2 0x794 JUMPI PUSH4 0x4E487B71 PUSH1 0xE0 SHL PUSH1 0x0 MSTORE PUSH1 0x32 PUSH1 0x4 MSTORE PUSH1 0x24 PUSH1 0x0 REVERT JUMPDEST PUSH1 0x20 SWAP1 DUP2 MUL SWAP2 SWAP1 SWAP2 ADD DUP2 ADD MLOAD PUSH1 0x1 PUSH1 0x1 PUSH1 0xA0 SHL SUB AND DUP3 MSTORE DUP2 DUP2 ADD SWAP3 SWAP1 SWAP3 MSTORE PUSH1 0x40 SWAP1 DUP2 ADD PUSH1 0x0 SWAP1 DUP2 KECCAK256 DUP1 SLOAD PUSH1 0xFF NOT AND SWAP5 ISZERO ISZERO SWAP5 SWAP1 SWAP5 OR SWAP1 SWAP4 SSTORE CALLER DUP4 MSTORE PUSH1 0x3 SWAP1 SWAP2 MSTORE SWAP1 KECCAK256 DUP3 MLOAD DUP4 SWAP1 DUP4 SWAP1 DUP2 LT PUSH2 0x7F8 JUMPI PUSH4 0x4E487B71 PUSH1 0xE0 SHL PUSH1 0x0 MSTORE PUSH1 0x32 PUSH1 0x4 MSTORE PUSH1 0x24 PUSH1 0x0 REVERT JUMPDEST PUSH1 0x20 SWAP1 DUP2 MUL SWAP2 SWAP1 SWAP2 ADD DUP2 ADD MLOAD DUP3 SLOAD PUSH1 0x1 DUP2 ADD DUP5 SSTORE PUSH1 0x0 SWAP4 DUP5 MSTORE SWAP2 SWAP1 SWAP3 KECCAK256 ADD DUP1 SLOAD PUSH1 0x1 PUSH1 0x1 PUSH1 0xA0 SHL SUB NOT AND PUSH1 0x1 PUSH1 0x1 PUSH1 0xA0 SHL SUB SWAP1 SWAP3 AND SWAP2 SWAP1 SWAP2 OR SWAP1 SSTORE DUP2 MLOAD CALLER SWAP1 PUSH32 0x8902B85532BFC55A9F5B6E6A9576366640928B3BE984B3A61167A210CA2BBC57 SWAP1 DUP5 SWAP1 DUP5 SWAP1 DUP2 LT PUSH2 0x879 JUMPI PUSH4 0x4E487B71 PUSH1 0xE0 SHL PUSH1 0x0 MSTORE PUSH1 0x32 PUSH1 0x4 MSTORE PUSH1 0x24 PUSH1 0x0 REVERT JUMPDEST PUSH1 0x20 MUL PUSH1 0x20 ADD ADD MLOAD PUSH1 0x40 MLOAD PUSH2 0x88E SWAP2 SWAP1 PUSH2 0x1711 JUMP JUMPDEST PUSH1 0x40 MLOAD DUP1 SWAP2 SUB SWAP1 LOG2 JUMPDEST DUP1 PUSH2 0x8A1 DUP2 PUSH2 0x1B48 JUMP JUMPDEST SWAP2 POP POP PUSH2 0x6F0 JUMP JUMPDEST POP POP JUMP JUMPDEST CALLER PUSH1 0x0 SWAP1 DUP2 MSTORE PUSH1 0x1 PUSH1 0x20 SWAP1 DUP2 MSTORE PUSH1 0x40 DUP1 DUP4 KECCAK256 PUSH1 0x1 PUSH1 0x1 PUSH1 0xA0 SHL SUB DUP6 AND DUP5 MSTORE SWAP1 SWAP2 MSTORE SWAP1 KECCAK256 SLOAD PUSH1 0xFF AND PUSH2 0x8F0 JUMPI PUSH1 0x40 MLOAD PUSH3 0x461BCD PUSH1 0xE5 SHL DUP2 MSTORE PUSH1 0x4 ADD PUSH2 0x404 SWAP1 PUSH2 0x18CF JUMP JUMPDEST CALLER PUSH1 0x0 DUP2 DUP2 MSTORE PUSH1 0x1 PUSH1 0x20 SWAP1 DUP2 MSTORE PUSH1 0x40 DUP1 DUP4 KECCAK256 PUSH1 0x1 PUSH1 0x1 PUSH1 0xA0 SHL SUB DUP7 AND DUP5 MSTORE SWAP1 SWAP2 MSTORE SWAP1 KECCAK256 DUP1 SLOAD PUSH1 0xFF NOT AND SWAP1 SSTORE PUSH2 0x925 SWAP1 DUP3 PUSH2 0xF1A JUMP JUMPDEST CALLER PUSH1 0x1 PUSH1 0x1 PUSH1 0xA0 SHL SUB AND PUSH32 0x7A24AC72E272DD8C83B793AE84448C72032B95723856486219C79DD722FE4292 DUP3 PUSH1 0x40 MLOAD PUSH2 0x5E5 SWAP2 SWAP1 PUSH2 0x1711 JUMP JUMPDEST PUSH1 0x8 SLOAD PUSH1 0x1 PUSH1 0x1 PUSH1 0xA0 SHL SUB AND DUP2 JUMP JUMPDEST PUSH1 0x1 PUSH1 0x1 PUSH1 0xA0 SHL SUB DUP2 AND PUSH1 0x0 SWAP1 DUP2 MSTORE PUSH1 0x2 PUSH1 0x20 SWAP1 DUP2 MSTORE PUSH1 0x40 DUP1 DUP4 KECCAK256 CALLER DUP5 MSTORE SWAP1 SWAP2 MSTORE SWAP1 KECCAK256 SLOAD PUSH1 0xFF AND PUSH2 0x9B0 JUMPI PUSH1 0x40 MLOAD PUSH3 0x461BCD PUSH1 0xE5 SHL DUP2 MSTORE PUSH1 0x4 ADD PUSH2 0x404 SWAP1 PUSH2 0x1AC5 JUMP JUMPDEST PUSH1 0x1 PUSH1 0x1 PUSH1 0xA0 SHL SUB DUP2 AND PUSH1 0x0 SWAP1 DUP2 MSTORE PUSH1 0x2 PUSH1 0x20 SWAP1 DUP2 MSTORE PUSH1 0x40 DUP1 DUP4 KECCAK256 CALLER DUP1 DUP6 MSTORE SWAP1 DUP4 MSTORE DUP2 DUP5 KECCAK256 DUP1 SLOAD PUSH1 0xFF NOT AND SWAP1 SSTORE PUSH1 0x4 SWAP1 SWAP3 MSTORE SWAP2 DUP3 SWAP1 KECCAK256 DUP1 SLOAD PUSH1 0x1 PUSH1 0x1 PUSH1 0xA0 SHL SUB NOT AND SWAP1 SSTORE SWAP1 MLOAD PUSH32 0xD7169440DAF0897D7F4486A35EEF15A070460981FF18AB846AA2199F171118E SWAP1 PUSH2 0x5E5 SWAP1 DUP5 SWAP1 PUSH2 0x1711 JUMP JUMPDEST PUSH2 0xA2B PUSH2 0xF16 JUMP JUMPDEST PUSH1 0x1 PUSH1 0x1 PUSH1 0xA0 SHL SUB AND PUSH2 0xA3C PUSH2 0xBF8 JUMP JUMPDEST PUSH1 0x1 PUSH1 0x1 PUSH1 0xA0 SHL SUB AND EQ PUSH2 0xA62 JUMPI PUSH1 0x40 MLOAD PUSH3 0x461BCD PUSH1 0xE5 SHL DUP2 MSTORE PUSH1 0x4 ADD PUSH2 0x404 SWAP1 PUSH2 0x19FC JUMP JUMPDEST PUSH2 0xA6C PUSH1 0x0 PUSH2 0x10C8 JUMP JUMPDEST JUMP JUMPDEST PUSH1 0x0 JUMPDEST DUP2 MLOAD DUP2 LT ISZERO PUSH2 0x8A9 JUMPI CALLER PUSH1 0x0 SWAP1 DUP2 MSTORE PUSH1 0x1 PUSH1 0x20 MSTORE PUSH1 0x40 DUP2 KECCAK256 DUP4 MLOAD SWAP1 SWAP2 SWAP1 DUP5 SWAP1 DUP5 SWAP1 DUP2 LT PUSH2 0xAAE JUMPI PUSH4 0x4E487B71 PUSH1 0xE0 SHL PUSH1 0x0 MSTORE PUSH1 0x32 PUSH1 0x4 MSTORE PUSH1 0x24 PUSH1 0x0 REVERT JUMPDEST PUSH1 0x20 SWAP1 DUP2 MUL SWAP2 SWAP1 SWAP2 ADD DUP2 ADD MLOAD PUSH1 0x1 PUSH1 0x1 PUSH1 0xA0 SHL SUB AND DUP3 MSTORE DUP2 ADD SWAP2 SWAP1 SWAP2 MSTORE PUSH1 0x40 ADD PUSH1 0x0 KECCAK256 SLOAD PUSH1 0xFF AND ISZERO PUSH2 0xBE6 JUMPI CALLER PUSH1 0x0 SWAP1 DUP2 MSTORE PUSH1 0x1 PUSH1 0x20 MSTORE PUSH1 0x40 DUP2 KECCAK256 DUP4 MLOAD DUP3 SWAP1 DUP6 SWAP1 DUP6 SWAP1 DUP2 LT PUSH2 0xB0D JUMPI PUSH4 0x4E487B71 PUSH1 0xE0 SHL PUSH1 0x0 MSTORE PUSH1 0x32 PUSH1 0x4 MSTORE PUSH1 0x24 PUSH1 0x0 REVERT JUMPDEST PUSH1 0x20 MUL PUSH1 0x20 ADD ADD MLOAD PUSH1 0x1 PUSH1 0x1 PUSH1 0xA0 SHL SUB AND PUSH1 0x1 PUSH1 0x1 PUSH1 0xA0 SHL SUB AND DUP2 MSTORE PUSH1 0x20 ADD SWAP1 DUP2 MSTORE PUSH1 0x20 ADD PUSH1 0x0 KECCAK256 PUSH1 0x0 PUSH2 0x100 EXP DUP2 SLOAD DUP2 PUSH1 0xFF MUL NOT AND SWAP1 DUP4 ISZERO ISZERO MUL OR SWAP1 SSTORE POP PUSH2 0xB7D CALLER DUP4 DUP4 DUP2 MLOAD DUP2 LT PUSH2 0xB70 JUMPI PUSH4 0x4E487B71 PUSH1 0xE0 SHL PUSH1 0x0 MSTORE PUSH1 0x32 PUSH1 0x4 MSTORE PUSH1 0x24 PUSH1 0x0 REVERT JUMPDEST PUSH1 0x20 MUL PUSH1 0x20 ADD ADD MLOAD PUSH2 0xF1A JUMP JUMPDEST CALLER PUSH1 0x1 PUSH1 0x1 PUSH1 0xA0 SHL SUB AND PUSH32 0x7A24AC72E272DD8C83B793AE84448C72032B95723856486219C79DD722FE4292 DUP4 DUP4 DUP2 MLOAD DUP2 LT PUSH2 0xBC8 JUMPI PUSH4 0x4E487B71 PUSH1 0xE0 SHL PUSH1 0x0 MSTORE PUSH1 0x32 PUSH1 0x4 MSTORE PUSH1 0x24 PUSH1 0x0 REVERT JUMPDEST PUSH1 0x20 MUL PUSH1 0x20 ADD ADD MLOAD PUSH1 0x40 MLOAD PUSH2 0xBDD SWAP2 SWAP1 PUSH2 0x1711 JUMP JUMPDEST PUSH1 0x40 MLOAD DUP1 SWAP2 SUB SWAP1 LOG2 JUMPDEST DUP1 PUSH2 0xBF0 DUP2 PUSH2 0x1B48 JUMP JUMPDEST SWAP2 POP POP PUSH2 0xA71 JUMP JUMPDEST PUSH1 0x0 SLOAD PUSH1 0x1 PUSH1 0x1 PUSH1 0xA0 SHL SUB AND SWAP1 JUMP JUMPDEST PUSH1 0x1 PUSH1 0x1 PUSH1 0xA0 SHL SUB SWAP2 DUP3 AND PUSH1 0x0 SWAP1 DUP2 MSTORE PUSH1 0x1 PUSH1 0x20 SWAP1 DUP2 MSTORE PUSH1 0x40 DUP1 DUP4 KECCAK256 SWAP4 SWAP1 SWAP5 AND DUP3 MSTORE SWAP2 SWAP1 SWAP2 MSTORE KECCAK256 SLOAD PUSH1 0xFF AND SWAP1 JUMP JUMPDEST PUSH1 0x6 SLOAD PUSH1 0x1 PUSH1 0x1 PUSH1 0xA0 SHL SUB AND DUP2 JUMP JUMPDEST PUSH1 0x0 PUSH2 0xC50 DUP4 DUP4 PUSH2 0xC07 JUMP JUMPDEST DUP1 ISZERO PUSH2 0xC61 JUMPI POP PUSH2 0xC61 DUP4 DUP4 PUSH2 0xC07 JUMP JUMPDEST SWAP4 SWAP3 POP POP POP JUMP JUMPDEST PUSH1 0x1 PUSH1 0x1 PUSH1 0xA0 SHL SUB AND PUSH1 0x0 SWAP1 DUP2 MSTORE PUSH1 0x1 PUSH1 0x20 SWAP1 DUP2 MSTORE PUSH1 0x40 DUP1 DUP4 KECCAK256 CALLER DUP5 MSTORE SWAP1 SWAP2 MSTORE SWAP1 KECCAK256 SLOAD PUSH1 0xFF AND SWAP1 JUMP JUMPDEST PUSH2 0xC99 PUSH2 0xF16 JUMP JUMPDEST PUSH1 0x1 PUSH1 0x1 PUSH1 0xA0 SHL SUB AND PUSH2 0xCAA PUSH2 0xBF8 JUMP JUMPDEST PUSH1 0x1 PUSH1 0x1 PUSH1 0xA0 SHL SUB AND EQ PUSH2 0xCD0 JUMPI PUSH1 0x40 MLOAD PUSH3 0x461BCD PUSH1 0xE5 SHL DUP2 MSTORE PUSH1 0x4 ADD PUSH2 0x404 SWAP1 PUSH2 0x19FC JUMP JUMPDEST PUSH1 0x7 DUP1 SLOAD PUSH1 0x1 PUSH1 0x1 PUSH1 0xA0 SHL SUB NOT AND PUSH1 0x1 PUSH1 0x1 PUSH1 0xA0 SHL SUB SWAP3 SWAP1 SWAP3 AND SWAP2 SWAP1 SWAP2 OR SWAP1 SSTORE JUMP JUMPDEST PUSH1 0x1 PUSH1 0x1 PUSH1 0xA0 SHL SUB DUP2 AND PUSH1 0x0 DUP2 DUP2 MSTORE PUSH1 0x2 PUSH1 0x20 SWAP1 DUP2 MSTORE PUSH1 0x40 DUP1 DUP4 KECCAK256 CALLER DUP1 DUP6 MSTORE SWAP1 DUP4 MSTORE DUP2 DUP5 KECCAK256 DUP1 SLOAD PUSH1 0xFF NOT AND PUSH1 0x1 OR SWAP1 SSTORE PUSH1 0x4 SWAP1 SWAP3 MSTORE SWAP1 SWAP2 KECCAK256 DUP1 SLOAD PUSH1 0x1 PUSH1 0x1 PUSH1 0xA0 SHL SUB NOT AND SWAP1 SWAP3 OR SWAP1 SWAP2 SSTORE PUSH2 0xD45 SWAP1 PUSH2 0x1118 JUMP JUMPDEST PUSH2 0xD4E CALLER PUSH2 0x13BC JUMP JUMPDEST CALLER PUSH1 0x1 PUSH1 0x1 PUSH1 0xA0 SHL SUB AND PUSH32 0x85851BDF5239DAECEE00C49AFA200B87F208A1CC246F3C3DA177796C9F605D73 DUP3 PUSH1 0x40 MLOAD PUSH2 0x5E5 SWAP2 SWAP1 PUSH2 0x1711 JUMP JUMPDEST PUSH1 0x4 PUSH1 0x20 MSTORE PUSH1 0x0 SWAP1 DUP2 MSTORE PUSH1 0x40 SWAP1 KECCAK256 SLOAD PUSH1 0x1 PUSH1 0x1 PUSH1 0xA0 SHL SUB AND DUP2 JUMP JUMPDEST PUSH1 0x1 PUSH1 0x1 PUSH1 0xA0 SHL SUB SWAP1 DUP2 AND PUSH1 0x0 SWAP1 DUP2 MSTORE PUSH1 0x4 PUSH1 0x20 MSTORE PUSH1 0x40 SWAP1 KECCAK256 SLOAD AND SWAP1 JUMP JUMPDEST PUSH2 0xDC8 PUSH2 0xF16 JUMP JUMPDEST PUSH1 0x1 PUSH1 0x1 PUSH1 0xA0 SHL SUB AND PUSH2 0xDD9 PUSH2 0xBF8 JUMP JUMPDEST PUSH1 0x1 PUSH1 0x1 PUSH1 0xA0 SHL SUB AND EQ PUSH2 0xDFF JUMPI PUSH1 0x40 MLOAD PUSH3 0x461BCD PUSH1 0xE5 SHL DUP2 MSTORE PUSH1 0x4 ADD PUSH2 0x404 SWAP1 PUSH2 0x19FC JUMP JUMPDEST PUSH1 0x1 PUSH1 0x1 PUSH1 0xA0 SHL SUB DUP2 AND PUSH2 0xE25 JUMPI PUSH1 0x40 MLOAD PUSH3 0x461BCD PUSH1 0xE5 SHL DUP2 MSTORE PUSH1 0x4 ADD PUSH2 0x404 SWAP1 PUSH2 0x1889 JUMP JUMPDEST PUSH2 0xE2E DUP2 PUSH2 0x10C8 JUMP JUMPDEST POP JUMP JUMPDEST PUSH1 0x1 PUSH1 0x1 PUSH1 0xA0 SHL SUB DUP2 AND PUSH1 0x0 SWAP1 DUP2 MSTORE PUSH1 0x3 PUSH1 0x20 SWAP1 DUP2 MSTORE PUSH1 0x40 DUP1 DUP4 KECCAK256 DUP1 SLOAD DUP3 MLOAD DUP2 DUP6 MUL DUP2 ADD DUP6 ADD SWAP1 SWAP4 MSTORE DUP1 DUP4 MSTORE DUP5 SWAP4 DUP5 SWAP4 SWAP3 SWAP2 SWAP1 DUP4 ADD DUP3 DUP3 DUP1 ISZERO PUSH2 0xE9D JUMPI PUSH1 0x20 MUL DUP3 ADD SWAP2 SWAP1 PUSH1 0x0 MSTORE PUSH1 0x20 PUSH1 0x0 KECCAK256 SWAP1 JUMPDEST DUP2 SLOAD PUSH1 0x1 PUSH1 0x1 PUSH1 0xA0 SHL SUB AND DUP2 MSTORE PUSH1 0x1 SWAP1 SWAP2 ADD SWAP1 PUSH1 0x20 ADD DUP1 DUP4 GT PUSH2 0xE7F JUMPI JUMPDEST POP POP POP POP POP SWAP1 POP PUSH1 0x0 JUMPDEST DUP2 MLOAD DUP2 LT ISZERO PUSH2 0xF0C JUMPI DUP6 PUSH1 0x1 PUSH1 0x1 PUSH1 0xA0 SHL SUB AND DUP3 DUP3 DUP2 MLOAD DUP2 LT PUSH2 0xEDA JUMPI PUSH4 0x4E487B71 PUSH1 0xE0 SHL PUSH1 0x0 MSTORE PUSH1 0x32 PUSH1 0x4 MSTORE PUSH1 0x24 PUSH1 0x0 REVERT JUMPDEST PUSH1 0x20 MUL PUSH1 0x20 ADD ADD MLOAD PUSH1 0x1 PUSH1 0x1 PUSH1 0xA0 SHL SUB AND EQ ISZERO PUSH2 0xEFA JUMPI PUSH1 0x1 SWAP3 POP PUSH2 0xF0C JUMP JUMPDEST DUP1 PUSH2 0xF04 DUP2 PUSH2 0x1B48 JUMP JUMPDEST SWAP2 POP POP PUSH2 0xEA7 JUMP JUMPDEST POP SWAP1 SWAP5 SWAP4 POP POP POP POP JUMP JUMPDEST CALLER SWAP1 JUMP JUMPDEST PUSH1 0x0 DUP1 PUSH1 0x0 JUMPDEST PUSH1 0x1 PUSH1 0x1 PUSH1 0xA0 SHL SUB DUP6 AND PUSH1 0x0 SWAP1 DUP2 MSTORE PUSH1 0x3 PUSH1 0x20 MSTORE PUSH1 0x40 SWAP1 KECCAK256 SLOAD DUP2 LT ISZERO PUSH2 0xFB6 JUMPI PUSH1 0x1 PUSH1 0x1 PUSH1 0xA0 SHL SUB DUP6 DUP2 AND PUSH1 0x0 SWAP1 DUP2 MSTORE PUSH1 0x3 PUSH1 0x20 MSTORE PUSH1 0x40 SWAP1 KECCAK256 DUP1 SLOAD SWAP2 DUP7 AND SWAP2 DUP4 SWAP1 DUP2 LT PUSH2 0xF7D JUMPI PUSH4 0x4E487B71 PUSH1 0xE0 SHL PUSH1 0x0 MSTORE PUSH1 0x32 PUSH1 0x4 MSTORE PUSH1 0x24 PUSH1 0x0 REVERT JUMPDEST PUSH1 0x0 SWAP2 DUP3 MSTORE PUSH1 0x20 SWAP1 SWAP2 KECCAK256 ADD SLOAD PUSH1 0x1 PUSH1 0x1 PUSH1 0xA0 SHL SUB AND EQ ISZERO PUSH2 0xFA4 JUMPI PUSH1 0x1 SWAP2 POP DUP1 SWAP3 POP PUSH2 0xFB6 JUMP JUMPDEST DUP1 PUSH2 0xFAE DUP2 PUSH2 0x1B48 JUMP JUMPDEST SWAP2 POP POP PUSH2 0xF20 JUMP JUMPDEST POP DUP1 ISZERO PUSH2 0x10C2 JUMPI PUSH1 0x1 PUSH1 0x1 PUSH1 0xA0 SHL SUB DUP5 AND PUSH1 0x0 SWAP1 DUP2 MSTORE PUSH1 0x3 PUSH1 0x20 MSTORE PUSH1 0x40 SWAP1 KECCAK256 DUP1 SLOAD PUSH2 0xFE3 SWAP1 PUSH1 0x1 SWAP1 PUSH2 0x1B31 JUMP JUMPDEST DUP2 SLOAD DUP2 LT PUSH2 0x1001 JUMPI PUSH4 0x4E487B71 PUSH1 0xE0 SHL PUSH1 0x0 MSTORE PUSH1 0x32 PUSH1 0x4 MSTORE PUSH1 0x24 PUSH1 0x0 REVERT JUMPDEST PUSH1 0x0 SWAP2 DUP3 MSTORE PUSH1 0x20 DUP1 DUP4 KECCAK256 SWAP1 SWAP2 ADD SLOAD PUSH1 0x1 PUSH1 0x1 PUSH1 0xA0 SHL SUB DUP8 DUP2 AND DUP5 MSTORE PUSH1 0x3 SWAP1 SWAP3 MSTORE PUSH1 0x40 SWAP1 SWAP3 KECCAK256 DUP1 SLOAD SWAP2 SWAP1 SWAP3 AND SWAP2 SWAP1 DUP5 SWAP1 DUP2 LT PUSH2 0x104C JUMPI PUSH4 0x4E487B71 PUSH1 0xE0 SHL PUSH1 0x0 MSTORE PUSH1 0x32 PUSH1 0x4 MSTORE PUSH1 0x24 PUSH1 0x0 REVERT JUMPDEST PUSH1 0x0 SWAP2 DUP3 MSTORE PUSH1 0x20 DUP1 DUP4 KECCAK256 SWAP2 SWAP1 SWAP2 ADD DUP1 SLOAD PUSH1 0x1 PUSH1 0x1 PUSH1 0xA0 SHL SUB NOT AND PUSH1 0x1 PUSH1 0x1 PUSH1 0xA0 SHL SUB SWAP5 DUP6 AND OR SWAP1 SSTORE SWAP2 DUP7 AND DUP2 MSTORE PUSH1 0x3 SWAP1 SWAP2 MSTORE PUSH1 0x40 SWAP1 KECCAK256 DUP1 SLOAD DUP1 PUSH2 0x109F JUMPI PUSH4 0x4E487B71 PUSH1 0xE0 SHL PUSH1 0x0 MSTORE PUSH1 0x31 PUSH1 0x4 MSTORE PUSH1 0x24 PUSH1 0x0 REVERT JUMPDEST PUSH1 0x0 DUP3 DUP2 MSTORE PUSH1 0x20 SWAP1 KECCAK256 DUP2 ADD PUSH1 0x0 NOT SWAP1 DUP2 ADD DUP1 SLOAD PUSH1 0x1 PUSH1 0x1 PUSH1 0xA0 SHL SUB NOT AND SWAP1 SSTORE ADD SWAP1 SSTORE JUMPDEST POP POP POP POP JUMP JUMPDEST PUSH1 0x0 DUP1 SLOAD PUSH1 0x1 PUSH1 0x1 PUSH1 0xA0 SHL SUB DUP4 DUP2 AND PUSH1 0x1 PUSH1 0x1 PUSH1 0xA0 SHL SUB NOT DUP4 AND DUP2 OR DUP5 SSTORE PUSH1 0x40 MLOAD SWAP2 SWAP1 SWAP3 AND SWAP3 DUP4 SWAP2 PUSH32 0x8BE0079C531659141344CD1FD0A4F28419497F9722A3DAAFE3B4186F6B6457E0 SWAP2 SWAP1 LOG3 POP POP JUMP JUMPDEST PUSH1 0x6 SLOAD PUSH1 0x1 PUSH1 0x1 PUSH1 0xA0 SHL SUB AND PUSH2 0x1140 JUMPI PUSH1 0x40 MLOAD PUSH3 0x461BCD PUSH1 0xE5 SHL DUP2 MSTORE PUSH1 0x4 ADD PUSH2 0x404 SWAP1 PUSH2 0x1A31 JUMP JUMPDEST PUSH1 0x7 SLOAD PUSH1 0x1 PUSH1 0x1 PUSH1 0xA0 SHL SUB AND PUSH2 0x1168 JUMPI PUSH1 0x40 MLOAD PUSH3 0x461BCD PUSH1 0xE5 SHL DUP2 MSTORE PUSH1 0x4 ADD PUSH2 0x404 SWAP1 PUSH2 0x19C5 JUMP JUMPDEST PUSH1 0x1 PUSH1 0x1 PUSH1 0xA0 SHL SUB DUP2 DUP2 AND PUSH1 0x0 SWAP1 DUP2 MSTORE PUSH1 0x4 PUSH1 0x20 MSTORE PUSH1 0x40 SWAP1 KECCAK256 SLOAD AND PUSH2 0x119F JUMPI PUSH1 0x40 MLOAD PUSH3 0x461BCD PUSH1 0xE5 SHL DUP2 MSTORE PUSH1 0x4 ADD PUSH2 0x404 SWAP1 PUSH2 0x1797 JUMP JUMPDEST PUSH1 0x6 SLOAD PUSH1 0x40 MLOAD PUSH4 0x70A08231 PUSH1 0xE0 SHL DUP2 MSTORE PUSH1 0x0 SWAP2 PUSH1 0x1 PUSH1 0x1 PUSH1 0xA0 SHL SUB AND SWAP1 PUSH4 0x70A08231 SWAP1 PUSH2 0x11D0 SWAP1 DUP6 SWAP1 PUSH1 0x4 ADD PUSH2 0x1711 JUMP JUMPDEST PUSH1 0x20 PUSH1 0x40 MLOAD DUP1 DUP4 SUB DUP2 DUP7 DUP1 EXTCODESIZE ISZERO DUP1 ISZERO PUSH2 0x11E8 JUMPI PUSH1 0x0 DUP1 REVERT JUMPDEST POP GAS STATICCALL ISZERO DUP1 ISZERO PUSH2 0x11FC JUMPI RETURNDATASIZE PUSH1 0x0 DUP1 RETURNDATACOPY RETURNDATASIZE PUSH1 0x0 REVERT JUMPDEST POP POP POP POP PUSH1 0x40 MLOAD RETURNDATASIZE PUSH1 0x1F NOT PUSH1 0x1F DUP3 ADD AND DUP3 ADD DUP1 PUSH1 0x40 MSTORE POP DUP2 ADD SWAP1 PUSH2 0x1220 SWAP2 SWAP1 PUSH2 0x16F9 JUMP JUMPDEST SWAP1 POP PUSH1 0x0 PUSH2 0x122D DUP4 PUSH2 0x4BD JUMP JUMPDEST SWAP1 POP DUP2 ISZERO PUSH2 0x13B7 JUMPI PUSH1 0x7 SLOAD PUSH1 0x40 MLOAD PUSH4 0xDB6CC85 PUSH1 0xE1 SHL DUP2 MSTORE PUSH1 0x1 PUSH1 0x1 PUSH1 0xA0 SHL SUB SWAP1 SWAP2 AND SWAP1 PUSH4 0x1B6D990A SWAP1 PUSH2 0x1267 SWAP1 DUP6 SWAP1 DUP6 SWAP1 PUSH1 0x4 ADD PUSH2 0x1B13 JUMP JUMPDEST PUSH1 0x20 PUSH1 0x40 MLOAD DUP1 DUP4 SUB DUP2 PUSH1 0x0 DUP8 DUP1 EXTCODESIZE ISZERO DUP1 ISZERO PUSH2 0x1281 JUMPI PUSH1 0x0 DUP1 REVERT JUMPDEST POP GAS CALL ISZERO DUP1 ISZERO PUSH2 0x1295 JUMPI RETURNDATASIZE PUSH1 0x0 DUP1 RETURNDATACOPY RETURNDATASIZE PUSH1 0x0 REVERT JUMPDEST POP POP POP POP PUSH1 0x40 MLOAD RETURNDATASIZE PUSH1 0x1F NOT PUSH1 0x1F DUP3 ADD AND DUP3 ADD DUP1 PUSH1 0x40 MSTORE POP DUP2 ADD SWAP1 PUSH2 0x12B9 SWAP2 SWAP1 PUSH2 0x16D9 JUMP JUMPDEST PUSH2 0x12D5 JUMPI PUSH1 0x40 MLOAD PUSH3 0x461BCD PUSH1 0xE5 SHL DUP2 MSTORE PUSH1 0x4 ADD PUSH2 0x404 SWAP1 PUSH2 0x1921 JUMP JUMPDEST PUSH1 0x7 SLOAD PUSH1 0x40 MLOAD PUSH4 0x171BCFC3 PUSH1 0xE2 SHL DUP2 MSTORE PUSH1 0x1 PUSH1 0x1 PUSH1 0xA0 SHL SUB SWAP1 SWAP2 AND SWAP1 PUSH4 0x5C6F3F0C SWAP1 PUSH2 0x1307 SWAP1 DUP6 SWAP1 DUP8 SWAP1 PUSH1 0x4 ADD PUSH2 0x1B13 JUMP JUMPDEST PUSH1 0x20 PUSH1 0x40 MLOAD DUP1 DUP4 SUB DUP2 PUSH1 0x0 DUP8 DUP1 EXTCODESIZE ISZERO DUP1 ISZERO PUSH2 0x1321 JUMPI PUSH1 0x0 DUP1 REVERT JUMPDEST POP GAS CALL ISZERO DUP1 ISZERO PUSH2 0x1335 JUMPI RETURNDATASIZE PUSH1 0x0 DUP1 RETURNDATACOPY RETURNDATASIZE PUSH1 0x0 REVERT JUMPDEST POP POP POP POP PUSH1 0x40 MLOAD RETURNDATASIZE PUSH1 0x1F NOT PUSH1 0x1F DUP3 ADD AND DUP3 ADD DUP1 PUSH1 0x40 MSTORE POP DUP2 ADD SWAP1 PUSH2 0x1359 SWAP2 SWAP1 PUSH2 0x16D9 JUMP JUMPDEST PUSH2 0x1375 JUMPI PUSH1 0x40 MLOAD PUSH3 0x461BCD PUSH1 0xE5 SHL DUP2 MSTORE PUSH1 0x4 ADD PUSH2 0x404 SWAP1 PUSH2 0x1972 JUMP JUMPDEST DUP3 PUSH1 0x1 PUSH1 0x1 PUSH1 0xA0 SHL SUB AND PUSH32 0xC587680578B3ACB8EEB1AB421A6921EFE2A32B10903016EBD6C3F39E51CD1D96 DUP3 PUSH1 0x40 MLOAD PUSH2 0x13AE SWAP2 SWAP1 PUSH2 0x1711 JUMP JUMPDEST PUSH1 0x40 MLOAD DUP1 SWAP2 SUB SWAP1 LOG2 JUMPDEST POP POP POP JUMP JUMPDEST PUSH1 0x8 SLOAD PUSH1 0x1 PUSH1 0x1 PUSH1 0xA0 SHL SUB AND PUSH2 0x13E4 JUMPI PUSH1 0x40 MLOAD PUSH3 0x461BCD PUSH1 0xE5 SHL DUP2 MSTORE PUSH1 0x4 ADD PUSH2 0x404 SWAP1 PUSH2 0x1852 JUMP JUMPDEST PUSH1 0x1 PUSH1 0x1 PUSH1 0xA0 SHL SUB DUP2 DUP2 AND PUSH1 0x0 SWAP1 DUP2 MSTORE PUSH1 0x4 PUSH1 0x20 MSTORE PUSH1 0x40 SWAP1 KECCAK256 SLOAD AND PUSH2 0x141B JUMPI PUSH1 0x40 MLOAD PUSH3 0x461BCD PUSH1 0xE5 SHL DUP2 MSTORE PUSH1 0x4 ADD PUSH2 0x404 SWAP1 PUSH2 0x1797 JUMP JUMPDEST PUSH1 0x8 SLOAD PUSH1 0x40 MLOAD PUSH4 0x3B4FEBFB PUSH1 0xE2 SHL DUP2 MSTORE PUSH1 0x0 SWAP2 PUSH1 0x1 PUSH1 0x1 PUSH1 0xA0 SHL SUB AND SWAP1 PUSH4 0xED3FAFEC SWAP1 PUSH2 0x144C SWAP1 DUP6 SWAP1 PUSH1 0x4 ADD PUSH2 0x1711 JUMP JUMPDEST PUSH1 0x20 PUSH1 0x40 MLOAD DUP1 DUP4 SUB DUP2 PUSH1 0x0 DUP8 DUP1 EXTCODESIZE ISZERO DUP1 ISZERO PUSH2 0x1466 JUMPI PUSH1 0x0 DUP1 REVERT JUMPDEST POP GAS CALL ISZERO DUP1 ISZERO PUSH2 0x147A JUMPI RETURNDATASIZE PUSH1 0x0 DUP1 RETURNDATACOPY RETURNDATASIZE PUSH1 0x0 REVERT JUMPDEST POP POP POP POP PUSH1 0x40 MLOAD RETURNDATASIZE PUSH1 0x1F NOT PUSH1 0x1F DUP3 ADD AND DUP3 ADD DUP1 PUSH1 0x40 MSTORE POP DUP2 ADD SWAP1 PUSH2 0x149E SWAP2 SWAP1 PUSH2 0x16F9 JUMP JUMPDEST SWAP1 POP PUSH1 0x0 PUSH2 0x14AB DUP4 PUSH2 0x4BD JUMP JUMPDEST SWAP1 POP DUP2 ISZERO PUSH2 0x13B7 JUMPI PUSH1 0x8 SLOAD PUSH1 0x40 MLOAD PUSH4 0x5F28BAD5 PUSH1 0xE0 SHL DUP2 MSTORE PUSH1 0x1 PUSH1 0x1 PUSH1 0xA0 SHL SUB SWAP1 SWAP2 AND SWAP1 PUSH4 0x5F28BAD5 SWAP1 PUSH2 0x14E5 SWAP1 DUP7 SWAP1 DUP6 SWAP1 PUSH1 0x4 ADD PUSH2 0x1725 JUMP JUMPDEST PUSH1 0x20 PUSH1 0x40 MLOAD DUP1 DUP4 SUB DUP2 PUSH1 0x0 DUP8 DUP1 EXTCODESIZE ISZERO DUP1 ISZERO PUSH2 0x14FF JUMPI PUSH1 0x0 DUP1 REVERT JUMPDEST POP GAS CALL ISZERO DUP1 ISZERO PUSH2 0x1513 JUMPI RETURNDATASIZE PUSH1 0x0 DUP1 RETURNDATACOPY RETURNDATASIZE PUSH1 0x0 REVERT JUMPDEST POP POP POP POP PUSH1 0x40 MLOAD RETURNDATASIZE PUSH1 0x1F NOT PUSH1 0x1F DUP3 ADD AND DUP3 ADD DUP1 PUSH1 0x40 MSTORE POP DUP2 ADD SWAP1 PUSH2 0x1537 SWAP2 SWAP1 PUSH2 0x16D9 JUMP JUMPDEST PUSH2 0x1553 JUMPI PUSH1 0x40 MLOAD PUSH3 0x461BCD PUSH1 0xE5 SHL DUP2 MSTORE PUSH1 0x4 ADD PUSH2 0x404 SWAP1 PUSH2 0x17FF JUMP JUMPDEST DUP3 PUSH1 0x1 PUSH1 0x1 PUSH1 0xA0 SHL SUB AND PUSH32 0x4B22084EC80E4B31B47CB8C65CD44C4E4E2840E20DFFCBD81BD7D048B74FB4E DUP3 PUSH1 0x40 MLOAD PUSH2 0x13AE SWAP2 SWAP1 PUSH2 0x1711 JUMP JUMPDEST DUP1 CALLDATALOAD PUSH1 0x1 PUSH1 0x1 PUSH1 0xA0 SHL SUB DUP2 AND DUP2 EQ PUSH2 0x457 JUMPI PUSH1 0x0 DUP1 REVERT JUMPDEST PUSH1 0x0 PUSH1 0x20 DUP3 DUP5 SUB SLT ISZERO PUSH2 0x15B4 JUMPI DUP1 DUP2 REVERT JUMPDEST PUSH2 0xC61 DUP3 PUSH2 0x158C JUMP JUMPDEST PUSH1 0x0 DUP1 PUSH1 0x40 DUP4 DUP6 SUB SLT ISZERO PUSH2 0x15CF JUMPI DUP1 DUP2 REVERT JUMPDEST PUSH2 0x15D8 DUP4 PUSH2 0x158C JUMP JUMPDEST SWAP2 POP PUSH2 0x15E6 PUSH1 0x20 DUP5 ADD PUSH2 0x158C JUMP JUMPDEST SWAP1 POP SWAP3 POP SWAP3 SWAP1 POP JUMP JUMPDEST PUSH1 0x0 DUP1 PUSH1 0x40 DUP4 DUP6 SUB SLT ISZERO PUSH2 0x1601 JUMPI DUP2 DUP3 REVERT JUMPDEST PUSH2 0x160A DUP4 PUSH2 0x158C JUMP JUMPDEST SWAP5 PUSH1 0x20 SWAP4 SWAP1 SWAP4 ADD CALLDATALOAD SWAP4 POP POP POP JUMP JUMPDEST PUSH1 0x0 PUSH1 0x20 DUP1 DUP4 DUP6 SUB SLT ISZERO PUSH2 0x162A JUMPI DUP2 DUP3 REVERT JUMPDEST DUP3 CALLDATALOAD PUSH8 0xFFFFFFFFFFFFFFFF DUP1 DUP3 GT ISZERO PUSH2 0x1641 JUMPI DUP4 DUP5 REVERT JUMPDEST DUP2 DUP6 ADD SWAP2 POP DUP6 PUSH1 0x1F DUP4 ADD SLT PUSH2 0x1654 JUMPI DUP4 DUP5 REVERT JUMPDEST DUP2 CALLDATALOAD DUP2 DUP2 GT ISZERO PUSH2 0x1666 JUMPI PUSH2 0x1666 PUSH2 0x1B79 JUMP JUMPDEST DUP4 DUP2 MUL PUSH1 0x40 MLOAD DUP6 DUP3 DUP3 ADD ADD DUP2 DUP2 LT DUP6 DUP3 GT OR ISZERO PUSH2 0x1685 JUMPI PUSH2 0x1685 PUSH2 0x1B79 JUMP JUMPDEST PUSH1 0x40 MSTORE DUP3 DUP2 MSTORE DUP6 DUP2 ADD SWAP4 POP DUP5 DUP7 ADD DUP3 DUP7 ADD DUP8 ADD DUP11 LT ISZERO PUSH2 0x16A3 JUMPI DUP8 DUP9 REVERT JUMPDEST DUP8 SWAP6 POP JUMPDEST DUP4 DUP7 LT ISZERO PUSH2 0x16CC JUMPI PUSH2 0x16B8 DUP2 PUSH2 0x158C JUMP JUMPDEST DUP6 MSTORE PUSH1 0x1 SWAP6 SWAP1 SWAP6 ADD SWAP5 SWAP4 DUP7 ADD SWAP4 DUP7 ADD PUSH2 0x16A7 JUMP JUMPDEST POP SWAP9 SWAP8 POP POP POP POP POP POP POP POP JUMP JUMPDEST PUSH1 0x0 PUSH1 0x20 DUP3 DUP5 SUB SLT ISZERO PUSH2 0x16EA JUMPI DUP1 DUP2 REVERT JUMPDEST DUP2 MLOAD DUP1 ISZERO ISZERO DUP2 EQ PUSH2 0xC61 JUMPI DUP2 DUP3 REVERT JUMPDEST PUSH1 0x0 PUSH1 0x20 DUP3 DUP5 SUB SLT ISZERO PUSH2 0x170A JUMPI DUP1 DUP2 REVERT JUMPDEST POP MLOAD SWAP2 SWAP1 POP JUMP JUMPDEST PUSH1 0x1 PUSH1 0x1 PUSH1 0xA0 SHL SUB SWAP2 SWAP1 SWAP2 AND DUP2 MSTORE PUSH1 0x20 ADD SWAP1 JUMP JUMPDEST PUSH1 0x1 PUSH1 0x1 PUSH1 0xA0 SHL SUB SWAP3 DUP4 AND DUP2 MSTORE SWAP2 AND PUSH1 0x20 DUP3 ADD MSTORE PUSH1 0x40 ADD SWAP1 JUMP JUMPDEST PUSH1 0x20 DUP1 DUP3 MSTORE DUP3 MLOAD DUP3 DUP3 ADD DUP2 SWAP1 MSTORE PUSH1 0x0 SWAP2 SWAP1 DUP5 DUP3 ADD SWAP1 PUSH1 0x40 DUP6 ADD SWAP1 DUP5 JUMPDEST DUP2 DUP2 LT ISZERO PUSH2 0x1780 JUMPI DUP4 MLOAD PUSH1 0x1 PUSH1 0x1 PUSH1 0xA0 SHL SUB AND DUP4 MSTORE SWAP3 DUP5 ADD SWAP3 SWAP2 DUP5 ADD SWAP2 PUSH1 0x1 ADD PUSH2 0x175B JUMP JUMPDEST POP SWAP1 SWAP7 SWAP6 POP POP POP POP POP POP JUMP JUMPDEST SWAP1 ISZERO ISZERO DUP2 MSTORE PUSH1 0x20 ADD SWAP1 JUMP JUMPDEST PUSH1 0x20 DUP1 DUP3 MSTORE PUSH1 0x42 SWAP1 DUP3 ADD MSTORE PUSH32 0x5472616E73666572526570546F4D61737465723A20696E707574205F776F726B PUSH1 0x40 DUP3 ADD MSTORE PUSH32 0x6572206E6565647320746F20686176652061206E6F6E2D6E756C6C206D617374 PUSH1 0x60 DUP3 ADD MSTORE PUSH2 0x32B9 PUSH1 0xF1 SHL PUSH1 0x80 DUP3 ADD MSTORE PUSH1 0xA0 ADD SWAP1 JUMP JUMPDEST PUSH1 0x20 DUP1 DUP3 MSTORE PUSH1 0x33 SWAP1 DUP3 ADD MSTORE PUSH32 0x5472616E7366657252657761726473546F4D61737465723A20636F756C64206E PUSH1 0x40 DUP3 ADD MSTORE PUSH19 0x6F74207472616E736665722072657761726473 PUSH1 0x68 SHL PUSH1 0x60 DUP3 ADD MSTORE PUSH1 0x80 ADD SWAP1 JUMP JUMPDEST PUSH1 0x20 DUP1 DUP3 MSTORE PUSH1 0x1F SWAP1 DUP3 ADD MSTORE PUSH32 0x5265776172644D616E61676572206E6565647320746F20626520736574757000 PUSH1 0x40 DUP3 ADD MSTORE PUSH1 0x60 ADD SWAP1 JUMP JUMPDEST PUSH1 0x20 DUP1 DUP3 MSTORE PUSH1 0x26 SWAP1 DUP3 ADD MSTORE PUSH32 0x4F776E61626C653A206E6577206F776E657220697320746865207A65726F2061 PUSH1 0x40 DUP3 ADD MSTORE PUSH6 0x646472657373 PUSH1 0xD0 SHL PUSH1 0x60 DUP3 ADD MSTORE PUSH1 0x80 ADD SWAP1 JUMP JUMPDEST PUSH1 0x20 DUP1 DUP3 MSTORE PUSH1 0x32 SWAP1 DUP3 ADD MSTORE PUSH32 0x43616E27742072656D6F76653A204D6173746572206E6F7420636C61696D696E PUSH1 0x40 DUP3 ADD MSTORE PUSH18 0x672074686973205375622041646472657373 PUSH1 0x70 SHL PUSH1 0x60 DUP3 ADD MSTORE PUSH1 0x80 ADD SWAP1 JUMP JUMPDEST PUSH1 0x20 DUP1 DUP3 MSTORE PUSH1 0x31 SWAP1 DUP3 ADD MSTORE PUSH32 0x5472616E73666572526570546F4D61737465723A20636F756C64206E6F74206D PUSH1 0x40 DUP3 ADD MSTORE PUSH17 0x34B73A102932B8103A379036B0B9BA32B9 PUSH1 0x79 SHL PUSH1 0x60 DUP3 ADD MSTORE PUSH1 0x80 ADD SWAP1 JUMP JUMPDEST PUSH1 0x20 DUP1 DUP3 MSTORE PUSH1 0x33 SWAP1 DUP3 ADD MSTORE PUSH32 0x5472616E73666572526570546F4D61737465723A20636F756C64206E6F742062 PUSH1 0x40 DUP3 ADD MSTORE PUSH19 0x3AB937102932B810333937B6903BB7B935B2B9 PUSH1 0x69 SHL PUSH1 0x60 DUP3 ADD MSTORE PUSH1 0x80 ADD SWAP1 JUMP JUMPDEST PUSH1 0x20 DUP1 DUP3 MSTORE PUSH1 0x1C SWAP1 DUP3 ADD MSTORE PUSH32 0x5265704D616E61676572206E6565647320746F20626520736574757000000000 PUSH1 0x40 DUP3 ADD MSTORE PUSH1 0x60 ADD SWAP1 JUMP JUMPDEST PUSH1 0x20 DUP1 DUP3 MSTORE DUP2 DUP2 ADD MSTORE PUSH32 0x4F776E61626C653A2063616C6C6572206973206E6F7420746865206F776E6572 PUSH1 0x40 DUP3 ADD MSTORE PUSH1 0x60 ADD SWAP1 JUMP JUMPDEST PUSH1 0x20 DUP1 DUP3 MSTORE PUSH1 0x1C SWAP1 DUP3 ADD MSTORE PUSH32 0x52657075746174696F6E206E6565647320746F20626520736574757000000000 PUSH1 0x40 DUP3 ADD MSTORE PUSH1 0x60 ADD SWAP1 JUMP JUMPDEST PUSH1 0x20 DUP1 DUP3 MSTORE PUSH1 0x3E SWAP1 DUP3 ADD MSTORE PUSH32 0x4665746368486967686573744D61737465723A20696E707574205F776F726B65 PUSH1 0x40 DUP3 ADD MSTORE PUSH32 0x72206E6565647320746F206265206E6F6E206E756C6C20616464726573730000 PUSH1 0x60 DUP3 ADD MSTORE PUSH1 0x80 ADD SWAP1 JUMP JUMPDEST PUSH1 0x20 DUP1 DUP3 MSTORE PUSH1 0x2E SWAP1 DUP3 ADD MSTORE PUSH32 0x43616E27742072656D6F7665204D61737465723A206E6F7420636C61696D696E PUSH1 0x40 DUP3 ADD MSTORE PUSH14 0x6720746869732061646472657373 PUSH1 0x90 SHL PUSH1 0x60 DUP3 ADD MSTORE PUSH1 0x80 ADD SWAP1 JUMP JUMPDEST SWAP2 DUP3 MSTORE PUSH1 0x1 PUSH1 0x1 PUSH1 0xA0 SHL SUB AND PUSH1 0x20 DUP3 ADD MSTORE PUSH1 0x0 PUSH1 0x40 DUP3 ADD MSTORE PUSH1 0x60 ADD SWAP1 JUMP JUMPDEST PUSH1 0x0 DUP3 DUP3 LT ISZERO PUSH2 0x1B43 JUMPI PUSH2 0x1B43 PUSH2 0x1B63 JUMP JUMPDEST POP SUB SWAP1 JUMP JUMPDEST PUSH1 0x0 PUSH1 0x0 NOT DUP3 EQ ISZERO PUSH2 0x1B5C JUMPI PUSH2 0x1B5C PUSH2 0x1B63 JUMP JUMPDEST POP PUSH1 0x1 ADD SWAP1 JUMP JUMPDEST PUSH4 0x4E487B71 PUSH1 0xE0 SHL PUSH1 0x0 MSTORE PUSH1 0x11 PUSH1 0x4 MSTORE PUSH1 0x24 PUSH1 0x0 REVERT JUMPDEST PUSH4 0x4E487B71 PUSH1 0xE0 SHL PUSH1 0x0 MSTORE PUSH1 0x41 PUSH1 0x4 MSTORE PUSH1 0x24 PUSH1 0x0 REVERT INVALID LOG2 PUSH5 0x6970667358 0x22 SLT KECCAK256 0xA9 0xD1 RETURNDATASIZE PUSH19 0x94448CB42B9F0E121C951C923BA0328FF7686B PUSH27 0xD2BA45A13D08833664736F6C634300080000330000000000000000 "
				},
				"gasEstimates": {
					"creation": {
						"codeDepositCost": "1421800",
						"executionCost": "43960",
						"totalCost": "1465760"
					},
					"external": {
						"AreMasterSubLinked(address,address)": "infinite",
						"ClaimMaster(address)": "infinite",
						"FetchHighestMaster(address)": "infinite",
						"MasterClaimManySubs(address[])": "infinite",
						"MasterClaimSub(address)": "64626",
						"MasterClaimingWorker(address,address)": "infinite",
						"MasterRemoveManySubs(address[])": "infinite",
						"MasterRemoveSub(address)": "infinite",
						"MasterToSubsMap(address,uint256)": "2276",
						"RemoveMaster(address)": "44760",
						"RepManager()": "1116",
						"Reputation()": "1137",
						"RewardManager()": "1159",
						"SubToMasterMap(address)": "1338",
						"WorkerClaimingMaster(address,address)": "infinite",
						"getMaster(address)": "1369",
						"getMasterSubs(address)": "infinite",
						"isMasterOf(address,address)": "infinite",
						"isMasterOfMe(address)": "1398",
						"isSubInMasterArray(address,address)": "infinite",
						"isSubWorkerOf(address,address)": "infinite",
						"isSubWorkerOfMe(address)": "infinite",
						"owner()": "1160",
						"renounceOwnership()": "23550",
						"transferOwnership(address)": "23787",
						"updateRepManager(address)": "22168",
						"updateReputation(address)": "22192",
						"updateRewardManager(address)": "22148"
					},
					"internal": {
						"PopFromSubsArray(address,address)": "infinite",
						"TransferRepToMaster(address)": "infinite",
						"TransferRewardsToMaster(address)": "infinite"
					}
				},
				"methodIdentifiers": {
					"AreMasterSubLinked(address,address)": "9f62c379",
					"ClaimMaster(address)": "df77a0f6",
					"FetchHighestMaster(address)": "11815086",
					"MasterClaimManySubs(address[])": "39c3f6e7",
					"MasterClaimSub(address)": "12ccb147",
					"MasterClaimingWorker(address,address)": "342bffbf",
					"MasterRemoveManySubs(address[])": "8213b8d8",
					"MasterRemoveSub(address)": "4826d043",
					"MasterToSubsMap(address,uint256)": "2e3ce457",
					"RemoveMaster(address)": "584720f5",
					"RepManager()": "29a47bc7",
					"Reputation()": "9904ed8d",
					"RewardManager()": "51912f29",
					"SubToMasterMap(address)": "e4f1d0fd",
					"WorkerClaimingMaster(address,address)": "1778f9c8",
					"getMaster(address)": "f25e9ed2",
					"getMasterSubs(address)": "198ff3dc",
					"isMasterOf(address,address)": "96daff56",
					"isMasterOfMe(address)": "db519824",
					"isSubInMasterArray(address,address)": "f77c8658",
					"isSubWorkerOf(address,address)": "ac8d65cb",
					"isSubWorkerOfMe(address)": "0c06e4df",
					"owner()": "8da5cb5b",
					"renounceOwnership()": "715018a6",
					"transferOwnership(address)": "f2fde38b",
					"updateRepManager(address)": "dd618682",
					"updateReputation(address)": "0e90e565",
					"updateRewardManager(address)": "050eb2eb"
				}
			},
			"storageLayout": {
				"storage": [
					{
						"astId": 7,
						"contract": "contracts/worksystems/AddressManager.sol:AddressManager",
						"label": "_owner",
						"offset": 0,
						"slot": "0",
						"type": "t_address"
					},
					{
						"astId": 586,
						"contract": "contracts/worksystems/AddressManager.sol:AddressManager",
						"label": "MasterClaimingWorker",
						"offset": 0,
						"slot": "1",
						"type": "t_mapping(t_address,t_mapping(t_address,t_bool))"
					},
					{
						"astId": 592,
						"contract": "contracts/worksystems/AddressManager.sol:AddressManager",
						"label": "WorkerClaimingMaster",
						"offset": 0,
						"slot": "2",
						"type": "t_mapping(t_address,t_mapping(t_address,t_bool))"
					},
					{
						"astId": 597,
						"contract": "contracts/worksystems/AddressManager.sol:AddressManager",
						"label": "MasterToSubsMap",
						"offset": 0,
						"slot": "3",
						"type": "t_mapping(t_address,t_array(t_address)dyn_storage)"
					},
					{
						"astId": 601,
						"contract": "contracts/worksystems/AddressManager.sol:AddressManager",
						"label": "SubToMasterMap",
						"offset": 0,
						"slot": "4",
						"type": "t_mapping(t_address,t_address)"
					},
					{
						"astId": 604,
						"contract": "contracts/worksystems/AddressManager.sol:AddressManager",
						"label": "MAX_MASTER_LOOKUP",
						"offset": 0,
						"slot": "5",
						"type": "t_uint256"
					},
					{
						"astId": 607,
						"contract": "contracts/worksystems/AddressManager.sol:AddressManager",
						"label": "Reputation",
						"offset": 0,
						"slot": "6",
						"type": "t_contract(IReputation)529"
					},
					{
						"astId": 610,
						"contract": "contracts/worksystems/AddressManager.sol:AddressManager",
						"label": "RepManager",
						"offset": 0,
						"slot": "7",
						"type": "t_contract(IRepManager)552"
					},
					{
						"astId": 613,
						"contract": "contracts/worksystems/AddressManager.sol:AddressManager",
						"label": "RewardManager",
						"offset": 0,
						"slot": "8",
						"type": "t_contract(IRewardManager)578"
					}
				],
				"types": {
					"t_address": {
						"encoding": "inplace",
						"label": "address",
						"numberOfBytes": "20"
					},
					"t_array(t_address)dyn_storage": {
						"base": "t_address",
						"encoding": "dynamic_array",
						"label": "address[]",
						"numberOfBytes": "32"
					},
					"t_bool": {
						"encoding": "inplace",
						"label": "bool",
						"numberOfBytes": "1"
					},
					"t_contract(IRepManager)552": {
						"encoding": "inplace",
						"label": "contract IRepManager",
						"numberOfBytes": "20"
					},
					"t_contract(IReputation)529": {
						"encoding": "inplace",
						"label": "contract IReputation",
						"numberOfBytes": "20"
					},
					"t_contract(IRewardManager)578": {
						"encoding": "inplace",
						"label": "contract IRewardManager",
						"numberOfBytes": "20"
					},
					"t_mapping(t_address,t_address)": {
						"encoding": "mapping",
						"key": "t_address",
						"label": "mapping(address => address)",
						"numberOfBytes": "32",
						"value": "t_address"
					},
					"t_mapping(t_address,t_array(t_address)dyn_storage)": {
						"encoding": "mapping",
						"key": "t_address",
						"label": "mapping(address => address[])",
						"numberOfBytes": "32",
						"value": "t_array(t_address)dyn_storage"
					},
					"t_mapping(t_address,t_bool)": {
						"encoding": "mapping",
						"key": "t_address",
						"label": "mapping(address => bool)",
						"numberOfBytes": "32",
						"value": "t_bool"
					},
					"t_mapping(t_address,t_mapping(t_address,t_bool))": {
						"encoding": "mapping",
						"key": "t_address",
						"label": "mapping(address => mapping(address => bool))",
						"numberOfBytes": "32",
						"value": "t_mapping(t_address,t_bool)"
					},
					"t_uint256": {
						"encoding": "inplace",
						"label": "uint256",
						"numberOfBytes": "32"
					}
				}
			},
			"userdoc": {
				"kind": "user",
				"methods": {},
				"version": 1
			}
		}
	}
}