{
	"contracts/worksystems/Parameters.sol": {
		"Parameters": {
			"abi": [
				{
					"anonymous": false,
					"inputs": [
						{
							"indexed": true,
							"internalType": "address",
							"name": "previousOwner",
							"type": "address"
						},
						{
							"indexed": true,
							"internalType": "address",
							"name": "newOwner",
							"type": "address"
						}
					],
					"name": "OwnershipTransferred",
					"type": "event"
				},
				{
					"inputs": [],
					"name": "AddressManager",
					"outputs": [
						{
							"internalType": "address",
							"name": "",
							"type": "address"
						}
					],
					"stateMutability": "view",
					"type": "function"
				},
				{
					"inputs": [],
					"name": "FORMAT_COMMIT_ROUND_DURATION",
					"outputs": [
						{
							"internalType": "uint256",
							"name": "",
							"type": "uint256"
						}
					],
					"stateMutability": "view",
					"type": "function"
				},
				{
					"inputs": [],
					"name": "FORMAT_DATA_BATCH_SIZE",
					"outputs": [
						{
							"internalType": "uint256",
							"name": "",
							"type": "uint256"
						}
					],
					"stateMutability": "view",
					"type": "function"
				},
				{
					"inputs": [],
					"name": "FORMAT_MAX_CONSENSUS_WORKER_COUNT",
					"outputs": [
						{
							"internalType": "uint256",
							"name": "",
							"type": "uint256"
						}
					],
					"stateMutability": "view",
					"type": "function"
				},
				{
					"inputs": [],
					"name": "FORMAT_MIN_CONSENSUS_WORKER_COUNT",
					"outputs": [
						{
							"internalType": "uint256",
							"name": "",
							"type": "uint256"
						}
					],
					"stateMutability": "view",
					"type": "function"
				},
				{
					"inputs": [],
					"name": "FORMAT_MIN_REP_Data",
					"outputs": [
						{
							"internalType": "uint256",
							"name": "",
							"type": "uint256"
						}
					],
					"stateMutability": "view",
					"type": "function"
				},
				{
					"inputs": [],
					"name": "FORMAT_MIN_REWARD_Data",
					"outputs": [
						{
							"internalType": "uint256",
							"name": "",
							"type": "uint256"
						}
					],
					"stateMutability": "view",
					"type": "function"
				},
				{
					"inputs": [],
					"name": "FORMAT_MIN_STAKE",
					"outputs": [
						{
							"internalType": "uint256",
							"name": "",
							"type": "uint256"
						}
					],
					"stateMutability": "view",
					"type": "function"
				},
				{
					"inputs": [],
					"name": "FORMAT_REVEAL_ROUND_DURATION",
					"outputs": [
						{
							"internalType": "uint256",
							"name": "",
							"type": "uint256"
						}
					],
					"stateMutability": "view",
					"type": "function"
				},
				{
					"inputs": [],
					"name": "FormattingSystem",
					"outputs": [
						{
							"internalType": "address",
							"name": "",
							"type": "address"
						}
					],
					"stateMutability": "view",
					"type": "function"
				},
				{
					"inputs": [],
					"name": "MAX_CONTRACT_STORED_BATCHES",
					"outputs": [
						{
							"internalType": "uint256",
							"name": "",
							"type": "uint256"
						}
					],
					"stateMutability": "view",
					"type": "function"
				},
				{
					"inputs": [],
					"name": "MAX_SUCCEEDING_NOVOTES",
					"outputs": [
						{
							"internalType": "uint256",
							"name": "",
							"type": "uint256"
						}
					],
					"stateMutability": "view",
					"type": "function"
				},
				{
					"inputs": [],
					"name": "MAX_TOTAL_WORKERS",
					"outputs": [
						{
							"internalType": "uint256",
							"name": "",
							"type": "uint256"
						}
					],
					"stateMutability": "view",
					"type": "function"
				},
				{
					"inputs": [],
					"name": "MAX_UPDATE_ITERATIONS",
					"outputs": [
						{
							"internalType": "uint256",
							"name": "",
							"type": "uint256"
						}
					],
					"stateMutability": "view",
					"type": "function"
				},
				{
					"inputs": [],
					"name": "NOVOTE_REGISTRATION_WAIT_DURATION",
					"outputs": [
						{
							"internalType": "uint256",
							"name": "",
							"type": "uint256"
						}
					],
					"stateMutability": "view",
					"type": "function"
				},
				{
					"inputs": [],
					"name": "RepManager",
					"outputs": [
						{
							"internalType": "address",
							"name": "",
							"type": "address"
						}
					],
					"stateMutability": "view",
					"type": "function"
				},
				{
					"inputs": [],
					"name": "RewardManager",
					"outputs": [
						{
							"internalType": "address",
							"name": "",
							"type": "address"
						}
					],
					"stateMutability": "view",
					"type": "function"
				},
				{
					"inputs": [],
					"name": "SPOT_COMMIT_ROUND_DURATION",
					"outputs": [
						{
							"internalType": "uint256",
							"name": "",
							"type": "uint256"
						}
					],
					"stateMutability": "view",
					"type": "function"
				},
				{
					"inputs": [],
					"name": "SPOT_DATA_BATCH_SIZE",
					"outputs": [
						{
							"internalType": "uint256",
							"name": "",
							"type": "uint256"
						}
					],
					"stateMutability": "view",
					"type": "function"
				},
				{
					"inputs": [],
					"name": "SPOT_GLOBAL_MAX_SPOT_PER_PERIOD",
					"outputs": [
						{
							"internalType": "uint256",
							"name": "",
							"type": "uint256"
						}
					],
					"stateMutability": "view",
					"type": "function"
				},
				{
					"inputs": [],
					"name": "SPOT_INTER_ALLOCATION_DURATION",
					"outputs": [
						{
							"internalType": "uint256",
							"name": "",
							"type": "uint256"
						}
					],
					"stateMutability": "view",
					"type": "function"
				},
				{
					"inputs": [],
					"name": "SPOT_MAX_CONSENSUS_WORKER_COUNT",
					"outputs": [
						{
							"internalType": "uint256",
							"name": "",
							"type": "uint256"
						}
					],
					"stateMutability": "view",
					"type": "function"
				},
				{
					"inputs": [],
					"name": "SPOT_MAX_SPOT_PER_USER_PER_PERIOD",
					"outputs": [
						{
							"internalType": "uint256",
							"name": "",
							"type": "uint256"
						}
					],
					"stateMutability": "view",
					"type": "function"
				},
				{
					"inputs": [],
					"name": "SPOT_MIN_CONSENSUS_WORKER_COUNT",
					"outputs": [
						{
							"internalType": "uint256",
							"name": "",
							"type": "uint256"
						}
					],
					"stateMutability": "view",
					"type": "function"
				},
				{
					"inputs": [],
					"name": "SPOT_MIN_REP_Data",
					"outputs": [
						{
							"internalType": "uint256",
							"name": "",
							"type": "uint256"
						}
					],
					"stateMutability": "view",
					"type": "function"
				},
				{
					"inputs": [],
					"name": "SPOT_MIN_REWARD_Data",
					"outputs": [
						{
							"internalType": "uint256",
							"name": "",
							"type": "uint256"
						}
					],
					"stateMutability": "view",
					"type": "function"
				},
				{
					"inputs": [],
					"name": "SPOT_MIN_STAKE",
					"outputs": [
						{
							"internalType": "uint256",
							"name": "",
							"type": "uint256"
						}
					],
					"stateMutability": "view",
					"type": "function"
				},
				{
					"inputs": [],
					"name": "SPOT_NB_TIMEFRAMES",
					"outputs": [
						{
							"internalType": "uint256",
							"name": "",
							"type": "uint256"
						}
					],
					"stateMutability": "view",
					"type": "function"
				},
				{
					"inputs": [],
					"name": "SPOT_REVEAL_ROUND_DURATION",
					"outputs": [
						{
							"internalType": "uint256",
							"name": "",
							"type": "uint256"
						}
					],
					"stateMutability": "view",
					"type": "function"
				},
				{
					"inputs": [],
					"name": "SPOT_TIMEFRAME_DURATION",
					"outputs": [
						{
							"internalType": "uint256",
							"name": "",
							"type": "uint256"
						}
					],
					"stateMutability": "view",
					"type": "function"
				},
				{
					"inputs": [],
					"name": "SPOT_TOGGLE_ENABLED",
					"outputs": [
						{
							"internalType": "bool",
							"name": "",
							"type": "bool"
						}
					],
					"stateMutability": "view",
					"type": "function"
				},
				{
					"inputs": [],
					"name": "SpottingSystem",
					"outputs": [
						{
							"internalType": "address",
							"name": "",
							"type": "address"
						}
					],
					"stateMutability": "view",
					"type": "function"
				},
				{
					"inputs": [],
					"name": "StakeManager",
					"outputs": [
						{
							"internalType": "address",
							"name": "",
							"type": "address"
						}
					],
					"stateMutability": "view",
					"type": "function"
				},
				{
					"inputs": [],
					"name": "VOTE_QUORUM",
					"outputs": [
						{
							"internalType": "uint256",
							"name": "",
							"type": "uint256"
						}
					],
					"stateMutability": "view",
					"type": "function"
				},
				{
					"inputs": [],
					"name": "getExordeToken",
					"outputs": [
						{
							"internalType": "address",
							"name": "",
							"type": "address"
						}
					],
					"stateMutability": "view",
					"type": "function"
				},
				{
					"inputs": [],
					"name": "getFormattingSystem",
					"outputs": [
						{
							"internalType": "address",
							"name": "",
							"type": "address"
						}
					],
					"stateMutability": "view",
					"type": "function"
				},
				{
					"inputs": [],
					"name": "getMaxTotalWorkers",
					"outputs": [
						{
							"internalType": "uint256",
							"name": "",
							"type": "uint256"
						}
					],
					"stateMutability": "view",
					"type": "function"
				},
				{
					"inputs": [],
					"name": "getRepManager",
					"outputs": [
						{
							"internalType": "address",
							"name": "",
							"type": "address"
						}
					],
					"stateMutability": "view",
					"type": "function"
				},
				{
					"inputs": [],
					"name": "getRewardManager",
					"outputs": [
						{
							"internalType": "address",
							"name": "",
							"type": "address"
						}
					],
					"stateMutability": "view",
					"type": "function"
				},
				{
					"inputs": [],
					"name": "getSpottingSystem",
					"outputs": [
						{
							"internalType": "address",
							"name": "",
							"type": "address"
						}
					],
					"stateMutability": "view",
					"type": "function"
				},
				{
					"inputs": [],
					"name": "getStakeManager",
					"outputs": [
						{
							"internalType": "address",
							"name": "",
							"type": "address"
						}
					],
					"stateMutability": "view",
					"type": "function"
				},
				{
					"inputs": [],
					"name": "getVoteQuorum",
					"outputs": [
						{
							"internalType": "uint256",
							"name": "",
							"type": "uint256"
						}
					],
					"stateMutability": "view",
					"type": "function"
				},
				{
					"inputs": [],
					"name": "get_FORMAT_COMMIT_ROUND_DURATION",
					"outputs": [
						{
							"internalType": "uint256",
							"name": "",
							"type": "uint256"
						}
					],
					"stateMutability": "view",
					"type": "function"
				},
				{
					"inputs": [],
					"name": "get_FORMAT_DATA_BATCH_SIZE",
					"outputs": [
						{
							"internalType": "uint256",
							"name": "",
							"type": "uint256"
						}
					],
					"stateMutability": "view",
					"type": "function"
				},
				{
					"inputs": [],
					"name": "get_FORMAT_MAX_CONSENSUS_WORKER_COUNT",
					"outputs": [
						{
							"internalType": "uint256",
							"name": "",
							"type": "uint256"
						}
					],
					"stateMutability": "view",
					"type": "function"
				},
				{
					"inputs": [],
					"name": "get_FORMAT_MIN_CONSENSUS_WORKER_COUNT",
					"outputs": [
						{
							"internalType": "uint256",
							"name": "",
							"type": "uint256"
						}
					],
					"stateMutability": "view",
					"type": "function"
				},
				{
					"inputs": [],
					"name": "get_FORMAT_MIN_REP_Data",
					"outputs": [
						{
							"internalType": "uint256",
							"name": "",
							"type": "uint256"
						}
					],
					"stateMutability": "view",
					"type": "function"
				},
				{
					"inputs": [],
					"name": "get_FORMAT_MIN_REWARD_Data",
					"outputs": [
						{
							"internalType": "uint256",
							"name": "",
							"type": "uint256"
						}
					],
					"stateMutability": "view",
					"type": "function"
				},
				{
					"inputs": [],
					"name": "get_FORMAT_MIN_STAKE",
					"outputs": [
						{
							"internalType": "uint256",
							"name": "",
							"type": "uint256"
						}
					],
					"stateMutability": "view",
					"type": "function"
				},
				{
					"inputs": [],
					"name": "get_FORMAT_REVEAL_ROUND_DURATION",
					"outputs": [
						{
							"internalType": "uint256",
							"name": "",
							"type": "uint256"
						}
					],
					"stateMutability": "view",
					"type": "function"
				},
				{
					"inputs": [],
					"name": "get_MAX_CONTRACT_STORED_BATCHES",
					"outputs": [
						{
							"internalType": "uint256",
							"name": "",
							"type": "uint256"
						}
					],
					"stateMutability": "view",
					"type": "function"
				},
				{
					"inputs": [],
					"name": "get_MAX_SUCCEEDING_NOVOTES",
					"outputs": [
						{
							"internalType": "uint256",
							"name": "",
							"type": "uint256"
						}
					],
					"stateMutability": "view",
					"type": "function"
				},
				{
					"inputs": [],
					"name": "get_MAX_UPDATE_ITERATIONS",
					"outputs": [
						{
							"internalType": "uint256",
							"name": "",
							"type": "uint256"
						}
					],
					"stateMutability": "view",
					"type": "function"
				},
				{
					"inputs": [],
					"name": "get_NOVOTE_REGISTRATION_WAIT_DURATION",
					"outputs": [
						{
							"internalType": "uint256",
							"name": "",
							"type": "uint256"
						}
					],
					"stateMutability": "view",
					"type": "function"
				},
				{
					"inputs": [],
					"name": "get_SPOT_COMMIT_ROUND_DURATION",
					"outputs": [
						{
							"internalType": "uint256",
							"name": "",
							"type": "uint256"
						}
					],
					"stateMutability": "view",
					"type": "function"
				},
				{
					"inputs": [],
					"name": "get_SPOT_DATA_BATCH_SIZE",
					"outputs": [
						{
							"internalType": "uint256",
							"name": "",
							"type": "uint256"
						}
					],
					"stateMutability": "view",
					"type": "function"
				},
				{
					"inputs": [],
					"name": "get_SPOT_GLOBAL_MAX_SPOT_PER_PERIOD",
					"outputs": [
						{
							"internalType": "uint256",
							"name": "",
							"type": "uint256"
						}
					],
					"stateMutability": "view",
					"type": "function"
				},
				{
					"inputs": [],
					"name": "get_SPOT_INTER_ALLOCATION_DURATION",
					"outputs": [
						{
							"internalType": "uint256",
							"name": "",
							"type": "uint256"
						}
					],
					"stateMutability": "view",
					"type": "function"
				},
				{
					"inputs": [],
					"name": "get_SPOT_MAX_CONSENSUS_WORKER_COUNT",
					"outputs": [
						{
							"internalType": "uint256",
							"name": "",
							"type": "uint256"
						}
					],
					"stateMutability": "view",
					"type": "function"
				},
				{
					"inputs": [],
					"name": "get_SPOT_MAX_SPOT_PER_USER_PER_PERIOD",
					"outputs": [
						{
							"internalType": "uint256",
							"name": "",
							"type": "uint256"
						}
					],
					"stateMutability": "view",
					"type": "function"
				},
				{
					"inputs": [],
					"name": "get_SPOT_MIN_CONSENSUS_WORKER_COUNT",
					"outputs": [
						{
							"internalType": "uint256",
							"name": "",
							"type": "uint256"
						}
					],
					"stateMutability": "view",
					"type": "function"
				},
				{
					"inputs": [],
					"name": "get_SPOT_MIN_REP_Data",
					"outputs": [
						{
							"internalType": "uint256",
							"name": "",
							"type": "uint256"
						}
					],
					"stateMutability": "view",
					"type": "function"
				},
				{
					"inputs": [],
					"name": "get_SPOT_MIN_REWARD_Data",
					"outputs": [
						{
							"internalType": "uint256",
							"name": "",
							"type": "uint256"
						}
					],
					"stateMutability": "view",
					"type": "function"
				},
				{
					"inputs": [],
					"name": "get_SPOT_MIN_STAKE",
					"outputs": [
						{
							"internalType": "uint256",
							"name": "",
							"type": "uint256"
						}
					],
					"stateMutability": "view",
					"type": "function"
				},
				{
					"inputs": [],
					"name": "get_SPOT_NB_TIMEFRAMES",
					"outputs": [
						{
							"internalType": "uint256",
							"name": "",
							"type": "uint256"
						}
					],
					"stateMutability": "view",
					"type": "function"
				},
				{
					"inputs": [],
					"name": "get_SPOT_REVEAL_ROUND_DURATION",
					"outputs": [
						{
							"internalType": "uint256",
							"name": "",
							"type": "uint256"
						}
					],
					"stateMutability": "view",
					"type": "function"
				},
				{
					"inputs": [],
					"name": "get_SPOT_TIMEFRAME_DURATION",
					"outputs": [
						{
							"internalType": "uint256",
							"name": "",
							"type": "uint256"
						}
					],
					"stateMutability": "view",
					"type": "function"
				},
				{
					"inputs": [],
					"name": "get_SPOT_TOGGLE_ENABLED",
					"outputs": [
						{
							"internalType": "bool",
							"name": "",
							"type": "bool"
						}
					],
					"stateMutability": "view",
					"type": "function"
				},
				{
					"inputs": [],
					"name": "getsFuelSystem",
					"outputs": [
						{
							"internalType": "address",
							"name": "",
							"type": "address"
						}
					],
					"stateMutability": "view",
					"type": "function"
				},
				{
					"inputs": [],
					"name": "owner",
					"outputs": [
						{
							"internalType": "address",
							"name": "",
							"type": "address"
						}
					],
					"stateMutability": "view",
					"type": "function"
				},
				{
					"inputs": [],
					"name": "renounceOwnership",
					"outputs": [],
					"stateMutability": "nonpayable",
					"type": "function"
				},
				{
					"inputs": [],
					"name": "sFuel",
					"outputs": [
						{
							"internalType": "address",
							"name": "",
							"type": "address"
						}
					],
					"stateMutability": "view",
					"type": "function"
				},
				{
					"inputs": [],
					"name": "token",
					"outputs": [
						{
							"internalType": "address",
							"name": "",
							"type": "address"
						}
					],
					"stateMutability": "view",
					"type": "function"
				},
				{
					"inputs": [
						{
							"internalType": "address",
							"name": "newOwner",
							"type": "address"
						}
					],
					"name": "transferOwnership",
					"outputs": [],
					"stateMutability": "nonpayable",
					"type": "function"
				},
				{
					"inputs": [
						{
							"internalType": "address",
							"name": "StakeManager_",
							"type": "address"
						},
						{
							"internalType": "address",
							"name": "RepManager_",
							"type": "address"
						},
						{
							"internalType": "address",
							"name": "RewardManager_",
							"type": "address"
						},
						{
							"internalType": "address",
							"name": "AddressManager_",
							"type": "address"
						},
						{
							"internalType": "address",
							"name": "SpottingSystem_",
							"type": "address"
						},
						{
							"internalType": "address",
							"name": "FormattingSystem_",
							"type": "address"
						},
						{
							"internalType": "address",
							"name": "sFuel_",
							"type": "address"
						},
						{
							"internalType": "address",
							"name": "token_",
							"type": "address"
						}
					],
					"name": "updateContractsAddresses",
					"outputs": [],
					"stateMutability": "nonpayable",
					"type": "function"
				},
				{
					"inputs": [
						{
							"internalType": "uint256",
							"name": "ParameterIndex",
							"type": "uint256"
						},
						{
							"internalType": "uint256",
							"name": "uintValue",
							"type": "uint256"
						}
					],
					"name": "updateFormattingParameters",
					"outputs": [],
					"stateMutability": "nonpayable",
					"type": "function"
				},
				{
					"inputs": [
						{
							"internalType": "uint256",
							"name": "ParameterIndex",
							"type": "uint256"
						},
						{
							"internalType": "uint256",
							"name": "uintValue",
							"type": "uint256"
						}
					],
					"name": "updateGeneralParameters",
					"outputs": [],
					"stateMutability": "nonpayable",
					"type": "function"
				},
				{
					"inputs": [
						{
							"internalType": "uint256",
							"name": "ParameterIndex",
							"type": "uint256"
						},
						{
							"internalType": "uint256",
							"name": "uintValue",
							"type": "uint256"
						},
						{
							"internalType": "bool",
							"name": "boolValue",
							"type": "bool"
						}
					],
					"name": "updateSpottingParameters",
					"outputs": [],
					"stateMutability": "nonpayable",
					"type": "function"
				}
			],
			"devdoc": {
				"author": "Mathias Dail",
				"kind": "dev",
				"methods": {
					"owner()": {
						"details": "Returns the address of the current owner."
					},
					"renounceOwnership()": {
						"details": "Leaves the contract without owner. It will not be possible to call `onlyOwner` functions anymore. Can only be called by the current owner. NOTE: Renouncing ownership will leave the contract without an owner, thereby removing any functionality that is only available to the owner."
					},
					"transferOwnership(address)": {
						"details": "Transfers ownership of the contract to a new account (`newOwner`). Can only be called by the current owner."
					}
				},
				"title": "Parameters  v0.1",
				"version": 1
			},
			"evm": {
				"assembly": "    /* \"contracts/worksystems/Parameters.sol\":351:14137  contract Parameters is Ownable {\r... */\n  mstore(0x40, 0x80)\n    /* \"contracts/worksystems/Parameters.sol\":494:498  1000 */\n  0x03e8\n    /* \"contracts/worksystems/Parameters.sol\":459:498  uint256 public MAX_TOTAL_WORKERS = 1000 */\n  0x01\n  sstore\n    /* \"contracts/worksystems/Parameters.sol\":535:537  50 */\n  0x32\n    /* \"contracts/worksystems/Parameters.sol\":505:537  uint256 public VOTE_QUORUM  = 50 */\n  0x02\n  sstore\n    /* \"contracts/worksystems/Parameters.sol\":587:589  50 */\n  0x32\n    /* \"contracts/worksystems/Parameters.sol\":547:589  uint256 public MAX_UPDATE_ITERATIONS  = 50 */\n  0x03\n  sstore\n    /* \"contracts/worksystems/Parameters.sol\":645:651  200000 */\n  0x030d40\n    /* \"contracts/worksystems/Parameters.sol\":599:651  uint256 public MAX_CONTRACT_STORED_BATCHES  = 200000 */\n  0x04\n  sstore\n    /* \"contracts/worksystems/Parameters.sol\":749:750  1 */\n  0x01\n    /* \"contracts/worksystems/Parameters.sol\":711:750  uint256 public SPOT_DATA_BATCH_SIZE = 1 */\n  0x05\n  sstore\n    /* \"contracts/worksystems/Parameters.sol\":789:804  25 * (10 ** 18) */\n  0x015af1d78b58c40000\n    /* \"contracts/worksystems/Parameters.sol\":757:804  uint256 public SPOT_MIN_STAKE = 25 * (10 ** 18) */\n  0x06\n  sstore\n    /* \"contracts/worksystems/Parameters.sol\":862:863  2 */\n  0x02\n    /* \"contracts/worksystems/Parameters.sol\":812:863  uint256 public SPOT_MIN_CONSENSUS_WORKER_COUNT  = 2 */\n  0x07\n  sstore\n    /* \"contracts/worksystems/Parameters.sol\":923:924  4 */\n  0x04\n    /* \"contracts/worksystems/Parameters.sol\":873:924  uint256 public SPOT_MAX_CONSENSUS_WORKER_COUNT  = 4 */\n  0x08\n  sstore\n    /* \"contracts/worksystems/Parameters.sol\":975:978  180 */\n  0xb4\n    /* \"contracts/worksystems/Parameters.sol\":931:978  uint256 public SPOT_COMMIT_ROUND_DURATION = 180 */\n  0x09\n  sstore\n    /* \"contracts/worksystems/Parameters.sol\":1029:1032  180 */\n  0xb4\n    /* \"contracts/worksystems/Parameters.sol\":985:1032  uint256 public SPOT_REVEAL_ROUND_DURATION = 180 */\n  0x0a\n  sstore\n    /* \"contracts/worksystems/Parameters.sol\":1084:1098  2 * (10 ** 18) */\n  0x1bc16d674ec80000\n    /* \"contracts/worksystems/Parameters.sol\":1046:1098  uint256 public SPOT_MIN_REWARD_Data = 2 * (10 ** 18) */\n  0x0b\n  sstore\n    /* \"contracts/worksystems/Parameters.sol\":1141:1156  40 * (10 ** 18) */\n  0x022b1c8c1227a00000\n    /* \"contracts/worksystems/Parameters.sol\":1105:1156  uint256 public SPOT_MIN_REP_Data  = 40 * (10 ** 18) */\n  0x0c\n  sstore\n    /* \"contracts/worksystems/Parameters.sol\":1241:1244  400 */\n  0x0190\n    /* \"contracts/worksystems/Parameters.sol\":1193:1244  uint256 public SPOT_INTER_ALLOCATION_DURATION = 400 */\n  0x0d\n  sstore\n    /* \"contracts/worksystems/Parameters.sol\":1285:1289  true */\n  0x01\n    /* \"contracts/worksystems/Parameters.sol\":1251:1289  bool public SPOT_TOGGLE_ENABLED = true */\n  0x0e\n  exp(0x0100, 0x00)\n  dup2\n  sload\n  dup2\n  0xff\n  mul\n  not\n  and\n  swap1\n  dup4\n  iszero\n  iszero\n  mul\n  or\n  swap1\n  sstore\n  pop\n    /* \"contracts/worksystems/Parameters.sol\":1338:1343  15*60 */\n  0x0384\n    /* \"contracts/worksystems/Parameters.sol\":1296:1343  uint256 public SPOT_TIMEFRAME_DURATION  = 15*60 */\n  0x0f\n  sstore\n    /* \"contracts/worksystems/Parameters.sol\":1413:1417  1000 */\n  0x03e8\n    /* \"contracts/worksystems/Parameters.sol\":1363:1417  uint256 public SPOT_GLOBAL_MAX_SPOT_PER_PERIOD  = 1000 */\n  0x10\n  sstore\n    /* \"contracts/worksystems/Parameters.sol\":1476:1478  25 */\n  0x19\n    /* \"contracts/worksystems/Parameters.sol\":1424:1478  uint256 public SPOT_MAX_SPOT_PER_USER_PER_PERIOD  = 25 */\n  0x11\n  sstore\n    /* \"contracts/worksystems/Parameters.sol\":1521:1522  4 */\n  0x04\n    /* \"contracts/worksystems/Parameters.sol\":1485:1522  uint256 public SPOT_NB_TIMEFRAMES = 4 */\n  0x12\n  sstore\n    /* \"contracts/worksystems/Parameters.sol\":1570:1571  3 */\n  0x03\n    /* \"contracts/worksystems/Parameters.sol\":1529:1571  uint256 public MAX_SUCCEEDING_NOVOTES  = 3 */\n  0x13\n  sstore\n    /* \"contracts/worksystems/Parameters.sol\":1634:1638  3600 */\n  0x0e10\n    /* \"contracts/worksystems/Parameters.sol\":1582:1638  uint256 public NOVOTE_REGISTRATION_WAIT_DURATION  = 3600 */\n  0x14\n  sstore\n    /* \"contracts/worksystems/Parameters.sol\":1754:1755  1 */\n  0x01\n    /* \"contracts/worksystems/Parameters.sol\":1714:1755  uint256 public FORMAT_DATA_BATCH_SIZE = 1 */\n  0x15\n  sstore\n    /* \"contracts/worksystems/Parameters.sol\":1815:1816  2 */\n  0x02\n    /* \"contracts/worksystems/Parameters.sol\":1763:1816  uint256 public FORMAT_MIN_CONSENSUS_WORKER_COUNT  = 2 */\n  0x16\n  sstore\n    /* \"contracts/worksystems/Parameters.sol\":1876:1877  4 */\n  0x04\n    /* \"contracts/worksystems/Parameters.sol\":1824:1877  uint256 public FORMAT_MAX_CONSENSUS_WORKER_COUNT  = 4 */\n  0x17\n  sstore\n    /* \"contracts/worksystems/Parameters.sol\":1921:1936  25 * (10 ** 18) */\n  0x015af1d78b58c40000\n    /* \"contracts/worksystems/Parameters.sol\":1887:1936  uint256 public FORMAT_MIN_STAKE = 25 * (10 ** 18) */\n  0x18\n  sstore\n    /* \"contracts/worksystems/Parameters.sol\":1990:1993  400 */\n  0x0190\n    /* \"contracts/worksystems/Parameters.sol\":1944:1993  uint256 public FORMAT_COMMIT_ROUND_DURATION = 400 */\n  0x19\n  sstore\n    /* \"contracts/worksystems/Parameters.sol\":2046:2049  180 */\n  0xb4\n    /* \"contracts/worksystems/Parameters.sol\":2000:2049  uint256 public FORMAT_REVEAL_ROUND_DURATION = 180 */\n  0x1a\n  sstore\n    /* \"contracts/worksystems/Parameters.sol\":2098:2112  3 * (10 ** 18) */\n  0x29a2241af62c0000\n    /* \"contracts/worksystems/Parameters.sol\":2058:2112  uint256 public FORMAT_MIN_REWARD_Data = 3 * (10 ** 18) */\n  0x1b\n  sstore\n    /* \"contracts/worksystems/Parameters.sol\":2157:2172  50 * (10 ** 18) */\n  0x02b5e3af16b1880000\n    /* \"contracts/worksystems/Parameters.sol\":2119:2172  uint256 public FORMAT_MIN_REP_Data  = 50 * (10 ** 18) */\n  0x1c\n  sstore\n    /* \"contracts/worksystems/Parameters.sol\":351:14137  contract Parameters is Ownable {\r... */\n  callvalue\n  dup1\n  iszero\n  tag_1\n  jumpi\n  0x00\n  dup1\n  revert\ntag_1:\n  pop\n    /* \"@openzeppelin/contracts/access/Ownable.sol\":921:953  _transferOwnership(_msgSender()) */\n  tag_4\n    /* \"@openzeppelin/contracts/access/Ownable.sol\":940:952  _msgSender() */\n  tag_5\n    /* \"@openzeppelin/contracts/access/Ownable.sol\":940:950  _msgSender */\n  tag_6\n    /* \"@openzeppelin/contracts/access/Ownable.sol\":940:952  _msgSender() */\n  jump\t// in\ntag_5:\n    /* \"@openzeppelin/contracts/access/Ownable.sol\":921:939  _transferOwnership */\n  tag_7\n    /* \"@openzeppelin/contracts/access/Ownable.sol\":921:953  _transferOwnership(_msgSender()) */\n  jump\t// in\ntag_4:\n    /* \"contracts/worksystems/Parameters.sol\":351:14137  contract Parameters is Ownable {\r... */\n  jump(tag_8)\n    /* \"@openzeppelin/contracts/utils/Context.sol\":640:736  function _msgSender() internal view virtual returns (address) {... */\ntag_6:\n    /* \"@openzeppelin/contracts/utils/Context.sol\":719:729  msg.sender */\n  caller\n    /* \"@openzeppelin/contracts/utils/Context.sol\":640:736  function _msgSender() internal view virtual returns (address) {... */\n  swap1\n  jump\t// out\n    /* \"@openzeppelin/contracts/access/Ownable.sol\":2270:2457  function _transferOwnership(address newOwner) internal virtual {... */\ntag_7:\n    /* \"@openzeppelin/contracts/access/Ownable.sol\":2343:2359  address oldOwner */\n  0x00\n    /* \"@openzeppelin/contracts/access/Ownable.sol\":2362:2368  _owner */\n  dup1\n  sload\n  sub(shl(0xa0, 0x01), 0x01)\n    /* \"@openzeppelin/contracts/access/Ownable.sol\":2378:2395  _owner = newOwner */\n  dup4\n  dup2\n  and\n  not(sub(shl(0xa0, 0x01), 0x01))\n  dup4\n  and\n  dup2\n  or\n  dup5\n  sstore\n    /* \"@openzeppelin/contracts/access/Ownable.sol\":2410:2450  OwnershipTransferred(oldOwner, newOwner) */\n  mload(0x40)\n    /* \"@openzeppelin/contracts/access/Ownable.sol\":2362:2368  _owner */\n  swap2\n  swap1\n  swap3\n  and\n  swap3\n  dup4\n  swap2\n    /* \"@openzeppelin/contracts/access/Ownable.sol\":2410:2450  OwnershipTransferred(oldOwner, newOwner) */\n  0x8be0079c531659141344cd1fd0a4f28419497f9722a3daafe3b4186f6b6457e0\n  swap2\n    /* \"@openzeppelin/contracts/access/Ownable.sol\":2343:2359  address oldOwner */\n  swap1\n    /* \"@openzeppelin/contracts/access/Ownable.sol\":2410:2450  OwnershipTransferred(oldOwner, newOwner) */\n  log3\n    /* \"@openzeppelin/contracts/access/Ownable.sol\":2270:2457  function _transferOwnership(address newOwner) internal virtual {... */\n  pop\n  pop\n  jump\t// out\n    /* \"contracts/worksystems/Parameters.sol\":351:14137  contract Parameters is Ownable {\r... */\ntag_8:\n  dataSize(sub_0)\n  dup1\n  dataOffset(sub_0)\n  0x00\n  codecopy\n  0x00\n  return\nstop\n\nsub_0: assembly {\n        /* \"contracts/worksystems/Parameters.sol\":351:14137  contract Parameters is Ownable {\r... */\n      mstore(0x40, 0x80)\n      callvalue\n      dup1\n      iszero\n      tag_1\n      jumpi\n      0x00\n      dup1\n      revert\n    tag_1:\n      pop\n      jumpi(tag_2, lt(calldatasize, 0x04))\n      shr(0xe0, calldataload(0x00))\n      dup1\n      0x9d1f2ada\n      gt\n      tag_81\n      jumpi\n      dup1\n      0xca820e9b\n      gt\n      tag_82\n      jumpi\n      dup1\n      0xe6fdd4c0\n      gt\n      tag_83\n      jumpi\n      dup1\n      0xf2fde38b\n      gt\n      tag_84\n      jumpi\n      dup1\n      0xf2fde38b\n      eq\n      tag_76\n      jumpi\n      dup1\n      0xfb50a473\n      eq\n      tag_77\n      jumpi\n      dup1\n      0xfc0c546a\n      eq\n      tag_78\n      jumpi\n      dup1\n      0xfe722749\n      eq\n      tag_79\n      jumpi\n      dup1\n      0xff622dda\n      eq\n      tag_80\n      jumpi\n      jump(tag_2)\n    tag_84:\n      dup1\n      0xe6fdd4c0\n      eq\n      tag_71\n      jumpi\n      dup1\n      0xea19733c\n      eq\n      tag_72\n      jumpi\n      dup1\n      0xea663ed9\n      eq\n      tag_73\n      jumpi\n      dup1\n      0xee37f4a6\n      eq\n      tag_74\n      jumpi\n      dup1\n      0xf250ae2d\n      eq\n      tag_75\n      jumpi\n      jump(tag_2)\n    tag_83:\n      dup1\n      0xe0de3d7c\n      gt\n      tag_85\n      jumpi\n      dup1\n      0xe0de3d7c\n      eq\n      tag_66\n      jumpi\n      dup1\n      0xe28fdeec\n      eq\n      tag_67\n      jumpi\n      dup1\n      0xe3115d3c\n      eq\n      tag_68\n      jumpi\n      dup1\n      0xe5f14824\n      eq\n      tag_69\n      jumpi\n      dup1\n      0xe66d543a\n      eq\n      tag_70\n      jumpi\n      jump(tag_2)\n    tag_85:\n      dup1\n      0xca820e9b\n      eq\n      tag_61\n      jumpi\n      dup1\n      0xd0eed967\n      eq\n      tag_62\n      jumpi\n      dup1\n      0xd4efd2ba\n      eq\n      tag_63\n      jumpi\n      dup1\n      0xd8645d37\n      eq\n      tag_64\n      jumpi\n      dup1\n      0xdfeceed7\n      eq\n      tag_65\n      jumpi\n      jump(tag_2)\n    tag_82:\n      dup1\n      0xb45d9d8d\n      gt\n      tag_86\n      jumpi\n      dup1\n      0xbf09ff70\n      gt\n      tag_87\n      jumpi\n      dup1\n      0xbf09ff70\n      eq\n      tag_56\n      jumpi\n      dup1\n      0xc4a306f8\n      eq\n      tag_57\n      jumpi\n      dup1\n      0xc6eacbfe\n      eq\n      tag_58\n      jumpi\n      dup1\n      0xc7761fab\n      eq\n      tag_59\n      jumpi\n      dup1\n      0xca64f9e7\n      eq\n      tag_60\n      jumpi\n      jump(tag_2)\n    tag_87:\n      dup1\n      0xb45d9d8d\n      eq\n      tag_51\n      jumpi\n      dup1\n      0xb5c92a3f\n      eq\n      tag_52\n      jumpi\n      dup1\n      0xb6118450\n      eq\n      tag_53\n      jumpi\n      dup1\n      0xbd40ef4c\n      eq\n      tag_54\n      jumpi\n      dup1\n      0xbe250988\n      eq\n      tag_55\n      jumpi\n      jump(tag_2)\n    tag_86:\n      dup1\n      0xa35b3b09\n      gt\n      tag_88\n      jumpi\n      dup1\n      0xa35b3b09\n      eq\n      tag_46\n      jumpi\n      dup1\n      0xab43e78d\n      eq\n      tag_47\n      jumpi\n      dup1\n      0xacbe4f3e\n      eq\n      tag_48\n      jumpi\n      dup1\n      0xb368b928\n      eq\n      tag_49\n      jumpi\n      dup1\n      0xb38e885e\n      eq\n      tag_50\n      jumpi\n      jump(tag_2)\n    tag_88:\n      dup1\n      0x9d1f2ada\n      eq\n      tag_42\n      jumpi\n      dup1\n      0x9fb491f6\n      eq\n      tag_43\n      jumpi\n      dup1\n      0xa02f9914\n      eq\n      tag_44\n      jumpi\n      dup1\n      0xa327181b\n      eq\n      tag_45\n      jumpi\n      jump(tag_2)\n    tag_81:\n      dup1\n      0x544037a5\n      gt\n      tag_89\n      jumpi\n      dup1\n      0x72e54030\n      gt\n      tag_90\n      jumpi\n      dup1\n      0x87ce6311\n      gt\n      tag_91\n      jumpi\n      dup1\n      0x87ce6311\n      eq\n      tag_37\n      jumpi\n      dup1\n      0x8d289f8f\n      eq\n      tag_38\n      jumpi\n      dup1\n      0x8da5cb5b\n      eq\n      tag_39\n      jumpi\n      dup1\n      0x90d10b6e\n      eq\n      tag_40\n      jumpi\n      dup1\n      0x98a54e2b\n      eq\n      tag_41\n      jumpi\n      jump(tag_2)\n    tag_91:\n      dup1\n      0x72e54030\n      eq\n      tag_32\n      jumpi\n      dup1\n      0x77ad500c\n      eq\n      tag_33\n      jumpi\n      dup1\n      0x7a34da67\n      eq\n      tag_34\n      jumpi\n      dup1\n      0x7d630cb0\n      eq\n      tag_35\n      jumpi\n      dup1\n      0x83cc6ef2\n      eq\n      tag_36\n      jumpi\n      jump(tag_2)\n    tag_90:\n      dup1\n      0x62c11afa\n      gt\n      tag_92\n      jumpi\n      dup1\n      0x62c11afa\n      eq\n      tag_27\n      jumpi\n      dup1\n      0x68bd3615\n      eq\n      tag_28\n      jumpi\n      dup1\n      0x6b13edc1\n      eq\n      tag_29\n      jumpi\n      dup1\n      0x70d29bdf\n      eq\n      tag_30\n      jumpi\n      dup1\n      0x715018a6\n      eq\n      tag_31\n      jumpi\n      jump(tag_2)\n    tag_92:\n      dup1\n      0x544037a5\n      eq\n      tag_22\n      jumpi\n      dup1\n      0x557c1abe\n      eq\n      tag_23\n      jumpi\n      dup1\n      0x57716b7f\n      eq\n      tag_24\n      jumpi\n      dup1\n      0x5e481a18\n      eq\n      tag_25\n      jumpi\n      dup1\n      0x61879075\n      eq\n      tag_26\n      jumpi\n      jump(tag_2)\n    tag_89:\n      dup1\n      0x23aea691\n      gt\n      tag_93\n      jumpi\n      dup1\n      0x3692616a\n      gt\n      tag_94\n      jumpi\n      dup1\n      0x3692616a\n      eq\n      tag_17\n      jumpi\n      dup1\n      0x36fc43fc\n      eq\n      tag_18\n      jumpi\n      dup1\n      0x4e5638f5\n      eq\n      tag_19\n      jumpi\n      dup1\n      0x4e87c5a8\n      eq\n      tag_20\n      jumpi\n      dup1\n      0x51912f29\n      eq\n      tag_21\n      jumpi\n      jump(tag_2)\n    tag_94:\n      dup1\n      0x23aea691\n      eq\n      tag_12\n      jumpi\n      dup1\n      0x29a47bc7\n      eq\n      tag_13\n      jumpi\n      dup1\n      0x2c1480c0\n      eq\n      tag_14\n      jumpi\n      dup1\n      0x2c658ec0\n      eq\n      tag_15\n      jumpi\n      dup1\n      0x2e2f93f3\n      eq\n      tag_16\n      jumpi\n      jump(tag_2)\n    tag_93:\n      dup1\n      0x0f1f0ffe\n      gt\n      tag_95\n      jumpi\n      dup1\n      0x0f1f0ffe\n      eq\n      tag_7\n      jumpi\n      dup1\n      0x0f78cc76\n      eq\n      tag_8\n      jumpi\n      dup1\n      0x134667be\n      eq\n      tag_9\n      jumpi\n      dup1\n      0x166ff4c7\n      eq\n      tag_10\n      jumpi\n      dup1\n      0x1d0fb88e\n      eq\n      tag_11\n      jumpi\n      jump(tag_2)\n    tag_95:\n      dup1\n      0x653ff8\n      eq\n      tag_3\n      jumpi\n      dup1\n      0x02c5a49f\n      eq\n      tag_4\n      jumpi\n      dup1\n      0x04e76c8f\n      eq\n      tag_5\n      jumpi\n      dup1\n      0x0855d151\n      eq\n      tag_6\n      jumpi\n    tag_2:\n      0x00\n      dup1\n      revert\n        /* \"contracts/worksystems/Parameters.sol\":757:804  uint256 public SPOT_MIN_STAKE = 25 * (10 ** 18) */\n    tag_3:\n      tag_96\n      tag_97\n      jump\t// in\n    tag_96:\n      mload(0x40)\n      tag_98\n      swap2\n      swap1\n      tag_99\n      jump\t// in\n    tag_98:\n      mload(0x40)\n      dup1\n      swap2\n      sub\n      swap1\n      return\n        /* \"contracts/worksystems/Parameters.sol\":13774:13900  function get_FORMAT_REVEAL_ROUND_DURATION() public view returns(uint256){\r... */\n    tag_4:\n      tag_96\n      tag_101\n      jump\t// in\n        /* \"contracts/worksystems/Parameters.sol\":10488:10583  function getRewardManager() public view returns(address){\r... */\n    tag_5:\n      tag_103\n      tag_104\n      jump\t// in\n    tag_103:\n      mload(0x40)\n      tag_98\n      swap2\n      swap1\n      tag_106\n      jump\t// in\n        /* \"contracts/worksystems/Parameters.sol\":10393:10482  function getRepManager() public view returns(address){\r... */\n    tag_6:\n      tag_103\n      tag_108\n      jump\t// in\n        /* \"contracts/worksystems/Parameters.sol\":12921:13057  function get_NOVOTE_REGISTRATION_WAIT_DURATION() public view returns(uint256){\r... */\n    tag_7:\n      tag_96\n      tag_111\n      jump\t// in\n        /* \"contracts/worksystems/Parameters.sol\":12279:12395  function get_SPOT_TIMEFRAME_DURATION() public view returns(uint256){\r... */\n    tag_8:\n      tag_96\n      tag_114\n      jump\t// in\n        /* \"contracts/worksystems/Parameters.sol\":2119:2172  uint256 public FORMAT_MIN_REP_Data  = 50 * (10 ** 18) */\n    tag_9:\n      tag_96\n      tag_117\n      jump\t// in\n        /* \"contracts/worksystems/Parameters.sol\":13358:13494  function get_FORMAT_MIN_CONSENSUS_WORKER_COUNT() public view returns(uint256){\r... */\n    tag_10:\n      tag_96\n      tag_120\n      jump\t// in\n        /* \"contracts/worksystems/Parameters.sol\":985:1032  uint256 public SPOT_REVEAL_ROUND_DURATION = 180 */\n    tag_11:\n      tag_96\n      tag_123\n      jump\t// in\n        /* \"contracts/worksystems/Parameters.sol\":13250:13352  function get_FORMAT_MIN_STAKE() public view returns(uint256){\r... */\n    tag_12:\n      tag_96\n      tag_126\n      jump\t// in\n        /* \"contracts/worksystems/Parameters.sol\":2272:2297  address public RepManager */\n    tag_13:\n      tag_103\n      tag_129\n      jump\t// in\n        /* \"contracts/worksystems/Parameters.sol\":11912:12022  function get_SPOT_MIN_REWARD_Data() public view returns(uint256){\r... */\n    tag_14:\n      tag_96\n      tag_132\n      jump\t// in\n        /* \"contracts/worksystems/Parameters.sol\":1887:1936  uint256 public FORMAT_MIN_STAKE = 25 * (10 ** 18) */\n    tag_15:\n      tag_96\n      tag_135\n      jump\t// in\n        /* \"contracts/worksystems/Parameters.sol\":10894:10979  function getExordeToken() public view returns(address){\r... */\n    tag_16:\n      tag_103\n      tag_138\n      jump\t// in\n        /* \"contracts/worksystems/Parameters.sol\":11546:11668  function get_SPOT_COMMIT_ROUND_DURATION() public view returns(uint256){\r... */\n    tag_17:\n      tag_96\n      tag_141\n      jump\t// in\n        /* \"contracts/worksystems/Parameters.sol\":1251:1289  bool public SPOT_TOGGLE_ENABLED = true */\n    tag_18:\n      tag_143\n      tag_144\n      jump\t// in\n    tag_143:\n      mload(0x40)\n      tag_98\n      swap2\n      swap1\n      tag_146\n      jump\t// in\n        /* \"contracts/worksystems/Parameters.sol\":599:651  uint256 public MAX_CONTRACT_STORED_BATCHES  = 200000 */\n    tag_19:\n      tag_96\n      tag_148\n      jump\t// in\n        /* \"contracts/worksystems/Parameters.sol\":12164:12269  function get_SPOT_TOGGLE_ENABLED() public view returns(bool){\r... */\n    tag_20:\n      tag_143\n      tag_151\n      jump\t// in\n        /* \"contracts/worksystems/Parameters.sol\":2304:2332  address public RewardManager */\n    tag_21:\n      tag_103\n      tag_154\n      jump\t// in\n        /* \"contracts/worksystems/Parameters.sol\":1763:1816  uint256 public FORMAT_MIN_CONSENSUS_WORKER_COUNT  = 2 */\n    tag_22:\n      tag_96\n      tag_157\n      jump\t// in\n        /* \"contracts/worksystems/Parameters.sol\":10803:10888  function getsFuelSystem() public view returns(address){\r... */\n    tag_23:\n      tag_103\n      tag_160\n      jump\t// in\n        /* \"contracts/worksystems/Parameters.sol\":13130:13244  function get_FORMAT_DATA_BATCH_SIZE() public view returns(uint256){\r... */\n    tag_24:\n      tag_96\n      tag_163\n      jump\t// in\n        /* \"contracts/worksystems/Parameters.sol\":6016:7039  function updateContractsAddresses(address StakeManager_, address RepManager_, address RewardManager_, address AddressManager_,\r... */\n    tag_25:\n      tag_165\n      tag_166\n      calldatasize\n      0x04\n      tag_167\n      jump\t// in\n    tag_166:\n      tag_168\n      jump\t// in\n    tag_165:\n      stop\n        /* \"contracts/worksystems/Parameters.sol\":5530:6006  function updateGeneralParameters(uint256 ParameterIndex, uint256 uintValue) public onlyOwner {        \r... */\n    tag_26:\n      tag_165\n      tag_170\n      calldatasize\n      0x04\n      tag_171\n      jump\t// in\n    tag_170:\n      tag_172\n      jump\t// in\n        /* \"contracts/worksystems/Parameters.sol\":2000:2049  uint256 public FORMAT_REVEAL_ROUND_DURATION = 180 */\n    tag_27:\n      tag_96\n      tag_174\n      jump\t// in\n        /* \"contracts/worksystems/Parameters.sol\":10696:10797  function getFormattingSystem() public view returns(address){\r... */\n    tag_28:\n      tag_103\n      tag_177\n      jump\t// in\n        /* \"contracts/worksystems/Parameters.sol\":8805:9701  function updateFormattingParameters(uint256 ParameterIndex, uint256 uintValue) public onlyOwner {        \r... */\n    tag_29:\n      tag_165\n      tag_180\n      calldatasize\n      0x04\n      tag_171\n      jump\t// in\n    tag_180:\n      tag_181\n      jump\t// in\n        /* \"contracts/worksystems/Parameters.sol\":13500:13636  function get_FORMAT_MAX_CONSENSUS_WORKER_COUNT() public view returns(uint256){\r... */\n    tag_30:\n      tag_96\n      tag_183\n      jump\t// in\n        /* \"@openzeppelin/contracts/access/Ownable.sol\":1668:1769  function renounceOwnership() public virtual onlyOwner {... */\n    tag_31:\n      tag_165\n      tag_186\n      jump\t// in\n        /* \"contracts/worksystems/Parameters.sol\":11674:11796  function get_SPOT_REVEAL_ROUND_DURATION() public view returns(uint256){\r... */\n    tag_32:\n      tag_96\n      tag_188\n      jump\t// in\n        /* \"contracts/worksystems/Parameters.sol\":13906:14020  function get_FORMAT_MIN_REWARD_Data() public view returns(uint256){\r... */\n    tag_33:\n      tag_96\n      tag_191\n      jump\t// in\n        /* \"contracts/worksystems/Parameters.sol\":2339:2368  address public AddressManager */\n    tag_34:\n      tag_103\n      tag_194\n      jump\t// in\n        /* \"contracts/worksystems/Parameters.sol\":9976:10088  function get_MAX_UPDATE_ITERATIONS() public view returns(uint256){\r... */\n    tag_35:\n      tag_96\n      tag_197\n      jump\t// in\n        /* \"contracts/worksystems/Parameters.sol\":2238:2265  address public StakeManager */\n    tag_36:\n      tag_103\n      tag_200\n      jump\t// in\n        /* \"contracts/worksystems/Parameters.sol\":1296:1343  uint256 public SPOT_TIMEFRAME_DURATION  = 15*60 */\n    tag_37:\n      tag_96\n      tag_203\n      jump\t// in\n        /* \"contracts/worksystems/Parameters.sol\":2411:2442  address public FormattingSystem */\n    tag_38:\n      tag_103\n      tag_206\n      jump\t// in\n        /* \"@openzeppelin/contracts/access/Ownable.sol\":1036:1121  function owner() public view virtual returns (address) {... */\n    tag_39:\n      tag_103\n      tag_209\n      jump\t// in\n        /* \"contracts/worksystems/Parameters.sol\":547:589  uint256 public MAX_UPDATE_ITERATIONS  = 50 */\n    tag_40:\n      tag_96\n      tag_212\n      jump\t// in\n        /* \"contracts/worksystems/Parameters.sol\":9773:9874  function getMaxTotalWorkers() public view returns(uint256){\r... */\n    tag_41:\n      tag_96\n      tag_215\n      jump\t// in\n        /* \"contracts/worksystems/Parameters.sol\":11050:11160  function get_SPOT_DATA_BATCH_SIZE() public view returns(uint256){\r... */\n    tag_42:\n      tag_96\n      tag_218\n      jump\t// in\n        /* \"contracts/worksystems/Parameters.sol\":12801:12915  function get_MAX_SUCCEEDING_NOVOTES() public view returns(uint256){\r... */\n    tag_43:\n      tag_96\n      tag_221\n      jump\t// in\n        /* \"contracts/worksystems/Parameters.sol\":13642:13768  function get_FORMAT_COMMIT_ROUND_DURATION() public view returns(uint256){\r... */\n    tag_44:\n      tag_96\n      tag_224\n      jump\t// in\n        /* \"contracts/worksystems/Parameters.sol\":459:498  uint256 public MAX_TOTAL_WORKERS = 1000 */\n    tag_45:\n      tag_96\n      tag_227\n      jump\t// in\n        /* \"contracts/worksystems/Parameters.sol\":873:924  uint256 public SPOT_MAX_CONSENSUS_WORKER_COUNT  = 4 */\n    tag_46:\n      tag_96\n      tag_230\n      jump\t// in\n        /* \"contracts/worksystems/Parameters.sol\":2449:2469  address public sFuel */\n    tag_47:\n      tag_103\n      tag_233\n      jump\t// in\n        /* \"contracts/worksystems/Parameters.sol\":11802:11906  function get_SPOT_MIN_REP_Data() public view returns(uint256){\r... */\n    tag_48:\n      tag_96\n      tag_236\n      jump\t// in\n        /* \"contracts/worksystems/Parameters.sol\":1944:1993  uint256 public FORMAT_COMMIT_ROUND_DURATION = 400 */\n    tag_49:\n      tag_96\n      tag_239\n      jump\t// in\n        /* \"contracts/worksystems/Parameters.sol\":12405:12537  function get_SPOT_GLOBAL_MAX_SPOT_PER_PERIOD() public view returns(uint256){\r... */\n    tag_50:\n      tag_96\n      tag_242\n      jump\t// in\n        /* \"contracts/worksystems/Parameters.sol\":10593:10690  function getSpottingSystem() public view returns(address){\r... */\n    tag_51:\n      tag_103\n      tag_245\n      jump\t// in\n        /* \"contracts/worksystems/Parameters.sol\":1105:1156  uint256 public SPOT_MIN_REP_Data  = 40 * (10 ** 18) */\n    tag_52:\n      tag_96\n      tag_248\n      jump\t// in\n        /* \"contracts/worksystems/Parameters.sol\":1485:1522  uint256 public SPOT_NB_TIMEFRAMES = 4 */\n    tag_53:\n      tag_96\n      tag_251\n      jump\t// in\n        /* \"contracts/worksystems/Parameters.sol\":11270:11402  function get_SPOT_MIN_CONSENSUS_WORKER_COUNT() public view returns(uint256){\r... */\n    tag_54:\n      tag_96\n      tag_254\n      jump\t// in\n        /* \"contracts/worksystems/Parameters.sol\":12547:12683  function get_SPOT_MAX_SPOT_PER_USER_PER_PERIOD() public view returns(uint256){\r... */\n    tag_55:\n      tag_96\n      tag_257\n      jump\t// in\n        /* \"contracts/worksystems/Parameters.sol\":1424:1478  uint256 public SPOT_MAX_SPOT_PER_USER_PER_PERIOD  = 25 */\n    tag_56:\n      tag_96\n      tag_260\n      jump\t// in\n        /* \"contracts/worksystems/Parameters.sol\":12028:12158  function get_SPOT_INTER_ALLOCATION_DURATION() public view returns(uint256){\r... */\n    tag_57:\n      tag_96\n      tag_263\n      jump\t// in\n        /* \"contracts/worksystems/Parameters.sol\":711:750  uint256 public SPOT_DATA_BATCH_SIZE = 1 */\n    tag_58:\n      tag_96\n      tag_266\n      jump\t// in\n        /* \"contracts/worksystems/Parameters.sol\":505:537  uint256 public VOTE_QUORUM  = 50 */\n    tag_59:\n      tag_96\n      tag_269\n      jump\t// in\n        /* \"contracts/worksystems/Parameters.sol\":10294:10387  function getStakeManager() public view returns(address){\r... */\n    tag_60:\n      tag_103\n      tag_272\n      jump\t// in\n        /* \"contracts/worksystems/Parameters.sol\":2058:2112  uint256 public FORMAT_MIN_REWARD_Data = 3 * (10 ** 18) */\n    tag_61:\n      tag_96\n      tag_275\n      jump\t// in\n        /* \"contracts/worksystems/Parameters.sol\":1582:1638  uint256 public NOVOTE_REGISTRATION_WAIT_DURATION  = 3600 */\n    tag_62:\n      tag_96\n      tag_278\n      jump\t// in\n        /* \"contracts/worksystems/Parameters.sol\":1529:1571  uint256 public MAX_SUCCEEDING_NOVOTES  = 3 */\n    tag_63:\n      tag_96\n      tag_281\n      jump\t// in\n        /* \"contracts/worksystems/Parameters.sol\":2375:2404  address public SpottingSystem */\n    tag_64:\n      tag_103\n      tag_284\n      jump\t// in\n        /* \"contracts/worksystems/Parameters.sol\":11408:11540  function get_SPOT_MAX_CONSENSUS_WORKER_COUNT() public view returns(uint256){\r... */\n    tag_65:\n      tag_96\n      tag_287\n      jump\t// in\n        /* \"contracts/worksystems/Parameters.sol\":1363:1417  uint256 public SPOT_GLOBAL_MAX_SPOT_PER_PERIOD  = 1000 */\n    tag_66:\n      tag_96\n      tag_290\n      jump\t// in\n        /* \"contracts/worksystems/Parameters.sol\":1824:1877  uint256 public FORMAT_MAX_CONSENSUS_WORKER_COUNT  = 4 */\n    tag_67:\n      tag_96\n      tag_293\n      jump\t// in\n        /* \"contracts/worksystems/Parameters.sol\":10094:10218  function get_MAX_CONTRACT_STORED_BATCHES() public view returns(uint256){\r... */\n    tag_68:\n      tag_96\n      tag_296\n      jump\t// in\n        /* \"contracts/worksystems/Parameters.sol\":1193:1244  uint256 public SPOT_INTER_ALLOCATION_DURATION = 400 */\n    tag_69:\n      tag_96\n      tag_299\n      jump\t// in\n        /* \"contracts/worksystems/Parameters.sol\":12689:12795  function get_SPOT_NB_TIMEFRAMES() public view returns(uint256){\r... */\n    tag_70:\n      tag_96\n      tag_302\n      jump\t// in\n        /* \"contracts/worksystems/Parameters.sol\":931:978  uint256 public SPOT_COMMIT_ROUND_DURATION = 180 */\n    tag_71:\n      tag_96\n      tag_305\n      jump\t// in\n        /* \"contracts/worksystems/Parameters.sol\":9880:9970  function getVoteQuorum() public view returns(uint256){\r... */\n    tag_72:\n      tag_96\n      tag_308\n      jump\t// in\n        /* \"contracts/worksystems/Parameters.sol\":1714:1755  uint256 public FORMAT_DATA_BATCH_SIZE = 1 */\n    tag_73:\n      tag_96\n      tag_311\n      jump\t// in\n        /* \"contracts/worksystems/Parameters.sol\":7059:8795  function updateSpottingParameters(uint256 ParameterIndex, uint256 uintValue, bool boolValue) public onlyOwner {        \r... */\n    tag_74:\n      tag_165\n      tag_314\n      calldatasize\n      0x04\n      tag_315\n      jump\t// in\n    tag_314:\n      tag_316\n      jump\t// in\n        /* \"contracts/worksystems/Parameters.sol\":14026:14134  function get_FORMAT_MIN_REP_Data() public view returns(uint256){\r... */\n    tag_75:\n      tag_96\n      tag_318\n      jump\t// in\n        /* \"@openzeppelin/contracts/access/Ownable.sol\":1918:2116  function transferOwnership(address newOwner) public virtual onlyOwner {... */\n    tag_76:\n      tag_165\n      tag_321\n      calldatasize\n      0x04\n      tag_322\n      jump\t// in\n    tag_321:\n      tag_323\n      jump\t// in\n        /* \"contracts/worksystems/Parameters.sol\":812:863  uint256 public SPOT_MIN_CONSENSUS_WORKER_COUNT  = 2 */\n    tag_77:\n      tag_96\n      tag_325\n      jump\t// in\n        /* \"contracts/worksystems/Parameters.sol\":2211:2231  address public token */\n    tag_78:\n      tag_103\n      tag_328\n      jump\t// in\n        /* \"contracts/worksystems/Parameters.sol\":1046:1098  uint256 public SPOT_MIN_REWARD_Data = 2 * (10 ** 18) */\n    tag_79:\n      tag_96\n      tag_331\n      jump\t// in\n        /* \"contracts/worksystems/Parameters.sol\":11166:11264  function get_SPOT_MIN_STAKE() public view returns(uint256){\r... */\n    tag_80:\n      tag_96\n      tag_334\n      jump\t// in\n        /* \"contracts/worksystems/Parameters.sol\":757:804  uint256 public SPOT_MIN_STAKE = 25 * (10 ** 18) */\n    tag_97:\n      sload(0x06)\n      dup2\n      jump\t// out\n        /* \"contracts/worksystems/Parameters.sol\":13774:13900  function get_FORMAT_REVEAL_ROUND_DURATION() public view returns(uint256){\r... */\n    tag_101:\n        /* \"contracts/worksystems/Parameters.sol\":13864:13892  FORMAT_REVEAL_ROUND_DURATION */\n      sload(0x1a)\n        /* \"contracts/worksystems/Parameters.sol\":13774:13900  function get_FORMAT_REVEAL_ROUND_DURATION() public view returns(uint256){\r... */\n      swap1\n      jump\t// out\n        /* \"contracts/worksystems/Parameters.sol\":10488:10583  function getRewardManager() public view returns(address){\r... */\n    tag_104:\n        /* \"contracts/worksystems/Parameters.sol\":10562:10575  RewardManager */\n      and(sub(shl(0xa0, 0x01), 0x01), sload(0x20))\n        /* \"contracts/worksystems/Parameters.sol\":10488:10583  function getRewardManager() public view returns(address){\r... */\n      swap1\n      jump\t// out\n        /* \"contracts/worksystems/Parameters.sol\":10393:10482  function getRepManager() public view returns(address){\r... */\n    tag_108:\n        /* \"contracts/worksystems/Parameters.sol\":10464:10474  RepManager */\n      and(sub(shl(0xa0, 0x01), 0x01), sload(0x1f))\n        /* \"contracts/worksystems/Parameters.sol\":10393:10482  function getRepManager() public view returns(address){\r... */\n      swap1\n      jump\t// out\n        /* \"contracts/worksystems/Parameters.sol\":12921:13057  function get_NOVOTE_REGISTRATION_WAIT_DURATION() public view returns(uint256){\r... */\n    tag_111:\n        /* \"contracts/worksystems/Parameters.sol\":13016:13049  NOVOTE_REGISTRATION_WAIT_DURATION */\n      sload(0x14)\n        /* \"contracts/worksystems/Parameters.sol\":12921:13057  function get_NOVOTE_REGISTRATION_WAIT_DURATION() public view returns(uint256){\r... */\n      swap1\n      jump\t// out\n        /* \"contracts/worksystems/Parameters.sol\":12279:12395  function get_SPOT_TIMEFRAME_DURATION() public view returns(uint256){\r... */\n    tag_114:\n        /* \"contracts/worksystems/Parameters.sol\":12364:12387  SPOT_TIMEFRAME_DURATION */\n      sload(0x0f)\n        /* \"contracts/worksystems/Parameters.sol\":12279:12395  function get_SPOT_TIMEFRAME_DURATION() public view returns(uint256){\r... */\n      swap1\n      jump\t// out\n        /* \"contracts/worksystems/Parameters.sol\":2119:2172  uint256 public FORMAT_MIN_REP_Data  = 50 * (10 ** 18) */\n    tag_117:\n      sload(0x1c)\n      dup2\n      jump\t// out\n        /* \"contracts/worksystems/Parameters.sol\":13358:13494  function get_FORMAT_MIN_CONSENSUS_WORKER_COUNT() public view returns(uint256){\r... */\n    tag_120:\n        /* \"contracts/worksystems/Parameters.sol\":13453:13486  FORMAT_MIN_CONSENSUS_WORKER_COUNT */\n      sload(0x16)\n        /* \"contracts/worksystems/Parameters.sol\":13358:13494  function get_FORMAT_MIN_CONSENSUS_WORKER_COUNT() public view returns(uint256){\r... */\n      swap1\n      jump\t// out\n        /* \"contracts/worksystems/Parameters.sol\":985:1032  uint256 public SPOT_REVEAL_ROUND_DURATION = 180 */\n    tag_123:\n      sload(0x0a)\n      dup2\n      jump\t// out\n        /* \"contracts/worksystems/Parameters.sol\":13250:13352  function get_FORMAT_MIN_STAKE() public view returns(uint256){\r... */\n    tag_126:\n        /* \"contracts/worksystems/Parameters.sol\":13328:13344  FORMAT_MIN_STAKE */\n      sload(0x18)\n        /* \"contracts/worksystems/Parameters.sol\":13250:13352  function get_FORMAT_MIN_STAKE() public view returns(uint256){\r... */\n      swap1\n      jump\t// out\n        /* \"contracts/worksystems/Parameters.sol\":2272:2297  address public RepManager */\n    tag_129:\n      and(sub(shl(0xa0, 0x01), 0x01), sload(0x1f))\n      dup2\n      jump\t// out\n        /* \"contracts/worksystems/Parameters.sol\":11912:12022  function get_SPOT_MIN_REWARD_Data() public view returns(uint256){\r... */\n    tag_132:\n        /* \"contracts/worksystems/Parameters.sol\":11994:12014  SPOT_MIN_REWARD_Data */\n      sload(0x0b)\n        /* \"contracts/worksystems/Parameters.sol\":11912:12022  function get_SPOT_MIN_REWARD_Data() public view returns(uint256){\r... */\n      swap1\n      jump\t// out\n        /* \"contracts/worksystems/Parameters.sol\":1887:1936  uint256 public FORMAT_MIN_STAKE = 25 * (10 ** 18) */\n    tag_135:\n      sload(0x18)\n      dup2\n      jump\t// out\n        /* \"contracts/worksystems/Parameters.sol\":10894:10979  function getExordeToken() public view returns(address){\r... */\n    tag_138:\n        /* \"contracts/worksystems/Parameters.sol\":10966:10971  token */\n      and(sub(shl(0xa0, 0x01), 0x01), sload(0x1d))\n        /* \"contracts/worksystems/Parameters.sol\":10894:10979  function getExordeToken() public view returns(address){\r... */\n      swap1\n      jump\t// out\n        /* \"contracts/worksystems/Parameters.sol\":11546:11668  function get_SPOT_COMMIT_ROUND_DURATION() public view returns(uint256){\r... */\n    tag_141:\n        /* \"contracts/worksystems/Parameters.sol\":11634:11660  SPOT_COMMIT_ROUND_DURATION */\n      sload(0x09)\n        /* \"contracts/worksystems/Parameters.sol\":11546:11668  function get_SPOT_COMMIT_ROUND_DURATION() public view returns(uint256){\r... */\n      swap1\n      jump\t// out\n        /* \"contracts/worksystems/Parameters.sol\":1251:1289  bool public SPOT_TOGGLE_ENABLED = true */\n    tag_144:\n      and(0xff, sload(0x0e))\n      dup2\n      jump\t// out\n        /* \"contracts/worksystems/Parameters.sol\":599:651  uint256 public MAX_CONTRACT_STORED_BATCHES  = 200000 */\n    tag_148:\n      sload(0x04)\n      dup2\n      jump\t// out\n        /* \"contracts/worksystems/Parameters.sol\":12164:12269  function get_SPOT_TOGGLE_ENABLED() public view returns(bool){\r... */\n    tag_151:\n        /* \"contracts/worksystems/Parameters.sol\":12242:12261  SPOT_TOGGLE_ENABLED */\n      and(0xff, sload(0x0e))\n        /* \"contracts/worksystems/Parameters.sol\":12164:12269  function get_SPOT_TOGGLE_ENABLED() public view returns(bool){\r... */\n      swap1\n      jump\t// out\n        /* \"contracts/worksystems/Parameters.sol\":2304:2332  address public RewardManager */\n    tag_154:\n      and(sub(shl(0xa0, 0x01), 0x01), sload(0x20))\n      dup2\n      jump\t// out\n        /* \"contracts/worksystems/Parameters.sol\":1763:1816  uint256 public FORMAT_MIN_CONSENSUS_WORKER_COUNT  = 2 */\n    tag_157:\n      sload(0x16)\n      dup2\n      jump\t// out\n        /* \"contracts/worksystems/Parameters.sol\":10803:10888  function getsFuelSystem() public view returns(address){\r... */\n    tag_160:\n        /* \"contracts/worksystems/Parameters.sol\":10875:10880  sFuel */\n      and(sub(shl(0xa0, 0x01), 0x01), sload(0x24))\n        /* \"contracts/worksystems/Parameters.sol\":10803:10888  function getsFuelSystem() public view returns(address){\r... */\n      swap1\n      jump\t// out\n        /* \"contracts/worksystems/Parameters.sol\":13130:13244  function get_FORMAT_DATA_BATCH_SIZE() public view returns(uint256){\r... */\n    tag_163:\n        /* \"contracts/worksystems/Parameters.sol\":13214:13236  FORMAT_DATA_BATCH_SIZE */\n      sload(0x15)\n        /* \"contracts/worksystems/Parameters.sol\":13130:13244  function get_FORMAT_DATA_BATCH_SIZE() public view returns(uint256){\r... */\n      swap1\n      jump\t// out\n        /* \"contracts/worksystems/Parameters.sol\":6016:7039  function updateContractsAddresses(address StakeManager_, address RepManager_, address RewardManager_, address AddressManager_,\r... */\n    tag_168:\n        /* \"@openzeppelin/contracts/access/Ownable.sol\":1259:1271  _msgSender() */\n      tag_350\n        /* \"@openzeppelin/contracts/access/Ownable.sol\":1259:1269  _msgSender */\n      tag_351\n        /* \"@openzeppelin/contracts/access/Ownable.sol\":1259:1271  _msgSender() */\n      jump\t// in\n    tag_350:\n      sub(shl(0xa0, 0x01), 0x01)\n        /* \"@openzeppelin/contracts/access/Ownable.sol\":1248:1271  owner() == _msgSender() */\n      and\n        /* \"@openzeppelin/contracts/access/Ownable.sol\":1248:1255  owner() */\n      tag_352\n        /* \"@openzeppelin/contracts/access/Ownable.sol\":1248:1253  owner */\n      tag_209\n        /* \"@openzeppelin/contracts/access/Ownable.sol\":1248:1255  owner() */\n      jump\t// in\n    tag_352:\n      sub(shl(0xa0, 0x01), 0x01)\n        /* \"@openzeppelin/contracts/access/Ownable.sol\":1248:1271  owner() == _msgSender() */\n      and\n      eq\n        /* \"@openzeppelin/contracts/access/Ownable.sol\":1240:1308  require(owner() == _msgSender(), \"Ownable: caller is not the owner\") */\n      tag_353\n      jumpi\n      mload(0x40)\n      shl(0xe5, 0x461bcd)\n      dup2\n      mstore\n      0x04\n      add\n      tag_354\n      swap1\n      tag_355\n      jump\t// in\n    tag_354:\n      mload(0x40)\n      dup1\n      swap2\n      sub\n      swap1\n      revert\n    tag_353:\n      sub(shl(0xa0, 0x01), 0x01)\n        /* \"contracts/worksystems/Parameters.sol\":6298:6325  StakeManager_ != address(0) */\n      dup9\n      and\n      iszero\n        /* \"contracts/worksystems/Parameters.sol\":6295:6381  if(StakeManager_ != address(0)){\r... */\n      tag_357\n      jumpi\n        /* \"contracts/worksystems/Parameters.sol\":6341:6353  StakeManager */\n      0x1e\n        /* \"contracts/worksystems/Parameters.sol\":6341:6369  StakeManager = StakeManager_ */\n      dup1\n      sload\n      not(sub(shl(0xa0, 0x01), 0x01))\n      and\n      sub(shl(0xa0, 0x01), 0x01)\n      dup11\n      and\n      or\n      swap1\n      sstore\n        /* \"contracts/worksystems/Parameters.sol\":6295:6381  if(StakeManager_ != address(0)){\r... */\n    tag_357:\n      sub(shl(0xa0, 0x01), 0x01)\n        /* \"contracts/worksystems/Parameters.sol\":6394:6419  RepManager_ != address(0) */\n      dup8\n      and\n      iszero\n        /* \"contracts/worksystems/Parameters.sol\":6391:6471  if(RepManager_ != address(0)){\r... */\n      tag_358\n      jumpi\n        /* \"contracts/worksystems/Parameters.sol\":6435:6445  RepManager */\n      0x1f\n        /* \"contracts/worksystems/Parameters.sol\":6435:6459  RepManager = RepManager_ */\n      dup1\n      sload\n      not(sub(shl(0xa0, 0x01), 0x01))\n      and\n      sub(shl(0xa0, 0x01), 0x01)\n      dup10\n      and\n      or\n      swap1\n      sstore\n        /* \"contracts/worksystems/Parameters.sol\":6391:6471  if(RepManager_ != address(0)){\r... */\n    tag_358:\n      sub(shl(0xa0, 0x01), 0x01)\n        /* \"contracts/worksystems/Parameters.sol\":6484:6512  RewardManager_ != address(0) */\n      dup7\n      and\n      iszero\n        /* \"contracts/worksystems/Parameters.sol\":6481:6570  if(RewardManager_ != address(0)){\r... */\n      tag_359\n      jumpi\n        /* \"contracts/worksystems/Parameters.sol\":6528:6541  RewardManager */\n      0x20\n        /* \"contracts/worksystems/Parameters.sol\":6528:6558  RewardManager = RewardManager_ */\n      dup1\n      sload\n      not(sub(shl(0xa0, 0x01), 0x01))\n      and\n      sub(shl(0xa0, 0x01), 0x01)\n      dup9\n      and\n      or\n      swap1\n      sstore\n        /* \"contracts/worksystems/Parameters.sol\":6481:6570  if(RewardManager_ != address(0)){\r... */\n    tag_359:\n      sub(shl(0xa0, 0x01), 0x01)\n        /* \"contracts/worksystems/Parameters.sol\":6583:6612  AddressManager_ != address(0) */\n      dup6\n      and\n      iszero\n        /* \"contracts/worksystems/Parameters.sol\":6580:6672  if(AddressManager_ != address(0)){\r... */\n      tag_360\n      jumpi\n        /* \"contracts/worksystems/Parameters.sol\":6628:6642  AddressManager */\n      0x21\n        /* \"contracts/worksystems/Parameters.sol\":6628:6660  AddressManager = AddressManager_ */\n      dup1\n      sload\n      not(sub(shl(0xa0, 0x01), 0x01))\n      and\n      sub(shl(0xa0, 0x01), 0x01)\n      dup8\n      and\n      or\n      swap1\n      sstore\n        /* \"contracts/worksystems/Parameters.sol\":6580:6672  if(AddressManager_ != address(0)){\r... */\n    tag_360:\n      sub(shl(0xa0, 0x01), 0x01)\n        /* \"contracts/worksystems/Parameters.sol\":6685:6714  SpottingSystem_ != address(0) */\n      dup5\n      and\n      iszero\n        /* \"contracts/worksystems/Parameters.sol\":6682:6774  if(SpottingSystem_ != address(0)){\r... */\n      tag_361\n      jumpi\n        /* \"contracts/worksystems/Parameters.sol\":6730:6744  SpottingSystem */\n      0x22\n        /* \"contracts/worksystems/Parameters.sol\":6730:6762  SpottingSystem = SpottingSystem_ */\n      dup1\n      sload\n      not(sub(shl(0xa0, 0x01), 0x01))\n      and\n      sub(shl(0xa0, 0x01), 0x01)\n      dup7\n      and\n      or\n      swap1\n      sstore\n        /* \"contracts/worksystems/Parameters.sol\":6682:6774  if(SpottingSystem_ != address(0)){\r... */\n    tag_361:\n      sub(shl(0xa0, 0x01), 0x01)\n        /* \"contracts/worksystems/Parameters.sol\":6787:6818  FormattingSystem_ != address(0) */\n      dup4\n      and\n      iszero\n        /* \"contracts/worksystems/Parameters.sol\":6784:6882  if(FormattingSystem_ != address(0)){\r... */\n      tag_362\n      jumpi\n        /* \"contracts/worksystems/Parameters.sol\":6834:6850  FormattingSystem */\n      0x23\n        /* \"contracts/worksystems/Parameters.sol\":6834:6870  FormattingSystem = FormattingSystem_ */\n      dup1\n      sload\n      not(sub(shl(0xa0, 0x01), 0x01))\n      and\n      sub(shl(0xa0, 0x01), 0x01)\n      dup6\n      and\n      or\n      swap1\n      sstore\n        /* \"contracts/worksystems/Parameters.sol\":6784:6882  if(FormattingSystem_ != address(0)){\r... */\n    tag_362:\n      sub(shl(0xa0, 0x01), 0x01)\n        /* \"contracts/worksystems/Parameters.sol\":6895:6915  sFuel_ != address(0) */\n      dup3\n      and\n      iszero\n        /* \"contracts/worksystems/Parameters.sol\":6892:6957  if(sFuel_ != address(0)){\r... */\n      tag_363\n      jumpi\n        /* \"contracts/worksystems/Parameters.sol\":6931:6936  sFuel */\n      0x24\n        /* \"contracts/worksystems/Parameters.sol\":6931:6945  sFuel = sFuel_ */\n      dup1\n      sload\n      not(sub(shl(0xa0, 0x01), 0x01))\n      and\n      sub(shl(0xa0, 0x01), 0x01)\n      dup5\n      and\n      or\n      swap1\n      sstore\n        /* \"contracts/worksystems/Parameters.sol\":6892:6957  if(sFuel_ != address(0)){\r... */\n    tag_363:\n      sub(shl(0xa0, 0x01), 0x01)\n        /* \"contracts/worksystems/Parameters.sol\":6970:6990  token_ != address(0) */\n      dup2\n      and\n      iszero\n        /* \"contracts/worksystems/Parameters.sol\":6967:7032  if(token_ != address(0)){\r... */\n      tag_364\n      jumpi\n        /* \"contracts/worksystems/Parameters.sol\":7006:7011  token */\n      0x1d\n        /* \"contracts/worksystems/Parameters.sol\":7006:7020  token = token_ */\n      dup1\n      sload\n      not(sub(shl(0xa0, 0x01), 0x01))\n      and\n      sub(shl(0xa0, 0x01), 0x01)\n      dup4\n      and\n      or\n      swap1\n      sstore\n        /* \"contracts/worksystems/Parameters.sol\":6967:7032  if(token_ != address(0)){\r... */\n    tag_364:\n        /* \"contracts/worksystems/Parameters.sol\":6016:7039  function updateContractsAddresses(address StakeManager_, address RepManager_, address RewardManager_, address AddressManager_,\r... */\n      pop\n      pop\n      pop\n      pop\n      pop\n      pop\n      pop\n      pop\n      jump\t// out\n        /* \"contracts/worksystems/Parameters.sol\":5530:6006  function updateGeneralParameters(uint256 ParameterIndex, uint256 uintValue) public onlyOwner {        \r... */\n    tag_172:\n        /* \"@openzeppelin/contracts/access/Ownable.sol\":1259:1271  _msgSender() */\n      tag_366\n        /* \"@openzeppelin/contracts/access/Ownable.sol\":1259:1269  _msgSender */\n      tag_351\n        /* \"@openzeppelin/contracts/access/Ownable.sol\":1259:1271  _msgSender() */\n      jump\t// in\n    tag_366:\n      sub(shl(0xa0, 0x01), 0x01)\n        /* \"@openzeppelin/contracts/access/Ownable.sol\":1248:1271  owner() == _msgSender() */\n      and\n        /* \"@openzeppelin/contracts/access/Ownable.sol\":1248:1255  owner() */\n      tag_367\n        /* \"@openzeppelin/contracts/access/Ownable.sol\":1248:1253  owner */\n      tag_209\n        /* \"@openzeppelin/contracts/access/Ownable.sol\":1248:1255  owner() */\n      jump\t// in\n    tag_367:\n      sub(shl(0xa0, 0x01), 0x01)\n        /* \"@openzeppelin/contracts/access/Ownable.sol\":1248:1271  owner() == _msgSender() */\n      and\n      eq\n        /* \"@openzeppelin/contracts/access/Ownable.sol\":1240:1308  require(owner() == _msgSender(), \"Ownable: caller is not the owner\") */\n      tag_368\n      jumpi\n      mload(0x40)\n      shl(0xe5, 0x461bcd)\n      dup2\n      mstore\n      0x04\n      add\n      tag_354\n      swap1\n      tag_355\n      jump\t// in\n    tag_368:\n        /* \"contracts/worksystems/Parameters.sol\":5645:5659  ParameterIndex */\n      dup2\n        /* \"contracts/worksystems/Parameters.sol\":5663:5664  1 */\n      0x01\n        /* \"contracts/worksystems/Parameters.sol\":5645:5664  ParameterIndex == 1 */\n      eq\n        /* \"contracts/worksystems/Parameters.sol\":5642:5721  if(ParameterIndex == 1){\r... */\n      iszero\n      tag_371\n      jumpi\n        /* \"contracts/worksystems/Parameters.sol\":5680:5697  MAX_TOTAL_WORKERS */\n      0x01\n        /* \"contracts/worksystems/Parameters.sol\":5680:5709  MAX_TOTAL_WORKERS = uintValue */\n      dup2\n      swap1\n      sstore\n        /* \"contracts/worksystems/Parameters.sol\":5642:5721  if(ParameterIndex == 1){\r... */\n    tag_371:\n        /* \"contracts/worksystems/Parameters.sol\":5734:5748  ParameterIndex */\n      dup2\n        /* \"contracts/worksystems/Parameters.sol\":5752:5753  2 */\n      0x02\n        /* \"contracts/worksystems/Parameters.sol\":5734:5753  ParameterIndex == 2 */\n      eq\n        /* \"contracts/worksystems/Parameters.sol\":5731:5805  if(ParameterIndex == 2){\r... */\n      iszero\n      tag_372\n      jumpi\n        /* \"contracts/worksystems/Parameters.sol\":5769:5780  VOTE_QUORUM */\n      0x02\n        /* \"contracts/worksystems/Parameters.sol\":5769:5793  VOTE_QUORUM  = uintValue */\n      dup2\n      swap1\n      sstore\n        /* \"contracts/worksystems/Parameters.sol\":5731:5805  if(ParameterIndex == 2){\r... */\n    tag_372:\n        /* \"contracts/worksystems/Parameters.sol\":5818:5832  ParameterIndex */\n      dup2\n        /* \"contracts/worksystems/Parameters.sol\":5836:5837  3 */\n      0x03\n        /* \"contracts/worksystems/Parameters.sol\":5818:5837  ParameterIndex == 3 */\n      eq\n        /* \"contracts/worksystems/Parameters.sol\":5815:5899  if(ParameterIndex == 3){\r... */\n      iszero\n      tag_373\n      jumpi\n        /* \"contracts/worksystems/Parameters.sol\":5853:5874  MAX_UPDATE_ITERATIONS */\n      0x03\n        /* \"contracts/worksystems/Parameters.sol\":5853:5887  MAX_UPDATE_ITERATIONS  = uintValue */\n      dup2\n      swap1\n      sstore\n        /* \"contracts/worksystems/Parameters.sol\":5815:5899  if(ParameterIndex == 3){\r... */\n    tag_373:\n        /* \"contracts/worksystems/Parameters.sol\":5912:5926  ParameterIndex */\n      dup2\n        /* \"contracts/worksystems/Parameters.sol\":5930:5931  4 */\n      0x04\n        /* \"contracts/worksystems/Parameters.sol\":5912:5931  ParameterIndex == 4 */\n      eq\n        /* \"contracts/worksystems/Parameters.sol\":5909:5999  if(ParameterIndex == 4){\r... */\n      iszero\n      tag_374\n      jumpi\n        /* \"contracts/worksystems/Parameters.sol\":5947:5974  MAX_CONTRACT_STORED_BATCHES */\n      0x04\n        /* \"contracts/worksystems/Parameters.sol\":5947:5987  MAX_CONTRACT_STORED_BATCHES  = uintValue */\n      dup2\n      swap1\n      sstore\n        /* \"contracts/worksystems/Parameters.sol\":5909:5999  if(ParameterIndex == 4){\r... */\n    tag_374:\n        /* \"contracts/worksystems/Parameters.sol\":5530:6006  function updateGeneralParameters(uint256 ParameterIndex, uint256 uintValue) public onlyOwner {        \r... */\n      pop\n      pop\n      jump\t// out\n        /* \"contracts/worksystems/Parameters.sol\":2000:2049  uint256 public FORMAT_REVEAL_ROUND_DURATION = 180 */\n    tag_174:\n      sload(0x1a)\n      dup2\n      jump\t// out\n        /* \"contracts/worksystems/Parameters.sol\":10696:10797  function getFormattingSystem() public view returns(address){\r... */\n    tag_177:\n        /* \"contracts/worksystems/Parameters.sol\":10773:10789  FormattingSystem */\n      and(sub(shl(0xa0, 0x01), 0x01), sload(0x23))\n        /* \"contracts/worksystems/Parameters.sol\":10696:10797  function getFormattingSystem() public view returns(address){\r... */\n      swap1\n      jump\t// out\n        /* \"contracts/worksystems/Parameters.sol\":8805:9701  function updateFormattingParameters(uint256 ParameterIndex, uint256 uintValue) public onlyOwner {        \r... */\n    tag_181:\n        /* \"@openzeppelin/contracts/access/Ownable.sol\":1259:1271  _msgSender() */\n      tag_377\n        /* \"@openzeppelin/contracts/access/Ownable.sol\":1259:1269  _msgSender */\n      tag_351\n        /* \"@openzeppelin/contracts/access/Ownable.sol\":1259:1271  _msgSender() */\n      jump\t// in\n    tag_377:\n      sub(shl(0xa0, 0x01), 0x01)\n        /* \"@openzeppelin/contracts/access/Ownable.sol\":1248:1271  owner() == _msgSender() */\n      and\n        /* \"@openzeppelin/contracts/access/Ownable.sol\":1248:1255  owner() */\n      tag_378\n        /* \"@openzeppelin/contracts/access/Ownable.sol\":1248:1253  owner */\n      tag_209\n        /* \"@openzeppelin/contracts/access/Ownable.sol\":1248:1255  owner() */\n      jump\t// in\n    tag_378:\n      sub(shl(0xa0, 0x01), 0x01)\n        /* \"@openzeppelin/contracts/access/Ownable.sol\":1248:1271  owner() == _msgSender() */\n      and\n      eq\n        /* \"@openzeppelin/contracts/access/Ownable.sol\":1240:1308  require(owner() == _msgSender(), \"Ownable: caller is not the owner\") */\n      tag_379\n      jumpi\n      mload(0x40)\n      shl(0xe5, 0x461bcd)\n      dup2\n      mstore\n      0x04\n      add\n      tag_354\n      swap1\n      tag_355\n      jump\t// in\n    tag_379:\n        /* \"contracts/worksystems/Parameters.sol\":8923:8937  ParameterIndex */\n      dup2\n        /* \"contracts/worksystems/Parameters.sol\":8941:8942  1 */\n      0x01\n        /* \"contracts/worksystems/Parameters.sol\":8923:8942  ParameterIndex == 1 */\n      eq\n        /* \"contracts/worksystems/Parameters.sol\":8920:9004  if(ParameterIndex == 1){\r... */\n      iszero\n      tag_382\n      jumpi\n        /* \"contracts/worksystems/Parameters.sol\":8958:8980  FORMAT_DATA_BATCH_SIZE */\n      0x15\n        /* \"contracts/worksystems/Parameters.sol\":8958:8992  FORMAT_DATA_BATCH_SIZE = uintValue */\n      dup2\n      swap1\n      sstore\n        /* \"contracts/worksystems/Parameters.sol\":8920:9004  if(ParameterIndex == 1){\r... */\n    tag_382:\n        /* \"contracts/worksystems/Parameters.sol\":9017:9031  ParameterIndex */\n      dup2\n        /* \"contracts/worksystems/Parameters.sol\":9035:9036  2 */\n      0x02\n        /* \"contracts/worksystems/Parameters.sol\":9017:9036  ParameterIndex == 2 */\n      eq\n        /* \"contracts/worksystems/Parameters.sol\":9014:9093  if(ParameterIndex == 2){\r... */\n      iszero\n      tag_383\n      jumpi\n        /* \"contracts/worksystems/Parameters.sol\":9052:9068  FORMAT_MIN_STAKE */\n      0x18\n        /* \"contracts/worksystems/Parameters.sol\":9052:9081  FORMAT_MIN_STAKE  = uintValue */\n      dup2\n      swap1\n      sstore\n        /* \"contracts/worksystems/Parameters.sol\":9014:9093  if(ParameterIndex == 2){\r... */\n    tag_383:\n        /* \"contracts/worksystems/Parameters.sol\":9106:9120  ParameterIndex */\n      dup2\n        /* \"contracts/worksystems/Parameters.sol\":9124:9125  3 */\n      0x03\n        /* \"contracts/worksystems/Parameters.sol\":9106:9125  ParameterIndex == 3 */\n      eq\n        /* \"contracts/worksystems/Parameters.sol\":9103:9199  if(ParameterIndex == 3){\r... */\n      iszero\n      tag_384\n      jumpi\n        /* \"contracts/worksystems/Parameters.sol\":9141:9174  FORMAT_MIN_CONSENSUS_WORKER_COUNT */\n      0x16\n        /* \"contracts/worksystems/Parameters.sol\":9141:9187  FORMAT_MIN_CONSENSUS_WORKER_COUNT  = uintValue */\n      dup2\n      swap1\n      sstore\n        /* \"contracts/worksystems/Parameters.sol\":9103:9199  if(ParameterIndex == 3){\r... */\n    tag_384:\n        /* \"contracts/worksystems/Parameters.sol\":9212:9226  ParameterIndex */\n      dup2\n        /* \"contracts/worksystems/Parameters.sol\":9230:9231  4 */\n      0x04\n        /* \"contracts/worksystems/Parameters.sol\":9212:9231  ParameterIndex == 4 */\n      eq\n        /* \"contracts/worksystems/Parameters.sol\":9209:9305  if(ParameterIndex == 4){\r... */\n      iszero\n      tag_385\n      jumpi\n        /* \"contracts/worksystems/Parameters.sol\":9247:9280  FORMAT_MAX_CONSENSUS_WORKER_COUNT */\n      0x17\n        /* \"contracts/worksystems/Parameters.sol\":9247:9293  FORMAT_MAX_CONSENSUS_WORKER_COUNT  = uintValue */\n      dup2\n      swap1\n      sstore\n        /* \"contracts/worksystems/Parameters.sol\":9209:9305  if(ParameterIndex == 4){\r... */\n    tag_385:\n        /* \"contracts/worksystems/Parameters.sol\":9318:9332  ParameterIndex */\n      dup2\n        /* \"contracts/worksystems/Parameters.sol\":9336:9337  5 */\n      0x05\n        /* \"contracts/worksystems/Parameters.sol\":9318:9337  ParameterIndex == 5 */\n      eq\n        /* \"contracts/worksystems/Parameters.sol\":9315:9406  if(ParameterIndex == 5){\r... */\n      iszero\n      tag_386\n      jumpi\n        /* \"contracts/worksystems/Parameters.sol\":9353:9381  FORMAT_COMMIT_ROUND_DURATION */\n      0x19\n        /* \"contracts/worksystems/Parameters.sol\":9353:9394  FORMAT_COMMIT_ROUND_DURATION  = uintValue */\n      dup2\n      swap1\n      sstore\n        /* \"contracts/worksystems/Parameters.sol\":9315:9406  if(ParameterIndex == 5){\r... */\n    tag_386:\n        /* \"contracts/worksystems/Parameters.sol\":9419:9433  ParameterIndex */\n      dup2\n        /* \"contracts/worksystems/Parameters.sol\":9437:9438  6 */\n      0x06\n        /* \"contracts/worksystems/Parameters.sol\":9419:9438  ParameterIndex == 6 */\n      eq\n        /* \"contracts/worksystems/Parameters.sol\":9416:9507  if(ParameterIndex == 6){\r... */\n      iszero\n      tag_387\n      jumpi\n        /* \"contracts/worksystems/Parameters.sol\":9454:9482  FORMAT_REVEAL_ROUND_DURATION */\n      0x1a\n        /* \"contracts/worksystems/Parameters.sol\":9454:9495  FORMAT_REVEAL_ROUND_DURATION  = uintValue */\n      dup2\n      swap1\n      sstore\n        /* \"contracts/worksystems/Parameters.sol\":9416:9507  if(ParameterIndex == 6){\r... */\n    tag_387:\n        /* \"contracts/worksystems/Parameters.sol\":9520:9534  ParameterIndex */\n      dup2\n        /* \"contracts/worksystems/Parameters.sol\":9538:9539  7 */\n      0x07\n        /* \"contracts/worksystems/Parameters.sol\":9520:9539  ParameterIndex == 7 */\n      eq\n        /* \"contracts/worksystems/Parameters.sol\":9517:9602  if(ParameterIndex == 7){\r... */\n      iszero\n      tag_388\n      jumpi\n        /* \"contracts/worksystems/Parameters.sol\":9555:9577  FORMAT_MIN_REWARD_Data */\n      0x1b\n        /* \"contracts/worksystems/Parameters.sol\":9555:9590  FORMAT_MIN_REWARD_Data  = uintValue */\n      dup2\n      swap1\n      sstore\n        /* \"contracts/worksystems/Parameters.sol\":9517:9602  if(ParameterIndex == 7){\r... */\n    tag_388:\n        /* \"contracts/worksystems/Parameters.sol\":9615:9629  ParameterIndex */\n      dup2\n        /* \"contracts/worksystems/Parameters.sol\":9633:9634  8 */\n      0x08\n        /* \"contracts/worksystems/Parameters.sol\":9615:9634  ParameterIndex == 8 */\n      eq\n        /* \"contracts/worksystems/Parameters.sol\":9612:9694  if(ParameterIndex == 8){\r... */\n      iszero\n      tag_374\n      jumpi\n        /* \"contracts/worksystems/Parameters.sol\":9650:9669  FORMAT_MIN_REP_Data */\n      0x1c\n        /* \"contracts/worksystems/Parameters.sol\":9650:9682  FORMAT_MIN_REP_Data  = uintValue */\n      sstore\n      pop\n        /* \"contracts/worksystems/Parameters.sol\":8805:9701  function updateFormattingParameters(uint256 ParameterIndex, uint256 uintValue) public onlyOwner {        \r... */\n      jump\t// out\n        /* \"contracts/worksystems/Parameters.sol\":13500:13636  function get_FORMAT_MAX_CONSENSUS_WORKER_COUNT() public view returns(uint256){\r... */\n    tag_183:\n        /* \"contracts/worksystems/Parameters.sol\":13595:13628  FORMAT_MAX_CONSENSUS_WORKER_COUNT */\n      sload(0x17)\n        /* \"contracts/worksystems/Parameters.sol\":13500:13636  function get_FORMAT_MAX_CONSENSUS_WORKER_COUNT() public view returns(uint256){\r... */\n      swap1\n      jump\t// out\n        /* \"@openzeppelin/contracts/access/Ownable.sol\":1668:1769  function renounceOwnership() public virtual onlyOwner {... */\n    tag_186:\n        /* \"@openzeppelin/contracts/access/Ownable.sol\":1259:1271  _msgSender() */\n      tag_392\n        /* \"@openzeppelin/contracts/access/Ownable.sol\":1259:1269  _msgSender */\n      tag_351\n        /* \"@openzeppelin/contracts/access/Ownable.sol\":1259:1271  _msgSender() */\n      jump\t// in\n    tag_392:\n      sub(shl(0xa0, 0x01), 0x01)\n        /* \"@openzeppelin/contracts/access/Ownable.sol\":1248:1271  owner() == _msgSender() */\n      and\n        /* \"@openzeppelin/contracts/access/Ownable.sol\":1248:1255  owner() */\n      tag_393\n        /* \"@openzeppelin/contracts/access/Ownable.sol\":1248:1253  owner */\n      tag_209\n        /* \"@openzeppelin/contracts/access/Ownable.sol\":1248:1255  owner() */\n      jump\t// in\n    tag_393:\n      sub(shl(0xa0, 0x01), 0x01)\n        /* \"@openzeppelin/contracts/access/Ownable.sol\":1248:1271  owner() == _msgSender() */\n      and\n      eq\n        /* \"@openzeppelin/contracts/access/Ownable.sol\":1240:1308  require(owner() == _msgSender(), \"Ownable: caller is not the owner\") */\n      tag_394\n      jumpi\n      mload(0x40)\n      shl(0xe5, 0x461bcd)\n      dup2\n      mstore\n      0x04\n      add\n      tag_354\n      swap1\n      tag_355\n      jump\t// in\n    tag_394:\n        /* \"@openzeppelin/contracts/access/Ownable.sol\":1732:1762  _transferOwnership(address(0)) */\n      tag_397\n        /* \"@openzeppelin/contracts/access/Ownable.sol\":1759:1760  0 */\n      0x00\n        /* \"@openzeppelin/contracts/access/Ownable.sol\":1732:1750  _transferOwnership */\n      tag_398\n        /* \"@openzeppelin/contracts/access/Ownable.sol\":1732:1762  _transferOwnership(address(0)) */\n      jump\t// in\n    tag_397:\n        /* \"@openzeppelin/contracts/access/Ownable.sol\":1668:1769  function renounceOwnership() public virtual onlyOwner {... */\n      jump\t// out\n        /* \"contracts/worksystems/Parameters.sol\":11674:11796  function get_SPOT_REVEAL_ROUND_DURATION() public view returns(uint256){\r... */\n    tag_188:\n        /* \"contracts/worksystems/Parameters.sol\":11762:11788  SPOT_REVEAL_ROUND_DURATION */\n      sload(0x0a)\n        /* \"contracts/worksystems/Parameters.sol\":11674:11796  function get_SPOT_REVEAL_ROUND_DURATION() public view returns(uint256){\r... */\n      swap1\n      jump\t// out\n        /* \"contracts/worksystems/Parameters.sol\":13906:14020  function get_FORMAT_MIN_REWARD_Data() public view returns(uint256){\r... */\n    tag_191:\n        /* \"contracts/worksystems/Parameters.sol\":13990:14012  FORMAT_MIN_REWARD_Data */\n      sload(0x1b)\n        /* \"contracts/worksystems/Parameters.sol\":13906:14020  function get_FORMAT_MIN_REWARD_Data() public view returns(uint256){\r... */\n      swap1\n      jump\t// out\n        /* \"contracts/worksystems/Parameters.sol\":2339:2368  address public AddressManager */\n    tag_194:\n      and(sub(shl(0xa0, 0x01), 0x01), sload(0x21))\n      dup2\n      jump\t// out\n        /* \"contracts/worksystems/Parameters.sol\":9976:10088  function get_MAX_UPDATE_ITERATIONS() public view returns(uint256){\r... */\n    tag_197:\n        /* \"contracts/worksystems/Parameters.sol\":10059:10080  MAX_UPDATE_ITERATIONS */\n      sload(0x03)\n        /* \"contracts/worksystems/Parameters.sol\":9976:10088  function get_MAX_UPDATE_ITERATIONS() public view returns(uint256){\r... */\n      swap1\n      jump\t// out\n        /* \"contracts/worksystems/Parameters.sol\":2238:2265  address public StakeManager */\n    tag_200:\n      and(sub(shl(0xa0, 0x01), 0x01), sload(0x1e))\n      dup2\n      jump\t// out\n        /* \"contracts/worksystems/Parameters.sol\":1296:1343  uint256 public SPOT_TIMEFRAME_DURATION  = 15*60 */\n    tag_203:\n      sload(0x0f)\n      dup2\n      jump\t// out\n        /* \"contracts/worksystems/Parameters.sol\":2411:2442  address public FormattingSystem */\n    tag_206:\n      and(sub(shl(0xa0, 0x01), 0x01), sload(0x23))\n      dup2\n      jump\t// out\n        /* \"@openzeppelin/contracts/access/Ownable.sol\":1036:1121  function owner() public view virtual returns (address) {... */\n    tag_209:\n        /* \"@openzeppelin/contracts/access/Ownable.sol\":1082:1089  address */\n      0x00\n        /* \"@openzeppelin/contracts/access/Ownable.sol\":1108:1114  _owner */\n      sload\n      sub(shl(0xa0, 0x01), 0x01)\n      and\n        /* \"@openzeppelin/contracts/access/Ownable.sol\":1036:1121  function owner() public view virtual returns (address) {... */\n      swap1\n      jump\t// out\n        /* \"contracts/worksystems/Parameters.sol\":547:589  uint256 public MAX_UPDATE_ITERATIONS  = 50 */\n    tag_212:\n      sload(0x03)\n      dup2\n      jump\t// out\n        /* \"contracts/worksystems/Parameters.sol\":9773:9874  function getMaxTotalWorkers() public view returns(uint256){\r... */\n    tag_215:\n        /* \"contracts/worksystems/Parameters.sol\":9849:9866  MAX_TOTAL_WORKERS */\n      sload(0x01)\n        /* \"contracts/worksystems/Parameters.sol\":9773:9874  function getMaxTotalWorkers() public view returns(uint256){\r... */\n      swap1\n      jump\t// out\n        /* \"contracts/worksystems/Parameters.sol\":11050:11160  function get_SPOT_DATA_BATCH_SIZE() public view returns(uint256){\r... */\n    tag_218:\n        /* \"contracts/worksystems/Parameters.sol\":11132:11152  SPOT_DATA_BATCH_SIZE */\n      sload(0x05)\n        /* \"contracts/worksystems/Parameters.sol\":11050:11160  function get_SPOT_DATA_BATCH_SIZE() public view returns(uint256){\r... */\n      swap1\n      jump\t// out\n        /* \"contracts/worksystems/Parameters.sol\":12801:12915  function get_MAX_SUCCEEDING_NOVOTES() public view returns(uint256){\r... */\n    tag_221:\n        /* \"contracts/worksystems/Parameters.sol\":12885:12907  MAX_SUCCEEDING_NOVOTES */\n      sload(0x13)\n        /* \"contracts/worksystems/Parameters.sol\":12801:12915  function get_MAX_SUCCEEDING_NOVOTES() public view returns(uint256){\r... */\n      swap1\n      jump\t// out\n        /* \"contracts/worksystems/Parameters.sol\":13642:13768  function get_FORMAT_COMMIT_ROUND_DURATION() public view returns(uint256){\r... */\n    tag_224:\n        /* \"contracts/worksystems/Parameters.sol\":13732:13760  FORMAT_COMMIT_ROUND_DURATION */\n      sload(0x19)\n        /* \"contracts/worksystems/Parameters.sol\":13642:13768  function get_FORMAT_COMMIT_ROUND_DURATION() public view returns(uint256){\r... */\n      swap1\n      jump\t// out\n        /* \"contracts/worksystems/Parameters.sol\":459:498  uint256 public MAX_TOTAL_WORKERS = 1000 */\n    tag_227:\n      sload(0x01)\n      dup2\n      jump\t// out\n        /* \"contracts/worksystems/Parameters.sol\":873:924  uint256 public SPOT_MAX_CONSENSUS_WORKER_COUNT  = 4 */\n    tag_230:\n      sload(0x08)\n      dup2\n      jump\t// out\n        /* \"contracts/worksystems/Parameters.sol\":2449:2469  address public sFuel */\n    tag_233:\n      and(sub(shl(0xa0, 0x01), 0x01), sload(0x24))\n      dup2\n      jump\t// out\n        /* \"contracts/worksystems/Parameters.sol\":11802:11906  function get_SPOT_MIN_REP_Data() public view returns(uint256){\r... */\n    tag_236:\n        /* \"contracts/worksystems/Parameters.sol\":11881:11898  SPOT_MIN_REP_Data */\n      sload(0x0c)\n        /* \"contracts/worksystems/Parameters.sol\":11802:11906  function get_SPOT_MIN_REP_Data() public view returns(uint256){\r... */\n      swap1\n      jump\t// out\n        /* \"contracts/worksystems/Parameters.sol\":1944:1993  uint256 public FORMAT_COMMIT_ROUND_DURATION = 400 */\n    tag_239:\n      sload(0x19)\n      dup2\n      jump\t// out\n        /* \"contracts/worksystems/Parameters.sol\":12405:12537  function get_SPOT_GLOBAL_MAX_SPOT_PER_PERIOD() public view returns(uint256){\r... */\n    tag_242:\n        /* \"contracts/worksystems/Parameters.sol\":12498:12529  SPOT_GLOBAL_MAX_SPOT_PER_PERIOD */\n      sload(0x10)\n        /* \"contracts/worksystems/Parameters.sol\":12405:12537  function get_SPOT_GLOBAL_MAX_SPOT_PER_PERIOD() public view returns(uint256){\r... */\n      swap1\n      jump\t// out\n        /* \"contracts/worksystems/Parameters.sol\":10593:10690  function getSpottingSystem() public view returns(address){\r... */\n    tag_245:\n        /* \"contracts/worksystems/Parameters.sol\":10668:10682  SpottingSystem */\n      and(sub(shl(0xa0, 0x01), 0x01), sload(0x22))\n        /* \"contracts/worksystems/Parameters.sol\":10593:10690  function getSpottingSystem() public view returns(address){\r... */\n      swap1\n      jump\t// out\n        /* \"contracts/worksystems/Parameters.sol\":1105:1156  uint256 public SPOT_MIN_REP_Data  = 40 * (10 ** 18) */\n    tag_248:\n      sload(0x0c)\n      dup2\n      jump\t// out\n        /* \"contracts/worksystems/Parameters.sol\":1485:1522  uint256 public SPOT_NB_TIMEFRAMES = 4 */\n    tag_251:\n      sload(0x12)\n      dup2\n      jump\t// out\n        /* \"contracts/worksystems/Parameters.sol\":11270:11402  function get_SPOT_MIN_CONSENSUS_WORKER_COUNT() public view returns(uint256){\r... */\n    tag_254:\n        /* \"contracts/worksystems/Parameters.sol\":11363:11394  SPOT_MIN_CONSENSUS_WORKER_COUNT */\n      sload(0x07)\n        /* \"contracts/worksystems/Parameters.sol\":11270:11402  function get_SPOT_MIN_CONSENSUS_WORKER_COUNT() public view returns(uint256){\r... */\n      swap1\n      jump\t// out\n        /* \"contracts/worksystems/Parameters.sol\":12547:12683  function get_SPOT_MAX_SPOT_PER_USER_PER_PERIOD() public view returns(uint256){\r... */\n    tag_257:\n        /* \"contracts/worksystems/Parameters.sol\":12642:12675  SPOT_MAX_SPOT_PER_USER_PER_PERIOD */\n      sload(0x11)\n        /* \"contracts/worksystems/Parameters.sol\":12547:12683  function get_SPOT_MAX_SPOT_PER_USER_PER_PERIOD() public view returns(uint256){\r... */\n      swap1\n      jump\t// out\n        /* \"contracts/worksystems/Parameters.sol\":1424:1478  uint256 public SPOT_MAX_SPOT_PER_USER_PER_PERIOD  = 25 */\n    tag_260:\n      sload(0x11)\n      dup2\n      jump\t// out\n        /* \"contracts/worksystems/Parameters.sol\":12028:12158  function get_SPOT_INTER_ALLOCATION_DURATION() public view returns(uint256){\r... */\n    tag_263:\n        /* \"contracts/worksystems/Parameters.sol\":12120:12150  SPOT_INTER_ALLOCATION_DURATION */\n      sload(0x0d)\n        /* \"contracts/worksystems/Parameters.sol\":12028:12158  function get_SPOT_INTER_ALLOCATION_DURATION() public view returns(uint256){\r... */\n      swap1\n      jump\t// out\n        /* \"contracts/worksystems/Parameters.sol\":711:750  uint256 public SPOT_DATA_BATCH_SIZE = 1 */\n    tag_266:\n      sload(0x05)\n      dup2\n      jump\t// out\n        /* \"contracts/worksystems/Parameters.sol\":505:537  uint256 public VOTE_QUORUM  = 50 */\n    tag_269:\n      sload(0x02)\n      dup2\n      jump\t// out\n        /* \"contracts/worksystems/Parameters.sol\":10294:10387  function getStakeManager() public view returns(address){\r... */\n    tag_272:\n        /* \"contracts/worksystems/Parameters.sol\":10367:10379  StakeManager */\n      and(sub(shl(0xa0, 0x01), 0x01), sload(0x1e))\n        /* \"contracts/worksystems/Parameters.sol\":10294:10387  function getStakeManager() public view returns(address){\r... */\n      swap1\n      jump\t// out\n        /* \"contracts/worksystems/Parameters.sol\":2058:2112  uint256 public FORMAT_MIN_REWARD_Data = 3 * (10 ** 18) */\n    tag_275:\n      sload(0x1b)\n      dup2\n      jump\t// out\n        /* \"contracts/worksystems/Parameters.sol\":1582:1638  uint256 public NOVOTE_REGISTRATION_WAIT_DURATION  = 3600 */\n    tag_278:\n      sload(0x14)\n      dup2\n      jump\t// out\n        /* \"contracts/worksystems/Parameters.sol\":1529:1571  uint256 public MAX_SUCCEEDING_NOVOTES  = 3 */\n    tag_281:\n      sload(0x13)\n      dup2\n      jump\t// out\n        /* \"contracts/worksystems/Parameters.sol\":2375:2404  address public SpottingSystem */\n    tag_284:\n      and(sub(shl(0xa0, 0x01), 0x01), sload(0x22))\n      dup2\n      jump\t// out\n        /* \"contracts/worksystems/Parameters.sol\":11408:11540  function get_SPOT_MAX_CONSENSUS_WORKER_COUNT() public view returns(uint256){\r... */\n    tag_287:\n        /* \"contracts/worksystems/Parameters.sol\":11501:11532  SPOT_MAX_CONSENSUS_WORKER_COUNT */\n      sload(0x08)\n        /* \"contracts/worksystems/Parameters.sol\":11408:11540  function get_SPOT_MAX_CONSENSUS_WORKER_COUNT() public view returns(uint256){\r... */\n      swap1\n      jump\t// out\n        /* \"contracts/worksystems/Parameters.sol\":1363:1417  uint256 public SPOT_GLOBAL_MAX_SPOT_PER_PERIOD  = 1000 */\n    tag_290:\n      sload(0x10)\n      dup2\n      jump\t// out\n        /* \"contracts/worksystems/Parameters.sol\":1824:1877  uint256 public FORMAT_MAX_CONSENSUS_WORKER_COUNT  = 4 */\n    tag_293:\n      sload(0x17)\n      dup2\n      jump\t// out\n        /* \"contracts/worksystems/Parameters.sol\":10094:10218  function get_MAX_CONTRACT_STORED_BATCHES() public view returns(uint256){\r... */\n    tag_296:\n        /* \"contracts/worksystems/Parameters.sol\":10183:10210  MAX_CONTRACT_STORED_BATCHES */\n      sload(0x04)\n        /* \"contracts/worksystems/Parameters.sol\":10094:10218  function get_MAX_CONTRACT_STORED_BATCHES() public view returns(uint256){\r... */\n      swap1\n      jump\t// out\n        /* \"contracts/worksystems/Parameters.sol\":1193:1244  uint256 public SPOT_INTER_ALLOCATION_DURATION = 400 */\n    tag_299:\n      sload(0x0d)\n      dup2\n      jump\t// out\n        /* \"contracts/worksystems/Parameters.sol\":12689:12795  function get_SPOT_NB_TIMEFRAMES() public view returns(uint256){\r... */\n    tag_302:\n        /* \"contracts/worksystems/Parameters.sol\":12769:12787  SPOT_NB_TIMEFRAMES */\n      sload(0x12)\n        /* \"contracts/worksystems/Parameters.sol\":12689:12795  function get_SPOT_NB_TIMEFRAMES() public view returns(uint256){\r... */\n      swap1\n      jump\t// out\n        /* \"contracts/worksystems/Parameters.sol\":931:978  uint256 public SPOT_COMMIT_ROUND_DURATION = 180 */\n    tag_305:\n      sload(0x09)\n      dup2\n      jump\t// out\n        /* \"contracts/worksystems/Parameters.sol\":9880:9970  function getVoteQuorum() public view returns(uint256){\r... */\n    tag_308:\n        /* \"contracts/worksystems/Parameters.sol\":9951:9962  VOTE_QUORUM */\n      sload(0x02)\n        /* \"contracts/worksystems/Parameters.sol\":9880:9970  function getVoteQuorum() public view returns(uint256){\r... */\n      swap1\n      jump\t// out\n        /* \"contracts/worksystems/Parameters.sol\":1714:1755  uint256 public FORMAT_DATA_BATCH_SIZE = 1 */\n    tag_311:\n      sload(0x15)\n      dup2\n      jump\t// out\n        /* \"contracts/worksystems/Parameters.sol\":7059:8795  function updateSpottingParameters(uint256 ParameterIndex, uint256 uintValue, bool boolValue) public onlyOwner {        \r... */\n    tag_316:\n        /* \"@openzeppelin/contracts/access/Ownable.sol\":1259:1271  _msgSender() */\n      tag_419\n        /* \"@openzeppelin/contracts/access/Ownable.sol\":1259:1269  _msgSender */\n      tag_351\n        /* \"@openzeppelin/contracts/access/Ownable.sol\":1259:1271  _msgSender() */\n      jump\t// in\n    tag_419:\n      sub(shl(0xa0, 0x01), 0x01)\n        /* \"@openzeppelin/contracts/access/Ownable.sol\":1248:1271  owner() == _msgSender() */\n      and\n        /* \"@openzeppelin/contracts/access/Ownable.sol\":1248:1255  owner() */\n      tag_420\n        /* \"@openzeppelin/contracts/access/Ownable.sol\":1248:1253  owner */\n      tag_209\n        /* \"@openzeppelin/contracts/access/Ownable.sol\":1248:1255  owner() */\n      jump\t// in\n    tag_420:\n      sub(shl(0xa0, 0x01), 0x01)\n        /* \"@openzeppelin/contracts/access/Ownable.sol\":1248:1271  owner() == _msgSender() */\n      and\n      eq\n        /* \"@openzeppelin/contracts/access/Ownable.sol\":1240:1308  require(owner() == _msgSender(), \"Ownable: caller is not the owner\") */\n      tag_421\n      jumpi\n      mload(0x40)\n      shl(0xe5, 0x461bcd)\n      dup2\n      mstore\n      0x04\n      add\n      tag_354\n      swap1\n      tag_355\n      jump\t// in\n    tag_421:\n        /* \"contracts/worksystems/Parameters.sol\":7191:7205  ParameterIndex */\n      dup3\n        /* \"contracts/worksystems/Parameters.sol\":7209:7210  1 */\n      0x01\n        /* \"contracts/worksystems/Parameters.sol\":7191:7210  ParameterIndex == 1 */\n      eq\n        /* \"contracts/worksystems/Parameters.sol\":7188:7271  if(ParameterIndex == 1){\r... */\n      iszero\n      tag_424\n      jumpi\n        /* \"contracts/worksystems/Parameters.sol\":7226:7246  SPOT_DATA_BATCH_SIZE */\n      0x05\n        /* \"contracts/worksystems/Parameters.sol\":7226:7259  SPOT_DATA_BATCH_SIZE  = uintValue */\n      dup3\n      swap1\n      sstore\n        /* \"contracts/worksystems/Parameters.sol\":7188:7271  if(ParameterIndex == 1){\r... */\n    tag_424:\n        /* \"contracts/worksystems/Parameters.sol\":7284:7298  ParameterIndex */\n      dup3\n        /* \"contracts/worksystems/Parameters.sol\":7302:7303  2 */\n      0x02\n        /* \"contracts/worksystems/Parameters.sol\":7284:7303  ParameterIndex == 2 */\n      eq\n        /* \"contracts/worksystems/Parameters.sol\":7281:7358  if(ParameterIndex == 2){\r... */\n      iszero\n      tag_425\n      jumpi\n        /* \"contracts/worksystems/Parameters.sol\":7319:7333  SPOT_MIN_STAKE */\n      0x06\n        /* \"contracts/worksystems/Parameters.sol\":7319:7346  SPOT_MIN_STAKE  = uintValue */\n      dup3\n      swap1\n      sstore\n        /* \"contracts/worksystems/Parameters.sol\":7281:7358  if(ParameterIndex == 2){\r... */\n    tag_425:\n        /* \"contracts/worksystems/Parameters.sol\":7371:7385  ParameterIndex */\n      dup3\n        /* \"contracts/worksystems/Parameters.sol\":7389:7390  3 */\n      0x03\n        /* \"contracts/worksystems/Parameters.sol\":7371:7390  ParameterIndex == 3 */\n      eq\n        /* \"contracts/worksystems/Parameters.sol\":7368:7462  if(ParameterIndex == 3){\r... */\n      iszero\n      tag_426\n      jumpi\n        /* \"contracts/worksystems/Parameters.sol\":7406:7437  SPOT_MIN_CONSENSUS_WORKER_COUNT */\n      0x07\n        /* \"contracts/worksystems/Parameters.sol\":7406:7450  SPOT_MIN_CONSENSUS_WORKER_COUNT  = uintValue */\n      dup3\n      swap1\n      sstore\n        /* \"contracts/worksystems/Parameters.sol\":7368:7462  if(ParameterIndex == 3){\r... */\n    tag_426:\n        /* \"contracts/worksystems/Parameters.sol\":7475:7489  ParameterIndex */\n      dup3\n        /* \"contracts/worksystems/Parameters.sol\":7493:7494  4 */\n      0x04\n        /* \"contracts/worksystems/Parameters.sol\":7475:7494  ParameterIndex == 4 */\n      eq\n        /* \"contracts/worksystems/Parameters.sol\":7472:7566  if(ParameterIndex == 4){\r... */\n      iszero\n      tag_427\n      jumpi\n        /* \"contracts/worksystems/Parameters.sol\":7510:7541  SPOT_MAX_CONSENSUS_WORKER_COUNT */\n      0x08\n        /* \"contracts/worksystems/Parameters.sol\":7510:7554  SPOT_MAX_CONSENSUS_WORKER_COUNT  = uintValue */\n      dup3\n      swap1\n      sstore\n        /* \"contracts/worksystems/Parameters.sol\":7472:7566  if(ParameterIndex == 4){\r... */\n    tag_427:\n        /* \"contracts/worksystems/Parameters.sol\":7579:7593  ParameterIndex */\n      dup3\n        /* \"contracts/worksystems/Parameters.sol\":7597:7598  5 */\n      0x05\n        /* \"contracts/worksystems/Parameters.sol\":7579:7598  ParameterIndex == 5 */\n      eq\n        /* \"contracts/worksystems/Parameters.sol\":7576:7665  if(ParameterIndex == 5){\r... */\n      iszero\n      tag_428\n      jumpi\n        /* \"contracts/worksystems/Parameters.sol\":7614:7640  SPOT_COMMIT_ROUND_DURATION */\n      0x09\n        /* \"contracts/worksystems/Parameters.sol\":7614:7653  SPOT_COMMIT_ROUND_DURATION  = uintValue */\n      dup3\n      swap1\n      sstore\n        /* \"contracts/worksystems/Parameters.sol\":7576:7665  if(ParameterIndex == 5){\r... */\n    tag_428:\n        /* \"contracts/worksystems/Parameters.sol\":7678:7692  ParameterIndex */\n      dup3\n        /* \"contracts/worksystems/Parameters.sol\":7696:7697  6 */\n      0x06\n        /* \"contracts/worksystems/Parameters.sol\":7678:7697  ParameterIndex == 6 */\n      eq\n        /* \"contracts/worksystems/Parameters.sol\":7675:7764  if(ParameterIndex == 6){\r... */\n      iszero\n      tag_429\n      jumpi\n        /* \"contracts/worksystems/Parameters.sol\":7713:7739  SPOT_REVEAL_ROUND_DURATION */\n      0x0a\n        /* \"contracts/worksystems/Parameters.sol\":7713:7752  SPOT_REVEAL_ROUND_DURATION  = uintValue */\n      dup3\n      swap1\n      sstore\n        /* \"contracts/worksystems/Parameters.sol\":7675:7764  if(ParameterIndex == 6){\r... */\n    tag_429:\n        /* \"contracts/worksystems/Parameters.sol\":7777:7791  ParameterIndex */\n      dup3\n        /* \"contracts/worksystems/Parameters.sol\":7795:7796  7 */\n      0x07\n        /* \"contracts/worksystems/Parameters.sol\":7777:7796  ParameterIndex == 7 */\n      eq\n        /* \"contracts/worksystems/Parameters.sol\":7774:7857  if(ParameterIndex == 7){\r... */\n      iszero\n      tag_430\n      jumpi\n        /* \"contracts/worksystems/Parameters.sol\":7812:7832  SPOT_MIN_REWARD_Data */\n      0x0b\n        /* \"contracts/worksystems/Parameters.sol\":7812:7845  SPOT_MIN_REWARD_Data  = uintValue */\n      dup3\n      swap1\n      sstore\n        /* \"contracts/worksystems/Parameters.sol\":7774:7857  if(ParameterIndex == 7){\r... */\n    tag_430:\n        /* \"contracts/worksystems/Parameters.sol\":7870:7884  ParameterIndex */\n      dup3\n        /* \"contracts/worksystems/Parameters.sol\":7888:7889  8 */\n      0x08\n        /* \"contracts/worksystems/Parameters.sol\":7870:7889  ParameterIndex == 8 */\n      eq\n        /* \"contracts/worksystems/Parameters.sol\":7867:7947  if(ParameterIndex == 8){\r... */\n      iszero\n      tag_431\n      jumpi\n        /* \"contracts/worksystems/Parameters.sol\":7905:7922  SPOT_MIN_REP_Data */\n      0x0c\n        /* \"contracts/worksystems/Parameters.sol\":7905:7935  SPOT_MIN_REP_Data  = uintValue */\n      dup3\n      swap1\n      sstore\n        /* \"contracts/worksystems/Parameters.sol\":7867:7947  if(ParameterIndex == 8){\r... */\n    tag_431:\n        /* \"contracts/worksystems/Parameters.sol\":8009:8023  ParameterIndex */\n      dup3\n        /* \"contracts/worksystems/Parameters.sol\":8027:8028  9 */\n      0x09\n        /* \"contracts/worksystems/Parameters.sol\":8009:8028  ParameterIndex == 9 */\n      eq\n        /* \"contracts/worksystems/Parameters.sol\":8006:8098  if(ParameterIndex == 9){\r... */\n      iszero\n      tag_432\n      jumpi\n        /* \"contracts/worksystems/Parameters.sol\":8044:8074  SPOT_INTER_ALLOCATION_DURATION */\n      0x0d\n        /* \"contracts/worksystems/Parameters.sol\":8044:8086  SPOT_INTER_ALLOCATION_DURATION = uintValue */\n      dup3\n      swap1\n      sstore\n        /* \"contracts/worksystems/Parameters.sol\":8006:8098  if(ParameterIndex == 9){\r... */\n    tag_432:\n        /* \"contracts/worksystems/Parameters.sol\":8111:8125  ParameterIndex */\n      dup3\n        /* \"contracts/worksystems/Parameters.sol\":8129:8131  10 */\n      0x0a\n        /* \"contracts/worksystems/Parameters.sol\":8111:8131  ParameterIndex == 10 */\n      eq\n        /* \"contracts/worksystems/Parameters.sol\":8108:8190  if(ParameterIndex == 10){\r... */\n      iszero\n      tag_433\n      jumpi\n        /* \"contracts/worksystems/Parameters.sol\":8147:8166  SPOT_TOGGLE_ENABLED */\n      0x0e\n        /* \"contracts/worksystems/Parameters.sol\":8147:8178  SPOT_TOGGLE_ENABLED = boolValue */\n      dup1\n      sload\n      not(0xff)\n      and\n      dup3\n      iszero\n      iszero\n      or\n      swap1\n      sstore\n        /* \"contracts/worksystems/Parameters.sol\":8108:8190  if(ParameterIndex == 10){\r... */\n    tag_433:\n        /* \"contracts/worksystems/Parameters.sol\":8203:8217  ParameterIndex */\n      dup3\n        /* \"contracts/worksystems/Parameters.sol\":8221:8223  11 */\n      0x0b\n        /* \"contracts/worksystems/Parameters.sol\":8203:8223  ParameterIndex == 11 */\n      eq\n        /* \"contracts/worksystems/Parameters.sol\":8200:8286  if(ParameterIndex == 11){\r... */\n      iszero\n      tag_434\n      jumpi\n        /* \"contracts/worksystems/Parameters.sol\":8239:8262  SPOT_TIMEFRAME_DURATION */\n      0x0f\n        /* \"contracts/worksystems/Parameters.sol\":8239:8274  SPOT_TIMEFRAME_DURATION = uintValue */\n      dup3\n      swap1\n      sstore\n        /* \"contracts/worksystems/Parameters.sol\":8200:8286  if(ParameterIndex == 11){\r... */\n    tag_434:\n        /* \"contracts/worksystems/Parameters.sol\":8299:8313  ParameterIndex */\n      dup3\n        /* \"contracts/worksystems/Parameters.sol\":8317:8319  12 */\n      0x0c\n        /* \"contracts/worksystems/Parameters.sol\":8299:8319  ParameterIndex == 12 */\n      eq\n        /* \"contracts/worksystems/Parameters.sol\":8296:8390  if(ParameterIndex == 12){\r... */\n      iszero\n      tag_435\n      jumpi\n        /* \"contracts/worksystems/Parameters.sol\":8335:8366  SPOT_GLOBAL_MAX_SPOT_PER_PERIOD */\n      0x10\n        /* \"contracts/worksystems/Parameters.sol\":8335:8378  SPOT_GLOBAL_MAX_SPOT_PER_PERIOD = uintValue */\n      dup3\n      swap1\n      sstore\n        /* \"contracts/worksystems/Parameters.sol\":8296:8390  if(ParameterIndex == 12){\r... */\n    tag_435:\n        /* \"contracts/worksystems/Parameters.sol\":8403:8417  ParameterIndex */\n      dup3\n        /* \"contracts/worksystems/Parameters.sol\":8421:8423  13 */\n      0x0d\n        /* \"contracts/worksystems/Parameters.sol\":8403:8423  ParameterIndex == 13 */\n      eq\n        /* \"contracts/worksystems/Parameters.sol\":8400:8496  if(ParameterIndex == 13){\r... */\n      iszero\n      tag_436\n      jumpi\n        /* \"contracts/worksystems/Parameters.sol\":8439:8472  SPOT_MAX_SPOT_PER_USER_PER_PERIOD */\n      0x11\n        /* \"contracts/worksystems/Parameters.sol\":8439:8484  SPOT_MAX_SPOT_PER_USER_PER_PERIOD = uintValue */\n      dup3\n      swap1\n      sstore\n        /* \"contracts/worksystems/Parameters.sol\":8400:8496  if(ParameterIndex == 13){\r... */\n    tag_436:\n        /* \"contracts/worksystems/Parameters.sol\":8509:8523  ParameterIndex */\n      dup3\n        /* \"contracts/worksystems/Parameters.sol\":8527:8529  14 */\n      0x0e\n        /* \"contracts/worksystems/Parameters.sol\":8509:8529  ParameterIndex == 14 */\n      eq\n        /* \"contracts/worksystems/Parameters.sol\":8506:8587  if(ParameterIndex == 14){\r... */\n      iszero\n      tag_437\n      jumpi\n        /* \"contracts/worksystems/Parameters.sol\":8545:8563  SPOT_NB_TIMEFRAMES */\n      0x12\n        /* \"contracts/worksystems/Parameters.sol\":8545:8575  SPOT_NB_TIMEFRAMES = uintValue */\n      dup3\n      swap1\n      sstore\n        /* \"contracts/worksystems/Parameters.sol\":8506:8587  if(ParameterIndex == 14){\r... */\n    tag_437:\n        /* \"contracts/worksystems/Parameters.sol\":8600:8614  ParameterIndex */\n      dup3\n        /* \"contracts/worksystems/Parameters.sol\":8618:8620  15 */\n      0x0f\n        /* \"contracts/worksystems/Parameters.sol\":8600:8620  ParameterIndex == 15 */\n      eq\n        /* \"contracts/worksystems/Parameters.sol\":8597:8682  if(ParameterIndex == 15){\r... */\n      iszero\n      tag_438\n      jumpi\n        /* \"contracts/worksystems/Parameters.sol\":8636:8658  MAX_SUCCEEDING_NOVOTES */\n      0x13\n        /* \"contracts/worksystems/Parameters.sol\":8636:8670  MAX_SUCCEEDING_NOVOTES = uintValue */\n      dup3\n      swap1\n      sstore\n        /* \"contracts/worksystems/Parameters.sol\":8597:8682  if(ParameterIndex == 15){\r... */\n    tag_438:\n        /* \"contracts/worksystems/Parameters.sol\":8695:8709  ParameterIndex */\n      dup3\n        /* \"contracts/worksystems/Parameters.sol\":8713:8715  16 */\n      0x10\n        /* \"contracts/worksystems/Parameters.sol\":8695:8715  ParameterIndex == 16 */\n      eq\n        /* \"contracts/worksystems/Parameters.sol\":8692:8788  if(ParameterIndex == 16){\r... */\n      iszero\n      tag_439\n      jumpi\n        /* \"contracts/worksystems/Parameters.sol\":8731:8764  NOVOTE_REGISTRATION_WAIT_DURATION */\n      0x14\n        /* \"contracts/worksystems/Parameters.sol\":8731:8776  NOVOTE_REGISTRATION_WAIT_DURATION = uintValue */\n      dup3\n      swap1\n      sstore\n        /* \"contracts/worksystems/Parameters.sol\":8692:8788  if(ParameterIndex == 16){\r... */\n    tag_439:\n        /* \"contracts/worksystems/Parameters.sol\":7059:8795  function updateSpottingParameters(uint256 ParameterIndex, uint256 uintValue, bool boolValue) public onlyOwner {        \r... */\n      pop\n      pop\n      pop\n      jump\t// out\n        /* \"contracts/worksystems/Parameters.sol\":14026:14134  function get_FORMAT_MIN_REP_Data() public view returns(uint256){\r... */\n    tag_318:\n        /* \"contracts/worksystems/Parameters.sol\":14107:14126  FORMAT_MIN_REP_Data */\n      sload(0x1c)\n        /* \"contracts/worksystems/Parameters.sol\":14026:14134  function get_FORMAT_MIN_REP_Data() public view returns(uint256){\r... */\n      swap1\n      jump\t// out\n        /* \"@openzeppelin/contracts/access/Ownable.sol\":1918:2116  function transferOwnership(address newOwner) public virtual onlyOwner {... */\n    tag_323:\n        /* \"@openzeppelin/contracts/access/Ownable.sol\":1259:1271  _msgSender() */\n      tag_442\n        /* \"@openzeppelin/contracts/access/Ownable.sol\":1259:1269  _msgSender */\n      tag_351\n        /* \"@openzeppelin/contracts/access/Ownable.sol\":1259:1271  _msgSender() */\n      jump\t// in\n    tag_442:\n      sub(shl(0xa0, 0x01), 0x01)\n        /* \"@openzeppelin/contracts/access/Ownable.sol\":1248:1271  owner() == _msgSender() */\n      and\n        /* \"@openzeppelin/contracts/access/Ownable.sol\":1248:1255  owner() */\n      tag_443\n        /* \"@openzeppelin/contracts/access/Ownable.sol\":1248:1253  owner */\n      tag_209\n        /* \"@openzeppelin/contracts/access/Ownable.sol\":1248:1255  owner() */\n      jump\t// in\n    tag_443:\n      sub(shl(0xa0, 0x01), 0x01)\n        /* \"@openzeppelin/contracts/access/Ownable.sol\":1248:1271  owner() == _msgSender() */\n      and\n      eq\n        /* \"@openzeppelin/contracts/access/Ownable.sol\":1240:1308  require(owner() == _msgSender(), \"Ownable: caller is not the owner\") */\n      tag_444\n      jumpi\n      mload(0x40)\n      shl(0xe5, 0x461bcd)\n      dup2\n      mstore\n      0x04\n      add\n      tag_354\n      swap1\n      tag_355\n      jump\t// in\n    tag_444:\n      sub(shl(0xa0, 0x01), 0x01)\n        /* \"@openzeppelin/contracts/access/Ownable.sol\":2006:2028  newOwner != address(0) */\n      dup2\n      and\n        /* \"@openzeppelin/contracts/access/Ownable.sol\":1998:2071  require(newOwner != address(0), \"Ownable: new owner is the zero address\") */\n      tag_447\n      jumpi\n      mload(0x40)\n      shl(0xe5, 0x461bcd)\n      dup2\n      mstore\n      0x04\n      add\n      tag_354\n      swap1\n      tag_449\n      jump\t// in\n    tag_447:\n        /* \"@openzeppelin/contracts/access/Ownable.sol\":2081:2109  _transferOwnership(newOwner) */\n      tag_450\n        /* \"@openzeppelin/contracts/access/Ownable.sol\":2100:2108  newOwner */\n      dup2\n        /* \"@openzeppelin/contracts/access/Ownable.sol\":2081:2099  _transferOwnership */\n      tag_398\n        /* \"@openzeppelin/contracts/access/Ownable.sol\":2081:2109  _transferOwnership(newOwner) */\n      jump\t// in\n    tag_450:\n        /* \"@openzeppelin/contracts/access/Ownable.sol\":1918:2116  function transferOwnership(address newOwner) public virtual onlyOwner {... */\n      pop\n      jump\t// out\n        /* \"contracts/worksystems/Parameters.sol\":812:863  uint256 public SPOT_MIN_CONSENSUS_WORKER_COUNT  = 2 */\n    tag_325:\n      sload(0x07)\n      dup2\n      jump\t// out\n        /* \"contracts/worksystems/Parameters.sol\":2211:2231  address public token */\n    tag_328:\n      and(sub(shl(0xa0, 0x01), 0x01), sload(0x1d))\n      dup2\n      jump\t// out\n        /* \"contracts/worksystems/Parameters.sol\":1046:1098  uint256 public SPOT_MIN_REWARD_Data = 2 * (10 ** 18) */\n    tag_331:\n      sload(0x0b)\n      dup2\n      jump\t// out\n        /* \"contracts/worksystems/Parameters.sol\":11166:11264  function get_SPOT_MIN_STAKE() public view returns(uint256){\r... */\n    tag_334:\n        /* \"contracts/worksystems/Parameters.sol\":11242:11256  SPOT_MIN_STAKE */\n      sload(0x06)\n        /* \"contracts/worksystems/Parameters.sol\":11166:11264  function get_SPOT_MIN_STAKE() public view returns(uint256){\r... */\n      swap1\n      jump\t// out\n        /* \"@openzeppelin/contracts/utils/Context.sol\":640:736  function _msgSender() internal view virtual returns (address) {... */\n    tag_351:\n        /* \"@openzeppelin/contracts/utils/Context.sol\":719:729  msg.sender */\n      caller\n        /* \"@openzeppelin/contracts/utils/Context.sol\":640:736  function _msgSender() internal view virtual returns (address) {... */\n      swap1\n      jump\t// out\n        /* \"@openzeppelin/contracts/access/Ownable.sol\":2270:2457  function _transferOwnership(address newOwner) internal virtual {... */\n    tag_398:\n        /* \"@openzeppelin/contracts/access/Ownable.sol\":2343:2359  address oldOwner */\n      0x00\n        /* \"@openzeppelin/contracts/access/Ownable.sol\":2362:2368  _owner */\n      dup1\n      sload\n      sub(shl(0xa0, 0x01), 0x01)\n        /* \"@openzeppelin/contracts/access/Ownable.sol\":2378:2395  _owner = newOwner */\n      dup4\n      dup2\n      and\n      not(sub(shl(0xa0, 0x01), 0x01))\n      dup4\n      and\n      dup2\n      or\n      dup5\n      sstore\n        /* \"@openzeppelin/contracts/access/Ownable.sol\":2410:2450  OwnershipTransferred(oldOwner, newOwner) */\n      mload(0x40)\n        /* \"@openzeppelin/contracts/access/Ownable.sol\":2362:2368  _owner */\n      swap2\n      swap1\n      swap3\n      and\n      swap3\n      dup4\n      swap2\n        /* \"@openzeppelin/contracts/access/Ownable.sol\":2410:2450  OwnershipTransferred(oldOwner, newOwner) */\n      0x8be0079c531659141344cd1fd0a4f28419497f9722a3daafe3b4186f6b6457e0\n      swap2\n        /* \"@openzeppelin/contracts/access/Ownable.sol\":2343:2359  address oldOwner */\n      swap1\n        /* \"@openzeppelin/contracts/access/Ownable.sol\":2410:2450  OwnershipTransferred(oldOwner, newOwner) */\n      log3\n        /* \"@openzeppelin/contracts/access/Ownable.sol\":2270:2457  function _transferOwnership(address newOwner) internal virtual {... */\n      pop\n      pop\n      jump\t// out\n        /* \"#utility.yul\":14:189   */\n    tag_455:\n        /* \"#utility.yul\":84:104   */\n      dup1\n      calldataload\n      sub(shl(0xa0, 0x01), 0x01)\n        /* \"#utility.yul\":133:164   */\n      dup2\n      and\n        /* \"#utility.yul\":123:165   */\n      dup2\n      eq\n        /* \"#utility.yul\":113:115   */\n      tag_457\n      jumpi\n        /* \"#utility.yul\":179:180   */\n      0x00\n        /* \"#utility.yul\":176:177   */\n      dup1\n        /* \"#utility.yul\":169:181   */\n      revert\n        /* \"#utility.yul\":113:115   */\n    tag_457:\n        /* \"#utility.yul\":65:189   */\n      swap2\n      swap1\n      pop\n      jump\t// out\n        /* \"#utility.yul\":194:392   */\n    tag_322:\n      0x00\n        /* \"#utility.yul\":306:308   */\n      0x20\n        /* \"#utility.yul\":294:303   */\n      dup3\n        /* \"#utility.yul\":285:292   */\n      dup5\n        /* \"#utility.yul\":281:304   */\n      sub\n        /* \"#utility.yul\":277:309   */\n      slt\n        /* \"#utility.yul\":274:276   */\n      iszero\n      tag_459\n      jumpi\n        /* \"#utility.yul\":327:333   */\n      dup1\n        /* \"#utility.yul\":319:325   */\n      dup2\n        /* \"#utility.yul\":312:334   */\n      revert\n        /* \"#utility.yul\":274:276   */\n    tag_459:\n        /* \"#utility.yul\":355:386   */\n      tag_460\n        /* \"#utility.yul\":376:385   */\n      dup3\n        /* \"#utility.yul\":355:386   */\n      tag_455\n      jump\t// in\n    tag_460:\n        /* \"#utility.yul\":345:386   */\n      swap4\n        /* \"#utility.yul\":264:392   */\n      swap3\n      pop\n      pop\n      pop\n      jump\t// out\n        /* \"#utility.yul\":397:1132   */\n    tag_167:\n      0x00\n      dup1\n      0x00\n      dup1\n      0x00\n      dup1\n      0x00\n      dup1\n        /* \"#utility.yul\":628:631   */\n      0x0100\n        /* \"#utility.yul\":616:625   */\n      dup10\n        /* \"#utility.yul\":607:614   */\n      dup12\n        /* \"#utility.yul\":603:626   */\n      sub\n        /* \"#utility.yul\":599:632   */\n      slt\n        /* \"#utility.yul\":596:598   */\n      iszero\n      tag_462\n      jumpi\n        /* \"#utility.yul\":650:656   */\n      dup4\n        /* \"#utility.yul\":642:648   */\n      dup5\n        /* \"#utility.yul\":635:657   */\n      revert\n        /* \"#utility.yul\":596:598   */\n    tag_462:\n        /* \"#utility.yul\":678:709   */\n      tag_463\n        /* \"#utility.yul\":699:708   */\n      dup10\n        /* \"#utility.yul\":678:709   */\n      tag_455\n      jump\t// in\n    tag_463:\n        /* \"#utility.yul\":668:709   */\n      swap8\n      pop\n        /* \"#utility.yul\":728:768   */\n      tag_464\n        /* \"#utility.yul\":764:766   */\n      0x20\n        /* \"#utility.yul\":753:762   */\n      dup11\n        /* \"#utility.yul\":749:767   */\n      add\n        /* \"#utility.yul\":728:768   */\n      tag_455\n      jump\t// in\n    tag_464:\n        /* \"#utility.yul\":718:768   */\n      swap7\n      pop\n        /* \"#utility.yul\":787:827   */\n      tag_465\n        /* \"#utility.yul\":823:825   */\n      0x40\n        /* \"#utility.yul\":812:821   */\n      dup11\n        /* \"#utility.yul\":808:826   */\n      add\n        /* \"#utility.yul\":787:827   */\n      tag_455\n      jump\t// in\n    tag_465:\n        /* \"#utility.yul\":777:827   */\n      swap6\n      pop\n        /* \"#utility.yul\":846:886   */\n      tag_466\n        /* \"#utility.yul\":882:884   */\n      0x60\n        /* \"#utility.yul\":871:880   */\n      dup11\n        /* \"#utility.yul\":867:885   */\n      add\n        /* \"#utility.yul\":846:886   */\n      tag_455\n      jump\t// in\n    tag_466:\n        /* \"#utility.yul\":836:886   */\n      swap5\n      pop\n        /* \"#utility.yul\":905:946   */\n      tag_467\n        /* \"#utility.yul\":941:944   */\n      0x80\n        /* \"#utility.yul\":930:939   */\n      dup11\n        /* \"#utility.yul\":926:945   */\n      add\n        /* \"#utility.yul\":905:946   */\n      tag_455\n      jump\t// in\n    tag_467:\n        /* \"#utility.yul\":895:946   */\n      swap4\n      pop\n        /* \"#utility.yul\":965:1006   */\n      tag_468\n        /* \"#utility.yul\":1001:1004   */\n      0xa0\n        /* \"#utility.yul\":990:999   */\n      dup11\n        /* \"#utility.yul\":986:1005   */\n      add\n        /* \"#utility.yul\":965:1006   */\n      tag_455\n      jump\t// in\n    tag_468:\n        /* \"#utility.yul\":955:1006   */\n      swap3\n      pop\n        /* \"#utility.yul\":1025:1066   */\n      tag_469\n        /* \"#utility.yul\":1061:1064   */\n      0xc0\n        /* \"#utility.yul\":1050:1059   */\n      dup11\n        /* \"#utility.yul\":1046:1065   */\n      add\n        /* \"#utility.yul\":1025:1066   */\n      tag_455\n      jump\t// in\n    tag_469:\n        /* \"#utility.yul\":1015:1066   */\n      swap2\n      pop\n        /* \"#utility.yul\":1085:1126   */\n      tag_470\n        /* \"#utility.yul\":1121:1124   */\n      0xe0\n        /* \"#utility.yul\":1110:1119   */\n      dup11\n        /* \"#utility.yul\":1106:1125   */\n      add\n        /* \"#utility.yul\":1085:1126   */\n      tag_455\n      jump\t// in\n    tag_470:\n        /* \"#utility.yul\":1075:1126   */\n      swap1\n      pop\n        /* \"#utility.yul\":586:1132   */\n      swap3\n      swap6\n      swap9\n      pop\n      swap3\n      swap6\n      swap9\n      swap1\n      swap4\n      swap7\n      pop\n      jump\t// out\n        /* \"#utility.yul\":1137:1395   */\n    tag_171:\n      0x00\n      dup1\n        /* \"#utility.yul\":1266:1268   */\n      0x40\n        /* \"#utility.yul\":1254:1263   */\n      dup4\n        /* \"#utility.yul\":1245:1252   */\n      dup6\n        /* \"#utility.yul\":1241:1264   */\n      sub\n        /* \"#utility.yul\":1237:1269   */\n      slt\n        /* \"#utility.yul\":1234:1236   */\n      iszero\n      tag_472\n      jumpi\n        /* \"#utility.yul\":1287:1293   */\n      dup2\n        /* \"#utility.yul\":1279:1285   */\n      dup3\n        /* \"#utility.yul\":1272:1294   */\n      revert\n        /* \"#utility.yul\":1234:1236   */\n    tag_472:\n      pop\n      pop\n        /* \"#utility.yul\":1315:1338   */\n      dup1\n      calldataload\n      swap3\n        /* \"#utility.yul\":1385:1387   */\n      0x20\n        /* \"#utility.yul\":1370:1388   */\n      swap1\n      swap2\n      add\n        /* \"#utility.yul\":1357:1389   */\n      calldataload\n      swap2\n      pop\n        /* \"#utility.yul\":1224:1395   */\n      jump\t// out\n        /* \"#utility.yul\":1400:1829   */\n    tag_315:\n      0x00\n      dup1\n      0x00\n        /* \"#utility.yul\":1543:1545   */\n      0x60\n        /* \"#utility.yul\":1531:1540   */\n      dup5\n        /* \"#utility.yul\":1522:1529   */\n      dup7\n        /* \"#utility.yul\":1518:1541   */\n      sub\n        /* \"#utility.yul\":1514:1546   */\n      slt\n        /* \"#utility.yul\":1511:1513   */\n      iszero\n      tag_474\n      jumpi\n        /* \"#utility.yul\":1564:1570   */\n      dup3\n        /* \"#utility.yul\":1556:1562   */\n      dup4\n        /* \"#utility.yul\":1549:1571   */\n      revert\n        /* \"#utility.yul\":1511:1513   */\n    tag_474:\n        /* \"#utility.yul\":1605:1614   */\n      dup4\n        /* \"#utility.yul\":1592:1615   */\n      calldataload\n        /* \"#utility.yul\":1582:1615   */\n      swap3\n      pop\n        /* \"#utility.yul\":1662:1664   */\n      0x20\n        /* \"#utility.yul\":1651:1660   */\n      dup5\n        /* \"#utility.yul\":1647:1665   */\n      add\n        /* \"#utility.yul\":1634:1666   */\n      calldataload\n        /* \"#utility.yul\":1624:1666   */\n      swap2\n      pop\n        /* \"#utility.yul\":1716:1718   */\n      0x40\n        /* \"#utility.yul\":1705:1714   */\n      dup5\n        /* \"#utility.yul\":1701:1719   */\n      add\n        /* \"#utility.yul\":1688:1720   */\n      calldataload\n        /* \"#utility.yul\":1763:1768   */\n      dup1\n        /* \"#utility.yul\":1756:1769   */\n      iszero\n        /* \"#utility.yul\":1749:1770   */\n      iszero\n        /* \"#utility.yul\":1742:1747   */\n      dup2\n        /* \"#utility.yul\":1739:1771   */\n      eq\n        /* \"#utility.yul\":1729:1731   */\n      tag_475\n      jumpi\n        /* \"#utility.yul\":1790:1796   */\n      dup2\n        /* \"#utility.yul\":1782:1788   */\n      dup3\n        /* \"#utility.yul\":1775:1797   */\n      revert\n        /* \"#utility.yul\":1729:1731   */\n    tag_475:\n        /* \"#utility.yul\":1818:1823   */\n      dup1\n        /* \"#utility.yul\":1808:1823   */\n      swap2\n      pop\n      pop\n        /* \"#utility.yul\":1501:1829   */\n      swap3\n      pop\n      swap3\n      pop\n      swap3\n      jump\t// out\n        /* \"#utility.yul\":1834:2037   */\n    tag_106:\n      sub(shl(0xa0, 0x01), 0x01)\n        /* \"#utility.yul\":1998:2030   */\n      swap2\n      swap1\n      swap2\n      and\n        /* \"#utility.yul\":1980:2031   */\n      dup2\n      mstore\n        /* \"#utility.yul\":1968:1970   */\n      0x20\n        /* \"#utility.yul\":1953:1971   */\n      add\n      swap1\n        /* \"#utility.yul\":1935:2037   */\n      jump\t// out\n        /* \"#utility.yul\":2042:2229   */\n    tag_146:\n        /* \"#utility.yul\":2207:2221   */\n      swap1\n      iszero\n        /* \"#utility.yul\":2200:2222   */\n      iszero\n        /* \"#utility.yul\":2182:2223   */\n      dup2\n      mstore\n        /* \"#utility.yul\":2170:2172   */\n      0x20\n        /* \"#utility.yul\":2155:2173   */\n      add\n      swap1\n        /* \"#utility.yul\":2137:2229   */\n      jump\t// out\n        /* \"#utility.yul\":2234:2636   */\n    tag_449:\n        /* \"#utility.yul\":2436:2438   */\n      0x20\n        /* \"#utility.yul\":2418:2439   */\n      dup1\n      dup3\n      mstore\n        /* \"#utility.yul\":2475:2477   */\n      0x26\n        /* \"#utility.yul\":2455:2473   */\n      swap1\n      dup3\n      add\n        /* \"#utility.yul\":2448:2478   */\n      mstore\n        /* \"#utility.yul\":2514:2548   */\n      0x4f776e61626c653a206e6577206f776e657220697320746865207a65726f2061\n        /* \"#utility.yul\":2509:2511   */\n      0x40\n        /* \"#utility.yul\":2494:2512   */\n      dup3\n      add\n        /* \"#utility.yul\":2487:2549   */\n      mstore\n      shl(0xd0, 0x646472657373)\n        /* \"#utility.yul\":2580:2582   */\n      0x60\n        /* \"#utility.yul\":2565:2583   */\n      dup3\n      add\n        /* \"#utility.yul\":2558:2594   */\n      mstore\n        /* \"#utility.yul\":2626:2629   */\n      0x80\n        /* \"#utility.yul\":2611:2630   */\n      add\n      swap1\n        /* \"#utility.yul\":2408:2636   */\n      jump\t// out\n        /* \"#utility.yul\":2641:2997   */\n    tag_355:\n        /* \"#utility.yul\":2843:2845   */\n      0x20\n        /* \"#utility.yul\":2825:2846   */\n      dup1\n      dup3\n      mstore\n        /* \"#utility.yul\":2862:2880   */\n      dup2\n      dup2\n      add\n        /* \"#utility.yul\":2855:2885   */\n      mstore\n        /* \"#utility.yul\":2921:2955   */\n      0x4f776e61626c653a2063616c6c6572206973206e6f7420746865206f776e6572\n        /* \"#utility.yul\":2916:2918   */\n      0x40\n        /* \"#utility.yul\":2901:2919   */\n      dup3\n      add\n        /* \"#utility.yul\":2894:2956   */\n      mstore\n        /* \"#utility.yul\":2988:2990   */\n      0x60\n        /* \"#utility.yul\":2973:2991   */\n      add\n      swap1\n        /* \"#utility.yul\":2815:2997   */\n      jump\t// out\n        /* \"#utility.yul\":3002:3179   */\n    tag_99:\n        /* \"#utility.yul\":3148:3173   */\n      swap1\n      dup2\n      mstore\n        /* \"#utility.yul\":3136:3138   */\n      0x20\n        /* \"#utility.yul\":3121:3139   */\n      add\n      swap1\n        /* \"#utility.yul\":3103:3179   */\n      jump\t// out\n\n    auxdata: 0xa2646970667358221220f61811b67c8f0288e8aaadd2497b77318abaa176010335b6e27ba71e5cf1ead464736f6c63430008000033\n}\n",
				"bytecode": {
					"linkReferences": {},
					"object": "60806040526103e86001556032600255603260035562030d40600455600160055568015af1d78b58c400006006556002600755600460085560b460095560b4600a55671bc16d674ec80000600b5568022b1c8c1227a00000600c55610190600d556001600e60006101000a81548160ff021916908315150217905550610384600f556103e8601055601960115560046012556003601355610e1060145560016015556002601655600460175568015af1d78b58c4000060185561019060195560b4601a556729a2241af62c0000601b556802b5e3af16b1880000601c553480156100e857600080fd5b506100f96100f46100fe565b610102565b610152565b3390565b600080546001600160a01b038381166001600160a01b0319831681178455604051919092169283917f8be0079c531659141344cd1fd0a4f28419497f9722a3daafe3b4186f6b6457e09190a35050565b6110c3806101616000396000f3fe608060405234801561001057600080fd5b50600436106104695760003560e01c80639d1f2ada1161024c578063ca820e9b11610146578063e6fdd4c0116100c3578063f2fde38b11610087578063f2fde38b14610714578063fb50a47314610727578063fc0c546a1461072f578063fe72274914610737578063ff622dda1461073f57610469565b8063e6fdd4c0146106e1578063ea19733c146106e9578063ea663ed9146106f1578063ee37f4a6146106f9578063f250ae2d1461070c57610469565b8063e0de3d7c1161010a578063e0de3d7c146106b9578063e28fdeec146106c1578063e3115d3c146106c9578063e5f14824146106d1578063e66d543a146106d957610469565b8063ca820e9b14610691578063d0eed96714610699578063d4efd2ba146106a1578063d8645d37146106a9578063dfeceed7146106b157610469565b8063b45d9d8d116101d4578063bf09ff7011610198578063bf09ff7014610669578063c4a306f814610671578063c6eacbfe14610679578063c7761fab14610681578063ca64f9e71461068957610469565b8063b45d9d8d14610641578063b5c92a3f14610649578063b611845014610651578063bd40ef4c14610659578063be2509881461066157610469565b8063a35b3b091161021b578063a35b3b0914610619578063ab43e78d14610621578063acbe4f3e14610629578063b368b92814610631578063b38e885e1461063957610469565b80639d1f2ada146105f95780639fb491f614610601578063a02f991414610609578063a327181b1461061157610469565b8063544037a51161036857806372e54030116102e557806387ce6311116102a957806387ce6311146105d15780638d289f8f146105d95780638da5cb5b146105e157806390d10b6e146105e957806398a54e2b146105f157610469565b806372e54030146105a957806377ad500c146105b15780637a34da67146105b95780637d630cb0146105c157806383cc6ef2146105c957610469565b806362c11afa1161032c57806362c11afa1461057657806368bd36151461057e5780636b13edc11461058657806370d29bdf14610599578063715018a6146105a157610469565b8063544037a514610536578063557c1abe1461053e57806357716b7f146105465780635e481a181461054e578063618790751461056357610469565b806323aea691116103f65780633692616a116103ba5780633692616a1461050157806336fc43fc146105095780634e5638f51461051e5780634e87c5a81461052657806351912f291461052e57610469565b806323aea691146104d957806329a47bc7146104e15780632c1480c0146104e95780632c658ec0146104f15780632e2f93f3146104f957610469565b80630f1f0ffe1161043d5780630f1f0ffe146104b15780630f78cc76146104b9578063134667be146104c1578063166ff4c7146104c95780631d0fb88e146104d157610469565b8062653ff81461046e57806302c5a49f1461048c57806304e76c8f146104945780630855d151146104a9575b600080fd5b610476610747565b6040516104839190611084565b60405180910390f35b61047661074d565b61049c610753565b6040516104839190610fea565b61049c610762565b610476610771565b610476610777565b61047661077d565b610476610783565b610476610789565b61047661078f565b61049c610795565b6104766107a4565b6104766107aa565b61049c6107b0565b6104766107bf565b6105116107c5565b6040516104839190610ffe565b6104766107ce565b6105116107d4565b61049c6107dd565b6104766107ec565b61049c6107f2565b610476610801565b61056161055c366004610ef7565b610807565b005b610561610571366004610f8d565b6109b1565b610476610a30565b61049c610a36565b610561610594366004610f8d565b610a45565b610476610afc565b610561610b02565b610476610b4d565b610476610b53565b61049c610b59565b610476610b68565b61049c610b6e565b610476610b7d565b61049c610b83565b61049c610b92565b610476610ba1565b610476610ba7565b610476610bad565b610476610bb3565b610476610bb9565b610476610bbf565b610476610bc5565b61049c610bcb565b610476610bda565b610476610be0565b610476610be6565b61049c610bec565b610476610bfb565b610476610c01565b610476610c07565b610476610c0d565b610476610c13565b610476610c19565b610476610c1f565b610476610c25565b61049c610c2b565b610476610c3a565b610476610c40565b610476610c46565b61049c610c4c565b610476610c5b565b610476610c61565b610476610c67565b610476610c6d565b610476610c73565b610476610c79565b610476610c7f565b610476610c85565b610476610c8b565b610561610707366004610fae565b610c91565b610476610dce565b610561610722366004610ed6565b610dd4565b610476610e45565b61049c610e4b565b610476610e5a565b610476610e60565b60065481565b601a5490565b6020546001600160a01b031690565b601f546001600160a01b031690565b60145490565b600f5490565b601c5481565b60165490565b600a5481565b60185490565b601f546001600160a01b031681565b600b5490565b60185481565b601d546001600160a01b031690565b60095490565b600e5460ff1681565b60045481565b600e5460ff1690565b6020546001600160a01b031681565b60165481565b6024546001600160a01b031690565b60155490565b61080f610e66565b6001600160a01b0316610820610b92565b6001600160a01b03161461084f5760405162461bcd60e51b81526004016108469061104f565b60405180910390fd5b6001600160a01b0388161561087a57601e80546001600160a01b0319166001600160a01b038a161790555b6001600160a01b038716156108a557601f80546001600160a01b0319166001600160a01b0389161790555b6001600160a01b038616156108d057602080546001600160a01b0319166001600160a01b0388161790555b6001600160a01b038516156108fb57602180546001600160a01b0319166001600160a01b0387161790555b6001600160a01b0384161561092657602280546001600160a01b0319166001600160a01b0386161790555b6001600160a01b0383161561095157602380546001600160a01b0319166001600160a01b0385161790555b6001600160a01b0382161561097c57602480546001600160a01b0319166001600160a01b0384161790555b6001600160a01b038116156109a757601d80546001600160a01b0319166001600160a01b0383161790555b5050505050505050565b6109b9610e66565b6001600160a01b03166109ca610b92565b6001600160a01b0316146109f05760405162461bcd60e51b81526004016108469061104f565b81600114156109ff5760018190555b8160021415610a0e5760028190555b8160031415610a1d5760038190555b8160041415610a2c5760048190555b5050565b601a5481565b6023546001600160a01b031690565b610a4d610e66565b6001600160a01b0316610a5e610b92565b6001600160a01b031614610a845760405162461bcd60e51b81526004016108469061104f565b8160011415610a935760158190555b8160021415610aa25760188190555b8160031415610ab15760168190555b8160041415610ac05760178190555b8160051415610acf5760198190555b8160061415610ade57601a8190555b8160071415610aed57601b8190555b8160081415610a2c57601c5550565b60175490565b610b0a610e66565b6001600160a01b0316610b1b610b92565b6001600160a01b031614610b415760405162461bcd60e51b81526004016108469061104f565b610b4b6000610e6a565b565b600a5490565b601b5490565b6021546001600160a01b031681565b60035490565b601e546001600160a01b031681565b600f5481565b6023546001600160a01b031681565b6000546001600160a01b031690565b60035481565b60015490565b60055490565b60135490565b60195490565b60015481565b60085481565b6024546001600160a01b031681565b600c5490565b60195481565b60105490565b6022546001600160a01b031690565b600c5481565b60125481565b60075490565b60115490565b60115481565b600d5490565b60055481565b60025481565b601e546001600160a01b031690565b601b5481565b60145481565b60135481565b6022546001600160a01b031681565b60085490565b60105481565b60175481565b60045490565b600d5481565b60125490565b60095481565b60025490565b60155481565b610c99610e66565b6001600160a01b0316610caa610b92565b6001600160a01b031614610cd05760405162461bcd60e51b81526004016108469061104f565b8260011415610cdf5760058290555b8260021415610cee5760068290555b8260031415610cfd5760078290555b8260041415610d0c5760088290555b8260051415610d1b5760098290555b8260061415610d2a57600a8290555b8260071415610d3957600b8290555b8260081415610d4857600c8290555b8260091415610d5757600d8290555b82600a1415610d6f57600e805460ff19168215151790555b82600b1415610d7e57600f8290555b82600c1415610d8d5760108290555b82600d1415610d9c5760118290555b82600e1415610dab5760128290555b82600f1415610dba5760138290555b8260101415610dc95760148290555b505050565b601c5490565b610ddc610e66565b6001600160a01b0316610ded610b92565b6001600160a01b031614610e135760405162461bcd60e51b81526004016108469061104f565b6001600160a01b038116610e395760405162461bcd60e51b815260040161084690611009565b610e4281610e6a565b50565b60075481565b601d546001600160a01b031681565b600b5481565b60065490565b3390565b600080546001600160a01b038381166001600160a01b0319831681178455604051919092169283917f8be0079c531659141344cd1fd0a4f28419497f9722a3daafe3b4186f6b6457e09190a35050565b80356001600160a01b0381168114610ed157600080fd5b919050565b600060208284031215610ee7578081fd5b610ef082610eba565b9392505050565b600080600080600080600080610100898b031215610f13578384fd5b610f1c89610eba565b9750610f2a60208a01610eba565b9650610f3860408a01610eba565b9550610f4660608a01610eba565b9450610f5460808a01610eba565b9350610f6260a08a01610eba565b9250610f7060c08a01610eba565b9150610f7e60e08a01610eba565b90509295985092959890939650565b60008060408385031215610f9f578182fd5b50508035926020909101359150565b600080600060608486031215610fc2578283fd5b833592506020840135915060408401358015158114610fdf578182fd5b809150509250925092565b6001600160a01b0391909116815260200190565b901515815260200190565b60208082526026908201527f4f776e61626c653a206e6577206f776e657220697320746865207a65726f206160408201526564647265737360d01b606082015260800190565b6020808252818101527f4f776e61626c653a2063616c6c6572206973206e6f7420746865206f776e6572604082015260600190565b9081526020019056fea2646970667358221220f61811b67c8f0288e8aaadd2497b77318abaa176010335b6e27ba71e5cf1ead464736f6c63430008000033",
					"opcodes": "PUSH1 0x80 PUSH1 0x40 MSTORE PUSH2 0x3E8 PUSH1 0x1 SSTORE PUSH1 0x32 PUSH1 0x2 SSTORE PUSH1 0x32 PUSH1 0x3 SSTORE PUSH3 0x30D40 PUSH1 0x4 SSTORE PUSH1 0x1 PUSH1 0x5 SSTORE PUSH9 0x15AF1D78B58C40000 PUSH1 0x6 SSTORE PUSH1 0x2 PUSH1 0x7 SSTORE PUSH1 0x4 PUSH1 0x8 SSTORE PUSH1 0xB4 PUSH1 0x9 SSTORE PUSH1 0xB4 PUSH1 0xA SSTORE PUSH8 0x1BC16D674EC80000 PUSH1 0xB SSTORE PUSH9 0x22B1C8C1227A00000 PUSH1 0xC SSTORE PUSH2 0x190 PUSH1 0xD SSTORE PUSH1 0x1 PUSH1 0xE PUSH1 0x0 PUSH2 0x100 EXP DUP2 SLOAD DUP2 PUSH1 0xFF MUL NOT AND SWAP1 DUP4 ISZERO ISZERO MUL OR SWAP1 SSTORE POP PUSH2 0x384 PUSH1 0xF SSTORE PUSH2 0x3E8 PUSH1 0x10 SSTORE PUSH1 0x19 PUSH1 0x11 SSTORE PUSH1 0x4 PUSH1 0x12 SSTORE PUSH1 0x3 PUSH1 0x13 SSTORE PUSH2 0xE10 PUSH1 0x14 SSTORE PUSH1 0x1 PUSH1 0x15 SSTORE PUSH1 0x2 PUSH1 0x16 SSTORE PUSH1 0x4 PUSH1 0x17 SSTORE PUSH9 0x15AF1D78B58C40000 PUSH1 0x18 SSTORE PUSH2 0x190 PUSH1 0x19 SSTORE PUSH1 0xB4 PUSH1 0x1A SSTORE PUSH8 0x29A2241AF62C0000 PUSH1 0x1B SSTORE PUSH9 0x2B5E3AF16B1880000 PUSH1 0x1C SSTORE CALLVALUE DUP1 ISZERO PUSH2 0xE8 JUMPI PUSH1 0x0 DUP1 REVERT JUMPDEST POP PUSH2 0xF9 PUSH2 0xF4 PUSH2 0xFE JUMP JUMPDEST PUSH2 0x102 JUMP JUMPDEST PUSH2 0x152 JUMP JUMPDEST CALLER SWAP1 JUMP JUMPDEST PUSH1 0x0 DUP1 SLOAD PUSH1 0x1 PUSH1 0x1 PUSH1 0xA0 SHL SUB DUP4 DUP2 AND PUSH1 0x1 PUSH1 0x1 PUSH1 0xA0 SHL SUB NOT DUP4 AND DUP2 OR DUP5 SSTORE PUSH1 0x40 MLOAD SWAP2 SWAP1 SWAP3 AND SWAP3 DUP4 SWAP2 PUSH32 0x8BE0079C531659141344CD1FD0A4F28419497F9722A3DAAFE3B4186F6B6457E0 SWAP2 SWAP1 LOG3 POP POP JUMP JUMPDEST PUSH2 0x10C3 DUP1 PUSH2 0x161 PUSH1 0x0 CODECOPY PUSH1 0x0 RETURN INVALID PUSH1 0x80 PUSH1 0x40 MSTORE CALLVALUE DUP1 ISZERO PUSH2 0x10 JUMPI PUSH1 0x0 DUP1 REVERT JUMPDEST POP PUSH1 0x4 CALLDATASIZE LT PUSH2 0x469 JUMPI PUSH1 0x0 CALLDATALOAD PUSH1 0xE0 SHR DUP1 PUSH4 0x9D1F2ADA GT PUSH2 0x24C JUMPI DUP1 PUSH4 0xCA820E9B GT PUSH2 0x146 JUMPI DUP1 PUSH4 0xE6FDD4C0 GT PUSH2 0xC3 JUMPI DUP1 PUSH4 0xF2FDE38B GT PUSH2 0x87 JUMPI DUP1 PUSH4 0xF2FDE38B EQ PUSH2 0x714 JUMPI DUP1 PUSH4 0xFB50A473 EQ PUSH2 0x727 JUMPI DUP1 PUSH4 0xFC0C546A EQ PUSH2 0x72F JUMPI DUP1 PUSH4 0xFE722749 EQ PUSH2 0x737 JUMPI DUP1 PUSH4 0xFF622DDA EQ PUSH2 0x73F JUMPI PUSH2 0x469 JUMP JUMPDEST DUP1 PUSH4 0xE6FDD4C0 EQ PUSH2 0x6E1 JUMPI DUP1 PUSH4 0xEA19733C EQ PUSH2 0x6E9 JUMPI DUP1 PUSH4 0xEA663ED9 EQ PUSH2 0x6F1 JUMPI DUP1 PUSH4 0xEE37F4A6 EQ PUSH2 0x6F9 JUMPI DUP1 PUSH4 0xF250AE2D EQ PUSH2 0x70C JUMPI PUSH2 0x469 JUMP JUMPDEST DUP1 PUSH4 0xE0DE3D7C GT PUSH2 0x10A JUMPI DUP1 PUSH4 0xE0DE3D7C EQ PUSH2 0x6B9 JUMPI DUP1 PUSH4 0xE28FDEEC EQ PUSH2 0x6C1 JUMPI DUP1 PUSH4 0xE3115D3C EQ PUSH2 0x6C9 JUMPI DUP1 PUSH4 0xE5F14824 EQ PUSH2 0x6D1 JUMPI DUP1 PUSH4 0xE66D543A EQ PUSH2 0x6D9 JUMPI PUSH2 0x469 JUMP JUMPDEST DUP1 PUSH4 0xCA820E9B EQ PUSH2 0x691 JUMPI DUP1 PUSH4 0xD0EED967 EQ PUSH2 0x699 JUMPI DUP1 PUSH4 0xD4EFD2BA EQ PUSH2 0x6A1 JUMPI DUP1 PUSH4 0xD8645D37 EQ PUSH2 0x6A9 JUMPI DUP1 PUSH4 0xDFECEED7 EQ PUSH2 0x6B1 JUMPI PUSH2 0x469 JUMP JUMPDEST DUP1 PUSH4 0xB45D9D8D GT PUSH2 0x1D4 JUMPI DUP1 PUSH4 0xBF09FF70 GT PUSH2 0x198 JUMPI DUP1 PUSH4 0xBF09FF70 EQ PUSH2 0x669 JUMPI DUP1 PUSH4 0xC4A306F8 EQ PUSH2 0x671 JUMPI DUP1 PUSH4 0xC6EACBFE EQ PUSH2 0x679 JUMPI DUP1 PUSH4 0xC7761FAB EQ PUSH2 0x681 JUMPI DUP1 PUSH4 0xCA64F9E7 EQ PUSH2 0x689 JUMPI PUSH2 0x469 JUMP JUMPDEST DUP1 PUSH4 0xB45D9D8D EQ PUSH2 0x641 JUMPI DUP1 PUSH4 0xB5C92A3F EQ PUSH2 0x649 JUMPI DUP1 PUSH4 0xB6118450 EQ PUSH2 0x651 JUMPI DUP1 PUSH4 0xBD40EF4C EQ PUSH2 0x659 JUMPI DUP1 PUSH4 0xBE250988 EQ PUSH2 0x661 JUMPI PUSH2 0x469 JUMP JUMPDEST DUP1 PUSH4 0xA35B3B09 GT PUSH2 0x21B JUMPI DUP1 PUSH4 0xA35B3B09 EQ PUSH2 0x619 JUMPI DUP1 PUSH4 0xAB43E78D EQ PUSH2 0x621 JUMPI DUP1 PUSH4 0xACBE4F3E EQ PUSH2 0x629 JUMPI DUP1 PUSH4 0xB368B928 EQ PUSH2 0x631 JUMPI DUP1 PUSH4 0xB38E885E EQ PUSH2 0x639 JUMPI PUSH2 0x469 JUMP JUMPDEST DUP1 PUSH4 0x9D1F2ADA EQ PUSH2 0x5F9 JUMPI DUP1 PUSH4 0x9FB491F6 EQ PUSH2 0x601 JUMPI DUP1 PUSH4 0xA02F9914 EQ PUSH2 0x609 JUMPI DUP1 PUSH4 0xA327181B EQ PUSH2 0x611 JUMPI PUSH2 0x469 JUMP JUMPDEST DUP1 PUSH4 0x544037A5 GT PUSH2 0x368 JUMPI DUP1 PUSH4 0x72E54030 GT PUSH2 0x2E5 JUMPI DUP1 PUSH4 0x87CE6311 GT PUSH2 0x2A9 JUMPI DUP1 PUSH4 0x87CE6311 EQ PUSH2 0x5D1 JUMPI DUP1 PUSH4 0x8D289F8F EQ PUSH2 0x5D9 JUMPI DUP1 PUSH4 0x8DA5CB5B EQ PUSH2 0x5E1 JUMPI DUP1 PUSH4 0x90D10B6E EQ PUSH2 0x5E9 JUMPI DUP1 PUSH4 0x98A54E2B EQ PUSH2 0x5F1 JUMPI PUSH2 0x469 JUMP JUMPDEST DUP1 PUSH4 0x72E54030 EQ PUSH2 0x5A9 JUMPI DUP1 PUSH4 0x77AD500C EQ PUSH2 0x5B1 JUMPI DUP1 PUSH4 0x7A34DA67 EQ PUSH2 0x5B9 JUMPI DUP1 PUSH4 0x7D630CB0 EQ PUSH2 0x5C1 JUMPI DUP1 PUSH4 0x83CC6EF2 EQ PUSH2 0x5C9 JUMPI PUSH2 0x469 JUMP JUMPDEST DUP1 PUSH4 0x62C11AFA GT PUSH2 0x32C JUMPI DUP1 PUSH4 0x62C11AFA EQ PUSH2 0x576 JUMPI DUP1 PUSH4 0x68BD3615 EQ PUSH2 0x57E JUMPI DUP1 PUSH4 0x6B13EDC1 EQ PUSH2 0x586 JUMPI DUP1 PUSH4 0x70D29BDF EQ PUSH2 0x599 JUMPI DUP1 PUSH4 0x715018A6 EQ PUSH2 0x5A1 JUMPI PUSH2 0x469 JUMP JUMPDEST DUP1 PUSH4 0x544037A5 EQ PUSH2 0x536 JUMPI DUP1 PUSH4 0x557C1ABE EQ PUSH2 0x53E JUMPI DUP1 PUSH4 0x57716B7F EQ PUSH2 0x546 JUMPI DUP1 PUSH4 0x5E481A18 EQ PUSH2 0x54E JUMPI DUP1 PUSH4 0x61879075 EQ PUSH2 0x563 JUMPI PUSH2 0x469 JUMP JUMPDEST DUP1 PUSH4 0x23AEA691 GT PUSH2 0x3F6 JUMPI DUP1 PUSH4 0x3692616A GT PUSH2 0x3BA JUMPI DUP1 PUSH4 0x3692616A EQ PUSH2 0x501 JUMPI DUP1 PUSH4 0x36FC43FC EQ PUSH2 0x509 JUMPI DUP1 PUSH4 0x4E5638F5 EQ PUSH2 0x51E JUMPI DUP1 PUSH4 0x4E87C5A8 EQ PUSH2 0x526 JUMPI DUP1 PUSH4 0x51912F29 EQ PUSH2 0x52E JUMPI PUSH2 0x469 JUMP JUMPDEST DUP1 PUSH4 0x23AEA691 EQ PUSH2 0x4D9 JUMPI DUP1 PUSH4 0x29A47BC7 EQ PUSH2 0x4E1 JUMPI DUP1 PUSH4 0x2C1480C0 EQ PUSH2 0x4E9 JUMPI DUP1 PUSH4 0x2C658EC0 EQ PUSH2 0x4F1 JUMPI DUP1 PUSH4 0x2E2F93F3 EQ PUSH2 0x4F9 JUMPI PUSH2 0x469 JUMP JUMPDEST DUP1 PUSH4 0xF1F0FFE GT PUSH2 0x43D JUMPI DUP1 PUSH4 0xF1F0FFE EQ PUSH2 0x4B1 JUMPI DUP1 PUSH4 0xF78CC76 EQ PUSH2 0x4B9 JUMPI DUP1 PUSH4 0x134667BE EQ PUSH2 0x4C1 JUMPI DUP1 PUSH4 0x166FF4C7 EQ PUSH2 0x4C9 JUMPI DUP1 PUSH4 0x1D0FB88E EQ PUSH2 0x4D1 JUMPI PUSH2 0x469 JUMP JUMPDEST DUP1 PUSH3 0x653FF8 EQ PUSH2 0x46E JUMPI DUP1 PUSH4 0x2C5A49F EQ PUSH2 0x48C JUMPI DUP1 PUSH4 0x4E76C8F EQ PUSH2 0x494 JUMPI DUP1 PUSH4 0x855D151 EQ PUSH2 0x4A9 JUMPI JUMPDEST PUSH1 0x0 DUP1 REVERT JUMPDEST PUSH2 0x476 PUSH2 0x747 JUMP JUMPDEST PUSH1 0x40 MLOAD PUSH2 0x483 SWAP2 SWAP1 PUSH2 0x1084 JUMP JUMPDEST PUSH1 0x40 MLOAD DUP1 SWAP2 SUB SWAP1 RETURN JUMPDEST PUSH2 0x476 PUSH2 0x74D JUMP JUMPDEST PUSH2 0x49C PUSH2 0x753 JUMP JUMPDEST PUSH1 0x40 MLOAD PUSH2 0x483 SWAP2 SWAP1 PUSH2 0xFEA JUMP JUMPDEST PUSH2 0x49C PUSH2 0x762 JUMP JUMPDEST PUSH2 0x476 PUSH2 0x771 JUMP JUMPDEST PUSH2 0x476 PUSH2 0x777 JUMP JUMPDEST PUSH2 0x476 PUSH2 0x77D JUMP JUMPDEST PUSH2 0x476 PUSH2 0x783 JUMP JUMPDEST PUSH2 0x476 PUSH2 0x789 JUMP JUMPDEST PUSH2 0x476 PUSH2 0x78F JUMP JUMPDEST PUSH2 0x49C PUSH2 0x795 JUMP JUMPDEST PUSH2 0x476 PUSH2 0x7A4 JUMP JUMPDEST PUSH2 0x476 PUSH2 0x7AA JUMP JUMPDEST PUSH2 0x49C PUSH2 0x7B0 JUMP JUMPDEST PUSH2 0x476 PUSH2 0x7BF JUMP JUMPDEST PUSH2 0x511 PUSH2 0x7C5 JUMP JUMPDEST PUSH1 0x40 MLOAD PUSH2 0x483 SWAP2 SWAP1 PUSH2 0xFFE JUMP JUMPDEST PUSH2 0x476 PUSH2 0x7CE JUMP JUMPDEST PUSH2 0x511 PUSH2 0x7D4 JUMP JUMPDEST PUSH2 0x49C PUSH2 0x7DD JUMP JUMPDEST PUSH2 0x476 PUSH2 0x7EC JUMP JUMPDEST PUSH2 0x49C PUSH2 0x7F2 JUMP JUMPDEST PUSH2 0x476 PUSH2 0x801 JUMP JUMPDEST PUSH2 0x561 PUSH2 0x55C CALLDATASIZE PUSH1 0x4 PUSH2 0xEF7 JUMP JUMPDEST PUSH2 0x807 JUMP JUMPDEST STOP JUMPDEST PUSH2 0x561 PUSH2 0x571 CALLDATASIZE PUSH1 0x4 PUSH2 0xF8D JUMP JUMPDEST PUSH2 0x9B1 JUMP JUMPDEST PUSH2 0x476 PUSH2 0xA30 JUMP JUMPDEST PUSH2 0x49C PUSH2 0xA36 JUMP JUMPDEST PUSH2 0x561 PUSH2 0x594 CALLDATASIZE PUSH1 0x4 PUSH2 0xF8D JUMP JUMPDEST PUSH2 0xA45 JUMP JUMPDEST PUSH2 0x476 PUSH2 0xAFC JUMP JUMPDEST PUSH2 0x561 PUSH2 0xB02 JUMP JUMPDEST PUSH2 0x476 PUSH2 0xB4D JUMP JUMPDEST PUSH2 0x476 PUSH2 0xB53 JUMP JUMPDEST PUSH2 0x49C PUSH2 0xB59 JUMP JUMPDEST PUSH2 0x476 PUSH2 0xB68 JUMP JUMPDEST PUSH2 0x49C PUSH2 0xB6E JUMP JUMPDEST PUSH2 0x476 PUSH2 0xB7D JUMP JUMPDEST PUSH2 0x49C PUSH2 0xB83 JUMP JUMPDEST PUSH2 0x49C PUSH2 0xB92 JUMP JUMPDEST PUSH2 0x476 PUSH2 0xBA1 JUMP JUMPDEST PUSH2 0x476 PUSH2 0xBA7 JUMP JUMPDEST PUSH2 0x476 PUSH2 0xBAD JUMP JUMPDEST PUSH2 0x476 PUSH2 0xBB3 JUMP JUMPDEST PUSH2 0x476 PUSH2 0xBB9 JUMP JUMPDEST PUSH2 0x476 PUSH2 0xBBF JUMP JUMPDEST PUSH2 0x476 PUSH2 0xBC5 JUMP JUMPDEST PUSH2 0x49C PUSH2 0xBCB JUMP JUMPDEST PUSH2 0x476 PUSH2 0xBDA JUMP JUMPDEST PUSH2 0x476 PUSH2 0xBE0 JUMP JUMPDEST PUSH2 0x476 PUSH2 0xBE6 JUMP JUMPDEST PUSH2 0x49C PUSH2 0xBEC JUMP JUMPDEST PUSH2 0x476 PUSH2 0xBFB JUMP JUMPDEST PUSH2 0x476 PUSH2 0xC01 JUMP JUMPDEST PUSH2 0x476 PUSH2 0xC07 JUMP JUMPDEST PUSH2 0x476 PUSH2 0xC0D JUMP JUMPDEST PUSH2 0x476 PUSH2 0xC13 JUMP JUMPDEST PUSH2 0x476 PUSH2 0xC19 JUMP JUMPDEST PUSH2 0x476 PUSH2 0xC1F JUMP JUMPDEST PUSH2 0x476 PUSH2 0xC25 JUMP JUMPDEST PUSH2 0x49C PUSH2 0xC2B JUMP JUMPDEST PUSH2 0x476 PUSH2 0xC3A JUMP JUMPDEST PUSH2 0x476 PUSH2 0xC40 JUMP JUMPDEST PUSH2 0x476 PUSH2 0xC46 JUMP JUMPDEST PUSH2 0x49C PUSH2 0xC4C JUMP JUMPDEST PUSH2 0x476 PUSH2 0xC5B JUMP JUMPDEST PUSH2 0x476 PUSH2 0xC61 JUMP JUMPDEST PUSH2 0x476 PUSH2 0xC67 JUMP JUMPDEST PUSH2 0x476 PUSH2 0xC6D JUMP JUMPDEST PUSH2 0x476 PUSH2 0xC73 JUMP JUMPDEST PUSH2 0x476 PUSH2 0xC79 JUMP JUMPDEST PUSH2 0x476 PUSH2 0xC7F JUMP JUMPDEST PUSH2 0x476 PUSH2 0xC85 JUMP JUMPDEST PUSH2 0x476 PUSH2 0xC8B JUMP JUMPDEST PUSH2 0x561 PUSH2 0x707 CALLDATASIZE PUSH1 0x4 PUSH2 0xFAE JUMP JUMPDEST PUSH2 0xC91 JUMP JUMPDEST PUSH2 0x476 PUSH2 0xDCE JUMP JUMPDEST PUSH2 0x561 PUSH2 0x722 CALLDATASIZE PUSH1 0x4 PUSH2 0xED6 JUMP JUMPDEST PUSH2 0xDD4 JUMP JUMPDEST PUSH2 0x476 PUSH2 0xE45 JUMP JUMPDEST PUSH2 0x49C PUSH2 0xE4B JUMP JUMPDEST PUSH2 0x476 PUSH2 0xE5A JUMP JUMPDEST PUSH2 0x476 PUSH2 0xE60 JUMP JUMPDEST PUSH1 0x6 SLOAD DUP2 JUMP JUMPDEST PUSH1 0x1A SLOAD SWAP1 JUMP JUMPDEST PUSH1 0x20 SLOAD PUSH1 0x1 PUSH1 0x1 PUSH1 0xA0 SHL SUB AND SWAP1 JUMP JUMPDEST PUSH1 0x1F SLOAD PUSH1 0x1 PUSH1 0x1 PUSH1 0xA0 SHL SUB AND SWAP1 JUMP JUMPDEST PUSH1 0x14 SLOAD SWAP1 JUMP JUMPDEST PUSH1 0xF SLOAD SWAP1 JUMP JUMPDEST PUSH1 0x1C SLOAD DUP2 JUMP JUMPDEST PUSH1 0x16 SLOAD SWAP1 JUMP JUMPDEST PUSH1 0xA SLOAD DUP2 JUMP JUMPDEST PUSH1 0x18 SLOAD SWAP1 JUMP JUMPDEST PUSH1 0x1F SLOAD PUSH1 0x1 PUSH1 0x1 PUSH1 0xA0 SHL SUB AND DUP2 JUMP JUMPDEST PUSH1 0xB SLOAD SWAP1 JUMP JUMPDEST PUSH1 0x18 SLOAD DUP2 JUMP JUMPDEST PUSH1 0x1D SLOAD PUSH1 0x1 PUSH1 0x1 PUSH1 0xA0 SHL SUB AND SWAP1 JUMP JUMPDEST PUSH1 0x9 SLOAD SWAP1 JUMP JUMPDEST PUSH1 0xE SLOAD PUSH1 0xFF AND DUP2 JUMP JUMPDEST PUSH1 0x4 SLOAD DUP2 JUMP JUMPDEST PUSH1 0xE SLOAD PUSH1 0xFF AND SWAP1 JUMP JUMPDEST PUSH1 0x20 SLOAD PUSH1 0x1 PUSH1 0x1 PUSH1 0xA0 SHL SUB AND DUP2 JUMP JUMPDEST PUSH1 0x16 SLOAD DUP2 JUMP JUMPDEST PUSH1 0x24 SLOAD PUSH1 0x1 PUSH1 0x1 PUSH1 0xA0 SHL SUB AND SWAP1 JUMP JUMPDEST PUSH1 0x15 SLOAD SWAP1 JUMP JUMPDEST PUSH2 0x80F PUSH2 0xE66 JUMP JUMPDEST PUSH1 0x1 PUSH1 0x1 PUSH1 0xA0 SHL SUB AND PUSH2 0x820 PUSH2 0xB92 JUMP JUMPDEST PUSH1 0x1 PUSH1 0x1 PUSH1 0xA0 SHL SUB AND EQ PUSH2 0x84F JUMPI PUSH1 0x40 MLOAD PUSH3 0x461BCD PUSH1 0xE5 SHL DUP2 MSTORE PUSH1 0x4 ADD PUSH2 0x846 SWAP1 PUSH2 0x104F JUMP JUMPDEST PUSH1 0x40 MLOAD DUP1 SWAP2 SUB SWAP1 REVERT JUMPDEST PUSH1 0x1 PUSH1 0x1 PUSH1 0xA0 SHL SUB DUP9 AND ISZERO PUSH2 0x87A JUMPI PUSH1 0x1E DUP1 SLOAD PUSH1 0x1 PUSH1 0x1 PUSH1 0xA0 SHL SUB NOT AND PUSH1 0x1 PUSH1 0x1 PUSH1 0xA0 SHL SUB DUP11 AND OR SWAP1 SSTORE JUMPDEST PUSH1 0x1 PUSH1 0x1 PUSH1 0xA0 SHL SUB DUP8 AND ISZERO PUSH2 0x8A5 JUMPI PUSH1 0x1F DUP1 SLOAD PUSH1 0x1 PUSH1 0x1 PUSH1 0xA0 SHL SUB NOT AND PUSH1 0x1 PUSH1 0x1 PUSH1 0xA0 SHL SUB DUP10 AND OR SWAP1 SSTORE JUMPDEST PUSH1 0x1 PUSH1 0x1 PUSH1 0xA0 SHL SUB DUP7 AND ISZERO PUSH2 0x8D0 JUMPI PUSH1 0x20 DUP1 SLOAD PUSH1 0x1 PUSH1 0x1 PUSH1 0xA0 SHL SUB NOT AND PUSH1 0x1 PUSH1 0x1 PUSH1 0xA0 SHL SUB DUP9 AND OR SWAP1 SSTORE JUMPDEST PUSH1 0x1 PUSH1 0x1 PUSH1 0xA0 SHL SUB DUP6 AND ISZERO PUSH2 0x8FB JUMPI PUSH1 0x21 DUP1 SLOAD PUSH1 0x1 PUSH1 0x1 PUSH1 0xA0 SHL SUB NOT AND PUSH1 0x1 PUSH1 0x1 PUSH1 0xA0 SHL SUB DUP8 AND OR SWAP1 SSTORE JUMPDEST PUSH1 0x1 PUSH1 0x1 PUSH1 0xA0 SHL SUB DUP5 AND ISZERO PUSH2 0x926 JUMPI PUSH1 0x22 DUP1 SLOAD PUSH1 0x1 PUSH1 0x1 PUSH1 0xA0 SHL SUB NOT AND PUSH1 0x1 PUSH1 0x1 PUSH1 0xA0 SHL SUB DUP7 AND OR SWAP1 SSTORE JUMPDEST PUSH1 0x1 PUSH1 0x1 PUSH1 0xA0 SHL SUB DUP4 AND ISZERO PUSH2 0x951 JUMPI PUSH1 0x23 DUP1 SLOAD PUSH1 0x1 PUSH1 0x1 PUSH1 0xA0 SHL SUB NOT AND PUSH1 0x1 PUSH1 0x1 PUSH1 0xA0 SHL SUB DUP6 AND OR SWAP1 SSTORE JUMPDEST PUSH1 0x1 PUSH1 0x1 PUSH1 0xA0 SHL SUB DUP3 AND ISZERO PUSH2 0x97C JUMPI PUSH1 0x24 DUP1 SLOAD PUSH1 0x1 PUSH1 0x1 PUSH1 0xA0 SHL SUB NOT AND PUSH1 0x1 PUSH1 0x1 PUSH1 0xA0 SHL SUB DUP5 AND OR SWAP1 SSTORE JUMPDEST PUSH1 0x1 PUSH1 0x1 PUSH1 0xA0 SHL SUB DUP2 AND ISZERO PUSH2 0x9A7 JUMPI PUSH1 0x1D DUP1 SLOAD PUSH1 0x1 PUSH1 0x1 PUSH1 0xA0 SHL SUB NOT AND PUSH1 0x1 PUSH1 0x1 PUSH1 0xA0 SHL SUB DUP4 AND OR SWAP1 SSTORE JUMPDEST POP POP POP POP POP POP POP POP JUMP JUMPDEST PUSH2 0x9B9 PUSH2 0xE66 JUMP JUMPDEST PUSH1 0x1 PUSH1 0x1 PUSH1 0xA0 SHL SUB AND PUSH2 0x9CA PUSH2 0xB92 JUMP JUMPDEST PUSH1 0x1 PUSH1 0x1 PUSH1 0xA0 SHL SUB AND EQ PUSH2 0x9F0 JUMPI PUSH1 0x40 MLOAD PUSH3 0x461BCD PUSH1 0xE5 SHL DUP2 MSTORE PUSH1 0x4 ADD PUSH2 0x846 SWAP1 PUSH2 0x104F JUMP JUMPDEST DUP2 PUSH1 0x1 EQ ISZERO PUSH2 0x9FF JUMPI PUSH1 0x1 DUP2 SWAP1 SSTORE JUMPDEST DUP2 PUSH1 0x2 EQ ISZERO PUSH2 0xA0E JUMPI PUSH1 0x2 DUP2 SWAP1 SSTORE JUMPDEST DUP2 PUSH1 0x3 EQ ISZERO PUSH2 0xA1D JUMPI PUSH1 0x3 DUP2 SWAP1 SSTORE JUMPDEST DUP2 PUSH1 0x4 EQ ISZERO PUSH2 0xA2C JUMPI PUSH1 0x4 DUP2 SWAP1 SSTORE JUMPDEST POP POP JUMP JUMPDEST PUSH1 0x1A SLOAD DUP2 JUMP JUMPDEST PUSH1 0x23 SLOAD PUSH1 0x1 PUSH1 0x1 PUSH1 0xA0 SHL SUB AND SWAP1 JUMP JUMPDEST PUSH2 0xA4D PUSH2 0xE66 JUMP JUMPDEST PUSH1 0x1 PUSH1 0x1 PUSH1 0xA0 SHL SUB AND PUSH2 0xA5E PUSH2 0xB92 JUMP JUMPDEST PUSH1 0x1 PUSH1 0x1 PUSH1 0xA0 SHL SUB AND EQ PUSH2 0xA84 JUMPI PUSH1 0x40 MLOAD PUSH3 0x461BCD PUSH1 0xE5 SHL DUP2 MSTORE PUSH1 0x4 ADD PUSH2 0x846 SWAP1 PUSH2 0x104F JUMP JUMPDEST DUP2 PUSH1 0x1 EQ ISZERO PUSH2 0xA93 JUMPI PUSH1 0x15 DUP2 SWAP1 SSTORE JUMPDEST DUP2 PUSH1 0x2 EQ ISZERO PUSH2 0xAA2 JUMPI PUSH1 0x18 DUP2 SWAP1 SSTORE JUMPDEST DUP2 PUSH1 0x3 EQ ISZERO PUSH2 0xAB1 JUMPI PUSH1 0x16 DUP2 SWAP1 SSTORE JUMPDEST DUP2 PUSH1 0x4 EQ ISZERO PUSH2 0xAC0 JUMPI PUSH1 0x17 DUP2 SWAP1 SSTORE JUMPDEST DUP2 PUSH1 0x5 EQ ISZERO PUSH2 0xACF JUMPI PUSH1 0x19 DUP2 SWAP1 SSTORE JUMPDEST DUP2 PUSH1 0x6 EQ ISZERO PUSH2 0xADE JUMPI PUSH1 0x1A DUP2 SWAP1 SSTORE JUMPDEST DUP2 PUSH1 0x7 EQ ISZERO PUSH2 0xAED JUMPI PUSH1 0x1B DUP2 SWAP1 SSTORE JUMPDEST DUP2 PUSH1 0x8 EQ ISZERO PUSH2 0xA2C JUMPI PUSH1 0x1C SSTORE POP JUMP JUMPDEST PUSH1 0x17 SLOAD SWAP1 JUMP JUMPDEST PUSH2 0xB0A PUSH2 0xE66 JUMP JUMPDEST PUSH1 0x1 PUSH1 0x1 PUSH1 0xA0 SHL SUB AND PUSH2 0xB1B PUSH2 0xB92 JUMP JUMPDEST PUSH1 0x1 PUSH1 0x1 PUSH1 0xA0 SHL SUB AND EQ PUSH2 0xB41 JUMPI PUSH1 0x40 MLOAD PUSH3 0x461BCD PUSH1 0xE5 SHL DUP2 MSTORE PUSH1 0x4 ADD PUSH2 0x846 SWAP1 PUSH2 0x104F JUMP JUMPDEST PUSH2 0xB4B PUSH1 0x0 PUSH2 0xE6A JUMP JUMPDEST JUMP JUMPDEST PUSH1 0xA SLOAD SWAP1 JUMP JUMPDEST PUSH1 0x1B SLOAD SWAP1 JUMP JUMPDEST PUSH1 0x21 SLOAD PUSH1 0x1 PUSH1 0x1 PUSH1 0xA0 SHL SUB AND DUP2 JUMP JUMPDEST PUSH1 0x3 SLOAD SWAP1 JUMP JUMPDEST PUSH1 0x1E SLOAD PUSH1 0x1 PUSH1 0x1 PUSH1 0xA0 SHL SUB AND DUP2 JUMP JUMPDEST PUSH1 0xF SLOAD DUP2 JUMP JUMPDEST PUSH1 0x23 SLOAD PUSH1 0x1 PUSH1 0x1 PUSH1 0xA0 SHL SUB AND DUP2 JUMP JUMPDEST PUSH1 0x0 SLOAD PUSH1 0x1 PUSH1 0x1 PUSH1 0xA0 SHL SUB AND SWAP1 JUMP JUMPDEST PUSH1 0x3 SLOAD DUP2 JUMP JUMPDEST PUSH1 0x1 SLOAD SWAP1 JUMP JUMPDEST PUSH1 0x5 SLOAD SWAP1 JUMP JUMPDEST PUSH1 0x13 SLOAD SWAP1 JUMP JUMPDEST PUSH1 0x19 SLOAD SWAP1 JUMP JUMPDEST PUSH1 0x1 SLOAD DUP2 JUMP JUMPDEST PUSH1 0x8 SLOAD DUP2 JUMP JUMPDEST PUSH1 0x24 SLOAD PUSH1 0x1 PUSH1 0x1 PUSH1 0xA0 SHL SUB AND DUP2 JUMP JUMPDEST PUSH1 0xC SLOAD SWAP1 JUMP JUMPDEST PUSH1 0x19 SLOAD DUP2 JUMP JUMPDEST PUSH1 0x10 SLOAD SWAP1 JUMP JUMPDEST PUSH1 0x22 SLOAD PUSH1 0x1 PUSH1 0x1 PUSH1 0xA0 SHL SUB AND SWAP1 JUMP JUMPDEST PUSH1 0xC SLOAD DUP2 JUMP JUMPDEST PUSH1 0x12 SLOAD DUP2 JUMP JUMPDEST PUSH1 0x7 SLOAD SWAP1 JUMP JUMPDEST PUSH1 0x11 SLOAD SWAP1 JUMP JUMPDEST PUSH1 0x11 SLOAD DUP2 JUMP JUMPDEST PUSH1 0xD SLOAD SWAP1 JUMP JUMPDEST PUSH1 0x5 SLOAD DUP2 JUMP JUMPDEST PUSH1 0x2 SLOAD DUP2 JUMP JUMPDEST PUSH1 0x1E SLOAD PUSH1 0x1 PUSH1 0x1 PUSH1 0xA0 SHL SUB AND SWAP1 JUMP JUMPDEST PUSH1 0x1B SLOAD DUP2 JUMP JUMPDEST PUSH1 0x14 SLOAD DUP2 JUMP JUMPDEST PUSH1 0x13 SLOAD DUP2 JUMP JUMPDEST PUSH1 0x22 SLOAD PUSH1 0x1 PUSH1 0x1 PUSH1 0xA0 SHL SUB AND DUP2 JUMP JUMPDEST PUSH1 0x8 SLOAD SWAP1 JUMP JUMPDEST PUSH1 0x10 SLOAD DUP2 JUMP JUMPDEST PUSH1 0x17 SLOAD DUP2 JUMP JUMPDEST PUSH1 0x4 SLOAD SWAP1 JUMP JUMPDEST PUSH1 0xD SLOAD DUP2 JUMP JUMPDEST PUSH1 0x12 SLOAD SWAP1 JUMP JUMPDEST PUSH1 0x9 SLOAD DUP2 JUMP JUMPDEST PUSH1 0x2 SLOAD SWAP1 JUMP JUMPDEST PUSH1 0x15 SLOAD DUP2 JUMP JUMPDEST PUSH2 0xC99 PUSH2 0xE66 JUMP JUMPDEST PUSH1 0x1 PUSH1 0x1 PUSH1 0xA0 SHL SUB AND PUSH2 0xCAA PUSH2 0xB92 JUMP JUMPDEST PUSH1 0x1 PUSH1 0x1 PUSH1 0xA0 SHL SUB AND EQ PUSH2 0xCD0 JUMPI PUSH1 0x40 MLOAD PUSH3 0x461BCD PUSH1 0xE5 SHL DUP2 MSTORE PUSH1 0x4 ADD PUSH2 0x846 SWAP1 PUSH2 0x104F JUMP JUMPDEST DUP3 PUSH1 0x1 EQ ISZERO PUSH2 0xCDF JUMPI PUSH1 0x5 DUP3 SWAP1 SSTORE JUMPDEST DUP3 PUSH1 0x2 EQ ISZERO PUSH2 0xCEE JUMPI PUSH1 0x6 DUP3 SWAP1 SSTORE JUMPDEST DUP3 PUSH1 0x3 EQ ISZERO PUSH2 0xCFD JUMPI PUSH1 0x7 DUP3 SWAP1 SSTORE JUMPDEST DUP3 PUSH1 0x4 EQ ISZERO PUSH2 0xD0C JUMPI PUSH1 0x8 DUP3 SWAP1 SSTORE JUMPDEST DUP3 PUSH1 0x5 EQ ISZERO PUSH2 0xD1B JUMPI PUSH1 0x9 DUP3 SWAP1 SSTORE JUMPDEST DUP3 PUSH1 0x6 EQ ISZERO PUSH2 0xD2A JUMPI PUSH1 0xA DUP3 SWAP1 SSTORE JUMPDEST DUP3 PUSH1 0x7 EQ ISZERO PUSH2 0xD39 JUMPI PUSH1 0xB DUP3 SWAP1 SSTORE JUMPDEST DUP3 PUSH1 0x8 EQ ISZERO PUSH2 0xD48 JUMPI PUSH1 0xC DUP3 SWAP1 SSTORE JUMPDEST DUP3 PUSH1 0x9 EQ ISZERO PUSH2 0xD57 JUMPI PUSH1 0xD DUP3 SWAP1 SSTORE JUMPDEST DUP3 PUSH1 0xA EQ ISZERO PUSH2 0xD6F JUMPI PUSH1 0xE DUP1 SLOAD PUSH1 0xFF NOT AND DUP3 ISZERO ISZERO OR SWAP1 SSTORE JUMPDEST DUP3 PUSH1 0xB EQ ISZERO PUSH2 0xD7E JUMPI PUSH1 0xF DUP3 SWAP1 SSTORE JUMPDEST DUP3 PUSH1 0xC EQ ISZERO PUSH2 0xD8D JUMPI PUSH1 0x10 DUP3 SWAP1 SSTORE JUMPDEST DUP3 PUSH1 0xD EQ ISZERO PUSH2 0xD9C JUMPI PUSH1 0x11 DUP3 SWAP1 SSTORE JUMPDEST DUP3 PUSH1 0xE EQ ISZERO PUSH2 0xDAB JUMPI PUSH1 0x12 DUP3 SWAP1 SSTORE JUMPDEST DUP3 PUSH1 0xF EQ ISZERO PUSH2 0xDBA JUMPI PUSH1 0x13 DUP3 SWAP1 SSTORE JUMPDEST DUP3 PUSH1 0x10 EQ ISZERO PUSH2 0xDC9 JUMPI PUSH1 0x14 DUP3 SWAP1 SSTORE JUMPDEST POP POP POP JUMP JUMPDEST PUSH1 0x1C SLOAD SWAP1 JUMP JUMPDEST PUSH2 0xDDC PUSH2 0xE66 JUMP JUMPDEST PUSH1 0x1 PUSH1 0x1 PUSH1 0xA0 SHL SUB AND PUSH2 0xDED PUSH2 0xB92 JUMP JUMPDEST PUSH1 0x1 PUSH1 0x1 PUSH1 0xA0 SHL SUB AND EQ PUSH2 0xE13 JUMPI PUSH1 0x40 MLOAD PUSH3 0x461BCD PUSH1 0xE5 SHL DUP2 MSTORE PUSH1 0x4 ADD PUSH2 0x846 SWAP1 PUSH2 0x104F JUMP JUMPDEST PUSH1 0x1 PUSH1 0x1 PUSH1 0xA0 SHL SUB DUP2 AND PUSH2 0xE39 JUMPI PUSH1 0x40 MLOAD PUSH3 0x461BCD PUSH1 0xE5 SHL DUP2 MSTORE PUSH1 0x4 ADD PUSH2 0x846 SWAP1 PUSH2 0x1009 JUMP JUMPDEST PUSH2 0xE42 DUP2 PUSH2 0xE6A JUMP JUMPDEST POP JUMP JUMPDEST PUSH1 0x7 SLOAD DUP2 JUMP JUMPDEST PUSH1 0x1D SLOAD PUSH1 0x1 PUSH1 0x1 PUSH1 0xA0 SHL SUB AND DUP2 JUMP JUMPDEST PUSH1 0xB SLOAD DUP2 JUMP JUMPDEST PUSH1 0x6 SLOAD SWAP1 JUMP JUMPDEST CALLER SWAP1 JUMP JUMPDEST PUSH1 0x0 DUP1 SLOAD PUSH1 0x1 PUSH1 0x1 PUSH1 0xA0 SHL SUB DUP4 DUP2 AND PUSH1 0x1 PUSH1 0x1 PUSH1 0xA0 SHL SUB NOT DUP4 AND DUP2 OR DUP5 SSTORE PUSH1 0x40 MLOAD SWAP2 SWAP1 SWAP3 AND SWAP3 DUP4 SWAP2 PUSH32 0x8BE0079C531659141344CD1FD0A4F28419497F9722A3DAAFE3B4186F6B6457E0 SWAP2 SWAP1 LOG3 POP POP JUMP JUMPDEST DUP1 CALLDATALOAD PUSH1 0x1 PUSH1 0x1 PUSH1 0xA0 SHL SUB DUP2 AND DUP2 EQ PUSH2 0xED1 JUMPI PUSH1 0x0 DUP1 REVERT JUMPDEST SWAP2 SWAP1 POP JUMP JUMPDEST PUSH1 0x0 PUSH1 0x20 DUP3 DUP5 SUB SLT ISZERO PUSH2 0xEE7 JUMPI DUP1 DUP2 REVERT JUMPDEST PUSH2 0xEF0 DUP3 PUSH2 0xEBA JUMP JUMPDEST SWAP4 SWAP3 POP POP POP JUMP JUMPDEST PUSH1 0x0 DUP1 PUSH1 0x0 DUP1 PUSH1 0x0 DUP1 PUSH1 0x0 DUP1 PUSH2 0x100 DUP10 DUP12 SUB SLT ISZERO PUSH2 0xF13 JUMPI DUP4 DUP5 REVERT JUMPDEST PUSH2 0xF1C DUP10 PUSH2 0xEBA JUMP JUMPDEST SWAP8 POP PUSH2 0xF2A PUSH1 0x20 DUP11 ADD PUSH2 0xEBA JUMP JUMPDEST SWAP7 POP PUSH2 0xF38 PUSH1 0x40 DUP11 ADD PUSH2 0xEBA JUMP JUMPDEST SWAP6 POP PUSH2 0xF46 PUSH1 0x60 DUP11 ADD PUSH2 0xEBA JUMP JUMPDEST SWAP5 POP PUSH2 0xF54 PUSH1 0x80 DUP11 ADD PUSH2 0xEBA JUMP JUMPDEST SWAP4 POP PUSH2 0xF62 PUSH1 0xA0 DUP11 ADD PUSH2 0xEBA JUMP JUMPDEST SWAP3 POP PUSH2 0xF70 PUSH1 0xC0 DUP11 ADD PUSH2 0xEBA JUMP JUMPDEST SWAP2 POP PUSH2 0xF7E PUSH1 0xE0 DUP11 ADD PUSH2 0xEBA JUMP JUMPDEST SWAP1 POP SWAP3 SWAP6 SWAP9 POP SWAP3 SWAP6 SWAP9 SWAP1 SWAP4 SWAP7 POP JUMP JUMPDEST PUSH1 0x0 DUP1 PUSH1 0x40 DUP4 DUP6 SUB SLT ISZERO PUSH2 0xF9F JUMPI DUP2 DUP3 REVERT JUMPDEST POP POP DUP1 CALLDATALOAD SWAP3 PUSH1 0x20 SWAP1 SWAP2 ADD CALLDATALOAD SWAP2 POP JUMP JUMPDEST PUSH1 0x0 DUP1 PUSH1 0x0 PUSH1 0x60 DUP5 DUP7 SUB SLT ISZERO PUSH2 0xFC2 JUMPI DUP3 DUP4 REVERT JUMPDEST DUP4 CALLDATALOAD SWAP3 POP PUSH1 0x20 DUP5 ADD CALLDATALOAD SWAP2 POP PUSH1 0x40 DUP5 ADD CALLDATALOAD DUP1 ISZERO ISZERO DUP2 EQ PUSH2 0xFDF JUMPI DUP2 DUP3 REVERT JUMPDEST DUP1 SWAP2 POP POP SWAP3 POP SWAP3 POP SWAP3 JUMP JUMPDEST PUSH1 0x1 PUSH1 0x1 PUSH1 0xA0 SHL SUB SWAP2 SWAP1 SWAP2 AND DUP2 MSTORE PUSH1 0x20 ADD SWAP1 JUMP JUMPDEST SWAP1 ISZERO ISZERO DUP2 MSTORE PUSH1 0x20 ADD SWAP1 JUMP JUMPDEST PUSH1 0x20 DUP1 DUP3 MSTORE PUSH1 0x26 SWAP1 DUP3 ADD MSTORE PUSH32 0x4F776E61626C653A206E6577206F776E657220697320746865207A65726F2061 PUSH1 0x40 DUP3 ADD MSTORE PUSH6 0x646472657373 PUSH1 0xD0 SHL PUSH1 0x60 DUP3 ADD MSTORE PUSH1 0x80 ADD SWAP1 JUMP JUMPDEST PUSH1 0x20 DUP1 DUP3 MSTORE DUP2 DUP2 ADD MSTORE PUSH32 0x4F776E61626C653A2063616C6C6572206973206E6F7420746865206F776E6572 PUSH1 0x40 DUP3 ADD MSTORE PUSH1 0x60 ADD SWAP1 JUMP JUMPDEST SWAP1 DUP2 MSTORE PUSH1 0x20 ADD SWAP1 JUMP INVALID LOG2 PUSH5 0x6970667358 0x22 SLT KECCAK256 0xF6 XOR GT 0xB6 PUSH29 0x8F0288E8AAADD2497B77318ABAA176010335B6E27BA71E5CF1EAD46473 PUSH16 0x6C634300080000330000000000000000 "
				},
				"gasEstimates": {
					"creation": {
						"codeDepositCost": "858200",
						"executionCost": "584393",
						"totalCost": "1442593"
					},
					"external": {
						"AddressManager()": "1182",
						"FORMAT_COMMIT_ROUND_DURATION()": "1162",
						"FORMAT_DATA_BATCH_SIZE()": "1139",
						"FORMAT_MAX_CONSENSUS_WORKER_COUNT()": "1117",
						"FORMAT_MIN_CONSENSUS_WORKER_COUNT()": "1097",
						"FORMAT_MIN_REP_Data()": "1141",
						"FORMAT_MIN_REWARD_Data()": "1096",
						"FORMAT_MIN_STAKE()": "1163",
						"FORMAT_REVEAL_ROUND_DURATION()": "1096",
						"FormattingSystem()": "1159",
						"MAX_CONTRACT_STORED_BATCHES()": "1140",
						"MAX_SUCCEEDING_NOVOTES()": "1140",
						"MAX_TOTAL_WORKERS()": "1163",
						"MAX_UPDATE_ITERATIONS()": "1161",
						"NOVOTE_REGISTRATION_WAIT_DURATION()": "1118",
						"RepManager()": "1161",
						"RewardManager()": "1226",
						"SPOT_COMMIT_ROUND_DURATION()": "1095",
						"SPOT_DATA_BATCH_SIZE()": "1139",
						"SPOT_GLOBAL_MAX_SPOT_PER_PERIOD()": "1095",
						"SPOT_INTER_ALLOCATION_DURATION()": "1161",
						"SPOT_MAX_CONSENSUS_WORKER_COUNT()": "1096",
						"SPOT_MAX_SPOT_PER_USER_PER_PERIOD()": "1095",
						"SPOT_MIN_CONSENSUS_WORKER_COUNT()": "1116",
						"SPOT_MIN_REP_Data()": "1118",
						"SPOT_MIN_REWARD_Data()": "1160",
						"SPOT_MIN_STAKE()": "1098",
						"SPOT_NB_TIMEFRAMES()": "1140",
						"SPOT_REVEAL_ROUND_DURATION()": "1185",
						"SPOT_TIMEFRAME_DURATION()": "1095",
						"SPOT_TOGGLE_ENABLED()": "1130",
						"SpottingSystem()": "1204",
						"StakeManager()": "1226",
						"VOTE_QUORUM()": "1161",
						"getExordeToken()": "1227",
						"getFormattingSystem()": "1160",
						"getMaxTotalWorkers()": "1183",
						"getRepManager()": "1206",
						"getRewardManager()": "1184",
						"getSpottingSystem()": "1138",
						"getStakeManager()": "1225",
						"getVoteQuorum()": "1117",
						"get_FORMAT_COMMIT_ROUND_DURATION()": "1141",
						"get_FORMAT_DATA_BATCH_SIZE()": "1141",
						"get_FORMAT_MAX_CONSENSUS_WORKER_COUNT()": "1162",
						"get_FORMAT_MIN_CONSENSUS_WORKER_COUNT()": "1163",
						"get_FORMAT_MIN_REP_Data()": "1183",
						"get_FORMAT_MIN_REWARD_Data()": "1118",
						"get_FORMAT_MIN_STAKE()": "1097",
						"get_FORMAT_REVEAL_ROUND_DURATION()": "1120",
						"get_MAX_CONTRACT_STORED_BATCHES()": "1139",
						"get_MAX_SUCCEEDING_NOVOTES()": "1119",
						"get_MAX_UPDATE_ITERATIONS()": "1162",
						"get_NOVOTE_REGISTRATION_WAIT_DURATION()": "1097",
						"get_SPOT_COMMIT_ROUND_DURATION()": "1096",
						"get_SPOT_DATA_BATCH_SIZE()": "1097",
						"get_SPOT_GLOBAL_MAX_SPOT_PER_PERIOD()": "1184",
						"get_SPOT_INTER_ALLOCATION_DURATION()": "1117",
						"get_SPOT_MAX_CONSENSUS_WORKER_COUNT()": "1184",
						"get_SPOT_MAX_SPOT_PER_USER_PER_PERIOD()": "1184",
						"get_SPOT_MIN_CONSENSUS_WORKER_COUNT()": "1162",
						"get_SPOT_MIN_REP_Data()": "1140",
						"get_SPOT_MIN_REWARD_Data()": "1141",
						"get_SPOT_MIN_STAKE()": "1182",
						"get_SPOT_NB_TIMEFRAMES()": "1183",
						"get_SPOT_REVEAL_ROUND_DURATION()": "1096",
						"get_SPOT_TIMEFRAME_DURATION()": "1119",
						"get_SPOT_TOGGLE_ENABLED()": "1174",
						"getsFuelSystem()": "1161",
						"owner()": "1181",
						"renounceOwnership()": "23660",
						"sFuel()": "1160",
						"token()": "1180",
						"transferOwnership(address)": "23765",
						"updateContractsAddresses(address,address,address,address,address,address,address,address)": "infinite",
						"updateFormattingParameters(uint256,uint256)": "161561",
						"updateGeneralParameters(uint256,uint256)": "81475",
						"updateSpottingParameters(uint256,uint256,bool)": "322756"
					}
				},
				"methodIdentifiers": {
					"AddressManager()": "7a34da67",
					"FORMAT_COMMIT_ROUND_DURATION()": "b368b928",
					"FORMAT_DATA_BATCH_SIZE()": "ea663ed9",
					"FORMAT_MAX_CONSENSUS_WORKER_COUNT()": "e28fdeec",
					"FORMAT_MIN_CONSENSUS_WORKER_COUNT()": "544037a5",
					"FORMAT_MIN_REP_Data()": "134667be",
					"FORMAT_MIN_REWARD_Data()": "ca820e9b",
					"FORMAT_MIN_STAKE()": "2c658ec0",
					"FORMAT_REVEAL_ROUND_DURATION()": "62c11afa",
					"FormattingSystem()": "8d289f8f",
					"MAX_CONTRACT_STORED_BATCHES()": "4e5638f5",
					"MAX_SUCCEEDING_NOVOTES()": "d4efd2ba",
					"MAX_TOTAL_WORKERS()": "a327181b",
					"MAX_UPDATE_ITERATIONS()": "90d10b6e",
					"NOVOTE_REGISTRATION_WAIT_DURATION()": "d0eed967",
					"RepManager()": "29a47bc7",
					"RewardManager()": "51912f29",
					"SPOT_COMMIT_ROUND_DURATION()": "e6fdd4c0",
					"SPOT_DATA_BATCH_SIZE()": "c6eacbfe",
					"SPOT_GLOBAL_MAX_SPOT_PER_PERIOD()": "e0de3d7c",
					"SPOT_INTER_ALLOCATION_DURATION()": "e5f14824",
					"SPOT_MAX_CONSENSUS_WORKER_COUNT()": "a35b3b09",
					"SPOT_MAX_SPOT_PER_USER_PER_PERIOD()": "bf09ff70",
					"SPOT_MIN_CONSENSUS_WORKER_COUNT()": "fb50a473",
					"SPOT_MIN_REP_Data()": "b5c92a3f",
					"SPOT_MIN_REWARD_Data()": "fe722749",
					"SPOT_MIN_STAKE()": "00653ff8",
					"SPOT_NB_TIMEFRAMES()": "b6118450",
					"SPOT_REVEAL_ROUND_DURATION()": "1d0fb88e",
					"SPOT_TIMEFRAME_DURATION()": "87ce6311",
					"SPOT_TOGGLE_ENABLED()": "36fc43fc",
					"SpottingSystem()": "d8645d37",
					"StakeManager()": "83cc6ef2",
					"VOTE_QUORUM()": "c7761fab",
					"getExordeToken()": "2e2f93f3",
					"getFormattingSystem()": "68bd3615",
					"getMaxTotalWorkers()": "98a54e2b",
					"getRepManager()": "0855d151",
					"getRewardManager()": "04e76c8f",
					"getSpottingSystem()": "b45d9d8d",
					"getStakeManager()": "ca64f9e7",
					"getVoteQuorum()": "ea19733c",
					"get_FORMAT_COMMIT_ROUND_DURATION()": "a02f9914",
					"get_FORMAT_DATA_BATCH_SIZE()": "57716b7f",
					"get_FORMAT_MAX_CONSENSUS_WORKER_COUNT()": "70d29bdf",
					"get_FORMAT_MIN_CONSENSUS_WORKER_COUNT()": "166ff4c7",
					"get_FORMAT_MIN_REP_Data()": "f250ae2d",
					"get_FORMAT_MIN_REWARD_Data()": "77ad500c",
					"get_FORMAT_MIN_STAKE()": "23aea691",
					"get_FORMAT_REVEAL_ROUND_DURATION()": "02c5a49f",
					"get_MAX_CONTRACT_STORED_BATCHES()": "e3115d3c",
					"get_MAX_SUCCEEDING_NOVOTES()": "9fb491f6",
					"get_MAX_UPDATE_ITERATIONS()": "7d630cb0",
					"get_NOVOTE_REGISTRATION_WAIT_DURATION()": "0f1f0ffe",
					"get_SPOT_COMMIT_ROUND_DURATION()": "3692616a",
					"get_SPOT_DATA_BATCH_SIZE()": "9d1f2ada",
					"get_SPOT_GLOBAL_MAX_SPOT_PER_PERIOD()": "b38e885e",
					"get_SPOT_INTER_ALLOCATION_DURATION()": "c4a306f8",
					"get_SPOT_MAX_CONSENSUS_WORKER_COUNT()": "dfeceed7",
					"get_SPOT_MAX_SPOT_PER_USER_PER_PERIOD()": "be250988",
					"get_SPOT_MIN_CONSENSUS_WORKER_COUNT()": "bd40ef4c",
					"get_SPOT_MIN_REP_Data()": "acbe4f3e",
					"get_SPOT_MIN_REWARD_Data()": "2c1480c0",
					"get_SPOT_MIN_STAKE()": "ff622dda",
					"get_SPOT_NB_TIMEFRAMES()": "e66d543a",
					"get_SPOT_REVEAL_ROUND_DURATION()": "72e54030",
					"get_SPOT_TIMEFRAME_DURATION()": "0f78cc76",
					"get_SPOT_TOGGLE_ENABLED()": "4e87c5a8",
					"getsFuelSystem()": "557c1abe",
					"owner()": "8da5cb5b",
					"renounceOwnership()": "715018a6",
					"sFuel()": "ab43e78d",
					"token()": "fc0c546a",
					"transferOwnership(address)": "f2fde38b",
					"updateContractsAddresses(address,address,address,address,address,address,address,address)": "5e481a18",
					"updateFormattingParameters(uint256,uint256)": "6b13edc1",
					"updateGeneralParameters(uint256,uint256)": "61879075",
					"updateSpottingParameters(uint256,uint256,bool)": "ee37f4a6"
				}
			},
			"storageLayout": {
				"storage": [
					{
						"astId": 7,
						"contract": "contracts/worksystems/Parameters.sol:Parameters",
						"label": "_owner",
						"offset": 0,
						"slot": "0",
						"type": "t_address"
					},
					{
						"astId": 616,
						"contract": "contracts/worksystems/Parameters.sol:Parameters",
						"label": "MAX_TOTAL_WORKERS",
						"offset": 0,
						"slot": "1",
						"type": "t_uint256"
					},
					{
						"astId": 619,
						"contract": "contracts/worksystems/Parameters.sol:Parameters",
						"label": "VOTE_QUORUM",
						"offset": 0,
						"slot": "2",
						"type": "t_uint256"
					},
					{
						"astId": 622,
						"contract": "contracts/worksystems/Parameters.sol:Parameters",
						"label": "MAX_UPDATE_ITERATIONS",
						"offset": 0,
						"slot": "3",
						"type": "t_uint256"
					},
					{
						"astId": 625,
						"contract": "contracts/worksystems/Parameters.sol:Parameters",
						"label": "MAX_CONTRACT_STORED_BATCHES",
						"offset": 0,
						"slot": "4",
						"type": "t_uint256"
					},
					{
						"astId": 628,
						"contract": "contracts/worksystems/Parameters.sol:Parameters",
						"label": "SPOT_DATA_BATCH_SIZE",
						"offset": 0,
						"slot": "5",
						"type": "t_uint256"
					},
					{
						"astId": 636,
						"contract": "contracts/worksystems/Parameters.sol:Parameters",
						"label": "SPOT_MIN_STAKE",
						"offset": 0,
						"slot": "6",
						"type": "t_uint256"
					},
					{
						"astId": 639,
						"contract": "contracts/worksystems/Parameters.sol:Parameters",
						"label": "SPOT_MIN_CONSENSUS_WORKER_COUNT",
						"offset": 0,
						"slot": "7",
						"type": "t_uint256"
					},
					{
						"astId": 642,
						"contract": "contracts/worksystems/Parameters.sol:Parameters",
						"label": "SPOT_MAX_CONSENSUS_WORKER_COUNT",
						"offset": 0,
						"slot": "8",
						"type": "t_uint256"
					},
					{
						"astId": 645,
						"contract": "contracts/worksystems/Parameters.sol:Parameters",
						"label": "SPOT_COMMIT_ROUND_DURATION",
						"offset": 0,
						"slot": "9",
						"type": "t_uint256"
					},
					{
						"astId": 648,
						"contract": "contracts/worksystems/Parameters.sol:Parameters",
						"label": "SPOT_REVEAL_ROUND_DURATION",
						"offset": 0,
						"slot": "10",
						"type": "t_uint256"
					},
					{
						"astId": 656,
						"contract": "contracts/worksystems/Parameters.sol:Parameters",
						"label": "SPOT_MIN_REWARD_Data",
						"offset": 0,
						"slot": "11",
						"type": "t_uint256"
					},
					{
						"astId": 664,
						"contract": "contracts/worksystems/Parameters.sol:Parameters",
						"label": "SPOT_MIN_REP_Data",
						"offset": 0,
						"slot": "12",
						"type": "t_uint256"
					},
					{
						"astId": 667,
						"contract": "contracts/worksystems/Parameters.sol:Parameters",
						"label": "SPOT_INTER_ALLOCATION_DURATION",
						"offset": 0,
						"slot": "13",
						"type": "t_uint256"
					},
					{
						"astId": 670,
						"contract": "contracts/worksystems/Parameters.sol:Parameters",
						"label": "SPOT_TOGGLE_ENABLED",
						"offset": 0,
						"slot": "14",
						"type": "t_bool"
					},
					{
						"astId": 675,
						"contract": "contracts/worksystems/Parameters.sol:Parameters",
						"label": "SPOT_TIMEFRAME_DURATION",
						"offset": 0,
						"slot": "15",
						"type": "t_uint256"
					},
					{
						"astId": 678,
						"contract": "contracts/worksystems/Parameters.sol:Parameters",
						"label": "SPOT_GLOBAL_MAX_SPOT_PER_PERIOD",
						"offset": 0,
						"slot": "16",
						"type": "t_uint256"
					},
					{
						"astId": 681,
						"contract": "contracts/worksystems/Parameters.sol:Parameters",
						"label": "SPOT_MAX_SPOT_PER_USER_PER_PERIOD",
						"offset": 0,
						"slot": "17",
						"type": "t_uint256"
					},
					{
						"astId": 684,
						"contract": "contracts/worksystems/Parameters.sol:Parameters",
						"label": "SPOT_NB_TIMEFRAMES",
						"offset": 0,
						"slot": "18",
						"type": "t_uint256"
					},
					{
						"astId": 687,
						"contract": "contracts/worksystems/Parameters.sol:Parameters",
						"label": "MAX_SUCCEEDING_NOVOTES",
						"offset": 0,
						"slot": "19",
						"type": "t_uint256"
					},
					{
						"astId": 690,
						"contract": "contracts/worksystems/Parameters.sol:Parameters",
						"label": "NOVOTE_REGISTRATION_WAIT_DURATION",
						"offset": 0,
						"slot": "20",
						"type": "t_uint256"
					},
					{
						"astId": 693,
						"contract": "contracts/worksystems/Parameters.sol:Parameters",
						"label": "FORMAT_DATA_BATCH_SIZE",
						"offset": 0,
						"slot": "21",
						"type": "t_uint256"
					},
					{
						"astId": 696,
						"contract": "contracts/worksystems/Parameters.sol:Parameters",
						"label": "FORMAT_MIN_CONSENSUS_WORKER_COUNT",
						"offset": 0,
						"slot": "22",
						"type": "t_uint256"
					},
					{
						"astId": 699,
						"contract": "contracts/worksystems/Parameters.sol:Parameters",
						"label": "FORMAT_MAX_CONSENSUS_WORKER_COUNT",
						"offset": 0,
						"slot": "23",
						"type": "t_uint256"
					},
					{
						"astId": 707,
						"contract": "contracts/worksystems/Parameters.sol:Parameters",
						"label": "FORMAT_MIN_STAKE",
						"offset": 0,
						"slot": "24",
						"type": "t_uint256"
					},
					{
						"astId": 710,
						"contract": "contracts/worksystems/Parameters.sol:Parameters",
						"label": "FORMAT_COMMIT_ROUND_DURATION",
						"offset": 0,
						"slot": "25",
						"type": "t_uint256"
					},
					{
						"astId": 713,
						"contract": "contracts/worksystems/Parameters.sol:Parameters",
						"label": "FORMAT_REVEAL_ROUND_DURATION",
						"offset": 0,
						"slot": "26",
						"type": "t_uint256"
					},
					{
						"astId": 721,
						"contract": "contracts/worksystems/Parameters.sol:Parameters",
						"label": "FORMAT_MIN_REWARD_Data",
						"offset": 0,
						"slot": "27",
						"type": "t_uint256"
					},
					{
						"astId": 729,
						"contract": "contracts/worksystems/Parameters.sol:Parameters",
						"label": "FORMAT_MIN_REP_Data",
						"offset": 0,
						"slot": "28",
						"type": "t_uint256"
					},
					{
						"astId": 731,
						"contract": "contracts/worksystems/Parameters.sol:Parameters",
						"label": "token",
						"offset": 0,
						"slot": "29",
						"type": "t_address"
					},
					{
						"astId": 733,
						"contract": "contracts/worksystems/Parameters.sol:Parameters",
						"label": "StakeManager",
						"offset": 0,
						"slot": "30",
						"type": "t_address"
					},
					{
						"astId": 735,
						"contract": "contracts/worksystems/Parameters.sol:Parameters",
						"label": "RepManager",
						"offset": 0,
						"slot": "31",
						"type": "t_address"
					},
					{
						"astId": 737,
						"contract": "contracts/worksystems/Parameters.sol:Parameters",
						"label": "RewardManager",
						"offset": 0,
						"slot": "32",
						"type": "t_address"
					},
					{
						"astId": 739,
						"contract": "contracts/worksystems/Parameters.sol:Parameters",
						"label": "AddressManager",
						"offset": 0,
						"slot": "33",
						"type": "t_address"
					},
					{
						"astId": 741,
						"contract": "contracts/worksystems/Parameters.sol:Parameters",
						"label": "SpottingSystem",
						"offset": 0,
						"slot": "34",
						"type": "t_address"
					},
					{
						"astId": 743,
						"contract": "contracts/worksystems/Parameters.sol:Parameters",
						"label": "FormattingSystem",
						"offset": 0,
						"slot": "35",
						"type": "t_address"
					},
					{
						"astId": 745,
						"contract": "contracts/worksystems/Parameters.sol:Parameters",
						"label": "sFuel",
						"offset": 0,
						"slot": "36",
						"type": "t_address"
					}
				],
				"types": {
					"t_address": {
						"encoding": "inplace",
						"label": "address",
						"numberOfBytes": "20"
					},
					"t_bool": {
						"encoding": "inplace",
						"label": "bool",
						"numberOfBytes": "1"
					},
					"t_uint256": {
						"encoding": "inplace",
						"label": "uint256",
						"numberOfBytes": "32"
					}
				}
			},
			"userdoc": {
				"kind": "user",
				"methods": {},
				"version": 1
			}
		}
	}
}