{
	"worksystems/Parameters.sol": {
		"Parameters": {
			"abi": [
				{
					"anonymous": false,
					"inputs": [
						{
							"indexed": true,
							"internalType": "address",
							"name": "previousOwner",
							"type": "address"
						},
						{
							"indexed": true,
							"internalType": "address",
							"name": "newOwner",
							"type": "address"
						}
					],
					"name": "OwnershipTransferred",
					"type": "event"
				},
				{
					"inputs": [],
					"name": "ARCHIVING_COMMIT_ROUND_DURATION",
					"outputs": [
						{
							"internalType": "uint256",
							"name": "",
							"type": "uint256"
						}
					],
					"stateMutability": "view",
					"type": "function"
				},
				{
					"inputs": [],
					"name": "ARCHIVING_DATA_BATCH_SIZE",
					"outputs": [
						{
							"internalType": "uint256",
							"name": "",
							"type": "uint256"
						}
					],
					"stateMutability": "view",
					"type": "function"
				},
				{
					"inputs": [],
					"name": "ARCHIVING_MAX_CONSENSUS_WORKER_COUNT",
					"outputs": [
						{
							"internalType": "uint256",
							"name": "",
							"type": "uint256"
						}
					],
					"stateMutability": "view",
					"type": "function"
				},
				{
					"inputs": [],
					"name": "ARCHIVING_MIN_CONSENSUS_WORKER_COUNT",
					"outputs": [
						{
							"internalType": "uint256",
							"name": "",
							"type": "uint256"
						}
					],
					"stateMutability": "view",
					"type": "function"
				},
				{
					"inputs": [],
					"name": "ARCHIVING_MIN_REP_DataValidation",
					"outputs": [
						{
							"internalType": "uint256",
							"name": "",
							"type": "uint256"
						}
					],
					"stateMutability": "view",
					"type": "function"
				},
				{
					"inputs": [],
					"name": "ARCHIVING_MIN_REWARD_DataValidation",
					"outputs": [
						{
							"internalType": "uint256",
							"name": "",
							"type": "uint256"
						}
					],
					"stateMutability": "view",
					"type": "function"
				},
				{
					"inputs": [],
					"name": "ARCHIVING_MIN_STAKE",
					"outputs": [
						{
							"internalType": "uint256",
							"name": "",
							"type": "uint256"
						}
					],
					"stateMutability": "view",
					"type": "function"
				},
				{
					"inputs": [],
					"name": "ARCHIVING_REVEAL_ROUND_DURATION",
					"outputs": [
						{
							"internalType": "uint256",
							"name": "",
							"type": "uint256"
						}
					],
					"stateMutability": "view",
					"type": "function"
				},
				{
					"inputs": [],
					"name": "AddressManager",
					"outputs": [
						{
							"internalType": "address",
							"name": "",
							"type": "address"
						}
					],
					"stateMutability": "view",
					"type": "function"
				},
				{
					"inputs": [],
					"name": "ArchivingSystem",
					"outputs": [
						{
							"internalType": "address",
							"name": "",
							"type": "address"
						}
					],
					"stateMutability": "view",
					"type": "function"
				},
				{
					"inputs": [],
					"name": "COMPLIANCE_COMMIT_ROUND_DURATION",
					"outputs": [
						{
							"internalType": "uint256",
							"name": "",
							"type": "uint256"
						}
					],
					"stateMutability": "view",
					"type": "function"
				},
				{
					"inputs": [],
					"name": "COMPLIANCE_DATA_BATCH_SIZE",
					"outputs": [
						{
							"internalType": "uint256",
							"name": "",
							"type": "uint256"
						}
					],
					"stateMutability": "view",
					"type": "function"
				},
				{
					"inputs": [],
					"name": "COMPLIANCE_MAX_CONSENSUS_WORKER_COUNT",
					"outputs": [
						{
							"internalType": "uint256",
							"name": "",
							"type": "uint256"
						}
					],
					"stateMutability": "view",
					"type": "function"
				},
				{
					"inputs": [],
					"name": "COMPLIANCE_MIN_CONSENSUS_WORKER_COUNT",
					"outputs": [
						{
							"internalType": "uint256",
							"name": "",
							"type": "uint256"
						}
					],
					"stateMutability": "view",
					"type": "function"
				},
				{
					"inputs": [],
					"name": "COMPLIANCE_MIN_REP_DataValidation",
					"outputs": [
						{
							"internalType": "uint256",
							"name": "",
							"type": "uint256"
						}
					],
					"stateMutability": "view",
					"type": "function"
				},
				{
					"inputs": [],
					"name": "COMPLIANCE_MIN_REWARD_DataValidation",
					"outputs": [
						{
							"internalType": "uint256",
							"name": "",
							"type": "uint256"
						}
					],
					"stateMutability": "view",
					"type": "function"
				},
				{
					"inputs": [],
					"name": "COMPLIANCE_MIN_STAKE",
					"outputs": [
						{
							"internalType": "uint256",
							"name": "",
							"type": "uint256"
						}
					],
					"stateMutability": "view",
					"type": "function"
				},
				{
					"inputs": [],
					"name": "COMPLIANCE_REVEAL_ROUND_DURATION",
					"outputs": [
						{
							"internalType": "uint256",
							"name": "",
							"type": "uint256"
						}
					],
					"stateMutability": "view",
					"type": "function"
				},
				{
					"inputs": [],
					"name": "ComplianceSystem",
					"outputs": [
						{
							"internalType": "address",
							"name": "",
							"type": "address"
						}
					],
					"stateMutability": "view",
					"type": "function"
				},
				{
					"inputs": [],
					"name": "INDEXING_COMMIT_ROUND_DURATION",
					"outputs": [
						{
							"internalType": "uint256",
							"name": "",
							"type": "uint256"
						}
					],
					"stateMutability": "view",
					"type": "function"
				},
				{
					"inputs": [],
					"name": "INDEXING_DATA_BATCH_SIZE",
					"outputs": [
						{
							"internalType": "uint256",
							"name": "",
							"type": "uint256"
						}
					],
					"stateMutability": "view",
					"type": "function"
				},
				{
					"inputs": [],
					"name": "INDEXING_MAX_CONSENSUS_WORKER_COUNT",
					"outputs": [
						{
							"internalType": "uint256",
							"name": "",
							"type": "uint256"
						}
					],
					"stateMutability": "view",
					"type": "function"
				},
				{
					"inputs": [],
					"name": "INDEXING_MIN_CONSENSUS_WORKER_COUNT",
					"outputs": [
						{
							"internalType": "uint256",
							"name": "",
							"type": "uint256"
						}
					],
					"stateMutability": "view",
					"type": "function"
				},
				{
					"inputs": [],
					"name": "INDEXING_MIN_REP_DataValidation",
					"outputs": [
						{
							"internalType": "uint256",
							"name": "",
							"type": "uint256"
						}
					],
					"stateMutability": "view",
					"type": "function"
				},
				{
					"inputs": [],
					"name": "INDEXING_MIN_REWARD_DataValidation",
					"outputs": [
						{
							"internalType": "uint256",
							"name": "",
							"type": "uint256"
						}
					],
					"stateMutability": "view",
					"type": "function"
				},
				{
					"inputs": [],
					"name": "INDEXING_MIN_STAKE",
					"outputs": [
						{
							"internalType": "uint256",
							"name": "",
							"type": "uint256"
						}
					],
					"stateMutability": "view",
					"type": "function"
				},
				{
					"inputs": [],
					"name": "INDEXING_REVEAL_ROUND_DURATION",
					"outputs": [
						{
							"internalType": "uint256",
							"name": "",
							"type": "uint256"
						}
					],
					"stateMutability": "view",
					"type": "function"
				},
				{
					"inputs": [],
					"name": "IndexingSystem",
					"outputs": [
						{
							"internalType": "address",
							"name": "",
							"type": "address"
						}
					],
					"stateMutability": "view",
					"type": "function"
				},
				{
					"inputs": [],
					"name": "MAX_CONTRACT_STORED_BATCHES",
					"outputs": [
						{
							"internalType": "uint256",
							"name": "",
							"type": "uint256"
						}
					],
					"stateMutability": "view",
					"type": "function"
				},
				{
					"inputs": [],
					"name": "MAX_SUCCEEDING_NOVOTES",
					"outputs": [
						{
							"internalType": "uint256",
							"name": "",
							"type": "uint256"
						}
					],
					"stateMutability": "view",
					"type": "function"
				},
				{
					"inputs": [],
					"name": "MAX_TOTAL_WORKERS",
					"outputs": [
						{
							"internalType": "uint256",
							"name": "",
							"type": "uint256"
						}
					],
					"stateMutability": "view",
					"type": "function"
				},
				{
					"inputs": [],
					"name": "MAX_UPDATE_ITERATIONS",
					"outputs": [
						{
							"internalType": "uint256",
							"name": "",
							"type": "uint256"
						}
					],
					"stateMutability": "view",
					"type": "function"
				},
				{
					"inputs": [],
					"name": "NOVOTE_REGISTRATION_WAIT_DURATION",
					"outputs": [
						{
							"internalType": "uint256",
							"name": "",
							"type": "uint256"
						}
					],
					"stateMutability": "view",
					"type": "function"
				},
				{
					"inputs": [],
					"name": "RepManager",
					"outputs": [
						{
							"internalType": "address",
							"name": "",
							"type": "address"
						}
					],
					"stateMutability": "view",
					"type": "function"
				},
				{
					"inputs": [],
					"name": "Reputation",
					"outputs": [
						{
							"internalType": "address",
							"name": "",
							"type": "address"
						}
					],
					"stateMutability": "view",
					"type": "function"
				},
				{
					"inputs": [],
					"name": "RewardManager",
					"outputs": [
						{
							"internalType": "address",
							"name": "",
							"type": "address"
						}
					],
					"stateMutability": "view",
					"type": "function"
				},
				{
					"inputs": [],
					"name": "SPOT_COMMIT_ROUND_DURATION",
					"outputs": [
						{
							"internalType": "uint256",
							"name": "",
							"type": "uint256"
						}
					],
					"stateMutability": "view",
					"type": "function"
				},
				{
					"inputs": [],
					"name": "SPOT_DATA_BATCH_SIZE",
					"outputs": [
						{
							"internalType": "uint256",
							"name": "",
							"type": "uint256"
						}
					],
					"stateMutability": "view",
					"type": "function"
				},
				{
					"inputs": [],
					"name": "SPOT_GLOBAL_MAX_SPOT_PER_PERIOD",
					"outputs": [
						{
							"internalType": "uint256",
							"name": "",
							"type": "uint256"
						}
					],
					"stateMutability": "view",
					"type": "function"
				},
				{
					"inputs": [],
					"name": "SPOT_INTER_ALLOCATION_DURATION",
					"outputs": [
						{
							"internalType": "uint256",
							"name": "",
							"type": "uint256"
						}
					],
					"stateMutability": "view",
					"type": "function"
				},
				{
					"inputs": [],
					"name": "SPOT_MAX_CONSENSUS_WORKER_COUNT",
					"outputs": [
						{
							"internalType": "uint256",
							"name": "",
							"type": "uint256"
						}
					],
					"stateMutability": "view",
					"type": "function"
				},
				{
					"inputs": [],
					"name": "SPOT_MAX_SPOT_PER_USER_PER_PERIOD",
					"outputs": [
						{
							"internalType": "uint256",
							"name": "",
							"type": "uint256"
						}
					],
					"stateMutability": "view",
					"type": "function"
				},
				{
					"inputs": [],
					"name": "SPOT_MIN_CONSENSUS_WORKER_COUNT",
					"outputs": [
						{
							"internalType": "uint256",
							"name": "",
							"type": "uint256"
						}
					],
					"stateMutability": "view",
					"type": "function"
				},
				{
					"inputs": [],
					"name": "SPOT_MIN_REP_DataValidation",
					"outputs": [
						{
							"internalType": "uint256",
							"name": "",
							"type": "uint256"
						}
					],
					"stateMutability": "view",
					"type": "function"
				},
				{
					"inputs": [],
					"name": "SPOT_MIN_REP_SpotData",
					"outputs": [
						{
							"internalType": "uint256",
							"name": "",
							"type": "uint256"
						}
					],
					"stateMutability": "view",
					"type": "function"
				},
				{
					"inputs": [],
					"name": "SPOT_MIN_REWARD_DataValidation",
					"outputs": [
						{
							"internalType": "uint256",
							"name": "",
							"type": "uint256"
						}
					],
					"stateMutability": "view",
					"type": "function"
				},
				{
					"inputs": [],
					"name": "SPOT_MIN_REWARD_SpotData",
					"outputs": [
						{
							"internalType": "uint256",
							"name": "",
							"type": "uint256"
						}
					],
					"stateMutability": "view",
					"type": "function"
				},
				{
					"inputs": [],
					"name": "SPOT_MIN_STAKE",
					"outputs": [
						{
							"internalType": "uint256",
							"name": "",
							"type": "uint256"
						}
					],
					"stateMutability": "view",
					"type": "function"
				},
				{
					"inputs": [],
					"name": "SPOT_NB_TIMEFRAMES",
					"outputs": [
						{
							"internalType": "uint256",
							"name": "",
							"type": "uint256"
						}
					],
					"stateMutability": "view",
					"type": "function"
				},
				{
					"inputs": [],
					"name": "SPOT_REVEAL_ROUND_DURATION",
					"outputs": [
						{
							"internalType": "uint256",
							"name": "",
							"type": "uint256"
						}
					],
					"stateMutability": "view",
					"type": "function"
				},
				{
					"inputs": [],
					"name": "SPOT_TIMEFRAME_DURATION",
					"outputs": [
						{
							"internalType": "uint256",
							"name": "",
							"type": "uint256"
						}
					],
					"stateMutability": "view",
					"type": "function"
				},
				{
					"inputs": [],
					"name": "SPOT_TOGGLE_ENABLED",
					"outputs": [
						{
							"internalType": "bool",
							"name": "",
							"type": "bool"
						}
					],
					"stateMutability": "view",
					"type": "function"
				},
				{
					"inputs": [],
					"name": "SpottingSystem",
					"outputs": [
						{
							"internalType": "address",
							"name": "",
							"type": "address"
						}
					],
					"stateMutability": "view",
					"type": "function"
				},
				{
					"inputs": [],
					"name": "StakeManager",
					"outputs": [
						{
							"internalType": "address",
							"name": "",
							"type": "address"
						}
					],
					"stateMutability": "view",
					"type": "function"
				},
				{
					"inputs": [],
					"name": "VOTE_QUORUM",
					"outputs": [
						{
							"internalType": "uint256",
							"name": "",
							"type": "uint256"
						}
					],
					"stateMutability": "view",
					"type": "function"
				},
				{
					"inputs": [],
					"name": "destroyContract",
					"outputs": [],
					"stateMutability": "nonpayable",
					"type": "function"
				},
				{
					"inputs": [],
					"name": "getAddressManager",
					"outputs": [
						{
							"internalType": "address",
							"name": "",
							"type": "address"
						}
					],
					"stateMutability": "view",
					"type": "function"
				},
				{
					"inputs": [],
					"name": "getArchivingSystem",
					"outputs": [
						{
							"internalType": "address",
							"name": "",
							"type": "address"
						}
					],
					"stateMutability": "view",
					"type": "function"
				},
				{
					"inputs": [],
					"name": "getComplianceSystem",
					"outputs": [
						{
							"internalType": "address",
							"name": "",
							"type": "address"
						}
					],
					"stateMutability": "view",
					"type": "function"
				},
				{
					"inputs": [],
					"name": "getExordeToken",
					"outputs": [
						{
							"internalType": "address",
							"name": "",
							"type": "address"
						}
					],
					"stateMutability": "view",
					"type": "function"
				},
				{
					"inputs": [],
					"name": "getIndexingSystem",
					"outputs": [
						{
							"internalType": "address",
							"name": "",
							"type": "address"
						}
					],
					"stateMutability": "view",
					"type": "function"
				},
				{
					"inputs": [],
					"name": "getMaxTotalWorkers",
					"outputs": [
						{
							"internalType": "uint256",
							"name": "",
							"type": "uint256"
						}
					],
					"stateMutability": "view",
					"type": "function"
				},
				{
					"inputs": [],
					"name": "getRepManager",
					"outputs": [
						{
							"internalType": "address",
							"name": "",
							"type": "address"
						}
					],
					"stateMutability": "view",
					"type": "function"
				},
				{
					"inputs": [],
					"name": "getReputationSystem",
					"outputs": [
						{
							"internalType": "address",
							"name": "",
							"type": "address"
						}
					],
					"stateMutability": "view",
					"type": "function"
				},
				{
					"inputs": [],
					"name": "getRewardManager",
					"outputs": [
						{
							"internalType": "address",
							"name": "",
							"type": "address"
						}
					],
					"stateMutability": "view",
					"type": "function"
				},
				{
					"inputs": [],
					"name": "getSpottingSystem",
					"outputs": [
						{
							"internalType": "address",
							"name": "",
							"type": "address"
						}
					],
					"stateMutability": "view",
					"type": "function"
				},
				{
					"inputs": [],
					"name": "getStakeManager",
					"outputs": [
						{
							"internalType": "address",
							"name": "",
							"type": "address"
						}
					],
					"stateMutability": "view",
					"type": "function"
				},
				{
					"inputs": [],
					"name": "getVoteQuorum",
					"outputs": [
						{
							"internalType": "uint256",
							"name": "",
							"type": "uint256"
						}
					],
					"stateMutability": "view",
					"type": "function"
				},
				{
					"inputs": [],
					"name": "get_ARCHIVING_COMMIT_ROUND_DURATION",
					"outputs": [
						{
							"internalType": "uint256",
							"name": "",
							"type": "uint256"
						}
					],
					"stateMutability": "view",
					"type": "function"
				},
				{
					"inputs": [],
					"name": "get_ARCHIVING_DATA_BATCH_SIZE",
					"outputs": [
						{
							"internalType": "uint256",
							"name": "",
							"type": "uint256"
						}
					],
					"stateMutability": "view",
					"type": "function"
				},
				{
					"inputs": [],
					"name": "get_ARCHIVING_MAX_CONSENSUS_WORKER_COUNT",
					"outputs": [
						{
							"internalType": "uint256",
							"name": "",
							"type": "uint256"
						}
					],
					"stateMutability": "view",
					"type": "function"
				},
				{
					"inputs": [],
					"name": "get_ARCHIVING_MIN_CONSENSUS_WORKER_COUNT",
					"outputs": [
						{
							"internalType": "uint256",
							"name": "",
							"type": "uint256"
						}
					],
					"stateMutability": "view",
					"type": "function"
				},
				{
					"inputs": [],
					"name": "get_ARCHIVING_MIN_REP_DataValidation",
					"outputs": [
						{
							"internalType": "uint256",
							"name": "",
							"type": "uint256"
						}
					],
					"stateMutability": "view",
					"type": "function"
				},
				{
					"inputs": [],
					"name": "get_ARCHIVING_MIN_REWARD_DataValidation",
					"outputs": [
						{
							"internalType": "uint256",
							"name": "",
							"type": "uint256"
						}
					],
					"stateMutability": "view",
					"type": "function"
				},
				{
					"inputs": [],
					"name": "get_ARCHIVING_MIN_STAKE",
					"outputs": [
						{
							"internalType": "uint256",
							"name": "",
							"type": "uint256"
						}
					],
					"stateMutability": "view",
					"type": "function"
				},
				{
					"inputs": [],
					"name": "get_ARCHIVING_REVEAL_ROUND_DURATION",
					"outputs": [
						{
							"internalType": "uint256",
							"name": "",
							"type": "uint256"
						}
					],
					"stateMutability": "view",
					"type": "function"
				},
				{
					"inputs": [],
					"name": "get_COMPLIANCE_COMMIT_ROUND_DURATION",
					"outputs": [
						{
							"internalType": "uint256",
							"name": "",
							"type": "uint256"
						}
					],
					"stateMutability": "view",
					"type": "function"
				},
				{
					"inputs": [],
					"name": "get_COMPLIANCE_DATA_BATCH_SIZE",
					"outputs": [
						{
							"internalType": "uint256",
							"name": "",
							"type": "uint256"
						}
					],
					"stateMutability": "view",
					"type": "function"
				},
				{
					"inputs": [],
					"name": "get_COMPLIANCE_MAX_CONSENSUS_WORKER_COUNT",
					"outputs": [
						{
							"internalType": "uint256",
							"name": "",
							"type": "uint256"
						}
					],
					"stateMutability": "view",
					"type": "function"
				},
				{
					"inputs": [],
					"name": "get_COMPLIANCE_MIN_CONSENSUS_WORKER_COUNT",
					"outputs": [
						{
							"internalType": "uint256",
							"name": "",
							"type": "uint256"
						}
					],
					"stateMutability": "view",
					"type": "function"
				},
				{
					"inputs": [],
					"name": "get_COMPLIANCE_MIN_REP_DataValidation",
					"outputs": [
						{
							"internalType": "uint256",
							"name": "",
							"type": "uint256"
						}
					],
					"stateMutability": "view",
					"type": "function"
				},
				{
					"inputs": [],
					"name": "get_COMPLIANCE_MIN_REWARD_DataValidation",
					"outputs": [
						{
							"internalType": "uint256",
							"name": "",
							"type": "uint256"
						}
					],
					"stateMutability": "view",
					"type": "function"
				},
				{
					"inputs": [],
					"name": "get_COMPLIANCE_MIN_STAKE",
					"outputs": [
						{
							"internalType": "uint256",
							"name": "",
							"type": "uint256"
						}
					],
					"stateMutability": "view",
					"type": "function"
				},
				{
					"inputs": [],
					"name": "get_COMPLIANCE_REVEAL_ROUND_DURATION",
					"outputs": [
						{
							"internalType": "uint256",
							"name": "",
							"type": "uint256"
						}
					],
					"stateMutability": "view",
					"type": "function"
				},
				{
					"inputs": [],
					"name": "get_INDEXING_COMMIT_ROUND_DURATION",
					"outputs": [
						{
							"internalType": "uint256",
							"name": "",
							"type": "uint256"
						}
					],
					"stateMutability": "view",
					"type": "function"
				},
				{
					"inputs": [],
					"name": "get_INDEXING_DATA_BATCH_SIZE",
					"outputs": [
						{
							"internalType": "uint256",
							"name": "",
							"type": "uint256"
						}
					],
					"stateMutability": "view",
					"type": "function"
				},
				{
					"inputs": [],
					"name": "get_INDEXING_MAX_CONSENSUS_WORKER_COUNT",
					"outputs": [
						{
							"internalType": "uint256",
							"name": "",
							"type": "uint256"
						}
					],
					"stateMutability": "view",
					"type": "function"
				},
				{
					"inputs": [],
					"name": "get_INDEXING_MIN_CONSENSUS_WORKER_COUNT",
					"outputs": [
						{
							"internalType": "uint256",
							"name": "",
							"type": "uint256"
						}
					],
					"stateMutability": "view",
					"type": "function"
				},
				{
					"inputs": [],
					"name": "get_INDEXING_MIN_REP_DataValidation",
					"outputs": [
						{
							"internalType": "uint256",
							"name": "",
							"type": "uint256"
						}
					],
					"stateMutability": "view",
					"type": "function"
				},
				{
					"inputs": [],
					"name": "get_INDEXING_MIN_REWARD_DataValidation",
					"outputs": [
						{
							"internalType": "uint256",
							"name": "",
							"type": "uint256"
						}
					],
					"stateMutability": "view",
					"type": "function"
				},
				{
					"inputs": [],
					"name": "get_INDEXING_MIN_STAKE",
					"outputs": [
						{
							"internalType": "uint256",
							"name": "",
							"type": "uint256"
						}
					],
					"stateMutability": "view",
					"type": "function"
				},
				{
					"inputs": [],
					"name": "get_INDEXING_REVEAL_ROUND_DURATION",
					"outputs": [
						{
							"internalType": "uint256",
							"name": "",
							"type": "uint256"
						}
					],
					"stateMutability": "view",
					"type": "function"
				},
				{
					"inputs": [],
					"name": "get_MAX_CONTRACT_STORED_BATCHES",
					"outputs": [
						{
							"internalType": "uint256",
							"name": "",
							"type": "uint256"
						}
					],
					"stateMutability": "view",
					"type": "function"
				},
				{
					"inputs": [],
					"name": "get_MAX_SUCCEEDING_NOVOTES",
					"outputs": [
						{
							"internalType": "uint256",
							"name": "",
							"type": "uint256"
						}
					],
					"stateMutability": "view",
					"type": "function"
				},
				{
					"inputs": [],
					"name": "get_MAX_UPDATE_ITERATIONS",
					"outputs": [
						{
							"internalType": "uint256",
							"name": "",
							"type": "uint256"
						}
					],
					"stateMutability": "view",
					"type": "function"
				},
				{
					"inputs": [],
					"name": "get_NOVOTE_REGISTRATION_WAIT_DURATION",
					"outputs": [
						{
							"internalType": "uint256",
							"name": "",
							"type": "uint256"
						}
					],
					"stateMutability": "view",
					"type": "function"
				},
				{
					"inputs": [],
					"name": "get_SPOT_COMMIT_ROUND_DURATION",
					"outputs": [
						{
							"internalType": "uint256",
							"name": "",
							"type": "uint256"
						}
					],
					"stateMutability": "view",
					"type": "function"
				},
				{
					"inputs": [],
					"name": "get_SPOT_DATA_BATCH_SIZE",
					"outputs": [
						{
							"internalType": "uint256",
							"name": "",
							"type": "uint256"
						}
					],
					"stateMutability": "view",
					"type": "function"
				},
				{
					"inputs": [],
					"name": "get_SPOT_GLOBAL_MAX_SPOT_PER_PERIOD",
					"outputs": [
						{
							"internalType": "uint256",
							"name": "",
							"type": "uint256"
						}
					],
					"stateMutability": "view",
					"type": "function"
				},
				{
					"inputs": [],
					"name": "get_SPOT_INTER_ALLOCATION_DURATION",
					"outputs": [
						{
							"internalType": "uint256",
							"name": "",
							"type": "uint256"
						}
					],
					"stateMutability": "view",
					"type": "function"
				},
				{
					"inputs": [],
					"name": "get_SPOT_MAX_CONSENSUS_WORKER_COUNT",
					"outputs": [
						{
							"internalType": "uint256",
							"name": "",
							"type": "uint256"
						}
					],
					"stateMutability": "view",
					"type": "function"
				},
				{
					"inputs": [],
					"name": "get_SPOT_MAX_SPOT_PER_USER_PER_PERIOD",
					"outputs": [
						{
							"internalType": "uint256",
							"name": "",
							"type": "uint256"
						}
					],
					"stateMutability": "view",
					"type": "function"
				},
				{
					"inputs": [],
					"name": "get_SPOT_MIN_CONSENSUS_WORKER_COUNT",
					"outputs": [
						{
							"internalType": "uint256",
							"name": "",
							"type": "uint256"
						}
					],
					"stateMutability": "view",
					"type": "function"
				},
				{
					"inputs": [],
					"name": "get_SPOT_MIN_REP_DataValidation",
					"outputs": [
						{
							"internalType": "uint256",
							"name": "",
							"type": "uint256"
						}
					],
					"stateMutability": "view",
					"type": "function"
				},
				{
					"inputs": [],
					"name": "get_SPOT_MIN_REP_SpotData",
					"outputs": [
						{
							"internalType": "uint256",
							"name": "",
							"type": "uint256"
						}
					],
					"stateMutability": "view",
					"type": "function"
				},
				{
					"inputs": [],
					"name": "get_SPOT_MIN_REWARD_DataValidation",
					"outputs": [
						{
							"internalType": "uint256",
							"name": "",
							"type": "uint256"
						}
					],
					"stateMutability": "view",
					"type": "function"
				},
				{
					"inputs": [],
					"name": "get_SPOT_MIN_REWARD_SpotData",
					"outputs": [
						{
							"internalType": "uint256",
							"name": "",
							"type": "uint256"
						}
					],
					"stateMutability": "view",
					"type": "function"
				},
				{
					"inputs": [],
					"name": "get_SPOT_MIN_STAKE",
					"outputs": [
						{
							"internalType": "uint256",
							"name": "",
							"type": "uint256"
						}
					],
					"stateMutability": "view",
					"type": "function"
				},
				{
					"inputs": [],
					"name": "get_SPOT_NB_TIMEFRAMES",
					"outputs": [
						{
							"internalType": "uint256",
							"name": "",
							"type": "uint256"
						}
					],
					"stateMutability": "view",
					"type": "function"
				},
				{
					"inputs": [],
					"name": "get_SPOT_REVEAL_ROUND_DURATION",
					"outputs": [
						{
							"internalType": "uint256",
							"name": "",
							"type": "uint256"
						}
					],
					"stateMutability": "view",
					"type": "function"
				},
				{
					"inputs": [],
					"name": "get_SPOT_TIMEFRAME_DURATION",
					"outputs": [
						{
							"internalType": "uint256",
							"name": "",
							"type": "uint256"
						}
					],
					"stateMutability": "view",
					"type": "function"
				},
				{
					"inputs": [],
					"name": "get_SPOT_TOGGLE_ENABLED",
					"outputs": [
						{
							"internalType": "bool",
							"name": "",
							"type": "bool"
						}
					],
					"stateMutability": "view",
					"type": "function"
				},
				{
					"inputs": [],
					"name": "getsFuelSystem",
					"outputs": [
						{
							"internalType": "address",
							"name": "",
							"type": "address"
						}
					],
					"stateMutability": "view",
					"type": "function"
				},
				{
					"inputs": [],
					"name": "owner",
					"outputs": [
						{
							"internalType": "address",
							"name": "",
							"type": "address"
						}
					],
					"stateMutability": "view",
					"type": "function"
				},
				{
					"inputs": [],
					"name": "renounceOwnership",
					"outputs": [],
					"stateMutability": "nonpayable",
					"type": "function"
				},
				{
					"inputs": [],
					"name": "sFuel",
					"outputs": [
						{
							"internalType": "address",
							"name": "",
							"type": "address"
						}
					],
					"stateMutability": "view",
					"type": "function"
				},
				{
					"inputs": [],
					"name": "token",
					"outputs": [
						{
							"internalType": "address",
							"name": "",
							"type": "address"
						}
					],
					"stateMutability": "view",
					"type": "function"
				},
				{
					"inputs": [
						{
							"internalType": "address",
							"name": "newOwner",
							"type": "address"
						}
					],
					"name": "transferOwnership",
					"outputs": [],
					"stateMutability": "nonpayable",
					"type": "function"
				},
				{
					"inputs": [
						{
							"internalType": "uint256",
							"name": "ParameterIndex",
							"type": "uint256"
						},
						{
							"internalType": "uint256",
							"name": "uintValue",
							"type": "uint256"
						}
					],
					"name": "updateArchivingParameters",
					"outputs": [],
					"stateMutability": "nonpayable",
					"type": "function"
				},
				{
					"inputs": [
						{
							"internalType": "uint256",
							"name": "ParameterIndex",
							"type": "uint256"
						},
						{
							"internalType": "uint256",
							"name": "uintValue",
							"type": "uint256"
						}
					],
					"name": "updateComplianceParameters",
					"outputs": [],
					"stateMutability": "nonpayable",
					"type": "function"
				},
				{
					"inputs": [
						{
							"internalType": "address",
							"name": "StakeManager_",
							"type": "address"
						},
						{
							"internalType": "address",
							"name": "RepManager_",
							"type": "address"
						},
						{
							"internalType": "address",
							"name": "Reputation_",
							"type": "address"
						},
						{
							"internalType": "address",
							"name": "RewardManager_",
							"type": "address"
						},
						{
							"internalType": "address",
							"name": "AddressManager_",
							"type": "address"
						},
						{
							"internalType": "address",
							"name": "SpottingSystem_",
							"type": "address"
						},
						{
							"internalType": "address",
							"name": "ComplianceSystem_",
							"type": "address"
						},
						{
							"internalType": "address",
							"name": "IndexingSystem_",
							"type": "address"
						},
						{
							"internalType": "address",
							"name": "ArchivingSystem_",
							"type": "address"
						},
						{
							"internalType": "address",
							"name": "sFuel_",
							"type": "address"
						},
						{
							"internalType": "address",
							"name": "token_",
							"type": "address"
						}
					],
					"name": "updateContractsAddresses",
					"outputs": [],
					"stateMutability": "nonpayable",
					"type": "function"
				},
				{
					"inputs": [
						{
							"internalType": "uint256",
							"name": "ParameterIndex",
							"type": "uint256"
						},
						{
							"internalType": "uint256",
							"name": "uintValue",
							"type": "uint256"
						}
					],
					"name": "updateGeneralParameters",
					"outputs": [],
					"stateMutability": "nonpayable",
					"type": "function"
				},
				{
					"inputs": [
						{
							"internalType": "uint256",
							"name": "ParameterIndex",
							"type": "uint256"
						},
						{
							"internalType": "uint256",
							"name": "uintValue",
							"type": "uint256"
						}
					],
					"name": "updateIndexingParameters",
					"outputs": [],
					"stateMutability": "nonpayable",
					"type": "function"
				},
				{
					"inputs": [
						{
							"internalType": "uint256",
							"name": "ParameterIndex",
							"type": "uint256"
						},
						{
							"internalType": "uint256",
							"name": "uintValue",
							"type": "uint256"
						},
						{
							"internalType": "bool",
							"name": "boolValue",
							"type": "bool"
						}
					],
					"name": "updateSpottingParameters",
					"outputs": [],
					"stateMutability": "nonpayable",
					"type": "function"
				}
			],
			"devdoc": {
				"author": "Mathias Dail",
				"kind": "dev",
				"methods": {
					"owner()": {
						"details": "Returns the address of the current owner."
					},
					"renounceOwnership()": {
						"details": "Leaves the contract without owner. It will not be possible to call `onlyOwner` functions anymore. Can only be called by the current owner. NOTE: Renouncing ownership will leave the contract without an owner, thereby removing any functionality that is only available to the owner."
					},
					"transferOwnership(address)": {
						"details": "Transfers ownership of the contract to a new account (`newOwner`). Can only be called by the current owner."
					}
				},
				"title": "Parameters  v0.1",
				"version": 1
			},
			"evm": {
				"assembly": "    /* \"worksystems/Parameters.sol\":351:23360  contract Parameters is Ownable {\r... */\n  mstore(0x40, 0x80)\n    /* \"worksystems/Parameters.sol\":494:498  1000 */\n  0x03e8\n    /* \"worksystems/Parameters.sol\":459:498  uint256 public MAX_TOTAL_WORKERS = 1000 */\n  0x01\n  sstore\n    /* \"worksystems/Parameters.sol\":535:537  50 */\n  0x32\n    /* \"worksystems/Parameters.sol\":505:537  uint256 public VOTE_QUORUM  = 50 */\n  0x02\n  sstore\n    /* \"worksystems/Parameters.sol\":587:589  50 */\n  0x32\n    /* \"worksystems/Parameters.sol\":547:589  uint256 public MAX_UPDATE_ITERATIONS  = 50 */\n  0x03\n  sstore\n    /* \"worksystems/Parameters.sol\":645:651  200000 */\n  0x030d40\n    /* \"worksystems/Parameters.sol\":599:651  uint256 public MAX_CONTRACT_STORED_BATCHES  = 200000 */\n  0x04\n  sstore\n    /* \"worksystems/Parameters.sol\":749:750  1 */\n  0x01\n    /* \"worksystems/Parameters.sol\":711:750  uint256 public SPOT_DATA_BATCH_SIZE = 1 */\n  0x05\n  sstore\n    /* \"worksystems/Parameters.sol\":789:804  25 * (10 ** 18) */\n  0x015af1d78b58c40000\n    /* \"worksystems/Parameters.sol\":757:804  uint256 public SPOT_MIN_STAKE = 25 * (10 ** 18) */\n  0x06\n  sstore\n    /* \"worksystems/Parameters.sol\":862:863  2 */\n  0x02\n    /* \"worksystems/Parameters.sol\":812:863  uint256 public SPOT_MIN_CONSENSUS_WORKER_COUNT  = 2 */\n  0x07\n  sstore\n    /* \"worksystems/Parameters.sol\":923:924  4 */\n  0x04\n    /* \"worksystems/Parameters.sol\":873:924  uint256 public SPOT_MAX_CONSENSUS_WORKER_COUNT  = 4 */\n  0x08\n  sstore\n    /* \"worksystems/Parameters.sol\":975:978  180 */\n  0xb4\n    /* \"worksystems/Parameters.sol\":931:978  uint256 public SPOT_COMMIT_ROUND_DURATION = 180 */\n  0x09\n  sstore\n    /* \"worksystems/Parameters.sol\":1029:1032  180 */\n  0xb4\n    /* \"worksystems/Parameters.sol\":985:1032  uint256 public SPOT_REVEAL_ROUND_DURATION = 180 */\n  0x0a\n  sstore\n    /* \"worksystems/Parameters.sol\":1088:1102  1 * (10 ** 15) */\n  0x038d7ea4c68000\n    /* \"worksystems/Parameters.sol\":1046:1102  uint256 public SPOT_MIN_REWARD_SpotData = 1 * (10 ** 15) */\n  0x0b\n  sstore\n    /* \"worksystems/Parameters.sol\":1149:1164  10 * (10 ** 15) */\n  0x2386f26fc10000\n    /* \"worksystems/Parameters.sol\":1109:1164  uint256 public SPOT_MIN_REP_SpotData  = 10 * (10 ** 15) */\n  0x0c\n  sstore\n    /* \"worksystems/Parameters.sol\":1219:1233  1 * (10 ** 15) */\n  0x038d7ea4c68000\n    /* \"worksystems/Parameters.sol\":1171:1233  uint256 public SPOT_MIN_REWARD_DataValidation = 1 * (10 ** 15) */\n  0x0d\n  sstore\n    /* \"worksystems/Parameters.sol\":1286:1301  10 * (10 ** 15) */\n  0x2386f26fc10000\n    /* \"worksystems/Parameters.sol\":1240:1301  uint256 public SPOT_MIN_REP_DataValidation  = 10 * (10 ** 15) */\n  0x0e\n  sstore\n    /* \"worksystems/Parameters.sol\":1386:1389  400 */\n  0x0190\n    /* \"worksystems/Parameters.sol\":1338:1389  uint256 public SPOT_INTER_ALLOCATION_DURATION = 400 */\n  0x0f\n  sstore\n    /* \"worksystems/Parameters.sol\":1430:1434  true */\n  0x01\n    /* \"worksystems/Parameters.sol\":1396:1434  bool public SPOT_TOGGLE_ENABLED = true */\n  0x10\n  exp(0x0100, 0x00)\n  dup2\n  sload\n  dup2\n  0xff\n  mul\n  not\n  and\n  swap1\n  dup4\n  iszero\n  iszero\n  mul\n  or\n  swap1\n  sstore\n  pop\n    /* \"worksystems/Parameters.sol\":1483:1488  15*60 */\n  0x0384\n    /* \"worksystems/Parameters.sol\":1441:1488  uint256 public SPOT_TIMEFRAME_DURATION  = 15*60 */\n  0x11\n  sstore\n    /* \"worksystems/Parameters.sol\":1558:1562  1000 */\n  0x03e8\n    /* \"worksystems/Parameters.sol\":1508:1562  uint256 public SPOT_GLOBAL_MAX_SPOT_PER_PERIOD  = 1000 */\n  0x12\n  sstore\n    /* \"worksystems/Parameters.sol\":1621:1623  25 */\n  0x19\n    /* \"worksystems/Parameters.sol\":1569:1623  uint256 public SPOT_MAX_SPOT_PER_USER_PER_PERIOD  = 25 */\n  0x13\n  sstore\n    /* \"worksystems/Parameters.sol\":1666:1667  4 */\n  0x04\n    /* \"worksystems/Parameters.sol\":1630:1667  uint256 public SPOT_NB_TIMEFRAMES = 4 */\n  0x14\n  sstore\n    /* \"worksystems/Parameters.sol\":1715:1716  3 */\n  0x03\n    /* \"worksystems/Parameters.sol\":1674:1716  uint256 public MAX_SUCCEEDING_NOVOTES  = 3 */\n  0x15\n  sstore\n    /* \"worksystems/Parameters.sol\":1779:1783  3600 */\n  0x0e10\n    /* \"worksystems/Parameters.sol\":1727:1783  uint256 public NOVOTE_REGISTRATION_WAIT_DURATION  = 3600 */\n  0x16\n  sstore\n    /* \"worksystems/Parameters.sol\":1903:1904  1 */\n  0x01\n    /* \"worksystems/Parameters.sol\":1859:1904  uint256 public COMPLIANCE_DATA_BATCH_SIZE = 1 */\n  0x17\n  sstore\n    /* \"worksystems/Parameters.sol\":1968:1969  2 */\n  0x02\n    /* \"worksystems/Parameters.sol\":1912:1969  uint256 public COMPLIANCE_MIN_CONSENSUS_WORKER_COUNT  = 2 */\n  0x18\n  sstore\n    /* \"worksystems/Parameters.sol\":2033:2034  4 */\n  0x04\n    /* \"worksystems/Parameters.sol\":1977:2034  uint256 public COMPLIANCE_MAX_CONSENSUS_WORKER_COUNT  = 4 */\n  0x19\n  sstore\n    /* \"worksystems/Parameters.sol\":2082:2097  25 * (10 ** 18) */\n  0x015af1d78b58c40000\n    /* \"worksystems/Parameters.sol\":2044:2097  uint256 public COMPLIANCE_MIN_STAKE = 25 * (10 ** 18) */\n  0x1a\n  sstore\n    /* \"worksystems/Parameters.sol\":2155:2158  400 */\n  0x0190\n    /* \"worksystems/Parameters.sol\":2105:2158  uint256 public COMPLIANCE_COMMIT_ROUND_DURATION = 400 */\n  0x1b\n  sstore\n    /* \"worksystems/Parameters.sol\":2215:2218  180 */\n  0xb4\n    /* \"worksystems/Parameters.sol\":2165:2218  uint256 public COMPLIANCE_REVEAL_ROUND_DURATION = 180 */\n  0x1c\n  sstore\n    /* \"worksystems/Parameters.sol\":2281:2295  1 * (10 ** 15) */\n  0x038d7ea4c68000\n    /* \"worksystems/Parameters.sol\":2227:2295  uint256 public COMPLIANCE_MIN_REWARD_DataValidation = 1 * (10 ** 15) */\n  0x1d\n  sstore\n    /* \"worksystems/Parameters.sol\":2354:2369  10 * (10 ** 15) */\n  0x2386f26fc10000\n    /* \"worksystems/Parameters.sol\":2302:2369  uint256 public COMPLIANCE_MIN_REP_DataValidation  = 10 * (10 ** 15) */\n  0x1e\n  sstore\n    /* \"worksystems/Parameters.sol\":2470:2471  1 */\n  0x01\n    /* \"worksystems/Parameters.sol\":2428:2471  uint256 public INDEXING_DATA_BATCH_SIZE = 1 */\n  0x1f\n  sstore\n    /* \"worksystems/Parameters.sol\":2533:2534  2 */\n  0x02\n    /* \"worksystems/Parameters.sol\":2479:2534  uint256 public INDEXING_MIN_CONSENSUS_WORKER_COUNT  = 2 */\n  0x20\n  sstore\n    /* \"worksystems/Parameters.sol\":2596:2597  4 */\n  0x04\n    /* \"worksystems/Parameters.sol\":2542:2597  uint256 public INDEXING_MAX_CONSENSUS_WORKER_COUNT  = 4 */\n  0x21\n  sstore\n    /* \"worksystems/Parameters.sol\":2643:2658  25 * (10 ** 18) */\n  0x015af1d78b58c40000\n    /* \"worksystems/Parameters.sol\":2607:2658  uint256 public INDEXING_MIN_STAKE = 25 * (10 ** 18) */\n  0x22\n  sstore\n    /* \"worksystems/Parameters.sol\":2714:2717  400 */\n  0x0190\n    /* \"worksystems/Parameters.sol\":2666:2717  uint256 public INDEXING_COMMIT_ROUND_DURATION = 400 */\n  0x23\n  sstore\n    /* \"worksystems/Parameters.sol\":2772:2775  180 */\n  0xb4\n    /* \"worksystems/Parameters.sol\":2724:2775  uint256 public INDEXING_REVEAL_ROUND_DURATION = 180 */\n  0x24\n  sstore\n    /* \"worksystems/Parameters.sol\":2836:2850  1 * (10 ** 15) */\n  0x038d7ea4c68000\n    /* \"worksystems/Parameters.sol\":2784:2850  uint256 public INDEXING_MIN_REWARD_DataValidation = 1 * (10 ** 15) */\n  0x25\n  sstore\n    /* \"worksystems/Parameters.sol\":2907:2922  10 * (10 ** 15) */\n  0x2386f26fc10000\n    /* \"worksystems/Parameters.sol\":2857:2922  uint256 public INDEXING_MIN_REP_DataValidation  = 10 * (10 ** 15) */\n  0x26\n  sstore\n    /* \"worksystems/Parameters.sol\":3022:3023  1 */\n  0x01\n    /* \"worksystems/Parameters.sol\":2979:3023  uint256 public ARCHIVING_DATA_BATCH_SIZE = 1 */\n  0x27\n  sstore\n    /* \"worksystems/Parameters.sol\":3086:3087  2 */\n  0x02\n    /* \"worksystems/Parameters.sol\":3031:3087  uint256 public ARCHIVING_MIN_CONSENSUS_WORKER_COUNT  = 2 */\n  0x28\n  sstore\n    /* \"worksystems/Parameters.sol\":3150:3151  4 */\n  0x04\n    /* \"worksystems/Parameters.sol\":3095:3151  uint256 public ARCHIVING_MAX_CONSENSUS_WORKER_COUNT  = 4 */\n  0x29\n  sstore\n    /* \"worksystems/Parameters.sol\":3198:3213  25 * (10 ** 18) */\n  0x015af1d78b58c40000\n    /* \"worksystems/Parameters.sol\":3161:3213  uint256 public ARCHIVING_MIN_STAKE = 25 * (10 ** 18) */\n  0x2a\n  sstore\n    /* \"worksystems/Parameters.sol\":3270:3273  400 */\n  0x0190\n    /* \"worksystems/Parameters.sol\":3221:3273  uint256 public ARCHIVING_COMMIT_ROUND_DURATION = 400 */\n  0x2b\n  sstore\n    /* \"worksystems/Parameters.sol\":3329:3332  180 */\n  0xb4\n    /* \"worksystems/Parameters.sol\":3280:3332  uint256 public ARCHIVING_REVEAL_ROUND_DURATION = 180 */\n  0x2c\n  sstore\n    /* \"worksystems/Parameters.sol\":3394:3408  1 * (10 ** 15) */\n  0x038d7ea4c68000\n    /* \"worksystems/Parameters.sol\":3341:3408  uint256 public ARCHIVING_MIN_REWARD_DataValidation = 1 * (10 ** 15) */\n  0x2d\n  sstore\n    /* \"worksystems/Parameters.sol\":3466:3481  10 * (10 ** 15) */\n  0x2386f26fc10000\n    /* \"worksystems/Parameters.sol\":3415:3481  uint256 public ARCHIVING_MIN_REP_DataValidation  = 10 * (10 ** 15) */\n  0x2e\n  sstore\n    /* \"worksystems/Parameters.sol\":351:23360  contract Parameters is Ownable {\r... */\n  callvalue\n  dup1\n  iszero\n  tag_1\n  jumpi\n  0x00\n  dup1\n  revert\ntag_1:\n  pop\n    /* \"@openzeppelin/contracts/access/Ownable.sol\":936:968  _transferOwnership(_msgSender()) */\n  tag_4\n    /* \"@openzeppelin/contracts/access/Ownable.sol\":955:967  _msgSender() */\n  tag_5\n    /* \"@openzeppelin/contracts/access/Ownable.sol\":955:965  _msgSender */\n  tag_6\n    /* \"@openzeppelin/contracts/access/Ownable.sol\":955:967  _msgSender() */\n  jump\t// in\ntag_5:\n    /* \"@openzeppelin/contracts/access/Ownable.sol\":936:954  _transferOwnership */\n  tag_7\n    /* \"@openzeppelin/contracts/access/Ownable.sol\":936:968  _transferOwnership(_msgSender()) */\n  jump\t// in\ntag_4:\n    /* \"worksystems/Parameters.sol\":351:23360  contract Parameters is Ownable {\r... */\n  jump(tag_8)\n    /* \"@openzeppelin/contracts/utils/Context.sol\":640:736  function _msgSender() internal view virtual returns (address) {... */\ntag_6:\n    /* \"@openzeppelin/contracts/utils/Context.sol\":719:729  msg.sender */\n  caller\n    /* \"@openzeppelin/contracts/utils/Context.sol\":640:736  function _msgSender() internal view virtual returns (address) {... */\n  swap1\n  jump\t// out\n    /* \"@openzeppelin/contracts/access/Ownable.sol\":2433:2620  function _transferOwnership(address newOwner) internal virtual {... */\ntag_7:\n    /* \"@openzeppelin/contracts/access/Ownable.sol\":2506:2522  address oldOwner */\n  0x00\n    /* \"@openzeppelin/contracts/access/Ownable.sol\":2525:2531  _owner */\n  dup1\n  sload\n  sub(shl(0xa0, 0x01), 0x01)\n    /* \"@openzeppelin/contracts/access/Ownable.sol\":2541:2558  _owner = newOwner */\n  dup4\n  dup2\n  and\n  not(sub(shl(0xa0, 0x01), 0x01))\n  dup4\n  and\n  dup2\n  or\n  dup5\n  sstore\n    /* \"@openzeppelin/contracts/access/Ownable.sol\":2573:2613  OwnershipTransferred(oldOwner, newOwner) */\n  mload(0x40)\n    /* \"@openzeppelin/contracts/access/Ownable.sol\":2525:2531  _owner */\n  swap2\n  swap1\n  swap3\n  and\n  swap3\n  dup4\n  swap2\n    /* \"@openzeppelin/contracts/access/Ownable.sol\":2573:2613  OwnershipTransferred(oldOwner, newOwner) */\n  0x8be0079c531659141344cd1fd0a4f28419497f9722a3daafe3b4186f6b6457e0\n  swap2\n    /* \"@openzeppelin/contracts/access/Ownable.sol\":2506:2522  address oldOwner */\n  swap1\n    /* \"@openzeppelin/contracts/access/Ownable.sol\":2573:2613  OwnershipTransferred(oldOwner, newOwner) */\n  log3\n    /* \"@openzeppelin/contracts/access/Ownable.sol\":2433:2620  function _transferOwnership(address newOwner) internal virtual {... */\n  pop\n  pop\n  jump\t// out\n    /* \"worksystems/Parameters.sol\":351:23360  contract Parameters is Ownable {\r... */\ntag_8:\n  dataSize(sub_0)\n  dup1\n  dataOffset(sub_0)\n  0x00\n  codecopy\n  0x00\n  return\nstop\n\nsub_0: assembly {\n        /* \"worksystems/Parameters.sol\":351:23360  contract Parameters is Ownable {\r... */\n      mstore(0x40, 0x80)\n      callvalue\n      dup1\n      iszero\n      tag_1\n      jumpi\n      0x00\n      dup1\n      revert\n    tag_1:\n      pop\n      jumpi(tag_2, lt(calldatasize, 0x04))\n      shr(0xe0, calldataload(0x00))\n      dup1\n      0x8a13725d\n      gt\n      tag_127\n      jumpi\n      dup1\n      0xcb3a2a88\n      gt\n      tag_128\n      jumpi\n      dup1\n      0xe6fdd4c0\n      gt\n      tag_129\n      jumpi\n      dup1\n      0xf5bec1ad\n      gt\n      tag_130\n      jumpi\n      dup1\n      0xfbf14851\n      gt\n      tag_131\n      jumpi\n      dup1\n      0xfbf14851\n      eq\n      tag_123\n      jumpi\n      dup1\n      0xfc0c546a\n      eq\n      tag_124\n      jumpi\n      dup1\n      0xff622dda\n      eq\n      tag_125\n      jumpi\n      dup1\n      0xfff5f946\n      eq\n      tag_126\n      jumpi\n      jump(tag_2)\n    tag_131:\n      dup1\n      0xf5bec1ad\n      eq\n      tag_119\n      jumpi\n      dup1\n      0xf67362fe\n      eq\n      tag_120\n      jumpi\n      dup1\n      0xf80de0a0\n      eq\n      tag_121\n      jumpi\n      dup1\n      0xfb50a473\n      eq\n      tag_122\n      jumpi\n      jump(tag_2)\n    tag_130:\n      dup1\n      0xee37f4a6\n      gt\n      tag_132\n      jumpi\n      dup1\n      0xee37f4a6\n      eq\n      tag_115\n      jumpi\n      dup1\n      0xf116c4e0\n      eq\n      tag_116\n      jumpi\n      dup1\n      0xf2fde38b\n      eq\n      tag_117\n      jumpi\n      dup1\n      0xf4e20b9c\n      eq\n      tag_118\n      jumpi\n      jump(tag_2)\n    tag_132:\n      dup1\n      0xe6fdd4c0\n      eq\n      tag_111\n      jumpi\n      dup1\n      0xe9704f81\n      eq\n      tag_112\n      jumpi\n      dup1\n      0xe992dca7\n      eq\n      tag_113\n      jumpi\n      dup1\n      0xea19733c\n      eq\n      tag_114\n      jumpi\n      jump(tag_2)\n    tag_129:\n      dup1\n      0xdfeceed7\n      gt\n      tag_133\n      jumpi\n      dup1\n      0xe3dfc0b2\n      gt\n      tag_134\n      jumpi\n      dup1\n      0xe3dfc0b2\n      eq\n      tag_107\n      jumpi\n      dup1\n      0xe5f14824\n      eq\n      tag_108\n      jumpi\n      dup1\n      0xe66d543a\n      eq\n      tag_109\n      jumpi\n      dup1\n      0xe68c9c30\n      eq\n      tag_110\n      jumpi\n      jump(tag_2)\n    tag_134:\n      dup1\n      0xdfeceed7\n      eq\n      tag_103\n      jumpi\n      dup1\n      0xe0de3d7c\n      eq\n      tag_104\n      jumpi\n      dup1\n      0xe168063c\n      eq\n      tag_105\n      jumpi\n      dup1\n      0xe3115d3c\n      eq\n      tag_106\n      jumpi\n      jump(tag_2)\n    tag_133:\n      dup1\n      0xd4efd2ba\n      gt\n      tag_135\n      jumpi\n      dup1\n      0xd4efd2ba\n      eq\n      tag_99\n      jumpi\n      dup1\n      0xd81109ce\n      eq\n      tag_100\n      jumpi\n      dup1\n      0xd8645d37\n      eq\n      tag_101\n      jumpi\n      dup1\n      0xdc7048c1\n      eq\n      tag_102\n      jumpi\n      jump(tag_2)\n    tag_135:\n      dup1\n      0xcb3a2a88\n      eq\n      tag_96\n      jumpi\n      dup1\n      0xd0eed967\n      eq\n      tag_97\n      jumpi\n      dup1\n      0xd1a89a46\n      eq\n      tag_98\n      jumpi\n      jump(tag_2)\n    tag_128:\n      dup1\n      0xabb10b9b\n      gt\n      tag_136\n      jumpi\n      dup1\n      0xbe250988\n      gt\n      tag_137\n      jumpi\n      dup1\n      0xc6eacbfe\n      gt\n      tag_138\n      jumpi\n      dup1\n      0xc6eacbfe\n      eq\n      tag_92\n      jumpi\n      dup1\n      0xc7761fab\n      eq\n      tag_93\n      jumpi\n      dup1\n      0xc95b53c5\n      eq\n      tag_94\n      jumpi\n      dup1\n      0xca64f9e7\n      eq\n      tag_95\n      jumpi\n      jump(tag_2)\n    tag_138:\n      dup1\n      0xbe250988\n      eq\n      tag_88\n      jumpi\n      dup1\n      0xbf09ff70\n      eq\n      tag_89\n      jumpi\n      dup1\n      0xbf34f749\n      eq\n      tag_90\n      jumpi\n      dup1\n      0xc4a306f8\n      eq\n      tag_91\n      jumpi\n      jump(tag_2)\n    tag_137:\n      dup1\n      0xb45d9d8d\n      gt\n      tag_139\n      jumpi\n      dup1\n      0xb45d9d8d\n      eq\n      tag_84\n      jumpi\n      dup1\n      0xb6118450\n      eq\n      tag_85\n      jumpi\n      dup1\n      0xb6c6ec02\n      eq\n      tag_86\n      jumpi\n      dup1\n      0xbd40ef4c\n      eq\n      tag_87\n      jumpi\n      jump(tag_2)\n    tag_139:\n      dup1\n      0xabb10b9b\n      eq\n      tag_80\n      jumpi\n      dup1\n      0xac846e79\n      eq\n      tag_81\n      jumpi\n      dup1\n      0xb1562f67\n      eq\n      tag_82\n      jumpi\n      dup1\n      0xb38e885e\n      eq\n      tag_83\n      jumpi\n      jump(tag_2)\n    tag_136:\n      dup1\n      0x995adbdd\n      gt\n      tag_140\n      jumpi\n      dup1\n      0xa1a4575a\n      gt\n      tag_141\n      jumpi\n      dup1\n      0xa1a4575a\n      eq\n      tag_76\n      jumpi\n      dup1\n      0xa327181b\n      eq\n      tag_77\n      jumpi\n      dup1\n      0xa35b3b09\n      eq\n      tag_78\n      jumpi\n      dup1\n      0xab43e78d\n      eq\n      tag_79\n      jumpi\n      jump(tag_2)\n    tag_141:\n      dup1\n      0x995adbdd\n      eq\n      tag_72\n      jumpi\n      dup1\n      0x9a175938\n      eq\n      tag_73\n      jumpi\n      dup1\n      0x9d1f2ada\n      eq\n      tag_74\n      jumpi\n      dup1\n      0x9fb491f6\n      eq\n      tag_75\n      jumpi\n      jump(tag_2)\n    tag_140:\n      dup1\n      0x90d10b6e\n      gt\n      tag_142\n      jumpi\n      dup1\n      0x90d10b6e\n      eq\n      tag_68\n      jumpi\n      dup1\n      0x9279e9d4\n      eq\n      tag_69\n      jumpi\n      dup1\n      0x98a54e2b\n      eq\n      tag_70\n      jumpi\n      dup1\n      0x9904ed8d\n      eq\n      tag_71\n      jumpi\n      jump(tag_2)\n    tag_142:\n      dup1\n      0x8a13725d\n      eq\n      tag_65\n      jumpi\n      dup1\n      0x8da5cb5b\n      eq\n      tag_66\n      jumpi\n      dup1\n      0x90cc59eb\n      eq\n      tag_67\n      jumpi\n      jump(tag_2)\n    tag_127:\n      dup1\n      0x49b46787\n      gt\n      tag_143\n      jumpi\n      dup1\n      0x728d23ab\n      gt\n      tag_144\n      jumpi\n      dup1\n      0x8360034d\n      gt\n      tag_145\n      jumpi\n      dup1\n      0x8724450f\n      gt\n      tag_146\n      jumpi\n      dup1\n      0x8724450f\n      eq\n      tag_61\n      jumpi\n      dup1\n      0x87ce6311\n      eq\n      tag_62\n      jumpi\n      dup1\n      0x893b2a76\n      eq\n      tag_63\n      jumpi\n      dup1\n      0x89b212d3\n      eq\n      tag_64\n      jumpi\n      jump(tag_2)\n    tag_146:\n      dup1\n      0x8360034d\n      eq\n      tag_57\n      jumpi\n      dup1\n      0x83cc6ef2\n      eq\n      tag_58\n      jumpi\n      dup1\n      0x849f9f0a\n      eq\n      tag_59\n      jumpi\n      dup1\n      0x86b0b4c5\n      eq\n      tag_60\n      jumpi\n      jump(tag_2)\n    tag_145:\n      dup1\n      0x7a0ec25b\n      gt\n      tag_147\n      jumpi\n      dup1\n      0x7a0ec25b\n      eq\n      tag_53\n      jumpi\n      dup1\n      0x7a34da67\n      eq\n      tag_54\n      jumpi\n      dup1\n      0x7d630cb0\n      eq\n      tag_55\n      jumpi\n      dup1\n      0x7e8603e9\n      eq\n      tag_56\n      jumpi\n      jump(tag_2)\n    tag_147:\n      dup1\n      0x728d23ab\n      eq\n      tag_49\n      jumpi\n      dup1\n      0x72e54030\n      eq\n      tag_50\n      jumpi\n      dup1\n      0x75dc6130\n      eq\n      tag_51\n      jumpi\n      dup1\n      0x779231b2\n      eq\n      tag_52\n      jumpi\n      jump(tag_2)\n    tag_144:\n      dup1\n      0x557c1abe\n      gt\n      tag_148\n      jumpi\n      dup1\n      0x61879075\n      gt\n      tag_149\n      jumpi\n      dup1\n      0x61879075\n      eq\n      tag_45\n      jumpi\n      dup1\n      0x6785f847\n      eq\n      tag_46\n      jumpi\n      dup1\n      0x6a8e0ece\n      eq\n      tag_47\n      jumpi\n      dup1\n      0x715018a6\n      eq\n      tag_48\n      jumpi\n      jump(tag_2)\n    tag_149:\n      dup1\n      0x557c1abe\n      eq\n      tag_41\n      jumpi\n      dup1\n      0x55a35f5c\n      eq\n      tag_42\n      jumpi\n      dup1\n      0x5cb361f6\n      eq\n      tag_43\n      jumpi\n      dup1\n      0x5d1c3182\n      eq\n      tag_44\n      jumpi\n      jump(tag_2)\n    tag_148:\n      dup1\n      0x4ed60b2a\n      gt\n      tag_150\n      jumpi\n      dup1\n      0x4ed60b2a\n      eq\n      tag_37\n      jumpi\n      dup1\n      0x51912f29\n      eq\n      tag_38\n      jumpi\n      dup1\n      0x531780bb\n      eq\n      tag_39\n      jumpi\n      dup1\n      0x5492f302\n      eq\n      tag_40\n      jumpi\n      jump(tag_2)\n    tag_150:\n      dup1\n      0x49b46787\n      eq\n      tag_34\n      jumpi\n      dup1\n      0x4e5638f5\n      eq\n      tag_35\n      jumpi\n      dup1\n      0x4e87c5a8\n      eq\n      tag_36\n      jumpi\n      jump(tag_2)\n    tag_143:\n      dup1\n      0x2b0afab3\n      gt\n      tag_151\n      jumpi\n      dup1\n      0x3692616a\n      gt\n      tag_152\n      jumpi\n      dup1\n      0x42df5641\n      gt\n      tag_153\n      jumpi\n      dup1\n      0x42df5641\n      eq\n      tag_30\n      jumpi\n      dup1\n      0x444d62b6\n      eq\n      tag_31\n      jumpi\n      dup1\n      0x463444b7\n      eq\n      tag_32\n      jumpi\n      dup1\n      0x484df80a\n      eq\n      tag_33\n      jumpi\n      jump(tag_2)\n    tag_153:\n      dup1\n      0x3692616a\n      eq\n      tag_26\n      jumpi\n      dup1\n      0x36fc43fc\n      eq\n      tag_27\n      jumpi\n      dup1\n      0x386d0976\n      eq\n      tag_28\n      jumpi\n      dup1\n      0x3968ec84\n      eq\n      tag_29\n      jumpi\n      jump(tag_2)\n    tag_152:\n      dup1\n      0x2e2f93f3\n      gt\n      tag_154\n      jumpi\n      dup1\n      0x2e2f93f3\n      eq\n      tag_22\n      jumpi\n      dup1\n      0x30c0bb79\n      eq\n      tag_23\n      jumpi\n      dup1\n      0x31911c91\n      eq\n      tag_24\n      jumpi\n      dup1\n      0x34c37e21\n      eq\n      tag_25\n      jumpi\n      jump(tag_2)\n    tag_154:\n      dup1\n      0x2b0afab3\n      eq\n      tag_18\n      jumpi\n      dup1\n      0x2be05960\n      eq\n      tag_19\n      jumpi\n      dup1\n      0x2bf8abb3\n      eq\n      tag_20\n      jumpi\n      dup1\n      0x2d09a8e3\n      eq\n      tag_21\n      jumpi\n      jump(tag_2)\n    tag_151:\n      dup1\n      0x0a5a4c20\n      gt\n      tag_155\n      jumpi\n      dup1\n      0x175bf630\n      gt\n      tag_156\n      jumpi\n      dup1\n      0x175bf630\n      eq\n      tag_14\n      jumpi\n      dup1\n      0x1d0fb88e\n      eq\n      tag_15\n      jumpi\n      dup1\n      0x29a47bc7\n      eq\n      tag_16\n      jumpi\n      dup1\n      0x29e3dd1f\n      eq\n      tag_17\n      jumpi\n      jump(tag_2)\n    tag_156:\n      dup1\n      0x0a5a4c20\n      eq\n      tag_10\n      jumpi\n      dup1\n      0x0b08bfd9\n      eq\n      tag_11\n      jumpi\n      dup1\n      0x0f1f0ffe\n      eq\n      tag_12\n      jumpi\n      dup1\n      0x0f78cc76\n      eq\n      tag_13\n      jumpi\n      jump(tag_2)\n    tag_155:\n      dup1\n      0x06606d67\n      gt\n      tag_157\n      jumpi\n      dup1\n      0x06606d67\n      eq\n      tag_6\n      jumpi\n      dup1\n      0x0855d151\n      eq\n      tag_7\n      jumpi\n      dup1\n      0x08e7f0db\n      eq\n      tag_8\n      jumpi\n      dup1\n      0x092a5cce\n      eq\n      tag_9\n      jumpi\n      jump(tag_2)\n    tag_157:\n      dup1\n      0x653ff8\n      eq\n      tag_3\n      jumpi\n      dup1\n      0x0363a1bf\n      eq\n      tag_4\n      jumpi\n      dup1\n      0x04e76c8f\n      eq\n      tag_5\n      jumpi\n    tag_2:\n      0x00\n      dup1\n      revert\n        /* \"worksystems/Parameters.sol\":757:804  uint256 public SPOT_MIN_STAKE = 25 * (10 ** 18) */\n    tag_3:\n      tag_158\n      tag_159\n      jump\t// in\n    tag_158:\n      mload(0x40)\n      tag_160\n      swap2\n      swap1\n      tag_161\n      jump\t// in\n    tag_160:\n      mload(0x40)\n      dup1\n      swap2\n      sub\n      swap1\n      return\n        /* \"worksystems/Parameters.sol\":22263:22383  function get_ARCHIVING_DATA_BATCH_SIZE() public view returns(uint256){\r... */\n    tag_4:\n      tag_158\n      tag_163\n      jump\t// in\n        /* \"worksystems/Parameters.sol\":16800:16895  function getRewardManager() public view returns(address){\r... */\n    tag_5:\n      tag_165\n      tag_166\n      jump\t// in\n    tag_165:\n      mload(0x40)\n      tag_160\n      swap2\n      swap1\n      tag_168\n      jump\t// in\n        /* \"worksystems/Parameters.sol\":3785:3816  address public ComplianceSystem */\n    tag_6:\n      tag_165\n      tag_170\n      jump\t// in\n        /* \"worksystems/Parameters.sol\":16501:16590  function getRepManager() public view returns(address){\r... */\n    tag_7:\n      tag_165\n      tag_173\n      jump\t// in\n        /* \"worksystems/Parameters.sol\":3341:3408  uint256 public ARCHIVING_MIN_REWARD_DataValidation = 1 * (10 ** 15) */\n    tag_8:\n      tag_158\n      tag_176\n      jump\t// in\n        /* \"worksystems/Parameters.sol\":8973:9066  function destroyContract() public onlyOwner {\r... */\n    tag_9:\n      tag_178\n      tag_179\n      jump\t// in\n    tag_178:\n      stop\n        /* \"worksystems/Parameters.sol\":3161:3213  uint256 public ARCHIVING_MIN_STAKE = 25 * (10 ** 18) */\n    tag_10:\n      tag_158\n      tag_181\n      jump\t// in\n        /* \"worksystems/Parameters.sol\":18564:18688  function get_SPOT_MIN_REP_DataValidation() public view returns(uint256){\r... */\n    tag_11:\n      tag_158\n      tag_184\n      jump\t// in\n        /* \"worksystems/Parameters.sol\":19723:19859  function get_NOVOTE_REGISTRATION_WAIT_DURATION() public view returns(uint256){\r... */\n    tag_12:\n      tag_158\n      tag_187\n      jump\t// in\n        /* \"worksystems/Parameters.sol\":19081:19197  function get_SPOT_TIMEFRAME_DURATION() public view returns(uint256){\r... */\n    tag_13:\n      tag_158\n      tag_190\n      jump\t// in\n        /* \"worksystems/Parameters.sol\":1859:1904  uint256 public COMPLIANCE_DATA_BATCH_SIZE = 1 */\n    tag_14:\n      tag_158\n      tag_193\n      jump\t// in\n        /* \"worksystems/Parameters.sol\":985:1032  uint256 public SPOT_REVEAL_ROUND_DURATION = 180 */\n    tag_15:\n      tag_158\n      tag_196\n      jump\t// in\n        /* \"worksystems/Parameters.sol\":3613:3638  address public RepManager */\n    tag_16:\n      tag_165\n      tag_199\n      jump\t// in\n        /* \"worksystems/Parameters.sol\":22937:23069  function get_ARCHIVING_REVEAL_ROUND_DURATION() public view returns(uint256){\r... */\n    tag_17:\n      tag_158\n      tag_202\n      jump\t// in\n        /* \"worksystems/Parameters.sol\":20616:20750  function get_COMPLIANCE_REVEAL_ROUND_DURATION() public view returns(uint256){\r... */\n    tag_18:\n      tag_158\n      tag_205\n      jump\t// in\n        /* \"worksystems/Parameters.sol\":2857:2922  uint256 public INDEXING_MIN_REP_DataValidation  = 10 * (10 ** 15) */\n    tag_19:\n      tag_158\n      tag_208\n      jump\t// in\n        /* \"worksystems/Parameters.sol\":2784:2850  uint256 public INDEXING_MIN_REWARD_DataValidation = 1 * (10 ** 15) */\n    tag_20:\n      tag_158\n      tag_211\n      jump\t// in\n        /* \"worksystems/Parameters.sol\":9562:10993  function updateContractsAddresses(address StakeManager_, address RepManager_, address Reputation_, address RewardManager_, address AddressManager_,\r... */\n    tag_21:\n      tag_178\n      tag_214\n      calldatasize\n      0x04\n      tag_215\n      jump\t// in\n    tag_214:\n      tag_216\n      jump\t// in\n        /* \"worksystems/Parameters.sol\":17414:17499  function getExordeToken() public view returns(address){\r... */\n    tag_22:\n      tag_165\n      tag_218\n      jump\t// in\n        /* \"worksystems/Parameters.sol\":18440:18558  function get_SPOT_MIN_REWARD_SpotData() public view returns(uint256){\r... */\n    tag_23:\n      tag_158\n      tag_221\n      jump\t// in\n        /* \"worksystems/Parameters.sol\":1977:2034  uint256 public COMPLIANCE_MAX_CONSENSUS_WORKER_COUNT  = 4 */\n    tag_24:\n      tag_158\n      tag_224\n      jump\t// in\n        /* \"worksystems/Parameters.sol\":2227:2295  uint256 public COMPLIANCE_MIN_REWARD_DataValidation = 1 * (10 ** 15) */\n    tag_25:\n      tag_158\n      tag_227\n      jump\t// in\n        /* \"worksystems/Parameters.sol\":18066:18188  function get_SPOT_COMMIT_ROUND_DURATION() public view returns(uint256){\r... */\n    tag_26:\n      tag_158\n      tag_230\n      jump\t// in\n        /* \"worksystems/Parameters.sol\":1396:1434  bool public SPOT_TOGGLE_ENABLED = true */\n    tag_27:\n      tag_232\n      tag_233\n      jump\t// in\n    tag_232:\n      mload(0x40)\n      tag_160\n      swap2\n      swap1\n      tag_235\n      jump\t// in\n        /* \"worksystems/Parameters.sol\":21913:22051  function get_INDEXING_MIN_REWARD_DataValidation() public view returns(uint256){\r... */\n    tag_28:\n      tag_158\n      tag_237\n      jump\t// in\n        /* \"worksystems/Parameters.sol\":22651:22793  function get_ARCHIVING_MAX_CONSENSUS_WORKER_COUNT() public view returns(uint256){\r... */\n    tag_29:\n      tag_158\n      tag_240\n      jump\t// in\n        /* \"worksystems/Parameters.sol\":2044:2097  uint256 public COMPLIANCE_MIN_STAKE = 25 * (10 ** 18) */\n    tag_30:\n      tag_158\n      tag_243\n      jump\t// in\n        /* \"worksystems/Parameters.sol\":2479:2534  uint256 public INDEXING_MIN_CONSENSUS_WORKER_COUNT  = 2 */\n    tag_31:\n      tag_158\n      tag_246\n      jump\t// in\n        /* \"worksystems/Parameters.sol\":17218:17317  function getArchivingSystem() public view returns(address){\r... */\n    tag_32:\n      tag_165\n      tag_249\n      jump\t// in\n        /* \"worksystems/Parameters.sol\":20476:20610  function get_COMPLIANCE_COMMIT_ROUND_DURATION() public view returns(uint256){\r... */\n    tag_33:\n      tag_158\n      tag_252\n      jump\t// in\n        /* \"worksystems/Parameters.sol\":23221:23355  function get_ARCHIVING_MIN_REP_DataValidation() public view returns(uint256){\r... */\n    tag_34:\n      tag_158\n      tag_255\n      jump\t// in\n        /* \"worksystems/Parameters.sol\":599:651  uint256 public MAX_CONTRACT_STORED_BATCHES  = 200000 */\n    tag_35:\n      tag_158\n      tag_258\n      jump\t// in\n        /* \"worksystems/Parameters.sol\":18966:19071  function get_SPOT_TOGGLE_ENABLED() public view returns(bool){\r... */\n    tag_36:\n      tag_232\n      tag_261\n      jump\t// in\n        /* \"worksystems/Parameters.sol\":2979:3023  uint256 public ARCHIVING_DATA_BATCH_SIZE = 1 */\n    tag_37:\n      tag_158\n      tag_264\n      jump\t// in\n        /* \"worksystems/Parameters.sol\":3645:3673  address public RewardManager */\n    tag_38:\n      tag_165\n      tag_267\n      jump\t// in\n        /* \"worksystems/Parameters.sol\":3221:3273  uint256 public ARCHIVING_COMMIT_ROUND_DURATION = 400 */\n    tag_39:\n      tag_158\n      tag_270\n      jump\t// in\n        /* \"worksystems/Parameters.sol\":16697:16794  function getAddressManager() public view returns(address){\r... */\n    tag_40:\n      tag_165\n      tag_273\n      jump\t// in\n        /* \"worksystems/Parameters.sol\":17323:17408  function getsFuelSystem() public view returns(address){\r... */\n    tag_41:\n      tag_165\n      tag_276\n      jump\t// in\n        /* \"worksystems/Parameters.sol\":14870:15809  function updateArchivingParameters(uint256 ParameterIndex, uint256 uintValue) public onlyOwner {        \r... */\n    tag_42:\n      tag_178\n      tag_279\n      calldatasize\n      0x04\n      tag_280\n      jump\t// in\n    tag_279:\n      tag_281\n      jump\t// in\n        /* \"worksystems/Parameters.sol\":1109:1164  uint256 public SPOT_MIN_REP_SpotData  = 10 * (10 ** 15) */\n    tag_43:\n      tag_158\n      tag_283\n      jump\t// in\n        /* \"worksystems/Parameters.sol\":3031:3087  uint256 public ARCHIVING_MIN_CONSENSUS_WORKER_COUNT  = 2 */\n    tag_44:\n      tag_158\n      tag_286\n      jump\t// in\n        /* \"worksystems/Parameters.sol\":9078:9554  function updateGeneralParameters(uint256 ParameterIndex, uint256 uintValue) public onlyOwner {        \r... */\n    tag_45:\n      tag_178\n      tag_289\n      calldatasize\n      0x04\n      tag_280\n      jump\t// in\n    tag_289:\n      tag_290\n      jump\t// in\n        /* \"worksystems/Parameters.sol\":2105:2158  uint256 public COMPLIANCE_COMMIT_ROUND_DURATION = 400 */\n    tag_46:\n      tag_158\n      tag_292\n      jump\t// in\n        /* \"worksystems/Parameters.sol\":2302:2369  uint256 public COMPLIANCE_MIN_REP_DataValidation  = 10 * (10 ** 15) */\n    tag_47:\n      tag_158\n      tag_295\n      jump\t// in\n        /* \"@openzeppelin/contracts/access/Ownable.sol\":1831:1932  function renounceOwnership() public virtual onlyOwner {... */\n    tag_48:\n      tag_178\n      tag_298\n      jump\t// in\n        /* \"worksystems/Parameters.sol\":1912:1969  uint256 public COMPLIANCE_MIN_CONSENSUS_WORKER_COUNT  = 2 */\n    tag_49:\n      tag_158\n      tag_300\n      jump\t// in\n        /* \"worksystems/Parameters.sol\":18194:18316  function get_SPOT_REVEAL_ROUND_DURATION() public view returns(uint256){\r... */\n    tag_50:\n      tag_158\n      tag_303\n      jump\t// in\n        /* \"worksystems/Parameters.sol\":13930:14860  function updateIndexingParameters(uint256 ParameterIndex, uint256 uintValue) public onlyOwner {        \r... */\n    tag_51:\n      tag_178\n      tag_306\n      calldatasize\n      0x04\n      tag_280\n      jump\t// in\n    tag_306:\n      tag_307\n      jump\t// in\n        /* \"worksystems/Parameters.sol\":2607:2658  uint256 public INDEXING_MIN_STAKE = 25 * (10 ** 18) */\n    tag_52:\n      tag_158\n      tag_309\n      jump\t// in\n        /* \"worksystems/Parameters.sol\":17115:17212  function getIndexingSystem() public view returns(address){\r... */\n    tag_53:\n      tag_165\n      tag_312\n      jump\t// in\n        /* \"worksystems/Parameters.sol\":3684:3713  address public AddressManager */\n    tag_54:\n      tag_165\n      tag_315\n      jump\t// in\n        /* \"worksystems/Parameters.sol\":16084:16196  function get_MAX_UPDATE_ITERATIONS() public view returns(uint256){\r... */\n    tag_55:\n      tag_158\n      tag_318\n      jump\t// in\n        /* \"worksystems/Parameters.sol\":2724:2775  uint256 public INDEXING_REVEAL_ROUND_DURATION = 180 */\n    tag_56:\n      tag_158\n      tag_321\n      jump\t// in\n        /* \"worksystems/Parameters.sol\":3280:3332  uint256 public ARCHIVING_REVEAL_ROUND_DURATION = 180 */\n    tag_57:\n      tag_158\n      tag_324\n      jump\t// in\n        /* \"worksystems/Parameters.sol\":3547:3574  address public StakeManager */\n    tag_58:\n      tag_165\n      tag_327\n      jump\t// in\n        /* \"worksystems/Parameters.sol\":22057:22189  function get_INDEXING_MIN_REP_DataValidation() public view returns(uint256){\r... */\n    tag_59:\n      tag_158\n      tag_330\n      jump\t// in\n        /* \"worksystems/Parameters.sol\":1240:1301  uint256 public SPOT_MIN_REP_DataValidation  = 10 * (10 ** 15) */\n    tag_60:\n      tag_158\n      tag_333\n      jump\t// in\n        /* \"worksystems/Parameters.sol\":1171:1233  uint256 public SPOT_MIN_REWARD_DataValidation = 1 * (10 ** 15) */\n    tag_61:\n      tag_158\n      tag_336\n      jump\t// in\n        /* \"worksystems/Parameters.sol\":1441:1488  uint256 public SPOT_TIMEFRAME_DURATION  = 15*60 */\n    tag_62:\n      tag_158\n      tag_339\n      jump\t// in\n        /* \"worksystems/Parameters.sol\":23075:23215  function get_ARCHIVING_MIN_REWARD_DataValidation() public view returns(uint256){\r... */\n    tag_63:\n      tag_158\n      tag_342\n      jump\t// in\n        /* \"worksystems/Parameters.sol\":20904:21040  function get_COMPLIANCE_MIN_REP_DataValidation() public view returns(uint256){\r... */\n    tag_64:\n      tag_158\n      tag_345\n      jump\t// in\n        /* \"worksystems/Parameters.sol\":21777:21907  function get_INDEXING_REVEAL_ROUND_DURATION() public view returns(uint256){\r... */\n    tag_65:\n      tag_158\n      tag_348\n      jump\t// in\n        /* \"@openzeppelin/contracts/access/Ownable.sol\":1201:1286  function owner() public view virtual returns (address) {... */\n    tag_66:\n      tag_165\n      tag_351\n      jump\t// in\n        /* \"worksystems/Parameters.sol\":21641:21771  function get_INDEXING_COMMIT_ROUND_DURATION() public view returns(uint256){\r... */\n    tag_67:\n      tag_158\n      tag_354\n      jump\t// in\n        /* \"worksystems/Parameters.sol\":547:589  uint256 public MAX_UPDATE_ITERATIONS  = 50 */\n    tag_68:\n      tag_158\n      tag_357\n      jump\t// in\n        /* \"worksystems/Parameters.sol\":22799:22931  function get_ARCHIVING_COMMIT_ROUND_DURATION() public view returns(uint256){\r... */\n    tag_69:\n      tag_158\n      tag_360\n      jump\t// in\n        /* \"worksystems/Parameters.sol\":15881:15982  function getMaxTotalWorkers() public view returns(uint256){\r... */\n    tag_70:\n      tag_158\n      tag_363\n      jump\t// in\n        /* \"worksystems/Parameters.sol\":3581:3606  address public Reputation */\n    tag_71:\n      tag_165\n      tag_366\n      jump\t// in\n        /* \"worksystems/Parameters.sol\":22503:22645  function get_ARCHIVING_MIN_CONSENSUS_WORKER_COUNT() public view returns(uint256){\r... */\n    tag_72:\n      tag_158\n      tag_369\n      jump\t// in\n        /* \"worksystems/Parameters.sol\":2165:2218  uint256 public COMPLIANCE_REVEAL_ROUND_DURATION = 180 */\n    tag_73:\n      tag_158\n      tag_372\n      jump\t// in\n        /* \"worksystems/Parameters.sol\":17570:17680  function get_SPOT_DATA_BATCH_SIZE() public view returns(uint256){\r... */\n    tag_74:\n      tag_158\n      tag_375\n      jump\t// in\n        /* \"worksystems/Parameters.sol\":19603:19717  function get_MAX_SUCCEEDING_NOVOTES() public view returns(uint256){\r... */\n    tag_75:\n      tag_158\n      tag_378\n      jump\t// in\n        /* \"worksystems/Parameters.sol\":21349:21489  function get_INDEXING_MIN_CONSENSUS_WORKER_COUNT() public view returns(uint256){\r... */\n    tag_76:\n      tag_158\n      tag_381\n      jump\t// in\n        /* \"worksystems/Parameters.sol\":459:498  uint256 public MAX_TOTAL_WORKERS = 1000 */\n    tag_77:\n      tag_158\n      tag_384\n      jump\t// in\n        /* \"worksystems/Parameters.sol\":873:924  uint256 public SPOT_MAX_CONSENSUS_WORKER_COUNT  = 4 */\n    tag_78:\n      tag_158\n      tag_387\n      jump\t// in\n        /* \"worksystems/Parameters.sol\":3720:3740  address public sFuel */\n    tag_79:\n      tag_165\n      tag_390\n      jump\t// in\n        /* \"worksystems/Parameters.sol\":18322:18434  function get_SPOT_MIN_REP_SpotData() public view returns(uint256){\r... */\n    tag_80:\n      tag_158\n      tag_393\n      jump\t// in\n        /* \"worksystems/Parameters.sol\":3095:3151  uint256 public ARCHIVING_MAX_CONSENSUS_WORKER_COUNT  = 4 */\n    tag_81:\n      tag_158\n      tag_396\n      jump\t// in\n        /* \"worksystems/Parameters.sol\":22389:22497  function get_ARCHIVING_MIN_STAKE() public view returns(uint256){\r... */\n    tag_82:\n      tag_158\n      tag_399\n      jump\t// in\n        /* \"worksystems/Parameters.sol\":19207:19339  function get_SPOT_GLOBAL_MAX_SPOT_PER_PERIOD() public view returns(uint256){\r... */\n    tag_83:\n      tag_158\n      tag_402\n      jump\t// in\n        /* \"worksystems/Parameters.sol\":16905:17002  function getSpottingSystem() public view returns(address){\r... */\n    tag_84:\n      tag_165\n      tag_405\n      jump\t// in\n        /* \"worksystems/Parameters.sol\":1630:1667  uint256 public SPOT_NB_TIMEFRAMES = 4 */\n    tag_85:\n      tag_158\n      tag_408\n      jump\t// in\n        /* \"worksystems/Parameters.sol\":3859:3889  address public ArchivingSystem */\n    tag_86:\n      tag_165\n      tag_411\n      jump\t// in\n        /* \"worksystems/Parameters.sol\":17790:17922  function get_SPOT_MIN_CONSENSUS_WORKER_COUNT() public view returns(uint256){\r... */\n    tag_87:\n      tag_158\n      tag_414\n      jump\t// in\n        /* \"worksystems/Parameters.sol\":19349:19485  function get_SPOT_MAX_SPOT_PER_USER_PER_PERIOD() public view returns(uint256){\r... */\n    tag_88:\n      tag_158\n      tag_417\n      jump\t// in\n        /* \"worksystems/Parameters.sol\":1569:1623  uint256 public SPOT_MAX_SPOT_PER_USER_PER_PERIOD  = 25 */\n    tag_89:\n      tag_158\n      tag_420\n      jump\t// in\n        /* \"worksystems/Parameters.sol\":21237:21343  function get_INDEXING_MIN_STAKE() public view returns(uint256){\r... */\n    tag_90:\n      tag_158\n      tag_423\n      jump\t// in\n        /* \"worksystems/Parameters.sol\":18830:18960  function get_SPOT_INTER_ALLOCATION_DURATION() public view returns(uint256){\r... */\n    tag_91:\n      tag_158\n      tag_426\n      jump\t// in\n        /* \"worksystems/Parameters.sol\":711:750  uint256 public SPOT_DATA_BATCH_SIZE = 1 */\n    tag_92:\n      tag_158\n      tag_429\n      jump\t// in\n        /* \"worksystems/Parameters.sol\":505:537  uint256 public VOTE_QUORUM  = 50 */\n    tag_93:\n      tag_158\n      tag_432\n      jump\t// in\n        /* \"worksystems/Parameters.sol\":2428:2471  uint256 public INDEXING_DATA_BATCH_SIZE = 1 */\n    tag_94:\n      tag_158\n      tag_435\n      jump\t// in\n        /* \"worksystems/Parameters.sol\":16402:16495  function getStakeManager() public view returns(address){\r... */\n    tag_95:\n      tag_165\n      tag_438\n      jump\t// in\n        /* \"worksystems/Parameters.sol\":21113:21231  function get_INDEXING_DATA_BATCH_SIZE() public view returns(uint256){\r... */\n    tag_96:\n      tag_158\n      tag_441\n      jump\t// in\n        /* \"worksystems/Parameters.sol\":1727:1783  uint256 public NOVOTE_REGISTRATION_WAIT_DURATION  = 3600 */\n    tag_97:\n      tag_158\n      tag_444\n      jump\t// in\n        /* \"worksystems/Parameters.sol\":19932:20054  function get_COMPLIANCE_DATA_BATCH_SIZE() public view returns(uint256){\r... */\n    tag_98:\n      tag_158\n      tag_447\n      jump\t// in\n        /* \"worksystems/Parameters.sol\":1674:1716  uint256 public MAX_SUCCEEDING_NOVOTES  = 3 */\n    tag_99:\n      tag_158\n      tag_450\n      jump\t// in\n        /* \"worksystems/Parameters.sol\":1046:1102  uint256 public SPOT_MIN_REWARD_SpotData = 1 * (10 ** 15) */\n    tag_100:\n      tag_158\n      tag_453\n      jump\t// in\n        /* \"worksystems/Parameters.sol\":3749:3778  address public SpottingSystem */\n    tag_101:\n      tag_165\n      tag_456\n      jump\t// in\n        /* \"worksystems/Parameters.sol\":20326:20470  function get_COMPLIANCE_MAX_CONSENSUS_WORKER_COUNT() public view returns(uint256){\r... */\n    tag_102:\n      tag_158\n      tag_459\n      jump\t// in\n        /* \"worksystems/Parameters.sol\":17928:18060  function get_SPOT_MAX_CONSENSUS_WORKER_COUNT() public view returns(uint256){\r... */\n    tag_103:\n      tag_158\n      tag_462\n      jump\t// in\n        /* \"worksystems/Parameters.sol\":1508:1562  uint256 public SPOT_GLOBAL_MAX_SPOT_PER_PERIOD  = 1000 */\n    tag_104:\n      tag_158\n      tag_465\n      jump\t// in\n        /* \"worksystems/Parameters.sol\":12972:13920  function updateComplianceParameters(uint256 ParameterIndex, uint256 uintValue) public onlyOwner {        \r... */\n    tag_105:\n      tag_178\n      tag_468\n      calldatasize\n      0x04\n      tag_280\n      jump\t// in\n    tag_468:\n      tag_469\n      jump\t// in\n        /* \"worksystems/Parameters.sol\":16202:16326  function get_MAX_CONTRACT_STORED_BATCHES() public view returns(uint256){\r... */\n    tag_106:\n      tag_158\n      tag_471\n      jump\t// in\n        /* \"worksystems/Parameters.sol\":20060:20170  function get_COMPLIANCE_MIN_STAKE() public view returns(uint256){\r... */\n    tag_107:\n      tag_158\n      tag_474\n      jump\t// in\n        /* \"worksystems/Parameters.sol\":1338:1389  uint256 public SPOT_INTER_ALLOCATION_DURATION = 400 */\n    tag_108:\n      tag_158\n      tag_477\n      jump\t// in\n        /* \"worksystems/Parameters.sol\":19491:19597  function get_SPOT_NB_TIMEFRAMES() public view returns(uint256){\r... */\n    tag_109:\n      tag_158\n      tag_480\n      jump\t// in\n        /* \"worksystems/Parameters.sol\":21495:21635  function get_INDEXING_MAX_CONSENSUS_WORKER_COUNT() public view returns(uint256){\r... */\n    tag_110:\n      tag_158\n      tag_483\n      jump\t// in\n        /* \"worksystems/Parameters.sol\":931:978  uint256 public SPOT_COMMIT_ROUND_DURATION = 180 */\n    tag_111:\n      tag_158\n      tag_486\n      jump\t// in\n        /* \"worksystems/Parameters.sol\":2666:2717  uint256 public INDEXING_COMMIT_ROUND_DURATION = 400 */\n    tag_112:\n      tag_158\n      tag_489\n      jump\t// in\n        /* \"worksystems/Parameters.sol\":16596:16691  function getReputationSystem() public view returns(address){\r... */\n    tag_113:\n      tag_165\n      tag_492\n      jump\t// in\n        /* \"worksystems/Parameters.sol\":15988:16078  function getVoteQuorum() public view returns(uint256){\r... */\n    tag_114:\n      tag_158\n      tag_495\n      jump\t// in\n        /* \"worksystems/Parameters.sol\":11013:12962  function updateSpottingParameters(uint256 ParameterIndex, uint256 uintValue, bool boolValue) public onlyOwner {        \r... */\n    tag_115:\n      tag_178\n      tag_498\n      calldatasize\n      0x04\n      tag_499\n      jump\t// in\n    tag_498:\n      tag_500\n      jump\t// in\n        /* \"worksystems/Parameters.sol\":20756:20898  function get_COMPLIANCE_MIN_REWARD_DataValidation() public view returns(uint256){\r... */\n    tag_116:\n      tag_158\n      tag_502\n      jump\t// in\n        /* \"@openzeppelin/contracts/access/Ownable.sol\":2081:2279  function transferOwnership(address newOwner) public virtual onlyOwner {... */\n    tag_117:\n      tag_178\n      tag_505\n      calldatasize\n      0x04\n      tag_506\n      jump\t// in\n    tag_505:\n      tag_507\n      jump\t// in\n        /* \"worksystems/Parameters.sol\":2542:2597  uint256 public INDEXING_MAX_CONSENSUS_WORKER_COUNT  = 4 */\n    tag_118:\n      tag_158\n      tag_509\n      jump\t// in\n        /* \"worksystems/Parameters.sol\":3415:3481  uint256 public ARCHIVING_MIN_REP_DataValidation  = 10 * (10 ** 15) */\n    tag_119:\n      tag_158\n      tag_512\n      jump\t// in\n        /* \"worksystems/Parameters.sol\":17008:17109  function getComplianceSystem() public view returns(address){\r... */\n    tag_120:\n      tag_165\n      tag_515\n      jump\t// in\n        /* \"worksystems/Parameters.sol\":18694:18824  function get_SPOT_MIN_REWARD_DataValidation() public view returns(uint256){\r... */\n    tag_121:\n      tag_158\n      tag_518\n      jump\t// in\n        /* \"worksystems/Parameters.sol\":812:863  uint256 public SPOT_MIN_CONSENSUS_WORKER_COUNT  = 2 */\n    tag_122:\n      tag_158\n      tag_521\n      jump\t// in\n        /* \"worksystems/Parameters.sol\":3823:3852  address public IndexingSystem */\n    tag_123:\n      tag_165\n      tag_524\n      jump\t// in\n        /* \"worksystems/Parameters.sol\":3520:3540  address public token */\n    tag_124:\n      tag_165\n      tag_527\n      jump\t// in\n        /* \"worksystems/Parameters.sol\":17686:17784  function get_SPOT_MIN_STAKE() public view returns(uint256){\r... */\n    tag_125:\n      tag_158\n      tag_530\n      jump\t// in\n        /* \"worksystems/Parameters.sol\":20176:20320  function get_COMPLIANCE_MIN_CONSENSUS_WORKER_COUNT() public view returns(uint256){\r... */\n    tag_126:\n      tag_158\n      tag_533\n      jump\t// in\n        /* \"worksystems/Parameters.sol\":757:804  uint256 public SPOT_MIN_STAKE = 25 * (10 ** 18) */\n    tag_159:\n      sload(0x06)\n      dup2\n      jump\t// out\n        /* \"worksystems/Parameters.sol\":22263:22383  function get_ARCHIVING_DATA_BATCH_SIZE() public view returns(uint256){\r... */\n    tag_163:\n        /* \"worksystems/Parameters.sol\":22350:22375  ARCHIVING_DATA_BATCH_SIZE */\n      sload(0x27)\n        /* \"worksystems/Parameters.sol\":22263:22383  function get_ARCHIVING_DATA_BATCH_SIZE() public view returns(uint256){\r... */\n      swap1\n      jump\t// out\n        /* \"worksystems/Parameters.sol\":16800:16895  function getRewardManager() public view returns(address){\r... */\n    tag_166:\n        /* \"worksystems/Parameters.sol\":16874:16887  RewardManager */\n      and(sub(shl(0xa0, 0x01), 0x01), sload(0x33))\n        /* \"worksystems/Parameters.sol\":16800:16895  function getRewardManager() public view returns(address){\r... */\n      swap1\n      jump\t// out\n        /* \"worksystems/Parameters.sol\":3785:3816  address public ComplianceSystem */\n    tag_170:\n      and(sub(shl(0xa0, 0x01), 0x01), sload(0x37))\n      dup2\n      jump\t// out\n        /* \"worksystems/Parameters.sol\":16501:16590  function getRepManager() public view returns(address){\r... */\n    tag_173:\n        /* \"worksystems/Parameters.sol\":16572:16582  RepManager */\n      and(sub(shl(0xa0, 0x01), 0x01), sload(0x32))\n        /* \"worksystems/Parameters.sol\":16501:16590  function getRepManager() public view returns(address){\r... */\n      swap1\n      jump\t// out\n        /* \"worksystems/Parameters.sol\":3341:3408  uint256 public ARCHIVING_MIN_REWARD_DataValidation = 1 * (10 ** 15) */\n    tag_176:\n      sload(0x2d)\n      dup2\n      jump\t// out\n        /* \"worksystems/Parameters.sol\":8973:9066  function destroyContract() public onlyOwner {\r... */\n    tag_179:\n        /* \"@openzeppelin/contracts/access/Ownable.sol\":1094:1107  _checkOwner() */\n      tag_539\n        /* \"@openzeppelin/contracts/access/Ownable.sol\":1094:1105  _checkOwner */\n      tag_540\n        /* \"@openzeppelin/contracts/access/Ownable.sol\":1094:1107  _checkOwner() */\n      jump\t// in\n    tag_539:\n        /* \"worksystems/Parameters.sol\":9049:9056  owner() */\n      tag_542\n        /* \"worksystems/Parameters.sol\":9049:9054  owner */\n      tag_351\n        /* \"worksystems/Parameters.sol\":9049:9056  owner() */\n      jump\t// in\n    tag_542:\n      sub(shl(0xa0, 0x01), 0x01)\n        /* \"worksystems/Parameters.sol\":9028:9058  selfdestruct(payable(owner())) */\n      and\n      selfdestruct\n        /* \"worksystems/Parameters.sol\":3161:3213  uint256 public ARCHIVING_MIN_STAKE = 25 * (10 ** 18) */\n    tag_181:\n      sload(0x2a)\n      dup2\n      jump\t// out\n        /* \"worksystems/Parameters.sol\":18564:18688  function get_SPOT_MIN_REP_DataValidation() public view returns(uint256){\r... */\n    tag_184:\n        /* \"worksystems/Parameters.sol\":18653:18680  SPOT_MIN_REP_DataValidation */\n      sload(0x0e)\n        /* \"worksystems/Parameters.sol\":18564:18688  function get_SPOT_MIN_REP_DataValidation() public view returns(uint256){\r... */\n      swap1\n      jump\t// out\n        /* \"worksystems/Parameters.sol\":19723:19859  function get_NOVOTE_REGISTRATION_WAIT_DURATION() public view returns(uint256){\r... */\n    tag_187:\n        /* \"worksystems/Parameters.sol\":19818:19851  NOVOTE_REGISTRATION_WAIT_DURATION */\n      sload(0x16)\n        /* \"worksystems/Parameters.sol\":19723:19859  function get_NOVOTE_REGISTRATION_WAIT_DURATION() public view returns(uint256){\r... */\n      swap1\n      jump\t// out\n        /* \"worksystems/Parameters.sol\":19081:19197  function get_SPOT_TIMEFRAME_DURATION() public view returns(uint256){\r... */\n    tag_190:\n        /* \"worksystems/Parameters.sol\":19166:19189  SPOT_TIMEFRAME_DURATION */\n      sload(0x11)\n        /* \"worksystems/Parameters.sol\":19081:19197  function get_SPOT_TIMEFRAME_DURATION() public view returns(uint256){\r... */\n      swap1\n      jump\t// out\n        /* \"worksystems/Parameters.sol\":1859:1904  uint256 public COMPLIANCE_DATA_BATCH_SIZE = 1 */\n    tag_193:\n      sload(0x17)\n      dup2\n      jump\t// out\n        /* \"worksystems/Parameters.sol\":985:1032  uint256 public SPOT_REVEAL_ROUND_DURATION = 180 */\n    tag_196:\n      sload(0x0a)\n      dup2\n      jump\t// out\n        /* \"worksystems/Parameters.sol\":3613:3638  address public RepManager */\n    tag_199:\n      and(sub(shl(0xa0, 0x01), 0x01), sload(0x32))\n      dup2\n      jump\t// out\n        /* \"worksystems/Parameters.sol\":22937:23069  function get_ARCHIVING_REVEAL_ROUND_DURATION() public view returns(uint256){\r... */\n    tag_202:\n        /* \"worksystems/Parameters.sol\":23030:23061  ARCHIVING_REVEAL_ROUND_DURATION */\n      sload(0x2c)\n        /* \"worksystems/Parameters.sol\":22937:23069  function get_ARCHIVING_REVEAL_ROUND_DURATION() public view returns(uint256){\r... */\n      swap1\n      jump\t// out\n        /* \"worksystems/Parameters.sol\":20616:20750  function get_COMPLIANCE_REVEAL_ROUND_DURATION() public view returns(uint256){\r... */\n    tag_205:\n        /* \"worksystems/Parameters.sol\":20710:20742  COMPLIANCE_REVEAL_ROUND_DURATION */\n      sload(0x1c)\n        /* \"worksystems/Parameters.sol\":20616:20750  function get_COMPLIANCE_REVEAL_ROUND_DURATION() public view returns(uint256){\r... */\n      swap1\n      jump\t// out\n        /* \"worksystems/Parameters.sol\":2857:2922  uint256 public INDEXING_MIN_REP_DataValidation  = 10 * (10 ** 15) */\n    tag_208:\n      sload(0x26)\n      dup2\n      jump\t// out\n        /* \"worksystems/Parameters.sol\":2784:2850  uint256 public INDEXING_MIN_REWARD_DataValidation = 1 * (10 ** 15) */\n    tag_211:\n      sload(0x25)\n      dup2\n      jump\t// out\n        /* \"worksystems/Parameters.sol\":9562:10993  function updateContractsAddresses(address StakeManager_, address RepManager_, address Reputation_, address RewardManager_, address AddressManager_,\r... */\n    tag_216:\n        /* \"@openzeppelin/contracts/access/Ownable.sol\":1094:1107  _checkOwner() */\n      tag_549\n        /* \"@openzeppelin/contracts/access/Ownable.sol\":1094:1105  _checkOwner */\n      tag_540\n        /* \"@openzeppelin/contracts/access/Ownable.sol\":1094:1107  _checkOwner() */\n      jump\t// in\n    tag_549:\n      sub(shl(0xa0, 0x01), 0x01)\n        /* \"worksystems/Parameters.sol\":9955:9982  StakeManager_ != address(0) */\n      dup12\n      and\n      iszero\n        /* \"worksystems/Parameters.sol\":9952:10038  if(StakeManager_ != address(0)){\r... */\n      tag_551\n      jumpi\n        /* \"worksystems/Parameters.sol\":9998:10010  StakeManager */\n      0x30\n        /* \"worksystems/Parameters.sol\":9998:10026  StakeManager = StakeManager_ */\n      dup1\n      sload\n      not(sub(shl(0xa0, 0x01), 0x01))\n      and\n      sub(shl(0xa0, 0x01), 0x01)\n      dup14\n      and\n      or\n      swap1\n      sstore\n        /* \"worksystems/Parameters.sol\":9952:10038  if(StakeManager_ != address(0)){\r... */\n    tag_551:\n      sub(shl(0xa0, 0x01), 0x01)\n        /* \"worksystems/Parameters.sol\":10051:10076  RepManager_ != address(0) */\n      dup11\n      and\n      iszero\n        /* \"worksystems/Parameters.sol\":10048:10128  if(RepManager_ != address(0)){\r... */\n      tag_552\n      jumpi\n        /* \"worksystems/Parameters.sol\":10092:10102  RepManager */\n      0x32\n        /* \"worksystems/Parameters.sol\":10092:10116  RepManager = RepManager_ */\n      dup1\n      sload\n      not(sub(shl(0xa0, 0x01), 0x01))\n      and\n      sub(shl(0xa0, 0x01), 0x01)\n      dup13\n      and\n      or\n      swap1\n      sstore\n        /* \"worksystems/Parameters.sol\":10048:10128  if(RepManager_ != address(0)){\r... */\n    tag_552:\n      sub(shl(0xa0, 0x01), 0x01)\n        /* \"worksystems/Parameters.sol\":10141:10166  Reputation_ != address(0) */\n      dup10\n      and\n      iszero\n        /* \"worksystems/Parameters.sol\":10138:10218  if(Reputation_ != address(0)){\r... */\n      tag_553\n      jumpi\n        /* \"worksystems/Parameters.sol\":10182:10192  Reputation */\n      0x31\n        /* \"worksystems/Parameters.sol\":10182:10206  Reputation = Reputation_ */\n      dup1\n      sload\n      not(sub(shl(0xa0, 0x01), 0x01))\n      and\n      sub(shl(0xa0, 0x01), 0x01)\n      dup12\n      and\n      or\n      swap1\n      sstore\n        /* \"worksystems/Parameters.sol\":10138:10218  if(Reputation_ != address(0)){\r... */\n    tag_553:\n      sub(shl(0xa0, 0x01), 0x01)\n        /* \"worksystems/Parameters.sol\":10231:10259  RewardManager_ != address(0) */\n      dup9\n      and\n      iszero\n        /* \"worksystems/Parameters.sol\":10228:10317  if(RewardManager_ != address(0)){\r... */\n      tag_554\n      jumpi\n        /* \"worksystems/Parameters.sol\":10275:10288  RewardManager */\n      0x33\n        /* \"worksystems/Parameters.sol\":10275:10305  RewardManager = RewardManager_ */\n      dup1\n      sload\n      not(sub(shl(0xa0, 0x01), 0x01))\n      and\n      sub(shl(0xa0, 0x01), 0x01)\n      dup11\n      and\n      or\n      swap1\n      sstore\n        /* \"worksystems/Parameters.sol\":10228:10317  if(RewardManager_ != address(0)){\r... */\n    tag_554:\n      sub(shl(0xa0, 0x01), 0x01)\n        /* \"worksystems/Parameters.sol\":10330:10359  AddressManager_ != address(0) */\n      dup8\n      and\n      iszero\n        /* \"worksystems/Parameters.sol\":10327:10419  if(AddressManager_ != address(0)){\r... */\n      tag_555\n      jumpi\n        /* \"worksystems/Parameters.sol\":10375:10389  AddressManager */\n      0x34\n        /* \"worksystems/Parameters.sol\":10375:10407  AddressManager = AddressManager_ */\n      dup1\n      sload\n      not(sub(shl(0xa0, 0x01), 0x01))\n      and\n      sub(shl(0xa0, 0x01), 0x01)\n      dup10\n      and\n      or\n      swap1\n      sstore\n        /* \"worksystems/Parameters.sol\":10327:10419  if(AddressManager_ != address(0)){\r... */\n    tag_555:\n      sub(shl(0xa0, 0x01), 0x01)\n        /* \"worksystems/Parameters.sol\":10432:10463  ComplianceSystem_ != address(0) */\n      dup6\n      and\n      iszero\n        /* \"worksystems/Parameters.sol\":10429:10527  if(ComplianceSystem_ != address(0)){\r... */\n      tag_556\n      jumpi\n        /* \"worksystems/Parameters.sol\":10479:10495  ComplianceSystem */\n      0x37\n        /* \"worksystems/Parameters.sol\":10479:10515  ComplianceSystem = ComplianceSystem_ */\n      dup1\n      sload\n      not(sub(shl(0xa0, 0x01), 0x01))\n      and\n      sub(shl(0xa0, 0x01), 0x01)\n      dup8\n      and\n      or\n      swap1\n      sstore\n        /* \"worksystems/Parameters.sol\":10429:10527  if(ComplianceSystem_ != address(0)){\r... */\n    tag_556:\n      sub(shl(0xa0, 0x01), 0x01)\n        /* \"worksystems/Parameters.sol\":10540:10569  SpottingSystem_ != address(0) */\n      dup7\n      and\n      iszero\n        /* \"worksystems/Parameters.sol\":10537:10629  if(SpottingSystem_ != address(0)){\r... */\n      tag_557\n      jumpi\n        /* \"worksystems/Parameters.sol\":10585:10599  SpottingSystem */\n      0x36\n        /* \"worksystems/Parameters.sol\":10585:10617  SpottingSystem = SpottingSystem_ */\n      dup1\n      sload\n      not(sub(shl(0xa0, 0x01), 0x01))\n      and\n      sub(shl(0xa0, 0x01), 0x01)\n      dup9\n      and\n      or\n      swap1\n      sstore\n        /* \"worksystems/Parameters.sol\":10537:10629  if(SpottingSystem_ != address(0)){\r... */\n    tag_557:\n      sub(shl(0xa0, 0x01), 0x01)\n        /* \"worksystems/Parameters.sol\":10642:10671  IndexingSystem_ != address(0) */\n      dup5\n      and\n      iszero\n        /* \"worksystems/Parameters.sol\":10639:10731  if(IndexingSystem_ != address(0)){\r... */\n      tag_558\n      jumpi\n        /* \"worksystems/Parameters.sol\":10687:10701  IndexingSystem */\n      0x38\n        /* \"worksystems/Parameters.sol\":10687:10719  IndexingSystem = IndexingSystem_ */\n      dup1\n      sload\n      not(sub(shl(0xa0, 0x01), 0x01))\n      and\n      sub(shl(0xa0, 0x01), 0x01)\n      dup7\n      and\n      or\n      swap1\n      sstore\n        /* \"worksystems/Parameters.sol\":10639:10731  if(IndexingSystem_ != address(0)){\r... */\n    tag_558:\n      sub(shl(0xa0, 0x01), 0x01)\n        /* \"worksystems/Parameters.sol\":10744:10774  ArchivingSystem_ != address(0) */\n      dup4\n      and\n      iszero\n        /* \"worksystems/Parameters.sol\":10741:10836  if(ArchivingSystem_ != address(0)){\r... */\n      tag_559\n      jumpi\n        /* \"worksystems/Parameters.sol\":10790:10805  ArchivingSystem */\n      0x39\n        /* \"worksystems/Parameters.sol\":10790:10824  ArchivingSystem = ArchivingSystem_ */\n      dup1\n      sload\n      not(sub(shl(0xa0, 0x01), 0x01))\n      and\n      sub(shl(0xa0, 0x01), 0x01)\n      dup6\n      and\n      or\n      swap1\n      sstore\n        /* \"worksystems/Parameters.sol\":10741:10836  if(ArchivingSystem_ != address(0)){\r... */\n    tag_559:\n      sub(shl(0xa0, 0x01), 0x01)\n        /* \"worksystems/Parameters.sol\":10849:10869  sFuel_ != address(0) */\n      dup3\n      and\n      iszero\n        /* \"worksystems/Parameters.sol\":10846:10911  if(sFuel_ != address(0)){\r... */\n      tag_560\n      jumpi\n        /* \"worksystems/Parameters.sol\":10885:10890  sFuel */\n      0x35\n        /* \"worksystems/Parameters.sol\":10885:10899  sFuel = sFuel_ */\n      dup1\n      sload\n      not(sub(shl(0xa0, 0x01), 0x01))\n      and\n      sub(shl(0xa0, 0x01), 0x01)\n      dup5\n      and\n      or\n      swap1\n      sstore\n        /* \"worksystems/Parameters.sol\":10846:10911  if(sFuel_ != address(0)){\r... */\n    tag_560:\n      sub(shl(0xa0, 0x01), 0x01)\n        /* \"worksystems/Parameters.sol\":10924:10944  token_ != address(0) */\n      dup2\n      and\n      iszero\n        /* \"worksystems/Parameters.sol\":10921:10986  if(token_ != address(0)){\r... */\n      tag_561\n      jumpi\n        /* \"worksystems/Parameters.sol\":10960:10965  token */\n      0x2f\n        /* \"worksystems/Parameters.sol\":10960:10974  token = token_ */\n      dup1\n      sload\n      not(sub(shl(0xa0, 0x01), 0x01))\n      and\n      sub(shl(0xa0, 0x01), 0x01)\n      dup4\n      and\n      or\n      swap1\n      sstore\n        /* \"worksystems/Parameters.sol\":10921:10986  if(token_ != address(0)){\r... */\n    tag_561:\n        /* \"worksystems/Parameters.sol\":9562:10993  function updateContractsAddresses(address StakeManager_, address RepManager_, address Reputation_, address RewardManager_, address AddressManager_,\r... */\n      pop\n      pop\n      pop\n      pop\n      pop\n      pop\n      pop\n      pop\n      pop\n      pop\n      pop\n      jump\t// out\n        /* \"worksystems/Parameters.sol\":17414:17499  function getExordeToken() public view returns(address){\r... */\n    tag_218:\n        /* \"worksystems/Parameters.sol\":17486:17491  token */\n      and(sub(shl(0xa0, 0x01), 0x01), sload(0x2f))\n        /* \"worksystems/Parameters.sol\":17414:17499  function getExordeToken() public view returns(address){\r... */\n      swap1\n      jump\t// out\n        /* \"worksystems/Parameters.sol\":18440:18558  function get_SPOT_MIN_REWARD_SpotData() public view returns(uint256){\r... */\n    tag_221:\n        /* \"worksystems/Parameters.sol\":18526:18550  SPOT_MIN_REWARD_SpotData */\n      sload(0x0b)\n        /* \"worksystems/Parameters.sol\":18440:18558  function get_SPOT_MIN_REWARD_SpotData() public view returns(uint256){\r... */\n      swap1\n      jump\t// out\n        /* \"worksystems/Parameters.sol\":1977:2034  uint256 public COMPLIANCE_MAX_CONSENSUS_WORKER_COUNT  = 4 */\n    tag_224:\n      sload(0x19)\n      dup2\n      jump\t// out\n        /* \"worksystems/Parameters.sol\":2227:2295  uint256 public COMPLIANCE_MIN_REWARD_DataValidation = 1 * (10 ** 15) */\n    tag_227:\n      sload(0x1d)\n      dup2\n      jump\t// out\n        /* \"worksystems/Parameters.sol\":18066:18188  function get_SPOT_COMMIT_ROUND_DURATION() public view returns(uint256){\r... */\n    tag_230:\n        /* \"worksystems/Parameters.sol\":18154:18180  SPOT_COMMIT_ROUND_DURATION */\n      sload(0x09)\n        /* \"worksystems/Parameters.sol\":18066:18188  function get_SPOT_COMMIT_ROUND_DURATION() public view returns(uint256){\r... */\n      swap1\n      jump\t// out\n        /* \"worksystems/Parameters.sol\":1396:1434  bool public SPOT_TOGGLE_ENABLED = true */\n    tag_233:\n      and(0xff, sload(0x10))\n      dup2\n      jump\t// out\n        /* \"worksystems/Parameters.sol\":21913:22051  function get_INDEXING_MIN_REWARD_DataValidation() public view returns(uint256){\r... */\n    tag_237:\n        /* \"worksystems/Parameters.sol\":22009:22043  INDEXING_MIN_REWARD_DataValidation */\n      sload(0x25)\n        /* \"worksystems/Parameters.sol\":21913:22051  function get_INDEXING_MIN_REWARD_DataValidation() public view returns(uint256){\r... */\n      swap1\n      jump\t// out\n        /* \"worksystems/Parameters.sol\":22651:22793  function get_ARCHIVING_MAX_CONSENSUS_WORKER_COUNT() public view returns(uint256){\r... */\n    tag_240:\n        /* \"worksystems/Parameters.sol\":22749:22785  ARCHIVING_MAX_CONSENSUS_WORKER_COUNT */\n      sload(0x29)\n        /* \"worksystems/Parameters.sol\":22651:22793  function get_ARCHIVING_MAX_CONSENSUS_WORKER_COUNT() public view returns(uint256){\r... */\n      swap1\n      jump\t// out\n        /* \"worksystems/Parameters.sol\":2044:2097  uint256 public COMPLIANCE_MIN_STAKE = 25 * (10 ** 18) */\n    tag_243:\n      sload(0x1a)\n      dup2\n      jump\t// out\n        /* \"worksystems/Parameters.sol\":2479:2534  uint256 public INDEXING_MIN_CONSENSUS_WORKER_COUNT  = 2 */\n    tag_246:\n      sload(0x20)\n      dup2\n      jump\t// out\n        /* \"worksystems/Parameters.sol\":17218:17317  function getArchivingSystem() public view returns(address){\r... */\n    tag_249:\n        /* \"worksystems/Parameters.sol\":17294:17309  ArchivingSystem */\n      and(sub(shl(0xa0, 0x01), 0x01), sload(0x39))\n        /* \"worksystems/Parameters.sol\":17218:17317  function getArchivingSystem() public view returns(address){\r... */\n      swap1\n      jump\t// out\n        /* \"worksystems/Parameters.sol\":20476:20610  function get_COMPLIANCE_COMMIT_ROUND_DURATION() public view returns(uint256){\r... */\n    tag_252:\n        /* \"worksystems/Parameters.sol\":20570:20602  COMPLIANCE_COMMIT_ROUND_DURATION */\n      sload(0x1b)\n        /* \"worksystems/Parameters.sol\":20476:20610  function get_COMPLIANCE_COMMIT_ROUND_DURATION() public view returns(uint256){\r... */\n      swap1\n      jump\t// out\n        /* \"worksystems/Parameters.sol\":23221:23355  function get_ARCHIVING_MIN_REP_DataValidation() public view returns(uint256){\r... */\n    tag_255:\n        /* \"worksystems/Parameters.sol\":23315:23347  ARCHIVING_MIN_REP_DataValidation */\n      sload(0x2e)\n        /* \"worksystems/Parameters.sol\":23221:23355  function get_ARCHIVING_MIN_REP_DataValidation() public view returns(uint256){\r... */\n      swap1\n      jump\t// out\n        /* \"worksystems/Parameters.sol\":599:651  uint256 public MAX_CONTRACT_STORED_BATCHES  = 200000 */\n    tag_258:\n      sload(0x04)\n      dup2\n      jump\t// out\n        /* \"worksystems/Parameters.sol\":18966:19071  function get_SPOT_TOGGLE_ENABLED() public view returns(bool){\r... */\n    tag_261:\n        /* \"worksystems/Parameters.sol\":19044:19063  SPOT_TOGGLE_ENABLED */\n      and(0xff, sload(0x10))\n        /* \"worksystems/Parameters.sol\":18966:19071  function get_SPOT_TOGGLE_ENABLED() public view returns(bool){\r... */\n      swap1\n      jump\t// out\n        /* \"worksystems/Parameters.sol\":2979:3023  uint256 public ARCHIVING_DATA_BATCH_SIZE = 1 */\n    tag_264:\n      sload(0x27)\n      dup2\n      jump\t// out\n        /* \"worksystems/Parameters.sol\":3645:3673  address public RewardManager */\n    tag_267:\n      and(sub(shl(0xa0, 0x01), 0x01), sload(0x33))\n      dup2\n      jump\t// out\n        /* \"worksystems/Parameters.sol\":3221:3273  uint256 public ARCHIVING_COMMIT_ROUND_DURATION = 400 */\n    tag_270:\n      sload(0x2b)\n      dup2\n      jump\t// out\n        /* \"worksystems/Parameters.sol\":16697:16794  function getAddressManager() public view returns(address){\r... */\n    tag_273:\n        /* \"worksystems/Parameters.sol\":16772:16786  AddressManager */\n      and(sub(shl(0xa0, 0x01), 0x01), sload(0x34))\n        /* \"worksystems/Parameters.sol\":16697:16794  function getAddressManager() public view returns(address){\r... */\n      swap1\n      jump\t// out\n        /* \"worksystems/Parameters.sol\":17323:17408  function getsFuelSystem() public view returns(address){\r... */\n    tag_276:\n        /* \"worksystems/Parameters.sol\":17395:17400  sFuel */\n      and(sub(shl(0xa0, 0x01), 0x01), sload(0x35))\n        /* \"worksystems/Parameters.sol\":17323:17408  function getsFuelSystem() public view returns(address){\r... */\n      swap1\n      jump\t// out\n        /* \"worksystems/Parameters.sol\":14870:15809  function updateArchivingParameters(uint256 ParameterIndex, uint256 uintValue) public onlyOwner {        \r... */\n    tag_281:\n        /* \"@openzeppelin/contracts/access/Ownable.sol\":1094:1107  _checkOwner() */\n      tag_574\n        /* \"@openzeppelin/contracts/access/Ownable.sol\":1094:1105  _checkOwner */\n      tag_540\n        /* \"@openzeppelin/contracts/access/Ownable.sol\":1094:1107  _checkOwner() */\n      jump\t// in\n    tag_574:\n        /* \"worksystems/Parameters.sol\":14987:15001  ParameterIndex */\n      dup2\n        /* \"worksystems/Parameters.sol\":15005:15006  1 */\n      0x01\n        /* \"worksystems/Parameters.sol\":14987:15006  ParameterIndex == 1 */\n      eq\n        /* \"worksystems/Parameters.sol\":14984:15071  if(ParameterIndex == 1){\r... */\n      iszero\n      tag_576\n      jumpi\n        /* \"worksystems/Parameters.sol\":15022:15047  ARCHIVING_DATA_BATCH_SIZE */\n      0x27\n        /* \"worksystems/Parameters.sol\":15022:15059  ARCHIVING_DATA_BATCH_SIZE = uintValue */\n      dup2\n      swap1\n      sstore\n        /* \"worksystems/Parameters.sol\":14984:15071  if(ParameterIndex == 1){\r... */\n    tag_576:\n        /* \"worksystems/Parameters.sol\":15084:15098  ParameterIndex */\n      dup2\n        /* \"worksystems/Parameters.sol\":15102:15103  2 */\n      0x02\n        /* \"worksystems/Parameters.sol\":15084:15103  ParameterIndex == 2 */\n      eq\n        /* \"worksystems/Parameters.sol\":15081:15163  if(ParameterIndex == 2){\r... */\n      iszero\n      tag_577\n      jumpi\n        /* \"worksystems/Parameters.sol\":15119:15138  ARCHIVING_MIN_STAKE */\n      0x2a\n        /* \"worksystems/Parameters.sol\":15119:15151  ARCHIVING_MIN_STAKE  = uintValue */\n      dup2\n      swap1\n      sstore\n        /* \"worksystems/Parameters.sol\":15081:15163  if(ParameterIndex == 2){\r... */\n    tag_577:\n        /* \"worksystems/Parameters.sol\":15176:15190  ParameterIndex */\n      dup2\n        /* \"worksystems/Parameters.sol\":15194:15195  3 */\n      0x03\n        /* \"worksystems/Parameters.sol\":15176:15195  ParameterIndex == 3 */\n      eq\n        /* \"worksystems/Parameters.sol\":15173:15272  if(ParameterIndex == 3){\r... */\n      iszero\n      tag_578\n      jumpi\n        /* \"worksystems/Parameters.sol\":15211:15247  ARCHIVING_MIN_CONSENSUS_WORKER_COUNT */\n      0x28\n        /* \"worksystems/Parameters.sol\":15211:15260  ARCHIVING_MIN_CONSENSUS_WORKER_COUNT  = uintValue */\n      dup2\n      swap1\n      sstore\n        /* \"worksystems/Parameters.sol\":15173:15272  if(ParameterIndex == 3){\r... */\n    tag_578:\n        /* \"worksystems/Parameters.sol\":15285:15299  ParameterIndex */\n      dup2\n        /* \"worksystems/Parameters.sol\":15303:15304  4 */\n      0x04\n        /* \"worksystems/Parameters.sol\":15285:15304  ParameterIndex == 4 */\n      eq\n        /* \"worksystems/Parameters.sol\":15282:15381  if(ParameterIndex == 4){\r... */\n      iszero\n      tag_579\n      jumpi\n        /* \"worksystems/Parameters.sol\":15320:15356  ARCHIVING_MAX_CONSENSUS_WORKER_COUNT */\n      0x29\n        /* \"worksystems/Parameters.sol\":15320:15369  ARCHIVING_MAX_CONSENSUS_WORKER_COUNT  = uintValue */\n      dup2\n      swap1\n      sstore\n        /* \"worksystems/Parameters.sol\":15282:15381  if(ParameterIndex == 4){\r... */\n    tag_579:\n        /* \"worksystems/Parameters.sol\":15394:15408  ParameterIndex */\n      dup2\n        /* \"worksystems/Parameters.sol\":15412:15413  5 */\n      0x05\n        /* \"worksystems/Parameters.sol\":15394:15413  ParameterIndex == 5 */\n      eq\n        /* \"worksystems/Parameters.sol\":15391:15485  if(ParameterIndex == 5){\r... */\n      iszero\n      tag_580\n      jumpi\n        /* \"worksystems/Parameters.sol\":15429:15460  ARCHIVING_COMMIT_ROUND_DURATION */\n      0x2b\n        /* \"worksystems/Parameters.sol\":15429:15473  ARCHIVING_COMMIT_ROUND_DURATION  = uintValue */\n      dup2\n      swap1\n      sstore\n        /* \"worksystems/Parameters.sol\":15391:15485  if(ParameterIndex == 5){\r... */\n    tag_580:\n        /* \"worksystems/Parameters.sol\":15498:15512  ParameterIndex */\n      dup2\n        /* \"worksystems/Parameters.sol\":15516:15517  6 */\n      0x06\n        /* \"worksystems/Parameters.sol\":15498:15517  ParameterIndex == 6 */\n      eq\n        /* \"worksystems/Parameters.sol\":15495:15589  if(ParameterIndex == 6){\r... */\n      iszero\n      tag_581\n      jumpi\n        /* \"worksystems/Parameters.sol\":15533:15564  ARCHIVING_REVEAL_ROUND_DURATION */\n      0x2c\n        /* \"worksystems/Parameters.sol\":15533:15577  ARCHIVING_REVEAL_ROUND_DURATION  = uintValue */\n      dup2\n      swap1\n      sstore\n        /* \"worksystems/Parameters.sol\":15495:15589  if(ParameterIndex == 6){\r... */\n    tag_581:\n        /* \"worksystems/Parameters.sol\":15602:15616  ParameterIndex */\n      dup2\n        /* \"worksystems/Parameters.sol\":15620:15621  7 */\n      0x07\n        /* \"worksystems/Parameters.sol\":15602:15621  ParameterIndex == 7 */\n      eq\n        /* \"worksystems/Parameters.sol\":15599:15694  if(ParameterIndex == 7){\r... */\n      iszero\n      tag_582\n      jumpi\n        /* \"worksystems/Parameters.sol\":15637:15669  ARCHIVING_MIN_REP_DataValidation */\n      0x2e\n        /* \"worksystems/Parameters.sol\":15637:15682  ARCHIVING_MIN_REP_DataValidation  = uintValue */\n      dup2\n      swap1\n      sstore\n        /* \"worksystems/Parameters.sol\":15599:15694  if(ParameterIndex == 7){\r... */\n    tag_582:\n        /* \"worksystems/Parameters.sol\":15707:15721  ParameterIndex */\n      dup2\n        /* \"worksystems/Parameters.sol\":15725:15726  8 */\n      0x08\n        /* \"worksystems/Parameters.sol\":15707:15726  ParameterIndex == 8 */\n      eq\n        /* \"worksystems/Parameters.sol\":15704:15802  if(ParameterIndex == 8){\r... */\n      iszero\n      tag_583\n      jumpi\n        /* \"worksystems/Parameters.sol\":15742:15777  ARCHIVING_MIN_REWARD_DataValidation */\n      0x2d\n        /* \"worksystems/Parameters.sol\":15742:15790  ARCHIVING_MIN_REWARD_DataValidation  = uintValue */\n      dup2\n      swap1\n      sstore\n        /* \"worksystems/Parameters.sol\":15704:15802  if(ParameterIndex == 8){\r... */\n    tag_583:\n        /* \"worksystems/Parameters.sol\":14870:15809  function updateArchivingParameters(uint256 ParameterIndex, uint256 uintValue) public onlyOwner {        \r... */\n      pop\n      pop\n      jump\t// out\n        /* \"worksystems/Parameters.sol\":1109:1164  uint256 public SPOT_MIN_REP_SpotData  = 10 * (10 ** 15) */\n    tag_283:\n      sload(0x0c)\n      dup2\n      jump\t// out\n        /* \"worksystems/Parameters.sol\":3031:3087  uint256 public ARCHIVING_MIN_CONSENSUS_WORKER_COUNT  = 2 */\n    tag_286:\n      sload(0x28)\n      dup2\n      jump\t// out\n        /* \"worksystems/Parameters.sol\":9078:9554  function updateGeneralParameters(uint256 ParameterIndex, uint256 uintValue) public onlyOwner {        \r... */\n    tag_290:\n        /* \"@openzeppelin/contracts/access/Ownable.sol\":1094:1107  _checkOwner() */\n      tag_585\n        /* \"@openzeppelin/contracts/access/Ownable.sol\":1094:1105  _checkOwner */\n      tag_540\n        /* \"@openzeppelin/contracts/access/Ownable.sol\":1094:1107  _checkOwner() */\n      jump\t// in\n    tag_585:\n        /* \"worksystems/Parameters.sol\":9193:9207  ParameterIndex */\n      dup2\n        /* \"worksystems/Parameters.sol\":9211:9212  1 */\n      0x01\n        /* \"worksystems/Parameters.sol\":9193:9212  ParameterIndex == 1 */\n      eq\n        /* \"worksystems/Parameters.sol\":9190:9269  if(ParameterIndex == 1){\r... */\n      iszero\n      tag_587\n      jumpi\n        /* \"worksystems/Parameters.sol\":9228:9245  MAX_TOTAL_WORKERS */\n      0x01\n        /* \"worksystems/Parameters.sol\":9228:9257  MAX_TOTAL_WORKERS = uintValue */\n      dup2\n      swap1\n      sstore\n        /* \"worksystems/Parameters.sol\":9190:9269  if(ParameterIndex == 1){\r... */\n    tag_587:\n        /* \"worksystems/Parameters.sol\":9282:9296  ParameterIndex */\n      dup2\n        /* \"worksystems/Parameters.sol\":9300:9301  2 */\n      0x02\n        /* \"worksystems/Parameters.sol\":9282:9301  ParameterIndex == 2 */\n      eq\n        /* \"worksystems/Parameters.sol\":9279:9353  if(ParameterIndex == 2){\r... */\n      iszero\n      tag_588\n      jumpi\n        /* \"worksystems/Parameters.sol\":9317:9328  VOTE_QUORUM */\n      0x02\n        /* \"worksystems/Parameters.sol\":9317:9341  VOTE_QUORUM  = uintValue */\n      dup2\n      swap1\n      sstore\n        /* \"worksystems/Parameters.sol\":9279:9353  if(ParameterIndex == 2){\r... */\n    tag_588:\n        /* \"worksystems/Parameters.sol\":9366:9380  ParameterIndex */\n      dup2\n        /* \"worksystems/Parameters.sol\":9384:9385  3 */\n      0x03\n        /* \"worksystems/Parameters.sol\":9366:9385  ParameterIndex == 3 */\n      eq\n        /* \"worksystems/Parameters.sol\":9363:9447  if(ParameterIndex == 3){\r... */\n      iszero\n      tag_589\n      jumpi\n        /* \"worksystems/Parameters.sol\":9401:9422  MAX_UPDATE_ITERATIONS */\n      0x03\n        /* \"worksystems/Parameters.sol\":9401:9435  MAX_UPDATE_ITERATIONS  = uintValue */\n      dup2\n      swap1\n      sstore\n        /* \"worksystems/Parameters.sol\":9363:9447  if(ParameterIndex == 3){\r... */\n    tag_589:\n        /* \"worksystems/Parameters.sol\":9460:9474  ParameterIndex */\n      dup2\n        /* \"worksystems/Parameters.sol\":9478:9479  4 */\n      0x04\n        /* \"worksystems/Parameters.sol\":9460:9479  ParameterIndex == 4 */\n      eq\n        /* \"worksystems/Parameters.sol\":9457:9547  if(ParameterIndex == 4){\r... */\n      iszero\n      tag_583\n      jumpi\n        /* \"worksystems/Parameters.sol\":9495:9522  MAX_CONTRACT_STORED_BATCHES */\n      0x04\n        /* \"worksystems/Parameters.sol\":9495:9535  MAX_CONTRACT_STORED_BATCHES  = uintValue */\n      sstore\n      pop\n        /* \"worksystems/Parameters.sol\":9078:9554  function updateGeneralParameters(uint256 ParameterIndex, uint256 uintValue) public onlyOwner {        \r... */\n      jump\t// out\n        /* \"worksystems/Parameters.sol\":2105:2158  uint256 public COMPLIANCE_COMMIT_ROUND_DURATION = 400 */\n    tag_292:\n      sload(0x1b)\n      dup2\n      jump\t// out\n        /* \"worksystems/Parameters.sol\":2302:2369  uint256 public COMPLIANCE_MIN_REP_DataValidation  = 10 * (10 ** 15) */\n    tag_295:\n      sload(0x1e)\n      dup2\n      jump\t// out\n        /* \"@openzeppelin/contracts/access/Ownable.sol\":1831:1932  function renounceOwnership() public virtual onlyOwner {... */\n    tag_298:\n        /* \"@openzeppelin/contracts/access/Ownable.sol\":1094:1107  _checkOwner() */\n      tag_592\n        /* \"@openzeppelin/contracts/access/Ownable.sol\":1094:1105  _checkOwner */\n      tag_540\n        /* \"@openzeppelin/contracts/access/Ownable.sol\":1094:1107  _checkOwner() */\n      jump\t// in\n    tag_592:\n        /* \"@openzeppelin/contracts/access/Ownable.sol\":1895:1925  _transferOwnership(address(0)) */\n      tag_594\n        /* \"@openzeppelin/contracts/access/Ownable.sol\":1922:1923  0 */\n      0x00\n        /* \"@openzeppelin/contracts/access/Ownable.sol\":1895:1913  _transferOwnership */\n      tag_595\n        /* \"@openzeppelin/contracts/access/Ownable.sol\":1895:1925  _transferOwnership(address(0)) */\n      jump\t// in\n    tag_594:\n        /* \"@openzeppelin/contracts/access/Ownable.sol\":1831:1932  function renounceOwnership() public virtual onlyOwner {... */\n      jump\t// out\n        /* \"worksystems/Parameters.sol\":1912:1969  uint256 public COMPLIANCE_MIN_CONSENSUS_WORKER_COUNT  = 2 */\n    tag_300:\n      sload(0x18)\n      dup2\n      jump\t// out\n        /* \"worksystems/Parameters.sol\":18194:18316  function get_SPOT_REVEAL_ROUND_DURATION() public view returns(uint256){\r... */\n    tag_303:\n        /* \"worksystems/Parameters.sol\":18282:18308  SPOT_REVEAL_ROUND_DURATION */\n      sload(0x0a)\n        /* \"worksystems/Parameters.sol\":18194:18316  function get_SPOT_REVEAL_ROUND_DURATION() public view returns(uint256){\r... */\n      swap1\n      jump\t// out\n        /* \"worksystems/Parameters.sol\":13930:14860  function updateIndexingParameters(uint256 ParameterIndex, uint256 uintValue) public onlyOwner {        \r... */\n    tag_307:\n        /* \"@openzeppelin/contracts/access/Ownable.sol\":1094:1107  _checkOwner() */\n      tag_598\n        /* \"@openzeppelin/contracts/access/Ownable.sol\":1094:1105  _checkOwner */\n      tag_540\n        /* \"@openzeppelin/contracts/access/Ownable.sol\":1094:1107  _checkOwner() */\n      jump\t// in\n    tag_598:\n        /* \"worksystems/Parameters.sol\":14046:14060  ParameterIndex */\n      dup2\n        /* \"worksystems/Parameters.sol\":14064:14065  1 */\n      0x01\n        /* \"worksystems/Parameters.sol\":14046:14065  ParameterIndex == 1 */\n      eq\n        /* \"worksystems/Parameters.sol\":14043:14129  if(ParameterIndex == 1){\r... */\n      iszero\n      tag_600\n      jumpi\n        /* \"worksystems/Parameters.sol\":14081:14105  INDEXING_DATA_BATCH_SIZE */\n      0x1f\n        /* \"worksystems/Parameters.sol\":14081:14117  INDEXING_DATA_BATCH_SIZE = uintValue */\n      dup2\n      swap1\n      sstore\n        /* \"worksystems/Parameters.sol\":14043:14129  if(ParameterIndex == 1){\r... */\n    tag_600:\n        /* \"worksystems/Parameters.sol\":14142:14156  ParameterIndex */\n      dup2\n        /* \"worksystems/Parameters.sol\":14160:14161  2 */\n      0x02\n        /* \"worksystems/Parameters.sol\":14142:14161  ParameterIndex == 2 */\n      eq\n        /* \"worksystems/Parameters.sol\":14139:14220  if(ParameterIndex == 2){\r... */\n      iszero\n      tag_601\n      jumpi\n        /* \"worksystems/Parameters.sol\":14177:14195  INDEXING_MIN_STAKE */\n      0x22\n        /* \"worksystems/Parameters.sol\":14177:14208  INDEXING_MIN_STAKE  = uintValue */\n      dup2\n      swap1\n      sstore\n        /* \"worksystems/Parameters.sol\":14139:14220  if(ParameterIndex == 2){\r... */\n    tag_601:\n        /* \"worksystems/Parameters.sol\":14233:14247  ParameterIndex */\n      dup2\n        /* \"worksystems/Parameters.sol\":14251:14252  3 */\n      0x03\n        /* \"worksystems/Parameters.sol\":14233:14252  ParameterIndex == 3 */\n      eq\n        /* \"worksystems/Parameters.sol\":14230:14328  if(ParameterIndex == 3){\r... */\n      iszero\n      tag_602\n      jumpi\n        /* \"worksystems/Parameters.sol\":14268:14303  INDEXING_MIN_CONSENSUS_WORKER_COUNT */\n      0x20\n        /* \"worksystems/Parameters.sol\":14268:14316  INDEXING_MIN_CONSENSUS_WORKER_COUNT  = uintValue */\n      dup2\n      swap1\n      sstore\n        /* \"worksystems/Parameters.sol\":14230:14328  if(ParameterIndex == 3){\r... */\n    tag_602:\n        /* \"worksystems/Parameters.sol\":14341:14355  ParameterIndex */\n      dup2\n        /* \"worksystems/Parameters.sol\":14359:14360  4 */\n      0x04\n        /* \"worksystems/Parameters.sol\":14341:14360  ParameterIndex == 4 */\n      eq\n        /* \"worksystems/Parameters.sol\":14338:14436  if(ParameterIndex == 4){\r... */\n      iszero\n      tag_603\n      jumpi\n        /* \"worksystems/Parameters.sol\":14376:14411  INDEXING_MAX_CONSENSUS_WORKER_COUNT */\n      0x21\n        /* \"worksystems/Parameters.sol\":14376:14424  INDEXING_MAX_CONSENSUS_WORKER_COUNT  = uintValue */\n      dup2\n      swap1\n      sstore\n        /* \"worksystems/Parameters.sol\":14338:14436  if(ParameterIndex == 4){\r... */\n    tag_603:\n        /* \"worksystems/Parameters.sol\":14449:14463  ParameterIndex */\n      dup2\n        /* \"worksystems/Parameters.sol\":14467:14468  5 */\n      0x05\n        /* \"worksystems/Parameters.sol\":14449:14468  ParameterIndex == 5 */\n      eq\n        /* \"worksystems/Parameters.sol\":14446:14539  if(ParameterIndex == 5){\r... */\n      iszero\n      tag_604\n      jumpi\n        /* \"worksystems/Parameters.sol\":14484:14514  INDEXING_COMMIT_ROUND_DURATION */\n      0x23\n        /* \"worksystems/Parameters.sol\":14484:14527  INDEXING_COMMIT_ROUND_DURATION  = uintValue */\n      dup2\n      swap1\n      sstore\n        /* \"worksystems/Parameters.sol\":14446:14539  if(ParameterIndex == 5){\r... */\n    tag_604:\n        /* \"worksystems/Parameters.sol\":14552:14566  ParameterIndex */\n      dup2\n        /* \"worksystems/Parameters.sol\":14570:14571  6 */\n      0x06\n        /* \"worksystems/Parameters.sol\":14552:14571  ParameterIndex == 6 */\n      eq\n        /* \"worksystems/Parameters.sol\":14549:14642  if(ParameterIndex == 6){\r... */\n      iszero\n      tag_605\n      jumpi\n        /* \"worksystems/Parameters.sol\":14587:14617  INDEXING_REVEAL_ROUND_DURATION */\n      0x24\n        /* \"worksystems/Parameters.sol\":14587:14630  INDEXING_REVEAL_ROUND_DURATION  = uintValue */\n      dup2\n      swap1\n      sstore\n        /* \"worksystems/Parameters.sol\":14549:14642  if(ParameterIndex == 6){\r... */\n    tag_605:\n        /* \"worksystems/Parameters.sol\":14655:14669  ParameterIndex */\n      dup2\n        /* \"worksystems/Parameters.sol\":14673:14674  7 */\n      0x07\n        /* \"worksystems/Parameters.sol\":14655:14674  ParameterIndex == 7 */\n      eq\n        /* \"worksystems/Parameters.sol\":14652:14746  if(ParameterIndex == 7){\r... */\n      iszero\n      tag_606\n      jumpi\n        /* \"worksystems/Parameters.sol\":14690:14721  INDEXING_MIN_REP_DataValidation */\n      0x26\n        /* \"worksystems/Parameters.sol\":14690:14734  INDEXING_MIN_REP_DataValidation  = uintValue */\n      dup2\n      swap1\n      sstore\n        /* \"worksystems/Parameters.sol\":14652:14746  if(ParameterIndex == 7){\r... */\n    tag_606:\n        /* \"worksystems/Parameters.sol\":14759:14773  ParameterIndex */\n      dup2\n        /* \"worksystems/Parameters.sol\":14777:14778  8 */\n      0x08\n        /* \"worksystems/Parameters.sol\":14759:14778  ParameterIndex == 8 */\n      eq\n        /* \"worksystems/Parameters.sol\":14756:14853  if(ParameterIndex == 8){\r... */\n      iszero\n      tag_583\n      jumpi\n        /* \"worksystems/Parameters.sol\":14794:14828  INDEXING_MIN_REWARD_DataValidation */\n      0x25\n        /* \"worksystems/Parameters.sol\":14794:14841  INDEXING_MIN_REWARD_DataValidation  = uintValue */\n      sstore\n      pop\n        /* \"worksystems/Parameters.sol\":13930:14860  function updateIndexingParameters(uint256 ParameterIndex, uint256 uintValue) public onlyOwner {        \r... */\n      jump\t// out\n        /* \"worksystems/Parameters.sol\":2607:2658  uint256 public INDEXING_MIN_STAKE = 25 * (10 ** 18) */\n    tag_309:\n      sload(0x22)\n      dup2\n      jump\t// out\n        /* \"worksystems/Parameters.sol\":17115:17212  function getIndexingSystem() public view returns(address){\r... */\n    tag_312:\n        /* \"worksystems/Parameters.sol\":17190:17204  IndexingSystem */\n      and(sub(shl(0xa0, 0x01), 0x01), sload(0x38))\n        /* \"worksystems/Parameters.sol\":17115:17212  function getIndexingSystem() public view returns(address){\r... */\n      swap1\n      jump\t// out\n        /* \"worksystems/Parameters.sol\":3684:3713  address public AddressManager */\n    tag_315:\n      and(sub(shl(0xa0, 0x01), 0x01), sload(0x34))\n      dup2\n      jump\t// out\n        /* \"worksystems/Parameters.sol\":16084:16196  function get_MAX_UPDATE_ITERATIONS() public view returns(uint256){\r... */\n    tag_318:\n        /* \"worksystems/Parameters.sol\":16167:16188  MAX_UPDATE_ITERATIONS */\n      sload(0x03)\n        /* \"worksystems/Parameters.sol\":16084:16196  function get_MAX_UPDATE_ITERATIONS() public view returns(uint256){\r... */\n      swap1\n      jump\t// out\n        /* \"worksystems/Parameters.sol\":2724:2775  uint256 public INDEXING_REVEAL_ROUND_DURATION = 180 */\n    tag_321:\n      sload(0x24)\n      dup2\n      jump\t// out\n        /* \"worksystems/Parameters.sol\":3280:3332  uint256 public ARCHIVING_REVEAL_ROUND_DURATION = 180 */\n    tag_324:\n      sload(0x2c)\n      dup2\n      jump\t// out\n        /* \"worksystems/Parameters.sol\":3547:3574  address public StakeManager */\n    tag_327:\n      and(sub(shl(0xa0, 0x01), 0x01), sload(0x30))\n      dup2\n      jump\t// out\n        /* \"worksystems/Parameters.sol\":22057:22189  function get_INDEXING_MIN_REP_DataValidation() public view returns(uint256){\r... */\n    tag_330:\n        /* \"worksystems/Parameters.sol\":22150:22181  INDEXING_MIN_REP_DataValidation */\n      sload(0x26)\n        /* \"worksystems/Parameters.sol\":22057:22189  function get_INDEXING_MIN_REP_DataValidation() public view returns(uint256){\r... */\n      swap1\n      jump\t// out\n        /* \"worksystems/Parameters.sol\":1240:1301  uint256 public SPOT_MIN_REP_DataValidation  = 10 * (10 ** 15) */\n    tag_333:\n      sload(0x0e)\n      dup2\n      jump\t// out\n        /* \"worksystems/Parameters.sol\":1171:1233  uint256 public SPOT_MIN_REWARD_DataValidation = 1 * (10 ** 15) */\n    tag_336:\n      sload(0x0d)\n      dup2\n      jump\t// out\n        /* \"worksystems/Parameters.sol\":1441:1488  uint256 public SPOT_TIMEFRAME_DURATION  = 15*60 */\n    tag_339:\n      sload(0x11)\n      dup2\n      jump\t// out\n        /* \"worksystems/Parameters.sol\":23075:23215  function get_ARCHIVING_MIN_REWARD_DataValidation() public view returns(uint256){\r... */\n    tag_342:\n        /* \"worksystems/Parameters.sol\":23172:23207  ARCHIVING_MIN_REWARD_DataValidation */\n      sload(0x2d)\n        /* \"worksystems/Parameters.sol\":23075:23215  function get_ARCHIVING_MIN_REWARD_DataValidation() public view returns(uint256){\r... */\n      swap1\n      jump\t// out\n        /* \"worksystems/Parameters.sol\":20904:21040  function get_COMPLIANCE_MIN_REP_DataValidation() public view returns(uint256){\r... */\n    tag_345:\n        /* \"worksystems/Parameters.sol\":20999:21032  COMPLIANCE_MIN_REP_DataValidation */\n      sload(0x1e)\n        /* \"worksystems/Parameters.sol\":20904:21040  function get_COMPLIANCE_MIN_REP_DataValidation() public view returns(uint256){\r... */\n      swap1\n      jump\t// out\n        /* \"worksystems/Parameters.sol\":21777:21907  function get_INDEXING_REVEAL_ROUND_DURATION() public view returns(uint256){\r... */\n    tag_348:\n        /* \"worksystems/Parameters.sol\":21869:21899  INDEXING_REVEAL_ROUND_DURATION */\n      sload(0x24)\n        /* \"worksystems/Parameters.sol\":21777:21907  function get_INDEXING_REVEAL_ROUND_DURATION() public view returns(uint256){\r... */\n      swap1\n      jump\t// out\n        /* \"@openzeppelin/contracts/access/Ownable.sol\":1201:1286  function owner() public view virtual returns (address) {... */\n    tag_351:\n        /* \"@openzeppelin/contracts/access/Ownable.sol\":1247:1254  address */\n      0x00\n        /* \"@openzeppelin/contracts/access/Ownable.sol\":1273:1279  _owner */\n      sload\n      sub(shl(0xa0, 0x01), 0x01)\n      and\n        /* \"@openzeppelin/contracts/access/Ownable.sol\":1201:1286  function owner() public view virtual returns (address) {... */\n      swap1\n      jump\t// out\n        /* \"worksystems/Parameters.sol\":21641:21771  function get_INDEXING_COMMIT_ROUND_DURATION() public view returns(uint256){\r... */\n    tag_354:\n        /* \"worksystems/Parameters.sol\":21733:21763  INDEXING_COMMIT_ROUND_DURATION */\n      sload(0x23)\n        /* \"worksystems/Parameters.sol\":21641:21771  function get_INDEXING_COMMIT_ROUND_DURATION() public view returns(uint256){\r... */\n      swap1\n      jump\t// out\n        /* \"worksystems/Parameters.sol\":547:589  uint256 public MAX_UPDATE_ITERATIONS  = 50 */\n    tag_357:\n      sload(0x03)\n      dup2\n      jump\t// out\n        /* \"worksystems/Parameters.sol\":22799:22931  function get_ARCHIVING_COMMIT_ROUND_DURATION() public view returns(uint256){\r... */\n    tag_360:\n        /* \"worksystems/Parameters.sol\":22892:22923  ARCHIVING_COMMIT_ROUND_DURATION */\n      sload(0x2b)\n        /* \"worksystems/Parameters.sol\":22799:22931  function get_ARCHIVING_COMMIT_ROUND_DURATION() public view returns(uint256){\r... */\n      swap1\n      jump\t// out\n        /* \"worksystems/Parameters.sol\":15881:15982  function getMaxTotalWorkers() public view returns(uint256){\r... */\n    tag_363:\n        /* \"worksystems/Parameters.sol\":15957:15974  MAX_TOTAL_WORKERS */\n      sload(0x01)\n        /* \"worksystems/Parameters.sol\":15881:15982  function getMaxTotalWorkers() public view returns(uint256){\r... */\n      swap1\n      jump\t// out\n        /* \"worksystems/Parameters.sol\":3581:3606  address public Reputation */\n    tag_366:\n      and(sub(shl(0xa0, 0x01), 0x01), sload(0x31))\n      dup2\n      jump\t// out\n        /* \"worksystems/Parameters.sol\":22503:22645  function get_ARCHIVING_MIN_CONSENSUS_WORKER_COUNT() public view returns(uint256){\r... */\n    tag_369:\n        /* \"worksystems/Parameters.sol\":22601:22637  ARCHIVING_MIN_CONSENSUS_WORKER_COUNT */\n      sload(0x28)\n        /* \"worksystems/Parameters.sol\":22503:22645  function get_ARCHIVING_MIN_CONSENSUS_WORKER_COUNT() public view returns(uint256){\r... */\n      swap1\n      jump\t// out\n        /* \"worksystems/Parameters.sol\":2165:2218  uint256 public COMPLIANCE_REVEAL_ROUND_DURATION = 180 */\n    tag_372:\n      sload(0x1c)\n      dup2\n      jump\t// out\n        /* \"worksystems/Parameters.sol\":17570:17680  function get_SPOT_DATA_BATCH_SIZE() public view returns(uint256){\r... */\n    tag_375:\n        /* \"worksystems/Parameters.sol\":17652:17672  SPOT_DATA_BATCH_SIZE */\n      sload(0x05)\n        /* \"worksystems/Parameters.sol\":17570:17680  function get_SPOT_DATA_BATCH_SIZE() public view returns(uint256){\r... */\n      swap1\n      jump\t// out\n        /* \"worksystems/Parameters.sol\":19603:19717  function get_MAX_SUCCEEDING_NOVOTES() public view returns(uint256){\r... */\n    tag_378:\n        /* \"worksystems/Parameters.sol\":19687:19709  MAX_SUCCEEDING_NOVOTES */\n      sload(0x15)\n        /* \"worksystems/Parameters.sol\":19603:19717  function get_MAX_SUCCEEDING_NOVOTES() public view returns(uint256){\r... */\n      swap1\n      jump\t// out\n        /* \"worksystems/Parameters.sol\":21349:21489  function get_INDEXING_MIN_CONSENSUS_WORKER_COUNT() public view returns(uint256){\r... */\n    tag_381:\n        /* \"worksystems/Parameters.sol\":21446:21481  INDEXING_MIN_CONSENSUS_WORKER_COUNT */\n      sload(0x20)\n        /* \"worksystems/Parameters.sol\":21349:21489  function get_INDEXING_MIN_CONSENSUS_WORKER_COUNT() public view returns(uint256){\r... */\n      swap1\n      jump\t// out\n        /* \"worksystems/Parameters.sol\":459:498  uint256 public MAX_TOTAL_WORKERS = 1000 */\n    tag_384:\n      sload(0x01)\n      dup2\n      jump\t// out\n        /* \"worksystems/Parameters.sol\":873:924  uint256 public SPOT_MAX_CONSENSUS_WORKER_COUNT  = 4 */\n    tag_387:\n      sload(0x08)\n      dup2\n      jump\t// out\n        /* \"worksystems/Parameters.sol\":3720:3740  address public sFuel */\n    tag_390:\n      and(sub(shl(0xa0, 0x01), 0x01), sload(0x35))\n      dup2\n      jump\t// out\n        /* \"worksystems/Parameters.sol\":18322:18434  function get_SPOT_MIN_REP_SpotData() public view returns(uint256){\r... */\n    tag_393:\n        /* \"worksystems/Parameters.sol\":18405:18426  SPOT_MIN_REP_SpotData */\n      sload(0x0c)\n        /* \"worksystems/Parameters.sol\":18322:18434  function get_SPOT_MIN_REP_SpotData() public view returns(uint256){\r... */\n      swap1\n      jump\t// out\n        /* \"worksystems/Parameters.sol\":3095:3151  uint256 public ARCHIVING_MAX_CONSENSUS_WORKER_COUNT  = 4 */\n    tag_396:\n      sload(0x29)\n      dup2\n      jump\t// out\n        /* \"worksystems/Parameters.sol\":22389:22497  function get_ARCHIVING_MIN_STAKE() public view returns(uint256){\r... */\n    tag_399:\n        /* \"worksystems/Parameters.sol\":22470:22489  ARCHIVING_MIN_STAKE */\n      sload(0x2a)\n        /* \"worksystems/Parameters.sol\":22389:22497  function get_ARCHIVING_MIN_STAKE() public view returns(uint256){\r... */\n      swap1\n      jump\t// out\n        /* \"worksystems/Parameters.sol\":19207:19339  function get_SPOT_GLOBAL_MAX_SPOT_PER_PERIOD() public view returns(uint256){\r... */\n    tag_402:\n        /* \"worksystems/Parameters.sol\":19300:19331  SPOT_GLOBAL_MAX_SPOT_PER_PERIOD */\n      sload(0x12)\n        /* \"worksystems/Parameters.sol\":19207:19339  function get_SPOT_GLOBAL_MAX_SPOT_PER_PERIOD() public view returns(uint256){\r... */\n      swap1\n      jump\t// out\n        /* \"worksystems/Parameters.sol\":16905:17002  function getSpottingSystem() public view returns(address){\r... */\n    tag_405:\n        /* \"worksystems/Parameters.sol\":16980:16994  SpottingSystem */\n      and(sub(shl(0xa0, 0x01), 0x01), sload(0x36))\n        /* \"worksystems/Parameters.sol\":16905:17002  function getSpottingSystem() public view returns(address){\r... */\n      swap1\n      jump\t// out\n        /* \"worksystems/Parameters.sol\":1630:1667  uint256 public SPOT_NB_TIMEFRAMES = 4 */\n    tag_408:\n      sload(0x14)\n      dup2\n      jump\t// out\n        /* \"worksystems/Parameters.sol\":3859:3889  address public ArchivingSystem */\n    tag_411:\n      and(sub(shl(0xa0, 0x01), 0x01), sload(0x39))\n      dup2\n      jump\t// out\n        /* \"worksystems/Parameters.sol\":17790:17922  function get_SPOT_MIN_CONSENSUS_WORKER_COUNT() public view returns(uint256){\r... */\n    tag_414:\n        /* \"worksystems/Parameters.sol\":17883:17914  SPOT_MIN_CONSENSUS_WORKER_COUNT */\n      sload(0x07)\n        /* \"worksystems/Parameters.sol\":17790:17922  function get_SPOT_MIN_CONSENSUS_WORKER_COUNT() public view returns(uint256){\r... */\n      swap1\n      jump\t// out\n        /* \"worksystems/Parameters.sol\":19349:19485  function get_SPOT_MAX_SPOT_PER_USER_PER_PERIOD() public view returns(uint256){\r... */\n    tag_417:\n        /* \"worksystems/Parameters.sol\":19444:19477  SPOT_MAX_SPOT_PER_USER_PER_PERIOD */\n      sload(0x13)\n        /* \"worksystems/Parameters.sol\":19349:19485  function get_SPOT_MAX_SPOT_PER_USER_PER_PERIOD() public view returns(uint256){\r... */\n      swap1\n      jump\t// out\n        /* \"worksystems/Parameters.sol\":1569:1623  uint256 public SPOT_MAX_SPOT_PER_USER_PER_PERIOD  = 25 */\n    tag_420:\n      sload(0x13)\n      dup2\n      jump\t// out\n        /* \"worksystems/Parameters.sol\":21237:21343  function get_INDEXING_MIN_STAKE() public view returns(uint256){\r... */\n    tag_423:\n        /* \"worksystems/Parameters.sol\":21317:21335  INDEXING_MIN_STAKE */\n      sload(0x22)\n        /* \"worksystems/Parameters.sol\":21237:21343  function get_INDEXING_MIN_STAKE() public view returns(uint256){\r... */\n      swap1\n      jump\t// out\n        /* \"worksystems/Parameters.sol\":18830:18960  function get_SPOT_INTER_ALLOCATION_DURATION() public view returns(uint256){\r... */\n    tag_426:\n        /* \"worksystems/Parameters.sol\":18922:18952  SPOT_INTER_ALLOCATION_DURATION */\n      sload(0x0f)\n        /* \"worksystems/Parameters.sol\":18830:18960  function get_SPOT_INTER_ALLOCATION_DURATION() public view returns(uint256){\r... */\n      swap1\n      jump\t// out\n        /* \"worksystems/Parameters.sol\":711:750  uint256 public SPOT_DATA_BATCH_SIZE = 1 */\n    tag_429:\n      sload(0x05)\n      dup2\n      jump\t// out\n        /* \"worksystems/Parameters.sol\":505:537  uint256 public VOTE_QUORUM  = 50 */\n    tag_432:\n      sload(0x02)\n      dup2\n      jump\t// out\n        /* \"worksystems/Parameters.sol\":2428:2471  uint256 public INDEXING_DATA_BATCH_SIZE = 1 */\n    tag_435:\n      sload(0x1f)\n      dup2\n      jump\t// out\n        /* \"worksystems/Parameters.sol\":16402:16495  function getStakeManager() public view returns(address){\r... */\n    tag_438:\n        /* \"worksystems/Parameters.sol\":16475:16487  StakeManager */\n      and(sub(shl(0xa0, 0x01), 0x01), sload(0x30))\n        /* \"worksystems/Parameters.sol\":16402:16495  function getStakeManager() public view returns(address){\r... */\n      swap1\n      jump\t// out\n        /* \"worksystems/Parameters.sol\":21113:21231  function get_INDEXING_DATA_BATCH_SIZE() public view returns(uint256){\r... */\n    tag_441:\n        /* \"worksystems/Parameters.sol\":21199:21223  INDEXING_DATA_BATCH_SIZE */\n      sload(0x1f)\n        /* \"worksystems/Parameters.sol\":21113:21231  function get_INDEXING_DATA_BATCH_SIZE() public view returns(uint256){\r... */\n      swap1\n      jump\t// out\n        /* \"worksystems/Parameters.sol\":1727:1783  uint256 public NOVOTE_REGISTRATION_WAIT_DURATION  = 3600 */\n    tag_444:\n      sload(0x16)\n      dup2\n      jump\t// out\n        /* \"worksystems/Parameters.sol\":19932:20054  function get_COMPLIANCE_DATA_BATCH_SIZE() public view returns(uint256){\r... */\n    tag_447:\n        /* \"worksystems/Parameters.sol\":20020:20046  COMPLIANCE_DATA_BATCH_SIZE */\n      sload(0x17)\n        /* \"worksystems/Parameters.sol\":19932:20054  function get_COMPLIANCE_DATA_BATCH_SIZE() public view returns(uint256){\r... */\n      swap1\n      jump\t// out\n        /* \"worksystems/Parameters.sol\":1674:1716  uint256 public MAX_SUCCEEDING_NOVOTES  = 3 */\n    tag_450:\n      sload(0x15)\n      dup2\n      jump\t// out\n        /* \"worksystems/Parameters.sol\":1046:1102  uint256 public SPOT_MIN_REWARD_SpotData = 1 * (10 ** 15) */\n    tag_453:\n      sload(0x0b)\n      dup2\n      jump\t// out\n        /* \"worksystems/Parameters.sol\":3749:3778  address public SpottingSystem */\n    tag_456:\n      and(sub(shl(0xa0, 0x01), 0x01), sload(0x36))\n      dup2\n      jump\t// out\n        /* \"worksystems/Parameters.sol\":20326:20470  function get_COMPLIANCE_MAX_CONSENSUS_WORKER_COUNT() public view returns(uint256){\r... */\n    tag_459:\n        /* \"worksystems/Parameters.sol\":20425:20462  COMPLIANCE_MAX_CONSENSUS_WORKER_COUNT */\n      sload(0x19)\n        /* \"worksystems/Parameters.sol\":20326:20470  function get_COMPLIANCE_MAX_CONSENSUS_WORKER_COUNT() public view returns(uint256){\r... */\n      swap1\n      jump\t// out\n        /* \"worksystems/Parameters.sol\":17928:18060  function get_SPOT_MAX_CONSENSUS_WORKER_COUNT() public view returns(uint256){\r... */\n    tag_462:\n        /* \"worksystems/Parameters.sol\":18021:18052  SPOT_MAX_CONSENSUS_WORKER_COUNT */\n      sload(0x08)\n        /* \"worksystems/Parameters.sol\":17928:18060  function get_SPOT_MAX_CONSENSUS_WORKER_COUNT() public view returns(uint256){\r... */\n      swap1\n      jump\t// out\n        /* \"worksystems/Parameters.sol\":1508:1562  uint256 public SPOT_GLOBAL_MAX_SPOT_PER_PERIOD  = 1000 */\n    tag_465:\n      sload(0x12)\n      dup2\n      jump\t// out\n        /* \"worksystems/Parameters.sol\":12972:13920  function updateComplianceParameters(uint256 ParameterIndex, uint256 uintValue) public onlyOwner {        \r... */\n    tag_469:\n        /* \"@openzeppelin/contracts/access/Ownable.sol\":1094:1107  _checkOwner() */\n      tag_636\n        /* \"@openzeppelin/contracts/access/Ownable.sol\":1094:1105  _checkOwner */\n      tag_540\n        /* \"@openzeppelin/contracts/access/Ownable.sol\":1094:1107  _checkOwner() */\n      jump\t// in\n    tag_636:\n        /* \"worksystems/Parameters.sol\":13090:13104  ParameterIndex */\n      dup2\n        /* \"worksystems/Parameters.sol\":13108:13109  1 */\n      0x01\n        /* \"worksystems/Parameters.sol\":13090:13109  ParameterIndex == 1 */\n      eq\n        /* \"worksystems/Parameters.sol\":13087:13175  if(ParameterIndex == 1){\r... */\n      iszero\n      tag_638\n      jumpi\n        /* \"worksystems/Parameters.sol\":13125:13151  COMPLIANCE_DATA_BATCH_SIZE */\n      0x17\n        /* \"worksystems/Parameters.sol\":13125:13163  COMPLIANCE_DATA_BATCH_SIZE = uintValue */\n      dup2\n      swap1\n      sstore\n        /* \"worksystems/Parameters.sol\":13087:13175  if(ParameterIndex == 1){\r... */\n    tag_638:\n        /* \"worksystems/Parameters.sol\":13188:13202  ParameterIndex */\n      dup2\n        /* \"worksystems/Parameters.sol\":13206:13207  2 */\n      0x02\n        /* \"worksystems/Parameters.sol\":13188:13207  ParameterIndex == 2 */\n      eq\n        /* \"worksystems/Parameters.sol\":13185:13268  if(ParameterIndex == 2){\r... */\n      iszero\n      tag_639\n      jumpi\n        /* \"worksystems/Parameters.sol\":13223:13243  COMPLIANCE_MIN_STAKE */\n      0x1a\n        /* \"worksystems/Parameters.sol\":13223:13256  COMPLIANCE_MIN_STAKE  = uintValue */\n      dup2\n      swap1\n      sstore\n        /* \"worksystems/Parameters.sol\":13185:13268  if(ParameterIndex == 2){\r... */\n    tag_639:\n        /* \"worksystems/Parameters.sol\":13281:13295  ParameterIndex */\n      dup2\n        /* \"worksystems/Parameters.sol\":13299:13300  3 */\n      0x03\n        /* \"worksystems/Parameters.sol\":13281:13300  ParameterIndex == 3 */\n      eq\n        /* \"worksystems/Parameters.sol\":13278:13378  if(ParameterIndex == 3){\r... */\n      iszero\n      tag_640\n      jumpi\n        /* \"worksystems/Parameters.sol\":13316:13353  COMPLIANCE_MIN_CONSENSUS_WORKER_COUNT */\n      0x18\n        /* \"worksystems/Parameters.sol\":13316:13366  COMPLIANCE_MIN_CONSENSUS_WORKER_COUNT  = uintValue */\n      dup2\n      swap1\n      sstore\n        /* \"worksystems/Parameters.sol\":13278:13378  if(ParameterIndex == 3){\r... */\n    tag_640:\n        /* \"worksystems/Parameters.sol\":13391:13405  ParameterIndex */\n      dup2\n        /* \"worksystems/Parameters.sol\":13409:13410  4 */\n      0x04\n        /* \"worksystems/Parameters.sol\":13391:13410  ParameterIndex == 4 */\n      eq\n        /* \"worksystems/Parameters.sol\":13388:13488  if(ParameterIndex == 4){\r... */\n      iszero\n      tag_641\n      jumpi\n        /* \"worksystems/Parameters.sol\":13426:13463  COMPLIANCE_MAX_CONSENSUS_WORKER_COUNT */\n      0x19\n        /* \"worksystems/Parameters.sol\":13426:13476  COMPLIANCE_MAX_CONSENSUS_WORKER_COUNT  = uintValue */\n      dup2\n      swap1\n      sstore\n        /* \"worksystems/Parameters.sol\":13388:13488  if(ParameterIndex == 4){\r... */\n    tag_641:\n        /* \"worksystems/Parameters.sol\":13501:13515  ParameterIndex */\n      dup2\n        /* \"worksystems/Parameters.sol\":13519:13520  5 */\n      0x05\n        /* \"worksystems/Parameters.sol\":13501:13520  ParameterIndex == 5 */\n      eq\n        /* \"worksystems/Parameters.sol\":13498:13593  if(ParameterIndex == 5){\r... */\n      iszero\n      tag_642\n      jumpi\n        /* \"worksystems/Parameters.sol\":13536:13568  COMPLIANCE_COMMIT_ROUND_DURATION */\n      0x1b\n        /* \"worksystems/Parameters.sol\":13536:13581  COMPLIANCE_COMMIT_ROUND_DURATION  = uintValue */\n      dup2\n      swap1\n      sstore\n        /* \"worksystems/Parameters.sol\":13498:13593  if(ParameterIndex == 5){\r... */\n    tag_642:\n        /* \"worksystems/Parameters.sol\":13606:13620  ParameterIndex */\n      dup2\n        /* \"worksystems/Parameters.sol\":13624:13625  6 */\n      0x06\n        /* \"worksystems/Parameters.sol\":13606:13625  ParameterIndex == 6 */\n      eq\n        /* \"worksystems/Parameters.sol\":13603:13698  if(ParameterIndex == 6){\r... */\n      iszero\n      tag_643\n      jumpi\n        /* \"worksystems/Parameters.sol\":13641:13673  COMPLIANCE_REVEAL_ROUND_DURATION */\n      0x1c\n        /* \"worksystems/Parameters.sol\":13641:13686  COMPLIANCE_REVEAL_ROUND_DURATION  = uintValue */\n      dup2\n      swap1\n      sstore\n        /* \"worksystems/Parameters.sol\":13603:13698  if(ParameterIndex == 6){\r... */\n    tag_643:\n        /* \"worksystems/Parameters.sol\":13711:13725  ParameterIndex */\n      dup2\n        /* \"worksystems/Parameters.sol\":13729:13730  7 */\n      0x07\n        /* \"worksystems/Parameters.sol\":13711:13730  ParameterIndex == 7 */\n      eq\n        /* \"worksystems/Parameters.sol\":13708:13804  if(ParameterIndex == 7){\r... */\n      iszero\n      tag_644\n      jumpi\n        /* \"worksystems/Parameters.sol\":13746:13779  COMPLIANCE_MIN_REP_DataValidation */\n      0x1e\n        /* \"worksystems/Parameters.sol\":13746:13792  COMPLIANCE_MIN_REP_DataValidation  = uintValue */\n      dup2\n      swap1\n      sstore\n        /* \"worksystems/Parameters.sol\":13708:13804  if(ParameterIndex == 7){\r... */\n    tag_644:\n        /* \"worksystems/Parameters.sol\":13817:13831  ParameterIndex */\n      dup2\n        /* \"worksystems/Parameters.sol\":13835:13836  8 */\n      0x08\n        /* \"worksystems/Parameters.sol\":13817:13836  ParameterIndex == 8 */\n      eq\n        /* \"worksystems/Parameters.sol\":13814:13913  if(ParameterIndex == 8){\r... */\n      iszero\n      tag_583\n      jumpi\n        /* \"worksystems/Parameters.sol\":13852:13888  COMPLIANCE_MIN_REWARD_DataValidation */\n      0x1d\n        /* \"worksystems/Parameters.sol\":13852:13901  COMPLIANCE_MIN_REWARD_DataValidation  = uintValue */\n      sstore\n      pop\n        /* \"worksystems/Parameters.sol\":12972:13920  function updateComplianceParameters(uint256 ParameterIndex, uint256 uintValue) public onlyOwner {        \r... */\n      jump\t// out\n        /* \"worksystems/Parameters.sol\":16202:16326  function get_MAX_CONTRACT_STORED_BATCHES() public view returns(uint256){\r... */\n    tag_471:\n        /* \"worksystems/Parameters.sol\":16291:16318  MAX_CONTRACT_STORED_BATCHES */\n      sload(0x04)\n        /* \"worksystems/Parameters.sol\":16202:16326  function get_MAX_CONTRACT_STORED_BATCHES() public view returns(uint256){\r... */\n      swap1\n      jump\t// out\n        /* \"worksystems/Parameters.sol\":20060:20170  function get_COMPLIANCE_MIN_STAKE() public view returns(uint256){\r... */\n    tag_474:\n        /* \"worksystems/Parameters.sol\":20142:20162  COMPLIANCE_MIN_STAKE */\n      sload(0x1a)\n        /* \"worksystems/Parameters.sol\":20060:20170  function get_COMPLIANCE_MIN_STAKE() public view returns(uint256){\r... */\n      swap1\n      jump\t// out\n        /* \"worksystems/Parameters.sol\":1338:1389  uint256 public SPOT_INTER_ALLOCATION_DURATION = 400 */\n    tag_477:\n      sload(0x0f)\n      dup2\n      jump\t// out\n        /* \"worksystems/Parameters.sol\":19491:19597  function get_SPOT_NB_TIMEFRAMES() public view returns(uint256){\r... */\n    tag_480:\n        /* \"worksystems/Parameters.sol\":19571:19589  SPOT_NB_TIMEFRAMES */\n      sload(0x14)\n        /* \"worksystems/Parameters.sol\":19491:19597  function get_SPOT_NB_TIMEFRAMES() public view returns(uint256){\r... */\n      swap1\n      jump\t// out\n        /* \"worksystems/Parameters.sol\":21495:21635  function get_INDEXING_MAX_CONSENSUS_WORKER_COUNT() public view returns(uint256){\r... */\n    tag_483:\n        /* \"worksystems/Parameters.sol\":21592:21627  INDEXING_MAX_CONSENSUS_WORKER_COUNT */\n      sload(0x21)\n        /* \"worksystems/Parameters.sol\":21495:21635  function get_INDEXING_MAX_CONSENSUS_WORKER_COUNT() public view returns(uint256){\r... */\n      swap1\n      jump\t// out\n        /* \"worksystems/Parameters.sol\":931:978  uint256 public SPOT_COMMIT_ROUND_DURATION = 180 */\n    tag_486:\n      sload(0x09)\n      dup2\n      jump\t// out\n        /* \"worksystems/Parameters.sol\":2666:2717  uint256 public INDEXING_COMMIT_ROUND_DURATION = 400 */\n    tag_489:\n      sload(0x23)\n      dup2\n      jump\t// out\n        /* \"worksystems/Parameters.sol\":16596:16691  function getReputationSystem() public view returns(address){\r... */\n    tag_492:\n        /* \"worksystems/Parameters.sol\":16673:16683  Reputation */\n      and(sub(shl(0xa0, 0x01), 0x01), sload(0x31))\n        /* \"worksystems/Parameters.sol\":16596:16691  function getReputationSystem() public view returns(address){\r... */\n      swap1\n      jump\t// out\n        /* \"worksystems/Parameters.sol\":15988:16078  function getVoteQuorum() public view returns(uint256){\r... */\n    tag_495:\n        /* \"worksystems/Parameters.sol\":16059:16070  VOTE_QUORUM */\n      sload(0x02)\n        /* \"worksystems/Parameters.sol\":15988:16078  function getVoteQuorum() public view returns(uint256){\r... */\n      swap1\n      jump\t// out\n        /* \"worksystems/Parameters.sol\":11013:12962  function updateSpottingParameters(uint256 ParameterIndex, uint256 uintValue, bool boolValue) public onlyOwner {        \r... */\n    tag_500:\n        /* \"@openzeppelin/contracts/access/Ownable.sol\":1094:1107  _checkOwner() */\n      tag_653\n        /* \"@openzeppelin/contracts/access/Ownable.sol\":1094:1105  _checkOwner */\n      tag_540\n        /* \"@openzeppelin/contracts/access/Ownable.sol\":1094:1107  _checkOwner() */\n      jump\t// in\n    tag_653:\n        /* \"worksystems/Parameters.sol\":11145:11159  ParameterIndex */\n      dup3\n        /* \"worksystems/Parameters.sol\":11163:11164  1 */\n      0x01\n        /* \"worksystems/Parameters.sol\":11145:11164  ParameterIndex == 1 */\n      eq\n        /* \"worksystems/Parameters.sol\":11142:11225  if(ParameterIndex == 1){\r... */\n      iszero\n      tag_655\n      jumpi\n        /* \"worksystems/Parameters.sol\":11180:11200  SPOT_DATA_BATCH_SIZE */\n      0x05\n        /* \"worksystems/Parameters.sol\":11180:11213  SPOT_DATA_BATCH_SIZE  = uintValue */\n      dup3\n      swap1\n      sstore\n        /* \"worksystems/Parameters.sol\":11142:11225  if(ParameterIndex == 1){\r... */\n    tag_655:\n        /* \"worksystems/Parameters.sol\":11238:11252  ParameterIndex */\n      dup3\n        /* \"worksystems/Parameters.sol\":11256:11257  2 */\n      0x02\n        /* \"worksystems/Parameters.sol\":11238:11257  ParameterIndex == 2 */\n      eq\n        /* \"worksystems/Parameters.sol\":11235:11312  if(ParameterIndex == 2){\r... */\n      iszero\n      tag_656\n      jumpi\n        /* \"worksystems/Parameters.sol\":11273:11287  SPOT_MIN_STAKE */\n      0x06\n        /* \"worksystems/Parameters.sol\":11273:11300  SPOT_MIN_STAKE  = uintValue */\n      dup3\n      swap1\n      sstore\n        /* \"worksystems/Parameters.sol\":11235:11312  if(ParameterIndex == 2){\r... */\n    tag_656:\n        /* \"worksystems/Parameters.sol\":11325:11339  ParameterIndex */\n      dup3\n        /* \"worksystems/Parameters.sol\":11343:11344  3 */\n      0x03\n        /* \"worksystems/Parameters.sol\":11325:11344  ParameterIndex == 3 */\n      eq\n        /* \"worksystems/Parameters.sol\":11322:11416  if(ParameterIndex == 3){\r... */\n      iszero\n      tag_657\n      jumpi\n        /* \"worksystems/Parameters.sol\":11360:11391  SPOT_MIN_CONSENSUS_WORKER_COUNT */\n      0x07\n        /* \"worksystems/Parameters.sol\":11360:11404  SPOT_MIN_CONSENSUS_WORKER_COUNT  = uintValue */\n      dup3\n      swap1\n      sstore\n        /* \"worksystems/Parameters.sol\":11322:11416  if(ParameterIndex == 3){\r... */\n    tag_657:\n        /* \"worksystems/Parameters.sol\":11429:11443  ParameterIndex */\n      dup3\n        /* \"worksystems/Parameters.sol\":11447:11448  4 */\n      0x04\n        /* \"worksystems/Parameters.sol\":11429:11448  ParameterIndex == 4 */\n      eq\n        /* \"worksystems/Parameters.sol\":11426:11520  if(ParameterIndex == 4){\r... */\n      iszero\n      tag_658\n      jumpi\n        /* \"worksystems/Parameters.sol\":11464:11495  SPOT_MAX_CONSENSUS_WORKER_COUNT */\n      0x08\n        /* \"worksystems/Parameters.sol\":11464:11508  SPOT_MAX_CONSENSUS_WORKER_COUNT  = uintValue */\n      dup3\n      swap1\n      sstore\n        /* \"worksystems/Parameters.sol\":11426:11520  if(ParameterIndex == 4){\r... */\n    tag_658:\n        /* \"worksystems/Parameters.sol\":11533:11547  ParameterIndex */\n      dup3\n        /* \"worksystems/Parameters.sol\":11551:11552  5 */\n      0x05\n        /* \"worksystems/Parameters.sol\":11533:11552  ParameterIndex == 5 */\n      eq\n        /* \"worksystems/Parameters.sol\":11530:11619  if(ParameterIndex == 5){\r... */\n      iszero\n      tag_659\n      jumpi\n        /* \"worksystems/Parameters.sol\":11568:11594  SPOT_COMMIT_ROUND_DURATION */\n      0x09\n        /* \"worksystems/Parameters.sol\":11568:11607  SPOT_COMMIT_ROUND_DURATION  = uintValue */\n      dup3\n      swap1\n      sstore\n        /* \"worksystems/Parameters.sol\":11530:11619  if(ParameterIndex == 5){\r... */\n    tag_659:\n        /* \"worksystems/Parameters.sol\":11632:11646  ParameterIndex */\n      dup3\n        /* \"worksystems/Parameters.sol\":11650:11651  6 */\n      0x06\n        /* \"worksystems/Parameters.sol\":11632:11651  ParameterIndex == 6 */\n      eq\n        /* \"worksystems/Parameters.sol\":11629:11718  if(ParameterIndex == 6){\r... */\n      iszero\n      tag_660\n      jumpi\n        /* \"worksystems/Parameters.sol\":11667:11693  SPOT_REVEAL_ROUND_DURATION */\n      0x0a\n        /* \"worksystems/Parameters.sol\":11667:11706  SPOT_REVEAL_ROUND_DURATION  = uintValue */\n      dup3\n      swap1\n      sstore\n        /* \"worksystems/Parameters.sol\":11629:11718  if(ParameterIndex == 6){\r... */\n    tag_660:\n        /* \"worksystems/Parameters.sol\":11731:11745  ParameterIndex */\n      dup3\n        /* \"worksystems/Parameters.sol\":11749:11750  7 */\n      0x07\n        /* \"worksystems/Parameters.sol\":11731:11750  ParameterIndex == 7 */\n      eq\n        /* \"worksystems/Parameters.sol\":11728:11815  if(ParameterIndex == 7){\r... */\n      iszero\n      tag_661\n      jumpi\n        /* \"worksystems/Parameters.sol\":11766:11790  SPOT_MIN_REWARD_SpotData */\n      0x0b\n        /* \"worksystems/Parameters.sol\":11766:11803  SPOT_MIN_REWARD_SpotData  = uintValue */\n      dup3\n      swap1\n      sstore\n        /* \"worksystems/Parameters.sol\":11728:11815  if(ParameterIndex == 7){\r... */\n    tag_661:\n        /* \"worksystems/Parameters.sol\":11828:11842  ParameterIndex */\n      dup3\n        /* \"worksystems/Parameters.sol\":11846:11847  8 */\n      0x08\n        /* \"worksystems/Parameters.sol\":11828:11847  ParameterIndex == 8 */\n      eq\n        /* \"worksystems/Parameters.sol\":11825:11909  if(ParameterIndex == 8){\r... */\n      iszero\n      tag_662\n      jumpi\n        /* \"worksystems/Parameters.sol\":11863:11884  SPOT_MIN_REP_SpotData */\n      0x0c\n        /* \"worksystems/Parameters.sol\":11863:11897  SPOT_MIN_REP_SpotData  = uintValue */\n      dup3\n      swap1\n      sstore\n        /* \"worksystems/Parameters.sol\":11825:11909  if(ParameterIndex == 8){\r... */\n    tag_662:\n        /* \"worksystems/Parameters.sol\":11922:11936  ParameterIndex */\n      dup3\n        /* \"worksystems/Parameters.sol\":11940:11941  9 */\n      0x09\n        /* \"worksystems/Parameters.sol\":11922:11941  ParameterIndex == 9 */\n      eq\n        /* \"worksystems/Parameters.sol\":11919:12012  if(ParameterIndex == 9){\r... */\n      iszero\n      tag_663\n      jumpi\n        /* \"worksystems/Parameters.sol\":11957:11987  SPOT_MIN_REWARD_DataValidation */\n      0x0d\n        /* \"worksystems/Parameters.sol\":11957:12000  SPOT_MIN_REWARD_DataValidation  = uintValue */\n      dup3\n      swap1\n      sstore\n        /* \"worksystems/Parameters.sol\":11919:12012  if(ParameterIndex == 9){\r... */\n    tag_663:\n        /* \"worksystems/Parameters.sol\":12025:12039  ParameterIndex */\n      dup3\n        /* \"worksystems/Parameters.sol\":12043:12045  10 */\n      0x0a\n        /* \"worksystems/Parameters.sol\":12025:12045  ParameterIndex == 10 */\n      eq\n        /* \"worksystems/Parameters.sol\":12022:12113  if(ParameterIndex == 10){\r... */\n      iszero\n      tag_664\n      jumpi\n        /* \"worksystems/Parameters.sol\":12061:12088  SPOT_MIN_REP_DataValidation */\n      0x0e\n        /* \"worksystems/Parameters.sol\":12061:12101  SPOT_MIN_REP_DataValidation  = uintValue */\n      dup3\n      swap1\n      sstore\n        /* \"worksystems/Parameters.sol\":12022:12113  if(ParameterIndex == 10){\r... */\n    tag_664:\n        /* \"worksystems/Parameters.sol\":12175:12189  ParameterIndex */\n      dup3\n        /* \"worksystems/Parameters.sol\":12193:12195  11 */\n      0x0b\n        /* \"worksystems/Parameters.sol\":12175:12195  ParameterIndex == 11 */\n      eq\n        /* \"worksystems/Parameters.sol\":12172:12265  if(ParameterIndex == 11){\r... */\n      iszero\n      tag_665\n      jumpi\n        /* \"worksystems/Parameters.sol\":12211:12241  SPOT_INTER_ALLOCATION_DURATION */\n      0x0f\n        /* \"worksystems/Parameters.sol\":12211:12253  SPOT_INTER_ALLOCATION_DURATION = uintValue */\n      dup3\n      swap1\n      sstore\n        /* \"worksystems/Parameters.sol\":12172:12265  if(ParameterIndex == 11){\r... */\n    tag_665:\n        /* \"worksystems/Parameters.sol\":12278:12292  ParameterIndex */\n      dup3\n        /* \"worksystems/Parameters.sol\":12296:12298  12 */\n      0x0c\n        /* \"worksystems/Parameters.sol\":12278:12298  ParameterIndex == 12 */\n      eq\n        /* \"worksystems/Parameters.sol\":12275:12357  if(ParameterIndex == 12){\r... */\n      iszero\n      tag_666\n      jumpi\n        /* \"worksystems/Parameters.sol\":12314:12333  SPOT_TOGGLE_ENABLED */\n      0x10\n        /* \"worksystems/Parameters.sol\":12314:12345  SPOT_TOGGLE_ENABLED = boolValue */\n      dup1\n      sload\n      not(0xff)\n      and\n      dup3\n      iszero\n      iszero\n      or\n      swap1\n      sstore\n        /* \"worksystems/Parameters.sol\":12275:12357  if(ParameterIndex == 12){\r... */\n    tag_666:\n        /* \"worksystems/Parameters.sol\":12370:12384  ParameterIndex */\n      dup3\n        /* \"worksystems/Parameters.sol\":12388:12390  13 */\n      0x0d\n        /* \"worksystems/Parameters.sol\":12370:12390  ParameterIndex == 13 */\n      eq\n        /* \"worksystems/Parameters.sol\":12367:12453  if(ParameterIndex == 13){\r... */\n      iszero\n      tag_667\n      jumpi\n        /* \"worksystems/Parameters.sol\":12406:12429  SPOT_TIMEFRAME_DURATION */\n      0x11\n        /* \"worksystems/Parameters.sol\":12406:12441  SPOT_TIMEFRAME_DURATION = uintValue */\n      dup3\n      swap1\n      sstore\n        /* \"worksystems/Parameters.sol\":12367:12453  if(ParameterIndex == 13){\r... */\n    tag_667:\n        /* \"worksystems/Parameters.sol\":12466:12480  ParameterIndex */\n      dup3\n        /* \"worksystems/Parameters.sol\":12484:12486  14 */\n      0x0e\n        /* \"worksystems/Parameters.sol\":12466:12486  ParameterIndex == 14 */\n      eq\n        /* \"worksystems/Parameters.sol\":12463:12557  if(ParameterIndex == 14){\r... */\n      iszero\n      tag_668\n      jumpi\n        /* \"worksystems/Parameters.sol\":12502:12533  SPOT_GLOBAL_MAX_SPOT_PER_PERIOD */\n      0x12\n        /* \"worksystems/Parameters.sol\":12502:12545  SPOT_GLOBAL_MAX_SPOT_PER_PERIOD = uintValue */\n      dup3\n      swap1\n      sstore\n        /* \"worksystems/Parameters.sol\":12463:12557  if(ParameterIndex == 14){\r... */\n    tag_668:\n        /* \"worksystems/Parameters.sol\":12570:12584  ParameterIndex */\n      dup3\n        /* \"worksystems/Parameters.sol\":12588:12590  15 */\n      0x0f\n        /* \"worksystems/Parameters.sol\":12570:12590  ParameterIndex == 15 */\n      eq\n        /* \"worksystems/Parameters.sol\":12567:12663  if(ParameterIndex == 15){\r... */\n      iszero\n      tag_669\n      jumpi\n        /* \"worksystems/Parameters.sol\":12606:12639  SPOT_MAX_SPOT_PER_USER_PER_PERIOD */\n      0x13\n        /* \"worksystems/Parameters.sol\":12606:12651  SPOT_MAX_SPOT_PER_USER_PER_PERIOD = uintValue */\n      dup3\n      swap1\n      sstore\n        /* \"worksystems/Parameters.sol\":12567:12663  if(ParameterIndex == 15){\r... */\n    tag_669:\n        /* \"worksystems/Parameters.sol\":12676:12690  ParameterIndex */\n      dup3\n        /* \"worksystems/Parameters.sol\":12694:12696  16 */\n      0x10\n        /* \"worksystems/Parameters.sol\":12676:12696  ParameterIndex == 16 */\n      eq\n        /* \"worksystems/Parameters.sol\":12673:12754  if(ParameterIndex == 16){\r... */\n      iszero\n      tag_670\n      jumpi\n        /* \"worksystems/Parameters.sol\":12712:12730  SPOT_NB_TIMEFRAMES */\n      0x14\n        /* \"worksystems/Parameters.sol\":12712:12742  SPOT_NB_TIMEFRAMES = uintValue */\n      dup3\n      swap1\n      sstore\n        /* \"worksystems/Parameters.sol\":12673:12754  if(ParameterIndex == 16){\r... */\n    tag_670:\n        /* \"worksystems/Parameters.sol\":12767:12781  ParameterIndex */\n      dup3\n        /* \"worksystems/Parameters.sol\":12785:12787  17 */\n      0x11\n        /* \"worksystems/Parameters.sol\":12767:12787  ParameterIndex == 17 */\n      eq\n        /* \"worksystems/Parameters.sol\":12764:12849  if(ParameterIndex == 17){\r... */\n      iszero\n      tag_671\n      jumpi\n        /* \"worksystems/Parameters.sol\":12803:12825  MAX_SUCCEEDING_NOVOTES */\n      0x15\n        /* \"worksystems/Parameters.sol\":12803:12837  MAX_SUCCEEDING_NOVOTES = uintValue */\n      dup3\n      swap1\n      sstore\n        /* \"worksystems/Parameters.sol\":12764:12849  if(ParameterIndex == 17){\r... */\n    tag_671:\n        /* \"worksystems/Parameters.sol\":12862:12876  ParameterIndex */\n      dup3\n        /* \"worksystems/Parameters.sol\":12880:12882  18 */\n      0x12\n        /* \"worksystems/Parameters.sol\":12862:12882  ParameterIndex == 18 */\n      eq\n        /* \"worksystems/Parameters.sol\":12859:12955  if(ParameterIndex == 18){\r... */\n      iszero\n      tag_672\n      jumpi\n        /* \"worksystems/Parameters.sol\":12898:12931  NOVOTE_REGISTRATION_WAIT_DURATION */\n      0x16\n        /* \"worksystems/Parameters.sol\":12898:12943  NOVOTE_REGISTRATION_WAIT_DURATION = uintValue */\n      dup3\n      swap1\n      sstore\n        /* \"worksystems/Parameters.sol\":12859:12955  if(ParameterIndex == 18){\r... */\n    tag_672:\n        /* \"worksystems/Parameters.sol\":11013:12962  function updateSpottingParameters(uint256 ParameterIndex, uint256 uintValue, bool boolValue) public onlyOwner {        \r... */\n      pop\n      pop\n      pop\n      jump\t// out\n        /* \"worksystems/Parameters.sol\":20756:20898  function get_COMPLIANCE_MIN_REWARD_DataValidation() public view returns(uint256){\r... */\n    tag_502:\n        /* \"worksystems/Parameters.sol\":20854:20890  COMPLIANCE_MIN_REWARD_DataValidation */\n      sload(0x1d)\n        /* \"worksystems/Parameters.sol\":20756:20898  function get_COMPLIANCE_MIN_REWARD_DataValidation() public view returns(uint256){\r... */\n      swap1\n      jump\t// out\n        /* \"@openzeppelin/contracts/access/Ownable.sol\":2081:2279  function transferOwnership(address newOwner) public virtual onlyOwner {... */\n    tag_507:\n        /* \"@openzeppelin/contracts/access/Ownable.sol\":1094:1107  _checkOwner() */\n      tag_675\n        /* \"@openzeppelin/contracts/access/Ownable.sol\":1094:1105  _checkOwner */\n      tag_540\n        /* \"@openzeppelin/contracts/access/Ownable.sol\":1094:1107  _checkOwner() */\n      jump\t// in\n    tag_675:\n      sub(shl(0xa0, 0x01), 0x01)\n        /* \"@openzeppelin/contracts/access/Ownable.sol\":2169:2191  newOwner != address(0) */\n      dup2\n      and\n        /* \"@openzeppelin/contracts/access/Ownable.sol\":2161:2234  require(newOwner != address(0), \"Ownable: new owner is the zero address\") */\n      tag_677\n      jumpi\n      mload(0x40)\n      shl(0xe5, 0x461bcd)\n      dup2\n      mstore\n      0x04\n      add\n      tag_678\n      swap1\n      tag_679\n      jump\t// in\n    tag_678:\n      mload(0x40)\n      dup1\n      swap2\n      sub\n      swap1\n      revert\n    tag_677:\n        /* \"@openzeppelin/contracts/access/Ownable.sol\":2244:2272  _transferOwnership(newOwner) */\n      tag_680\n        /* \"@openzeppelin/contracts/access/Ownable.sol\":2263:2271  newOwner */\n      dup2\n        /* \"@openzeppelin/contracts/access/Ownable.sol\":2244:2262  _transferOwnership */\n      tag_595\n        /* \"@openzeppelin/contracts/access/Ownable.sol\":2244:2272  _transferOwnership(newOwner) */\n      jump\t// in\n    tag_680:\n        /* \"@openzeppelin/contracts/access/Ownable.sol\":2081:2279  function transferOwnership(address newOwner) public virtual onlyOwner {... */\n      pop\n      jump\t// out\n        /* \"worksystems/Parameters.sol\":2542:2597  uint256 public INDEXING_MAX_CONSENSUS_WORKER_COUNT  = 4 */\n    tag_509:\n      sload(0x21)\n      dup2\n      jump\t// out\n        /* \"worksystems/Parameters.sol\":3415:3481  uint256 public ARCHIVING_MIN_REP_DataValidation  = 10 * (10 ** 15) */\n    tag_512:\n      sload(0x2e)\n      dup2\n      jump\t// out\n        /* \"worksystems/Parameters.sol\":17008:17109  function getComplianceSystem() public view returns(address){\r... */\n    tag_515:\n        /* \"worksystems/Parameters.sol\":17085:17101  ComplianceSystem */\n      and(sub(shl(0xa0, 0x01), 0x01), sload(0x37))\n        /* \"worksystems/Parameters.sol\":17008:17109  function getComplianceSystem() public view returns(address){\r... */\n      swap1\n      jump\t// out\n        /* \"worksystems/Parameters.sol\":18694:18824  function get_SPOT_MIN_REWARD_DataValidation() public view returns(uint256){\r... */\n    tag_518:\n        /* \"worksystems/Parameters.sol\":18786:18816  SPOT_MIN_REWARD_DataValidation */\n      sload(0x0d)\n        /* \"worksystems/Parameters.sol\":18694:18824  function get_SPOT_MIN_REWARD_DataValidation() public view returns(uint256){\r... */\n      swap1\n      jump\t// out\n        /* \"worksystems/Parameters.sol\":812:863  uint256 public SPOT_MIN_CONSENSUS_WORKER_COUNT  = 2 */\n    tag_521:\n      sload(0x07)\n      dup2\n      jump\t// out\n        /* \"worksystems/Parameters.sol\":3823:3852  address public IndexingSystem */\n    tag_524:\n      and(sub(shl(0xa0, 0x01), 0x01), sload(0x38))\n      dup2\n      jump\t// out\n        /* \"worksystems/Parameters.sol\":3520:3540  address public token */\n    tag_527:\n      and(sub(shl(0xa0, 0x01), 0x01), sload(0x2f))\n      dup2\n      jump\t// out\n        /* \"worksystems/Parameters.sol\":17686:17784  function get_SPOT_MIN_STAKE() public view returns(uint256){\r... */\n    tag_530:\n        /* \"worksystems/Parameters.sol\":17762:17776  SPOT_MIN_STAKE */\n      sload(0x06)\n        /* \"worksystems/Parameters.sol\":17686:17784  function get_SPOT_MIN_STAKE() public view returns(uint256){\r... */\n      swap1\n      jump\t// out\n        /* \"worksystems/Parameters.sol\":20176:20320  function get_COMPLIANCE_MIN_CONSENSUS_WORKER_COUNT() public view returns(uint256){\r... */\n    tag_533:\n        /* \"worksystems/Parameters.sol\":20275:20312  COMPLIANCE_MIN_CONSENSUS_WORKER_COUNT */\n      sload(0x18)\n        /* \"worksystems/Parameters.sol\":20176:20320  function get_COMPLIANCE_MIN_CONSENSUS_WORKER_COUNT() public view returns(uint256){\r... */\n      swap1\n      jump\t// out\n        /* \"@openzeppelin/contracts/access/Ownable.sol\":1359:1489  function _checkOwner() internal view virtual {... */\n    tag_540:\n        /* \"@openzeppelin/contracts/access/Ownable.sol\":1433:1445  _msgSender() */\n      tag_686\n        /* \"@openzeppelin/contracts/access/Ownable.sol\":1433:1443  _msgSender */\n      tag_687\n        /* \"@openzeppelin/contracts/access/Ownable.sol\":1433:1445  _msgSender() */\n      jump\t// in\n    tag_686:\n      sub(shl(0xa0, 0x01), 0x01)\n        /* \"@openzeppelin/contracts/access/Ownable.sol\":1422:1445  owner() == _msgSender() */\n      and\n        /* \"@openzeppelin/contracts/access/Ownable.sol\":1422:1429  owner() */\n      tag_688\n        /* \"@openzeppelin/contracts/access/Ownable.sol\":1422:1427  owner */\n      tag_351\n        /* \"@openzeppelin/contracts/access/Ownable.sol\":1422:1429  owner() */\n      jump\t// in\n    tag_688:\n      sub(shl(0xa0, 0x01), 0x01)\n        /* \"@openzeppelin/contracts/access/Ownable.sol\":1422:1445  owner() == _msgSender() */\n      and\n      eq\n        /* \"@openzeppelin/contracts/access/Ownable.sol\":1414:1482  require(owner() == _msgSender(), \"Ownable: caller is not the owner\") */\n      tag_594\n      jumpi\n      mload(0x40)\n      shl(0xe5, 0x461bcd)\n      dup2\n      mstore\n      0x04\n      add\n      tag_678\n      swap1\n      tag_691\n      jump\t// in\n        /* \"@openzeppelin/contracts/access/Ownable.sol\":2433:2620  function _transferOwnership(address newOwner) internal virtual {... */\n    tag_595:\n        /* \"@openzeppelin/contracts/access/Ownable.sol\":2506:2522  address oldOwner */\n      0x00\n        /* \"@openzeppelin/contracts/access/Ownable.sol\":2525:2531  _owner */\n      dup1\n      sload\n      sub(shl(0xa0, 0x01), 0x01)\n        /* \"@openzeppelin/contracts/access/Ownable.sol\":2541:2558  _owner = newOwner */\n      dup4\n      dup2\n      and\n      not(sub(shl(0xa0, 0x01), 0x01))\n      dup4\n      and\n      dup2\n      or\n      dup5\n      sstore\n        /* \"@openzeppelin/contracts/access/Ownable.sol\":2573:2613  OwnershipTransferred(oldOwner, newOwner) */\n      mload(0x40)\n        /* \"@openzeppelin/contracts/access/Ownable.sol\":2525:2531  _owner */\n      swap2\n      swap1\n      swap3\n      and\n      swap3\n      dup4\n      swap2\n        /* \"@openzeppelin/contracts/access/Ownable.sol\":2573:2613  OwnershipTransferred(oldOwner, newOwner) */\n      0x8be0079c531659141344cd1fd0a4f28419497f9722a3daafe3b4186f6b6457e0\n      swap2\n        /* \"@openzeppelin/contracts/access/Ownable.sol\":2506:2522  address oldOwner */\n      swap1\n        /* \"@openzeppelin/contracts/access/Ownable.sol\":2573:2613  OwnershipTransferred(oldOwner, newOwner) */\n      log3\n        /* \"@openzeppelin/contracts/access/Ownable.sol\":2433:2620  function _transferOwnership(address newOwner) internal virtual {... */\n      pop\n      pop\n      jump\t// out\n        /* \"@openzeppelin/contracts/utils/Context.sol\":640:736  function _msgSender() internal view virtual returns (address) {... */\n    tag_687:\n        /* \"@openzeppelin/contracts/utils/Context.sol\":719:729  msg.sender */\n      caller\n        /* \"@openzeppelin/contracts/utils/Context.sol\":640:736  function _msgSender() internal view virtual returns (address) {... */\n      swap1\n      jump\t// out\n        /* \"#utility.yul\":14:189   */\n    tag_695:\n        /* \"#utility.yul\":84:104   */\n      dup1\n      calldataload\n      sub(shl(0xa0, 0x01), 0x01)\n        /* \"#utility.yul\":133:164   */\n      dup2\n      and\n        /* \"#utility.yul\":123:165   */\n      dup2\n      eq\n        /* \"#utility.yul\":113:115   */\n      tag_697\n      jumpi\n        /* \"#utility.yul\":179:180   */\n      0x00\n        /* \"#utility.yul\":176:177   */\n      dup1\n        /* \"#utility.yul\":169:181   */\n      revert\n        /* \"#utility.yul\":113:115   */\n    tag_697:\n        /* \"#utility.yul\":65:189   */\n      swap2\n      swap1\n      pop\n      jump\t// out\n        /* \"#utility.yul\":194:392   */\n    tag_506:\n      0x00\n        /* \"#utility.yul\":306:308   */\n      0x20\n        /* \"#utility.yul\":294:303   */\n      dup3\n        /* \"#utility.yul\":285:292   */\n      dup5\n        /* \"#utility.yul\":281:304   */\n      sub\n        /* \"#utility.yul\":277:309   */\n      slt\n        /* \"#utility.yul\":274:276   */\n      iszero\n      tag_699\n      jumpi\n        /* \"#utility.yul\":327:333   */\n      dup1\n        /* \"#utility.yul\":319:325   */\n      dup2\n        /* \"#utility.yul\":312:334   */\n      revert\n        /* \"#utility.yul\":274:276   */\n    tag_699:\n        /* \"#utility.yul\":355:386   */\n      tag_700\n        /* \"#utility.yul\":376:385   */\n      dup3\n        /* \"#utility.yul\":355:386   */\n      tag_695\n      jump\t// in\n    tag_700:\n        /* \"#utility.yul\":345:386   */\n      swap4\n        /* \"#utility.yul\":264:392   */\n      swap3\n      pop\n      pop\n      pop\n      jump\t// out\n        /* \"#utility.yul\":397:1365   */\n    tag_215:\n      0x00\n      dup1\n      0x00\n      dup1\n      0x00\n      dup1\n      0x00\n      dup1\n      0x00\n      dup1\n      0x00\n        /* \"#utility.yul\":680:683   */\n      0x0160\n        /* \"#utility.yul\":668:677   */\n      dup13\n        /* \"#utility.yul\":659:666   */\n      dup15\n        /* \"#utility.yul\":655:678   */\n      sub\n        /* \"#utility.yul\":651:684   */\n      slt\n        /* \"#utility.yul\":648:650   */\n      iszero\n      tag_702\n      jumpi\n        /* \"#utility.yul\":702:708   */\n      dup7\n        /* \"#utility.yul\":694:700   */\n      dup8\n        /* \"#utility.yul\":687:709   */\n      revert\n        /* \"#utility.yul\":648:650   */\n    tag_702:\n        /* \"#utility.yul\":730:761   */\n      tag_703\n        /* \"#utility.yul\":751:760   */\n      dup13\n        /* \"#utility.yul\":730:761   */\n      tag_695\n      jump\t// in\n    tag_703:\n        /* \"#utility.yul\":720:761   */\n      swap11\n      pop\n        /* \"#utility.yul\":780:820   */\n      tag_704\n        /* \"#utility.yul\":816:818   */\n      0x20\n        /* \"#utility.yul\":805:814   */\n      dup14\n        /* \"#utility.yul\":801:819   */\n      add\n        /* \"#utility.yul\":780:820   */\n      tag_695\n      jump\t// in\n    tag_704:\n        /* \"#utility.yul\":770:820   */\n      swap10\n      pop\n        /* \"#utility.yul\":839:879   */\n      tag_705\n        /* \"#utility.yul\":875:877   */\n      0x40\n        /* \"#utility.yul\":864:873   */\n      dup14\n        /* \"#utility.yul\":860:878   */\n      add\n        /* \"#utility.yul\":839:879   */\n      tag_695\n      jump\t// in\n    tag_705:\n        /* \"#utility.yul\":829:879   */\n      swap9\n      pop\n        /* \"#utility.yul\":898:938   */\n      tag_706\n        /* \"#utility.yul\":934:936   */\n      0x60\n        /* \"#utility.yul\":923:932   */\n      dup14\n        /* \"#utility.yul\":919:937   */\n      add\n        /* \"#utility.yul\":898:938   */\n      tag_695\n      jump\t// in\n    tag_706:\n        /* \"#utility.yul\":888:938   */\n      swap8\n      pop\n        /* \"#utility.yul\":957:998   */\n      tag_707\n        /* \"#utility.yul\":993:996   */\n      0x80\n        /* \"#utility.yul\":982:991   */\n      dup14\n        /* \"#utility.yul\":978:997   */\n      add\n        /* \"#utility.yul\":957:998   */\n      tag_695\n      jump\t// in\n    tag_707:\n        /* \"#utility.yul\":947:998   */\n      swap7\n      pop\n        /* \"#utility.yul\":1017:1058   */\n      tag_708\n        /* \"#utility.yul\":1053:1056   */\n      0xa0\n        /* \"#utility.yul\":1042:1051   */\n      dup14\n        /* \"#utility.yul\":1038:1057   */\n      add\n        /* \"#utility.yul\":1017:1058   */\n      tag_695\n      jump\t// in\n    tag_708:\n        /* \"#utility.yul\":1007:1058   */\n      swap6\n      pop\n        /* \"#utility.yul\":1077:1118   */\n      tag_709\n        /* \"#utility.yul\":1113:1116   */\n      0xc0\n        /* \"#utility.yul\":1102:1111   */\n      dup14\n        /* \"#utility.yul\":1098:1117   */\n      add\n        /* \"#utility.yul\":1077:1118   */\n      tag_695\n      jump\t// in\n    tag_709:\n        /* \"#utility.yul\":1067:1118   */\n      swap5\n      pop\n        /* \"#utility.yul\":1137:1178   */\n      tag_710\n        /* \"#utility.yul\":1173:1176   */\n      0xe0\n        /* \"#utility.yul\":1162:1171   */\n      dup14\n        /* \"#utility.yul\":1158:1177   */\n      add\n        /* \"#utility.yul\":1137:1178   */\n      tag_695\n      jump\t// in\n    tag_710:\n        /* \"#utility.yul\":1127:1178   */\n      swap4\n      pop\n        /* \"#utility.yul\":1197:1238   */\n      tag_711\n        /* \"#utility.yul\":1233:1236   */\n      0x0100\n        /* \"#utility.yul\":1222:1231   */\n      dup14\n        /* \"#utility.yul\":1218:1237   */\n      add\n        /* \"#utility.yul\":1197:1238   */\n      tag_695\n      jump\t// in\n    tag_711:\n        /* \"#utility.yul\":1187:1238   */\n      swap3\n      pop\n        /* \"#utility.yul\":1257:1298   */\n      tag_712\n        /* \"#utility.yul\":1293:1296   */\n      0x0120\n        /* \"#utility.yul\":1282:1291   */\n      dup14\n        /* \"#utility.yul\":1278:1297   */\n      add\n        /* \"#utility.yul\":1257:1298   */\n      tag_695\n      jump\t// in\n    tag_712:\n        /* \"#utility.yul\":1247:1298   */\n      swap2\n      pop\n        /* \"#utility.yul\":1318:1359   */\n      tag_713\n        /* \"#utility.yul\":1354:1357   */\n      0x0140\n        /* \"#utility.yul\":1343:1352   */\n      dup14\n        /* \"#utility.yul\":1339:1358   */\n      add\n        /* \"#utility.yul\":1318:1359   */\n      tag_695\n      jump\t// in\n    tag_713:\n        /* \"#utility.yul\":1307:1359   */\n      swap1\n      pop\n        /* \"#utility.yul\":638:1365   */\n      swap3\n      swap6\n      swap9\n      swap12\n      pop\n      swap3\n      swap6\n      swap9\n      swap12\n      swap1\n      swap4\n      swap7\n      swap10\n      pop\n      jump\t// out\n        /* \"#utility.yul\":1370:1628   */\n    tag_280:\n      0x00\n      dup1\n        /* \"#utility.yul\":1499:1501   */\n      0x40\n        /* \"#utility.yul\":1487:1496   */\n      dup4\n        /* \"#utility.yul\":1478:1485   */\n      dup6\n        /* \"#utility.yul\":1474:1497   */\n      sub\n        /* \"#utility.yul\":1470:1502   */\n      slt\n        /* \"#utility.yul\":1467:1469   */\n      iszero\n      tag_715\n      jumpi\n        /* \"#utility.yul\":1520:1526   */\n      dup2\n        /* \"#utility.yul\":1512:1518   */\n      dup3\n        /* \"#utility.yul\":1505:1527   */\n      revert\n        /* \"#utility.yul\":1467:1469   */\n    tag_715:\n      pop\n      pop\n        /* \"#utility.yul\":1548:1571   */\n      dup1\n      calldataload\n      swap3\n        /* \"#utility.yul\":1618:1620   */\n      0x20\n        /* \"#utility.yul\":1603:1621   */\n      swap1\n      swap2\n      add\n        /* \"#utility.yul\":1590:1622   */\n      calldataload\n      swap2\n      pop\n        /* \"#utility.yul\":1457:1628   */\n      jump\t// out\n        /* \"#utility.yul\":1633:2062   */\n    tag_499:\n      0x00\n      dup1\n      0x00\n        /* \"#utility.yul\":1776:1778   */\n      0x60\n        /* \"#utility.yul\":1764:1773   */\n      dup5\n        /* \"#utility.yul\":1755:1762   */\n      dup7\n        /* \"#utility.yul\":1751:1774   */\n      sub\n        /* \"#utility.yul\":1747:1779   */\n      slt\n        /* \"#utility.yul\":1744:1746   */\n      iszero\n      tag_717\n      jumpi\n        /* \"#utility.yul\":1797:1803   */\n      dup3\n        /* \"#utility.yul\":1789:1795   */\n      dup4\n        /* \"#utility.yul\":1782:1804   */\n      revert\n        /* \"#utility.yul\":1744:1746   */\n    tag_717:\n        /* \"#utility.yul\":1838:1847   */\n      dup4\n        /* \"#utility.yul\":1825:1848   */\n      calldataload\n        /* \"#utility.yul\":1815:1848   */\n      swap3\n      pop\n        /* \"#utility.yul\":1895:1897   */\n      0x20\n        /* \"#utility.yul\":1884:1893   */\n      dup5\n        /* \"#utility.yul\":1880:1898   */\n      add\n        /* \"#utility.yul\":1867:1899   */\n      calldataload\n        /* \"#utility.yul\":1857:1899   */\n      swap2\n      pop\n        /* \"#utility.yul\":1949:1951   */\n      0x40\n        /* \"#utility.yul\":1938:1947   */\n      dup5\n        /* \"#utility.yul\":1934:1952   */\n      add\n        /* \"#utility.yul\":1921:1953   */\n      calldataload\n        /* \"#utility.yul\":1996:2001   */\n      dup1\n        /* \"#utility.yul\":1989:2002   */\n      iszero\n        /* \"#utility.yul\":1982:2003   */\n      iszero\n        /* \"#utility.yul\":1975:1980   */\n      dup2\n        /* \"#utility.yul\":1972:2004   */\n      eq\n        /* \"#utility.yul\":1962:1964   */\n      tag_718\n      jumpi\n        /* \"#utility.yul\":2023:2029   */\n      dup2\n        /* \"#utility.yul\":2015:2021   */\n      dup3\n        /* \"#utility.yul\":2008:2030   */\n      revert\n        /* \"#utility.yul\":1962:1964   */\n    tag_718:\n        /* \"#utility.yul\":2051:2056   */\n      dup1\n        /* \"#utility.yul\":2041:2056   */\n      swap2\n      pop\n      pop\n        /* \"#utility.yul\":1734:2062   */\n      swap3\n      pop\n      swap3\n      pop\n      swap3\n      jump\t// out\n        /* \"#utility.yul\":2067:2270   */\n    tag_168:\n      sub(shl(0xa0, 0x01), 0x01)\n        /* \"#utility.yul\":2231:2263   */\n      swap2\n      swap1\n      swap2\n      and\n        /* \"#utility.yul\":2213:2264   */\n      dup2\n      mstore\n        /* \"#utility.yul\":2201:2203   */\n      0x20\n        /* \"#utility.yul\":2186:2204   */\n      add\n      swap1\n        /* \"#utility.yul\":2168:2270   */\n      jump\t// out\n        /* \"#utility.yul\":2275:2462   */\n    tag_235:\n        /* \"#utility.yul\":2440:2454   */\n      swap1\n      iszero\n        /* \"#utility.yul\":2433:2455   */\n      iszero\n        /* \"#utility.yul\":2415:2456   */\n      dup2\n      mstore\n        /* \"#utility.yul\":2403:2405   */\n      0x20\n        /* \"#utility.yul\":2388:2406   */\n      add\n      swap1\n        /* \"#utility.yul\":2370:2462   */\n      jump\t// out\n        /* \"#utility.yul\":2467:2869   */\n    tag_679:\n        /* \"#utility.yul\":2669:2671   */\n      0x20\n        /* \"#utility.yul\":2651:2672   */\n      dup1\n      dup3\n      mstore\n        /* \"#utility.yul\":2708:2710   */\n      0x26\n        /* \"#utility.yul\":2688:2706   */\n      swap1\n      dup3\n      add\n        /* \"#utility.yul\":2681:2711   */\n      mstore\n        /* \"#utility.yul\":2747:2781   */\n      0x4f776e61626c653a206e6577206f776e657220697320746865207a65726f2061\n        /* \"#utility.yul\":2742:2744   */\n      0x40\n        /* \"#utility.yul\":2727:2745   */\n      dup3\n      add\n        /* \"#utility.yul\":2720:2782   */\n      mstore\n      shl(0xd0, 0x646472657373)\n        /* \"#utility.yul\":2813:2815   */\n      0x60\n        /* \"#utility.yul\":2798:2816   */\n      dup3\n      add\n        /* \"#utility.yul\":2791:2827   */\n      mstore\n        /* \"#utility.yul\":2859:2862   */\n      0x80\n        /* \"#utility.yul\":2844:2863   */\n      add\n      swap1\n        /* \"#utility.yul\":2641:2869   */\n      jump\t// out\n        /* \"#utility.yul\":2874:3230   */\n    tag_691:\n        /* \"#utility.yul\":3076:3078   */\n      0x20\n        /* \"#utility.yul\":3058:3079   */\n      dup1\n      dup3\n      mstore\n        /* \"#utility.yul\":3095:3113   */\n      dup2\n      dup2\n      add\n        /* \"#utility.yul\":3088:3118   */\n      mstore\n        /* \"#utility.yul\":3154:3188   */\n      0x4f776e61626c653a2063616c6c6572206973206e6f7420746865206f776e6572\n        /* \"#utility.yul\":3149:3151   */\n      0x40\n        /* \"#utility.yul\":3134:3152   */\n      dup3\n      add\n        /* \"#utility.yul\":3127:3189   */\n      mstore\n        /* \"#utility.yul\":3221:3223   */\n      0x60\n        /* \"#utility.yul\":3206:3224   */\n      add\n      swap1\n        /* \"#utility.yul\":3048:3230   */\n      jump\t// out\n        /* \"#utility.yul\":3235:3412   */\n    tag_161:\n        /* \"#utility.yul\":3381:3406   */\n      swap1\n      dup2\n      mstore\n        /* \"#utility.yul\":3369:3371   */\n      0x20\n        /* \"#utility.yul\":3354:3372   */\n      add\n      swap1\n        /* \"#utility.yul\":3336:3412   */\n      jump\t// out\n\n    auxdata: 0xa2646970667358221220a0b3f8da33925ef6f5ec35c2610fe90c524090736371bcafe9008ceba454f56964736f6c63430008000033\n}\n",
				"bytecode": {
					"linkReferences": {},
					"object": "60806040526103e86001556032600255603260035562030d40600455600160055568015af1d78b58c400006006556002600755600460085560b460095560b4600a5566038d7ea4c68000600b55662386f26fc10000600c5566038d7ea4c68000600d55662386f26fc10000600e55610190600f556001601060006101000a81548160ff0219169083151502179055506103846011556103e8601255601960135560046014556003601555610e1060165560016017556002601855600460195568015af1d78b58c40000601a55610190601b5560b4601c5566038d7ea4c68000601d55662386f26fc10000601e556001601f556002602055600460215568015af1d78b58c4000060225561019060235560b460245566038d7ea4c68000602555662386f26fc1000060265560016027556002602855600460295568015af1d78b58c40000602a55610190602b5560b4602c5566038d7ea4c68000602d55662386f26fc10000602e5534801561017257600080fd5b5061018361017e610188565b61018c565b6101dc565b3390565b600080546001600160a01b038381166001600160a01b0319831681178455604051919092169283917f8be0079c531659141344cd1fd0a4f28419497f9722a3daafe3b4186f6b6457e09190a35050565b61176b806101eb6000396000f3fe608060405234801561001057600080fd5b50600436106107635760003560e01c80638a13725d116103c9578063cb3a2a88116101ff578063e6fdd4c011610125578063f5bec1ad116100b8578063fbf1485111610087578063fbf1485114610ba7578063fc0c546a14610baf578063ff622dda14610bb7578063fff5f94614610bbf57610763565b8063f5bec1ad14610b87578063f67362fe14610b8f578063f80de0a014610b97578063fb50a47314610b9f57610763565b8063ee37f4a6116100f4578063ee37f4a614610b51578063f116c4e014610b64578063f2fde38b14610b6c578063f4e20b9c14610b7f57610763565b8063e6fdd4c014610b31578063e9704f8114610b39578063e992dca714610b41578063ea19733c14610b4957610763565b8063dfeceed71161019d578063e3dfc0b21161016c578063e3dfc0b214610b11578063e5f1482414610b19578063e66d543a14610b21578063e68c9c3014610b2957610763565b8063dfeceed714610ae6578063e0de3d7c14610aee578063e168063c14610af6578063e3115d3c14610b0957610763565b8063d4efd2ba116101d9578063d4efd2ba14610ac6578063d81109ce14610ace578063d8645d3714610ad6578063dc7048c114610ade57610763565b8063cb3a2a8814610aae578063d0eed96714610ab6578063d1a89a4614610abe57610763565b8063abb10b9b116102ef578063be25098811610282578063c6eacbfe11610251578063c6eacbfe14610a8e578063c7761fab14610a96578063c95b53c514610a9e578063ca64f9e714610aa657610763565b8063be25098814610a6e578063bf09ff7014610a76578063bf34f74914610a7e578063c4a306f814610a8657610763565b8063b45d9d8d116102be578063b45d9d8d14610a4e578063b611845014610a56578063b6c6ec0214610a5e578063bd40ef4c14610a6657610763565b8063abb10b9b14610a2e578063ac846e7914610a36578063b1562f6714610a3e578063b38e885e14610a4657610763565b8063995adbdd11610367578063a1a4575a11610336578063a1a4575a14610a0e578063a327181b14610a16578063a35b3b0914610a1e578063ab43e78d14610a2657610763565b8063995adbdd146109ee5780639a175938146109f65780639d1f2ada146109fe5780639fb491f614610a0657610763565b806390d10b6e116103a357806390d10b6e146109ce5780639279e9d4146109d657806398a54e2b146109de5780639904ed8d146109e657610763565b80638a13725d146109b65780638da5cb5b146109be57806390cc59eb146109c657610763565b806349b467871161059e578063728d23ab116104c45780638360034d116104575780638724450f116104265780638724450f1461099657806387ce63111461099e578063893b2a76146109a657806389b212d3146109ae57610763565b80638360034d1461097657806383cc6ef21461097e578063849f9f0a1461098657806386b0b4c51461098e57610763565b80637a0ec25b116104935780637a0ec25b146109565780637a34da671461095e5780637d630cb0146109665780637e8603e91461096e57610763565b8063728d23ab1461092b57806372e540301461093357806375dc61301461093b578063779231b21461094e57610763565b8063557c1abe1161053c578063618790751161050b57806361879075146109005780636785f847146109135780636a8e0ece1461091b578063715018a61461092357610763565b8063557c1abe146108d557806355a35f5c146108dd5780635cb361f6146108f05780635d1c3182146108f857610763565b80634ed60b2a116105785780634ed60b2a146108b557806351912f29146108bd578063531780bb146108c55780635492f302146108cd57610763565b806349b467871461089d5780634e5638f5146108a55780634e87c5a8146108ad57610763565b80632b0afab31161068e5780633692616a1161062157806342df5641116105f057806342df56411461087d578063444d62b614610885578063463444b71461088d578063484df80a1461089557610763565b80633692616a1461085057806336fc43fc14610858578063386d09761461086d5780633968ec841461087557610763565b80632e2f93f31161065d5780632e2f93f31461083057806330c0bb791461083857806331911c911461084057806334c37e211461084857610763565b80632b0afab3146108055780632be059601461080d5780632bf8abb3146108155780632d09a8e31461081d57610763565b80630a5a4c2011610706578063175bf630116106d5578063175bf630146107e55780631d0fb88e146107ed57806329a47bc7146107f557806329e3dd1f146107fd57610763565b80630a5a4c20146107c55780630b08bfd9146107cd5780630f1f0ffe146107d55780630f78cc76146107dd57610763565b806306606d671161074257806306606d67146107a35780630855d151146107ab57806308e7f0db146107b3578063092a5cce146107bb57610763565b8062653ff8146107685780630363a1bf1461078657806304e76c8f1461078e575b600080fd5b610770610bc7565b60405161077d919061172c565b60405180910390f35b610770610bcd565b610796610bd3565b60405161077d9190611692565b610796610be2565b610796610bf1565b610770610c00565b6107c3610c06565b005b610770610c21565b610770610c27565b610770610c2d565b610770610c33565b610770610c39565b610770610c3f565b610796610c45565b610770610c54565b610770610c5a565b610770610c60565b610770610c66565b6107c361082b36600461156a565b610c6c565b610796610e5a565b610770610e69565b610770610e6f565b610770610e75565b610770610e7b565b610860610e81565b60405161077d91906116a6565b610770610e8a565b610770610e90565b610770610e96565b610770610e9c565b610796610ea2565b610770610eb1565b610770610eb7565b610770610ebd565b610860610ec3565b610770610ecc565b610796610ed2565b610770610ee1565b610796610ee7565b610796610ef6565b6107c36108eb366004611635565b610f05565b610770610f89565b610770610f8f565b6107c361090e366004611635565b610f95565b610770610fd9565b610770610fdf565b6107c3610fe5565b610770610ff9565b610770610fff565b6107c3610949366004611635565b611005565b610770611085565b61079661108b565b61079661109a565b6107706110a9565b6107706110af565b6107706110b5565b6107966110bb565b6107706110ca565b6107706110d0565b6107706110d6565b6107706110dc565b6107706110e2565b6107706110e8565b6107706110ee565b6107966110f4565b610770611103565b610770611109565b61077061110f565b610770611115565b61079661111b565b61077061112a565b610770611130565b610770611136565b61077061113c565b610770611142565b610770611148565b61077061114e565b610796611154565b610770611163565b610770611169565b61077061116f565b610770611175565b61079661117b565b61077061118a565b610796611190565b61077061119f565b6107706111a5565b6107706111ab565b6107706111b1565b6107706111b7565b6107706111bd565b6107706111c3565b6107706111c9565b6107966111cf565b6107706111de565b6107706111e4565b6107706111ea565b6107706111f0565b6107706111f6565b6107966111fc565b61077061120b565b610770611211565b610770611217565b6107c3610b04366004611635565b61121d565b61077061129d565b6107706112a3565b6107706112a9565b6107706112af565b6107706112b5565b6107706112bb565b6107706112c1565b6107966112c7565b6107706112d6565b6107c3610b5f366004611656565b6112dc565b610770611400565b6107c3610b7a366004611549565b611406565b610770611449565b61077061144f565b610796611455565b610770611464565b61077061146a565b610796611470565b61079661147f565b61077061148e565b610770611494565b60065481565b60275490565b6033546001600160a01b031690565b6037546001600160a01b031681565b6032546001600160a01b031690565b602d5481565b610c0e61149a565b610c166110f4565b6001600160a01b0316ff5b602a5481565b600e5490565b60165490565b60115490565b60175481565b600a5481565b6032546001600160a01b031681565b602c5490565b601c5490565b60265481565b60255481565b610c7461149a565b6001600160a01b038b1615610c9f57603080546001600160a01b0319166001600160a01b038d161790555b6001600160a01b038a1615610cca57603280546001600160a01b0319166001600160a01b038c161790555b6001600160a01b03891615610cf557603180546001600160a01b0319166001600160a01b038b161790555b6001600160a01b03881615610d2057603380546001600160a01b0319166001600160a01b038a161790555b6001600160a01b03871615610d4b57603480546001600160a01b0319166001600160a01b0389161790555b6001600160a01b03851615610d7657603780546001600160a01b0319166001600160a01b0387161790555b6001600160a01b03861615610da157603680546001600160a01b0319166001600160a01b0388161790555b6001600160a01b03841615610dcc57603880546001600160a01b0319166001600160a01b0386161790555b6001600160a01b03831615610df757603980546001600160a01b0319166001600160a01b0385161790555b6001600160a01b03821615610e2257603580546001600160a01b0319166001600160a01b0384161790555b6001600160a01b03811615610e4d57602f80546001600160a01b0319166001600160a01b0383161790555b5050505050505050505050565b602f546001600160a01b031690565b600b5490565b60195481565b601d5481565b60095490565b60105460ff1681565b60255490565b60295490565b601a5481565b60205481565b6039546001600160a01b031690565b601b5490565b602e5490565b60045481565b60105460ff1690565b60275481565b6033546001600160a01b031681565b602b5481565b6034546001600160a01b031690565b6035546001600160a01b031690565b610f0d61149a565b8160011415610f1c5760278190555b8160021415610f2b57602a8190555b8160031415610f3a5760288190555b8160041415610f495760298190555b8160051415610f5857602b8190555b8160061415610f6757602c8190555b8160071415610f7657602e8190555b8160081415610f8557602d8190555b5050565b600c5481565b60285481565b610f9d61149a565b8160011415610fac5760018190555b8160021415610fbb5760028190555b8160031415610fca5760038190555b8160041415610f855760045550565b601b5481565b601e5481565b610fed61149a565b610ff760006114d9565b565b60185481565b600a5490565b61100d61149a565b816001141561101c57601f8190555b816002141561102b5760228190555b816003141561103a5760208190555b81600414156110495760218190555b81600514156110585760238190555b81600614156110675760248190555b81600714156110765760268190555b8160081415610f855760255550565b60225481565b6038546001600160a01b031690565b6034546001600160a01b031681565b60035490565b60245481565b602c5481565b6030546001600160a01b031681565b60265490565b600e5481565b600d5481565b60115481565b602d5490565b601e5490565b60245490565b6000546001600160a01b031690565b60235490565b60035481565b602b5490565b60015490565b6031546001600160a01b031681565b60285490565b601c5481565b60055490565b60155490565b60205490565b60015481565b60085481565b6035546001600160a01b031681565b600c5490565b60295481565b602a5490565b60125490565b6036546001600160a01b031690565b60145481565b6039546001600160a01b031681565b60075490565b60135490565b60135481565b60225490565b600f5490565b60055481565b60025481565b601f5481565b6030546001600160a01b031690565b601f5490565b60165481565b60175490565b60155481565b600b5481565b6036546001600160a01b031681565b60195490565b60085490565b60125481565b61122561149a565b81600114156112345760178190555b816002141561124357601a8190555b81600314156112525760188190555b81600414156112615760198190555b816005141561127057601b8190555b816006141561127f57601c8190555b816007141561128e57601e8190555b8160081415610f8557601d5550565b60045490565b601a5490565b600f5481565b60145490565b60215490565b60095481565b60235481565b6031546001600160a01b031690565b60025490565b6112e461149a565b82600114156112f35760058290555b82600214156113025760068290555b82600314156113115760078290555b82600414156113205760088290555b826005141561132f5760098290555b826006141561133e57600a8290555b826007141561134d57600b8290555b826008141561135c57600c8290555b826009141561136b57600d8290555b82600a141561137a57600e8290555b82600b141561138957600f8290555b82600c14156113a1576010805460ff19168215151790555b82600d14156113b05760118290555b82600e14156113bf5760128290555b82600f14156113ce5760138290555b82601014156113dd5760148290555b82601114156113ec5760158290555b82601214156113fb5760168290555b505050565b601d5490565b61140e61149a565b6001600160a01b03811661143d5760405162461bcd60e51b8152600401611434906116b1565b60405180910390fd5b611446816114d9565b50565b60215481565b602e5481565b6037546001600160a01b031690565b600d5490565b60075481565b6038546001600160a01b031681565b602f546001600160a01b031681565b60065490565b60185490565b6114a2611529565b6001600160a01b03166114b36110f4565b6001600160a01b031614610ff75760405162461bcd60e51b8152600401611434906116f7565b600080546001600160a01b038381166001600160a01b0319831681178455604051919092169283917f8be0079c531659141344cd1fd0a4f28419497f9722a3daafe3b4186f6b6457e09190a35050565b3390565b80356001600160a01b038116811461154457600080fd5b919050565b60006020828403121561155a578081fd5b6115638261152d565b9392505050565b60008060008060008060008060008060006101608c8e03121561158b578687fd5b6115948c61152d565b9a506115a260208d0161152d565b99506115b060408d0161152d565b98506115be60608d0161152d565b97506115cc60808d0161152d565b96506115da60a08d0161152d565b95506115e860c08d0161152d565b94506115f660e08d0161152d565b93506116056101008d0161152d565b92506116146101208d0161152d565b91506116236101408d0161152d565b90509295989b509295989b9093969950565b60008060408385031215611647578182fd5b50508035926020909101359150565b60008060006060848603121561166a578283fd5b833592506020840135915060408401358015158114611687578182fd5b809150509250925092565b6001600160a01b0391909116815260200190565b901515815260200190565b60208082526026908201527f4f776e61626c653a206e6577206f776e657220697320746865207a65726f206160408201526564647265737360d01b606082015260800190565b6020808252818101527f4f776e61626c653a2063616c6c6572206973206e6f7420746865206f776e6572604082015260600190565b9081526020019056fea2646970667358221220a0b3f8da33925ef6f5ec35c2610fe90c524090736371bcafe9008ceba454f56964736f6c63430008000033",
					"opcodes": "PUSH1 0x80 PUSH1 0x40 MSTORE PUSH2 0x3E8 PUSH1 0x1 SSTORE PUSH1 0x32 PUSH1 0x2 SSTORE PUSH1 0x32 PUSH1 0x3 SSTORE PUSH3 0x30D40 PUSH1 0x4 SSTORE PUSH1 0x1 PUSH1 0x5 SSTORE PUSH9 0x15AF1D78B58C40000 PUSH1 0x6 SSTORE PUSH1 0x2 PUSH1 0x7 SSTORE PUSH1 0x4 PUSH1 0x8 SSTORE PUSH1 0xB4 PUSH1 0x9 SSTORE PUSH1 0xB4 PUSH1 0xA SSTORE PUSH7 0x38D7EA4C68000 PUSH1 0xB SSTORE PUSH7 0x2386F26FC10000 PUSH1 0xC SSTORE PUSH7 0x38D7EA4C68000 PUSH1 0xD SSTORE PUSH7 0x2386F26FC10000 PUSH1 0xE SSTORE PUSH2 0x190 PUSH1 0xF SSTORE PUSH1 0x1 PUSH1 0x10 PUSH1 0x0 PUSH2 0x100 EXP DUP2 SLOAD DUP2 PUSH1 0xFF MUL NOT AND SWAP1 DUP4 ISZERO ISZERO MUL OR SWAP1 SSTORE POP PUSH2 0x384 PUSH1 0x11 SSTORE PUSH2 0x3E8 PUSH1 0x12 SSTORE PUSH1 0x19 PUSH1 0x13 SSTORE PUSH1 0x4 PUSH1 0x14 SSTORE PUSH1 0x3 PUSH1 0x15 SSTORE PUSH2 0xE10 PUSH1 0x16 SSTORE PUSH1 0x1 PUSH1 0x17 SSTORE PUSH1 0x2 PUSH1 0x18 SSTORE PUSH1 0x4 PUSH1 0x19 SSTORE PUSH9 0x15AF1D78B58C40000 PUSH1 0x1A SSTORE PUSH2 0x190 PUSH1 0x1B SSTORE PUSH1 0xB4 PUSH1 0x1C SSTORE PUSH7 0x38D7EA4C68000 PUSH1 0x1D SSTORE PUSH7 0x2386F26FC10000 PUSH1 0x1E SSTORE PUSH1 0x1 PUSH1 0x1F SSTORE PUSH1 0x2 PUSH1 0x20 SSTORE PUSH1 0x4 PUSH1 0x21 SSTORE PUSH9 0x15AF1D78B58C40000 PUSH1 0x22 SSTORE PUSH2 0x190 PUSH1 0x23 SSTORE PUSH1 0xB4 PUSH1 0x24 SSTORE PUSH7 0x38D7EA4C68000 PUSH1 0x25 SSTORE PUSH7 0x2386F26FC10000 PUSH1 0x26 SSTORE PUSH1 0x1 PUSH1 0x27 SSTORE PUSH1 0x2 PUSH1 0x28 SSTORE PUSH1 0x4 PUSH1 0x29 SSTORE PUSH9 0x15AF1D78B58C40000 PUSH1 0x2A SSTORE PUSH2 0x190 PUSH1 0x2B SSTORE PUSH1 0xB4 PUSH1 0x2C SSTORE PUSH7 0x38D7EA4C68000 PUSH1 0x2D SSTORE PUSH7 0x2386F26FC10000 PUSH1 0x2E SSTORE CALLVALUE DUP1 ISZERO PUSH2 0x172 JUMPI PUSH1 0x0 DUP1 REVERT JUMPDEST POP PUSH2 0x183 PUSH2 0x17E PUSH2 0x188 JUMP JUMPDEST PUSH2 0x18C JUMP JUMPDEST PUSH2 0x1DC JUMP JUMPDEST CALLER SWAP1 JUMP JUMPDEST PUSH1 0x0 DUP1 SLOAD PUSH1 0x1 PUSH1 0x1 PUSH1 0xA0 SHL SUB DUP4 DUP2 AND PUSH1 0x1 PUSH1 0x1 PUSH1 0xA0 SHL SUB NOT DUP4 AND DUP2 OR DUP5 SSTORE PUSH1 0x40 MLOAD SWAP2 SWAP1 SWAP3 AND SWAP3 DUP4 SWAP2 PUSH32 0x8BE0079C531659141344CD1FD0A4F28419497F9722A3DAAFE3B4186F6B6457E0 SWAP2 SWAP1 LOG3 POP POP JUMP JUMPDEST PUSH2 0x176B DUP1 PUSH2 0x1EB PUSH1 0x0 CODECOPY PUSH1 0x0 RETURN INVALID PUSH1 0x80 PUSH1 0x40 MSTORE CALLVALUE DUP1 ISZERO PUSH2 0x10 JUMPI PUSH1 0x0 DUP1 REVERT JUMPDEST POP PUSH1 0x4 CALLDATASIZE LT PUSH2 0x763 JUMPI PUSH1 0x0 CALLDATALOAD PUSH1 0xE0 SHR DUP1 PUSH4 0x8A13725D GT PUSH2 0x3C9 JUMPI DUP1 PUSH4 0xCB3A2A88 GT PUSH2 0x1FF JUMPI DUP1 PUSH4 0xE6FDD4C0 GT PUSH2 0x125 JUMPI DUP1 PUSH4 0xF5BEC1AD GT PUSH2 0xB8 JUMPI DUP1 PUSH4 0xFBF14851 GT PUSH2 0x87 JUMPI DUP1 PUSH4 0xFBF14851 EQ PUSH2 0xBA7 JUMPI DUP1 PUSH4 0xFC0C546A EQ PUSH2 0xBAF JUMPI DUP1 PUSH4 0xFF622DDA EQ PUSH2 0xBB7 JUMPI DUP1 PUSH4 0xFFF5F946 EQ PUSH2 0xBBF JUMPI PUSH2 0x763 JUMP JUMPDEST DUP1 PUSH4 0xF5BEC1AD EQ PUSH2 0xB87 JUMPI DUP1 PUSH4 0xF67362FE EQ PUSH2 0xB8F JUMPI DUP1 PUSH4 0xF80DE0A0 EQ PUSH2 0xB97 JUMPI DUP1 PUSH4 0xFB50A473 EQ PUSH2 0xB9F JUMPI PUSH2 0x763 JUMP JUMPDEST DUP1 PUSH4 0xEE37F4A6 GT PUSH2 0xF4 JUMPI DUP1 PUSH4 0xEE37F4A6 EQ PUSH2 0xB51 JUMPI DUP1 PUSH4 0xF116C4E0 EQ PUSH2 0xB64 JUMPI DUP1 PUSH4 0xF2FDE38B EQ PUSH2 0xB6C JUMPI DUP1 PUSH4 0xF4E20B9C EQ PUSH2 0xB7F JUMPI PUSH2 0x763 JUMP JUMPDEST DUP1 PUSH4 0xE6FDD4C0 EQ PUSH2 0xB31 JUMPI DUP1 PUSH4 0xE9704F81 EQ PUSH2 0xB39 JUMPI DUP1 PUSH4 0xE992DCA7 EQ PUSH2 0xB41 JUMPI DUP1 PUSH4 0xEA19733C EQ PUSH2 0xB49 JUMPI PUSH2 0x763 JUMP JUMPDEST DUP1 PUSH4 0xDFECEED7 GT PUSH2 0x19D JUMPI DUP1 PUSH4 0xE3DFC0B2 GT PUSH2 0x16C JUMPI DUP1 PUSH4 0xE3DFC0B2 EQ PUSH2 0xB11 JUMPI DUP1 PUSH4 0xE5F14824 EQ PUSH2 0xB19 JUMPI DUP1 PUSH4 0xE66D543A EQ PUSH2 0xB21 JUMPI DUP1 PUSH4 0xE68C9C30 EQ PUSH2 0xB29 JUMPI PUSH2 0x763 JUMP JUMPDEST DUP1 PUSH4 0xDFECEED7 EQ PUSH2 0xAE6 JUMPI DUP1 PUSH4 0xE0DE3D7C EQ PUSH2 0xAEE JUMPI DUP1 PUSH4 0xE168063C EQ PUSH2 0xAF6 JUMPI DUP1 PUSH4 0xE3115D3C EQ PUSH2 0xB09 JUMPI PUSH2 0x763 JUMP JUMPDEST DUP1 PUSH4 0xD4EFD2BA GT PUSH2 0x1D9 JUMPI DUP1 PUSH4 0xD4EFD2BA EQ PUSH2 0xAC6 JUMPI DUP1 PUSH4 0xD81109CE EQ PUSH2 0xACE JUMPI DUP1 PUSH4 0xD8645D37 EQ PUSH2 0xAD6 JUMPI DUP1 PUSH4 0xDC7048C1 EQ PUSH2 0xADE JUMPI PUSH2 0x763 JUMP JUMPDEST DUP1 PUSH4 0xCB3A2A88 EQ PUSH2 0xAAE JUMPI DUP1 PUSH4 0xD0EED967 EQ PUSH2 0xAB6 JUMPI DUP1 PUSH4 0xD1A89A46 EQ PUSH2 0xABE JUMPI PUSH2 0x763 JUMP JUMPDEST DUP1 PUSH4 0xABB10B9B GT PUSH2 0x2EF JUMPI DUP1 PUSH4 0xBE250988 GT PUSH2 0x282 JUMPI DUP1 PUSH4 0xC6EACBFE GT PUSH2 0x251 JUMPI DUP1 PUSH4 0xC6EACBFE EQ PUSH2 0xA8E JUMPI DUP1 PUSH4 0xC7761FAB EQ PUSH2 0xA96 JUMPI DUP1 PUSH4 0xC95B53C5 EQ PUSH2 0xA9E JUMPI DUP1 PUSH4 0xCA64F9E7 EQ PUSH2 0xAA6 JUMPI PUSH2 0x763 JUMP JUMPDEST DUP1 PUSH4 0xBE250988 EQ PUSH2 0xA6E JUMPI DUP1 PUSH4 0xBF09FF70 EQ PUSH2 0xA76 JUMPI DUP1 PUSH4 0xBF34F749 EQ PUSH2 0xA7E JUMPI DUP1 PUSH4 0xC4A306F8 EQ PUSH2 0xA86 JUMPI PUSH2 0x763 JUMP JUMPDEST DUP1 PUSH4 0xB45D9D8D GT PUSH2 0x2BE JUMPI DUP1 PUSH4 0xB45D9D8D EQ PUSH2 0xA4E JUMPI DUP1 PUSH4 0xB6118450 EQ PUSH2 0xA56 JUMPI DUP1 PUSH4 0xB6C6EC02 EQ PUSH2 0xA5E JUMPI DUP1 PUSH4 0xBD40EF4C EQ PUSH2 0xA66 JUMPI PUSH2 0x763 JUMP JUMPDEST DUP1 PUSH4 0xABB10B9B EQ PUSH2 0xA2E JUMPI DUP1 PUSH4 0xAC846E79 EQ PUSH2 0xA36 JUMPI DUP1 PUSH4 0xB1562F67 EQ PUSH2 0xA3E JUMPI DUP1 PUSH4 0xB38E885E EQ PUSH2 0xA46 JUMPI PUSH2 0x763 JUMP JUMPDEST DUP1 PUSH4 0x995ADBDD GT PUSH2 0x367 JUMPI DUP1 PUSH4 0xA1A4575A GT PUSH2 0x336 JUMPI DUP1 PUSH4 0xA1A4575A EQ PUSH2 0xA0E JUMPI DUP1 PUSH4 0xA327181B EQ PUSH2 0xA16 JUMPI DUP1 PUSH4 0xA35B3B09 EQ PUSH2 0xA1E JUMPI DUP1 PUSH4 0xAB43E78D EQ PUSH2 0xA26 JUMPI PUSH2 0x763 JUMP JUMPDEST DUP1 PUSH4 0x995ADBDD EQ PUSH2 0x9EE JUMPI DUP1 PUSH4 0x9A175938 EQ PUSH2 0x9F6 JUMPI DUP1 PUSH4 0x9D1F2ADA EQ PUSH2 0x9FE JUMPI DUP1 PUSH4 0x9FB491F6 EQ PUSH2 0xA06 JUMPI PUSH2 0x763 JUMP JUMPDEST DUP1 PUSH4 0x90D10B6E GT PUSH2 0x3A3 JUMPI DUP1 PUSH4 0x90D10B6E EQ PUSH2 0x9CE JUMPI DUP1 PUSH4 0x9279E9D4 EQ PUSH2 0x9D6 JUMPI DUP1 PUSH4 0x98A54E2B EQ PUSH2 0x9DE JUMPI DUP1 PUSH4 0x9904ED8D EQ PUSH2 0x9E6 JUMPI PUSH2 0x763 JUMP JUMPDEST DUP1 PUSH4 0x8A13725D EQ PUSH2 0x9B6 JUMPI DUP1 PUSH4 0x8DA5CB5B EQ PUSH2 0x9BE JUMPI DUP1 PUSH4 0x90CC59EB EQ PUSH2 0x9C6 JUMPI PUSH2 0x763 JUMP JUMPDEST DUP1 PUSH4 0x49B46787 GT PUSH2 0x59E JUMPI DUP1 PUSH4 0x728D23AB GT PUSH2 0x4C4 JUMPI DUP1 PUSH4 0x8360034D GT PUSH2 0x457 JUMPI DUP1 PUSH4 0x8724450F GT PUSH2 0x426 JUMPI DUP1 PUSH4 0x8724450F EQ PUSH2 0x996 JUMPI DUP1 PUSH4 0x87CE6311 EQ PUSH2 0x99E JUMPI DUP1 PUSH4 0x893B2A76 EQ PUSH2 0x9A6 JUMPI DUP1 PUSH4 0x89B212D3 EQ PUSH2 0x9AE JUMPI PUSH2 0x763 JUMP JUMPDEST DUP1 PUSH4 0x8360034D EQ PUSH2 0x976 JUMPI DUP1 PUSH4 0x83CC6EF2 EQ PUSH2 0x97E JUMPI DUP1 PUSH4 0x849F9F0A EQ PUSH2 0x986 JUMPI DUP1 PUSH4 0x86B0B4C5 EQ PUSH2 0x98E JUMPI PUSH2 0x763 JUMP JUMPDEST DUP1 PUSH4 0x7A0EC25B GT PUSH2 0x493 JUMPI DUP1 PUSH4 0x7A0EC25B EQ PUSH2 0x956 JUMPI DUP1 PUSH4 0x7A34DA67 EQ PUSH2 0x95E JUMPI DUP1 PUSH4 0x7D630CB0 EQ PUSH2 0x966 JUMPI DUP1 PUSH4 0x7E8603E9 EQ PUSH2 0x96E JUMPI PUSH2 0x763 JUMP JUMPDEST DUP1 PUSH4 0x728D23AB EQ PUSH2 0x92B JUMPI DUP1 PUSH4 0x72E54030 EQ PUSH2 0x933 JUMPI DUP1 PUSH4 0x75DC6130 EQ PUSH2 0x93B JUMPI DUP1 PUSH4 0x779231B2 EQ PUSH2 0x94E JUMPI PUSH2 0x763 JUMP JUMPDEST DUP1 PUSH4 0x557C1ABE GT PUSH2 0x53C JUMPI DUP1 PUSH4 0x61879075 GT PUSH2 0x50B JUMPI DUP1 PUSH4 0x61879075 EQ PUSH2 0x900 JUMPI DUP1 PUSH4 0x6785F847 EQ PUSH2 0x913 JUMPI DUP1 PUSH4 0x6A8E0ECE EQ PUSH2 0x91B JUMPI DUP1 PUSH4 0x715018A6 EQ PUSH2 0x923 JUMPI PUSH2 0x763 JUMP JUMPDEST DUP1 PUSH4 0x557C1ABE EQ PUSH2 0x8D5 JUMPI DUP1 PUSH4 0x55A35F5C EQ PUSH2 0x8DD JUMPI DUP1 PUSH4 0x5CB361F6 EQ PUSH2 0x8F0 JUMPI DUP1 PUSH4 0x5D1C3182 EQ PUSH2 0x8F8 JUMPI PUSH2 0x763 JUMP JUMPDEST DUP1 PUSH4 0x4ED60B2A GT PUSH2 0x578 JUMPI DUP1 PUSH4 0x4ED60B2A EQ PUSH2 0x8B5 JUMPI DUP1 PUSH4 0x51912F29 EQ PUSH2 0x8BD JUMPI DUP1 PUSH4 0x531780BB EQ PUSH2 0x8C5 JUMPI DUP1 PUSH4 0x5492F302 EQ PUSH2 0x8CD JUMPI PUSH2 0x763 JUMP JUMPDEST DUP1 PUSH4 0x49B46787 EQ PUSH2 0x89D JUMPI DUP1 PUSH4 0x4E5638F5 EQ PUSH2 0x8A5 JUMPI DUP1 PUSH4 0x4E87C5A8 EQ PUSH2 0x8AD JUMPI PUSH2 0x763 JUMP JUMPDEST DUP1 PUSH4 0x2B0AFAB3 GT PUSH2 0x68E JUMPI DUP1 PUSH4 0x3692616A GT PUSH2 0x621 JUMPI DUP1 PUSH4 0x42DF5641 GT PUSH2 0x5F0 JUMPI DUP1 PUSH4 0x42DF5641 EQ PUSH2 0x87D JUMPI DUP1 PUSH4 0x444D62B6 EQ PUSH2 0x885 JUMPI DUP1 PUSH4 0x463444B7 EQ PUSH2 0x88D JUMPI DUP1 PUSH4 0x484DF80A EQ PUSH2 0x895 JUMPI PUSH2 0x763 JUMP JUMPDEST DUP1 PUSH4 0x3692616A EQ PUSH2 0x850 JUMPI DUP1 PUSH4 0x36FC43FC EQ PUSH2 0x858 JUMPI DUP1 PUSH4 0x386D0976 EQ PUSH2 0x86D JUMPI DUP1 PUSH4 0x3968EC84 EQ PUSH2 0x875 JUMPI PUSH2 0x763 JUMP JUMPDEST DUP1 PUSH4 0x2E2F93F3 GT PUSH2 0x65D JUMPI DUP1 PUSH4 0x2E2F93F3 EQ PUSH2 0x830 JUMPI DUP1 PUSH4 0x30C0BB79 EQ PUSH2 0x838 JUMPI DUP1 PUSH4 0x31911C91 EQ PUSH2 0x840 JUMPI DUP1 PUSH4 0x34C37E21 EQ PUSH2 0x848 JUMPI PUSH2 0x763 JUMP JUMPDEST DUP1 PUSH4 0x2B0AFAB3 EQ PUSH2 0x805 JUMPI DUP1 PUSH4 0x2BE05960 EQ PUSH2 0x80D JUMPI DUP1 PUSH4 0x2BF8ABB3 EQ PUSH2 0x815 JUMPI DUP1 PUSH4 0x2D09A8E3 EQ PUSH2 0x81D JUMPI PUSH2 0x763 JUMP JUMPDEST DUP1 PUSH4 0xA5A4C20 GT PUSH2 0x706 JUMPI DUP1 PUSH4 0x175BF630 GT PUSH2 0x6D5 JUMPI DUP1 PUSH4 0x175BF630 EQ PUSH2 0x7E5 JUMPI DUP1 PUSH4 0x1D0FB88E EQ PUSH2 0x7ED JUMPI DUP1 PUSH4 0x29A47BC7 EQ PUSH2 0x7F5 JUMPI DUP1 PUSH4 0x29E3DD1F EQ PUSH2 0x7FD JUMPI PUSH2 0x763 JUMP JUMPDEST DUP1 PUSH4 0xA5A4C20 EQ PUSH2 0x7C5 JUMPI DUP1 PUSH4 0xB08BFD9 EQ PUSH2 0x7CD JUMPI DUP1 PUSH4 0xF1F0FFE EQ PUSH2 0x7D5 JUMPI DUP1 PUSH4 0xF78CC76 EQ PUSH2 0x7DD JUMPI PUSH2 0x763 JUMP JUMPDEST DUP1 PUSH4 0x6606D67 GT PUSH2 0x742 JUMPI DUP1 PUSH4 0x6606D67 EQ PUSH2 0x7A3 JUMPI DUP1 PUSH4 0x855D151 EQ PUSH2 0x7AB JUMPI DUP1 PUSH4 0x8E7F0DB EQ PUSH2 0x7B3 JUMPI DUP1 PUSH4 0x92A5CCE EQ PUSH2 0x7BB JUMPI PUSH2 0x763 JUMP JUMPDEST DUP1 PUSH3 0x653FF8 EQ PUSH2 0x768 JUMPI DUP1 PUSH4 0x363A1BF EQ PUSH2 0x786 JUMPI DUP1 PUSH4 0x4E76C8F EQ PUSH2 0x78E JUMPI JUMPDEST PUSH1 0x0 DUP1 REVERT JUMPDEST PUSH2 0x770 PUSH2 0xBC7 JUMP JUMPDEST PUSH1 0x40 MLOAD PUSH2 0x77D SWAP2 SWAP1 PUSH2 0x172C JUMP JUMPDEST PUSH1 0x40 MLOAD DUP1 SWAP2 SUB SWAP1 RETURN JUMPDEST PUSH2 0x770 PUSH2 0xBCD JUMP JUMPDEST PUSH2 0x796 PUSH2 0xBD3 JUMP JUMPDEST PUSH1 0x40 MLOAD PUSH2 0x77D SWAP2 SWAP1 PUSH2 0x1692 JUMP JUMPDEST PUSH2 0x796 PUSH2 0xBE2 JUMP JUMPDEST PUSH2 0x796 PUSH2 0xBF1 JUMP JUMPDEST PUSH2 0x770 PUSH2 0xC00 JUMP JUMPDEST PUSH2 0x7C3 PUSH2 0xC06 JUMP JUMPDEST STOP JUMPDEST PUSH2 0x770 PUSH2 0xC21 JUMP JUMPDEST PUSH2 0x770 PUSH2 0xC27 JUMP JUMPDEST PUSH2 0x770 PUSH2 0xC2D JUMP JUMPDEST PUSH2 0x770 PUSH2 0xC33 JUMP JUMPDEST PUSH2 0x770 PUSH2 0xC39 JUMP JUMPDEST PUSH2 0x770 PUSH2 0xC3F JUMP JUMPDEST PUSH2 0x796 PUSH2 0xC45 JUMP JUMPDEST PUSH2 0x770 PUSH2 0xC54 JUMP JUMPDEST PUSH2 0x770 PUSH2 0xC5A JUMP JUMPDEST PUSH2 0x770 PUSH2 0xC60 JUMP JUMPDEST PUSH2 0x770 PUSH2 0xC66 JUMP JUMPDEST PUSH2 0x7C3 PUSH2 0x82B CALLDATASIZE PUSH1 0x4 PUSH2 0x156A JUMP JUMPDEST PUSH2 0xC6C JUMP JUMPDEST PUSH2 0x796 PUSH2 0xE5A JUMP JUMPDEST PUSH2 0x770 PUSH2 0xE69 JUMP JUMPDEST PUSH2 0x770 PUSH2 0xE6F JUMP JUMPDEST PUSH2 0x770 PUSH2 0xE75 JUMP JUMPDEST PUSH2 0x770 PUSH2 0xE7B JUMP JUMPDEST PUSH2 0x860 PUSH2 0xE81 JUMP JUMPDEST PUSH1 0x40 MLOAD PUSH2 0x77D SWAP2 SWAP1 PUSH2 0x16A6 JUMP JUMPDEST PUSH2 0x770 PUSH2 0xE8A JUMP JUMPDEST PUSH2 0x770 PUSH2 0xE90 JUMP JUMPDEST PUSH2 0x770 PUSH2 0xE96 JUMP JUMPDEST PUSH2 0x770 PUSH2 0xE9C JUMP JUMPDEST PUSH2 0x796 PUSH2 0xEA2 JUMP JUMPDEST PUSH2 0x770 PUSH2 0xEB1 JUMP JUMPDEST PUSH2 0x770 PUSH2 0xEB7 JUMP JUMPDEST PUSH2 0x770 PUSH2 0xEBD JUMP JUMPDEST PUSH2 0x860 PUSH2 0xEC3 JUMP JUMPDEST PUSH2 0x770 PUSH2 0xECC JUMP JUMPDEST PUSH2 0x796 PUSH2 0xED2 JUMP JUMPDEST PUSH2 0x770 PUSH2 0xEE1 JUMP JUMPDEST PUSH2 0x796 PUSH2 0xEE7 JUMP JUMPDEST PUSH2 0x796 PUSH2 0xEF6 JUMP JUMPDEST PUSH2 0x7C3 PUSH2 0x8EB CALLDATASIZE PUSH1 0x4 PUSH2 0x1635 JUMP JUMPDEST PUSH2 0xF05 JUMP JUMPDEST PUSH2 0x770 PUSH2 0xF89 JUMP JUMPDEST PUSH2 0x770 PUSH2 0xF8F JUMP JUMPDEST PUSH2 0x7C3 PUSH2 0x90E CALLDATASIZE PUSH1 0x4 PUSH2 0x1635 JUMP JUMPDEST PUSH2 0xF95 JUMP JUMPDEST PUSH2 0x770 PUSH2 0xFD9 JUMP JUMPDEST PUSH2 0x770 PUSH2 0xFDF JUMP JUMPDEST PUSH2 0x7C3 PUSH2 0xFE5 JUMP JUMPDEST PUSH2 0x770 PUSH2 0xFF9 JUMP JUMPDEST PUSH2 0x770 PUSH2 0xFFF JUMP JUMPDEST PUSH2 0x7C3 PUSH2 0x949 CALLDATASIZE PUSH1 0x4 PUSH2 0x1635 JUMP JUMPDEST PUSH2 0x1005 JUMP JUMPDEST PUSH2 0x770 PUSH2 0x1085 JUMP JUMPDEST PUSH2 0x796 PUSH2 0x108B JUMP JUMPDEST PUSH2 0x796 PUSH2 0x109A JUMP JUMPDEST PUSH2 0x770 PUSH2 0x10A9 JUMP JUMPDEST PUSH2 0x770 PUSH2 0x10AF JUMP JUMPDEST PUSH2 0x770 PUSH2 0x10B5 JUMP JUMPDEST PUSH2 0x796 PUSH2 0x10BB JUMP JUMPDEST PUSH2 0x770 PUSH2 0x10CA JUMP JUMPDEST PUSH2 0x770 PUSH2 0x10D0 JUMP JUMPDEST PUSH2 0x770 PUSH2 0x10D6 JUMP JUMPDEST PUSH2 0x770 PUSH2 0x10DC JUMP JUMPDEST PUSH2 0x770 PUSH2 0x10E2 JUMP JUMPDEST PUSH2 0x770 PUSH2 0x10E8 JUMP JUMPDEST PUSH2 0x770 PUSH2 0x10EE JUMP JUMPDEST PUSH2 0x796 PUSH2 0x10F4 JUMP JUMPDEST PUSH2 0x770 PUSH2 0x1103 JUMP JUMPDEST PUSH2 0x770 PUSH2 0x1109 JUMP JUMPDEST PUSH2 0x770 PUSH2 0x110F JUMP JUMPDEST PUSH2 0x770 PUSH2 0x1115 JUMP JUMPDEST PUSH2 0x796 PUSH2 0x111B JUMP JUMPDEST PUSH2 0x770 PUSH2 0x112A JUMP JUMPDEST PUSH2 0x770 PUSH2 0x1130 JUMP JUMPDEST PUSH2 0x770 PUSH2 0x1136 JUMP JUMPDEST PUSH2 0x770 PUSH2 0x113C JUMP JUMPDEST PUSH2 0x770 PUSH2 0x1142 JUMP JUMPDEST PUSH2 0x770 PUSH2 0x1148 JUMP JUMPDEST PUSH2 0x770 PUSH2 0x114E JUMP JUMPDEST PUSH2 0x796 PUSH2 0x1154 JUMP JUMPDEST PUSH2 0x770 PUSH2 0x1163 JUMP JUMPDEST PUSH2 0x770 PUSH2 0x1169 JUMP JUMPDEST PUSH2 0x770 PUSH2 0x116F JUMP JUMPDEST PUSH2 0x770 PUSH2 0x1175 JUMP JUMPDEST PUSH2 0x796 PUSH2 0x117B JUMP JUMPDEST PUSH2 0x770 PUSH2 0x118A JUMP JUMPDEST PUSH2 0x796 PUSH2 0x1190 JUMP JUMPDEST PUSH2 0x770 PUSH2 0x119F JUMP JUMPDEST PUSH2 0x770 PUSH2 0x11A5 JUMP JUMPDEST PUSH2 0x770 PUSH2 0x11AB JUMP JUMPDEST PUSH2 0x770 PUSH2 0x11B1 JUMP JUMPDEST PUSH2 0x770 PUSH2 0x11B7 JUMP JUMPDEST PUSH2 0x770 PUSH2 0x11BD JUMP JUMPDEST PUSH2 0x770 PUSH2 0x11C3 JUMP JUMPDEST PUSH2 0x770 PUSH2 0x11C9 JUMP JUMPDEST PUSH2 0x796 PUSH2 0x11CF JUMP JUMPDEST PUSH2 0x770 PUSH2 0x11DE JUMP JUMPDEST PUSH2 0x770 PUSH2 0x11E4 JUMP JUMPDEST PUSH2 0x770 PUSH2 0x11EA JUMP JUMPDEST PUSH2 0x770 PUSH2 0x11F0 JUMP JUMPDEST PUSH2 0x770 PUSH2 0x11F6 JUMP JUMPDEST PUSH2 0x796 PUSH2 0x11FC JUMP JUMPDEST PUSH2 0x770 PUSH2 0x120B JUMP JUMPDEST PUSH2 0x770 PUSH2 0x1211 JUMP JUMPDEST PUSH2 0x770 PUSH2 0x1217 JUMP JUMPDEST PUSH2 0x7C3 PUSH2 0xB04 CALLDATASIZE PUSH1 0x4 PUSH2 0x1635 JUMP JUMPDEST PUSH2 0x121D JUMP JUMPDEST PUSH2 0x770 PUSH2 0x129D JUMP JUMPDEST PUSH2 0x770 PUSH2 0x12A3 JUMP JUMPDEST PUSH2 0x770 PUSH2 0x12A9 JUMP JUMPDEST PUSH2 0x770 PUSH2 0x12AF JUMP JUMPDEST PUSH2 0x770 PUSH2 0x12B5 JUMP JUMPDEST PUSH2 0x770 PUSH2 0x12BB JUMP JUMPDEST PUSH2 0x770 PUSH2 0x12C1 JUMP JUMPDEST PUSH2 0x796 PUSH2 0x12C7 JUMP JUMPDEST PUSH2 0x770 PUSH2 0x12D6 JUMP JUMPDEST PUSH2 0x7C3 PUSH2 0xB5F CALLDATASIZE PUSH1 0x4 PUSH2 0x1656 JUMP JUMPDEST PUSH2 0x12DC JUMP JUMPDEST PUSH2 0x770 PUSH2 0x1400 JUMP JUMPDEST PUSH2 0x7C3 PUSH2 0xB7A CALLDATASIZE PUSH1 0x4 PUSH2 0x1549 JUMP JUMPDEST PUSH2 0x1406 JUMP JUMPDEST PUSH2 0x770 PUSH2 0x1449 JUMP JUMPDEST PUSH2 0x770 PUSH2 0x144F JUMP JUMPDEST PUSH2 0x796 PUSH2 0x1455 JUMP JUMPDEST PUSH2 0x770 PUSH2 0x1464 JUMP JUMPDEST PUSH2 0x770 PUSH2 0x146A JUMP JUMPDEST PUSH2 0x796 PUSH2 0x1470 JUMP JUMPDEST PUSH2 0x796 PUSH2 0x147F JUMP JUMPDEST PUSH2 0x770 PUSH2 0x148E JUMP JUMPDEST PUSH2 0x770 PUSH2 0x1494 JUMP JUMPDEST PUSH1 0x6 SLOAD DUP2 JUMP JUMPDEST PUSH1 0x27 SLOAD SWAP1 JUMP JUMPDEST PUSH1 0x33 SLOAD PUSH1 0x1 PUSH1 0x1 PUSH1 0xA0 SHL SUB AND SWAP1 JUMP JUMPDEST PUSH1 0x37 SLOAD PUSH1 0x1 PUSH1 0x1 PUSH1 0xA0 SHL SUB AND DUP2 JUMP JUMPDEST PUSH1 0x32 SLOAD PUSH1 0x1 PUSH1 0x1 PUSH1 0xA0 SHL SUB AND SWAP1 JUMP JUMPDEST PUSH1 0x2D SLOAD DUP2 JUMP JUMPDEST PUSH2 0xC0E PUSH2 0x149A JUMP JUMPDEST PUSH2 0xC16 PUSH2 0x10F4 JUMP JUMPDEST PUSH1 0x1 PUSH1 0x1 PUSH1 0xA0 SHL SUB AND SELFDESTRUCT JUMPDEST PUSH1 0x2A SLOAD DUP2 JUMP JUMPDEST PUSH1 0xE SLOAD SWAP1 JUMP JUMPDEST PUSH1 0x16 SLOAD SWAP1 JUMP JUMPDEST PUSH1 0x11 SLOAD SWAP1 JUMP JUMPDEST PUSH1 0x17 SLOAD DUP2 JUMP JUMPDEST PUSH1 0xA SLOAD DUP2 JUMP JUMPDEST PUSH1 0x32 SLOAD PUSH1 0x1 PUSH1 0x1 PUSH1 0xA0 SHL SUB AND DUP2 JUMP JUMPDEST PUSH1 0x2C SLOAD SWAP1 JUMP JUMPDEST PUSH1 0x1C SLOAD SWAP1 JUMP JUMPDEST PUSH1 0x26 SLOAD DUP2 JUMP JUMPDEST PUSH1 0x25 SLOAD DUP2 JUMP JUMPDEST PUSH2 0xC74 PUSH2 0x149A JUMP JUMPDEST PUSH1 0x1 PUSH1 0x1 PUSH1 0xA0 SHL SUB DUP12 AND ISZERO PUSH2 0xC9F JUMPI PUSH1 0x30 DUP1 SLOAD PUSH1 0x1 PUSH1 0x1 PUSH1 0xA0 SHL SUB NOT AND PUSH1 0x1 PUSH1 0x1 PUSH1 0xA0 SHL SUB DUP14 AND OR SWAP1 SSTORE JUMPDEST PUSH1 0x1 PUSH1 0x1 PUSH1 0xA0 SHL SUB DUP11 AND ISZERO PUSH2 0xCCA JUMPI PUSH1 0x32 DUP1 SLOAD PUSH1 0x1 PUSH1 0x1 PUSH1 0xA0 SHL SUB NOT AND PUSH1 0x1 PUSH1 0x1 PUSH1 0xA0 SHL SUB DUP13 AND OR SWAP1 SSTORE JUMPDEST PUSH1 0x1 PUSH1 0x1 PUSH1 0xA0 SHL SUB DUP10 AND ISZERO PUSH2 0xCF5 JUMPI PUSH1 0x31 DUP1 SLOAD PUSH1 0x1 PUSH1 0x1 PUSH1 0xA0 SHL SUB NOT AND PUSH1 0x1 PUSH1 0x1 PUSH1 0xA0 SHL SUB DUP12 AND OR SWAP1 SSTORE JUMPDEST PUSH1 0x1 PUSH1 0x1 PUSH1 0xA0 SHL SUB DUP9 AND ISZERO PUSH2 0xD20 JUMPI PUSH1 0x33 DUP1 SLOAD PUSH1 0x1 PUSH1 0x1 PUSH1 0xA0 SHL SUB NOT AND PUSH1 0x1 PUSH1 0x1 PUSH1 0xA0 SHL SUB DUP11 AND OR SWAP1 SSTORE JUMPDEST PUSH1 0x1 PUSH1 0x1 PUSH1 0xA0 SHL SUB DUP8 AND ISZERO PUSH2 0xD4B JUMPI PUSH1 0x34 DUP1 SLOAD PUSH1 0x1 PUSH1 0x1 PUSH1 0xA0 SHL SUB NOT AND PUSH1 0x1 PUSH1 0x1 PUSH1 0xA0 SHL SUB DUP10 AND OR SWAP1 SSTORE JUMPDEST PUSH1 0x1 PUSH1 0x1 PUSH1 0xA0 SHL SUB DUP6 AND ISZERO PUSH2 0xD76 JUMPI PUSH1 0x37 DUP1 SLOAD PUSH1 0x1 PUSH1 0x1 PUSH1 0xA0 SHL SUB NOT AND PUSH1 0x1 PUSH1 0x1 PUSH1 0xA0 SHL SUB DUP8 AND OR SWAP1 SSTORE JUMPDEST PUSH1 0x1 PUSH1 0x1 PUSH1 0xA0 SHL SUB DUP7 AND ISZERO PUSH2 0xDA1 JUMPI PUSH1 0x36 DUP1 SLOAD PUSH1 0x1 PUSH1 0x1 PUSH1 0xA0 SHL SUB NOT AND PUSH1 0x1 PUSH1 0x1 PUSH1 0xA0 SHL SUB DUP9 AND OR SWAP1 SSTORE JUMPDEST PUSH1 0x1 PUSH1 0x1 PUSH1 0xA0 SHL SUB DUP5 AND ISZERO PUSH2 0xDCC JUMPI PUSH1 0x38 DUP1 SLOAD PUSH1 0x1 PUSH1 0x1 PUSH1 0xA0 SHL SUB NOT AND PUSH1 0x1 PUSH1 0x1 PUSH1 0xA0 SHL SUB DUP7 AND OR SWAP1 SSTORE JUMPDEST PUSH1 0x1 PUSH1 0x1 PUSH1 0xA0 SHL SUB DUP4 AND ISZERO PUSH2 0xDF7 JUMPI PUSH1 0x39 DUP1 SLOAD PUSH1 0x1 PUSH1 0x1 PUSH1 0xA0 SHL SUB NOT AND PUSH1 0x1 PUSH1 0x1 PUSH1 0xA0 SHL SUB DUP6 AND OR SWAP1 SSTORE JUMPDEST PUSH1 0x1 PUSH1 0x1 PUSH1 0xA0 SHL SUB DUP3 AND ISZERO PUSH2 0xE22 JUMPI PUSH1 0x35 DUP1 SLOAD PUSH1 0x1 PUSH1 0x1 PUSH1 0xA0 SHL SUB NOT AND PUSH1 0x1 PUSH1 0x1 PUSH1 0xA0 SHL SUB DUP5 AND OR SWAP1 SSTORE JUMPDEST PUSH1 0x1 PUSH1 0x1 PUSH1 0xA0 SHL SUB DUP2 AND ISZERO PUSH2 0xE4D JUMPI PUSH1 0x2F DUP1 SLOAD PUSH1 0x1 PUSH1 0x1 PUSH1 0xA0 SHL SUB NOT AND PUSH1 0x1 PUSH1 0x1 PUSH1 0xA0 SHL SUB DUP4 AND OR SWAP1 SSTORE JUMPDEST POP POP POP POP POP POP POP POP POP POP POP JUMP JUMPDEST PUSH1 0x2F SLOAD PUSH1 0x1 PUSH1 0x1 PUSH1 0xA0 SHL SUB AND SWAP1 JUMP JUMPDEST PUSH1 0xB SLOAD SWAP1 JUMP JUMPDEST PUSH1 0x19 SLOAD DUP2 JUMP JUMPDEST PUSH1 0x1D SLOAD DUP2 JUMP JUMPDEST PUSH1 0x9 SLOAD SWAP1 JUMP JUMPDEST PUSH1 0x10 SLOAD PUSH1 0xFF AND DUP2 JUMP JUMPDEST PUSH1 0x25 SLOAD SWAP1 JUMP JUMPDEST PUSH1 0x29 SLOAD SWAP1 JUMP JUMPDEST PUSH1 0x1A SLOAD DUP2 JUMP JUMPDEST PUSH1 0x20 SLOAD DUP2 JUMP JUMPDEST PUSH1 0x39 SLOAD PUSH1 0x1 PUSH1 0x1 PUSH1 0xA0 SHL SUB AND SWAP1 JUMP JUMPDEST PUSH1 0x1B SLOAD SWAP1 JUMP JUMPDEST PUSH1 0x2E SLOAD SWAP1 JUMP JUMPDEST PUSH1 0x4 SLOAD DUP2 JUMP JUMPDEST PUSH1 0x10 SLOAD PUSH1 0xFF AND SWAP1 JUMP JUMPDEST PUSH1 0x27 SLOAD DUP2 JUMP JUMPDEST PUSH1 0x33 SLOAD PUSH1 0x1 PUSH1 0x1 PUSH1 0xA0 SHL SUB AND DUP2 JUMP JUMPDEST PUSH1 0x2B SLOAD DUP2 JUMP JUMPDEST PUSH1 0x34 SLOAD PUSH1 0x1 PUSH1 0x1 PUSH1 0xA0 SHL SUB AND SWAP1 JUMP JUMPDEST PUSH1 0x35 SLOAD PUSH1 0x1 PUSH1 0x1 PUSH1 0xA0 SHL SUB AND SWAP1 JUMP JUMPDEST PUSH2 0xF0D PUSH2 0x149A JUMP JUMPDEST DUP2 PUSH1 0x1 EQ ISZERO PUSH2 0xF1C JUMPI PUSH1 0x27 DUP2 SWAP1 SSTORE JUMPDEST DUP2 PUSH1 0x2 EQ ISZERO PUSH2 0xF2B JUMPI PUSH1 0x2A DUP2 SWAP1 SSTORE JUMPDEST DUP2 PUSH1 0x3 EQ ISZERO PUSH2 0xF3A JUMPI PUSH1 0x28 DUP2 SWAP1 SSTORE JUMPDEST DUP2 PUSH1 0x4 EQ ISZERO PUSH2 0xF49 JUMPI PUSH1 0x29 DUP2 SWAP1 SSTORE JUMPDEST DUP2 PUSH1 0x5 EQ ISZERO PUSH2 0xF58 JUMPI PUSH1 0x2B DUP2 SWAP1 SSTORE JUMPDEST DUP2 PUSH1 0x6 EQ ISZERO PUSH2 0xF67 JUMPI PUSH1 0x2C DUP2 SWAP1 SSTORE JUMPDEST DUP2 PUSH1 0x7 EQ ISZERO PUSH2 0xF76 JUMPI PUSH1 0x2E DUP2 SWAP1 SSTORE JUMPDEST DUP2 PUSH1 0x8 EQ ISZERO PUSH2 0xF85 JUMPI PUSH1 0x2D DUP2 SWAP1 SSTORE JUMPDEST POP POP JUMP JUMPDEST PUSH1 0xC SLOAD DUP2 JUMP JUMPDEST PUSH1 0x28 SLOAD DUP2 JUMP JUMPDEST PUSH2 0xF9D PUSH2 0x149A JUMP JUMPDEST DUP2 PUSH1 0x1 EQ ISZERO PUSH2 0xFAC JUMPI PUSH1 0x1 DUP2 SWAP1 SSTORE JUMPDEST DUP2 PUSH1 0x2 EQ ISZERO PUSH2 0xFBB JUMPI PUSH1 0x2 DUP2 SWAP1 SSTORE JUMPDEST DUP2 PUSH1 0x3 EQ ISZERO PUSH2 0xFCA JUMPI PUSH1 0x3 DUP2 SWAP1 SSTORE JUMPDEST DUP2 PUSH1 0x4 EQ ISZERO PUSH2 0xF85 JUMPI PUSH1 0x4 SSTORE POP JUMP JUMPDEST PUSH1 0x1B SLOAD DUP2 JUMP JUMPDEST PUSH1 0x1E SLOAD DUP2 JUMP JUMPDEST PUSH2 0xFED PUSH2 0x149A JUMP JUMPDEST PUSH2 0xFF7 PUSH1 0x0 PUSH2 0x14D9 JUMP JUMPDEST JUMP JUMPDEST PUSH1 0x18 SLOAD DUP2 JUMP JUMPDEST PUSH1 0xA SLOAD SWAP1 JUMP JUMPDEST PUSH2 0x100D PUSH2 0x149A JUMP JUMPDEST DUP2 PUSH1 0x1 EQ ISZERO PUSH2 0x101C JUMPI PUSH1 0x1F DUP2 SWAP1 SSTORE JUMPDEST DUP2 PUSH1 0x2 EQ ISZERO PUSH2 0x102B JUMPI PUSH1 0x22 DUP2 SWAP1 SSTORE JUMPDEST DUP2 PUSH1 0x3 EQ ISZERO PUSH2 0x103A JUMPI PUSH1 0x20 DUP2 SWAP1 SSTORE JUMPDEST DUP2 PUSH1 0x4 EQ ISZERO PUSH2 0x1049 JUMPI PUSH1 0x21 DUP2 SWAP1 SSTORE JUMPDEST DUP2 PUSH1 0x5 EQ ISZERO PUSH2 0x1058 JUMPI PUSH1 0x23 DUP2 SWAP1 SSTORE JUMPDEST DUP2 PUSH1 0x6 EQ ISZERO PUSH2 0x1067 JUMPI PUSH1 0x24 DUP2 SWAP1 SSTORE JUMPDEST DUP2 PUSH1 0x7 EQ ISZERO PUSH2 0x1076 JUMPI PUSH1 0x26 DUP2 SWAP1 SSTORE JUMPDEST DUP2 PUSH1 0x8 EQ ISZERO PUSH2 0xF85 JUMPI PUSH1 0x25 SSTORE POP JUMP JUMPDEST PUSH1 0x22 SLOAD DUP2 JUMP JUMPDEST PUSH1 0x38 SLOAD PUSH1 0x1 PUSH1 0x1 PUSH1 0xA0 SHL SUB AND SWAP1 JUMP JUMPDEST PUSH1 0x34 SLOAD PUSH1 0x1 PUSH1 0x1 PUSH1 0xA0 SHL SUB AND DUP2 JUMP JUMPDEST PUSH1 0x3 SLOAD SWAP1 JUMP JUMPDEST PUSH1 0x24 SLOAD DUP2 JUMP JUMPDEST PUSH1 0x2C SLOAD DUP2 JUMP JUMPDEST PUSH1 0x30 SLOAD PUSH1 0x1 PUSH1 0x1 PUSH1 0xA0 SHL SUB AND DUP2 JUMP JUMPDEST PUSH1 0x26 SLOAD SWAP1 JUMP JUMPDEST PUSH1 0xE SLOAD DUP2 JUMP JUMPDEST PUSH1 0xD SLOAD DUP2 JUMP JUMPDEST PUSH1 0x11 SLOAD DUP2 JUMP JUMPDEST PUSH1 0x2D SLOAD SWAP1 JUMP JUMPDEST PUSH1 0x1E SLOAD SWAP1 JUMP JUMPDEST PUSH1 0x24 SLOAD SWAP1 JUMP JUMPDEST PUSH1 0x0 SLOAD PUSH1 0x1 PUSH1 0x1 PUSH1 0xA0 SHL SUB AND SWAP1 JUMP JUMPDEST PUSH1 0x23 SLOAD SWAP1 JUMP JUMPDEST PUSH1 0x3 SLOAD DUP2 JUMP JUMPDEST PUSH1 0x2B SLOAD SWAP1 JUMP JUMPDEST PUSH1 0x1 SLOAD SWAP1 JUMP JUMPDEST PUSH1 0x31 SLOAD PUSH1 0x1 PUSH1 0x1 PUSH1 0xA0 SHL SUB AND DUP2 JUMP JUMPDEST PUSH1 0x28 SLOAD SWAP1 JUMP JUMPDEST PUSH1 0x1C SLOAD DUP2 JUMP JUMPDEST PUSH1 0x5 SLOAD SWAP1 JUMP JUMPDEST PUSH1 0x15 SLOAD SWAP1 JUMP JUMPDEST PUSH1 0x20 SLOAD SWAP1 JUMP JUMPDEST PUSH1 0x1 SLOAD DUP2 JUMP JUMPDEST PUSH1 0x8 SLOAD DUP2 JUMP JUMPDEST PUSH1 0x35 SLOAD PUSH1 0x1 PUSH1 0x1 PUSH1 0xA0 SHL SUB AND DUP2 JUMP JUMPDEST PUSH1 0xC SLOAD SWAP1 JUMP JUMPDEST PUSH1 0x29 SLOAD DUP2 JUMP JUMPDEST PUSH1 0x2A SLOAD SWAP1 JUMP JUMPDEST PUSH1 0x12 SLOAD SWAP1 JUMP JUMPDEST PUSH1 0x36 SLOAD PUSH1 0x1 PUSH1 0x1 PUSH1 0xA0 SHL SUB AND SWAP1 JUMP JUMPDEST PUSH1 0x14 SLOAD DUP2 JUMP JUMPDEST PUSH1 0x39 SLOAD PUSH1 0x1 PUSH1 0x1 PUSH1 0xA0 SHL SUB AND DUP2 JUMP JUMPDEST PUSH1 0x7 SLOAD SWAP1 JUMP JUMPDEST PUSH1 0x13 SLOAD SWAP1 JUMP JUMPDEST PUSH1 0x13 SLOAD DUP2 JUMP JUMPDEST PUSH1 0x22 SLOAD SWAP1 JUMP JUMPDEST PUSH1 0xF SLOAD SWAP1 JUMP JUMPDEST PUSH1 0x5 SLOAD DUP2 JUMP JUMPDEST PUSH1 0x2 SLOAD DUP2 JUMP JUMPDEST PUSH1 0x1F SLOAD DUP2 JUMP JUMPDEST PUSH1 0x30 SLOAD PUSH1 0x1 PUSH1 0x1 PUSH1 0xA0 SHL SUB AND SWAP1 JUMP JUMPDEST PUSH1 0x1F SLOAD SWAP1 JUMP JUMPDEST PUSH1 0x16 SLOAD DUP2 JUMP JUMPDEST PUSH1 0x17 SLOAD SWAP1 JUMP JUMPDEST PUSH1 0x15 SLOAD DUP2 JUMP JUMPDEST PUSH1 0xB SLOAD DUP2 JUMP JUMPDEST PUSH1 0x36 SLOAD PUSH1 0x1 PUSH1 0x1 PUSH1 0xA0 SHL SUB AND DUP2 JUMP JUMPDEST PUSH1 0x19 SLOAD SWAP1 JUMP JUMPDEST PUSH1 0x8 SLOAD SWAP1 JUMP JUMPDEST PUSH1 0x12 SLOAD DUP2 JUMP JUMPDEST PUSH2 0x1225 PUSH2 0x149A JUMP JUMPDEST DUP2 PUSH1 0x1 EQ ISZERO PUSH2 0x1234 JUMPI PUSH1 0x17 DUP2 SWAP1 SSTORE JUMPDEST DUP2 PUSH1 0x2 EQ ISZERO PUSH2 0x1243 JUMPI PUSH1 0x1A DUP2 SWAP1 SSTORE JUMPDEST DUP2 PUSH1 0x3 EQ ISZERO PUSH2 0x1252 JUMPI PUSH1 0x18 DUP2 SWAP1 SSTORE JUMPDEST DUP2 PUSH1 0x4 EQ ISZERO PUSH2 0x1261 JUMPI PUSH1 0x19 DUP2 SWAP1 SSTORE JUMPDEST DUP2 PUSH1 0x5 EQ ISZERO PUSH2 0x1270 JUMPI PUSH1 0x1B DUP2 SWAP1 SSTORE JUMPDEST DUP2 PUSH1 0x6 EQ ISZERO PUSH2 0x127F JUMPI PUSH1 0x1C DUP2 SWAP1 SSTORE JUMPDEST DUP2 PUSH1 0x7 EQ ISZERO PUSH2 0x128E JUMPI PUSH1 0x1E DUP2 SWAP1 SSTORE JUMPDEST DUP2 PUSH1 0x8 EQ ISZERO PUSH2 0xF85 JUMPI PUSH1 0x1D SSTORE POP JUMP JUMPDEST PUSH1 0x4 SLOAD SWAP1 JUMP JUMPDEST PUSH1 0x1A SLOAD SWAP1 JUMP JUMPDEST PUSH1 0xF SLOAD DUP2 JUMP JUMPDEST PUSH1 0x14 SLOAD SWAP1 JUMP JUMPDEST PUSH1 0x21 SLOAD SWAP1 JUMP JUMPDEST PUSH1 0x9 SLOAD DUP2 JUMP JUMPDEST PUSH1 0x23 SLOAD DUP2 JUMP JUMPDEST PUSH1 0x31 SLOAD PUSH1 0x1 PUSH1 0x1 PUSH1 0xA0 SHL SUB AND SWAP1 JUMP JUMPDEST PUSH1 0x2 SLOAD SWAP1 JUMP JUMPDEST PUSH2 0x12E4 PUSH2 0x149A JUMP JUMPDEST DUP3 PUSH1 0x1 EQ ISZERO PUSH2 0x12F3 JUMPI PUSH1 0x5 DUP3 SWAP1 SSTORE JUMPDEST DUP3 PUSH1 0x2 EQ ISZERO PUSH2 0x1302 JUMPI PUSH1 0x6 DUP3 SWAP1 SSTORE JUMPDEST DUP3 PUSH1 0x3 EQ ISZERO PUSH2 0x1311 JUMPI PUSH1 0x7 DUP3 SWAP1 SSTORE JUMPDEST DUP3 PUSH1 0x4 EQ ISZERO PUSH2 0x1320 JUMPI PUSH1 0x8 DUP3 SWAP1 SSTORE JUMPDEST DUP3 PUSH1 0x5 EQ ISZERO PUSH2 0x132F JUMPI PUSH1 0x9 DUP3 SWAP1 SSTORE JUMPDEST DUP3 PUSH1 0x6 EQ ISZERO PUSH2 0x133E JUMPI PUSH1 0xA DUP3 SWAP1 SSTORE JUMPDEST DUP3 PUSH1 0x7 EQ ISZERO PUSH2 0x134D JUMPI PUSH1 0xB DUP3 SWAP1 SSTORE JUMPDEST DUP3 PUSH1 0x8 EQ ISZERO PUSH2 0x135C JUMPI PUSH1 0xC DUP3 SWAP1 SSTORE JUMPDEST DUP3 PUSH1 0x9 EQ ISZERO PUSH2 0x136B JUMPI PUSH1 0xD DUP3 SWAP1 SSTORE JUMPDEST DUP3 PUSH1 0xA EQ ISZERO PUSH2 0x137A JUMPI PUSH1 0xE DUP3 SWAP1 SSTORE JUMPDEST DUP3 PUSH1 0xB EQ ISZERO PUSH2 0x1389 JUMPI PUSH1 0xF DUP3 SWAP1 SSTORE JUMPDEST DUP3 PUSH1 0xC EQ ISZERO PUSH2 0x13A1 JUMPI PUSH1 0x10 DUP1 SLOAD PUSH1 0xFF NOT AND DUP3 ISZERO ISZERO OR SWAP1 SSTORE JUMPDEST DUP3 PUSH1 0xD EQ ISZERO PUSH2 0x13B0 JUMPI PUSH1 0x11 DUP3 SWAP1 SSTORE JUMPDEST DUP3 PUSH1 0xE EQ ISZERO PUSH2 0x13BF JUMPI PUSH1 0x12 DUP3 SWAP1 SSTORE JUMPDEST DUP3 PUSH1 0xF EQ ISZERO PUSH2 0x13CE JUMPI PUSH1 0x13 DUP3 SWAP1 SSTORE JUMPDEST DUP3 PUSH1 0x10 EQ ISZERO PUSH2 0x13DD JUMPI PUSH1 0x14 DUP3 SWAP1 SSTORE JUMPDEST DUP3 PUSH1 0x11 EQ ISZERO PUSH2 0x13EC JUMPI PUSH1 0x15 DUP3 SWAP1 SSTORE JUMPDEST DUP3 PUSH1 0x12 EQ ISZERO PUSH2 0x13FB JUMPI PUSH1 0x16 DUP3 SWAP1 SSTORE JUMPDEST POP POP POP JUMP JUMPDEST PUSH1 0x1D SLOAD SWAP1 JUMP JUMPDEST PUSH2 0x140E PUSH2 0x149A JUMP JUMPDEST PUSH1 0x1 PUSH1 0x1 PUSH1 0xA0 SHL SUB DUP2 AND PUSH2 0x143D JUMPI PUSH1 0x40 MLOAD PUSH3 0x461BCD PUSH1 0xE5 SHL DUP2 MSTORE PUSH1 0x4 ADD PUSH2 0x1434 SWAP1 PUSH2 0x16B1 JUMP JUMPDEST PUSH1 0x40 MLOAD DUP1 SWAP2 SUB SWAP1 REVERT JUMPDEST PUSH2 0x1446 DUP2 PUSH2 0x14D9 JUMP JUMPDEST POP JUMP JUMPDEST PUSH1 0x21 SLOAD DUP2 JUMP JUMPDEST PUSH1 0x2E SLOAD DUP2 JUMP JUMPDEST PUSH1 0x37 SLOAD PUSH1 0x1 PUSH1 0x1 PUSH1 0xA0 SHL SUB AND SWAP1 JUMP JUMPDEST PUSH1 0xD SLOAD SWAP1 JUMP JUMPDEST PUSH1 0x7 SLOAD DUP2 JUMP JUMPDEST PUSH1 0x38 SLOAD PUSH1 0x1 PUSH1 0x1 PUSH1 0xA0 SHL SUB AND DUP2 JUMP JUMPDEST PUSH1 0x2F SLOAD PUSH1 0x1 PUSH1 0x1 PUSH1 0xA0 SHL SUB AND DUP2 JUMP JUMPDEST PUSH1 0x6 SLOAD SWAP1 JUMP JUMPDEST PUSH1 0x18 SLOAD SWAP1 JUMP JUMPDEST PUSH2 0x14A2 PUSH2 0x1529 JUMP JUMPDEST PUSH1 0x1 PUSH1 0x1 PUSH1 0xA0 SHL SUB AND PUSH2 0x14B3 PUSH2 0x10F4 JUMP JUMPDEST PUSH1 0x1 PUSH1 0x1 PUSH1 0xA0 SHL SUB AND EQ PUSH2 0xFF7 JUMPI PUSH1 0x40 MLOAD PUSH3 0x461BCD PUSH1 0xE5 SHL DUP2 MSTORE PUSH1 0x4 ADD PUSH2 0x1434 SWAP1 PUSH2 0x16F7 JUMP JUMPDEST PUSH1 0x0 DUP1 SLOAD PUSH1 0x1 PUSH1 0x1 PUSH1 0xA0 SHL SUB DUP4 DUP2 AND PUSH1 0x1 PUSH1 0x1 PUSH1 0xA0 SHL SUB NOT DUP4 AND DUP2 OR DUP5 SSTORE PUSH1 0x40 MLOAD SWAP2 SWAP1 SWAP3 AND SWAP3 DUP4 SWAP2 PUSH32 0x8BE0079C531659141344CD1FD0A4F28419497F9722A3DAAFE3B4186F6B6457E0 SWAP2 SWAP1 LOG3 POP POP JUMP JUMPDEST CALLER SWAP1 JUMP JUMPDEST DUP1 CALLDATALOAD PUSH1 0x1 PUSH1 0x1 PUSH1 0xA0 SHL SUB DUP2 AND DUP2 EQ PUSH2 0x1544 JUMPI PUSH1 0x0 DUP1 REVERT JUMPDEST SWAP2 SWAP1 POP JUMP JUMPDEST PUSH1 0x0 PUSH1 0x20 DUP3 DUP5 SUB SLT ISZERO PUSH2 0x155A JUMPI DUP1 DUP2 REVERT JUMPDEST PUSH2 0x1563 DUP3 PUSH2 0x152D JUMP JUMPDEST SWAP4 SWAP3 POP POP POP JUMP JUMPDEST PUSH1 0x0 DUP1 PUSH1 0x0 DUP1 PUSH1 0x0 DUP1 PUSH1 0x0 DUP1 PUSH1 0x0 DUP1 PUSH1 0x0 PUSH2 0x160 DUP13 DUP15 SUB SLT ISZERO PUSH2 0x158B JUMPI DUP7 DUP8 REVERT JUMPDEST PUSH2 0x1594 DUP13 PUSH2 0x152D JUMP JUMPDEST SWAP11 POP PUSH2 0x15A2 PUSH1 0x20 DUP14 ADD PUSH2 0x152D JUMP JUMPDEST SWAP10 POP PUSH2 0x15B0 PUSH1 0x40 DUP14 ADD PUSH2 0x152D JUMP JUMPDEST SWAP9 POP PUSH2 0x15BE PUSH1 0x60 DUP14 ADD PUSH2 0x152D JUMP JUMPDEST SWAP8 POP PUSH2 0x15CC PUSH1 0x80 DUP14 ADD PUSH2 0x152D JUMP JUMPDEST SWAP7 POP PUSH2 0x15DA PUSH1 0xA0 DUP14 ADD PUSH2 0x152D JUMP JUMPDEST SWAP6 POP PUSH2 0x15E8 PUSH1 0xC0 DUP14 ADD PUSH2 0x152D JUMP JUMPDEST SWAP5 POP PUSH2 0x15F6 PUSH1 0xE0 DUP14 ADD PUSH2 0x152D JUMP JUMPDEST SWAP4 POP PUSH2 0x1605 PUSH2 0x100 DUP14 ADD PUSH2 0x152D JUMP JUMPDEST SWAP3 POP PUSH2 0x1614 PUSH2 0x120 DUP14 ADD PUSH2 0x152D JUMP JUMPDEST SWAP2 POP PUSH2 0x1623 PUSH2 0x140 DUP14 ADD PUSH2 0x152D JUMP JUMPDEST SWAP1 POP SWAP3 SWAP6 SWAP9 SWAP12 POP SWAP3 SWAP6 SWAP9 SWAP12 SWAP1 SWAP4 SWAP7 SWAP10 POP JUMP JUMPDEST PUSH1 0x0 DUP1 PUSH1 0x40 DUP4 DUP6 SUB SLT ISZERO PUSH2 0x1647 JUMPI DUP2 DUP3 REVERT JUMPDEST POP POP DUP1 CALLDATALOAD SWAP3 PUSH1 0x20 SWAP1 SWAP2 ADD CALLDATALOAD SWAP2 POP JUMP JUMPDEST PUSH1 0x0 DUP1 PUSH1 0x0 PUSH1 0x60 DUP5 DUP7 SUB SLT ISZERO PUSH2 0x166A JUMPI DUP3 DUP4 REVERT JUMPDEST DUP4 CALLDATALOAD SWAP3 POP PUSH1 0x20 DUP5 ADD CALLDATALOAD SWAP2 POP PUSH1 0x40 DUP5 ADD CALLDATALOAD DUP1 ISZERO ISZERO DUP2 EQ PUSH2 0x1687 JUMPI DUP2 DUP3 REVERT JUMPDEST DUP1 SWAP2 POP POP SWAP3 POP SWAP3 POP SWAP3 JUMP JUMPDEST PUSH1 0x1 PUSH1 0x1 PUSH1 0xA0 SHL SUB SWAP2 SWAP1 SWAP2 AND DUP2 MSTORE PUSH1 0x20 ADD SWAP1 JUMP JUMPDEST SWAP1 ISZERO ISZERO DUP2 MSTORE PUSH1 0x20 ADD SWAP1 JUMP JUMPDEST PUSH1 0x20 DUP1 DUP3 MSTORE PUSH1 0x26 SWAP1 DUP3 ADD MSTORE PUSH32 0x4F776E61626C653A206E6577206F776E657220697320746865207A65726F2061 PUSH1 0x40 DUP3 ADD MSTORE PUSH6 0x646472657373 PUSH1 0xD0 SHL PUSH1 0x60 DUP3 ADD MSTORE PUSH1 0x80 ADD SWAP1 JUMP JUMPDEST PUSH1 0x20 DUP1 DUP3 MSTORE DUP2 DUP2 ADD MSTORE PUSH32 0x4F776E61626C653A2063616C6C6572206973206E6F7420746865206F776E6572 PUSH1 0x40 DUP3 ADD MSTORE PUSH1 0x60 ADD SWAP1 JUMP JUMPDEST SWAP1 DUP2 MSTORE PUSH1 0x20 ADD SWAP1 JUMP INVALID LOG2 PUSH5 0x6970667358 0x22 SLT KECCAK256 LOG0 0xB3 0xF8 0xDA CALLER SWAP3 0x5E 0xF6 CREATE2 0xEC CALLDATALOAD 0xC2 PUSH2 0xFE9 0xC MSTORE BLOCKHASH SWAP1 PUSH20 0x6371BCAFE9008CEBA454F56964736F6C63430008 STOP STOP CALLER "
				},
				"gasEstimates": {
					"creation": {
						"codeDepositCost": "1199000",
						"executionCost": "944853",
						"totalCost": "2143853"
					},
					"external": {
						"ARCHIVING_COMMIT_ROUND_DURATION()": "1163",
						"ARCHIVING_DATA_BATCH_SIZE()": "1119",
						"ARCHIVING_MAX_CONSENSUS_WORKER_COUNT()": "1141",
						"ARCHIVING_MIN_CONSENSUS_WORKER_COUNT()": "1185",
						"ARCHIVING_MIN_REP_DataValidation()": "1117",
						"ARCHIVING_MIN_REWARD_DataValidation()": "1164",
						"ARCHIVING_MIN_STAKE()": "1120",
						"ARCHIVING_REVEAL_ROUND_DURATION()": "1118",
						"AddressManager()": "1182",
						"ArchivingSystem()": "1204",
						"COMPLIANCE_COMMIT_ROUND_DURATION()": "1140",
						"COMPLIANCE_DATA_BATCH_SIZE()": "1119",
						"COMPLIANCE_MAX_CONSENSUS_WORKER_COUNT()": "1163",
						"COMPLIANCE_MIN_CONSENSUS_WORKER_COUNT()": "1119",
						"COMPLIANCE_MIN_REP_DataValidation()": "1162",
						"COMPLIANCE_MIN_REWARD_DataValidation()": "1185",
						"COMPLIANCE_MIN_STAKE()": "1118",
						"COMPLIANCE_REVEAL_ROUND_DURATION()": "1141",
						"ComplianceSystem()": "1162",
						"INDEXING_COMMIT_ROUND_DURATION()": "1140",
						"INDEXING_DATA_BATCH_SIZE()": "1161",
						"INDEXING_MAX_CONSENSUS_WORKER_COUNT()": "1183",
						"INDEXING_MIN_CONSENSUS_WORKER_COUNT()": "1140",
						"INDEXING_MIN_REP_DataValidation()": "1142",
						"INDEXING_MIN_REWARD_DataValidation()": "1164",
						"INDEXING_MIN_STAKE()": "1185",
						"INDEXING_REVEAL_ROUND_DURATION()": "1184",
						"IndexingSystem()": "1158",
						"MAX_CONTRACT_STORED_BATCHES()": "1142",
						"MAX_SUCCEEDING_NOVOTES()": "1118",
						"MAX_TOTAL_WORKERS()": "1140",
						"MAX_UPDATE_ITERATIONS()": "1119",
						"NOVOTE_REGISTRATION_WAIT_DURATION()": "1141",
						"RepManager()": "1205",
						"Reputation()": "1227",
						"RewardManager()": "1183",
						"SPOT_COMMIT_ROUND_DURATION()": "1118",
						"SPOT_DATA_BATCH_SIZE()": "1117",
						"SPOT_GLOBAL_MAX_SPOT_PER_PERIOD()": "1140",
						"SPOT_INTER_ALLOCATION_DURATION()": "1139",
						"SPOT_MAX_CONSENSUS_WORKER_COUNT()": "1162",
						"SPOT_MAX_SPOT_PER_USER_PER_PERIOD()": "1140",
						"SPOT_MIN_CONSENSUS_WORKER_COUNT()": "1183",
						"SPOT_MIN_REP_DataValidation()": "1184",
						"SPOT_MIN_REP_SpotData()": "1163",
						"SPOT_MIN_REWARD_DataValidation()": "1117",
						"SPOT_MIN_REWARD_SpotData()": "1140",
						"SPOT_MIN_STAKE()": "1121",
						"SPOT_NB_TIMEFRAMES()": "1140",
						"SPOT_REVEAL_ROUND_DURATION()": "1141",
						"SPOT_TIMEFRAME_DURATION()": "1139",
						"SPOT_TOGGLE_ENABLED()": "1153",
						"SpottingSystem()": "1204",
						"StakeManager()": "1182",
						"VOTE_QUORUM()": "1139",
						"destroyContract()": "infinite",
						"getAddressManager()": "1227",
						"getArchivingSystem()": "1204",
						"getComplianceSystem()": "1181",
						"getExordeToken()": "1161",
						"getIndexingSystem()": "1160",
						"getMaxTotalWorkers()": "1163",
						"getRepManager()": "1184",
						"getReputationSystem()": "1204",
						"getRewardManager()": "1207",
						"getSpottingSystem()": "1160",
						"getStakeManager()": "1225",
						"getVoteQuorum()": "1184",
						"get_ARCHIVING_COMMIT_ROUND_DURATION()": "1141",
						"get_ARCHIVING_DATA_BATCH_SIZE()": "1143",
						"get_ARCHIVING_MAX_CONSENSUS_WORKER_COUNT()": "1185",
						"get_ARCHIVING_MIN_CONSENSUS_WORKER_COUNT()": "1119",
						"get_ARCHIVING_MIN_REP_DataValidation()": "1120",
						"get_ARCHIVING_MIN_REWARD_DataValidation()": "1161",
						"get_ARCHIVING_MIN_STAKE()": "1163",
						"get_ARCHIVING_REVEAL_ROUND_DURATION()": "1185",
						"get_COMPLIANCE_COMMIT_ROUND_DURATION()": "1184",
						"get_COMPLIANCE_DATA_BATCH_SIZE()": "1163",
						"get_COMPLIANCE_MAX_CONSENSUS_WORKER_COUNT()": "1184",
						"get_COMPLIANCE_MIN_CONSENSUS_WORKER_COUNT()": "1182",
						"get_COMPLIANCE_MIN_REP_DataValidation()": "1183",
						"get_COMPLIANCE_MIN_REWARD_DataValidation()": "1139",
						"get_COMPLIANCE_MIN_STAKE()": "1117",
						"get_COMPLIANCE_REVEAL_ROUND_DURATION()": "1120",
						"get_INDEXING_COMMIT_ROUND_DURATION()": "1164",
						"get_INDEXING_DATA_BATCH_SIZE()": "1119",
						"get_INDEXING_MAX_CONSENSUS_WORKER_COUNT()": "1183",
						"get_INDEXING_MIN_CONSENSUS_WORKER_COUNT()": "1118",
						"get_INDEXING_MIN_REP_DataValidation()": "1162",
						"get_INDEXING_MIN_REWARD_DataValidation()": "1163",
						"get_INDEXING_MIN_STAKE()": "1162",
						"get_INDEXING_REVEAL_ROUND_DURATION()": "1120",
						"get_MAX_CONTRACT_STORED_BATCHES()": "1184",
						"get_MAX_SUCCEEDING_NOVOTES()": "1185",
						"get_MAX_UPDATE_ITERATIONS()": "1162",
						"get_NOVOTE_REGISTRATION_WAIT_DURATION()": "1164",
						"get_SPOT_COMMIT_ROUND_DURATION()": "1119",
						"get_SPOT_DATA_BATCH_SIZE()": "1163",
						"get_SPOT_GLOBAL_MAX_SPOT_PER_PERIOD()": "1185",
						"get_SPOT_INTER_ALLOCATION_DURATION()": "1184",
						"get_SPOT_MAX_CONSENSUS_WORKER_COUNT()": "1118",
						"get_SPOT_MAX_SPOT_PER_USER_PER_PERIOD()": "1118",
						"get_SPOT_MIN_CONSENSUS_WORKER_COUNT()": "1184",
						"get_SPOT_MIN_REP_DataValidation()": "1142",
						"get_SPOT_MIN_REP_SpotData()": "1119",
						"get_SPOT_MIN_REWARD_DataValidation()": "1161",
						"get_SPOT_MIN_REWARD_SpotData()": "1141",
						"get_SPOT_MIN_STAKE()": "1160",
						"get_SPOT_NB_TIMEFRAMES()": "1161",
						"get_SPOT_REVEAL_ROUND_DURATION()": "1141",
						"get_SPOT_TIMEFRAME_DURATION()": "1186",
						"get_SPOT_TOGGLE_ENABLED()": "1176",
						"getsFuelSystem()": "1161",
						"owner()": "1184",
						"renounceOwnership()": "infinite",
						"sFuel()": "1226",
						"token()": "1180",
						"transferOwnership(address)": "23856",
						"updateArchivingParameters(uint256,uint256)": "161595",
						"updateComplianceParameters(uint256,uint256)": "161607",
						"updateContractsAddresses(address,address,address,address,address,address,address,address,address,address,address)": "infinite",
						"updateGeneralParameters(uint256,uint256)": "81423",
						"updateIndexingParameters(uint256,uint256)": "161608",
						"updateSpottingParameters(uint256,uint256,bool)": "362806"
					}
				},
				"methodIdentifiers": {
					"ARCHIVING_COMMIT_ROUND_DURATION()": "531780bb",
					"ARCHIVING_DATA_BATCH_SIZE()": "4ed60b2a",
					"ARCHIVING_MAX_CONSENSUS_WORKER_COUNT()": "ac846e79",
					"ARCHIVING_MIN_CONSENSUS_WORKER_COUNT()": "5d1c3182",
					"ARCHIVING_MIN_REP_DataValidation()": "f5bec1ad",
					"ARCHIVING_MIN_REWARD_DataValidation()": "08e7f0db",
					"ARCHIVING_MIN_STAKE()": "0a5a4c20",
					"ARCHIVING_REVEAL_ROUND_DURATION()": "8360034d",
					"AddressManager()": "7a34da67",
					"ArchivingSystem()": "b6c6ec02",
					"COMPLIANCE_COMMIT_ROUND_DURATION()": "6785f847",
					"COMPLIANCE_DATA_BATCH_SIZE()": "175bf630",
					"COMPLIANCE_MAX_CONSENSUS_WORKER_COUNT()": "31911c91",
					"COMPLIANCE_MIN_CONSENSUS_WORKER_COUNT()": "728d23ab",
					"COMPLIANCE_MIN_REP_DataValidation()": "6a8e0ece",
					"COMPLIANCE_MIN_REWARD_DataValidation()": "34c37e21",
					"COMPLIANCE_MIN_STAKE()": "42df5641",
					"COMPLIANCE_REVEAL_ROUND_DURATION()": "9a175938",
					"ComplianceSystem()": "06606d67",
					"INDEXING_COMMIT_ROUND_DURATION()": "e9704f81",
					"INDEXING_DATA_BATCH_SIZE()": "c95b53c5",
					"INDEXING_MAX_CONSENSUS_WORKER_COUNT()": "f4e20b9c",
					"INDEXING_MIN_CONSENSUS_WORKER_COUNT()": "444d62b6",
					"INDEXING_MIN_REP_DataValidation()": "2be05960",
					"INDEXING_MIN_REWARD_DataValidation()": "2bf8abb3",
					"INDEXING_MIN_STAKE()": "779231b2",
					"INDEXING_REVEAL_ROUND_DURATION()": "7e8603e9",
					"IndexingSystem()": "fbf14851",
					"MAX_CONTRACT_STORED_BATCHES()": "4e5638f5",
					"MAX_SUCCEEDING_NOVOTES()": "d4efd2ba",
					"MAX_TOTAL_WORKERS()": "a327181b",
					"MAX_UPDATE_ITERATIONS()": "90d10b6e",
					"NOVOTE_REGISTRATION_WAIT_DURATION()": "d0eed967",
					"RepManager()": "29a47bc7",
					"Reputation()": "9904ed8d",
					"RewardManager()": "51912f29",
					"SPOT_COMMIT_ROUND_DURATION()": "e6fdd4c0",
					"SPOT_DATA_BATCH_SIZE()": "c6eacbfe",
					"SPOT_GLOBAL_MAX_SPOT_PER_PERIOD()": "e0de3d7c",
					"SPOT_INTER_ALLOCATION_DURATION()": "e5f14824",
					"SPOT_MAX_CONSENSUS_WORKER_COUNT()": "a35b3b09",
					"SPOT_MAX_SPOT_PER_USER_PER_PERIOD()": "bf09ff70",
					"SPOT_MIN_CONSENSUS_WORKER_COUNT()": "fb50a473",
					"SPOT_MIN_REP_DataValidation()": "86b0b4c5",
					"SPOT_MIN_REP_SpotData()": "5cb361f6",
					"SPOT_MIN_REWARD_DataValidation()": "8724450f",
					"SPOT_MIN_REWARD_SpotData()": "d81109ce",
					"SPOT_MIN_STAKE()": "00653ff8",
					"SPOT_NB_TIMEFRAMES()": "b6118450",
					"SPOT_REVEAL_ROUND_DURATION()": "1d0fb88e",
					"SPOT_TIMEFRAME_DURATION()": "87ce6311",
					"SPOT_TOGGLE_ENABLED()": "36fc43fc",
					"SpottingSystem()": "d8645d37",
					"StakeManager()": "83cc6ef2",
					"VOTE_QUORUM()": "c7761fab",
					"destroyContract()": "092a5cce",
					"getAddressManager()": "5492f302",
					"getArchivingSystem()": "463444b7",
					"getComplianceSystem()": "f67362fe",
					"getExordeToken()": "2e2f93f3",
					"getIndexingSystem()": "7a0ec25b",
					"getMaxTotalWorkers()": "98a54e2b",
					"getRepManager()": "0855d151",
					"getReputationSystem()": "e992dca7",
					"getRewardManager()": "04e76c8f",
					"getSpottingSystem()": "b45d9d8d",
					"getStakeManager()": "ca64f9e7",
					"getVoteQuorum()": "ea19733c",
					"get_ARCHIVING_COMMIT_ROUND_DURATION()": "9279e9d4",
					"get_ARCHIVING_DATA_BATCH_SIZE()": "0363a1bf",
					"get_ARCHIVING_MAX_CONSENSUS_WORKER_COUNT()": "3968ec84",
					"get_ARCHIVING_MIN_CONSENSUS_WORKER_COUNT()": "995adbdd",
					"get_ARCHIVING_MIN_REP_DataValidation()": "49b46787",
					"get_ARCHIVING_MIN_REWARD_DataValidation()": "893b2a76",
					"get_ARCHIVING_MIN_STAKE()": "b1562f67",
					"get_ARCHIVING_REVEAL_ROUND_DURATION()": "29e3dd1f",
					"get_COMPLIANCE_COMMIT_ROUND_DURATION()": "484df80a",
					"get_COMPLIANCE_DATA_BATCH_SIZE()": "d1a89a46",
					"get_COMPLIANCE_MAX_CONSENSUS_WORKER_COUNT()": "dc7048c1",
					"get_COMPLIANCE_MIN_CONSENSUS_WORKER_COUNT()": "fff5f946",
					"get_COMPLIANCE_MIN_REP_DataValidation()": "89b212d3",
					"get_COMPLIANCE_MIN_REWARD_DataValidation()": "f116c4e0",
					"get_COMPLIANCE_MIN_STAKE()": "e3dfc0b2",
					"get_COMPLIANCE_REVEAL_ROUND_DURATION()": "2b0afab3",
					"get_INDEXING_COMMIT_ROUND_DURATION()": "90cc59eb",
					"get_INDEXING_DATA_BATCH_SIZE()": "cb3a2a88",
					"get_INDEXING_MAX_CONSENSUS_WORKER_COUNT()": "e68c9c30",
					"get_INDEXING_MIN_CONSENSUS_WORKER_COUNT()": "a1a4575a",
					"get_INDEXING_MIN_REP_DataValidation()": "849f9f0a",
					"get_INDEXING_MIN_REWARD_DataValidation()": "386d0976",
					"get_INDEXING_MIN_STAKE()": "bf34f749",
					"get_INDEXING_REVEAL_ROUND_DURATION()": "8a13725d",
					"get_MAX_CONTRACT_STORED_BATCHES()": "e3115d3c",
					"get_MAX_SUCCEEDING_NOVOTES()": "9fb491f6",
					"get_MAX_UPDATE_ITERATIONS()": "7d630cb0",
					"get_NOVOTE_REGISTRATION_WAIT_DURATION()": "0f1f0ffe",
					"get_SPOT_COMMIT_ROUND_DURATION()": "3692616a",
					"get_SPOT_DATA_BATCH_SIZE()": "9d1f2ada",
					"get_SPOT_GLOBAL_MAX_SPOT_PER_PERIOD()": "b38e885e",
					"get_SPOT_INTER_ALLOCATION_DURATION()": "c4a306f8",
					"get_SPOT_MAX_CONSENSUS_WORKER_COUNT()": "dfeceed7",
					"get_SPOT_MAX_SPOT_PER_USER_PER_PERIOD()": "be250988",
					"get_SPOT_MIN_CONSENSUS_WORKER_COUNT()": "bd40ef4c",
					"get_SPOT_MIN_REP_DataValidation()": "0b08bfd9",
					"get_SPOT_MIN_REP_SpotData()": "abb10b9b",
					"get_SPOT_MIN_REWARD_DataValidation()": "f80de0a0",
					"get_SPOT_MIN_REWARD_SpotData()": "30c0bb79",
					"get_SPOT_MIN_STAKE()": "ff622dda",
					"get_SPOT_NB_TIMEFRAMES()": "e66d543a",
					"get_SPOT_REVEAL_ROUND_DURATION()": "72e54030",
					"get_SPOT_TIMEFRAME_DURATION()": "0f78cc76",
					"get_SPOT_TOGGLE_ENABLED()": "4e87c5a8",
					"getsFuelSystem()": "557c1abe",
					"owner()": "8da5cb5b",
					"renounceOwnership()": "715018a6",
					"sFuel()": "ab43e78d",
					"token()": "fc0c546a",
					"transferOwnership(address)": "f2fde38b",
					"updateArchivingParameters(uint256,uint256)": "55a35f5c",
					"updateComplianceParameters(uint256,uint256)": "e168063c",
					"updateContractsAddresses(address,address,address,address,address,address,address,address,address,address,address)": "2d09a8e3",
					"updateGeneralParameters(uint256,uint256)": "61879075",
					"updateIndexingParameters(uint256,uint256)": "75dc6130",
					"updateSpottingParameters(uint256,uint256,bool)": "ee37f4a6"
				}
			},
			"storageLayout": {
				"storage": [
					{
						"astId": 7,
						"contract": "worksystems/Parameters.sol:Parameters",
						"label": "_owner",
						"offset": 0,
						"slot": "0",
						"type": "t_address"
					},
					{
						"astId": 1040,
						"contract": "worksystems/Parameters.sol:Parameters",
						"label": "MAX_TOTAL_WORKERS",
						"offset": 0,
						"slot": "1",
						"type": "t_uint256"
					},
					{
						"astId": 1043,
						"contract": "worksystems/Parameters.sol:Parameters",
						"label": "VOTE_QUORUM",
						"offset": 0,
						"slot": "2",
						"type": "t_uint256"
					},
					{
						"astId": 1046,
						"contract": "worksystems/Parameters.sol:Parameters",
						"label": "MAX_UPDATE_ITERATIONS",
						"offset": 0,
						"slot": "3",
						"type": "t_uint256"
					},
					{
						"astId": 1049,
						"contract": "worksystems/Parameters.sol:Parameters",
						"label": "MAX_CONTRACT_STORED_BATCHES",
						"offset": 0,
						"slot": "4",
						"type": "t_uint256"
					},
					{
						"astId": 1052,
						"contract": "worksystems/Parameters.sol:Parameters",
						"label": "SPOT_DATA_BATCH_SIZE",
						"offset": 0,
						"slot": "5",
						"type": "t_uint256"
					},
					{
						"astId": 1060,
						"contract": "worksystems/Parameters.sol:Parameters",
						"label": "SPOT_MIN_STAKE",
						"offset": 0,
						"slot": "6",
						"type": "t_uint256"
					},
					{
						"astId": 1063,
						"contract": "worksystems/Parameters.sol:Parameters",
						"label": "SPOT_MIN_CONSENSUS_WORKER_COUNT",
						"offset": 0,
						"slot": "7",
						"type": "t_uint256"
					},
					{
						"astId": 1066,
						"contract": "worksystems/Parameters.sol:Parameters",
						"label": "SPOT_MAX_CONSENSUS_WORKER_COUNT",
						"offset": 0,
						"slot": "8",
						"type": "t_uint256"
					},
					{
						"astId": 1069,
						"contract": "worksystems/Parameters.sol:Parameters",
						"label": "SPOT_COMMIT_ROUND_DURATION",
						"offset": 0,
						"slot": "9",
						"type": "t_uint256"
					},
					{
						"astId": 1072,
						"contract": "worksystems/Parameters.sol:Parameters",
						"label": "SPOT_REVEAL_ROUND_DURATION",
						"offset": 0,
						"slot": "10",
						"type": "t_uint256"
					},
					{
						"astId": 1080,
						"contract": "worksystems/Parameters.sol:Parameters",
						"label": "SPOT_MIN_REWARD_SpotData",
						"offset": 0,
						"slot": "11",
						"type": "t_uint256"
					},
					{
						"astId": 1088,
						"contract": "worksystems/Parameters.sol:Parameters",
						"label": "SPOT_MIN_REP_SpotData",
						"offset": 0,
						"slot": "12",
						"type": "t_uint256"
					},
					{
						"astId": 1096,
						"contract": "worksystems/Parameters.sol:Parameters",
						"label": "SPOT_MIN_REWARD_DataValidation",
						"offset": 0,
						"slot": "13",
						"type": "t_uint256"
					},
					{
						"astId": 1104,
						"contract": "worksystems/Parameters.sol:Parameters",
						"label": "SPOT_MIN_REP_DataValidation",
						"offset": 0,
						"slot": "14",
						"type": "t_uint256"
					},
					{
						"astId": 1107,
						"contract": "worksystems/Parameters.sol:Parameters",
						"label": "SPOT_INTER_ALLOCATION_DURATION",
						"offset": 0,
						"slot": "15",
						"type": "t_uint256"
					},
					{
						"astId": 1110,
						"contract": "worksystems/Parameters.sol:Parameters",
						"label": "SPOT_TOGGLE_ENABLED",
						"offset": 0,
						"slot": "16",
						"type": "t_bool"
					},
					{
						"astId": 1115,
						"contract": "worksystems/Parameters.sol:Parameters",
						"label": "SPOT_TIMEFRAME_DURATION",
						"offset": 0,
						"slot": "17",
						"type": "t_uint256"
					},
					{
						"astId": 1118,
						"contract": "worksystems/Parameters.sol:Parameters",
						"label": "SPOT_GLOBAL_MAX_SPOT_PER_PERIOD",
						"offset": 0,
						"slot": "18",
						"type": "t_uint256"
					},
					{
						"astId": 1121,
						"contract": "worksystems/Parameters.sol:Parameters",
						"label": "SPOT_MAX_SPOT_PER_USER_PER_PERIOD",
						"offset": 0,
						"slot": "19",
						"type": "t_uint256"
					},
					{
						"astId": 1124,
						"contract": "worksystems/Parameters.sol:Parameters",
						"label": "SPOT_NB_TIMEFRAMES",
						"offset": 0,
						"slot": "20",
						"type": "t_uint256"
					},
					{
						"astId": 1127,
						"contract": "worksystems/Parameters.sol:Parameters",
						"label": "MAX_SUCCEEDING_NOVOTES",
						"offset": 0,
						"slot": "21",
						"type": "t_uint256"
					},
					{
						"astId": 1130,
						"contract": "worksystems/Parameters.sol:Parameters",
						"label": "NOVOTE_REGISTRATION_WAIT_DURATION",
						"offset": 0,
						"slot": "22",
						"type": "t_uint256"
					},
					{
						"astId": 1133,
						"contract": "worksystems/Parameters.sol:Parameters",
						"label": "COMPLIANCE_DATA_BATCH_SIZE",
						"offset": 0,
						"slot": "23",
						"type": "t_uint256"
					},
					{
						"astId": 1136,
						"contract": "worksystems/Parameters.sol:Parameters",
						"label": "COMPLIANCE_MIN_CONSENSUS_WORKER_COUNT",
						"offset": 0,
						"slot": "24",
						"type": "t_uint256"
					},
					{
						"astId": 1139,
						"contract": "worksystems/Parameters.sol:Parameters",
						"label": "COMPLIANCE_MAX_CONSENSUS_WORKER_COUNT",
						"offset": 0,
						"slot": "25",
						"type": "t_uint256"
					},
					{
						"astId": 1147,
						"contract": "worksystems/Parameters.sol:Parameters",
						"label": "COMPLIANCE_MIN_STAKE",
						"offset": 0,
						"slot": "26",
						"type": "t_uint256"
					},
					{
						"astId": 1150,
						"contract": "worksystems/Parameters.sol:Parameters",
						"label": "COMPLIANCE_COMMIT_ROUND_DURATION",
						"offset": 0,
						"slot": "27",
						"type": "t_uint256"
					},
					{
						"astId": 1153,
						"contract": "worksystems/Parameters.sol:Parameters",
						"label": "COMPLIANCE_REVEAL_ROUND_DURATION",
						"offset": 0,
						"slot": "28",
						"type": "t_uint256"
					},
					{
						"astId": 1161,
						"contract": "worksystems/Parameters.sol:Parameters",
						"label": "COMPLIANCE_MIN_REWARD_DataValidation",
						"offset": 0,
						"slot": "29",
						"type": "t_uint256"
					},
					{
						"astId": 1169,
						"contract": "worksystems/Parameters.sol:Parameters",
						"label": "COMPLIANCE_MIN_REP_DataValidation",
						"offset": 0,
						"slot": "30",
						"type": "t_uint256"
					},
					{
						"astId": 1172,
						"contract": "worksystems/Parameters.sol:Parameters",
						"label": "INDEXING_DATA_BATCH_SIZE",
						"offset": 0,
						"slot": "31",
						"type": "t_uint256"
					},
					{
						"astId": 1175,
						"contract": "worksystems/Parameters.sol:Parameters",
						"label": "INDEXING_MIN_CONSENSUS_WORKER_COUNT",
						"offset": 0,
						"slot": "32",
						"type": "t_uint256"
					},
					{
						"astId": 1178,
						"contract": "worksystems/Parameters.sol:Parameters",
						"label": "INDEXING_MAX_CONSENSUS_WORKER_COUNT",
						"offset": 0,
						"slot": "33",
						"type": "t_uint256"
					},
					{
						"astId": 1186,
						"contract": "worksystems/Parameters.sol:Parameters",
						"label": "INDEXING_MIN_STAKE",
						"offset": 0,
						"slot": "34",
						"type": "t_uint256"
					},
					{
						"astId": 1189,
						"contract": "worksystems/Parameters.sol:Parameters",
						"label": "INDEXING_COMMIT_ROUND_DURATION",
						"offset": 0,
						"slot": "35",
						"type": "t_uint256"
					},
					{
						"astId": 1192,
						"contract": "worksystems/Parameters.sol:Parameters",
						"label": "INDEXING_REVEAL_ROUND_DURATION",
						"offset": 0,
						"slot": "36",
						"type": "t_uint256"
					},
					{
						"astId": 1200,
						"contract": "worksystems/Parameters.sol:Parameters",
						"label": "INDEXING_MIN_REWARD_DataValidation",
						"offset": 0,
						"slot": "37",
						"type": "t_uint256"
					},
					{
						"astId": 1208,
						"contract": "worksystems/Parameters.sol:Parameters",
						"label": "INDEXING_MIN_REP_DataValidation",
						"offset": 0,
						"slot": "38",
						"type": "t_uint256"
					},
					{
						"astId": 1211,
						"contract": "worksystems/Parameters.sol:Parameters",
						"label": "ARCHIVING_DATA_BATCH_SIZE",
						"offset": 0,
						"slot": "39",
						"type": "t_uint256"
					},
					{
						"astId": 1214,
						"contract": "worksystems/Parameters.sol:Parameters",
						"label": "ARCHIVING_MIN_CONSENSUS_WORKER_COUNT",
						"offset": 0,
						"slot": "40",
						"type": "t_uint256"
					},
					{
						"astId": 1217,
						"contract": "worksystems/Parameters.sol:Parameters",
						"label": "ARCHIVING_MAX_CONSENSUS_WORKER_COUNT",
						"offset": 0,
						"slot": "41",
						"type": "t_uint256"
					},
					{
						"astId": 1225,
						"contract": "worksystems/Parameters.sol:Parameters",
						"label": "ARCHIVING_MIN_STAKE",
						"offset": 0,
						"slot": "42",
						"type": "t_uint256"
					},
					{
						"astId": 1228,
						"contract": "worksystems/Parameters.sol:Parameters",
						"label": "ARCHIVING_COMMIT_ROUND_DURATION",
						"offset": 0,
						"slot": "43",
						"type": "t_uint256"
					},
					{
						"astId": 1231,
						"contract": "worksystems/Parameters.sol:Parameters",
						"label": "ARCHIVING_REVEAL_ROUND_DURATION",
						"offset": 0,
						"slot": "44",
						"type": "t_uint256"
					},
					{
						"astId": 1239,
						"contract": "worksystems/Parameters.sol:Parameters",
						"label": "ARCHIVING_MIN_REWARD_DataValidation",
						"offset": 0,
						"slot": "45",
						"type": "t_uint256"
					},
					{
						"astId": 1247,
						"contract": "worksystems/Parameters.sol:Parameters",
						"label": "ARCHIVING_MIN_REP_DataValidation",
						"offset": 0,
						"slot": "46",
						"type": "t_uint256"
					},
					{
						"astId": 1249,
						"contract": "worksystems/Parameters.sol:Parameters",
						"label": "token",
						"offset": 0,
						"slot": "47",
						"type": "t_address"
					},
					{
						"astId": 1251,
						"contract": "worksystems/Parameters.sol:Parameters",
						"label": "StakeManager",
						"offset": 0,
						"slot": "48",
						"type": "t_address"
					},
					{
						"astId": 1253,
						"contract": "worksystems/Parameters.sol:Parameters",
						"label": "Reputation",
						"offset": 0,
						"slot": "49",
						"type": "t_address"
					},
					{
						"astId": 1255,
						"contract": "worksystems/Parameters.sol:Parameters",
						"label": "RepManager",
						"offset": 0,
						"slot": "50",
						"type": "t_address"
					},
					{
						"astId": 1257,
						"contract": "worksystems/Parameters.sol:Parameters",
						"label": "RewardManager",
						"offset": 0,
						"slot": "51",
						"type": "t_address"
					},
					{
						"astId": 1259,
						"contract": "worksystems/Parameters.sol:Parameters",
						"label": "AddressManager",
						"offset": 0,
						"slot": "52",
						"type": "t_address"
					},
					{
						"astId": 1261,
						"contract": "worksystems/Parameters.sol:Parameters",
						"label": "sFuel",
						"offset": 0,
						"slot": "53",
						"type": "t_address"
					},
					{
						"astId": 1263,
						"contract": "worksystems/Parameters.sol:Parameters",
						"label": "SpottingSystem",
						"offset": 0,
						"slot": "54",
						"type": "t_address"
					},
					{
						"astId": 1265,
						"contract": "worksystems/Parameters.sol:Parameters",
						"label": "ComplianceSystem",
						"offset": 0,
						"slot": "55",
						"type": "t_address"
					},
					{
						"astId": 1267,
						"contract": "worksystems/Parameters.sol:Parameters",
						"label": "IndexingSystem",
						"offset": 0,
						"slot": "56",
						"type": "t_address"
					},
					{
						"astId": 1269,
						"contract": "worksystems/Parameters.sol:Parameters",
						"label": "ArchivingSystem",
						"offset": 0,
						"slot": "57",
						"type": "t_address"
					}
				],
				"types": {
					"t_address": {
						"encoding": "inplace",
						"label": "address",
						"numberOfBytes": "20"
					},
					"t_bool": {
						"encoding": "inplace",
						"label": "bool",
						"numberOfBytes": "1"
					},
					"t_uint256": {
						"encoding": "inplace",
						"label": "uint256",
						"numberOfBytes": "32"
					}
				}
			},
			"userdoc": {
				"kind": "user",
				"methods": {},
				"version": 1
			}
		}
	}
}