{
	"contracts/worksystems/AddressManager.sol": {
		"AddressManager": {
			"abi": [
				{
					"anonymous": false,
					"inputs": [
						{
							"indexed": true,
							"internalType": "address",
							"name": "account",
							"type": "address"
						},
						{
							"indexed": false,
							"internalType": "address",
							"name": "account2",
							"type": "address"
						}
					],
					"name": "AddressAddedByMaster",
					"type": "event"
				},
				{
					"anonymous": false,
					"inputs": [
						{
							"indexed": true,
							"internalType": "address",
							"name": "account",
							"type": "address"
						},
						{
							"indexed": false,
							"internalType": "address",
							"name": "account2",
							"type": "address"
						}
					],
					"name": "AddressAddedByWorker",
					"type": "event"
				},
				{
					"anonymous": false,
					"inputs": [
						{
							"indexed": true,
							"internalType": "address",
							"name": "account",
							"type": "address"
						},
						{
							"indexed": false,
							"internalType": "address",
							"name": "account2",
							"type": "address"
						}
					],
					"name": "AddressRemovedByMaster",
					"type": "event"
				},
				{
					"anonymous": false,
					"inputs": [
						{
							"indexed": true,
							"internalType": "address",
							"name": "account",
							"type": "address"
						},
						{
							"indexed": false,
							"internalType": "address",
							"name": "account2",
							"type": "address"
						}
					],
					"name": "AddressRemovedByWorker",
					"type": "event"
				},
				{
					"anonymous": false,
					"inputs": [
						{
							"indexed": true,
							"internalType": "address",
							"name": "previousOwner",
							"type": "address"
						},
						{
							"indexed": true,
							"internalType": "address",
							"name": "newOwner",
							"type": "address"
						}
					],
					"name": "OwnershipTransferred",
					"type": "event"
				},
				{
					"anonymous": false,
					"inputs": [
						{
							"indexed": true,
							"internalType": "address",
							"name": "account",
							"type": "address"
						},
						{
							"indexed": false,
							"internalType": "address",
							"name": "account2",
							"type": "address"
						}
					],
					"name": "ReputationTransfered",
					"type": "event"
				},
				{
					"anonymous": false,
					"inputs": [
						{
							"indexed": true,
							"internalType": "address",
							"name": "account",
							"type": "address"
						},
						{
							"indexed": false,
							"internalType": "address",
							"name": "account2",
							"type": "address"
						}
					],
					"name": "RewardsTransfered",
					"type": "event"
				},
				{
					"inputs": [
						{
							"internalType": "address",
							"name": "_master",
							"type": "address"
						},
						{
							"internalType": "address",
							"name": "_address",
							"type": "address"
						}
					],
					"name": "AreMasterSubLinked",
					"outputs": [
						{
							"internalType": "bool",
							"name": "",
							"type": "bool"
						}
					],
					"stateMutability": "view",
					"type": "function"
				},
				{
					"inputs": [
						{
							"internalType": "address",
							"name": "_master",
							"type": "address"
						}
					],
					"name": "ClaimMaster",
					"outputs": [],
					"stateMutability": "nonpayable",
					"type": "function"
				},
				{
					"inputs": [
						{
							"internalType": "address",
							"name": "_worker",
							"type": "address"
						}
					],
					"name": "FetchHighestMaster",
					"outputs": [
						{
							"internalType": "address",
							"name": "",
							"type": "address"
						}
					],
					"stateMutability": "view",
					"type": "function"
				},
				{
					"inputs": [
						{
							"internalType": "address[]",
							"name": "_addresses",
							"type": "address[]"
						}
					],
					"name": "MasterClaimManySubs",
					"outputs": [],
					"stateMutability": "nonpayable",
					"type": "function"
				},
				{
					"inputs": [
						{
							"internalType": "address",
							"name": "_address",
							"type": "address"
						}
					],
					"name": "MasterClaimSub",
					"outputs": [],
					"stateMutability": "nonpayable",
					"type": "function"
				},
				{
					"inputs": [
						{
							"internalType": "address",
							"name": "",
							"type": "address"
						},
						{
							"internalType": "address",
							"name": "",
							"type": "address"
						}
					],
					"name": "MasterClaimingWorker",
					"outputs": [
						{
							"internalType": "bool",
							"name": "",
							"type": "bool"
						}
					],
					"stateMutability": "view",
					"type": "function"
				},
				{
					"inputs": [
						{
							"internalType": "address[]",
							"name": "_addresses",
							"type": "address[]"
						}
					],
					"name": "MasterRemoveManySubs",
					"outputs": [],
					"stateMutability": "nonpayable",
					"type": "function"
				},
				{
					"inputs": [
						{
							"internalType": "address",
							"name": "_address",
							"type": "address"
						}
					],
					"name": "MasterRemoveSub",
					"outputs": [],
					"stateMutability": "nonpayable",
					"type": "function"
				},
				{
					"inputs": [
						{
							"internalType": "address",
							"name": "",
							"type": "address"
						},
						{
							"internalType": "uint256",
							"name": "",
							"type": "uint256"
						}
					],
					"name": "MasterToSubsMap",
					"outputs": [
						{
							"internalType": "address",
							"name": "",
							"type": "address"
						}
					],
					"stateMutability": "view",
					"type": "function"
				},
				{
					"inputs": [
						{
							"internalType": "address",
							"name": "_master",
							"type": "address"
						}
					],
					"name": "RemoveMaster",
					"outputs": [],
					"stateMutability": "nonpayable",
					"type": "function"
				},
				{
					"inputs": [],
					"name": "RepManager",
					"outputs": [
						{
							"internalType": "contract IRepManager",
							"name": "",
							"type": "address"
						}
					],
					"stateMutability": "view",
					"type": "function"
				},
				{
					"inputs": [],
					"name": "Reputation",
					"outputs": [
						{
							"internalType": "contract IReputation",
							"name": "",
							"type": "address"
						}
					],
					"stateMutability": "view",
					"type": "function"
				},
				{
					"inputs": [],
					"name": "RewardManager",
					"outputs": [
						{
							"internalType": "contract IRewardManager",
							"name": "",
							"type": "address"
						}
					],
					"stateMutability": "view",
					"type": "function"
				},
				{
					"inputs": [
						{
							"internalType": "address",
							"name": "",
							"type": "address"
						}
					],
					"name": "SubToMasterMap",
					"outputs": [
						{
							"internalType": "address",
							"name": "",
							"type": "address"
						}
					],
					"stateMutability": "view",
					"type": "function"
				},
				{
					"inputs": [
						{
							"internalType": "address",
							"name": "",
							"type": "address"
						},
						{
							"internalType": "address",
							"name": "",
							"type": "address"
						}
					],
					"name": "WorkerClaimingMaster",
					"outputs": [
						{
							"internalType": "bool",
							"name": "",
							"type": "bool"
						}
					],
					"stateMutability": "view",
					"type": "function"
				},
				{
					"inputs": [
						{
							"internalType": "address",
							"name": "_worker",
							"type": "address"
						}
					],
					"name": "getMaster",
					"outputs": [
						{
							"internalType": "address",
							"name": "",
							"type": "address"
						}
					],
					"stateMutability": "view",
					"type": "function"
				},
				{
					"inputs": [
						{
							"internalType": "address",
							"name": "_master",
							"type": "address"
						}
					],
					"name": "getMasterSubs",
					"outputs": [
						{
							"internalType": "address[]",
							"name": "",
							"type": "address[]"
						}
					],
					"stateMutability": "view",
					"type": "function"
				},
				{
					"inputs": [
						{
							"internalType": "address",
							"name": "_master",
							"type": "address"
						},
						{
							"internalType": "address",
							"name": "_address",
							"type": "address"
						}
					],
					"name": "isMasterOf",
					"outputs": [
						{
							"internalType": "bool",
							"name": "",
							"type": "bool"
						}
					],
					"stateMutability": "view",
					"type": "function"
				},
				{
					"inputs": [
						{
							"internalType": "address",
							"name": "_master",
							"type": "address"
						}
					],
					"name": "isMasterOfMe",
					"outputs": [
						{
							"internalType": "bool",
							"name": "",
							"type": "bool"
						}
					],
					"stateMutability": "view",
					"type": "function"
				},
				{
					"inputs": [
						{
							"internalType": "address",
							"name": "_worker",
							"type": "address"
						},
						{
							"internalType": "address",
							"name": "_master",
							"type": "address"
						}
					],
					"name": "isSubInMasterArray",
					"outputs": [
						{
							"internalType": "bool",
							"name": "",
							"type": "bool"
						}
					],
					"stateMutability": "view",
					"type": "function"
				},
				{
					"inputs": [
						{
							"internalType": "address",
							"name": "_master",
							"type": "address"
						},
						{
							"internalType": "address",
							"name": "_address",
							"type": "address"
						}
					],
					"name": "isSubWorkerOf",
					"outputs": [
						{
							"internalType": "bool",
							"name": "",
							"type": "bool"
						}
					],
					"stateMutability": "view",
					"type": "function"
				},
				{
					"inputs": [
						{
							"internalType": "address",
							"name": "_worker",
							"type": "address"
						}
					],
					"name": "isSubWorkerOfMe",
					"outputs": [
						{
							"internalType": "bool",
							"name": "",
							"type": "bool"
						}
					],
					"stateMutability": "view",
					"type": "function"
				},
				{
					"inputs": [],
					"name": "owner",
					"outputs": [
						{
							"internalType": "address",
							"name": "",
							"type": "address"
						}
					],
					"stateMutability": "view",
					"type": "function"
				},
				{
					"inputs": [],
					"name": "renounceOwnership",
					"outputs": [],
					"stateMutability": "nonpayable",
					"type": "function"
				},
				{
					"inputs": [
						{
							"internalType": "address",
							"name": "newOwner",
							"type": "address"
						}
					],
					"name": "transferOwnership",
					"outputs": [],
					"stateMutability": "nonpayable",
					"type": "function"
				},
				{
					"inputs": [
						{
							"internalType": "address",
							"name": "addr",
							"type": "address"
						}
					],
					"name": "updateRepManager",
					"outputs": [],
					"stateMutability": "nonpayable",
					"type": "function"
				},
				{
					"inputs": [
						{
							"internalType": "address",
							"name": "addr",
							"type": "address"
						}
					],
					"name": "updateReputation",
					"outputs": [],
					"stateMutability": "nonpayable",
					"type": "function"
				},
				{
					"inputs": [
						{
							"internalType": "address",
							"name": "addr",
							"type": "address"
						}
					],
					"name": "updateRewardManager",
					"outputs": [],
					"stateMutability": "nonpayable",
					"type": "function"
				}
			],
			"devdoc": {
				"kind": "dev",
				"methods": {
					"owner()": {
						"details": "Returns the address of the current owner."
					},
					"renounceOwnership()": {
						"details": "Leaves the contract without owner. It will not be possible to call `onlyOwner` functions anymore. Can only be called by the current owner. NOTE: Renouncing ownership will leave the contract without an owner, thereby removing any functionality that is only available to the owner."
					},
					"transferOwnership(address)": {
						"details": "Transfers ownership of the contract to a new account (`newOwner`). Can only be called by the current owner."
					}
				},
				"version": 1
			},
			"evm": {
				"assembly": "    /* \"contracts/worksystems/AddressManager.sol\":909:10581  contract AddressManager is Ownable{\r... */\n  mstore(0x40, 0x80)\n    /* \"contracts/worksystems/AddressManager.sol\":1540:1541  5 */\n  0x05\n    /* \"contracts/worksystems/AddressManager.sol\":1511:1541  uint256 MAX_MASTER_LOOKUP  = 5 */\n  dup1\n  sstore\n    /* \"contracts/worksystems/AddressManager.sol\":909:10581  contract AddressManager is Ownable{\r... */\n  callvalue\n  dup1\n  iszero\n  tag_1\n  jumpi\n  0x00\n  dup1\n  revert\ntag_1:\n  pop\n    /* \"@openzeppelin/contracts/access/Ownable.sol\":921:953  _transferOwnership(_msgSender()) */\n  tag_4\n    /* \"@openzeppelin/contracts/access/Ownable.sol\":940:952  _msgSender() */\n  tag_5\n    /* \"@openzeppelin/contracts/access/Ownable.sol\":940:950  _msgSender */\n  tag_6\n    /* \"@openzeppelin/contracts/access/Ownable.sol\":940:952  _msgSender() */\n  jump\t// in\ntag_5:\n    /* \"@openzeppelin/contracts/access/Ownable.sol\":921:939  _transferOwnership */\n  tag_7\n    /* \"@openzeppelin/contracts/access/Ownable.sol\":921:953  _transferOwnership(_msgSender()) */\n  jump\t// in\ntag_4:\n    /* \"contracts/worksystems/AddressManager.sol\":909:10581  contract AddressManager is Ownable{\r... */\n  jump(tag_8)\n    /* \"@openzeppelin/contracts/utils/Context.sol\":640:736  function _msgSender() internal view virtual returns (address) {... */\ntag_6:\n    /* \"@openzeppelin/contracts/utils/Context.sol\":719:729  msg.sender */\n  caller\n    /* \"@openzeppelin/contracts/utils/Context.sol\":640:736  function _msgSender() internal view virtual returns (address) {... */\n  swap1\n  jump\t// out\n    /* \"@openzeppelin/contracts/access/Ownable.sol\":2270:2457  function _transferOwnership(address newOwner) internal virtual {... */\ntag_7:\n    /* \"@openzeppelin/contracts/access/Ownable.sol\":2343:2359  address oldOwner */\n  0x00\n    /* \"@openzeppelin/contracts/access/Ownable.sol\":2362:2368  _owner */\n  dup1\n  sload\n  sub(shl(0xa0, 0x01), 0x01)\n    /* \"@openzeppelin/contracts/access/Ownable.sol\":2378:2395  _owner = newOwner */\n  dup4\n  dup2\n  and\n  not(sub(shl(0xa0, 0x01), 0x01))\n  dup4\n  and\n  dup2\n  or\n  dup5\n  sstore\n    /* \"@openzeppelin/contracts/access/Ownable.sol\":2410:2450  OwnershipTransferred(oldOwner, newOwner) */\n  mload(0x40)\n    /* \"@openzeppelin/contracts/access/Ownable.sol\":2362:2368  _owner */\n  swap2\n  swap1\n  swap3\n  and\n  swap3\n  dup4\n  swap2\n    /* \"@openzeppelin/contracts/access/Ownable.sol\":2410:2450  OwnershipTransferred(oldOwner, newOwner) */\n  0x8be0079c531659141344cd1fd0a4f28419497f9722a3daafe3b4186f6b6457e0\n  swap2\n    /* \"@openzeppelin/contracts/access/Ownable.sol\":2343:2359  address oldOwner */\n  swap1\n    /* \"@openzeppelin/contracts/access/Ownable.sol\":2410:2450  OwnershipTransferred(oldOwner, newOwner) */\n  log3\n    /* \"@openzeppelin/contracts/access/Ownable.sol\":2270:2457  function _transferOwnership(address newOwner) internal virtual {... */\n  pop\n  pop\n  jump\t// out\n    /* \"contracts/worksystems/AddressManager.sol\":909:10581  contract AddressManager is Ownable{\r... */\ntag_8:\n  dataSize(sub_0)\n  dup1\n  dataOffset(sub_0)\n  0x00\n  codecopy\n  0x00\n  return\nstop\n\nsub_0: assembly {\n        /* \"contracts/worksystems/AddressManager.sol\":909:10581  contract AddressManager is Ownable{\r... */\n      mstore(0x40, 0x80)\n      callvalue\n      dup1\n      iszero\n      tag_1\n      jumpi\n      0x00\n      dup1\n      revert\n    tag_1:\n      pop\n      jumpi(tag_2, lt(calldatasize, 0x04))\n      shr(0xe0, calldataload(0x00))\n      dup1\n      0x715018a6\n      gt\n      tag_31\n      jumpi\n      dup1\n      0xdb519824\n      gt\n      tag_32\n      jumpi\n      dup1\n      0xe4f1d0fd\n      gt\n      tag_33\n      jumpi\n      dup1\n      0xe4f1d0fd\n      eq\n      tag_27\n      jumpi\n      dup1\n      0xf25e9ed2\n      eq\n      tag_28\n      jumpi\n      dup1\n      0xf2fde38b\n      eq\n      tag_29\n      jumpi\n      dup1\n      0xf77c8658\n      eq\n      tag_30\n      jumpi\n      jump(tag_2)\n    tag_33:\n      dup1\n      0xdb519824\n      eq\n      tag_24\n      jumpi\n      dup1\n      0xdd618682\n      eq\n      tag_25\n      jumpi\n      dup1\n      0xdf77a0f6\n      eq\n      tag_26\n      jumpi\n      jump(tag_2)\n    tag_32:\n      dup1\n      0x96daff56\n      gt\n      tag_34\n      jumpi\n      dup1\n      0x96daff56\n      eq\n      tag_20\n      jumpi\n      dup1\n      0x9904ed8d\n      eq\n      tag_21\n      jumpi\n      dup1\n      0x9f62c379\n      eq\n      tag_22\n      jumpi\n      dup1\n      0xac8d65cb\n      eq\n      tag_20\n      jumpi\n      jump(tag_2)\n    tag_34:\n      dup1\n      0x715018a6\n      eq\n      tag_17\n      jumpi\n      dup1\n      0x8213b8d8\n      eq\n      tag_18\n      jumpi\n      dup1\n      0x8da5cb5b\n      eq\n      tag_19\n      jumpi\n      jump(tag_2)\n    tag_31:\n      dup1\n      0x29a47bc7\n      gt\n      tag_35\n      jumpi\n      dup1\n      0x39c3f6e7\n      gt\n      tag_36\n      jumpi\n      dup1\n      0x39c3f6e7\n      eq\n      tag_13\n      jumpi\n      dup1\n      0x4826d043\n      eq\n      tag_14\n      jumpi\n      dup1\n      0x51912f29\n      eq\n      tag_15\n      jumpi\n      dup1\n      0x584720f5\n      eq\n      tag_16\n      jumpi\n      jump(tag_2)\n    tag_36:\n      dup1\n      0x29a47bc7\n      eq\n      tag_10\n      jumpi\n      dup1\n      0x2e3ce457\n      eq\n      tag_11\n      jumpi\n      dup1\n      0x342bffbf\n      eq\n      tag_12\n      jumpi\n      jump(tag_2)\n    tag_35:\n      dup1\n      0x11815086\n      gt\n      tag_37\n      jumpi\n      dup1\n      0x11815086\n      eq\n      tag_6\n      jumpi\n      dup1\n      0x12ccb147\n      eq\n      tag_7\n      jumpi\n      dup1\n      0x1778f9c8\n      eq\n      tag_8\n      jumpi\n      dup1\n      0x198ff3dc\n      eq\n      tag_9\n      jumpi\n      jump(tag_2)\n    tag_37:\n      dup1\n      0x050eb2eb\n      eq\n      tag_3\n      jumpi\n      dup1\n      0x0c06e4df\n      eq\n      tag_4\n      jumpi\n      dup1\n      0x0e90e565\n      eq\n      tag_5\n      jumpi\n    tag_2:\n      0x00\n      dup1\n      revert\n        /* \"contracts/worksystems/AddressManager.sol\":2597:2728  function updateRewardManager(address addr)\r... */\n    tag_3:\n      tag_38\n      tag_39\n      calldatasize\n      0x04\n      tag_40\n      jump\t// in\n    tag_39:\n      tag_41\n      jump\t// in\n    tag_38:\n      stop\n        /* \"contracts/worksystems/AddressManager.sol\":3406:3577  function isSubWorkerOfMe(address _worker)\r... */\n    tag_4:\n      tag_42\n      tag_43\n      calldatasize\n      0x04\n      tag_40\n      jump\t// in\n    tag_43:\n      tag_44\n      jump\t// in\n    tag_42:\n      mload(0x40)\n      tag_45\n      swap2\n      swap1\n      tag_46\n      jump\t// in\n    tag_45:\n      mload(0x40)\n      dup1\n      swap2\n      sub\n      swap1\n      return\n        /* \"contracts/worksystems/AddressManager.sol\":2333:2455  function updateReputation(address addr)\r... */\n    tag_5:\n      tag_38\n      tag_48\n      calldatasize\n      0x04\n      tag_40\n      jump\t// in\n    tag_48:\n      tag_49\n      jump\t// in\n        /* \"contracts/worksystems/AddressManager.sol\":7283:7842  function FetchHighestMaster(address _worker) public view returns (address){\r... */\n    tag_6:\n      tag_50\n      tag_51\n      calldatasize\n      0x04\n      tag_40\n      jump\t// in\n    tag_51:\n      tag_52\n      jump\t// in\n    tag_50:\n      mload(0x40)\n      tag_45\n      swap2\n      swap1\n      tag_54\n      jump\t// in\n        /* \"contracts/worksystems/AddressManager.sol\":5433:5789  function MasterClaimSub(address _address)\r... */\n    tag_7:\n      tag_38\n      tag_56\n      calldatasize\n      0x04\n      tag_40\n      jump\t// in\n    tag_56:\n      tag_57\n      jump\t// in\n        /* \"contracts/worksystems/AddressManager.sol\":1073:1148  mapping (address =>  mapping (address => bool)) public WorkerClaimingMaster */\n    tag_8:\n      tag_42\n      tag_59\n      calldatasize\n      0x04\n      tag_60\n      jump\t// in\n    tag_59:\n      tag_61\n      jump\t// in\n        /* \"contracts/worksystems/AddressManager.sol\":3174:3338  function getMasterSubs(address _master)\r... */\n    tag_9:\n      tag_63\n      tag_64\n      calldatasize\n      0x04\n      tag_40\n      jump\t// in\n    tag_64:\n      tag_65\n      jump\t// in\n    tag_63:\n      mload(0x40)\n      tag_45\n      swap2\n      swap1\n      tag_67\n      jump\t// in\n        /* \"contracts/worksystems/AddressManager.sol\":1586:1615  IRepManager public RepManager */\n    tag_10:\n      tag_50\n      tag_69\n      jump\t// in\n        /* \"contracts/worksystems/AddressManager.sol\":1193:1247  mapping (address =>  address[]) public MasterToSubsMap */\n    tag_11:\n      tag_50\n      tag_73\n      calldatasize\n      0x04\n      tag_74\n      jump\t// in\n    tag_73:\n      tag_75\n      jump\t// in\n        /* \"contracts/worksystems/AddressManager.sol\":956:1031  mapping (address =>  mapping (address => bool)) public MasterClaimingWorker */\n    tag_12:\n      tag_42\n      tag_78\n      calldatasize\n      0x04\n      tag_60\n      jump\t// in\n    tag_78:\n      tag_79\n      jump\t// in\n        /* \"contracts/worksystems/AddressManager.sol\":5797:6250  function MasterClaimManySubs(address[] memory _addresses)\r... */\n    tag_13:\n      tag_38\n      tag_82\n      calldatasize\n      0x04\n      tag_83\n      jump\t// in\n    tag_82:\n      tag_84\n      jump\t// in\n        /* \"contracts/worksystems/AddressManager.sol\":6286:6669  function MasterRemoveSub(address _address)\r... */\n    tag_14:\n      tag_38\n      tag_86\n      calldatasize\n      0x04\n      tag_40\n      jump\t// in\n    tag_86:\n      tag_87\n      jump\t// in\n        /* \"contracts/worksystems/AddressManager.sol\":1622:1657  IRewardManager public RewardManager */\n    tag_15:\n      tag_50\n      tag_89\n      jump\t// in\n        /* \"contracts/worksystems/AddressManager.sol\":10166:10570  function RemoveMaster(address _master)\r... */\n    tag_16:\n      tag_38\n      tag_93\n      calldatasize\n      0x04\n      tag_40\n      jump\t// in\n    tag_93:\n      tag_94\n      jump\t// in\n        /* \"@openzeppelin/contracts/access/Ownable.sol\":1668:1769  function renounceOwnership() public virtual onlyOwner {... */\n    tag_17:\n      tag_38\n      tag_96\n      jump\t// in\n        /* \"contracts/worksystems/AddressManager.sol\":6677:7131  function MasterRemoveManySubs(address[] memory _addresses)\r... */\n    tag_18:\n      tag_38\n      tag_98\n      calldatasize\n      0x04\n      tag_83\n      jump\t// in\n    tag_98:\n      tag_99\n      jump\t// in\n        /* \"@openzeppelin/contracts/access/Ownable.sol\":1036:1121  function owner() public view virtual returns (address) {... */\n    tag_19:\n      tag_50\n      tag_101\n      jump\t// in\n        /* \"contracts/worksystems/AddressManager.sol\":2982:3164  function isMasterOf(address _master, address _address)\r... */\n    tag_20:\n      tag_42\n      tag_104\n      calldatasize\n      0x04\n      tag_60\n      jump\t// in\n    tag_104:\n      tag_105\n      jump\t// in\n        /* \"contracts/worksystems/AddressManager.sol\":1550:1579  IReputation public Reputation */\n    tag_21:\n      tag_50\n      tag_108\n      jump\t// in\n        /* \"contracts/worksystems/AddressManager.sol\":5037:5255  function AreMasterSubLinked(address _master, address _address)\r... */\n    tag_22:\n      tag_42\n      tag_112\n      calldatasize\n      0x04\n      tag_60\n      jump\t// in\n    tag_112:\n      tag_113\n      jump\t// in\n        /* \"contracts/worksystems/AddressManager.sol\":2804:2972  function isMasterOfMe(address _master)\r... */\n    tag_24:\n      tag_42\n      tag_120\n      calldatasize\n      0x04\n      tag_40\n      jump\t// in\n    tag_120:\n      tag_121\n      jump\t// in\n        /* \"contracts/worksystems/AddressManager.sol\":2463:2585  function updateRepManager(address addr)\r... */\n    tag_25:\n      tag_38\n      tag_124\n      calldatasize\n      0x04\n      tag_40\n      jump\t// in\n    tag_124:\n      tag_125\n      jump\t// in\n        /* \"contracts/worksystems/AddressManager.sol\":9680:10158  function ClaimMaster(address _master)\r... */\n    tag_26:\n      tag_38\n      tag_127\n      calldatasize\n      0x04\n      tag_40\n      jump\t// in\n    tag_127:\n      tag_128\n      jump\t// in\n        /* \"contracts/worksystems/AddressManager.sol\":1305:1356  mapping (address =>  address) public SubToMasterMap */\n    tag_27:\n      tag_50\n      tag_130\n      calldatasize\n      0x04\n      tag_40\n      jump\t// in\n    tag_130:\n      tag_131\n      jump\t// in\n        /* \"contracts/worksystems/AddressManager.sol\":4184:4334  function getMaster(address _worker)\r... */\n    tag_28:\n      tag_50\n      tag_134\n      calldatasize\n      0x04\n      tag_40\n      jump\t// in\n    tag_134:\n      tag_135\n      jump\t// in\n        /* \"@openzeppelin/contracts/access/Ownable.sol\":1918:2116  function transferOwnership(address newOwner) public virtual onlyOwner {... */\n    tag_29:\n      tag_38\n      tag_138\n      calldatasize\n      0x04\n      tag_40\n      jump\t// in\n    tag_138:\n      tag_139\n      jump\t// in\n        /* \"contracts/worksystems/AddressManager.sol\":3778:4176  function isSubInMasterArray(address _worker, address _master) public view returns(bool){\r... */\n    tag_30:\n      tag_42\n      tag_141\n      calldatasize\n      0x04\n      tag_60\n      jump\t// in\n    tag_141:\n      tag_142\n      jump\t// in\n        /* \"contracts/worksystems/AddressManager.sol\":2597:2728  function updateRewardManager(address addr)\r... */\n    tag_41:\n        /* \"@openzeppelin/contracts/access/Ownable.sol\":1259:1271  _msgSender() */\n      tag_145\n        /* \"@openzeppelin/contracts/access/Ownable.sol\":1259:1269  _msgSender */\n      tag_146\n        /* \"@openzeppelin/contracts/access/Ownable.sol\":1259:1271  _msgSender() */\n      jump\t// in\n    tag_145:\n      sub(shl(0xa0, 0x01), 0x01)\n        /* \"@openzeppelin/contracts/access/Ownable.sol\":1248:1271  owner() == _msgSender() */\n      and\n        /* \"@openzeppelin/contracts/access/Ownable.sol\":1248:1255  owner() */\n      tag_147\n        /* \"@openzeppelin/contracts/access/Ownable.sol\":1248:1253  owner */\n      tag_101\n        /* \"@openzeppelin/contracts/access/Ownable.sol\":1248:1255  owner() */\n      jump\t// in\n    tag_147:\n      sub(shl(0xa0, 0x01), 0x01)\n        /* \"@openzeppelin/contracts/access/Ownable.sol\":1248:1271  owner() == _msgSender() */\n      and\n      eq\n        /* \"@openzeppelin/contracts/access/Ownable.sol\":1240:1308  require(owner() == _msgSender(), \"Ownable: caller is not the owner\") */\n      tag_148\n      jumpi\n      mload(0x40)\n      shl(0xe5, 0x461bcd)\n      dup2\n      mstore\n      0x04\n      add\n      tag_149\n      swap1\n      tag_150\n      jump\t// in\n    tag_149:\n      mload(0x40)\n      dup1\n      swap2\n      sub\n      swap1\n      revert\n    tag_148:\n        /* \"contracts/worksystems/AddressManager.sol\":2683:2696  RewardManager */\n      0x08\n        /* \"contracts/worksystems/AddressManager.sol\":2683:2720  RewardManager  = IRewardManager(addr) */\n      dup1\n      sload\n      not(sub(shl(0xa0, 0x01), 0x01))\n      and\n      sub(shl(0xa0, 0x01), 0x01)\n      swap3\n      swap1\n      swap3\n      and\n      swap2\n      swap1\n      swap2\n      or\n      swap1\n      sstore\n        /* \"contracts/worksystems/AddressManager.sol\":2597:2728  function updateRewardManager(address addr)\r... */\n      jump\t// out\n        /* \"contracts/worksystems/AddressManager.sol\":3406:3577  function isSubWorkerOfMe(address _worker)\r... */\n    tag_44:\n        /* \"contracts/worksystems/AddressManager.sol\":3549:3559  msg.sender */\n      caller\n        /* \"contracts/worksystems/AddressManager.sol\":3496:3500  bool */\n      0x00\n        /* \"contracts/worksystems/AddressManager.sol\":3528:3560  MasterClaimingWorker[msg.sender] */\n      swap1\n      dup2\n      mstore\n        /* \"contracts/worksystems/AddressManager.sol\":3528:3548  MasterClaimingWorker */\n      0x01\n        /* \"contracts/worksystems/AddressManager.sol\":3528:3560  MasterClaimingWorker[msg.sender] */\n      0x20\n      swap1\n      dup2\n      mstore\n      0x40\n      dup1\n      dup4\n      keccak256\n      sub(shl(0xa0, 0x01), 0x01)\n        /* \"contracts/worksystems/AddressManager.sol\":3528:3569  MasterClaimingWorker[msg.sender][_worker] */\n      dup6\n      and\n      dup5\n      mstore\n      swap1\n      swap2\n      mstore\n      swap1\n      keccak256\n      sload\n      0xff\n      and\n        /* \"contracts/worksystems/AddressManager.sol\":3406:3577  function isSubWorkerOfMe(address _worker)\r... */\n    tag_152:\n      swap2\n      swap1\n      pop\n      jump\t// out\n        /* \"contracts/worksystems/AddressManager.sol\":2333:2455  function updateReputation(address addr)\r... */\n    tag_49:\n        /* \"@openzeppelin/contracts/access/Ownable.sol\":1259:1271  _msgSender() */\n      tag_154\n        /* \"@openzeppelin/contracts/access/Ownable.sol\":1259:1269  _msgSender */\n      tag_146\n        /* \"@openzeppelin/contracts/access/Ownable.sol\":1259:1271  _msgSender() */\n      jump\t// in\n    tag_154:\n      sub(shl(0xa0, 0x01), 0x01)\n        /* \"@openzeppelin/contracts/access/Ownable.sol\":1248:1271  owner() == _msgSender() */\n      and\n        /* \"@openzeppelin/contracts/access/Ownable.sol\":1248:1255  owner() */\n      tag_155\n        /* \"@openzeppelin/contracts/access/Ownable.sol\":1248:1253  owner */\n      tag_101\n        /* \"@openzeppelin/contracts/access/Ownable.sol\":1248:1255  owner() */\n      jump\t// in\n    tag_155:\n      sub(shl(0xa0, 0x01), 0x01)\n        /* \"@openzeppelin/contracts/access/Ownable.sol\":1248:1271  owner() == _msgSender() */\n      and\n      eq\n        /* \"@openzeppelin/contracts/access/Ownable.sol\":1240:1308  require(owner() == _msgSender(), \"Ownable: caller is not the owner\") */\n      tag_156\n      jumpi\n      mload(0x40)\n      shl(0xe5, 0x461bcd)\n      dup2\n      mstore\n      0x04\n      add\n      tag_149\n      swap1\n      tag_150\n      jump\t// in\n    tag_156:\n        /* \"contracts/worksystems/AddressManager.sol\":2416:2426  Reputation */\n      0x06\n        /* \"contracts/worksystems/AddressManager.sol\":2416:2447  Reputation  = IReputation(addr) */\n      dup1\n      sload\n      not(sub(shl(0xa0, 0x01), 0x01))\n      and\n      sub(shl(0xa0, 0x01), 0x01)\n      swap3\n      swap1\n      swap3\n      and\n      swap2\n      swap1\n      swap2\n      or\n      swap1\n      sstore\n        /* \"contracts/worksystems/AddressManager.sol\":2333:2455  function updateReputation(address addr)\r... */\n      jump\t// out\n        /* \"contracts/worksystems/AddressManager.sol\":7283:7842  function FetchHighestMaster(address _worker) public view returns (address){\r... */\n    tag_52:\n        /* \"contracts/worksystems/AddressManager.sol\":7349:7356  address */\n      0x00\n      sub(shl(0xa0, 0x01), 0x01)\n        /* \"contracts/worksystems/AddressManager.sol\":7376:7397  _worker != address(0) */\n      dup3\n      and\n        /* \"contracts/worksystems/AddressManager.sol\":7368:7464  require(_worker != address(0), \"FetchHighestMaster: input _worker needs to be non null address\") */\n      tag_160\n      jumpi\n      mload(0x40)\n      shl(0xe5, 0x461bcd)\n      dup2\n      mstore\n      0x04\n      add\n      tag_149\n      swap1\n      tag_162\n      jump\t// in\n    tag_160:\n      sub(shl(0xa0, 0x01), 0x01)\n        /* \"contracts/worksystems/AddressManager.sol\":7493:7516  SubToMasterMap[_worker] */\n      dup1\n      dup4\n      and\n        /* \"contracts/worksystems/AddressManager.sol\":7475:7490  address _master */\n      0x00\n        /* \"contracts/worksystems/AddressManager.sol\":7493:7516  SubToMasterMap[_worker] */\n      swap1\n      dup2\n      mstore\n        /* \"contracts/worksystems/AddressManager.sol\":7493:7507  SubToMasterMap */\n      0x04\n        /* \"contracts/worksystems/AddressManager.sol\":7493:7516  SubToMasterMap[_worker] */\n      0x20\n      mstore\n      0x40\n      swap1\n      keccak256\n      sload\n        /* \"contracts/worksystems/AddressManager.sol\":7592:7609  MAX_MASTER_LOOKUP */\n      sload(0x05)\n        /* \"contracts/worksystems/AddressManager.sol\":7493:7516  SubToMasterMap[_worker] */\n      swap2\n      and\n      swap1\n        /* \"contracts/worksystems/AddressManager.sol\":7508:7515  _worker */\n      dup4\n      swap1\n        /* \"contracts/worksystems/AddressManager.sol\":7622:7800  while(_master != address(0) && (iterations > 0)){\r... */\n    tag_163:\n      sub(shl(0xa0, 0x01), 0x01)\n        /* \"contracts/worksystems/AddressManager.sol\":7628:7649  _master != address(0) */\n      dup4\n      and\n      iszero\n      dup1\n      iszero\n      swap1\n        /* \"contracts/worksystems/AddressManager.sol\":7628:7669  _master != address(0) && (iterations > 0) */\n      tag_165\n      jumpi\n      pop\n        /* \"contracts/worksystems/AddressManager.sol\":7667:7668  0 */\n      0x00\n        /* \"contracts/worksystems/AddressManager.sol\":7654:7664  iterations */\n      dup2\n        /* \"contracts/worksystems/AddressManager.sol\":7654:7668  iterations > 0 */\n      gt\n        /* \"contracts/worksystems/AddressManager.sol\":7628:7669  _master != address(0) && (iterations > 0) */\n    tag_165:\n        /* \"contracts/worksystems/AddressManager.sol\":7622:7800  while(_master != address(0) && (iterations > 0)){\r... */\n      iszero\n      tag_164\n      jumpi\n      sub(shl(0xa0, 0x01), 0x01)\n        /* \"contracts/worksystems/AddressManager.sol\":7735:7758  SubToMasterMap[_master] */\n      dup1\n      dup5\n      and\n      0x00\n      swap1\n      dup2\n      mstore\n        /* \"contracts/worksystems/AddressManager.sol\":7735:7749  SubToMasterMap */\n      0x04\n        /* \"contracts/worksystems/AddressManager.sol\":7735:7758  SubToMasterMap[_master] */\n      0x20\n      mstore\n      0x40\n      swap1\n      keccak256\n      sload\n      and\n      swap3\n        /* \"contracts/worksystems/AddressManager.sol\":7703:7710  _master */\n      swap2\n      pop\n        /* \"contracts/worksystems/AddressManager.sol\":7773:7788  iterations -= 1 */\n      tag_166\n        /* \"contracts/worksystems/AddressManager.sol\":7735:7758  SubToMasterMap[_master] */\n      0x01\n        /* \"contracts/worksystems/AddressManager.sol\":7773:7788  iterations -= 1 */\n      dup3\n      tag_167\n      jump\t// in\n    tag_166:\n      swap1\n      pop\n        /* \"contracts/worksystems/AddressManager.sol\":7622:7800  while(_master != address(0) && (iterations > 0)){\r... */\n      jump(tag_163)\n    tag_164:\n      pop\n        /* \"contracts/worksystems/AddressManager.sol\":7818:7833  _highest_master */\n      swap4\n        /* \"contracts/worksystems/AddressManager.sol\":7283:7842  function FetchHighestMaster(address _worker) public view returns (address){\r... */\n      swap3\n      pop\n      pop\n      pop\n      jump\t// out\n        /* \"contracts/worksystems/AddressManager.sol\":5433:5789  function MasterClaimSub(address _address)\r... */\n    tag_57:\n        /* \"contracts/worksystems/AddressManager.sol\":5536:5546  msg.sender */\n      caller\n        /* \"contracts/worksystems/AddressManager.sol\":5515:5547  MasterClaimingWorker[msg.sender] */\n      0x00\n      swap1\n      dup2\n      mstore\n        /* \"contracts/worksystems/AddressManager.sol\":5515:5535  MasterClaimingWorker */\n      0x01\n        /* \"contracts/worksystems/AddressManager.sol\":5515:5547  MasterClaimingWorker[msg.sender] */\n      0x20\n      dup2\n      dup2\n      mstore\n      0x40\n      dup1\n      dup5\n      keccak256\n      sub(shl(0xa0, 0x01), 0x01)\n        /* \"contracts/worksystems/AddressManager.sol\":5515:5557  MasterClaimingWorker[msg.sender][_address] */\n      dup7\n      and\n      dup6\n      mstore\n      swap1\n      swap2\n      mstore\n      swap1\n      swap2\n      keccak256\n      sload\n      0xff\n      and\n        /* \"contracts/worksystems/AddressManager.sol\":5515:5565  MasterClaimingWorker[msg.sender][_address] != true */\n      iszero\n      iszero\n      eq\n      iszero\n        /* \"contracts/worksystems/AddressManager.sol\":5507:5610  require(MasterClaimingWorker[msg.sender][_address] != true, \"Master already claiming this Sub Address\") */\n      tag_169\n      jumpi\n      mload(0x40)\n      shl(0xe5, 0x461bcd)\n      dup2\n      mstore\n      0x04\n      add\n      tag_149\n      swap1\n      tag_171\n      jump\t// in\n    tag_169:\n        /* \"contracts/worksystems/AddressManager.sol\":5642:5652  msg.sender */\n      caller\n        /* \"contracts/worksystems/AddressManager.sol\":5621:5653  MasterClaimingWorker[msg.sender] */\n      0x00\n      dup2\n      dup2\n      mstore\n        /* \"contracts/worksystems/AddressManager.sol\":5666:5670  true */\n      0x01\n        /* \"contracts/worksystems/AddressManager.sol\":5621:5653  MasterClaimingWorker[msg.sender] */\n      0x20\n      dup2\n      dup2\n      mstore\n      0x40\n      dup1\n      dup5\n      keccak256\n      sub(shl(0xa0, 0x01), 0x01)\n        /* \"contracts/worksystems/AddressManager.sol\":5621:5663  MasterClaimingWorker[msg.sender][_address] */\n      dup8\n      and\n      dup1\n      dup7\n      mstore\n      swap1\n      dup4\n      mstore\n      dup2\n      dup6\n      keccak256\n        /* \"contracts/worksystems/AddressManager.sol\":5621:5670  MasterClaimingWorker[msg.sender][_address] = true */\n      dup1\n      sload\n      not(0xff)\n      and\n      dup6\n      or\n      swap1\n      sstore\n        /* \"contracts/worksystems/AddressManager.sol\":5681:5708  MasterToSubsMap[msg.sender] */\n      dup6\n      dup6\n      mstore\n        /* \"contracts/worksystems/AddressManager.sol\":5681:5696  MasterToSubsMap */\n      0x03\n        /* \"contracts/worksystems/AddressManager.sol\":5681:5708  MasterToSubsMap[msg.sender] */\n      dup4\n      mstore\n      dup2\n      dup6\n      keccak256\n        /* \"contracts/worksystems/AddressManager.sol\":5681:5723  MasterToSubsMap[msg.sender].push(_address) */\n      dup1\n      sload\n      swap5\n      dup6\n      add\n      dup2\n      sstore\n      dup6\n      mstore\n      swap2\n      swap1\n      swap4\n      keccak256\n      swap1\n      swap2\n      add\n      dup1\n      sload\n      not(sub(shl(0xa0, 0x01), 0x01))\n      and\n      swap1\n      swap2\n      or\n      swap1\n      sstore\n        /* \"contracts/worksystems/AddressManager.sol\":5739:5781  AddressAddedByMaster(msg.sender, _address) */\n      mload\n      0x8902b85532bfc55a9f5b6e6a9576366640928b3be984b3a61167a210ca2bbc57\n      swap1\n      tag_173\n      swap1\n        /* \"contracts/worksystems/AddressManager.sol\":5654:5662  _address */\n      dup5\n      swap1\n        /* \"contracts/worksystems/AddressManager.sol\":5739:5781  AddressAddedByMaster(msg.sender, _address) */\n      tag_54\n      jump\t// in\n    tag_173:\n      mload(0x40)\n      dup1\n      swap2\n      sub\n      swap1\n      log2\n        /* \"contracts/worksystems/AddressManager.sol\":5433:5789  function MasterClaimSub(address _address)\r... */\n      pop\n      jump\t// out\n        /* \"contracts/worksystems/AddressManager.sol\":1073:1148  mapping (address =>  mapping (address => bool)) public WorkerClaimingMaster */\n    tag_61:\n      0x02\n      0x20\n      swap1\n      dup2\n      mstore\n      0x00\n      swap3\n      dup4\n      mstore\n      0x40\n      dup1\n      dup5\n      keccak256\n      swap1\n      swap2\n      mstore\n      swap1\n      dup3\n      mstore\n      swap1\n      keccak256\n      sload\n      0xff\n      and\n      dup2\n      jump\t// out\n        /* \"contracts/worksystems/AddressManager.sol\":3174:3338  function getMasterSubs(address _master)\r... */\n    tag_65:\n      sub(shl(0xa0, 0x01), 0x01)\n        /* \"contracts/worksystems/AddressManager.sol\":3306:3330  MasterToSubsMap[_master] */\n      dup2\n      and\n      0x00\n      swap1\n      dup2\n      mstore\n        /* \"contracts/worksystems/AddressManager.sol\":3306:3321  MasterToSubsMap */\n      0x03\n        /* \"contracts/worksystems/AddressManager.sol\":3306:3330  MasterToSubsMap[_master] */\n      0x20\n      swap1\n      dup2\n      mstore\n      0x40\n      swap2\n      dup3\n      swap1\n      keccak256\n        /* \"contracts/worksystems/AddressManager.sol\":3299:3330  return MasterToSubsMap[_master] */\n      dup1\n      sload\n      dup4\n      mload\n      dup2\n      dup5\n      mul\n      dup2\n      add\n      dup5\n      add\n      swap1\n      swap5\n      mstore\n      dup1\n      dup5\n      mstore\n        /* \"contracts/worksystems/AddressManager.sol\":3262:3278  address[] memory */\n      0x60\n      swap4\n        /* \"contracts/worksystems/AddressManager.sol\":3299:3330  return MasterToSubsMap[_master] */\n      swap3\n      dup4\n      add\n        /* \"contracts/worksystems/AddressManager.sol\":3306:3330  MasterToSubsMap[_master] */\n      dup3\n        /* \"contracts/worksystems/AddressManager.sol\":3299:3330  return MasterToSubsMap[_master] */\n      dup3\n      dup1\n      iszero\n      tag_175\n      jumpi\n      0x20\n      mul\n      dup3\n      add\n      swap2\n      swap1\n      0x00\n      mstore\n      keccak256(0x00, 0x20)\n      swap1\n    tag_176:\n      dup2\n      sload\n      sub(shl(0xa0, 0x01), 0x01)\n      and\n      dup2\n      mstore\n      0x01\n      swap1\n      swap2\n      add\n      swap1\n      0x20\n      add\n      dup1\n      dup4\n      gt\n      tag_176\n      jumpi\n    tag_175:\n      pop\n      pop\n      pop\n      pop\n      pop\n      swap1\n      pop\n        /* \"contracts/worksystems/AddressManager.sol\":3174:3338  function getMasterSubs(address _master)\r... */\n      swap2\n      swap1\n      pop\n      jump\t// out\n        /* \"contracts/worksystems/AddressManager.sol\":1586:1615  IRepManager public RepManager */\n    tag_69:\n      and(sub(shl(0xa0, 0x01), 0x01), sload(0x07))\n      dup2\n      jump\t// out\n        /* \"contracts/worksystems/AddressManager.sol\":1193:1247  mapping (address =>  address[]) public MasterToSubsMap */\n    tag_75:\n      mstore(0x20, 0x03)\n      dup2\n      0x00\n      mstore\n      keccak256(0x00, 0x40)\n      dup2\n      dup2\n      sload\n      dup2\n      lt\n      tag_177\n      jumpi\n      0x00\n      dup1\n      revert\n    tag_177:\n      0x00\n      swap2\n      dup3\n      mstore\n      0x20\n      swap1\n      swap2\n      keccak256\n      add\n      sload\n      sub(shl(0xa0, 0x01), 0x01)\n      and\n      swap2\n      pop\n      dup3\n      swap1\n      pop\n      jump\t// out\n        /* \"contracts/worksystems/AddressManager.sol\":956:1031  mapping (address =>  mapping (address => bool)) public MasterClaimingWorker */\n    tag_79:\n      0x01\n      0x20\n      swap1\n      dup2\n      mstore\n      0x00\n      swap3\n      dup4\n      mstore\n      0x40\n      dup1\n      dup5\n      keccak256\n      swap1\n      swap2\n      mstore\n      swap1\n      dup3\n      mstore\n      swap1\n      keccak256\n      sload\n      0xff\n      and\n      dup2\n      jump\t// out\n        /* \"contracts/worksystems/AddressManager.sol\":5797:6250  function MasterClaimManySubs(address[] memory _addresses)\r... */\n    tag_84:\n        /* \"contracts/worksystems/AddressManager.sol\":5894:5900  uint i */\n      0x00\n        /* \"contracts/worksystems/AddressManager.sol\":5890:6243  for(uint i = 0; i< _addresses.length; i++){\r... */\n    tag_180:\n        /* \"contracts/worksystems/AddressManager.sol\":5909:5919  _addresses */\n      dup2\n        /* \"contracts/worksystems/AddressManager.sol\":5909:5926  _addresses.length */\n      mload\n        /* \"contracts/worksystems/AddressManager.sol\":5906:5907  i */\n      dup2\n        /* \"contracts/worksystems/AddressManager.sol\":5906:5926  i< _addresses.length */\n      lt\n        /* \"contracts/worksystems/AddressManager.sol\":5890:6243  for(uint i = 0; i< _addresses.length; i++){\r... */\n      iszero\n      tag_181\n      jumpi\n        /* \"contracts/worksystems/AddressManager.sol\":5971:5981  msg.sender */\n      caller\n        /* \"contracts/worksystems/AddressManager.sol\":5950:5982  MasterClaimingWorker[msg.sender] */\n      0x00\n      swap1\n      dup2\n      mstore\n        /* \"contracts/worksystems/AddressManager.sol\":5950:5970  MasterClaimingWorker */\n      0x01\n        /* \"contracts/worksystems/AddressManager.sol\":5950:5982  MasterClaimingWorker[msg.sender] */\n      0x20\n      mstore\n      0x40\n      dup2\n      keccak256\n        /* \"contracts/worksystems/AddressManager.sol\":5983:5996  _addresses[i] */\n      dup4\n      mload\n        /* \"contracts/worksystems/AddressManager.sol\":5950:5982  MasterClaimingWorker[msg.sender] */\n      swap1\n      swap2\n      swap1\n        /* \"contracts/worksystems/AddressManager.sol\":5983:5993  _addresses */\n      dup5\n      swap1\n        /* \"contracts/worksystems/AddressManager.sol\":5994:5995  i */\n      dup5\n      swap1\n        /* \"contracts/worksystems/AddressManager.sol\":5983:5996  _addresses[i] */\n      dup2\n      lt\n      tag_183\n      jumpi\n      mstore(0x00, shl(0xe0, 0x4e487b71))\n      mstore(0x04, 0x32)\n      revert(0x00, 0x24)\n    tag_183:\n      0x20\n      swap1\n      dup2\n      mul\n      swap2\n      swap1\n      swap2\n      add\n      dup2\n      add\n      mload\n      sub(shl(0xa0, 0x01), 0x01)\n        /* \"contracts/worksystems/AddressManager.sol\":5950:5997  MasterClaimingWorker[msg.sender][_addresses[i]] */\n      and\n      dup3\n      mstore\n      dup2\n      add\n      swap2\n      swap1\n      swap2\n      mstore\n      0x40\n      add\n      0x00\n      keccak256\n      sload\n      0xff\n      and\n        /* \"contracts/worksystems/AddressManager.sol\":5950:6005  MasterClaimingWorker[msg.sender][_addresses[i]] != true */\n      iszero\n      iszero\n        /* \"contracts/worksystems/AddressManager.sol\":5950:5997  MasterClaimingWorker[msg.sender][_addresses[i]] */\n      0x01\n        /* \"contracts/worksystems/AddressManager.sol\":5950:6005  MasterClaimingWorker[msg.sender][_addresses[i]] != true */\n      eq\n        /* \"contracts/worksystems/AddressManager.sol\":5947:6232  if(MasterClaimingWorker[msg.sender][_addresses[i]] != true){\r... */\n      tag_184\n      jumpi\n        /* \"contracts/worksystems/AddressManager.sol\":6046:6056  msg.sender */\n      caller\n        /* \"contracts/worksystems/AddressManager.sol\":6025:6057  MasterClaimingWorker[msg.sender] */\n      0x00\n      swap1\n      dup2\n      mstore\n        /* \"contracts/worksystems/AddressManager.sol\":6075:6079  true */\n      0x01\n        /* \"contracts/worksystems/AddressManager.sol\":6025:6057  MasterClaimingWorker[msg.sender] */\n      0x20\n      dup2\n      swap1\n      mstore\n      0x40\n      dup3\n      keccak256\n        /* \"contracts/worksystems/AddressManager.sol\":6058:6071  _addresses[i] */\n      dup5\n      mload\n        /* \"contracts/worksystems/AddressManager.sol\":6075:6079  true */\n      swap2\n      swap3\n        /* \"contracts/worksystems/AddressManager.sol\":6025:6057  MasterClaimingWorker[msg.sender] */\n      swap1\n      swap2\n        /* \"contracts/worksystems/AddressManager.sol\":6058:6068  _addresses */\n      dup6\n      swap1\n        /* \"contracts/worksystems/AddressManager.sol\":6069:6070  i */\n      dup6\n      swap1\n        /* \"contracts/worksystems/AddressManager.sol\":6058:6071  _addresses[i] */\n      dup2\n      lt\n      tag_185\n      jumpi\n      mstore(0x00, shl(0xe0, 0x4e487b71))\n      mstore(0x04, 0x32)\n      revert(0x00, 0x24)\n    tag_185:\n      0x20\n      swap1\n      dup2\n      mul\n      swap2\n      swap1\n      swap2\n      add\n      dup2\n      add\n      mload\n      sub(shl(0xa0, 0x01), 0x01)\n        /* \"contracts/worksystems/AddressManager.sol\":6025:6072  MasterClaimingWorker[msg.sender][_addresses[i]] */\n      and\n      dup3\n      mstore\n      dup2\n      dup2\n      add\n      swap3\n      swap1\n      swap3\n      mstore\n      0x40\n      swap1\n      dup2\n      add\n      0x00\n      swap1\n      dup2\n      keccak256\n        /* \"contracts/worksystems/AddressManager.sol\":6025:6079  MasterClaimingWorker[msg.sender][_addresses[i]] = true */\n      dup1\n      sload\n      not(0xff)\n      and\n      swap5\n      iszero\n      iszero\n      swap5\n      swap1\n      swap5\n      or\n      swap1\n      swap4\n      sstore\n        /* \"contracts/worksystems/AddressManager.sol\":6114:6124  msg.sender */\n      caller\n        /* \"contracts/worksystems/AddressManager.sol\":6098:6125  MasterToSubsMap[msg.sender] */\n      dup4\n      mstore\n        /* \"contracts/worksystems/AddressManager.sol\":6098:6113  MasterToSubsMap */\n      0x03\n        /* \"contracts/worksystems/AddressManager.sol\":6098:6125  MasterToSubsMap[msg.sender] */\n      swap1\n      swap2\n      mstore\n      swap1\n      keccak256\n        /* \"contracts/worksystems/AddressManager.sol\":6131:6144  _addresses[i] */\n      dup3\n      mload\n      dup4\n      swap1\n        /* \"contracts/worksystems/AddressManager.sol\":6142:6143  i */\n      dup4\n      swap1\n        /* \"contracts/worksystems/AddressManager.sol\":6131:6144  _addresses[i] */\n      dup2\n      lt\n      tag_186\n      jumpi\n      mstore(0x00, shl(0xe0, 0x4e487b71))\n      mstore(0x04, 0x32)\n      revert(0x00, 0x24)\n    tag_186:\n      0x20\n      swap1\n      dup2\n      mul\n      swap2\n      swap1\n      swap2\n      add\n      dup2\n      add\n      mload\n        /* \"contracts/worksystems/AddressManager.sol\":6098:6145  MasterToSubsMap[msg.sender].push(_addresses[i]) */\n      dup3\n      sload\n      0x01\n      dup2\n      add\n      dup5\n      sstore\n      0x00\n      swap4\n      dup5\n      mstore\n      swap2\n      swap1\n      swap3\n      keccak256\n      add\n      dup1\n      sload\n      not(sub(shl(0xa0, 0x01), 0x01))\n      and\n      sub(shl(0xa0, 0x01), 0x01)\n      swap1\n      swap3\n      and\n      swap2\n      swap1\n      swap2\n      or\n      swap1\n      sstore\n        /* \"contracts/worksystems/AddressManager.sol\":6202:6215  _addresses[i] */\n      dup2\n      mload\n        /* \"contracts/worksystems/AddressManager.sol\":6190:6200  msg.sender */\n      caller\n      swap1\n        /* \"contracts/worksystems/AddressManager.sol\":6169:6216  AddressAddedByMaster(msg.sender, _addresses[i]) */\n      0x8902b85532bfc55a9f5b6e6a9576366640928b3be984b3a61167a210ca2bbc57\n      swap1\n        /* \"contracts/worksystems/AddressManager.sol\":6202:6215  _addresses[i] */\n      dup5\n      swap1\n        /* \"contracts/worksystems/AddressManager.sol\":6213:6214  i */\n      dup5\n      swap1\n        /* \"contracts/worksystems/AddressManager.sol\":6202:6215  _addresses[i] */\n      dup2\n      lt\n      tag_188\n      jumpi\n      mstore(0x00, shl(0xe0, 0x4e487b71))\n      mstore(0x04, 0x32)\n      revert(0x00, 0x24)\n    tag_188:\n      0x20\n      mul\n      0x20\n      add\n      add\n      mload\n        /* \"contracts/worksystems/AddressManager.sol\":6169:6216  AddressAddedByMaster(msg.sender, _addresses[i]) */\n      mload(0x40)\n      tag_189\n      swap2\n      swap1\n      tag_54\n      jump\t// in\n    tag_189:\n      mload(0x40)\n      dup1\n      swap2\n      sub\n      swap1\n      log2\n        /* \"contracts/worksystems/AddressManager.sol\":5947:6232  if(MasterClaimingWorker[msg.sender][_addresses[i]] != true){\r... */\n    tag_184:\n        /* \"contracts/worksystems/AddressManager.sol\":5928:5931  i++ */\n      dup1\n      tag_190\n      dup2\n      tag_191\n      jump\t// in\n    tag_190:\n      swap2\n      pop\n      pop\n        /* \"contracts/worksystems/AddressManager.sol\":5890:6243  for(uint i = 0; i< _addresses.length; i++){\r... */\n      jump(tag_180)\n    tag_181:\n      pop\n        /* \"contracts/worksystems/AddressManager.sol\":5797:6250  function MasterClaimManySubs(address[] memory _addresses)\r... */\n      pop\n      jump\t// out\n        /* \"contracts/worksystems/AddressManager.sol\":6286:6669  function MasterRemoveSub(address _address)\r... */\n    tag_87:\n        /* \"contracts/worksystems/AddressManager.sol\":6398:6408  msg.sender */\n      caller\n        /* \"contracts/worksystems/AddressManager.sol\":6377:6409  MasterClaimingWorker[msg.sender] */\n      0x00\n      swap1\n      dup2\n      mstore\n        /* \"contracts/worksystems/AddressManager.sol\":6377:6397  MasterClaimingWorker */\n      0x01\n        /* \"contracts/worksystems/AddressManager.sol\":6377:6409  MasterClaimingWorker[msg.sender] */\n      0x20\n      swap1\n      dup2\n      mstore\n      0x40\n      dup1\n      dup4\n      keccak256\n      sub(shl(0xa0, 0x01), 0x01)\n        /* \"contracts/worksystems/AddressManager.sol\":6377:6419  MasterClaimingWorker[msg.sender][_address] */\n      dup6\n      and\n      dup5\n      mstore\n      swap1\n      swap2\n      mstore\n      swap1\n      keccak256\n      sload\n      0xff\n      and\n        /* \"contracts/worksystems/AddressManager.sol\":6369:6483  require(MasterClaimingWorker[msg.sender][_address] != false, \"Can't remove: Master not claiming this Sub Address\") */\n      tag_193\n      jumpi\n      mload(0x40)\n      shl(0xe5, 0x461bcd)\n      dup2\n      mstore\n      0x04\n      add\n      tag_149\n      swap1\n      tag_195\n      jump\t// in\n    tag_193:\n        /* \"contracts/worksystems/AddressManager.sol\":6515:6525  msg.sender */\n      caller\n        /* \"contracts/worksystems/AddressManager.sol\":6539:6544  false */\n      0x00\n        /* \"contracts/worksystems/AddressManager.sol\":6494:6526  MasterClaimingWorker[msg.sender] */\n      dup2\n      dup2\n      mstore\n        /* \"contracts/worksystems/AddressManager.sol\":6494:6514  MasterClaimingWorker */\n      0x01\n        /* \"contracts/worksystems/AddressManager.sol\":6494:6526  MasterClaimingWorker[msg.sender] */\n      0x20\n      swap1\n      dup2\n      mstore\n      0x40\n      dup1\n      dup4\n      keccak256\n      sub(shl(0xa0, 0x01), 0x01)\n        /* \"contracts/worksystems/AddressManager.sol\":6494:6536  MasterClaimingWorker[msg.sender][_address] */\n      dup7\n      and\n      dup5\n      mstore\n      swap1\n      swap2\n      mstore\n      swap1\n      keccak256\n        /* \"contracts/worksystems/AddressManager.sol\":6494:6544  MasterClaimingWorker[msg.sender][_address] = false */\n      dup1\n      sload\n      not(0xff)\n      and\n      swap1\n      sstore\n        /* \"contracts/worksystems/AddressManager.sol\":6555:6593  PopFromSubsArray(msg.sender, _address) */\n      tag_196\n      swap1\n        /* \"contracts/worksystems/AddressManager.sol\":6527:6535  _address */\n      dup3\n        /* \"contracts/worksystems/AddressManager.sol\":6555:6571  PopFromSubsArray */\n      tag_197\n        /* \"contracts/worksystems/AddressManager.sol\":6555:6593  PopFromSubsArray(msg.sender, _address) */\n      jump\t// in\n    tag_196:\n        /* \"contracts/worksystems/AddressManager.sol\":6632:6642  msg.sender */\n      caller\n      sub(shl(0xa0, 0x01), 0x01)\n        /* \"contracts/worksystems/AddressManager.sol\":6609:6653  AddressRemovedByMaster(msg.sender, _address) */\n      and\n      0x7a24ac72e272dd8c83b793ae84448c72032b95723856486219c79dd722fe4292\n        /* \"contracts/worksystems/AddressManager.sol\":6644:6652  _address */\n      dup3\n        /* \"contracts/worksystems/AddressManager.sol\":6609:6653  AddressRemovedByMaster(msg.sender, _address) */\n      mload(0x40)\n      tag_173\n      swap2\n      swap1\n      tag_54\n      jump\t// in\n        /* \"contracts/worksystems/AddressManager.sol\":1622:1657  IRewardManager public RewardManager */\n    tag_89:\n      and(sub(shl(0xa0, 0x01), 0x01), sload(0x08))\n      dup2\n      jump\t// out\n        /* \"contracts/worksystems/AddressManager.sol\":10166:10570  function RemoveMaster(address _master)\r... */\n    tag_94:\n      sub(shl(0xa0, 0x01), 0x01)\n        /* \"contracts/worksystems/AddressManager.sol\":10253:10282  WorkerClaimingMaster[_master] */\n      dup2\n      and\n      0x00\n      swap1\n      dup2\n      mstore\n        /* \"contracts/worksystems/AddressManager.sol\":10253:10273  WorkerClaimingMaster */\n      0x02\n        /* \"contracts/worksystems/AddressManager.sol\":10253:10282  WorkerClaimingMaster[_master] */\n      0x20\n      swap1\n      dup2\n      mstore\n      0x40\n      dup1\n      dup4\n      keccak256\n        /* \"contracts/worksystems/AddressManager.sol\":10283:10293  msg.sender */\n      caller\n        /* \"contracts/worksystems/AddressManager.sol\":10253:10294  WorkerClaimingMaster[_master][msg.sender] */\n      dup5\n      mstore\n      swap1\n      swap2\n      mstore\n      swap1\n      keccak256\n      sload\n      0xff\n      and\n        /* \"contracts/worksystems/AddressManager.sol\":10245:10354  require(WorkerClaimingMaster[_master][msg.sender] != false, \"Can't remove Master: not claiming this address\") */\n      tag_200\n      jumpi\n      mload(0x40)\n      shl(0xe5, 0x461bcd)\n      dup2\n      mstore\n      0x04\n      add\n      tag_149\n      swap1\n      tag_202\n      jump\t// in\n    tag_200:\n      sub(shl(0xa0, 0x01), 0x01)\n        /* \"contracts/worksystems/AddressManager.sol\":10365:10394  WorkerClaimingMaster[_master] */\n      dup2\n      and\n        /* \"contracts/worksystems/AddressManager.sol\":10409:10414  false */\n      0x00\n        /* \"contracts/worksystems/AddressManager.sol\":10365:10394  WorkerClaimingMaster[_master] */\n      swap1\n      dup2\n      mstore\n        /* \"contracts/worksystems/AddressManager.sol\":10365:10385  WorkerClaimingMaster */\n      0x02\n        /* \"contracts/worksystems/AddressManager.sol\":10365:10394  WorkerClaimingMaster[_master] */\n      0x20\n      swap1\n      dup2\n      mstore\n      0x40\n      dup1\n      dup4\n      keccak256\n        /* \"contracts/worksystems/AddressManager.sol\":10395:10405  msg.sender */\n      caller\n        /* \"contracts/worksystems/AddressManager.sol\":10365:10406  WorkerClaimingMaster[_master][msg.sender] */\n      dup1\n      dup6\n      mstore\n      swap1\n      dup4\n      mstore\n      dup2\n      dup5\n      keccak256\n        /* \"contracts/worksystems/AddressManager.sol\":10365:10414  WorkerClaimingMaster[_master][msg.sender] = false */\n      dup1\n      sload\n      not(0xff)\n      and\n      swap1\n      sstore\n        /* \"contracts/worksystems/AddressManager.sol\":10425:10439  SubToMasterMap */\n      0x04\n        /* \"contracts/worksystems/AddressManager.sol\":10425:10451  SubToMasterMap[msg.sender] */\n      swap1\n      swap3\n      mstore\n      swap2\n      dup3\n      swap1\n      keccak256\n        /* \"contracts/worksystems/AddressManager.sol\":10425:10464  SubToMasterMap[msg.sender] = address(0) */\n      dup1\n      sload\n      not(sub(shl(0xa0, 0x01), 0x01))\n      and\n      swap1\n      sstore\n        /* \"contracts/worksystems/AddressManager.sol\":10511:10554  AddressRemovedByWorker(msg.sender, _master) */\n      swap1\n      mload\n      0x0d7169440daf0897d7f4486a35eef15a070460981ff18ab846aa2199f171118e\n      swap1\n      tag_173\n      swap1\n        /* \"contracts/worksystems/AddressManager.sol\":10386:10393  _master */\n      dup5\n      swap1\n        /* \"contracts/worksystems/AddressManager.sol\":10511:10554  AddressRemovedByWorker(msg.sender, _master) */\n      tag_54\n      jump\t// in\n        /* \"@openzeppelin/contracts/access/Ownable.sol\":1668:1769  function renounceOwnership() public virtual onlyOwner {... */\n    tag_96:\n        /* \"@openzeppelin/contracts/access/Ownable.sol\":1259:1271  _msgSender() */\n      tag_205\n        /* \"@openzeppelin/contracts/access/Ownable.sol\":1259:1269  _msgSender */\n      tag_146\n        /* \"@openzeppelin/contracts/access/Ownable.sol\":1259:1271  _msgSender() */\n      jump\t// in\n    tag_205:\n      sub(shl(0xa0, 0x01), 0x01)\n        /* \"@openzeppelin/contracts/access/Ownable.sol\":1248:1271  owner() == _msgSender() */\n      and\n        /* \"@openzeppelin/contracts/access/Ownable.sol\":1248:1255  owner() */\n      tag_206\n        /* \"@openzeppelin/contracts/access/Ownable.sol\":1248:1253  owner */\n      tag_101\n        /* \"@openzeppelin/contracts/access/Ownable.sol\":1248:1255  owner() */\n      jump\t// in\n    tag_206:\n      sub(shl(0xa0, 0x01), 0x01)\n        /* \"@openzeppelin/contracts/access/Ownable.sol\":1248:1271  owner() == _msgSender() */\n      and\n      eq\n        /* \"@openzeppelin/contracts/access/Ownable.sol\":1240:1308  require(owner() == _msgSender(), \"Ownable: caller is not the owner\") */\n      tag_207\n      jumpi\n      mload(0x40)\n      shl(0xe5, 0x461bcd)\n      dup2\n      mstore\n      0x04\n      add\n      tag_149\n      swap1\n      tag_150\n      jump\t// in\n    tag_207:\n        /* \"@openzeppelin/contracts/access/Ownable.sol\":1732:1762  _transferOwnership(address(0)) */\n      tag_210\n        /* \"@openzeppelin/contracts/access/Ownable.sol\":1759:1760  0 */\n      0x00\n        /* \"@openzeppelin/contracts/access/Ownable.sol\":1732:1750  _transferOwnership */\n      tag_211\n        /* \"@openzeppelin/contracts/access/Ownable.sol\":1732:1762  _transferOwnership(address(0)) */\n      jump\t// in\n    tag_210:\n        /* \"@openzeppelin/contracts/access/Ownable.sol\":1668:1769  function renounceOwnership() public virtual onlyOwner {... */\n      jump\t// out\n        /* \"contracts/worksystems/AddressManager.sol\":6677:7131  function MasterRemoveManySubs(address[] memory _addresses)\r... */\n    tag_99:\n        /* \"contracts/worksystems/AddressManager.sol\":6775:6781  uint i */\n      0x00\n        /* \"contracts/worksystems/AddressManager.sol\":6771:7124  for(uint i = 0; i< _addresses.length; i++){\r... */\n    tag_213:\n        /* \"contracts/worksystems/AddressManager.sol\":6790:6800  _addresses */\n      dup2\n        /* \"contracts/worksystems/AddressManager.sol\":6790:6807  _addresses.length */\n      mload\n        /* \"contracts/worksystems/AddressManager.sol\":6787:6788  i */\n      dup2\n        /* \"contracts/worksystems/AddressManager.sol\":6787:6807  i< _addresses.length */\n      lt\n        /* \"contracts/worksystems/AddressManager.sol\":6771:7124  for(uint i = 0; i< _addresses.length; i++){\r... */\n      iszero\n      tag_181\n      jumpi\n        /* \"contracts/worksystems/AddressManager.sol\":6852:6862  msg.sender */\n      caller\n        /* \"contracts/worksystems/AddressManager.sol\":6831:6863  MasterClaimingWorker[msg.sender] */\n      0x00\n      swap1\n      dup2\n      mstore\n        /* \"contracts/worksystems/AddressManager.sol\":6831:6851  MasterClaimingWorker */\n      0x01\n        /* \"contracts/worksystems/AddressManager.sol\":6831:6863  MasterClaimingWorker[msg.sender] */\n      0x20\n      mstore\n      0x40\n      dup2\n      keccak256\n        /* \"contracts/worksystems/AddressManager.sol\":6864:6877  _addresses[i] */\n      dup4\n      mload\n        /* \"contracts/worksystems/AddressManager.sol\":6831:6863  MasterClaimingWorker[msg.sender] */\n      swap1\n      swap2\n      swap1\n        /* \"contracts/worksystems/AddressManager.sol\":6864:6874  _addresses */\n      dup5\n      swap1\n        /* \"contracts/worksystems/AddressManager.sol\":6875:6876  i */\n      dup5\n      swap1\n        /* \"contracts/worksystems/AddressManager.sol\":6864:6877  _addresses[i] */\n      dup2\n      lt\n      tag_216\n      jumpi\n      mstore(0x00, shl(0xe0, 0x4e487b71))\n      mstore(0x04, 0x32)\n      revert(0x00, 0x24)\n    tag_216:\n      0x20\n      swap1\n      dup2\n      mul\n      swap2\n      swap1\n      swap2\n      add\n      dup2\n      add\n      mload\n      sub(shl(0xa0, 0x01), 0x01)\n        /* \"contracts/worksystems/AddressManager.sol\":6831:6878  MasterClaimingWorker[msg.sender][_addresses[i]] */\n      and\n      dup3\n      mstore\n      dup2\n      add\n      swap2\n      swap1\n      swap2\n      mstore\n      0x40\n      add\n      0x00\n      keccak256\n      sload\n      0xff\n      and\n        /* \"contracts/worksystems/AddressManager.sol\":6831:6887  MasterClaimingWorker[msg.sender][_addresses[i]] != false */\n      iszero\n        /* \"contracts/worksystems/AddressManager.sol\":6828:7113  if(MasterClaimingWorker[msg.sender][_addresses[i]] != false){\r... */\n      tag_217\n      jumpi\n        /* \"contracts/worksystems/AddressManager.sol\":6928:6938  msg.sender */\n      caller\n        /* \"contracts/worksystems/AddressManager.sol\":6957:6962  false */\n      0x00\n        /* \"contracts/worksystems/AddressManager.sol\":6907:6939  MasterClaimingWorker[msg.sender] */\n      swap1\n      dup2\n      mstore\n        /* \"contracts/worksystems/AddressManager.sol\":6907:6927  MasterClaimingWorker */\n      0x01\n        /* \"contracts/worksystems/AddressManager.sol\":6907:6939  MasterClaimingWorker[msg.sender] */\n      0x20\n      mstore\n      0x40\n      dup2\n      keccak256\n        /* \"contracts/worksystems/AddressManager.sol\":6940:6953  _addresses[i] */\n      dup4\n      mload\n        /* \"contracts/worksystems/AddressManager.sol\":6957:6962  false */\n      dup3\n      swap1\n        /* \"contracts/worksystems/AddressManager.sol\":6940:6950  _addresses */\n      dup6\n      swap1\n        /* \"contracts/worksystems/AddressManager.sol\":6951:6952  i */\n      dup6\n      swap1\n        /* \"contracts/worksystems/AddressManager.sol\":6940:6953  _addresses[i] */\n      dup2\n      lt\n      tag_218\n      jumpi\n      mstore(0x00, shl(0xe0, 0x4e487b71))\n      mstore(0x04, 0x32)\n      revert(0x00, 0x24)\n    tag_218:\n      0x20\n      mul\n      0x20\n      add\n      add\n      mload\n      sub(shl(0xa0, 0x01), 0x01)\n        /* \"contracts/worksystems/AddressManager.sol\":6907:6954  MasterClaimingWorker[msg.sender][_addresses[i]] */\n      and\n      sub(shl(0xa0, 0x01), 0x01)\n      and\n      dup2\n      mstore\n      0x20\n      add\n      swap1\n      dup2\n      mstore\n      0x20\n      add\n      0x00\n      keccak256\n      0x00\n        /* \"contracts/worksystems/AddressManager.sol\":6907:6962  MasterClaimingWorker[msg.sender][_addresses[i]] = false */\n      0x0100\n      exp\n      dup2\n      sload\n      dup2\n      0xff\n      mul\n      not\n      and\n      swap1\n      dup4\n      iszero\n      iszero\n      mul\n      or\n      swap1\n      sstore\n      pop\n        /* \"contracts/worksystems/AddressManager.sol\":6981:7024  PopFromSubsArray(msg.sender, _addresses[i]) */\n      tag_219\n        /* \"contracts/worksystems/AddressManager.sol\":6998:7008  msg.sender */\n      caller\n        /* \"contracts/worksystems/AddressManager.sol\":7010:7020  _addresses */\n      dup4\n        /* \"contracts/worksystems/AddressManager.sol\":7021:7022  i */\n      dup4\n        /* \"contracts/worksystems/AddressManager.sol\":7010:7023  _addresses[i] */\n      dup2\n      mload\n      dup2\n      lt\n      tag_220\n      jumpi\n      mstore(0x00, shl(0xe0, 0x4e487b71))\n      mstore(0x04, 0x32)\n      revert(0x00, 0x24)\n    tag_220:\n      0x20\n      mul\n      0x20\n      add\n      add\n      mload\n        /* \"contracts/worksystems/AddressManager.sol\":6981:6997  PopFromSubsArray */\n      tag_197\n        /* \"contracts/worksystems/AddressManager.sol\":6981:7024  PopFromSubsArray(msg.sender, _addresses[i]) */\n      jump\t// in\n    tag_219:\n        /* \"contracts/worksystems/AddressManager.sol\":7071:7081  msg.sender */\n      caller\n      sub(shl(0xa0, 0x01), 0x01)\n        /* \"contracts/worksystems/AddressManager.sol\":7048:7097  AddressRemovedByMaster(msg.sender, _addresses[i]) */\n      and\n      0x7a24ac72e272dd8c83b793ae84448c72032b95723856486219c79dd722fe4292\n        /* \"contracts/worksystems/AddressManager.sol\":7083:7093  _addresses */\n      dup4\n        /* \"contracts/worksystems/AddressManager.sol\":7094:7095  i */\n      dup4\n        /* \"contracts/worksystems/AddressManager.sol\":7083:7096  _addresses[i] */\n      dup2\n      mload\n      dup2\n      lt\n      tag_221\n      jumpi\n      mstore(0x00, shl(0xe0, 0x4e487b71))\n      mstore(0x04, 0x32)\n      revert(0x00, 0x24)\n    tag_221:\n      0x20\n      mul\n      0x20\n      add\n      add\n      mload\n        /* \"contracts/worksystems/AddressManager.sol\":7048:7097  AddressRemovedByMaster(msg.sender, _addresses[i]) */\n      mload(0x40)\n      tag_222\n      swap2\n      swap1\n      tag_54\n      jump\t// in\n    tag_222:\n      mload(0x40)\n      dup1\n      swap2\n      sub\n      swap1\n      log2\n        /* \"contracts/worksystems/AddressManager.sol\":6828:7113  if(MasterClaimingWorker[msg.sender][_addresses[i]] != false){\r... */\n    tag_217:\n        /* \"contracts/worksystems/AddressManager.sol\":6809:6812  i++ */\n      dup1\n      tag_223\n      dup2\n      tag_191\n      jump\t// in\n    tag_223:\n      swap2\n      pop\n      pop\n        /* \"contracts/worksystems/AddressManager.sol\":6771:7124  for(uint i = 0; i< _addresses.length; i++){\r... */\n      jump(tag_213)\n        /* \"@openzeppelin/contracts/access/Ownable.sol\":1036:1121  function owner() public view virtual returns (address) {... */\n    tag_101:\n        /* \"@openzeppelin/contracts/access/Ownable.sol\":1082:1089  address */\n      0x00\n        /* \"@openzeppelin/contracts/access/Ownable.sol\":1108:1114  _owner */\n      sload\n      sub(shl(0xa0, 0x01), 0x01)\n      and\n        /* \"@openzeppelin/contracts/access/Ownable.sol\":1036:1121  function owner() public view virtual returns (address) {... */\n      swap1\n      jump\t// out\n        /* \"contracts/worksystems/AddressManager.sol\":2982:3164  function isMasterOf(address _master, address _address)\r... */\n    tag_105:\n      sub(shl(0xa0, 0x01), 0x01)\n        /* \"contracts/worksystems/AddressManager.sol\":3117:3146  MasterClaimingWorker[_master] */\n      swap2\n      dup3\n      and\n        /* \"contracts/worksystems/AddressManager.sol\":3085:3089  bool */\n      0x00\n        /* \"contracts/worksystems/AddressManager.sol\":3117:3146  MasterClaimingWorker[_master] */\n      swap1\n      dup2\n      mstore\n        /* \"contracts/worksystems/AddressManager.sol\":3117:3137  MasterClaimingWorker */\n      0x01\n        /* \"contracts/worksystems/AddressManager.sol\":3117:3146  MasterClaimingWorker[_master] */\n      0x20\n      swap1\n      dup2\n      mstore\n      0x40\n      dup1\n      dup4\n      keccak256\n        /* \"contracts/worksystems/AddressManager.sol\":3117:3156  MasterClaimingWorker[_master][_address] */\n      swap4\n      swap1\n      swap5\n      and\n      dup3\n      mstore\n      swap2\n      swap1\n      swap2\n      mstore\n      keccak256\n      sload\n      0xff\n      and\n      swap1\n        /* \"contracts/worksystems/AddressManager.sol\":2982:3164  function isMasterOf(address _master, address _address)\r... */\n      jump\t// out\n        /* \"contracts/worksystems/AddressManager.sol\":1550:1579  IReputation public Reputation */\n    tag_108:\n      and(sub(shl(0xa0, 0x01), 0x01), sload(0x06))\n      dup2\n      jump\t// out\n        /* \"contracts/worksystems/AddressManager.sol\":5037:5255  function AreMasterSubLinked(address _master, address _address)\r... */\n    tag_113:\n        /* \"contracts/worksystems/AddressManager.sol\":5148:5152  bool */\n      0x00\n        /* \"contracts/worksystems/AddressManager.sol\":5181:5213  isSubWorkerOf(_master, _address) */\n      tag_227\n        /* \"contracts/worksystems/AddressManager.sol\":5195:5202  _master */\n      dup4\n        /* \"contracts/worksystems/AddressManager.sol\":5204:5212  _address */\n      dup4\n        /* \"contracts/worksystems/AddressManager.sol\":5181:5194  isSubWorkerOf */\n      tag_105\n        /* \"contracts/worksystems/AddressManager.sol\":5181:5213  isSubWorkerOf(_master, _address) */\n      jump\t// in\n    tag_227:\n        /* \"contracts/worksystems/AddressManager.sol\":5181:5246  isSubWorkerOf(_master, _address) && isMasterOf(_master, _address) */\n      dup1\n      iszero\n      tag_229\n      jumpi\n      pop\n        /* \"contracts/worksystems/AddressManager.sol\":5217:5246  isMasterOf(_master, _address) */\n      tag_229\n        /* \"contracts/worksystems/AddressManager.sol\":5228:5235  _master */\n      dup4\n        /* \"contracts/worksystems/AddressManager.sol\":5237:5245  _address */\n      dup4\n        /* \"contracts/worksystems/AddressManager.sol\":5217:5227  isMasterOf */\n      tag_105\n        /* \"contracts/worksystems/AddressManager.sol\":5217:5246  isMasterOf(_master, _address) */\n      jump\t// in\n    tag_229:\n        /* \"contracts/worksystems/AddressManager.sol\":5173:5247  return (isSubWorkerOf(_master, _address) && isMasterOf(_master, _address)) */\n      swap4\n        /* \"contracts/worksystems/AddressManager.sol\":5037:5255  function AreMasterSubLinked(address _master, address _address)\r... */\n      swap3\n      pop\n      pop\n      pop\n      jump\t// out\n        /* \"contracts/worksystems/AddressManager.sol\":2804:2972  function isMasterOfMe(address _master)\r... */\n    tag_121:\n      sub(shl(0xa0, 0x01), 0x01)\n        /* \"contracts/worksystems/AddressManager.sol\":2923:2952  MasterClaimingWorker[_master] */\n      and\n        /* \"contracts/worksystems/AddressManager.sol\":2891:2895  bool */\n      0x00\n        /* \"contracts/worksystems/AddressManager.sol\":2923:2952  MasterClaimingWorker[_master] */\n      swap1\n      dup2\n      mstore\n        /* \"contracts/worksystems/AddressManager.sol\":2923:2943  MasterClaimingWorker */\n      0x01\n        /* \"contracts/worksystems/AddressManager.sol\":2923:2952  MasterClaimingWorker[_master] */\n      0x20\n      swap1\n      dup2\n      mstore\n      0x40\n      dup1\n      dup4\n      keccak256\n        /* \"contracts/worksystems/AddressManager.sol\":2953:2963  msg.sender */\n      caller\n        /* \"contracts/worksystems/AddressManager.sol\":2923:2964  MasterClaimingWorker[_master][msg.sender] */\n      dup5\n      mstore\n      swap1\n      swap2\n      mstore\n      swap1\n      keccak256\n      sload\n      0xff\n      and\n      swap1\n        /* \"contracts/worksystems/AddressManager.sol\":2804:2972  function isMasterOfMe(address _master)\r... */\n      jump\t// out\n        /* \"contracts/worksystems/AddressManager.sol\":2463:2585  function updateRepManager(address addr)\r... */\n    tag_125:\n        /* \"@openzeppelin/contracts/access/Ownable.sol\":1259:1271  _msgSender() */\n      tag_233\n        /* \"@openzeppelin/contracts/access/Ownable.sol\":1259:1269  _msgSender */\n      tag_146\n        /* \"@openzeppelin/contracts/access/Ownable.sol\":1259:1271  _msgSender() */\n      jump\t// in\n    tag_233:\n      sub(shl(0xa0, 0x01), 0x01)\n        /* \"@openzeppelin/contracts/access/Ownable.sol\":1248:1271  owner() == _msgSender() */\n      and\n        /* \"@openzeppelin/contracts/access/Ownable.sol\":1248:1255  owner() */\n      tag_234\n        /* \"@openzeppelin/contracts/access/Ownable.sol\":1248:1253  owner */\n      tag_101\n        /* \"@openzeppelin/contracts/access/Ownable.sol\":1248:1255  owner() */\n      jump\t// in\n    tag_234:\n      sub(shl(0xa0, 0x01), 0x01)\n        /* \"@openzeppelin/contracts/access/Ownable.sol\":1248:1271  owner() == _msgSender() */\n      and\n      eq\n        /* \"@openzeppelin/contracts/access/Ownable.sol\":1240:1308  require(owner() == _msgSender(), \"Ownable: caller is not the owner\") */\n      tag_235\n      jumpi\n      mload(0x40)\n      shl(0xe5, 0x461bcd)\n      dup2\n      mstore\n      0x04\n      add\n      tag_149\n      swap1\n      tag_150\n      jump\t// in\n    tag_235:\n        /* \"contracts/worksystems/AddressManager.sol\":2546:2556  RepManager */\n      0x07\n        /* \"contracts/worksystems/AddressManager.sol\":2546:2577  RepManager  = IRepManager(addr) */\n      dup1\n      sload\n      not(sub(shl(0xa0, 0x01), 0x01))\n      and\n      sub(shl(0xa0, 0x01), 0x01)\n      swap3\n      swap1\n      swap3\n      and\n      swap2\n      swap1\n      swap2\n      or\n      swap1\n      sstore\n        /* \"contracts/worksystems/AddressManager.sol\":2463:2585  function updateRepManager(address addr)\r... */\n      jump\t// out\n        /* \"contracts/worksystems/AddressManager.sol\":9680:10158  function ClaimMaster(address _master)\r... */\n    tag_128:\n      sub(shl(0xa0, 0x01), 0x01)\n        /* \"contracts/worksystems/AddressManager.sol\":9758:9787  WorkerClaimingMaster[_master] */\n      dup2\n      and\n      0x00\n      swap1\n      dup2\n      mstore\n        /* \"contracts/worksystems/AddressManager.sol\":9758:9778  WorkerClaimingMaster */\n      0x02\n        /* \"contracts/worksystems/AddressManager.sol\":9758:9787  WorkerClaimingMaster[_master] */\n      0x20\n      swap1\n      dup2\n      mstore\n      0x40\n      dup1\n      dup4\n      keccak256\n        /* \"contracts/worksystems/AddressManager.sol\":9788:9798  msg.sender */\n      caller\n        /* \"contracts/worksystems/AddressManager.sol\":9758:9799  WorkerClaimingMaster[_master][msg.sender] */\n      dup5\n      mstore\n      swap1\n      swap2\n      mstore\n      swap1\n      keccak256\n      sload\n      0xff\n      and\n        /* \"contracts/worksystems/AddressManager.sol\":9758:9807  WorkerClaimingMaster[_master][msg.sender] != true */\n      iszero\n      iszero\n        /* \"contracts/worksystems/AddressManager.sol\":9758:9799  WorkerClaimingMaster[_master][msg.sender] */\n      0x01\n        /* \"contracts/worksystems/AddressManager.sol\":9758:9807  WorkerClaimingMaster[_master][msg.sender] != true */\n      eq\n      iszero\n        /* \"contracts/worksystems/AddressManager.sol\":9750:9861  require(WorkerClaimingMaster[_master][msg.sender] != true, \"Can't claim Master: already claiming this address\") */\n      tag_239\n      jumpi\n      mload(0x40)\n      shl(0xe5, 0x461bcd)\n      dup2\n      mstore\n      0x04\n      add\n      tag_149\n      swap1\n      tag_241\n      jump\t// in\n    tag_239:\n      sub(shl(0xa0, 0x01), 0x01)\n        /* \"contracts/worksystems/AddressManager.sol\":9872:9901  WorkerClaimingMaster[_master] */\n      dup2\n      and\n      0x00\n      dup2\n      dup2\n      mstore\n        /* \"contracts/worksystems/AddressManager.sol\":9872:9892  WorkerClaimingMaster */\n      0x02\n        /* \"contracts/worksystems/AddressManager.sol\":9872:9901  WorkerClaimingMaster[_master] */\n      0x20\n      swap1\n      dup2\n      mstore\n      0x40\n      dup1\n      dup4\n      keccak256\n        /* \"contracts/worksystems/AddressManager.sol\":9902:9912  msg.sender */\n      caller\n        /* \"contracts/worksystems/AddressManager.sol\":9872:9913  WorkerClaimingMaster[_master][msg.sender] */\n      dup1\n      dup6\n      mstore\n      swap1\n      dup4\n      mstore\n      dup2\n      dup5\n      keccak256\n        /* \"contracts/worksystems/AddressManager.sol\":9872:9920  WorkerClaimingMaster[_master][msg.sender] = true */\n      dup1\n      sload\n      not(0xff)\n      and\n        /* \"contracts/worksystems/AddressManager.sol\":9916:9920  true */\n      0x01\n        /* \"contracts/worksystems/AddressManager.sol\":9872:9920  WorkerClaimingMaster[_master][msg.sender] = true */\n      or\n      swap1\n      sstore\n        /* \"contracts/worksystems/AddressManager.sol\":9931:9945  SubToMasterMap */\n      0x04\n        /* \"contracts/worksystems/AddressManager.sol\":9931:9957  SubToMasterMap[msg.sender] */\n      swap1\n      swap3\n      mstore\n      swap1\n      swap2\n      keccak256\n        /* \"contracts/worksystems/AddressManager.sol\":9931:9967  SubToMasterMap[msg.sender] = _master */\n      dup1\n      sload\n      not(sub(shl(0xa0, 0x01), 0x01))\n      and\n      swap1\n      swap3\n      or\n      swap1\n      swap2\n      sstore\n        /* \"contracts/worksystems/AddressManager.sol\":10016:10047  TransferRepToMaster(msg.sender) */\n      tag_242\n      swap1\n        /* \"contracts/worksystems/AddressManager.sol\":10016:10035  TransferRepToMaster */\n      tag_243\n        /* \"contracts/worksystems/AddressManager.sol\":10016:10047  TransferRepToMaster(msg.sender) */\n      jump\t// in\n    tag_242:\n        /* \"contracts/worksystems/AddressManager.sol\":10058:10093  TransferRewardsToMaster(msg.sender) */\n      tag_244\n        /* \"contracts/worksystems/AddressManager.sol\":10082:10092  msg.sender */\n      caller\n        /* \"contracts/worksystems/AddressManager.sol\":10058:10081  TransferRewardsToMaster */\n      tag_245\n        /* \"contracts/worksystems/AddressManager.sol\":10058:10093  TransferRewardsToMaster(msg.sender) */\n      jump\t// in\n    tag_244:\n        /* \"contracts/worksystems/AddressManager.sol\":10130:10140  msg.sender */\n      caller\n      sub(shl(0xa0, 0x01), 0x01)\n        /* \"contracts/worksystems/AddressManager.sol\":10109:10150  AddressAddedByWorker(msg.sender, _master) */\n      and\n      0x85851bdf5239daecee00c49afa200b87f208a1cc246f3c3da177796c9f605d73\n        /* \"contracts/worksystems/AddressManager.sol\":10142:10149  _master */\n      dup3\n        /* \"contracts/worksystems/AddressManager.sol\":10109:10150  AddressAddedByWorker(msg.sender, _master) */\n      mload(0x40)\n      tag_173\n      swap2\n      swap1\n      tag_54\n      jump\t// in\n        /* \"contracts/worksystems/AddressManager.sol\":1305:1356  mapping (address =>  address) public SubToMasterMap */\n    tag_131:\n      mstore(0x20, 0x04)\n      0x00\n      swap1\n      dup2\n      mstore\n      0x40\n      swap1\n      keccak256\n      sload\n      sub(shl(0xa0, 0x01), 0x01)\n      and\n      dup2\n      jump\t// out\n        /* \"contracts/worksystems/AddressManager.sol\":4184:4334  function getMaster(address _worker)\r... */\n    tag_135:\n      sub(shl(0xa0, 0x01), 0x01)\n        /* \"contracts/worksystems/AddressManager.sol\":4303:4326  SubToMasterMap[_worker] */\n      swap1\n      dup2\n      and\n        /* \"contracts/worksystems/AddressManager.sol\":4268:4275  address */\n      0x00\n        /* \"contracts/worksystems/AddressManager.sol\":4303:4326  SubToMasterMap[_worker] */\n      swap1\n      dup2\n      mstore\n        /* \"contracts/worksystems/AddressManager.sol\":4303:4317  SubToMasterMap */\n      0x04\n        /* \"contracts/worksystems/AddressManager.sol\":4303:4326  SubToMasterMap[_worker] */\n      0x20\n      mstore\n      0x40\n      swap1\n      keccak256\n      sload\n      and\n      swap1\n        /* \"contracts/worksystems/AddressManager.sol\":4184:4334  function getMaster(address _worker)\r... */\n      jump\t// out\n        /* \"@openzeppelin/contracts/access/Ownable.sol\":1918:2116  function transferOwnership(address newOwner) public virtual onlyOwner {... */\n    tag_139:\n        /* \"@openzeppelin/contracts/access/Ownable.sol\":1259:1271  _msgSender() */\n      tag_249\n        /* \"@openzeppelin/contracts/access/Ownable.sol\":1259:1269  _msgSender */\n      tag_146\n        /* \"@openzeppelin/contracts/access/Ownable.sol\":1259:1271  _msgSender() */\n      jump\t// in\n    tag_249:\n      sub(shl(0xa0, 0x01), 0x01)\n        /* \"@openzeppelin/contracts/access/Ownable.sol\":1248:1271  owner() == _msgSender() */\n      and\n        /* \"@openzeppelin/contracts/access/Ownable.sol\":1248:1255  owner() */\n      tag_250\n        /* \"@openzeppelin/contracts/access/Ownable.sol\":1248:1253  owner */\n      tag_101\n        /* \"@openzeppelin/contracts/access/Ownable.sol\":1248:1255  owner() */\n      jump\t// in\n    tag_250:\n      sub(shl(0xa0, 0x01), 0x01)\n        /* \"@openzeppelin/contracts/access/Ownable.sol\":1248:1271  owner() == _msgSender() */\n      and\n      eq\n        /* \"@openzeppelin/contracts/access/Ownable.sol\":1240:1308  require(owner() == _msgSender(), \"Ownable: caller is not the owner\") */\n      tag_251\n      jumpi\n      mload(0x40)\n      shl(0xe5, 0x461bcd)\n      dup2\n      mstore\n      0x04\n      add\n      tag_149\n      swap1\n      tag_150\n      jump\t// in\n    tag_251:\n      sub(shl(0xa0, 0x01), 0x01)\n        /* \"@openzeppelin/contracts/access/Ownable.sol\":2006:2028  newOwner != address(0) */\n      dup2\n      and\n        /* \"@openzeppelin/contracts/access/Ownable.sol\":1998:2071  require(newOwner != address(0), \"Ownable: new owner is the zero address\") */\n      tag_254\n      jumpi\n      mload(0x40)\n      shl(0xe5, 0x461bcd)\n      dup2\n      mstore\n      0x04\n      add\n      tag_149\n      swap1\n      tag_256\n      jump\t// in\n    tag_254:\n        /* \"@openzeppelin/contracts/access/Ownable.sol\":2081:2109  _transferOwnership(newOwner) */\n      tag_257\n        /* \"@openzeppelin/contracts/access/Ownable.sol\":2100:2108  newOwner */\n      dup2\n        /* \"@openzeppelin/contracts/access/Ownable.sol\":2081:2099  _transferOwnership */\n      tag_211\n        /* \"@openzeppelin/contracts/access/Ownable.sol\":2081:2109  _transferOwnership(newOwner) */\n      jump\t// in\n    tag_257:\n        /* \"@openzeppelin/contracts/access/Ownable.sol\":1918:2116  function transferOwnership(address newOwner) public virtual onlyOwner {... */\n      pop\n      jump\t// out\n        /* \"contracts/worksystems/AddressManager.sol\":3778:4176  function isSubInMasterArray(address _worker, address _master) public view returns(bool){\r... */\n    tag_142:\n      sub(shl(0xa0, 0x01), 0x01)\n        /* \"contracts/worksystems/AddressManager.sol\":3937:3961  MasterToSubsMap[_master] */\n      dup2\n      and\n        /* \"contracts/worksystems/AddressManager.sol\":3860:3864  bool */\n      0x00\n        /* \"contracts/worksystems/AddressManager.sol\":3937:3961  MasterToSubsMap[_master] */\n      swap1\n      dup2\n      mstore\n        /* \"contracts/worksystems/AddressManager.sol\":3937:3952  MasterToSubsMap */\n      0x03\n        /* \"contracts/worksystems/AddressManager.sol\":3937:3961  MasterToSubsMap[_master] */\n      0x20\n      swap1\n      dup2\n      mstore\n      0x40\n      dup1\n      dup4\n      keccak256\n        /* \"contracts/worksystems/AddressManager.sol\":3905:3961  address[] memory sub_workers_ = MasterToSubsMap[_master] */\n      dup1\n      sload\n      dup3\n      mload\n      dup2\n      dup6\n      mul\n      dup2\n      add\n      dup6\n      add\n      swap1\n      swap4\n      mstore\n      dup1\n      dup4\n      mstore\n        /* \"contracts/worksystems/AddressManager.sol\":3860:3864  bool */\n      dup5\n      swap4\n      dup5\n      swap4\n        /* \"contracts/worksystems/AddressManager.sol\":3905:3961  address[] memory sub_workers_ = MasterToSubsMap[_master] */\n      swap3\n        /* \"contracts/worksystems/AddressManager.sol\":3937:3961  MasterToSubsMap[_master] */\n      swap2\n        /* \"contracts/worksystems/AddressManager.sol\":3905:3961  address[] memory sub_workers_ = MasterToSubsMap[_master] */\n      swap1\n      dup4\n      add\n        /* \"contracts/worksystems/AddressManager.sol\":3937:3961  MasterToSubsMap[_master] */\n      dup3\n        /* \"contracts/worksystems/AddressManager.sol\":3905:3961  address[] memory sub_workers_ = MasterToSubsMap[_master] */\n      dup3\n      dup1\n      iszero\n      tag_259\n      jumpi\n      0x20\n      mul\n      dup3\n      add\n      swap2\n      swap1\n      0x00\n      mstore\n      keccak256(0x00, 0x20)\n      swap1\n    tag_260:\n      dup2\n      sload\n      sub(shl(0xa0, 0x01), 0x01)\n      and\n      dup2\n      mstore\n      0x01\n      swap1\n      swap2\n      add\n      swap1\n      0x20\n      add\n      dup1\n      dup4\n      gt\n      tag_260\n      jumpi\n    tag_259:\n      pop\n      pop\n      pop\n      pop\n      pop\n      swap1\n      pop\n        /* \"contracts/worksystems/AddressManager.sol\":3976:3985  uint256 i */\n      0x00\n        /* \"contracts/worksystems/AddressManager.sol\":3972:4146  for(uint256 i = 0; i< sub_workers_.length; i++){\r... */\n    tag_261:\n        /* \"contracts/worksystems/AddressManager.sol\":3994:4006  sub_workers_ */\n      dup2\n        /* \"contracts/worksystems/AddressManager.sol\":3994:4013  sub_workers_.length */\n      mload\n        /* \"contracts/worksystems/AddressManager.sol\":3991:3992  i */\n      dup2\n        /* \"contracts/worksystems/AddressManager.sol\":3991:4013  i< sub_workers_.length */\n      lt\n        /* \"contracts/worksystems/AddressManager.sol\":3972:4146  for(uint256 i = 0; i< sub_workers_.length; i++){\r... */\n      iszero\n      tag_262\n      jumpi\n        /* \"contracts/worksystems/AddressManager.sol\":4056:4063  _worker */\n      dup6\n      sub(shl(0xa0, 0x01), 0x01)\n        /* \"contracts/worksystems/AddressManager.sol\":4037:4063  sub_workers_[i] == _worker */\n      and\n        /* \"contracts/worksystems/AddressManager.sol\":4037:4049  sub_workers_ */\n      dup3\n        /* \"contracts/worksystems/AddressManager.sol\":4050:4051  i */\n      dup3\n        /* \"contracts/worksystems/AddressManager.sol\":4037:4052  sub_workers_[i] */\n      dup2\n      mload\n      dup2\n      lt\n      tag_264\n      jumpi\n      mstore(0x00, shl(0xe0, 0x4e487b71))\n      mstore(0x04, 0x32)\n      revert(0x00, 0x24)\n    tag_264:\n      0x20\n      mul\n      0x20\n      add\n      add\n      mload\n      sub(shl(0xa0, 0x01), 0x01)\n        /* \"contracts/worksystems/AddressManager.sol\":4037:4063  sub_workers_[i] == _worker */\n      and\n      eq\n        /* \"contracts/worksystems/AddressManager.sol\":4034:4135  if(sub_workers_[i] == _worker){\r... */\n      iszero\n      tag_265\n      jumpi\n        /* \"contracts/worksystems/AddressManager.sol\":4091:4095  true */\n      0x01\n        /* \"contracts/worksystems/AddressManager.sol\":4083:4095  found = true */\n      swap3\n      pop\n        /* \"contracts/worksystems/AddressManager.sol\":4114:4119  break */\n      jump(tag_262)\n        /* \"contracts/worksystems/AddressManager.sol\":4034:4135  if(sub_workers_[i] == _worker){\r... */\n    tag_265:\n        /* \"contracts/worksystems/AddressManager.sol\":4015:4018  i++ */\n      dup1\n      tag_266\n      dup2\n      tag_191\n      jump\t// in\n    tag_266:\n      swap2\n      pop\n      pop\n        /* \"contracts/worksystems/AddressManager.sol\":3972:4146  for(uint256 i = 0; i< sub_workers_.length; i++){\r... */\n      jump(tag_261)\n    tag_262:\n      pop\n        /* \"contracts/worksystems/AddressManager.sol\":4163:4168  found */\n      swap1\n      swap5\n        /* \"contracts/worksystems/AddressManager.sol\":3778:4176  function isSubInMasterArray(address _worker, address _master) public view returns(bool){\r... */\n      swap4\n      pop\n      pop\n      pop\n      pop\n      jump\t// out\n        /* \"@openzeppelin/contracts/utils/Context.sol\":640:736  function _msgSender() internal view virtual returns (address) {... */\n    tag_146:\n        /* \"@openzeppelin/contracts/utils/Context.sol\":719:729  msg.sender */\n      caller\n        /* \"@openzeppelin/contracts/utils/Context.sol\":640:736  function _msgSender() internal view virtual returns (address) {... */\n      swap1\n      jump\t// out\n        /* \"contracts/worksystems/AddressManager.sol\":4342:4962  function PopFromSubsArray(address _master, address _worker) internal{\r... */\n    tag_197:\n        /* \"contracts/worksystems/AddressManager.sol\":4421:4434  uint256 index */\n      0x00\n        /* \"contracts/worksystems/AddressManager.sol\":4449:4459  bool found */\n      dup1\n        /* \"contracts/worksystems/AddressManager.sol\":4482:4491  uint256 i */\n      0x00\n        /* \"contracts/worksystems/AddressManager.sol\":4478:4704  for(uint256 i = 0; i< MasterToSubsMap[_master].length; i++){\r... */\n    tag_269:\n      sub(shl(0xa0, 0x01), 0x01)\n        /* \"contracts/worksystems/AddressManager.sol\":4500:4524  MasterToSubsMap[_master] */\n      dup6\n      and\n      0x00\n      swap1\n      dup2\n      mstore\n        /* \"contracts/worksystems/AddressManager.sol\":4500:4515  MasterToSubsMap */\n      0x03\n        /* \"contracts/worksystems/AddressManager.sol\":4500:4524  MasterToSubsMap[_master] */\n      0x20\n      mstore\n      0x40\n      swap1\n      keccak256\n        /* \"contracts/worksystems/AddressManager.sol\":4500:4531  MasterToSubsMap[_master].length */\n      sload\n        /* \"contracts/worksystems/AddressManager.sol\":4497:4531  i< MasterToSubsMap[_master].length */\n      dup2\n      lt\n        /* \"contracts/worksystems/AddressManager.sol\":4478:4704  for(uint256 i = 0; i< MasterToSubsMap[_master].length; i++){\r... */\n      iszero\n      tag_270\n      jumpi\n      sub(shl(0xa0, 0x01), 0x01)\n        /* \"contracts/worksystems/AddressManager.sol\":4555:4579  MasterToSubsMap[_master] */\n      dup6\n      dup2\n      and\n      0x00\n      swap1\n      dup2\n      mstore\n        /* \"contracts/worksystems/AddressManager.sol\":4555:4570  MasterToSubsMap */\n      0x03\n        /* \"contracts/worksystems/AddressManager.sol\":4555:4579  MasterToSubsMap[_master] */\n      0x20\n      mstore\n      0x40\n      swap1\n      keccak256\n        /* \"contracts/worksystems/AddressManager.sol\":4555:4582  MasterToSubsMap[_master][i] */\n      dup1\n      sload\n        /* \"contracts/worksystems/AddressManager.sol\":4555:4593  MasterToSubsMap[_master][i] == _worker */\n      swap2\n      dup7\n      and\n      swap2\n        /* \"contracts/worksystems/AddressManager.sol\":4580:4581  i */\n      dup4\n      swap1\n        /* \"contracts/worksystems/AddressManager.sol\":4555:4582  MasterToSubsMap[_master][i] */\n      dup2\n      lt\n      tag_272\n      jumpi\n      mstore(0x00, shl(0xe0, 0x4e487b71))\n      mstore(0x04, 0x32)\n      revert(0x00, 0x24)\n    tag_272:\n      0x00\n      swap2\n      dup3\n      mstore\n      0x20\n      swap1\n      swap2\n      keccak256\n      add\n      sload\n      sub(shl(0xa0, 0x01), 0x01)\n      and\n        /* \"contracts/worksystems/AddressManager.sol\":4555:4593  MasterToSubsMap[_master][i] == _worker */\n      eq\n        /* \"contracts/worksystems/AddressManager.sol\":4552:4693  if(MasterToSubsMap[_master][i] == _worker){\r... */\n      iszero\n      tag_274\n      jumpi\n        /* \"contracts/worksystems/AddressManager.sol\":4621:4625  true */\n      0x01\n        /* \"contracts/worksystems/AddressManager.sol\":4613:4625  found = true */\n      swap2\n      pop\n        /* \"contracts/worksystems/AddressManager.sol\":4652:4653  i */\n      dup1\n        /* \"contracts/worksystems/AddressManager.sol\":4644:4653  index = i */\n      swap3\n      pop\n        /* \"contracts/worksystems/AddressManager.sol\":4672:4677  break */\n      jump(tag_270)\n        /* \"contracts/worksystems/AddressManager.sol\":4552:4693  if(MasterToSubsMap[_master][i] == _worker){\r... */\n    tag_274:\n        /* \"contracts/worksystems/AddressManager.sol\":4533:4536  i++ */\n      dup1\n      tag_275\n      dup2\n      tag_191\n      jump\t// in\n    tag_275:\n      swap2\n      pop\n      pop\n        /* \"contracts/worksystems/AddressManager.sol\":4478:4704  for(uint256 i = 0; i< MasterToSubsMap[_master].length; i++){\r... */\n      jump(tag_269)\n    tag_270:\n      pop\n        /* \"contracts/worksystems/AddressManager.sol\":4782:4787  found */\n      dup1\n        /* \"contracts/worksystems/AddressManager.sol\":4779:4955  if(found){\r... */\n      iszero\n      tag_276\n      jumpi\n      sub(shl(0xa0, 0x01), 0x01)\n        /* \"contracts/worksystems/AddressManager.sol\":4837:4861  MasterToSubsMap[_master] */\n      dup5\n      and\n      0x00\n      swap1\n      dup2\n      mstore\n        /* \"contracts/worksystems/AddressManager.sol\":4837:4852  MasterToSubsMap */\n      0x03\n        /* \"contracts/worksystems/AddressManager.sol\":4837:4861  MasterToSubsMap[_master] */\n      0x20\n      mstore\n      0x40\n      swap1\n      keccak256\n        /* \"contracts/worksystems/AddressManager.sol\":4862:4893  MasterToSubsMap[_master].length */\n      dup1\n      sload\n        /* \"contracts/worksystems/AddressManager.sol\":4862:4897  MasterToSubsMap[_master].length - 1 */\n      tag_277\n      swap1\n        /* \"contracts/worksystems/AddressManager.sol\":4896:4897  1 */\n      0x01\n      swap1\n        /* \"contracts/worksystems/AddressManager.sol\":4862:4897  MasterToSubsMap[_master].length - 1 */\n      tag_167\n      jump\t// in\n    tag_277:\n        /* \"contracts/worksystems/AddressManager.sol\":4837:4898  MasterToSubsMap[_master][MasterToSubsMap[_master].length - 1] */\n      dup2\n      sload\n      dup2\n      lt\n      tag_278\n      jumpi\n      mstore(0x00, shl(0xe0, 0x4e487b71))\n      mstore(0x04, 0x32)\n      revert(0x00, 0x24)\n    tag_278:\n      0x00\n      swap2\n      dup3\n      mstore\n      0x20\n      dup1\n      dup4\n      keccak256\n      swap1\n      swap2\n      add\n      sload\n      sub(shl(0xa0, 0x01), 0x01)\n        /* \"contracts/worksystems/AddressManager.sol\":4803:4827  MasterToSubsMap[_master] */\n      dup8\n      dup2\n      and\n      dup5\n      mstore\n        /* \"contracts/worksystems/AddressManager.sol\":4803:4818  MasterToSubsMap */\n      0x03\n        /* \"contracts/worksystems/AddressManager.sol\":4803:4827  MasterToSubsMap[_master] */\n      swap1\n      swap3\n      mstore\n      0x40\n      swap1\n      swap3\n      keccak256\n        /* \"contracts/worksystems/AddressManager.sol\":4803:4834  MasterToSubsMap[_master][index] */\n      dup1\n      sload\n        /* \"contracts/worksystems/AddressManager.sol\":4837:4898  MasterToSubsMap[_master][MasterToSubsMap[_master].length - 1] */\n      swap2\n      swap1\n      swap3\n      and\n      swap2\n        /* \"contracts/worksystems/AddressManager.sol\":4803:4827  MasterToSubsMap[_master] */\n      swap1\n        /* \"contracts/worksystems/AddressManager.sol\":4828:4833  index */\n      dup5\n      swap1\n        /* \"contracts/worksystems/AddressManager.sol\":4803:4834  MasterToSubsMap[_master][index] */\n      dup2\n      lt\n      tag_280\n      jumpi\n      mstore(0x00, shl(0xe0, 0x4e487b71))\n      mstore(0x04, 0x32)\n      revert(0x00, 0x24)\n    tag_280:\n      0x00\n      swap2\n      dup3\n      mstore\n      0x20\n      dup1\n      dup4\n      keccak256\n      swap2\n      swap1\n      swap2\n      add\n        /* \"contracts/worksystems/AddressManager.sol\":4803:4898  MasterToSubsMap[_master][index] = MasterToSubsMap[_master][MasterToSubsMap[_master].length - 1] */\n      dup1\n      sload\n      not(sub(shl(0xa0, 0x01), 0x01))\n      and\n      sub(shl(0xa0, 0x01), 0x01)\n      swap5\n      dup6\n      and\n      or\n      swap1\n      sstore\n        /* \"contracts/worksystems/AddressManager.sol\":4913:4937  MasterToSubsMap[_master] */\n      swap2\n      dup7\n      and\n      dup2\n      mstore\n        /* \"contracts/worksystems/AddressManager.sol\":4913:4928  MasterToSubsMap */\n      0x03\n        /* \"contracts/worksystems/AddressManager.sol\":4913:4937  MasterToSubsMap[_master] */\n      swap1\n      swap2\n      mstore\n      0x40\n      swap1\n      keccak256\n        /* \"contracts/worksystems/AddressManager.sol\":4913:4943  MasterToSubsMap[_master].pop() */\n      dup1\n      sload\n      dup1\n      tag_282\n      jumpi\n      mstore(0x00, shl(0xe0, 0x4e487b71))\n      mstore(0x04, 0x31)\n      revert(0x00, 0x24)\n    tag_282:\n      0x00\n      dup3\n      dup2\n      mstore\n      0x20\n      swap1\n      keccak256\n      dup2\n      add\n      not(0x00)\n      swap1\n      dup2\n      add\n      dup1\n      sload\n      not(sub(shl(0xa0, 0x01), 0x01))\n      and\n      swap1\n      sstore\n      add\n      swap1\n      sstore\n        /* \"contracts/worksystems/AddressManager.sol\":4779:4955  if(found){\r... */\n    tag_276:\n        /* \"contracts/worksystems/AddressManager.sol\":4342:4962  function PopFromSubsArray(address _master, address _worker) internal{\r... */\n      pop\n      pop\n      pop\n      pop\n      jump\t// out\n        /* \"@openzeppelin/contracts/access/Ownable.sol\":2270:2457  function _transferOwnership(address newOwner) internal virtual {... */\n    tag_211:\n        /* \"@openzeppelin/contracts/access/Ownable.sol\":2343:2359  address oldOwner */\n      0x00\n        /* \"@openzeppelin/contracts/access/Ownable.sol\":2362:2368  _owner */\n      dup1\n      sload\n      sub(shl(0xa0, 0x01), 0x01)\n        /* \"@openzeppelin/contracts/access/Ownable.sol\":2378:2395  _owner = newOwner */\n      dup4\n      dup2\n      and\n      not(sub(shl(0xa0, 0x01), 0x01))\n      dup4\n      and\n      dup2\n      or\n      dup5\n      sstore\n        /* \"@openzeppelin/contracts/access/Ownable.sol\":2410:2450  OwnershipTransferred(oldOwner, newOwner) */\n      mload(0x40)\n        /* \"@openzeppelin/contracts/access/Ownable.sol\":2362:2368  _owner */\n      swap2\n      swap1\n      swap3\n      and\n      swap3\n      dup4\n      swap2\n        /* \"@openzeppelin/contracts/access/Ownable.sol\":2410:2450  OwnershipTransferred(oldOwner, newOwner) */\n      0x8be0079c531659141344cd1fd0a4f28419497f9722a3daafe3b4186f6b6457e0\n      swap2\n        /* \"@openzeppelin/contracts/access/Ownable.sol\":2343:2359  address oldOwner */\n      swap1\n        /* \"@openzeppelin/contracts/access/Ownable.sol\":2410:2450  OwnershipTransferred(oldOwner, newOwner) */\n      log3\n        /* \"@openzeppelin/contracts/access/Ownable.sol\":2270:2457  function _transferOwnership(address newOwner) internal virtual {... */\n      pop\n      pop\n      jump\t// out\n        /* \"contracts/worksystems/AddressManager.sol\":7850:8928  function TransferRepToMaster(address _worker)\r... */\n    tag_243:\n        /* \"contracts/worksystems/AddressManager.sol\":7957:7967  Reputation */\n      and(sub(shl(0xa0, 0x01), 0x01), sload(0x06))\n        /* \"contracts/worksystems/AddressManager.sol\":7941:8015  require(address(Reputation) != address(0), \"Reputation needs to be setup\") */\n      tag_286\n      jumpi\n      mload(0x40)\n      shl(0xe5, 0x461bcd)\n      dup2\n      mstore\n      0x04\n      add\n      tag_149\n      swap1\n      tag_288\n      jump\t// in\n    tag_286:\n        /* \"contracts/worksystems/AddressManager.sol\":8042:8052  RepManager */\n      and(sub(shl(0xa0, 0x01), 0x01), sload(0x07))\n        /* \"contracts/worksystems/AddressManager.sol\":8026:8100  require(address(RepManager) != address(0), \"RepManager needs to be setup\") */\n      tag_289\n      jumpi\n      mload(0x40)\n      shl(0xe5, 0x461bcd)\n      dup2\n      mstore\n      0x04\n      add\n      tag_149\n      swap1\n      tag_291\n      jump\t// in\n    tag_289:\n      sub(shl(0xa0, 0x01), 0x01)\n        /* \"contracts/worksystems/AddressManager.sol\":8119:8142  SubToMasterMap[_worker] */\n      dup2\n      dup2\n      and\n        /* \"contracts/worksystems/AddressManager.sol\":8154:8155  0 */\n      0x00\n        /* \"contracts/worksystems/AddressManager.sol\":8119:8142  SubToMasterMap[_worker] */\n      swap1\n      dup2\n      mstore\n        /* \"contracts/worksystems/AddressManager.sol\":8119:8133  SubToMasterMap */\n      0x04\n        /* \"contracts/worksystems/AddressManager.sol\":8119:8142  SubToMasterMap[_worker] */\n      0x20\n      mstore\n      0x40\n      swap1\n      keccak256\n      sload\n      and\n        /* \"contracts/worksystems/AddressManager.sol\":8111:8227  require(SubToMasterMap[_worker] != address(0), \"TransferRepToMaster: input _worker needs to have a non-null master\") */\n      tag_292\n      jumpi\n      mload(0x40)\n      shl(0xe5, 0x461bcd)\n      dup2\n      mstore\n      0x04\n      add\n      tag_149\n      swap1\n      tag_294\n      jump\t// in\n    tag_292:\n        /* \"contracts/worksystems/AddressManager.sol\":8303:8313  Reputation */\n      sload(0x06)\n        /* \"contracts/worksystems/AddressManager.sol\":8303:8332  Reputation.balanceOf(_worker) */\n      mload(0x40)\n      shl(0xe0, 0x70a08231)\n      dup2\n      mstore\n        /* \"contracts/worksystems/AddressManager.sol\":8281:8300  uint256 _worker_rep */\n      0x00\n      swap2\n      sub(shl(0xa0, 0x01), 0x01)\n        /* \"contracts/worksystems/AddressManager.sol\":8303:8313  Reputation */\n      and\n      swap1\n        /* \"contracts/worksystems/AddressManager.sol\":8303:8323  Reputation.balanceOf */\n      0x70a08231\n      swap1\n        /* \"contracts/worksystems/AddressManager.sol\":8303:8332  Reputation.balanceOf(_worker) */\n      tag_295\n      swap1\n        /* \"contracts/worksystems/AddressManager.sol\":8324:8331  _worker */\n      dup6\n      swap1\n        /* \"contracts/worksystems/AddressManager.sol\":8303:8332  Reputation.balanceOf(_worker) */\n      0x04\n      add\n      tag_54\n      jump\t// in\n    tag_295:\n      0x20\n      mload(0x40)\n      dup1\n      dup4\n      sub\n      dup2\n      dup7\n      dup1\n      extcodesize\n      iszero\n      dup1\n      iszero\n      tag_296\n      jumpi\n      0x00\n      dup1\n      revert\n    tag_296:\n      pop\n      gas\n      staticcall\n      iszero\n      dup1\n      iszero\n      tag_298\n      jumpi\n      returndatasize\n      0x00\n      dup1\n      returndatacopy\n      revert(0x00, returndatasize)\n    tag_298:\n      pop\n      pop\n      pop\n      pop\n      mload(0x40)\n      returndatasize\n      not(0x1f)\n      0x1f\n      dup3\n      add\n      and\n      dup3\n      add\n      dup1\n      0x40\n      mstore\n      pop\n      dup2\n      add\n      swap1\n      tag_299\n      swap2\n      swap1\n      tag_300\n      jump\t// in\n    tag_299:\n        /* \"contracts/worksystems/AddressManager.sol\":8281:8332  uint256 _worker_rep = Reputation.balanceOf(_worker) */\n      swap1\n      pop\n        /* \"contracts/worksystems/AddressManager.sol\":8343:8366  address _highest_master */\n      0x00\n        /* \"contracts/worksystems/AddressManager.sol\":8369:8396  FetchHighestMaster(_worker) */\n      tag_301\n        /* \"contracts/worksystems/AddressManager.sol\":8388:8395  _worker */\n      dup4\n        /* \"contracts/worksystems/AddressManager.sol\":8369:8387  FetchHighestMaster */\n      tag_52\n        /* \"contracts/worksystems/AddressManager.sol\":8369:8396  FetchHighestMaster(_worker) */\n      jump\t// in\n    tag_301:\n        /* \"contracts/worksystems/AddressManager.sol\":8343:8396  address _highest_master = FetchHighestMaster(_worker) */\n      swap1\n      pop\n        /* \"contracts/worksystems/AddressManager.sol\":8410:8425  _worker_rep > 0 */\n      dup2\n      iszero\n        /* \"contracts/worksystems/AddressManager.sol\":8407:8921  if(_worker_rep > 0){\r... */\n      tag_302\n      jumpi\n        /* \"contracts/worksystems/AddressManager.sol\":8511:8521  RepManager */\n      sload(0x07)\n        /* \"contracts/worksystems/AddressManager.sol\":8511:8577  RepManager.mintReputationForWork(_worker_rep, _highest_master, \"\") */\n      mload(0x40)\n      shl(0xe1, 0x0db6cc85)\n      dup2\n      mstore\n      sub(shl(0xa0, 0x01), 0x01)\n        /* \"contracts/worksystems/AddressManager.sol\":8511:8521  RepManager */\n      swap1\n      swap2\n      and\n      swap1\n        /* \"contracts/worksystems/AddressManager.sol\":8511:8543  RepManager.mintReputationForWork */\n      0x1b6d990a\n      swap1\n        /* \"contracts/worksystems/AddressManager.sol\":8511:8577  RepManager.mintReputationForWork(_worker_rep, _highest_master, \"\") */\n      tag_303\n      swap1\n        /* \"contracts/worksystems/AddressManager.sol\":8544:8555  _worker_rep */\n      dup6\n      swap1\n        /* \"contracts/worksystems/AddressManager.sol\":8557:8572  _highest_master */\n      dup6\n      swap1\n        /* \"contracts/worksystems/AddressManager.sol\":8511:8577  RepManager.mintReputationForWork(_worker_rep, _highest_master, \"\") */\n      0x04\n      add\n      tag_304\n      jump\t// in\n    tag_303:\n      0x20\n      mload(0x40)\n      dup1\n      dup4\n      sub\n      dup2\n      0x00\n      dup8\n      dup1\n      extcodesize\n      iszero\n      dup1\n      iszero\n      tag_305\n      jumpi\n      0x00\n      dup1\n      revert\n    tag_305:\n      pop\n      gas\n      call\n      iszero\n      dup1\n      iszero\n      tag_307\n      jumpi\n      returndatasize\n      0x00\n      dup1\n      returndatacopy\n      revert(0x00, returndatasize)\n    tag_307:\n      pop\n      pop\n      pop\n      pop\n      mload(0x40)\n      returndatasize\n      not(0x1f)\n      0x1f\n      dup3\n      add\n      and\n      dup3\n      add\n      dup1\n      0x40\n      mstore\n      pop\n      dup2\n      add\n      swap1\n      tag_308\n      swap2\n      swap1\n      tag_309\n      jump\t// in\n    tag_308:\n        /* \"contracts/worksystems/AddressManager.sol\":8503:8631  require(RepManager.mintReputationForWork(_worker_rep, _highest_master, \"\"), \"TransferRepToMaster: could not mint Rep to master\") */\n      tag_310\n      jumpi\n      mload(0x40)\n      shl(0xe5, 0x461bcd)\n      dup2\n      mstore\n      0x04\n      add\n      tag_149\n      swap1\n      tag_312\n      jump\t// in\n    tag_310:\n        /* \"contracts/worksystems/AddressManager.sol\":8729:8739  RepManager */\n      sload(0x07)\n        /* \"contracts/worksystems/AddressManager.sol\":8729:8787  RepManager.burnReputationForWork(_worker_rep, _worker, \"\") */\n      mload(0x40)\n      shl(0xe2, 0x171bcfc3)\n      dup2\n      mstore\n      sub(shl(0xa0, 0x01), 0x01)\n        /* \"contracts/worksystems/AddressManager.sol\":8729:8739  RepManager */\n      swap1\n      swap2\n      and\n      swap1\n        /* \"contracts/worksystems/AddressManager.sol\":8729:8761  RepManager.burnReputationForWork */\n      0x5c6f3f0c\n      swap1\n        /* \"contracts/worksystems/AddressManager.sol\":8729:8787  RepManager.burnReputationForWork(_worker_rep, _worker, \"\") */\n      tag_313\n      swap1\n        /* \"contracts/worksystems/AddressManager.sol\":8762:8773  _worker_rep */\n      dup6\n      swap1\n        /* \"contracts/worksystems/AddressManager.sol\":8775:8782  _worker */\n      dup8\n      swap1\n        /* \"contracts/worksystems/AddressManager.sol\":8729:8787  RepManager.burnReputationForWork(_worker_rep, _worker, \"\") */\n      0x04\n      add\n      tag_304\n      jump\t// in\n    tag_313:\n      0x20\n      mload(0x40)\n      dup1\n      dup4\n      sub\n      dup2\n      0x00\n      dup8\n      dup1\n      extcodesize\n      iszero\n      dup1\n      iszero\n      tag_314\n      jumpi\n      0x00\n      dup1\n      revert\n    tag_314:\n      pop\n      gas\n      call\n      iszero\n      dup1\n      iszero\n      tag_316\n      jumpi\n      returndatasize\n      0x00\n      dup1\n      returndatacopy\n      revert(0x00, returndatasize)\n    tag_316:\n      pop\n      pop\n      pop\n      pop\n      mload(0x40)\n      returndatasize\n      not(0x1f)\n      0x1f\n      dup3\n      add\n      and\n      dup3\n      add\n      dup1\n      0x40\n      mstore\n      pop\n      dup2\n      add\n      swap1\n      tag_317\n      swap2\n      swap1\n      tag_309\n      jump\t// in\n    tag_317:\n        /* \"contracts/worksystems/AddressManager.sol\":8721:8843  require(RepManager.burnReputationForWork(_worker_rep, _worker, \"\"), \"TransferRepToMaster: could not burn Rep from worker\") */\n      tag_318\n      jumpi\n      mload(0x40)\n      shl(0xe5, 0x461bcd)\n      dup2\n      mstore\n      0x04\n      add\n      tag_149\n      swap1\n      tag_320\n      jump\t// in\n    tag_318:\n        /* \"contracts/worksystems/AddressManager.sol\":8884:8891  _worker */\n      dup3\n      sub(shl(0xa0, 0x01), 0x01)\n        /* \"contracts/worksystems/AddressManager.sol\":8863:8909  ReputationTransfered(_worker, _highest_master) */\n      and\n      0xc587680578b3acb8eeb1ab421a6921efe2a32b10903016ebd6c3f39e51cd1d96\n        /* \"contracts/worksystems/AddressManager.sol\":8893:8908  _highest_master */\n      dup3\n        /* \"contracts/worksystems/AddressManager.sol\":8863:8909  ReputationTransfered(_worker, _highest_master) */\n      mload(0x40)\n      tag_321\n      swap2\n      swap1\n      tag_54\n      jump\t// in\n    tag_321:\n      mload(0x40)\n      dup1\n      swap2\n      sub\n      swap1\n      log2\n        /* \"contracts/worksystems/AddressManager.sol\":8407:8921  if(_worker_rep > 0){\r... */\n    tag_302:\n        /* \"contracts/worksystems/AddressManager.sol\":7850:8928  function TransferRepToMaster(address _worker)\r... */\n      pop\n      pop\n      pop\n      jump\t// out\n        /* \"contracts/worksystems/AddressManager.sol\":8940:9672  function TransferRewardsToMaster(address _worker)\r... */\n    tag_245:\n        /* \"contracts/worksystems/AddressManager.sol\":9043:9056  RewardManager */\n      and(sub(shl(0xa0, 0x01), 0x01), sload(0x08))\n        /* \"contracts/worksystems/AddressManager.sol\":9027:9107  require(address(RewardManager) != address(0), \"RewardManager needs to be setup\") */\n      tag_323\n      jumpi\n      mload(0x40)\n      shl(0xe5, 0x461bcd)\n      dup2\n      mstore\n      0x04\n      add\n      tag_149\n      swap1\n      tag_325\n      jump\t// in\n    tag_323:\n      sub(shl(0xa0, 0x01), 0x01)\n        /* \"contracts/worksystems/AddressManager.sol\":9126:9149  SubToMasterMap[_worker] */\n      dup2\n      dup2\n      and\n        /* \"contracts/worksystems/AddressManager.sol\":9161:9162  0 */\n      0x00\n        /* \"contracts/worksystems/AddressManager.sol\":9126:9149  SubToMasterMap[_worker] */\n      swap1\n      dup2\n      mstore\n        /* \"contracts/worksystems/AddressManager.sol\":9126:9140  SubToMasterMap */\n      0x04\n        /* \"contracts/worksystems/AddressManager.sol\":9126:9149  SubToMasterMap[_worker] */\n      0x20\n      mstore\n      0x40\n      swap1\n      keccak256\n      sload\n      and\n        /* \"contracts/worksystems/AddressManager.sol\":9118:9234  require(SubToMasterMap[_worker] != address(0), \"TransferRepToMaster: input _worker needs to have a non-null master\") */\n      tag_326\n      jumpi\n      mload(0x40)\n      shl(0xe5, 0x461bcd)\n      dup2\n      mstore\n      0x04\n      add\n      tag_149\n      swap1\n      tag_294\n      jump\t// in\n    tag_326:\n        /* \"contracts/worksystems/AddressManager.sol\":9314:9327  RewardManager */\n      sload(0x08)\n        /* \"contracts/worksystems/AddressManager.sol\":9314:9353  RewardManager.RewardsBalanceOf(_worker) */\n      mload(0x40)\n      shl(0xe2, 0x3b4febfb)\n      dup2\n      mstore\n        /* \"contracts/worksystems/AddressManager.sol\":9288:9311  uint256 _worker_rewards */\n      0x00\n      swap2\n      sub(shl(0xa0, 0x01), 0x01)\n        /* \"contracts/worksystems/AddressManager.sol\":9314:9327  RewardManager */\n      and\n      swap1\n        /* \"contracts/worksystems/AddressManager.sol\":9314:9344  RewardManager.RewardsBalanceOf */\n      0xed3fafec\n      swap1\n        /* \"contracts/worksystems/AddressManager.sol\":9314:9353  RewardManager.RewardsBalanceOf(_worker) */\n      tag_328\n      swap1\n        /* \"contracts/worksystems/AddressManager.sol\":9345:9352  _worker */\n      dup6\n      swap1\n        /* \"contracts/worksystems/AddressManager.sol\":9314:9353  RewardManager.RewardsBalanceOf(_worker) */\n      0x04\n      add\n      tag_54\n      jump\t// in\n    tag_328:\n      0x20\n      mload(0x40)\n      dup1\n      dup4\n      sub\n      dup2\n      0x00\n      dup8\n      dup1\n      extcodesize\n      iszero\n      dup1\n      iszero\n      tag_329\n      jumpi\n      0x00\n      dup1\n      revert\n    tag_329:\n      pop\n      gas\n      call\n      iszero\n      dup1\n      iszero\n      tag_331\n      jumpi\n      returndatasize\n      0x00\n      dup1\n      returndatacopy\n      revert(0x00, returndatasize)\n    tag_331:\n      pop\n      pop\n      pop\n      pop\n      mload(0x40)\n      returndatasize\n      not(0x1f)\n      0x1f\n      dup3\n      add\n      and\n      dup3\n      add\n      dup1\n      0x40\n      mstore\n      pop\n      dup2\n      add\n      swap1\n      tag_332\n      swap2\n      swap1\n      tag_300\n      jump\t// in\n    tag_332:\n        /* \"contracts/worksystems/AddressManager.sol\":9288:9353  uint256 _worker_rewards = RewardManager.RewardsBalanceOf(_worker) */\n      swap1\n      pop\n        /* \"contracts/worksystems/AddressManager.sol\":9364:9387  address _highest_master */\n      0x00\n        /* \"contracts/worksystems/AddressManager.sol\":9390:9417  FetchHighestMaster(_worker) */\n      tag_333\n        /* \"contracts/worksystems/AddressManager.sol\":9409:9416  _worker */\n      dup4\n        /* \"contracts/worksystems/AddressManager.sol\":9390:9408  FetchHighestMaster */\n      tag_52\n        /* \"contracts/worksystems/AddressManager.sol\":9390:9417  FetchHighestMaster(_worker) */\n      jump\t// in\n    tag_333:\n        /* \"contracts/worksystems/AddressManager.sol\":9364:9417  address _highest_master = FetchHighestMaster(_worker) */\n      swap1\n      pop\n        /* \"contracts/worksystems/AddressManager.sol\":9431:9450  _worker_rewards > 0 */\n      dup2\n      iszero\n        /* \"contracts/worksystems/AddressManager.sol\":9428:9665  if(_worker_rewards > 0){\r... */\n      tag_302\n      jumpi\n        /* \"contracts/worksystems/AddressManager.sol\":9474:9487  RewardManager */\n      sload(0x08)\n        /* \"contracts/worksystems/AddressManager.sol\":9474:9534  RewardManager.ProxyTransferRewards(_worker, _highest_master) */\n      mload(0x40)\n      shl(0xe0, 0x5f28bad5)\n      dup2\n      mstore\n      sub(shl(0xa0, 0x01), 0x01)\n        /* \"contracts/worksystems/AddressManager.sol\":9474:9487  RewardManager */\n      swap1\n      swap2\n      and\n      swap1\n        /* \"contracts/worksystems/AddressManager.sol\":9474:9508  RewardManager.ProxyTransferRewards */\n      0x5f28bad5\n      swap1\n        /* \"contracts/worksystems/AddressManager.sol\":9474:9534  RewardManager.ProxyTransferRewards(_worker, _highest_master) */\n      tag_335\n      swap1\n        /* \"contracts/worksystems/AddressManager.sol\":9509:9516  _worker */\n      dup7\n      swap1\n        /* \"contracts/worksystems/AddressManager.sol\":9518:9533  _highest_master */\n      dup6\n      swap1\n        /* \"contracts/worksystems/AddressManager.sol\":9474:9534  RewardManager.ProxyTransferRewards(_worker, _highest_master) */\n      0x04\n      add\n      tag_336\n      jump\t// in\n    tag_335:\n      0x20\n      mload(0x40)\n      dup1\n      dup4\n      sub\n      dup2\n      0x00\n      dup8\n      dup1\n      extcodesize\n      iszero\n      dup1\n      iszero\n      tag_337\n      jumpi\n      0x00\n      dup1\n      revert\n    tag_337:\n      pop\n      gas\n      call\n      iszero\n      dup1\n      iszero\n      tag_339\n      jumpi\n      returndatasize\n      0x00\n      dup1\n      returndatacopy\n      revert(0x00, returndatasize)\n    tag_339:\n      pop\n      pop\n      pop\n      pop\n      mload(0x40)\n      returndatasize\n      not(0x1f)\n      0x1f\n      dup3\n      add\n      and\n      dup3\n      add\n      dup1\n      0x40\n      mstore\n      pop\n      dup2\n      add\n      swap1\n      tag_340\n      swap2\n      swap1\n      tag_309\n      jump\t// in\n    tag_340:\n        /* \"contracts/worksystems/AddressManager.sol\":9466:9590  require(RewardManager.ProxyTransferRewards(_worker, _highest_master), \"TransferRewardsToMaster: could not transfer rewards\") */\n      tag_341\n      jumpi\n      mload(0x40)\n      shl(0xe5, 0x461bcd)\n      dup2\n      mstore\n      0x04\n      add\n      tag_149\n      swap1\n      tag_343\n      jump\t// in\n    tag_341:\n        /* \"contracts/worksystems/AddressManager.sol\":9628:9635  _worker */\n      dup3\n      sub(shl(0xa0, 0x01), 0x01)\n        /* \"contracts/worksystems/AddressManager.sol\":9610:9653  RewardsTransfered(_worker, _highest_master) */\n      and\n      0x04b22084ec80e4b31b47cb8c65cd44c4e4e2840e20dffcbd81bd7d048b74fb4e\n        /* \"contracts/worksystems/AddressManager.sol\":9637:9652  _highest_master */\n      dup3\n        /* \"contracts/worksystems/AddressManager.sol\":9610:9653  RewardsTransfered(_worker, _highest_master) */\n      mload(0x40)\n      tag_321\n      swap2\n      swap1\n      tag_54\n      jump\t// in\n        /* \"#utility.yul\":14:189   */\n    tag_346:\n        /* \"#utility.yul\":84:104   */\n      dup1\n      calldataload\n      sub(shl(0xa0, 0x01), 0x01)\n        /* \"#utility.yul\":133:164   */\n      dup2\n      and\n        /* \"#utility.yul\":123:165   */\n      dup2\n      eq\n        /* \"#utility.yul\":113:115   */\n      tag_152\n      jumpi\n        /* \"#utility.yul\":179:180   */\n      0x00\n        /* \"#utility.yul\":176:177   */\n      dup1\n        /* \"#utility.yul\":169:181   */\n      revert\n        /* \"#utility.yul\":194:392   */\n    tag_40:\n      0x00\n        /* \"#utility.yul\":306:308   */\n      0x20\n        /* \"#utility.yul\":294:303   */\n      dup3\n        /* \"#utility.yul\":285:292   */\n      dup5\n        /* \"#utility.yul\":281:304   */\n      sub\n        /* \"#utility.yul\":277:309   */\n      slt\n        /* \"#utility.yul\":274:276   */\n      iszero\n      tag_350\n      jumpi\n        /* \"#utility.yul\":327:333   */\n      dup1\n        /* \"#utility.yul\":319:325   */\n      dup2\n        /* \"#utility.yul\":312:334   */\n      revert\n        /* \"#utility.yul\":274:276   */\n    tag_350:\n        /* \"#utility.yul\":355:386   */\n      tag_229\n        /* \"#utility.yul\":376:385   */\n      dup3\n        /* \"#utility.yul\":355:386   */\n      tag_346\n      jump\t// in\n        /* \"#utility.yul\":397:671   */\n    tag_60:\n      0x00\n      dup1\n        /* \"#utility.yul\":526:528   */\n      0x40\n        /* \"#utility.yul\":514:523   */\n      dup4\n        /* \"#utility.yul\":505:512   */\n      dup6\n        /* \"#utility.yul\":501:524   */\n      sub\n        /* \"#utility.yul\":497:529   */\n      slt\n        /* \"#utility.yul\":494:496   */\n      iszero\n      tag_353\n      jumpi\n        /* \"#utility.yul\":547:553   */\n      dup1\n        /* \"#utility.yul\":539:545   */\n      dup2\n        /* \"#utility.yul\":532:554   */\n      revert\n        /* \"#utility.yul\":494:496   */\n    tag_353:\n        /* \"#utility.yul\":575:606   */\n      tag_354\n        /* \"#utility.yul\":596:605   */\n      dup4\n        /* \"#utility.yul\":575:606   */\n      tag_346\n      jump\t// in\n    tag_354:\n        /* \"#utility.yul\":565:606   */\n      swap2\n      pop\n        /* \"#utility.yul\":625:665   */\n      tag_355\n        /* \"#utility.yul\":661:663   */\n      0x20\n        /* \"#utility.yul\":650:659   */\n      dup5\n        /* \"#utility.yul\":646:664   */\n      add\n        /* \"#utility.yul\":625:665   */\n      tag_346\n      jump\t// in\n    tag_355:\n        /* \"#utility.yul\":615:665   */\n      swap1\n      pop\n        /* \"#utility.yul\":484:671   */\n      swap3\n      pop\n      swap3\n      swap1\n      pop\n      jump\t// out\n        /* \"#utility.yul\":676:942   */\n    tag_74:\n      0x00\n      dup1\n        /* \"#utility.yul\":805:807   */\n      0x40\n        /* \"#utility.yul\":793:802   */\n      dup4\n        /* \"#utility.yul\":784:791   */\n      dup6\n        /* \"#utility.yul\":780:803   */\n      sub\n        /* \"#utility.yul\":776:808   */\n      slt\n        /* \"#utility.yul\":773:775   */\n      iszero\n      tag_357\n      jumpi\n        /* \"#utility.yul\":826:832   */\n      dup2\n        /* \"#utility.yul\":818:824   */\n      dup3\n        /* \"#utility.yul\":811:833   */\n      revert\n        /* \"#utility.yul\":773:775   */\n    tag_357:\n        /* \"#utility.yul\":854:885   */\n      tag_358\n        /* \"#utility.yul\":875:884   */\n      dup4\n        /* \"#utility.yul\":854:885   */\n      tag_346\n      jump\t// in\n    tag_358:\n        /* \"#utility.yul\":844:885   */\n      swap5\n        /* \"#utility.yul\":932:934   */\n      0x20\n        /* \"#utility.yul\":917:935   */\n      swap4\n      swap1\n      swap4\n      add\n        /* \"#utility.yul\":904:936   */\n      calldataload\n      swap4\n      pop\n      pop\n      pop\n        /* \"#utility.yul\":763:942   */\n      jump\t// out\n        /* \"#utility.yul\":947:2113   */\n    tag_83:\n      0x00\n        /* \"#utility.yul\":1062:1064   */\n      0x20\n        /* \"#utility.yul\":1105:1107   */\n      dup1\n        /* \"#utility.yul\":1093:1102   */\n      dup4\n        /* \"#utility.yul\":1084:1091   */\n      dup6\n        /* \"#utility.yul\":1080:1103   */\n      sub\n        /* \"#utility.yul\":1076:1108   */\n      slt\n        /* \"#utility.yul\":1073:1075   */\n      iszero\n      tag_360\n      jumpi\n        /* \"#utility.yul\":1126:1132   */\n      dup2\n        /* \"#utility.yul\":1118:1124   */\n      dup3\n        /* \"#utility.yul\":1111:1133   */\n      revert\n        /* \"#utility.yul\":1073:1075   */\n    tag_360:\n        /* \"#utility.yul\":1171:1180   */\n      dup3\n        /* \"#utility.yul\":1158:1181   */\n      calldataload\n        /* \"#utility.yul\":1200:1218   */\n      0xffffffffffffffff\n        /* \"#utility.yul\":1241:1243   */\n      dup1\n        /* \"#utility.yul\":1233:1239   */\n      dup3\n        /* \"#utility.yul\":1230:1244   */\n      gt\n        /* \"#utility.yul\":1227:1229   */\n      iszero\n      tag_361\n      jumpi\n        /* \"#utility.yul\":1262:1268   */\n      dup4\n        /* \"#utility.yul\":1254:1260   */\n      dup5\n        /* \"#utility.yul\":1247:1269   */\n      revert\n        /* \"#utility.yul\":1227:1229   */\n    tag_361:\n        /* \"#utility.yul\":1305:1311   */\n      dup2\n        /* \"#utility.yul\":1294:1303   */\n      dup6\n        /* \"#utility.yul\":1290:1312   */\n      add\n        /* \"#utility.yul\":1280:1312   */\n      swap2\n      pop\n        /* \"#utility.yul\":1350:1357   */\n      dup6\n        /* \"#utility.yul\":1343:1347   */\n      0x1f\n        /* \"#utility.yul\":1339:1341   */\n      dup4\n        /* \"#utility.yul\":1335:1348   */\n      add\n        /* \"#utility.yul\":1331:1358   */\n      slt\n        /* \"#utility.yul\":1321:1323   */\n      tag_362\n      jumpi\n        /* \"#utility.yul\":1377:1383   */\n      dup4\n        /* \"#utility.yul\":1369:1375   */\n      dup5\n        /* \"#utility.yul\":1362:1384   */\n      revert\n        /* \"#utility.yul\":1321:1323   */\n    tag_362:\n        /* \"#utility.yul\":1418:1420   */\n      dup2\n        /* \"#utility.yul\":1405:1421   */\n      calldataload\n        /* \"#utility.yul\":1440:1442   */\n      dup2\n        /* \"#utility.yul\":1436:1438   */\n      dup2\n        /* \"#utility.yul\":1433:1443   */\n      gt\n        /* \"#utility.yul\":1430:1432   */\n      iszero\n      tag_364\n      jumpi\n        /* \"#utility.yul\":1446:1464   */\n      tag_364\n      tag_365\n      jump\t// in\n    tag_364:\n        /* \"#utility.yul\":1493:1495   */\n      dup4\n        /* \"#utility.yul\":1489:1491   */\n      dup2\n        /* \"#utility.yul\":1485:1496   */\n      mul\n        /* \"#utility.yul\":1525:1527   */\n      0x40\n        /* \"#utility.yul\":1519:1528   */\n      mload\n        /* \"#utility.yul\":1576:1578   */\n      dup6\n        /* \"#utility.yul\":1571:1573   */\n      dup3\n        /* \"#utility.yul\":1563:1569   */\n      dup3\n        /* \"#utility.yul\":1559:1574   */\n      add\n        /* \"#utility.yul\":1555:1579   */\n      add\n        /* \"#utility.yul\":1629:1635   */\n      dup2\n        /* \"#utility.yul\":1617:1627   */\n      dup2\n        /* \"#utility.yul\":1614:1636   */\n      lt\n        /* \"#utility.yul\":1609:1611   */\n      dup6\n        /* \"#utility.yul\":1597:1607   */\n      dup3\n        /* \"#utility.yul\":1594:1612   */\n      gt\n        /* \"#utility.yul\":1591:1637   */\n      or\n        /* \"#utility.yul\":1588:1590   */\n      iszero\n      tag_367\n      jumpi\n        /* \"#utility.yul\":1640:1658   */\n      tag_367\n      tag_365\n      jump\t// in\n    tag_367:\n        /* \"#utility.yul\":1676:1678   */\n      0x40\n        /* \"#utility.yul\":1669:1691   */\n      mstore\n        /* \"#utility.yul\":1726:1744   */\n      dup3\n      dup2\n      mstore\n        /* \"#utility.yul\":1760:1775   */\n      dup6\n      dup2\n      add\n      swap4\n      pop\n        /* \"#utility.yul\":1795:1806   */\n      dup5\n      dup7\n      add\n        /* \"#utility.yul\":1825:1836   */\n      dup3\n      dup7\n      add\n        /* \"#utility.yul\":1821:1841   */\n      dup8\n      add\n        /* \"#utility.yul\":1818:1851   */\n      dup11\n      lt\n        /* \"#utility.yul\":1815:1817   */\n      iszero\n      tag_368\n      jumpi\n        /* \"#utility.yul\":1869:1875   */\n      dup8\n        /* \"#utility.yul\":1861:1867   */\n      dup9\n        /* \"#utility.yul\":1854:1876   */\n      revert\n        /* \"#utility.yul\":1815:1817   */\n    tag_368:\n        /* \"#utility.yul\":1896:1902   */\n      dup8\n        /* \"#utility.yul\":1887:1902   */\n      swap6\n      pop\n        /* \"#utility.yul\":1911:2082   */\n    tag_369:\n        /* \"#utility.yul\":1925:1927   */\n      dup4\n        /* \"#utility.yul\":1922:1923   */\n      dup7\n        /* \"#utility.yul\":1919:1928   */\n      lt\n        /* \"#utility.yul\":1911:2082   */\n      iszero\n      tag_371\n      jumpi\n        /* \"#utility.yul\":1982:2007   */\n      tag_372\n        /* \"#utility.yul\":2003:2006   */\n      dup2\n        /* \"#utility.yul\":1982:2007   */\n      tag_346\n      jump\t// in\n    tag_372:\n        /* \"#utility.yul\":1970:2008   */\n      dup6\n      mstore\n        /* \"#utility.yul\":1943:1944   */\n      0x01\n        /* \"#utility.yul\":1936:1945   */\n      swap6\n      swap1\n      swap6\n      add\n      swap5\n        /* \"#utility.yul\":2028:2040   */\n      swap4\n      dup7\n      add\n      swap4\n        /* \"#utility.yul\":2060:2072   */\n      dup7\n      add\n        /* \"#utility.yul\":1911:2082   */\n      jump(tag_369)\n    tag_371:\n      pop\n        /* \"#utility.yul\":2101:2107   */\n      swap9\n        /* \"#utility.yul\":1042:2113   */\n      swap8\n      pop\n      pop\n      pop\n      pop\n      pop\n      pop\n      pop\n      pop\n      jump\t// out\n        /* \"#utility.yul\":2118:2415   */\n    tag_309:\n      0x00\n        /* \"#utility.yul\":2238:2240   */\n      0x20\n        /* \"#utility.yul\":2226:2235   */\n      dup3\n        /* \"#utility.yul\":2217:2224   */\n      dup5\n        /* \"#utility.yul\":2213:2236   */\n      sub\n        /* \"#utility.yul\":2209:2241   */\n      slt\n        /* \"#utility.yul\":2206:2208   */\n      iszero\n      tag_374\n      jumpi\n        /* \"#utility.yul\":2259:2265   */\n      dup1\n        /* \"#utility.yul\":2251:2257   */\n      dup2\n        /* \"#utility.yul\":2244:2266   */\n      revert\n        /* \"#utility.yul\":2206:2208   */\n    tag_374:\n        /* \"#utility.yul\":2296:2305   */\n      dup2\n        /* \"#utility.yul\":2290:2306   */\n      mload\n        /* \"#utility.yul\":2349:2354   */\n      dup1\n        /* \"#utility.yul\":2342:2355   */\n      iszero\n        /* \"#utility.yul\":2335:2356   */\n      iszero\n        /* \"#utility.yul\":2328:2333   */\n      dup2\n        /* \"#utility.yul\":2325:2357   */\n      eq\n        /* \"#utility.yul\":2315:2317   */\n      tag_229\n      jumpi\n        /* \"#utility.yul\":2376:2382   */\n      dup2\n        /* \"#utility.yul\":2368:2374   */\n      dup3\n        /* \"#utility.yul\":2361:2383   */\n      revert\n        /* \"#utility.yul\":2420:2614   */\n    tag_300:\n      0x00\n        /* \"#utility.yul\":2543:2545   */\n      0x20\n        /* \"#utility.yul\":2531:2540   */\n      dup3\n        /* \"#utility.yul\":2522:2529   */\n      dup5\n        /* \"#utility.yul\":2518:2541   */\n      sub\n        /* \"#utility.yul\":2514:2546   */\n      slt\n        /* \"#utility.yul\":2511:2513   */\n      iszero\n      tag_377\n      jumpi\n        /* \"#utility.yul\":2564:2570   */\n      dup1\n        /* \"#utility.yul\":2556:2562   */\n      dup2\n        /* \"#utility.yul\":2549:2571   */\n      revert\n        /* \"#utility.yul\":2511:2513   */\n    tag_377:\n      pop\n        /* \"#utility.yul\":2592:2608   */\n      mload\n      swap2\n        /* \"#utility.yul\":2501:2614   */\n      swap1\n      pop\n      jump\t// out\n        /* \"#utility.yul\":2619:2822   */\n    tag_54:\n      sub(shl(0xa0, 0x01), 0x01)\n        /* \"#utility.yul\":2783:2815   */\n      swap2\n      swap1\n      swap2\n      and\n        /* \"#utility.yul\":2765:2816   */\n      dup2\n      mstore\n        /* \"#utility.yul\":2753:2755   */\n      0x20\n        /* \"#utility.yul\":2738:2756   */\n      add\n      swap1\n        /* \"#utility.yul\":2720:2822   */\n      jump\t// out\n        /* \"#utility.yul\":2827:3131   */\n    tag_336:\n      sub(shl(0xa0, 0x01), 0x01)\n        /* \"#utility.yul\":3057:3072   */\n      swap3\n      dup4\n      and\n        /* \"#utility.yul\":3039:3073   */\n      dup2\n      mstore\n        /* \"#utility.yul\":3109:3124   */\n      swap2\n      and\n        /* \"#utility.yul\":3104:3106   */\n      0x20\n        /* \"#utility.yul\":3089:3107   */\n      dup3\n      add\n        /* \"#utility.yul\":3082:3125   */\n      mstore\n        /* \"#utility.yul\":2989:2991   */\n      0x40\n        /* \"#utility.yul\":2974:2992   */\n      add\n      swap1\n        /* \"#utility.yul\":2956:3131   */\n      jump\t// out\n        /* \"#utility.yul\":3136:3797   */\n    tag_67:\n        /* \"#utility.yul\":3307:3309   */\n      0x20\n        /* \"#utility.yul\":3359:3380   */\n      dup1\n      dup3\n      mstore\n        /* \"#utility.yul\":3429:3442   */\n      dup3\n      mload\n        /* \"#utility.yul\":3332:3350   */\n      dup3\n      dup3\n      add\n        /* \"#utility.yul\":3451:3473   */\n      dup2\n      swap1\n      mstore\n        /* \"#utility.yul\":3136:3797   */\n      0x00\n      swap2\n        /* \"#utility.yul\":3307:3309   */\n      swap1\n        /* \"#utility.yul\":3530:3545   */\n      dup5\n      dup3\n      add\n      swap1\n        /* \"#utility.yul\":3504:3506   */\n      0x40\n        /* \"#utility.yul\":3489:3507   */\n      dup6\n      add\n      swap1\n        /* \"#utility.yul\":3136:3797   */\n      dup5\n        /* \"#utility.yul\":3576:3771   */\n    tag_381:\n        /* \"#utility.yul\":3590:3596   */\n      dup2\n        /* \"#utility.yul\":3587:3588   */\n      dup2\n        /* \"#utility.yul\":3584:3597   */\n      lt\n        /* \"#utility.yul\":3576:3771   */\n      iszero\n      tag_383\n      jumpi\n        /* \"#utility.yul\":3655:3668   */\n      dup4\n      mload\n      sub(shl(0xa0, 0x01), 0x01)\n        /* \"#utility.yul\":3651:3690   */\n      and\n        /* \"#utility.yul\":3639:3691   */\n      dup4\n      mstore\n        /* \"#utility.yul\":3746:3761   */\n      swap3\n      dup5\n      add\n      swap3\n        /* \"#utility.yul\":3711:3723   */\n      swap2\n      dup5\n      add\n      swap2\n        /* \"#utility.yul\":3687:3688   */\n      0x01\n        /* \"#utility.yul\":3605:3614   */\n      add\n        /* \"#utility.yul\":3576:3771   */\n      jump(tag_381)\n    tag_383:\n      pop\n        /* \"#utility.yul\":3788:3791   */\n      swap1\n      swap7\n        /* \"#utility.yul\":3287:3797   */\n      swap6\n      pop\n      pop\n      pop\n      pop\n      pop\n      pop\n      jump\t// out\n        /* \"#utility.yul\":3802:3989   */\n    tag_46:\n        /* \"#utility.yul\":3967:3981   */\n      swap1\n      iszero\n        /* \"#utility.yul\":3960:3982   */\n      iszero\n        /* \"#utility.yul\":3942:3983   */\n      dup2\n      mstore\n        /* \"#utility.yul\":3930:3932   */\n      0x20\n        /* \"#utility.yul\":3915:3933   */\n      add\n      swap1\n        /* \"#utility.yul\":3897:3989   */\n      jump\t// out\n        /* \"#utility.yul\":4678:5148   */\n    tag_294:\n        /* \"#utility.yul\":4880:4882   */\n      0x20\n        /* \"#utility.yul\":4862:4883   */\n      dup1\n      dup3\n      mstore\n        /* \"#utility.yul\":4919:4921   */\n      0x42\n        /* \"#utility.yul\":4899:4917   */\n      swap1\n      dup3\n      add\n        /* \"#utility.yul\":4892:4922   */\n      mstore\n        /* \"#utility.yul\":4958:4992   */\n      0x5472616e73666572526570546f4d61737465723a20696e707574205f776f726b\n        /* \"#utility.yul\":4953:4955   */\n      0x40\n        /* \"#utility.yul\":4938:4956   */\n      dup3\n      add\n        /* \"#utility.yul\":4931:4993   */\n      mstore\n        /* \"#utility.yul\":5029:5063   */\n      0x6572206e6565647320746f20686176652061206e6f6e2d6e756c6c206d617374\n        /* \"#utility.yul\":5024:5026   */\n      0x60\n        /* \"#utility.yul\":5009:5027   */\n      dup3\n      add\n        /* \"#utility.yul\":5002:5064   */\n      mstore\n      shl(0xf1, 0x32b9)\n        /* \"#utility.yul\":5095:5098   */\n      0x80\n        /* \"#utility.yul\":5080:5099   */\n      dup3\n      add\n        /* \"#utility.yul\":5073:5106   */\n      mstore\n        /* \"#utility.yul\":5138:5141   */\n      0xa0\n        /* \"#utility.yul\":5123:5142   */\n      add\n      swap1\n        /* \"#utility.yul\":4852:5148   */\n      jump\t// out\n        /* \"#utility.yul\":5153:5568   */\n    tag_343:\n        /* \"#utility.yul\":5355:5357   */\n      0x20\n        /* \"#utility.yul\":5337:5358   */\n      dup1\n      dup3\n      mstore\n        /* \"#utility.yul\":5394:5396   */\n      0x33\n        /* \"#utility.yul\":5374:5392   */\n      swap1\n      dup3\n      add\n        /* \"#utility.yul\":5367:5397   */\n      mstore\n        /* \"#utility.yul\":5433:5467   */\n      0x5472616e7366657252657761726473546f4d61737465723a20636f756c64206e\n        /* \"#utility.yul\":5428:5430   */\n      0x40\n        /* \"#utility.yul\":5413:5431   */\n      dup3\n      add\n        /* \"#utility.yul\":5406:5468   */\n      mstore\n      shl(0x68, 0x6f74207472616e736665722072657761726473)\n        /* \"#utility.yul\":5499:5501   */\n      0x60\n        /* \"#utility.yul\":5484:5502   */\n      dup3\n      add\n        /* \"#utility.yul\":5477:5526   */\n      mstore\n        /* \"#utility.yul\":5558:5561   */\n      0x80\n        /* \"#utility.yul\":5543:5562   */\n      add\n      swap1\n        /* \"#utility.yul\":5327:5568   */\n      jump\t// out\n        /* \"#utility.yul\":5573:5928   */\n    tag_325:\n        /* \"#utility.yul\":5775:5777   */\n      0x20\n        /* \"#utility.yul\":5757:5778   */\n      dup1\n      dup3\n      mstore\n        /* \"#utility.yul\":5814:5816   */\n      0x1f\n        /* \"#utility.yul\":5794:5812   */\n      swap1\n      dup3\n      add\n        /* \"#utility.yul\":5787:5817   */\n      mstore\n        /* \"#utility.yul\":5853:5886   */\n      0x5265776172644d616e61676572206e6565647320746f20626520736574757000\n        /* \"#utility.yul\":5848:5850   */\n      0x40\n        /* \"#utility.yul\":5833:5851   */\n      dup3\n      add\n        /* \"#utility.yul\":5826:5887   */\n      mstore\n        /* \"#utility.yul\":5919:5921   */\n      0x60\n        /* \"#utility.yul\":5904:5922   */\n      add\n      swap1\n        /* \"#utility.yul\":5747:5928   */\n      jump\t// out\n        /* \"#utility.yul\":5933:6335   */\n    tag_256:\n        /* \"#utility.yul\":6135:6137   */\n      0x20\n        /* \"#utility.yul\":6117:6138   */\n      dup1\n      dup3\n      mstore\n        /* \"#utility.yul\":6174:6176   */\n      0x26\n        /* \"#utility.yul\":6154:6172   */\n      swap1\n      dup3\n      add\n        /* \"#utility.yul\":6147:6177   */\n      mstore\n        /* \"#utility.yul\":6213:6247   */\n      0x4f776e61626c653a206e6577206f776e657220697320746865207a65726f2061\n        /* \"#utility.yul\":6208:6210   */\n      0x40\n        /* \"#utility.yul\":6193:6211   */\n      dup3\n      add\n        /* \"#utility.yul\":6186:6248   */\n      mstore\n      shl(0xd0, 0x646472657373)\n        /* \"#utility.yul\":6279:6281   */\n      0x60\n        /* \"#utility.yul\":6264:6282   */\n      dup3\n      add\n        /* \"#utility.yul\":6257:6293   */\n      mstore\n        /* \"#utility.yul\":6325:6328   */\n      0x80\n        /* \"#utility.yul\":6310:6329   */\n      add\n      swap1\n        /* \"#utility.yul\":6107:6335   */\n      jump\t// out\n        /* \"#utility.yul\":6340:6754   */\n    tag_195:\n        /* \"#utility.yul\":6542:6544   */\n      0x20\n        /* \"#utility.yul\":6524:6545   */\n      dup1\n      dup3\n      mstore\n        /* \"#utility.yul\":6581:6583   */\n      0x32\n        /* \"#utility.yul\":6561:6579   */\n      swap1\n      dup3\n      add\n        /* \"#utility.yul\":6554:6584   */\n      mstore\n        /* \"#utility.yul\":6620:6654   */\n      0x43616e27742072656d6f76653a204d6173746572206e6f7420636c61696d696e\n        /* \"#utility.yul\":6615:6617   */\n      0x40\n        /* \"#utility.yul\":6600:6618   */\n      dup3\n      add\n        /* \"#utility.yul\":6593:6655   */\n      mstore\n      shl(0x70, 0x672074686973205375622041646472657373)\n        /* \"#utility.yul\":6686:6688   */\n      0x60\n        /* \"#utility.yul\":6671:6689   */\n      dup3\n      add\n        /* \"#utility.yul\":6664:6712   */\n      mstore\n        /* \"#utility.yul\":6744:6747   */\n      0x80\n        /* \"#utility.yul\":6729:6748   */\n      add\n      swap1\n        /* \"#utility.yul\":6514:6754   */\n      jump\t// out\n        /* \"#utility.yul\":6759:7172   */\n    tag_312:\n        /* \"#utility.yul\":6961:6963   */\n      0x20\n        /* \"#utility.yul\":6943:6964   */\n      dup1\n      dup3\n      mstore\n        /* \"#utility.yul\":7000:7002   */\n      0x31\n        /* \"#utility.yul\":6980:6998   */\n      swap1\n      dup3\n      add\n        /* \"#utility.yul\":6973:7003   */\n      mstore\n        /* \"#utility.yul\":7039:7073   */\n      0x5472616e73666572526570546f4d61737465723a20636f756c64206e6f74206d\n        /* \"#utility.yul\":7034:7036   */\n      0x40\n        /* \"#utility.yul\":7019:7037   */\n      dup3\n      add\n        /* \"#utility.yul\":7012:7074   */\n      mstore\n      shl(0x79, 0x34b73a102932b8103a379036b0b9ba32b9)\n        /* \"#utility.yul\":7105:7107   */\n      0x60\n        /* \"#utility.yul\":7090:7108   */\n      dup3\n      add\n        /* \"#utility.yul\":7083:7130   */\n      mstore\n        /* \"#utility.yul\":7162:7165   */\n      0x80\n        /* \"#utility.yul\":7147:7166   */\n      add\n      swap1\n        /* \"#utility.yul\":6933:7172   */\n      jump\t// out\n        /* \"#utility.yul\":7177:7592   */\n    tag_320:\n        /* \"#utility.yul\":7379:7381   */\n      0x20\n        /* \"#utility.yul\":7361:7382   */\n      dup1\n      dup3\n      mstore\n        /* \"#utility.yul\":7418:7420   */\n      0x33\n        /* \"#utility.yul\":7398:7416   */\n      swap1\n      dup3\n      add\n        /* \"#utility.yul\":7391:7421   */\n      mstore\n        /* \"#utility.yul\":7457:7491   */\n      0x5472616e73666572526570546f4d61737465723a20636f756c64206e6f742062\n        /* \"#utility.yul\":7452:7454   */\n      0x40\n        /* \"#utility.yul\":7437:7455   */\n      dup3\n      add\n        /* \"#utility.yul\":7430:7492   */\n      mstore\n      shl(0x69, 0x3ab937102932b810333937b6903bb7b935b2b9)\n        /* \"#utility.yul\":7523:7525   */\n      0x60\n        /* \"#utility.yul\":7508:7526   */\n      dup3\n      add\n        /* \"#utility.yul\":7501:7550   */\n      mstore\n        /* \"#utility.yul\":7582:7585   */\n      0x80\n        /* \"#utility.yul\":7567:7586   */\n      add\n      swap1\n        /* \"#utility.yul\":7351:7592   */\n      jump\t// out\n        /* \"#utility.yul\":7597:8010   */\n    tag_241:\n        /* \"#utility.yul\":7799:7801   */\n      0x20\n        /* \"#utility.yul\":7781:7802   */\n      dup1\n      dup3\n      mstore\n        /* \"#utility.yul\":7838:7840   */\n      0x31\n        /* \"#utility.yul\":7818:7836   */\n      swap1\n      dup3\n      add\n        /* \"#utility.yul\":7811:7841   */\n      mstore\n        /* \"#utility.yul\":7877:7911   */\n      0x43616e277420636c61696d204d61737465723a20616c726561647920636c6169\n        /* \"#utility.yul\":7872:7874   */\n      0x40\n        /* \"#utility.yul\":7857:7875   */\n      dup3\n      add\n        /* \"#utility.yul\":7850:7912   */\n      mstore\n      shl(0x78, 0x6d696e6720746869732061646472657373)\n        /* \"#utility.yul\":7943:7945   */\n      0x60\n        /* \"#utility.yul\":7928:7946   */\n      dup3\n      add\n        /* \"#utility.yul\":7921:7968   */\n      mstore\n        /* \"#utility.yul\":8000:8003   */\n      0x80\n        /* \"#utility.yul\":7985:8004   */\n      add\n      swap1\n        /* \"#utility.yul\":7771:8010   */\n      jump\t// out\n        /* \"#utility.yul\":8015:8367   */\n    tag_291:\n        /* \"#utility.yul\":8217:8219   */\n      0x20\n        /* \"#utility.yul\":8199:8220   */\n      dup1\n      dup3\n      mstore\n        /* \"#utility.yul\":8256:8258   */\n      0x1c\n        /* \"#utility.yul\":8236:8254   */\n      swap1\n      dup3\n      add\n        /* \"#utility.yul\":8229:8259   */\n      mstore\n        /* \"#utility.yul\":8295:8325   */\n      0x5265704d616e61676572206e6565647320746f20626520736574757000000000\n        /* \"#utility.yul\":8290:8292   */\n      0x40\n        /* \"#utility.yul\":8275:8293   */\n      dup3\n      add\n        /* \"#utility.yul\":8268:8326   */\n      mstore\n        /* \"#utility.yul\":8358:8360   */\n      0x60\n        /* \"#utility.yul\":8343:8361   */\n      add\n      swap1\n        /* \"#utility.yul\":8189:8367   */\n      jump\t// out\n        /* \"#utility.yul\":8372:8728   */\n    tag_150:\n        /* \"#utility.yul\":8574:8576   */\n      0x20\n        /* \"#utility.yul\":8556:8577   */\n      dup1\n      dup3\n      mstore\n        /* \"#utility.yul\":8593:8611   */\n      dup2\n      dup2\n      add\n        /* \"#utility.yul\":8586:8616   */\n      mstore\n        /* \"#utility.yul\":8652:8686   */\n      0x4f776e61626c653a2063616c6c6572206973206e6f7420746865206f776e6572\n        /* \"#utility.yul\":8647:8649   */\n      0x40\n        /* \"#utility.yul\":8632:8650   */\n      dup3\n      add\n        /* \"#utility.yul\":8625:8687   */\n      mstore\n        /* \"#utility.yul\":8719:8721   */\n      0x60\n        /* \"#utility.yul\":8704:8722   */\n      add\n      swap1\n        /* \"#utility.yul\":8546:8728   */\n      jump\t// out\n        /* \"#utility.yul\":8733:9085   */\n    tag_288:\n        /* \"#utility.yul\":8935:8937   */\n      0x20\n        /* \"#utility.yul\":8917:8938   */\n      dup1\n      dup3\n      mstore\n        /* \"#utility.yul\":8974:8976   */\n      0x1c\n        /* \"#utility.yul\":8954:8972   */\n      swap1\n      dup3\n      add\n        /* \"#utility.yul\":8947:8977   */\n      mstore\n        /* \"#utility.yul\":9013:9043   */\n      0x52657075746174696f6e206e6565647320746f20626520736574757000000000\n        /* \"#utility.yul\":9008:9010   */\n      0x40\n        /* \"#utility.yul\":8993:9011   */\n      dup3\n      add\n        /* \"#utility.yul\":8986:9044   */\n      mstore\n        /* \"#utility.yul\":9076:9078   */\n      0x60\n        /* \"#utility.yul\":9061:9079   */\n      add\n      swap1\n        /* \"#utility.yul\":8907:9085   */\n      jump\t// out\n        /* \"#utility.yul\":9090:9516   */\n    tag_162:\n        /* \"#utility.yul\":9292:9294   */\n      0x20\n        /* \"#utility.yul\":9274:9295   */\n      dup1\n      dup3\n      mstore\n        /* \"#utility.yul\":9331:9333   */\n      0x3e\n        /* \"#utility.yul\":9311:9329   */\n      swap1\n      dup3\n      add\n        /* \"#utility.yul\":9304:9334   */\n      mstore\n        /* \"#utility.yul\":9370:9404   */\n      0x4665746368486967686573744d61737465723a20696e707574205f776f726b65\n        /* \"#utility.yul\":9365:9367   */\n      0x40\n        /* \"#utility.yul\":9350:9368   */\n      dup3\n      add\n        /* \"#utility.yul\":9343:9405   */\n      mstore\n        /* \"#utility.yul\":9441:9473   */\n      0x72206e6565647320746f206265206e6f6e206e756c6c20616464726573730000\n        /* \"#utility.yul\":9436:9438   */\n      0x60\n        /* \"#utility.yul\":9421:9439   */\n      dup3\n      add\n        /* \"#utility.yul\":9414:9474   */\n      mstore\n        /* \"#utility.yul\":9506:9509   */\n      0x80\n        /* \"#utility.yul\":9491:9510   */\n      add\n      swap1\n        /* \"#utility.yul\":9264:9516   */\n      jump\t// out\n        /* \"#utility.yul\":9521:9931   */\n    tag_202:\n        /* \"#utility.yul\":9723:9725   */\n      0x20\n        /* \"#utility.yul\":9705:9726   */\n      dup1\n      dup3\n      mstore\n        /* \"#utility.yul\":9762:9764   */\n      0x2e\n        /* \"#utility.yul\":9742:9760   */\n      swap1\n      dup3\n      add\n        /* \"#utility.yul\":9735:9765   */\n      mstore\n        /* \"#utility.yul\":9801:9835   */\n      0x43616e27742072656d6f7665204d61737465723a206e6f7420636c61696d696e\n        /* \"#utility.yul\":9796:9798   */\n      0x40\n        /* \"#utility.yul\":9781:9799   */\n      dup3\n      add\n        /* \"#utility.yul\":9774:9836   */\n      mstore\n      shl(0x90, 0x6720746869732061646472657373)\n        /* \"#utility.yul\":9867:9869   */\n      0x60\n        /* \"#utility.yul\":9852:9870   */\n      dup3\n      add\n        /* \"#utility.yul\":9845:9889   */\n      mstore\n        /* \"#utility.yul\":9921:9924   */\n      0x80\n        /* \"#utility.yul\":9906:9925   */\n      add\n      swap1\n        /* \"#utility.yul\":9695:9931   */\n      jump\t// out\n        /* \"#utility.yul\":9936:10340   */\n    tag_171:\n        /* \"#utility.yul\":10138:10140   */\n      0x20\n        /* \"#utility.yul\":10120:10141   */\n      dup1\n      dup3\n      mstore\n        /* \"#utility.yul\":10177:10179   */\n      0x28\n        /* \"#utility.yul\":10157:10175   */\n      swap1\n      dup3\n      add\n        /* \"#utility.yul\":10150:10180   */\n      mstore\n        /* \"#utility.yul\":10216:10250   */\n      0x4d617374657220616c726561647920636c61696d696e67207468697320537562\n        /* \"#utility.yul\":10211:10213   */\n      0x40\n        /* \"#utility.yul\":10196:10214   */\n      dup3\n      add\n        /* \"#utility.yul\":10189:10251   */\n      mstore\n      shl(0xc0, 0x2041646472657373)\n        /* \"#utility.yul\":10282:10284   */\n      0x60\n        /* \"#utility.yul\":10267:10285   */\n      dup3\n      add\n        /* \"#utility.yul\":10260:10298   */\n      mstore\n        /* \"#utility.yul\":10330:10333   */\n      0x80\n        /* \"#utility.yul\":10315:10334   */\n      add\n      swap1\n        /* \"#utility.yul\":10110:10340   */\n      jump\t// out\n        /* \"#utility.yul\":10345:10749   */\n    tag_304:\n        /* \"#utility.yul\":10610:10635   */\n      swap2\n      dup3\n      mstore\n      sub(shl(0xa0, 0x01), 0x01)\n        /* \"#utility.yul\":10671:10703   */\n      and\n        /* \"#utility.yul\":10666:10668   */\n      0x20\n        /* \"#utility.yul\":10651:10669   */\n      dup3\n      add\n        /* \"#utility.yul\":10644:10704   */\n      mstore\n        /* \"#utility.yul\":10345:10749   */\n      0x00\n        /* \"#utility.yul\":10735:10737   */\n      0x40\n        /* \"#utility.yul\":10720:10738   */\n      dup3\n      add\n        /* \"#utility.yul\":10713:10743   */\n      mstore\n        /* \"#utility.yul\":10598:10600   */\n      0x60\n        /* \"#utility.yul\":10583:10601   */\n      add\n      swap1\n        /* \"#utility.yul\":10565:10749   */\n      jump\t// out\n        /* \"#utility.yul\":10754:10879   */\n    tag_167:\n      0x00\n        /* \"#utility.yul\":10822:10823   */\n      dup3\n        /* \"#utility.yul\":10819:10820   */\n      dup3\n        /* \"#utility.yul\":10816:10824   */\n      lt\n        /* \"#utility.yul\":10813:10815   */\n      iszero\n      tag_405\n      jumpi\n        /* \"#utility.yul\":10827:10845   */\n      tag_405\n      tag_406\n      jump\t// in\n    tag_405:\n      pop\n        /* \"#utility.yul\":10864:10873   */\n      sub\n      swap1\n        /* \"#utility.yul\":10803:10879   */\n      jump\t// out\n        /* \"#utility.yul\":10884:11019   */\n    tag_191:\n      0x00\n      not(0x00)\n        /* \"#utility.yul\":10944:10961   */\n      dup3\n      eq\n        /* \"#utility.yul\":10941:10943   */\n      iszero\n      tag_409\n      jumpi\n        /* \"#utility.yul\":10964:10982   */\n      tag_409\n      tag_406\n      jump\t// in\n    tag_409:\n      pop\n        /* \"#utility.yul\":11011:11012   */\n      0x01\n        /* \"#utility.yul\":11000:11013   */\n      add\n      swap1\n        /* \"#utility.yul\":10931:11019   */\n      jump\t// out\n        /* \"#utility.yul\":11024:11151   */\n    tag_406:\n        /* \"#utility.yul\":11085:11095   */\n      0x4e487b71\n        /* \"#utility.yul\":11080:11083   */\n      0xe0\n        /* \"#utility.yul\":11076:11096   */\n      shl\n        /* \"#utility.yul\":11073:11074   */\n      0x00\n        /* \"#utility.yul\":11066:11097   */\n      mstore\n        /* \"#utility.yul\":11116:11120   */\n      0x11\n        /* \"#utility.yul\":11113:11114   */\n      0x04\n        /* \"#utility.yul\":11106:11121   */\n      mstore\n        /* \"#utility.yul\":11140:11144   */\n      0x24\n        /* \"#utility.yul\":11137:11138   */\n      0x00\n        /* \"#utility.yul\":11130:11145   */\n      revert\n        /* \"#utility.yul\":11156:11283   */\n    tag_365:\n        /* \"#utility.yul\":11217:11227   */\n      0x4e487b71\n        /* \"#utility.yul\":11212:11215   */\n      0xe0\n        /* \"#utility.yul\":11208:11228   */\n      shl\n        /* \"#utility.yul\":11205:11206   */\n      0x00\n        /* \"#utility.yul\":11198:11229   */\n      mstore\n        /* \"#utility.yul\":11248:11252   */\n      0x41\n        /* \"#utility.yul\":11245:11246   */\n      0x04\n        /* \"#utility.yul\":11238:11253   */\n      mstore\n        /* \"#utility.yul\":11272:11276   */\n      0x24\n        /* \"#utility.yul\":11269:11270   */\n      0x00\n        /* \"#utility.yul\":11262:11277   */\n      revert\n\n    auxdata: 0xa264697066735822122024cb4b9b4ce718f84d0e22ee20b54b0ab1b8764cd1298459feb47a828a112a4f64736f6c63430008000033\n}\n",
				"bytecode": {
					"linkReferences": {},
					"object": "60806040526005805534801561001457600080fd5b5061002561002061002a565b61002e565b61007e565b3390565b600080546001600160a01b038381166001600160a01b0319831681178455604051919092169283917f8be0079c531659141344cd1fd0a4f28419497f9722a3daafe3b4186f6b6457e09190a35050565b611cef8061008d6000396000f3fe608060405234801561001057600080fd5b50600436106101c45760003560e01c8063715018a6116100f9578063db51982411610097578063e4f1d0fd11610071578063e4f1d0fd14610379578063f25e9ed21461038c578063f2fde38b1461039f578063f77c8658146103b2576101c4565b8063db51982414610340578063dd61868214610353578063df77a0f614610366576101c4565b806396daff56116100d357806396daff56146103125780639904ed8d146103255780639f62c3791461032d578063ac8d65cb14610312576101c4565b8063715018a6146102ef5780638213b8d8146102f75780638da5cb5b1461030a576101c4565b806329a47bc71161016657806339c3f6e71161014057806339c3f6e7146102ae5780634826d043146102c157806351912f29146102d4578063584720f5146102dc576101c4565b806329a47bc7146102805780632e3ce45714610288578063342bffbf1461029b576101c4565b806311815086116101a2578063118150861461021a57806312ccb1471461023a5780631778f9c81461024d578063198ff3dc14610260576101c4565b8063050eb2eb146101c95780630c06e4df146101de5780630e90e56514610207575b600080fd5b6101dc6101d7366004611634565b6103c5565b005b6101f16101ec366004611634565b61042f565b6040516101fe919061181d565b60405180910390f35b6101dc610215366004611634565b61045c565b61022d610228366004611634565b6104bd565b6040516101fe91906117a2565b6101dc610248366004611634565b61055d565b6101f161025b36600461164e565b610638565b61027361026e366004611634565b610658565b6040516101fe91906117d0565b61022d6106ce565b61022d610296366004611680565b6106dd565b6101f16102a936600461164e565b610715565b6101dc6102bc3660046116a9565b610735565b6101dc6102cf366004611634565b6108f5565b61022d6109a6565b6101dc6102ea366004611634565b6109b5565b6101dc610a6b565b6101dc6103053660046116a9565b610ab6565b61022d610c40565b6101f161032036600461164e565b610c4f565b61022d610c7d565b6101f161033b36600461164e565b610c8c565b6101f161034e366004611634565b610cb0565b6101dc610361366004611634565b610cd9565b6101dc610374366004611634565b610d3a565b61022d610387366004611634565b610e18565b61022d61039a366004611634565b610e33565b6101dc6103ad366004611634565b610e51565b6101f16103c036600461164e565b610ec2565b6103cd610fa7565b6001600160a01b03166103de610c40565b6001600160a01b03161461040d5760405162461bcd60e51b815260040161040490611ade565b60405180910390fd5b600880546001600160a01b0319166001600160a01b0392909216919091179055565b3360009081526001602090815260408083206001600160a01b038516845290915290205460ff165b919050565b610464610fa7565b6001600160a01b0316610475610c40565b6001600160a01b03161461049b5760405162461bcd60e51b815260040161040490611ade565b600680546001600160a01b0319166001600160a01b0392909216919091179055565b60006001600160a01b0382166104e55760405162461bcd60e51b815260040161040490611b4a565b6001600160a01b0380831660009081526004602052604090205460055491169083905b6001600160a01b038316158015906105205750600081115b15610555576001600160a01b038084166000908152600460205260409020541692915061054e600182611c5b565b9050610508565b509392505050565b3360009081526001602081815260408084206001600160a01b03861685529091529091205460ff16151514156105a55760405162461bcd60e51b815260040161040490611bf5565b3360008181526001602081815260408084206001600160a01b038716808652908352818520805460ff191685179055858552600383528185208054948501815585529190932090910180546001600160a01b0319169091179055517f8902b85532bfc55a9f5b6e6a9576366640928b3be984b3a61167a210ca2bbc579061062d9084906117a2565b60405180910390a250565b600260209081526000928352604080842090915290825290205460ff1681565b6001600160a01b0381166000908152600360209081526040918290208054835181840281018401909452808452606093928301828280156106c257602002820191906000526020600020905b81546001600160a01b031681526001909101906020018083116106a4575b50505050509050919050565b6007546001600160a01b031681565b600360205281600052604060002081815481106106f957600080fd5b6000918252602090912001546001600160a01b03169150829050565b600160209081526000928352604080842090915290825290205460ff1681565b60005b81518110156108f157336000908152600160205260408120835190919084908490811061077557634e487b7160e01b600052603260045260246000fd5b6020908102919091018101516001600160a01b031682528101919091526040016000205460ff1615156001146108df5733600090815260016020819052604082208451919290918590859081106107dc57634e487b7160e01b600052603260045260246000fd5b6020908102919091018101516001600160a01b031682528181019290925260409081016000908120805460ff19169415159490941790935533835260039091529020825183908390811061084057634e487b7160e01b600052603260045260246000fd5b60209081029190910181015182546001810184556000938452919092200180546001600160a01b0319166001600160a01b03909216919091179055815133907f8902b85532bfc55a9f5b6e6a9576366640928b3be984b3a61167a210ca2bbc57908490849081106108c157634e487b7160e01b600052603260045260246000fd5b60200260200101516040516108d691906117a2565b60405180910390a25b806108e981611c72565b915050610738565b5050565b3360009081526001602090815260408083206001600160a01b038516845290915290205460ff166109385760405162461bcd60e51b815260040161040490611960565b3360008181526001602090815260408083206001600160a01b03861684529091529020805460ff1916905561096d9082610fab565b336001600160a01b03167f7a24ac72e272dd8c83b793ae84448c72032b95723856486219c79dd722fe42928260405161062d91906117a2565b6008546001600160a01b031681565b6001600160a01b038116600090815260026020908152604080832033845290915290205460ff166109f85760405162461bcd60e51b815260040161040490611ba7565b6001600160a01b038116600090815260026020908152604080832033808552908352818420805460ff1916905560049092529182902080546001600160a01b031916905590517f0d7169440daf0897d7f4486a35eef15a070460981ff18ab846aa2199f171118e9061062d9084906117a2565b610a73610fa7565b6001600160a01b0316610a84610c40565b6001600160a01b031614610aaa5760405162461bcd60e51b815260040161040490611ade565b610ab46000611159565b565b60005b81518110156108f1573360009081526001602052604081208351909190849084908110610af657634e487b7160e01b600052603260045260246000fd5b6020908102919091018101516001600160a01b031682528101919091526040016000205460ff1615610c2e5733600090815260016020526040812083518290859085908110610b5557634e487b7160e01b600052603260045260246000fd5b60200260200101516001600160a01b03166001600160a01b0316815260200190815260200160002060006101000a81548160ff021916908315150217905550610bc533838381518110610bb857634e487b7160e01b600052603260045260246000fd5b6020026020010151610fab565b336001600160a01b03167f7a24ac72e272dd8c83b793ae84448c72032b95723856486219c79dd722fe4292838381518110610c1057634e487b7160e01b600052603260045260246000fd5b6020026020010151604051610c2591906117a2565b60405180910390a25b80610c3881611c72565b915050610ab9565b6000546001600160a01b031690565b6001600160a01b03918216600090815260016020908152604080832093909416825291909152205460ff1690565b6006546001600160a01b031681565b6000610c988383610c4f565b8015610ca95750610ca98383610c4f565b9392505050565b6001600160a01b0316600090815260016020908152604080832033845290915290205460ff1690565b610ce1610fa7565b6001600160a01b0316610cf2610c40565b6001600160a01b031614610d185760405162461bcd60e51b815260040161040490611ade565b600780546001600160a01b0319166001600160a01b0392909216919091179055565b6001600160a01b038116600090815260026020908152604080832033845290915290205460ff16151560011415610d835760405162461bcd60e51b815260040161040490611a56565b6001600160a01b038116600081815260026020908152604080832033808552908352818420805460ff19166001179055600490925290912080546001600160a01b031916909217909155610dd6906111a9565b610ddf3361144d565b336001600160a01b03167f85851bdf5239daecee00c49afa200b87f208a1cc246f3c3da177796c9f605d738260405161062d91906117a2565b6004602052600090815260409020546001600160a01b031681565b6001600160a01b039081166000908152600460205260409020541690565b610e59610fa7565b6001600160a01b0316610e6a610c40565b6001600160a01b031614610e905760405162461bcd60e51b815260040161040490611ade565b6001600160a01b038116610eb65760405162461bcd60e51b81526004016104049061191a565b610ebf81611159565b50565b6001600160a01b0381166000908152600360209081526040808320805482518185028101850190935280835284938493929190830182828015610f2e57602002820191906000526020600020905b81546001600160a01b03168152600190910190602001808311610f10575b5050505050905060005b8151811015610f9d57856001600160a01b0316828281518110610f6b57634e487b7160e01b600052603260045260246000fd5b60200260200101516001600160a01b03161415610f8b5760019250610f9d565b80610f9581611c72565b915050610f38565b5090949350505050565b3390565b60008060005b6001600160a01b038516600090815260036020526040902054811015611047576001600160a01b0385811660009081526003602052604090208054918616918390811061100e57634e487b7160e01b600052603260045260246000fd5b6000918252602090912001546001600160a01b031614156110355760019150809250611047565b8061103f81611c72565b915050610fb1565b508015611153576001600160a01b0384166000908152600360205260409020805461107490600190611c5b565b8154811061109257634e487b7160e01b600052603260045260246000fd5b60009182526020808320909101546001600160a01b038781168452600390925260409092208054919092169190849081106110dd57634e487b7160e01b600052603260045260246000fd5b600091825260208083209190910180546001600160a01b0319166001600160a01b03948516179055918616815260039091526040902080548061113057634e487b7160e01b600052603160045260246000fd5b600082815260209020810160001990810180546001600160a01b03191690550190555b50505050565b600080546001600160a01b038381166001600160a01b0319831681178455604051919092169283917f8be0079c531659141344cd1fd0a4f28419497f9722a3daafe3b4186f6b6457e09190a35050565b6006546001600160a01b03166111d15760405162461bcd60e51b815260040161040490611b13565b6007546001600160a01b03166111f95760405162461bcd60e51b815260040161040490611aa7565b6001600160a01b03818116600090815260046020526040902054166112305760405162461bcd60e51b815260040161040490611828565b6006546040516370a0823160e01b81526000916001600160a01b0316906370a08231906112619085906004016117a2565b60206040518083038186803b15801561127957600080fd5b505afa15801561128d573d6000803e3d6000fd5b505050506040513d601f19601f820116820180604052508101906112b1919061178a565b905060006112be836104bd565b9050811561144857600754604051630db6cc8560e11b81526001600160a01b0390911690631b6d990a906112f89085908590600401611c3d565b602060405180830381600087803b15801561131257600080fd5b505af1158015611326573d6000803e3d6000fd5b505050506040513d601f19601f8201168201806040525081019061134a919061176a565b6113665760405162461bcd60e51b8152600401610404906119b2565b60075460405163171bcfc360e21b81526001600160a01b0390911690635c6f3f0c906113989085908790600401611c3d565b602060405180830381600087803b1580156113b257600080fd5b505af11580156113c6573d6000803e3d6000fd5b505050506040513d601f19601f820116820180604052508101906113ea919061176a565b6114065760405162461bcd60e51b815260040161040490611a03565b826001600160a01b03167fc587680578b3acb8eeb1ab421a6921efe2a32b10903016ebd6c3f39e51cd1d968260405161143f91906117a2565b60405180910390a25b505050565b6008546001600160a01b03166114755760405162461bcd60e51b8152600401610404906118e3565b6001600160a01b03818116600090815260046020526040902054166114ac5760405162461bcd60e51b815260040161040490611828565b600854604051633b4febfb60e21b81526000916001600160a01b03169063ed3fafec906114dd9085906004016117a2565b602060405180830381600087803b1580156114f757600080fd5b505af115801561150b573d6000803e3d6000fd5b505050506040513d601f19601f8201168201806040525081019061152f919061178a565b9050600061153c836104bd565b9050811561144857600854604051635f28bad560e01b81526001600160a01b0390911690635f28bad59061157690869085906004016117b6565b602060405180830381600087803b15801561159057600080fd5b505af11580156115a4573d6000803e3d6000fd5b505050506040513d601f19601f820116820180604052508101906115c8919061176a565b6115e45760405162461bcd60e51b815260040161040490611890565b826001600160a01b03167f04b22084ec80e4b31b47cb8c65cd44c4e4e2840e20dffcbd81bd7d048b74fb4e8260405161143f91906117a2565b80356001600160a01b038116811461045757600080fd5b600060208284031215611645578081fd5b610ca98261161d565b60008060408385031215611660578081fd5b6116698361161d565b91506116776020840161161d565b90509250929050565b60008060408385031215611692578182fd5b61169b8361161d565b946020939093013593505050565b600060208083850312156116bb578182fd5b823567ffffffffffffffff808211156116d2578384fd5b818501915085601f8301126116e5578384fd5b8135818111156116f7576116f7611ca3565b8381026040518582820101818110858211171561171657611716611ca3565b604052828152858101935084860182860187018a1015611734578788fd5b8795505b8386101561175d576117498161161d565b855260019590950194938601938601611738565b5098975050505050505050565b60006020828403121561177b578081fd5b81518015158114610ca9578182fd5b60006020828403121561179b578081fd5b5051919050565b6001600160a01b0391909116815260200190565b6001600160a01b0392831681529116602082015260400190565b6020808252825182820181905260009190848201906040850190845b818110156118115783516001600160a01b0316835292840192918401916001016117ec565b50909695505050505050565b901515815260200190565b60208082526042908201527f5472616e73666572526570546f4d61737465723a20696e707574205f776f726b60408201527f6572206e6565647320746f20686176652061206e6f6e2d6e756c6c206d61737460608201526132b960f11b608082015260a00190565b60208082526033908201527f5472616e7366657252657761726473546f4d61737465723a20636f756c64206e6040820152726f74207472616e73666572207265776172647360681b606082015260800190565b6020808252601f908201527f5265776172644d616e61676572206e6565647320746f20626520736574757000604082015260600190565b60208082526026908201527f4f776e61626c653a206e6577206f776e657220697320746865207a65726f206160408201526564647265737360d01b606082015260800190565b60208082526032908201527f43616e27742072656d6f76653a204d6173746572206e6f7420636c61696d696e60408201527167207468697320537562204164647265737360701b606082015260800190565b60208082526031908201527f5472616e73666572526570546f4d61737465723a20636f756c64206e6f74206d60408201527034b73a102932b8103a379036b0b9ba32b960791b606082015260800190565b60208082526033908201527f5472616e73666572526570546f4d61737465723a20636f756c64206e6f7420626040820152723ab937102932b810333937b6903bb7b935b2b960691b606082015260800190565b60208082526031908201527f43616e277420636c61696d204d61737465723a20616c726561647920636c61696040820152706d696e672074686973206164647265737360781b606082015260800190565b6020808252601c908201527f5265704d616e61676572206e6565647320746f20626520736574757000000000604082015260600190565b6020808252818101527f4f776e61626c653a2063616c6c6572206973206e6f7420746865206f776e6572604082015260600190565b6020808252601c908201527f52657075746174696f6e206e6565647320746f20626520736574757000000000604082015260600190565b6020808252603e908201527f4665746368486967686573744d61737465723a20696e707574205f776f726b6560408201527f72206e6565647320746f206265206e6f6e206e756c6c20616464726573730000606082015260800190565b6020808252602e908201527f43616e27742072656d6f7665204d61737465723a206e6f7420636c61696d696e60408201526d672074686973206164647265737360901b606082015260800190565b60208082526028908201527f4d617374657220616c726561647920636c61696d696e67207468697320537562604082015267204164647265737360c01b606082015260800190565b9182526001600160a01b031660208201526000604082015260600190565b600082821015611c6d57611c6d611c8d565b500390565b6000600019821415611c8657611c86611c8d565b5060010190565b634e487b7160e01b600052601160045260246000fd5b634e487b7160e01b600052604160045260246000fdfea264697066735822122024cb4b9b4ce718f84d0e22ee20b54b0ab1b8764cd1298459feb47a828a112a4f64736f6c63430008000033",
					"opcodes": "PUSH1 0x80 PUSH1 0x40 MSTORE PUSH1 0x5 DUP1 SSTORE CALLVALUE DUP1 ISZERO PUSH2 0x14 JUMPI PUSH1 0x0 DUP1 REVERT JUMPDEST POP PUSH2 0x25 PUSH2 0x20 PUSH2 0x2A JUMP JUMPDEST PUSH2 0x2E JUMP JUMPDEST PUSH2 0x7E JUMP JUMPDEST CALLER SWAP1 JUMP JUMPDEST PUSH1 0x0 DUP1 SLOAD PUSH1 0x1 PUSH1 0x1 PUSH1 0xA0 SHL SUB DUP4 DUP2 AND PUSH1 0x1 PUSH1 0x1 PUSH1 0xA0 SHL SUB NOT DUP4 AND DUP2 OR DUP5 SSTORE PUSH1 0x40 MLOAD SWAP2 SWAP1 SWAP3 AND SWAP3 DUP4 SWAP2 PUSH32 0x8BE0079C531659141344CD1FD0A4F28419497F9722A3DAAFE3B4186F6B6457E0 SWAP2 SWAP1 LOG3 POP POP JUMP JUMPDEST PUSH2 0x1CEF DUP1 PUSH2 0x8D PUSH1 0x0 CODECOPY PUSH1 0x0 RETURN INVALID PUSH1 0x80 PUSH1 0x40 MSTORE CALLVALUE DUP1 ISZERO PUSH2 0x10 JUMPI PUSH1 0x0 DUP1 REVERT JUMPDEST POP PUSH1 0x4 CALLDATASIZE LT PUSH2 0x1C4 JUMPI PUSH1 0x0 CALLDATALOAD PUSH1 0xE0 SHR DUP1 PUSH4 0x715018A6 GT PUSH2 0xF9 JUMPI DUP1 PUSH4 0xDB519824 GT PUSH2 0x97 JUMPI DUP1 PUSH4 0xE4F1D0FD GT PUSH2 0x71 JUMPI DUP1 PUSH4 0xE4F1D0FD EQ PUSH2 0x379 JUMPI DUP1 PUSH4 0xF25E9ED2 EQ PUSH2 0x38C JUMPI DUP1 PUSH4 0xF2FDE38B EQ PUSH2 0x39F JUMPI DUP1 PUSH4 0xF77C8658 EQ PUSH2 0x3B2 JUMPI PUSH2 0x1C4 JUMP JUMPDEST DUP1 PUSH4 0xDB519824 EQ PUSH2 0x340 JUMPI DUP1 PUSH4 0xDD618682 EQ PUSH2 0x353 JUMPI DUP1 PUSH4 0xDF77A0F6 EQ PUSH2 0x366 JUMPI PUSH2 0x1C4 JUMP JUMPDEST DUP1 PUSH4 0x96DAFF56 GT PUSH2 0xD3 JUMPI DUP1 PUSH4 0x96DAFF56 EQ PUSH2 0x312 JUMPI DUP1 PUSH4 0x9904ED8D EQ PUSH2 0x325 JUMPI DUP1 PUSH4 0x9F62C379 EQ PUSH2 0x32D JUMPI DUP1 PUSH4 0xAC8D65CB EQ PUSH2 0x312 JUMPI PUSH2 0x1C4 JUMP JUMPDEST DUP1 PUSH4 0x715018A6 EQ PUSH2 0x2EF JUMPI DUP1 PUSH4 0x8213B8D8 EQ PUSH2 0x2F7 JUMPI DUP1 PUSH4 0x8DA5CB5B EQ PUSH2 0x30A JUMPI PUSH2 0x1C4 JUMP JUMPDEST DUP1 PUSH4 0x29A47BC7 GT PUSH2 0x166 JUMPI DUP1 PUSH4 0x39C3F6E7 GT PUSH2 0x140 JUMPI DUP1 PUSH4 0x39C3F6E7 EQ PUSH2 0x2AE JUMPI DUP1 PUSH4 0x4826D043 EQ PUSH2 0x2C1 JUMPI DUP1 PUSH4 0x51912F29 EQ PUSH2 0x2D4 JUMPI DUP1 PUSH4 0x584720F5 EQ PUSH2 0x2DC JUMPI PUSH2 0x1C4 JUMP JUMPDEST DUP1 PUSH4 0x29A47BC7 EQ PUSH2 0x280 JUMPI DUP1 PUSH4 0x2E3CE457 EQ PUSH2 0x288 JUMPI DUP1 PUSH4 0x342BFFBF EQ PUSH2 0x29B JUMPI PUSH2 0x1C4 JUMP JUMPDEST DUP1 PUSH4 0x11815086 GT PUSH2 0x1A2 JUMPI DUP1 PUSH4 0x11815086 EQ PUSH2 0x21A JUMPI DUP1 PUSH4 0x12CCB147 EQ PUSH2 0x23A JUMPI DUP1 PUSH4 0x1778F9C8 EQ PUSH2 0x24D JUMPI DUP1 PUSH4 0x198FF3DC EQ PUSH2 0x260 JUMPI PUSH2 0x1C4 JUMP JUMPDEST DUP1 PUSH4 0x50EB2EB EQ PUSH2 0x1C9 JUMPI DUP1 PUSH4 0xC06E4DF EQ PUSH2 0x1DE JUMPI DUP1 PUSH4 0xE90E565 EQ PUSH2 0x207 JUMPI JUMPDEST PUSH1 0x0 DUP1 REVERT JUMPDEST PUSH2 0x1DC PUSH2 0x1D7 CALLDATASIZE PUSH1 0x4 PUSH2 0x1634 JUMP JUMPDEST PUSH2 0x3C5 JUMP JUMPDEST STOP JUMPDEST PUSH2 0x1F1 PUSH2 0x1EC CALLDATASIZE PUSH1 0x4 PUSH2 0x1634 JUMP JUMPDEST PUSH2 0x42F JUMP JUMPDEST PUSH1 0x40 MLOAD PUSH2 0x1FE SWAP2 SWAP1 PUSH2 0x181D JUMP JUMPDEST PUSH1 0x40 MLOAD DUP1 SWAP2 SUB SWAP1 RETURN JUMPDEST PUSH2 0x1DC PUSH2 0x215 CALLDATASIZE PUSH1 0x4 PUSH2 0x1634 JUMP JUMPDEST PUSH2 0x45C JUMP JUMPDEST PUSH2 0x22D PUSH2 0x228 CALLDATASIZE PUSH1 0x4 PUSH2 0x1634 JUMP JUMPDEST PUSH2 0x4BD JUMP JUMPDEST PUSH1 0x40 MLOAD PUSH2 0x1FE SWAP2 SWAP1 PUSH2 0x17A2 JUMP JUMPDEST PUSH2 0x1DC PUSH2 0x248 CALLDATASIZE PUSH1 0x4 PUSH2 0x1634 JUMP JUMPDEST PUSH2 0x55D JUMP JUMPDEST PUSH2 0x1F1 PUSH2 0x25B CALLDATASIZE PUSH1 0x4 PUSH2 0x164E JUMP JUMPDEST PUSH2 0x638 JUMP JUMPDEST PUSH2 0x273 PUSH2 0x26E CALLDATASIZE PUSH1 0x4 PUSH2 0x1634 JUMP JUMPDEST PUSH2 0x658 JUMP JUMPDEST PUSH1 0x40 MLOAD PUSH2 0x1FE SWAP2 SWAP1 PUSH2 0x17D0 JUMP JUMPDEST PUSH2 0x22D PUSH2 0x6CE JUMP JUMPDEST PUSH2 0x22D PUSH2 0x296 CALLDATASIZE PUSH1 0x4 PUSH2 0x1680 JUMP JUMPDEST PUSH2 0x6DD JUMP JUMPDEST PUSH2 0x1F1 PUSH2 0x2A9 CALLDATASIZE PUSH1 0x4 PUSH2 0x164E JUMP JUMPDEST PUSH2 0x715 JUMP JUMPDEST PUSH2 0x1DC PUSH2 0x2BC CALLDATASIZE PUSH1 0x4 PUSH2 0x16A9 JUMP JUMPDEST PUSH2 0x735 JUMP JUMPDEST PUSH2 0x1DC PUSH2 0x2CF CALLDATASIZE PUSH1 0x4 PUSH2 0x1634 JUMP JUMPDEST PUSH2 0x8F5 JUMP JUMPDEST PUSH2 0x22D PUSH2 0x9A6 JUMP JUMPDEST PUSH2 0x1DC PUSH2 0x2EA CALLDATASIZE PUSH1 0x4 PUSH2 0x1634 JUMP JUMPDEST PUSH2 0x9B5 JUMP JUMPDEST PUSH2 0x1DC PUSH2 0xA6B JUMP JUMPDEST PUSH2 0x1DC PUSH2 0x305 CALLDATASIZE PUSH1 0x4 PUSH2 0x16A9 JUMP JUMPDEST PUSH2 0xAB6 JUMP JUMPDEST PUSH2 0x22D PUSH2 0xC40 JUMP JUMPDEST PUSH2 0x1F1 PUSH2 0x320 CALLDATASIZE PUSH1 0x4 PUSH2 0x164E JUMP JUMPDEST PUSH2 0xC4F JUMP JUMPDEST PUSH2 0x22D PUSH2 0xC7D JUMP JUMPDEST PUSH2 0x1F1 PUSH2 0x33B CALLDATASIZE PUSH1 0x4 PUSH2 0x164E JUMP JUMPDEST PUSH2 0xC8C JUMP JUMPDEST PUSH2 0x1F1 PUSH2 0x34E CALLDATASIZE PUSH1 0x4 PUSH2 0x1634 JUMP JUMPDEST PUSH2 0xCB0 JUMP JUMPDEST PUSH2 0x1DC PUSH2 0x361 CALLDATASIZE PUSH1 0x4 PUSH2 0x1634 JUMP JUMPDEST PUSH2 0xCD9 JUMP JUMPDEST PUSH2 0x1DC PUSH2 0x374 CALLDATASIZE PUSH1 0x4 PUSH2 0x1634 JUMP JUMPDEST PUSH2 0xD3A JUMP JUMPDEST PUSH2 0x22D PUSH2 0x387 CALLDATASIZE PUSH1 0x4 PUSH2 0x1634 JUMP JUMPDEST PUSH2 0xE18 JUMP JUMPDEST PUSH2 0x22D PUSH2 0x39A CALLDATASIZE PUSH1 0x4 PUSH2 0x1634 JUMP JUMPDEST PUSH2 0xE33 JUMP JUMPDEST PUSH2 0x1DC PUSH2 0x3AD CALLDATASIZE PUSH1 0x4 PUSH2 0x1634 JUMP JUMPDEST PUSH2 0xE51 JUMP JUMPDEST PUSH2 0x1F1 PUSH2 0x3C0 CALLDATASIZE PUSH1 0x4 PUSH2 0x164E JUMP JUMPDEST PUSH2 0xEC2 JUMP JUMPDEST PUSH2 0x3CD PUSH2 0xFA7 JUMP JUMPDEST PUSH1 0x1 PUSH1 0x1 PUSH1 0xA0 SHL SUB AND PUSH2 0x3DE PUSH2 0xC40 JUMP JUMPDEST PUSH1 0x1 PUSH1 0x1 PUSH1 0xA0 SHL SUB AND EQ PUSH2 0x40D JUMPI PUSH1 0x40 MLOAD PUSH3 0x461BCD PUSH1 0xE5 SHL DUP2 MSTORE PUSH1 0x4 ADD PUSH2 0x404 SWAP1 PUSH2 0x1ADE JUMP JUMPDEST PUSH1 0x40 MLOAD DUP1 SWAP2 SUB SWAP1 REVERT JUMPDEST PUSH1 0x8 DUP1 SLOAD PUSH1 0x1 PUSH1 0x1 PUSH1 0xA0 SHL SUB NOT AND PUSH1 0x1 PUSH1 0x1 PUSH1 0xA0 SHL SUB SWAP3 SWAP1 SWAP3 AND SWAP2 SWAP1 SWAP2 OR SWAP1 SSTORE JUMP JUMPDEST CALLER PUSH1 0x0 SWAP1 DUP2 MSTORE PUSH1 0x1 PUSH1 0x20 SWAP1 DUP2 MSTORE PUSH1 0x40 DUP1 DUP4 KECCAK256 PUSH1 0x1 PUSH1 0x1 PUSH1 0xA0 SHL SUB DUP6 AND DUP5 MSTORE SWAP1 SWAP2 MSTORE SWAP1 KECCAK256 SLOAD PUSH1 0xFF AND JUMPDEST SWAP2 SWAP1 POP JUMP JUMPDEST PUSH2 0x464 PUSH2 0xFA7 JUMP JUMPDEST PUSH1 0x1 PUSH1 0x1 PUSH1 0xA0 SHL SUB AND PUSH2 0x475 PUSH2 0xC40 JUMP JUMPDEST PUSH1 0x1 PUSH1 0x1 PUSH1 0xA0 SHL SUB AND EQ PUSH2 0x49B JUMPI PUSH1 0x40 MLOAD PUSH3 0x461BCD PUSH1 0xE5 SHL DUP2 MSTORE PUSH1 0x4 ADD PUSH2 0x404 SWAP1 PUSH2 0x1ADE JUMP JUMPDEST PUSH1 0x6 DUP1 SLOAD PUSH1 0x1 PUSH1 0x1 PUSH1 0xA0 SHL SUB NOT AND PUSH1 0x1 PUSH1 0x1 PUSH1 0xA0 SHL SUB SWAP3 SWAP1 SWAP3 AND SWAP2 SWAP1 SWAP2 OR SWAP1 SSTORE JUMP JUMPDEST PUSH1 0x0 PUSH1 0x1 PUSH1 0x1 PUSH1 0xA0 SHL SUB DUP3 AND PUSH2 0x4E5 JUMPI PUSH1 0x40 MLOAD PUSH3 0x461BCD PUSH1 0xE5 SHL DUP2 MSTORE PUSH1 0x4 ADD PUSH2 0x404 SWAP1 PUSH2 0x1B4A JUMP JUMPDEST PUSH1 0x1 PUSH1 0x1 PUSH1 0xA0 SHL SUB DUP1 DUP4 AND PUSH1 0x0 SWAP1 DUP2 MSTORE PUSH1 0x4 PUSH1 0x20 MSTORE PUSH1 0x40 SWAP1 KECCAK256 SLOAD PUSH1 0x5 SLOAD SWAP2 AND SWAP1 DUP4 SWAP1 JUMPDEST PUSH1 0x1 PUSH1 0x1 PUSH1 0xA0 SHL SUB DUP4 AND ISZERO DUP1 ISZERO SWAP1 PUSH2 0x520 JUMPI POP PUSH1 0x0 DUP2 GT JUMPDEST ISZERO PUSH2 0x555 JUMPI PUSH1 0x1 PUSH1 0x1 PUSH1 0xA0 SHL SUB DUP1 DUP5 AND PUSH1 0x0 SWAP1 DUP2 MSTORE PUSH1 0x4 PUSH1 0x20 MSTORE PUSH1 0x40 SWAP1 KECCAK256 SLOAD AND SWAP3 SWAP2 POP PUSH2 0x54E PUSH1 0x1 DUP3 PUSH2 0x1C5B JUMP JUMPDEST SWAP1 POP PUSH2 0x508 JUMP JUMPDEST POP SWAP4 SWAP3 POP POP POP JUMP JUMPDEST CALLER PUSH1 0x0 SWAP1 DUP2 MSTORE PUSH1 0x1 PUSH1 0x20 DUP2 DUP2 MSTORE PUSH1 0x40 DUP1 DUP5 KECCAK256 PUSH1 0x1 PUSH1 0x1 PUSH1 0xA0 SHL SUB DUP7 AND DUP6 MSTORE SWAP1 SWAP2 MSTORE SWAP1 SWAP2 KECCAK256 SLOAD PUSH1 0xFF AND ISZERO ISZERO EQ ISZERO PUSH2 0x5A5 JUMPI PUSH1 0x40 MLOAD PUSH3 0x461BCD PUSH1 0xE5 SHL DUP2 MSTORE PUSH1 0x4 ADD PUSH2 0x404 SWAP1 PUSH2 0x1BF5 JUMP JUMPDEST CALLER PUSH1 0x0 DUP2 DUP2 MSTORE PUSH1 0x1 PUSH1 0x20 DUP2 DUP2 MSTORE PUSH1 0x40 DUP1 DUP5 KECCAK256 PUSH1 0x1 PUSH1 0x1 PUSH1 0xA0 SHL SUB DUP8 AND DUP1 DUP7 MSTORE SWAP1 DUP4 MSTORE DUP2 DUP6 KECCAK256 DUP1 SLOAD PUSH1 0xFF NOT AND DUP6 OR SWAP1 SSTORE DUP6 DUP6 MSTORE PUSH1 0x3 DUP4 MSTORE DUP2 DUP6 KECCAK256 DUP1 SLOAD SWAP5 DUP6 ADD DUP2 SSTORE DUP6 MSTORE SWAP2 SWAP1 SWAP4 KECCAK256 SWAP1 SWAP2 ADD DUP1 SLOAD PUSH1 0x1 PUSH1 0x1 PUSH1 0xA0 SHL SUB NOT AND SWAP1 SWAP2 OR SWAP1 SSTORE MLOAD PUSH32 0x8902B85532BFC55A9F5B6E6A9576366640928B3BE984B3A61167A210CA2BBC57 SWAP1 PUSH2 0x62D SWAP1 DUP5 SWAP1 PUSH2 0x17A2 JUMP JUMPDEST PUSH1 0x40 MLOAD DUP1 SWAP2 SUB SWAP1 LOG2 POP JUMP JUMPDEST PUSH1 0x2 PUSH1 0x20 SWAP1 DUP2 MSTORE PUSH1 0x0 SWAP3 DUP4 MSTORE PUSH1 0x40 DUP1 DUP5 KECCAK256 SWAP1 SWAP2 MSTORE SWAP1 DUP3 MSTORE SWAP1 KECCAK256 SLOAD PUSH1 0xFF AND DUP2 JUMP JUMPDEST PUSH1 0x1 PUSH1 0x1 PUSH1 0xA0 SHL SUB DUP2 AND PUSH1 0x0 SWAP1 DUP2 MSTORE PUSH1 0x3 PUSH1 0x20 SWAP1 DUP2 MSTORE PUSH1 0x40 SWAP2 DUP3 SWAP1 KECCAK256 DUP1 SLOAD DUP4 MLOAD DUP2 DUP5 MUL DUP2 ADD DUP5 ADD SWAP1 SWAP5 MSTORE DUP1 DUP5 MSTORE PUSH1 0x60 SWAP4 SWAP3 DUP4 ADD DUP3 DUP3 DUP1 ISZERO PUSH2 0x6C2 JUMPI PUSH1 0x20 MUL DUP3 ADD SWAP2 SWAP1 PUSH1 0x0 MSTORE PUSH1 0x20 PUSH1 0x0 KECCAK256 SWAP1 JUMPDEST DUP2 SLOAD PUSH1 0x1 PUSH1 0x1 PUSH1 0xA0 SHL SUB AND DUP2 MSTORE PUSH1 0x1 SWAP1 SWAP2 ADD SWAP1 PUSH1 0x20 ADD DUP1 DUP4 GT PUSH2 0x6A4 JUMPI JUMPDEST POP POP POP POP POP SWAP1 POP SWAP2 SWAP1 POP JUMP JUMPDEST PUSH1 0x7 SLOAD PUSH1 0x1 PUSH1 0x1 PUSH1 0xA0 SHL SUB AND DUP2 JUMP JUMPDEST PUSH1 0x3 PUSH1 0x20 MSTORE DUP2 PUSH1 0x0 MSTORE PUSH1 0x40 PUSH1 0x0 KECCAK256 DUP2 DUP2 SLOAD DUP2 LT PUSH2 0x6F9 JUMPI PUSH1 0x0 DUP1 REVERT JUMPDEST PUSH1 0x0 SWAP2 DUP3 MSTORE PUSH1 0x20 SWAP1 SWAP2 KECCAK256 ADD SLOAD PUSH1 0x1 PUSH1 0x1 PUSH1 0xA0 SHL SUB AND SWAP2 POP DUP3 SWAP1 POP JUMP JUMPDEST PUSH1 0x1 PUSH1 0x20 SWAP1 DUP2 MSTORE PUSH1 0x0 SWAP3 DUP4 MSTORE PUSH1 0x40 DUP1 DUP5 KECCAK256 SWAP1 SWAP2 MSTORE SWAP1 DUP3 MSTORE SWAP1 KECCAK256 SLOAD PUSH1 0xFF AND DUP2 JUMP JUMPDEST PUSH1 0x0 JUMPDEST DUP2 MLOAD DUP2 LT ISZERO PUSH2 0x8F1 JUMPI CALLER PUSH1 0x0 SWAP1 DUP2 MSTORE PUSH1 0x1 PUSH1 0x20 MSTORE PUSH1 0x40 DUP2 KECCAK256 DUP4 MLOAD SWAP1 SWAP2 SWAP1 DUP5 SWAP1 DUP5 SWAP1 DUP2 LT PUSH2 0x775 JUMPI PUSH4 0x4E487B71 PUSH1 0xE0 SHL PUSH1 0x0 MSTORE PUSH1 0x32 PUSH1 0x4 MSTORE PUSH1 0x24 PUSH1 0x0 REVERT JUMPDEST PUSH1 0x20 SWAP1 DUP2 MUL SWAP2 SWAP1 SWAP2 ADD DUP2 ADD MLOAD PUSH1 0x1 PUSH1 0x1 PUSH1 0xA0 SHL SUB AND DUP3 MSTORE DUP2 ADD SWAP2 SWAP1 SWAP2 MSTORE PUSH1 0x40 ADD PUSH1 0x0 KECCAK256 SLOAD PUSH1 0xFF AND ISZERO ISZERO PUSH1 0x1 EQ PUSH2 0x8DF JUMPI CALLER PUSH1 0x0 SWAP1 DUP2 MSTORE PUSH1 0x1 PUSH1 0x20 DUP2 SWAP1 MSTORE PUSH1 0x40 DUP3 KECCAK256 DUP5 MLOAD SWAP2 SWAP3 SWAP1 SWAP2 DUP6 SWAP1 DUP6 SWAP1 DUP2 LT PUSH2 0x7DC JUMPI PUSH4 0x4E487B71 PUSH1 0xE0 SHL PUSH1 0x0 MSTORE PUSH1 0x32 PUSH1 0x4 MSTORE PUSH1 0x24 PUSH1 0x0 REVERT JUMPDEST PUSH1 0x20 SWAP1 DUP2 MUL SWAP2 SWAP1 SWAP2 ADD DUP2 ADD MLOAD PUSH1 0x1 PUSH1 0x1 PUSH1 0xA0 SHL SUB AND DUP3 MSTORE DUP2 DUP2 ADD SWAP3 SWAP1 SWAP3 MSTORE PUSH1 0x40 SWAP1 DUP2 ADD PUSH1 0x0 SWAP1 DUP2 KECCAK256 DUP1 SLOAD PUSH1 0xFF NOT AND SWAP5 ISZERO ISZERO SWAP5 SWAP1 SWAP5 OR SWAP1 SWAP4 SSTORE CALLER DUP4 MSTORE PUSH1 0x3 SWAP1 SWAP2 MSTORE SWAP1 KECCAK256 DUP3 MLOAD DUP4 SWAP1 DUP4 SWAP1 DUP2 LT PUSH2 0x840 JUMPI PUSH4 0x4E487B71 PUSH1 0xE0 SHL PUSH1 0x0 MSTORE PUSH1 0x32 PUSH1 0x4 MSTORE PUSH1 0x24 PUSH1 0x0 REVERT JUMPDEST PUSH1 0x20 SWAP1 DUP2 MUL SWAP2 SWAP1 SWAP2 ADD DUP2 ADD MLOAD DUP3 SLOAD PUSH1 0x1 DUP2 ADD DUP5 SSTORE PUSH1 0x0 SWAP4 DUP5 MSTORE SWAP2 SWAP1 SWAP3 KECCAK256 ADD DUP1 SLOAD PUSH1 0x1 PUSH1 0x1 PUSH1 0xA0 SHL SUB NOT AND PUSH1 0x1 PUSH1 0x1 PUSH1 0xA0 SHL SUB SWAP1 SWAP3 AND SWAP2 SWAP1 SWAP2 OR SWAP1 SSTORE DUP2 MLOAD CALLER SWAP1 PUSH32 0x8902B85532BFC55A9F5B6E6A9576366640928B3BE984B3A61167A210CA2BBC57 SWAP1 DUP5 SWAP1 DUP5 SWAP1 DUP2 LT PUSH2 0x8C1 JUMPI PUSH4 0x4E487B71 PUSH1 0xE0 SHL PUSH1 0x0 MSTORE PUSH1 0x32 PUSH1 0x4 MSTORE PUSH1 0x24 PUSH1 0x0 REVERT JUMPDEST PUSH1 0x20 MUL PUSH1 0x20 ADD ADD MLOAD PUSH1 0x40 MLOAD PUSH2 0x8D6 SWAP2 SWAP1 PUSH2 0x17A2 JUMP JUMPDEST PUSH1 0x40 MLOAD DUP1 SWAP2 SUB SWAP1 LOG2 JUMPDEST DUP1 PUSH2 0x8E9 DUP2 PUSH2 0x1C72 JUMP JUMPDEST SWAP2 POP POP PUSH2 0x738 JUMP JUMPDEST POP POP JUMP JUMPDEST CALLER PUSH1 0x0 SWAP1 DUP2 MSTORE PUSH1 0x1 PUSH1 0x20 SWAP1 DUP2 MSTORE PUSH1 0x40 DUP1 DUP4 KECCAK256 PUSH1 0x1 PUSH1 0x1 PUSH1 0xA0 SHL SUB DUP6 AND DUP5 MSTORE SWAP1 SWAP2 MSTORE SWAP1 KECCAK256 SLOAD PUSH1 0xFF AND PUSH2 0x938 JUMPI PUSH1 0x40 MLOAD PUSH3 0x461BCD PUSH1 0xE5 SHL DUP2 MSTORE PUSH1 0x4 ADD PUSH2 0x404 SWAP1 PUSH2 0x1960 JUMP JUMPDEST CALLER PUSH1 0x0 DUP2 DUP2 MSTORE PUSH1 0x1 PUSH1 0x20 SWAP1 DUP2 MSTORE PUSH1 0x40 DUP1 DUP4 KECCAK256 PUSH1 0x1 PUSH1 0x1 PUSH1 0xA0 SHL SUB DUP7 AND DUP5 MSTORE SWAP1 SWAP2 MSTORE SWAP1 KECCAK256 DUP1 SLOAD PUSH1 0xFF NOT AND SWAP1 SSTORE PUSH2 0x96D SWAP1 DUP3 PUSH2 0xFAB JUMP JUMPDEST CALLER PUSH1 0x1 PUSH1 0x1 PUSH1 0xA0 SHL SUB AND PUSH32 0x7A24AC72E272DD8C83B793AE84448C72032B95723856486219C79DD722FE4292 DUP3 PUSH1 0x40 MLOAD PUSH2 0x62D SWAP2 SWAP1 PUSH2 0x17A2 JUMP JUMPDEST PUSH1 0x8 SLOAD PUSH1 0x1 PUSH1 0x1 PUSH1 0xA0 SHL SUB AND DUP2 JUMP JUMPDEST PUSH1 0x1 PUSH1 0x1 PUSH1 0xA0 SHL SUB DUP2 AND PUSH1 0x0 SWAP1 DUP2 MSTORE PUSH1 0x2 PUSH1 0x20 SWAP1 DUP2 MSTORE PUSH1 0x40 DUP1 DUP4 KECCAK256 CALLER DUP5 MSTORE SWAP1 SWAP2 MSTORE SWAP1 KECCAK256 SLOAD PUSH1 0xFF AND PUSH2 0x9F8 JUMPI PUSH1 0x40 MLOAD PUSH3 0x461BCD PUSH1 0xE5 SHL DUP2 MSTORE PUSH1 0x4 ADD PUSH2 0x404 SWAP1 PUSH2 0x1BA7 JUMP JUMPDEST PUSH1 0x1 PUSH1 0x1 PUSH1 0xA0 SHL SUB DUP2 AND PUSH1 0x0 SWAP1 DUP2 MSTORE PUSH1 0x2 PUSH1 0x20 SWAP1 DUP2 MSTORE PUSH1 0x40 DUP1 DUP4 KECCAK256 CALLER DUP1 DUP6 MSTORE SWAP1 DUP4 MSTORE DUP2 DUP5 KECCAK256 DUP1 SLOAD PUSH1 0xFF NOT AND SWAP1 SSTORE PUSH1 0x4 SWAP1 SWAP3 MSTORE SWAP2 DUP3 SWAP1 KECCAK256 DUP1 SLOAD PUSH1 0x1 PUSH1 0x1 PUSH1 0xA0 SHL SUB NOT AND SWAP1 SSTORE SWAP1 MLOAD PUSH32 0xD7169440DAF0897D7F4486A35EEF15A070460981FF18AB846AA2199F171118E SWAP1 PUSH2 0x62D SWAP1 DUP5 SWAP1 PUSH2 0x17A2 JUMP JUMPDEST PUSH2 0xA73 PUSH2 0xFA7 JUMP JUMPDEST PUSH1 0x1 PUSH1 0x1 PUSH1 0xA0 SHL SUB AND PUSH2 0xA84 PUSH2 0xC40 JUMP JUMPDEST PUSH1 0x1 PUSH1 0x1 PUSH1 0xA0 SHL SUB AND EQ PUSH2 0xAAA JUMPI PUSH1 0x40 MLOAD PUSH3 0x461BCD PUSH1 0xE5 SHL DUP2 MSTORE PUSH1 0x4 ADD PUSH2 0x404 SWAP1 PUSH2 0x1ADE JUMP JUMPDEST PUSH2 0xAB4 PUSH1 0x0 PUSH2 0x1159 JUMP JUMPDEST JUMP JUMPDEST PUSH1 0x0 JUMPDEST DUP2 MLOAD DUP2 LT ISZERO PUSH2 0x8F1 JUMPI CALLER PUSH1 0x0 SWAP1 DUP2 MSTORE PUSH1 0x1 PUSH1 0x20 MSTORE PUSH1 0x40 DUP2 KECCAK256 DUP4 MLOAD SWAP1 SWAP2 SWAP1 DUP5 SWAP1 DUP5 SWAP1 DUP2 LT PUSH2 0xAF6 JUMPI PUSH4 0x4E487B71 PUSH1 0xE0 SHL PUSH1 0x0 MSTORE PUSH1 0x32 PUSH1 0x4 MSTORE PUSH1 0x24 PUSH1 0x0 REVERT JUMPDEST PUSH1 0x20 SWAP1 DUP2 MUL SWAP2 SWAP1 SWAP2 ADD DUP2 ADD MLOAD PUSH1 0x1 PUSH1 0x1 PUSH1 0xA0 SHL SUB AND DUP3 MSTORE DUP2 ADD SWAP2 SWAP1 SWAP2 MSTORE PUSH1 0x40 ADD PUSH1 0x0 KECCAK256 SLOAD PUSH1 0xFF AND ISZERO PUSH2 0xC2E JUMPI CALLER PUSH1 0x0 SWAP1 DUP2 MSTORE PUSH1 0x1 PUSH1 0x20 MSTORE PUSH1 0x40 DUP2 KECCAK256 DUP4 MLOAD DUP3 SWAP1 DUP6 SWAP1 DUP6 SWAP1 DUP2 LT PUSH2 0xB55 JUMPI PUSH4 0x4E487B71 PUSH1 0xE0 SHL PUSH1 0x0 MSTORE PUSH1 0x32 PUSH1 0x4 MSTORE PUSH1 0x24 PUSH1 0x0 REVERT JUMPDEST PUSH1 0x20 MUL PUSH1 0x20 ADD ADD MLOAD PUSH1 0x1 PUSH1 0x1 PUSH1 0xA0 SHL SUB AND PUSH1 0x1 PUSH1 0x1 PUSH1 0xA0 SHL SUB AND DUP2 MSTORE PUSH1 0x20 ADD SWAP1 DUP2 MSTORE PUSH1 0x20 ADD PUSH1 0x0 KECCAK256 PUSH1 0x0 PUSH2 0x100 EXP DUP2 SLOAD DUP2 PUSH1 0xFF MUL NOT AND SWAP1 DUP4 ISZERO ISZERO MUL OR SWAP1 SSTORE POP PUSH2 0xBC5 CALLER DUP4 DUP4 DUP2 MLOAD DUP2 LT PUSH2 0xBB8 JUMPI PUSH4 0x4E487B71 PUSH1 0xE0 SHL PUSH1 0x0 MSTORE PUSH1 0x32 PUSH1 0x4 MSTORE PUSH1 0x24 PUSH1 0x0 REVERT JUMPDEST PUSH1 0x20 MUL PUSH1 0x20 ADD ADD MLOAD PUSH2 0xFAB JUMP JUMPDEST CALLER PUSH1 0x1 PUSH1 0x1 PUSH1 0xA0 SHL SUB AND PUSH32 0x7A24AC72E272DD8C83B793AE84448C72032B95723856486219C79DD722FE4292 DUP4 DUP4 DUP2 MLOAD DUP2 LT PUSH2 0xC10 JUMPI PUSH4 0x4E487B71 PUSH1 0xE0 SHL PUSH1 0x0 MSTORE PUSH1 0x32 PUSH1 0x4 MSTORE PUSH1 0x24 PUSH1 0x0 REVERT JUMPDEST PUSH1 0x20 MUL PUSH1 0x20 ADD ADD MLOAD PUSH1 0x40 MLOAD PUSH2 0xC25 SWAP2 SWAP1 PUSH2 0x17A2 JUMP JUMPDEST PUSH1 0x40 MLOAD DUP1 SWAP2 SUB SWAP1 LOG2 JUMPDEST DUP1 PUSH2 0xC38 DUP2 PUSH2 0x1C72 JUMP JUMPDEST SWAP2 POP POP PUSH2 0xAB9 JUMP JUMPDEST PUSH1 0x0 SLOAD PUSH1 0x1 PUSH1 0x1 PUSH1 0xA0 SHL SUB AND SWAP1 JUMP JUMPDEST PUSH1 0x1 PUSH1 0x1 PUSH1 0xA0 SHL SUB SWAP2 DUP3 AND PUSH1 0x0 SWAP1 DUP2 MSTORE PUSH1 0x1 PUSH1 0x20 SWAP1 DUP2 MSTORE PUSH1 0x40 DUP1 DUP4 KECCAK256 SWAP4 SWAP1 SWAP5 AND DUP3 MSTORE SWAP2 SWAP1 SWAP2 MSTORE KECCAK256 SLOAD PUSH1 0xFF AND SWAP1 JUMP JUMPDEST PUSH1 0x6 SLOAD PUSH1 0x1 PUSH1 0x1 PUSH1 0xA0 SHL SUB AND DUP2 JUMP JUMPDEST PUSH1 0x0 PUSH2 0xC98 DUP4 DUP4 PUSH2 0xC4F JUMP JUMPDEST DUP1 ISZERO PUSH2 0xCA9 JUMPI POP PUSH2 0xCA9 DUP4 DUP4 PUSH2 0xC4F JUMP JUMPDEST SWAP4 SWAP3 POP POP POP JUMP JUMPDEST PUSH1 0x1 PUSH1 0x1 PUSH1 0xA0 SHL SUB AND PUSH1 0x0 SWAP1 DUP2 MSTORE PUSH1 0x1 PUSH1 0x20 SWAP1 DUP2 MSTORE PUSH1 0x40 DUP1 DUP4 KECCAK256 CALLER DUP5 MSTORE SWAP1 SWAP2 MSTORE SWAP1 KECCAK256 SLOAD PUSH1 0xFF AND SWAP1 JUMP JUMPDEST PUSH2 0xCE1 PUSH2 0xFA7 JUMP JUMPDEST PUSH1 0x1 PUSH1 0x1 PUSH1 0xA0 SHL SUB AND PUSH2 0xCF2 PUSH2 0xC40 JUMP JUMPDEST PUSH1 0x1 PUSH1 0x1 PUSH1 0xA0 SHL SUB AND EQ PUSH2 0xD18 JUMPI PUSH1 0x40 MLOAD PUSH3 0x461BCD PUSH1 0xE5 SHL DUP2 MSTORE PUSH1 0x4 ADD PUSH2 0x404 SWAP1 PUSH2 0x1ADE JUMP JUMPDEST PUSH1 0x7 DUP1 SLOAD PUSH1 0x1 PUSH1 0x1 PUSH1 0xA0 SHL SUB NOT AND PUSH1 0x1 PUSH1 0x1 PUSH1 0xA0 SHL SUB SWAP3 SWAP1 SWAP3 AND SWAP2 SWAP1 SWAP2 OR SWAP1 SSTORE JUMP JUMPDEST PUSH1 0x1 PUSH1 0x1 PUSH1 0xA0 SHL SUB DUP2 AND PUSH1 0x0 SWAP1 DUP2 MSTORE PUSH1 0x2 PUSH1 0x20 SWAP1 DUP2 MSTORE PUSH1 0x40 DUP1 DUP4 KECCAK256 CALLER DUP5 MSTORE SWAP1 SWAP2 MSTORE SWAP1 KECCAK256 SLOAD PUSH1 0xFF AND ISZERO ISZERO PUSH1 0x1 EQ ISZERO PUSH2 0xD83 JUMPI PUSH1 0x40 MLOAD PUSH3 0x461BCD PUSH1 0xE5 SHL DUP2 MSTORE PUSH1 0x4 ADD PUSH2 0x404 SWAP1 PUSH2 0x1A56 JUMP JUMPDEST PUSH1 0x1 PUSH1 0x1 PUSH1 0xA0 SHL SUB DUP2 AND PUSH1 0x0 DUP2 DUP2 MSTORE PUSH1 0x2 PUSH1 0x20 SWAP1 DUP2 MSTORE PUSH1 0x40 DUP1 DUP4 KECCAK256 CALLER DUP1 DUP6 MSTORE SWAP1 DUP4 MSTORE DUP2 DUP5 KECCAK256 DUP1 SLOAD PUSH1 0xFF NOT AND PUSH1 0x1 OR SWAP1 SSTORE PUSH1 0x4 SWAP1 SWAP3 MSTORE SWAP1 SWAP2 KECCAK256 DUP1 SLOAD PUSH1 0x1 PUSH1 0x1 PUSH1 0xA0 SHL SUB NOT AND SWAP1 SWAP3 OR SWAP1 SWAP2 SSTORE PUSH2 0xDD6 SWAP1 PUSH2 0x11A9 JUMP JUMPDEST PUSH2 0xDDF CALLER PUSH2 0x144D JUMP JUMPDEST CALLER PUSH1 0x1 PUSH1 0x1 PUSH1 0xA0 SHL SUB AND PUSH32 0x85851BDF5239DAECEE00C49AFA200B87F208A1CC246F3C3DA177796C9F605D73 DUP3 PUSH1 0x40 MLOAD PUSH2 0x62D SWAP2 SWAP1 PUSH2 0x17A2 JUMP JUMPDEST PUSH1 0x4 PUSH1 0x20 MSTORE PUSH1 0x0 SWAP1 DUP2 MSTORE PUSH1 0x40 SWAP1 KECCAK256 SLOAD PUSH1 0x1 PUSH1 0x1 PUSH1 0xA0 SHL SUB AND DUP2 JUMP JUMPDEST PUSH1 0x1 PUSH1 0x1 PUSH1 0xA0 SHL SUB SWAP1 DUP2 AND PUSH1 0x0 SWAP1 DUP2 MSTORE PUSH1 0x4 PUSH1 0x20 MSTORE PUSH1 0x40 SWAP1 KECCAK256 SLOAD AND SWAP1 JUMP JUMPDEST PUSH2 0xE59 PUSH2 0xFA7 JUMP JUMPDEST PUSH1 0x1 PUSH1 0x1 PUSH1 0xA0 SHL SUB AND PUSH2 0xE6A PUSH2 0xC40 JUMP JUMPDEST PUSH1 0x1 PUSH1 0x1 PUSH1 0xA0 SHL SUB AND EQ PUSH2 0xE90 JUMPI PUSH1 0x40 MLOAD PUSH3 0x461BCD PUSH1 0xE5 SHL DUP2 MSTORE PUSH1 0x4 ADD PUSH2 0x404 SWAP1 PUSH2 0x1ADE JUMP JUMPDEST PUSH1 0x1 PUSH1 0x1 PUSH1 0xA0 SHL SUB DUP2 AND PUSH2 0xEB6 JUMPI PUSH1 0x40 MLOAD PUSH3 0x461BCD PUSH1 0xE5 SHL DUP2 MSTORE PUSH1 0x4 ADD PUSH2 0x404 SWAP1 PUSH2 0x191A JUMP JUMPDEST PUSH2 0xEBF DUP2 PUSH2 0x1159 JUMP JUMPDEST POP JUMP JUMPDEST PUSH1 0x1 PUSH1 0x1 PUSH1 0xA0 SHL SUB DUP2 AND PUSH1 0x0 SWAP1 DUP2 MSTORE PUSH1 0x3 PUSH1 0x20 SWAP1 DUP2 MSTORE PUSH1 0x40 DUP1 DUP4 KECCAK256 DUP1 SLOAD DUP3 MLOAD DUP2 DUP6 MUL DUP2 ADD DUP6 ADD SWAP1 SWAP4 MSTORE DUP1 DUP4 MSTORE DUP5 SWAP4 DUP5 SWAP4 SWAP3 SWAP2 SWAP1 DUP4 ADD DUP3 DUP3 DUP1 ISZERO PUSH2 0xF2E JUMPI PUSH1 0x20 MUL DUP3 ADD SWAP2 SWAP1 PUSH1 0x0 MSTORE PUSH1 0x20 PUSH1 0x0 KECCAK256 SWAP1 JUMPDEST DUP2 SLOAD PUSH1 0x1 PUSH1 0x1 PUSH1 0xA0 SHL SUB AND DUP2 MSTORE PUSH1 0x1 SWAP1 SWAP2 ADD SWAP1 PUSH1 0x20 ADD DUP1 DUP4 GT PUSH2 0xF10 JUMPI JUMPDEST POP POP POP POP POP SWAP1 POP PUSH1 0x0 JUMPDEST DUP2 MLOAD DUP2 LT ISZERO PUSH2 0xF9D JUMPI DUP6 PUSH1 0x1 PUSH1 0x1 PUSH1 0xA0 SHL SUB AND DUP3 DUP3 DUP2 MLOAD DUP2 LT PUSH2 0xF6B JUMPI PUSH4 0x4E487B71 PUSH1 0xE0 SHL PUSH1 0x0 MSTORE PUSH1 0x32 PUSH1 0x4 MSTORE PUSH1 0x24 PUSH1 0x0 REVERT JUMPDEST PUSH1 0x20 MUL PUSH1 0x20 ADD ADD MLOAD PUSH1 0x1 PUSH1 0x1 PUSH1 0xA0 SHL SUB AND EQ ISZERO PUSH2 0xF8B JUMPI PUSH1 0x1 SWAP3 POP PUSH2 0xF9D JUMP JUMPDEST DUP1 PUSH2 0xF95 DUP2 PUSH2 0x1C72 JUMP JUMPDEST SWAP2 POP POP PUSH2 0xF38 JUMP JUMPDEST POP SWAP1 SWAP5 SWAP4 POP POP POP POP JUMP JUMPDEST CALLER SWAP1 JUMP JUMPDEST PUSH1 0x0 DUP1 PUSH1 0x0 JUMPDEST PUSH1 0x1 PUSH1 0x1 PUSH1 0xA0 SHL SUB DUP6 AND PUSH1 0x0 SWAP1 DUP2 MSTORE PUSH1 0x3 PUSH1 0x20 MSTORE PUSH1 0x40 SWAP1 KECCAK256 SLOAD DUP2 LT ISZERO PUSH2 0x1047 JUMPI PUSH1 0x1 PUSH1 0x1 PUSH1 0xA0 SHL SUB DUP6 DUP2 AND PUSH1 0x0 SWAP1 DUP2 MSTORE PUSH1 0x3 PUSH1 0x20 MSTORE PUSH1 0x40 SWAP1 KECCAK256 DUP1 SLOAD SWAP2 DUP7 AND SWAP2 DUP4 SWAP1 DUP2 LT PUSH2 0x100E JUMPI PUSH4 0x4E487B71 PUSH1 0xE0 SHL PUSH1 0x0 MSTORE PUSH1 0x32 PUSH1 0x4 MSTORE PUSH1 0x24 PUSH1 0x0 REVERT JUMPDEST PUSH1 0x0 SWAP2 DUP3 MSTORE PUSH1 0x20 SWAP1 SWAP2 KECCAK256 ADD SLOAD PUSH1 0x1 PUSH1 0x1 PUSH1 0xA0 SHL SUB AND EQ ISZERO PUSH2 0x1035 JUMPI PUSH1 0x1 SWAP2 POP DUP1 SWAP3 POP PUSH2 0x1047 JUMP JUMPDEST DUP1 PUSH2 0x103F DUP2 PUSH2 0x1C72 JUMP JUMPDEST SWAP2 POP POP PUSH2 0xFB1 JUMP JUMPDEST POP DUP1 ISZERO PUSH2 0x1153 JUMPI PUSH1 0x1 PUSH1 0x1 PUSH1 0xA0 SHL SUB DUP5 AND PUSH1 0x0 SWAP1 DUP2 MSTORE PUSH1 0x3 PUSH1 0x20 MSTORE PUSH1 0x40 SWAP1 KECCAK256 DUP1 SLOAD PUSH2 0x1074 SWAP1 PUSH1 0x1 SWAP1 PUSH2 0x1C5B JUMP JUMPDEST DUP2 SLOAD DUP2 LT PUSH2 0x1092 JUMPI PUSH4 0x4E487B71 PUSH1 0xE0 SHL PUSH1 0x0 MSTORE PUSH1 0x32 PUSH1 0x4 MSTORE PUSH1 0x24 PUSH1 0x0 REVERT JUMPDEST PUSH1 0x0 SWAP2 DUP3 MSTORE PUSH1 0x20 DUP1 DUP4 KECCAK256 SWAP1 SWAP2 ADD SLOAD PUSH1 0x1 PUSH1 0x1 PUSH1 0xA0 SHL SUB DUP8 DUP2 AND DUP5 MSTORE PUSH1 0x3 SWAP1 SWAP3 MSTORE PUSH1 0x40 SWAP1 SWAP3 KECCAK256 DUP1 SLOAD SWAP2 SWAP1 SWAP3 AND SWAP2 SWAP1 DUP5 SWAP1 DUP2 LT PUSH2 0x10DD JUMPI PUSH4 0x4E487B71 PUSH1 0xE0 SHL PUSH1 0x0 MSTORE PUSH1 0x32 PUSH1 0x4 MSTORE PUSH1 0x24 PUSH1 0x0 REVERT JUMPDEST PUSH1 0x0 SWAP2 DUP3 MSTORE PUSH1 0x20 DUP1 DUP4 KECCAK256 SWAP2 SWAP1 SWAP2 ADD DUP1 SLOAD PUSH1 0x1 PUSH1 0x1 PUSH1 0xA0 SHL SUB NOT AND PUSH1 0x1 PUSH1 0x1 PUSH1 0xA0 SHL SUB SWAP5 DUP6 AND OR SWAP1 SSTORE SWAP2 DUP7 AND DUP2 MSTORE PUSH1 0x3 SWAP1 SWAP2 MSTORE PUSH1 0x40 SWAP1 KECCAK256 DUP1 SLOAD DUP1 PUSH2 0x1130 JUMPI PUSH4 0x4E487B71 PUSH1 0xE0 SHL PUSH1 0x0 MSTORE PUSH1 0x31 PUSH1 0x4 MSTORE PUSH1 0x24 PUSH1 0x0 REVERT JUMPDEST PUSH1 0x0 DUP3 DUP2 MSTORE PUSH1 0x20 SWAP1 KECCAK256 DUP2 ADD PUSH1 0x0 NOT SWAP1 DUP2 ADD DUP1 SLOAD PUSH1 0x1 PUSH1 0x1 PUSH1 0xA0 SHL SUB NOT AND SWAP1 SSTORE ADD SWAP1 SSTORE JUMPDEST POP POP POP POP JUMP JUMPDEST PUSH1 0x0 DUP1 SLOAD PUSH1 0x1 PUSH1 0x1 PUSH1 0xA0 SHL SUB DUP4 DUP2 AND PUSH1 0x1 PUSH1 0x1 PUSH1 0xA0 SHL SUB NOT DUP4 AND DUP2 OR DUP5 SSTORE PUSH1 0x40 MLOAD SWAP2 SWAP1 SWAP3 AND SWAP3 DUP4 SWAP2 PUSH32 0x8BE0079C531659141344CD1FD0A4F28419497F9722A3DAAFE3B4186F6B6457E0 SWAP2 SWAP1 LOG3 POP POP JUMP JUMPDEST PUSH1 0x6 SLOAD PUSH1 0x1 PUSH1 0x1 PUSH1 0xA0 SHL SUB AND PUSH2 0x11D1 JUMPI PUSH1 0x40 MLOAD PUSH3 0x461BCD PUSH1 0xE5 SHL DUP2 MSTORE PUSH1 0x4 ADD PUSH2 0x404 SWAP1 PUSH2 0x1B13 JUMP JUMPDEST PUSH1 0x7 SLOAD PUSH1 0x1 PUSH1 0x1 PUSH1 0xA0 SHL SUB AND PUSH2 0x11F9 JUMPI PUSH1 0x40 MLOAD PUSH3 0x461BCD PUSH1 0xE5 SHL DUP2 MSTORE PUSH1 0x4 ADD PUSH2 0x404 SWAP1 PUSH2 0x1AA7 JUMP JUMPDEST PUSH1 0x1 PUSH1 0x1 PUSH1 0xA0 SHL SUB DUP2 DUP2 AND PUSH1 0x0 SWAP1 DUP2 MSTORE PUSH1 0x4 PUSH1 0x20 MSTORE PUSH1 0x40 SWAP1 KECCAK256 SLOAD AND PUSH2 0x1230 JUMPI PUSH1 0x40 MLOAD PUSH3 0x461BCD PUSH1 0xE5 SHL DUP2 MSTORE PUSH1 0x4 ADD PUSH2 0x404 SWAP1 PUSH2 0x1828 JUMP JUMPDEST PUSH1 0x6 SLOAD PUSH1 0x40 MLOAD PUSH4 0x70A08231 PUSH1 0xE0 SHL DUP2 MSTORE PUSH1 0x0 SWAP2 PUSH1 0x1 PUSH1 0x1 PUSH1 0xA0 SHL SUB AND SWAP1 PUSH4 0x70A08231 SWAP1 PUSH2 0x1261 SWAP1 DUP6 SWAP1 PUSH1 0x4 ADD PUSH2 0x17A2 JUMP JUMPDEST PUSH1 0x20 PUSH1 0x40 MLOAD DUP1 DUP4 SUB DUP2 DUP7 DUP1 EXTCODESIZE ISZERO DUP1 ISZERO PUSH2 0x1279 JUMPI PUSH1 0x0 DUP1 REVERT JUMPDEST POP GAS STATICCALL ISZERO DUP1 ISZERO PUSH2 0x128D JUMPI RETURNDATASIZE PUSH1 0x0 DUP1 RETURNDATACOPY RETURNDATASIZE PUSH1 0x0 REVERT JUMPDEST POP POP POP POP PUSH1 0x40 MLOAD RETURNDATASIZE PUSH1 0x1F NOT PUSH1 0x1F DUP3 ADD AND DUP3 ADD DUP1 PUSH1 0x40 MSTORE POP DUP2 ADD SWAP1 PUSH2 0x12B1 SWAP2 SWAP1 PUSH2 0x178A JUMP JUMPDEST SWAP1 POP PUSH1 0x0 PUSH2 0x12BE DUP4 PUSH2 0x4BD JUMP JUMPDEST SWAP1 POP DUP2 ISZERO PUSH2 0x1448 JUMPI PUSH1 0x7 SLOAD PUSH1 0x40 MLOAD PUSH4 0xDB6CC85 PUSH1 0xE1 SHL DUP2 MSTORE PUSH1 0x1 PUSH1 0x1 PUSH1 0xA0 SHL SUB SWAP1 SWAP2 AND SWAP1 PUSH4 0x1B6D990A SWAP1 PUSH2 0x12F8 SWAP1 DUP6 SWAP1 DUP6 SWAP1 PUSH1 0x4 ADD PUSH2 0x1C3D JUMP JUMPDEST PUSH1 0x20 PUSH1 0x40 MLOAD DUP1 DUP4 SUB DUP2 PUSH1 0x0 DUP8 DUP1 EXTCODESIZE ISZERO DUP1 ISZERO PUSH2 0x1312 JUMPI PUSH1 0x0 DUP1 REVERT JUMPDEST POP GAS CALL ISZERO DUP1 ISZERO PUSH2 0x1326 JUMPI RETURNDATASIZE PUSH1 0x0 DUP1 RETURNDATACOPY RETURNDATASIZE PUSH1 0x0 REVERT JUMPDEST POP POP POP POP PUSH1 0x40 MLOAD RETURNDATASIZE PUSH1 0x1F NOT PUSH1 0x1F DUP3 ADD AND DUP3 ADD DUP1 PUSH1 0x40 MSTORE POP DUP2 ADD SWAP1 PUSH2 0x134A SWAP2 SWAP1 PUSH2 0x176A JUMP JUMPDEST PUSH2 0x1366 JUMPI PUSH1 0x40 MLOAD PUSH3 0x461BCD PUSH1 0xE5 SHL DUP2 MSTORE PUSH1 0x4 ADD PUSH2 0x404 SWAP1 PUSH2 0x19B2 JUMP JUMPDEST PUSH1 0x7 SLOAD PUSH1 0x40 MLOAD PUSH4 0x171BCFC3 PUSH1 0xE2 SHL DUP2 MSTORE PUSH1 0x1 PUSH1 0x1 PUSH1 0xA0 SHL SUB SWAP1 SWAP2 AND SWAP1 PUSH4 0x5C6F3F0C SWAP1 PUSH2 0x1398 SWAP1 DUP6 SWAP1 DUP8 SWAP1 PUSH1 0x4 ADD PUSH2 0x1C3D JUMP JUMPDEST PUSH1 0x20 PUSH1 0x40 MLOAD DUP1 DUP4 SUB DUP2 PUSH1 0x0 DUP8 DUP1 EXTCODESIZE ISZERO DUP1 ISZERO PUSH2 0x13B2 JUMPI PUSH1 0x0 DUP1 REVERT JUMPDEST POP GAS CALL ISZERO DUP1 ISZERO PUSH2 0x13C6 JUMPI RETURNDATASIZE PUSH1 0x0 DUP1 RETURNDATACOPY RETURNDATASIZE PUSH1 0x0 REVERT JUMPDEST POP POP POP POP PUSH1 0x40 MLOAD RETURNDATASIZE PUSH1 0x1F NOT PUSH1 0x1F DUP3 ADD AND DUP3 ADD DUP1 PUSH1 0x40 MSTORE POP DUP2 ADD SWAP1 PUSH2 0x13EA SWAP2 SWAP1 PUSH2 0x176A JUMP JUMPDEST PUSH2 0x1406 JUMPI PUSH1 0x40 MLOAD PUSH3 0x461BCD PUSH1 0xE5 SHL DUP2 MSTORE PUSH1 0x4 ADD PUSH2 0x404 SWAP1 PUSH2 0x1A03 JUMP JUMPDEST DUP3 PUSH1 0x1 PUSH1 0x1 PUSH1 0xA0 SHL SUB AND PUSH32 0xC587680578B3ACB8EEB1AB421A6921EFE2A32B10903016EBD6C3F39E51CD1D96 DUP3 PUSH1 0x40 MLOAD PUSH2 0x143F SWAP2 SWAP1 PUSH2 0x17A2 JUMP JUMPDEST PUSH1 0x40 MLOAD DUP1 SWAP2 SUB SWAP1 LOG2 JUMPDEST POP POP POP JUMP JUMPDEST PUSH1 0x8 SLOAD PUSH1 0x1 PUSH1 0x1 PUSH1 0xA0 SHL SUB AND PUSH2 0x1475 JUMPI PUSH1 0x40 MLOAD PUSH3 0x461BCD PUSH1 0xE5 SHL DUP2 MSTORE PUSH1 0x4 ADD PUSH2 0x404 SWAP1 PUSH2 0x18E3 JUMP JUMPDEST PUSH1 0x1 PUSH1 0x1 PUSH1 0xA0 SHL SUB DUP2 DUP2 AND PUSH1 0x0 SWAP1 DUP2 MSTORE PUSH1 0x4 PUSH1 0x20 MSTORE PUSH1 0x40 SWAP1 KECCAK256 SLOAD AND PUSH2 0x14AC JUMPI PUSH1 0x40 MLOAD PUSH3 0x461BCD PUSH1 0xE5 SHL DUP2 MSTORE PUSH1 0x4 ADD PUSH2 0x404 SWAP1 PUSH2 0x1828 JUMP JUMPDEST PUSH1 0x8 SLOAD PUSH1 0x40 MLOAD PUSH4 0x3B4FEBFB PUSH1 0xE2 SHL DUP2 MSTORE PUSH1 0x0 SWAP2 PUSH1 0x1 PUSH1 0x1 PUSH1 0xA0 SHL SUB AND SWAP1 PUSH4 0xED3FAFEC SWAP1 PUSH2 0x14DD SWAP1 DUP6 SWAP1 PUSH1 0x4 ADD PUSH2 0x17A2 JUMP JUMPDEST PUSH1 0x20 PUSH1 0x40 MLOAD DUP1 DUP4 SUB DUP2 PUSH1 0x0 DUP8 DUP1 EXTCODESIZE ISZERO DUP1 ISZERO PUSH2 0x14F7 JUMPI PUSH1 0x0 DUP1 REVERT JUMPDEST POP GAS CALL ISZERO DUP1 ISZERO PUSH2 0x150B JUMPI RETURNDATASIZE PUSH1 0x0 DUP1 RETURNDATACOPY RETURNDATASIZE PUSH1 0x0 REVERT JUMPDEST POP POP POP POP PUSH1 0x40 MLOAD RETURNDATASIZE PUSH1 0x1F NOT PUSH1 0x1F DUP3 ADD AND DUP3 ADD DUP1 PUSH1 0x40 MSTORE POP DUP2 ADD SWAP1 PUSH2 0x152F SWAP2 SWAP1 PUSH2 0x178A JUMP JUMPDEST SWAP1 POP PUSH1 0x0 PUSH2 0x153C DUP4 PUSH2 0x4BD JUMP JUMPDEST SWAP1 POP DUP2 ISZERO PUSH2 0x1448 JUMPI PUSH1 0x8 SLOAD PUSH1 0x40 MLOAD PUSH4 0x5F28BAD5 PUSH1 0xE0 SHL DUP2 MSTORE PUSH1 0x1 PUSH1 0x1 PUSH1 0xA0 SHL SUB SWAP1 SWAP2 AND SWAP1 PUSH4 0x5F28BAD5 SWAP1 PUSH2 0x1576 SWAP1 DUP7 SWAP1 DUP6 SWAP1 PUSH1 0x4 ADD PUSH2 0x17B6 JUMP JUMPDEST PUSH1 0x20 PUSH1 0x40 MLOAD DUP1 DUP4 SUB DUP2 PUSH1 0x0 DUP8 DUP1 EXTCODESIZE ISZERO DUP1 ISZERO PUSH2 0x1590 JUMPI PUSH1 0x0 DUP1 REVERT JUMPDEST POP GAS CALL ISZERO DUP1 ISZERO PUSH2 0x15A4 JUMPI RETURNDATASIZE PUSH1 0x0 DUP1 RETURNDATACOPY RETURNDATASIZE PUSH1 0x0 REVERT JUMPDEST POP POP POP POP PUSH1 0x40 MLOAD RETURNDATASIZE PUSH1 0x1F NOT PUSH1 0x1F DUP3 ADD AND DUP3 ADD DUP1 PUSH1 0x40 MSTORE POP DUP2 ADD SWAP1 PUSH2 0x15C8 SWAP2 SWAP1 PUSH2 0x176A JUMP JUMPDEST PUSH2 0x15E4 JUMPI PUSH1 0x40 MLOAD PUSH3 0x461BCD PUSH1 0xE5 SHL DUP2 MSTORE PUSH1 0x4 ADD PUSH2 0x404 SWAP1 PUSH2 0x1890 JUMP JUMPDEST DUP3 PUSH1 0x1 PUSH1 0x1 PUSH1 0xA0 SHL SUB AND PUSH32 0x4B22084EC80E4B31B47CB8C65CD44C4E4E2840E20DFFCBD81BD7D048B74FB4E DUP3 PUSH1 0x40 MLOAD PUSH2 0x143F SWAP2 SWAP1 PUSH2 0x17A2 JUMP JUMPDEST DUP1 CALLDATALOAD PUSH1 0x1 PUSH1 0x1 PUSH1 0xA0 SHL SUB DUP2 AND DUP2 EQ PUSH2 0x457 JUMPI PUSH1 0x0 DUP1 REVERT JUMPDEST PUSH1 0x0 PUSH1 0x20 DUP3 DUP5 SUB SLT ISZERO PUSH2 0x1645 JUMPI DUP1 DUP2 REVERT JUMPDEST PUSH2 0xCA9 DUP3 PUSH2 0x161D JUMP JUMPDEST PUSH1 0x0 DUP1 PUSH1 0x40 DUP4 DUP6 SUB SLT ISZERO PUSH2 0x1660 JUMPI DUP1 DUP2 REVERT JUMPDEST PUSH2 0x1669 DUP4 PUSH2 0x161D JUMP JUMPDEST SWAP2 POP PUSH2 0x1677 PUSH1 0x20 DUP5 ADD PUSH2 0x161D JUMP JUMPDEST SWAP1 POP SWAP3 POP SWAP3 SWAP1 POP JUMP JUMPDEST PUSH1 0x0 DUP1 PUSH1 0x40 DUP4 DUP6 SUB SLT ISZERO PUSH2 0x1692 JUMPI DUP2 DUP3 REVERT JUMPDEST PUSH2 0x169B DUP4 PUSH2 0x161D JUMP JUMPDEST SWAP5 PUSH1 0x20 SWAP4 SWAP1 SWAP4 ADD CALLDATALOAD SWAP4 POP POP POP JUMP JUMPDEST PUSH1 0x0 PUSH1 0x20 DUP1 DUP4 DUP6 SUB SLT ISZERO PUSH2 0x16BB JUMPI DUP2 DUP3 REVERT JUMPDEST DUP3 CALLDATALOAD PUSH8 0xFFFFFFFFFFFFFFFF DUP1 DUP3 GT ISZERO PUSH2 0x16D2 JUMPI DUP4 DUP5 REVERT JUMPDEST DUP2 DUP6 ADD SWAP2 POP DUP6 PUSH1 0x1F DUP4 ADD SLT PUSH2 0x16E5 JUMPI DUP4 DUP5 REVERT JUMPDEST DUP2 CALLDATALOAD DUP2 DUP2 GT ISZERO PUSH2 0x16F7 JUMPI PUSH2 0x16F7 PUSH2 0x1CA3 JUMP JUMPDEST DUP4 DUP2 MUL PUSH1 0x40 MLOAD DUP6 DUP3 DUP3 ADD ADD DUP2 DUP2 LT DUP6 DUP3 GT OR ISZERO PUSH2 0x1716 JUMPI PUSH2 0x1716 PUSH2 0x1CA3 JUMP JUMPDEST PUSH1 0x40 MSTORE DUP3 DUP2 MSTORE DUP6 DUP2 ADD SWAP4 POP DUP5 DUP7 ADD DUP3 DUP7 ADD DUP8 ADD DUP11 LT ISZERO PUSH2 0x1734 JUMPI DUP8 DUP9 REVERT JUMPDEST DUP8 SWAP6 POP JUMPDEST DUP4 DUP7 LT ISZERO PUSH2 0x175D JUMPI PUSH2 0x1749 DUP2 PUSH2 0x161D JUMP JUMPDEST DUP6 MSTORE PUSH1 0x1 SWAP6 SWAP1 SWAP6 ADD SWAP5 SWAP4 DUP7 ADD SWAP4 DUP7 ADD PUSH2 0x1738 JUMP JUMPDEST POP SWAP9 SWAP8 POP POP POP POP POP POP POP POP JUMP JUMPDEST PUSH1 0x0 PUSH1 0x20 DUP3 DUP5 SUB SLT ISZERO PUSH2 0x177B JUMPI DUP1 DUP2 REVERT JUMPDEST DUP2 MLOAD DUP1 ISZERO ISZERO DUP2 EQ PUSH2 0xCA9 JUMPI DUP2 DUP3 REVERT JUMPDEST PUSH1 0x0 PUSH1 0x20 DUP3 DUP5 SUB SLT ISZERO PUSH2 0x179B JUMPI DUP1 DUP2 REVERT JUMPDEST POP MLOAD SWAP2 SWAP1 POP JUMP JUMPDEST PUSH1 0x1 PUSH1 0x1 PUSH1 0xA0 SHL SUB SWAP2 SWAP1 SWAP2 AND DUP2 MSTORE PUSH1 0x20 ADD SWAP1 JUMP JUMPDEST PUSH1 0x1 PUSH1 0x1 PUSH1 0xA0 SHL SUB SWAP3 DUP4 AND DUP2 MSTORE SWAP2 AND PUSH1 0x20 DUP3 ADD MSTORE PUSH1 0x40 ADD SWAP1 JUMP JUMPDEST PUSH1 0x20 DUP1 DUP3 MSTORE DUP3 MLOAD DUP3 DUP3 ADD DUP2 SWAP1 MSTORE PUSH1 0x0 SWAP2 SWAP1 DUP5 DUP3 ADD SWAP1 PUSH1 0x40 DUP6 ADD SWAP1 DUP5 JUMPDEST DUP2 DUP2 LT ISZERO PUSH2 0x1811 JUMPI DUP4 MLOAD PUSH1 0x1 PUSH1 0x1 PUSH1 0xA0 SHL SUB AND DUP4 MSTORE SWAP3 DUP5 ADD SWAP3 SWAP2 DUP5 ADD SWAP2 PUSH1 0x1 ADD PUSH2 0x17EC JUMP JUMPDEST POP SWAP1 SWAP7 SWAP6 POP POP POP POP POP POP JUMP JUMPDEST SWAP1 ISZERO ISZERO DUP2 MSTORE PUSH1 0x20 ADD SWAP1 JUMP JUMPDEST PUSH1 0x20 DUP1 DUP3 MSTORE PUSH1 0x42 SWAP1 DUP3 ADD MSTORE PUSH32 0x5472616E73666572526570546F4D61737465723A20696E707574205F776F726B PUSH1 0x40 DUP3 ADD MSTORE PUSH32 0x6572206E6565647320746F20686176652061206E6F6E2D6E756C6C206D617374 PUSH1 0x60 DUP3 ADD MSTORE PUSH2 0x32B9 PUSH1 0xF1 SHL PUSH1 0x80 DUP3 ADD MSTORE PUSH1 0xA0 ADD SWAP1 JUMP JUMPDEST PUSH1 0x20 DUP1 DUP3 MSTORE PUSH1 0x33 SWAP1 DUP3 ADD MSTORE PUSH32 0x5472616E7366657252657761726473546F4D61737465723A20636F756C64206E PUSH1 0x40 DUP3 ADD MSTORE PUSH19 0x6F74207472616E736665722072657761726473 PUSH1 0x68 SHL PUSH1 0x60 DUP3 ADD MSTORE PUSH1 0x80 ADD SWAP1 JUMP JUMPDEST PUSH1 0x20 DUP1 DUP3 MSTORE PUSH1 0x1F SWAP1 DUP3 ADD MSTORE PUSH32 0x5265776172644D616E61676572206E6565647320746F20626520736574757000 PUSH1 0x40 DUP3 ADD MSTORE PUSH1 0x60 ADD SWAP1 JUMP JUMPDEST PUSH1 0x20 DUP1 DUP3 MSTORE PUSH1 0x26 SWAP1 DUP3 ADD MSTORE PUSH32 0x4F776E61626C653A206E6577206F776E657220697320746865207A65726F2061 PUSH1 0x40 DUP3 ADD MSTORE PUSH6 0x646472657373 PUSH1 0xD0 SHL PUSH1 0x60 DUP3 ADD MSTORE PUSH1 0x80 ADD SWAP1 JUMP JUMPDEST PUSH1 0x20 DUP1 DUP3 MSTORE PUSH1 0x32 SWAP1 DUP3 ADD MSTORE PUSH32 0x43616E27742072656D6F76653A204D6173746572206E6F7420636C61696D696E PUSH1 0x40 DUP3 ADD MSTORE PUSH18 0x672074686973205375622041646472657373 PUSH1 0x70 SHL PUSH1 0x60 DUP3 ADD MSTORE PUSH1 0x80 ADD SWAP1 JUMP JUMPDEST PUSH1 0x20 DUP1 DUP3 MSTORE PUSH1 0x31 SWAP1 DUP3 ADD MSTORE PUSH32 0x5472616E73666572526570546F4D61737465723A20636F756C64206E6F74206D PUSH1 0x40 DUP3 ADD MSTORE PUSH17 0x34B73A102932B8103A379036B0B9BA32B9 PUSH1 0x79 SHL PUSH1 0x60 DUP3 ADD MSTORE PUSH1 0x80 ADD SWAP1 JUMP JUMPDEST PUSH1 0x20 DUP1 DUP3 MSTORE PUSH1 0x33 SWAP1 DUP3 ADD MSTORE PUSH32 0x5472616E73666572526570546F4D61737465723A20636F756C64206E6F742062 PUSH1 0x40 DUP3 ADD MSTORE PUSH19 0x3AB937102932B810333937B6903BB7B935B2B9 PUSH1 0x69 SHL PUSH1 0x60 DUP3 ADD MSTORE PUSH1 0x80 ADD SWAP1 JUMP JUMPDEST PUSH1 0x20 DUP1 DUP3 MSTORE PUSH1 0x31 SWAP1 DUP3 ADD MSTORE PUSH32 0x43616E277420636C61696D204D61737465723A20616C726561647920636C6169 PUSH1 0x40 DUP3 ADD MSTORE PUSH17 0x6D696E6720746869732061646472657373 PUSH1 0x78 SHL PUSH1 0x60 DUP3 ADD MSTORE PUSH1 0x80 ADD SWAP1 JUMP JUMPDEST PUSH1 0x20 DUP1 DUP3 MSTORE PUSH1 0x1C SWAP1 DUP3 ADD MSTORE PUSH32 0x5265704D616E61676572206E6565647320746F20626520736574757000000000 PUSH1 0x40 DUP3 ADD MSTORE PUSH1 0x60 ADD SWAP1 JUMP JUMPDEST PUSH1 0x20 DUP1 DUP3 MSTORE DUP2 DUP2 ADD MSTORE PUSH32 0x4F776E61626C653A2063616C6C6572206973206E6F7420746865206F776E6572 PUSH1 0x40 DUP3 ADD MSTORE PUSH1 0x60 ADD SWAP1 JUMP JUMPDEST PUSH1 0x20 DUP1 DUP3 MSTORE PUSH1 0x1C SWAP1 DUP3 ADD MSTORE PUSH32 0x52657075746174696F6E206E6565647320746F20626520736574757000000000 PUSH1 0x40 DUP3 ADD MSTORE PUSH1 0x60 ADD SWAP1 JUMP JUMPDEST PUSH1 0x20 DUP1 DUP3 MSTORE PUSH1 0x3E SWAP1 DUP3 ADD MSTORE PUSH32 0x4665746368486967686573744D61737465723A20696E707574205F776F726B65 PUSH1 0x40 DUP3 ADD MSTORE PUSH32 0x72206E6565647320746F206265206E6F6E206E756C6C20616464726573730000 PUSH1 0x60 DUP3 ADD MSTORE PUSH1 0x80 ADD SWAP1 JUMP JUMPDEST PUSH1 0x20 DUP1 DUP3 MSTORE PUSH1 0x2E SWAP1 DUP3 ADD MSTORE PUSH32 0x43616E27742072656D6F7665204D61737465723A206E6F7420636C61696D696E PUSH1 0x40 DUP3 ADD MSTORE PUSH14 0x6720746869732061646472657373 PUSH1 0x90 SHL PUSH1 0x60 DUP3 ADD MSTORE PUSH1 0x80 ADD SWAP1 JUMP JUMPDEST PUSH1 0x20 DUP1 DUP3 MSTORE PUSH1 0x28 SWAP1 DUP3 ADD MSTORE PUSH32 0x4D617374657220616C726561647920636C61696D696E67207468697320537562 PUSH1 0x40 DUP3 ADD MSTORE PUSH8 0x2041646472657373 PUSH1 0xC0 SHL PUSH1 0x60 DUP3 ADD MSTORE PUSH1 0x80 ADD SWAP1 JUMP JUMPDEST SWAP2 DUP3 MSTORE PUSH1 0x1 PUSH1 0x1 PUSH1 0xA0 SHL SUB AND PUSH1 0x20 DUP3 ADD MSTORE PUSH1 0x0 PUSH1 0x40 DUP3 ADD MSTORE PUSH1 0x60 ADD SWAP1 JUMP JUMPDEST PUSH1 0x0 DUP3 DUP3 LT ISZERO PUSH2 0x1C6D JUMPI PUSH2 0x1C6D PUSH2 0x1C8D JUMP JUMPDEST POP SUB SWAP1 JUMP JUMPDEST PUSH1 0x0 PUSH1 0x0 NOT DUP3 EQ ISZERO PUSH2 0x1C86 JUMPI PUSH2 0x1C86 PUSH2 0x1C8D JUMP JUMPDEST POP PUSH1 0x1 ADD SWAP1 JUMP JUMPDEST PUSH4 0x4E487B71 PUSH1 0xE0 SHL PUSH1 0x0 MSTORE PUSH1 0x11 PUSH1 0x4 MSTORE PUSH1 0x24 PUSH1 0x0 REVERT JUMPDEST PUSH4 0x4E487B71 PUSH1 0xE0 SHL PUSH1 0x0 MSTORE PUSH1 0x41 PUSH1 0x4 MSTORE PUSH1 0x24 PUSH1 0x0 REVERT INVALID LOG2 PUSH5 0x6970667358 0x22 SLT KECCAK256 0x24 0xCB 0x4B SWAP12 0x4C 0xE7 XOR 0xF8 0x4D 0xE 0x22 0xEE KECCAK256 0xB5 0x4B EXP 0xB1 0xB8 PUSH23 0x4CD1298459FEB47A828A112A4F64736F6C634300080000 CALLER "
				},
				"gasEstimates": {
					"creation": {
						"codeDepositCost": "1481400",
						"executionCost": "44022",
						"totalCost": "1525422"
					},
					"external": {
						"AreMasterSubLinked(address,address)": "infinite",
						"ClaimMaster(address)": "infinite",
						"FetchHighestMaster(address)": "infinite",
						"MasterClaimManySubs(address[])": "infinite",
						"MasterClaimSub(address)": "65622",
						"MasterClaimingWorker(address,address)": "infinite",
						"MasterRemoveManySubs(address[])": "infinite",
						"MasterRemoveSub(address)": "infinite",
						"MasterToSubsMap(address,uint256)": "2276",
						"RemoveMaster(address)": "44760",
						"RepManager()": "1116",
						"Reputation()": "1137",
						"RewardManager()": "1159",
						"SubToMasterMap(address)": "1338",
						"WorkerClaimingMaster(address,address)": "infinite",
						"getMaster(address)": "1369",
						"getMasterSubs(address)": "infinite",
						"isMasterOf(address,address)": "infinite",
						"isMasterOfMe(address)": "1398",
						"isSubInMasterArray(address,address)": "infinite",
						"isSubWorkerOf(address,address)": "infinite",
						"isSubWorkerOfMe(address)": "infinite",
						"owner()": "1160",
						"renounceOwnership()": "23550",
						"transferOwnership(address)": "23787",
						"updateRepManager(address)": "22168",
						"updateReputation(address)": "22192",
						"updateRewardManager(address)": "22148"
					},
					"internal": {
						"PopFromSubsArray(address,address)": "infinite",
						"TransferRepToMaster(address)": "infinite",
						"TransferRewardsToMaster(address)": "infinite"
					}
				},
				"methodIdentifiers": {
					"AreMasterSubLinked(address,address)": "9f62c379",
					"ClaimMaster(address)": "df77a0f6",
					"FetchHighestMaster(address)": "11815086",
					"MasterClaimManySubs(address[])": "39c3f6e7",
					"MasterClaimSub(address)": "12ccb147",
					"MasterClaimingWorker(address,address)": "342bffbf",
					"MasterRemoveManySubs(address[])": "8213b8d8",
					"MasterRemoveSub(address)": "4826d043",
					"MasterToSubsMap(address,uint256)": "2e3ce457",
					"RemoveMaster(address)": "584720f5",
					"RepManager()": "29a47bc7",
					"Reputation()": "9904ed8d",
					"RewardManager()": "51912f29",
					"SubToMasterMap(address)": "e4f1d0fd",
					"WorkerClaimingMaster(address,address)": "1778f9c8",
					"getMaster(address)": "f25e9ed2",
					"getMasterSubs(address)": "198ff3dc",
					"isMasterOf(address,address)": "96daff56",
					"isMasterOfMe(address)": "db519824",
					"isSubInMasterArray(address,address)": "f77c8658",
					"isSubWorkerOf(address,address)": "ac8d65cb",
					"isSubWorkerOfMe(address)": "0c06e4df",
					"owner()": "8da5cb5b",
					"renounceOwnership()": "715018a6",
					"transferOwnership(address)": "f2fde38b",
					"updateRepManager(address)": "dd618682",
					"updateReputation(address)": "0e90e565",
					"updateRewardManager(address)": "050eb2eb"
				}
			},
			"storageLayout": {
				"storage": [
					{
						"astId": 7,
						"contract": "contracts/worksystems/AddressManager.sol:AddressManager",
						"label": "_owner",
						"offset": 0,
						"slot": "0",
						"type": "t_address"
					},
					{
						"astId": 586,
						"contract": "contracts/worksystems/AddressManager.sol:AddressManager",
						"label": "MasterClaimingWorker",
						"offset": 0,
						"slot": "1",
						"type": "t_mapping(t_address,t_mapping(t_address,t_bool))"
					},
					{
						"astId": 592,
						"contract": "contracts/worksystems/AddressManager.sol:AddressManager",
						"label": "WorkerClaimingMaster",
						"offset": 0,
						"slot": "2",
						"type": "t_mapping(t_address,t_mapping(t_address,t_bool))"
					},
					{
						"astId": 597,
						"contract": "contracts/worksystems/AddressManager.sol:AddressManager",
						"label": "MasterToSubsMap",
						"offset": 0,
						"slot": "3",
						"type": "t_mapping(t_address,t_array(t_address)dyn_storage)"
					},
					{
						"astId": 601,
						"contract": "contracts/worksystems/AddressManager.sol:AddressManager",
						"label": "SubToMasterMap",
						"offset": 0,
						"slot": "4",
						"type": "t_mapping(t_address,t_address)"
					},
					{
						"astId": 604,
						"contract": "contracts/worksystems/AddressManager.sol:AddressManager",
						"label": "MAX_MASTER_LOOKUP",
						"offset": 0,
						"slot": "5",
						"type": "t_uint256"
					},
					{
						"astId": 607,
						"contract": "contracts/worksystems/AddressManager.sol:AddressManager",
						"label": "Reputation",
						"offset": 0,
						"slot": "6",
						"type": "t_contract(IReputation)529"
					},
					{
						"astId": 610,
						"contract": "contracts/worksystems/AddressManager.sol:AddressManager",
						"label": "RepManager",
						"offset": 0,
						"slot": "7",
						"type": "t_contract(IRepManager)552"
					},
					{
						"astId": 613,
						"contract": "contracts/worksystems/AddressManager.sol:AddressManager",
						"label": "RewardManager",
						"offset": 0,
						"slot": "8",
						"type": "t_contract(IRewardManager)578"
					}
				],
				"types": {
					"t_address": {
						"encoding": "inplace",
						"label": "address",
						"numberOfBytes": "20"
					},
					"t_array(t_address)dyn_storage": {
						"base": "t_address",
						"encoding": "dynamic_array",
						"label": "address[]",
						"numberOfBytes": "32"
					},
					"t_bool": {
						"encoding": "inplace",
						"label": "bool",
						"numberOfBytes": "1"
					},
					"t_contract(IRepManager)552": {
						"encoding": "inplace",
						"label": "contract IRepManager",
						"numberOfBytes": "20"
					},
					"t_contract(IReputation)529": {
						"encoding": "inplace",
						"label": "contract IReputation",
						"numberOfBytes": "20"
					},
					"t_contract(IRewardManager)578": {
						"encoding": "inplace",
						"label": "contract IRewardManager",
						"numberOfBytes": "20"
					},
					"t_mapping(t_address,t_address)": {
						"encoding": "mapping",
						"key": "t_address",
						"label": "mapping(address => address)",
						"numberOfBytes": "32",
						"value": "t_address"
					},
					"t_mapping(t_address,t_array(t_address)dyn_storage)": {
						"encoding": "mapping",
						"key": "t_address",
						"label": "mapping(address => address[])",
						"numberOfBytes": "32",
						"value": "t_array(t_address)dyn_storage"
					},
					"t_mapping(t_address,t_bool)": {
						"encoding": "mapping",
						"key": "t_address",
						"label": "mapping(address => bool)",
						"numberOfBytes": "32",
						"value": "t_bool"
					},
					"t_mapping(t_address,t_mapping(t_address,t_bool))": {
						"encoding": "mapping",
						"key": "t_address",
						"label": "mapping(address => mapping(address => bool))",
						"numberOfBytes": "32",
						"value": "t_mapping(t_address,t_bool)"
					},
					"t_uint256": {
						"encoding": "inplace",
						"label": "uint256",
						"numberOfBytes": "32"
					}
				}
			},
			"userdoc": {
				"kind": "user",
				"methods": {},
				"version": 1
			}
		}
	}
}