{
	"worksystems/AddressManager.sol": {
		"AddressManager": {
			"abi": [
				{
					"anonymous": false,
					"inputs": [
						{
							"indexed": true,
							"internalType": "address",
							"name": "account",
							"type": "address"
						},
						{
							"indexed": false,
							"internalType": "address",
							"name": "account2",
							"type": "address"
						}
					],
					"name": "AddressAddedByMaster",
					"type": "event"
				},
				{
					"anonymous": false,
					"inputs": [
						{
							"indexed": true,
							"internalType": "address",
							"name": "account",
							"type": "address"
						},
						{
							"indexed": false,
							"internalType": "address",
							"name": "account2",
							"type": "address"
						}
					],
					"name": "AddressAddedByWorker",
					"type": "event"
				},
				{
					"anonymous": false,
					"inputs": [
						{
							"indexed": true,
							"internalType": "address",
							"name": "account",
							"type": "address"
						},
						{
							"indexed": false,
							"internalType": "address",
							"name": "account2",
							"type": "address"
						}
					],
					"name": "AddressRemovedByMaster",
					"type": "event"
				},
				{
					"anonymous": false,
					"inputs": [
						{
							"indexed": true,
							"internalType": "address",
							"name": "account",
							"type": "address"
						},
						{
							"indexed": false,
							"internalType": "address",
							"name": "account2",
							"type": "address"
						}
					],
					"name": "AddressRemovedByWorker",
					"type": "event"
				},
				{
					"anonymous": false,
					"inputs": [
						{
							"indexed": true,
							"internalType": "address",
							"name": "previousOwner",
							"type": "address"
						},
						{
							"indexed": true,
							"internalType": "address",
							"name": "newOwner",
							"type": "address"
						}
					],
					"name": "OwnershipTransferred",
					"type": "event"
				},
				{
					"anonymous": false,
					"inputs": [
						{
							"indexed": true,
							"internalType": "address",
							"name": "account",
							"type": "address"
						},
						{
							"indexed": false,
							"internalType": "address",
							"name": "account2",
							"type": "address"
						}
					],
					"name": "ReputationTransfered",
					"type": "event"
				},
				{
					"anonymous": false,
					"inputs": [
						{
							"indexed": true,
							"internalType": "address",
							"name": "account",
							"type": "address"
						},
						{
							"indexed": false,
							"internalType": "address",
							"name": "account2",
							"type": "address"
						}
					],
					"name": "RewardsTransfered",
					"type": "event"
				},
				{
					"inputs": [
						{
							"internalType": "address",
							"name": "_master",
							"type": "address"
						},
						{
							"internalType": "address",
							"name": "_address",
							"type": "address"
						}
					],
					"name": "AreMasterSubLinked",
					"outputs": [
						{
							"internalType": "bool",
							"name": "",
							"type": "bool"
						}
					],
					"stateMutability": "view",
					"type": "function"
				},
				{
					"inputs": [
						{
							"internalType": "address",
							"name": "_master",
							"type": "address"
						}
					],
					"name": "ClaimMaster",
					"outputs": [],
					"stateMutability": "nonpayable",
					"type": "function"
				},
				{
					"inputs": [
						{
							"internalType": "address",
							"name": "_worker",
							"type": "address"
						}
					],
					"name": "FetchHighestMaster",
					"outputs": [
						{
							"internalType": "address",
							"name": "",
							"type": "address"
						}
					],
					"stateMutability": "view",
					"type": "function"
				},
				{
					"inputs": [
						{
							"internalType": "address[]",
							"name": "_addresses",
							"type": "address[]"
						}
					],
					"name": "MasterClaimManySubs",
					"outputs": [],
					"stateMutability": "nonpayable",
					"type": "function"
				},
				{
					"inputs": [
						{
							"internalType": "address",
							"name": "_address",
							"type": "address"
						}
					],
					"name": "MasterClaimSub",
					"outputs": [],
					"stateMutability": "nonpayable",
					"type": "function"
				},
				{
					"inputs": [
						{
							"internalType": "address",
							"name": "",
							"type": "address"
						},
						{
							"internalType": "address",
							"name": "",
							"type": "address"
						}
					],
					"name": "MasterClaimingWorker",
					"outputs": [
						{
							"internalType": "bool",
							"name": "",
							"type": "bool"
						}
					],
					"stateMutability": "view",
					"type": "function"
				},
				{
					"inputs": [
						{
							"internalType": "address[]",
							"name": "_addresses",
							"type": "address[]"
						}
					],
					"name": "MasterRemoveManySubs",
					"outputs": [],
					"stateMutability": "nonpayable",
					"type": "function"
				},
				{
					"inputs": [
						{
							"internalType": "address",
							"name": "_address",
							"type": "address"
						}
					],
					"name": "MasterRemoveSub",
					"outputs": [],
					"stateMutability": "nonpayable",
					"type": "function"
				},
				{
					"inputs": [
						{
							"internalType": "address",
							"name": "",
							"type": "address"
						},
						{
							"internalType": "uint256",
							"name": "",
							"type": "uint256"
						}
					],
					"name": "MasterToSubsMap",
					"outputs": [
						{
							"internalType": "address",
							"name": "",
							"type": "address"
						}
					],
					"stateMutability": "view",
					"type": "function"
				},
				{
					"inputs": [],
					"name": "Parameters",
					"outputs": [
						{
							"internalType": "contract IParametersManager",
							"name": "",
							"type": "address"
						}
					],
					"stateMutability": "view",
					"type": "function"
				},
				{
					"inputs": [
						{
							"internalType": "address",
							"name": "_master",
							"type": "address"
						}
					],
					"name": "RemoveMaster",
					"outputs": [],
					"stateMutability": "nonpayable",
					"type": "function"
				},
				{
					"inputs": [
						{
							"internalType": "address",
							"name": "",
							"type": "address"
						}
					],
					"name": "SubToMasterMap",
					"outputs": [
						{
							"internalType": "address",
							"name": "",
							"type": "address"
						}
					],
					"stateMutability": "view",
					"type": "function"
				},
				{
					"inputs": [
						{
							"internalType": "address",
							"name": "",
							"type": "address"
						},
						{
							"internalType": "address",
							"name": "",
							"type": "address"
						}
					],
					"name": "WorkerClaimingMaster",
					"outputs": [
						{
							"internalType": "bool",
							"name": "",
							"type": "bool"
						}
					],
					"stateMutability": "view",
					"type": "function"
				},
				{
					"inputs": [
						{
							"internalType": "address",
							"name": "_worker",
							"type": "address"
						}
					],
					"name": "getMaster",
					"outputs": [
						{
							"internalType": "address",
							"name": "",
							"type": "address"
						}
					],
					"stateMutability": "view",
					"type": "function"
				},
				{
					"inputs": [
						{
							"internalType": "address",
							"name": "_master",
							"type": "address"
						}
					],
					"name": "getMasterSubs",
					"outputs": [
						{
							"internalType": "address[]",
							"name": "",
							"type": "address[]"
						}
					],
					"stateMutability": "view",
					"type": "function"
				},
				{
					"inputs": [
						{
							"internalType": "address",
							"name": "_master",
							"type": "address"
						},
						{
							"internalType": "address",
							"name": "_address",
							"type": "address"
						}
					],
					"name": "isMasterOf",
					"outputs": [
						{
							"internalType": "bool",
							"name": "",
							"type": "bool"
						}
					],
					"stateMutability": "view",
					"type": "function"
				},
				{
					"inputs": [
						{
							"internalType": "address",
							"name": "_master",
							"type": "address"
						}
					],
					"name": "isMasterOfMe",
					"outputs": [
						{
							"internalType": "bool",
							"name": "",
							"type": "bool"
						}
					],
					"stateMutability": "view",
					"type": "function"
				},
				{
					"inputs": [
						{
							"internalType": "address",
							"name": "_worker",
							"type": "address"
						},
						{
							"internalType": "address",
							"name": "_master",
							"type": "address"
						}
					],
					"name": "isSubInMasterArray",
					"outputs": [
						{
							"internalType": "bool",
							"name": "",
							"type": "bool"
						}
					],
					"stateMutability": "view",
					"type": "function"
				},
				{
					"inputs": [
						{
							"internalType": "address",
							"name": "_master",
							"type": "address"
						},
						{
							"internalType": "address",
							"name": "_address",
							"type": "address"
						}
					],
					"name": "isSubWorkerOf",
					"outputs": [
						{
							"internalType": "bool",
							"name": "",
							"type": "bool"
						}
					],
					"stateMutability": "view",
					"type": "function"
				},
				{
					"inputs": [
						{
							"internalType": "address",
							"name": "_worker",
							"type": "address"
						}
					],
					"name": "isSubWorkerOfMe",
					"outputs": [
						{
							"internalType": "bool",
							"name": "",
							"type": "bool"
						}
					],
					"stateMutability": "view",
					"type": "function"
				},
				{
					"inputs": [],
					"name": "owner",
					"outputs": [
						{
							"internalType": "address",
							"name": "",
							"type": "address"
						}
					],
					"stateMutability": "view",
					"type": "function"
				},
				{
					"inputs": [],
					"name": "renounceOwnership",
					"outputs": [],
					"stateMutability": "nonpayable",
					"type": "function"
				},
				{
					"inputs": [
						{
							"internalType": "address",
							"name": "newOwner",
							"type": "address"
						}
					],
					"name": "transferOwnership",
					"outputs": [],
					"stateMutability": "nonpayable",
					"type": "function"
				},
				{
					"inputs": [
						{
							"internalType": "address",
							"name": "addr",
							"type": "address"
						}
					],
					"name": "updateParametersManager",
					"outputs": [],
					"stateMutability": "nonpayable",
					"type": "function"
				}
			],
			"devdoc": {
				"kind": "dev",
				"methods": {
					"owner()": {
						"details": "Returns the address of the current owner."
					},
					"renounceOwnership()": {
						"details": "Leaves the contract without owner. It will not be possible to call `onlyOwner` functions anymore. Can only be called by the current owner. NOTE: Renouncing ownership will leave the contract without an owner, thereby removing any functionality that is only available to the owner."
					},
					"transferOwnership(address)": {
						"details": "Transfers ownership of the contract to a new account (`newOwner`). Can only be called by the current owner."
					}
				},
				"version": 1
			},
			"evm": {
				"assembly": "    /* \"worksystems/AddressManager.sol\":1734:11274  contract AddressManager is Ownable{\r... */\n  mstore(0x40, 0x80)\n    /* \"worksystems/AddressManager.sol\":2363:2364  5 */\n  0x05\n    /* \"worksystems/AddressManager.sol\":2334:2364  uint256 MAX_MASTER_LOOKUP  = 5 */\n  dup1\n  sstore\n    /* \"worksystems/AddressManager.sol\":1734:11274  contract AddressManager is Ownable{\r... */\n  callvalue\n  dup1\n  iszero\n  tag_1\n  jumpi\n  0x00\n  dup1\n  revert\ntag_1:\n  pop\n    /* \"@openzeppelin/contracts/access/Ownable.sol\":936:968  _transferOwnership(_msgSender()) */\n  tag_4\n    /* \"@openzeppelin/contracts/access/Ownable.sol\":955:967  _msgSender() */\n  tag_5\n    /* \"@openzeppelin/contracts/access/Ownable.sol\":955:965  _msgSender */\n  tag_6\n    /* \"@openzeppelin/contracts/access/Ownable.sol\":955:967  _msgSender() */\n  jump\t// in\ntag_5:\n    /* \"@openzeppelin/contracts/access/Ownable.sol\":936:954  _transferOwnership */\n  tag_7\n    /* \"@openzeppelin/contracts/access/Ownable.sol\":936:968  _transferOwnership(_msgSender()) */\n  jump\t// in\ntag_4:\n    /* \"worksystems/AddressManager.sol\":1734:11274  contract AddressManager is Ownable{\r... */\n  jump(tag_8)\n    /* \"@openzeppelin/contracts/utils/Context.sol\":640:736  function _msgSender() internal view virtual returns (address) {... */\ntag_6:\n    /* \"@openzeppelin/contracts/utils/Context.sol\":719:729  msg.sender */\n  caller\n    /* \"@openzeppelin/contracts/utils/Context.sol\":640:736  function _msgSender() internal view virtual returns (address) {... */\n  swap1\n  jump\t// out\n    /* \"@openzeppelin/contracts/access/Ownable.sol\":2433:2620  function _transferOwnership(address newOwner) internal virtual {... */\ntag_7:\n    /* \"@openzeppelin/contracts/access/Ownable.sol\":2506:2522  address oldOwner */\n  0x00\n    /* \"@openzeppelin/contracts/access/Ownable.sol\":2525:2531  _owner */\n  dup1\n  sload\n  sub(shl(0xa0, 0x01), 0x01)\n    /* \"@openzeppelin/contracts/access/Ownable.sol\":2541:2558  _owner = newOwner */\n  dup4\n  dup2\n  and\n  not(sub(shl(0xa0, 0x01), 0x01))\n  dup4\n  and\n  dup2\n  or\n  dup5\n  sstore\n    /* \"@openzeppelin/contracts/access/Ownable.sol\":2573:2613  OwnershipTransferred(oldOwner, newOwner) */\n  mload(0x40)\n    /* \"@openzeppelin/contracts/access/Ownable.sol\":2525:2531  _owner */\n  swap2\n  swap1\n  swap3\n  and\n  swap3\n  dup4\n  swap2\n    /* \"@openzeppelin/contracts/access/Ownable.sol\":2573:2613  OwnershipTransferred(oldOwner, newOwner) */\n  0x8be0079c531659141344cd1fd0a4f28419497f9722a3daafe3b4186f6b6457e0\n  swap2\n    /* \"@openzeppelin/contracts/access/Ownable.sol\":2506:2522  address oldOwner */\n  swap1\n    /* \"@openzeppelin/contracts/access/Ownable.sol\":2573:2613  OwnershipTransferred(oldOwner, newOwner) */\n  log3\n    /* \"@openzeppelin/contracts/access/Ownable.sol\":2433:2620  function _transferOwnership(address newOwner) internal virtual {... */\n  pop\n  pop\n  jump\t// out\n    /* \"worksystems/AddressManager.sol\":1734:11274  contract AddressManager is Ownable{\r... */\ntag_8:\n  dataSize(sub_0)\n  dup1\n  dataOffset(sub_0)\n  0x00\n  codecopy\n  0x00\n  return\nstop\n\nsub_0: assembly {\n        /* \"worksystems/AddressManager.sol\":1734:11274  contract AddressManager is Ownable{\r... */\n      mstore(0x40, 0x80)\n      callvalue\n      dup1\n      iszero\n      tag_1\n      jumpi\n      0x00\n      dup1\n      revert\n    tag_1:\n      pop\n      jumpi(tag_2, lt(calldatasize, 0x04))\n      shr(0xe0, calldataload(0x00))\n      dup1\n      0x8213b8d8\n      gt\n      tag_27\n      jumpi\n      dup1\n      0xdf77a0f6\n      gt\n      tag_28\n      jumpi\n      dup1\n      0xdf77a0f6\n      eq\n      tag_21\n      jumpi\n      dup1\n      0xe4f1d0fd\n      eq\n      tag_22\n      jumpi\n      dup1\n      0xf25e9ed2\n      eq\n      tag_23\n      jumpi\n      dup1\n      0xf2fde38b\n      eq\n      tag_24\n      jumpi\n      dup1\n      0xf77c8658\n      eq\n      tag_25\n      jumpi\n      dup1\n      0xff43de9d\n      eq\n      tag_26\n      jumpi\n      jump(tag_2)\n    tag_28:\n      dup1\n      0x8213b8d8\n      eq\n      tag_15\n      jumpi\n      dup1\n      0x8da5cb5b\n      eq\n      tag_16\n      jumpi\n      dup1\n      0x96daff56\n      eq\n      tag_17\n      jumpi\n      dup1\n      0x9f62c379\n      eq\n      tag_18\n      jumpi\n      dup1\n      0xac8d65cb\n      eq\n      tag_17\n      jumpi\n      dup1\n      0xdb519824\n      eq\n      tag_20\n      jumpi\n      jump(tag_2)\n    tag_27:\n      dup1\n      0x2e3ce457\n      gt\n      tag_29\n      jumpi\n      dup1\n      0x2e3ce457\n      eq\n      tag_9\n      jumpi\n      dup1\n      0x342bffbf\n      eq\n      tag_10\n      jumpi\n      dup1\n      0x39c3f6e7\n      eq\n      tag_11\n      jumpi\n      dup1\n      0x4826d043\n      eq\n      tag_12\n      jumpi\n      dup1\n      0x584720f5\n      eq\n      tag_13\n      jumpi\n      dup1\n      0x715018a6\n      eq\n      tag_14\n      jumpi\n      jump(tag_2)\n    tag_29:\n      dup1\n      0x05957623\n      eq\n      tag_3\n      jumpi\n      dup1\n      0x0c06e4df\n      eq\n      tag_4\n      jumpi\n      dup1\n      0x11815086\n      eq\n      tag_5\n      jumpi\n      dup1\n      0x12ccb147\n      eq\n      tag_6\n      jumpi\n      dup1\n      0x1778f9c8\n      eq\n      tag_7\n      jumpi\n      dup1\n      0x198ff3dc\n      eq\n      tag_8\n      jumpi\n    tag_2:\n      0x00\n      dup1\n      revert\n        /* \"worksystems/AddressManager.sol\":3085:3259  function updateParametersManager(address addr)\r... */\n    tag_3:\n      tag_30\n      tag_31\n      calldatasize\n      0x04\n      tag_32\n      jump\t// in\n    tag_31:\n      tag_33\n      jump\t// in\n    tag_30:\n      stop\n        /* \"worksystems/AddressManager.sol\":3935:4106  function isSubWorkerOfMe(address _worker)\r... */\n    tag_4:\n      tag_34\n      tag_35\n      calldatasize\n      0x04\n      tag_32\n      jump\t// in\n    tag_35:\n      tag_36\n      jump\t// in\n    tag_34:\n      mload(0x40)\n      tag_37\n      swap2\n      swap1\n      tag_38\n      jump\t// in\n    tag_37:\n      mload(0x40)\n      dup1\n      swap2\n      sub\n      swap1\n      return\n        /* \"worksystems/AddressManager.sol\":7698:8257  function FetchHighestMaster(address _worker) public view returns (address){\r... */\n    tag_5:\n      tag_39\n      tag_40\n      calldatasize\n      0x04\n      tag_32\n      jump\t// in\n    tag_40:\n      tag_41\n      jump\t// in\n    tag_39:\n      mload(0x40)\n      tag_37\n      swap2\n      swap1\n      tag_43\n      jump\t// in\n        /* \"worksystems/AddressManager.sol\":5962:6204  function MasterClaimSub(address _address)\r... */\n    tag_6:\n      tag_30\n      tag_45\n      calldatasize\n      0x04\n      tag_32\n      jump\t// in\n    tag_45:\n      tag_46\n      jump\t// in\n        /* \"worksystems/AddressManager.sol\":1898:1973  mapping (address =>  mapping (address => bool)) public WorkerClaimingMaster */\n    tag_7:\n      tag_34\n      tag_48\n      calldatasize\n      0x04\n      tag_49\n      jump\t// in\n    tag_48:\n      tag_50\n      jump\t// in\n        /* \"worksystems/AddressManager.sol\":3703:3867  function getMasterSubs(address _master)\r... */\n    tag_8:\n      tag_52\n      tag_53\n      calldatasize\n      0x04\n      tag_32\n      jump\t// in\n    tag_53:\n      tag_54\n      jump\t// in\n    tag_52:\n      mload(0x40)\n      tag_37\n      swap2\n      swap1\n      tag_56\n      jump\t// in\n        /* \"worksystems/AddressManager.sol\":2016:2070  mapping (address =>  address[]) public MasterToSubsMap */\n    tag_9:\n      tag_39\n      tag_58\n      calldatasize\n      0x04\n      tag_59\n      jump\t// in\n    tag_58:\n      tag_60\n      jump\t// in\n        /* \"worksystems/AddressManager.sol\":1781:1856  mapping (address =>  mapping (address => bool)) public MasterClaimingWorker */\n    tag_10:\n      tag_34\n      tag_63\n      calldatasize\n      0x04\n      tag_49\n      jump\t// in\n    tag_63:\n      tag_64\n      jump\t// in\n        /* \"worksystems/AddressManager.sol\":6212:6665  function MasterClaimManySubs(address[] memory _addresses)\r... */\n    tag_11:\n      tag_30\n      tag_67\n      calldatasize\n      0x04\n      tag_68\n      jump\t// in\n    tag_67:\n      tag_69\n      jump\t// in\n        /* \"worksystems/AddressManager.sol\":6701:7084  function MasterRemoveSub(address _address)\r... */\n    tag_12:\n      tag_30\n      tag_71\n      calldatasize\n      0x04\n      tag_32\n      jump\t// in\n    tag_71:\n      tag_72\n      jump\t// in\n        /* \"worksystems/AddressManager.sol\":10859:11263  function RemoveMaster(address _master)\r... */\n    tag_13:\n      tag_30\n      tag_74\n      calldatasize\n      0x04\n      tag_32\n      jump\t// in\n    tag_74:\n      tag_75\n      jump\t// in\n        /* \"@openzeppelin/contracts/access/Ownable.sol\":1831:1932  function renounceOwnership() public virtual onlyOwner {... */\n    tag_14:\n      tag_30\n      tag_77\n      jump\t// in\n        /* \"worksystems/AddressManager.sol\":7092:7546  function MasterRemoveManySubs(address[] memory _addresses)\r... */\n    tag_15:\n      tag_30\n      tag_79\n      calldatasize\n      0x04\n      tag_68\n      jump\t// in\n    tag_79:\n      tag_80\n      jump\t// in\n        /* \"@openzeppelin/contracts/access/Ownable.sol\":1201:1286  function owner() public view virtual returns (address) {... */\n    tag_16:\n      tag_39\n      tag_82\n      jump\t// in\n        /* \"worksystems/AddressManager.sol\":3511:3693  function isMasterOf(address _master, address _address)\r... */\n    tag_17:\n      tag_34\n      tag_85\n      calldatasize\n      0x04\n      tag_49\n      jump\t// in\n    tag_85:\n      tag_86\n      jump\t// in\n        /* \"worksystems/AddressManager.sol\":5566:5784  function AreMasterSubLinked(address _master, address _address)\r... */\n    tag_18:\n      tag_34\n      tag_89\n      calldatasize\n      0x04\n      tag_49\n      jump\t// in\n    tag_89:\n      tag_90\n      jump\t// in\n        /* \"worksystems/AddressManager.sol\":3333:3501  function isMasterOfMe(address _master)\r... */\n    tag_20:\n      tag_34\n      tag_97\n      calldatasize\n      0x04\n      tag_32\n      jump\t// in\n    tag_97:\n      tag_98\n      jump\t// in\n        /* \"worksystems/AddressManager.sol\":10495:10851  function ClaimMaster(address _master)\r... */\n    tag_21:\n      tag_30\n      tag_101\n      calldatasize\n      0x04\n      tag_32\n      jump\t// in\n    tag_101:\n      tag_102\n      jump\t// in\n        /* \"worksystems/AddressManager.sol\":2128:2179  mapping (address =>  address) public SubToMasterMap */\n    tag_22:\n      tag_39\n      tag_104\n      calldatasize\n      0x04\n      tag_32\n      jump\t// in\n    tag_104:\n      tag_105\n      jump\t// in\n        /* \"worksystems/AddressManager.sol\":4713:4863  function getMaster(address _worker)\r... */\n    tag_23:\n      tag_39\n      tag_108\n      calldatasize\n      0x04\n      tag_32\n      jump\t// in\n    tag_108:\n      tag_109\n      jump\t// in\n        /* \"@openzeppelin/contracts/access/Ownable.sol\":2081:2279  function transferOwnership(address newOwner) public virtual onlyOwner {... */\n    tag_24:\n      tag_30\n      tag_112\n      calldatasize\n      0x04\n      tag_32\n      jump\t// in\n    tag_112:\n      tag_113\n      jump\t// in\n        /* \"worksystems/AddressManager.sol\":4307:4705  function isSubInMasterArray(address _worker, address _master) public view returns(bool){\r... */\n    tag_25:\n      tag_34\n      tag_115\n      calldatasize\n      0x04\n      tag_49\n      jump\t// in\n    tag_115:\n      tag_116\n      jump\t// in\n        /* \"worksystems/AddressManager.sol\":2373:2409  IParametersManager public Parameters */\n    tag_26:\n      tag_39\n      tag_119\n      jump\t// in\n        /* \"worksystems/AddressManager.sol\":3085:3259  function updateParametersManager(address addr)\r... */\n    tag_33:\n        /* \"@openzeppelin/contracts/access/Ownable.sol\":1094:1107  _checkOwner() */\n      tag_123\n        /* \"@openzeppelin/contracts/access/Ownable.sol\":1094:1105  _checkOwner */\n      tag_124\n        /* \"@openzeppelin/contracts/access/Ownable.sol\":1094:1107  _checkOwner() */\n      jump\t// in\n    tag_123:\n      sub(shl(0xa0, 0x01), 0x01)\n        /* \"worksystems/AddressManager.sol\":3183:3201  addr != address(0) */\n      dup2\n      and\n        /* \"worksystems/AddressManager.sol\":3175:3202  require(addr != address(0)) */\n      tag_126\n      jumpi\n      0x00\n      dup1\n      revert\n    tag_126:\n        /* \"worksystems/AddressManager.sol\":3213:3223  Parameters */\n      0x06\n        /* \"worksystems/AddressManager.sol\":3213:3251  Parameters  = IParametersManager(addr) */\n      dup1\n      sload\n      not(sub(shl(0xa0, 0x01), 0x01))\n      and\n      sub(shl(0xa0, 0x01), 0x01)\n      swap3\n      swap1\n      swap3\n      and\n      swap2\n      swap1\n      swap2\n      or\n      swap1\n      sstore\n        /* \"worksystems/AddressManager.sol\":3085:3259  function updateParametersManager(address addr)\r... */\n      jump\t// out\n        /* \"worksystems/AddressManager.sol\":3935:4106  function isSubWorkerOfMe(address _worker)\r... */\n    tag_36:\n        /* \"worksystems/AddressManager.sol\":4078:4088  msg.sender */\n      caller\n        /* \"worksystems/AddressManager.sol\":4025:4029  bool */\n      0x00\n        /* \"worksystems/AddressManager.sol\":4057:4089  MasterClaimingWorker[msg.sender] */\n      swap1\n      dup2\n      mstore\n        /* \"worksystems/AddressManager.sol\":4057:4077  MasterClaimingWorker */\n      0x01\n        /* \"worksystems/AddressManager.sol\":4057:4089  MasterClaimingWorker[msg.sender] */\n      0x20\n      swap1\n      dup2\n      mstore\n      0x40\n      dup1\n      dup4\n      keccak256\n      sub(shl(0xa0, 0x01), 0x01)\n        /* \"worksystems/AddressManager.sol\":4057:4098  MasterClaimingWorker[msg.sender][_worker] */\n      dup6\n      and\n      dup5\n      mstore\n      swap1\n      swap2\n      mstore\n      swap1\n      keccak256\n      sload\n      0xff\n      and\n        /* \"worksystems/AddressManager.sol\":3935:4106  function isSubWorkerOfMe(address _worker)\r... */\n    tag_127:\n      swap2\n      swap1\n      pop\n      jump\t// out\n        /* \"worksystems/AddressManager.sol\":7698:8257  function FetchHighestMaster(address _worker) public view returns (address){\r... */\n    tag_41:\n        /* \"worksystems/AddressManager.sol\":7764:7771  address */\n      0x00\n      sub(shl(0xa0, 0x01), 0x01)\n        /* \"worksystems/AddressManager.sol\":7791:7812  _worker != address(0) */\n      dup3\n      and\n        /* \"worksystems/AddressManager.sol\":7783:7879  require(_worker != address(0), \"FetchHighestMaster: input _worker needs to be non null address\") */\n      tag_129\n      jumpi\n      mload(0x40)\n      shl(0xe5, 0x461bcd)\n      dup2\n      mstore\n      0x04\n      add\n      tag_130\n      swap1\n      tag_131\n      jump\t// in\n    tag_130:\n      mload(0x40)\n      dup1\n      swap2\n      sub\n      swap1\n      revert\n    tag_129:\n      sub(shl(0xa0, 0x01), 0x01)\n        /* \"worksystems/AddressManager.sol\":7908:7931  SubToMasterMap[_worker] */\n      dup1\n      dup4\n      and\n        /* \"worksystems/AddressManager.sol\":7890:7905  address _master */\n      0x00\n        /* \"worksystems/AddressManager.sol\":7908:7931  SubToMasterMap[_worker] */\n      swap1\n      dup2\n      mstore\n        /* \"worksystems/AddressManager.sol\":7908:7922  SubToMasterMap */\n      0x04\n        /* \"worksystems/AddressManager.sol\":7908:7931  SubToMasterMap[_worker] */\n      0x20\n      mstore\n      0x40\n      swap1\n      keccak256\n      sload\n        /* \"worksystems/AddressManager.sol\":8007:8024  MAX_MASTER_LOOKUP */\n      sload(0x05)\n        /* \"worksystems/AddressManager.sol\":7908:7931  SubToMasterMap[_worker] */\n      swap2\n      and\n      swap1\n        /* \"worksystems/AddressManager.sol\":7923:7930  _worker */\n      dup4\n      swap1\n        /* \"worksystems/AddressManager.sol\":8037:8215  while(_master != address(0) && (iterations > 0)){\r... */\n    tag_132:\n      sub(shl(0xa0, 0x01), 0x01)\n        /* \"worksystems/AddressManager.sol\":8043:8064  _master != address(0) */\n      dup4\n      and\n      iszero\n      dup1\n      iszero\n      swap1\n        /* \"worksystems/AddressManager.sol\":8043:8084  _master != address(0) && (iterations > 0) */\n      tag_134\n      jumpi\n      pop\n        /* \"worksystems/AddressManager.sol\":8082:8083  0 */\n      0x00\n        /* \"worksystems/AddressManager.sol\":8069:8079  iterations */\n      dup2\n        /* \"worksystems/AddressManager.sol\":8069:8083  iterations > 0 */\n      gt\n        /* \"worksystems/AddressManager.sol\":8043:8084  _master != address(0) && (iterations > 0) */\n    tag_134:\n        /* \"worksystems/AddressManager.sol\":8037:8215  while(_master != address(0) && (iterations > 0)){\r... */\n      iszero\n      tag_133\n      jumpi\n      sub(shl(0xa0, 0x01), 0x01)\n        /* \"worksystems/AddressManager.sol\":8150:8173  SubToMasterMap[_master] */\n      dup1\n      dup5\n      and\n      0x00\n      swap1\n      dup2\n      mstore\n        /* \"worksystems/AddressManager.sol\":8150:8164  SubToMasterMap */\n      0x04\n        /* \"worksystems/AddressManager.sol\":8150:8173  SubToMasterMap[_master] */\n      0x20\n      mstore\n      0x40\n      swap1\n      keccak256\n      sload\n      and\n      swap3\n        /* \"worksystems/AddressManager.sol\":8118:8125  _master */\n      swap2\n      pop\n        /* \"worksystems/AddressManager.sol\":8188:8203  iterations -= 1 */\n      tag_135\n        /* \"worksystems/AddressManager.sol\":8150:8173  SubToMasterMap[_master] */\n      0x01\n        /* \"worksystems/AddressManager.sol\":8188:8203  iterations -= 1 */\n      dup3\n      tag_136\n      jump\t// in\n    tag_135:\n      swap1\n      pop\n        /* \"worksystems/AddressManager.sol\":8037:8215  while(_master != address(0) && (iterations > 0)){\r... */\n      jump(tag_132)\n    tag_133:\n      pop\n        /* \"worksystems/AddressManager.sol\":8233:8248  _highest_master */\n      swap4\n        /* \"worksystems/AddressManager.sol\":7698:8257  function FetchHighestMaster(address _worker) public view returns (address){\r... */\n      swap3\n      pop\n      pop\n      pop\n      jump\t// out\n        /* \"worksystems/AddressManager.sol\":5962:6204  function MasterClaimSub(address _address)\r... */\n    tag_46:\n        /* \"worksystems/AddressManager.sol\":6057:6067  msg.sender */\n      caller\n        /* \"worksystems/AddressManager.sol\":6036:6068  MasterClaimingWorker[msg.sender] */\n      0x00\n      dup2\n      dup2\n      mstore\n        /* \"worksystems/AddressManager.sol\":6081:6085  true */\n      0x01\n        /* \"worksystems/AddressManager.sol\":6036:6068  MasterClaimingWorker[msg.sender] */\n      0x20\n      dup2\n      dup2\n      mstore\n      0x40\n      dup1\n      dup5\n      keccak256\n      sub(shl(0xa0, 0x01), 0x01)\n        /* \"worksystems/AddressManager.sol\":6036:6078  MasterClaimingWorker[msg.sender][_address] */\n      dup8\n      and\n      dup1\n      dup7\n      mstore\n      swap1\n      dup4\n      mstore\n      dup2\n      dup6\n      keccak256\n        /* \"worksystems/AddressManager.sol\":6036:6085  MasterClaimingWorker[msg.sender][_address] = true */\n      dup1\n      sload\n      not(0xff)\n      and\n      dup6\n      or\n      swap1\n      sstore\n        /* \"worksystems/AddressManager.sol\":6096:6123  MasterToSubsMap[msg.sender] */\n      dup6\n      dup6\n      mstore\n        /* \"worksystems/AddressManager.sol\":6096:6111  MasterToSubsMap */\n      0x03\n        /* \"worksystems/AddressManager.sol\":6096:6123  MasterToSubsMap[msg.sender] */\n      dup4\n      mstore\n      dup2\n      dup6\n      keccak256\n        /* \"worksystems/AddressManager.sol\":6096:6138  MasterToSubsMap[msg.sender].push(_address) */\n      dup1\n      sload\n      swap5\n      dup6\n      add\n      dup2\n      sstore\n      dup6\n      mstore\n      swap2\n      swap1\n      swap4\n      keccak256\n      swap1\n      swap2\n      add\n      dup1\n      sload\n      not(sub(shl(0xa0, 0x01), 0x01))\n      and\n      swap1\n      swap2\n      or\n      swap1\n      sstore\n        /* \"worksystems/AddressManager.sol\":6154:6196  AddressAddedByMaster(msg.sender, _address) */\n      mload\n      0x8902b85532bfc55a9f5b6e6a9576366640928b3be984b3a61167a210ca2bbc57\n      swap1\n      tag_139\n      swap1\n        /* \"worksystems/AddressManager.sol\":6069:6077  _address */\n      dup5\n      swap1\n        /* \"worksystems/AddressManager.sol\":6154:6196  AddressAddedByMaster(msg.sender, _address) */\n      tag_43\n      jump\t// in\n    tag_139:\n      mload(0x40)\n      dup1\n      swap2\n      sub\n      swap1\n      log2\n        /* \"worksystems/AddressManager.sol\":5962:6204  function MasterClaimSub(address _address)\r... */\n      pop\n      jump\t// out\n        /* \"worksystems/AddressManager.sol\":1898:1973  mapping (address =>  mapping (address => bool)) public WorkerClaimingMaster */\n    tag_50:\n      0x02\n      0x20\n      swap1\n      dup2\n      mstore\n      0x00\n      swap3\n      dup4\n      mstore\n      0x40\n      dup1\n      dup5\n      keccak256\n      swap1\n      swap2\n      mstore\n      swap1\n      dup3\n      mstore\n      swap1\n      keccak256\n      sload\n      0xff\n      and\n      dup2\n      jump\t// out\n        /* \"worksystems/AddressManager.sol\":3703:3867  function getMasterSubs(address _master)\r... */\n    tag_54:\n      sub(shl(0xa0, 0x01), 0x01)\n        /* \"worksystems/AddressManager.sol\":3835:3859  MasterToSubsMap[_master] */\n      dup2\n      and\n      0x00\n      swap1\n      dup2\n      mstore\n        /* \"worksystems/AddressManager.sol\":3835:3850  MasterToSubsMap */\n      0x03\n        /* \"worksystems/AddressManager.sol\":3835:3859  MasterToSubsMap[_master] */\n      0x20\n      swap1\n      dup2\n      mstore\n      0x40\n      swap2\n      dup3\n      swap1\n      keccak256\n        /* \"worksystems/AddressManager.sol\":3828:3859  return MasterToSubsMap[_master] */\n      dup1\n      sload\n      dup4\n      mload\n      dup2\n      dup5\n      mul\n      dup2\n      add\n      dup5\n      add\n      swap1\n      swap5\n      mstore\n      dup1\n      dup5\n      mstore\n        /* \"worksystems/AddressManager.sol\":3791:3807  address[] memory */\n      0x60\n      swap4\n        /* \"worksystems/AddressManager.sol\":3828:3859  return MasterToSubsMap[_master] */\n      swap3\n      dup4\n      add\n        /* \"worksystems/AddressManager.sol\":3835:3859  MasterToSubsMap[_master] */\n      dup3\n        /* \"worksystems/AddressManager.sol\":3828:3859  return MasterToSubsMap[_master] */\n      dup3\n      dup1\n      iszero\n      tag_141\n      jumpi\n      0x20\n      mul\n      dup3\n      add\n      swap2\n      swap1\n      0x00\n      mstore\n      keccak256(0x00, 0x20)\n      swap1\n    tag_142:\n      dup2\n      sload\n      sub(shl(0xa0, 0x01), 0x01)\n      and\n      dup2\n      mstore\n      0x01\n      swap1\n      swap2\n      add\n      swap1\n      0x20\n      add\n      dup1\n      dup4\n      gt\n      tag_142\n      jumpi\n    tag_141:\n      pop\n      pop\n      pop\n      pop\n      pop\n      swap1\n      pop\n        /* \"worksystems/AddressManager.sol\":3703:3867  function getMasterSubs(address _master)\r... */\n      swap2\n      swap1\n      pop\n      jump\t// out\n        /* \"worksystems/AddressManager.sol\":2016:2070  mapping (address =>  address[]) public MasterToSubsMap */\n    tag_60:\n      mstore(0x20, 0x03)\n      dup2\n      0x00\n      mstore\n      keccak256(0x00, 0x40)\n      dup2\n      dup2\n      sload\n      dup2\n      lt\n      tag_143\n      jumpi\n      0x00\n      dup1\n      revert\n    tag_143:\n      0x00\n      swap2\n      dup3\n      mstore\n      0x20\n      swap1\n      swap2\n      keccak256\n      add\n      sload\n      sub(shl(0xa0, 0x01), 0x01)\n      and\n      swap2\n      pop\n      dup3\n      swap1\n      pop\n      jump\t// out\n        /* \"worksystems/AddressManager.sol\":1781:1856  mapping (address =>  mapping (address => bool)) public MasterClaimingWorker */\n    tag_64:\n      0x01\n      0x20\n      swap1\n      dup2\n      mstore\n      0x00\n      swap3\n      dup4\n      mstore\n      0x40\n      dup1\n      dup5\n      keccak256\n      swap1\n      swap2\n      mstore\n      swap1\n      dup3\n      mstore\n      swap1\n      keccak256\n      sload\n      0xff\n      and\n      dup2\n      jump\t// out\n        /* \"worksystems/AddressManager.sol\":6212:6665  function MasterClaimManySubs(address[] memory _addresses)\r... */\n    tag_69:\n        /* \"worksystems/AddressManager.sol\":6309:6315  uint i */\n      0x00\n        /* \"worksystems/AddressManager.sol\":6305:6658  for(uint i = 0; i< _addresses.length; i++){\r... */\n    tag_146:\n        /* \"worksystems/AddressManager.sol\":6324:6334  _addresses */\n      dup2\n        /* \"worksystems/AddressManager.sol\":6324:6341  _addresses.length */\n      mload\n        /* \"worksystems/AddressManager.sol\":6321:6322  i */\n      dup2\n        /* \"worksystems/AddressManager.sol\":6321:6341  i< _addresses.length */\n      lt\n        /* \"worksystems/AddressManager.sol\":6305:6658  for(uint i = 0; i< _addresses.length; i++){\r... */\n      iszero\n      tag_147\n      jumpi\n        /* \"worksystems/AddressManager.sol\":6386:6396  msg.sender */\n      caller\n        /* \"worksystems/AddressManager.sol\":6365:6397  MasterClaimingWorker[msg.sender] */\n      0x00\n      swap1\n      dup2\n      mstore\n        /* \"worksystems/AddressManager.sol\":6365:6385  MasterClaimingWorker */\n      0x01\n        /* \"worksystems/AddressManager.sol\":6365:6397  MasterClaimingWorker[msg.sender] */\n      0x20\n      mstore\n      0x40\n      dup2\n      keccak256\n        /* \"worksystems/AddressManager.sol\":6398:6411  _addresses[i] */\n      dup4\n      mload\n        /* \"worksystems/AddressManager.sol\":6365:6397  MasterClaimingWorker[msg.sender] */\n      swap1\n      swap2\n      swap1\n        /* \"worksystems/AddressManager.sol\":6398:6408  _addresses */\n      dup5\n      swap1\n        /* \"worksystems/AddressManager.sol\":6409:6410  i */\n      dup5\n      swap1\n        /* \"worksystems/AddressManager.sol\":6398:6411  _addresses[i] */\n      dup2\n      lt\n      tag_149\n      jumpi\n      mstore(0x00, shl(0xe0, 0x4e487b71))\n      mstore(0x04, 0x32)\n      revert(0x00, 0x24)\n    tag_149:\n      0x20\n      swap1\n      dup2\n      mul\n      swap2\n      swap1\n      swap2\n      add\n      dup2\n      add\n      mload\n      sub(shl(0xa0, 0x01), 0x01)\n        /* \"worksystems/AddressManager.sol\":6365:6412  MasterClaimingWorker[msg.sender][_addresses[i]] */\n      and\n      dup3\n      mstore\n      dup2\n      add\n      swap2\n      swap1\n      swap2\n      mstore\n      0x40\n      add\n      0x00\n      keccak256\n      sload\n      0xff\n      and\n        /* \"worksystems/AddressManager.sol\":6365:6420  MasterClaimingWorker[msg.sender][_addresses[i]] != true */\n      iszero\n      iszero\n        /* \"worksystems/AddressManager.sol\":6365:6412  MasterClaimingWorker[msg.sender][_addresses[i]] */\n      0x01\n        /* \"worksystems/AddressManager.sol\":6365:6420  MasterClaimingWorker[msg.sender][_addresses[i]] != true */\n      eq\n        /* \"worksystems/AddressManager.sol\":6362:6647  if(MasterClaimingWorker[msg.sender][_addresses[i]] != true){\r... */\n      tag_150\n      jumpi\n        /* \"worksystems/AddressManager.sol\":6461:6471  msg.sender */\n      caller\n        /* \"worksystems/AddressManager.sol\":6440:6472  MasterClaimingWorker[msg.sender] */\n      0x00\n      swap1\n      dup2\n      mstore\n        /* \"worksystems/AddressManager.sol\":6490:6494  true */\n      0x01\n        /* \"worksystems/AddressManager.sol\":6440:6472  MasterClaimingWorker[msg.sender] */\n      0x20\n      dup2\n      swap1\n      mstore\n      0x40\n      dup3\n      keccak256\n        /* \"worksystems/AddressManager.sol\":6473:6486  _addresses[i] */\n      dup5\n      mload\n        /* \"worksystems/AddressManager.sol\":6490:6494  true */\n      swap2\n      swap3\n        /* \"worksystems/AddressManager.sol\":6440:6472  MasterClaimingWorker[msg.sender] */\n      swap1\n      swap2\n        /* \"worksystems/AddressManager.sol\":6473:6483  _addresses */\n      dup6\n      swap1\n        /* \"worksystems/AddressManager.sol\":6484:6485  i */\n      dup6\n      swap1\n        /* \"worksystems/AddressManager.sol\":6473:6486  _addresses[i] */\n      dup2\n      lt\n      tag_151\n      jumpi\n      mstore(0x00, shl(0xe0, 0x4e487b71))\n      mstore(0x04, 0x32)\n      revert(0x00, 0x24)\n    tag_151:\n      0x20\n      swap1\n      dup2\n      mul\n      swap2\n      swap1\n      swap2\n      add\n      dup2\n      add\n      mload\n      sub(shl(0xa0, 0x01), 0x01)\n        /* \"worksystems/AddressManager.sol\":6440:6487  MasterClaimingWorker[msg.sender][_addresses[i]] */\n      and\n      dup3\n      mstore\n      dup2\n      dup2\n      add\n      swap3\n      swap1\n      swap3\n      mstore\n      0x40\n      swap1\n      dup2\n      add\n      0x00\n      swap1\n      dup2\n      keccak256\n        /* \"worksystems/AddressManager.sol\":6440:6494  MasterClaimingWorker[msg.sender][_addresses[i]] = true */\n      dup1\n      sload\n      not(0xff)\n      and\n      swap5\n      iszero\n      iszero\n      swap5\n      swap1\n      swap5\n      or\n      swap1\n      swap4\n      sstore\n        /* \"worksystems/AddressManager.sol\":6529:6539  msg.sender */\n      caller\n        /* \"worksystems/AddressManager.sol\":6513:6540  MasterToSubsMap[msg.sender] */\n      dup4\n      mstore\n        /* \"worksystems/AddressManager.sol\":6513:6528  MasterToSubsMap */\n      0x03\n        /* \"worksystems/AddressManager.sol\":6513:6540  MasterToSubsMap[msg.sender] */\n      swap1\n      swap2\n      mstore\n      swap1\n      keccak256\n        /* \"worksystems/AddressManager.sol\":6546:6559  _addresses[i] */\n      dup3\n      mload\n      dup4\n      swap1\n        /* \"worksystems/AddressManager.sol\":6557:6558  i */\n      dup4\n      swap1\n        /* \"worksystems/AddressManager.sol\":6546:6559  _addresses[i] */\n      dup2\n      lt\n      tag_152\n      jumpi\n      mstore(0x00, shl(0xe0, 0x4e487b71))\n      mstore(0x04, 0x32)\n      revert(0x00, 0x24)\n    tag_152:\n      0x20\n      swap1\n      dup2\n      mul\n      swap2\n      swap1\n      swap2\n      add\n      dup2\n      add\n      mload\n        /* \"worksystems/AddressManager.sol\":6513:6560  MasterToSubsMap[msg.sender].push(_addresses[i]) */\n      dup3\n      sload\n      0x01\n      dup2\n      add\n      dup5\n      sstore\n      0x00\n      swap4\n      dup5\n      mstore\n      swap2\n      swap1\n      swap3\n      keccak256\n      add\n      dup1\n      sload\n      not(sub(shl(0xa0, 0x01), 0x01))\n      and\n      sub(shl(0xa0, 0x01), 0x01)\n      swap1\n      swap3\n      and\n      swap2\n      swap1\n      swap2\n      or\n      swap1\n      sstore\n        /* \"worksystems/AddressManager.sol\":6617:6630  _addresses[i] */\n      dup2\n      mload\n        /* \"worksystems/AddressManager.sol\":6605:6615  msg.sender */\n      caller\n      swap1\n        /* \"worksystems/AddressManager.sol\":6584:6631  AddressAddedByMaster(msg.sender, _addresses[i]) */\n      0x8902b85532bfc55a9f5b6e6a9576366640928b3be984b3a61167a210ca2bbc57\n      swap1\n        /* \"worksystems/AddressManager.sol\":6617:6630  _addresses[i] */\n      dup5\n      swap1\n        /* \"worksystems/AddressManager.sol\":6628:6629  i */\n      dup5\n      swap1\n        /* \"worksystems/AddressManager.sol\":6617:6630  _addresses[i] */\n      dup2\n      lt\n      tag_154\n      jumpi\n      mstore(0x00, shl(0xe0, 0x4e487b71))\n      mstore(0x04, 0x32)\n      revert(0x00, 0x24)\n    tag_154:\n      0x20\n      mul\n      0x20\n      add\n      add\n      mload\n        /* \"worksystems/AddressManager.sol\":6584:6631  AddressAddedByMaster(msg.sender, _addresses[i]) */\n      mload(0x40)\n      tag_155\n      swap2\n      swap1\n      tag_43\n      jump\t// in\n    tag_155:\n      mload(0x40)\n      dup1\n      swap2\n      sub\n      swap1\n      log2\n        /* \"worksystems/AddressManager.sol\":6362:6647  if(MasterClaimingWorker[msg.sender][_addresses[i]] != true){\r... */\n    tag_150:\n        /* \"worksystems/AddressManager.sol\":6343:6346  i++ */\n      dup1\n      tag_156\n      dup2\n      tag_157\n      jump\t// in\n    tag_156:\n      swap2\n      pop\n      pop\n        /* \"worksystems/AddressManager.sol\":6305:6658  for(uint i = 0; i< _addresses.length; i++){\r... */\n      jump(tag_146)\n    tag_147:\n      pop\n        /* \"worksystems/AddressManager.sol\":6212:6665  function MasterClaimManySubs(address[] memory _addresses)\r... */\n      pop\n      jump\t// out\n        /* \"worksystems/AddressManager.sol\":6701:7084  function MasterRemoveSub(address _address)\r... */\n    tag_72:\n        /* \"worksystems/AddressManager.sol\":6813:6823  msg.sender */\n      caller\n        /* \"worksystems/AddressManager.sol\":6792:6824  MasterClaimingWorker[msg.sender] */\n      0x00\n      swap1\n      dup2\n      mstore\n        /* \"worksystems/AddressManager.sol\":6792:6812  MasterClaimingWorker */\n      0x01\n        /* \"worksystems/AddressManager.sol\":6792:6824  MasterClaimingWorker[msg.sender] */\n      0x20\n      swap1\n      dup2\n      mstore\n      0x40\n      dup1\n      dup4\n      keccak256\n      sub(shl(0xa0, 0x01), 0x01)\n        /* \"worksystems/AddressManager.sol\":6792:6834  MasterClaimingWorker[msg.sender][_address] */\n      dup6\n      and\n      dup5\n      mstore\n      swap1\n      swap2\n      mstore\n      swap1\n      keccak256\n      sload\n      0xff\n      and\n        /* \"worksystems/AddressManager.sol\":6784:6898  require(MasterClaimingWorker[msg.sender][_address] != false, \"Can't remove: Master not claiming this Sub Address\") */\n      tag_159\n      jumpi\n      mload(0x40)\n      shl(0xe5, 0x461bcd)\n      dup2\n      mstore\n      0x04\n      add\n      tag_130\n      swap1\n      tag_161\n      jump\t// in\n    tag_159:\n        /* \"worksystems/AddressManager.sol\":6930:6940  msg.sender */\n      caller\n        /* \"worksystems/AddressManager.sol\":6954:6959  false */\n      0x00\n        /* \"worksystems/AddressManager.sol\":6909:6941  MasterClaimingWorker[msg.sender] */\n      dup2\n      dup2\n      mstore\n        /* \"worksystems/AddressManager.sol\":6909:6929  MasterClaimingWorker */\n      0x01\n        /* \"worksystems/AddressManager.sol\":6909:6941  MasterClaimingWorker[msg.sender] */\n      0x20\n      swap1\n      dup2\n      mstore\n      0x40\n      dup1\n      dup4\n      keccak256\n      sub(shl(0xa0, 0x01), 0x01)\n        /* \"worksystems/AddressManager.sol\":6909:6951  MasterClaimingWorker[msg.sender][_address] */\n      dup7\n      and\n      dup5\n      mstore\n      swap1\n      swap2\n      mstore\n      swap1\n      keccak256\n        /* \"worksystems/AddressManager.sol\":6909:6959  MasterClaimingWorker[msg.sender][_address] = false */\n      dup1\n      sload\n      not(0xff)\n      and\n      swap1\n      sstore\n        /* \"worksystems/AddressManager.sol\":6970:7008  PopFromSubsArray(msg.sender, _address) */\n      tag_162\n      swap1\n        /* \"worksystems/AddressManager.sol\":6942:6950  _address */\n      dup3\n        /* \"worksystems/AddressManager.sol\":6970:6986  PopFromSubsArray */\n      tag_163\n        /* \"worksystems/AddressManager.sol\":6970:7008  PopFromSubsArray(msg.sender, _address) */\n      jump\t// in\n    tag_162:\n        /* \"worksystems/AddressManager.sol\":7047:7057  msg.sender */\n      caller\n      sub(shl(0xa0, 0x01), 0x01)\n        /* \"worksystems/AddressManager.sol\":7024:7068  AddressRemovedByMaster(msg.sender, _address) */\n      and\n      0x7a24ac72e272dd8c83b793ae84448c72032b95723856486219c79dd722fe4292\n        /* \"worksystems/AddressManager.sol\":7059:7067  _address */\n      dup3\n        /* \"worksystems/AddressManager.sol\":7024:7068  AddressRemovedByMaster(msg.sender, _address) */\n      mload(0x40)\n      tag_139\n      swap2\n      swap1\n      tag_43\n      jump\t// in\n        /* \"worksystems/AddressManager.sol\":10859:11263  function RemoveMaster(address _master)\r... */\n    tag_75:\n      sub(shl(0xa0, 0x01), 0x01)\n        /* \"worksystems/AddressManager.sol\":10946:10975  WorkerClaimingMaster[_master] */\n      dup2\n      and\n      0x00\n      swap1\n      dup2\n      mstore\n        /* \"worksystems/AddressManager.sol\":10946:10966  WorkerClaimingMaster */\n      0x02\n        /* \"worksystems/AddressManager.sol\":10946:10975  WorkerClaimingMaster[_master] */\n      0x20\n      swap1\n      dup2\n      mstore\n      0x40\n      dup1\n      dup4\n      keccak256\n        /* \"worksystems/AddressManager.sol\":10976:10986  msg.sender */\n      caller\n        /* \"worksystems/AddressManager.sol\":10946:10987  WorkerClaimingMaster[_master][msg.sender] */\n      dup5\n      mstore\n      swap1\n      swap2\n      mstore\n      swap1\n      keccak256\n      sload\n      0xff\n      and\n        /* \"worksystems/AddressManager.sol\":10938:11047  require(WorkerClaimingMaster[_master][msg.sender] != false, \"Can't remove Master: not claiming this address\") */\n      tag_166\n      jumpi\n      mload(0x40)\n      shl(0xe5, 0x461bcd)\n      dup2\n      mstore\n      0x04\n      add\n      tag_130\n      swap1\n      tag_168\n      jump\t// in\n    tag_166:\n      sub(shl(0xa0, 0x01), 0x01)\n        /* \"worksystems/AddressManager.sol\":11058:11087  WorkerClaimingMaster[_master] */\n      dup2\n      and\n        /* \"worksystems/AddressManager.sol\":11102:11107  false */\n      0x00\n        /* \"worksystems/AddressManager.sol\":11058:11087  WorkerClaimingMaster[_master] */\n      swap1\n      dup2\n      mstore\n        /* \"worksystems/AddressManager.sol\":11058:11078  WorkerClaimingMaster */\n      0x02\n        /* \"worksystems/AddressManager.sol\":11058:11087  WorkerClaimingMaster[_master] */\n      0x20\n      swap1\n      dup2\n      mstore\n      0x40\n      dup1\n      dup4\n      keccak256\n        /* \"worksystems/AddressManager.sol\":11088:11098  msg.sender */\n      caller\n        /* \"worksystems/AddressManager.sol\":11058:11099  WorkerClaimingMaster[_master][msg.sender] */\n      dup1\n      dup6\n      mstore\n      swap1\n      dup4\n      mstore\n      dup2\n      dup5\n      keccak256\n        /* \"worksystems/AddressManager.sol\":11058:11107  WorkerClaimingMaster[_master][msg.sender] = false */\n      dup1\n      sload\n      not(0xff)\n      and\n      swap1\n      sstore\n        /* \"worksystems/AddressManager.sol\":11118:11132  SubToMasterMap */\n      0x04\n        /* \"worksystems/AddressManager.sol\":11118:11144  SubToMasterMap[msg.sender] */\n      swap1\n      swap3\n      mstore\n      swap2\n      dup3\n      swap1\n      keccak256\n        /* \"worksystems/AddressManager.sol\":11118:11157  SubToMasterMap[msg.sender] = address(0) */\n      dup1\n      sload\n      not(sub(shl(0xa0, 0x01), 0x01))\n      and\n      swap1\n      sstore\n        /* \"worksystems/AddressManager.sol\":11204:11247  AddressRemovedByWorker(msg.sender, _master) */\n      swap1\n      mload\n      0x0d7169440daf0897d7f4486a35eef15a070460981ff18ab846aa2199f171118e\n      swap1\n      tag_139\n      swap1\n        /* \"worksystems/AddressManager.sol\":11079:11086  _master */\n      dup5\n      swap1\n        /* \"worksystems/AddressManager.sol\":11204:11247  AddressRemovedByWorker(msg.sender, _master) */\n      tag_43\n      jump\t// in\n        /* \"@openzeppelin/contracts/access/Ownable.sol\":1831:1932  function renounceOwnership() public virtual onlyOwner {... */\n    tag_77:\n        /* \"@openzeppelin/contracts/access/Ownable.sol\":1094:1107  _checkOwner() */\n      tag_171\n        /* \"@openzeppelin/contracts/access/Ownable.sol\":1094:1105  _checkOwner */\n      tag_124\n        /* \"@openzeppelin/contracts/access/Ownable.sol\":1094:1107  _checkOwner() */\n      jump\t// in\n    tag_171:\n        /* \"@openzeppelin/contracts/access/Ownable.sol\":1895:1925  _transferOwnership(address(0)) */\n      tag_173\n        /* \"@openzeppelin/contracts/access/Ownable.sol\":1922:1923  0 */\n      0x00\n        /* \"@openzeppelin/contracts/access/Ownable.sol\":1895:1913  _transferOwnership */\n      tag_174\n        /* \"@openzeppelin/contracts/access/Ownable.sol\":1895:1925  _transferOwnership(address(0)) */\n      jump\t// in\n    tag_173:\n        /* \"@openzeppelin/contracts/access/Ownable.sol\":1831:1932  function renounceOwnership() public virtual onlyOwner {... */\n      jump\t// out\n        /* \"worksystems/AddressManager.sol\":7092:7546  function MasterRemoveManySubs(address[] memory _addresses)\r... */\n    tag_80:\n        /* \"worksystems/AddressManager.sol\":7190:7196  uint i */\n      0x00\n        /* \"worksystems/AddressManager.sol\":7186:7539  for(uint i = 0; i< _addresses.length; i++){\r... */\n    tag_176:\n        /* \"worksystems/AddressManager.sol\":7205:7215  _addresses */\n      dup2\n        /* \"worksystems/AddressManager.sol\":7205:7222  _addresses.length */\n      mload\n        /* \"worksystems/AddressManager.sol\":7202:7203  i */\n      dup2\n        /* \"worksystems/AddressManager.sol\":7202:7222  i< _addresses.length */\n      lt\n        /* \"worksystems/AddressManager.sol\":7186:7539  for(uint i = 0; i< _addresses.length; i++){\r... */\n      iszero\n      tag_147\n      jumpi\n        /* \"worksystems/AddressManager.sol\":7267:7277  msg.sender */\n      caller\n        /* \"worksystems/AddressManager.sol\":7246:7278  MasterClaimingWorker[msg.sender] */\n      0x00\n      swap1\n      dup2\n      mstore\n        /* \"worksystems/AddressManager.sol\":7246:7266  MasterClaimingWorker */\n      0x01\n        /* \"worksystems/AddressManager.sol\":7246:7278  MasterClaimingWorker[msg.sender] */\n      0x20\n      mstore\n      0x40\n      dup2\n      keccak256\n        /* \"worksystems/AddressManager.sol\":7279:7292  _addresses[i] */\n      dup4\n      mload\n        /* \"worksystems/AddressManager.sol\":7246:7278  MasterClaimingWorker[msg.sender] */\n      swap1\n      swap2\n      swap1\n        /* \"worksystems/AddressManager.sol\":7279:7289  _addresses */\n      dup5\n      swap1\n        /* \"worksystems/AddressManager.sol\":7290:7291  i */\n      dup5\n      swap1\n        /* \"worksystems/AddressManager.sol\":7279:7292  _addresses[i] */\n      dup2\n      lt\n      tag_179\n      jumpi\n      mstore(0x00, shl(0xe0, 0x4e487b71))\n      mstore(0x04, 0x32)\n      revert(0x00, 0x24)\n    tag_179:\n      0x20\n      swap1\n      dup2\n      mul\n      swap2\n      swap1\n      swap2\n      add\n      dup2\n      add\n      mload\n      sub(shl(0xa0, 0x01), 0x01)\n        /* \"worksystems/AddressManager.sol\":7246:7293  MasterClaimingWorker[msg.sender][_addresses[i]] */\n      and\n      dup3\n      mstore\n      dup2\n      add\n      swap2\n      swap1\n      swap2\n      mstore\n      0x40\n      add\n      0x00\n      keccak256\n      sload\n      0xff\n      and\n        /* \"worksystems/AddressManager.sol\":7246:7302  MasterClaimingWorker[msg.sender][_addresses[i]] != false */\n      iszero\n        /* \"worksystems/AddressManager.sol\":7243:7528  if(MasterClaimingWorker[msg.sender][_addresses[i]] != false){\r... */\n      tag_180\n      jumpi\n        /* \"worksystems/AddressManager.sol\":7343:7353  msg.sender */\n      caller\n        /* \"worksystems/AddressManager.sol\":7372:7377  false */\n      0x00\n        /* \"worksystems/AddressManager.sol\":7322:7354  MasterClaimingWorker[msg.sender] */\n      swap1\n      dup2\n      mstore\n        /* \"worksystems/AddressManager.sol\":7322:7342  MasterClaimingWorker */\n      0x01\n        /* \"worksystems/AddressManager.sol\":7322:7354  MasterClaimingWorker[msg.sender] */\n      0x20\n      mstore\n      0x40\n      dup2\n      keccak256\n        /* \"worksystems/AddressManager.sol\":7355:7368  _addresses[i] */\n      dup4\n      mload\n        /* \"worksystems/AddressManager.sol\":7372:7377  false */\n      dup3\n      swap1\n        /* \"worksystems/AddressManager.sol\":7355:7365  _addresses */\n      dup6\n      swap1\n        /* \"worksystems/AddressManager.sol\":7366:7367  i */\n      dup6\n      swap1\n        /* \"worksystems/AddressManager.sol\":7355:7368  _addresses[i] */\n      dup2\n      lt\n      tag_181\n      jumpi\n      mstore(0x00, shl(0xe0, 0x4e487b71))\n      mstore(0x04, 0x32)\n      revert(0x00, 0x24)\n    tag_181:\n      0x20\n      mul\n      0x20\n      add\n      add\n      mload\n      sub(shl(0xa0, 0x01), 0x01)\n        /* \"worksystems/AddressManager.sol\":7322:7369  MasterClaimingWorker[msg.sender][_addresses[i]] */\n      and\n      sub(shl(0xa0, 0x01), 0x01)\n      and\n      dup2\n      mstore\n      0x20\n      add\n      swap1\n      dup2\n      mstore\n      0x20\n      add\n      0x00\n      keccak256\n      0x00\n        /* \"worksystems/AddressManager.sol\":7322:7377  MasterClaimingWorker[msg.sender][_addresses[i]] = false */\n      0x0100\n      exp\n      dup2\n      sload\n      dup2\n      0xff\n      mul\n      not\n      and\n      swap1\n      dup4\n      iszero\n      iszero\n      mul\n      or\n      swap1\n      sstore\n      pop\n        /* \"worksystems/AddressManager.sol\":7396:7439  PopFromSubsArray(msg.sender, _addresses[i]) */\n      tag_182\n        /* \"worksystems/AddressManager.sol\":7413:7423  msg.sender */\n      caller\n        /* \"worksystems/AddressManager.sol\":7425:7435  _addresses */\n      dup4\n        /* \"worksystems/AddressManager.sol\":7436:7437  i */\n      dup4\n        /* \"worksystems/AddressManager.sol\":7425:7438  _addresses[i] */\n      dup2\n      mload\n      dup2\n      lt\n      tag_183\n      jumpi\n      mstore(0x00, shl(0xe0, 0x4e487b71))\n      mstore(0x04, 0x32)\n      revert(0x00, 0x24)\n    tag_183:\n      0x20\n      mul\n      0x20\n      add\n      add\n      mload\n        /* \"worksystems/AddressManager.sol\":7396:7412  PopFromSubsArray */\n      tag_163\n        /* \"worksystems/AddressManager.sol\":7396:7439  PopFromSubsArray(msg.sender, _addresses[i]) */\n      jump\t// in\n    tag_182:\n        /* \"worksystems/AddressManager.sol\":7486:7496  msg.sender */\n      caller\n      sub(shl(0xa0, 0x01), 0x01)\n        /* \"worksystems/AddressManager.sol\":7463:7512  AddressRemovedByMaster(msg.sender, _addresses[i]) */\n      and\n      0x7a24ac72e272dd8c83b793ae84448c72032b95723856486219c79dd722fe4292\n        /* \"worksystems/AddressManager.sol\":7498:7508  _addresses */\n      dup4\n        /* \"worksystems/AddressManager.sol\":7509:7510  i */\n      dup4\n        /* \"worksystems/AddressManager.sol\":7498:7511  _addresses[i] */\n      dup2\n      mload\n      dup2\n      lt\n      tag_184\n      jumpi\n      mstore(0x00, shl(0xe0, 0x4e487b71))\n      mstore(0x04, 0x32)\n      revert(0x00, 0x24)\n    tag_184:\n      0x20\n      mul\n      0x20\n      add\n      add\n      mload\n        /* \"worksystems/AddressManager.sol\":7463:7512  AddressRemovedByMaster(msg.sender, _addresses[i]) */\n      mload(0x40)\n      tag_185\n      swap2\n      swap1\n      tag_43\n      jump\t// in\n    tag_185:\n      mload(0x40)\n      dup1\n      swap2\n      sub\n      swap1\n      log2\n        /* \"worksystems/AddressManager.sol\":7243:7528  if(MasterClaimingWorker[msg.sender][_addresses[i]] != false){\r... */\n    tag_180:\n        /* \"worksystems/AddressManager.sol\":7224:7227  i++ */\n      dup1\n      tag_186\n      dup2\n      tag_157\n      jump\t// in\n    tag_186:\n      swap2\n      pop\n      pop\n        /* \"worksystems/AddressManager.sol\":7186:7539  for(uint i = 0; i< _addresses.length; i++){\r... */\n      jump(tag_176)\n        /* \"@openzeppelin/contracts/access/Ownable.sol\":1201:1286  function owner() public view virtual returns (address) {... */\n    tag_82:\n        /* \"@openzeppelin/contracts/access/Ownable.sol\":1247:1254  address */\n      0x00\n        /* \"@openzeppelin/contracts/access/Ownable.sol\":1273:1279  _owner */\n      sload\n      sub(shl(0xa0, 0x01), 0x01)\n      and\n        /* \"@openzeppelin/contracts/access/Ownable.sol\":1201:1286  function owner() public view virtual returns (address) {... */\n      swap1\n      jump\t// out\n        /* \"worksystems/AddressManager.sol\":3511:3693  function isMasterOf(address _master, address _address)\r... */\n    tag_86:\n      sub(shl(0xa0, 0x01), 0x01)\n        /* \"worksystems/AddressManager.sol\":3646:3675  MasterClaimingWorker[_master] */\n      swap2\n      dup3\n      and\n        /* \"worksystems/AddressManager.sol\":3614:3618  bool */\n      0x00\n        /* \"worksystems/AddressManager.sol\":3646:3675  MasterClaimingWorker[_master] */\n      swap1\n      dup2\n      mstore\n        /* \"worksystems/AddressManager.sol\":3646:3666  MasterClaimingWorker */\n      0x01\n        /* \"worksystems/AddressManager.sol\":3646:3675  MasterClaimingWorker[_master] */\n      0x20\n      swap1\n      dup2\n      mstore\n      0x40\n      dup1\n      dup4\n      keccak256\n        /* \"worksystems/AddressManager.sol\":3646:3685  MasterClaimingWorker[_master][_address] */\n      swap4\n      swap1\n      swap5\n      and\n      dup3\n      mstore\n      swap2\n      swap1\n      swap2\n      mstore\n      keccak256\n      sload\n      0xff\n      and\n      swap1\n        /* \"worksystems/AddressManager.sol\":3511:3693  function isMasterOf(address _master, address _address)\r... */\n      jump\t// out\n        /* \"worksystems/AddressManager.sol\":5566:5784  function AreMasterSubLinked(address _master, address _address)\r... */\n    tag_90:\n        /* \"worksystems/AddressManager.sol\":5677:5681  bool */\n      0x00\n        /* \"worksystems/AddressManager.sol\":5710:5742  isSubWorkerOf(_master, _address) */\n      tag_190\n        /* \"worksystems/AddressManager.sol\":5724:5731  _master */\n      dup4\n        /* \"worksystems/AddressManager.sol\":5733:5741  _address */\n      dup4\n        /* \"worksystems/AddressManager.sol\":5710:5723  isSubWorkerOf */\n      tag_86\n        /* \"worksystems/AddressManager.sol\":5710:5742  isSubWorkerOf(_master, _address) */\n      jump\t// in\n    tag_190:\n        /* \"worksystems/AddressManager.sol\":5710:5775  isSubWorkerOf(_master, _address) && isMasterOf(_master, _address) */\n      dup1\n      iszero\n      tag_192\n      jumpi\n      pop\n        /* \"worksystems/AddressManager.sol\":5746:5775  isMasterOf(_master, _address) */\n      tag_192\n        /* \"worksystems/AddressManager.sol\":5757:5764  _master */\n      dup4\n        /* \"worksystems/AddressManager.sol\":5766:5774  _address */\n      dup4\n        /* \"worksystems/AddressManager.sol\":5746:5756  isMasterOf */\n      tag_86\n        /* \"worksystems/AddressManager.sol\":5746:5775  isMasterOf(_master, _address) */\n      jump\t// in\n    tag_192:\n        /* \"worksystems/AddressManager.sol\":5702:5776  return (isSubWorkerOf(_master, _address) && isMasterOf(_master, _address)) */\n      swap4\n        /* \"worksystems/AddressManager.sol\":5566:5784  function AreMasterSubLinked(address _master, address _address)\r... */\n      swap3\n      pop\n      pop\n      pop\n      jump\t// out\n        /* \"worksystems/AddressManager.sol\":3333:3501  function isMasterOfMe(address _master)\r... */\n    tag_98:\n      sub(shl(0xa0, 0x01), 0x01)\n        /* \"worksystems/AddressManager.sol\":3452:3481  MasterClaimingWorker[_master] */\n      and\n        /* \"worksystems/AddressManager.sol\":3420:3424  bool */\n      0x00\n        /* \"worksystems/AddressManager.sol\":3452:3481  MasterClaimingWorker[_master] */\n      swap1\n      dup2\n      mstore\n        /* \"worksystems/AddressManager.sol\":3452:3472  MasterClaimingWorker */\n      0x01\n        /* \"worksystems/AddressManager.sol\":3452:3481  MasterClaimingWorker[_master] */\n      0x20\n      swap1\n      dup2\n      mstore\n      0x40\n      dup1\n      dup4\n      keccak256\n        /* \"worksystems/AddressManager.sol\":3482:3492  msg.sender */\n      caller\n        /* \"worksystems/AddressManager.sol\":3452:3493  MasterClaimingWorker[_master][msg.sender] */\n      dup5\n      mstore\n      swap1\n      swap2\n      mstore\n      swap1\n      keccak256\n      sload\n      0xff\n      and\n      swap1\n        /* \"worksystems/AddressManager.sol\":3333:3501  function isMasterOfMe(address _master)\r... */\n      jump\t// out\n        /* \"worksystems/AddressManager.sol\":10495:10851  function ClaimMaster(address _master)\r... */\n    tag_102:\n      sub(shl(0xa0, 0x01), 0x01)\n        /* \"worksystems/AddressManager.sol\":10565:10594  WorkerClaimingMaster[_master] */\n      dup2\n      and\n      0x00\n      dup2\n      dup2\n      mstore\n        /* \"worksystems/AddressManager.sol\":10565:10585  WorkerClaimingMaster */\n      0x02\n        /* \"worksystems/AddressManager.sol\":10565:10594  WorkerClaimingMaster[_master] */\n      0x20\n      swap1\n      dup2\n      mstore\n      0x40\n      dup1\n      dup4\n      keccak256\n        /* \"worksystems/AddressManager.sol\":10595:10605  msg.sender */\n      caller\n        /* \"worksystems/AddressManager.sol\":10565:10606  WorkerClaimingMaster[_master][msg.sender] */\n      dup1\n      dup6\n      mstore\n      swap1\n      dup4\n      mstore\n      dup2\n      dup5\n      keccak256\n        /* \"worksystems/AddressManager.sol\":10565:10613  WorkerClaimingMaster[_master][msg.sender] = true */\n      dup1\n      sload\n      not(0xff)\n      and\n        /* \"worksystems/AddressManager.sol\":10609:10613  true */\n      0x01\n        /* \"worksystems/AddressManager.sol\":10565:10613  WorkerClaimingMaster[_master][msg.sender] = true */\n      or\n      swap1\n      sstore\n        /* \"worksystems/AddressManager.sol\":10624:10638  SubToMasterMap */\n      0x04\n        /* \"worksystems/AddressManager.sol\":10624:10650  SubToMasterMap[msg.sender] */\n      swap1\n      swap3\n      mstore\n      swap1\n      swap2\n      keccak256\n        /* \"worksystems/AddressManager.sol\":10624:10660  SubToMasterMap[msg.sender] = _master */\n      dup1\n      sload\n      not(sub(shl(0xa0, 0x01), 0x01))\n      and\n      swap1\n      swap3\n      or\n      swap1\n      swap2\n      sstore\n        /* \"worksystems/AddressManager.sol\":10709:10740  TransferRepToMaster(msg.sender) */\n      tag_196\n      swap1\n        /* \"worksystems/AddressManager.sol\":10709:10728  TransferRepToMaster */\n      tag_197\n        /* \"worksystems/AddressManager.sol\":10709:10740  TransferRepToMaster(msg.sender) */\n      jump\t// in\n    tag_196:\n        /* \"worksystems/AddressManager.sol\":10751:10786  TransferRewardsToMaster(msg.sender) */\n      tag_198\n        /* \"worksystems/AddressManager.sol\":10775:10785  msg.sender */\n      caller\n        /* \"worksystems/AddressManager.sol\":10751:10774  TransferRewardsToMaster */\n      tag_199\n        /* \"worksystems/AddressManager.sol\":10751:10786  TransferRewardsToMaster(msg.sender) */\n      jump\t// in\n    tag_198:\n        /* \"worksystems/AddressManager.sol\":10823:10833  msg.sender */\n      caller\n      sub(shl(0xa0, 0x01), 0x01)\n        /* \"worksystems/AddressManager.sol\":10802:10843  AddressAddedByWorker(msg.sender, _master) */\n      and\n      0x85851bdf5239daecee00c49afa200b87f208a1cc246f3c3da177796c9f605d73\n        /* \"worksystems/AddressManager.sol\":10835:10842  _master */\n      dup3\n        /* \"worksystems/AddressManager.sol\":10802:10843  AddressAddedByWorker(msg.sender, _master) */\n      mload(0x40)\n      tag_139\n      swap2\n      swap1\n      tag_43\n      jump\t// in\n        /* \"worksystems/AddressManager.sol\":2128:2179  mapping (address =>  address) public SubToMasterMap */\n    tag_105:\n      mstore(0x20, 0x04)\n      0x00\n      swap1\n      dup2\n      mstore\n      0x40\n      swap1\n      keccak256\n      sload\n      sub(shl(0xa0, 0x01), 0x01)\n      and\n      dup2\n      jump\t// out\n        /* \"worksystems/AddressManager.sol\":4713:4863  function getMaster(address _worker)\r... */\n    tag_109:\n      sub(shl(0xa0, 0x01), 0x01)\n        /* \"worksystems/AddressManager.sol\":4832:4855  SubToMasterMap[_worker] */\n      swap1\n      dup2\n      and\n        /* \"worksystems/AddressManager.sol\":4797:4804  address */\n      0x00\n        /* \"worksystems/AddressManager.sol\":4832:4855  SubToMasterMap[_worker] */\n      swap1\n      dup2\n      mstore\n        /* \"worksystems/AddressManager.sol\":4832:4846  SubToMasterMap */\n      0x04\n        /* \"worksystems/AddressManager.sol\":4832:4855  SubToMasterMap[_worker] */\n      0x20\n      mstore\n      0x40\n      swap1\n      keccak256\n      sload\n      and\n      swap1\n        /* \"worksystems/AddressManager.sol\":4713:4863  function getMaster(address _worker)\r... */\n      jump\t// out\n        /* \"@openzeppelin/contracts/access/Ownable.sol\":2081:2279  function transferOwnership(address newOwner) public virtual onlyOwner {... */\n    tag_113:\n        /* \"@openzeppelin/contracts/access/Ownable.sol\":1094:1107  _checkOwner() */\n      tag_203\n        /* \"@openzeppelin/contracts/access/Ownable.sol\":1094:1105  _checkOwner */\n      tag_124\n        /* \"@openzeppelin/contracts/access/Ownable.sol\":1094:1107  _checkOwner() */\n      jump\t// in\n    tag_203:\n      sub(shl(0xa0, 0x01), 0x01)\n        /* \"@openzeppelin/contracts/access/Ownable.sol\":2169:2191  newOwner != address(0) */\n      dup2\n      and\n        /* \"@openzeppelin/contracts/access/Ownable.sol\":2161:2234  require(newOwner != address(0), \"Ownable: new owner is the zero address\") */\n      tag_205\n      jumpi\n      mload(0x40)\n      shl(0xe5, 0x461bcd)\n      dup2\n      mstore\n      0x04\n      add\n      tag_130\n      swap1\n      tag_207\n      jump\t// in\n    tag_205:\n        /* \"@openzeppelin/contracts/access/Ownable.sol\":2244:2272  _transferOwnership(newOwner) */\n      tag_208\n        /* \"@openzeppelin/contracts/access/Ownable.sol\":2263:2271  newOwner */\n      dup2\n        /* \"@openzeppelin/contracts/access/Ownable.sol\":2244:2262  _transferOwnership */\n      tag_174\n        /* \"@openzeppelin/contracts/access/Ownable.sol\":2244:2272  _transferOwnership(newOwner) */\n      jump\t// in\n    tag_208:\n        /* \"@openzeppelin/contracts/access/Ownable.sol\":2081:2279  function transferOwnership(address newOwner) public virtual onlyOwner {... */\n      pop\n      jump\t// out\n        /* \"worksystems/AddressManager.sol\":4307:4705  function isSubInMasterArray(address _worker, address _master) public view returns(bool){\r... */\n    tag_116:\n      sub(shl(0xa0, 0x01), 0x01)\n        /* \"worksystems/AddressManager.sol\":4466:4490  MasterToSubsMap[_master] */\n      dup2\n      and\n        /* \"worksystems/AddressManager.sol\":4389:4393  bool */\n      0x00\n        /* \"worksystems/AddressManager.sol\":4466:4490  MasterToSubsMap[_master] */\n      swap1\n      dup2\n      mstore\n        /* \"worksystems/AddressManager.sol\":4466:4481  MasterToSubsMap */\n      0x03\n        /* \"worksystems/AddressManager.sol\":4466:4490  MasterToSubsMap[_master] */\n      0x20\n      swap1\n      dup2\n      mstore\n      0x40\n      dup1\n      dup4\n      keccak256\n        /* \"worksystems/AddressManager.sol\":4434:4490  address[] memory sub_workers_ = MasterToSubsMap[_master] */\n      dup1\n      sload\n      dup3\n      mload\n      dup2\n      dup6\n      mul\n      dup2\n      add\n      dup6\n      add\n      swap1\n      swap4\n      mstore\n      dup1\n      dup4\n      mstore\n        /* \"worksystems/AddressManager.sol\":4389:4393  bool */\n      dup5\n      swap4\n      dup5\n      swap4\n        /* \"worksystems/AddressManager.sol\":4434:4490  address[] memory sub_workers_ = MasterToSubsMap[_master] */\n      swap3\n        /* \"worksystems/AddressManager.sol\":4466:4490  MasterToSubsMap[_master] */\n      swap2\n        /* \"worksystems/AddressManager.sol\":4434:4490  address[] memory sub_workers_ = MasterToSubsMap[_master] */\n      swap1\n      dup4\n      add\n        /* \"worksystems/AddressManager.sol\":4466:4490  MasterToSubsMap[_master] */\n      dup3\n        /* \"worksystems/AddressManager.sol\":4434:4490  address[] memory sub_workers_ = MasterToSubsMap[_master] */\n      dup3\n      dup1\n      iszero\n      tag_210\n      jumpi\n      0x20\n      mul\n      dup3\n      add\n      swap2\n      swap1\n      0x00\n      mstore\n      keccak256(0x00, 0x20)\n      swap1\n    tag_211:\n      dup2\n      sload\n      sub(shl(0xa0, 0x01), 0x01)\n      and\n      dup2\n      mstore\n      0x01\n      swap1\n      swap2\n      add\n      swap1\n      0x20\n      add\n      dup1\n      dup4\n      gt\n      tag_211\n      jumpi\n    tag_210:\n      pop\n      pop\n      pop\n      pop\n      pop\n      swap1\n      pop\n        /* \"worksystems/AddressManager.sol\":4505:4514  uint256 i */\n      0x00\n        /* \"worksystems/AddressManager.sol\":4501:4675  for(uint256 i = 0; i< sub_workers_.length; i++){\r... */\n    tag_212:\n        /* \"worksystems/AddressManager.sol\":4523:4535  sub_workers_ */\n      dup2\n        /* \"worksystems/AddressManager.sol\":4523:4542  sub_workers_.length */\n      mload\n        /* \"worksystems/AddressManager.sol\":4520:4521  i */\n      dup2\n        /* \"worksystems/AddressManager.sol\":4520:4542  i< sub_workers_.length */\n      lt\n        /* \"worksystems/AddressManager.sol\":4501:4675  for(uint256 i = 0; i< sub_workers_.length; i++){\r... */\n      iszero\n      tag_213\n      jumpi\n        /* \"worksystems/AddressManager.sol\":4585:4592  _worker */\n      dup6\n      sub(shl(0xa0, 0x01), 0x01)\n        /* \"worksystems/AddressManager.sol\":4566:4592  sub_workers_[i] == _worker */\n      and\n        /* \"worksystems/AddressManager.sol\":4566:4578  sub_workers_ */\n      dup3\n        /* \"worksystems/AddressManager.sol\":4579:4580  i */\n      dup3\n        /* \"worksystems/AddressManager.sol\":4566:4581  sub_workers_[i] */\n      dup2\n      mload\n      dup2\n      lt\n      tag_215\n      jumpi\n      mstore(0x00, shl(0xe0, 0x4e487b71))\n      mstore(0x04, 0x32)\n      revert(0x00, 0x24)\n    tag_215:\n      0x20\n      mul\n      0x20\n      add\n      add\n      mload\n      sub(shl(0xa0, 0x01), 0x01)\n        /* \"worksystems/AddressManager.sol\":4566:4592  sub_workers_[i] == _worker */\n      and\n      eq\n        /* \"worksystems/AddressManager.sol\":4563:4664  if(sub_workers_[i] == _worker){\r... */\n      iszero\n      tag_216\n      jumpi\n        /* \"worksystems/AddressManager.sol\":4620:4624  true */\n      0x01\n        /* \"worksystems/AddressManager.sol\":4612:4624  found = true */\n      swap3\n      pop\n        /* \"worksystems/AddressManager.sol\":4643:4648  break */\n      jump(tag_213)\n        /* \"worksystems/AddressManager.sol\":4563:4664  if(sub_workers_[i] == _worker){\r... */\n    tag_216:\n        /* \"worksystems/AddressManager.sol\":4544:4547  i++ */\n      dup1\n      tag_217\n      dup2\n      tag_157\n      jump\t// in\n    tag_217:\n      swap2\n      pop\n      pop\n        /* \"worksystems/AddressManager.sol\":4501:4675  for(uint256 i = 0; i< sub_workers_.length; i++){\r... */\n      jump(tag_212)\n    tag_213:\n      pop\n        /* \"worksystems/AddressManager.sol\":4692:4697  found */\n      swap1\n      swap5\n        /* \"worksystems/AddressManager.sol\":4307:4705  function isSubInMasterArray(address _worker, address _master) public view returns(bool){\r... */\n      swap4\n      pop\n      pop\n      pop\n      pop\n      jump\t// out\n        /* \"worksystems/AddressManager.sol\":2373:2409  IParametersManager public Parameters */\n    tag_119:\n      and(sub(shl(0xa0, 0x01), 0x01), sload(0x06))\n      dup2\n      jump\t// out\n        /* \"@openzeppelin/contracts/access/Ownable.sol\":1359:1489  function _checkOwner() internal view virtual {... */\n    tag_124:\n        /* \"@openzeppelin/contracts/access/Ownable.sol\":1433:1445  _msgSender() */\n      tag_219\n        /* \"@openzeppelin/contracts/access/Ownable.sol\":1433:1443  _msgSender */\n      tag_220\n        /* \"@openzeppelin/contracts/access/Ownable.sol\":1433:1445  _msgSender() */\n      jump\t// in\n    tag_219:\n      sub(shl(0xa0, 0x01), 0x01)\n        /* \"@openzeppelin/contracts/access/Ownable.sol\":1422:1445  owner() == _msgSender() */\n      and\n        /* \"@openzeppelin/contracts/access/Ownable.sol\":1422:1429  owner() */\n      tag_221\n        /* \"@openzeppelin/contracts/access/Ownable.sol\":1422:1427  owner */\n      tag_82\n        /* \"@openzeppelin/contracts/access/Ownable.sol\":1422:1429  owner() */\n      jump\t// in\n    tag_221:\n      sub(shl(0xa0, 0x01), 0x01)\n        /* \"@openzeppelin/contracts/access/Ownable.sol\":1422:1445  owner() == _msgSender() */\n      and\n      eq\n        /* \"@openzeppelin/contracts/access/Ownable.sol\":1414:1482  require(owner() == _msgSender(), \"Ownable: caller is not the owner\") */\n      tag_173\n      jumpi\n      mload(0x40)\n      shl(0xe5, 0x461bcd)\n      dup2\n      mstore\n      0x04\n      add\n      tag_130\n      swap1\n      tag_224\n      jump\t// in\n        /* \"worksystems/AddressManager.sol\":4871:5491  function PopFromSubsArray(address _master, address _worker) internal{\r... */\n    tag_163:\n        /* \"worksystems/AddressManager.sol\":4950:4963  uint256 index */\n      0x00\n        /* \"worksystems/AddressManager.sol\":4978:4988  bool found */\n      dup1\n        /* \"worksystems/AddressManager.sol\":5011:5020  uint256 i */\n      0x00\n        /* \"worksystems/AddressManager.sol\":5007:5233  for(uint256 i = 0; i< MasterToSubsMap[_master].length; i++){\r... */\n    tag_226:\n      sub(shl(0xa0, 0x01), 0x01)\n        /* \"worksystems/AddressManager.sol\":5029:5053  MasterToSubsMap[_master] */\n      dup6\n      and\n      0x00\n      swap1\n      dup2\n      mstore\n        /* \"worksystems/AddressManager.sol\":5029:5044  MasterToSubsMap */\n      0x03\n        /* \"worksystems/AddressManager.sol\":5029:5053  MasterToSubsMap[_master] */\n      0x20\n      mstore\n      0x40\n      swap1\n      keccak256\n        /* \"worksystems/AddressManager.sol\":5029:5060  MasterToSubsMap[_master].length */\n      sload\n        /* \"worksystems/AddressManager.sol\":5026:5060  i< MasterToSubsMap[_master].length */\n      dup2\n      lt\n        /* \"worksystems/AddressManager.sol\":5007:5233  for(uint256 i = 0; i< MasterToSubsMap[_master].length; i++){\r... */\n      iszero\n      tag_227\n      jumpi\n      sub(shl(0xa0, 0x01), 0x01)\n        /* \"worksystems/AddressManager.sol\":5084:5108  MasterToSubsMap[_master] */\n      dup6\n      dup2\n      and\n      0x00\n      swap1\n      dup2\n      mstore\n        /* \"worksystems/AddressManager.sol\":5084:5099  MasterToSubsMap */\n      0x03\n        /* \"worksystems/AddressManager.sol\":5084:5108  MasterToSubsMap[_master] */\n      0x20\n      mstore\n      0x40\n      swap1\n      keccak256\n        /* \"worksystems/AddressManager.sol\":5084:5111  MasterToSubsMap[_master][i] */\n      dup1\n      sload\n        /* \"worksystems/AddressManager.sol\":5084:5122  MasterToSubsMap[_master][i] == _worker */\n      swap2\n      dup7\n      and\n      swap2\n        /* \"worksystems/AddressManager.sol\":5109:5110  i */\n      dup4\n      swap1\n        /* \"worksystems/AddressManager.sol\":5084:5111  MasterToSubsMap[_master][i] */\n      dup2\n      lt\n      tag_229\n      jumpi\n      mstore(0x00, shl(0xe0, 0x4e487b71))\n      mstore(0x04, 0x32)\n      revert(0x00, 0x24)\n    tag_229:\n      0x00\n      swap2\n      dup3\n      mstore\n      0x20\n      swap1\n      swap2\n      keccak256\n      add\n      sload\n      sub(shl(0xa0, 0x01), 0x01)\n      and\n        /* \"worksystems/AddressManager.sol\":5084:5122  MasterToSubsMap[_master][i] == _worker */\n      eq\n        /* \"worksystems/AddressManager.sol\":5081:5222  if(MasterToSubsMap[_master][i] == _worker){\r... */\n      iszero\n      tag_231\n      jumpi\n        /* \"worksystems/AddressManager.sol\":5150:5154  true */\n      0x01\n        /* \"worksystems/AddressManager.sol\":5142:5154  found = true */\n      swap2\n      pop\n        /* \"worksystems/AddressManager.sol\":5181:5182  i */\n      dup1\n        /* \"worksystems/AddressManager.sol\":5173:5182  index = i */\n      swap3\n      pop\n        /* \"worksystems/AddressManager.sol\":5201:5206  break */\n      jump(tag_227)\n        /* \"worksystems/AddressManager.sol\":5081:5222  if(MasterToSubsMap[_master][i] == _worker){\r... */\n    tag_231:\n        /* \"worksystems/AddressManager.sol\":5062:5065  i++ */\n      dup1\n      tag_232\n      dup2\n      tag_157\n      jump\t// in\n    tag_232:\n      swap2\n      pop\n      pop\n        /* \"worksystems/AddressManager.sol\":5007:5233  for(uint256 i = 0; i< MasterToSubsMap[_master].length; i++){\r... */\n      jump(tag_226)\n    tag_227:\n      pop\n        /* \"worksystems/AddressManager.sol\":5311:5316  found */\n      dup1\n        /* \"worksystems/AddressManager.sol\":5308:5484  if(found){\r... */\n      iszero\n      tag_233\n      jumpi\n      sub(shl(0xa0, 0x01), 0x01)\n        /* \"worksystems/AddressManager.sol\":5366:5390  MasterToSubsMap[_master] */\n      dup5\n      and\n      0x00\n      swap1\n      dup2\n      mstore\n        /* \"worksystems/AddressManager.sol\":5366:5381  MasterToSubsMap */\n      0x03\n        /* \"worksystems/AddressManager.sol\":5366:5390  MasterToSubsMap[_master] */\n      0x20\n      mstore\n      0x40\n      swap1\n      keccak256\n        /* \"worksystems/AddressManager.sol\":5391:5422  MasterToSubsMap[_master].length */\n      dup1\n      sload\n        /* \"worksystems/AddressManager.sol\":5391:5426  MasterToSubsMap[_master].length - 1 */\n      tag_234\n      swap1\n        /* \"worksystems/AddressManager.sol\":5425:5426  1 */\n      0x01\n      swap1\n        /* \"worksystems/AddressManager.sol\":5391:5426  MasterToSubsMap[_master].length - 1 */\n      tag_136\n      jump\t// in\n    tag_234:\n        /* \"worksystems/AddressManager.sol\":5366:5427  MasterToSubsMap[_master][MasterToSubsMap[_master].length - 1] */\n      dup2\n      sload\n      dup2\n      lt\n      tag_235\n      jumpi\n      mstore(0x00, shl(0xe0, 0x4e487b71))\n      mstore(0x04, 0x32)\n      revert(0x00, 0x24)\n    tag_235:\n      0x00\n      swap2\n      dup3\n      mstore\n      0x20\n      dup1\n      dup4\n      keccak256\n      swap1\n      swap2\n      add\n      sload\n      sub(shl(0xa0, 0x01), 0x01)\n        /* \"worksystems/AddressManager.sol\":5332:5356  MasterToSubsMap[_master] */\n      dup8\n      dup2\n      and\n      dup5\n      mstore\n        /* \"worksystems/AddressManager.sol\":5332:5347  MasterToSubsMap */\n      0x03\n        /* \"worksystems/AddressManager.sol\":5332:5356  MasterToSubsMap[_master] */\n      swap1\n      swap3\n      mstore\n      0x40\n      swap1\n      swap3\n      keccak256\n        /* \"worksystems/AddressManager.sol\":5332:5363  MasterToSubsMap[_master][index] */\n      dup1\n      sload\n        /* \"worksystems/AddressManager.sol\":5366:5427  MasterToSubsMap[_master][MasterToSubsMap[_master].length - 1] */\n      swap2\n      swap1\n      swap3\n      and\n      swap2\n        /* \"worksystems/AddressManager.sol\":5332:5356  MasterToSubsMap[_master] */\n      swap1\n        /* \"worksystems/AddressManager.sol\":5357:5362  index */\n      dup5\n      swap1\n        /* \"worksystems/AddressManager.sol\":5332:5363  MasterToSubsMap[_master][index] */\n      dup2\n      lt\n      tag_237\n      jumpi\n      mstore(0x00, shl(0xe0, 0x4e487b71))\n      mstore(0x04, 0x32)\n      revert(0x00, 0x24)\n    tag_237:\n      0x00\n      swap2\n      dup3\n      mstore\n      0x20\n      dup1\n      dup4\n      keccak256\n      swap2\n      swap1\n      swap2\n      add\n        /* \"worksystems/AddressManager.sol\":5332:5427  MasterToSubsMap[_master][index] = MasterToSubsMap[_master][MasterToSubsMap[_master].length - 1] */\n      dup1\n      sload\n      not(sub(shl(0xa0, 0x01), 0x01))\n      and\n      sub(shl(0xa0, 0x01), 0x01)\n      swap5\n      dup6\n      and\n      or\n      swap1\n      sstore\n        /* \"worksystems/AddressManager.sol\":5442:5466  MasterToSubsMap[_master] */\n      swap2\n      dup7\n      and\n      dup2\n      mstore\n        /* \"worksystems/AddressManager.sol\":5442:5457  MasterToSubsMap */\n      0x03\n        /* \"worksystems/AddressManager.sol\":5442:5466  MasterToSubsMap[_master] */\n      swap1\n      swap2\n      mstore\n      0x40\n      swap1\n      keccak256\n        /* \"worksystems/AddressManager.sol\":5442:5472  MasterToSubsMap[_master].pop() */\n      dup1\n      sload\n      dup1\n      tag_239\n      jumpi\n      mstore(0x00, shl(0xe0, 0x4e487b71))\n      mstore(0x04, 0x31)\n      revert(0x00, 0x24)\n    tag_239:\n      0x00\n      dup3\n      dup2\n      mstore\n      0x20\n      swap1\n      keccak256\n      dup2\n      add\n      not(0x00)\n      swap1\n      dup2\n      add\n      dup1\n      sload\n      not(sub(shl(0xa0, 0x01), 0x01))\n      and\n      swap1\n      sstore\n      add\n      swap1\n      sstore\n        /* \"worksystems/AddressManager.sol\":5308:5484  if(found){\r... */\n    tag_233:\n        /* \"worksystems/AddressManager.sol\":4871:5491  function PopFromSubsArray(address _master, address _worker) internal{\r... */\n      pop\n      pop\n      pop\n      pop\n      jump\t// out\n        /* \"@openzeppelin/contracts/access/Ownable.sol\":2433:2620  function _transferOwnership(address newOwner) internal virtual {... */\n    tag_174:\n        /* \"@openzeppelin/contracts/access/Ownable.sol\":2506:2522  address oldOwner */\n      0x00\n        /* \"@openzeppelin/contracts/access/Ownable.sol\":2525:2531  _owner */\n      dup1\n      sload\n      sub(shl(0xa0, 0x01), 0x01)\n        /* \"@openzeppelin/contracts/access/Ownable.sol\":2541:2558  _owner = newOwner */\n      dup4\n      dup2\n      and\n      not(sub(shl(0xa0, 0x01), 0x01))\n      dup4\n      and\n      dup2\n      or\n      dup5\n      sstore\n        /* \"@openzeppelin/contracts/access/Ownable.sol\":2573:2613  OwnershipTransferred(oldOwner, newOwner) */\n      mload(0x40)\n        /* \"@openzeppelin/contracts/access/Ownable.sol\":2525:2531  _owner */\n      swap2\n      swap1\n      swap3\n      and\n      swap3\n      dup4\n      swap2\n        /* \"@openzeppelin/contracts/access/Ownable.sol\":2573:2613  OwnershipTransferred(oldOwner, newOwner) */\n      0x8be0079c531659141344cd1fd0a4f28419497f9722a3daafe3b4186f6b6457e0\n      swap2\n        /* \"@openzeppelin/contracts/access/Ownable.sol\":2506:2522  address oldOwner */\n      swap1\n        /* \"@openzeppelin/contracts/access/Ownable.sol\":2573:2613  OwnershipTransferred(oldOwner, newOwner) */\n      log3\n        /* \"@openzeppelin/contracts/access/Ownable.sol\":2433:2620  function _transferOwnership(address newOwner) internal virtual {... */\n      pop\n      pop\n      jump\t// out\n        /* \"worksystems/AddressManager.sol\":8265:9550  function TransferRepToMaster(address _worker)\r... */\n    tag_197:\n        /* \"worksystems/AddressManager.sol\":8382:8392  Parameters */\n      sload(0x06)\n        /* \"worksystems/AddressManager.sol\":8382:8408  Parameters.getRepManager() */\n      0x40\n      dup1\n      mload\n      shl(0xe0, 0x0855d151)\n      dup2\n      mstore\n      swap1\n      mload\n        /* \"worksystems/AddressManager.sol\":8420:8421  0 */\n      0x00\n      swap3\n      sub(shl(0xa0, 0x01), 0x01)\n        /* \"worksystems/AddressManager.sol\":8382:8392  Parameters */\n      and\n      swap2\n        /* \"worksystems/AddressManager.sol\":8382:8406  Parameters.getRepManager */\n      0x0855d151\n      swap2\n        /* \"worksystems/AddressManager.sol\":8382:8408  Parameters.getRepManager() */\n      0x04\n      dup1\n      dup4\n      add\n      swap3\n      0x20\n      swap3\n      swap2\n      swap1\n      dup3\n      swap1\n      sub\n      add\n      dup2\n        /* \"worksystems/AddressManager.sol\":8382:8392  Parameters */\n      dup7\n        /* \"worksystems/AddressManager.sol\":8382:8408  Parameters.getRepManager() */\n      dup1\n      extcodesize\n      iszero\n      dup1\n      iszero\n      tag_243\n      jumpi\n      0x00\n      dup1\n      revert\n    tag_243:\n      pop\n      gas\n      staticcall\n      iszero\n      dup1\n      iszero\n      tag_245\n      jumpi\n      returndatasize\n      0x00\n      dup1\n      returndatacopy\n      revert(0x00, returndatasize)\n    tag_245:\n      pop\n      pop\n      pop\n      pop\n      mload(0x40)\n      returndatasize\n      not(0x1f)\n      0x1f\n      dup3\n      add\n      and\n      dup3\n      add\n      dup1\n      0x40\n      mstore\n      pop\n      dup2\n      add\n      swap1\n      tag_246\n      swap2\n      swap1\n      tag_247\n      jump\t// in\n    tag_246:\n      sub(shl(0xa0, 0x01), 0x01)\n        /* \"worksystems/AddressManager.sol\":8382:8422  Parameters.getRepManager() != address(0) */\n      and\n      eq\n      iszero\n        /* \"worksystems/AddressManager.sol\":8374:8459  require(Parameters.getRepManager() != address(0), \"RepManager is null in Parameters\") */\n      tag_248\n      jumpi\n      mload(0x40)\n      shl(0xe5, 0x461bcd)\n      dup2\n      mstore\n      0x04\n      add\n      tag_130\n      swap1\n      tag_250\n      jump\t// in\n    tag_248:\n        /* \"worksystems/AddressManager.sol\":8478:8488  Parameters */\n      sload(0x06)\n        /* \"worksystems/AddressManager.sol\":8478:8510  Parameters.getReputationSystem() */\n      0x40\n      dup1\n      mload\n      shl(0xe0, 0xe992dca7)\n      dup2\n      mstore\n      swap1\n      mload\n        /* \"worksystems/AddressManager.sol\":8522:8523  0 */\n      0x00\n      swap3\n      sub(shl(0xa0, 0x01), 0x01)\n        /* \"worksystems/AddressManager.sol\":8478:8488  Parameters */\n      and\n      swap2\n        /* \"worksystems/AddressManager.sol\":8478:8508  Parameters.getReputationSystem */\n      0xe992dca7\n      swap2\n        /* \"worksystems/AddressManager.sol\":8478:8510  Parameters.getReputationSystem() */\n      0x04\n      dup1\n      dup4\n      add\n      swap3\n      0x20\n      swap3\n      swap2\n      swap1\n      dup3\n      swap1\n      sub\n      add\n      dup2\n        /* \"worksystems/AddressManager.sol\":8478:8488  Parameters */\n      dup7\n        /* \"worksystems/AddressManager.sol\":8478:8510  Parameters.getReputationSystem() */\n      dup1\n      extcodesize\n      iszero\n      dup1\n      iszero\n      tag_251\n      jumpi\n      0x00\n      dup1\n      revert\n    tag_251:\n      pop\n      gas\n      staticcall\n      iszero\n      dup1\n      iszero\n      tag_253\n      jumpi\n      returndatasize\n      0x00\n      dup1\n      returndatacopy\n      revert(0x00, returndatasize)\n    tag_253:\n      pop\n      pop\n      pop\n      pop\n      mload(0x40)\n      returndatasize\n      not(0x1f)\n      0x1f\n      dup3\n      add\n      and\n      dup3\n      add\n      dup1\n      0x40\n      mstore\n      pop\n      dup2\n      add\n      swap1\n      tag_254\n      swap2\n      swap1\n      tag_247\n      jump\t// in\n    tag_254:\n      sub(shl(0xa0, 0x01), 0x01)\n        /* \"worksystems/AddressManager.sol\":8478:8524  Parameters.getReputationSystem() != address(0) */\n      and\n      eq\n      iszero\n        /* \"worksystems/AddressManager.sol\":8470:8561  require(Parameters.getReputationSystem() != address(0), \"RepManager is null in Parameters\") */\n      tag_255\n      jumpi\n      mload(0x40)\n      shl(0xe5, 0x461bcd)\n      dup2\n      mstore\n      0x04\n      add\n      tag_130\n      swap1\n      tag_250\n      jump\t// in\n    tag_255:\n        /* \"worksystems/AddressManager.sol\":8610:8620  Parameters */\n      sload(0x06)\n        /* \"worksystems/AddressManager.sol\":8610:8636  Parameters.getRepManager() */\n      0x40\n      dup1\n      mload\n      shl(0xe0, 0x0855d151)\n      dup2\n      mstore\n      swap1\n      mload\n        /* \"worksystems/AddressManager.sol\":8572:8595  IRepManager _RepManager */\n      0x00\n      swap3\n      sub(shl(0xa0, 0x01), 0x01)\n        /* \"worksystems/AddressManager.sol\":8610:8620  Parameters */\n      and\n      swap2\n        /* \"worksystems/AddressManager.sol\":8610:8634  Parameters.getRepManager */\n      0x0855d151\n      swap2\n        /* \"worksystems/AddressManager.sol\":8610:8636  Parameters.getRepManager() */\n      0x04\n      dup1\n      dup4\n      add\n      swap3\n      0x20\n      swap3\n      swap2\n      swap1\n      dup3\n      swap1\n      sub\n      add\n      dup2\n        /* \"worksystems/AddressManager.sol\":8610:8620  Parameters */\n      dup7\n        /* \"worksystems/AddressManager.sol\":8610:8636  Parameters.getRepManager() */\n      dup1\n      extcodesize\n      iszero\n      dup1\n      iszero\n      tag_257\n      jumpi\n      0x00\n      dup1\n      revert\n    tag_257:\n      pop\n      gas\n      staticcall\n      iszero\n      dup1\n      iszero\n      tag_259\n      jumpi\n      returndatasize\n      0x00\n      dup1\n      returndatacopy\n      revert(0x00, returndatasize)\n    tag_259:\n      pop\n      pop\n      pop\n      pop\n      mload(0x40)\n      returndatasize\n      not(0x1f)\n      0x1f\n      dup3\n      add\n      and\n      dup3\n      add\n      dup1\n      0x40\n      mstore\n      pop\n      dup2\n      add\n      swap1\n      tag_260\n      swap2\n      swap1\n      tag_247\n      jump\t// in\n    tag_260:\n        /* \"worksystems/AddressManager.sol\":8572:8637  IRepManager _RepManager = IRepManager(Parameters.getRepManager()) */\n      swap1\n      pop\n        /* \"worksystems/AddressManager.sol\":8648:8671  IReputation _Reputation */\n      0x00\n        /* \"worksystems/AddressManager.sol\":8686:8696  Parameters */\n      0x06\n      0x00\n      swap1\n      sload\n      swap1\n      0x0100\n      exp\n      swap1\n      div\n      sub(shl(0xa0, 0x01), 0x01)\n      and\n      sub(shl(0xa0, 0x01), 0x01)\n        /* \"worksystems/AddressManager.sol\":8686:8716  Parameters.getReputationSystem */\n      and\n      0xe992dca7\n        /* \"worksystems/AddressManager.sol\":8686:8718  Parameters.getReputationSystem() */\n      mload(0x40)\n      dup2\n      0xffffffff\n      and\n      0xe0\n      shl\n      dup2\n      mstore\n      0x04\n      add\n      0x20\n      mload(0x40)\n      dup1\n      dup4\n      sub\n      dup2\n      dup7\n      dup1\n      extcodesize\n      iszero\n      dup1\n      iszero\n      tag_261\n      jumpi\n      0x00\n      dup1\n      revert\n    tag_261:\n      pop\n      gas\n      staticcall\n      iszero\n      dup1\n      iszero\n      tag_263\n      jumpi\n      returndatasize\n      0x00\n      dup1\n      returndatacopy\n      revert(0x00, returndatasize)\n    tag_263:\n      pop\n      pop\n      pop\n      pop\n      mload(0x40)\n      returndatasize\n      not(0x1f)\n      0x1f\n      dup3\n      add\n      and\n      dup3\n      add\n      dup1\n      0x40\n      mstore\n      pop\n      dup2\n      add\n      swap1\n      tag_264\n      swap2\n      swap1\n      tag_247\n      jump\t// in\n    tag_264:\n      sub(shl(0xa0, 0x01), 0x01)\n        /* \"worksystems/AddressManager.sol\":8738:8761  SubToMasterMap[_worker] */\n      dup5\n      dup2\n      and\n        /* \"worksystems/AddressManager.sol\":8773:8774  0 */\n      0x00\n        /* \"worksystems/AddressManager.sol\":8738:8761  SubToMasterMap[_worker] */\n      swap1\n      dup2\n      mstore\n        /* \"worksystems/AddressManager.sol\":8738:8752  SubToMasterMap */\n      0x04\n        /* \"worksystems/AddressManager.sol\":8738:8761  SubToMasterMap[_worker] */\n      0x20\n      mstore\n      0x40\n      swap1\n      keccak256\n      sload\n        /* \"worksystems/AddressManager.sol\":8648:8719  IReputation _Reputation = IReputation(Parameters.getReputationSystem()) */\n      swap2\n      swap3\n      pop\n        /* \"worksystems/AddressManager.sol\":8738:8761  SubToMasterMap[_worker] */\n      and\n        /* \"worksystems/AddressManager.sol\":8730:8846  require(SubToMasterMap[_worker] != address(0), \"TransferRepToMaster: input _worker needs to have a non-null master\") */\n      tag_265\n      jumpi\n      mload(0x40)\n      shl(0xe5, 0x461bcd)\n      dup2\n      mstore\n      0x04\n      add\n      tag_130\n      swap1\n      tag_267\n      jump\t// in\n    tag_265:\n        /* \"worksystems/AddressManager.sol\":8922:8952  _Reputation.balanceOf(_worker) */\n      mload(0x40)\n      shl(0xe0, 0x70a08231)\n      dup2\n      mstore\n        /* \"worksystems/AddressManager.sol\":8900:8919  uint256 _worker_rep */\n      0x00\n      swap1\n      sub(shl(0xa0, 0x01), 0x01)\n        /* \"worksystems/AddressManager.sol\":8922:8943  _Reputation.balanceOf */\n      dup4\n      and\n      swap1\n      0x70a08231\n      swap1\n        /* \"worksystems/AddressManager.sol\":8922:8952  _Reputation.balanceOf(_worker) */\n      tag_268\n      swap1\n        /* \"worksystems/AddressManager.sol\":8944:8951  _worker */\n      dup8\n      swap1\n        /* \"worksystems/AddressManager.sol\":8922:8952  _Reputation.balanceOf(_worker) */\n      0x04\n      add\n      tag_43\n      jump\t// in\n    tag_268:\n      0x20\n      mload(0x40)\n      dup1\n      dup4\n      sub\n      dup2\n      dup7\n      dup1\n      extcodesize\n      iszero\n      dup1\n      iszero\n      tag_269\n      jumpi\n      0x00\n      dup1\n      revert\n    tag_269:\n      pop\n      gas\n      staticcall\n      iszero\n      dup1\n      iszero\n      tag_271\n      jumpi\n      returndatasize\n      0x00\n      dup1\n      returndatacopy\n      revert(0x00, returndatasize)\n    tag_271:\n      pop\n      pop\n      pop\n      pop\n      mload(0x40)\n      returndatasize\n      not(0x1f)\n      0x1f\n      dup3\n      add\n      and\n      dup3\n      add\n      dup1\n      0x40\n      mstore\n      pop\n      dup2\n      add\n      swap1\n      tag_272\n      swap2\n      swap1\n      tag_273\n      jump\t// in\n    tag_272:\n        /* \"worksystems/AddressManager.sol\":8900:8952  uint256 _worker_rep = _Reputation.balanceOf(_worker) */\n      swap1\n      pop\n        /* \"worksystems/AddressManager.sol\":8963:8986  address _highest_master */\n      0x00\n        /* \"worksystems/AddressManager.sol\":8989:9016  FetchHighestMaster(_worker) */\n      tag_274\n        /* \"worksystems/AddressManager.sol\":9008:9015  _worker */\n      dup6\n        /* \"worksystems/AddressManager.sol\":8989:9007  FetchHighestMaster */\n      tag_41\n        /* \"worksystems/AddressManager.sol\":8989:9016  FetchHighestMaster(_worker) */\n      jump\t// in\n    tag_274:\n        /* \"worksystems/AddressManager.sol\":8963:9016  address _highest_master = FetchHighestMaster(_worker) */\n      swap1\n      pop\n        /* \"worksystems/AddressManager.sol\":9030:9045  _worker_rep > 0 */\n      dup2\n      iszero\n        /* \"worksystems/AddressManager.sol\":9027:9543  if(_worker_rep > 0){\r... */\n      tag_275\n      jumpi\n        /* \"worksystems/AddressManager.sol\":9131:9198  _RepManager.mintReputationForWork(_worker_rep, _highest_master, \"\") */\n      mload(0x40)\n      shl(0xe1, 0x0db6cc85)\n      dup2\n      mstore\n      sub(shl(0xa0, 0x01), 0x01)\n        /* \"worksystems/AddressManager.sol\":9131:9164  _RepManager.mintReputationForWork */\n      dup6\n      and\n      swap1\n      0x1b6d990a\n      swap1\n        /* \"worksystems/AddressManager.sol\":9131:9198  _RepManager.mintReputationForWork(_worker_rep, _highest_master, \"\") */\n      tag_276\n      swap1\n        /* \"worksystems/AddressManager.sol\":9165:9176  _worker_rep */\n      dup6\n      swap1\n        /* \"worksystems/AddressManager.sol\":9178:9193  _highest_master */\n      dup6\n      swap1\n        /* \"worksystems/AddressManager.sol\":9131:9198  _RepManager.mintReputationForWork(_worker_rep, _highest_master, \"\") */\n      0x04\n      add\n      tag_277\n      jump\t// in\n    tag_276:\n      0x20\n      mload(0x40)\n      dup1\n      dup4\n      sub\n      dup2\n      0x00\n      dup8\n      dup1\n      extcodesize\n      iszero\n      dup1\n      iszero\n      tag_278\n      jumpi\n      0x00\n      dup1\n      revert\n    tag_278:\n      pop\n      gas\n      call\n      iszero\n      dup1\n      iszero\n      tag_280\n      jumpi\n      returndatasize\n      0x00\n      dup1\n      returndatacopy\n      revert(0x00, returndatasize)\n    tag_280:\n      pop\n      pop\n      pop\n      pop\n      mload(0x40)\n      returndatasize\n      not(0x1f)\n      0x1f\n      dup3\n      add\n      and\n      dup3\n      add\n      dup1\n      0x40\n      mstore\n      pop\n      dup2\n      add\n      swap1\n      tag_281\n      swap2\n      swap1\n      tag_282\n      jump\t// in\n    tag_281:\n        /* \"worksystems/AddressManager.sol\":9123:9252  require(_RepManager.mintReputationForWork(_worker_rep, _highest_master, \"\"), \"TransferRepToMaster: could not mint Rep to master\") */\n      tag_283\n      jumpi\n      mload(0x40)\n      shl(0xe5, 0x461bcd)\n      dup2\n      mstore\n      0x04\n      add\n      tag_130\n      swap1\n      tag_285\n      jump\t// in\n    tag_283:\n        /* \"worksystems/AddressManager.sol\":9350:9409  _RepManager.burnReputationForWork(_worker_rep, _worker, \"\") */\n      mload(0x40)\n      shl(0xe2, 0x171bcfc3)\n      dup2\n      mstore\n      sub(shl(0xa0, 0x01), 0x01)\n        /* \"worksystems/AddressManager.sol\":9350:9383  _RepManager.burnReputationForWork */\n      dup6\n      and\n      swap1\n      0x5c6f3f0c\n      swap1\n        /* \"worksystems/AddressManager.sol\":9350:9409  _RepManager.burnReputationForWork(_worker_rep, _worker, \"\") */\n      tag_286\n      swap1\n        /* \"worksystems/AddressManager.sol\":9384:9395  _worker_rep */\n      dup6\n      swap1\n        /* \"worksystems/AddressManager.sol\":9397:9404  _worker */\n      dup10\n      swap1\n        /* \"worksystems/AddressManager.sol\":9350:9409  _RepManager.burnReputationForWork(_worker_rep, _worker, \"\") */\n      0x04\n      add\n      tag_277\n      jump\t// in\n    tag_286:\n      0x20\n      mload(0x40)\n      dup1\n      dup4\n      sub\n      dup2\n      0x00\n      dup8\n      dup1\n      extcodesize\n      iszero\n      dup1\n      iszero\n      tag_287\n      jumpi\n      0x00\n      dup1\n      revert\n    tag_287:\n      pop\n      gas\n      call\n      iszero\n      dup1\n      iszero\n      tag_289\n      jumpi\n      returndatasize\n      0x00\n      dup1\n      returndatacopy\n      revert(0x00, returndatasize)\n    tag_289:\n      pop\n      pop\n      pop\n      pop\n      mload(0x40)\n      returndatasize\n      not(0x1f)\n      0x1f\n      dup3\n      add\n      and\n      dup3\n      add\n      dup1\n      0x40\n      mstore\n      pop\n      dup2\n      add\n      swap1\n      tag_290\n      swap2\n      swap1\n      tag_282\n      jump\t// in\n    tag_290:\n        /* \"worksystems/AddressManager.sol\":9342:9465  require(_RepManager.burnReputationForWork(_worker_rep, _worker, \"\"), \"TransferRepToMaster: could not burn Rep from worker\") */\n      tag_291\n      jumpi\n      mload(0x40)\n      shl(0xe5, 0x461bcd)\n      dup2\n      mstore\n      0x04\n      add\n      tag_130\n      swap1\n      tag_293\n      jump\t// in\n    tag_291:\n        /* \"worksystems/AddressManager.sol\":9506:9513  _worker */\n      dup5\n      sub(shl(0xa0, 0x01), 0x01)\n        /* \"worksystems/AddressManager.sol\":9485:9531  ReputationTransfered(_worker, _highest_master) */\n      and\n      0xc587680578b3acb8eeb1ab421a6921efe2a32b10903016ebd6c3f39e51cd1d96\n        /* \"worksystems/AddressManager.sol\":9515:9530  _highest_master */\n      dup3\n        /* \"worksystems/AddressManager.sol\":9485:9531  ReputationTransfered(_worker, _highest_master) */\n      mload(0x40)\n      tag_294\n      swap2\n      swap1\n      tag_43\n      jump\t// in\n    tag_294:\n      mload(0x40)\n      dup1\n      swap2\n      sub\n      swap1\n      log2\n        /* \"worksystems/AddressManager.sol\":9027:9543  if(_worker_rep > 0){\r... */\n    tag_275:\n        /* \"worksystems/AddressManager.sol\":8265:9550  function TransferRepToMaster(address _worker)\r... */\n      pop\n      pop\n      pop\n      pop\n      pop\n      jump\t// out\n        /* \"worksystems/AddressManager.sol\":9562:10487  function TransferRewardsToMaster(address _worker)\r... */\n    tag_199:\n        /* \"worksystems/AddressManager.sol\":9657:9667  Parameters */\n      sload(0x06)\n        /* \"worksystems/AddressManager.sol\":9657:9686  Parameters.getRewardManager() */\n      0x40\n      dup1\n      mload\n      shl(0xe0, 0x04e76c8f)\n      dup2\n      mstore\n      swap1\n      mload\n        /* \"worksystems/AddressManager.sol\":9698:9699  0 */\n      0x00\n      swap3\n      sub(shl(0xa0, 0x01), 0x01)\n        /* \"worksystems/AddressManager.sol\":9657:9667  Parameters */\n      and\n      swap2\n        /* \"worksystems/AddressManager.sol\":9657:9684  Parameters.getRewardManager */\n      0x04e76c8f\n      swap2\n        /* \"worksystems/AddressManager.sol\":9657:9686  Parameters.getRewardManager() */\n      0x04\n      dup1\n      dup4\n      add\n      swap3\n      0x20\n      swap3\n      swap2\n      swap1\n      dup3\n      swap1\n      sub\n      add\n      dup2\n        /* \"worksystems/AddressManager.sol\":9657:9667  Parameters */\n      dup7\n        /* \"worksystems/AddressManager.sol\":9657:9686  Parameters.getRewardManager() */\n      dup1\n      extcodesize\n      iszero\n      dup1\n      iszero\n      tag_296\n      jumpi\n      0x00\n      dup1\n      revert\n    tag_296:\n      pop\n      gas\n      staticcall\n      iszero\n      dup1\n      iszero\n      tag_298\n      jumpi\n      returndatasize\n      0x00\n      dup1\n      returndatacopy\n      revert(0x00, returndatasize)\n    tag_298:\n      pop\n      pop\n      pop\n      pop\n      mload(0x40)\n      returndatasize\n      not(0x1f)\n      0x1f\n      dup3\n      add\n      and\n      dup3\n      add\n      dup1\n      0x40\n      mstore\n      pop\n      dup2\n      add\n      swap1\n      tag_299\n      swap2\n      swap1\n      tag_247\n      jump\t// in\n    tag_299:\n      sub(shl(0xa0, 0x01), 0x01)\n        /* \"worksystems/AddressManager.sol\":9657:9700  Parameters.getRewardManager() != address(0) */\n      and\n      eq\n      iszero\n        /* \"worksystems/AddressManager.sol\":9649:9740  require(Parameters.getRewardManager() != address(0), \"RewardManager is null in Parameters\") */\n      tag_300\n      jumpi\n      mload(0x40)\n      shl(0xe5, 0x461bcd)\n      dup2\n      mstore\n      0x04\n      add\n      tag_130\n      swap1\n      tag_302\n      jump\t// in\n    tag_300:\n        /* \"worksystems/AddressManager.sol\":9798:9808  Parameters */\n      sload(0x06)\n        /* \"worksystems/AddressManager.sol\":9798:9827  Parameters.getRewardManager() */\n      0x40\n      dup1\n      mload\n      shl(0xe0, 0x04e76c8f)\n      dup2\n      mstore\n      swap1\n      mload\n        /* \"worksystems/AddressManager.sol\":9751:9780  IRewardManager _RewardManager */\n      0x00\n      swap3\n      sub(shl(0xa0, 0x01), 0x01)\n        /* \"worksystems/AddressManager.sol\":9798:9808  Parameters */\n      and\n      swap2\n        /* \"worksystems/AddressManager.sol\":9798:9825  Parameters.getRewardManager */\n      0x04e76c8f\n      swap2\n        /* \"worksystems/AddressManager.sol\":9798:9827  Parameters.getRewardManager() */\n      0x04\n      dup1\n      dup4\n      add\n      swap3\n      0x20\n      swap3\n      swap2\n      swap1\n      dup3\n      swap1\n      sub\n      add\n      dup2\n        /* \"worksystems/AddressManager.sol\":9798:9808  Parameters */\n      dup7\n        /* \"worksystems/AddressManager.sol\":9798:9827  Parameters.getRewardManager() */\n      dup1\n      extcodesize\n      iszero\n      dup1\n      iszero\n      tag_303\n      jumpi\n      0x00\n      dup1\n      revert\n    tag_303:\n      pop\n      gas\n      staticcall\n      iszero\n      dup1\n      iszero\n      tag_305\n      jumpi\n      returndatasize\n      0x00\n      dup1\n      returndatacopy\n      revert(0x00, returndatasize)\n    tag_305:\n      pop\n      pop\n      pop\n      pop\n      mload(0x40)\n      returndatasize\n      not(0x1f)\n      0x1f\n      dup3\n      add\n      and\n      dup3\n      add\n      dup1\n      0x40\n      mstore\n      pop\n      dup2\n      add\n      swap1\n      tag_306\n      swap2\n      swap1\n      tag_247\n      jump\t// in\n    tag_306:\n        /* \"worksystems/AddressManager.sol\":9751:9828  IRewardManager _RewardManager = IRewardManager(Parameters.getRewardManager()) */\n      swap1\n      pop\n      sub(shl(0xa0, 0x01), 0x01)\n        /* \"worksystems/AddressManager.sol\":9847:9884  address(_RewardManager) != address(0) */\n      dup2\n      and\n        /* \"worksystems/AddressManager.sol\":9839:9920  require(address(_RewardManager) != address(0), \"RewardManager needs to be setup\") */\n      tag_307\n      jumpi\n      mload(0x40)\n      shl(0xe5, 0x461bcd)\n      dup2\n      mstore\n      0x04\n      add\n      tag_130\n      swap1\n      tag_309\n      jump\t// in\n    tag_307:\n      sub(shl(0xa0, 0x01), 0x01)\n        /* \"worksystems/AddressManager.sol\":9939:9962  SubToMasterMap[_worker] */\n      dup3\n      dup2\n      and\n        /* \"worksystems/AddressManager.sol\":9974:9975  0 */\n      0x00\n        /* \"worksystems/AddressManager.sol\":9939:9962  SubToMasterMap[_worker] */\n      swap1\n      dup2\n      mstore\n        /* \"worksystems/AddressManager.sol\":9939:9953  SubToMasterMap */\n      0x04\n        /* \"worksystems/AddressManager.sol\":9939:9962  SubToMasterMap[_worker] */\n      0x20\n      mstore\n      0x40\n      swap1\n      keccak256\n      sload\n      and\n        /* \"worksystems/AddressManager.sol\":9931:10047  require(SubToMasterMap[_worker] != address(0), \"TransferRepToMaster: input _worker needs to have a non-null master\") */\n      tag_310\n      jumpi\n      mload(0x40)\n      shl(0xe5, 0x461bcd)\n      dup2\n      mstore\n      0x04\n      add\n      tag_130\n      swap1\n      tag_267\n      jump\t// in\n    tag_310:\n        /* \"worksystems/AddressManager.sol\":10127:10167  _RewardManager.RewardsBalanceOf(_worker) */\n      mload(0x40)\n      shl(0xe2, 0x3b4febfb)\n      dup2\n      mstore\n        /* \"worksystems/AddressManager.sol\":10101:10124  uint256 _worker_rewards */\n      0x00\n      swap1\n      sub(shl(0xa0, 0x01), 0x01)\n        /* \"worksystems/AddressManager.sol\":10127:10158  _RewardManager.RewardsBalanceOf */\n      dup4\n      and\n      swap1\n      0xed3fafec\n      swap1\n        /* \"worksystems/AddressManager.sol\":10127:10167  _RewardManager.RewardsBalanceOf(_worker) */\n      tag_312\n      swap1\n        /* \"worksystems/AddressManager.sol\":10159:10166  _worker */\n      dup7\n      swap1\n        /* \"worksystems/AddressManager.sol\":10127:10167  _RewardManager.RewardsBalanceOf(_worker) */\n      0x04\n      add\n      tag_43\n      jump\t// in\n    tag_312:\n      0x20\n      mload(0x40)\n      dup1\n      dup4\n      sub\n      dup2\n      0x00\n      dup8\n      dup1\n      extcodesize\n      iszero\n      dup1\n      iszero\n      tag_313\n      jumpi\n      0x00\n      dup1\n      revert\n    tag_313:\n      pop\n      gas\n      call\n      iszero\n      dup1\n      iszero\n      tag_315\n      jumpi\n      returndatasize\n      0x00\n      dup1\n      returndatacopy\n      revert(0x00, returndatasize)\n    tag_315:\n      pop\n      pop\n      pop\n      pop\n      mload(0x40)\n      returndatasize\n      not(0x1f)\n      0x1f\n      dup3\n      add\n      and\n      dup3\n      add\n      dup1\n      0x40\n      mstore\n      pop\n      dup2\n      add\n      swap1\n      tag_316\n      swap2\n      swap1\n      tag_273\n      jump\t// in\n    tag_316:\n        /* \"worksystems/AddressManager.sol\":10101:10167  uint256 _worker_rewards = _RewardManager.RewardsBalanceOf(_worker) */\n      swap1\n      pop\n        /* \"worksystems/AddressManager.sol\":10178:10201  address _highest_master */\n      0x00\n        /* \"worksystems/AddressManager.sol\":10204:10231  FetchHighestMaster(_worker) */\n      tag_317\n        /* \"worksystems/AddressManager.sol\":10223:10230  _worker */\n      dup5\n        /* \"worksystems/AddressManager.sol\":10204:10222  FetchHighestMaster */\n      tag_41\n        /* \"worksystems/AddressManager.sol\":10204:10231  FetchHighestMaster(_worker) */\n      jump\t// in\n    tag_317:\n        /* \"worksystems/AddressManager.sol\":10178:10231  address _highest_master = FetchHighestMaster(_worker) */\n      swap1\n      pop\n        /* \"worksystems/AddressManager.sol\":10245:10264  _worker_rewards > 0 */\n      dup2\n      iszero\n        /* \"worksystems/AddressManager.sol\":10242:10480  if(_worker_rewards > 0){\r... */\n      tag_233\n      jumpi\n        /* \"worksystems/AddressManager.sol\":10288:10349  _RewardManager.ProxyTransferRewards(_worker, _highest_master) */\n      mload(0x40)\n      shl(0xe0, 0x5f28bad5)\n      dup2\n      mstore\n      sub(shl(0xa0, 0x01), 0x01)\n        /* \"worksystems/AddressManager.sol\":10288:10323  _RewardManager.ProxyTransferRewards */\n      dup5\n      and\n      swap1\n      0x5f28bad5\n      swap1\n        /* \"worksystems/AddressManager.sol\":10288:10349  _RewardManager.ProxyTransferRewards(_worker, _highest_master) */\n      tag_319\n      swap1\n        /* \"worksystems/AddressManager.sol\":10324:10331  _worker */\n      dup8\n      swap1\n        /* \"worksystems/AddressManager.sol\":10333:10348  _highest_master */\n      dup6\n      swap1\n        /* \"worksystems/AddressManager.sol\":10288:10349  _RewardManager.ProxyTransferRewards(_worker, _highest_master) */\n      0x04\n      add\n      tag_320\n      jump\t// in\n    tag_319:\n      0x20\n      mload(0x40)\n      dup1\n      dup4\n      sub\n      dup2\n      0x00\n      dup8\n      dup1\n      extcodesize\n      iszero\n      dup1\n      iszero\n      tag_321\n      jumpi\n      0x00\n      dup1\n      revert\n    tag_321:\n      pop\n      gas\n      call\n      iszero\n      dup1\n      iszero\n      tag_323\n      jumpi\n      returndatasize\n      0x00\n      dup1\n      returndatacopy\n      revert(0x00, returndatasize)\n    tag_323:\n      pop\n      pop\n      pop\n      pop\n      mload(0x40)\n      returndatasize\n      not(0x1f)\n      0x1f\n      dup3\n      add\n      and\n      dup3\n      add\n      dup1\n      0x40\n      mstore\n      pop\n      dup2\n      add\n      swap1\n      tag_324\n      swap2\n      swap1\n      tag_282\n      jump\t// in\n    tag_324:\n        /* \"worksystems/AddressManager.sol\":10280:10405  require(_RewardManager.ProxyTransferRewards(_worker, _highest_master), \"TransferRewardsToMaster: could not transfer rewards\") */\n      tag_325\n      jumpi\n      mload(0x40)\n      shl(0xe5, 0x461bcd)\n      dup2\n      mstore\n      0x04\n      add\n      tag_130\n      swap1\n      tag_327\n      jump\t// in\n    tag_325:\n        /* \"worksystems/AddressManager.sol\":10443:10450  _worker */\n      dup4\n      sub(shl(0xa0, 0x01), 0x01)\n        /* \"worksystems/AddressManager.sol\":10425:10468  RewardsTransfered(_worker, _highest_master) */\n      and\n      0x04b22084ec80e4b31b47cb8c65cd44c4e4e2840e20dffcbd81bd7d048b74fb4e\n        /* \"worksystems/AddressManager.sol\":10452:10467  _highest_master */\n      dup3\n        /* \"worksystems/AddressManager.sol\":10425:10468  RewardsTransfered(_worker, _highest_master) */\n      mload(0x40)\n      tag_328\n      swap2\n      swap1\n      tag_43\n      jump\t// in\n    tag_328:\n      mload(0x40)\n      dup1\n      swap2\n      sub\n      swap1\n      log2\n        /* \"worksystems/AddressManager.sol\":9562:10487  function TransferRewardsToMaster(address _worker)\r... */\n      pop\n      pop\n      pop\n      pop\n      jump\t// out\n        /* \"@openzeppelin/contracts/utils/Context.sol\":640:736  function _msgSender() internal view virtual returns (address) {... */\n    tag_220:\n        /* \"@openzeppelin/contracts/utils/Context.sol\":719:729  msg.sender */\n      caller\n        /* \"@openzeppelin/contracts/utils/Context.sol\":640:736  function _msgSender() internal view virtual returns (address) {... */\n      swap1\n      jump\t// out\n        /* \"#utility.yul\":14:152   */\n    tag_331:\n        /* \"#utility.yul\":84:104   */\n      dup1\n      calldataload\n        /* \"#utility.yul\":113:146   */\n      tag_127\n        /* \"#utility.yul\":84:104   */\n      dup2\n        /* \"#utility.yul\":113:146   */\n      tag_334\n      jump\t// in\n        /* \"#utility.yul\":157:416   */\n    tag_32:\n      0x00\n        /* \"#utility.yul\":269:271   */\n      0x20\n        /* \"#utility.yul\":257:266   */\n      dup3\n        /* \"#utility.yul\":248:255   */\n      dup5\n        /* \"#utility.yul\":244:267   */\n      sub\n        /* \"#utility.yul\":240:272   */\n      slt\n        /* \"#utility.yul\":237:239   */\n      iszero\n      tag_336\n      jumpi\n        /* \"#utility.yul\":290:296   */\n      dup1\n        /* \"#utility.yul\":282:288   */\n      dup2\n        /* \"#utility.yul\":275:297   */\n      revert\n        /* \"#utility.yul\":237:239   */\n    tag_336:\n        /* \"#utility.yul\":334:343   */\n      dup2\n        /* \"#utility.yul\":321:344   */\n      calldataload\n        /* \"#utility.yul\":353:386   */\n      tag_192\n        /* \"#utility.yul\":380:385   */\n      dup2\n        /* \"#utility.yul\":353:386   */\n      tag_334\n      jump\t// in\n        /* \"#utility.yul\":421:684   */\n    tag_247:\n      0x00\n        /* \"#utility.yul\":544:546   */\n      0x20\n        /* \"#utility.yul\":532:541   */\n      dup3\n        /* \"#utility.yul\":523:530   */\n      dup5\n        /* \"#utility.yul\":519:542   */\n      sub\n        /* \"#utility.yul\":515:547   */\n      slt\n        /* \"#utility.yul\":512:514   */\n      iszero\n      tag_339\n      jumpi\n        /* \"#utility.yul\":565:571   */\n      dup1\n        /* \"#utility.yul\":557:563   */\n      dup2\n        /* \"#utility.yul\":550:572   */\n      revert\n        /* \"#utility.yul\":512:514   */\n    tag_339:\n        /* \"#utility.yul\":602:611   */\n      dup2\n        /* \"#utility.yul\":596:612   */\n      mload\n        /* \"#utility.yul\":621:654   */\n      tag_192\n        /* \"#utility.yul\":648:653   */\n      dup2\n        /* \"#utility.yul\":621:654   */\n      tag_334\n      jump\t// in\n        /* \"#utility.yul\":689:1091   */\n    tag_49:\n      0x00\n      dup1\n        /* \"#utility.yul\":818:820   */\n      0x40\n        /* \"#utility.yul\":806:815   */\n      dup4\n        /* \"#utility.yul\":797:804   */\n      dup6\n        /* \"#utility.yul\":793:816   */\n      sub\n        /* \"#utility.yul\":789:821   */\n      slt\n        /* \"#utility.yul\":786:788   */\n      iszero\n      tag_342\n      jumpi\n        /* \"#utility.yul\":839:845   */\n      dup1\n        /* \"#utility.yul\":831:837   */\n      dup2\n        /* \"#utility.yul\":824:846   */\n      revert\n        /* \"#utility.yul\":786:788   */\n    tag_342:\n        /* \"#utility.yul\":883:892   */\n      dup3\n        /* \"#utility.yul\":870:893   */\n      calldataload\n        /* \"#utility.yul\":902:935   */\n      tag_343\n        /* \"#utility.yul\":929:934   */\n      dup2\n        /* \"#utility.yul\":902:935   */\n      tag_334\n      jump\t// in\n    tag_343:\n        /* \"#utility.yul\":954:959   */\n      swap2\n      pop\n        /* \"#utility.yul\":1011:1013   */\n      0x20\n        /* \"#utility.yul\":996:1014   */\n      dup4\n      add\n        /* \"#utility.yul\":983:1015   */\n      calldataload\n        /* \"#utility.yul\":1024:1059   */\n      tag_344\n        /* \"#utility.yul\":983:1015   */\n      dup2\n        /* \"#utility.yul\":1024:1059   */\n      tag_334\n      jump\t// in\n    tag_344:\n        /* \"#utility.yul\":1078:1085   */\n      dup1\n        /* \"#utility.yul\":1068:1085   */\n      swap2\n      pop\n      pop\n        /* \"#utility.yul\":776:1091   */\n      swap3\n      pop\n      swap3\n      swap1\n      pop\n      jump\t// out\n        /* \"#utility.yul\":1096:1423   */\n    tag_59:\n      0x00\n      dup1\n        /* \"#utility.yul\":1225:1227   */\n      0x40\n        /* \"#utility.yul\":1213:1222   */\n      dup4\n        /* \"#utility.yul\":1204:1211   */\n      dup6\n        /* \"#utility.yul\":1200:1223   */\n      sub\n        /* \"#utility.yul\":1196:1228   */\n      slt\n        /* \"#utility.yul\":1193:1195   */\n      iszero\n      tag_346\n      jumpi\n        /* \"#utility.yul\":1246:1252   */\n      dup2\n        /* \"#utility.yul\":1238:1244   */\n      dup3\n        /* \"#utility.yul\":1231:1253   */\n      revert\n        /* \"#utility.yul\":1193:1195   */\n    tag_346:\n        /* \"#utility.yul\":1290:1299   */\n      dup3\n        /* \"#utility.yul\":1277:1300   */\n      calldataload\n        /* \"#utility.yul\":1309:1342   */\n      tag_347\n        /* \"#utility.yul\":1336:1341   */\n      dup2\n        /* \"#utility.yul\":1309:1342   */\n      tag_334\n      jump\t// in\n    tag_347:\n        /* \"#utility.yul\":1361:1366   */\n      swap5\n        /* \"#utility.yul\":1413:1415   */\n      0x20\n        /* \"#utility.yul\":1398:1416   */\n      swap4\n      swap1\n      swap4\n      add\n        /* \"#utility.yul\":1385:1417   */\n      calldataload\n      swap4\n      pop\n      pop\n      pop\n        /* \"#utility.yul\":1183:1423   */\n      jump\t// out\n        /* \"#utility.yul\":1428:2594   */\n    tag_68:\n      0x00\n        /* \"#utility.yul\":1543:1545   */\n      0x20\n        /* \"#utility.yul\":1586:1588   */\n      dup1\n        /* \"#utility.yul\":1574:1583   */\n      dup4\n        /* \"#utility.yul\":1565:1572   */\n      dup6\n        /* \"#utility.yul\":1561:1584   */\n      sub\n        /* \"#utility.yul\":1557:1589   */\n      slt\n        /* \"#utility.yul\":1554:1556   */\n      iszero\n      tag_349\n      jumpi\n        /* \"#utility.yul\":1607:1613   */\n      dup2\n        /* \"#utility.yul\":1599:1605   */\n      dup3\n        /* \"#utility.yul\":1592:1614   */\n      revert\n        /* \"#utility.yul\":1554:1556   */\n    tag_349:\n        /* \"#utility.yul\":1652:1661   */\n      dup3\n        /* \"#utility.yul\":1639:1662   */\n      calldataload\n        /* \"#utility.yul\":1681:1699   */\n      0xffffffffffffffff\n        /* \"#utility.yul\":1722:1724   */\n      dup1\n        /* \"#utility.yul\":1714:1720   */\n      dup3\n        /* \"#utility.yul\":1711:1725   */\n      gt\n        /* \"#utility.yul\":1708:1710   */\n      iszero\n      tag_350\n      jumpi\n        /* \"#utility.yul\":1743:1749   */\n      dup4\n        /* \"#utility.yul\":1735:1741   */\n      dup5\n        /* \"#utility.yul\":1728:1750   */\n      revert\n        /* \"#utility.yul\":1708:1710   */\n    tag_350:\n        /* \"#utility.yul\":1786:1792   */\n      dup2\n        /* \"#utility.yul\":1775:1784   */\n      dup6\n        /* \"#utility.yul\":1771:1793   */\n      add\n        /* \"#utility.yul\":1761:1793   */\n      swap2\n      pop\n        /* \"#utility.yul\":1831:1838   */\n      dup6\n        /* \"#utility.yul\":1824:1828   */\n      0x1f\n        /* \"#utility.yul\":1820:1822   */\n      dup4\n        /* \"#utility.yul\":1816:1829   */\n      add\n        /* \"#utility.yul\":1812:1839   */\n      slt\n        /* \"#utility.yul\":1802:1804   */\n      tag_351\n      jumpi\n        /* \"#utility.yul\":1858:1864   */\n      dup4\n        /* \"#utility.yul\":1850:1856   */\n      dup5\n        /* \"#utility.yul\":1843:1865   */\n      revert\n        /* \"#utility.yul\":1802:1804   */\n    tag_351:\n        /* \"#utility.yul\":1899:1901   */\n      dup2\n        /* \"#utility.yul\":1886:1902   */\n      calldataload\n        /* \"#utility.yul\":1921:1923   */\n      dup2\n        /* \"#utility.yul\":1917:1919   */\n      dup2\n        /* \"#utility.yul\":1914:1924   */\n      gt\n        /* \"#utility.yul\":1911:1913   */\n      iszero\n      tag_353\n      jumpi\n        /* \"#utility.yul\":1927:1945   */\n      tag_353\n      tag_354\n      jump\t// in\n    tag_353:\n        /* \"#utility.yul\":1974:1976   */\n      dup4\n        /* \"#utility.yul\":1970:1972   */\n      dup2\n        /* \"#utility.yul\":1966:1977   */\n      mul\n        /* \"#utility.yul\":2006:2008   */\n      0x40\n        /* \"#utility.yul\":2000:2009   */\n      mload\n        /* \"#utility.yul\":2057:2059   */\n      dup6\n        /* \"#utility.yul\":2052:2054   */\n      dup3\n        /* \"#utility.yul\":2044:2050   */\n      dup3\n        /* \"#utility.yul\":2040:2055   */\n      add\n        /* \"#utility.yul\":2036:2060   */\n      add\n        /* \"#utility.yul\":2110:2116   */\n      dup2\n        /* \"#utility.yul\":2098:2108   */\n      dup2\n        /* \"#utility.yul\":2095:2117   */\n      lt\n        /* \"#utility.yul\":2090:2092   */\n      dup6\n        /* \"#utility.yul\":2078:2088   */\n      dup3\n        /* \"#utility.yul\":2075:2093   */\n      gt\n        /* \"#utility.yul\":2072:2118   */\n      or\n        /* \"#utility.yul\":2069:2071   */\n      iszero\n      tag_356\n      jumpi\n        /* \"#utility.yul\":2121:2139   */\n      tag_356\n      tag_354\n      jump\t// in\n    tag_356:\n        /* \"#utility.yul\":2157:2159   */\n      0x40\n        /* \"#utility.yul\":2150:2172   */\n      mstore\n        /* \"#utility.yul\":2207:2225   */\n      dup3\n      dup2\n      mstore\n        /* \"#utility.yul\":2241:2256   */\n      dup6\n      dup2\n      add\n      swap4\n      pop\n        /* \"#utility.yul\":2276:2287   */\n      dup5\n      dup7\n      add\n        /* \"#utility.yul\":2306:2317   */\n      dup3\n      dup7\n      add\n        /* \"#utility.yul\":2302:2322   */\n      dup8\n      add\n        /* \"#utility.yul\":2299:2332   */\n      dup11\n      lt\n        /* \"#utility.yul\":2296:2298   */\n      iszero\n      tag_357\n      jumpi\n        /* \"#utility.yul\":2350:2356   */\n      dup8\n        /* \"#utility.yul\":2342:2348   */\n      dup9\n        /* \"#utility.yul\":2335:2357   */\n      revert\n        /* \"#utility.yul\":2296:2298   */\n    tag_357:\n        /* \"#utility.yul\":2377:2383   */\n      dup8\n        /* \"#utility.yul\":2368:2383   */\n      swap6\n      pop\n        /* \"#utility.yul\":2392:2563   */\n    tag_358:\n        /* \"#utility.yul\":2406:2408   */\n      dup4\n        /* \"#utility.yul\":2403:2404   */\n      dup7\n        /* \"#utility.yul\":2400:2409   */\n      lt\n        /* \"#utility.yul\":2392:2563   */\n      iszero\n      tag_360\n      jumpi\n        /* \"#utility.yul\":2463:2488   */\n      tag_361\n        /* \"#utility.yul\":2484:2487   */\n      dup2\n        /* \"#utility.yul\":2463:2488   */\n      tag_331\n      jump\t// in\n    tag_361:\n        /* \"#utility.yul\":2451:2489   */\n      dup6\n      mstore\n        /* \"#utility.yul\":2424:2425   */\n      0x01\n        /* \"#utility.yul\":2417:2426   */\n      swap6\n      swap1\n      swap6\n      add\n      swap5\n        /* \"#utility.yul\":2509:2521   */\n      swap4\n      dup7\n      add\n      swap4\n        /* \"#utility.yul\":2541:2553   */\n      dup7\n      add\n        /* \"#utility.yul\":2392:2563   */\n      jump(tag_358)\n    tag_360:\n      pop\n        /* \"#utility.yul\":2582:2588   */\n      swap9\n        /* \"#utility.yul\":1523:2594   */\n      swap8\n      pop\n      pop\n      pop\n      pop\n      pop\n      pop\n      pop\n      pop\n      jump\t// out\n        /* \"#utility.yul\":2599:2896   */\n    tag_282:\n      0x00\n        /* \"#utility.yul\":2719:2721   */\n      0x20\n        /* \"#utility.yul\":2707:2716   */\n      dup3\n        /* \"#utility.yul\":2698:2705   */\n      dup5\n        /* \"#utility.yul\":2694:2717   */\n      sub\n        /* \"#utility.yul\":2690:2722   */\n      slt\n        /* \"#utility.yul\":2687:2689   */\n      iszero\n      tag_363\n      jumpi\n        /* \"#utility.yul\":2740:2746   */\n      dup1\n        /* \"#utility.yul\":2732:2738   */\n      dup2\n        /* \"#utility.yul\":2725:2747   */\n      revert\n        /* \"#utility.yul\":2687:2689   */\n    tag_363:\n        /* \"#utility.yul\":2777:2786   */\n      dup2\n        /* \"#utility.yul\":2771:2787   */\n      mload\n        /* \"#utility.yul\":2830:2835   */\n      dup1\n        /* \"#utility.yul\":2823:2836   */\n      iszero\n        /* \"#utility.yul\":2816:2837   */\n      iszero\n        /* \"#utility.yul\":2809:2814   */\n      dup2\n        /* \"#utility.yul\":2806:2838   */\n      eq\n        /* \"#utility.yul\":2796:2798   */\n      tag_192\n      jumpi\n        /* \"#utility.yul\":2857:2863   */\n      dup2\n        /* \"#utility.yul\":2849:2855   */\n      dup3\n        /* \"#utility.yul\":2842:2864   */\n      revert\n        /* \"#utility.yul\":2901:3095   */\n    tag_273:\n      0x00\n        /* \"#utility.yul\":3024:3026   */\n      0x20\n        /* \"#utility.yul\":3012:3021   */\n      dup3\n        /* \"#utility.yul\":3003:3010   */\n      dup5\n        /* \"#utility.yul\":2999:3022   */\n      sub\n        /* \"#utility.yul\":2995:3027   */\n      slt\n        /* \"#utility.yul\":2992:2994   */\n      iszero\n      tag_366\n      jumpi\n        /* \"#utility.yul\":3045:3051   */\n      dup1\n        /* \"#utility.yul\":3037:3043   */\n      dup2\n        /* \"#utility.yul\":3030:3052   */\n      revert\n        /* \"#utility.yul\":2992:2994   */\n    tag_366:\n      pop\n        /* \"#utility.yul\":3073:3089   */\n      mload\n      swap2\n        /* \"#utility.yul\":2982:3095   */\n      swap1\n      pop\n      jump\t// out\n        /* \"#utility.yul\":3100:3303   */\n    tag_43:\n      sub(shl(0xa0, 0x01), 0x01)\n        /* \"#utility.yul\":3264:3296   */\n      swap2\n      swap1\n      swap2\n      and\n        /* \"#utility.yul\":3246:3297   */\n      dup2\n      mstore\n        /* \"#utility.yul\":3234:3236   */\n      0x20\n        /* \"#utility.yul\":3219:3237   */\n      add\n      swap1\n        /* \"#utility.yul\":3201:3303   */\n      jump\t// out\n        /* \"#utility.yul\":3308:3612   */\n    tag_320:\n      sub(shl(0xa0, 0x01), 0x01)\n        /* \"#utility.yul\":3538:3553   */\n      swap3\n      dup4\n      and\n        /* \"#utility.yul\":3520:3554   */\n      dup2\n      mstore\n        /* \"#utility.yul\":3590:3605   */\n      swap2\n      and\n        /* \"#utility.yul\":3585:3587   */\n      0x20\n        /* \"#utility.yul\":3570:3588   */\n      dup3\n      add\n        /* \"#utility.yul\":3563:3606   */\n      mstore\n        /* \"#utility.yul\":3470:3472   */\n      0x40\n        /* \"#utility.yul\":3455:3473   */\n      add\n      swap1\n        /* \"#utility.yul\":3437:3612   */\n      jump\t// out\n        /* \"#utility.yul\":3617:4278   */\n    tag_56:\n        /* \"#utility.yul\":3788:3790   */\n      0x20\n        /* \"#utility.yul\":3840:3861   */\n      dup1\n      dup3\n      mstore\n        /* \"#utility.yul\":3910:3923   */\n      dup3\n      mload\n        /* \"#utility.yul\":3813:3831   */\n      dup3\n      dup3\n      add\n        /* \"#utility.yul\":3932:3954   */\n      dup2\n      swap1\n      mstore\n        /* \"#utility.yul\":3617:4278   */\n      0x00\n      swap2\n        /* \"#utility.yul\":3788:3790   */\n      swap1\n        /* \"#utility.yul\":4011:4026   */\n      dup5\n      dup3\n      add\n      swap1\n        /* \"#utility.yul\":3985:3987   */\n      0x40\n        /* \"#utility.yul\":3970:3988   */\n      dup6\n      add\n      swap1\n        /* \"#utility.yul\":3617:4278   */\n      dup5\n        /* \"#utility.yul\":4057:4252   */\n    tag_370:\n        /* \"#utility.yul\":4071:4077   */\n      dup2\n        /* \"#utility.yul\":4068:4069   */\n      dup2\n        /* \"#utility.yul\":4065:4078   */\n      lt\n        /* \"#utility.yul\":4057:4252   */\n      iszero\n      tag_372\n      jumpi\n        /* \"#utility.yul\":4136:4149   */\n      dup4\n      mload\n      sub(shl(0xa0, 0x01), 0x01)\n        /* \"#utility.yul\":4132:4171   */\n      and\n        /* \"#utility.yul\":4120:4172   */\n      dup4\n      mstore\n        /* \"#utility.yul\":4227:4242   */\n      swap3\n      dup5\n      add\n      swap3\n        /* \"#utility.yul\":4192:4204   */\n      swap2\n      dup5\n      add\n      swap2\n        /* \"#utility.yul\":4168:4169   */\n      0x01\n        /* \"#utility.yul\":4086:4095   */\n      add\n        /* \"#utility.yul\":4057:4252   */\n      jump(tag_370)\n    tag_372:\n      pop\n        /* \"#utility.yul\":4269:4272   */\n      swap1\n      swap7\n        /* \"#utility.yul\":3768:4278   */\n      swap6\n      pop\n      pop\n      pop\n      pop\n      pop\n      pop\n      jump\t// out\n        /* \"#utility.yul\":4283:4470   */\n    tag_38:\n        /* \"#utility.yul\":4448:4462   */\n      swap1\n      iszero\n        /* \"#utility.yul\":4441:4463   */\n      iszero\n        /* \"#utility.yul\":4423:4464   */\n      dup2\n      mstore\n        /* \"#utility.yul\":4411:4413   */\n      0x20\n        /* \"#utility.yul\":4396:4414   */\n      add\n      swap1\n        /* \"#utility.yul\":4378:4470   */\n      jump\t// out\n        /* \"#utility.yul\":4709:5179   */\n    tag_267:\n        /* \"#utility.yul\":4911:4913   */\n      0x20\n        /* \"#utility.yul\":4893:4914   */\n      dup1\n      dup3\n      mstore\n        /* \"#utility.yul\":4950:4952   */\n      0x42\n        /* \"#utility.yul\":4930:4948   */\n      swap1\n      dup3\n      add\n        /* \"#utility.yul\":4923:4953   */\n      mstore\n        /* \"#utility.yul\":4989:5023   */\n      0x5472616e73666572526570546f4d61737465723a20696e707574205f776f726b\n        /* \"#utility.yul\":4984:4986   */\n      0x40\n        /* \"#utility.yul\":4969:4987   */\n      dup3\n      add\n        /* \"#utility.yul\":4962:5024   */\n      mstore\n        /* \"#utility.yul\":5060:5094   */\n      0x6572206e6565647320746f20686176652061206e6f6e2d6e756c6c206d617374\n        /* \"#utility.yul\":5055:5057   */\n      0x60\n        /* \"#utility.yul\":5040:5058   */\n      dup3\n      add\n        /* \"#utility.yul\":5033:5095   */\n      mstore\n      shl(0xf1, 0x32b9)\n        /* \"#utility.yul\":5126:5129   */\n      0x80\n        /* \"#utility.yul\":5111:5130   */\n      dup3\n      add\n        /* \"#utility.yul\":5104:5137   */\n      mstore\n        /* \"#utility.yul\":5169:5172   */\n      0xa0\n        /* \"#utility.yul\":5154:5173   */\n      add\n      swap1\n        /* \"#utility.yul\":4883:5179   */\n      jump\t// out\n        /* \"#utility.yul\":5184:5599   */\n    tag_327:\n        /* \"#utility.yul\":5386:5388   */\n      0x20\n        /* \"#utility.yul\":5368:5389   */\n      dup1\n      dup3\n      mstore\n        /* \"#utility.yul\":5425:5427   */\n      0x33\n        /* \"#utility.yul\":5405:5423   */\n      swap1\n      dup3\n      add\n        /* \"#utility.yul\":5398:5428   */\n      mstore\n        /* \"#utility.yul\":5464:5498   */\n      0x5472616e7366657252657761726473546f4d61737465723a20636f756c64206e\n        /* \"#utility.yul\":5459:5461   */\n      0x40\n        /* \"#utility.yul\":5444:5462   */\n      dup3\n      add\n        /* \"#utility.yul\":5437:5499   */\n      mstore\n      shl(0x68, 0x6f74207472616e736665722072657761726473)\n        /* \"#utility.yul\":5530:5532   */\n      0x60\n        /* \"#utility.yul\":5515:5533   */\n      dup3\n      add\n        /* \"#utility.yul\":5508:5557   */\n      mstore\n        /* \"#utility.yul\":5589:5592   */\n      0x80\n        /* \"#utility.yul\":5574:5593   */\n      add\n      swap1\n        /* \"#utility.yul\":5358:5599   */\n      jump\t// out\n        /* \"#utility.yul\":5604:5959   */\n    tag_309:\n        /* \"#utility.yul\":5806:5808   */\n      0x20\n        /* \"#utility.yul\":5788:5809   */\n      dup1\n      dup3\n      mstore\n        /* \"#utility.yul\":5845:5847   */\n      0x1f\n        /* \"#utility.yul\":5825:5843   */\n      swap1\n      dup3\n      add\n        /* \"#utility.yul\":5818:5848   */\n      mstore\n        /* \"#utility.yul\":5884:5917   */\n      0x5265776172644d616e61676572206e6565647320746f20626520736574757000\n        /* \"#utility.yul\":5879:5881   */\n      0x40\n        /* \"#utility.yul\":5864:5882   */\n      dup3\n      add\n        /* \"#utility.yul\":5857:5918   */\n      mstore\n        /* \"#utility.yul\":5950:5952   */\n      0x60\n        /* \"#utility.yul\":5935:5953   */\n      add\n      swap1\n        /* \"#utility.yul\":5778:5959   */\n      jump\t// out\n        /* \"#utility.yul\":5964:6366   */\n    tag_207:\n        /* \"#utility.yul\":6166:6168   */\n      0x20\n        /* \"#utility.yul\":6148:6169   */\n      dup1\n      dup3\n      mstore\n        /* \"#utility.yul\":6205:6207   */\n      0x26\n        /* \"#utility.yul\":6185:6203   */\n      swap1\n      dup3\n      add\n        /* \"#utility.yul\":6178:6208   */\n      mstore\n        /* \"#utility.yul\":6244:6278   */\n      0x4f776e61626c653a206e6577206f776e657220697320746865207a65726f2061\n        /* \"#utility.yul\":6239:6241   */\n      0x40\n        /* \"#utility.yul\":6224:6242   */\n      dup3\n      add\n        /* \"#utility.yul\":6217:6279   */\n      mstore\n      shl(0xd0, 0x646472657373)\n        /* \"#utility.yul\":6310:6312   */\n      0x60\n        /* \"#utility.yul\":6295:6313   */\n      dup3\n      add\n        /* \"#utility.yul\":6288:6324   */\n      mstore\n        /* \"#utility.yul\":6356:6359   */\n      0x80\n        /* \"#utility.yul\":6341:6360   */\n      add\n      swap1\n        /* \"#utility.yul\":6138:6366   */\n      jump\t// out\n        /* \"#utility.yul\":6371:6785   */\n    tag_161:\n        /* \"#utility.yul\":6573:6575   */\n      0x20\n        /* \"#utility.yul\":6555:6576   */\n      dup1\n      dup3\n      mstore\n        /* \"#utility.yul\":6612:6614   */\n      0x32\n        /* \"#utility.yul\":6592:6610   */\n      swap1\n      dup3\n      add\n        /* \"#utility.yul\":6585:6615   */\n      mstore\n        /* \"#utility.yul\":6651:6685   */\n      0x43616e27742072656d6f76653a204d6173746572206e6f7420636c61696d696e\n        /* \"#utility.yul\":6646:6648   */\n      0x40\n        /* \"#utility.yul\":6631:6649   */\n      dup3\n      add\n        /* \"#utility.yul\":6624:6686   */\n      mstore\n      shl(0x70, 0x672074686973205375622041646472657373)\n        /* \"#utility.yul\":6717:6719   */\n      0x60\n        /* \"#utility.yul\":6702:6720   */\n      dup3\n      add\n        /* \"#utility.yul\":6695:6743   */\n      mstore\n        /* \"#utility.yul\":6775:6778   */\n      0x80\n        /* \"#utility.yul\":6760:6779   */\n      add\n      swap1\n        /* \"#utility.yul\":6545:6785   */\n      jump\t// out\n        /* \"#utility.yul\":6790:7189   */\n    tag_302:\n        /* \"#utility.yul\":6992:6994   */\n      0x20\n        /* \"#utility.yul\":6974:6995   */\n      dup1\n      dup3\n      mstore\n        /* \"#utility.yul\":7031:7033   */\n      0x23\n        /* \"#utility.yul\":7011:7029   */\n      swap1\n      dup3\n      add\n        /* \"#utility.yul\":7004:7034   */\n      mstore\n        /* \"#utility.yul\":7070:7104   */\n      0x5265776172644d616e61676572206973206e756c6c20696e20506172616d6574\n        /* \"#utility.yul\":7065:7067   */\n      0x40\n        /* \"#utility.yul\":7050:7068   */\n      dup3\n      add\n        /* \"#utility.yul\":7043:7105   */\n      mstore\n      shl(0xe8, 0x657273)\n        /* \"#utility.yul\":7136:7138   */\n      0x60\n        /* \"#utility.yul\":7121:7139   */\n      dup3\n      add\n        /* \"#utility.yul\":7114:7147   */\n      mstore\n        /* \"#utility.yul\":7179:7182   */\n      0x80\n        /* \"#utility.yul\":7164:7183   */\n      add\n      swap1\n        /* \"#utility.yul\":6964:7189   */\n      jump\t// out\n        /* \"#utility.yul\":7194:7607   */\n    tag_285:\n        /* \"#utility.yul\":7396:7398   */\n      0x20\n        /* \"#utility.yul\":7378:7399   */\n      dup1\n      dup3\n      mstore\n        /* \"#utility.yul\":7435:7437   */\n      0x31\n        /* \"#utility.yul\":7415:7433   */\n      swap1\n      dup3\n      add\n        /* \"#utility.yul\":7408:7438   */\n      mstore\n        /* \"#utility.yul\":7474:7508   */\n      0x5472616e73666572526570546f4d61737465723a20636f756c64206e6f74206d\n        /* \"#utility.yul\":7469:7471   */\n      0x40\n        /* \"#utility.yul\":7454:7472   */\n      dup3\n      add\n        /* \"#utility.yul\":7447:7509   */\n      mstore\n      shl(0x79, 0x34b73a102932b8103a379036b0b9ba32b9)\n        /* \"#utility.yul\":7540:7542   */\n      0x60\n        /* \"#utility.yul\":7525:7543   */\n      dup3\n      add\n        /* \"#utility.yul\":7518:7565   */\n      mstore\n        /* \"#utility.yul\":7597:7600   */\n      0x80\n        /* \"#utility.yul\":7582:7601   */\n      add\n      swap1\n        /* \"#utility.yul\":7368:7607   */\n      jump\t// out\n        /* \"#utility.yul\":7612:8027   */\n    tag_293:\n        /* \"#utility.yul\":7814:7816   */\n      0x20\n        /* \"#utility.yul\":7796:7817   */\n      dup1\n      dup3\n      mstore\n        /* \"#utility.yul\":7853:7855   */\n      0x33\n        /* \"#utility.yul\":7833:7851   */\n      swap1\n      dup3\n      add\n        /* \"#utility.yul\":7826:7856   */\n      mstore\n        /* \"#utility.yul\":7892:7926   */\n      0x5472616e73666572526570546f4d61737465723a20636f756c64206e6f742062\n        /* \"#utility.yul\":7887:7889   */\n      0x40\n        /* \"#utility.yul\":7872:7890   */\n      dup3\n      add\n        /* \"#utility.yul\":7865:7927   */\n      mstore\n      shl(0x69, 0x3ab937102932b810333937b6903bb7b935b2b9)\n        /* \"#utility.yul\":7958:7960   */\n      0x60\n        /* \"#utility.yul\":7943:7961   */\n      dup3\n      add\n        /* \"#utility.yul\":7936:7985   */\n      mstore\n        /* \"#utility.yul\":8017:8020   */\n      0x80\n        /* \"#utility.yul\":8002:8021   */\n      add\n      swap1\n        /* \"#utility.yul\":7786:8027   */\n      jump\t// out\n        /* \"#utility.yul\":8032:8388   */\n    tag_224:\n        /* \"#utility.yul\":8234:8236   */\n      0x20\n        /* \"#utility.yul\":8216:8237   */\n      dup1\n      dup3\n      mstore\n        /* \"#utility.yul\":8253:8271   */\n      dup2\n      dup2\n      add\n        /* \"#utility.yul\":8246:8276   */\n      mstore\n        /* \"#utility.yul\":8312:8346   */\n      0x4f776e61626c653a2063616c6c6572206973206e6f7420746865206f776e6572\n        /* \"#utility.yul\":8307:8309   */\n      0x40\n        /* \"#utility.yul\":8292:8310   */\n      dup3\n      add\n        /* \"#utility.yul\":8285:8347   */\n      mstore\n        /* \"#utility.yul\":8379:8381   */\n      0x60\n        /* \"#utility.yul\":8364:8382   */\n      add\n      swap1\n        /* \"#utility.yul\":8206:8388   */\n      jump\t// out\n        /* \"#utility.yul\":8393:8819   */\n    tag_131:\n        /* \"#utility.yul\":8595:8597   */\n      0x20\n        /* \"#utility.yul\":8577:8598   */\n      dup1\n      dup3\n      mstore\n        /* \"#utility.yul\":8634:8636   */\n      0x3e\n        /* \"#utility.yul\":8614:8632   */\n      swap1\n      dup3\n      add\n        /* \"#utility.yul\":8607:8637   */\n      mstore\n        /* \"#utility.yul\":8673:8707   */\n      0x4665746368486967686573744d61737465723a20696e707574205f776f726b65\n        /* \"#utility.yul\":8668:8670   */\n      0x40\n        /* \"#utility.yul\":8653:8671   */\n      dup3\n      add\n        /* \"#utility.yul\":8646:8708   */\n      mstore\n        /* \"#utility.yul\":8744:8776   */\n      0x72206e6565647320746f206265206e6f6e206e756c6c20616464726573730000\n        /* \"#utility.yul\":8739:8741   */\n      0x60\n        /* \"#utility.yul\":8724:8742   */\n      dup3\n      add\n        /* \"#utility.yul\":8717:8777   */\n      mstore\n        /* \"#utility.yul\":8809:8812   */\n      0x80\n        /* \"#utility.yul\":8794:8813   */\n      add\n      swap1\n        /* \"#utility.yul\":8567:8819   */\n      jump\t// out\n        /* \"#utility.yul\":8824:9180   */\n    tag_250:\n        /* \"#utility.yul\":9026:9028   */\n      0x20\n        /* \"#utility.yul\":9008:9029   */\n      dup1\n      dup3\n      mstore\n        /* \"#utility.yul\":9045:9063   */\n      dup2\n      dup2\n      add\n        /* \"#utility.yul\":9038:9068   */\n      mstore\n        /* \"#utility.yul\":9104:9138   */\n      0x5265704d616e61676572206973206e756c6c20696e20506172616d6574657273\n        /* \"#utility.yul\":9099:9101   */\n      0x40\n        /* \"#utility.yul\":9084:9102   */\n      dup3\n      add\n        /* \"#utility.yul\":9077:9139   */\n      mstore\n        /* \"#utility.yul\":9171:9173   */\n      0x60\n        /* \"#utility.yul\":9156:9174   */\n      add\n      swap1\n        /* \"#utility.yul\":8998:9180   */\n      jump\t// out\n        /* \"#utility.yul\":9185:9595   */\n    tag_168:\n        /* \"#utility.yul\":9387:9389   */\n      0x20\n        /* \"#utility.yul\":9369:9390   */\n      dup1\n      dup3\n      mstore\n        /* \"#utility.yul\":9426:9428   */\n      0x2e\n        /* \"#utility.yul\":9406:9424   */\n      swap1\n      dup3\n      add\n        /* \"#utility.yul\":9399:9429   */\n      mstore\n        /* \"#utility.yul\":9465:9499   */\n      0x43616e27742072656d6f7665204d61737465723a206e6f7420636c61696d696e\n        /* \"#utility.yul\":9460:9462   */\n      0x40\n        /* \"#utility.yul\":9445:9463   */\n      dup3\n      add\n        /* \"#utility.yul\":9438:9500   */\n      mstore\n      shl(0x90, 0x6720746869732061646472657373)\n        /* \"#utility.yul\":9531:9533   */\n      0x60\n        /* \"#utility.yul\":9516:9534   */\n      dup3\n      add\n        /* \"#utility.yul\":9509:9553   */\n      mstore\n        /* \"#utility.yul\":9585:9588   */\n      0x80\n        /* \"#utility.yul\":9570:9589   */\n      add\n      swap1\n        /* \"#utility.yul\":9359:9595   */\n      jump\t// out\n        /* \"#utility.yul\":9600:10004   */\n    tag_277:\n        /* \"#utility.yul\":9865:9890   */\n      swap2\n      dup3\n      mstore\n      sub(shl(0xa0, 0x01), 0x01)\n        /* \"#utility.yul\":9926:9958   */\n      and\n        /* \"#utility.yul\":9921:9923   */\n      0x20\n        /* \"#utility.yul\":9906:9924   */\n      dup3\n      add\n        /* \"#utility.yul\":9899:9959   */\n      mstore\n        /* \"#utility.yul\":9600:10004   */\n      0x00\n        /* \"#utility.yul\":9990:9992   */\n      0x40\n        /* \"#utility.yul\":9975:9993   */\n      dup3\n      add\n        /* \"#utility.yul\":9968:9998   */\n      mstore\n        /* \"#utility.yul\":9853:9855   */\n      0x60\n        /* \"#utility.yul\":9838:9856   */\n      add\n      swap1\n        /* \"#utility.yul\":9820:10004   */\n      jump\t// out\n        /* \"#utility.yul\":10009:10134   */\n    tag_136:\n      0x00\n        /* \"#utility.yul\":10077:10078   */\n      dup3\n        /* \"#utility.yul\":10074:10075   */\n      dup3\n        /* \"#utility.yul\":10071:10079   */\n      lt\n        /* \"#utility.yul\":10068:10070   */\n      iszero\n      tag_390\n      jumpi\n        /* \"#utility.yul\":10082:10100   */\n      tag_390\n      tag_391\n      jump\t// in\n    tag_390:\n      pop\n        /* \"#utility.yul\":10119:10128   */\n      sub\n      swap1\n        /* \"#utility.yul\":10058:10134   */\n      jump\t// out\n        /* \"#utility.yul\":10139:10274   */\n    tag_157:\n      0x00\n      not(0x00)\n        /* \"#utility.yul\":10199:10216   */\n      dup3\n      eq\n        /* \"#utility.yul\":10196:10198   */\n      iszero\n      tag_394\n      jumpi\n        /* \"#utility.yul\":10219:10237   */\n      tag_394\n      tag_391\n      jump\t// in\n    tag_394:\n      pop\n        /* \"#utility.yul\":10266:10267   */\n      0x01\n        /* \"#utility.yul\":10255:10268   */\n      add\n      swap1\n        /* \"#utility.yul\":10186:10274   */\n      jump\t// out\n        /* \"#utility.yul\":10279:10406   */\n    tag_391:\n        /* \"#utility.yul\":10340:10350   */\n      0x4e487b71\n        /* \"#utility.yul\":10335:10338   */\n      0xe0\n        /* \"#utility.yul\":10331:10351   */\n      shl\n        /* \"#utility.yul\":10328:10329   */\n      0x00\n        /* \"#utility.yul\":10321:10352   */\n      mstore\n        /* \"#utility.yul\":10371:10375   */\n      0x11\n        /* \"#utility.yul\":10368:10369   */\n      0x04\n        /* \"#utility.yul\":10361:10376   */\n      mstore\n        /* \"#utility.yul\":10395:10399   */\n      0x24\n        /* \"#utility.yul\":10392:10393   */\n      0x00\n        /* \"#utility.yul\":10385:10400   */\n      revert\n        /* \"#utility.yul\":10411:10538   */\n    tag_354:\n        /* \"#utility.yul\":10472:10482   */\n      0x4e487b71\n        /* \"#utility.yul\":10467:10470   */\n      0xe0\n        /* \"#utility.yul\":10463:10483   */\n      shl\n        /* \"#utility.yul\":10460:10461   */\n      0x00\n        /* \"#utility.yul\":10453:10484   */\n      mstore\n        /* \"#utility.yul\":10503:10507   */\n      0x41\n        /* \"#utility.yul\":10500:10501   */\n      0x04\n        /* \"#utility.yul\":10493:10508   */\n      mstore\n        /* \"#utility.yul\":10527:10531   */\n      0x24\n        /* \"#utility.yul\":10524:10525   */\n      0x00\n        /* \"#utility.yul\":10517:10532   */\n      revert\n        /* \"#utility.yul\":10543:10676   */\n    tag_334:\n      sub(shl(0xa0, 0x01), 0x01)\n        /* \"#utility.yul\":10620:10651   */\n      dup2\n      and\n        /* \"#utility.yul\":10610:10652   */\n      dup2\n      eq\n        /* \"#utility.yul\":10600:10602   */\n      tag_208\n      jumpi\n        /* \"#utility.yul\":10666:10667   */\n      0x00\n        /* \"#utility.yul\":10663:10664   */\n      dup1\n        /* \"#utility.yul\":10656:10668   */\n      revert\n\n    auxdata: 0xa2646970667358221220429d6d709dd8b851a6f9d4ee0dd3f46d70a8f30725ff94f56cd7ed506976514764736f6c63430008000033\n}\n",
				"bytecode": {
					"linkReferences": {},
					"object": "60806040526005805534801561001457600080fd5b5061002561002061002a565b61002e565b61007e565b3390565b600080546001600160a01b038381166001600160a01b0319831681178455604051919092169283917f8be0079c531659141344cd1fd0a4f28419497f9722a3daafe3b4186f6b6457e09190a35050565b611d4c8061008d6000396000f3fe608060405234801561001057600080fd5b50600436106101585760003560e01c80638213b8d8116100c3578063df77a0f61161007c578063df77a0f6146102bc578063e4f1d0fd146102cf578063f25e9ed2146102e2578063f2fde38b146102f5578063f77c865814610308578063ff43de9d1461031b57610158565b80638213b8d8146102685780638da5cb5b1461027b57806396daff56146102835780639f62c37914610296578063ac8d65cb14610283578063db519824146102a957610158565b80632e3ce457116101155780632e3ce45714610201578063342bffbf1461021457806339c3f6e7146102275780634826d0431461023a578063584720f51461024d578063715018a61461026057610158565b8063059576231461015d5780630c06e4df14610172578063118150861461019b57806312ccb147146101bb5780631778f9c8146101ce578063198ff3dc146101e1575b600080fd5b61017061016b3660046116e5565b610323565b005b6101856101803660046116e5565b610360565b60405161019291906118f4565b60405180910390f35b6101ae6101a93660046116e5565b61038d565b6040516101929190611879565b6101706101c93660046116e5565b610436565b6101856101dc36600461171d565b6104c9565b6101f46101ef3660046116e5565b6104e9565b60405161019291906118a7565b6101ae61020f366004611755565b61055f565b61018561022236600461171d565b610597565b610170610235366004611780565b6105b7565b6101706102483660046116e5565b610777565b61017061025b3660046116e5565b610828565b6101706108de565b610170610276366004611780565b6108f2565b6101ae610a7c565b61018561029136600461171d565b610a8b565b6101856102a436600461171d565b610ab9565b6101856102b73660046116e5565b610add565b6101706102ca3660046116e5565b610b06565b6101ae6102dd3660046116e5565b610b9b565b6101ae6102f03660046116e5565b610bb6565b6101706103033660046116e5565b610bd4565b61018561031636600461171d565b610c0e565b6101ae610cf3565b61032b610d02565b6001600160a01b03811661033e57600080fd5b600680546001600160a01b0319166001600160a01b0392909216919091179055565b3360009081526001602090815260408083206001600160a01b038516845290915290205460ff165b919050565b60006001600160a01b0382166103be5760405162461bcd60e51b81526004016103b590611ba5565b60405180910390fd5b6001600160a01b0380831660009081526004602052604090205460055491169083905b6001600160a01b038316158015906103f95750600081115b1561042e576001600160a01b0380841660009081526004602052604090205416929150610427600182611ca3565b90506103e1565b509392505050565b3360008181526001602081815260408084206001600160a01b038716808652908352818520805460ff191685179055858552600383528185208054948501815585529190932090910180546001600160a01b0319169091179055517f8902b85532bfc55a9f5b6e6a9576366640928b3be984b3a61167a210ca2bbc57906104be908490611879565b60405180910390a250565b600260209081526000928352604080842090915290825290205460ff1681565b6001600160a01b03811660009081526003602090815260409182902080548351818402810184019094528084526060939283018282801561055357602002820191906000526020600020905b81546001600160a01b03168152600190910190602001808311610535575b50505050509050919050565b6003602052816000526040600020818154811061057b57600080fd5b6000918252602090912001546001600160a01b03169150829050565b600160209081526000928352604080842090915290825290205460ff1681565b60005b81518110156107735733600090815260016020526040812083519091908490849081106105f757634e487b7160e01b600052603260045260246000fd5b6020908102919091018101516001600160a01b031682528101919091526040016000205460ff16151560011461076157336000908152600160208190526040822084519192909185908590811061065e57634e487b7160e01b600052603260045260246000fd5b6020908102919091018101516001600160a01b031682528181019290925260409081016000908120805460ff1916941515949094179093553383526003909152902082518390839081106106c257634e487b7160e01b600052603260045260246000fd5b60209081029190910181015182546001810184556000938452919092200180546001600160a01b0319166001600160a01b03909216919091179055815133907f8902b85532bfc55a9f5b6e6a9576366640928b3be984b3a61167a210ca2bbc579084908490811061074357634e487b7160e01b600052603260045260246000fd5b60200260200101516040516107589190611879565b60405180910390a25b8061076b81611cba565b9150506105ba565b5050565b3360009081526001602090815260408083206001600160a01b038516845290915290205460ff166107ba5760405162461bcd60e51b81526004016103b590611a37565b3360008181526001602090815260408083206001600160a01b03861684529091529020805460ff191690556107ef9082610d41565b336001600160a01b03167f7a24ac72e272dd8c83b793ae84448c72032b95723856486219c79dd722fe4292826040516104be9190611879565b6001600160a01b038116600090815260026020908152604080832033845290915290205460ff1661086b5760405162461bcd60e51b81526004016103b590611c37565b6001600160a01b038116600090815260026020908152604080832033808552908352818420805460ff1916905560049092529182902080546001600160a01b031916905590517f0d7169440daf0897d7f4486a35eef15a070460981ff18ab846aa2199f171118e906104be908490611879565b6108e6610d02565b6108f06000610eef565b565b60005b815181101561077357336000908152600160205260408120835190919084908490811061093257634e487b7160e01b600052603260045260246000fd5b6020908102919091018101516001600160a01b031682528101919091526040016000205460ff1615610a6a573360009081526001602052604081208351829085908590811061099157634e487b7160e01b600052603260045260246000fd5b60200260200101516001600160a01b03166001600160a01b0316815260200190815260200160002060006101000a81548160ff021916908315150217905550610a01338383815181106109f457634e487b7160e01b600052603260045260246000fd5b6020026020010151610d41565b336001600160a01b03167f7a24ac72e272dd8c83b793ae84448c72032b95723856486219c79dd722fe4292838381518110610a4c57634e487b7160e01b600052603260045260246000fd5b6020026020010151604051610a619190611879565b60405180910390a25b80610a7481611cba565b9150506108f5565b6000546001600160a01b031690565b6001600160a01b03918216600090815260016020908152604080832093909416825291909152205460ff1690565b6000610ac58383610a8b565b8015610ad65750610ad68383610a8b565b9392505050565b6001600160a01b0316600090815260016020908152604080832033845290915290205460ff1690565b6001600160a01b038116600081815260026020908152604080832033808552908352818420805460ff19166001179055600490925290912080546001600160a01b031916909217909155610b5990610f3f565b610b62336113dd565b336001600160a01b03167f85851bdf5239daecee00c49afa200b87f208a1cc246f3c3da177796c9f605d73826040516104be9190611879565b6004602052600090815260409020546001600160a01b031681565b6001600160a01b039081166000908152600460205260409020541690565b610bdc610d02565b6001600160a01b038116610c025760405162461bcd60e51b81526004016103b5906119f1565b610c0b81610eef565b50565b6001600160a01b0381166000908152600360209081526040808320805482518185028101850190935280835284938493929190830182828015610c7a57602002820191906000526020600020905b81546001600160a01b03168152600190910190602001808311610c5c575b5050505050905060005b8151811015610ce957856001600160a01b0316828281518110610cb757634e487b7160e01b600052603260045260246000fd5b60200260200101516001600160a01b03161415610cd75760019250610ce9565b80610ce181611cba565b915050610c84565b5090949350505050565b6006546001600160a01b031681565b610d0a6116d6565b6001600160a01b0316610d1b610a7c565b6001600160a01b0316146108f05760405162461bcd60e51b81526004016103b590611b70565b60008060005b6001600160a01b038516600090815260036020526040902054811015610ddd576001600160a01b03858116600090815260036020526040902080549186169183908110610da457634e487b7160e01b600052603260045260246000fd5b6000918252602090912001546001600160a01b03161415610dcb5760019150809250610ddd565b80610dd581611cba565b915050610d47565b508015610ee9576001600160a01b03841660009081526003602052604090208054610e0a90600190611ca3565b81548110610e2857634e487b7160e01b600052603260045260246000fd5b60009182526020808320909101546001600160a01b03878116845260039092526040909220805491909216919084908110610e7357634e487b7160e01b600052603260045260246000fd5b600091825260208083209190910180546001600160a01b0319166001600160a01b039485161790559186168152600390915260409020805480610ec657634e487b7160e01b600052603160045260246000fd5b600082815260209020810160001990810180546001600160a01b03191690550190555b50505050565b600080546001600160a01b038381166001600160a01b0319831681178455604051919092169283917f8be0079c531659141344cd1fd0a4f28419497f9722a3daafe3b4186f6b6457e09190a35050565b60065460408051630855d15160e01b815290516000926001600160a01b031691630855d151916004808301926020929190829003018186803b158015610f8457600080fd5b505afa158015610f98573d6000803e3d6000fd5b505050506040513d601f19601f82011682018060405250810190610fbc9190611701565b6001600160a01b03161415610fe35760405162461bcd60e51b81526004016103b590611c02565b6006546040805163e992dca760e01b815290516000926001600160a01b03169163e992dca7916004808301926020929190829003018186803b15801561102857600080fd5b505afa15801561103c573d6000803e3d6000fd5b505050506040513d601f19601f820116820180604052508101906110609190611701565b6001600160a01b031614156110875760405162461bcd60e51b81526004016103b590611c02565b60065460408051630855d15160e01b815290516000926001600160a01b031691630855d151916004808301926020929190829003018186803b1580156110cc57600080fd5b505afa1580156110e0573d6000803e3d6000fd5b505050506040513d601f19601f820116820180604052508101906111049190611701565b90506000600660009054906101000a90046001600160a01b03166001600160a01b031663e992dca76040518163ffffffff1660e01b815260040160206040518083038186803b15801561115657600080fd5b505afa15801561116a573d6000803e3d6000fd5b505050506040513d601f19601f8201168201806040525081019061118e9190611701565b6001600160a01b03848116600090815260046020526040902054919250166111c85760405162461bcd60e51b81526004016103b5906118ff565b6040516370a0823160e01b81526000906001600160a01b038316906370a08231906111f7908790600401611879565b60206040518083038186803b15801561120f57600080fd5b505afa158015611223573d6000803e3d6000fd5b505050506040513d601f19601f820116820180604052508101906112479190611861565b905060006112548561038d565b905081156113d657604051630db6cc8560e11b81526001600160a01b03851690631b6d990a9061128a9085908590600401611c85565b602060405180830381600087803b1580156112a457600080fd5b505af11580156112b8573d6000803e3d6000fd5b505050506040513d601f19601f820116820180604052508101906112dc9190611841565b6112f85760405162461bcd60e51b81526004016103b590611acc565b60405163171bcfc360e21b81526001600160a01b03851690635c6f3f0c906113269085908990600401611c85565b602060405180830381600087803b15801561134057600080fd5b505af1158015611354573d6000803e3d6000fd5b505050506040513d601f19601f820116820180604052508101906113789190611841565b6113945760405162461bcd60e51b81526004016103b590611b1d565b846001600160a01b03167fc587680578b3acb8eeb1ab421a6921efe2a32b10903016ebd6c3f39e51cd1d96826040516113cd9190611879565b60405180910390a25b5050505050565b600654604080516304e76c8f60e01b815290516000926001600160a01b0316916304e76c8f916004808301926020929190829003018186803b15801561142257600080fd5b505afa158015611436573d6000803e3d6000fd5b505050506040513d601f19601f8201168201806040525081019061145a9190611701565b6001600160a01b031614156114815760405162461bcd60e51b81526004016103b590611a89565b600654604080516304e76c8f60e01b815290516000926001600160a01b0316916304e76c8f916004808301926020929190829003018186803b1580156114c657600080fd5b505afa1580156114da573d6000803e3d6000fd5b505050506040513d601f19601f820116820180604052508101906114fe9190611701565b90506001600160a01b0381166115265760405162461bcd60e51b81526004016103b5906119ba565b6001600160a01b038281166000908152600460205260409020541661155d5760405162461bcd60e51b81526004016103b5906118ff565b604051633b4febfb60e21b81526000906001600160a01b0383169063ed3fafec9061158c908690600401611879565b602060405180830381600087803b1580156115a657600080fd5b505af11580156115ba573d6000803e3d6000fd5b505050506040513d601f19601f820116820180604052508101906115de9190611861565b905060006115eb8461038d565b90508115610ee957604051635f28bad560e01b81526001600160a01b03841690635f28bad590611621908790859060040161188d565b602060405180830381600087803b15801561163b57600080fd5b505af115801561164f573d6000803e3d6000fd5b505050506040513d601f19601f820116820180604052508101906116739190611841565b61168f5760405162461bcd60e51b81526004016103b590611967565b836001600160a01b03167f04b22084ec80e4b31b47cb8c65cd44c4e4e2840e20dffcbd81bd7d048b74fb4e826040516116c89190611879565b60405180910390a250505050565b3390565b803561038881611d01565b6000602082840312156116f6578081fd5b8135610ad681611d01565b600060208284031215611712578081fd5b8151610ad681611d01565b6000806040838503121561172f578081fd5b823561173a81611d01565b9150602083013561174a81611d01565b809150509250929050565b60008060408385031215611767578182fd5b823561177281611d01565b946020939093013593505050565b60006020808385031215611792578182fd5b823567ffffffffffffffff808211156117a9578384fd5b818501915085601f8301126117bc578384fd5b8135818111156117ce576117ce611ceb565b838102604051858282010181811085821117156117ed576117ed611ceb565b604052828152858101935084860182860187018a101561180b578788fd5b8795505b8386101561183457611820816116da565b85526001959095019493860193860161180f565b5098975050505050505050565b600060208284031215611852578081fd5b81518015158114610ad6578182fd5b600060208284031215611872578081fd5b5051919050565b6001600160a01b0391909116815260200190565b6001600160a01b0392831681529116602082015260400190565b6020808252825182820181905260009190848201906040850190845b818110156118e85783516001600160a01b0316835292840192918401916001016118c3565b50909695505050505050565b901515815260200190565b60208082526042908201527f5472616e73666572526570546f4d61737465723a20696e707574205f776f726b60408201527f6572206e6565647320746f20686176652061206e6f6e2d6e756c6c206d61737460608201526132b960f11b608082015260a00190565b60208082526033908201527f5472616e7366657252657761726473546f4d61737465723a20636f756c64206e6040820152726f74207472616e73666572207265776172647360681b606082015260800190565b6020808252601f908201527f5265776172644d616e61676572206e6565647320746f20626520736574757000604082015260600190565b60208082526026908201527f4f776e61626c653a206e6577206f776e657220697320746865207a65726f206160408201526564647265737360d01b606082015260800190565b60208082526032908201527f43616e27742072656d6f76653a204d6173746572206e6f7420636c61696d696e60408201527167207468697320537562204164647265737360701b606082015260800190565b60208082526023908201527f5265776172644d616e61676572206973206e756c6c20696e20506172616d657460408201526265727360e81b606082015260800190565b60208082526031908201527f5472616e73666572526570546f4d61737465723a20636f756c64206e6f74206d60408201527034b73a102932b8103a379036b0b9ba32b960791b606082015260800190565b60208082526033908201527f5472616e73666572526570546f4d61737465723a20636f756c64206e6f7420626040820152723ab937102932b810333937b6903bb7b935b2b960691b606082015260800190565b6020808252818101527f4f776e61626c653a2063616c6c6572206973206e6f7420746865206f776e6572604082015260600190565b6020808252603e908201527f4665746368486967686573744d61737465723a20696e707574205f776f726b6560408201527f72206e6565647320746f206265206e6f6e206e756c6c20616464726573730000606082015260800190565b6020808252818101527f5265704d616e61676572206973206e756c6c20696e20506172616d6574657273604082015260600190565b6020808252602e908201527f43616e27742072656d6f7665204d61737465723a206e6f7420636c61696d696e60408201526d672074686973206164647265737360901b606082015260800190565b9182526001600160a01b031660208201526000604082015260600190565b600082821015611cb557611cb5611cd5565b500390565b6000600019821415611cce57611cce611cd5565b5060010190565b634e487b7160e01b600052601160045260246000fd5b634e487b7160e01b600052604160045260246000fd5b6001600160a01b0381168114610c0b57600080fdfea2646970667358221220429d6d709dd8b851a6f9d4ee0dd3f46d70a8f30725ff94f56cd7ed506976514764736f6c63430008000033",
					"opcodes": "PUSH1 0x80 PUSH1 0x40 MSTORE PUSH1 0x5 DUP1 SSTORE CALLVALUE DUP1 ISZERO PUSH2 0x14 JUMPI PUSH1 0x0 DUP1 REVERT JUMPDEST POP PUSH2 0x25 PUSH2 0x20 PUSH2 0x2A JUMP JUMPDEST PUSH2 0x2E JUMP JUMPDEST PUSH2 0x7E JUMP JUMPDEST CALLER SWAP1 JUMP JUMPDEST PUSH1 0x0 DUP1 SLOAD PUSH1 0x1 PUSH1 0x1 PUSH1 0xA0 SHL SUB DUP4 DUP2 AND PUSH1 0x1 PUSH1 0x1 PUSH1 0xA0 SHL SUB NOT DUP4 AND DUP2 OR DUP5 SSTORE PUSH1 0x40 MLOAD SWAP2 SWAP1 SWAP3 AND SWAP3 DUP4 SWAP2 PUSH32 0x8BE0079C531659141344CD1FD0A4F28419497F9722A3DAAFE3B4186F6B6457E0 SWAP2 SWAP1 LOG3 POP POP JUMP JUMPDEST PUSH2 0x1D4C DUP1 PUSH2 0x8D PUSH1 0x0 CODECOPY PUSH1 0x0 RETURN INVALID PUSH1 0x80 PUSH1 0x40 MSTORE CALLVALUE DUP1 ISZERO PUSH2 0x10 JUMPI PUSH1 0x0 DUP1 REVERT JUMPDEST POP PUSH1 0x4 CALLDATASIZE LT PUSH2 0x158 JUMPI PUSH1 0x0 CALLDATALOAD PUSH1 0xE0 SHR DUP1 PUSH4 0x8213B8D8 GT PUSH2 0xC3 JUMPI DUP1 PUSH4 0xDF77A0F6 GT PUSH2 0x7C JUMPI DUP1 PUSH4 0xDF77A0F6 EQ PUSH2 0x2BC JUMPI DUP1 PUSH4 0xE4F1D0FD EQ PUSH2 0x2CF JUMPI DUP1 PUSH4 0xF25E9ED2 EQ PUSH2 0x2E2 JUMPI DUP1 PUSH4 0xF2FDE38B EQ PUSH2 0x2F5 JUMPI DUP1 PUSH4 0xF77C8658 EQ PUSH2 0x308 JUMPI DUP1 PUSH4 0xFF43DE9D EQ PUSH2 0x31B JUMPI PUSH2 0x158 JUMP JUMPDEST DUP1 PUSH4 0x8213B8D8 EQ PUSH2 0x268 JUMPI DUP1 PUSH4 0x8DA5CB5B EQ PUSH2 0x27B JUMPI DUP1 PUSH4 0x96DAFF56 EQ PUSH2 0x283 JUMPI DUP1 PUSH4 0x9F62C379 EQ PUSH2 0x296 JUMPI DUP1 PUSH4 0xAC8D65CB EQ PUSH2 0x283 JUMPI DUP1 PUSH4 0xDB519824 EQ PUSH2 0x2A9 JUMPI PUSH2 0x158 JUMP JUMPDEST DUP1 PUSH4 0x2E3CE457 GT PUSH2 0x115 JUMPI DUP1 PUSH4 0x2E3CE457 EQ PUSH2 0x201 JUMPI DUP1 PUSH4 0x342BFFBF EQ PUSH2 0x214 JUMPI DUP1 PUSH4 0x39C3F6E7 EQ PUSH2 0x227 JUMPI DUP1 PUSH4 0x4826D043 EQ PUSH2 0x23A JUMPI DUP1 PUSH4 0x584720F5 EQ PUSH2 0x24D JUMPI DUP1 PUSH4 0x715018A6 EQ PUSH2 0x260 JUMPI PUSH2 0x158 JUMP JUMPDEST DUP1 PUSH4 0x5957623 EQ PUSH2 0x15D JUMPI DUP1 PUSH4 0xC06E4DF EQ PUSH2 0x172 JUMPI DUP1 PUSH4 0x11815086 EQ PUSH2 0x19B JUMPI DUP1 PUSH4 0x12CCB147 EQ PUSH2 0x1BB JUMPI DUP1 PUSH4 0x1778F9C8 EQ PUSH2 0x1CE JUMPI DUP1 PUSH4 0x198FF3DC EQ PUSH2 0x1E1 JUMPI JUMPDEST PUSH1 0x0 DUP1 REVERT JUMPDEST PUSH2 0x170 PUSH2 0x16B CALLDATASIZE PUSH1 0x4 PUSH2 0x16E5 JUMP JUMPDEST PUSH2 0x323 JUMP JUMPDEST STOP JUMPDEST PUSH2 0x185 PUSH2 0x180 CALLDATASIZE PUSH1 0x4 PUSH2 0x16E5 JUMP JUMPDEST PUSH2 0x360 JUMP JUMPDEST PUSH1 0x40 MLOAD PUSH2 0x192 SWAP2 SWAP1 PUSH2 0x18F4 JUMP JUMPDEST PUSH1 0x40 MLOAD DUP1 SWAP2 SUB SWAP1 RETURN JUMPDEST PUSH2 0x1AE PUSH2 0x1A9 CALLDATASIZE PUSH1 0x4 PUSH2 0x16E5 JUMP JUMPDEST PUSH2 0x38D JUMP JUMPDEST PUSH1 0x40 MLOAD PUSH2 0x192 SWAP2 SWAP1 PUSH2 0x1879 JUMP JUMPDEST PUSH2 0x170 PUSH2 0x1C9 CALLDATASIZE PUSH1 0x4 PUSH2 0x16E5 JUMP JUMPDEST PUSH2 0x436 JUMP JUMPDEST PUSH2 0x185 PUSH2 0x1DC CALLDATASIZE PUSH1 0x4 PUSH2 0x171D JUMP JUMPDEST PUSH2 0x4C9 JUMP JUMPDEST PUSH2 0x1F4 PUSH2 0x1EF CALLDATASIZE PUSH1 0x4 PUSH2 0x16E5 JUMP JUMPDEST PUSH2 0x4E9 JUMP JUMPDEST PUSH1 0x40 MLOAD PUSH2 0x192 SWAP2 SWAP1 PUSH2 0x18A7 JUMP JUMPDEST PUSH2 0x1AE PUSH2 0x20F CALLDATASIZE PUSH1 0x4 PUSH2 0x1755 JUMP JUMPDEST PUSH2 0x55F JUMP JUMPDEST PUSH2 0x185 PUSH2 0x222 CALLDATASIZE PUSH1 0x4 PUSH2 0x171D JUMP JUMPDEST PUSH2 0x597 JUMP JUMPDEST PUSH2 0x170 PUSH2 0x235 CALLDATASIZE PUSH1 0x4 PUSH2 0x1780 JUMP JUMPDEST PUSH2 0x5B7 JUMP JUMPDEST PUSH2 0x170 PUSH2 0x248 CALLDATASIZE PUSH1 0x4 PUSH2 0x16E5 JUMP JUMPDEST PUSH2 0x777 JUMP JUMPDEST PUSH2 0x170 PUSH2 0x25B CALLDATASIZE PUSH1 0x4 PUSH2 0x16E5 JUMP JUMPDEST PUSH2 0x828 JUMP JUMPDEST PUSH2 0x170 PUSH2 0x8DE JUMP JUMPDEST PUSH2 0x170 PUSH2 0x276 CALLDATASIZE PUSH1 0x4 PUSH2 0x1780 JUMP JUMPDEST PUSH2 0x8F2 JUMP JUMPDEST PUSH2 0x1AE PUSH2 0xA7C JUMP JUMPDEST PUSH2 0x185 PUSH2 0x291 CALLDATASIZE PUSH1 0x4 PUSH2 0x171D JUMP JUMPDEST PUSH2 0xA8B JUMP JUMPDEST PUSH2 0x185 PUSH2 0x2A4 CALLDATASIZE PUSH1 0x4 PUSH2 0x171D JUMP JUMPDEST PUSH2 0xAB9 JUMP JUMPDEST PUSH2 0x185 PUSH2 0x2B7 CALLDATASIZE PUSH1 0x4 PUSH2 0x16E5 JUMP JUMPDEST PUSH2 0xADD JUMP JUMPDEST PUSH2 0x170 PUSH2 0x2CA CALLDATASIZE PUSH1 0x4 PUSH2 0x16E5 JUMP JUMPDEST PUSH2 0xB06 JUMP JUMPDEST PUSH2 0x1AE PUSH2 0x2DD CALLDATASIZE PUSH1 0x4 PUSH2 0x16E5 JUMP JUMPDEST PUSH2 0xB9B JUMP JUMPDEST PUSH2 0x1AE PUSH2 0x2F0 CALLDATASIZE PUSH1 0x4 PUSH2 0x16E5 JUMP JUMPDEST PUSH2 0xBB6 JUMP JUMPDEST PUSH2 0x170 PUSH2 0x303 CALLDATASIZE PUSH1 0x4 PUSH2 0x16E5 JUMP JUMPDEST PUSH2 0xBD4 JUMP JUMPDEST PUSH2 0x185 PUSH2 0x316 CALLDATASIZE PUSH1 0x4 PUSH2 0x171D JUMP JUMPDEST PUSH2 0xC0E JUMP JUMPDEST PUSH2 0x1AE PUSH2 0xCF3 JUMP JUMPDEST PUSH2 0x32B PUSH2 0xD02 JUMP JUMPDEST PUSH1 0x1 PUSH1 0x1 PUSH1 0xA0 SHL SUB DUP2 AND PUSH2 0x33E JUMPI PUSH1 0x0 DUP1 REVERT JUMPDEST PUSH1 0x6 DUP1 SLOAD PUSH1 0x1 PUSH1 0x1 PUSH1 0xA0 SHL SUB NOT AND PUSH1 0x1 PUSH1 0x1 PUSH1 0xA0 SHL SUB SWAP3 SWAP1 SWAP3 AND SWAP2 SWAP1 SWAP2 OR SWAP1 SSTORE JUMP JUMPDEST CALLER PUSH1 0x0 SWAP1 DUP2 MSTORE PUSH1 0x1 PUSH1 0x20 SWAP1 DUP2 MSTORE PUSH1 0x40 DUP1 DUP4 KECCAK256 PUSH1 0x1 PUSH1 0x1 PUSH1 0xA0 SHL SUB DUP6 AND DUP5 MSTORE SWAP1 SWAP2 MSTORE SWAP1 KECCAK256 SLOAD PUSH1 0xFF AND JUMPDEST SWAP2 SWAP1 POP JUMP JUMPDEST PUSH1 0x0 PUSH1 0x1 PUSH1 0x1 PUSH1 0xA0 SHL SUB DUP3 AND PUSH2 0x3BE JUMPI PUSH1 0x40 MLOAD PUSH3 0x461BCD PUSH1 0xE5 SHL DUP2 MSTORE PUSH1 0x4 ADD PUSH2 0x3B5 SWAP1 PUSH2 0x1BA5 JUMP JUMPDEST PUSH1 0x40 MLOAD DUP1 SWAP2 SUB SWAP1 REVERT JUMPDEST PUSH1 0x1 PUSH1 0x1 PUSH1 0xA0 SHL SUB DUP1 DUP4 AND PUSH1 0x0 SWAP1 DUP2 MSTORE PUSH1 0x4 PUSH1 0x20 MSTORE PUSH1 0x40 SWAP1 KECCAK256 SLOAD PUSH1 0x5 SLOAD SWAP2 AND SWAP1 DUP4 SWAP1 JUMPDEST PUSH1 0x1 PUSH1 0x1 PUSH1 0xA0 SHL SUB DUP4 AND ISZERO DUP1 ISZERO SWAP1 PUSH2 0x3F9 JUMPI POP PUSH1 0x0 DUP2 GT JUMPDEST ISZERO PUSH2 0x42E JUMPI PUSH1 0x1 PUSH1 0x1 PUSH1 0xA0 SHL SUB DUP1 DUP5 AND PUSH1 0x0 SWAP1 DUP2 MSTORE PUSH1 0x4 PUSH1 0x20 MSTORE PUSH1 0x40 SWAP1 KECCAK256 SLOAD AND SWAP3 SWAP2 POP PUSH2 0x427 PUSH1 0x1 DUP3 PUSH2 0x1CA3 JUMP JUMPDEST SWAP1 POP PUSH2 0x3E1 JUMP JUMPDEST POP SWAP4 SWAP3 POP POP POP JUMP JUMPDEST CALLER PUSH1 0x0 DUP2 DUP2 MSTORE PUSH1 0x1 PUSH1 0x20 DUP2 DUP2 MSTORE PUSH1 0x40 DUP1 DUP5 KECCAK256 PUSH1 0x1 PUSH1 0x1 PUSH1 0xA0 SHL SUB DUP8 AND DUP1 DUP7 MSTORE SWAP1 DUP4 MSTORE DUP2 DUP6 KECCAK256 DUP1 SLOAD PUSH1 0xFF NOT AND DUP6 OR SWAP1 SSTORE DUP6 DUP6 MSTORE PUSH1 0x3 DUP4 MSTORE DUP2 DUP6 KECCAK256 DUP1 SLOAD SWAP5 DUP6 ADD DUP2 SSTORE DUP6 MSTORE SWAP2 SWAP1 SWAP4 KECCAK256 SWAP1 SWAP2 ADD DUP1 SLOAD PUSH1 0x1 PUSH1 0x1 PUSH1 0xA0 SHL SUB NOT AND SWAP1 SWAP2 OR SWAP1 SSTORE MLOAD PUSH32 0x8902B85532BFC55A9F5B6E6A9576366640928B3BE984B3A61167A210CA2BBC57 SWAP1 PUSH2 0x4BE SWAP1 DUP5 SWAP1 PUSH2 0x1879 JUMP JUMPDEST PUSH1 0x40 MLOAD DUP1 SWAP2 SUB SWAP1 LOG2 POP JUMP JUMPDEST PUSH1 0x2 PUSH1 0x20 SWAP1 DUP2 MSTORE PUSH1 0x0 SWAP3 DUP4 MSTORE PUSH1 0x40 DUP1 DUP5 KECCAK256 SWAP1 SWAP2 MSTORE SWAP1 DUP3 MSTORE SWAP1 KECCAK256 SLOAD PUSH1 0xFF AND DUP2 JUMP JUMPDEST PUSH1 0x1 PUSH1 0x1 PUSH1 0xA0 SHL SUB DUP2 AND PUSH1 0x0 SWAP1 DUP2 MSTORE PUSH1 0x3 PUSH1 0x20 SWAP1 DUP2 MSTORE PUSH1 0x40 SWAP2 DUP3 SWAP1 KECCAK256 DUP1 SLOAD DUP4 MLOAD DUP2 DUP5 MUL DUP2 ADD DUP5 ADD SWAP1 SWAP5 MSTORE DUP1 DUP5 MSTORE PUSH1 0x60 SWAP4 SWAP3 DUP4 ADD DUP3 DUP3 DUP1 ISZERO PUSH2 0x553 JUMPI PUSH1 0x20 MUL DUP3 ADD SWAP2 SWAP1 PUSH1 0x0 MSTORE PUSH1 0x20 PUSH1 0x0 KECCAK256 SWAP1 JUMPDEST DUP2 SLOAD PUSH1 0x1 PUSH1 0x1 PUSH1 0xA0 SHL SUB AND DUP2 MSTORE PUSH1 0x1 SWAP1 SWAP2 ADD SWAP1 PUSH1 0x20 ADD DUP1 DUP4 GT PUSH2 0x535 JUMPI JUMPDEST POP POP POP POP POP SWAP1 POP SWAP2 SWAP1 POP JUMP JUMPDEST PUSH1 0x3 PUSH1 0x20 MSTORE DUP2 PUSH1 0x0 MSTORE PUSH1 0x40 PUSH1 0x0 KECCAK256 DUP2 DUP2 SLOAD DUP2 LT PUSH2 0x57B JUMPI PUSH1 0x0 DUP1 REVERT JUMPDEST PUSH1 0x0 SWAP2 DUP3 MSTORE PUSH1 0x20 SWAP1 SWAP2 KECCAK256 ADD SLOAD PUSH1 0x1 PUSH1 0x1 PUSH1 0xA0 SHL SUB AND SWAP2 POP DUP3 SWAP1 POP JUMP JUMPDEST PUSH1 0x1 PUSH1 0x20 SWAP1 DUP2 MSTORE PUSH1 0x0 SWAP3 DUP4 MSTORE PUSH1 0x40 DUP1 DUP5 KECCAK256 SWAP1 SWAP2 MSTORE SWAP1 DUP3 MSTORE SWAP1 KECCAK256 SLOAD PUSH1 0xFF AND DUP2 JUMP JUMPDEST PUSH1 0x0 JUMPDEST DUP2 MLOAD DUP2 LT ISZERO PUSH2 0x773 JUMPI CALLER PUSH1 0x0 SWAP1 DUP2 MSTORE PUSH1 0x1 PUSH1 0x20 MSTORE PUSH1 0x40 DUP2 KECCAK256 DUP4 MLOAD SWAP1 SWAP2 SWAP1 DUP5 SWAP1 DUP5 SWAP1 DUP2 LT PUSH2 0x5F7 JUMPI PUSH4 0x4E487B71 PUSH1 0xE0 SHL PUSH1 0x0 MSTORE PUSH1 0x32 PUSH1 0x4 MSTORE PUSH1 0x24 PUSH1 0x0 REVERT JUMPDEST PUSH1 0x20 SWAP1 DUP2 MUL SWAP2 SWAP1 SWAP2 ADD DUP2 ADD MLOAD PUSH1 0x1 PUSH1 0x1 PUSH1 0xA0 SHL SUB AND DUP3 MSTORE DUP2 ADD SWAP2 SWAP1 SWAP2 MSTORE PUSH1 0x40 ADD PUSH1 0x0 KECCAK256 SLOAD PUSH1 0xFF AND ISZERO ISZERO PUSH1 0x1 EQ PUSH2 0x761 JUMPI CALLER PUSH1 0x0 SWAP1 DUP2 MSTORE PUSH1 0x1 PUSH1 0x20 DUP2 SWAP1 MSTORE PUSH1 0x40 DUP3 KECCAK256 DUP5 MLOAD SWAP2 SWAP3 SWAP1 SWAP2 DUP6 SWAP1 DUP6 SWAP1 DUP2 LT PUSH2 0x65E JUMPI PUSH4 0x4E487B71 PUSH1 0xE0 SHL PUSH1 0x0 MSTORE PUSH1 0x32 PUSH1 0x4 MSTORE PUSH1 0x24 PUSH1 0x0 REVERT JUMPDEST PUSH1 0x20 SWAP1 DUP2 MUL SWAP2 SWAP1 SWAP2 ADD DUP2 ADD MLOAD PUSH1 0x1 PUSH1 0x1 PUSH1 0xA0 SHL SUB AND DUP3 MSTORE DUP2 DUP2 ADD SWAP3 SWAP1 SWAP3 MSTORE PUSH1 0x40 SWAP1 DUP2 ADD PUSH1 0x0 SWAP1 DUP2 KECCAK256 DUP1 SLOAD PUSH1 0xFF NOT AND SWAP5 ISZERO ISZERO SWAP5 SWAP1 SWAP5 OR SWAP1 SWAP4 SSTORE CALLER DUP4 MSTORE PUSH1 0x3 SWAP1 SWAP2 MSTORE SWAP1 KECCAK256 DUP3 MLOAD DUP4 SWAP1 DUP4 SWAP1 DUP2 LT PUSH2 0x6C2 JUMPI PUSH4 0x4E487B71 PUSH1 0xE0 SHL PUSH1 0x0 MSTORE PUSH1 0x32 PUSH1 0x4 MSTORE PUSH1 0x24 PUSH1 0x0 REVERT JUMPDEST PUSH1 0x20 SWAP1 DUP2 MUL SWAP2 SWAP1 SWAP2 ADD DUP2 ADD MLOAD DUP3 SLOAD PUSH1 0x1 DUP2 ADD DUP5 SSTORE PUSH1 0x0 SWAP4 DUP5 MSTORE SWAP2 SWAP1 SWAP3 KECCAK256 ADD DUP1 SLOAD PUSH1 0x1 PUSH1 0x1 PUSH1 0xA0 SHL SUB NOT AND PUSH1 0x1 PUSH1 0x1 PUSH1 0xA0 SHL SUB SWAP1 SWAP3 AND SWAP2 SWAP1 SWAP2 OR SWAP1 SSTORE DUP2 MLOAD CALLER SWAP1 PUSH32 0x8902B85532BFC55A9F5B6E6A9576366640928B3BE984B3A61167A210CA2BBC57 SWAP1 DUP5 SWAP1 DUP5 SWAP1 DUP2 LT PUSH2 0x743 JUMPI PUSH4 0x4E487B71 PUSH1 0xE0 SHL PUSH1 0x0 MSTORE PUSH1 0x32 PUSH1 0x4 MSTORE PUSH1 0x24 PUSH1 0x0 REVERT JUMPDEST PUSH1 0x20 MUL PUSH1 0x20 ADD ADD MLOAD PUSH1 0x40 MLOAD PUSH2 0x758 SWAP2 SWAP1 PUSH2 0x1879 JUMP JUMPDEST PUSH1 0x40 MLOAD DUP1 SWAP2 SUB SWAP1 LOG2 JUMPDEST DUP1 PUSH2 0x76B DUP2 PUSH2 0x1CBA JUMP JUMPDEST SWAP2 POP POP PUSH2 0x5BA JUMP JUMPDEST POP POP JUMP JUMPDEST CALLER PUSH1 0x0 SWAP1 DUP2 MSTORE PUSH1 0x1 PUSH1 0x20 SWAP1 DUP2 MSTORE PUSH1 0x40 DUP1 DUP4 KECCAK256 PUSH1 0x1 PUSH1 0x1 PUSH1 0xA0 SHL SUB DUP6 AND DUP5 MSTORE SWAP1 SWAP2 MSTORE SWAP1 KECCAK256 SLOAD PUSH1 0xFF AND PUSH2 0x7BA JUMPI PUSH1 0x40 MLOAD PUSH3 0x461BCD PUSH1 0xE5 SHL DUP2 MSTORE PUSH1 0x4 ADD PUSH2 0x3B5 SWAP1 PUSH2 0x1A37 JUMP JUMPDEST CALLER PUSH1 0x0 DUP2 DUP2 MSTORE PUSH1 0x1 PUSH1 0x20 SWAP1 DUP2 MSTORE PUSH1 0x40 DUP1 DUP4 KECCAK256 PUSH1 0x1 PUSH1 0x1 PUSH1 0xA0 SHL SUB DUP7 AND DUP5 MSTORE SWAP1 SWAP2 MSTORE SWAP1 KECCAK256 DUP1 SLOAD PUSH1 0xFF NOT AND SWAP1 SSTORE PUSH2 0x7EF SWAP1 DUP3 PUSH2 0xD41 JUMP JUMPDEST CALLER PUSH1 0x1 PUSH1 0x1 PUSH1 0xA0 SHL SUB AND PUSH32 0x7A24AC72E272DD8C83B793AE84448C72032B95723856486219C79DD722FE4292 DUP3 PUSH1 0x40 MLOAD PUSH2 0x4BE SWAP2 SWAP1 PUSH2 0x1879 JUMP JUMPDEST PUSH1 0x1 PUSH1 0x1 PUSH1 0xA0 SHL SUB DUP2 AND PUSH1 0x0 SWAP1 DUP2 MSTORE PUSH1 0x2 PUSH1 0x20 SWAP1 DUP2 MSTORE PUSH1 0x40 DUP1 DUP4 KECCAK256 CALLER DUP5 MSTORE SWAP1 SWAP2 MSTORE SWAP1 KECCAK256 SLOAD PUSH1 0xFF AND PUSH2 0x86B JUMPI PUSH1 0x40 MLOAD PUSH3 0x461BCD PUSH1 0xE5 SHL DUP2 MSTORE PUSH1 0x4 ADD PUSH2 0x3B5 SWAP1 PUSH2 0x1C37 JUMP JUMPDEST PUSH1 0x1 PUSH1 0x1 PUSH1 0xA0 SHL SUB DUP2 AND PUSH1 0x0 SWAP1 DUP2 MSTORE PUSH1 0x2 PUSH1 0x20 SWAP1 DUP2 MSTORE PUSH1 0x40 DUP1 DUP4 KECCAK256 CALLER DUP1 DUP6 MSTORE SWAP1 DUP4 MSTORE DUP2 DUP5 KECCAK256 DUP1 SLOAD PUSH1 0xFF NOT AND SWAP1 SSTORE PUSH1 0x4 SWAP1 SWAP3 MSTORE SWAP2 DUP3 SWAP1 KECCAK256 DUP1 SLOAD PUSH1 0x1 PUSH1 0x1 PUSH1 0xA0 SHL SUB NOT AND SWAP1 SSTORE SWAP1 MLOAD PUSH32 0xD7169440DAF0897D7F4486A35EEF15A070460981FF18AB846AA2199F171118E SWAP1 PUSH2 0x4BE SWAP1 DUP5 SWAP1 PUSH2 0x1879 JUMP JUMPDEST PUSH2 0x8E6 PUSH2 0xD02 JUMP JUMPDEST PUSH2 0x8F0 PUSH1 0x0 PUSH2 0xEEF JUMP JUMPDEST JUMP JUMPDEST PUSH1 0x0 JUMPDEST DUP2 MLOAD DUP2 LT ISZERO PUSH2 0x773 JUMPI CALLER PUSH1 0x0 SWAP1 DUP2 MSTORE PUSH1 0x1 PUSH1 0x20 MSTORE PUSH1 0x40 DUP2 KECCAK256 DUP4 MLOAD SWAP1 SWAP2 SWAP1 DUP5 SWAP1 DUP5 SWAP1 DUP2 LT PUSH2 0x932 JUMPI PUSH4 0x4E487B71 PUSH1 0xE0 SHL PUSH1 0x0 MSTORE PUSH1 0x32 PUSH1 0x4 MSTORE PUSH1 0x24 PUSH1 0x0 REVERT JUMPDEST PUSH1 0x20 SWAP1 DUP2 MUL SWAP2 SWAP1 SWAP2 ADD DUP2 ADD MLOAD PUSH1 0x1 PUSH1 0x1 PUSH1 0xA0 SHL SUB AND DUP3 MSTORE DUP2 ADD SWAP2 SWAP1 SWAP2 MSTORE PUSH1 0x40 ADD PUSH1 0x0 KECCAK256 SLOAD PUSH1 0xFF AND ISZERO PUSH2 0xA6A JUMPI CALLER PUSH1 0x0 SWAP1 DUP2 MSTORE PUSH1 0x1 PUSH1 0x20 MSTORE PUSH1 0x40 DUP2 KECCAK256 DUP4 MLOAD DUP3 SWAP1 DUP6 SWAP1 DUP6 SWAP1 DUP2 LT PUSH2 0x991 JUMPI PUSH4 0x4E487B71 PUSH1 0xE0 SHL PUSH1 0x0 MSTORE PUSH1 0x32 PUSH1 0x4 MSTORE PUSH1 0x24 PUSH1 0x0 REVERT JUMPDEST PUSH1 0x20 MUL PUSH1 0x20 ADD ADD MLOAD PUSH1 0x1 PUSH1 0x1 PUSH1 0xA0 SHL SUB AND PUSH1 0x1 PUSH1 0x1 PUSH1 0xA0 SHL SUB AND DUP2 MSTORE PUSH1 0x20 ADD SWAP1 DUP2 MSTORE PUSH1 0x20 ADD PUSH1 0x0 KECCAK256 PUSH1 0x0 PUSH2 0x100 EXP DUP2 SLOAD DUP2 PUSH1 0xFF MUL NOT AND SWAP1 DUP4 ISZERO ISZERO MUL OR SWAP1 SSTORE POP PUSH2 0xA01 CALLER DUP4 DUP4 DUP2 MLOAD DUP2 LT PUSH2 0x9F4 JUMPI PUSH4 0x4E487B71 PUSH1 0xE0 SHL PUSH1 0x0 MSTORE PUSH1 0x32 PUSH1 0x4 MSTORE PUSH1 0x24 PUSH1 0x0 REVERT JUMPDEST PUSH1 0x20 MUL PUSH1 0x20 ADD ADD MLOAD PUSH2 0xD41 JUMP JUMPDEST CALLER PUSH1 0x1 PUSH1 0x1 PUSH1 0xA0 SHL SUB AND PUSH32 0x7A24AC72E272DD8C83B793AE84448C72032B95723856486219C79DD722FE4292 DUP4 DUP4 DUP2 MLOAD DUP2 LT PUSH2 0xA4C JUMPI PUSH4 0x4E487B71 PUSH1 0xE0 SHL PUSH1 0x0 MSTORE PUSH1 0x32 PUSH1 0x4 MSTORE PUSH1 0x24 PUSH1 0x0 REVERT JUMPDEST PUSH1 0x20 MUL PUSH1 0x20 ADD ADD MLOAD PUSH1 0x40 MLOAD PUSH2 0xA61 SWAP2 SWAP1 PUSH2 0x1879 JUMP JUMPDEST PUSH1 0x40 MLOAD DUP1 SWAP2 SUB SWAP1 LOG2 JUMPDEST DUP1 PUSH2 0xA74 DUP2 PUSH2 0x1CBA JUMP JUMPDEST SWAP2 POP POP PUSH2 0x8F5 JUMP JUMPDEST PUSH1 0x0 SLOAD PUSH1 0x1 PUSH1 0x1 PUSH1 0xA0 SHL SUB AND SWAP1 JUMP JUMPDEST PUSH1 0x1 PUSH1 0x1 PUSH1 0xA0 SHL SUB SWAP2 DUP3 AND PUSH1 0x0 SWAP1 DUP2 MSTORE PUSH1 0x1 PUSH1 0x20 SWAP1 DUP2 MSTORE PUSH1 0x40 DUP1 DUP4 KECCAK256 SWAP4 SWAP1 SWAP5 AND DUP3 MSTORE SWAP2 SWAP1 SWAP2 MSTORE KECCAK256 SLOAD PUSH1 0xFF AND SWAP1 JUMP JUMPDEST PUSH1 0x0 PUSH2 0xAC5 DUP4 DUP4 PUSH2 0xA8B JUMP JUMPDEST DUP1 ISZERO PUSH2 0xAD6 JUMPI POP PUSH2 0xAD6 DUP4 DUP4 PUSH2 0xA8B JUMP JUMPDEST SWAP4 SWAP3 POP POP POP JUMP JUMPDEST PUSH1 0x1 PUSH1 0x1 PUSH1 0xA0 SHL SUB AND PUSH1 0x0 SWAP1 DUP2 MSTORE PUSH1 0x1 PUSH1 0x20 SWAP1 DUP2 MSTORE PUSH1 0x40 DUP1 DUP4 KECCAK256 CALLER DUP5 MSTORE SWAP1 SWAP2 MSTORE SWAP1 KECCAK256 SLOAD PUSH1 0xFF AND SWAP1 JUMP JUMPDEST PUSH1 0x1 PUSH1 0x1 PUSH1 0xA0 SHL SUB DUP2 AND PUSH1 0x0 DUP2 DUP2 MSTORE PUSH1 0x2 PUSH1 0x20 SWAP1 DUP2 MSTORE PUSH1 0x40 DUP1 DUP4 KECCAK256 CALLER DUP1 DUP6 MSTORE SWAP1 DUP4 MSTORE DUP2 DUP5 KECCAK256 DUP1 SLOAD PUSH1 0xFF NOT AND PUSH1 0x1 OR SWAP1 SSTORE PUSH1 0x4 SWAP1 SWAP3 MSTORE SWAP1 SWAP2 KECCAK256 DUP1 SLOAD PUSH1 0x1 PUSH1 0x1 PUSH1 0xA0 SHL SUB NOT AND SWAP1 SWAP3 OR SWAP1 SWAP2 SSTORE PUSH2 0xB59 SWAP1 PUSH2 0xF3F JUMP JUMPDEST PUSH2 0xB62 CALLER PUSH2 0x13DD JUMP JUMPDEST CALLER PUSH1 0x1 PUSH1 0x1 PUSH1 0xA0 SHL SUB AND PUSH32 0x85851BDF5239DAECEE00C49AFA200B87F208A1CC246F3C3DA177796C9F605D73 DUP3 PUSH1 0x40 MLOAD PUSH2 0x4BE SWAP2 SWAP1 PUSH2 0x1879 JUMP JUMPDEST PUSH1 0x4 PUSH1 0x20 MSTORE PUSH1 0x0 SWAP1 DUP2 MSTORE PUSH1 0x40 SWAP1 KECCAK256 SLOAD PUSH1 0x1 PUSH1 0x1 PUSH1 0xA0 SHL SUB AND DUP2 JUMP JUMPDEST PUSH1 0x1 PUSH1 0x1 PUSH1 0xA0 SHL SUB SWAP1 DUP2 AND PUSH1 0x0 SWAP1 DUP2 MSTORE PUSH1 0x4 PUSH1 0x20 MSTORE PUSH1 0x40 SWAP1 KECCAK256 SLOAD AND SWAP1 JUMP JUMPDEST PUSH2 0xBDC PUSH2 0xD02 JUMP JUMPDEST PUSH1 0x1 PUSH1 0x1 PUSH1 0xA0 SHL SUB DUP2 AND PUSH2 0xC02 JUMPI PUSH1 0x40 MLOAD PUSH3 0x461BCD PUSH1 0xE5 SHL DUP2 MSTORE PUSH1 0x4 ADD PUSH2 0x3B5 SWAP1 PUSH2 0x19F1 JUMP JUMPDEST PUSH2 0xC0B DUP2 PUSH2 0xEEF JUMP JUMPDEST POP JUMP JUMPDEST PUSH1 0x1 PUSH1 0x1 PUSH1 0xA0 SHL SUB DUP2 AND PUSH1 0x0 SWAP1 DUP2 MSTORE PUSH1 0x3 PUSH1 0x20 SWAP1 DUP2 MSTORE PUSH1 0x40 DUP1 DUP4 KECCAK256 DUP1 SLOAD DUP3 MLOAD DUP2 DUP6 MUL DUP2 ADD DUP6 ADD SWAP1 SWAP4 MSTORE DUP1 DUP4 MSTORE DUP5 SWAP4 DUP5 SWAP4 SWAP3 SWAP2 SWAP1 DUP4 ADD DUP3 DUP3 DUP1 ISZERO PUSH2 0xC7A JUMPI PUSH1 0x20 MUL DUP3 ADD SWAP2 SWAP1 PUSH1 0x0 MSTORE PUSH1 0x20 PUSH1 0x0 KECCAK256 SWAP1 JUMPDEST DUP2 SLOAD PUSH1 0x1 PUSH1 0x1 PUSH1 0xA0 SHL SUB AND DUP2 MSTORE PUSH1 0x1 SWAP1 SWAP2 ADD SWAP1 PUSH1 0x20 ADD DUP1 DUP4 GT PUSH2 0xC5C JUMPI JUMPDEST POP POP POP POP POP SWAP1 POP PUSH1 0x0 JUMPDEST DUP2 MLOAD DUP2 LT ISZERO PUSH2 0xCE9 JUMPI DUP6 PUSH1 0x1 PUSH1 0x1 PUSH1 0xA0 SHL SUB AND DUP3 DUP3 DUP2 MLOAD DUP2 LT PUSH2 0xCB7 JUMPI PUSH4 0x4E487B71 PUSH1 0xE0 SHL PUSH1 0x0 MSTORE PUSH1 0x32 PUSH1 0x4 MSTORE PUSH1 0x24 PUSH1 0x0 REVERT JUMPDEST PUSH1 0x20 MUL PUSH1 0x20 ADD ADD MLOAD PUSH1 0x1 PUSH1 0x1 PUSH1 0xA0 SHL SUB AND EQ ISZERO PUSH2 0xCD7 JUMPI PUSH1 0x1 SWAP3 POP PUSH2 0xCE9 JUMP JUMPDEST DUP1 PUSH2 0xCE1 DUP2 PUSH2 0x1CBA JUMP JUMPDEST SWAP2 POP POP PUSH2 0xC84 JUMP JUMPDEST POP SWAP1 SWAP5 SWAP4 POP POP POP POP JUMP JUMPDEST PUSH1 0x6 SLOAD PUSH1 0x1 PUSH1 0x1 PUSH1 0xA0 SHL SUB AND DUP2 JUMP JUMPDEST PUSH2 0xD0A PUSH2 0x16D6 JUMP JUMPDEST PUSH1 0x1 PUSH1 0x1 PUSH1 0xA0 SHL SUB AND PUSH2 0xD1B PUSH2 0xA7C JUMP JUMPDEST PUSH1 0x1 PUSH1 0x1 PUSH1 0xA0 SHL SUB AND EQ PUSH2 0x8F0 JUMPI PUSH1 0x40 MLOAD PUSH3 0x461BCD PUSH1 0xE5 SHL DUP2 MSTORE PUSH1 0x4 ADD PUSH2 0x3B5 SWAP1 PUSH2 0x1B70 JUMP JUMPDEST PUSH1 0x0 DUP1 PUSH1 0x0 JUMPDEST PUSH1 0x1 PUSH1 0x1 PUSH1 0xA0 SHL SUB DUP6 AND PUSH1 0x0 SWAP1 DUP2 MSTORE PUSH1 0x3 PUSH1 0x20 MSTORE PUSH1 0x40 SWAP1 KECCAK256 SLOAD DUP2 LT ISZERO PUSH2 0xDDD JUMPI PUSH1 0x1 PUSH1 0x1 PUSH1 0xA0 SHL SUB DUP6 DUP2 AND PUSH1 0x0 SWAP1 DUP2 MSTORE PUSH1 0x3 PUSH1 0x20 MSTORE PUSH1 0x40 SWAP1 KECCAK256 DUP1 SLOAD SWAP2 DUP7 AND SWAP2 DUP4 SWAP1 DUP2 LT PUSH2 0xDA4 JUMPI PUSH4 0x4E487B71 PUSH1 0xE0 SHL PUSH1 0x0 MSTORE PUSH1 0x32 PUSH1 0x4 MSTORE PUSH1 0x24 PUSH1 0x0 REVERT JUMPDEST PUSH1 0x0 SWAP2 DUP3 MSTORE PUSH1 0x20 SWAP1 SWAP2 KECCAK256 ADD SLOAD PUSH1 0x1 PUSH1 0x1 PUSH1 0xA0 SHL SUB AND EQ ISZERO PUSH2 0xDCB JUMPI PUSH1 0x1 SWAP2 POP DUP1 SWAP3 POP PUSH2 0xDDD JUMP JUMPDEST DUP1 PUSH2 0xDD5 DUP2 PUSH2 0x1CBA JUMP JUMPDEST SWAP2 POP POP PUSH2 0xD47 JUMP JUMPDEST POP DUP1 ISZERO PUSH2 0xEE9 JUMPI PUSH1 0x1 PUSH1 0x1 PUSH1 0xA0 SHL SUB DUP5 AND PUSH1 0x0 SWAP1 DUP2 MSTORE PUSH1 0x3 PUSH1 0x20 MSTORE PUSH1 0x40 SWAP1 KECCAK256 DUP1 SLOAD PUSH2 0xE0A SWAP1 PUSH1 0x1 SWAP1 PUSH2 0x1CA3 JUMP JUMPDEST DUP2 SLOAD DUP2 LT PUSH2 0xE28 JUMPI PUSH4 0x4E487B71 PUSH1 0xE0 SHL PUSH1 0x0 MSTORE PUSH1 0x32 PUSH1 0x4 MSTORE PUSH1 0x24 PUSH1 0x0 REVERT JUMPDEST PUSH1 0x0 SWAP2 DUP3 MSTORE PUSH1 0x20 DUP1 DUP4 KECCAK256 SWAP1 SWAP2 ADD SLOAD PUSH1 0x1 PUSH1 0x1 PUSH1 0xA0 SHL SUB DUP8 DUP2 AND DUP5 MSTORE PUSH1 0x3 SWAP1 SWAP3 MSTORE PUSH1 0x40 SWAP1 SWAP3 KECCAK256 DUP1 SLOAD SWAP2 SWAP1 SWAP3 AND SWAP2 SWAP1 DUP5 SWAP1 DUP2 LT PUSH2 0xE73 JUMPI PUSH4 0x4E487B71 PUSH1 0xE0 SHL PUSH1 0x0 MSTORE PUSH1 0x32 PUSH1 0x4 MSTORE PUSH1 0x24 PUSH1 0x0 REVERT JUMPDEST PUSH1 0x0 SWAP2 DUP3 MSTORE PUSH1 0x20 DUP1 DUP4 KECCAK256 SWAP2 SWAP1 SWAP2 ADD DUP1 SLOAD PUSH1 0x1 PUSH1 0x1 PUSH1 0xA0 SHL SUB NOT AND PUSH1 0x1 PUSH1 0x1 PUSH1 0xA0 SHL SUB SWAP5 DUP6 AND OR SWAP1 SSTORE SWAP2 DUP7 AND DUP2 MSTORE PUSH1 0x3 SWAP1 SWAP2 MSTORE PUSH1 0x40 SWAP1 KECCAK256 DUP1 SLOAD DUP1 PUSH2 0xEC6 JUMPI PUSH4 0x4E487B71 PUSH1 0xE0 SHL PUSH1 0x0 MSTORE PUSH1 0x31 PUSH1 0x4 MSTORE PUSH1 0x24 PUSH1 0x0 REVERT JUMPDEST PUSH1 0x0 DUP3 DUP2 MSTORE PUSH1 0x20 SWAP1 KECCAK256 DUP2 ADD PUSH1 0x0 NOT SWAP1 DUP2 ADD DUP1 SLOAD PUSH1 0x1 PUSH1 0x1 PUSH1 0xA0 SHL SUB NOT AND SWAP1 SSTORE ADD SWAP1 SSTORE JUMPDEST POP POP POP POP JUMP JUMPDEST PUSH1 0x0 DUP1 SLOAD PUSH1 0x1 PUSH1 0x1 PUSH1 0xA0 SHL SUB DUP4 DUP2 AND PUSH1 0x1 PUSH1 0x1 PUSH1 0xA0 SHL SUB NOT DUP4 AND DUP2 OR DUP5 SSTORE PUSH1 0x40 MLOAD SWAP2 SWAP1 SWAP3 AND SWAP3 DUP4 SWAP2 PUSH32 0x8BE0079C531659141344CD1FD0A4F28419497F9722A3DAAFE3B4186F6B6457E0 SWAP2 SWAP1 LOG3 POP POP JUMP JUMPDEST PUSH1 0x6 SLOAD PUSH1 0x40 DUP1 MLOAD PUSH4 0x855D151 PUSH1 0xE0 SHL DUP2 MSTORE SWAP1 MLOAD PUSH1 0x0 SWAP3 PUSH1 0x1 PUSH1 0x1 PUSH1 0xA0 SHL SUB AND SWAP2 PUSH4 0x855D151 SWAP2 PUSH1 0x4 DUP1 DUP4 ADD SWAP3 PUSH1 0x20 SWAP3 SWAP2 SWAP1 DUP3 SWAP1 SUB ADD DUP2 DUP7 DUP1 EXTCODESIZE ISZERO DUP1 ISZERO PUSH2 0xF84 JUMPI PUSH1 0x0 DUP1 REVERT JUMPDEST POP GAS STATICCALL ISZERO DUP1 ISZERO PUSH2 0xF98 JUMPI RETURNDATASIZE PUSH1 0x0 DUP1 RETURNDATACOPY RETURNDATASIZE PUSH1 0x0 REVERT JUMPDEST POP POP POP POP PUSH1 0x40 MLOAD RETURNDATASIZE PUSH1 0x1F NOT PUSH1 0x1F DUP3 ADD AND DUP3 ADD DUP1 PUSH1 0x40 MSTORE POP DUP2 ADD SWAP1 PUSH2 0xFBC SWAP2 SWAP1 PUSH2 0x1701 JUMP JUMPDEST PUSH1 0x1 PUSH1 0x1 PUSH1 0xA0 SHL SUB AND EQ ISZERO PUSH2 0xFE3 JUMPI PUSH1 0x40 MLOAD PUSH3 0x461BCD PUSH1 0xE5 SHL DUP2 MSTORE PUSH1 0x4 ADD PUSH2 0x3B5 SWAP1 PUSH2 0x1C02 JUMP JUMPDEST PUSH1 0x6 SLOAD PUSH1 0x40 DUP1 MLOAD PUSH4 0xE992DCA7 PUSH1 0xE0 SHL DUP2 MSTORE SWAP1 MLOAD PUSH1 0x0 SWAP3 PUSH1 0x1 PUSH1 0x1 PUSH1 0xA0 SHL SUB AND SWAP2 PUSH4 0xE992DCA7 SWAP2 PUSH1 0x4 DUP1 DUP4 ADD SWAP3 PUSH1 0x20 SWAP3 SWAP2 SWAP1 DUP3 SWAP1 SUB ADD DUP2 DUP7 DUP1 EXTCODESIZE ISZERO DUP1 ISZERO PUSH2 0x1028 JUMPI PUSH1 0x0 DUP1 REVERT JUMPDEST POP GAS STATICCALL ISZERO DUP1 ISZERO PUSH2 0x103C JUMPI RETURNDATASIZE PUSH1 0x0 DUP1 RETURNDATACOPY RETURNDATASIZE PUSH1 0x0 REVERT JUMPDEST POP POP POP POP PUSH1 0x40 MLOAD RETURNDATASIZE PUSH1 0x1F NOT PUSH1 0x1F DUP3 ADD AND DUP3 ADD DUP1 PUSH1 0x40 MSTORE POP DUP2 ADD SWAP1 PUSH2 0x1060 SWAP2 SWAP1 PUSH2 0x1701 JUMP JUMPDEST PUSH1 0x1 PUSH1 0x1 PUSH1 0xA0 SHL SUB AND EQ ISZERO PUSH2 0x1087 JUMPI PUSH1 0x40 MLOAD PUSH3 0x461BCD PUSH1 0xE5 SHL DUP2 MSTORE PUSH1 0x4 ADD PUSH2 0x3B5 SWAP1 PUSH2 0x1C02 JUMP JUMPDEST PUSH1 0x6 SLOAD PUSH1 0x40 DUP1 MLOAD PUSH4 0x855D151 PUSH1 0xE0 SHL DUP2 MSTORE SWAP1 MLOAD PUSH1 0x0 SWAP3 PUSH1 0x1 PUSH1 0x1 PUSH1 0xA0 SHL SUB AND SWAP2 PUSH4 0x855D151 SWAP2 PUSH1 0x4 DUP1 DUP4 ADD SWAP3 PUSH1 0x20 SWAP3 SWAP2 SWAP1 DUP3 SWAP1 SUB ADD DUP2 DUP7 DUP1 EXTCODESIZE ISZERO DUP1 ISZERO PUSH2 0x10CC JUMPI PUSH1 0x0 DUP1 REVERT JUMPDEST POP GAS STATICCALL ISZERO DUP1 ISZERO PUSH2 0x10E0 JUMPI RETURNDATASIZE PUSH1 0x0 DUP1 RETURNDATACOPY RETURNDATASIZE PUSH1 0x0 REVERT JUMPDEST POP POP POP POP PUSH1 0x40 MLOAD RETURNDATASIZE PUSH1 0x1F NOT PUSH1 0x1F DUP3 ADD AND DUP3 ADD DUP1 PUSH1 0x40 MSTORE POP DUP2 ADD SWAP1 PUSH2 0x1104 SWAP2 SWAP1 PUSH2 0x1701 JUMP JUMPDEST SWAP1 POP PUSH1 0x0 PUSH1 0x6 PUSH1 0x0 SWAP1 SLOAD SWAP1 PUSH2 0x100 EXP SWAP1 DIV PUSH1 0x1 PUSH1 0x1 PUSH1 0xA0 SHL SUB AND PUSH1 0x1 PUSH1 0x1 PUSH1 0xA0 SHL SUB AND PUSH4 0xE992DCA7 PUSH1 0x40 MLOAD DUP2 PUSH4 0xFFFFFFFF AND PUSH1 0xE0 SHL DUP2 MSTORE PUSH1 0x4 ADD PUSH1 0x20 PUSH1 0x40 MLOAD DUP1 DUP4 SUB DUP2 DUP7 DUP1 EXTCODESIZE ISZERO DUP1 ISZERO PUSH2 0x1156 JUMPI PUSH1 0x0 DUP1 REVERT JUMPDEST POP GAS STATICCALL ISZERO DUP1 ISZERO PUSH2 0x116A JUMPI RETURNDATASIZE PUSH1 0x0 DUP1 RETURNDATACOPY RETURNDATASIZE PUSH1 0x0 REVERT JUMPDEST POP POP POP POP PUSH1 0x40 MLOAD RETURNDATASIZE PUSH1 0x1F NOT PUSH1 0x1F DUP3 ADD AND DUP3 ADD DUP1 PUSH1 0x40 MSTORE POP DUP2 ADD SWAP1 PUSH2 0x118E SWAP2 SWAP1 PUSH2 0x1701 JUMP JUMPDEST PUSH1 0x1 PUSH1 0x1 PUSH1 0xA0 SHL SUB DUP5 DUP2 AND PUSH1 0x0 SWAP1 DUP2 MSTORE PUSH1 0x4 PUSH1 0x20 MSTORE PUSH1 0x40 SWAP1 KECCAK256 SLOAD SWAP2 SWAP3 POP AND PUSH2 0x11C8 JUMPI PUSH1 0x40 MLOAD PUSH3 0x461BCD PUSH1 0xE5 SHL DUP2 MSTORE PUSH1 0x4 ADD PUSH2 0x3B5 SWAP1 PUSH2 0x18FF JUMP JUMPDEST PUSH1 0x40 MLOAD PUSH4 0x70A08231 PUSH1 0xE0 SHL DUP2 MSTORE PUSH1 0x0 SWAP1 PUSH1 0x1 PUSH1 0x1 PUSH1 0xA0 SHL SUB DUP4 AND SWAP1 PUSH4 0x70A08231 SWAP1 PUSH2 0x11F7 SWAP1 DUP8 SWAP1 PUSH1 0x4 ADD PUSH2 0x1879 JUMP JUMPDEST PUSH1 0x20 PUSH1 0x40 MLOAD DUP1 DUP4 SUB DUP2 DUP7 DUP1 EXTCODESIZE ISZERO DUP1 ISZERO PUSH2 0x120F JUMPI PUSH1 0x0 DUP1 REVERT JUMPDEST POP GAS STATICCALL ISZERO DUP1 ISZERO PUSH2 0x1223 JUMPI RETURNDATASIZE PUSH1 0x0 DUP1 RETURNDATACOPY RETURNDATASIZE PUSH1 0x0 REVERT JUMPDEST POP POP POP POP PUSH1 0x40 MLOAD RETURNDATASIZE PUSH1 0x1F NOT PUSH1 0x1F DUP3 ADD AND DUP3 ADD DUP1 PUSH1 0x40 MSTORE POP DUP2 ADD SWAP1 PUSH2 0x1247 SWAP2 SWAP1 PUSH2 0x1861 JUMP JUMPDEST SWAP1 POP PUSH1 0x0 PUSH2 0x1254 DUP6 PUSH2 0x38D JUMP JUMPDEST SWAP1 POP DUP2 ISZERO PUSH2 0x13D6 JUMPI PUSH1 0x40 MLOAD PUSH4 0xDB6CC85 PUSH1 0xE1 SHL DUP2 MSTORE PUSH1 0x1 PUSH1 0x1 PUSH1 0xA0 SHL SUB DUP6 AND SWAP1 PUSH4 0x1B6D990A SWAP1 PUSH2 0x128A SWAP1 DUP6 SWAP1 DUP6 SWAP1 PUSH1 0x4 ADD PUSH2 0x1C85 JUMP JUMPDEST PUSH1 0x20 PUSH1 0x40 MLOAD DUP1 DUP4 SUB DUP2 PUSH1 0x0 DUP8 DUP1 EXTCODESIZE ISZERO DUP1 ISZERO PUSH2 0x12A4 JUMPI PUSH1 0x0 DUP1 REVERT JUMPDEST POP GAS CALL ISZERO DUP1 ISZERO PUSH2 0x12B8 JUMPI RETURNDATASIZE PUSH1 0x0 DUP1 RETURNDATACOPY RETURNDATASIZE PUSH1 0x0 REVERT JUMPDEST POP POP POP POP PUSH1 0x40 MLOAD RETURNDATASIZE PUSH1 0x1F NOT PUSH1 0x1F DUP3 ADD AND DUP3 ADD DUP1 PUSH1 0x40 MSTORE POP DUP2 ADD SWAP1 PUSH2 0x12DC SWAP2 SWAP1 PUSH2 0x1841 JUMP JUMPDEST PUSH2 0x12F8 JUMPI PUSH1 0x40 MLOAD PUSH3 0x461BCD PUSH1 0xE5 SHL DUP2 MSTORE PUSH1 0x4 ADD PUSH2 0x3B5 SWAP1 PUSH2 0x1ACC JUMP JUMPDEST PUSH1 0x40 MLOAD PUSH4 0x171BCFC3 PUSH1 0xE2 SHL DUP2 MSTORE PUSH1 0x1 PUSH1 0x1 PUSH1 0xA0 SHL SUB DUP6 AND SWAP1 PUSH4 0x5C6F3F0C SWAP1 PUSH2 0x1326 SWAP1 DUP6 SWAP1 DUP10 SWAP1 PUSH1 0x4 ADD PUSH2 0x1C85 JUMP JUMPDEST PUSH1 0x20 PUSH1 0x40 MLOAD DUP1 DUP4 SUB DUP2 PUSH1 0x0 DUP8 DUP1 EXTCODESIZE ISZERO DUP1 ISZERO PUSH2 0x1340 JUMPI PUSH1 0x0 DUP1 REVERT JUMPDEST POP GAS CALL ISZERO DUP1 ISZERO PUSH2 0x1354 JUMPI RETURNDATASIZE PUSH1 0x0 DUP1 RETURNDATACOPY RETURNDATASIZE PUSH1 0x0 REVERT JUMPDEST POP POP POP POP PUSH1 0x40 MLOAD RETURNDATASIZE PUSH1 0x1F NOT PUSH1 0x1F DUP3 ADD AND DUP3 ADD DUP1 PUSH1 0x40 MSTORE POP DUP2 ADD SWAP1 PUSH2 0x1378 SWAP2 SWAP1 PUSH2 0x1841 JUMP JUMPDEST PUSH2 0x1394 JUMPI PUSH1 0x40 MLOAD PUSH3 0x461BCD PUSH1 0xE5 SHL DUP2 MSTORE PUSH1 0x4 ADD PUSH2 0x3B5 SWAP1 PUSH2 0x1B1D JUMP JUMPDEST DUP5 PUSH1 0x1 PUSH1 0x1 PUSH1 0xA0 SHL SUB AND PUSH32 0xC587680578B3ACB8EEB1AB421A6921EFE2A32B10903016EBD6C3F39E51CD1D96 DUP3 PUSH1 0x40 MLOAD PUSH2 0x13CD SWAP2 SWAP1 PUSH2 0x1879 JUMP JUMPDEST PUSH1 0x40 MLOAD DUP1 SWAP2 SUB SWAP1 LOG2 JUMPDEST POP POP POP POP POP JUMP JUMPDEST PUSH1 0x6 SLOAD PUSH1 0x40 DUP1 MLOAD PUSH4 0x4E76C8F PUSH1 0xE0 SHL DUP2 MSTORE SWAP1 MLOAD PUSH1 0x0 SWAP3 PUSH1 0x1 PUSH1 0x1 PUSH1 0xA0 SHL SUB AND SWAP2 PUSH4 0x4E76C8F SWAP2 PUSH1 0x4 DUP1 DUP4 ADD SWAP3 PUSH1 0x20 SWAP3 SWAP2 SWAP1 DUP3 SWAP1 SUB ADD DUP2 DUP7 DUP1 EXTCODESIZE ISZERO DUP1 ISZERO PUSH2 0x1422 JUMPI PUSH1 0x0 DUP1 REVERT JUMPDEST POP GAS STATICCALL ISZERO DUP1 ISZERO PUSH2 0x1436 JUMPI RETURNDATASIZE PUSH1 0x0 DUP1 RETURNDATACOPY RETURNDATASIZE PUSH1 0x0 REVERT JUMPDEST POP POP POP POP PUSH1 0x40 MLOAD RETURNDATASIZE PUSH1 0x1F NOT PUSH1 0x1F DUP3 ADD AND DUP3 ADD DUP1 PUSH1 0x40 MSTORE POP DUP2 ADD SWAP1 PUSH2 0x145A SWAP2 SWAP1 PUSH2 0x1701 JUMP JUMPDEST PUSH1 0x1 PUSH1 0x1 PUSH1 0xA0 SHL SUB AND EQ ISZERO PUSH2 0x1481 JUMPI PUSH1 0x40 MLOAD PUSH3 0x461BCD PUSH1 0xE5 SHL DUP2 MSTORE PUSH1 0x4 ADD PUSH2 0x3B5 SWAP1 PUSH2 0x1A89 JUMP JUMPDEST PUSH1 0x6 SLOAD PUSH1 0x40 DUP1 MLOAD PUSH4 0x4E76C8F PUSH1 0xE0 SHL DUP2 MSTORE SWAP1 MLOAD PUSH1 0x0 SWAP3 PUSH1 0x1 PUSH1 0x1 PUSH1 0xA0 SHL SUB AND SWAP2 PUSH4 0x4E76C8F SWAP2 PUSH1 0x4 DUP1 DUP4 ADD SWAP3 PUSH1 0x20 SWAP3 SWAP2 SWAP1 DUP3 SWAP1 SUB ADD DUP2 DUP7 DUP1 EXTCODESIZE ISZERO DUP1 ISZERO PUSH2 0x14C6 JUMPI PUSH1 0x0 DUP1 REVERT JUMPDEST POP GAS STATICCALL ISZERO DUP1 ISZERO PUSH2 0x14DA JUMPI RETURNDATASIZE PUSH1 0x0 DUP1 RETURNDATACOPY RETURNDATASIZE PUSH1 0x0 REVERT JUMPDEST POP POP POP POP PUSH1 0x40 MLOAD RETURNDATASIZE PUSH1 0x1F NOT PUSH1 0x1F DUP3 ADD AND DUP3 ADD DUP1 PUSH1 0x40 MSTORE POP DUP2 ADD SWAP1 PUSH2 0x14FE SWAP2 SWAP1 PUSH2 0x1701 JUMP JUMPDEST SWAP1 POP PUSH1 0x1 PUSH1 0x1 PUSH1 0xA0 SHL SUB DUP2 AND PUSH2 0x1526 JUMPI PUSH1 0x40 MLOAD PUSH3 0x461BCD PUSH1 0xE5 SHL DUP2 MSTORE PUSH1 0x4 ADD PUSH2 0x3B5 SWAP1 PUSH2 0x19BA JUMP JUMPDEST PUSH1 0x1 PUSH1 0x1 PUSH1 0xA0 SHL SUB DUP3 DUP2 AND PUSH1 0x0 SWAP1 DUP2 MSTORE PUSH1 0x4 PUSH1 0x20 MSTORE PUSH1 0x40 SWAP1 KECCAK256 SLOAD AND PUSH2 0x155D JUMPI PUSH1 0x40 MLOAD PUSH3 0x461BCD PUSH1 0xE5 SHL DUP2 MSTORE PUSH1 0x4 ADD PUSH2 0x3B5 SWAP1 PUSH2 0x18FF JUMP JUMPDEST PUSH1 0x40 MLOAD PUSH4 0x3B4FEBFB PUSH1 0xE2 SHL DUP2 MSTORE PUSH1 0x0 SWAP1 PUSH1 0x1 PUSH1 0x1 PUSH1 0xA0 SHL SUB DUP4 AND SWAP1 PUSH4 0xED3FAFEC SWAP1 PUSH2 0x158C SWAP1 DUP7 SWAP1 PUSH1 0x4 ADD PUSH2 0x1879 JUMP JUMPDEST PUSH1 0x20 PUSH1 0x40 MLOAD DUP1 DUP4 SUB DUP2 PUSH1 0x0 DUP8 DUP1 EXTCODESIZE ISZERO DUP1 ISZERO PUSH2 0x15A6 JUMPI PUSH1 0x0 DUP1 REVERT JUMPDEST POP GAS CALL ISZERO DUP1 ISZERO PUSH2 0x15BA JUMPI RETURNDATASIZE PUSH1 0x0 DUP1 RETURNDATACOPY RETURNDATASIZE PUSH1 0x0 REVERT JUMPDEST POP POP POP POP PUSH1 0x40 MLOAD RETURNDATASIZE PUSH1 0x1F NOT PUSH1 0x1F DUP3 ADD AND DUP3 ADD DUP1 PUSH1 0x40 MSTORE POP DUP2 ADD SWAP1 PUSH2 0x15DE SWAP2 SWAP1 PUSH2 0x1861 JUMP JUMPDEST SWAP1 POP PUSH1 0x0 PUSH2 0x15EB DUP5 PUSH2 0x38D JUMP JUMPDEST SWAP1 POP DUP2 ISZERO PUSH2 0xEE9 JUMPI PUSH1 0x40 MLOAD PUSH4 0x5F28BAD5 PUSH1 0xE0 SHL DUP2 MSTORE PUSH1 0x1 PUSH1 0x1 PUSH1 0xA0 SHL SUB DUP5 AND SWAP1 PUSH4 0x5F28BAD5 SWAP1 PUSH2 0x1621 SWAP1 DUP8 SWAP1 DUP6 SWAP1 PUSH1 0x4 ADD PUSH2 0x188D JUMP JUMPDEST PUSH1 0x20 PUSH1 0x40 MLOAD DUP1 DUP4 SUB DUP2 PUSH1 0x0 DUP8 DUP1 EXTCODESIZE ISZERO DUP1 ISZERO PUSH2 0x163B JUMPI PUSH1 0x0 DUP1 REVERT JUMPDEST POP GAS CALL ISZERO DUP1 ISZERO PUSH2 0x164F JUMPI RETURNDATASIZE PUSH1 0x0 DUP1 RETURNDATACOPY RETURNDATASIZE PUSH1 0x0 REVERT JUMPDEST POP POP POP POP PUSH1 0x40 MLOAD RETURNDATASIZE PUSH1 0x1F NOT PUSH1 0x1F DUP3 ADD AND DUP3 ADD DUP1 PUSH1 0x40 MSTORE POP DUP2 ADD SWAP1 PUSH2 0x1673 SWAP2 SWAP1 PUSH2 0x1841 JUMP JUMPDEST PUSH2 0x168F JUMPI PUSH1 0x40 MLOAD PUSH3 0x461BCD PUSH1 0xE5 SHL DUP2 MSTORE PUSH1 0x4 ADD PUSH2 0x3B5 SWAP1 PUSH2 0x1967 JUMP JUMPDEST DUP4 PUSH1 0x1 PUSH1 0x1 PUSH1 0xA0 SHL SUB AND PUSH32 0x4B22084EC80E4B31B47CB8C65CD44C4E4E2840E20DFFCBD81BD7D048B74FB4E DUP3 PUSH1 0x40 MLOAD PUSH2 0x16C8 SWAP2 SWAP1 PUSH2 0x1879 JUMP JUMPDEST PUSH1 0x40 MLOAD DUP1 SWAP2 SUB SWAP1 LOG2 POP POP POP POP JUMP JUMPDEST CALLER SWAP1 JUMP JUMPDEST DUP1 CALLDATALOAD PUSH2 0x388 DUP2 PUSH2 0x1D01 JUMP JUMPDEST PUSH1 0x0 PUSH1 0x20 DUP3 DUP5 SUB SLT ISZERO PUSH2 0x16F6 JUMPI DUP1 DUP2 REVERT JUMPDEST DUP2 CALLDATALOAD PUSH2 0xAD6 DUP2 PUSH2 0x1D01 JUMP JUMPDEST PUSH1 0x0 PUSH1 0x20 DUP3 DUP5 SUB SLT ISZERO PUSH2 0x1712 JUMPI DUP1 DUP2 REVERT JUMPDEST DUP2 MLOAD PUSH2 0xAD6 DUP2 PUSH2 0x1D01 JUMP JUMPDEST PUSH1 0x0 DUP1 PUSH1 0x40 DUP4 DUP6 SUB SLT ISZERO PUSH2 0x172F JUMPI DUP1 DUP2 REVERT JUMPDEST DUP3 CALLDATALOAD PUSH2 0x173A DUP2 PUSH2 0x1D01 JUMP JUMPDEST SWAP2 POP PUSH1 0x20 DUP4 ADD CALLDATALOAD PUSH2 0x174A DUP2 PUSH2 0x1D01 JUMP JUMPDEST DUP1 SWAP2 POP POP SWAP3 POP SWAP3 SWAP1 POP JUMP JUMPDEST PUSH1 0x0 DUP1 PUSH1 0x40 DUP4 DUP6 SUB SLT ISZERO PUSH2 0x1767 JUMPI DUP2 DUP3 REVERT JUMPDEST DUP3 CALLDATALOAD PUSH2 0x1772 DUP2 PUSH2 0x1D01 JUMP JUMPDEST SWAP5 PUSH1 0x20 SWAP4 SWAP1 SWAP4 ADD CALLDATALOAD SWAP4 POP POP POP JUMP JUMPDEST PUSH1 0x0 PUSH1 0x20 DUP1 DUP4 DUP6 SUB SLT ISZERO PUSH2 0x1792 JUMPI DUP2 DUP3 REVERT JUMPDEST DUP3 CALLDATALOAD PUSH8 0xFFFFFFFFFFFFFFFF DUP1 DUP3 GT ISZERO PUSH2 0x17A9 JUMPI DUP4 DUP5 REVERT JUMPDEST DUP2 DUP6 ADD SWAP2 POP DUP6 PUSH1 0x1F DUP4 ADD SLT PUSH2 0x17BC JUMPI DUP4 DUP5 REVERT JUMPDEST DUP2 CALLDATALOAD DUP2 DUP2 GT ISZERO PUSH2 0x17CE JUMPI PUSH2 0x17CE PUSH2 0x1CEB JUMP JUMPDEST DUP4 DUP2 MUL PUSH1 0x40 MLOAD DUP6 DUP3 DUP3 ADD ADD DUP2 DUP2 LT DUP6 DUP3 GT OR ISZERO PUSH2 0x17ED JUMPI PUSH2 0x17ED PUSH2 0x1CEB JUMP JUMPDEST PUSH1 0x40 MSTORE DUP3 DUP2 MSTORE DUP6 DUP2 ADD SWAP4 POP DUP5 DUP7 ADD DUP3 DUP7 ADD DUP8 ADD DUP11 LT ISZERO PUSH2 0x180B JUMPI DUP8 DUP9 REVERT JUMPDEST DUP8 SWAP6 POP JUMPDEST DUP4 DUP7 LT ISZERO PUSH2 0x1834 JUMPI PUSH2 0x1820 DUP2 PUSH2 0x16DA JUMP JUMPDEST DUP6 MSTORE PUSH1 0x1 SWAP6 SWAP1 SWAP6 ADD SWAP5 SWAP4 DUP7 ADD SWAP4 DUP7 ADD PUSH2 0x180F JUMP JUMPDEST POP SWAP9 SWAP8 POP POP POP POP POP POP POP POP JUMP JUMPDEST PUSH1 0x0 PUSH1 0x20 DUP3 DUP5 SUB SLT ISZERO PUSH2 0x1852 JUMPI DUP1 DUP2 REVERT JUMPDEST DUP2 MLOAD DUP1 ISZERO ISZERO DUP2 EQ PUSH2 0xAD6 JUMPI DUP2 DUP3 REVERT JUMPDEST PUSH1 0x0 PUSH1 0x20 DUP3 DUP5 SUB SLT ISZERO PUSH2 0x1872 JUMPI DUP1 DUP2 REVERT JUMPDEST POP MLOAD SWAP2 SWAP1 POP JUMP JUMPDEST PUSH1 0x1 PUSH1 0x1 PUSH1 0xA0 SHL SUB SWAP2 SWAP1 SWAP2 AND DUP2 MSTORE PUSH1 0x20 ADD SWAP1 JUMP JUMPDEST PUSH1 0x1 PUSH1 0x1 PUSH1 0xA0 SHL SUB SWAP3 DUP4 AND DUP2 MSTORE SWAP2 AND PUSH1 0x20 DUP3 ADD MSTORE PUSH1 0x40 ADD SWAP1 JUMP JUMPDEST PUSH1 0x20 DUP1 DUP3 MSTORE DUP3 MLOAD DUP3 DUP3 ADD DUP2 SWAP1 MSTORE PUSH1 0x0 SWAP2 SWAP1 DUP5 DUP3 ADD SWAP1 PUSH1 0x40 DUP6 ADD SWAP1 DUP5 JUMPDEST DUP2 DUP2 LT ISZERO PUSH2 0x18E8 JUMPI DUP4 MLOAD PUSH1 0x1 PUSH1 0x1 PUSH1 0xA0 SHL SUB AND DUP4 MSTORE SWAP3 DUP5 ADD SWAP3 SWAP2 DUP5 ADD SWAP2 PUSH1 0x1 ADD PUSH2 0x18C3 JUMP JUMPDEST POP SWAP1 SWAP7 SWAP6 POP POP POP POP POP POP JUMP JUMPDEST SWAP1 ISZERO ISZERO DUP2 MSTORE PUSH1 0x20 ADD SWAP1 JUMP JUMPDEST PUSH1 0x20 DUP1 DUP3 MSTORE PUSH1 0x42 SWAP1 DUP3 ADD MSTORE PUSH32 0x5472616E73666572526570546F4D61737465723A20696E707574205F776F726B PUSH1 0x40 DUP3 ADD MSTORE PUSH32 0x6572206E6565647320746F20686176652061206E6F6E2D6E756C6C206D617374 PUSH1 0x60 DUP3 ADD MSTORE PUSH2 0x32B9 PUSH1 0xF1 SHL PUSH1 0x80 DUP3 ADD MSTORE PUSH1 0xA0 ADD SWAP1 JUMP JUMPDEST PUSH1 0x20 DUP1 DUP3 MSTORE PUSH1 0x33 SWAP1 DUP3 ADD MSTORE PUSH32 0x5472616E7366657252657761726473546F4D61737465723A20636F756C64206E PUSH1 0x40 DUP3 ADD MSTORE PUSH19 0x6F74207472616E736665722072657761726473 PUSH1 0x68 SHL PUSH1 0x60 DUP3 ADD MSTORE PUSH1 0x80 ADD SWAP1 JUMP JUMPDEST PUSH1 0x20 DUP1 DUP3 MSTORE PUSH1 0x1F SWAP1 DUP3 ADD MSTORE PUSH32 0x5265776172644D616E61676572206E6565647320746F20626520736574757000 PUSH1 0x40 DUP3 ADD MSTORE PUSH1 0x60 ADD SWAP1 JUMP JUMPDEST PUSH1 0x20 DUP1 DUP3 MSTORE PUSH1 0x26 SWAP1 DUP3 ADD MSTORE PUSH32 0x4F776E61626C653A206E6577206F776E657220697320746865207A65726F2061 PUSH1 0x40 DUP3 ADD MSTORE PUSH6 0x646472657373 PUSH1 0xD0 SHL PUSH1 0x60 DUP3 ADD MSTORE PUSH1 0x80 ADD SWAP1 JUMP JUMPDEST PUSH1 0x20 DUP1 DUP3 MSTORE PUSH1 0x32 SWAP1 DUP3 ADD MSTORE PUSH32 0x43616E27742072656D6F76653A204D6173746572206E6F7420636C61696D696E PUSH1 0x40 DUP3 ADD MSTORE PUSH18 0x672074686973205375622041646472657373 PUSH1 0x70 SHL PUSH1 0x60 DUP3 ADD MSTORE PUSH1 0x80 ADD SWAP1 JUMP JUMPDEST PUSH1 0x20 DUP1 DUP3 MSTORE PUSH1 0x23 SWAP1 DUP3 ADD MSTORE PUSH32 0x5265776172644D616E61676572206973206E756C6C20696E20506172616D6574 PUSH1 0x40 DUP3 ADD MSTORE PUSH3 0x657273 PUSH1 0xE8 SHL PUSH1 0x60 DUP3 ADD MSTORE PUSH1 0x80 ADD SWAP1 JUMP JUMPDEST PUSH1 0x20 DUP1 DUP3 MSTORE PUSH1 0x31 SWAP1 DUP3 ADD MSTORE PUSH32 0x5472616E73666572526570546F4D61737465723A20636F756C64206E6F74206D PUSH1 0x40 DUP3 ADD MSTORE PUSH17 0x34B73A102932B8103A379036B0B9BA32B9 PUSH1 0x79 SHL PUSH1 0x60 DUP3 ADD MSTORE PUSH1 0x80 ADD SWAP1 JUMP JUMPDEST PUSH1 0x20 DUP1 DUP3 MSTORE PUSH1 0x33 SWAP1 DUP3 ADD MSTORE PUSH32 0x5472616E73666572526570546F4D61737465723A20636F756C64206E6F742062 PUSH1 0x40 DUP3 ADD MSTORE PUSH19 0x3AB937102932B810333937B6903BB7B935B2B9 PUSH1 0x69 SHL PUSH1 0x60 DUP3 ADD MSTORE PUSH1 0x80 ADD SWAP1 JUMP JUMPDEST PUSH1 0x20 DUP1 DUP3 MSTORE DUP2 DUP2 ADD MSTORE PUSH32 0x4F776E61626C653A2063616C6C6572206973206E6F7420746865206F776E6572 PUSH1 0x40 DUP3 ADD MSTORE PUSH1 0x60 ADD SWAP1 JUMP JUMPDEST PUSH1 0x20 DUP1 DUP3 MSTORE PUSH1 0x3E SWAP1 DUP3 ADD MSTORE PUSH32 0x4665746368486967686573744D61737465723A20696E707574205F776F726B65 PUSH1 0x40 DUP3 ADD MSTORE PUSH32 0x72206E6565647320746F206265206E6F6E206E756C6C20616464726573730000 PUSH1 0x60 DUP3 ADD MSTORE PUSH1 0x80 ADD SWAP1 JUMP JUMPDEST PUSH1 0x20 DUP1 DUP3 MSTORE DUP2 DUP2 ADD MSTORE PUSH32 0x5265704D616E61676572206973206E756C6C20696E20506172616D6574657273 PUSH1 0x40 DUP3 ADD MSTORE PUSH1 0x60 ADD SWAP1 JUMP JUMPDEST PUSH1 0x20 DUP1 DUP3 MSTORE PUSH1 0x2E SWAP1 DUP3 ADD MSTORE PUSH32 0x43616E27742072656D6F7665204D61737465723A206E6F7420636C61696D696E PUSH1 0x40 DUP3 ADD MSTORE PUSH14 0x6720746869732061646472657373 PUSH1 0x90 SHL PUSH1 0x60 DUP3 ADD MSTORE PUSH1 0x80 ADD SWAP1 JUMP JUMPDEST SWAP2 DUP3 MSTORE PUSH1 0x1 PUSH1 0x1 PUSH1 0xA0 SHL SUB AND PUSH1 0x20 DUP3 ADD MSTORE PUSH1 0x0 PUSH1 0x40 DUP3 ADD MSTORE PUSH1 0x60 ADD SWAP1 JUMP JUMPDEST PUSH1 0x0 DUP3 DUP3 LT ISZERO PUSH2 0x1CB5 JUMPI PUSH2 0x1CB5 PUSH2 0x1CD5 JUMP JUMPDEST POP SUB SWAP1 JUMP JUMPDEST PUSH1 0x0 PUSH1 0x0 NOT DUP3 EQ ISZERO PUSH2 0x1CCE JUMPI PUSH2 0x1CCE PUSH2 0x1CD5 JUMP JUMPDEST POP PUSH1 0x1 ADD SWAP1 JUMP JUMPDEST PUSH4 0x4E487B71 PUSH1 0xE0 SHL PUSH1 0x0 MSTORE PUSH1 0x11 PUSH1 0x4 MSTORE PUSH1 0x24 PUSH1 0x0 REVERT JUMPDEST PUSH4 0x4E487B71 PUSH1 0xE0 SHL PUSH1 0x0 MSTORE PUSH1 0x41 PUSH1 0x4 MSTORE PUSH1 0x24 PUSH1 0x0 REVERT JUMPDEST PUSH1 0x1 PUSH1 0x1 PUSH1 0xA0 SHL SUB DUP2 AND DUP2 EQ PUSH2 0xC0B JUMPI PUSH1 0x0 DUP1 REVERT INVALID LOG2 PUSH5 0x6970667358 0x22 SLT KECCAK256 TIMESTAMP SWAP14 PUSH14 0x709DD8B851A6F9D4EE0DD3F46D70 0xA8 RETURN SMOD 0x25 SELFDESTRUCT SWAP5 CREATE2 PUSH13 0xD7ED506976514764736F6C6343 STOP ADDMOD STOP STOP CALLER "
				},
				"gasEstimates": {
					"creation": {
						"codeDepositCost": "1500000",
						"executionCost": "44042",
						"totalCost": "1544042"
					},
					"external": {
						"AreMasterSubLinked(address,address)": "infinite",
						"ClaimMaster(address)": "infinite",
						"FetchHighestMaster(address)": "infinite",
						"MasterClaimManySubs(address[])": "infinite",
						"MasterClaimSub(address)": "64642",
						"MasterClaimingWorker(address,address)": "infinite",
						"MasterRemoveManySubs(address[])": "infinite",
						"MasterRemoveSub(address)": "infinite",
						"MasterToSubsMap(address,uint256)": "2225",
						"Parameters()": "1202",
						"RemoveMaster(address)": "44754",
						"SubToMasterMap(address)": "1332",
						"WorkerClaimingMaster(address,address)": "infinite",
						"getMaster(address)": "1363",
						"getMasterSubs(address)": "infinite",
						"isMasterOf(address,address)": "infinite",
						"isMasterOfMe(address)": "1480",
						"isSubInMasterArray(address,address)": "infinite",
						"isSubWorkerOf(address,address)": "infinite",
						"isSubWorkerOfMe(address)": "1402",
						"owner()": "1115",
						"renounceOwnership()": "infinite",
						"transferOwnership(address)": "infinite",
						"updateParametersManager(address)": "22178"
					},
					"internal": {
						"PopFromSubsArray(address,address)": "infinite",
						"TransferRepToMaster(address)": "infinite",
						"TransferRewardsToMaster(address)": "infinite"
					}
				},
				"methodIdentifiers": {
					"AreMasterSubLinked(address,address)": "9f62c379",
					"ClaimMaster(address)": "df77a0f6",
					"FetchHighestMaster(address)": "11815086",
					"MasterClaimManySubs(address[])": "39c3f6e7",
					"MasterClaimSub(address)": "12ccb147",
					"MasterClaimingWorker(address,address)": "342bffbf",
					"MasterRemoveManySubs(address[])": "8213b8d8",
					"MasterRemoveSub(address)": "4826d043",
					"MasterToSubsMap(address,uint256)": "2e3ce457",
					"Parameters()": "ff43de9d",
					"RemoveMaster(address)": "584720f5",
					"SubToMasterMap(address)": "e4f1d0fd",
					"WorkerClaimingMaster(address,address)": "1778f9c8",
					"getMaster(address)": "f25e9ed2",
					"getMasterSubs(address)": "198ff3dc",
					"isMasterOf(address,address)": "96daff56",
					"isMasterOfMe(address)": "db519824",
					"isSubInMasterArray(address,address)": "f77c8658",
					"isSubWorkerOf(address,address)": "ac8d65cb",
					"isSubWorkerOfMe(address)": "0c06e4df",
					"owner()": "8da5cb5b",
					"renounceOwnership()": "715018a6",
					"transferOwnership(address)": "f2fde38b",
					"updateParametersManager(address)": "05957623"
				}
			},
			"storageLayout": {
				"storage": [
					{
						"astId": 7,
						"contract": "worksystems/AddressManager.sol:AddressManager",
						"label": "_owner",
						"offset": 0,
						"slot": "0",
						"type": "t_address"
					},
					{
						"astId": 650,
						"contract": "worksystems/AddressManager.sol:AddressManager",
						"label": "MasterClaimingWorker",
						"offset": 0,
						"slot": "1",
						"type": "t_mapping(t_address,t_mapping(t_address,t_bool))"
					},
					{
						"astId": 656,
						"contract": "worksystems/AddressManager.sol:AddressManager",
						"label": "WorkerClaimingMaster",
						"offset": 0,
						"slot": "2",
						"type": "t_mapping(t_address,t_mapping(t_address,t_bool))"
					},
					{
						"astId": 661,
						"contract": "worksystems/AddressManager.sol:AddressManager",
						"label": "MasterToSubsMap",
						"offset": 0,
						"slot": "3",
						"type": "t_mapping(t_address,t_array(t_address)dyn_storage)"
					},
					{
						"astId": 665,
						"contract": "worksystems/AddressManager.sol:AddressManager",
						"label": "SubToMasterMap",
						"offset": 0,
						"slot": "4",
						"type": "t_mapping(t_address,t_address)"
					},
					{
						"astId": 668,
						"contract": "worksystems/AddressManager.sol:AddressManager",
						"label": "MAX_MASTER_LOOKUP",
						"offset": 0,
						"slot": "5",
						"type": "t_uint256"
					},
					{
						"astId": 671,
						"contract": "worksystems/AddressManager.sol:AddressManager",
						"label": "Parameters",
						"offset": 0,
						"slot": "6",
						"type": "t_contract(IParametersManager)642"
					}
				],
				"types": {
					"t_address": {
						"encoding": "inplace",
						"label": "address",
						"numberOfBytes": "20"
					},
					"t_array(t_address)dyn_storage": {
						"base": "t_address",
						"encoding": "dynamic_array",
						"label": "address[]",
						"numberOfBytes": "32"
					},
					"t_bool": {
						"encoding": "inplace",
						"label": "bool",
						"numberOfBytes": "1"
					},
					"t_contract(IParametersManager)642": {
						"encoding": "inplace",
						"label": "contract IParametersManager",
						"numberOfBytes": "20"
					},
					"t_mapping(t_address,t_address)": {
						"encoding": "mapping",
						"key": "t_address",
						"label": "mapping(address => address)",
						"numberOfBytes": "32",
						"value": "t_address"
					},
					"t_mapping(t_address,t_array(t_address)dyn_storage)": {
						"encoding": "mapping",
						"key": "t_address",
						"label": "mapping(address => address[])",
						"numberOfBytes": "32",
						"value": "t_array(t_address)dyn_storage"
					},
					"t_mapping(t_address,t_bool)": {
						"encoding": "mapping",
						"key": "t_address",
						"label": "mapping(address => bool)",
						"numberOfBytes": "32",
						"value": "t_bool"
					},
					"t_mapping(t_address,t_mapping(t_address,t_bool))": {
						"encoding": "mapping",
						"key": "t_address",
						"label": "mapping(address => mapping(address => bool))",
						"numberOfBytes": "32",
						"value": "t_mapping(t_address,t_bool)"
					},
					"t_uint256": {
						"encoding": "inplace",
						"label": "uint256",
						"numberOfBytes": "32"
					}
				}
			},
			"userdoc": {
				"kind": "user",
				"methods": {},
				"version": 1
			}
		}
	}
}