{
	"contracts/worksystems/StakingManager.sol": {
		"StakingManager": {
			"abi": [
				{
					"inputs": [
						{
							"internalType": "address",
							"name": "EXD_token",
							"type": "address"
						}
					],
					"stateMutability": "nonpayable",
					"type": "constructor"
				},
				{
					"anonymous": false,
					"inputs": [
						{
							"indexed": true,
							"internalType": "address",
							"name": "previousOwner",
							"type": "address"
						},
						{
							"indexed": true,
							"internalType": "address",
							"name": "newOwner",
							"type": "address"
						}
					],
					"name": "OwnershipTransferred",
					"type": "event"
				},
				{
					"anonymous": false,
					"inputs": [
						{
							"indexed": true,
							"internalType": "address",
							"name": "account",
							"type": "address"
						},
						{
							"indexed": false,
							"internalType": "bool",
							"name": "isWhitelisted",
							"type": "bool"
						}
					],
					"name": "StakeUnWhitelisted",
					"type": "event"
				},
				{
					"anonymous": false,
					"inputs": [
						{
							"indexed": true,
							"internalType": "address",
							"name": "account",
							"type": "address"
						},
						{
							"indexed": false,
							"internalType": "bool",
							"name": "isWhitelisted",
							"type": "bool"
						}
					],
					"name": "StakeWhitelisted",
					"type": "event"
				},
				{
					"inputs": [
						{
							"internalType": "address",
							"name": "_stakeholder",
							"type": "address"
						}
					],
					"name": "AllocatedStakedAmountOf",
					"outputs": [
						{
							"internalType": "uint256",
							"name": "",
							"type": "uint256"
						}
					],
					"stateMutability": "view",
					"type": "function"
				},
				{
					"inputs": [
						{
							"internalType": "address",
							"name": "_stakeholder",
							"type": "address"
						}
					],
					"name": "AvailableStakedAmountOf",
					"outputs": [
						{
							"internalType": "uint256",
							"name": "",
							"type": "uint256"
						}
					],
					"stateMutability": "view",
					"type": "function"
				},
				{
					"inputs": [
						{
							"internalType": "uint256",
							"name": "_StakeAllocation",
							"type": "uint256"
						},
						{
							"internalType": "address",
							"name": "_stakeholder",
							"type": "address"
						}
					],
					"name": "ProxyStakeAllocate",
					"outputs": [
						{
							"internalType": "bool",
							"name": "",
							"type": "bool"
						}
					],
					"stateMutability": "nonpayable",
					"type": "function"
				},
				{
					"inputs": [
						{
							"internalType": "uint256",
							"name": "_StakeToDeallocate",
							"type": "uint256"
						},
						{
							"internalType": "address",
							"name": "_stakeholder",
							"type": "address"
						}
					],
					"name": "ProxyStakeDeallocate",
					"outputs": [
						{
							"internalType": "bool",
							"name": "",
							"type": "bool"
						}
					],
					"stateMutability": "nonpayable",
					"type": "function"
				},
				{
					"inputs": [
						{
							"internalType": "uint256",
							"name": "_stake",
							"type": "uint256"
						}
					],
					"name": "Stake",
					"outputs": [],
					"stateMutability": "nonpayable",
					"type": "function"
				},
				{
					"inputs": [],
					"name": "TotalAllocatedStakes",
					"outputs": [
						{
							"internalType": "uint256",
							"name": "",
							"type": "uint256"
						}
					],
					"stateMutability": "view",
					"type": "function"
				},
				{
					"inputs": [],
					"name": "TotalAvailableStakes",
					"outputs": [
						{
							"internalType": "uint256",
							"name": "",
							"type": "uint256"
						}
					],
					"stateMutability": "view",
					"type": "function"
				},
				{
					"inputs": [],
					"name": "TotalStakes",
					"outputs": [
						{
							"internalType": "uint256",
							"name": "",
							"type": "uint256"
						}
					],
					"stateMutability": "view",
					"type": "function"
				},
				{
					"inputs": [
						{
							"internalType": "address",
							"name": "_address",
							"type": "address"
						}
					],
					"name": "addAddress",
					"outputs": [],
					"stateMutability": "nonpayable",
					"type": "function"
				},
				{
					"inputs": [
						{
							"internalType": "address",
							"name": "",
							"type": "address"
						}
					],
					"name": "balances",
					"outputs": [
						{
							"internalType": "uint256",
							"name": "free_balance",
							"type": "uint256"
						},
						{
							"internalType": "uint256",
							"name": "staked_balance",
							"type": "uint256"
						},
						{
							"internalType": "uint256",
							"name": "allocated_balance",
							"type": "uint256"
						}
					],
					"stateMutability": "view",
					"type": "function"
				},
				{
					"inputs": [],
					"name": "closeAllStakes",
					"outputs": [],
					"stateMutability": "nonpayable",
					"type": "function"
				},
				{
					"inputs": [
						{
							"internalType": "uint256",
							"name": "tokens",
							"type": "uint256"
						}
					],
					"name": "deposit",
					"outputs": [],
					"stateMutability": "nonpayable",
					"type": "function"
				},
				{
					"inputs": [
						{
							"internalType": "address",
							"name": "_address",
							"type": "address"
						}
					],
					"name": "isStakeWhitelisted",
					"outputs": [
						{
							"internalType": "bool",
							"name": "",
							"type": "bool"
						}
					],
					"stateMutability": "view",
					"type": "function"
				},
				{
					"inputs": [
						{
							"internalType": "address",
							"name": "_address",
							"type": "address"
						}
					],
					"name": "isStakeholder",
					"outputs": [
						{
							"internalType": "bool",
							"name": "",
							"type": "bool"
						}
					],
					"stateMutability": "view",
					"type": "function"
				},
				{
					"inputs": [
						{
							"internalType": "address",
							"name": "_address",
							"type": "address"
						}
					],
					"name": "isStakeholderIndex",
					"outputs": [
						{
							"internalType": "bool",
							"name": "",
							"type": "bool"
						},
						{
							"internalType": "uint256",
							"name": "",
							"type": "uint256"
						}
					],
					"stateMutability": "view",
					"type": "function"
				},
				{
					"inputs": [],
					"name": "owner",
					"outputs": [
						{
							"internalType": "address",
							"name": "",
							"type": "address"
						}
					],
					"stateMutability": "view",
					"type": "function"
				},
				{
					"inputs": [
						{
							"internalType": "address",
							"name": "_address",
							"type": "address"
						}
					],
					"name": "removeAddress",
					"outputs": [],
					"stateMutability": "nonpayable",
					"type": "function"
				},
				{
					"inputs": [],
					"name": "renounceOwnership",
					"outputs": [],
					"stateMutability": "nonpayable",
					"type": "function"
				},
				{
					"inputs": [],
					"name": "token",
					"outputs": [
						{
							"internalType": "contract IERC20",
							"name": "",
							"type": "address"
						}
					],
					"stateMutability": "view",
					"type": "function"
				},
				{
					"inputs": [
						{
							"internalType": "address",
							"name": "newOwner",
							"type": "address"
						}
					],
					"name": "transferOwnership",
					"outputs": [],
					"stateMutability": "nonpayable",
					"type": "function"
				},
				{
					"inputs": [
						{
							"internalType": "uint256",
							"name": "_numTokens",
							"type": "uint256"
						}
					],
					"name": "withdraw",
					"outputs": [],
					"stateMutability": "nonpayable",
					"type": "function"
				},
				{
					"inputs": [],
					"name": "withdrawAll",
					"outputs": [],
					"stateMutability": "nonpayable",
					"type": "function"
				}
			],
			"devdoc": {
				"kind": "dev",
				"methods": {
					"AllocatedStakedAmountOf(address)": {
						"params": {
							"_stakeholder": "The stakeholder to retrieve the stake for."
						},
						"returns": {
							"_0": "uint256 The amount of wei staked."
						}
					},
					"AvailableStakedAmountOf(address)": {
						"params": {
							"_stakeholder": "The stakeholder to retrieve the stake for."
						},
						"returns": {
							"_0": "uint256 The amount of wei staked."
						}
					},
					"Stake(uint256)": {
						"params": {
							"_stake": "The size of the stake to be created."
						}
					},
					"TotalAllocatedStakes()": {
						"returns": {
							"_0": "uint256 The aggregated stakes from all stakeholders."
						}
					},
					"TotalAvailableStakes()": {
						"returns": {
							"_0": "uint256 The aggregated stakes from all stakeholders."
						}
					},
					"TotalStakes()": {
						"returns": {
							"_0": "uint256 The aggregated stakes from all stakeholders."
						}
					},
					"isStakeholder(address)": {
						"params": {
							"_address": "The address to verify."
						},
						"returns": {
							"_0": "bool, uint256 Whether the address is a stakeholder,  and if so its position in the stakeholders array."
						}
					},
					"isStakeholderIndex(address)": {
						"params": {
							"_address": "The address to verify."
						},
						"returns": {
							"_0": "bool, uint256 Whether the address is a stakeholder,  and if so its position in the stakeholders array."
						}
					},
					"owner()": {
						"details": "Returns the address of the current owner."
					},
					"renounceOwnership()": {
						"details": "Leaves the contract without owner. It will not be possible to call `onlyOwner` functions anymore. Can only be called by the current owner. NOTE: Renouncing ownership will leave the contract without an owner, thereby removing any functionality that is only available to the owner."
					},
					"transferOwnership(address)": {
						"details": "Transfers ownership of the contract to a new account (`newOwner`). Can only be called by the current owner."
					},
					"withdraw(uint256)": {
						"params": {
							"_numTokens": "The number of ERC20 tokens desired in exchange for voting rights"
						}
					}
				},
				"version": 1
			},
			"evm": {
				"assembly": "    /* \"contracts/worksystems/StakingManager.sol\":423:11040  contract StakingManager is Ownable { //, ReentrancyGuard  {\r... */\n  mstore(0x40, 0x80)\n    /* \"contracts/worksystems/StakingManager.sol\":555:651  constructor(address EXD_token /*Avatar _avatar*/)  {\r... */\n  callvalue\n  dup1\n  iszero\n  tag_1\n  jumpi\n  0x00\n  dup1\n  revert\ntag_1:\n  pop\n  mload(0x40)\n  sub(codesize, bytecodeSize)\n  dup1\n  bytecodeSize\n  dup4\n  codecopy\n  dup2\n  add\n  0x40\n  dup2\n  swap1\n  mstore\n  tag_2\n  swap2\n  tag_3\n  jump\t// in\ntag_2:\n    /* \"@openzeppelin/contracts/access/Ownable.sol\":921:953  _transferOwnership(_msgSender()) */\n  tag_7\n    /* \"@openzeppelin/contracts/access/Ownable.sol\":940:952  _msgSender() */\n  tag_8\n    /* \"@openzeppelin/contracts/access/Ownable.sol\":940:950  _msgSender */\n  tag_9\n    /* \"@openzeppelin/contracts/access/Ownable.sol\":940:952  _msgSender() */\n  jump\t// in\ntag_8:\n    /* \"@openzeppelin/contracts/access/Ownable.sol\":921:939  _transferOwnership */\n  tag_10\n    /* \"@openzeppelin/contracts/access/Ownable.sol\":921:953  _transferOwnership(_msgSender()) */\n  jump\t// in\ntag_7:\n    /* \"contracts/worksystems/StakingManager.sol\":617:622  token */\n  0x01\n    /* \"contracts/worksystems/StakingManager.sol\":617:643  token =  IERC20(EXD_token) */\n  dup1\n  sload\n  not(sub(shl(0xa0, 0x01), 0x01))\n  and\n  sub(shl(0xa0, 0x01), 0x01)\n  swap3\n  swap1\n  swap3\n  and\n  swap2\n  swap1\n  swap2\n  or\n  swap1\n  sstore\n    /* \"contracts/worksystems/StakingManager.sol\":423:11040  contract StakingManager is Ownable { //, ReentrancyGuard  {\r... */\n  jump(tag_15)\n    /* \"@openzeppelin/contracts/utils/Context.sol\":640:736  function _msgSender() internal view virtual returns (address) {... */\ntag_9:\n    /* \"@openzeppelin/contracts/utils/Context.sol\":719:729  msg.sender */\n  caller\n    /* \"@openzeppelin/contracts/utils/Context.sol\":640:736  function _msgSender() internal view virtual returns (address) {... */\n  swap1\n  jump\t// out\n    /* \"@openzeppelin/contracts/access/Ownable.sol\":2270:2457  function _transferOwnership(address newOwner) internal virtual {... */\ntag_10:\n    /* \"@openzeppelin/contracts/access/Ownable.sol\":2343:2359  address oldOwner */\n  0x00\n    /* \"@openzeppelin/contracts/access/Ownable.sol\":2362:2368  _owner */\n  dup1\n  sload\n  sub(shl(0xa0, 0x01), 0x01)\n    /* \"@openzeppelin/contracts/access/Ownable.sol\":2378:2395  _owner = newOwner */\n  dup4\n  dup2\n  and\n  not(sub(shl(0xa0, 0x01), 0x01))\n  dup4\n  and\n  dup2\n  or\n  dup5\n  sstore\n    /* \"@openzeppelin/contracts/access/Ownable.sol\":2410:2450  OwnershipTransferred(oldOwner, newOwner) */\n  mload(0x40)\n    /* \"@openzeppelin/contracts/access/Ownable.sol\":2362:2368  _owner */\n  swap2\n  swap1\n  swap3\n  and\n  swap3\n  dup4\n  swap2\n    /* \"@openzeppelin/contracts/access/Ownable.sol\":2410:2450  OwnershipTransferred(oldOwner, newOwner) */\n  0x8be0079c531659141344cd1fd0a4f28419497f9722a3daafe3b4186f6b6457e0\n  swap2\n    /* \"@openzeppelin/contracts/access/Ownable.sol\":2343:2359  address oldOwner */\n  swap1\n    /* \"@openzeppelin/contracts/access/Ownable.sol\":2410:2450  OwnershipTransferred(oldOwner, newOwner) */\n  log3\n    /* \"@openzeppelin/contracts/access/Ownable.sol\":2270:2457  function _transferOwnership(address newOwner) internal virtual {... */\n  pop\n  pop\n  jump\t// out\n    /* \"#utility.yul\":14:324   */\ntag_3:\n  0x00\n    /* \"#utility.yul\":137:139   */\n  0x20\n    /* \"#utility.yul\":125:134   */\n  dup3\n    /* \"#utility.yul\":116:123   */\n  dup5\n    /* \"#utility.yul\":112:135   */\n  sub\n    /* \"#utility.yul\":108:140   */\n  slt\n    /* \"#utility.yul\":105:107   */\n  iszero\n  tag_17\n  jumpi\n    /* \"#utility.yul\":158:164   */\n  dup1\n    /* \"#utility.yul\":150:156   */\n  dup2\n    /* \"#utility.yul\":143:165   */\n  revert\n    /* \"#utility.yul\":105:107   */\ntag_17:\n    /* \"#utility.yul\":189:205   */\n  dup2\n  mload\n  sub(shl(0xa0, 0x01), 0x01)\n    /* \"#utility.yul\":234:265   */\n  dup2\n  and\n    /* \"#utility.yul\":224:266   */\n  dup2\n  eq\n    /* \"#utility.yul\":214:216   */\n  tag_18\n  jumpi\n    /* \"#utility.yul\":285:291   */\n  dup2\n    /* \"#utility.yul\":277:283   */\n  dup3\n    /* \"#utility.yul\":270:292   */\n  revert\n    /* \"#utility.yul\":214:216   */\ntag_18:\n    /* \"#utility.yul\":313:318   */\n  swap4\n    /* \"#utility.yul\":95:324   */\n  swap3\n  pop\n  pop\n  pop\n  jump\t// out\ntag_15:\n    /* \"contracts/worksystems/StakingManager.sol\":423:11040  contract StakingManager is Ownable { //, ReentrancyGuard  {\r... */\n  dataSize(sub_0)\n  dup1\n  dataOffset(sub_0)\n  0x00\n  codecopy\n  0x00\n  return\nstop\n\nsub_0: assembly {\n        /* \"contracts/worksystems/StakingManager.sol\":423:11040  contract StakingManager is Ownable { //, ReentrancyGuard  {\r... */\n      mstore(0x40, 0x80)\n      callvalue\n      dup1\n      iszero\n      tag_1\n      jumpi\n      0x00\n      dup1\n      revert\n    tag_1:\n      pop\n      jumpi(tag_2, lt(calldatasize, 0x04))\n      shr(0xe0, calldataload(0x00))\n      dup1\n      0x853828b6\n      gt\n      tag_25\n      jumpi\n      dup1\n      0xcbdce4e0\n      gt\n      tag_26\n      jumpi\n      dup1\n      0xcbdce4e0\n      eq\n      tag_19\n      jumpi\n      dup1\n      0xe67719bd\n      eq\n      tag_20\n      jumpi\n      dup1\n      0xef037b90\n      eq\n      tag_21\n      jumpi\n      dup1\n      0xf20e8b12\n      eq\n      tag_22\n      jumpi\n      dup1\n      0xf2fde38b\n      eq\n      tag_23\n      jumpi\n      dup1\n      0xfc0c546a\n      eq\n      tag_24\n      jumpi\n      jump(tag_2)\n    tag_26:\n      dup1\n      0x853828b6\n      eq\n      tag_14\n      jumpi\n      dup1\n      0x8aed0feb\n      eq\n      tag_15\n      jumpi\n      dup1\n      0x8da5cb5b\n      eq\n      tag_16\n      jumpi\n      dup1\n      0xb6b55f25\n      eq\n      tag_17\n      jumpi\n      dup1\n      0xbd0bb4f6\n      eq\n      tag_18\n      jumpi\n      jump(tag_2)\n    tag_25:\n      dup1\n      0x27e235e3\n      gt\n      tag_27\n      jumpi\n      dup1\n      0x27e235e3\n      eq\n      tag_8\n      jumpi\n      dup1\n      0x2e1a7d4d\n      eq\n      tag_9\n      jumpi\n      dup1\n      0x38eada1c\n      eq\n      tag_10\n      jumpi\n      dup1\n      0x4ba79dfe\n      eq\n      tag_11\n      jumpi\n      dup1\n      0x6a40cbb6\n      eq\n      tag_12\n      jumpi\n      dup1\n      0x715018a6\n      eq\n      tag_13\n      jumpi\n      jump(tag_2)\n    tag_27:\n      dup1\n      0x112b3266\n      eq\n      tag_3\n      jumpi\n      dup1\n      0x12b6887c\n      eq\n      tag_4\n      jumpi\n      dup1\n      0x14bee5a5\n      eq\n      tag_5\n      jumpi\n      dup1\n      0x227a473b\n      eq\n      tag_6\n      jumpi\n      dup1\n      0x23cc9f37\n      eq\n      tag_7\n      jumpi\n    tag_2:\n      0x00\n      dup1\n      revert\n        /* \"contracts/worksystems/StakingManager.sol\":4440:5258  function ProxyStakeDeallocate(uint256 _StakeToDeallocate, address _stakeholder)\r... */\n    tag_3:\n      tag_28\n      tag_29\n      calldatasize\n      0x04\n      tag_30\n      jump\t// in\n    tag_29:\n      tag_31\n      jump\t// in\n    tag_28:\n      mload(0x40)\n      tag_32\n      swap2\n      swap1\n      tag_33\n      jump\t// in\n    tag_32:\n      mload(0x40)\n      dup1\n      swap2\n      sub\n      swap1\n      return\n        /* \"contracts/worksystems/StakingManager.sol\":3375:4178  function ProxyStakeAllocate(uint256 _StakeAllocation, address _stakeholder) \r... */\n    tag_4:\n      tag_28\n      tag_35\n      calldatasize\n      0x04\n      tag_30\n      jump\t// in\n    tag_35:\n      tag_36\n      jump\t// in\n        /* \"contracts/worksystems/StakingManager.sol\":6880:7321  function TotalAllocatedStakes()\r... */\n    tag_5:\n      tag_38\n      tag_39\n      jump\t// in\n    tag_38:\n      mload(0x40)\n      tag_32\n      swap2\n      swap1\n      tag_41\n      jump\t// in\n        /* \"contracts/worksystems/StakingManager.sol\":2327:2731  function Stake(uint256 _stake)\r... */\n    tag_6:\n      tag_42\n      tag_43\n      calldatasize\n      0x04\n      tag_44\n      jump\t// in\n    tag_43:\n      tag_45\n      jump\t// in\n    tag_42:\n      stop\n        /* \"contracts/worksystems/StakingManager.sol\":6277:6708  function TotalStakes()\r... */\n    tag_7:\n      tag_38\n      tag_47\n      jump\t// in\n        /* \"contracts/worksystems/StakingManager.sol\":899:946  mapping ( address => Balances ) public balances */\n    tag_8:\n      tag_49\n      tag_50\n      calldatasize\n      0x04\n      tag_51\n      jump\t// in\n    tag_50:\n      tag_52\n      jump\t// in\n    tag_49:\n      mload(0x40)\n      tag_32\n      swap4\n      swap3\n      swap2\n      swap1\n      tag_54\n      jump\t// in\n        /* \"contracts/worksystems/StakingManager.sol\":10476:10775  function withdraw(uint _numTokens) public \r... */\n    tag_9:\n      tag_42\n      tag_56\n      calldatasize\n      0x04\n      tag_44\n      jump\t// in\n    tag_56:\n      tag_57\n      jump\t// in\n        /* \"contracts/worksystems/StakingManager.sol\":1520:1797  function addAddress(address _address)\r... */\n    tag_10:\n      tag_42\n      tag_59\n      calldatasize\n      0x04\n      tag_51\n      jump\t// in\n    tag_59:\n      tag_60\n      jump\t// in\n        /* \"contracts/worksystems/StakingManager.sol\":1805:2102  function removeAddress(address _address)\r... */\n    tag_11:\n      tag_42\n      tag_62\n      calldatasize\n      0x04\n      tag_51\n      jump\t// in\n    tag_62:\n      tag_63\n      jump\t// in\n        /* \"contracts/worksystems/StakingManager.sol\":2830:3157  function closeAllStakes()\r... */\n    tag_12:\n      tag_42\n      tag_65\n      jump\t// in\n        /* \"@openzeppelin/contracts/access/Ownable.sol\":1668:1769  function renounceOwnership() public virtual onlyOwner {... */\n    tag_13:\n      tag_42\n      tag_67\n      jump\t// in\n        /* \"contracts/worksystems/StakingManager.sol\":10793:11027  function withdrawAll() public     \r... */\n    tag_14:\n      tag_42\n      tag_69\n      jump\t// in\n        /* \"contracts/worksystems/StakingManager.sol\":7493:7927  function TotalAvailableStakes()\r... */\n    tag_15:\n      tag_38\n      tag_71\n      jump\t// in\n        /* \"@openzeppelin/contracts/access/Ownable.sol\":1036:1121  function owner() public view virtual returns (address) {... */\n    tag_16:\n      tag_73\n      tag_74\n      jump\t// in\n    tag_73:\n      mload(0x40)\n      tag_32\n      swap2\n      swap1\n      tag_76\n      jump\t// in\n        /* \"contracts/worksystems/StakingManager.sol\":9890:10256  function deposit(uint tokens) public {\r... */\n    tag_17:\n      tag_42\n      tag_78\n      calldatasize\n      0x04\n      tag_44\n      jump\t// in\n    tag_78:\n      tag_79\n      jump\t// in\n        /* \"contracts/worksystems/StakingManager.sol\":8238:8525  function isStakeholderIndex(address _address)\r... */\n    tag_18:\n      tag_80\n      tag_81\n      calldatasize\n      0x04\n      tag_51\n      jump\t// in\n    tag_81:\n      tag_82\n      jump\t// in\n    tag_80:\n      mload(0x40)\n      tag_32\n      swap3\n      swap2\n      swap1\n      tag_84\n      jump\t// in\n        /* \"contracts/worksystems/StakingManager.sol\":5530:5709  function AvailableStakedAmountOf(address _stakeholder)\r... */\n    tag_19:\n      tag_38\n      tag_86\n      calldatasize\n      0x04\n      tag_51\n      jump\t// in\n    tag_86:\n      tag_87\n      jump\t// in\n        /* \"contracts/worksystems/StakingManager.sol\":1346:1504  function isStakeWhitelisted(address _address)\r... */\n    tag_20:\n      tag_28\n      tag_90\n      calldatasize\n      0x04\n      tag_51\n      jump\t// in\n    tag_90:\n      tag_91\n      jump\t// in\n        /* \"contracts/worksystems/StakingManager.sol\":8791:9054  function isStakeholder(address _address)\r... */\n    tag_21:\n      tag_28\n      tag_94\n      calldatasize\n      0x04\n      tag_51\n      jump\t// in\n    tag_94:\n      tag_95\n      jump\t// in\n        /* \"contracts/worksystems/StakingManager.sol\":5927:6109  function AllocatedStakedAmountOf(address _stakeholder)\r... */\n    tag_22:\n      tag_38\n      tag_98\n      calldatasize\n      0x04\n      tag_51\n      jump\t// in\n    tag_98:\n      tag_99\n      jump\t// in\n        /* \"@openzeppelin/contracts/access/Ownable.sol\":1918:2116  function transferOwnership(address newOwner) public virtual onlyOwner {... */\n    tag_23:\n      tag_42\n      tag_102\n      calldatasize\n      0x04\n      tag_51\n      jump\t// in\n    tag_102:\n      tag_103\n      jump\t// in\n        /* \"contracts/worksystems/StakingManager.sol\":523:542  IERC20 public token */\n    tag_24:\n      tag_73\n      tag_105\n      jump\t// in\n        /* \"contracts/worksystems/StakingManager.sol\":4440:5258  function ProxyStakeDeallocate(uint256 _StakeToDeallocate, address _stakeholder)\r... */\n    tag_31:\n        /* \"contracts/worksystems/StakingManager.sol\":4563:4567  bool */\n      0x00\n        /* \"contracts/worksystems/StakingManager.sol\":4593:4623  isStakeWhitelisted(msg.sender) */\n      tag_109\n        /* \"contracts/worksystems/StakingManager.sol\":4612:4622  msg.sender */\n      caller\n        /* \"contracts/worksystems/StakingManager.sol\":4593:4611  isStakeWhitelisted */\n      tag_91\n        /* \"contracts/worksystems/StakingManager.sol\":4593:4623  isStakeWhitelisted(msg.sender) */\n      jump\t// in\n    tag_109:\n        /* \"contracts/worksystems/StakingManager.sol\":4585:4670  require(isStakeWhitelisted(msg.sender), \"isStakeWhitelisted must be true for Sender\") */\n      tag_110\n      jumpi\n      mload(0x40)\n      shl(0xe5, 0x461bcd)\n      dup2\n      mstore\n      0x04\n      add\n      tag_111\n      swap1\n      tag_112\n      jump\t// in\n    tag_111:\n      mload(0x40)\n      dup1\n      swap2\n      sub\n      swap1\n      revert\n    tag_110:\n        /* \"contracts/worksystems/StakingManager.sol\":4689:4716  isStakeholder(_stakeholder) */\n      tag_113\n        /* \"contracts/worksystems/StakingManager.sol\":4703:4715  _stakeholder */\n      dup3\n        /* \"contracts/worksystems/StakingManager.sol\":4689:4702  isStakeholder */\n      tag_95\n        /* \"contracts/worksystems/StakingManager.sol\":4689:4716  isStakeholder(_stakeholder) */\n      jump\t// in\n    tag_113:\n        /* \"contracts/worksystems/StakingManager.sol\":4681:4758  require(isStakeholder(_stakeholder), \"isStakeholder must be true for Sender\") */\n      tag_114\n      jumpi\n      mload(0x40)\n      shl(0xe5, 0x461bcd)\n      dup2\n      mstore\n      0x04\n      add\n      tag_111\n      swap1\n      tag_116\n      jump\t// in\n    tag_114:\n      sub(shl(0xa0, 0x01), 0x01)\n        /* \"contracts/worksystems/StakingManager.sol\":4777:4799  balances[_stakeholder] */\n      dup3\n      and\n      0x00\n      swap1\n      dup2\n      mstore\n        /* \"contracts/worksystems/StakingManager.sol\":4777:4785  balances */\n      0x03\n        /* \"contracts/worksystems/StakingManager.sol\":4777:4799  balances[_stakeholder] */\n      0x20\n      mstore\n      0x40\n      swap1\n      keccak256\n        /* \"contracts/worksystems/StakingManager.sol\":4777:4817  balances[_stakeholder].allocated_balance */\n      0x02\n      add\n      sload\n        /* \"contracts/worksystems/StakingManager.sol\":4777:4840  balances[_stakeholder].allocated_balance >=  _StakeToDeallocate */\n      dup4\n      gt\n      iszero\n        /* \"contracts/worksystems/StakingManager.sol\":4769:4894  require(balances[_stakeholder].allocated_balance >=  _StakeToDeallocate, \"_stakeholder has to have enough allocated balance\") */\n      tag_117\n      jumpi\n      mload(0x40)\n      shl(0xe5, 0x461bcd)\n      dup2\n      mstore\n      0x04\n      add\n      tag_111\n      swap1\n      tag_119\n      jump\t// in\n    tag_117:\n      sub(shl(0xa0, 0x01), 0x01)\n        /* \"contracts/worksystems/StakingManager.sol\":5051:5073  balances[_stakeholder] */\n      dup3\n      and\n      0x00\n      swap1\n      dup2\n      mstore\n        /* \"contracts/worksystems/StakingManager.sol\":5051:5059  balances */\n      0x03\n        /* \"contracts/worksystems/StakingManager.sol\":5051:5073  balances[_stakeholder] */\n      0x20\n      mstore\n      0x40\n      swap1\n      keccak256\n        /* \"contracts/worksystems/StakingManager.sol\":5051:5091  balances[_stakeholder].allocated_balance */\n      0x02\n      add\n      sload\n        /* \"contracts/worksystems/StakingManager.sol\":5051:5115  balances[_stakeholder].allocated_balance.sub(_StakeToDeallocate) */\n      tag_120\n      swap1\n        /* \"contracts/worksystems/StakingManager.sol\":5096:5114  _StakeToDeallocate */\n      dup5\n        /* \"contracts/worksystems/StakingManager.sol\":5051:5095  balances[_stakeholder].allocated_balance.sub */\n      tag_121\n        /* \"contracts/worksystems/StakingManager.sol\":5051:5115  balances[_stakeholder].allocated_balance.sub(_StakeToDeallocate) */\n      jump\t// in\n    tag_120:\n      sub(shl(0xa0, 0x01), 0x01)\n        /* \"contracts/worksystems/StakingManager.sol\":5008:5030  balances[_stakeholder] */\n      dup4\n      and\n      0x00\n      swap1\n      dup2\n      mstore\n        /* \"contracts/worksystems/StakingManager.sol\":5008:5016  balances */\n      0x03\n        /* \"contracts/worksystems/StakingManager.sol\":5008:5030  balances[_stakeholder] */\n      0x20\n      mstore\n      0x40\n      swap1\n      keccak256\n        /* \"contracts/worksystems/StakingManager.sol\":5008:5048  balances[_stakeholder].allocated_balance */\n      0x02\n      dup2\n      add\n        /* \"contracts/worksystems/StakingManager.sol\":5008:5115  balances[_stakeholder].allocated_balance = balances[_stakeholder].allocated_balance.sub(_StakeToDeallocate) */\n      swap2\n      swap1\n      swap2\n      sstore\n        /* \"contracts/worksystems/StakingManager.sol\":5166:5203  balances[_stakeholder].staked_balance */\n      0x01\n      add\n      sload\n        /* \"contracts/worksystems/StakingManager.sol\":5166:5227  balances[_stakeholder].staked_balance.add(_StakeToDeallocate) */\n      tag_122\n      swap1\n        /* \"contracts/worksystems/StakingManager.sol\":5208:5226  _StakeToDeallocate */\n      dup5\n        /* \"contracts/worksystems/StakingManager.sol\":5166:5207  balances[_stakeholder].staked_balance.add */\n      tag_123\n        /* \"contracts/worksystems/StakingManager.sol\":5166:5227  balances[_stakeholder].staked_balance.add(_StakeToDeallocate) */\n      jump\t// in\n    tag_122:\n      sub(shl(0xa0, 0x01), 0x01)\n        /* \"contracts/worksystems/StakingManager.sol\":5126:5148  balances[_stakeholder] */\n      dup4\n      and\n      0x00\n      swap1\n      dup2\n      mstore\n        /* \"contracts/worksystems/StakingManager.sol\":5126:5134  balances */\n      0x03\n        /* \"contracts/worksystems/StakingManager.sol\":5126:5148  balances[_stakeholder] */\n      0x20\n      mstore\n      0x40\n      swap1\n      keccak256\n        /* \"contracts/worksystems/StakingManager.sol\":5126:5163  balances[_stakeholder].staked_balance */\n      0x01\n      swap1\n      dup2\n      add\n        /* \"contracts/worksystems/StakingManager.sol\":5126:5227  balances[_stakeholder].staked_balance = balances[_stakeholder].staked_balance.add(_StakeToDeallocate) */\n      swap2\n      swap1\n      swap2\n      sstore\n        /* \"contracts/worksystems/StakingManager.sol\":5126:5163  balances[_stakeholder].staked_balance */\n      swap1\n      pop\n        /* \"contracts/worksystems/StakingManager.sol\":4440:5258  function ProxyStakeDeallocate(uint256 _StakeToDeallocate, address _stakeholder)\r... */\n      swap3\n      swap2\n      pop\n      pop\n      jump\t// out\n        /* \"contracts/worksystems/StakingManager.sol\":3375:4178  function ProxyStakeAllocate(uint256 _StakeAllocation, address _stakeholder) \r... */\n    tag_36:\n        /* \"contracts/worksystems/StakingManager.sol\":3495:3499  bool */\n      0x00\n        /* \"contracts/worksystems/StakingManager.sol\":3525:3555  isStakeWhitelisted(msg.sender) */\n      tag_125\n        /* \"contracts/worksystems/StakingManager.sol\":3544:3554  msg.sender */\n      caller\n        /* \"contracts/worksystems/StakingManager.sol\":3525:3543  isStakeWhitelisted */\n      tag_91\n        /* \"contracts/worksystems/StakingManager.sol\":3525:3555  isStakeWhitelisted(msg.sender) */\n      jump\t// in\n    tag_125:\n        /* \"contracts/worksystems/StakingManager.sol\":3517:3602  require(isStakeWhitelisted(msg.sender), \"isStakeWhitelisted must be true for Sender\") */\n      tag_126\n      jumpi\n      mload(0x40)\n      shl(0xe5, 0x461bcd)\n      dup2\n      mstore\n      0x04\n      add\n      tag_111\n      swap1\n      tag_112\n      jump\t// in\n    tag_126:\n        /* \"contracts/worksystems/StakingManager.sol\":3621:3648  isStakeholder(_stakeholder) */\n      tag_128\n        /* \"contracts/worksystems/StakingManager.sol\":3635:3647  _stakeholder */\n      dup3\n        /* \"contracts/worksystems/StakingManager.sol\":3621:3634  isStakeholder */\n      tag_95\n        /* \"contracts/worksystems/StakingManager.sol\":3621:3648  isStakeholder(_stakeholder) */\n      jump\t// in\n    tag_128:\n        /* \"contracts/worksystems/StakingManager.sol\":3613:3690  require(isStakeholder(_stakeholder), \"isStakeholder must be true for Sender\") */\n      tag_129\n      jumpi\n      mload(0x40)\n      shl(0xe5, 0x461bcd)\n      dup2\n      mstore\n      0x04\n      add\n      tag_111\n      swap1\n      tag_116\n      jump\t// in\n    tag_129:\n      sub(shl(0xa0, 0x01), 0x01)\n        /* \"contracts/worksystems/StakingManager.sol\":3709:3731  balances[_stakeholder] */\n      dup3\n      and\n      0x00\n      swap1\n      dup2\n      mstore\n        /* \"contracts/worksystems/StakingManager.sol\":3709:3717  balances */\n      0x03\n        /* \"contracts/worksystems/StakingManager.sol\":3709:3731  balances[_stakeholder] */\n      0x20\n      mstore\n      0x40\n      swap1\n      keccak256\n        /* \"contracts/worksystems/StakingManager.sol\":3709:3746  balances[_stakeholder].staked_balance */\n      0x01\n      add\n      sload\n        /* \"contracts/worksystems/StakingManager.sol\":3709:3767  balances[_stakeholder].staked_balance >=  _StakeAllocation */\n      dup4\n      gt\n      iszero\n        /* \"contracts/worksystems/StakingManager.sol\":3701:3818  require(balances[_stakeholder].staked_balance >=  _StakeAllocation, \"_stakeholder has to have enough staked balance\") */\n      tag_131\n      jumpi\n      mload(0x40)\n      shl(0xe5, 0x461bcd)\n      dup2\n      mstore\n      0x04\n      add\n      tag_111\n      swap1\n      tag_133\n      jump\t// in\n    tag_131:\n      sub(shl(0xa0, 0x01), 0x01)\n        /* \"contracts/worksystems/StakingManager.sol\":3972:3994  balances[_stakeholder] */\n      dup3\n      and\n      0x00\n      swap1\n      dup2\n      mstore\n        /* \"contracts/worksystems/StakingManager.sol\":3972:3980  balances */\n      0x03\n        /* \"contracts/worksystems/StakingManager.sol\":3972:3994  balances[_stakeholder] */\n      0x20\n      mstore\n      0x40\n      swap1\n      keccak256\n        /* \"contracts/worksystems/StakingManager.sol\":3972:4009  balances[_stakeholder].staked_balance */\n      0x01\n      add\n      sload\n        /* \"contracts/worksystems/StakingManager.sol\":3972:4031  balances[_stakeholder].staked_balance.sub(_StakeAllocation) */\n      tag_134\n      swap1\n        /* \"contracts/worksystems/StakingManager.sol\":4014:4030  _StakeAllocation */\n      dup5\n        /* \"contracts/worksystems/StakingManager.sol\":3972:4013  balances[_stakeholder].staked_balance.sub */\n      tag_121\n        /* \"contracts/worksystems/StakingManager.sol\":3972:4031  balances[_stakeholder].staked_balance.sub(_StakeAllocation) */\n      jump\t// in\n    tag_134:\n      sub(shl(0xa0, 0x01), 0x01)\n        /* \"contracts/worksystems/StakingManager.sol\":3932:3954  balances[_stakeholder] */\n      dup4\n      and\n      0x00\n      swap1\n      dup2\n      mstore\n        /* \"contracts/worksystems/StakingManager.sol\":3932:3940  balances */\n      0x03\n        /* \"contracts/worksystems/StakingManager.sol\":3932:3954  balances[_stakeholder] */\n      0x20\n      mstore\n      0x40\n      swap1\n      keccak256\n        /* \"contracts/worksystems/StakingManager.sol\":3932:3969  balances[_stakeholder].staked_balance */\n      0x01\n      dup2\n      add\n        /* \"contracts/worksystems/StakingManager.sol\":3932:4031  balances[_stakeholder].staked_balance = balances[_stakeholder].staked_balance.sub(_StakeAllocation) */\n      swap2\n      swap1\n      swap2\n      sstore\n        /* \"contracts/worksystems/StakingManager.sol\":4085:4125  balances[_stakeholder].allocated_balance */\n      0x02\n      add\n      sload\n        /* \"contracts/worksystems/StakingManager.sol\":4085:4147  balances[_stakeholder].allocated_balance.add(_StakeAllocation) */\n      tag_135\n      swap1\n        /* \"contracts/worksystems/StakingManager.sol\":4130:4146  _StakeAllocation */\n      dup5\n        /* \"contracts/worksystems/StakingManager.sol\":4085:4129  balances[_stakeholder].allocated_balance.add */\n      tag_123\n        /* \"contracts/worksystems/StakingManager.sol\":4085:4147  balances[_stakeholder].allocated_balance.add(_StakeAllocation) */\n      jump\t// in\n    tag_135:\n      sub(shl(0xa0, 0x01), 0x01)\n        /* \"contracts/worksystems/StakingManager.sol\":4042:4064  balances[_stakeholder] */\n      dup4\n      and\n      0x00\n      swap1\n      dup2\n      mstore\n        /* \"contracts/worksystems/StakingManager.sol\":4042:4050  balances */\n      0x03\n        /* \"contracts/worksystems/StakingManager.sol\":4042:4064  balances[_stakeholder] */\n      0x20\n      mstore\n      0x40\n      swap1\n      keccak256\n        /* \"contracts/worksystems/StakingManager.sol\":4042:4082  balances[_stakeholder].allocated_balance */\n      0x02\n      add\n        /* \"contracts/worksystems/StakingManager.sol\":4042:4147  balances[_stakeholder].allocated_balance = balances[_stakeholder].allocated_balance.add(_StakeAllocation) */\n      sstore\n      pop\n        /* \"contracts/worksystems/StakingManager.sol\":4165:4169  true */\n      0x01\n        /* \"contracts/worksystems/StakingManager.sol\":3375:4178  function ProxyStakeAllocate(uint256 _StakeAllocation, address _stakeholder) \r... */\n      swap3\n      swap2\n      pop\n      pop\n      jump\t// out\n        /* \"contracts/worksystems/StakingManager.sol\":6880:7321  function TotalAllocatedStakes()\r... */\n    tag_39:\n        /* \"contracts/worksystems/StakingManager.sol\":6959:6966  uint256 */\n      0x00\n      dup1\n      dup1\n        /* \"contracts/worksystems/StakingManager.sol\":7019:7284  for (uint256 s = 0; s < stakeholders.length; s += 1){\r... */\n    tag_137:\n        /* \"contracts/worksystems/StakingManager.sol\":7043:7055  stakeholders */\n      0x02\n        /* \"contracts/worksystems/StakingManager.sol\":7043:7062  stakeholders.length */\n      sload\n        /* \"contracts/worksystems/StakingManager.sol\":7039:7062  s < stakeholders.length */\n      dup2\n      lt\n        /* \"contracts/worksystems/StakingManager.sol\":7019:7284  for (uint256 s = 0; s < stakeholders.length; s += 1){\r... */\n      iszero\n      tag_138\n      jumpi\n        /* \"contracts/worksystems/StakingManager.sol\":7086:7106  address user_address */\n      0x00\n        /* \"contracts/worksystems/StakingManager.sol\":7109:7121  stakeholders */\n      0x02\n        /* \"contracts/worksystems/StakingManager.sol\":7122:7123  s */\n      dup3\n        /* \"contracts/worksystems/StakingManager.sol\":7109:7124  stakeholders[s] */\n      dup2\n      sload\n      dup2\n      lt\n      tag_140\n      jumpi\n      mstore(0x00, shl(0xe0, 0x4e487b71))\n      mstore(0x04, 0x32)\n      revert(0x00, 0x24)\n    tag_140:\n      0x00\n      swap2\n      dup3\n      mstore\n      0x20\n      dup1\n      dup4\n      keccak256\n      swap1\n      swap2\n      add\n      sload\n      sub(shl(0xa0, 0x01), 0x01)\n      and\n        /* \"contracts/worksystems/StakingManager.sol\":7167:7189  balances[user_address] */\n      dup1\n      dup4\n      mstore\n        /* \"contracts/worksystems/StakingManager.sol\":7167:7175  balances */\n      0x03\n        /* \"contracts/worksystems/StakingManager.sol\":7167:7189  balances[user_address] */\n      swap1\n      swap2\n      mstore\n      0x40\n      swap1\n      swap2\n      keccak256\n        /* \"contracts/worksystems/StakingManager.sol\":7167:7207  balances[user_address].allocated_balance */\n      0x02\n      add\n      sload\n        /* \"contracts/worksystems/StakingManager.sol\":7109:7124  stakeholders[s] */\n      swap1\n      swap2\n      pop\n        /* \"contracts/worksystems/StakingManager.sol\":7237:7272  _totalStakes.add(user_alloc_amount) */\n      tag_142\n        /* \"contracts/worksystems/StakingManager.sol\":7237:7249  _totalStakes */\n      dup5\n        /* \"contracts/worksystems/StakingManager.sol\":7167:7207  balances[user_address].allocated_balance */\n      dup3\n        /* \"contracts/worksystems/StakingManager.sol\":7237:7253  _totalStakes.add */\n      tag_123\n        /* \"contracts/worksystems/StakingManager.sol\":7237:7272  _totalStakes.add(user_alloc_amount) */\n      jump\t// in\n    tag_142:\n        /* \"contracts/worksystems/StakingManager.sol\":7222:7272  _totalStakes = _totalStakes.add(user_alloc_amount) */\n      swap4\n      pop\n        /* \"contracts/worksystems/StakingManager.sol\":7019:7284  for (uint256 s = 0; s < stakeholders.length; s += 1){\r... */\n      pop\n      pop\n        /* \"contracts/worksystems/StakingManager.sol\":7069:7070  1 */\n      0x01\n        /* \"contracts/worksystems/StakingManager.sol\":7064:7070  s += 1 */\n      dup2\n      tag_143\n      swap2\n      swap1\n      tag_144\n      jump\t// in\n    tag_143:\n      swap1\n      pop\n        /* \"contracts/worksystems/StakingManager.sol\":7019:7284  for (uint256 s = 0; s < stakeholders.length; s += 1){\r... */\n      jump(tag_137)\n    tag_138:\n      pop\n        /* \"contracts/worksystems/StakingManager.sol\":7301:7313  _totalStakes */\n      swap1\n      pop\n        /* \"contracts/worksystems/StakingManager.sol\":6880:7321  function TotalAllocatedStakes()\r... */\n      swap1\n      jump\t// out\n        /* \"contracts/worksystems/StakingManager.sol\":2327:2731  function Stake(uint256 _stake)\r... */\n    tag_45:\n        /* \"contracts/worksystems/StakingManager.sol\":2407:2417  msg.sender */\n      caller\n        /* \"contracts/worksystems/StakingManager.sol\":2398:2418  balances[msg.sender] */\n      0x00\n      swap1\n      dup2\n      mstore\n        /* \"contracts/worksystems/StakingManager.sol\":2398:2406  balances */\n      0x03\n        /* \"contracts/worksystems/StakingManager.sol\":2398:2418  balances[msg.sender] */\n      0x20\n      mstore\n      0x40\n      swap1\n      keccak256\n        /* \"contracts/worksystems/StakingManager.sol\":2398:2431  balances[msg.sender].free_balance */\n      sload\n        /* \"contracts/worksystems/StakingManager.sol\":2398:2442  balances[msg.sender].free_balance >=  _stake */\n      dup2\n      gt\n      iszero\n        /* \"contracts/worksystems/StakingManager.sol\":2390:2443  require(balances[msg.sender].free_balance >=  _stake) */\n      tag_146\n      jumpi\n      0x00\n      dup1\n      revert\n    tag_146:\n        /* \"contracts/worksystems/StakingManager.sol\":2466:2476  msg.sender */\n      caller\n        /* \"contracts/worksystems/StakingManager.sol\":2457:2477  balances[msg.sender] */\n      0x00\n      swap1\n      dup2\n      mstore\n        /* \"contracts/worksystems/StakingManager.sol\":2457:2465  balances */\n      0x03\n        /* \"contracts/worksystems/StakingManager.sol\":2457:2477  balances[msg.sender] */\n      0x20\n      mstore\n      0x40\n      swap1\n      keccak256\n        /* \"contracts/worksystems/StakingManager.sol\":2457:2492  balances[msg.sender].staked_balance */\n      0x01\n      add\n      sload\n        /* \"contracts/worksystems/StakingManager.sol\":2454:2525  if(balances[msg.sender].staked_balance == 0) addStakeholder(msg.sender) */\n      tag_148\n      jumpi\n        /* \"contracts/worksystems/StakingManager.sol\":2499:2525  addStakeholder(msg.sender) */\n      tag_148\n        /* \"contracts/worksystems/StakingManager.sol\":2514:2524  msg.sender */\n      caller\n        /* \"contracts/worksystems/StakingManager.sol\":2499:2513  addStakeholder */\n      tag_149\n        /* \"contracts/worksystems/StakingManager.sol\":2499:2525  addStakeholder(msg.sender) */\n      jump\t// in\n    tag_148:\n        /* \"contracts/worksystems/StakingManager.sol\":2591:2601  msg.sender */\n      caller\n        /* \"contracts/worksystems/StakingManager.sol\":2582:2602  balances[msg.sender] */\n      0x00\n      swap1\n      dup2\n      mstore\n        /* \"contracts/worksystems/StakingManager.sol\":2582:2590  balances */\n      0x03\n        /* \"contracts/worksystems/StakingManager.sol\":2582:2602  balances[msg.sender] */\n      0x20\n      mstore\n      0x40\n      swap1\n      keccak256\n        /* \"contracts/worksystems/StakingManager.sol\":2582:2615  balances[msg.sender].free_balance */\n      sload\n        /* \"contracts/worksystems/StakingManager.sol\":2582:2627  balances[msg.sender].free_balance.sub(_stake) */\n      tag_150\n      swap1\n        /* \"contracts/worksystems/StakingManager.sol\":2620:2626  _stake */\n      dup3\n        /* \"contracts/worksystems/StakingManager.sol\":2582:2619  balances[msg.sender].free_balance.sub */\n      tag_121\n        /* \"contracts/worksystems/StakingManager.sol\":2582:2627  balances[msg.sender].free_balance.sub(_stake) */\n      jump\t// in\n    tag_150:\n        /* \"contracts/worksystems/StakingManager.sol\":2555:2565  msg.sender */\n      caller\n        /* \"contracts/worksystems/StakingManager.sol\":2546:2566  balances[msg.sender] */\n      0x00\n      swap1\n      dup2\n      mstore\n        /* \"contracts/worksystems/StakingManager.sol\":2546:2554  balances */\n      0x03\n        /* \"contracts/worksystems/StakingManager.sol\":2546:2566  balances[msg.sender] */\n      0x20\n      mstore\n      0x40\n      swap1\n      keccak256\n        /* \"contracts/worksystems/StakingManager.sol\":2546:2627  balances[msg.sender].free_balance = balances[msg.sender].free_balance.sub(_stake) */\n      swap1\n      dup2\n      sstore\n        /* \"contracts/worksystems/StakingManager.sol\":2676:2711  balances[msg.sender].staked_balance */\n      0x01\n      add\n      sload\n        /* \"contracts/worksystems/StakingManager.sol\":2676:2723  balances[msg.sender].staked_balance.add(_stake) */\n      tag_151\n      swap1\n        /* \"contracts/worksystems/StakingManager.sol\":2716:2722  _stake */\n      dup3\n        /* \"contracts/worksystems/StakingManager.sol\":2676:2715  balances[msg.sender].staked_balance.add */\n      tag_123\n        /* \"contracts/worksystems/StakingManager.sol\":2676:2723  balances[msg.sender].staked_balance.add(_stake) */\n      jump\t// in\n    tag_151:\n        /* \"contracts/worksystems/StakingManager.sol\":2647:2657  msg.sender */\n      caller\n        /* \"contracts/worksystems/StakingManager.sol\":2638:2658  balances[msg.sender] */\n      0x00\n      swap1\n      dup2\n      mstore\n        /* \"contracts/worksystems/StakingManager.sol\":2638:2646  balances */\n      0x03\n        /* \"contracts/worksystems/StakingManager.sol\":2638:2658  balances[msg.sender] */\n      0x20\n      mstore\n      0x40\n      swap1\n      keccak256\n        /* \"contracts/worksystems/StakingManager.sol\":2638:2673  balances[msg.sender].staked_balance */\n      0x01\n      add\n        /* \"contracts/worksystems/StakingManager.sol\":2638:2723  balances[msg.sender].staked_balance = balances[msg.sender].staked_balance.add(_stake) */\n      sstore\n      pop\n        /* \"contracts/worksystems/StakingManager.sol\":2327:2731  function Stake(uint256 _stake)\r... */\n      jump\t// out\n        /* \"contracts/worksystems/StakingManager.sol\":6277:6708  function TotalStakes()\r... */\n    tag_47:\n        /* \"contracts/worksystems/StakingManager.sol\":6347:6354  uint256 */\n      0x00\n      dup1\n      dup1\n        /* \"contracts/worksystems/StakingManager.sol\":6407:6671  for (uint256 s = 0; s < stakeholders.length; s += 1){\r... */\n    tag_153:\n        /* \"contracts/worksystems/StakingManager.sol\":6431:6443  stakeholders */\n      0x02\n        /* \"contracts/worksystems/StakingManager.sol\":6431:6450  stakeholders.length */\n      sload\n        /* \"contracts/worksystems/StakingManager.sol\":6427:6450  s < stakeholders.length */\n      dup2\n      lt\n        /* \"contracts/worksystems/StakingManager.sol\":6407:6671  for (uint256 s = 0; s < stakeholders.length; s += 1){\r... */\n      iszero\n      tag_138\n      jumpi\n        /* \"contracts/worksystems/StakingManager.sol\":6474:6494  address user_address */\n      0x00\n        /* \"contracts/worksystems/StakingManager.sol\":6497:6509  stakeholders */\n      0x02\n        /* \"contracts/worksystems/StakingManager.sol\":6510:6511  s */\n      dup3\n        /* \"contracts/worksystems/StakingManager.sol\":6497:6512  stakeholders[s] */\n      dup2\n      sload\n      dup2\n      lt\n      tag_156\n      jumpi\n      mstore(0x00, shl(0xe0, 0x4e487b71))\n      mstore(0x04, 0x32)\n      revert(0x00, 0x24)\n    tag_156:\n      0x00\n      swap2\n      dup3\n      mstore\n      0x20\n      dup1\n      dup4\n      keccak256\n      swap1\n      swap2\n      add\n      sload\n      sub(shl(0xa0, 0x01), 0x01)\n      and\n        /* \"contracts/worksystems/StakingManager.sol\":6556:6578  balances[user_address] */\n      dup1\n      dup4\n      mstore\n        /* \"contracts/worksystems/StakingManager.sol\":6556:6564  balances */\n      0x03\n        /* \"contracts/worksystems/StakingManager.sol\":6556:6578  balances[user_address] */\n      swap1\n      swap2\n      mstore\n      0x40\n      swap1\n      swap2\n      keccak256\n        /* \"contracts/worksystems/StakingManager.sol\":6497:6512  stakeholders[s] */\n      0x01\n        /* \"contracts/worksystems/StakingManager.sol\":6556:6593  balances[user_address].staked_balance */\n      add\n      sload\n        /* \"contracts/worksystems/StakingManager.sol\":6497:6512  stakeholders[s] */\n      swap1\n      swap2\n      pop\n        /* \"contracts/worksystems/StakingManager.sol\":6623:6659  _totalStakes.add(user_staked_amount) */\n      tag_158\n        /* \"contracts/worksystems/StakingManager.sol\":6623:6635  _totalStakes */\n      dup5\n        /* \"contracts/worksystems/StakingManager.sol\":6556:6593  balances[user_address].staked_balance */\n      dup3\n        /* \"contracts/worksystems/StakingManager.sol\":6623:6639  _totalStakes.add */\n      tag_123\n        /* \"contracts/worksystems/StakingManager.sol\":6623:6659  _totalStakes.add(user_staked_amount) */\n      jump\t// in\n    tag_158:\n        /* \"contracts/worksystems/StakingManager.sol\":6608:6659  _totalStakes = _totalStakes.add(user_staked_amount) */\n      swap4\n      pop\n        /* \"contracts/worksystems/StakingManager.sol\":6407:6671  for (uint256 s = 0; s < stakeholders.length; s += 1){\r... */\n      pop\n      pop\n        /* \"contracts/worksystems/StakingManager.sol\":6457:6458  1 */\n      0x01\n        /* \"contracts/worksystems/StakingManager.sol\":6452:6458  s += 1 */\n      dup2\n      tag_159\n      swap2\n      swap1\n      tag_144\n      jump\t// in\n    tag_159:\n      swap1\n      pop\n        /* \"contracts/worksystems/StakingManager.sol\":6407:6671  for (uint256 s = 0; s < stakeholders.length; s += 1){\r... */\n      jump(tag_153)\n        /* \"contracts/worksystems/StakingManager.sol\":899:946  mapping ( address => Balances ) public balances */\n    tag_52:\n      mstore(0x20, 0x03)\n      0x00\n      swap1\n      dup2\n      mstore\n      0x40\n      swap1\n      keccak256\n      dup1\n      sload\n      0x01\n      dup3\n      add\n      sload\n      0x02\n      swap1\n      swap3\n      add\n      sload\n      swap1\n      swap2\n      swap1\n      dup4\n      jump\t// out\n        /* \"contracts/worksystems/StakingManager.sol\":10476:10775  function withdraw(uint _numTokens) public \r... */\n    tag_57:\n        /* \"contracts/worksystems/StakingManager.sol\":10552:10562  msg.sender */\n      caller\n        /* \"contracts/worksystems/StakingManager.sol\":10543:10563  balances[msg.sender] */\n      0x00\n      swap1\n      dup2\n      mstore\n        /* \"contracts/worksystems/StakingManager.sol\":10543:10551  balances */\n      0x03\n        /* \"contracts/worksystems/StakingManager.sol\":10543:10563  balances[msg.sender] */\n      0x20\n      mstore\n      0x40\n      swap1\n      keccak256\n        /* \"contracts/worksystems/StakingManager.sol\":10543:10576  balances[msg.sender].free_balance */\n      sload\n        /* \"contracts/worksystems/StakingManager.sol\":10543:10590  balances[msg.sender].free_balance >= _numTokens */\n      dup2\n      gt\n      iszero\n        /* \"contracts/worksystems/StakingManager.sol\":10535:10651  require(balances[msg.sender].free_balance >= _numTokens, \"not enough tokens in the free staked balance to withdraw\") */\n      tag_161\n      jumpi\n      mload(0x40)\n      shl(0xe5, 0x461bcd)\n      dup2\n      mstore\n      0x04\n      add\n      tag_111\n      swap1\n      tag_163\n      jump\t// in\n    tag_161:\n        /* \"contracts/worksystems/StakingManager.sol\":10670:10675  token */\n      sload(0x01)\n        /* \"contracts/worksystems/StakingManager.sol\":10670:10708  token.transfer(msg.sender, _numTokens) */\n      mload(0x40)\n      shl(0xe0, 0xa9059cbb)\n      dup2\n      mstore\n      sub(shl(0xa0, 0x01), 0x01)\n        /* \"contracts/worksystems/StakingManager.sol\":10670:10675  token */\n      swap1\n      swap2\n      and\n      swap1\n        /* \"contracts/worksystems/StakingManager.sol\":10670:10684  token.transfer */\n      0xa9059cbb\n      swap1\n        /* \"contracts/worksystems/StakingManager.sol\":10670:10708  token.transfer(msg.sender, _numTokens) */\n      tag_164\n      swap1\n        /* \"contracts/worksystems/StakingManager.sol\":10685:10695  msg.sender */\n      caller\n      swap1\n        /* \"contracts/worksystems/StakingManager.sol\":10697:10707  _numTokens */\n      dup6\n      swap1\n        /* \"contracts/worksystems/StakingManager.sol\":10670:10708  token.transfer(msg.sender, _numTokens) */\n      0x04\n      add\n      tag_165\n      jump\t// in\n    tag_164:\n      0x20\n      mload(0x40)\n      dup1\n      dup4\n      sub\n      dup2\n      0x00\n      dup8\n      dup1\n      extcodesize\n      iszero\n      dup1\n      iszero\n      tag_166\n      jumpi\n      0x00\n      dup1\n      revert\n    tag_166:\n      pop\n      gas\n      call\n      iszero\n      dup1\n      iszero\n      tag_168\n      jumpi\n      returndatasize\n      0x00\n      dup1\n      returndatacopy\n      revert(0x00, returndatasize)\n    tag_168:\n      pop\n      pop\n      pop\n      pop\n      mload(0x40)\n      returndatasize\n      not(0x1f)\n      0x1f\n      dup3\n      add\n      and\n      dup3\n      add\n      dup1\n      0x40\n      mstore\n      pop\n      dup2\n      add\n      swap1\n      tag_169\n      swap2\n      swap1\n      tag_170\n      jump\t// in\n    tag_169:\n        /* \"contracts/worksystems/StakingManager.sol\":10662:10709  require(token.transfer(msg.sender, _numTokens)) */\n      tag_171\n      jumpi\n      0x00\n      dup1\n      revert\n    tag_171:\n        /* \"contracts/worksystems/StakingManager.sol\":10729:10739  msg.sender */\n      caller\n        /* \"contracts/worksystems/StakingManager.sol\":10720:10740  balances[msg.sender] */\n      0x00\n      swap1\n      dup2\n      mstore\n        /* \"contracts/worksystems/StakingManager.sol\":10720:10728  balances */\n      0x03\n        /* \"contracts/worksystems/StakingManager.sol\":10720:10740  balances[msg.sender] */\n      0x20\n      mstore\n      0x40\n      dup2\n      keccak256\n        /* \"contracts/worksystems/StakingManager.sol\":10720:10767  balances[msg.sender].free_balance -= _numTokens */\n      dup1\n      sload\n        /* \"contracts/worksystems/StakingManager.sol\":10757:10767  _numTokens */\n      dup4\n      swap3\n        /* \"contracts/worksystems/StakingManager.sol\":10720:10740  balances[msg.sender] */\n      swap1\n        /* \"contracts/worksystems/StakingManager.sol\":10720:10767  balances[msg.sender].free_balance -= _numTokens */\n      tag_172\n      swap1\n        /* \"contracts/worksystems/StakingManager.sol\":10757:10767  _numTokens */\n      dup5\n      swap1\n        /* \"contracts/worksystems/StakingManager.sol\":10720:10767  balances[msg.sender].free_balance -= _numTokens */\n      tag_173\n      jump\t// in\n    tag_172:\n      swap1\n      swap2\n      sstore\n      pop\n      pop\n      pop\n        /* \"contracts/worksystems/StakingManager.sol\":10476:10775  function withdraw(uint _numTokens) public \r... */\n      jump\t// out\n        /* \"contracts/worksystems/StakingManager.sol\":1520:1797  function addAddress(address _address)\r... */\n    tag_60:\n        /* \"@openzeppelin/contracts/access/Ownable.sol\":1259:1271  _msgSender() */\n      tag_175\n        /* \"@openzeppelin/contracts/access/Ownable.sol\":1259:1269  _msgSender */\n      tag_176\n        /* \"@openzeppelin/contracts/access/Ownable.sol\":1259:1271  _msgSender() */\n      jump\t// in\n    tag_175:\n      sub(shl(0xa0, 0x01), 0x01)\n        /* \"@openzeppelin/contracts/access/Ownable.sol\":1248:1271  owner() == _msgSender() */\n      and\n        /* \"@openzeppelin/contracts/access/Ownable.sol\":1248:1255  owner() */\n      tag_177\n        /* \"@openzeppelin/contracts/access/Ownable.sol\":1248:1253  owner */\n      tag_74\n        /* \"@openzeppelin/contracts/access/Ownable.sol\":1248:1255  owner() */\n      jump\t// in\n    tag_177:\n      sub(shl(0xa0, 0x01), 0x01)\n        /* \"@openzeppelin/contracts/access/Ownable.sol\":1248:1271  owner() == _msgSender() */\n      and\n      eq\n        /* \"@openzeppelin/contracts/access/Ownable.sol\":1240:1308  require(owner() == _msgSender(), \"Ownable: caller is not the owner\") */\n      tag_178\n      jumpi\n      mload(0x40)\n      shl(0xe5, 0x461bcd)\n      dup2\n      mstore\n      0x04\n      add\n      tag_111\n      swap1\n      tag_180\n      jump\t// in\n    tag_178:\n      sub(shl(0xa0, 0x01), 0x01)\n        /* \"contracts/worksystems/StakingManager.sol\":1617:1644  StakeWhitelistMap[_address] */\n      dup2\n      and\n      0x00\n      swap1\n      dup2\n      mstore\n        /* \"contracts/worksystems/StakingManager.sol\":1617:1634  StakeWhitelistMap */\n      0x04\n        /* \"contracts/worksystems/StakingManager.sol\":1617:1644  StakeWhitelistMap[_address] */\n      0x20\n      mstore\n      0x40\n      swap1\n      keccak256\n      sload\n      0xff\n      and\n        /* \"contracts/worksystems/StakingManager.sol\":1617:1652  StakeWhitelistMap[_address] != true */\n      iszero\n      iszero\n        /* \"contracts/worksystems/StakingManager.sol\":1617:1644  StakeWhitelistMap[_address] */\n      0x01\n        /* \"contracts/worksystems/StakingManager.sol\":1617:1652  StakeWhitelistMap[_address] != true */\n      eq\n      iszero\n        /* \"contracts/worksystems/StakingManager.sol\":1609:1696  require(StakeWhitelistMap[_address] != true, \"Address must not be whitelisted already\") */\n      tag_182\n      jumpi\n      mload(0x40)\n      shl(0xe5, 0x461bcd)\n      dup2\n      mstore\n      0x04\n      add\n      tag_111\n      swap1\n      tag_184\n      jump\t// in\n    tag_182:\n      sub(shl(0xa0, 0x01), 0x01)\n        /* \"contracts/worksystems/StakingManager.sol\":1707:1734  StakeWhitelistMap[_address] */\n      dup2\n      and\n      0x00\n      dup2\n      dup2\n      mstore\n        /* \"contracts/worksystems/StakingManager.sol\":1707:1724  StakeWhitelistMap */\n      0x04\n        /* \"contracts/worksystems/StakingManager.sol\":1707:1734  StakeWhitelistMap[_address] */\n      0x20\n      mstore\n      0x40\n      swap1\n      dup2\n      swap1\n      keccak256\n        /* \"contracts/worksystems/StakingManager.sol\":1707:1741  StakeWhitelistMap[_address] = true */\n      dup1\n      sload\n      not(0xff)\n      and\n        /* \"contracts/worksystems/StakingManager.sol\":1737:1741  true */\n      0x01\n        /* \"contracts/worksystems/StakingManager.sol\":1707:1741  StakeWhitelistMap[_address] = true */\n      swap1\n      dup2\n      or\n      swap1\n      swap2\n      sstore\n        /* \"contracts/worksystems/StakingManager.sol\":1757:1789  StakeWhitelisted(_address, true) */\n      swap1\n      mload\n      0x34e57d3e15d2174a31aed19b5a635aad3c7fd6d6ff6b19d43f56819654e990fd\n      swap2\n      tag_185\n      swap2\n      tag_33\n      jump\t// in\n    tag_185:\n      mload(0x40)\n      dup1\n      swap2\n      sub\n      swap1\n      log2\n        /* \"contracts/worksystems/StakingManager.sol\":1520:1797  function addAddress(address _address)\r... */\n      pop\n      jump\t// out\n        /* \"contracts/worksystems/StakingManager.sol\":1805:2102  function removeAddress(address _address)\r... */\n    tag_63:\n        /* \"@openzeppelin/contracts/access/Ownable.sol\":1259:1271  _msgSender() */\n      tag_187\n        /* \"@openzeppelin/contracts/access/Ownable.sol\":1259:1269  _msgSender */\n      tag_176\n        /* \"@openzeppelin/contracts/access/Ownable.sol\":1259:1271  _msgSender() */\n      jump\t// in\n    tag_187:\n      sub(shl(0xa0, 0x01), 0x01)\n        /* \"@openzeppelin/contracts/access/Ownable.sol\":1248:1271  owner() == _msgSender() */\n      and\n        /* \"@openzeppelin/contracts/access/Ownable.sol\":1248:1255  owner() */\n      tag_188\n        /* \"@openzeppelin/contracts/access/Ownable.sol\":1248:1253  owner */\n      tag_74\n        /* \"@openzeppelin/contracts/access/Ownable.sol\":1248:1255  owner() */\n      jump\t// in\n    tag_188:\n      sub(shl(0xa0, 0x01), 0x01)\n        /* \"@openzeppelin/contracts/access/Ownable.sol\":1248:1271  owner() == _msgSender() */\n      and\n      eq\n        /* \"@openzeppelin/contracts/access/Ownable.sol\":1240:1308  require(owner() == _msgSender(), \"Ownable: caller is not the owner\") */\n      tag_189\n      jumpi\n      mload(0x40)\n      shl(0xe5, 0x461bcd)\n      dup2\n      mstore\n      0x04\n      add\n      tag_111\n      swap1\n      tag_180\n      jump\t// in\n    tag_189:\n      sub(shl(0xa0, 0x01), 0x01)\n        /* \"contracts/worksystems/StakingManager.sol\":1913:1940  StakeWhitelistMap[_address] */\n      dup2\n      and\n      0x00\n      swap1\n      dup2\n      mstore\n        /* \"contracts/worksystems/StakingManager.sol\":1913:1930  StakeWhitelistMap */\n      0x04\n        /* \"contracts/worksystems/StakingManager.sol\":1913:1940  StakeWhitelistMap[_address] */\n      0x20\n      mstore\n      0x40\n      swap1\n      keccak256\n      sload\n      0xff\n      and\n        /* \"contracts/worksystems/StakingManager.sol\":1905:1989  require(StakeWhitelistMap[_address] != false, \"Address must be whitelisted already\") */\n      tag_192\n      jumpi\n      mload(0x40)\n      shl(0xe5, 0x461bcd)\n      dup2\n      mstore\n      0x04\n      add\n      tag_111\n      swap1\n      tag_194\n      jump\t// in\n    tag_192:\n      sub(shl(0xa0, 0x01), 0x01)\n        /* \"contracts/worksystems/StakingManager.sol\":2000:2027  StakeWhitelistMap[_address] */\n      dup2\n      and\n        /* \"contracts/worksystems/StakingManager.sol\":2030:2035  false */\n      0x00\n        /* \"contracts/worksystems/StakingManager.sol\":2000:2027  StakeWhitelistMap[_address] */\n      dup2\n      dup2\n      mstore\n        /* \"contracts/worksystems/StakingManager.sol\":2000:2017  StakeWhitelistMap */\n      0x04\n        /* \"contracts/worksystems/StakingManager.sol\":2000:2027  StakeWhitelistMap[_address] */\n      0x20\n      mstore\n      0x40\n      dup1\n      dup3\n      keccak256\n        /* \"contracts/worksystems/StakingManager.sol\":2000:2035  StakeWhitelistMap[_address] = false */\n      dup1\n      sload\n      not(0xff)\n      and\n      swap1\n      sstore\n        /* \"contracts/worksystems/StakingManager.sol\":2051:2086  StakeUnWhitelisted(_address, false) */\n      mload\n      0xc87598b69899c8b872e8b5e416808d7332fe62ed4f035f7e72ae6f646e12f73f\n      swap2\n      tag_185\n      swap2\n      tag_33\n      jump\t// in\n        /* \"contracts/worksystems/StakingManager.sol\":2830:3157  function closeAllStakes()\r... */\n    tag_65:\n        /* \"contracts/worksystems/StakingManager.sol\":2921:2931  msg.sender */\n      caller\n        /* \"contracts/worksystems/StakingManager.sol\":2888:2909  uint256 staked_amount */\n      0x00\n        /* \"contracts/worksystems/StakingManager.sol\":2912:2932  balances[msg.sender] */\n      swap1\n      dup2\n      mstore\n        /* \"contracts/worksystems/StakingManager.sol\":2912:2920  balances */\n      0x03\n        /* \"contracts/worksystems/StakingManager.sol\":2912:2932  balances[msg.sender] */\n      0x20\n      mstore\n      0x40\n      swap1\n      keccak256\n        /* \"contracts/worksystems/StakingManager.sol\":2912:2947  balances[msg.sender].staked_balance */\n      0x01\n      dup2\n      add\n      sload\n        /* \"contracts/worksystems/StakingManager.sol\":2994:3027  balances[msg.sender].free_balance */\n      swap1\n      sload\n        /* \"contracts/worksystems/StakingManager.sol\":2994:3046  balances[msg.sender].free_balance.add(staked_amount) */\n      tag_197\n      swap1\n        /* \"contracts/worksystems/StakingManager.sol\":2912:2947  balances[msg.sender].staked_balance */\n      dup3\n        /* \"contracts/worksystems/StakingManager.sol\":2994:3031  balances[msg.sender].free_balance.add */\n      tag_123\n        /* \"contracts/worksystems/StakingManager.sol\":2994:3046  balances[msg.sender].free_balance.add(staked_amount) */\n      jump\t// in\n    tag_197:\n        /* \"contracts/worksystems/StakingManager.sol\":2967:2977  msg.sender */\n      caller\n        /* \"contracts/worksystems/StakingManager.sol\":2958:2978  balances[msg.sender] */\n      0x00\n      swap1\n      dup2\n      mstore\n        /* \"contracts/worksystems/StakingManager.sol\":2958:2966  balances */\n      0x03\n        /* \"contracts/worksystems/StakingManager.sol\":2958:2978  balances[msg.sender] */\n      0x20\n      mstore\n      0x40\n      swap1\n      keccak256\n        /* \"contracts/worksystems/StakingManager.sol\":2958:3046  balances[msg.sender].free_balance = balances[msg.sender].free_balance.add(staked_amount) */\n      swap1\n      dup2\n      sstore\n        /* \"contracts/worksystems/StakingManager.sol\":3095:3130  balances[msg.sender].staked_balance */\n      0x01\n      add\n      sload\n        /* \"contracts/worksystems/StakingManager.sol\":3095:3149  balances[msg.sender].staked_balance.sub(staked_amount) */\n      tag_151\n      swap1\n        /* \"contracts/worksystems/StakingManager.sol\":3135:3148  staked_amount */\n      dup3\n        /* \"contracts/worksystems/StakingManager.sol\":3095:3134  balances[msg.sender].staked_balance.sub */\n      tag_121\n        /* \"contracts/worksystems/StakingManager.sol\":3095:3149  balances[msg.sender].staked_balance.sub(staked_amount) */\n      jump\t// in\n        /* \"@openzeppelin/contracts/access/Ownable.sol\":1668:1769  function renounceOwnership() public virtual onlyOwner {... */\n    tag_67:\n        /* \"@openzeppelin/contracts/access/Ownable.sol\":1259:1271  _msgSender() */\n      tag_200\n        /* \"@openzeppelin/contracts/access/Ownable.sol\":1259:1269  _msgSender */\n      tag_176\n        /* \"@openzeppelin/contracts/access/Ownable.sol\":1259:1271  _msgSender() */\n      jump\t// in\n    tag_200:\n      sub(shl(0xa0, 0x01), 0x01)\n        /* \"@openzeppelin/contracts/access/Ownable.sol\":1248:1271  owner() == _msgSender() */\n      and\n        /* \"@openzeppelin/contracts/access/Ownable.sol\":1248:1255  owner() */\n      tag_201\n        /* \"@openzeppelin/contracts/access/Ownable.sol\":1248:1253  owner */\n      tag_74\n        /* \"@openzeppelin/contracts/access/Ownable.sol\":1248:1255  owner() */\n      jump\t// in\n    tag_201:\n      sub(shl(0xa0, 0x01), 0x01)\n        /* \"@openzeppelin/contracts/access/Ownable.sol\":1248:1271  owner() == _msgSender() */\n      and\n      eq\n        /* \"@openzeppelin/contracts/access/Ownable.sol\":1240:1308  require(owner() == _msgSender(), \"Ownable: caller is not the owner\") */\n      tag_202\n      jumpi\n      mload(0x40)\n      shl(0xe5, 0x461bcd)\n      dup2\n      mstore\n      0x04\n      add\n      tag_111\n      swap1\n      tag_180\n      jump\t// in\n    tag_202:\n        /* \"@openzeppelin/contracts/access/Ownable.sol\":1732:1762  _transferOwnership(address(0)) */\n      tag_205\n        /* \"@openzeppelin/contracts/access/Ownable.sol\":1759:1760  0 */\n      0x00\n        /* \"@openzeppelin/contracts/access/Ownable.sol\":1732:1750  _transferOwnership */\n      tag_206\n        /* \"@openzeppelin/contracts/access/Ownable.sol\":1732:1762  _transferOwnership(address(0)) */\n      jump\t// in\n    tag_205:\n        /* \"@openzeppelin/contracts/access/Ownable.sol\":1668:1769  function renounceOwnership() public virtual onlyOwner {... */\n      jump\t// out\n        /* \"contracts/worksystems/StakingManager.sol\":10793:11027  function withdrawAll() public     \r... */\n    tag_69:\n        /* \"contracts/worksystems/StakingManager.sol\":10861:10871  msg.sender */\n      caller\n        /* \"contracts/worksystems/StakingManager.sol\":10888:10889  0 */\n      0x00\n        /* \"contracts/worksystems/StakingManager.sol\":10852:10872  balances[msg.sender] */\n      swap1\n      dup2\n      mstore\n        /* \"contracts/worksystems/StakingManager.sol\":10852:10860  balances */\n      0x03\n        /* \"contracts/worksystems/StakingManager.sol\":10852:10872  balances[msg.sender] */\n      0x20\n      mstore\n      0x40\n      swap1\n      keccak256\n        /* \"contracts/worksystems/StakingManager.sol\":10852:10885  balances[msg.sender].free_balance */\n      sload\n        /* \"contracts/worksystems/StakingManager.sol\":10844:10890  require(balances[msg.sender].free_balance > 0) */\n      tag_208\n      jumpi\n      0x00\n      dup1\n      revert\n    tag_208:\n        /* \"contracts/worksystems/StakingManager.sol\":10909:10914  token */\n      sload(0x01)\n        /* \"contracts/worksystems/StakingManager.sol\":10924:10934  msg.sender */\n      caller\n        /* \"contracts/worksystems/StakingManager.sol\":10909:10914  token */\n      0x00\n        /* \"contracts/worksystems/StakingManager.sol\":10936:10956  balances[msg.sender] */\n      dup2\n      dup2\n      mstore\n        /* \"contracts/worksystems/StakingManager.sol\":10936:10944  balances */\n      0x03\n        /* \"contracts/worksystems/StakingManager.sol\":10936:10956  balances[msg.sender] */\n      0x20\n      mstore\n      0x40\n      swap1\n      dup2\n      swap1\n      keccak256\n        /* \"contracts/worksystems/StakingManager.sol\":10936:10969  balances[msg.sender].free_balance */\n      sload\n        /* \"contracts/worksystems/StakingManager.sol\":10909:10970  token.transfer(msg.sender, balances[msg.sender].free_balance) */\n      swap1\n      mload\n      shl(0xe0, 0xa9059cbb)\n      dup2\n      mstore\n      sub(shl(0xa0, 0x01), 0x01)\n        /* \"contracts/worksystems/StakingManager.sol\":10909:10914  token */\n      swap1\n      swap4\n      and\n      swap3\n        /* \"contracts/worksystems/StakingManager.sol\":10909:10923  token.transfer */\n      0xa9059cbb\n      swap3\n        /* \"contracts/worksystems/StakingManager.sol\":10909:10970  token.transfer(msg.sender, balances[msg.sender].free_balance) */\n      tag_209\n      swap3\n        /* \"contracts/worksystems/StakingManager.sol\":10924:10934  msg.sender */\n      swap1\n      swap2\n        /* \"contracts/worksystems/StakingManager.sol\":10909:10970  token.transfer(msg.sender, balances[msg.sender].free_balance) */\n      0x04\n      add\n      tag_165\n      jump\t// in\n    tag_209:\n      0x20\n      mload(0x40)\n      dup1\n      dup4\n      sub\n      dup2\n      0x00\n      dup8\n      dup1\n      extcodesize\n      iszero\n      dup1\n      iszero\n      tag_210\n      jumpi\n      0x00\n      dup1\n      revert\n    tag_210:\n      pop\n      gas\n      call\n      iszero\n      dup1\n      iszero\n      tag_212\n      jumpi\n      returndatasize\n      0x00\n      dup1\n      returndatacopy\n      revert(0x00, returndatasize)\n    tag_212:\n      pop\n      pop\n      pop\n      pop\n      mload(0x40)\n      returndatasize\n      not(0x1f)\n      0x1f\n      dup3\n      add\n      and\n      dup3\n      add\n      dup1\n      0x40\n      mstore\n      pop\n      dup2\n      add\n      swap1\n      tag_213\n      swap2\n      swap1\n      tag_170\n      jump\t// in\n    tag_213:\n        /* \"contracts/worksystems/StakingManager.sol\":10901:10971  require(token.transfer(msg.sender, balances[msg.sender].free_balance)) */\n      tag_214\n      jumpi\n      0x00\n      dup1\n      revert\n    tag_214:\n        /* \"contracts/worksystems/StakingManager.sol\":10991:11001  msg.sender */\n      caller\n        /* \"contracts/worksystems/StakingManager.sol\":11018:11019  0 */\n      0x00\n        /* \"contracts/worksystems/StakingManager.sol\":10982:11002  balances[msg.sender] */\n      swap1\n      dup2\n      mstore\n        /* \"contracts/worksystems/StakingManager.sol\":10982:10990  balances */\n      0x03\n        /* \"contracts/worksystems/StakingManager.sol\":10982:11002  balances[msg.sender] */\n      0x20\n      mstore\n      0x40\n      dup2\n      keccak256\n        /* \"contracts/worksystems/StakingManager.sol\":10982:11019  balances[msg.sender].free_balance = 0 */\n      sstore\n        /* \"contracts/worksystems/StakingManager.sol\":10793:11027  function withdrawAll() public     \r... */\n      jump\t// out\n        /* \"contracts/worksystems/StakingManager.sol\":7493:7927  function TotalAvailableStakes()\r... */\n    tag_71:\n        /* \"contracts/worksystems/StakingManager.sol\":7572:7579  uint256 */\n      0x00\n      dup1\n      dup1\n        /* \"contracts/worksystems/StakingManager.sol\":7632:7890  for (uint256 s = 0; s < stakeholders.length; s += 1){\r... */\n    tag_216:\n        /* \"contracts/worksystems/StakingManager.sol\":7656:7668  stakeholders */\n      0x02\n        /* \"contracts/worksystems/StakingManager.sol\":7656:7675  stakeholders.length */\n      sload\n        /* \"contracts/worksystems/StakingManager.sol\":7652:7675  s < stakeholders.length */\n      dup2\n      lt\n        /* \"contracts/worksystems/StakingManager.sol\":7632:7890  for (uint256 s = 0; s < stakeholders.length; s += 1){\r... */\n      iszero\n      tag_138\n      jumpi\n        /* \"contracts/worksystems/StakingManager.sol\":7699:7719  address user_address */\n      0x00\n        /* \"contracts/worksystems/StakingManager.sol\":7722:7734  stakeholders */\n      0x02\n        /* \"contracts/worksystems/StakingManager.sol\":7735:7736  s */\n      dup3\n        /* \"contracts/worksystems/StakingManager.sol\":7722:7737  stakeholders[s] */\n      dup2\n      sload\n      dup2\n      lt\n      tag_219\n      jumpi\n      mstore(0x00, shl(0xe0, 0x4e487b71))\n      mstore(0x04, 0x32)\n      revert(0x00, 0x24)\n    tag_219:\n      0x00\n      swap2\n      dup3\n      mstore\n      0x20\n      dup1\n      dup4\n      keccak256\n      swap1\n      swap2\n      add\n      sload\n      sub(shl(0xa0, 0x01), 0x01)\n      and\n        /* \"contracts/worksystems/StakingManager.sol\":7779:7801  balances[user_address] */\n      dup1\n      dup4\n      mstore\n        /* \"contracts/worksystems/StakingManager.sol\":7779:7787  balances */\n      0x03\n        /* \"contracts/worksystems/StakingManager.sol\":7779:7801  balances[user_address] */\n      swap1\n      swap2\n      mstore\n      0x40\n      swap1\n      swap2\n      keccak256\n        /* \"contracts/worksystems/StakingManager.sol\":7779:7814  balances[user_address].free_balance */\n      sload\n        /* \"contracts/worksystems/StakingManager.sol\":7722:7737  stakeholders[s] */\n      swap1\n      swap2\n      pop\n        /* \"contracts/worksystems/StakingManager.sol\":7844:7878  _totalStakes.add(user_free_amount) */\n      tag_221\n        /* \"contracts/worksystems/StakingManager.sol\":7844:7856  _totalStakes */\n      dup5\n        /* \"contracts/worksystems/StakingManager.sol\":7779:7814  balances[user_address].free_balance */\n      dup3\n        /* \"contracts/worksystems/StakingManager.sol\":7844:7860  _totalStakes.add */\n      tag_123\n        /* \"contracts/worksystems/StakingManager.sol\":7844:7878  _totalStakes.add(user_free_amount) */\n      jump\t// in\n    tag_221:\n        /* \"contracts/worksystems/StakingManager.sol\":7829:7878  _totalStakes = _totalStakes.add(user_free_amount) */\n      swap4\n      pop\n        /* \"contracts/worksystems/StakingManager.sol\":7632:7890  for (uint256 s = 0; s < stakeholders.length; s += 1){\r... */\n      pop\n      pop\n        /* \"contracts/worksystems/StakingManager.sol\":7682:7683  1 */\n      0x01\n        /* \"contracts/worksystems/StakingManager.sol\":7677:7683  s += 1 */\n      dup2\n      tag_222\n      swap2\n      swap1\n      tag_144\n      jump\t// in\n    tag_222:\n      swap1\n      pop\n        /* \"contracts/worksystems/StakingManager.sol\":7632:7890  for (uint256 s = 0; s < stakeholders.length; s += 1){\r... */\n      jump(tag_216)\n        /* \"@openzeppelin/contracts/access/Ownable.sol\":1036:1121  function owner() public view virtual returns (address) {... */\n    tag_74:\n        /* \"@openzeppelin/contracts/access/Ownable.sol\":1082:1089  address */\n      0x00\n        /* \"@openzeppelin/contracts/access/Ownable.sol\":1108:1114  _owner */\n      sload\n      sub(shl(0xa0, 0x01), 0x01)\n      and\n        /* \"@openzeppelin/contracts/access/Ownable.sol\":1036:1121  function owner() public view virtual returns (address) {... */\n      swap1\n      jump\t// out\n        /* \"contracts/worksystems/StakingManager.sol\":9890:10256  function deposit(uint tokens) public {\r... */\n    tag_79:\n        /* \"contracts/worksystems/StakingManager.sol\":9942:9947  token */\n      sload(0x01)\n        /* \"contracts/worksystems/StakingManager.sol\":9942:9969  token.balanceOf(msg.sender) */\n      mload(0x40)\n      shl(0xe0, 0x70a08231)\n      dup2\n      mstore\n        /* \"contracts/worksystems/StakingManager.sol\":9973:9979  tokens */\n      dup3\n      swap2\n      sub(shl(0xa0, 0x01), 0x01)\n        /* \"contracts/worksystems/StakingManager.sol\":9942:9947  token */\n      and\n      swap1\n        /* \"contracts/worksystems/StakingManager.sol\":9942:9957  token.balanceOf */\n      0x70a08231\n      swap1\n        /* \"contracts/worksystems/StakingManager.sol\":9942:9969  token.balanceOf(msg.sender) */\n      tag_225\n      swap1\n        /* \"contracts/worksystems/StakingManager.sol\":9958:9968  msg.sender */\n      caller\n      swap1\n        /* \"contracts/worksystems/StakingManager.sol\":9942:9969  token.balanceOf(msg.sender) */\n      0x04\n      add\n      tag_76\n      jump\t// in\n    tag_225:\n      0x20\n      mload(0x40)\n      dup1\n      dup4\n      sub\n      dup2\n      dup7\n      dup1\n      extcodesize\n      iszero\n      dup1\n      iszero\n      tag_226\n      jumpi\n      0x00\n      dup1\n      revert\n    tag_226:\n      pop\n      gas\n      staticcall\n      iszero\n      dup1\n      iszero\n      tag_228\n      jumpi\n      returndatasize\n      0x00\n      dup1\n      returndatacopy\n      revert(0x00, returndatasize)\n    tag_228:\n      pop\n      pop\n      pop\n      pop\n      mload(0x40)\n      returndatasize\n      not(0x1f)\n      0x1f\n      dup3\n      add\n      and\n      dup3\n      add\n      dup1\n      0x40\n      mstore\n      pop\n      dup2\n      add\n      swap1\n      tag_229\n      swap2\n      swap1\n      tag_230\n      jump\t// in\n    tag_229:\n        /* \"contracts/worksystems/StakingManager.sol\":9942:9979  token.balanceOf(msg.sender) >= tokens */\n      lt\n      iszero\n        /* \"contracts/worksystems/StakingManager.sol\":9934:10012  require(token.balanceOf(msg.sender) >= tokens, \"not enough tokens to deposit\") */\n      tag_231\n      jumpi\n      mload(0x40)\n      shl(0xe5, 0x461bcd)\n      dup2\n      mstore\n      0x04\n      add\n      tag_111\n      swap1\n      tag_233\n      jump\t// in\n    tag_231:\n        /* \"contracts/worksystems/StakingManager.sol\":10084:10094  msg.sender */\n      caller\n        /* \"contracts/worksystems/StakingManager.sol\":10075:10095  balances[msg.sender] */\n      0x00\n      swap1\n      dup2\n      mstore\n        /* \"contracts/worksystems/StakingManager.sol\":10075:10083  balances */\n      0x03\n        /* \"contracts/worksystems/StakingManager.sol\":10075:10095  balances[msg.sender] */\n      0x20\n      mstore\n      0x40\n      dup2\n      keccak256\n        /* \"contracts/worksystems/StakingManager.sol\":10075:10118  balances[msg.sender].free_balance += tokens */\n      dup1\n      sload\n        /* \"contracts/worksystems/StakingManager.sol\":10112:10118  tokens */\n      dup4\n      swap3\n        /* \"contracts/worksystems/StakingManager.sol\":10075:10095  balances[msg.sender] */\n      swap1\n        /* \"contracts/worksystems/StakingManager.sol\":10075:10118  balances[msg.sender].free_balance += tokens */\n      tag_234\n      swap1\n        /* \"contracts/worksystems/StakingManager.sol\":10112:10118  tokens */\n      dup5\n      swap1\n        /* \"contracts/worksystems/StakingManager.sol\":10075:10118  balances[msg.sender].free_balance += tokens */\n      tag_144\n      jump\t// in\n    tag_234:\n      swap1\n      swap2\n      sstore\n      pop\n      pop\n        /* \"contracts/worksystems/StakingManager.sol\":10196:10201  token */\n      sload(0x01)\n        /* \"contracts/worksystems/StakingManager.sol\":10196:10249  token.transferFrom(msg.sender, address(this), tokens) */\n      mload(0x40)\n      shl(0xe0, 0x23b872dd)\n      dup2\n      mstore\n      sub(shl(0xa0, 0x01), 0x01)\n        /* \"contracts/worksystems/StakingManager.sol\":10196:10201  token */\n      swap1\n      swap2\n      and\n      swap1\n        /* \"contracts/worksystems/StakingManager.sol\":10196:10214  token.transferFrom */\n      0x23b872dd\n      swap1\n        /* \"contracts/worksystems/StakingManager.sol\":10196:10249  token.transferFrom(msg.sender, address(this), tokens) */\n      tag_235\n      swap1\n        /* \"contracts/worksystems/StakingManager.sol\":10215:10225  msg.sender */\n      caller\n      swap1\n        /* \"contracts/worksystems/StakingManager.sol\":10235:10239  this */\n      address\n      swap1\n        /* \"contracts/worksystems/StakingManager.sol\":10242:10248  tokens */\n      dup7\n      swap1\n        /* \"contracts/worksystems/StakingManager.sol\":10196:10249  token.transferFrom(msg.sender, address(this), tokens) */\n      0x04\n      add\n      tag_236\n      jump\t// in\n    tag_235:\n      0x20\n      mload(0x40)\n      dup1\n      dup4\n      sub\n      dup2\n      0x00\n      dup8\n      dup1\n      extcodesize\n      iszero\n      dup1\n      iszero\n      tag_237\n      jumpi\n      0x00\n      dup1\n      revert\n    tag_237:\n      pop\n      gas\n      call\n      iszero\n      dup1\n      iszero\n      tag_239\n      jumpi\n      returndatasize\n      0x00\n      dup1\n      returndatacopy\n      revert(0x00, returndatasize)\n    tag_239:\n      pop\n      pop\n      pop\n      pop\n      mload(0x40)\n      returndatasize\n      not(0x1f)\n      0x1f\n      dup3\n      add\n      and\n      dup3\n      add\n      dup1\n      0x40\n      mstore\n      pop\n      dup2\n      add\n      swap1\n      tag_240\n      swap2\n      swap1\n      tag_170\n      jump\t// in\n    tag_240:\n        /* \"contracts/worksystems/StakingManager.sol\":10188:10250  require(token.transferFrom(msg.sender, address(this), tokens)) */\n      tag_241\n      jumpi\n      0x00\n      dup1\n      revert\n    tag_241:\n        /* \"contracts/worksystems/StakingManager.sol\":9890:10256  function deposit(uint tokens) public {\r... */\n      pop\n      jump\t// out\n        /* \"contracts/worksystems/StakingManager.sol\":8238:8525  function isStakeholderIndex(address _address)\r... */\n    tag_82:\n        /* \"contracts/worksystems/StakingManager.sol\":8331:8335  bool */\n      0x00\n        /* \"contracts/worksystems/StakingManager.sol\":8337:8344  uint256 */\n      dup1\n        /* \"contracts/worksystems/StakingManager.sol\":8367:8376  uint256 s */\n      0x00\n        /* \"contracts/worksystems/StakingManager.sol\":8362:8490  for (uint256 s = 0; s < stakeholders.length; s += 1){\r... */\n    tag_243:\n        /* \"contracts/worksystems/StakingManager.sol\":8386:8398  stakeholders */\n      0x02\n        /* \"contracts/worksystems/StakingManager.sol\":8386:8405  stakeholders.length */\n      sload\n        /* \"contracts/worksystems/StakingManager.sol\":8382:8405  s < stakeholders.length */\n      dup2\n      lt\n        /* \"contracts/worksystems/StakingManager.sol\":8362:8490  for (uint256 s = 0; s < stakeholders.length; s += 1){\r... */\n      iszero\n      tag_244\n      jumpi\n        /* \"contracts/worksystems/StakingManager.sol\":8445:8457  stakeholders */\n      0x02\n        /* \"contracts/worksystems/StakingManager.sol\":8458:8459  s */\n      dup2\n        /* \"contracts/worksystems/StakingManager.sol\":8445:8460  stakeholders[s] */\n      dup2\n      sload\n      dup2\n      lt\n      tag_246\n      jumpi\n      mstore(0x00, shl(0xe0, 0x4e487b71))\n      mstore(0x04, 0x32)\n      revert(0x00, 0x24)\n    tag_246:\n      0x00\n      swap2\n      dup3\n      mstore\n      0x20\n      swap1\n      swap2\n      keccak256\n      add\n      sload\n      sub(shl(0xa0, 0x01), 0x01)\n        /* \"contracts/worksystems/StakingManager.sol\":8433:8460  _address == stakeholders[s] */\n      dup6\n      dup2\n      and\n        /* \"contracts/worksystems/StakingManager.sol\":8445:8460  stakeholders[s] */\n      swap2\n      and\n        /* \"contracts/worksystems/StakingManager.sol\":8433:8460  _address == stakeholders[s] */\n      eq\n        /* \"contracts/worksystems/StakingManager.sol\":8429:8478  if (_address == stakeholders[s]) return (true, s) */\n      iszero\n      tag_248\n      jumpi\n        /* \"contracts/worksystems/StakingManager.sol\":8470:8474  true */\n      0x01\n      swap3\n      pop\n        /* \"contracts/worksystems/StakingManager.sol\":8476:8477  s */\n      swap1\n      pop\n        /* \"contracts/worksystems/StakingManager.sol\":8462:8478  return (true, s) */\n      jump(tag_242)\n        /* \"contracts/worksystems/StakingManager.sol\":8429:8478  if (_address == stakeholders[s]) return (true, s) */\n    tag_248:\n        /* \"contracts/worksystems/StakingManager.sol\":8407:8413  s += 1 */\n      tag_249\n        /* \"contracts/worksystems/StakingManager.sol\":8412:8413  1 */\n      0x01\n        /* \"contracts/worksystems/StakingManager.sol\":8407:8413  s += 1 */\n      dup3\n      tag_144\n      jump\t// in\n    tag_249:\n      swap1\n      pop\n        /* \"contracts/worksystems/StakingManager.sol\":8362:8490  for (uint256 s = 0; s < stakeholders.length; s += 1){\r... */\n      jump(tag_243)\n    tag_244:\n      pop\n        /* \"contracts/worksystems/StakingManager.sol\":8508:8513  false */\n      0x00\n        /* \"contracts/worksystems/StakingManager.sol\":8515:8516  0 */\n      dup1\n        /* \"contracts/worksystems/StakingManager.sol\":8500:8517  return (false, 0) */\n      swap2\n      pop\n      swap2\n      pop\n        /* \"contracts/worksystems/StakingManager.sol\":8238:8525  function isStakeholderIndex(address _address)\r... */\n    tag_242:\n      swap2\n      pop\n      swap2\n      jump\t// out\n        /* \"contracts/worksystems/StakingManager.sol\":5530:5709  function AvailableStakedAmountOf(address _stakeholder)\r... */\n    tag_87:\n      sub(shl(0xa0, 0x01), 0x01)\n        /* \"contracts/worksystems/StakingManager.sol\":5664:5686  balances[_stakeholder] */\n      dup2\n      and\n        /* \"contracts/worksystems/StakingManager.sol\":5632:5639  uint256 */\n      0x00\n        /* \"contracts/worksystems/StakingManager.sol\":5664:5686  balances[_stakeholder] */\n      swap1\n      dup2\n      mstore\n        /* \"contracts/worksystems/StakingManager.sol\":5664:5672  balances */\n      0x03\n        /* \"contracts/worksystems/StakingManager.sol\":5664:5686  balances[_stakeholder] */\n      0x20\n      mstore\n      0x40\n      swap1\n      keccak256\n        /* \"contracts/worksystems/StakingManager.sol\":5664:5701  balances[_stakeholder].staked_balance */\n      0x01\n      add\n      sload\n        /* \"contracts/worksystems/StakingManager.sol\":5530:5709  function AvailableStakedAmountOf(address _stakeholder)\r... */\n    tag_250:\n      swap2\n      swap1\n      pop\n      jump\t// out\n        /* \"contracts/worksystems/StakingManager.sol\":1346:1504  function isStakeWhitelisted(address _address)\r... */\n    tag_91:\n      sub(shl(0xa0, 0x01), 0x01)\n        /* \"contracts/worksystems/StakingManager.sol\":1469:1496  StakeWhitelistMap[_address] */\n      and\n        /* \"contracts/worksystems/StakingManager.sol\":1440:1444  bool */\n      0x00\n        /* \"contracts/worksystems/StakingManager.sol\":1469:1496  StakeWhitelistMap[_address] */\n      swap1\n      dup2\n      mstore\n        /* \"contracts/worksystems/StakingManager.sol\":1469:1486  StakeWhitelistMap */\n      0x04\n        /* \"contracts/worksystems/StakingManager.sol\":1469:1496  StakeWhitelistMap[_address] */\n      0x20\n      mstore\n      0x40\n      swap1\n      keccak256\n      sload\n      0xff\n      and\n      swap1\n        /* \"contracts/worksystems/StakingManager.sol\":1346:1504  function isStakeWhitelisted(address _address)\r... */\n      jump\t// out\n        /* \"contracts/worksystems/StakingManager.sol\":8791:9054  function isStakeholder(address _address)\r... */\n    tag_95:\n        /* \"contracts/worksystems/StakingManager.sol\":8879:8883  bool */\n      0x00\n      dup1\n        /* \"contracts/worksystems/StakingManager.sol\":8901:9024  for (uint256 s = 0; s < stakeholders.length; s += 1){\r... */\n    tag_253:\n        /* \"contracts/worksystems/StakingManager.sol\":8925:8937  stakeholders */\n      0x02\n        /* \"contracts/worksystems/StakingManager.sol\":8925:8944  stakeholders.length */\n      sload\n        /* \"contracts/worksystems/StakingManager.sol\":8921:8944  s < stakeholders.length */\n      dup2\n      lt\n        /* \"contracts/worksystems/StakingManager.sol\":8901:9024  for (uint256 s = 0; s < stakeholders.length; s += 1){\r... */\n      iszero\n      tag_254\n      jumpi\n        /* \"contracts/worksystems/StakingManager.sol\":8984:8996  stakeholders */\n      0x02\n        /* \"contracts/worksystems/StakingManager.sol\":8997:8998  s */\n      dup2\n        /* \"contracts/worksystems/StakingManager.sol\":8984:8999  stakeholders[s] */\n      dup2\n      sload\n      dup2\n      lt\n      tag_256\n      jumpi\n      mstore(0x00, shl(0xe0, 0x4e487b71))\n      mstore(0x04, 0x32)\n      revert(0x00, 0x24)\n    tag_256:\n      0x00\n      swap2\n      dup3\n      mstore\n      0x20\n      swap1\n      swap2\n      keccak256\n      add\n      sload\n      sub(shl(0xa0, 0x01), 0x01)\n        /* \"contracts/worksystems/StakingManager.sol\":8972:8999  _address == stakeholders[s] */\n      dup5\n      dup2\n      and\n        /* \"contracts/worksystems/StakingManager.sol\":8984:8999  stakeholders[s] */\n      swap2\n      and\n        /* \"contracts/worksystems/StakingManager.sol\":8972:8999  _address == stakeholders[s] */\n      eq\n        /* \"contracts/worksystems/StakingManager.sol\":8968:9012  if (_address == stakeholders[s]) return true */\n      iszero\n      tag_258\n      jumpi\n        /* \"contracts/worksystems/StakingManager.sol\":9008:9012  true */\n      0x01\n        /* \"contracts/worksystems/StakingManager.sol\":9001:9012  return true */\n      swap2\n      pop\n      pop\n      jump(tag_250)\n        /* \"contracts/worksystems/StakingManager.sol\":8968:9012  if (_address == stakeholders[s]) return true */\n    tag_258:\n        /* \"contracts/worksystems/StakingManager.sol\":8946:8952  s += 1 */\n      tag_259\n        /* \"contracts/worksystems/StakingManager.sol\":8951:8952  1 */\n      0x01\n        /* \"contracts/worksystems/StakingManager.sol\":8946:8952  s += 1 */\n      dup3\n      tag_144\n      jump\t// in\n    tag_259:\n      swap1\n      pop\n        /* \"contracts/worksystems/StakingManager.sol\":8901:9024  for (uint256 s = 0; s < stakeholders.length; s += 1){\r... */\n      jump(tag_253)\n    tag_254:\n      pop\n        /* \"contracts/worksystems/StakingManager.sol\":9041:9046  false */\n      0x00\n      swap3\n        /* \"contracts/worksystems/StakingManager.sol\":8791:9054  function isStakeholder(address _address)\r... */\n      swap2\n      pop\n      pop\n      jump\t// out\n        /* \"contracts/worksystems/StakingManager.sol\":5927:6109  function AllocatedStakedAmountOf(address _stakeholder)\r... */\n    tag_99:\n      sub(shl(0xa0, 0x01), 0x01)\n        /* \"contracts/worksystems/StakingManager.sol\":6061:6083  balances[_stakeholder] */\n      and\n        /* \"contracts/worksystems/StakingManager.sol\":6029:6036  uint256 */\n      0x00\n        /* \"contracts/worksystems/StakingManager.sol\":6061:6083  balances[_stakeholder] */\n      swap1\n      dup2\n      mstore\n        /* \"contracts/worksystems/StakingManager.sol\":6061:6069  balances */\n      0x03\n        /* \"contracts/worksystems/StakingManager.sol\":6061:6083  balances[_stakeholder] */\n      0x20\n      mstore\n      0x40\n      swap1\n      keccak256\n        /* \"contracts/worksystems/StakingManager.sol\":6061:6101  balances[_stakeholder].allocated_balance */\n      0x02\n      add\n      sload\n      swap1\n        /* \"contracts/worksystems/StakingManager.sol\":5927:6109  function AllocatedStakedAmountOf(address _stakeholder)\r... */\n      jump\t// out\n        /* \"@openzeppelin/contracts/access/Ownable.sol\":1918:2116  function transferOwnership(address newOwner) public virtual onlyOwner {... */\n    tag_103:\n        /* \"@openzeppelin/contracts/access/Ownable.sol\":1259:1271  _msgSender() */\n      tag_262\n        /* \"@openzeppelin/contracts/access/Ownable.sol\":1259:1269  _msgSender */\n      tag_176\n        /* \"@openzeppelin/contracts/access/Ownable.sol\":1259:1271  _msgSender() */\n      jump\t// in\n    tag_262:\n      sub(shl(0xa0, 0x01), 0x01)\n        /* \"@openzeppelin/contracts/access/Ownable.sol\":1248:1271  owner() == _msgSender() */\n      and\n        /* \"@openzeppelin/contracts/access/Ownable.sol\":1248:1255  owner() */\n      tag_263\n        /* \"@openzeppelin/contracts/access/Ownable.sol\":1248:1253  owner */\n      tag_74\n        /* \"@openzeppelin/contracts/access/Ownable.sol\":1248:1255  owner() */\n      jump\t// in\n    tag_263:\n      sub(shl(0xa0, 0x01), 0x01)\n        /* \"@openzeppelin/contracts/access/Ownable.sol\":1248:1271  owner() == _msgSender() */\n      and\n      eq\n        /* \"@openzeppelin/contracts/access/Ownable.sol\":1240:1308  require(owner() == _msgSender(), \"Ownable: caller is not the owner\") */\n      tag_264\n      jumpi\n      mload(0x40)\n      shl(0xe5, 0x461bcd)\n      dup2\n      mstore\n      0x04\n      add\n      tag_111\n      swap1\n      tag_180\n      jump\t// in\n    tag_264:\n      sub(shl(0xa0, 0x01), 0x01)\n        /* \"@openzeppelin/contracts/access/Ownable.sol\":2006:2028  newOwner != address(0) */\n      dup2\n      and\n        /* \"@openzeppelin/contracts/access/Ownable.sol\":1998:2071  require(newOwner != address(0), \"Ownable: new owner is the zero address\") */\n      tag_267\n      jumpi\n      mload(0x40)\n      shl(0xe5, 0x461bcd)\n      dup2\n      mstore\n      0x04\n      add\n      tag_111\n      swap1\n      tag_269\n      jump\t// in\n    tag_267:\n        /* \"@openzeppelin/contracts/access/Ownable.sol\":2081:2109  _transferOwnership(newOwner) */\n      tag_241\n        /* \"@openzeppelin/contracts/access/Ownable.sol\":2100:2108  newOwner */\n      dup2\n        /* \"@openzeppelin/contracts/access/Ownable.sol\":2081:2099  _transferOwnership */\n      tag_206\n        /* \"@openzeppelin/contracts/access/Ownable.sol\":2081:2109  _transferOwnership(newOwner) */\n      jump\t// in\n        /* \"contracts/worksystems/StakingManager.sol\":523:542  IERC20 public token */\n    tag_105:\n      and(sub(shl(0xa0, 0x01), 0x01), sload(0x01))\n      dup2\n      jump\t// out\n        /* \"@openzeppelin/contracts/utils/math/SafeMath.sol\":3108:3204  function sub(uint256 a, uint256 b) internal pure returns (uint256) {... */\n    tag_121:\n        /* \"@openzeppelin/contracts/utils/math/SafeMath.sol\":3166:3173  uint256 */\n      0x00\n        /* \"@openzeppelin/contracts/utils/math/SafeMath.sol\":3192:3197  a - b */\n      tag_272\n        /* \"@openzeppelin/contracts/utils/math/SafeMath.sol\":3196:3197  b */\n      dup3\n        /* \"@openzeppelin/contracts/utils/math/SafeMath.sol\":3192:3193  a */\n      dup5\n        /* \"@openzeppelin/contracts/utils/math/SafeMath.sol\":3192:3197  a - b */\n      tag_173\n      jump\t// in\n    tag_272:\n        /* \"@openzeppelin/contracts/utils/math/SafeMath.sol\":3185:3197  return a - b */\n      swap4\n        /* \"@openzeppelin/contracts/utils/math/SafeMath.sol\":3108:3204  function sub(uint256 a, uint256 b) internal pure returns (uint256) {... */\n      swap3\n      pop\n      pop\n      pop\n      jump\t// out\n        /* \"@openzeppelin/contracts/utils/math/SafeMath.sol\":2741:2837  function add(uint256 a, uint256 b) internal pure returns (uint256) {... */\n    tag_123:\n        /* \"@openzeppelin/contracts/utils/math/SafeMath.sol\":2799:2806  uint256 */\n      0x00\n        /* \"@openzeppelin/contracts/utils/math/SafeMath.sol\":2825:2830  a + b */\n      tag_272\n        /* \"@openzeppelin/contracts/utils/math/SafeMath.sol\":2829:2830  b */\n      dup3\n        /* \"@openzeppelin/contracts/utils/math/SafeMath.sol\":2825:2826  a */\n      dup5\n        /* \"@openzeppelin/contracts/utils/math/SafeMath.sol\":2825:2830  a + b */\n      tag_144\n      jump\t// in\n        /* \"contracts/worksystems/StakingManager.sol\":9177:9384  function addStakeholder(address _stakeholder)\r... */\n    tag_149:\n        /* \"contracts/worksystems/StakingManager.sol\":9257:9276  bool _isStakeholder */\n      0x00\n        /* \"contracts/worksystems/StakingManager.sol\":9282:9314  isStakeholderIndex(_stakeholder) */\n      tag_276\n        /* \"contracts/worksystems/StakingManager.sol\":9301:9313  _stakeholder */\n      dup3\n        /* \"contracts/worksystems/StakingManager.sol\":9282:9300  isStakeholderIndex */\n      tag_82\n        /* \"contracts/worksystems/StakingManager.sol\":9282:9314  isStakeholderIndex(_stakeholder) */\n      jump\t// in\n    tag_276:\n        /* \"contracts/worksystems/StakingManager.sol\":9256:9314  (bool _isStakeholder, ) = isStakeholderIndex(_stakeholder) */\n      pop\n      swap1\n      pop\n        /* \"contracts/worksystems/StakingManager.sol\":9329:9343  _isStakeholder */\n      dup1\n        /* \"contracts/worksystems/StakingManager.sol\":9325:9376  if(!_isStakeholder) stakeholders.push(_stakeholder) */\n      tag_277\n      jumpi\n        /* \"contracts/worksystems/StakingManager.sol\":9345:9357  stakeholders */\n      0x02\n        /* \"contracts/worksystems/StakingManager.sol\":9345:9376  stakeholders.push(_stakeholder) */\n      dup1\n      sload\n      0x01\n      dup2\n      add\n      dup3\n      sstore\n      0x00\n      swap2\n      swap1\n      swap2\n      mstore\n      0x405787fa12a823e0f2b7631cc41b3ba8828b3321ca811111fa75cd3aa3bb5ace\n      add\n      dup1\n      sload\n      not(sub(shl(0xa0, 0x01), 0x01))\n      and\n      sub(shl(0xa0, 0x01), 0x01)\n      dup5\n      and\n      or\n      swap1\n      sstore\n        /* \"contracts/worksystems/StakingManager.sol\":9325:9376  if(!_isStakeholder) stakeholders.push(_stakeholder) */\n    tag_277:\n        /* \"contracts/worksystems/StakingManager.sol\":9177:9384  function addStakeholder(address _stakeholder)\r... */\n      pop\n      pop\n      jump\t// out\n        /* \"@openzeppelin/contracts/utils/Context.sol\":640:736  function _msgSender() internal view virtual returns (address) {... */\n    tag_176:\n        /* \"@openzeppelin/contracts/utils/Context.sol\":719:729  msg.sender */\n      caller\n        /* \"@openzeppelin/contracts/utils/Context.sol\":640:736  function _msgSender() internal view virtual returns (address) {... */\n      swap1\n      jump\t// out\n        /* \"@openzeppelin/contracts/access/Ownable.sol\":2270:2457  function _transferOwnership(address newOwner) internal virtual {... */\n    tag_206:\n        /* \"@openzeppelin/contracts/access/Ownable.sol\":2343:2359  address oldOwner */\n      0x00\n        /* \"@openzeppelin/contracts/access/Ownable.sol\":2362:2368  _owner */\n      dup1\n      sload\n      sub(shl(0xa0, 0x01), 0x01)\n        /* \"@openzeppelin/contracts/access/Ownable.sol\":2378:2395  _owner = newOwner */\n      dup4\n      dup2\n      and\n      not(sub(shl(0xa0, 0x01), 0x01))\n      dup4\n      and\n      dup2\n      or\n      dup5\n      sstore\n        /* \"@openzeppelin/contracts/access/Ownable.sol\":2410:2450  OwnershipTransferred(oldOwner, newOwner) */\n      mload(0x40)\n        /* \"@openzeppelin/contracts/access/Ownable.sol\":2362:2368  _owner */\n      swap2\n      swap1\n      swap3\n      and\n      swap3\n      dup4\n      swap2\n        /* \"@openzeppelin/contracts/access/Ownable.sol\":2410:2450  OwnershipTransferred(oldOwner, newOwner) */\n      0x8be0079c531659141344cd1fd0a4f28419497f9722a3daafe3b4186f6b6457e0\n      swap2\n        /* \"@openzeppelin/contracts/access/Ownable.sol\":2343:2359  address oldOwner */\n      swap1\n        /* \"@openzeppelin/contracts/access/Ownable.sol\":2410:2450  OwnershipTransferred(oldOwner, newOwner) */\n      log3\n        /* \"@openzeppelin/contracts/access/Ownable.sol\":2270:2457  function _transferOwnership(address newOwner) internal virtual {... */\n      pop\n      pop\n      jump\t// out\n        /* \"#utility.yul\":14:189   */\n    tag_282:\n        /* \"#utility.yul\":84:104   */\n      dup1\n      calldataload\n      sub(shl(0xa0, 0x01), 0x01)\n        /* \"#utility.yul\":133:164   */\n      dup2\n      and\n        /* \"#utility.yul\":123:165   */\n      dup2\n      eq\n        /* \"#utility.yul\":113:115   */\n      tag_250\n      jumpi\n        /* \"#utility.yul\":179:180   */\n      0x00\n        /* \"#utility.yul\":176:177   */\n      dup1\n        /* \"#utility.yul\":169:181   */\n      revert\n        /* \"#utility.yul\":194:392   */\n    tag_51:\n      0x00\n        /* \"#utility.yul\":306:308   */\n      0x20\n        /* \"#utility.yul\":294:303   */\n      dup3\n        /* \"#utility.yul\":285:292   */\n      dup5\n        /* \"#utility.yul\":281:304   */\n      sub\n        /* \"#utility.yul\":277:309   */\n      slt\n        /* \"#utility.yul\":274:276   */\n      iszero\n      tag_286\n      jumpi\n        /* \"#utility.yul\":327:333   */\n      dup1\n        /* \"#utility.yul\":319:325   */\n      dup2\n        /* \"#utility.yul\":312:334   */\n      revert\n        /* \"#utility.yul\":274:276   */\n    tag_286:\n        /* \"#utility.yul\":355:386   */\n      tag_272\n        /* \"#utility.yul\":376:385   */\n      dup3\n        /* \"#utility.yul\":355:386   */\n      tag_282\n      jump\t// in\n        /* \"#utility.yul\":397:694   */\n    tag_170:\n      0x00\n        /* \"#utility.yul\":517:519   */\n      0x20\n        /* \"#utility.yul\":505:514   */\n      dup3\n        /* \"#utility.yul\":496:503   */\n      dup5\n        /* \"#utility.yul\":492:515   */\n      sub\n        /* \"#utility.yul\":488:520   */\n      slt\n        /* \"#utility.yul\":485:487   */\n      iszero\n      tag_289\n      jumpi\n        /* \"#utility.yul\":538:544   */\n      dup1\n        /* \"#utility.yul\":530:536   */\n      dup2\n        /* \"#utility.yul\":523:545   */\n      revert\n        /* \"#utility.yul\":485:487   */\n    tag_289:\n        /* \"#utility.yul\":575:584   */\n      dup2\n        /* \"#utility.yul\":569:585   */\n      mload\n        /* \"#utility.yul\":628:633   */\n      dup1\n        /* \"#utility.yul\":621:634   */\n      iszero\n        /* \"#utility.yul\":614:635   */\n      iszero\n        /* \"#utility.yul\":607:612   */\n      dup2\n        /* \"#utility.yul\":604:636   */\n      eq\n        /* \"#utility.yul\":594:596   */\n      tag_272\n      jumpi\n        /* \"#utility.yul\":655:661   */\n      dup2\n        /* \"#utility.yul\":647:653   */\n      dup3\n        /* \"#utility.yul\":640:662   */\n      revert\n        /* \"#utility.yul\":699:889   */\n    tag_44:\n      0x00\n        /* \"#utility.yul\":811:813   */\n      0x20\n        /* \"#utility.yul\":799:808   */\n      dup3\n        /* \"#utility.yul\":790:797   */\n      dup5\n        /* \"#utility.yul\":786:809   */\n      sub\n        /* \"#utility.yul\":782:814   */\n      slt\n        /* \"#utility.yul\":779:781   */\n      iszero\n      tag_292\n      jumpi\n        /* \"#utility.yul\":832:838   */\n      dup1\n        /* \"#utility.yul\":824:830   */\n      dup2\n        /* \"#utility.yul\":817:839   */\n      revert\n        /* \"#utility.yul\":779:781   */\n    tag_292:\n      pop\n        /* \"#utility.yul\":860:883   */\n      calldataload\n      swap2\n        /* \"#utility.yul\":769:889   */\n      swap1\n      pop\n      jump\t// out\n        /* \"#utility.yul\":894:1088   */\n    tag_230:\n      0x00\n        /* \"#utility.yul\":1017:1019   */\n      0x20\n        /* \"#utility.yul\":1005:1014   */\n      dup3\n        /* \"#utility.yul\":996:1003   */\n      dup5\n        /* \"#utility.yul\":992:1015   */\n      sub\n        /* \"#utility.yul\":988:1020   */\n      slt\n        /* \"#utility.yul\":985:987   */\n      iszero\n      tag_294\n      jumpi\n        /* \"#utility.yul\":1038:1044   */\n      dup1\n        /* \"#utility.yul\":1030:1036   */\n      dup2\n        /* \"#utility.yul\":1023:1045   */\n      revert\n        /* \"#utility.yul\":985:987   */\n    tag_294:\n      pop\n        /* \"#utility.yul\":1066:1082   */\n      mload\n      swap2\n        /* \"#utility.yul\":975:1088   */\n      swap1\n      pop\n      jump\t// out\n        /* \"#utility.yul\":1093:1359   */\n    tag_30:\n      0x00\n      dup1\n        /* \"#utility.yul\":1222:1224   */\n      0x40\n        /* \"#utility.yul\":1210:1219   */\n      dup4\n        /* \"#utility.yul\":1201:1208   */\n      dup6\n        /* \"#utility.yul\":1197:1220   */\n      sub\n        /* \"#utility.yul\":1193:1225   */\n      slt\n        /* \"#utility.yul\":1190:1192   */\n      iszero\n      tag_296\n      jumpi\n        /* \"#utility.yul\":1243:1249   */\n      dup1\n        /* \"#utility.yul\":1235:1241   */\n      dup2\n        /* \"#utility.yul\":1228:1250   */\n      revert\n        /* \"#utility.yul\":1190:1192   */\n    tag_296:\n        /* \"#utility.yul\":1284:1293   */\n      dup3\n        /* \"#utility.yul\":1271:1294   */\n      calldataload\n        /* \"#utility.yul\":1261:1294   */\n      swap2\n      pop\n        /* \"#utility.yul\":1313:1353   */\n      tag_297\n        /* \"#utility.yul\":1349:1351   */\n      0x20\n        /* \"#utility.yul\":1338:1347   */\n      dup5\n        /* \"#utility.yul\":1334:1352   */\n      add\n        /* \"#utility.yul\":1313:1353   */\n      tag_282\n      jump\t// in\n    tag_297:\n        /* \"#utility.yul\":1303:1353   */\n      swap1\n      pop\n        /* \"#utility.yul\":1180:1359   */\n      swap3\n      pop\n      swap3\n      swap1\n      pop\n      jump\t// out\n        /* \"#utility.yul\":1364:1567   */\n    tag_76:\n      sub(shl(0xa0, 0x01), 0x01)\n        /* \"#utility.yul\":1528:1560   */\n      swap2\n      swap1\n      swap2\n      and\n        /* \"#utility.yul\":1510:1561   */\n      dup2\n      mstore\n        /* \"#utility.yul\":1498:1500   */\n      0x20\n        /* \"#utility.yul\":1483:1501   */\n      add\n      swap1\n        /* \"#utility.yul\":1465:1567   */\n      jump\t// out\n        /* \"#utility.yul\":1572:1947   */\n    tag_236:\n      sub(shl(0xa0, 0x01), 0x01)\n        /* \"#utility.yul\":1830:1845   */\n      swap4\n      dup5\n      and\n        /* \"#utility.yul\":1812:1846   */\n      dup2\n      mstore\n        /* \"#utility.yul\":1882:1897   */\n      swap2\n      swap1\n      swap3\n      and\n        /* \"#utility.yul\":1877:1879   */\n      0x20\n        /* \"#utility.yul\":1862:1880   */\n      dup3\n      add\n        /* \"#utility.yul\":1855:1898   */\n      mstore\n        /* \"#utility.yul\":1929:1931   */\n      0x40\n        /* \"#utility.yul\":1914:1932   */\n      dup2\n      add\n        /* \"#utility.yul\":1907:1941   */\n      swap2\n      swap1\n      swap2\n      mstore\n        /* \"#utility.yul\":1762:1764   */\n      0x60\n        /* \"#utility.yul\":1747:1765   */\n      add\n      swap1\n        /* \"#utility.yul\":1729:1947   */\n      jump\t// out\n        /* \"#utility.yul\":1952:2226   */\n    tag_165:\n      sub(shl(0xa0, 0x01), 0x01)\n        /* \"#utility.yul\":2144:2176   */\n      swap3\n      swap1\n      swap3\n      and\n        /* \"#utility.yul\":2126:2177   */\n      dup3\n      mstore\n        /* \"#utility.yul\":2208:2210   */\n      0x20\n        /* \"#utility.yul\":2193:2211   */\n      dup3\n      add\n        /* \"#utility.yul\":2186:2220   */\n      mstore\n        /* \"#utility.yul\":2114:2116   */\n      0x40\n        /* \"#utility.yul\":2099:2117   */\n      add\n      swap1\n        /* \"#utility.yul\":2081:2226   */\n      jump\t// out\n        /* \"#utility.yul\":2231:2418   */\n    tag_33:\n        /* \"#utility.yul\":2396:2410   */\n      swap1\n      iszero\n        /* \"#utility.yul\":2389:2411   */\n      iszero\n        /* \"#utility.yul\":2371:2412   */\n      dup2\n      mstore\n        /* \"#utility.yul\":2359:2361   */\n      0x20\n        /* \"#utility.yul\":2344:2362   */\n      add\n      swap1\n        /* \"#utility.yul\":2326:2418   */\n      jump\t// out\n        /* \"#utility.yul\":2423:2681   */\n    tag_84:\n        /* \"#utility.yul\":2616:2630   */\n      swap2\n      iszero\n        /* \"#utility.yul\":2609:2631   */\n      iszero\n        /* \"#utility.yul\":2591:2632   */\n      dup3\n      mstore\n        /* \"#utility.yul\":2663:2665   */\n      0x20\n        /* \"#utility.yul\":2648:2666   */\n      dup3\n      add\n        /* \"#utility.yul\":2641:2675   */\n      mstore\n        /* \"#utility.yul\":2579:2581   */\n      0x40\n        /* \"#utility.yul\":2564:2582   */\n      add\n      swap1\n        /* \"#utility.yul\":2546:2681   */\n      jump\t// out\n        /* \"#utility.yul\":2908:3318   */\n    tag_133:\n        /* \"#utility.yul\":3110:3112   */\n      0x20\n        /* \"#utility.yul\":3092:3113   */\n      dup1\n      dup3\n      mstore\n        /* \"#utility.yul\":3149:3151   */\n      0x2e\n        /* \"#utility.yul\":3129:3147   */\n      swap1\n      dup3\n      add\n        /* \"#utility.yul\":3122:3152   */\n      mstore\n        /* \"#utility.yul\":3188:3222   */\n      0x5f7374616b65686f6c6465722068617320746f206861766520656e6f75676820\n        /* \"#utility.yul\":3183:3185   */\n      0x40\n        /* \"#utility.yul\":3168:3186   */\n      dup3\n      add\n        /* \"#utility.yul\":3161:3223   */\n      mstore\n      shl(0x90, 0x7374616b65642062616c616e6365)\n        /* \"#utility.yul\":3254:3256   */\n      0x60\n        /* \"#utility.yul\":3239:3257   */\n      dup3\n      add\n        /* \"#utility.yul\":3232:3276   */\n      mstore\n        /* \"#utility.yul\":3308:3311   */\n      0x80\n        /* \"#utility.yul\":3293:3312   */\n      add\n      swap1\n        /* \"#utility.yul\":3082:3318   */\n      jump\t// out\n        /* \"#utility.yul\":3323:3725   */\n    tag_269:\n        /* \"#utility.yul\":3525:3527   */\n      0x20\n        /* \"#utility.yul\":3507:3528   */\n      dup1\n      dup3\n      mstore\n        /* \"#utility.yul\":3564:3566   */\n      0x26\n        /* \"#utility.yul\":3544:3562   */\n      swap1\n      dup3\n      add\n        /* \"#utility.yul\":3537:3567   */\n      mstore\n        /* \"#utility.yul\":3603:3637   */\n      0x4f776e61626c653a206e6577206f776e657220697320746865207a65726f2061\n        /* \"#utility.yul\":3598:3600   */\n      0x40\n        /* \"#utility.yul\":3583:3601   */\n      dup3\n      add\n        /* \"#utility.yul\":3576:3638   */\n      mstore\n      shl(0xd0, 0x646472657373)\n        /* \"#utility.yul\":3669:3671   */\n      0x60\n        /* \"#utility.yul\":3654:3672   */\n      dup3\n      add\n        /* \"#utility.yul\":3647:3683   */\n      mstore\n        /* \"#utility.yul\":3715:3718   */\n      0x80\n        /* \"#utility.yul\":3700:3719   */\n      add\n      swap1\n        /* \"#utility.yul\":3497:3725   */\n      jump\t// out\n        /* \"#utility.yul\":3730:4136   */\n    tag_112:\n        /* \"#utility.yul\":3932:3934   */\n      0x20\n        /* \"#utility.yul\":3914:3935   */\n      dup1\n      dup3\n      mstore\n        /* \"#utility.yul\":3971:3973   */\n      0x2a\n        /* \"#utility.yul\":3951:3969   */\n      swap1\n      dup3\n      add\n        /* \"#utility.yul\":3944:3974   */\n      mstore\n        /* \"#utility.yul\":4010:4044   */\n      0x69735374616b6557686974656c6973746564206d757374206265207472756520\n        /* \"#utility.yul\":4005:4007   */\n      0x40\n        /* \"#utility.yul\":3990:4008   */\n      dup3\n      add\n        /* \"#utility.yul\":3983:4045   */\n      mstore\n      shl(0xb1, 0x3337b91029b2b73232b9)\n        /* \"#utility.yul\":4076:4078   */\n      0x60\n        /* \"#utility.yul\":4061:4079   */\n      dup3\n      add\n        /* \"#utility.yul\":4054:4094   */\n      mstore\n        /* \"#utility.yul\":4126:4129   */\n      0x80\n        /* \"#utility.yul\":4111:4130   */\n      add\n      swap1\n        /* \"#utility.yul\":3904:4136   */\n      jump\t// out\n        /* \"#utility.yul\":4141:4554   */\n    tag_119:\n        /* \"#utility.yul\":4343:4345   */\n      0x20\n        /* \"#utility.yul\":4325:4346   */\n      dup1\n      dup3\n      mstore\n        /* \"#utility.yul\":4382:4384   */\n      0x31\n        /* \"#utility.yul\":4362:4380   */\n      swap1\n      dup3\n      add\n        /* \"#utility.yul\":4355:4385   */\n      mstore\n        /* \"#utility.yul\":4421:4455   */\n      0x5f7374616b65686f6c6465722068617320746f206861766520656e6f75676820\n        /* \"#utility.yul\":4416:4418   */\n      0x40\n        /* \"#utility.yul\":4401:4419   */\n      dup3\n      add\n        /* \"#utility.yul\":4394:4456   */\n      mstore\n      shl(0x78, 0x616c6c6f63617465642062616c616e6365)\n        /* \"#utility.yul\":4487:4489   */\n      0x60\n        /* \"#utility.yul\":4472:4490   */\n      dup3\n      add\n        /* \"#utility.yul\":4465:4512   */\n      mstore\n        /* \"#utility.yul\":4544:4547   */\n      0x80\n        /* \"#utility.yul\":4529:4548   */\n      add\n      swap1\n        /* \"#utility.yul\":4315:4554   */\n      jump\t// out\n        /* \"#utility.yul\":4559:4958   */\n    tag_194:\n        /* \"#utility.yul\":4761:4763   */\n      0x20\n        /* \"#utility.yul\":4743:4764   */\n      dup1\n      dup3\n      mstore\n        /* \"#utility.yul\":4800:4802   */\n      0x23\n        /* \"#utility.yul\":4780:4798   */\n      swap1\n      dup3\n      add\n        /* \"#utility.yul\":4773:4803   */\n      mstore\n        /* \"#utility.yul\":4839:4873   */\n      0x41646472657373206d7573742062652077686974656c697374656420616c7265\n        /* \"#utility.yul\":4834:4836   */\n      0x40\n        /* \"#utility.yul\":4819:4837   */\n      dup3\n      add\n        /* \"#utility.yul\":4812:4874   */\n      mstore\n      shl(0xe8, 0x616479)\n        /* \"#utility.yul\":4905:4907   */\n      0x60\n        /* \"#utility.yul\":4890:4908   */\n      dup3\n      add\n        /* \"#utility.yul\":4883:4916   */\n      mstore\n        /* \"#utility.yul\":4948:4951   */\n      0x80\n        /* \"#utility.yul\":4933:4952   */\n      add\n      swap1\n        /* \"#utility.yul\":4733:4958   */\n      jump\t// out\n        /* \"#utility.yul\":4963:5319   */\n    tag_180:\n        /* \"#utility.yul\":5165:5167   */\n      0x20\n        /* \"#utility.yul\":5147:5168   */\n      dup1\n      dup3\n      mstore\n        /* \"#utility.yul\":5184:5202   */\n      dup2\n      dup2\n      add\n        /* \"#utility.yul\":5177:5207   */\n      mstore\n        /* \"#utility.yul\":5243:5277   */\n      0x4f776e61626c653a2063616c6c6572206973206e6f7420746865206f776e6572\n        /* \"#utility.yul\":5238:5240   */\n      0x40\n        /* \"#utility.yul\":5223:5241   */\n      dup3\n      add\n        /* \"#utility.yul\":5216:5278   */\n      mstore\n        /* \"#utility.yul\":5310:5312   */\n      0x60\n        /* \"#utility.yul\":5295:5313   */\n      add\n      swap1\n        /* \"#utility.yul\":5137:5319   */\n      jump\t// out\n        /* \"#utility.yul\":5324:5725   */\n    tag_116:\n        /* \"#utility.yul\":5526:5528   */\n      0x20\n        /* \"#utility.yul\":5508:5529   */\n      dup1\n      dup3\n      mstore\n        /* \"#utility.yul\":5565:5567   */\n      0x25\n        /* \"#utility.yul\":5545:5563   */\n      swap1\n      dup3\n      add\n        /* \"#utility.yul\":5538:5568   */\n      mstore\n        /* \"#utility.yul\":5604:5638   */\n      0x69735374616b65686f6c646572206d757374206265207472756520666f722053\n        /* \"#utility.yul\":5599:5601   */\n      0x40\n        /* \"#utility.yul\":5584:5602   */\n      dup3\n      add\n        /* \"#utility.yul\":5577:5639   */\n      mstore\n      shl(0xd9, 0x32b73232b9)\n        /* \"#utility.yul\":5670:5672   */\n      0x60\n        /* \"#utility.yul\":5655:5673   */\n      dup3\n      add\n        /* \"#utility.yul\":5648:5683   */\n      mstore\n        /* \"#utility.yul\":5715:5718   */\n      0x80\n        /* \"#utility.yul\":5700:5719   */\n      add\n      swap1\n        /* \"#utility.yul\":5498:5725   */\n      jump\t// out\n        /* \"#utility.yul\":5730:6133   */\n    tag_184:\n        /* \"#utility.yul\":5932:5934   */\n      0x20\n        /* \"#utility.yul\":5914:5935   */\n      dup1\n      dup3\n      mstore\n        /* \"#utility.yul\":5971:5973   */\n      0x27\n        /* \"#utility.yul\":5951:5969   */\n      swap1\n      dup3\n      add\n        /* \"#utility.yul\":5944:5974   */\n      mstore\n        /* \"#utility.yul\":6010:6044   */\n      0x41646472657373206d757374206e6f742062652077686974656c697374656420\n        /* \"#utility.yul\":6005:6007   */\n      0x40\n        /* \"#utility.yul\":5990:6008   */\n      dup3\n      add\n        /* \"#utility.yul\":5983:6045   */\n      mstore\n      shl(0xc8, 0x616c7265616479)\n        /* \"#utility.yul\":6076:6078   */\n      0x60\n        /* \"#utility.yul\":6061:6079   */\n      dup3\n      add\n        /* \"#utility.yul\":6054:6091   */\n      mstore\n        /* \"#utility.yul\":6123:6126   */\n      0x80\n        /* \"#utility.yul\":6108:6127   */\n      add\n      swap1\n        /* \"#utility.yul\":5904:6133   */\n      jump\t// out\n        /* \"#utility.yul\":6138:6490   */\n    tag_233:\n        /* \"#utility.yul\":6340:6342   */\n      0x20\n        /* \"#utility.yul\":6322:6343   */\n      dup1\n      dup3\n      mstore\n        /* \"#utility.yul\":6379:6381   */\n      0x1c\n        /* \"#utility.yul\":6359:6377   */\n      swap1\n      dup3\n      add\n        /* \"#utility.yul\":6352:6382   */\n      mstore\n        /* \"#utility.yul\":6418:6448   */\n      0x6e6f7420656e6f75676820746f6b656e7320746f206465706f73697400000000\n        /* \"#utility.yul\":6413:6415   */\n      0x40\n        /* \"#utility.yul\":6398:6416   */\n      dup3\n      add\n        /* \"#utility.yul\":6391:6449   */\n      mstore\n        /* \"#utility.yul\":6481:6483   */\n      0x60\n        /* \"#utility.yul\":6466:6484   */\n      add\n      swap1\n        /* \"#utility.yul\":6312:6490   */\n      jump\t// out\n        /* \"#utility.yul\":6495:6915   */\n    tag_163:\n        /* \"#utility.yul\":6697:6699   */\n      0x20\n        /* \"#utility.yul\":6679:6700   */\n      dup1\n      dup3\n      mstore\n        /* \"#utility.yul\":6736:6738   */\n      0x38\n        /* \"#utility.yul\":6716:6734   */\n      swap1\n      dup3\n      add\n        /* \"#utility.yul\":6709:6739   */\n      mstore\n        /* \"#utility.yul\":6775:6809   */\n      0x6e6f7420656e6f75676820746f6b656e7320696e207468652066726565207374\n        /* \"#utility.yul\":6770:6772   */\n      0x40\n        /* \"#utility.yul\":6755:6773   */\n      dup3\n      add\n        /* \"#utility.yul\":6748:6810   */\n      mstore\n        /* \"#utility.yul\":6846:6872   */\n      0x616b65642062616c616e636520746f2077697468647261770000000000000000\n        /* \"#utility.yul\":6841:6843   */\n      0x60\n        /* \"#utility.yul\":6826:6844   */\n      dup3\n      add\n        /* \"#utility.yul\":6819:6873   */\n      mstore\n        /* \"#utility.yul\":6905:6908   */\n      0x80\n        /* \"#utility.yul\":6890:6909   */\n      add\n      swap1\n        /* \"#utility.yul\":6669:6915   */\n      jump\t// out\n        /* \"#utility.yul\":6920:7097   */\n    tag_41:\n        /* \"#utility.yul\":7066:7091   */\n      swap1\n      dup2\n      mstore\n        /* \"#utility.yul\":7054:7056   */\n      0x20\n        /* \"#utility.yul\":7039:7057   */\n      add\n      swap1\n        /* \"#utility.yul\":7021:7097   */\n      jump\t// out\n        /* \"#utility.yul\":7102:7421   */\n    tag_54:\n        /* \"#utility.yul\":7304:7329   */\n      swap3\n      dup4\n      mstore\n        /* \"#utility.yul\":7360:7362   */\n      0x20\n        /* \"#utility.yul\":7345:7363   */\n      dup4\n      add\n        /* \"#utility.yul\":7338:7372   */\n      swap2\n      swap1\n      swap2\n      mstore\n        /* \"#utility.yul\":7403:7405   */\n      0x40\n        /* \"#utility.yul\":7388:7406   */\n      dup3\n      add\n        /* \"#utility.yul\":7381:7415   */\n      mstore\n        /* \"#utility.yul\":7292:7294   */\n      0x60\n        /* \"#utility.yul\":7277:7295   */\n      add\n      swap1\n        /* \"#utility.yul\":7259:7421   */\n      jump\t// out\n        /* \"#utility.yul\":7426:7554   */\n    tag_144:\n      0x00\n        /* \"#utility.yul\":7497:7498   */\n      dup3\n        /* \"#utility.yul\":7493:7499   */\n      not\n        /* \"#utility.yul\":7490:7491   */\n      dup3\n        /* \"#utility.yul\":7487:7500   */\n      gt\n        /* \"#utility.yul\":7484:7486   */\n      iszero\n      tag_318\n      jumpi\n        /* \"#utility.yul\":7503:7521   */\n      tag_318\n      tag_319\n      jump\t// in\n    tag_318:\n      pop\n        /* \"#utility.yul\":7539:7548   */\n      add\n      swap1\n        /* \"#utility.yul\":7474:7554   */\n      jump\t// out\n        /* \"#utility.yul\":7559:7684   */\n    tag_173:\n      0x00\n        /* \"#utility.yul\":7627:7628   */\n      dup3\n        /* \"#utility.yul\":7624:7625   */\n      dup3\n        /* \"#utility.yul\":7621:7629   */\n      lt\n        /* \"#utility.yul\":7618:7620   */\n      iszero\n      tag_322\n      jumpi\n        /* \"#utility.yul\":7632:7650   */\n      tag_322\n      tag_319\n      jump\t// in\n    tag_322:\n      pop\n        /* \"#utility.yul\":7669:7678   */\n      sub\n      swap1\n        /* \"#utility.yul\":7608:7684   */\n      jump\t// out\n        /* \"#utility.yul\":7689:7816   */\n    tag_319:\n        /* \"#utility.yul\":7750:7760   */\n      0x4e487b71\n        /* \"#utility.yul\":7745:7748   */\n      0xe0\n        /* \"#utility.yul\":7741:7761   */\n      shl\n        /* \"#utility.yul\":7738:7739   */\n      0x00\n        /* \"#utility.yul\":7731:7762   */\n      mstore\n        /* \"#utility.yul\":7781:7785   */\n      0x11\n        /* \"#utility.yul\":7778:7779   */\n      0x04\n        /* \"#utility.yul\":7771:7786   */\n      mstore\n        /* \"#utility.yul\":7805:7809   */\n      0x24\n        /* \"#utility.yul\":7802:7803   */\n      0x00\n        /* \"#utility.yul\":7795:7810   */\n      revert\n\n    auxdata: 0xa2646970667358221220e150a3989e6754ce22286b43b8aebd1f4b52d30a11ba85e6a71d5a9321c7151464736f6c63430008000033\n}\n",
				"bytecode": {
					"linkReferences": {},
					"object": "608060405234801561001057600080fd5b5060405161146038038061146083398101604081905261002f916100b8565b61003f61003a610064565b610068565b600180546001600160a01b0319166001600160a01b03929092169190911790556100e6565b3390565b600080546001600160a01b038381166001600160a01b0319831681178455604051919092169283917f8be0079c531659141344cd1fd0a4f28419497f9722a3daafe3b4186f6b6457e09190a35050565b6000602082840312156100c9578081fd5b81516001600160a01b03811681146100df578182fd5b9392505050565b61136b806100f56000396000f3fe608060405234801561001057600080fd5b50600436106101425760003560e01c8063853828b6116100b8578063cbdce4e01161007c578063cbdce4e014610279578063e67719bd1461028c578063ef037b901461029f578063f20e8b12146102b2578063f2fde38b146102c5578063fc0c546a146102d857610142565b8063853828b6146102205780638aed0feb146102285780638da5cb5b14610230578063b6b55f2514610245578063bd0bb4f61461025857610142565b806327e235e31161010a57806327e235e3146101b55780632e1a7d4d146101d757806338eada1c146101ea5780634ba79dfe146101fd5780636a40cbb614610210578063715018a61461021857610142565b8063112b32661461014757806312b6887c1461017057806314bee5a514610183578063227a473b1461019857806323cc9f37146101ad575b600080fd5b61015a610155366004610f73565b6102e0565b6040516101679190610fef565b60405180910390f35b61015a61017e366004610f73565b6103ed565b61018b6104ed565b60405161016791906112d1565b6101ab6101a6366004610f43565b610572565b005b61018b6105fe565b6101c86101c3366004610f09565b61067d565b604051610167939291906112da565b6101ab6101e5366004610f43565b61069e565b6101ab6101f8366004610f09565b610781565b6101ab61020b366004610f09565b61085e565b6101ab610922565b6101ab610962565b6101ab6109ad565b61018b610a74565b610238610af0565b6040516101679190610f9e565b6101ab610253366004610f43565b610aff565b61026b610266366004610f09565b610c53565b604051610167929190610ffa565b61018b610287366004610f09565b610cce565b61015a61029a366004610f09565b610cf0565b61015a6102ad366004610f09565b610d0e565b61018b6102c0366004610f09565b610d81565b6101ab6102d3366004610f09565b610d9f565b610238610e0d565b60006102eb33610cf0565b6103105760405162461bcd60e51b81526004016103079061109e565b60405180910390fd5b61031982610d0e565b6103355760405162461bcd60e51b8152600401610307906111b1565b6001600160a01b0382166000908152600360205260409020600201548311156103705760405162461bcd60e51b8152600401610307906110e8565b6001600160a01b0382166000908152600360205260409020600201546103969084610e1c565b6001600160a01b03831660009081526003602052604090206002810191909155600101546103c49084610e2f565b6001600160a01b0383166000908152600360205260409020600190810191909155905092915050565b60006103f833610cf0565b6104145760405162461bcd60e51b81526004016103079061109e565b61041d82610d0e565b6104395760405162461bcd60e51b8152600401610307906111b1565b6001600160a01b0382166000908152600360205260409020600101548311156104745760405162461bcd60e51b81526004016103079061100a565b6001600160a01b03821660009081526003602052604090206001015461049a9084610e1c565b6001600160a01b03831660009081526003602052604090206001810191909155600201546104c89084610e2f565b6001600160a01b03831660009081526003602052604090206002015550600192915050565b600080805b60025481101561056c5760006002828154811061051f57634e487b7160e01b600052603260045260246000fd5b60009182526020808320909101546001600160a01b031680835260039091526040909120600201549091506105548482610e2f565b9350505060018161056591906112f0565b90506104f2565b50905090565b3360009081526003602052604090205481111561058e57600080fd5b336000908152600360205260409020600101546105ae576105ae33610e3b565b336000908152600360205260409020546105c89082610e1c565b336000908152600360205260409020908155600101546105e89082610e2f565b3360009081526003602052604090206001015550565b600080805b60025481101561056c5760006002828154811061063057634e487b7160e01b600052603260045260246000fd5b60009182526020808320909101546001600160a01b031680835260039091526040909120600101549091506106658482610e2f565b9350505060018161067691906112f0565b9050610603565b60036020526000908152604090208054600182015460029092015490919083565b336000908152600360205260409020548111156106cd5760405162461bcd60e51b815260040161030790611274565b60015460405163a9059cbb60e01b81526001600160a01b039091169063a9059cbb906106ff9033908590600401610fd6565b602060405180830381600087803b15801561071957600080fd5b505af115801561072d573d6000803e3d6000fd5b505050506040513d601f19601f820116820180604052508101906107519190610f23565b61075a57600080fd5b3360009081526003602052604081208054839290610779908490611308565b909155505050565b610789610e9e565b6001600160a01b031661079a610af0565b6001600160a01b0316146107c05760405162461bcd60e51b81526004016103079061117c565b6001600160a01b03811660009081526004602052604090205460ff161515600114156107fe5760405162461bcd60e51b8152600401610307906111f6565b6001600160a01b03811660008181526004602052604090819020805460ff1916600190811790915590517f34e57d3e15d2174a31aed19b5a635aad3c7fd6d6ff6b19d43f56819654e990fd9161085391610fef565b60405180910390a250565b610866610e9e565b6001600160a01b0316610877610af0565b6001600160a01b03161461089d5760405162461bcd60e51b81526004016103079061117c565b6001600160a01b03811660009081526004602052604090205460ff166108d55760405162461bcd60e51b815260040161030790611139565b6001600160a01b038116600081815260046020526040808220805460ff19169055517fc87598b69899c8b872e8b5e416808d7332fe62ed4f035f7e72ae6f646e12f73f9161085391610fef565b336000908152600360205260409020600181015490546109429082610e2f565b336000908152600360205260409020908155600101546105e89082610e1c565b61096a610e9e565b6001600160a01b031661097b610af0565b6001600160a01b0316146109a15760405162461bcd60e51b81526004016103079061117c565b6109ab6000610ea2565b565b336000908152600360205260409020546109c657600080fd5b600154336000818152600360205260409081902054905163a9059cbb60e01b81526001600160a01b039093169263a9059cbb92610a07929091600401610fd6565b602060405180830381600087803b158015610a2157600080fd5b505af1158015610a35573d6000803e3d6000fd5b505050506040513d601f19601f82011682018060405250810190610a599190610f23565b610a6257600080fd5b33600090815260036020526040812055565b600080805b60025481101561056c57600060028281548110610aa657634e487b7160e01b600052603260045260246000fd5b60009182526020808320909101546001600160a01b03168083526003909152604090912054909150610ad88482610e2f565b93505050600181610ae991906112f0565b9050610a79565b6000546001600160a01b031690565b6001546040516370a0823160e01b815282916001600160a01b0316906370a0823190610b2f903390600401610f9e565b60206040518083038186803b158015610b4757600080fd5b505afa158015610b5b573d6000803e3d6000fd5b505050506040513d601f19601f82011682018060405250810190610b7f9190610f5b565b1015610b9d5760405162461bcd60e51b81526004016103079061123d565b3360009081526003602052604081208054839290610bbc9084906112f0565b90915550506001546040516323b872dd60e01b81526001600160a01b03909116906323b872dd90610bf590339030908690600401610fb2565b602060405180830381600087803b158015610c0f57600080fd5b505af1158015610c23573d6000803e3d6000fd5b505050506040513d601f19601f82011682018060405250810190610c479190610f23565b610c5057600080fd5b50565b60008060005b600254811015610cc05760028181548110610c8457634e487b7160e01b600052603260045260246000fd5b6000918252602090912001546001600160a01b0385811691161415610cae57600192509050610cc9565b610cb96001826112f0565b9050610c59565b50600080915091505b915091565b6001600160a01b0381166000908152600360205260409020600101545b919050565b6001600160a01b031660009081526004602052604090205460ff1690565b6000805b600254811015610d785760028181548110610d3d57634e487b7160e01b600052603260045260246000fd5b6000918252602090912001546001600160a01b0384811691161415610d66576001915050610ceb565b610d716001826112f0565b9050610d12565b50600092915050565b6001600160a01b031660009081526003602052604090206002015490565b610da7610e9e565b6001600160a01b0316610db8610af0565b6001600160a01b031614610dde5760405162461bcd60e51b81526004016103079061117c565b6001600160a01b038116610e045760405162461bcd60e51b815260040161030790611058565b610c5081610ea2565b6001546001600160a01b031681565b6000610e288284611308565b9392505050565b6000610e2882846112f0565b6000610e4682610c53565b50905080610e9a57600280546001810182556000919091527f405787fa12a823e0f2b7631cc41b3ba8828b3321ca811111fa75cd3aa3bb5ace0180546001600160a01b0319166001600160a01b0384161790555b5050565b3390565b600080546001600160a01b038381166001600160a01b0319831681178455604051919092169283917f8be0079c531659141344cd1fd0a4f28419497f9722a3daafe3b4186f6b6457e09190a35050565b80356001600160a01b0381168114610ceb57600080fd5b600060208284031215610f1a578081fd5b610e2882610ef2565b600060208284031215610f34578081fd5b81518015158114610e28578182fd5b600060208284031215610f54578081fd5b5035919050565b600060208284031215610f6c578081fd5b5051919050565b60008060408385031215610f85578081fd5b82359150610f9560208401610ef2565b90509250929050565b6001600160a01b0391909116815260200190565b6001600160a01b039384168152919092166020820152604081019190915260600190565b6001600160a01b03929092168252602082015260400190565b901515815260200190565b9115158252602082015260400190565b6020808252602e908201527f5f7374616b65686f6c6465722068617320746f206861766520656e6f7567682060408201526d7374616b65642062616c616e636560901b606082015260800190565b60208082526026908201527f4f776e61626c653a206e6577206f776e657220697320746865207a65726f206160408201526564647265737360d01b606082015260800190565b6020808252602a908201527f69735374616b6557686974656c6973746564206d7573742062652074727565206040820152693337b91029b2b73232b960b11b606082015260800190565b60208082526031908201527f5f7374616b65686f6c6465722068617320746f206861766520656e6f75676820604082015270616c6c6f63617465642062616c616e636560781b606082015260800190565b60208082526023908201527f41646472657373206d7573742062652077686974656c697374656420616c726560408201526261647960e81b606082015260800190565b6020808252818101527f4f776e61626c653a2063616c6c6572206973206e6f7420746865206f776e6572604082015260600190565b60208082526025908201527f69735374616b65686f6c646572206d757374206265207472756520666f72205360408201526432b73232b960d91b606082015260800190565b60208082526027908201527f41646472657373206d757374206e6f742062652077686974656c697374656420604082015266616c726561647960c81b606082015260800190565b6020808252601c908201527f6e6f7420656e6f75676820746f6b656e7320746f206465706f73697400000000604082015260600190565b60208082526038908201527f6e6f7420656e6f75676820746f6b656e7320696e20746865206672656520737460408201527f616b65642062616c616e636520746f2077697468647261770000000000000000606082015260800190565b90815260200190565b9283526020830191909152604082015260600190565b600082198211156113035761130361131f565b500190565b60008282101561131a5761131a61131f565b500390565b634e487b7160e01b600052601160045260246000fdfea2646970667358221220e150a3989e6754ce22286b43b8aebd1f4b52d30a11ba85e6a71d5a9321c7151464736f6c63430008000033",
					"opcodes": "PUSH1 0x80 PUSH1 0x40 MSTORE CALLVALUE DUP1 ISZERO PUSH2 0x10 JUMPI PUSH1 0x0 DUP1 REVERT JUMPDEST POP PUSH1 0x40 MLOAD PUSH2 0x1460 CODESIZE SUB DUP1 PUSH2 0x1460 DUP4 CODECOPY DUP2 ADD PUSH1 0x40 DUP2 SWAP1 MSTORE PUSH2 0x2F SWAP2 PUSH2 0xB8 JUMP JUMPDEST PUSH2 0x3F PUSH2 0x3A PUSH2 0x64 JUMP JUMPDEST PUSH2 0x68 JUMP JUMPDEST PUSH1 0x1 DUP1 SLOAD PUSH1 0x1 PUSH1 0x1 PUSH1 0xA0 SHL SUB NOT AND PUSH1 0x1 PUSH1 0x1 PUSH1 0xA0 SHL SUB SWAP3 SWAP1 SWAP3 AND SWAP2 SWAP1 SWAP2 OR SWAP1 SSTORE PUSH2 0xE6 JUMP JUMPDEST CALLER SWAP1 JUMP JUMPDEST PUSH1 0x0 DUP1 SLOAD PUSH1 0x1 PUSH1 0x1 PUSH1 0xA0 SHL SUB DUP4 DUP2 AND PUSH1 0x1 PUSH1 0x1 PUSH1 0xA0 SHL SUB NOT DUP4 AND DUP2 OR DUP5 SSTORE PUSH1 0x40 MLOAD SWAP2 SWAP1 SWAP3 AND SWAP3 DUP4 SWAP2 PUSH32 0x8BE0079C531659141344CD1FD0A4F28419497F9722A3DAAFE3B4186F6B6457E0 SWAP2 SWAP1 LOG3 POP POP JUMP JUMPDEST PUSH1 0x0 PUSH1 0x20 DUP3 DUP5 SUB SLT ISZERO PUSH2 0xC9 JUMPI DUP1 DUP2 REVERT JUMPDEST DUP2 MLOAD PUSH1 0x1 PUSH1 0x1 PUSH1 0xA0 SHL SUB DUP2 AND DUP2 EQ PUSH2 0xDF JUMPI DUP2 DUP3 REVERT JUMPDEST SWAP4 SWAP3 POP POP POP JUMP JUMPDEST PUSH2 0x136B DUP1 PUSH2 0xF5 PUSH1 0x0 CODECOPY PUSH1 0x0 RETURN INVALID PUSH1 0x80 PUSH1 0x40 MSTORE CALLVALUE DUP1 ISZERO PUSH2 0x10 JUMPI PUSH1 0x0 DUP1 REVERT JUMPDEST POP PUSH1 0x4 CALLDATASIZE LT PUSH2 0x142 JUMPI PUSH1 0x0 CALLDATALOAD PUSH1 0xE0 SHR DUP1 PUSH4 0x853828B6 GT PUSH2 0xB8 JUMPI DUP1 PUSH4 0xCBDCE4E0 GT PUSH2 0x7C JUMPI DUP1 PUSH4 0xCBDCE4E0 EQ PUSH2 0x279 JUMPI DUP1 PUSH4 0xE67719BD EQ PUSH2 0x28C JUMPI DUP1 PUSH4 0xEF037B90 EQ PUSH2 0x29F JUMPI DUP1 PUSH4 0xF20E8B12 EQ PUSH2 0x2B2 JUMPI DUP1 PUSH4 0xF2FDE38B EQ PUSH2 0x2C5 JUMPI DUP1 PUSH4 0xFC0C546A EQ PUSH2 0x2D8 JUMPI PUSH2 0x142 JUMP JUMPDEST DUP1 PUSH4 0x853828B6 EQ PUSH2 0x220 JUMPI DUP1 PUSH4 0x8AED0FEB EQ PUSH2 0x228 JUMPI DUP1 PUSH4 0x8DA5CB5B EQ PUSH2 0x230 JUMPI DUP1 PUSH4 0xB6B55F25 EQ PUSH2 0x245 JUMPI DUP1 PUSH4 0xBD0BB4F6 EQ PUSH2 0x258 JUMPI PUSH2 0x142 JUMP JUMPDEST DUP1 PUSH4 0x27E235E3 GT PUSH2 0x10A JUMPI DUP1 PUSH4 0x27E235E3 EQ PUSH2 0x1B5 JUMPI DUP1 PUSH4 0x2E1A7D4D EQ PUSH2 0x1D7 JUMPI DUP1 PUSH4 0x38EADA1C EQ PUSH2 0x1EA JUMPI DUP1 PUSH4 0x4BA79DFE EQ PUSH2 0x1FD JUMPI DUP1 PUSH4 0x6A40CBB6 EQ PUSH2 0x210 JUMPI DUP1 PUSH4 0x715018A6 EQ PUSH2 0x218 JUMPI PUSH2 0x142 JUMP JUMPDEST DUP1 PUSH4 0x112B3266 EQ PUSH2 0x147 JUMPI DUP1 PUSH4 0x12B6887C EQ PUSH2 0x170 JUMPI DUP1 PUSH4 0x14BEE5A5 EQ PUSH2 0x183 JUMPI DUP1 PUSH4 0x227A473B EQ PUSH2 0x198 JUMPI DUP1 PUSH4 0x23CC9F37 EQ PUSH2 0x1AD JUMPI JUMPDEST PUSH1 0x0 DUP1 REVERT JUMPDEST PUSH2 0x15A PUSH2 0x155 CALLDATASIZE PUSH1 0x4 PUSH2 0xF73 JUMP JUMPDEST PUSH2 0x2E0 JUMP JUMPDEST PUSH1 0x40 MLOAD PUSH2 0x167 SWAP2 SWAP1 PUSH2 0xFEF JUMP JUMPDEST PUSH1 0x40 MLOAD DUP1 SWAP2 SUB SWAP1 RETURN JUMPDEST PUSH2 0x15A PUSH2 0x17E CALLDATASIZE PUSH1 0x4 PUSH2 0xF73 JUMP JUMPDEST PUSH2 0x3ED JUMP JUMPDEST PUSH2 0x18B PUSH2 0x4ED JUMP JUMPDEST PUSH1 0x40 MLOAD PUSH2 0x167 SWAP2 SWAP1 PUSH2 0x12D1 JUMP JUMPDEST PUSH2 0x1AB PUSH2 0x1A6 CALLDATASIZE PUSH1 0x4 PUSH2 0xF43 JUMP JUMPDEST PUSH2 0x572 JUMP JUMPDEST STOP JUMPDEST PUSH2 0x18B PUSH2 0x5FE JUMP JUMPDEST PUSH2 0x1C8 PUSH2 0x1C3 CALLDATASIZE PUSH1 0x4 PUSH2 0xF09 JUMP JUMPDEST PUSH2 0x67D JUMP JUMPDEST PUSH1 0x40 MLOAD PUSH2 0x167 SWAP4 SWAP3 SWAP2 SWAP1 PUSH2 0x12DA JUMP JUMPDEST PUSH2 0x1AB PUSH2 0x1E5 CALLDATASIZE PUSH1 0x4 PUSH2 0xF43 JUMP JUMPDEST PUSH2 0x69E JUMP JUMPDEST PUSH2 0x1AB PUSH2 0x1F8 CALLDATASIZE PUSH1 0x4 PUSH2 0xF09 JUMP JUMPDEST PUSH2 0x781 JUMP JUMPDEST PUSH2 0x1AB PUSH2 0x20B CALLDATASIZE PUSH1 0x4 PUSH2 0xF09 JUMP JUMPDEST PUSH2 0x85E JUMP JUMPDEST PUSH2 0x1AB PUSH2 0x922 JUMP JUMPDEST PUSH2 0x1AB PUSH2 0x962 JUMP JUMPDEST PUSH2 0x1AB PUSH2 0x9AD JUMP JUMPDEST PUSH2 0x18B PUSH2 0xA74 JUMP JUMPDEST PUSH2 0x238 PUSH2 0xAF0 JUMP JUMPDEST PUSH1 0x40 MLOAD PUSH2 0x167 SWAP2 SWAP1 PUSH2 0xF9E JUMP JUMPDEST PUSH2 0x1AB PUSH2 0x253 CALLDATASIZE PUSH1 0x4 PUSH2 0xF43 JUMP JUMPDEST PUSH2 0xAFF JUMP JUMPDEST PUSH2 0x26B PUSH2 0x266 CALLDATASIZE PUSH1 0x4 PUSH2 0xF09 JUMP JUMPDEST PUSH2 0xC53 JUMP JUMPDEST PUSH1 0x40 MLOAD PUSH2 0x167 SWAP3 SWAP2 SWAP1 PUSH2 0xFFA JUMP JUMPDEST PUSH2 0x18B PUSH2 0x287 CALLDATASIZE PUSH1 0x4 PUSH2 0xF09 JUMP JUMPDEST PUSH2 0xCCE JUMP JUMPDEST PUSH2 0x15A PUSH2 0x29A CALLDATASIZE PUSH1 0x4 PUSH2 0xF09 JUMP JUMPDEST PUSH2 0xCF0 JUMP JUMPDEST PUSH2 0x15A PUSH2 0x2AD CALLDATASIZE PUSH1 0x4 PUSH2 0xF09 JUMP JUMPDEST PUSH2 0xD0E JUMP JUMPDEST PUSH2 0x18B PUSH2 0x2C0 CALLDATASIZE PUSH1 0x4 PUSH2 0xF09 JUMP JUMPDEST PUSH2 0xD81 JUMP JUMPDEST PUSH2 0x1AB PUSH2 0x2D3 CALLDATASIZE PUSH1 0x4 PUSH2 0xF09 JUMP JUMPDEST PUSH2 0xD9F JUMP JUMPDEST PUSH2 0x238 PUSH2 0xE0D JUMP JUMPDEST PUSH1 0x0 PUSH2 0x2EB CALLER PUSH2 0xCF0 JUMP JUMPDEST PUSH2 0x310 JUMPI PUSH1 0x40 MLOAD PUSH3 0x461BCD PUSH1 0xE5 SHL DUP2 MSTORE PUSH1 0x4 ADD PUSH2 0x307 SWAP1 PUSH2 0x109E JUMP JUMPDEST PUSH1 0x40 MLOAD DUP1 SWAP2 SUB SWAP1 REVERT JUMPDEST PUSH2 0x319 DUP3 PUSH2 0xD0E JUMP JUMPDEST PUSH2 0x335 JUMPI PUSH1 0x40 MLOAD PUSH3 0x461BCD PUSH1 0xE5 SHL DUP2 MSTORE PUSH1 0x4 ADD PUSH2 0x307 SWAP1 PUSH2 0x11B1 JUMP JUMPDEST PUSH1 0x1 PUSH1 0x1 PUSH1 0xA0 SHL SUB DUP3 AND PUSH1 0x0 SWAP1 DUP2 MSTORE PUSH1 0x3 PUSH1 0x20 MSTORE PUSH1 0x40 SWAP1 KECCAK256 PUSH1 0x2 ADD SLOAD DUP4 GT ISZERO PUSH2 0x370 JUMPI PUSH1 0x40 MLOAD PUSH3 0x461BCD PUSH1 0xE5 SHL DUP2 MSTORE PUSH1 0x4 ADD PUSH2 0x307 SWAP1 PUSH2 0x10E8 JUMP JUMPDEST PUSH1 0x1 PUSH1 0x1 PUSH1 0xA0 SHL SUB DUP3 AND PUSH1 0x0 SWAP1 DUP2 MSTORE PUSH1 0x3 PUSH1 0x20 MSTORE PUSH1 0x40 SWAP1 KECCAK256 PUSH1 0x2 ADD SLOAD PUSH2 0x396 SWAP1 DUP5 PUSH2 0xE1C JUMP JUMPDEST PUSH1 0x1 PUSH1 0x1 PUSH1 0xA0 SHL SUB DUP4 AND PUSH1 0x0 SWAP1 DUP2 MSTORE PUSH1 0x3 PUSH1 0x20 MSTORE PUSH1 0x40 SWAP1 KECCAK256 PUSH1 0x2 DUP2 ADD SWAP2 SWAP1 SWAP2 SSTORE PUSH1 0x1 ADD SLOAD PUSH2 0x3C4 SWAP1 DUP5 PUSH2 0xE2F JUMP JUMPDEST PUSH1 0x1 PUSH1 0x1 PUSH1 0xA0 SHL SUB DUP4 AND PUSH1 0x0 SWAP1 DUP2 MSTORE PUSH1 0x3 PUSH1 0x20 MSTORE PUSH1 0x40 SWAP1 KECCAK256 PUSH1 0x1 SWAP1 DUP2 ADD SWAP2 SWAP1 SWAP2 SSTORE SWAP1 POP SWAP3 SWAP2 POP POP JUMP JUMPDEST PUSH1 0x0 PUSH2 0x3F8 CALLER PUSH2 0xCF0 JUMP JUMPDEST PUSH2 0x414 JUMPI PUSH1 0x40 MLOAD PUSH3 0x461BCD PUSH1 0xE5 SHL DUP2 MSTORE PUSH1 0x4 ADD PUSH2 0x307 SWAP1 PUSH2 0x109E JUMP JUMPDEST PUSH2 0x41D DUP3 PUSH2 0xD0E JUMP JUMPDEST PUSH2 0x439 JUMPI PUSH1 0x40 MLOAD PUSH3 0x461BCD PUSH1 0xE5 SHL DUP2 MSTORE PUSH1 0x4 ADD PUSH2 0x307 SWAP1 PUSH2 0x11B1 JUMP JUMPDEST PUSH1 0x1 PUSH1 0x1 PUSH1 0xA0 SHL SUB DUP3 AND PUSH1 0x0 SWAP1 DUP2 MSTORE PUSH1 0x3 PUSH1 0x20 MSTORE PUSH1 0x40 SWAP1 KECCAK256 PUSH1 0x1 ADD SLOAD DUP4 GT ISZERO PUSH2 0x474 JUMPI PUSH1 0x40 MLOAD PUSH3 0x461BCD PUSH1 0xE5 SHL DUP2 MSTORE PUSH1 0x4 ADD PUSH2 0x307 SWAP1 PUSH2 0x100A JUMP JUMPDEST PUSH1 0x1 PUSH1 0x1 PUSH1 0xA0 SHL SUB DUP3 AND PUSH1 0x0 SWAP1 DUP2 MSTORE PUSH1 0x3 PUSH1 0x20 MSTORE PUSH1 0x40 SWAP1 KECCAK256 PUSH1 0x1 ADD SLOAD PUSH2 0x49A SWAP1 DUP5 PUSH2 0xE1C JUMP JUMPDEST PUSH1 0x1 PUSH1 0x1 PUSH1 0xA0 SHL SUB DUP4 AND PUSH1 0x0 SWAP1 DUP2 MSTORE PUSH1 0x3 PUSH1 0x20 MSTORE PUSH1 0x40 SWAP1 KECCAK256 PUSH1 0x1 DUP2 ADD SWAP2 SWAP1 SWAP2 SSTORE PUSH1 0x2 ADD SLOAD PUSH2 0x4C8 SWAP1 DUP5 PUSH2 0xE2F JUMP JUMPDEST PUSH1 0x1 PUSH1 0x1 PUSH1 0xA0 SHL SUB DUP4 AND PUSH1 0x0 SWAP1 DUP2 MSTORE PUSH1 0x3 PUSH1 0x20 MSTORE PUSH1 0x40 SWAP1 KECCAK256 PUSH1 0x2 ADD SSTORE POP PUSH1 0x1 SWAP3 SWAP2 POP POP JUMP JUMPDEST PUSH1 0x0 DUP1 DUP1 JUMPDEST PUSH1 0x2 SLOAD DUP2 LT ISZERO PUSH2 0x56C JUMPI PUSH1 0x0 PUSH1 0x2 DUP3 DUP2 SLOAD DUP2 LT PUSH2 0x51F JUMPI PUSH4 0x4E487B71 PUSH1 0xE0 SHL PUSH1 0x0 MSTORE PUSH1 0x32 PUSH1 0x4 MSTORE PUSH1 0x24 PUSH1 0x0 REVERT JUMPDEST PUSH1 0x0 SWAP2 DUP3 MSTORE PUSH1 0x20 DUP1 DUP4 KECCAK256 SWAP1 SWAP2 ADD SLOAD PUSH1 0x1 PUSH1 0x1 PUSH1 0xA0 SHL SUB AND DUP1 DUP4 MSTORE PUSH1 0x3 SWAP1 SWAP2 MSTORE PUSH1 0x40 SWAP1 SWAP2 KECCAK256 PUSH1 0x2 ADD SLOAD SWAP1 SWAP2 POP PUSH2 0x554 DUP5 DUP3 PUSH2 0xE2F JUMP JUMPDEST SWAP4 POP POP POP PUSH1 0x1 DUP2 PUSH2 0x565 SWAP2 SWAP1 PUSH2 0x12F0 JUMP JUMPDEST SWAP1 POP PUSH2 0x4F2 JUMP JUMPDEST POP SWAP1 POP SWAP1 JUMP JUMPDEST CALLER PUSH1 0x0 SWAP1 DUP2 MSTORE PUSH1 0x3 PUSH1 0x20 MSTORE PUSH1 0x40 SWAP1 KECCAK256 SLOAD DUP2 GT ISZERO PUSH2 0x58E JUMPI PUSH1 0x0 DUP1 REVERT JUMPDEST CALLER PUSH1 0x0 SWAP1 DUP2 MSTORE PUSH1 0x3 PUSH1 0x20 MSTORE PUSH1 0x40 SWAP1 KECCAK256 PUSH1 0x1 ADD SLOAD PUSH2 0x5AE JUMPI PUSH2 0x5AE CALLER PUSH2 0xE3B JUMP JUMPDEST CALLER PUSH1 0x0 SWAP1 DUP2 MSTORE PUSH1 0x3 PUSH1 0x20 MSTORE PUSH1 0x40 SWAP1 KECCAK256 SLOAD PUSH2 0x5C8 SWAP1 DUP3 PUSH2 0xE1C JUMP JUMPDEST CALLER PUSH1 0x0 SWAP1 DUP2 MSTORE PUSH1 0x3 PUSH1 0x20 MSTORE PUSH1 0x40 SWAP1 KECCAK256 SWAP1 DUP2 SSTORE PUSH1 0x1 ADD SLOAD PUSH2 0x5E8 SWAP1 DUP3 PUSH2 0xE2F JUMP JUMPDEST CALLER PUSH1 0x0 SWAP1 DUP2 MSTORE PUSH1 0x3 PUSH1 0x20 MSTORE PUSH1 0x40 SWAP1 KECCAK256 PUSH1 0x1 ADD SSTORE POP JUMP JUMPDEST PUSH1 0x0 DUP1 DUP1 JUMPDEST PUSH1 0x2 SLOAD DUP2 LT ISZERO PUSH2 0x56C JUMPI PUSH1 0x0 PUSH1 0x2 DUP3 DUP2 SLOAD DUP2 LT PUSH2 0x630 JUMPI PUSH4 0x4E487B71 PUSH1 0xE0 SHL PUSH1 0x0 MSTORE PUSH1 0x32 PUSH1 0x4 MSTORE PUSH1 0x24 PUSH1 0x0 REVERT JUMPDEST PUSH1 0x0 SWAP2 DUP3 MSTORE PUSH1 0x20 DUP1 DUP4 KECCAK256 SWAP1 SWAP2 ADD SLOAD PUSH1 0x1 PUSH1 0x1 PUSH1 0xA0 SHL SUB AND DUP1 DUP4 MSTORE PUSH1 0x3 SWAP1 SWAP2 MSTORE PUSH1 0x40 SWAP1 SWAP2 KECCAK256 PUSH1 0x1 ADD SLOAD SWAP1 SWAP2 POP PUSH2 0x665 DUP5 DUP3 PUSH2 0xE2F JUMP JUMPDEST SWAP4 POP POP POP PUSH1 0x1 DUP2 PUSH2 0x676 SWAP2 SWAP1 PUSH2 0x12F0 JUMP JUMPDEST SWAP1 POP PUSH2 0x603 JUMP JUMPDEST PUSH1 0x3 PUSH1 0x20 MSTORE PUSH1 0x0 SWAP1 DUP2 MSTORE PUSH1 0x40 SWAP1 KECCAK256 DUP1 SLOAD PUSH1 0x1 DUP3 ADD SLOAD PUSH1 0x2 SWAP1 SWAP3 ADD SLOAD SWAP1 SWAP2 SWAP1 DUP4 JUMP JUMPDEST CALLER PUSH1 0x0 SWAP1 DUP2 MSTORE PUSH1 0x3 PUSH1 0x20 MSTORE PUSH1 0x40 SWAP1 KECCAK256 SLOAD DUP2 GT ISZERO PUSH2 0x6CD JUMPI PUSH1 0x40 MLOAD PUSH3 0x461BCD PUSH1 0xE5 SHL DUP2 MSTORE PUSH1 0x4 ADD PUSH2 0x307 SWAP1 PUSH2 0x1274 JUMP JUMPDEST PUSH1 0x1 SLOAD PUSH1 0x40 MLOAD PUSH4 0xA9059CBB PUSH1 0xE0 SHL DUP2 MSTORE PUSH1 0x1 PUSH1 0x1 PUSH1 0xA0 SHL SUB SWAP1 SWAP2 AND SWAP1 PUSH4 0xA9059CBB SWAP1 PUSH2 0x6FF SWAP1 CALLER SWAP1 DUP6 SWAP1 PUSH1 0x4 ADD PUSH2 0xFD6 JUMP JUMPDEST PUSH1 0x20 PUSH1 0x40 MLOAD DUP1 DUP4 SUB DUP2 PUSH1 0x0 DUP8 DUP1 EXTCODESIZE ISZERO DUP1 ISZERO PUSH2 0x719 JUMPI PUSH1 0x0 DUP1 REVERT JUMPDEST POP GAS CALL ISZERO DUP1 ISZERO PUSH2 0x72D JUMPI RETURNDATASIZE PUSH1 0x0 DUP1 RETURNDATACOPY RETURNDATASIZE PUSH1 0x0 REVERT JUMPDEST POP POP POP POP PUSH1 0x40 MLOAD RETURNDATASIZE PUSH1 0x1F NOT PUSH1 0x1F DUP3 ADD AND DUP3 ADD DUP1 PUSH1 0x40 MSTORE POP DUP2 ADD SWAP1 PUSH2 0x751 SWAP2 SWAP1 PUSH2 0xF23 JUMP JUMPDEST PUSH2 0x75A JUMPI PUSH1 0x0 DUP1 REVERT JUMPDEST CALLER PUSH1 0x0 SWAP1 DUP2 MSTORE PUSH1 0x3 PUSH1 0x20 MSTORE PUSH1 0x40 DUP2 KECCAK256 DUP1 SLOAD DUP4 SWAP3 SWAP1 PUSH2 0x779 SWAP1 DUP5 SWAP1 PUSH2 0x1308 JUMP JUMPDEST SWAP1 SWAP2 SSTORE POP POP POP JUMP JUMPDEST PUSH2 0x789 PUSH2 0xE9E JUMP JUMPDEST PUSH1 0x1 PUSH1 0x1 PUSH1 0xA0 SHL SUB AND PUSH2 0x79A PUSH2 0xAF0 JUMP JUMPDEST PUSH1 0x1 PUSH1 0x1 PUSH1 0xA0 SHL SUB AND EQ PUSH2 0x7C0 JUMPI PUSH1 0x40 MLOAD PUSH3 0x461BCD PUSH1 0xE5 SHL DUP2 MSTORE PUSH1 0x4 ADD PUSH2 0x307 SWAP1 PUSH2 0x117C JUMP JUMPDEST PUSH1 0x1 PUSH1 0x1 PUSH1 0xA0 SHL SUB DUP2 AND PUSH1 0x0 SWAP1 DUP2 MSTORE PUSH1 0x4 PUSH1 0x20 MSTORE PUSH1 0x40 SWAP1 KECCAK256 SLOAD PUSH1 0xFF AND ISZERO ISZERO PUSH1 0x1 EQ ISZERO PUSH2 0x7FE JUMPI PUSH1 0x40 MLOAD PUSH3 0x461BCD PUSH1 0xE5 SHL DUP2 MSTORE PUSH1 0x4 ADD PUSH2 0x307 SWAP1 PUSH2 0x11F6 JUMP JUMPDEST PUSH1 0x1 PUSH1 0x1 PUSH1 0xA0 SHL SUB DUP2 AND PUSH1 0x0 DUP2 DUP2 MSTORE PUSH1 0x4 PUSH1 0x20 MSTORE PUSH1 0x40 SWAP1 DUP2 SWAP1 KECCAK256 DUP1 SLOAD PUSH1 0xFF NOT AND PUSH1 0x1 SWAP1 DUP2 OR SWAP1 SWAP2 SSTORE SWAP1 MLOAD PUSH32 0x34E57D3E15D2174A31AED19B5A635AAD3C7FD6D6FF6B19D43F56819654E990FD SWAP2 PUSH2 0x853 SWAP2 PUSH2 0xFEF JUMP JUMPDEST PUSH1 0x40 MLOAD DUP1 SWAP2 SUB SWAP1 LOG2 POP JUMP JUMPDEST PUSH2 0x866 PUSH2 0xE9E JUMP JUMPDEST PUSH1 0x1 PUSH1 0x1 PUSH1 0xA0 SHL SUB AND PUSH2 0x877 PUSH2 0xAF0 JUMP JUMPDEST PUSH1 0x1 PUSH1 0x1 PUSH1 0xA0 SHL SUB AND EQ PUSH2 0x89D JUMPI PUSH1 0x40 MLOAD PUSH3 0x461BCD PUSH1 0xE5 SHL DUP2 MSTORE PUSH1 0x4 ADD PUSH2 0x307 SWAP1 PUSH2 0x117C JUMP JUMPDEST PUSH1 0x1 PUSH1 0x1 PUSH1 0xA0 SHL SUB DUP2 AND PUSH1 0x0 SWAP1 DUP2 MSTORE PUSH1 0x4 PUSH1 0x20 MSTORE PUSH1 0x40 SWAP1 KECCAK256 SLOAD PUSH1 0xFF AND PUSH2 0x8D5 JUMPI PUSH1 0x40 MLOAD PUSH3 0x461BCD PUSH1 0xE5 SHL DUP2 MSTORE PUSH1 0x4 ADD PUSH2 0x307 SWAP1 PUSH2 0x1139 JUMP JUMPDEST PUSH1 0x1 PUSH1 0x1 PUSH1 0xA0 SHL SUB DUP2 AND PUSH1 0x0 DUP2 DUP2 MSTORE PUSH1 0x4 PUSH1 0x20 MSTORE PUSH1 0x40 DUP1 DUP3 KECCAK256 DUP1 SLOAD PUSH1 0xFF NOT AND SWAP1 SSTORE MLOAD PUSH32 0xC87598B69899C8B872E8B5E416808D7332FE62ED4F035F7E72AE6F646E12F73F SWAP2 PUSH2 0x853 SWAP2 PUSH2 0xFEF JUMP JUMPDEST CALLER PUSH1 0x0 SWAP1 DUP2 MSTORE PUSH1 0x3 PUSH1 0x20 MSTORE PUSH1 0x40 SWAP1 KECCAK256 PUSH1 0x1 DUP2 ADD SLOAD SWAP1 SLOAD PUSH2 0x942 SWAP1 DUP3 PUSH2 0xE2F JUMP JUMPDEST CALLER PUSH1 0x0 SWAP1 DUP2 MSTORE PUSH1 0x3 PUSH1 0x20 MSTORE PUSH1 0x40 SWAP1 KECCAK256 SWAP1 DUP2 SSTORE PUSH1 0x1 ADD SLOAD PUSH2 0x5E8 SWAP1 DUP3 PUSH2 0xE1C JUMP JUMPDEST PUSH2 0x96A PUSH2 0xE9E JUMP JUMPDEST PUSH1 0x1 PUSH1 0x1 PUSH1 0xA0 SHL SUB AND PUSH2 0x97B PUSH2 0xAF0 JUMP JUMPDEST PUSH1 0x1 PUSH1 0x1 PUSH1 0xA0 SHL SUB AND EQ PUSH2 0x9A1 JUMPI PUSH1 0x40 MLOAD PUSH3 0x461BCD PUSH1 0xE5 SHL DUP2 MSTORE PUSH1 0x4 ADD PUSH2 0x307 SWAP1 PUSH2 0x117C JUMP JUMPDEST PUSH2 0x9AB PUSH1 0x0 PUSH2 0xEA2 JUMP JUMPDEST JUMP JUMPDEST CALLER PUSH1 0x0 SWAP1 DUP2 MSTORE PUSH1 0x3 PUSH1 0x20 MSTORE PUSH1 0x40 SWAP1 KECCAK256 SLOAD PUSH2 0x9C6 JUMPI PUSH1 0x0 DUP1 REVERT JUMPDEST PUSH1 0x1 SLOAD CALLER PUSH1 0x0 DUP2 DUP2 MSTORE PUSH1 0x3 PUSH1 0x20 MSTORE PUSH1 0x40 SWAP1 DUP2 SWAP1 KECCAK256 SLOAD SWAP1 MLOAD PUSH4 0xA9059CBB PUSH1 0xE0 SHL DUP2 MSTORE PUSH1 0x1 PUSH1 0x1 PUSH1 0xA0 SHL SUB SWAP1 SWAP4 AND SWAP3 PUSH4 0xA9059CBB SWAP3 PUSH2 0xA07 SWAP3 SWAP1 SWAP2 PUSH1 0x4 ADD PUSH2 0xFD6 JUMP JUMPDEST PUSH1 0x20 PUSH1 0x40 MLOAD DUP1 DUP4 SUB DUP2 PUSH1 0x0 DUP8 DUP1 EXTCODESIZE ISZERO DUP1 ISZERO PUSH2 0xA21 JUMPI PUSH1 0x0 DUP1 REVERT JUMPDEST POP GAS CALL ISZERO DUP1 ISZERO PUSH2 0xA35 JUMPI RETURNDATASIZE PUSH1 0x0 DUP1 RETURNDATACOPY RETURNDATASIZE PUSH1 0x0 REVERT JUMPDEST POP POP POP POP PUSH1 0x40 MLOAD RETURNDATASIZE PUSH1 0x1F NOT PUSH1 0x1F DUP3 ADD AND DUP3 ADD DUP1 PUSH1 0x40 MSTORE POP DUP2 ADD SWAP1 PUSH2 0xA59 SWAP2 SWAP1 PUSH2 0xF23 JUMP JUMPDEST PUSH2 0xA62 JUMPI PUSH1 0x0 DUP1 REVERT JUMPDEST CALLER PUSH1 0x0 SWAP1 DUP2 MSTORE PUSH1 0x3 PUSH1 0x20 MSTORE PUSH1 0x40 DUP2 KECCAK256 SSTORE JUMP JUMPDEST PUSH1 0x0 DUP1 DUP1 JUMPDEST PUSH1 0x2 SLOAD DUP2 LT ISZERO PUSH2 0x56C JUMPI PUSH1 0x0 PUSH1 0x2 DUP3 DUP2 SLOAD DUP2 LT PUSH2 0xAA6 JUMPI PUSH4 0x4E487B71 PUSH1 0xE0 SHL PUSH1 0x0 MSTORE PUSH1 0x32 PUSH1 0x4 MSTORE PUSH1 0x24 PUSH1 0x0 REVERT JUMPDEST PUSH1 0x0 SWAP2 DUP3 MSTORE PUSH1 0x20 DUP1 DUP4 KECCAK256 SWAP1 SWAP2 ADD SLOAD PUSH1 0x1 PUSH1 0x1 PUSH1 0xA0 SHL SUB AND DUP1 DUP4 MSTORE PUSH1 0x3 SWAP1 SWAP2 MSTORE PUSH1 0x40 SWAP1 SWAP2 KECCAK256 SLOAD SWAP1 SWAP2 POP PUSH2 0xAD8 DUP5 DUP3 PUSH2 0xE2F JUMP JUMPDEST SWAP4 POP POP POP PUSH1 0x1 DUP2 PUSH2 0xAE9 SWAP2 SWAP1 PUSH2 0x12F0 JUMP JUMPDEST SWAP1 POP PUSH2 0xA79 JUMP JUMPDEST PUSH1 0x0 SLOAD PUSH1 0x1 PUSH1 0x1 PUSH1 0xA0 SHL SUB AND SWAP1 JUMP JUMPDEST PUSH1 0x1 SLOAD PUSH1 0x40 MLOAD PUSH4 0x70A08231 PUSH1 0xE0 SHL DUP2 MSTORE DUP3 SWAP2 PUSH1 0x1 PUSH1 0x1 PUSH1 0xA0 SHL SUB AND SWAP1 PUSH4 0x70A08231 SWAP1 PUSH2 0xB2F SWAP1 CALLER SWAP1 PUSH1 0x4 ADD PUSH2 0xF9E JUMP JUMPDEST PUSH1 0x20 PUSH1 0x40 MLOAD DUP1 DUP4 SUB DUP2 DUP7 DUP1 EXTCODESIZE ISZERO DUP1 ISZERO PUSH2 0xB47 JUMPI PUSH1 0x0 DUP1 REVERT JUMPDEST POP GAS STATICCALL ISZERO DUP1 ISZERO PUSH2 0xB5B JUMPI RETURNDATASIZE PUSH1 0x0 DUP1 RETURNDATACOPY RETURNDATASIZE PUSH1 0x0 REVERT JUMPDEST POP POP POP POP PUSH1 0x40 MLOAD RETURNDATASIZE PUSH1 0x1F NOT PUSH1 0x1F DUP3 ADD AND DUP3 ADD DUP1 PUSH1 0x40 MSTORE POP DUP2 ADD SWAP1 PUSH2 0xB7F SWAP2 SWAP1 PUSH2 0xF5B JUMP JUMPDEST LT ISZERO PUSH2 0xB9D JUMPI PUSH1 0x40 MLOAD PUSH3 0x461BCD PUSH1 0xE5 SHL DUP2 MSTORE PUSH1 0x4 ADD PUSH2 0x307 SWAP1 PUSH2 0x123D JUMP JUMPDEST CALLER PUSH1 0x0 SWAP1 DUP2 MSTORE PUSH1 0x3 PUSH1 0x20 MSTORE PUSH1 0x40 DUP2 KECCAK256 DUP1 SLOAD DUP4 SWAP3 SWAP1 PUSH2 0xBBC SWAP1 DUP5 SWAP1 PUSH2 0x12F0 JUMP JUMPDEST SWAP1 SWAP2 SSTORE POP POP PUSH1 0x1 SLOAD PUSH1 0x40 MLOAD PUSH4 0x23B872DD PUSH1 0xE0 SHL DUP2 MSTORE PUSH1 0x1 PUSH1 0x1 PUSH1 0xA0 SHL SUB SWAP1 SWAP2 AND SWAP1 PUSH4 0x23B872DD SWAP1 PUSH2 0xBF5 SWAP1 CALLER SWAP1 ADDRESS SWAP1 DUP7 SWAP1 PUSH1 0x4 ADD PUSH2 0xFB2 JUMP JUMPDEST PUSH1 0x20 PUSH1 0x40 MLOAD DUP1 DUP4 SUB DUP2 PUSH1 0x0 DUP8 DUP1 EXTCODESIZE ISZERO DUP1 ISZERO PUSH2 0xC0F JUMPI PUSH1 0x0 DUP1 REVERT JUMPDEST POP GAS CALL ISZERO DUP1 ISZERO PUSH2 0xC23 JUMPI RETURNDATASIZE PUSH1 0x0 DUP1 RETURNDATACOPY RETURNDATASIZE PUSH1 0x0 REVERT JUMPDEST POP POP POP POP PUSH1 0x40 MLOAD RETURNDATASIZE PUSH1 0x1F NOT PUSH1 0x1F DUP3 ADD AND DUP3 ADD DUP1 PUSH1 0x40 MSTORE POP DUP2 ADD SWAP1 PUSH2 0xC47 SWAP2 SWAP1 PUSH2 0xF23 JUMP JUMPDEST PUSH2 0xC50 JUMPI PUSH1 0x0 DUP1 REVERT JUMPDEST POP JUMP JUMPDEST PUSH1 0x0 DUP1 PUSH1 0x0 JUMPDEST PUSH1 0x2 SLOAD DUP2 LT ISZERO PUSH2 0xCC0 JUMPI PUSH1 0x2 DUP2 DUP2 SLOAD DUP2 LT PUSH2 0xC84 JUMPI PUSH4 0x4E487B71 PUSH1 0xE0 SHL PUSH1 0x0 MSTORE PUSH1 0x32 PUSH1 0x4 MSTORE PUSH1 0x24 PUSH1 0x0 REVERT JUMPDEST PUSH1 0x0 SWAP2 DUP3 MSTORE PUSH1 0x20 SWAP1 SWAP2 KECCAK256 ADD SLOAD PUSH1 0x1 PUSH1 0x1 PUSH1 0xA0 SHL SUB DUP6 DUP2 AND SWAP2 AND EQ ISZERO PUSH2 0xCAE JUMPI PUSH1 0x1 SWAP3 POP SWAP1 POP PUSH2 0xCC9 JUMP JUMPDEST PUSH2 0xCB9 PUSH1 0x1 DUP3 PUSH2 0x12F0 JUMP JUMPDEST SWAP1 POP PUSH2 0xC59 JUMP JUMPDEST POP PUSH1 0x0 DUP1 SWAP2 POP SWAP2 POP JUMPDEST SWAP2 POP SWAP2 JUMP JUMPDEST PUSH1 0x1 PUSH1 0x1 PUSH1 0xA0 SHL SUB DUP2 AND PUSH1 0x0 SWAP1 DUP2 MSTORE PUSH1 0x3 PUSH1 0x20 MSTORE PUSH1 0x40 SWAP1 KECCAK256 PUSH1 0x1 ADD SLOAD JUMPDEST SWAP2 SWAP1 POP JUMP JUMPDEST PUSH1 0x1 PUSH1 0x1 PUSH1 0xA0 SHL SUB AND PUSH1 0x0 SWAP1 DUP2 MSTORE PUSH1 0x4 PUSH1 0x20 MSTORE PUSH1 0x40 SWAP1 KECCAK256 SLOAD PUSH1 0xFF AND SWAP1 JUMP JUMPDEST PUSH1 0x0 DUP1 JUMPDEST PUSH1 0x2 SLOAD DUP2 LT ISZERO PUSH2 0xD78 JUMPI PUSH1 0x2 DUP2 DUP2 SLOAD DUP2 LT PUSH2 0xD3D JUMPI PUSH4 0x4E487B71 PUSH1 0xE0 SHL PUSH1 0x0 MSTORE PUSH1 0x32 PUSH1 0x4 MSTORE PUSH1 0x24 PUSH1 0x0 REVERT JUMPDEST PUSH1 0x0 SWAP2 DUP3 MSTORE PUSH1 0x20 SWAP1 SWAP2 KECCAK256 ADD SLOAD PUSH1 0x1 PUSH1 0x1 PUSH1 0xA0 SHL SUB DUP5 DUP2 AND SWAP2 AND EQ ISZERO PUSH2 0xD66 JUMPI PUSH1 0x1 SWAP2 POP POP PUSH2 0xCEB JUMP JUMPDEST PUSH2 0xD71 PUSH1 0x1 DUP3 PUSH2 0x12F0 JUMP JUMPDEST SWAP1 POP PUSH2 0xD12 JUMP JUMPDEST POP PUSH1 0x0 SWAP3 SWAP2 POP POP JUMP JUMPDEST PUSH1 0x1 PUSH1 0x1 PUSH1 0xA0 SHL SUB AND PUSH1 0x0 SWAP1 DUP2 MSTORE PUSH1 0x3 PUSH1 0x20 MSTORE PUSH1 0x40 SWAP1 KECCAK256 PUSH1 0x2 ADD SLOAD SWAP1 JUMP JUMPDEST PUSH2 0xDA7 PUSH2 0xE9E JUMP JUMPDEST PUSH1 0x1 PUSH1 0x1 PUSH1 0xA0 SHL SUB AND PUSH2 0xDB8 PUSH2 0xAF0 JUMP JUMPDEST PUSH1 0x1 PUSH1 0x1 PUSH1 0xA0 SHL SUB AND EQ PUSH2 0xDDE JUMPI PUSH1 0x40 MLOAD PUSH3 0x461BCD PUSH1 0xE5 SHL DUP2 MSTORE PUSH1 0x4 ADD PUSH2 0x307 SWAP1 PUSH2 0x117C JUMP JUMPDEST PUSH1 0x1 PUSH1 0x1 PUSH1 0xA0 SHL SUB DUP2 AND PUSH2 0xE04 JUMPI PUSH1 0x40 MLOAD PUSH3 0x461BCD PUSH1 0xE5 SHL DUP2 MSTORE PUSH1 0x4 ADD PUSH2 0x307 SWAP1 PUSH2 0x1058 JUMP JUMPDEST PUSH2 0xC50 DUP2 PUSH2 0xEA2 JUMP JUMPDEST PUSH1 0x1 SLOAD PUSH1 0x1 PUSH1 0x1 PUSH1 0xA0 SHL SUB AND DUP2 JUMP JUMPDEST PUSH1 0x0 PUSH2 0xE28 DUP3 DUP5 PUSH2 0x1308 JUMP JUMPDEST SWAP4 SWAP3 POP POP POP JUMP JUMPDEST PUSH1 0x0 PUSH2 0xE28 DUP3 DUP5 PUSH2 0x12F0 JUMP JUMPDEST PUSH1 0x0 PUSH2 0xE46 DUP3 PUSH2 0xC53 JUMP JUMPDEST POP SWAP1 POP DUP1 PUSH2 0xE9A JUMPI PUSH1 0x2 DUP1 SLOAD PUSH1 0x1 DUP2 ADD DUP3 SSTORE PUSH1 0x0 SWAP2 SWAP1 SWAP2 MSTORE PUSH32 0x405787FA12A823E0F2B7631CC41B3BA8828B3321CA811111FA75CD3AA3BB5ACE ADD DUP1 SLOAD PUSH1 0x1 PUSH1 0x1 PUSH1 0xA0 SHL SUB NOT AND PUSH1 0x1 PUSH1 0x1 PUSH1 0xA0 SHL SUB DUP5 AND OR SWAP1 SSTORE JUMPDEST POP POP JUMP JUMPDEST CALLER SWAP1 JUMP JUMPDEST PUSH1 0x0 DUP1 SLOAD PUSH1 0x1 PUSH1 0x1 PUSH1 0xA0 SHL SUB DUP4 DUP2 AND PUSH1 0x1 PUSH1 0x1 PUSH1 0xA0 SHL SUB NOT DUP4 AND DUP2 OR DUP5 SSTORE PUSH1 0x40 MLOAD SWAP2 SWAP1 SWAP3 AND SWAP3 DUP4 SWAP2 PUSH32 0x8BE0079C531659141344CD1FD0A4F28419497F9722A3DAAFE3B4186F6B6457E0 SWAP2 SWAP1 LOG3 POP POP JUMP JUMPDEST DUP1 CALLDATALOAD PUSH1 0x1 PUSH1 0x1 PUSH1 0xA0 SHL SUB DUP2 AND DUP2 EQ PUSH2 0xCEB JUMPI PUSH1 0x0 DUP1 REVERT JUMPDEST PUSH1 0x0 PUSH1 0x20 DUP3 DUP5 SUB SLT ISZERO PUSH2 0xF1A JUMPI DUP1 DUP2 REVERT JUMPDEST PUSH2 0xE28 DUP3 PUSH2 0xEF2 JUMP JUMPDEST PUSH1 0x0 PUSH1 0x20 DUP3 DUP5 SUB SLT ISZERO PUSH2 0xF34 JUMPI DUP1 DUP2 REVERT JUMPDEST DUP2 MLOAD DUP1 ISZERO ISZERO DUP2 EQ PUSH2 0xE28 JUMPI DUP2 DUP3 REVERT JUMPDEST PUSH1 0x0 PUSH1 0x20 DUP3 DUP5 SUB SLT ISZERO PUSH2 0xF54 JUMPI DUP1 DUP2 REVERT JUMPDEST POP CALLDATALOAD SWAP2 SWAP1 POP JUMP JUMPDEST PUSH1 0x0 PUSH1 0x20 DUP3 DUP5 SUB SLT ISZERO PUSH2 0xF6C JUMPI DUP1 DUP2 REVERT JUMPDEST POP MLOAD SWAP2 SWAP1 POP JUMP JUMPDEST PUSH1 0x0 DUP1 PUSH1 0x40 DUP4 DUP6 SUB SLT ISZERO PUSH2 0xF85 JUMPI DUP1 DUP2 REVERT JUMPDEST DUP3 CALLDATALOAD SWAP2 POP PUSH2 0xF95 PUSH1 0x20 DUP5 ADD PUSH2 0xEF2 JUMP JUMPDEST SWAP1 POP SWAP3 POP SWAP3 SWAP1 POP JUMP JUMPDEST PUSH1 0x1 PUSH1 0x1 PUSH1 0xA0 SHL SUB SWAP2 SWAP1 SWAP2 AND DUP2 MSTORE PUSH1 0x20 ADD SWAP1 JUMP JUMPDEST PUSH1 0x1 PUSH1 0x1 PUSH1 0xA0 SHL SUB SWAP4 DUP5 AND DUP2 MSTORE SWAP2 SWAP1 SWAP3 AND PUSH1 0x20 DUP3 ADD MSTORE PUSH1 0x40 DUP2 ADD SWAP2 SWAP1 SWAP2 MSTORE PUSH1 0x60 ADD SWAP1 JUMP JUMPDEST PUSH1 0x1 PUSH1 0x1 PUSH1 0xA0 SHL SUB SWAP3 SWAP1 SWAP3 AND DUP3 MSTORE PUSH1 0x20 DUP3 ADD MSTORE PUSH1 0x40 ADD SWAP1 JUMP JUMPDEST SWAP1 ISZERO ISZERO DUP2 MSTORE PUSH1 0x20 ADD SWAP1 JUMP JUMPDEST SWAP2 ISZERO ISZERO DUP3 MSTORE PUSH1 0x20 DUP3 ADD MSTORE PUSH1 0x40 ADD SWAP1 JUMP JUMPDEST PUSH1 0x20 DUP1 DUP3 MSTORE PUSH1 0x2E SWAP1 DUP3 ADD MSTORE PUSH32 0x5F7374616B65686F6C6465722068617320746F206861766520656E6F75676820 PUSH1 0x40 DUP3 ADD MSTORE PUSH14 0x7374616B65642062616C616E6365 PUSH1 0x90 SHL PUSH1 0x60 DUP3 ADD MSTORE PUSH1 0x80 ADD SWAP1 JUMP JUMPDEST PUSH1 0x20 DUP1 DUP3 MSTORE PUSH1 0x26 SWAP1 DUP3 ADD MSTORE PUSH32 0x4F776E61626C653A206E6577206F776E657220697320746865207A65726F2061 PUSH1 0x40 DUP3 ADD MSTORE PUSH6 0x646472657373 PUSH1 0xD0 SHL PUSH1 0x60 DUP3 ADD MSTORE PUSH1 0x80 ADD SWAP1 JUMP JUMPDEST PUSH1 0x20 DUP1 DUP3 MSTORE PUSH1 0x2A SWAP1 DUP3 ADD MSTORE PUSH32 0x69735374616B6557686974656C6973746564206D757374206265207472756520 PUSH1 0x40 DUP3 ADD MSTORE PUSH10 0x3337B91029B2B73232B9 PUSH1 0xB1 SHL PUSH1 0x60 DUP3 ADD MSTORE PUSH1 0x80 ADD SWAP1 JUMP JUMPDEST PUSH1 0x20 DUP1 DUP3 MSTORE PUSH1 0x31 SWAP1 DUP3 ADD MSTORE PUSH32 0x5F7374616B65686F6C6465722068617320746F206861766520656E6F75676820 PUSH1 0x40 DUP3 ADD MSTORE PUSH17 0x616C6C6F63617465642062616C616E6365 PUSH1 0x78 SHL PUSH1 0x60 DUP3 ADD MSTORE PUSH1 0x80 ADD SWAP1 JUMP JUMPDEST PUSH1 0x20 DUP1 DUP3 MSTORE PUSH1 0x23 SWAP1 DUP3 ADD MSTORE PUSH32 0x41646472657373206D7573742062652077686974656C697374656420616C7265 PUSH1 0x40 DUP3 ADD MSTORE PUSH3 0x616479 PUSH1 0xE8 SHL PUSH1 0x60 DUP3 ADD MSTORE PUSH1 0x80 ADD SWAP1 JUMP JUMPDEST PUSH1 0x20 DUP1 DUP3 MSTORE DUP2 DUP2 ADD MSTORE PUSH32 0x4F776E61626C653A2063616C6C6572206973206E6F7420746865206F776E6572 PUSH1 0x40 DUP3 ADD MSTORE PUSH1 0x60 ADD SWAP1 JUMP JUMPDEST PUSH1 0x20 DUP1 DUP3 MSTORE PUSH1 0x25 SWAP1 DUP3 ADD MSTORE PUSH32 0x69735374616B65686F6C646572206D757374206265207472756520666F722053 PUSH1 0x40 DUP3 ADD MSTORE PUSH5 0x32B73232B9 PUSH1 0xD9 SHL PUSH1 0x60 DUP3 ADD MSTORE PUSH1 0x80 ADD SWAP1 JUMP JUMPDEST PUSH1 0x20 DUP1 DUP3 MSTORE PUSH1 0x27 SWAP1 DUP3 ADD MSTORE PUSH32 0x41646472657373206D757374206E6F742062652077686974656C697374656420 PUSH1 0x40 DUP3 ADD MSTORE PUSH7 0x616C7265616479 PUSH1 0xC8 SHL PUSH1 0x60 DUP3 ADD MSTORE PUSH1 0x80 ADD SWAP1 JUMP JUMPDEST PUSH1 0x20 DUP1 DUP3 MSTORE PUSH1 0x1C SWAP1 DUP3 ADD MSTORE PUSH32 0x6E6F7420656E6F75676820746F6B656E7320746F206465706F73697400000000 PUSH1 0x40 DUP3 ADD MSTORE PUSH1 0x60 ADD SWAP1 JUMP JUMPDEST PUSH1 0x20 DUP1 DUP3 MSTORE PUSH1 0x38 SWAP1 DUP3 ADD MSTORE PUSH32 0x6E6F7420656E6F75676820746F6B656E7320696E207468652066726565207374 PUSH1 0x40 DUP3 ADD MSTORE PUSH32 0x616B65642062616C616E636520746F2077697468647261770000000000000000 PUSH1 0x60 DUP3 ADD MSTORE PUSH1 0x80 ADD SWAP1 JUMP JUMPDEST SWAP1 DUP2 MSTORE PUSH1 0x20 ADD SWAP1 JUMP JUMPDEST SWAP3 DUP4 MSTORE PUSH1 0x20 DUP4 ADD SWAP2 SWAP1 SWAP2 MSTORE PUSH1 0x40 DUP3 ADD MSTORE PUSH1 0x60 ADD SWAP1 JUMP JUMPDEST PUSH1 0x0 DUP3 NOT DUP3 GT ISZERO PUSH2 0x1303 JUMPI PUSH2 0x1303 PUSH2 0x131F JUMP JUMPDEST POP ADD SWAP1 JUMP JUMPDEST PUSH1 0x0 DUP3 DUP3 LT ISZERO PUSH2 0x131A JUMPI PUSH2 0x131A PUSH2 0x131F JUMP JUMPDEST POP SUB SWAP1 JUMP JUMPDEST PUSH4 0x4E487B71 PUSH1 0xE0 SHL PUSH1 0x0 MSTORE PUSH1 0x11 PUSH1 0x4 MSTORE PUSH1 0x24 PUSH1 0x0 REVERT INVALID LOG2 PUSH5 0x6970667358 0x22 SLT KECCAK256 0xE1 POP LOG3 SWAP9 SWAP15 PUSH8 0x54CE22286B43B8AE 0xBD 0x1F 0x4B MSTORE 0xD3 EXP GT 0xBA DUP6 0xE6 0xA7 SAR GAS SWAP4 0x21 0xC7 ISZERO EQ PUSH5 0x736F6C6343 STOP ADDMOD STOP STOP CALLER "
				},
				"gasEstimates": {
					"creation": {
						"codeDepositCost": "994200",
						"executionCost": "infinite",
						"totalCost": "infinite"
					},
					"external": {
						"AllocatedStakedAmountOf(address)": "1364",
						"AvailableStakedAmountOf(address)": "infinite",
						"ProxyStakeAllocate(uint256,address)": "infinite",
						"ProxyStakeDeallocate(uint256,address)": "infinite",
						"Stake(uint256)": "infinite",
						"TotalAllocatedStakes()": "infinite",
						"TotalAvailableStakes()": "infinite",
						"TotalStakes()": "infinite",
						"addAddress(address)": "24620",
						"balances(address)": "2953",
						"closeAllStakes()": "infinite",
						"deposit(uint256)": "infinite",
						"isStakeWhitelisted(address)": "1326",
						"isStakeholder(address)": "infinite",
						"isStakeholderIndex(address)": "infinite",
						"owner()": "1137",
						"removeAddress(address)": "24606",
						"renounceOwnership()": "23637",
						"token()": "1202",
						"transferOwnership(address)": "23809",
						"withdraw(uint256)": "infinite",
						"withdrawAll()": "infinite"
					},
					"internal": {
						"addStakeholder(address)": "infinite",
						"removeStakeholder(address)": "infinite"
					}
				},
				"methodIdentifiers": {
					"AllocatedStakedAmountOf(address)": "f20e8b12",
					"AvailableStakedAmountOf(address)": "cbdce4e0",
					"ProxyStakeAllocate(uint256,address)": "12b6887c",
					"ProxyStakeDeallocate(uint256,address)": "112b3266",
					"Stake(uint256)": "227a473b",
					"TotalAllocatedStakes()": "14bee5a5",
					"TotalAvailableStakes()": "8aed0feb",
					"TotalStakes()": "23cc9f37",
					"addAddress(address)": "38eada1c",
					"balances(address)": "27e235e3",
					"closeAllStakes()": "6a40cbb6",
					"deposit(uint256)": "b6b55f25",
					"isStakeWhitelisted(address)": "e67719bd",
					"isStakeholder(address)": "ef037b90",
					"isStakeholderIndex(address)": "bd0bb4f6",
					"owner()": "8da5cb5b",
					"removeAddress(address)": "4ba79dfe",
					"renounceOwnership()": "715018a6",
					"token()": "fc0c546a",
					"transferOwnership(address)": "f2fde38b",
					"withdraw(uint256)": "2e1a7d4d",
					"withdrawAll()": "853828b6"
				}
			},
			"storageLayout": {
				"storage": [
					{
						"astId": 7,
						"contract": "contracts/worksystems/StakingManager.sol:StakingManager",
						"label": "_owner",
						"offset": 0,
						"slot": "0",
						"type": "t_address"
					},
					{
						"astId": 529,
						"contract": "contracts/worksystems/StakingManager.sol:StakingManager",
						"label": "token",
						"offset": 0,
						"slot": "1",
						"type": "t_contract(IERC20)182"
					},
					{
						"astId": 544,
						"contract": "contracts/worksystems/StakingManager.sol:StakingManager",
						"label": "stakeholders",
						"offset": 0,
						"slot": "2",
						"type": "t_array(t_address)dyn_storage"
					},
					{
						"astId": 557,
						"contract": "contracts/worksystems/StakingManager.sol:StakingManager",
						"label": "balances",
						"offset": 0,
						"slot": "3",
						"type": "t_mapping(t_address,t_struct(Balances)551_storage)"
					},
					{
						"astId": 561,
						"contract": "contracts/worksystems/StakingManager.sol:StakingManager",
						"label": "StakeWhitelistMap",
						"offset": 0,
						"slot": "4",
						"type": "t_mapping(t_address,t_bool)"
					},
					{
						"astId": 643,
						"contract": "contracts/worksystems/StakingManager.sol:StakingManager",
						"label": "locked",
						"offset": 0,
						"slot": "5",
						"type": "t_bool"
					}
				],
				"types": {
					"t_address": {
						"encoding": "inplace",
						"label": "address",
						"numberOfBytes": "20"
					},
					"t_array(t_address)dyn_storage": {
						"base": "t_address",
						"encoding": "dynamic_array",
						"label": "address[]",
						"numberOfBytes": "32"
					},
					"t_bool": {
						"encoding": "inplace",
						"label": "bool",
						"numberOfBytes": "1"
					},
					"t_contract(IERC20)182": {
						"encoding": "inplace",
						"label": "contract IERC20",
						"numberOfBytes": "20"
					},
					"t_mapping(t_address,t_bool)": {
						"encoding": "mapping",
						"key": "t_address",
						"label": "mapping(address => bool)",
						"numberOfBytes": "32",
						"value": "t_bool"
					},
					"t_mapping(t_address,t_struct(Balances)551_storage)": {
						"encoding": "mapping",
						"key": "t_address",
						"label": "mapping(address => struct StakingManager.Balances)",
						"numberOfBytes": "32",
						"value": "t_struct(Balances)551_storage"
					},
					"t_struct(Balances)551_storage": {
						"encoding": "inplace",
						"label": "struct StakingManager.Balances",
						"members": [
							{
								"astId": 546,
								"contract": "contracts/worksystems/StakingManager.sol:StakingManager",
								"label": "free_balance",
								"offset": 0,
								"slot": "0",
								"type": "t_uint256"
							},
							{
								"astId": 548,
								"contract": "contracts/worksystems/StakingManager.sol:StakingManager",
								"label": "staked_balance",
								"offset": 0,
								"slot": "1",
								"type": "t_uint256"
							},
							{
								"astId": 550,
								"contract": "contracts/worksystems/StakingManager.sol:StakingManager",
								"label": "allocated_balance",
								"offset": 0,
								"slot": "2",
								"type": "t_uint256"
							}
						],
						"numberOfBytes": "96"
					},
					"t_uint256": {
						"encoding": "inplace",
						"label": "uint256",
						"numberOfBytes": "32"
					}
				}
			},
			"userdoc": {
				"kind": "user",
				"methods": {
					"AllocatedStakedAmountOf(address)": {
						"notice": "A method to retrieve the stake for a stakeholder."
					},
					"AvailableStakedAmountOf(address)": {
						"notice": "A method to retrieve the stake for a stakeholder."
					},
					"ProxyStakeAllocate(uint256,address)": {
						"notice": "A method for a verified whitelisted contract to allocate for itself some stake // nonReentrant()"
					},
					"ProxyStakeDeallocate(uint256,address)": {
						"notice": "A method for a verified whitelisted contract to allocate for itself some stake _StakeToDeallocate has to be equal to the amount of at least one ALLOCATED allocation else the procedure will fail"
					},
					"Stake(uint256)": {
						"notice": "A method for a stakeholder to create a stake."
					},
					"TotalAllocatedStakes()": {
						"notice": "A method to the aggregated stakes from all stakeholders."
					},
					"TotalAvailableStakes()": {
						"notice": "A method to the aggregated stakes from all stakeholders."
					},
					"TotalStakes()": {
						"notice": "A method to the aggregated stakes from all stakeholders."
					},
					"balances(address)": {
						"notice": "Stakeholders account and balances"
					},
					"closeAllStakes()": {
						"notice": "A method for a stakeholder to close all available stakes"
					},
					"isStakeholder(address)": {
						"notice": "A method to check if an address is a stakeholder."
					},
					"isStakeholderIndex(address)": {
						"notice": "A method to check if an address is a stakeholder."
					},
					"withdraw(uint256)": {
						"notice": "Withdraw _numTokens ERC20 tokens from the voting contract, revoking these voting rights"
					}
				},
				"version": 1
			}
		}
	}
}