{
	"contracts/worksystems/ConfigRegistry.sol": {
		"ConfigRegistry": {
			"abi": [
				{
					"inputs": [],
					"stateMutability": "nonpayable",
					"type": "constructor"
				},
				{
					"anonymous": false,
					"inputs": [
						{
							"indexed": true,
							"internalType": "string",
							"name": "account",
							"type": "string"
						}
					],
					"name": "ConfigUpdated",
					"type": "event"
				},
				{
					"anonymous": false,
					"inputs": [
						{
							"indexed": true,
							"internalType": "address",
							"name": "previousOwner",
							"type": "address"
						},
						{
							"indexed": true,
							"internalType": "address",
							"name": "newOwner",
							"type": "address"
						}
					],
					"name": "OwnershipTransferred",
					"type": "event"
				},
				{
					"inputs": [
						{
							"internalType": "string",
							"name": "key",
							"type": "string"
						},
						{
							"internalType": "string",
							"name": "value",
							"type": "string"
						},
						{
							"internalType": "bool",
							"name": "overwrite",
							"type": "bool"
						}
					],
					"name": "add",
					"outputs": [
						{
							"internalType": "bool",
							"name": "",
							"type": "bool"
						}
					],
					"stateMutability": "nonpayable",
					"type": "function"
				},
				{
					"inputs": [
						{
							"internalType": "bytes32",
							"name": "hash",
							"type": "bytes32"
						},
						{
							"internalType": "string",
							"name": "value",
							"type": "string"
						},
						{
							"internalType": "bool",
							"name": "overwrite",
							"type": "bool"
						}
					],
					"name": "addByHash",
					"outputs": [
						{
							"internalType": "bool",
							"name": "",
							"type": "bool"
						}
					],
					"stateMutability": "nonpayable",
					"type": "function"
				},
				{
					"inputs": [
						{
							"internalType": "string",
							"name": "key",
							"type": "string"
						}
					],
					"name": "get",
					"outputs": [
						{
							"internalType": "string",
							"name": "",
							"type": "string"
						}
					],
					"stateMutability": "view",
					"type": "function"
				},
				{
					"inputs": [
						{
							"internalType": "string",
							"name": "key",
							"type": "string"
						}
					],
					"name": "getHash",
					"outputs": [
						{
							"internalType": "bytes32",
							"name": "",
							"type": "bytes32"
						}
					],
					"stateMutability": "pure",
					"type": "function"
				},
				{
					"inputs": [],
					"name": "owner",
					"outputs": [
						{
							"internalType": "address",
							"name": "",
							"type": "address"
						}
					],
					"stateMutability": "view",
					"type": "function"
				},
				{
					"inputs": [],
					"name": "renounceOwnership",
					"outputs": [],
					"stateMutability": "nonpayable",
					"type": "function"
				},
				{
					"inputs": [
						{
							"internalType": "address",
							"name": "newOwner",
							"type": "address"
						}
					],
					"name": "transferOwnership",
					"outputs": [],
					"stateMutability": "nonpayable",
					"type": "function"
				}
			],
			"devdoc": {
				"kind": "dev",
				"methods": {
					"constructor": {
						"details": "Initializer. Can only be called once."
					},
					"owner()": {
						"details": "Returns the address of the current owner."
					},
					"renounceOwnership()": {
						"details": "Leaves the contract without owner. It will not be possible to call `onlyOwner` functions anymore. Can only be called by the current owner. NOTE: Renouncing ownership will leave the contract without an owner, thereby removing any functionality that is only available to the owner."
					},
					"transferOwnership(address)": {
						"details": "Transfers ownership of the contract to a new account (`newOwner`). Can only be called by the current owner."
					}
				},
				"version": 1
			},
			"evm": {
				"assembly": "    /* \"contracts/worksystems/ConfigRegistry.sol\":243:3198  contract ConfigRegistry is Ownable{\r... */\n  mstore(0x40, 0x80)\n    /* \"contracts/worksystems/ConfigRegistry.sol\":560:1955  constructor() {\r... */\n  callvalue\n  dup1\n  iszero\n  tag_1\n  jumpi\n  0x00\n  dup1\n  revert\ntag_1:\n  pop\n    /* \"@openzeppelin/contracts/access/Ownable.sol\":921:953  _transferOwnership(_msgSender()) */\n  tag_5\n    /* \"@openzeppelin/contracts/access/Ownable.sol\":940:952  _msgSender() */\n  tag_6\n    /* \"@openzeppelin/contracts/access/Ownable.sol\":940:950  _msgSender */\n  tag_7\n    /* \"@openzeppelin/contracts/access/Ownable.sol\":940:952  _msgSender() */\n  jump\t// in\ntag_6:\n    /* \"@openzeppelin/contracts/access/Ownable.sol\":921:939  _transferOwnership */\n  tag_8\n    /* \"@openzeppelin/contracts/access/Ownable.sol\":921:953  _transferOwnership(_msgSender()) */\n  jump\t// in\ntag_5:\n    /* \"contracts/worksystems/ConfigRegistry.sol\":585:612  string memory x = \"db_hash\" */\n  0x40\n  dup1\n  mload\n  dup1\n  dup3\n  add\n  dup3\n  mstore\n  0x07\n  dup2\n  mstore\n  shl(0xcb, 0x0c8c4bed0c2e6d)\n  0x20\n  dup1\n  dup4\n  add\n  swap2\n  swap1\n  swap2\n  mstore\n    /* \"contracts/worksystems/ConfigRegistry.sol\":667:734  ConfigFiles[key] = \"Qmc2tw8ZwERMRmyGU1cywPDsMLkQvkNEwRuECUHnUucLnh\" */\n  dup3\n  mload\n  0x60\n  dup2\n  add\n  swap1\n  swap4\n  mstore\n  0x2e\n  dup1\n  dup5\n  mstore\n    /* \"contracts/worksystems/ConfigRegistry.sol\":585:612  string memory x = \"db_hash\" */\n  swap2\n  swap3\n    /* \"contracts/worksystems/ConfigRegistry.sol\":637:656  keccak256(bytes(x)) */\n  0x2b5d58428bfac46b18194c473ec2b1d41db6dc98e3aad716519f594222ef8360\n  swap3\n    /* \"contracts/worksystems/ConfigRegistry.sol\":667:734  ConfigFiles[key] = \"Qmc2tw8ZwERMRmyGU1cywPDsMLkQvkNEwRuECUHnUucLnh\" */\n  swap1\n  swap2\n  data_3b60d54776104f1294fe496d856530a29990182d91149e78579b340531a598dc\n  swap1\n  dup4\n  add\n  codecopy\n    /* \"contracts/worksystems/ConfigRegistry.sol\":667:683  ConfigFiles[key] */\n  0x00\n  dup3\n  dup2\n  mstore\n    /* \"contracts/worksystems/ConfigRegistry.sol\":667:678  ConfigFiles */\n  0x01\n    /* \"contracts/worksystems/ConfigRegistry.sol\":667:683  ConfigFiles[key] */\n  0x20\n  swap1\n  dup2\n  mstore\n  0x40\n  swap1\n  swap2\n  keccak256\n    /* \"contracts/worksystems/ConfigRegistry.sol\":667:734  ConfigFiles[key] = \"Qmc2tw8ZwERMRmyGU1cywPDsMLkQvkNEwRuECUHnUucLnh\" */\n  dup3\n  mload\n  tag_10\n  swap4\n    /* \"contracts/worksystems/ConfigRegistry.sol\":667:683  ConfigFiles[key] */\n  swap2\n  swap3\n    /* \"contracts/worksystems/ConfigRegistry.sol\":667:734  ConfigFiles[key] = \"Qmc2tw8ZwERMRmyGU1cywPDsMLkQvkNEwRuECUHnUucLnh\" */\n  swap2\n  swap1\n  swap2\n  add\n  swap1\n  tag_11\n  jump\t// in\ntag_10:\n  pop\n    /* \"contracts/worksystems/ConfigRegistry.sol\":753:777  x = \"lang_detector_hash\" */\n  mload(0x40)\n  dup1\n  0x40\n  add\n  0x40\n  mstore\n  dup1\n  0x12\n  dup2\n  mstore\n  0x20\n  add\n  shl(0x73, 0x0d8c2dccebec8cae8cac6e8dee4bed0c2e6d)\n  dup2\n  mstore\n  pop\n  swap2\n  pop\n    /* \"contracts/worksystems/ConfigRegistry.sol\":810:811  x */\n  dup2\n    /* \"contracts/worksystems/ConfigRegistry.sol\":794:813  keccak256(bytes(x)) */\n  dup1\n  mload\n  swap1\n  0x20\n  add\n  keccak256\n    /* \"contracts/worksystems/ConfigRegistry.sol\":788:813  key = keccak256(bytes(x)) */\n  swap1\n  pop\n    /* \"contracts/worksystems/ConfigRegistry.sol\":824:891  ConfigFiles[key] = \"Qmbxy6YMd1HNDoKDdGTAKYdVBuUGUkA17aQVYdtHJv6fzd\" */\n  mload(0x40)\n  dup1\n  0x60\n  add\n  0x40\n  mstore\n  dup1\n  0x2e\n  dup2\n  mstore\n  0x20\n  add\n  data_f4242e8a760d0c162e454795f8e9f708334b2aa46f7171d5953fb91a4336db0e\n  0x2e\n  swap2\n  codecopy\n    /* \"contracts/worksystems/ConfigRegistry.sol\":824:840  ConfigFiles[key] */\n  0x00\n  dup3\n  dup2\n  mstore\n    /* \"contracts/worksystems/ConfigRegistry.sol\":824:835  ConfigFiles */\n  0x01\n    /* \"contracts/worksystems/ConfigRegistry.sol\":824:840  ConfigFiles[key] */\n  0x20\n  swap1\n  dup2\n  mstore\n  0x40\n  swap1\n  swap2\n  keccak256\n    /* \"contracts/worksystems/ConfigRegistry.sol\":824:891  ConfigFiles[key] = \"Qmbxy6YMd1HNDoKDdGTAKYdVBuUGUkA17aQVYdtHJv6fzd\" */\n  dup3\n  mload\n  tag_12\n  swap4\n    /* \"contracts/worksystems/ConfigRegistry.sol\":824:840  ConfigFiles[key] */\n  swap2\n  swap3\n    /* \"contracts/worksystems/ConfigRegistry.sol\":824:891  ConfigFiles[key] = \"Qmbxy6YMd1HNDoKDdGTAKYdVBuUGUkA17aQVYdtHJv6fzd\" */\n  swap2\n  swap1\n  swap2\n  add\n  swap1\n  tag_11\n  jump\t// in\ntag_12:\n  pop\n    /* \"contracts/worksystems/ConfigRegistry.sol\":907:936  x = \"censoring_detector_hash\" */\n  mload(0x40)\n  dup1\n  0x40\n  add\n  0x40\n  mstore\n  dup1\n  0x17\n  dup2\n  mstore\n  0x20\n  add\n  0x63656e736f72696e675f6465746563746f725f68617368000000000000000000\n  dup2\n  mstore\n  pop\n  swap2\n  pop\n    /* \"contracts/worksystems/ConfigRegistry.sol\":969:970  x */\n  dup2\n    /* \"contracts/worksystems/ConfigRegistry.sol\":953:972  keccak256(bytes(x)) */\n  dup1\n  mload\n  swap1\n  0x20\n  add\n  keccak256\n    /* \"contracts/worksystems/ConfigRegistry.sol\":947:972  key = keccak256(bytes(x)) */\n  swap1\n  pop\n    /* \"contracts/worksystems/ConfigRegistry.sol\":983:1050  ConfigFiles[key] = \"QmbZzVcCwfhK4jYqUWR7yYFiT2YcRQ67yXHoXt7jefZjrF\" */\n  mload(0x40)\n  dup1\n  0x60\n  add\n  0x40\n  mstore\n  dup1\n  0x2e\n  dup2\n  mstore\n  0x20\n  add\n  data_5e499ff00d1394a0afdb6e4ba6202c1fc2badc642e7bf2acffa5bb71f2e76a46\n  0x2e\n  swap2\n  codecopy\n    /* \"contracts/worksystems/ConfigRegistry.sol\":983:999  ConfigFiles[key] */\n  0x00\n  dup3\n  dup2\n  mstore\n    /* \"contracts/worksystems/ConfigRegistry.sol\":983:994  ConfigFiles */\n  0x01\n    /* \"contracts/worksystems/ConfigRegistry.sol\":983:999  ConfigFiles[key] */\n  0x20\n  swap1\n  dup2\n  mstore\n  0x40\n  swap1\n  swap2\n  keccak256\n    /* \"contracts/worksystems/ConfigRegistry.sol\":983:1050  ConfigFiles[key] = \"QmbZzVcCwfhK4jYqUWR7yYFiT2YcRQ67yXHoXt7jefZjrF\" */\n  dup3\n  mload\n  tag_13\n  swap4\n    /* \"contracts/worksystems/ConfigRegistry.sol\":983:999  ConfigFiles[key] */\n  swap2\n  swap3\n    /* \"contracts/worksystems/ConfigRegistry.sol\":983:1050  ConfigFiles[key] = \"QmbZzVcCwfhK4jYqUWR7yYFiT2YcRQ67yXHoXt7jefZjrF\" */\n  swap2\n  swap1\n  swap2\n  add\n  swap1\n  tag_11\n  jump\t// in\ntag_13:\n  pop\n    /* \"contracts/worksystems/ConfigRegistry.sol\":1061:1086  x = \"toxic_detector_hash\" */\n  mload(0x40)\n  dup1\n  0x40\n  add\n  0x40\n  mstore\n  dup1\n  0x13\n  dup2\n  mstore\n  0x20\n  add\n  0x746f7869635f6465746563746f725f6861736800000000000000000000000000\n  dup2\n  mstore\n  pop\n  swap2\n  pop\n    /* \"contracts/worksystems/ConfigRegistry.sol\":1119:1120  x */\n  dup2\n    /* \"contracts/worksystems/ConfigRegistry.sol\":1103:1122  keccak256(bytes(x)) */\n  dup1\n  mload\n  swap1\n  0x20\n  add\n  keccak256\n    /* \"contracts/worksystems/ConfigRegistry.sol\":1097:1122  key = keccak256(bytes(x)) */\n  swap1\n  pop\n    /* \"contracts/worksystems/ConfigRegistry.sol\":1133:1200  ConfigFiles[key] = \"QmYdVLenJEc48at6Y7zYbw8cLLLPddjGptezzbDkcctdXv\" */\n  mload(0x40)\n  dup1\n  0x60\n  add\n  0x40\n  mstore\n  dup1\n  0x2e\n  dup2\n  mstore\n  0x20\n  add\n  data_507f8a1ce4ad31e5f1cfc5012bf644f9203cee98a968109be0dd7025e8f299f0\n  0x2e\n  swap2\n  codecopy\n    /* \"contracts/worksystems/ConfigRegistry.sol\":1133:1149  ConfigFiles[key] */\n  0x00\n  dup3\n  dup2\n  mstore\n    /* \"contracts/worksystems/ConfigRegistry.sol\":1133:1144  ConfigFiles */\n  0x01\n    /* \"contracts/worksystems/ConfigRegistry.sol\":1133:1149  ConfigFiles[key] */\n  0x20\n  swap1\n  dup2\n  mstore\n  0x40\n  swap1\n  swap2\n  keccak256\n    /* \"contracts/worksystems/ConfigRegistry.sol\":1133:1200  ConfigFiles[key] = \"QmYdVLenJEc48at6Y7zYbw8cLLLPddjGptezzbDkcctdXv\" */\n  dup3\n  mload\n  tag_14\n  swap4\n    /* \"contracts/worksystems/ConfigRegistry.sol\":1133:1149  ConfigFiles[key] */\n  swap2\n  swap3\n    /* \"contracts/worksystems/ConfigRegistry.sol\":1133:1200  ConfigFiles[key] = \"QmYdVLenJEc48at6Y7zYbw8cLLLPddjGptezzbDkcctdXv\" */\n  swap2\n  swap1\n  swap2\n  add\n  swap1\n  tag_11\n  jump\t// in\ntag_14:\n  pop\n    /* \"contracts/worksystems/ConfigRegistry.sol\":1211:1235  x = \"fake_detector_hash\" */\n  mload(0x40)\n  dup1\n  0x40\n  add\n  0x40\n  mstore\n  dup1\n  0x12\n  dup2\n  mstore\n  0x20\n  add\n  shl(0x73, 0x0ccc2d6cabec8cae8cac6e8dee4bed0c2e6d)\n  dup2\n  mstore\n  pop\n  swap2\n  pop\n    /* \"contracts/worksystems/ConfigRegistry.sol\":1268:1269  x */\n  dup2\n    /* \"contracts/worksystems/ConfigRegistry.sol\":1252:1271  keccak256(bytes(x)) */\n  dup1\n  mload\n  swap1\n  0x20\n  add\n  keccak256\n    /* \"contracts/worksystems/ConfigRegistry.sol\":1246:1271  key = keccak256(bytes(x)) */\n  swap1\n  pop\n    /* \"contracts/worksystems/ConfigRegistry.sol\":1282:1349  ConfigFiles[key] = \"QmQ4ocH6PNg5AWioDbWJQyvoZWh8VsdCjK1KCyuFjMTUdc\" */\n  mload(0x40)\n  dup1\n  0x60\n  add\n  0x40\n  mstore\n  dup1\n  0x2e\n  dup2\n  mstore\n  0x20\n  add\n  data_dc7ca0f1ff56dbfd0dd04277a24f142821603cb17cf0ccd0cf295454ea69ee02\n  0x2e\n  swap2\n  codecopy\n    /* \"contracts/worksystems/ConfigRegistry.sol\":1282:1298  ConfigFiles[key] */\n  0x00\n  dup3\n  dup2\n  mstore\n    /* \"contracts/worksystems/ConfigRegistry.sol\":1282:1293  ConfigFiles */\n  0x01\n    /* \"contracts/worksystems/ConfigRegistry.sol\":1282:1298  ConfigFiles[key] */\n  0x20\n  swap1\n  dup2\n  mstore\n  0x40\n  swap1\n  swap2\n  keccak256\n    /* \"contracts/worksystems/ConfigRegistry.sol\":1282:1349  ConfigFiles[key] = \"QmQ4ocH6PNg5AWioDbWJQyvoZWh8VsdCjK1KCyuFjMTUdc\" */\n  dup3\n  mload\n  tag_15\n  swap4\n    /* \"contracts/worksystems/ConfigRegistry.sol\":1282:1298  ConfigFiles[key] */\n  swap2\n  swap3\n    /* \"contracts/worksystems/ConfigRegistry.sol\":1282:1349  ConfigFiles[key] = \"QmQ4ocH6PNg5AWioDbWJQyvoZWh8VsdCjK1KCyuFjMTUdc\" */\n  swap2\n  swap1\n  swap2\n  add\n  swap1\n  tag_11\n  jump\t// in\ntag_15:\n  pop\n    /* \"contracts/worksystems/ConfigRegistry.sol\":1360:1385  x = \"categ_detector_hash\" */\n  mload(0x40)\n  dup1\n  0x40\n  add\n  0x40\n  mstore\n  dup1\n  0x13\n  dup2\n  mstore\n  0x20\n  add\n  0x63617465675f6465746563746f725f6861736800000000000000000000000000\n  dup2\n  mstore\n  pop\n  swap2\n  pop\n    /* \"contracts/worksystems/ConfigRegistry.sol\":1418:1419  x */\n  dup2\n    /* \"contracts/worksystems/ConfigRegistry.sol\":1402:1421  keccak256(bytes(x)) */\n  dup1\n  mload\n  swap1\n  0x20\n  add\n  keccak256\n    /* \"contracts/worksystems/ConfigRegistry.sol\":1396:1421  key = keccak256(bytes(x)) */\n  swap1\n  pop\n    /* \"contracts/worksystems/ConfigRegistry.sol\":1432:1499  ConfigFiles[key] = \"QmNU4a4sy51PH9WntRQsVvmdVFq7jhwAnGsYL2wKpSFCCT\" */\n  mload(0x40)\n  dup1\n  0x60\n  add\n  0x40\n  mstore\n  dup1\n  0x2e\n  dup2\n  mstore\n  0x20\n  add\n  data_2d8fcac727f85140360d17e8df868890c8985477f6243b2a99a7d9ee7c376322\n  0x2e\n  swap2\n  codecopy\n    /* \"contracts/worksystems/ConfigRegistry.sol\":1432:1448  ConfigFiles[key] */\n  0x00\n  dup3\n  dup2\n  mstore\n    /* \"contracts/worksystems/ConfigRegistry.sol\":1432:1443  ConfigFiles */\n  0x01\n    /* \"contracts/worksystems/ConfigRegistry.sol\":1432:1448  ConfigFiles[key] */\n  0x20\n  swap1\n  dup2\n  mstore\n  0x40\n  swap1\n  swap2\n  keccak256\n    /* \"contracts/worksystems/ConfigRegistry.sol\":1432:1499  ConfigFiles[key] = \"QmNU4a4sy51PH9WntRQsVvmdVFq7jhwAnGsYL2wKpSFCCT\" */\n  dup3\n  mload\n  tag_16\n  swap4\n    /* \"contracts/worksystems/ConfigRegistry.sol\":1432:1448  ConfigFiles[key] */\n  swap2\n  swap3\n    /* \"contracts/worksystems/ConfigRegistry.sol\":1432:1499  ConfigFiles[key] = \"QmNU4a4sy51PH9WntRQsVvmdVFq7jhwAnGsYL2wKpSFCCT\" */\n  swap2\n  swap1\n  swap2\n  add\n  swap1\n  tag_11\n  jump\t// in\ntag_16:\n  pop\n    /* \"contracts/worksystems/ConfigRegistry.sol\":1510:1533  x = \"languagesListHash\" */\n  mload(0x40)\n  dup1\n  0x40\n  add\n  0x40\n  mstore\n  dup1\n  0x11\n  dup2\n  mstore\n  0x20\n  add\n  shl(0x7b, 0x0d8c2dcceeac2cecae698d2e6e890c2e6d)\n  dup2\n  mstore\n  pop\n  swap2\n  pop\n    /* \"contracts/worksystems/ConfigRegistry.sol\":1566:1567  x */\n  dup2\n    /* \"contracts/worksystems/ConfigRegistry.sol\":1550:1569  keccak256(bytes(x)) */\n  dup1\n  mload\n  swap1\n  0x20\n  add\n  keccak256\n    /* \"contracts/worksystems/ConfigRegistry.sol\":1544:1569  key = keccak256(bytes(x)) */\n  swap1\n  pop\n    /* \"contracts/worksystems/ConfigRegistry.sol\":1580:1647  ConfigFiles[key] = \"QmQK6M7pum6W2ZRLdhgzEw7vH8GYMmvwR3aX3hFkMXWrus\" */\n  mload(0x40)\n  dup1\n  0x60\n  add\n  0x40\n  mstore\n  dup1\n  0x2e\n  dup2\n  mstore\n  0x20\n  add\n  data_85b571fd5d38c62d07e5d53f2cedb71147fee86d1aff8500ba56a32197de32c8\n  0x2e\n  swap2\n  codecopy\n    /* \"contracts/worksystems/ConfigRegistry.sol\":1580:1596  ConfigFiles[key] */\n  0x00\n  dup3\n  dup2\n  mstore\n    /* \"contracts/worksystems/ConfigRegistry.sol\":1580:1591  ConfigFiles */\n  0x01\n    /* \"contracts/worksystems/ConfigRegistry.sol\":1580:1596  ConfigFiles[key] */\n  0x20\n  swap1\n  dup2\n  mstore\n  0x40\n  swap1\n  swap2\n  keccak256\n    /* \"contracts/worksystems/ConfigRegistry.sol\":1580:1647  ConfigFiles[key] = \"QmQK6M7pum6W2ZRLdhgzEw7vH8GYMmvwR3aX3hFkMXWrus\" */\n  dup3\n  mload\n  tag_17\n  swap4\n    /* \"contracts/worksystems/ConfigRegistry.sol\":1580:1596  ConfigFiles[key] */\n  swap2\n  swap3\n    /* \"contracts/worksystems/ConfigRegistry.sol\":1580:1647  ConfigFiles[key] = \"QmQK6M7pum6W2ZRLdhgzEw7vH8GYMmvwR3aX3hFkMXWrus\" */\n  swap2\n  swap1\n  swap2\n  add\n  swap1\n  tag_11\n  jump\t// in\ntag_17:\n  pop\n    /* \"contracts/worksystems/ConfigRegistry.sol\":1658:1679  x = \"chineseDictHash\" */\n  mload(0x40)\n  dup1\n  0x40\n  add\n  0x40\n  mstore\n  dup1\n  0x0f\n  dup2\n  mstore\n  0x20\n  add\n  shl(0x8b, 0x0c6d0d2dccae6ca88d2c6e890c2e6d)\n  dup2\n  mstore\n  pop\n  swap2\n  pop\n    /* \"contracts/worksystems/ConfigRegistry.sol\":1712:1713  x */\n  dup2\n    /* \"contracts/worksystems/ConfigRegistry.sol\":1696:1715  keccak256(bytes(x)) */\n  dup1\n  mload\n  swap1\n  0x20\n  add\n  keccak256\n    /* \"contracts/worksystems/ConfigRegistry.sol\":1690:1715  key = keccak256(bytes(x)) */\n  swap1\n  pop\n    /* \"contracts/worksystems/ConfigRegistry.sol\":1726:1793  ConfigFiles[key] = \"QmPY8zU6xzwvjomzN5AkVfTa5zZp2RkXg2eM34vPECqotY\" */\n  mload(0x40)\n  dup1\n  0x60\n  add\n  0x40\n  mstore\n  dup1\n  0x2e\n  dup2\n  mstore\n  0x20\n  add\n  data_95e30a47e4b8239f8f25a3602779b867c56712c772cabb1df48f0e7c5ef841bb\n  0x2e\n  swap2\n  codecopy\n    /* \"contracts/worksystems/ConfigRegistry.sol\":1726:1742  ConfigFiles[key] */\n  0x00\n  dup3\n  dup2\n  mstore\n    /* \"contracts/worksystems/ConfigRegistry.sol\":1726:1737  ConfigFiles */\n  0x01\n    /* \"contracts/worksystems/ConfigRegistry.sol\":1726:1742  ConfigFiles[key] */\n  0x20\n  swap1\n  dup2\n  mstore\n  0x40\n  swap1\n  swap2\n  keccak256\n    /* \"contracts/worksystems/ConfigRegistry.sol\":1726:1793  ConfigFiles[key] = \"QmPY8zU6xzwvjomzN5AkVfTa5zZp2RkXg2eM34vPECqotY\" */\n  dup3\n  mload\n  tag_18\n  swap4\n    /* \"contracts/worksystems/ConfigRegistry.sol\":1726:1742  ConfigFiles[key] */\n  swap2\n  swap3\n    /* \"contracts/worksystems/ConfigRegistry.sol\":1726:1793  ConfigFiles[key] = \"QmPY8zU6xzwvjomzN5AkVfTa5zZp2RkXg2eM34vPECqotY\" */\n  swap2\n  swap1\n  swap2\n  add\n  swap1\n  tag_11\n  jump\t// in\ntag_18:\n  pop\n    /* \"contracts/worksystems/ConfigRegistry.sol\":1804:1826  x = \"japaneseDictHash\" */\n  mload(0x40)\n  dup1\n  0x40\n  add\n  0x40\n  mstore\n  dup1\n  0x10\n  dup2\n  mstore\n  0x20\n  add\n  shl(0x83, 0x0d4c2e0c2dccae6ca88d2c6e890c2e6d)\n  dup2\n  mstore\n  pop\n  swap2\n  pop\n    /* \"contracts/worksystems/ConfigRegistry.sol\":1859:1860  x */\n  dup2\n    /* \"contracts/worksystems/ConfigRegistry.sol\":1843:1862  keccak256(bytes(x)) */\n  dup1\n  mload\n  swap1\n  0x20\n  add\n  keccak256\n    /* \"contracts/worksystems/ConfigRegistry.sol\":1837:1862  key = keccak256(bytes(x)) */\n  swap1\n  pop\n    /* \"contracts/worksystems/ConfigRegistry.sol\":1873:1940  ConfigFiles[key] = \"QmfUzRtqVL9tqG11DpbJVBNoKjxQMyVuqv2uv2pinzucT6\" */\n  mload(0x40)\n  dup1\n  0x60\n  add\n  0x40\n  mstore\n  dup1\n  0x2e\n  dup2\n  mstore\n  0x20\n  add\n  data_5d1e4ea8d7ba69ec00741a8866c4ba83cfff4ab11d9ef2f3a317ece1edf26ce0\n  0x2e\n  swap2\n  codecopy\n    /* \"contracts/worksystems/ConfigRegistry.sol\":1873:1889  ConfigFiles[key] */\n  0x00\n  dup3\n  dup2\n  mstore\n    /* \"contracts/worksystems/ConfigRegistry.sol\":1873:1884  ConfigFiles */\n  0x01\n    /* \"contracts/worksystems/ConfigRegistry.sol\":1873:1889  ConfigFiles[key] */\n  0x20\n  swap1\n  dup2\n  mstore\n  0x40\n  swap1\n  swap2\n  keccak256\n    /* \"contracts/worksystems/ConfigRegistry.sol\":1873:1940  ConfigFiles[key] = \"QmfUzRtqVL9tqG11DpbJVBNoKjxQMyVuqv2uv2pinzucT6\" */\n  dup3\n  mload\n  tag_19\n  swap4\n    /* \"contracts/worksystems/ConfigRegistry.sol\":1873:1889  ConfigFiles[key] */\n  swap2\n  swap3\n    /* \"contracts/worksystems/ConfigRegistry.sol\":1873:1940  ConfigFiles[key] = \"QmfUzRtqVL9tqG11DpbJVBNoKjxQMyVuqv2uv2pinzucT6\" */\n  swap2\n  swap1\n  swap2\n  add\n  swap1\n  tag_11\n  jump\t// in\ntag_19:\n  pop\n    /* \"contracts/worksystems/ConfigRegistry.sol\":560:1955  constructor() {\r... */\n  pop\n  pop\n    /* \"contracts/worksystems/ConfigRegistry.sol\":243:3198  contract ConfigRegistry is Ownable{\r... */\n  jump(tag_34)\n    /* \"@openzeppelin/contracts/utils/Context.sol\":640:736  function _msgSender() internal view virtual returns (address) {... */\ntag_7:\n    /* \"@openzeppelin/contracts/utils/Context.sol\":719:729  msg.sender */\n  caller\n    /* \"@openzeppelin/contracts/utils/Context.sol\":640:736  function _msgSender() internal view virtual returns (address) {... */\n  swap1\n  jump\t// out\n    /* \"@openzeppelin/contracts/access/Ownable.sol\":2270:2457  function _transferOwnership(address newOwner) internal virtual {... */\ntag_8:\n    /* \"@openzeppelin/contracts/access/Ownable.sol\":2343:2359  address oldOwner */\n  0x00\n    /* \"@openzeppelin/contracts/access/Ownable.sol\":2362:2368  _owner */\n  dup1\n  sload\n  sub(shl(0xa0, 0x01), 0x01)\n    /* \"@openzeppelin/contracts/access/Ownable.sol\":2378:2395  _owner = newOwner */\n  dup4\n  dup2\n  and\n  not(sub(shl(0xa0, 0x01), 0x01))\n  dup4\n  and\n  dup2\n  or\n  dup5\n  sstore\n    /* \"@openzeppelin/contracts/access/Ownable.sol\":2410:2450  OwnershipTransferred(oldOwner, newOwner) */\n  mload(0x40)\n    /* \"@openzeppelin/contracts/access/Ownable.sol\":2362:2368  _owner */\n  swap2\n  swap1\n  swap3\n  and\n  swap3\n  dup4\n  swap2\n    /* \"@openzeppelin/contracts/access/Ownable.sol\":2410:2450  OwnershipTransferred(oldOwner, newOwner) */\n  0x8be0079c531659141344cd1fd0a4f28419497f9722a3daafe3b4186f6b6457e0\n  swap2\n    /* \"@openzeppelin/contracts/access/Ownable.sol\":2343:2359  address oldOwner */\n  swap1\n    /* \"@openzeppelin/contracts/access/Ownable.sol\":2410:2450  OwnershipTransferred(oldOwner, newOwner) */\n  log3\n    /* \"@openzeppelin/contracts/access/Ownable.sol\":2270:2457  function _transferOwnership(address newOwner) internal virtual {... */\n  pop\n  pop\n  jump\t// out\n    /* \"contracts/worksystems/ConfigRegistry.sol\":243:3198  contract ConfigRegistry is Ownable{\r... */\ntag_11:\n  dup3\n  dup1\n  sload\n  tag_23\n  swap1\n  tag_24\n  jump\t// in\ntag_23:\n  swap1\n  0x00\n  mstore\n  keccak256(0x00, 0x20)\n  swap1\n  0x1f\n  add\n  0x20\n  swap1\n  div\n  dup2\n  add\n  swap3\n  dup3\n  tag_26\n  jumpi\n  0x00\n  dup6\n  sstore\n  jump(tag_29)\ntag_26:\n  dup3\n  0x1f\n  lt\n  tag_27\n  jumpi\n  dup1\n  mload\n  not(0xff)\n  and\n  dup4\n  dup1\n  add\n  or\n  dup6\n  sstore\n  jump(tag_29)\ntag_27:\n  dup3\n  dup1\n  add\n  0x01\n  add\n  dup6\n  sstore\n  dup3\n  iszero\n  tag_29\n  jumpi\n  swap2\n  dup3\n  add\ntag_28:\n  dup3\n  dup2\n  gt\n  iszero\n  tag_29\n  jumpi\n  dup3\n  mload\n  dup3\n  sstore\n  swap2\n  0x20\n  add\n  swap2\n  swap1\n  0x01\n  add\n  swap1\n  jump(tag_28)\ntag_29:\n  pop\n  tag_30\n  swap3\n  swap2\n  pop\n  tag_31\n  jump\t// in\ntag_30:\n  pop\n  swap1\n  jump\t// out\ntag_31:\ntag_32:\n  dup1\n  dup3\n  gt\n  iszero\n  tag_30\n  jumpi\n  0x00\n  dup2\n  sstore\n  0x01\n  add\n  jump(tag_32)\n    /* \"#utility.yul\":14:394   */\ntag_24:\n    /* \"#utility.yul\":99:100   */\n  0x02\n    /* \"#utility.yul\":89:101   */\n  dup2\n  div\n    /* \"#utility.yul\":146:147   */\n  0x01\n    /* \"#utility.yul\":136:148   */\n  dup3\n  and\n  dup1\n    /* \"#utility.yul\":157:159   */\n  tag_36\n  jumpi\n    /* \"#utility.yul\":211:215   */\n  0x7f\n    /* \"#utility.yul\":203:209   */\n  dup3\n    /* \"#utility.yul\":199:216   */\n  and\n    /* \"#utility.yul\":189:216   */\n  swap2\n  pop\n    /* \"#utility.yul\":157:159   */\ntag_36:\n    /* \"#utility.yul\":264:266   */\n  0x20\n    /* \"#utility.yul\":256:262   */\n  dup3\n    /* \"#utility.yul\":253:267   */\n  lt\n    /* \"#utility.yul\":233:251   */\n  dup2\n    /* \"#utility.yul\":230:268   */\n  eq\n    /* \"#utility.yul\":227:229   */\n  iszero\n  tag_37\n  jumpi\n    /* \"#utility.yul\":310:320   */\n  0x4e487b71\n    /* \"#utility.yul\":305:308   */\n  0xe0\n    /* \"#utility.yul\":301:321   */\n  shl\n    /* \"#utility.yul\":298:299   */\n  0x00\n    /* \"#utility.yul\":291:322   */\n  mstore\n    /* \"#utility.yul\":345:349   */\n  0x22\n    /* \"#utility.yul\":342:343   */\n  0x04\n    /* \"#utility.yul\":335:350   */\n  mstore\n    /* \"#utility.yul\":373:377   */\n  0x24\n    /* \"#utility.yul\":370:371   */\n  0x00\n    /* \"#utility.yul\":363:378   */\n  revert\n    /* \"#utility.yul\":227:229   */\ntag_37:\n  pop\n    /* \"#utility.yul\":69:394   */\n  swap2\n  swap1\n  pop\n  jump\t// out\ntag_34:\n    /* \"contracts/worksystems/ConfigRegistry.sol\":243:3198  contract ConfigRegistry is Ownable{\r... */\n  dataSize(sub_0)\n  dup1\n  dataOffset(sub_0)\n  0x00\n  codecopy\n  0x00\n  return\nstop\ndata_2d8fcac727f85140360d17e8df868890c8985477f6243b2a99a7d9ee7c376322 516d4e5534613473793531504839576e7452517356766d64564671376a6877416e4773594c32774b705346434354\ndata_3b60d54776104f1294fe496d856530a29990182d91149e78579b340531a598dc 516d63327477385a7745524d526d794755316379775044734d4c6b51766b4e45775275454355486e5575634c6e68\ndata_507f8a1ce4ad31e5f1cfc5012bf644f9203cee98a968109be0dd7025e8f299f0 516d5964564c656e4a4563343861743659377a59627738634c4c4c5064646a477074657a7a62446b636374645876\ndata_5d1e4ea8d7ba69ec00741a8866c4ba83cfff4ab11d9ef2f3a317ece1edf26ce0 516d66557a527471564c3974714731314470624a56424e6f4b6a78514d79567571763275763270696e7a75635436\ndata_5e499ff00d1394a0afdb6e4ba6202c1fc2badc642e7bf2acffa5bb71f2e76a46 516d625a7a5663437766684b346a5971555752377959466954325963525136377958486f5874376a65665a6a7246\ndata_85b571fd5d38c62d07e5d53f2cedb71147fee86d1aff8500ba56a32197de32c8 516d514b364d3770756d3657325a524c6468677a45773776483847594d6d7677523361583368466b4d5857727573\ndata_95e30a47e4b8239f8f25a3602779b867c56712c772cabb1df48f0e7c5ef841bb 516d5059387a5536787a77766a6f6d7a4e35416b56665461357a5a7032526b586732654d333476504543716f7459\ndata_dc7ca0f1ff56dbfd0dd04277a24f142821603cb17cf0ccd0cf295454ea69ee02 516d51346f634836504e67354157696f4462574a5179766f5a576838567364436a4b314b437975466a4d54556463\ndata_f4242e8a760d0c162e454795f8e9f708334b2aa46f7171d5953fb91a4336db0e 516d62787936594d6431484e446f4b44644754414b59645642755547556b413137615156596474484a7636667a64\n\nsub_0: assembly {\n        /* \"contracts/worksystems/ConfigRegistry.sol\":243:3198  contract ConfigRegistry is Ownable{\r... */\n      mstore(0x40, 0x80)\n      callvalue\n      dup1\n      iszero\n      tag_1\n      jumpi\n      0x00\n      dup1\n      revert\n    tag_1:\n      pop\n      jumpi(tag_2, lt(calldatasize, 0x04))\n      shr(0xe0, calldataload(0x00))\n      dup1\n      0x5b6beeb9\n      eq\n      tag_3\n      jumpi\n      dup1\n      0x693ec85e\n      eq\n      tag_4\n      jumpi\n      dup1\n      0x715018a6\n      eq\n      tag_5\n      jumpi\n      dup1\n      0x773f44b9\n      eq\n      tag_6\n      jumpi\n      dup1\n      0x8da5cb5b\n      eq\n      tag_7\n      jumpi\n      dup1\n      0xe7ef321c\n      eq\n      tag_8\n      jumpi\n      dup1\n      0xf2fde38b\n      eq\n      tag_9\n      jumpi\n    tag_2:\n      0x00\n      dup1\n      revert\n        /* \"contracts/worksystems/ConfigRegistry.sol\":3063:3189  function getHash(string calldata key) public pure returns (bytes32) {\r... */\n    tag_3:\n      tag_10\n      tag_11\n      calldatasize\n      0x04\n      tag_12\n      jump\t// in\n    tag_11:\n      tag_13\n      jump\t// in\n    tag_10:\n      mload(0x40)\n      tag_14\n      swap2\n      swap1\n      tag_15\n      jump\t// in\n    tag_14:\n      mload(0x40)\n      dup1\n      swap2\n      sub\n      swap1\n      return\n        /* \"contracts/worksystems/ConfigRegistry.sol\":2876:3051  function get(string calldata key) public view returns (string memory) {\r... */\n    tag_4:\n      tag_16\n      tag_17\n      calldatasize\n      0x04\n      tag_12\n      jump\t// in\n    tag_17:\n      tag_18\n      jump\t// in\n    tag_16:\n      mload(0x40)\n      tag_14\n      swap2\n      swap1\n      tag_20\n      jump\t// in\n        /* \"@openzeppelin/contracts/access/Ownable.sol\":1668:1769  function renounceOwnership() public virtual onlyOwner {... */\n    tag_5:\n      tag_21\n      tag_22\n      jump\t// in\n    tag_21:\n      stop\n        /* \"contracts/worksystems/ConfigRegistry.sol\":2064:2574  function add(string calldata key, string calldata value, bool overwrite) public onlyOwner returns (bool) {\r... */\n    tag_6:\n      tag_23\n      tag_24\n      calldatasize\n      0x04\n      tag_25\n      jump\t// in\n    tag_24:\n      tag_26\n      jump\t// in\n    tag_23:\n      mload(0x40)\n      tag_14\n      swap2\n      swap1\n      tag_28\n      jump\t// in\n        /* \"@openzeppelin/contracts/access/Ownable.sol\":1036:1121  function owner() public view virtual returns (address) {... */\n    tag_7:\n      tag_29\n      tag_30\n      jump\t// in\n    tag_29:\n      mload(0x40)\n      tag_14\n      swap2\n      swap1\n      tag_32\n      jump\t// in\n        /* \"contracts/worksystems/ConfigRegistry.sol\":2586:2864  function addByHash(bytes32 hash, string calldata value, bool overwrite) public onlyOwner returns (bool) {\r... */\n    tag_8:\n      tag_23\n      tag_34\n      calldatasize\n      0x04\n      tag_35\n      jump\t// in\n    tag_34:\n      tag_36\n      jump\t// in\n        /* \"@openzeppelin/contracts/access/Ownable.sol\":1918:2116  function transferOwnership(address newOwner) public virtual onlyOwner {... */\n    tag_9:\n      tag_21\n      tag_39\n      calldatasize\n      0x04\n      tag_40\n      jump\t// in\n    tag_39:\n      tag_41\n      jump\t// in\n        /* \"contracts/worksystems/ConfigRegistry.sol\":3063:3189  function getHash(string calldata key) public pure returns (bytes32) {\r... */\n    tag_13:\n        /* \"contracts/worksystems/ConfigRegistry.sol\":3122:3129  bytes32 */\n      0x00\n        /* \"contracts/worksystems/ConfigRegistry.sol\":3176:3179  key */\n      dup3\n      dup3\n        /* \"contracts/worksystems/ConfigRegistry.sol\":3159:3180  abi.encodePacked(key) */\n      add(0x20, mload(0x40))\n      tag_43\n      swap3\n      swap2\n      swap1\n      tag_44\n      jump\t// in\n    tag_43:\n      mload(0x40)\n      0x20\n      dup2\n      dup4\n      sub\n      sub\n      dup2\n      mstore\n      swap1\n      0x40\n      mstore\n        /* \"contracts/worksystems/ConfigRegistry.sol\":3149:3181  keccak256(abi.encodePacked(key)) */\n      dup1\n      mload\n      swap1\n      0x20\n      add\n      keccak256\n        /* \"contracts/worksystems/ConfigRegistry.sol\":3142:3181  return keccak256(abi.encodePacked(key)) */\n      swap1\n      pop\n        /* \"contracts/worksystems/ConfigRegistry.sol\":3063:3189  function getHash(string calldata key) public pure returns (bytes32) {\r... */\n      swap3\n      swap2\n      pop\n      pop\n      jump\t// out\n        /* \"contracts/worksystems/ConfigRegistry.sol\":2876:3051  function get(string calldata key) public view returns (string memory) {\r... */\n    tag_18:\n        /* \"contracts/worksystems/ConfigRegistry.sol\":2931:2944  string memory */\n      0x60\n        /* \"contracts/worksystems/ConfigRegistry.sol\":2961:2973  bytes32 hash */\n      0x00\n        /* \"contracts/worksystems/ConfigRegistry.sol\":3003:3006  key */\n      dup4\n      dup4\n        /* \"contracts/worksystems/ConfigRegistry.sol\":2986:3007  abi.encodePacked(key) */\n      add(0x20, mload(0x40))\n      tag_46\n      swap3\n      swap2\n      swap1\n      tag_44\n      jump\t// in\n    tag_46:\n      mload(0x40)\n      0x20\n      dup2\n      dup4\n      sub\n      sub\n      dup2\n      mstore\n      swap1\n      0x40\n      mstore\n        /* \"contracts/worksystems/ConfigRegistry.sol\":2976:3008  keccak256(abi.encodePacked(key)) */\n      dup1\n      mload\n      swap1\n      0x20\n      add\n      keccak256\n        /* \"contracts/worksystems/ConfigRegistry.sol\":2961:3008  bytes32 hash = keccak256(abi.encodePacked(key)) */\n      swap1\n      pop\n        /* \"contracts/worksystems/ConfigRegistry.sol\":3026:3037  ConfigFiles */\n      0x01\n        /* \"contracts/worksystems/ConfigRegistry.sol\":3026:3043  ConfigFiles[hash] */\n      0x00\n        /* \"contracts/worksystems/ConfigRegistry.sol\":3038:3042  hash */\n      dup3\n        /* \"contracts/worksystems/ConfigRegistry.sol\":3026:3043  ConfigFiles[hash] */\n      dup2\n      mstore\n      0x20\n      add\n      swap1\n      dup2\n      mstore\n      0x20\n      add\n      0x00\n      keccak256\n        /* \"contracts/worksystems/ConfigRegistry.sol\":3019:3043  return ConfigFiles[hash] */\n      dup1\n      sload\n      tag_47\n      swap1\n      tag_48\n      jump\t// in\n    tag_47:\n      dup1\n      0x1f\n      add\n      0x20\n      dup1\n      swap2\n      div\n      mul\n      0x20\n      add\n      mload(0x40)\n      swap1\n      dup2\n      add\n      0x40\n      mstore\n      dup1\n      swap3\n      swap2\n      swap1\n      dup2\n      dup2\n      mstore\n      0x20\n      add\n      dup3\n      dup1\n      sload\n      tag_49\n      swap1\n      tag_48\n      jump\t// in\n    tag_49:\n      dup1\n      iszero\n      tag_50\n      jumpi\n      dup1\n      0x1f\n      lt\n      tag_51\n      jumpi\n      0x0100\n      dup1\n      dup4\n      sload\n      div\n      mul\n      dup4\n      mstore\n      swap2\n      0x20\n      add\n      swap2\n      jump(tag_50)\n    tag_51:\n      dup3\n      add\n      swap2\n      swap1\n      0x00\n      mstore\n      keccak256(0x00, 0x20)\n      swap1\n    tag_52:\n      dup2\n      sload\n      dup2\n      mstore\n      swap1\n      0x01\n      add\n      swap1\n      0x20\n      add\n      dup1\n      dup4\n      gt\n      tag_52\n      jumpi\n      dup3\n      swap1\n      sub\n      0x1f\n      and\n      dup3\n      add\n      swap2\n    tag_50:\n      pop\n      pop\n      pop\n      pop\n      pop\n      swap2\n      pop\n      pop\n        /* \"contracts/worksystems/ConfigRegistry.sol\":2876:3051  function get(string calldata key) public view returns (string memory) {\r... */\n      swap3\n      swap2\n      pop\n      pop\n      jump\t// out\n        /* \"@openzeppelin/contracts/access/Ownable.sol\":1668:1769  function renounceOwnership() public virtual onlyOwner {... */\n    tag_22:\n        /* \"@openzeppelin/contracts/access/Ownable.sol\":1259:1271  _msgSender() */\n      tag_54\n        /* \"@openzeppelin/contracts/access/Ownable.sol\":1259:1269  _msgSender */\n      tag_55\n        /* \"@openzeppelin/contracts/access/Ownable.sol\":1259:1271  _msgSender() */\n      jump\t// in\n    tag_54:\n      sub(shl(0xa0, 0x01), 0x01)\n        /* \"@openzeppelin/contracts/access/Ownable.sol\":1248:1271  owner() == _msgSender() */\n      and\n        /* \"@openzeppelin/contracts/access/Ownable.sol\":1248:1255  owner() */\n      tag_56\n        /* \"@openzeppelin/contracts/access/Ownable.sol\":1248:1253  owner */\n      tag_30\n        /* \"@openzeppelin/contracts/access/Ownable.sol\":1248:1255  owner() */\n      jump\t// in\n    tag_56:\n      sub(shl(0xa0, 0x01), 0x01)\n        /* \"@openzeppelin/contracts/access/Ownable.sol\":1248:1271  owner() == _msgSender() */\n      and\n      eq\n        /* \"@openzeppelin/contracts/access/Ownable.sol\":1240:1308  require(owner() == _msgSender(), \"Ownable: caller is not the owner\") */\n      tag_57\n      jumpi\n      mload(0x40)\n      shl(0xe5, 0x461bcd)\n      dup2\n      mstore\n      0x04\n      add\n      tag_58\n      swap1\n      tag_59\n      jump\t// in\n    tag_58:\n      mload(0x40)\n      dup1\n      swap2\n      sub\n      swap1\n      revert\n    tag_57:\n        /* \"@openzeppelin/contracts/access/Ownable.sol\":1732:1762  _transferOwnership(address(0)) */\n      tag_61\n        /* \"@openzeppelin/contracts/access/Ownable.sol\":1759:1760  0 */\n      0x00\n        /* \"@openzeppelin/contracts/access/Ownable.sol\":1732:1750  _transferOwnership */\n      tag_62\n        /* \"@openzeppelin/contracts/access/Ownable.sol\":1732:1762  _transferOwnership(address(0)) */\n      jump\t// in\n    tag_61:\n        /* \"@openzeppelin/contracts/access/Ownable.sol\":1668:1769  function renounceOwnership() public virtual onlyOwner {... */\n      jump\t// out\n        /* \"contracts/worksystems/ConfigRegistry.sol\":2064:2574  function add(string calldata key, string calldata value, bool overwrite) public onlyOwner returns (bool) {\r... */\n    tag_26:\n        /* \"contracts/worksystems/ConfigRegistry.sol\":2163:2167  bool */\n      0x00\n        /* \"@openzeppelin/contracts/access/Ownable.sol\":1259:1271  _msgSender() */\n      tag_64\n        /* \"@openzeppelin/contracts/access/Ownable.sol\":1259:1269  _msgSender */\n      tag_55\n        /* \"@openzeppelin/contracts/access/Ownable.sol\":1259:1271  _msgSender() */\n      jump\t// in\n    tag_64:\n      sub(shl(0xa0, 0x01), 0x01)\n        /* \"@openzeppelin/contracts/access/Ownable.sol\":1248:1271  owner() == _msgSender() */\n      and\n        /* \"@openzeppelin/contracts/access/Ownable.sol\":1248:1255  owner() */\n      tag_65\n        /* \"@openzeppelin/contracts/access/Ownable.sol\":1248:1253  owner */\n      tag_30\n        /* \"@openzeppelin/contracts/access/Ownable.sol\":1248:1255  owner() */\n      jump\t// in\n    tag_65:\n      sub(shl(0xa0, 0x01), 0x01)\n        /* \"@openzeppelin/contracts/access/Ownable.sol\":1248:1271  owner() == _msgSender() */\n      and\n      eq\n        /* \"@openzeppelin/contracts/access/Ownable.sol\":1240:1308  require(owner() == _msgSender(), \"Ownable: caller is not the owner\") */\n      tag_66\n      jumpi\n      mload(0x40)\n      shl(0xe5, 0x461bcd)\n      dup2\n      mstore\n      0x04\n      add\n      tag_58\n      swap1\n      tag_59\n      jump\t// in\n    tag_66:\n        /* \"contracts/worksystems/ConfigRegistry.sol\":2184:2196  bytes32 hash */\n      0x00\n        /* \"contracts/worksystems/ConfigRegistry.sol\":2226:2229  key */\n      dup7\n      dup7\n        /* \"contracts/worksystems/ConfigRegistry.sol\":2209:2230  abi.encodePacked(key) */\n      add(0x20, mload(0x40))\n      tag_69\n      swap3\n      swap2\n      swap1\n      tag_44\n      jump\t// in\n    tag_69:\n      mload(0x40)\n      0x20\n      dup2\n      dup4\n      sub\n      sub\n      dup2\n      mstore\n      swap1\n      0x40\n      mstore\n        /* \"contracts/worksystems/ConfigRegistry.sol\":2199:2231  keccak256(abi.encodePacked(key)) */\n      dup1\n      mload\n      swap1\n      0x20\n      add\n      keccak256\n        /* \"contracts/worksystems/ConfigRegistry.sol\":2184:2231  bytes32 hash = keccak256(abi.encodePacked(key)) */\n      swap1\n      pop\n        /* \"contracts/worksystems/ConfigRegistry.sol\":2395:2404  overwrite */\n      dup3\n        /* \"contracts/worksystems/ConfigRegistry.sol\":2395:2444  overwrite || bytes(ConfigFiles[hash]).length == 0 */\n      dup1\n      tag_70\n      jumpi\n      pop\n        /* \"contracts/worksystems/ConfigRegistry.sol\":2414:2431  ConfigFiles[hash] */\n      0x00\n      dup2\n      dup2\n      mstore\n        /* \"contracts/worksystems/ConfigRegistry.sol\":2414:2425  ConfigFiles */\n      0x01\n        /* \"contracts/worksystems/ConfigRegistry.sol\":2414:2431  ConfigFiles[hash] */\n      0x20\n      mstore\n      0x40\n      swap1\n      keccak256\n        /* \"contracts/worksystems/ConfigRegistry.sol\":2408:2439  bytes(ConfigFiles[hash]).length */\n      dup1\n      sload\n      tag_71\n      swap1\n      tag_48\n      jump\t// in\n    tag_71:\n        /* \"contracts/worksystems/ConfigRegistry.sol\":2408:2444  bytes(ConfigFiles[hash]).length == 0 */\n      iszero\n      swap1\n      pop\n        /* \"contracts/worksystems/ConfigRegistry.sol\":2395:2444  overwrite || bytes(ConfigFiles[hash]).length == 0 */\n    tag_70:\n        /* \"contracts/worksystems/ConfigRegistry.sol\":2391:2536  if (overwrite || bytes(ConfigFiles[hash]).length == 0) {\r... */\n      iszero\n      tag_72\n      jumpi\n        /* \"contracts/worksystems/ConfigRegistry.sol\":2465:2482  ConfigFiles[hash] */\n      0x00\n      dup2\n      dup2\n      mstore\n        /* \"contracts/worksystems/ConfigRegistry.sol\":2465:2476  ConfigFiles */\n      0x01\n        /* \"contracts/worksystems/ConfigRegistry.sol\":2465:2482  ConfigFiles[hash] */\n      0x20\n      mstore\n      0x40\n      swap1\n      keccak256\n        /* \"contracts/worksystems/ConfigRegistry.sol\":2465:2490  ConfigFiles[hash] = value */\n      tag_73\n      swap1\n        /* \"contracts/worksystems/ConfigRegistry.sol\":2485:2490  value */\n      dup7\n      dup7\n        /* \"contracts/worksystems/ConfigRegistry.sol\":2465:2490  ConfigFiles[hash] = value */\n      tag_74\n      jump\t// in\n    tag_73:\n      pop\n        /* \"contracts/worksystems/ConfigRegistry.sol\":2516:2520  true */\n      0x01\n        /* \"contracts/worksystems/ConfigRegistry.sol\":2509:2520  return true */\n      swap2\n      pop\n      pop\n      jump(tag_68)\n        /* \"contracts/worksystems/ConfigRegistry.sol\":2391:2536  if (overwrite || bytes(ConfigFiles[hash]).length == 0) {\r... */\n    tag_72:\n        /* \"contracts/worksystems/ConfigRegistry.sol\":2557:2562  false */\n      0x00\n        /* \"contracts/worksystems/ConfigRegistry.sol\":2550:2562  return false */\n      swap2\n      pop\n      pop\n        /* \"@openzeppelin/contracts/access/Ownable.sol\":1318:1319  _ */\n    tag_68:\n        /* \"contracts/worksystems/ConfigRegistry.sol\":2064:2574  function add(string calldata key, string calldata value, bool overwrite) public onlyOwner returns (bool) {\r... */\n      swap6\n      swap5\n      pop\n      pop\n      pop\n      pop\n      pop\n      jump\t// out\n        /* \"@openzeppelin/contracts/access/Ownable.sol\":1036:1121  function owner() public view virtual returns (address) {... */\n    tag_30:\n        /* \"@openzeppelin/contracts/access/Ownable.sol\":1082:1089  address */\n      0x00\n        /* \"@openzeppelin/contracts/access/Ownable.sol\":1108:1114  _owner */\n      sload\n      sub(shl(0xa0, 0x01), 0x01)\n      and\n        /* \"@openzeppelin/contracts/access/Ownable.sol\":1036:1121  function owner() public view virtual returns (address) {... */\n      swap1\n      jump\t// out\n        /* \"contracts/worksystems/ConfigRegistry.sol\":2586:2864  function addByHash(bytes32 hash, string calldata value, bool overwrite) public onlyOwner returns (bool) {\r... */\n    tag_36:\n        /* \"contracts/worksystems/ConfigRegistry.sol\":2684:2688  bool */\n      0x00\n        /* \"@openzeppelin/contracts/access/Ownable.sol\":1259:1271  _msgSender() */\n      tag_77\n        /* \"@openzeppelin/contracts/access/Ownable.sol\":1259:1269  _msgSender */\n      tag_55\n        /* \"@openzeppelin/contracts/access/Ownable.sol\":1259:1271  _msgSender() */\n      jump\t// in\n    tag_77:\n      sub(shl(0xa0, 0x01), 0x01)\n        /* \"@openzeppelin/contracts/access/Ownable.sol\":1248:1271  owner() == _msgSender() */\n      and\n        /* \"@openzeppelin/contracts/access/Ownable.sol\":1248:1255  owner() */\n      tag_78\n        /* \"@openzeppelin/contracts/access/Ownable.sol\":1248:1253  owner */\n      tag_30\n        /* \"@openzeppelin/contracts/access/Ownable.sol\":1248:1255  owner() */\n      jump\t// in\n    tag_78:\n      sub(shl(0xa0, 0x01), 0x01)\n        /* \"@openzeppelin/contracts/access/Ownable.sol\":1248:1271  owner() == _msgSender() */\n      and\n      eq\n        /* \"@openzeppelin/contracts/access/Ownable.sol\":1240:1308  require(owner() == _msgSender(), \"Ownable: caller is not the owner\") */\n      tag_79\n      jumpi\n      mload(0x40)\n      shl(0xe5, 0x461bcd)\n      dup2\n      mstore\n      0x04\n      add\n      tag_58\n      swap1\n      tag_59\n      jump\t// in\n    tag_79:\n        /* \"contracts/worksystems/ConfigRegistry.sol\":2705:2714  overwrite */\n      dup2\n        /* \"contracts/worksystems/ConfigRegistry.sol\":2705:2754  overwrite || bytes(ConfigFiles[hash]).length == 0 */\n      dup1\n      tag_82\n      jumpi\n      pop\n        /* \"contracts/worksystems/ConfigRegistry.sol\":2724:2741  ConfigFiles[hash] */\n      0x00\n      dup6\n      dup2\n      mstore\n        /* \"contracts/worksystems/ConfigRegistry.sol\":2724:2735  ConfigFiles */\n      0x01\n        /* \"contracts/worksystems/ConfigRegistry.sol\":2724:2741  ConfigFiles[hash] */\n      0x20\n      mstore\n      0x40\n      swap1\n      keccak256\n        /* \"contracts/worksystems/ConfigRegistry.sol\":2718:2749  bytes(ConfigFiles[hash]).length */\n      dup1\n      sload\n      tag_83\n      swap1\n      tag_48\n      jump\t// in\n    tag_83:\n        /* \"contracts/worksystems/ConfigRegistry.sol\":2718:2754  bytes(ConfigFiles[hash]).length == 0 */\n      iszero\n      swap1\n      pop\n        /* \"contracts/worksystems/ConfigRegistry.sol\":2705:2754  overwrite || bytes(ConfigFiles[hash]).length == 0 */\n    tag_82:\n        /* \"contracts/worksystems/ConfigRegistry.sol\":2701:2834  if (overwrite || bytes(ConfigFiles[hash]).length == 0) {\r... */\n      iszero\n      tag_84\n      jumpi\n        /* \"contracts/worksystems/ConfigRegistry.sol\":2771:2788  ConfigFiles[hash] */\n      0x00\n      dup6\n      dup2\n      mstore\n        /* \"contracts/worksystems/ConfigRegistry.sol\":2771:2782  ConfigFiles */\n      0x01\n        /* \"contracts/worksystems/ConfigRegistry.sol\":2771:2788  ConfigFiles[hash] */\n      0x20\n      mstore\n      0x40\n      swap1\n      keccak256\n        /* \"contracts/worksystems/ConfigRegistry.sol\":2771:2796  ConfigFiles[hash] = value */\n      tag_85\n      swap1\n        /* \"contracts/worksystems/ConfigRegistry.sol\":2791:2796  value */\n      dup6\n      dup6\n        /* \"contracts/worksystems/ConfigRegistry.sol\":2771:2796  ConfigFiles[hash] = value */\n      tag_74\n      jump\t// in\n    tag_85:\n      pop\n        /* \"contracts/worksystems/ConfigRegistry.sol\":2818:2822  true */\n      0x01\n        /* \"contracts/worksystems/ConfigRegistry.sol\":2811:2822  return true */\n      swap1\n      pop\n      jump(tag_81)\n        /* \"contracts/worksystems/ConfigRegistry.sol\":2701:2834  if (overwrite || bytes(ConfigFiles[hash]).length == 0) {\r... */\n    tag_84:\n      pop\n        /* \"contracts/worksystems/ConfigRegistry.sol\":2851:2856  false */\n      0x00\n        /* \"@openzeppelin/contracts/access/Ownable.sol\":1318:1319  _ */\n    tag_81:\n        /* \"contracts/worksystems/ConfigRegistry.sol\":2586:2864  function addByHash(bytes32 hash, string calldata value, bool overwrite) public onlyOwner returns (bool) {\r... */\n      swap5\n      swap4\n      pop\n      pop\n      pop\n      pop\n      jump\t// out\n        /* \"@openzeppelin/contracts/access/Ownable.sol\":1918:2116  function transferOwnership(address newOwner) public virtual onlyOwner {... */\n    tag_41:\n        /* \"@openzeppelin/contracts/access/Ownable.sol\":1259:1271  _msgSender() */\n      tag_87\n        /* \"@openzeppelin/contracts/access/Ownable.sol\":1259:1269  _msgSender */\n      tag_55\n        /* \"@openzeppelin/contracts/access/Ownable.sol\":1259:1271  _msgSender() */\n      jump\t// in\n    tag_87:\n      sub(shl(0xa0, 0x01), 0x01)\n        /* \"@openzeppelin/contracts/access/Ownable.sol\":1248:1271  owner() == _msgSender() */\n      and\n        /* \"@openzeppelin/contracts/access/Ownable.sol\":1248:1255  owner() */\n      tag_88\n        /* \"@openzeppelin/contracts/access/Ownable.sol\":1248:1253  owner */\n      tag_30\n        /* \"@openzeppelin/contracts/access/Ownable.sol\":1248:1255  owner() */\n      jump\t// in\n    tag_88:\n      sub(shl(0xa0, 0x01), 0x01)\n        /* \"@openzeppelin/contracts/access/Ownable.sol\":1248:1271  owner() == _msgSender() */\n      and\n      eq\n        /* \"@openzeppelin/contracts/access/Ownable.sol\":1240:1308  require(owner() == _msgSender(), \"Ownable: caller is not the owner\") */\n      tag_89\n      jumpi\n      mload(0x40)\n      shl(0xe5, 0x461bcd)\n      dup2\n      mstore\n      0x04\n      add\n      tag_58\n      swap1\n      tag_59\n      jump\t// in\n    tag_89:\n      sub(shl(0xa0, 0x01), 0x01)\n        /* \"@openzeppelin/contracts/access/Ownable.sol\":2006:2028  newOwner != address(0) */\n      dup2\n      and\n        /* \"@openzeppelin/contracts/access/Ownable.sol\":1998:2071  require(newOwner != address(0), \"Ownable: new owner is the zero address\") */\n      tag_92\n      jumpi\n      mload(0x40)\n      shl(0xe5, 0x461bcd)\n      dup2\n      mstore\n      0x04\n      add\n      tag_58\n      swap1\n      tag_94\n      jump\t// in\n    tag_92:\n        /* \"@openzeppelin/contracts/access/Ownable.sol\":2081:2109  _transferOwnership(newOwner) */\n      tag_95\n        /* \"@openzeppelin/contracts/access/Ownable.sol\":2100:2108  newOwner */\n      dup2\n        /* \"@openzeppelin/contracts/access/Ownable.sol\":2081:2099  _transferOwnership */\n      tag_62\n        /* \"@openzeppelin/contracts/access/Ownable.sol\":2081:2109  _transferOwnership(newOwner) */\n      jump\t// in\n    tag_95:\n        /* \"@openzeppelin/contracts/access/Ownable.sol\":1918:2116  function transferOwnership(address newOwner) public virtual onlyOwner {... */\n      pop\n      jump\t// out\n        /* \"@openzeppelin/contracts/utils/Context.sol\":640:736  function _msgSender() internal view virtual returns (address) {... */\n    tag_55:\n        /* \"@openzeppelin/contracts/utils/Context.sol\":719:729  msg.sender */\n      caller\n        /* \"@openzeppelin/contracts/utils/Context.sol\":640:736  function _msgSender() internal view virtual returns (address) {... */\n      swap1\n      jump\t// out\n        /* \"@openzeppelin/contracts/access/Ownable.sol\":2270:2457  function _transferOwnership(address newOwner) internal virtual {... */\n    tag_62:\n        /* \"@openzeppelin/contracts/access/Ownable.sol\":2343:2359  address oldOwner */\n      0x00\n        /* \"@openzeppelin/contracts/access/Ownable.sol\":2362:2368  _owner */\n      dup1\n      sload\n      sub(shl(0xa0, 0x01), 0x01)\n        /* \"@openzeppelin/contracts/access/Ownable.sol\":2378:2395  _owner = newOwner */\n      dup4\n      dup2\n      and\n      not(sub(shl(0xa0, 0x01), 0x01))\n      dup4\n      and\n      dup2\n      or\n      dup5\n      sstore\n        /* \"@openzeppelin/contracts/access/Ownable.sol\":2410:2450  OwnershipTransferred(oldOwner, newOwner) */\n      mload(0x40)\n        /* \"@openzeppelin/contracts/access/Ownable.sol\":2362:2368  _owner */\n      swap2\n      swap1\n      swap3\n      and\n      swap3\n      dup4\n      swap2\n        /* \"@openzeppelin/contracts/access/Ownable.sol\":2410:2450  OwnershipTransferred(oldOwner, newOwner) */\n      0x8be0079c531659141344cd1fd0a4f28419497f9722a3daafe3b4186f6b6457e0\n      swap2\n        /* \"@openzeppelin/contracts/access/Ownable.sol\":2343:2359  address oldOwner */\n      swap1\n        /* \"@openzeppelin/contracts/access/Ownable.sol\":2410:2450  OwnershipTransferred(oldOwner, newOwner) */\n      log3\n        /* \"@openzeppelin/contracts/access/Ownable.sol\":2270:2457  function _transferOwnership(address newOwner) internal virtual {... */\n      pop\n      pop\n      jump\t// out\n    tag_74:\n      dup3\n      dup1\n      sload\n      tag_98\n      swap1\n      tag_48\n      jump\t// in\n    tag_98:\n      swap1\n      0x00\n      mstore\n      keccak256(0x00, 0x20)\n      swap1\n      0x1f\n      add\n      0x20\n      swap1\n      div\n      dup2\n      add\n      swap3\n      dup3\n      tag_100\n      jumpi\n      0x00\n      dup6\n      sstore\n      jump(tag_103)\n    tag_100:\n      dup3\n      0x1f\n      lt\n      tag_101\n      jumpi\n      dup3\n      dup1\n      add\n      not(0xff)\n      dup3\n      calldataload\n      and\n      or\n      dup6\n      sstore\n      jump(tag_103)\n    tag_101:\n      dup3\n      dup1\n      add\n      0x01\n      add\n      dup6\n      sstore\n      dup3\n      iszero\n      tag_103\n      jumpi\n      swap2\n      dup3\n      add\n    tag_102:\n      dup3\n      dup2\n      gt\n      iszero\n      tag_103\n      jumpi\n      dup3\n      calldataload\n      dup3\n      sstore\n      swap2\n      0x20\n      add\n      swap2\n      swap1\n      0x01\n      add\n      swap1\n      jump(tag_102)\n    tag_103:\n      pop\n      tag_104\n      swap3\n      swap2\n      pop\n      tag_105\n      jump\t// in\n    tag_104:\n      pop\n      swap1\n      jump\t// out\n    tag_105:\n    tag_106:\n      dup1\n      dup3\n      gt\n      iszero\n      tag_104\n      jumpi\n      0x00\n      dup2\n      sstore\n      0x01\n      add\n      jump(tag_106)\n        /* \"#utility.yul\":14:176   */\n    tag_109:\n        /* \"#utility.yul\":81:101   */\n      dup1\n      calldataload\n        /* \"#utility.yul\":137:150   */\n      dup1\n      iszero\n        /* \"#utility.yul\":130:151   */\n      iszero\n        /* \"#utility.yul\":120:152   */\n      dup2\n      eq\n        /* \"#utility.yul\":110:112   */\n      tag_111\n      jumpi\n        /* \"#utility.yul\":166:167   */\n      0x00\n        /* \"#utility.yul\":163:164   */\n      dup1\n        /* \"#utility.yul\":156:168   */\n      revert\n        /* \"#utility.yul\":110:112   */\n    tag_111:\n        /* \"#utility.yul\":62:176   */\n      swap2\n      swap1\n      pop\n      jump\t// out\n        /* \"#utility.yul\":181:559   */\n    tag_112:\n      0x00\n      dup1\n        /* \"#utility.yul\":299:302   */\n      dup4\n        /* \"#utility.yul\":292:296   */\n      0x1f\n        /* \"#utility.yul\":284:290   */\n      dup5\n        /* \"#utility.yul\":280:297   */\n      add\n        /* \"#utility.yul\":276:303   */\n      slt\n        /* \"#utility.yul\":266:268   */\n      tag_114\n      jumpi\n        /* \"#utility.yul\":324:332   */\n      dup2\n        /* \"#utility.yul\":314:322   */\n      dup3\n        /* \"#utility.yul\":307:333   */\n      revert\n        /* \"#utility.yul\":266:268   */\n    tag_114:\n      pop\n        /* \"#utility.yul\":354:374   */\n      dup2\n      calldataload\n      sub(shl(0x40, 0x01), 0x01)\n        /* \"#utility.yul\":386:416   */\n      dup2\n      gt\n        /* \"#utility.yul\":383:385   */\n      iszero\n      tag_115\n      jumpi\n        /* \"#utility.yul\":436:444   */\n      dup2\n        /* \"#utility.yul\":426:434   */\n      dup3\n        /* \"#utility.yul\":419:445   */\n      revert\n        /* \"#utility.yul\":383:385   */\n    tag_115:\n        /* \"#utility.yul\":480:484   */\n      0x20\n        /* \"#utility.yul\":472:478   */\n      dup4\n        /* \"#utility.yul\":468:485   */\n      add\n        /* \"#utility.yul\":456:485   */\n      swap2\n      pop\n        /* \"#utility.yul\":532:535   */\n      dup4\n        /* \"#utility.yul\":525:529   */\n      0x20\n        /* \"#utility.yul\":516:522   */\n      dup3\n        /* \"#utility.yul\":508:514   */\n      dup6\n        /* \"#utility.yul\":504:523   */\n      add\n        /* \"#utility.yul\":500:530   */\n      add\n        /* \"#utility.yul\":497:536   */\n      gt\n        /* \"#utility.yul\":494:496   */\n      iszero\n      tag_116\n      jumpi\n        /* \"#utility.yul\":549:550   */\n      0x00\n        /* \"#utility.yul\":546:547   */\n      dup1\n        /* \"#utility.yul\":539:551   */\n      revert\n        /* \"#utility.yul\":494:496   */\n    tag_116:\n        /* \"#utility.yul\":256:559   */\n      swap3\n      pop\n      swap3\n      swap1\n      pop\n      jump\t// out\n        /* \"#utility.yul\":564:870   */\n    tag_40:\n      0x00\n        /* \"#utility.yul\":676:678   */\n      0x20\n        /* \"#utility.yul\":664:673   */\n      dup3\n        /* \"#utility.yul\":655:662   */\n      dup5\n        /* \"#utility.yul\":651:674   */\n      sub\n        /* \"#utility.yul\":647:679   */\n      slt\n        /* \"#utility.yul\":644:646   */\n      iszero\n      tag_118\n      jumpi\n        /* \"#utility.yul\":697:703   */\n      dup1\n        /* \"#utility.yul\":689:695   */\n      dup2\n        /* \"#utility.yul\":682:704   */\n      revert\n        /* \"#utility.yul\":644:646   */\n    tag_118:\n        /* \"#utility.yul\":728:751   */\n      dup2\n      calldataload\n      sub(shl(0xa0, 0x01), 0x01)\n        /* \"#utility.yul\":780:811   */\n      dup2\n      and\n        /* \"#utility.yul\":770:812   */\n      dup2\n      eq\n        /* \"#utility.yul\":760:762   */\n      tag_119\n      jumpi\n        /* \"#utility.yul\":831:837   */\n      dup2\n        /* \"#utility.yul\":823:829   */\n      dup3\n        /* \"#utility.yul\":816:838   */\n      revert\n        /* \"#utility.yul\":760:762   */\n    tag_119:\n        /* \"#utility.yul\":859:864   */\n      swap4\n        /* \"#utility.yul\":634:870   */\n      swap3\n      pop\n      pop\n      pop\n      jump\t// out\n        /* \"#utility.yul\":875:1446   */\n    tag_35:\n      0x00\n      dup1\n      0x00\n      dup1\n        /* \"#utility.yul\":1038:1040   */\n      0x60\n        /* \"#utility.yul\":1026:1035   */\n      dup6\n        /* \"#utility.yul\":1017:1024   */\n      dup8\n        /* \"#utility.yul\":1013:1036   */\n      sub\n        /* \"#utility.yul\":1009:1041   */\n      slt\n        /* \"#utility.yul\":1006:1008   */\n      iszero\n      tag_121\n      jumpi\n        /* \"#utility.yul\":1059:1065   */\n      dup3\n        /* \"#utility.yul\":1051:1057   */\n      dup4\n        /* \"#utility.yul\":1044:1066   */\n      revert\n        /* \"#utility.yul\":1006:1008   */\n    tag_121:\n        /* \"#utility.yul\":1087:1110   */\n      dup5\n      calldataload\n      swap4\n      pop\n        /* \"#utility.yul\":1161:1163   */\n      0x20\n        /* \"#utility.yul\":1146:1164   */\n      dup6\n      add\n        /* \"#utility.yul\":1133:1165   */\n      calldataload\n      sub(shl(0x40, 0x01), 0x01)\n        /* \"#utility.yul\":1177:1207   */\n      dup2\n      gt\n        /* \"#utility.yul\":1174:1176   */\n      iszero\n      tag_122\n      jumpi\n        /* \"#utility.yul\":1225:1231   */\n      dup4\n        /* \"#utility.yul\":1217:1223   */\n      dup5\n        /* \"#utility.yul\":1210:1232   */\n      revert\n        /* \"#utility.yul\":1174:1176   */\n    tag_122:\n        /* \"#utility.yul\":1269:1330   */\n      tag_123\n        /* \"#utility.yul\":1322:1329   */\n      dup8\n        /* \"#utility.yul\":1313:1319   */\n      dup3\n        /* \"#utility.yul\":1302:1311   */\n      dup9\n        /* \"#utility.yul\":1298:1320   */\n      add\n        /* \"#utility.yul\":1269:1330   */\n      tag_112\n      jump\t// in\n    tag_123:\n        /* \"#utility.yul\":1349:1357   */\n      swap1\n      swap5\n      pop\n        /* \"#utility.yul\":1243:1330   */\n      swap3\n      pop\n        /* \"#utility.yul\":1403:1440   */\n      tag_124\n      swap1\n      pop\n        /* \"#utility.yul\":1436:1438   */\n      0x40\n        /* \"#utility.yul\":1421:1439   */\n      dup7\n      add\n        /* \"#utility.yul\":1403:1440   */\n      tag_109\n      jump\t// in\n    tag_124:\n        /* \"#utility.yul\":1393:1440   */\n      swap1\n      pop\n        /* \"#utility.yul\":996:1446   */\n      swap3\n      swap6\n      swap2\n      swap5\n      pop\n      swap3\n      pop\n      jump\t// out\n        /* \"#utility.yul\":1451:1884   */\n    tag_12:\n      0x00\n      dup1\n        /* \"#utility.yul\":1583:1585   */\n      0x20\n        /* \"#utility.yul\":1571:1580   */\n      dup4\n        /* \"#utility.yul\":1562:1569   */\n      dup6\n        /* \"#utility.yul\":1558:1581   */\n      sub\n        /* \"#utility.yul\":1554:1586   */\n      slt\n        /* \"#utility.yul\":1551:1553   */\n      iszero\n      tag_126\n      jumpi\n        /* \"#utility.yul\":1604:1610   */\n      dup2\n        /* \"#utility.yul\":1596:1602   */\n      dup3\n        /* \"#utility.yul\":1589:1611   */\n      revert\n        /* \"#utility.yul\":1551:1553   */\n    tag_126:\n        /* \"#utility.yul\":1636:1659   */\n      dup3\n      calldataload\n      sub(shl(0x40, 0x01), 0x01)\n        /* \"#utility.yul\":1671:1701   */\n      dup2\n      gt\n        /* \"#utility.yul\":1668:1670   */\n      iszero\n      tag_127\n      jumpi\n        /* \"#utility.yul\":1719:1725   */\n      dup3\n        /* \"#utility.yul\":1711:1717   */\n      dup4\n        /* \"#utility.yul\":1704:1726   */\n      revert\n        /* \"#utility.yul\":1668:1670   */\n    tag_127:\n        /* \"#utility.yul\":1763:1824   */\n      tag_128\n        /* \"#utility.yul\":1816:1823   */\n      dup6\n        /* \"#utility.yul\":1807:1813   */\n      dup3\n        /* \"#utility.yul\":1796:1805   */\n      dup7\n        /* \"#utility.yul\":1792:1814   */\n      add\n        /* \"#utility.yul\":1763:1824   */\n      tag_112\n      jump\t// in\n    tag_128:\n        /* \"#utility.yul\":1843:1851   */\n      swap1\n      swap7\n        /* \"#utility.yul\":1737:1824   */\n      swap1\n      swap6\n      pop\n        /* \"#utility.yul\":1541:1884   */\n      swap4\n      pop\n      pop\n      pop\n      pop\n      jump\t// out\n        /* \"#utility.yul\":1889:2714   */\n    tag_25:\n      0x00\n      dup1\n      0x00\n      dup1\n      0x00\n        /* \"#utility.yul\":2072:2074   */\n      0x60\n        /* \"#utility.yul\":2060:2069   */\n      dup7\n        /* \"#utility.yul\":2051:2058   */\n      dup9\n        /* \"#utility.yul\":2047:2070   */\n      sub\n        /* \"#utility.yul\":2043:2075   */\n      slt\n        /* \"#utility.yul\":2040:2042   */\n      iszero\n      tag_130\n      jumpi\n        /* \"#utility.yul\":2093:2099   */\n      dup1\n        /* \"#utility.yul\":2085:2091   */\n      dup2\n        /* \"#utility.yul\":2078:2100   */\n      revert\n        /* \"#utility.yul\":2040:2042   */\n    tag_130:\n        /* \"#utility.yul\":2125:2148   */\n      dup6\n      calldataload\n      sub(shl(0x40, 0x01), 0x01)\n        /* \"#utility.yul\":2197:2211   */\n      dup1\n      dup3\n      gt\n        /* \"#utility.yul\":2194:2196   */\n      iszero\n      tag_131\n      jumpi\n        /* \"#utility.yul\":2229:2235   */\n      dup3\n        /* \"#utility.yul\":2221:2227   */\n      dup4\n        /* \"#utility.yul\":2214:2236   */\n      revert\n        /* \"#utility.yul\":2194:2196   */\n    tag_131:\n        /* \"#utility.yul\":2273:2334   */\n      tag_132\n        /* \"#utility.yul\":2326:2333   */\n      dup10\n        /* \"#utility.yul\":2317:2323   */\n      dup4\n        /* \"#utility.yul\":2306:2315   */\n      dup11\n        /* \"#utility.yul\":2302:2324   */\n      add\n        /* \"#utility.yul\":2273:2334   */\n      tag_112\n      jump\t// in\n    tag_132:\n        /* \"#utility.yul\":2353:2361   */\n      swap1\n      swap8\n      pop\n        /* \"#utility.yul\":2247:2334   */\n      swap6\n      pop\n        /* \"#utility.yul\":2441:2443   */\n      0x20\n        /* \"#utility.yul\":2426:2444   */\n      dup9\n      add\n        /* \"#utility.yul\":2413:2445   */\n      calldataload\n      swap2\n      pop\n        /* \"#utility.yul\":2457:2473   */\n      dup1\n      dup3\n      gt\n        /* \"#utility.yul\":2454:2456   */\n      iszero\n      tag_133\n      jumpi\n        /* \"#utility.yul\":2491:2497   */\n      dup3\n        /* \"#utility.yul\":2483:2489   */\n      dup4\n        /* \"#utility.yul\":2476:2498   */\n      revert\n        /* \"#utility.yul\":2454:2456   */\n    tag_133:\n      pop\n        /* \"#utility.yul\":2535:2598   */\n      tag_134\n        /* \"#utility.yul\":2590:2597   */\n      dup9\n        /* \"#utility.yul\":2579:2587   */\n      dup3\n        /* \"#utility.yul\":2568:2577   */\n      dup10\n        /* \"#utility.yul\":2564:2588   */\n      add\n        /* \"#utility.yul\":2535:2598   */\n      tag_112\n      jump\t// in\n    tag_134:\n        /* \"#utility.yul\":2617:2625   */\n      swap1\n      swap5\n      pop\n        /* \"#utility.yul\":2509:2598   */\n      swap3\n      pop\n        /* \"#utility.yul\":2671:2708   */\n      tag_135\n      swap1\n      pop\n        /* \"#utility.yul\":2704:2706   */\n      0x40\n        /* \"#utility.yul\":2689:2707   */\n      dup8\n      add\n        /* \"#utility.yul\":2671:2708   */\n      tag_109\n      jump\t// in\n    tag_135:\n        /* \"#utility.yul\":2661:2708   */\n      swap1\n      pop\n        /* \"#utility.yul\":2030:2714   */\n      swap3\n      swap6\n      pop\n      swap3\n      swap6\n      swap1\n      swap4\n      pop\n      jump\t// out\n        /* \"#utility.yul\":2719:2994   */\n    tag_44:\n      0x00\n        /* \"#utility.yul\":2904:2910   */\n      dup3\n        /* \"#utility.yul\":2896:2902   */\n      dup5\n        /* \"#utility.yul\":2891:2894   */\n      dup4\n        /* \"#utility.yul\":2878:2911   */\n      calldatacopy\n        /* \"#utility.yul\":2930:2946   */\n      swap2\n      add\n        /* \"#utility.yul\":2955:2970   */\n      swap1\n      dup2\n      mstore\n        /* \"#utility.yul\":2930:2946   */\n      swap2\n        /* \"#utility.yul\":2868:2994   */\n      swap1\n      pop\n      jump\t// out\n        /* \"#utility.yul\":2999:3202   */\n    tag_32:\n      sub(shl(0xa0, 0x01), 0x01)\n        /* \"#utility.yul\":3163:3195   */\n      swap2\n      swap1\n      swap2\n      and\n        /* \"#utility.yul\":3145:3196   */\n      dup2\n      mstore\n        /* \"#utility.yul\":3133:3135   */\n      0x20\n        /* \"#utility.yul\":3118:3136   */\n      add\n      swap1\n        /* \"#utility.yul\":3100:3202   */\n      jump\t// out\n        /* \"#utility.yul\":3207:3394   */\n    tag_28:\n        /* \"#utility.yul\":3372:3386   */\n      swap1\n      iszero\n        /* \"#utility.yul\":3365:3387   */\n      iszero\n        /* \"#utility.yul\":3347:3388   */\n      dup2\n      mstore\n        /* \"#utility.yul\":3335:3337   */\n      0x20\n        /* \"#utility.yul\":3320:3338   */\n      add\n      swap1\n        /* \"#utility.yul\":3302:3394   */\n      jump\t// out\n        /* \"#utility.yul\":3399:3576   */\n    tag_15:\n        /* \"#utility.yul\":3545:3570   */\n      swap1\n      dup2\n      mstore\n        /* \"#utility.yul\":3533:3535   */\n      0x20\n        /* \"#utility.yul\":3518:3536   */\n      add\n      swap1\n        /* \"#utility.yul\":3500:3576   */\n      jump\t// out\n        /* \"#utility.yul\":3581:4184   */\n    tag_20:\n      0x00\n        /* \"#utility.yul\":3722:3724   */\n      0x20\n        /* \"#utility.yul\":3751:3753   */\n      dup1\n        /* \"#utility.yul\":3740:3749   */\n      dup4\n        /* \"#utility.yul\":3733:3754   */\n      mstore\n        /* \"#utility.yul\":3783:3789   */\n      dup4\n        /* \"#utility.yul\":3777:3790   */\n      mload\n        /* \"#utility.yul\":3826:3832   */\n      dup1\n        /* \"#utility.yul\":3821:3823   */\n      dup3\n        /* \"#utility.yul\":3810:3819   */\n      dup6\n        /* \"#utility.yul\":3806:3824   */\n      add\n        /* \"#utility.yul\":3799:3833   */\n      mstore\n        /* \"#utility.yul\":3851:3855   */\n      dup3\n        /* \"#utility.yul\":3864:4004   */\n    tag_141:\n        /* \"#utility.yul\":3878:3884   */\n      dup2\n        /* \"#utility.yul\":3875:3876   */\n      dup2\n        /* \"#utility.yul\":3872:3885   */\n      lt\n        /* \"#utility.yul\":3864:4004   */\n      iszero\n      tag_143\n      jumpi\n        /* \"#utility.yul\":3973:3987   */\n      dup6\n      dup2\n      add\n        /* \"#utility.yul\":3969:3992   */\n      dup4\n      add\n        /* \"#utility.yul\":3963:3993   */\n      mload\n        /* \"#utility.yul\":3939:3956   */\n      dup6\n      dup3\n      add\n        /* \"#utility.yul\":3958:3960   */\n      0x40\n        /* \"#utility.yul\":3935:3961   */\n      add\n        /* \"#utility.yul\":3928:3994   */\n      mstore\n        /* \"#utility.yul\":3893:3903   */\n      dup3\n      add\n        /* \"#utility.yul\":3864:4004   */\n      jump(tag_141)\n    tag_143:\n        /* \"#utility.yul\":4022:4028   */\n      dup2\n        /* \"#utility.yul\":4019:4020   */\n      dup2\n        /* \"#utility.yul\":4016:4029   */\n      gt\n        /* \"#utility.yul\":4013:4015   */\n      iszero\n      tag_144\n      jumpi\n        /* \"#utility.yul\":4092:4096   */\n      dup4\n        /* \"#utility.yul\":4087:4089   */\n      0x40\n        /* \"#utility.yul\":4078:4084   */\n      dup4\n        /* \"#utility.yul\":4067:4076   */\n      dup8\n        /* \"#utility.yul\":4063:4085   */\n      add\n        /* \"#utility.yul\":4059:4090   */\n      add\n        /* \"#utility.yul\":4052:4097   */\n      mstore\n        /* \"#utility.yul\":4013:4015   */\n    tag_144:\n      pop\n        /* \"#utility.yul\":4168:4170   */\n      0x1f\n        /* \"#utility.yul\":4147:4162   */\n      add\n      not(0x1f)\n        /* \"#utility.yul\":4143:4172   */\n      and\n        /* \"#utility.yul\":4128:4173   */\n      swap3\n      swap1\n      swap3\n      add\n        /* \"#utility.yul\":4175:4177   */\n      0x40\n        /* \"#utility.yul\":4124:4178   */\n      add\n      swap4\n        /* \"#utility.yul\":3702:4184   */\n      swap3\n      pop\n      pop\n      pop\n      jump\t// out\n        /* \"#utility.yul\":4189:4591   */\n    tag_94:\n        /* \"#utility.yul\":4391:4393   */\n      0x20\n        /* \"#utility.yul\":4373:4394   */\n      dup1\n      dup3\n      mstore\n        /* \"#utility.yul\":4430:4432   */\n      0x26\n        /* \"#utility.yul\":4410:4428   */\n      swap1\n      dup3\n      add\n        /* \"#utility.yul\":4403:4433   */\n      mstore\n        /* \"#utility.yul\":4469:4503   */\n      0x4f776e61626c653a206e6577206f776e657220697320746865207a65726f2061\n        /* \"#utility.yul\":4464:4466   */\n      0x40\n        /* \"#utility.yul\":4449:4467   */\n      dup3\n      add\n        /* \"#utility.yul\":4442:4504   */\n      mstore\n      shl(0xd0, 0x646472657373)\n        /* \"#utility.yul\":4535:4537   */\n      0x60\n        /* \"#utility.yul\":4520:4538   */\n      dup3\n      add\n        /* \"#utility.yul\":4513:4549   */\n      mstore\n        /* \"#utility.yul\":4581:4584   */\n      0x80\n        /* \"#utility.yul\":4566:4585   */\n      add\n      swap1\n        /* \"#utility.yul\":4363:4591   */\n      jump\t// out\n        /* \"#utility.yul\":4596:4952   */\n    tag_59:\n        /* \"#utility.yul\":4798:4800   */\n      0x20\n        /* \"#utility.yul\":4780:4801   */\n      dup1\n      dup3\n      mstore\n        /* \"#utility.yul\":4817:4835   */\n      dup2\n      dup2\n      add\n        /* \"#utility.yul\":4810:4840   */\n      mstore\n        /* \"#utility.yul\":4876:4910   */\n      0x4f776e61626c653a2063616c6c6572206973206e6f7420746865206f776e6572\n        /* \"#utility.yul\":4871:4873   */\n      0x40\n        /* \"#utility.yul\":4856:4874   */\n      dup3\n      add\n        /* \"#utility.yul\":4849:4911   */\n      mstore\n        /* \"#utility.yul\":4943:4945   */\n      0x60\n        /* \"#utility.yul\":4928:4946   */\n      add\n      swap1\n        /* \"#utility.yul\":4770:4952   */\n      jump\t// out\n        /* \"#utility.yul\":4957:5337   */\n    tag_48:\n        /* \"#utility.yul\":5042:5043   */\n      0x02\n        /* \"#utility.yul\":5032:5044   */\n      dup2\n      div\n        /* \"#utility.yul\":5089:5090   */\n      0x01\n        /* \"#utility.yul\":5079:5091   */\n      dup3\n      and\n      dup1\n        /* \"#utility.yul\":5100:5102   */\n      tag_148\n      jumpi\n        /* \"#utility.yul\":5154:5158   */\n      0x7f\n        /* \"#utility.yul\":5146:5152   */\n      dup3\n        /* \"#utility.yul\":5142:5159   */\n      and\n        /* \"#utility.yul\":5132:5159   */\n      swap2\n      pop\n        /* \"#utility.yul\":5100:5102   */\n    tag_148:\n        /* \"#utility.yul\":5207:5209   */\n      0x20\n        /* \"#utility.yul\":5199:5205   */\n      dup3\n        /* \"#utility.yul\":5196:5210   */\n      lt\n        /* \"#utility.yul\":5176:5194   */\n      dup2\n        /* \"#utility.yul\":5173:5211   */\n      eq\n        /* \"#utility.yul\":5170:5172   */\n      iszero\n      tag_149\n      jumpi\n        /* \"#utility.yul\":5253:5263   */\n      0x4e487b71\n        /* \"#utility.yul\":5248:5251   */\n      0xe0\n        /* \"#utility.yul\":5244:5264   */\n      shl\n        /* \"#utility.yul\":5241:5242   */\n      0x00\n        /* \"#utility.yul\":5234:5265   */\n      mstore\n        /* \"#utility.yul\":5288:5292   */\n      0x22\n        /* \"#utility.yul\":5285:5286   */\n      0x04\n        /* \"#utility.yul\":5278:5293   */\n      mstore\n        /* \"#utility.yul\":5316:5320   */\n      0x24\n        /* \"#utility.yul\":5313:5314   */\n      0x00\n        /* \"#utility.yul\":5306:5321   */\n      revert\n        /* \"#utility.yul\":5170:5172   */\n    tag_149:\n      pop\n        /* \"#utility.yul\":5012:5337   */\n      swap2\n      swap1\n      pop\n      jump\t// out\n\n    auxdata: 0xa264697066735822122026823ae2f609c7f5da2cc4ae8ebc85aa645a1b0fde0f18547c196a17c3520ee364736f6c63430008000033\n}\n",
				"bytecode": {
					"linkReferences": {},
					"object": "60806040523480156200001157600080fd5b50620000266200002062000484565b62000488565b60408051808201825260078152660c8c4bed0c2e6d60cb1b602080830191909152825160608101909352602e80845291927f2b5d58428bfac46b18194c473ec2b1d41db6dc98e3aad716519f594222ef836092909162000e5b9083013960008281526001602090815260409091208251620000a89391929190910190620004d8565b50604051806040016040528060128152602001710d8c2dccebec8cae8cac6e8dee4bed0c2e6d60731b8152509150818051906020012090506040518060600160405280602e815260200162000f9d602e9139600082815260016020908152604090912082516200011f9391929190910190620004d8565b506040518060400160405280601781526020017f63656e736f72696e675f6465746563746f725f686173680000000000000000008152509150818051906020012090506040518060600160405280602e815260200162000ee5602e913960008281526001602090815260409091208251620001a19391929190910190620004d8565b506040518060400160405280601381526020017f746f7869635f6465746563746f725f68617368000000000000000000000000008152509150818051906020012090506040518060600160405280602e815260200162000e89602e913960008281526001602090815260409091208251620002239391929190910190620004d8565b50604051806040016040528060128152602001710ccc2d6cabec8cae8cac6e8dee4bed0c2e6d60731b8152509150818051906020012090506040518060600160405280602e815260200162000f6f602e9139600082815260016020908152604090912082516200029a9391929190910190620004d8565b506040518060400160405280601381526020017f63617465675f6465746563746f725f68617368000000000000000000000000008152509150818051906020012090506040518060600160405280602e815260200162000e2d602e9139600082815260016020908152604090912082516200031c9391929190910190620004d8565b50604051806040016040528060118152602001700d8c2dcceeac2cecae698d2e6e890c2e6d607b1b8152509150818051906020012090506040518060600160405280602e815260200162000f13602e913960008281526001602090815260409091208251620003929391929190910190620004d8565b506040518060400160405280600f81526020016e0c6d0d2dccae6ca88d2c6e890c2e6d608b1b8152509150818051906020012090506040518060600160405280602e815260200162000f41602e913960008281526001602090815260409091208251620004069391929190910190620004d8565b506040518060400160405280601081526020016f0d4c2e0c2dccae6ca88d2c6e890c2e6d60831b8152509150818051906020012090506040518060600160405280602e815260200162000eb7602e9139600082815260016020908152604090912082516200047b9391929190910190620004d8565b505050620005bb565b3390565b600080546001600160a01b038381166001600160a01b0319831681178455604051919092169283917f8be0079c531659141344cd1fd0a4f28419497f9722a3daafe3b4186f6b6457e09190a35050565b828054620004e6906200057e565b90600052602060002090601f0160209004810192826200050a576000855562000555565b82601f106200052557805160ff191683800117855562000555565b8280016001018555821562000555579182015b828111156200055557825182559160200191906001019062000538565b506200056392915062000567565b5090565b5b8082111562000563576000815560010162000568565b6002810460018216806200059357607f821691505b60208210811415620005b557634e487b7160e01b600052602260045260246000fd5b50919050565b61086280620005cb6000396000f3fe608060405234801561001057600080fd5b506004361061006d5760003560e01c80635b6beeb914610072578063693ec85e1461009b578063715018a6146100bb578063773f44b9146100c55780638da5cb5b146100e5578063e7ef321c146100fa578063f2fde38b1461010d575b600080fd5b61008561008036600461062f565b610120565b604051610092919061071a565b60405180910390f35b6100ae6100a936600461062f565b610153565b6040516100929190610723565b6100c3610227565b005b6100d86100d336600461066e565b61027b565b604051610092919061070f565b6100ed610345565b60405161009291906106fb565b6100d86101083660046105d4565b610354565b6100c361011b3660046105a6565b6103ed565b600082826040516020016101359291906106eb565b60405160208183030381529060405280519060200120905092915050565b60606000838360405160200161016a9291906106eb565b6040516020818303038152906040528051906020012090506001600082815260200190815260200160002080546101a0906107f1565b80601f01602080910402602001604051908101604052809291908181526020018280546101cc906107f1565b80156102195780601f106101ee57610100808354040283529160200191610219565b820191906000526020600020905b8154815290600101906020018083116101fc57829003601f168201915b505050505091505092915050565b61022f61045e565b6001600160a01b0316610240610345565b6001600160a01b03161461026f5760405162461bcd60e51b8152600401610266906107bc565b60405180910390fd5b6102796000610462565b565b600061028561045e565b6001600160a01b0316610296610345565b6001600160a01b0316146102bc5760405162461bcd60e51b8152600401610266906107bc565b600086866040516020016102d19291906106eb565b604051602081830303815290604052805190602001209050828061030d575060008181526001602052604090208054610309906107f1565b1590505b1561033657600081815260016020526040902061032b9086866104b2565b50600191505061033c565b60009150505b95945050505050565b6000546001600160a01b031690565b600061035e61045e565b6001600160a01b031661036f610345565b6001600160a01b0316146103955760405162461bcd60e51b8152600401610266906107bc565b81806103b95750600085815260016020526040902080546103b5906107f1565b1590505b156103e15760008581526001602052604090206103d79085856104b2565b50600190506103e5565b5060005b949350505050565b6103f561045e565b6001600160a01b0316610406610345565b6001600160a01b03161461042c5760405162461bcd60e51b8152600401610266906107bc565b6001600160a01b0381166104525760405162461bcd60e51b815260040161026690610776565b61045b81610462565b50565b3390565b600080546001600160a01b038381166001600160a01b0319831681178455604051919092169283917f8be0079c531659141344cd1fd0a4f28419497f9722a3daafe3b4186f6b6457e09190a35050565b8280546104be906107f1565b90600052602060002090601f0160209004810192826104e05760008555610526565b82601f106104f95782800160ff19823516178555610526565b82800160010185558215610526579182015b8281111561052657823582559160200191906001019061050b565b50610532929150610536565b5090565b5b808211156105325760008155600101610537565b8035801515811461055b57600080fd5b919050565b60008083601f840112610571578182fd5b5081356001600160401b03811115610587578182fd5b60208301915083602082850101111561059f57600080fd5b9250929050565b6000602082840312156105b7578081fd5b81356001600160a01b03811681146105cd578182fd5b9392505050565b600080600080606085870312156105e9578283fd5b8435935060208501356001600160401b03811115610605578384fd5b61061187828801610560565b909450925061062490506040860161054b565b905092959194509250565b60008060208385031215610641578182fd5b82356001600160401b03811115610656578283fd5b61066285828601610560565b90969095509350505050565b600080600080600060608688031215610685578081fd5b85356001600160401b038082111561069b578283fd5b6106a789838a01610560565b909750955060208801359150808211156106bf578283fd5b506106cc88828901610560565b90945092506106df90506040870161054b565b90509295509295909350565b6000828483379101908152919050565b6001600160a01b0391909116815260200190565b901515815260200190565b90815260200190565b6000602080835283518082850152825b8181101561074f57858101830151858201604001528201610733565b818111156107605783604083870101525b50601f01601f1916929092016040019392505050565b60208082526026908201527f4f776e61626c653a206e6577206f776e657220697320746865207a65726f206160408201526564647265737360d01b606082015260800190565b6020808252818101527f4f776e61626c653a2063616c6c6572206973206e6f7420746865206f776e6572604082015260600190565b60028104600182168061080557607f821691505b6020821081141561082657634e487b7160e01b600052602260045260246000fd5b5091905056fea264697066735822122026823ae2f609c7f5da2cc4ae8ebc85aa645a1b0fde0f18547c196a17c3520ee364736f6c63430008000033516d4e5534613473793531504839576e7452517356766d64564671376a6877416e4773594c32774b705346434354516d63327477385a7745524d526d794755316379775044734d4c6b51766b4e45775275454355486e5575634c6e68516d5964564c656e4a4563343861743659377a59627738634c4c4c5064646a477074657a7a62446b636374645876516d66557a527471564c3974714731314470624a56424e6f4b6a78514d79567571763275763270696e7a75635436516d625a7a5663437766684b346a5971555752377959466954325963525136377958486f5874376a65665a6a7246516d514b364d3770756d3657325a524c6468677a45773776483847594d6d7677523361583368466b4d5857727573516d5059387a5536787a77766a6f6d7a4e35416b56665461357a5a7032526b586732654d333476504543716f7459516d51346f634836504e67354157696f4462574a5179766f5a576838567364436a4b314b437975466a4d54556463516d62787936594d6431484e446f4b44644754414b59645642755547556b413137615156596474484a7636667a64",
					"opcodes": "PUSH1 0x80 PUSH1 0x40 MSTORE CALLVALUE DUP1 ISZERO PUSH3 0x11 JUMPI PUSH1 0x0 DUP1 REVERT JUMPDEST POP PUSH3 0x26 PUSH3 0x20 PUSH3 0x484 JUMP JUMPDEST PUSH3 0x488 JUMP JUMPDEST PUSH1 0x40 DUP1 MLOAD DUP1 DUP3 ADD DUP3 MSTORE PUSH1 0x7 DUP2 MSTORE PUSH7 0xC8C4BED0C2E6D PUSH1 0xCB SHL PUSH1 0x20 DUP1 DUP4 ADD SWAP2 SWAP1 SWAP2 MSTORE DUP3 MLOAD PUSH1 0x60 DUP2 ADD SWAP1 SWAP4 MSTORE PUSH1 0x2E DUP1 DUP5 MSTORE SWAP2 SWAP3 PUSH32 0x2B5D58428BFAC46B18194C473EC2B1D41DB6DC98E3AAD716519F594222EF8360 SWAP3 SWAP1 SWAP2 PUSH3 0xE5B SWAP1 DUP4 ADD CODECOPY PUSH1 0x0 DUP3 DUP2 MSTORE PUSH1 0x1 PUSH1 0x20 SWAP1 DUP2 MSTORE PUSH1 0x40 SWAP1 SWAP2 KECCAK256 DUP3 MLOAD PUSH3 0xA8 SWAP4 SWAP2 SWAP3 SWAP2 SWAP1 SWAP2 ADD SWAP1 PUSH3 0x4D8 JUMP JUMPDEST POP PUSH1 0x40 MLOAD DUP1 PUSH1 0x40 ADD PUSH1 0x40 MSTORE DUP1 PUSH1 0x12 DUP2 MSTORE PUSH1 0x20 ADD PUSH18 0xD8C2DCCEBEC8CAE8CAC6E8DEE4BED0C2E6D PUSH1 0x73 SHL DUP2 MSTORE POP SWAP2 POP DUP2 DUP1 MLOAD SWAP1 PUSH1 0x20 ADD KECCAK256 SWAP1 POP PUSH1 0x40 MLOAD DUP1 PUSH1 0x60 ADD PUSH1 0x40 MSTORE DUP1 PUSH1 0x2E DUP2 MSTORE PUSH1 0x20 ADD PUSH3 0xF9D PUSH1 0x2E SWAP2 CODECOPY PUSH1 0x0 DUP3 DUP2 MSTORE PUSH1 0x1 PUSH1 0x20 SWAP1 DUP2 MSTORE PUSH1 0x40 SWAP1 SWAP2 KECCAK256 DUP3 MLOAD PUSH3 0x11F SWAP4 SWAP2 SWAP3 SWAP2 SWAP1 SWAP2 ADD SWAP1 PUSH3 0x4D8 JUMP JUMPDEST POP PUSH1 0x40 MLOAD DUP1 PUSH1 0x40 ADD PUSH1 0x40 MSTORE DUP1 PUSH1 0x17 DUP2 MSTORE PUSH1 0x20 ADD PUSH32 0x63656E736F72696E675F6465746563746F725F68617368000000000000000000 DUP2 MSTORE POP SWAP2 POP DUP2 DUP1 MLOAD SWAP1 PUSH1 0x20 ADD KECCAK256 SWAP1 POP PUSH1 0x40 MLOAD DUP1 PUSH1 0x60 ADD PUSH1 0x40 MSTORE DUP1 PUSH1 0x2E DUP2 MSTORE PUSH1 0x20 ADD PUSH3 0xEE5 PUSH1 0x2E SWAP2 CODECOPY PUSH1 0x0 DUP3 DUP2 MSTORE PUSH1 0x1 PUSH1 0x20 SWAP1 DUP2 MSTORE PUSH1 0x40 SWAP1 SWAP2 KECCAK256 DUP3 MLOAD PUSH3 0x1A1 SWAP4 SWAP2 SWAP3 SWAP2 SWAP1 SWAP2 ADD SWAP1 PUSH3 0x4D8 JUMP JUMPDEST POP PUSH1 0x40 MLOAD DUP1 PUSH1 0x40 ADD PUSH1 0x40 MSTORE DUP1 PUSH1 0x13 DUP2 MSTORE PUSH1 0x20 ADD PUSH32 0x746F7869635F6465746563746F725F6861736800000000000000000000000000 DUP2 MSTORE POP SWAP2 POP DUP2 DUP1 MLOAD SWAP1 PUSH1 0x20 ADD KECCAK256 SWAP1 POP PUSH1 0x40 MLOAD DUP1 PUSH1 0x60 ADD PUSH1 0x40 MSTORE DUP1 PUSH1 0x2E DUP2 MSTORE PUSH1 0x20 ADD PUSH3 0xE89 PUSH1 0x2E SWAP2 CODECOPY PUSH1 0x0 DUP3 DUP2 MSTORE PUSH1 0x1 PUSH1 0x20 SWAP1 DUP2 MSTORE PUSH1 0x40 SWAP1 SWAP2 KECCAK256 DUP3 MLOAD PUSH3 0x223 SWAP4 SWAP2 SWAP3 SWAP2 SWAP1 SWAP2 ADD SWAP1 PUSH3 0x4D8 JUMP JUMPDEST POP PUSH1 0x40 MLOAD DUP1 PUSH1 0x40 ADD PUSH1 0x40 MSTORE DUP1 PUSH1 0x12 DUP2 MSTORE PUSH1 0x20 ADD PUSH18 0xCCC2D6CABEC8CAE8CAC6E8DEE4BED0C2E6D PUSH1 0x73 SHL DUP2 MSTORE POP SWAP2 POP DUP2 DUP1 MLOAD SWAP1 PUSH1 0x20 ADD KECCAK256 SWAP1 POP PUSH1 0x40 MLOAD DUP1 PUSH1 0x60 ADD PUSH1 0x40 MSTORE DUP1 PUSH1 0x2E DUP2 MSTORE PUSH1 0x20 ADD PUSH3 0xF6F PUSH1 0x2E SWAP2 CODECOPY PUSH1 0x0 DUP3 DUP2 MSTORE PUSH1 0x1 PUSH1 0x20 SWAP1 DUP2 MSTORE PUSH1 0x40 SWAP1 SWAP2 KECCAK256 DUP3 MLOAD PUSH3 0x29A SWAP4 SWAP2 SWAP3 SWAP2 SWAP1 SWAP2 ADD SWAP1 PUSH3 0x4D8 JUMP JUMPDEST POP PUSH1 0x40 MLOAD DUP1 PUSH1 0x40 ADD PUSH1 0x40 MSTORE DUP1 PUSH1 0x13 DUP2 MSTORE PUSH1 0x20 ADD PUSH32 0x63617465675F6465746563746F725F6861736800000000000000000000000000 DUP2 MSTORE POP SWAP2 POP DUP2 DUP1 MLOAD SWAP1 PUSH1 0x20 ADD KECCAK256 SWAP1 POP PUSH1 0x40 MLOAD DUP1 PUSH1 0x60 ADD PUSH1 0x40 MSTORE DUP1 PUSH1 0x2E DUP2 MSTORE PUSH1 0x20 ADD PUSH3 0xE2D PUSH1 0x2E SWAP2 CODECOPY PUSH1 0x0 DUP3 DUP2 MSTORE PUSH1 0x1 PUSH1 0x20 SWAP1 DUP2 MSTORE PUSH1 0x40 SWAP1 SWAP2 KECCAK256 DUP3 MLOAD PUSH3 0x31C SWAP4 SWAP2 SWAP3 SWAP2 SWAP1 SWAP2 ADD SWAP1 PUSH3 0x4D8 JUMP JUMPDEST POP PUSH1 0x40 MLOAD DUP1 PUSH1 0x40 ADD PUSH1 0x40 MSTORE DUP1 PUSH1 0x11 DUP2 MSTORE PUSH1 0x20 ADD PUSH17 0xD8C2DCCEEAC2CECAE698D2E6E890C2E6D PUSH1 0x7B SHL DUP2 MSTORE POP SWAP2 POP DUP2 DUP1 MLOAD SWAP1 PUSH1 0x20 ADD KECCAK256 SWAP1 POP PUSH1 0x40 MLOAD DUP1 PUSH1 0x60 ADD PUSH1 0x40 MSTORE DUP1 PUSH1 0x2E DUP2 MSTORE PUSH1 0x20 ADD PUSH3 0xF13 PUSH1 0x2E SWAP2 CODECOPY PUSH1 0x0 DUP3 DUP2 MSTORE PUSH1 0x1 PUSH1 0x20 SWAP1 DUP2 MSTORE PUSH1 0x40 SWAP1 SWAP2 KECCAK256 DUP3 MLOAD PUSH3 0x392 SWAP4 SWAP2 SWAP3 SWAP2 SWAP1 SWAP2 ADD SWAP1 PUSH3 0x4D8 JUMP JUMPDEST POP PUSH1 0x40 MLOAD DUP1 PUSH1 0x40 ADD PUSH1 0x40 MSTORE DUP1 PUSH1 0xF DUP2 MSTORE PUSH1 0x20 ADD PUSH15 0xC6D0D2DCCAE6CA88D2C6E890C2E6D PUSH1 0x8B SHL DUP2 MSTORE POP SWAP2 POP DUP2 DUP1 MLOAD SWAP1 PUSH1 0x20 ADD KECCAK256 SWAP1 POP PUSH1 0x40 MLOAD DUP1 PUSH1 0x60 ADD PUSH1 0x40 MSTORE DUP1 PUSH1 0x2E DUP2 MSTORE PUSH1 0x20 ADD PUSH3 0xF41 PUSH1 0x2E SWAP2 CODECOPY PUSH1 0x0 DUP3 DUP2 MSTORE PUSH1 0x1 PUSH1 0x20 SWAP1 DUP2 MSTORE PUSH1 0x40 SWAP1 SWAP2 KECCAK256 DUP3 MLOAD PUSH3 0x406 SWAP4 SWAP2 SWAP3 SWAP2 SWAP1 SWAP2 ADD SWAP1 PUSH3 0x4D8 JUMP JUMPDEST POP PUSH1 0x40 MLOAD DUP1 PUSH1 0x40 ADD PUSH1 0x40 MSTORE DUP1 PUSH1 0x10 DUP2 MSTORE PUSH1 0x20 ADD PUSH16 0xD4C2E0C2DCCAE6CA88D2C6E890C2E6D PUSH1 0x83 SHL DUP2 MSTORE POP SWAP2 POP DUP2 DUP1 MLOAD SWAP1 PUSH1 0x20 ADD KECCAK256 SWAP1 POP PUSH1 0x40 MLOAD DUP1 PUSH1 0x60 ADD PUSH1 0x40 MSTORE DUP1 PUSH1 0x2E DUP2 MSTORE PUSH1 0x20 ADD PUSH3 0xEB7 PUSH1 0x2E SWAP2 CODECOPY PUSH1 0x0 DUP3 DUP2 MSTORE PUSH1 0x1 PUSH1 0x20 SWAP1 DUP2 MSTORE PUSH1 0x40 SWAP1 SWAP2 KECCAK256 DUP3 MLOAD PUSH3 0x47B SWAP4 SWAP2 SWAP3 SWAP2 SWAP1 SWAP2 ADD SWAP1 PUSH3 0x4D8 JUMP JUMPDEST POP POP POP PUSH3 0x5BB JUMP JUMPDEST CALLER SWAP1 JUMP JUMPDEST PUSH1 0x0 DUP1 SLOAD PUSH1 0x1 PUSH1 0x1 PUSH1 0xA0 SHL SUB DUP4 DUP2 AND PUSH1 0x1 PUSH1 0x1 PUSH1 0xA0 SHL SUB NOT DUP4 AND DUP2 OR DUP5 SSTORE PUSH1 0x40 MLOAD SWAP2 SWAP1 SWAP3 AND SWAP3 DUP4 SWAP2 PUSH32 0x8BE0079C531659141344CD1FD0A4F28419497F9722A3DAAFE3B4186F6B6457E0 SWAP2 SWAP1 LOG3 POP POP JUMP JUMPDEST DUP3 DUP1 SLOAD PUSH3 0x4E6 SWAP1 PUSH3 0x57E JUMP JUMPDEST SWAP1 PUSH1 0x0 MSTORE PUSH1 0x20 PUSH1 0x0 KECCAK256 SWAP1 PUSH1 0x1F ADD PUSH1 0x20 SWAP1 DIV DUP2 ADD SWAP3 DUP3 PUSH3 0x50A JUMPI PUSH1 0x0 DUP6 SSTORE PUSH3 0x555 JUMP JUMPDEST DUP3 PUSH1 0x1F LT PUSH3 0x525 JUMPI DUP1 MLOAD PUSH1 0xFF NOT AND DUP4 DUP1 ADD OR DUP6 SSTORE PUSH3 0x555 JUMP JUMPDEST DUP3 DUP1 ADD PUSH1 0x1 ADD DUP6 SSTORE DUP3 ISZERO PUSH3 0x555 JUMPI SWAP2 DUP3 ADD JUMPDEST DUP3 DUP2 GT ISZERO PUSH3 0x555 JUMPI DUP3 MLOAD DUP3 SSTORE SWAP2 PUSH1 0x20 ADD SWAP2 SWAP1 PUSH1 0x1 ADD SWAP1 PUSH3 0x538 JUMP JUMPDEST POP PUSH3 0x563 SWAP3 SWAP2 POP PUSH3 0x567 JUMP JUMPDEST POP SWAP1 JUMP JUMPDEST JUMPDEST DUP1 DUP3 GT ISZERO PUSH3 0x563 JUMPI PUSH1 0x0 DUP2 SSTORE PUSH1 0x1 ADD PUSH3 0x568 JUMP JUMPDEST PUSH1 0x2 DUP2 DIV PUSH1 0x1 DUP3 AND DUP1 PUSH3 0x593 JUMPI PUSH1 0x7F DUP3 AND SWAP2 POP JUMPDEST PUSH1 0x20 DUP3 LT DUP2 EQ ISZERO PUSH3 0x5B5 JUMPI PUSH4 0x4E487B71 PUSH1 0xE0 SHL PUSH1 0x0 MSTORE PUSH1 0x22 PUSH1 0x4 MSTORE PUSH1 0x24 PUSH1 0x0 REVERT JUMPDEST POP SWAP2 SWAP1 POP JUMP JUMPDEST PUSH2 0x862 DUP1 PUSH3 0x5CB PUSH1 0x0 CODECOPY PUSH1 0x0 RETURN INVALID PUSH1 0x80 PUSH1 0x40 MSTORE CALLVALUE DUP1 ISZERO PUSH2 0x10 JUMPI PUSH1 0x0 DUP1 REVERT JUMPDEST POP PUSH1 0x4 CALLDATASIZE LT PUSH2 0x6D JUMPI PUSH1 0x0 CALLDATALOAD PUSH1 0xE0 SHR DUP1 PUSH4 0x5B6BEEB9 EQ PUSH2 0x72 JUMPI DUP1 PUSH4 0x693EC85E EQ PUSH2 0x9B JUMPI DUP1 PUSH4 0x715018A6 EQ PUSH2 0xBB JUMPI DUP1 PUSH4 0x773F44B9 EQ PUSH2 0xC5 JUMPI DUP1 PUSH4 0x8DA5CB5B EQ PUSH2 0xE5 JUMPI DUP1 PUSH4 0xE7EF321C EQ PUSH2 0xFA JUMPI DUP1 PUSH4 0xF2FDE38B EQ PUSH2 0x10D JUMPI JUMPDEST PUSH1 0x0 DUP1 REVERT JUMPDEST PUSH2 0x85 PUSH2 0x80 CALLDATASIZE PUSH1 0x4 PUSH2 0x62F JUMP JUMPDEST PUSH2 0x120 JUMP JUMPDEST PUSH1 0x40 MLOAD PUSH2 0x92 SWAP2 SWAP1 PUSH2 0x71A JUMP JUMPDEST PUSH1 0x40 MLOAD DUP1 SWAP2 SUB SWAP1 RETURN JUMPDEST PUSH2 0xAE PUSH2 0xA9 CALLDATASIZE PUSH1 0x4 PUSH2 0x62F JUMP JUMPDEST PUSH2 0x153 JUMP JUMPDEST PUSH1 0x40 MLOAD PUSH2 0x92 SWAP2 SWAP1 PUSH2 0x723 JUMP JUMPDEST PUSH2 0xC3 PUSH2 0x227 JUMP JUMPDEST STOP JUMPDEST PUSH2 0xD8 PUSH2 0xD3 CALLDATASIZE PUSH1 0x4 PUSH2 0x66E JUMP JUMPDEST PUSH2 0x27B JUMP JUMPDEST PUSH1 0x40 MLOAD PUSH2 0x92 SWAP2 SWAP1 PUSH2 0x70F JUMP JUMPDEST PUSH2 0xED PUSH2 0x345 JUMP JUMPDEST PUSH1 0x40 MLOAD PUSH2 0x92 SWAP2 SWAP1 PUSH2 0x6FB JUMP JUMPDEST PUSH2 0xD8 PUSH2 0x108 CALLDATASIZE PUSH1 0x4 PUSH2 0x5D4 JUMP JUMPDEST PUSH2 0x354 JUMP JUMPDEST PUSH2 0xC3 PUSH2 0x11B CALLDATASIZE PUSH1 0x4 PUSH2 0x5A6 JUMP JUMPDEST PUSH2 0x3ED JUMP JUMPDEST PUSH1 0x0 DUP3 DUP3 PUSH1 0x40 MLOAD PUSH1 0x20 ADD PUSH2 0x135 SWAP3 SWAP2 SWAP1 PUSH2 0x6EB JUMP JUMPDEST PUSH1 0x40 MLOAD PUSH1 0x20 DUP2 DUP4 SUB SUB DUP2 MSTORE SWAP1 PUSH1 0x40 MSTORE DUP1 MLOAD SWAP1 PUSH1 0x20 ADD KECCAK256 SWAP1 POP SWAP3 SWAP2 POP POP JUMP JUMPDEST PUSH1 0x60 PUSH1 0x0 DUP4 DUP4 PUSH1 0x40 MLOAD PUSH1 0x20 ADD PUSH2 0x16A SWAP3 SWAP2 SWAP1 PUSH2 0x6EB JUMP JUMPDEST PUSH1 0x40 MLOAD PUSH1 0x20 DUP2 DUP4 SUB SUB DUP2 MSTORE SWAP1 PUSH1 0x40 MSTORE DUP1 MLOAD SWAP1 PUSH1 0x20 ADD KECCAK256 SWAP1 POP PUSH1 0x1 PUSH1 0x0 DUP3 DUP2 MSTORE PUSH1 0x20 ADD SWAP1 DUP2 MSTORE PUSH1 0x20 ADD PUSH1 0x0 KECCAK256 DUP1 SLOAD PUSH2 0x1A0 SWAP1 PUSH2 0x7F1 JUMP JUMPDEST DUP1 PUSH1 0x1F ADD PUSH1 0x20 DUP1 SWAP2 DIV MUL PUSH1 0x20 ADD PUSH1 0x40 MLOAD SWAP1 DUP2 ADD PUSH1 0x40 MSTORE DUP1 SWAP3 SWAP2 SWAP1 DUP2 DUP2 MSTORE PUSH1 0x20 ADD DUP3 DUP1 SLOAD PUSH2 0x1CC SWAP1 PUSH2 0x7F1 JUMP JUMPDEST DUP1 ISZERO PUSH2 0x219 JUMPI DUP1 PUSH1 0x1F LT PUSH2 0x1EE JUMPI PUSH2 0x100 DUP1 DUP4 SLOAD DIV MUL DUP4 MSTORE SWAP2 PUSH1 0x20 ADD SWAP2 PUSH2 0x219 JUMP JUMPDEST DUP3 ADD SWAP2 SWAP1 PUSH1 0x0 MSTORE PUSH1 0x20 PUSH1 0x0 KECCAK256 SWAP1 JUMPDEST DUP2 SLOAD DUP2 MSTORE SWAP1 PUSH1 0x1 ADD SWAP1 PUSH1 0x20 ADD DUP1 DUP4 GT PUSH2 0x1FC JUMPI DUP3 SWAP1 SUB PUSH1 0x1F AND DUP3 ADD SWAP2 JUMPDEST POP POP POP POP POP SWAP2 POP POP SWAP3 SWAP2 POP POP JUMP JUMPDEST PUSH2 0x22F PUSH2 0x45E JUMP JUMPDEST PUSH1 0x1 PUSH1 0x1 PUSH1 0xA0 SHL SUB AND PUSH2 0x240 PUSH2 0x345 JUMP JUMPDEST PUSH1 0x1 PUSH1 0x1 PUSH1 0xA0 SHL SUB AND EQ PUSH2 0x26F JUMPI PUSH1 0x40 MLOAD PUSH3 0x461BCD PUSH1 0xE5 SHL DUP2 MSTORE PUSH1 0x4 ADD PUSH2 0x266 SWAP1 PUSH2 0x7BC JUMP JUMPDEST PUSH1 0x40 MLOAD DUP1 SWAP2 SUB SWAP1 REVERT JUMPDEST PUSH2 0x279 PUSH1 0x0 PUSH2 0x462 JUMP JUMPDEST JUMP JUMPDEST PUSH1 0x0 PUSH2 0x285 PUSH2 0x45E JUMP JUMPDEST PUSH1 0x1 PUSH1 0x1 PUSH1 0xA0 SHL SUB AND PUSH2 0x296 PUSH2 0x345 JUMP JUMPDEST PUSH1 0x1 PUSH1 0x1 PUSH1 0xA0 SHL SUB AND EQ PUSH2 0x2BC JUMPI PUSH1 0x40 MLOAD PUSH3 0x461BCD PUSH1 0xE5 SHL DUP2 MSTORE PUSH1 0x4 ADD PUSH2 0x266 SWAP1 PUSH2 0x7BC JUMP JUMPDEST PUSH1 0x0 DUP7 DUP7 PUSH1 0x40 MLOAD PUSH1 0x20 ADD PUSH2 0x2D1 SWAP3 SWAP2 SWAP1 PUSH2 0x6EB JUMP JUMPDEST PUSH1 0x40 MLOAD PUSH1 0x20 DUP2 DUP4 SUB SUB DUP2 MSTORE SWAP1 PUSH1 0x40 MSTORE DUP1 MLOAD SWAP1 PUSH1 0x20 ADD KECCAK256 SWAP1 POP DUP3 DUP1 PUSH2 0x30D JUMPI POP PUSH1 0x0 DUP2 DUP2 MSTORE PUSH1 0x1 PUSH1 0x20 MSTORE PUSH1 0x40 SWAP1 KECCAK256 DUP1 SLOAD PUSH2 0x309 SWAP1 PUSH2 0x7F1 JUMP JUMPDEST ISZERO SWAP1 POP JUMPDEST ISZERO PUSH2 0x336 JUMPI PUSH1 0x0 DUP2 DUP2 MSTORE PUSH1 0x1 PUSH1 0x20 MSTORE PUSH1 0x40 SWAP1 KECCAK256 PUSH2 0x32B SWAP1 DUP7 DUP7 PUSH2 0x4B2 JUMP JUMPDEST POP PUSH1 0x1 SWAP2 POP POP PUSH2 0x33C JUMP JUMPDEST PUSH1 0x0 SWAP2 POP POP JUMPDEST SWAP6 SWAP5 POP POP POP POP POP JUMP JUMPDEST PUSH1 0x0 SLOAD PUSH1 0x1 PUSH1 0x1 PUSH1 0xA0 SHL SUB AND SWAP1 JUMP JUMPDEST PUSH1 0x0 PUSH2 0x35E PUSH2 0x45E JUMP JUMPDEST PUSH1 0x1 PUSH1 0x1 PUSH1 0xA0 SHL SUB AND PUSH2 0x36F PUSH2 0x345 JUMP JUMPDEST PUSH1 0x1 PUSH1 0x1 PUSH1 0xA0 SHL SUB AND EQ PUSH2 0x395 JUMPI PUSH1 0x40 MLOAD PUSH3 0x461BCD PUSH1 0xE5 SHL DUP2 MSTORE PUSH1 0x4 ADD PUSH2 0x266 SWAP1 PUSH2 0x7BC JUMP JUMPDEST DUP2 DUP1 PUSH2 0x3B9 JUMPI POP PUSH1 0x0 DUP6 DUP2 MSTORE PUSH1 0x1 PUSH1 0x20 MSTORE PUSH1 0x40 SWAP1 KECCAK256 DUP1 SLOAD PUSH2 0x3B5 SWAP1 PUSH2 0x7F1 JUMP JUMPDEST ISZERO SWAP1 POP JUMPDEST ISZERO PUSH2 0x3E1 JUMPI PUSH1 0x0 DUP6 DUP2 MSTORE PUSH1 0x1 PUSH1 0x20 MSTORE PUSH1 0x40 SWAP1 KECCAK256 PUSH2 0x3D7 SWAP1 DUP6 DUP6 PUSH2 0x4B2 JUMP JUMPDEST POP PUSH1 0x1 SWAP1 POP PUSH2 0x3E5 JUMP JUMPDEST POP PUSH1 0x0 JUMPDEST SWAP5 SWAP4 POP POP POP POP JUMP JUMPDEST PUSH2 0x3F5 PUSH2 0x45E JUMP JUMPDEST PUSH1 0x1 PUSH1 0x1 PUSH1 0xA0 SHL SUB AND PUSH2 0x406 PUSH2 0x345 JUMP JUMPDEST PUSH1 0x1 PUSH1 0x1 PUSH1 0xA0 SHL SUB AND EQ PUSH2 0x42C JUMPI PUSH1 0x40 MLOAD PUSH3 0x461BCD PUSH1 0xE5 SHL DUP2 MSTORE PUSH1 0x4 ADD PUSH2 0x266 SWAP1 PUSH2 0x7BC JUMP JUMPDEST PUSH1 0x1 PUSH1 0x1 PUSH1 0xA0 SHL SUB DUP2 AND PUSH2 0x452 JUMPI PUSH1 0x40 MLOAD PUSH3 0x461BCD PUSH1 0xE5 SHL DUP2 MSTORE PUSH1 0x4 ADD PUSH2 0x266 SWAP1 PUSH2 0x776 JUMP JUMPDEST PUSH2 0x45B DUP2 PUSH2 0x462 JUMP JUMPDEST POP JUMP JUMPDEST CALLER SWAP1 JUMP JUMPDEST PUSH1 0x0 DUP1 SLOAD PUSH1 0x1 PUSH1 0x1 PUSH1 0xA0 SHL SUB DUP4 DUP2 AND PUSH1 0x1 PUSH1 0x1 PUSH1 0xA0 SHL SUB NOT DUP4 AND DUP2 OR DUP5 SSTORE PUSH1 0x40 MLOAD SWAP2 SWAP1 SWAP3 AND SWAP3 DUP4 SWAP2 PUSH32 0x8BE0079C531659141344CD1FD0A4F28419497F9722A3DAAFE3B4186F6B6457E0 SWAP2 SWAP1 LOG3 POP POP JUMP JUMPDEST DUP3 DUP1 SLOAD PUSH2 0x4BE SWAP1 PUSH2 0x7F1 JUMP JUMPDEST SWAP1 PUSH1 0x0 MSTORE PUSH1 0x20 PUSH1 0x0 KECCAK256 SWAP1 PUSH1 0x1F ADD PUSH1 0x20 SWAP1 DIV DUP2 ADD SWAP3 DUP3 PUSH2 0x4E0 JUMPI PUSH1 0x0 DUP6 SSTORE PUSH2 0x526 JUMP JUMPDEST DUP3 PUSH1 0x1F LT PUSH2 0x4F9 JUMPI DUP3 DUP1 ADD PUSH1 0xFF NOT DUP3 CALLDATALOAD AND OR DUP6 SSTORE PUSH2 0x526 JUMP JUMPDEST DUP3 DUP1 ADD PUSH1 0x1 ADD DUP6 SSTORE DUP3 ISZERO PUSH2 0x526 JUMPI SWAP2 DUP3 ADD JUMPDEST DUP3 DUP2 GT ISZERO PUSH2 0x526 JUMPI DUP3 CALLDATALOAD DUP3 SSTORE SWAP2 PUSH1 0x20 ADD SWAP2 SWAP1 PUSH1 0x1 ADD SWAP1 PUSH2 0x50B JUMP JUMPDEST POP PUSH2 0x532 SWAP3 SWAP2 POP PUSH2 0x536 JUMP JUMPDEST POP SWAP1 JUMP JUMPDEST JUMPDEST DUP1 DUP3 GT ISZERO PUSH2 0x532 JUMPI PUSH1 0x0 DUP2 SSTORE PUSH1 0x1 ADD PUSH2 0x537 JUMP JUMPDEST DUP1 CALLDATALOAD DUP1 ISZERO ISZERO DUP2 EQ PUSH2 0x55B JUMPI PUSH1 0x0 DUP1 REVERT JUMPDEST SWAP2 SWAP1 POP JUMP JUMPDEST PUSH1 0x0 DUP1 DUP4 PUSH1 0x1F DUP5 ADD SLT PUSH2 0x571 JUMPI DUP2 DUP3 REVERT JUMPDEST POP DUP2 CALLDATALOAD PUSH1 0x1 PUSH1 0x1 PUSH1 0x40 SHL SUB DUP2 GT ISZERO PUSH2 0x587 JUMPI DUP2 DUP3 REVERT JUMPDEST PUSH1 0x20 DUP4 ADD SWAP2 POP DUP4 PUSH1 0x20 DUP3 DUP6 ADD ADD GT ISZERO PUSH2 0x59F JUMPI PUSH1 0x0 DUP1 REVERT JUMPDEST SWAP3 POP SWAP3 SWAP1 POP JUMP JUMPDEST PUSH1 0x0 PUSH1 0x20 DUP3 DUP5 SUB SLT ISZERO PUSH2 0x5B7 JUMPI DUP1 DUP2 REVERT JUMPDEST DUP2 CALLDATALOAD PUSH1 0x1 PUSH1 0x1 PUSH1 0xA0 SHL SUB DUP2 AND DUP2 EQ PUSH2 0x5CD JUMPI DUP2 DUP3 REVERT JUMPDEST SWAP4 SWAP3 POP POP POP JUMP JUMPDEST PUSH1 0x0 DUP1 PUSH1 0x0 DUP1 PUSH1 0x60 DUP6 DUP8 SUB SLT ISZERO PUSH2 0x5E9 JUMPI DUP3 DUP4 REVERT JUMPDEST DUP5 CALLDATALOAD SWAP4 POP PUSH1 0x20 DUP6 ADD CALLDATALOAD PUSH1 0x1 PUSH1 0x1 PUSH1 0x40 SHL SUB DUP2 GT ISZERO PUSH2 0x605 JUMPI DUP4 DUP5 REVERT JUMPDEST PUSH2 0x611 DUP8 DUP3 DUP9 ADD PUSH2 0x560 JUMP JUMPDEST SWAP1 SWAP5 POP SWAP3 POP PUSH2 0x624 SWAP1 POP PUSH1 0x40 DUP7 ADD PUSH2 0x54B JUMP JUMPDEST SWAP1 POP SWAP3 SWAP6 SWAP2 SWAP5 POP SWAP3 POP JUMP JUMPDEST PUSH1 0x0 DUP1 PUSH1 0x20 DUP4 DUP6 SUB SLT ISZERO PUSH2 0x641 JUMPI DUP2 DUP3 REVERT JUMPDEST DUP3 CALLDATALOAD PUSH1 0x1 PUSH1 0x1 PUSH1 0x40 SHL SUB DUP2 GT ISZERO PUSH2 0x656 JUMPI DUP3 DUP4 REVERT JUMPDEST PUSH2 0x662 DUP6 DUP3 DUP7 ADD PUSH2 0x560 JUMP JUMPDEST SWAP1 SWAP7 SWAP1 SWAP6 POP SWAP4 POP POP POP POP JUMP JUMPDEST PUSH1 0x0 DUP1 PUSH1 0x0 DUP1 PUSH1 0x0 PUSH1 0x60 DUP7 DUP9 SUB SLT ISZERO PUSH2 0x685 JUMPI DUP1 DUP2 REVERT JUMPDEST DUP6 CALLDATALOAD PUSH1 0x1 PUSH1 0x1 PUSH1 0x40 SHL SUB DUP1 DUP3 GT ISZERO PUSH2 0x69B JUMPI DUP3 DUP4 REVERT JUMPDEST PUSH2 0x6A7 DUP10 DUP4 DUP11 ADD PUSH2 0x560 JUMP JUMPDEST SWAP1 SWAP8 POP SWAP6 POP PUSH1 0x20 DUP9 ADD CALLDATALOAD SWAP2 POP DUP1 DUP3 GT ISZERO PUSH2 0x6BF JUMPI DUP3 DUP4 REVERT JUMPDEST POP PUSH2 0x6CC DUP9 DUP3 DUP10 ADD PUSH2 0x560 JUMP JUMPDEST SWAP1 SWAP5 POP SWAP3 POP PUSH2 0x6DF SWAP1 POP PUSH1 0x40 DUP8 ADD PUSH2 0x54B JUMP JUMPDEST SWAP1 POP SWAP3 SWAP6 POP SWAP3 SWAP6 SWAP1 SWAP4 POP JUMP JUMPDEST PUSH1 0x0 DUP3 DUP5 DUP4 CALLDATACOPY SWAP2 ADD SWAP1 DUP2 MSTORE SWAP2 SWAP1 POP JUMP JUMPDEST PUSH1 0x1 PUSH1 0x1 PUSH1 0xA0 SHL SUB SWAP2 SWAP1 SWAP2 AND DUP2 MSTORE PUSH1 0x20 ADD SWAP1 JUMP JUMPDEST SWAP1 ISZERO ISZERO DUP2 MSTORE PUSH1 0x20 ADD SWAP1 JUMP JUMPDEST SWAP1 DUP2 MSTORE PUSH1 0x20 ADD SWAP1 JUMP JUMPDEST PUSH1 0x0 PUSH1 0x20 DUP1 DUP4 MSTORE DUP4 MLOAD DUP1 DUP3 DUP6 ADD MSTORE DUP3 JUMPDEST DUP2 DUP2 LT ISZERO PUSH2 0x74F JUMPI DUP6 DUP2 ADD DUP4 ADD MLOAD DUP6 DUP3 ADD PUSH1 0x40 ADD MSTORE DUP3 ADD PUSH2 0x733 JUMP JUMPDEST DUP2 DUP2 GT ISZERO PUSH2 0x760 JUMPI DUP4 PUSH1 0x40 DUP4 DUP8 ADD ADD MSTORE JUMPDEST POP PUSH1 0x1F ADD PUSH1 0x1F NOT AND SWAP3 SWAP1 SWAP3 ADD PUSH1 0x40 ADD SWAP4 SWAP3 POP POP POP JUMP JUMPDEST PUSH1 0x20 DUP1 DUP3 MSTORE PUSH1 0x26 SWAP1 DUP3 ADD MSTORE PUSH32 0x4F776E61626C653A206E6577206F776E657220697320746865207A65726F2061 PUSH1 0x40 DUP3 ADD MSTORE PUSH6 0x646472657373 PUSH1 0xD0 SHL PUSH1 0x60 DUP3 ADD MSTORE PUSH1 0x80 ADD SWAP1 JUMP JUMPDEST PUSH1 0x20 DUP1 DUP3 MSTORE DUP2 DUP2 ADD MSTORE PUSH32 0x4F776E61626C653A2063616C6C6572206973206E6F7420746865206F776E6572 PUSH1 0x40 DUP3 ADD MSTORE PUSH1 0x60 ADD SWAP1 JUMP JUMPDEST PUSH1 0x2 DUP2 DIV PUSH1 0x1 DUP3 AND DUP1 PUSH2 0x805 JUMPI PUSH1 0x7F DUP3 AND SWAP2 POP JUMPDEST PUSH1 0x20 DUP3 LT DUP2 EQ ISZERO PUSH2 0x826 JUMPI PUSH4 0x4E487B71 PUSH1 0xE0 SHL PUSH1 0x0 MSTORE PUSH1 0x22 PUSH1 0x4 MSTORE PUSH1 0x24 PUSH1 0x0 REVERT JUMPDEST POP SWAP2 SWAP1 POP JUMP INVALID LOG2 PUSH5 0x6970667358 0x22 SLT KECCAK256 0x26 DUP3 GASPRICE 0xE2 0xF6 MULMOD 0xC7 CREATE2 0xDA 0x2C 0xC4 0xAE DUP15 0xBC DUP6 0xAA PUSH5 0x5A1B0FDE0F XOR SLOAD PUSH29 0x196A17C3520EE364736F6C63430008000033516D4E5534613473793531 POP 0x48 CODECOPY JUMPI PUSH15 0x7452517356766D64564671376A6877 COINBASE PUSH15 0x4773594C32774B705346434354516D PUSH4 0x32747738 GAS PUSH24 0x45524D526D794755316379775044734D4C6B51766B4E4577 MSTORE PUSH22 0x454355486E5575634C6E68516D5964564C656E4A4563 CALLVALUE CODESIZE PUSH2 0x7436 MSIZE CALLDATACOPY PUSH27 0x59627738634C4C4C5064646A477074657A7A62446B636374645876 MLOAD PUSH14 0x66557A527471564C397471473131 DIFFICULTY PUSH17 0x624A56424E6F4B6A78514D795675717632 PUSH22 0x763270696E7A75635436516D625A7A5663437766684B CALLVALUE PUSH11 0x5971555752377959466954 ORIGIN MSIZE PUSH4 0x52513637 PUSH26 0x58486F5874376A65665A6A7246516D514B364D3770756D365732 GAS MSTORE 0x4C PUSH5 0x68677A4577 CALLDATACOPY PUSH23 0x483847594D6D7677523361583368466B4D585772757351 PUSH14 0x5059387A5536787A77766A6F6D7A 0x4E CALLDATALOAD COINBASE PUSH12 0x56665461357A5A7032526B58 PUSH8 0x32654D3334765045 NUMBER PUSH18 0x6F7459516D51346F634836504E6735415769 PUSH16 0x4462574A5179766F5A57683856736443 PUSH11 0x4B314B437975466A4D5455 PUSH5 0x63516D6278 PUSH26 0x36594D6431484E446F4B44644754414B59645642755547556B41 BALANCE CALLDATACOPY PUSH2 0x5156 MSIZE PUSH5 0x74484A7636 PUSH7 0x7A640000000000 "
				},
				"gasEstimates": {
					"creation": {
						"codeDepositCost": "429200",
						"executionCost": "infinite",
						"totalCost": "infinite"
					},
					"external": {
						"add(string,string,bool)": "infinite",
						"addByHash(bytes32,string,bool)": "infinite",
						"get(string)": "infinite",
						"getHash(string)": "infinite",
						"owner()": "1136",
						"renounceOwnership()": "23526",
						"transferOwnership(address)": "23774"
					}
				},
				"methodIdentifiers": {
					"add(string,string,bool)": "773f44b9",
					"addByHash(bytes32,string,bool)": "e7ef321c",
					"get(string)": "693ec85e",
					"getHash(string)": "5b6beeb9",
					"owner()": "8da5cb5b",
					"renounceOwnership()": "715018a6",
					"transferOwnership(address)": "f2fde38b"
				}
			},
			"storageLayout": {
				"storage": [
					{
						"astId": 7,
						"contract": "contracts/worksystems/ConfigRegistry.sol:ConfigRegistry",
						"label": "_owner",
						"offset": 0,
						"slot": "0",
						"type": "t_address"
					},
					{
						"astId": 527,
						"contract": "contracts/worksystems/ConfigRegistry.sol:ConfigRegistry",
						"label": "ConfigFiles",
						"offset": 0,
						"slot": "1",
						"type": "t_mapping(t_bytes32,t_string_storage)"
					}
				],
				"types": {
					"t_address": {
						"encoding": "inplace",
						"label": "address",
						"numberOfBytes": "20"
					},
					"t_bytes32": {
						"encoding": "inplace",
						"label": "bytes32",
						"numberOfBytes": "32"
					},
					"t_mapping(t_bytes32,t_string_storage)": {
						"encoding": "mapping",
						"key": "t_bytes32",
						"label": "mapping(bytes32 => string)",
						"numberOfBytes": "32",
						"value": "t_string_storage"
					},
					"t_string_storage": {
						"encoding": "bytes",
						"label": "string",
						"numberOfBytes": "32"
					}
				}
			},
			"userdoc": {
				"kind": "user",
				"methods": {},
				"version": 1
			}
		}
	}
}