{
	"contracts/worksystems/DataArchive.sol": {
		"DataArchive": {
			"abi": [
				{
					"inputs": [
						{
							"internalType": "address",
							"name": "EXDT_token",
							"type": "address"
						},
						{
							"internalType": "address",
							"name": "_FormattingSystem",
							"type": "address"
						}
					],
					"stateMutability": "nonpayable",
					"type": "constructor"
				},
				{
					"anonymous": false,
					"inputs": [
						{
							"indexed": false,
							"internalType": "bytes",
							"name": "bytesFailure",
							"type": "bytes"
						}
					],
					"name": "BytesFailure",
					"type": "event"
				},
				{
					"anonymous": false,
					"inputs": [
						{
							"indexed": true,
							"internalType": "address",
							"name": "previousOwner",
							"type": "address"
						},
						{
							"indexed": true,
							"internalType": "address",
							"name": "newOwner",
							"type": "address"
						}
					],
					"name": "OwnershipTransferred",
					"type": "event"
				},
				{
					"anonymous": false,
					"inputs": [
						{
							"indexed": true,
							"internalType": "uint256",
							"name": "DataID",
							"type": "uint256"
						},
						{
							"indexed": false,
							"internalType": "string",
							"name": "file_hash",
							"type": "string"
						},
						{
							"indexed": false,
							"internalType": "address",
							"name": "sender",
							"type": "address"
						}
					],
					"name": "_DataArchive",
					"type": "event"
				},
				{
					"anonymous": false,
					"inputs": [
						{
							"indexed": true,
							"internalType": "uint256",
							"name": "DataID",
							"type": "uint256"
						},
						{
							"indexed": true,
							"internalType": "address",
							"name": "voter",
							"type": "address"
						}
					],
					"name": "_TokensRescued",
					"type": "event"
				},
				{
					"anonymous": false,
					"inputs": [
						{
							"indexed": false,
							"internalType": "uint256",
							"name": "numTokens",
							"type": "uint256"
						},
						{
							"indexed": true,
							"internalType": "address",
							"name": "voter",
							"type": "address"
						}
					],
					"name": "_VotingRightsGranted",
					"type": "event"
				},
				{
					"anonymous": false,
					"inputs": [
						{
							"indexed": false,
							"internalType": "uint256",
							"name": "numTokens",
							"type": "uint256"
						},
						{
							"indexed": true,
							"internalType": "address",
							"name": "voter",
							"type": "address"
						}
					],
					"name": "_VotingRightsWithdrawn",
					"type": "event"
				},
				{
					"anonymous": false,
					"inputs": [
						{
							"indexed": true,
							"internalType": "uint256",
							"name": "batchID",
							"type": "uint256"
						},
						{
							"indexed": false,
							"internalType": "address",
							"name": "worker",
							"type": "address"
						}
					],
					"name": "_WorkAllocated",
					"type": "event"
				},
				{
					"anonymous": false,
					"inputs": [
						{
							"indexed": true,
							"internalType": "address",
							"name": "worker",
							"type": "address"
						},
						{
							"indexed": false,
							"internalType": "uint256",
							"name": "timestamp",
							"type": "uint256"
						}
					],
					"name": "_WorkerRegistered",
					"type": "event"
				},
				{
					"anonymous": false,
					"inputs": [
						{
							"indexed": true,
							"internalType": "address",
							"name": "worker",
							"type": "address"
						},
						{
							"indexed": false,
							"internalType": "uint256",
							"name": "timestamp",
							"type": "uint256"
						}
					],
					"name": "_WorkerUnregistered",
					"type": "event"
				},
				{
					"inputs": [],
					"name": "AddressManager",
					"outputs": [
						{
							"internalType": "contract IAddressManager",
							"name": "",
							"type": "address"
						}
					],
					"stateMutability": "view",
					"type": "function"
				},
				{
					"inputs": [],
					"name": "AllTxsCounter",
					"outputs": [
						{
							"internalType": "uint256",
							"name": "",
							"type": "uint256"
						}
					],
					"stateMutability": "view",
					"type": "function"
				},
				{
					"inputs": [],
					"name": "AllocatedBatchCursor",
					"outputs": [
						{
							"internalType": "uint256",
							"name": "",
							"type": "uint256"
						}
					],
					"stateMutability": "view",
					"type": "function"
				},
				{
					"inputs": [
						{
							"internalType": "uint256",
							"name": "",
							"type": "uint256"
						}
					],
					"name": "ArchiveMapping",
					"outputs": [
						{
							"internalType": "string",
							"name": "ipfs_hash",
							"type": "string"
						},
						{
							"internalType": "address",
							"name": "author",
							"type": "address"
						},
						{
							"internalType": "uint256",
							"name": "timestamp",
							"type": "uint256"
						},
						{
							"internalType": "enum DataArchive.DataStatus",
							"name": "status",
							"type": "uint8"
						}
					],
					"stateMutability": "view",
					"type": "function"
				},
				{
					"inputs": [
						{
							"internalType": "string",
							"name": "_a",
							"type": "string"
						},
						{
							"internalType": "string",
							"name": "_b",
							"type": "string"
						}
					],
					"name": "AreStringsEqual",
					"outputs": [
						{
							"internalType": "bool",
							"name": "",
							"type": "bool"
						}
					],
					"stateMutability": "pure",
					"type": "function"
				},
				{
					"inputs": [],
					"name": "BatchCheckingCursor",
					"outputs": [
						{
							"internalType": "uint256",
							"name": "",
							"type": "uint256"
						}
					],
					"stateMutability": "view",
					"type": "function"
				},
				{
					"inputs": [
						{
							"internalType": "uint256",
							"name": "",
							"type": "uint256"
						}
					],
					"name": "CollectedFormatBatchs",
					"outputs": [
						{
							"internalType": "bool",
							"name": "",
							"type": "bool"
						}
					],
					"stateMutability": "view",
					"type": "function"
				},
				{
					"inputs": [
						{
							"internalType": "uint256",
							"name": "_DataId",
							"type": "uint256"
						}
					],
					"name": "DataExists",
					"outputs": [
						{
							"internalType": "bool",
							"name": "exists",
							"type": "bool"
						}
					],
					"stateMutability": "view",
					"type": "function"
				},
				{
					"inputs": [],
					"name": "DataNonce",
					"outputs": [
						{
							"internalType": "uint256",
							"name": "",
							"type": "uint256"
						}
					],
					"stateMutability": "view",
					"type": "function"
				},
				{
					"inputs": [
						{
							"internalType": "address",
							"name": "",
							"type": "address"
						}
					],
					"name": "FormatStakedTokenBalance",
					"outputs": [
						{
							"internalType": "uint256",
							"name": "",
							"type": "uint256"
						}
					],
					"stateMutability": "view",
					"type": "function"
				},
				{
					"inputs": [],
					"name": "FormattingSystem",
					"outputs": [
						{
							"internalType": "contract IFormattingSystem",
							"name": "",
							"type": "address"
						}
					],
					"stateMutability": "view",
					"type": "function"
				},
				{
					"inputs": [],
					"name": "LastBatchCounter",
					"outputs": [
						{
							"internalType": "uint256",
							"name": "",
							"type": "uint256"
						}
					],
					"stateMutability": "view",
					"type": "function"
				},
				{
					"inputs": [
						{
							"internalType": "address",
							"name": "",
							"type": "address"
						},
						{
							"internalType": "uint256",
							"name": "",
							"type": "uint256"
						}
					],
					"name": "MasterWorkers",
					"outputs": [
						{
							"internalType": "address",
							"name": "",
							"type": "address"
						}
					],
					"stateMutability": "view",
					"type": "function"
				},
				{
					"inputs": [
						{
							"internalType": "uint256",
							"name": "CheckedBatchId",
							"type": "uint256"
						}
					],
					"name": "Ping",
					"outputs": [
						{
							"internalType": "bool",
							"name": "",
							"type": "bool"
						}
					],
					"stateMutability": "nonpayable",
					"type": "function"
				},
				{
					"inputs": [],
					"name": "RepManager",
					"outputs": [
						{
							"internalType": "contract IRepManager",
							"name": "",
							"type": "address"
						}
					],
					"stateMutability": "view",
					"type": "function"
				},
				{
					"inputs": [],
					"name": "RewardManager",
					"outputs": [
						{
							"internalType": "contract IRewardManager",
							"name": "",
							"type": "address"
						}
					],
					"stateMutability": "view",
					"type": "function"
				},
				{
					"inputs": [],
					"name": "StakeManager",
					"outputs": [
						{
							"internalType": "contract IStakeManager",
							"name": "",
							"type": "address"
						}
					],
					"stateMutability": "view",
					"type": "function"
				},
				{
					"inputs": [
						{
							"internalType": "uint256",
							"name": "",
							"type": "uint256"
						},
						{
							"internalType": "uint256",
							"name": "",
							"type": "uint256"
						}
					],
					"name": "WorkersPerBatch",
					"outputs": [
						{
							"internalType": "address",
							"name": "",
							"type": "address"
						}
					],
					"stateMutability": "view",
					"type": "function"
				},
				{
					"inputs": [
						{
							"internalType": "address",
							"name": "_user",
							"type": "address"
						},
						{
							"internalType": "uint256",
							"name": "_DataBatchId",
							"type": "uint256"
						}
					],
					"name": "attrUUID",
					"outputs": [
						{
							"internalType": "bytes32",
							"name": "UUID",
							"type": "bytes32"
						}
					],
					"stateMutability": "pure",
					"type": "function"
				},
				{
					"inputs": [
						{
							"internalType": "uint256",
							"name": "",
							"type": "uint256"
						}
					],
					"name": "availableWorkers",
					"outputs": [
						{
							"internalType": "address",
							"name": "",
							"type": "address"
						}
					],
					"stateMutability": "view",
					"type": "function"
				},
				{
					"inputs": [
						{
							"internalType": "uint256",
							"name": "",
							"type": "uint256"
						}
					],
					"name": "busyWorkers",
					"outputs": [
						{
							"internalType": "address",
							"name": "",
							"type": "address"
						}
					],
					"stateMutability": "view",
					"type": "function"
				},
				{
					"inputs": [
						{
							"internalType": "uint256",
							"name": "_DataId",
							"type": "uint256"
						}
					],
					"name": "deleteData",
					"outputs": [],
					"stateMutability": "nonpayable",
					"type": "function"
				},
				{
					"inputs": [
						{
							"internalType": "uint256",
							"name": "_CheckedBatchId",
							"type": "uint256"
						}
					],
					"name": "deleteMapping",
					"outputs": [],
					"stateMutability": "nonpayable",
					"type": "function"
				},
				{
					"inputs": [
						{
							"internalType": "uint256",
							"name": "_k",
							"type": "uint256"
						},
						{
							"internalType": "uint256",
							"name": "N_range",
							"type": "uint256"
						}
					],
					"name": "generateIntegers",
					"outputs": [
						{
							"internalType": "uint256[]",
							"name": "",
							"type": "uint256[]"
						}
					],
					"stateMutability": "view",
					"type": "function"
				},
				{
					"inputs": [],
					"name": "getBlockTimestamp",
					"outputs": [
						{
							"internalType": "uint256",
							"name": "blocktimestamp",
							"type": "uint256"
						}
					],
					"stateMutability": "view",
					"type": "function"
				},
				{
					"inputs": [
						{
							"internalType": "uint256",
							"name": "_DataID",
							"type": "uint256"
						}
					],
					"name": "getDataById",
					"outputs": [
						{
							"components": [
								{
									"internalType": "string",
									"name": "ipfs_hash",
									"type": "string"
								},
								{
									"internalType": "address",
									"name": "author",
									"type": "address"
								},
								{
									"internalType": "uint256",
									"name": "timestamp",
									"type": "uint256"
								},
								{
									"internalType": "enum DataArchive.DataStatus",
									"name": "status",
									"type": "uint8"
								}
							],
							"internalType": "struct DataArchive.ArchiveData",
							"name": "data",
							"type": "tuple"
						}
					],
					"stateMutability": "view",
					"type": "function"
				},
				{
					"inputs": [
						{
							"internalType": "uint256",
							"name": "_DataID",
							"type": "uint256"
						}
					],
					"name": "getFileById",
					"outputs": [
						{
							"internalType": "string",
							"name": "ipfs_hash",
							"type": "string"
						}
					],
					"stateMutability": "view",
					"type": "function"
				},
				{
					"inputs": [],
					"name": "getLastDataId",
					"outputs": [
						{
							"internalType": "uint256",
							"name": "DataId",
							"type": "uint256"
						}
					],
					"stateMutability": "view",
					"type": "function"
				},
				{
					"inputs": [],
					"name": "getRandom",
					"outputs": [
						{
							"internalType": "uint256",
							"name": "",
							"type": "uint256"
						}
					],
					"stateMutability": "view",
					"type": "function"
				},
				{
					"inputs": [],
					"name": "getSeed",
					"outputs": [
						{
							"internalType": "bytes32",
							"name": "addr",
							"type": "bytes32"
						}
					],
					"stateMutability": "view",
					"type": "function"
				},
				{
					"inputs": [],
					"name": "getTxCounter",
					"outputs": [
						{
							"internalType": "uint256",
							"name": "Counter",
							"type": "uint256"
						}
					],
					"stateMutability": "view",
					"type": "function"
				},
				{
					"inputs": [],
					"name": "owner",
					"outputs": [
						{
							"internalType": "address",
							"name": "",
							"type": "address"
						}
					],
					"stateMutability": "view",
					"type": "function"
				},
				{
					"inputs": [
						{
							"internalType": "uint256",
							"name": "k",
							"type": "uint256"
						},
						{
							"internalType": "uint256",
							"name": "N",
							"type": "uint256"
						}
					],
					"name": "random_selection",
					"outputs": [
						{
							"internalType": "uint256[]",
							"name": "",
							"type": "uint256[]"
						}
					],
					"stateMutability": "view",
					"type": "function"
				},
				{
					"inputs": [],
					"name": "renounceOwnership",
					"outputs": [],
					"stateMutability": "nonpayable",
					"type": "function"
				},
				{
					"inputs": [],
					"name": "sFuel",
					"outputs": [
						{
							"internalType": "address",
							"name": "",
							"type": "address"
						}
					],
					"stateMutability": "view",
					"type": "function"
				},
				{
					"inputs": [
						{
							"internalType": "uint256",
							"name": "N",
							"type": "uint256"
						}
					],
					"name": "shuffle_array",
					"outputs": [
						{
							"internalType": "uint256[]",
							"name": "",
							"type": "uint256[]"
						}
					],
					"stateMutability": "view",
					"type": "function"
				},
				{
					"inputs": [],
					"name": "token",
					"outputs": [
						{
							"internalType": "contract IERC20",
							"name": "",
							"type": "address"
						}
					],
					"stateMutability": "view",
					"type": "function"
				},
				{
					"inputs": [
						{
							"internalType": "address",
							"name": "newOwner",
							"type": "address"
						}
					],
					"name": "transferOwnership",
					"outputs": [],
					"stateMutability": "nonpayable",
					"type": "function"
				},
				{
					"inputs": [
						{
							"internalType": "address",
							"name": "addr",
							"type": "address"
						}
					],
					"name": "updateAddressManager",
					"outputs": [],
					"stateMutability": "nonpayable",
					"type": "function"
				},
				{
					"inputs": [
						{
							"internalType": "address",
							"name": "addr",
							"type": "address"
						}
					],
					"name": "updatePreviousSystem",
					"outputs": [],
					"stateMutability": "nonpayable",
					"type": "function"
				},
				{
					"inputs": [
						{
							"internalType": "address",
							"name": "addr",
							"type": "address"
						}
					],
					"name": "updateRepManager",
					"outputs": [],
					"stateMutability": "nonpayable",
					"type": "function"
				},
				{
					"inputs": [
						{
							"internalType": "address",
							"name": "addr",
							"type": "address"
						}
					],
					"name": "updateRewardManager",
					"outputs": [],
					"stateMutability": "nonpayable",
					"type": "function"
				},
				{
					"inputs": [
						{
							"internalType": "address",
							"name": "addr",
							"type": "address"
						}
					],
					"name": "updateStakeManager",
					"outputs": [],
					"stateMutability": "nonpayable",
					"type": "function"
				}
			],
			"devdoc": {
				"author": "Mathias Dail",
				"kind": "dev",
				"methods": {
					"DataExists(uint256)": {
						"details": "Checks if a FormattedData exists",
						"params": {
							"_DataId": "The DataID whose existance is to be evaluated."
						},
						"returns": {
							"exists": "Boolean Indicates whether a FormattedData exists for the provided DataID"
						}
					},
					"attrUUID(address,uint256)": {
						"details": "Generates an identifier which associates a user and a FormattedData together",
						"params": {
							"_DataBatchId": "Integer identifier associated with target FormattedData"
						},
						"returns": {
							"UUID": "Hash which is deterministic from _user and _DataBatchId"
						}
					},
					"constructor": {
						"details": "Initializer. Can only be called once."
					},
					"generateIntegers(uint256,uint256)": {
						"details": "Return value",
						"returns": {
							"_0": "value of 'number'"
						}
					},
					"getBlockTimestamp()": {
						"returns": {
							"blocktimestamp": "block.timestamp"
						}
					},
					"getDataById(uint256)": {
						"returns": {
							"data": "of the id _DataID"
						}
					},
					"getFileById(uint256)": {
						"returns": {
							"ipfs_hash": "of the last Dataed a user started"
						}
					},
					"getLastDataId()": {
						"returns": {
							"DataId": "of the last Dataed a user started"
						}
					},
					"getRandom()": {
						"details": "Return value",
						"returns": {
							"_0": "value of 'number'"
						}
					},
					"getSeed()": {
						"details": "Initializer. Can only be called once."
					},
					"getTxCounter()": {
						"returns": {
							"Counter": "of the last Dataed a user started"
						}
					},
					"owner()": {
						"details": "Returns the address of the current owner."
					},
					"renounceOwnership()": {
						"details": "Leaves the contract without owner. It will not be possible to call `onlyOwner` functions anymore. Can only be called by the current owner. NOTE: Renouncing ownership will leave the contract without an owner, thereby removing any functionality that is only available to the owner."
					},
					"transferOwnership(address)": {
						"details": "Transfers ownership of the contract to a new account (`newOwner`). Can only be called by the current owner."
					}
				},
				"title": "WorkSystem Archive v0.2",
				"version": 1
			},
			"evm": {
				"assembly": "    /* \"contracts/worksystems/DataArchive.sol\":3406:61013  contract DataArchive is Ownable, RandomAllocator {\r... */\n  mstore(0x40, 0x80)\n    /* \"contracts/worksystems/DataArchive.sol\":8016:8017  0 */\n  0x00\n    /* \"contracts/worksystems/DataArchive.sol\":7989:8017  uint256 public DataNonce = 0 */\n  0x02\n  dup2\n  swap1\n  sstore\n    /* \"contracts/worksystems/DataArchive.sol\":8502:8567  address public sFuel = 0x14F52f3FC010ab6cA81568D4A6794D5eAB3c6155 */\n  0x09\n  dup1\n  sload\n  not(sub(shl(0xa0, 0x01), 0x01))\n  and\n    /* \"contracts/worksystems/DataArchive.sol\":8525:8567  0x14F52f3FC010ab6cA81568D4A6794D5eAB3c6155 */\n  0x14f52f3fc010ab6ca81568d4a6794d5eab3c6155\n    /* \"contracts/worksystems/DataArchive.sol\":8502:8567  address public sFuel = 0x14F52f3FC010ab6cA81568D4A6794D5eAB3c6155 */\n  or\n  swap1\n  sstore\n  0x01\n    /* \"contracts/worksystems/DataArchive.sol\":8705:8740  uint256 public LastBatchCounter = 1 */\n  0x0a\n  dup2\n  swap1\n  sstore\n    /* \"contracts/worksystems/DataArchive.sol\":8747:8785  uint256 public BatchCheckingCursor = 1 */\n  0x0b\n  dup2\n  swap1\n  sstore\n    /* \"contracts/worksystems/DataArchive.sol\":8792:8831  uint256 public AllocatedBatchCursor = 1 */\n  0x0c\n  sstore\n    /* \"contracts/worksystems/DataArchive.sol\":8945:8977  uint256 public AllTxsCounter = 0 */\n  0x0d\n  sstore\n    /* \"contracts/worksystems/DataArchive.sol\":9295:9677  constructor(address EXDT_token, address _FormattingSystem)  {        \r... */\n  callvalue\n  dup1\n  iszero\n  tag_1\n  jumpi\n  0x00\n  dup1\n  revert\ntag_1:\n  pop\n  mload(0x40)\n  sub(codesize, bytecodeSize)\n  dup1\n  bytecodeSize\n  dup4\n  codecopy\n  dup2\n  add\n  0x40\n  dup2\n  swap1\n  mstore\n  tag_2\n  swap2\n  tag_3\n  jump\t// in\ntag_2:\n    /* \"@openzeppelin/contracts/access/Ownable.sol\":921:953  _transferOwnership(_msgSender()) */\n  tag_7\n    /* \"@openzeppelin/contracts/access/Ownable.sol\":940:952  _msgSender() */\n  tag_8\n    /* \"@openzeppelin/contracts/access/Ownable.sol\":940:950  _msgSender */\n  tag_9\n    /* \"@openzeppelin/contracts/access/Ownable.sol\":940:952  _msgSender() */\n  jump\t// in\ntag_8:\n    /* \"@openzeppelin/contracts/access/Ownable.sol\":921:939  _transferOwnership */\n  tag_10\n    /* \"@openzeppelin/contracts/access/Ownable.sol\":921:953  _transferOwnership(_msgSender()) */\n  jump\t// in\ntag_7:\n    /* \"contracts/worksystems/DataArchive.sol\":9374:9379  token */\n  0x0e\n    /* \"contracts/worksystems/DataArchive.sol\":9374:9400  token = IERC20(EXDT_token) */\n  dup1\n  sload\n  sub(shl(0xa0, 0x01), 0x01)\n  swap4\n  dup5\n  and\n  not(sub(shl(0xa0, 0x01), 0x01))\n  swap2\n  dup3\n  and\n  or\n  swap1\n  swap2\n  sstore\n    /* \"contracts/worksystems/DataArchive.sol\":9411:9427  FormattingSystem */\n  0x13\n    /* \"contracts/worksystems/DataArchive.sol\":9411:9466  FormattingSystem = IFormattingSystem(_FormattingSystem) */\n  dup1\n  sload\n  swap3\n  swap1\n  swap4\n  and\n  swap2\n  and\n  or\n  swap1\n  sstore\n    /* \"contracts/worksystems/DataArchive.sol\":9374:9379  token */\n  0x00\n    /* \"contracts/worksystems/DataArchive.sol\":9479:9488  DataNonce */\n  0x02\n    /* \"contracts/worksystems/DataArchive.sol\":9479:9509  DataNonce = INITIAL_Data_NONCE */\n  sstore\n    /* \"contracts/worksystems/DataArchive.sol\":3406:61013  contract DataArchive is Ownable, RandomAllocator {\r... */\n  jump(tag_15)\n    /* \"@openzeppelin/contracts/utils/Context.sol\":640:736  function _msgSender() internal view virtual returns (address) {... */\ntag_9:\n    /* \"@openzeppelin/contracts/utils/Context.sol\":719:729  msg.sender */\n  caller\n    /* \"@openzeppelin/contracts/utils/Context.sol\":640:736  function _msgSender() internal view virtual returns (address) {... */\n  swap1\n  jump\t// out\n    /* \"@openzeppelin/contracts/access/Ownable.sol\":2270:2457  function _transferOwnership(address newOwner) internal virtual {... */\ntag_10:\n    /* \"@openzeppelin/contracts/access/Ownable.sol\":2343:2359  address oldOwner */\n  0x00\n    /* \"@openzeppelin/contracts/access/Ownable.sol\":2362:2368  _owner */\n  dup1\n  sload\n  sub(shl(0xa0, 0x01), 0x01)\n    /* \"@openzeppelin/contracts/access/Ownable.sol\":2378:2395  _owner = newOwner */\n  dup4\n  dup2\n  and\n  not(sub(shl(0xa0, 0x01), 0x01))\n  dup4\n  and\n  dup2\n  or\n  dup5\n  sstore\n    /* \"@openzeppelin/contracts/access/Ownable.sol\":2410:2450  OwnershipTransferred(oldOwner, newOwner) */\n  mload(0x40)\n    /* \"@openzeppelin/contracts/access/Ownable.sol\":2362:2368  _owner */\n  swap2\n  swap1\n  swap3\n  and\n  swap3\n  dup4\n  swap2\n    /* \"@openzeppelin/contracts/access/Ownable.sol\":2410:2450  OwnershipTransferred(oldOwner, newOwner) */\n  0x8be0079c531659141344cd1fd0a4f28419497f9722a3daafe3b4186f6b6457e0\n  swap2\n    /* \"@openzeppelin/contracts/access/Ownable.sol\":2343:2359  address oldOwner */\n  swap1\n    /* \"@openzeppelin/contracts/access/Ownable.sol\":2410:2450  OwnershipTransferred(oldOwner, newOwner) */\n  log3\n    /* \"@openzeppelin/contracts/access/Ownable.sol\":2270:2457  function _transferOwnership(address newOwner) internal virtual {... */\n  pop\n  pop\n  jump\t// out\n    /* \"#utility.yul\":14:193   */\ntag_16:\n    /* \"#utility.yul\":95:108   */\n  dup1\n  mload\n  sub(shl(0xa0, 0x01), 0x01)\n    /* \"#utility.yul\":137:168   */\n  dup2\n  and\n    /* \"#utility.yul\":127:169   */\n  dup2\n  eq\n    /* \"#utility.yul\":117:119   */\n  tag_18\n  jumpi\n    /* \"#utility.yul\":183:184   */\n  0x00\n    /* \"#utility.yul\":180:181   */\n  dup1\n    /* \"#utility.yul\":173:185   */\n  revert\n    /* \"#utility.yul\":117:119   */\ntag_18:\n    /* \"#utility.yul\":76:193   */\n  swap2\n  swap1\n  pop\n  jump\t// out\n    /* \"#utility.yul\":198:505   */\ntag_3:\n  0x00\n  dup1\n    /* \"#utility.yul\":338:340   */\n  0x40\n    /* \"#utility.yul\":326:335   */\n  dup4\n    /* \"#utility.yul\":317:324   */\n  dup6\n    /* \"#utility.yul\":313:336   */\n  sub\n    /* \"#utility.yul\":309:341   */\n  slt\n    /* \"#utility.yul\":306:308   */\n  iszero\n  tag_20\n  jumpi\n    /* \"#utility.yul\":359:365   */\n  dup2\n    /* \"#utility.yul\":351:357   */\n  dup3\n    /* \"#utility.yul\":344:366   */\n  revert\n    /* \"#utility.yul\":306:308   */\ntag_20:\n    /* \"#utility.yul\":387:429   */\n  tag_21\n    /* \"#utility.yul\":419:428   */\n  dup4\n    /* \"#utility.yul\":387:429   */\n  tag_16\n  jump\t// in\ntag_21:\n    /* \"#utility.yul\":377:429   */\n  swap2\n  pop\n    /* \"#utility.yul\":448:499   */\n  tag_22\n    /* \"#utility.yul\":495:497   */\n  0x20\n    /* \"#utility.yul\":484:493   */\n  dup5\n    /* \"#utility.yul\":480:498   */\n  add\n    /* \"#utility.yul\":448:499   */\n  tag_16\n  jump\t// in\ntag_22:\n    /* \"#utility.yul\":438:499   */\n  swap1\n  pop\n    /* \"#utility.yul\":296:505   */\n  swap3\n  pop\n  swap3\n  swap1\n  pop\n  jump\t// out\ntag_15:\n    /* \"contracts/worksystems/DataArchive.sol\":3406:61013  contract DataArchive is Ownable, RandomAllocator {\r... */\n  dataSize(sub_0)\n  dup1\n  dataOffset(sub_0)\n  0x00\n  codecopy\n  0x00\n  return\nstop\n\nsub_0: assembly {\n        /* \"contracts/worksystems/DataArchive.sol\":3406:61013  contract DataArchive is Ownable, RandomAllocator {\r... */\n      mstore(0x40, 0x80)\n      callvalue\n      dup1\n      iszero\n      tag_1\n      jumpi\n      0x00\n      dup1\n      revert\n    tag_1:\n      pop\n      jumpi(tag_2, lt(calldatasize, 0x04))\n      shr(0xe0, calldataload(0x00))\n      dup1\n      0xa16a11e0\n      gt\n      tag_46\n      jumpi\n      dup1\n      0xdd618682\n      gt\n      tag_47\n      jumpi\n      dup1\n      0xf2722a9f\n      gt\n      tag_48\n      jumpi\n      dup1\n      0xf2722a9f\n      eq\n      tag_40\n      jumpi\n      dup1\n      0xf2d9e74d\n      eq\n      tag_41\n      jumpi\n      dup1\n      0xf2fde38b\n      eq\n      tag_42\n      jumpi\n      dup1\n      0xf5ae7c7d\n      eq\n      tag_43\n      jumpi\n      dup1\n      0xf721de4a\n      eq\n      tag_44\n      jumpi\n      dup1\n      0xfc0c546a\n      eq\n      tag_45\n      jumpi\n      jump(tag_2)\n    tag_48:\n      dup1\n      0xdd618682\n      eq\n      tag_35\n      jumpi\n      dup1\n      0xdf05368e\n      eq\n      tag_36\n      jumpi\n      dup1\n      0xe44c974b\n      eq\n      tag_37\n      jumpi\n      dup1\n      0xe4e6025e\n      eq\n      tag_38\n      jumpi\n      dup1\n      0xef4fcdad\n      eq\n      tag_39\n      jumpi\n      jump(tag_2)\n    tag_47:\n      dup1\n      0xb1d7ea98\n      gt\n      tag_49\n      jumpi\n      dup1\n      0xb1d7ea98\n      eq\n      tag_29\n      jumpi\n      dup1\n      0xb8f011b3\n      eq\n      tag_30\n      jumpi\n      dup1\n      0xc47c4bc2\n      eq\n      tag_31\n      jumpi\n      dup1\n      0xced5ca6f\n      eq\n      tag_32\n      jumpi\n      dup1\n      0xd6b0206c\n      eq\n      tag_33\n      jumpi\n      dup1\n      0xd822ce01\n      eq\n      tag_34\n      jumpi\n      jump(tag_2)\n    tag_49:\n      dup1\n      0xa16a11e0\n      eq\n      tag_24\n      jumpi\n      dup1\n      0xa511dba0\n      eq\n      tag_25\n      jumpi\n      dup1\n      0xa9057790\n      eq\n      tag_26\n      jumpi\n      dup1\n      0xaacc5a17\n      eq\n      tag_27\n      jumpi\n      dup1\n      0xab43e78d\n      eq\n      tag_28\n      jumpi\n      jump(tag_2)\n    tag_46:\n      dup1\n      0x715018a6\n      gt\n      tag_50\n      jumpi\n      dup1\n      0x8473850b\n      gt\n      tag_51\n      jumpi\n      dup1\n      0x8473850b\n      eq\n      tag_18\n      jumpi\n      dup1\n      0x8cbdab3c\n      eq\n      tag_19\n      jumpi\n      dup1\n      0x8d289f8f\n      eq\n      tag_20\n      jumpi\n      dup1\n      0x8da5cb5b\n      eq\n      tag_21\n      jumpi\n      dup1\n      0x8df0296e\n      eq\n      tag_22\n      jumpi\n      dup1\n      0xa1103f37\n      eq\n      tag_23\n      jumpi\n      jump(tag_2)\n    tag_51:\n      dup1\n      0x715018a6\n      eq\n      tag_13\n      jumpi\n      dup1\n      0x796b89b9\n      eq\n      tag_14\n      jumpi\n      dup1\n      0x7a34da67\n      eq\n      tag_15\n      jumpi\n      dup1\n      0x821aa8c0\n      eq\n      tag_16\n      jumpi\n      dup1\n      0x83cc6ef2\n      eq\n      tag_17\n      jumpi\n      jump(tag_2)\n    tag_50:\n      dup1\n      0x353f44d0\n      gt\n      tag_52\n      jumpi\n      dup1\n      0x353f44d0\n      eq\n      tag_8\n      jumpi\n      dup1\n      0x39e7357c\n      eq\n      tag_9\n      jumpi\n      dup1\n      0x48257dc9\n      eq\n      tag_10\n      jumpi\n      dup1\n      0x4fe8b4c1\n      eq\n      tag_11\n      jumpi\n      dup1\n      0x51912f29\n      eq\n      tag_12\n      jumpi\n      jump(tag_2)\n    tag_52:\n      dup1\n      0x050eb2eb\n      eq\n      tag_3\n      jumpi\n      dup1\n      0x0e6661a7\n      eq\n      tag_4\n      jumpi\n      dup1\n      0x171ee06a\n      eq\n      tag_5\n      jumpi\n      dup1\n      0x29a47bc7\n      eq\n      tag_6\n      jumpi\n      dup1\n      0x3538af82\n      eq\n      tag_7\n      jumpi\n    tag_2:\n      0x00\n      dup1\n      revert\n        /* \"contracts/worksystems/DataArchive.sol\":9964:10095  function updateRewardManager(address addr)\r... */\n    tag_3:\n      tag_53\n      tag_54\n      calldatasize\n      0x04\n      tag_55\n      jump\t// in\n    tag_54:\n      tag_56\n      jump\t// in\n    tag_53:\n      stop\n        /* \"contracts/worksystems/DataArchive.sol\":7989:8017  uint256 public DataNonce = 0 */\n    tag_4:\n      tag_57\n      tag_58\n      jump\t// in\n    tag_57:\n      mload(0x40)\n      tag_59\n      swap2\n      swap1\n      tag_307\n      jump\t// in\n    tag_59:\n      mload(0x40)\n      dup1\n      swap2\n      sub\n      swap1\n      return\n        /* \"contracts/worksystems/DataArchive.sol\":7778:7831  mapping(uint256 => bool) public CollectedFormatBatchs */\n    tag_5:\n      tag_61\n      tag_62\n      calldatasize\n      0x04\n      tag_63\n      jump\t// in\n    tag_62:\n      tag_64\n      jump\t// in\n    tag_61:\n      mload(0x40)\n      tag_59\n      swap2\n      swap1\n      tag_66\n      jump\t// in\n        /* \"contracts/worksystems/DataArchive.sol\":9054:9083  IRepManager public RepManager */\n    tag_6:\n      tag_67\n      tag_68\n      jump\t// in\n    tag_67:\n      mload(0x40)\n      tag_59\n      swap2\n      swap1\n      tag_75\n      jump\t// in\n        /* \"contracts/worksystems/DataArchive.sol\":8363:8396  address[] public availableWorkers */\n    tag_7:\n      tag_67\n      tag_72\n      calldatasize\n      0x04\n      tag_63\n      jump\t// in\n    tag_72:\n      tag_73\n      jump\t// in\n        /* \"contracts/worksystems/DataArchive.sol\":8192:8251  mapping(address => uint256) public FormatStakedTokenBalance */\n    tag_8:\n      tag_57\n      tag_77\n      calldatasize\n      0x04\n      tag_55\n      jump\t// in\n    tag_77:\n      tag_78\n      jump\t// in\n        /* \"contracts/worksystems/RandomAllocator.sol\":360:688  function getSeed() public view returns (bytes32 addr) {\r... */\n    tag_9:\n      tag_57\n      tag_81\n      jump\t// in\n        /* \"contracts/worksystems/DataArchive.sol\":17437:18914  function Ping(uint256 CheckedBatchId) public returns(bool){\r... */\n    tag_10:\n      tag_61\n      tag_85\n      calldatasize\n      0x04\n      tag_63\n      jump\t// in\n    tag_85:\n      tag_86\n      jump\t// in\n        /* \"contracts/worksystems/DataArchive.sol\":19146:19264  function deleteData(uint256 _DataId)\r... */\n    tag_11:\n      tag_53\n      tag_89\n      calldatasize\n      0x04\n      tag_63\n      jump\t// in\n    tag_89:\n      tag_90\n      jump\t// in\n        /* \"contracts/worksystems/DataArchive.sol\":9090:9125  IRewardManager public RewardManager */\n    tag_12:\n      tag_67\n      tag_92\n      jump\t// in\n        /* \"@openzeppelin/contracts/access/Ownable.sol\":1668:1769  function renounceOwnership() public virtual onlyOwner {... */\n    tag_13:\n      tag_53\n      tag_96\n      jump\t// in\n        /* \"contracts/worksystems/DataArchive.sol\":60461:60577  function getBlockTimestamp()  public view returns (uint256 blocktimestamp) {\r... */\n    tag_14:\n      tag_57\n      tag_98\n      jump\t// in\n        /* \"contracts/worksystems/DataArchive.sol\":9132:9169  IAddressManager public AddressManager */\n    tag_15:\n      tag_67\n      tag_101\n      jump\t// in\n        /* \"contracts/worksystems/DataArchive.sol\":8403:8431  address[] public busyWorkers */\n    tag_16:\n      tag_67\n      tag_105\n      calldatasize\n      0x04\n      tag_63\n      jump\t// in\n    tag_105:\n      tag_106\n      jump\t// in\n        /* \"contracts/worksystems/DataArchive.sol\":9014:9047  IStakeManager public StakeManager */\n    tag_17:\n      tag_67\n      tag_109\n      jump\t// in\n        /* \"contracts/worksystems/DataArchive.sol\":8705:8740  uint256 public LastBatchCounter = 1 */\n    tag_18:\n      tag_57\n      tag_113\n      jump\t// in\n        /* \"contracts/worksystems/DataArchive.sol\":8093:8146  mapping(uint256 => ArchiveData) public ArchiveMapping */\n    tag_19:\n      tag_115\n      tag_116\n      calldatasize\n      0x04\n      tag_63\n      jump\t// in\n    tag_116:\n      tag_117\n      jump\t// in\n    tag_115:\n      mload(0x40)\n      tag_59\n      swap5\n      swap4\n      swap3\n      swap2\n      swap1\n      tag_119\n      jump\t// in\n        /* \"contracts/worksystems/DataArchive.sol\":9178:9219  IFormattingSystem public FormattingSystem */\n    tag_20:\n      tag_67\n      tag_121\n      jump\t// in\n        /* \"@openzeppelin/contracts/access/Ownable.sol\":1036:1121  function owner() public view virtual returns (address) {... */\n    tag_21:\n      tag_67\n      tag_125\n      jump\t// in\n        /* \"contracts/worksystems/DataArchive.sol\":8441:8493  mapping(uint256 => address[]) public WorkersPerBatch */\n    tag_22:\n      tag_67\n      tag_128\n      calldatasize\n      0x04\n      tag_129\n      jump\t// in\n    tag_128:\n      tag_130\n      jump\t// in\n        /* \"contracts/worksystems/DataArchive.sol\":60846:61010  function attrUUID(address _user, uint256 _DataBatchId) public pure returns (bytes32 UUID) {\r... */\n    tag_23:\n      tag_57\n      tag_133\n      calldatasize\n      0x04\n      tag_134\n      jump\t// in\n    tag_133:\n      tag_135\n      jump\t// in\n        /* \"contracts/worksystems/DataArchive.sol\":10103:10240  function updatePreviousSystem(address addr)\r... */\n    tag_24:\n      tag_53\n      tag_138\n      calldatasize\n      0x04\n      tag_55\n      jump\t// in\n    tag_138:\n      tag_139\n      jump\t// in\n        /* \"contracts/worksystems/DataArchive.sol\":49891:49989  function getLastDataId() public view returns (uint256 DataId) {\r... */\n    tag_25:\n      tag_57\n      tag_141\n      jump\t// in\n        /* \"contracts/worksystems/DataArchive.sol\":20814:21081  function AreStringsEqual(string memory _a, string memory _b) public pure returns(bool){\r... */\n    tag_26:\n      tag_61\n      tag_144\n      calldatasize\n      0x04\n      tag_145\n      jump\t// in\n    tag_144:\n      tag_146\n      jump\t// in\n        /* \"contracts/worksystems/RandomAllocator.sol\":776:1077  function getRandom() public view returns (uint256){\r... */\n    tag_27:\n      tag_57\n      tag_149\n      jump\t// in\n        /* \"contracts/worksystems/DataArchive.sol\":8502:8567  address public sFuel = 0x14F52f3FC010ab6cA81568D4A6794D5eAB3c6155 */\n    tag_28:\n      tag_67\n      tag_152\n      jump\t// in\n        /* \"contracts/worksystems/RandomAllocator.sol\":1164:2250  function generateIntegers(uint256 _k, uint256 N_range) public view returns (uint256[] memory){\r... */\n    tag_29:\n      tag_154\n      tag_155\n      calldatasize\n      0x04\n      tag_129\n      jump\t// in\n    tag_155:\n      tag_156\n      jump\t// in\n    tag_154:\n      mload(0x40)\n      tag_59\n      swap2\n      swap1\n      tag_158\n      jump\t// in\n        /* \"contracts/worksystems/RandomAllocator.sol\":3718:4222  function random_selection(uint256 k, uint256 N) public view returns(uint256[] memory){\r... */\n    tag_30:\n      tag_154\n      tag_160\n      calldatasize\n      0x04\n      tag_129\n      jump\t// in\n    tag_160:\n      tag_161\n      jump\t// in\n        /* \"contracts/worksystems/DataArchive.sol\":10248:10382  function updateAddressManager(address addr)\r... */\n    tag_31:\n      tag_53\n      tag_164\n      calldatasize\n      0x04\n      tag_55\n      jump\t// in\n    tag_164:\n      tag_165\n      jump\t// in\n        /* \"contracts/worksystems/DataArchive.sol\":18924:19136  function deleteMapping(uint256 _CheckedBatchId)\r... */\n    tag_32:\n      tag_53\n      tag_167\n      calldatasize\n      0x04\n      tag_63\n      jump\t// in\n    tag_167:\n      tag_168\n      jump\t// in\n        /* \"contracts/worksystems/DataArchive.sol\":8792:8831  uint256 public AllocatedBatchCursor = 1 */\n    tag_33:\n      tag_57\n      tag_170\n      jump\t// in\n        /* \"contracts/worksystems/DataArchive.sol\":8306:8356  mapping(address => address[]) public MasterWorkers */\n    tag_34:\n      tag_67\n      tag_173\n      calldatasize\n      0x04\n      tag_134\n      jump\t// in\n    tag_173:\n      tag_174\n      jump\t// in\n        /* \"contracts/worksystems/DataArchive.sol\":9830:9952  function updateRepManager(address addr)\r... */\n    tag_35:\n      tag_53\n      tag_177\n      calldatasize\n      0x04\n      tag_55\n      jump\t// in\n    tag_177:\n      tag_178\n      jump\t// in\n        /* \"contracts/worksystems/DataArchive.sol\":9691:9818  function updateStakeManager(address addr)\r... */\n    tag_36:\n      tag_53\n      tag_180\n      calldatasize\n      0x04\n      tag_55\n      jump\t// in\n    tag_180:\n      tag_181\n      jump\t// in\n        /* \"contracts/worksystems/RandomAllocator.sol\":3382:3708  function shuffle_array(uint256 N) public view returns(uint256[] memory){\r... */\n    tag_37:\n      tag_154\n      tag_183\n      calldatasize\n      0x04\n      tag_63\n      jump\t// in\n    tag_183:\n      tag_184\n      jump\t// in\n        /* \"contracts/worksystems/DataArchive.sol\":49601:49785  function getFileById(uint256 _DataID) public view returns (string memory ipfs_hash) {\r... */\n    tag_38:\n      tag_186\n      tag_187\n      calldatasize\n      0x04\n      tag_63\n      jump\t// in\n    tag_187:\n      tag_188\n      jump\t// in\n    tag_186:\n      mload(0x40)\n      tag_59\n      swap2\n      swap1\n      tag_190\n      jump\t// in\n        /* \"contracts/worksystems/DataArchive.sol\":8747:8785  uint256 public BatchCheckingCursor = 1 */\n    tag_39:\n      tag_57\n      tag_192\n      jump\t// in\n        /* \"contracts/worksystems/DataArchive.sol\":49318:49492  function getDataById(uint256 _DataID) public view returns (ArchiveData memory data) {\r... */\n    tag_40:\n      tag_194\n      tag_195\n      calldatasize\n      0x04\n      tag_63\n      jump\t// in\n    tag_195:\n      tag_196\n      jump\t// in\n    tag_194:\n      mload(0x40)\n      tag_59\n      swap2\n      swap1\n      tag_198\n      jump\t// in\n        /* \"contracts/worksystems/DataArchive.sol\":8945:8977  uint256 public AllTxsCounter = 0 */\n    tag_41:\n      tag_57\n      tag_200\n      jump\t// in\n        /* \"@openzeppelin/contracts/access/Ownable.sol\":1918:2116  function transferOwnership(address newOwner) public virtual onlyOwner {... */\n    tag_42:\n      tag_53\n      tag_203\n      calldatasize\n      0x04\n      tag_55\n      jump\t// in\n    tag_203:\n      tag_204\n      jump\t// in\n        /* \"contracts/worksystems/DataArchive.sol\":50612:50714  function getTxCounter() public view returns (uint256 Counter) {\r... */\n    tag_43:\n      tag_57\n      tag_206\n      jump\t// in\n        /* \"contracts/worksystems/DataArchive.sol\":54186:54306  function DataExists(uint256 _DataId) public view returns  (bool exists) {\r... */\n    tag_44:\n      tag_61\n      tag_209\n      calldatasize\n      0x04\n      tag_63\n      jump\t// in\n    tag_209:\n      tag_210\n      jump\t// in\n        /* \"contracts/worksystems/DataArchive.sol\":8988:9007  IERC20 public token */\n    tag_45:\n      tag_67\n      tag_213\n      jump\t// in\n        /* \"contracts/worksystems/DataArchive.sol\":9964:10095  function updateRewardManager(address addr)\r... */\n    tag_56:\n        /* \"@openzeppelin/contracts/access/Ownable.sol\":1259:1271  _msgSender() */\n      tag_217\n        /* \"@openzeppelin/contracts/access/Ownable.sol\":1259:1269  _msgSender */\n      tag_218\n        /* \"@openzeppelin/contracts/access/Ownable.sol\":1259:1271  _msgSender() */\n      jump\t// in\n    tag_217:\n      sub(shl(0xa0, 0x01), 0x01)\n        /* \"@openzeppelin/contracts/access/Ownable.sol\":1248:1271  owner() == _msgSender() */\n      and\n        /* \"@openzeppelin/contracts/access/Ownable.sol\":1248:1255  owner() */\n      tag_219\n        /* \"@openzeppelin/contracts/access/Ownable.sol\":1248:1253  owner */\n      tag_125\n        /* \"@openzeppelin/contracts/access/Ownable.sol\":1248:1255  owner() */\n      jump\t// in\n    tag_219:\n      sub(shl(0xa0, 0x01), 0x01)\n        /* \"@openzeppelin/contracts/access/Ownable.sol\":1248:1271  owner() == _msgSender() */\n      and\n      eq\n        /* \"@openzeppelin/contracts/access/Ownable.sol\":1240:1308  require(owner() == _msgSender(), \"Ownable: caller is not the owner\") */\n      tag_220\n      jumpi\n      mload(0x40)\n      shl(0xe5, 0x461bcd)\n      dup2\n      mstore\n      0x04\n      add\n      tag_221\n      swap1\n      tag_222\n      jump\t// in\n    tag_221:\n      mload(0x40)\n      dup1\n      swap2\n      sub\n      swap1\n      revert\n    tag_220:\n        /* \"contracts/worksystems/DataArchive.sol\":10050:10063  RewardManager */\n      0x11\n        /* \"contracts/worksystems/DataArchive.sol\":10050:10087  RewardManager  = IRewardManager(addr) */\n      dup1\n      sload\n      not(sub(shl(0xa0, 0x01), 0x01))\n      and\n      sub(shl(0xa0, 0x01), 0x01)\n      swap3\n      swap1\n      swap3\n      and\n      swap2\n      swap1\n      swap2\n      or\n      swap1\n      sstore\n        /* \"contracts/worksystems/DataArchive.sol\":9964:10095  function updateRewardManager(address addr)\r... */\n      jump\t// out\n        /* \"contracts/worksystems/DataArchive.sol\":7989:8017  uint256 public DataNonce = 0 */\n    tag_58:\n      sload(0x02)\n      dup2\n      jump\t// out\n        /* \"contracts/worksystems/DataArchive.sol\":7778:7831  mapping(uint256 => bool) public CollectedFormatBatchs */\n    tag_64:\n      mstore(0x20, 0x01)\n      0x00\n      swap1\n      dup2\n      mstore\n      0x40\n      swap1\n      keccak256\n      sload\n      0xff\n      and\n      dup2\n      jump\t// out\n        /* \"contracts/worksystems/DataArchive.sol\":9054:9083  IRepManager public RepManager */\n    tag_68:\n      and(sub(shl(0xa0, 0x01), 0x01), sload(0x10))\n      dup2\n      jump\t// out\n        /* \"contracts/worksystems/DataArchive.sol\":8363:8396  address[] public availableWorkers */\n    tag_73:\n      0x06\n      dup2\n      dup2\n      sload\n      dup2\n      lt\n      tag_224\n      jumpi\n      0x00\n      dup1\n      revert\n    tag_224:\n      0x00\n      swap2\n      dup3\n      mstore\n      0x20\n      swap1\n      swap2\n      keccak256\n      add\n      sload\n      sub(shl(0xa0, 0x01), 0x01)\n      and\n      swap1\n      pop\n      dup2\n      jump\t// out\n        /* \"contracts/worksystems/DataArchive.sol\":8192:8251  mapping(address => uint256) public FormatStakedTokenBalance */\n    tag_78:\n      mstore(0x20, 0x04)\n      0x00\n      swap1\n      dup2\n      mstore\n      0x40\n      swap1\n      keccak256\n      sload\n      dup2\n      jump\t// out\n        /* \"contracts/worksystems/RandomAllocator.sol\":360:688  function getSeed() public view returns (bytes32 addr) {\r... */\n    tag_81:\n        /* \"contracts/worksystems/RandomAllocator.sol\":470:474  0x40 */\n      0x40\n        /* \"contracts/worksystems/RandomAllocator.sol\":464:475  mload(0x40) */\n      mload\n        /* \"contracts/worksystems/RandomAllocator.sol\":400:412  bytes32 addr */\n      0x00\n      swap1\n        /* \"contracts/worksystems/RandomAllocator.sol\":464:475  mload(0x40) */\n      dup1\n        /* \"contracts/worksystems/RandomAllocator.sol\":588:590  32 */\n      0x20\n        /* \"contracts/worksystems/RandomAllocator.sol\":464:475  mload(0x40) */\n      dup2\n        /* \"contracts/worksystems/RandomAllocator.sol\":400:412  bytes32 addr */\n      dup5\n      dup1\n        /* \"contracts/worksystems/RandomAllocator.sol\":564:568  0x18 */\n      0x18\n        /* \"contracts/worksystems/RandomAllocator.sol\":557:562  gas() */\n      gas\n        /* \"contracts/worksystems/RandomAllocator.sol\":546:591  staticcall(gas(), 0x18, 0, 0, start_addr, 32) */\n      staticcall\n        /* \"contracts/worksystems/RandomAllocator.sol\":536:538  if */\n      tag_227\n      jumpi\n        /* \"contracts/worksystems/RandomAllocator.sol\":610:619  invalid() */\n      invalid\n        /* \"contracts/worksystems/RandomAllocator.sol\":536:538  if */\n    tag_227:\n      pop\n        /* \"contracts/worksystems/RandomAllocator.sol\":656:670  mload(freemem) */\n      mload\n      swap2\n        /* \"contracts/worksystems/RandomAllocator.sol\":434:681  {\r... */\n      swap1\n      pop\n      jump\t// out\n        /* \"contracts/worksystems/DataArchive.sol\":17437:18914  function Ping(uint256 CheckedBatchId) public returns(bool){\r... */\n    tag_86:\n        /* \"contracts/worksystems/DataArchive.sol\":17509:17525  FormattingSystem */\n      sload(0x13)\n        /* \"contracts/worksystems/DataArchive.sol\":17490:17494  bool */\n      0x00\n      swap1\n      sub(shl(0xa0, 0x01), 0x01)\n        /* \"contracts/worksystems/DataArchive.sol\":17509:17525  FormattingSystem */\n      and\n        /* \"contracts/worksystems/DataArchive.sol\":17509:17558  FormattingSystem != IFormattingSystem(address(0)) */\n      iszero\n      dup1\n      iszero\n      swap1\n        /* \"contracts/worksystems/DataArchive.sol\":17509:17600  FormattingSystem != IFormattingSystem(address(0)) && !CollectedFormatBatchs[CheckedBatchId] */\n      tag_229\n      jumpi\n      pop\n        /* \"contracts/worksystems/DataArchive.sol\":17563:17600  CollectedFormatBatchs[CheckedBatchId] */\n      0x00\n      dup3\n      dup2\n      mstore\n        /* \"contracts/worksystems/DataArchive.sol\":17563:17584  CollectedFormatBatchs */\n      0x01\n        /* \"contracts/worksystems/DataArchive.sol\":17563:17600  CollectedFormatBatchs[CheckedBatchId] */\n      0x20\n      mstore\n      0x40\n      swap1\n      keccak256\n      sload\n      0xff\n      and\n        /* \"contracts/worksystems/DataArchive.sol\":17562:17600  !CollectedFormatBatchs[CheckedBatchId] */\n      iszero\n        /* \"contracts/worksystems/DataArchive.sol\":17509:17600  FormattingSystem != IFormattingSystem(address(0)) && !CollectedFormatBatchs[CheckedBatchId] */\n    tag_229:\n        /* \"contracts/worksystems/DataArchive.sol\":17506:18855  if(FormattingSystem != IFormattingSystem(address(0)) && !CollectedFormatBatchs[CheckedBatchId]){           // don't re import already collected batch \r... */\n      iszero\n      tag_237\n      jumpi\n        /* \"contracts/worksystems/DataArchive.sol\":17676:17692  FormattingSystem */\n      sload(0x13)\n        /* \"contracts/worksystems/DataArchive.sol\":17676:17719  FormattingSystem.DataExists(CheckedBatchId) */\n      mload(0x40)\n      shl(0xe1, 0x7b90ef25)\n      dup2\n      mstore\n      sub(shl(0xa0, 0x01), 0x01)\n        /* \"contracts/worksystems/DataArchive.sol\":17676:17692  FormattingSystem */\n      swap1\n      swap2\n      and\n      swap1\n        /* \"contracts/worksystems/DataArchive.sol\":17676:17703  FormattingSystem.DataExists */\n      0xf721de4a\n      swap1\n        /* \"contracts/worksystems/DataArchive.sol\":17676:17719  FormattingSystem.DataExists(CheckedBatchId) */\n      tag_231\n      swap1\n        /* \"contracts/worksystems/DataArchive.sol\":17704:17718  CheckedBatchId */\n      dup6\n      swap1\n        /* \"contracts/worksystems/DataArchive.sol\":17676:17719  FormattingSystem.DataExists(CheckedBatchId) */\n      0x04\n      add\n      tag_307\n      jump\t// in\n    tag_231:\n      0x20\n      mload(0x40)\n      dup1\n      dup4\n      sub\n      dup2\n      0x00\n      dup8\n      dup1\n      extcodesize\n      iszero\n      dup1\n      iszero\n      tag_232\n      jumpi\n      0x00\n      dup1\n      revert\n    tag_232:\n      pop\n      gas\n      call\n      iszero\n      dup1\n      iszero\n      tag_234\n      jumpi\n      returndatasize\n      0x00\n      dup1\n      returndatacopy\n      revert(0x00, returndatasize)\n    tag_234:\n      pop\n      pop\n      pop\n      pop\n      mload(0x40)\n      returndatasize\n      not(0x1f)\n      0x1f\n      dup3\n      add\n      and\n      dup3\n      add\n      dup1\n      0x40\n      mstore\n      pop\n      dup2\n      add\n      swap1\n      tag_235\n      swap2\n      swap1\n      tag_236\n      jump\t// in\n    tag_235:\n        /* \"contracts/worksystems/DataArchive.sol\":17672:18822  if( FormattingSystem.DataExists(CheckedBatchId)){                \r... */\n      iszero\n      tag_237\n      jumpi\n        /* \"contracts/worksystems/DataArchive.sol\":17808:17824  FormattingSystem */\n      sload(0x13)\n        /* \"contracts/worksystems/DataArchive.sol\":17808:17853  FormattingSystem.getBatchByID(CheckedBatchId) */\n      mload(0x40)\n      shl(0xe3, 0x1b308bf7)\n      dup2\n      mstore\n        /* \"contracts/worksystems/DataArchive.sol\":17755:17805  IFormattingSystem.BatchMetadata memory FormatBatch */\n      0x00\n      swap2\n      sub(shl(0xa0, 0x01), 0x01)\n        /* \"contracts/worksystems/DataArchive.sol\":17808:17824  FormattingSystem */\n      and\n      swap1\n        /* \"contracts/worksystems/DataArchive.sol\":17808:17837  FormattingSystem.getBatchByID */\n      0xd9845fb8\n      swap1\n        /* \"contracts/worksystems/DataArchive.sol\":17808:17853  FormattingSystem.getBatchByID(CheckedBatchId) */\n      tag_238\n      swap1\n        /* \"contracts/worksystems/DataArchive.sol\":17838:17852  CheckedBatchId */\n      dup7\n      swap1\n        /* \"contracts/worksystems/DataArchive.sol\":17808:17853  FormattingSystem.getBatchByID(CheckedBatchId) */\n      0x04\n      add\n      tag_307\n      jump\t// in\n    tag_238:\n      0x00\n      mload(0x40)\n      dup1\n      dup4\n      sub\n      dup2\n      0x00\n      dup8\n      dup1\n      extcodesize\n      iszero\n      dup1\n      iszero\n      tag_239\n      jumpi\n      0x00\n      dup1\n      revert\n    tag_239:\n      pop\n      gas\n      call\n      iszero\n      dup1\n      iszero\n      tag_241\n      jumpi\n      returndatasize\n      0x00\n      dup1\n      returndatacopy\n      revert(0x00, returndatasize)\n    tag_241:\n      pop\n      pop\n      pop\n      pop\n      mload(0x40)\n      returndatasize\n      0x00\n      dup3\n      returndatacopy\n      0x1f\n      returndatasize\n      swap1\n      dup2\n      add\n      not(0x1f)\n      and\n      dup3\n      add\n      0x40\n      mstore\n      tag_242\n      swap2\n      swap1\n      dup2\n      add\n      swap1\n      tag_243\n      jump\t// in\n    tag_242:\n        /* \"contracts/worksystems/DataArchive.sol\":17921:17939  FormatBatch.status */\n      0x01a0\n      dup2\n      add\n      mload\n        /* \"contracts/worksystems/DataArchive.sol\":17755:17853  IFormattingSystem.BatchMetadata memory FormatBatch = FormattingSystem.getBatchByID(CheckedBatchId) */\n      swap1\n      swap2\n      pop\n        /* \"contracts/worksystems/DataArchive.sol\":18084:18121  IFormattingSystem.DataStatus.APPROVED */\n      0x01\n        /* \"contracts/worksystems/DataArchive.sol\":18063:18080  FormatBatchStatus */\n      dup2\n        /* \"contracts/worksystems/DataArchive.sol\":18063:18121  FormatBatchStatus == IFormattingSystem.DataStatus.APPROVED */\n      0x03\n      dup2\n      gt\n      iszero\n      tag_245\n      jumpi\n      mstore(0x00, shl(0xe0, 0x4e487b71))\n      mstore(0x04, 0x21)\n      revert(0x00, 0x24)\n    tag_245:\n      eq\n        /* \"contracts/worksystems/DataArchive.sol\":18060:18718  if(FormatBatchStatus == IFormattingSystem.DataStatus.APPROVED){\r... */\n      iszero\n      tag_246\n      jumpi\n        /* \"contracts/worksystems/DataArchive.sol\":18287:18533  ArchiveData({\r... */\n      0x40\n      dup1\n      mload\n      0x80\n      dup2\n      add\n      dup3\n      mstore\n        /* \"contracts/worksystems/DataArchive.sol\":18337:18362  FormatBatch.batchIPFSfile */\n      0x0180\n      dup5\n      add\n      mload\n        /* \"contracts/worksystems/DataArchive.sol\":18287:18533  ArchiveData({\r... */\n      dup2\n      mstore\n        /* \"contracts/worksystems/DataArchive.sol\":18397:18407  msg.sender */\n      caller\n        /* \"contracts/worksystems/DataArchive.sol\":18287:18533  ArchiveData({\r... */\n      0x20\n      dup1\n      dup4\n      add\n      swap2\n      swap1\n      swap2\n      mstore\n        /* \"contracts/worksystems/DataArchive.sol\":18445:18460  block.timestamp */\n      timestamp\n        /* \"contracts/worksystems/DataArchive.sol\":18287:18533  ArchiveData({\r... */\n      dup3\n      dup5\n      add\n      mstore\n      0x00\n      0x60\n      dup4\n      add\n      dup2\n      swap1\n      mstore\n        /* \"contracts/worksystems/DataArchive.sol\":18274:18283  DataNonce */\n      sload(0x02)\n        /* \"contracts/worksystems/DataArchive.sol\":18259:18284  ArchiveMapping[DataNonce] */\n      dup2\n      mstore\n        /* \"contracts/worksystems/DataArchive.sol\":18259:18273  ArchiveMapping */\n      0x03\n        /* \"contracts/worksystems/DataArchive.sol\":18259:18284  ArchiveMapping[DataNonce] */\n      dup3\n      mstore\n      swap3\n      swap1\n      swap3\n      keccak256\n        /* \"contracts/worksystems/DataArchive.sol\":18259:18533  ArchiveMapping[DataNonce] = ArchiveData({\r... */\n      dup2\n      mload\n      dup1\n      mload\n        /* \"contracts/worksystems/DataArchive.sol\":18287:18533  ArchiveData({\r... */\n      swap3\n      swap4\n        /* \"contracts/worksystems/DataArchive.sol\":18259:18284  ArchiveMapping[DataNonce] */\n      swap2\n      swap3\n        /* \"contracts/worksystems/DataArchive.sol\":18259:18533  ArchiveMapping[DataNonce] = ArchiveData({\r... */\n      tag_248\n      swap3\n        /* \"contracts/worksystems/DataArchive.sol\":18259:18284  ArchiveMapping[DataNonce] */\n      dup5\n      swap3\n        /* \"contracts/worksystems/DataArchive.sol\":18259:18533  ArchiveMapping[DataNonce] = ArchiveData({\r... */\n      add\n      swap1\n      tag_249\n      jump\t// in\n    tag_248:\n      pop\n      0x20\n      dup3\n      add\n      mload\n      0x01\n      dup3\n      dup2\n      add\n      dup1\n      sload\n      not(sub(shl(0xa0, 0x01), 0x01))\n      and\n      sub(shl(0xa0, 0x01), 0x01)\n      swap1\n      swap4\n      and\n      swap3\n      swap1\n      swap3\n      or\n      swap1\n      swap2\n      sstore\n      0x40\n      dup4\n      add\n      mload\n      0x02\n      dup4\n      add\n      sstore\n      0x60\n      dup4\n      add\n      mload\n      0x03\n      dup1\n      dup5\n      add\n      dup1\n      sload\n      swap3\n      swap4\n      swap1\n      swap3\n      not(0xff)\n      and\n      swap2\n      dup5\n      swap1\n      dup2\n      gt\n      iszero\n      tag_250\n      jumpi\n      mstore(0x00, shl(0xe0, 0x4e487b71))\n      mstore(0x04, 0x21)\n      revert(0x00, 0x24)\n    tag_250:\n      mul\n      or\n      swap1\n      sstore\n      pop\n      pop\n        /* \"contracts/worksystems/DataArchive.sol\":18570:18579  DataNonce */\n      sload(0x02)\n        /* \"contracts/worksystems/DataArchive.sol\":18570:18583  DataNonce + 1 */\n      tag_251\n      swap2\n      pop\n        /* \"contracts/worksystems/DataArchive.sol\":18582:18583  1 */\n      0x01\n        /* \"contracts/worksystems/DataArchive.sol\":18570:18583  DataNonce + 1 */\n      tag_252\n      jump\t// in\n    tag_251:\n        /* \"contracts/worksystems/DataArchive.sol\":18558:18567  DataNonce */\n      0x02\n        /* \"contracts/worksystems/DataArchive.sol\":18558:18583  DataNonce = DataNonce + 1 */\n      dup2\n      swap1\n      sstore\n        /* \"contracts/worksystems/DataArchive.sol\":18635:18660  FormatBatch.batchIPFSfile */\n      0x0180\n      dup4\n      add\n      mload\n        /* \"contracts/worksystems/DataArchive.sol\":18611:18673  _DataArchive(DataNonce, FormatBatch.batchIPFSfile, msg.sender) */\n      mload(0x40)\n      0x43ecb46cb5c77906888a0ab6a09798cb7feff11e826edd3ba74fada241e3a646\n      swap2\n      tag_253\n      swap2\n        /* \"contracts/worksystems/DataArchive.sol\":18662:18672  msg.sender */\n      caller\n      swap1\n        /* \"contracts/worksystems/DataArchive.sol\":18611:18673  _DataArchive(DataNonce, FormatBatch.batchIPFSfile, msg.sender) */\n      tag_254\n      jump\t// in\n    tag_253:\n      mload(0x40)\n      dup1\n      swap2\n      sub\n      swap1\n      log2\n        /* \"contracts/worksystems/DataArchive.sol\":18060:18718  if(FormatBatchStatus == IFormattingSystem.DataStatus.APPROVED){\r... */\n    tag_246:\n      pop\n      pop\n        /* \"contracts/worksystems/DataArchive.sol\":18762:18799  CollectedFormatBatchs[CheckedBatchId] */\n      0x00\n      dup3\n      dup2\n      mstore\n        /* \"contracts/worksystems/DataArchive.sol\":18802:18806  true */\n      0x01\n        /* \"contracts/worksystems/DataArchive.sol\":18762:18799  CollectedFormatBatchs[CheckedBatchId] */\n      0x20\n      dup2\n      swap1\n      mstore\n      0x40\n      swap1\n      swap2\n      keccak256\n        /* \"contracts/worksystems/DataArchive.sol\":18762:18806  CollectedFormatBatchs[CheckedBatchId] = true */\n      dup1\n      sload\n      not(0xff)\n      and\n      swap1\n      swap2\n      or\n      swap1\n      sstore\n        /* \"contracts/worksystems/DataArchive.sol\":17672:18822  if( FormattingSystem.DataExists(CheckedBatchId)){                \r... */\n    tag_237:\n        /* \"contracts/worksystems/DataArchive.sol\":18882:18883  1 */\n      0x01\n        /* \"contracts/worksystems/DataArchive.sol\":18865:18878  AllTxsCounter */\n      0x0d\n      0x00\n        /* \"contracts/worksystems/DataArchive.sol\":18865:18883  AllTxsCounter += 1 */\n      dup3\n      dup3\n      sload\n      tag_255\n      swap2\n      swap1\n      tag_252\n      jump\t// in\n    tag_255:\n      swap1\n      swap2\n      sstore\n      pop\n        /* \"contracts/worksystems/DataArchive.sol\":18901:18906  false */\n      0x00\n      swap2\n      pop\n      pop\n        /* \"contracts/worksystems/DataArchive.sol\":17437:18914  function Ping(uint256 CheckedBatchId) public returns(bool){\r... */\n    tag_228:\n      swap2\n      swap1\n      pop\n      jump\t// out\n        /* \"contracts/worksystems/DataArchive.sol\":19146:19264  function deleteData(uint256 _DataId)\r... */\n    tag_90:\n        /* \"@openzeppelin/contracts/access/Ownable.sol\":1259:1271  _msgSender() */\n      tag_257\n        /* \"@openzeppelin/contracts/access/Ownable.sol\":1259:1269  _msgSender */\n      tag_218\n        /* \"@openzeppelin/contracts/access/Ownable.sol\":1259:1271  _msgSender() */\n      jump\t// in\n    tag_257:\n      sub(shl(0xa0, 0x01), 0x01)\n        /* \"@openzeppelin/contracts/access/Ownable.sol\":1248:1271  owner() == _msgSender() */\n      and\n        /* \"@openzeppelin/contracts/access/Ownable.sol\":1248:1255  owner() */\n      tag_258\n        /* \"@openzeppelin/contracts/access/Ownable.sol\":1248:1253  owner */\n      tag_125\n        /* \"@openzeppelin/contracts/access/Ownable.sol\":1248:1255  owner() */\n      jump\t// in\n    tag_258:\n      sub(shl(0xa0, 0x01), 0x01)\n        /* \"@openzeppelin/contracts/access/Ownable.sol\":1248:1271  owner() == _msgSender() */\n      and\n      eq\n        /* \"@openzeppelin/contracts/access/Ownable.sol\":1240:1308  require(owner() == _msgSender(), \"Ownable: caller is not the owner\") */\n      tag_259\n      jumpi\n      mload(0x40)\n      shl(0xe5, 0x461bcd)\n      dup2\n      mstore\n      0x04\n      add\n      tag_221\n      swap1\n      tag_222\n      jump\t// in\n    tag_259:\n        /* \"contracts/worksystems/DataArchive.sol\":19233:19256  ArchiveMapping[_DataId] */\n      0x00\n      dup2\n      dup2\n      mstore\n        /* \"contracts/worksystems/DataArchive.sol\":19233:19247  ArchiveMapping */\n      0x03\n        /* \"contracts/worksystems/DataArchive.sol\":19233:19256  ArchiveMapping[_DataId] */\n      0x20\n      mstore\n      0x40\n      dup2\n      keccak256\n      swap1\n        /* \"contracts/worksystems/DataArchive.sol\":19226:19256  delete ArchiveMapping[_DataId] */\n      tag_262\n        /* \"contracts/worksystems/DataArchive.sol\":19233:19256  ArchiveMapping[_DataId] */\n      dup3\n      dup3\n        /* \"contracts/worksystems/DataArchive.sol\":19226:19256  delete ArchiveMapping[_DataId] */\n      tag_263\n      jump\t// in\n    tag_262:\n      pop\n      0x01\n      dup2\n      add\n      dup1\n      sload\n      not(sub(shl(0xa0, 0x01), 0x01))\n      and\n      swap1\n      sstore\n      0x00\n      0x02\n      dup3\n      add\n      sstore\n      0x03\n      add\n      dup1\n      sload\n      not(0xff)\n      and\n      swap1\n      sstore\n      pop\n        /* \"contracts/worksystems/DataArchive.sol\":19146:19264  function deleteData(uint256 _DataId)\r... */\n      jump\t// out\n        /* \"contracts/worksystems/DataArchive.sol\":9090:9125  IRewardManager public RewardManager */\n    tag_92:\n      and(sub(shl(0xa0, 0x01), 0x01), sload(0x11))\n      dup2\n      jump\t// out\n        /* \"@openzeppelin/contracts/access/Ownable.sol\":1668:1769  function renounceOwnership() public virtual onlyOwner {... */\n    tag_96:\n        /* \"@openzeppelin/contracts/access/Ownable.sol\":1259:1271  _msgSender() */\n      tag_265\n        /* \"@openzeppelin/contracts/access/Ownable.sol\":1259:1269  _msgSender */\n      tag_218\n        /* \"@openzeppelin/contracts/access/Ownable.sol\":1259:1271  _msgSender() */\n      jump\t// in\n    tag_265:\n      sub(shl(0xa0, 0x01), 0x01)\n        /* \"@openzeppelin/contracts/access/Ownable.sol\":1248:1271  owner() == _msgSender() */\n      and\n        /* \"@openzeppelin/contracts/access/Ownable.sol\":1248:1255  owner() */\n      tag_266\n        /* \"@openzeppelin/contracts/access/Ownable.sol\":1248:1253  owner */\n      tag_125\n        /* \"@openzeppelin/contracts/access/Ownable.sol\":1248:1255  owner() */\n      jump\t// in\n    tag_266:\n      sub(shl(0xa0, 0x01), 0x01)\n        /* \"@openzeppelin/contracts/access/Ownable.sol\":1248:1271  owner() == _msgSender() */\n      and\n      eq\n        /* \"@openzeppelin/contracts/access/Ownable.sol\":1240:1308  require(owner() == _msgSender(), \"Ownable: caller is not the owner\") */\n      tag_267\n      jumpi\n      mload(0x40)\n      shl(0xe5, 0x461bcd)\n      dup2\n      mstore\n      0x04\n      add\n      tag_221\n      swap1\n      tag_222\n      jump\t// in\n    tag_267:\n        /* \"@openzeppelin/contracts/access/Ownable.sol\":1732:1762  _transferOwnership(address(0)) */\n      tag_270\n        /* \"@openzeppelin/contracts/access/Ownable.sol\":1759:1760  0 */\n      0x00\n        /* \"@openzeppelin/contracts/access/Ownable.sol\":1732:1750  _transferOwnership */\n      tag_271\n        /* \"@openzeppelin/contracts/access/Ownable.sol\":1732:1762  _transferOwnership(address(0)) */\n      jump\t// in\n    tag_270:\n        /* \"@openzeppelin/contracts/access/Ownable.sol\":1668:1769  function renounceOwnership() public virtual onlyOwner {... */\n      jump\t// out\n        /* \"contracts/worksystems/DataArchive.sol\":60461:60577  function getBlockTimestamp()  public view returns (uint256 blocktimestamp) {\r... */\n    tag_98:\n        /* \"contracts/worksystems/DataArchive.sol\":60554:60569  block.timestamp */\n      timestamp\n        /* \"contracts/worksystems/DataArchive.sol\":60461:60577  function getBlockTimestamp()  public view returns (uint256 blocktimestamp) {\r... */\n      swap1\n      jump\t// out\n        /* \"contracts/worksystems/DataArchive.sol\":9132:9169  IAddressManager public AddressManager */\n    tag_101:\n      and(sub(shl(0xa0, 0x01), 0x01), sload(0x12))\n      dup2\n      jump\t// out\n        /* \"contracts/worksystems/DataArchive.sol\":8403:8431  address[] public busyWorkers */\n    tag_106:\n      0x07\n      dup2\n      dup2\n      sload\n      dup2\n      lt\n      tag_224\n      jumpi\n      0x00\n      dup1\n      revert\n        /* \"contracts/worksystems/DataArchive.sol\":9014:9047  IStakeManager public StakeManager */\n    tag_109:\n      and(sub(shl(0xa0, 0x01), 0x01), sload(0x0f))\n      dup2\n      jump\t// out\n        /* \"contracts/worksystems/DataArchive.sol\":8705:8740  uint256 public LastBatchCounter = 1 */\n    tag_113:\n      sload(0x0a)\n      dup2\n      jump\t// out\n        /* \"contracts/worksystems/DataArchive.sol\":8093:8146  mapping(uint256 => ArchiveData) public ArchiveMapping */\n    tag_117:\n      mstore(0x20, 0x03)\n      0x00\n      swap1\n      dup2\n      mstore\n      0x40\n      swap1\n      keccak256\n      dup1\n      sload\n      dup2\n      swap1\n      tag_275\n      swap1\n      tag_276\n      jump\t// in\n    tag_275:\n      dup1\n      0x1f\n      add\n      0x20\n      dup1\n      swap2\n      div\n      mul\n      0x20\n      add\n      mload(0x40)\n      swap1\n      dup2\n      add\n      0x40\n      mstore\n      dup1\n      swap3\n      swap2\n      swap1\n      dup2\n      dup2\n      mstore\n      0x20\n      add\n      dup3\n      dup1\n      sload\n      tag_277\n      swap1\n      tag_276\n      jump\t// in\n    tag_277:\n      dup1\n      iszero\n      tag_278\n      jumpi\n      dup1\n      0x1f\n      lt\n      tag_279\n      jumpi\n      0x0100\n      dup1\n      dup4\n      sload\n      div\n      mul\n      dup4\n      mstore\n      swap2\n      0x20\n      add\n      swap2\n      jump(tag_278)\n    tag_279:\n      dup3\n      add\n      swap2\n      swap1\n      0x00\n      mstore\n      keccak256(0x00, 0x20)\n      swap1\n    tag_280:\n      dup2\n      sload\n      dup2\n      mstore\n      swap1\n      0x01\n      add\n      swap1\n      0x20\n      add\n      dup1\n      dup4\n      gt\n      tag_280\n      jumpi\n      dup3\n      swap1\n      sub\n      0x1f\n      and\n      dup3\n      add\n      swap2\n    tag_278:\n      pop\n      pop\n      pop\n      pop\n      0x01\n      dup4\n      add\n      sload\n      0x02\n      dup5\n      add\n      sload\n      0x03\n      swap1\n      swap5\n      add\n      sload\n      swap3\n      swap4\n      sub(shl(0xa0, 0x01), 0x01)\n      swap1\n      swap2\n      and\n      swap3\n      swap1\n      swap2\n      pop\n      0xff\n      and\n      dup5\n      jump\t// out\n        /* \"contracts/worksystems/DataArchive.sol\":9178:9219  IFormattingSystem public FormattingSystem */\n    tag_121:\n      and(sub(shl(0xa0, 0x01), 0x01), sload(0x13))\n      dup2\n      jump\t// out\n        /* \"@openzeppelin/contracts/access/Ownable.sol\":1036:1121  function owner() public view virtual returns (address) {... */\n    tag_125:\n        /* \"@openzeppelin/contracts/access/Ownable.sol\":1082:1089  address */\n      0x00\n        /* \"@openzeppelin/contracts/access/Ownable.sol\":1108:1114  _owner */\n      sload\n      sub(shl(0xa0, 0x01), 0x01)\n      and\n        /* \"@openzeppelin/contracts/access/Ownable.sol\":1036:1121  function owner() public view virtual returns (address) {... */\n      swap1\n      jump\t// out\n        /* \"contracts/worksystems/DataArchive.sol\":8441:8493  mapping(uint256 => address[]) public WorkersPerBatch */\n    tag_130:\n      mstore(0x20, 0x08)\n      dup2\n      0x00\n      mstore\n      keccak256(0x00, 0x40)\n      dup2\n      dup2\n      sload\n      dup2\n      lt\n      tag_282\n      jumpi\n      0x00\n      dup1\n      revert\n    tag_282:\n      0x00\n      swap2\n      dup3\n      mstore\n      0x20\n      swap1\n      swap2\n      keccak256\n      add\n      sload\n      sub(shl(0xa0, 0x01), 0x01)\n      and\n      swap2\n      pop\n      dup3\n      swap1\n      pop\n      jump\t// out\n        /* \"contracts/worksystems/DataArchive.sol\":60846:61010  function attrUUID(address _user, uint256 _DataBatchId) public pure returns (bytes32 UUID) {\r... */\n    tag_135:\n        /* \"contracts/worksystems/DataArchive.sol\":60922:60934  bytes32 UUID */\n      0x00\n        /* \"contracts/worksystems/DataArchive.sol\":60981:60986  _user */\n      dup3\n        /* \"contracts/worksystems/DataArchive.sol\":60988:61000  _DataBatchId */\n      dup3\n        /* \"contracts/worksystems/DataArchive.sol\":60964:61001  abi.encodePacked(_user, _DataBatchId) */\n      add(0x20, mload(0x40))\n      tag_285\n      swap3\n      swap2\n      swap1\n      tag_286\n      jump\t// in\n    tag_285:\n      mload(0x40)\n      0x20\n      dup2\n      dup4\n      sub\n      sub\n      dup2\n      mstore\n      swap1\n      0x40\n      mstore\n        /* \"contracts/worksystems/DataArchive.sol\":60954:61002  keccak256(abi.encodePacked(_user, _DataBatchId)) */\n      dup1\n      mload\n      swap1\n      0x20\n      add\n      keccak256\n        /* \"contracts/worksystems/DataArchive.sol\":60947:61002  return keccak256(abi.encodePacked(_user, _DataBatchId)) */\n      swap1\n      pop\n        /* \"contracts/worksystems/DataArchive.sol\":60846:61010  function attrUUID(address _user, uint256 _DataBatchId) public pure returns (bytes32 UUID) {\r... */\n    tag_284:\n      swap3\n      swap2\n      pop\n      pop\n      jump\t// out\n        /* \"contracts/worksystems/DataArchive.sol\":10103:10240  function updatePreviousSystem(address addr)\r... */\n    tag_139:\n        /* \"@openzeppelin/contracts/access/Ownable.sol\":1259:1271  _msgSender() */\n      tag_288\n        /* \"@openzeppelin/contracts/access/Ownable.sol\":1259:1269  _msgSender */\n      tag_218\n        /* \"@openzeppelin/contracts/access/Ownable.sol\":1259:1271  _msgSender() */\n      jump\t// in\n    tag_288:\n      sub(shl(0xa0, 0x01), 0x01)\n        /* \"@openzeppelin/contracts/access/Ownable.sol\":1248:1271  owner() == _msgSender() */\n      and\n        /* \"@openzeppelin/contracts/access/Ownable.sol\":1248:1255  owner() */\n      tag_289\n        /* \"@openzeppelin/contracts/access/Ownable.sol\":1248:1253  owner */\n      tag_125\n        /* \"@openzeppelin/contracts/access/Ownable.sol\":1248:1255  owner() */\n      jump\t// in\n    tag_289:\n      sub(shl(0xa0, 0x01), 0x01)\n        /* \"@openzeppelin/contracts/access/Ownable.sol\":1248:1271  owner() == _msgSender() */\n      and\n      eq\n        /* \"@openzeppelin/contracts/access/Ownable.sol\":1240:1308  require(owner() == _msgSender(), \"Ownable: caller is not the owner\") */\n      tag_290\n      jumpi\n      mload(0x40)\n      shl(0xe5, 0x461bcd)\n      dup2\n      mstore\n      0x04\n      add\n      tag_221\n      swap1\n      tag_222\n      jump\t// in\n    tag_290:\n        /* \"contracts/worksystems/DataArchive.sol\":10190:10206  FormattingSystem */\n      0x13\n        /* \"contracts/worksystems/DataArchive.sol\":10190:10232  FormattingSystem = IFormattingSystem(addr) */\n      dup1\n      sload\n      not(sub(shl(0xa0, 0x01), 0x01))\n      and\n      sub(shl(0xa0, 0x01), 0x01)\n      swap3\n      swap1\n      swap3\n      and\n      swap2\n      swap1\n      swap2\n      or\n      swap1\n      sstore\n        /* \"contracts/worksystems/DataArchive.sol\":10103:10240  function updatePreviousSystem(address addr)\r... */\n      jump\t// out\n        /* \"contracts/worksystems/DataArchive.sol\":49891:49989  function getLastDataId() public view returns (uint256 DataId) {\r... */\n    tag_141:\n        /* \"contracts/worksystems/DataArchive.sol\":49972:49981  DataNonce */\n      sload(0x02)\n        /* \"contracts/worksystems/DataArchive.sol\":49891:49989  function getLastDataId() public view returns (uint256 DataId) {\r... */\n      swap1\n      jump\t// out\n        /* \"contracts/worksystems/DataArchive.sol\":20814:21081  function AreStringsEqual(string memory _a, string memory _b) public pure returns(bool){\r... */\n    tag_146:\n        /* \"contracts/worksystems/DataArchive.sol\":20895:20899  bool */\n      0x00\n        /* \"contracts/worksystems/DataArchive.sol\":20977:20979  _b */\n      dup2\n        /* \"contracts/worksystems/DataArchive.sol\":20960:20980  abi.encodePacked(_b) */\n      add(0x20, mload(0x40))\n      tag_295\n      swap2\n      swap1\n      tag_296\n      jump\t// in\n    tag_295:\n      mload(0x40)\n      0x20\n      dup2\n      dup4\n      sub\n      sub\n      dup2\n      mstore\n      swap1\n      0x40\n      mstore\n        /* \"contracts/worksystems/DataArchive.sol\":20950:20981  keccak256(abi.encodePacked(_b)) */\n      dup1\n      mload\n      swap1\n      0x20\n      add\n      keccak256\n        /* \"contracts/worksystems/DataArchive.sol\":20942:20944  _a */\n      dup4\n        /* \"contracts/worksystems/DataArchive.sol\":20925:20945  abi.encodePacked(_a) */\n      add(0x20, mload(0x40))\n      tag_297\n      swap2\n      swap1\n      tag_296\n      jump\t// in\n    tag_297:\n      mload(0x40)\n      0x20\n      dup2\n      dup4\n      sub\n      sub\n      dup2\n      mstore\n      swap1\n      0x40\n      mstore\n        /* \"contracts/worksystems/DataArchive.sol\":20915:20946  keccak256(abi.encodePacked(_a)) */\n      dup1\n      mload\n      swap1\n      0x20\n      add\n      keccak256\n        /* \"contracts/worksystems/DataArchive.sol\":20915:20981  keccak256(abi.encodePacked(_a)) == keccak256(abi.encodePacked(_b)) */\n      eq\n        /* \"contracts/worksystems/DataArchive.sol\":20911:21074  if (keccak256(abi.encodePacked(_a)) == keccak256(abi.encodePacked(_b))) {\r... */\n      iszero\n      tag_298\n      jumpi\n      pop\n        /* \"contracts/worksystems/DataArchive.sol\":21005:21009  true */\n      0x01\n        /* \"contracts/worksystems/DataArchive.sol\":20998:21009  return true */\n      jump(tag_284)\n        /* \"contracts/worksystems/DataArchive.sol\":20911:21074  if (keccak256(abi.encodePacked(_a)) == keccak256(abi.encodePacked(_b))) {\r... */\n    tag_298:\n      pop\n        /* \"contracts/worksystems/DataArchive.sol\":21057:21062  false */\n      0x00\n        /* \"contracts/worksystems/DataArchive.sol\":21050:21062  return false */\n      jump(tag_284)\n        /* \"contracts/worksystems/RandomAllocator.sol\":776:1077  function getRandom() public view returns (uint256){\r... */\n    tag_149:\n        /* \"contracts/worksystems/RandomAllocator.sol\":818:825  uint256 */\n      0x00\n        /* \"contracts/worksystems/RandomAllocator.sol\":837:846  uint256 r */\n      dup1\n        /* \"contracts/worksystems/RandomAllocator.sol\":1030:1045  block.timestamp */\n      timestamp\n        /* \"contracts/worksystems/RandomAllocator.sol\":1008:1022  block.coinbase */\n      coinbase\n        /* \"contracts/worksystems/RandomAllocator.sol\":991:1023  abi.encodePacked(block.coinbase) */\n      add(0x20, mload(0x40))\n      tag_301\n      swap2\n      swap1\n      tag_302\n      jump\t// in\n    tag_301:\n      mload(0x40)\n      0x20\n      dup2\n      dup4\n      sub\n      sub\n      dup2\n      mstore\n      swap1\n      0x40\n      mstore\n        /* \"contracts/worksystems/RandomAllocator.sol\":981:1024  keccak256(abi.encodePacked(block.coinbase)) */\n      dup1\n      mload\n      swap1\n      0x20\n      add\n      keccak256\n        /* \"contracts/worksystems/RandomAllocator.sol\":973:1025  uint256(keccak256(abi.encodePacked(block.coinbase))) */\n      0x00\n      shr\n        /* \"contracts/worksystems/RandomAllocator.sol\":972:1046  (uint256(keccak256(abi.encodePacked(block.coinbase)))) / (block.timestamp) */\n      tag_303\n      swap2\n      swap1\n      tag_304\n      jump\t// in\n    tag_303:\n        /* \"contracts/worksystems/RandomAllocator.sol\":952:968  block.difficulty */\n      difficulty\n        /* \"contracts/worksystems/RandomAllocator.sol\":937:946  getSeed() */\n      tag_305\n        /* \"contracts/worksystems/RandomAllocator.sol\":937:944  getSeed */\n      tag_81\n        /* \"contracts/worksystems/RandomAllocator.sol\":937:946  getSeed() */\n      jump\t// in\n    tag_305:\n        /* \"contracts/worksystems/RandomAllocator.sol\":920:947  abi.encodePacked(getSeed()) */\n      add(0x20, mload(0x40))\n      tag_306\n      swap2\n      swap1\n      tag_307\n      jump\t// in\n    tag_306:\n      0x40\n      dup1\n      mload\n      not(0x1f)\n      dup2\n      dup5\n      sub\n      add\n      dup2\n      mstore\n      swap2\n      swap1\n      mstore\n        /* \"contracts/worksystems/RandomAllocator.sol\":910:948  keccak256(abi.encodePacked(getSeed())) */\n      dup1\n      mload\n        /* \"contracts/worksystems/RandomAllocator.sol\":920:947  abi.encodePacked(getSeed()) */\n      0x20\n        /* \"contracts/worksystems/RandomAllocator.sol\":910:948  keccak256(abi.encodePacked(getSeed())) */\n      swap1\n      swap2\n      add\n      keccak256\n        /* \"contracts/worksystems/RandomAllocator.sol\":884:949  block.timestamp + uint256(keccak256(abi.encodePacked(getSeed()))) */\n      tag_308\n      swap1\n        /* \"contracts/worksystems/RandomAllocator.sol\":884:899  block.timestamp */\n      timestamp\n        /* \"contracts/worksystems/RandomAllocator.sol\":884:949  block.timestamp + uint256(keccak256(abi.encodePacked(getSeed()))) */\n      tag_252\n      jump\t// in\n    tag_308:\n        /* \"contracts/worksystems/RandomAllocator.sol\":884:968  block.timestamp + uint256(keccak256(abi.encodePacked(getSeed()))) + block.difficulty */\n      tag_309\n      swap2\n      swap1\n      tag_252\n      jump\t// in\n    tag_309:\n        /* \"contracts/worksystems/RandomAllocator.sol\":884:1047  block.timestamp + uint256(keccak256(abi.encodePacked(getSeed()))) + block.difficulty + ((uint256(keccak256(abi.encodePacked(block.coinbase)))) / (block.timestamp)) */\n      tag_310\n      swap2\n      swap1\n      tag_252\n      jump\t// in\n    tag_310:\n        /* \"contracts/worksystems/RandomAllocator.sol\":867:1048  abi.encodePacked(block.timestamp + uint256(keccak256(abi.encodePacked(getSeed()))) + block.difficulty + ((uint256(keccak256(abi.encodePacked(block.coinbase)))) / (block.timestamp))) */\n      add(0x20, mload(0x40))\n      tag_311\n      swap2\n      swap1\n      tag_307\n      jump\t// in\n    tag_311:\n      0x40\n      dup1\n      mload\n      not(0x1f)\n      dup2\n      dup5\n      sub\n      add\n      dup2\n      mstore\n      swap2\n      swap1\n      mstore\n        /* \"contracts/worksystems/RandomAllocator.sol\":857:1049  keccak256(abi.encodePacked(block.timestamp + uint256(keccak256(abi.encodePacked(getSeed()))) + block.difficulty + ((uint256(keccak256(abi.encodePacked(block.coinbase)))) / (block.timestamp)))) */\n      dup1\n      mload\n        /* \"contracts/worksystems/RandomAllocator.sol\":867:1048  abi.encodePacked(block.timestamp + uint256(keccak256(abi.encodePacked(getSeed()))) + block.difficulty + ((uint256(keccak256(abi.encodePacked(block.coinbase)))) / (block.timestamp))) */\n      0x20\n        /* \"contracts/worksystems/RandomAllocator.sol\":857:1049  keccak256(abi.encodePacked(block.timestamp + uint256(keccak256(abi.encodePacked(getSeed()))) + block.difficulty + ((uint256(keccak256(abi.encodePacked(block.coinbase)))) / (block.timestamp)))) */\n      swap1\n      swap2\n      add\n      keccak256\n      swap2\n      pop\n      pop\n        /* \"contracts/worksystems/RandomAllocator.sol\":776:1077  function getRandom() public view returns (uint256){\r... */\n      swap1\n      jump\t// out\n        /* \"contracts/worksystems/DataArchive.sol\":8502:8567  address public sFuel = 0x14F52f3FC010ab6cA81568D4A6794D5eAB3c6155 */\n    tag_152:\n      and(sub(shl(0xa0, 0x01), 0x01), sload(0x09))\n      dup2\n      jump\t// out\n        /* \"contracts/worksystems/RandomAllocator.sol\":1164:2250  function generateIntegers(uint256 _k, uint256 N_range) public view returns (uint256[] memory){\r... */\n    tag_156:\n        /* \"contracts/worksystems/RandomAllocator.sol\":1240:1256  uint256[] memory */\n      0x60\n        /* \"contracts/worksystems/RandomAllocator.sol\":1313:1314  0 */\n      0x00\n        /* \"contracts/worksystems/RandomAllocator.sol\":1303:1310  N_range */\n      dup3\n        /* \"contracts/worksystems/RandomAllocator.sol\":1303:1314  N_range > 0 */\n      gt\n        /* \"contracts/worksystems/RandomAllocator.sol\":1295:1315  require(N_range > 0) */\n      tag_315\n      jumpi\n      0x00\n      dup1\n      revert\n    tag_315:\n        /* \"contracts/worksystems/RandomAllocator.sol\":1338:1350  uint256 seed */\n      0x00\n        /* \"contracts/worksystems/RandomAllocator.sol\":1492:1506  block.coinbase */\n      coinbase\n        /* \"contracts/worksystems/RandomAllocator.sol\":1475:1507  abi.encodePacked(block.coinbase) */\n      add(0x20, mload(0x40))\n      tag_316\n      swap2\n      swap1\n      tag_302\n      jump\t// in\n    tag_316:\n      mload(0x40)\n      0x20\n      dup2\n      dup4\n      sub\n      sub\n      dup2\n      mstore\n      swap1\n      0x40\n      mstore\n        /* \"contracts/worksystems/RandomAllocator.sol\":1465:1508  keccak256(abi.encodePacked(block.coinbase)) */\n      dup1\n      mload\n      swap1\n      0x20\n      add\n      keccak256\n        /* \"contracts/worksystems/RandomAllocator.sol\":1457:1509  uint256(keccak256(abi.encodePacked(block.coinbase))) */\n      0x00\n      shr\n        /* \"contracts/worksystems/RandomAllocator.sol\":1441:1450  getSeed() */\n      tag_317\n        /* \"contracts/worksystems/RandomAllocator.sol\":1441:1448  getSeed */\n      tag_81\n        /* \"contracts/worksystems/RandomAllocator.sol\":1441:1450  getSeed() */\n      jump\t// in\n    tag_317:\n        /* \"contracts/worksystems/RandomAllocator.sol\":1424:1451  abi.encodePacked(getSeed()) */\n      add(0x20, mload(0x40))\n      tag_318\n      swap2\n      swap1\n      tag_307\n      jump\t// in\n    tag_318:\n      0x40\n      dup1\n      mload\n      not(0x1f)\n      dup2\n      dup5\n      sub\n      add\n      dup2\n      mstore\n      swap2\n      swap1\n      mstore\n        /* \"contracts/worksystems/RandomAllocator.sol\":1414:1452  keccak256(abi.encodePacked(getSeed())) */\n      dup1\n      mload\n        /* \"contracts/worksystems/RandomAllocator.sol\":1424:1451  abi.encodePacked(getSeed()) */\n      0x20\n        /* \"contracts/worksystems/RandomAllocator.sol\":1414:1452  keccak256(abi.encodePacked(getSeed())) */\n      swap1\n      swap2\n      add\n      keccak256\n        /* \"contracts/worksystems/RandomAllocator.sol\":1388:1453  block.timestamp + uint256(keccak256(abi.encodePacked(getSeed()))) */\n      tag_319\n      swap1\n        /* \"contracts/worksystems/RandomAllocator.sol\":1388:1403  block.timestamp */\n      timestamp\n        /* \"contracts/worksystems/RandomAllocator.sol\":1388:1453  block.timestamp + uint256(keccak256(abi.encodePacked(getSeed()))) */\n      tag_252\n      jump\t// in\n    tag_319:\n        /* \"contracts/worksystems/RandomAllocator.sol\":1388:1511  block.timestamp + uint256(keccak256(abi.encodePacked(getSeed())))+ ((uint256(keccak256(abi.encodePacked(block.coinbase))))) */\n      tag_320\n      swap2\n      swap1\n      tag_252\n      jump\t// in\n    tag_320:\n        /* \"contracts/worksystems/RandomAllocator.sol\":1371:1512  abi.encodePacked(block.timestamp + uint256(keccak256(abi.encodePacked(getSeed())))+ ((uint256(keccak256(abi.encodePacked(block.coinbase)))))) */\n      add(0x20, mload(0x40))\n      tag_321\n      swap2\n      swap1\n      tag_307\n      jump\t// in\n    tag_321:\n      mload(0x40)\n      0x20\n      dup2\n      dup4\n      sub\n      sub\n      dup2\n      mstore\n      swap1\n      0x40\n      mstore\n        /* \"contracts/worksystems/RandomAllocator.sol\":1361:1513  keccak256(abi.encodePacked(block.timestamp + uint256(keccak256(abi.encodePacked(getSeed())))+ ((uint256(keccak256(abi.encodePacked(block.coinbase))))))) */\n      dup1\n      mload\n      swap1\n      0x20\n      add\n      keccak256\n        /* \"contracts/worksystems/RandomAllocator.sol\":1353:1514  uint256(keccak256(abi.encodePacked(block.timestamp + uint256(keccak256(abi.encodePacked(getSeed())))+ ((uint256(keccak256(abi.encodePacked(block.coinbase)))))))) */\n      0x00\n      shr\n        /* \"contracts/worksystems/RandomAllocator.sol\":1338:1514  uint256 seed = uint256(keccak256(abi.encodePacked(block.timestamp + uint256(keccak256(abi.encodePacked(getSeed())))+ ((uint256(keccak256(abi.encodePacked(block.coinbase)))))))) */\n      swap1\n      pop\n        /* \"contracts/worksystems/RandomAllocator.sol\":1558:1583  uint256[] memory integers */\n      0x00\n        /* \"contracts/worksystems/RandomAllocator.sol\":1600:1602  _k */\n      dup5\n        /* \"contracts/worksystems/RandomAllocator.sol\":1586:1603  new uint256[](_k) */\n      0xffffffffffffffff\n      dup2\n      gt\n      iszero\n      tag_322\n      jumpi\n      mstore(0x00, shl(0xe0, 0x4e487b71))\n      mstore(0x04, 0x41)\n      revert(0x00, 0x24)\n    tag_322:\n      mload(0x40)\n      swap1\n      dup1\n      dup3\n      mstore\n      dup1\n      0x20\n      mul\n      0x20\n      add\n      dup3\n      add\n      0x40\n      mstore\n      dup1\n      iszero\n      tag_323\n      jumpi\n      dup2\n      0x20\n      add\n      0x20\n      dup3\n      mul\n      dup1\n      calldatasize\n      dup4\n      calldatacopy\n      add\n      swap1\n      pop\n    tag_323:\n      pop\n        /* \"contracts/worksystems/RandomAllocator.sol\":1558:1603  uint256[] memory integers = new uint256[](_k) */\n      swap1\n      pop\n        /* \"contracts/worksystems/RandomAllocator.sol\":1616:1625  uint256 c */\n      0x00\n        /* \"contracts/worksystems/RandomAllocator.sol\":1640:1649  uint256 l */\n      dup1\n        /* \"contracts/worksystems/RandomAllocator.sol\":1664:2215  while( c < _k ){\r... */\n    tag_324:\n        /* \"contracts/worksystems/RandomAllocator.sol\":1675:1677  _k */\n      dup7\n        /* \"contracts/worksystems/RandomAllocator.sol\":1671:1672  c */\n      dup3\n        /* \"contracts/worksystems/RandomAllocator.sol\":1671:1677  c < _k */\n      lt\n        /* \"contracts/worksystems/RandomAllocator.sol\":1664:2215  while( c < _k ){\r... */\n      iszero\n      tag_325\n      jumpi\n        /* \"contracts/worksystems/RandomAllocator.sol\":1694:1712  uint256 randNumber */\n      0x00\n        /* \"contracts/worksystems/RandomAllocator.sol\":1773:1780  N_range */\n      dup7\n        /* \"contracts/worksystems/RandomAllocator.sol\":1751:1764  seed-25100011 */\n      tag_326\n        /* \"contracts/worksystems/RandomAllocator.sol\":1756:1764  25100011 */\n      0x017efeeb\n        /* \"contracts/worksystems/RandomAllocator.sol\":1751:1755  seed */\n      dup8\n        /* \"contracts/worksystems/RandomAllocator.sol\":1751:1764  seed-25100011 */\n      tag_327\n      jump\t// in\n    tag_326:\n        /* \"contracts/worksystems/RandomAllocator.sol\":1765:1766  l */\n      dup4\n        /* \"contracts/worksystems/RandomAllocator.sol\":1734:1767  abi.encodePacked(seed-25100011,l) */\n      add(0x20, mload(0x40))\n      tag_328\n      swap3\n      swap2\n      swap1\n      tag_329\n      jump\t// in\n    tag_328:\n      mload(0x40)\n      0x20\n      dup2\n      dup4\n      sub\n      sub\n      dup2\n      mstore\n      swap1\n      0x40\n      mstore\n        /* \"contracts/worksystems/RandomAllocator.sol\":1724:1768  keccak256(abi.encodePacked(seed-25100011,l)) */\n      dup1\n      mload\n      swap1\n      0x20\n      add\n      keccak256\n        /* \"contracts/worksystems/RandomAllocator.sol\":1716:1769  uint256(keccak256(abi.encodePacked(seed-25100011,l))) */\n      0x00\n      shr\n        /* \"contracts/worksystems/RandomAllocator.sol\":1715:1780  (uint256(keccak256(abi.encodePacked(seed-25100011,l)))) % N_range */\n      tag_330\n      swap2\n      swap1\n      tag_331\n      jump\t// in\n    tag_330:\n        /* \"contracts/worksystems/RandomAllocator.sol\":1694:1780  uint256 randNumber = (uint256(keccak256(abi.encodePacked(seed-25100011,l)))) % N_range */\n      swap1\n      pop\n        /* \"contracts/worksystems/RandomAllocator.sol\":1795:1814  bool already_exists */\n      0x00\n        /* \"contracts/worksystems/RandomAllocator.sol\":1841:1850  uint256 i */\n      dup1\n        /* \"contracts/worksystems/RandomAllocator.sol\":1837:2023  for(uint256 i = 0; i < c ; i++){\r... */\n    tag_332:\n        /* \"contracts/worksystems/RandomAllocator.sol\":1860:1861  c */\n      dup5\n        /* \"contracts/worksystems/RandomAllocator.sol\":1856:1857  i */\n      dup2\n        /* \"contracts/worksystems/RandomAllocator.sol\":1856:1861  i < c */\n      lt\n        /* \"contracts/worksystems/RandomAllocator.sol\":1837:2023  for(uint256 i = 0; i < c ; i++){\r... */\n      iszero\n      tag_333\n      jumpi\n        /* \"contracts/worksystems/RandomAllocator.sol\":1905:1915  randNumber */\n      dup3\n        /* \"contracts/worksystems/RandomAllocator.sol\":1890:1898  integers */\n      dup7\n        /* \"contracts/worksystems/RandomAllocator.sol\":1899:1900  i */\n      dup3\n        /* \"contracts/worksystems/RandomAllocator.sol\":1890:1901  integers[i] */\n      dup2\n      mload\n      dup2\n      lt\n      tag_335\n      jumpi\n      mstore(0x00, shl(0xe0, 0x4e487b71))\n      mstore(0x04, 0x32)\n      revert(0x00, 0x24)\n    tag_335:\n      0x20\n      mul\n      0x20\n      add\n      add\n      mload\n        /* \"contracts/worksystems/RandomAllocator.sol\":1890:1915  integers[i] == randNumber */\n      eq\n        /* \"contracts/worksystems/RandomAllocator.sol\":1887:2008  if(integers[i] == randNumber){\r... */\n      iszero\n      tag_336\n      jumpi\n        /* \"contracts/worksystems/RandomAllocator.sol\":1956:1960  true */\n      0x01\n        /* \"contracts/worksystems/RandomAllocator.sol\":1939:1960  already_exists = true */\n      swap2\n      pop\n        /* \"contracts/worksystems/RandomAllocator.sol\":1983:1988  break */\n      jump(tag_333)\n        /* \"contracts/worksystems/RandomAllocator.sol\":1887:2008  if(integers[i] == randNumber){\r... */\n    tag_336:\n        /* \"contracts/worksystems/RandomAllocator.sol\":1864:1867  i++ */\n      dup1\n      tag_337\n      dup2\n      tag_338\n      jump\t// in\n    tag_337:\n      swap2\n      pop\n      pop\n        /* \"contracts/worksystems/RandomAllocator.sol\":1837:2023  for(uint256 i = 0; i < c ; i++){\r... */\n      jump(tag_332)\n    tag_333:\n      pop\n        /* \"contracts/worksystems/RandomAllocator.sol\":2041:2055  already_exists */\n      dup1\n        /* \"contracts/worksystems/RandomAllocator.sol\":2037:2180  if(!already_exists){\r... */\n      tag_339\n      jumpi\n        /* \"contracts/worksystems/RandomAllocator.sol\":2089:2099  randNumber */\n      dup2\n        /* \"contracts/worksystems/RandomAllocator.sol\":2075:2083  integers */\n      dup6\n        /* \"contracts/worksystems/RandomAllocator.sol\":2084:2085  c */\n      dup6\n        /* \"contracts/worksystems/RandomAllocator.sol\":2075:2086  integers[c] */\n      dup2\n      mload\n      dup2\n      lt\n      tag_340\n      jumpi\n      mstore(0x00, shl(0xe0, 0x4e487b71))\n      mstore(0x04, 0x32)\n      revert(0x00, 0x24)\n    tag_340:\n      0x20\n      swap1\n      dup2\n      mul\n      swap2\n      swap1\n      swap2\n      add\n      add\n        /* \"contracts/worksystems/RandomAllocator.sol\":2075:2099  integers[c] = randNumber */\n      mstore\n        /* \"contracts/worksystems/RandomAllocator.sol\":2159:2164  c + 1 */\n      tag_341\n        /* \"contracts/worksystems/RandomAllocator.sol\":2159:2160  c */\n      dup5\n        /* \"contracts/worksystems/RandomAllocator.sol\":2163:2164  1 */\n      0x01\n        /* \"contracts/worksystems/RandomAllocator.sol\":2159:2164  c + 1 */\n      tag_252\n      jump\t// in\n    tag_341:\n        /* \"contracts/worksystems/RandomAllocator.sol\":2155:2164  c = c + 1 */\n      swap4\n      pop\n        /* \"contracts/worksystems/RandomAllocator.sol\":2037:2180  if(!already_exists){\r... */\n    tag_339:\n        /* \"contracts/worksystems/RandomAllocator.sol\":2198:2203  l + 1 */\n      tag_342\n        /* \"contracts/worksystems/RandomAllocator.sol\":2198:2199  l */\n      dup4\n        /* \"contracts/worksystems/RandomAllocator.sol\":2202:2203  1 */\n      0x01\n        /* \"contracts/worksystems/RandomAllocator.sol\":2198:2203  l + 1 */\n      tag_252\n      jump\t// in\n    tag_342:\n        /* \"contracts/worksystems/RandomAllocator.sol\":2194:2203  l = l + 1 */\n      swap3\n      pop\n        /* \"contracts/worksystems/RandomAllocator.sol\":1664:2215  while( c < _k ){\r... */\n      pop\n      pop\n      jump(tag_324)\n    tag_325:\n      pop\n        /* \"contracts/worksystems/RandomAllocator.sol\":2234:2242  integers */\n      swap1\n      swap6\n        /* \"contracts/worksystems/RandomAllocator.sol\":1164:2250  function generateIntegers(uint256 _k, uint256 N_range) public view returns (uint256[] memory){\r... */\n      swap5\n      pop\n      pop\n      pop\n      pop\n      pop\n      jump\t// out\n        /* \"contracts/worksystems/RandomAllocator.sol\":3718:4222  function random_selection(uint256 k, uint256 N) public view returns(uint256[] memory){\r... */\n    tag_161:\n        /* \"contracts/worksystems/RandomAllocator.sol\":3786:3802  uint256[] memory */\n      0x60\n        /* \"contracts/worksystems/RandomAllocator.sol\":3829:3830  0 */\n      0x00\n        /* \"contracts/worksystems/RandomAllocator.sol\":3825:3826  N */\n      dup3\n        /* \"contracts/worksystems/RandomAllocator.sol\":3825:3830  N > 0 */\n      gt\n        /* \"contracts/worksystems/RandomAllocator.sol\":3825:3840  N > 0 && k <= N */\n      dup1\n      iszero\n      tag_344\n      jumpi\n      pop\n        /* \"contracts/worksystems/RandomAllocator.sol\":3839:3840  N */\n      dup2\n        /* \"contracts/worksystems/RandomAllocator.sol\":3834:3835  k */\n      dup4\n        /* \"contracts/worksystems/RandomAllocator.sol\":3834:3840  k <= N */\n      gt\n      iszero\n        /* \"contracts/worksystems/RandomAllocator.sol\":3825:3840  N > 0 && k <= N */\n    tag_344:\n        /* \"contracts/worksystems/RandomAllocator.sol\":3825:3850  N > 0 && k <= N && k >= 1 */\n      dup1\n      iszero\n      tag_345\n      jumpi\n      pop\n        /* \"contracts/worksystems/RandomAllocator.sol\":3849:3850  1 */\n      0x01\n        /* \"contracts/worksystems/RandomAllocator.sol\":3844:3845  k */\n      dup4\n        /* \"contracts/worksystems/RandomAllocator.sol\":3844:3850  k >= 1 */\n      lt\n      iszero\n        /* \"contracts/worksystems/RandomAllocator.sol\":3825:3850  N > 0 && k <= N && k >= 1 */\n    tag_345:\n        /* \"contracts/worksystems/RandomAllocator.sol\":3814:3897  require(   N > 0 && k <= N && k >= 1 ,\"k or N are not OK during random selection\" ) */\n      tag_346\n      jumpi\n      mload(0x40)\n      shl(0xe5, 0x461bcd)\n      dup2\n      mstore\n      0x04\n      add\n      tag_221\n      swap1\n      tag_348\n      jump\t// in\n    tag_346:\n        /* \"contracts/worksystems/RandomAllocator.sol\":3908:3935  uint256[] memory indexArray */\n      0x00\n        /* \"contracts/worksystems/RandomAllocator.sol\":3952:3953  N */\n      dup3\n        /* \"contracts/worksystems/RandomAllocator.sol\":3938:3954  new uint256[](N) */\n      0xffffffffffffffff\n      dup2\n      gt\n      iszero\n      tag_349\n      jumpi\n      mstore(0x00, shl(0xe0, 0x4e487b71))\n      mstore(0x04, 0x41)\n      revert(0x00, 0x24)\n    tag_349:\n      mload(0x40)\n      swap1\n      dup1\n      dup3\n      mstore\n      dup1\n      0x20\n      mul\n      0x20\n      add\n      dup3\n      add\n      0x40\n      mstore\n      dup1\n      iszero\n      tag_350\n      jumpi\n      dup2\n      0x20\n      add\n      0x20\n      dup3\n      mul\n      dup1\n      calldatasize\n      dup4\n      calldatacopy\n      add\n      swap1\n      pop\n    tag_350:\n      pop\n        /* \"contracts/worksystems/RandomAllocator.sol\":3908:3954  uint256[] memory indexArray = new uint256[](N) */\n      swap1\n      pop\n        /* \"contracts/worksystems/RandomAllocator.sol\":3965:3993  uint256[] memory resultArray */\n      0x00\n        /* \"contracts/worksystems/RandomAllocator.sol\":4010:4011  k */\n      dup5\n        /* \"contracts/worksystems/RandomAllocator.sol\":3996:4012  new uint256[](k) */\n      0xffffffffffffffff\n      dup2\n      gt\n      iszero\n      tag_351\n      jumpi\n      mstore(0x00, shl(0xe0, 0x4e487b71))\n      mstore(0x04, 0x41)\n      revert(0x00, 0x24)\n    tag_351:\n      mload(0x40)\n      swap1\n      dup1\n      dup3\n      mstore\n      dup1\n      0x20\n      mul\n      0x20\n      add\n      dup3\n      add\n      0x40\n      mstore\n      dup1\n      iszero\n      tag_352\n      jumpi\n      dup2\n      0x20\n      add\n      0x20\n      dup3\n      mul\n      dup1\n      calldatasize\n      dup4\n      calldatacopy\n      add\n      swap1\n      pop\n    tag_352:\n      pop\n        /* \"contracts/worksystems/RandomAllocator.sol\":3965:4012  uint256[] memory resultArray = new uint256[](k) */\n      swap1\n      pop\n        /* \"contracts/worksystems/RandomAllocator.sol\":4023:4045  uint256[] memory array */\n      0x00\n        /* \"contracts/worksystems/RandomAllocator.sol\":4048:4093  shuffle_array_(reset_index_array(indexArray)) */\n      tag_353\n        /* \"contracts/worksystems/RandomAllocator.sol\":4063:4092  reset_index_array(indexArray) */\n      tag_354\n        /* \"contracts/worksystems/RandomAllocator.sol\":4081:4091  indexArray */\n      dup5\n        /* \"contracts/worksystems/RandomAllocator.sol\":4063:4080  reset_index_array */\n      tag_355\n        /* \"contracts/worksystems/RandomAllocator.sol\":4063:4092  reset_index_array(indexArray) */\n      jump\t// in\n    tag_354:\n        /* \"contracts/worksystems/RandomAllocator.sol\":4048:4062  shuffle_array_ */\n      tag_356\n        /* \"contracts/worksystems/RandomAllocator.sol\":4048:4093  shuffle_array_(reset_index_array(indexArray)) */\n      jump\t// in\n    tag_353:\n        /* \"contracts/worksystems/RandomAllocator.sol\":4023:4093  uint256[] memory array = shuffle_array_(reset_index_array(indexArray)) */\n      swap1\n      pop\n        /* \"contracts/worksystems/RandomAllocator.sol\":4108:4117  uint256 i */\n      0x00\n        /* \"contracts/worksystems/RandomAllocator.sol\":4104:4186  for(uint256 i = 0; i < k; i++){\r... */\n    tag_357:\n        /* \"contracts/worksystems/RandomAllocator.sol\":4127:4128  k */\n      dup7\n        /* \"contracts/worksystems/RandomAllocator.sol\":4123:4124  i */\n      dup2\n        /* \"contracts/worksystems/RandomAllocator.sol\":4123:4128  i < k */\n      lt\n        /* \"contracts/worksystems/RandomAllocator.sol\":4104:4186  for(uint256 i = 0; i < k; i++){\r... */\n      iszero\n      tag_325\n      jumpi\n        /* \"contracts/worksystems/RandomAllocator.sol\":4166:4171  array */\n      dup2\n        /* \"contracts/worksystems/RandomAllocator.sol\":4172:4173  i */\n      dup2\n        /* \"contracts/worksystems/RandomAllocator.sol\":4166:4174  array[i] */\n      dup2\n      mload\n      dup2\n      lt\n      tag_360\n      jumpi\n      mstore(0x00, shl(0xe0, 0x4e487b71))\n      mstore(0x04, 0x32)\n      revert(0x00, 0x24)\n    tag_360:\n      0x20\n      mul\n      0x20\n      add\n      add\n      mload\n        /* \"contracts/worksystems/RandomAllocator.sol\":4149:4160  resultArray */\n      dup4\n        /* \"contracts/worksystems/RandomAllocator.sol\":4161:4162  i */\n      dup3\n        /* \"contracts/worksystems/RandomAllocator.sol\":4149:4163  resultArray[i] */\n      dup2\n      mload\n      dup2\n      lt\n      tag_361\n      jumpi\n      mstore(0x00, shl(0xe0, 0x4e487b71))\n      mstore(0x04, 0x32)\n      revert(0x00, 0x24)\n    tag_361:\n      0x20\n      swap1\n      dup2\n      mul\n      swap2\n      swap1\n      swap2\n      add\n      add\n        /* \"contracts/worksystems/RandomAllocator.sol\":4149:4174  resultArray[i] = array[i] */\n      mstore\n        /* \"contracts/worksystems/RandomAllocator.sol\":4130:4133  i++ */\n      dup1\n      tag_362\n      dup2\n      tag_338\n      jump\t// in\n    tag_362:\n      swap2\n      pop\n      pop\n        /* \"contracts/worksystems/RandomAllocator.sol\":4104:4186  for(uint256 i = 0; i < k; i++){\r... */\n      jump(tag_357)\n        /* \"contracts/worksystems/DataArchive.sol\":10248:10382  function updateAddressManager(address addr)\r... */\n    tag_165:\n        /* \"@openzeppelin/contracts/access/Ownable.sol\":1259:1271  _msgSender() */\n      tag_364\n        /* \"@openzeppelin/contracts/access/Ownable.sol\":1259:1269  _msgSender */\n      tag_218\n        /* \"@openzeppelin/contracts/access/Ownable.sol\":1259:1271  _msgSender() */\n      jump\t// in\n    tag_364:\n      sub(shl(0xa0, 0x01), 0x01)\n        /* \"@openzeppelin/contracts/access/Ownable.sol\":1248:1271  owner() == _msgSender() */\n      and\n        /* \"@openzeppelin/contracts/access/Ownable.sol\":1248:1255  owner() */\n      tag_365\n        /* \"@openzeppelin/contracts/access/Ownable.sol\":1248:1253  owner */\n      tag_125\n        /* \"@openzeppelin/contracts/access/Ownable.sol\":1248:1255  owner() */\n      jump\t// in\n    tag_365:\n      sub(shl(0xa0, 0x01), 0x01)\n        /* \"@openzeppelin/contracts/access/Ownable.sol\":1248:1271  owner() == _msgSender() */\n      and\n      eq\n        /* \"@openzeppelin/contracts/access/Ownable.sol\":1240:1308  require(owner() == _msgSender(), \"Ownable: caller is not the owner\") */\n      tag_366\n      jumpi\n      mload(0x40)\n      shl(0xe5, 0x461bcd)\n      dup2\n      mstore\n      0x04\n      add\n      tag_221\n      swap1\n      tag_222\n      jump\t// in\n    tag_366:\n        /* \"contracts/worksystems/DataArchive.sol\":10335:10349  AddressManager */\n      0x12\n        /* \"contracts/worksystems/DataArchive.sol\":10335:10374  AddressManager  = IAddressManager(addr) */\n      dup1\n      sload\n      not(sub(shl(0xa0, 0x01), 0x01))\n      and\n      sub(shl(0xa0, 0x01), 0x01)\n      swap3\n      swap1\n      swap3\n      and\n      swap2\n      swap1\n      swap2\n      or\n      swap1\n      sstore\n        /* \"contracts/worksystems/DataArchive.sol\":10248:10382  function updateAddressManager(address addr)\r... */\n      jump\t// out\n        /* \"contracts/worksystems/DataArchive.sol\":18924:19136  function deleteMapping(uint256 _CheckedBatchId)\r... */\n    tag_168:\n        /* \"@openzeppelin/contracts/access/Ownable.sol\":1259:1271  _msgSender() */\n      tag_370\n        /* \"@openzeppelin/contracts/access/Ownable.sol\":1259:1269  _msgSender */\n      tag_218\n        /* \"@openzeppelin/contracts/access/Ownable.sol\":1259:1271  _msgSender() */\n      jump\t// in\n    tag_370:\n      sub(shl(0xa0, 0x01), 0x01)\n        /* \"@openzeppelin/contracts/access/Ownable.sol\":1248:1271  owner() == _msgSender() */\n      and\n        /* \"@openzeppelin/contracts/access/Ownable.sol\":1248:1255  owner() */\n      tag_371\n        /* \"@openzeppelin/contracts/access/Ownable.sol\":1248:1253  owner */\n      tag_125\n        /* \"@openzeppelin/contracts/access/Ownable.sol\":1248:1255  owner() */\n      jump\t// in\n    tag_371:\n      sub(shl(0xa0, 0x01), 0x01)\n        /* \"@openzeppelin/contracts/access/Ownable.sol\":1248:1271  owner() == _msgSender() */\n      and\n      eq\n        /* \"@openzeppelin/contracts/access/Ownable.sol\":1240:1308  require(owner() == _msgSender(), \"Ownable: caller is not the owner\") */\n      tag_372\n      jumpi\n      mload(0x40)\n      shl(0xe5, 0x461bcd)\n      dup2\n      mstore\n      0x04\n      add\n      tag_221\n      swap1\n      tag_222\n      jump\t// in\n    tag_372:\n        /* \"contracts/worksystems/DataArchive.sol\":19018:19056  CollectedFormatBatchs[_CheckedBatchId] */\n      0x00\n      dup2\n      dup2\n      mstore\n        /* \"contracts/worksystems/DataArchive.sol\":19018:19039  CollectedFormatBatchs */\n      0x01\n        /* \"contracts/worksystems/DataArchive.sol\":19018:19056  CollectedFormatBatchs[_CheckedBatchId] */\n      0x20\n      mstore\n      0x40\n      swap1\n      keccak256\n      sload\n      0xff\n      and\n        /* \"contracts/worksystems/DataArchive.sol\":19015:19129  if(CollectedFormatBatchs[_CheckedBatchId]){\r... */\n      iszero\n      tag_375\n      jumpi\n        /* \"contracts/worksystems/DataArchive.sol\":19079:19117  CollectedFormatBatchs[_CheckedBatchId] */\n      0x00\n      dup2\n      dup2\n      mstore\n        /* \"contracts/worksystems/DataArchive.sol\":19079:19100  CollectedFormatBatchs */\n      0x01\n        /* \"contracts/worksystems/DataArchive.sol\":19079:19117  CollectedFormatBatchs[_CheckedBatchId] */\n      0x20\n      mstore\n      0x40\n      swap1\n      keccak256\n        /* \"contracts/worksystems/DataArchive.sol\":19072:19117  delete CollectedFormatBatchs[_CheckedBatchId] */\n      dup1\n      sload\n      not(0xff)\n      and\n      swap1\n      sstore\n        /* \"contracts/worksystems/DataArchive.sol\":19015:19129  if(CollectedFormatBatchs[_CheckedBatchId]){\r... */\n    tag_375:\n        /* \"contracts/worksystems/DataArchive.sol\":18924:19136  function deleteMapping(uint256 _CheckedBatchId)\r... */\n      pop\n      jump\t// out\n        /* \"contracts/worksystems/DataArchive.sol\":8792:8831  uint256 public AllocatedBatchCursor = 1 */\n    tag_170:\n      sload(0x0c)\n      dup2\n      jump\t// out\n        /* \"contracts/worksystems/DataArchive.sol\":8306:8356  mapping(address => address[]) public MasterWorkers */\n    tag_174:\n      mstore(0x20, 0x05)\n      dup2\n      0x00\n      mstore\n      keccak256(0x00, 0x40)\n      dup2\n      dup2\n      sload\n      dup2\n      lt\n      tag_282\n      jumpi\n      0x00\n      dup1\n      revert\n        /* \"contracts/worksystems/DataArchive.sol\":9830:9952  function updateRepManager(address addr)\r... */\n    tag_178:\n        /* \"@openzeppelin/contracts/access/Ownable.sol\":1259:1271  _msgSender() */\n      tag_379\n        /* \"@openzeppelin/contracts/access/Ownable.sol\":1259:1269  _msgSender */\n      tag_218\n        /* \"@openzeppelin/contracts/access/Ownable.sol\":1259:1271  _msgSender() */\n      jump\t// in\n    tag_379:\n      sub(shl(0xa0, 0x01), 0x01)\n        /* \"@openzeppelin/contracts/access/Ownable.sol\":1248:1271  owner() == _msgSender() */\n      and\n        /* \"@openzeppelin/contracts/access/Ownable.sol\":1248:1255  owner() */\n      tag_380\n        /* \"@openzeppelin/contracts/access/Ownable.sol\":1248:1253  owner */\n      tag_125\n        /* \"@openzeppelin/contracts/access/Ownable.sol\":1248:1255  owner() */\n      jump\t// in\n    tag_380:\n      sub(shl(0xa0, 0x01), 0x01)\n        /* \"@openzeppelin/contracts/access/Ownable.sol\":1248:1271  owner() == _msgSender() */\n      and\n      eq\n        /* \"@openzeppelin/contracts/access/Ownable.sol\":1240:1308  require(owner() == _msgSender(), \"Ownable: caller is not the owner\") */\n      tag_381\n      jumpi\n      mload(0x40)\n      shl(0xe5, 0x461bcd)\n      dup2\n      mstore\n      0x04\n      add\n      tag_221\n      swap1\n      tag_222\n      jump\t// in\n    tag_381:\n        /* \"contracts/worksystems/DataArchive.sol\":9913:9923  RepManager */\n      0x10\n        /* \"contracts/worksystems/DataArchive.sol\":9913:9944  RepManager  = IRepManager(addr) */\n      dup1\n      sload\n      not(sub(shl(0xa0, 0x01), 0x01))\n      and\n      sub(shl(0xa0, 0x01), 0x01)\n      swap3\n      swap1\n      swap3\n      and\n      swap2\n      swap1\n      swap2\n      or\n      swap1\n      sstore\n        /* \"contracts/worksystems/DataArchive.sol\":9830:9952  function updateRepManager(address addr)\r... */\n      jump\t// out\n        /* \"contracts/worksystems/DataArchive.sol\":9691:9818  function updateStakeManager(address addr)\r... */\n    tag_181:\n        /* \"@openzeppelin/contracts/access/Ownable.sol\":1259:1271  _msgSender() */\n      tag_385\n        /* \"@openzeppelin/contracts/access/Ownable.sol\":1259:1269  _msgSender */\n      tag_218\n        /* \"@openzeppelin/contracts/access/Ownable.sol\":1259:1271  _msgSender() */\n      jump\t// in\n    tag_385:\n      sub(shl(0xa0, 0x01), 0x01)\n        /* \"@openzeppelin/contracts/access/Ownable.sol\":1248:1271  owner() == _msgSender() */\n      and\n        /* \"@openzeppelin/contracts/access/Ownable.sol\":1248:1255  owner() */\n      tag_386\n        /* \"@openzeppelin/contracts/access/Ownable.sol\":1248:1253  owner */\n      tag_125\n        /* \"@openzeppelin/contracts/access/Ownable.sol\":1248:1255  owner() */\n      jump\t// in\n    tag_386:\n      sub(shl(0xa0, 0x01), 0x01)\n        /* \"@openzeppelin/contracts/access/Ownable.sol\":1248:1271  owner() == _msgSender() */\n      and\n      eq\n        /* \"@openzeppelin/contracts/access/Ownable.sol\":1240:1308  require(owner() == _msgSender(), \"Ownable: caller is not the owner\") */\n      tag_387\n      jumpi\n      mload(0x40)\n      shl(0xe5, 0x461bcd)\n      dup2\n      mstore\n      0x04\n      add\n      tag_221\n      swap1\n      tag_222\n      jump\t// in\n    tag_387:\n        /* \"contracts/worksystems/DataArchive.sol\":9776:9788  StakeManager */\n      0x0f\n        /* \"contracts/worksystems/DataArchive.sol\":9776:9810  StakeManager = IStakeManager(addr) */\n      dup1\n      sload\n      not(sub(shl(0xa0, 0x01), 0x01))\n      and\n      sub(shl(0xa0, 0x01), 0x01)\n      swap3\n      swap1\n      swap3\n      and\n      swap2\n      swap1\n      swap2\n      or\n      swap1\n      sstore\n        /* \"contracts/worksystems/DataArchive.sol\":9691:9818  function updateStakeManager(address addr)\r... */\n      jump\t// out\n        /* \"contracts/worksystems/RandomAllocator.sol\":3382:3708  function shuffle_array(uint256 N) public view returns(uint256[] memory){\r... */\n    tag_184:\n        /* \"contracts/worksystems/RandomAllocator.sol\":3436:3452  uint256[] memory */\n      0x60\n        /* \"contracts/worksystems/RandomAllocator.sol\":3476:3477  0 */\n      0x00\n        /* \"contracts/worksystems/RandomAllocator.sol\":3472:3473  N */\n      dup3\n        /* \"contracts/worksystems/RandomAllocator.sol\":3472:3477  N > 0 */\n      gt\n        /* \"contracts/worksystems/RandomAllocator.sol\":3464:3478  require(N > 0) */\n      tag_391\n      jumpi\n      0x00\n      dup1\n      revert\n    tag_391:\n        /* \"contracts/worksystems/RandomAllocator.sol\":3489:3516  uint256[] memory indexArray */\n      0x00\n        /* \"contracts/worksystems/RandomAllocator.sol\":3533:3534  N */\n      dup3\n        /* \"contracts/worksystems/RandomAllocator.sol\":3519:3535  new uint256[](N) */\n      0xffffffffffffffff\n      dup2\n      gt\n      iszero\n      tag_392\n      jumpi\n      mstore(0x00, shl(0xe0, 0x4e487b71))\n      mstore(0x04, 0x41)\n      revert(0x00, 0x24)\n    tag_392:\n      mload(0x40)\n      swap1\n      dup1\n      dup3\n      mstore\n      dup1\n      0x20\n      mul\n      0x20\n      add\n      dup3\n      add\n      0x40\n      mstore\n      dup1\n      iszero\n      tag_393\n      jumpi\n      dup2\n      0x20\n      add\n      0x20\n      dup3\n      mul\n      dup1\n      calldatasize\n      dup4\n      calldatacopy\n      add\n      swap1\n      pop\n    tag_393:\n      pop\n        /* \"contracts/worksystems/RandomAllocator.sol\":3489:3535  uint256[] memory indexArray = new uint256[](N) */\n      swap1\n      pop\n        /* \"contracts/worksystems/RandomAllocator.sol\":3546:3569  uint256[] memory  array */\n      0x00\n        /* \"contracts/worksystems/RandomAllocator.sol\":3572:3617  shuffle_array_(reset_index_array(indexArray)) */\n      tag_394\n        /* \"contracts/worksystems/RandomAllocator.sol\":3587:3616  reset_index_array(indexArray) */\n      tag_354\n        /* \"contracts/worksystems/RandomAllocator.sol\":3605:3615  indexArray */\n      dup4\n        /* \"contracts/worksystems/RandomAllocator.sol\":3587:3604  reset_index_array */\n      tag_355\n        /* \"contracts/worksystems/RandomAllocator.sol\":3587:3616  reset_index_array(indexArray) */\n      jump\t// in\n        /* \"contracts/worksystems/RandomAllocator.sol\":3572:3617  shuffle_array_(reset_index_array(indexArray)) */\n    tag_394:\n        /* \"contracts/worksystems/RandomAllocator.sol\":3546:3617  uint256[] memory  array = shuffle_array_(reset_index_array(indexArray)) */\n      swap5\n        /* \"contracts/worksystems/RandomAllocator.sol\":3382:3708  function shuffle_array(uint256 N) public view returns(uint256[] memory){\r... */\n      swap4\n      pop\n      pop\n      pop\n      pop\n      jump\t// out\n        /* \"contracts/worksystems/DataArchive.sol\":49601:49785  function getFileById(uint256 _DataID) public view returns (string memory ipfs_hash) {\r... */\n    tag_188:\n        /* \"contracts/worksystems/DataArchive.sol\":49660:49683  string memory ipfs_hash */\n      0x60\n        /* \"contracts/worksystems/DataArchive.sol\":49715:49724  DataNonce */\n      sload(0x02)\n        /* \"contracts/worksystems/DataArchive.sol\":49704:49711  _DataID */\n      dup3\n        /* \"contracts/worksystems/DataArchive.sol\":49704:49724  _DataID <= DataNonce */\n      gt\n      iszero\n        /* \"contracts/worksystems/DataArchive.sol\":49696:49725  require(_DataID <= DataNonce) */\n      tag_397\n      jumpi\n      0x00\n      dup1\n      revert\n    tag_397:\n        /* \"contracts/worksystems/DataArchive.sol\":49744:49767  ArchiveMapping[_DataID] */\n      0x00\n      dup3\n      dup2\n      mstore\n        /* \"contracts/worksystems/DataArchive.sol\":49744:49758  ArchiveMapping */\n      0x03\n        /* \"contracts/worksystems/DataArchive.sol\":49744:49767  ArchiveMapping[_DataID] */\n      0x20\n      mstore\n      0x40\n      swap1\n      keccak256\n        /* \"contracts/worksystems/DataArchive.sol\":49736:49777  return  ArchiveMapping[_DataID].ipfs_hash */\n      dup1\n      sload\n      tag_398\n      swap1\n      tag_276\n      jump\t// in\n    tag_398:\n      dup1\n      0x1f\n      add\n      0x20\n      dup1\n      swap2\n      div\n      mul\n      0x20\n      add\n      mload(0x40)\n      swap1\n      dup2\n      add\n      0x40\n      mstore\n      dup1\n      swap3\n      swap2\n      swap1\n      dup2\n      dup2\n      mstore\n      0x20\n      add\n      dup3\n      dup1\n      sload\n      tag_399\n      swap1\n      tag_276\n      jump\t// in\n    tag_399:\n      dup1\n      iszero\n      tag_400\n      jumpi\n      dup1\n      0x1f\n      lt\n      tag_401\n      jumpi\n      0x0100\n      dup1\n      dup4\n      sload\n      div\n      mul\n      dup4\n      mstore\n      swap2\n      0x20\n      add\n      swap2\n      jump(tag_400)\n    tag_401:\n      dup3\n      add\n      swap2\n      swap1\n      0x00\n      mstore\n      keccak256(0x00, 0x20)\n      swap1\n    tag_402:\n      dup2\n      sload\n      dup2\n      mstore\n      swap1\n      0x01\n      add\n      swap1\n      0x20\n      add\n      dup1\n      dup4\n      gt\n      tag_402\n      jumpi\n      dup3\n      swap1\n      sub\n      0x1f\n      and\n      dup3\n      add\n      swap2\n    tag_400:\n      pop\n      pop\n      pop\n      pop\n      pop\n      swap1\n      pop\n        /* \"contracts/worksystems/DataArchive.sol\":49601:49785  function getFileById(uint256 _DataID) public view returns (string memory ipfs_hash) {\r... */\n      swap2\n      swap1\n      pop\n      jump\t// out\n        /* \"contracts/worksystems/DataArchive.sol\":8747:8785  uint256 public BatchCheckingCursor = 1 */\n    tag_192:\n      sload(0x0b)\n      dup2\n      jump\t// out\n        /* \"contracts/worksystems/DataArchive.sol\":49318:49492  function getDataById(uint256 _DataID) public view returns (ArchiveData memory data) {\r... */\n    tag_196:\n        /* \"contracts/worksystems/DataArchive.sol\":49377:49400  ArchiveData memory data */\n      tag_403\n      tag_404\n      jump\t// in\n    tag_403:\n        /* \"contracts/worksystems/DataArchive.sol\":49432:49441  DataNonce */\n      sload(0x02)\n        /* \"contracts/worksystems/DataArchive.sol\":49421:49428  _DataID */\n      dup3\n        /* \"contracts/worksystems/DataArchive.sol\":49421:49441  _DataID <= DataNonce */\n      gt\n      iszero\n        /* \"contracts/worksystems/DataArchive.sol\":49413:49442  require(_DataID <= DataNonce) */\n      tag_406\n      jumpi\n      0x00\n      dup1\n      revert\n    tag_406:\n        /* \"contracts/worksystems/DataArchive.sol\":49461:49484  ArchiveMapping[_DataID] */\n      0x00\n      dup3\n      dup2\n      mstore\n        /* \"contracts/worksystems/DataArchive.sol\":49461:49475  ArchiveMapping */\n      0x03\n        /* \"contracts/worksystems/DataArchive.sol\":49461:49484  ArchiveMapping[_DataID] */\n      0x20\n      mstore\n      0x40\n      swap1\n      dup2\n      swap1\n      keccak256\n        /* \"contracts/worksystems/DataArchive.sol\":49453:49484  return  ArchiveMapping[_DataID] */\n      dup2\n      mload\n      0x80\n      dup2\n      add\n      swap1\n      swap3\n      mstore\n      dup1\n      sload\n      dup3\n      swap1\n        /* \"contracts/worksystems/DataArchive.sol\":49461:49484  ArchiveMapping[_DataID] */\n      dup3\n      swap1\n        /* \"contracts/worksystems/DataArchive.sol\":49453:49484  return  ArchiveMapping[_DataID] */\n      tag_407\n      swap1\n      tag_276\n      jump\t// in\n    tag_407:\n      dup1\n      0x1f\n      add\n      0x20\n      dup1\n      swap2\n      div\n      mul\n      0x20\n      add\n      mload(0x40)\n      swap1\n      dup2\n      add\n      0x40\n      mstore\n      dup1\n      swap3\n      swap2\n      swap1\n      dup2\n      dup2\n      mstore\n      0x20\n      add\n      dup3\n      dup1\n      sload\n      tag_408\n      swap1\n      tag_276\n      jump\t// in\n    tag_408:\n      dup1\n      iszero\n      tag_409\n      jumpi\n      dup1\n      0x1f\n      lt\n      tag_410\n      jumpi\n      0x0100\n      dup1\n      dup4\n      sload\n      div\n      mul\n      dup4\n      mstore\n      swap2\n      0x20\n      add\n      swap2\n      jump(tag_409)\n    tag_410:\n      dup3\n      add\n      swap2\n      swap1\n      0x00\n      mstore\n      keccak256(0x00, 0x20)\n      swap1\n    tag_411:\n      dup2\n      sload\n      dup2\n      mstore\n      swap1\n      0x01\n      add\n      swap1\n      0x20\n      add\n      dup1\n      dup4\n      gt\n      tag_411\n      jumpi\n      dup3\n      swap1\n      sub\n      0x1f\n      and\n      dup3\n      add\n      swap2\n    tag_409:\n      pop\n      pop\n      pop\n      swap2\n      dup4\n      mstore\n      pop\n      pop\n      0x01\n      dup3\n      add\n      sload\n      sub(shl(0xa0, 0x01), 0x01)\n      and\n      0x20\n      dup3\n      add\n      mstore\n      0x02\n      dup3\n      add\n      sload\n      0x40\n      dup3\n      add\n      mstore\n      0x03\n      dup1\n      dup4\n      add\n      sload\n      0x60\n      swap1\n      swap3\n      add\n      swap2\n      0xff\n      and\n      swap1\n      dup2\n      gt\n      iszero\n      tag_412\n      jumpi\n      mstore(0x00, shl(0xe0, 0x4e487b71))\n      mstore(0x04, 0x21)\n      revert(0x00, 0x24)\n    tag_412:\n      0x03\n      dup2\n      gt\n      iszero\n      tag_413\n      jumpi\n      mstore(0x00, shl(0xe0, 0x4e487b71))\n      mstore(0x04, 0x21)\n      revert(0x00, 0x24)\n    tag_413:\n      swap1\n      mstore\n      pop\n      swap3\n        /* \"contracts/worksystems/DataArchive.sol\":49318:49492  function getDataById(uint256 _DataID) public view returns (ArchiveData memory data) {\r... */\n      swap2\n      pop\n      pop\n      jump\t// out\n        /* \"contracts/worksystems/DataArchive.sol\":8945:8977  uint256 public AllTxsCounter = 0 */\n    tag_200:\n      sload(0x0d)\n      dup2\n      jump\t// out\n        /* \"@openzeppelin/contracts/access/Ownable.sol\":1918:2116  function transferOwnership(address newOwner) public virtual onlyOwner {... */\n    tag_204:\n        /* \"@openzeppelin/contracts/access/Ownable.sol\":1259:1271  _msgSender() */\n      tag_415\n        /* \"@openzeppelin/contracts/access/Ownable.sol\":1259:1269  _msgSender */\n      tag_218\n        /* \"@openzeppelin/contracts/access/Ownable.sol\":1259:1271  _msgSender() */\n      jump\t// in\n    tag_415:\n      sub(shl(0xa0, 0x01), 0x01)\n        /* \"@openzeppelin/contracts/access/Ownable.sol\":1248:1271  owner() == _msgSender() */\n      and\n        /* \"@openzeppelin/contracts/access/Ownable.sol\":1248:1255  owner() */\n      tag_416\n        /* \"@openzeppelin/contracts/access/Ownable.sol\":1248:1253  owner */\n      tag_125\n        /* \"@openzeppelin/contracts/access/Ownable.sol\":1248:1255  owner() */\n      jump\t// in\n    tag_416:\n      sub(shl(0xa0, 0x01), 0x01)\n        /* \"@openzeppelin/contracts/access/Ownable.sol\":1248:1271  owner() == _msgSender() */\n      and\n      eq\n        /* \"@openzeppelin/contracts/access/Ownable.sol\":1240:1308  require(owner() == _msgSender(), \"Ownable: caller is not the owner\") */\n      tag_417\n      jumpi\n      mload(0x40)\n      shl(0xe5, 0x461bcd)\n      dup2\n      mstore\n      0x04\n      add\n      tag_221\n      swap1\n      tag_222\n      jump\t// in\n    tag_417:\n      sub(shl(0xa0, 0x01), 0x01)\n        /* \"@openzeppelin/contracts/access/Ownable.sol\":2006:2028  newOwner != address(0) */\n      dup2\n      and\n        /* \"@openzeppelin/contracts/access/Ownable.sol\":1998:2071  require(newOwner != address(0), \"Ownable: new owner is the zero address\") */\n      tag_420\n      jumpi\n      mload(0x40)\n      shl(0xe5, 0x461bcd)\n      dup2\n      mstore\n      0x04\n      add\n      tag_221\n      swap1\n      tag_422\n      jump\t// in\n    tag_420:\n        /* \"@openzeppelin/contracts/access/Ownable.sol\":2081:2109  _transferOwnership(newOwner) */\n      tag_375\n        /* \"@openzeppelin/contracts/access/Ownable.sol\":2100:2108  newOwner */\n      dup2\n        /* \"@openzeppelin/contracts/access/Ownable.sol\":2081:2099  _transferOwnership */\n      tag_271\n        /* \"@openzeppelin/contracts/access/Ownable.sol\":2081:2109  _transferOwnership(newOwner) */\n      jump\t// in\n        /* \"contracts/worksystems/DataArchive.sol\":50612:50714  function getTxCounter() public view returns (uint256 Counter) {\r... */\n    tag_206:\n        /* \"contracts/worksystems/DataArchive.sol\":50693:50706  AllTxsCounter */\n      sload(0x0d)\n        /* \"contracts/worksystems/DataArchive.sol\":50612:50714  function getTxCounter() public view returns (uint256 Counter) {\r... */\n      swap1\n      jump\t// out\n        /* \"contracts/worksystems/DataArchive.sol\":54186:54306  function DataExists(uint256 _DataId) public view returns  (bool exists) {\r... */\n    tag_210:\n        /* \"contracts/worksystems/DataArchive.sol\":54288:54297  DataNonce */\n      sload(0x02)\n      lt\n        /* \"contracts/worksystems/DataArchive.sol\":54277:54297  _DataId <= DataNonce */\n      iszero\n      swap1\n        /* \"contracts/worksystems/DataArchive.sol\":54186:54306  function DataExists(uint256 _DataId) public view returns  (bool exists) {\r... */\n      jump\t// out\n        /* \"contracts/worksystems/DataArchive.sol\":8988:9007  IERC20 public token */\n    tag_213:\n      and(sub(shl(0xa0, 0x01), 0x01), sload(0x0e))\n      dup2\n      jump\t// out\n        /* \"@openzeppelin/contracts/utils/Context.sol\":640:736  function _msgSender() internal view virtual returns (address) {... */\n    tag_218:\n        /* \"@openzeppelin/contracts/utils/Context.sol\":719:729  msg.sender */\n      caller\n        /* \"@openzeppelin/contracts/utils/Context.sol\":640:736  function _msgSender() internal view virtual returns (address) {... */\n      swap1\n      jump\t// out\n        /* \"@openzeppelin/contracts/access/Ownable.sol\":2270:2457  function _transferOwnership(address newOwner) internal virtual {... */\n    tag_271:\n        /* \"@openzeppelin/contracts/access/Ownable.sol\":2343:2359  address oldOwner */\n      0x00\n        /* \"@openzeppelin/contracts/access/Ownable.sol\":2362:2368  _owner */\n      dup1\n      sload\n      sub(shl(0xa0, 0x01), 0x01)\n        /* \"@openzeppelin/contracts/access/Ownable.sol\":2378:2395  _owner = newOwner */\n      dup4\n      dup2\n      and\n      not(sub(shl(0xa0, 0x01), 0x01))\n      dup4\n      and\n      dup2\n      or\n      dup5\n      sstore\n        /* \"@openzeppelin/contracts/access/Ownable.sol\":2410:2450  OwnershipTransferred(oldOwner, newOwner) */\n      mload(0x40)\n        /* \"@openzeppelin/contracts/access/Ownable.sol\":2362:2368  _owner */\n      swap2\n      swap1\n      swap3\n      and\n      swap3\n      dup4\n      swap2\n        /* \"@openzeppelin/contracts/access/Ownable.sol\":2410:2450  OwnershipTransferred(oldOwner, newOwner) */\n      0x8be0079c531659141344cd1fd0a4f28419497f9722a3daafe3b4186f6b6457e0\n      swap2\n        /* \"@openzeppelin/contracts/access/Ownable.sol\":2343:2359  address oldOwner */\n      swap1\n        /* \"@openzeppelin/contracts/access/Ownable.sol\":2410:2450  OwnershipTransferred(oldOwner, newOwner) */\n      log3\n        /* \"@openzeppelin/contracts/access/Ownable.sol\":2270:2457  function _transferOwnership(address newOwner) internal virtual {... */\n      pop\n      pop\n      jump\t// out\n        /* \"contracts/worksystems/RandomAllocator.sol\":3067:3372  function reset_index_array(uint256[] memory _myArray) private pure returns(uint256[] memory){\r... */\n    tag_355:\n        /* \"contracts/worksystems/RandomAllocator.sol\":3182:3197  _myArray.length */\n      dup1\n      mload\n        /* \"contracts/worksystems/RandomAllocator.sol\":3142:3158  uint256[] memory */\n      0x60\n      swap1\n        /* \"contracts/worksystems/RandomAllocator.sol\":3170:3179  uint256 N */\n      0x00\n        /* \"contracts/worksystems/RandomAllocator.sol\":3208:3279  for(uint256 i = 0; i<N ; i++){\r... */\n    tag_429:\n        /* \"contracts/worksystems/RandomAllocator.sol\":3229:3230  N */\n      dup2\n        /* \"contracts/worksystems/RandomAllocator.sol\":3227:3228  i */\n      dup2\n        /* \"contracts/worksystems/RandomAllocator.sol\":3227:3230  i<N */\n      lt\n        /* \"contracts/worksystems/RandomAllocator.sol\":3208:3279  for(uint256 i = 0; i<N ; i++){\r... */\n      iszero\n      tag_430\n      jumpi\n        /* \"contracts/worksystems/RandomAllocator.sol\":3266:3267  i */\n      dup1\n        /* \"contracts/worksystems/RandomAllocator.sol\":3252:3260  _myArray */\n      dup5\n        /* \"contracts/worksystems/RandomAllocator.sol\":3261:3262  i */\n      dup3\n        /* \"contracts/worksystems/RandomAllocator.sol\":3252:3263  _myArray[i] */\n      dup2\n      mload\n      dup2\n      lt\n      tag_432\n      jumpi\n      mstore(0x00, shl(0xe0, 0x4e487b71))\n      mstore(0x04, 0x32)\n      revert(0x00, 0x24)\n    tag_432:\n      0x20\n      swap1\n      dup2\n      mul\n      swap2\n      swap1\n      swap2\n      add\n      add\n        /* \"contracts/worksystems/RandomAllocator.sol\":3252:3267  _myArray[i] = i */\n      mstore\n        /* \"contracts/worksystems/RandomAllocator.sol\":3233:3236  i++ */\n      dup1\n      tag_433\n      dup2\n      tag_338\n      jump\t// in\n    tag_433:\n      swap2\n      pop\n      pop\n        /* \"contracts/worksystems/RandomAllocator.sol\":3208:3279  for(uint256 i = 0; i<N ; i++){\r... */\n      jump(tag_429)\n    tag_430:\n      pop\n        /* \"contracts/worksystems/RandomAllocator.sol\":3332:3340  _myArray */\n      swap2\n      swap3\n        /* \"contracts/worksystems/RandomAllocator.sol\":3067:3372  function reset_index_array(uint256[] memory _myArray) private pure returns(uint256[] memory){\r... */\n      swap2\n      pop\n      pop\n      jump\t// out\n        /* \"contracts/worksystems/RandomAllocator.sol\":2338:2975  function shuffle_array_(uint256[] memory _myArray) private view returns(uint256[] memory){\r... */\n    tag_356:\n        /* \"contracts/worksystems/RandomAllocator.sol\":2410:2426  uint256[] memory */\n      0x60\n        /* \"contracts/worksystems/RandomAllocator.sol\":2464:2465  0 */\n      0x00\n        /* \"contracts/worksystems/RandomAllocator.sol\":2446:2454  _myArray */\n      dup3\n        /* \"contracts/worksystems/RandomAllocator.sol\":2446:2461  _myArray.length */\n      mload\n        /* \"contracts/worksystems/RandomAllocator.sol\":2446:2465  _myArray.length > 0 */\n      gt\n        /* \"contracts/worksystems/RandomAllocator.sol\":2438:2466  require(_myArray.length > 0) */\n      tag_435\n      jumpi\n      0x00\n      dup1\n      revert\n    tag_435:\n        /* \"contracts/worksystems/RandomAllocator.sol\":2489:2504  _myArray.length */\n      dup2\n      mload\n      dup1\n        /* \"contracts/worksystems/RandomAllocator.sol\":2477:2486  uint256 a */\n      0x00\n        /* \"contracts/worksystems/RandomAllocator.sol\":2553:2882  for(uint256 i = 0; i< b ; i++){\r... */\n    tag_436:\n        /* \"contracts/worksystems/RandomAllocator.sol\":2575:2576  b */\n      dup2\n        /* \"contracts/worksystems/RandomAllocator.sol\":2572:2573  i */\n      dup2\n        /* \"contracts/worksystems/RandomAllocator.sol\":2572:2576  i< b */\n      lt\n        /* \"contracts/worksystems/RandomAllocator.sol\":2553:2882  for(uint256 i = 0; i< b ; i++){\r... */\n      iszero\n      tag_437\n      jumpi\n        /* \"contracts/worksystems/RandomAllocator.sol\":2598:2616  uint256 randNumber */\n      0x00\n        /* \"contracts/worksystems/RandomAllocator.sol\":2697:2698  a */\n      dup4\n        /* \"contracts/worksystems/RandomAllocator.sol\":2668:2679  getRandom() */\n      tag_439\n        /* \"contracts/worksystems/RandomAllocator.sol\":2668:2677  getRandom */\n      tag_149\n        /* \"contracts/worksystems/RandomAllocator.sol\":2668:2679  getRandom() */\n      jump\t// in\n    tag_439:\n        /* \"contracts/worksystems/RandomAllocator.sol\":2680:2688  _myArray */\n      dup8\n        /* \"contracts/worksystems/RandomAllocator.sol\":2689:2690  i */\n      dup5\n        /* \"contracts/worksystems/RandomAllocator.sol\":2680:2691  _myArray[i] */\n      dup2\n      mload\n      dup2\n      lt\n      tag_440\n      jumpi\n      mstore(0x00, shl(0xe0, 0x4e487b71))\n      mstore(0x04, 0x32)\n      revert(0x00, 0x24)\n    tag_440:\n      0x20\n      mul\n      0x20\n      add\n      add\n      mload\n        /* \"contracts/worksystems/RandomAllocator.sol\":2651:2692  abi.encodePacked(getRandom(),_myArray[i]) */\n      add(0x20, mload(0x40))\n      tag_441\n      swap3\n      swap2\n      swap1\n      tag_329\n      jump\t// in\n    tag_441:\n      mload(0x40)\n      0x20\n      dup2\n      dup4\n      sub\n      sub\n      dup2\n      mstore\n      swap1\n      0x40\n      mstore\n        /* \"contracts/worksystems/RandomAllocator.sol\":2627:2693  keccak256\r... */\n      dup1\n      mload\n      swap1\n      0x20\n      add\n      keccak256\n        /* \"contracts/worksystems/RandomAllocator.sol\":2619:2694  uint256(keccak256\r... */\n      0x00\n      shr\n        /* \"contracts/worksystems/RandomAllocator.sol\":2619:2698  uint256(keccak256\r... */\n      tag_442\n      swap2\n      swap1\n      tag_331\n      jump\t// in\n    tag_442:\n        /* \"contracts/worksystems/RandomAllocator.sol\":2618:2701  (uint256(keccak256\r... */\n      tag_443\n      swap1\n        /* \"contracts/worksystems/RandomAllocator.sol\":2700:2701  1 */\n      0x01\n        /* \"contracts/worksystems/RandomAllocator.sol\":2618:2701  (uint256(keccak256\r... */\n      tag_252\n      jump\t// in\n    tag_443:\n        /* \"contracts/worksystems/RandomAllocator.sol\":2598:2701  uint256 randNumber =(uint256(keccak256\r... */\n      swap1\n      pop\n        /* \"contracts/worksystems/RandomAllocator.sol\":2716:2731  uint256 interim */\n      0x00\n        /* \"contracts/worksystems/RandomAllocator.sol\":2734:2742  _myArray */\n      dup7\n        /* \"contracts/worksystems/RandomAllocator.sol\":2743:2757  randNumber - 1 */\n      tag_444\n        /* \"contracts/worksystems/RandomAllocator.sol\":2756:2757  1 */\n      0x01\n        /* \"contracts/worksystems/RandomAllocator.sol\":2598:2701  uint256 randNumber =(uint256(keccak256\r... */\n      dup5\n        /* \"contracts/worksystems/RandomAllocator.sol\":2743:2757  randNumber - 1 */\n      tag_327\n      jump\t// in\n    tag_444:\n        /* \"contracts/worksystems/RandomAllocator.sol\":2734:2758  _myArray[randNumber - 1] */\n      dup2\n      mload\n      dup2\n      lt\n      tag_445\n      jumpi\n      mstore(0x00, shl(0xe0, 0x4e487b71))\n      mstore(0x04, 0x32)\n      revert(0x00, 0x24)\n    tag_445:\n      0x20\n      mul\n      0x20\n      add\n      add\n      mload\n        /* \"contracts/worksystems/RandomAllocator.sol\":2716:2758  uint256 interim = _myArray[randNumber - 1] */\n      swap1\n      pop\n        /* \"contracts/worksystems/RandomAllocator.sol\":2797:2805  _myArray */\n      dup7\n        /* \"contracts/worksystems/RandomAllocator.sol\":2808:2809  1 */\n      0x01\n        /* \"contracts/worksystems/RandomAllocator.sol\":2806:2807  a */\n      dup7\n        /* \"contracts/worksystems/RandomAllocator.sol\":2806:2809  a-1 */\n      tag_446\n      swap2\n      swap1\n      tag_327\n      jump\t// in\n    tag_446:\n        /* \"contracts/worksystems/RandomAllocator.sol\":2797:2810  _myArray[a-1] */\n      dup2\n      mload\n      dup2\n      lt\n      tag_447\n      jumpi\n      mstore(0x00, shl(0xe0, 0x4e487b71))\n      mstore(0x04, 0x32)\n      revert(0x00, 0x24)\n    tag_447:\n      0x20\n      mul\n      0x20\n      add\n      add\n      mload\n        /* \"contracts/worksystems/RandomAllocator.sol\":2773:2781  _myArray */\n      dup8\n        /* \"contracts/worksystems/RandomAllocator.sol\":2793:2794  1 */\n      0x01\n        /* \"contracts/worksystems/RandomAllocator.sol\":2782:2792  randNumber */\n      dup5\n        /* \"contracts/worksystems/RandomAllocator.sol\":2782:2794  randNumber-1 */\n      tag_448\n      swap2\n      swap1\n      tag_327\n      jump\t// in\n    tag_448:\n        /* \"contracts/worksystems/RandomAllocator.sol\":2773:2795  _myArray[randNumber-1] */\n      dup2\n      mload\n      dup2\n      lt\n      tag_449\n      jumpi\n      mstore(0x00, shl(0xe0, 0x4e487b71))\n      mstore(0x04, 0x32)\n      revert(0x00, 0x24)\n    tag_449:\n      0x20\n      swap1\n      dup2\n      mul\n      swap2\n      swap1\n      swap2\n      add\n      add\n        /* \"contracts/worksystems/RandomAllocator.sol\":2773:2810  _myArray[randNumber-1]= _myArray[a-1] */\n      mstore\n        /* \"contracts/worksystems/RandomAllocator.sol\":2841:2848  interim */\n      dup1\n        /* \"contracts/worksystems/RandomAllocator.sol\":2825:2833  _myArray */\n      dup8\n        /* \"contracts/worksystems/RandomAllocator.sol\":2834:2837  a-1 */\n      tag_450\n        /* \"contracts/worksystems/RandomAllocator.sol\":2836:2837  1 */\n      0x01\n        /* \"contracts/worksystems/RandomAllocator.sol\":2834:2835  a */\n      dup9\n        /* \"contracts/worksystems/RandomAllocator.sol\":2834:2837  a-1 */\n      tag_327\n      jump\t// in\n    tag_450:\n        /* \"contracts/worksystems/RandomAllocator.sol\":2825:2838  _myArray[a-1] */\n      dup2\n      mload\n      dup2\n      lt\n      tag_451\n      jumpi\n      mstore(0x00, shl(0xe0, 0x4e487b71))\n      mstore(0x04, 0x32)\n      revert(0x00, 0x24)\n    tag_451:\n      0x20\n      swap1\n      dup2\n      mul\n      swap2\n      swap1\n      swap2\n      add\n      add\n        /* \"contracts/worksystems/RandomAllocator.sol\":2825:2848  _myArray[a-1] = interim */\n      mstore\n        /* \"contracts/worksystems/RandomAllocator.sol\":2867:2870  a-1 */\n      tag_452\n        /* \"contracts/worksystems/RandomAllocator.sol\":2869:2870  1 */\n      0x01\n        /* \"contracts/worksystems/RandomAllocator.sol\":2867:2868  a */\n      dup7\n        /* \"contracts/worksystems/RandomAllocator.sol\":2867:2870  a-1 */\n      tag_327\n      jump\t// in\n    tag_452:\n        /* \"contracts/worksystems/RandomAllocator.sol\":2863:2870  a = a-1 */\n      swap5\n      pop\n        /* \"contracts/worksystems/RandomAllocator.sol\":2553:2882  for(uint256 i = 0; i< b ; i++){\r... */\n      pop\n      pop\n        /* \"contracts/worksystems/RandomAllocator.sol\":2579:2582  i++ */\n      dup1\n      dup1\n      tag_453\n      swap1\n      tag_338\n      jump\t// in\n    tag_453:\n      swap2\n      pop\n      pop\n        /* \"contracts/worksystems/RandomAllocator.sol\":2553:2882  for(uint256 i = 0; i< b ; i++){\r... */\n      jump(tag_436)\n    tag_437:\n      pop\n        /* \"contracts/worksystems/RandomAllocator.sol\":2935:2943  _myArray */\n      swap3\n      swap4\n        /* \"contracts/worksystems/RandomAllocator.sol\":2338:2975  function shuffle_array_(uint256[] memory _myArray) private view returns(uint256[] memory){\r... */\n      swap3\n      pop\n      pop\n      pop\n      jump\t// out\n    tag_249:\n      dup3\n      dup1\n      sload\n      tag_454\n      swap1\n      tag_276\n      jump\t// in\n    tag_454:\n      swap1\n      0x00\n      mstore\n      keccak256(0x00, 0x20)\n      swap1\n      0x1f\n      add\n      0x20\n      swap1\n      div\n      dup2\n      add\n      swap3\n      dup3\n      tag_456\n      jumpi\n      0x00\n      dup6\n      sstore\n      jump(tag_459)\n    tag_456:\n      dup3\n      0x1f\n      lt\n      tag_457\n      jumpi\n      dup1\n      mload\n      not(0xff)\n      and\n      dup4\n      dup1\n      add\n      or\n      dup6\n      sstore\n      jump(tag_459)\n    tag_457:\n      dup3\n      dup1\n      add\n      0x01\n      add\n      dup6\n      sstore\n      dup3\n      iszero\n      tag_459\n      jumpi\n      swap2\n      dup3\n      add\n    tag_458:\n      dup3\n      dup2\n      gt\n      iszero\n      tag_459\n      jumpi\n      dup3\n      mload\n      dup3\n      sstore\n      swap2\n      0x20\n      add\n      swap2\n      swap1\n      0x01\n      add\n      swap1\n      jump(tag_458)\n    tag_459:\n      pop\n      tag_460\n      swap3\n      swap2\n      pop\n      tag_461\n      jump\t// in\n    tag_460:\n      pop\n      swap1\n      jump\t// out\n    tag_263:\n      pop\n      dup1\n      sload\n      tag_462\n      swap1\n      tag_276\n      jump\t// in\n    tag_462:\n      0x00\n      dup3\n      sstore\n      dup1\n      0x1f\n      lt\n      tag_464\n      jumpi\n      pop\n      jump(tag_375)\n    tag_464:\n      0x1f\n      add\n      0x20\n      swap1\n      div\n      swap1\n      0x00\n      mstore\n      keccak256(0x00, 0x20)\n      swap1\n      dup2\n      add\n      swap1\n      tag_375\n      swap2\n      swap1\n      tag_461\n      jump\t// in\n    tag_404:\n      mload(0x40)\n      dup1\n      0x80\n      add\n      0x40\n      mstore\n      dup1\n      0x60\n      dup2\n      mstore\n      0x20\n      add\n      and(sub(shl(0xa0, 0x01), 0x01), 0x00)\n      dup2\n      mstore\n      0x20\n      add\n      0x00\n      dup2\n      mstore\n      0x20\n      add\n      0x00\n      0x03\n      dup2\n      gt\n      iszero\n      tag_466\n      jumpi\n      mstore(0x00, shl(0xe0, 0x4e487b71))\n      mstore(0x04, 0x21)\n      revert(0x00, 0x24)\n    tag_466:\n      swap1\n      mstore\n      swap1\n      jump\t// out\n    tag_461:\n    tag_467:\n      dup1\n      dup3\n      gt\n      iszero\n      tag_460\n      jumpi\n      0x00\n      dup2\n      sstore\n      0x01\n      add\n      jump(tag_467)\n        /* \"#utility.yul\":14:189   */\n    tag_470:\n        /* \"#utility.yul\":84:104   */\n      dup1\n      calldataload\n      sub(shl(0xa0, 0x01), 0x01)\n        /* \"#utility.yul\":133:164   */\n      dup2\n      and\n        /* \"#utility.yul\":123:165   */\n      dup2\n      eq\n        /* \"#utility.yul\":113:115   */\n      tag_228\n      jumpi\n        /* \"#utility.yul\":179:180   */\n      0x00\n        /* \"#utility.yul\":176:177   */\n      dup1\n        /* \"#utility.yul\":169:181   */\n      revert\n        /* \"#utility.yul\":194:360   */\n    tag_473:\n        /* \"#utility.yul\":272:285   */\n      dup1\n      mload\n        /* \"#utility.yul\":321:334   */\n      dup1\n      iszero\n        /* \"#utility.yul\":314:335   */\n      iszero\n        /* \"#utility.yul\":304:336   */\n      dup2\n      eq\n        /* \"#utility.yul\":294:296   */\n      tag_228\n      jumpi\n        /* \"#utility.yul\":350:351   */\n      0x00\n        /* \"#utility.yul\":347:348   */\n      dup1\n        /* \"#utility.yul\":340:352   */\n      revert\n        /* \"#utility.yul\":365:523   */\n    tag_476:\n        /* \"#utility.yul\":455:468   */\n      dup1\n      mload\n        /* \"#utility.yul\":497:498   */\n      0x04\n        /* \"#utility.yul\":487:499   */\n      dup2\n      lt\n        /* \"#utility.yul\":477:479   */\n      tag_228\n      jumpi\n        /* \"#utility.yul\":513:514   */\n      0x00\n        /* \"#utility.yul\":510:511   */\n      dup1\n        /* \"#utility.yul\":503:515   */\n      revert\n        /* \"#utility.yul\":528:1015   */\n    tag_479:\n      0x00\n        /* \"#utility.yul\":626:629   */\n      dup3\n        /* \"#utility.yul\":619:623   */\n      0x1f\n        /* \"#utility.yul\":611:617   */\n      dup4\n        /* \"#utility.yul\":607:624   */\n      add\n        /* \"#utility.yul\":603:630   */\n      slt\n        /* \"#utility.yul\":593:595   */\n      tag_481\n      jumpi\n        /* \"#utility.yul\":648:653   */\n      dup1\n        /* \"#utility.yul\":641:646   */\n      dup2\n        /* \"#utility.yul\":634:654   */\n      revert\n        /* \"#utility.yul\":593:595   */\n    tag_481:\n        /* \"#utility.yul\":688:694   */\n      dup2\n        /* \"#utility.yul\":675:695   */\n      calldataload\n        /* \"#utility.yul\":719:769   */\n      tag_482\n        /* \"#utility.yul\":734:768   */\n      tag_483\n        /* \"#utility.yul\":765:767   */\n      dup3\n        /* \"#utility.yul\":734:768   */\n      tag_484\n      jump\t// in\n    tag_483:\n        /* \"#utility.yul\":719:769   */\n      tag_485\n      jump\t// in\n    tag_482:\n        /* \"#utility.yul\":794:796   */\n      dup2\n        /* \"#utility.yul\":785:792   */\n      dup2\n        /* \"#utility.yul\":778:797   */\n      mstore\n        /* \"#utility.yul\":840:843   */\n      dup5\n        /* \"#utility.yul\":833:837   */\n      0x20\n        /* \"#utility.yul\":828:830   */\n      dup4\n        /* \"#utility.yul\":820:826   */\n      dup7\n        /* \"#utility.yul\":816:831   */\n      add\n        /* \"#utility.yul\":812:838   */\n      add\n        /* \"#utility.yul\":809:844   */\n      gt\n        /* \"#utility.yul\":806:808   */\n      iszero\n      tag_486\n      jumpi\n        /* \"#utility.yul\":861:866   */\n      dup3\n        /* \"#utility.yul\":854:859   */\n      dup4\n        /* \"#utility.yul\":847:867   */\n      revert\n        /* \"#utility.yul\":806:808   */\n    tag_486:\n        /* \"#utility.yul\":930:932   */\n      dup2\n        /* \"#utility.yul\":923:927   */\n      0x20\n        /* \"#utility.yul\":915:921   */\n      dup6\n        /* \"#utility.yul\":911:928   */\n      add\n        /* \"#utility.yul\":904:908   */\n      0x20\n        /* \"#utility.yul\":895:902   */\n      dup4\n        /* \"#utility.yul\":891:909   */\n      add\n        /* \"#utility.yul\":878:933   */\n      calldatacopy\n        /* \"#utility.yul\":953:969   */\n      swap1\n      dup2\n      add\n        /* \"#utility.yul\":971:975   */\n      0x20\n        /* \"#utility.yul\":949:976   */\n      add\n        /* \"#utility.yul\":942:984   */\n      swap2\n      swap1\n      swap2\n      mstore\n        /* \"#utility.yul\":957:964   */\n      swap3\n        /* \"#utility.yul\":583:1015   */\n      swap2\n      pop\n      pop\n      jump\t// out\n        /* \"#utility.yul\":1020:1469   */\n    tag_487:\n      0x00\n        /* \"#utility.yul\":1129:1132   */\n      dup3\n        /* \"#utility.yul\":1122:1126   */\n      0x1f\n        /* \"#utility.yul\":1114:1120   */\n      dup4\n        /* \"#utility.yul\":1110:1127   */\n      add\n        /* \"#utility.yul\":1106:1133   */\n      slt\n        /* \"#utility.yul\":1096:1098   */\n      tag_489\n      jumpi\n        /* \"#utility.yul\":1151:1156   */\n      dup1\n        /* \"#utility.yul\":1144:1149   */\n      dup2\n        /* \"#utility.yul\":1137:1157   */\n      revert\n        /* \"#utility.yul\":1096:1098   */\n    tag_489:\n        /* \"#utility.yul\":1184:1190   */\n      dup2\n        /* \"#utility.yul\":1178:1191   */\n      mload\n        /* \"#utility.yul\":1215:1265   */\n      tag_490\n        /* \"#utility.yul\":1230:1264   */\n      tag_483\n        /* \"#utility.yul\":1261:1263   */\n      dup3\n        /* \"#utility.yul\":1230:1264   */\n      tag_484\n      jump\t// in\n        /* \"#utility.yul\":1215:1265   */\n    tag_490:\n        /* \"#utility.yul\":1290:1292   */\n      dup2\n        /* \"#utility.yul\":1281:1288   */\n      dup2\n        /* \"#utility.yul\":1274:1293   */\n      mstore\n        /* \"#utility.yul\":1336:1339   */\n      dup5\n        /* \"#utility.yul\":1329:1333   */\n      0x20\n        /* \"#utility.yul\":1324:1326   */\n      dup4\n        /* \"#utility.yul\":1316:1322   */\n      dup7\n        /* \"#utility.yul\":1312:1327   */\n      add\n        /* \"#utility.yul\":1308:1334   */\n      add\n        /* \"#utility.yul\":1305:1340   */\n      gt\n        /* \"#utility.yul\":1302:1304   */\n      iszero\n      tag_492\n      jumpi\n        /* \"#utility.yul\":1357:1362   */\n      dup3\n        /* \"#utility.yul\":1350:1355   */\n      dup4\n        /* \"#utility.yul\":1343:1363   */\n      revert\n        /* \"#utility.yul\":1302:1304   */\n    tag_492:\n        /* \"#utility.yul\":1374:1438   */\n      tag_394\n        /* \"#utility.yul\":1435:1437   */\n      dup3\n        /* \"#utility.yul\":1428:1432   */\n      0x20\n        /* \"#utility.yul\":1419:1426   */\n      dup4\n        /* \"#utility.yul\":1415:1433   */\n      add\n        /* \"#utility.yul\":1408:1412   */\n      0x20\n        /* \"#utility.yul\":1400:1406   */\n      dup8\n        /* \"#utility.yul\":1396:1413   */\n      add\n        /* \"#utility.yul\":1374:1438   */\n      tag_494\n      jump\t// in\n        /* \"#utility.yul\":1474:1672   */\n    tag_55:\n      0x00\n        /* \"#utility.yul\":1586:1588   */\n      0x20\n        /* \"#utility.yul\":1574:1583   */\n      dup3\n        /* \"#utility.yul\":1565:1572   */\n      dup5\n        /* \"#utility.yul\":1561:1584   */\n      sub\n        /* \"#utility.yul\":1557:1589   */\n      slt\n        /* \"#utility.yul\":1554:1556   */\n      iszero\n      tag_496\n      jumpi\n        /* \"#utility.yul\":1607:1613   */\n      dup1\n        /* \"#utility.yul\":1599:1605   */\n      dup2\n        /* \"#utility.yul\":1592:1614   */\n      revert\n        /* \"#utility.yul\":1554:1556   */\n    tag_496:\n        /* \"#utility.yul\":1635:1666   */\n      tag_497\n        /* \"#utility.yul\":1656:1665   */\n      dup3\n        /* \"#utility.yul\":1635:1666   */\n      tag_470\n      jump\t// in\n    tag_497:\n        /* \"#utility.yul\":1625:1666   */\n      swap4\n        /* \"#utility.yul\":1544:1672   */\n      swap3\n      pop\n      pop\n      pop\n      jump\t// out\n        /* \"#utility.yul\":1677:1943   */\n    tag_134:\n      0x00\n      dup1\n        /* \"#utility.yul\":1806:1808   */\n      0x40\n        /* \"#utility.yul\":1794:1803   */\n      dup4\n        /* \"#utility.yul\":1785:1792   */\n      dup6\n        /* \"#utility.yul\":1781:1804   */\n      sub\n        /* \"#utility.yul\":1777:1809   */\n      slt\n        /* \"#utility.yul\":1774:1776   */\n      iszero\n      tag_499\n      jumpi\n        /* \"#utility.yul\":1827:1833   */\n      dup1\n        /* \"#utility.yul\":1819:1825   */\n      dup2\n        /* \"#utility.yul\":1812:1834   */\n      revert\n        /* \"#utility.yul\":1774:1776   */\n    tag_499:\n        /* \"#utility.yul\":1855:1886   */\n      tag_500\n        /* \"#utility.yul\":1876:1885   */\n      dup4\n        /* \"#utility.yul\":1855:1886   */\n      tag_470\n      jump\t// in\n    tag_500:\n        /* \"#utility.yul\":1845:1886   */\n      swap5\n        /* \"#utility.yul\":1933:1935   */\n      0x20\n        /* \"#utility.yul\":1918:1936   */\n      swap4\n      swap1\n      swap4\n      add\n        /* \"#utility.yul\":1905:1937   */\n      calldataload\n      swap4\n      pop\n      pop\n      pop\n        /* \"#utility.yul\":1764:1943   */\n      jump\t// out\n        /* \"#utility.yul\":1948:2162   */\n    tag_236:\n      0x00\n        /* \"#utility.yul\":2068:2070   */\n      0x20\n        /* \"#utility.yul\":2056:2065   */\n      dup3\n        /* \"#utility.yul\":2047:2054   */\n      dup5\n        /* \"#utility.yul\":2043:2066   */\n      sub\n        /* \"#utility.yul\":2039:2071   */\n      slt\n        /* \"#utility.yul\":2036:2038   */\n      iszero\n      tag_502\n      jumpi\n        /* \"#utility.yul\":2089:2095   */\n      dup1\n        /* \"#utility.yul\":2081:2087   */\n      dup2\n        /* \"#utility.yul\":2074:2096   */\n      revert\n        /* \"#utility.yul\":2036:2038   */\n    tag_502:\n        /* \"#utility.yul\":2117:2156   */\n      tag_497\n        /* \"#utility.yul\":2146:2155   */\n      dup3\n        /* \"#utility.yul\":2117:2156   */\n      tag_473\n      jump\t// in\n        /* \"#utility.yul\":2167:2744   */\n    tag_145:\n      0x00\n      dup1\n        /* \"#utility.yul\":2316:2318   */\n      0x40\n        /* \"#utility.yul\":2304:2313   */\n      dup4\n        /* \"#utility.yul\":2295:2302   */\n      dup6\n        /* \"#utility.yul\":2291:2314   */\n      sub\n        /* \"#utility.yul\":2287:2319   */\n      slt\n        /* \"#utility.yul\":2284:2286   */\n      iszero\n      tag_505\n      jumpi\n        /* \"#utility.yul\":2337:2343   */\n      dup2\n        /* \"#utility.yul\":2329:2335   */\n      dup3\n        /* \"#utility.yul\":2322:2344   */\n      revert\n        /* \"#utility.yul\":2284:2286   */\n    tag_505:\n        /* \"#utility.yul\":2382:2391   */\n      dup3\n        /* \"#utility.yul\":2369:2392   */\n      calldataload\n        /* \"#utility.yul\":2411:2429   */\n      0xffffffffffffffff\n        /* \"#utility.yul\":2452:2454   */\n      dup1\n        /* \"#utility.yul\":2444:2450   */\n      dup3\n        /* \"#utility.yul\":2441:2455   */\n      gt\n        /* \"#utility.yul\":2438:2440   */\n      iszero\n      tag_506\n      jumpi\n        /* \"#utility.yul\":2473:2479   */\n      dup4\n        /* \"#utility.yul\":2465:2471   */\n      dup5\n        /* \"#utility.yul\":2458:2480   */\n      revert\n        /* \"#utility.yul\":2438:2440   */\n    tag_506:\n        /* \"#utility.yul\":2501:2553   */\n      tag_507\n        /* \"#utility.yul\":2545:2552   */\n      dup7\n        /* \"#utility.yul\":2536:2542   */\n      dup4\n        /* \"#utility.yul\":2525:2534   */\n      dup8\n        /* \"#utility.yul\":2521:2543   */\n      add\n        /* \"#utility.yul\":2501:2553   */\n      tag_479\n      jump\t// in\n    tag_507:\n        /* \"#utility.yul\":2491:2553   */\n      swap4\n      pop\n        /* \"#utility.yul\":2606:2608   */\n      0x20\n        /* \"#utility.yul\":2595:2604   */\n      dup6\n        /* \"#utility.yul\":2591:2609   */\n      add\n        /* \"#utility.yul\":2578:2610   */\n      calldataload\n        /* \"#utility.yul\":2562:2610   */\n      swap2\n      pop\n        /* \"#utility.yul\":2635:2637   */\n      dup1\n        /* \"#utility.yul\":2625:2633   */\n      dup3\n        /* \"#utility.yul\":2622:2638   */\n      gt\n        /* \"#utility.yul\":2619:2621   */\n      iszero\n      tag_508\n      jumpi\n        /* \"#utility.yul\":2656:2662   */\n      dup3\n        /* \"#utility.yul\":2648:2654   */\n      dup4\n        /* \"#utility.yul\":2641:2663   */\n      revert\n        /* \"#utility.yul\":2619:2621   */\n    tag_508:\n      pop\n        /* \"#utility.yul\":2684:2738   */\n      tag_509\n        /* \"#utility.yul\":2730:2737   */\n      dup6\n        /* \"#utility.yul\":2719:2727   */\n      dup3\n        /* \"#utility.yul\":2708:2717   */\n      dup7\n        /* \"#utility.yul\":2704:2728   */\n      add\n        /* \"#utility.yul\":2684:2738   */\n      tag_479\n      jump\t// in\n    tag_509:\n        /* \"#utility.yul\":2674:2738   */\n      swap2\n      pop\n      pop\n        /* \"#utility.yul\":2274:2744   */\n      swap3\n      pop\n      swap3\n      swap1\n      pop\n      jump\t// out\n        /* \"#utility.yul\":2749:4339   */\n    tag_243:\n      0x00\n        /* \"#utility.yul\":2902:2904   */\n      0x20\n        /* \"#utility.yul\":2890:2899   */\n      dup3\n        /* \"#utility.yul\":2881:2888   */\n      dup5\n        /* \"#utility.yul\":2877:2900   */\n      sub\n        /* \"#utility.yul\":2873:2905   */\n      slt\n        /* \"#utility.yul\":2870:2872   */\n      iszero\n      tag_511\n      jumpi\n        /* \"#utility.yul\":2923:2929   */\n      dup1\n        /* \"#utility.yul\":2915:2921   */\n      dup2\n        /* \"#utility.yul\":2908:2930   */\n      revert\n        /* \"#utility.yul\":2870:2872   */\n    tag_511:\n        /* \"#utility.yul\":2961:2970   */\n      dup2\n        /* \"#utility.yul\":2955:2971   */\n      mload\n        /* \"#utility.yul\":2990:3008   */\n      0xffffffffffffffff\n        /* \"#utility.yul\":3031:3033   */\n      dup1\n        /* \"#utility.yul\":3023:3029   */\n      dup3\n        /* \"#utility.yul\":3020:3034   */\n      gt\n        /* \"#utility.yul\":3017:3019   */\n      iszero\n      tag_512\n      jumpi\n        /* \"#utility.yul\":3052:3058   */\n      dup3\n        /* \"#utility.yul\":3044:3050   */\n      dup4\n        /* \"#utility.yul\":3037:3059   */\n      revert\n        /* \"#utility.yul\":3017:3019   */\n    tag_512:\n        /* \"#utility.yul\":3095:3101   */\n      dup2\n        /* \"#utility.yul\":3084:3093   */\n      dup5\n        /* \"#utility.yul\":3080:3102   */\n      add\n        /* \"#utility.yul\":3070:3102   */\n      swap2\n      pop\n        /* \"#utility.yul\":3121:3127   */\n      0x01c0\n        /* \"#utility.yul\":3161:3163   */\n      dup1\n        /* \"#utility.yul\":3156:3158   */\n      dup4\n        /* \"#utility.yul\":3147:3154   */\n      dup8\n        /* \"#utility.yul\":3143:3159   */\n      sub\n        /* \"#utility.yul\":3139:3164   */\n      slt\n        /* \"#utility.yul\":3136:3138   */\n      iszero\n      tag_513\n      jumpi\n        /* \"#utility.yul\":3182:3188   */\n      dup4\n        /* \"#utility.yul\":3174:3180   */\n      dup5\n        /* \"#utility.yul\":3167:3189   */\n      revert\n        /* \"#utility.yul\":3136:3138   */\n    tag_513:\n        /* \"#utility.yul\":3213:3231   */\n      tag_514\n        /* \"#utility.yul\":3228:3230   */\n      dup2\n        /* \"#utility.yul\":3213:3231   */\n      tag_485\n      jump\t// in\n    tag_514:\n        /* \"#utility.yul\":3200:3231   */\n      swap1\n      pop\n        /* \"#utility.yul\":3260:3262   */\n      dup3\n        /* \"#utility.yul\":3254:3263   */\n      mload\n        /* \"#utility.yul\":3247:3252   */\n      dup2\n        /* \"#utility.yul\":3240:3264   */\n      mstore\n        /* \"#utility.yul\":3310:3312   */\n      0x20\n        /* \"#utility.yul\":3306:3308   */\n      dup4\n        /* \"#utility.yul\":3302:3313   */\n      add\n        /* \"#utility.yul\":3296:3314   */\n      mload\n        /* \"#utility.yul\":3291:3293   */\n      0x20\n        /* \"#utility.yul\":3284:3289   */\n      dup3\n        /* \"#utility.yul\":3280:3294   */\n      add\n        /* \"#utility.yul\":3273:3315   */\n      mstore\n        /* \"#utility.yul\":3361:3363   */\n      0x40\n        /* \"#utility.yul\":3357:3359   */\n      dup4\n        /* \"#utility.yul\":3353:3364   */\n      add\n        /* \"#utility.yul\":3347:3365   */\n      mload\n        /* \"#utility.yul\":3342:3344   */\n      0x40\n        /* \"#utility.yul\":3335:3340   */\n      dup3\n        /* \"#utility.yul\":3331:3345   */\n      add\n        /* \"#utility.yul\":3324:3366   */\n      mstore\n        /* \"#utility.yul\":3412:3414   */\n      0x60\n        /* \"#utility.yul\":3408:3410   */\n      dup4\n        /* \"#utility.yul\":3404:3415   */\n      add\n        /* \"#utility.yul\":3398:3416   */\n      mload\n        /* \"#utility.yul\":3393:3395   */\n      0x60\n        /* \"#utility.yul\":3386:3391   */\n      dup3\n        /* \"#utility.yul\":3382:3396   */\n      add\n        /* \"#utility.yul\":3375:3417   */\n      mstore\n        /* \"#utility.yul\":3464:3467   */\n      0x80\n        /* \"#utility.yul\":3460:3462   */\n      dup4\n        /* \"#utility.yul\":3456:3468   */\n      add\n        /* \"#utility.yul\":3450:3469   */\n      mload\n        /* \"#utility.yul\":3444:3447   */\n      0x80\n        /* \"#utility.yul\":3437:3442   */\n      dup3\n        /* \"#utility.yul\":3433:3448   */\n      add\n        /* \"#utility.yul\":3426:3470   */\n      mstore\n        /* \"#utility.yul\":3503:3545   */\n      tag_515\n        /* \"#utility.yul\":3540:3543   */\n      0xa0\n        /* \"#utility.yul\":3536:3538   */\n      dup5\n        /* \"#utility.yul\":3532:3544   */\n      add\n        /* \"#utility.yul\":3503:3545   */\n      tag_473\n      jump\t// in\n    tag_515:\n        /* \"#utility.yul\":3497:3500   */\n      0xa0\n        /* \"#utility.yul\":3490:3495   */\n      dup3\n        /* \"#utility.yul\":3486:3501   */\n      add\n        /* \"#utility.yul\":3479:3546   */\n      mstore\n        /* \"#utility.yul\":3579:3621   */\n      tag_516\n        /* \"#utility.yul\":3616:3619   */\n      0xc0\n        /* \"#utility.yul\":3612:3614   */\n      dup5\n        /* \"#utility.yul\":3608:3620   */\n      add\n        /* \"#utility.yul\":3579:3621   */\n      tag_473\n      jump\t// in\n    tag_516:\n        /* \"#utility.yul\":3573:3576   */\n      0xc0\n        /* \"#utility.yul\":3566:3571   */\n      dup3\n        /* \"#utility.yul\":3562:3577   */\n      add\n        /* \"#utility.yul\":3555:3622   */\n      mstore\n        /* \"#utility.yul\":3655:3697   */\n      tag_517\n        /* \"#utility.yul\":3692:3695   */\n      0xe0\n        /* \"#utility.yul\":3688:3690   */\n      dup5\n        /* \"#utility.yul\":3684:3696   */\n      add\n        /* \"#utility.yul\":3655:3697   */\n      tag_473\n      jump\t// in\n    tag_517:\n        /* \"#utility.yul\":3649:3652   */\n      0xe0\n        /* \"#utility.yul\":3638:3653   */\n      dup3\n      add\n        /* \"#utility.yul\":3631:3698   */\n      mstore\n        /* \"#utility.yul\":3717:3720   */\n      0x0100\n        /* \"#utility.yul\":3758:3769   */\n      dup4\n      dup2\n      add\n        /* \"#utility.yul\":3752:3770   */\n      mload\n        /* \"#utility.yul\":3736:3750   */\n      swap1\n      dup3\n      add\n        /* \"#utility.yul\":3729:3771   */\n      mstore\n        /* \"#utility.yul\":3790:3793   */\n      0x0120\n        /* \"#utility.yul\":3831:3842   */\n      dup1\n      dup5\n      add\n        /* \"#utility.yul\":3825:3843   */\n      mload\n        /* \"#utility.yul\":3809:3823   */\n      swap1\n      dup3\n      add\n        /* \"#utility.yul\":3802:3844   */\n      mstore\n        /* \"#utility.yul\":3863:3866   */\n      0x0140\n        /* \"#utility.yul\":3904:3915   */\n      dup1\n      dup5\n      add\n        /* \"#utility.yul\":3898:3916   */\n      mload\n        /* \"#utility.yul\":3882:3896   */\n      swap1\n      dup3\n      add\n        /* \"#utility.yul\":3875:3917   */\n      mstore\n        /* \"#utility.yul\":3936:3939   */\n      0x0160\n        /* \"#utility.yul\":3977:3988   */\n      dup1\n      dup5\n      add\n        /* \"#utility.yul\":3971:3989   */\n      mload\n        /* \"#utility.yul\":3955:3969   */\n      swap1\n      dup3\n      add\n        /* \"#utility.yul\":3948:3990   */\n      mstore\n        /* \"#utility.yul\":4009:4012   */\n      0x0180\n        /* \"#utility.yul\":4043:4054   */\n      dup1\n      dup5\n      add\n        /* \"#utility.yul\":4037:4055   */\n      mload\n        /* \"#utility.yul\":4067:4083   */\n      dup4\n      dup2\n      gt\n        /* \"#utility.yul\":4064:4066   */\n      iszero\n      tag_518\n      jumpi\n        /* \"#utility.yul\":4101:4107   */\n      dup6\n        /* \"#utility.yul\":4093:4099   */\n      dup7\n        /* \"#utility.yul\":4086:4108   */\n      revert\n        /* \"#utility.yul\":4064:4066   */\n    tag_518:\n        /* \"#utility.yul\":4142:4200   */\n      tag_519\n        /* \"#utility.yul\":4192:4199   */\n      dup9\n        /* \"#utility.yul\":4181:4189   */\n      dup3\n        /* \"#utility.yul\":4177:4179   */\n      dup8\n        /* \"#utility.yul\":4173:4190   */\n      add\n        /* \"#utility.yul\":4142:4200   */\n      tag_487\n      jump\t// in\n    tag_519:\n        /* \"#utility.yul\":4137:4139   */\n      dup3\n        /* \"#utility.yul\":4130:4135   */\n      dup5\n        /* \"#utility.yul\":4126:4140   */\n      add\n        /* \"#utility.yul\":4119:4201   */\n      mstore\n      pop\n      pop\n        /* \"#utility.yul\":4220:4223   */\n      0x01a0\n        /* \"#utility.yul\":4210:4223   */\n      swap2\n      pop\n        /* \"#utility.yul\":4255:4308   */\n      tag_520\n        /* \"#utility.yul\":4304:4306   */\n      dup3\n        /* \"#utility.yul\":4300:4302   */\n      dup5\n        /* \"#utility.yul\":4296:4307   */\n      add\n        /* \"#utility.yul\":4255:4308   */\n      tag_476\n      jump\t// in\n    tag_520:\n        /* \"#utility.yul\":4239:4253   */\n      swap2\n      dup2\n      add\n        /* \"#utility.yul\":4232:4309   */\n      swap2\n      swap1\n      swap2\n      mstore\n        /* \"#utility.yul\":4243:4248   */\n      swap5\n        /* \"#utility.yul\":2860:4339   */\n      swap4\n      pop\n      pop\n      pop\n      pop\n      jump\t// out\n        /* \"#utility.yul\":4344:4534   */\n    tag_63:\n      0x00\n        /* \"#utility.yul\":4456:4458   */\n      0x20\n        /* \"#utility.yul\":4444:4453   */\n      dup3\n        /* \"#utility.yul\":4435:4442   */\n      dup5\n        /* \"#utility.yul\":4431:4454   */\n      sub\n        /* \"#utility.yul\":4427:4459   */\n      slt\n        /* \"#utility.yul\":4424:4426   */\n      iszero\n      tag_522\n      jumpi\n        /* \"#utility.yul\":4477:4483   */\n      dup1\n        /* \"#utility.yul\":4469:4475   */\n      dup2\n        /* \"#utility.yul\":4462:4484   */\n      revert\n        /* \"#utility.yul\":4424:4426   */\n    tag_522:\n      pop\n        /* \"#utility.yul\":4505:4528   */\n      calldataload\n      swap2\n        /* \"#utility.yul\":4414:4534   */\n      swap1\n      pop\n      jump\t// out\n        /* \"#utility.yul\":4539:4797   */\n    tag_129:\n      0x00\n      dup1\n        /* \"#utility.yul\":4668:4670   */\n      0x40\n        /* \"#utility.yul\":4656:4665   */\n      dup4\n        /* \"#utility.yul\":4647:4654   */\n      dup6\n        /* \"#utility.yul\":4643:4666   */\n      sub\n        /* \"#utility.yul\":4639:4671   */\n      slt\n        /* \"#utility.yul\":4636:4638   */\n      iszero\n      tag_524\n      jumpi\n        /* \"#utility.yul\":4689:4695   */\n      dup2\n        /* \"#utility.yul\":4681:4687   */\n      dup3\n        /* \"#utility.yul\":4674:4696   */\n      revert\n        /* \"#utility.yul\":4636:4638   */\n    tag_524:\n      pop\n      pop\n        /* \"#utility.yul\":4717:4740   */\n      dup1\n      calldataload\n      swap3\n        /* \"#utility.yul\":4787:4789   */\n      0x20\n        /* \"#utility.yul\":4772:4790   */\n      swap1\n      swap2\n      add\n        /* \"#utility.yul\":4759:4791   */\n      calldataload\n      swap2\n      pop\n        /* \"#utility.yul\":4626:4797   */\n      jump\t// out\n        /* \"#utility.yul\":4802:5043   */\n    tag_525:\n        /* \"#utility.yul\":4887:4888   */\n      0x04\n        /* \"#utility.yul\":4880:4885   */\n      dup2\n        /* \"#utility.yul\":4877:4889   */\n      lt\n        /* \"#utility.yul\":4867:4869   */\n      tag_527\n      jumpi\n        /* \"#utility.yul\":4932:4942   */\n      0x4e487b71\n        /* \"#utility.yul\":4927:4930   */\n      0xe0\n        /* \"#utility.yul\":4923:4943   */\n      shl\n        /* \"#utility.yul\":4920:4921   */\n      0x00\n        /* \"#utility.yul\":4913:4944   */\n      mstore\n        /* \"#utility.yul\":4967:4971   */\n      0x21\n        /* \"#utility.yul\":4964:4965   */\n      0x04\n        /* \"#utility.yul\":4957:4972   */\n      mstore\n        /* \"#utility.yul\":4995:4999   */\n      0x24\n        /* \"#utility.yul\":4992:4993   */\n      0x00\n        /* \"#utility.yul\":4985:5000   */\n      revert\n        /* \"#utility.yul\":4867:4869   */\n    tag_527:\n        /* \"#utility.yul\":5019:5037   */\n      swap1\n      mstore\n        /* \"#utility.yul\":4857:5043   */\n      jump\t// out\n        /* \"#utility.yul\":5048:5308   */\n    tag_528:\n      0x00\n        /* \"#utility.yul\":5130:5135   */\n      dup2\n        /* \"#utility.yul\":5124:5136   */\n      mload\n        /* \"#utility.yul\":5157:5163   */\n      dup1\n        /* \"#utility.yul\":5152:5155   */\n      dup5\n        /* \"#utility.yul\":5145:5164   */\n      mstore\n        /* \"#utility.yul\":5173:5236   */\n      tag_530\n        /* \"#utility.yul\":5229:5235   */\n      dup2\n        /* \"#utility.yul\":5222:5226   */\n      0x20\n        /* \"#utility.yul\":5217:5220   */\n      dup7\n        /* \"#utility.yul\":5213:5227   */\n      add\n        /* \"#utility.yul\":5206:5210   */\n      0x20\n        /* \"#utility.yul\":5199:5204   */\n      dup7\n        /* \"#utility.yul\":5195:5211   */\n      add\n        /* \"#utility.yul\":5173:5236   */\n      tag_494\n      jump\t// in\n    tag_530:\n        /* \"#utility.yul\":5290:5292   */\n      0x1f\n        /* \"#utility.yul\":5269:5284   */\n      add\n      not(0x1f)\n        /* \"#utility.yul\":5265:5294   */\n      and\n        /* \"#utility.yul\":5256:5295   */\n      swap3\n      swap1\n      swap3\n      add\n        /* \"#utility.yul\":5297:5301   */\n      0x20\n        /* \"#utility.yul\":5252:5302   */\n      add\n      swap3\n        /* \"#utility.yul\":5100:5308   */\n      swap2\n      pop\n      pop\n      jump\t// out\n        /* \"#utility.yul\":5313:5558   */\n    tag_302:\n        /* \"#utility.yul\":5478:5480   */\n      0x60\n        /* \"#utility.yul\":5474:5489   */\n      swap2\n      swap1\n      swap2\n      shl\n      not(0xffffffffffffffffffffffff)\n        /* \"#utility.yul\":5470:5523   */\n      and\n        /* \"#utility.yul\":5458:5524   */\n      dup2\n      mstore\n        /* \"#utility.yul\":5549:5551   */\n      0x14\n        /* \"#utility.yul\":5540:5552   */\n      add\n      swap1\n        /* \"#utility.yul\":5448:5558   */\n      jump\t// out\n        /* \"#utility.yul\":5563:5857   */\n    tag_286:\n        /* \"#utility.yul\":5740:5742   */\n      0x60\n        /* \"#utility.yul\":5736:5751   */\n      swap3\n      swap1\n      swap3\n      shl\n      not(0xffffffffffffffffffffffff)\n        /* \"#utility.yul\":5732:5785   */\n      and\n        /* \"#utility.yul\":5720:5786   */\n      dup3\n      mstore\n        /* \"#utility.yul\":5811:5813   */\n      0x14\n        /* \"#utility.yul\":5802:5814   */\n      dup3\n      add\n        /* \"#utility.yul\":5795:5823   */\n      mstore\n        /* \"#utility.yul\":5848:5850   */\n      0x34\n        /* \"#utility.yul\":5839:5851   */\n      add\n      swap1\n        /* \"#utility.yul\":5710:5857   */\n      jump\t// out\n        /* \"#utility.yul\":5862:6044   */\n    tag_307:\n        /* \"#utility.yul\":5991:6010   */\n      swap1\n      dup2\n      mstore\n        /* \"#utility.yul\":6035:6037   */\n      0x20\n        /* \"#utility.yul\":6026:6038   */\n      add\n      swap1\n        /* \"#utility.yul\":5981:6044   */\n      jump\t// out\n        /* \"#utility.yul\":6049:6325   */\n    tag_296:\n      0x00\n        /* \"#utility.yul\":6218:6224   */\n      dup3\n        /* \"#utility.yul\":6212:6225   */\n      mload\n        /* \"#utility.yul\":6234:6287   */\n      tag_535\n        /* \"#utility.yul\":6280:6286   */\n      dup2\n        /* \"#utility.yul\":6275:6278   */\n      dup5\n        /* \"#utility.yul\":6268:6272   */\n      0x20\n        /* \"#utility.yul\":6260:6266   */\n      dup8\n        /* \"#utility.yul\":6256:6273   */\n      add\n        /* \"#utility.yul\":6234:6287   */\n      tag_494\n      jump\t// in\n    tag_535:\n        /* \"#utility.yul\":6303:6319   */\n      swap2\n      swap1\n      swap2\n      add\n      swap3\n        /* \"#utility.yul\":6188:6325   */\n      swap2\n      pop\n      pop\n      jump\t// out\n        /* \"#utility.yul\":6517:6764   */\n    tag_329:\n        /* \"#utility.yul\":6674:6693   */\n      swap2\n      dup3\n      mstore\n        /* \"#utility.yul\":6718:6720   */\n      0x20\n        /* \"#utility.yul\":6709:6721   */\n      dup3\n      add\n        /* \"#utility.yul\":6702:6730   */\n      mstore\n        /* \"#utility.yul\":6755:6757   */\n      0x40\n        /* \"#utility.yul\":6746:6758   */\n      add\n      swap1\n        /* \"#utility.yul\":6664:6764   */\n      jump\t// out\n        /* \"#utility.yul\":6769:6972   */\n    tag_75:\n      sub(shl(0xa0, 0x01), 0x01)\n        /* \"#utility.yul\":6933:6965   */\n      swap2\n      swap1\n      swap2\n      and\n        /* \"#utility.yul\":6915:6966   */\n      dup2\n      mstore\n        /* \"#utility.yul\":6903:6905   */\n      0x20\n        /* \"#utility.yul\":6888:6906   */\n      add\n      swap1\n        /* \"#utility.yul\":6870:6972   */\n      jump\t// out\n        /* \"#utility.yul\":6977:7612   */\n    tag_158:\n        /* \"#utility.yul\":7148:7150   */\n      0x20\n        /* \"#utility.yul\":7200:7221   */\n      dup1\n      dup3\n      mstore\n        /* \"#utility.yul\":7270:7283   */\n      dup3\n      mload\n        /* \"#utility.yul\":7173:7191   */\n      dup3\n      dup3\n      add\n        /* \"#utility.yul\":7292:7314   */\n      dup2\n      swap1\n      mstore\n        /* \"#utility.yul\":6977:7612   */\n      0x00\n      swap2\n        /* \"#utility.yul\":7148:7150   */\n      swap1\n        /* \"#utility.yul\":7371:7386   */\n      dup5\n      dup3\n      add\n      swap1\n        /* \"#utility.yul\":7345:7347   */\n      0x40\n        /* \"#utility.yul\":7330:7348   */\n      dup6\n      add\n      swap1\n        /* \"#utility.yul\":6977:7612   */\n      dup5\n        /* \"#utility.yul\":7417:7586   */\n    tag_540:\n        /* \"#utility.yul\":7431:7437   */\n      dup2\n        /* \"#utility.yul\":7428:7429   */\n      dup2\n        /* \"#utility.yul\":7425:7438   */\n      lt\n        /* \"#utility.yul\":7417:7586   */\n      iszero\n      tag_542\n      jumpi\n        /* \"#utility.yul\":7492:7505   */\n      dup4\n      mload\n        /* \"#utility.yul\":7480:7506   */\n      dup4\n      mstore\n        /* \"#utility.yul\":7561:7576   */\n      swap3\n      dup5\n      add\n      swap3\n        /* \"#utility.yul\":7526:7538   */\n      swap2\n      dup5\n      add\n      swap2\n        /* \"#utility.yul\":7453:7454   */\n      0x01\n        /* \"#utility.yul\":7446:7455   */\n      add\n        /* \"#utility.yul\":7417:7586   */\n      jump(tag_540)\n    tag_542:\n      pop\n        /* \"#utility.yul\":7603:7606   */\n      swap1\n      swap7\n        /* \"#utility.yul\":7128:7612   */\n      swap6\n      pop\n      pop\n      pop\n      pop\n      pop\n      pop\n      jump\t// out\n        /* \"#utility.yul\":7617:7804   */\n    tag_66:\n        /* \"#utility.yul\":7782:7796   */\n      swap1\n      iszero\n        /* \"#utility.yul\":7775:7797   */\n      iszero\n        /* \"#utility.yul\":7757:7798   */\n      dup2\n      mstore\n        /* \"#utility.yul\":7745:7747   */\n      0x20\n        /* \"#utility.yul\":7730:7748   */\n      add\n      swap1\n        /* \"#utility.yul\":7712:7804   */\n      jump\t// out\n        /* \"#utility.yul\":9363:9585   */\n    tag_190:\n      0x00\n        /* \"#utility.yul\":9512:9514   */\n      0x20\n        /* \"#utility.yul\":9501:9510   */\n      dup3\n        /* \"#utility.yul\":9494:9515   */\n      mstore\n        /* \"#utility.yul\":9532:9579   */\n      tag_497\n        /* \"#utility.yul\":9575:9577   */\n      0x20\n        /* \"#utility.yul\":9564:9573   */\n      dup4\n        /* \"#utility.yul\":9560:9578   */\n      add\n        /* \"#utility.yul\":9552:9558   */\n      dup5\n        /* \"#utility.yul\":9532:9579   */\n      tag_528\n      jump\t// in\n        /* \"#utility.yul\":9590:9909   */\n    tag_254:\n      0x00\n        /* \"#utility.yul\":9767:9769   */\n      0x40\n        /* \"#utility.yul\":9756:9765   */\n      dup3\n        /* \"#utility.yul\":9749:9770   */\n      mstore\n        /* \"#utility.yul\":9787:9834   */\n      tag_554\n        /* \"#utility.yul\":9830:9832   */\n      0x40\n        /* \"#utility.yul\":9819:9828   */\n      dup4\n        /* \"#utility.yul\":9815:9833   */\n      add\n        /* \"#utility.yul\":9807:9813   */\n      dup6\n        /* \"#utility.yul\":9787:9834   */\n      tag_528\n      jump\t// in\n    tag_554:\n        /* \"#utility.yul\":9779:9834   */\n      swap1\n      pop\n        /* \"#utility.yul\":9899:9900   */\n      0x01\n        /* \"#utility.yul\":9895:9896   */\n      dup1\n        /* \"#utility.yul\":9890:9893   */\n      0xa0\n        /* \"#utility.yul\":9886:9897   */\n      shl\n        /* \"#utility.yul\":9882:9901   */\n      sub\n        /* \"#utility.yul\":9874:9880   */\n      dup4\n        /* \"#utility.yul\":9870:9902   */\n      and\n        /* \"#utility.yul\":9865:9867   */\n      0x20\n        /* \"#utility.yul\":9854:9863   */\n      dup4\n        /* \"#utility.yul\":9850:9868   */\n      add\n        /* \"#utility.yul\":9843:9903   */\n      mstore\n        /* \"#utility.yul\":9739:9909   */\n      swap4\n      swap3\n      pop\n      pop\n      pop\n      jump\t// out\n        /* \"#utility.yul\":9914:10412   */\n    tag_119:\n      0x00\n        /* \"#utility.yul\":10159:10162   */\n      0x80\n        /* \"#utility.yul\":10148:10157   */\n      dup3\n        /* \"#utility.yul\":10141:10163   */\n      mstore\n        /* \"#utility.yul\":10180:10228   */\n      tag_556\n        /* \"#utility.yul\":10223:10226   */\n      0x80\n        /* \"#utility.yul\":10212:10221   */\n      dup4\n        /* \"#utility.yul\":10208:10227   */\n      add\n        /* \"#utility.yul\":10200:10206   */\n      dup8\n        /* \"#utility.yul\":10180:10228   */\n      tag_528\n      jump\t// in\n    tag_556:\n      sub(shl(0xa0, 0x01), 0x01)\n        /* \"#utility.yul\":10264:10296   */\n      dup7\n      and\n        /* \"#utility.yul\":10259:10261   */\n      0x20\n        /* \"#utility.yul\":10244:10262   */\n      dup5\n      add\n        /* \"#utility.yul\":10237:10297   */\n      mstore\n        /* \"#utility.yul\":10328:10330   */\n      0x40\n        /* \"#utility.yul\":10313:10331   */\n      dup4\n      add\n        /* \"#utility.yul\":10306:10340   */\n      dup6\n      swap1\n      mstore\n        /* \"#utility.yul\":10172:10228   */\n      swap1\n      pop\n        /* \"#utility.yul\":10349:10406   */\n      tag_557\n        /* \"#utility.yul\":10402:10404   */\n      0x60\n        /* \"#utility.yul\":10387:10405   */\n      dup4\n      add\n        /* \"#utility.yul\":10379:10385   */\n      dup5\n        /* \"#utility.yul\":10349:10406   */\n      tag_525\n      jump\t// in\n    tag_557:\n        /* \"#utility.yul\":10131:10412   */\n      swap6\n      swap5\n      pop\n      pop\n      pop\n      pop\n      pop\n      jump\t// out\n        /* \"#utility.yul\":10417:10819   */\n    tag_422:\n        /* \"#utility.yul\":10619:10621   */\n      0x20\n        /* \"#utility.yul\":10601:10622   */\n      dup1\n      dup3\n      mstore\n        /* \"#utility.yul\":10658:10660   */\n      0x26\n        /* \"#utility.yul\":10638:10656   */\n      swap1\n      dup3\n      add\n        /* \"#utility.yul\":10631:10661   */\n      mstore\n        /* \"#utility.yul\":10697:10731   */\n      0x4f776e61626c653a206e6577206f776e657220697320746865207a65726f2061\n        /* \"#utility.yul\":10692:10694   */\n      0x40\n        /* \"#utility.yul\":10677:10695   */\n      dup3\n      add\n        /* \"#utility.yul\":10670:10732   */\n      mstore\n      shl(0xd0, 0x646472657373)\n        /* \"#utility.yul\":10763:10765   */\n      0x60\n        /* \"#utility.yul\":10748:10766   */\n      dup3\n      add\n        /* \"#utility.yul\":10741:10777   */\n      mstore\n        /* \"#utility.yul\":10809:10812   */\n      0x80\n        /* \"#utility.yul\":10794:10813   */\n      add\n      swap1\n        /* \"#utility.yul\":10591:10819   */\n      jump\t// out\n        /* \"#utility.yul\":10824:11229   */\n    tag_348:\n        /* \"#utility.yul\":11026:11028   */\n      0x20\n        /* \"#utility.yul\":11008:11029   */\n      dup1\n      dup3\n      mstore\n        /* \"#utility.yul\":11065:11067   */\n      0x29\n        /* \"#utility.yul\":11045:11063   */\n      swap1\n      dup3\n      add\n        /* \"#utility.yul\":11038:11068   */\n      mstore\n        /* \"#utility.yul\":11104:11138   */\n      0x6b206f72204e20617265206e6f74204f4b20647572696e672072616e646f6d20\n        /* \"#utility.yul\":11099:11101   */\n      0x40\n        /* \"#utility.yul\":11084:11102   */\n      dup3\n      add\n        /* \"#utility.yul\":11077:11139   */\n      mstore\n      shl(0xb9, 0x39b2b632b1ba34b7b7)\n        /* \"#utility.yul\":11170:11172   */\n      0x60\n        /* \"#utility.yul\":11155:11173   */\n      dup3\n      add\n        /* \"#utility.yul\":11148:11187   */\n      mstore\n        /* \"#utility.yul\":11219:11222   */\n      0x80\n        /* \"#utility.yul\":11204:11223   */\n      add\n      swap1\n        /* \"#utility.yul\":10998:11229   */\n      jump\t// out\n        /* \"#utility.yul\":11234:11590   */\n    tag_222:\n        /* \"#utility.yul\":11436:11438   */\n      0x20\n        /* \"#utility.yul\":11418:11439   */\n      dup1\n      dup3\n      mstore\n        /* \"#utility.yul\":11455:11473   */\n      dup2\n      dup2\n      add\n        /* \"#utility.yul\":11448:11478   */\n      mstore\n        /* \"#utility.yul\":11514:11548   */\n      0x4f776e61626c653a2063616c6c6572206973206e6f7420746865206f776e6572\n        /* \"#utility.yul\":11509:11511   */\n      0x40\n        /* \"#utility.yul\":11494:11512   */\n      dup3\n      add\n        /* \"#utility.yul\":11487:11549   */\n      mstore\n        /* \"#utility.yul\":11581:11583   */\n      0x60\n        /* \"#utility.yul\":11566:11584   */\n      add\n      swap1\n        /* \"#utility.yul\":11408:11590   */\n      jump\t// out\n        /* \"#utility.yul\":11595:12245   */\n    tag_198:\n      0x00\n        /* \"#utility.yul\":11780:11782   */\n      0x20\n        /* \"#utility.yul\":11769:11778   */\n      dup3\n        /* \"#utility.yul\":11762:11783   */\n      mstore\n        /* \"#utility.yul\":11818:11824   */\n      dup3\n        /* \"#utility.yul\":11812:11825   */\n      mload\n        /* \"#utility.yul\":11861:11865   */\n      0x80\n        /* \"#utility.yul\":11856:11858   */\n      0x20\n        /* \"#utility.yul\":11845:11854   */\n      dup5\n        /* \"#utility.yul\":11841:11859   */\n      add\n        /* \"#utility.yul\":11834:11866   */\n      mstore\n        /* \"#utility.yul\":11889:11943   */\n      tag_562\n        /* \"#utility.yul\":11938:11941   */\n      0xa0\n        /* \"#utility.yul\":11927:11936   */\n      dup5\n        /* \"#utility.yul\":11923:11942   */\n      add\n        /* \"#utility.yul\":11909:11921   */\n      dup3\n        /* \"#utility.yul\":11889:11943   */\n      tag_528\n      jump\t// in\n    tag_562:\n        /* \"#utility.yul\":11875:11943   */\n      swap1\n      pop\n        /* \"#utility.yul\":12024:12025   */\n      0x01\n        /* \"#utility.yul\":12020:12021   */\n      dup1\n        /* \"#utility.yul\":12015:12018   */\n      0xa0\n        /* \"#utility.yul\":12011:12022   */\n      shl\n        /* \"#utility.yul\":12007:12026   */\n      sub\n        /* \"#utility.yul\":12001:12003   */\n      0x20\n        /* \"#utility.yul\":11993:11999   */\n      dup6\n        /* \"#utility.yul\":11989:12004   */\n      add\n        /* \"#utility.yul\":11983:12005   */\n      mload\n        /* \"#utility.yul\":11979:12027   */\n      and\n        /* \"#utility.yul\":11974:11976   */\n      0x40\n        /* \"#utility.yul\":11963:11972   */\n      dup5\n        /* \"#utility.yul\":11959:11977   */\n      add\n        /* \"#utility.yul\":11952:12028   */\n      mstore\n        /* \"#utility.yul\":12082:12084   */\n      0x40\n        /* \"#utility.yul\":12074:12080   */\n      dup5\n        /* \"#utility.yul\":12070:12085   */\n      add\n        /* \"#utility.yul\":12064:12086   */\n      mload\n        /* \"#utility.yul\":12059:12061   */\n      0x60\n        /* \"#utility.yul\":12048:12057   */\n      dup5\n        /* \"#utility.yul\":12044:12062   */\n      add\n        /* \"#utility.yul\":12037:12087   */\n      mstore\n        /* \"#utility.yul\":12136:12138   */\n      0x60\n        /* \"#utility.yul\":12128:12134   */\n      dup5\n        /* \"#utility.yul\":12124:12139   */\n      add\n        /* \"#utility.yul\":12118:12140   */\n      mload\n        /* \"#utility.yul\":12149:12216   */\n      tag_563\n        /* \"#utility.yul\":12210:12214   */\n      0x80\n        /* \"#utility.yul\":12199:12208   */\n      dup6\n        /* \"#utility.yul\":12195:12215   */\n      add\n        /* \"#utility.yul\":12179:12193   */\n      dup3\n        /* \"#utility.yul\":12149:12216   */\n      tag_525\n      jump\t// in\n    tag_563:\n      pop\n        /* \"#utility.yul\":12233:12239   */\n      swap4\n        /* \"#utility.yul\":11752:12245   */\n      swap3\n      pop\n      pop\n      pop\n      jump\t// out\n        /* \"#utility.yul\":12432:12683   */\n    tag_485:\n        /* \"#utility.yul\":12502:12504   */\n      0x40\n        /* \"#utility.yul\":12496:12505   */\n      mload\n        /* \"#utility.yul\":12532:12549   */\n      dup2\n      dup2\n      add\n        /* \"#utility.yul\":12579:12597   */\n      0xffffffffffffffff\n        /* \"#utility.yul\":12564:12598   */\n      dup2\n      gt\n        /* \"#utility.yul\":12600:12622   */\n      dup3\n      dup3\n      lt\n        /* \"#utility.yul\":12561:12623   */\n      or\n        /* \"#utility.yul\":12558:12560   */\n      iszero\n      tag_567\n      jumpi\n        /* \"#utility.yul\":12626:12644   */\n      tag_567\n      tag_568\n      jump\t// in\n    tag_567:\n        /* \"#utility.yul\":12662:12664   */\n      0x40\n        /* \"#utility.yul\":12655:12677   */\n      mstore\n        /* \"#utility.yul\":12476:12683   */\n      swap2\n      swap1\n      pop\n      jump\t// out\n        /* \"#utility.yul\":12688:12879   */\n    tag_484:\n      0x00\n        /* \"#utility.yul\":12772:12790   */\n      0xffffffffffffffff\n        /* \"#utility.yul\":12764:12770   */\n      dup3\n        /* \"#utility.yul\":12761:12791   */\n      gt\n        /* \"#utility.yul\":12758:12760   */\n      iszero\n      tag_571\n      jumpi\n        /* \"#utility.yul\":12794:12812   */\n      tag_571\n      tag_568\n      jump\t// in\n    tag_571:\n      pop\n        /* \"#utility.yul\":12862:12864   */\n      0x1f\n        /* \"#utility.yul\":12839:12856   */\n      add\n      not(0x1f)\n        /* \"#utility.yul\":12835:12866   */\n      and\n        /* \"#utility.yul\":12868:12872   */\n      0x20\n        /* \"#utility.yul\":12831:12873   */\n      add\n      swap1\n        /* \"#utility.yul\":12748:12879   */\n      jump\t// out\n        /* \"#utility.yul\":12884:13012   */\n    tag_252:\n      0x00\n        /* \"#utility.yul\":12955:12956   */\n      dup3\n        /* \"#utility.yul\":12951:12957   */\n      not\n        /* \"#utility.yul\":12948:12949   */\n      dup3\n        /* \"#utility.yul\":12945:12958   */\n      gt\n        /* \"#utility.yul\":12942:12944   */\n      iszero\n      tag_574\n      jumpi\n        /* \"#utility.yul\":12961:12979   */\n      tag_574\n      tag_575\n      jump\t// in\n    tag_574:\n      pop\n        /* \"#utility.yul\":12997:13006   */\n      add\n      swap1\n        /* \"#utility.yul\":12932:13012   */\n      jump\t// out\n        /* \"#utility.yul\":13017:13137   */\n    tag_304:\n      0x00\n        /* \"#utility.yul\":13083:13084   */\n      dup3\n        /* \"#utility.yul\":13073:13075   */\n      tag_578\n      jumpi\n        /* \"#utility.yul\":13088:13106   */\n      tag_578\n      tag_579\n      jump\t// in\n    tag_578:\n      pop\n        /* \"#utility.yul\":13122:13131   */\n      div\n      swap1\n        /* \"#utility.yul\":13063:13137   */\n      jump\t// out\n        /* \"#utility.yul\":13142:13267   */\n    tag_327:\n      0x00\n        /* \"#utility.yul\":13210:13211   */\n      dup3\n        /* \"#utility.yul\":13207:13208   */\n      dup3\n        /* \"#utility.yul\":13204:13212   */\n      lt\n        /* \"#utility.yul\":13201:13203   */\n      iszero\n      tag_582\n      jumpi\n        /* \"#utility.yul\":13215:13233   */\n      tag_582\n      tag_575\n      jump\t// in\n    tag_582:\n      pop\n        /* \"#utility.yul\":13252:13261   */\n      sub\n      swap1\n        /* \"#utility.yul\":13191:13267   */\n      jump\t// out\n        /* \"#utility.yul\":13272:13530   */\n    tag_494:\n        /* \"#utility.yul\":13344:13345   */\n      0x00\n        /* \"#utility.yul\":13354:13467   */\n    tag_584:\n        /* \"#utility.yul\":13368:13374   */\n      dup4\n        /* \"#utility.yul\":13365:13366   */\n      dup2\n        /* \"#utility.yul\":13362:13375   */\n      lt\n        /* \"#utility.yul\":13354:13467   */\n      iszero\n      tag_586\n      jumpi\n        /* \"#utility.yul\":13444:13455   */\n      dup2\n      dup2\n      add\n        /* \"#utility.yul\":13438:13456   */\n      mload\n        /* \"#utility.yul\":13425:13436   */\n      dup4\n      dup3\n      add\n        /* \"#utility.yul\":13418:13457   */\n      mstore\n        /* \"#utility.yul\":13390:13392   */\n      0x20\n        /* \"#utility.yul\":13383:13393   */\n      add\n        /* \"#utility.yul\":13354:13467   */\n      jump(tag_584)\n    tag_586:\n        /* \"#utility.yul\":13485:13491   */\n      dup4\n        /* \"#utility.yul\":13482:13483   */\n      dup2\n        /* \"#utility.yul\":13479:13492   */\n      gt\n        /* \"#utility.yul\":13476:13478   */\n      iszero\n      tag_587\n      jumpi\n        /* \"#utility.yul\":13520:13521   */\n      0x00\n        /* \"#utility.yul\":13511:13517   */\n      dup5\n        /* \"#utility.yul\":13506:13509   */\n      dup5\n        /* \"#utility.yul\":13502:13518   */\n      add\n        /* \"#utility.yul\":13495:13522   */\n      mstore\n        /* \"#utility.yul\":13476:13478   */\n    tag_587:\n      pop\n        /* \"#utility.yul\":13325:13530   */\n      pop\n      pop\n      pop\n      jump\t// out\n        /* \"#utility.yul\":13535:13915   */\n    tag_276:\n        /* \"#utility.yul\":13620:13621   */\n      0x02\n        /* \"#utility.yul\":13610:13622   */\n      dup2\n      div\n        /* \"#utility.yul\":13667:13668   */\n      0x01\n        /* \"#utility.yul\":13657:13669   */\n      dup3\n      and\n      dup1\n        /* \"#utility.yul\":13678:13680   */\n      tag_589\n      jumpi\n        /* \"#utility.yul\":13732:13736   */\n      0x7f\n        /* \"#utility.yul\":13724:13730   */\n      dup3\n        /* \"#utility.yul\":13720:13737   */\n      and\n        /* \"#utility.yul\":13710:13737   */\n      swap2\n      pop\n        /* \"#utility.yul\":13678:13680   */\n    tag_589:\n        /* \"#utility.yul\":13785:13787   */\n      0x20\n        /* \"#utility.yul\":13777:13783   */\n      dup3\n        /* \"#utility.yul\":13774:13788   */\n      lt\n        /* \"#utility.yul\":13754:13772   */\n      dup2\n        /* \"#utility.yul\":13751:13789   */\n      eq\n        /* \"#utility.yul\":13748:13750   */\n      iszero\n      tag_590\n      jumpi\n        /* \"#utility.yul\":13831:13841   */\n      0x4e487b71\n        /* \"#utility.yul\":13826:13829   */\n      0xe0\n        /* \"#utility.yul\":13822:13842   */\n      shl\n        /* \"#utility.yul\":13819:13820   */\n      0x00\n        /* \"#utility.yul\":13812:13843   */\n      mstore\n        /* \"#utility.yul\":13866:13870   */\n      0x22\n        /* \"#utility.yul\":13863:13864   */\n      0x04\n        /* \"#utility.yul\":13856:13871   */\n      mstore\n        /* \"#utility.yul\":13894:13898   */\n      0x24\n        /* \"#utility.yul\":13891:13892   */\n      0x00\n        /* \"#utility.yul\":13884:13899   */\n      revert\n        /* \"#utility.yul\":13748:13750   */\n    tag_590:\n      pop\n        /* \"#utility.yul\":13590:13915   */\n      swap2\n      swap1\n      pop\n      jump\t// out\n        /* \"#utility.yul\":13920:14055   */\n    tag_338:\n      0x00\n      not(0x00)\n        /* \"#utility.yul\":13980:13997   */\n      dup3\n      eq\n        /* \"#utility.yul\":13977:13979   */\n      iszero\n      tag_593\n      jumpi\n        /* \"#utility.yul\":14000:14018   */\n      tag_593\n      tag_575\n      jump\t// in\n    tag_593:\n      pop\n        /* \"#utility.yul\":14047:14048   */\n      0x01\n        /* \"#utility.yul\":14036:14049   */\n      add\n      swap1\n        /* \"#utility.yul\":13967:14055   */\n      jump\t// out\n        /* \"#utility.yul\":14060:14172   */\n    tag_331:\n      0x00\n        /* \"#utility.yul\":14118:14119   */\n      dup3\n        /* \"#utility.yul\":14108:14110   */\n      tag_596\n      jumpi\n        /* \"#utility.yul\":14123:14141   */\n      tag_596\n      tag_579\n      jump\t// in\n    tag_596:\n      pop\n        /* \"#utility.yul\":14157:14166   */\n      mod\n      swap1\n        /* \"#utility.yul\":14098:14172   */\n      jump\t// out\n        /* \"#utility.yul\":14177:14304   */\n    tag_575:\n        /* \"#utility.yul\":14238:14248   */\n      0x4e487b71\n        /* \"#utility.yul\":14233:14236   */\n      0xe0\n        /* \"#utility.yul\":14229:14249   */\n      shl\n        /* \"#utility.yul\":14226:14227   */\n      0x00\n        /* \"#utility.yul\":14219:14250   */\n      mstore\n        /* \"#utility.yul\":14269:14273   */\n      0x11\n        /* \"#utility.yul\":14266:14267   */\n      0x04\n        /* \"#utility.yul\":14259:14274   */\n      mstore\n        /* \"#utility.yul\":14293:14297   */\n      0x24\n        /* \"#utility.yul\":14290:14291   */\n      0x00\n        /* \"#utility.yul\":14283:14298   */\n      revert\n        /* \"#utility.yul\":14309:14436   */\n    tag_579:\n        /* \"#utility.yul\":14370:14380   */\n      0x4e487b71\n        /* \"#utility.yul\":14365:14368   */\n      0xe0\n        /* \"#utility.yul\":14361:14381   */\n      shl\n        /* \"#utility.yul\":14358:14359   */\n      0x00\n        /* \"#utility.yul\":14351:14382   */\n      mstore\n        /* \"#utility.yul\":14401:14405   */\n      0x12\n        /* \"#utility.yul\":14398:14399   */\n      0x04\n        /* \"#utility.yul\":14391:14406   */\n      mstore\n        /* \"#utility.yul\":14425:14429   */\n      0x24\n        /* \"#utility.yul\":14422:14423   */\n      0x00\n        /* \"#utility.yul\":14415:14430   */\n      revert\n        /* \"#utility.yul\":14441:14568   */\n    tag_568:\n        /* \"#utility.yul\":14502:14512   */\n      0x4e487b71\n        /* \"#utility.yul\":14497:14500   */\n      0xe0\n        /* \"#utility.yul\":14493:14513   */\n      shl\n        /* \"#utility.yul\":14490:14491   */\n      0x00\n        /* \"#utility.yul\":14483:14514   */\n      mstore\n        /* \"#utility.yul\":14533:14537   */\n      0x41\n        /* \"#utility.yul\":14530:14531   */\n      0x04\n        /* \"#utility.yul\":14523:14538   */\n      mstore\n        /* \"#utility.yul\":14557:14561   */\n      0x24\n        /* \"#utility.yul\":14554:14555   */\n      0x00\n        /* \"#utility.yul\":14547:14562   */\n      revert\n\n    auxdata: 0xa2646970667358221220a350b18879d3052bc0fc1271a62bfe107979adbb26afcfeb61eaad098c88168164736f6c63430008000033\n}\n",
				"bytecode": {
					"linkReferences": {},
					"object": "608060405260006002819055600980546001600160a01b0319167314f52f3fc010ab6ca81568d4a6794d5eab3c61551790556001600a819055600b819055600c55600d553480156200005057600080fd5b50604051620020fe380380620020fe83398101604081905262000073916200012f565b6200008762000081620000be565b620000c2565b600e80546001600160a01b039384166001600160a01b03199182161790915560138054929093169116179055600060025562000166565b3390565b600080546001600160a01b038381166001600160a01b0319831681178455604051919092169283917f8be0079c531659141344cd1fd0a4f28419497f9722a3daafe3b4186f6b6457e09190a35050565b80516001600160a01b03811681146200012a57600080fd5b919050565b6000806040838503121562000142578182fd5b6200014d8362000112565b91506200015d6020840162000112565b90509250929050565b611f8880620001766000396000f3fe608060405234801561001057600080fd5b50600436106102695760003560e01c8063a16a11e011610151578063dd618682116100c3578063f2722a9f11610087578063f2722a9f146104d9578063f2d9e74d146104f9578063f2fde38b14610501578063f5ae7c7d14610514578063f721de4a1461051c578063fc0c546a1461052f57610269565b8063dd61868214610478578063df05368e1461048b578063e44c974b1461049e578063e4e6025e146104b1578063ef4fcdad146104d157610269565b8063b1d7ea9811610115578063b1d7ea9814610404578063b8f011b314610424578063c47c4bc214610437578063ced5ca6f1461044a578063d6b0206c1461045d578063d822ce011461046557610269565b8063a16a11e0146103c6578063a511dba0146103d9578063a9057790146103e1578063aacc5a17146103f4578063ab43e78d146103fc57610269565b8063715018a6116101ea5780638473850b116101ae5780638473850b146103655780638cbdab3c1461036d5780638d289f8f146103905780638da5cb5b146103985780638df0296e146103a0578063a1103f37146103b357610269565b8063715018a614610332578063796b89b91461033a5780637a34da6714610342578063821aa8c01461034a57806383cc6ef21461035d57610269565b8063353f44d011610231578063353f44d0146102e957806339e7357c146102fc57806348257dc9146103045780634fe8b4c11461031757806351912f291461032a57610269565b8063050eb2eb1461026e5780630e6661a714610283578063171ee06a146102a157806329a47bc7146102c15780633538af82146102d6575b600080fd5b61028161027c366004611912565b610537565b005b61028b6105a1565b6040516102989190611bb5565b60405180910390f35b6102b46102af366004611aef565b6105a7565b6040516102989190611c40565b6102c96105bc565b6040516102989190611be8565b6102c96102e4366004611aef565b6105cb565b61028b6102f7366004611912565b6105f5565b61028b610607565b6102b4610312366004611aef565b610624565b610281610325366004611aef565b6108e1565b6102c9610961565b610281610970565b61028b6109bb565b6102c96109bf565b6102c9610358366004611aef565b6109ce565b6102c96109de565b61028b6109ed565b61038061037b366004611aef565b6109f3565b6040516102989493929190611c88565b6102c9610ab2565b6102c9610ac1565b6102c96103ae366004611b07565b610ad0565b61028b6103c1366004611933565b610b08565b6102816103d4366004611912565b610b3c565b61028b610b9d565b6102b46103ef366004611976565b610ba3565b61028b610c09565b6102c9610cbe565b610417610412366004611b07565b610ccd565b6040516102989190611bfc565b610417610432366004611b07565b610ed5565b610281610445366004611912565b61103f565b610281610458366004611aef565b6110a0565b61028b611110565b6102c9610473366004611933565b611116565b610281610486366004611912565b611132565b610281610499366004611912565b611193565b6104176104ac366004611aef565b6111f4565b6104c46104bf366004611aef565b61126e565b6040516102989190611c4b565b61028b61131d565b6104ec6104e7366004611aef565b611323565b6040516102989190611d8d565b61028b611455565b61028161050f366004611912565b61145b565b61028b6114c9565b6102b461052a366004611aef565b6114cf565b6102c96114d7565b61053f6114e6565b6001600160a01b0316610550610ac1565b6001600160a01b03161461057f5760405162461bcd60e51b815260040161057690611d58565b60405180910390fd5b601180546001600160a01b0319166001600160a01b0392909216919091179055565b60025481565b60016020526000908152604090205460ff1681565b6010546001600160a01b031681565b600681815481106105db57600080fd5b6000918252602090912001546001600160a01b0316905081565b60046020526000908152604090205481565b60405160009080602081848060185afa61061d57fe5b5051919050565b6013546000906001600160a01b031615801590610650575060008281526001602052604090205460ff16155b156108bf57601354604051637b90ef2560e11b81526001600160a01b039091169063f721de4a90610685908590600401611bb5565b602060405180830381600087803b15801561069f57600080fd5b505af11580156106b3573d6000803e3d6000fd5b505050506040513d601f19601f820116820180604052508101906106d7919061195c565b156108bf57601354604051631b308bf760e31b81526000916001600160a01b03169063d9845fb89061070d908690600401611bb5565b600060405180830381600087803b15801561072757600080fd5b505af115801561073b573d6000803e3d6000fd5b505050506040513d6000823e601f3d908101601f1916820160405261076391908101906119d7565b6101a0810151909150600181600381111561078e57634e487b7160e01b600052602160045260246000fd5b14156108a0576040805160808101825261018084015181523360208083019190915242828401526000606083018190526002548152600382529290922081518051929391926107e09284920190611724565b506020820151600182810180546001600160a01b0319166001600160a01b0390931692909217909155604083015160028301556060830151600380840180549293909260ff191691849081111561084757634e487b7160e01b600052602160045260246000fd5b02179055505060025461085c91506001611e33565b60028190556101808301516040517f43ecb46cb5c77906888a0ab6a09798cb7feff11e826edd3ba74fada241e3a64691610897913390611c5e565b60405180910390a25b50506000828152600160208190526040909120805460ff191690911790555b6001600d60008282546108d29190611e33565b9091555060009150505b919050565b6108e96114e6565b6001600160a01b03166108fa610ac1565b6001600160a01b0316146109205760405162461bcd60e51b815260040161057690611d58565b60008181526003602052604081209061093982826117a8565b506001810180546001600160a01b031916905560006002820155600301805460ff1916905550565b6011546001600160a01b031681565b6109786114e6565b6001600160a01b0316610989610ac1565b6001600160a01b0316146109af5760405162461bcd60e51b815260040161057690611d58565b6109b960006114ea565b565b4290565b6012546001600160a01b031681565b600781815481106105db57600080fd5b600f546001600160a01b031681565b600a5481565b600360205260009081526040902080548190610a0e90611ea6565b80601f0160208091040260200160405190810160405280929190818152602001828054610a3a90611ea6565b8015610a875780601f10610a5c57610100808354040283529160200191610a87565b820191906000526020600020905b815481529060010190602001808311610a6a57829003601f168201915b505050506001830154600284015460039094015492936001600160a01b039091169290915060ff1684565b6013546001600160a01b031681565b6000546001600160a01b031690565b60086020528160005260406000208181548110610aec57600080fd5b6000918252602090912001546001600160a01b03169150829050565b60008282604051602001610b1d929190611b93565b6040516020818303038152906040528051906020012090505b92915050565b610b446114e6565b6001600160a01b0316610b55610ac1565b6001600160a01b031614610b7b5760405162461bcd60e51b815260040161057690611d58565b601380546001600160a01b0319166001600160a01b0392909216919091179055565b60025490565b600081604051602001610bb69190611bbe565b6040516020818303038152906040528051906020012083604051602001610bdd9190611bbe565b604051602081830303815290604052805190602001201415610c0157506001610b36565b506000610b36565b6000804241604051602001610c1e9190611b76565b6040516020818303038152906040528051906020012060001c610c419190611e4b565b44610c4a610607565b604051602001610c5a9190611bb5565b60408051601f198184030181529190528051602090910120610c7c9042611e33565b610c869190611e33565b610c909190611e33565b604051602001610ca09190611bb5565b60408051601f19818403018152919052805160209091012091505090565b6009546001600160a01b031681565b606060008211610cdc57600080fd5b600041604051602001610cef9190611b76565b6040516020818303038152906040528051906020012060001c610d10610607565b604051602001610d209190611bb5565b60408051601f198184030181529190528051602090910120610d429042611e33565b610d4c9190611e33565b604051602001610d5c9190611bb5565b6040516020818303038152906040528051906020012060001c905060008467ffffffffffffffff811115610da057634e487b7160e01b600052604160045260246000fd5b604051908082528060200260200182016040528015610dc9578160200160208202803683370190505b5090506000805b86821015610eca57600086610de963017efeeb87611e5f565b83604051602001610dfb929190611bda565b6040516020818303038152906040528051906020012060001c610e1e9190611efc565b90506000805b84811015610e765782868281518110610e4d57634e487b7160e01b600052603260045260246000fd5b60200260200101511415610e645760019150610e76565b80610e6e81611ee1565b915050610e24565b5080610eb65781858581518110610e9d57634e487b7160e01b600052603260045260246000fd5b6020908102919091010152610eb3846001611e33565b93505b610ec1836001611e33565b92505050610dd0565b509095945050505050565b6060600082118015610ee75750818311155b8015610ef4575060018310155b610f105760405162461bcd60e51b815260040161057690611d0f565b60008267ffffffffffffffff811115610f3957634e487b7160e01b600052604160045260246000fd5b604051908082528060200260200182016040528015610f62578160200160208202803683370190505b50905060008467ffffffffffffffff811115610f8e57634e487b7160e01b600052604160045260246000fd5b604051908082528060200260200182016040528015610fb7578160200160208202803683370190505b5090506000610fcd610fc88461153a565b611590565b905060005b86811015610eca57818181518110610ffa57634e487b7160e01b600052603260045260246000fd5b602002602001015183828151811061102257634e487b7160e01b600052603260045260246000fd5b60209081029190910101528061103781611ee1565b915050610fd2565b6110476114e6565b6001600160a01b0316611058610ac1565b6001600160a01b03161461107e5760405162461bcd60e51b815260040161057690611d58565b601280546001600160a01b0319166001600160a01b0392909216919091179055565b6110a86114e6565b6001600160a01b03166110b9610ac1565b6001600160a01b0316146110df5760405162461bcd60e51b815260040161057690611d58565b60008181526001602052604090205460ff161561110d576000818152600160205260409020805460ff191690555b50565b600c5481565b60056020528160005260406000208181548110610aec57600080fd5b61113a6114e6565b6001600160a01b031661114b610ac1565b6001600160a01b0316146111715760405162461bcd60e51b815260040161057690611d58565b601080546001600160a01b0319166001600160a01b0392909216919091179055565b61119b6114e6565b6001600160a01b03166111ac610ac1565b6001600160a01b0316146111d25760405162461bcd60e51b815260040161057690611d58565b600f80546001600160a01b0319166001600160a01b0392909216919091179055565b60606000821161120357600080fd5b60008267ffffffffffffffff81111561122c57634e487b7160e01b600052604160045260246000fd5b604051908082528060200260200182016040528015611255578160200160208202803683370190505b5090506000611266610fc88361153a565b949350505050565b606060025482111561127f57600080fd5b6000828152600360205260409020805461129890611ea6565b80601f01602080910402602001604051908101604052809291908181526020018280546112c490611ea6565b80156113115780601f106112e657610100808354040283529160200191611311565b820191906000526020600020905b8154815290600101906020018083116112f457829003601f168201915b50505050509050919050565b600b5481565b61132b6117e4565b60025482111561133a57600080fd5b6000828152600360205260409081902081516080810190925280548290829061136290611ea6565b80601f016020809104026020016040519081016040528092919081815260200182805461138e90611ea6565b80156113db5780601f106113b0576101008083540402835291602001916113db565b820191906000526020600020905b8154815290600101906020018083116113be57829003601f168201915b505050918352505060018201546001600160a01b031660208201526002820154604082015260038083015460609092019160ff169081111561142d57634e487b7160e01b600052602160045260246000fd5b600381111561144c57634e487b7160e01b600052602160045260246000fd5b90525092915050565b600d5481565b6114636114e6565b6001600160a01b0316611474610ac1565b6001600160a01b03161461149a5760405162461bcd60e51b815260040161057690611d58565b6001600160a01b0381166114c05760405162461bcd60e51b815260040161057690611cc9565b61110d816114ea565b600d5490565b600254101590565b600e546001600160a01b031681565b3390565b600080546001600160a01b038381166001600160a01b0319831681178455604051919092169283917f8be0079c531659141344cd1fd0a4f28419497f9722a3daafe3b4186f6b6457e09190a35050565b805160609060005b81811015611588578084828151811061156b57634e487b7160e01b600052603260045260246000fd5b60209081029190910101528061158081611ee1565b915050611542565b509192915050565b606060008251116115a057600080fd5b81518060005b8181101561171b576000836115b9610c09565b8784815181106115d957634e487b7160e01b600052603260045260246000fd5b60200260200101516040516020016115f2929190611bda565b6040516020818303038152906040528051906020012060001c6116159190611efc565b611620906001611e33565b9050600086611630600184611e5f565b8151811061164e57634e487b7160e01b600052603260045260246000fd5b60200260200101519050866001866116669190611e5f565b8151811061168457634e487b7160e01b600052603260045260246000fd5b60200260200101518760018461169a9190611e5f565b815181106116b857634e487b7160e01b600052603260045260246000fd5b602090810291909101015280876116d0600188611e5f565b815181106116ee57634e487b7160e01b600052603260045260246000fd5b6020908102919091010152611704600186611e5f565b94505050808061171390611ee1565b9150506115a6565b50929392505050565b82805461173090611ea6565b90600052602060002090601f0160209004810192826117525760008555611798565b82601f1061176b57805160ff1916838001178555611798565b82800160010185558215611798579182015b8281111561179857825182559160200191906001019061177d565b506117a4929150611833565b5090565b5080546117b490611ea6565b6000825580601f106117c6575061110d565b601f01602090049060005260206000209081019061110d9190611833565b60405180608001604052806060815260200160006001600160a01b03168152602001600081526020016000600381111561182e57634e487b7160e01b600052602160045260246000fd5b905290565b5b808211156117a45760008155600101611834565b80356001600160a01b03811681146108dc57600080fd5b805180151581146108dc57600080fd5b8051600481106108dc57600080fd5b600082601f83011261188e578081fd5b81356118a161189c82611e0b565b611de1565b8181528460208386010111156118b5578283fd5b816020850160208301379081016020019190915292915050565b600082601f8301126118df578081fd5b81516118ed61189c82611e0b565b818152846020838601011115611901578283fd5b611266826020830160208701611e76565b600060208284031215611923578081fd5b61192c82611848565b9392505050565b60008060408385031215611945578081fd5b61194e83611848565b946020939093013593505050565b60006020828403121561196d578081fd5b61192c8261185f565b60008060408385031215611988578182fd5b823567ffffffffffffffff8082111561199f578384fd5b6119ab8683870161187e565b935060208501359150808211156119c0578283fd5b506119cd8582860161187e565b9150509250929050565b6000602082840312156119e8578081fd5b815167ffffffffffffffff808211156119ff578283fd5b81840191506101c0808387031215611a15578384fd5b611a1e81611de1565b90508251815260208301516020820152604083015160408201526060830151606082015260808301516080820152611a5860a0840161185f565b60a0820152611a6960c0840161185f565b60c0820152611a7a60e0840161185f565b60e082015261010083810151908201526101208084015190820152610140808401519082015261016080840151908201526101808084015183811115611abe578586fd5b611aca888287016118cf565b8284015250506101a09150611ae082840161186f565b91810191909152949350505050565b600060208284031215611b00578081fd5b5035919050565b60008060408385031215611b19578182fd5b50508035926020909101359150565b60048110611b4657634e487b7160e01b600052602160045260246000fd5b9052565b60008151808452611b62816020860160208601611e76565b601f01601f19169290920160200192915050565b60609190911b6bffffffffffffffffffffffff1916815260140190565b60609290921b6bffffffffffffffffffffffff19168252601482015260340190565b90815260200190565b60008251611bd0818460208701611e76565b9190910192915050565b918252602082015260400190565b6001600160a01b0391909116815260200190565b6020808252825182820181905260009190848201906040850190845b81811015611c3457835183529284019291840191600101611c18565b50909695505050505050565b901515815260200190565b60006020825261192c6020830184611b4a565b600060408252611c716040830185611b4a565b905060018060a01b03831660208301529392505050565b600060808252611c9b6080830187611b4a565b6001600160a01b0386166020840152604083018590529050611cc06060830184611b28565b95945050505050565b60208082526026908201527f4f776e61626c653a206e6577206f776e657220697320746865207a65726f206160408201526564647265737360d01b606082015260800190565b60208082526029908201527f6b206f72204e20617265206e6f74204f4b20647572696e672072616e646f6d2060408201526839b2b632b1ba34b7b760b91b606082015260800190565b6020808252818101527f4f776e61626c653a2063616c6c6572206973206e6f7420746865206f776e6572604082015260600190565b600060208252825160806020840152611da960a0840182611b4a565b905060018060a01b036020850151166040840152604084015160608401526060840151611dd96080850182611b28565b509392505050565b60405181810167ffffffffffffffff81118282101715611e0357611e03611f3c565b604052919050565b600067ffffffffffffffff821115611e2557611e25611f3c565b50601f01601f191660200190565b60008219821115611e4657611e46611f10565b500190565b600082611e5a57611e5a611f26565b500490565b600082821015611e7157611e71611f10565b500390565b60005b83811015611e91578181015183820152602001611e79565b83811115611ea0576000848401525b50505050565b600281046001821680611eba57607f821691505b60208210811415611edb57634e487b7160e01b600052602260045260246000fd5b50919050565b6000600019821415611ef557611ef5611f10565b5060010190565b600082611f0b57611f0b611f26565b500690565b634e487b7160e01b600052601160045260246000fd5b634e487b7160e01b600052601260045260246000fd5b634e487b7160e01b600052604160045260246000fdfea2646970667358221220a350b18879d3052bc0fc1271a62bfe107979adbb26afcfeb61eaad098c88168164736f6c63430008000033",
					"opcodes": "PUSH1 0x80 PUSH1 0x40 MSTORE PUSH1 0x0 PUSH1 0x2 DUP2 SWAP1 SSTORE PUSH1 0x9 DUP1 SLOAD PUSH1 0x1 PUSH1 0x1 PUSH1 0xA0 SHL SUB NOT AND PUSH20 0x14F52F3FC010AB6CA81568D4A6794D5EAB3C6155 OR SWAP1 SSTORE PUSH1 0x1 PUSH1 0xA DUP2 SWAP1 SSTORE PUSH1 0xB DUP2 SWAP1 SSTORE PUSH1 0xC SSTORE PUSH1 0xD SSTORE CALLVALUE DUP1 ISZERO PUSH3 0x50 JUMPI PUSH1 0x0 DUP1 REVERT JUMPDEST POP PUSH1 0x40 MLOAD PUSH3 0x20FE CODESIZE SUB DUP1 PUSH3 0x20FE DUP4 CODECOPY DUP2 ADD PUSH1 0x40 DUP2 SWAP1 MSTORE PUSH3 0x73 SWAP2 PUSH3 0x12F JUMP JUMPDEST PUSH3 0x87 PUSH3 0x81 PUSH3 0xBE JUMP JUMPDEST PUSH3 0xC2 JUMP JUMPDEST PUSH1 0xE DUP1 SLOAD PUSH1 0x1 PUSH1 0x1 PUSH1 0xA0 SHL SUB SWAP4 DUP5 AND PUSH1 0x1 PUSH1 0x1 PUSH1 0xA0 SHL SUB NOT SWAP2 DUP3 AND OR SWAP1 SWAP2 SSTORE PUSH1 0x13 DUP1 SLOAD SWAP3 SWAP1 SWAP4 AND SWAP2 AND OR SWAP1 SSTORE PUSH1 0x0 PUSH1 0x2 SSTORE PUSH3 0x166 JUMP JUMPDEST CALLER SWAP1 JUMP JUMPDEST PUSH1 0x0 DUP1 SLOAD PUSH1 0x1 PUSH1 0x1 PUSH1 0xA0 SHL SUB DUP4 DUP2 AND PUSH1 0x1 PUSH1 0x1 PUSH1 0xA0 SHL SUB NOT DUP4 AND DUP2 OR DUP5 SSTORE PUSH1 0x40 MLOAD SWAP2 SWAP1 SWAP3 AND SWAP3 DUP4 SWAP2 PUSH32 0x8BE0079C531659141344CD1FD0A4F28419497F9722A3DAAFE3B4186F6B6457E0 SWAP2 SWAP1 LOG3 POP POP JUMP JUMPDEST DUP1 MLOAD PUSH1 0x1 PUSH1 0x1 PUSH1 0xA0 SHL SUB DUP2 AND DUP2 EQ PUSH3 0x12A JUMPI PUSH1 0x0 DUP1 REVERT JUMPDEST SWAP2 SWAP1 POP JUMP JUMPDEST PUSH1 0x0 DUP1 PUSH1 0x40 DUP4 DUP6 SUB SLT ISZERO PUSH3 0x142 JUMPI DUP2 DUP3 REVERT JUMPDEST PUSH3 0x14D DUP4 PUSH3 0x112 JUMP JUMPDEST SWAP2 POP PUSH3 0x15D PUSH1 0x20 DUP5 ADD PUSH3 0x112 JUMP JUMPDEST SWAP1 POP SWAP3 POP SWAP3 SWAP1 POP JUMP JUMPDEST PUSH2 0x1F88 DUP1 PUSH3 0x176 PUSH1 0x0 CODECOPY PUSH1 0x0 RETURN INVALID PUSH1 0x80 PUSH1 0x40 MSTORE CALLVALUE DUP1 ISZERO PUSH2 0x10 JUMPI PUSH1 0x0 DUP1 REVERT JUMPDEST POP PUSH1 0x4 CALLDATASIZE LT PUSH2 0x269 JUMPI PUSH1 0x0 CALLDATALOAD PUSH1 0xE0 SHR DUP1 PUSH4 0xA16A11E0 GT PUSH2 0x151 JUMPI DUP1 PUSH4 0xDD618682 GT PUSH2 0xC3 JUMPI DUP1 PUSH4 0xF2722A9F GT PUSH2 0x87 JUMPI DUP1 PUSH4 0xF2722A9F EQ PUSH2 0x4D9 JUMPI DUP1 PUSH4 0xF2D9E74D EQ PUSH2 0x4F9 JUMPI DUP1 PUSH4 0xF2FDE38B EQ PUSH2 0x501 JUMPI DUP1 PUSH4 0xF5AE7C7D EQ PUSH2 0x514 JUMPI DUP1 PUSH4 0xF721DE4A EQ PUSH2 0x51C JUMPI DUP1 PUSH4 0xFC0C546A EQ PUSH2 0x52F JUMPI PUSH2 0x269 JUMP JUMPDEST DUP1 PUSH4 0xDD618682 EQ PUSH2 0x478 JUMPI DUP1 PUSH4 0xDF05368E EQ PUSH2 0x48B JUMPI DUP1 PUSH4 0xE44C974B EQ PUSH2 0x49E JUMPI DUP1 PUSH4 0xE4E6025E EQ PUSH2 0x4B1 JUMPI DUP1 PUSH4 0xEF4FCDAD EQ PUSH2 0x4D1 JUMPI PUSH2 0x269 JUMP JUMPDEST DUP1 PUSH4 0xB1D7EA98 GT PUSH2 0x115 JUMPI DUP1 PUSH4 0xB1D7EA98 EQ PUSH2 0x404 JUMPI DUP1 PUSH4 0xB8F011B3 EQ PUSH2 0x424 JUMPI DUP1 PUSH4 0xC47C4BC2 EQ PUSH2 0x437 JUMPI DUP1 PUSH4 0xCED5CA6F EQ PUSH2 0x44A JUMPI DUP1 PUSH4 0xD6B0206C EQ PUSH2 0x45D JUMPI DUP1 PUSH4 0xD822CE01 EQ PUSH2 0x465 JUMPI PUSH2 0x269 JUMP JUMPDEST DUP1 PUSH4 0xA16A11E0 EQ PUSH2 0x3C6 JUMPI DUP1 PUSH4 0xA511DBA0 EQ PUSH2 0x3D9 JUMPI DUP1 PUSH4 0xA9057790 EQ PUSH2 0x3E1 JUMPI DUP1 PUSH4 0xAACC5A17 EQ PUSH2 0x3F4 JUMPI DUP1 PUSH4 0xAB43E78D EQ PUSH2 0x3FC JUMPI PUSH2 0x269 JUMP JUMPDEST DUP1 PUSH4 0x715018A6 GT PUSH2 0x1EA JUMPI DUP1 PUSH4 0x8473850B GT PUSH2 0x1AE JUMPI DUP1 PUSH4 0x8473850B EQ PUSH2 0x365 JUMPI DUP1 PUSH4 0x8CBDAB3C EQ PUSH2 0x36D JUMPI DUP1 PUSH4 0x8D289F8F EQ PUSH2 0x390 JUMPI DUP1 PUSH4 0x8DA5CB5B EQ PUSH2 0x398 JUMPI DUP1 PUSH4 0x8DF0296E EQ PUSH2 0x3A0 JUMPI DUP1 PUSH4 0xA1103F37 EQ PUSH2 0x3B3 JUMPI PUSH2 0x269 JUMP JUMPDEST DUP1 PUSH4 0x715018A6 EQ PUSH2 0x332 JUMPI DUP1 PUSH4 0x796B89B9 EQ PUSH2 0x33A JUMPI DUP1 PUSH4 0x7A34DA67 EQ PUSH2 0x342 JUMPI DUP1 PUSH4 0x821AA8C0 EQ PUSH2 0x34A JUMPI DUP1 PUSH4 0x83CC6EF2 EQ PUSH2 0x35D JUMPI PUSH2 0x269 JUMP JUMPDEST DUP1 PUSH4 0x353F44D0 GT PUSH2 0x231 JUMPI DUP1 PUSH4 0x353F44D0 EQ PUSH2 0x2E9 JUMPI DUP1 PUSH4 0x39E7357C EQ PUSH2 0x2FC JUMPI DUP1 PUSH4 0x48257DC9 EQ PUSH2 0x304 JUMPI DUP1 PUSH4 0x4FE8B4C1 EQ PUSH2 0x317 JUMPI DUP1 PUSH4 0x51912F29 EQ PUSH2 0x32A JUMPI PUSH2 0x269 JUMP JUMPDEST DUP1 PUSH4 0x50EB2EB EQ PUSH2 0x26E JUMPI DUP1 PUSH4 0xE6661A7 EQ PUSH2 0x283 JUMPI DUP1 PUSH4 0x171EE06A EQ PUSH2 0x2A1 JUMPI DUP1 PUSH4 0x29A47BC7 EQ PUSH2 0x2C1 JUMPI DUP1 PUSH4 0x3538AF82 EQ PUSH2 0x2D6 JUMPI JUMPDEST PUSH1 0x0 DUP1 REVERT JUMPDEST PUSH2 0x281 PUSH2 0x27C CALLDATASIZE PUSH1 0x4 PUSH2 0x1912 JUMP JUMPDEST PUSH2 0x537 JUMP JUMPDEST STOP JUMPDEST PUSH2 0x28B PUSH2 0x5A1 JUMP JUMPDEST PUSH1 0x40 MLOAD PUSH2 0x298 SWAP2 SWAP1 PUSH2 0x1BB5 JUMP JUMPDEST PUSH1 0x40 MLOAD DUP1 SWAP2 SUB SWAP1 RETURN JUMPDEST PUSH2 0x2B4 PUSH2 0x2AF CALLDATASIZE PUSH1 0x4 PUSH2 0x1AEF JUMP JUMPDEST PUSH2 0x5A7 JUMP JUMPDEST PUSH1 0x40 MLOAD PUSH2 0x298 SWAP2 SWAP1 PUSH2 0x1C40 JUMP JUMPDEST PUSH2 0x2C9 PUSH2 0x5BC JUMP JUMPDEST PUSH1 0x40 MLOAD PUSH2 0x298 SWAP2 SWAP1 PUSH2 0x1BE8 JUMP JUMPDEST PUSH2 0x2C9 PUSH2 0x2E4 CALLDATASIZE PUSH1 0x4 PUSH2 0x1AEF JUMP JUMPDEST PUSH2 0x5CB JUMP JUMPDEST PUSH2 0x28B PUSH2 0x2F7 CALLDATASIZE PUSH1 0x4 PUSH2 0x1912 JUMP JUMPDEST PUSH2 0x5F5 JUMP JUMPDEST PUSH2 0x28B PUSH2 0x607 JUMP JUMPDEST PUSH2 0x2B4 PUSH2 0x312 CALLDATASIZE PUSH1 0x4 PUSH2 0x1AEF JUMP JUMPDEST PUSH2 0x624 JUMP JUMPDEST PUSH2 0x281 PUSH2 0x325 CALLDATASIZE PUSH1 0x4 PUSH2 0x1AEF JUMP JUMPDEST PUSH2 0x8E1 JUMP JUMPDEST PUSH2 0x2C9 PUSH2 0x961 JUMP JUMPDEST PUSH2 0x281 PUSH2 0x970 JUMP JUMPDEST PUSH2 0x28B PUSH2 0x9BB JUMP JUMPDEST PUSH2 0x2C9 PUSH2 0x9BF JUMP JUMPDEST PUSH2 0x2C9 PUSH2 0x358 CALLDATASIZE PUSH1 0x4 PUSH2 0x1AEF JUMP JUMPDEST PUSH2 0x9CE JUMP JUMPDEST PUSH2 0x2C9 PUSH2 0x9DE JUMP JUMPDEST PUSH2 0x28B PUSH2 0x9ED JUMP JUMPDEST PUSH2 0x380 PUSH2 0x37B CALLDATASIZE PUSH1 0x4 PUSH2 0x1AEF JUMP JUMPDEST PUSH2 0x9F3 JUMP JUMPDEST PUSH1 0x40 MLOAD PUSH2 0x298 SWAP5 SWAP4 SWAP3 SWAP2 SWAP1 PUSH2 0x1C88 JUMP JUMPDEST PUSH2 0x2C9 PUSH2 0xAB2 JUMP JUMPDEST PUSH2 0x2C9 PUSH2 0xAC1 JUMP JUMPDEST PUSH2 0x2C9 PUSH2 0x3AE CALLDATASIZE PUSH1 0x4 PUSH2 0x1B07 JUMP JUMPDEST PUSH2 0xAD0 JUMP JUMPDEST PUSH2 0x28B PUSH2 0x3C1 CALLDATASIZE PUSH1 0x4 PUSH2 0x1933 JUMP JUMPDEST PUSH2 0xB08 JUMP JUMPDEST PUSH2 0x281 PUSH2 0x3D4 CALLDATASIZE PUSH1 0x4 PUSH2 0x1912 JUMP JUMPDEST PUSH2 0xB3C JUMP JUMPDEST PUSH2 0x28B PUSH2 0xB9D JUMP JUMPDEST PUSH2 0x2B4 PUSH2 0x3EF CALLDATASIZE PUSH1 0x4 PUSH2 0x1976 JUMP JUMPDEST PUSH2 0xBA3 JUMP JUMPDEST PUSH2 0x28B PUSH2 0xC09 JUMP JUMPDEST PUSH2 0x2C9 PUSH2 0xCBE JUMP JUMPDEST PUSH2 0x417 PUSH2 0x412 CALLDATASIZE PUSH1 0x4 PUSH2 0x1B07 JUMP JUMPDEST PUSH2 0xCCD JUMP JUMPDEST PUSH1 0x40 MLOAD PUSH2 0x298 SWAP2 SWAP1 PUSH2 0x1BFC JUMP JUMPDEST PUSH2 0x417 PUSH2 0x432 CALLDATASIZE PUSH1 0x4 PUSH2 0x1B07 JUMP JUMPDEST PUSH2 0xED5 JUMP JUMPDEST PUSH2 0x281 PUSH2 0x445 CALLDATASIZE PUSH1 0x4 PUSH2 0x1912 JUMP JUMPDEST PUSH2 0x103F JUMP JUMPDEST PUSH2 0x281 PUSH2 0x458 CALLDATASIZE PUSH1 0x4 PUSH2 0x1AEF JUMP JUMPDEST PUSH2 0x10A0 JUMP JUMPDEST PUSH2 0x28B PUSH2 0x1110 JUMP JUMPDEST PUSH2 0x2C9 PUSH2 0x473 CALLDATASIZE PUSH1 0x4 PUSH2 0x1933 JUMP JUMPDEST PUSH2 0x1116 JUMP JUMPDEST PUSH2 0x281 PUSH2 0x486 CALLDATASIZE PUSH1 0x4 PUSH2 0x1912 JUMP JUMPDEST PUSH2 0x1132 JUMP JUMPDEST PUSH2 0x281 PUSH2 0x499 CALLDATASIZE PUSH1 0x4 PUSH2 0x1912 JUMP JUMPDEST PUSH2 0x1193 JUMP JUMPDEST PUSH2 0x417 PUSH2 0x4AC CALLDATASIZE PUSH1 0x4 PUSH2 0x1AEF JUMP JUMPDEST PUSH2 0x11F4 JUMP JUMPDEST PUSH2 0x4C4 PUSH2 0x4BF CALLDATASIZE PUSH1 0x4 PUSH2 0x1AEF JUMP JUMPDEST PUSH2 0x126E JUMP JUMPDEST PUSH1 0x40 MLOAD PUSH2 0x298 SWAP2 SWAP1 PUSH2 0x1C4B JUMP JUMPDEST PUSH2 0x28B PUSH2 0x131D JUMP JUMPDEST PUSH2 0x4EC PUSH2 0x4E7 CALLDATASIZE PUSH1 0x4 PUSH2 0x1AEF JUMP JUMPDEST PUSH2 0x1323 JUMP JUMPDEST PUSH1 0x40 MLOAD PUSH2 0x298 SWAP2 SWAP1 PUSH2 0x1D8D JUMP JUMPDEST PUSH2 0x28B PUSH2 0x1455 JUMP JUMPDEST PUSH2 0x281 PUSH2 0x50F CALLDATASIZE PUSH1 0x4 PUSH2 0x1912 JUMP JUMPDEST PUSH2 0x145B JUMP JUMPDEST PUSH2 0x28B PUSH2 0x14C9 JUMP JUMPDEST PUSH2 0x2B4 PUSH2 0x52A CALLDATASIZE PUSH1 0x4 PUSH2 0x1AEF JUMP JUMPDEST PUSH2 0x14CF JUMP JUMPDEST PUSH2 0x2C9 PUSH2 0x14D7 JUMP JUMPDEST PUSH2 0x53F PUSH2 0x14E6 JUMP JUMPDEST PUSH1 0x1 PUSH1 0x1 PUSH1 0xA0 SHL SUB AND PUSH2 0x550 PUSH2 0xAC1 JUMP JUMPDEST PUSH1 0x1 PUSH1 0x1 PUSH1 0xA0 SHL SUB AND EQ PUSH2 0x57F JUMPI PUSH1 0x40 MLOAD PUSH3 0x461BCD PUSH1 0xE5 SHL DUP2 MSTORE PUSH1 0x4 ADD PUSH2 0x576 SWAP1 PUSH2 0x1D58 JUMP JUMPDEST PUSH1 0x40 MLOAD DUP1 SWAP2 SUB SWAP1 REVERT JUMPDEST PUSH1 0x11 DUP1 SLOAD PUSH1 0x1 PUSH1 0x1 PUSH1 0xA0 SHL SUB NOT AND PUSH1 0x1 PUSH1 0x1 PUSH1 0xA0 SHL SUB SWAP3 SWAP1 SWAP3 AND SWAP2 SWAP1 SWAP2 OR SWAP1 SSTORE JUMP JUMPDEST PUSH1 0x2 SLOAD DUP2 JUMP JUMPDEST PUSH1 0x1 PUSH1 0x20 MSTORE PUSH1 0x0 SWAP1 DUP2 MSTORE PUSH1 0x40 SWAP1 KECCAK256 SLOAD PUSH1 0xFF AND DUP2 JUMP JUMPDEST PUSH1 0x10 SLOAD PUSH1 0x1 PUSH1 0x1 PUSH1 0xA0 SHL SUB AND DUP2 JUMP JUMPDEST PUSH1 0x6 DUP2 DUP2 SLOAD DUP2 LT PUSH2 0x5DB JUMPI PUSH1 0x0 DUP1 REVERT JUMPDEST PUSH1 0x0 SWAP2 DUP3 MSTORE PUSH1 0x20 SWAP1 SWAP2 KECCAK256 ADD SLOAD PUSH1 0x1 PUSH1 0x1 PUSH1 0xA0 SHL SUB AND SWAP1 POP DUP2 JUMP JUMPDEST PUSH1 0x4 PUSH1 0x20 MSTORE PUSH1 0x0 SWAP1 DUP2 MSTORE PUSH1 0x40 SWAP1 KECCAK256 SLOAD DUP2 JUMP JUMPDEST PUSH1 0x40 MLOAD PUSH1 0x0 SWAP1 DUP1 PUSH1 0x20 DUP2 DUP5 DUP1 PUSH1 0x18 GAS STATICCALL PUSH2 0x61D JUMPI INVALID JUMPDEST POP MLOAD SWAP2 SWAP1 POP JUMP JUMPDEST PUSH1 0x13 SLOAD PUSH1 0x0 SWAP1 PUSH1 0x1 PUSH1 0x1 PUSH1 0xA0 SHL SUB AND ISZERO DUP1 ISZERO SWAP1 PUSH2 0x650 JUMPI POP PUSH1 0x0 DUP3 DUP2 MSTORE PUSH1 0x1 PUSH1 0x20 MSTORE PUSH1 0x40 SWAP1 KECCAK256 SLOAD PUSH1 0xFF AND ISZERO JUMPDEST ISZERO PUSH2 0x8BF JUMPI PUSH1 0x13 SLOAD PUSH1 0x40 MLOAD PUSH4 0x7B90EF25 PUSH1 0xE1 SHL DUP2 MSTORE PUSH1 0x1 PUSH1 0x1 PUSH1 0xA0 SHL SUB SWAP1 SWAP2 AND SWAP1 PUSH4 0xF721DE4A SWAP1 PUSH2 0x685 SWAP1 DUP6 SWAP1 PUSH1 0x4 ADD PUSH2 0x1BB5 JUMP JUMPDEST PUSH1 0x20 PUSH1 0x40 MLOAD DUP1 DUP4 SUB DUP2 PUSH1 0x0 DUP8 DUP1 EXTCODESIZE ISZERO DUP1 ISZERO PUSH2 0x69F JUMPI PUSH1 0x0 DUP1 REVERT JUMPDEST POP GAS CALL ISZERO DUP1 ISZERO PUSH2 0x6B3 JUMPI RETURNDATASIZE PUSH1 0x0 DUP1 RETURNDATACOPY RETURNDATASIZE PUSH1 0x0 REVERT JUMPDEST POP POP POP POP PUSH1 0x40 MLOAD RETURNDATASIZE PUSH1 0x1F NOT PUSH1 0x1F DUP3 ADD AND DUP3 ADD DUP1 PUSH1 0x40 MSTORE POP DUP2 ADD SWAP1 PUSH2 0x6D7 SWAP2 SWAP1 PUSH2 0x195C JUMP JUMPDEST ISZERO PUSH2 0x8BF JUMPI PUSH1 0x13 SLOAD PUSH1 0x40 MLOAD PUSH4 0x1B308BF7 PUSH1 0xE3 SHL DUP2 MSTORE PUSH1 0x0 SWAP2 PUSH1 0x1 PUSH1 0x1 PUSH1 0xA0 SHL SUB AND SWAP1 PUSH4 0xD9845FB8 SWAP1 PUSH2 0x70D SWAP1 DUP7 SWAP1 PUSH1 0x4 ADD PUSH2 0x1BB5 JUMP JUMPDEST PUSH1 0x0 PUSH1 0x40 MLOAD DUP1 DUP4 SUB DUP2 PUSH1 0x0 DUP8 DUP1 EXTCODESIZE ISZERO DUP1 ISZERO PUSH2 0x727 JUMPI PUSH1 0x0 DUP1 REVERT JUMPDEST POP GAS CALL ISZERO DUP1 ISZERO PUSH2 0x73B JUMPI RETURNDATASIZE PUSH1 0x0 DUP1 RETURNDATACOPY RETURNDATASIZE PUSH1 0x0 REVERT JUMPDEST POP POP POP POP PUSH1 0x40 MLOAD RETURNDATASIZE PUSH1 0x0 DUP3 RETURNDATACOPY PUSH1 0x1F RETURNDATASIZE SWAP1 DUP2 ADD PUSH1 0x1F NOT AND DUP3 ADD PUSH1 0x40 MSTORE PUSH2 0x763 SWAP2 SWAP1 DUP2 ADD SWAP1 PUSH2 0x19D7 JUMP JUMPDEST PUSH2 0x1A0 DUP2 ADD MLOAD SWAP1 SWAP2 POP PUSH1 0x1 DUP2 PUSH1 0x3 DUP2 GT ISZERO PUSH2 0x78E JUMPI PUSH4 0x4E487B71 PUSH1 0xE0 SHL PUSH1 0x0 MSTORE PUSH1 0x21 PUSH1 0x4 MSTORE PUSH1 0x24 PUSH1 0x0 REVERT JUMPDEST EQ ISZERO PUSH2 0x8A0 JUMPI PUSH1 0x40 DUP1 MLOAD PUSH1 0x80 DUP2 ADD DUP3 MSTORE PUSH2 0x180 DUP5 ADD MLOAD DUP2 MSTORE CALLER PUSH1 0x20 DUP1 DUP4 ADD SWAP2 SWAP1 SWAP2 MSTORE TIMESTAMP DUP3 DUP5 ADD MSTORE PUSH1 0x0 PUSH1 0x60 DUP4 ADD DUP2 SWAP1 MSTORE PUSH1 0x2 SLOAD DUP2 MSTORE PUSH1 0x3 DUP3 MSTORE SWAP3 SWAP1 SWAP3 KECCAK256 DUP2 MLOAD DUP1 MLOAD SWAP3 SWAP4 SWAP2 SWAP3 PUSH2 0x7E0 SWAP3 DUP5 SWAP3 ADD SWAP1 PUSH2 0x1724 JUMP JUMPDEST POP PUSH1 0x20 DUP3 ADD MLOAD PUSH1 0x1 DUP3 DUP2 ADD DUP1 SLOAD PUSH1 0x1 PUSH1 0x1 PUSH1 0xA0 SHL SUB NOT AND PUSH1 0x1 PUSH1 0x1 PUSH1 0xA0 SHL SUB SWAP1 SWAP4 AND SWAP3 SWAP1 SWAP3 OR SWAP1 SWAP2 SSTORE PUSH1 0x40 DUP4 ADD MLOAD PUSH1 0x2 DUP4 ADD SSTORE PUSH1 0x60 DUP4 ADD MLOAD PUSH1 0x3 DUP1 DUP5 ADD DUP1 SLOAD SWAP3 SWAP4 SWAP1 SWAP3 PUSH1 0xFF NOT AND SWAP2 DUP5 SWAP1 DUP2 GT ISZERO PUSH2 0x847 JUMPI PUSH4 0x4E487B71 PUSH1 0xE0 SHL PUSH1 0x0 MSTORE PUSH1 0x21 PUSH1 0x4 MSTORE PUSH1 0x24 PUSH1 0x0 REVERT JUMPDEST MUL OR SWAP1 SSTORE POP POP PUSH1 0x2 SLOAD PUSH2 0x85C SWAP2 POP PUSH1 0x1 PUSH2 0x1E33 JUMP JUMPDEST PUSH1 0x2 DUP2 SWAP1 SSTORE PUSH2 0x180 DUP4 ADD MLOAD PUSH1 0x40 MLOAD PUSH32 0x43ECB46CB5C77906888A0AB6A09798CB7FEFF11E826EDD3BA74FADA241E3A646 SWAP2 PUSH2 0x897 SWAP2 CALLER SWAP1 PUSH2 0x1C5E JUMP JUMPDEST PUSH1 0x40 MLOAD DUP1 SWAP2 SUB SWAP1 LOG2 JUMPDEST POP POP PUSH1 0x0 DUP3 DUP2 MSTORE PUSH1 0x1 PUSH1 0x20 DUP2 SWAP1 MSTORE PUSH1 0x40 SWAP1 SWAP2 KECCAK256 DUP1 SLOAD PUSH1 0xFF NOT AND SWAP1 SWAP2 OR SWAP1 SSTORE JUMPDEST PUSH1 0x1 PUSH1 0xD PUSH1 0x0 DUP3 DUP3 SLOAD PUSH2 0x8D2 SWAP2 SWAP1 PUSH2 0x1E33 JUMP JUMPDEST SWAP1 SWAP2 SSTORE POP PUSH1 0x0 SWAP2 POP POP JUMPDEST SWAP2 SWAP1 POP JUMP JUMPDEST PUSH2 0x8E9 PUSH2 0x14E6 JUMP JUMPDEST PUSH1 0x1 PUSH1 0x1 PUSH1 0xA0 SHL SUB AND PUSH2 0x8FA PUSH2 0xAC1 JUMP JUMPDEST PUSH1 0x1 PUSH1 0x1 PUSH1 0xA0 SHL SUB AND EQ PUSH2 0x920 JUMPI PUSH1 0x40 MLOAD PUSH3 0x461BCD PUSH1 0xE5 SHL DUP2 MSTORE PUSH1 0x4 ADD PUSH2 0x576 SWAP1 PUSH2 0x1D58 JUMP JUMPDEST PUSH1 0x0 DUP2 DUP2 MSTORE PUSH1 0x3 PUSH1 0x20 MSTORE PUSH1 0x40 DUP2 KECCAK256 SWAP1 PUSH2 0x939 DUP3 DUP3 PUSH2 0x17A8 JUMP JUMPDEST POP PUSH1 0x1 DUP2 ADD DUP1 SLOAD PUSH1 0x1 PUSH1 0x1 PUSH1 0xA0 SHL SUB NOT AND SWAP1 SSTORE PUSH1 0x0 PUSH1 0x2 DUP3 ADD SSTORE PUSH1 0x3 ADD DUP1 SLOAD PUSH1 0xFF NOT AND SWAP1 SSTORE POP JUMP JUMPDEST PUSH1 0x11 SLOAD PUSH1 0x1 PUSH1 0x1 PUSH1 0xA0 SHL SUB AND DUP2 JUMP JUMPDEST PUSH2 0x978 PUSH2 0x14E6 JUMP JUMPDEST PUSH1 0x1 PUSH1 0x1 PUSH1 0xA0 SHL SUB AND PUSH2 0x989 PUSH2 0xAC1 JUMP JUMPDEST PUSH1 0x1 PUSH1 0x1 PUSH1 0xA0 SHL SUB AND EQ PUSH2 0x9AF JUMPI PUSH1 0x40 MLOAD PUSH3 0x461BCD PUSH1 0xE5 SHL DUP2 MSTORE PUSH1 0x4 ADD PUSH2 0x576 SWAP1 PUSH2 0x1D58 JUMP JUMPDEST PUSH2 0x9B9 PUSH1 0x0 PUSH2 0x14EA JUMP JUMPDEST JUMP JUMPDEST TIMESTAMP SWAP1 JUMP JUMPDEST PUSH1 0x12 SLOAD PUSH1 0x1 PUSH1 0x1 PUSH1 0xA0 SHL SUB AND DUP2 JUMP JUMPDEST PUSH1 0x7 DUP2 DUP2 SLOAD DUP2 LT PUSH2 0x5DB JUMPI PUSH1 0x0 DUP1 REVERT JUMPDEST PUSH1 0xF SLOAD PUSH1 0x1 PUSH1 0x1 PUSH1 0xA0 SHL SUB AND DUP2 JUMP JUMPDEST PUSH1 0xA SLOAD DUP2 JUMP JUMPDEST PUSH1 0x3 PUSH1 0x20 MSTORE PUSH1 0x0 SWAP1 DUP2 MSTORE PUSH1 0x40 SWAP1 KECCAK256 DUP1 SLOAD DUP2 SWAP1 PUSH2 0xA0E SWAP1 PUSH2 0x1EA6 JUMP JUMPDEST DUP1 PUSH1 0x1F ADD PUSH1 0x20 DUP1 SWAP2 DIV MUL PUSH1 0x20 ADD PUSH1 0x40 MLOAD SWAP1 DUP2 ADD PUSH1 0x40 MSTORE DUP1 SWAP3 SWAP2 SWAP1 DUP2 DUP2 MSTORE PUSH1 0x20 ADD DUP3 DUP1 SLOAD PUSH2 0xA3A SWAP1 PUSH2 0x1EA6 JUMP JUMPDEST DUP1 ISZERO PUSH2 0xA87 JUMPI DUP1 PUSH1 0x1F LT PUSH2 0xA5C JUMPI PUSH2 0x100 DUP1 DUP4 SLOAD DIV MUL DUP4 MSTORE SWAP2 PUSH1 0x20 ADD SWAP2 PUSH2 0xA87 JUMP JUMPDEST DUP3 ADD SWAP2 SWAP1 PUSH1 0x0 MSTORE PUSH1 0x20 PUSH1 0x0 KECCAK256 SWAP1 JUMPDEST DUP2 SLOAD DUP2 MSTORE SWAP1 PUSH1 0x1 ADD SWAP1 PUSH1 0x20 ADD DUP1 DUP4 GT PUSH2 0xA6A JUMPI DUP3 SWAP1 SUB PUSH1 0x1F AND DUP3 ADD SWAP2 JUMPDEST POP POP POP POP PUSH1 0x1 DUP4 ADD SLOAD PUSH1 0x2 DUP5 ADD SLOAD PUSH1 0x3 SWAP1 SWAP5 ADD SLOAD SWAP3 SWAP4 PUSH1 0x1 PUSH1 0x1 PUSH1 0xA0 SHL SUB SWAP1 SWAP2 AND SWAP3 SWAP1 SWAP2 POP PUSH1 0xFF AND DUP5 JUMP JUMPDEST PUSH1 0x13 SLOAD PUSH1 0x1 PUSH1 0x1 PUSH1 0xA0 SHL SUB AND DUP2 JUMP JUMPDEST PUSH1 0x0 SLOAD PUSH1 0x1 PUSH1 0x1 PUSH1 0xA0 SHL SUB AND SWAP1 JUMP JUMPDEST PUSH1 0x8 PUSH1 0x20 MSTORE DUP2 PUSH1 0x0 MSTORE PUSH1 0x40 PUSH1 0x0 KECCAK256 DUP2 DUP2 SLOAD DUP2 LT PUSH2 0xAEC JUMPI PUSH1 0x0 DUP1 REVERT JUMPDEST PUSH1 0x0 SWAP2 DUP3 MSTORE PUSH1 0x20 SWAP1 SWAP2 KECCAK256 ADD SLOAD PUSH1 0x1 PUSH1 0x1 PUSH1 0xA0 SHL SUB AND SWAP2 POP DUP3 SWAP1 POP JUMP JUMPDEST PUSH1 0x0 DUP3 DUP3 PUSH1 0x40 MLOAD PUSH1 0x20 ADD PUSH2 0xB1D SWAP3 SWAP2 SWAP1 PUSH2 0x1B93 JUMP JUMPDEST PUSH1 0x40 MLOAD PUSH1 0x20 DUP2 DUP4 SUB SUB DUP2 MSTORE SWAP1 PUSH1 0x40 MSTORE DUP1 MLOAD SWAP1 PUSH1 0x20 ADD KECCAK256 SWAP1 POP JUMPDEST SWAP3 SWAP2 POP POP JUMP JUMPDEST PUSH2 0xB44 PUSH2 0x14E6 JUMP JUMPDEST PUSH1 0x1 PUSH1 0x1 PUSH1 0xA0 SHL SUB AND PUSH2 0xB55 PUSH2 0xAC1 JUMP JUMPDEST PUSH1 0x1 PUSH1 0x1 PUSH1 0xA0 SHL SUB AND EQ PUSH2 0xB7B JUMPI PUSH1 0x40 MLOAD PUSH3 0x461BCD PUSH1 0xE5 SHL DUP2 MSTORE PUSH1 0x4 ADD PUSH2 0x576 SWAP1 PUSH2 0x1D58 JUMP JUMPDEST PUSH1 0x13 DUP1 SLOAD PUSH1 0x1 PUSH1 0x1 PUSH1 0xA0 SHL SUB NOT AND PUSH1 0x1 PUSH1 0x1 PUSH1 0xA0 SHL SUB SWAP3 SWAP1 SWAP3 AND SWAP2 SWAP1 SWAP2 OR SWAP1 SSTORE JUMP JUMPDEST PUSH1 0x2 SLOAD SWAP1 JUMP JUMPDEST PUSH1 0x0 DUP2 PUSH1 0x40 MLOAD PUSH1 0x20 ADD PUSH2 0xBB6 SWAP2 SWAP1 PUSH2 0x1BBE JUMP JUMPDEST PUSH1 0x40 MLOAD PUSH1 0x20 DUP2 DUP4 SUB SUB DUP2 MSTORE SWAP1 PUSH1 0x40 MSTORE DUP1 MLOAD SWAP1 PUSH1 0x20 ADD KECCAK256 DUP4 PUSH1 0x40 MLOAD PUSH1 0x20 ADD PUSH2 0xBDD SWAP2 SWAP1 PUSH2 0x1BBE JUMP JUMPDEST PUSH1 0x40 MLOAD PUSH1 0x20 DUP2 DUP4 SUB SUB DUP2 MSTORE SWAP1 PUSH1 0x40 MSTORE DUP1 MLOAD SWAP1 PUSH1 0x20 ADD KECCAK256 EQ ISZERO PUSH2 0xC01 JUMPI POP PUSH1 0x1 PUSH2 0xB36 JUMP JUMPDEST POP PUSH1 0x0 PUSH2 0xB36 JUMP JUMPDEST PUSH1 0x0 DUP1 TIMESTAMP COINBASE PUSH1 0x40 MLOAD PUSH1 0x20 ADD PUSH2 0xC1E SWAP2 SWAP1 PUSH2 0x1B76 JUMP JUMPDEST PUSH1 0x40 MLOAD PUSH1 0x20 DUP2 DUP4 SUB SUB DUP2 MSTORE SWAP1 PUSH1 0x40 MSTORE DUP1 MLOAD SWAP1 PUSH1 0x20 ADD KECCAK256 PUSH1 0x0 SHR PUSH2 0xC41 SWAP2 SWAP1 PUSH2 0x1E4B JUMP JUMPDEST DIFFICULTY PUSH2 0xC4A PUSH2 0x607 JUMP JUMPDEST PUSH1 0x40 MLOAD PUSH1 0x20 ADD PUSH2 0xC5A SWAP2 SWAP1 PUSH2 0x1BB5 JUMP JUMPDEST PUSH1 0x40 DUP1 MLOAD PUSH1 0x1F NOT DUP2 DUP5 SUB ADD DUP2 MSTORE SWAP2 SWAP1 MSTORE DUP1 MLOAD PUSH1 0x20 SWAP1 SWAP2 ADD KECCAK256 PUSH2 0xC7C SWAP1 TIMESTAMP PUSH2 0x1E33 JUMP JUMPDEST PUSH2 0xC86 SWAP2 SWAP1 PUSH2 0x1E33 JUMP JUMPDEST PUSH2 0xC90 SWAP2 SWAP1 PUSH2 0x1E33 JUMP JUMPDEST PUSH1 0x40 MLOAD PUSH1 0x20 ADD PUSH2 0xCA0 SWAP2 SWAP1 PUSH2 0x1BB5 JUMP JUMPDEST PUSH1 0x40 DUP1 MLOAD PUSH1 0x1F NOT DUP2 DUP5 SUB ADD DUP2 MSTORE SWAP2 SWAP1 MSTORE DUP1 MLOAD PUSH1 0x20 SWAP1 SWAP2 ADD KECCAK256 SWAP2 POP POP SWAP1 JUMP JUMPDEST PUSH1 0x9 SLOAD PUSH1 0x1 PUSH1 0x1 PUSH1 0xA0 SHL SUB AND DUP2 JUMP JUMPDEST PUSH1 0x60 PUSH1 0x0 DUP3 GT PUSH2 0xCDC JUMPI PUSH1 0x0 DUP1 REVERT JUMPDEST PUSH1 0x0 COINBASE PUSH1 0x40 MLOAD PUSH1 0x20 ADD PUSH2 0xCEF SWAP2 SWAP1 PUSH2 0x1B76 JUMP JUMPDEST PUSH1 0x40 MLOAD PUSH1 0x20 DUP2 DUP4 SUB SUB DUP2 MSTORE SWAP1 PUSH1 0x40 MSTORE DUP1 MLOAD SWAP1 PUSH1 0x20 ADD KECCAK256 PUSH1 0x0 SHR PUSH2 0xD10 PUSH2 0x607 JUMP JUMPDEST PUSH1 0x40 MLOAD PUSH1 0x20 ADD PUSH2 0xD20 SWAP2 SWAP1 PUSH2 0x1BB5 JUMP JUMPDEST PUSH1 0x40 DUP1 MLOAD PUSH1 0x1F NOT DUP2 DUP5 SUB ADD DUP2 MSTORE SWAP2 SWAP1 MSTORE DUP1 MLOAD PUSH1 0x20 SWAP1 SWAP2 ADD KECCAK256 PUSH2 0xD42 SWAP1 TIMESTAMP PUSH2 0x1E33 JUMP JUMPDEST PUSH2 0xD4C SWAP2 SWAP1 PUSH2 0x1E33 JUMP JUMPDEST PUSH1 0x40 MLOAD PUSH1 0x20 ADD PUSH2 0xD5C SWAP2 SWAP1 PUSH2 0x1BB5 JUMP JUMPDEST PUSH1 0x40 MLOAD PUSH1 0x20 DUP2 DUP4 SUB SUB DUP2 MSTORE SWAP1 PUSH1 0x40 MSTORE DUP1 MLOAD SWAP1 PUSH1 0x20 ADD KECCAK256 PUSH1 0x0 SHR SWAP1 POP PUSH1 0x0 DUP5 PUSH8 0xFFFFFFFFFFFFFFFF DUP2 GT ISZERO PUSH2 0xDA0 JUMPI PUSH4 0x4E487B71 PUSH1 0xE0 SHL PUSH1 0x0 MSTORE PUSH1 0x41 PUSH1 0x4 MSTORE PUSH1 0x24 PUSH1 0x0 REVERT JUMPDEST PUSH1 0x40 MLOAD SWAP1 DUP1 DUP3 MSTORE DUP1 PUSH1 0x20 MUL PUSH1 0x20 ADD DUP3 ADD PUSH1 0x40 MSTORE DUP1 ISZERO PUSH2 0xDC9 JUMPI DUP2 PUSH1 0x20 ADD PUSH1 0x20 DUP3 MUL DUP1 CALLDATASIZE DUP4 CALLDATACOPY ADD SWAP1 POP JUMPDEST POP SWAP1 POP PUSH1 0x0 DUP1 JUMPDEST DUP7 DUP3 LT ISZERO PUSH2 0xECA JUMPI PUSH1 0x0 DUP7 PUSH2 0xDE9 PUSH4 0x17EFEEB DUP8 PUSH2 0x1E5F JUMP JUMPDEST DUP4 PUSH1 0x40 MLOAD PUSH1 0x20 ADD PUSH2 0xDFB SWAP3 SWAP2 SWAP1 PUSH2 0x1BDA JUMP JUMPDEST PUSH1 0x40 MLOAD PUSH1 0x20 DUP2 DUP4 SUB SUB DUP2 MSTORE SWAP1 PUSH1 0x40 MSTORE DUP1 MLOAD SWAP1 PUSH1 0x20 ADD KECCAK256 PUSH1 0x0 SHR PUSH2 0xE1E SWAP2 SWAP1 PUSH2 0x1EFC JUMP JUMPDEST SWAP1 POP PUSH1 0x0 DUP1 JUMPDEST DUP5 DUP2 LT ISZERO PUSH2 0xE76 JUMPI DUP3 DUP7 DUP3 DUP2 MLOAD DUP2 LT PUSH2 0xE4D JUMPI PUSH4 0x4E487B71 PUSH1 0xE0 SHL PUSH1 0x0 MSTORE PUSH1 0x32 PUSH1 0x4 MSTORE PUSH1 0x24 PUSH1 0x0 REVERT JUMPDEST PUSH1 0x20 MUL PUSH1 0x20 ADD ADD MLOAD EQ ISZERO PUSH2 0xE64 JUMPI PUSH1 0x1 SWAP2 POP PUSH2 0xE76 JUMP JUMPDEST DUP1 PUSH2 0xE6E DUP2 PUSH2 0x1EE1 JUMP JUMPDEST SWAP2 POP POP PUSH2 0xE24 JUMP JUMPDEST POP DUP1 PUSH2 0xEB6 JUMPI DUP2 DUP6 DUP6 DUP2 MLOAD DUP2 LT PUSH2 0xE9D JUMPI PUSH4 0x4E487B71 PUSH1 0xE0 SHL PUSH1 0x0 MSTORE PUSH1 0x32 PUSH1 0x4 MSTORE PUSH1 0x24 PUSH1 0x0 REVERT JUMPDEST PUSH1 0x20 SWAP1 DUP2 MUL SWAP2 SWAP1 SWAP2 ADD ADD MSTORE PUSH2 0xEB3 DUP5 PUSH1 0x1 PUSH2 0x1E33 JUMP JUMPDEST SWAP4 POP JUMPDEST PUSH2 0xEC1 DUP4 PUSH1 0x1 PUSH2 0x1E33 JUMP JUMPDEST SWAP3 POP POP POP PUSH2 0xDD0 JUMP JUMPDEST POP SWAP1 SWAP6 SWAP5 POP POP POP POP POP JUMP JUMPDEST PUSH1 0x60 PUSH1 0x0 DUP3 GT DUP1 ISZERO PUSH2 0xEE7 JUMPI POP DUP2 DUP4 GT ISZERO JUMPDEST DUP1 ISZERO PUSH2 0xEF4 JUMPI POP PUSH1 0x1 DUP4 LT ISZERO JUMPDEST PUSH2 0xF10 JUMPI PUSH1 0x40 MLOAD PUSH3 0x461BCD PUSH1 0xE5 SHL DUP2 MSTORE PUSH1 0x4 ADD PUSH2 0x576 SWAP1 PUSH2 0x1D0F JUMP JUMPDEST PUSH1 0x0 DUP3 PUSH8 0xFFFFFFFFFFFFFFFF DUP2 GT ISZERO PUSH2 0xF39 JUMPI PUSH4 0x4E487B71 PUSH1 0xE0 SHL PUSH1 0x0 MSTORE PUSH1 0x41 PUSH1 0x4 MSTORE PUSH1 0x24 PUSH1 0x0 REVERT JUMPDEST PUSH1 0x40 MLOAD SWAP1 DUP1 DUP3 MSTORE DUP1 PUSH1 0x20 MUL PUSH1 0x20 ADD DUP3 ADD PUSH1 0x40 MSTORE DUP1 ISZERO PUSH2 0xF62 JUMPI DUP2 PUSH1 0x20 ADD PUSH1 0x20 DUP3 MUL DUP1 CALLDATASIZE DUP4 CALLDATACOPY ADD SWAP1 POP JUMPDEST POP SWAP1 POP PUSH1 0x0 DUP5 PUSH8 0xFFFFFFFFFFFFFFFF DUP2 GT ISZERO PUSH2 0xF8E JUMPI PUSH4 0x4E487B71 PUSH1 0xE0 SHL PUSH1 0x0 MSTORE PUSH1 0x41 PUSH1 0x4 MSTORE PUSH1 0x24 PUSH1 0x0 REVERT JUMPDEST PUSH1 0x40 MLOAD SWAP1 DUP1 DUP3 MSTORE DUP1 PUSH1 0x20 MUL PUSH1 0x20 ADD DUP3 ADD PUSH1 0x40 MSTORE DUP1 ISZERO PUSH2 0xFB7 JUMPI DUP2 PUSH1 0x20 ADD PUSH1 0x20 DUP3 MUL DUP1 CALLDATASIZE DUP4 CALLDATACOPY ADD SWAP1 POP JUMPDEST POP SWAP1 POP PUSH1 0x0 PUSH2 0xFCD PUSH2 0xFC8 DUP5 PUSH2 0x153A JUMP JUMPDEST PUSH2 0x1590 JUMP JUMPDEST SWAP1 POP PUSH1 0x0 JUMPDEST DUP7 DUP2 LT ISZERO PUSH2 0xECA JUMPI DUP2 DUP2 DUP2 MLOAD DUP2 LT PUSH2 0xFFA JUMPI PUSH4 0x4E487B71 PUSH1 0xE0 SHL PUSH1 0x0 MSTORE PUSH1 0x32 PUSH1 0x4 MSTORE PUSH1 0x24 PUSH1 0x0 REVERT JUMPDEST PUSH1 0x20 MUL PUSH1 0x20 ADD ADD MLOAD DUP4 DUP3 DUP2 MLOAD DUP2 LT PUSH2 0x1022 JUMPI PUSH4 0x4E487B71 PUSH1 0xE0 SHL PUSH1 0x0 MSTORE PUSH1 0x32 PUSH1 0x4 MSTORE PUSH1 0x24 PUSH1 0x0 REVERT JUMPDEST PUSH1 0x20 SWAP1 DUP2 MUL SWAP2 SWAP1 SWAP2 ADD ADD MSTORE DUP1 PUSH2 0x1037 DUP2 PUSH2 0x1EE1 JUMP JUMPDEST SWAP2 POP POP PUSH2 0xFD2 JUMP JUMPDEST PUSH2 0x1047 PUSH2 0x14E6 JUMP JUMPDEST PUSH1 0x1 PUSH1 0x1 PUSH1 0xA0 SHL SUB AND PUSH2 0x1058 PUSH2 0xAC1 JUMP JUMPDEST PUSH1 0x1 PUSH1 0x1 PUSH1 0xA0 SHL SUB AND EQ PUSH2 0x107E JUMPI PUSH1 0x40 MLOAD PUSH3 0x461BCD PUSH1 0xE5 SHL DUP2 MSTORE PUSH1 0x4 ADD PUSH2 0x576 SWAP1 PUSH2 0x1D58 JUMP JUMPDEST PUSH1 0x12 DUP1 SLOAD PUSH1 0x1 PUSH1 0x1 PUSH1 0xA0 SHL SUB NOT AND PUSH1 0x1 PUSH1 0x1 PUSH1 0xA0 SHL SUB SWAP3 SWAP1 SWAP3 AND SWAP2 SWAP1 SWAP2 OR SWAP1 SSTORE JUMP JUMPDEST PUSH2 0x10A8 PUSH2 0x14E6 JUMP JUMPDEST PUSH1 0x1 PUSH1 0x1 PUSH1 0xA0 SHL SUB AND PUSH2 0x10B9 PUSH2 0xAC1 JUMP JUMPDEST PUSH1 0x1 PUSH1 0x1 PUSH1 0xA0 SHL SUB AND EQ PUSH2 0x10DF JUMPI PUSH1 0x40 MLOAD PUSH3 0x461BCD PUSH1 0xE5 SHL DUP2 MSTORE PUSH1 0x4 ADD PUSH2 0x576 SWAP1 PUSH2 0x1D58 JUMP JUMPDEST PUSH1 0x0 DUP2 DUP2 MSTORE PUSH1 0x1 PUSH1 0x20 MSTORE PUSH1 0x40 SWAP1 KECCAK256 SLOAD PUSH1 0xFF AND ISZERO PUSH2 0x110D JUMPI PUSH1 0x0 DUP2 DUP2 MSTORE PUSH1 0x1 PUSH1 0x20 MSTORE PUSH1 0x40 SWAP1 KECCAK256 DUP1 SLOAD PUSH1 0xFF NOT AND SWAP1 SSTORE JUMPDEST POP JUMP JUMPDEST PUSH1 0xC SLOAD DUP2 JUMP JUMPDEST PUSH1 0x5 PUSH1 0x20 MSTORE DUP2 PUSH1 0x0 MSTORE PUSH1 0x40 PUSH1 0x0 KECCAK256 DUP2 DUP2 SLOAD DUP2 LT PUSH2 0xAEC JUMPI PUSH1 0x0 DUP1 REVERT JUMPDEST PUSH2 0x113A PUSH2 0x14E6 JUMP JUMPDEST PUSH1 0x1 PUSH1 0x1 PUSH1 0xA0 SHL SUB AND PUSH2 0x114B PUSH2 0xAC1 JUMP JUMPDEST PUSH1 0x1 PUSH1 0x1 PUSH1 0xA0 SHL SUB AND EQ PUSH2 0x1171 JUMPI PUSH1 0x40 MLOAD PUSH3 0x461BCD PUSH1 0xE5 SHL DUP2 MSTORE PUSH1 0x4 ADD PUSH2 0x576 SWAP1 PUSH2 0x1D58 JUMP JUMPDEST PUSH1 0x10 DUP1 SLOAD PUSH1 0x1 PUSH1 0x1 PUSH1 0xA0 SHL SUB NOT AND PUSH1 0x1 PUSH1 0x1 PUSH1 0xA0 SHL SUB SWAP3 SWAP1 SWAP3 AND SWAP2 SWAP1 SWAP2 OR SWAP1 SSTORE JUMP JUMPDEST PUSH2 0x119B PUSH2 0x14E6 JUMP JUMPDEST PUSH1 0x1 PUSH1 0x1 PUSH1 0xA0 SHL SUB AND PUSH2 0x11AC PUSH2 0xAC1 JUMP JUMPDEST PUSH1 0x1 PUSH1 0x1 PUSH1 0xA0 SHL SUB AND EQ PUSH2 0x11D2 JUMPI PUSH1 0x40 MLOAD PUSH3 0x461BCD PUSH1 0xE5 SHL DUP2 MSTORE PUSH1 0x4 ADD PUSH2 0x576 SWAP1 PUSH2 0x1D58 JUMP JUMPDEST PUSH1 0xF DUP1 SLOAD PUSH1 0x1 PUSH1 0x1 PUSH1 0xA0 SHL SUB NOT AND PUSH1 0x1 PUSH1 0x1 PUSH1 0xA0 SHL SUB SWAP3 SWAP1 SWAP3 AND SWAP2 SWAP1 SWAP2 OR SWAP1 SSTORE JUMP JUMPDEST PUSH1 0x60 PUSH1 0x0 DUP3 GT PUSH2 0x1203 JUMPI PUSH1 0x0 DUP1 REVERT JUMPDEST PUSH1 0x0 DUP3 PUSH8 0xFFFFFFFFFFFFFFFF DUP2 GT ISZERO PUSH2 0x122C JUMPI PUSH4 0x4E487B71 PUSH1 0xE0 SHL PUSH1 0x0 MSTORE PUSH1 0x41 PUSH1 0x4 MSTORE PUSH1 0x24 PUSH1 0x0 REVERT JUMPDEST PUSH1 0x40 MLOAD SWAP1 DUP1 DUP3 MSTORE DUP1 PUSH1 0x20 MUL PUSH1 0x20 ADD DUP3 ADD PUSH1 0x40 MSTORE DUP1 ISZERO PUSH2 0x1255 JUMPI DUP2 PUSH1 0x20 ADD PUSH1 0x20 DUP3 MUL DUP1 CALLDATASIZE DUP4 CALLDATACOPY ADD SWAP1 POP JUMPDEST POP SWAP1 POP PUSH1 0x0 PUSH2 0x1266 PUSH2 0xFC8 DUP4 PUSH2 0x153A JUMP JUMPDEST SWAP5 SWAP4 POP POP POP POP JUMP JUMPDEST PUSH1 0x60 PUSH1 0x2 SLOAD DUP3 GT ISZERO PUSH2 0x127F JUMPI PUSH1 0x0 DUP1 REVERT JUMPDEST PUSH1 0x0 DUP3 DUP2 MSTORE PUSH1 0x3 PUSH1 0x20 MSTORE PUSH1 0x40 SWAP1 KECCAK256 DUP1 SLOAD PUSH2 0x1298 SWAP1 PUSH2 0x1EA6 JUMP JUMPDEST DUP1 PUSH1 0x1F ADD PUSH1 0x20 DUP1 SWAP2 DIV MUL PUSH1 0x20 ADD PUSH1 0x40 MLOAD SWAP1 DUP2 ADD PUSH1 0x40 MSTORE DUP1 SWAP3 SWAP2 SWAP1 DUP2 DUP2 MSTORE PUSH1 0x20 ADD DUP3 DUP1 SLOAD PUSH2 0x12C4 SWAP1 PUSH2 0x1EA6 JUMP JUMPDEST DUP1 ISZERO PUSH2 0x1311 JUMPI DUP1 PUSH1 0x1F LT PUSH2 0x12E6 JUMPI PUSH2 0x100 DUP1 DUP4 SLOAD DIV MUL DUP4 MSTORE SWAP2 PUSH1 0x20 ADD SWAP2 PUSH2 0x1311 JUMP JUMPDEST DUP3 ADD SWAP2 SWAP1 PUSH1 0x0 MSTORE PUSH1 0x20 PUSH1 0x0 KECCAK256 SWAP1 JUMPDEST DUP2 SLOAD DUP2 MSTORE SWAP1 PUSH1 0x1 ADD SWAP1 PUSH1 0x20 ADD DUP1 DUP4 GT PUSH2 0x12F4 JUMPI DUP3 SWAP1 SUB PUSH1 0x1F AND DUP3 ADD SWAP2 JUMPDEST POP POP POP POP POP SWAP1 POP SWAP2 SWAP1 POP JUMP JUMPDEST PUSH1 0xB SLOAD DUP2 JUMP JUMPDEST PUSH2 0x132B PUSH2 0x17E4 JUMP JUMPDEST PUSH1 0x2 SLOAD DUP3 GT ISZERO PUSH2 0x133A JUMPI PUSH1 0x0 DUP1 REVERT JUMPDEST PUSH1 0x0 DUP3 DUP2 MSTORE PUSH1 0x3 PUSH1 0x20 MSTORE PUSH1 0x40 SWAP1 DUP2 SWAP1 KECCAK256 DUP2 MLOAD PUSH1 0x80 DUP2 ADD SWAP1 SWAP3 MSTORE DUP1 SLOAD DUP3 SWAP1 DUP3 SWAP1 PUSH2 0x1362 SWAP1 PUSH2 0x1EA6 JUMP JUMPDEST DUP1 PUSH1 0x1F ADD PUSH1 0x20 DUP1 SWAP2 DIV MUL PUSH1 0x20 ADD PUSH1 0x40 MLOAD SWAP1 DUP2 ADD PUSH1 0x40 MSTORE DUP1 SWAP3 SWAP2 SWAP1 DUP2 DUP2 MSTORE PUSH1 0x20 ADD DUP3 DUP1 SLOAD PUSH2 0x138E SWAP1 PUSH2 0x1EA6 JUMP JUMPDEST DUP1 ISZERO PUSH2 0x13DB JUMPI DUP1 PUSH1 0x1F LT PUSH2 0x13B0 JUMPI PUSH2 0x100 DUP1 DUP4 SLOAD DIV MUL DUP4 MSTORE SWAP2 PUSH1 0x20 ADD SWAP2 PUSH2 0x13DB JUMP JUMPDEST DUP3 ADD SWAP2 SWAP1 PUSH1 0x0 MSTORE PUSH1 0x20 PUSH1 0x0 KECCAK256 SWAP1 JUMPDEST DUP2 SLOAD DUP2 MSTORE SWAP1 PUSH1 0x1 ADD SWAP1 PUSH1 0x20 ADD DUP1 DUP4 GT PUSH2 0x13BE JUMPI DUP3 SWAP1 SUB PUSH1 0x1F AND DUP3 ADD SWAP2 JUMPDEST POP POP POP SWAP2 DUP4 MSTORE POP POP PUSH1 0x1 DUP3 ADD SLOAD PUSH1 0x1 PUSH1 0x1 PUSH1 0xA0 SHL SUB AND PUSH1 0x20 DUP3 ADD MSTORE PUSH1 0x2 DUP3 ADD SLOAD PUSH1 0x40 DUP3 ADD MSTORE PUSH1 0x3 DUP1 DUP4 ADD SLOAD PUSH1 0x60 SWAP1 SWAP3 ADD SWAP2 PUSH1 0xFF AND SWAP1 DUP2 GT ISZERO PUSH2 0x142D JUMPI PUSH4 0x4E487B71 PUSH1 0xE0 SHL PUSH1 0x0 MSTORE PUSH1 0x21 PUSH1 0x4 MSTORE PUSH1 0x24 PUSH1 0x0 REVERT JUMPDEST PUSH1 0x3 DUP2 GT ISZERO PUSH2 0x144C JUMPI PUSH4 0x4E487B71 PUSH1 0xE0 SHL PUSH1 0x0 MSTORE PUSH1 0x21 PUSH1 0x4 MSTORE PUSH1 0x24 PUSH1 0x0 REVERT JUMPDEST SWAP1 MSTORE POP SWAP3 SWAP2 POP POP JUMP JUMPDEST PUSH1 0xD SLOAD DUP2 JUMP JUMPDEST PUSH2 0x1463 PUSH2 0x14E6 JUMP JUMPDEST PUSH1 0x1 PUSH1 0x1 PUSH1 0xA0 SHL SUB AND PUSH2 0x1474 PUSH2 0xAC1 JUMP JUMPDEST PUSH1 0x1 PUSH1 0x1 PUSH1 0xA0 SHL SUB AND EQ PUSH2 0x149A JUMPI PUSH1 0x40 MLOAD PUSH3 0x461BCD PUSH1 0xE5 SHL DUP2 MSTORE PUSH1 0x4 ADD PUSH2 0x576 SWAP1 PUSH2 0x1D58 JUMP JUMPDEST PUSH1 0x1 PUSH1 0x1 PUSH1 0xA0 SHL SUB DUP2 AND PUSH2 0x14C0 JUMPI PUSH1 0x40 MLOAD PUSH3 0x461BCD PUSH1 0xE5 SHL DUP2 MSTORE PUSH1 0x4 ADD PUSH2 0x576 SWAP1 PUSH2 0x1CC9 JUMP JUMPDEST PUSH2 0x110D DUP2 PUSH2 0x14EA JUMP JUMPDEST PUSH1 0xD SLOAD SWAP1 JUMP JUMPDEST PUSH1 0x2 SLOAD LT ISZERO SWAP1 JUMP JUMPDEST PUSH1 0xE SLOAD PUSH1 0x1 PUSH1 0x1 PUSH1 0xA0 SHL SUB AND DUP2 JUMP JUMPDEST CALLER SWAP1 JUMP JUMPDEST PUSH1 0x0 DUP1 SLOAD PUSH1 0x1 PUSH1 0x1 PUSH1 0xA0 SHL SUB DUP4 DUP2 AND PUSH1 0x1 PUSH1 0x1 PUSH1 0xA0 SHL SUB NOT DUP4 AND DUP2 OR DUP5 SSTORE PUSH1 0x40 MLOAD SWAP2 SWAP1 SWAP3 AND SWAP3 DUP4 SWAP2 PUSH32 0x8BE0079C531659141344CD1FD0A4F28419497F9722A3DAAFE3B4186F6B6457E0 SWAP2 SWAP1 LOG3 POP POP JUMP JUMPDEST DUP1 MLOAD PUSH1 0x60 SWAP1 PUSH1 0x0 JUMPDEST DUP2 DUP2 LT ISZERO PUSH2 0x1588 JUMPI DUP1 DUP5 DUP3 DUP2 MLOAD DUP2 LT PUSH2 0x156B JUMPI PUSH4 0x4E487B71 PUSH1 0xE0 SHL PUSH1 0x0 MSTORE PUSH1 0x32 PUSH1 0x4 MSTORE PUSH1 0x24 PUSH1 0x0 REVERT JUMPDEST PUSH1 0x20 SWAP1 DUP2 MUL SWAP2 SWAP1 SWAP2 ADD ADD MSTORE DUP1 PUSH2 0x1580 DUP2 PUSH2 0x1EE1 JUMP JUMPDEST SWAP2 POP POP PUSH2 0x1542 JUMP JUMPDEST POP SWAP2 SWAP3 SWAP2 POP POP JUMP JUMPDEST PUSH1 0x60 PUSH1 0x0 DUP3 MLOAD GT PUSH2 0x15A0 JUMPI PUSH1 0x0 DUP1 REVERT JUMPDEST DUP2 MLOAD DUP1 PUSH1 0x0 JUMPDEST DUP2 DUP2 LT ISZERO PUSH2 0x171B JUMPI PUSH1 0x0 DUP4 PUSH2 0x15B9 PUSH2 0xC09 JUMP JUMPDEST DUP8 DUP5 DUP2 MLOAD DUP2 LT PUSH2 0x15D9 JUMPI PUSH4 0x4E487B71 PUSH1 0xE0 SHL PUSH1 0x0 MSTORE PUSH1 0x32 PUSH1 0x4 MSTORE PUSH1 0x24 PUSH1 0x0 REVERT JUMPDEST PUSH1 0x20 MUL PUSH1 0x20 ADD ADD MLOAD PUSH1 0x40 MLOAD PUSH1 0x20 ADD PUSH2 0x15F2 SWAP3 SWAP2 SWAP1 PUSH2 0x1BDA JUMP JUMPDEST PUSH1 0x40 MLOAD PUSH1 0x20 DUP2 DUP4 SUB SUB DUP2 MSTORE SWAP1 PUSH1 0x40 MSTORE DUP1 MLOAD SWAP1 PUSH1 0x20 ADD KECCAK256 PUSH1 0x0 SHR PUSH2 0x1615 SWAP2 SWAP1 PUSH2 0x1EFC JUMP JUMPDEST PUSH2 0x1620 SWAP1 PUSH1 0x1 PUSH2 0x1E33 JUMP JUMPDEST SWAP1 POP PUSH1 0x0 DUP7 PUSH2 0x1630 PUSH1 0x1 DUP5 PUSH2 0x1E5F JUMP JUMPDEST DUP2 MLOAD DUP2 LT PUSH2 0x164E JUMPI PUSH4 0x4E487B71 PUSH1 0xE0 SHL PUSH1 0x0 MSTORE PUSH1 0x32 PUSH1 0x4 MSTORE PUSH1 0x24 PUSH1 0x0 REVERT JUMPDEST PUSH1 0x20 MUL PUSH1 0x20 ADD ADD MLOAD SWAP1 POP DUP7 PUSH1 0x1 DUP7 PUSH2 0x1666 SWAP2 SWAP1 PUSH2 0x1E5F JUMP JUMPDEST DUP2 MLOAD DUP2 LT PUSH2 0x1684 JUMPI PUSH4 0x4E487B71 PUSH1 0xE0 SHL PUSH1 0x0 MSTORE PUSH1 0x32 PUSH1 0x4 MSTORE PUSH1 0x24 PUSH1 0x0 REVERT JUMPDEST PUSH1 0x20 MUL PUSH1 0x20 ADD ADD MLOAD DUP8 PUSH1 0x1 DUP5 PUSH2 0x169A SWAP2 SWAP1 PUSH2 0x1E5F JUMP JUMPDEST DUP2 MLOAD DUP2 LT PUSH2 0x16B8 JUMPI PUSH4 0x4E487B71 PUSH1 0xE0 SHL PUSH1 0x0 MSTORE PUSH1 0x32 PUSH1 0x4 MSTORE PUSH1 0x24 PUSH1 0x0 REVERT JUMPDEST PUSH1 0x20 SWAP1 DUP2 MUL SWAP2 SWAP1 SWAP2 ADD ADD MSTORE DUP1 DUP8 PUSH2 0x16D0 PUSH1 0x1 DUP9 PUSH2 0x1E5F JUMP JUMPDEST DUP2 MLOAD DUP2 LT PUSH2 0x16EE JUMPI PUSH4 0x4E487B71 PUSH1 0xE0 SHL PUSH1 0x0 MSTORE PUSH1 0x32 PUSH1 0x4 MSTORE PUSH1 0x24 PUSH1 0x0 REVERT JUMPDEST PUSH1 0x20 SWAP1 DUP2 MUL SWAP2 SWAP1 SWAP2 ADD ADD MSTORE PUSH2 0x1704 PUSH1 0x1 DUP7 PUSH2 0x1E5F JUMP JUMPDEST SWAP5 POP POP POP DUP1 DUP1 PUSH2 0x1713 SWAP1 PUSH2 0x1EE1 JUMP JUMPDEST SWAP2 POP POP PUSH2 0x15A6 JUMP JUMPDEST POP SWAP3 SWAP4 SWAP3 POP POP POP JUMP JUMPDEST DUP3 DUP1 SLOAD PUSH2 0x1730 SWAP1 PUSH2 0x1EA6 JUMP JUMPDEST SWAP1 PUSH1 0x0 MSTORE PUSH1 0x20 PUSH1 0x0 KECCAK256 SWAP1 PUSH1 0x1F ADD PUSH1 0x20 SWAP1 DIV DUP2 ADD SWAP3 DUP3 PUSH2 0x1752 JUMPI PUSH1 0x0 DUP6 SSTORE PUSH2 0x1798 JUMP JUMPDEST DUP3 PUSH1 0x1F LT PUSH2 0x176B JUMPI DUP1 MLOAD PUSH1 0xFF NOT AND DUP4 DUP1 ADD OR DUP6 SSTORE PUSH2 0x1798 JUMP JUMPDEST DUP3 DUP1 ADD PUSH1 0x1 ADD DUP6 SSTORE DUP3 ISZERO PUSH2 0x1798 JUMPI SWAP2 DUP3 ADD JUMPDEST DUP3 DUP2 GT ISZERO PUSH2 0x1798 JUMPI DUP3 MLOAD DUP3 SSTORE SWAP2 PUSH1 0x20 ADD SWAP2 SWAP1 PUSH1 0x1 ADD SWAP1 PUSH2 0x177D JUMP JUMPDEST POP PUSH2 0x17A4 SWAP3 SWAP2 POP PUSH2 0x1833 JUMP JUMPDEST POP SWAP1 JUMP JUMPDEST POP DUP1 SLOAD PUSH2 0x17B4 SWAP1 PUSH2 0x1EA6 JUMP JUMPDEST PUSH1 0x0 DUP3 SSTORE DUP1 PUSH1 0x1F LT PUSH2 0x17C6 JUMPI POP PUSH2 0x110D JUMP JUMPDEST PUSH1 0x1F ADD PUSH1 0x20 SWAP1 DIV SWAP1 PUSH1 0x0 MSTORE PUSH1 0x20 PUSH1 0x0 KECCAK256 SWAP1 DUP2 ADD SWAP1 PUSH2 0x110D SWAP2 SWAP1 PUSH2 0x1833 JUMP JUMPDEST PUSH1 0x40 MLOAD DUP1 PUSH1 0x80 ADD PUSH1 0x40 MSTORE DUP1 PUSH1 0x60 DUP2 MSTORE PUSH1 0x20 ADD PUSH1 0x0 PUSH1 0x1 PUSH1 0x1 PUSH1 0xA0 SHL SUB AND DUP2 MSTORE PUSH1 0x20 ADD PUSH1 0x0 DUP2 MSTORE PUSH1 0x20 ADD PUSH1 0x0 PUSH1 0x3 DUP2 GT ISZERO PUSH2 0x182E JUMPI PUSH4 0x4E487B71 PUSH1 0xE0 SHL PUSH1 0x0 MSTORE PUSH1 0x21 PUSH1 0x4 MSTORE PUSH1 0x24 PUSH1 0x0 REVERT JUMPDEST SWAP1 MSTORE SWAP1 JUMP JUMPDEST JUMPDEST DUP1 DUP3 GT ISZERO PUSH2 0x17A4 JUMPI PUSH1 0x0 DUP2 SSTORE PUSH1 0x1 ADD PUSH2 0x1834 JUMP JUMPDEST DUP1 CALLDATALOAD PUSH1 0x1 PUSH1 0x1 PUSH1 0xA0 SHL SUB DUP2 AND DUP2 EQ PUSH2 0x8DC JUMPI PUSH1 0x0 DUP1 REVERT JUMPDEST DUP1 MLOAD DUP1 ISZERO ISZERO DUP2 EQ PUSH2 0x8DC JUMPI PUSH1 0x0 DUP1 REVERT JUMPDEST DUP1 MLOAD PUSH1 0x4 DUP2 LT PUSH2 0x8DC JUMPI PUSH1 0x0 DUP1 REVERT JUMPDEST PUSH1 0x0 DUP3 PUSH1 0x1F DUP4 ADD SLT PUSH2 0x188E JUMPI DUP1 DUP2 REVERT JUMPDEST DUP2 CALLDATALOAD PUSH2 0x18A1 PUSH2 0x189C DUP3 PUSH2 0x1E0B JUMP JUMPDEST PUSH2 0x1DE1 JUMP JUMPDEST DUP2 DUP2 MSTORE DUP5 PUSH1 0x20 DUP4 DUP7 ADD ADD GT ISZERO PUSH2 0x18B5 JUMPI DUP3 DUP4 REVERT JUMPDEST DUP2 PUSH1 0x20 DUP6 ADD PUSH1 0x20 DUP4 ADD CALLDATACOPY SWAP1 DUP2 ADD PUSH1 0x20 ADD SWAP2 SWAP1 SWAP2 MSTORE SWAP3 SWAP2 POP POP JUMP JUMPDEST PUSH1 0x0 DUP3 PUSH1 0x1F DUP4 ADD SLT PUSH2 0x18DF JUMPI DUP1 DUP2 REVERT JUMPDEST DUP2 MLOAD PUSH2 0x18ED PUSH2 0x189C DUP3 PUSH2 0x1E0B JUMP JUMPDEST DUP2 DUP2 MSTORE DUP5 PUSH1 0x20 DUP4 DUP7 ADD ADD GT ISZERO PUSH2 0x1901 JUMPI DUP3 DUP4 REVERT JUMPDEST PUSH2 0x1266 DUP3 PUSH1 0x20 DUP4 ADD PUSH1 0x20 DUP8 ADD PUSH2 0x1E76 JUMP JUMPDEST PUSH1 0x0 PUSH1 0x20 DUP3 DUP5 SUB SLT ISZERO PUSH2 0x1923 JUMPI DUP1 DUP2 REVERT JUMPDEST PUSH2 0x192C DUP3 PUSH2 0x1848 JUMP JUMPDEST SWAP4 SWAP3 POP POP POP JUMP JUMPDEST PUSH1 0x0 DUP1 PUSH1 0x40 DUP4 DUP6 SUB SLT ISZERO PUSH2 0x1945 JUMPI DUP1 DUP2 REVERT JUMPDEST PUSH2 0x194E DUP4 PUSH2 0x1848 JUMP JUMPDEST SWAP5 PUSH1 0x20 SWAP4 SWAP1 SWAP4 ADD CALLDATALOAD SWAP4 POP POP POP JUMP JUMPDEST PUSH1 0x0 PUSH1 0x20 DUP3 DUP5 SUB SLT ISZERO PUSH2 0x196D JUMPI DUP1 DUP2 REVERT JUMPDEST PUSH2 0x192C DUP3 PUSH2 0x185F JUMP JUMPDEST PUSH1 0x0 DUP1 PUSH1 0x40 DUP4 DUP6 SUB SLT ISZERO PUSH2 0x1988 JUMPI DUP2 DUP3 REVERT JUMPDEST DUP3 CALLDATALOAD PUSH8 0xFFFFFFFFFFFFFFFF DUP1 DUP3 GT ISZERO PUSH2 0x199F JUMPI DUP4 DUP5 REVERT JUMPDEST PUSH2 0x19AB DUP7 DUP4 DUP8 ADD PUSH2 0x187E JUMP JUMPDEST SWAP4 POP PUSH1 0x20 DUP6 ADD CALLDATALOAD SWAP2 POP DUP1 DUP3 GT ISZERO PUSH2 0x19C0 JUMPI DUP3 DUP4 REVERT JUMPDEST POP PUSH2 0x19CD DUP6 DUP3 DUP7 ADD PUSH2 0x187E JUMP JUMPDEST SWAP2 POP POP SWAP3 POP SWAP3 SWAP1 POP JUMP JUMPDEST PUSH1 0x0 PUSH1 0x20 DUP3 DUP5 SUB SLT ISZERO PUSH2 0x19E8 JUMPI DUP1 DUP2 REVERT JUMPDEST DUP2 MLOAD PUSH8 0xFFFFFFFFFFFFFFFF DUP1 DUP3 GT ISZERO PUSH2 0x19FF JUMPI DUP3 DUP4 REVERT JUMPDEST DUP2 DUP5 ADD SWAP2 POP PUSH2 0x1C0 DUP1 DUP4 DUP8 SUB SLT ISZERO PUSH2 0x1A15 JUMPI DUP4 DUP5 REVERT JUMPDEST PUSH2 0x1A1E DUP2 PUSH2 0x1DE1 JUMP JUMPDEST SWAP1 POP DUP3 MLOAD DUP2 MSTORE PUSH1 0x20 DUP4 ADD MLOAD PUSH1 0x20 DUP3 ADD MSTORE PUSH1 0x40 DUP4 ADD MLOAD PUSH1 0x40 DUP3 ADD MSTORE PUSH1 0x60 DUP4 ADD MLOAD PUSH1 0x60 DUP3 ADD MSTORE PUSH1 0x80 DUP4 ADD MLOAD PUSH1 0x80 DUP3 ADD MSTORE PUSH2 0x1A58 PUSH1 0xA0 DUP5 ADD PUSH2 0x185F JUMP JUMPDEST PUSH1 0xA0 DUP3 ADD MSTORE PUSH2 0x1A69 PUSH1 0xC0 DUP5 ADD PUSH2 0x185F JUMP JUMPDEST PUSH1 0xC0 DUP3 ADD MSTORE PUSH2 0x1A7A PUSH1 0xE0 DUP5 ADD PUSH2 0x185F JUMP JUMPDEST PUSH1 0xE0 DUP3 ADD MSTORE PUSH2 0x100 DUP4 DUP2 ADD MLOAD SWAP1 DUP3 ADD MSTORE PUSH2 0x120 DUP1 DUP5 ADD MLOAD SWAP1 DUP3 ADD MSTORE PUSH2 0x140 DUP1 DUP5 ADD MLOAD SWAP1 DUP3 ADD MSTORE PUSH2 0x160 DUP1 DUP5 ADD MLOAD SWAP1 DUP3 ADD MSTORE PUSH2 0x180 DUP1 DUP5 ADD MLOAD DUP4 DUP2 GT ISZERO PUSH2 0x1ABE JUMPI DUP6 DUP7 REVERT JUMPDEST PUSH2 0x1ACA DUP9 DUP3 DUP8 ADD PUSH2 0x18CF JUMP JUMPDEST DUP3 DUP5 ADD MSTORE POP POP PUSH2 0x1A0 SWAP2 POP PUSH2 0x1AE0 DUP3 DUP5 ADD PUSH2 0x186F JUMP JUMPDEST SWAP2 DUP2 ADD SWAP2 SWAP1 SWAP2 MSTORE SWAP5 SWAP4 POP POP POP POP JUMP JUMPDEST PUSH1 0x0 PUSH1 0x20 DUP3 DUP5 SUB SLT ISZERO PUSH2 0x1B00 JUMPI DUP1 DUP2 REVERT JUMPDEST POP CALLDATALOAD SWAP2 SWAP1 POP JUMP JUMPDEST PUSH1 0x0 DUP1 PUSH1 0x40 DUP4 DUP6 SUB SLT ISZERO PUSH2 0x1B19 JUMPI DUP2 DUP3 REVERT JUMPDEST POP POP DUP1 CALLDATALOAD SWAP3 PUSH1 0x20 SWAP1 SWAP2 ADD CALLDATALOAD SWAP2 POP JUMP JUMPDEST PUSH1 0x4 DUP2 LT PUSH2 0x1B46 JUMPI PUSH4 0x4E487B71 PUSH1 0xE0 SHL PUSH1 0x0 MSTORE PUSH1 0x21 PUSH1 0x4 MSTORE PUSH1 0x24 PUSH1 0x0 REVERT JUMPDEST SWAP1 MSTORE JUMP JUMPDEST PUSH1 0x0 DUP2 MLOAD DUP1 DUP5 MSTORE PUSH2 0x1B62 DUP2 PUSH1 0x20 DUP7 ADD PUSH1 0x20 DUP7 ADD PUSH2 0x1E76 JUMP JUMPDEST PUSH1 0x1F ADD PUSH1 0x1F NOT AND SWAP3 SWAP1 SWAP3 ADD PUSH1 0x20 ADD SWAP3 SWAP2 POP POP JUMP JUMPDEST PUSH1 0x60 SWAP2 SWAP1 SWAP2 SHL PUSH12 0xFFFFFFFFFFFFFFFFFFFFFFFF NOT AND DUP2 MSTORE PUSH1 0x14 ADD SWAP1 JUMP JUMPDEST PUSH1 0x60 SWAP3 SWAP1 SWAP3 SHL PUSH12 0xFFFFFFFFFFFFFFFFFFFFFFFF NOT AND DUP3 MSTORE PUSH1 0x14 DUP3 ADD MSTORE PUSH1 0x34 ADD SWAP1 JUMP JUMPDEST SWAP1 DUP2 MSTORE PUSH1 0x20 ADD SWAP1 JUMP JUMPDEST PUSH1 0x0 DUP3 MLOAD PUSH2 0x1BD0 DUP2 DUP5 PUSH1 0x20 DUP8 ADD PUSH2 0x1E76 JUMP JUMPDEST SWAP2 SWAP1 SWAP2 ADD SWAP3 SWAP2 POP POP JUMP JUMPDEST SWAP2 DUP3 MSTORE PUSH1 0x20 DUP3 ADD MSTORE PUSH1 0x40 ADD SWAP1 JUMP JUMPDEST PUSH1 0x1 PUSH1 0x1 PUSH1 0xA0 SHL SUB SWAP2 SWAP1 SWAP2 AND DUP2 MSTORE PUSH1 0x20 ADD SWAP1 JUMP JUMPDEST PUSH1 0x20 DUP1 DUP3 MSTORE DUP3 MLOAD DUP3 DUP3 ADD DUP2 SWAP1 MSTORE PUSH1 0x0 SWAP2 SWAP1 DUP5 DUP3 ADD SWAP1 PUSH1 0x40 DUP6 ADD SWAP1 DUP5 JUMPDEST DUP2 DUP2 LT ISZERO PUSH2 0x1C34 JUMPI DUP4 MLOAD DUP4 MSTORE SWAP3 DUP5 ADD SWAP3 SWAP2 DUP5 ADD SWAP2 PUSH1 0x1 ADD PUSH2 0x1C18 JUMP JUMPDEST POP SWAP1 SWAP7 SWAP6 POP POP POP POP POP POP JUMP JUMPDEST SWAP1 ISZERO ISZERO DUP2 MSTORE PUSH1 0x20 ADD SWAP1 JUMP JUMPDEST PUSH1 0x0 PUSH1 0x20 DUP3 MSTORE PUSH2 0x192C PUSH1 0x20 DUP4 ADD DUP5 PUSH2 0x1B4A JUMP JUMPDEST PUSH1 0x0 PUSH1 0x40 DUP3 MSTORE PUSH2 0x1C71 PUSH1 0x40 DUP4 ADD DUP6 PUSH2 0x1B4A JUMP JUMPDEST SWAP1 POP PUSH1 0x1 DUP1 PUSH1 0xA0 SHL SUB DUP4 AND PUSH1 0x20 DUP4 ADD MSTORE SWAP4 SWAP3 POP POP POP JUMP JUMPDEST PUSH1 0x0 PUSH1 0x80 DUP3 MSTORE PUSH2 0x1C9B PUSH1 0x80 DUP4 ADD DUP8 PUSH2 0x1B4A JUMP JUMPDEST PUSH1 0x1 PUSH1 0x1 PUSH1 0xA0 SHL SUB DUP7 AND PUSH1 0x20 DUP5 ADD MSTORE PUSH1 0x40 DUP4 ADD DUP6 SWAP1 MSTORE SWAP1 POP PUSH2 0x1CC0 PUSH1 0x60 DUP4 ADD DUP5 PUSH2 0x1B28 JUMP JUMPDEST SWAP6 SWAP5 POP POP POP POP POP JUMP JUMPDEST PUSH1 0x20 DUP1 DUP3 MSTORE PUSH1 0x26 SWAP1 DUP3 ADD MSTORE PUSH32 0x4F776E61626C653A206E6577206F776E657220697320746865207A65726F2061 PUSH1 0x40 DUP3 ADD MSTORE PUSH6 0x646472657373 PUSH1 0xD0 SHL PUSH1 0x60 DUP3 ADD MSTORE PUSH1 0x80 ADD SWAP1 JUMP JUMPDEST PUSH1 0x20 DUP1 DUP3 MSTORE PUSH1 0x29 SWAP1 DUP3 ADD MSTORE PUSH32 0x6B206F72204E20617265206E6F74204F4B20647572696E672072616E646F6D20 PUSH1 0x40 DUP3 ADD MSTORE PUSH9 0x39B2B632B1BA34B7B7 PUSH1 0xB9 SHL PUSH1 0x60 DUP3 ADD MSTORE PUSH1 0x80 ADD SWAP1 JUMP JUMPDEST PUSH1 0x20 DUP1 DUP3 MSTORE DUP2 DUP2 ADD MSTORE PUSH32 0x4F776E61626C653A2063616C6C6572206973206E6F7420746865206F776E6572 PUSH1 0x40 DUP3 ADD MSTORE PUSH1 0x60 ADD SWAP1 JUMP JUMPDEST PUSH1 0x0 PUSH1 0x20 DUP3 MSTORE DUP3 MLOAD PUSH1 0x80 PUSH1 0x20 DUP5 ADD MSTORE PUSH2 0x1DA9 PUSH1 0xA0 DUP5 ADD DUP3 PUSH2 0x1B4A JUMP JUMPDEST SWAP1 POP PUSH1 0x1 DUP1 PUSH1 0xA0 SHL SUB PUSH1 0x20 DUP6 ADD MLOAD AND PUSH1 0x40 DUP5 ADD MSTORE PUSH1 0x40 DUP5 ADD MLOAD PUSH1 0x60 DUP5 ADD MSTORE PUSH1 0x60 DUP5 ADD MLOAD PUSH2 0x1DD9 PUSH1 0x80 DUP6 ADD DUP3 PUSH2 0x1B28 JUMP JUMPDEST POP SWAP4 SWAP3 POP POP POP JUMP JUMPDEST PUSH1 0x40 MLOAD DUP2 DUP2 ADD PUSH8 0xFFFFFFFFFFFFFFFF DUP2 GT DUP3 DUP3 LT OR ISZERO PUSH2 0x1E03 JUMPI PUSH2 0x1E03 PUSH2 0x1F3C JUMP JUMPDEST PUSH1 0x40 MSTORE SWAP2 SWAP1 POP JUMP JUMPDEST PUSH1 0x0 PUSH8 0xFFFFFFFFFFFFFFFF DUP3 GT ISZERO PUSH2 0x1E25 JUMPI PUSH2 0x1E25 PUSH2 0x1F3C JUMP JUMPDEST POP PUSH1 0x1F ADD PUSH1 0x1F NOT AND PUSH1 0x20 ADD SWAP1 JUMP JUMPDEST PUSH1 0x0 DUP3 NOT DUP3 GT ISZERO PUSH2 0x1E46 JUMPI PUSH2 0x1E46 PUSH2 0x1F10 JUMP JUMPDEST POP ADD SWAP1 JUMP JUMPDEST PUSH1 0x0 DUP3 PUSH2 0x1E5A JUMPI PUSH2 0x1E5A PUSH2 0x1F26 JUMP JUMPDEST POP DIV SWAP1 JUMP JUMPDEST PUSH1 0x0 DUP3 DUP3 LT ISZERO PUSH2 0x1E71 JUMPI PUSH2 0x1E71 PUSH2 0x1F10 JUMP JUMPDEST POP SUB SWAP1 JUMP JUMPDEST PUSH1 0x0 JUMPDEST DUP4 DUP2 LT ISZERO PUSH2 0x1E91 JUMPI DUP2 DUP2 ADD MLOAD DUP4 DUP3 ADD MSTORE PUSH1 0x20 ADD PUSH2 0x1E79 JUMP JUMPDEST DUP4 DUP2 GT ISZERO PUSH2 0x1EA0 JUMPI PUSH1 0x0 DUP5 DUP5 ADD MSTORE JUMPDEST POP POP POP POP JUMP JUMPDEST PUSH1 0x2 DUP2 DIV PUSH1 0x1 DUP3 AND DUP1 PUSH2 0x1EBA JUMPI PUSH1 0x7F DUP3 AND SWAP2 POP JUMPDEST PUSH1 0x20 DUP3 LT DUP2 EQ ISZERO PUSH2 0x1EDB JUMPI PUSH4 0x4E487B71 PUSH1 0xE0 SHL PUSH1 0x0 MSTORE PUSH1 0x22 PUSH1 0x4 MSTORE PUSH1 0x24 PUSH1 0x0 REVERT JUMPDEST POP SWAP2 SWAP1 POP JUMP JUMPDEST PUSH1 0x0 PUSH1 0x0 NOT DUP3 EQ ISZERO PUSH2 0x1EF5 JUMPI PUSH2 0x1EF5 PUSH2 0x1F10 JUMP JUMPDEST POP PUSH1 0x1 ADD SWAP1 JUMP JUMPDEST PUSH1 0x0 DUP3 PUSH2 0x1F0B JUMPI PUSH2 0x1F0B PUSH2 0x1F26 JUMP JUMPDEST POP MOD SWAP1 JUMP JUMPDEST PUSH4 0x4E487B71 PUSH1 0xE0 SHL PUSH1 0x0 MSTORE PUSH1 0x11 PUSH1 0x4 MSTORE PUSH1 0x24 PUSH1 0x0 REVERT JUMPDEST PUSH4 0x4E487B71 PUSH1 0xE0 SHL PUSH1 0x0 MSTORE PUSH1 0x12 PUSH1 0x4 MSTORE PUSH1 0x24 PUSH1 0x0 REVERT JUMPDEST PUSH4 0x4E487B71 PUSH1 0xE0 SHL PUSH1 0x0 MSTORE PUSH1 0x41 PUSH1 0x4 MSTORE PUSH1 0x24 PUSH1 0x0 REVERT INVALID LOG2 PUSH5 0x6970667358 0x22 SLT KECCAK256 LOG3 POP 0xB1 DUP9 PUSH26 0xD3052BC0FC1271A62BFE107979ADBB26AFCFEB61EAAD098C8816 DUP2 PUSH5 0x736F6C6343 STOP ADDMOD STOP STOP CALLER "
				},
				"gasEstimates": {
					"creation": {
						"codeDepositCost": "1614400",
						"executionCost": "infinite",
						"totalCost": "infinite"
					},
					"external": {
						"AddressManager()": "1160",
						"AllTxsCounter()": "1094",
						"AllocatedBatchCursor()": "1161",
						"ArchiveMapping(uint256)": "infinite",
						"AreStringsEqual(string,string)": "infinite",
						"BatchCheckingCursor()": "1161",
						"CollectedFormatBatchs(uint256)": "1274",
						"DataExists(uint256)": "1249",
						"DataNonce()": "1097",
						"FormatStakedTokenBalance(address)": "1298",
						"FormattingSystem()": "1159",
						"LastBatchCounter()": "1073",
						"MasterWorkers(address,uint256)": "2363",
						"Ping(uint256)": "infinite",
						"RepManager()": "1183",
						"RewardManager()": "1204",
						"StakeManager()": "1204",
						"WorkersPerBatch(uint256,uint256)": "2262",
						"attrUUID(address,uint256)": "779",
						"availableWorkers(uint256)": "2173",
						"busyWorkers(uint256)": "2150",
						"deleteData(uint256)": "infinite",
						"deleteMapping(uint256)": "23040",
						"generateIntegers(uint256,uint256)": "infinite",
						"getBlockTimestamp()": "295",
						"getDataById(uint256)": "infinite",
						"getFileById(uint256)": "infinite",
						"getLastDataId()": "1096",
						"getRandom()": "infinite",
						"getSeed()": "infinite",
						"getTxCounter()": "1138",
						"owner()": "1181",
						"random_selection(uint256,uint256)": "infinite",
						"renounceOwnership()": "23550",
						"sFuel()": "1204",
						"shuffle_array(uint256)": "infinite",
						"token()": "1224",
						"transferOwnership(address)": "23787",
						"updateAddressManager(address)": "22190",
						"updatePreviousSystem(address)": "22147",
						"updateRepManager(address)": "22146",
						"updateRewardManager(address)": "22148",
						"updateStakeManager(address)": "22168"
					},
					"internal": {
						"PopFromAvailableWorkers(address)": "infinite",
						"PopFromBusyWorkers(address)": "infinite",
						"_retrieveSFuel()": "infinite",
						"isInAvailableWorkers(address)": "infinite",
						"isInBusyWorkers(address)": "infinite"
					}
				},
				"methodIdentifiers": {
					"AddressManager()": "7a34da67",
					"AllTxsCounter()": "f2d9e74d",
					"AllocatedBatchCursor()": "d6b0206c",
					"ArchiveMapping(uint256)": "8cbdab3c",
					"AreStringsEqual(string,string)": "a9057790",
					"BatchCheckingCursor()": "ef4fcdad",
					"CollectedFormatBatchs(uint256)": "171ee06a",
					"DataExists(uint256)": "f721de4a",
					"DataNonce()": "0e6661a7",
					"FormatStakedTokenBalance(address)": "353f44d0",
					"FormattingSystem()": "8d289f8f",
					"LastBatchCounter()": "8473850b",
					"MasterWorkers(address,uint256)": "d822ce01",
					"Ping(uint256)": "48257dc9",
					"RepManager()": "29a47bc7",
					"RewardManager()": "51912f29",
					"StakeManager()": "83cc6ef2",
					"WorkersPerBatch(uint256,uint256)": "8df0296e",
					"attrUUID(address,uint256)": "a1103f37",
					"availableWorkers(uint256)": "3538af82",
					"busyWorkers(uint256)": "821aa8c0",
					"deleteData(uint256)": "4fe8b4c1",
					"deleteMapping(uint256)": "ced5ca6f",
					"generateIntegers(uint256,uint256)": "b1d7ea98",
					"getBlockTimestamp()": "796b89b9",
					"getDataById(uint256)": "f2722a9f",
					"getFileById(uint256)": "e4e6025e",
					"getLastDataId()": "a511dba0",
					"getRandom()": "aacc5a17",
					"getSeed()": "39e7357c",
					"getTxCounter()": "f5ae7c7d",
					"owner()": "8da5cb5b",
					"random_selection(uint256,uint256)": "b8f011b3",
					"renounceOwnership()": "715018a6",
					"sFuel()": "ab43e78d",
					"shuffle_array(uint256)": "e44c974b",
					"token()": "fc0c546a",
					"transferOwnership(address)": "f2fde38b",
					"updateAddressManager(address)": "c47c4bc2",
					"updatePreviousSystem(address)": "a16a11e0",
					"updateRepManager(address)": "dd618682",
					"updateRewardManager(address)": "050eb2eb",
					"updateStakeManager(address)": "df05368e"
				}
			},
			"storageLayout": {
				"storage": [
					{
						"astId": 7,
						"contract": "contracts/worksystems/DataArchive.sol:DataArchive",
						"label": "_owner",
						"offset": 0,
						"slot": "0",
						"type": "t_address"
					},
					{
						"astId": 858,
						"contract": "contracts/worksystems/DataArchive.sol:DataArchive",
						"label": "CollectedFormatBatchs",
						"offset": 0,
						"slot": "1",
						"type": "t_mapping(t_uint256,t_bool)"
					},
					{
						"astId": 861,
						"contract": "contracts/worksystems/DataArchive.sol:DataArchive",
						"label": "DataNonce",
						"offset": 0,
						"slot": "2",
						"type": "t_uint256"
					},
					{
						"astId": 866,
						"contract": "contracts/worksystems/DataArchive.sol:DataArchive",
						"label": "ArchiveMapping",
						"offset": 0,
						"slot": "3",
						"type": "t_mapping(t_uint256,t_struct(ArchiveData)851_storage)"
					},
					{
						"astId": 870,
						"contract": "contracts/worksystems/DataArchive.sol:DataArchive",
						"label": "FormatStakedTokenBalance",
						"offset": 0,
						"slot": "4",
						"type": "t_mapping(t_address,t_uint256)"
					},
					{
						"astId": 875,
						"contract": "contracts/worksystems/DataArchive.sol:DataArchive",
						"label": "MasterWorkers",
						"offset": 0,
						"slot": "5",
						"type": "t_mapping(t_address,t_array(t_address)dyn_storage)"
					},
					{
						"astId": 878,
						"contract": "contracts/worksystems/DataArchive.sol:DataArchive",
						"label": "availableWorkers",
						"offset": 0,
						"slot": "6",
						"type": "t_array(t_address)dyn_storage"
					},
					{
						"astId": 881,
						"contract": "contracts/worksystems/DataArchive.sol:DataArchive",
						"label": "busyWorkers",
						"offset": 0,
						"slot": "7",
						"type": "t_array(t_address)dyn_storage"
					},
					{
						"astId": 886,
						"contract": "contracts/worksystems/DataArchive.sol:DataArchive",
						"label": "WorkersPerBatch",
						"offset": 0,
						"slot": "8",
						"type": "t_mapping(t_uint256,t_array(t_address)dyn_storage)"
					},
					{
						"astId": 889,
						"contract": "contracts/worksystems/DataArchive.sol:DataArchive",
						"label": "sFuel",
						"offset": 0,
						"slot": "9",
						"type": "t_address"
					},
					{
						"astId": 892,
						"contract": "contracts/worksystems/DataArchive.sol:DataArchive",
						"label": "LastBatchCounter",
						"offset": 0,
						"slot": "10",
						"type": "t_uint256"
					},
					{
						"astId": 895,
						"contract": "contracts/worksystems/DataArchive.sol:DataArchive",
						"label": "BatchCheckingCursor",
						"offset": 0,
						"slot": "11",
						"type": "t_uint256"
					},
					{
						"astId": 898,
						"contract": "contracts/worksystems/DataArchive.sol:DataArchive",
						"label": "AllocatedBatchCursor",
						"offset": 0,
						"slot": "12",
						"type": "t_uint256"
					},
					{
						"astId": 901,
						"contract": "contracts/worksystems/DataArchive.sol:DataArchive",
						"label": "AllTxsCounter",
						"offset": 0,
						"slot": "13",
						"type": "t_uint256"
					},
					{
						"astId": 904,
						"contract": "contracts/worksystems/DataArchive.sol:DataArchive",
						"label": "token",
						"offset": 0,
						"slot": "14",
						"type": "t_contract(IERC20)182"
					},
					{
						"astId": 907,
						"contract": "contracts/worksystems/DataArchive.sol:DataArchive",
						"label": "StakeManager",
						"offset": 0,
						"slot": "15",
						"type": "t_contract(IStakeManager)625"
					},
					{
						"astId": 910,
						"contract": "contracts/worksystems/DataArchive.sol:DataArchive",
						"label": "RepManager",
						"offset": 0,
						"slot": "16",
						"type": "t_contract(IRepManager)648"
					},
					{
						"astId": 913,
						"contract": "contracts/worksystems/DataArchive.sol:DataArchive",
						"label": "RewardManager",
						"offset": 0,
						"slot": "17",
						"type": "t_contract(IRewardManager)658"
					},
					{
						"astId": 916,
						"contract": "contracts/worksystems/DataArchive.sol:DataArchive",
						"label": "AddressManager",
						"offset": 0,
						"slot": "18",
						"type": "t_contract(IAddressManager)692"
					},
					{
						"astId": 919,
						"contract": "contracts/worksystems/DataArchive.sol:DataArchive",
						"label": "FormattingSystem",
						"offset": 0,
						"slot": "19",
						"type": "t_contract(IFormattingSystem)779"
					}
				],
				"types": {
					"t_address": {
						"encoding": "inplace",
						"label": "address",
						"numberOfBytes": "20"
					},
					"t_array(t_address)dyn_storage": {
						"base": "t_address",
						"encoding": "dynamic_array",
						"label": "address[]",
						"numberOfBytes": "32"
					},
					"t_bool": {
						"encoding": "inplace",
						"label": "bool",
						"numberOfBytes": "1"
					},
					"t_contract(IAddressManager)692": {
						"encoding": "inplace",
						"label": "contract IAddressManager",
						"numberOfBytes": "20"
					},
					"t_contract(IERC20)182": {
						"encoding": "inplace",
						"label": "contract IERC20",
						"numberOfBytes": "20"
					},
					"t_contract(IFormattingSystem)779": {
						"encoding": "inplace",
						"label": "contract IFormattingSystem",
						"numberOfBytes": "20"
					},
					"t_contract(IRepManager)648": {
						"encoding": "inplace",
						"label": "contract IRepManager",
						"numberOfBytes": "20"
					},
					"t_contract(IRewardManager)658": {
						"encoding": "inplace",
						"label": "contract IRewardManager",
						"numberOfBytes": "20"
					},
					"t_contract(IStakeManager)625": {
						"encoding": "inplace",
						"label": "contract IStakeManager",
						"numberOfBytes": "20"
					},
					"t_enum(DataStatus)841": {
						"encoding": "inplace",
						"label": "enum DataArchive.DataStatus",
						"numberOfBytes": "1"
					},
					"t_mapping(t_address,t_array(t_address)dyn_storage)": {
						"encoding": "mapping",
						"key": "t_address",
						"label": "mapping(address => address[])",
						"numberOfBytes": "32",
						"value": "t_array(t_address)dyn_storage"
					},
					"t_mapping(t_address,t_uint256)": {
						"encoding": "mapping",
						"key": "t_address",
						"label": "mapping(address => uint256)",
						"numberOfBytes": "32",
						"value": "t_uint256"
					},
					"t_mapping(t_uint256,t_array(t_address)dyn_storage)": {
						"encoding": "mapping",
						"key": "t_uint256",
						"label": "mapping(uint256 => address[])",
						"numberOfBytes": "32",
						"value": "t_array(t_address)dyn_storage"
					},
					"t_mapping(t_uint256,t_bool)": {
						"encoding": "mapping",
						"key": "t_uint256",
						"label": "mapping(uint256 => bool)",
						"numberOfBytes": "32",
						"value": "t_bool"
					},
					"t_mapping(t_uint256,t_struct(ArchiveData)851_storage)": {
						"encoding": "mapping",
						"key": "t_uint256",
						"label": "mapping(uint256 => struct DataArchive.ArchiveData)",
						"numberOfBytes": "32",
						"value": "t_struct(ArchiveData)851_storage"
					},
					"t_string_storage": {
						"encoding": "bytes",
						"label": "string",
						"numberOfBytes": "32"
					},
					"t_struct(ArchiveData)851_storage": {
						"encoding": "inplace",
						"label": "struct DataArchive.ArchiveData",
						"members": [
							{
								"astId": 843,
								"contract": "contracts/worksystems/DataArchive.sol:DataArchive",
								"label": "ipfs_hash",
								"offset": 0,
								"slot": "0",
								"type": "t_string_storage"
							},
							{
								"astId": 845,
								"contract": "contracts/worksystems/DataArchive.sol:DataArchive",
								"label": "author",
								"offset": 0,
								"slot": "1",
								"type": "t_address"
							},
							{
								"astId": 847,
								"contract": "contracts/worksystems/DataArchive.sol:DataArchive",
								"label": "timestamp",
								"offset": 0,
								"slot": "2",
								"type": "t_uint256"
							},
							{
								"astId": 850,
								"contract": "contracts/worksystems/DataArchive.sol:DataArchive",
								"label": "status",
								"offset": 0,
								"slot": "3",
								"type": "t_enum(DataStatus)841"
							}
						],
						"numberOfBytes": "128"
					},
					"t_uint256": {
						"encoding": "inplace",
						"label": "uint256",
						"numberOfBytes": "32"
					}
				}
			},
			"userdoc": {
				"kind": "user",
				"methods": {
					"getDataById(uint256)": {
						"notice": "getLastDataId"
					},
					"getFileById(uint256)": {
						"notice": "getLastDataId"
					},
					"getLastDataId()": {
						"notice": "getLastDataId"
					},
					"getTxCounter()": {
						"notice": "getCounter"
					}
				},
				"version": 1
			}
		}
	}
}