{
	"contracts/worksystems/RandomAllocator.sol": {
		"RandomAllocator": {
			"abi": [
				{
					"inputs": [
						{
							"internalType": "uint256",
							"name": "_k",
							"type": "uint256"
						},
						{
							"internalType": "uint256",
							"name": "N_range",
							"type": "uint256"
						}
					],
					"name": "generateIntegers",
					"outputs": [
						{
							"internalType": "uint256[]",
							"name": "",
							"type": "uint256[]"
						}
					],
					"stateMutability": "view",
					"type": "function"
				},
				{
					"inputs": [],
					"name": "getRandom",
					"outputs": [
						{
							"internalType": "uint256",
							"name": "",
							"type": "uint256"
						}
					],
					"stateMutability": "view",
					"type": "function"
				},
				{
					"inputs": [],
					"name": "getSeed",
					"outputs": [
						{
							"internalType": "bytes32",
							"name": "addr",
							"type": "bytes32"
						}
					],
					"stateMutability": "view",
					"type": "function"
				},
				{
					"inputs": [
						{
							"internalType": "uint256",
							"name": "k",
							"type": "uint256"
						},
						{
							"internalType": "uint256",
							"name": "N",
							"type": "uint256"
						}
					],
					"name": "random_selection",
					"outputs": [
						{
							"internalType": "uint256[]",
							"name": "",
							"type": "uint256[]"
						}
					],
					"stateMutability": "view",
					"type": "function"
				},
				{
					"inputs": [
						{
							"internalType": "uint256",
							"name": "N",
							"type": "uint256"
						}
					],
					"name": "shuffle_array",
					"outputs": [
						{
							"internalType": "uint256[]",
							"name": "",
							"type": "uint256[]"
						}
					],
					"stateMutability": "view",
					"type": "function"
				}
			],
			"devdoc": {
				"kind": "dev",
				"methods": {
					"generateIntegers(uint256,uint256)": {
						"details": "Return value",
						"returns": {
							"_0": "value of 'number'"
						}
					},
					"getRandom()": {
						"details": "Return value",
						"returns": {
							"_0": "value of 'number'"
						}
					},
					"getSeed()": {
						"details": "Initializer. Can only be called once."
					}
				},
				"version": 1
			},
			"evm": {
				"assembly": "    /* \"contracts/worksystems/RandomAllocator.sol\":64:4225  contract RandomAllocator {\r... */\n  mstore(0x40, 0x80)\n  callvalue\n  dup1\n  iszero\n  tag_1\n  jumpi\n  0x00\n  dup1\n  revert\ntag_1:\n  pop\n  dataSize(sub_0)\n  dup1\n  dataOffset(sub_0)\n  0x00\n  codecopy\n  0x00\n  return\nstop\n\nsub_0: assembly {\n        /* \"contracts/worksystems/RandomAllocator.sol\":64:4225  contract RandomAllocator {\r... */\n      mstore(0x40, 0x80)\n      callvalue\n      dup1\n      iszero\n      tag_1\n      jumpi\n      0x00\n      dup1\n      revert\n    tag_1:\n      pop\n      jumpi(tag_2, lt(calldatasize, 0x04))\n      shr(0xe0, calldataload(0x00))\n      dup1\n      0x39e7357c\n      eq\n      tag_3\n      jumpi\n      dup1\n      0xaacc5a17\n      eq\n      tag_4\n      jumpi\n      dup1\n      0xb1d7ea98\n      eq\n      tag_5\n      jumpi\n      dup1\n      0xb8f011b3\n      eq\n      tag_6\n      jumpi\n      dup1\n      0xe44c974b\n      eq\n      tag_7\n      jumpi\n    tag_2:\n      0x00\n      dup1\n      revert\n        /* \"contracts/worksystems/RandomAllocator.sol\":360:688  function getSeed() public view returns (bytes32 addr) {\r... */\n    tag_3:\n      tag_8\n      tag_9\n      jump\t// in\n    tag_8:\n      mload(0x40)\n      tag_10\n      swap2\n      swap1\n      tag_40\n      jump\t// in\n    tag_10:\n      mload(0x40)\n      dup1\n      swap2\n      sub\n      swap1\n      return\n        /* \"contracts/worksystems/RandomAllocator.sol\":776:1077  function getRandom() public view returns (uint256){\r... */\n    tag_4:\n      tag_8\n      tag_13\n      jump\t// in\n        /* \"contracts/worksystems/RandomAllocator.sol\":1164:2250  function generateIntegers(uint256 _k, uint256 N_range) public view returns (uint256[] memory){\r... */\n    tag_5:\n      tag_16\n      tag_17\n      calldatasize\n      0x04\n      tag_18\n      jump\t// in\n    tag_17:\n      tag_19\n      jump\t// in\n    tag_16:\n      mload(0x40)\n      tag_10\n      swap2\n      swap1\n      tag_21\n      jump\t// in\n        /* \"contracts/worksystems/RandomAllocator.sol\":3718:4222  function random_selection(uint256 k, uint256 N) public view returns(uint256[] memory){\r... */\n    tag_6:\n      tag_16\n      tag_23\n      calldatasize\n      0x04\n      tag_18\n      jump\t// in\n    tag_23:\n      tag_24\n      jump\t// in\n        /* \"contracts/worksystems/RandomAllocator.sol\":3382:3708  function shuffle_array(uint256 N) public view returns(uint256[] memory){\r... */\n    tag_7:\n      tag_16\n      tag_27\n      calldatasize\n      0x04\n      tag_28\n      jump\t// in\n    tag_27:\n      tag_29\n      jump\t// in\n        /* \"contracts/worksystems/RandomAllocator.sol\":360:688  function getSeed() public view returns (bytes32 addr) {\r... */\n    tag_9:\n        /* \"contracts/worksystems/RandomAllocator.sol\":470:474  0x40 */\n      0x40\n        /* \"contracts/worksystems/RandomAllocator.sol\":464:475  mload(0x40) */\n      mload\n        /* \"contracts/worksystems/RandomAllocator.sol\":400:412  bytes32 addr */\n      0x00\n      swap1\n        /* \"contracts/worksystems/RandomAllocator.sol\":464:475  mload(0x40) */\n      dup1\n        /* \"contracts/worksystems/RandomAllocator.sol\":588:590  32 */\n      0x20\n        /* \"contracts/worksystems/RandomAllocator.sol\":464:475  mload(0x40) */\n      dup2\n        /* \"contracts/worksystems/RandomAllocator.sol\":400:412  bytes32 addr */\n      dup5\n      dup1\n        /* \"contracts/worksystems/RandomAllocator.sol\":564:568  0x18 */\n      0x18\n        /* \"contracts/worksystems/RandomAllocator.sol\":557:562  gas() */\n      gas\n        /* \"contracts/worksystems/RandomAllocator.sol\":546:591  staticcall(gas(), 0x18, 0, 0, start_addr, 32) */\n      staticcall\n        /* \"contracts/worksystems/RandomAllocator.sol\":536:538  if */\n      tag_32\n      jumpi\n        /* \"contracts/worksystems/RandomAllocator.sol\":610:619  invalid() */\n      invalid\n        /* \"contracts/worksystems/RandomAllocator.sol\":536:538  if */\n    tag_32:\n      pop\n        /* \"contracts/worksystems/RandomAllocator.sol\":656:670  mload(freemem) */\n      mload\n      swap2\n        /* \"contracts/worksystems/RandomAllocator.sol\":434:681  {\r... */\n      swap1\n      pop\n      jump\t// out\n        /* \"contracts/worksystems/RandomAllocator.sol\":776:1077  function getRandom() public view returns (uint256){\r... */\n    tag_13:\n        /* \"contracts/worksystems/RandomAllocator.sol\":818:825  uint256 */\n      0x00\n        /* \"contracts/worksystems/RandomAllocator.sol\":837:846  uint256 r */\n      dup1\n        /* \"contracts/worksystems/RandomAllocator.sol\":1030:1045  block.timestamp */\n      timestamp\n        /* \"contracts/worksystems/RandomAllocator.sol\":1008:1022  block.coinbase */\n      coinbase\n        /* \"contracts/worksystems/RandomAllocator.sol\":991:1023  abi.encodePacked(block.coinbase) */\n      add(0x20, mload(0x40))\n      tag_34\n      swap2\n      swap1\n      tag_35\n      jump\t// in\n    tag_34:\n      mload(0x40)\n      0x20\n      dup2\n      dup4\n      sub\n      sub\n      dup2\n      mstore\n      swap1\n      0x40\n      mstore\n        /* \"contracts/worksystems/RandomAllocator.sol\":981:1024  keccak256(abi.encodePacked(block.coinbase)) */\n      dup1\n      mload\n      swap1\n      0x20\n      add\n      keccak256\n        /* \"contracts/worksystems/RandomAllocator.sol\":973:1025  uint256(keccak256(abi.encodePacked(block.coinbase))) */\n      0x00\n      shr\n        /* \"contracts/worksystems/RandomAllocator.sol\":972:1046  (uint256(keccak256(abi.encodePacked(block.coinbase)))) / (block.timestamp) */\n      tag_36\n      swap2\n      swap1\n      tag_37\n      jump\t// in\n    tag_36:\n        /* \"contracts/worksystems/RandomAllocator.sol\":952:968  block.difficulty */\n      difficulty\n        /* \"contracts/worksystems/RandomAllocator.sol\":937:946  getSeed() */\n      tag_38\n        /* \"contracts/worksystems/RandomAllocator.sol\":937:944  getSeed */\n      tag_9\n        /* \"contracts/worksystems/RandomAllocator.sol\":937:946  getSeed() */\n      jump\t// in\n    tag_38:\n        /* \"contracts/worksystems/RandomAllocator.sol\":920:947  abi.encodePacked(getSeed()) */\n      add(0x20, mload(0x40))\n      tag_39\n      swap2\n      swap1\n      tag_40\n      jump\t// in\n    tag_39:\n      0x40\n      dup1\n      mload\n      not(0x1f)\n      dup2\n      dup5\n      sub\n      add\n      dup2\n      mstore\n      swap2\n      swap1\n      mstore\n        /* \"contracts/worksystems/RandomAllocator.sol\":910:948  keccak256(abi.encodePacked(getSeed())) */\n      dup1\n      mload\n        /* \"contracts/worksystems/RandomAllocator.sol\":920:947  abi.encodePacked(getSeed()) */\n      0x20\n        /* \"contracts/worksystems/RandomAllocator.sol\":910:948  keccak256(abi.encodePacked(getSeed())) */\n      swap1\n      swap2\n      add\n      keccak256\n        /* \"contracts/worksystems/RandomAllocator.sol\":884:949  block.timestamp + uint256(keccak256(abi.encodePacked(getSeed()))) */\n      tag_41\n      swap1\n        /* \"contracts/worksystems/RandomAllocator.sol\":884:899  block.timestamp */\n      timestamp\n        /* \"contracts/worksystems/RandomAllocator.sol\":884:949  block.timestamp + uint256(keccak256(abi.encodePacked(getSeed()))) */\n      tag_42\n      jump\t// in\n    tag_41:\n        /* \"contracts/worksystems/RandomAllocator.sol\":884:968  block.timestamp + uint256(keccak256(abi.encodePacked(getSeed()))) + block.difficulty */\n      tag_43\n      swap2\n      swap1\n      tag_42\n      jump\t// in\n    tag_43:\n        /* \"contracts/worksystems/RandomAllocator.sol\":884:1047  block.timestamp + uint256(keccak256(abi.encodePacked(getSeed()))) + block.difficulty + ((uint256(keccak256(abi.encodePacked(block.coinbase)))) / (block.timestamp)) */\n      tag_44\n      swap2\n      swap1\n      tag_42\n      jump\t// in\n    tag_44:\n        /* \"contracts/worksystems/RandomAllocator.sol\":867:1048  abi.encodePacked(block.timestamp + uint256(keccak256(abi.encodePacked(getSeed()))) + block.difficulty + ((uint256(keccak256(abi.encodePacked(block.coinbase)))) / (block.timestamp))) */\n      add(0x20, mload(0x40))\n      tag_45\n      swap2\n      swap1\n      tag_40\n      jump\t// in\n    tag_45:\n      0x40\n      dup1\n      mload\n      not(0x1f)\n      dup2\n      dup5\n      sub\n      add\n      dup2\n      mstore\n      swap2\n      swap1\n      mstore\n        /* \"contracts/worksystems/RandomAllocator.sol\":857:1049  keccak256(abi.encodePacked(block.timestamp + uint256(keccak256(abi.encodePacked(getSeed()))) + block.difficulty + ((uint256(keccak256(abi.encodePacked(block.coinbase)))) / (block.timestamp)))) */\n      dup1\n      mload\n        /* \"contracts/worksystems/RandomAllocator.sol\":867:1048  abi.encodePacked(block.timestamp + uint256(keccak256(abi.encodePacked(getSeed()))) + block.difficulty + ((uint256(keccak256(abi.encodePacked(block.coinbase)))) / (block.timestamp))) */\n      0x20\n        /* \"contracts/worksystems/RandomAllocator.sol\":857:1049  keccak256(abi.encodePacked(block.timestamp + uint256(keccak256(abi.encodePacked(getSeed()))) + block.difficulty + ((uint256(keccak256(abi.encodePacked(block.coinbase)))) / (block.timestamp)))) */\n      swap1\n      swap2\n      add\n      keccak256\n      swap2\n      pop\n      pop\n        /* \"contracts/worksystems/RandomAllocator.sol\":776:1077  function getRandom() public view returns (uint256){\r... */\n      swap1\n      jump\t// out\n        /* \"contracts/worksystems/RandomAllocator.sol\":1164:2250  function generateIntegers(uint256 _k, uint256 N_range) public view returns (uint256[] memory){\r... */\n    tag_19:\n        /* \"contracts/worksystems/RandomAllocator.sol\":1240:1256  uint256[] memory */\n      0x60\n        /* \"contracts/worksystems/RandomAllocator.sol\":1313:1314  0 */\n      0x00\n        /* \"contracts/worksystems/RandomAllocator.sol\":1303:1310  N_range */\n      dup3\n        /* \"contracts/worksystems/RandomAllocator.sol\":1303:1314  N_range > 0 */\n      gt\n        /* \"contracts/worksystems/RandomAllocator.sol\":1295:1315  require(N_range > 0) */\n      tag_49\n      jumpi\n      0x00\n      dup1\n      revert\n    tag_49:\n        /* \"contracts/worksystems/RandomAllocator.sol\":1338:1350  uint256 seed */\n      0x00\n        /* \"contracts/worksystems/RandomAllocator.sol\":1492:1506  block.coinbase */\n      coinbase\n        /* \"contracts/worksystems/RandomAllocator.sol\":1475:1507  abi.encodePacked(block.coinbase) */\n      add(0x20, mload(0x40))\n      tag_50\n      swap2\n      swap1\n      tag_35\n      jump\t// in\n    tag_50:\n      mload(0x40)\n      0x20\n      dup2\n      dup4\n      sub\n      sub\n      dup2\n      mstore\n      swap1\n      0x40\n      mstore\n        /* \"contracts/worksystems/RandomAllocator.sol\":1465:1508  keccak256(abi.encodePacked(block.coinbase)) */\n      dup1\n      mload\n      swap1\n      0x20\n      add\n      keccak256\n        /* \"contracts/worksystems/RandomAllocator.sol\":1457:1509  uint256(keccak256(abi.encodePacked(block.coinbase))) */\n      0x00\n      shr\n        /* \"contracts/worksystems/RandomAllocator.sol\":1441:1450  getSeed() */\n      tag_51\n        /* \"contracts/worksystems/RandomAllocator.sol\":1441:1448  getSeed */\n      tag_9\n        /* \"contracts/worksystems/RandomAllocator.sol\":1441:1450  getSeed() */\n      jump\t// in\n    tag_51:\n        /* \"contracts/worksystems/RandomAllocator.sol\":1424:1451  abi.encodePacked(getSeed()) */\n      add(0x20, mload(0x40))\n      tag_52\n      swap2\n      swap1\n      tag_40\n      jump\t// in\n    tag_52:\n      0x40\n      dup1\n      mload\n      not(0x1f)\n      dup2\n      dup5\n      sub\n      add\n      dup2\n      mstore\n      swap2\n      swap1\n      mstore\n        /* \"contracts/worksystems/RandomAllocator.sol\":1414:1452  keccak256(abi.encodePacked(getSeed())) */\n      dup1\n      mload\n        /* \"contracts/worksystems/RandomAllocator.sol\":1424:1451  abi.encodePacked(getSeed()) */\n      0x20\n        /* \"contracts/worksystems/RandomAllocator.sol\":1414:1452  keccak256(abi.encodePacked(getSeed())) */\n      swap1\n      swap2\n      add\n      keccak256\n        /* \"contracts/worksystems/RandomAllocator.sol\":1388:1453  block.timestamp + uint256(keccak256(abi.encodePacked(getSeed()))) */\n      tag_53\n      swap1\n        /* \"contracts/worksystems/RandomAllocator.sol\":1388:1403  block.timestamp */\n      timestamp\n        /* \"contracts/worksystems/RandomAllocator.sol\":1388:1453  block.timestamp + uint256(keccak256(abi.encodePacked(getSeed()))) */\n      tag_42\n      jump\t// in\n    tag_53:\n        /* \"contracts/worksystems/RandomAllocator.sol\":1388:1511  block.timestamp + uint256(keccak256(abi.encodePacked(getSeed())))+ ((uint256(keccak256(abi.encodePacked(block.coinbase))))) */\n      tag_54\n      swap2\n      swap1\n      tag_42\n      jump\t// in\n    tag_54:\n        /* \"contracts/worksystems/RandomAllocator.sol\":1371:1512  abi.encodePacked(block.timestamp + uint256(keccak256(abi.encodePacked(getSeed())))+ ((uint256(keccak256(abi.encodePacked(block.coinbase)))))) */\n      add(0x20, mload(0x40))\n      tag_55\n      swap2\n      swap1\n      tag_40\n      jump\t// in\n    tag_55:\n      mload(0x40)\n      0x20\n      dup2\n      dup4\n      sub\n      sub\n      dup2\n      mstore\n      swap1\n      0x40\n      mstore\n        /* \"contracts/worksystems/RandomAllocator.sol\":1361:1513  keccak256(abi.encodePacked(block.timestamp + uint256(keccak256(abi.encodePacked(getSeed())))+ ((uint256(keccak256(abi.encodePacked(block.coinbase))))))) */\n      dup1\n      mload\n      swap1\n      0x20\n      add\n      keccak256\n        /* \"contracts/worksystems/RandomAllocator.sol\":1353:1514  uint256(keccak256(abi.encodePacked(block.timestamp + uint256(keccak256(abi.encodePacked(getSeed())))+ ((uint256(keccak256(abi.encodePacked(block.coinbase)))))))) */\n      0x00\n      shr\n        /* \"contracts/worksystems/RandomAllocator.sol\":1338:1514  uint256 seed = uint256(keccak256(abi.encodePacked(block.timestamp + uint256(keccak256(abi.encodePacked(getSeed())))+ ((uint256(keccak256(abi.encodePacked(block.coinbase)))))))) */\n      swap1\n      pop\n        /* \"contracts/worksystems/RandomAllocator.sol\":1558:1583  uint256[] memory integers */\n      0x00\n        /* \"contracts/worksystems/RandomAllocator.sol\":1600:1602  _k */\n      dup5\n        /* \"contracts/worksystems/RandomAllocator.sol\":1586:1603  new uint256[](_k) */\n      0xffffffffffffffff\n      dup2\n      gt\n      iszero\n      tag_56\n      jumpi\n      mstore(0x00, shl(0xe0, 0x4e487b71))\n      mstore(0x04, 0x41)\n      revert(0x00, 0x24)\n    tag_56:\n      mload(0x40)\n      swap1\n      dup1\n      dup3\n      mstore\n      dup1\n      0x20\n      mul\n      0x20\n      add\n      dup3\n      add\n      0x40\n      mstore\n      dup1\n      iszero\n      tag_57\n      jumpi\n      dup2\n      0x20\n      add\n      0x20\n      dup3\n      mul\n      dup1\n      calldatasize\n      dup4\n      calldatacopy\n      add\n      swap1\n      pop\n    tag_57:\n      pop\n        /* \"contracts/worksystems/RandomAllocator.sol\":1558:1603  uint256[] memory integers = new uint256[](_k) */\n      swap1\n      pop\n        /* \"contracts/worksystems/RandomAllocator.sol\":1616:1625  uint256 c */\n      0x00\n        /* \"contracts/worksystems/RandomAllocator.sol\":1640:1649  uint256 l */\n      dup1\n        /* \"contracts/worksystems/RandomAllocator.sol\":1664:2215  while( c < _k ){\r... */\n    tag_58:\n        /* \"contracts/worksystems/RandomAllocator.sol\":1675:1677  _k */\n      dup7\n        /* \"contracts/worksystems/RandomAllocator.sol\":1671:1672  c */\n      dup3\n        /* \"contracts/worksystems/RandomAllocator.sol\":1671:1677  c < _k */\n      lt\n        /* \"contracts/worksystems/RandomAllocator.sol\":1664:2215  while( c < _k ){\r... */\n      iszero\n      tag_59\n      jumpi\n        /* \"contracts/worksystems/RandomAllocator.sol\":1694:1712  uint256 randNumber */\n      0x00\n        /* \"contracts/worksystems/RandomAllocator.sol\":1773:1780  N_range */\n      dup7\n        /* \"contracts/worksystems/RandomAllocator.sol\":1751:1764  seed-25100011 */\n      tag_60\n        /* \"contracts/worksystems/RandomAllocator.sol\":1756:1764  25100011 */\n      0x017efeeb\n        /* \"contracts/worksystems/RandomAllocator.sol\":1751:1755  seed */\n      dup8\n        /* \"contracts/worksystems/RandomAllocator.sol\":1751:1764  seed-25100011 */\n      tag_61\n      jump\t// in\n    tag_60:\n        /* \"contracts/worksystems/RandomAllocator.sol\":1765:1766  l */\n      dup4\n        /* \"contracts/worksystems/RandomAllocator.sol\":1734:1767  abi.encodePacked(seed-25100011,l) */\n      add(0x20, mload(0x40))\n      tag_62\n      swap3\n      swap2\n      swap1\n      tag_63\n      jump\t// in\n    tag_62:\n      mload(0x40)\n      0x20\n      dup2\n      dup4\n      sub\n      sub\n      dup2\n      mstore\n      swap1\n      0x40\n      mstore\n        /* \"contracts/worksystems/RandomAllocator.sol\":1724:1768  keccak256(abi.encodePacked(seed-25100011,l)) */\n      dup1\n      mload\n      swap1\n      0x20\n      add\n      keccak256\n        /* \"contracts/worksystems/RandomAllocator.sol\":1716:1769  uint256(keccak256(abi.encodePacked(seed-25100011,l))) */\n      0x00\n      shr\n        /* \"contracts/worksystems/RandomAllocator.sol\":1715:1780  (uint256(keccak256(abi.encodePacked(seed-25100011,l)))) % N_range */\n      tag_64\n      swap2\n      swap1\n      tag_65\n      jump\t// in\n    tag_64:\n        /* \"contracts/worksystems/RandomAllocator.sol\":1694:1780  uint256 randNumber = (uint256(keccak256(abi.encodePacked(seed-25100011,l)))) % N_range */\n      swap1\n      pop\n        /* \"contracts/worksystems/RandomAllocator.sol\":1795:1814  bool already_exists */\n      0x00\n        /* \"contracts/worksystems/RandomAllocator.sol\":1841:1850  uint256 i */\n      dup1\n        /* \"contracts/worksystems/RandomAllocator.sol\":1837:2023  for(uint256 i = 0; i < c ; i++){\r... */\n    tag_66:\n        /* \"contracts/worksystems/RandomAllocator.sol\":1860:1861  c */\n      dup5\n        /* \"contracts/worksystems/RandomAllocator.sol\":1856:1857  i */\n      dup2\n        /* \"contracts/worksystems/RandomAllocator.sol\":1856:1861  i < c */\n      lt\n        /* \"contracts/worksystems/RandomAllocator.sol\":1837:2023  for(uint256 i = 0; i < c ; i++){\r... */\n      iszero\n      tag_67\n      jumpi\n        /* \"contracts/worksystems/RandomAllocator.sol\":1905:1915  randNumber */\n      dup3\n        /* \"contracts/worksystems/RandomAllocator.sol\":1890:1898  integers */\n      dup7\n        /* \"contracts/worksystems/RandomAllocator.sol\":1899:1900  i */\n      dup3\n        /* \"contracts/worksystems/RandomAllocator.sol\":1890:1901  integers[i] */\n      dup2\n      mload\n      dup2\n      lt\n      tag_69\n      jumpi\n      mstore(0x00, shl(0xe0, 0x4e487b71))\n      mstore(0x04, 0x32)\n      revert(0x00, 0x24)\n    tag_69:\n      0x20\n      mul\n      0x20\n      add\n      add\n      mload\n        /* \"contracts/worksystems/RandomAllocator.sol\":1890:1915  integers[i] == randNumber */\n      eq\n        /* \"contracts/worksystems/RandomAllocator.sol\":1887:2008  if(integers[i] == randNumber){\r... */\n      iszero\n      tag_70\n      jumpi\n        /* \"contracts/worksystems/RandomAllocator.sol\":1956:1960  true */\n      0x01\n        /* \"contracts/worksystems/RandomAllocator.sol\":1939:1960  already_exists = true */\n      swap2\n      pop\n        /* \"contracts/worksystems/RandomAllocator.sol\":1983:1988  break */\n      jump(tag_67)\n        /* \"contracts/worksystems/RandomAllocator.sol\":1887:2008  if(integers[i] == randNumber){\r... */\n    tag_70:\n        /* \"contracts/worksystems/RandomAllocator.sol\":1864:1867  i++ */\n      dup1\n      tag_71\n      dup2\n      tag_72\n      jump\t// in\n    tag_71:\n      swap2\n      pop\n      pop\n        /* \"contracts/worksystems/RandomAllocator.sol\":1837:2023  for(uint256 i = 0; i < c ; i++){\r... */\n      jump(tag_66)\n    tag_67:\n      pop\n        /* \"contracts/worksystems/RandomAllocator.sol\":2041:2055  already_exists */\n      dup1\n        /* \"contracts/worksystems/RandomAllocator.sol\":2037:2180  if(!already_exists){\r... */\n      tag_73\n      jumpi\n        /* \"contracts/worksystems/RandomAllocator.sol\":2089:2099  randNumber */\n      dup2\n        /* \"contracts/worksystems/RandomAllocator.sol\":2075:2083  integers */\n      dup6\n        /* \"contracts/worksystems/RandomAllocator.sol\":2084:2085  c */\n      dup6\n        /* \"contracts/worksystems/RandomAllocator.sol\":2075:2086  integers[c] */\n      dup2\n      mload\n      dup2\n      lt\n      tag_74\n      jumpi\n      mstore(0x00, shl(0xe0, 0x4e487b71))\n      mstore(0x04, 0x32)\n      revert(0x00, 0x24)\n    tag_74:\n      0x20\n      swap1\n      dup2\n      mul\n      swap2\n      swap1\n      swap2\n      add\n      add\n        /* \"contracts/worksystems/RandomAllocator.sol\":2075:2099  integers[c] = randNumber */\n      mstore\n        /* \"contracts/worksystems/RandomAllocator.sol\":2159:2164  c + 1 */\n      tag_75\n        /* \"contracts/worksystems/RandomAllocator.sol\":2159:2160  c */\n      dup5\n        /* \"contracts/worksystems/RandomAllocator.sol\":2163:2164  1 */\n      0x01\n        /* \"contracts/worksystems/RandomAllocator.sol\":2159:2164  c + 1 */\n      tag_42\n      jump\t// in\n    tag_75:\n        /* \"contracts/worksystems/RandomAllocator.sol\":2155:2164  c = c + 1 */\n      swap4\n      pop\n        /* \"contracts/worksystems/RandomAllocator.sol\":2037:2180  if(!already_exists){\r... */\n    tag_73:\n        /* \"contracts/worksystems/RandomAllocator.sol\":2198:2203  l + 1 */\n      tag_76\n        /* \"contracts/worksystems/RandomAllocator.sol\":2198:2199  l */\n      dup4\n        /* \"contracts/worksystems/RandomAllocator.sol\":2202:2203  1 */\n      0x01\n        /* \"contracts/worksystems/RandomAllocator.sol\":2198:2203  l + 1 */\n      tag_42\n      jump\t// in\n    tag_76:\n        /* \"contracts/worksystems/RandomAllocator.sol\":2194:2203  l = l + 1 */\n      swap3\n      pop\n        /* \"contracts/worksystems/RandomAllocator.sol\":1664:2215  while( c < _k ){\r... */\n      pop\n      pop\n      jump(tag_58)\n    tag_59:\n      pop\n        /* \"contracts/worksystems/RandomAllocator.sol\":2234:2242  integers */\n      swap1\n      swap6\n        /* \"contracts/worksystems/RandomAllocator.sol\":1164:2250  function generateIntegers(uint256 _k, uint256 N_range) public view returns (uint256[] memory){\r... */\n      swap5\n      pop\n      pop\n      pop\n      pop\n      pop\n      jump\t// out\n        /* \"contracts/worksystems/RandomAllocator.sol\":3718:4222  function random_selection(uint256 k, uint256 N) public view returns(uint256[] memory){\r... */\n    tag_24:\n        /* \"contracts/worksystems/RandomAllocator.sol\":3786:3802  uint256[] memory */\n      0x60\n        /* \"contracts/worksystems/RandomAllocator.sol\":3829:3830  0 */\n      0x00\n        /* \"contracts/worksystems/RandomAllocator.sol\":3825:3826  N */\n      dup3\n        /* \"contracts/worksystems/RandomAllocator.sol\":3825:3830  N > 0 */\n      gt\n        /* \"contracts/worksystems/RandomAllocator.sol\":3825:3840  N > 0 && k <= N */\n      dup1\n      iszero\n      tag_78\n      jumpi\n      pop\n        /* \"contracts/worksystems/RandomAllocator.sol\":3839:3840  N */\n      dup2\n        /* \"contracts/worksystems/RandomAllocator.sol\":3834:3835  k */\n      dup4\n        /* \"contracts/worksystems/RandomAllocator.sol\":3834:3840  k <= N */\n      gt\n      iszero\n        /* \"contracts/worksystems/RandomAllocator.sol\":3825:3840  N > 0 && k <= N */\n    tag_78:\n        /* \"contracts/worksystems/RandomAllocator.sol\":3825:3850  N > 0 && k <= N && k >= 1 */\n      dup1\n      iszero\n      tag_79\n      jumpi\n      pop\n        /* \"contracts/worksystems/RandomAllocator.sol\":3849:3850  1 */\n      0x01\n        /* \"contracts/worksystems/RandomAllocator.sol\":3844:3845  k */\n      dup4\n        /* \"contracts/worksystems/RandomAllocator.sol\":3844:3850  k >= 1 */\n      lt\n      iszero\n        /* \"contracts/worksystems/RandomAllocator.sol\":3825:3850  N > 0 && k <= N && k >= 1 */\n    tag_79:\n        /* \"contracts/worksystems/RandomAllocator.sol\":3814:3897  require(   N > 0 && k <= N && k >= 1 ,\"k or N are not OK during random selection\" ) */\n      tag_80\n      jumpi\n      mload(0x40)\n      shl(0xe5, 0x461bcd)\n      dup2\n      mstore\n      0x04\n      add\n      tag_81\n      swap1\n      tag_82\n      jump\t// in\n    tag_81:\n      mload(0x40)\n      dup1\n      swap2\n      sub\n      swap1\n      revert\n    tag_80:\n        /* \"contracts/worksystems/RandomAllocator.sol\":3908:3935  uint256[] memory indexArray */\n      0x00\n        /* \"contracts/worksystems/RandomAllocator.sol\":3952:3953  N */\n      dup3\n        /* \"contracts/worksystems/RandomAllocator.sol\":3938:3954  new uint256[](N) */\n      0xffffffffffffffff\n      dup2\n      gt\n      iszero\n      tag_83\n      jumpi\n      mstore(0x00, shl(0xe0, 0x4e487b71))\n      mstore(0x04, 0x41)\n      revert(0x00, 0x24)\n    tag_83:\n      mload(0x40)\n      swap1\n      dup1\n      dup3\n      mstore\n      dup1\n      0x20\n      mul\n      0x20\n      add\n      dup3\n      add\n      0x40\n      mstore\n      dup1\n      iszero\n      tag_84\n      jumpi\n      dup2\n      0x20\n      add\n      0x20\n      dup3\n      mul\n      dup1\n      calldatasize\n      dup4\n      calldatacopy\n      add\n      swap1\n      pop\n    tag_84:\n      pop\n        /* \"contracts/worksystems/RandomAllocator.sol\":3908:3954  uint256[] memory indexArray = new uint256[](N) */\n      swap1\n      pop\n        /* \"contracts/worksystems/RandomAllocator.sol\":3965:3993  uint256[] memory resultArray */\n      0x00\n        /* \"contracts/worksystems/RandomAllocator.sol\":4010:4011  k */\n      dup5\n        /* \"contracts/worksystems/RandomAllocator.sol\":3996:4012  new uint256[](k) */\n      0xffffffffffffffff\n      dup2\n      gt\n      iszero\n      tag_85\n      jumpi\n      mstore(0x00, shl(0xe0, 0x4e487b71))\n      mstore(0x04, 0x41)\n      revert(0x00, 0x24)\n    tag_85:\n      mload(0x40)\n      swap1\n      dup1\n      dup3\n      mstore\n      dup1\n      0x20\n      mul\n      0x20\n      add\n      dup3\n      add\n      0x40\n      mstore\n      dup1\n      iszero\n      tag_86\n      jumpi\n      dup2\n      0x20\n      add\n      0x20\n      dup3\n      mul\n      dup1\n      calldatasize\n      dup4\n      calldatacopy\n      add\n      swap1\n      pop\n    tag_86:\n      pop\n        /* \"contracts/worksystems/RandomAllocator.sol\":3965:4012  uint256[] memory resultArray = new uint256[](k) */\n      swap1\n      pop\n        /* \"contracts/worksystems/RandomAllocator.sol\":4023:4045  uint256[] memory array */\n      0x00\n        /* \"contracts/worksystems/RandomAllocator.sol\":4048:4093  shuffle_array_(reset_index_array(indexArray)) */\n      tag_87\n        /* \"contracts/worksystems/RandomAllocator.sol\":4063:4092  reset_index_array(indexArray) */\n      tag_88\n        /* \"contracts/worksystems/RandomAllocator.sol\":4081:4091  indexArray */\n      dup5\n        /* \"contracts/worksystems/RandomAllocator.sol\":4063:4080  reset_index_array */\n      tag_89\n        /* \"contracts/worksystems/RandomAllocator.sol\":4063:4092  reset_index_array(indexArray) */\n      jump\t// in\n    tag_88:\n        /* \"contracts/worksystems/RandomAllocator.sol\":4048:4062  shuffle_array_ */\n      tag_90\n        /* \"contracts/worksystems/RandomAllocator.sol\":4048:4093  shuffle_array_(reset_index_array(indexArray)) */\n      jump\t// in\n    tag_87:\n        /* \"contracts/worksystems/RandomAllocator.sol\":4023:4093  uint256[] memory array = shuffle_array_(reset_index_array(indexArray)) */\n      swap1\n      pop\n        /* \"contracts/worksystems/RandomAllocator.sol\":4108:4117  uint256 i */\n      0x00\n        /* \"contracts/worksystems/RandomAllocator.sol\":4104:4186  for(uint256 i = 0; i < k; i++){\r... */\n    tag_91:\n        /* \"contracts/worksystems/RandomAllocator.sol\":4127:4128  k */\n      dup7\n        /* \"contracts/worksystems/RandomAllocator.sol\":4123:4124  i */\n      dup2\n        /* \"contracts/worksystems/RandomAllocator.sol\":4123:4128  i < k */\n      lt\n        /* \"contracts/worksystems/RandomAllocator.sol\":4104:4186  for(uint256 i = 0; i < k; i++){\r... */\n      iszero\n      tag_59\n      jumpi\n        /* \"contracts/worksystems/RandomAllocator.sol\":4166:4171  array */\n      dup2\n        /* \"contracts/worksystems/RandomAllocator.sol\":4172:4173  i */\n      dup2\n        /* \"contracts/worksystems/RandomAllocator.sol\":4166:4174  array[i] */\n      dup2\n      mload\n      dup2\n      lt\n      tag_94\n      jumpi\n      mstore(0x00, shl(0xe0, 0x4e487b71))\n      mstore(0x04, 0x32)\n      revert(0x00, 0x24)\n    tag_94:\n      0x20\n      mul\n      0x20\n      add\n      add\n      mload\n        /* \"contracts/worksystems/RandomAllocator.sol\":4149:4160  resultArray */\n      dup4\n        /* \"contracts/worksystems/RandomAllocator.sol\":4161:4162  i */\n      dup3\n        /* \"contracts/worksystems/RandomAllocator.sol\":4149:4163  resultArray[i] */\n      dup2\n      mload\n      dup2\n      lt\n      tag_95\n      jumpi\n      mstore(0x00, shl(0xe0, 0x4e487b71))\n      mstore(0x04, 0x32)\n      revert(0x00, 0x24)\n    tag_95:\n      0x20\n      swap1\n      dup2\n      mul\n      swap2\n      swap1\n      swap2\n      add\n      add\n        /* \"contracts/worksystems/RandomAllocator.sol\":4149:4174  resultArray[i] = array[i] */\n      mstore\n        /* \"contracts/worksystems/RandomAllocator.sol\":4130:4133  i++ */\n      dup1\n      tag_96\n      dup2\n      tag_72\n      jump\t// in\n    tag_96:\n      swap2\n      pop\n      pop\n        /* \"contracts/worksystems/RandomAllocator.sol\":4104:4186  for(uint256 i = 0; i < k; i++){\r... */\n      jump(tag_91)\n        /* \"contracts/worksystems/RandomAllocator.sol\":3382:3708  function shuffle_array(uint256 N) public view returns(uint256[] memory){\r... */\n    tag_29:\n        /* \"contracts/worksystems/RandomAllocator.sol\":3436:3452  uint256[] memory */\n      0x60\n        /* \"contracts/worksystems/RandomAllocator.sol\":3476:3477  0 */\n      0x00\n        /* \"contracts/worksystems/RandomAllocator.sol\":3472:3473  N */\n      dup3\n        /* \"contracts/worksystems/RandomAllocator.sol\":3472:3477  N > 0 */\n      gt\n        /* \"contracts/worksystems/RandomAllocator.sol\":3464:3478  require(N > 0) */\n      tag_98\n      jumpi\n      0x00\n      dup1\n      revert\n    tag_98:\n        /* \"contracts/worksystems/RandomAllocator.sol\":3489:3516  uint256[] memory indexArray */\n      0x00\n        /* \"contracts/worksystems/RandomAllocator.sol\":3533:3534  N */\n      dup3\n        /* \"contracts/worksystems/RandomAllocator.sol\":3519:3535  new uint256[](N) */\n      0xffffffffffffffff\n      dup2\n      gt\n      iszero\n      tag_99\n      jumpi\n      mstore(0x00, shl(0xe0, 0x4e487b71))\n      mstore(0x04, 0x41)\n      revert(0x00, 0x24)\n    tag_99:\n      mload(0x40)\n      swap1\n      dup1\n      dup3\n      mstore\n      dup1\n      0x20\n      mul\n      0x20\n      add\n      dup3\n      add\n      0x40\n      mstore\n      dup1\n      iszero\n      tag_100\n      jumpi\n      dup2\n      0x20\n      add\n      0x20\n      dup3\n      mul\n      dup1\n      calldatasize\n      dup4\n      calldatacopy\n      add\n      swap1\n      pop\n    tag_100:\n      pop\n        /* \"contracts/worksystems/RandomAllocator.sol\":3489:3535  uint256[] memory indexArray = new uint256[](N) */\n      swap1\n      pop\n        /* \"contracts/worksystems/RandomAllocator.sol\":3546:3569  uint256[] memory  array */\n      0x00\n        /* \"contracts/worksystems/RandomAllocator.sol\":3572:3617  shuffle_array_(reset_index_array(indexArray)) */\n      tag_101\n        /* \"contracts/worksystems/RandomAllocator.sol\":3587:3616  reset_index_array(indexArray) */\n      tag_88\n        /* \"contracts/worksystems/RandomAllocator.sol\":3605:3615  indexArray */\n      dup4\n        /* \"contracts/worksystems/RandomAllocator.sol\":3587:3604  reset_index_array */\n      tag_89\n        /* \"contracts/worksystems/RandomAllocator.sol\":3587:3616  reset_index_array(indexArray) */\n      jump\t// in\n        /* \"contracts/worksystems/RandomAllocator.sol\":3572:3617  shuffle_array_(reset_index_array(indexArray)) */\n    tag_101:\n        /* \"contracts/worksystems/RandomAllocator.sol\":3546:3617  uint256[] memory  array = shuffle_array_(reset_index_array(indexArray)) */\n      swap5\n        /* \"contracts/worksystems/RandomAllocator.sol\":3382:3708  function shuffle_array(uint256 N) public view returns(uint256[] memory){\r... */\n      swap4\n      pop\n      pop\n      pop\n      pop\n      jump\t// out\n        /* \"contracts/worksystems/RandomAllocator.sol\":3067:3372  function reset_index_array(uint256[] memory _myArray) private pure returns(uint256[] memory){\r... */\n    tag_89:\n        /* \"contracts/worksystems/RandomAllocator.sol\":3182:3197  _myArray.length */\n      dup1\n      mload\n        /* \"contracts/worksystems/RandomAllocator.sol\":3142:3158  uint256[] memory */\n      0x60\n      swap1\n        /* \"contracts/worksystems/RandomAllocator.sol\":3170:3179  uint256 N */\n      0x00\n        /* \"contracts/worksystems/RandomAllocator.sol\":3208:3279  for(uint256 i = 0; i<N ; i++){\r... */\n    tag_104:\n        /* \"contracts/worksystems/RandomAllocator.sol\":3229:3230  N */\n      dup2\n        /* \"contracts/worksystems/RandomAllocator.sol\":3227:3228  i */\n      dup2\n        /* \"contracts/worksystems/RandomAllocator.sol\":3227:3230  i<N */\n      lt\n        /* \"contracts/worksystems/RandomAllocator.sol\":3208:3279  for(uint256 i = 0; i<N ; i++){\r... */\n      iszero\n      tag_105\n      jumpi\n        /* \"contracts/worksystems/RandomAllocator.sol\":3266:3267  i */\n      dup1\n        /* \"contracts/worksystems/RandomAllocator.sol\":3252:3260  _myArray */\n      dup5\n        /* \"contracts/worksystems/RandomAllocator.sol\":3261:3262  i */\n      dup3\n        /* \"contracts/worksystems/RandomAllocator.sol\":3252:3263  _myArray[i] */\n      dup2\n      mload\n      dup2\n      lt\n      tag_107\n      jumpi\n      mstore(0x00, shl(0xe0, 0x4e487b71))\n      mstore(0x04, 0x32)\n      revert(0x00, 0x24)\n    tag_107:\n      0x20\n      swap1\n      dup2\n      mul\n      swap2\n      swap1\n      swap2\n      add\n      add\n        /* \"contracts/worksystems/RandomAllocator.sol\":3252:3267  _myArray[i] = i */\n      mstore\n        /* \"contracts/worksystems/RandomAllocator.sol\":3233:3236  i++ */\n      dup1\n      tag_108\n      dup2\n      tag_72\n      jump\t// in\n    tag_108:\n      swap2\n      pop\n      pop\n        /* \"contracts/worksystems/RandomAllocator.sol\":3208:3279  for(uint256 i = 0; i<N ; i++){\r... */\n      jump(tag_104)\n    tag_105:\n      pop\n        /* \"contracts/worksystems/RandomAllocator.sol\":3332:3340  _myArray */\n      swap2\n      swap3\n        /* \"contracts/worksystems/RandomAllocator.sol\":3067:3372  function reset_index_array(uint256[] memory _myArray) private pure returns(uint256[] memory){\r... */\n      swap2\n      pop\n      pop\n      jump\t// out\n        /* \"contracts/worksystems/RandomAllocator.sol\":2338:2975  function shuffle_array_(uint256[] memory _myArray) private view returns(uint256[] memory){\r... */\n    tag_90:\n        /* \"contracts/worksystems/RandomAllocator.sol\":2410:2426  uint256[] memory */\n      0x60\n        /* \"contracts/worksystems/RandomAllocator.sol\":2464:2465  0 */\n      0x00\n        /* \"contracts/worksystems/RandomAllocator.sol\":2446:2454  _myArray */\n      dup3\n        /* \"contracts/worksystems/RandomAllocator.sol\":2446:2461  _myArray.length */\n      mload\n        /* \"contracts/worksystems/RandomAllocator.sol\":2446:2465  _myArray.length > 0 */\n      gt\n        /* \"contracts/worksystems/RandomAllocator.sol\":2438:2466  require(_myArray.length > 0) */\n      tag_110\n      jumpi\n      0x00\n      dup1\n      revert\n    tag_110:\n        /* \"contracts/worksystems/RandomAllocator.sol\":2489:2504  _myArray.length */\n      dup2\n      mload\n      dup1\n        /* \"contracts/worksystems/RandomAllocator.sol\":2477:2486  uint256 a */\n      0x00\n        /* \"contracts/worksystems/RandomAllocator.sol\":2553:2882  for(uint256 i = 0; i< b ; i++){\r... */\n    tag_111:\n        /* \"contracts/worksystems/RandomAllocator.sol\":2575:2576  b */\n      dup2\n        /* \"contracts/worksystems/RandomAllocator.sol\":2572:2573  i */\n      dup2\n        /* \"contracts/worksystems/RandomAllocator.sol\":2572:2576  i< b */\n      lt\n        /* \"contracts/worksystems/RandomAllocator.sol\":2553:2882  for(uint256 i = 0; i< b ; i++){\r... */\n      iszero\n      tag_112\n      jumpi\n        /* \"contracts/worksystems/RandomAllocator.sol\":2598:2616  uint256 randNumber */\n      0x00\n        /* \"contracts/worksystems/RandomAllocator.sol\":2697:2698  a */\n      dup4\n        /* \"contracts/worksystems/RandomAllocator.sol\":2668:2679  getRandom() */\n      tag_114\n        /* \"contracts/worksystems/RandomAllocator.sol\":2668:2677  getRandom */\n      tag_13\n        /* \"contracts/worksystems/RandomAllocator.sol\":2668:2679  getRandom() */\n      jump\t// in\n    tag_114:\n        /* \"contracts/worksystems/RandomAllocator.sol\":2680:2688  _myArray */\n      dup8\n        /* \"contracts/worksystems/RandomAllocator.sol\":2689:2690  i */\n      dup5\n        /* \"contracts/worksystems/RandomAllocator.sol\":2680:2691  _myArray[i] */\n      dup2\n      mload\n      dup2\n      lt\n      tag_115\n      jumpi\n      mstore(0x00, shl(0xe0, 0x4e487b71))\n      mstore(0x04, 0x32)\n      revert(0x00, 0x24)\n    tag_115:\n      0x20\n      mul\n      0x20\n      add\n      add\n      mload\n        /* \"contracts/worksystems/RandomAllocator.sol\":2651:2692  abi.encodePacked(getRandom(),_myArray[i]) */\n      add(0x20, mload(0x40))\n      tag_116\n      swap3\n      swap2\n      swap1\n      tag_63\n      jump\t// in\n    tag_116:\n      mload(0x40)\n      0x20\n      dup2\n      dup4\n      sub\n      sub\n      dup2\n      mstore\n      swap1\n      0x40\n      mstore\n        /* \"contracts/worksystems/RandomAllocator.sol\":2627:2693  keccak256\r... */\n      dup1\n      mload\n      swap1\n      0x20\n      add\n      keccak256\n        /* \"contracts/worksystems/RandomAllocator.sol\":2619:2694  uint256(keccak256\r... */\n      0x00\n      shr\n        /* \"contracts/worksystems/RandomAllocator.sol\":2619:2698  uint256(keccak256\r... */\n      tag_117\n      swap2\n      swap1\n      tag_65\n      jump\t// in\n    tag_117:\n        /* \"contracts/worksystems/RandomAllocator.sol\":2618:2701  (uint256(keccak256\r... */\n      tag_118\n      swap1\n        /* \"contracts/worksystems/RandomAllocator.sol\":2700:2701  1 */\n      0x01\n        /* \"contracts/worksystems/RandomAllocator.sol\":2618:2701  (uint256(keccak256\r... */\n      tag_42\n      jump\t// in\n    tag_118:\n        /* \"contracts/worksystems/RandomAllocator.sol\":2598:2701  uint256 randNumber =(uint256(keccak256\r... */\n      swap1\n      pop\n        /* \"contracts/worksystems/RandomAllocator.sol\":2716:2731  uint256 interim */\n      0x00\n        /* \"contracts/worksystems/RandomAllocator.sol\":2734:2742  _myArray */\n      dup7\n        /* \"contracts/worksystems/RandomAllocator.sol\":2743:2757  randNumber - 1 */\n      tag_119\n        /* \"contracts/worksystems/RandomAllocator.sol\":2756:2757  1 */\n      0x01\n        /* \"contracts/worksystems/RandomAllocator.sol\":2598:2701  uint256 randNumber =(uint256(keccak256\r... */\n      dup5\n        /* \"contracts/worksystems/RandomAllocator.sol\":2743:2757  randNumber - 1 */\n      tag_61\n      jump\t// in\n    tag_119:\n        /* \"contracts/worksystems/RandomAllocator.sol\":2734:2758  _myArray[randNumber - 1] */\n      dup2\n      mload\n      dup2\n      lt\n      tag_120\n      jumpi\n      mstore(0x00, shl(0xe0, 0x4e487b71))\n      mstore(0x04, 0x32)\n      revert(0x00, 0x24)\n    tag_120:\n      0x20\n      mul\n      0x20\n      add\n      add\n      mload\n        /* \"contracts/worksystems/RandomAllocator.sol\":2716:2758  uint256 interim = _myArray[randNumber - 1] */\n      swap1\n      pop\n        /* \"contracts/worksystems/RandomAllocator.sol\":2797:2805  _myArray */\n      dup7\n        /* \"contracts/worksystems/RandomAllocator.sol\":2808:2809  1 */\n      0x01\n        /* \"contracts/worksystems/RandomAllocator.sol\":2806:2807  a */\n      dup7\n        /* \"contracts/worksystems/RandomAllocator.sol\":2806:2809  a-1 */\n      tag_121\n      swap2\n      swap1\n      tag_61\n      jump\t// in\n    tag_121:\n        /* \"contracts/worksystems/RandomAllocator.sol\":2797:2810  _myArray[a-1] */\n      dup2\n      mload\n      dup2\n      lt\n      tag_122\n      jumpi\n      mstore(0x00, shl(0xe0, 0x4e487b71))\n      mstore(0x04, 0x32)\n      revert(0x00, 0x24)\n    tag_122:\n      0x20\n      mul\n      0x20\n      add\n      add\n      mload\n        /* \"contracts/worksystems/RandomAllocator.sol\":2773:2781  _myArray */\n      dup8\n        /* \"contracts/worksystems/RandomAllocator.sol\":2793:2794  1 */\n      0x01\n        /* \"contracts/worksystems/RandomAllocator.sol\":2782:2792  randNumber */\n      dup5\n        /* \"contracts/worksystems/RandomAllocator.sol\":2782:2794  randNumber-1 */\n      tag_123\n      swap2\n      swap1\n      tag_61\n      jump\t// in\n    tag_123:\n        /* \"contracts/worksystems/RandomAllocator.sol\":2773:2795  _myArray[randNumber-1] */\n      dup2\n      mload\n      dup2\n      lt\n      tag_124\n      jumpi\n      mstore(0x00, shl(0xe0, 0x4e487b71))\n      mstore(0x04, 0x32)\n      revert(0x00, 0x24)\n    tag_124:\n      0x20\n      swap1\n      dup2\n      mul\n      swap2\n      swap1\n      swap2\n      add\n      add\n        /* \"contracts/worksystems/RandomAllocator.sol\":2773:2810  _myArray[randNumber-1]= _myArray[a-1] */\n      mstore\n        /* \"contracts/worksystems/RandomAllocator.sol\":2841:2848  interim */\n      dup1\n        /* \"contracts/worksystems/RandomAllocator.sol\":2825:2833  _myArray */\n      dup8\n        /* \"contracts/worksystems/RandomAllocator.sol\":2834:2837  a-1 */\n      tag_125\n        /* \"contracts/worksystems/RandomAllocator.sol\":2836:2837  1 */\n      0x01\n        /* \"contracts/worksystems/RandomAllocator.sol\":2834:2835  a */\n      dup9\n        /* \"contracts/worksystems/RandomAllocator.sol\":2834:2837  a-1 */\n      tag_61\n      jump\t// in\n    tag_125:\n        /* \"contracts/worksystems/RandomAllocator.sol\":2825:2838  _myArray[a-1] */\n      dup2\n      mload\n      dup2\n      lt\n      tag_126\n      jumpi\n      mstore(0x00, shl(0xe0, 0x4e487b71))\n      mstore(0x04, 0x32)\n      revert(0x00, 0x24)\n    tag_126:\n      0x20\n      swap1\n      dup2\n      mul\n      swap2\n      swap1\n      swap2\n      add\n      add\n        /* \"contracts/worksystems/RandomAllocator.sol\":2825:2848  _myArray[a-1] = interim */\n      mstore\n        /* \"contracts/worksystems/RandomAllocator.sol\":2867:2870  a-1 */\n      tag_127\n        /* \"contracts/worksystems/RandomAllocator.sol\":2869:2870  1 */\n      0x01\n        /* \"contracts/worksystems/RandomAllocator.sol\":2867:2868  a */\n      dup7\n        /* \"contracts/worksystems/RandomAllocator.sol\":2867:2870  a-1 */\n      tag_61\n      jump\t// in\n    tag_127:\n        /* \"contracts/worksystems/RandomAllocator.sol\":2863:2870  a = a-1 */\n      swap5\n      pop\n        /* \"contracts/worksystems/RandomAllocator.sol\":2553:2882  for(uint256 i = 0; i< b ; i++){\r... */\n      pop\n      pop\n        /* \"contracts/worksystems/RandomAllocator.sol\":2579:2582  i++ */\n      dup1\n      dup1\n      tag_128\n      swap1\n      tag_72\n      jump\t// in\n    tag_128:\n      swap2\n      pop\n      pop\n        /* \"contracts/worksystems/RandomAllocator.sol\":2553:2882  for(uint256 i = 0; i< b ; i++){\r... */\n      jump(tag_111)\n    tag_112:\n      pop\n        /* \"contracts/worksystems/RandomAllocator.sol\":2935:2943  _myArray */\n      swap3\n      swap4\n        /* \"contracts/worksystems/RandomAllocator.sol\":2338:2975  function shuffle_array_(uint256[] memory _myArray) private view returns(uint256[] memory){\r... */\n      swap3\n      pop\n      pop\n      pop\n      jump\t// out\n        /* \"#utility.yul\":14:204   */\n    tag_28:\n      0x00\n        /* \"#utility.yul\":126:128   */\n      0x20\n        /* \"#utility.yul\":114:123   */\n      dup3\n        /* \"#utility.yul\":105:112   */\n      dup5\n        /* \"#utility.yul\":101:124   */\n      sub\n        /* \"#utility.yul\":97:129   */\n      slt\n        /* \"#utility.yul\":94:96   */\n      iszero\n      tag_131\n      jumpi\n        /* \"#utility.yul\":147:153   */\n      dup1\n        /* \"#utility.yul\":139:145   */\n      dup2\n        /* \"#utility.yul\":132:154   */\n      revert\n        /* \"#utility.yul\":94:96   */\n    tag_131:\n      pop\n        /* \"#utility.yul\":175:198   */\n      calldataload\n      swap2\n        /* \"#utility.yul\":84:204   */\n      swap1\n      pop\n      jump\t// out\n        /* \"#utility.yul\":209:467   */\n    tag_18:\n      0x00\n      dup1\n        /* \"#utility.yul\":338:340   */\n      0x40\n        /* \"#utility.yul\":326:335   */\n      dup4\n        /* \"#utility.yul\":317:324   */\n      dup6\n        /* \"#utility.yul\":313:336   */\n      sub\n        /* \"#utility.yul\":309:341   */\n      slt\n        /* \"#utility.yul\":306:308   */\n      iszero\n      tag_133\n      jumpi\n        /* \"#utility.yul\":359:365   */\n      dup1\n        /* \"#utility.yul\":351:357   */\n      dup2\n        /* \"#utility.yul\":344:366   */\n      revert\n        /* \"#utility.yul\":306:308   */\n    tag_133:\n      pop\n      pop\n        /* \"#utility.yul\":387:410   */\n      dup1\n      calldataload\n      swap3\n        /* \"#utility.yul\":457:459   */\n      0x20\n        /* \"#utility.yul\":442:460   */\n      swap1\n      swap2\n      add\n        /* \"#utility.yul\":429:461   */\n      calldataload\n      swap2\n      pop\n        /* \"#utility.yul\":296:467   */\n      jump\t// out\n        /* \"#utility.yul\":472:717   */\n    tag_35:\n        /* \"#utility.yul\":637:639   */\n      0x60\n        /* \"#utility.yul\":633:648   */\n      swap2\n      swap1\n      swap2\n      shl\n      not(0xffffffffffffffffffffffff)\n        /* \"#utility.yul\":629:682   */\n      and\n        /* \"#utility.yul\":617:683   */\n      dup2\n      mstore\n        /* \"#utility.yul\":708:710   */\n      0x14\n        /* \"#utility.yul\":699:711   */\n      add\n      swap1\n        /* \"#utility.yul\":607:717   */\n      jump\t// out\n        /* \"#utility.yul\":722:904   */\n    tag_40:\n        /* \"#utility.yul\":851:870   */\n      swap1\n      dup2\n      mstore\n        /* \"#utility.yul\":895:897   */\n      0x20\n        /* \"#utility.yul\":886:898   */\n      add\n      swap1\n        /* \"#utility.yul\":841:904   */\n      jump\t// out\n        /* \"#utility.yul\":1096:1343   */\n    tag_63:\n        /* \"#utility.yul\":1253:1272   */\n      swap2\n      dup3\n      mstore\n        /* \"#utility.yul\":1297:1299   */\n      0x20\n        /* \"#utility.yul\":1288:1300   */\n      dup3\n      add\n        /* \"#utility.yul\":1281:1309   */\n      mstore\n        /* \"#utility.yul\":1334:1336   */\n      0x40\n        /* \"#utility.yul\":1325:1337   */\n      add\n      swap1\n        /* \"#utility.yul\":1243:1343   */\n      jump\t// out\n        /* \"#utility.yul\":1348:1983   */\n    tag_21:\n        /* \"#utility.yul\":1519:1521   */\n      0x20\n        /* \"#utility.yul\":1571:1592   */\n      dup1\n      dup3\n      mstore\n        /* \"#utility.yul\":1641:1654   */\n      dup3\n      mload\n        /* \"#utility.yul\":1544:1562   */\n      dup3\n      dup3\n      add\n        /* \"#utility.yul\":1663:1685   */\n      dup2\n      swap1\n      mstore\n        /* \"#utility.yul\":1348:1983   */\n      0x00\n      swap2\n        /* \"#utility.yul\":1519:1521   */\n      swap1\n        /* \"#utility.yul\":1742:1757   */\n      dup5\n      dup3\n      add\n      swap1\n        /* \"#utility.yul\":1716:1718   */\n      0x40\n        /* \"#utility.yul\":1701:1719   */\n      dup6\n      add\n      swap1\n        /* \"#utility.yul\":1348:1983   */\n      dup5\n        /* \"#utility.yul\":1788:1957   */\n    tag_139:\n        /* \"#utility.yul\":1802:1808   */\n      dup2\n        /* \"#utility.yul\":1799:1800   */\n      dup2\n        /* \"#utility.yul\":1796:1809   */\n      lt\n        /* \"#utility.yul\":1788:1957   */\n      iszero\n      tag_141\n      jumpi\n        /* \"#utility.yul\":1863:1876   */\n      dup4\n      mload\n        /* \"#utility.yul\":1851:1877   */\n      dup4\n      mstore\n        /* \"#utility.yul\":1932:1947   */\n      swap3\n      dup5\n      add\n      swap3\n        /* \"#utility.yul\":1897:1909   */\n      swap2\n      dup5\n      add\n      swap2\n        /* \"#utility.yul\":1824:1825   */\n      0x01\n        /* \"#utility.yul\":1817:1826   */\n      add\n        /* \"#utility.yul\":1788:1957   */\n      jump(tag_139)\n    tag_141:\n      pop\n        /* \"#utility.yul\":1974:1977   */\n      swap1\n      swap7\n        /* \"#utility.yul\":1499:1983   */\n      swap6\n      pop\n      pop\n      pop\n      pop\n      pop\n      pop\n      jump\t// out\n        /* \"#utility.yul\":2170:2575   */\n    tag_82:\n        /* \"#utility.yul\":2372:2374   */\n      0x20\n        /* \"#utility.yul\":2354:2375   */\n      dup1\n      dup3\n      mstore\n        /* \"#utility.yul\":2411:2413   */\n      0x29\n        /* \"#utility.yul\":2391:2409   */\n      swap1\n      dup3\n      add\n        /* \"#utility.yul\":2384:2414   */\n      mstore\n        /* \"#utility.yul\":2450:2484   */\n      0x6b206f72204e20617265206e6f74204f4b20647572696e672072616e646f6d20\n        /* \"#utility.yul\":2445:2447   */\n      0x40\n        /* \"#utility.yul\":2430:2448   */\n      dup3\n      add\n        /* \"#utility.yul\":2423:2485   */\n      mstore\n      shl(0xb9, 0x39b2b632b1ba34b7b7)\n        /* \"#utility.yul\":2516:2518   */\n      0x60\n        /* \"#utility.yul\":2501:2519   */\n      dup3\n      add\n        /* \"#utility.yul\":2494:2533   */\n      mstore\n        /* \"#utility.yul\":2565:2568   */\n      0x80\n        /* \"#utility.yul\":2550:2569   */\n      add\n      swap1\n        /* \"#utility.yul\":2344:2575   */\n      jump\t// out\n        /* \"#utility.yul\":2762:2890   */\n    tag_42:\n      0x00\n        /* \"#utility.yul\":2833:2834   */\n      dup3\n        /* \"#utility.yul\":2829:2835   */\n      not\n        /* \"#utility.yul\":2826:2827   */\n      dup3\n        /* \"#utility.yul\":2823:2836   */\n      gt\n        /* \"#utility.yul\":2820:2822   */\n      iszero\n      tag_147\n      jumpi\n        /* \"#utility.yul\":2839:2857   */\n      tag_147\n      tag_148\n      jump\t// in\n    tag_147:\n      pop\n        /* \"#utility.yul\":2875:2884   */\n      add\n      swap1\n        /* \"#utility.yul\":2810:2890   */\n      jump\t// out\n        /* \"#utility.yul\":2895:3015   */\n    tag_37:\n      0x00\n        /* \"#utility.yul\":2961:2962   */\n      dup3\n        /* \"#utility.yul\":2951:2953   */\n      tag_151\n      jumpi\n        /* \"#utility.yul\":2966:2984   */\n      tag_151\n      tag_152\n      jump\t// in\n    tag_151:\n      pop\n        /* \"#utility.yul\":3000:3009   */\n      div\n      swap1\n        /* \"#utility.yul\":2941:3015   */\n      jump\t// out\n        /* \"#utility.yul\":3020:3145   */\n    tag_61:\n      0x00\n        /* \"#utility.yul\":3088:3089   */\n      dup3\n        /* \"#utility.yul\":3085:3086   */\n      dup3\n        /* \"#utility.yul\":3082:3090   */\n      lt\n        /* \"#utility.yul\":3079:3081   */\n      iszero\n      tag_155\n      jumpi\n        /* \"#utility.yul\":3093:3111   */\n      tag_155\n      tag_148\n      jump\t// in\n    tag_155:\n      pop\n        /* \"#utility.yul\":3130:3139   */\n      sub\n      swap1\n        /* \"#utility.yul\":3069:3145   */\n      jump\t// out\n        /* \"#utility.yul\":3150:3285   */\n    tag_72:\n      0x00\n      not(0x00)\n        /* \"#utility.yul\":3210:3227   */\n      dup3\n      eq\n        /* \"#utility.yul\":3207:3209   */\n      iszero\n      tag_158\n      jumpi\n        /* \"#utility.yul\":3230:3248   */\n      tag_158\n      tag_148\n      jump\t// in\n    tag_158:\n      pop\n        /* \"#utility.yul\":3277:3278   */\n      0x01\n        /* \"#utility.yul\":3266:3279   */\n      add\n      swap1\n        /* \"#utility.yul\":3197:3285   */\n      jump\t// out\n        /* \"#utility.yul\":3290:3402   */\n    tag_65:\n      0x00\n        /* \"#utility.yul\":3348:3349   */\n      dup3\n        /* \"#utility.yul\":3338:3340   */\n      tag_161\n      jumpi\n        /* \"#utility.yul\":3353:3371   */\n      tag_161\n      tag_152\n      jump\t// in\n    tag_161:\n      pop\n        /* \"#utility.yul\":3387:3396   */\n      mod\n      swap1\n        /* \"#utility.yul\":3328:3402   */\n      jump\t// out\n        /* \"#utility.yul\":3407:3534   */\n    tag_148:\n        /* \"#utility.yul\":3468:3478   */\n      0x4e487b71\n        /* \"#utility.yul\":3463:3466   */\n      0xe0\n        /* \"#utility.yul\":3459:3479   */\n      shl\n        /* \"#utility.yul\":3456:3457   */\n      0x00\n        /* \"#utility.yul\":3449:3480   */\n      mstore\n        /* \"#utility.yul\":3499:3503   */\n      0x11\n        /* \"#utility.yul\":3496:3497   */\n      0x04\n        /* \"#utility.yul\":3489:3504   */\n      mstore\n        /* \"#utility.yul\":3523:3527   */\n      0x24\n        /* \"#utility.yul\":3520:3521   */\n      0x00\n        /* \"#utility.yul\":3513:3528   */\n      revert\n        /* \"#utility.yul\":3539:3666   */\n    tag_152:\n        /* \"#utility.yul\":3600:3610   */\n      0x4e487b71\n        /* \"#utility.yul\":3595:3598   */\n      0xe0\n        /* \"#utility.yul\":3591:3611   */\n      shl\n        /* \"#utility.yul\":3588:3589   */\n      0x00\n        /* \"#utility.yul\":3581:3612   */\n      mstore\n        /* \"#utility.yul\":3631:3635   */\n      0x12\n        /* \"#utility.yul\":3628:3629   */\n      0x04\n        /* \"#utility.yul\":3621:3636   */\n      mstore\n        /* \"#utility.yul\":3655:3659   */\n      0x24\n        /* \"#utility.yul\":3652:3653   */\n      0x00\n        /* \"#utility.yul\":3645:3660   */\n      revert\n\n    auxdata: 0xa2646970667358221220c364848c16f24de03b56a29e7ae3ee566e3b8e83f398252e8561b0ba44e445f564736f6c63430008000033\n}\n",
				"bytecode": {
					"linkReferences": {},
					"object": "608060405234801561001057600080fd5b50610947806100206000396000f3fe608060405234801561001057600080fd5b50600436106100575760003560e01c806339e7357c1461005c578063aacc5a171461007a578063b1d7ea9814610082578063b8f011b3146100a2578063e44c974b146100b5575b600080fd5b6100646100c8565b60405161007191906107cf565b60405180910390f35b6100646100e5565b610095610090366004610791565b61019a565b60405161007191906107e6565b6100956100b0366004610791565b6103a2565b6100956100c3366004610779565b610515565b60405160009080602081848060185afa6100de57fe5b5051919050565b60008042416040516020016100fa91906107b2565b6040516020818303038152906040528051906020012060001c61011d919061088b565b446101266100c8565b60405160200161013691906107cf565b60408051601f1981840301815291905280516020909101206101589042610873565b6101629190610873565b61016c9190610873565b60405160200161017c91906107cf565b60408051601f19818403018152919052805160209091012091505090565b6060600082116101a957600080fd5b6000416040516020016101bc91906107b2565b6040516020818303038152906040528051906020012060001c6101dd6100c8565b6040516020016101ed91906107cf565b60408051601f19818403018152919052805160209091012061020f9042610873565b6102199190610873565b60405160200161022991906107cf565b6040516020818303038152906040528051906020012060001c905060008467ffffffffffffffff81111561026d57634e487b7160e01b600052604160045260246000fd5b604051908082528060200260200182016040528015610296578160200160208202803683370190505b5090506000805b86821015610397576000866102b663017efeeb8761089f565b836040516020016102c89291906107d8565b6040516020818303038152906040528051906020012060001c6102eb91906108d1565b90506000805b84811015610343578286828151811061031a57634e487b7160e01b600052603260045260246000fd5b602002602001015114156103315760019150610343565b8061033b816108b6565b9150506102f1565b5080610383578185858151811061036a57634e487b7160e01b600052603260045260246000fd5b6020908102919091010152610380846001610873565b93505b61038e836001610873565b9250505061029d565b509095945050505050565b60606000821180156103b45750818311155b80156103c1575060018310155b6103e65760405162461bcd60e51b81526004016103dd9061082a565b60405180910390fd5b60008267ffffffffffffffff81111561040f57634e487b7160e01b600052604160045260246000fd5b604051908082528060200260200182016040528015610438578160200160208202803683370190505b50905060008467ffffffffffffffff81111561046457634e487b7160e01b600052604160045260246000fd5b60405190808252806020026020018201604052801561048d578160200160208202803683370190505b50905060006104a361049e8461058f565b6105e5565b905060005b86811015610397578181815181106104d057634e487b7160e01b600052603260045260246000fd5b60200260200101518382815181106104f857634e487b7160e01b600052603260045260246000fd5b60209081029190910101528061050d816108b6565b9150506104a8565b60606000821161052457600080fd5b60008267ffffffffffffffff81111561054d57634e487b7160e01b600052604160045260246000fd5b604051908082528060200260200182016040528015610576578160200160208202803683370190505b509050600061058761049e8361058f565b949350505050565b805160609060005b818110156105dd57808482815181106105c057634e487b7160e01b600052603260045260246000fd5b6020908102919091010152806105d5816108b6565b915050610597565b509192915050565b606060008251116105f557600080fd5b81518060005b818110156107705760008361060e6100e5565b87848151811061062e57634e487b7160e01b600052603260045260246000fd5b60200260200101516040516020016106479291906107d8565b6040516020818303038152906040528051906020012060001c61066a91906108d1565b610675906001610873565b905060008661068560018461089f565b815181106106a357634e487b7160e01b600052603260045260246000fd5b60200260200101519050866001866106bb919061089f565b815181106106d957634e487b7160e01b600052603260045260246000fd5b6020026020010151876001846106ef919061089f565b8151811061070d57634e487b7160e01b600052603260045260246000fd5b6020908102919091010152808761072560018861089f565b8151811061074357634e487b7160e01b600052603260045260246000fd5b602090810291909101015261075960018661089f565b945050508080610768906108b6565b9150506105fb565b50929392505050565b60006020828403121561078a578081fd5b5035919050565b600080604083850312156107a3578081fd5b50508035926020909101359150565b60609190911b6bffffffffffffffffffffffff1916815260140190565b90815260200190565b918252602082015260400190565b6020808252825182820181905260009190848201906040850190845b8181101561081e57835183529284019291840191600101610802565b50909695505050505050565b60208082526029908201527f6b206f72204e20617265206e6f74204f4b20647572696e672072616e646f6d2060408201526839b2b632b1ba34b7b760b91b606082015260800190565b60008219821115610886576108866108e5565b500190565b60008261089a5761089a6108fb565b500490565b6000828210156108b1576108b16108e5565b500390565b60006000198214156108ca576108ca6108e5565b5060010190565b6000826108e0576108e06108fb565b500690565b634e487b7160e01b600052601160045260246000fd5b634e487b7160e01b600052601260045260246000fdfea2646970667358221220c364848c16f24de03b56a29e7ae3ee566e3b8e83f398252e8561b0ba44e445f564736f6c63430008000033",
					"opcodes": "PUSH1 0x80 PUSH1 0x40 MSTORE CALLVALUE DUP1 ISZERO PUSH2 0x10 JUMPI PUSH1 0x0 DUP1 REVERT JUMPDEST POP PUSH2 0x947 DUP1 PUSH2 0x20 PUSH1 0x0 CODECOPY PUSH1 0x0 RETURN INVALID PUSH1 0x80 PUSH1 0x40 MSTORE CALLVALUE DUP1 ISZERO PUSH2 0x10 JUMPI PUSH1 0x0 DUP1 REVERT JUMPDEST POP PUSH1 0x4 CALLDATASIZE LT PUSH2 0x57 JUMPI PUSH1 0x0 CALLDATALOAD PUSH1 0xE0 SHR DUP1 PUSH4 0x39E7357C EQ PUSH2 0x5C JUMPI DUP1 PUSH4 0xAACC5A17 EQ PUSH2 0x7A JUMPI DUP1 PUSH4 0xB1D7EA98 EQ PUSH2 0x82 JUMPI DUP1 PUSH4 0xB8F011B3 EQ PUSH2 0xA2 JUMPI DUP1 PUSH4 0xE44C974B EQ PUSH2 0xB5 JUMPI JUMPDEST PUSH1 0x0 DUP1 REVERT JUMPDEST PUSH2 0x64 PUSH2 0xC8 JUMP JUMPDEST PUSH1 0x40 MLOAD PUSH2 0x71 SWAP2 SWAP1 PUSH2 0x7CF JUMP JUMPDEST PUSH1 0x40 MLOAD DUP1 SWAP2 SUB SWAP1 RETURN JUMPDEST PUSH2 0x64 PUSH2 0xE5 JUMP JUMPDEST PUSH2 0x95 PUSH2 0x90 CALLDATASIZE PUSH1 0x4 PUSH2 0x791 JUMP JUMPDEST PUSH2 0x19A JUMP JUMPDEST PUSH1 0x40 MLOAD PUSH2 0x71 SWAP2 SWAP1 PUSH2 0x7E6 JUMP JUMPDEST PUSH2 0x95 PUSH2 0xB0 CALLDATASIZE PUSH1 0x4 PUSH2 0x791 JUMP JUMPDEST PUSH2 0x3A2 JUMP JUMPDEST PUSH2 0x95 PUSH2 0xC3 CALLDATASIZE PUSH1 0x4 PUSH2 0x779 JUMP JUMPDEST PUSH2 0x515 JUMP JUMPDEST PUSH1 0x40 MLOAD PUSH1 0x0 SWAP1 DUP1 PUSH1 0x20 DUP2 DUP5 DUP1 PUSH1 0x18 GAS STATICCALL PUSH2 0xDE JUMPI INVALID JUMPDEST POP MLOAD SWAP2 SWAP1 POP JUMP JUMPDEST PUSH1 0x0 DUP1 TIMESTAMP COINBASE PUSH1 0x40 MLOAD PUSH1 0x20 ADD PUSH2 0xFA SWAP2 SWAP1 PUSH2 0x7B2 JUMP JUMPDEST PUSH1 0x40 MLOAD PUSH1 0x20 DUP2 DUP4 SUB SUB DUP2 MSTORE SWAP1 PUSH1 0x40 MSTORE DUP1 MLOAD SWAP1 PUSH1 0x20 ADD KECCAK256 PUSH1 0x0 SHR PUSH2 0x11D SWAP2 SWAP1 PUSH2 0x88B JUMP JUMPDEST DIFFICULTY PUSH2 0x126 PUSH2 0xC8 JUMP JUMPDEST PUSH1 0x40 MLOAD PUSH1 0x20 ADD PUSH2 0x136 SWAP2 SWAP1 PUSH2 0x7CF JUMP JUMPDEST PUSH1 0x40 DUP1 MLOAD PUSH1 0x1F NOT DUP2 DUP5 SUB ADD DUP2 MSTORE SWAP2 SWAP1 MSTORE DUP1 MLOAD PUSH1 0x20 SWAP1 SWAP2 ADD KECCAK256 PUSH2 0x158 SWAP1 TIMESTAMP PUSH2 0x873 JUMP JUMPDEST PUSH2 0x162 SWAP2 SWAP1 PUSH2 0x873 JUMP JUMPDEST PUSH2 0x16C SWAP2 SWAP1 PUSH2 0x873 JUMP JUMPDEST PUSH1 0x40 MLOAD PUSH1 0x20 ADD PUSH2 0x17C SWAP2 SWAP1 PUSH2 0x7CF JUMP JUMPDEST PUSH1 0x40 DUP1 MLOAD PUSH1 0x1F NOT DUP2 DUP5 SUB ADD DUP2 MSTORE SWAP2 SWAP1 MSTORE DUP1 MLOAD PUSH1 0x20 SWAP1 SWAP2 ADD KECCAK256 SWAP2 POP POP SWAP1 JUMP JUMPDEST PUSH1 0x60 PUSH1 0x0 DUP3 GT PUSH2 0x1A9 JUMPI PUSH1 0x0 DUP1 REVERT JUMPDEST PUSH1 0x0 COINBASE PUSH1 0x40 MLOAD PUSH1 0x20 ADD PUSH2 0x1BC SWAP2 SWAP1 PUSH2 0x7B2 JUMP JUMPDEST PUSH1 0x40 MLOAD PUSH1 0x20 DUP2 DUP4 SUB SUB DUP2 MSTORE SWAP1 PUSH1 0x40 MSTORE DUP1 MLOAD SWAP1 PUSH1 0x20 ADD KECCAK256 PUSH1 0x0 SHR PUSH2 0x1DD PUSH2 0xC8 JUMP JUMPDEST PUSH1 0x40 MLOAD PUSH1 0x20 ADD PUSH2 0x1ED SWAP2 SWAP1 PUSH2 0x7CF JUMP JUMPDEST PUSH1 0x40 DUP1 MLOAD PUSH1 0x1F NOT DUP2 DUP5 SUB ADD DUP2 MSTORE SWAP2 SWAP1 MSTORE DUP1 MLOAD PUSH1 0x20 SWAP1 SWAP2 ADD KECCAK256 PUSH2 0x20F SWAP1 TIMESTAMP PUSH2 0x873 JUMP JUMPDEST PUSH2 0x219 SWAP2 SWAP1 PUSH2 0x873 JUMP JUMPDEST PUSH1 0x40 MLOAD PUSH1 0x20 ADD PUSH2 0x229 SWAP2 SWAP1 PUSH2 0x7CF JUMP JUMPDEST PUSH1 0x40 MLOAD PUSH1 0x20 DUP2 DUP4 SUB SUB DUP2 MSTORE SWAP1 PUSH1 0x40 MSTORE DUP1 MLOAD SWAP1 PUSH1 0x20 ADD KECCAK256 PUSH1 0x0 SHR SWAP1 POP PUSH1 0x0 DUP5 PUSH8 0xFFFFFFFFFFFFFFFF DUP2 GT ISZERO PUSH2 0x26D JUMPI PUSH4 0x4E487B71 PUSH1 0xE0 SHL PUSH1 0x0 MSTORE PUSH1 0x41 PUSH1 0x4 MSTORE PUSH1 0x24 PUSH1 0x0 REVERT JUMPDEST PUSH1 0x40 MLOAD SWAP1 DUP1 DUP3 MSTORE DUP1 PUSH1 0x20 MUL PUSH1 0x20 ADD DUP3 ADD PUSH1 0x40 MSTORE DUP1 ISZERO PUSH2 0x296 JUMPI DUP2 PUSH1 0x20 ADD PUSH1 0x20 DUP3 MUL DUP1 CALLDATASIZE DUP4 CALLDATACOPY ADD SWAP1 POP JUMPDEST POP SWAP1 POP PUSH1 0x0 DUP1 JUMPDEST DUP7 DUP3 LT ISZERO PUSH2 0x397 JUMPI PUSH1 0x0 DUP7 PUSH2 0x2B6 PUSH4 0x17EFEEB DUP8 PUSH2 0x89F JUMP JUMPDEST DUP4 PUSH1 0x40 MLOAD PUSH1 0x20 ADD PUSH2 0x2C8 SWAP3 SWAP2 SWAP1 PUSH2 0x7D8 JUMP JUMPDEST PUSH1 0x40 MLOAD PUSH1 0x20 DUP2 DUP4 SUB SUB DUP2 MSTORE SWAP1 PUSH1 0x40 MSTORE DUP1 MLOAD SWAP1 PUSH1 0x20 ADD KECCAK256 PUSH1 0x0 SHR PUSH2 0x2EB SWAP2 SWAP1 PUSH2 0x8D1 JUMP JUMPDEST SWAP1 POP PUSH1 0x0 DUP1 JUMPDEST DUP5 DUP2 LT ISZERO PUSH2 0x343 JUMPI DUP3 DUP7 DUP3 DUP2 MLOAD DUP2 LT PUSH2 0x31A JUMPI PUSH4 0x4E487B71 PUSH1 0xE0 SHL PUSH1 0x0 MSTORE PUSH1 0x32 PUSH1 0x4 MSTORE PUSH1 0x24 PUSH1 0x0 REVERT JUMPDEST PUSH1 0x20 MUL PUSH1 0x20 ADD ADD MLOAD EQ ISZERO PUSH2 0x331 JUMPI PUSH1 0x1 SWAP2 POP PUSH2 0x343 JUMP JUMPDEST DUP1 PUSH2 0x33B DUP2 PUSH2 0x8B6 JUMP JUMPDEST SWAP2 POP POP PUSH2 0x2F1 JUMP JUMPDEST POP DUP1 PUSH2 0x383 JUMPI DUP2 DUP6 DUP6 DUP2 MLOAD DUP2 LT PUSH2 0x36A JUMPI PUSH4 0x4E487B71 PUSH1 0xE0 SHL PUSH1 0x0 MSTORE PUSH1 0x32 PUSH1 0x4 MSTORE PUSH1 0x24 PUSH1 0x0 REVERT JUMPDEST PUSH1 0x20 SWAP1 DUP2 MUL SWAP2 SWAP1 SWAP2 ADD ADD MSTORE PUSH2 0x380 DUP5 PUSH1 0x1 PUSH2 0x873 JUMP JUMPDEST SWAP4 POP JUMPDEST PUSH2 0x38E DUP4 PUSH1 0x1 PUSH2 0x873 JUMP JUMPDEST SWAP3 POP POP POP PUSH2 0x29D JUMP JUMPDEST POP SWAP1 SWAP6 SWAP5 POP POP POP POP POP JUMP JUMPDEST PUSH1 0x60 PUSH1 0x0 DUP3 GT DUP1 ISZERO PUSH2 0x3B4 JUMPI POP DUP2 DUP4 GT ISZERO JUMPDEST DUP1 ISZERO PUSH2 0x3C1 JUMPI POP PUSH1 0x1 DUP4 LT ISZERO JUMPDEST PUSH2 0x3E6 JUMPI PUSH1 0x40 MLOAD PUSH3 0x461BCD PUSH1 0xE5 SHL DUP2 MSTORE PUSH1 0x4 ADD PUSH2 0x3DD SWAP1 PUSH2 0x82A JUMP JUMPDEST PUSH1 0x40 MLOAD DUP1 SWAP2 SUB SWAP1 REVERT JUMPDEST PUSH1 0x0 DUP3 PUSH8 0xFFFFFFFFFFFFFFFF DUP2 GT ISZERO PUSH2 0x40F JUMPI PUSH4 0x4E487B71 PUSH1 0xE0 SHL PUSH1 0x0 MSTORE PUSH1 0x41 PUSH1 0x4 MSTORE PUSH1 0x24 PUSH1 0x0 REVERT JUMPDEST PUSH1 0x40 MLOAD SWAP1 DUP1 DUP3 MSTORE DUP1 PUSH1 0x20 MUL PUSH1 0x20 ADD DUP3 ADD PUSH1 0x40 MSTORE DUP1 ISZERO PUSH2 0x438 JUMPI DUP2 PUSH1 0x20 ADD PUSH1 0x20 DUP3 MUL DUP1 CALLDATASIZE DUP4 CALLDATACOPY ADD SWAP1 POP JUMPDEST POP SWAP1 POP PUSH1 0x0 DUP5 PUSH8 0xFFFFFFFFFFFFFFFF DUP2 GT ISZERO PUSH2 0x464 JUMPI PUSH4 0x4E487B71 PUSH1 0xE0 SHL PUSH1 0x0 MSTORE PUSH1 0x41 PUSH1 0x4 MSTORE PUSH1 0x24 PUSH1 0x0 REVERT JUMPDEST PUSH1 0x40 MLOAD SWAP1 DUP1 DUP3 MSTORE DUP1 PUSH1 0x20 MUL PUSH1 0x20 ADD DUP3 ADD PUSH1 0x40 MSTORE DUP1 ISZERO PUSH2 0x48D JUMPI DUP2 PUSH1 0x20 ADD PUSH1 0x20 DUP3 MUL DUP1 CALLDATASIZE DUP4 CALLDATACOPY ADD SWAP1 POP JUMPDEST POP SWAP1 POP PUSH1 0x0 PUSH2 0x4A3 PUSH2 0x49E DUP5 PUSH2 0x58F JUMP JUMPDEST PUSH2 0x5E5 JUMP JUMPDEST SWAP1 POP PUSH1 0x0 JUMPDEST DUP7 DUP2 LT ISZERO PUSH2 0x397 JUMPI DUP2 DUP2 DUP2 MLOAD DUP2 LT PUSH2 0x4D0 JUMPI PUSH4 0x4E487B71 PUSH1 0xE0 SHL PUSH1 0x0 MSTORE PUSH1 0x32 PUSH1 0x4 MSTORE PUSH1 0x24 PUSH1 0x0 REVERT JUMPDEST PUSH1 0x20 MUL PUSH1 0x20 ADD ADD MLOAD DUP4 DUP3 DUP2 MLOAD DUP2 LT PUSH2 0x4F8 JUMPI PUSH4 0x4E487B71 PUSH1 0xE0 SHL PUSH1 0x0 MSTORE PUSH1 0x32 PUSH1 0x4 MSTORE PUSH1 0x24 PUSH1 0x0 REVERT JUMPDEST PUSH1 0x20 SWAP1 DUP2 MUL SWAP2 SWAP1 SWAP2 ADD ADD MSTORE DUP1 PUSH2 0x50D DUP2 PUSH2 0x8B6 JUMP JUMPDEST SWAP2 POP POP PUSH2 0x4A8 JUMP JUMPDEST PUSH1 0x60 PUSH1 0x0 DUP3 GT PUSH2 0x524 JUMPI PUSH1 0x0 DUP1 REVERT JUMPDEST PUSH1 0x0 DUP3 PUSH8 0xFFFFFFFFFFFFFFFF DUP2 GT ISZERO PUSH2 0x54D JUMPI PUSH4 0x4E487B71 PUSH1 0xE0 SHL PUSH1 0x0 MSTORE PUSH1 0x41 PUSH1 0x4 MSTORE PUSH1 0x24 PUSH1 0x0 REVERT JUMPDEST PUSH1 0x40 MLOAD SWAP1 DUP1 DUP3 MSTORE DUP1 PUSH1 0x20 MUL PUSH1 0x20 ADD DUP3 ADD PUSH1 0x40 MSTORE DUP1 ISZERO PUSH2 0x576 JUMPI DUP2 PUSH1 0x20 ADD PUSH1 0x20 DUP3 MUL DUP1 CALLDATASIZE DUP4 CALLDATACOPY ADD SWAP1 POP JUMPDEST POP SWAP1 POP PUSH1 0x0 PUSH2 0x587 PUSH2 0x49E DUP4 PUSH2 0x58F JUMP JUMPDEST SWAP5 SWAP4 POP POP POP POP JUMP JUMPDEST DUP1 MLOAD PUSH1 0x60 SWAP1 PUSH1 0x0 JUMPDEST DUP2 DUP2 LT ISZERO PUSH2 0x5DD JUMPI DUP1 DUP5 DUP3 DUP2 MLOAD DUP2 LT PUSH2 0x5C0 JUMPI PUSH4 0x4E487B71 PUSH1 0xE0 SHL PUSH1 0x0 MSTORE PUSH1 0x32 PUSH1 0x4 MSTORE PUSH1 0x24 PUSH1 0x0 REVERT JUMPDEST PUSH1 0x20 SWAP1 DUP2 MUL SWAP2 SWAP1 SWAP2 ADD ADD MSTORE DUP1 PUSH2 0x5D5 DUP2 PUSH2 0x8B6 JUMP JUMPDEST SWAP2 POP POP PUSH2 0x597 JUMP JUMPDEST POP SWAP2 SWAP3 SWAP2 POP POP JUMP JUMPDEST PUSH1 0x60 PUSH1 0x0 DUP3 MLOAD GT PUSH2 0x5F5 JUMPI PUSH1 0x0 DUP1 REVERT JUMPDEST DUP2 MLOAD DUP1 PUSH1 0x0 JUMPDEST DUP2 DUP2 LT ISZERO PUSH2 0x770 JUMPI PUSH1 0x0 DUP4 PUSH2 0x60E PUSH2 0xE5 JUMP JUMPDEST DUP8 DUP5 DUP2 MLOAD DUP2 LT PUSH2 0x62E JUMPI PUSH4 0x4E487B71 PUSH1 0xE0 SHL PUSH1 0x0 MSTORE PUSH1 0x32 PUSH1 0x4 MSTORE PUSH1 0x24 PUSH1 0x0 REVERT JUMPDEST PUSH1 0x20 MUL PUSH1 0x20 ADD ADD MLOAD PUSH1 0x40 MLOAD PUSH1 0x20 ADD PUSH2 0x647 SWAP3 SWAP2 SWAP1 PUSH2 0x7D8 JUMP JUMPDEST PUSH1 0x40 MLOAD PUSH1 0x20 DUP2 DUP4 SUB SUB DUP2 MSTORE SWAP1 PUSH1 0x40 MSTORE DUP1 MLOAD SWAP1 PUSH1 0x20 ADD KECCAK256 PUSH1 0x0 SHR PUSH2 0x66A SWAP2 SWAP1 PUSH2 0x8D1 JUMP JUMPDEST PUSH2 0x675 SWAP1 PUSH1 0x1 PUSH2 0x873 JUMP JUMPDEST SWAP1 POP PUSH1 0x0 DUP7 PUSH2 0x685 PUSH1 0x1 DUP5 PUSH2 0x89F JUMP JUMPDEST DUP2 MLOAD DUP2 LT PUSH2 0x6A3 JUMPI PUSH4 0x4E487B71 PUSH1 0xE0 SHL PUSH1 0x0 MSTORE PUSH1 0x32 PUSH1 0x4 MSTORE PUSH1 0x24 PUSH1 0x0 REVERT JUMPDEST PUSH1 0x20 MUL PUSH1 0x20 ADD ADD MLOAD SWAP1 POP DUP7 PUSH1 0x1 DUP7 PUSH2 0x6BB SWAP2 SWAP1 PUSH2 0x89F JUMP JUMPDEST DUP2 MLOAD DUP2 LT PUSH2 0x6D9 JUMPI PUSH4 0x4E487B71 PUSH1 0xE0 SHL PUSH1 0x0 MSTORE PUSH1 0x32 PUSH1 0x4 MSTORE PUSH1 0x24 PUSH1 0x0 REVERT JUMPDEST PUSH1 0x20 MUL PUSH1 0x20 ADD ADD MLOAD DUP8 PUSH1 0x1 DUP5 PUSH2 0x6EF SWAP2 SWAP1 PUSH2 0x89F JUMP JUMPDEST DUP2 MLOAD DUP2 LT PUSH2 0x70D JUMPI PUSH4 0x4E487B71 PUSH1 0xE0 SHL PUSH1 0x0 MSTORE PUSH1 0x32 PUSH1 0x4 MSTORE PUSH1 0x24 PUSH1 0x0 REVERT JUMPDEST PUSH1 0x20 SWAP1 DUP2 MUL SWAP2 SWAP1 SWAP2 ADD ADD MSTORE DUP1 DUP8 PUSH2 0x725 PUSH1 0x1 DUP9 PUSH2 0x89F JUMP JUMPDEST DUP2 MLOAD DUP2 LT PUSH2 0x743 JUMPI PUSH4 0x4E487B71 PUSH1 0xE0 SHL PUSH1 0x0 MSTORE PUSH1 0x32 PUSH1 0x4 MSTORE PUSH1 0x24 PUSH1 0x0 REVERT JUMPDEST PUSH1 0x20 SWAP1 DUP2 MUL SWAP2 SWAP1 SWAP2 ADD ADD MSTORE PUSH2 0x759 PUSH1 0x1 DUP7 PUSH2 0x89F JUMP JUMPDEST SWAP5 POP POP POP DUP1 DUP1 PUSH2 0x768 SWAP1 PUSH2 0x8B6 JUMP JUMPDEST SWAP2 POP POP PUSH2 0x5FB JUMP JUMPDEST POP SWAP3 SWAP4 SWAP3 POP POP POP JUMP JUMPDEST PUSH1 0x0 PUSH1 0x20 DUP3 DUP5 SUB SLT ISZERO PUSH2 0x78A JUMPI DUP1 DUP2 REVERT JUMPDEST POP CALLDATALOAD SWAP2 SWAP1 POP JUMP JUMPDEST PUSH1 0x0 DUP1 PUSH1 0x40 DUP4 DUP6 SUB SLT ISZERO PUSH2 0x7A3 JUMPI DUP1 DUP2 REVERT JUMPDEST POP POP DUP1 CALLDATALOAD SWAP3 PUSH1 0x20 SWAP1 SWAP2 ADD CALLDATALOAD SWAP2 POP JUMP JUMPDEST PUSH1 0x60 SWAP2 SWAP1 SWAP2 SHL PUSH12 0xFFFFFFFFFFFFFFFFFFFFFFFF NOT AND DUP2 MSTORE PUSH1 0x14 ADD SWAP1 JUMP JUMPDEST SWAP1 DUP2 MSTORE PUSH1 0x20 ADD SWAP1 JUMP JUMPDEST SWAP2 DUP3 MSTORE PUSH1 0x20 DUP3 ADD MSTORE PUSH1 0x40 ADD SWAP1 JUMP JUMPDEST PUSH1 0x20 DUP1 DUP3 MSTORE DUP3 MLOAD DUP3 DUP3 ADD DUP2 SWAP1 MSTORE PUSH1 0x0 SWAP2 SWAP1 DUP5 DUP3 ADD SWAP1 PUSH1 0x40 DUP6 ADD SWAP1 DUP5 JUMPDEST DUP2 DUP2 LT ISZERO PUSH2 0x81E JUMPI DUP4 MLOAD DUP4 MSTORE SWAP3 DUP5 ADD SWAP3 SWAP2 DUP5 ADD SWAP2 PUSH1 0x1 ADD PUSH2 0x802 JUMP JUMPDEST POP SWAP1 SWAP7 SWAP6 POP POP POP POP POP POP JUMP JUMPDEST PUSH1 0x20 DUP1 DUP3 MSTORE PUSH1 0x29 SWAP1 DUP3 ADD MSTORE PUSH32 0x6B206F72204E20617265206E6F74204F4B20647572696E672072616E646F6D20 PUSH1 0x40 DUP3 ADD MSTORE PUSH9 0x39B2B632B1BA34B7B7 PUSH1 0xB9 SHL PUSH1 0x60 DUP3 ADD MSTORE PUSH1 0x80 ADD SWAP1 JUMP JUMPDEST PUSH1 0x0 DUP3 NOT DUP3 GT ISZERO PUSH2 0x886 JUMPI PUSH2 0x886 PUSH2 0x8E5 JUMP JUMPDEST POP ADD SWAP1 JUMP JUMPDEST PUSH1 0x0 DUP3 PUSH2 0x89A JUMPI PUSH2 0x89A PUSH2 0x8FB JUMP JUMPDEST POP DIV SWAP1 JUMP JUMPDEST PUSH1 0x0 DUP3 DUP3 LT ISZERO PUSH2 0x8B1 JUMPI PUSH2 0x8B1 PUSH2 0x8E5 JUMP JUMPDEST POP SUB SWAP1 JUMP JUMPDEST PUSH1 0x0 PUSH1 0x0 NOT DUP3 EQ ISZERO PUSH2 0x8CA JUMPI PUSH2 0x8CA PUSH2 0x8E5 JUMP JUMPDEST POP PUSH1 0x1 ADD SWAP1 JUMP JUMPDEST PUSH1 0x0 DUP3 PUSH2 0x8E0 JUMPI PUSH2 0x8E0 PUSH2 0x8FB JUMP JUMPDEST POP MOD SWAP1 JUMP JUMPDEST PUSH4 0x4E487B71 PUSH1 0xE0 SHL PUSH1 0x0 MSTORE PUSH1 0x11 PUSH1 0x4 MSTORE PUSH1 0x24 PUSH1 0x0 REVERT JUMPDEST PUSH4 0x4E487B71 PUSH1 0xE0 SHL PUSH1 0x0 MSTORE PUSH1 0x12 PUSH1 0x4 MSTORE PUSH1 0x24 PUSH1 0x0 REVERT INVALID LOG2 PUSH5 0x6970667358 0x22 SLT KECCAK256 0xC3 PUSH5 0x848C16F24D 0xE0 EXTCODESIZE JUMP LOG2 SWAP15 PUSH27 0xE3EE566E3B8E83F398252E8561B0BA44E445F564736F6C63430008 STOP STOP CALLER "
				},
				"gasEstimates": {
					"creation": {
						"codeDepositCost": "475000",
						"executionCost": "511",
						"totalCost": "475511"
					},
					"external": {
						"generateIntegers(uint256,uint256)": "infinite",
						"getRandom()": "infinite",
						"getSeed()": "infinite",
						"random_selection(uint256,uint256)": "infinite",
						"shuffle_array(uint256)": "infinite"
					},
					"internal": {
						"reset_index_array(uint256[] memory)": "infinite",
						"shuffle_array_(uint256[] memory)": "infinite"
					}
				},
				"methodIdentifiers": {
					"generateIntegers(uint256,uint256)": "b1d7ea98",
					"getRandom()": "aacc5a17",
					"getSeed()": "39e7357c",
					"random_selection(uint256,uint256)": "b8f011b3",
					"shuffle_array(uint256)": "e44c974b"
				}
			},
			"storageLayout": {
				"storage": [],
				"types": null
			},
			"userdoc": {
				"kind": "user",
				"methods": {},
				"version": 1
			}
		}
	}
}