{
  "_format": "hh-sol-artifact-1",
  "contractName": "ConfigRegistry",
  "sourceName": "contracts/worksystems/ConfigRegistry.sol",
  "abi": [
    {
      "inputs": [],
      "stateMutability": "nonpayable",
      "type": "constructor"
    },
    {
      "anonymous": false,
      "inputs": [
        {
          "indexed": true,
          "internalType": "string",
          "name": "account",
          "type": "string"
        }
      ],
      "name": "ConfigUpdated",
      "type": "event"
    },
    {
      "anonymous": false,
      "inputs": [
        {
          "indexed": true,
          "internalType": "address",
          "name": "previousOwner",
          "type": "address"
        },
        {
          "indexed": true,
          "internalType": "address",
          "name": "newOwner",
          "type": "address"
        }
      ],
      "name": "OwnershipTransferred",
      "type": "event"
    },
    {
      "inputs": [
        {
          "internalType": "string",
          "name": "key",
          "type": "string"
        },
        {
          "internalType": "string",
          "name": "value",
          "type": "string"
        },
        {
          "internalType": "bool",
          "name": "overwrite",
          "type": "bool"
        }
      ],
      "name": "add",
      "outputs": [
        {
          "internalType": "bool",
          "name": "",
          "type": "bool"
        }
      ],
      "stateMutability": "nonpayable",
      "type": "function"
    },
    {
      "inputs": [
        {
          "internalType": "bytes32",
          "name": "hash",
          "type": "bytes32"
        },
        {
          "internalType": "string",
          "name": "value",
          "type": "string"
        },
        {
          "internalType": "bool",
          "name": "overwrite",
          "type": "bool"
        }
      ],
      "name": "addByHash",
      "outputs": [
        {
          "internalType": "bool",
          "name": "",
          "type": "bool"
        }
      ],
      "stateMutability": "nonpayable",
      "type": "function"
    },
    {
      "inputs": [
        {
          "internalType": "string",
          "name": "key",
          "type": "string"
        }
      ],
      "name": "get",
      "outputs": [
        {
          "internalType": "string",
          "name": "",
          "type": "string"
        }
      ],
      "stateMutability": "view",
      "type": "function"
    },
    {
      "inputs": [
        {
          "internalType": "string",
          "name": "key",
          "type": "string"
        }
      ],
      "name": "getHash",
      "outputs": [
        {
          "internalType": "bytes32",
          "name": "",
          "type": "bytes32"
        }
      ],
      "stateMutability": "pure",
      "type": "function"
    },
    {
      "inputs": [],
      "name": "owner",
      "outputs": [
        {
          "internalType": "address",
          "name": "",
          "type": "address"
        }
      ],
      "stateMutability": "view",
      "type": "function"
    },
    {
      "inputs": [],
      "name": "renounceOwnership",
      "outputs": [],
      "stateMutability": "nonpayable",
      "type": "function"
    },
    {
      "inputs": [
        {
          "internalType": "address",
          "name": "newOwner",
          "type": "address"
        }
      ],
      "name": "transferOwnership",
      "outputs": [],
      "stateMutability": "nonpayable",
      "type": "function"
    }
  ],
  "bytecode": "0x60806040523480156200001157600080fd5b506200001d336200047b565b60408051808201825260078152660c8c4bed0c2e6d60cb1b602080830191909152825160608101909352602e80845291927f2b5d58428bfac46b18194c473ec2b1d41db6dc98e3aad716519f594222ef836092909162000ddd90830139600082815260016020908152604090912082516200009f9391929190910190620004cb565b50604051806040016040528060128152602001710d8c2dccebec8cae8cac6e8dee4bed0c2e6d60731b8152509150818051906020012090506040518060600160405280602e815260200162000f1f602e913960008281526001602090815260409091208251620001169391929190910190620004cb565b506040518060400160405280601781526020017f63656e736f72696e675f6465746563746f725f686173680000000000000000008152509150818051906020012090506040518060600160405280602e815260200162000e67602e913960008281526001602090815260409091208251620001989391929190910190620004cb565b506040518060400160405280601381526020017f746f7869635f6465746563746f725f68617368000000000000000000000000008152509150818051906020012090506040518060600160405280602e815260200162000e0b602e9139600082815260016020908152604090912082516200021a9391929190910190620004cb565b50604051806040016040528060128152602001710ccc2d6cabec8cae8cac6e8dee4bed0c2e6d60731b8152509150818051906020012090506040518060600160405280602e815260200162000ef1602e913960008281526001602090815260409091208251620002919391929190910190620004cb565b506040518060400160405280601381526020017f63617465675f6465746563746f725f68617368000000000000000000000000008152509150818051906020012090506040518060600160405280602e815260200162000daf602e913960008281526001602090815260409091208251620003139391929190910190620004cb565b50604051806040016040528060118152602001700d8c2dcceeac2cecae698d2e6e890c2e6d607b1b8152509150818051906020012090506040518060600160405280602e815260200162000e95602e913960008281526001602090815260409091208251620003899391929190910190620004cb565b506040518060400160405280600f81526020016e0c6d0d2dccae6ca88d2c6e890c2e6d608b1b8152509150818051906020012090506040518060600160405280602e815260200162000ec3602e913960008281526001602090815260409091208251620003fd9391929190910190620004cb565b506040518060400160405280601081526020016f0d4c2e0c2dccae6ca88d2c6e890c2e6d60831b8152509150818051906020012090506040518060600160405280602e815260200162000e39602e913960008281526001602090815260409091208251620004729391929190910190620004cb565b505050620005ae565b600080546001600160a01b038381166001600160a01b0319831681178455604051919092169283917f8be0079c531659141344cd1fd0a4f28419497f9722a3daafe3b4186f6b6457e09190a35050565b828054620004d99062000571565b90600052602060002090601f016020900481019282620004fd576000855562000548565b82601f106200051857805160ff191683800117855562000548565b8280016001018555821562000548579182015b82811115620005485782518255916020019190600101906200052b565b50620005569291506200055a565b5090565b5b808211156200055657600081556001016200055b565b600181811c908216806200058657607f821691505b60208210811415620005a857634e487b7160e01b600052602260045260246000fd5b50919050565b6107f180620005be6000396000f3fe608060405234801561001057600080fd5b506004361061007d5760003560e01c8063773f44b91161005b578063773f44b9146100d25780638da5cb5b146100f5578063e7ef321c14610110578063f2fde38b1461012357600080fd5b80635b6beeb914610082578063693ec85e146100a8578063715018a6146100c8575b600080fd5b610095610090366004610580565b610136565b6040519081526020015b60405180910390f35b6100bb6100b6366004610580565b610169565b60405161009f91906105c2565b6100d061023d565b005b6100e56100e036600461062c565b61027c565b604051901515815260200161009f565b6000546040516001600160a01b03909116815260200161009f565b6100e561011e3660046106ad565b610330565b6100d061013136600461070b565b6103b3565b6000828260405160200161014b92919061073b565b60405160208183030381529060405280519060200120905092915050565b60606000838360405160200161018092919061073b565b6040516020818303038152906040528051906020012090506001600082815260200190815260200160002080546101b69061074b565b80601f01602080910402602001604051908101604052809291908181526020018280546101e29061074b565b801561022f5780601f106102045761010080835404028352916020019161022f565b820191906000526020600020905b81548152906001019060200180831161021257829003601f168201915b505050505091505092915050565b6000546001600160a01b031633146102705760405162461bcd60e51b815260040161026790610786565b60405180910390fd5b61027a600061044e565b565b600080546001600160a01b031633146102a75760405162461bcd60e51b815260040161026790610786565b600086866040516020016102bc92919061073b565b60405160208183030381529060405280519060200120905082806102f85750600081815260016020526040902080546102f49061074b565b1590505b1561032157600081815260016020526040902061031690868661049e565b506001915050610327565b60009150505b95945050505050565b600080546001600160a01b0316331461035b5760405162461bcd60e51b815260040161026790610786565b818061037f57506000858152600160205260409020805461037b9061074b565b1590505b156103a757600085815260016020526040902061039d90858561049e565b50600190506103ab565b5060005b949350505050565b6000546001600160a01b031633146103dd5760405162461bcd60e51b815260040161026790610786565b6001600160a01b0381166104425760405162461bcd60e51b815260206004820152602660248201527f4f776e61626c653a206e6577206f776e657220697320746865207a65726f206160448201526564647265737360d01b6064820152608401610267565b61044b8161044e565b50565b600080546001600160a01b038381166001600160a01b0319831681178455604051919092169283917f8be0079c531659141344cd1fd0a4f28419497f9722a3daafe3b4186f6b6457e09190a35050565b8280546104aa9061074b565b90600052602060002090601f0160209004810192826104cc5760008555610512565b82601f106104e55782800160ff19823516178555610512565b82800160010185558215610512579182015b828111156105125782358255916020019190600101906104f7565b5061051e929150610522565b5090565b5b8082111561051e5760008155600101610523565b60008083601f84011261054957600080fd5b50813567ffffffffffffffff81111561056157600080fd5b60208301915083602082850101111561057957600080fd5b9250929050565b6000806020838503121561059357600080fd5b823567ffffffffffffffff8111156105aa57600080fd5b6105b685828601610537565b90969095509350505050565b600060208083528351808285015260005b818110156105ef578581018301518582016040015282016105d3565b81811115610601576000604083870101525b50601f01601f1916929092016040019392505050565b8035801515811461062757600080fd5b919050565b60008060008060006060868803121561064457600080fd5b853567ffffffffffffffff8082111561065c57600080fd5b61066889838a01610537565b9097509550602088013591508082111561068157600080fd5b5061068e88828901610537565b90945092506106a1905060408701610617565b90509295509295909350565b600080600080606085870312156106c357600080fd5b84359350602085013567ffffffffffffffff8111156106e157600080fd5b6106ed87828801610537565b9094509250610700905060408601610617565b905092959194509250565b60006020828403121561071d57600080fd5b81356001600160a01b038116811461073457600080fd5b9392505050565b8183823760009101908152919050565b600181811c9082168061075f57607f821691505b6020821081141561078057634e487b7160e01b600052602260045260246000fd5b50919050565b6020808252818101527f4f776e61626c653a2063616c6c6572206973206e6f7420746865206f776e657260408201526060019056fea264697066735822122038589c4426089a61d6f4c78772450383c3fb2f3b14cc1a756273be1dc036467964736f6c63430008080033516d4e5534613473793531504839576e7452517356766d64564671376a6877416e4773594c32774b705346434354516d63327477385a7745524d526d794755316379775044734d4c6b51766b4e45775275454355486e5575634c6e68516d5964564c656e4a4563343861743659377a59627738634c4c4c5064646a477074657a7a62446b636374645876516d66557a527471564c3974714731314470624a56424e6f4b6a78514d79567571763275763270696e7a75635436516d625a7a5663437766684b346a5971555752377959466954325963525136377958486f5874376a65665a6a7246516d514b364d3770756d3657325a524c6468677a45773776483847594d6d7677523361583368466b4d5857727573516d5059387a5536787a77766a6f6d7a4e35416b56665461357a5a7032526b586732654d333476504543716f7459516d51346f634836504e67354157696f4462574a5179766f5a576838567364436a4b314b437975466a4d54556463516d62787936594d6431484e446f4b44644754414b59645642755547556b413137615156596474484a7636667a64",
  "linkReferences": {},
  "deployedLinkReferences": {}
}