{
	"daostack/globalConstraints/TokenCapGC.sol": {
		"TokenCapGC": {
			"abi": [
				{
					"inputs": [
						{
							"internalType": "contract IERC20",
							"name": "_token",
							"type": "address"
						},
						{
							"internalType": "uint256",
							"name": "_cap",
							"type": "uint256"
						}
					],
					"name": "getParametersHash",
					"outputs": [
						{
							"internalType": "bytes32",
							"name": "",
							"type": "bytes32"
						}
					],
					"stateMutability": "pure",
					"type": "function"
				},
				{
					"inputs": [
						{
							"internalType": "bytes32",
							"name": "",
							"type": "bytes32"
						}
					],
					"name": "parameters",
					"outputs": [
						{
							"internalType": "contract IERC20",
							"name": "token",
							"type": "address"
						},
						{
							"internalType": "uint256",
							"name": "cap",
							"type": "uint256"
						}
					],
					"stateMutability": "view",
					"type": "function"
				},
				{
					"inputs": [
						{
							"internalType": "address",
							"name": "",
							"type": "address"
						},
						{
							"internalType": "bytes32",
							"name": "_paramsHash",
							"type": "bytes32"
						},
						{
							"internalType": "bytes32",
							"name": "",
							"type": "bytes32"
						}
					],
					"name": "post",
					"outputs": [
						{
							"internalType": "bool",
							"name": "",
							"type": "bool"
						}
					],
					"stateMutability": "view",
					"type": "function"
				},
				{
					"inputs": [
						{
							"internalType": "address",
							"name": "",
							"type": "address"
						},
						{
							"internalType": "bytes32",
							"name": "",
							"type": "bytes32"
						},
						{
							"internalType": "bytes32",
							"name": "",
							"type": "bytes32"
						}
					],
					"name": "pre",
					"outputs": [
						{
							"internalType": "bool",
							"name": "",
							"type": "bool"
						}
					],
					"stateMutability": "pure",
					"type": "function"
				},
				{
					"inputs": [
						{
							"internalType": "contract IERC20",
							"name": "_token",
							"type": "address"
						},
						{
							"internalType": "uint256",
							"name": "_cap",
							"type": "uint256"
						}
					],
					"name": "setParameters",
					"outputs": [
						{
							"internalType": "bytes32",
							"name": "",
							"type": "bytes32"
						}
					],
					"stateMutability": "nonpayable",
					"type": "function"
				},
				{
					"inputs": [],
					"name": "when",
					"outputs": [
						{
							"internalType": "enum GlobalConstraintInterface.CallPhase",
							"name": "",
							"type": "uint8"
						}
					],
					"stateMutability": "pure",
					"type": "function"
				}
			],
			"devdoc": {
				"details": "A simple global constraint to cap the number of tokens.",
				"kind": "dev",
				"methods": {
					"getParametersHash(address,uint256)": {
						"details": "calculate and returns the hash of the given parameters",
						"params": {
							"_cap": "the cap to check the total supply against.",
							"_token": "the token to add to the params."
						},
						"returns": {
							"_0": "the calculated parameters hash"
						}
					},
					"post(address,bytes32,bytes32)": {
						"details": "check the total supply cap.",
						"params": {
							"_paramsHash": "the parameters hash to check the total supply cap against."
						},
						"returns": {
							"_0": "bool which represents a success"
						}
					},
					"pre(address,bytes32,bytes32)": {
						"details": "check the constraint after the action. This global constraint only checks the state after the action, so here we just return true:",
						"returns": {
							"_0": "true"
						}
					},
					"setParameters(address,uint256)": {
						"details": "adding a new set of parameters",
						"params": {
							"_cap": "the cap to check the total supply against.",
							"_token": "the token to add to the params."
						},
						"returns": {
							"_0": "the calculated parameters hash"
						}
					},
					"when()": {
						"details": "when return if this globalConstraints is pre, post or both.",
						"returns": {
							"_0": "CallPhase enum indication  Pre, Post or PreAndPost."
						}
					}
				},
				"title": "Token Cap Global Constraint",
				"version": 1
			},
			"evm": {
				"assembly": "    /* \"daostack/globalConstraints/TokenCapGC.sol\":282:2705  contract TokenCapGC {... */\n  mstore(0x40, 0x80)\n  callvalue\n  dup1\n  iszero\n  tag_1\n  jumpi\n  0x00\n  dup1\n  revert\ntag_1:\n  pop\n  dataSize(sub_0)\n  dup1\n  dataOffset(sub_0)\n  0x00\n  codecopy\n  0x00\n  return\nstop\n\nsub_0: assembly {\n        /* \"daostack/globalConstraints/TokenCapGC.sol\":282:2705  contract TokenCapGC {... */\n      mstore(0x40, 0x80)\n      callvalue\n      dup1\n      iszero\n      tag_1\n      jumpi\n      0x00\n      dup1\n      revert\n    tag_1:\n      pop\n      jumpi(tag_2, lt(calldatasize, 0x04))\n      shr(0xe0, calldataload(0x00))\n      dup1\n      0x02506804\n      eq\n      tag_3\n      jumpi\n      dup1\n      0x78fc063c\n      eq\n      tag_4\n      jumpi\n      dup1\n      0x8043154d\n      eq\n      tag_5\n      jumpi\n      dup1\n      0xc1786ab2\n      eq\n      tag_6\n      jumpi\n      dup1\n      0xc4198161\n      eq\n      tag_7\n      jumpi\n      dup1\n      0xe2b0caef\n      eq\n      tag_8\n      jumpi\n    tag_2:\n      0x00\n      dup1\n      revert\n        /* \"daostack/globalConstraints/TokenCapGC.sol\":529:577  mapping(bytes32 => Parameters) public parameters */\n    tag_3:\n      tag_9\n      tag_10\n      calldatasize\n      0x04\n      tag_11\n      jump\t// in\n    tag_10:\n      0x00\n      0x20\n      dup2\n      swap1\n      mstore\n      swap1\n      dup2\n      mstore\n      0x40\n      swap1\n      keccak256\n      dup1\n      sload\n      0x01\n      swap1\n      swap2\n      add\n      sload\n      sub(shl(0xa0, 0x01), 0x01)\n      swap1\n      swap2\n      and\n      swap1\n      dup3\n      jump\n    tag_9:\n      0x40\n      dup1\n      mload\n      sub(shl(0xa0, 0x01), 0x01)\n        /* \"#utility.yul\":404:436   */\n      swap1\n      swap4\n      and\n        /* \"#utility.yul\":386:437   */\n      dup4\n      mstore\n        /* \"#utility.yul\":468:470   */\n      0x20\n        /* \"#utility.yul\":453:471   */\n      dup4\n      add\n        /* \"#utility.yul\":446:480   */\n      swap2\n      swap1\n      swap2\n      mstore\n        /* \"#utility.yul\":359:377   */\n      add\n        /* \"daostack/globalConstraints/TokenCapGC.sol\":529:577  mapping(bytes32 => Parameters) public parameters */\n    tag_13:\n      mload(0x40)\n      dup1\n      swap2\n      sub\n      swap1\n      return\n        /* \"daostack/globalConstraints/TokenCapGC.sol\":1340:1495  function getParametersHash(IERC20 _token, uint256 _cap) public pure returns (bytes32) {... */\n    tag_4:\n      tag_15\n      tag_16\n      calldatasize\n      0x04\n      tag_17\n      jump\t// in\n    tag_16:\n      tag_18\n      jump\t// in\n    tag_15:\n      mload(0x40)\n        /* \"#utility.yul\":1122:1147   */\n      swap1\n      dup2\n      mstore\n        /* \"#utility.yul\":1110:1112   */\n      0x20\n        /* \"#utility.yul\":1095:1113   */\n      add\n        /* \"daostack/globalConstraints/TokenCapGC.sol\":1340:1495  function getParametersHash(IERC20 _token, uint256 _cap) public pure returns (bytes32) {... */\n      tag_13\n        /* \"#utility.yul\":976:1153   */\n      jump\n        /* \"daostack/globalConstraints/TokenCapGC.sol\":2027:2395  function post(... */\n    tag_5:\n      tag_21\n      tag_22\n      calldatasize\n      0x04\n      tag_23\n      jump\t// in\n    tag_22:\n      tag_24\n      jump\t// in\n    tag_21:\n      mload(0x40)\n        /* \"#utility.yul\":1719:1733   */\n      swap1\n      iszero\n        /* \"#utility.yul\":1712:1734   */\n      iszero\n        /* \"#utility.yul\":1694:1735   */\n      dup2\n      mstore\n        /* \"#utility.yul\":1682:1684   */\n      0x20\n        /* \"#utility.yul\":1667:1685   */\n      add\n        /* \"daostack/globalConstraints/TokenCapGC.sol\":2027:2395  function post(... */\n      tag_13\n        /* \"#utility.yul\":1554:1741   */\n      jump\n        /* \"daostack/globalConstraints/TokenCapGC.sol\":1694:1825  function pre(... */\n    tag_6:\n      tag_21\n      tag_28\n      calldatasize\n      0x04\n      tag_23\n      jump\t// in\n    tag_28:\n        /* \"daostack/globalConstraints/TokenCapGC.sol\":1813:1817  true */\n      0x01\n        /* \"daostack/globalConstraints/TokenCapGC.sol\":1694:1825  function pre(... */\n      swap4\n      swap3\n      pop\n      pop\n      pop\n      jump\n        /* \"daostack/globalConstraints/TokenCapGC.sol\":813:1081  function setParameters(IERC20 _token, uint256 _cap) public returns (bytes32) {... */\n    tag_7:\n      tag_15\n      tag_32\n      calldatasize\n      0x04\n      tag_17\n      jump\t// in\n    tag_32:\n      tag_33\n      jump\t// in\n        /* \"daostack/globalConstraints/TokenCapGC.sol\":2562:2702  function when() public pure returns (GlobalConstraintInterface.CallPhase) {... */\n    tag_8:\n        /* \"daostack/globalConstraints/TokenCapGC.sol\":2654:2694  GlobalConstraintInterface.CallPhase.Post */\n      0x01\n        /* \"daostack/globalConstraints/TokenCapGC.sol\":2562:2702  function when() public pure returns (GlobalConstraintInterface.CallPhase) {... */\n      mload(0x40)\n      tag_13\n      swap2\n      swap1\n      tag_38\n      jump\t// in\n        /* \"daostack/globalConstraints/TokenCapGC.sol\":1340:1495  function getParametersHash(IERC20 _token, uint256 _cap) public pure returns (bytes32) {... */\n    tag_18:\n        /* \"daostack/globalConstraints/TokenCapGC.sol\":1455:1485  abi.encodePacked(_token, _cap) */\n      mload(0x40)\n      not(0xffffffffffffffffffffffff)\n        /* \"#utility.yul\":2281:2283   */\n      0x60\n        /* \"#utility.yul\":2277:2292   */\n      dup5\n      swap1\n      shl\n        /* \"#utility.yul\":2273:2326   */\n      and\n        /* \"daostack/globalConstraints/TokenCapGC.sol\":1455:1485  abi.encodePacked(_token, _cap) */\n      0x20\n      dup3\n      add\n        /* \"#utility.yul\":2261:2327   */\n      mstore\n        /* \"#utility.yul\":2343:2355   */\n      0x34\n      dup2\n      add\n        /* \"#utility.yul\":2336:2364   */\n      dup3\n      swap1\n      mstore\n        /* \"daostack/globalConstraints/TokenCapGC.sol\":1417:1424  bytes32 */\n      0x00\n      swap1\n        /* \"#utility.yul\":2380:2392   */\n      0x54\n      add\n        /* \"daostack/globalConstraints/TokenCapGC.sol\":1455:1485  abi.encodePacked(_token, _cap) */\n      mload(0x40)\n      0x20\n      dup2\n      dup4\n      sub\n      sub\n      dup2\n      mstore\n      swap1\n      0x40\n      mstore\n        /* \"daostack/globalConstraints/TokenCapGC.sol\":1445:1486  keccak256(abi.encodePacked(_token, _cap)) */\n      dup1\n      mload\n      swap1\n      0x20\n      add\n      keccak256\n        /* \"daostack/globalConstraints/TokenCapGC.sol\":1437:1487  return (keccak256(abi.encodePacked(_token, _cap))) */\n      swap1\n      pop\n        /* \"daostack/globalConstraints/TokenCapGC.sol\":1340:1495  function getParametersHash(IERC20 _token, uint256 _cap) public pure returns (bytes32) {... */\n      swap3\n      swap2\n      pop\n      pop\n      jump\t// out\n        /* \"daostack/globalConstraints/TokenCapGC.sol\":2027:2395  function post(... */\n    tag_24:\n        /* \"daostack/globalConstraints/TokenCapGC.sol\":2135:2139  bool */\n      0x00\n        /* \"daostack/globalConstraints/TokenCapGC.sol\":2171:2194  parameters[_paramsHash] */\n      dup3\n      dup2\n      mstore\n      0x20\n      dup2\n      swap1\n      mstore\n      0x40\n      dup2\n      keccak256\n        /* \"daostack/globalConstraints/TokenCapGC.sol\":2171:2200  parameters[_paramsHash].token */\n      sload\n      sub(shl(0xa0, 0x01), 0x01)\n      and\n        /* \"daostack/globalConstraints/TokenCapGC.sol\":2171:2222  parameters[_paramsHash].token != IERC20(address(0)) */\n      iszero\n      dup1\n      iszero\n      swap1\n        /* \"daostack/globalConstraints/TokenCapGC.sol\":2170:2315  (parameters[_paramsHash].token != IERC20(address(0))) &&... */\n      tag_43\n      jumpi\n      pop\n        /* \"daostack/globalConstraints/TokenCapGC.sol\":2287:2297  parameters */\n      0x00\n        /* \"daostack/globalConstraints/TokenCapGC.sol\":2287:2310  parameters[_paramsHash] */\n      dup4\n      dup2\n      mstore\n      0x20\n      dup2\n      dup2\n      mstore\n      0x40\n      swap2\n      dup3\n      swap1\n      keccak256\n        /* \"daostack/globalConstraints/TokenCapGC.sol\":2287:2314  parameters[_paramsHash].cap */\n      0x01\n      dup2\n      add\n      sload\n        /* \"daostack/globalConstraints/TokenCapGC.sol\":2241:2270  parameters[_paramsHash].token */\n      swap1\n      sload\n        /* \"daostack/globalConstraints/TokenCapGC.sol\":2241:2284  parameters[_paramsHash].token.totalSupply() */\n      dup4\n      mload\n      shl(0xe0, 0x18160ddd)\n      dup2\n      mstore\n      swap4\n      mload\n        /* \"daostack/globalConstraints/TokenCapGC.sol\":2287:2314  parameters[_paramsHash].cap */\n      swap2\n      swap4\n      sub(shl(0xa0, 0x01), 0x01)\n        /* \"daostack/globalConstraints/TokenCapGC.sol\":2241:2270  parameters[_paramsHash].token */\n      swap1\n      swap2\n      and\n      swap3\n        /* \"daostack/globalConstraints/TokenCapGC.sol\":2241:2282  parameters[_paramsHash].token.totalSupply */\n      0x18160ddd\n      swap3\n        /* \"daostack/globalConstraints/TokenCapGC.sol\":2241:2284  parameters[_paramsHash].token.totalSupply() */\n      0x04\n      dup1\n      dup5\n      add\n      swap4\n      dup3\n      swap1\n      sub\n      add\n      dup2\n        /* \"daostack/globalConstraints/TokenCapGC.sol\":2241:2270  parameters[_paramsHash].token */\n      dup7\n        /* \"daostack/globalConstraints/TokenCapGC.sol\":2241:2284  parameters[_paramsHash].token.totalSupply() */\n      dup1\n      extcodesize\n      iszero\n      dup1\n      iszero\n      tag_44\n      jumpi\n      0x00\n      dup1\n      revert\n    tag_44:\n      pop\n      gas\n      staticcall\n      iszero\n      dup1\n      iszero\n      tag_46\n      jumpi\n      returndatasize\n      0x00\n      dup1\n      returndatacopy\n      revert(0x00, returndatasize)\n    tag_46:\n      pop\n      pop\n      pop\n      pop\n      mload(0x40)\n      returndatasize\n      not(0x1f)\n      0x1f\n      dup3\n      add\n      and\n      dup3\n      add\n      dup1\n      0x40\n      mstore\n      pop\n      dup2\n      add\n      swap1\n      tag_47\n      swap2\n      swap1\n      tag_48\n      jump\t// in\n    tag_47:\n        /* \"daostack/globalConstraints/TokenCapGC.sol\":2241:2314  parameters[_paramsHash].token.totalSupply() > parameters[_paramsHash].cap */\n      gt\n        /* \"daostack/globalConstraints/TokenCapGC.sol\":2170:2315  (parameters[_paramsHash].token != IERC20(address(0))) &&... */\n    tag_43:\n        /* \"daostack/globalConstraints/TokenCapGC.sol\":2152:2366  if (... */\n      iszero\n      tag_49\n      jumpi\n      pop\n        /* \"daostack/globalConstraints/TokenCapGC.sol\":2349:2354  false */\n      0x00\n        /* \"daostack/globalConstraints/TokenCapGC.sol\":2342:2354  return false */\n      jump(tag_42)\n        /* \"daostack/globalConstraints/TokenCapGC.sol\":2152:2366  if (... */\n    tag_49:\n      pop\n        /* \"daostack/globalConstraints/TokenCapGC.sol\":2383:2387  true */\n      0x01\n        /* \"daostack/globalConstraints/TokenCapGC.sol\":2027:2395  function post(... */\n    tag_42:\n      swap4\n      swap3\n      pop\n      pop\n      pop\n      jump\t// out\n        /* \"daostack/globalConstraints/TokenCapGC.sol\":813:1081  function setParameters(IERC20 _token, uint256 _cap) public returns (bytes32) {... */\n    tag_33:\n        /* \"daostack/globalConstraints/TokenCapGC.sol\":881:888  bytes32 */\n      0x00\n        /* \"daostack/globalConstraints/TokenCapGC.sol\":901:919  bytes32 paramsHash */\n      dup1\n        /* \"daostack/globalConstraints/TokenCapGC.sol\":922:953  getParametersHash(_token, _cap) */\n      tag_52\n        /* \"daostack/globalConstraints/TokenCapGC.sol\":940:946  _token */\n      dup5\n        /* \"daostack/globalConstraints/TokenCapGC.sol\":948:952  _cap */\n      dup5\n        /* \"daostack/globalConstraints/TokenCapGC.sol\":922:939  getParametersHash */\n      tag_18\n        /* \"daostack/globalConstraints/TokenCapGC.sol\":922:953  getParametersHash(_token, _cap) */\n      jump\t// in\n    tag_52:\n        /* \"daostack/globalConstraints/TokenCapGC.sol\":964:974  parameters */\n      0x00\n        /* \"daostack/globalConstraints/TokenCapGC.sol\":964:986  parameters[paramsHash] */\n      dup2\n      dup2\n      mstore\n      0x20\n      dup2\n      swap1\n      mstore\n      0x40\n      swap1\n      keccak256\n        /* \"daostack/globalConstraints/TokenCapGC.sol\":964:1001  parameters[paramsHash].token = _token */\n      dup1\n      sload\n      sub(shl(0xa0, 0x01), 0x01)\n      dup8\n      and\n      not(sub(shl(0xa0, 0x01), 0x01))\n      swap1\n      swap2\n      and\n      or\n      dup2\n      sstore\n      0x01\n        /* \"daostack/globalConstraints/TokenCapGC.sol\":1012:1038  parameters[paramsHash].cap */\n      add\n        /* \"daostack/globalConstraints/TokenCapGC.sol\":1012:1045  parameters[paramsHash].cap = _cap */\n      dup5\n      swap1\n      sstore\n        /* \"daostack/globalConstraints/TokenCapGC.sol\":901:953  bytes32 paramsHash = getParametersHash(_token, _cap) */\n      swap2\n      pop\n      pop\n        /* \"daostack/globalConstraints/TokenCapGC.sol\":813:1081  function setParameters(IERC20 _token, uint256 _cap) public returns (bytes32) {... */\n      swap3\n      swap2\n      pop\n      pop\n      jump\t// out\n        /* \"#utility.yul\":14:194   */\n    tag_11:\n        /* \"#utility.yul\":73:79   */\n      0x00\n        /* \"#utility.yul\":126:128   */\n      0x20\n        /* \"#utility.yul\":114:123   */\n      dup3\n        /* \"#utility.yul\":105:112   */\n      dup5\n        /* \"#utility.yul\":101:124   */\n      sub\n        /* \"#utility.yul\":97:129   */\n      slt\n        /* \"#utility.yul\":94:146   */\n      iszero\n      tag_57\n      jumpi\n        /* \"#utility.yul\":142:143   */\n      0x00\n        /* \"#utility.yul\":139:140   */\n      dup1\n        /* \"#utility.yul\":132:144   */\n      revert\n        /* \"#utility.yul\":94:146   */\n    tag_57:\n      pop\n        /* \"#utility.yul\":165:188   */\n      calldataload\n      swap2\n        /* \"#utility.yul\":14:194   */\n      swap1\n      pop\n      jump\t// out\n        /* \"#utility.yul\":491:630   */\n    tag_54:\n      sub(shl(0xa0, 0x01), 0x01)\n        /* \"#utility.yul\":574:605   */\n      dup2\n      and\n        /* \"#utility.yul\":564:606   */\n      dup2\n      eq\n        /* \"#utility.yul\":554:624   */\n      tag_60\n      jumpi\n        /* \"#utility.yul\":620:621   */\n      0x00\n        /* \"#utility.yul\":617:618   */\n      dup1\n        /* \"#utility.yul\":610:622   */\n      revert\n        /* \"#utility.yul\":554:624   */\n    tag_60:\n        /* \"#utility.yul\":491:630   */\n      pop\n      jump\t// out\n        /* \"#utility.yul\":635:971   */\n    tag_17:\n        /* \"#utility.yul\":716:722   */\n      0x00\n        /* \"#utility.yul\":724:730   */\n      dup1\n        /* \"#utility.yul\":777:779   */\n      0x40\n        /* \"#utility.yul\":765:774   */\n      dup4\n        /* \"#utility.yul\":756:763   */\n      dup6\n        /* \"#utility.yul\":752:775   */\n      sub\n        /* \"#utility.yul\":748:780   */\n      slt\n        /* \"#utility.yul\":745:797   */\n      iszero\n      tag_62\n      jumpi\n        /* \"#utility.yul\":793:794   */\n      0x00\n        /* \"#utility.yul\":790:791   */\n      dup1\n        /* \"#utility.yul\":783:795   */\n      revert\n        /* \"#utility.yul\":745:797   */\n    tag_62:\n        /* \"#utility.yul\":832:841   */\n      dup3\n        /* \"#utility.yul\":819:842   */\n      calldataload\n        /* \"#utility.yul\":851:890   */\n      tag_63\n        /* \"#utility.yul\":884:889   */\n      dup2\n        /* \"#utility.yul\":851:890   */\n      tag_54\n      jump\t// in\n    tag_63:\n        /* \"#utility.yul\":909:914   */\n      swap5\n        /* \"#utility.yul\":961:963   */\n      0x20\n        /* \"#utility.yul\":946:964   */\n      swap4\n      swap1\n      swap4\n      add\n        /* \"#utility.yul\":933:965   */\n      calldataload\n      swap4\n      pop\n      pop\n      pop\n        /* \"#utility.yul\":635:971   */\n      jump\t// out\n        /* \"#utility.yul\":1158:1549   */\n    tag_23:\n        /* \"#utility.yul\":1235:1241   */\n      0x00\n        /* \"#utility.yul\":1243:1249   */\n      dup1\n        /* \"#utility.yul\":1251:1257   */\n      0x00\n        /* \"#utility.yul\":1304:1306   */\n      0x60\n        /* \"#utility.yul\":1292:1301   */\n      dup5\n        /* \"#utility.yul\":1283:1290   */\n      dup7\n        /* \"#utility.yul\":1279:1302   */\n      sub\n        /* \"#utility.yul\":1275:1307   */\n      slt\n        /* \"#utility.yul\":1272:1324   */\n      iszero\n      tag_66\n      jumpi\n        /* \"#utility.yul\":1320:1321   */\n      0x00\n        /* \"#utility.yul\":1317:1318   */\n      dup1\n        /* \"#utility.yul\":1310:1322   */\n      revert\n        /* \"#utility.yul\":1272:1324   */\n    tag_66:\n        /* \"#utility.yul\":1359:1368   */\n      dup4\n        /* \"#utility.yul\":1346:1369   */\n      calldataload\n        /* \"#utility.yul\":1378:1417   */\n      tag_67\n        /* \"#utility.yul\":1411:1416   */\n      dup2\n        /* \"#utility.yul\":1378:1417   */\n      tag_54\n      jump\t// in\n    tag_67:\n        /* \"#utility.yul\":1436:1441   */\n      swap6\n        /* \"#utility.yul\":1488:1490   */\n      0x20\n        /* \"#utility.yul\":1473:1491   */\n      dup6\n      add\n        /* \"#utility.yul\":1460:1492   */\n      calldataload\n      swap6\n      pop\n        /* \"#utility.yul\":1539:1541   */\n      0x40\n        /* \"#utility.yul\":1524:1542   */\n      swap1\n      swap5\n      add\n        /* \"#utility.yul\":1511:1543   */\n      calldataload\n      swap4\n        /* \"#utility.yul\":1158:1549   */\n      swap3\n      pop\n      pop\n      pop\n      jump\t// out\n        /* \"#utility.yul\":1746:2086   */\n    tag_38:\n        /* \"#utility.yul\":1890:1892   */\n      0x20\n        /* \"#utility.yul\":1875:1893   */\n      dup2\n      add\n        /* \"#utility.yul\":1923:1924   */\n      0x03\n        /* \"#utility.yul\":1912:1925   */\n      dup4\n      lt\n        /* \"#utility.yul\":1902:2046   */\n      tag_70\n      jumpi\n        /* \"#utility.yul\":1968:1978   */\n      0x4e487b71\n        /* \"#utility.yul\":1963:1966   */\n      0xe0\n        /* \"#utility.yul\":1959:1979   */\n      shl\n        /* \"#utility.yul\":1956:1957   */\n      0x00\n        /* \"#utility.yul\":1949:1980   */\n      mstore\n        /* \"#utility.yul\":2003:2007   */\n      0x21\n        /* \"#utility.yul\":2000:2001   */\n      0x04\n        /* \"#utility.yul\":1993:2008   */\n      mstore\n        /* \"#utility.yul\":2031:2035   */\n      0x24\n        /* \"#utility.yul\":2028:2029   */\n      0x00\n        /* \"#utility.yul\":2021:2036   */\n      revert\n        /* \"#utility.yul\":1902:2046   */\n    tag_70:\n        /* \"#utility.yul\":2055:2080   */\n      swap2\n      swap1\n      mstore\n        /* \"#utility.yul\":1746:2086   */\n      swap1\n      jump\t// out\n        /* \"#utility.yul\":2403:2587   */\n    tag_48:\n        /* \"#utility.yul\":2473:2479   */\n      0x00\n        /* \"#utility.yul\":2526:2528   */\n      0x20\n        /* \"#utility.yul\":2514:2523   */\n      dup3\n        /* \"#utility.yul\":2505:2512   */\n      dup5\n        /* \"#utility.yul\":2501:2524   */\n      sub\n        /* \"#utility.yul\":2497:2529   */\n      slt\n        /* \"#utility.yul\":2494:2546   */\n      iszero\n      tag_73\n      jumpi\n        /* \"#utility.yul\":2542:2543   */\n      0x00\n        /* \"#utility.yul\":2539:2540   */\n      dup1\n        /* \"#utility.yul\":2532:2544   */\n      revert\n        /* \"#utility.yul\":2494:2546   */\n    tag_73:\n      pop\n        /* \"#utility.yul\":2565:2581   */\n      mload\n      swap2\n        /* \"#utility.yul\":2403:2587   */\n      swap1\n      pop\n      jump\t// out\n\n    auxdata: 0xa264697066735822122031d53cbe6eac0364ce7733f4a3d739f1c5d9bd0b64f9eacb9cc5160bc1cb4d8864736f6c63430008080033\n}\n",
				"bytecode": {
					"linkReferences": {},
					"object": "608060405234801561001057600080fd5b50610396806100206000396000f3fe608060405234801561001057600080fd5b50600436106100625760003560e01c8063025068041461006757806378fc063c146100be5780638043154d146100df578063c1786ab214610102578063c419816114610119578063e2b0caef1461012c575b600080fd5b61009a61007536600461028d565b600060208190529081526040902080546001909101546001600160a01b039091169082565b604080516001600160a01b0390931683526020830191909152015b60405180910390f35b6100d16100cc3660046102be565b61013b565b6040519081526020016100b5565b6100f26100ed3660046102ea565b610182565b60405190151581526020016100b5565b6100f26101103660046102ea565b60019392505050565b6100d16101273660046102be565b610248565b60016040516100b5919061031f565b6040516bffffffffffffffffffffffff19606084901b1660208201526034810182905260009060540160405160208183030381529060405280519060200120905092915050565b6000828152602081905260408120546001600160a01b0316158015906102305750600083815260208181526040918290206001810154905483516318160ddd60e01b8152935191936001600160a01b03909116926318160ddd92600480840193829003018186803b1580156101f657600080fd5b505afa15801561020a573d6000803e3d6000fd5b505050506040513d601f19601f8201168201806040525081019061022e9190610347565b115b1561023d57506000610241565b5060015b9392505050565b600080610255848461013b565b600081815260208190526040902080546001600160a01b0387166001600160a01b031990911617815560010184905591505092915050565b60006020828403121561029f57600080fd5b5035919050565b6001600160a01b03811681146102bb57600080fd5b50565b600080604083850312156102d157600080fd5b82356102dc816102a6565b946020939093013593505050565b6000806000606084860312156102ff57600080fd5b833561030a816102a6565b95602085013595506040909401359392505050565b602081016003831061034157634e487b7160e01b600052602160045260246000fd5b91905290565b60006020828403121561035957600080fd5b505191905056fea264697066735822122031d53cbe6eac0364ce7733f4a3d739f1c5d9bd0b64f9eacb9cc5160bc1cb4d8864736f6c63430008080033",
					"opcodes": "PUSH1 0x80 PUSH1 0x40 MSTORE CALLVALUE DUP1 ISZERO PUSH2 0x10 JUMPI PUSH1 0x0 DUP1 REVERT JUMPDEST POP PUSH2 0x396 DUP1 PUSH2 0x20 PUSH1 0x0 CODECOPY PUSH1 0x0 RETURN INVALID PUSH1 0x80 PUSH1 0x40 MSTORE CALLVALUE DUP1 ISZERO PUSH2 0x10 JUMPI PUSH1 0x0 DUP1 REVERT JUMPDEST POP PUSH1 0x4 CALLDATASIZE LT PUSH2 0x62 JUMPI PUSH1 0x0 CALLDATALOAD PUSH1 0xE0 SHR DUP1 PUSH4 0x2506804 EQ PUSH2 0x67 JUMPI DUP1 PUSH4 0x78FC063C EQ PUSH2 0xBE JUMPI DUP1 PUSH4 0x8043154D EQ PUSH2 0xDF JUMPI DUP1 PUSH4 0xC1786AB2 EQ PUSH2 0x102 JUMPI DUP1 PUSH4 0xC4198161 EQ PUSH2 0x119 JUMPI DUP1 PUSH4 0xE2B0CAEF EQ PUSH2 0x12C JUMPI JUMPDEST PUSH1 0x0 DUP1 REVERT JUMPDEST PUSH2 0x9A PUSH2 0x75 CALLDATASIZE PUSH1 0x4 PUSH2 0x28D JUMP JUMPDEST PUSH1 0x0 PUSH1 0x20 DUP2 SWAP1 MSTORE SWAP1 DUP2 MSTORE PUSH1 0x40 SWAP1 KECCAK256 DUP1 SLOAD PUSH1 0x1 SWAP1 SWAP2 ADD SLOAD PUSH1 0x1 PUSH1 0x1 PUSH1 0xA0 SHL SUB SWAP1 SWAP2 AND SWAP1 DUP3 JUMP JUMPDEST PUSH1 0x40 DUP1 MLOAD PUSH1 0x1 PUSH1 0x1 PUSH1 0xA0 SHL SUB SWAP1 SWAP4 AND DUP4 MSTORE PUSH1 0x20 DUP4 ADD SWAP2 SWAP1 SWAP2 MSTORE ADD JUMPDEST PUSH1 0x40 MLOAD DUP1 SWAP2 SUB SWAP1 RETURN JUMPDEST PUSH2 0xD1 PUSH2 0xCC CALLDATASIZE PUSH1 0x4 PUSH2 0x2BE JUMP JUMPDEST PUSH2 0x13B JUMP JUMPDEST PUSH1 0x40 MLOAD SWAP1 DUP2 MSTORE PUSH1 0x20 ADD PUSH2 0xB5 JUMP JUMPDEST PUSH2 0xF2 PUSH2 0xED CALLDATASIZE PUSH1 0x4 PUSH2 0x2EA JUMP JUMPDEST PUSH2 0x182 JUMP JUMPDEST PUSH1 0x40 MLOAD SWAP1 ISZERO ISZERO DUP2 MSTORE PUSH1 0x20 ADD PUSH2 0xB5 JUMP JUMPDEST PUSH2 0xF2 PUSH2 0x110 CALLDATASIZE PUSH1 0x4 PUSH2 0x2EA JUMP JUMPDEST PUSH1 0x1 SWAP4 SWAP3 POP POP POP JUMP JUMPDEST PUSH2 0xD1 PUSH2 0x127 CALLDATASIZE PUSH1 0x4 PUSH2 0x2BE JUMP JUMPDEST PUSH2 0x248 JUMP JUMPDEST PUSH1 0x1 PUSH1 0x40 MLOAD PUSH2 0xB5 SWAP2 SWAP1 PUSH2 0x31F JUMP JUMPDEST PUSH1 0x40 MLOAD PUSH12 0xFFFFFFFFFFFFFFFFFFFFFFFF NOT PUSH1 0x60 DUP5 SWAP1 SHL AND PUSH1 0x20 DUP3 ADD MSTORE PUSH1 0x34 DUP2 ADD DUP3 SWAP1 MSTORE PUSH1 0x0 SWAP1 PUSH1 0x54 ADD PUSH1 0x40 MLOAD PUSH1 0x20 DUP2 DUP4 SUB SUB DUP2 MSTORE SWAP1 PUSH1 0x40 MSTORE DUP1 MLOAD SWAP1 PUSH1 0x20 ADD KECCAK256 SWAP1 POP SWAP3 SWAP2 POP POP JUMP JUMPDEST PUSH1 0x0 DUP3 DUP2 MSTORE PUSH1 0x20 DUP2 SWAP1 MSTORE PUSH1 0x40 DUP2 KECCAK256 SLOAD PUSH1 0x1 PUSH1 0x1 PUSH1 0xA0 SHL SUB AND ISZERO DUP1 ISZERO SWAP1 PUSH2 0x230 JUMPI POP PUSH1 0x0 DUP4 DUP2 MSTORE PUSH1 0x20 DUP2 DUP2 MSTORE PUSH1 0x40 SWAP2 DUP3 SWAP1 KECCAK256 PUSH1 0x1 DUP2 ADD SLOAD SWAP1 SLOAD DUP4 MLOAD PUSH4 0x18160DDD PUSH1 0xE0 SHL DUP2 MSTORE SWAP4 MLOAD SWAP2 SWAP4 PUSH1 0x1 PUSH1 0x1 PUSH1 0xA0 SHL SUB SWAP1 SWAP2 AND SWAP3 PUSH4 0x18160DDD SWAP3 PUSH1 0x4 DUP1 DUP5 ADD SWAP4 DUP3 SWAP1 SUB ADD DUP2 DUP7 DUP1 EXTCODESIZE ISZERO DUP1 ISZERO PUSH2 0x1F6 JUMPI PUSH1 0x0 DUP1 REVERT JUMPDEST POP GAS STATICCALL ISZERO DUP1 ISZERO PUSH2 0x20A JUMPI RETURNDATASIZE PUSH1 0x0 DUP1 RETURNDATACOPY RETURNDATASIZE PUSH1 0x0 REVERT JUMPDEST POP POP POP POP PUSH1 0x40 MLOAD RETURNDATASIZE PUSH1 0x1F NOT PUSH1 0x1F DUP3 ADD AND DUP3 ADD DUP1 PUSH1 0x40 MSTORE POP DUP2 ADD SWAP1 PUSH2 0x22E SWAP2 SWAP1 PUSH2 0x347 JUMP JUMPDEST GT JUMPDEST ISZERO PUSH2 0x23D JUMPI POP PUSH1 0x0 PUSH2 0x241 JUMP JUMPDEST POP PUSH1 0x1 JUMPDEST SWAP4 SWAP3 POP POP POP JUMP JUMPDEST PUSH1 0x0 DUP1 PUSH2 0x255 DUP5 DUP5 PUSH2 0x13B JUMP JUMPDEST PUSH1 0x0 DUP2 DUP2 MSTORE PUSH1 0x20 DUP2 SWAP1 MSTORE PUSH1 0x40 SWAP1 KECCAK256 DUP1 SLOAD PUSH1 0x1 PUSH1 0x1 PUSH1 0xA0 SHL SUB DUP8 AND PUSH1 0x1 PUSH1 0x1 PUSH1 0xA0 SHL SUB NOT SWAP1 SWAP2 AND OR DUP2 SSTORE PUSH1 0x1 ADD DUP5 SWAP1 SSTORE SWAP2 POP POP SWAP3 SWAP2 POP POP JUMP JUMPDEST PUSH1 0x0 PUSH1 0x20 DUP3 DUP5 SUB SLT ISZERO PUSH2 0x29F JUMPI PUSH1 0x0 DUP1 REVERT JUMPDEST POP CALLDATALOAD SWAP2 SWAP1 POP JUMP JUMPDEST PUSH1 0x1 PUSH1 0x1 PUSH1 0xA0 SHL SUB DUP2 AND DUP2 EQ PUSH2 0x2BB JUMPI PUSH1 0x0 DUP1 REVERT JUMPDEST POP JUMP JUMPDEST PUSH1 0x0 DUP1 PUSH1 0x40 DUP4 DUP6 SUB SLT ISZERO PUSH2 0x2D1 JUMPI PUSH1 0x0 DUP1 REVERT JUMPDEST DUP3 CALLDATALOAD PUSH2 0x2DC DUP2 PUSH2 0x2A6 JUMP JUMPDEST SWAP5 PUSH1 0x20 SWAP4 SWAP1 SWAP4 ADD CALLDATALOAD SWAP4 POP POP POP JUMP JUMPDEST PUSH1 0x0 DUP1 PUSH1 0x0 PUSH1 0x60 DUP5 DUP7 SUB SLT ISZERO PUSH2 0x2FF JUMPI PUSH1 0x0 DUP1 REVERT JUMPDEST DUP4 CALLDATALOAD PUSH2 0x30A DUP2 PUSH2 0x2A6 JUMP JUMPDEST SWAP6 PUSH1 0x20 DUP6 ADD CALLDATALOAD SWAP6 POP PUSH1 0x40 SWAP1 SWAP5 ADD CALLDATALOAD SWAP4 SWAP3 POP POP POP JUMP JUMPDEST PUSH1 0x20 DUP2 ADD PUSH1 0x3 DUP4 LT PUSH2 0x341 JUMPI PUSH4 0x4E487B71 PUSH1 0xE0 SHL PUSH1 0x0 MSTORE PUSH1 0x21 PUSH1 0x4 MSTORE PUSH1 0x24 PUSH1 0x0 REVERT JUMPDEST SWAP2 SWAP1 MSTORE SWAP1 JUMP JUMPDEST PUSH1 0x0 PUSH1 0x20 DUP3 DUP5 SUB SLT ISZERO PUSH2 0x359 JUMPI PUSH1 0x0 DUP1 REVERT JUMPDEST POP MLOAD SWAP2 SWAP1 POP JUMP INVALID LOG2 PUSH5 0x6970667358 0x22 SLT KECCAK256 BALANCE 0xD5 EXTCODECOPY 0xBE PUSH15 0xAC0364CE7733F4A3D739F1C5D9BD0B PUSH5 0xF9EACB9CC5 AND SIGNEXTEND 0xC1 0xCB 0x4D DUP9 PUSH5 0x736F6C6343 STOP ADDMOD ADDMOD STOP CALLER "
				},
				"gasEstimates": {
					"creation": {
						"codeDepositCost": "183600",
						"executionCost": "226",
						"totalCost": "183826"
					},
					"external": {
						"getParametersHash(address,uint256)": "560",
						"parameters(bytes32)": "4595",
						"post(address,bytes32,bytes32)": "infinite",
						"pre(address,bytes32,bytes32)": "447",
						"setParameters(address,uint256)": "47120",
						"when()": "315"
					}
				},
				"methodIdentifiers": {
					"getParametersHash(address,uint256)": "78fc063c",
					"parameters(bytes32)": "02506804",
					"post(address,bytes32,bytes32)": "8043154d",
					"pre(address,bytes32,bytes32)": "c1786ab2",
					"setParameters(address,uint256)": "c4198161",
					"when()": "e2b0caef"
				}
			},
			"storageLayout": {
				"storage": [
					{
						"astId": 129,
						"contract": "daostack/globalConstraints/TokenCapGC.sol:TokenCapGC",
						"label": "parameters",
						"offset": 0,
						"slot": "0",
						"type": "t_mapping(t_bytes32,t_struct(Parameters)124_storage)"
					}
				],
				"types": {
					"t_bytes32": {
						"encoding": "inplace",
						"label": "bytes32",
						"numberOfBytes": "32"
					},
					"t_contract(IERC20)77": {
						"encoding": "inplace",
						"label": "contract IERC20",
						"numberOfBytes": "20"
					},
					"t_mapping(t_bytes32,t_struct(Parameters)124_storage)": {
						"encoding": "mapping",
						"key": "t_bytes32",
						"label": "mapping(bytes32 => struct TokenCapGC.Parameters)",
						"numberOfBytes": "32",
						"value": "t_struct(Parameters)124_storage"
					},
					"t_struct(Parameters)124_storage": {
						"encoding": "inplace",
						"label": "struct TokenCapGC.Parameters",
						"members": [
							{
								"astId": 121,
								"contract": "daostack/globalConstraints/TokenCapGC.sol:TokenCapGC",
								"label": "token",
								"offset": 0,
								"slot": "0",
								"type": "t_contract(IERC20)77"
							},
							{
								"astId": 123,
								"contract": "daostack/globalConstraints/TokenCapGC.sol:TokenCapGC",
								"label": "cap",
								"offset": 0,
								"slot": "1",
								"type": "t_uint256"
							}
						],
						"numberOfBytes": "64"
					},
					"t_uint256": {
						"encoding": "inplace",
						"label": "uint256",
						"numberOfBytes": "32"
					}
				}
			},
			"userdoc": {
				"kind": "user",
				"methods": {},
				"version": 1
			}
		}
	}
}