{
  "_format": "hh-sol-artifact-1",
  "contractName": "ExordeVestingWallet",
  "sourceName": "contracts/token-distribution/ExordeVestingWallet.sol",
  "abi": [
    {
      "inputs": [
        {
          "internalType": "uint64",
          "name": "investor_id_",
          "type": "uint64"
        },
        {
          "internalType": "string",
          "name": "info_",
          "type": "string"
        },
        {
          "internalType": "address",
          "name": "beneficiaryAddress_",
          "type": "address"
        },
        {
          "internalType": "uint64",
          "name": "startTimestamp_",
          "type": "uint64"
        },
        {
          "internalType": "uint64",
          "name": "durationSeconds_",
          "type": "uint64"
        }
      ],
      "stateMutability": "nonpayable",
      "type": "constructor"
    },
    {
      "anonymous": false,
      "inputs": [
        {
          "indexed": true,
          "internalType": "address",
          "name": "previousBeneficiary",
          "type": "address"
        },
        {
          "indexed": false,
          "internalType": "address",
          "name": "newBeneficiary",
          "type": "address"
        }
      ],
      "name": "BeneficiaryUpdated",
      "type": "event"
    },
    {
      "anonymous": false,
      "inputs": [
        {
          "indexed": true,
          "internalType": "address",
          "name": "token",
          "type": "address"
        },
        {
          "indexed": false,
          "internalType": "uint256",
          "name": "amount",
          "type": "uint256"
        }
      ],
      "name": "ERC20Released",
      "type": "event"
    },
    {
      "anonymous": false,
      "inputs": [
        {
          "indexed": false,
          "internalType": "uint256",
          "name": "amount",
          "type": "uint256"
        }
      ],
      "name": "EtherReleased",
      "type": "event"
    },
    {
      "inputs": [],
      "name": "beneficiary",
      "outputs": [
        {
          "internalType": "address",
          "name": "",
          "type": "address"
        }
      ],
      "stateMutability": "view",
      "type": "function"
    },
    {
      "inputs": [],
      "name": "duration",
      "outputs": [
        {
          "internalType": "uint256",
          "name": "",
          "type": "uint256"
        }
      ],
      "stateMutability": "view",
      "type": "function"
    },
    {
      "inputs": [],
      "name": "durationSeconds",
      "outputs": [
        {
          "internalType": "uint64",
          "name": "",
          "type": "uint64"
        }
      ],
      "stateMutability": "view",
      "type": "function"
    },
    {
      "inputs": [],
      "name": "info",
      "outputs": [
        {
          "internalType": "string",
          "name": "",
          "type": "string"
        }
      ],
      "stateMutability": "view",
      "type": "function"
    },
    {
      "inputs": [],
      "name": "investor_id",
      "outputs": [
        {
          "internalType": "uint64",
          "name": "",
          "type": "uint64"
        }
      ],
      "stateMutability": "view",
      "type": "function"
    },
    {
      "inputs": [
        {
          "internalType": "address",
          "name": "token",
          "type": "address"
        }
      ],
      "name": "releasable",
      "outputs": [
        {
          "internalType": "uint256",
          "name": "",
          "type": "uint256"
        }
      ],
      "stateMutability": "view",
      "type": "function"
    },
    {
      "inputs": [],
      "name": "releasable",
      "outputs": [
        {
          "internalType": "uint256",
          "name": "",
          "type": "uint256"
        }
      ],
      "stateMutability": "view",
      "type": "function"
    },
    {
      "inputs": [
        {
          "internalType": "address",
          "name": "token",
          "type": "address"
        }
      ],
      "name": "release",
      "outputs": [],
      "stateMutability": "nonpayable",
      "type": "function"
    },
    {
      "inputs": [],
      "name": "release",
      "outputs": [],
      "stateMutability": "nonpayable",
      "type": "function"
    },
    {
      "inputs": [],
      "name": "released",
      "outputs": [
        {
          "internalType": "uint256",
          "name": "",
          "type": "uint256"
        }
      ],
      "stateMutability": "view",
      "type": "function"
    },
    {
      "inputs": [
        {
          "internalType": "address",
          "name": "token",
          "type": "address"
        }
      ],
      "name": "released",
      "outputs": [
        {
          "internalType": "uint256",
          "name": "",
          "type": "uint256"
        }
      ],
      "stateMutability": "view",
      "type": "function"
    },
    {
      "inputs": [],
      "name": "start",
      "outputs": [
        {
          "internalType": "uint256",
          "name": "",
          "type": "uint256"
        }
      ],
      "stateMutability": "view",
      "type": "function"
    },
    {
      "inputs": [
        {
          "internalType": "address",
          "name": "replacementBeneficiaryAddress_",
          "type": "address"
        }
      ],
      "name": "updateBeneficiary",
      "outputs": [],
      "stateMutability": "nonpayable",
      "type": "function"
    },
    {
      "inputs": [
        {
          "internalType": "uint64",
          "name": "timestamp",
          "type": "uint64"
        }
      ],
      "name": "vestedAmount",
      "outputs": [
        {
          "internalType": "uint256",
          "name": "",
          "type": "uint256"
        }
      ],
      "stateMutability": "view",
      "type": "function"
    },
    {
      "inputs": [
        {
          "internalType": "address",
          "name": "token",
          "type": "address"
        },
        {
          "internalType": "uint64",
          "name": "timestamp",
          "type": "uint64"
        }
      ],
      "name": "vestedAmount",
      "outputs": [
        {
          "internalType": "uint256",
          "name": "",
          "type": "uint256"
        }
      ],
      "stateMutability": "view",
      "type": "function"
    },
    {
      "stateMutability": "payable",
      "type": "receive"
    }
  ],
  "bytecode": "0x60c06040523480156200001157600080fd5b506040516200118938038062001189833981016040819052620000349162000223565b8282826001600160a01b038316620000a55760405162461bcd60e51b815260206004820152602a60248201527f56657374696e6757616c6c65743a2062656e6566696369617279206973207a65604482015269726f206164647265737360b01b606482015260840160405180910390fd5b600280546001600160c01b031960c094851b81166080529290931b90911660a0526001600160401b03888116600160a01b026001600160e01b03199093166001600160a01b0390941693909317919091179055600380549183166001600160401b031990921691909117905583516200012690600490602087019062000132565b5050505050506200038b565b82805462000140906200034e565b90600052602060002090601f016020900481019282620001645760008555620001af565b82601f106200017f57805160ff1916838001178555620001af565b82800160010185558215620001af579182015b82811115620001af57825182559160200191906001019062000192565b50620001bd929150620001c1565b5090565b5b80821115620001bd5760008155600101620001c2565b80516001600160401b0381168114620001f057600080fd5b919050565b634e487b7160e01b600052604160045260246000fd5b80516001600160a01b0381168114620001f057600080fd5b600080600080600060a086880312156200023c57600080fd5b6200024786620001d8565b602087810151919650906001600160401b03808211156200026757600080fd5b818901915089601f8301126200027c57600080fd5b815181811115620002915762000291620001f5565b604051601f8201601f19908116603f01168101908382118183101715620002bc57620002bc620001f5565b816040528281528c86848701011115620002d557600080fd5b600093505b82841015620002f95784840186015181850187015292850192620002da565b828411156200030b5760008684830101525b80995050505050505062000322604087016200020b565b92506200033260608701620001d8565b91506200034260808701620001d8565b90509295509295909350565b600181811c908216806200036357607f821691505b602082108114156200038557634e487b7160e01b600052602260045260246000fd5b50919050565b60805160c01c60a05160c01c610dc4620003c56000396000818161015c015281816106f201526107470152600061068e0152610dc46000f3fe6080604052600436106100ec5760003560e01c806386d1a69f1161008a578063a3f8eace11610059578063a3f8eace146102ae578063be9a6555146102ce578063e02577e8146102e3578063fbccedae1461030b57600080fd5b806386d1a69f1461021457806396132521146102295780639852595c1461023e5780639acba2af1461027457600080fd5b806319165587116100c6578063191655871461018a578063370158ea146101aa57806338af3eed146101cc578063810ec23b146101f457600080fd5b80630a17b06b146100f85780630aaffd2a1461012b5780630fb5a6b41461014d57600080fd5b366100f357005b600080fd5b34801561010457600080fd5b50610118610113366004610b93565b610320565b6040519081526020015b60405180910390f35b34801561013757600080fd5b5061014b610146366004610bc5565b610344565b005b34801561015957600080fd5b507f000000000000000000000000000000000000000000000000000000000000000067ffffffffffffffff16610118565b34801561019657600080fd5b5061014b6101a5366004610bc5565b610415565b3480156101b657600080fd5b506101bf6104b0565b6040516101229190610c10565b3480156101d857600080fd5b506002546040516001600160a01b039091168152602001610122565b34801561020057600080fd5b5061011861020f366004610c43565b61053e565b34801561022057600080fd5b5061014b6105e3565b34801561023557600080fd5b50600054610118565b34801561024a57600080fd5b50610118610259366004610bc5565b6001600160a01b031660009081526001602052604090205490565b34801561028057600080fd5b506003546102959067ffffffffffffffff1681565b60405167ffffffffffffffff9091168152602001610122565b3480156102ba57600080fd5b506101186102c9366004610bc5565b610656565b3480156102da57600080fd5b50610118610683565b3480156102ef57600080fd5b5060025461029590600160a01b900467ffffffffffffffff1681565b34801561031757600080fd5b506101186106b1565b600061033e61032e60005490565b6103389047610c8c565b836106cd565b92915050565b6002546001600160a01b031633146103bf5760405162461bcd60e51b815260206004820152603360248201527f4f6e6c79207468652063757272656e742062656e65666963696172792063616e6044820152722075706461746520746865206164647265737360681b60648201526084015b60405180910390fd5b600280546001600160a01b0319166001600160a01b03831690811790915560405190815233907fe72eaf6addaa195f3c83095031dd08f3a96808dcf047babed1fe4e4f69d6c6229060200160405180910390a250565b600061042082610656565b6001600160a01b03831660009081526001602052604081208054929350839290919061044d908490610c8c565b90915550506040518181526001600160a01b038316907fc0e523490dd523c33b1878c9eb14ff46991e3f5b2cd33710918618f2a39cba1b9060200160405180910390a26104ac826104a66002546001600160a01b031690565b836107a7565b5050565b600480546104bd90610ca4565b80601f01602080910402602001604051908101604052809291908181526020018280546104e990610ca4565b80156105365780601f1061050b57610100808354040283529160200191610536565b820191906000526020600020905b81548152906001019060200180831161051957829003601f168201915b505050505081565b6001600160a01b0382166000908152600160205260408120546105dc906040516370a0823160e01b81523060048201526001600160a01b038616906370a082319060240160206040518083038186803b15801561059a57600080fd5b505afa1580156105ae573d6000803e3d6000fd5b505050506040513d601f19601f820116820180604052508101906105d29190610cdf565b6103389190610c8c565b9392505050565b60006105ed6106b1565b9050806000808282546106009190610c8c565b90915550506040518181527fda9d4e5f101b8b9b1c5b76d0c5a9f7923571acfc02376aa076b75a8c080c956b9060200160405180910390a161065361064d6002546001600160a01b031690565b826107fe565b50565b6001600160a01b038116600090815260016020526040812054610679834261053e565b61033e9190610cf8565b67ffffffffffffffff7f00000000000000000000000000000000000000000000000000000000000000001690565b600080546106be42610320565b6106c89190610cf8565b905090565b60006106d7610683565b8267ffffffffffffffff1610156106f05750600061033e565b7f000000000000000000000000000000000000000000000000000000000000000067ffffffffffffffff16610723610683565b61072d9190610c8c565b8267ffffffffffffffff16111561074557508161033e565b7f000000000000000000000000000000000000000000000000000000000000000067ffffffffffffffff16610778610683565b61078c9067ffffffffffffffff8516610cf8565b6107969085610d0f565b6107a09190610d2e565b905061033e565b604080516001600160a01b038416602482015260448082018490528251808303909101815260649091019091526020810180516001600160e01b031663a9059cbb60e01b1790526107f9908490610917565b505050565b8047101561084e5760405162461bcd60e51b815260206004820152601d60248201527f416464726573733a20696e73756666696369656e742062616c616e636500000060448201526064016103b6565b6000826001600160a01b03168260405160006040518083038185875af1925050503d806000811461089b576040519150601f19603f3d011682016040523d82523d6000602084013e6108a0565b606091505b50509050806107f95760405162461bcd60e51b815260206004820152603a60248201527f416464726573733a20756e61626c6520746f2073656e642076616c75652c207260448201527f6563697069656e74206d6179206861766520726576657274656400000000000060648201526084016103b6565b600061096c826040518060400160405280602081526020017f5361666545524332303a206c6f772d6c6576656c2063616c6c206661696c6564815250856001600160a01b03166109e99092919063ffffffff16565b8051909150156107f9578080602001905181019061098a9190610d50565b6107f95760405162461bcd60e51b815260206004820152602a60248201527f5361666545524332303a204552433230206f7065726174696f6e20646964206e6044820152691bdd081cdd58d8d9595960b21b60648201526084016103b6565b60606109f88484600085610a00565b949350505050565b606082471015610a615760405162461bcd60e51b815260206004820152602660248201527f416464726573733a20696e73756666696369656e742062616c616e636520666f6044820152651c8818d85b1b60d21b60648201526084016103b6565b600080866001600160a01b03168587604051610a7d9190610d72565b60006040518083038185875af1925050503d8060008114610aba576040519150601f19603f3d011682016040523d82523d6000602084013e610abf565b606091505b5091509150610ad087838387610adb565b979650505050505050565b60608315610b47578251610b40576001600160a01b0385163b610b405760405162461bcd60e51b815260206004820152601d60248201527f416464726573733a2063616c6c20746f206e6f6e2d636f6e747261637400000060448201526064016103b6565b50816109f8565b6109f88383815115610b5c5781518083602001fd5b8060405162461bcd60e51b81526004016103b69190610c10565b803567ffffffffffffffff81168114610b8e57600080fd5b919050565b600060208284031215610ba557600080fd5b6105dc82610b76565b80356001600160a01b0381168114610b8e57600080fd5b600060208284031215610bd757600080fd5b6105dc82610bae565b60005b83811015610bfb578181015183820152602001610be3565b83811115610c0a576000848401525b50505050565b6020815260008251806020840152610c2f816040850160208701610be0565b601f01601f19169190910160400192915050565b60008060408385031215610c5657600080fd5b610c5f83610bae565b9150610c6d60208401610b76565b90509250929050565b634e487b7160e01b600052601160045260246000fd5b60008219821115610c9f57610c9f610c76565b500190565b600181811c90821680610cb857607f821691505b60208210811415610cd957634e487b7160e01b600052602260045260246000fd5b50919050565b600060208284031215610cf157600080fd5b5051919050565b600082821015610d0a57610d0a610c76565b500390565b6000816000190483118215151615610d2957610d29610c76565b500290565b600082610d4b57634e487b7160e01b600052601260045260246000fd5b500490565b600060208284031215610d6257600080fd5b815180151581146105dc57600080fd5b60008251610d84818460208701610be0565b919091019291505056fea2646970667358221220ade86ca14d1d5715dc9fb29bd5c6c39fa20340f886578df340b8e6f49162f4bd64736f6c63430008080033",
  "linkReferences": {},
  "deployedLinkReferences": {}
}