{
  "_format": "hh-sol-artifact-1",
  "contractName": "VestingWallet",
  "sourceName": "contracts/token-distribution/ExordeVestingWallet.sol",
  "abi": [
    {
      "inputs": [
        {
          "internalType": "address",
          "name": "beneficiaryAddress",
          "type": "address"
        },
        {
          "internalType": "uint64",
          "name": "startTimestamp",
          "type": "uint64"
        },
        {
          "internalType": "uint64",
          "name": "durationSeconds",
          "type": "uint64"
        }
      ],
      "stateMutability": "payable",
      "type": "constructor"
    },
    {
      "anonymous": false,
      "inputs": [
        {
          "indexed": true,
          "internalType": "address",
          "name": "previousBeneficiary",
          "type": "address"
        },
        {
          "indexed": false,
          "internalType": "address",
          "name": "newBeneficiary",
          "type": "address"
        }
      ],
      "name": "BeneficiaryUpdated",
      "type": "event"
    },
    {
      "anonymous": false,
      "inputs": [
        {
          "indexed": true,
          "internalType": "address",
          "name": "token",
          "type": "address"
        },
        {
          "indexed": false,
          "internalType": "uint256",
          "name": "amount",
          "type": "uint256"
        }
      ],
      "name": "ERC20Released",
      "type": "event"
    },
    {
      "anonymous": false,
      "inputs": [
        {
          "indexed": false,
          "internalType": "uint256",
          "name": "amount",
          "type": "uint256"
        }
      ],
      "name": "EtherReleased",
      "type": "event"
    },
    {
      "inputs": [],
      "name": "beneficiary",
      "outputs": [
        {
          "internalType": "address",
          "name": "",
          "type": "address"
        }
      ],
      "stateMutability": "view",
      "type": "function"
    },
    {
      "inputs": [],
      "name": "duration",
      "outputs": [
        {
          "internalType": "uint256",
          "name": "",
          "type": "uint256"
        }
      ],
      "stateMutability": "view",
      "type": "function"
    },
    {
      "inputs": [
        {
          "internalType": "address",
          "name": "token",
          "type": "address"
        }
      ],
      "name": "releasable",
      "outputs": [
        {
          "internalType": "uint256",
          "name": "",
          "type": "uint256"
        }
      ],
      "stateMutability": "view",
      "type": "function"
    },
    {
      "inputs": [],
      "name": "releasable",
      "outputs": [
        {
          "internalType": "uint256",
          "name": "",
          "type": "uint256"
        }
      ],
      "stateMutability": "view",
      "type": "function"
    },
    {
      "inputs": [
        {
          "internalType": "address",
          "name": "token",
          "type": "address"
        }
      ],
      "name": "release",
      "outputs": [],
      "stateMutability": "nonpayable",
      "type": "function"
    },
    {
      "inputs": [],
      "name": "release",
      "outputs": [],
      "stateMutability": "nonpayable",
      "type": "function"
    },
    {
      "inputs": [],
      "name": "released",
      "outputs": [
        {
          "internalType": "uint256",
          "name": "",
          "type": "uint256"
        }
      ],
      "stateMutability": "view",
      "type": "function"
    },
    {
      "inputs": [
        {
          "internalType": "address",
          "name": "token",
          "type": "address"
        }
      ],
      "name": "released",
      "outputs": [
        {
          "internalType": "uint256",
          "name": "",
          "type": "uint256"
        }
      ],
      "stateMutability": "view",
      "type": "function"
    },
    {
      "inputs": [],
      "name": "start",
      "outputs": [
        {
          "internalType": "uint256",
          "name": "",
          "type": "uint256"
        }
      ],
      "stateMutability": "view",
      "type": "function"
    },
    {
      "inputs": [
        {
          "internalType": "address",
          "name": "replacementBeneficiaryAddress_",
          "type": "address"
        }
      ],
      "name": "updateBeneficiary",
      "outputs": [],
      "stateMutability": "nonpayable",
      "type": "function"
    },
    {
      "inputs": [
        {
          "internalType": "uint64",
          "name": "timestamp",
          "type": "uint64"
        }
      ],
      "name": "vestedAmount",
      "outputs": [
        {
          "internalType": "uint256",
          "name": "",
          "type": "uint256"
        }
      ],
      "stateMutability": "view",
      "type": "function"
    },
    {
      "inputs": [
        {
          "internalType": "address",
          "name": "token",
          "type": "address"
        },
        {
          "internalType": "uint64",
          "name": "timestamp",
          "type": "uint64"
        }
      ],
      "name": "vestedAmount",
      "outputs": [
        {
          "internalType": "uint256",
          "name": "",
          "type": "uint256"
        }
      ],
      "stateMutability": "view",
      "type": "function"
    },
    {
      "stateMutability": "payable",
      "type": "receive"
    }
  ],
  "bytecode": "0x60c0604052604051610dac380380610dac833981016040819052610022916100ec565b6001600160a01b03831661008f5760405162461bcd60e51b815260206004820152602a60248201527f56657374696e6757616c6c65743a2062656e6566696369617279206973207a65604482015269726f206164647265737360b01b606482015260840160405180910390fd5b600280546001600160a01b039094166001600160a01b0319909416939093179092556001600160c01b031960c091821b811660805291901b1660a05261013d565b80516001600160401b03811681146100e757600080fd5b919050565b60008060006060848603121561010157600080fd5b83516001600160a01b038116811461011857600080fd5b9250610126602085016100d0565b9150610134604085016100d0565b90509250925092565b60805160c01c60a05160c01c610c366101766000396000818161011b0152818161059f01526105f40152600061053b0152610c366000f3fe6080604052600436106100ab5760003560e01c806386d1a69f1161006457806386d1a69f146101b157806396132521146101c65780639852595c146101db578063a3f8eace14610211578063be9a655514610231578063fbccedae1461024657600080fd5b80630a17b06b146100b75780630aaffd2a146100ea5780630fb5a6b41461010c578063191655871461014957806338af3eed14610169578063810ec23b1461019157600080fd5b366100b257005b600080fd5b3480156100c357600080fd5b506100d76100d2366004610a40565b61025b565b6040519081526020015b60405180910390f35b3480156100f657600080fd5b5061010a610105366004610a72565b61027f565b005b34801561011857600080fd5b507f000000000000000000000000000000000000000000000000000000000000000067ffffffffffffffff166100d7565b34801561015557600080fd5b5061010a610164366004610a72565b610350565b34801561017557600080fd5b506002546040516001600160a01b0390911681526020016100e1565b34801561019d57600080fd5b506100d76101ac366004610a8d565b6103eb565b3480156101bd57600080fd5b5061010a610490565b3480156101d257600080fd5b506000546100d7565b3480156101e757600080fd5b506100d76101f6366004610a72565b6001600160a01b031660009081526001602052604090205490565b34801561021d57600080fd5b506100d761022c366004610a72565b610503565b34801561023d57600080fd5b506100d7610530565b34801561025257600080fd5b506100d761055e565b600061027961026960005490565b6102739047610ad6565b8361057a565b92915050565b6002546001600160a01b031633146102fa5760405162461bcd60e51b815260206004820152603360248201527f4f6e6c79207468652063757272656e742062656e65666963696172792063616e6044820152722075706461746520746865206164647265737360681b60648201526084015b60405180910390fd5b600280546001600160a01b0319166001600160a01b03831690811790915560405190815233907fe72eaf6addaa195f3c83095031dd08f3a96808dcf047babed1fe4e4f69d6c6229060200160405180910390a250565b600061035b82610503565b6001600160a01b038316600090815260016020526040812080549293508392909190610388908490610ad6565b90915550506040518181526001600160a01b038316907fc0e523490dd523c33b1878c9eb14ff46991e3f5b2cd33710918618f2a39cba1b9060200160405180910390a26103e7826103e16002546001600160a01b031690565b83610654565b5050565b6001600160a01b038216600090815260016020526040812054610489906040516370a0823160e01b81523060048201526001600160a01b038616906370a082319060240160206040518083038186803b15801561044757600080fd5b505afa15801561045b573d6000803e3d6000fd5b505050506040513d601f19601f8201168201806040525081019061047f9190610aee565b6102739190610ad6565b9392505050565b600061049a61055e565b9050806000808282546104ad9190610ad6565b90915550506040518181527fda9d4e5f101b8b9b1c5b76d0c5a9f7923571acfc02376aa076b75a8c080c956b9060200160405180910390a16105006104fa6002546001600160a01b031690565b826106ab565b50565b6001600160a01b03811660009081526001602052604081205461052683426103eb565b6102799190610b07565b67ffffffffffffffff7f00000000000000000000000000000000000000000000000000000000000000001690565b6000805461056b4261025b565b6105759190610b07565b905090565b6000610584610530565b8267ffffffffffffffff16101561059d57506000610279565b7f000000000000000000000000000000000000000000000000000000000000000067ffffffffffffffff166105d0610530565b6105da9190610ad6565b8267ffffffffffffffff1611156105f2575081610279565b7f000000000000000000000000000000000000000000000000000000000000000067ffffffffffffffff16610625610530565b6106399067ffffffffffffffff8516610b07565b6106439085610b1e565b61064d9190610b3d565b9050610279565b604080516001600160a01b038416602482015260448082018490528251808303909101815260649091019091526020810180516001600160e01b031663a9059cbb60e01b1790526106a69084906107c4565b505050565b804710156106fb5760405162461bcd60e51b815260206004820152601d60248201527f416464726573733a20696e73756666696369656e742062616c616e636500000060448201526064016102f1565b6000826001600160a01b03168260405160006040518083038185875af1925050503d8060008114610748576040519150601f19603f3d011682016040523d82523d6000602084013e61074d565b606091505b50509050806106a65760405162461bcd60e51b815260206004820152603a60248201527f416464726573733a20756e61626c6520746f2073656e642076616c75652c207260448201527f6563697069656e74206d6179206861766520726576657274656400000000000060648201526084016102f1565b6000610819826040518060400160405280602081526020017f5361666545524332303a206c6f772d6c6576656c2063616c6c206661696c6564815250856001600160a01b03166108969092919063ffffffff16565b8051909150156106a657808060200190518101906108379190610b5f565b6106a65760405162461bcd60e51b815260206004820152602a60248201527f5361666545524332303a204552433230206f7065726174696f6e20646964206e6044820152691bdd081cdd58d8d9595960b21b60648201526084016102f1565b60606108a584846000856108ad565b949350505050565b60608247101561090e5760405162461bcd60e51b815260206004820152602660248201527f416464726573733a20696e73756666696369656e742062616c616e636520666f6044820152651c8818d85b1b60d21b60648201526084016102f1565b600080866001600160a01b0316858760405161092a9190610bb1565b60006040518083038185875af1925050503d8060008114610967576040519150601f19603f3d011682016040523d82523d6000602084013e61096c565b606091505b509150915061097d87838387610988565b979650505050505050565b606083156109f45782516109ed576001600160a01b0385163b6109ed5760405162461bcd60e51b815260206004820152601d60248201527f416464726573733a2063616c6c20746f206e6f6e2d636f6e747261637400000060448201526064016102f1565b50816108a5565b6108a58383815115610a095781518083602001fd5b8060405162461bcd60e51b81526004016102f19190610bcd565b803567ffffffffffffffff81168114610a3b57600080fd5b919050565b600060208284031215610a5257600080fd5b61048982610a23565b80356001600160a01b0381168114610a3b57600080fd5b600060208284031215610a8457600080fd5b61048982610a5b565b60008060408385031215610aa057600080fd5b610aa983610a5b565b9150610ab760208401610a23565b90509250929050565b634e487b7160e01b600052601160045260246000fd5b60008219821115610ae957610ae9610ac0565b500190565b600060208284031215610b0057600080fd5b5051919050565b600082821015610b1957610b19610ac0565b500390565b6000816000190483118215151615610b3857610b38610ac0565b500290565b600082610b5a57634e487b7160e01b600052601260045260246000fd5b500490565b600060208284031215610b7157600080fd5b8151801515811461048957600080fd5b60005b83811015610b9c578181015183820152602001610b84565b83811115610bab576000848401525b50505050565b60008251610bc3818460208701610b81565b9190910192915050565b6020815260008251806020840152610bec816040850160208701610b81565b601f01601f1916919091016040019291505056fea264697066735822122047e40cc051f015159eb9f9104508f409f6913fd730803b51c266b77ad03e3c1264736f6c63430008080033",
  "linkReferences": {},
  "deployedLinkReferences": {}
}