{
  "_format": "hh-sol-artifact-1",
  "contractName": "LangManager",
  "sourceName": "contracts/worksystems/LangManager.sol",
  "abi": [
    {
      "anonymous": false,
      "inputs": [
        {
          "indexed": true,
          "internalType": "uint256",
          "name": "langId",
          "type": "uint256"
        },
        {
          "indexed": false,
          "internalType": "string",
          "name": "langName",
          "type": "string"
        }
      ],
      "name": "LanguageAdded",
      "type": "event"
    },
    {
      "anonymous": false,
      "inputs": [
        {
          "indexed": true,
          "internalType": "uint256",
          "name": "langId",
          "type": "uint256"
        },
        {
          "indexed": false,
          "internalType": "string",
          "name": "langName",
          "type": "string"
        }
      ],
      "name": "LanguageRemoved",
      "type": "event"
    },
    {
      "anonymous": false,
      "inputs": [
        {
          "indexed": false,
          "internalType": "uint256",
          "name": "parameters",
          "type": "uint256"
        }
      ],
      "name": "LanguageUpdated",
      "type": "event"
    },
    {
      "anonymous": false,
      "inputs": [
        {
          "indexed": true,
          "internalType": "address",
          "name": "previousOwner",
          "type": "address"
        },
        {
          "indexed": true,
          "internalType": "address",
          "name": "newOwner",
          "type": "address"
        }
      ],
      "name": "OwnershipTransferred",
      "type": "event"
    },
    {
      "inputs": [
        {
          "internalType": "uint256",
          "name": "",
          "type": "uint256"
        }
      ],
      "name": "langMap",
      "outputs": [
        {
          "internalType": "string",
          "name": "",
          "type": "string"
        }
      ],
      "stateMutability": "view",
      "type": "function"
    },
    {
      "inputs": [],
      "name": "owner",
      "outputs": [
        {
          "internalType": "address",
          "name": "",
          "type": "address"
        }
      ],
      "stateMutability": "view",
      "type": "function"
    },
    {
      "inputs": [],
      "name": "renounceOwnership",
      "outputs": [],
      "stateMutability": "nonpayable",
      "type": "function"
    },
    {
      "inputs": [
        {
          "internalType": "address",
          "name": "newOwner",
          "type": "address"
        }
      ],
      "name": "transferOwnership",
      "outputs": [],
      "stateMutability": "nonpayable",
      "type": "function"
    }
  ],
  "bytecode": "0x608060405234801561001057600080fd5b5061001a3361001f565b61006f565b600080546001600160a01b038381166001600160a01b0319831681178455604051919092169283917f8be0079c531659141344cd1fd0a4f28419497f9722a3daafe3b4186f6b6457e09190a35050565b6103978061007e6000396000f3fe608060405234801561001057600080fd5b506004361061004c5760003560e01c8063715018a614610051578063765e1fc51461005b5780638da5cb5b14610084578063f2fde38b1461009f575b600080fd5b6100596100b2565b005b61006e610069366004610288565b6100c6565b60405161007b91906102a1565b60405180910390f35b6000546040516001600160a01b03909116815260200161007b565b6100596100ad3660046102f6565b610160565b6100ba6101de565b6100c46000610238565b565b600160205260009081526040902080546100df90610326565b80601f016020809104026020016040519081016040528092919081815260200182805461010b90610326565b80156101585780601f1061012d57610100808354040283529160200191610158565b820191906000526020600020905b81548152906001019060200180831161013b57829003601f168201915b505050505081565b6101686101de565b6001600160a01b0381166101d25760405162461bcd60e51b815260206004820152602660248201527f4f776e61626c653a206e6577206f776e657220697320746865207a65726f206160448201526564647265737360d01b60648201526084015b60405180910390fd5b6101db81610238565b50565b6000546001600160a01b031633146100c45760405162461bcd60e51b815260206004820181905260248201527f4f776e61626c653a2063616c6c6572206973206e6f7420746865206f776e657260448201526064016101c9565b600080546001600160a01b038381166001600160a01b0319831681178455604051919092169283917f8be0079c531659141344cd1fd0a4f28419497f9722a3daafe3b4186f6b6457e09190a35050565b60006020828403121561029a57600080fd5b5035919050565b600060208083528351808285015260005b818110156102ce578581018301518582016040015282016102b2565b818111156102e0576000604083870101525b50601f01601f1916929092016040019392505050565b60006020828403121561030857600080fd5b81356001600160a01b038116811461031f57600080fd5b9392505050565b600181811c9082168061033a57607f821691505b6020821081141561035b57634e487b7160e01b600052602260045260246000fd5b5091905056fea26469706673582212200a750631c434088caa0fa04a75951953be5382266a48a3a1f7821d8b6b2e0dde64736f6c63430008080033",
  "linkReferences": {},
  "deployedLinkReferences": {}
}