{
  "_format": "hh-sol-artifact-1",
  "contractName": "AddressManager",
  "sourceName": "contracts/worksystems/AddressManager.sol",
  "abi": [
    {
      "anonymous": false,
      "inputs": [
        {
          "indexed": true,
          "internalType": "address",
          "name": "account",
          "type": "address"
        },
        {
          "indexed": false,
          "internalType": "address",
          "name": "account2",
          "type": "address"
        }
      ],
      "name": "AddressAddedByMaster",
      "type": "event"
    },
    {
      "anonymous": false,
      "inputs": [
        {
          "indexed": true,
          "internalType": "address",
          "name": "account",
          "type": "address"
        },
        {
          "indexed": false,
          "internalType": "address",
          "name": "account2",
          "type": "address"
        }
      ],
      "name": "AddressAddedByWorker",
      "type": "event"
    },
    {
      "anonymous": false,
      "inputs": [
        {
          "indexed": true,
          "internalType": "address",
          "name": "account",
          "type": "address"
        },
        {
          "indexed": false,
          "internalType": "address",
          "name": "account2",
          "type": "address"
        }
      ],
      "name": "AddressRemovedByMaster",
      "type": "event"
    },
    {
      "anonymous": false,
      "inputs": [
        {
          "indexed": true,
          "internalType": "address",
          "name": "account",
          "type": "address"
        },
        {
          "indexed": false,
          "internalType": "address",
          "name": "account2",
          "type": "address"
        }
      ],
      "name": "AddressRemovedByWorker",
      "type": "event"
    },
    {
      "anonymous": false,
      "inputs": [
        {
          "indexed": true,
          "internalType": "address",
          "name": "previousOwner",
          "type": "address"
        },
        {
          "indexed": true,
          "internalType": "address",
          "name": "newOwner",
          "type": "address"
        }
      ],
      "name": "OwnershipTransferred",
      "type": "event"
    },
    {
      "anonymous": false,
      "inputs": [
        {
          "indexed": false,
          "internalType": "address",
          "name": "parameters",
          "type": "address"
        }
      ],
      "name": "ParametersUpdated",
      "type": "event"
    },
    {
      "anonymous": false,
      "inputs": [
        {
          "indexed": true,
          "internalType": "address",
          "name": "account",
          "type": "address"
        },
        {
          "indexed": false,
          "internalType": "address",
          "name": "account2",
          "type": "address"
        }
      ],
      "name": "ReputationTransfered",
      "type": "event"
    },
    {
      "anonymous": false,
      "inputs": [
        {
          "indexed": true,
          "internalType": "address",
          "name": "account",
          "type": "address"
        },
        {
          "indexed": false,
          "internalType": "address",
          "name": "account2",
          "type": "address"
        }
      ],
      "name": "RewardsTransfered",
      "type": "event"
    },
    {
      "inputs": [
        {
          "internalType": "address",
          "name": "_master",
          "type": "address"
        },
        {
          "internalType": "address",
          "name": "_address",
          "type": "address"
        }
      ],
      "name": "AreMasterWorkerLinked",
      "outputs": [
        {
          "internalType": "bool",
          "name": "",
          "type": "bool"
        }
      ],
      "stateMutability": "view",
      "type": "function"
    },
    {
      "inputs": [
        {
          "internalType": "address",
          "name": "_master",
          "type": "address"
        }
      ],
      "name": "ClaimMaster",
      "outputs": [],
      "stateMutability": "nonpayable",
      "type": "function"
    },
    {
      "inputs": [
        {
          "internalType": "address",
          "name": "_worker",
          "type": "address"
        }
      ],
      "name": "FetchHighestMaster",
      "outputs": [
        {
          "internalType": "address",
          "name": "",
          "type": "address"
        }
      ],
      "stateMutability": "view",
      "type": "function"
    },
    {
      "inputs": [
        {
          "internalType": "address[]",
          "name": "_addresses",
          "type": "address[]"
        },
        {
          "internalType": "uint256",
          "name": "iterations_max",
          "type": "uint256"
        },
        {
          "internalType": "uint256",
          "name": "starting_index",
          "type": "uint256"
        }
      ],
      "name": "MasterClaimManySubs",
      "outputs": [],
      "stateMutability": "nonpayable",
      "type": "function"
    },
    {
      "inputs": [
        {
          "internalType": "address",
          "name": "_address",
          "type": "address"
        }
      ],
      "name": "MasterClaimSub",
      "outputs": [],
      "stateMutability": "nonpayable",
      "type": "function"
    },
    {
      "inputs": [
        {
          "internalType": "address",
          "name": "",
          "type": "address"
        },
        {
          "internalType": "address",
          "name": "",
          "type": "address"
        }
      ],
      "name": "MasterClaimingWorker",
      "outputs": [
        {
          "internalType": "bool",
          "name": "",
          "type": "bool"
        }
      ],
      "stateMutability": "view",
      "type": "function"
    },
    {
      "inputs": [
        {
          "internalType": "address[]",
          "name": "_addresses",
          "type": "address[]"
        },
        {
          "internalType": "uint256",
          "name": "iterations_max",
          "type": "uint256"
        },
        {
          "internalType": "uint256",
          "name": "start_index",
          "type": "uint256"
        }
      ],
      "name": "MasterRemoveManySubs",
      "outputs": [],
      "stateMutability": "nonpayable",
      "type": "function"
    },
    {
      "inputs": [
        {
          "internalType": "address",
          "name": "_address",
          "type": "address"
        },
        {
          "internalType": "uint256",
          "name": "start_index",
          "type": "uint256"
        }
      ],
      "name": "MasterRemoveSub",
      "outputs": [],
      "stateMutability": "nonpayable",
      "type": "function"
    },
    {
      "inputs": [
        {
          "internalType": "address",
          "name": "",
          "type": "address"
        },
        {
          "internalType": "uint256",
          "name": "",
          "type": "uint256"
        }
      ],
      "name": "MasterToSubsMap",
      "outputs": [
        {
          "internalType": "address",
          "name": "",
          "type": "address"
        }
      ],
      "stateMutability": "view",
      "type": "function"
    },
    {
      "inputs": [],
      "name": "Parameters",
      "outputs": [
        {
          "internalType": "contract IParametersManager",
          "name": "",
          "type": "address"
        }
      ],
      "stateMutability": "view",
      "type": "function"
    },
    {
      "inputs": [
        {
          "internalType": "address",
          "name": "_master",
          "type": "address"
        }
      ],
      "name": "RemoveMaster",
      "outputs": [],
      "stateMutability": "nonpayable",
      "type": "function"
    },
    {
      "inputs": [
        {
          "internalType": "address",
          "name": "",
          "type": "address"
        }
      ],
      "name": "SubToMasterMap",
      "outputs": [
        {
          "internalType": "address",
          "name": "",
          "type": "address"
        }
      ],
      "stateMutability": "view",
      "type": "function"
    },
    {
      "inputs": [],
      "name": "destroyContract",
      "outputs": [],
      "stateMutability": "nonpayable",
      "type": "function"
    },
    {
      "inputs": [
        {
          "internalType": "address",
          "name": "_worker",
          "type": "address"
        }
      ],
      "name": "getMaster",
      "outputs": [
        {
          "internalType": "address",
          "name": "",
          "type": "address"
        }
      ],
      "stateMutability": "view",
      "type": "function"
    },
    {
      "inputs": [
        {
          "internalType": "address",
          "name": "_master",
          "type": "address"
        }
      ],
      "name": "getMasterSubs",
      "outputs": [
        {
          "internalType": "address[]",
          "name": "",
          "type": "address[]"
        }
      ],
      "stateMutability": "view",
      "type": "function"
    },
    {
      "inputs": [
        {
          "internalType": "address",
          "name": "_master",
          "type": "address"
        },
        {
          "internalType": "address",
          "name": "_address",
          "type": "address"
        }
      ],
      "name": "isMasterOf",
      "outputs": [
        {
          "internalType": "bool",
          "name": "",
          "type": "bool"
        }
      ],
      "stateMutability": "view",
      "type": "function"
    },
    {
      "inputs": [
        {
          "internalType": "address",
          "name": "_master",
          "type": "address"
        }
      ],
      "name": "isMasterOfMe",
      "outputs": [
        {
          "internalType": "bool",
          "name": "",
          "type": "bool"
        }
      ],
      "stateMutability": "view",
      "type": "function"
    },
    {
      "inputs": [
        {
          "internalType": "address",
          "name": "_worker",
          "type": "address"
        },
        {
          "internalType": "address",
          "name": "_master",
          "type": "address"
        },
        {
          "internalType": "uint256",
          "name": "iterations_max",
          "type": "uint256"
        },
        {
          "internalType": "uint256",
          "name": "starting_index",
          "type": "uint256"
        }
      ],
      "name": "isSubInMasterArray",
      "outputs": [
        {
          "internalType": "bool",
          "name": "",
          "type": "bool"
        }
      ],
      "stateMutability": "view",
      "type": "function"
    },
    {
      "inputs": [],
      "name": "owner",
      "outputs": [
        {
          "internalType": "address",
          "name": "",
          "type": "address"
        }
      ],
      "stateMutability": "view",
      "type": "function"
    },
    {
      "inputs": [],
      "name": "renounceOwnership",
      "outputs": [],
      "stateMutability": "nonpayable",
      "type": "function"
    },
    {
      "inputs": [
        {
          "internalType": "address",
          "name": "newOwner",
          "type": "address"
        }
      ],
      "name": "transferOwnership",
      "outputs": [],
      "stateMutability": "nonpayable",
      "type": "function"
    },
    {
      "inputs": [
        {
          "internalType": "address",
          "name": "addr",
          "type": "address"
        }
      ],
      "name": "updateParametersManager",
      "outputs": [],
      "stateMutability": "nonpayable",
      "type": "function"
    }
  ],
  "bytecode": "0x6080604052600560045534801561001557600080fd5b5061001f33610024565b610074565b600080546001600160a01b038381166001600160a01b0319831681178455604051919092169283917f8be0079c531659141344cd1fd0a4f28419497f9722a3daafe3b4186f6b6457e09190a35050565b611ede806100836000396000f3fe608060405234801561001057600080fd5b50600436106101425760003560e01c8063715018a6116100b8578063df77a0f61161007c578063df77a0f614610303578063e370fa3d14610316578063e4f1d0fd14610329578063f25e9ed214610352578063f2fde38b1461037e578063ff43de9d1461039157600080fd5b8063715018a6146102645780638da5cb5b1461026c578063921e1ba71461027d57806396daff5614610290578063db519824146102cc57600080fd5b80632e3ce4571161010a5780632e3ce457146101c7578063342bffbf146101da5780634fbb5fd814610218578063584720f51461022b5780636e1a564e1461023e57806371024cf61461025157600080fd5b80630595762314610147578063092a5cce1461015c578063118150861461016457806312ccb14714610194578063198ff3dc146101a7575b600080fd5b61015a610155366004611b14565b6103a4565b005b61015a610413565b610177610172366004611b14565b610429565b6040516001600160a01b0390911681526020015b60405180910390f35b61015a6101a2366004611b14565b610524565b6101ba6101b5366004611b14565b610607565b60405161018b9190611b31565b6101776101d5366004611b7e565b61067d565b6102086101e8366004611baa565b600160209081526000928352604080842090915290825290205460ff1681565b604051901515815260200161018b565b61015a610226366004611b7e565b6106b5565b61015a610239366004611b14565b61082e565b61015a61024c366004611bf9565b610885565b61020861025f366004611baa565b610a09565b61015a610a63565b6000546001600160a01b0316610177565b61020861028b366004611cce565b610a77565b61020861029e366004611baa565b6001600160a01b03918216600090815260016020908152604080832093909416825291909152205460ff1690565b6102086102da366004611b14565b6001600160a01b0316600090815260016020908152604080832033845290915290205460ff1690565b61015a610311366004611b14565b610b8d565b61015a610324366004611bf9565b610c58565b610177610337366004611b14565b6003602052600090815260409020546001600160a01b031681565b610177610360366004611b14565b6001600160a01b039081166000908152600360205260409020541690565b61015a61038c366004611b14565b610eae565b600554610177906001600160a01b031681565b6103ac610f27565b6001600160a01b0381166103bf57600080fd5b600580546001600160a01b0319166001600160a01b0383169081179091556040519081527f1c57c3710c0570883580d2f83ee6a873d61b5af334741eea1c0cc397899e1d029060200160405180910390a150565b61041b610f27565b6000546001600160a01b0316ff5b60006001600160a01b0382166104ac5760405162461bcd60e51b815260206004820152603e60248201527f4665746368486967686573744d61737465723a20696e707574205f776f726b6560448201527f72206e6565647320746f206265206e6f6e206e756c6c2061646472657373000060648201526084015b60405180910390fd5b6001600160a01b0380831660009081526003602052604090205460045491169083905b6001600160a01b038316158015906104e75750600081115b1561051c576001600160a01b0380841660009081526003602052604090205416929150610515600182611d2a565b90506104cf565b509392505050565b6001600160a01b03811661057a5760405162461bcd60e51b815260206004820152601960248201527f5f61646472657373206d757374206265206e6f6e207a65726f0000000000000060448201526064016104a3565b3360008181526001602081815260408084206001600160a01b038716808652908352818520805460ff191685179055858552600283528185208054948501815585529382902090920180546001600160a01b0319168417905590519182527f8902b85532bfc55a9f5b6e6a9576366640928b3be984b3a61167a210ca2bbc5791015b60405180910390a250565b6001600160a01b03811660009081526002602090815260409182902080548351818402810184019094528084526060939283018282801561067157602002820191906000526020600020905b81546001600160a01b03168152600190910190602001808311610653575b50505050509050919050565b6002602052816000526040600020818154811061069957600080fd5b6000918252602090912001546001600160a01b03169150829050565b3360009081526001602090815260408083206001600160a01b038616845290915290205460ff166107435760405162461bcd60e51b815260206004820152603260248201527f43616e27742072656d6f76653a204d6173746572206e6f7420636c61696d696e60448201527167207468697320537562204164647265737360701b60648201526084016104a3565b3360008181526001602090815260408083206001600160a01b03878116855290835292819020805460ff1916905560055481516307d630cb60e41b815291516107ec95948894921692637d630cb0926004808301939192829003018186803b1580156107ae57600080fd5b505afa1580156107c2573d6000803e3d6000fd5b505050506040513d601f19601f820116820180604052508101906107e69190611d41565b84610f81565b6040516001600160a01b038316815233907f7a24ac72e272dd8c83b793ae84448c72032b95723856486219c79dd722fe42929060200160405180910390a25050565b3360008181526003602090815260409182902080546001600160a01b031916905590516001600160a01b03841681527f0d7169440daf0897d7f4486a35eef15a070460981ff18ab846aa2199f171118e91016105fc565b6000805b8451811015610a025733600090815260016020526040812086519091908790849081106108b8576108b8611d5a565b6020908102919091018101516001600160a01b031682528101919091526040016000205460ff16156109d7573360009081526001602052604081208651829088908590811061090957610909611d5a565b60200260200101516001600160a01b03166001600160a01b0316815260200190815260200160002060006101000a81548160ff02191690831515021790555061096d3386838151811061095e5761095e611d5a565b60200260200101518686610f81565b336001600160a01b03167f7a24ac72e272dd8c83b793ae84448c72032b95723856486219c79dd722fe42928683815181106109aa576109aa611d5a565b60200260200101516040516109ce91906001600160a01b0391909116815260200190565b60405180910390a25b6109e2600183611d70565b91508382106109f057610a02565b806109fa81611d88565b915050610889565b5050505050565b6001600160a01b03808316600090815260016020908152604080832093851683529290529081205460ff168015610a5c57506001600160a01b038281166000908152600360205260409020548116908416145b9392505050565b610a6b610f27565b610a75600061114b565b565b6001600160a01b0383166000908152600260209081526040808320805482518185028101850190935280835284938493849390929091830182828015610ae657602002820191906000526020600020905b81546001600160a01b03168152600190910190602001808311610ac8575b505050505090508051851115610b0e5760405162461bcd60e51b81526004016104a390611da3565b845b8151811015610b8057886001600160a01b0316828281518110610b3557610b35611d5a565b60200260200101516001600160a01b03161415610b555760019350610b80565b610b60600184611d70565b9250868310610b6e57610b80565b80610b7881611d88565b915050610b10565b5091979650505050505050565b6001600160a01b038116610be35760405162461bcd60e51b815260206004820152601960248201527f205f6d6173746572206d757374206265206e6f6e206e756c6c0000000000000060448201526064016104a3565b33600081815260036020526040902080546001600160a01b0319166001600160a01b038416179055610c149061119b565b610c1d3361173d565b6040516001600160a01b038216815233907f85851bdf5239daecee00c49afa200b87f208a1cc246f3c3da177796c9f605d73906020016105fc565b8251811115610c795760405162461bcd60e51b81526004016104a390611da3565b6000815b8451811015610a025760006001600160a01b0316858281518110610ca357610ca3611d5a565b60200260200101516001600160a01b03161415610d0e5760405162461bcd60e51b815260206004820152602360248201527f61646472657373657320696e206172726179206d757374206265206e6f6e207a60448201526265726f60e81b60648201526084016104a3565b3360009081526001602052604081208651909190879084908110610d3457610d34611d5a565b6020908102919091018101516001600160a01b031682528101919091526040016000205460ff161515600114610e83573360009081526001602081905260408220875191929091889085908110610d8d57610d8d611d5a565b6020908102919091018101516001600160a01b031682528181019290925260409081016000908120805460ff191694151594909417909355338352600290915290208551869083908110610de357610de3611d5a565b60209081029190910181015182546001810184556000938452919092200180546001600160a01b0319166001600160a01b03909216919091179055845133907f8902b85532bfc55a9f5b6e6a9576366640928b3be984b3a61167a210ca2bbc5790879084908110610e5657610e56611d5a565b6020026020010151604051610e7a91906001600160a01b0391909116815260200190565b60405180910390a25b610e8e600183611d70565b9150838210610e9c57610a02565b80610ea681611d88565b915050610c7d565b610eb6610f27565b6001600160a01b038116610f1b5760405162461bcd60e51b815260206004820152602660248201527f4f776e61626c653a206e6577206f776e657220697320746865207a65726f206160448201526564647265737360d01b60648201526084016104a3565b610f248161114b565b50565b6000546001600160a01b03163314610a755760405162461bcd60e51b815260206004820181905260248201527f4f776e61626c653a2063616c6c6572206973206e6f7420746865206f776e657260448201526064016104a3565b6001600160a01b038416600090815260026020526040902054811115610fb95760405162461bcd60e51b81526004016104a390611da3565b60008080835b6001600160a01b038816600090815260026020526040902054811015611060576001600160a01b0388811660009081526002602052604090208054918916918390811061100e5761100e611d5a565b6000918252602090912001546001600160a01b031614156110355760019250809350611060565b611040600183611d70565b915085821061104e57611060565b8061105881611d88565b915050610fbf565b508115611142576001600160a01b0387166000908152600260205260409020805461108d90600190611d2a565b8154811061109d5761109d611d5a565b60009182526020808320909101546001600160a01b038a81168452600290925260409092208054919092169190859081106110da576110da611d5a565b600091825260208083209190910180546001600160a01b0319166001600160a01b03948516179055918916815260029091526040902080548061111f5761111f611deb565b600082815260209020810160001990810180546001600160a01b03191690550190555b50505050505050565b600080546001600160a01b038381166001600160a01b0319831681178455604051919092169283917f8be0079c531659141344cd1fd0a4f28419497f9722a3daafe3b4186f6b6457e09190a35050565b60055460408051630855d15160e01b815290516000926001600160a01b031691630855d151916004808301926020929190829003018186803b1580156111e057600080fd5b505afa1580156111f4573d6000803e3d6000fd5b505050506040513d601f19601f820116820180604052508101906112189190611e01565b6001600160a01b0316141561126f5760405162461bcd60e51b815260206004820181905260248201527f5265704d616e61676572206973206e756c6c20696e20506172616d657465727360448201526064016104a3565b6005546040805163e992dca760e01b815290516000926001600160a01b03169163e992dca7916004808301926020929190829003018186803b1580156112b457600080fd5b505afa1580156112c8573d6000803e3d6000fd5b505050506040513d601f19601f820116820180604052508101906112ec9190611e01565b6001600160a01b031614156113435760405162461bcd60e51b815260206004820181905260248201527f5265704d616e61676572206973206e756c6c20696e20506172616d657465727360448201526064016104a3565b60055460408051630855d15160e01b815290516000926001600160a01b031691630855d151916004808301926020929190829003018186803b15801561138857600080fd5b505afa15801561139c573d6000803e3d6000fd5b505050506040513d601f19601f820116820180604052508101906113c09190611e01565b90506000600560009054906101000a90046001600160a01b03166001600160a01b031663e992dca76040518163ffffffff1660e01b815260040160206040518083038186803b15801561141257600080fd5b505afa158015611426573d6000803e3d6000fd5b505050506040513d601f19601f8201168201806040525081019061144a9190611e01565b6001600160a01b03848116600090815260036020526040902054919250166114845760405162461bcd60e51b81526004016104a390611e1e565b6040516370a0823160e01b81526001600160a01b038481166004830152600091908316906370a082319060240160206040518083038186803b1580156114c957600080fd5b505afa1580156114dd573d6000803e3d6000fd5b505050506040513d601f19601f820116820180604052508101906115019190611d41565b9050600061150e85610429565b90508115610a0257604051630db6cc8560e11b8152600481018390526001600160a01b03828116602483015260006044830152851690631b6d990a90606401602060405180830381600087803b15801561156757600080fd5b505af115801561157b573d6000803e3d6000fd5b505050506040513d601f19601f8201168201806040525081019061159f9190611e86565b6116055760405162461bcd60e51b815260206004820152603160248201527f5472616e73666572526570546f4d61737465723a20636f756c64206e6f74206d60448201527034b73a102932b8103a379036b0b9ba32b960791b60648201526084016104a3565b60405163171bcfc360e21b8152600481018390526001600160a01b03868116602483015260006044830152851690635c6f3f0c90606401602060405180830381600087803b15801561165657600080fd5b505af115801561166a573d6000803e3d6000fd5b505050506040513d601f19601f8201168201806040525081019061168e9190611e86565b6116f65760405162461bcd60e51b815260206004820152603360248201527f5472616e73666572526570546f4d61737465723a20636f756c64206e6f7420626044820152723ab937102932b810333937b6903bb7b935b2b960691b60648201526084016104a3565b6040516001600160a01b0382811682528616907fc587680578b3acb8eeb1ab421a6921efe2a32b10903016ebd6c3f39e51cd1d969060200160405180910390a25050505050565b600554604080516304e76c8f60e01b815290516000926001600160a01b0316916304e76c8f916004808301926020929190829003018186803b15801561178257600080fd5b505afa158015611796573d6000803e3d6000fd5b505050506040513d601f19601f820116820180604052508101906117ba9190611e01565b6001600160a01b0316141561181d5760405162461bcd60e51b815260206004820152602360248201527f5265776172644d616e61676572206973206e756c6c20696e20506172616d657460448201526265727360e81b60648201526084016104a3565b600554604080516304e76c8f60e01b815290516000926001600160a01b0316916304e76c8f916004808301926020929190829003018186803b15801561186257600080fd5b505afa158015611876573d6000803e3d6000fd5b505050506040513d601f19601f8201168201806040525081019061189a9190611e01565b90506001600160a01b0381166118f25760405162461bcd60e51b815260206004820152601f60248201527f5265776172644d616e61676572206e6565647320746f2062652073657475700060448201526064016104a3565b6001600160a01b03828116600090815260036020526040902054166119295760405162461bcd60e51b81526004016104a390611e1e565b604051633b4febfb60e21b81526001600160a01b0383811660048301526000919083169063ed3fafec90602401602060405180830381600087803b15801561197057600080fd5b505af1158015611984573d6000803e3d6000fd5b505050506040513d601f19601f820116820180604052508101906119a89190611d41565b905060006119b584610429565b90508115611ae957604051635f28bad560e01b81526001600160a01b0385811660048301528281166024830152841690635f28bad590604401602060405180830381600087803b158015611a0857600080fd5b505af1158015611a1c573d6000803e3d6000fd5b505050506040513d601f19601f82011682018060405250810190611a409190611e86565b611aa85760405162461bcd60e51b815260206004820152603360248201527f5472616e7366657252657761726473546f4d61737465723a20636f756c64206e6044820152726f74207472616e73666572207265776172647360681b60648201526084016104a3565b6040516001600160a01b0382811682528516907f04b22084ec80e4b31b47cb8c65cd44c4e4e2840e20dffcbd81bd7d048b74fb4e9060200160405180910390a25b50505050565b6001600160a01b0381168114610f2457600080fd5b8035611b0f81611aef565b919050565b600060208284031215611b2657600080fd5b8135610a5c81611aef565b6020808252825182820181905260009190848201906040850190845b81811015611b725783516001600160a01b031683529284019291840191600101611b4d565b50909695505050505050565b60008060408385031215611b9157600080fd5b8235611b9c81611aef565b946020939093013593505050565b60008060408385031215611bbd57600080fd5b8235611bc881611aef565b91506020830135611bd881611aef565b809150509250929050565b634e487b7160e01b600052604160045260246000fd5b600080600060608486031215611c0e57600080fd5b833567ffffffffffffffff80821115611c2657600080fd5b818601915086601f830112611c3a57600080fd5b8135602082821115611c4e57611c4e611be3565b8160051b604051601f19603f83011681018181108682111715611c7357611c73611be3565b60405292835281830193508481018201928a841115611c9157600080fd5b948201945b83861015611cb657611ca786611b04565b85529482019493820193611c96565b9a918901359950506040909701359695505050505050565b60008060008060808587031215611ce457600080fd5b8435611cef81611aef565b93506020850135611cff81611aef565b93969395505050506040820135916060013590565b634e487b7160e01b600052601160045260246000fd5b600082821015611d3c57611d3c611d14565b500390565b600060208284031215611d5357600080fd5b5051919050565b634e487b7160e01b600052603260045260246000fd5b60008219821115611d8357611d83611d14565b500190565b6000600019821415611d9c57611d9c611d14565b5060010190565b60208082526028908201527f7374617274696e675f696e646578206d757374206e6f74206265206f7574206f6040820152676620626f756e647360c01b606082015260800190565b634e487b7160e01b600052603160045260246000fd5b600060208284031215611e1357600080fd5b8151610a5c81611aef565b60208082526042908201527f5472616e73666572526570546f4d61737465723a20696e707574205f776f726b60408201527f6572206e6565647320746f20686176652061206e6f6e2d6e756c6c206d61737460608201526132b960f11b608082015260a00190565b600060208284031215611e9857600080fd5b81518015158114610a5c57600080fdfea26469706673582212209cc71eaafef22daecdcad4cc99f37028d973a0e55e4844ca3fd202cc580db74f64736f6c63430008080033",
  "linkReferences": {},
  "deployedLinkReferences": {}
}