{
  "_format": "hh-sol-artifact-1",
  "contractName": "AddressManager",
  "sourceName": "contracts/worksystems/AddressManager.sol",
  "abi": [
    {
      "anonymous": false,
      "inputs": [
        {
          "indexed": true,
          "internalType": "address",
          "name": "account",
          "type": "address"
        },
        {
          "indexed": false,
          "internalType": "bool",
          "name": "isWhitelisted",
          "type": "bool"
        }
      ],
      "name": "AddressAddedByMaster",
      "type": "event"
    },
    {
      "anonymous": false,
      "inputs": [
        {
          "indexed": true,
          "internalType": "address",
          "name": "account",
          "type": "address"
        },
        {
          "indexed": false,
          "internalType": "bool",
          "name": "isWhitelisted",
          "type": "bool"
        }
      ],
      "name": "AddressAddedByWorker",
      "type": "event"
    },
    {
      "anonymous": false,
      "inputs": [
        {
          "indexed": true,
          "internalType": "address",
          "name": "account",
          "type": "address"
        },
        {
          "indexed": false,
          "internalType": "bool",
          "name": "isWhitelisted",
          "type": "bool"
        }
      ],
      "name": "AddressRemovedByMaster",
      "type": "event"
    },
    {
      "anonymous": false,
      "inputs": [
        {
          "indexed": true,
          "internalType": "address",
          "name": "account",
          "type": "address"
        },
        {
          "indexed": false,
          "internalType": "bool",
          "name": "isWhitelisted",
          "type": "bool"
        }
      ],
      "name": "AddressRemovedByWorker",
      "type": "event"
    },
    {
      "inputs": [
        {
          "internalType": "address",
          "name": "_master",
          "type": "address"
        },
        {
          "internalType": "address",
          "name": "_worker",
          "type": "address"
        }
      ],
      "name": "AreMasterWorkerLinked",
      "outputs": [
        {
          "internalType": "bool",
          "name": "",
          "type": "bool"
        }
      ],
      "stateMutability": "view",
      "type": "function"
    },
    {
      "inputs": [
        {
          "internalType": "address",
          "name": "_address",
          "type": "address"
        }
      ],
      "name": "MasterClaimWorkerAddress",
      "outputs": [],
      "stateMutability": "nonpayable",
      "type": "function"
    },
    {
      "inputs": [
        {
          "internalType": "address",
          "name": "_address",
          "type": "address"
        }
      ],
      "name": "MasterRemoveAddress",
      "outputs": [],
      "stateMutability": "nonpayable",
      "type": "function"
    },
    {
      "inputs": [
        {
          "internalType": "address",
          "name": "_address",
          "type": "address"
        }
      ],
      "name": "WorkerAddMasterAddress",
      "outputs": [],
      "stateMutability": "nonpayable",
      "type": "function"
    },
    {
      "inputs": [
        {
          "internalType": "address",
          "name": "_address",
          "type": "address"
        }
      ],
      "name": "WorkerRemoveMasterAddress",
      "outputs": [],
      "stateMutability": "nonpayable",
      "type": "function"
    },
    {
      "inputs": [
        {
          "internalType": "address",
          "name": "_master",
          "type": "address"
        },
        {
          "internalType": "address",
          "name": "_address",
          "type": "address"
        }
      ],
      "name": "isMasterClaimingWorker",
      "outputs": [
        {
          "internalType": "bool",
          "name": "",
          "type": "bool"
        }
      ],
      "stateMutability": "view",
      "type": "function"
    },
    {
      "inputs": [
        {
          "internalType": "address",
          "name": "_address",
          "type": "address"
        }
      ],
      "name": "isSMasterClaimingMe",
      "outputs": [
        {
          "internalType": "bool",
          "name": "",
          "type": "bool"
        }
      ],
      "stateMutability": "view",
      "type": "function"
    },
    {
      "inputs": [
        {
          "internalType": "address",
          "name": "_master",
          "type": "address"
        },
        {
          "internalType": "address",
          "name": "_address",
          "type": "address"
        }
      ],
      "name": "isWorkerClaimingMaster",
      "outputs": [
        {
          "internalType": "bool",
          "name": "",
          "type": "bool"
        }
      ],
      "stateMutability": "view",
      "type": "function"
    },
    {
      "inputs": [
        {
          "internalType": "address",
          "name": "_worker",
          "type": "address"
        }
      ],
      "name": "isWorkerClaimingMe",
      "outputs": [
        {
          "internalType": "bool",
          "name": "",
          "type": "bool"
        }
      ],
      "stateMutability": "view",
      "type": "function"
    }
  ],
  "bytecode": "0x608060405234801561001057600080fd5b5061052c806100206000396000f3fe608060405234801561001057600080fd5b50600436106100935760003560e01c806371024cf61161006657806371024cf6146101445780638108a16514610157578063a45ecaf614610191578063cf7f79a0146101a4578063df92a308146101e057600080fd5b806309b56d85146100985780630dbdf566146100e557806317c4b453146100fa5780634235ad551461010d575b600080fd5b6100d16100a63660046104a8565b3360009081526001602090815260408083206001600160a01b03949094168352929052205460ff1690565b604051901515815260200160405180910390f35b6100f86100f33660046104a8565b6101f3565b005b6100f86101083660046104a8565b61028d565b6100d161011b3660046104a8565b336000908152602081815260408083206001600160a01b03949094168352929052205460ff1690565b6100d16101523660046104c3565b610314565b6100d16101653660046104c3565b6001600160a01b0391821660009081526020818152604080832093909416825291909152205460ff1690565b6100f861019f3660046104a8565b610375565b6100d16101b23660046104c3565b6001600160a01b03918216600090815260016020908152604080832093909416825291909152205460ff1690565b6100f86101ee3660046104a8565b6103fc565b336000908152602081815260408083206001600160a01b038516845290915290205460ff1615156001141561022757600080fd5b336000908152602081815260408083206001600160a01b03851680855290835292819020805460ff1916600190811790915590519081527f0e8e59994d84c9b8a591cc88bf744180f36ac544f979838221a67d6995e3474191015b60405180910390a250565b6001600160a01b038116600090815260016020908152604080832033845290915290205460ff166102bd57600080fd5b6001600160a01b03811660008181526001602090815260408083203384528252808320805460ff19169055519182527ffc0067c8703474b12ed43243fd83e1e04df2f6dd8ab4240007715f484a62f5909101610282565b6001600160a01b03808316600090815260016020908152604080832093851683529290529081205460ff16801561036e57506001600160a01b038084166000908152602081815260408083209386168352929052205460ff165b9392505050565b336000908152602081815260408083206001600160a01b038516845290915290205460ff166103a357600080fd5b336000908152602081815260408083206001600160a01b038516808552908352818420805460ff191690559051928352917f8824e16e0e962e76671a007929e748450cd70d43e736954ae0353a1bd2f831789101610282565b6001600160a01b03811660009081526001602081815260408084203385529091529091205460ff161515141561043157600080fd5b6001600160a01b0381166000818152600160208181526040808420338552825292839020805460ff19168317905591519081527fc7205f80bf9d5ce8b13f88d6a831916a58cfdd85756a1df044049a429aed88d39101610282565b80356001600160a01b03811681146104a357600080fd5b919050565b6000602082840312156104ba57600080fd5b61036e8261048c565b600080604083850312156104d657600080fd5b6104df8361048c565b91506104ed6020840161048c565b9050925092905056fea26469706673582212206941cd9b1f0ad91e05d3d5f0a989028383ebc74633d16ce45e5eeefb30f3f81d64736f6c63430008080033",
  "linkReferences": {},
  "deployedLinkReferences": {}
}