{
  "_format": "hh-sol-artifact-1",
  "contractName": "AddressManager",
  "sourceName": "contracts/worksystems/AddressManager.sol",
  "abi": [
    {
      "anonymous": false,
      "inputs": [
        {
          "indexed": true,
          "internalType": "address",
          "name": "account",
          "type": "address"
        },
        {
          "indexed": false,
          "internalType": "bool",
          "name": "isWhitelisted",
          "type": "bool"
        }
      ],
      "name": "AddressAdded",
      "type": "event"
    },
    {
      "anonymous": false,
      "inputs": [
        {
          "indexed": true,
          "internalType": "address",
          "name": "account",
          "type": "address"
        },
        {
          "indexed": false,
          "internalType": "bool",
          "name": "isWhitelisted",
          "type": "bool"
        }
      ],
      "name": "AddressRemoved",
      "type": "event"
    },
    {
      "inputs": [
        {
          "internalType": "address",
          "name": "_address",
          "type": "address"
        }
      ],
      "name": "addAddress",
      "outputs": [],
      "stateMutability": "nonpayable",
      "type": "function"
    },
    {
      "inputs": [
        {
          "internalType": "address",
          "name": "_address",
          "type": "address"
        }
      ],
      "name": "isSenderMasterOf",
      "outputs": [
        {
          "internalType": "bool",
          "name": "",
          "type": "bool"
        }
      ],
      "stateMutability": "view",
      "type": "function"
    },
    {
      "inputs": [
        {
          "internalType": "address",
          "name": "_master",
          "type": "address"
        }
      ],
      "name": "isSenderSubOf",
      "outputs": [
        {
          "internalType": "bool",
          "name": "",
          "type": "bool"
        }
      ],
      "stateMutability": "view",
      "type": "function"
    },
    {
      "inputs": [
        {
          "internalType": "address",
          "name": "_master",
          "type": "address"
        },
        {
          "internalType": "address",
          "name": "_address",
          "type": "address"
        }
      ],
      "name": "isSubAddress",
      "outputs": [
        {
          "internalType": "bool",
          "name": "",
          "type": "bool"
        }
      ],
      "stateMutability": "view",
      "type": "function"
    },
    {
      "inputs": [
        {
          "internalType": "address",
          "name": "_address",
          "type": "address"
        }
      ],
      "name": "removeAddress",
      "outputs": [],
      "stateMutability": "nonpayable",
      "type": "function"
    }
  ],
  "bytecode": "0x608060405234801561001057600080fd5b50610306806100206000396000f3fe608060405234801561001057600080fd5b50600436106100575760003560e01c8063321380771461005c57806338eada1c146100a55780634ba79dfe146100ba57806388ac484c146100cd578063b37775c814610104575b600080fd5b61009161006a36600461027b565b6001600160a01b031660009081526020818152604080832033845290915290205460ff1690565b604051901515815260200160405180910390f35b6100b86100b336600461027b565b61013e565b005b6100b86100c836600461027b565b6101d8565b6100916100db36600461027b565b336000908152602081815260408083206001600160a01b03949094168352929052205460ff1690565b61009161011236600461029d565b6001600160a01b0391821660009081526020818152604080832093909416825291909152205460ff1690565b336000908152602081815260408083206001600160a01b038516845290915290205460ff1615156001141561017257600080fd5b336000908152602081815260408083206001600160a01b03851680855290835292819020805460ff1916600190811790915590519081527ff04743d1f6fa2fb5e464bf3585212fe22070aa0323a0adf870a5a39b9143351291015b60405180910390a250565b336000908152602081815260408083206001600160a01b038516845290915290205460ff1661020657600080fd5b336000908152602081815260408083206001600160a01b038516808552908352818420805460ff191690559051928352917faa731fdb21714f83b93a66a772a9836ce9df036d0751a8218102cd86fcd7cb8391016101cd565b80356001600160a01b038116811461027657600080fd5b919050565b60006020828403121561028d57600080fd5b6102968261025f565b9392505050565b600080604083850312156102b057600080fd5b6102b98361025f565b91506102c76020840161025f565b9050925092905056fea2646970667358221220f36412792d4dee24e999596c3bf629994954857c4dde6ed11b95723b6e78686964736f6c63430008080033",
  "linkReferences": {},
  "deployedLinkReferences": {}
}