{
  "_format": "hh-sol-artifact-1",
  "contractName": "AddressManager",
  "sourceName": "contracts/worksystems/AddressManager.sol",
  "abi": [
    {
      "anonymous": false,
      "inputs": [
        {
          "indexed": true,
          "internalType": "address",
          "name": "account",
          "type": "address"
        },
        {
          "indexed": false,
          "internalType": "address",
          "name": "account2",
          "type": "address"
        }
      ],
      "name": "AddressAddedByMaster",
      "type": "event"
    },
    {
      "anonymous": false,
      "inputs": [
        {
          "indexed": true,
          "internalType": "address",
          "name": "account",
          "type": "address"
        },
        {
          "indexed": false,
          "internalType": "address",
          "name": "account2",
          "type": "address"
        }
      ],
      "name": "AddressAddedByWorker",
      "type": "event"
    },
    {
      "anonymous": false,
      "inputs": [
        {
          "indexed": true,
          "internalType": "address",
          "name": "account",
          "type": "address"
        },
        {
          "indexed": false,
          "internalType": "address",
          "name": "account2",
          "type": "address"
        }
      ],
      "name": "AddressRemovedByMaster",
      "type": "event"
    },
    {
      "anonymous": false,
      "inputs": [
        {
          "indexed": true,
          "internalType": "address",
          "name": "account",
          "type": "address"
        },
        {
          "indexed": false,
          "internalType": "address",
          "name": "account2",
          "type": "address"
        }
      ],
      "name": "AddressRemovedByWorker",
      "type": "event"
    },
    {
      "anonymous": false,
      "inputs": [
        {
          "indexed": true,
          "internalType": "address",
          "name": "previousOwner",
          "type": "address"
        },
        {
          "indexed": true,
          "internalType": "address",
          "name": "newOwner",
          "type": "address"
        }
      ],
      "name": "OwnershipTransferred",
      "type": "event"
    },
    {
      "anonymous": false,
      "inputs": [
        {
          "indexed": true,
          "internalType": "address",
          "name": "account",
          "type": "address"
        },
        {
          "indexed": false,
          "internalType": "address",
          "name": "account2",
          "type": "address"
        }
      ],
      "name": "ReputationTransfered",
      "type": "event"
    },
    {
      "anonymous": false,
      "inputs": [
        {
          "indexed": true,
          "internalType": "address",
          "name": "account",
          "type": "address"
        },
        {
          "indexed": false,
          "internalType": "address",
          "name": "account2",
          "type": "address"
        }
      ],
      "name": "RewardsTransfered",
      "type": "event"
    },
    {
      "inputs": [
        {
          "internalType": "address",
          "name": "_master",
          "type": "address"
        },
        {
          "internalType": "address",
          "name": "_address",
          "type": "address"
        }
      ],
      "name": "AreMasterSubLinked",
      "outputs": [
        {
          "internalType": "bool",
          "name": "",
          "type": "bool"
        }
      ],
      "stateMutability": "view",
      "type": "function"
    },
    {
      "inputs": [
        {
          "internalType": "address",
          "name": "_master",
          "type": "address"
        }
      ],
      "name": "ClaimMaster",
      "outputs": [],
      "stateMutability": "nonpayable",
      "type": "function"
    },
    {
      "inputs": [
        {
          "internalType": "address",
          "name": "_worker",
          "type": "address"
        }
      ],
      "name": "FetchHighestMaster",
      "outputs": [
        {
          "internalType": "address",
          "name": "",
          "type": "address"
        }
      ],
      "stateMutability": "view",
      "type": "function"
    },
    {
      "inputs": [
        {
          "internalType": "address[]",
          "name": "_addresses",
          "type": "address[]"
        }
      ],
      "name": "MasterClaimManySubs",
      "outputs": [],
      "stateMutability": "nonpayable",
      "type": "function"
    },
    {
      "inputs": [
        {
          "internalType": "address",
          "name": "_address",
          "type": "address"
        }
      ],
      "name": "MasterClaimSub",
      "outputs": [],
      "stateMutability": "nonpayable",
      "type": "function"
    },
    {
      "inputs": [
        {
          "internalType": "address",
          "name": "",
          "type": "address"
        },
        {
          "internalType": "address",
          "name": "",
          "type": "address"
        }
      ],
      "name": "MasterClaimingWorker",
      "outputs": [
        {
          "internalType": "bool",
          "name": "",
          "type": "bool"
        }
      ],
      "stateMutability": "view",
      "type": "function"
    },
    {
      "inputs": [
        {
          "internalType": "address[]",
          "name": "_addresses",
          "type": "address[]"
        }
      ],
      "name": "MasterRemoveManySubs",
      "outputs": [],
      "stateMutability": "nonpayable",
      "type": "function"
    },
    {
      "inputs": [
        {
          "internalType": "address",
          "name": "_address",
          "type": "address"
        }
      ],
      "name": "MasterRemoveSub",
      "outputs": [],
      "stateMutability": "nonpayable",
      "type": "function"
    },
    {
      "inputs": [
        {
          "internalType": "address",
          "name": "",
          "type": "address"
        },
        {
          "internalType": "uint256",
          "name": "",
          "type": "uint256"
        }
      ],
      "name": "MasterToSubsMap",
      "outputs": [
        {
          "internalType": "address",
          "name": "",
          "type": "address"
        }
      ],
      "stateMutability": "view",
      "type": "function"
    },
    {
      "inputs": [],
      "name": "Parameters",
      "outputs": [
        {
          "internalType": "contract IParametersManager",
          "name": "",
          "type": "address"
        }
      ],
      "stateMutability": "view",
      "type": "function"
    },
    {
      "inputs": [
        {
          "internalType": "address",
          "name": "_master",
          "type": "address"
        }
      ],
      "name": "RemoveMaster",
      "outputs": [],
      "stateMutability": "nonpayable",
      "type": "function"
    },
    {
      "inputs": [
        {
          "internalType": "address",
          "name": "",
          "type": "address"
        }
      ],
      "name": "SubToMasterMap",
      "outputs": [
        {
          "internalType": "address",
          "name": "",
          "type": "address"
        }
      ],
      "stateMutability": "view",
      "type": "function"
    },
    {
      "inputs": [
        {
          "internalType": "address",
          "name": "",
          "type": "address"
        },
        {
          "internalType": "address",
          "name": "",
          "type": "address"
        }
      ],
      "name": "WorkerClaimingMaster",
      "outputs": [
        {
          "internalType": "bool",
          "name": "",
          "type": "bool"
        }
      ],
      "stateMutability": "view",
      "type": "function"
    },
    {
      "inputs": [
        {
          "internalType": "address",
          "name": "_worker",
          "type": "address"
        }
      ],
      "name": "getMaster",
      "outputs": [
        {
          "internalType": "address",
          "name": "",
          "type": "address"
        }
      ],
      "stateMutability": "view",
      "type": "function"
    },
    {
      "inputs": [
        {
          "internalType": "address",
          "name": "_master",
          "type": "address"
        }
      ],
      "name": "getMasterSubs",
      "outputs": [
        {
          "internalType": "address[]",
          "name": "",
          "type": "address[]"
        }
      ],
      "stateMutability": "view",
      "type": "function"
    },
    {
      "inputs": [
        {
          "internalType": "address",
          "name": "_master",
          "type": "address"
        },
        {
          "internalType": "address",
          "name": "_address",
          "type": "address"
        }
      ],
      "name": "isMasterOf",
      "outputs": [
        {
          "internalType": "bool",
          "name": "",
          "type": "bool"
        }
      ],
      "stateMutability": "view",
      "type": "function"
    },
    {
      "inputs": [
        {
          "internalType": "address",
          "name": "_master",
          "type": "address"
        }
      ],
      "name": "isMasterOfMe",
      "outputs": [
        {
          "internalType": "bool",
          "name": "",
          "type": "bool"
        }
      ],
      "stateMutability": "view",
      "type": "function"
    },
    {
      "inputs": [
        {
          "internalType": "address",
          "name": "_worker",
          "type": "address"
        },
        {
          "internalType": "address",
          "name": "_master",
          "type": "address"
        }
      ],
      "name": "isSubInMasterArray",
      "outputs": [
        {
          "internalType": "bool",
          "name": "",
          "type": "bool"
        }
      ],
      "stateMutability": "view",
      "type": "function"
    },
    {
      "inputs": [
        {
          "internalType": "address",
          "name": "_master",
          "type": "address"
        },
        {
          "internalType": "address",
          "name": "_address",
          "type": "address"
        }
      ],
      "name": "isSubWorkerOf",
      "outputs": [
        {
          "internalType": "bool",
          "name": "",
          "type": "bool"
        }
      ],
      "stateMutability": "view",
      "type": "function"
    },
    {
      "inputs": [
        {
          "internalType": "address",
          "name": "_worker",
          "type": "address"
        }
      ],
      "name": "isSubWorkerOfMe",
      "outputs": [
        {
          "internalType": "bool",
          "name": "",
          "type": "bool"
        }
      ],
      "stateMutability": "view",
      "type": "function"
    },
    {
      "inputs": [],
      "name": "owner",
      "outputs": [
        {
          "internalType": "address",
          "name": "",
          "type": "address"
        }
      ],
      "stateMutability": "view",
      "type": "function"
    },
    {
      "inputs": [],
      "name": "renounceOwnership",
      "outputs": [],
      "stateMutability": "nonpayable",
      "type": "function"
    },
    {
      "inputs": [
        {
          "internalType": "address",
          "name": "newOwner",
          "type": "address"
        }
      ],
      "name": "transferOwnership",
      "outputs": [],
      "stateMutability": "nonpayable",
      "type": "function"
    },
    {
      "inputs": [
        {
          "internalType": "address",
          "name": "addr",
          "type": "address"
        }
      ],
      "name": "updateParametersManager",
      "outputs": [],
      "stateMutability": "nonpayable",
      "type": "function"
    }
  ],
  "bytecode": "0x60806040526005805534801561001457600080fd5b5061001e33610023565b610073565b600080546001600160a01b038381166001600160a01b0319831681178455604051919092169283917f8be0079c531659141344cd1fd0a4f28419497f9722a3daafe3b4186f6b6457e09190a35050565b611c4e806100826000396000f3fe608060405234801561001057600080fd5b50600436106101585760003560e01c80638213b8d8116100c3578063df77a0f61161007c578063df77a0f61461034f578063e4f1d0fd14610362578063f25e9ed21461038b578063f2fde38b146103b7578063f77c8658146103ca578063ff43de9d146103dd57600080fd5b80638213b8d8146102ce5780638da5cb5b146102e157806396daff56146102f25780639f62c37914610305578063ac8d65cb146102f2578063db5198241461031857600080fd5b80632e3ce457116101155780632e3ce4571461024c578063342bffbf1461025f57806339c3f6e71461028d5780634826d043146102a0578063584720f5146102b3578063715018a6146102c657600080fd5b8063059576231461015d5780630c06e4df1461017257806311815086146101c057806312ccb147146101eb5780631778f9c8146101fe578063198ff3dc1461022c575b600080fd5b61017061016b36600461193a565b6103f0565b005b6101ab61018036600461193a565b3360009081526001602090815260408083206001600160a01b03949094168352929052205460ff1690565b60405190151581526020015b60405180910390f35b6101d36101ce36600461193a565b61042d565b6040516001600160a01b0390911681526020016101b7565b6101706101f936600461193a565b610528565b6101ab61020c366004611957565b600260209081526000928352604080842090915290825290205460ff1681565b61023f61023a36600461193a565b6105b5565b6040516101b79190611990565b6101d361025a3660046119dd565b61062b565b6101ab61026d366004611957565b600160209081526000928352604080842090915290825290205460ff1681565b61017061029b366004611a1f565b610663565b6101706102ae36600461193a565b6107fa565b6101706102c136600461193a565b6108f8565b6101706109f3565b6101706102dc366004611a1f565b610a07565b6000546001600160a01b03166101d3565b6101ab610300366004611957565b610b68565b6101ab610313366004611957565b610b96565b6101ab61032636600461193a565b6001600160a01b0316600090815260016020908152604080832033845290915290205460ff1690565b61017061035d36600461193a565b610bba565b6101d361037036600461193a565b6004602052600090815260409020546001600160a01b031681565b6101d361039936600461193a565b6001600160a01b039081166000908152600460205260409020541690565b6101706103c536600461193a565b610c51565b6101ab6103d8366004611957565b610cca565b6006546101d3906001600160a01b031681565b6103f8610da1565b6001600160a01b03811661040b57600080fd5b600680546001600160a01b0319166001600160a01b0392909216919091179055565b60006001600160a01b0382166104b05760405162461bcd60e51b815260206004820152603e60248201527f4665746368486967686573744d61737465723a20696e707574205f776f726b6560448201527f72206e6565647320746f206265206e6f6e206e756c6c2061646472657373000060648201526084015b60405180910390fd5b6001600160a01b0380831660009081526004602052604090205460055491169083905b6001600160a01b038316158015906104eb5750600081115b15610520576001600160a01b0380841660009081526004602052604090205416929150610519600182611afa565b90506104d3565b509392505050565b3360008181526001602081815260408084206001600160a01b038716808652908352818520805460ff191685179055858552600383528185208054948501815585529382902090920180546001600160a01b0319168417905590519182527f8902b85532bfc55a9f5b6e6a9576366640928b3be984b3a61167a210ca2bbc5791015b60405180910390a250565b6001600160a01b03811660009081526003602090815260409182902080548351818402810184019094528084526060939283018282801561061f57602002820191906000526020600020905b81546001600160a01b03168152600190910190602001808311610601575b50505050509050919050565b6003602052816000526040600020818154811061064757600080fd5b6000918252602090912001546001600160a01b03169150829050565b60005b81518110156107f657336000908152600160205260408120835190919084908490811061069557610695611b11565b6020908102919091018101516001600160a01b031682528101919091526040016000205460ff1615156001146107e45733600090815260016020819052604082208451919290918590859081106106ee576106ee611b11565b6020908102919091018101516001600160a01b031682528181019290925260409081016000908120805460ff19169415159490941790935533835260039091529020825183908390811061074457610744611b11565b60209081029190910181015182546001810184556000938452919092200180546001600160a01b0319166001600160a01b03909216919091179055815133907f8902b85532bfc55a9f5b6e6a9576366640928b3be984b3a61167a210ca2bbc57908490849081106107b7576107b7611b11565b60200260200101516040516107db91906001600160a01b0391909116815260200190565b60405180910390a25b806107ee81611b27565b915050610666565b5050565b3360009081526001602090815260408083206001600160a01b038516845290915290205460ff166108885760405162461bcd60e51b815260206004820152603260248201527f43616e27742072656d6f76653a204d6173746572206e6f7420636c61696d696e60448201527167207468697320537562204164647265737360701b60648201526084016104a7565b3360008181526001602090815260408083206001600160a01b03861684529091529020805460ff191690556108bd9082610dfb565b6040516001600160a01b038216815233907f7a24ac72e272dd8c83b793ae84448c72032b95723856486219c79dd722fe4292906020016105aa565b6001600160a01b038116600090815260026020908152604080832033845290915290205460ff166109825760405162461bcd60e51b815260206004820152602e60248201527f43616e27742072656d6f7665204d61737465723a206e6f7420636c61696d696e60448201526d672074686973206164647265737360901b60648201526084016104a7565b6001600160a01b038116600081815260026020908152604080832033808552908352818420805460ff19169055600483529281902080546001600160a01b03191690555192835290917f0d7169440daf0897d7f4486a35eef15a070460981ff18ab846aa2199f171118e91016105aa565b6109fb610da1565b610a056000610f71565b565b60005b81518110156107f6573360009081526001602052604081208351909190849084908110610a3957610a39611b11565b6020908102919091018101516001600160a01b031682528101919091526040016000205460ff1615610b565733600090815260016020526040812083518290859085908110610a8a57610a8a611b11565b60200260200101516001600160a01b03166001600160a01b0316815260200190815260200160002060006101000a81548160ff021916908315150217905550610aec33838381518110610adf57610adf611b11565b6020026020010151610dfb565b336001600160a01b03167f7a24ac72e272dd8c83b793ae84448c72032b95723856486219c79dd722fe4292838381518110610b2957610b29611b11565b6020026020010151604051610b4d91906001600160a01b0391909116815260200190565b60405180910390a25b80610b6081611b27565b915050610a0a565b6001600160a01b03918216600090815260016020908152604080832093909416825291909152205460ff1690565b6000610ba28383610b68565b8015610bb35750610bb38383610b68565b9392505050565b6001600160a01b038116600081815260026020908152604080832033808552908352818420805460ff19166001179055600490925290912080546001600160a01b031916909217909155610c0d90610fc1565b610c1633611564565b6040516001600160a01b038216815233907f85851bdf5239daecee00c49afa200b87f208a1cc246f3c3da177796c9f605d73906020016105aa565b610c59610da1565b6001600160a01b038116610cbe5760405162461bcd60e51b815260206004820152602660248201527f4f776e61626c653a206e6577206f776e657220697320746865207a65726f206160448201526564647265737360d01b60648201526084016104a7565b610cc781610f71565b50565b6001600160a01b0381166000908152600360209081526040808320805482518185028101850190935280835284938493929190830182828015610d3657602002820191906000526020600020905b81546001600160a01b03168152600190910190602001808311610d18575b5050505050905060005b8151811015610d9757856001600160a01b0316828281518110610d6557610d65611b11565b60200260200101516001600160a01b03161415610d855760019250610d97565b80610d8f81611b27565b915050610d40565b5090949350505050565b6000546001600160a01b03163314610a055760405162461bcd60e51b815260206004820181905260248201527f4f776e61626c653a2063616c6c6572206973206e6f7420746865206f776e657260448201526064016104a7565b60008060005b6001600160a01b038516600090815260036020526040902054811015610e89576001600160a01b03858116600090815260036020526040902080549186169183908110610e5057610e50611b11565b6000918252602090912001546001600160a01b03161415610e775760019150809250610e89565b80610e8181611b27565b915050610e01565b508015610f6b576001600160a01b03841660009081526003602052604090208054610eb690600190611afa565b81548110610ec657610ec6611b11565b60009182526020808320909101546001600160a01b03878116845260039092526040909220805491909216919084908110610f0357610f03611b11565b600091825260208083209190910180546001600160a01b0319166001600160a01b039485161790559186168152600390915260409020805480610f4857610f48611b42565b600082815260209020810160001990810180546001600160a01b03191690550190555b50505050565b600080546001600160a01b038381166001600160a01b0319831681178455604051919092169283917f8be0079c531659141344cd1fd0a4f28419497f9722a3daafe3b4186f6b6457e09190a35050565b60065460408051630855d15160e01b815290516000926001600160a01b031691630855d151916004808301926020929190829003018186803b15801561100657600080fd5b505afa15801561101a573d6000803e3d6000fd5b505050506040513d601f19601f8201168201806040525081019061103e9190611b58565b6001600160a01b031614156110955760405162461bcd60e51b815260206004820181905260248201527f5265704d616e61676572206973206e756c6c20696e20506172616d657465727360448201526064016104a7565b6006546040805163e992dca760e01b815290516000926001600160a01b03169163e992dca7916004808301926020929190829003018186803b1580156110da57600080fd5b505afa1580156110ee573d6000803e3d6000fd5b505050506040513d601f19601f820116820180604052508101906111129190611b58565b6001600160a01b031614156111695760405162461bcd60e51b815260206004820181905260248201527f5265704d616e61676572206973206e756c6c20696e20506172616d657465727360448201526064016104a7565b60065460408051630855d15160e01b815290516000926001600160a01b031691630855d151916004808301926020929190829003018186803b1580156111ae57600080fd5b505afa1580156111c2573d6000803e3d6000fd5b505050506040513d601f19601f820116820180604052508101906111e69190611b58565b90506000600660009054906101000a90046001600160a01b03166001600160a01b031663e992dca76040518163ffffffff1660e01b815260040160206040518083038186803b15801561123857600080fd5b505afa15801561124c573d6000803e3d6000fd5b505050506040513d601f19601f820116820180604052508101906112709190611b58565b6001600160a01b03848116600090815260046020526040902054919250166112aa5760405162461bcd60e51b81526004016104a790611b75565b6040516370a0823160e01b81526001600160a01b038481166004830152600091908316906370a082319060240160206040518083038186803b1580156112ef57600080fd5b505afa158015611303573d6000803e3d6000fd5b505050506040513d601f19601f820116820180604052508101906113279190611bdd565b905060006113348561042d565b9050811561155d57604051630db6cc8560e11b8152600481018390526001600160a01b03828116602483015260006044830152851690631b6d990a90606401602060405180830381600087803b15801561138d57600080fd5b505af11580156113a1573d6000803e3d6000fd5b505050506040513d601f19601f820116820180604052508101906113c59190611bf6565b61142b5760405162461bcd60e51b815260206004820152603160248201527f5472616e73666572526570546f4d61737465723a20636f756c64206e6f74206d60448201527034b73a102932b8103a379036b0b9ba32b960791b60648201526084016104a7565b60405163171bcfc360e21b8152600481018390526001600160a01b03868116602483015260006044830152851690635c6f3f0c90606401602060405180830381600087803b15801561147c57600080fd5b505af1158015611490573d6000803e3d6000fd5b505050506040513d601f19601f820116820180604052508101906114b49190611bf6565b61151c5760405162461bcd60e51b815260206004820152603360248201527f5472616e73666572526570546f4d61737465723a20636f756c64206e6f7420626044820152723ab937102932b810333937b6903bb7b935b2b960691b60648201526084016104a7565b6040516001600160a01b0382811682528616907fc587680578b3acb8eeb1ab421a6921efe2a32b10903016ebd6c3f39e51cd1d969060200160405180910390a25b5050505050565b600654604080516304e76c8f60e01b815290516000926001600160a01b0316916304e76c8f916004808301926020929190829003018186803b1580156115a957600080fd5b505afa1580156115bd573d6000803e3d6000fd5b505050506040513d601f19601f820116820180604052508101906115e19190611b58565b6001600160a01b031614156116445760405162461bcd60e51b815260206004820152602360248201527f5265776172644d616e61676572206973206e756c6c20696e20506172616d657460448201526265727360e81b60648201526084016104a7565b600654604080516304e76c8f60e01b815290516000926001600160a01b0316916304e76c8f916004808301926020929190829003018186803b15801561168957600080fd5b505afa15801561169d573d6000803e3d6000fd5b505050506040513d601f19601f820116820180604052508101906116c19190611b58565b90506001600160a01b0381166117195760405162461bcd60e51b815260206004820152601f60248201527f5265776172644d616e61676572206e6565647320746f2062652073657475700060448201526064016104a7565b6001600160a01b03828116600090815260046020526040902054166117505760405162461bcd60e51b81526004016104a790611b75565b604051633b4febfb60e21b81526001600160a01b0383811660048301526000919083169063ed3fafec90602401602060405180830381600087803b15801561179757600080fd5b505af11580156117ab573d6000803e3d6000fd5b505050506040513d601f19601f820116820180604052508101906117cf9190611bdd565b905060006117dc8461042d565b90508115610f6b57604051635f28bad560e01b81526001600160a01b0385811660048301528281166024830152841690635f28bad590604401602060405180830381600087803b15801561182f57600080fd5b505af1158015611843573d6000803e3d6000fd5b505050506040513d601f19601f820116820180604052508101906118679190611bf6565b6118cf5760405162461bcd60e51b815260206004820152603360248201527f5472616e7366657252657761726473546f4d61737465723a20636f756c64206e6044820152726f74207472616e73666572207265776172647360681b60648201526084016104a7565b6040516001600160a01b0382811682528516907f04b22084ec80e4b31b47cb8c65cd44c4e4e2840e20dffcbd81bd7d048b74fb4e9060200160405180910390a250505050565b6001600160a01b0381168114610cc757600080fd5b803561193581611915565b919050565b60006020828403121561194c57600080fd5b8135610bb381611915565b6000806040838503121561196a57600080fd5b823561197581611915565b9150602083013561198581611915565b809150509250929050565b6020808252825182820181905260009190848201906040850190845b818110156119d15783516001600160a01b0316835292840192918401916001016119ac565b50909695505050505050565b600080604083850312156119f057600080fd5b82356119fb81611915565b946020939093013593505050565b634e487b7160e01b600052604160045260246000fd5b60006020808385031215611a3257600080fd5b823567ffffffffffffffff80821115611a4a57600080fd5b818501915085601f830112611a5e57600080fd5b813581811115611a7057611a70611a09565b8060051b604051601f19603f83011681018181108582111715611a9557611a95611a09565b604052918252848201925083810185019188831115611ab357600080fd5b938501935b82851015611ad857611ac98561192a565b84529385019392850192611ab8565b98975050505050505050565b634e487b7160e01b600052601160045260246000fd5b600082821015611b0c57611b0c611ae4565b500390565b634e487b7160e01b600052603260045260246000fd5b6000600019821415611b3b57611b3b611ae4565b5060010190565b634e487b7160e01b600052603160045260246000fd5b600060208284031215611b6a57600080fd5b8151610bb381611915565b60208082526042908201527f5472616e73666572526570546f4d61737465723a20696e707574205f776f726b60408201527f6572206e6565647320746f20686176652061206e6f6e2d6e756c6c206d61737460608201526132b960f11b608082015260a00190565b600060208284031215611bef57600080fd5b5051919050565b600060208284031215611c0857600080fd5b81518015158114610bb357600080fdfea264697066735822122076f8f754c6180cf0f8ab0a84b50e8394b0344816e2cbf6a82f6941cd5a97d3dc64736f6c63430008080033",
  "linkReferences": {},
  "deployedLinkReferences": {}
}