{
  "_format": "hh-sol-artifact-1",
  "contractName": "AddressManager",
  "sourceName": "contracts/worksystems/AddressManager.sol",
  "abi": [
    {
      "anonymous": false,
      "inputs": [
        {
          "indexed": true,
          "internalType": "address",
          "name": "account",
          "type": "address"
        },
        {
          "indexed": false,
          "internalType": "address",
          "name": "account2",
          "type": "address"
        },
        {
          "indexed": false,
          "internalType": "bool",
          "name": "isWhitelisted",
          "type": "bool"
        }
      ],
      "name": "AddressAddedByMaster",
      "type": "event"
    },
    {
      "anonymous": false,
      "inputs": [
        {
          "indexed": true,
          "internalType": "address",
          "name": "account",
          "type": "address"
        },
        {
          "indexed": false,
          "internalType": "address",
          "name": "account2",
          "type": "address"
        },
        {
          "indexed": false,
          "internalType": "bool",
          "name": "isWhitelisted",
          "type": "bool"
        }
      ],
      "name": "AddressAddedByWorker",
      "type": "event"
    },
    {
      "anonymous": false,
      "inputs": [
        {
          "indexed": true,
          "internalType": "address",
          "name": "account",
          "type": "address"
        },
        {
          "indexed": false,
          "internalType": "address",
          "name": "account2",
          "type": "address"
        },
        {
          "indexed": false,
          "internalType": "bool",
          "name": "isWhitelisted",
          "type": "bool"
        }
      ],
      "name": "AddressRemovedByMaster",
      "type": "event"
    },
    {
      "anonymous": false,
      "inputs": [
        {
          "indexed": true,
          "internalType": "address",
          "name": "account",
          "type": "address"
        },
        {
          "indexed": false,
          "internalType": "address",
          "name": "account2",
          "type": "address"
        },
        {
          "indexed": false,
          "internalType": "bool",
          "name": "isWhitelisted",
          "type": "bool"
        }
      ],
      "name": "AddressRemovedByWorker",
      "type": "event"
    },
    {
      "inputs": [
        {
          "internalType": "address",
          "name": "_master",
          "type": "address"
        },
        {
          "internalType": "address",
          "name": "_worker",
          "type": "address"
        }
      ],
      "name": "AreMasterWorkerLinked",
      "outputs": [
        {
          "internalType": "bool",
          "name": "",
          "type": "bool"
        }
      ],
      "stateMutability": "view",
      "type": "function"
    },
    {
      "inputs": [
        {
          "internalType": "address",
          "name": "_address",
          "type": "address"
        }
      ],
      "name": "MasterClaimWorkerAddress",
      "outputs": [],
      "stateMutability": "nonpayable",
      "type": "function"
    },
    {
      "inputs": [
        {
          "internalType": "address",
          "name": "_address",
          "type": "address"
        }
      ],
      "name": "MasterRemoveAddress",
      "outputs": [],
      "stateMutability": "nonpayable",
      "type": "function"
    },
    {
      "inputs": [
        {
          "internalType": "address",
          "name": "_address",
          "type": "address"
        }
      ],
      "name": "WorkerAddMasterAddress",
      "outputs": [],
      "stateMutability": "nonpayable",
      "type": "function"
    },
    {
      "inputs": [
        {
          "internalType": "address",
          "name": "_address",
          "type": "address"
        }
      ],
      "name": "WorkerRemoveMasterAddress",
      "outputs": [],
      "stateMutability": "nonpayable",
      "type": "function"
    },
    {
      "inputs": [
        {
          "internalType": "address",
          "name": "",
          "type": "address"
        },
        {
          "internalType": "address",
          "name": "",
          "type": "address"
        }
      ],
      "name": "WorkerSubAddresses",
      "outputs": [
        {
          "internalType": "bool",
          "name": "",
          "type": "bool"
        }
      ],
      "stateMutability": "view",
      "type": "function"
    },
    {
      "inputs": [
        {
          "internalType": "address",
          "name": "",
          "type": "address"
        },
        {
          "internalType": "address",
          "name": "",
          "type": "address"
        }
      ],
      "name": "WorkersClaims",
      "outputs": [
        {
          "internalType": "bool",
          "name": "",
          "type": "bool"
        }
      ],
      "stateMutability": "view",
      "type": "function"
    },
    {
      "inputs": [
        {
          "internalType": "address",
          "name": "_master",
          "type": "address"
        },
        {
          "internalType": "address",
          "name": "_address",
          "type": "address"
        }
      ],
      "name": "isMasterClaimingWorker",
      "outputs": [
        {
          "internalType": "bool",
          "name": "",
          "type": "bool"
        }
      ],
      "stateMutability": "view",
      "type": "function"
    },
    {
      "inputs": [
        {
          "internalType": "address",
          "name": "_address",
          "type": "address"
        }
      ],
      "name": "isSMasterClaimingMe",
      "outputs": [
        {
          "internalType": "bool",
          "name": "",
          "type": "bool"
        }
      ],
      "stateMutability": "view",
      "type": "function"
    },
    {
      "inputs": [
        {
          "internalType": "address",
          "name": "_master",
          "type": "address"
        },
        {
          "internalType": "address",
          "name": "_address",
          "type": "address"
        }
      ],
      "name": "isWorkerClaimingMaster",
      "outputs": [
        {
          "internalType": "bool",
          "name": "",
          "type": "bool"
        }
      ],
      "stateMutability": "view",
      "type": "function"
    },
    {
      "inputs": [
        {
          "internalType": "address",
          "name": "_worker",
          "type": "address"
        }
      ],
      "name": "isWorkerClaimingMe",
      "outputs": [
        {
          "internalType": "bool",
          "name": "",
          "type": "bool"
        }
      ],
      "stateMutability": "view",
      "type": "function"
    }
  ],
  "bytecode": "0x608060405234801561001057600080fd5b506105be806100206000396000f3fe608060405234801561001057600080fd5b50600436106100a95760003560e01c806362f1fedf1161007157806362f1fedf1461018857806371024cf6146101b35780638108a165146101c6578063a45ecaf614610200578063cf7f79a014610213578063df92a3081461024f57600080fd5b806309b56d85146100ae5780630dbdf566146100fb57806317c4b453146101105780634235ad55146101235780635e84fa271461015a575b600080fd5b6100e76100bc36600461053a565b3360009081526001602090815260408083206001600160a01b03949094168352929052205460ff1690565b604051901515815260200160405180910390f35b61010e61010936600461053a565b610262565b005b61010e61011e36600461053a565b610303565b6100e761013136600461053a565b336000908152602081815260408083206001600160a01b03949094168352929052205460ff1690565b6100e7610168366004610555565b600160209081526000928352604080842090915290825290205460ff1681565b6100e7610196366004610555565b600060208181529281526040808220909352908152205460ff1681565b6100e76101c1366004610555565b610395565b6100e76101d4366004610555565b6001600160a01b0391821660009081526020818152604080832093909416825291909152205460ff1690565b61010e61020e36600461053a565b6103f6565b6100e7610221366004610555565b6001600160a01b03918216600090815260016020908152604080832093909416825291909152205460ff1690565b61010e61025d36600461053a565b610483565b336000908152602081815260408083206001600160a01b038516845290915290205460ff1615156001141561029657600080fd5b336000818152602081815260408083206001600160a01b03861680855290835292819020805460ff191660019081179091558151938452918301919091527fccfda4d29d5834d9022c8bb1e80faaa365876e3601cb3bd51b8036d73ff571af91015b60405180910390a250565b6001600160a01b038116600090815260016020908152604080832033845290915290205460ff1661033357600080fd5b6001600160a01b038116600081815260016020908152604080832033808552908352818420805460ff19169055815194855291840192909252917fb980abb9203db89117567f05dc4c26d024ea37fce0208060fbeb28e66570801591016102f8565b6001600160a01b03808316600090815260016020908152604080832093851683529290529081205460ff1680156103ef57506001600160a01b038084166000908152602081815260408083209386168352929052205460ff165b9392505050565b336000908152602081815260408083206001600160a01b038516845290915290205460ff1661042457600080fd5b336000818152602081815260408083206001600160a01b038616808552908352818420805460ff191690558151908152918201929092527f3ebe127ca13376b0a743b718a82a24b2345d3d3df23dea556b617fc920fccaa491016102f8565b6001600160a01b03811660009081526001602081815260408084203385529091529091205460ff16151514156104b857600080fd5b6001600160a01b03811660008181526001602081815260408084203380865290835293819020805460ff19168417905580519485529084019190915290917f11ebfce9f76621d1fc54b1c7fe0e5bec7f16707303220b29b5ac89d0b70519c691016102f8565b80356001600160a01b038116811461053557600080fd5b919050565b60006020828403121561054c57600080fd5b6103ef8261051e565b6000806040838503121561056857600080fd5b6105718361051e565b915061057f6020840161051e565b9050925092905056fea26469706673582212207559b87c12c9fc38fac5ffbde282ddf82d8d38e16e56b3e1a28b3b0d63b199ff64736f6c63430008080033",
  "linkReferences": {},
  "deployedLinkReferences": {}
}