{
  "_format": "hh-sol-artifact-1",
  "contractName": "RewardsManager",
  "sourceName": "contracts/worksystems/RewardsManager.sol",
  "abi": [
    {
      "inputs": [
        {
          "internalType": "address",
          "name": "EXD_token",
          "type": "address"
        }
      ],
      "stateMutability": "nonpayable",
      "type": "constructor"
    },
    {
      "anonymous": false,
      "inputs": [
        {
          "indexed": true,
          "internalType": "address",
          "name": "account",
          "type": "address"
        },
        {
          "indexed": false,
          "internalType": "uint256",
          "name": "amountAdded",
          "type": "uint256"
        }
      ],
      "name": "AddedRewards",
      "type": "event"
    },
    {
      "anonymous": false,
      "inputs": [
        {
          "indexed": false,
          "internalType": "uint256",
          "name": "LastSubTimestamp",
          "type": "uint256"
        }
      ],
      "name": "DailySlidingCounterUpdate",
      "type": "event"
    },
    {
      "anonymous": false,
      "inputs": [
        {
          "indexed": false,
          "internalType": "uint256",
          "name": "LastSubTimestamp",
          "type": "uint256"
        }
      ],
      "name": "HourlySlidingCounterUpdate",
      "type": "event"
    },
    {
      "anonymous": false,
      "inputs": [
        {
          "indexed": true,
          "internalType": "address",
          "name": "previousOwner",
          "type": "address"
        },
        {
          "indexed": true,
          "internalType": "address",
          "name": "newOwner",
          "type": "address"
        }
      ],
      "name": "OwnershipTransferred",
      "type": "event"
    },
    {
      "anonymous": false,
      "inputs": [
        {
          "indexed": true,
          "internalType": "address",
          "name": "account",
          "type": "address"
        },
        {
          "indexed": false,
          "internalType": "uint256",
          "name": "amountRemoved",
          "type": "uint256"
        }
      ],
      "name": "RemovedRewards",
      "type": "event"
    },
    {
      "anonymous": false,
      "inputs": [
        {
          "indexed": true,
          "internalType": "address",
          "name": "account",
          "type": "address"
        },
        {
          "indexed": false,
          "internalType": "bool",
          "name": "isWhitelisted",
          "type": "bool"
        }
      ],
      "name": "RewardsUnWhitelisted",
      "type": "event"
    },
    {
      "anonymous": false,
      "inputs": [
        {
          "indexed": true,
          "internalType": "address",
          "name": "account",
          "type": "address"
        },
        {
          "indexed": false,
          "internalType": "bool",
          "name": "isWhitelisted",
          "type": "bool"
        }
      ],
      "name": "RewardsWhitelisted",
      "type": "event"
    },
    {
      "anonymous": false,
      "inputs": [
        {
          "indexed": true,
          "internalType": "address",
          "name": "accountA",
          "type": "address"
        },
        {
          "indexed": false,
          "internalType": "address",
          "name": "accountB",
          "type": "address"
        },
        {
          "indexed": false,
          "internalType": "uint256",
          "name": "amountTransfered",
          "type": "uint256"
        }
      ],
      "name": "TransferedRewards",
      "type": "event"
    },
    {
      "inputs": [
        {
          "internalType": "uint256",
          "name": "",
          "type": "uint256"
        }
      ],
      "name": "DailyRewardsFlowManager",
      "outputs": [
        {
          "internalType": "uint256",
          "name": "timestamp",
          "type": "uint256"
        },
        {
          "internalType": "uint256",
          "name": "counter",
          "type": "uint256"
        }
      ],
      "stateMutability": "view",
      "type": "function"
    },
    {
      "inputs": [],
      "name": "GetTotalGivenRewards",
      "outputs": [
        {
          "internalType": "uint256",
          "name": "",
          "type": "uint256"
        }
      ],
      "stateMutability": "view",
      "type": "function"
    },
    {
      "inputs": [
        {
          "internalType": "uint256",
          "name": "",
          "type": "uint256"
        }
      ],
      "name": "HourlyRewardsFlowManager",
      "outputs": [
        {
          "internalType": "uint256",
          "name": "timestamp",
          "type": "uint256"
        },
        {
          "internalType": "uint256",
          "name": "counter",
          "type": "uint256"
        }
      ],
      "stateMutability": "view",
      "type": "function"
    },
    {
      "inputs": [],
      "name": "MAX_DAILY_EXD_REWARDS",
      "outputs": [
        {
          "internalType": "uint256",
          "name": "",
          "type": "uint256"
        }
      ],
      "stateMutability": "view",
      "type": "function"
    },
    {
      "inputs": [],
      "name": "MAX_HOURLY_EXD_REWARDS",
      "outputs": [
        {
          "internalType": "uint256",
          "name": "",
          "type": "uint256"
        }
      ],
      "stateMutability": "view",
      "type": "function"
    },
    {
      "inputs": [],
      "name": "ManagerBalance",
      "outputs": [
        {
          "internalType": "uint256",
          "name": "",
          "type": "uint256"
        }
      ],
      "stateMutability": "view",
      "type": "function"
    },
    {
      "inputs": [
        {
          "internalType": "uint256",
          "name": "_numTokens",
          "type": "uint256"
        }
      ],
      "name": "OwnerWithdraw",
      "outputs": [],
      "stateMutability": "nonpayable",
      "type": "function"
    },
    {
      "inputs": [],
      "name": "OwnerWithdrawAllRewards",
      "outputs": [],
      "stateMutability": "nonpayable",
      "type": "function"
    },
    {
      "inputs": [
        {
          "internalType": "uint256",
          "name": "_RewardsAllocation",
          "type": "uint256"
        },
        {
          "internalType": "address",
          "name": "_user",
          "type": "address"
        }
      ],
      "name": "ProxyAddReward",
      "outputs": [
        {
          "internalType": "bool",
          "name": "",
          "type": "bool"
        }
      ],
      "stateMutability": "nonpayable",
      "type": "function"
    },
    {
      "inputs": [
        {
          "internalType": "address",
          "name": "_initial",
          "type": "address"
        },
        {
          "internalType": "address",
          "name": "_receiving",
          "type": "address"
        }
      ],
      "name": "ProxyTransferRewards",
      "outputs": [
        {
          "internalType": "bool",
          "name": "",
          "type": "bool"
        }
      ],
      "stateMutability": "nonpayable",
      "type": "function"
    },
    {
      "inputs": [
        {
          "internalType": "address",
          "name": "_address",
          "type": "address"
        }
      ],
      "name": "RewardsBalanceOf",
      "outputs": [
        {
          "internalType": "uint256",
          "name": "",
          "type": "uint256"
        }
      ],
      "stateMutability": "view",
      "type": "function"
    },
    {
      "inputs": [],
      "name": "WithdrawAllRewards",
      "outputs": [],
      "stateMutability": "nonpayable",
      "type": "function"
    },
    {
      "inputs": [
        {
          "internalType": "uint256",
          "name": "_numTokens",
          "type": "uint256"
        }
      ],
      "name": "WithdrawRewards",
      "outputs": [],
      "stateMutability": "nonpayable",
      "type": "function"
    },
    {
      "inputs": [
        {
          "internalType": "address",
          "name": "_address",
          "type": "address"
        }
      ],
      "name": "addAddress",
      "outputs": [],
      "stateMutability": "nonpayable",
      "type": "function"
    },
    {
      "inputs": [
        {
          "internalType": "contract IERC20",
          "name": "token_",
          "type": "address"
        },
        {
          "internalType": "address",
          "name": "beneficiary_",
          "type": "address"
        },
        {
          "internalType": "uint256",
          "name": "tokenAmount_",
          "type": "uint256"
        }
      ],
      "name": "adminWithdrawERC20",
      "outputs": [],
      "stateMutability": "nonpayable",
      "type": "function"
    },
    {
      "inputs": [
        {
          "internalType": "uint256",
          "name": "_numTokens",
          "type": "uint256"
        }
      ],
      "name": "deposit",
      "outputs": [],
      "stateMutability": "nonpayable",
      "type": "function"
    },
    {
      "inputs": [],
      "name": "getDailyRewardsCount",
      "outputs": [
        {
          "internalType": "uint256",
          "name": "",
          "type": "uint256"
        }
      ],
      "stateMutability": "view",
      "type": "function"
    },
    {
      "inputs": [],
      "name": "getHourlyRewardsCount",
      "outputs": [
        {
          "internalType": "uint256",
          "name": "",
          "type": "uint256"
        }
      ],
      "stateMutability": "view",
      "type": "function"
    },
    {
      "inputs": [
        {
          "internalType": "address",
          "name": "_address",
          "type": "address"
        }
      ],
      "name": "isRewardsWhitelisted",
      "outputs": [
        {
          "internalType": "bool",
          "name": "",
          "type": "bool"
        }
      ],
      "stateMutability": "view",
      "type": "function"
    },
    {
      "inputs": [],
      "name": "owner",
      "outputs": [
        {
          "internalType": "address",
          "name": "",
          "type": "address"
        }
      ],
      "stateMutability": "view",
      "type": "function"
    },
    {
      "inputs": [
        {
          "internalType": "address",
          "name": "_address",
          "type": "address"
        }
      ],
      "name": "removeAddress",
      "outputs": [],
      "stateMutability": "nonpayable",
      "type": "function"
    },
    {
      "inputs": [],
      "name": "renounceOwnership",
      "outputs": [],
      "stateMutability": "nonpayable",
      "type": "function"
    },
    {
      "inputs": [
        {
          "internalType": "address",
          "name": "",
          "type": "address"
        }
      ],
      "name": "rewards",
      "outputs": [
        {
          "internalType": "uint256",
          "name": "",
          "type": "uint256"
        }
      ],
      "stateMutability": "view",
      "type": "function"
    },
    {
      "inputs": [],
      "name": "token",
      "outputs": [
        {
          "internalType": "contract IERC20",
          "name": "",
          "type": "address"
        }
      ],
      "stateMutability": "view",
      "type": "function"
    },
    {
      "inputs": [
        {
          "internalType": "address",
          "name": "newOwner",
          "type": "address"
        }
      ],
      "name": "transferOwnership",
      "outputs": [],
      "stateMutability": "nonpayable",
      "type": "function"
    },
    {
      "inputs": [],
      "name": "updateDailyRewardsCount",
      "outputs": [],
      "stateMutability": "nonpayable",
      "type": "function"
    },
    {
      "inputs": [],
      "name": "updateHourlyRewardsCount",
      "outputs": [],
      "stateMutability": "nonpayable",
      "type": "function"
    }
  ],
  "bytecode": "0x6080604052600060035560006004556843c33c19375648000060535569065a4da25d3016c0000060545534801561003557600080fd5b506040516118dd3803806118dd833981016040819052610054916100d2565b61005d33610082565b600180546001600160a01b0319166001600160a01b0392909216919091179055610102565b600080546001600160a01b038381166001600160a01b0319831681178455604051919092169283917f8be0079c531659141344cd1fd0a4f28419497f9722a3daafe3b4186f6b6457e09190a35050565b6000602082840312156100e457600080fd5b81516001600160a01b03811681146100fb57600080fd5b9392505050565b6117cc806101116000396000f3fe608060405234801561001057600080fd5b50600436106101a95760003560e01c8063a20809e6116100f9578063e0ca509411610097578063f10cc46311610071578063f10cc46314610380578063f2fde38b14610393578063f9526304146103a6578063fc0c546a146103ae57600080fd5b8063e0ca509414610331578063e6c3e97b14610344578063ed3fafec1461035757600080fd5b8063c416b3f7116100d3578063c416b3f7146102ef578063c42fe221146102f7578063c5d4dc2d1461031f578063d42c362a1461032857600080fd5b8063a20809e6146102c1578063af1e1f3f146102d4578063b6b55f25146102dc57600080fd5b80635f28bad511610166578063847227981161014057806384722798146102845780638da5cb5b1461028c57806391b025f8146102b15780639933a2ae146102b957600080fd5b80635f28bad51461022d578063715018a61461025057806371f084db1461025857600080fd5b80630700037d146101ae5780630c0e2d81146101e15780631669cd4a146101ea57806336601f40146101f257806338eada1c146102075780634ba79dfe1461021a575b600080fd5b6101ce6101bc366004611531565b60026020526000908152604090205481565b6040519081526020015b60405180910390f35b6101ce60535481565b6004546101ce565b610205610200366004611555565b6103c1565b005b610205610215366004611531565b6103e2565b610205610228366004611531565b6104e1565b61024061023b366004611596565b6105be565b60405190151581526020016101d8565b6102056106a2565b610240610266366004611531565b6001600160a01b031660009081526055602052604090205460ff1690565b6101ce6106b6565b6000546001600160a01b03165b6040516001600160a01b0390911681526020016101d8565b610205610704565b6101ce610842565b6102056102cf3660046115cf565b61088a565b610205610924565b6102056102ea3660046115cf565b610a19565b610205610b2b565b61030a6103053660046115cf565b610ba5565b604080519283526020830191909152016101d8565b6101ce60545481565b6101ce60035481565b61024061033f3660046115e8565b610bc7565b6102056103523660046115cf565b610ef0565b6101ce610365366004611531565b6001600160a01b031660009081526002602052604090205490565b61030a61038e3660046115cf565b610fba565b6102056103a1366004611531565b610fca565b610205611040565b600154610299906001600160a01b031681565b6103c9611172565b6103dd6001600160a01b03841683836111cc565b505050565b6103ea611172565b6001600160a01b03811660009081526055602052604090205460ff161515600114156104835760405162461bcd60e51b815260206004820152603760248201527f526577617264734d616e616765723a2061646472657373206d757374206e6f7460448201527f2062652077686974656c697374656420616c726561647900000000000000000060648201526084015b60405180910390fd5b6001600160a01b038116600081815260556020908152604091829020805460ff1916600190811790915591519182527faca247a6f5a4ff76768a3d69d18ba197c34106ff9efaa8fd1335d9fb6b5fffb791015b60405180910390a250565b6104e9611172565b6001600160a01b03811660009081526055602052604090205460ff1661056f5760405162461bcd60e51b815260206004820152603560248201527f526577617264734d616e616765723a2061646472657373206d7573742062652060448201527477686974656c697374656420746f2072656d6f766560581b606482015260840161047a565b6001600160a01b0381166000818152605560209081526040808320805460ff19169055519182527fbfd94cc4e61230b7365236ffec9a8be4c83a297f22e63e7c30403894df1329c391016104d6565b3360009081526055602052604081205460ff166105ed5760405162461bcd60e51b815260040161047a9061160d565b6001600160a01b0383166000908152600260205260409020548015610696576001600160a01b0380851660009081526002602052604080822082905591851681529081208054839290610641908490611680565b9091555050604080516001600160a01b038581168252602082018490528616917ffd628bb68668e47fa86783f7ad8093a603609d92d469930b189adc5ac67211aa910160405180910390a2600191505061069c565b60009150505b92915050565b6106aa611172565b6106b4600061122f565b565b600080805b600f8110156106fe57600581600f81106106d7576106d7611698565b6002020160010154826106ea9190611680565b9150806106f6816116ae565b9150506106bb565b50919050565b60006107126001600f6116c9565b90506000600582600f811061072957610729611698565b6002020154905060f06107468267ffffffffffffffff42166116c9565b111561083e5760005b61075b6001600f6116c9565b8110156107c057600561076f826001611680565b600f811061077f5761077f611698565b60020201600582600f811061079657610796611698565b825460029190910291909101908155600191820154910155806107b8816116ae565b91505061074f565b504267ffffffffffffffff16600583600f81106107df576107df611698565b60020201556000600583600f81106107f9576107f9611698565b60020201600101819055507f769615f4b86edb24f742c33f601f569791bfa124c377350e106061f9c40afdab4260405161083591815260200190565b60405180910390a15b5050565b600080805b60188110156106fe576023816018811061086357610863611698565b6002020160010154826108769190611680565b915080610882816116ae565b915050610847565b610892611172565b8060035410156108f35760405162461bcd60e51b815260206004820152602660248201527f4d616e6167657242616c616e63652068617320746f206265203e3d205f6e756d604482015265546f6b656e7360d01b606482015260840161047a565b806003600082825461090591906116c9565b9091555050600154610921906001600160a01b031633836111cc565b50565b3360009081526002602052604090205460035410156109c85760405162461bcd60e51b815260206004820152605460248201527f526577617264734d616e616765723a205769746864726177416c6c526577617260448201527f64732d2072657175697265204d616e6167657242616c616e6365203e3d205f6e606482015273756d546f6b656e7320746f20776974686472617760601b608482015260a40161047a565b3360009081526002602052604081205460038054919283926109eb9084906116c9565b909155505033600081815260026020526040812055600154610921916001600160a01b0390911690836111cc565b6001546040516370a0823160e01b815233600482015282916001600160a01b0316906370a082319060240160206040518083038186803b158015610a5c57600080fd5b505afa158015610a70573d6000803e3d6000fd5b505050506040513d601f19601f82011682018060405250810190610a9491906116e0565b1015610afc5760405162461bcd60e51b815260206004820152603160248201527f526577617264734d616e616765723a2073656e64657220646f65736e2774206860448201527061766520656e6f75676820746f6b656e7360781b606482015260840161047a565b8060036000828254610b0e9190611680565b9091555050600154610921906001600160a01b031633308461127f565b610b33611172565b600060035411610b855760405162461bcd60e51b815260206004820152601c60248201527f4d616e6167657242616c616e63652068617320746f206265203e203000000000604482015260640161047a565b600380546000909155600154610921906001600160a01b031633836111cc565b600581600f8110610bb557600080fd5b60020201805460019091015490915082565b3360009081526055602052604081205460ff16610bf65760405162461bcd60e51b815260040161047a9061160d565b60008311610c555760405162461bcd60e51b815260206004820152602660248201527f7265776172647320746f20616c6c6f63617465206d75737420626520706f73696044820152653a34bb32971760d11b606482015260840161047a565b605454610c60610842565b10610cad5760405162461bcd60e51b815260206004820152601b60248201527f4461696c7920546f74616c205265776172647320657863656564210000000000604482015260640161047a565b605354610cb86106b6565b10610d055760405162461bcd60e51b815260206004820152601c60248201527f486f75726c7920546f74616c2052657761726473206578636565642100000000604482015260640161047a565b8260035410610db1578260036000828254610d2091906116c9565b90915550506001600160a01b03821660009081526002602052604081208054859290610d4d908490611680565b925050819055508260046000828254610d669190611680565b90915550506040518381526001600160a01b038316907f131f84dc6ead1e0c77deeee1b50d040620fde1a8751961a93c9b6aed24aa16a29060200160405180910390a250600161069c565b826005610dc06001600f6116c9565b600f8110610dd057610dd0611698565b600202016001016000828254610de69190611680565b909155508390506023610dfb600160186116c9565b60188110610e0b57610e0b611698565b600202016001016000828254610e219190611680565b90915550610e2f9050610704565b610e37611040565b605454610e42610842565b10610e8f5760405162461bcd60e51b815260206004820152601b60248201527f4461696c7920546f74616c205265776172647320657863656564210000000000604482015260640161047a565b605354610e9a6106b6565b10610ee75760405162461bcd60e51b815260206004820152601c60248201527f486f75726c7920546f74616c2052657761726473206578636565642100000000604482015260640161047a565b50600092915050565b806003541015610f825760405162461bcd60e51b815260206004820152605160248201527f526577617264734d616e616765723a205769746864726177526577617264732d60448201527f2072657175697265204d616e6167657242616c616e6365203e3d205f6e756d546064820152706f6b656e7320746f20776974686472617760781b608482015260a40161047a565b3360009081526002602052604081208054839290610fa19084906116c9565b92505081905550806003600082825461090591906116c9565b60238160188110610bb557600080fd5b610fd2611172565b6001600160a01b0381166110375760405162461bcd60e51b815260206004820152602660248201527f4f776e61626c653a206e6577206f776e657220697320746865207a65726f206160448201526564647265737360d01b606482015260840161047a565b6109218161122f565b600061104e600160186116c9565b905060006023826018811061106557611065611698565b60020201549050610e106110838267ffffffffffffffff42166116c9565b111561083e5760005b611098600160186116c9565b8110156110fd5760236110ac826001611680565b601881106110bc576110bc611698565b60020201602382601881106110d3576110d3611698565b825460029190910291909101908155600191820154910155806110f5816116ae565b91505061108c565b504267ffffffffffffffff166023836018811061111c5761111c611698565b600202015560006023836018811061113657611136611698565b60020201600101819055507fec6819fe55c57fafc2cbba477c1a36afa81ebc86b1c78427df30369a39ab097d4260405161083591815260200190565b6000546001600160a01b031633146106b45760405162461bcd60e51b815260206004820181905260248201527f4f776e61626c653a2063616c6c6572206973206e6f7420746865206f776e6572604482015260640161047a565b6040516001600160a01b0383166024820152604481018290526103dd90849063a9059cbb60e01b906064015b60408051601f198184030181529190526020810180516001600160e01b03166001600160e01b0319909316929092179091526112bd565b600080546001600160a01b038381166001600160a01b0319831681178455604051919092169283917f8be0079c531659141344cd1fd0a4f28419497f9722a3daafe3b4186f6b6457e09190a35050565b6040516001600160a01b03808516602483015283166044820152606481018290526112b79085906323b872dd60e01b906084016111f8565b50505050565b6000611312826040518060400160405280602081526020017f5361666545524332303a206c6f772d6c6576656c2063616c6c206661696c6564815250856001600160a01b031661138f9092919063ffffffff16565b8051909150156103dd578080602001905181019061133091906116f9565b6103dd5760405162461bcd60e51b815260206004820152602a60248201527f5361666545524332303a204552433230206f7065726174696f6e20646964206e6044820152691bdd081cdd58d8d9595960b21b606482015260840161047a565b606061139e84846000856113a6565b949350505050565b6060824710156114075760405162461bcd60e51b815260206004820152602660248201527f416464726573733a20696e73756666696369656e742062616c616e636520666f6044820152651c8818d85b1b60d21b606482015260840161047a565b600080866001600160a01b031685876040516114239190611747565b60006040518083038185875af1925050503d8060008114611460576040519150601f19603f3d011682016040523d82523d6000602084013e611465565b606091505b509150915061147687838387611481565b979650505050505050565b606083156114ed5782516114e6576001600160a01b0385163b6114e65760405162461bcd60e51b815260206004820152601d60248201527f416464726573733a2063616c6c20746f206e6f6e2d636f6e7472616374000000604482015260640161047a565b508161139e565b61139e83838151156115025781518083602001fd5b8060405162461bcd60e51b815260040161047a9190611763565b6001600160a01b038116811461092157600080fd5b60006020828403121561154357600080fd5b813561154e8161151c565b9392505050565b60008060006060848603121561156a57600080fd5b83356115758161151c565b925060208401356115858161151c565b929592945050506040919091013590565b600080604083850312156115a957600080fd5b82356115b48161151c565b915060208301356115c48161151c565b809150509250929050565b6000602082840312156115e157600080fd5b5035919050565b600080604083850312156115fb57600080fd5b8235915060208301356115c48161151c565b60208082526037908201527f526577617264734d616e616765723a2073656e646572206d757374206265207760408201527f686974656c697374656420746f2050726f787920616374000000000000000000606082015260800190565b634e487b7160e01b600052601160045260246000fd5b600082198211156116935761169361166a565b500190565b634e487b7160e01b600052603260045260246000fd5b60006000198214156116c2576116c261166a565b5060010190565b6000828210156116db576116db61166a565b500390565b6000602082840312156116f257600080fd5b5051919050565b60006020828403121561170b57600080fd5b8151801515811461154e57600080fd5b60005b8381101561173657818101518382015260200161171e565b838111156112b75750506000910152565b6000825161175981846020870161171b565b9190910192915050565b602081526000825180602084015261178281604085016020870161171b565b601f01601f1916919091016040019291505056fea2646970667358221220f0f63b733ea9e1507adab8c8a23824776f1a37d1bcb161c4c1713fe9d828f6fc64736f6c63430008080033",
  "linkReferences": {},
  "deployedLinkReferences": {}
}