{
  "_format": "hh-sol-artifact-1",
  "contractName": "RewardsManager",
  "sourceName": "contracts/worksystems/RewardsManager.sol",
  "abi": [
    {
      "inputs": [
        {
          "internalType": "address",
          "name": "EXD_token",
          "type": "address"
        }
      ],
      "stateMutability": "nonpayable",
      "type": "constructor"
    },
    {
      "anonymous": false,
      "inputs": [
        {
          "indexed": true,
          "internalType": "address",
          "name": "previousOwner",
          "type": "address"
        },
        {
          "indexed": true,
          "internalType": "address",
          "name": "newOwner",
          "type": "address"
        }
      ],
      "name": "OwnershipTransferred",
      "type": "event"
    },
    {
      "anonymous": false,
      "inputs": [
        {
          "indexed": true,
          "internalType": "address",
          "name": "account",
          "type": "address"
        },
        {
          "indexed": false,
          "internalType": "bool",
          "name": "isWhitelisted",
          "type": "bool"
        }
      ],
      "name": "RewardsUnWhitelisted",
      "type": "event"
    },
    {
      "anonymous": false,
      "inputs": [
        {
          "indexed": true,
          "internalType": "address",
          "name": "account",
          "type": "address"
        },
        {
          "indexed": false,
          "internalType": "bool",
          "name": "isWhitelisted",
          "type": "bool"
        }
      ],
      "name": "RewardsWhitelisted",
      "type": "event"
    },
    {
      "anonymous": false,
      "inputs": [
        {
          "indexed": false,
          "internalType": "bytes32",
          "name": "name",
          "type": "bytes32"
        },
        {
          "indexed": false,
          "internalType": "uint256",
          "name": "timestamp",
          "type": "uint256"
        }
      ],
      "name": "UserRegistered",
      "type": "event"
    },
    {
      "anonymous": false,
      "inputs": [
        {
          "indexed": false,
          "internalType": "bytes32",
          "name": "name",
          "type": "bytes32"
        }
      ],
      "name": "UserTransferred",
      "type": "event"
    },
    {
      "inputs": [],
      "name": "AddressManager",
      "outputs": [
        {
          "internalType": "contract IAddressManager",
          "name": "",
          "type": "address"
        }
      ],
      "stateMutability": "view",
      "type": "function"
    },
    {
      "inputs": [],
      "name": "GetTotalGivenRewards",
      "outputs": [
        {
          "internalType": "uint256",
          "name": "",
          "type": "uint256"
        }
      ],
      "stateMutability": "view",
      "type": "function"
    },
    {
      "inputs": [],
      "name": "ManagerBalance",
      "outputs": [
        {
          "internalType": "uint256",
          "name": "",
          "type": "uint256"
        }
      ],
      "stateMutability": "view",
      "type": "function"
    },
    {
      "inputs": [
        {
          "internalType": "uint256",
          "name": "rep",
          "type": "uint256"
        },
        {
          "internalType": "address",
          "name": "_user",
          "type": "address"
        }
      ],
      "name": "OwnerAddRewards",
      "outputs": [],
      "stateMutability": "nonpayable",
      "type": "function"
    },
    {
      "inputs": [
        {
          "internalType": "uint256",
          "name": "rep",
          "type": "uint256"
        },
        {
          "internalType": "address",
          "name": "_user",
          "type": "address"
        }
      ],
      "name": "OwnerRemoveRewards",
      "outputs": [],
      "stateMutability": "nonpayable",
      "type": "function"
    },
    {
      "inputs": [
        {
          "internalType": "address",
          "name": "_user",
          "type": "address"
        }
      ],
      "name": "OwnerResetRewards",
      "outputs": [],
      "stateMutability": "nonpayable",
      "type": "function"
    },
    {
      "inputs": [
        {
          "internalType": "uint256",
          "name": "_numTokens",
          "type": "uint256"
        }
      ],
      "name": "OwnerWithdraw",
      "outputs": [],
      "stateMutability": "nonpayable",
      "type": "function"
    },
    {
      "inputs": [],
      "name": "OwnerWithdrawAllRewards",
      "outputs": [],
      "stateMutability": "nonpayable",
      "type": "function"
    },
    {
      "inputs": [
        {
          "internalType": "uint256",
          "name": "_RewardsAllocation",
          "type": "uint256"
        },
        {
          "internalType": "address",
          "name": "_user",
          "type": "address"
        }
      ],
      "name": "ProxyAddReward",
      "outputs": [
        {
          "internalType": "bool",
          "name": "",
          "type": "bool"
        }
      ],
      "stateMutability": "nonpayable",
      "type": "function"
    },
    {
      "inputs": [
        {
          "internalType": "address",
          "name": "_address",
          "type": "address"
        }
      ],
      "name": "RewardsBalanceOf",
      "outputs": [
        {
          "internalType": "uint256",
          "name": "",
          "type": "uint256"
        }
      ],
      "stateMutability": "view",
      "type": "function"
    },
    {
      "inputs": [],
      "name": "WithdrawAllRewards",
      "outputs": [],
      "stateMutability": "nonpayable",
      "type": "function"
    },
    {
      "inputs": [
        {
          "internalType": "uint256",
          "name": "_numTokens",
          "type": "uint256"
        }
      ],
      "name": "WithdrawRewards",
      "outputs": [],
      "stateMutability": "nonpayable",
      "type": "function"
    },
    {
      "inputs": [
        {
          "internalType": "uint256",
          "name": "_numTokens",
          "type": "uint256"
        },
        {
          "internalType": "address",
          "name": "_worker",
          "type": "address"
        }
      ],
      "name": "WithdrawSubworker",
      "outputs": [],
      "stateMutability": "nonpayable",
      "type": "function"
    },
    {
      "inputs": [
        {
          "internalType": "address",
          "name": "_address",
          "type": "address"
        }
      ],
      "name": "addAddress",
      "outputs": [],
      "stateMutability": "nonpayable",
      "type": "function"
    },
    {
      "inputs": [
        {
          "internalType": "uint256",
          "name": "_numTokens",
          "type": "uint256"
        }
      ],
      "name": "deposit",
      "outputs": [],
      "stateMutability": "nonpayable",
      "type": "function"
    },
    {
      "inputs": [
        {
          "internalType": "address",
          "name": "_address",
          "type": "address"
        }
      ],
      "name": "isRewardsWhitelisted",
      "outputs": [
        {
          "internalType": "bool",
          "name": "",
          "type": "bool"
        }
      ],
      "stateMutability": "view",
      "type": "function"
    },
    {
      "inputs": [],
      "name": "owner",
      "outputs": [
        {
          "internalType": "address",
          "name": "",
          "type": "address"
        }
      ],
      "stateMutability": "view",
      "type": "function"
    },
    {
      "inputs": [
        {
          "internalType": "address",
          "name": "_address",
          "type": "address"
        }
      ],
      "name": "removeAddress",
      "outputs": [],
      "stateMutability": "nonpayable",
      "type": "function"
    },
    {
      "inputs": [],
      "name": "renounceOwnership",
      "outputs": [],
      "stateMutability": "nonpayable",
      "type": "function"
    },
    {
      "inputs": [
        {
          "internalType": "address",
          "name": "",
          "type": "address"
        }
      ],
      "name": "rewards",
      "outputs": [
        {
          "internalType": "uint256",
          "name": "",
          "type": "uint256"
        }
      ],
      "stateMutability": "view",
      "type": "function"
    },
    {
      "inputs": [],
      "name": "token",
      "outputs": [
        {
          "internalType": "contract IERC20",
          "name": "",
          "type": "address"
        }
      ],
      "stateMutability": "view",
      "type": "function"
    },
    {
      "inputs": [
        {
          "internalType": "address",
          "name": "newOwner",
          "type": "address"
        }
      ],
      "name": "transferOwnership",
      "outputs": [],
      "stateMutability": "nonpayable",
      "type": "function"
    },
    {
      "inputs": [
        {
          "internalType": "address",
          "name": "addr",
          "type": "address"
        }
      ],
      "name": "updateAddressManager",
      "outputs": [],
      "stateMutability": "nonpayable",
      "type": "function"
    },
    {
      "inputs": [
        {
          "internalType": "address",
          "name": "_worker",
          "type": "address"
        }
      ],
      "name": "withdrawSubworkerAllRewards",
      "outputs": [],
      "stateMutability": "nonpayable",
      "type": "function"
    }
  ],
  "bytecode": "0x60806040526000600455600060055534801561001a57600080fd5b50604051611506380380611506833981016040819052610039916100b7565b61004233610067565b600280546001600160a01b0319166001600160a01b03929092169190911790556100e7565b600080546001600160a01b038381166001600160a01b0319831681178455604051919092169283917f8be0079c531659141344cd1fd0a4f28419497f9722a3daafe3b4186f6b6457e09190a35050565b6000602082840312156100c957600080fd5b81516001600160a01b03811681146100e057600080fd5b9392505050565b611410806100f66000396000f3fe608060405234801561001057600080fd5b50600436106101585760003560e01c8063a20809e6116100c3578063d42c362a1161007c578063d42c362a146102e8578063e0ca5094146102f1578063e6c3e97b14610304578063ed3fafec14610317578063f2fde38b14610340578063fc0c546a1461035357600080fd5b8063a20809e61461028c578063af1e1f3f1461029f578063b6b55f25146102a7578063c416b3f7146102ba578063c47c4bc2146102c2578063ce73f107146102d557600080fd5b806363ba80ad1161011557806363ba80ad146101e657806366d2a1a0146101f9578063715018a61461020c57806371f084db146102145780637a34da67146102505780638da5cb5b1461027b57600080fd5b806302d648f41461015d5780630700037d146101725780631669cd4a146101a557806338eada1c146101ad57806340e76636146101c05780634ba79dfe146101d3575b600080fd5b61017061016b3660046112c5565b610366565b005b6101926101803660046112c5565b60036020526000908152604090205481565b6040519081526020015b60405180910390f35b600554610192565b6101706101bb3660046112c5565b6104da565b6101706101ce3660046112e0565b6105ff565b6101706101e13660046112c5565b610715565b6101706101f43660046112e0565b610814565b6101706102073660046112c5565b61087e565b6101706108c2565b6102406102223660046112c5565b6001600160a01b031660009081526006602052604090205460ff1690565b604051901515815260200161019c565b600154610263906001600160a01b031681565b6040516001600160a01b03909116815260200161019c565b6000546001600160a01b0316610263565b61017061029a36600461130c565b6108f8565b6101706109d9565b6101706102b536600461130c565b610b8b565b610170610d7a565b6101706102d03660046112c5565b610e02565b6101706102e33660046112e0565b610e4e565b61019260045481565b6102406102ff3660046112e0565b610e9b565b61017061031236600461130c565b610ff6565b6101926103253660046112c5565b6001600160a01b031660009081526003602052604090205490565b61017061034e3660046112c5565b6111a2565b600254610263906001600160a01b031681565b6001546001600160a01b031661037b57600080fd5b6001600160a01b03811660009081526003602052604090205460045410156103a257600080fd5b60015460405163166eeeb960e31b81523360048201526001600160a01b0383811660248301529091169063b37775c890604401602060405180830381600087803b1580156103ef57600080fd5b505af1158015610403573d6000803e3d6000fd5b505050506040513d601f19601f820116820180604052508101906104279190611325565b61043057600080fd5b336000818152600360205260408082208054929055600254905163a9059cbb60e01b815260048101939093526024830182905290916001600160a01b039091169063a9059cbb906044015b602060405180830381600087803b15801561049557600080fd5b505af11580156104a9573d6000803e3d6000fd5b505050506040513d601f19601f820116820180604052508101906104cd9190611325565b6104d657600080fd5b5050565b6000546001600160a01b0316331461050d5760405162461bcd60e51b815260040161050490611347565b60405180910390fd5b6001600160a01b03811660009081526006602052604090205460ff161515600114156105a15760405162461bcd60e51b815260206004820152603760248201527f526577617264734d616e616765723a2061646472657373206d757374206e6f7460448201527f2062652077686974656c697374656420616c72656164790000000000000000006064820152608401610504565b6001600160a01b038116600081815260066020908152604091829020805460ff1916600190811790915591519182527faca247a6f5a4ff76768a3d69d18ba197c34106ff9efaa8fd1335d9fb6b5fffb791015b60405180910390a250565b6001546001600160a01b031661061457600080fd5b81600454101561062357600080fd5b60015460405163166eeeb960e31b81523360048201526001600160a01b0383811660248301529091169063b37775c890604401602060405180830381600087803b15801561067057600080fd5b505af1158015610684573d6000803e3d6000fd5b505050506040513d601f19601f820116820180604052508101906106a89190611325565b6106b157600080fd5b6001600160a01b038116600090815260036020526040812080548492906106d9908490611392565b909155505060025460405163a9059cbb60e01b8152336004820152602481018490526001600160a01b039091169063a9059cbb9060440161047b565b6000546001600160a01b0316331461073f5760405162461bcd60e51b815260040161050490611347565b6001600160a01b03811660009081526006602052604090205460ff166107c55760405162461bcd60e51b815260206004820152603560248201527f526577617264734d616e616765723a2061646472657373206d7573742062652060448201527477686974656c697374656420746f2072656d6f766560581b6064820152608401610504565b6001600160a01b0381166000818152600660209081526040808320805460ff19169055519182527fbfd94cc4e61230b7365236ffec9a8be4c83a297f22e63e7c30403894df1329c391016105f4565b6000546001600160a01b0316331461083e5760405162461bcd60e51b815260040161050490611347565b6001600160a01b038116600090815260036020526040902054610861908361123a565b6001600160a01b0390911660009081526003602052604090205550565b6000546001600160a01b031633146108a85760405162461bcd60e51b815260040161050490611347565b6001600160a01b0316600090815260036020526040812055565b6000546001600160a01b031633146108ec5760405162461bcd60e51b815260040161050490611347565b6108f6600061124d565b565b6000546001600160a01b031633146109225760405162461bcd60e51b815260040161050490611347565b80600454101561093157600080fd5b80600460008282546109439190611392565b909155505060025460405163a9059cbb60e01b8152336004820152602481018390526001600160a01b039091169063a9059cbb906044015b602060405180830381600087803b15801561099557600080fd5b505af11580156109a9573d6000803e3d6000fd5b505050506040513d601f19601f820116820180604052508101906109cd9190611325565b6109d657600080fd5b50565b336000908152600360205260409020546004541015610a7d5760405162461bcd60e51b815260206004820152605460248201527f526577617264734d616e616765723a205769746864726177416c6c526577617260448201527f64732d2072657175697265204d616e6167657242616c616e6365203e3d205f6e606482015273756d546f6b656e7320746f20776974686472617760601b608482015260a401610504565b336000818152600360205260408082208054929055600254905163a9059cbb60e01b815260048101939093526024830182905290916001600160a01b039091169063a9059cbb90604401602060405180830381600087803b158015610ae157600080fd5b505af1158015610af5573d6000803e3d6000fd5b505050506040513d601f19601f82011682018060405250810190610b199190611325565b6109d65760405162461bcd60e51b815260206004820152603c60248201527f526577617264734d616e616765723a205769746864726177416c6c526577617260448201527f64732d206572726f72207472616e73666572696e6720746f6b656e73000000006064820152608401610504565b6002546040516370a0823160e01b815233600482015282916001600160a01b0316906370a082319060240160206040518083038186803b158015610bce57600080fd5b505afa158015610be2573d6000803e3d6000fd5b505050506040513d601f19601f82011682018060405250810190610c0691906113a9565b1015610c6e5760405162461bcd60e51b815260206004820152603160248201527f526577617264734d616e616765723a2073656e64657220646f65736e2774206860448201527061766520656e6f75676820746f6b656e7360781b6064820152608401610504565b8060046000828254610c8091906113c2565b90915550506002546040516323b872dd60e01b8152336004820152306024820152604481018390526001600160a01b03909116906323b872dd90606401602060405180830381600087803b158015610cd757600080fd5b505af1158015610ceb573d6000803e3d6000fd5b505050506040513d601f19601f82011682018060405250810190610d0f9190611325565b6109d65760405162461bcd60e51b815260206004820152603660248201527f526577617264734d616e616765723a206572726f72207768656e206465706f736044820152756974696e6720766961205472616e7366657246726f6d60501b6064820152608401610504565b6000546001600160a01b03163314610da45760405162461bcd60e51b815260040161050490611347565b600060045411610db357600080fd5b336000818152600360205260408082208054929055600254905163a9059cbb60e01b815260048101939093526024830182905290916001600160a01b039091169063a9059cbb9060440161097b565b6000546001600160a01b03163314610e2c5760405162461bcd60e51b815260040161050490611347565b600180546001600160a01b0319166001600160a01b0392909216919091179055565b6000546001600160a01b03163314610e785760405162461bcd60e51b815260040161050490611347565b6001600160a01b038116600090815260036020526040902054610861908361129d565b3360009081526006602052604081205460ff16610f205760405162461bcd60e51b815260206004820152603760248201527f526577617264734d616e616765723a2073656e646572206d757374206265207760448201527f686974656c697374656420746f2050726f7879206163740000000000000000006064820152608401610504565b60008311610f7f5760405162461bcd60e51b815260206004820152602660248201527f7265776172647320746f20616c6c6f63617465206d75737420626520706f73696044820152653a34bb32971760d11b6064820152608401610504565b8260045410610fec57600454610f95908461123a565b6004556001600160a01b038216600090815260036020526040902054610fbb908461129d565b6001600160a01b038316600090815260036020526040902055600554610fe1908461129d565b600555506001610ff0565b5060005b92915050565b8060045410156110885760405162461bcd60e51b815260206004820152605160248201527f526577617264734d616e616765723a205769746864726177526577617264732d60448201527f2072657175697265204d616e6167657242616c616e6365203e3d205f6e756d546064820152706f6b656e7320746f20776974686472617760781b608482015260a401610504565b33600090815260036020526040812080548392906110a7908490611392565b909155505060025460405163a9059cbb60e01b8152336004820152602481018390526001600160a01b039091169063a9059cbb90604401602060405180830381600087803b1580156110f857600080fd5b505af115801561110c573d6000803e3d6000fd5b505050506040513d601f19601f820116820180604052508101906111309190611325565b6109d65760405162461bcd60e51b815260206004820152603960248201527f526577617264734d616e616765723a205769746864726177526577617264732d60448201527f206572726f72207472616e73666572696e6720746f6b656e73000000000000006064820152608401610504565b6000546001600160a01b031633146111cc5760405162461bcd60e51b815260040161050490611347565b6001600160a01b0381166112315760405162461bcd60e51b815260206004820152602660248201527f4f776e61626c653a206e6577206f776e657220697320746865207a65726f206160448201526564647265737360d01b6064820152608401610504565b6109d68161124d565b60006112468284611392565b9392505050565b600080546001600160a01b038381166001600160a01b0319831681178455604051919092169283917f8be0079c531659141344cd1fd0a4f28419497f9722a3daafe3b4186f6b6457e09190a35050565b600061124682846113c2565b80356001600160a01b03811681146112c057600080fd5b919050565b6000602082840312156112d757600080fd5b611246826112a9565b600080604083850312156112f357600080fd5b82359150611303602084016112a9565b90509250929050565b60006020828403121561131e57600080fd5b5035919050565b60006020828403121561133757600080fd5b8151801515811461124657600080fd5b6020808252818101527f4f776e61626c653a2063616c6c6572206973206e6f7420746865206f776e6572604082015260600190565b634e487b7160e01b600052601160045260246000fd5b6000828210156113a4576113a461137c565b500390565b6000602082840312156113bb57600080fd5b5051919050565b600082198211156113d5576113d561137c565b50019056fea26469706673582212201b4182271c7517aa22ec9c2e0a4e3fe74f6c577dd7f5136fde43f7f93dcca97f64736f6c63430008080033",
  "linkReferences": {},
  "deployedLinkReferences": {}
}