{
  "_format": "hh-sol-artifact-1",
  "contractName": "DataArchive",
  "sourceName": "contracts/worksystems/DataArchive.sol",
  "abi": [
    {
      "inputs": [
        {
          "internalType": "address",
          "name": "EXDT_token",
          "type": "address"
        },
        {
          "internalType": "address",
          "name": "_FormattingSystem",
          "type": "address"
        }
      ],
      "stateMutability": "nonpayable",
      "type": "constructor"
    },
    {
      "anonymous": false,
      "inputs": [
        {
          "indexed": false,
          "internalType": "bytes",
          "name": "bytesFailure",
          "type": "bytes"
        }
      ],
      "name": "BytesFailure",
      "type": "event"
    },
    {
      "anonymous": false,
      "inputs": [
        {
          "indexed": true,
          "internalType": "address",
          "name": "previousOwner",
          "type": "address"
        },
        {
          "indexed": true,
          "internalType": "address",
          "name": "newOwner",
          "type": "address"
        }
      ],
      "name": "OwnershipTransferred",
      "type": "event"
    },
    {
      "anonymous": false,
      "inputs": [
        {
          "indexed": true,
          "internalType": "uint256",
          "name": "DataID",
          "type": "uint256"
        },
        {
          "indexed": false,
          "internalType": "string",
          "name": "file_hash",
          "type": "string"
        },
        {
          "indexed": false,
          "internalType": "address",
          "name": "sender",
          "type": "address"
        }
      ],
      "name": "_DataArchive",
      "type": "event"
    },
    {
      "anonymous": false,
      "inputs": [
        {
          "indexed": true,
          "internalType": "uint256",
          "name": "epochNumber",
          "type": "uint256"
        }
      ],
      "name": "_NewEpoch",
      "type": "event"
    },
    {
      "anonymous": false,
      "inputs": [
        {
          "indexed": true,
          "internalType": "uint256",
          "name": "DataID",
          "type": "uint256"
        },
        {
          "indexed": true,
          "internalType": "address",
          "name": "voter",
          "type": "address"
        }
      ],
      "name": "_TokensRescued",
      "type": "event"
    },
    {
      "anonymous": false,
      "inputs": [
        {
          "indexed": false,
          "internalType": "uint256",
          "name": "numTokens",
          "type": "uint256"
        },
        {
          "indexed": true,
          "internalType": "address",
          "name": "voter",
          "type": "address"
        }
      ],
      "name": "_VotingRightsGranted",
      "type": "event"
    },
    {
      "anonymous": false,
      "inputs": [
        {
          "indexed": false,
          "internalType": "uint256",
          "name": "numTokens",
          "type": "uint256"
        },
        {
          "indexed": true,
          "internalType": "address",
          "name": "voter",
          "type": "address"
        }
      ],
      "name": "_VotingRightsWithdrawn",
      "type": "event"
    },
    {
      "anonymous": false,
      "inputs": [
        {
          "indexed": true,
          "internalType": "uint256",
          "name": "batchID",
          "type": "uint256"
        },
        {
          "indexed": false,
          "internalType": "address",
          "name": "worker",
          "type": "address"
        }
      ],
      "name": "_WorkAllocated",
      "type": "event"
    },
    {
      "anonymous": false,
      "inputs": [
        {
          "indexed": true,
          "internalType": "address",
          "name": "worker",
          "type": "address"
        },
        {
          "indexed": false,
          "internalType": "uint256",
          "name": "timestamp",
          "type": "uint256"
        }
      ],
      "name": "_WorkerRegistered",
      "type": "event"
    },
    {
      "anonymous": false,
      "inputs": [
        {
          "indexed": true,
          "internalType": "address",
          "name": "worker",
          "type": "address"
        },
        {
          "indexed": false,
          "internalType": "uint256",
          "name": "timestamp",
          "type": "uint256"
        }
      ],
      "name": "_WorkerUnregistered",
      "type": "event"
    },
    {
      "inputs": [],
      "name": "AddressManager",
      "outputs": [
        {
          "internalType": "contract IAddressManager",
          "name": "",
          "type": "address"
        }
      ],
      "stateMutability": "view",
      "type": "function"
    },
    {
      "inputs": [],
      "name": "AllTxsCounter",
      "outputs": [
        {
          "internalType": "uint256",
          "name": "",
          "type": "uint256"
        }
      ],
      "stateMutability": "view",
      "type": "function"
    },
    {
      "inputs": [],
      "name": "AllocatedBatchCursor",
      "outputs": [
        {
          "internalType": "uint256",
          "name": "",
          "type": "uint256"
        }
      ],
      "stateMutability": "view",
      "type": "function"
    },
    {
      "inputs": [
        {
          "internalType": "uint256",
          "name": "",
          "type": "uint256"
        }
      ],
      "name": "ArchiveMapping",
      "outputs": [
        {
          "internalType": "string",
          "name": "ipfs_hash",
          "type": "string"
        },
        {
          "internalType": "address",
          "name": "author",
          "type": "address"
        },
        {
          "internalType": "uint256",
          "name": "timestamp",
          "type": "uint256"
        },
        {
          "internalType": "enum DataArchive.DataStatus",
          "name": "status",
          "type": "uint8"
        }
      ],
      "stateMutability": "view",
      "type": "function"
    },
    {
      "inputs": [
        {
          "internalType": "string",
          "name": "_a",
          "type": "string"
        },
        {
          "internalType": "string",
          "name": "_b",
          "type": "string"
        }
      ],
      "name": "AreStringsEqual",
      "outputs": [
        {
          "internalType": "bool",
          "name": "",
          "type": "bool"
        }
      ],
      "stateMutability": "pure",
      "type": "function"
    },
    {
      "inputs": [],
      "name": "BatchCheckingCursor",
      "outputs": [
        {
          "internalType": "uint256",
          "name": "",
          "type": "uint256"
        }
      ],
      "stateMutability": "view",
      "type": "function"
    },
    {
      "inputs": [
        {
          "internalType": "uint256",
          "name": "",
          "type": "uint256"
        }
      ],
      "name": "CollectedFormatBatchs",
      "outputs": [
        {
          "internalType": "bool",
          "name": "",
          "type": "bool"
        }
      ],
      "stateMutability": "view",
      "type": "function"
    },
    {
      "inputs": [
        {
          "internalType": "uint256",
          "name": "_DataId",
          "type": "uint256"
        }
      ],
      "name": "DataExists",
      "outputs": [
        {
          "internalType": "bool",
          "name": "exists",
          "type": "bool"
        }
      ],
      "stateMutability": "view",
      "type": "function"
    },
    {
      "inputs": [],
      "name": "DataNonce",
      "outputs": [
        {
          "internalType": "uint256",
          "name": "",
          "type": "uint256"
        }
      ],
      "stateMutability": "view",
      "type": "function"
    },
    {
      "inputs": [
        {
          "internalType": "address",
          "name": "",
          "type": "address"
        }
      ],
      "name": "FormatStakedTokenBalance",
      "outputs": [
        {
          "internalType": "uint256",
          "name": "",
          "type": "uint256"
        }
      ],
      "stateMutability": "view",
      "type": "function"
    },
    {
      "inputs": [],
      "name": "FormattingSystem",
      "outputs": [
        {
          "internalType": "contract IFormattingSystem",
          "name": "",
          "type": "address"
        }
      ],
      "stateMutability": "view",
      "type": "function"
    },
    {
      "inputs": [],
      "name": "LastBatchCounter",
      "outputs": [
        {
          "internalType": "uint256",
          "name": "",
          "type": "uint256"
        }
      ],
      "stateMutability": "view",
      "type": "function"
    },
    {
      "inputs": [
        {
          "internalType": "address",
          "name": "",
          "type": "address"
        },
        {
          "internalType": "uint256",
          "name": "",
          "type": "uint256"
        }
      ],
      "name": "MasterWorkers",
      "outputs": [
        {
          "internalType": "address",
          "name": "",
          "type": "address"
        }
      ],
      "stateMutability": "view",
      "type": "function"
    },
    {
      "inputs": [
        {
          "internalType": "uint256",
          "name": "CheckedBatchId",
          "type": "uint256"
        }
      ],
      "name": "Ping",
      "outputs": [
        {
          "internalType": "bool",
          "name": "",
          "type": "bool"
        }
      ],
      "stateMutability": "nonpayable",
      "type": "function"
    },
    {
      "inputs": [],
      "name": "RepManager",
      "outputs": [
        {
          "internalType": "contract IRepManager",
          "name": "",
          "type": "address"
        }
      ],
      "stateMutability": "view",
      "type": "function"
    },
    {
      "inputs": [],
      "name": "RewardManager",
      "outputs": [
        {
          "internalType": "contract IRewardManager",
          "name": "",
          "type": "address"
        }
      ],
      "stateMutability": "view",
      "type": "function"
    },
    {
      "inputs": [],
      "name": "StakeManager",
      "outputs": [
        {
          "internalType": "contract IStakeManager",
          "name": "",
          "type": "address"
        }
      ],
      "stateMutability": "view",
      "type": "function"
    },
    {
      "inputs": [
        {
          "internalType": "uint256",
          "name": "",
          "type": "uint256"
        },
        {
          "internalType": "uint256",
          "name": "",
          "type": "uint256"
        }
      ],
      "name": "WorkersPerBatch",
      "outputs": [
        {
          "internalType": "address",
          "name": "",
          "type": "address"
        }
      ],
      "stateMutability": "view",
      "type": "function"
    },
    {
      "inputs": [
        {
          "internalType": "address",
          "name": "_user",
          "type": "address"
        },
        {
          "internalType": "uint256",
          "name": "_DataBatchId",
          "type": "uint256"
        }
      ],
      "name": "attrUUID",
      "outputs": [
        {
          "internalType": "bytes32",
          "name": "UUID",
          "type": "bytes32"
        }
      ],
      "stateMutability": "pure",
      "type": "function"
    },
    {
      "inputs": [
        {
          "internalType": "uint256",
          "name": "",
          "type": "uint256"
        }
      ],
      "name": "availableWorkers",
      "outputs": [
        {
          "internalType": "address",
          "name": "",
          "type": "address"
        }
      ],
      "stateMutability": "view",
      "type": "function"
    },
    {
      "inputs": [
        {
          "internalType": "uint256",
          "name": "",
          "type": "uint256"
        }
      ],
      "name": "busyWorkers",
      "outputs": [
        {
          "internalType": "address",
          "name": "",
          "type": "address"
        }
      ],
      "stateMutability": "view",
      "type": "function"
    },
    {
      "inputs": [
        {
          "internalType": "uint256",
          "name": "_DataId",
          "type": "uint256"
        }
      ],
      "name": "deleteData",
      "outputs": [],
      "stateMutability": "nonpayable",
      "type": "function"
    },
    {
      "inputs": [
        {
          "internalType": "uint256",
          "name": "_CheckedBatchId",
          "type": "uint256"
        }
      ],
      "name": "deleteMapping",
      "outputs": [],
      "stateMutability": "nonpayable",
      "type": "function"
    },
    {
      "inputs": [
        {
          "internalType": "uint256",
          "name": "_k",
          "type": "uint256"
        },
        {
          "internalType": "uint256",
          "name": "N_range",
          "type": "uint256"
        }
      ],
      "name": "generateIntegers",
      "outputs": [
        {
          "internalType": "uint256[]",
          "name": "",
          "type": "uint256[]"
        }
      ],
      "stateMutability": "view",
      "type": "function"
    },
    {
      "inputs": [],
      "name": "getBlockTimestamp",
      "outputs": [
        {
          "internalType": "uint256",
          "name": "blocktimestamp",
          "type": "uint256"
        }
      ],
      "stateMutability": "view",
      "type": "function"
    },
    {
      "inputs": [
        {
          "internalType": "uint256",
          "name": "_DataID",
          "type": "uint256"
        }
      ],
      "name": "getDataById",
      "outputs": [
        {
          "components": [
            {
              "internalType": "string",
              "name": "ipfs_hash",
              "type": "string"
            },
            {
              "internalType": "address",
              "name": "author",
              "type": "address"
            },
            {
              "internalType": "uint256",
              "name": "timestamp",
              "type": "uint256"
            },
            {
              "internalType": "enum DataArchive.DataStatus",
              "name": "status",
              "type": "uint8"
            }
          ],
          "internalType": "struct DataArchive.ArchiveData",
          "name": "data",
          "type": "tuple"
        }
      ],
      "stateMutability": "view",
      "type": "function"
    },
    {
      "inputs": [
        {
          "internalType": "uint256",
          "name": "_DataID",
          "type": "uint256"
        }
      ],
      "name": "getFileById",
      "outputs": [
        {
          "internalType": "string",
          "name": "ipfs_hash",
          "type": "string"
        }
      ],
      "stateMutability": "view",
      "type": "function"
    },
    {
      "inputs": [],
      "name": "getLastDataId",
      "outputs": [
        {
          "internalType": "uint256",
          "name": "DataId",
          "type": "uint256"
        }
      ],
      "stateMutability": "view",
      "type": "function"
    },
    {
      "inputs": [],
      "name": "getRandom",
      "outputs": [
        {
          "internalType": "uint256",
          "name": "",
          "type": "uint256"
        }
      ],
      "stateMutability": "view",
      "type": "function"
    },
    {
      "inputs": [],
      "name": "getSeed",
      "outputs": [
        {
          "internalType": "bytes32",
          "name": "addr",
          "type": "bytes32"
        }
      ],
      "stateMutability": "view",
      "type": "function"
    },
    {
      "inputs": [],
      "name": "getTxCounter",
      "outputs": [
        {
          "internalType": "uint256",
          "name": "Counter",
          "type": "uint256"
        }
      ],
      "stateMutability": "view",
      "type": "function"
    },
    {
      "inputs": [],
      "name": "owner",
      "outputs": [
        {
          "internalType": "address",
          "name": "",
          "type": "address"
        }
      ],
      "stateMutability": "view",
      "type": "function"
    },
    {
      "inputs": [
        {
          "internalType": "uint256",
          "name": "k",
          "type": "uint256"
        },
        {
          "internalType": "uint256",
          "name": "N",
          "type": "uint256"
        }
      ],
      "name": "random_selection",
      "outputs": [
        {
          "internalType": "uint256[]",
          "name": "",
          "type": "uint256[]"
        }
      ],
      "stateMutability": "view",
      "type": "function"
    },
    {
      "inputs": [],
      "name": "renounceOwnership",
      "outputs": [],
      "stateMutability": "nonpayable",
      "type": "function"
    },
    {
      "inputs": [],
      "name": "sFuel",
      "outputs": [
        {
          "internalType": "address",
          "name": "",
          "type": "address"
        }
      ],
      "stateMutability": "view",
      "type": "function"
    },
    {
      "inputs": [
        {
          "internalType": "uint256",
          "name": "N",
          "type": "uint256"
        }
      ],
      "name": "shuffle_array",
      "outputs": [
        {
          "internalType": "uint256[]",
          "name": "",
          "type": "uint256[]"
        }
      ],
      "stateMutability": "view",
      "type": "function"
    },
    {
      "inputs": [],
      "name": "token",
      "outputs": [
        {
          "internalType": "contract IERC20",
          "name": "",
          "type": "address"
        }
      ],
      "stateMutability": "view",
      "type": "function"
    },
    {
      "inputs": [
        {
          "internalType": "address",
          "name": "newOwner",
          "type": "address"
        }
      ],
      "name": "transferOwnership",
      "outputs": [],
      "stateMutability": "nonpayable",
      "type": "function"
    },
    {
      "inputs": [
        {
          "internalType": "address",
          "name": "addr",
          "type": "address"
        }
      ],
      "name": "updateAddressManager",
      "outputs": [],
      "stateMutability": "nonpayable",
      "type": "function"
    },
    {
      "inputs": [
        {
          "internalType": "address",
          "name": "addr",
          "type": "address"
        }
      ],
      "name": "updatePreviousSystem",
      "outputs": [],
      "stateMutability": "nonpayable",
      "type": "function"
    },
    {
      "inputs": [
        {
          "internalType": "address",
          "name": "addr",
          "type": "address"
        }
      ],
      "name": "updateRepManager",
      "outputs": [],
      "stateMutability": "nonpayable",
      "type": "function"
    },
    {
      "inputs": [
        {
          "internalType": "address",
          "name": "addr",
          "type": "address"
        }
      ],
      "name": "updateRewardManager",
      "outputs": [],
      "stateMutability": "nonpayable",
      "type": "function"
    },
    {
      "inputs": [
        {
          "internalType": "address",
          "name": "addr",
          "type": "address"
        }
      ],
      "name": "updateStakeManager",
      "outputs": [],
      "stateMutability": "nonpayable",
      "type": "function"
    }
  ],
  "bytecode": "0x608060405260006002819055600980546001600160a01b0319167314f52f3fc010ab6ca81568d4a6794d5eab3c61551790556001600a819055600b819055600c55600d553480156200005057600080fd5b506040516200221b3803806200221b83398101604081905262000073916200012f565b6200008762000081620000be565b620000c2565b600e80546001600160a01b039384166001600160a01b03199182161790915560138054929093169116179055600060025562000166565b3390565b600080546001600160a01b038381166001600160a01b0319831681178455604051919092169283917f8be0079c531659141344cd1fd0a4f28419497f9722a3daafe3b4186f6b6457e09190a35050565b80516001600160a01b03811681146200012a57600080fd5b919050565b6000806040838503121562000142578182fd5b6200014d8362000112565b91506200015d6020840162000112565b90509250929050565b6120a580620001766000396000f3fe608060405234801561001057600080fd5b50600436106102695760003560e01c8063a16a11e011610151578063dd618682116100c3578063f2722a9f11610087578063f2722a9f146104d9578063f2d9e74d146104f9578063f2fde38b14610501578063f5ae7c7d14610514578063f721de4a1461051c578063fc0c546a1461052f57610269565b8063dd61868214610478578063df05368e1461048b578063e44c974b1461049e578063e4e6025e146104b1578063ef4fcdad146104d157610269565b8063b1d7ea9811610115578063b1d7ea9814610404578063b8f011b314610424578063c47c4bc214610437578063ced5ca6f1461044a578063d6b0206c1461045d578063d822ce011461046557610269565b8063a16a11e0146103c6578063a511dba0146103d9578063a9057790146103e1578063aacc5a17146103f4578063ab43e78d146103fc57610269565b8063715018a6116101ea5780638473850b116101ae5780638473850b146103655780638cbdab3c1461036d5780638d289f8f146103905780638da5cb5b146103985780638df0296e146103a0578063a1103f37146103b357610269565b8063715018a614610332578063796b89b91461033a5780637a34da6714610342578063821aa8c01461034a57806383cc6ef21461035d57610269565b8063353f44d011610231578063353f44d0146102e957806339e7357c146102fc57806348257dc9146103045780634fe8b4c11461031757806351912f291461032a57610269565b8063050eb2eb1461026e5780630e6661a714610283578063171ee06a146102a157806329a47bc7146102c15780633538af82146102d6575b600080fd5b61028161027c3660046119ce565b610537565b005b61028b6105a1565b6040516102989190611cae565b60405180910390f35b6102b46102af366004611be8565b6105a7565b6040516102989190611d39565b6102c96105bc565b6040516102989190611ce1565b6102c96102e4366004611be8565b6105cb565b61028b6102f73660046119ce565b6105f5565b61028b610607565b6102b4610312366004611be8565b610624565b610281610325366004611be8565b6108e1565b6102c9610961565b610281610970565b61028b6109bb565b6102c96109bf565b6102c9610358366004611be8565b6109ce565b6102c96109de565b61028b6109ed565b61038061037b366004611be8565b6109f3565b6040516102989493929190611d81565b6102c9610ab2565b6102c9610ac1565b6102c96103ae366004611c00565b610ad0565b61028b6103c13660046119ef565b610b08565b6102816103d43660046119ce565b610b3c565b61028b610b9d565b6102b46103ef366004611a32565b610ba3565b61028b610c09565b6102c9610cbe565b610417610412366004611c00565b610ccd565b6040516102989190611cf5565b610417610432366004611c00565b610ed5565b6102816104453660046119ce565b61103f565b610281610458366004611be8565b6110a0565b61028b611110565b6102c96104733660046119ef565b611116565b6102816104863660046119ce565b611132565b6102816104993660046119ce565b611193565b6104176104ac366004611be8565b6111f4565b6104c46104bf366004611be8565b61126e565b6040516102989190611d44565b61028b61131d565b6104ec6104e7366004611be8565b611323565b6040516102989190611e86565b61028b611455565b61028161050f3660046119ce565b61145b565b61028b6114c9565b6102b461052a366004611be8565b6114cf565b6102c96114d7565b61053f6114e6565b6001600160a01b0316610550610ac1565b6001600160a01b03161461057f5760405162461bcd60e51b815260040161057690611e51565b60405180910390fd5b601180546001600160a01b0319166001600160a01b0392909216919091179055565b60025481565b60016020526000908152604090205460ff1681565b6010546001600160a01b031681565b600681815481106105db57600080fd5b6000918252602090912001546001600160a01b0316905081565b60046020526000908152604090205481565b60405160009080602081848060185afa61061d57fe5b5051919050565b6013546000906001600160a01b031615801590610650575060008281526001602052604090205460ff16155b156108bf57601354604051637b90ef2560e11b81526001600160a01b039091169063f721de4a90610685908590600401611cae565b602060405180830381600087803b15801561069f57600080fd5b505af11580156106b3573d6000803e3d6000fd5b505050506040513d601f19601f820116820180604052508101906106d79190611a18565b156108bf57601354604051631b308bf760e31b81526000916001600160a01b03169063d9845fb89061070d908690600401611cae565b600060405180830381600087803b15801561072757600080fd5b505af115801561073b573d6000803e3d6000fd5b505050506040513d6000823e601f3d908101601f191682016040526107639190810190611a93565b610180810151909150600181600381111561078e57634e487b7160e01b600052602160045260246000fd5b14156108a0576040805160808101825261016084015181523360208083019190915242828401526000606083018190526002548152600382529290922081518051929391926107e09284920190611724565b506020820151600182810180546001600160a01b0319166001600160a01b0390931692909217909155604083015160028301556060830151600380840180549293909260ff191691849081111561084757634e487b7160e01b600052602160045260246000fd5b02179055505060025461085c91506001611f50565b60028190556101608301516040517f43ecb46cb5c77906888a0ab6a09798cb7feff11e826edd3ba74fada241e3a64691610897913390611d57565b60405180910390a25b50506000828152600160208190526040909120805460ff191690911790555b6001600d60008282546108d29190611f50565b9091555060009150505b919050565b6108e96114e6565b6001600160a01b03166108fa610ac1565b6001600160a01b0316146109205760405162461bcd60e51b815260040161057690611e51565b60008181526003602052604081209061093982826117a8565b506001810180546001600160a01b031916905560006002820155600301805460ff1916905550565b6011546001600160a01b031681565b6109786114e6565b6001600160a01b0316610989610ac1565b6001600160a01b0316146109af5760405162461bcd60e51b815260040161057690611e51565b6109b960006114ea565b565b4290565b6012546001600160a01b031681565b600781815481106105db57600080fd5b600f546001600160a01b031681565b600a5481565b600360205260009081526040902080548190610a0e90611fc3565b80601f0160208091040260200160405190810160405280929190818152602001828054610a3a90611fc3565b8015610a875780601f10610a5c57610100808354040283529160200191610a87565b820191906000526020600020905b815481529060010190602001808311610a6a57829003601f168201915b505050506001830154600284015460039094015492936001600160a01b039091169290915060ff1684565b6013546001600160a01b031681565b6000546001600160a01b031690565b60086020528160005260406000208181548110610aec57600080fd5b6000918252602090912001546001600160a01b03169150829050565b60008282604051602001610b1d929190611c8c565b6040516020818303038152906040528051906020012090505b92915050565b610b446114e6565b6001600160a01b0316610b55610ac1565b6001600160a01b031614610b7b5760405162461bcd60e51b815260040161057690611e51565b601380546001600160a01b0319166001600160a01b0392909216919091179055565b60025490565b600081604051602001610bb69190611cb7565b6040516020818303038152906040528051906020012083604051602001610bdd9190611cb7565b604051602081830303815290604052805190602001201415610c0157506001610b36565b506000610b36565b6000804241604051602001610c1e9190611c6f565b6040516020818303038152906040528051906020012060001c610c419190611f68565b44610c4a610607565b604051602001610c5a9190611cae565b60408051601f198184030181529190528051602090910120610c7c9042611f50565b610c869190611f50565b610c909190611f50565b604051602001610ca09190611cae565b60408051601f19818403018152919052805160209091012091505090565b6009546001600160a01b031681565b606060008211610cdc57600080fd5b600041604051602001610cef9190611c6f565b6040516020818303038152906040528051906020012060001c610d10610607565b604051602001610d209190611cae565b60408051601f198184030181529190528051602090910120610d429042611f50565b610d4c9190611f50565b604051602001610d5c9190611cae565b6040516020818303038152906040528051906020012060001c905060008467ffffffffffffffff811115610da057634e487b7160e01b600052604160045260246000fd5b604051908082528060200260200182016040528015610dc9578160200160208202803683370190505b5090506000805b86821015610eca57600086610de963017efeeb87611f7c565b83604051602001610dfb929190611cd3565b6040516020818303038152906040528051906020012060001c610e1e9190612019565b90506000805b84811015610e765782868281518110610e4d57634e487b7160e01b600052603260045260246000fd5b60200260200101511415610e645760019150610e76565b80610e6e81611ffe565b915050610e24565b5080610eb65781858581518110610e9d57634e487b7160e01b600052603260045260246000fd5b6020908102919091010152610eb3846001611f50565b93505b610ec1836001611f50565b92505050610dd0565b509095945050505050565b6060600082118015610ee75750818311155b8015610ef4575060018310155b610f105760405162461bcd60e51b815260040161057690611e08565b60008267ffffffffffffffff811115610f3957634e487b7160e01b600052604160045260246000fd5b604051908082528060200260200182016040528015610f62578160200160208202803683370190505b50905060008467ffffffffffffffff811115610f8e57634e487b7160e01b600052604160045260246000fd5b604051908082528060200260200182016040528015610fb7578160200160208202803683370190505b5090506000610fcd610fc88461153a565b611590565b905060005b86811015610eca57818181518110610ffa57634e487b7160e01b600052603260045260246000fd5b602002602001015183828151811061102257634e487b7160e01b600052603260045260246000fd5b60209081029190910101528061103781611ffe565b915050610fd2565b6110476114e6565b6001600160a01b0316611058610ac1565b6001600160a01b03161461107e5760405162461bcd60e51b815260040161057690611e51565b601280546001600160a01b0319166001600160a01b0392909216919091179055565b6110a86114e6565b6001600160a01b03166110b9610ac1565b6001600160a01b0316146110df5760405162461bcd60e51b815260040161057690611e51565b60008181526001602052604090205460ff161561110d576000818152600160205260409020805460ff191690555b50565b600c5481565b60056020528160005260406000208181548110610aec57600080fd5b61113a6114e6565b6001600160a01b031661114b610ac1565b6001600160a01b0316146111715760405162461bcd60e51b815260040161057690611e51565b601080546001600160a01b0319166001600160a01b0392909216919091179055565b61119b6114e6565b6001600160a01b03166111ac610ac1565b6001600160a01b0316146111d25760405162461bcd60e51b815260040161057690611e51565b600f80546001600160a01b0319166001600160a01b0392909216919091179055565b60606000821161120357600080fd5b60008267ffffffffffffffff81111561122c57634e487b7160e01b600052604160045260246000fd5b604051908082528060200260200182016040528015611255578160200160208202803683370190505b5090506000611266610fc88361153a565b949350505050565b606060025482111561127f57600080fd5b6000828152600360205260409020805461129890611fc3565b80601f01602080910402602001604051908101604052809291908181526020018280546112c490611fc3565b80156113115780601f106112e657610100808354040283529160200191611311565b820191906000526020600020905b8154815290600101906020018083116112f457829003601f168201915b50505050509050919050565b600b5481565b61132b6117e4565b60025482111561133a57600080fd5b6000828152600360205260409081902081516080810190925280548290829061136290611fc3565b80601f016020809104026020016040519081016040528092919081815260200182805461138e90611fc3565b80156113db5780601f106113b0576101008083540402835291602001916113db565b820191906000526020600020905b8154815290600101906020018083116113be57829003601f168201915b505050918352505060018201546001600160a01b031660208201526002820154604082015260038083015460609092019160ff169081111561142d57634e487b7160e01b600052602160045260246000fd5b600381111561144c57634e487b7160e01b600052602160045260246000fd5b90525092915050565b600d5481565b6114636114e6565b6001600160a01b0316611474610ac1565b6001600160a01b03161461149a5760405162461bcd60e51b815260040161057690611e51565b6001600160a01b0381166114c05760405162461bcd60e51b815260040161057690611dc2565b61110d816114ea565b600d5490565b600254101590565b600e546001600160a01b031681565b3390565b600080546001600160a01b038381166001600160a01b0319831681178455604051919092169283917f8be0079c531659141344cd1fd0a4f28419497f9722a3daafe3b4186f6b6457e09190a35050565b805160609060005b81811015611588578084828151811061156b57634e487b7160e01b600052603260045260246000fd5b60209081029190910101528061158081611ffe565b915050611542565b509192915050565b606060008251116115a057600080fd5b81518060005b8181101561171b576000836115b9610c09565b8784815181106115d957634e487b7160e01b600052603260045260246000fd5b60200260200101516040516020016115f2929190611cd3565b6040516020818303038152906040528051906020012060001c6116159190612019565b611620906001611f50565b9050600086611630600184611f7c565b8151811061164e57634e487b7160e01b600052603260045260246000fd5b60200260200101519050866001866116669190611f7c565b8151811061168457634e487b7160e01b600052603260045260246000fd5b60200260200101518760018461169a9190611f7c565b815181106116b857634e487b7160e01b600052603260045260246000fd5b602090810291909101015280876116d0600188611f7c565b815181106116ee57634e487b7160e01b600052603260045260246000fd5b6020908102919091010152611704600186611f7c565b94505050808061171390611ffe565b9150506115a6565b50929392505050565b82805461173090611fc3565b90600052602060002090601f0160209004810192826117525760008555611798565b82601f1061176b57805160ff1916838001178555611798565b82800160010185558215611798579182015b8281111561179857825182559160200191906001019061177d565b506117a4929150611833565b5090565b5080546117b490611fc3565b6000825580601f106117c6575061110d565b601f01602090049060005260206000209081019061110d9190611833565b60405180608001604052806060815260200160006001600160a01b03168152602001600081526020016000600381111561182e57634e487b7160e01b600052602160045260246000fd5b905290565b5b808211156117a45760008155600101611834565b80356001600160a01b03811681146108dc57600080fd5b600082601f83011261186f578081fd5b8151602061188461187f83611f04565b611eda565b82815281810190858301855b858110156118b9576118a7898684518b010161198b565b84529284019290840190600101611890565b5090979650505050505050565b600082601f8301126118d6578081fd5b815160206118e661187f83611f04565b8281528181019085830183850287018401881015611902578586fd5b855b858110156118b957815184529284019290840190600101611904565b805180151581146108dc57600080fd5b8051600481106108dc57600080fd5b600082601f83011261194f578081fd5b813561195d61187f82611f28565b818152846020838601011115611971578283fd5b816020850160208301379081016020019190915292915050565b600082601f83011261199b578081fd5b81516119a961187f82611f28565b8181528460208386010111156119bd578283fd5b611266826020830160208701611f93565b6000602082840312156119df578081fd5b6119e882611848565b9392505050565b60008060408385031215611a01578081fd5b611a0a83611848565b946020939093013593505050565b600060208284031215611a29578081fd5b6119e882611920565b60008060408385031215611a44578182fd5b823567ffffffffffffffff80821115611a5b578384fd5b611a678683870161193f565b93506020850135915080821115611a7c578283fd5b50611a898582860161193f565b9150509250929050565b600060208284031215611aa4578081fd5b815167ffffffffffffffff80821115611abb578283fd5b81840191506101e0808387031215611ad1578384fd5b611ada81611eda565b905082518152602083015160208201526040830151604082015260608301516060820152611b0a60808401611920565b6080820152611b1b60a08401611920565b60a0820152611b2c60c08401611920565b60c082015260e083810151908201526101008084015190820152610120808401519082015261014080840151908201526101608084015183811115611b6f578586fd5b611b7b8882870161198b565b828401525050610180611b8f818501611930565b908201526101a08381015183811115611ba6578586fd5b611bb28882870161185f565b8284015250506101c08084015183811115611bcb578586fd5b611bd7888287016118c6565b918301919091525095945050505050565b600060208284031215611bf9578081fd5b5035919050565b60008060408385031215611c12578182fd5b50508035926020909101359150565b60048110611c3f57634e487b7160e01b600052602160045260246000fd5b9052565b60008151808452611c5b816020860160208601611f93565b601f01601f19169290920160200192915050565b60609190911b6bffffffffffffffffffffffff1916815260140190565b60609290921b6bffffffffffffffffffffffff19168252601482015260340190565b90815260200190565b60008251611cc9818460208701611f93565b9190910192915050565b918252602082015260400190565b6001600160a01b0391909116815260200190565b6020808252825182820181905260009190848201906040850190845b81811015611d2d57835183529284019291840191600101611d11565b50909695505050505050565b901515815260200190565b6000602082526119e86020830184611c43565b600060408252611d6a6040830185611c43565b905060018060a01b03831660208301529392505050565b600060808252611d946080830187611c43565b6001600160a01b0386166020840152604083018590529050611db96060830184611c21565b95945050505050565b60208082526026908201527f4f776e61626c653a206e6577206f776e657220697320746865207a65726f206160408201526564647265737360d01b606082015260800190565b60208082526029908201527f6b206f72204e20617265206e6f74204f4b20647572696e672072616e646f6d2060408201526839b2b632b1ba34b7b760b91b606082015260800190565b6020808252818101527f4f776e61626c653a2063616c6c6572206973206e6f7420746865206f776e6572604082015260600190565b600060208252825160806020840152611ea260a0840182611c43565b905060018060a01b036020850151166040840152604084015160608401526060840151611ed26080850182611c21565b509392505050565b60405181810167ffffffffffffffff81118282101715611efc57611efc612059565b604052919050565b600067ffffffffffffffff821115611f1e57611f1e612059565b5060209081020190565b600067ffffffffffffffff821115611f4257611f42612059565b50601f01601f191660200190565b60008219821115611f6357611f6361202d565b500190565b600082611f7757611f77612043565b500490565b600082821015611f8e57611f8e61202d565b500390565b60005b83811015611fae578181015183820152602001611f96565b83811115611fbd576000848401525b50505050565b600281046001821680611fd757607f821691505b60208210811415611ff857634e487b7160e01b600052602260045260246000fd5b50919050565b60006000198214156120125761201261202d565b5060010190565b60008261202857612028612043565b500690565b634e487b7160e01b600052601160045260246000fd5b634e487b7160e01b600052601260045260246000fd5b634e487b7160e01b600052604160045260246000fdfea26469706673582212205d0e64e0b50b8b7d4795e0d48dfbcbcb3b9535c6f6a8af5fbd82456de29fc55864736f6c63430008000033",
  "linkReferences": {},
  "deployedLinkReferences": {}
}