{
  "_format": "hh-sol-artifact-1",
  "contractName": "ExordeTokenSale",
  "sourceName": "contracts/token-distribution/ExordeTokenSale.sol",
  "abi": [
    {
      "inputs": [
        {
          "internalType": "uint256",
          "name": "startTime_",
          "type": "uint256"
        },
        {
          "internalType": "uint256",
          "name": "endTime_",
          "type": "uint256"
        },
        {
          "internalType": "address",
          "name": "initial_whitelister_wallet_",
          "type": "address"
        },
        {
          "internalType": "contract IERC20",
          "name": "token_",
          "type": "address"
        },
        {
          "internalType": "contract IERC20",
          "name": "USDC_",
          "type": "address"
        },
        {
          "internalType": "contract IERC20",
          "name": "USDT_",
          "type": "address"
        },
        {
          "internalType": "contract IERC20",
          "name": "DAI_",
          "type": "address"
        }
      ],
      "stateMutability": "nonpayable",
      "type": "constructor"
    },
    {
      "anonymous": false,
      "inputs": [
        {
          "indexed": true,
          "internalType": "address",
          "name": "user",
          "type": "address"
        }
      ],
      "name": "AddressDeWhitelisted",
      "type": "event"
    },
    {
      "anonymous": false,
      "inputs": [
        {
          "indexed": true,
          "internalType": "address",
          "name": "user",
          "type": "address"
        }
      ],
      "name": "AddressWhitelisted",
      "type": "event"
    },
    {
      "anonymous": false,
      "inputs": [
        {
          "indexed": true,
          "internalType": "address",
          "name": "previousOwner",
          "type": "address"
        },
        {
          "indexed": true,
          "internalType": "address",
          "name": "newOwner",
          "type": "address"
        }
      ],
      "name": "OwnershipTransferred",
      "type": "event"
    },
    {
      "anonymous": false,
      "inputs": [
        {
          "indexed": false,
          "internalType": "address",
          "name": "account",
          "type": "address"
        }
      ],
      "name": "Paused",
      "type": "event"
    },
    {
      "anonymous": false,
      "inputs": [
        {
          "indexed": true,
          "internalType": "address",
          "name": "purchaser",
          "type": "address"
        },
        {
          "indexed": true,
          "internalType": "address",
          "name": "beneficiary",
          "type": "address"
        },
        {
          "indexed": false,
          "internalType": "uint256",
          "name": "value",
          "type": "uint256"
        },
        {
          "indexed": false,
          "internalType": "uint256",
          "name": "amount",
          "type": "uint256"
        }
      ],
      "name": "TokensPurchased",
      "type": "event"
    },
    {
      "anonymous": false,
      "inputs": [
        {
          "indexed": false,
          "internalType": "address",
          "name": "account",
          "type": "address"
        }
      ],
      "name": "Unpaused",
      "type": "event"
    },
    {
      "inputs": [],
      "name": "DAI",
      "outputs": [
        {
          "internalType": "contract IERC20",
          "name": "",
          "type": "address"
        }
      ],
      "stateMutability": "view",
      "type": "function"
    },
    {
      "inputs": [],
      "name": "DAI_decimal_count",
      "outputs": [
        {
          "internalType": "uint256",
          "name": "",
          "type": "uint256"
        }
      ],
      "stateMutability": "view",
      "type": "function"
    },
    {
      "inputs": [],
      "name": "USDC",
      "outputs": [
        {
          "internalType": "contract IERC20",
          "name": "",
          "type": "address"
        }
      ],
      "stateMutability": "view",
      "type": "function"
    },
    {
      "inputs": [],
      "name": "USDC_decimal_count",
      "outputs": [
        {
          "internalType": "uint256",
          "name": "",
          "type": "uint256"
        }
      ],
      "stateMutability": "view",
      "type": "function"
    },
    {
      "inputs": [],
      "name": "USDT",
      "outputs": [
        {
          "internalType": "contract IERC20",
          "name": "",
          "type": "address"
        }
      ],
      "stateMutability": "view",
      "type": "function"
    },
    {
      "inputs": [],
      "name": "USDT_decimal_count",
      "outputs": [
        {
          "internalType": "uint256",
          "name": "",
          "type": "uint256"
        }
      ],
      "stateMutability": "view",
      "type": "function"
    },
    {
      "inputs": [],
      "name": "_dollarRaised",
      "outputs": [
        {
          "internalType": "uint256",
          "name": "",
          "type": "uint256"
        }
      ],
      "stateMutability": "view",
      "type": "function"
    },
    {
      "inputs": [
        {
          "internalType": "uint256",
          "name": "dollarPurchaseAmount",
          "type": "uint256"
        }
      ],
      "name": "_getTokenAmount",
      "outputs": [
        {
          "internalType": "uint256",
          "name": "",
          "type": "uint256"
        },
        {
          "internalType": "uint256",
          "name": "",
          "type": "uint256"
        }
      ],
      "stateMutability": "view",
      "type": "function"
    },
    {
      "inputs": [],
      "name": "_priceBase",
      "outputs": [
        {
          "internalType": "uint256",
          "name": "",
          "type": "uint256"
        }
      ],
      "stateMutability": "view",
      "type": "function"
    },
    {
      "inputs": [],
      "name": "_priceTier1",
      "outputs": [
        {
          "internalType": "uint256",
          "name": "",
          "type": "uint256"
        }
      ],
      "stateMutability": "view",
      "type": "function"
    },
    {
      "inputs": [],
      "name": "_priceTier2",
      "outputs": [
        {
          "internalType": "uint256",
          "name": "",
          "type": "uint256"
        }
      ],
      "stateMutability": "view",
      "type": "function"
    },
    {
      "inputs": [],
      "name": "_priceTier3",
      "outputs": [
        {
          "internalType": "uint256",
          "name": "",
          "type": "uint256"
        }
      ],
      "stateMutability": "view",
      "type": "function"
    },
    {
      "inputs": [],
      "name": "_tier1SupplyThreshold",
      "outputs": [
        {
          "internalType": "uint256",
          "name": "",
          "type": "uint256"
        }
      ],
      "stateMutability": "view",
      "type": "function"
    },
    {
      "inputs": [],
      "name": "_tier2SupplyThreshold",
      "outputs": [
        {
          "internalType": "uint256",
          "name": "",
          "type": "uint256"
        }
      ],
      "stateMutability": "view",
      "type": "function"
    },
    {
      "inputs": [],
      "name": "_tier3SupplyThreshold",
      "outputs": [
        {
          "internalType": "uint256",
          "name": "",
          "type": "uint256"
        }
      ],
      "stateMutability": "view",
      "type": "function"
    },
    {
      "inputs": [
        {
          "internalType": "address",
          "name": "",
          "type": "address"
        }
      ],
      "name": "_usersTotalPurchase",
      "outputs": [
        {
          "internalType": "uint256",
          "name": "",
          "type": "uint256"
        }
      ],
      "stateMutability": "view",
      "type": "function"
    },
    {
      "inputs": [
        {
          "internalType": "address[]",
          "name": "_beneficiaries",
          "type": "address[]"
        }
      ],
      "name": "addManyToWhitelist",
      "outputs": [],
      "stateMutability": "nonpayable",
      "type": "function"
    },
    {
      "inputs": [
        {
          "internalType": "address",
          "name": "_beneficiary",
          "type": "address"
        }
      ],
      "name": "addToWhitelist",
      "outputs": [],
      "stateMutability": "nonpayable",
      "type": "function"
    },
    {
      "inputs": [
        {
          "internalType": "address",
          "name": "new_whitelister_wallet",
          "type": "address"
        }
      ],
      "name": "adminUpdateWhitelisterAddress",
      "outputs": [],
      "stateMutability": "nonpayable",
      "type": "function"
    },
    {
      "inputs": [
        {
          "internalType": "contract IERC20",
          "name": "token_",
          "type": "address"
        },
        {
          "internalType": "address",
          "name": "beneficiary_",
          "type": "address"
        },
        {
          "internalType": "uint256",
          "name": "tokenAmount_",
          "type": "uint256"
        }
      ],
      "name": "adminWithdrawERC20",
      "outputs": [],
      "stateMutability": "nonpayable",
      "type": "function"
    },
    {
      "inputs": [
        {
          "internalType": "uint256",
          "name": "purchaseAmount_",
          "type": "uint256"
        }
      ],
      "name": "buyTokensDAI",
      "outputs": [],
      "stateMutability": "nonpayable",
      "type": "function"
    },
    {
      "inputs": [
        {
          "internalType": "uint256",
          "name": "purchaseAmount",
          "type": "uint256"
        }
      ],
      "name": "buyTokensUSDC",
      "outputs": [],
      "stateMutability": "nonpayable",
      "type": "function"
    },
    {
      "inputs": [
        {
          "internalType": "uint256",
          "name": "purchaseAmount",
          "type": "uint256"
        }
      ],
      "name": "buyTokensUSDT",
      "outputs": [],
      "stateMutability": "nonpayable",
      "type": "function"
    },
    {
      "inputs": [
        {
          "internalType": "uint256",
          "name": "dollarPaid_",
          "type": "uint256"
        },
        {
          "internalType": "uint256",
          "name": "tierSelected_",
          "type": "uint256"
        }
      ],
      "name": "calculateTokensTier",
      "outputs": [
        {
          "internalType": "uint256",
          "name": "",
          "type": "uint256"
        }
      ],
      "stateMutability": "view",
      "type": "function"
    },
    {
      "inputs": [],
      "name": "dollarRaised",
      "outputs": [
        {
          "internalType": "uint256",
          "name": "",
          "type": "uint256"
        }
      ],
      "stateMutability": "view",
      "type": "function"
    },
    {
      "inputs": [],
      "name": "endTime",
      "outputs": [
        {
          "internalType": "uint256",
          "name": "",
          "type": "uint256"
        }
      ],
      "stateMutability": "view",
      "type": "function"
    },
    {
      "inputs": [],
      "name": "getCurrentTier",
      "outputs": [
        {
          "internalType": "uint256",
          "name": "",
          "type": "uint256"
        }
      ],
      "stateMutability": "view",
      "type": "function"
    },
    {
      "inputs": [
        {
          "internalType": "uint256",
          "name": "tierSelected_",
          "type": "uint256"
        }
      ],
      "name": "getPricePerTier",
      "outputs": [
        {
          "internalType": "uint256",
          "name": "",
          "type": "uint256"
        }
      ],
      "stateMutability": "view",
      "type": "function"
    },
    {
      "inputs": [
        {
          "internalType": "uint256",
          "name": "tierSelected_",
          "type": "uint256"
        }
      ],
      "name": "getSupplyLimitPerTier",
      "outputs": [
        {
          "internalType": "uint256",
          "name": "",
          "type": "uint256"
        }
      ],
      "stateMutability": "view",
      "type": "function"
    },
    {
      "inputs": [],
      "name": "isOpen",
      "outputs": [
        {
          "internalType": "bool",
          "name": "",
          "type": "bool"
        }
      ],
      "stateMutability": "view",
      "type": "function"
    },
    {
      "inputs": [],
      "name": "maxTokensRaised",
      "outputs": [
        {
          "internalType": "uint256",
          "name": "",
          "type": "uint256"
        }
      ],
      "stateMutability": "view",
      "type": "function"
    },
    {
      "inputs": [],
      "name": "owner",
      "outputs": [
        {
          "internalType": "address",
          "name": "",
          "type": "address"
        }
      ],
      "stateMutability": "view",
      "type": "function"
    },
    {
      "inputs": [],
      "name": "paused",
      "outputs": [
        {
          "internalType": "bool",
          "name": "",
          "type": "bool"
        }
      ],
      "stateMutability": "view",
      "type": "function"
    },
    {
      "inputs": [],
      "name": "remainingTierDollars",
      "outputs": [
        {
          "internalType": "uint256",
          "name": "",
          "type": "uint256"
        }
      ],
      "stateMutability": "view",
      "type": "function"
    },
    {
      "inputs": [
        {
          "internalType": "address",
          "name": "_beneficiary",
          "type": "address"
        }
      ],
      "name": "removeFromWhitelist",
      "outputs": [],
      "stateMutability": "nonpayable",
      "type": "function"
    },
    {
      "inputs": [],
      "name": "renounceOwnership",
      "outputs": [],
      "stateMutability": "nonpayable",
      "type": "function"
    },
    {
      "inputs": [
        {
          "internalType": "uint256",
          "name": "_endTime",
          "type": "uint256"
        }
      ],
      "name": "setEndDate",
      "outputs": [],
      "stateMutability": "nonpayable",
      "type": "function"
    },
    {
      "inputs": [],
      "name": "startTime",
      "outputs": [
        {
          "internalType": "uint256",
          "name": "",
          "type": "uint256"
        }
      ],
      "stateMutability": "view",
      "type": "function"
    },
    {
      "inputs": [],
      "name": "toggleSystemPause",
      "outputs": [],
      "stateMutability": "nonpayable",
      "type": "function"
    },
    {
      "inputs": [],
      "name": "token",
      "outputs": [
        {
          "internalType": "contract IERC20",
          "name": "",
          "type": "address"
        }
      ],
      "stateMutability": "view",
      "type": "function"
    },
    {
      "inputs": [],
      "name": "totalTokensRaised",
      "outputs": [
        {
          "internalType": "uint256",
          "name": "",
          "type": "uint256"
        }
      ],
      "stateMutability": "view",
      "type": "function"
    },
    {
      "inputs": [
        {
          "internalType": "address",
          "name": "newOwner",
          "type": "address"
        }
      ],
      "name": "transferOwnership",
      "outputs": [],
      "stateMutability": "nonpayable",
      "type": "function"
    },
    {
      "inputs": [],
      "name": "userMaxTotalPurchase",
      "outputs": [
        {
          "internalType": "uint256",
          "name": "",
          "type": "uint256"
        }
      ],
      "stateMutability": "view",
      "type": "function"
    },
    {
      "inputs": [],
      "name": "wallet",
      "outputs": [
        {
          "internalType": "address payable",
          "name": "",
          "type": "address"
        }
      ],
      "stateMutability": "view",
      "type": "function"
    },
    {
      "inputs": [
        {
          "internalType": "address",
          "name": "",
          "type": "address"
        }
      ],
      "name": "whitelist",
      "outputs": [
        {
          "internalType": "bool",
          "name": "",
          "type": "bool"
        }
      ],
      "stateMutability": "view",
      "type": "function"
    },
    {
      "inputs": [],
      "name": "whitelister_wallet",
      "outputs": [
        {
          "internalType": "address",
          "name": "",
          "type": "address"
        }
      ],
      "stateMutability": "view",
      "type": "function"
    },
    {
      "stateMutability": "payable",
      "type": "receive"
    }
  ],
  "bytecode": "0x60a060405266038d7ea4c6800060065561014a60075561015460085561015e600955670de0b6b3a76400006200003a620f4240600c62000449565b62000046919062000449565b600a55670de0b6b3a7640000620000626103e86101f462000449565b6200006e919062000449565b600b55670de0b6b3a76400006200008a620f4240600262000449565b62000096919062000449565b600c55670de0b6b3a7640000620f4240600c620000b4919062000449565b620000c0919062000449565b600d55620000d26103e8603262000449565b620000e190620f424062000449565b600e5562093a80608052601580546001600160a01b03191673d2ec33d098c207cec8774db5d5373274fd3e914f1790553480156200011e57600080fd5b50604051620024513803806200245183398101604081905262000141916200048d565b600160005562000151336200031a565b6001805460ff60a01b191690556001600160a01b038416620001c65760405162461bcd60e51b8152602060048201526024808201527f43726f776473616c653a20746f6b656e20697320746865207a65726f206164646044820152637265737360e01b60648201526084015b60405180910390fd5b6001600160a01b038516620002445760405162461bcd60e51b815260206004820152603860248201527f696e697469616c5f77686974656c69737465725f77616c6c65745f3a207a657260448201527f6f2061646472657373206e6f742061636365707461626c6500000000000000006064820152608401620001bd565b85871080156200025357504286115b620002a15760405162461bcd60e51b815260206004820152601e60248201527f7374617274202620656e642074696d652061726520696e636f727265637400006044820152606401620001bd565b600f8790556010869055600380546001600160a01b03199081166001600160a01b0386811691909117909255600480548216858416179055600580548216848416179055600280548216878416179055601680549091168783161790556015546200030d91166200036c565b5050505050505062000520565b600180546001600160a01b038381166001600160a01b0319831681179093556040519116919082907f8be0079c531659141344cd1fd0a4f28419497f9722a3daafe3b4186f6b6457e090600090a35050565b62000376620003eb565b6001600160a01b038116620003dd5760405162461bcd60e51b815260206004820152602660248201527f4f776e61626c653a206e6577206f776e657220697320746865207a65726f206160448201526564647265737360d01b6064820152608401620001bd565b620003e8816200031a565b50565b6001546001600160a01b03163314620004475760405162461bcd60e51b815260206004820181905260248201527f4f776e61626c653a2063616c6c6572206973206e6f7420746865206f776e65726044820152606401620001bd565b565b60008160001904831182151516156200047257634e487b7160e01b600052601160045260246000fd5b500290565b6001600160a01b0381168114620003e857600080fd5b600080600080600080600060e0888a031215620004a957600080fd5b87519650602088015195506040880151620004c48162000477565b6060890151909550620004d78162000477565b6080890151909450620004ea8162000477565b60a0890151909350620004fd8162000477565b60c0890151909250620005108162000477565b8091505092959891949750929550565b608051611f0e6200054360003960008181610a740152610ae10152611f0e6000f3fe6080604052600436106102805760003560e01c8063899105461161014f578063b95aff9e116100c1578063e0bab4c41161007a578063e0bab4c41461076a578063e43252d71461078a578063eec58d86146107aa578063f2fde38b146107c0578063fc0c546a146107e0578063ff2f755e146107fe57600080fd5b8063b95aff9e146106bf578063bb822605146106d4578063c401e5a1146106f4578063c54e44eb1461070a578063dd2fb0071461072a578063e05790181461074a57600080fd5b80638f2c58fc116101135780638f2c58fc1461060d57806398be33ef146106235780639b19251a14610643578063a6cad17a14610673578063af25359e14610693578063b6fc2c91146106a957600080fd5b8063899105461461056f57806389a302711461058f5780638ab1d681146105af5780638c10671c146105cf5780638da5cb5b146105ef57600080fd5b806336601f40116101f3578063715018a6116101ac578063715018a6146104cf57806373980d69146104e45780637412c223146104f957806378e979251461050e5780637a99bb0a146105245780638072e3921461055957600080fd5b806336601f40146104045780633784f0001461042457806347535d7b1461044457806349ad1d0514610469578063521eb2731461047e5780635c975abb146104b057600080fd5b806319b443b41161024557806319b443b4146103605780631ed26b9b146103755780631fcc946e146103a257806320f9e3ad146103b85780633197cbb6146103d857806332b7fe0d146103ee57600080fd5b8062dafe6f146102ea57806309838bd9146103125780630d0c41f414610328578063164763b1146102ea57806318c6611f1461033e57600080fd5b366102e55760405162461bcd60e51b815260206004820152602a60248201527f455448206e6f7420617574686f72697a65642c20706c656173652075736520626044820152697579546f6b656e73282960b01b60648201526084015b60405180910390fd5b600080fd5b3480156102f657600080fd5b506102ff600681565b6040519081526020015b60405180910390f35b34801561031e57600080fd5b506102ff600a5481565b34801561033457600080fd5b506102ff60145481565b34801561034a57600080fd5b5061035e610359366004611aa7565b610814565b005b34801561036c57600080fd5b506102ff601281565b34801561038157600080fd5b506102ff610390366004611ae0565b60136020526000908152604090205481565b3480156103ae57600080fd5b506102ff600d5481565b3480156103c457600080fd5b5061035e6103d3366004611ae0565b61098f565b3480156103e457600080fd5b506102ff60105481565b3480156103fa57600080fd5b506102ff600c5481565b34801561041057600080fd5b5061035e61041f366004611afd565b610a20565b34801561043057600080fd5b5061035e61043f366004611aa7565b610ad7565b34801561045057600080fd5b50610459610b78565b6040519015158152602001610309565b34801561047557600080fd5b5061035e610b93565b34801561048a57600080fd5b506015546001600160a01b03165b6040516001600160a01b039091168152602001610309565b3480156104bc57600080fd5b50600154600160a01b900460ff16610459565b3480156104db57600080fd5b5061035e610bbf565b3480156104f057600080fd5b506011546102ff565b34801561050557600080fd5b506102ff610bd1565b34801561051a57600080fd5b506102ff600f5481565b34801561053057600080fd5b5061054461053f366004611aa7565b610c05565b60408051928352602083019190915201610309565b34801561056557600080fd5b506102ff60115481565b34801561057b57600080fd5b506102ff61058a366004611aa7565b610cb0565b34801561059b57600080fd5b50600354610498906001600160a01b031681565b3480156105bb57600080fd5b5061035e6105ca366004611ae0565b610d07565b3480156105db57600080fd5b5061035e6105ea366004611b54565b610d7a565b3480156105fb57600080fd5b506001546001600160a01b0316610498565b34801561061957600080fd5b506102ff60095481565b34801561062f57600080fd5b5061035e61063e366004611aa7565b610e6c565b34801561064f57600080fd5b5061045961065e366004611ae0565b60126020526000908152604090205460ff1681565b34801561067f57600080fd5b50601654610498906001600160a01b031681565b34801561069f57600080fd5b506102ff60065481565b3480156106b557600080fd5b506102ff600b5481565b3480156106cb57600080fd5b506102ff611006565b3480156106e057600080fd5b506102ff6106ef366004611c19565b611056565b34801561070057600080fd5b506102ff60085481565b34801561071657600080fd5b50600454610498906001600160a01b031681565b34801561073657600080fd5b506102ff610745366004611aa7565b6110ef565b34801561075657600080fd5b5061035e610765366004611aa7565b611145565b34801561077657600080fd5b50600554610498906001600160a01b031681565b34801561079657600080fd5b5061035e6107a5366004611ae0565b6112ae565b3480156107b657600080fd5b506102ff600e5481565b3480156107cc57600080fd5b5061035e6107db366004611ae0565b611324565b3480156107ec57600080fd5b506002546001600160a01b0316610498565b34801561080a57600080fd5b506102ff60075481565b61081c61139a565b6108246113f4565b600f54421015801561083857506010544211155b6108545760405162461bcd60e51b81526004016102dc90611c3b565b3360008181526012602052604090205460ff166108835760405162461bcd60e51b81526004016102dc90611c69565b600454339061089d906001600160a01b0316823086611441565b6108a781846114b2565b6000806108b385610c05565b91509150848111156108d75760405162461bcd60e51b81526004016102dc90611c97565b60006108e38287611cf4565b6011549091506108f3908261163e565b601155610900848461164a565b60408051828152602081018590526001600160a01b0386169133917f6faf93231a456e552dbc9961f58d9713ee4f2e69d15f1975b050ef0911053a7b910160405180910390a3610950848261166f565b600454610966906001600160a01b031682611697565b60045461097d906001600160a01b031685846116b1565b505050505061098c6001600055565b50565b6109976116c2565b6001600160a01b0381166109fe5760405162461bcd60e51b815260206004820152602860248201527f6e65772077686974656c69737465722061646472657373206d757374206265206044820152676e6f6e207a65726f60c01b60648201526084016102dc565b601680546001600160a01b0319166001600160a01b0392909216919091179055565b610a286116c2565b610a30610b78565b15610a725760405162461bcd60e51b81526020600482015260126024820152717468652073616c652069732061637469766560701b60448201526064016102dc565b7f0000000000000000000000000000000000000000000000000000000000000000600f54610aa09190611d0b565b4211610abe5760405162461bcd60e51b81526004016102dc90611d23565b610ad26001600160a01b038416838361171c565b505050565b610adf6116c2565b7f0000000000000000000000000000000000000000000000000000000000000000600f54610b0d9190611d0b565b4211610b2b5760405162461bcd60e51b81526004016102dc90611d23565b804210610b735760405162461bcd60e51b81526020600482015260166024820152756e657720656e6454696d65206d757374203e206e6f7760501b60448201526064016102dc565b601055565b6000600f544210158015610b8e57506010544211155b905090565b610b9b6116c2565b600154600160a01b900460ff1615610bb757610bb561174c565b565b610bb56117a1565b610bc76116c2565b610bb560006117e4565b600080600c546014541115610be857506003919050565b600b546014541115610bfc57506002919050565b5060015b919050565b60008060008311610c1557600080fd5b600080600080610c23610bd1565b9050600080610c30611006565b905080891115610c4757610c44818a611cf4565b94505b8415610c945760028311610c6b57610c64856106ef856001611d0b565b9150610c6f565b8493505b81610c83610c7d878c611cf4565b85611056565b610c8d9190611d0b565b9550610ca1565b610c9e8984611056565b95505b50939791965090945050505050565b600060018210158015610cc4575060038211155b610ccd57600080fd5b60008260011415610ce15750600754610d01565b8260021415610cf35750600854610d01565b8260031415610d0157506009545b92915050565b6016546001600160a01b03163314610d315760405162461bcd60e51b81526004016102dc90611d80565b6001600160a01b038116600081815260126020526040808220805460ff19169055517fab860d93565802da8a71b6d378100bc130068174e0641267e9e12cf41d418cc09190a250565b6016546001600160a01b03163314610da45760405162461bcd60e51b81526004016102dc90611d80565b60005b8151811015610e6857600160126000848481518110610dc857610dc8611dc9565b60200260200101516001600160a01b03166001600160a01b0316815260200190815260200160002060006101000a81548160ff021916908315150217905550818181518110610e1957610e19611dc9565b60200260200101516001600160a01b03167f4f783c179409b4127238bc9c990bc99b9a651666a0d20b51d6c42849eb88466d60405160405180910390a280610e6081611ddf565b915050610da7565b5050565b610e7461139a565b610e7c6113f4565b600f544210158015610e9057506010544211155b610eac5760405162461bcd60e51b81526004016102dc90611c3b565b3360008181526012602052604090205460ff16610edb5760405162461bcd60e51b81526004016102dc90611c69565b6005543390610ef5906001600160a01b0316823086611441565b6000610f068464e8d4a51000611836565b9050610f1282826114b2565b600080610f1e83610c05565b9150915082811115610f425760405162461bcd60e51b81526004016102dc90611c97565b6000610f4e8285611cf4565b601154909150610f5e908261163e565b601155610f6b858461164a565b60408051828152602081018590526001600160a01b0387169133917f6faf93231a456e552dbc9961f58d9713ee4f2e69d15f1975b050ef0911053a7b910160405180910390a3610fbb858261166f565b600554610fdf906001600160a01b0316610fda8364e8d4a51000611842565b611697565b600554610ff6906001600160a01b031686846116b1565b50505050505061098c6001600055565b600080611011610bd1565b90506000601454611021836110ef565b61102b9190611cf4565b9050600061104e60065461104861104186610cb0565b8590611842565b90611836565b949350505050565b60006001821015801561106a575060038211155b61107357600080fd5b600082600114156110a65761109f6006546110996007548761183690919063ffffffff16565b90611842565b90506110e8565b82600214156110ca5761109f6006546110996008548761183690919063ffffffff16565b6110e56006546110996009548761183690919063ffffffff16565b90505b9392505050565b600060018210158015611103575060038211155b61110c57600080fd5b600082600114156111205750600b54610d01565b82600214156111325750600c54610d01565b8260031415610d015750600d5492915050565b61114d61139a565b6111556113f4565b600f54421015801561116957506010544211155b6111855760405162461bcd60e51b81526004016102dc90611c3b565b3360008181526012602052604090205460ff166111b45760405162461bcd60e51b81526004016102dc90611c69565b60035433906111ce906001600160a01b0316823086611441565b6111d881846114b2565b6000806111e485610c05565b91509150848111156112085760405162461bcd60e51b81526004016102dc90611c97565b60006112148287611cf4565b601154909150611224908261163e565b601155611231848461164a565b60408051828152602081018590526001600160a01b0386169182917f6faf93231a456e552dbc9961f58d9713ee4f2e69d15f1975b050ef0911053a7b910160405180910390a3611281848261166f565b600354611297906001600160a01b031682611697565b60035461097d906001600160a01b031685846116b1565b6016546001600160a01b031633146112d85760405162461bcd60e51b81526004016102dc90611d80565b6001600160a01b038116600081815260126020526040808220805460ff19166001179055517f4f783c179409b4127238bc9c990bc99b9a651666a0d20b51d6c42849eb88466d9190a250565b61132c6116c2565b6001600160a01b0381166113915760405162461bcd60e51b815260206004820152602660248201527f4f776e61626c653a206e6577206f776e657220697320746865207a65726f206160448201526564647265737360d01b60648201526084016102dc565b61098c816117e4565b600260005414156113ed5760405162461bcd60e51b815260206004820152601f60248201527f5265656e7472616e637947756172643a207265656e7472616e742063616c6c0060448201526064016102dc565b6002600055565b600154600160a01b900460ff1615610bb55760405162461bcd60e51b815260206004820152601060248201526f14185d5cd8589b194e881c185d5cd95960821b60448201526064016102dc565b6040516001600160a01b03808516602483015283166044820152606481018290526114ac9085906323b872dd60e01b906084015b60408051601f198184030181529190526020810180516001600160e01b03166001600160e01b03199093169290921790915261184e565b50505050565b6001600160a01b03821661151b5760405162461bcd60e51b815260206004820152602a60248201527f43726f776473616c653a2062656e656669636961727920697320746865207a65604482015269726f206164647265737360b01b60648201526084016102dc565b806115685760405162461bcd60e51b815260206004820152601c60248201527f43726f776473616c653a20646f6c6c6172416d6f756e7420697320300000000060448201526064016102dc565b600a54601454106115bb5760405162461bcd60e51b815260206004820152601960248201527f43726f776473616c65206973206e6f7720736f6c64206f75740000000000000060448201526064016102dc565b600e546001600160a01b0383166000908152601360205260409020546115e2908390611d0b565b1115610e685760405162461bcd60e51b815260206004820152602560248201527f746f74616c207573657220707572636861736520697320636170706564206174604482015264202435306b60d81b60648201526084016102dc565b60006110e88284611d0b565b6116548282611920565b80601460008282546116669190611d0b565b90915550505050565b6001600160a01b03821660009081526013602052604081208054839290611666908490611d0b565b601554610e68906001600160a01b0384811691168361171c565b8015610ad257610ad2838383610abe565b6001546001600160a01b03163314610bb55760405162461bcd60e51b815260206004820181905260248201527f4f776e61626c653a2063616c6c6572206973206e6f7420746865206f776e657260448201526064016102dc565b6040516001600160a01b038316602482015260448101829052610ad290849063a9059cbb60e01b90606401611475565b611754611937565b6001805460ff60a01b191690557f5db9ee0a495bf2e6ff9c91a7834c1ba4fdd244a5e8aa4e537bd38aeae4b073aa335b6040516001600160a01b03909116815260200160405180910390a1565b6117a96113f4565b6001805460ff60a01b1916600160a01b1790557f62e78cea01bee320cd4e420270b5ea74000d11b0c9f74754ebdbfc544b05a2586117843390565b600180546001600160a01b038381166001600160a01b0319831681179093556040519116919082907f8be0079c531659141344cd1fd0a4f28419497f9722a3daafe3b4186f6b6457e090600090a35050565b60006110e88284611dfa565b60006110e88284611e1c565b60006118a3826040518060400160405280602081526020017f5361666545524332303a206c6f772d6c6576656c2063616c6c206661696c6564815250856001600160a01b03166119879092919063ffffffff16565b805190915015610ad257808060200190518101906118c19190611e3b565b610ad25760405162461bcd60e51b815260206004820152602a60248201527f5361666545524332303a204552433230206f7065726174696f6e20646964206e6044820152691bdd081cdd58d8d9595960b21b60648201526084016102dc565b600254610e68906001600160a01b0316838361171c565b600154600160a01b900460ff16610bb55760405162461bcd60e51b815260206004820152601460248201527314185d5cd8589b194e881b9bdd081c185d5cd95960621b60448201526064016102dc565b606061104e848460008585600080866001600160a01b031685876040516119ae9190611e89565b60006040518083038185875af1925050503d80600081146119eb576040519150601f19603f3d011682016040523d82523d6000602084013e6119f0565b606091505b5091509150611a0187838387611a0c565b979650505050505050565b60608315611a78578251611a71576001600160a01b0385163b611a715760405162461bcd60e51b815260206004820152601d60248201527f416464726573733a2063616c6c20746f206e6f6e2d636f6e747261637400000060448201526064016102dc565b508161104e565b61104e8383815115611a8d5781518083602001fd5b8060405162461bcd60e51b81526004016102dc9190611ea5565b600060208284031215611ab957600080fd5b5035919050565b6001600160a01b038116811461098c57600080fd5b8035610c0081611ac0565b600060208284031215611af257600080fd5b81356110e881611ac0565b600080600060608486031215611b1257600080fd5b8335611b1d81611ac0565b92506020840135611b2d81611ac0565b929592945050506040919091013590565b634e487b7160e01b600052604160045260246000fd5b60006020808385031215611b6757600080fd5b823567ffffffffffffffff80821115611b7f57600080fd5b818501915085601f830112611b9357600080fd5b813581811115611ba557611ba5611b3e565b8060051b604051601f19603f83011681018181108582111715611bca57611bca611b3e565b604052918252848201925083810185019188831115611be857600080fd5b938501935b82851015611c0d57611bfe85611ad5565b84529385019392850192611bed565b98975050505050505050565b60008060408385031215611c2c57600080fd5b50508035926020909101359150565b6020808252601490820152733a34329039b0b6329034b9903737ba1037b832b760611b604082015260600190565b6020808252601490820152731d5cd95c881b9bdd081dda1a5d195b1a5cdd195960621b604082015260600190565b60208082526027908201527f6572726f723a20646f6c6c617273546f526566756e64203e207075726368617360408201526619505b5bdd5b9d60ca1b606082015260800190565b634e487b7160e01b600052601160045260246000fd5b600082821015611d0657611d06611cde565b500390565b60008219821115611d1e57611d1e611cde565b500190565b6020808252603a908201527f4f776e6572206d7573742077616974206174206c656173742031207765656b2060408201527f61667465722053616c6520737461727420746f20757064617465000000000000606082015260800190565b60208082526029908201527f73656e646572206973206e6f7420616c6c6f77656420746f206d6f64696679206040820152681dda1a5d195b1a5cdd60ba1b606082015260800190565b634e487b7160e01b600052603260045260246000fd5b6000600019821415611df357611df3611cde565b5060010190565b600082611e1757634e487b7160e01b600052601260045260246000fd5b500490565b6000816000190483118215151615611e3657611e36611cde565b500290565b600060208284031215611e4d57600080fd5b815180151581146110e857600080fd5b60005b83811015611e78578181015183820152602001611e60565b838111156114ac5750506000910152565b60008251611e9b818460208701611e5d565b9190910192915050565b6020815260008251806020840152611ec4816040850160208701611e5d565b601f01601f1916919091016040019291505056fea2646970667358221220cbb51229a04d583914848a65abfb2ef1daf96ee35684723b1e38bbfc90c98a3464736f6c63430008080033",
  "linkReferences": {},
  "deployedLinkReferences": {}
}