{
  "_format": "hh-sol-artifact-1",
  "contractName": "SFuelContracts",
  "sourceName": "contracts/worksystems/sfueldistribute.sol",
  "abi": [
    {
      "inputs": [],
      "stateMutability": "nonpayable",
      "type": "constructor"
    },
    {
      "anonymous": false,
      "inputs": [
        {
          "indexed": true,
          "internalType": "address",
          "name": "caller",
          "type": "address"
        },
        {
          "indexed": false,
          "internalType": "uint256",
          "name": "value",
          "type": "uint256"
        }
      ],
      "name": "ContractFilled",
      "type": "event"
    },
    {
      "anonymous": false,
      "inputs": [
        {
          "indexed": true,
          "internalType": "address",
          "name": "sender",
          "type": "address"
        },
        {
          "indexed": false,
          "internalType": "uint256",
          "name": "value",
          "type": "uint256"
        }
      ],
      "name": "EtherDeposit",
      "type": "event"
    },
    {
      "anonymous": false,
      "inputs": [
        {
          "indexed": true,
          "internalType": "address",
          "name": "previousOwner",
          "type": "address"
        },
        {
          "indexed": true,
          "internalType": "address",
          "name": "newOwner",
          "type": "address"
        }
      ],
      "name": "OwnershipTransferred",
      "type": "event"
    },
    {
      "anonymous": false,
      "inputs": [
        {
          "indexed": true,
          "internalType": "address",
          "name": "reciever",
          "type": "address"
        },
        {
          "indexed": true,
          "internalType": "address",
          "name": "whitelistedContract",
          "type": "address"
        },
        {
          "indexed": false,
          "internalType": "uint256",
          "name": "amount",
          "type": "uint256"
        }
      ],
      "name": "RetrievedSFuel",
      "type": "event"
    },
    {
      "anonymous": false,
      "inputs": [
        {
          "indexed": true,
          "internalType": "address",
          "name": "returner",
          "type": "address"
        },
        {
          "indexed": true,
          "internalType": "address",
          "name": "whitelistedContract",
          "type": "address"
        },
        {
          "indexed": false,
          "internalType": "uint256",
          "name": "amount",
          "type": "uint256"
        }
      ],
      "name": "ReturnedSFuel",
      "type": "event"
    },
    {
      "stateMutability": "payable",
      "type": "fallback"
    },
    {
      "inputs": [],
      "name": "TogglePause",
      "outputs": [],
      "stateMutability": "nonpayable",
      "type": "function"
    },
    {
      "inputs": [
        {
          "internalType": "address",
          "name": "_address",
          "type": "address"
        }
      ],
      "name": "addAddress",
      "outputs": [],
      "stateMutability": "nonpayable",
      "type": "function"
    },
    {
      "inputs": [],
      "name": "fillContract",
      "outputs": [],
      "stateMutability": "nonpayable",
      "type": "function"
    },
    {
      "inputs": [
        {
          "internalType": "address",
          "name": "_address",
          "type": "address"
        }
      ],
      "name": "getBalance",
      "outputs": [
        {
          "internalType": "uint256",
          "name": "",
          "type": "uint256"
        }
      ],
      "stateMutability": "view",
      "type": "function"
    },
    {
      "inputs": [],
      "name": "isPaused",
      "outputs": [
        {
          "internalType": "bool",
          "name": "",
          "type": "bool"
        }
      ],
      "stateMutability": "view",
      "type": "function"
    },
    {
      "inputs": [],
      "name": "owner",
      "outputs": [
        {
          "internalType": "address",
          "name": "",
          "type": "address"
        }
      ],
      "stateMutability": "view",
      "type": "function"
    },
    {
      "inputs": [
        {
          "internalType": "address",
          "name": "_address",
          "type": "address"
        }
      ],
      "name": "removeAddress",
      "outputs": [],
      "stateMutability": "nonpayable",
      "type": "function"
    },
    {
      "inputs": [],
      "name": "renounceOwnership",
      "outputs": [],
      "stateMutability": "nonpayable",
      "type": "function"
    },
    {
      "inputs": [
        {
          "internalType": "address payable",
          "name": "_retriever",
          "type": "address"
        }
      ],
      "name": "retrieveSFuel",
      "outputs": [],
      "stateMutability": "payable",
      "type": "function"
    },
    {
      "inputs": [
        {
          "internalType": "address",
          "name": "newOwner",
          "type": "address"
        }
      ],
      "name": "transferOwnership",
      "outputs": [],
      "stateMutability": "nonpayable",
      "type": "function"
    },
    {
      "stateMutability": "payable",
      "type": "receive"
    }
  ],
  "bytecode": "0x608060405234801561001057600080fd5b5061001a3361003f565b66038d7ea4c68000600155662386f26fc100006002556003805460ff1916905561008f565b600080546001600160a01b038381166001600160a01b0319831681178455604051919092169283917f8be0079c531659141344cd1fd0a4f28419497f9722a3daafe3b4186f6b6457e09190a35050565b6108558061009e6000396000f3fe6080604052600436106100955760003560e01c80638da5cb5b116100595780638da5cb5b14610189578063b187bd26146101b6578063c08d4b99146101e0578063f2fde38b146101f5578063f8b2cb4f14610215576100d2565b8063215ac4be1461010c57806338eada1c146101215780633eb5938a146101415780634ba79dfe14610154578063715018a614610174576100d2565b366100d25760405134815233907fa58b71ad2e6ce803dd1eec62e2f3717a164a8912ee33eb51a57a234ba56b5535906020015b60405180910390a2005b341561010a5760405134815233907fa58b71ad2e6ce803dd1eec62e2f3717a164a8912ee33eb51a57a234ba56b5535906020016100c8565b005b34801561011857600080fd5b5061010a61024b565b34801561012d57600080fd5b5061010a61013c3660046107a8565b61037b565b61010a61014f3660046107a8565b6103f4565b34801561016057600080fd5b5061010a61016f3660046107a8565b6105b4565b34801561018057600080fd5b5061010a610624565b34801561019557600080fd5b506000546040516001600160a01b0390911681526020015b60405180910390f35b3480156101c257600080fd5b506003546101d09060ff1681565b60405190151581526020016101ad565b3480156101ec57600080fd5b5061010a61065a565b34801561020157600080fd5b5061010a6102103660046107a8565b610698565b34801561022157600080fd5b5061023d6102303660046107a8565b6001600160a01b03163190565b6040519081526020016101ad565b6000546001600160a01b0316331461027e5760405162461bcd60e51b8152600401610275906107c5565b60405180910390fd5b6002543031906000906102919083610730565b905062695d1f60891b60405163204a3e9360e01b8152306004820152602481018390526001600160a01b03919091169063204a3e9390604401600060405180830381600087803b1580156102e457600080fd5b505af11580156102f8573d6000803e3d6000fd5b50506002549150503031146103425760405162461bcd60e51b815260206004820152601060248201526f04572726f722046696c6c696e672055760841b6044820152606401610275565b60405181815233907f2d6e436d93e4e3143f5d97f5786f48e9736d037972d20e408bb1aa2284bf6c0f9060200160405180910390a25050565b6000546001600160a01b031633146103a55760405162461bcd60e51b8152600401610275906107c5565b6001600160a01b03811660009081526004602052604090205460ff161515600114156103d057600080fd5b6001600160a01b03166000908152600460205260409020805460ff19166001179055565b60035460ff161561043c5760405162461bcd60e51b815260206004820152601260248201527110dbdb9d1c9858dd081a5cc814185d5cd95960721b6044820152606401610275565b3360009081526004602052604090205460ff166104b85760405162461bcd60e51b815260206004820152603460248201527f6d73672e73656e64657220636f6e7472616374206e6565647320746f206265206044820152733bb434ba32b634b9ba32b210313c9027bbb732b960611b6064820152608401610275565b6001546001600160a01b0382163110156105b15760006104e56001600160a01b0383163160015490610730565b905080303110156105385760405162461bcd60e51b815260206004820152601f60248201527f496e737566666963656e742042616c616e636520696e20436f6e7472616374006044820152606401610275565b6040516001600160a01b0383169082156108fc029083906000818181858888f1935050505015801561056e573d6000803e3d6000fd5b5060405181815233906001600160a01b038416907f3bd6ed6e41c189d37b6c3d633df447b94748e1f0c01a702e6314df17bbf40d7c9060200160405180910390a3505b50565b6000546001600160a01b031633146105de5760405162461bcd60e51b8152600401610275906107c5565b6001600160a01b03811660009081526004602052604090205460ff1661060357600080fd5b6001600160a01b03166000908152600460205260409020805460ff19169055565b6000546001600160a01b0316331461064e5760405162461bcd60e51b8152600401610275906107c5565b6106586000610743565b565b6000546001600160a01b031633146106845760405162461bcd60e51b8152600401610275906107c5565b6003805460ff19811660ff90911615179055565b6000546001600160a01b031633146106c25760405162461bcd60e51b8152600401610275906107c5565b6001600160a01b0381166107275760405162461bcd60e51b815260206004820152602660248201527f4f776e61626c653a206e6577206f776e657220697320746865207a65726f206160448201526564647265737360d01b6064820152608401610275565b6105b181610743565b600061073c82846107fa565b9392505050565b600080546001600160a01b038381166001600160a01b0319831681178455604051919092169283917f8be0079c531659141344cd1fd0a4f28419497f9722a3daafe3b4186f6b6457e09190a35050565b6001600160a01b03811681146105b157600080fd5b6000602082840312156107ba57600080fd5b813561073c81610793565b6020808252818101527f4f776e61626c653a2063616c6c6572206973206e6f7420746865206f776e6572604082015260600190565b60008282101561081a57634e487b7160e01b600052601160045260246000fd5b50039056fea26469706673582212200c853d652d5cda0060598ab433c22253453e01fb15711425688ffbb46253bb1164736f6c63430008080033",
  "linkReferences": {},
  "deployedLinkReferences": {}
}