{
	"contracts/daostack/controller/Reputation.sol": {
		"Reputation": {
			"abi": [
				{
					"anonymous": false,
					"inputs": [
						{
							"indexed": true,
							"internalType": "address",
							"name": "_from",
							"type": "address"
						},
						{
							"indexed": false,
							"internalType": "uint256",
							"name": "_amount",
							"type": "uint256"
						}
					],
					"name": "Burn",
					"type": "event"
				},
				{
					"anonymous": false,
					"inputs": [
						{
							"indexed": true,
							"internalType": "address",
							"name": "_to",
							"type": "address"
						},
						{
							"indexed": false,
							"internalType": "uint256",
							"name": "_amount",
							"type": "uint256"
						}
					],
					"name": "Mint",
					"type": "event"
				},
				{
					"anonymous": false,
					"inputs": [
						{
							"indexed": true,
							"internalType": "address",
							"name": "previousOwner",
							"type": "address"
						},
						{
							"indexed": true,
							"internalType": "address",
							"name": "newOwner",
							"type": "address"
						}
					],
					"name": "OwnershipTransferred",
					"type": "event"
				},
				{
					"constant": true,
					"inputs": [
						{
							"internalType": "address",
							"name": "_owner",
							"type": "address"
						}
					],
					"name": "balanceOf",
					"outputs": [
						{
							"internalType": "uint256",
							"name": "balance",
							"type": "uint256"
						}
					],
					"payable": false,
					"stateMutability": "view",
					"type": "function"
				},
				{
					"constant": true,
					"inputs": [
						{
							"internalType": "address",
							"name": "_owner",
							"type": "address"
						},
						{
							"internalType": "uint256",
							"name": "_blockNumber",
							"type": "uint256"
						}
					],
					"name": "balanceOfAt",
					"outputs": [
						{
							"internalType": "uint256",
							"name": "",
							"type": "uint256"
						}
					],
					"payable": false,
					"stateMutability": "view",
					"type": "function"
				},
				{
					"constant": false,
					"inputs": [
						{
							"internalType": "address",
							"name": "_user",
							"type": "address"
						},
						{
							"internalType": "uint256",
							"name": "_amount",
							"type": "uint256"
						}
					],
					"name": "burn",
					"outputs": [
						{
							"internalType": "bool",
							"name": "",
							"type": "bool"
						}
					],
					"payable": false,
					"stateMutability": "nonpayable",
					"type": "function"
				},
				{
					"constant": true,
					"inputs": [],
					"name": "decimals",
					"outputs": [
						{
							"internalType": "uint8",
							"name": "",
							"type": "uint8"
						}
					],
					"payable": false,
					"stateMutability": "view",
					"type": "function"
				},
				{
					"constant": true,
					"inputs": [],
					"name": "isOwner",
					"outputs": [
						{
							"internalType": "bool",
							"name": "",
							"type": "bool"
						}
					],
					"payable": false,
					"stateMutability": "view",
					"type": "function"
				},
				{
					"constant": false,
					"inputs": [
						{
							"internalType": "address",
							"name": "_user",
							"type": "address"
						},
						{
							"internalType": "uint256",
							"name": "_amount",
							"type": "uint256"
						}
					],
					"name": "mint",
					"outputs": [
						{
							"internalType": "bool",
							"name": "",
							"type": "bool"
						}
					],
					"payable": false,
					"stateMutability": "nonpayable",
					"type": "function"
				},
				{
					"constant": false,
					"inputs": [
						{
							"internalType": "address[]",
							"name": "_user",
							"type": "address[]"
						},
						{
							"internalType": "uint256[]",
							"name": "_amount",
							"type": "uint256[]"
						}
					],
					"name": "mintMultiple",
					"outputs": [
						{
							"internalType": "bool",
							"name": "",
							"type": "bool"
						}
					],
					"payable": false,
					"stateMutability": "nonpayable",
					"type": "function"
				},
				{
					"constant": true,
					"inputs": [],
					"name": "owner",
					"outputs": [
						{
							"internalType": "address",
							"name": "",
							"type": "address"
						}
					],
					"payable": false,
					"stateMutability": "view",
					"type": "function"
				},
				{
					"constant": false,
					"inputs": [],
					"name": "renounceOwnership",
					"outputs": [],
					"payable": false,
					"stateMutability": "nonpayable",
					"type": "function"
				},
				{
					"constant": true,
					"inputs": [],
					"name": "totalSupply",
					"outputs": [
						{
							"internalType": "uint256",
							"name": "",
							"type": "uint256"
						}
					],
					"payable": false,
					"stateMutability": "view",
					"type": "function"
				},
				{
					"constant": true,
					"inputs": [
						{
							"internalType": "uint256",
							"name": "_blockNumber",
							"type": "uint256"
						}
					],
					"name": "totalSupplyAt",
					"outputs": [
						{
							"internalType": "uint256",
							"name": "",
							"type": "uint256"
						}
					],
					"payable": false,
					"stateMutability": "view",
					"type": "function"
				},
				{
					"constant": false,
					"inputs": [
						{
							"internalType": "address",
							"name": "newOwner",
							"type": "address"
						}
					],
					"name": "transferOwnership",
					"outputs": [],
					"payable": false,
					"stateMutability": "nonpayable",
					"type": "function"
				}
			],
			"devdoc": {
				"details": "A DAO has Reputation System which allows peers to rate other peers in order to build trust . A reputation is use to assign influence measure to a DAO'S peers. Reputation is similar to regular tokens but with one crucial difference: It is non-transferable. The Reputation contract maintain a map of address to reputation value. It provides an onlyOwner functions to mint and burn reputation _to (or _from) a specific address.",
				"methods": {
					"balanceOf(address)": {
						"details": "return the reputation amount of a given owner",
						"params": {
							"_owner": "an address of the owner which we want to get his reputation"
						}
					},
					"isOwner()": {
						"details": "Returns true if the caller is the current owner."
					},
					"owner()": {
						"details": "Returns the address of the current owner."
					},
					"renounceOwnership()": {
						"details": "Leaves the contract without owner. It will not be possible to call `onlyOwner` functions anymore. Can only be called by the current owner.     * NOTE: Renouncing ownership will leave the contract without an owner, thereby removing any functionality that is only available to the owner."
					},
					"transferOwnership(address)": {
						"details": "Transfers ownership of the contract to a new account (`newOwner`). Can only be called by the current owner."
					}
				},
				"title": "Reputation system"
			},
			"evm": {
				"assembly": "    /* \"contracts/daostack/controller/Reputation.sol\":678:8513  contract Reputation is Ownable {\r... */\n  mstore(0x40, 0x80)\n    /* \"contracts/daostack/controller/Reputation.sol\":716:742  uint8 public decimals = 18 */\n  0x00\n  dup1\n  sload\n  not(shl(0xa0, 0xff))\n  and\n  shl(0xa1, 0x09)\n  or\n  swap1\n  sstore\n    /* \"openzeppelin-solidity/contracts/ownership/Ownable.sol\":707:719  _msgSender() */\n  tag_5\n    /* \"openzeppelin-solidity/contracts/ownership/Ownable.sol\":707:717  _msgSender */\n  tag_6\n    /* \"openzeppelin-solidity/contracts/ownership/Ownable.sol\":707:719  _msgSender() */\n  jump\t// in\ntag_5:\n    /* \"openzeppelin-solidity/contracts/ownership/Ownable.sol\":698:704  _owner */\n  0x00\n    /* \"openzeppelin-solidity/contracts/ownership/Ownable.sol\":698:719  _owner = _msgSender() */\n  dup1\n  sload\n  not(sub(shl(0xa0, 0x01), 0x01))\n  and\n  sub(shl(0xa0, 0x01), 0x01)\n  swap3\n  dup4\n  and\n  or\n  dup1\n  dup3\n  sstore\n    /* \"openzeppelin-solidity/contracts/ownership/Ownable.sol\":734:774  OwnershipTransferred(address(0), _owner) */\n  mload(0x40)\n    /* \"openzeppelin-solidity/contracts/ownership/Ownable.sol\":767:773  _owner */\n  swap3\n  and\n  swap2\n    /* \"openzeppelin-solidity/contracts/ownership/Ownable.sol\":734:774  OwnershipTransferred(address(0), _owner) */\n  0x8be0079c531659141344cd1fd0a4f28419497f9722a3daafe3b4186f6b6457e0\n  swap1\n    /* \"openzeppelin-solidity/contracts/ownership/Ownable.sol\":698:704  _owner */\n  dup3\n  swap1\n    /* \"openzeppelin-solidity/contracts/ownership/Ownable.sol\":734:774  OwnershipTransferred(address(0), _owner) */\n  log3\n    /* \"contracts/daostack/controller/Reputation.sol\":678:8513  contract Reputation is Ownable {\r... */\n  jump(tag_7)\n    /* \"openzeppelin-solidity/contracts/GSN/Context.sol\":788:884  function _msgSender() internal view returns (address payable) {... */\ntag_6:\n    /* \"openzeppelin-solidity/contracts/GSN/Context.sol\":867:877  msg.sender */\n  caller\n    /* \"openzeppelin-solidity/contracts/GSN/Context.sol\":788:884  function _msgSender() internal view returns (address payable) {... */\n  swap1\n  jump\t// out\n    /* \"contracts/daostack/controller/Reputation.sol\":678:8513  contract Reputation is Ownable {\r... */\ntag_7:\n  dataSize(sub_0)\n  dup1\n  dataOffset(sub_0)\n  0x00\n  codecopy\n  0x00\n  return\nstop\n\nsub_0: assembly {\n        /* \"contracts/daostack/controller/Reputation.sol\":678:8513  contract Reputation is Ownable {\r... */\n      mstore(0x40, 0x80)\n      callvalue\n        /* \"--CODEGEN--\":8:17   */\n      dup1\n        /* \"--CODEGEN--\":5:7   */\n      iszero\n      tag_1\n      jumpi\n        /* \"--CODEGEN--\":30:31   */\n      0x00\n        /* \"--CODEGEN--\":27:28   */\n      dup1\n        /* \"--CODEGEN--\":20:32   */\n      revert\n        /* \"--CODEGEN--\":5:7   */\n    tag_1:\n        /* \"contracts/daostack/controller/Reputation.sol\":678:8513  contract Reputation is Ownable {\r... */\n      pop\n      jumpi(tag_2, lt(calldatasize, 0x04))\n      shr(0xe0, calldataload(0x00))\n      dup1\n      0x07ea5477\n      eq\n      tag_3\n      jumpi\n      dup1\n      0x18160ddd\n      eq\n      tag_4\n      jumpi\n      dup1\n      0x313ce567\n      eq\n      tag_5\n      jumpi\n      dup1\n      0x40c10f19\n      eq\n      tag_6\n      jumpi\n      dup1\n      0x4ee2cd7e\n      eq\n      tag_7\n      jumpi\n      dup1\n      0x70a08231\n      eq\n      tag_8\n      jumpi\n      dup1\n      0x715018a6\n      eq\n      tag_9\n      jumpi\n      dup1\n      0x8da5cb5b\n      eq\n      tag_10\n      jumpi\n      dup1\n      0x8f32d59b\n      eq\n      tag_11\n      jumpi\n      dup1\n      0x981b24d0\n      eq\n      tag_12\n      jumpi\n      dup1\n      0x9dc29fac\n      eq\n      tag_13\n      jumpi\n      dup1\n      0xf2fde38b\n      eq\n      tag_14\n      jumpi\n    tag_2:\n      0x00\n      dup1\n      revert\n        /* \"contracts/daostack/controller/Reputation.sol\":2939:3650  function mintMultiple(address[] memory _user, uint256[] memory _amount) public onlyOwner returns (bool) {\r... */\n    tag_3:\n      tag_15\n      0x04\n      dup1\n      calldatasize\n      sub\n        /* \"--CODEGEN--\":13:15   */\n      0x40\n        /* \"--CODEGEN--\":8:11   */\n      dup2\n        /* \"--CODEGEN--\":5:16   */\n      lt\n        /* \"--CODEGEN--\":2:4   */\n      iszero\n      tag_16\n      jumpi\n        /* \"--CODEGEN--\":29:30   */\n      0x00\n        /* \"--CODEGEN--\":26:27   */\n      dup1\n        /* \"--CODEGEN--\":19:31   */\n      revert\n        /* \"--CODEGEN--\":2:4   */\n    tag_16:\n        /* \"contracts/daostack/controller/Reputation.sol\":2939:3650  function mintMultiple(address[] memory _user, uint256[] memory _amount) public onlyOwner returns (bool) {\r... */\n      dup2\n      add\n      swap1\n      0x20\n      dup2\n      add\n      dup2\n      calldataload\n      shl(0x20, 0x01)\n        /* \"--CODEGEN--\":5:33   */\n      dup2\n      gt\n        /* \"--CODEGEN--\":2:4   */\n      iszero\n      tag_17\n      jumpi\n        /* \"--CODEGEN--\":46:47   */\n      0x00\n        /* \"--CODEGEN--\":43:44   */\n      dup1\n        /* \"--CODEGEN--\":36:48   */\n      revert\n        /* \"--CODEGEN--\":2:4   */\n    tag_17:\n        /* \"contracts/daostack/controller/Reputation.sol\":2939:3650  function mintMultiple(address[] memory _user, uint256[] memory _amount) public onlyOwner returns (bool) {\r... */\n      dup3\n      add\n        /* \"--CODEGEN--\":35:44   */\n      dup4\n        /* \"--CODEGEN--\":28:32   */\n      0x20\n        /* \"--CODEGEN--\":12:26   */\n      dup3\n        /* \"--CODEGEN--\":8:33   */\n      add\n        /* \"--CODEGEN--\":5:45   */\n      gt\n        /* \"--CODEGEN--\":2:4   */\n      iszero\n      tag_18\n      jumpi\n        /* \"--CODEGEN--\":58:59   */\n      0x00\n        /* \"--CODEGEN--\":55:56   */\n      dup1\n        /* \"--CODEGEN--\":48:60   */\n      revert\n        /* \"--CODEGEN--\":2:4   */\n    tag_18:\n        /* \"contracts/daostack/controller/Reputation.sol\":2939:3650  function mintMultiple(address[] memory _user, uint256[] memory _amount) public onlyOwner returns (bool) {\r... */\n      dup1\n      calldataload\n      swap1\n      0x20\n      add\n      swap2\n        /* \"--CODEGEN--\":101:110   */\n      dup5\n        /* \"--CODEGEN--\":95:97   */\n      0x20\n        /* \"--CODEGEN--\":81:93   */\n      dup4\n        /* \"--CODEGEN--\":77:98   */\n      mul\n        /* \"--CODEGEN--\":67:75   */\n      dup5\n        /* \"--CODEGEN--\":63:99   */\n      add\n        /* \"--CODEGEN--\":60:111   */\n      gt\n      shl(0x20, 0x01)\n        /* \"--CODEGEN--\":25:37   */\n      dup4\n        /* \"--CODEGEN--\":22:51   */\n      gt\n        /* \"--CODEGEN--\":11:119   */\n      or\n        /* \"--CODEGEN--\":8:10   */\n      iszero\n      tag_19\n      jumpi\n        /* \"--CODEGEN--\":132:133   */\n      0x00\n        /* \"--CODEGEN--\":129:130   */\n      dup1\n        /* \"--CODEGEN--\":122:134   */\n      revert\n        /* \"--CODEGEN--\":8:10   */\n    tag_19:\n        /* \"contracts/daostack/controller/Reputation.sol\":2939:3650  function mintMultiple(address[] memory _user, uint256[] memory _amount) public onlyOwner returns (bool) {\r... */\n      swap2\n      swap1\n      dup1\n      dup1\n      0x20\n      mul\n      0x20\n      add\n      mload(0x40)\n      swap1\n      dup2\n      add\n      0x40\n      mstore\n      dup1\n      swap4\n      swap3\n      swap2\n      swap1\n      dup2\n      dup2\n      mstore\n      0x20\n      add\n      dup4\n      dup4\n      0x20\n      mul\n        /* \"--CODEGEN--\":30:33   */\n      dup1\n        /* \"--CODEGEN--\":22:28   */\n      dup3\n        /* \"--CODEGEN--\":14:20   */\n      dup5\n        /* \"--CODEGEN--\":1:34   */\n      calldatacopy\n        /* \"--CODEGEN--\":99:100   */\n      0x00\n        /* \"--CODEGEN--\":81:97   */\n      swap3\n      add\n        /* \"--CODEGEN--\":74:101   */\n      swap2\n      swap1\n      swap2\n      mstore\n      pop\n        /* \"contracts/daostack/controller/Reputation.sol\":2939:3650  function mintMultiple(address[] memory _user, uint256[] memory _amount) public onlyOwner returns (bool) {\r... */\n      swap3\n      swap6\n      swap5\n      swap4\n      0x20\n      dup2\n      add\n      swap4\n      pop\n      calldataload\n      swap2\n      pop\n      pop\n      shl(0x20, 0x01)\n        /* \"--CODEGEN--\":5:33   */\n      dup2\n      gt\n        /* \"--CODEGEN--\":2:4   */\n      iszero\n      tag_20\n      jumpi\n        /* \"--CODEGEN--\":46:47   */\n      0x00\n        /* \"--CODEGEN--\":43:44   */\n      dup1\n        /* \"--CODEGEN--\":36:48   */\n      revert\n        /* \"--CODEGEN--\":2:4   */\n    tag_20:\n        /* \"contracts/daostack/controller/Reputation.sol\":2939:3650  function mintMultiple(address[] memory _user, uint256[] memory _amount) public onlyOwner returns (bool) {\r... */\n      dup3\n      add\n        /* \"--CODEGEN--\":35:44   */\n      dup4\n        /* \"--CODEGEN--\":28:32   */\n      0x20\n        /* \"--CODEGEN--\":12:26   */\n      dup3\n        /* \"--CODEGEN--\":8:33   */\n      add\n        /* \"--CODEGEN--\":5:45   */\n      gt\n        /* \"--CODEGEN--\":2:4   */\n      iszero\n      tag_21\n      jumpi\n        /* \"--CODEGEN--\":58:59   */\n      0x00\n        /* \"--CODEGEN--\":55:56   */\n      dup1\n        /* \"--CODEGEN--\":48:60   */\n      revert\n        /* \"--CODEGEN--\":2:4   */\n    tag_21:\n        /* \"contracts/daostack/controller/Reputation.sol\":2939:3650  function mintMultiple(address[] memory _user, uint256[] memory _amount) public onlyOwner returns (bool) {\r... */\n      dup1\n      calldataload\n      swap1\n      0x20\n      add\n      swap2\n        /* \"--CODEGEN--\":101:110   */\n      dup5\n        /* \"--CODEGEN--\":95:97   */\n      0x20\n        /* \"--CODEGEN--\":81:93   */\n      dup4\n        /* \"--CODEGEN--\":77:98   */\n      mul\n        /* \"--CODEGEN--\":67:75   */\n      dup5\n        /* \"--CODEGEN--\":63:99   */\n      add\n        /* \"--CODEGEN--\":60:111   */\n      gt\n      shl(0x20, 0x01)\n        /* \"--CODEGEN--\":25:37   */\n      dup4\n        /* \"--CODEGEN--\":22:51   */\n      gt\n        /* \"--CODEGEN--\":11:119   */\n      or\n        /* \"--CODEGEN--\":8:10   */\n      iszero\n      tag_22\n      jumpi\n        /* \"--CODEGEN--\":132:133   */\n      0x00\n        /* \"--CODEGEN--\":129:130   */\n      dup1\n        /* \"--CODEGEN--\":122:134   */\n      revert\n        /* \"--CODEGEN--\":8:10   */\n    tag_22:\n        /* \"contracts/daostack/controller/Reputation.sol\":2939:3650  function mintMultiple(address[] memory _user, uint256[] memory _amount) public onlyOwner returns (bool) {\r... */\n      swap2\n      swap1\n      dup1\n      dup1\n      0x20\n      mul\n      0x20\n      add\n      mload(0x40)\n      swap1\n      dup2\n      add\n      0x40\n      mstore\n      dup1\n      swap4\n      swap3\n      swap2\n      swap1\n      dup2\n      dup2\n      mstore\n      0x20\n      add\n      dup4\n      dup4\n      0x20\n      mul\n        /* \"--CODEGEN--\":30:33   */\n      dup1\n        /* \"--CODEGEN--\":22:28   */\n      dup3\n        /* \"--CODEGEN--\":14:20   */\n      dup5\n        /* \"--CODEGEN--\":1:34   */\n      calldatacopy\n        /* \"--CODEGEN--\":99:100   */\n      0x00\n        /* \"--CODEGEN--\":81:97   */\n      swap3\n      add\n        /* \"--CODEGEN--\":74:101   */\n      swap2\n      swap1\n      swap2\n      mstore\n      pop\n        /* \"contracts/daostack/controller/Reputation.sol\":2939:3650  function mintMultiple(address[] memory _user, uint256[] memory _amount) public onlyOwner returns (bool) {\r... */\n      swap3\n      swap6\n      pop\n      tag_23\n      swap5\n      pop\n      pop\n      pop\n      pop\n      pop\n      jump\t// in\n    tag_15:\n      0x40\n      dup1\n      mload\n      swap2\n      iszero\n      iszero\n      dup3\n      mstore\n      mload\n      swap1\n      dup2\n      swap1\n      sub\n      0x20\n      add\n      swap1\n      return\n        /* \"contracts/daostack/controller/Reputation.sol\":4595:4701  function totalSupply() public view returns (uint256) {\r... */\n    tag_4:\n      tag_24\n      tag_25\n      jump\t// in\n    tag_24:\n      0x40\n      dup1\n      mload\n      swap2\n      dup3\n      mstore\n      mload\n      swap1\n      dup2\n      swap1\n      sub\n      0x20\n      add\n      swap1\n      return\n        /* \"contracts/daostack/controller/Reputation.sol\":716:742  uint8 public decimals = 18 */\n    tag_5:\n      tag_26\n      tag_27\n      jump\t// in\n    tag_26:\n      0x40\n      dup1\n      mload\n      0xff\n      swap1\n      swap3\n      and\n      dup3\n      mstore\n      mload\n      swap1\n      dup2\n      swap1\n      sub\n      0x20\n      add\n      swap1\n      return\n        /* \"contracts/daostack/controller/Reputation.sol\":2089:2657  function mint(address _user, uint256 _amount) public onlyOwner returns (bool) {\r... */\n    tag_6:\n      tag_15\n      0x04\n      dup1\n      calldatasize\n      sub\n        /* \"--CODEGEN--\":13:15   */\n      0x40\n        /* \"--CODEGEN--\":8:11   */\n      dup2\n        /* \"--CODEGEN--\":5:16   */\n      lt\n        /* \"--CODEGEN--\":2:4   */\n      iszero\n      tag_29\n      jumpi\n        /* \"--CODEGEN--\":29:30   */\n      0x00\n        /* \"--CODEGEN--\":26:27   */\n      dup1\n        /* \"--CODEGEN--\":19:31   */\n      revert\n        /* \"--CODEGEN--\":2:4   */\n    tag_29:\n      pop\n      sub(shl(0xa0, 0x01), 0x01)\n        /* \"contracts/daostack/controller/Reputation.sol\":2089:2657  function mint(address _user, uint256 _amount) public onlyOwner returns (bool) {\r... */\n      dup2\n      calldataload\n      and\n      swap1\n      0x20\n      add\n      calldataload\n      tag_30\n      jump\t// in\n        /* \"contracts/daostack/controller/Reputation.sol\":5977:6366  function balanceOfAt(address _owner, uint256 _blockNumber) public view returns (uint256) {\r... */\n    tag_7:\n      tag_24\n      0x04\n      dup1\n      calldatasize\n      sub\n        /* \"--CODEGEN--\":13:15   */\n      0x40\n        /* \"--CODEGEN--\":8:11   */\n      dup2\n        /* \"--CODEGEN--\":5:16   */\n      lt\n        /* \"--CODEGEN--\":2:4   */\n      iszero\n      tag_32\n      jumpi\n        /* \"--CODEGEN--\":29:30   */\n      0x00\n        /* \"--CODEGEN--\":26:27   */\n      dup1\n        /* \"--CODEGEN--\":19:31   */\n      revert\n        /* \"--CODEGEN--\":2:4   */\n    tag_32:\n      pop\n      sub(shl(0xa0, 0x01), 0x01)\n        /* \"contracts/daostack/controller/Reputation.sol\":5977:6366  function balanceOfAt(address _owner, uint256 _blockNumber) public view returns (uint256) {\r... */\n      dup2\n      calldataload\n      and\n      swap1\n      0x20\n      add\n      calldataload\n      tag_33\n      jump\t// in\n        /* \"contracts/daostack/controller/Reputation.sol\":4961:5093  function balanceOf(address _owner) public view returns (uint256 balance) {\r... */\n    tag_8:\n      tag_24\n      0x04\n      dup1\n      calldatasize\n      sub\n        /* \"--CODEGEN--\":13:15   */\n      0x20\n        /* \"--CODEGEN--\":8:11   */\n      dup2\n        /* \"--CODEGEN--\":5:16   */\n      lt\n        /* \"--CODEGEN--\":2:4   */\n      iszero\n      tag_35\n      jumpi\n        /* \"--CODEGEN--\":29:30   */\n      0x00\n        /* \"--CODEGEN--\":26:27   */\n      dup1\n        /* \"--CODEGEN--\":19:31   */\n      revert\n        /* \"--CODEGEN--\":2:4   */\n    tag_35:\n      pop\n        /* \"contracts/daostack/controller/Reputation.sol\":4961:5093  function balanceOf(address _owner) public view returns (uint256 balance) {\r... */\n      calldataload\n      sub(shl(0xa0, 0x01), 0x01)\n      and\n      tag_36\n      jump\t// in\n        /* \"openzeppelin-solidity/contracts/ownership/Ownable.sol\":1642:1779  function renounceOwnership() public onlyOwner {... */\n    tag_9:\n      tag_37\n      tag_38\n      jump\t// in\n    tag_37:\n      stop\n        /* \"openzeppelin-solidity/contracts/ownership/Ownable.sol\":857:934  function owner() public view returns (address) {... */\n    tag_10:\n      tag_39\n      tag_40\n      jump\t// in\n    tag_39:\n      0x40\n      dup1\n      mload\n      sub(shl(0xa0, 0x01), 0x01)\n      swap1\n      swap3\n      and\n      dup3\n      mstore\n      mload\n      swap1\n      dup2\n      swap1\n      sub\n      0x20\n      add\n      swap1\n      return\n        /* \"openzeppelin-solidity/contracts/ownership/Ownable.sol\":1208:1300  function isOwner() public view returns (bool) {... */\n    tag_11:\n      tag_15\n      tag_42\n      jump\t// in\n        /* \"contracts/daostack/controller/Reputation.sol\":5316:5701  function totalSupplyAt(uint256 _blockNumber) public view returns (uint256) {\r... */\n    tag_12:\n      tag_24\n      0x04\n      dup1\n      calldatasize\n      sub\n        /* \"--CODEGEN--\":13:15   */\n      0x20\n        /* \"--CODEGEN--\":8:11   */\n      dup2\n        /* \"--CODEGEN--\":5:16   */\n      lt\n        /* \"--CODEGEN--\":2:4   */\n      iszero\n      tag_44\n      jumpi\n        /* \"--CODEGEN--\":29:30   */\n      0x00\n        /* \"--CODEGEN--\":26:27   */\n      dup1\n        /* \"--CODEGEN--\":19:31   */\n      revert\n        /* \"--CODEGEN--\":2:4   */\n    tag_44:\n      pop\n        /* \"contracts/daostack/controller/Reputation.sol\":5316:5701  function totalSupplyAt(uint256 _blockNumber) public view returns (uint256) {\r... */\n      calldataload\n      tag_45\n      jump\t// in\n        /* \"contracts/daostack/controller/Reputation.sol\":3896:4461  function burn(address _user, uint256 _amount) public onlyOwner returns (bool) {\r... */\n    tag_13:\n      tag_15\n      0x04\n      dup1\n      calldatasize\n      sub\n        /* \"--CODEGEN--\":13:15   */\n      0x40\n        /* \"--CODEGEN--\":8:11   */\n      dup2\n        /* \"--CODEGEN--\":5:16   */\n      lt\n        /* \"--CODEGEN--\":2:4   */\n      iszero\n      tag_47\n      jumpi\n        /* \"--CODEGEN--\":29:30   */\n      0x00\n        /* \"--CODEGEN--\":26:27   */\n      dup1\n        /* \"--CODEGEN--\":19:31   */\n      revert\n        /* \"--CODEGEN--\":2:4   */\n    tag_47:\n      pop\n      sub(shl(0xa0, 0x01), 0x01)\n        /* \"contracts/daostack/controller/Reputation.sol\":3896:4461  function burn(address _user, uint256 _amount) public onlyOwner returns (bool) {\r... */\n      dup2\n      calldataload\n      and\n      swap1\n      0x20\n      add\n      calldataload\n      tag_48\n      jump\t// in\n        /* \"openzeppelin-solidity/contracts/ownership/Ownable.sol\":1928:2035  function transferOwnership(address newOwner) public onlyOwner {... */\n    tag_14:\n      tag_37\n      0x04\n      dup1\n      calldatasize\n      sub\n        /* \"--CODEGEN--\":13:15   */\n      0x20\n        /* \"--CODEGEN--\":8:11   */\n      dup2\n        /* \"--CODEGEN--\":5:16   */\n      lt\n        /* \"--CODEGEN--\":2:4   */\n      iszero\n      tag_50\n      jumpi\n        /* \"--CODEGEN--\":29:30   */\n      0x00\n        /* \"--CODEGEN--\":26:27   */\n      dup1\n        /* \"--CODEGEN--\":19:31   */\n      revert\n        /* \"--CODEGEN--\":2:4   */\n    tag_50:\n      pop\n        /* \"openzeppelin-solidity/contracts/ownership/Ownable.sol\":1928:2035  function transferOwnership(address newOwner) public onlyOwner {... */\n      calldataload\n      sub(shl(0xa0, 0x01), 0x01)\n      and\n      tag_51\n      jump\t// in\n        /* \"contracts/daostack/controller/Reputation.sol\":2939:3650  function mintMultiple(address[] memory _user, uint256[] memory _amount) public onlyOwner returns (bool) {\r... */\n    tag_23:\n        /* \"contracts/daostack/controller/Reputation.sol\":3037:3041  bool */\n      0x00\n        /* \"openzeppelin-solidity/contracts/ownership/Ownable.sol\":1061:1070  isOwner() */\n      tag_53\n        /* \"openzeppelin-solidity/contracts/ownership/Ownable.sol\":1061:1068  isOwner */\n      tag_42\n        /* \"openzeppelin-solidity/contracts/ownership/Ownable.sol\":1061:1070  isOwner() */\n      jump\t// in\n    tag_53:\n        /* \"openzeppelin-solidity/contracts/ownership/Ownable.sol\":1053:1107  require(isOwner(), \"Ownable: caller is not the owner\") */\n      tag_54\n      jumpi\n      0x40\n      dup1\n      mload\n      shl(0xe5, 0x461bcd)\n      dup2\n      mstore\n      0x20\n      0x04\n      dup3\n      add\n      dup2\n      swap1\n      mstore\n      0x24\n      dup3\n      add\n      mstore\n      0x00\n      dup1\n      mload\n      0x20\n      data_9924ebdf1add33d25d4ef888e16131f0a5687b0580a36c21b5c301a6c462effe\n      dup4\n      codecopy\n      dup2\n      mload\n      swap2\n      mstore\n      0x44\n      dup3\n      add\n      mstore\n      swap1\n      mload\n      swap1\n      dup2\n      swap1\n      sub\n      0x64\n      add\n      swap1\n      revert\n    tag_54:\n        /* \"contracts/daostack/controller/Reputation.sol\":3059:3068  uint256 i */\n      0x00\n        /* \"contracts/daostack/controller/Reputation.sol\":3054:3621  for (uint256 i = 0; i < _user.length; i++) {\r... */\n    tag_56:\n        /* \"contracts/daostack/controller/Reputation.sol\":3078:3083  _user */\n      dup4\n        /* \"contracts/daostack/controller/Reputation.sol\":3078:3090  _user.length */\n      mload\n        /* \"contracts/daostack/controller/Reputation.sol\":3074:3075  i */\n      dup2\n        /* \"contracts/daostack/controller/Reputation.sol\":3074:3090  i < _user.length */\n      lt\n        /* \"contracts/daostack/controller/Reputation.sol\":3054:3621  for (uint256 i = 0; i < _user.length; i++) {\r... */\n      iszero\n      tag_57\n      jumpi\n        /* \"contracts/daostack/controller/Reputation.sol\":3112:3134  uint256 curTotalSupply */\n      0x00\n        /* \"contracts/daostack/controller/Reputation.sol\":3137:3150  totalSupply() */\n      tag_59\n        /* \"contracts/daostack/controller/Reputation.sol\":3137:3148  totalSupply */\n      tag_25\n        /* \"contracts/daostack/controller/Reputation.sol\":3137:3150  totalSupply() */\n      jump\t// in\n    tag_59:\n        /* \"contracts/daostack/controller/Reputation.sol\":3112:3150  uint256 curTotalSupply = totalSupply() */\n      swap1\n      pop\n        /* \"contracts/daostack/controller/Reputation.sol\":3204:3218  curTotalSupply */\n      dup1\n        /* \"contracts/daostack/controller/Reputation.sol\":3190:3197  _amount */\n      dup5\n        /* \"contracts/daostack/controller/Reputation.sol\":3198:3199  i */\n      dup4\n        /* \"contracts/daostack/controller/Reputation.sol\":3190:3200  _amount[i] */\n      dup2\n      mload\n      dup2\n      lt\n      tag_60\n      jumpi\n      invalid\n    tag_60:\n      0x20\n      mul\n      0x20\n      add\n      add\n      mload\n        /* \"contracts/daostack/controller/Reputation.sol\":3173:3187  curTotalSupply */\n      dup3\n        /* \"contracts/daostack/controller/Reputation.sol\":3173:3200  curTotalSupply + _amount[i] */\n      add\n        /* \"contracts/daostack/controller/Reputation.sol\":3173:3218  curTotalSupply + _amount[i] >= curTotalSupply */\n      lt\n      iszero\n        /* \"contracts/daostack/controller/Reputation.sol\":3165:3219  require(curTotalSupply + _amount[i] >= curTotalSupply) */\n      tag_61\n      jumpi\n      0x00\n      dup1\n      revert\n    tag_61:\n        /* \"contracts/daostack/controller/Reputation.sol\":3256:3281  uint256 previousBalanceTo */\n      0x00\n        /* \"contracts/daostack/controller/Reputation.sol\":3284:3303  balanceOf(_user[i]) */\n      tag_62\n        /* \"contracts/daostack/controller/Reputation.sol\":3294:3299  _user */\n      dup7\n        /* \"contracts/daostack/controller/Reputation.sol\":3300:3301  i */\n      dup5\n        /* \"contracts/daostack/controller/Reputation.sol\":3294:3302  _user[i] */\n      dup2\n      mload\n      dup2\n      lt\n      tag_63\n      jumpi\n      invalid\n    tag_63:\n      0x20\n      mul\n      0x20\n      add\n      add\n      mload\n        /* \"contracts/daostack/controller/Reputation.sol\":3284:3293  balanceOf */\n      tag_36\n        /* \"contracts/daostack/controller/Reputation.sol\":3284:3303  balanceOf(_user[i]) */\n      jump\t// in\n    tag_62:\n        /* \"contracts/daostack/controller/Reputation.sol\":3256:3303  uint256 previousBalanceTo = balanceOf(_user[i]) */\n      swap1\n      pop\n        /* \"contracts/daostack/controller/Reputation.sol\":3360:3377  previousBalanceTo */\n      dup1\n        /* \"contracts/daostack/controller/Reputation.sol\":3346:3353  _amount */\n      dup6\n        /* \"contracts/daostack/controller/Reputation.sol\":3354:3355  i */\n      dup5\n        /* \"contracts/daostack/controller/Reputation.sol\":3346:3356  _amount[i] */\n      dup2\n      mload\n      dup2\n      lt\n      tag_64\n      jumpi\n      invalid\n    tag_64:\n      0x20\n      mul\n      0x20\n      add\n      add\n      mload\n        /* \"contracts/daostack/controller/Reputation.sol\":3326:3343  previousBalanceTo */\n      dup3\n        /* \"contracts/daostack/controller/Reputation.sol\":3326:3356  previousBalanceTo + _amount[i] */\n      add\n        /* \"contracts/daostack/controller/Reputation.sol\":3326:3377  previousBalanceTo + _amount[i] >= previousBalanceTo */\n      lt\n      iszero\n        /* \"contracts/daostack/controller/Reputation.sol\":3318:3378  require(previousBalanceTo + _amount[i] >= previousBalanceTo) */\n      tag_65\n      jumpi\n      0x00\n      dup1\n      revert\n    tag_65:\n        /* \"contracts/daostack/controller/Reputation.sol\":3415:3480  updateValueAtNow(totalSupplyHistory, curTotalSupply + _amount[i]) */\n      tag_66\n        /* \"contracts/daostack/controller/Reputation.sol\":3432:3450  totalSupplyHistory */\n      0x02\n        /* \"contracts/daostack/controller/Reputation.sol\":3469:3476  _amount */\n      dup7\n        /* \"contracts/daostack/controller/Reputation.sol\":3477:3478  i */\n      dup6\n        /* \"contracts/daostack/controller/Reputation.sol\":3469:3479  _amount[i] */\n      dup2\n      mload\n      dup2\n      lt\n      tag_67\n      jumpi\n      invalid\n    tag_67:\n      0x20\n      mul\n      0x20\n      add\n      add\n      mload\n        /* \"contracts/daostack/controller/Reputation.sol\":3452:3466  curTotalSupply */\n      dup5\n        /* \"contracts/daostack/controller/Reputation.sol\":3452:3479  curTotalSupply + _amount[i] */\n      add\n        /* \"contracts/daostack/controller/Reputation.sol\":3415:3431  updateValueAtNow */\n      tag_68\n        /* \"contracts/daostack/controller/Reputation.sol\":3415:3480  updateValueAtNow(totalSupplyHistory, curTotalSupply + _amount[i]) */\n      jump\t// in\n    tag_66:\n        /* \"contracts/daostack/controller/Reputation.sol\":3495:3563  updateValueAtNow(balances[_user[i]], previousBalanceTo + _amount[i]) */\n      tag_69\n        /* \"contracts/daostack/controller/Reputation.sol\":3512:3520  balances */\n      0x01\n        /* \"contracts/daostack/controller/Reputation.sol\":3512:3530  balances[_user[i]] */\n      0x00\n        /* \"contracts/daostack/controller/Reputation.sol\":3521:3526  _user */\n      dup9\n        /* \"contracts/daostack/controller/Reputation.sol\":3527:3528  i */\n      dup7\n        /* \"contracts/daostack/controller/Reputation.sol\":3521:3529  _user[i] */\n      dup2\n      mload\n      dup2\n      lt\n      tag_70\n      jumpi\n      invalid\n    tag_70:\n      0x20\n      mul\n      0x20\n      add\n      add\n      mload\n      sub(shl(0xa0, 0x01), 0x01)\n        /* \"contracts/daostack/controller/Reputation.sol\":3512:3530  balances[_user[i]] */\n      and\n      sub(shl(0xa0, 0x01), 0x01)\n      and\n      dup2\n      mstore\n      0x20\n      add\n      swap1\n      dup2\n      mstore\n      0x20\n      add\n      0x00\n      keccak256\n        /* \"contracts/daostack/controller/Reputation.sol\":3552:3559  _amount */\n      dup7\n        /* \"contracts/daostack/controller/Reputation.sol\":3560:3561  i */\n      dup6\n        /* \"contracts/daostack/controller/Reputation.sol\":3552:3562  _amount[i] */\n      dup2\n      mload\n      dup2\n      lt\n      tag_71\n      jumpi\n      invalid\n    tag_71:\n      0x20\n      mul\n      0x20\n      add\n      add\n      mload\n        /* \"contracts/daostack/controller/Reputation.sol\":3532:3549  previousBalanceTo */\n      dup4\n        /* \"contracts/daostack/controller/Reputation.sol\":3532:3562  previousBalanceTo + _amount[i] */\n      add\n        /* \"contracts/daostack/controller/Reputation.sol\":3495:3511  updateValueAtNow */\n      tag_68\n        /* \"contracts/daostack/controller/Reputation.sol\":3495:3563  updateValueAtNow(balances[_user[i]], previousBalanceTo + _amount[i]) */\n      jump\t// in\n    tag_69:\n        /* \"contracts/daostack/controller/Reputation.sol\":3588:3593  _user */\n      dup6\n        /* \"contracts/daostack/controller/Reputation.sol\":3594:3595  i */\n      dup4\n        /* \"contracts/daostack/controller/Reputation.sol\":3588:3596  _user[i] */\n      dup2\n      mload\n      dup2\n      lt\n      tag_72\n      jumpi\n      invalid\n    tag_72:\n      0x20\n      mul\n      0x20\n      add\n      add\n      mload\n      sub(shl(0xa0, 0x01), 0x01)\n        /* \"contracts/daostack/controller/Reputation.sol\":3583:3609  Mint(_user[i], _amount[i]) */\n      and\n      0x00\n      dup1\n      mload\n      0x20\n      data_faef6c4eb5d567b942c0732eb539a574877571781fcfe7e88ebbcacc7e2fa7ef\n      dup4\n      codecopy\n      dup2\n      mload\n      swap2\n      mstore\n        /* \"contracts/daostack/controller/Reputation.sol\":3598:3605  _amount */\n      dup7\n        /* \"contracts/daostack/controller/Reputation.sol\":3606:3607  i */\n      dup6\n        /* \"contracts/daostack/controller/Reputation.sol\":3598:3608  _amount[i] */\n      dup2\n      mload\n      dup2\n      lt\n      tag_73\n      jumpi\n      invalid\n    tag_73:\n      0x20\n      mul\n      0x20\n      add\n      add\n      mload\n        /* \"contracts/daostack/controller/Reputation.sol\":3583:3609  Mint(_user[i], _amount[i]) */\n      mload(0x40)\n      dup1\n      dup3\n      dup2\n      mstore\n      0x20\n      add\n      swap2\n      pop\n      pop\n      mload(0x40)\n      dup1\n      swap2\n      sub\n      swap1\n      log2\n      pop\n      pop\n        /* \"contracts/daostack/controller/Reputation.sol\":3092:3095  i++ */\n      0x01\n      add\n        /* \"contracts/daostack/controller/Reputation.sol\":3054:3621  for (uint256 i = 0; i < _user.length; i++) {\r... */\n      jump(tag_56)\n    tag_57:\n      pop\n        /* \"contracts/daostack/controller/Reputation.sol\":3638:3642  true */\n      0x01\n        /* \"contracts/daostack/controller/Reputation.sol\":3631:3642  return true */\n      swap1\n      pop\n        /* \"openzeppelin-solidity/contracts/ownership/Ownable.sol\":1117:1118  _ */\n    tag_55:\n        /* \"contracts/daostack/controller/Reputation.sol\":2939:3650  function mintMultiple(address[] memory _user, uint256[] memory _amount) public onlyOwner returns (bool) {\r... */\n      swap3\n      swap2\n      pop\n      pop\n      jump\t// out\n        /* \"contracts/daostack/controller/Reputation.sol\":4595:4701  function totalSupply() public view returns (uint256) {\r... */\n    tag_25:\n        /* \"contracts/daostack/controller/Reputation.sol\":4639:4646  uint256 */\n      0x00\n        /* \"contracts/daostack/controller/Reputation.sol\":4666:4693  totalSupplyAt(block.number) */\n      tag_75\n        /* \"contracts/daostack/controller/Reputation.sol\":4680:4692  block.number */\n      number\n        /* \"contracts/daostack/controller/Reputation.sol\":4666:4679  totalSupplyAt */\n      tag_45\n        /* \"contracts/daostack/controller/Reputation.sol\":4666:4693  totalSupplyAt(block.number) */\n      jump\t// in\n    tag_75:\n        /* \"contracts/daostack/controller/Reputation.sol\":4659:4693  return totalSupplyAt(block.number) */\n      swap1\n      pop\n        /* \"contracts/daostack/controller/Reputation.sol\":4595:4701  function totalSupply() public view returns (uint256) {\r... */\n    tag_74:\n      swap1\n      jump\t// out\n        /* \"contracts/daostack/controller/Reputation.sol\":716:742  uint8 public decimals = 18 */\n    tag_27:\n      sload(0x00)\n      shl(0xa0, 0x01)\n      swap1\n      div\n      0xff\n      and\n      dup2\n      jump\t// out\n        /* \"contracts/daostack/controller/Reputation.sol\":2089:2657  function mint(address _user, uint256 _amount) public onlyOwner returns (bool) {\r... */\n    tag_30:\n        /* \"contracts/daostack/controller/Reputation.sol\":2161:2165  bool */\n      0x00\n        /* \"openzeppelin-solidity/contracts/ownership/Ownable.sol\":1061:1070  isOwner() */\n      tag_77\n        /* \"openzeppelin-solidity/contracts/ownership/Ownable.sol\":1061:1068  isOwner */\n      tag_42\n        /* \"openzeppelin-solidity/contracts/ownership/Ownable.sol\":1061:1070  isOwner() */\n      jump\t// in\n    tag_77:\n        /* \"openzeppelin-solidity/contracts/ownership/Ownable.sol\":1053:1107  require(isOwner(), \"Ownable: caller is not the owner\") */\n      tag_78\n      jumpi\n      0x40\n      dup1\n      mload\n      shl(0xe5, 0x461bcd)\n      dup2\n      mstore\n      0x20\n      0x04\n      dup3\n      add\n      dup2\n      swap1\n      mstore\n      0x24\n      dup3\n      add\n      mstore\n      0x00\n      dup1\n      mload\n      0x20\n      data_9924ebdf1add33d25d4ef888e16131f0a5687b0580a36c21b5c301a6c462effe\n      dup4\n      codecopy\n      dup2\n      mload\n      swap2\n      mstore\n      0x44\n      dup3\n      add\n      mstore\n      swap1\n      mload\n      swap1\n      dup2\n      swap1\n      sub\n      0x64\n      add\n      swap1\n      revert\n    tag_78:\n        /* \"contracts/daostack/controller/Reputation.sol\":2178:2200  uint256 curTotalSupply */\n      0x00\n        /* \"contracts/daostack/controller/Reputation.sol\":2203:2216  totalSupply() */\n      tag_80\n        /* \"contracts/daostack/controller/Reputation.sol\":2203:2214  totalSupply */\n      tag_25\n        /* \"contracts/daostack/controller/Reputation.sol\":2203:2216  totalSupply() */\n      jump\t// in\n    tag_80:\n        /* \"contracts/daostack/controller/Reputation.sol\":2178:2216  uint256 curTotalSupply = totalSupply() */\n      swap1\n      pop\n        /* \"contracts/daostack/controller/Reputation.sol\":2263:2277  curTotalSupply */\n      dup1\n        /* \"contracts/daostack/controller/Reputation.sol\":2252:2259  _amount */\n      dup4\n        /* \"contracts/daostack/controller/Reputation.sol\":2235:2249  curTotalSupply */\n      dup3\n        /* \"contracts/daostack/controller/Reputation.sol\":2235:2259  curTotalSupply + _amount */\n      add\n        /* \"contracts/daostack/controller/Reputation.sol\":2235:2277  curTotalSupply + _amount >= curTotalSupply */\n      lt\n      iszero\n        /* \"contracts/daostack/controller/Reputation.sol\":2227:2278  require(curTotalSupply + _amount >= curTotalSupply) */\n      tag_81\n      jumpi\n      0x00\n      dup1\n      revert\n    tag_81:\n        /* \"contracts/daostack/controller/Reputation.sol\":2311:2336  uint256 previousBalanceTo */\n      0x00\n        /* \"contracts/daostack/controller/Reputation.sol\":2339:2355  balanceOf(_user) */\n      tag_82\n        /* \"contracts/daostack/controller/Reputation.sol\":2349:2354  _user */\n      dup6\n        /* \"contracts/daostack/controller/Reputation.sol\":2339:2348  balanceOf */\n      tag_36\n        /* \"contracts/daostack/controller/Reputation.sol\":2339:2355  balanceOf(_user) */\n      jump\t// in\n    tag_82:\n        /* \"contracts/daostack/controller/Reputation.sol\":2311:2355  uint256 previousBalanceTo = balanceOf(_user) */\n      swap1\n      pop\n        /* \"contracts/daostack/controller/Reputation.sol\":2405:2422  previousBalanceTo */\n      dup1\n        /* \"contracts/daostack/controller/Reputation.sol\":2394:2401  _amount */\n      dup5\n        /* \"contracts/daostack/controller/Reputation.sol\":2374:2391  previousBalanceTo */\n      dup3\n        /* \"contracts/daostack/controller/Reputation.sol\":2374:2401  previousBalanceTo + _amount */\n      add\n        /* \"contracts/daostack/controller/Reputation.sol\":2374:2422  previousBalanceTo + _amount >= previousBalanceTo */\n      lt\n      iszero\n        /* \"contracts/daostack/controller/Reputation.sol\":2366:2423  require(previousBalanceTo + _amount >= previousBalanceTo) */\n      tag_83\n      jumpi\n      0x00\n      dup1\n      revert\n    tag_83:\n        /* \"contracts/daostack/controller/Reputation.sol\":2456:2518  updateValueAtNow(totalSupplyHistory, curTotalSupply + _amount) */\n      tag_84\n        /* \"contracts/daostack/controller/Reputation.sol\":2473:2491  totalSupplyHistory */\n      0x02\n        /* \"contracts/daostack/controller/Reputation.sol\":2510:2517  _amount */\n      dup6\n        /* \"contracts/daostack/controller/Reputation.sol\":2493:2507  curTotalSupply */\n      dup5\n        /* \"contracts/daostack/controller/Reputation.sol\":2493:2517  curTotalSupply + _amount */\n      add\n        /* \"contracts/daostack/controller/Reputation.sol\":2456:2472  updateValueAtNow */\n      tag_68\n        /* \"contracts/daostack/controller/Reputation.sol\":2456:2518  updateValueAtNow(totalSupplyHistory, curTotalSupply + _amount) */\n      jump\t// in\n    tag_84:\n      sub(shl(0xa0, 0x01), 0x01)\n        /* \"contracts/daostack/controller/Reputation.sol\":2546:2561  balances[_user] */\n      dup6\n      and\n      0x00\n      swap1\n      dup2\n      mstore\n        /* \"contracts/daostack/controller/Reputation.sol\":2546:2554  balances */\n      0x01\n        /* \"contracts/daostack/controller/Reputation.sol\":2546:2561  balances[_user] */\n      0x20\n      mstore\n      0x40\n      swap1\n      keccak256\n        /* \"contracts/daostack/controller/Reputation.sol\":2529:2591  updateValueAtNow(balances[_user], previousBalanceTo + _amount) */\n      tag_85\n      swap1\n        /* \"contracts/daostack/controller/Reputation.sol\":2563:2590  previousBalanceTo + _amount */\n      dup3\n      dup7\n      add\n        /* \"contracts/daostack/controller/Reputation.sol\":2529:2545  updateValueAtNow */\n      tag_68\n        /* \"contracts/daostack/controller/Reputation.sol\":2529:2591  updateValueAtNow(balances[_user], previousBalanceTo + _amount) */\n      jump\t// in\n    tag_85:\n        /* \"contracts/daostack/controller/Reputation.sol\":2607:2627  Mint(_user, _amount) */\n      0x40\n      dup1\n      mload\n      dup6\n      dup2\n      mstore\n      swap1\n      mload\n      sub(shl(0xa0, 0x01), 0x01)\n      dup8\n      and\n      swap2\n      0x00\n      dup1\n      mload\n      0x20\n      data_faef6c4eb5d567b942c0732eb539a574877571781fcfe7e88ebbcacc7e2fa7ef\n      dup4\n      codecopy\n      dup2\n      mload\n      swap2\n      mstore\n      swap2\n      swap1\n      dup2\n      swap1\n      sub\n      0x20\n      add\n      swap1\n      log2\n      pop\n        /* \"contracts/daostack/controller/Reputation.sol\":2645:2649  true */\n      0x01\n      swap5\n        /* \"contracts/daostack/controller/Reputation.sol\":2089:2657  function mint(address _user, uint256 _amount) public onlyOwner returns (bool) {\r... */\n      swap4\n      pop\n      pop\n      pop\n      pop\n      jump\t// out\n        /* \"contracts/daostack/controller/Reputation.sol\":5977:6366  function balanceOfAt(address _owner, uint256 _blockNumber) public view returns (uint256) {\r... */\n    tag_33:\n      sub(shl(0xa0, 0x01), 0x01)\n        /* \"contracts/daostack/controller/Reputation.sol\":6082:6098  balances[_owner] */\n      dup3\n      and\n        /* \"contracts/daostack/controller/Reputation.sol\":6057:6064  uint256 */\n      0x00\n        /* \"contracts/daostack/controller/Reputation.sol\":6082:6098  balances[_owner] */\n      swap1\n      dup2\n      mstore\n        /* \"contracts/daostack/controller/Reputation.sol\":6082:6090  balances */\n      0x01\n        /* \"contracts/daostack/controller/Reputation.sol\":6082:6098  balances[_owner] */\n      0x20\n      mstore\n      0x40\n      dup2\n      keccak256\n        /* \"contracts/daostack/controller/Reputation.sol\":6082:6105  balances[_owner].length */\n      sload\n        /* \"contracts/daostack/controller/Reputation.sol\":6082:6110  balances[_owner].length == 0 */\n      iszero\n      dup1\n        /* \"contracts/daostack/controller/Reputation.sol\":6081:6161  (balances[_owner].length == 0) || (balances[_owner][0].fromBlock > _blockNumber) */\n      tag_87\n      jumpi\n      pop\n      sub(shl(0xa0, 0x01), 0x01)\n        /* \"contracts/daostack/controller/Reputation.sol\":6116:6132  balances[_owner] */\n      dup4\n      and\n      0x00\n      swap1\n      dup2\n      mstore\n        /* \"contracts/daostack/controller/Reputation.sol\":6116:6124  balances */\n      0x01\n        /* \"contracts/daostack/controller/Reputation.sol\":6116:6132  balances[_owner] */\n      0x20\n      mstore\n      0x40\n      dup2\n      keccak256\n        /* \"contracts/daostack/controller/Reputation.sol\":6116:6135  balances[_owner][0] */\n      dup1\n      sload\n        /* \"contracts/daostack/controller/Reputation.sol\":6148:6160  _blockNumber */\n      dup5\n      swap3\n        /* \"contracts/daostack/controller/Reputation.sol\":6116:6132  balances[_owner] */\n      swap1\n        /* \"contracts/daostack/controller/Reputation.sol\":6116:6135  balances[_owner][0] */\n      tag_88\n      jumpi\n      invalid\n    tag_88:\n      0x00\n      swap2\n      dup3\n      mstore\n      0x20\n      swap1\n      swap2\n      keccak256\n      add\n        /* \"contracts/daostack/controller/Reputation.sol\":6116:6145  balances[_owner][0].fromBlock */\n      sload\n      sub(shl(0x80, 0x01), 0x01)\n      and\n        /* \"contracts/daostack/controller/Reputation.sol\":6116:6160  balances[_owner][0].fromBlock > _blockNumber */\n      gt\n        /* \"contracts/daostack/controller/Reputation.sol\":6081:6161  (balances[_owner].length == 0) || (balances[_owner][0].fromBlock > _blockNumber) */\n    tag_87:\n        /* \"contracts/daostack/controller/Reputation.sol\":6077:6359  if ((balances[_owner].length == 0) || (balances[_owner][0].fromBlock > _blockNumber)) {\r... */\n      iszero\n      tag_90\n      jumpi\n      pop\n        /* \"contracts/daostack/controller/Reputation.sol\":6185:6186  0 */\n      0x00\n        /* \"contracts/daostack/controller/Reputation.sol\":6178:6186  return 0 */\n      jump(tag_55)\n        /* \"contracts/daostack/controller/Reputation.sol\":6077:6359  if ((balances[_owner].length == 0) || (balances[_owner][0].fromBlock > _blockNumber)) {\r... */\n    tag_90:\n      sub(shl(0xa0, 0x01), 0x01)\n        /* \"contracts/daostack/controller/Reputation.sol\":6316:6332  balances[_owner] */\n      dup4\n      and\n      0x00\n      swap1\n      dup2\n      mstore\n        /* \"contracts/daostack/controller/Reputation.sol\":6316:6324  balances */\n      0x01\n        /* \"contracts/daostack/controller/Reputation.sol\":6316:6332  balances[_owner] */\n      0x20\n      mstore\n      0x40\n      swap1\n      keccak256\n        /* \"contracts/daostack/controller/Reputation.sol\":6305:6347  getValueAt(balances[_owner], _blockNumber) */\n      tag_92\n      swap1\n        /* \"contracts/daostack/controller/Reputation.sol\":6334:6346  _blockNumber */\n      dup4\n        /* \"contracts/daostack/controller/Reputation.sol\":6305:6315  getValueAt */\n      tag_93\n        /* \"contracts/daostack/controller/Reputation.sol\":6305:6347  getValueAt(balances[_owner], _blockNumber) */\n      jump\t// in\n    tag_92:\n        /* \"contracts/daostack/controller/Reputation.sol\":6298:6347  return getValueAt(balances[_owner], _blockNumber) */\n      swap1\n      pop\n      jump(tag_55)\n        /* \"contracts/daostack/controller/Reputation.sol\":4961:5093  function balanceOf(address _owner) public view returns (uint256 balance) {\r... */\n    tag_36:\n        /* \"contracts/daostack/controller/Reputation.sol\":5017:5032  uint256 balance */\n      0x00\n        /* \"contracts/daostack/controller/Reputation.sol\":5052:5085  balanceOfAt(_owner, block.number) */\n      tag_95\n        /* \"contracts/daostack/controller/Reputation.sol\":5064:5070  _owner */\n      dup3\n        /* \"contracts/daostack/controller/Reputation.sol\":5072:5084  block.number */\n      number\n        /* \"contracts/daostack/controller/Reputation.sol\":5052:5063  balanceOfAt */\n      tag_33\n        /* \"contracts/daostack/controller/Reputation.sol\":5052:5085  balanceOfAt(_owner, block.number) */\n      jump\t// in\n    tag_95:\n        /* \"contracts/daostack/controller/Reputation.sol\":5045:5085  return balanceOfAt(_owner, block.number) */\n      swap1\n      pop\n        /* \"contracts/daostack/controller/Reputation.sol\":4961:5093  function balanceOf(address _owner) public view returns (uint256 balance) {\r... */\n    tag_94:\n      swap2\n      swap1\n      pop\n      jump\t// out\n        /* \"openzeppelin-solidity/contracts/ownership/Ownable.sol\":1642:1779  function renounceOwnership() public onlyOwner {... */\n    tag_38:\n        /* \"openzeppelin-solidity/contracts/ownership/Ownable.sol\":1061:1070  isOwner() */\n      tag_97\n        /* \"openzeppelin-solidity/contracts/ownership/Ownable.sol\":1061:1068  isOwner */\n      tag_42\n        /* \"openzeppelin-solidity/contracts/ownership/Ownable.sol\":1061:1070  isOwner() */\n      jump\t// in\n    tag_97:\n        /* \"openzeppelin-solidity/contracts/ownership/Ownable.sol\":1053:1107  require(isOwner(), \"Ownable: caller is not the owner\") */\n      tag_98\n      jumpi\n      0x40\n      dup1\n      mload\n      shl(0xe5, 0x461bcd)\n      dup2\n      mstore\n      0x20\n      0x04\n      dup3\n      add\n      dup2\n      swap1\n      mstore\n      0x24\n      dup3\n      add\n      mstore\n      0x00\n      dup1\n      mload\n      0x20\n      data_9924ebdf1add33d25d4ef888e16131f0a5687b0580a36c21b5c301a6c462effe\n      dup4\n      codecopy\n      dup2\n      mload\n      swap2\n      mstore\n      0x44\n      dup3\n      add\n      mstore\n      swap1\n      mload\n      swap1\n      dup2\n      swap1\n      sub\n      0x64\n      add\n      swap1\n      revert\n    tag_98:\n        /* \"openzeppelin-solidity/contracts/ownership/Ownable.sol\":1740:1741  0 */\n      0x00\n        /* \"openzeppelin-solidity/contracts/ownership/Ownable.sol\":1724:1730  _owner */\n      dup1\n      sload\n        /* \"openzeppelin-solidity/contracts/ownership/Ownable.sol\":1703:1743  OwnershipTransferred(_owner, address(0)) */\n      mload(0x40)\n      sub(shl(0xa0, 0x01), 0x01)\n        /* \"openzeppelin-solidity/contracts/ownership/Ownable.sol\":1724:1730  _owner */\n      swap1\n      swap2\n      and\n      swap1\n      0x00\n      dup1\n      mload\n      0x20\n      data_9c064737b570a74c2bac5d21056d93ac53115214216cd14d4a0fc9b60be81231\n      dup4\n      codecopy\n      dup2\n      mload\n      swap2\n      mstore\n        /* \"openzeppelin-solidity/contracts/ownership/Ownable.sol\":1703:1743  OwnershipTransferred(_owner, address(0)) */\n      swap1\n        /* \"openzeppelin-solidity/contracts/ownership/Ownable.sol\":1740:1741  0 */\n      dup4\n      swap1\n        /* \"openzeppelin-solidity/contracts/ownership/Ownable.sol\":1703:1743  OwnershipTransferred(_owner, address(0)) */\n      log3\n        /* \"openzeppelin-solidity/contracts/ownership/Ownable.sol\":1770:1771  0 */\n      0x00\n        /* \"openzeppelin-solidity/contracts/ownership/Ownable.sol\":1753:1772  _owner = address(0) */\n      dup1\n      sload\n      not(sub(shl(0xa0, 0x01), 0x01))\n      and\n      swap1\n      sstore\n        /* \"openzeppelin-solidity/contracts/ownership/Ownable.sol\":1642:1779  function renounceOwnership() public onlyOwner {... */\n      jump\t// out\n        /* \"openzeppelin-solidity/contracts/ownership/Ownable.sol\":857:934  function owner() public view returns (address) {... */\n    tag_40:\n        /* \"openzeppelin-solidity/contracts/ownership/Ownable.sol\":895:902  address */\n      0x00\n        /* \"openzeppelin-solidity/contracts/ownership/Ownable.sol\":921:927  _owner */\n      sload\n      sub(shl(0xa0, 0x01), 0x01)\n      and\n        /* \"openzeppelin-solidity/contracts/ownership/Ownable.sol\":857:934  function owner() public view returns (address) {... */\n      swap1\n      jump\t// out\n        /* \"openzeppelin-solidity/contracts/ownership/Ownable.sol\":1208:1300  function isOwner() public view returns (bool) {... */\n    tag_42:\n        /* \"openzeppelin-solidity/contracts/ownership/Ownable.sol\":1248:1252  bool */\n      0x00\n        /* \"openzeppelin-solidity/contracts/ownership/Ownable.sol\":1287:1293  _owner */\n      dup1\n      sload\n      sub(shl(0xa0, 0x01), 0x01)\n      and\n        /* \"openzeppelin-solidity/contracts/ownership/Ownable.sol\":1271:1283  _msgSender() */\n      tag_102\n        /* \"openzeppelin-solidity/contracts/ownership/Ownable.sol\":1271:1281  _msgSender */\n      tag_103\n        /* \"openzeppelin-solidity/contracts/ownership/Ownable.sol\":1271:1283  _msgSender() */\n      jump\t// in\n    tag_102:\n      sub(shl(0xa0, 0x01), 0x01)\n        /* \"openzeppelin-solidity/contracts/ownership/Ownable.sol\":1271:1293  _msgSender() == _owner */\n      and\n      eq\n        /* \"openzeppelin-solidity/contracts/ownership/Ownable.sol\":1264:1293  return _msgSender() == _owner */\n      swap1\n      pop\n        /* \"openzeppelin-solidity/contracts/ownership/Ownable.sol\":1208:1300  function isOwner() public view returns (bool) {... */\n      swap1\n      jump\t// out\n        /* \"contracts/daostack/controller/Reputation.sol\":5316:5701  function totalSupplyAt(uint256 _blockNumber) public view returns (uint256) {\r... */\n    tag_45:\n        /* \"contracts/daostack/controller/Reputation.sol\":5407:5425  totalSupplyHistory */\n      0x02\n        /* \"contracts/daostack/controller/Reputation.sol\":5407:5432  totalSupplyHistory.length */\n      sload\n        /* \"contracts/daostack/controller/Reputation.sol\":5382:5389  uint256 */\n      0x00\n      swap1\n        /* \"contracts/daostack/controller/Reputation.sol\":5407:5437  totalSupplyHistory.length == 0 */\n      iszero\n      dup1\n        /* \"contracts/daostack/controller/Reputation.sol\":5406:5490  (totalSupplyHistory.length == 0) || (totalSupplyHistory[0].fromBlock > _blockNumber) */\n      tag_105\n      jumpi\n      pop\n        /* \"contracts/daostack/controller/Reputation.sol\":5477:5489  _blockNumber */\n      dup2\n        /* \"contracts/daostack/controller/Reputation.sol\":5443:5461  totalSupplyHistory */\n      0x02\n        /* \"contracts/daostack/controller/Reputation.sol\":5462:5463  0 */\n      0x00\n        /* \"contracts/daostack/controller/Reputation.sol\":5443:5464  totalSupplyHistory[0] */\n      dup2\n      sload\n      dup2\n      lt\n      tag_106\n      jumpi\n      invalid\n    tag_106:\n      0x00\n      swap2\n      dup3\n      mstore\n      0x20\n      swap1\n      swap2\n      keccak256\n      add\n        /* \"contracts/daostack/controller/Reputation.sol\":5443:5474  totalSupplyHistory[0].fromBlock */\n      sload\n      sub(shl(0x80, 0x01), 0x01)\n      and\n        /* \"contracts/daostack/controller/Reputation.sol\":5443:5489  totalSupplyHistory[0].fromBlock > _blockNumber */\n      gt\n        /* \"contracts/daostack/controller/Reputation.sol\":5406:5490  (totalSupplyHistory.length == 0) || (totalSupplyHistory[0].fromBlock > _blockNumber) */\n    tag_105:\n        /* \"contracts/daostack/controller/Reputation.sol\":5402:5694  if ((totalSupplyHistory.length == 0) || (totalSupplyHistory[0].fromBlock > _blockNumber)) {\r... */\n      iszero\n      tag_108\n      jumpi\n      pop\n        /* \"contracts/daostack/controller/Reputation.sol\":5514:5515  0 */\n      0x00\n        /* \"contracts/daostack/controller/Reputation.sol\":5507:5515  return 0 */\n      jump(tag_94)\n        /* \"contracts/daostack/controller/Reputation.sol\":5402:5694  if ((totalSupplyHistory.length == 0) || (totalSupplyHistory[0].fromBlock > _blockNumber)) {\r... */\n    tag_108:\n        /* \"contracts/daostack/controller/Reputation.sol\":5638:5682  getValueAt(totalSupplyHistory, _blockNumber) */\n      tag_110\n        /* \"contracts/daostack/controller/Reputation.sol\":5649:5667  totalSupplyHistory */\n      0x02\n        /* \"contracts/daostack/controller/Reputation.sol\":5669:5681  _blockNumber */\n      dup4\n        /* \"contracts/daostack/controller/Reputation.sol\":5638:5648  getValueAt */\n      tag_93\n        /* \"contracts/daostack/controller/Reputation.sol\":5638:5682  getValueAt(totalSupplyHistory, _blockNumber) */\n      jump\t// in\n    tag_110:\n        /* \"contracts/daostack/controller/Reputation.sol\":5631:5682  return getValueAt(totalSupplyHistory, _blockNumber) */\n      swap1\n      pop\n      jump(tag_94)\n        /* \"contracts/daostack/controller/Reputation.sol\":3896:4461  function burn(address _user, uint256 _amount) public onlyOwner returns (bool) {\r... */\n    tag_48:\n        /* \"contracts/daostack/controller/Reputation.sol\":3968:3972  bool */\n      0x00\n        /* \"openzeppelin-solidity/contracts/ownership/Ownable.sol\":1061:1070  isOwner() */\n      tag_112\n        /* \"openzeppelin-solidity/contracts/ownership/Ownable.sol\":1061:1068  isOwner */\n      tag_42\n        /* \"openzeppelin-solidity/contracts/ownership/Ownable.sol\":1061:1070  isOwner() */\n      jump\t// in\n    tag_112:\n        /* \"openzeppelin-solidity/contracts/ownership/Ownable.sol\":1053:1107  require(isOwner(), \"Ownable: caller is not the owner\") */\n      tag_113\n      jumpi\n      0x40\n      dup1\n      mload\n      shl(0xe5, 0x461bcd)\n      dup2\n      mstore\n      0x20\n      0x04\n      dup3\n      add\n      dup2\n      swap1\n      mstore\n      0x24\n      dup3\n      add\n      mstore\n      0x00\n      dup1\n      mload\n      0x20\n      data_9924ebdf1add33d25d4ef888e16131f0a5687b0580a36c21b5c301a6c462effe\n      dup4\n      codecopy\n      dup2\n      mload\n      swap2\n      mstore\n      0x44\n      dup3\n      add\n      mstore\n      swap1\n      mload\n      swap1\n      dup2\n      swap1\n      sub\n      0x64\n      add\n      swap1\n      revert\n    tag_113:\n        /* \"contracts/daostack/controller/Reputation.sol\":3985:4007  uint256 curTotalSupply */\n      0x00\n        /* \"contracts/daostack/controller/Reputation.sol\":4010:4023  totalSupply() */\n      tag_115\n        /* \"contracts/daostack/controller/Reputation.sol\":4010:4021  totalSupply */\n      tag_25\n        /* \"contracts/daostack/controller/Reputation.sol\":4010:4023  totalSupply() */\n      jump\t// in\n    tag_115:\n        /* \"contracts/daostack/controller/Reputation.sol\":3985:4023  uint256 curTotalSupply = totalSupply() */\n      swap1\n      pop\n        /* \"contracts/daostack/controller/Reputation.sol\":4057:4064  _amount */\n      dup3\n        /* \"contracts/daostack/controller/Reputation.sol\":4034:4054  uint256 amountBurned */\n      0x00\n        /* \"contracts/daostack/controller/Reputation.sol\":4105:4121  balanceOf(_user) */\n      tag_116\n        /* \"contracts/daostack/controller/Reputation.sol\":4115:4120  _user */\n      dup7\n        /* \"contracts/daostack/controller/Reputation.sol\":4105:4114  balanceOf */\n      tag_36\n        /* \"contracts/daostack/controller/Reputation.sol\":4105:4121  balanceOf(_user) */\n      jump\t// in\n    tag_116:\n        /* \"contracts/daostack/controller/Reputation.sol\":4075:4121  uint256 previousBalanceFrom = balanceOf(_user) */\n      swap1\n      pop\n        /* \"contracts/daostack/controller/Reputation.sol\":4158:4170  amountBurned */\n      dup2\n        /* \"contracts/daostack/controller/Reputation.sol\":4136:4155  previousBalanceFrom */\n      dup2\n        /* \"contracts/daostack/controller/Reputation.sol\":4136:4170  previousBalanceFrom < amountBurned */\n      lt\n        /* \"contracts/daostack/controller/Reputation.sol\":4132:4233  if (previousBalanceFrom < amountBurned) {\r... */\n      iszero\n      tag_117\n      jumpi\n        /* \"contracts/daostack/controller/Reputation.sol\":4202:4221  previousBalanceFrom */\n      dup1\n        /* \"contracts/daostack/controller/Reputation.sol\":4187:4221  amountBurned = previousBalanceFrom */\n      swap2\n      pop\n        /* \"contracts/daostack/controller/Reputation.sol\":4132:4233  if (previousBalanceFrom < amountBurned) {\r... */\n    tag_117:\n        /* \"contracts/daostack/controller/Reputation.sol\":4243:4310  updateValueAtNow(totalSupplyHistory, curTotalSupply - amountBurned) */\n      tag_118\n        /* \"contracts/daostack/controller/Reputation.sol\":4260:4278  totalSupplyHistory */\n      0x02\n        /* \"contracts/daostack/controller/Reputation.sol\":4297:4309  amountBurned */\n      dup4\n        /* \"contracts/daostack/controller/Reputation.sol\":4280:4294  curTotalSupply */\n      dup6\n        /* \"contracts/daostack/controller/Reputation.sol\":4280:4309  curTotalSupply - amountBurned */\n      sub\n        /* \"contracts/daostack/controller/Reputation.sol\":4243:4259  updateValueAtNow */\n      tag_68\n        /* \"contracts/daostack/controller/Reputation.sol\":4243:4310  updateValueAtNow(totalSupplyHistory, curTotalSupply - amountBurned) */\n      jump\t// in\n    tag_118:\n      sub(shl(0xa0, 0x01), 0x01)\n        /* \"contracts/daostack/controller/Reputation.sol\":4338:4353  balances[_user] */\n      dup7\n      and\n      0x00\n      swap1\n      dup2\n      mstore\n        /* \"contracts/daostack/controller/Reputation.sol\":4338:4346  balances */\n      0x01\n        /* \"contracts/daostack/controller/Reputation.sol\":4338:4353  balances[_user] */\n      0x20\n      mstore\n      0x40\n      swap1\n      keccak256\n        /* \"contracts/daostack/controller/Reputation.sol\":4321:4390  updateValueAtNow(balances[_user], previousBalanceFrom - amountBurned) */\n      tag_119\n      swap1\n        /* \"contracts/daostack/controller/Reputation.sol\":4355:4389  previousBalanceFrom - amountBurned */\n      dup4\n      dup4\n      sub\n        /* \"contracts/daostack/controller/Reputation.sol\":4321:4337  updateValueAtNow */\n      tag_68\n        /* \"contracts/daostack/controller/Reputation.sol\":4321:4390  updateValueAtNow(balances[_user], previousBalanceFrom - amountBurned) */\n      jump\t// in\n    tag_119:\n        /* \"contracts/daostack/controller/Reputation.sol\":4406:4431  Burn(_user, amountBurned) */\n      0x40\n      dup1\n      mload\n      dup4\n      dup2\n      mstore\n      swap1\n      mload\n      sub(shl(0xa0, 0x01), 0x01)\n      dup9\n      and\n      swap2\n      0xcc16f5dbb4873280815c1ee09dbd06736cffcc184412cf7a71a0fdb75d397ca5\n      swap2\n      swap1\n      dup2\n      swap1\n      sub\n      0x20\n      add\n      swap1\n      log2\n      pop\n        /* \"contracts/daostack/controller/Reputation.sol\":4449:4453  true */\n      0x01\n      swap6\n        /* \"contracts/daostack/controller/Reputation.sol\":3896:4461  function burn(address _user, uint256 _amount) public onlyOwner returns (bool) {\r... */\n      swap5\n      pop\n      pop\n      pop\n      pop\n      pop\n      jump\t// out\n        /* \"openzeppelin-solidity/contracts/ownership/Ownable.sol\":1928:2035  function transferOwnership(address newOwner) public onlyOwner {... */\n    tag_51:\n        /* \"openzeppelin-solidity/contracts/ownership/Ownable.sol\":1061:1070  isOwner() */\n      tag_121\n        /* \"openzeppelin-solidity/contracts/ownership/Ownable.sol\":1061:1068  isOwner */\n      tag_42\n        /* \"openzeppelin-solidity/contracts/ownership/Ownable.sol\":1061:1070  isOwner() */\n      jump\t// in\n    tag_121:\n        /* \"openzeppelin-solidity/contracts/ownership/Ownable.sol\":1053:1107  require(isOwner(), \"Ownable: caller is not the owner\") */\n      tag_122\n      jumpi\n      0x40\n      dup1\n      mload\n      shl(0xe5, 0x461bcd)\n      dup2\n      mstore\n      0x20\n      0x04\n      dup3\n      add\n      dup2\n      swap1\n      mstore\n      0x24\n      dup3\n      add\n      mstore\n      0x00\n      dup1\n      mload\n      0x20\n      data_9924ebdf1add33d25d4ef888e16131f0a5687b0580a36c21b5c301a6c462effe\n      dup4\n      codecopy\n      dup2\n      mload\n      swap2\n      mstore\n      0x44\n      dup3\n      add\n      mstore\n      swap1\n      mload\n      swap1\n      dup2\n      swap1\n      sub\n      0x64\n      add\n      swap1\n      revert\n    tag_122:\n        /* \"openzeppelin-solidity/contracts/ownership/Ownable.sol\":2000:2028  _transferOwnership(newOwner) */\n      tag_124\n        /* \"openzeppelin-solidity/contracts/ownership/Ownable.sol\":2019:2027  newOwner */\n      dup2\n        /* \"openzeppelin-solidity/contracts/ownership/Ownable.sol\":2000:2018  _transferOwnership */\n      tag_125\n        /* \"openzeppelin-solidity/contracts/ownership/Ownable.sol\":2000:2028  _transferOwnership(newOwner) */\n      jump\t// in\n    tag_124:\n        /* \"openzeppelin-solidity/contracts/ownership/Ownable.sol\":1928:2035  function transferOwnership(address newOwner) public onlyOwner {... */\n      pop\n      jump\t// out\n        /* \"contracts/daostack/controller/Reputation.sol\":7857:8510  function updateValueAtNow(Checkpoint[] storage checkpoints, uint256 _value) internal {\r... */\n    tag_68:\n        /* \"contracts/daostack/controller/Reputation.sol\":7980:7986  _value */\n      dup1\n        /* \"contracts/daostack/controller/Reputation.sol\":7969:7975  _value */\n      dup2\n      sub(shl(0x80, 0x01), 0x01)\n        /* \"contracts/daostack/controller/Reputation.sol\":7961:7986  uint128(_value) == _value */\n      and\n      eq\n        /* \"contracts/daostack/controller/Reputation.sol\":7953:7987  require(uint128(_value) == _value) */\n      tag_127\n      jumpi\n      0x00\n      dup1\n      revert\n    tag_127:\n        /* \"contracts/daostack/controller/Reputation.sol\":8047:8065  checkpoints.length */\n      dup2\n      sload\n        /* \"contracts/daostack/controller/Reputation.sol\":8047:8070  checkpoints.length == 0 */\n      iszero\n      dup1\n        /* \"contracts/daostack/controller/Reputation.sol\":8046:8137  (checkpoints.length == 0) || (checkpoints[checkpoints.length - 1].fromBlock < block.number) */\n      tag_128\n      jumpi\n      pop\n        /* \"contracts/daostack/controller/Reputation.sol\":8088:8106  checkpoints.length */\n      dup2\n      sload\n        /* \"contracts/daostack/controller/Reputation.sol\":8124:8136  block.number */\n      number\n      swap1\n        /* \"contracts/daostack/controller/Reputation.sol\":8076:8087  checkpoints */\n      dup4\n      swap1\n      not(0x00)\n        /* \"contracts/daostack/controller/Reputation.sol\":8088:8110  checkpoints.length - 1 */\n      dup2\n      add\n      swap1\n        /* \"contracts/daostack/controller/Reputation.sol\":8076:8111  checkpoints[checkpoints.length - 1] */\n      dup2\n      lt\n      tag_129\n      jumpi\n      invalid\n    tag_129:\n      0x00\n      swap2\n      dup3\n      mstore\n      0x20\n      swap1\n      swap2\n      keccak256\n      add\n        /* \"contracts/daostack/controller/Reputation.sol\":8076:8121  checkpoints[checkpoints.length - 1].fromBlock */\n      sload\n      sub(shl(0x80, 0x01), 0x01)\n      and\n        /* \"contracts/daostack/controller/Reputation.sol\":8076:8136  checkpoints[checkpoints.length - 1].fromBlock < block.number */\n      lt\n        /* \"contracts/daostack/controller/Reputation.sol\":8046:8137  (checkpoints.length == 0) || (checkpoints[checkpoints.length - 1].fromBlock < block.number) */\n    tag_128:\n        /* \"contracts/daostack/controller/Reputation.sol\":8042:8503  if ((checkpoints.length == 0) || (checkpoints[checkpoints.length - 1].fromBlock < block.number)) {\r... */\n      iszero\n      tag_131\n      jumpi\n        /* \"contracts/daostack/controller/Reputation.sol\":8201:8221  checkpoints.length++ */\n      dup2\n      sload\n        /* \"contracts/daostack/controller/Reputation.sol\":8154:8186  Checkpoint storage newCheckPoint */\n      0x00\n      swap1\n        /* \"contracts/daostack/controller/Reputation.sol\":8189:8200  checkpoints */\n      dup4\n      swap1\n        /* \"contracts/daostack/controller/Reputation.sol\":8201:8221  checkpoints.length++ */\n      tag_132\n        /* \"contracts/daostack/controller/Reputation.sol\":8189:8200  checkpoints */\n      dup3\n        /* \"contracts/daostack/controller/Reputation.sol\":8201:8221  checkpoints.length++ */\n      0x01\n      dup4\n      add\n      tag_133\n      jump\t// in\n    tag_132:\n        /* \"contracts/daostack/controller/Reputation.sol\":8189:8222  checkpoints[checkpoints.length++] */\n      dup2\n      sload\n      dup2\n      lt\n      tag_134\n      jumpi\n      invalid\n    tag_134:\n      0x00\n      swap2\n      dup3\n      mstore\n      0x20\n      swap1\n      swap2\n      keccak256\n      add\n        /* \"contracts/daostack/controller/Reputation.sol\":8237:8284  newCheckPoint.fromBlock = uint128(block.number) */\n      dup1\n      sload\n      sub(shl(0x80, 0x01), 0x01)\n        /* \"contracts/daostack/controller/Reputation.sol\":8299:8336  newCheckPoint.value = uint128(_value) */\n      dup5\n      dup2\n      and\n      shl(0x80, 0x01)\n      mul\n        /* \"contracts/daostack/controller/Reputation.sol\":8271:8283  block.number */\n      number\n        /* \"contracts/daostack/controller/Reputation.sol\":8237:8284  newCheckPoint.fromBlock = uint128(block.number) */\n      dup3\n      and\n      not(sub(shl(0x80, 0x01), 0x01))\n      swap1\n      swap4\n      and\n      swap3\n      swap1\n      swap3\n      or\n        /* \"contracts/daostack/controller/Reputation.sol\":8299:8336  newCheckPoint.value = uint128(_value) */\n      and\n      or\n      swap1\n      sstore\n      pop\n        /* \"contracts/daostack/controller/Reputation.sol\":8042:8503  if ((checkpoints.length == 0) || (checkpoints[checkpoints.length - 1].fromBlock < block.number)) {\r... */\n      jump(tag_136)\n    tag_131:\n        /* \"contracts/daostack/controller/Reputation.sol\":8416:8434  checkpoints.length */\n      dup2\n      sload\n        /* \"contracts/daostack/controller/Reputation.sol\":8369:8401  Checkpoint storage oldCheckPoint */\n      0x00\n      swap1\n        /* \"contracts/daostack/controller/Reputation.sol\":8404:8415  checkpoints */\n      dup4\n      swap1\n      not(0x00)\n        /* \"contracts/daostack/controller/Reputation.sol\":8416:8438  checkpoints.length - 1 */\n      dup2\n      add\n      swap1\n        /* \"contracts/daostack/controller/Reputation.sol\":8404:8439  checkpoints[checkpoints.length - 1] */\n      dup2\n      lt\n      tag_137\n      jumpi\n      invalid\n    tag_137:\n      0x00\n      swap2\n      dup3\n      mstore\n      0x20\n      swap1\n      swap2\n      keccak256\n      add\n        /* \"contracts/daostack/controller/Reputation.sol\":8454:8491  oldCheckPoint.value = uint128(_value) */\n      dup1\n      sload\n      sub(shl(0x80, 0x01), 0x01)\n      dup1\n      dup6\n      and\n      shl(0x80, 0x01)\n      mul\n      swap2\n      and\n      or\n      swap1\n      sstore\n      pop\n        /* \"contracts/daostack/controller/Reputation.sol\":8042:8503  if ((checkpoints.length == 0) || (checkpoints[checkpoints.length - 1].fromBlock < block.number)) {\r... */\n    tag_136:\n        /* \"contracts/daostack/controller/Reputation.sol\":7857:8510  function updateValueAtNow(Checkpoint[] storage checkpoints, uint256 _value) internal {\r... */\n      pop\n      pop\n      jump\t// out\n        /* \"contracts/daostack/controller/Reputation.sol\":6766:7633  function getValueAt(Checkpoint[] storage checkpoints, uint256 _block) internal view returns (uint256) {\r... */\n    tag_93:\n        /* \"contracts/daostack/controller/Reputation.sol\":6883:6901  checkpoints.length */\n      dup2\n      sload\n        /* \"contracts/daostack/controller/Reputation.sol\":6859:6866  uint256 */\n      0x00\n      swap1\n        /* \"contracts/daostack/controller/Reputation.sol\":6879:6943  if (checkpoints.length == 0) {\r... */\n      tag_140\n      jumpi\n      pop\n        /* \"contracts/daostack/controller/Reputation.sol\":6930:6931  0 */\n      0x00\n        /* \"contracts/daostack/controller/Reputation.sol\":6923:6931  return 0 */\n      jump(tag_55)\n        /* \"contracts/daostack/controller/Reputation.sol\":6879:6943  if (checkpoints.length == 0) {\r... */\n    tag_140:\n        /* \"contracts/daostack/controller/Reputation.sol\":7023:7041  checkpoints.length */\n      dup3\n      sload\n        /* \"contracts/daostack/controller/Reputation.sol\":7011:7022  checkpoints */\n      dup4\n      swap1\n      not(0x00)\n        /* \"contracts/daostack/controller/Reputation.sol\":7023:7045  checkpoints.length - 1 */\n      dup2\n      add\n      swap1\n        /* \"contracts/daostack/controller/Reputation.sol\":7011:7046  checkpoints[checkpoints.length - 1] */\n      dup2\n      lt\n      tag_141\n      jumpi\n      invalid\n    tag_141:\n      0x00\n      swap2\n      dup3\n      mstore\n      0x20\n      swap1\n      swap2\n      keccak256\n      add\n        /* \"contracts/daostack/controller/Reputation.sol\":7011:7056  checkpoints[checkpoints.length - 1].fromBlock */\n      sload\n      sub(shl(0x80, 0x01), 0x01)\n      and\n        /* \"contracts/daostack/controller/Reputation.sol\":7001:7056  _block >= checkpoints[checkpoints.length - 1].fromBlock */\n      dup3\n      lt\n        /* \"contracts/daostack/controller/Reputation.sol\":6997:7133  if (_block >= checkpoints[checkpoints.length - 1].fromBlock) {\r... */\n      tag_143\n      jumpi\n        /* \"contracts/daostack/controller/Reputation.sol\":7092:7110  checkpoints.length */\n      dup3\n      sload\n        /* \"contracts/daostack/controller/Reputation.sol\":7080:7091  checkpoints */\n      dup4\n      swap1\n      not(0x00)\n        /* \"contracts/daostack/controller/Reputation.sol\":7092:7114  checkpoints.length - 1 */\n      dup2\n      add\n      swap1\n        /* \"contracts/daostack/controller/Reputation.sol\":7080:7115  checkpoints[checkpoints.length - 1] */\n      dup2\n      lt\n      tag_144\n      jumpi\n      invalid\n    tag_144:\n      0x00\n      swap2\n      dup3\n      mstore\n      0x20\n      swap1\n      swap2\n      keccak256\n      add\n        /* \"contracts/daostack/controller/Reputation.sol\":7080:7121  checkpoints[checkpoints.length - 1].value */\n      sload\n      shl(0x80, 0x01)\n      swap1\n      div\n      sub(shl(0x80, 0x01), 0x01)\n      and\n      swap1\n      pop\n        /* \"contracts/daostack/controller/Reputation.sol\":7073:7121  return checkpoints[checkpoints.length - 1].value */\n      jump(tag_55)\n        /* \"contracts/daostack/controller/Reputation.sol\":6997:7133  if (_block >= checkpoints[checkpoints.length - 1].fromBlock) {\r... */\n    tag_143:\n        /* \"contracts/daostack/controller/Reputation.sol\":7156:7167  checkpoints */\n      dup3\n        /* \"contracts/daostack/controller/Reputation.sol\":7168:7169  0 */\n      0x00\n        /* \"contracts/daostack/controller/Reputation.sol\":7156:7170  checkpoints[0] */\n      dup2\n      sload\n      dup2\n      lt\n      tag_146\n      jumpi\n      invalid\n    tag_146:\n      0x00\n      swap2\n      dup3\n      mstore\n      0x20\n      swap1\n      swap2\n      keccak256\n      add\n        /* \"contracts/daostack/controller/Reputation.sol\":7156:7180  checkpoints[0].fromBlock */\n      sload\n      sub(shl(0x80, 0x01), 0x01)\n      and\n        /* \"contracts/daostack/controller/Reputation.sol\":7147:7180  _block < checkpoints[0].fromBlock */\n      dup3\n      lt\n        /* \"contracts/daostack/controller/Reputation.sol\":7143:7217  if (_block < checkpoints[0].fromBlock) {\r... */\n      iszero\n      tag_148\n      jumpi\n      pop\n        /* \"contracts/daostack/controller/Reputation.sol\":7204:7205  0 */\n      0x00\n        /* \"contracts/daostack/controller/Reputation.sol\":7197:7205  return 0 */\n      jump(tag_55)\n        /* \"contracts/daostack/controller/Reputation.sol\":7143:7217  if (_block < checkpoints[0].fromBlock) {\r... */\n    tag_148:\n        /* \"contracts/daostack/controller/Reputation.sol\":7321:7339  checkpoints.length */\n      dup3\n      sload\n        /* \"contracts/daostack/controller/Reputation.sol\":7281:7292  uint256 min */\n      0x00\n      swap1\n      not(0x00)\n        /* \"contracts/daostack/controller/Reputation.sol\":7321:7343  checkpoints.length - 1 */\n      add\n        /* \"contracts/daostack/controller/Reputation.sol\":7354:7586  while (max > min) {\r... */\n    tag_149:\n        /* \"contracts/daostack/controller/Reputation.sol\":7367:7370  min */\n      dup2\n        /* \"contracts/daostack/controller/Reputation.sol\":7361:7364  max */\n      dup2\n        /* \"contracts/daostack/controller/Reputation.sol\":7361:7370  max > min */\n      gt\n        /* \"contracts/daostack/controller/Reputation.sol\":7354:7586  while (max > min) {\r... */\n      iszero\n      tag_150\n      jumpi\n        /* \"contracts/daostack/controller/Reputation.sol\":7387:7398  uint256 mid */\n      0x00\n        /* \"contracts/daostack/controller/Reputation.sol\":7419:7420  2 */\n      0x02\n        /* \"contracts/daostack/controller/Reputation.sol\":7414:7415  1 */\n      0x01\n        /* \"contracts/daostack/controller/Reputation.sol\":7402:7411  max + min */\n      dup4\n      dup6\n      add\n        /* \"contracts/daostack/controller/Reputation.sol\":7402:7415  max + min + 1 */\n      add\n        /* \"contracts/daostack/controller/Reputation.sol\":7401:7420  (max + min + 1) / 2 */\n      div\n        /* \"contracts/daostack/controller/Reputation.sol\":7387:7420  uint256 mid = (max + min + 1) / 2 */\n      swap1\n      pop\n        /* \"contracts/daostack/controller/Reputation.sol\":7469:7475  _block */\n      dup5\n        /* \"contracts/daostack/controller/Reputation.sol\":7439:7450  checkpoints */\n      dup7\n        /* \"contracts/daostack/controller/Reputation.sol\":7451:7454  mid */\n      dup3\n        /* \"contracts/daostack/controller/Reputation.sol\":7439:7455  checkpoints[mid] */\n      dup2\n      sload\n      dup2\n      lt\n      tag_152\n      jumpi\n      invalid\n    tag_152:\n      0x00\n      swap2\n      dup3\n      mstore\n      0x20\n      swap1\n      swap2\n      keccak256\n      add\n        /* \"contracts/daostack/controller/Reputation.sol\":7439:7465  checkpoints[mid].fromBlock */\n      sload\n      sub(shl(0x80, 0x01), 0x01)\n      and\n        /* \"contracts/daostack/controller/Reputation.sol\":7439:7475  checkpoints[mid].fromBlock <= _block */\n      gt\n        /* \"contracts/daostack/controller/Reputation.sol\":7435:7575  if (checkpoints[mid].fromBlock <= _block) {\r... */\n      tag_154\n      jumpi\n        /* \"contracts/daostack/controller/Reputation.sol\":7502:7505  mid */\n      dup1\n        /* \"contracts/daostack/controller/Reputation.sol\":7496:7505  min = mid */\n      swap3\n      pop\n        /* \"contracts/daostack/controller/Reputation.sol\":7435:7575  if (checkpoints[mid].fromBlock <= _block) {\r... */\n      jump(tag_155)\n    tag_154:\n        /* \"contracts/daostack/controller/Reputation.sol\":7558:7559  1 */\n      0x01\n        /* \"contracts/daostack/controller/Reputation.sol\":7552:7555  mid */\n      dup2\n        /* \"contracts/daostack/controller/Reputation.sol\":7552:7559  mid - 1 */\n      sub\n        /* \"contracts/daostack/controller/Reputation.sol\":7546:7559  max = mid - 1 */\n      swap2\n      pop\n        /* \"contracts/daostack/controller/Reputation.sol\":7435:7575  if (checkpoints[mid].fromBlock <= _block) {\r... */\n    tag_155:\n        /* \"contracts/daostack/controller/Reputation.sol\":7354:7586  while (max > min) {\r... */\n      pop\n      jump(tag_149)\n    tag_150:\n        /* \"contracts/daostack/controller/Reputation.sol\":7603:7614  checkpoints */\n      dup5\n        /* \"contracts/daostack/controller/Reputation.sol\":7615:7618  min */\n      dup3\n        /* \"contracts/daostack/controller/Reputation.sol\":7603:7619  checkpoints[min] */\n      dup2\n      sload\n      dup2\n      lt\n      tag_156\n      jumpi\n      invalid\n    tag_156:\n      0x00\n      swap2\n      dup3\n      mstore\n      0x20\n      swap1\n      swap2\n      keccak256\n      add\n        /* \"contracts/daostack/controller/Reputation.sol\":7603:7625  checkpoints[min].value */\n      sload\n      shl(0x80, 0x01)\n      swap1\n      div\n      sub(shl(0x80, 0x01), 0x01)\n      and\n      swap6\n        /* \"contracts/daostack/controller/Reputation.sol\":6766:7633  function getValueAt(Checkpoint[] storage checkpoints, uint256 _block) internal view returns (uint256) {\r... */\n      swap5\n      pop\n      pop\n      pop\n      pop\n      pop\n      jump\t// out\n        /* \"openzeppelin-solidity/contracts/GSN/Context.sol\":788:884  function _msgSender() internal view returns (address payable) {... */\n    tag_103:\n        /* \"openzeppelin-solidity/contracts/GSN/Context.sol\":867:877  msg.sender */\n      caller\n        /* \"openzeppelin-solidity/contracts/GSN/Context.sol\":788:884  function _msgSender() internal view returns (address payable) {... */\n      swap1\n      jump\t// out\n        /* \"openzeppelin-solidity/contracts/ownership/Ownable.sol\":2136:2361  function _transferOwnership(address newOwner) internal {... */\n    tag_125:\n      sub(shl(0xa0, 0x01), 0x01)\n        /* \"openzeppelin-solidity/contracts/ownership/Ownable.sol\":2209:2231  newOwner != address(0) */\n      dup2\n      and\n        /* \"openzeppelin-solidity/contracts/ownership/Ownable.sol\":2201:2274  require(newOwner != address(0), \"Ownable: new owner is the zero address\") */\n      tag_160\n      jumpi\n      mload(0x40)\n      shl(0xe5, 0x461bcd)\n      dup2\n      mstore\n      0x04\n      add\n      dup1\n      dup1\n      0x20\n      add\n      dup3\n      dup2\n      sub\n      dup3\n      mstore\n      0x26\n      dup2\n      mstore\n      0x20\n      add\n      dup1\n      data_245f15ff17f551913a7a18385165551503906a406f905ac1c2437281a7cd0cfe\n      0x26\n      swap2\n      codecopy\n      0x40\n      add\n      swap2\n      pop\n      pop\n      mload(0x40)\n      dup1\n      swap2\n      sub\n      swap1\n      revert\n    tag_160:\n        /* \"openzeppelin-solidity/contracts/ownership/Ownable.sol\":2310:2316  _owner */\n      0x00\n      dup1\n      sload\n        /* \"openzeppelin-solidity/contracts/ownership/Ownable.sol\":2289:2327  OwnershipTransferred(_owner, newOwner) */\n      mload(0x40)\n      sub(shl(0xa0, 0x01), 0x01)\n      dup1\n      dup6\n      and\n      swap4\n        /* \"openzeppelin-solidity/contracts/ownership/Ownable.sol\":2310:2316  _owner */\n      swap3\n      and\n      swap2\n      0x00\n      dup1\n      mload\n      0x20\n      data_9c064737b570a74c2bac5d21056d93ac53115214216cd14d4a0fc9b60be81231\n      dup4\n      codecopy\n      dup2\n      mload\n      swap2\n      mstore\n        /* \"openzeppelin-solidity/contracts/ownership/Ownable.sol\":2289:2327  OwnershipTransferred(_owner, newOwner) */\n      swap2\n      log3\n        /* \"openzeppelin-solidity/contracts/ownership/Ownable.sol\":2337:2343  _owner */\n      0x00\n        /* \"openzeppelin-solidity/contracts/ownership/Ownable.sol\":2337:2354  _owner = newOwner */\n      dup1\n      sload\n      not(sub(shl(0xa0, 0x01), 0x01))\n      and\n      sub(shl(0xa0, 0x01), 0x01)\n      swap3\n      swap1\n      swap3\n      and\n      swap2\n      swap1\n      swap2\n      or\n      swap1\n      sstore\n        /* \"openzeppelin-solidity/contracts/ownership/Ownable.sol\":2136:2361  function _transferOwnership(address newOwner) internal {... */\n      jump\t// out\n        /* \"contracts/daostack/controller/Reputation.sol\":678:8513  contract Reputation is Ownable {\r... */\n    tag_133:\n      dup2\n      sload\n      dup2\n      dup4\n      sstore\n      dup2\n      dup2\n      gt\n      iszero\n      tag_162\n      jumpi\n      0x00\n      dup4\n      dup2\n      mstore\n      0x20\n      swap1\n      keccak256\n      tag_162\n      swap2\n      dup2\n      add\n      swap1\n      dup4\n      add\n      tag_163\n      jump\t// in\n    tag_162:\n      pop\n      pop\n      pop\n      jump\t// out\n    tag_163:\n      tag_74\n      swap2\n      swap1\n    tag_165:\n      dup1\n      dup3\n      gt\n      iszero\n      tag_166\n      jumpi\n      0x00\n      dup2\n      sstore\n      0x01\n      add\n      jump(tag_165)\n    tag_166:\n      pop\n      swap1\n      jump\n    stop\n    data_245f15ff17f551913a7a18385165551503906a406f905ac1c2437281a7cd0cfe 4f776e61626c653a206e6577206f776e657220697320746865207a65726f2061646472657373\n    data_9924ebdf1add33d25d4ef888e16131f0a5687b0580a36c21b5c301a6c462effe 4f776e61626c653a2063616c6c6572206973206e6f7420746865206f776e6572\n    data_9c064737b570a74c2bac5d21056d93ac53115214216cd14d4a0fc9b60be81231 8be0079c531659141344cd1fd0a4f28419497f9722a3daafe3b4186f6b6457e0\n    data_faef6c4eb5d567b942c0732eb539a574877571781fcfe7e88ebbcacc7e2fa7ef 0f6798a560793a54c3bcfe86a93cde1e73087d944c0ea20544137d4121396885\n\n    auxdata: 0xa265627a7a7231582076261cec79ecb6634ff710ad46c22acf8a9daa3a2412670b7679ff1c78afdd1964736f6c63430005110032\n}\n",
				"bytecode": {
					"linkReferences": {},
					"object": "60806040526000805460ff60a01b1916600960a11b17905561001f61006c565b600080546001600160a01b0319166001600160a01b03928316178082556040519216917f8be0079c531659141344cd1fd0a4f28419497f9722a3daafe3b4186f6b6457e0908290a3610070565b3390565b610c7a8061007f6000396000f3fe608060405234801561001057600080fd5b50600436106100a45760003560e01c806307ea5477146100a957806318160ddd146101e0578063313ce567146101fa57806340c10f19146102185780634ee2cd7e1461024457806370a0823114610270578063715018a6146102965780638da5cb5b146102a05780638f32d59b146102c4578063981b24d0146102cc5780639dc29fac146102e9578063f2fde38b14610315575b600080fd5b6101cc600480360360408110156100bf57600080fd5b810190602081018135600160201b8111156100d957600080fd5b8201836020820111156100eb57600080fd5b803590602001918460208302840111600160201b8311171561010c57600080fd5b9190808060200260200160405190810160405280939291908181526020018383602002808284376000920191909152509295949360208101935035915050600160201b81111561015b57600080fd5b82018360208201111561016d57600080fd5b803590602001918460208302840111600160201b8311171561018e57600080fd5b91908080602002602001604051908101604052809392919081815260200183836020028082843760009201919091525092955061033b945050505050565b604080519115158252519081900360200190f35b6101e86104e1565b60408051918252519081900360200190f35b6102026104f2565b6040805160ff9092168252519081900360200190f35b6101cc6004803603604081101561022e57600080fd5b506001600160a01b038135169060200135610502565b6101e86004803603604081101561025a57600080fd5b506001600160a01b0381351690602001356105eb565b6101e86004803603602081101561028657600080fd5b50356001600160a01b031661067b565b61029e61068f565b005b6102a861070e565b604080516001600160a01b039092168252519081900360200190f35b6101cc61071d565b6101e8600480360360208110156102e257600080fd5b5035610741565b6101cc600480360360408110156102ff57600080fd5b506001600160a01b038135169060200135610793565b61029e6004803603602081101561032b57600080fd5b50356001600160a01b031661087e565b600061034561071d565b610384576040805162461bcd60e51b81526020600482018190526024820152600080516020610be6833981519152604482015290519081900360640190fd5b60005b83518110156104d557600061039a6104e1565b9050808483815181106103a957fe5b6020026020010151820110156103be57600080fd5b60006103dc8684815181106103cf57fe5b602002602001015161067b565b9050808584815181106103eb57fe5b60200260200101518201101561040057600080fd5b610420600286858151811061041157fe5b602002602001015184016108d1565b6104766001600088868151811061043357fe5b60200260200101516001600160a01b03166001600160a01b0316815260200190815260200160002086858151811061046757fe5b602002602001015183016108d1565b85838151811061048257fe5b60200260200101516001600160a01b0316600080516020610c268339815191528685815181106104ae57fe5b60200260200101516040518082815260200191505060405180910390a25050600101610387565b50600190505b92915050565b60006104ec43610741565b90505b90565b600054600160a01b900460ff1681565b600061050c61071d565b61054b576040805162461bcd60e51b81526020600482018190526024820152600080516020610be6833981519152604482015290519081900360640190fd5b60006105556104e1565b905080838201101561056657600080fd5b60006105718561067b565b905080848201101561058257600080fd5b61058f60028584016108d1565b6001600160a01b03851660009081526001602052604090206105b3908286016108d1565b6040805185815290516001600160a01b03871691600080516020610c26833981519152919081900360200190a2506001949350505050565b6001600160a01b038216600090815260016020526040812054158061064557506001600160a01b0383166000908152600160205260408120805484929061062e57fe5b6000918252602090912001546001600160801b0316115b15610652575060006104db565b6001600160a01b038316600090815260016020526040902061067490836109b6565b90506104db565b600061068782436105eb565b90505b919050565b61069761071d565b6106d6576040805162461bcd60e51b81526020600482018190526024820152600080516020610be6833981519152604482015290519081900360640190fd5b600080546040516001600160a01b0390911690600080516020610c06833981519152908390a3600080546001600160a01b0319169055565b6000546001600160a01b031690565b600080546001600160a01b0316610732610ae6565b6001600160a01b031614905090565b6002546000901580610774575081600260008154811061075d57fe5b6000918252602090912001546001600160801b0316115b156107815750600061068a565b61078c6002836109b6565b905061068a565b600061079d61071d565b6107dc576040805162461bcd60e51b81526020600482018190526024820152600080516020610be6833981519152604482015290519081900360640190fd5b60006107e66104e1565b90508260006107f48661067b565b905081811015610802578091505b61080f60028385036108d1565b6001600160a01b0386166000908152600160205260409020610833908383036108d1565b6040805183815290516001600160a01b038816917fcc16f5dbb4873280815c1ee09dbd06736cffcc184412cf7a71a0fdb75d397ca5919081900360200190a250600195945050505050565b61088661071d565b6108c5576040805162461bcd60e51b81526020600482018190526024820152600080516020610be6833981519152604482015290519081900360640190fd5b6108ce81610aea565b50565b80816001600160801b0316146108e657600080fd5b8154158061091a5750815443908390600019810190811061090357fe5b6000918252602090912001546001600160801b0316105b1561097857815460009083906109338260018301610b78565b8154811061093d57fe5b600091825260209091200180546001600160801b03848116600160801b024382166001600160801b03199093169290921716179055506109b2565b81546000908390600019810190811061098d57fe5b600091825260209091200180546001600160801b03808516600160801b029116179055505b5050565b81546000906109c7575060006104db565b8254839060001981019081106109d957fe5b6000918252602090912001546001600160801b03168210610a2957825483906000198101908110610a0657fe5b600091825260209091200154600160801b90046001600160801b031690506104db565b82600081548110610a3657fe5b6000918252602090912001546001600160801b0316821015610a5a575060006104db565b8254600090600019015b81811115610ab5576000600260018385010104905084868281548110610a8657fe5b6000918252602090912001546001600160801b031611610aa857809250610aaf565b6001810391505b50610a64565b848281548110610ac157fe5b600091825260209091200154600160801b90046001600160801b031695945050505050565b3390565b6001600160a01b038116610b2f5760405162461bcd60e51b8152600401808060200182810382526026815260200180610bc06026913960400191505060405180910390fd5b600080546040516001600160a01b0380851693921691600080516020610c0683398151915291a3600080546001600160a01b0319166001600160a01b0392909216919091179055565b815481835581811115610b9c57600083815260209020610b9c918101908301610ba1565b505050565b6104ef91905b80821115610bbb5760008155600101610ba7565b509056fe4f776e61626c653a206e6577206f776e657220697320746865207a65726f20616464726573734f776e61626c653a2063616c6c6572206973206e6f7420746865206f776e65728be0079c531659141344cd1fd0a4f28419497f9722a3daafe3b4186f6b6457e00f6798a560793a54c3bcfe86a93cde1e73087d944c0ea20544137d4121396885a265627a7a7231582076261cec79ecb6634ff710ad46c22acf8a9daa3a2412670b7679ff1c78afdd1964736f6c63430005110032",
					"opcodes": "PUSH1 0x80 PUSH1 0x40 MSTORE PUSH1 0x0 DUP1 SLOAD PUSH1 0xFF PUSH1 0xA0 SHL NOT AND PUSH1 0x9 PUSH1 0xA1 SHL OR SWAP1 SSTORE PUSH2 0x1F PUSH2 0x6C JUMP JUMPDEST PUSH1 0x0 DUP1 SLOAD PUSH1 0x1 PUSH1 0x1 PUSH1 0xA0 SHL SUB NOT AND PUSH1 0x1 PUSH1 0x1 PUSH1 0xA0 SHL SUB SWAP3 DUP4 AND OR DUP1 DUP3 SSTORE PUSH1 0x40 MLOAD SWAP3 AND SWAP2 PUSH32 0x8BE0079C531659141344CD1FD0A4F28419497F9722A3DAAFE3B4186F6B6457E0 SWAP1 DUP3 SWAP1 LOG3 PUSH2 0x70 JUMP JUMPDEST CALLER SWAP1 JUMP JUMPDEST PUSH2 0xC7A DUP1 PUSH2 0x7F PUSH1 0x0 CODECOPY PUSH1 0x0 RETURN INVALID PUSH1 0x80 PUSH1 0x40 MSTORE CALLVALUE DUP1 ISZERO PUSH2 0x10 JUMPI PUSH1 0x0 DUP1 REVERT JUMPDEST POP PUSH1 0x4 CALLDATASIZE LT PUSH2 0xA4 JUMPI PUSH1 0x0 CALLDATALOAD PUSH1 0xE0 SHR DUP1 PUSH4 0x7EA5477 EQ PUSH2 0xA9 JUMPI DUP1 PUSH4 0x18160DDD EQ PUSH2 0x1E0 JUMPI DUP1 PUSH4 0x313CE567 EQ PUSH2 0x1FA JUMPI DUP1 PUSH4 0x40C10F19 EQ PUSH2 0x218 JUMPI DUP1 PUSH4 0x4EE2CD7E EQ PUSH2 0x244 JUMPI DUP1 PUSH4 0x70A08231 EQ PUSH2 0x270 JUMPI DUP1 PUSH4 0x715018A6 EQ PUSH2 0x296 JUMPI DUP1 PUSH4 0x8DA5CB5B EQ PUSH2 0x2A0 JUMPI DUP1 PUSH4 0x8F32D59B EQ PUSH2 0x2C4 JUMPI DUP1 PUSH4 0x981B24D0 EQ PUSH2 0x2CC JUMPI DUP1 PUSH4 0x9DC29FAC EQ PUSH2 0x2E9 JUMPI DUP1 PUSH4 0xF2FDE38B EQ PUSH2 0x315 JUMPI JUMPDEST PUSH1 0x0 DUP1 REVERT JUMPDEST PUSH2 0x1CC PUSH1 0x4 DUP1 CALLDATASIZE SUB PUSH1 0x40 DUP2 LT ISZERO PUSH2 0xBF JUMPI PUSH1 0x0 DUP1 REVERT JUMPDEST DUP2 ADD SWAP1 PUSH1 0x20 DUP2 ADD DUP2 CALLDATALOAD PUSH1 0x1 PUSH1 0x20 SHL DUP2 GT ISZERO PUSH2 0xD9 JUMPI PUSH1 0x0 DUP1 REVERT JUMPDEST DUP3 ADD DUP4 PUSH1 0x20 DUP3 ADD GT ISZERO PUSH2 0xEB JUMPI PUSH1 0x0 DUP1 REVERT JUMPDEST DUP1 CALLDATALOAD SWAP1 PUSH1 0x20 ADD SWAP2 DUP5 PUSH1 0x20 DUP4 MUL DUP5 ADD GT PUSH1 0x1 PUSH1 0x20 SHL DUP4 GT OR ISZERO PUSH2 0x10C JUMPI PUSH1 0x0 DUP1 REVERT JUMPDEST SWAP2 SWAP1 DUP1 DUP1 PUSH1 0x20 MUL PUSH1 0x20 ADD PUSH1 0x40 MLOAD SWAP1 DUP2 ADD PUSH1 0x40 MSTORE DUP1 SWAP4 SWAP3 SWAP2 SWAP1 DUP2 DUP2 MSTORE PUSH1 0x20 ADD DUP4 DUP4 PUSH1 0x20 MUL DUP1 DUP3 DUP5 CALLDATACOPY PUSH1 0x0 SWAP3 ADD SWAP2 SWAP1 SWAP2 MSTORE POP SWAP3 SWAP6 SWAP5 SWAP4 PUSH1 0x20 DUP2 ADD SWAP4 POP CALLDATALOAD SWAP2 POP POP PUSH1 0x1 PUSH1 0x20 SHL DUP2 GT ISZERO PUSH2 0x15B JUMPI PUSH1 0x0 DUP1 REVERT JUMPDEST DUP3 ADD DUP4 PUSH1 0x20 DUP3 ADD GT ISZERO PUSH2 0x16D JUMPI PUSH1 0x0 DUP1 REVERT JUMPDEST DUP1 CALLDATALOAD SWAP1 PUSH1 0x20 ADD SWAP2 DUP5 PUSH1 0x20 DUP4 MUL DUP5 ADD GT PUSH1 0x1 PUSH1 0x20 SHL DUP4 GT OR ISZERO PUSH2 0x18E JUMPI PUSH1 0x0 DUP1 REVERT JUMPDEST SWAP2 SWAP1 DUP1 DUP1 PUSH1 0x20 MUL PUSH1 0x20 ADD PUSH1 0x40 MLOAD SWAP1 DUP2 ADD PUSH1 0x40 MSTORE DUP1 SWAP4 SWAP3 SWAP2 SWAP1 DUP2 DUP2 MSTORE PUSH1 0x20 ADD DUP4 DUP4 PUSH1 0x20 MUL DUP1 DUP3 DUP5 CALLDATACOPY PUSH1 0x0 SWAP3 ADD SWAP2 SWAP1 SWAP2 MSTORE POP SWAP3 SWAP6 POP PUSH2 0x33B SWAP5 POP POP POP POP POP JUMP JUMPDEST PUSH1 0x40 DUP1 MLOAD SWAP2 ISZERO ISZERO DUP3 MSTORE MLOAD SWAP1 DUP2 SWAP1 SUB PUSH1 0x20 ADD SWAP1 RETURN JUMPDEST PUSH2 0x1E8 PUSH2 0x4E1 JUMP JUMPDEST PUSH1 0x40 DUP1 MLOAD SWAP2 DUP3 MSTORE MLOAD SWAP1 DUP2 SWAP1 SUB PUSH1 0x20 ADD SWAP1 RETURN JUMPDEST PUSH2 0x202 PUSH2 0x4F2 JUMP JUMPDEST PUSH1 0x40 DUP1 MLOAD PUSH1 0xFF SWAP1 SWAP3 AND DUP3 MSTORE MLOAD SWAP1 DUP2 SWAP1 SUB PUSH1 0x20 ADD SWAP1 RETURN JUMPDEST PUSH2 0x1CC PUSH1 0x4 DUP1 CALLDATASIZE SUB PUSH1 0x40 DUP2 LT ISZERO PUSH2 0x22E JUMPI PUSH1 0x0 DUP1 REVERT JUMPDEST POP PUSH1 0x1 PUSH1 0x1 PUSH1 0xA0 SHL SUB DUP2 CALLDATALOAD AND SWAP1 PUSH1 0x20 ADD CALLDATALOAD PUSH2 0x502 JUMP JUMPDEST PUSH2 0x1E8 PUSH1 0x4 DUP1 CALLDATASIZE SUB PUSH1 0x40 DUP2 LT ISZERO PUSH2 0x25A JUMPI PUSH1 0x0 DUP1 REVERT JUMPDEST POP PUSH1 0x1 PUSH1 0x1 PUSH1 0xA0 SHL SUB DUP2 CALLDATALOAD AND SWAP1 PUSH1 0x20 ADD CALLDATALOAD PUSH2 0x5EB JUMP JUMPDEST PUSH2 0x1E8 PUSH1 0x4 DUP1 CALLDATASIZE SUB PUSH1 0x20 DUP2 LT ISZERO PUSH2 0x286 JUMPI PUSH1 0x0 DUP1 REVERT JUMPDEST POP CALLDATALOAD PUSH1 0x1 PUSH1 0x1 PUSH1 0xA0 SHL SUB AND PUSH2 0x67B JUMP JUMPDEST PUSH2 0x29E PUSH2 0x68F JUMP JUMPDEST STOP JUMPDEST PUSH2 0x2A8 PUSH2 0x70E JUMP JUMPDEST PUSH1 0x40 DUP1 MLOAD PUSH1 0x1 PUSH1 0x1 PUSH1 0xA0 SHL SUB SWAP1 SWAP3 AND DUP3 MSTORE MLOAD SWAP1 DUP2 SWAP1 SUB PUSH1 0x20 ADD SWAP1 RETURN JUMPDEST PUSH2 0x1CC PUSH2 0x71D JUMP JUMPDEST PUSH2 0x1E8 PUSH1 0x4 DUP1 CALLDATASIZE SUB PUSH1 0x20 DUP2 LT ISZERO PUSH2 0x2E2 JUMPI PUSH1 0x0 DUP1 REVERT JUMPDEST POP CALLDATALOAD PUSH2 0x741 JUMP JUMPDEST PUSH2 0x1CC PUSH1 0x4 DUP1 CALLDATASIZE SUB PUSH1 0x40 DUP2 LT ISZERO PUSH2 0x2FF JUMPI PUSH1 0x0 DUP1 REVERT JUMPDEST POP PUSH1 0x1 PUSH1 0x1 PUSH1 0xA0 SHL SUB DUP2 CALLDATALOAD AND SWAP1 PUSH1 0x20 ADD CALLDATALOAD PUSH2 0x793 JUMP JUMPDEST PUSH2 0x29E PUSH1 0x4 DUP1 CALLDATASIZE SUB PUSH1 0x20 DUP2 LT ISZERO PUSH2 0x32B JUMPI PUSH1 0x0 DUP1 REVERT JUMPDEST POP CALLDATALOAD PUSH1 0x1 PUSH1 0x1 PUSH1 0xA0 SHL SUB AND PUSH2 0x87E JUMP JUMPDEST PUSH1 0x0 PUSH2 0x345 PUSH2 0x71D JUMP JUMPDEST PUSH2 0x384 JUMPI PUSH1 0x40 DUP1 MLOAD PUSH3 0x461BCD PUSH1 0xE5 SHL DUP2 MSTORE PUSH1 0x20 PUSH1 0x4 DUP3 ADD DUP2 SWAP1 MSTORE PUSH1 0x24 DUP3 ADD MSTORE PUSH1 0x0 DUP1 MLOAD PUSH1 0x20 PUSH2 0xBE6 DUP4 CODECOPY DUP2 MLOAD SWAP2 MSTORE PUSH1 0x44 DUP3 ADD MSTORE SWAP1 MLOAD SWAP1 DUP2 SWAP1 SUB PUSH1 0x64 ADD SWAP1 REVERT JUMPDEST PUSH1 0x0 JUMPDEST DUP4 MLOAD DUP2 LT ISZERO PUSH2 0x4D5 JUMPI PUSH1 0x0 PUSH2 0x39A PUSH2 0x4E1 JUMP JUMPDEST SWAP1 POP DUP1 DUP5 DUP4 DUP2 MLOAD DUP2 LT PUSH2 0x3A9 JUMPI INVALID JUMPDEST PUSH1 0x20 MUL PUSH1 0x20 ADD ADD MLOAD DUP3 ADD LT ISZERO PUSH2 0x3BE JUMPI PUSH1 0x0 DUP1 REVERT JUMPDEST PUSH1 0x0 PUSH2 0x3DC DUP7 DUP5 DUP2 MLOAD DUP2 LT PUSH2 0x3CF JUMPI INVALID JUMPDEST PUSH1 0x20 MUL PUSH1 0x20 ADD ADD MLOAD PUSH2 0x67B JUMP JUMPDEST SWAP1 POP DUP1 DUP6 DUP5 DUP2 MLOAD DUP2 LT PUSH2 0x3EB JUMPI INVALID JUMPDEST PUSH1 0x20 MUL PUSH1 0x20 ADD ADD MLOAD DUP3 ADD LT ISZERO PUSH2 0x400 JUMPI PUSH1 0x0 DUP1 REVERT JUMPDEST PUSH2 0x420 PUSH1 0x2 DUP7 DUP6 DUP2 MLOAD DUP2 LT PUSH2 0x411 JUMPI INVALID JUMPDEST PUSH1 0x20 MUL PUSH1 0x20 ADD ADD MLOAD DUP5 ADD PUSH2 0x8D1 JUMP JUMPDEST PUSH2 0x476 PUSH1 0x1 PUSH1 0x0 DUP9 DUP7 DUP2 MLOAD DUP2 LT PUSH2 0x433 JUMPI INVALID JUMPDEST PUSH1 0x20 MUL PUSH1 0x20 ADD ADD MLOAD PUSH1 0x1 PUSH1 0x1 PUSH1 0xA0 SHL SUB AND PUSH1 0x1 PUSH1 0x1 PUSH1 0xA0 SHL SUB AND DUP2 MSTORE PUSH1 0x20 ADD SWAP1 DUP2 MSTORE PUSH1 0x20 ADD PUSH1 0x0 KECCAK256 DUP7 DUP6 DUP2 MLOAD DUP2 LT PUSH2 0x467 JUMPI INVALID JUMPDEST PUSH1 0x20 MUL PUSH1 0x20 ADD ADD MLOAD DUP4 ADD PUSH2 0x8D1 JUMP JUMPDEST DUP6 DUP4 DUP2 MLOAD DUP2 LT PUSH2 0x482 JUMPI INVALID JUMPDEST PUSH1 0x20 MUL PUSH1 0x20 ADD ADD MLOAD PUSH1 0x1 PUSH1 0x1 PUSH1 0xA0 SHL SUB AND PUSH1 0x0 DUP1 MLOAD PUSH1 0x20 PUSH2 0xC26 DUP4 CODECOPY DUP2 MLOAD SWAP2 MSTORE DUP7 DUP6 DUP2 MLOAD DUP2 LT PUSH2 0x4AE JUMPI INVALID JUMPDEST PUSH1 0x20 MUL PUSH1 0x20 ADD ADD MLOAD PUSH1 0x40 MLOAD DUP1 DUP3 DUP2 MSTORE PUSH1 0x20 ADD SWAP2 POP POP PUSH1 0x40 MLOAD DUP1 SWAP2 SUB SWAP1 LOG2 POP POP PUSH1 0x1 ADD PUSH2 0x387 JUMP JUMPDEST POP PUSH1 0x1 SWAP1 POP JUMPDEST SWAP3 SWAP2 POP POP JUMP JUMPDEST PUSH1 0x0 PUSH2 0x4EC NUMBER PUSH2 0x741 JUMP JUMPDEST SWAP1 POP JUMPDEST SWAP1 JUMP JUMPDEST PUSH1 0x0 SLOAD PUSH1 0x1 PUSH1 0xA0 SHL SWAP1 DIV PUSH1 0xFF AND DUP2 JUMP JUMPDEST PUSH1 0x0 PUSH2 0x50C PUSH2 0x71D JUMP JUMPDEST PUSH2 0x54B JUMPI PUSH1 0x40 DUP1 MLOAD PUSH3 0x461BCD PUSH1 0xE5 SHL DUP2 MSTORE PUSH1 0x20 PUSH1 0x4 DUP3 ADD DUP2 SWAP1 MSTORE PUSH1 0x24 DUP3 ADD MSTORE PUSH1 0x0 DUP1 MLOAD PUSH1 0x20 PUSH2 0xBE6 DUP4 CODECOPY DUP2 MLOAD SWAP2 MSTORE PUSH1 0x44 DUP3 ADD MSTORE SWAP1 MLOAD SWAP1 DUP2 SWAP1 SUB PUSH1 0x64 ADD SWAP1 REVERT JUMPDEST PUSH1 0x0 PUSH2 0x555 PUSH2 0x4E1 JUMP JUMPDEST SWAP1 POP DUP1 DUP4 DUP3 ADD LT ISZERO PUSH2 0x566 JUMPI PUSH1 0x0 DUP1 REVERT JUMPDEST PUSH1 0x0 PUSH2 0x571 DUP6 PUSH2 0x67B JUMP JUMPDEST SWAP1 POP DUP1 DUP5 DUP3 ADD LT ISZERO PUSH2 0x582 JUMPI PUSH1 0x0 DUP1 REVERT JUMPDEST PUSH2 0x58F PUSH1 0x2 DUP6 DUP5 ADD PUSH2 0x8D1 JUMP JUMPDEST PUSH1 0x1 PUSH1 0x1 PUSH1 0xA0 SHL SUB DUP6 AND PUSH1 0x0 SWAP1 DUP2 MSTORE PUSH1 0x1 PUSH1 0x20 MSTORE PUSH1 0x40 SWAP1 KECCAK256 PUSH2 0x5B3 SWAP1 DUP3 DUP7 ADD PUSH2 0x8D1 JUMP JUMPDEST PUSH1 0x40 DUP1 MLOAD DUP6 DUP2 MSTORE SWAP1 MLOAD PUSH1 0x1 PUSH1 0x1 PUSH1 0xA0 SHL SUB DUP8 AND SWAP2 PUSH1 0x0 DUP1 MLOAD PUSH1 0x20 PUSH2 0xC26 DUP4 CODECOPY DUP2 MLOAD SWAP2 MSTORE SWAP2 SWAP1 DUP2 SWAP1 SUB PUSH1 0x20 ADD SWAP1 LOG2 POP PUSH1 0x1 SWAP5 SWAP4 POP POP POP POP JUMP JUMPDEST PUSH1 0x1 PUSH1 0x1 PUSH1 0xA0 SHL SUB DUP3 AND PUSH1 0x0 SWAP1 DUP2 MSTORE PUSH1 0x1 PUSH1 0x20 MSTORE PUSH1 0x40 DUP2 KECCAK256 SLOAD ISZERO DUP1 PUSH2 0x645 JUMPI POP PUSH1 0x1 PUSH1 0x1 PUSH1 0xA0 SHL SUB DUP4 AND PUSH1 0x0 SWAP1 DUP2 MSTORE PUSH1 0x1 PUSH1 0x20 MSTORE PUSH1 0x40 DUP2 KECCAK256 DUP1 SLOAD DUP5 SWAP3 SWAP1 PUSH2 0x62E JUMPI INVALID JUMPDEST PUSH1 0x0 SWAP2 DUP3 MSTORE PUSH1 0x20 SWAP1 SWAP2 KECCAK256 ADD SLOAD PUSH1 0x1 PUSH1 0x1 PUSH1 0x80 SHL SUB AND GT JUMPDEST ISZERO PUSH2 0x652 JUMPI POP PUSH1 0x0 PUSH2 0x4DB JUMP JUMPDEST PUSH1 0x1 PUSH1 0x1 PUSH1 0xA0 SHL SUB DUP4 AND PUSH1 0x0 SWAP1 DUP2 MSTORE PUSH1 0x1 PUSH1 0x20 MSTORE PUSH1 0x40 SWAP1 KECCAK256 PUSH2 0x674 SWAP1 DUP4 PUSH2 0x9B6 JUMP JUMPDEST SWAP1 POP PUSH2 0x4DB JUMP JUMPDEST PUSH1 0x0 PUSH2 0x687 DUP3 NUMBER PUSH2 0x5EB JUMP JUMPDEST SWAP1 POP JUMPDEST SWAP2 SWAP1 POP JUMP JUMPDEST PUSH2 0x697 PUSH2 0x71D JUMP JUMPDEST PUSH2 0x6D6 JUMPI PUSH1 0x40 DUP1 MLOAD PUSH3 0x461BCD PUSH1 0xE5 SHL DUP2 MSTORE PUSH1 0x20 PUSH1 0x4 DUP3 ADD DUP2 SWAP1 MSTORE PUSH1 0x24 DUP3 ADD MSTORE PUSH1 0x0 DUP1 MLOAD PUSH1 0x20 PUSH2 0xBE6 DUP4 CODECOPY DUP2 MLOAD SWAP2 MSTORE PUSH1 0x44 DUP3 ADD MSTORE SWAP1 MLOAD SWAP1 DUP2 SWAP1 SUB PUSH1 0x64 ADD SWAP1 REVERT JUMPDEST PUSH1 0x0 DUP1 SLOAD PUSH1 0x40 MLOAD PUSH1 0x1 PUSH1 0x1 PUSH1 0xA0 SHL SUB SWAP1 SWAP2 AND SWAP1 PUSH1 0x0 DUP1 MLOAD PUSH1 0x20 PUSH2 0xC06 DUP4 CODECOPY DUP2 MLOAD SWAP2 MSTORE SWAP1 DUP4 SWAP1 LOG3 PUSH1 0x0 DUP1 SLOAD PUSH1 0x1 PUSH1 0x1 PUSH1 0xA0 SHL SUB NOT AND SWAP1 SSTORE JUMP JUMPDEST PUSH1 0x0 SLOAD PUSH1 0x1 PUSH1 0x1 PUSH1 0xA0 SHL SUB AND SWAP1 JUMP JUMPDEST PUSH1 0x0 DUP1 SLOAD PUSH1 0x1 PUSH1 0x1 PUSH1 0xA0 SHL SUB AND PUSH2 0x732 PUSH2 0xAE6 JUMP JUMPDEST PUSH1 0x1 PUSH1 0x1 PUSH1 0xA0 SHL SUB AND EQ SWAP1 POP SWAP1 JUMP JUMPDEST PUSH1 0x2 SLOAD PUSH1 0x0 SWAP1 ISZERO DUP1 PUSH2 0x774 JUMPI POP DUP2 PUSH1 0x2 PUSH1 0x0 DUP2 SLOAD DUP2 LT PUSH2 0x75D JUMPI INVALID JUMPDEST PUSH1 0x0 SWAP2 DUP3 MSTORE PUSH1 0x20 SWAP1 SWAP2 KECCAK256 ADD SLOAD PUSH1 0x1 PUSH1 0x1 PUSH1 0x80 SHL SUB AND GT JUMPDEST ISZERO PUSH2 0x781 JUMPI POP PUSH1 0x0 PUSH2 0x68A JUMP JUMPDEST PUSH2 0x78C PUSH1 0x2 DUP4 PUSH2 0x9B6 JUMP JUMPDEST SWAP1 POP PUSH2 0x68A JUMP JUMPDEST PUSH1 0x0 PUSH2 0x79D PUSH2 0x71D JUMP JUMPDEST PUSH2 0x7DC JUMPI PUSH1 0x40 DUP1 MLOAD PUSH3 0x461BCD PUSH1 0xE5 SHL DUP2 MSTORE PUSH1 0x20 PUSH1 0x4 DUP3 ADD DUP2 SWAP1 MSTORE PUSH1 0x24 DUP3 ADD MSTORE PUSH1 0x0 DUP1 MLOAD PUSH1 0x20 PUSH2 0xBE6 DUP4 CODECOPY DUP2 MLOAD SWAP2 MSTORE PUSH1 0x44 DUP3 ADD MSTORE SWAP1 MLOAD SWAP1 DUP2 SWAP1 SUB PUSH1 0x64 ADD SWAP1 REVERT JUMPDEST PUSH1 0x0 PUSH2 0x7E6 PUSH2 0x4E1 JUMP JUMPDEST SWAP1 POP DUP3 PUSH1 0x0 PUSH2 0x7F4 DUP7 PUSH2 0x67B JUMP JUMPDEST SWAP1 POP DUP2 DUP2 LT ISZERO PUSH2 0x802 JUMPI DUP1 SWAP2 POP JUMPDEST PUSH2 0x80F PUSH1 0x2 DUP4 DUP6 SUB PUSH2 0x8D1 JUMP JUMPDEST PUSH1 0x1 PUSH1 0x1 PUSH1 0xA0 SHL SUB DUP7 AND PUSH1 0x0 SWAP1 DUP2 MSTORE PUSH1 0x1 PUSH1 0x20 MSTORE PUSH1 0x40 SWAP1 KECCAK256 PUSH2 0x833 SWAP1 DUP4 DUP4 SUB PUSH2 0x8D1 JUMP JUMPDEST PUSH1 0x40 DUP1 MLOAD DUP4 DUP2 MSTORE SWAP1 MLOAD PUSH1 0x1 PUSH1 0x1 PUSH1 0xA0 SHL SUB DUP9 AND SWAP2 PUSH32 0xCC16F5DBB4873280815C1EE09DBD06736CFFCC184412CF7A71A0FDB75D397CA5 SWAP2 SWAP1 DUP2 SWAP1 SUB PUSH1 0x20 ADD SWAP1 LOG2 POP PUSH1 0x1 SWAP6 SWAP5 POP POP POP POP POP JUMP JUMPDEST PUSH2 0x886 PUSH2 0x71D JUMP JUMPDEST PUSH2 0x8C5 JUMPI PUSH1 0x40 DUP1 MLOAD PUSH3 0x461BCD PUSH1 0xE5 SHL DUP2 MSTORE PUSH1 0x20 PUSH1 0x4 DUP3 ADD DUP2 SWAP1 MSTORE PUSH1 0x24 DUP3 ADD MSTORE PUSH1 0x0 DUP1 MLOAD PUSH1 0x20 PUSH2 0xBE6 DUP4 CODECOPY DUP2 MLOAD SWAP2 MSTORE PUSH1 0x44 DUP3 ADD MSTORE SWAP1 MLOAD SWAP1 DUP2 SWAP1 SUB PUSH1 0x64 ADD SWAP1 REVERT JUMPDEST PUSH2 0x8CE DUP2 PUSH2 0xAEA JUMP JUMPDEST POP JUMP JUMPDEST DUP1 DUP2 PUSH1 0x1 PUSH1 0x1 PUSH1 0x80 SHL SUB AND EQ PUSH2 0x8E6 JUMPI PUSH1 0x0 DUP1 REVERT JUMPDEST DUP2 SLOAD ISZERO DUP1 PUSH2 0x91A JUMPI POP DUP2 SLOAD NUMBER SWAP1 DUP4 SWAP1 PUSH1 0x0 NOT DUP2 ADD SWAP1 DUP2 LT PUSH2 0x903 JUMPI INVALID JUMPDEST PUSH1 0x0 SWAP2 DUP3 MSTORE PUSH1 0x20 SWAP1 SWAP2 KECCAK256 ADD SLOAD PUSH1 0x1 PUSH1 0x1 PUSH1 0x80 SHL SUB AND LT JUMPDEST ISZERO PUSH2 0x978 JUMPI DUP2 SLOAD PUSH1 0x0 SWAP1 DUP4 SWAP1 PUSH2 0x933 DUP3 PUSH1 0x1 DUP4 ADD PUSH2 0xB78 JUMP JUMPDEST DUP2 SLOAD DUP2 LT PUSH2 0x93D JUMPI INVALID JUMPDEST PUSH1 0x0 SWAP2 DUP3 MSTORE PUSH1 0x20 SWAP1 SWAP2 KECCAK256 ADD DUP1 SLOAD PUSH1 0x1 PUSH1 0x1 PUSH1 0x80 SHL SUB DUP5 DUP2 AND PUSH1 0x1 PUSH1 0x80 SHL MUL NUMBER DUP3 AND PUSH1 0x1 PUSH1 0x1 PUSH1 0x80 SHL SUB NOT SWAP1 SWAP4 AND SWAP3 SWAP1 SWAP3 OR AND OR SWAP1 SSTORE POP PUSH2 0x9B2 JUMP JUMPDEST DUP2 SLOAD PUSH1 0x0 SWAP1 DUP4 SWAP1 PUSH1 0x0 NOT DUP2 ADD SWAP1 DUP2 LT PUSH2 0x98D JUMPI INVALID JUMPDEST PUSH1 0x0 SWAP2 DUP3 MSTORE PUSH1 0x20 SWAP1 SWAP2 KECCAK256 ADD DUP1 SLOAD PUSH1 0x1 PUSH1 0x1 PUSH1 0x80 SHL SUB DUP1 DUP6 AND PUSH1 0x1 PUSH1 0x80 SHL MUL SWAP2 AND OR SWAP1 SSTORE POP JUMPDEST POP POP JUMP JUMPDEST DUP2 SLOAD PUSH1 0x0 SWAP1 PUSH2 0x9C7 JUMPI POP PUSH1 0x0 PUSH2 0x4DB JUMP JUMPDEST DUP3 SLOAD DUP4 SWAP1 PUSH1 0x0 NOT DUP2 ADD SWAP1 DUP2 LT PUSH2 0x9D9 JUMPI INVALID JUMPDEST PUSH1 0x0 SWAP2 DUP3 MSTORE PUSH1 0x20 SWAP1 SWAP2 KECCAK256 ADD SLOAD PUSH1 0x1 PUSH1 0x1 PUSH1 0x80 SHL SUB AND DUP3 LT PUSH2 0xA29 JUMPI DUP3 SLOAD DUP4 SWAP1 PUSH1 0x0 NOT DUP2 ADD SWAP1 DUP2 LT PUSH2 0xA06 JUMPI INVALID JUMPDEST PUSH1 0x0 SWAP2 DUP3 MSTORE PUSH1 0x20 SWAP1 SWAP2 KECCAK256 ADD SLOAD PUSH1 0x1 PUSH1 0x80 SHL SWAP1 DIV PUSH1 0x1 PUSH1 0x1 PUSH1 0x80 SHL SUB AND SWAP1 POP PUSH2 0x4DB JUMP JUMPDEST DUP3 PUSH1 0x0 DUP2 SLOAD DUP2 LT PUSH2 0xA36 JUMPI INVALID JUMPDEST PUSH1 0x0 SWAP2 DUP3 MSTORE PUSH1 0x20 SWAP1 SWAP2 KECCAK256 ADD SLOAD PUSH1 0x1 PUSH1 0x1 PUSH1 0x80 SHL SUB AND DUP3 LT ISZERO PUSH2 0xA5A JUMPI POP PUSH1 0x0 PUSH2 0x4DB JUMP JUMPDEST DUP3 SLOAD PUSH1 0x0 SWAP1 PUSH1 0x0 NOT ADD JUMPDEST DUP2 DUP2 GT ISZERO PUSH2 0xAB5 JUMPI PUSH1 0x0 PUSH1 0x2 PUSH1 0x1 DUP4 DUP6 ADD ADD DIV SWAP1 POP DUP5 DUP7 DUP3 DUP2 SLOAD DUP2 LT PUSH2 0xA86 JUMPI INVALID JUMPDEST PUSH1 0x0 SWAP2 DUP3 MSTORE PUSH1 0x20 SWAP1 SWAP2 KECCAK256 ADD SLOAD PUSH1 0x1 PUSH1 0x1 PUSH1 0x80 SHL SUB AND GT PUSH2 0xAA8 JUMPI DUP1 SWAP3 POP PUSH2 0xAAF JUMP JUMPDEST PUSH1 0x1 DUP2 SUB SWAP2 POP JUMPDEST POP PUSH2 0xA64 JUMP JUMPDEST DUP5 DUP3 DUP2 SLOAD DUP2 LT PUSH2 0xAC1 JUMPI INVALID JUMPDEST PUSH1 0x0 SWAP2 DUP3 MSTORE PUSH1 0x20 SWAP1 SWAP2 KECCAK256 ADD SLOAD PUSH1 0x1 PUSH1 0x80 SHL SWAP1 DIV PUSH1 0x1 PUSH1 0x1 PUSH1 0x80 SHL SUB AND SWAP6 SWAP5 POP POP POP POP POP JUMP JUMPDEST CALLER SWAP1 JUMP JUMPDEST PUSH1 0x1 PUSH1 0x1 PUSH1 0xA0 SHL SUB DUP2 AND PUSH2 0xB2F JUMPI PUSH1 0x40 MLOAD PUSH3 0x461BCD PUSH1 0xE5 SHL DUP2 MSTORE PUSH1 0x4 ADD DUP1 DUP1 PUSH1 0x20 ADD DUP3 DUP2 SUB DUP3 MSTORE PUSH1 0x26 DUP2 MSTORE PUSH1 0x20 ADD DUP1 PUSH2 0xBC0 PUSH1 0x26 SWAP2 CODECOPY PUSH1 0x40 ADD SWAP2 POP POP PUSH1 0x40 MLOAD DUP1 SWAP2 SUB SWAP1 REVERT JUMPDEST PUSH1 0x0 DUP1 SLOAD PUSH1 0x40 MLOAD PUSH1 0x1 PUSH1 0x1 PUSH1 0xA0 SHL SUB DUP1 DUP6 AND SWAP4 SWAP3 AND SWAP2 PUSH1 0x0 DUP1 MLOAD PUSH1 0x20 PUSH2 0xC06 DUP4 CODECOPY DUP2 MLOAD SWAP2 MSTORE SWAP2 LOG3 PUSH1 0x0 DUP1 SLOAD PUSH1 0x1 PUSH1 0x1 PUSH1 0xA0 SHL SUB NOT AND PUSH1 0x1 PUSH1 0x1 PUSH1 0xA0 SHL SUB SWAP3 SWAP1 SWAP3 AND SWAP2 SWAP1 SWAP2 OR SWAP1 SSTORE JUMP JUMPDEST DUP2 SLOAD DUP2 DUP4 SSTORE DUP2 DUP2 GT ISZERO PUSH2 0xB9C JUMPI PUSH1 0x0 DUP4 DUP2 MSTORE PUSH1 0x20 SWAP1 KECCAK256 PUSH2 0xB9C SWAP2 DUP2 ADD SWAP1 DUP4 ADD PUSH2 0xBA1 JUMP JUMPDEST POP POP POP JUMP JUMPDEST PUSH2 0x4EF SWAP2 SWAP1 JUMPDEST DUP1 DUP3 GT ISZERO PUSH2 0xBBB JUMPI PUSH1 0x0 DUP2 SSTORE PUSH1 0x1 ADD PUSH2 0xBA7 JUMP JUMPDEST POP SWAP1 JUMP INVALID 0x4F PUSH24 0x6E61626C653A206E6577206F776E65722069732074686520 PUSH27 0x65726F20616464726573734F776E61626C653A2063616C6C657220 PUSH10 0x73206E6F742074686520 PUSH16 0x776E65728BE0079C531659141344CD1F 0xD0 LOG4 CALLCODE DUP5 NOT 0x49 PUSH32 0x9722A3DAAFE3B4186F6B6457E00F6798A560793A54C3BCFE86A93CDE1E73087D SWAP5 0x4C 0xE LOG2 SDIV DIFFICULTY SGT PUSH30 0x4121396885A265627A7A7231582076261CEC79ECB6634FF710AD46C22ACF DUP11 SWAP14 0xAA GASPRICE 0x24 SLT PUSH8 0xB7679FF1C78AFDD NOT PUSH5 0x736F6C6343 STOP SDIV GT STOP ORIGIN "
				},
				"gasEstimates": {
					"creation": {
						"codeDepositCost": "638800",
						"executionCost": "43910",
						"totalCost": "682710"
					},
					"external": {
						"balanceOf(address)": "infinite",
						"balanceOfAt(address,uint256)": "infinite",
						"burn(address,uint256)": "infinite",
						"decimals()": "1052",
						"isOwner()": "1234",
						"mint(address,uint256)": "infinite",
						"mintMultiple(address[],uint256[])": "infinite",
						"owner()": "1169",
						"renounceOwnership()": "infinite",
						"totalSupply()": "infinite",
						"totalSupplyAt(uint256)": "infinite",
						"transferOwnership(address)": "infinite"
					},
					"internal": {
						"getValueAt(struct Reputation.Checkpoint storage ref[] storage pointer,uint256)": "infinite",
						"updateValueAtNow(struct Reputation.Checkpoint storage ref[] storage pointer,uint256)": "infinite"
					}
				},
				"methodIdentifiers": {
					"balanceOf(address)": "70a08231",
					"balanceOfAt(address,uint256)": "4ee2cd7e",
					"burn(address,uint256)": "9dc29fac",
					"decimals()": "313ce567",
					"isOwner()": "8f32d59b",
					"mint(address,uint256)": "40c10f19",
					"mintMultiple(address[],uint256[])": "07ea5477",
					"owner()": "8da5cb5b",
					"renounceOwnership()": "715018a6",
					"totalSupply()": "18160ddd",
					"totalSupplyAt(uint256)": "981b24d0",
					"transferOwnership(address)": "f2fde38b"
				}
			},
			"storageLayout": {
				"storage": [
					{
						"astId": 554,
						"contract": "contracts/daostack/controller/Reputation.sol:Reputation",
						"label": "_owner",
						"offset": 0,
						"slot": "0",
						"type": "t_address"
					},
					{
						"astId": 7,
						"contract": "contracts/daostack/controller/Reputation.sol:Reputation",
						"label": "decimals",
						"offset": 20,
						"slot": "0",
						"type": "t_uint8"
					},
					{
						"astId": 29,
						"contract": "contracts/daostack/controller/Reputation.sol:Reputation",
						"label": "balances",
						"offset": 0,
						"slot": "1",
						"type": "t_mapping(t_address,t_array(t_struct(Checkpoint)24_storage)dyn_storage)"
					},
					{
						"astId": 32,
						"contract": "contracts/daostack/controller/Reputation.sol:Reputation",
						"label": "totalSupplyHistory",
						"offset": 0,
						"slot": "2",
						"type": "t_array(t_struct(Checkpoint)24_storage)dyn_storage"
					}
				],
				"types": {
					"t_address": {
						"encoding": "inplace",
						"label": "address",
						"numberOfBytes": "20"
					},
					"t_array(t_struct(Checkpoint)24_storage)dyn_storage": {
						"base": "t_struct(Checkpoint)24_storage",
						"encoding": "dynamic_array",
						"label": "struct Reputation.Checkpoint[]",
						"numberOfBytes": "32"
					},
					"t_mapping(t_address,t_array(t_struct(Checkpoint)24_storage)dyn_storage)": {
						"encoding": "mapping",
						"key": "t_address",
						"label": "mapping(address => struct Reputation.Checkpoint[])",
						"numberOfBytes": "32",
						"value": "t_array(t_struct(Checkpoint)24_storage)dyn_storage"
					},
					"t_struct(Checkpoint)24_storage": {
						"encoding": "inplace",
						"label": "struct Reputation.Checkpoint",
						"members": [
							{
								"astId": 21,
								"contract": "contracts/daostack/controller/Reputation.sol:Reputation",
								"label": "fromBlock",
								"offset": 0,
								"slot": "0",
								"type": "t_uint128"
							},
							{
								"astId": 23,
								"contract": "contracts/daostack/controller/Reputation.sol:Reputation",
								"label": "value",
								"offset": 16,
								"slot": "0",
								"type": "t_uint128"
							}
						],
						"numberOfBytes": "32"
					},
					"t_uint128": {
						"encoding": "inplace",
						"label": "uint128",
						"numberOfBytes": "16"
					},
					"t_uint8": {
						"encoding": "inplace",
						"label": "uint8",
						"numberOfBytes": "1"
					}
				}
			},
			"userdoc": {
				"methods": {}
			}
		}
	}
}