{
  "_format": "hh-sol-artifact-1",
  "contractName": "DataFormatting",
  "sourceName": "contracts/worksystems/DataFormatting.sol",
  "abi": [
    {
      "inputs": [
        {
          "internalType": "address",
          "name": "EXDT_token",
          "type": "address"
        }
      ],
      "stateMutability": "nonpayable",
      "type": "constructor"
    },
    {
      "anonymous": false,
      "inputs": [
        {
          "indexed": true,
          "internalType": "address",
          "name": "previousOwner",
          "type": "address"
        },
        {
          "indexed": true,
          "internalType": "address",
          "name": "newOwner",
          "type": "address"
        }
      ],
      "name": "OwnershipTransferred",
      "type": "event"
    },
    {
      "anonymous": false,
      "inputs": [
        {
          "indexed": false,
          "internalType": "string",
          "name": "hash",
          "type": "string"
        },
        {
          "indexed": true,
          "internalType": "address",
          "name": "creator",
          "type": "address"
        }
      ],
      "name": "_FormatAccepted",
      "type": "event"
    },
    {
      "anonymous": false,
      "inputs": [
        {
          "indexed": true,
          "internalType": "uint256",
          "name": "DataID",
          "type": "uint256"
        },
        {
          "indexed": false,
          "internalType": "uint256",
          "name": "numTokens",
          "type": "uint256"
        },
        {
          "indexed": true,
          "internalType": "address",
          "name": "voter",
          "type": "address"
        }
      ],
      "name": "_FormatCheckCommitted",
      "type": "event"
    },
    {
      "anonymous": false,
      "inputs": [
        {
          "indexed": true,
          "internalType": "uint256",
          "name": "DataID",
          "type": "uint256"
        },
        {
          "indexed": false,
          "internalType": "uint256",
          "name": "numTokens",
          "type": "uint256"
        },
        {
          "indexed": false,
          "internalType": "uint256",
          "name": "votesFor",
          "type": "uint256"
        },
        {
          "indexed": false,
          "internalType": "uint256",
          "name": "votesAgainst",
          "type": "uint256"
        },
        {
          "indexed": true,
          "internalType": "uint256",
          "name": "choice",
          "type": "uint256"
        },
        {
          "indexed": true,
          "internalType": "address",
          "name": "voter",
          "type": "address"
        }
      ],
      "name": "_FormatCheckRevealed",
      "type": "event"
    },
    {
      "anonymous": false,
      "inputs": [
        {
          "indexed": true,
          "internalType": "uint256",
          "name": "DataID",
          "type": "uint256"
        },
        {
          "indexed": false,
          "internalType": "string",
          "name": "file_hash",
          "type": "string"
        },
        {
          "indexed": false,
          "internalType": "address",
          "name": "sender",
          "type": "address"
        }
      ],
      "name": "_FormatSubmitted",
      "type": "event"
    },
    {
      "anonymous": false,
      "inputs": [
        {
          "indexed": true,
          "internalType": "uint256",
          "name": "epochNumber",
          "type": "uint256"
        }
      ],
      "name": "_NewEpoch",
      "type": "event"
    },
    {
      "anonymous": false,
      "inputs": [
        {
          "indexed": true,
          "internalType": "uint256",
          "name": "DataID",
          "type": "uint256"
        },
        {
          "indexed": true,
          "internalType": "address",
          "name": "voter",
          "type": "address"
        }
      ],
      "name": "_TokensRescued",
      "type": "event"
    },
    {
      "anonymous": false,
      "inputs": [
        {
          "indexed": false,
          "internalType": "uint256",
          "name": "numTokens",
          "type": "uint256"
        },
        {
          "indexed": true,
          "internalType": "address",
          "name": "voter",
          "type": "address"
        }
      ],
      "name": "_VotingRightsGranted",
      "type": "event"
    },
    {
      "anonymous": false,
      "inputs": [
        {
          "indexed": false,
          "internalType": "uint256",
          "name": "numTokens",
          "type": "uint256"
        },
        {
          "indexed": true,
          "internalType": "address",
          "name": "voter",
          "type": "address"
        }
      ],
      "name": "_VotingRightsWithdrawn",
      "type": "event"
    },
    {
      "anonymous": false,
      "inputs": [
        {
          "indexed": true,
          "internalType": "uint256",
          "name": "batchID",
          "type": "uint256"
        },
        {
          "indexed": false,
          "internalType": "address",
          "name": "worker",
          "type": "address"
        }
      ],
      "name": "_WorkAllocated",
      "type": "event"
    },
    {
      "anonymous": false,
      "inputs": [
        {
          "indexed": true,
          "internalType": "address",
          "name": "worker",
          "type": "address"
        },
        {
          "indexed": false,
          "internalType": "uint256",
          "name": "timestamp",
          "type": "uint256"
        }
      ],
      "name": "_WorkerRegistered",
      "type": "event"
    },
    {
      "anonymous": false,
      "inputs": [
        {
          "indexed": true,
          "internalType": "address",
          "name": "worker",
          "type": "address"
        },
        {
          "indexed": false,
          "internalType": "uint256",
          "name": "timestamp",
          "type": "uint256"
        }
      ],
      "name": "_WorkerUnregistered",
      "type": "event"
    },
    {
      "inputs": [],
      "name": "AddressManager",
      "outputs": [
        {
          "internalType": "contract IAddressManager",
          "name": "",
          "type": "address"
        }
      ],
      "stateMutability": "view",
      "type": "function"
    },
    {
      "inputs": [],
      "name": "AllTxsCounter",
      "outputs": [
        {
          "internalType": "uint256",
          "name": "",
          "type": "uint256"
        }
      ],
      "stateMutability": "view",
      "type": "function"
    },
    {
      "inputs": [],
      "name": "AllocateWork",
      "outputs": [],
      "stateMutability": "nonpayable",
      "type": "function"
    },
    {
      "inputs": [],
      "name": "AmIRegistered",
      "outputs": [
        {
          "internalType": "bool",
          "name": "passed",
          "type": "bool"
        }
      ],
      "stateMutability": "view",
      "type": "function"
    },
    {
      "inputs": [],
      "name": "BatchCheckingCursor",
      "outputs": [
        {
          "internalType": "uint256",
          "name": "",
          "type": "uint256"
        }
      ],
      "stateMutability": "view",
      "type": "function"
    },
    {
      "inputs": [],
      "name": "COMMIT_ROUND_DURATION",
      "outputs": [
        {
          "internalType": "uint256",
          "name": "",
          "type": "uint256"
        }
      ],
      "stateMutability": "view",
      "type": "function"
    },
    {
      "inputs": [],
      "name": "CurrentWorkEpoch",
      "outputs": [
        {
          "internalType": "uint256",
          "name": "",
          "type": "uint256"
        }
      ],
      "stateMutability": "view",
      "type": "function"
    },
    {
      "inputs": [
        {
          "internalType": "uint256",
          "name": "",
          "type": "uint256"
        }
      ],
      "name": "DataBatch",
      "outputs": [
        {
          "internalType": "uint256",
          "name": "start_idx",
          "type": "uint256"
        },
        {
          "internalType": "uint256",
          "name": "end_idx",
          "type": "uint256"
        },
        {
          "internalType": "uint256",
          "name": "counter",
          "type": "uint256"
        },
        {
          "internalType": "uint256",
          "name": "unrevealed_workers",
          "type": "uint256"
        },
        {
          "internalType": "bool",
          "name": "complete",
          "type": "bool"
        },
        {
          "internalType": "bool",
          "name": "checked",
          "type": "bool"
        },
        {
          "internalType": "bool",
          "name": "allocated_to_work",
          "type": "bool"
        },
        {
          "internalType": "uint256",
          "name": "commitEndDate",
          "type": "uint256"
        },
        {
          "internalType": "uint256",
          "name": "revealEndDate",
          "type": "uint256"
        },
        {
          "internalType": "uint256",
          "name": "votesFor",
          "type": "uint256"
        },
        {
          "internalType": "uint256",
          "name": "votesAgainst",
          "type": "uint256"
        },
        {
          "internalType": "enum DataFormatting.DataStatus",
          "name": "status",
          "type": "uint8"
        }
      ],
      "stateMutability": "view",
      "type": "function"
    },
    {
      "inputs": [
        {
          "internalType": "uint256",
          "name": "_DataBatchId",
          "type": "uint256"
        }
      ],
      "name": "DataCommitEndDate",
      "outputs": [
        {
          "internalType": "uint256",
          "name": "commitEndDate",
          "type": "uint256"
        }
      ],
      "stateMutability": "view",
      "type": "function"
    },
    {
      "inputs": [
        {
          "internalType": "uint256",
          "name": "_DataBatchId",
          "type": "uint256"
        }
      ],
      "name": "DataEnded",
      "outputs": [
        {
          "internalType": "bool",
          "name": "ended",
          "type": "bool"
        }
      ],
      "stateMutability": "view",
      "type": "function"
    },
    {
      "inputs": [
        {
          "internalType": "uint256",
          "name": "_DataBatchId",
          "type": "uint256"
        }
      ],
      "name": "DataExists",
      "outputs": [
        {
          "internalType": "bool",
          "name": "exists",
          "type": "bool"
        }
      ],
      "stateMutability": "view",
      "type": "function"
    },
    {
      "inputs": [],
      "name": "DataNonce",
      "outputs": [
        {
          "internalType": "uint256",
          "name": "",
          "type": "uint256"
        }
      ],
      "stateMutability": "view",
      "type": "function"
    },
    {
      "inputs": [
        {
          "internalType": "uint256",
          "name": "_DataBatchId",
          "type": "uint256"
        }
      ],
      "name": "DataRevealEndDate",
      "outputs": [
        {
          "internalType": "uint256",
          "name": "revealEndDate",
          "type": "uint256"
        }
      ],
      "stateMutability": "view",
      "type": "function"
    },
    {
      "inputs": [
        {
          "internalType": "address",
          "name": "",
          "type": "address"
        }
      ],
      "name": "FormatStakedTokenBalance",
      "outputs": [
        {
          "internalType": "uint256",
          "name": "",
          "type": "uint256"
        }
      ],
      "stateMutability": "view",
      "type": "function"
    },
    {
      "inputs": [
        {
          "internalType": "uint256",
          "name": "",
          "type": "uint256"
        }
      ],
      "name": "FormatsMapping",
      "outputs": [
        {
          "internalType": "string",
          "name": "ipfs_hash",
          "type": "string"
        },
        {
          "internalType": "address",
          "name": "author",
          "type": "address"
        },
        {
          "internalType": "uint256",
          "name": "timestamp",
          "type": "uint256"
        },
        {
          "internalType": "enum DataFormatting.DataStatus",
          "name": "status",
          "type": "uint8"
        }
      ],
      "stateMutability": "view",
      "type": "function"
    },
    {
      "inputs": [
        {
          "internalType": "address",
          "name": "user_",
          "type": "address"
        }
      ],
      "name": "GetCurrentWork",
      "outputs": [
        {
          "internalType": "uint256",
          "name": "",
          "type": "uint256"
        }
      ],
      "stateMutability": "view",
      "type": "function"
    },
    {
      "inputs": [
        {
          "internalType": "address",
          "name": "user_",
          "type": "address"
        }
      ],
      "name": "IsNewWorkAvailable",
      "outputs": [
        {
          "internalType": "bool",
          "name": "",
          "type": "bool"
        }
      ],
      "stateMutability": "view",
      "type": "function"
    },
    {
      "inputs": [],
      "name": "LastBatchCounter",
      "outputs": [
        {
          "internalType": "uint256",
          "name": "",
          "type": "uint256"
        }
      ],
      "stateMutability": "view",
      "type": "function"
    },
    {
      "inputs": [],
      "name": "LastSpotBatchId",
      "outputs": [
        {
          "internalType": "uint256",
          "name": "",
          "type": "uint256"
        }
      ],
      "stateMutability": "view",
      "type": "function"
    },
    {
      "inputs": [],
      "name": "MIN_PARTICIPANTS_FOR_VALIDITY",
      "outputs": [
        {
          "internalType": "uint256",
          "name": "",
          "type": "uint256"
        }
      ],
      "stateMutability": "view",
      "type": "function"
    },
    {
      "inputs": [],
      "name": "MIN_REP_Data",
      "outputs": [
        {
          "internalType": "uint256",
          "name": "",
          "type": "uint256"
        }
      ],
      "stateMutability": "view",
      "type": "function"
    },
    {
      "inputs": [],
      "name": "MIN_REP_REVEAL",
      "outputs": [
        {
          "internalType": "uint256",
          "name": "",
          "type": "uint256"
        }
      ],
      "stateMutability": "view",
      "type": "function"
    },
    {
      "inputs": [],
      "name": "MIN_REWARD_Data",
      "outputs": [
        {
          "internalType": "uint256",
          "name": "",
          "type": "uint256"
        }
      ],
      "stateMutability": "view",
      "type": "function"
    },
    {
      "inputs": [],
      "name": "MIN_STAKE",
      "outputs": [
        {
          "internalType": "uint256",
          "name": "",
          "type": "uint256"
        }
      ],
      "stateMutability": "view",
      "type": "function"
    },
    {
      "inputs": [
        {
          "internalType": "address",
          "name": "",
          "type": "address"
        },
        {
          "internalType": "uint256",
          "name": "",
          "type": "uint256"
        }
      ],
      "name": "MasterWorkers",
      "outputs": [
        {
          "internalType": "address",
          "name": "",
          "type": "address"
        }
      ],
      "stateMutability": "view",
      "type": "function"
    },
    {
      "inputs": [],
      "name": "Ping",
      "outputs": [],
      "stateMutability": "nonpayable",
      "type": "function"
    },
    {
      "inputs": [],
      "name": "REVEAL_ROUND_DURATION",
      "outputs": [
        {
          "internalType": "uint256",
          "name": "",
          "type": "uint256"
        }
      ],
      "stateMutability": "view",
      "type": "function"
    },
    {
      "inputs": [],
      "name": "RegisterWorker",
      "outputs": [],
      "stateMutability": "nonpayable",
      "type": "function"
    },
    {
      "inputs": [],
      "name": "RepManager",
      "outputs": [
        {
          "internalType": "contract IRepManager",
          "name": "",
          "type": "address"
        }
      ],
      "stateMutability": "view",
      "type": "function"
    },
    {
      "inputs": [],
      "name": "RewardManager",
      "outputs": [
        {
          "internalType": "contract IRewardManager",
          "name": "",
          "type": "address"
        }
      ],
      "stateMutability": "view",
      "type": "function"
    },
    {
      "inputs": [],
      "name": "SPOT_CHECK_VOTE_QUORUM",
      "outputs": [
        {
          "internalType": "uint256",
          "name": "",
          "type": "uint256"
        }
      ],
      "stateMutability": "view",
      "type": "function"
    },
    {
      "inputs": [],
      "name": "SpottingSystem",
      "outputs": [
        {
          "internalType": "contract ISpottingSystem",
          "name": "",
          "type": "address"
        }
      ],
      "stateMutability": "view",
      "type": "function"
    },
    {
      "inputs": [],
      "name": "StakeManager",
      "outputs": [
        {
          "internalType": "contract IStakeManager",
          "name": "",
          "type": "address"
        }
      ],
      "stateMutability": "view",
      "type": "function"
    },
    {
      "inputs": [],
      "name": "TriggerNextEpoch",
      "outputs": [],
      "stateMutability": "nonpayable",
      "type": "function"
    },
    {
      "inputs": [],
      "name": "UnregisterWorker",
      "outputs": [],
      "stateMutability": "nonpayable",
      "type": "function"
    },
    {
      "inputs": [
        {
          "internalType": "address",
          "name": "",
          "type": "address"
        },
        {
          "internalType": "uint256",
          "name": "",
          "type": "uint256"
        }
      ],
      "name": "UserChecksCommits",
      "outputs": [
        {
          "internalType": "bool",
          "name": "",
          "type": "bool"
        }
      ],
      "stateMutability": "view",
      "type": "function"
    },
    {
      "inputs": [
        {
          "internalType": "address",
          "name": "",
          "type": "address"
        },
        {
          "internalType": "uint256",
          "name": "",
          "type": "uint256"
        }
      ],
      "name": "UserChecksReveals",
      "outputs": [
        {
          "internalType": "bool",
          "name": "",
          "type": "bool"
        }
      ],
      "stateMutability": "view",
      "type": "function"
    },
    {
      "inputs": [
        {
          "internalType": "uint256",
          "name": "",
          "type": "uint256"
        },
        {
          "internalType": "address",
          "name": "",
          "type": "address"
        }
      ],
      "name": "UserVotes",
      "outputs": [
        {
          "internalType": "uint256",
          "name": "",
          "type": "uint256"
        }
      ],
      "stateMutability": "view",
      "type": "function"
    },
    {
      "inputs": [
        {
          "internalType": "uint256",
          "name": "_DataBatchId",
          "type": "uint256"
        }
      ],
      "name": "ValidateDataBatch",
      "outputs": [],
      "stateMutability": "nonpayable",
      "type": "function"
    },
    {
      "inputs": [
        {
          "internalType": "uint256",
          "name": "",
          "type": "uint256"
        },
        {
          "internalType": "uint256",
          "name": "",
          "type": "uint256"
        }
      ],
      "name": "WorkersPerBatch",
      "outputs": [
        {
          "internalType": "address",
          "name": "",
          "type": "address"
        }
      ],
      "stateMutability": "view",
      "type": "function"
    },
    {
      "inputs": [
        {
          "internalType": "address",
          "name": "",
          "type": "address"
        }
      ],
      "name": "WorkersState",
      "outputs": [
        {
          "internalType": "address",
          "name": "worker_address",
          "type": "address"
        },
        {
          "internalType": "address",
          "name": "master_address",
          "type": "address"
        },
        {
          "internalType": "uint256",
          "name": "allocated_work_batch",
          "type": "uint256"
        },
        {
          "internalType": "bool",
          "name": "has_completed_work",
          "type": "bool"
        },
        {
          "internalType": "uint256",
          "name": "last_worked_round",
          "type": "uint256"
        },
        {
          "internalType": "uint256",
          "name": "last_interaction_date",
          "type": "uint256"
        },
        {
          "internalType": "bool",
          "name": "is_available_now",
          "type": "bool"
        },
        {
          "internalType": "string",
          "name": "extra",
          "type": "string"
        },
        {
          "internalType": "bool",
          "name": "registered",
          "type": "bool"
        },
        {
          "internalType": "uint256",
          "name": "registration_date",
          "type": "uint256"
        }
      ],
      "stateMutability": "view",
      "type": "function"
    },
    {
      "inputs": [
        {
          "internalType": "address",
          "name": "_user",
          "type": "address"
        },
        {
          "internalType": "uint256",
          "name": "_DataBatchId",
          "type": "uint256"
        }
      ],
      "name": "attrUUID",
      "outputs": [
        {
          "internalType": "bytes32",
          "name": "UUID",
          "type": "bytes32"
        }
      ],
      "stateMutability": "pure",
      "type": "function"
    },
    {
      "inputs": [
        {
          "internalType": "uint256",
          "name": "",
          "type": "uint256"
        }
      ],
      "name": "availableWorkers",
      "outputs": [
        {
          "internalType": "address",
          "name": "",
          "type": "address"
        }
      ],
      "stateMutability": "view",
      "type": "function"
    },
    {
      "inputs": [
        {
          "internalType": "uint256",
          "name": "",
          "type": "uint256"
        }
      ],
      "name": "busyWorkers",
      "outputs": [
        {
          "internalType": "address",
          "name": "",
          "type": "address"
        }
      ],
      "stateMutability": "view",
      "type": "function"
    },
    {
      "inputs": [
        {
          "internalType": "uint256",
          "name": "_DataBatchId",
          "type": "uint256"
        },
        {
          "internalType": "bytes32",
          "name": "_secretHash",
          "type": "bytes32"
        }
      ],
      "name": "commitFormatCheck",
      "outputs": [],
      "stateMutability": "nonpayable",
      "type": "function"
    },
    {
      "inputs": [
        {
          "internalType": "uint256[]",
          "name": "_DataBatchIDs",
          "type": "uint256[]"
        },
        {
          "internalType": "bytes32[]",
          "name": "_secretHashes",
          "type": "bytes32[]"
        }
      ],
      "name": "commitFormatChecks",
      "outputs": [],
      "stateMutability": "nonpayable",
      "type": "function"
    },
    {
      "inputs": [
        {
          "internalType": "uint256",
          "name": "_DataBatchId",
          "type": "uint256"
        }
      ],
      "name": "commitPeriodActive",
      "outputs": [
        {
          "internalType": "bool",
          "name": "active",
          "type": "bool"
        }
      ],
      "stateMutability": "view",
      "type": "function"
    },
    {
      "inputs": [
        {
          "internalType": "address",
          "name": "_voter",
          "type": "address"
        },
        {
          "internalType": "uint256",
          "name": "_DataBatchId",
          "type": "uint256"
        }
      ],
      "name": "didCommit",
      "outputs": [
        {
          "internalType": "bool",
          "name": "committed",
          "type": "bool"
        }
      ],
      "stateMutability": "view",
      "type": "function"
    },
    {
      "inputs": [
        {
          "internalType": "address",
          "name": "_voter",
          "type": "address"
        },
        {
          "internalType": "uint256",
          "name": "_DataBatchId",
          "type": "uint256"
        }
      ],
      "name": "didReveal",
      "outputs": [
        {
          "internalType": "bool",
          "name": "revealed",
          "type": "bool"
        }
      ],
      "stateMutability": "view",
      "type": "function"
    },
    {
      "inputs": [
        {
          "internalType": "uint256",
          "name": "_k",
          "type": "uint256"
        },
        {
          "internalType": "uint256",
          "name": "N_range",
          "type": "uint256"
        }
      ],
      "name": "generateIntegers",
      "outputs": [
        {
          "internalType": "uint256[]",
          "name": "",
          "type": "uint256[]"
        }
      ],
      "stateMutability": "view",
      "type": "function"
    },
    {
      "inputs": [],
      "name": "getActiveWorkersCount",
      "outputs": [
        {
          "internalType": "uint256",
          "name": "numWorkers",
          "type": "uint256"
        }
      ],
      "stateMutability": "view",
      "type": "function"
    },
    {
      "inputs": [],
      "name": "getBlockTimestamp",
      "outputs": [
        {
          "internalType": "uint256",
          "name": "blocktimestamp",
          "type": "uint256"
        }
      ],
      "stateMutability": "view",
      "type": "function"
    },
    {
      "inputs": [
        {
          "internalType": "address",
          "name": "_voter",
          "type": "address"
        },
        {
          "internalType": "uint256",
          "name": "_DataBatchId",
          "type": "uint256"
        }
      ],
      "name": "getCommitHash",
      "outputs": [
        {
          "internalType": "bytes32",
          "name": "commitHash",
          "type": "bytes32"
        }
      ],
      "stateMutability": "view",
      "type": "function"
    },
    {
      "inputs": [],
      "name": "getCurrentWorkEpoch",
      "outputs": [
        {
          "internalType": "uint256",
          "name": "WorkEpoch",
          "type": "uint256"
        }
      ],
      "stateMutability": "view",
      "type": "function"
    },
    {
      "inputs": [
        {
          "internalType": "uint256",
          "name": "_voteOption",
          "type": "uint256"
        },
        {
          "internalType": "uint256",
          "name": "_salt",
          "type": "uint256"
        }
      ],
      "name": "getEncryptedHash",
      "outputs": [
        {
          "internalType": "bytes32",
          "name": "keccak256hash",
          "type": "bytes32"
        }
      ],
      "stateMutability": "pure",
      "type": "function"
    },
    {
      "inputs": [
        {
          "internalType": "uint256",
          "name": "a",
          "type": "uint256"
        },
        {
          "internalType": "uint256",
          "name": "b",
          "type": "uint256"
        }
      ],
      "name": "getHash",
      "outputs": [
        {
          "internalType": "bytes32",
          "name": "keccak256hash",
          "type": "bytes32"
        }
      ],
      "stateMutability": "pure",
      "type": "function"
    },
    {
      "inputs": [
        {
          "internalType": "uint256",
          "name": "_DataBatchId",
          "type": "uint256"
        }
      ],
      "name": "getIPFShashesForBatch",
      "outputs": [
        {
          "internalType": "string[]",
          "name": "",
          "type": "string[]"
        }
      ],
      "stateMutability": "view",
      "type": "function"
    },
    {
      "inputs": [
        {
          "internalType": "address",
          "name": "_voter",
          "type": "address"
        },
        {
          "internalType": "uint256",
          "name": "_numTokens",
          "type": "uint256"
        },
        {
          "internalType": "uint256",
          "name": "_DataBatchId",
          "type": "uint256"
        }
      ],
      "name": "getInsertPointForNumTokens",
      "outputs": [
        {
          "internalType": "uint256",
          "name": "prevNode",
          "type": "uint256"
        }
      ],
      "stateMutability": "view",
      "type": "function"
    },
    {
      "inputs": [],
      "name": "getLastBatchId",
      "outputs": [
        {
          "internalType": "uint256",
          "name": "LastBatchId",
          "type": "uint256"
        }
      ],
      "stateMutability": "view",
      "type": "function"
    },
    {
      "inputs": [],
      "name": "getLastCheckedBatchId",
      "outputs": [
        {
          "internalType": "uint256",
          "name": "LastCheckedBatchId",
          "type": "uint256"
        }
      ],
      "stateMutability": "view",
      "type": "function"
    },
    {
      "inputs": [],
      "name": "getLastDataId",
      "outputs": [
        {
          "internalType": "uint256",
          "name": "DataId",
          "type": "uint256"
        }
      ],
      "stateMutability": "view",
      "type": "function"
    },
    {
      "inputs": [
        {
          "internalType": "address",
          "name": "_voter",
          "type": "address"
        }
      ],
      "name": "getLastNode",
      "outputs": [
        {
          "internalType": "uint256",
          "name": "DataID",
          "type": "uint256"
        }
      ],
      "stateMutability": "view",
      "type": "function"
    },
    {
      "inputs": [
        {
          "internalType": "address",
          "name": "_voter",
          "type": "address"
        }
      ],
      "name": "getLockedTokens",
      "outputs": [
        {
          "internalType": "uint256",
          "name": "numTokens",
          "type": "uint256"
        }
      ],
      "stateMutability": "view",
      "type": "function"
    },
    {
      "inputs": [
        {
          "internalType": "address",
          "name": "_voter",
          "type": "address"
        },
        {
          "internalType": "uint256",
          "name": "_DataBatchId",
          "type": "uint256"
        },
        {
          "internalType": "uint256",
          "name": "_salt",
          "type": "uint256"
        }
      ],
      "name": "getNumPassingTokens",
      "outputs": [
        {
          "internalType": "uint256",
          "name": "correctFormatChecks",
          "type": "uint256"
        }
      ],
      "stateMutability": "view",
      "type": "function"
    },
    {
      "inputs": [
        {
          "internalType": "address",
          "name": "_voter",
          "type": "address"
        },
        {
          "internalType": "uint256",
          "name": "_DataBatchId",
          "type": "uint256"
        }
      ],
      "name": "getNumTokens",
      "outputs": [
        {
          "internalType": "uint256",
          "name": "numTokens",
          "type": "uint256"
        }
      ],
      "stateMutability": "view",
      "type": "function"
    },
    {
      "inputs": [],
      "name": "getRandom",
      "outputs": [
        {
          "internalType": "uint256",
          "name": "",
          "type": "uint256"
        }
      ],
      "stateMutability": "view",
      "type": "function"
    },
    {
      "inputs": [],
      "name": "getSeed",
      "outputs": [
        {
          "internalType": "bytes32",
          "name": "addr",
          "type": "bytes32"
        }
      ],
      "stateMutability": "view",
      "type": "function"
    },
    {
      "inputs": [
        {
          "internalType": "uint256",
          "name": "_DataBatchId",
          "type": "uint256"
        }
      ],
      "name": "getTotalNumberOfFormatChecks",
      "outputs": [
        {
          "internalType": "uint256",
          "name": "vc",
          "type": "uint256"
        }
      ],
      "stateMutability": "view",
      "type": "function"
    },
    {
      "inputs": [
        {
          "internalType": "uint256",
          "name": "_DataBatchId",
          "type": "uint256"
        }
      ],
      "name": "getTotalNumberOfTokensForWinningOption",
      "outputs": [
        {
          "internalType": "uint256",
          "name": "numTokens",
          "type": "uint256"
        }
      ],
      "stateMutability": "view",
      "type": "function"
    },
    {
      "inputs": [],
      "name": "getTxCounter",
      "outputs": [
        {
          "internalType": "uint256",
          "name": "Counter",
          "type": "uint256"
        }
      ],
      "stateMutability": "view",
      "type": "function"
    },
    {
      "inputs": [
        {
          "internalType": "uint256",
          "name": "_terminationDate",
          "type": "uint256"
        }
      ],
      "name": "isExpired",
      "outputs": [
        {
          "internalType": "bool",
          "name": "expired",
          "type": "bool"
        }
      ],
      "stateMutability": "view",
      "type": "function"
    },
    {
      "inputs": [
        {
          "internalType": "uint256",
          "name": "_DataBatchId",
          "type": "uint256"
        }
      ],
      "name": "isPassed",
      "outputs": [
        {
          "internalType": "bool",
          "name": "passed",
          "type": "bool"
        }
      ],
      "stateMutability": "view",
      "type": "function"
    },
    {
      "inputs": [
        {
          "internalType": "address",
          "name": "_worker",
          "type": "address"
        }
      ],
      "name": "isWorkerRegistered",
      "outputs": [
        {
          "internalType": "bool",
          "name": "passed",
          "type": "bool"
        }
      ],
      "stateMutability": "view",
      "type": "function"
    },
    {
      "inputs": [],
      "name": "owner",
      "outputs": [
        {
          "internalType": "address",
          "name": "",
          "type": "address"
        }
      ],
      "stateMutability": "view",
      "type": "function"
    },
    {
      "inputs": [
        {
          "internalType": "uint256",
          "name": "k",
          "type": "uint256"
        },
        {
          "internalType": "uint256",
          "name": "N",
          "type": "uint256"
        }
      ],
      "name": "random_selection",
      "outputs": [
        {
          "internalType": "uint256[]",
          "name": "",
          "type": "uint256[]"
        }
      ],
      "stateMutability": "view",
      "type": "function"
    },
    {
      "inputs": [],
      "name": "renounceOwnership",
      "outputs": [],
      "stateMutability": "nonpayable",
      "type": "function"
    },
    {
      "inputs": [
        {
          "internalType": "uint256",
          "name": "_numTokens",
          "type": "uint256"
        }
      ],
      "name": "requestVotingRights",
      "outputs": [],
      "stateMutability": "nonpayable",
      "type": "function"
    },
    {
      "inputs": [
        {
          "internalType": "uint256",
          "name": "_DataBatchId",
          "type": "uint256"
        }
      ],
      "name": "rescueTokens",
      "outputs": [],
      "stateMutability": "nonpayable",
      "type": "function"
    },
    {
      "inputs": [
        {
          "internalType": "uint256[]",
          "name": "_DataBatchIDs",
          "type": "uint256[]"
        }
      ],
      "name": "rescueTokensInMultipleDatas",
      "outputs": [],
      "stateMutability": "nonpayable",
      "type": "function"
    },
    {
      "inputs": [
        {
          "internalType": "uint256",
          "name": "_DataBatchId",
          "type": "uint256"
        },
        {
          "internalType": "uint256",
          "name": "_voteOption",
          "type": "uint256"
        },
        {
          "internalType": "uint256",
          "name": "_salt",
          "type": "uint256"
        }
      ],
      "name": "revealFormatCheck",
      "outputs": [],
      "stateMutability": "nonpayable",
      "type": "function"
    },
    {
      "inputs": [
        {
          "internalType": "uint256[]",
          "name": "_DataBatchIDs",
          "type": "uint256[]"
        },
        {
          "internalType": "uint256[]",
          "name": "_voteOptions",
          "type": "uint256[]"
        },
        {
          "internalType": "uint256[]",
          "name": "_salts",
          "type": "uint256[]"
        }
      ],
      "name": "revealFormatChecks",
      "outputs": [],
      "stateMutability": "nonpayable",
      "type": "function"
    },
    {
      "inputs": [
        {
          "internalType": "uint256",
          "name": "_DataBatchId",
          "type": "uint256"
        }
      ],
      "name": "revealPeriodActive",
      "outputs": [
        {
          "internalType": "bool",
          "name": "active",
          "type": "bool"
        }
      ],
      "stateMutability": "view",
      "type": "function"
    },
    {
      "inputs": [],
      "name": "sFuel",
      "outputs": [
        {
          "internalType": "address",
          "name": "",
          "type": "address"
        }
      ],
      "stateMutability": "view",
      "type": "function"
    },
    {
      "inputs": [
        {
          "internalType": "uint256",
          "name": "N",
          "type": "uint256"
        }
      ],
      "name": "shuffle_array",
      "outputs": [
        {
          "internalType": "uint256[]",
          "name": "",
          "type": "uint256[]"
        }
      ],
      "stateMutability": "view",
      "type": "function"
    },
    {
      "inputs": [],
      "name": "token",
      "outputs": [
        {
          "internalType": "contract IERC20",
          "name": "",
          "type": "address"
        }
      ],
      "stateMutability": "view",
      "type": "function"
    },
    {
      "inputs": [
        {
          "internalType": "address",
          "name": "newOwner",
          "type": "address"
        }
      ],
      "name": "transferOwnership",
      "outputs": [],
      "stateMutability": "nonpayable",
      "type": "function"
    },
    {
      "inputs": [
        {
          "internalType": "address",
          "name": "addr",
          "type": "address"
        }
      ],
      "name": "updateAddressManager",
      "outputs": [],
      "stateMutability": "nonpayable",
      "type": "function"
    },
    {
      "inputs": [
        {
          "internalType": "uint256",
          "name": "COMMIT_ROUND_DURATION_",
          "type": "uint256"
        }
      ],
      "name": "updateCommitRoundDuration",
      "outputs": [],
      "stateMutability": "nonpayable",
      "type": "function"
    },
    {
      "inputs": [
        {
          "internalType": "address",
          "name": "addr",
          "type": "address"
        }
      ],
      "name": "updateRepManager",
      "outputs": [],
      "stateMutability": "nonpayable",
      "type": "function"
    },
    {
      "inputs": [
        {
          "internalType": "uint256",
          "name": "REVEAL_ROUND_DURATION_",
          "type": "uint256"
        }
      ],
      "name": "updateRevealRoundDuration",
      "outputs": [],
      "stateMutability": "nonpayable",
      "type": "function"
    },
    {
      "inputs": [
        {
          "internalType": "address",
          "name": "addr",
          "type": "address"
        }
      ],
      "name": "updateRewardManager",
      "outputs": [],
      "stateMutability": "nonpayable",
      "type": "function"
    },
    {
      "inputs": [
        {
          "internalType": "address",
          "name": "addr",
          "type": "address"
        }
      ],
      "name": "updateSpotManager",
      "outputs": [],
      "stateMutability": "nonpayable",
      "type": "function"
    },
    {
      "inputs": [
        {
          "internalType": "address",
          "name": "addr",
          "type": "address"
        }
      ],
      "name": "updateStakeManager",
      "outputs": [],
      "stateMutability": "nonpayable",
      "type": "function"
    },
    {
      "inputs": [
        {
          "internalType": "address",
          "name": "sFuel_",
          "type": "address"
        }
      ],
      "name": "updatesFuelFaucet",
      "outputs": [],
      "stateMutability": "nonpayable",
      "type": "function"
    },
    {
      "inputs": [
        {
          "internalType": "uint256",
          "name": "_prevID",
          "type": "uint256"
        },
        {
          "internalType": "uint256",
          "name": "_nextID",
          "type": "uint256"
        },
        {
          "internalType": "address",
          "name": "_voter",
          "type": "address"
        },
        {
          "internalType": "uint256",
          "name": "_numTokens",
          "type": "uint256"
        }
      ],
      "name": "validPosition",
      "outputs": [
        {
          "internalType": "bool",
          "name": "APPROVED",
          "type": "bool"
        }
      ],
      "stateMutability": "view",
      "type": "function"
    },
    {
      "inputs": [
        {
          "internalType": "uint256",
          "name": "_numTokens",
          "type": "uint256"
        }
      ],
      "name": "withdrawVotingRights",
      "outputs": [],
      "stateMutability": "nonpayable",
      "type": "function"
    }
  ],
  "bytecode": "0x60806040526802b5e3af16b18800006005819055678ac7230489e80000600655600755603c6008556000600e819055600f819055601780546001600160a01b0319167314f52f3fc010ab6ca81568d4a6794d5eab3c615517905560188190556019819055601a819055601c553480156200007857600080fd5b5060405162006403380380620064038339810160408190526200009b916200014a565b620000af620000a9620000f6565b620000fa565b601d80546001600160a01b0319166001600160a01b03929092169190911790556000600f5568056bc75e2d6310000060019081556002556028600355601e6004556200017a565b3390565b600080546001600160a01b038381166001600160a01b0319831681178455604051919092169283917f8be0079c531659141344cd1fd0a4f28419497f9722a3daafe3b4186f6b6457e09190a35050565b6000602082840312156200015c578081fd5b81516001600160a01b038116811462000173578182fd5b9392505050565b616279806200018a6000396000f3fe608060405234801561001057600080fd5b50600436106105305760003560e01c806397603560116102af578063d8b7567411610172578063ed8becfa116100d9578063f716596d11610092578063f716596d14610ad9578063f721de4a14610ae1578063f80a23fd14610af4578063fc0c546a14610afc578063fca4956314610b04578063fea44eae14610b1757610530565b8063ed8becfa14610a7b578063ef4fcdad14610a9b578063f2d9e74d14610aa3578063f2fde38b14610aab578063f5ae7c7d14610abe578063f60e738114610ac657610530565b8063df05368e1161012b578063df05368e14610a14578063e44c974b14610a27578063e7805f9e14610a3a578063e798a7da14610a42578063e7b1d43c14610a55578063e8e9b6f914610a6857610530565b8063d8b75674146109ad578063d901402b146109c0578063d9548e53146109d3578063db687c17146109e6578063dd618682146109f9578063deadefa714610a0c57610530565b8063b1cf4a7e11610216578063ca6e822d116101cf578063ca6e822d1461095c578063cb1c2b5c14610964578063d13820921461096c578063d420ec0b1461097f578063d822ce0114610992578063d8645d37146109a557610530565b8063b1cf4a7e1461058b578063b1d7ea98146108f0578063b43bd06914610910578063b8f011b314610923578063c47c4bc214610936578063c4e4f82a1461094957610530565b8063a4439dc511610268578063a4439dc51461089f578063a511dba0146108b2578063aa7ca464146108ba578063aacc5a17146108cd578063ab43e78d146108d5578063b1a2e0be146108dd57610530565b806397603560146108385780639acb75c11461084b5780639fc9c52f14610853578063a0e71c1514610866578063a1103f3714610879578063a25236fe1461088c57610530565b806351912f29116103f7578063796b89b91161035e578063821aa8c011610317578063821aa8c0146107d157806383cc6ef2146107e45780638473850b146107ec5780638c89d027146107f45780638da5cb5b1461081d5780638df0296e1461082557610530565b8063796b89b9146107685780637a34da67146107705780637f9510a2146107785780637f97e836146107805780637fabe35b14610793578063819b0293146107be57610530565b80636b1485a3116103b05780636b1485a31461070c5780636b2d95d41461071f578063715018a61461073257806371880b1b1461073a578063781fb0ad1461074d5780637827e5491461076057610530565b806351912f29146106b657806358002158146106be5780635fd87909146106d157806362b7e941146106d9578063667bf0f8146106e15780636a192ff5146106e957610530565b8063313066ee1161049b578063427fa1d211610454578063427fa1d21461065a578063441c77c01461066d57806347fe2d201461068057806349403183146106885780634d8842811461069b578063515535e8146106ae57610530565b8063313066ee146106145780633538af821461061c578063353f44d01461062f578063354dae401461064257806339e7357c1461064a5780633ad2131f1461065257610530565b806321bcb51e116104ed57806321bcb51e1461059e578063226ed300146105b1578063275c2590146105d157806329a47bc7146105d95780632c052031146105ee5780632d917c681461060157610530565b806304dbcda714610535578063050eb2eb14610553578063053e71a6146105685780630e6661a71461057b5780630e670feb146105835780631b8550441461058b575b600080fd5b61053d610b2a565b60405161054a9190615151565b60405180910390f35b610566610561366004614c5c565b610b30565b005b61053d610576366004614fcb565b610b9a565b61053d610c00565b61053d610c06565b61053d61059936600461501f565b610c0c565b6105666105ac366004614cd1565b610c3f565b6105c46105bf366004614fcb565b610cd8565b60405161054a91906152aa565b610566610d20565b6105e1610e0e565b60405161054a9190615184565b61053d6105fc366004614c9f565b610e1d565b6105c461060f366004614c76565b610fba565b61053d610fda565b6105e161062a366004614fcb565b610fe0565b61053d61063d366004614c5c565b61100a565b61056661101c565b61053d61113a565b61053d611157565b61053d610668366004614c5c565b61115d565b6105c461067b366004614fcb565b6111fd565b61053d611257565b6105c4610696366004614fcb565b61125d565b6105666106a9366004614c5c565b6114de565b61053d61153f565b6105e1611545565b6105666106cc366004614fcb565b611554565b61053d611598565b61053d61159e565b6105666115a4565b6106fc6106f7366004614fcb565b611947565b60405161054a94939291906152df565b61056661071a366004614fcb565b611a06565b61053d61072d366004614c5c565b611e6e565b610566611e7d565b61053d610748366004614fcb565b611ec8565b61056661075b36600461501f565b611f05565b61053d612358565b61053d61235e565b6105e1612362565b61053d612371565b6105c461078e366004614c76565b612388565b6107a66107a1366004614fcb565b6123db565b60405161054a9c9b9a9998979695949392919061603d565b6105c46107cc366004615040565b612441565b6105e16107df366004614fcb565b612482565b6105e1612492565b61053d6124a1565b610807610802366004614c5c565b6124a7565b60405161054a9a99989796959493929190615198565b6105e161259a565b6105e161083336600461501f565b6125a9565b610566610846366004614fcb565b6125e1565b61053d612790565b610566610861366004614dce565b612796565b61053d610874366004614fcb565b6127e8565b61053d610887366004614c76565b61280c565b61056661089a366004614fcb565b612821565b6105c46108ad366004614fcb565b612922565b61053d612964565b6105c46108c8366004614c76565b61296a565b61053d6129bd565b6105e1612a72565b6105c46108eb366004614c5c565b612a81565b6109036108fe36600461501f565b612bde565b60405161054a9190615266565b61053d61091e366004614c9f565b612de5565b61090361093136600461501f565b612ed1565b610566610944366004614c5c565b613039565b61053d610957366004614fcb565b61309a565b6105666130d7565b61053d61340c565b61053d61097a366004614c76565b613412565b6105c461098d366004614c76565b6134a7565b6105e16109a0366004614c76565b6134c7565b6105e16134e3565b61053d6109bb366004614ff4565b6134f2565b61053d6109ce366004614c76565b61350f565b6105c46109e1366004614fcb565b613554565b6105666109f4366004614c5c565b613559565b610566610a07366004614c5c565b6135ba565b61053d61361b565b610566610a22366004614c5c565b613621565b610903610a35366004614fcb565b613682565b61053d6136fb565b6105c4610a50366004614c5c565b613701565b610566610a63366004614fcb565b613722565b610566610a76366004614fcb565b61385e565b610a8e610a89366004614fcb565b6138a2565b60405161054a9190615206565b61053d613c20565b61053d613c26565b610566610ab9366004614c5c565b613c2c565b61053d613c9d565b610566610ad436600461507c565b613ca3565b610566613f3f565b6105c4610aef366004614fcb565b614108565b6105c4614110565b6105e1614129565b61053d610b12366004614c5c565b614138565b610566610b25366004614d39565b61426d565b60055481565b610b38614345565b6001600160a01b0316610b4961259a565b6001600160a01b031614610b785760405162461bcd60e51b8152600401610b6f90615a7d565b60405180910390fd5b602080546001600160a01b0319166001600160a01b0392909216919091179055565b6000610ba582610cd8565b610bc15760405162461bcd60e51b8152600401610b6f90615845565b610bca8261125d565b15610be757506000818152601b6020526040902060070154610bfb565b506000818152601b60205260409020600801545b919050565b600f5481565b60065481565b60008282604051602001610c21929190615176565b60405160208183030381529060405280519060200120905092915050565b828114610c5e5760405162461bcd60e51b8152600401610b6f90615497565b60005b83811015610cd157610cbf858583818110610c8c57634e487b7160e01b600052603260045260246000fd5b90506020020135848484818110610cb357634e487b7160e01b600052603260045260246000fd5b90506020020135611f05565b80610cc9816161d2565b915050610c61565b5050505050565b6000610ce382614108565b610cff5760405162461bcd60e51b8152600401610b6f90615e26565b6000828152601b6020526040902060060154610d1a90613554565b92915050565b610d28614349565b336000908152601060205260409020600681015460ff161515600114610d605760405162461bcd60e51b8152600401610b6f906156cb565b6000610d6a61235e565b9050610d75336144d1565b8154336001600160a01b031991821681178455600180850180549093169091179091556005830182905560068301805460ff199081169091556008840180549091169055601c8054600090610dcb908490616105565b909155505060405133907f9dadcedba048e92b943ea1c5861cee1df63a566d7f795869c004780c1c698e2b90610e02908490615151565b60405180910390a25050565b601f546001600160a01b031681565b600080610e298561115d565b90506000610e378683613412565b90505b8115610faf57610e4a8683613412565b9050848111610f075783821415610eff576001600160a01b0386166000908152600c602052604090819020905163215e94cf60e01b815273__$6ffa5bf1f4fa681f07e1987a80577d5f4e$__9163215e94cf91610eac91908690600401615176565b60206040518083038186803b158015610ec457600080fd5b505af4158015610ed8573d6000803e3d6000fd5b505050506040513d601f19601f82011682018060405250810190610efc9190614fe3565b91505b509050610fb3565b6001600160a01b0386166000908152600c602052604090819020905163215e94cf60e01b815273__$6ffa5bf1f4fa681f07e1987a80577d5f4e$__9163215e94cf91610f5891908690600401615176565b60206040518083038186803b158015610f7057600080fd5b505af4158015610f84573d6000803e3d6000fd5b505050506040513d601f19601f82011682018060405250810190610fa89190614fe3565b9150610e3a565b5090505b9392505050565b600960209081526000928352604080842090915290825290205460ff1681565b600e5481565b60148181548110610ff057600080fd5b6000918252602090912001546001600160a01b0316905081565b60126020526000908152604090205481565b611024614349565b601a546000908152601b602052604090206004015460ff166110585760405162461bcd60e51b8152600401610b6f90615ec3565b601a546000908152601b602052604090206004015462010000900460ff161515600114801590611089575060145415155b1561109b576110966115a4565b6110e0565b601a546000908152601b602052604090206004015462010000900460ff16151560011480156110d057506110d0601a54610cd8565b156110e0576110e0601a54611a06565b600e546110ee906001614500565b600e819055506001601c60008282546111079190616105565b9091555050600e546040517f94d48a7342690f1233e3f4db70efa37c4f1f25f4d0397c353f3f15aecdeca5f490600090a2565b60405160009080602081848060185afa61115057fe5b5051919050565b60085481565b6001600160a01b0381166000908152600c6020526040808220905163215e94cf60e01b815273__$6ffa5bf1f4fa681f07e1987a80577d5f4e$__9163215e94cf916111ad91908590600401615176565b60206040518083038186803b1580156111c557600080fd5b505af41580156111d9573d6000803e3d6000fd5b505050506040513d601f19601f82011682018060405250810190610d1a9190614fe3565b600061120882614108565b6112245760405162461bcd60e51b8152600401610b6f90615bde565b6000828152601b602052604090206006015461123f90613554565b158015610d1a575061125082612922565b1592915050565b601a5490565b600061126882610cd8565b6112845760405162461bcd60e51b8152600401610b6f906157f9565b6000828152601b6020908152604080832081516101c081018352815481526001820154938101939093526002810154918301919091526003808201546060840152600482015460ff808216151560808601526101008083048216151560a0870152620100009092048116151560c0860152600584015460e086015260068401549185019190915260078301546101208501526008830154610140850152600983015461016085019291169081111561134c57634e487b7160e01b600052602160045260246000fd5b600381111561136b57634e487b7160e01b600052602160045260246000fd5b8152602001600a8201805480602002602001604051908101604052809291908181526020016000905b828210156114405783829060005260206000200180546113b390616197565b80601f01602080910402602001604051908101604052809291908181526020018280546113df90616197565b801561142c5780601f106114015761010080835404028352916020019161142c565b820191906000526020600020905b81548152906001019060200180831161140f57829003601f168201915b505050505081526020019060010190611394565b505050508152602001600b820180548060200260200160405190810160405280929190818152602001828054801561149757602002820191906000526020600020905b815481526020019060010190808311611483575b50505050508152505090508061014001518161012001516114b89190616105565b6008546114c59190616131565b6101208201516114d6906064616131565b119392505050565b6114e6614345565b6001600160a01b03166114f761259a565b6001600160a01b03161461151d5760405162461bcd60e51b8152600401610b6f90615a7d565b601780546001600160a01b0319166001600160a01b0392909216919091179055565b60185490565b6020546001600160a01b031681565b61155c614345565b6001600160a01b031661156d61259a565b6001600160a01b0316146115935760405162461bcd60e51b8152600401610b6f90615a7d565b600455565b60045481565b60025481565b6115ac614349565b601a546000908152601b602052604090206004015460ff166115e05760405162461bcd60e51b8152600401610b6f90615afb565b601a546000908152601b602052604090206004015462010000900460ff161561161b5760405162461bcd60e51b8152600401610b6f906159b2565b6000611645606460148054905060146116349190616131565b61163e919061611d565b600161450c565b601454601a546000908152601b602052604081206003908101849055549293509091611672904290614500565b9050600061168b6004548361450090919063ffffffff16565b601a80546000908152601b60205260408082206005018690558254825280822060060184905591548152908120600401805462ff00001916620100001790559091506116d78585612ed1565b9050600081516001600160401b0381111561170257634e487b7160e01b600052604160045260246000fd5b60405190808252806020026020018201604052801561172b578160200160208202803683370190505b50905060005b82518110156117ea57601483828151811061175c57634e487b7160e01b600052603260045260246000fd5b60200260200101518154811061178257634e487b7160e01b600052603260045260246000fd5b9060005260206000200160009054906101000a90046001600160a01b03168282815181106117c057634e487b7160e01b600052603260045260246000fd5b6001600160a01b0390921660209283029190910190910152806117e2816161d2565b915050611731565b5060005b825181101561193e57600082828151811061181957634e487b7160e01b600052603260045260246000fd5b6020908102919091018101516001600160a01b03811660008181526010845260408082206015805460018181019092557f55f448fdea98c4d29eb340757ef0a66cd03dbb9538908a6a81d96026b71ec4750180546001600160a01b03199081168717909155601a5485526016885292842080549182018155845295909220909401805490941690911790925584519092506118db908590859081106118ce57634e487b7160e01b600052603260045260246000fd5b6020026020010151614523565b601a8054600283015560038201805460ff19169055546040517fe4ee2dfabe57cee15e3f558890b20455f54c1fa0718e5276faad70a6500e6b8c90611921908590615184565b60405180910390a250508080611936906161d2565b9150506117ee565b50505050505050565b60116020526000908152604090208054819061196290616197565b80601f016020809104026020016040519081016040528092919081815260200182805461198e90616197565b80156119db5780601f106119b0576101008083540402835291602001916119db565b820191906000526020600020905b8154815290600101906020018083116119be57829003601f168201915b505050506001830154600284015460039094015492936001600160a01b039091169290915060ff1684565b611a0e614349565b611a1781610cd8565b611a335760405162461bcd60e51b8152600401610b6f90615773565b6000611a3e8261125d565b600083815260166020908152604080832080548251818502810185019093528083529495509293909291830182828015611aa157602002820191906000526020600020905b81546001600160a01b03168152600190910190602001808311611a83575b5050505050905060005b8151811015611cc5576000828281518110611ad657634e487b7160e01b600052603260045260246000fd5b6020908102919091018101516000878152600b835260408082206001600160a01b0384168352845280822054600a85528183208a845290945290205490925060ff16611b218361467b565b6001600160a01b03831660009081526010602052604090208115611c93576001600160a01b0384166000908152601060205260409020600301805460ff19166001908117909155871515148015611b785750826001145b80611b8d575086158015611b8d575082600114155b15611c3357601f54600754604051630db6cc8560e11b81526001600160a01b0390921691631b6d990a91611bc5918890600401616009565b602060405180830381600087803b158015611bdf57600080fd5b505af1158015611bf3573d6000803e3d6000fd5b505050506040513d601f19601f82011682018060405250810190611c179190614e5d565b611c335760405162461bcd60e51b8152600401610b6f90615d30565b60148054600180820183556000929092527fce6d7b5282bd9a3661ae061feed1dbda4e52ab073b1f9285be6e155d9c38d4ec0180546001600160a01b0319166001600160a01b03871617905560068201805460ff19169091179055611cae565b60068101805460ff1990811690915560088201805490911690555b505050508080611cbd906161d2565b915050611aab565b508115611da757601f5460075460008581526011602052604090819020600101549051630db6cc8560e11b81526001600160a01b0393841693631b6d990a93611d15939092911690600401616009565b602060405180830381600087803b158015611d2f57600080fd5b505af1158015611d43573d6000803e3d6000fd5b505050506040513d601f19601f82011682018060405250810190611d679190614e5d565b611d835760405162461bcd60e51b8152600401610b6f90615c42565b601a546000908152601b60205260409020600901805460ff19166001179055611dc7565b601a546000908152601b60205260409020600901805460ff191660021790555b601a80546000908152601b60205260409020600401805461ff00191661010017905554611df5906001614500565b601a819055506001601c6000828254611e0e9190616105565b909155505060008381526011602052604090819020600181015491516001600160a01b03909216917fb83f08cf731092d35d6dd4801ac76e3fcc84b1b199915531c9874230d31adeaa91611e6191615320565b60405180910390a2505050565b6000610d1a8261097a8461115d565b611e85614345565b6001600160a01b0316611e9661259a565b6001600160a01b031614611ebc5760405162461bcd60e51b8152600401610b6f90615a7d565b611ec660006146ad565b565b6000611ed382614108565b611eef5760405162461bcd60e51b8152600401610b6f90615bde565b506000908152601b602052604090206006015490565b611f0d614349565b611f1682612922565b611f325760405162461bcd60e51b8152600401610b6f9061561a565b81611f3c33614138565b14611f595760405162461bcd60e51b8152600401610b6f90615a0f565b60015433600090815260126020526040902054811115611f9b5733600090815260126020526040812054611f8e9083906146fd565b9050611f9981612821565b505b33600090815260126020526040902054811115611fca5760405162461bcd60e51b8152600401610b6f90615cd3565b6000336000908152600c60205260408082209051631b23afef60e21b815273__$6ffa5bf1f4fa681f07e1987a80577d5f4e$__91636c8ebfbc9161201391908690600401615176565b60206040518083038186803b15801561202b57600080fd5b505af415801561203f573d6000803e3d6000fd5b505050506040513d601f19601f820116820180604052508101906120639190614fe3565b90508481141561210857336000908152600c6020526040908190209051631b23afef60e21b815273__$6ffa5bf1f4fa681f07e1987a80577d5f4e$__91636c8ebfbc916120b591908990600401615176565b60206040518083038186803b1580156120cd57600080fd5b505af41580156120e1573d6000803e3d6000fd5b505050506040513d601f19601f820116820180604052508101906121059190614fe3565b90505b61211482823386612441565b6121305760405162461bcd60e51b8152600401610b6f90615984565b336000908152600c602052604090819020905163f3a1998360e01b815273__$6ffa5bf1f4fa681f07e1987a80577d5f4e$__9163f3a199839161217c919086908a908790600401615fd7565b60006040518083038186803b15801561219457600080fd5b505af41580156121a8573d6000803e3d6000fd5b5050505060006121b8338761280c565b60408051808201825260098152686e756d546f6b656e7360b81b60208201529051633416d70d60e21b81529192509073__$d865f21674766f31b0d600e4a95b721b57$__9063d05b5c349061221890600d90869086908b90600401615f2c565b60006040518083038186803b15801561223057600080fd5b505af4158015612244573d6000803e3d6000fd5b5050604051633416d70d60e21b815273__$d865f21674766f31b0d600e4a95b721b57$__925063d05b5c34915061228490600d9086908b90600401615f7a565b60006040518083038186803b15801561229c57600080fd5b505af41580156122b0573d6000803e3d6000fd5b505033600090815260106020526040902091506122cd905061235e565b60058201553360009081526009602090815260408083208b84529091528120805460ff19166001908117909155601c80549192909161230d908490616105565b9091555050604051339089907f1b5c5140592c554fa4c0cdb5b3d3cd50f87aa84e477afd0b6c93d7702ef9c73c90612346908a90615151565b60405180910390a35050505050505050565b60075481565b4290565b6021546001600160a01b031681565b60155460145460009161238391616105565b905090565b600061239382614108565b6123af5760405162461bcd60e51b8152600401610b6f90615bde565b506001600160a01b03919091166000908152600960209081526040808320938352929052205460ff1690565b601b602052600090815260409020805460018201546002830154600384015460048501546005860154600687015460078801546008890154600990990154979896979596949560ff8086169661010087048216966201000090048216959493929091168c565b60008061244e8487613412565b8310159050600061245f8587613412565b8411158061246b575085155b90508180156124775750805b979650505050505050565b60158181548110610ff057600080fd5b601e546001600160a01b031681565b60185481565b601060205260009081526040902080546001820154600283015460038401546004850154600586015460068701546007880180546001600160a01b03988916999790981697959660ff958616969495939492909316929161250790616197565b80601f016020809104026020016040519081016040528092919081815260200182805461253390616197565b80156125805780601f1061255557610100808354040283529160200191612580565b820191906000526020600020905b81548152906001019060200180831161256357829003601f168201915b505050506008830154600990930154919260ff169190508a565b6000546001600160a01b031690565b601660205281600052604060002081815481106125c557600080fd5b6000918252602090912001546001600160a01b03169150829050565b60016000828152601b602052604090206009015460ff16600381111561261757634e487b7160e01b600052602160045260246000fd5b146126345760405162461bcd60e51b8152600401610b6f90615401565b336000908152600c602052604090819020905163162a54af60e31b815273__$6ffa5bf1f4fa681f07e1987a80577d5f4e$__9163b152a5789161267c91908590600401615176565b60206040518083038186803b15801561269457600080fd5b505af41580156126a8573d6000803e3d6000fd5b505050506040513d601f19601f820116820180604052508101906126cc9190614e5d565b6126e85760405162461bcd60e51b8152600401610b6f906158dc565b336000908152600c6020526040908190209051634dab476560e01b815273__$6ffa5bf1f4fa681f07e1987a80577d5f4e$__91634dab47659161273091908590600401615176565b60006040518083038186803b15801561274857600080fd5b505af415801561275c573d6000803e3d6000fd5b50506040513392508391507f402507661c8c8cb90e0a796450b8bdd28b6c516f05279c0cd29e84c344e1699a90600090a350565b600e5490565b60005b81518110156127e4576127d28282815181106127c557634e487b7160e01b600052603260045260246000fd5b60200260200101516125e1565b806127dc816161d2565b915050612799565b5050565b6000818152601b6020526040812060088101546007909101548291610fb391616105565b60008282604051602001610c2192919061512f565b601e546040516304ada21f60e21b81526001600160a01b03909116906312b6887c906128539084903390600401615ff2565b602060405180830381600087803b15801561286d57600080fd5b505af1158015612881573d6000803e3d6000fd5b505050506040513d601f19601f820116820180604052508101906128a59190614e5d565b6128c15760405162461bcd60e51b8152600401610b6f90615716565b33600090815260126020526040812080548392906128e0908490616105565b909155505060405133907ff7aaf024511d9982df8cd0d437c71c30106e6848cd1ba3d288d7a9c0e276aeda90612917908490615151565b60405180910390a250565b600061292d82614108565b6129495760405162461bcd60e51b8152600401610b6f90615bde565b6000828152601b602052604090206005015461125090613554565b600f5490565b600061297582614108565b6129915760405162461bcd60e51b8152600401610b6f90615bde565b506001600160a01b03919091166000908152600a60209081526040808320938352929052205460ff1690565b60008042416040516020016129d29190615112565b6040516020818303038152906040528051906020012060001c6129f5919061611d565b446129fe61113a565b604051602001612a0e9190615151565b60408051601f198184030181529190528051602090910120612a309042616105565b612a3a9190616105565b612a449190616105565b604051602001612a549190615151565b60408051601f19818403018152919052805160209091012091505090565b6017546001600160a01b031681565b6001600160a01b038082166000908152601060209081526040808320815161014081018352815486168152600182015490951692850192909252600282015490840152600381015460ff9081161515606085015260048201546080850152600582015460a0850152600682015416151560c0840152600781018054929384938493919260e0840191612b1290616197565b80601f0160208091040260200160405190810160405280929190818152602001828054612b3e90616197565b8015612b8b5780601f10612b6057610100808354040283529160200191612b8b565b820191906000526020600020905b815481529060010190602001808311612b6e57829003601f168201915b5050509183525050600882015460ff16151560208201526009909101546040909101526060810151909150158015612bcd5750612bcb8160400151610cd8565b155b15612bd757600191505b5092915050565b606060008211612bed57600080fd5b600041604051602001612c009190615112565b6040516020818303038152906040528051906020012060001c612c2161113a565b604051602001612c319190615151565b60408051601f198184030181529190528051602090910120612c539042616105565b612c5d9190616105565b604051602001612c6d9190615151565b6040516020818303038152906040528051906020012060001c90506000846001600160401b03811115612cb057634e487b7160e01b600052604160045260246000fd5b604051908082528060200260200182016040528015612cd9578160200160208202803683370190505b5090506000805b86821015612dda57600086612cf963017efeeb87616150565b83604051602001612d0b929190615176565b6040516020818303038152906040528051906020012060001c612d2e91906161ed565b90506000805b84811015612d865782868281518110612d5d57634e487b7160e01b600052603260045260246000fd5b60200260200101511415612d745760019150612d86565b80612d7e816161d2565b915050612d34565b5080612dc65781858581518110612dad57634e487b7160e01b600052603260045260246000fd5b6020908102919091010152612dc3846001616105565b93505b612dd1836001616105565b92505050612ce0565b509095945050505050565b6000612df083610cd8565b612e0c5760405162461bcd60e51b8152600401610b6f90615d7f565b6001600160a01b0384166000908152600a6020908152604080832086845290915290205460ff16612e4f5760405162461bcd60e51b8152600401610b6f90615939565b6000612e5a8461125d565b612e65576000612e68565b60015b60ff16905060008184604051602001612e82929190615176565b6040516020818303038152906040528051906020012090506000612ea6878761350f565b9050808214612ec75760405162461bcd60e51b8152600401610b6f90615ab2565b6124778787613412565b6060600082118015612ee35750818311155b8015612ef0575060018310155b612f0c5760405162461bcd60e51b8152600401610b6f906155d1565b6000826001600160401b03811115612f3457634e487b7160e01b600052604160045260246000fd5b604051908082528060200260200182016040528015612f5d578160200160208202803683370190505b5090506000846001600160401b03811115612f8857634e487b7160e01b600052604160045260246000fd5b604051908082528060200260200182016040528015612fb1578160200160208202803683370190505b5090506000612fc7612fc284614709565b61475f565b905060005b86811015612dda57818181518110612ff457634e487b7160e01b600052603260045260246000fd5b602002602001015183828151811061301c57634e487b7160e01b600052603260045260246000fd5b602090810291909101015280613031816161d2565b915050612fcc565b613041614345565b6001600160a01b031661305261259a565b6001600160a01b0316146130785760405162461bcd60e51b8152600401610b6f90615a7d565b602180546001600160a01b0319166001600160a01b0392909216919091179055565b60006130a582614108565b6130c15760405162461bcd60e51b8152600401610b6f90615bde565b506000908152601b602052604090206005015490565b6022546040805163023ff16960e51b815290516000926001600160a01b0316916347fe2d2091600480830192602092919082900301818787803b15801561311d57600080fd5b505af1158015613131573d6000803e3d6000fd5b505050506040513d601f19601f820116820180604052508101906131559190614fe3565b905060145b8160195410801561316b5750600081115b156133f057602254601954604051631b308bf760e31b81526000926001600160a01b03169163d9845fb8916131a39190600401615151565b600060405180830381600087803b1580156131bd57600080fd5b505af11580156131d1573d6000803e3d6000fd5b505050506040513d6000823e601f3d908101601f191682016040526131f99190810190614e77565b610180810151909150600181600381111561322457634e487b7160e01b600052602160045260246000fd5b14156133e957600f54613238906001616105565b600f819055604080516080810182526101608501518152336020808301919091524282840152600060608301819052938452601181529190922082518051919261328792849290910190614a23565b506020820151600182810180546001600160a01b0319166001600160a01b0390931692909217909155604083015160028301556060830151600380840180549293909260ff19169184908111156132ee57634e487b7160e01b600052602160045260246000fd5b0217905550506018546000908152601b6020526040902060028101549091506005111561333c57600181600201600082825461332a9190616105565b9091555050600f546001820155613388565b60048101805461ff001960ff1990911660011716905561335a61101c565b60016018600082825461336d9190616105565b9091555050600f546018546000908152601b60205260409020555b600f547fe72ee44ad0ed1dfc338f7eec797c944eb218773c1edbb4bb653dd9c1e2a62304846101600151336040516133c19291906152b5565b60405180910390a26019546133d7906001614500565b6019556133e5600185616150565b9350505b505061315a565b6001601c60008282546134039190616105565b90915550505050565b60015481565b600073__$d865f21674766f31b0d600e4a95b721b57$__6362e02a2a600d61343a868661280c565b6040518363ffffffff1660e01b8152600401613457929190615fa8565b60206040518083038186803b15801561346f57600080fd5b505af4158015613483573d6000803e3d6000fd5b505050506040513d601f19601f82011682018060405250810190610fb39190614fe3565b600a60209081526000928352604080842090915290825290205460ff1681565b601360205281600052604060002081815481106125c557600080fd5b6022546001600160a01b031681565b600b60209081526000928352604080842090915290825290205481565b600073__$d865f21674766f31b0d600e4a95b721b57$__6362e02a2a600d613537868661280c565b6040518363ffffffff1660e01b8152600401613457929190615f5c565b421190565b613561614345565b6001600160a01b031661357261259a565b6001600160a01b0316146135985760405162461bcd60e51b8152600401610b6f90615a7d565b602280546001600160a01b0319166001600160a01b0392909216919091179055565b6135c2614345565b6001600160a01b03166135d361259a565b6001600160a01b0316146135f95760405162461bcd60e51b8152600401610b6f90615a7d565b601f80546001600160a01b0319166001600160a01b0392909216919091179055565b60195481565b613629614345565b6001600160a01b031661363a61259a565b6001600160a01b0316146136605760405162461bcd60e51b8152600401610b6f90615a7d565b601e80546001600160a01b0319166001600160a01b0392909216919091179055565b60606000821161369157600080fd5b6000826001600160401b038111156136b957634e487b7160e01b600052604160045260246000fd5b6040519080825280602002602001820160405280156136e2578160200160208202803683370190505b50905060006136f3612fc283614709565b949350505050565b60035481565b6001600160a01b031660009081526010602052604090206008015460ff1690565b600061374661373033611e6e565b33600090815260126020526040902054906146fd565b9050818110156137685760405162461bcd60e51b8152600401610b6f90615b97565b601e54604051630895993360e11b81526001600160a01b039091169063112b32669061379a9085903390600401615ff2565b602060405180830381600087803b1580156137b457600080fd5b505af11580156137c8573d6000803e3d6000fd5b505050506040513d601f19601f820116820180604052508101906137ec9190614e5d565b6138085760405162461bcd60e51b8152600401610b6f90615dc9565b3360009081526012602052604081208054849290613827908490616150565b909155505060405133907ffaeb7dbb9992397d26ea1944efd40c80b40f702faf69b46c67ad10aba68ccb7990610e02908590615151565b613866614345565b6001600160a01b031661387761259a565b6001600160a01b03161461389d5760405162461bcd60e51b8152600401610b6f90615a7d565b600355565b60606138ad82614108565b6138c95760405162461bcd60e51b8152600401610b6f90615bde565b6000828152601b6020908152604080832081516101c081018352815481526001820154938101939093526002810154918301919091526003808201546060840152600482015460ff808216151560808601526101008083048216151560a0870152620100009092048116151560c0860152600584015460e086015260068401549185019190915260078301546101208501526008830154610140850152600983015461016085019291169081111561399157634e487b7160e01b600052602160045260246000fd5b60038111156139b057634e487b7160e01b600052602160045260246000fd5b8152602001600a8201805480602002602001604051908101604052809291908181526020016000905b82821015613a855783829060005260206000200180546139f890616197565b80601f0160208091040260200160405190810160405280929190818152602001828054613a2490616197565b8015613a715780601f10613a4657610100808354040283529160200191613a71565b820191906000526020600020905b815481529060010190602001808311613a5457829003601f168201915b5050505050815260200190600101906139d9565b505050508152602001600b8201805480602002602001604051908101604052809291908181526020018280548015613adc57602002820191906000526020600020905b815481526020019060010190808311613ac8575b505050919092525050506040818101518151600580825260c0820190935292935091600091816020015b6060815260200190600190039081613b0657905050905060005b82811015613c17578351600090613b38908390616105565b600081815260116020526040812080549293509091613b5690616197565b80601f0160208091040260200160405190810160405280929190818152602001828054613b8290616197565b8015613bcf5780601f10613ba457610100808354040283529160200191613bcf565b820191906000526020600020905b815481529060010190602001808311613bb257829003601f168201915b5050505050905080848481518110613bf757634e487b7160e01b600052603260045260246000fd5b602002602001018190525050508080613c0f906161d2565b915050613b20565b50949350505050565b601a5481565b601c5481565b613c34614345565b6001600160a01b0316613c4561259a565b6001600160a01b031614613c6b5760405162461bcd60e51b8152600401610b6f90615a7d565b6001600160a01b038116613c915760405162461bcd60e51b8152600401610b6f9061558b565b613c9a816146ad565b50565b601c5490565b613cab614349565b613cb4836111fd565b613cd05760405162461bcd60e51b8152600401610b6f90615b51565b33600090815260096020908152604080832086845290915290205460ff16613d0a5760405162461bcd60e51b8152600401610b6f906157aa565b613d14338461350f565b613d1e8383610c0c565b14613d3b5760405162461bcd60e51b8152600401610b6f90615508565b6000613d473385613412565b90508260011415613d7e576000848152601b602052604081206007018054839290613d73908490616105565b90915550613da59050565b6000848152601b602052604081206008018054839290613d9f908490616105565b90915550505b336000908152600c6020526040908190209051634dab476560e01b815273__$6ffa5bf1f4fa681f07e1987a80577d5f4e$__91634dab476591613ded91908890600401615176565b60006040518083038186803b158015613e0557600080fd5b505af4158015613e19573d6000803e3d6000fd5b5050336000818152600a602090815260408083208a84528252808320805460ff19166001908117909155600b8352818420948452938252808320899055601082528083208a8452601b90925290912060030154909350613e7a9250906146fd565b6000868152601b60205260409020600390810191909155600682018054600160ff1991821681179092559183018054909216179055613eb761235e565b6005820155613ec53361467b565b6001601c6000828254613ed89190616105565b90915550506000858152601b602052604090819020600781015460089091015491513392879289927f2e5fbeef18eaa8d8ea3b0122bc64445c4daaa6f454dfb889456791a92287f37892613f30928992909190616027565b60405180910390a45050505050565b613f47614349565b3360009081526010602052604090206015546014546103e891613f6991616105565b10613f865760405162461bcd60e51b8152600401610b6f90615c91565b600681015460ff1615613fab5760405162461bcd60e51b8152600401610b6f906153ca565b6000613fb561235e565b6001543360009081526012602052604090205491925090811115613ffb5733600090815260126020526040812054613fee9083906146fd565b9050613ff981612821565b505b3360009081526012602052604090205481111561402a5760405162461bcd60e51b8152600401610b6f90615873565b60148054600180820183556000929092527fce6d7b5282bd9a3661ae061feed1dbda4e52ab073b1f9285be6e155d9c38d4ec018054336001600160a01b031991821681179092558554811682178655858301805490911690911790556005840183905560068401805460ff19169091179055600883015460ff166140be5760088301805460ff191660011790554260098401555b6001601c60008282546140d19190616105565b909155505060405133907f439d77b7534ec3108fc6143bd4fbabde0b9f2bb54f7b0730d1f70dd2135b765f90611e61908590615151565b600f54101590565b3360009081526010602052604090206008015460ff1690565b601d546001600160a01b031681565b6001600160a01b038082166000908152601060209081526040808320815161014081018352815486168152600182015490951692850192909252600282015490840152600381015460ff9081161515606085015260048201546080850152600582015460a0850152600682015416151560c08401526007810180549293849390929160e08401916141c890616197565b80601f01602080910402602001604051908101604052809291908181526020018280546141f490616197565b80156142415780601f1061421657610100808354040283529160200191614241565b820191906000526020600020905b81548152906001019060200180831161422457829003601f168201915b5050509183525050600882015460ff161515602082015260099091015460409182015201519392505050565b84831461428c5760405162461bcd60e51b8152600401610b6f90615651565b8481146142ab5760405162461bcd60e51b8152600401610b6f90615e4f565b60005b8581101561193e576143338787838181106142d957634e487b7160e01b600052603260045260246000fd5b9050602002013586868481811061430057634e487b7160e01b600052603260045260246000fd5b9050602002013585858581811061432757634e487b7160e01b600052603260045260246000fd5b90506020020135613ca3565b8061433d816161d2565b9150506142ae565b3390565b6017546001600160a01b03166143715760405162461bcd60e51b8152600401610b6f90615c15565b6017546040516000916001600160a01b031690614392903390602401615184565b60408051601f198184030181529181526020820180516001600160e01b0316631f5ac9c560e11b179052516143c7919061515a565b6000604051808303816000865af19150503d8060008114614404576040519150601f19603f3d011682016040523d82523d6000602084013e614409565b606091505b50506017546040519192506000916001600160a01b0390911690614431903390602401615184565b60408051601f198184030181529181526020820180516001600160e01b03166358563d2160e01b17905251614466919061515a565b6000604051808303816000865af19150503d80600081146144a3576040519150601f19603f3d011682016040523d82523d6000602084013e6144a8565b606091505b5050905081806144b55750805b6127e45760405162461bcd60e51b8152600401610b6f90615452565b6001600160a01b03811660009081526010602052604090206144f282614523565b600601805460ff1916905550565b6000610fb38284616105565b60008183101561451c5781610fb3565b5090919050565b60008060005b60145481101561459757836001600160a01b03166014828154811061455e57634e487b7160e01b600052603260045260246000fd5b6000918252602090912001546001600160a01b031614156145855760019150809250614597565b8061458f816161d2565b915050614529565b50801561467657601480546145ae90600190616150565b815481106145cc57634e487b7160e01b600052603260045260246000fd5b600091825260209091200154601480546001600160a01b03909216918490811061460657634e487b7160e01b600052603260045260246000fd5b9060005260206000200160006101000a8154816001600160a01b0302191690836001600160a01b03160217905550601480548061465357634e487b7160e01b600052603160045260246000fd5b600082815260209020810160001990810180546001600160a01b03191690550190555b505050565b6001600160a01b038116600090815260106020526040902061469c826148f3565b600601805460ff1916600117905550565b600080546001600160a01b038381166001600160a01b0319831681178455604051919092169283917f8be0079c531659141344cd1fd0a4f28419497f9722a3daafe3b4186f6b6457e09190a35050565b6000610fb38284616150565b805160609060005b81811015614757578084828151811061473a57634e487b7160e01b600052603260045260246000fd5b60209081029190910101528061474f816161d2565b915050614711565b509192915050565b6060600082511161476f57600080fd5b81518060005b818110156148ea576000836147886129bd565b8784815181106147a857634e487b7160e01b600052603260045260246000fd5b60200260200101516040516020016147c1929190615176565b6040516020818303038152906040528051906020012060001c6147e491906161ed565b6147ef906001616105565b90506000866147ff600184616150565b8151811061481d57634e487b7160e01b600052603260045260246000fd5b60200260200101519050866001866148359190616150565b8151811061485357634e487b7160e01b600052603260045260246000fd5b6020026020010151876001846148699190616150565b8151811061488757634e487b7160e01b600052603260045260246000fd5b6020908102919091010152808761489f600188616150565b815181106148bd57634e487b7160e01b600052603260045260246000fd5b60209081029190910101526148d3600186616150565b9450505080806148e2906161d2565b915050614775565b50929392505050565b60008060005b60155481101561496757836001600160a01b03166015828154811061492e57634e487b7160e01b600052603260045260246000fd5b6000918252602090912001546001600160a01b031614156149555760019150809250614967565b8061495f816161d2565b9150506148f9565b508015614676576015805461497e90600190616150565b8154811061499c57634e487b7160e01b600052603260045260246000fd5b600091825260209091200154601580546001600160a01b0390921691849081106149d657634e487b7160e01b600052603260045260246000fd5b9060005260206000200160006101000a8154816001600160a01b0302191690836001600160a01b03160217905550601580548061465357634e487b7160e01b600052603160045260246000fd5b828054614a2f90616197565b90600052602060002090601f016020900481019282614a515760008555614a97565b82601f10614a6a57805160ff1916838001178555614a97565b82800160010185558215614a97579182015b82811115614a97578251825591602001919060010190614a7c565b50614aa3929150614aa7565b5090565b5b80821115614aa35760008155600101614aa8565b80356001600160a01b0381168114610bfb57600080fd5b60008083601f840112614ae4578182fd5b5081356001600160401b03811115614afa578182fd5b6020830191508360208083028501011115614b1457600080fd5b9250929050565b600082601f830112614b2b578081fd5b81516020614b40614b3b836160d6565b6160ad565b82815281810190858301855b85811015614b7557614b63898684518b0101614bfb565b84529284019290840190600101614b4c565b5090979650505050505050565b600082601f830112614b92578081fd5b81516020614ba2614b3b836160d6565b8281528181019085830183850287018401881015614bbe578586fd5b855b85811015614b7557815184529284019290840190600101614bc0565b80518015158114610bfb57600080fd5b805160048110610bfb57600080fd5b600082601f830112614c0b578081fd5b81516001600160401b03811115614c2457614c2461622d565b614c37601f8201601f19166020016160ad565b818152846020838601011115614c4b578283fd5b6136f3826020830160208701616167565b600060208284031215614c6d578081fd5b610fb382614abc565b60008060408385031215614c88578081fd5b614c9183614abc565b946020939093013593505050565b600080600060608486031215614cb3578081fd5b614cbc84614abc565b95602085013595506040909401359392505050565b60008060008060408587031215614ce6578081fd5b84356001600160401b0380821115614cfc578283fd5b614d0888838901614ad3565b90965094506020870135915080821115614d20578283fd5b50614d2d87828801614ad3565b95989497509550505050565b60008060008060008060608789031215614d51578384fd5b86356001600160401b0380821115614d67578586fd5b614d738a838b01614ad3565b90985096506020890135915080821115614d8b578586fd5b614d978a838b01614ad3565b90965094506040890135915080821115614daf578384fd5b50614dbc89828a01614ad3565b979a9699509497509295939492505050565b60006020808385031215614de0578182fd5b82356001600160401b03811115614df5578283fd5b8301601f81018513614e05578283fd5b8035614e13614b3b826160d6565b8181528381019083850185840285018601891015614e2f578687fd5b8694505b83851015614e51578035835260019490940193918501918501614e33565b50979650505050505050565b600060208284031215614e6e578081fd5b610fb382614bdc565b600060208284031215614e88578081fd5b81516001600160401b0380821115614e9e578283fd5b81840191506101e0808387031215614eb4578384fd5b614ebd816160ad565b905082518152602083015160208201526040830151604082015260608301516060820152614eed60808401614bdc565b6080820152614efe60a08401614bdc565b60a0820152614f0f60c08401614bdc565b60c082015260e083810151908201526101008084015190820152610120808401519082015261014080840151908201526101608084015183811115614f52578586fd5b614f5e88828701614bfb565b828401525050610180614f72818501614bec565b908201526101a08381015183811115614f89578586fd5b614f9588828701614b1b565b8284015250506101c08084015183811115614fae578586fd5b614fba88828701614b82565b918301919091525095945050505050565b600060208284031215614fdc578081fd5b5035919050565b600060208284031215611150578081fd5b60008060408385031215615006578182fd5b8235915061501660208401614abc565b90509250929050565b60008060408385031215615031578182fd5b50508035926020909101359150565b60008060008060808587031215615055578182fd5b843593506020850135925061506c60408601614abc565b9396929550929360600135925050565b600080600060608486031215615090578081fd5b505081359360208301359350604090920135919050565b600481106150c557634e487b7160e01b600052602160045260246000fd5b9052565b600081518084526150e1816020860160208601616167565b601f01601f19169290920160200192915050565b600a8152690c6dedadad2e890c2e6d60b31b602082015260400190565b60609190911b6bffffffffffffffffffffffff1916815260140190565b60609290921b6bffffffffffffffffffffffff19168252601482015260340190565b90815260200190565b6000825161516c818460208701616167565b9190910192915050565b918252602082015260400190565b6001600160a01b0391909116815260200190565b6001600160a01b038b811682528a1660208201526040810189905287151560608201526080810187905260a0810186905284151560c082015261014060e082018190526000906151ea838201876150c9565b9415156101008401525050610120015298975050505050505050565b6000602080830181845280855180835260408601915060408482028701019250838701855b8281101561525957603f198886030184526152478583516150c9565b9450928501929085019060010161522b565b5092979650505050505050565b6020808252825182820181905260009190848201906040850190845b8181101561529e57835183529284019291840191600101615282565b50909695505050505050565b901515815260200190565b6000604082526152c860408301856150c9565b905060018060a01b03831660208301529392505050565b6000608082526152f260808301876150c9565b6001600160a01b038616602084015260408301859052905061531760608301846150a7565b95945050505050565b600060208083528184548360028204905060018083168061534257607f831692505b85831081141561536057634e487b7160e01b87526022600452602487fd5b61536c83878a01615151565b8180156153805760018114615391576153bb565b60ff198616825287820196506153bb565b61539a8b6160f9565b895b868110156153b55781548482015290850190890161539c565b83019750505b50949998505050505050505050565b6020808252601c908201527f576f726b657220697320616c7265616479207265676973746572656400000000604082015260600190565b60208082526031908201527f676976656e204461746142617463682073686f756c6420626520415050524f5660408201527011510b08185b99081a5d081a5cc81b9bdd607a1b606082015260800190565b60208082526025908201527f72656365697665722072656a6563746564205f7265747269657665534675656c6040820152640818d85b1b60da1b606082015260800190565b6020808252604b908201527f4572726f72207768656e20636f6d6d6974466f726d6174436865636b733a205f60408201527f4461746142617463684944732e6c656e677468203d3d205f736563726574486160608201526a0e6d0cae65cd8cadccee8d60ab1b608082015260a00190565b6020808252605c908201527f4e6f74207468652073616d6520766f7465207468616e2077686174207761732060408201527f636f6d6d697465642c20696d706f737369626c6520746f206d6174636820776960608201527f746820676976656e205f73616c742026205f766f74654f7074696f6e00000000608082015260a00190565b60208082526026908201527f4f776e61626c653a206e6577206f776e657220697320746865207a65726f206160408201526564647265737360d01b606082015260800190565b60208082526029908201527f6b206f72204e20617265206e6f74204f4b20647572696e672072616e646f6d2060408201526839b2b632b1ba34b7b760b91b606082015260800190565b6020808252601e908201527f636f6d6d697420706572696f64206e6565647320746f206265206f70656e0000604082015260600190565b60208082526054908201527f4572726f722072657665616c466f726d6174436865636b733a205f446174614260408201527f617463684944732e6c656e67746820616e64205f766f74654f7074696f6e732e6060820152731b195b99dd1a081b5d5cdd08189948195c5d585b60621b608082015260a00190565b6020808252602b908201527f576f726b6572206973206e6f7420617661696c61626c6520736f2063616e277460408201526a103ab73932b3b4b9ba32b960a91b606082015260800190565b6020808252603d908201527f436f756c64206e6f74207265717565737420656e6f75676820616c6c6f63617460408201527f6564207374616b652c2072657175657374566f74696e67526967687473000000606082015260800190565b6020808252601a908201527f5f446174614261746368496420686173206e6f7420656e646564000000000000604082015260600190565b6020808252602f908201527f5573657220686173206e6f7420636f6d6d69746564206265666f72652c20746860408201526e1d5cc818d85b89dd081c995d99585b608a1b606082015260800190565b6020808252602c908201527f4461746120426174636820436865636b696e6720636f6d6d69746565206d757360408201526b1d081a185d9948195b99195960a21b606082015260800190565b60208082526014908201527311185d18481b5d5cdd081a185d9948195b99195960621b604082015260600190565b60208082526043908201527f576f726b657220686173206e6f7420656e6f75676820285f6e756d546f6b656e60408201527f732920696e2068697320466f726d61745374616b6564546f6b656e42616c616e606082015262031b2960ed1b608082015260a00190565b60208082526039908201527f646c6c4d61703a20646f6573206e6f7420636f696e7461696e205f446174614260408201527f61746368496420666f7220746865206d73672073656e64657200000000000000606082015260800190565b6020808252602b908201527f75736572206d75737420686176652072657665616c656420696e20746869732060408201526a0ced2eccadc4084c2e8c6d60ab1b606082015260800190565b6020808252601490820152733737ba1030903b30b634b2103837b9b4ba34b7b760611b604082015260600190565b6020808252603b908201527f43616e277420616c6c6f6361746520776f726b2c207468652063757272656e7460408201527f20626174636820697320616c726561647920616c6c6f63617465640000000000606082015260800190565b60208082526048908201527f55736572206e6565647320746f2068617665206265656e20616c6c6f6361746560408201527f64207468652063757272656e74206461746120626174636820746f20636f6d6d6060820152671a5d081bdb881a5d60c21b608082015260a00190565b6020808252818101527f4f776e61626c653a2063616c6c6572206973206e6f7420746865206f776e6572604082015260600190565b60208082526029908201527f6765744e756d50617373696e67546f6b656e733a20686173686573206d75737460408201526808189948195c5d585b60ba1b606082015260800190565b60208082526036908201527f43616e277420616c6c6f6361746520776f726b2c207468652063757272656e74604082015275206261746368206973206e6f7420636f6d706c65746560501b606082015260800190565b60208082526026908201527f52657665616c20706572696f64206e6f74206f70656e20666f7220746869732060408201526511185d18525160d21b606082015260800190565b60208082526027908201527f617661696c61626c65546f6b656e732073686f756c64206265203e3d205f6e756040820152666d546f6b656e7360c81b606082015260800190565b60208082526017908201527f5f4461746142617463684964206d757374206578697374000000000000000000604082015260600190565b6020808252601390820152720c081059191c995cdcc8139bdd0815985b1a59606a1b604082015260600190565b6020808252602f908201527f636f756c64206e6f74207265776172642052455020696e20547269676765724360408201526e6865636b466f726d61742c20322e6160881b606082015260800190565b60208082526022908201527f4d6178696d756d207265676973746572656420776f726b65727320616c726561604082015261647960f01b606082015260800190565b60208082526037908201527f75736572206d757374206861766520656e6f75676820766f74696e672072696760408201527f68747320616b6120616c6c6f6361746564207374616b65000000000000000000606082015260800190565b6020808252602f908201527f636f756c64206e6f74207265776172642052455020696e20547269676765724360408201526e6865636b466f726d61742c20312e6160881b606082015260800190565b6020808252602a908201527f5f446174614261746368496420636865636b696e6720766f7465206d757374206040820152691a185d9948195b99195960b21b606082015260800190565b6020808252603b908201527f436f756c64206e6f74207769746864726177566f74696e67526967687473207460408201527f68726f7567682050726f78795374616b654465616c6c6f636174650000000000606082015260800190565b6020808252600f908201526e11185d18481b5d5cdd08195e1a5cdd608a1b604082015260600190565b6020808252604e908201527f4572726f722072657665616c466f726d6174436865636b733a205f446174614260408201527f617463684944732e6c656e67746820616e64205f73616c74732e6c656e67746860608201526d081b5d5cdd08189948195c5d585b60921b608082015260a00190565b60208082526043908201527f6c61737420626174636820746f20636865636b206d75737420626520636f6d7060408201527f6c65746520746f2070726f6365656420696e20547269676765724e65787445706060820152620dec6d60eb1b608082015260a00190565b600085825284602083015260806040830152615f4b60808301856150c9565b905082606083015295945050505050565b6000838252826020830152606060408301526136f3606083016150f5565b600084825283602083015260806040830152615f98608083016150f5565b9050826060830152949350505050565b9182526020820152606060408201819052600990820152686e756d546f6b656e7360b81b608082015260a00190565b93845260208401929092526040830152606082015260800190565b9182526001600160a01b0316602082015260400190565b9182526001600160a01b031660208201526000604082015260600190565b9283526020830191909152604082015260600190565b6000610180820190508d82528c60208301528b60408301528a6060830152891515608083015288151560a083015287151560c08301528660e083015285610100830152846101208301528361014083015261609c6101608301846150a7565b9d9c50505050505050505050505050565b6040518181016001600160401b03811182821017156160ce576160ce61622d565b604052919050565b60006001600160401b038211156160ef576160ef61622d565b5060209081020190565b60009081526020902090565b6000821982111561611857616118616201565b500190565b60008261612c5761612c616217565b500490565b600081600019048311821515161561614b5761614b616201565b500290565b60008282101561616257616162616201565b500390565b60005b8381101561618257818101518382015260200161616a565b83811115616191576000848401525b50505050565b6002810460018216806161ab57607f821691505b602082108114156161cc57634e487b7160e01b600052602260045260246000fd5b50919050565b60006000198214156161e6576161e6616201565b5060010190565b6000826161fc576161fc616217565b500690565b634e487b7160e01b600052601160045260246000fd5b634e487b7160e01b600052601260045260246000fd5b634e487b7160e01b600052604160045260246000fdfea2646970667358221220f35d71ba9a6c0b8e45818feeb8ad3446bf4d30238ee644edf1299b49bfd9af5664736f6c63430008000033",
  "linkReferences": {
    "contracts/worksystems/DataFormatting.sol": {
      "AttributeStore2": [
        {
          "length": 20,
          "start": 9075
        },
        {
          "length": 20,
          "start": 9183
        },
        {
          "length": 20,
          "start": 13728
        },
        {
          "length": 20,
          "start": 13981
        }
      ],
      "DLL2": [
        {
          "length": 20,
          "start": 4109
        },
        {
          "length": 20,
          "start": 4281
        },
        {
          "length": 20,
          "start": 4878
        },
        {
          "length": 20,
          "start": 8564
        },
        {
          "length": 20,
          "start": 8726
        },
        {
          "length": 20,
          "start": 8921
        },
        {
          "length": 20,
          "start": 10205
        },
        {
          "length": 20,
          "start": 10385
        },
        {
          "length": 20,
          "start": 16206
        }
      ]
    }
  },
  "deployedLinkReferences": {
    "contracts/worksystems/DataFormatting.sol": {
      "AttributeStore2": [
        {
          "length": 20,
          "start": 8681
        },
        {
          "length": 20,
          "start": 8789
        },
        {
          "length": 20,
          "start": 13334
        },
        {
          "length": 20,
          "start": 13587
        }
      ],
      "DLL2": [
        {
          "length": 20,
          "start": 3715
        },
        {
          "length": 20,
          "start": 3887
        },
        {
          "length": 20,
          "start": 4484
        },
        {
          "length": 20,
          "start": 8170
        },
        {
          "length": 20,
          "start": 8332
        },
        {
          "length": 20,
          "start": 8527
        },
        {
          "length": 20,
          "start": 9811
        },
        {
          "length": 20,
          "start": 9991
        },
        {
          "length": 20,
          "start": 15812
        }
      ]
    }
  }
}